{
    "contractName": "Story",
    "abi": [
        {
            "inputs": [
                {
                    "internalType": "string",
                    "name": "_mainIdea",
                    "type": "string"
                },
                {
                    "internalType": "address",
                    "name": "_mainAuthor",
                    "type": "address"
                }
            ],
            "stateMutability": "nonpayable",
            "type": "constructor"
        },
        {
            "inputs": [
                {
                    "internalType": "string",
                    "name": "_chapter",
                    "type": "string"
                }
            ],
            "name": "addChapter",
            "outputs": [],
            "stateMutability": "nonpayable",
            "type": "function"
        },
        {
            "inputs": [
                {
                    "internalType": "uint256",
                    "name": "_index",
                    "type": "uint256"
                }
            ],
            "name": "approveRequestToJoin",
            "outputs": [],
            "stateMutability": "nonpayable",
            "type": "function"
        },
        {
            "inputs": [
                {
                    "internalType": "uint256",
                    "name": "",
                    "type": "uint256"
                }
            ],
            "name": "authorsForReact",
            "outputs": [
                {
                    "internalType": "address",
                    "name": "",
                    "type": "address"
                }
            ],
            "stateMutability": "view",
            "type": "function"
        },
        {
            "inputs": [
                {
                    "internalType": "address",
                    "name": "",
                    "type": "address"
                }
            ],
            "name": "authorsForSolidity",
            "outputs": [
                {
                    "internalType": "bool",
                    "name": "",
                    "type": "bool"
                }
            ],
            "stateMutability": "view",
            "type": "function"
        },
        {
            "inputs": [
                {
                    "internalType": "string",
                    "name": "_proposal",
                    "type": "string"
                }
            ],
            "name": "createRequestToJoin",
            "outputs": [],
            "stateMutability": "nonpayable",
            "type": "function"
        },
        {
            "inputs": [],
            "name": "getSummary",
            "outputs": [
                {
                    "internalType": "string",
                    "name": "",
                    "type": "string"
                },
                {
                    "internalType": "string[]",
                    "name": "",
                    "type": "string[]"
                },
                {
                    "internalType": "address[]",
                    "name": "",
                    "type": "address[]"
                },
                {
                    "components": [
                        {
                            "internalType": "string",
                            "name": "proposal",
                            "type": "string"
                        },
                        {
                            "internalType": "uint256",
                            "name": "timestamp",
                            "type": "uint256"
                        },
                        {
                            "internalType": "address",
                            "name": "author",
                            "type": "address"
                        }
                    ],
                    "internalType": "struct Story.RequestToJoin[]",
                    "name": "",
                    "type": "tuple[]"
                }
            ],
            "stateMutability": "view",
            "type": "function"
        },
        {
            "inputs": [],
            "name": "mainIdea",
            "outputs": [
                {
                    "internalType": "string",
                    "name": "",
                    "type": "string"
                }
            ],
            "stateMutability": "view",
            "type": "function"
        },
        {
            "inputs": [
                {
                    "internalType": "uint256",
                    "name": "",
                    "type": "uint256"
                }
            ],
            "name": "requestsToJoin",
            "outputs": [
                {
                    "internalType": "string",
                    "name": "proposal",
                    "type": "string"
                },
                {
                    "internalType": "uint256",
                    "name": "timestamp",
                    "type": "uint256"
                },
                {
                    "internalType": "address",
                    "name": "author",
                    "type": "address"
                }
            ],
            "stateMutability": "view",
            "type": "function"
        },
        {
            "inputs": [
                {
                    "internalType": "uint256",
                    "name": "",
                    "type": "uint256"
                }
            ],
            "name": "storyStrings",
            "outputs": [
                {
                    "internalType": "string",
                    "name": "",
                    "type": "string"
                }
            ],
            "stateMutability": "view",
            "type": "function"
        }
    ],
    "bytecode": "60806040523480156200001157600080fd5b5060405162001231380380620012318339810160408190526200003491620000e1565b600062000042838262000258565b506001600160a01b03166000818152600260205260408120805460ff191660019081179091556003805491820181559091527fc2575a0e9e593c00f959f8c92f12db2869c3395a3b0502d05e2516446f71f85b0180546001600160a01b03191690911790555062000324565b634e487b7160e01b600052604160045260246000fd5b80516001600160a01b0381168114620000dc57600080fd5b919050565b60008060408385031215620000f557600080fd5b82516001600160401b03808211156200010d57600080fd5b818501915085601f8301126200012257600080fd5b815181811115620001375762000137620000ae565b604051601f8201601f19908116603f01168101908382118183101715620001625762000162620000ae565b816040528281526020935088848487010111156200017f57600080fd5b600091505b82821015620001a3578482018401518183018501529083019062000184565b6000848483010152809650505050620001be818601620000c4565b925050509250929050565b600181811c90821680620001de57607f821691505b602082108103620001ff57634e487b7160e01b600052602260045260246000fd5b50919050565b601f8211156200025357600081815260208120601f850160051c810160208610156200022e5750805b601f850160051c820191505b818110156200024f578281556001016200023a565b5050505b505050565b81516001600160401b03811115620002745762000274620000ae565b6200028c81620002858454620001c9565b8462000205565b602080601f831160018114620002c45760008415620002ab5750858301515b600019600386901b1c1916600185901b1785556200024f565b600085815260208120601f198616915b82811015620002f557888601518255948401946001909101908401620002d4565b5085821015620003145787850151600019600388901b60f8161c191681555b5050505050600190811b01905550565b610efd80620003346000396000f3fe608060405234801561001057600080fd5b50600436106100935760003560e01c80639d3ed807116100665780639d3ed8071461011f5780639f0241d21461014a578063dfa14e231461016a578063e1715d241461017d578063e8ae38e41461019057600080fd5b80633e5690f4146100985780634051ddac146100d05780636fc6c579146100e857806398b796281461010a575b600080fd5b6100bb6100a6366004610a6d565b60026020526000908152604090205460ff1681565b60405190151581526020015b60405180910390f35b6100d8610198565b6040516100c79493929190610ba8565b6100fb6100f6366004610c42565b61047d565b6040516100c793929190610c5b565b61011d610118366004610c42565b610549565b005b61013261012d366004610c42565b610777565b6040516001600160a01b0390911681526020016100c7565b61015d610158366004610c42565b6107a1565b6040516100c79190610c8e565b61011d610178366004610cb7565b61084d565b61011d61018b366004610cb7565b61095a565b61015d610a0a565b60608060608060006001600360048380546101b290610d68565b80601f01602080910402602001604051908101604052809291908181526020018280546101de90610d68565b801561022b5780601f106102005761010080835404028352916020019161022b565b820191906000526020600020905b81548152906001019060200180831161020e57829003601f168201915b5050505050935082805480602002602001604051908101604052809291908181526020016000905b828210156102ff57838290600052602060002001805461027290610d68565b80601f016020809104026020016040519081016040528092919081815260200182805461029e90610d68565b80156102eb5780601f106102c0576101008083540402835291602001916102eb565b820191906000526020600020905b8154815290600101906020018083116102ce57829003601f168201915b505050505081526020019060010190610253565b5050505092508180548060200260200160405190810160405280929190818152602001828054801561035a57602002820191906000526020600020905b81546001600160a01b0316815260019091019060200180831161033c575b5050505050915080805480602002602001604051908101604052809291908181526020016000905b8282101561046957838290600052602060002090600302016040518060600160405290816000820180546103b590610d68565b80601f01602080910402602001604051908101604052809291908181526020018280546103e190610d68565b801561042e5780601f106104035761010080835404028352916020019161042e565b820191906000526020600020905b81548152906001019060200180831161041157829003601f168201915b50505091835250506001828101546020808401919091526002909301546001600160a01b031660409092019190915291835292019101610382565b505050509050935093509350935090919293565b6004818154811061048d57600080fd5b90600052602060002090600302016000915090508060000180546104b090610d68565b80601f01602080910402602001604051908101604052809291908181526020018280546104dc90610d68565b80156105295780601f106104fe57610100808354040283529160200191610529565b820191906000526020600020905b81548152906001019060200180831161050c57829003601f168201915b5050505060018301546002909301549192916001600160a01b0316905083565b3360009081526002602052604090205460ff166105c35760405162461bcd60e51b815260206004820152602d60248201527f4f6e6c7920616e20616363657074656420617574686f722063616e206170707260448201526c1bdd994818481c995c5d595cdd609a1b60648201526084015b60405180910390fd5b60026000600483815481106105da576105da610da2565b60009182526020808320600260039093020191909101546001600160a01b0316835282019290925260400190205460ff1615610680576040805162461bcd60e51b81526020600482015260248101919091527f417574686f72206f6620746865207265717565737420697320616c726561647960448201527f20696e636c7564656420696e20746865206c697374206f6620617574686f727360648201526084016105ba565b6001600260006004848154811061069957610699610da2565b60009182526020808320600392830201600201546001600160a01b0316845283019390935260409091019020805460ff19169215159290921790915560048054839081106106e9576106e9610da2565b60009182526020808320600260039093020191909101548354600181018555938352912090910180546001600160a01b0319166001600160a01b03909216919091179055600480548290811061074157610741610da2565b6000918252602082206003909102019061075b8282610a17565b506000600182015560020180546001600160a01b031916905550565b6003818154811061078757600080fd5b6000918252602090912001546001600160a01b0316905081565b600181815481106107b157600080fd5b9060005260206000200160009150905080546107cc90610d68565b80601f01602080910402602001604051908101604052809291908181526020018280546107f890610d68565b80156108455780601f1061081a57610100808354040283529160200191610845565b820191906000526020600020905b81548152906001019060200180831161082857829003601f168201915b505050505081565b3360009081526002602052604090205460ff16156108c25760405162461bcd60e51b815260206004820152602c60248201527f417574686f7220616c72656164792065786973747320696e20746865206c697360448201526b74206f6620617574686f727360a01b60648201526084016105ba565b60408051606081018252828152426020820152339181019190915260048054600181018255600091909152815182916003027f8a35acfbc15ff81a39ae7d344fd709f28e8600b4aa8c65c6b64bfe7fe36bd19b019081906109239082610e07565b5060208201516001820155604090910151600290910180546001600160a01b0319166001600160a01b039092169190911790555050565b3360009081526002602052604090205460ff166109cb5760405162461bcd60e51b815260206004820152602960248201527f4f6e6c7920616e20616363657074656420617574686f722063616e2061646420604482015268309031b430b83a32b960b91b60648201526084016105ba565b6001805480820182556000919091527fb10e2d527612073b26eecdfd717e6a320cf44b4afac2b0732d9fcbe2b7fa0cf601610a068282610e07565b5050565b600080546107cc90610d68565b508054610a2390610d68565b6000825580601f10610a33575050565b601f016020900490600052602060002090810190610a519190610a54565b50565b5b80821115610a695760008155600101610a55565b5090565b600060208284031215610a7f57600080fd5b81356001600160a01b0381168114610a9657600080fd5b9392505050565b6000815180845260005b81811015610ac357602081850181015186830182015201610aa7565b506000602082860101526020601f19601f83011685010191505092915050565b600081518084526020808501945080840160005b83811015610b1c5781516001600160a01b031687529582019590820190600101610af7565b509495945050505050565b600082825180855260208086019550808260051b84010181860160005b84811015610b9b57601f19868403018952815160608151818652610b6a82870182610a9d565b83880151878901526040938401516001600160a01b0316939096019290925250509783019790830190600101610b44565b5090979650505050505050565b608081526000610bbb6080830187610a9d565b6020838203818501528187518084528284019150828160051b850101838a0160005b83811015610c0b57601f19878403018552610bf9838351610a9d565b94860194925090850190600101610bdd565b50508681036040880152610c1f818a610ae3565b9450505050508281036060840152610c378185610b27565b979650505050505050565b600060208284031215610c5457600080fd5b5035919050565b606081526000610c6e6060830186610a9d565b6020830194909452506001600160a01b0391909116604090910152919050565b602081526000610a966020830184610a9d565b634e487b7160e01b600052604160045260246000fd5b600060208284031215610cc957600080fd5b813567ffffffffffffffff80821115610ce157600080fd5b818401915084601f830112610cf557600080fd5b813581811115610d0757610d07610ca1565b604051601f8201601f19908116603f01168101908382118183101715610d2f57610d2f610ca1565b81604052828152876020848701011115610d4857600080fd5b826020860160208301376000928101602001929092525095945050505050565b600181811c90821680610d7c57607f821691505b602082108103610d9c57634e487b7160e01b600052602260045260246000fd5b50919050565b634e487b7160e01b600052603260045260246000fd5b601f821115610e0257600081815260208120601f850160051c81016020861015610ddf5750805b601f850160051c820191505b81811015610dfe57828155600101610deb565b5050505b505050565b815167ffffffffffffffff811115610e2157610e21610ca1565b610e3581610e2f8454610d68565b84610db8565b602080601f831160018114610e6a5760008415610e525750858301515b600019600386901b1c1916600185901b178555610dfe565b600085815260208120601f198616915b82811015610e9957888601518255948401946001909101908401610e7a565b5085821015610eb75787850151600019600388901b60f8161c191681555b5050505050600190811b0190555056fea2646970667358221220685881a82f99e823bb6039c4123e542916461628c8dfc4987404f9923e65510164736f6c63430008130033",
    "sourcePath": "d:/GUC/Bachelor/T1-MultiAuthorAppOnBlockchain/ethereum/contracts/Story.sol",
    "compiler": {
        "name": "solc",
        "version": "0.8.19+commit.7dd6d404"
    },
    "functionHashes": {
        "addChapter(string)": "e1715d24",
        "approveRequestToJoin(uint256)": "98b79628",
        "authorsForReact(uint256)": "9d3ed807",
        "authorsForSolidity(address)": "3e5690f4",
        "createRequestToJoin(string)": "dfa14e23",
        "getSummary()": "4051ddac",
        "mainIdea()": "e8ae38e4",
        "requestsToJoin(uint256)": "6fc6c579",
        "storyStrings(uint256)": "9f0241d2"
    },
    "gasEstimates": {
        "creation": {
            "codeDepositCost": "767400",
            "executionCost": "infinite",
            "totalCost": "infinite"
        },
        "external": {
            "addChapter(string)": "infinite",
            "approveRequestToJoin(uint256)": "infinite",
            "authorsForReact(uint256)": "4614",
            "authorsForSolidity(address)": "2486",
            "createRequestToJoin(string)": "infinite",
            "getSummary()": "infinite",
            "mainIdea()": "infinite",
            "requestsToJoin(uint256)": "infinite",
            "storyStrings(uint256)": "infinite"
        }
    }
}