{"abi":[{"inputs":[{"internalType":"address","name":"_author","type":"address"},{"internalType":"address","name":"_story","type":"address"},{"internalType":"string","name":"_ipfsHash","type":"string"},{"internalType":"address","name":"parentChapter","type":"address"},{"internalType":"address","name":"childChapter","type":"address"}],"stateMutability":"nonpayable","type":"constructor"},{"inputs":[],"name":"author","outputs":[{"internalType":"address","name":"","type":"address"}],"stateMutability":"view","type":"function"},{"inputs":[],"name":"getSummary","outputs":[{"internalType":"address","name":"","type":"address"},{"internalType":"address","name":"","type":"address"},{"internalType":"string","name":"","type":"string"},{"internalType":"address[]","name":"","type":"address[]"},{"internalType":"address[]","name":"","type":"address[]"},{"internalType":"uint256","name":"","type":"uint256"}],"stateMutability":"view","type":"function"},{"inputs":[],"name":"ipfsHash","outputs":[{"internalType":"string","name":"","type":"string"}],"stateMutability":"view","type":"function"},{"inputs":[],"name":"like","outputs":[],"stateMutability":"nonpayable","type":"function"},{"inputs":[],"name":"likeCount","outputs":[{"internalType":"uint256","name":"","type":"uint256"}],"stateMutability":"view","type":"function"},{"inputs":[{"internalType":"address","name":"childChapter","type":"address"}],"name":"linkChildChapter","outputs":[],"stateMutability":"nonpayable","type":"function"},{"inputs":[{"internalType":"address","name":"parentChapter","type":"address"}],"name":"linkParentChapter","outputs":[],"stateMutability":"nonpayable","type":"function"},{"inputs":[{"internalType":"uint256","name":"","type":"uint256"}],"name":"linkedChildChapters","outputs":[{"internalType":"address","name":"","type":"address"}],"stateMutability":"view","type":"function"},{"inputs":[{"internalType":"uint256","name":"","type":"uint256"}],"name":"linkedParentChapters","outputs":[{"internalType":"address","name":"","type":"address"}],"stateMutability":"view","type":"function"},{"inputs":[],"name":"story","outputs":[{"internalType":"address","name":"","type":"address"}],"stateMutability":"view","type":"function"}],"devdoc":{"kind":"dev","methods":{},"version":1},"evm":{"assembly":"    /* \"Story.sol\":8916:10660  contract Chapter {... */\n  mstore(0x40, 0x80)\n    /* \"Story.sol\":9218:9637  constructor(address _author, address _story, string memory _ipfsHash, address parentChapter, address childChapter) {... */\n  callvalue\n  dup1\n  iszero\n  tag_1\n  jumpi\n  0x00\n  dup1\n  revert\ntag_1:\n  pop\n  mload(0x40)\n  sub(codesize, bytecodeSize)\n  dup1\n  bytecodeSize\n  dup4\n  codecopy\n  dup2\n  dup2\n  add\n  0x40\n  mstore\n  dup2\n  add\n  swap1\n  tag_2\n  swap2\n  swap1\n  tag_3\n  jump\t// in\ntag_2:\n    /* \"Story.sol\":9353:9360  _author */\n  dup5\n    /* \"Story.sol\":9344:9350  author */\n  0x01\n  0x00\n    /* \"Story.sol\":9344:9360  author = _author */\n  0x0100\n  exp\n  dup2\n  sload\n  dup2\n  0xffffffffffffffffffffffffffffffffffffffff\n  mul\n  not\n  and\n  swap1\n  dup4\n  0xffffffffffffffffffffffffffffffffffffffff\n  and\n  mul\n  or\n  swap1\n  sstore\n  pop\n    /* \"Story.sol\":9379:9385  _story */\n  dup4\n    /* \"Story.sol\":9371:9376  story */\n  0x00\n  dup1\n    /* \"Story.sol\":9371:9385  story = _story */\n  0x0100\n  exp\n  dup2\n  sload\n  dup2\n  0xffffffffffffffffffffffffffffffffffffffff\n  mul\n  not\n  and\n  swap1\n  dup4\n  0xffffffffffffffffffffffffffffffffffffffff\n  and\n  mul\n  or\n  swap1\n  sstore\n  pop\n    /* \"Story.sol\":9407:9416  _ipfsHash */\n  dup3\n    /* \"Story.sol\":9396:9404  ipfsHash */\n  0x02\n    /* \"Story.sol\":9396:9416  ipfsHash = _ipfsHash */\n  swap1\n  dup1\n  mload\n  swap1\n  0x20\n  add\n  swap1\n  tag_6\n  swap3\n  swap2\n  swap1\n  tag_7\n  jump\t// in\ntag_6:\n  pop\n    /* \"Story.sol\":9455:9456  0 */\n  0x00\n    /* \"Story.sol\":9430:9457  parentChapter != address(0) */\n  0xffffffffffffffffffffffffffffffffffffffff\n  and\n    /* \"Story.sol\":9430:9443  parentChapter */\n  dup3\n    /* \"Story.sol\":9430:9457  parentChapter != address(0) */\n  0xffffffffffffffffffffffffffffffffffffffff\n  and\n  eq\n    /* \"Story.sol\":9427:9525  if(parentChapter != address(0)){... */\n  tag_8\n  jumpi\n    /* \"Story.sol\":9473:9493  linkedParentChapters */\n  0x03\n    /* \"Story.sol\":9499:9512  parentChapter */\n  dup3\n    /* \"Story.sol\":9473:9513  linkedParentChapters.push(parentChapter) */\n  swap1\n  dup1\n  0x01\n  dup2\n  sload\n  add\n  dup1\n  dup3\n  sstore\n  dup1\n  swap2\n  pop\n  pop\n  0x01\n  swap1\n  sub\n  swap1\n  0x00\n  mstore\n  keccak256(0x00, 0x20)\n  add\n  0x00\n  swap1\n  swap2\n  swap1\n  swap2\n  swap1\n  swap2\n  0x0100\n  exp\n  dup2\n  sload\n  dup2\n  0xffffffffffffffffffffffffffffffffffffffff\n  mul\n  not\n  and\n  swap1\n  dup4\n  0xffffffffffffffffffffffffffffffffffffffff\n  and\n  mul\n  or\n  swap1\n  sstore\n  pop\n    /* \"Story.sol\":9427:9525  if(parentChapter != address(0)){... */\ntag_8:\n    /* \"Story.sol\":9562:9563  0 */\n  0x00\n    /* \"Story.sol\":9538:9564  childChapter != address(0) */\n  0xffffffffffffffffffffffffffffffffffffffff\n  and\n    /* \"Story.sol\":9538:9550  childChapter */\n  dup2\n    /* \"Story.sol\":9538:9564  childChapter != address(0) */\n  0xffffffffffffffffffffffffffffffffffffffff\n  and\n  eq\n    /* \"Story.sol\":9535:9630  if(childChapter != address(0)){... */\n  tag_10\n  jumpi\n    /* \"Story.sol\":9580:9599  linkedChildChapters */\n  0x04\n    /* \"Story.sol\":9605:9617  childChapter */\n  dup2\n    /* \"Story.sol\":9580:9618  linkedChildChapters.push(childChapter) */\n  swap1\n  dup1\n  0x01\n  dup2\n  sload\n  add\n  dup1\n  dup3\n  sstore\n  dup1\n  swap2\n  pop\n  pop\n  0x01\n  swap1\n  sub\n  swap1\n  0x00\n  mstore\n  keccak256(0x00, 0x20)\n  add\n  0x00\n  swap1\n  swap2\n  swap1\n  swap2\n  swap1\n  swap2\n  0x0100\n  exp\n  dup2\n  sload\n  dup2\n  0xffffffffffffffffffffffffffffffffffffffff\n  mul\n  not\n  and\n  swap1\n  dup4\n  0xffffffffffffffffffffffffffffffffffffffff\n  and\n  mul\n  or\n  swap1\n  sstore\n  pop\n    /* \"Story.sol\":9535:9630  if(childChapter != address(0)){... */\ntag_10:\n    /* \"Story.sol\":9218:9637  constructor(address _author, address _story, string memory _ipfsHash, address parentChapter, address childChapter) {... */\n  pop\n  pop\n  pop\n  pop\n  pop\n    /* \"Story.sol\":8916:10660  contract Chapter {... */\n  jump(tag_12)\ntag_7:\n  dup3\n  dup1\n  sload\n  tag_13\n  swap1\n  tag_14\n  jump\t// in\ntag_13:\n  swap1\n  0x00\n  mstore\n  keccak256(0x00, 0x20)\n  swap1\n  0x1f\n  add\n  0x20\n  swap1\n  div\n  dup2\n  add\n  swap3\n  dup3\n  tag_16\n  jumpi\n  0x00\n  dup6\n  sstore\n  jump(tag_15)\ntag_16:\n  dup3\n  0x1f\n  lt\n  tag_17\n  jumpi\n  dup1\n  mload\n  not(0xff)\n  and\n  dup4\n  dup1\n  add\n  or\n  dup6\n  sstore\n  jump(tag_15)\ntag_17:\n  dup3\n  dup1\n  add\n  0x01\n  add\n  dup6\n  sstore\n  dup3\n  iszero\n  tag_15\n  jumpi\n  swap2\n  dup3\n  add\ntag_18:\n  dup3\n  dup2\n  gt\n  iszero\n  tag_19\n  jumpi\n  dup3\n  mload\n  dup3\n  sstore\n  swap2\n  0x20\n  add\n  swap2\n  swap1\n  0x01\n  add\n  swap1\n  jump(tag_18)\ntag_19:\ntag_15:\n  pop\n  swap1\n  pop\n  tag_20\n  swap2\n  swap1\n  tag_21\n  jump\t// in\ntag_20:\n  pop\n  swap1\n  jump\t// out\ntag_21:\ntag_22:\n  dup1\n  dup3\n  gt\n  iszero\n  tag_23\n  jumpi\n  0x00\n  dup2\n  0x00\n  swap1\n  sstore\n  pop\n  0x01\n  add\n  jump(tag_22)\ntag_23:\n  pop\n  swap1\n  jump\t// out\n    /* \"#utility.yul\":7:82   */\ntag_24:\n    /* \"#utility.yul\":40:46   */\n  0x00\n    /* \"#utility.yul\":73:75   */\n  0x40\n    /* \"#utility.yul\":67:76   */\n  mload\n    /* \"#utility.yul\":57:76   */\n  swap1\n  pop\n    /* \"#utility.yul\":7:82   */\n  swap1\n  jump\t// out\n    /* \"#utility.yul\":88:205   */\ntag_25:\n    /* \"#utility.yul\":197:198   */\n  0x00\n    /* \"#utility.yul\":194:195   */\n  dup1\n    /* \"#utility.yul\":187:199   */\n  revert\n    /* \"#utility.yul\":211:328   */\ntag_26:\n    /* \"#utility.yul\":320:321   */\n  0x00\n    /* \"#utility.yul\":317:318   */\n  dup1\n    /* \"#utility.yul\":310:322   */\n  revert\n    /* \"#utility.yul\":334:460   */\ntag_27:\n    /* \"#utility.yul\":371:378   */\n  0x00\n    /* \"#utility.yul\":411:453   */\n  0xffffffffffffffffffffffffffffffffffffffff\n    /* \"#utility.yul\":404:409   */\n  dup3\n    /* \"#utility.yul\":400:454   */\n  and\n    /* \"#utility.yul\":389:454   */\n  swap1\n  pop\n    /* \"#utility.yul\":334:460   */\n  swap2\n  swap1\n  pop\n  jump\t// out\n    /* \"#utility.yul\":466:562   */\ntag_28:\n    /* \"#utility.yul\":503:510   */\n  0x00\n    /* \"#utility.yul\":532:556   */\n  tag_48\n    /* \"#utility.yul\":550:555   */\n  dup3\n    /* \"#utility.yul\":532:556   */\n  tag_27\n  jump\t// in\ntag_48:\n    /* \"#utility.yul\":521:556   */\n  swap1\n  pop\n    /* \"#utility.yul\":466:562   */\n  swap2\n  swap1\n  pop\n  jump\t// out\n    /* \"#utility.yul\":568:690   */\ntag_29:\n    /* \"#utility.yul\":641:665   */\n  tag_50\n    /* \"#utility.yul\":659:664   */\n  dup2\n    /* \"#utility.yul\":641:665   */\n  tag_28\n  jump\t// in\ntag_50:\n    /* \"#utility.yul\":634:639   */\n  dup2\n    /* \"#utility.yul\":631:666   */\n  eq\n    /* \"#utility.yul\":621:684   */\n  tag_51\n  jumpi\n    /* \"#utility.yul\":680:681   */\n  0x00\n    /* \"#utility.yul\":677:678   */\n  dup1\n    /* \"#utility.yul\":670:682   */\n  revert\n    /* \"#utility.yul\":621:684   */\ntag_51:\n    /* \"#utility.yul\":568:690   */\n  pop\n  jump\t// out\n    /* \"#utility.yul\":696:839   */\ntag_30:\n    /* \"#utility.yul\":753:758   */\n  0x00\n    /* \"#utility.yul\":784:790   */\n  dup2\n    /* \"#utility.yul\":778:791   */\n  mload\n    /* \"#utility.yul\":769:791   */\n  swap1\n  pop\n    /* \"#utility.yul\":800:833   */\n  tag_53\n    /* \"#utility.yul\":827:832   */\n  dup2\n    /* \"#utility.yul\":800:833   */\n  tag_29\n  jump\t// in\ntag_53:\n    /* \"#utility.yul\":696:839   */\n  swap3\n  swap2\n  pop\n  pop\n  jump\t// out\n    /* \"#utility.yul\":845:962   */\ntag_31:\n    /* \"#utility.yul\":954:955   */\n  0x00\n    /* \"#utility.yul\":951:952   */\n  dup1\n    /* \"#utility.yul\":944:956   */\n  revert\n    /* \"#utility.yul\":968:1085   */\ntag_32:\n    /* \"#utility.yul\":1077:1078   */\n  0x00\n    /* \"#utility.yul\":1074:1075   */\n  dup1\n    /* \"#utility.yul\":1067:1079   */\n  revert\n    /* \"#utility.yul\":1091:1193   */\ntag_33:\n    /* \"#utility.yul\":1132:1138   */\n  0x00\n    /* \"#utility.yul\":1183:1185   */\n  0x1f\n    /* \"#utility.yul\":1179:1186   */\n  not\n    /* \"#utility.yul\":1174:1176   */\n  0x1f\n    /* \"#utility.yul\":1167:1172   */\n  dup4\n    /* \"#utility.yul\":1163:1177   */\n  add\n    /* \"#utility.yul\":1159:1187   */\n  and\n    /* \"#utility.yul\":1149:1187   */\n  swap1\n  pop\n    /* \"#utility.yul\":1091:1193   */\n  swap2\n  swap1\n  pop\n  jump\t// out\n    /* \"#utility.yul\":1199:1379   */\ntag_34:\n    /* \"#utility.yul\":1247:1324   */\n  0x4e487b7100000000000000000000000000000000000000000000000000000000\n    /* \"#utility.yul\":1244:1245   */\n  0x00\n    /* \"#utility.yul\":1237:1325   */\n  mstore\n    /* \"#utility.yul\":1344:1348   */\n  0x41\n    /* \"#utility.yul\":1341:1342   */\n  0x04\n    /* \"#utility.yul\":1334:1349   */\n  mstore\n    /* \"#utility.yul\":1368:1372   */\n  0x24\n    /* \"#utility.yul\":1365:1366   */\n  0x00\n    /* \"#utility.yul\":1358:1373   */\n  revert\n    /* \"#utility.yul\":1385:1666   */\ntag_35:\n    /* \"#utility.yul\":1468:1495   */\n  tag_59\n    /* \"#utility.yul\":1490:1494   */\n  dup3\n    /* \"#utility.yul\":1468:1495   */\n  tag_33\n  jump\t// in\ntag_59:\n    /* \"#utility.yul\":1460:1466   */\n  dup2\n    /* \"#utility.yul\":1456:1496   */\n  add\n    /* \"#utility.yul\":1598:1604   */\n  dup2\n    /* \"#utility.yul\":1586:1596   */\n  dup2\n    /* \"#utility.yul\":1583:1605   */\n  lt\n    /* \"#utility.yul\":1562:1580   */\n  0xffffffffffffffff\n    /* \"#utility.yul\":1550:1560   */\n  dup3\n    /* \"#utility.yul\":1547:1581   */\n  gt\n    /* \"#utility.yul\":1544:1606   */\n  or\n    /* \"#utility.yul\":1541:1629   */\n  iszero\n  tag_60\n  jumpi\n    /* \"#utility.yul\":1609:1627   */\n  tag_61\n  tag_34\n  jump\t// in\ntag_61:\n    /* \"#utility.yul\":1541:1629   */\ntag_60:\n    /* \"#utility.yul\":1649:1659   */\n  dup1\n    /* \"#utility.yul\":1645:1647   */\n  0x40\n    /* \"#utility.yul\":1638:1660   */\n  mstore\n    /* \"#utility.yul\":1428:1666   */\n  pop\n    /* \"#utility.yul\":1385:1666   */\n  pop\n  pop\n  jump\t// out\n    /* \"#utility.yul\":1672:1801   */\ntag_36:\n    /* \"#utility.yul\":1706:1712   */\n  0x00\n    /* \"#utility.yul\":1733:1753   */\n  tag_63\n  tag_24\n  jump\t// in\ntag_63:\n    /* \"#utility.yul\":1723:1753   */\n  swap1\n  pop\n    /* \"#utility.yul\":1762:1795   */\n  tag_64\n    /* \"#utility.yul\":1790:1794   */\n  dup3\n    /* \"#utility.yul\":1782:1788   */\n  dup3\n    /* \"#utility.yul\":1762:1795   */\n  tag_35\n  jump\t// in\ntag_64:\n    /* \"#utility.yul\":1672:1801   */\n  swap2\n  swap1\n  pop\n  jump\t// out\n    /* \"#utility.yul\":1807:2115   */\ntag_37:\n    /* \"#utility.yul\":1869:1873   */\n  0x00\n    /* \"#utility.yul\":1959:1977   */\n  0xffffffffffffffff\n    /* \"#utility.yul\":1951:1957   */\n  dup3\n    /* \"#utility.yul\":1948:1978   */\n  gt\n    /* \"#utility.yul\":1945:2001   */\n  iszero\n  tag_66\n  jumpi\n    /* \"#utility.yul\":1981:1999   */\n  tag_67\n  tag_34\n  jump\t// in\ntag_67:\n    /* \"#utility.yul\":1945:2001   */\ntag_66:\n    /* \"#utility.yul\":2019:2048   */\n  tag_68\n    /* \"#utility.yul\":2041:2047   */\n  dup3\n    /* \"#utility.yul\":2019:2048   */\n  tag_33\n  jump\t// in\ntag_68:\n    /* \"#utility.yul\":2011:2048   */\n  swap1\n  pop\n    /* \"#utility.yul\":2103:2107   */\n  0x20\n    /* \"#utility.yul\":2097:2101   */\n  dup2\n    /* \"#utility.yul\":2093:2108   */\n  add\n    /* \"#utility.yul\":2085:2108   */\n  swap1\n  pop\n    /* \"#utility.yul\":1807:2115   */\n  swap2\n  swap1\n  pop\n  jump\t// out\n    /* \"#utility.yul\":2121:2428   */\ntag_38:\n    /* \"#utility.yul\":2189:2190   */\n  0x00\n    /* \"#utility.yul\":2199:2312   */\ntag_70:\n    /* \"#utility.yul\":2213:2219   */\n  dup4\n    /* \"#utility.yul\":2210:2211   */\n  dup2\n    /* \"#utility.yul\":2207:2220   */\n  lt\n    /* \"#utility.yul\":2199:2312   */\n  iszero\n  tag_72\n  jumpi\n    /* \"#utility.yul\":2298:2299   */\n  dup1\n    /* \"#utility.yul\":2293:2296   */\n  dup3\n    /* \"#utility.yul\":2289:2300   */\n  add\n    /* \"#utility.yul\":2283:2301   */\n  mload\n    /* \"#utility.yul\":2279:2280   */\n  dup2\n    /* \"#utility.yul\":2274:2277   */\n  dup5\n    /* \"#utility.yul\":2270:2281   */\n  add\n    /* \"#utility.yul\":2263:2302   */\n  mstore\n    /* \"#utility.yul\":2235:2237   */\n  0x20\n    /* \"#utility.yul\":2232:2233   */\n  dup2\n    /* \"#utility.yul\":2228:2238   */\n  add\n    /* \"#utility.yul\":2223:2238   */\n  swap1\n  pop\n    /* \"#utility.yul\":2199:2312   */\n  jump(tag_70)\ntag_72:\n    /* \"#utility.yul\":2330:2336   */\n  dup4\n    /* \"#utility.yul\":2327:2328   */\n  dup2\n    /* \"#utility.yul\":2324:2337   */\n  gt\n    /* \"#utility.yul\":2321:2422   */\n  iszero\n  tag_73\n  jumpi\n    /* \"#utility.yul\":2410:2411   */\n  0x00\n    /* \"#utility.yul\":2401:2407   */\n  dup5\n    /* \"#utility.yul\":2396:2399   */\n  dup5\n    /* \"#utility.yul\":2392:2408   */\n  add\n    /* \"#utility.yul\":2385:2412   */\n  mstore\n    /* \"#utility.yul\":2321:2422   */\ntag_73:\n    /* \"#utility.yul\":2170:2428   */\n  pop\n    /* \"#utility.yul\":2121:2428   */\n  pop\n  pop\n  pop\n  jump\t// out\n    /* \"#utility.yul\":2434:2855   */\ntag_39:\n    /* \"#utility.yul\":2523:2528   */\n  0x00\n    /* \"#utility.yul\":2548:2614   */\n  tag_75\n    /* \"#utility.yul\":2564:2613   */\n  tag_76\n    /* \"#utility.yul\":2606:2612   */\n  dup5\n    /* \"#utility.yul\":2564:2613   */\n  tag_37\n  jump\t// in\ntag_76:\n    /* \"#utility.yul\":2548:2614   */\n  tag_36\n  jump\t// in\ntag_75:\n    /* \"#utility.yul\":2539:2614   */\n  swap1\n  pop\n    /* \"#utility.yul\":2637:2643   */\n  dup3\n    /* \"#utility.yul\":2630:2635   */\n  dup2\n    /* \"#utility.yul\":2623:2644   */\n  mstore\n    /* \"#utility.yul\":2675:2679   */\n  0x20\n    /* \"#utility.yul\":2668:2673   */\n  dup2\n    /* \"#utility.yul\":2664:2680   */\n  add\n    /* \"#utility.yul\":2713:2716   */\n  dup5\n    /* \"#utility.yul\":2704:2710   */\n  dup5\n    /* \"#utility.yul\":2699:2702   */\n  dup5\n    /* \"#utility.yul\":2695:2711   */\n  add\n    /* \"#utility.yul\":2692:2717   */\n  gt\n    /* \"#utility.yul\":2689:2801   */\n  iszero\n  tag_77\n  jumpi\n    /* \"#utility.yul\":2720:2799   */\n  tag_78\n  tag_32\n  jump\t// in\ntag_78:\n    /* \"#utility.yul\":2689:2801   */\ntag_77:\n    /* \"#utility.yul\":2810:2849   */\n  tag_79\n    /* \"#utility.yul\":2842:2848   */\n  dup5\n    /* \"#utility.yul\":2837:2840   */\n  dup3\n    /* \"#utility.yul\":2832:2835   */\n  dup6\n    /* \"#utility.yul\":2810:2849   */\n  tag_38\n  jump\t// in\ntag_79:\n    /* \"#utility.yul\":2529:2855   */\n  pop\n    /* \"#utility.yul\":2434:2855   */\n  swap4\n  swap3\n  pop\n  pop\n  pop\n  jump\t// out\n    /* \"#utility.yul\":2875:3230   */\ntag_40:\n    /* \"#utility.yul\":2942:2947   */\n  0x00\n    /* \"#utility.yul\":2991:2994   */\n  dup3\n    /* \"#utility.yul\":2984:2988   */\n  0x1f\n    /* \"#utility.yul\":2976:2982   */\n  dup4\n    /* \"#utility.yul\":2972:2989   */\n  add\n    /* \"#utility.yul\":2968:2995   */\n  slt\n    /* \"#utility.yul\":2958:3080   */\n  tag_81\n  jumpi\n    /* \"#utility.yul\":2999:3078   */\n  tag_82\n  tag_31\n  jump\t// in\ntag_82:\n    /* \"#utility.yul\":2958:3080   */\ntag_81:\n    /* \"#utility.yul\":3109:3115   */\n  dup2\n    /* \"#utility.yul\":3103:3116   */\n  mload\n    /* \"#utility.yul\":3134:3224   */\n  tag_83\n    /* \"#utility.yul\":3220:3223   */\n  dup5\n    /* \"#utility.yul\":3212:3218   */\n  dup3\n    /* \"#utility.yul\":3205:3209   */\n  0x20\n    /* \"#utility.yul\":3197:3203   */\n  dup7\n    /* \"#utility.yul\":3193:3210   */\n  add\n    /* \"#utility.yul\":3134:3224   */\n  tag_39\n  jump\t// in\ntag_83:\n    /* \"#utility.yul\":3125:3224   */\n  swap2\n  pop\n    /* \"#utility.yul\":2948:3230   */\n  pop\n    /* \"#utility.yul\":2875:3230   */\n  swap3\n  swap2\n  pop\n  pop\n  jump\t// out\n    /* \"#utility.yul\":3236:4386   */\ntag_3:\n    /* \"#utility.yul\":3352:3358   */\n  0x00\n    /* \"#utility.yul\":3360:3366   */\n  dup1\n    /* \"#utility.yul\":3368:3374   */\n  0x00\n    /* \"#utility.yul\":3376:3382   */\n  dup1\n    /* \"#utility.yul\":3384:3390   */\n  0x00\n    /* \"#utility.yul\":3433:3436   */\n  0xa0\n    /* \"#utility.yul\":3421:3430   */\n  dup7\n    /* \"#utility.yul\":3412:3419   */\n  dup9\n    /* \"#utility.yul\":3408:3431   */\n  sub\n    /* \"#utility.yul\":3404:3437   */\n  slt\n    /* \"#utility.yul\":3401:3521   */\n  iszero\n  tag_85\n  jumpi\n    /* \"#utility.yul\":3440:3519   */\n  tag_86\n  tag_25\n  jump\t// in\ntag_86:\n    /* \"#utility.yul\":3401:3521   */\ntag_85:\n    /* \"#utility.yul\":3560:3561   */\n  0x00\n    /* \"#utility.yul\":3585:3649   */\n  tag_87\n    /* \"#utility.yul\":3641:3648   */\n  dup9\n    /* \"#utility.yul\":3632:3638   */\n  dup3\n    /* \"#utility.yul\":3621:3630   */\n  dup10\n    /* \"#utility.yul\":3617:3639   */\n  add\n    /* \"#utility.yul\":3585:3649   */\n  tag_30\n  jump\t// in\ntag_87:\n    /* \"#utility.yul\":3575:3649   */\n  swap6\n  pop\n    /* \"#utility.yul\":3531:3659   */\n  pop\n    /* \"#utility.yul\":3698:3700   */\n  0x20\n    /* \"#utility.yul\":3724:3788   */\n  tag_88\n    /* \"#utility.yul\":3780:3787   */\n  dup9\n    /* \"#utility.yul\":3771:3777   */\n  dup3\n    /* \"#utility.yul\":3760:3769   */\n  dup10\n    /* \"#utility.yul\":3756:3778   */\n  add\n    /* \"#utility.yul\":3724:3788   */\n  tag_30\n  jump\t// in\ntag_88:\n    /* \"#utility.yul\":3714:3788   */\n  swap5\n  pop\n    /* \"#utility.yul\":3669:3798   */\n  pop\n    /* \"#utility.yul\":3858:3860   */\n  0x40\n    /* \"#utility.yul\":3847:3856   */\n  dup7\n    /* \"#utility.yul\":3843:3861   */\n  add\n    /* \"#utility.yul\":3837:3862   */\n  mload\n    /* \"#utility.yul\":3889:3907   */\n  0xffffffffffffffff\n    /* \"#utility.yul\":3881:3887   */\n  dup2\n    /* \"#utility.yul\":3878:3908   */\n  gt\n    /* \"#utility.yul\":3875:3992   */\n  iszero\n  tag_89\n  jumpi\n    /* \"#utility.yul\":3911:3990   */\n  tag_90\n  tag_26\n  jump\t// in\ntag_90:\n    /* \"#utility.yul\":3875:3992   */\ntag_89:\n    /* \"#utility.yul\":4016:4090   */\n  tag_91\n    /* \"#utility.yul\":4082:4089   */\n  dup9\n    /* \"#utility.yul\":4073:4079   */\n  dup3\n    /* \"#utility.yul\":4062:4071   */\n  dup10\n    /* \"#utility.yul\":4058:4080   */\n  add\n    /* \"#utility.yul\":4016:4090   */\n  tag_40\n  jump\t// in\ntag_91:\n    /* \"#utility.yul\":4006:4090   */\n  swap4\n  pop\n    /* \"#utility.yul\":3808:4100   */\n  pop\n    /* \"#utility.yul\":4139:4141   */\n  0x60\n    /* \"#utility.yul\":4165:4229   */\n  tag_92\n    /* \"#utility.yul\":4221:4228   */\n  dup9\n    /* \"#utility.yul\":4212:4218   */\n  dup3\n    /* \"#utility.yul\":4201:4210   */\n  dup10\n    /* \"#utility.yul\":4197:4219   */\n  add\n    /* \"#utility.yul\":4165:4229   */\n  tag_30\n  jump\t// in\ntag_92:\n    /* \"#utility.yul\":4155:4229   */\n  swap3\n  pop\n    /* \"#utility.yul\":4110:4239   */\n  pop\n    /* \"#utility.yul\":4278:4281   */\n  0x80\n    /* \"#utility.yul\":4305:4369   */\n  tag_93\n    /* \"#utility.yul\":4361:4368   */\n  dup9\n    /* \"#utility.yul\":4352:4358   */\n  dup3\n    /* \"#utility.yul\":4341:4350   */\n  dup10\n    /* \"#utility.yul\":4337:4359   */\n  add\n    /* \"#utility.yul\":4305:4369   */\n  tag_30\n  jump\t// in\ntag_93:\n    /* \"#utility.yul\":4295:4369   */\n  swap2\n  pop\n    /* \"#utility.yul\":4249:4379   */\n  pop\n    /* \"#utility.yul\":3236:4386   */\n  swap3\n  swap6\n  pop\n  swap3\n  swap6\n  swap1\n  swap4\n  pop\n  jump\t// out\n    /* \"#utility.yul\":4392:4572   */\ntag_41:\n    /* \"#utility.yul\":4440:4517   */\n  0x4e487b7100000000000000000000000000000000000000000000000000000000\n    /* \"#utility.yul\":4437:4438   */\n  0x00\n    /* \"#utility.yul\":4430:4518   */\n  mstore\n    /* \"#utility.yul\":4537:4541   */\n  0x22\n    /* \"#utility.yul\":4534:4535   */\n  0x04\n    /* \"#utility.yul\":4527:4542   */\n  mstore\n    /* \"#utility.yul\":4561:4565   */\n  0x24\n    /* \"#utility.yul\":4558:4559   */\n  0x00\n    /* \"#utility.yul\":4551:4566   */\n  revert\n    /* \"#utility.yul\":4578:4898   */\ntag_14:\n    /* \"#utility.yul\":4622:4628   */\n  0x00\n    /* \"#utility.yul\":4659:4660   */\n  0x02\n    /* \"#utility.yul\":4653:4657   */\n  dup3\n    /* \"#utility.yul\":4649:4661   */\n  div\n    /* \"#utility.yul\":4639:4661   */\n  swap1\n  pop\n    /* \"#utility.yul\":4706:4707   */\n  0x01\n    /* \"#utility.yul\":4700:4704   */\n  dup3\n    /* \"#utility.yul\":4696:4708   */\n  and\n    /* \"#utility.yul\":4727:4745   */\n  dup1\n    /* \"#utility.yul\":4717:4798   */\n  tag_96\n  jumpi\n    /* \"#utility.yul\":4783:4787   */\n  0x7f\n    /* \"#utility.yul\":4775:4781   */\n  dup3\n    /* \"#utility.yul\":4771:4788   */\n  and\n    /* \"#utility.yul\":4761:4788   */\n  swap2\n  pop\n    /* \"#utility.yul\":4717:4798   */\ntag_96:\n    /* \"#utility.yul\":4845:4847   */\n  0x20\n    /* \"#utility.yul\":4837:4843   */\n  dup3\n    /* \"#utility.yul\":4834:4848   */\n  lt\n    /* \"#utility.yul\":4814:4832   */\n  dup2\n    /* \"#utility.yul\":4811:4849   */\n  eq\n    /* \"#utility.yul\":4808:4892   */\n  iszero\n  tag_97\n  jumpi\n    /* \"#utility.yul\":4864:4882   */\n  tag_98\n  tag_41\n  jump\t// in\ntag_98:\n    /* \"#utility.yul\":4808:4892   */\ntag_97:\n    /* \"#utility.yul\":4629:4898   */\n  pop\n    /* \"#utility.yul\":4578:4898   */\n  swap2\n  swap1\n  pop\n  jump\t// out\n    /* \"Story.sol\":8916:10660  contract Chapter {... */\ntag_12:\n  dataSize(sub_0)\n  dup1\n  dataOffset(sub_0)\n  0x00\n  codecopy\n  0x00\n  return\nstop\n\nsub_0: assembly {\n        /* \"Story.sol\":8916:10660  contract Chapter {... */\n      mstore(0x40, 0x80)\n      callvalue\n      dup1\n      iszero\n      tag_1\n      jumpi\n      0x00\n      dup1\n      revert\n    tag_1:\n      pop\n      jumpi(tag_2, lt(calldatasize, 0x04))\n      shr(0xe0, calldataload(0x00))\n      dup1\n      0xa6c3e6b9\n      gt\n      tag_13\n      jumpi\n      dup1\n      0xa6c3e6b9\n      eq\n      tag_8\n      jumpi\n      dup1\n      0xc5fe6ffc\n      eq\n      tag_9\n      jumpi\n      dup1\n      0xc623674f\n      eq\n      tag_10\n      jumpi\n      dup1\n      0xe5a0af3d\n      eq\n      tag_11\n      jumpi\n      dup1\n      0xed777791\n      eq\n      tag_12\n      jumpi\n      jump(tag_2)\n    tag_13:\n      dup1\n      0x4051ddac\n      eq\n      tag_3\n      jumpi\n      dup1\n      0x46c922d1\n      eq\n      tag_4\n      jumpi\n      dup1\n      0x8758ce83\n      eq\n      tag_5\n      jumpi\n      dup1\n      0x988e46c8\n      eq\n      tag_6\n      jumpi\n      dup1\n      0xa523b88a\n      eq\n      tag_7\n      jumpi\n    tag_2:\n      0x00\n      dup1\n      revert\n        /* \"Story.sol\":10334:10657  function getSummary() public view returns (... */\n    tag_3:\n      tag_14\n      tag_15\n      jump\t// in\n    tag_14:\n      mload(0x40)\n      tag_16\n      swap7\n      swap6\n      swap5\n      swap4\n      swap3\n      swap2\n      swap1\n      tag_17\n      jump\t// in\n    tag_16:\n      mload(0x40)\n      dup1\n      swap2\n      sub\n      swap1\n      return\n        /* \"Story.sol\":8975:8995  address public story */\n    tag_4:\n      tag_18\n      tag_19\n      jump\t// in\n    tag_18:\n      mload(0x40)\n      tag_20\n      swap2\n      swap1\n      tag_21\n      jump\t// in\n    tag_20:\n      mload(0x40)\n      dup1\n      swap2\n      sub\n      swap1\n      return\n        /* \"Story.sol\":9895:10135  function linkParentChapter(address parentChapter) public {... */\n    tag_5:\n      tag_22\n      0x04\n      dup1\n      calldatasize\n      sub\n      dup2\n      add\n      swap1\n      tag_23\n      swap2\n      swap1\n      tag_24\n      jump\t// in\n    tag_23:\n      tag_25\n      jump\t// in\n    tag_22:\n      stop\n        /* \"Story.sol\":9651:9887  function linkChildChapter(address childChapter) public {... */\n    tag_6:\n      tag_26\n      0x04\n      dup1\n      calldatasize\n      sub\n      dup2\n      add\n      swap1\n      tag_27\n      swap2\n      swap1\n      tag_24\n      jump\t// in\n    tag_27:\n      tag_28\n      jump\t// in\n    tag_26:\n      stop\n        /* \"Story.sol\":10151:10326  function like() public {... */\n    tag_7:\n      tag_29\n      tag_30\n      jump\t// in\n    tag_29:\n      stop\n        /* \"Story.sol\":9003:9024  address public author */\n    tag_8:\n      tag_31\n      tag_32\n      jump\t// in\n    tag_31:\n      mload(0x40)\n      tag_33\n      swap2\n      swap1\n      tag_21\n      jump\t// in\n    tag_33:\n      mload(0x40)\n      dup1\n      swap2\n      sub\n      swap1\n      return\n        /* \"Story.sol\":9104:9140  address[] public linkedChildChapters */\n    tag_9:\n      tag_34\n      0x04\n      dup1\n      calldatasize\n      sub\n      dup2\n      add\n      swap1\n      tag_35\n      swap2\n      swap1\n      tag_36\n      jump\t// in\n    tag_35:\n      tag_37\n      jump\t// in\n    tag_34:\n      mload(0x40)\n      tag_38\n      swap2\n      swap1\n      tag_21\n      jump\t// in\n    tag_38:\n      mload(0x40)\n      dup1\n      swap2\n      sub\n      swap1\n      return\n        /* \"Story.sol\":9031:9053  string public ipfsHash */\n    tag_10:\n      tag_39\n      tag_40\n      jump\t// in\n    tag_39:\n      mload(0x40)\n      tag_41\n      swap2\n      swap1\n      tag_42\n      jump\t// in\n    tag_41:\n      mload(0x40)\n      dup1\n      swap2\n      sub\n      swap1\n      return\n        /* \"Story.sol\":9185:9209  uint256 public likeCount */\n    tag_11:\n      tag_43\n      tag_44\n      jump\t// in\n    tag_43:\n      mload(0x40)\n      tag_45\n      swap2\n      swap1\n      tag_46\n      jump\t// in\n    tag_45:\n      mload(0x40)\n      dup1\n      swap2\n      sub\n      swap1\n      return\n        /* \"Story.sol\":9060:9097  address[] public linkedParentChapters */\n    tag_12:\n      tag_47\n      0x04\n      dup1\n      calldatasize\n      sub\n      dup2\n      add\n      swap1\n      tag_48\n      swap2\n      swap1\n      tag_36\n      jump\t// in\n    tag_48:\n      tag_49\n      jump\t// in\n    tag_47:\n      mload(0x40)\n      tag_50\n      swap2\n      swap1\n      tag_21\n      jump\t// in\n    tag_50:\n      mload(0x40)\n      dup1\n      swap2\n      sub\n      swap1\n      return\n        /* \"Story.sol\":10334:10657  function getSummary() public view returns (... */\n    tag_15:\n        /* \"Story.sol\":10387:10394  address */\n      0x00\n        /* \"Story.sol\":10396:10403  address */\n      dup1\n        /* \"Story.sol\":10405:10418  string memory */\n      0x60\n        /* \"Story.sol\":10420:10436  address[] memory */\n      dup1\n        /* \"Story.sol\":10438:10454  address[] memory */\n      0x60\n        /* \"Story.sol\":10456:10460  uint */\n      0x00\n        /* \"Story.sol\":10496:10501  story */\n      dup1\n      0x00\n      swap1\n      sload\n      swap1\n      0x0100\n      exp\n      swap1\n      div\n      0xffffffffffffffffffffffffffffffffffffffff\n      and\n        /* \"Story.sol\":10516:10522  author */\n      0x01\n      0x00\n      swap1\n      sload\n      swap1\n      0x0100\n      exp\n      swap1\n      div\n      0xffffffffffffffffffffffffffffffffffffffff\n      and\n        /* \"Story.sol\":10537:10545  ipfsHash */\n      0x02\n        /* \"Story.sol\":10560:10580  linkedParentChapters */\n      0x03\n        /* \"Story.sol\":10595:10614  linkedChildChapters */\n      0x04\n        /* \"Story.sol\":10629:10638  likeCount */\n      sload(0x06)\n        /* \"Story.sol\":10473:10649  return ( ... */\n      dup4\n      dup1\n      sload\n      tag_52\n      swap1\n      tag_53\n      jump\t// in\n    tag_52:\n      dup1\n      0x1f\n      add\n      0x20\n      dup1\n      swap2\n      div\n      mul\n      0x20\n      add\n      mload(0x40)\n      swap1\n      dup2\n      add\n      0x40\n      mstore\n      dup1\n      swap3\n      swap2\n      swap1\n      dup2\n      dup2\n      mstore\n      0x20\n      add\n      dup3\n      dup1\n      sload\n      tag_54\n      swap1\n      tag_53\n      jump\t// in\n    tag_54:\n      dup1\n      iszero\n      tag_55\n      jumpi\n      dup1\n      0x1f\n      lt\n      tag_56\n      jumpi\n      0x0100\n      dup1\n      dup4\n      sload\n      div\n      mul\n      dup4\n      mstore\n      swap2\n      0x20\n      add\n      swap2\n      jump(tag_55)\n    tag_56:\n      dup3\n      add\n      swap2\n      swap1\n      0x00\n      mstore\n      keccak256(0x00, 0x20)\n      swap1\n    tag_57:\n      dup2\n      sload\n      dup2\n      mstore\n      swap1\n      0x01\n      add\n      swap1\n      0x20\n      add\n      dup1\n      dup4\n      gt\n      tag_57\n      jumpi\n      dup3\n      swap1\n      sub\n      0x1f\n      and\n      dup3\n      add\n      swap2\n    tag_55:\n      pop\n      pop\n      pop\n      pop\n      pop\n      swap4\n      pop\n      dup3\n      dup1\n      sload\n      dup1\n      0x20\n      mul\n      0x20\n      add\n      mload(0x40)\n      swap1\n      dup2\n      add\n      0x40\n      mstore\n      dup1\n      swap3\n      swap2\n      swap1\n      dup2\n      dup2\n      mstore\n      0x20\n      add\n      dup3\n      dup1\n      sload\n      dup1\n      iszero\n      tag_58\n      jumpi\n      0x20\n      mul\n      dup3\n      add\n      swap2\n      swap1\n      0x00\n      mstore\n      keccak256(0x00, 0x20)\n      swap1\n    tag_59:\n      dup2\n      0x00\n      swap1\n      sload\n      swap1\n      0x0100\n      exp\n      swap1\n      div\n      0xffffffffffffffffffffffffffffffffffffffff\n      and\n      0xffffffffffffffffffffffffffffffffffffffff\n      and\n      dup2\n      mstore\n      0x20\n      add\n      swap1\n      0x01\n      add\n      swap1\n      dup1\n      dup4\n      gt\n      tag_59\n      jumpi\n    tag_58:\n      pop\n      pop\n      pop\n      pop\n      pop\n      swap3\n      pop\n      dup2\n      dup1\n      sload\n      dup1\n      0x20\n      mul\n      0x20\n      add\n      mload(0x40)\n      swap1\n      dup2\n      add\n      0x40\n      mstore\n      dup1\n      swap3\n      swap2\n      swap1\n      dup2\n      dup2\n      mstore\n      0x20\n      add\n      dup3\n      dup1\n      sload\n      dup1\n      iszero\n      tag_60\n      jumpi\n      0x20\n      mul\n      dup3\n      add\n      swap2\n      swap1\n      0x00\n      mstore\n      keccak256(0x00, 0x20)\n      swap1\n    tag_61:\n      dup2\n      0x00\n      swap1\n      sload\n      swap1\n      0x0100\n      exp\n      swap1\n      div\n      0xffffffffffffffffffffffffffffffffffffffff\n      and\n      0xffffffffffffffffffffffffffffffffffffffff\n      and\n      dup2\n      mstore\n      0x20\n      add\n      swap1\n      0x01\n      add\n      swap1\n      dup1\n      dup4\n      gt\n      tag_61\n      jumpi\n    tag_60:\n      pop\n      pop\n      pop\n      pop\n      pop\n      swap2\n      pop\n      swap6\n      pop\n      swap6\n      pop\n      swap6\n      pop\n      swap6\n      pop\n      swap6\n      pop\n      swap6\n      pop\n        /* \"Story.sol\":10334:10657  function getSummary() public view returns (... */\n      swap1\n      swap2\n      swap3\n      swap4\n      swap5\n      swap6\n      jump\t// out\n        /* \"Story.sol\":8975:8995  address public story */\n    tag_19:\n      0x00\n      dup1\n      sload\n      swap1\n      0x0100\n      exp\n      swap1\n      div\n      0xffffffffffffffffffffffffffffffffffffffff\n      and\n      dup2\n      jump\t// out\n        /* \"Story.sol\":9895:10135  function linkParentChapter(address parentChapter) public {... */\n    tag_25:\n        /* \"Story.sol\":9985:9990  story */\n      0x00\n      dup1\n      sload\n      swap1\n      0x0100\n      exp\n      swap1\n      div\n      0xffffffffffffffffffffffffffffffffffffffff\n      and\n        /* \"Story.sol\":9971:9990  msg.sender == story */\n      0xffffffffffffffffffffffffffffffffffffffff\n      and\n        /* \"Story.sol\":9971:9981  msg.sender */\n      caller\n        /* \"Story.sol\":9971:9990  msg.sender == story */\n      0xffffffffffffffffffffffffffffffffffffffff\n      and\n      eq\n        /* \"Story.sol\":9963:10076  require(msg.sender == story, \"This function has to be called from the story contract by an accepted author only\") */\n      tag_63\n      jumpi\n      mload(0x40)\n      0x08c379a000000000000000000000000000000000000000000000000000000000\n      dup2\n      mstore\n      0x04\n      add\n      tag_64\n      swap1\n      tag_65\n      jump\t// in\n    tag_64:\n      mload(0x40)\n      dup1\n      swap2\n      sub\n      swap1\n      revert\n    tag_63:\n        /* \"Story.sol\":10087:10107  linkedParentChapters */\n      0x03\n        /* \"Story.sol\":10113:10126  parentChapter */\n      dup2\n        /* \"Story.sol\":10087:10127  linkedParentChapters.push(parentChapter) */\n      swap1\n      dup1\n      0x01\n      dup2\n      sload\n      add\n      dup1\n      dup3\n      sstore\n      dup1\n      swap2\n      pop\n      pop\n      0x01\n      swap1\n      sub\n      swap1\n      0x00\n      mstore\n      keccak256(0x00, 0x20)\n      add\n      0x00\n      swap1\n      swap2\n      swap1\n      swap2\n      swap1\n      swap2\n      0x0100\n      exp\n      dup2\n      sload\n      dup2\n      0xffffffffffffffffffffffffffffffffffffffff\n      mul\n      not\n      and\n      swap1\n      dup4\n      0xffffffffffffffffffffffffffffffffffffffff\n      and\n      mul\n      or\n      swap1\n      sstore\n      pop\n        /* \"Story.sol\":9895:10135  function linkParentChapter(address parentChapter) public {... */\n      pop\n      jump\t// out\n        /* \"Story.sol\":9651:9887  function linkChildChapter(address childChapter) public {... */\n    tag_28:\n        /* \"Story.sol\":9739:9744  story */\n      0x00\n      dup1\n      sload\n      swap1\n      0x0100\n      exp\n      swap1\n      div\n      0xffffffffffffffffffffffffffffffffffffffff\n      and\n        /* \"Story.sol\":9725:9744  msg.sender == story */\n      0xffffffffffffffffffffffffffffffffffffffff\n      and\n        /* \"Story.sol\":9725:9735  msg.sender */\n      caller\n        /* \"Story.sol\":9725:9744  msg.sender == story */\n      0xffffffffffffffffffffffffffffffffffffffff\n      and\n      eq\n        /* \"Story.sol\":9717:9830  require(msg.sender == story, \"This function has to be called from the story contract by an accepted author only\") */\n      tag_68\n      jumpi\n      mload(0x40)\n      0x08c379a000000000000000000000000000000000000000000000000000000000\n      dup2\n      mstore\n      0x04\n      add\n      tag_69\n      swap1\n      tag_65\n      jump\t// in\n    tag_69:\n      mload(0x40)\n      dup1\n      swap2\n      sub\n      swap1\n      revert\n    tag_68:\n        /* \"Story.sol\":9841:9860  linkedChildChapters */\n      0x04\n        /* \"Story.sol\":9866:9878  childChapter */\n      dup2\n        /* \"Story.sol\":9841:9879  linkedChildChapters.push(childChapter) */\n      swap1\n      dup1\n      0x01\n      dup2\n      sload\n      add\n      dup1\n      dup3\n      sstore\n      dup1\n      swap2\n      pop\n      pop\n      0x01\n      swap1\n      sub\n      swap1\n      0x00\n      mstore\n      keccak256(0x00, 0x20)\n      add\n      0x00\n      swap1\n      swap2\n      swap1\n      swap2\n      swap1\n      swap2\n      0x0100\n      exp\n      dup2\n      sload\n      dup2\n      0xffffffffffffffffffffffffffffffffffffffff\n      mul\n      not\n      and\n      swap1\n      dup4\n      0xffffffffffffffffffffffffffffffffffffffff\n      and\n      mul\n      or\n      swap1\n      sstore\n      pop\n        /* \"Story.sol\":9651:9887  function linkChildChapter(address childChapter) public {... */\n      pop\n      jump\t// out\n        /* \"Story.sol\":10151:10326  function like() public {... */\n    tag_30:\n        /* \"Story.sol\":10194:10200  likers */\n      0x05\n        /* \"Story.sol\":10194:10212  likers[msg.sender] */\n      0x00\n        /* \"Story.sol\":10201:10211  msg.sender */\n      caller\n        /* \"Story.sol\":10194:10212  likers[msg.sender] */\n      0xffffffffffffffffffffffffffffffffffffffff\n      and\n      0xffffffffffffffffffffffffffffffffffffffff\n      and\n      dup2\n      mstore\n      0x20\n      add\n      swap1\n      dup2\n      mstore\n      0x20\n      add\n      0x00\n      keccak256\n      0x00\n      swap1\n      sload\n      swap1\n      0x0100\n      exp\n      swap1\n      div\n      0xff\n      and\n        /* \"Story.sol\":10193:10212  !likers[msg.sender] */\n      iszero\n        /* \"Story.sol\":10185:10243  require(!likers[msg.sender],\"You liked this story before\") */\n      tag_72\n      jumpi\n      mload(0x40)\n      0x08c379a000000000000000000000000000000000000000000000000000000000\n      dup2\n      mstore\n      0x04\n      add\n      tag_73\n      swap1\n      tag_74\n      jump\t// in\n    tag_73:\n      mload(0x40)\n      dup1\n      swap2\n      sub\n      swap1\n      revert\n    tag_72:\n        /* \"Story.sol\":10275:10279  true */\n      0x01\n        /* \"Story.sol\":10254:10260  likers */\n      0x05\n        /* \"Story.sol\":10254:10272  likers[msg.sender] */\n      0x00\n        /* \"Story.sol\":10261:10271  msg.sender */\n      caller\n        /* \"Story.sol\":10254:10272  likers[msg.sender] */\n      0xffffffffffffffffffffffffffffffffffffffff\n      and\n      0xffffffffffffffffffffffffffffffffffffffff\n      and\n      dup2\n      mstore\n      0x20\n      add\n      swap1\n      dup2\n      mstore\n      0x20\n      add\n      0x00\n      keccak256\n      0x00\n        /* \"Story.sol\":10254:10279  likers[msg.sender] = true */\n      0x0100\n      exp\n      dup2\n      sload\n      dup2\n      0xff\n      mul\n      not\n      and\n      swap1\n      dup4\n      iszero\n      iszero\n      mul\n      or\n      swap1\n      sstore\n      pop\n        /* \"Story.sol\":10302:10318  likeCount.add(1) */\n      tag_75\n        /* \"Story.sol\":10316:10317  1 */\n      0x01\n        /* \"Story.sol\":10302:10311  likeCount */\n      sload(0x06)\n        /* \"Story.sol\":10302:10315  likeCount.add */\n      tag_76\n      swap1\n        /* \"Story.sol\":10302:10318  likeCount.add(1) */\n      swap2\n      swap1\n      0xffffffff\n      and\n      jump\t// in\n    tag_75:\n        /* \"Story.sol\":10290:10299  likeCount */\n      0x06\n        /* \"Story.sol\":10290:10318  likeCount = likeCount.add(1) */\n      dup2\n      swap1\n      sstore\n      pop\n        /* \"Story.sol\":10151:10326  function like() public {... */\n      jump\t// out\n        /* \"Story.sol\":9003:9024  address public author */\n    tag_32:\n      0x01\n      0x00\n      swap1\n      sload\n      swap1\n      0x0100\n      exp\n      swap1\n      div\n      0xffffffffffffffffffffffffffffffffffffffff\n      and\n      dup2\n      jump\t// out\n        /* \"Story.sol\":9104:9140  address[] public linkedChildChapters */\n    tag_37:\n      0x04\n      dup2\n      dup2\n      sload\n      dup2\n      lt\n      tag_77\n      jumpi\n      0x00\n      dup1\n      revert\n    tag_77:\n      swap1\n      0x00\n      mstore\n      keccak256(0x00, 0x20)\n      add\n      0x00\n      swap2\n      pop\n      sload\n      swap1\n      0x0100\n      exp\n      swap1\n      div\n      0xffffffffffffffffffffffffffffffffffffffff\n      and\n      dup2\n      jump\t// out\n        /* \"Story.sol\":9031:9053  string public ipfsHash */\n    tag_40:\n      0x02\n      dup1\n      sload\n      tag_79\n      swap1\n      tag_53\n      jump\t// in\n    tag_79:\n      dup1\n      0x1f\n      add\n      0x20\n      dup1\n      swap2\n      div\n      mul\n      0x20\n      add\n      mload(0x40)\n      swap1\n      dup2\n      add\n      0x40\n      mstore\n      dup1\n      swap3\n      swap2\n      swap1\n      dup2\n      dup2\n      mstore\n      0x20\n      add\n      dup3\n      dup1\n      sload\n      tag_80\n      swap1\n      tag_53\n      jump\t// in\n    tag_80:\n      dup1\n      iszero\n      tag_81\n      jumpi\n      dup1\n      0x1f\n      lt\n      tag_82\n      jumpi\n      0x0100\n      dup1\n      dup4\n      sload\n      div\n      mul\n      dup4\n      mstore\n      swap2\n      0x20\n      add\n      swap2\n      jump(tag_81)\n    tag_82:\n      dup3\n      add\n      swap2\n      swap1\n      0x00\n      mstore\n      keccak256(0x00, 0x20)\n      swap1\n    tag_83:\n      dup2\n      sload\n      dup2\n      mstore\n      swap1\n      0x01\n      add\n      swap1\n      0x20\n      add\n      dup1\n      dup4\n      gt\n      tag_83\n      jumpi\n      dup3\n      swap1\n      sub\n      0x1f\n      and\n      dup3\n      add\n      swap2\n    tag_81:\n      pop\n      pop\n      pop\n      pop\n      pop\n      dup2\n      jump\t// out\n        /* \"Story.sol\":9185:9209  uint256 public likeCount */\n    tag_44:\n      sload(0x06)\n      dup2\n      jump\t// out\n        /* \"Story.sol\":9060:9097  address[] public linkedParentChapters */\n    tag_49:\n      0x03\n      dup2\n      dup2\n      sload\n      dup2\n      lt\n      tag_84\n      jumpi\n      0x00\n      dup1\n      revert\n    tag_84:\n      swap1\n      0x00\n      mstore\n      keccak256(0x00, 0x20)\n      add\n      0x00\n      swap2\n      pop\n      sload\n      swap1\n      0x0100\n      exp\n      swap1\n      div\n      0xffffffffffffffffffffffffffffffffffffffff\n      and\n      dup2\n      jump\t// out\n        /* \"Story.sol\":84:263  function add(uint256 a, uint256 b) internal pure returns (uint256) {... */\n    tag_76:\n        /* \"Story.sol\":142:149  uint256 */\n      0x00\n        /* \"Story.sol\":162:171  uint256 c */\n      dup1\n        /* \"Story.sol\":178:179  b */\n      dup3\n        /* \"Story.sol\":174:175  a */\n      dup5\n        /* \"Story.sol\":174:179  a + b */\n      tag_87\n      swap2\n      swap1\n      tag_88\n      jump\t// in\n    tag_87:\n        /* \"Story.sol\":162:179  uint256 c = a + b */\n      swap1\n      pop\n        /* \"Story.sol\":203:204  a */\n      dup4\n        /* \"Story.sol\":198:199  c */\n      dup2\n        /* \"Story.sol\":198:204  c >= a */\n      lt\n      iszero\n        /* \"Story.sol\":190:236  require(c >= a, \"SafeMath: addition overflow\") */\n      tag_89\n      jumpi\n      mload(0x40)\n      0x08c379a000000000000000000000000000000000000000000000000000000000\n      dup2\n      mstore\n      0x04\n      add\n      tag_90\n      swap1\n      tag_91\n      jump\t// in\n    tag_90:\n      mload(0x40)\n      dup1\n      swap2\n      sub\n      swap1\n      revert\n    tag_89:\n        /* \"Story.sol\":254:255  c */\n      dup1\n        /* \"Story.sol\":247:255  return c */\n      swap2\n      pop\n      pop\n        /* \"Story.sol\":84:263  function add(uint256 a, uint256 b) internal pure returns (uint256) {... */\n      swap3\n      swap2\n      pop\n      pop\n      jump\t// out\n        /* \"#utility.yul\":7:133   */\n    tag_92:\n        /* \"#utility.yul\":44:51   */\n      0x00\n        /* \"#utility.yul\":84:126   */\n      0xffffffffffffffffffffffffffffffffffffffff\n        /* \"#utility.yul\":77:82   */\n      dup3\n        /* \"#utility.yul\":73:127   */\n      and\n        /* \"#utility.yul\":62:127   */\n      swap1\n      pop\n        /* \"#utility.yul\":7:133   */\n      swap2\n      swap1\n      pop\n      jump\t// out\n        /* \"#utility.yul\":139:235   */\n    tag_93:\n        /* \"#utility.yul\":176:183   */\n      0x00\n        /* \"#utility.yul\":205:229   */\n      tag_127\n        /* \"#utility.yul\":223:228   */\n      dup3\n        /* \"#utility.yul\":205:229   */\n      tag_92\n      jump\t// in\n    tag_127:\n        /* \"#utility.yul\":194:229   */\n      swap1\n      pop\n        /* \"#utility.yul\":139:235   */\n      swap2\n      swap1\n      pop\n      jump\t// out\n        /* \"#utility.yul\":241:359   */\n    tag_94:\n        /* \"#utility.yul\":328:352   */\n      tag_129\n        /* \"#utility.yul\":346:351   */\n      dup2\n        /* \"#utility.yul\":328:352   */\n      tag_93\n      jump\t// in\n    tag_129:\n        /* \"#utility.yul\":323:326   */\n      dup3\n        /* \"#utility.yul\":316:353   */\n      mstore\n        /* \"#utility.yul\":241:359   */\n      pop\n      pop\n      jump\t// out\n        /* \"#utility.yul\":365:464   */\n    tag_95:\n        /* \"#utility.yul\":417:423   */\n      0x00\n        /* \"#utility.yul\":451:456   */\n      dup2\n        /* \"#utility.yul\":445:457   */\n      mload\n        /* \"#utility.yul\":435:457   */\n      swap1\n      pop\n        /* \"#utility.yul\":365:464   */\n      swap2\n      swap1\n      pop\n      jump\t// out\n        /* \"#utility.yul\":470:639   */\n    tag_96:\n        /* \"#utility.yul\":554:565   */\n      0x00\n        /* \"#utility.yul\":588:594   */\n      dup3\n        /* \"#utility.yul\":583:586   */\n      dup3\n        /* \"#utility.yul\":576:595   */\n      mstore\n        /* \"#utility.yul\":628:632   */\n      0x20\n        /* \"#utility.yul\":623:626   */\n      dup3\n        /* \"#utility.yul\":619:633   */\n      add\n        /* \"#utility.yul\":604:633   */\n      swap1\n      pop\n        /* \"#utility.yul\":470:639   */\n      swap3\n      swap2\n      pop\n      pop\n      jump\t// out\n        /* \"#utility.yul\":645:952   */\n    tag_97:\n        /* \"#utility.yul\":713:714   */\n      0x00\n        /* \"#utility.yul\":723:836   */\n    tag_133:\n        /* \"#utility.yul\":737:743   */\n      dup4\n        /* \"#utility.yul\":734:735   */\n      dup2\n        /* \"#utility.yul\":731:744   */\n      lt\n        /* \"#utility.yul\":723:836   */\n      iszero\n      tag_135\n      jumpi\n        /* \"#utility.yul\":822:823   */\n      dup1\n        /* \"#utility.yul\":817:820   */\n      dup3\n        /* \"#utility.yul\":813:824   */\n      add\n        /* \"#utility.yul\":807:825   */\n      mload\n        /* \"#utility.yul\":803:804   */\n      dup2\n        /* \"#utility.yul\":798:801   */\n      dup5\n        /* \"#utility.yul\":794:805   */\n      add\n        /* \"#utility.yul\":787:826   */\n      mstore\n        /* \"#utility.yul\":759:761   */\n      0x20\n        /* \"#utility.yul\":756:757   */\n      dup2\n        /* \"#utility.yul\":752:762   */\n      add\n        /* \"#utility.yul\":747:762   */\n      swap1\n      pop\n        /* \"#utility.yul\":723:836   */\n      jump(tag_133)\n    tag_135:\n        /* \"#utility.yul\":854:860   */\n      dup4\n        /* \"#utility.yul\":851:852   */\n      dup2\n        /* \"#utility.yul\":848:861   */\n      gt\n        /* \"#utility.yul\":845:946   */\n      iszero\n      tag_136\n      jumpi\n        /* \"#utility.yul\":934:935   */\n      0x00\n        /* \"#utility.yul\":925:931   */\n      dup5\n        /* \"#utility.yul\":920:923   */\n      dup5\n        /* \"#utility.yul\":916:932   */\n      add\n        /* \"#utility.yul\":909:936   */\n      mstore\n        /* \"#utility.yul\":845:946   */\n    tag_136:\n        /* \"#utility.yul\":694:952   */\n      pop\n        /* \"#utility.yul\":645:952   */\n      pop\n      pop\n      pop\n      jump\t// out\n        /* \"#utility.yul\":958:1060   */\n    tag_98:\n        /* \"#utility.yul\":999:1005   */\n      0x00\n        /* \"#utility.yul\":1050:1052   */\n      0x1f\n        /* \"#utility.yul\":1046:1053   */\n      not\n        /* \"#utility.yul\":1041:1043   */\n      0x1f\n        /* \"#utility.yul\":1034:1039   */\n      dup4\n        /* \"#utility.yul\":1030:1044   */\n      add\n        /* \"#utility.yul\":1026:1054   */\n      and\n        /* \"#utility.yul\":1016:1054   */\n      swap1\n      pop\n        /* \"#utility.yul\":958:1060   */\n      swap2\n      swap1\n      pop\n      jump\t// out\n        /* \"#utility.yul\":1066:1430   */\n    tag_99:\n        /* \"#utility.yul\":1154:1157   */\n      0x00\n        /* \"#utility.yul\":1182:1221   */\n      tag_139\n        /* \"#utility.yul\":1215:1220   */\n      dup3\n        /* \"#utility.yul\":1182:1221   */\n      tag_95\n      jump\t// in\n    tag_139:\n        /* \"#utility.yul\":1237:1308   */\n      tag_140\n        /* \"#utility.yul\":1301:1307   */\n      dup2\n        /* \"#utility.yul\":1296:1299   */\n      dup6\n        /* \"#utility.yul\":1237:1308   */\n      tag_96\n      jump\t// in\n    tag_140:\n        /* \"#utility.yul\":1230:1308   */\n      swap4\n      pop\n        /* \"#utility.yul\":1317:1369   */\n      tag_141\n        /* \"#utility.yul\":1362:1368   */\n      dup2\n        /* \"#utility.yul\":1357:1360   */\n      dup6\n        /* \"#utility.yul\":1350:1354   */\n      0x20\n        /* \"#utility.yul\":1343:1348   */\n      dup7\n        /* \"#utility.yul\":1339:1355   */\n      add\n        /* \"#utility.yul\":1317:1369   */\n      tag_97\n      jump\t// in\n    tag_141:\n        /* \"#utility.yul\":1394:1423   */\n      tag_142\n        /* \"#utility.yul\":1416:1422   */\n      dup2\n        /* \"#utility.yul\":1394:1423   */\n      tag_98\n      jump\t// in\n    tag_142:\n        /* \"#utility.yul\":1389:1392   */\n      dup5\n        /* \"#utility.yul\":1385:1424   */\n      add\n        /* \"#utility.yul\":1378:1424   */\n      swap2\n      pop\n        /* \"#utility.yul\":1158:1430   */\n      pop\n        /* \"#utility.yul\":1066:1430   */\n      swap3\n      swap2\n      pop\n      pop\n      jump\t// out\n        /* \"#utility.yul\":1436:1550   */\n    tag_100:\n        /* \"#utility.yul\":1503:1509   */\n      0x00\n        /* \"#utility.yul\":1537:1542   */\n      dup2\n        /* \"#utility.yul\":1531:1543   */\n      mload\n        /* \"#utility.yul\":1521:1543   */\n      swap1\n      pop\n        /* \"#utility.yul\":1436:1550   */\n      swap2\n      swap1\n      pop\n      jump\t// out\n        /* \"#utility.yul\":1556:1740   */\n    tag_101:\n        /* \"#utility.yul\":1655:1666   */\n      0x00\n        /* \"#utility.yul\":1689:1695   */\n      dup3\n        /* \"#utility.yul\":1684:1687   */\n      dup3\n        /* \"#utility.yul\":1677:1696   */\n      mstore\n        /* \"#utility.yul\":1729:1733   */\n      0x20\n        /* \"#utility.yul\":1724:1727   */\n      dup3\n        /* \"#utility.yul\":1720:1734   */\n      add\n        /* \"#utility.yul\":1705:1734   */\n      swap1\n      pop\n        /* \"#utility.yul\":1556:1740   */\n      swap3\n      swap2\n      pop\n      pop\n      jump\t// out\n        /* \"#utility.yul\":1746:1878   */\n    tag_102:\n        /* \"#utility.yul\":1813:1817   */\n      0x00\n        /* \"#utility.yul\":1836:1839   */\n      dup2\n        /* \"#utility.yul\":1828:1839   */\n      swap1\n      pop\n        /* \"#utility.yul\":1866:1870   */\n      0x20\n        /* \"#utility.yul\":1861:1864   */\n      dup3\n        /* \"#utility.yul\":1857:1871   */\n      add\n        /* \"#utility.yul\":1849:1871   */\n      swap1\n      pop\n        /* \"#utility.yul\":1746:1878   */\n      swap2\n      swap1\n      pop\n      jump\t// out\n        /* \"#utility.yul\":1884:1992   */\n    tag_103:\n        /* \"#utility.yul\":1961:1985   */\n      tag_147\n        /* \"#utility.yul\":1979:1984   */\n      dup2\n        /* \"#utility.yul\":1961:1985   */\n      tag_93\n      jump\t// in\n    tag_147:\n        /* \"#utility.yul\":1956:1959   */\n      dup3\n        /* \"#utility.yul\":1949:1986   */\n      mstore\n        /* \"#utility.yul\":1884:1992   */\n      pop\n      pop\n      jump\t// out\n        /* \"#utility.yul\":1998:2177   */\n    tag_104:\n        /* \"#utility.yul\":2067:2077   */\n      0x00\n        /* \"#utility.yul\":2088:2134   */\n      tag_149\n        /* \"#utility.yul\":2130:2133   */\n      dup4\n        /* \"#utility.yul\":2122:2128   */\n      dup4\n        /* \"#utility.yul\":2088:2134   */\n      tag_103\n      jump\t// in\n    tag_149:\n        /* \"#utility.yul\":2166:2170   */\n      0x20\n        /* \"#utility.yul\":2161:2164   */\n      dup4\n        /* \"#utility.yul\":2157:2171   */\n      add\n        /* \"#utility.yul\":2143:2171   */\n      swap1\n      pop\n        /* \"#utility.yul\":1998:2177   */\n      swap3\n      swap2\n      pop\n      pop\n      jump\t// out\n        /* \"#utility.yul\":2183:2296   */\n    tag_105:\n        /* \"#utility.yul\":2253:2257   */\n      0x00\n        /* \"#utility.yul\":2285:2289   */\n      0x20\n        /* \"#utility.yul\":2280:2283   */\n      dup3\n        /* \"#utility.yul\":2276:2290   */\n      add\n        /* \"#utility.yul\":2268:2290   */\n      swap1\n      pop\n        /* \"#utility.yul\":2183:2296   */\n      swap2\n      swap1\n      pop\n      jump\t// out\n        /* \"#utility.yul\":2332:3064   */\n    tag_106:\n        /* \"#utility.yul\":2451:2454   */\n      0x00\n        /* \"#utility.yul\":2480:2534   */\n      tag_152\n        /* \"#utility.yul\":2528:2533   */\n      dup3\n        /* \"#utility.yul\":2480:2534   */\n      tag_100\n      jump\t// in\n    tag_152:\n        /* \"#utility.yul\":2550:2636   */\n      tag_153\n        /* \"#utility.yul\":2629:2635   */\n      dup2\n        /* \"#utility.yul\":2624:2627   */\n      dup6\n        /* \"#utility.yul\":2550:2636   */\n      tag_101\n      jump\t// in\n    tag_153:\n        /* \"#utility.yul\":2543:2636   */\n      swap4\n      pop\n        /* \"#utility.yul\":2660:2716   */\n      tag_154\n        /* \"#utility.yul\":2710:2715   */\n      dup4\n        /* \"#utility.yul\":2660:2716   */\n      tag_102\n      jump\t// in\n    tag_154:\n        /* \"#utility.yul\":2739:2746   */\n      dup1\n        /* \"#utility.yul\":2770:2771   */\n      0x00\n        /* \"#utility.yul\":2755:3039   */\n    tag_155:\n        /* \"#utility.yul\":2780:2786   */\n      dup4\n        /* \"#utility.yul\":2777:2778   */\n      dup2\n        /* \"#utility.yul\":2774:2787   */\n      lt\n        /* \"#utility.yul\":2755:3039   */\n      iszero\n      tag_157\n      jumpi\n        /* \"#utility.yul\":2856:2862   */\n      dup2\n        /* \"#utility.yul\":2850:2863   */\n      mload\n        /* \"#utility.yul\":2883:2946   */\n      tag_158\n        /* \"#utility.yul\":2942:2945   */\n      dup9\n        /* \"#utility.yul\":2927:2940   */\n      dup3\n        /* \"#utility.yul\":2883:2946   */\n      tag_104\n      jump\t// in\n    tag_158:\n        /* \"#utility.yul\":2876:2946   */\n      swap8\n      pop\n        /* \"#utility.yul\":2969:3029   */\n      tag_159\n        /* \"#utility.yul\":3022:3028   */\n      dup4\n        /* \"#utility.yul\":2969:3029   */\n      tag_105\n      jump\t// in\n    tag_159:\n        /* \"#utility.yul\":2959:3029   */\n      swap3\n      pop\n        /* \"#utility.yul\":2815:3039   */\n      pop\n        /* \"#utility.yul\":2802:2803   */\n      0x01\n        /* \"#utility.yul\":2799:2800   */\n      dup2\n        /* \"#utility.yul\":2795:2804   */\n      add\n        /* \"#utility.yul\":2790:2804   */\n      swap1\n      pop\n        /* \"#utility.yul\":2755:3039   */\n      jump(tag_155)\n    tag_157:\n        /* \"#utility.yul\":2759:2773   */\n      pop\n        /* \"#utility.yul\":3055:3058   */\n      dup6\n        /* \"#utility.yul\":3048:3058   */\n      swap4\n      pop\n        /* \"#utility.yul\":2456:3064   */\n      pop\n      pop\n      pop\n        /* \"#utility.yul\":2332:3064   */\n      swap3\n      swap2\n      pop\n      pop\n      jump\t// out\n        /* \"#utility.yul\":3070:3147   */\n    tag_107:\n        /* \"#utility.yul\":3107:3114   */\n      0x00\n        /* \"#utility.yul\":3136:3141   */\n      dup2\n        /* \"#utility.yul\":3125:3141   */\n      swap1\n      pop\n        /* \"#utility.yul\":3070:3147   */\n      swap2\n      swap1\n      pop\n      jump\t// out\n        /* \"#utility.yul\":3153:3271   */\n    tag_108:\n        /* \"#utility.yul\":3240:3264   */\n      tag_162\n        /* \"#utility.yul\":3258:3263   */\n      dup2\n        /* \"#utility.yul\":3240:3264   */\n      tag_107\n      jump\t// in\n    tag_162:\n        /* \"#utility.yul\":3235:3238   */\n      dup3\n        /* \"#utility.yul\":3228:3265   */\n      mstore\n        /* \"#utility.yul\":3153:3271   */\n      pop\n      pop\n      jump\t// out\n        /* \"#utility.yul\":3277:4445   */\n    tag_17:\n        /* \"#utility.yul\":3630:3634   */\n      0x00\n        /* \"#utility.yul\":3668:3671   */\n      0xc0\n        /* \"#utility.yul\":3657:3666   */\n      dup3\n        /* \"#utility.yul\":3653:3672   */\n      add\n        /* \"#utility.yul\":3645:3672   */\n      swap1\n      pop\n        /* \"#utility.yul\":3682:3753   */\n      tag_164\n        /* \"#utility.yul\":3750:3751   */\n      0x00\n        /* \"#utility.yul\":3739:3748   */\n      dup4\n        /* \"#utility.yul\":3735:3752   */\n      add\n        /* \"#utility.yul\":3726:3732   */\n      dup10\n        /* \"#utility.yul\":3682:3753   */\n      tag_94\n      jump\t// in\n    tag_164:\n        /* \"#utility.yul\":3763:3835   */\n      tag_165\n        /* \"#utility.yul\":3831:3833   */\n      0x20\n        /* \"#utility.yul\":3820:3829   */\n      dup4\n        /* \"#utility.yul\":3816:3834   */\n      add\n        /* \"#utility.yul\":3807:3813   */\n      dup9\n        /* \"#utility.yul\":3763:3835   */\n      tag_94\n      jump\t// in\n    tag_165:\n        /* \"#utility.yul\":3882:3891   */\n      dup2\n        /* \"#utility.yul\":3876:3880   */\n      dup2\n        /* \"#utility.yul\":3872:3892   */\n      sub\n        /* \"#utility.yul\":3867:3869   */\n      0x40\n        /* \"#utility.yul\":3856:3865   */\n      dup4\n        /* \"#utility.yul\":3852:3870   */\n      add\n        /* \"#utility.yul\":3845:3893   */\n      mstore\n        /* \"#utility.yul\":3910:3988   */\n      tag_166\n        /* \"#utility.yul\":3983:3987   */\n      dup2\n        /* \"#utility.yul\":3974:3980   */\n      dup8\n        /* \"#utility.yul\":3910:3988   */\n      tag_99\n      jump\t// in\n    tag_166:\n        /* \"#utility.yul\":3902:3988   */\n      swap1\n      pop\n        /* \"#utility.yul\":4035:4044   */\n      dup2\n        /* \"#utility.yul\":4029:4033   */\n      dup2\n        /* \"#utility.yul\":4025:4045   */\n      sub\n        /* \"#utility.yul\":4020:4022   */\n      0x60\n        /* \"#utility.yul\":4009:4018   */\n      dup4\n        /* \"#utility.yul\":4005:4023   */\n      add\n        /* \"#utility.yul\":3998:4046   */\n      mstore\n        /* \"#utility.yul\":4063:4171   */\n      tag_167\n        /* \"#utility.yul\":4166:4170   */\n      dup2\n        /* \"#utility.yul\":4157:4163   */\n      dup7\n        /* \"#utility.yul\":4063:4171   */\n      tag_106\n      jump\t// in\n    tag_167:\n        /* \"#utility.yul\":4055:4171   */\n      swap1\n      pop\n        /* \"#utility.yul\":4219:4228   */\n      dup2\n        /* \"#utility.yul\":4213:4217   */\n      dup2\n        /* \"#utility.yul\":4209:4229   */\n      sub\n        /* \"#utility.yul\":4203:4206   */\n      0x80\n        /* \"#utility.yul\":4192:4201   */\n      dup4\n        /* \"#utility.yul\":4188:4207   */\n      add\n        /* \"#utility.yul\":4181:4230   */\n      mstore\n        /* \"#utility.yul\":4247:4355   */\n      tag_168\n        /* \"#utility.yul\":4350:4354   */\n      dup2\n        /* \"#utility.yul\":4341:4347   */\n      dup6\n        /* \"#utility.yul\":4247:4355   */\n      tag_106\n      jump\t// in\n    tag_168:\n        /* \"#utility.yul\":4239:4355   */\n      swap1\n      pop\n        /* \"#utility.yul\":4365:4438   */\n      tag_169\n        /* \"#utility.yul\":4433:4436   */\n      0xa0\n        /* \"#utility.yul\":4422:4431   */\n      dup4\n        /* \"#utility.yul\":4418:4437   */\n      add\n        /* \"#utility.yul\":4409:4415   */\n      dup5\n        /* \"#utility.yul\":4365:4438   */\n      tag_108\n      jump\t// in\n    tag_169:\n        /* \"#utility.yul\":3277:4445   */\n      swap8\n      swap7\n      pop\n      pop\n      pop\n      pop\n      pop\n      pop\n      pop\n      jump\t// out\n        /* \"#utility.yul\":4451:4673   */\n    tag_21:\n        /* \"#utility.yul\":4544:4548   */\n      0x00\n        /* \"#utility.yul\":4582:4584   */\n      0x20\n        /* \"#utility.yul\":4571:4580   */\n      dup3\n        /* \"#utility.yul\":4567:4585   */\n      add\n        /* \"#utility.yul\":4559:4585   */\n      swap1\n      pop\n        /* \"#utility.yul\":4595:4666   */\n      tag_171\n        /* \"#utility.yul\":4663:4664   */\n      0x00\n        /* \"#utility.yul\":4652:4661   */\n      dup4\n        /* \"#utility.yul\":4648:4665   */\n      add\n        /* \"#utility.yul\":4639:4645   */\n      dup5\n        /* \"#utility.yul\":4595:4666   */\n      tag_94\n      jump\t// in\n    tag_171:\n        /* \"#utility.yul\":4451:4673   */\n      swap3\n      swap2\n      pop\n      pop\n      jump\t// out\n        /* \"#utility.yul\":4760:4877   */\n    tag_110:\n        /* \"#utility.yul\":4869:4870   */\n      0x00\n        /* \"#utility.yul\":4866:4867   */\n      dup1\n        /* \"#utility.yul\":4859:4871   */\n      revert\n        /* \"#utility.yul\":5006:5128   */\n    tag_112:\n        /* \"#utility.yul\":5079:5103   */\n      tag_176\n        /* \"#utility.yul\":5097:5102   */\n      dup2\n        /* \"#utility.yul\":5079:5103   */\n      tag_93\n      jump\t// in\n    tag_176:\n        /* \"#utility.yul\":5072:5077   */\n      dup2\n        /* \"#utility.yul\":5069:5104   */\n      eq\n        /* \"#utility.yul\":5059:5122   */\n      tag_177\n      jumpi\n        /* \"#utility.yul\":5118:5119   */\n      0x00\n        /* \"#utility.yul\":5115:5116   */\n      dup1\n        /* \"#utility.yul\":5108:5120   */\n      revert\n        /* \"#utility.yul\":5059:5122   */\n    tag_177:\n        /* \"#utility.yul\":5006:5128   */\n      pop\n      jump\t// out\n        /* \"#utility.yul\":5134:5273   */\n    tag_113:\n        /* \"#utility.yul\":5180:5185   */\n      0x00\n        /* \"#utility.yul\":5218:5224   */\n      dup2\n        /* \"#utility.yul\":5205:5225   */\n      calldataload\n        /* \"#utility.yul\":5196:5225   */\n      swap1\n      pop\n        /* \"#utility.yul\":5234:5267   */\n      tag_179\n        /* \"#utility.yul\":5261:5266   */\n      dup2\n        /* \"#utility.yul\":5234:5267   */\n      tag_112\n      jump\t// in\n    tag_179:\n        /* \"#utility.yul\":5134:5273   */\n      swap3\n      swap2\n      pop\n      pop\n      jump\t// out\n        /* \"#utility.yul\":5279:5608   */\n    tag_24:\n        /* \"#utility.yul\":5338:5344   */\n      0x00\n        /* \"#utility.yul\":5387:5389   */\n      0x20\n        /* \"#utility.yul\":5375:5384   */\n      dup3\n        /* \"#utility.yul\":5366:5373   */\n      dup5\n        /* \"#utility.yul\":5362:5385   */\n      sub\n        /* \"#utility.yul\":5358:5390   */\n      slt\n        /* \"#utility.yul\":5355:5474   */\n      iszero\n      tag_181\n      jumpi\n        /* \"#utility.yul\":5393:5472   */\n      tag_182\n      tag_110\n      jump\t// in\n    tag_182:\n        /* \"#utility.yul\":5355:5474   */\n    tag_181:\n        /* \"#utility.yul\":5513:5514   */\n      0x00\n        /* \"#utility.yul\":5538:5591   */\n      tag_183\n        /* \"#utility.yul\":5583:5590   */\n      dup5\n        /* \"#utility.yul\":5574:5580   */\n      dup3\n        /* \"#utility.yul\":5563:5572   */\n      dup6\n        /* \"#utility.yul\":5559:5581   */\n      add\n        /* \"#utility.yul\":5538:5591   */\n      tag_113\n      jump\t// in\n    tag_183:\n        /* \"#utility.yul\":5528:5591   */\n      swap2\n      pop\n        /* \"#utility.yul\":5484:5601   */\n      pop\n        /* \"#utility.yul\":5279:5608   */\n      swap3\n      swap2\n      pop\n      pop\n      jump\t// out\n        /* \"#utility.yul\":5614:5736   */\n    tag_114:\n        /* \"#utility.yul\":5687:5711   */\n      tag_185\n        /* \"#utility.yul\":5705:5710   */\n      dup2\n        /* \"#utility.yul\":5687:5711   */\n      tag_107\n      jump\t// in\n    tag_185:\n        /* \"#utility.yul\":5680:5685   */\n      dup2\n        /* \"#utility.yul\":5677:5712   */\n      eq\n        /* \"#utility.yul\":5667:5730   */\n      tag_186\n      jumpi\n        /* \"#utility.yul\":5726:5727   */\n      0x00\n        /* \"#utility.yul\":5723:5724   */\n      dup1\n        /* \"#utility.yul\":5716:5728   */\n      revert\n        /* \"#utility.yul\":5667:5730   */\n    tag_186:\n        /* \"#utility.yul\":5614:5736   */\n      pop\n      jump\t// out\n        /* \"#utility.yul\":5742:5881   */\n    tag_115:\n        /* \"#utility.yul\":5788:5793   */\n      0x00\n        /* \"#utility.yul\":5826:5832   */\n      dup2\n        /* \"#utility.yul\":5813:5833   */\n      calldataload\n        /* \"#utility.yul\":5804:5833   */\n      swap1\n      pop\n        /* \"#utility.yul\":5842:5875   */\n      tag_188\n        /* \"#utility.yul\":5869:5874   */\n      dup2\n        /* \"#utility.yul\":5842:5875   */\n      tag_114\n      jump\t// in\n    tag_188:\n        /* \"#utility.yul\":5742:5881   */\n      swap3\n      swap2\n      pop\n      pop\n      jump\t// out\n        /* \"#utility.yul\":5887:6216   */\n    tag_36:\n        /* \"#utility.yul\":5946:5952   */\n      0x00\n        /* \"#utility.yul\":5995:5997   */\n      0x20\n        /* \"#utility.yul\":5983:5992   */\n      dup3\n        /* \"#utility.yul\":5974:5981   */\n      dup5\n        /* \"#utility.yul\":5970:5993   */\n      sub\n        /* \"#utility.yul\":5966:5998   */\n      slt\n        /* \"#utility.yul\":5963:6082   */\n      iszero\n      tag_190\n      jumpi\n        /* \"#utility.yul\":6001:6080   */\n      tag_191\n      tag_110\n      jump\t// in\n    tag_191:\n        /* \"#utility.yul\":5963:6082   */\n    tag_190:\n        /* \"#utility.yul\":6121:6122   */\n      0x00\n        /* \"#utility.yul\":6146:6199   */\n      tag_192\n        /* \"#utility.yul\":6191:6198   */\n      dup5\n        /* \"#utility.yul\":6182:6188   */\n      dup3\n        /* \"#utility.yul\":6171:6180   */\n      dup6\n        /* \"#utility.yul\":6167:6189   */\n      add\n        /* \"#utility.yul\":6146:6199   */\n      tag_115\n      jump\t// in\n    tag_192:\n        /* \"#utility.yul\":6136:6199   */\n      swap2\n      pop\n        /* \"#utility.yul\":6092:6209   */\n      pop\n        /* \"#utility.yul\":5887:6216   */\n      swap3\n      swap2\n      pop\n      pop\n      jump\t// out\n        /* \"#utility.yul\":6222:6535   */\n    tag_42:\n        /* \"#utility.yul\":6335:6339   */\n      0x00\n        /* \"#utility.yul\":6373:6375   */\n      0x20\n        /* \"#utility.yul\":6362:6371   */\n      dup3\n        /* \"#utility.yul\":6358:6376   */\n      add\n        /* \"#utility.yul\":6350:6376   */\n      swap1\n      pop\n        /* \"#utility.yul\":6422:6431   */\n      dup2\n        /* \"#utility.yul\":6416:6420   */\n      dup2\n        /* \"#utility.yul\":6412:6432   */\n      sub\n        /* \"#utility.yul\":6408:6409   */\n      0x00\n        /* \"#utility.yul\":6397:6406   */\n      dup4\n        /* \"#utility.yul\":6393:6410   */\n      add\n        /* \"#utility.yul\":6386:6433   */\n      mstore\n        /* \"#utility.yul\":6450:6528   */\n      tag_194\n        /* \"#utility.yul\":6523:6527   */\n      dup2\n        /* \"#utility.yul\":6514:6520   */\n      dup5\n        /* \"#utility.yul\":6450:6528   */\n      tag_99\n      jump\t// in\n    tag_194:\n        /* \"#utility.yul\":6442:6528   */\n      swap1\n      pop\n        /* \"#utility.yul\":6222:6535   */\n      swap3\n      swap2\n      pop\n      pop\n      jump\t// out\n        /* \"#utility.yul\":6541:6763   */\n    tag_46:\n        /* \"#utility.yul\":6634:6638   */\n      0x00\n        /* \"#utility.yul\":6672:6674   */\n      0x20\n        /* \"#utility.yul\":6661:6670   */\n      dup3\n        /* \"#utility.yul\":6657:6675   */\n      add\n        /* \"#utility.yul\":6649:6675   */\n      swap1\n      pop\n        /* \"#utility.yul\":6685:6756   */\n      tag_196\n        /* \"#utility.yul\":6753:6754   */\n      0x00\n        /* \"#utility.yul\":6742:6751   */\n      dup4\n        /* \"#utility.yul\":6738:6755   */\n      add\n        /* \"#utility.yul\":6729:6735   */\n      dup5\n        /* \"#utility.yul\":6685:6756   */\n      tag_108\n      jump\t// in\n    tag_196:\n        /* \"#utility.yul\":6541:6763   */\n      swap3\n      swap2\n      pop\n      pop\n      jump\t// out\n        /* \"#utility.yul\":6769:6949   */\n    tag_116:\n        /* \"#utility.yul\":6817:6894   */\n      0x4e487b7100000000000000000000000000000000000000000000000000000000\n        /* \"#utility.yul\":6814:6815   */\n      0x00\n        /* \"#utility.yul\":6807:6895   */\n      mstore\n        /* \"#utility.yul\":6914:6918   */\n      0x22\n        /* \"#utility.yul\":6911:6912   */\n      0x04\n        /* \"#utility.yul\":6904:6919   */\n      mstore\n        /* \"#utility.yul\":6938:6942   */\n      0x24\n        /* \"#utility.yul\":6935:6936   */\n      0x00\n        /* \"#utility.yul\":6928:6943   */\n      revert\n        /* \"#utility.yul\":6955:7275   */\n    tag_53:\n        /* \"#utility.yul\":6999:7005   */\n      0x00\n        /* \"#utility.yul\":7036:7037   */\n      0x02\n        /* \"#utility.yul\":7030:7034   */\n      dup3\n        /* \"#utility.yul\":7026:7038   */\n      div\n        /* \"#utility.yul\":7016:7038   */\n      swap1\n      pop\n        /* \"#utility.yul\":7083:7084   */\n      0x01\n        /* \"#utility.yul\":7077:7081   */\n      dup3\n        /* \"#utility.yul\":7073:7085   */\n      and\n        /* \"#utility.yul\":7104:7122   */\n      dup1\n        /* \"#utility.yul\":7094:7175   */\n      tag_199\n      jumpi\n        /* \"#utility.yul\":7160:7164   */\n      0x7f\n        /* \"#utility.yul\":7152:7158   */\n      dup3\n        /* \"#utility.yul\":7148:7165   */\n      and\n        /* \"#utility.yul\":7138:7165   */\n      swap2\n      pop\n        /* \"#utility.yul\":7094:7175   */\n    tag_199:\n        /* \"#utility.yul\":7222:7224   */\n      0x20\n        /* \"#utility.yul\":7214:7220   */\n      dup3\n        /* \"#utility.yul\":7211:7225   */\n      lt\n        /* \"#utility.yul\":7191:7209   */\n      dup2\n        /* \"#utility.yul\":7188:7226   */\n      eq\n        /* \"#utility.yul\":7185:7269   */\n      iszero\n      tag_200\n      jumpi\n        /* \"#utility.yul\":7241:7259   */\n      tag_201\n      tag_116\n      jump\t// in\n    tag_201:\n        /* \"#utility.yul\":7185:7269   */\n    tag_200:\n        /* \"#utility.yul\":7006:7275   */\n      pop\n        /* \"#utility.yul\":6955:7275   */\n      swap2\n      swap1\n      pop\n      jump\t// out\n        /* \"#utility.yul\":7281:7586   */\n    tag_117:\n        /* \"#utility.yul\":7421:7455   */\n      0x546869732066756e6374696f6e2068617320746f2062652063616c6c65642066\n        /* \"#utility.yul\":7417:7418   */\n      0x00\n        /* \"#utility.yul\":7409:7415   */\n      dup3\n        /* \"#utility.yul\":7405:7419   */\n      add\n        /* \"#utility.yul\":7398:7456   */\n      mstore\n        /* \"#utility.yul\":7490:7524   */\n      0x726f6d207468652073746f727920636f6e747261637420627920616e20616363\n        /* \"#utility.yul\":7485:7487   */\n      0x20\n        /* \"#utility.yul\":7477:7483   */\n      dup3\n        /* \"#utility.yul\":7473:7488   */\n      add\n        /* \"#utility.yul\":7466:7525   */\n      mstore\n        /* \"#utility.yul\":7559:7578   */\n      0x657074656420617574686f72206f6e6c79000000000000000000000000000000\n        /* \"#utility.yul\":7554:7556   */\n      0x40\n        /* \"#utility.yul\":7546:7552   */\n      dup3\n        /* \"#utility.yul\":7542:7557   */\n      add\n        /* \"#utility.yul\":7535:7579   */\n      mstore\n        /* \"#utility.yul\":7281:7586   */\n      pop\n      jump\t// out\n        /* \"#utility.yul\":7592:7958   */\n    tag_118:\n        /* \"#utility.yul\":7734:7737   */\n      0x00\n        /* \"#utility.yul\":7755:7822   */\n      tag_204\n        /* \"#utility.yul\":7819:7821   */\n      0x51\n        /* \"#utility.yul\":7814:7817   */\n      dup4\n        /* \"#utility.yul\":7755:7822   */\n      tag_96\n      jump\t// in\n    tag_204:\n        /* \"#utility.yul\":7748:7822   */\n      swap2\n      pop\n        /* \"#utility.yul\":7831:7924   */\n      tag_205\n        /* \"#utility.yul\":7920:7923   */\n      dup3\n        /* \"#utility.yul\":7831:7924   */\n      tag_117\n      jump\t// in\n    tag_205:\n        /* \"#utility.yul\":7949:7951   */\n      0x60\n        /* \"#utility.yul\":7944:7947   */\n      dup3\n        /* \"#utility.yul\":7940:7952   */\n      add\n        /* \"#utility.yul\":7933:7952   */\n      swap1\n      pop\n        /* \"#utility.yul\":7592:7958   */\n      swap2\n      swap1\n      pop\n      jump\t// out\n        /* \"#utility.yul\":7964:8383   */\n    tag_65:\n        /* \"#utility.yul\":8130:8134   */\n      0x00\n        /* \"#utility.yul\":8168:8170   */\n      0x20\n        /* \"#utility.yul\":8157:8166   */\n      dup3\n        /* \"#utility.yul\":8153:8171   */\n      add\n        /* \"#utility.yul\":8145:8171   */\n      swap1\n      pop\n        /* \"#utility.yul\":8217:8226   */\n      dup2\n        /* \"#utility.yul\":8211:8215   */\n      dup2\n        /* \"#utility.yul\":8207:8227   */\n      sub\n        /* \"#utility.yul\":8203:8204   */\n      0x00\n        /* \"#utility.yul\":8192:8201   */\n      dup4\n        /* \"#utility.yul\":8188:8205   */\n      add\n        /* \"#utility.yul\":8181:8228   */\n      mstore\n        /* \"#utility.yul\":8245:8376   */\n      tag_207\n        /* \"#utility.yul\":8371:8375   */\n      dup2\n        /* \"#utility.yul\":8245:8376   */\n      tag_118\n      jump\t// in\n    tag_207:\n        /* \"#utility.yul\":8237:8376   */\n      swap1\n      pop\n        /* \"#utility.yul\":7964:8383   */\n      swap2\n      swap1\n      pop\n      jump\t// out\n        /* \"#utility.yul\":8389:8566   */\n    tag_119:\n        /* \"#utility.yul\":8529:8558   */\n      0x596f75206c696b656420746869732073746f7279206265666f72650000000000\n        /* \"#utility.yul\":8525:8526   */\n      0x00\n        /* \"#utility.yul\":8517:8523   */\n      dup3\n        /* \"#utility.yul\":8513:8527   */\n      add\n        /* \"#utility.yul\":8506:8559   */\n      mstore\n        /* \"#utility.yul\":8389:8566   */\n      pop\n      jump\t// out\n        /* \"#utility.yul\":8572:8938   */\n    tag_120:\n        /* \"#utility.yul\":8714:8717   */\n      0x00\n        /* \"#utility.yul\":8735:8802   */\n      tag_210\n        /* \"#utility.yul\":8799:8801   */\n      0x1b\n        /* \"#utility.yul\":8794:8797   */\n      dup4\n        /* \"#utility.yul\":8735:8802   */\n      tag_96\n      jump\t// in\n    tag_210:\n        /* \"#utility.yul\":8728:8802   */\n      swap2\n      pop\n        /* \"#utility.yul\":8811:8904   */\n      tag_211\n        /* \"#utility.yul\":8900:8903   */\n      dup3\n        /* \"#utility.yul\":8811:8904   */\n      tag_119\n      jump\t// in\n    tag_211:\n        /* \"#utility.yul\":8929:8931   */\n      0x20\n        /* \"#utility.yul\":8924:8927   */\n      dup3\n        /* \"#utility.yul\":8920:8932   */\n      add\n        /* \"#utility.yul\":8913:8932   */\n      swap1\n      pop\n        /* \"#utility.yul\":8572:8938   */\n      swap2\n      swap1\n      pop\n      jump\t// out\n        /* \"#utility.yul\":8944:9363   */\n    tag_74:\n        /* \"#utility.yul\":9110:9114   */\n      0x00\n        /* \"#utility.yul\":9148:9150   */\n      0x20\n        /* \"#utility.yul\":9137:9146   */\n      dup3\n        /* \"#utility.yul\":9133:9151   */\n      add\n        /* \"#utility.yul\":9125:9151   */\n      swap1\n      pop\n        /* \"#utility.yul\":9197:9206   */\n      dup2\n        /* \"#utility.yul\":9191:9195   */\n      dup2\n        /* \"#utility.yul\":9187:9207   */\n      sub\n        /* \"#utility.yul\":9183:9184   */\n      0x00\n        /* \"#utility.yul\":9172:9181   */\n      dup4\n        /* \"#utility.yul\":9168:9185   */\n      add\n        /* \"#utility.yul\":9161:9208   */\n      mstore\n        /* \"#utility.yul\":9225:9356   */\n      tag_213\n        /* \"#utility.yul\":9351:9355   */\n      dup2\n        /* \"#utility.yul\":9225:9356   */\n      tag_120\n      jump\t// in\n    tag_213:\n        /* \"#utility.yul\":9217:9356   */\n      swap1\n      pop\n        /* \"#utility.yul\":8944:9363   */\n      swap2\n      swap1\n      pop\n      jump\t// out\n        /* \"#utility.yul\":9369:9549   */\n    tag_121:\n        /* \"#utility.yul\":9417:9494   */\n      0x4e487b7100000000000000000000000000000000000000000000000000000000\n        /* \"#utility.yul\":9414:9415   */\n      0x00\n        /* \"#utility.yul\":9407:9495   */\n      mstore\n        /* \"#utility.yul\":9514:9518   */\n      0x11\n        /* \"#utility.yul\":9511:9512   */\n      0x04\n        /* \"#utility.yul\":9504:9519   */\n      mstore\n        /* \"#utility.yul\":9538:9542   */\n      0x24\n        /* \"#utility.yul\":9535:9536   */\n      0x00\n        /* \"#utility.yul\":9528:9543   */\n      revert\n        /* \"#utility.yul\":9555:9860   */\n    tag_88:\n        /* \"#utility.yul\":9595:9598   */\n      0x00\n        /* \"#utility.yul\":9614:9634   */\n      tag_216\n        /* \"#utility.yul\":9632:9633   */\n      dup3\n        /* \"#utility.yul\":9614:9634   */\n      tag_107\n      jump\t// in\n    tag_216:\n        /* \"#utility.yul\":9609:9634   */\n      swap2\n      pop\n        /* \"#utility.yul\":9648:9668   */\n      tag_217\n        /* \"#utility.yul\":9666:9667   */\n      dup4\n        /* \"#utility.yul\":9648:9668   */\n      tag_107\n      jump\t// in\n    tag_217:\n        /* \"#utility.yul\":9643:9668   */\n      swap3\n      pop\n        /* \"#utility.yul\":9802:9803   */\n      dup3\n        /* \"#utility.yul\":9734:9800   */\n      0xffffffffffffffffffffffffffffffffffffffffffffffffffffffffffffffff\n        /* \"#utility.yul\":9730:9804   */\n      sub\n        /* \"#utility.yul\":9727:9728   */\n      dup3\n        /* \"#utility.yul\":9724:9805   */\n      gt\n        /* \"#utility.yul\":9721:9828   */\n      iszero\n      tag_218\n      jumpi\n        /* \"#utility.yul\":9808:9826   */\n      tag_219\n      tag_121\n      jump\t// in\n    tag_219:\n        /* \"#utility.yul\":9721:9828   */\n    tag_218:\n        /* \"#utility.yul\":9852:9853   */\n      dup3\n        /* \"#utility.yul\":9849:9850   */\n      dup3\n        /* \"#utility.yul\":9845:9854   */\n      add\n        /* \"#utility.yul\":9838:9854   */\n      swap1\n      pop\n        /* \"#utility.yul\":9555:9860   */\n      swap3\n      swap2\n      pop\n      pop\n      jump\t// out\n        /* \"#utility.yul\":9866:10043   */\n    tag_122:\n        /* \"#utility.yul\":10006:10035   */\n      0x536166654d6174683a206164646974696f6e206f766572666c6f770000000000\n        /* \"#utility.yul\":10002:10003   */\n      0x00\n        /* \"#utility.yul\":9994:10000   */\n      dup3\n        /* \"#utility.yul\":9990:10004   */\n      add\n        /* \"#utility.yul\":9983:10036   */\n      mstore\n        /* \"#utility.yul\":9866:10043   */\n      pop\n      jump\t// out\n        /* \"#utility.yul\":10049:10415   */\n    tag_123:\n        /* \"#utility.yul\":10191:10194   */\n      0x00\n        /* \"#utility.yul\":10212:10279   */\n      tag_222\n        /* \"#utility.yul\":10276:10278   */\n      0x1b\n        /* \"#utility.yul\":10271:10274   */\n      dup4\n        /* \"#utility.yul\":10212:10279   */\n      tag_96\n      jump\t// in\n    tag_222:\n        /* \"#utility.yul\":10205:10279   */\n      swap2\n      pop\n        /* \"#utility.yul\":10288:10381   */\n      tag_223\n        /* \"#utility.yul\":10377:10380   */\n      dup3\n        /* \"#utility.yul\":10288:10381   */\n      tag_122\n      jump\t// in\n    tag_223:\n        /* \"#utility.yul\":10406:10408   */\n      0x20\n        /* \"#utility.yul\":10401:10404   */\n      dup3\n        /* \"#utility.yul\":10397:10409   */\n      add\n        /* \"#utility.yul\":10390:10409   */\n      swap1\n      pop\n        /* \"#utility.yul\":10049:10415   */\n      swap2\n      swap1\n      pop\n      jump\t// out\n        /* \"#utility.yul\":10421:10840   */\n    tag_91:\n        /* \"#utility.yul\":10587:10591   */\n      0x00\n        /* \"#utility.yul\":10625:10627   */\n      0x20\n        /* \"#utility.yul\":10614:10623   */\n      dup3\n        /* \"#utility.yul\":10610:10628   */\n      add\n        /* \"#utility.yul\":10602:10628   */\n      swap1\n      pop\n        /* \"#utility.yul\":10674:10683   */\n      dup2\n        /* \"#utility.yul\":10668:10672   */\n      dup2\n        /* \"#utility.yul\":10664:10684   */\n      sub\n        /* \"#utility.yul\":10660:10661   */\n      0x00\n        /* \"#utility.yul\":10649:10658   */\n      dup4\n        /* \"#utility.yul\":10645:10662   */\n      add\n        /* \"#utility.yul\":10638:10685   */\n      mstore\n        /* \"#utility.yul\":10702:10833   */\n      tag_225\n        /* \"#utility.yul\":10828:10832   */\n      dup2\n        /* \"#utility.yul\":10702:10833   */\n      tag_123\n      jump\t// in\n    tag_225:\n        /* \"#utility.yul\":10694:10833   */\n      swap1\n      pop\n        /* \"#utility.yul\":10421:10840   */\n      swap2\n      swap1\n      pop\n      jump\t// out\n\n    auxdata: 0xa26469706673582212203028a4aec6c74546e7eb264d9b0fe9b5829ed5f44dcb10032dcf6f78a276af9664736f6c63430008090033\n}\n","bytecode":{"linkReferences":{},"object":"60806040523480156200001157600080fd5b506040516200144b3803806200144b8339818101604052810190620000379190620004c0565b84600160006101000a81548173ffffffffffffffffffffffffffffffffffffffff021916908373ffffffffffffffffffffffffffffffffffffffff160217905550836000806101000a81548173ffffffffffffffffffffffffffffffffffffffff021916908373ffffffffffffffffffffffffffffffffffffffff1602179055508260029080519060200190620000d09291906200020e565b50600073ffffffffffffffffffffffffffffffffffffffff168273ffffffffffffffffffffffffffffffffffffffff16146200016a576003829080600181540180825580915050600190039060005260206000200160009091909190916101000a81548173ffffffffffffffffffffffffffffffffffffffff021916908373ffffffffffffffffffffffffffffffffffffffff1602179055505b600073ffffffffffffffffffffffffffffffffffffffff168173ffffffffffffffffffffffffffffffffffffffff161462000203576004819080600181540180825580915050600190039060005260206000200160009091909190916101000a81548173ffffffffffffffffffffffffffffffffffffffff021916908373ffffffffffffffffffffffffffffffffffffffff1602179055505b5050505050620005cc565b8280546200021c9062000596565b90600052602060002090601f0160209004810192826200024057600085556200028c565b82601f106200025b57805160ff19168380011785556200028c565b828001600101855582156200028c579182015b828111156200028b5782518255916020019190600101906200026e565b5b5090506200029b91906200029f565b5090565b5b80821115620002ba576000816000905550600101620002a0565b5090565b6000604051905090565b600080fd5b600080fd5b600073ffffffffffffffffffffffffffffffffffffffff82169050919050565b6000620002ff82620002d2565b9050919050565b6200031181620002f2565b81146200031d57600080fd5b50565b600081519050620003318162000306565b92915050565b600080fd5b600080fd5b6000601f19601f8301169050919050565b7f4e487b7100000000000000000000000000000000000000000000000000000000600052604160045260246000fd5b6200038c8262000341565b810181811067ffffffffffffffff82111715620003ae57620003ad62000352565b5b80604052505050565b6000620003c3620002be565b9050620003d1828262000381565b919050565b600067ffffffffffffffff821115620003f457620003f362000352565b5b620003ff8262000341565b9050602081019050919050565b60005b838110156200042c5780820151818401526020810190506200040f565b838111156200043c576000848401525b50505050565b6000620004596200045384620003d6565b620003b7565b9050828152602081018484840111156200047857620004776200033c565b5b620004858482856200040c565b509392505050565b600082601f830112620004a557620004a462000337565b5b8151620004b784826020860162000442565b91505092915050565b600080600080600060a08688031215620004df57620004de620002c8565b5b6000620004ef8882890162000320565b9550506020620005028882890162000320565b945050604086015167ffffffffffffffff811115620005265762000525620002cd565b5b62000534888289016200048d565b9350506060620005478882890162000320565b92505060806200055a8882890162000320565b9150509295509295909350565b7f4e487b7100000000000000000000000000000000000000000000000000000000600052602260045260246000fd5b60006002820490506001821680620005af57607f821691505b60208210811415620005c657620005c562000567565b5b50919050565b610e6f80620005dc6000396000f3fe608060405234801561001057600080fd5b506004361061009e5760003560e01c8063a6c3e6b911610066578063a6c3e6b914610126578063c5fe6ffc14610144578063c623674f14610174578063e5a0af3d14610192578063ed777791146101b05761009e565b80634051ddac146100a357806346c922d1146100c65780638758ce83146100e4578063988e46c814610100578063a523b88a1461011c575b600080fd5b6100ab6101e0565b6040516100bd96959493929190610a3e565b60405180910390f35b6100ce6103e8565b6040516100db9190610ab4565b60405180910390f35b6100fe60048036038101906100f99190610b00565b61040c565b005b61011a60048036038101906101159190610b00565b610500565b005b6101246105f4565b005b61012e6106f7565b60405161013b9190610ab4565b60405180910390f35b61015e60048036038101906101599190610b59565b61071d565b60405161016b9190610ab4565b60405180910390f35b61017c61075c565b6040516101899190610b86565b60405180910390f35b61019a6107ea565b6040516101a79190610ba8565b60405180910390f35b6101ca60048036038101906101c59190610b59565b6107f0565b6040516101d79190610ab4565b60405180910390f35b600080606080606060008060009054906101000a900473ffffffffffffffffffffffffffffffffffffffff16600160009054906101000a900473ffffffffffffffffffffffffffffffffffffffff1660026003600460065483805461024490610bf2565b80601f016020809104026020016040519081016040528092919081815260200182805461027090610bf2565b80156102bd5780601f10610292576101008083540402835291602001916102bd565b820191906000526020600020905b8154815290600101906020018083116102a057829003601f168201915b505050505093508280548060200260200160405190810160405280929190818152602001828054801561034557602002820191906000526020600020905b8160009054906101000a900473ffffffffffffffffffffffffffffffffffffffff1673ffffffffffffffffffffffffffffffffffffffff16815260200190600101908083116102fb575b50505050509250818054806020026020016040519081016040528092919081815260200182805480156103cd57602002820191906000526020600020905b8160009054906101000a900473ffffffffffffffffffffffffffffffffffffffff1673ffffffffffffffffffffffffffffffffffffffff1681526020019060010190808311610383575b50505050509150955095509550955095509550909192939495565b60008054906101000a900473ffffffffffffffffffffffffffffffffffffffff1681565b60008054906101000a900473ffffffffffffffffffffffffffffffffffffffff1673ffffffffffffffffffffffffffffffffffffffff163373ffffffffffffffffffffffffffffffffffffffff161461049a576040517f08c379a000000000000000000000000000000000000000000000000000000000815260040161049190610cbc565b60405180910390fd5b6003819080600181540180825580915050600190039060005260206000200160009091909190916101000a81548173ffffffffffffffffffffffffffffffffffffffff021916908373ffffffffffffffffffffffffffffffffffffffff16021790555050565b60008054906101000a900473ffffffffffffffffffffffffffffffffffffffff1673ffffffffffffffffffffffffffffffffffffffff163373ffffffffffffffffffffffffffffffffffffffff161461058e576040517f08c379a000000000000000000000000000000000000000000000000000000000815260040161058590610cbc565b60405180910390fd5b6004819080600181540180825580915050600190039060005260206000200160009091909190916101000a81548173ffffffffffffffffffffffffffffffffffffffff021916908373ffffffffffffffffffffffffffffffffffffffff16021790555050565b600560003373ffffffffffffffffffffffffffffffffffffffff1673ffffffffffffffffffffffffffffffffffffffff16815260200190815260200160002060009054906101000a900460ff1615610681576040517f08c379a000000000000000000000000000000000000000000000000000000000815260040161067890610d28565b60405180910390fd5b6001600560003373ffffffffffffffffffffffffffffffffffffffff1673ffffffffffffffffffffffffffffffffffffffff16815260200190815260200160002060006101000a81548160ff0219169083151502179055506106ef600160065461082f90919063ffffffff16565b600681905550565b600160009054906101000a900473ffffffffffffffffffffffffffffffffffffffff1681565b6004818154811061072d57600080fd5b906000526020600020016000915054906101000a900473ffffffffffffffffffffffffffffffffffffffff1681565b6002805461076990610bf2565b80601f016020809104026020016040519081016040528092919081815260200182805461079590610bf2565b80156107e25780601f106107b7576101008083540402835291602001916107e2565b820191906000526020600020905b8154815290600101906020018083116107c557829003601f168201915b505050505081565b60065481565b6003818154811061080057600080fd5b906000526020600020016000915054906101000a900473ffffffffffffffffffffffffffffffffffffffff1681565b600080828461083e9190610d77565b905083811015610883576040517f08c379a000000000000000000000000000000000000000000000000000000000815260040161087a90610e19565b60405180910390fd5b8091505092915050565b600073ffffffffffffffffffffffffffffffffffffffff82169050919050565b60006108b88261088d565b9050919050565b6108c8816108ad565b82525050565b600081519050919050565b600082825260208201905092915050565b60005b838110156109085780820151818401526020810190506108ed565b83811115610917576000848401525b50505050565b6000601f19601f8301169050919050565b6000610939826108ce565b61094381856108d9565b93506109538185602086016108ea565b61095c8161091d565b840191505092915050565b600081519050919050565b600082825260208201905092915050565b6000819050602082019050919050565b61099c816108ad565b82525050565b60006109ae8383610993565b60208301905092915050565b6000602082019050919050565b60006109d282610967565b6109dc8185610972565b93506109e783610983565b8060005b83811015610a185781516109ff88826109a2565b9750610a0a836109ba565b9250506001810190506109eb565b5085935050505092915050565b6000819050919050565b610a3881610a25565b82525050565b600060c082019050610a5360008301896108bf565b610a6060208301886108bf565b8181036040830152610a72818761092e565b90508181036060830152610a8681866109c7565b90508181036080830152610a9a81856109c7565b9050610aa960a0830184610a2f565b979650505050505050565b6000602082019050610ac960008301846108bf565b92915050565b600080fd5b610add816108ad565b8114610ae857600080fd5b50565b600081359050610afa81610ad4565b92915050565b600060208284031215610b1657610b15610acf565b5b6000610b2484828501610aeb565b91505092915050565b610b3681610a25565b8114610b4157600080fd5b50565b600081359050610b5381610b2d565b92915050565b600060208284031215610b6f57610b6e610acf565b5b6000610b7d84828501610b44565b91505092915050565b60006020820190508181036000830152610ba0818461092e565b905092915050565b6000602082019050610bbd6000830184610a2f565b92915050565b7f4e487b7100000000000000000000000000000000000000000000000000000000600052602260045260246000fd5b60006002820490506001821680610c0a57607f821691505b60208210811415610c1e57610c1d610bc3565b5b50919050565b7f546869732066756e6374696f6e2068617320746f2062652063616c6c6564206660008201527f726f6d207468652073746f727920636f6e747261637420627920616e2061636360208201527f657074656420617574686f72206f6e6c79000000000000000000000000000000604082015250565b6000610ca66051836108d9565b9150610cb182610c24565b606082019050919050565b60006020820190508181036000830152610cd581610c99565b9050919050565b7f596f75206c696b656420746869732073746f7279206265666f72650000000000600082015250565b6000610d12601b836108d9565b9150610d1d82610cdc565b602082019050919050565b60006020820190508181036000830152610d4181610d05565b9050919050565b7f4e487b7100000000000000000000000000000000000000000000000000000000600052601160045260246000fd5b6000610d8282610a25565b9150610d8d83610a25565b9250827fffffffffffffffffffffffffffffffffffffffffffffffffffffffffffffffff03821115610dc257610dc1610d48565b5b828201905092915050565b7f536166654d6174683a206164646974696f6e206f766572666c6f770000000000600082015250565b6000610e03601b836108d9565b9150610e0e82610dcd565b602082019050919050565b60006020820190508181036000830152610e3281610df6565b905091905056fea26469706673582212203028a4aec6c74546e7eb264d9b0fe9b5829ed5f44dcb10032dcf6f78a276af9664736f6c63430008090033","opcodes":"PUSH1 0x80 PUSH1 0x40 MSTORE CALLVALUE DUP1 ISZERO PUSH3 0x11 JUMPI PUSH1 0x0 DUP1 REVERT JUMPDEST POP PUSH1 0x40 MLOAD PUSH3 0x144B CODESIZE SUB DUP1 PUSH3 0x144B DUP4 CODECOPY DUP2 DUP2 ADD PUSH1 0x40 MSTORE DUP2 ADD SWAP1 PUSH3 0x37 SWAP2 SWAP1 PUSH3 0x4C0 JUMP JUMPDEST DUP5 PUSH1 0x1 PUSH1 0x0 PUSH2 0x100 EXP DUP2 SLOAD DUP2 PUSH20 0xFFFFFFFFFFFFFFFFFFFFFFFFFFFFFFFFFFFFFFFF MUL NOT AND SWAP1 DUP4 PUSH20 0xFFFFFFFFFFFFFFFFFFFFFFFFFFFFFFFFFFFFFFFF AND MUL OR SWAP1 SSTORE POP DUP4 PUSH1 0x0 DUP1 PUSH2 0x100 EXP DUP2 SLOAD DUP2 PUSH20 0xFFFFFFFFFFFFFFFFFFFFFFFFFFFFFFFFFFFFFFFF MUL NOT AND SWAP1 DUP4 PUSH20 0xFFFFFFFFFFFFFFFFFFFFFFFFFFFFFFFFFFFFFFFF AND MUL OR SWAP1 SSTORE POP DUP3 PUSH1 0x2 SWAP1 DUP1 MLOAD SWAP1 PUSH1 0x20 ADD SWAP1 PUSH3 0xD0 SWAP3 SWAP2 SWAP1 PUSH3 0x20E JUMP JUMPDEST POP PUSH1 0x0 PUSH20 0xFFFFFFFFFFFFFFFFFFFFFFFFFFFFFFFFFFFFFFFF AND DUP3 PUSH20 0xFFFFFFFFFFFFFFFFFFFFFFFFFFFFFFFFFFFFFFFF AND EQ PUSH3 0x16A JUMPI PUSH1 0x3 DUP3 SWAP1 DUP1 PUSH1 0x1 DUP2 SLOAD ADD DUP1 DUP3 SSTORE DUP1 SWAP2 POP POP PUSH1 0x1 SWAP1 SUB SWAP1 PUSH1 0x0 MSTORE PUSH1 0x20 PUSH1 0x0 KECCAK256 ADD PUSH1 0x0 SWAP1 SWAP2 SWAP1 SWAP2 SWAP1 SWAP2 PUSH2 0x100 EXP DUP2 SLOAD DUP2 PUSH20 0xFFFFFFFFFFFFFFFFFFFFFFFFFFFFFFFFFFFFFFFF MUL NOT AND SWAP1 DUP4 PUSH20 0xFFFFFFFFFFFFFFFFFFFFFFFFFFFFFFFFFFFFFFFF AND MUL OR SWAP1 SSTORE POP JUMPDEST PUSH1 0x0 PUSH20 0xFFFFFFFFFFFFFFFFFFFFFFFFFFFFFFFFFFFFFFFF AND DUP2 PUSH20 0xFFFFFFFFFFFFFFFFFFFFFFFFFFFFFFFFFFFFFFFF AND EQ PUSH3 0x203 JUMPI PUSH1 0x4 DUP2 SWAP1 DUP1 PUSH1 0x1 DUP2 SLOAD ADD DUP1 DUP3 SSTORE DUP1 SWAP2 POP POP PUSH1 0x1 SWAP1 SUB SWAP1 PUSH1 0x0 MSTORE PUSH1 0x20 PUSH1 0x0 KECCAK256 ADD PUSH1 0x0 SWAP1 SWAP2 SWAP1 SWAP2 SWAP1 SWAP2 PUSH2 0x100 EXP DUP2 SLOAD DUP2 PUSH20 0xFFFFFFFFFFFFFFFFFFFFFFFFFFFFFFFFFFFFFFFF MUL NOT AND SWAP1 DUP4 PUSH20 0xFFFFFFFFFFFFFFFFFFFFFFFFFFFFFFFFFFFFFFFF AND MUL OR SWAP1 SSTORE POP JUMPDEST POP POP POP POP POP PUSH3 0x5CC JUMP JUMPDEST DUP3 DUP1 SLOAD PUSH3 0x21C SWAP1 PUSH3 0x596 JUMP JUMPDEST SWAP1 PUSH1 0x0 MSTORE PUSH1 0x20 PUSH1 0x0 KECCAK256 SWAP1 PUSH1 0x1F ADD PUSH1 0x20 SWAP1 DIV DUP2 ADD SWAP3 DUP3 PUSH3 0x240 JUMPI PUSH1 0x0 DUP6 SSTORE PUSH3 0x28C JUMP JUMPDEST DUP3 PUSH1 0x1F LT PUSH3 0x25B JUMPI DUP1 MLOAD PUSH1 0xFF NOT AND DUP4 DUP1 ADD OR DUP6 SSTORE PUSH3 0x28C JUMP JUMPDEST DUP3 DUP1 ADD PUSH1 0x1 ADD DUP6 SSTORE DUP3 ISZERO PUSH3 0x28C JUMPI SWAP2 DUP3 ADD JUMPDEST DUP3 DUP2 GT ISZERO PUSH3 0x28B JUMPI DUP3 MLOAD DUP3 SSTORE SWAP2 PUSH1 0x20 ADD SWAP2 SWAP1 PUSH1 0x1 ADD SWAP1 PUSH3 0x26E JUMP JUMPDEST JUMPDEST POP SWAP1 POP PUSH3 0x29B SWAP2 SWAP1 PUSH3 0x29F JUMP JUMPDEST POP SWAP1 JUMP JUMPDEST JUMPDEST DUP1 DUP3 GT ISZERO PUSH3 0x2BA JUMPI PUSH1 0x0 DUP2 PUSH1 0x0 SWAP1 SSTORE POP PUSH1 0x1 ADD PUSH3 0x2A0 JUMP JUMPDEST POP SWAP1 JUMP JUMPDEST PUSH1 0x0 PUSH1 0x40 MLOAD SWAP1 POP SWAP1 JUMP JUMPDEST PUSH1 0x0 DUP1 REVERT JUMPDEST PUSH1 0x0 DUP1 REVERT JUMPDEST PUSH1 0x0 PUSH20 0xFFFFFFFFFFFFFFFFFFFFFFFFFFFFFFFFFFFFFFFF DUP3 AND SWAP1 POP SWAP2 SWAP1 POP JUMP JUMPDEST PUSH1 0x0 PUSH3 0x2FF DUP3 PUSH3 0x2D2 JUMP JUMPDEST SWAP1 POP SWAP2 SWAP1 POP JUMP JUMPDEST PUSH3 0x311 DUP2 PUSH3 0x2F2 JUMP JUMPDEST DUP2 EQ PUSH3 0x31D JUMPI PUSH1 0x0 DUP1 REVERT JUMPDEST POP JUMP JUMPDEST PUSH1 0x0 DUP2 MLOAD SWAP1 POP PUSH3 0x331 DUP2 PUSH3 0x306 JUMP JUMPDEST SWAP3 SWAP2 POP POP JUMP JUMPDEST PUSH1 0x0 DUP1 REVERT JUMPDEST PUSH1 0x0 DUP1 REVERT JUMPDEST PUSH1 0x0 PUSH1 0x1F NOT PUSH1 0x1F DUP4 ADD AND SWAP1 POP SWAP2 SWAP1 POP JUMP JUMPDEST PUSH32 0x4E487B7100000000000000000000000000000000000000000000000000000000 PUSH1 0x0 MSTORE PUSH1 0x41 PUSH1 0x4 MSTORE PUSH1 0x24 PUSH1 0x0 REVERT JUMPDEST PUSH3 0x38C DUP3 PUSH3 0x341 JUMP JUMPDEST DUP2 ADD DUP2 DUP2 LT PUSH8 0xFFFFFFFFFFFFFFFF DUP3 GT OR ISZERO PUSH3 0x3AE JUMPI PUSH3 0x3AD PUSH3 0x352 JUMP JUMPDEST JUMPDEST DUP1 PUSH1 0x40 MSTORE POP POP POP JUMP JUMPDEST PUSH1 0x0 PUSH3 0x3C3 PUSH3 0x2BE JUMP JUMPDEST SWAP1 POP PUSH3 0x3D1 DUP3 DUP3 PUSH3 0x381 JUMP JUMPDEST SWAP2 SWAP1 POP JUMP JUMPDEST PUSH1 0x0 PUSH8 0xFFFFFFFFFFFFFFFF DUP3 GT ISZERO PUSH3 0x3F4 JUMPI PUSH3 0x3F3 PUSH3 0x352 JUMP JUMPDEST JUMPDEST PUSH3 0x3FF DUP3 PUSH3 0x341 JUMP JUMPDEST SWAP1 POP PUSH1 0x20 DUP2 ADD SWAP1 POP SWAP2 SWAP1 POP JUMP JUMPDEST PUSH1 0x0 JUMPDEST DUP4 DUP2 LT ISZERO PUSH3 0x42C JUMPI DUP1 DUP3 ADD MLOAD DUP2 DUP5 ADD MSTORE PUSH1 0x20 DUP2 ADD SWAP1 POP PUSH3 0x40F JUMP JUMPDEST DUP4 DUP2 GT ISZERO PUSH3 0x43C JUMPI PUSH1 0x0 DUP5 DUP5 ADD MSTORE JUMPDEST POP POP POP POP JUMP JUMPDEST PUSH1 0x0 PUSH3 0x459 PUSH3 0x453 DUP5 PUSH3 0x3D6 JUMP JUMPDEST PUSH3 0x3B7 JUMP JUMPDEST SWAP1 POP DUP3 DUP2 MSTORE PUSH1 0x20 DUP2 ADD DUP5 DUP5 DUP5 ADD GT ISZERO PUSH3 0x478 JUMPI PUSH3 0x477 PUSH3 0x33C JUMP JUMPDEST JUMPDEST PUSH3 0x485 DUP5 DUP3 DUP6 PUSH3 0x40C JUMP JUMPDEST POP SWAP4 SWAP3 POP POP POP JUMP JUMPDEST PUSH1 0x0 DUP3 PUSH1 0x1F DUP4 ADD SLT PUSH3 0x4A5 JUMPI PUSH3 0x4A4 PUSH3 0x337 JUMP JUMPDEST JUMPDEST DUP2 MLOAD PUSH3 0x4B7 DUP5 DUP3 PUSH1 0x20 DUP7 ADD PUSH3 0x442 JUMP JUMPDEST SWAP2 POP POP SWAP3 SWAP2 POP POP JUMP JUMPDEST PUSH1 0x0 DUP1 PUSH1 0x0 DUP1 PUSH1 0x0 PUSH1 0xA0 DUP7 DUP9 SUB SLT ISZERO PUSH3 0x4DF JUMPI PUSH3 0x4DE PUSH3 0x2C8 JUMP JUMPDEST JUMPDEST PUSH1 0x0 PUSH3 0x4EF DUP9 DUP3 DUP10 ADD PUSH3 0x320 JUMP JUMPDEST SWAP6 POP POP PUSH1 0x20 PUSH3 0x502 DUP9 DUP3 DUP10 ADD PUSH3 0x320 JUMP JUMPDEST SWAP5 POP POP PUSH1 0x40 DUP7 ADD MLOAD PUSH8 0xFFFFFFFFFFFFFFFF DUP2 GT ISZERO PUSH3 0x526 JUMPI PUSH3 0x525 PUSH3 0x2CD JUMP JUMPDEST JUMPDEST PUSH3 0x534 DUP9 DUP3 DUP10 ADD PUSH3 0x48D JUMP JUMPDEST SWAP4 POP POP PUSH1 0x60 PUSH3 0x547 DUP9 DUP3 DUP10 ADD PUSH3 0x320 JUMP JUMPDEST SWAP3 POP POP PUSH1 0x80 PUSH3 0x55A DUP9 DUP3 DUP10 ADD PUSH3 0x320 JUMP JUMPDEST SWAP2 POP POP SWAP3 SWAP6 POP SWAP3 SWAP6 SWAP1 SWAP4 POP JUMP JUMPDEST PUSH32 0x4E487B7100000000000000000000000000000000000000000000000000000000 PUSH1 0x0 MSTORE PUSH1 0x22 PUSH1 0x4 MSTORE PUSH1 0x24 PUSH1 0x0 REVERT JUMPDEST PUSH1 0x0 PUSH1 0x2 DUP3 DIV SWAP1 POP PUSH1 0x1 DUP3 AND DUP1 PUSH3 0x5AF JUMPI PUSH1 0x7F DUP3 AND SWAP2 POP JUMPDEST PUSH1 0x20 DUP3 LT DUP2 EQ ISZERO PUSH3 0x5C6 JUMPI PUSH3 0x5C5 PUSH3 0x567 JUMP JUMPDEST JUMPDEST POP SWAP2 SWAP1 POP JUMP JUMPDEST PUSH2 0xE6F DUP1 PUSH3 0x5DC PUSH1 0x0 CODECOPY PUSH1 0x0 RETURN INVALID PUSH1 0x80 PUSH1 0x40 MSTORE CALLVALUE DUP1 ISZERO PUSH2 0x10 JUMPI PUSH1 0x0 DUP1 REVERT JUMPDEST POP PUSH1 0x4 CALLDATASIZE LT PUSH2 0x9E JUMPI PUSH1 0x0 CALLDATALOAD PUSH1 0xE0 SHR DUP1 PUSH4 0xA6C3E6B9 GT PUSH2 0x66 JUMPI DUP1 PUSH4 0xA6C3E6B9 EQ PUSH2 0x126 JUMPI DUP1 PUSH4 0xC5FE6FFC EQ PUSH2 0x144 JUMPI DUP1 PUSH4 0xC623674F EQ PUSH2 0x174 JUMPI DUP1 PUSH4 0xE5A0AF3D EQ PUSH2 0x192 JUMPI DUP1 PUSH4 0xED777791 EQ PUSH2 0x1B0 JUMPI PUSH2 0x9E JUMP JUMPDEST DUP1 PUSH4 0x4051DDAC EQ PUSH2 0xA3 JUMPI DUP1 PUSH4 0x46C922D1 EQ PUSH2 0xC6 JUMPI DUP1 PUSH4 0x8758CE83 EQ PUSH2 0xE4 JUMPI DUP1 PUSH4 0x988E46C8 EQ PUSH2 0x100 JUMPI DUP1 PUSH4 0xA523B88A EQ PUSH2 0x11C JUMPI JUMPDEST PUSH1 0x0 DUP1 REVERT JUMPDEST PUSH2 0xAB PUSH2 0x1E0 JUMP JUMPDEST PUSH1 0x40 MLOAD PUSH2 0xBD SWAP7 SWAP6 SWAP5 SWAP4 SWAP3 SWAP2 SWAP1 PUSH2 0xA3E JUMP JUMPDEST PUSH1 0x40 MLOAD DUP1 SWAP2 SUB SWAP1 RETURN JUMPDEST PUSH2 0xCE PUSH2 0x3E8 JUMP JUMPDEST PUSH1 0x40 MLOAD PUSH2 0xDB SWAP2 SWAP1 PUSH2 0xAB4 JUMP JUMPDEST PUSH1 0x40 MLOAD DUP1 SWAP2 SUB SWAP1 RETURN JUMPDEST PUSH2 0xFE PUSH1 0x4 DUP1 CALLDATASIZE SUB DUP2 ADD SWAP1 PUSH2 0xF9 SWAP2 SWAP1 PUSH2 0xB00 JUMP JUMPDEST PUSH2 0x40C JUMP JUMPDEST STOP JUMPDEST PUSH2 0x11A PUSH1 0x4 DUP1 CALLDATASIZE SUB DUP2 ADD SWAP1 PUSH2 0x115 SWAP2 SWAP1 PUSH2 0xB00 JUMP JUMPDEST PUSH2 0x500 JUMP JUMPDEST STOP JUMPDEST PUSH2 0x124 PUSH2 0x5F4 JUMP JUMPDEST STOP JUMPDEST PUSH2 0x12E PUSH2 0x6F7 JUMP JUMPDEST PUSH1 0x40 MLOAD PUSH2 0x13B SWAP2 SWAP1 PUSH2 0xAB4 JUMP JUMPDEST PUSH1 0x40 MLOAD DUP1 SWAP2 SUB SWAP1 RETURN JUMPDEST PUSH2 0x15E PUSH1 0x4 DUP1 CALLDATASIZE SUB DUP2 ADD SWAP1 PUSH2 0x159 SWAP2 SWAP1 PUSH2 0xB59 JUMP JUMPDEST PUSH2 0x71D JUMP JUMPDEST PUSH1 0x40 MLOAD PUSH2 0x16B SWAP2 SWAP1 PUSH2 0xAB4 JUMP JUMPDEST PUSH1 0x40 MLOAD DUP1 SWAP2 SUB SWAP1 RETURN JUMPDEST PUSH2 0x17C PUSH2 0x75C JUMP JUMPDEST PUSH1 0x40 MLOAD PUSH2 0x189 SWAP2 SWAP1 PUSH2 0xB86 JUMP JUMPDEST PUSH1 0x40 MLOAD DUP1 SWAP2 SUB SWAP1 RETURN JUMPDEST PUSH2 0x19A PUSH2 0x7EA JUMP JUMPDEST PUSH1 0x40 MLOAD PUSH2 0x1A7 SWAP2 SWAP1 PUSH2 0xBA8 JUMP JUMPDEST PUSH1 0x40 MLOAD DUP1 SWAP2 SUB SWAP1 RETURN JUMPDEST PUSH2 0x1CA PUSH1 0x4 DUP1 CALLDATASIZE SUB DUP2 ADD SWAP1 PUSH2 0x1C5 SWAP2 SWAP1 PUSH2 0xB59 JUMP JUMPDEST PUSH2 0x7F0 JUMP JUMPDEST PUSH1 0x40 MLOAD PUSH2 0x1D7 SWAP2 SWAP1 PUSH2 0xAB4 JUMP JUMPDEST PUSH1 0x40 MLOAD DUP1 SWAP2 SUB SWAP1 RETURN JUMPDEST PUSH1 0x0 DUP1 PUSH1 0x60 DUP1 PUSH1 0x60 PUSH1 0x0 DUP1 PUSH1 0x0 SWAP1 SLOAD SWAP1 PUSH2 0x100 EXP SWAP1 DIV PUSH20 0xFFFFFFFFFFFFFFFFFFFFFFFFFFFFFFFFFFFFFFFF AND PUSH1 0x1 PUSH1 0x0 SWAP1 SLOAD SWAP1 PUSH2 0x100 EXP SWAP1 DIV PUSH20 0xFFFFFFFFFFFFFFFFFFFFFFFFFFFFFFFFFFFFFFFF AND PUSH1 0x2 PUSH1 0x3 PUSH1 0x4 PUSH1 0x6 SLOAD DUP4 DUP1 SLOAD PUSH2 0x244 SWAP1 PUSH2 0xBF2 JUMP JUMPDEST DUP1 PUSH1 0x1F ADD PUSH1 0x20 DUP1 SWAP2 DIV MUL PUSH1 0x20 ADD PUSH1 0x40 MLOAD SWAP1 DUP2 ADD PUSH1 0x40 MSTORE DUP1 SWAP3 SWAP2 SWAP1 DUP2 DUP2 MSTORE PUSH1 0x20 ADD DUP3 DUP1 SLOAD PUSH2 0x270 SWAP1 PUSH2 0xBF2 JUMP JUMPDEST DUP1 ISZERO PUSH2 0x2BD JUMPI DUP1 PUSH1 0x1F LT PUSH2 0x292 JUMPI PUSH2 0x100 DUP1 DUP4 SLOAD DIV MUL DUP4 MSTORE SWAP2 PUSH1 0x20 ADD SWAP2 PUSH2 0x2BD JUMP JUMPDEST DUP3 ADD SWAP2 SWAP1 PUSH1 0x0 MSTORE PUSH1 0x20 PUSH1 0x0 KECCAK256 SWAP1 JUMPDEST DUP2 SLOAD DUP2 MSTORE SWAP1 PUSH1 0x1 ADD SWAP1 PUSH1 0x20 ADD DUP1 DUP4 GT PUSH2 0x2A0 JUMPI DUP3 SWAP1 SUB PUSH1 0x1F AND DUP3 ADD SWAP2 JUMPDEST POP POP POP POP POP SWAP4 POP DUP3 DUP1 SLOAD DUP1 PUSH1 0x20 MUL PUSH1 0x20 ADD PUSH1 0x40 MLOAD SWAP1 DUP2 ADD PUSH1 0x40 MSTORE DUP1 SWAP3 SWAP2 SWAP1 DUP2 DUP2 MSTORE PUSH1 0x20 ADD DUP3 DUP1 SLOAD DUP1 ISZERO PUSH2 0x345 JUMPI PUSH1 0x20 MUL DUP3 ADD SWAP2 SWAP1 PUSH1 0x0 MSTORE PUSH1 0x20 PUSH1 0x0 KECCAK256 SWAP1 JUMPDEST DUP2 PUSH1 0x0 SWAP1 SLOAD SWAP1 PUSH2 0x100 EXP SWAP1 DIV PUSH20 0xFFFFFFFFFFFFFFFFFFFFFFFFFFFFFFFFFFFFFFFF AND PUSH20 0xFFFFFFFFFFFFFFFFFFFFFFFFFFFFFFFFFFFFFFFF AND DUP2 MSTORE PUSH1 0x20 ADD SWAP1 PUSH1 0x1 ADD SWAP1 DUP1 DUP4 GT PUSH2 0x2FB JUMPI JUMPDEST POP POP POP POP POP SWAP3 POP DUP2 DUP1 SLOAD DUP1 PUSH1 0x20 MUL PUSH1 0x20 ADD PUSH1 0x40 MLOAD SWAP1 DUP2 ADD PUSH1 0x40 MSTORE DUP1 SWAP3 SWAP2 SWAP1 DUP2 DUP2 MSTORE PUSH1 0x20 ADD DUP3 DUP1 SLOAD DUP1 ISZERO PUSH2 0x3CD JUMPI PUSH1 0x20 MUL DUP3 ADD SWAP2 SWAP1 PUSH1 0x0 MSTORE PUSH1 0x20 PUSH1 0x0 KECCAK256 SWAP1 JUMPDEST DUP2 PUSH1 0x0 SWAP1 SLOAD SWAP1 PUSH2 0x100 EXP SWAP1 DIV PUSH20 0xFFFFFFFFFFFFFFFFFFFFFFFFFFFFFFFFFFFFFFFF AND PUSH20 0xFFFFFFFFFFFFFFFFFFFFFFFFFFFFFFFFFFFFFFFF AND DUP2 MSTORE PUSH1 0x20 ADD SWAP1 PUSH1 0x1 ADD SWAP1 DUP1 DUP4 GT PUSH2 0x383 JUMPI JUMPDEST POP POP POP POP POP SWAP2 POP SWAP6 POP SWAP6 POP SWAP6 POP SWAP6 POP SWAP6 POP SWAP6 POP SWAP1 SWAP2 SWAP3 SWAP4 SWAP5 SWAP6 JUMP JUMPDEST PUSH1 0x0 DUP1 SLOAD SWAP1 PUSH2 0x100 EXP SWAP1 DIV PUSH20 0xFFFFFFFFFFFFFFFFFFFFFFFFFFFFFFFFFFFFFFFF AND DUP2 JUMP JUMPDEST PUSH1 0x0 DUP1 SLOAD SWAP1 PUSH2 0x100 EXP SWAP1 DIV PUSH20 0xFFFFFFFFFFFFFFFFFFFFFFFFFFFFFFFFFFFFFFFF AND PUSH20 0xFFFFFFFFFFFFFFFFFFFFFFFFFFFFFFFFFFFFFFFF AND CALLER PUSH20 0xFFFFFFFFFFFFFFFFFFFFFFFFFFFFFFFFFFFFFFFF AND EQ PUSH2 0x49A JUMPI PUSH1 0x40 MLOAD PUSH32 0x8C379A000000000000000000000000000000000000000000000000000000000 DUP2 MSTORE PUSH1 0x4 ADD PUSH2 0x491 SWAP1 PUSH2 0xCBC JUMP JUMPDEST PUSH1 0x40 MLOAD DUP1 SWAP2 SUB SWAP1 REVERT JUMPDEST PUSH1 0x3 DUP2 SWAP1 DUP1 PUSH1 0x1 DUP2 SLOAD ADD DUP1 DUP3 SSTORE DUP1 SWAP2 POP POP PUSH1 0x1 SWAP1 SUB SWAP1 PUSH1 0x0 MSTORE PUSH1 0x20 PUSH1 0x0 KECCAK256 ADD PUSH1 0x0 SWAP1 SWAP2 SWAP1 SWAP2 SWAP1 SWAP2 PUSH2 0x100 EXP DUP2 SLOAD DUP2 PUSH20 0xFFFFFFFFFFFFFFFFFFFFFFFFFFFFFFFFFFFFFFFF MUL NOT AND SWAP1 DUP4 PUSH20 0xFFFFFFFFFFFFFFFFFFFFFFFFFFFFFFFFFFFFFFFF AND MUL OR SWAP1 SSTORE POP POP JUMP JUMPDEST PUSH1 0x0 DUP1 SLOAD SWAP1 PUSH2 0x100 EXP SWAP1 DIV PUSH20 0xFFFFFFFFFFFFFFFFFFFFFFFFFFFFFFFFFFFFFFFF AND PUSH20 0xFFFFFFFFFFFFFFFFFFFFFFFFFFFFFFFFFFFFFFFF AND CALLER PUSH20 0xFFFFFFFFFFFFFFFFFFFFFFFFFFFFFFFFFFFFFFFF AND EQ PUSH2 0x58E JUMPI PUSH1 0x40 MLOAD PUSH32 0x8C379A000000000000000000000000000000000000000000000000000000000 DUP2 MSTORE PUSH1 0x4 ADD PUSH2 0x585 SWAP1 PUSH2 0xCBC JUMP JUMPDEST PUSH1 0x40 MLOAD DUP1 SWAP2 SUB SWAP1 REVERT JUMPDEST PUSH1 0x4 DUP2 SWAP1 DUP1 PUSH1 0x1 DUP2 SLOAD ADD DUP1 DUP3 SSTORE DUP1 SWAP2 POP POP PUSH1 0x1 SWAP1 SUB SWAP1 PUSH1 0x0 MSTORE PUSH1 0x20 PUSH1 0x0 KECCAK256 ADD PUSH1 0x0 SWAP1 SWAP2 SWAP1 SWAP2 SWAP1 SWAP2 PUSH2 0x100 EXP DUP2 SLOAD DUP2 PUSH20 0xFFFFFFFFFFFFFFFFFFFFFFFFFFFFFFFFFFFFFFFF MUL NOT AND SWAP1 DUP4 PUSH20 0xFFFFFFFFFFFFFFFFFFFFFFFFFFFFFFFFFFFFFFFF AND MUL OR SWAP1 SSTORE POP POP JUMP JUMPDEST PUSH1 0x5 PUSH1 0x0 CALLER PUSH20 0xFFFFFFFFFFFFFFFFFFFFFFFFFFFFFFFFFFFFFFFF AND PUSH20 0xFFFFFFFFFFFFFFFFFFFFFFFFFFFFFFFFFFFFFFFF AND DUP2 MSTORE PUSH1 0x20 ADD SWAP1 DUP2 MSTORE PUSH1 0x20 ADD PUSH1 0x0 KECCAK256 PUSH1 0x0 SWAP1 SLOAD SWAP1 PUSH2 0x100 EXP SWAP1 DIV PUSH1 0xFF AND ISZERO PUSH2 0x681 JUMPI PUSH1 0x40 MLOAD PUSH32 0x8C379A000000000000000000000000000000000000000000000000000000000 DUP2 MSTORE PUSH1 0x4 ADD PUSH2 0x678 SWAP1 PUSH2 0xD28 JUMP JUMPDEST PUSH1 0x40 MLOAD DUP1 SWAP2 SUB SWAP1 REVERT JUMPDEST PUSH1 0x1 PUSH1 0x5 PUSH1 0x0 CALLER PUSH20 0xFFFFFFFFFFFFFFFFFFFFFFFFFFFFFFFFFFFFFFFF AND PUSH20 0xFFFFFFFFFFFFFFFFFFFFFFFFFFFFFFFFFFFFFFFF AND DUP2 MSTORE PUSH1 0x20 ADD SWAP1 DUP2 MSTORE PUSH1 0x20 ADD PUSH1 0x0 KECCAK256 PUSH1 0x0 PUSH2 0x100 EXP DUP2 SLOAD DUP2 PUSH1 0xFF MUL NOT AND SWAP1 DUP4 ISZERO ISZERO MUL OR SWAP1 SSTORE POP PUSH2 0x6EF PUSH1 0x1 PUSH1 0x6 SLOAD PUSH2 0x82F SWAP1 SWAP2 SWAP1 PUSH4 0xFFFFFFFF AND JUMP JUMPDEST PUSH1 0x6 DUP2 SWAP1 SSTORE POP JUMP JUMPDEST PUSH1 0x1 PUSH1 0x0 SWAP1 SLOAD SWAP1 PUSH2 0x100 EXP SWAP1 DIV PUSH20 0xFFFFFFFFFFFFFFFFFFFFFFFFFFFFFFFFFFFFFFFF AND DUP2 JUMP JUMPDEST PUSH1 0x4 DUP2 DUP2 SLOAD DUP2 LT PUSH2 0x72D JUMPI PUSH1 0x0 DUP1 REVERT JUMPDEST SWAP1 PUSH1 0x0 MSTORE PUSH1 0x20 PUSH1 0x0 KECCAK256 ADD PUSH1 0x0 SWAP2 POP SLOAD SWAP1 PUSH2 0x100 EXP SWAP1 DIV PUSH20 0xFFFFFFFFFFFFFFFFFFFFFFFFFFFFFFFFFFFFFFFF AND DUP2 JUMP JUMPDEST PUSH1 0x2 DUP1 SLOAD PUSH2 0x769 SWAP1 PUSH2 0xBF2 JUMP JUMPDEST DUP1 PUSH1 0x1F ADD PUSH1 0x20 DUP1 SWAP2 DIV MUL PUSH1 0x20 ADD PUSH1 0x40 MLOAD SWAP1 DUP2 ADD PUSH1 0x40 MSTORE DUP1 SWAP3 SWAP2 SWAP1 DUP2 DUP2 MSTORE PUSH1 0x20 ADD DUP3 DUP1 SLOAD PUSH2 0x795 SWAP1 PUSH2 0xBF2 JUMP JUMPDEST DUP1 ISZERO PUSH2 0x7E2 JUMPI DUP1 PUSH1 0x1F LT PUSH2 0x7B7 JUMPI PUSH2 0x100 DUP1 DUP4 SLOAD DIV MUL DUP4 MSTORE SWAP2 PUSH1 0x20 ADD SWAP2 PUSH2 0x7E2 JUMP JUMPDEST DUP3 ADD SWAP2 SWAP1 PUSH1 0x0 MSTORE PUSH1 0x20 PUSH1 0x0 KECCAK256 SWAP1 JUMPDEST DUP2 SLOAD DUP2 MSTORE SWAP1 PUSH1 0x1 ADD SWAP1 PUSH1 0x20 ADD DUP1 DUP4 GT PUSH2 0x7C5 JUMPI DUP3 SWAP1 SUB PUSH1 0x1F AND DUP3 ADD SWAP2 JUMPDEST POP POP POP POP POP DUP2 JUMP JUMPDEST PUSH1 0x6 SLOAD DUP2 JUMP JUMPDEST PUSH1 0x3 DUP2 DUP2 SLOAD DUP2 LT PUSH2 0x800 JUMPI PUSH1 0x0 DUP1 REVERT JUMPDEST SWAP1 PUSH1 0x0 MSTORE PUSH1 0x20 PUSH1 0x0 KECCAK256 ADD PUSH1 0x0 SWAP2 POP SLOAD SWAP1 PUSH2 0x100 EXP SWAP1 DIV PUSH20 0xFFFFFFFFFFFFFFFFFFFFFFFFFFFFFFFFFFFFFFFF AND DUP2 JUMP JUMPDEST PUSH1 0x0 DUP1 DUP3 DUP5 PUSH2 0x83E SWAP2 SWAP1 PUSH2 0xD77 JUMP JUMPDEST SWAP1 POP DUP4 DUP2 LT ISZERO PUSH2 0x883 JUMPI PUSH1 0x40 MLOAD PUSH32 0x8C379A000000000000000000000000000000000000000000000000000000000 DUP2 MSTORE PUSH1 0x4 ADD PUSH2 0x87A SWAP1 PUSH2 0xE19 JUMP JUMPDEST PUSH1 0x40 MLOAD DUP1 SWAP2 SUB SWAP1 REVERT JUMPDEST DUP1 SWAP2 POP POP SWAP3 SWAP2 POP POP JUMP JUMPDEST PUSH1 0x0 PUSH20 0xFFFFFFFFFFFFFFFFFFFFFFFFFFFFFFFFFFFFFFFF DUP3 AND SWAP1 POP SWAP2 SWAP1 POP JUMP JUMPDEST PUSH1 0x0 PUSH2 0x8B8 DUP3 PUSH2 0x88D JUMP JUMPDEST SWAP1 POP SWAP2 SWAP1 POP JUMP JUMPDEST PUSH2 0x8C8 DUP2 PUSH2 0x8AD JUMP JUMPDEST DUP3 MSTORE POP POP JUMP JUMPDEST PUSH1 0x0 DUP2 MLOAD SWAP1 POP SWAP2 SWAP1 POP JUMP JUMPDEST PUSH1 0x0 DUP3 DUP3 MSTORE PUSH1 0x20 DUP3 ADD SWAP1 POP SWAP3 SWAP2 POP POP JUMP JUMPDEST PUSH1 0x0 JUMPDEST DUP4 DUP2 LT ISZERO PUSH2 0x908 JUMPI DUP1 DUP3 ADD MLOAD DUP2 DUP5 ADD MSTORE PUSH1 0x20 DUP2 ADD SWAP1 POP PUSH2 0x8ED JUMP JUMPDEST DUP4 DUP2 GT ISZERO PUSH2 0x917 JUMPI PUSH1 0x0 DUP5 DUP5 ADD MSTORE JUMPDEST POP POP POP POP JUMP JUMPDEST PUSH1 0x0 PUSH1 0x1F NOT PUSH1 0x1F DUP4 ADD AND SWAP1 POP SWAP2 SWAP1 POP JUMP JUMPDEST PUSH1 0x0 PUSH2 0x939 DUP3 PUSH2 0x8CE JUMP JUMPDEST PUSH2 0x943 DUP2 DUP6 PUSH2 0x8D9 JUMP JUMPDEST SWAP4 POP PUSH2 0x953 DUP2 DUP6 PUSH1 0x20 DUP7 ADD PUSH2 0x8EA JUMP JUMPDEST PUSH2 0x95C DUP2 PUSH2 0x91D JUMP JUMPDEST DUP5 ADD SWAP2 POP POP SWAP3 SWAP2 POP POP JUMP JUMPDEST PUSH1 0x0 DUP2 MLOAD SWAP1 POP SWAP2 SWAP1 POP JUMP JUMPDEST PUSH1 0x0 DUP3 DUP3 MSTORE PUSH1 0x20 DUP3 ADD SWAP1 POP SWAP3 SWAP2 POP POP JUMP JUMPDEST PUSH1 0x0 DUP2 SWAP1 POP PUSH1 0x20 DUP3 ADD SWAP1 POP SWAP2 SWAP1 POP JUMP JUMPDEST PUSH2 0x99C DUP2 PUSH2 0x8AD JUMP JUMPDEST DUP3 MSTORE POP POP JUMP JUMPDEST PUSH1 0x0 PUSH2 0x9AE DUP4 DUP4 PUSH2 0x993 JUMP JUMPDEST PUSH1 0x20 DUP4 ADD SWAP1 POP SWAP3 SWAP2 POP POP JUMP JUMPDEST PUSH1 0x0 PUSH1 0x20 DUP3 ADD SWAP1 POP SWAP2 SWAP1 POP JUMP JUMPDEST PUSH1 0x0 PUSH2 0x9D2 DUP3 PUSH2 0x967 JUMP JUMPDEST PUSH2 0x9DC DUP2 DUP6 PUSH2 0x972 JUMP JUMPDEST SWAP4 POP PUSH2 0x9E7 DUP4 PUSH2 0x983 JUMP JUMPDEST DUP1 PUSH1 0x0 JUMPDEST DUP4 DUP2 LT ISZERO PUSH2 0xA18 JUMPI DUP2 MLOAD PUSH2 0x9FF DUP9 DUP3 PUSH2 0x9A2 JUMP JUMPDEST SWAP8 POP PUSH2 0xA0A DUP4 PUSH2 0x9BA JUMP JUMPDEST SWAP3 POP POP PUSH1 0x1 DUP2 ADD SWAP1 POP PUSH2 0x9EB JUMP JUMPDEST POP DUP6 SWAP4 POP POP POP POP SWAP3 SWAP2 POP POP JUMP JUMPDEST PUSH1 0x0 DUP2 SWAP1 POP SWAP2 SWAP1 POP JUMP JUMPDEST PUSH2 0xA38 DUP2 PUSH2 0xA25 JUMP JUMPDEST DUP3 MSTORE POP POP JUMP JUMPDEST PUSH1 0x0 PUSH1 0xC0 DUP3 ADD SWAP1 POP PUSH2 0xA53 PUSH1 0x0 DUP4 ADD DUP10 PUSH2 0x8BF JUMP JUMPDEST PUSH2 0xA60 PUSH1 0x20 DUP4 ADD DUP9 PUSH2 0x8BF JUMP JUMPDEST DUP2 DUP2 SUB PUSH1 0x40 DUP4 ADD MSTORE PUSH2 0xA72 DUP2 DUP8 PUSH2 0x92E JUMP JUMPDEST SWAP1 POP DUP2 DUP2 SUB PUSH1 0x60 DUP4 ADD MSTORE PUSH2 0xA86 DUP2 DUP7 PUSH2 0x9C7 JUMP JUMPDEST SWAP1 POP DUP2 DUP2 SUB PUSH1 0x80 DUP4 ADD MSTORE PUSH2 0xA9A DUP2 DUP6 PUSH2 0x9C7 JUMP JUMPDEST SWAP1 POP PUSH2 0xAA9 PUSH1 0xA0 DUP4 ADD DUP5 PUSH2 0xA2F JUMP JUMPDEST SWAP8 SWAP7 POP POP POP POP POP POP POP JUMP JUMPDEST PUSH1 0x0 PUSH1 0x20 DUP3 ADD SWAP1 POP PUSH2 0xAC9 PUSH1 0x0 DUP4 ADD DUP5 PUSH2 0x8BF JUMP JUMPDEST SWAP3 SWAP2 POP POP JUMP JUMPDEST PUSH1 0x0 DUP1 REVERT JUMPDEST PUSH2 0xADD DUP2 PUSH2 0x8AD JUMP JUMPDEST DUP2 EQ PUSH2 0xAE8 JUMPI PUSH1 0x0 DUP1 REVERT JUMPDEST POP JUMP JUMPDEST PUSH1 0x0 DUP2 CALLDATALOAD SWAP1 POP PUSH2 0xAFA DUP2 PUSH2 0xAD4 JUMP JUMPDEST SWAP3 SWAP2 POP POP JUMP JUMPDEST PUSH1 0x0 PUSH1 0x20 DUP3 DUP5 SUB SLT ISZERO PUSH2 0xB16 JUMPI PUSH2 0xB15 PUSH2 0xACF JUMP JUMPDEST JUMPDEST PUSH1 0x0 PUSH2 0xB24 DUP5 DUP3 DUP6 ADD PUSH2 0xAEB JUMP JUMPDEST SWAP2 POP POP SWAP3 SWAP2 POP POP JUMP JUMPDEST PUSH2 0xB36 DUP2 PUSH2 0xA25 JUMP JUMPDEST DUP2 EQ PUSH2 0xB41 JUMPI PUSH1 0x0 DUP1 REVERT JUMPDEST POP JUMP JUMPDEST PUSH1 0x0 DUP2 CALLDATALOAD SWAP1 POP PUSH2 0xB53 DUP2 PUSH2 0xB2D JUMP JUMPDEST SWAP3 SWAP2 POP POP JUMP JUMPDEST PUSH1 0x0 PUSH1 0x20 DUP3 DUP5 SUB SLT ISZERO PUSH2 0xB6F JUMPI PUSH2 0xB6E PUSH2 0xACF JUMP JUMPDEST JUMPDEST PUSH1 0x0 PUSH2 0xB7D DUP5 DUP3 DUP6 ADD PUSH2 0xB44 JUMP JUMPDEST SWAP2 POP POP SWAP3 SWAP2 POP POP JUMP JUMPDEST PUSH1 0x0 PUSH1 0x20 DUP3 ADD SWAP1 POP DUP2 DUP2 SUB PUSH1 0x0 DUP4 ADD MSTORE PUSH2 0xBA0 DUP2 DUP5 PUSH2 0x92E JUMP JUMPDEST SWAP1 POP SWAP3 SWAP2 POP POP JUMP JUMPDEST PUSH1 0x0 PUSH1 0x20 DUP3 ADD SWAP1 POP PUSH2 0xBBD PUSH1 0x0 DUP4 ADD DUP5 PUSH2 0xA2F JUMP JUMPDEST SWAP3 SWAP2 POP POP JUMP JUMPDEST PUSH32 0x4E487B7100000000000000000000000000000000000000000000000000000000 PUSH1 0x0 MSTORE PUSH1 0x22 PUSH1 0x4 MSTORE PUSH1 0x24 PUSH1 0x0 REVERT JUMPDEST PUSH1 0x0 PUSH1 0x2 DUP3 DIV SWAP1 POP PUSH1 0x1 DUP3 AND DUP1 PUSH2 0xC0A JUMPI PUSH1 0x7F DUP3 AND SWAP2 POP JUMPDEST PUSH1 0x20 DUP3 LT DUP2 EQ ISZERO PUSH2 0xC1E JUMPI PUSH2 0xC1D PUSH2 0xBC3 JUMP JUMPDEST JUMPDEST POP SWAP2 SWAP1 POP JUMP JUMPDEST PUSH32 0x546869732066756E6374696F6E2068617320746F2062652063616C6C65642066 PUSH1 0x0 DUP3 ADD MSTORE PUSH32 0x726F6D207468652073746F727920636F6E747261637420627920616E20616363 PUSH1 0x20 DUP3 ADD MSTORE PUSH32 0x657074656420617574686F72206F6E6C79000000000000000000000000000000 PUSH1 0x40 DUP3 ADD MSTORE POP JUMP JUMPDEST PUSH1 0x0 PUSH2 0xCA6 PUSH1 0x51 DUP4 PUSH2 0x8D9 JUMP JUMPDEST SWAP2 POP PUSH2 0xCB1 DUP3 PUSH2 0xC24 JUMP JUMPDEST PUSH1 0x60 DUP3 ADD SWAP1 POP SWAP2 SWAP1 POP JUMP JUMPDEST PUSH1 0x0 PUSH1 0x20 DUP3 ADD SWAP1 POP DUP2 DUP2 SUB PUSH1 0x0 DUP4 ADD MSTORE PUSH2 0xCD5 DUP2 PUSH2 0xC99 JUMP JUMPDEST SWAP1 POP SWAP2 SWAP1 POP JUMP JUMPDEST PUSH32 0x596F75206C696B656420746869732073746F7279206265666F72650000000000 PUSH1 0x0 DUP3 ADD MSTORE POP JUMP JUMPDEST PUSH1 0x0 PUSH2 0xD12 PUSH1 0x1B DUP4 PUSH2 0x8D9 JUMP JUMPDEST SWAP2 POP PUSH2 0xD1D DUP3 PUSH2 0xCDC JUMP JUMPDEST PUSH1 0x20 DUP3 ADD SWAP1 POP SWAP2 SWAP1 POP JUMP JUMPDEST PUSH1 0x0 PUSH1 0x20 DUP3 ADD SWAP1 POP DUP2 DUP2 SUB PUSH1 0x0 DUP4 ADD MSTORE PUSH2 0xD41 DUP2 PUSH2 0xD05 JUMP JUMPDEST SWAP1 POP SWAP2 SWAP1 POP JUMP JUMPDEST PUSH32 0x4E487B7100000000000000000000000000000000000000000000000000000000 PUSH1 0x0 MSTORE PUSH1 0x11 PUSH1 0x4 MSTORE PUSH1 0x24 PUSH1 0x0 REVERT JUMPDEST PUSH1 0x0 PUSH2 0xD82 DUP3 PUSH2 0xA25 JUMP JUMPDEST SWAP2 POP PUSH2 0xD8D DUP4 PUSH2 0xA25 JUMP JUMPDEST SWAP3 POP DUP3 PUSH32 0xFFFFFFFFFFFFFFFFFFFFFFFFFFFFFFFFFFFFFFFFFFFFFFFFFFFFFFFFFFFFFFFF SUB DUP3 GT ISZERO PUSH2 0xDC2 JUMPI PUSH2 0xDC1 PUSH2 0xD48 JUMP JUMPDEST JUMPDEST DUP3 DUP3 ADD SWAP1 POP SWAP3 SWAP2 POP POP JUMP JUMPDEST PUSH32 0x536166654D6174683A206164646974696F6E206F766572666C6F770000000000 PUSH1 0x0 DUP3 ADD MSTORE POP JUMP JUMPDEST PUSH1 0x0 PUSH2 0xE03 PUSH1 0x1B DUP4 PUSH2 0x8D9 JUMP JUMPDEST SWAP2 POP PUSH2 0xE0E DUP3 PUSH2 0xDCD JUMP JUMPDEST PUSH1 0x20 DUP3 ADD SWAP1 POP SWAP2 SWAP1 POP JUMP JUMPDEST PUSH1 0x0 PUSH1 0x20 DUP3 ADD SWAP1 POP DUP2 DUP2 SUB PUSH1 0x0 DUP4 ADD MSTORE PUSH2 0xE32 DUP2 PUSH2 0xDF6 JUMP JUMPDEST SWAP1 POP SWAP2 SWAP1 POP JUMP INVALID LOG2 PUSH5 0x6970667358 0x22 SLT KECCAK256 ADDRESS 0x28 LOG4 0xAE 0xC6 0xC7 GASLIMIT CHAINID 0xE7 0xEB 0x26 0x4D SWAP12 0xF 0xE9 0xB5 DUP3 SWAP15 0xD5 DELEGATECALL 0x4D 0xCB LT SUB 0x2D 0xCF PUSH16 0x78A276AF9664736F6C63430008090033 "},"gasEstimates":{"creation":{"codeDepositCost":"739000","executionCost":"infinite","totalCost":"infinite"},"external":{"author()":"2514","getSummary()":"infinite","ipfsHash()":"infinite","like()":"infinite","likeCount()":"2495","linkChildChapter(address)":"51268","linkParentChapter(address)":"51246","linkedChildChapters(uint256)":"4978","linkedParentChapters(uint256)":"5044","story()":"2534"}},"methodIdentifiers":{"author()":"a6c3e6b9","getSummary()":"4051ddac","ipfsHash()":"c623674f","like()":"a523b88a","likeCount()":"e5a0af3d","linkChildChapter(address)":"988e46c8","linkParentChapter(address)":"8758ce83","linkedChildChapters(uint256)":"c5fe6ffc","linkedParentChapters(uint256)":"ed777791","story()":"46c922d1"}},"storageLayout":{"storage":[{"astId":912,"contract":"Story.sol:Chapter","label":"story","offset":0,"slot":"0","type":"t_address"},{"astId":914,"contract":"Story.sol:Chapter","label":"author","offset":0,"slot":"1","type":"t_address"},{"astId":916,"contract":"Story.sol:Chapter","label":"ipfsHash","offset":0,"slot":"2","type":"t_string_storage"},{"astId":919,"contract":"Story.sol:Chapter","label":"linkedParentChapters","offset":0,"slot":"3","type":"t_array(t_address)dyn_storage"},{"astId":922,"contract":"Story.sol:Chapter","label":"linkedChildChapters","offset":0,"slot":"4","type":"t_array(t_address)dyn_storage"},{"astId":926,"contract":"Story.sol:Chapter","label":"likers","offset":0,"slot":"5","type":"t_mapping(t_address,t_bool)"},{"astId":928,"contract":"Story.sol:Chapter","label":"likeCount","offset":0,"slot":"6","type":"t_uint256"}],"types":{"t_address":{"encoding":"inplace","label":"address","numberOfBytes":"20"},"t_array(t_address)dyn_storage":{"base":"t_address","encoding":"dynamic_array","label":"address[]","numberOfBytes":"32"},"t_bool":{"encoding":"inplace","label":"bool","numberOfBytes":"1"},"t_mapping(t_address,t_bool)":{"encoding":"mapping","key":"t_address","label":"mapping(address => bool)","numberOfBytes":"32","value":"t_bool"},"t_string_storage":{"encoding":"bytes","label":"string","numberOfBytes":"32"},"t_uint256":{"encoding":"inplace","label":"uint256","numberOfBytes":"32"}}},"userdoc":{"kind":"user","methods":{},"version":1}}