{"abi":[{"inputs":[{"internalType":"address","name":"_author","type":"address"},{"internalType":"address","name":"_story","type":"address"},{"internalType":"string","name":"_title","type":"string"},{"internalType":"string","name":"_ipfsHash","type":"string"},{"internalType":"address","name":"parentChapter","type":"address"},{"internalType":"address","name":"childChapter","type":"address"}],"stateMutability":"nonpayable","type":"constructor"},{"inputs":[],"name":"author","outputs":[{"internalType":"address","name":"","type":"address"}],"stateMutability":"view","type":"function"},{"inputs":[],"name":"getSummary","outputs":[{"internalType":"address","name":"","type":"address"},{"internalType":"address","name":"","type":"address"},{"internalType":"string","name":"","type":"string"},{"internalType":"string","name":"","type":"string"},{"internalType":"address[]","name":"","type":"address[]"},{"internalType":"address[]","name":"","type":"address[]"},{"internalType":"uint256","name":"","type":"uint256"}],"stateMutability":"view","type":"function"},{"inputs":[],"name":"ipfsHash","outputs":[{"internalType":"string","name":"","type":"string"}],"stateMutability":"view","type":"function"},{"inputs":[],"name":"like","outputs":[],"stateMutability":"nonpayable","type":"function"},{"inputs":[],"name":"likeCount","outputs":[{"internalType":"uint256","name":"","type":"uint256"}],"stateMutability":"view","type":"function"},{"inputs":[{"internalType":"address","name":"childChapter","type":"address"}],"name":"linkChildChapter","outputs":[],"stateMutability":"nonpayable","type":"function"},{"inputs":[{"internalType":"address","name":"parentChapter","type":"address"}],"name":"linkParentChapter","outputs":[],"stateMutability":"nonpayable","type":"function"},{"inputs":[{"internalType":"uint256","name":"","type":"uint256"}],"name":"linkedChildChapters","outputs":[{"internalType":"address","name":"","type":"address"}],"stateMutability":"view","type":"function"},{"inputs":[{"internalType":"uint256","name":"","type":"uint256"}],"name":"linkedParentChapters","outputs":[{"internalType":"address","name":"","type":"address"}],"stateMutability":"view","type":"function"},{"inputs":[],"name":"story","outputs":[{"internalType":"address","name":"","type":"address"}],"stateMutability":"view","type":"function"},{"inputs":[],"name":"title","outputs":[{"internalType":"string","name":"","type":"string"}],"stateMutability":"view","type":"function"}],"devdoc":{"kind":"dev","methods":{},"version":1},"evm":{"assembly":"    /* \"Story.sol\":7791:9644  contract Chapter {... */\n  mstore(0x40, 0x80)\n    /* \"Story.sol\":8119:8586  constructor(address _author, address _story, string memory _title,  string memory _ipfsHash, address parentChapter, address childChapter) {... */\n  callvalue\n  dup1\n  iszero\n  tag_1\n  jumpi\n  0x00\n  dup1\n  revert\ntag_1:\n  pop\n  mload(0x40)\n  sub(codesize, bytecodeSize)\n  dup1\n  bytecodeSize\n  dup4\n  codecopy\n  dup2\n  dup2\n  add\n  0x40\n  mstore\n  dup2\n  add\n  swap1\n  tag_2\n  swap2\n  swap1\n  tag_3\n  jump\t// in\ntag_2:\n    /* \"Story.sol\":8277:8284  _author */\n  dup6\n    /* \"Story.sol\":8268:8274  author */\n  0x01\n  0x00\n    /* \"Story.sol\":8268:8284  author = _author */\n  0x0100\n  exp\n  dup2\n  sload\n  dup2\n  0xffffffffffffffffffffffffffffffffffffffff\n  mul\n  not\n  and\n  swap1\n  dup4\n  0xffffffffffffffffffffffffffffffffffffffff\n  and\n  mul\n  or\n  swap1\n  sstore\n  pop\n    /* \"Story.sol\":8303:8309  _story */\n  dup5\n    /* \"Story.sol\":8295:8300  story */\n  0x00\n  dup1\n    /* \"Story.sol\":8295:8309  story = _story */\n  0x0100\n  exp\n  dup2\n  sload\n  dup2\n  0xffffffffffffffffffffffffffffffffffffffff\n  mul\n  not\n  and\n  swap1\n  dup4\n  0xffffffffffffffffffffffffffffffffffffffff\n  and\n  mul\n  or\n  swap1\n  sstore\n  pop\n    /* \"Story.sol\":8331:8340  _ipfsHash */\n  dup3\n    /* \"Story.sol\":8320:8328  ipfsHash */\n  0x03\n    /* \"Story.sol\":8320:8340  ipfsHash = _ipfsHash */\n  swap1\n  dup1\n  mload\n  swap1\n  0x20\n  add\n  swap1\n  tag_6\n  swap3\n  swap2\n  swap1\n  tag_7\n  jump\t// in\ntag_6:\n  pop\n    /* \"Story.sol\":8359:8365  _title */\n  dup4\n    /* \"Story.sol\":8351:8356  title */\n  0x02\n    /* \"Story.sol\":8351:8365  title = _title */\n  swap1\n  dup1\n  mload\n  swap1\n  0x20\n  add\n  swap1\n  tag_8\n  swap3\n  swap2\n  swap1\n  tag_7\n  jump\t// in\ntag_8:\n  pop\n    /* \"Story.sol\":8404:8405  0 */\n  0x00\n    /* \"Story.sol\":8379:8406  parentChapter != address(0) */\n  0xffffffffffffffffffffffffffffffffffffffff\n  and\n    /* \"Story.sol\":8379:8392  parentChapter */\n  dup3\n    /* \"Story.sol\":8379:8406  parentChapter != address(0) */\n  0xffffffffffffffffffffffffffffffffffffffff\n  and\n  eq\n    /* \"Story.sol\":8376:8474  if(parentChapter != address(0)){... */\n  tag_9\n  jumpi\n    /* \"Story.sol\":8422:8442  linkedParentChapters */\n  0x04\n    /* \"Story.sol\":8448:8461  parentChapter */\n  dup3\n    /* \"Story.sol\":8422:8462  linkedParentChapters.push(parentChapter) */\n  swap1\n  dup1\n  0x01\n  dup2\n  sload\n  add\n  dup1\n  dup3\n  sstore\n  dup1\n  swap2\n  pop\n  pop\n  0x01\n  swap1\n  sub\n  swap1\n  0x00\n  mstore\n  keccak256(0x00, 0x20)\n  add\n  0x00\n  swap1\n  swap2\n  swap1\n  swap2\n  swap1\n  swap2\n  0x0100\n  exp\n  dup2\n  sload\n  dup2\n  0xffffffffffffffffffffffffffffffffffffffff\n  mul\n  not\n  and\n  swap1\n  dup4\n  0xffffffffffffffffffffffffffffffffffffffff\n  and\n  mul\n  or\n  swap1\n  sstore\n  pop\n    /* \"Story.sol\":8376:8474  if(parentChapter != address(0)){... */\ntag_9:\n    /* \"Story.sol\":8511:8512  0 */\n  0x00\n    /* \"Story.sol\":8487:8513  childChapter != address(0) */\n  0xffffffffffffffffffffffffffffffffffffffff\n  and\n    /* \"Story.sol\":8487:8499  childChapter */\n  dup2\n    /* \"Story.sol\":8487:8513  childChapter != address(0) */\n  0xffffffffffffffffffffffffffffffffffffffff\n  and\n  eq\n    /* \"Story.sol\":8484:8579  if(childChapter != address(0)){... */\n  tag_11\n  jumpi\n    /* \"Story.sol\":8529:8548  linkedChildChapters */\n  0x05\n    /* \"Story.sol\":8554:8566  childChapter */\n  dup2\n    /* \"Story.sol\":8529:8567  linkedChildChapters.push(childChapter) */\n  swap1\n  dup1\n  0x01\n  dup2\n  sload\n  add\n  dup1\n  dup3\n  sstore\n  dup1\n  swap2\n  pop\n  pop\n  0x01\n  swap1\n  sub\n  swap1\n  0x00\n  mstore\n  keccak256(0x00, 0x20)\n  add\n  0x00\n  swap1\n  swap2\n  swap1\n  swap2\n  swap1\n  swap2\n  0x0100\n  exp\n  dup2\n  sload\n  dup2\n  0xffffffffffffffffffffffffffffffffffffffff\n  mul\n  not\n  and\n  swap1\n  dup4\n  0xffffffffffffffffffffffffffffffffffffffff\n  and\n  mul\n  or\n  swap1\n  sstore\n  pop\n    /* \"Story.sol\":8484:8579  if(childChapter != address(0)){... */\ntag_11:\n    /* \"Story.sol\":8119:8586  constructor(address _author, address _story, string memory _title,  string memory _ipfsHash, address parentChapter, address childChapter) {... */\n  pop\n  pop\n  pop\n  pop\n  pop\n  pop\n    /* \"Story.sol\":7791:9644  contract Chapter {... */\n  jump(tag_13)\ntag_7:\n  dup3\n  dup1\n  sload\n  tag_14\n  swap1\n  tag_15\n  jump\t// in\ntag_14:\n  swap1\n  0x00\n  mstore\n  keccak256(0x00, 0x20)\n  swap1\n  0x1f\n  add\n  0x20\n  swap1\n  div\n  dup2\n  add\n  swap3\n  dup3\n  tag_17\n  jumpi\n  0x00\n  dup6\n  sstore\n  jump(tag_16)\ntag_17:\n  dup3\n  0x1f\n  lt\n  tag_18\n  jumpi\n  dup1\n  mload\n  not(0xff)\n  and\n  dup4\n  dup1\n  add\n  or\n  dup6\n  sstore\n  jump(tag_16)\ntag_18:\n  dup3\n  dup1\n  add\n  0x01\n  add\n  dup6\n  sstore\n  dup3\n  iszero\n  tag_16\n  jumpi\n  swap2\n  dup3\n  add\ntag_19:\n  dup3\n  dup2\n  gt\n  iszero\n  tag_20\n  jumpi\n  dup3\n  mload\n  dup3\n  sstore\n  swap2\n  0x20\n  add\n  swap2\n  swap1\n  0x01\n  add\n  swap1\n  jump(tag_19)\ntag_20:\ntag_16:\n  pop\n  swap1\n  pop\n  tag_21\n  swap2\n  swap1\n  tag_22\n  jump\t// in\ntag_21:\n  pop\n  swap1\n  jump\t// out\ntag_22:\ntag_23:\n  dup1\n  dup3\n  gt\n  iszero\n  tag_24\n  jumpi\n  0x00\n  dup2\n  0x00\n  swap1\n  sstore\n  pop\n  0x01\n  add\n  jump(tag_23)\ntag_24:\n  pop\n  swap1\n  jump\t// out\n    /* \"#utility.yul\":7:82   */\ntag_25:\n    /* \"#utility.yul\":40:46   */\n  0x00\n    /* \"#utility.yul\":73:75   */\n  0x40\n    /* \"#utility.yul\":67:76   */\n  mload\n    /* \"#utility.yul\":57:76   */\n  swap1\n  pop\n    /* \"#utility.yul\":7:82   */\n  swap1\n  jump\t// out\n    /* \"#utility.yul\":88:205   */\ntag_26:\n    /* \"#utility.yul\":197:198   */\n  0x00\n    /* \"#utility.yul\":194:195   */\n  dup1\n    /* \"#utility.yul\":187:199   */\n  revert\n    /* \"#utility.yul\":211:328   */\ntag_27:\n    /* \"#utility.yul\":320:321   */\n  0x00\n    /* \"#utility.yul\":317:318   */\n  dup1\n    /* \"#utility.yul\":310:322   */\n  revert\n    /* \"#utility.yul\":334:460   */\ntag_28:\n    /* \"#utility.yul\":371:378   */\n  0x00\n    /* \"#utility.yul\":411:453   */\n  0xffffffffffffffffffffffffffffffffffffffff\n    /* \"#utility.yul\":404:409   */\n  dup3\n    /* \"#utility.yul\":400:454   */\n  and\n    /* \"#utility.yul\":389:454   */\n  swap1\n  pop\n    /* \"#utility.yul\":334:460   */\n  swap2\n  swap1\n  pop\n  jump\t// out\n    /* \"#utility.yul\":466:562   */\ntag_29:\n    /* \"#utility.yul\":503:510   */\n  0x00\n    /* \"#utility.yul\":532:556   */\n  tag_49\n    /* \"#utility.yul\":550:555   */\n  dup3\n    /* \"#utility.yul\":532:556   */\n  tag_28\n  jump\t// in\ntag_49:\n    /* \"#utility.yul\":521:556   */\n  swap1\n  pop\n    /* \"#utility.yul\":466:562   */\n  swap2\n  swap1\n  pop\n  jump\t// out\n    /* \"#utility.yul\":568:690   */\ntag_30:\n    /* \"#utility.yul\":641:665   */\n  tag_51\n    /* \"#utility.yul\":659:664   */\n  dup2\n    /* \"#utility.yul\":641:665   */\n  tag_29\n  jump\t// in\ntag_51:\n    /* \"#utility.yul\":634:639   */\n  dup2\n    /* \"#utility.yul\":631:666   */\n  eq\n    /* \"#utility.yul\":621:684   */\n  tag_52\n  jumpi\n    /* \"#utility.yul\":680:681   */\n  0x00\n    /* \"#utility.yul\":677:678   */\n  dup1\n    /* \"#utility.yul\":670:682   */\n  revert\n    /* \"#utility.yul\":621:684   */\ntag_52:\n    /* \"#utility.yul\":568:690   */\n  pop\n  jump\t// out\n    /* \"#utility.yul\":696:839   */\ntag_31:\n    /* \"#utility.yul\":753:758   */\n  0x00\n    /* \"#utility.yul\":784:790   */\n  dup2\n    /* \"#utility.yul\":778:791   */\n  mload\n    /* \"#utility.yul\":769:791   */\n  swap1\n  pop\n    /* \"#utility.yul\":800:833   */\n  tag_54\n    /* \"#utility.yul\":827:832   */\n  dup2\n    /* \"#utility.yul\":800:833   */\n  tag_30\n  jump\t// in\ntag_54:\n    /* \"#utility.yul\":696:839   */\n  swap3\n  swap2\n  pop\n  pop\n  jump\t// out\n    /* \"#utility.yul\":845:962   */\ntag_32:\n    /* \"#utility.yul\":954:955   */\n  0x00\n    /* \"#utility.yul\":951:952   */\n  dup1\n    /* \"#utility.yul\":944:956   */\n  revert\n    /* \"#utility.yul\":968:1085   */\ntag_33:\n    /* \"#utility.yul\":1077:1078   */\n  0x00\n    /* \"#utility.yul\":1074:1075   */\n  dup1\n    /* \"#utility.yul\":1067:1079   */\n  revert\n    /* \"#utility.yul\":1091:1193   */\ntag_34:\n    /* \"#utility.yul\":1132:1138   */\n  0x00\n    /* \"#utility.yul\":1183:1185   */\n  0x1f\n    /* \"#utility.yul\":1179:1186   */\n  not\n    /* \"#utility.yul\":1174:1176   */\n  0x1f\n    /* \"#utility.yul\":1167:1172   */\n  dup4\n    /* \"#utility.yul\":1163:1177   */\n  add\n    /* \"#utility.yul\":1159:1187   */\n  and\n    /* \"#utility.yul\":1149:1187   */\n  swap1\n  pop\n    /* \"#utility.yul\":1091:1193   */\n  swap2\n  swap1\n  pop\n  jump\t// out\n    /* \"#utility.yul\":1199:1379   */\ntag_35:\n    /* \"#utility.yul\":1247:1324   */\n  0x4e487b7100000000000000000000000000000000000000000000000000000000\n    /* \"#utility.yul\":1244:1245   */\n  0x00\n    /* \"#utility.yul\":1237:1325   */\n  mstore\n    /* \"#utility.yul\":1344:1348   */\n  0x41\n    /* \"#utility.yul\":1341:1342   */\n  0x04\n    /* \"#utility.yul\":1334:1349   */\n  mstore\n    /* \"#utility.yul\":1368:1372   */\n  0x24\n    /* \"#utility.yul\":1365:1366   */\n  0x00\n    /* \"#utility.yul\":1358:1373   */\n  revert\n    /* \"#utility.yul\":1385:1666   */\ntag_36:\n    /* \"#utility.yul\":1468:1495   */\n  tag_60\n    /* \"#utility.yul\":1490:1494   */\n  dup3\n    /* \"#utility.yul\":1468:1495   */\n  tag_34\n  jump\t// in\ntag_60:\n    /* \"#utility.yul\":1460:1466   */\n  dup2\n    /* \"#utility.yul\":1456:1496   */\n  add\n    /* \"#utility.yul\":1598:1604   */\n  dup2\n    /* \"#utility.yul\":1586:1596   */\n  dup2\n    /* \"#utility.yul\":1583:1605   */\n  lt\n    /* \"#utility.yul\":1562:1580   */\n  0xffffffffffffffff\n    /* \"#utility.yul\":1550:1560   */\n  dup3\n    /* \"#utility.yul\":1547:1581   */\n  gt\n    /* \"#utility.yul\":1544:1606   */\n  or\n    /* \"#utility.yul\":1541:1629   */\n  iszero\n  tag_61\n  jumpi\n    /* \"#utility.yul\":1609:1627   */\n  tag_62\n  tag_35\n  jump\t// in\ntag_62:\n    /* \"#utility.yul\":1541:1629   */\ntag_61:\n    /* \"#utility.yul\":1649:1659   */\n  dup1\n    /* \"#utility.yul\":1645:1647   */\n  0x40\n    /* \"#utility.yul\":1638:1660   */\n  mstore\n    /* \"#utility.yul\":1428:1666   */\n  pop\n    /* \"#utility.yul\":1385:1666   */\n  pop\n  pop\n  jump\t// out\n    /* \"#utility.yul\":1672:1801   */\ntag_37:\n    /* \"#utility.yul\":1706:1712   */\n  0x00\n    /* \"#utility.yul\":1733:1753   */\n  tag_64\n  tag_25\n  jump\t// in\ntag_64:\n    /* \"#utility.yul\":1723:1753   */\n  swap1\n  pop\n    /* \"#utility.yul\":1762:1795   */\n  tag_65\n    /* \"#utility.yul\":1790:1794   */\n  dup3\n    /* \"#utility.yul\":1782:1788   */\n  dup3\n    /* \"#utility.yul\":1762:1795   */\n  tag_36\n  jump\t// in\ntag_65:\n    /* \"#utility.yul\":1672:1801   */\n  swap2\n  swap1\n  pop\n  jump\t// out\n    /* \"#utility.yul\":1807:2115   */\ntag_38:\n    /* \"#utility.yul\":1869:1873   */\n  0x00\n    /* \"#utility.yul\":1959:1977   */\n  0xffffffffffffffff\n    /* \"#utility.yul\":1951:1957   */\n  dup3\n    /* \"#utility.yul\":1948:1978   */\n  gt\n    /* \"#utility.yul\":1945:2001   */\n  iszero\n  tag_67\n  jumpi\n    /* \"#utility.yul\":1981:1999   */\n  tag_68\n  tag_35\n  jump\t// in\ntag_68:\n    /* \"#utility.yul\":1945:2001   */\ntag_67:\n    /* \"#utility.yul\":2019:2048   */\n  tag_69\n    /* \"#utility.yul\":2041:2047   */\n  dup3\n    /* \"#utility.yul\":2019:2048   */\n  tag_34\n  jump\t// in\ntag_69:\n    /* \"#utility.yul\":2011:2048   */\n  swap1\n  pop\n    /* \"#utility.yul\":2103:2107   */\n  0x20\n    /* \"#utility.yul\":2097:2101   */\n  dup2\n    /* \"#utility.yul\":2093:2108   */\n  add\n    /* \"#utility.yul\":2085:2108   */\n  swap1\n  pop\n    /* \"#utility.yul\":1807:2115   */\n  swap2\n  swap1\n  pop\n  jump\t// out\n    /* \"#utility.yul\":2121:2428   */\ntag_39:\n    /* \"#utility.yul\":2189:2190   */\n  0x00\n    /* \"#utility.yul\":2199:2312   */\ntag_71:\n    /* \"#utility.yul\":2213:2219   */\n  dup4\n    /* \"#utility.yul\":2210:2211   */\n  dup2\n    /* \"#utility.yul\":2207:2220   */\n  lt\n    /* \"#utility.yul\":2199:2312   */\n  iszero\n  tag_73\n  jumpi\n    /* \"#utility.yul\":2298:2299   */\n  dup1\n    /* \"#utility.yul\":2293:2296   */\n  dup3\n    /* \"#utility.yul\":2289:2300   */\n  add\n    /* \"#utility.yul\":2283:2301   */\n  mload\n    /* \"#utility.yul\":2279:2280   */\n  dup2\n    /* \"#utility.yul\":2274:2277   */\n  dup5\n    /* \"#utility.yul\":2270:2281   */\n  add\n    /* \"#utility.yul\":2263:2302   */\n  mstore\n    /* \"#utility.yul\":2235:2237   */\n  0x20\n    /* \"#utility.yul\":2232:2233   */\n  dup2\n    /* \"#utility.yul\":2228:2238   */\n  add\n    /* \"#utility.yul\":2223:2238   */\n  swap1\n  pop\n    /* \"#utility.yul\":2199:2312   */\n  jump(tag_71)\ntag_73:\n    /* \"#utility.yul\":2330:2336   */\n  dup4\n    /* \"#utility.yul\":2327:2328   */\n  dup2\n    /* \"#utility.yul\":2324:2337   */\n  gt\n    /* \"#utility.yul\":2321:2422   */\n  iszero\n  tag_74\n  jumpi\n    /* \"#utility.yul\":2410:2411   */\n  0x00\n    /* \"#utility.yul\":2401:2407   */\n  dup5\n    /* \"#utility.yul\":2396:2399   */\n  dup5\n    /* \"#utility.yul\":2392:2408   */\n  add\n    /* \"#utility.yul\":2385:2412   */\n  mstore\n    /* \"#utility.yul\":2321:2422   */\ntag_74:\n    /* \"#utility.yul\":2170:2428   */\n  pop\n    /* \"#utility.yul\":2121:2428   */\n  pop\n  pop\n  pop\n  jump\t// out\n    /* \"#utility.yul\":2434:2855   */\ntag_40:\n    /* \"#utility.yul\":2523:2528   */\n  0x00\n    /* \"#utility.yul\":2548:2614   */\n  tag_76\n    /* \"#utility.yul\":2564:2613   */\n  tag_77\n    /* \"#utility.yul\":2606:2612   */\n  dup5\n    /* \"#utility.yul\":2564:2613   */\n  tag_38\n  jump\t// in\ntag_77:\n    /* \"#utility.yul\":2548:2614   */\n  tag_37\n  jump\t// in\ntag_76:\n    /* \"#utility.yul\":2539:2614   */\n  swap1\n  pop\n    /* \"#utility.yul\":2637:2643   */\n  dup3\n    /* \"#utility.yul\":2630:2635   */\n  dup2\n    /* \"#utility.yul\":2623:2644   */\n  mstore\n    /* \"#utility.yul\":2675:2679   */\n  0x20\n    /* \"#utility.yul\":2668:2673   */\n  dup2\n    /* \"#utility.yul\":2664:2680   */\n  add\n    /* \"#utility.yul\":2713:2716   */\n  dup5\n    /* \"#utility.yul\":2704:2710   */\n  dup5\n    /* \"#utility.yul\":2699:2702   */\n  dup5\n    /* \"#utility.yul\":2695:2711   */\n  add\n    /* \"#utility.yul\":2692:2717   */\n  gt\n    /* \"#utility.yul\":2689:2801   */\n  iszero\n  tag_78\n  jumpi\n    /* \"#utility.yul\":2720:2799   */\n  tag_79\n  tag_33\n  jump\t// in\ntag_79:\n    /* \"#utility.yul\":2689:2801   */\ntag_78:\n    /* \"#utility.yul\":2810:2849   */\n  tag_80\n    /* \"#utility.yul\":2842:2848   */\n  dup5\n    /* \"#utility.yul\":2837:2840   */\n  dup3\n    /* \"#utility.yul\":2832:2835   */\n  dup6\n    /* \"#utility.yul\":2810:2849   */\n  tag_39\n  jump\t// in\ntag_80:\n    /* \"#utility.yul\":2529:2855   */\n  pop\n    /* \"#utility.yul\":2434:2855   */\n  swap4\n  swap3\n  pop\n  pop\n  pop\n  jump\t// out\n    /* \"#utility.yul\":2875:3230   */\ntag_41:\n    /* \"#utility.yul\":2942:2947   */\n  0x00\n    /* \"#utility.yul\":2991:2994   */\n  dup3\n    /* \"#utility.yul\":2984:2988   */\n  0x1f\n    /* \"#utility.yul\":2976:2982   */\n  dup4\n    /* \"#utility.yul\":2972:2989   */\n  add\n    /* \"#utility.yul\":2968:2995   */\n  slt\n    /* \"#utility.yul\":2958:3080   */\n  tag_82\n  jumpi\n    /* \"#utility.yul\":2999:3078   */\n  tag_83\n  tag_32\n  jump\t// in\ntag_83:\n    /* \"#utility.yul\":2958:3080   */\ntag_82:\n    /* \"#utility.yul\":3109:3115   */\n  dup2\n    /* \"#utility.yul\":3103:3116   */\n  mload\n    /* \"#utility.yul\":3134:3224   */\n  tag_84\n    /* \"#utility.yul\":3220:3223   */\n  dup5\n    /* \"#utility.yul\":3212:3218   */\n  dup3\n    /* \"#utility.yul\":3205:3209   */\n  0x20\n    /* \"#utility.yul\":3197:3203   */\n  dup7\n    /* \"#utility.yul\":3193:3210   */\n  add\n    /* \"#utility.yul\":3134:3224   */\n  tag_40\n  jump\t// in\ntag_84:\n    /* \"#utility.yul\":3125:3224   */\n  swap2\n  pop\n    /* \"#utility.yul\":2948:3230   */\n  pop\n    /* \"#utility.yul\":2875:3230   */\n  swap3\n  swap2\n  pop\n  pop\n  jump\t// out\n    /* \"#utility.yul\":3236:4716   */\ntag_3:\n    /* \"#utility.yul\":3371:3377   */\n  0x00\n    /* \"#utility.yul\":3379:3385   */\n  dup1\n    /* \"#utility.yul\":3387:3393   */\n  0x00\n    /* \"#utility.yul\":3395:3401   */\n  dup1\n    /* \"#utility.yul\":3403:3409   */\n  0x00\n    /* \"#utility.yul\":3411:3417   */\n  dup1\n    /* \"#utility.yul\":3460:3463   */\n  0xc0\n    /* \"#utility.yul\":3448:3457   */\n  dup8\n    /* \"#utility.yul\":3439:3446   */\n  dup10\n    /* \"#utility.yul\":3435:3458   */\n  sub\n    /* \"#utility.yul\":3431:3464   */\n  slt\n    /* \"#utility.yul\":3428:3548   */\n  iszero\n  tag_86\n  jumpi\n    /* \"#utility.yul\":3467:3546   */\n  tag_87\n  tag_26\n  jump\t// in\ntag_87:\n    /* \"#utility.yul\":3428:3548   */\ntag_86:\n    /* \"#utility.yul\":3587:3588   */\n  0x00\n    /* \"#utility.yul\":3612:3676   */\n  tag_88\n    /* \"#utility.yul\":3668:3675   */\n  dup10\n    /* \"#utility.yul\":3659:3665   */\n  dup3\n    /* \"#utility.yul\":3648:3657   */\n  dup11\n    /* \"#utility.yul\":3644:3666   */\n  add\n    /* \"#utility.yul\":3612:3676   */\n  tag_31\n  jump\t// in\ntag_88:\n    /* \"#utility.yul\":3602:3676   */\n  swap7\n  pop\n    /* \"#utility.yul\":3558:3686   */\n  pop\n    /* \"#utility.yul\":3725:3727   */\n  0x20\n    /* \"#utility.yul\":3751:3815   */\n  tag_89\n    /* \"#utility.yul\":3807:3814   */\n  dup10\n    /* \"#utility.yul\":3798:3804   */\n  dup3\n    /* \"#utility.yul\":3787:3796   */\n  dup11\n    /* \"#utility.yul\":3783:3805   */\n  add\n    /* \"#utility.yul\":3751:3815   */\n  tag_31\n  jump\t// in\ntag_89:\n    /* \"#utility.yul\":3741:3815   */\n  swap6\n  pop\n    /* \"#utility.yul\":3696:3825   */\n  pop\n    /* \"#utility.yul\":3885:3887   */\n  0x40\n    /* \"#utility.yul\":3874:3883   */\n  dup8\n    /* \"#utility.yul\":3870:3888   */\n  add\n    /* \"#utility.yul\":3864:3889   */\n  mload\n    /* \"#utility.yul\":3916:3934   */\n  0xffffffffffffffff\n    /* \"#utility.yul\":3908:3914   */\n  dup2\n    /* \"#utility.yul\":3905:3935   */\n  gt\n    /* \"#utility.yul\":3902:4019   */\n  iszero\n  tag_90\n  jumpi\n    /* \"#utility.yul\":3938:4017   */\n  tag_91\n  tag_27\n  jump\t// in\ntag_91:\n    /* \"#utility.yul\":3902:4019   */\ntag_90:\n    /* \"#utility.yul\":4043:4117   */\n  tag_92\n    /* \"#utility.yul\":4109:4116   */\n  dup10\n    /* \"#utility.yul\":4100:4106   */\n  dup3\n    /* \"#utility.yul\":4089:4098   */\n  dup11\n    /* \"#utility.yul\":4085:4107   */\n  add\n    /* \"#utility.yul\":4043:4117   */\n  tag_41\n  jump\t// in\ntag_92:\n    /* \"#utility.yul\":4033:4117   */\n  swap5\n  pop\n    /* \"#utility.yul\":3835:4127   */\n  pop\n    /* \"#utility.yul\":4187:4189   */\n  0x60\n    /* \"#utility.yul\":4176:4185   */\n  dup8\n    /* \"#utility.yul\":4172:4190   */\n  add\n    /* \"#utility.yul\":4166:4191   */\n  mload\n    /* \"#utility.yul\":4218:4236   */\n  0xffffffffffffffff\n    /* \"#utility.yul\":4210:4216   */\n  dup2\n    /* \"#utility.yul\":4207:4237   */\n  gt\n    /* \"#utility.yul\":4204:4321   */\n  iszero\n  tag_93\n  jumpi\n    /* \"#utility.yul\":4240:4319   */\n  tag_94\n  tag_27\n  jump\t// in\ntag_94:\n    /* \"#utility.yul\":4204:4321   */\ntag_93:\n    /* \"#utility.yul\":4345:4419   */\n  tag_95\n    /* \"#utility.yul\":4411:4418   */\n  dup10\n    /* \"#utility.yul\":4402:4408   */\n  dup3\n    /* \"#utility.yul\":4391:4400   */\n  dup11\n    /* \"#utility.yul\":4387:4409   */\n  add\n    /* \"#utility.yul\":4345:4419   */\n  tag_41\n  jump\t// in\ntag_95:\n    /* \"#utility.yul\":4335:4419   */\n  swap4\n  pop\n    /* \"#utility.yul\":4137:4429   */\n  pop\n    /* \"#utility.yul\":4468:4471   */\n  0x80\n    /* \"#utility.yul\":4495:4559   */\n  tag_96\n    /* \"#utility.yul\":4551:4558   */\n  dup10\n    /* \"#utility.yul\":4542:4548   */\n  dup3\n    /* \"#utility.yul\":4531:4540   */\n  dup11\n    /* \"#utility.yul\":4527:4549   */\n  add\n    /* \"#utility.yul\":4495:4559   */\n  tag_31\n  jump\t// in\ntag_96:\n    /* \"#utility.yul\":4485:4559   */\n  swap3\n  pop\n    /* \"#utility.yul\":4439:4569   */\n  pop\n    /* \"#utility.yul\":4608:4611   */\n  0xa0\n    /* \"#utility.yul\":4635:4699   */\n  tag_97\n    /* \"#utility.yul\":4691:4698   */\n  dup10\n    /* \"#utility.yul\":4682:4688   */\n  dup3\n    /* \"#utility.yul\":4671:4680   */\n  dup11\n    /* \"#utility.yul\":4667:4689   */\n  add\n    /* \"#utility.yul\":4635:4699   */\n  tag_31\n  jump\t// in\ntag_97:\n    /* \"#utility.yul\":4625:4699   */\n  swap2\n  pop\n    /* \"#utility.yul\":4579:4709   */\n  pop\n    /* \"#utility.yul\":3236:4716   */\n  swap3\n  swap6\n  pop\n  swap3\n  swap6\n  pop\n  swap3\n  swap6\n  jump\t// out\n    /* \"#utility.yul\":4722:4902   */\ntag_42:\n    /* \"#utility.yul\":4770:4847   */\n  0x4e487b7100000000000000000000000000000000000000000000000000000000\n    /* \"#utility.yul\":4767:4768   */\n  0x00\n    /* \"#utility.yul\":4760:4848   */\n  mstore\n    /* \"#utility.yul\":4867:4871   */\n  0x22\n    /* \"#utility.yul\":4864:4865   */\n  0x04\n    /* \"#utility.yul\":4857:4872   */\n  mstore\n    /* \"#utility.yul\":4891:4895   */\n  0x24\n    /* \"#utility.yul\":4888:4889   */\n  0x00\n    /* \"#utility.yul\":4881:4896   */\n  revert\n    /* \"#utility.yul\":4908:5228   */\ntag_15:\n    /* \"#utility.yul\":4952:4958   */\n  0x00\n    /* \"#utility.yul\":4989:4990   */\n  0x02\n    /* \"#utility.yul\":4983:4987   */\n  dup3\n    /* \"#utility.yul\":4979:4991   */\n  div\n    /* \"#utility.yul\":4969:4991   */\n  swap1\n  pop\n    /* \"#utility.yul\":5036:5037   */\n  0x01\n    /* \"#utility.yul\":5030:5034   */\n  dup3\n    /* \"#utility.yul\":5026:5038   */\n  and\n    /* \"#utility.yul\":5057:5075   */\n  dup1\n    /* \"#utility.yul\":5047:5128   */\n  tag_100\n  jumpi\n    /* \"#utility.yul\":5113:5117   */\n  0x7f\n    /* \"#utility.yul\":5105:5111   */\n  dup3\n    /* \"#utility.yul\":5101:5118   */\n  and\n    /* \"#utility.yul\":5091:5118   */\n  swap2\n  pop\n    /* \"#utility.yul\":5047:5128   */\ntag_100:\n    /* \"#utility.yul\":5175:5177   */\n  0x20\n    /* \"#utility.yul\":5167:5173   */\n  dup3\n    /* \"#utility.yul\":5164:5178   */\n  lt\n    /* \"#utility.yul\":5144:5162   */\n  dup2\n    /* \"#utility.yul\":5141:5179   */\n  eq\n    /* \"#utility.yul\":5138:5222   */\n  iszero\n  tag_101\n  jumpi\n    /* \"#utility.yul\":5194:5212   */\n  tag_102\n  tag_42\n  jump\t// in\ntag_102:\n    /* \"#utility.yul\":5138:5222   */\ntag_101:\n    /* \"#utility.yul\":4959:5228   */\n  pop\n    /* \"#utility.yul\":4908:5228   */\n  swap2\n  swap1\n  pop\n  jump\t// out\n    /* \"Story.sol\":7791:9644  contract Chapter {... */\ntag_13:\n  dataSize(sub_0)\n  dup1\n  dataOffset(sub_0)\n  0x00\n  codecopy\n  0x00\n  return\nstop\n\nsub_0: assembly {\n        /* \"Story.sol\":7791:9644  contract Chapter {... */\n      mstore(0x40, 0x80)\n      callvalue\n      dup1\n      iszero\n      tag_1\n      jumpi\n      0x00\n      dup1\n      revert\n    tag_1:\n      pop\n      jumpi(tag_2, lt(calldatasize, 0x04))\n      shr(0xe0, calldataload(0x00))\n      dup1\n      0xa523b88a\n      gt\n      tag_14\n      jumpi\n      dup1\n      0xa523b88a\n      eq\n      tag_8\n      jumpi\n      dup1\n      0xa6c3e6b9\n      eq\n      tag_9\n      jumpi\n      dup1\n      0xc5fe6ffc\n      eq\n      tag_10\n      jumpi\n      dup1\n      0xc623674f\n      eq\n      tag_11\n      jumpi\n      dup1\n      0xe5a0af3d\n      eq\n      tag_12\n      jumpi\n      dup1\n      0xed777791\n      eq\n      tag_13\n      jumpi\n      jump(tag_2)\n    tag_14:\n      dup1\n      0x4051ddac\n      eq\n      tag_3\n      jumpi\n      dup1\n      0x46c922d1\n      eq\n      tag_4\n      jumpi\n      dup1\n      0x4a79d50c\n      eq\n      tag_5\n      jumpi\n      dup1\n      0x8758ce83\n      eq\n      tag_6\n      jumpi\n      dup1\n      0x988e46c8\n      eq\n      tag_7\n      jumpi\n    tag_2:\n      0x00\n      dup1\n      revert\n        /* \"Story.sol\":9283:9641  function getSummary() public view returns (... */\n    tag_3:\n      tag_15\n      tag_16\n      jump\t// in\n    tag_15:\n      mload(0x40)\n      tag_17\n      swap8\n      swap7\n      swap6\n      swap5\n      swap4\n      swap3\n      swap2\n      swap1\n      tag_18\n      jump\t// in\n    tag_17:\n      mload(0x40)\n      dup1\n      swap2\n      sub\n      swap1\n      return\n        /* \"Story.sol\":7850:7870  address public story */\n    tag_4:\n      tag_19\n      tag_20\n      jump\t// in\n    tag_19:\n      mload(0x40)\n      tag_21\n      swap2\n      swap1\n      tag_22\n      jump\t// in\n    tag_21:\n      mload(0x40)\n      dup1\n      swap2\n      sub\n      swap1\n      return\n        /* \"Story.sol\":7906:7925  string public title */\n    tag_5:\n      tag_23\n      tag_24\n      jump\t// in\n    tag_23:\n      mload(0x40)\n      tag_25\n      swap2\n      swap1\n      tag_26\n      jump\t// in\n    tag_25:\n      mload(0x40)\n      dup1\n      swap2\n      sub\n      swap1\n      return\n        /* \"Story.sol\":8844:9084  function linkParentChapter(address parentChapter) public {... */\n    tag_6:\n      tag_27\n      0x04\n      dup1\n      calldatasize\n      sub\n      dup2\n      add\n      swap1\n      tag_28\n      swap2\n      swap1\n      tag_29\n      jump\t// in\n    tag_28:\n      tag_30\n      jump\t// in\n    tag_27:\n      stop\n        /* \"Story.sol\":8600:8836  function linkChildChapter(address childChapter) public {... */\n    tag_7:\n      tag_31\n      0x04\n      dup1\n      calldatasize\n      sub\n      dup2\n      add\n      swap1\n      tag_32\n      swap2\n      swap1\n      tag_29\n      jump\t// in\n    tag_32:\n      tag_33\n      jump\t// in\n    tag_31:\n      stop\n        /* \"Story.sol\":9100:9275  function like() public {... */\n    tag_8:\n      tag_34\n      tag_35\n      jump\t// in\n    tag_34:\n      stop\n        /* \"Story.sol\":7878:7899  address public author */\n    tag_9:\n      tag_36\n      tag_37\n      jump\t// in\n    tag_36:\n      mload(0x40)\n      tag_38\n      swap2\n      swap1\n      tag_22\n      jump\t// in\n    tag_38:\n      mload(0x40)\n      dup1\n      swap2\n      sub\n      swap1\n      return\n        /* \"Story.sol\":8005:8041  address[] public linkedChildChapters */\n    tag_10:\n      tag_39\n      0x04\n      dup1\n      calldatasize\n      sub\n      dup2\n      add\n      swap1\n      tag_40\n      swap2\n      swap1\n      tag_41\n      jump\t// in\n    tag_40:\n      tag_42\n      jump\t// in\n    tag_39:\n      mload(0x40)\n      tag_43\n      swap2\n      swap1\n      tag_22\n      jump\t// in\n    tag_43:\n      mload(0x40)\n      dup1\n      swap2\n      sub\n      swap1\n      return\n        /* \"Story.sol\":7932:7954  string public ipfsHash */\n    tag_11:\n      tag_44\n      tag_45\n      jump\t// in\n    tag_44:\n      mload(0x40)\n      tag_46\n      swap2\n      swap1\n      tag_26\n      jump\t// in\n    tag_46:\n      mload(0x40)\n      dup1\n      swap2\n      sub\n      swap1\n      return\n        /* \"Story.sol\":8086:8110  uint256 public likeCount */\n    tag_12:\n      tag_47\n      tag_48\n      jump\t// in\n    tag_47:\n      mload(0x40)\n      tag_49\n      swap2\n      swap1\n      tag_50\n      jump\t// in\n    tag_49:\n      mload(0x40)\n      dup1\n      swap2\n      sub\n      swap1\n      return\n        /* \"Story.sol\":7961:7998  address[] public linkedParentChapters */\n    tag_13:\n      tag_51\n      0x04\n      dup1\n      calldatasize\n      sub\n      dup2\n      add\n      swap1\n      tag_52\n      swap2\n      swap1\n      tag_41\n      jump\t// in\n    tag_52:\n      tag_53\n      jump\t// in\n    tag_51:\n      mload(0x40)\n      tag_54\n      swap2\n      swap1\n      tag_22\n      jump\t// in\n    tag_54:\n      mload(0x40)\n      dup1\n      swap2\n      sub\n      swap1\n      return\n        /* \"Story.sol\":9283:9641  function getSummary() public view returns (... */\n    tag_16:\n        /* \"Story.sol\":9336:9343  address */\n      0x00\n        /* \"Story.sol\":9345:9352  address */\n      dup1\n        /* \"Story.sol\":9354:9367  string memory */\n      0x60\n        /* \"Story.sol\":9369:9382  string memory */\n      dup1\n        /* \"Story.sol\":9384:9400  address[] memory */\n      0x60\n        /* \"Story.sol\":9402:9418  address[] memory */\n      dup1\n        /* \"Story.sol\":9420:9424  uint */\n      0x00\n        /* \"Story.sol\":9460:9465  story */\n      dup1\n      0x00\n      swap1\n      sload\n      swap1\n      0x0100\n      exp\n      swap1\n      div\n      0xffffffffffffffffffffffffffffffffffffffff\n      and\n        /* \"Story.sol\":9480:9486  author */\n      0x01\n      0x00\n      swap1\n      sload\n      swap1\n      0x0100\n      exp\n      swap1\n      div\n      0xffffffffffffffffffffffffffffffffffffffff\n      and\n        /* \"Story.sol\":9501:9506  title */\n      0x02\n        /* \"Story.sol\":9521:9529  ipfsHash */\n      0x03\n        /* \"Story.sol\":9544:9564  linkedParentChapters */\n      0x04\n        /* \"Story.sol\":9579:9598  linkedChildChapters */\n      0x05\n        /* \"Story.sol\":9613:9622  likeCount */\n      sload(0x07)\n        /* \"Story.sol\":9437:9633  return ( ... */\n      dup5\n      dup1\n      sload\n      tag_56\n      swap1\n      tag_57\n      jump\t// in\n    tag_56:\n      dup1\n      0x1f\n      add\n      0x20\n      dup1\n      swap2\n      div\n      mul\n      0x20\n      add\n      mload(0x40)\n      swap1\n      dup2\n      add\n      0x40\n      mstore\n      dup1\n      swap3\n      swap2\n      swap1\n      dup2\n      dup2\n      mstore\n      0x20\n      add\n      dup3\n      dup1\n      sload\n      tag_58\n      swap1\n      tag_57\n      jump\t// in\n    tag_58:\n      dup1\n      iszero\n      tag_59\n      jumpi\n      dup1\n      0x1f\n      lt\n      tag_60\n      jumpi\n      0x0100\n      dup1\n      dup4\n      sload\n      div\n      mul\n      dup4\n      mstore\n      swap2\n      0x20\n      add\n      swap2\n      jump(tag_59)\n    tag_60:\n      dup3\n      add\n      swap2\n      swap1\n      0x00\n      mstore\n      keccak256(0x00, 0x20)\n      swap1\n    tag_61:\n      dup2\n      sload\n      dup2\n      mstore\n      swap1\n      0x01\n      add\n      swap1\n      0x20\n      add\n      dup1\n      dup4\n      gt\n      tag_61\n      jumpi\n      dup3\n      swap1\n      sub\n      0x1f\n      and\n      dup3\n      add\n      swap2\n    tag_59:\n      pop\n      pop\n      pop\n      pop\n      pop\n      swap5\n      pop\n      dup4\n      dup1\n      sload\n      tag_62\n      swap1\n      tag_57\n      jump\t// in\n    tag_62:\n      dup1\n      0x1f\n      add\n      0x20\n      dup1\n      swap2\n      div\n      mul\n      0x20\n      add\n      mload(0x40)\n      swap1\n      dup2\n      add\n      0x40\n      mstore\n      dup1\n      swap3\n      swap2\n      swap1\n      dup2\n      dup2\n      mstore\n      0x20\n      add\n      dup3\n      dup1\n      sload\n      tag_63\n      swap1\n      tag_57\n      jump\t// in\n    tag_63:\n      dup1\n      iszero\n      tag_64\n      jumpi\n      dup1\n      0x1f\n      lt\n      tag_65\n      jumpi\n      0x0100\n      dup1\n      dup4\n      sload\n      div\n      mul\n      dup4\n      mstore\n      swap2\n      0x20\n      add\n      swap2\n      jump(tag_64)\n    tag_65:\n      dup3\n      add\n      swap2\n      swap1\n      0x00\n      mstore\n      keccak256(0x00, 0x20)\n      swap1\n    tag_66:\n      dup2\n      sload\n      dup2\n      mstore\n      swap1\n      0x01\n      add\n      swap1\n      0x20\n      add\n      dup1\n      dup4\n      gt\n      tag_66\n      jumpi\n      dup3\n      swap1\n      sub\n      0x1f\n      and\n      dup3\n      add\n      swap2\n    tag_64:\n      pop\n      pop\n      pop\n      pop\n      pop\n      swap4\n      pop\n      dup3\n      dup1\n      sload\n      dup1\n      0x20\n      mul\n      0x20\n      add\n      mload(0x40)\n      swap1\n      dup2\n      add\n      0x40\n      mstore\n      dup1\n      swap3\n      swap2\n      swap1\n      dup2\n      dup2\n      mstore\n      0x20\n      add\n      dup3\n      dup1\n      sload\n      dup1\n      iszero\n      tag_67\n      jumpi\n      0x20\n      mul\n      dup3\n      add\n      swap2\n      swap1\n      0x00\n      mstore\n      keccak256(0x00, 0x20)\n      swap1\n    tag_68:\n      dup2\n      0x00\n      swap1\n      sload\n      swap1\n      0x0100\n      exp\n      swap1\n      div\n      0xffffffffffffffffffffffffffffffffffffffff\n      and\n      0xffffffffffffffffffffffffffffffffffffffff\n      and\n      dup2\n      mstore\n      0x20\n      add\n      swap1\n      0x01\n      add\n      swap1\n      dup1\n      dup4\n      gt\n      tag_68\n      jumpi\n    tag_67:\n      pop\n      pop\n      pop\n      pop\n      pop\n      swap3\n      pop\n      dup2\n      dup1\n      sload\n      dup1\n      0x20\n      mul\n      0x20\n      add\n      mload(0x40)\n      swap1\n      dup2\n      add\n      0x40\n      mstore\n      dup1\n      swap3\n      swap2\n      swap1\n      dup2\n      dup2\n      mstore\n      0x20\n      add\n      dup3\n      dup1\n      sload\n      dup1\n      iszero\n      tag_69\n      jumpi\n      0x20\n      mul\n      dup3\n      add\n      swap2\n      swap1\n      0x00\n      mstore\n      keccak256(0x00, 0x20)\n      swap1\n    tag_70:\n      dup2\n      0x00\n      swap1\n      sload\n      swap1\n      0x0100\n      exp\n      swap1\n      div\n      0xffffffffffffffffffffffffffffffffffffffff\n      and\n      0xffffffffffffffffffffffffffffffffffffffff\n      and\n      dup2\n      mstore\n      0x20\n      add\n      swap1\n      0x01\n      add\n      swap1\n      dup1\n      dup4\n      gt\n      tag_70\n      jumpi\n    tag_69:\n      pop\n      pop\n      pop\n      pop\n      pop\n      swap2\n      pop\n      swap7\n      pop\n      swap7\n      pop\n      swap7\n      pop\n      swap7\n      pop\n      swap7\n      pop\n      swap7\n      pop\n      swap7\n      pop\n        /* \"Story.sol\":9283:9641  function getSummary() public view returns (... */\n      swap1\n      swap2\n      swap3\n      swap4\n      swap5\n      swap6\n      swap7\n      jump\t// out\n        /* \"Story.sol\":7850:7870  address public story */\n    tag_20:\n      0x00\n      dup1\n      sload\n      swap1\n      0x0100\n      exp\n      swap1\n      div\n      0xffffffffffffffffffffffffffffffffffffffff\n      and\n      dup2\n      jump\t// out\n        /* \"Story.sol\":7906:7925  string public title */\n    tag_24:\n      0x02\n      dup1\n      sload\n      tag_71\n      swap1\n      tag_57\n      jump\t// in\n    tag_71:\n      dup1\n      0x1f\n      add\n      0x20\n      dup1\n      swap2\n      div\n      mul\n      0x20\n      add\n      mload(0x40)\n      swap1\n      dup2\n      add\n      0x40\n      mstore\n      dup1\n      swap3\n      swap2\n      swap1\n      dup2\n      dup2\n      mstore\n      0x20\n      add\n      dup3\n      dup1\n      sload\n      tag_72\n      swap1\n      tag_57\n      jump\t// in\n    tag_72:\n      dup1\n      iszero\n      tag_73\n      jumpi\n      dup1\n      0x1f\n      lt\n      tag_74\n      jumpi\n      0x0100\n      dup1\n      dup4\n      sload\n      div\n      mul\n      dup4\n      mstore\n      swap2\n      0x20\n      add\n      swap2\n      jump(tag_73)\n    tag_74:\n      dup3\n      add\n      swap2\n      swap1\n      0x00\n      mstore\n      keccak256(0x00, 0x20)\n      swap1\n    tag_75:\n      dup2\n      sload\n      dup2\n      mstore\n      swap1\n      0x01\n      add\n      swap1\n      0x20\n      add\n      dup1\n      dup4\n      gt\n      tag_75\n      jumpi\n      dup3\n      swap1\n      sub\n      0x1f\n      and\n      dup3\n      add\n      swap2\n    tag_73:\n      pop\n      pop\n      pop\n      pop\n      pop\n      dup2\n      jump\t// out\n        /* \"Story.sol\":8844:9084  function linkParentChapter(address parentChapter) public {... */\n    tag_30:\n        /* \"Story.sol\":8934:8939  story */\n      0x00\n      dup1\n      sload\n      swap1\n      0x0100\n      exp\n      swap1\n      div\n      0xffffffffffffffffffffffffffffffffffffffff\n      and\n        /* \"Story.sol\":8920:8939  msg.sender == story */\n      0xffffffffffffffffffffffffffffffffffffffff\n      and\n        /* \"Story.sol\":8920:8930  msg.sender */\n      caller\n        /* \"Story.sol\":8920:8939  msg.sender == story */\n      0xffffffffffffffffffffffffffffffffffffffff\n      and\n      eq\n        /* \"Story.sol\":8912:9025  require(msg.sender == story, \"This function has to be called from the story contract by an accepted author only\") */\n      tag_77\n      jumpi\n      mload(0x40)\n      0x08c379a000000000000000000000000000000000000000000000000000000000\n      dup2\n      mstore\n      0x04\n      add\n      tag_78\n      swap1\n      tag_79\n      jump\t// in\n    tag_78:\n      mload(0x40)\n      dup1\n      swap2\n      sub\n      swap1\n      revert\n    tag_77:\n        /* \"Story.sol\":9036:9056  linkedParentChapters */\n      0x04\n        /* \"Story.sol\":9062:9075  parentChapter */\n      dup2\n        /* \"Story.sol\":9036:9076  linkedParentChapters.push(parentChapter) */\n      swap1\n      dup1\n      0x01\n      dup2\n      sload\n      add\n      dup1\n      dup3\n      sstore\n      dup1\n      swap2\n      pop\n      pop\n      0x01\n      swap1\n      sub\n      swap1\n      0x00\n      mstore\n      keccak256(0x00, 0x20)\n      add\n      0x00\n      swap1\n      swap2\n      swap1\n      swap2\n      swap1\n      swap2\n      0x0100\n      exp\n      dup2\n      sload\n      dup2\n      0xffffffffffffffffffffffffffffffffffffffff\n      mul\n      not\n      and\n      swap1\n      dup4\n      0xffffffffffffffffffffffffffffffffffffffff\n      and\n      mul\n      or\n      swap1\n      sstore\n      pop\n        /* \"Story.sol\":8844:9084  function linkParentChapter(address parentChapter) public {... */\n      pop\n      jump\t// out\n        /* \"Story.sol\":8600:8836  function linkChildChapter(address childChapter) public {... */\n    tag_33:\n        /* \"Story.sol\":8688:8693  story */\n      0x00\n      dup1\n      sload\n      swap1\n      0x0100\n      exp\n      swap1\n      div\n      0xffffffffffffffffffffffffffffffffffffffff\n      and\n        /* \"Story.sol\":8674:8693  msg.sender == story */\n      0xffffffffffffffffffffffffffffffffffffffff\n      and\n        /* \"Story.sol\":8674:8684  msg.sender */\n      caller\n        /* \"Story.sol\":8674:8693  msg.sender == story */\n      0xffffffffffffffffffffffffffffffffffffffff\n      and\n      eq\n        /* \"Story.sol\":8666:8779  require(msg.sender == story, \"This function has to be called from the story contract by an accepted author only\") */\n      tag_82\n      jumpi\n      mload(0x40)\n      0x08c379a000000000000000000000000000000000000000000000000000000000\n      dup2\n      mstore\n      0x04\n      add\n      tag_83\n      swap1\n      tag_79\n      jump\t// in\n    tag_83:\n      mload(0x40)\n      dup1\n      swap2\n      sub\n      swap1\n      revert\n    tag_82:\n        /* \"Story.sol\":8790:8809  linkedChildChapters */\n      0x05\n        /* \"Story.sol\":8815:8827  childChapter */\n      dup2\n        /* \"Story.sol\":8790:8828  linkedChildChapters.push(childChapter) */\n      swap1\n      dup1\n      0x01\n      dup2\n      sload\n      add\n      dup1\n      dup3\n      sstore\n      dup1\n      swap2\n      pop\n      pop\n      0x01\n      swap1\n      sub\n      swap1\n      0x00\n      mstore\n      keccak256(0x00, 0x20)\n      add\n      0x00\n      swap1\n      swap2\n      swap1\n      swap2\n      swap1\n      swap2\n      0x0100\n      exp\n      dup2\n      sload\n      dup2\n      0xffffffffffffffffffffffffffffffffffffffff\n      mul\n      not\n      and\n      swap1\n      dup4\n      0xffffffffffffffffffffffffffffffffffffffff\n      and\n      mul\n      or\n      swap1\n      sstore\n      pop\n        /* \"Story.sol\":8600:8836  function linkChildChapter(address childChapter) public {... */\n      pop\n      jump\t// out\n        /* \"Story.sol\":9100:9275  function like() public {... */\n    tag_35:\n        /* \"Story.sol\":9143:9149  likers */\n      0x06\n        /* \"Story.sol\":9143:9161  likers[msg.sender] */\n      0x00\n        /* \"Story.sol\":9150:9160  msg.sender */\n      caller\n        /* \"Story.sol\":9143:9161  likers[msg.sender] */\n      0xffffffffffffffffffffffffffffffffffffffff\n      and\n      0xffffffffffffffffffffffffffffffffffffffff\n      and\n      dup2\n      mstore\n      0x20\n      add\n      swap1\n      dup2\n      mstore\n      0x20\n      add\n      0x00\n      keccak256\n      0x00\n      swap1\n      sload\n      swap1\n      0x0100\n      exp\n      swap1\n      div\n      0xff\n      and\n        /* \"Story.sol\":9142:9161  !likers[msg.sender] */\n      iszero\n        /* \"Story.sol\":9134:9192  require(!likers[msg.sender],\"You liked this story before\") */\n      tag_86\n      jumpi\n      mload(0x40)\n      0x08c379a000000000000000000000000000000000000000000000000000000000\n      dup2\n      mstore\n      0x04\n      add\n      tag_87\n      swap1\n      tag_88\n      jump\t// in\n    tag_87:\n      mload(0x40)\n      dup1\n      swap2\n      sub\n      swap1\n      revert\n    tag_86:\n        /* \"Story.sol\":9224:9228  true */\n      0x01\n        /* \"Story.sol\":9203:9209  likers */\n      0x06\n        /* \"Story.sol\":9203:9221  likers[msg.sender] */\n      0x00\n        /* \"Story.sol\":9210:9220  msg.sender */\n      caller\n        /* \"Story.sol\":9203:9221  likers[msg.sender] */\n      0xffffffffffffffffffffffffffffffffffffffff\n      and\n      0xffffffffffffffffffffffffffffffffffffffff\n      and\n      dup2\n      mstore\n      0x20\n      add\n      swap1\n      dup2\n      mstore\n      0x20\n      add\n      0x00\n      keccak256\n      0x00\n        /* \"Story.sol\":9203:9228  likers[msg.sender] = true */\n      0x0100\n      exp\n      dup2\n      sload\n      dup2\n      0xff\n      mul\n      not\n      and\n      swap1\n      dup4\n      iszero\n      iszero\n      mul\n      or\n      swap1\n      sstore\n      pop\n        /* \"Story.sol\":9251:9267  likeCount.add(1) */\n      tag_89\n        /* \"Story.sol\":9265:9266  1 */\n      0x01\n        /* \"Story.sol\":9251:9260  likeCount */\n      sload(0x07)\n        /* \"Story.sol\":9251:9264  likeCount.add */\n      tag_90\n      swap1\n        /* \"Story.sol\":9251:9267  likeCount.add(1) */\n      swap2\n      swap1\n      0xffffffff\n      and\n      jump\t// in\n    tag_89:\n        /* \"Story.sol\":9239:9248  likeCount */\n      0x07\n        /* \"Story.sol\":9239:9267  likeCount = likeCount.add(1) */\n      dup2\n      swap1\n      sstore\n      pop\n        /* \"Story.sol\":9100:9275  function like() public {... */\n      jump\t// out\n        /* \"Story.sol\":7878:7899  address public author */\n    tag_37:\n      0x01\n      0x00\n      swap1\n      sload\n      swap1\n      0x0100\n      exp\n      swap1\n      div\n      0xffffffffffffffffffffffffffffffffffffffff\n      and\n      dup2\n      jump\t// out\n        /* \"Story.sol\":8005:8041  address[] public linkedChildChapters */\n    tag_42:\n      0x05\n      dup2\n      dup2\n      sload\n      dup2\n      lt\n      tag_91\n      jumpi\n      0x00\n      dup1\n      revert\n    tag_91:\n      swap1\n      0x00\n      mstore\n      keccak256(0x00, 0x20)\n      add\n      0x00\n      swap2\n      pop\n      sload\n      swap1\n      0x0100\n      exp\n      swap1\n      div\n      0xffffffffffffffffffffffffffffffffffffffff\n      and\n      dup2\n      jump\t// out\n        /* \"Story.sol\":7932:7954  string public ipfsHash */\n    tag_45:\n      0x03\n      dup1\n      sload\n      tag_93\n      swap1\n      tag_57\n      jump\t// in\n    tag_93:\n      dup1\n      0x1f\n      add\n      0x20\n      dup1\n      swap2\n      div\n      mul\n      0x20\n      add\n      mload(0x40)\n      swap1\n      dup2\n      add\n      0x40\n      mstore\n      dup1\n      swap3\n      swap2\n      swap1\n      dup2\n      dup2\n      mstore\n      0x20\n      add\n      dup3\n      dup1\n      sload\n      tag_94\n      swap1\n      tag_57\n      jump\t// in\n    tag_94:\n      dup1\n      iszero\n      tag_95\n      jumpi\n      dup1\n      0x1f\n      lt\n      tag_96\n      jumpi\n      0x0100\n      dup1\n      dup4\n      sload\n      div\n      mul\n      dup4\n      mstore\n      swap2\n      0x20\n      add\n      swap2\n      jump(tag_95)\n    tag_96:\n      dup3\n      add\n      swap2\n      swap1\n      0x00\n      mstore\n      keccak256(0x00, 0x20)\n      swap1\n    tag_97:\n      dup2\n      sload\n      dup2\n      mstore\n      swap1\n      0x01\n      add\n      swap1\n      0x20\n      add\n      dup1\n      dup4\n      gt\n      tag_97\n      jumpi\n      dup3\n      swap1\n      sub\n      0x1f\n      and\n      dup3\n      add\n      swap2\n    tag_95:\n      pop\n      pop\n      pop\n      pop\n      pop\n      dup2\n      jump\t// out\n        /* \"Story.sol\":8086:8110  uint256 public likeCount */\n    tag_48:\n      sload(0x07)\n      dup2\n      jump\t// out\n        /* \"Story.sol\":7961:7998  address[] public linkedParentChapters */\n    tag_53:\n      0x04\n      dup2\n      dup2\n      sload\n      dup2\n      lt\n      tag_98\n      jumpi\n      0x00\n      dup1\n      revert\n    tag_98:\n      swap1\n      0x00\n      mstore\n      keccak256(0x00, 0x20)\n      add\n      0x00\n      swap2\n      pop\n      sload\n      swap1\n      0x0100\n      exp\n      swap1\n      div\n      0xffffffffffffffffffffffffffffffffffffffff\n      and\n      dup2\n      jump\t// out\n        /* \"Story.sol\":84:263  function add(uint256 a, uint256 b) internal pure returns (uint256) {... */\n    tag_90:\n        /* \"Story.sol\":142:149  uint256 */\n      0x00\n        /* \"Story.sol\":162:171  uint256 c */\n      dup1\n        /* \"Story.sol\":178:179  b */\n      dup3\n        /* \"Story.sol\":174:175  a */\n      dup5\n        /* \"Story.sol\":174:179  a + b */\n      tag_101\n      swap2\n      swap1\n      tag_102\n      jump\t// in\n    tag_101:\n        /* \"Story.sol\":162:179  uint256 c = a + b */\n      swap1\n      pop\n        /* \"Story.sol\":203:204  a */\n      dup4\n        /* \"Story.sol\":198:199  c */\n      dup2\n        /* \"Story.sol\":198:204  c >= a */\n      lt\n      iszero\n        /* \"Story.sol\":190:236  require(c >= a, \"SafeMath: addition overflow\") */\n      tag_103\n      jumpi\n      mload(0x40)\n      0x08c379a000000000000000000000000000000000000000000000000000000000\n      dup2\n      mstore\n      0x04\n      add\n      tag_104\n      swap1\n      tag_105\n      jump\t// in\n    tag_104:\n      mload(0x40)\n      dup1\n      swap2\n      sub\n      swap1\n      revert\n    tag_103:\n        /* \"Story.sol\":254:255  c */\n      dup1\n        /* \"Story.sol\":247:255  return c */\n      swap2\n      pop\n      pop\n        /* \"Story.sol\":84:263  function add(uint256 a, uint256 b) internal pure returns (uint256) {... */\n      swap3\n      swap2\n      pop\n      pop\n      jump\t// out\n        /* \"#utility.yul\":7:133   */\n    tag_106:\n        /* \"#utility.yul\":44:51   */\n      0x00\n        /* \"#utility.yul\":84:126   */\n      0xffffffffffffffffffffffffffffffffffffffff\n        /* \"#utility.yul\":77:82   */\n      dup3\n        /* \"#utility.yul\":73:127   */\n      and\n        /* \"#utility.yul\":62:127   */\n      swap1\n      pop\n        /* \"#utility.yul\":7:133   */\n      swap2\n      swap1\n      pop\n      jump\t// out\n        /* \"#utility.yul\":139:235   */\n    tag_107:\n        /* \"#utility.yul\":176:183   */\n      0x00\n        /* \"#utility.yul\":205:229   */\n      tag_141\n        /* \"#utility.yul\":223:228   */\n      dup3\n        /* \"#utility.yul\":205:229   */\n      tag_106\n      jump\t// in\n    tag_141:\n        /* \"#utility.yul\":194:229   */\n      swap1\n      pop\n        /* \"#utility.yul\":139:235   */\n      swap2\n      swap1\n      pop\n      jump\t// out\n        /* \"#utility.yul\":241:359   */\n    tag_108:\n        /* \"#utility.yul\":328:352   */\n      tag_143\n        /* \"#utility.yul\":346:351   */\n      dup2\n        /* \"#utility.yul\":328:352   */\n      tag_107\n      jump\t// in\n    tag_143:\n        /* \"#utility.yul\":323:326   */\n      dup3\n        /* \"#utility.yul\":316:353   */\n      mstore\n        /* \"#utility.yul\":241:359   */\n      pop\n      pop\n      jump\t// out\n        /* \"#utility.yul\":365:464   */\n    tag_109:\n        /* \"#utility.yul\":417:423   */\n      0x00\n        /* \"#utility.yul\":451:456   */\n      dup2\n        /* \"#utility.yul\":445:457   */\n      mload\n        /* \"#utility.yul\":435:457   */\n      swap1\n      pop\n        /* \"#utility.yul\":365:464   */\n      swap2\n      swap1\n      pop\n      jump\t// out\n        /* \"#utility.yul\":470:639   */\n    tag_110:\n        /* \"#utility.yul\":554:565   */\n      0x00\n        /* \"#utility.yul\":588:594   */\n      dup3\n        /* \"#utility.yul\":583:586   */\n      dup3\n        /* \"#utility.yul\":576:595   */\n      mstore\n        /* \"#utility.yul\":628:632   */\n      0x20\n        /* \"#utility.yul\":623:626   */\n      dup3\n        /* \"#utility.yul\":619:633   */\n      add\n        /* \"#utility.yul\":604:633   */\n      swap1\n      pop\n        /* \"#utility.yul\":470:639   */\n      swap3\n      swap2\n      pop\n      pop\n      jump\t// out\n        /* \"#utility.yul\":645:952   */\n    tag_111:\n        /* \"#utility.yul\":713:714   */\n      0x00\n        /* \"#utility.yul\":723:836   */\n    tag_147:\n        /* \"#utility.yul\":737:743   */\n      dup4\n        /* \"#utility.yul\":734:735   */\n      dup2\n        /* \"#utility.yul\":731:744   */\n      lt\n        /* \"#utility.yul\":723:836   */\n      iszero\n      tag_149\n      jumpi\n        /* \"#utility.yul\":822:823   */\n      dup1\n        /* \"#utility.yul\":817:820   */\n      dup3\n        /* \"#utility.yul\":813:824   */\n      add\n        /* \"#utility.yul\":807:825   */\n      mload\n        /* \"#utility.yul\":803:804   */\n      dup2\n        /* \"#utility.yul\":798:801   */\n      dup5\n        /* \"#utility.yul\":794:805   */\n      add\n        /* \"#utility.yul\":787:826   */\n      mstore\n        /* \"#utility.yul\":759:761   */\n      0x20\n        /* \"#utility.yul\":756:757   */\n      dup2\n        /* \"#utility.yul\":752:762   */\n      add\n        /* \"#utility.yul\":747:762   */\n      swap1\n      pop\n        /* \"#utility.yul\":723:836   */\n      jump(tag_147)\n    tag_149:\n        /* \"#utility.yul\":854:860   */\n      dup4\n        /* \"#utility.yul\":851:852   */\n      dup2\n        /* \"#utility.yul\":848:861   */\n      gt\n        /* \"#utility.yul\":845:946   */\n      iszero\n      tag_150\n      jumpi\n        /* \"#utility.yul\":934:935   */\n      0x00\n        /* \"#utility.yul\":925:931   */\n      dup5\n        /* \"#utility.yul\":920:923   */\n      dup5\n        /* \"#utility.yul\":916:932   */\n      add\n        /* \"#utility.yul\":909:936   */\n      mstore\n        /* \"#utility.yul\":845:946   */\n    tag_150:\n        /* \"#utility.yul\":694:952   */\n      pop\n        /* \"#utility.yul\":645:952   */\n      pop\n      pop\n      pop\n      jump\t// out\n        /* \"#utility.yul\":958:1060   */\n    tag_112:\n        /* \"#utility.yul\":999:1005   */\n      0x00\n        /* \"#utility.yul\":1050:1052   */\n      0x1f\n        /* \"#utility.yul\":1046:1053   */\n      not\n        /* \"#utility.yul\":1041:1043   */\n      0x1f\n        /* \"#utility.yul\":1034:1039   */\n      dup4\n        /* \"#utility.yul\":1030:1044   */\n      add\n        /* \"#utility.yul\":1026:1054   */\n      and\n        /* \"#utility.yul\":1016:1054   */\n      swap1\n      pop\n        /* \"#utility.yul\":958:1060   */\n      swap2\n      swap1\n      pop\n      jump\t// out\n        /* \"#utility.yul\":1066:1430   */\n    tag_113:\n        /* \"#utility.yul\":1154:1157   */\n      0x00\n        /* \"#utility.yul\":1182:1221   */\n      tag_153\n        /* \"#utility.yul\":1215:1220   */\n      dup3\n        /* \"#utility.yul\":1182:1221   */\n      tag_109\n      jump\t// in\n    tag_153:\n        /* \"#utility.yul\":1237:1308   */\n      tag_154\n        /* \"#utility.yul\":1301:1307   */\n      dup2\n        /* \"#utility.yul\":1296:1299   */\n      dup6\n        /* \"#utility.yul\":1237:1308   */\n      tag_110\n      jump\t// in\n    tag_154:\n        /* \"#utility.yul\":1230:1308   */\n      swap4\n      pop\n        /* \"#utility.yul\":1317:1369   */\n      tag_155\n        /* \"#utility.yul\":1362:1368   */\n      dup2\n        /* \"#utility.yul\":1357:1360   */\n      dup6\n        /* \"#utility.yul\":1350:1354   */\n      0x20\n        /* \"#utility.yul\":1343:1348   */\n      dup7\n        /* \"#utility.yul\":1339:1355   */\n      add\n        /* \"#utility.yul\":1317:1369   */\n      tag_111\n      jump\t// in\n    tag_155:\n        /* \"#utility.yul\":1394:1423   */\n      tag_156\n        /* \"#utility.yul\":1416:1422   */\n      dup2\n        /* \"#utility.yul\":1394:1423   */\n      tag_112\n      jump\t// in\n    tag_156:\n        /* \"#utility.yul\":1389:1392   */\n      dup5\n        /* \"#utility.yul\":1385:1424   */\n      add\n        /* \"#utility.yul\":1378:1424   */\n      swap2\n      pop\n        /* \"#utility.yul\":1158:1430   */\n      pop\n        /* \"#utility.yul\":1066:1430   */\n      swap3\n      swap2\n      pop\n      pop\n      jump\t// out\n        /* \"#utility.yul\":1436:1550   */\n    tag_114:\n        /* \"#utility.yul\":1503:1509   */\n      0x00\n        /* \"#utility.yul\":1537:1542   */\n      dup2\n        /* \"#utility.yul\":1531:1543   */\n      mload\n        /* \"#utility.yul\":1521:1543   */\n      swap1\n      pop\n        /* \"#utility.yul\":1436:1550   */\n      swap2\n      swap1\n      pop\n      jump\t// out\n        /* \"#utility.yul\":1556:1740   */\n    tag_115:\n        /* \"#utility.yul\":1655:1666   */\n      0x00\n        /* \"#utility.yul\":1689:1695   */\n      dup3\n        /* \"#utility.yul\":1684:1687   */\n      dup3\n        /* \"#utility.yul\":1677:1696   */\n      mstore\n        /* \"#utility.yul\":1729:1733   */\n      0x20\n        /* \"#utility.yul\":1724:1727   */\n      dup3\n        /* \"#utility.yul\":1720:1734   */\n      add\n        /* \"#utility.yul\":1705:1734   */\n      swap1\n      pop\n        /* \"#utility.yul\":1556:1740   */\n      swap3\n      swap2\n      pop\n      pop\n      jump\t// out\n        /* \"#utility.yul\":1746:1878   */\n    tag_116:\n        /* \"#utility.yul\":1813:1817   */\n      0x00\n        /* \"#utility.yul\":1836:1839   */\n      dup2\n        /* \"#utility.yul\":1828:1839   */\n      swap1\n      pop\n        /* \"#utility.yul\":1866:1870   */\n      0x20\n        /* \"#utility.yul\":1861:1864   */\n      dup3\n        /* \"#utility.yul\":1857:1871   */\n      add\n        /* \"#utility.yul\":1849:1871   */\n      swap1\n      pop\n        /* \"#utility.yul\":1746:1878   */\n      swap2\n      swap1\n      pop\n      jump\t// out\n        /* \"#utility.yul\":1884:1992   */\n    tag_117:\n        /* \"#utility.yul\":1961:1985   */\n      tag_161\n        /* \"#utility.yul\":1979:1984   */\n      dup2\n        /* \"#utility.yul\":1961:1985   */\n      tag_107\n      jump\t// in\n    tag_161:\n        /* \"#utility.yul\":1956:1959   */\n      dup3\n        /* \"#utility.yul\":1949:1986   */\n      mstore\n        /* \"#utility.yul\":1884:1992   */\n      pop\n      pop\n      jump\t// out\n        /* \"#utility.yul\":1998:2177   */\n    tag_118:\n        /* \"#utility.yul\":2067:2077   */\n      0x00\n        /* \"#utility.yul\":2088:2134   */\n      tag_163\n        /* \"#utility.yul\":2130:2133   */\n      dup4\n        /* \"#utility.yul\":2122:2128   */\n      dup4\n        /* \"#utility.yul\":2088:2134   */\n      tag_117\n      jump\t// in\n    tag_163:\n        /* \"#utility.yul\":2166:2170   */\n      0x20\n        /* \"#utility.yul\":2161:2164   */\n      dup4\n        /* \"#utility.yul\":2157:2171   */\n      add\n        /* \"#utility.yul\":2143:2171   */\n      swap1\n      pop\n        /* \"#utility.yul\":1998:2177   */\n      swap3\n      swap2\n      pop\n      pop\n      jump\t// out\n        /* \"#utility.yul\":2183:2296   */\n    tag_119:\n        /* \"#utility.yul\":2253:2257   */\n      0x00\n        /* \"#utility.yul\":2285:2289   */\n      0x20\n        /* \"#utility.yul\":2280:2283   */\n      dup3\n        /* \"#utility.yul\":2276:2290   */\n      add\n        /* \"#utility.yul\":2268:2290   */\n      swap1\n      pop\n        /* \"#utility.yul\":2183:2296   */\n      swap2\n      swap1\n      pop\n      jump\t// out\n        /* \"#utility.yul\":2332:3064   */\n    tag_120:\n        /* \"#utility.yul\":2451:2454   */\n      0x00\n        /* \"#utility.yul\":2480:2534   */\n      tag_166\n        /* \"#utility.yul\":2528:2533   */\n      dup3\n        /* \"#utility.yul\":2480:2534   */\n      tag_114\n      jump\t// in\n    tag_166:\n        /* \"#utility.yul\":2550:2636   */\n      tag_167\n        /* \"#utility.yul\":2629:2635   */\n      dup2\n        /* \"#utility.yul\":2624:2627   */\n      dup6\n        /* \"#utility.yul\":2550:2636   */\n      tag_115\n      jump\t// in\n    tag_167:\n        /* \"#utility.yul\":2543:2636   */\n      swap4\n      pop\n        /* \"#utility.yul\":2660:2716   */\n      tag_168\n        /* \"#utility.yul\":2710:2715   */\n      dup4\n        /* \"#utility.yul\":2660:2716   */\n      tag_116\n      jump\t// in\n    tag_168:\n        /* \"#utility.yul\":2739:2746   */\n      dup1\n        /* \"#utility.yul\":2770:2771   */\n      0x00\n        /* \"#utility.yul\":2755:3039   */\n    tag_169:\n        /* \"#utility.yul\":2780:2786   */\n      dup4\n        /* \"#utility.yul\":2777:2778   */\n      dup2\n        /* \"#utility.yul\":2774:2787   */\n      lt\n        /* \"#utility.yul\":2755:3039   */\n      iszero\n      tag_171\n      jumpi\n        /* \"#utility.yul\":2856:2862   */\n      dup2\n        /* \"#utility.yul\":2850:2863   */\n      mload\n        /* \"#utility.yul\":2883:2946   */\n      tag_172\n        /* \"#utility.yul\":2942:2945   */\n      dup9\n        /* \"#utility.yul\":2927:2940   */\n      dup3\n        /* \"#utility.yul\":2883:2946   */\n      tag_118\n      jump\t// in\n    tag_172:\n        /* \"#utility.yul\":2876:2946   */\n      swap8\n      pop\n        /* \"#utility.yul\":2969:3029   */\n      tag_173\n        /* \"#utility.yul\":3022:3028   */\n      dup4\n        /* \"#utility.yul\":2969:3029   */\n      tag_119\n      jump\t// in\n    tag_173:\n        /* \"#utility.yul\":2959:3029   */\n      swap3\n      pop\n        /* \"#utility.yul\":2815:3039   */\n      pop\n        /* \"#utility.yul\":2802:2803   */\n      0x01\n        /* \"#utility.yul\":2799:2800   */\n      dup2\n        /* \"#utility.yul\":2795:2804   */\n      add\n        /* \"#utility.yul\":2790:2804   */\n      swap1\n      pop\n        /* \"#utility.yul\":2755:3039   */\n      jump(tag_169)\n    tag_171:\n        /* \"#utility.yul\":2759:2773   */\n      pop\n        /* \"#utility.yul\":3055:3058   */\n      dup6\n        /* \"#utility.yul\":3048:3058   */\n      swap4\n      pop\n        /* \"#utility.yul\":2456:3064   */\n      pop\n      pop\n      pop\n        /* \"#utility.yul\":2332:3064   */\n      swap3\n      swap2\n      pop\n      pop\n      jump\t// out\n        /* \"#utility.yul\":3070:3147   */\n    tag_121:\n        /* \"#utility.yul\":3107:3114   */\n      0x00\n        /* \"#utility.yul\":3136:3141   */\n      dup2\n        /* \"#utility.yul\":3125:3141   */\n      swap1\n      pop\n        /* \"#utility.yul\":3070:3147   */\n      swap2\n      swap1\n      pop\n      jump\t// out\n        /* \"#utility.yul\":3153:3271   */\n    tag_122:\n        /* \"#utility.yul\":3240:3264   */\n      tag_176\n        /* \"#utility.yul\":3258:3263   */\n      dup2\n        /* \"#utility.yul\":3240:3264   */\n      tag_121\n      jump\t// in\n    tag_176:\n        /* \"#utility.yul\":3235:3238   */\n      dup3\n        /* \"#utility.yul\":3228:3265   */\n      mstore\n        /* \"#utility.yul\":3153:3271   */\n      pop\n      pop\n      jump\t// out\n        /* \"#utility.yul\":3277:4647   */\n    tag_18:\n        /* \"#utility.yul\":3678:3682   */\n      0x00\n        /* \"#utility.yul\":3716:3719   */\n      0xe0\n        /* \"#utility.yul\":3705:3714   */\n      dup3\n        /* \"#utility.yul\":3701:3720   */\n      add\n        /* \"#utility.yul\":3693:3720   */\n      swap1\n      pop\n        /* \"#utility.yul\":3730:3801   */\n      tag_178\n        /* \"#utility.yul\":3798:3799   */\n      0x00\n        /* \"#utility.yul\":3787:3796   */\n      dup4\n        /* \"#utility.yul\":3783:3800   */\n      add\n        /* \"#utility.yul\":3774:3780   */\n      dup11\n        /* \"#utility.yul\":3730:3801   */\n      tag_108\n      jump\t// in\n    tag_178:\n        /* \"#utility.yul\":3811:3883   */\n      tag_179\n        /* \"#utility.yul\":3879:3881   */\n      0x20\n        /* \"#utility.yul\":3868:3877   */\n      dup4\n        /* \"#utility.yul\":3864:3882   */\n      add\n        /* \"#utility.yul\":3855:3861   */\n      dup10\n        /* \"#utility.yul\":3811:3883   */\n      tag_108\n      jump\t// in\n    tag_179:\n        /* \"#utility.yul\":3930:3939   */\n      dup2\n        /* \"#utility.yul\":3924:3928   */\n      dup2\n        /* \"#utility.yul\":3920:3940   */\n      sub\n        /* \"#utility.yul\":3915:3917   */\n      0x40\n        /* \"#utility.yul\":3904:3913   */\n      dup4\n        /* \"#utility.yul\":3900:3918   */\n      add\n        /* \"#utility.yul\":3893:3941   */\n      mstore\n        /* \"#utility.yul\":3958:4036   */\n      tag_180\n        /* \"#utility.yul\":4031:4035   */\n      dup2\n        /* \"#utility.yul\":4022:4028   */\n      dup9\n        /* \"#utility.yul\":3958:4036   */\n      tag_113\n      jump\t// in\n    tag_180:\n        /* \"#utility.yul\":3950:4036   */\n      swap1\n      pop\n        /* \"#utility.yul\":4083:4092   */\n      dup2\n        /* \"#utility.yul\":4077:4081   */\n      dup2\n        /* \"#utility.yul\":4073:4093   */\n      sub\n        /* \"#utility.yul\":4068:4070   */\n      0x60\n        /* \"#utility.yul\":4057:4066   */\n      dup4\n        /* \"#utility.yul\":4053:4071   */\n      add\n        /* \"#utility.yul\":4046:4094   */\n      mstore\n        /* \"#utility.yul\":4111:4189   */\n      tag_181\n        /* \"#utility.yul\":4184:4188   */\n      dup2\n        /* \"#utility.yul\":4175:4181   */\n      dup8\n        /* \"#utility.yul\":4111:4189   */\n      tag_113\n      jump\t// in\n    tag_181:\n        /* \"#utility.yul\":4103:4189   */\n      swap1\n      pop\n        /* \"#utility.yul\":4237:4246   */\n      dup2\n        /* \"#utility.yul\":4231:4235   */\n      dup2\n        /* \"#utility.yul\":4227:4247   */\n      sub\n        /* \"#utility.yul\":4221:4224   */\n      0x80\n        /* \"#utility.yul\":4210:4219   */\n      dup4\n        /* \"#utility.yul\":4206:4225   */\n      add\n        /* \"#utility.yul\":4199:4248   */\n      mstore\n        /* \"#utility.yul\":4265:4373   */\n      tag_182\n        /* \"#utility.yul\":4368:4372   */\n      dup2\n        /* \"#utility.yul\":4359:4365   */\n      dup7\n        /* \"#utility.yul\":4265:4373   */\n      tag_120\n      jump\t// in\n    tag_182:\n        /* \"#utility.yul\":4257:4373   */\n      swap1\n      pop\n        /* \"#utility.yul\":4421:4430   */\n      dup2\n        /* \"#utility.yul\":4415:4419   */\n      dup2\n        /* \"#utility.yul\":4411:4431   */\n      sub\n        /* \"#utility.yul\":4405:4408   */\n      0xa0\n        /* \"#utility.yul\":4394:4403   */\n      dup4\n        /* \"#utility.yul\":4390:4409   */\n      add\n        /* \"#utility.yul\":4383:4432   */\n      mstore\n        /* \"#utility.yul\":4449:4557   */\n      tag_183\n        /* \"#utility.yul\":4552:4556   */\n      dup2\n        /* \"#utility.yul\":4543:4549   */\n      dup6\n        /* \"#utility.yul\":4449:4557   */\n      tag_120\n      jump\t// in\n    tag_183:\n        /* \"#utility.yul\":4441:4557   */\n      swap1\n      pop\n        /* \"#utility.yul\":4567:4640   */\n      tag_184\n        /* \"#utility.yul\":4635:4638   */\n      0xc0\n        /* \"#utility.yul\":4624:4633   */\n      dup4\n        /* \"#utility.yul\":4620:4639   */\n      add\n        /* \"#utility.yul\":4611:4617   */\n      dup5\n        /* \"#utility.yul\":4567:4640   */\n      tag_122\n      jump\t// in\n    tag_184:\n        /* \"#utility.yul\":3277:4647   */\n      swap9\n      swap8\n      pop\n      pop\n      pop\n      pop\n      pop\n      pop\n      pop\n      pop\n      jump\t// out\n        /* \"#utility.yul\":4653:4875   */\n    tag_22:\n        /* \"#utility.yul\":4746:4750   */\n      0x00\n        /* \"#utility.yul\":4784:4786   */\n      0x20\n        /* \"#utility.yul\":4773:4782   */\n      dup3\n        /* \"#utility.yul\":4769:4787   */\n      add\n        /* \"#utility.yul\":4761:4787   */\n      swap1\n      pop\n        /* \"#utility.yul\":4797:4868   */\n      tag_186\n        /* \"#utility.yul\":4865:4866   */\n      0x00\n        /* \"#utility.yul\":4854:4863   */\n      dup4\n        /* \"#utility.yul\":4850:4867   */\n      add\n        /* \"#utility.yul\":4841:4847   */\n      dup5\n        /* \"#utility.yul\":4797:4868   */\n      tag_108\n      jump\t// in\n    tag_186:\n        /* \"#utility.yul\":4653:4875   */\n      swap3\n      swap2\n      pop\n      pop\n      jump\t// out\n        /* \"#utility.yul\":4881:5194   */\n    tag_26:\n        /* \"#utility.yul\":4994:4998   */\n      0x00\n        /* \"#utility.yul\":5032:5034   */\n      0x20\n        /* \"#utility.yul\":5021:5030   */\n      dup3\n        /* \"#utility.yul\":5017:5035   */\n      add\n        /* \"#utility.yul\":5009:5035   */\n      swap1\n      pop\n        /* \"#utility.yul\":5081:5090   */\n      dup2\n        /* \"#utility.yul\":5075:5079   */\n      dup2\n        /* \"#utility.yul\":5071:5091   */\n      sub\n        /* \"#utility.yul\":5067:5068   */\n      0x00\n        /* \"#utility.yul\":5056:5065   */\n      dup4\n        /* \"#utility.yul\":5052:5069   */\n      add\n        /* \"#utility.yul\":5045:5092   */\n      mstore\n        /* \"#utility.yul\":5109:5187   */\n      tag_188\n        /* \"#utility.yul\":5182:5186   */\n      dup2\n        /* \"#utility.yul\":5173:5179   */\n      dup5\n        /* \"#utility.yul\":5109:5187   */\n      tag_113\n      jump\t// in\n    tag_188:\n        /* \"#utility.yul\":5101:5187   */\n      swap1\n      pop\n        /* \"#utility.yul\":4881:5194   */\n      swap3\n      swap2\n      pop\n      pop\n      jump\t// out\n        /* \"#utility.yul\":5281:5398   */\n    tag_124:\n        /* \"#utility.yul\":5390:5391   */\n      0x00\n        /* \"#utility.yul\":5387:5388   */\n      dup1\n        /* \"#utility.yul\":5380:5392   */\n      revert\n        /* \"#utility.yul\":5527:5649   */\n    tag_126:\n        /* \"#utility.yul\":5600:5624   */\n      tag_193\n        /* \"#utility.yul\":5618:5623   */\n      dup2\n        /* \"#utility.yul\":5600:5624   */\n      tag_107\n      jump\t// in\n    tag_193:\n        /* \"#utility.yul\":5593:5598   */\n      dup2\n        /* \"#utility.yul\":5590:5625   */\n      eq\n        /* \"#utility.yul\":5580:5643   */\n      tag_194\n      jumpi\n        /* \"#utility.yul\":5639:5640   */\n      0x00\n        /* \"#utility.yul\":5636:5637   */\n      dup1\n        /* \"#utility.yul\":5629:5641   */\n      revert\n        /* \"#utility.yul\":5580:5643   */\n    tag_194:\n        /* \"#utility.yul\":5527:5649   */\n      pop\n      jump\t// out\n        /* \"#utility.yul\":5655:5794   */\n    tag_127:\n        /* \"#utility.yul\":5701:5706   */\n      0x00\n        /* \"#utility.yul\":5739:5745   */\n      dup2\n        /* \"#utility.yul\":5726:5746   */\n      calldataload\n        /* \"#utility.yul\":5717:5746   */\n      swap1\n      pop\n        /* \"#utility.yul\":5755:5788   */\n      tag_196\n        /* \"#utility.yul\":5782:5787   */\n      dup2\n        /* \"#utility.yul\":5755:5788   */\n      tag_126\n      jump\t// in\n    tag_196:\n        /* \"#utility.yul\":5655:5794   */\n      swap3\n      swap2\n      pop\n      pop\n      jump\t// out\n        /* \"#utility.yul\":5800:6129   */\n    tag_29:\n        /* \"#utility.yul\":5859:5865   */\n      0x00\n        /* \"#utility.yul\":5908:5910   */\n      0x20\n        /* \"#utility.yul\":5896:5905   */\n      dup3\n        /* \"#utility.yul\":5887:5894   */\n      dup5\n        /* \"#utility.yul\":5883:5906   */\n      sub\n        /* \"#utility.yul\":5879:5911   */\n      slt\n        /* \"#utility.yul\":5876:5995   */\n      iszero\n      tag_198\n      jumpi\n        /* \"#utility.yul\":5914:5993   */\n      tag_199\n      tag_124\n      jump\t// in\n    tag_199:\n        /* \"#utility.yul\":5876:5995   */\n    tag_198:\n        /* \"#utility.yul\":6034:6035   */\n      0x00\n        /* \"#utility.yul\":6059:6112   */\n      tag_200\n        /* \"#utility.yul\":6104:6111   */\n      dup5\n        /* \"#utility.yul\":6095:6101   */\n      dup3\n        /* \"#utility.yul\":6084:6093   */\n      dup6\n        /* \"#utility.yul\":6080:6102   */\n      add\n        /* \"#utility.yul\":6059:6112   */\n      tag_127\n      jump\t// in\n    tag_200:\n        /* \"#utility.yul\":6049:6112   */\n      swap2\n      pop\n        /* \"#utility.yul\":6005:6122   */\n      pop\n        /* \"#utility.yul\":5800:6129   */\n      swap3\n      swap2\n      pop\n      pop\n      jump\t// out\n        /* \"#utility.yul\":6135:6257   */\n    tag_128:\n        /* \"#utility.yul\":6208:6232   */\n      tag_202\n        /* \"#utility.yul\":6226:6231   */\n      dup2\n        /* \"#utility.yul\":6208:6232   */\n      tag_121\n      jump\t// in\n    tag_202:\n        /* \"#utility.yul\":6201:6206   */\n      dup2\n        /* \"#utility.yul\":6198:6233   */\n      eq\n        /* \"#utility.yul\":6188:6251   */\n      tag_203\n      jumpi\n        /* \"#utility.yul\":6247:6248   */\n      0x00\n        /* \"#utility.yul\":6244:6245   */\n      dup1\n        /* \"#utility.yul\":6237:6249   */\n      revert\n        /* \"#utility.yul\":6188:6251   */\n    tag_203:\n        /* \"#utility.yul\":6135:6257   */\n      pop\n      jump\t// out\n        /* \"#utility.yul\":6263:6402   */\n    tag_129:\n        /* \"#utility.yul\":6309:6314   */\n      0x00\n        /* \"#utility.yul\":6347:6353   */\n      dup2\n        /* \"#utility.yul\":6334:6354   */\n      calldataload\n        /* \"#utility.yul\":6325:6354   */\n      swap1\n      pop\n        /* \"#utility.yul\":6363:6396   */\n      tag_205\n        /* \"#utility.yul\":6390:6395   */\n      dup2\n        /* \"#utility.yul\":6363:6396   */\n      tag_128\n      jump\t// in\n    tag_205:\n        /* \"#utility.yul\":6263:6402   */\n      swap3\n      swap2\n      pop\n      pop\n      jump\t// out\n        /* \"#utility.yul\":6408:6737   */\n    tag_41:\n        /* \"#utility.yul\":6467:6473   */\n      0x00\n        /* \"#utility.yul\":6516:6518   */\n      0x20\n        /* \"#utility.yul\":6504:6513   */\n      dup3\n        /* \"#utility.yul\":6495:6502   */\n      dup5\n        /* \"#utility.yul\":6491:6514   */\n      sub\n        /* \"#utility.yul\":6487:6519   */\n      slt\n        /* \"#utility.yul\":6484:6603   */\n      iszero\n      tag_207\n      jumpi\n        /* \"#utility.yul\":6522:6601   */\n      tag_208\n      tag_124\n      jump\t// in\n    tag_208:\n        /* \"#utility.yul\":6484:6603   */\n    tag_207:\n        /* \"#utility.yul\":6642:6643   */\n      0x00\n        /* \"#utility.yul\":6667:6720   */\n      tag_209\n        /* \"#utility.yul\":6712:6719   */\n      dup5\n        /* \"#utility.yul\":6703:6709   */\n      dup3\n        /* \"#utility.yul\":6692:6701   */\n      dup6\n        /* \"#utility.yul\":6688:6710   */\n      add\n        /* \"#utility.yul\":6667:6720   */\n      tag_129\n      jump\t// in\n    tag_209:\n        /* \"#utility.yul\":6657:6720   */\n      swap2\n      pop\n        /* \"#utility.yul\":6613:6730   */\n      pop\n        /* \"#utility.yul\":6408:6737   */\n      swap3\n      swap2\n      pop\n      pop\n      jump\t// out\n        /* \"#utility.yul\":6743:6965   */\n    tag_50:\n        /* \"#utility.yul\":6836:6840   */\n      0x00\n        /* \"#utility.yul\":6874:6876   */\n      0x20\n        /* \"#utility.yul\":6863:6872   */\n      dup3\n        /* \"#utility.yul\":6859:6877   */\n      add\n        /* \"#utility.yul\":6851:6877   */\n      swap1\n      pop\n        /* \"#utility.yul\":6887:6958   */\n      tag_211\n        /* \"#utility.yul\":6955:6956   */\n      0x00\n        /* \"#utility.yul\":6944:6953   */\n      dup4\n        /* \"#utility.yul\":6940:6957   */\n      add\n        /* \"#utility.yul\":6931:6937   */\n      dup5\n        /* \"#utility.yul\":6887:6958   */\n      tag_122\n      jump\t// in\n    tag_211:\n        /* \"#utility.yul\":6743:6965   */\n      swap3\n      swap2\n      pop\n      pop\n      jump\t// out\n        /* \"#utility.yul\":6971:7151   */\n    tag_130:\n        /* \"#utility.yul\":7019:7096   */\n      0x4e487b7100000000000000000000000000000000000000000000000000000000\n        /* \"#utility.yul\":7016:7017   */\n      0x00\n        /* \"#utility.yul\":7009:7097   */\n      mstore\n        /* \"#utility.yul\":7116:7120   */\n      0x22\n        /* \"#utility.yul\":7113:7114   */\n      0x04\n        /* \"#utility.yul\":7106:7121   */\n      mstore\n        /* \"#utility.yul\":7140:7144   */\n      0x24\n        /* \"#utility.yul\":7137:7138   */\n      0x00\n        /* \"#utility.yul\":7130:7145   */\n      revert\n        /* \"#utility.yul\":7157:7477   */\n    tag_57:\n        /* \"#utility.yul\":7201:7207   */\n      0x00\n        /* \"#utility.yul\":7238:7239   */\n      0x02\n        /* \"#utility.yul\":7232:7236   */\n      dup3\n        /* \"#utility.yul\":7228:7240   */\n      div\n        /* \"#utility.yul\":7218:7240   */\n      swap1\n      pop\n        /* \"#utility.yul\":7285:7286   */\n      0x01\n        /* \"#utility.yul\":7279:7283   */\n      dup3\n        /* \"#utility.yul\":7275:7287   */\n      and\n        /* \"#utility.yul\":7306:7324   */\n      dup1\n        /* \"#utility.yul\":7296:7377   */\n      tag_214\n      jumpi\n        /* \"#utility.yul\":7362:7366   */\n      0x7f\n        /* \"#utility.yul\":7354:7360   */\n      dup3\n        /* \"#utility.yul\":7350:7367   */\n      and\n        /* \"#utility.yul\":7340:7367   */\n      swap2\n      pop\n        /* \"#utility.yul\":7296:7377   */\n    tag_214:\n        /* \"#utility.yul\":7424:7426   */\n      0x20\n        /* \"#utility.yul\":7416:7422   */\n      dup3\n        /* \"#utility.yul\":7413:7427   */\n      lt\n        /* \"#utility.yul\":7393:7411   */\n      dup2\n        /* \"#utility.yul\":7390:7428   */\n      eq\n        /* \"#utility.yul\":7387:7471   */\n      iszero\n      tag_215\n      jumpi\n        /* \"#utility.yul\":7443:7461   */\n      tag_216\n      tag_130\n      jump\t// in\n    tag_216:\n        /* \"#utility.yul\":7387:7471   */\n    tag_215:\n        /* \"#utility.yul\":7208:7477   */\n      pop\n        /* \"#utility.yul\":7157:7477   */\n      swap2\n      swap1\n      pop\n      jump\t// out\n        /* \"#utility.yul\":7483:7788   */\n    tag_131:\n        /* \"#utility.yul\":7623:7657   */\n      0x546869732066756e6374696f6e2068617320746f2062652063616c6c65642066\n        /* \"#utility.yul\":7619:7620   */\n      0x00\n        /* \"#utility.yul\":7611:7617   */\n      dup3\n        /* \"#utility.yul\":7607:7621   */\n      add\n        /* \"#utility.yul\":7600:7658   */\n      mstore\n        /* \"#utility.yul\":7692:7726   */\n      0x726f6d207468652073746f727920636f6e747261637420627920616e20616363\n        /* \"#utility.yul\":7687:7689   */\n      0x20\n        /* \"#utility.yul\":7679:7685   */\n      dup3\n        /* \"#utility.yul\":7675:7690   */\n      add\n        /* \"#utility.yul\":7668:7727   */\n      mstore\n        /* \"#utility.yul\":7761:7780   */\n      0x657074656420617574686f72206f6e6c79000000000000000000000000000000\n        /* \"#utility.yul\":7756:7758   */\n      0x40\n        /* \"#utility.yul\":7748:7754   */\n      dup3\n        /* \"#utility.yul\":7744:7759   */\n      add\n        /* \"#utility.yul\":7737:7781   */\n      mstore\n        /* \"#utility.yul\":7483:7788   */\n      pop\n      jump\t// out\n        /* \"#utility.yul\":7794:8160   */\n    tag_132:\n        /* \"#utility.yul\":7936:7939   */\n      0x00\n        /* \"#utility.yul\":7957:8024   */\n      tag_219\n        /* \"#utility.yul\":8021:8023   */\n      0x51\n        /* \"#utility.yul\":8016:8019   */\n      dup4\n        /* \"#utility.yul\":7957:8024   */\n      tag_110\n      jump\t// in\n    tag_219:\n        /* \"#utility.yul\":7950:8024   */\n      swap2\n      pop\n        /* \"#utility.yul\":8033:8126   */\n      tag_220\n        /* \"#utility.yul\":8122:8125   */\n      dup3\n        /* \"#utility.yul\":8033:8126   */\n      tag_131\n      jump\t// in\n    tag_220:\n        /* \"#utility.yul\":8151:8153   */\n      0x60\n        /* \"#utility.yul\":8146:8149   */\n      dup3\n        /* \"#utility.yul\":8142:8154   */\n      add\n        /* \"#utility.yul\":8135:8154   */\n      swap1\n      pop\n        /* \"#utility.yul\":7794:8160   */\n      swap2\n      swap1\n      pop\n      jump\t// out\n        /* \"#utility.yul\":8166:8585   */\n    tag_79:\n        /* \"#utility.yul\":8332:8336   */\n      0x00\n        /* \"#utility.yul\":8370:8372   */\n      0x20\n        /* \"#utility.yul\":8359:8368   */\n      dup3\n        /* \"#utility.yul\":8355:8373   */\n      add\n        /* \"#utility.yul\":8347:8373   */\n      swap1\n      pop\n        /* \"#utility.yul\":8419:8428   */\n      dup2\n        /* \"#utility.yul\":8413:8417   */\n      dup2\n        /* \"#utility.yul\":8409:8429   */\n      sub\n        /* \"#utility.yul\":8405:8406   */\n      0x00\n        /* \"#utility.yul\":8394:8403   */\n      dup4\n        /* \"#utility.yul\":8390:8407   */\n      add\n        /* \"#utility.yul\":8383:8430   */\n      mstore\n        /* \"#utility.yul\":8447:8578   */\n      tag_222\n        /* \"#utility.yul\":8573:8577   */\n      dup2\n        /* \"#utility.yul\":8447:8578   */\n      tag_132\n      jump\t// in\n    tag_222:\n        /* \"#utility.yul\":8439:8578   */\n      swap1\n      pop\n        /* \"#utility.yul\":8166:8585   */\n      swap2\n      swap1\n      pop\n      jump\t// out\n        /* \"#utility.yul\":8591:8768   */\n    tag_133:\n        /* \"#utility.yul\":8731:8760   */\n      0x596f75206c696b656420746869732073746f7279206265666f72650000000000\n        /* \"#utility.yul\":8727:8728   */\n      0x00\n        /* \"#utility.yul\":8719:8725   */\n      dup3\n        /* \"#utility.yul\":8715:8729   */\n      add\n        /* \"#utility.yul\":8708:8761   */\n      mstore\n        /* \"#utility.yul\":8591:8768   */\n      pop\n      jump\t// out\n        /* \"#utility.yul\":8774:9140   */\n    tag_134:\n        /* \"#utility.yul\":8916:8919   */\n      0x00\n        /* \"#utility.yul\":8937:9004   */\n      tag_225\n        /* \"#utility.yul\":9001:9003   */\n      0x1b\n        /* \"#utility.yul\":8996:8999   */\n      dup4\n        /* \"#utility.yul\":8937:9004   */\n      tag_110\n      jump\t// in\n    tag_225:\n        /* \"#utility.yul\":8930:9004   */\n      swap2\n      pop\n        /* \"#utility.yul\":9013:9106   */\n      tag_226\n        /* \"#utility.yul\":9102:9105   */\n      dup3\n        /* \"#utility.yul\":9013:9106   */\n      tag_133\n      jump\t// in\n    tag_226:\n        /* \"#utility.yul\":9131:9133   */\n      0x20\n        /* \"#utility.yul\":9126:9129   */\n      dup3\n        /* \"#utility.yul\":9122:9134   */\n      add\n        /* \"#utility.yul\":9115:9134   */\n      swap1\n      pop\n        /* \"#utility.yul\":8774:9140   */\n      swap2\n      swap1\n      pop\n      jump\t// out\n        /* \"#utility.yul\":9146:9565   */\n    tag_88:\n        /* \"#utility.yul\":9312:9316   */\n      0x00\n        /* \"#utility.yul\":9350:9352   */\n      0x20\n        /* \"#utility.yul\":9339:9348   */\n      dup3\n        /* \"#utility.yul\":9335:9353   */\n      add\n        /* \"#utility.yul\":9327:9353   */\n      swap1\n      pop\n        /* \"#utility.yul\":9399:9408   */\n      dup2\n        /* \"#utility.yul\":9393:9397   */\n      dup2\n        /* \"#utility.yul\":9389:9409   */\n      sub\n        /* \"#utility.yul\":9385:9386   */\n      0x00\n        /* \"#utility.yul\":9374:9383   */\n      dup4\n        /* \"#utility.yul\":9370:9387   */\n      add\n        /* \"#utility.yul\":9363:9410   */\n      mstore\n        /* \"#utility.yul\":9427:9558   */\n      tag_228\n        /* \"#utility.yul\":9553:9557   */\n      dup2\n        /* \"#utility.yul\":9427:9558   */\n      tag_134\n      jump\t// in\n    tag_228:\n        /* \"#utility.yul\":9419:9558   */\n      swap1\n      pop\n        /* \"#utility.yul\":9146:9565   */\n      swap2\n      swap1\n      pop\n      jump\t// out\n        /* \"#utility.yul\":9571:9751   */\n    tag_135:\n        /* \"#utility.yul\":9619:9696   */\n      0x4e487b7100000000000000000000000000000000000000000000000000000000\n        /* \"#utility.yul\":9616:9617   */\n      0x00\n        /* \"#utility.yul\":9609:9697   */\n      mstore\n        /* \"#utility.yul\":9716:9720   */\n      0x11\n        /* \"#utility.yul\":9713:9714   */\n      0x04\n        /* \"#utility.yul\":9706:9721   */\n      mstore\n        /* \"#utility.yul\":9740:9744   */\n      0x24\n        /* \"#utility.yul\":9737:9738   */\n      0x00\n        /* \"#utility.yul\":9730:9745   */\n      revert\n        /* \"#utility.yul\":9757:10062   */\n    tag_102:\n        /* \"#utility.yul\":9797:9800   */\n      0x00\n        /* \"#utility.yul\":9816:9836   */\n      tag_231\n        /* \"#utility.yul\":9834:9835   */\n      dup3\n        /* \"#utility.yul\":9816:9836   */\n      tag_121\n      jump\t// in\n    tag_231:\n        /* \"#utility.yul\":9811:9836   */\n      swap2\n      pop\n        /* \"#utility.yul\":9850:9870   */\n      tag_232\n        /* \"#utility.yul\":9868:9869   */\n      dup4\n        /* \"#utility.yul\":9850:9870   */\n      tag_121\n      jump\t// in\n    tag_232:\n        /* \"#utility.yul\":9845:9870   */\n      swap3\n      pop\n        /* \"#utility.yul\":10004:10005   */\n      dup3\n        /* \"#utility.yul\":9936:10002   */\n      0xffffffffffffffffffffffffffffffffffffffffffffffffffffffffffffffff\n        /* \"#utility.yul\":9932:10006   */\n      sub\n        /* \"#utility.yul\":9929:9930   */\n      dup3\n        /* \"#utility.yul\":9926:10007   */\n      gt\n        /* \"#utility.yul\":9923:10030   */\n      iszero\n      tag_233\n      jumpi\n        /* \"#utility.yul\":10010:10028   */\n      tag_234\n      tag_135\n      jump\t// in\n    tag_234:\n        /* \"#utility.yul\":9923:10030   */\n    tag_233:\n        /* \"#utility.yul\":10054:10055   */\n      dup3\n        /* \"#utility.yul\":10051:10052   */\n      dup3\n        /* \"#utility.yul\":10047:10056   */\n      add\n        /* \"#utility.yul\":10040:10056   */\n      swap1\n      pop\n        /* \"#utility.yul\":9757:10062   */\n      swap3\n      swap2\n      pop\n      pop\n      jump\t// out\n        /* \"#utility.yul\":10068:10245   */\n    tag_136:\n        /* \"#utility.yul\":10208:10237   */\n      0x536166654d6174683a206164646974696f6e206f766572666c6f770000000000\n        /* \"#utility.yul\":10204:10205   */\n      0x00\n        /* \"#utility.yul\":10196:10202   */\n      dup3\n        /* \"#utility.yul\":10192:10206   */\n      add\n        /* \"#utility.yul\":10185:10238   */\n      mstore\n        /* \"#utility.yul\":10068:10245   */\n      pop\n      jump\t// out\n        /* \"#utility.yul\":10251:10617   */\n    tag_137:\n        /* \"#utility.yul\":10393:10396   */\n      0x00\n        /* \"#utility.yul\":10414:10481   */\n      tag_237\n        /* \"#utility.yul\":10478:10480   */\n      0x1b\n        /* \"#utility.yul\":10473:10476   */\n      dup4\n        /* \"#utility.yul\":10414:10481   */\n      tag_110\n      jump\t// in\n    tag_237:\n        /* \"#utility.yul\":10407:10481   */\n      swap2\n      pop\n        /* \"#utility.yul\":10490:10583   */\n      tag_238\n        /* \"#utility.yul\":10579:10582   */\n      dup3\n        /* \"#utility.yul\":10490:10583   */\n      tag_136\n      jump\t// in\n    tag_238:\n        /* \"#utility.yul\":10608:10610   */\n      0x20\n        /* \"#utility.yul\":10603:10606   */\n      dup3\n        /* \"#utility.yul\":10599:10611   */\n      add\n        /* \"#utility.yul\":10592:10611   */\n      swap1\n      pop\n        /* \"#utility.yul\":10251:10617   */\n      swap2\n      swap1\n      pop\n      jump\t// out\n        /* \"#utility.yul\":10623:11042   */\n    tag_105:\n        /* \"#utility.yul\":10789:10793   */\n      0x00\n        /* \"#utility.yul\":10827:10829   */\n      0x20\n        /* \"#utility.yul\":10816:10825   */\n      dup3\n        /* \"#utility.yul\":10812:10830   */\n      add\n        /* \"#utility.yul\":10804:10830   */\n      swap1\n      pop\n        /* \"#utility.yul\":10876:10885   */\n      dup2\n        /* \"#utility.yul\":10870:10874   */\n      dup2\n        /* \"#utility.yul\":10866:10886   */\n      sub\n        /* \"#utility.yul\":10862:10863   */\n      0x00\n        /* \"#utility.yul\":10851:10860   */\n      dup4\n        /* \"#utility.yul\":10847:10864   */\n      add\n        /* \"#utility.yul\":10840:10887   */\n      mstore\n        /* \"#utility.yul\":10904:11035   */\n      tag_240\n        /* \"#utility.yul\":11030:11034   */\n      dup2\n        /* \"#utility.yul\":10904:11035   */\n      tag_137\n      jump\t// in\n    tag_240:\n        /* \"#utility.yul\":10896:11035   */\n      swap1\n      pop\n        /* \"#utility.yul\":10623:11042   */\n      swap2\n      swap1\n      pop\n      jump\t// out\n\n    auxdata: 0xa2646970667358221220b412b41f33819b1faabd91eb5686541bbae2b45d6b912b75d5a325871c7249ff64736f6c63430008090033\n}\n","bytecode":{"linkReferences":{},"object":"60806040523480156200001157600080fd5b50604051620015f7380380620015f78339818101604052810190620000379190620004da565b85600160006101000a81548173ffffffffffffffffffffffffffffffffffffffff021916908373ffffffffffffffffffffffffffffffffffffffff160217905550846000806101000a81548173ffffffffffffffffffffffffffffffffffffffff021916908373ffffffffffffffffffffffffffffffffffffffff1602179055508260039080519060200190620000d092919062000228565b508360029080519060200190620000e992919062000228565b50600073ffffffffffffffffffffffffffffffffffffffff168273ffffffffffffffffffffffffffffffffffffffff161462000183576004829080600181540180825580915050600190039060005260206000200160009091909190916101000a81548173ffffffffffffffffffffffffffffffffffffffff021916908373ffffffffffffffffffffffffffffffffffffffff1602179055505b600073ffffffffffffffffffffffffffffffffffffffff168173ffffffffffffffffffffffffffffffffffffffff16146200021c576005819080600181540180825580915050600190039060005260206000200160009091909190916101000a81548173ffffffffffffffffffffffffffffffffffffffff021916908373ffffffffffffffffffffffffffffffffffffffff1602179055505b50505050505062000619565b8280546200023690620005e3565b90600052602060002090601f0160209004810192826200025a5760008555620002a6565b82601f106200027557805160ff1916838001178555620002a6565b82800160010185558215620002a6579182015b82811115620002a557825182559160200191906001019062000288565b5b509050620002b59190620002b9565b5090565b5b80821115620002d4576000816000905550600101620002ba565b5090565b6000604051905090565b600080fd5b600080fd5b600073ffffffffffffffffffffffffffffffffffffffff82169050919050565b60006200031982620002ec565b9050919050565b6200032b816200030c565b81146200033757600080fd5b50565b6000815190506200034b8162000320565b92915050565b600080fd5b600080fd5b6000601f19601f8301169050919050565b7f4e487b7100000000000000000000000000000000000000000000000000000000600052604160045260246000fd5b620003a6826200035b565b810181811067ffffffffffffffff82111715620003c857620003c76200036c565b5b80604052505050565b6000620003dd620002d8565b9050620003eb82826200039b565b919050565b600067ffffffffffffffff8211156200040e576200040d6200036c565b5b62000419826200035b565b9050602081019050919050565b60005b838110156200044657808201518184015260208101905062000429565b8381111562000456576000848401525b50505050565b6000620004736200046d84620003f0565b620003d1565b90508281526020810184848401111562000492576200049162000356565b5b6200049f84828562000426565b509392505050565b600082601f830112620004bf57620004be62000351565b5b8151620004d18482602086016200045c565b91505092915050565b60008060008060008060c08789031215620004fa57620004f9620002e2565b5b60006200050a89828a016200033a565b96505060206200051d89828a016200033a565b955050604087015167ffffffffffffffff811115620005415762000540620002e7565b5b6200054f89828a01620004a7565b945050606087015167ffffffffffffffff811115620005735762000572620002e7565b5b6200058189828a01620004a7565b93505060806200059489828a016200033a565b92505060a0620005a789828a016200033a565b9150509295509295509295565b7f4e487b7100000000000000000000000000000000000000000000000000000000600052602260045260246000fd5b60006002820490506001821680620005fc57607f821691505b60208210811415620006135762000612620005b4565b5b50919050565b610fce80620006296000396000f3fe608060405234801561001057600080fd5b50600436106100a95760003560e01c8063a523b88a11610071578063a523b88a14610146578063a6c3e6b914610150578063c5fe6ffc1461016e578063c623674f1461019e578063e5a0af3d146101bc578063ed777791146101da576100a9565b80634051ddac146100ae57806346c922d1146100d25780634a79d50c146100f05780638758ce831461010e578063988e46c81461012a575b600080fd5b6100b661020a565b6040516100c99796959493929190610b88565b60405180910390f35b6100da6104a4565b6040516100e79190610c13565b60405180910390f35b6100f86104c8565b6040516101059190610c2e565b60405180910390f35b61012860048036038101906101239190610c81565b610556565b005b610144600480360381019061013f9190610c81565b61064a565b005b61014e61073e565b005b610158610841565b6040516101659190610c13565b60405180910390f35b61018860048036038101906101839190610cda565b610867565b6040516101959190610c13565b60405180910390f35b6101a66108a6565b6040516101b39190610c2e565b60405180910390f35b6101c4610934565b6040516101d19190610d07565b60405180910390f35b6101f460048036038101906101ef9190610cda565b61093a565b6040516102019190610c13565b60405180910390f35b60008060608060608060008060009054906101000a900473ffffffffffffffffffffffffffffffffffffffff16600160009054906101000a900473ffffffffffffffffffffffffffffffffffffffff16600260036004600560075484805461027190610d51565b80601f016020809104026020016040519081016040528092919081815260200182805461029d90610d51565b80156102ea5780601f106102bf576101008083540402835291602001916102ea565b820191906000526020600020905b8154815290600101906020018083116102cd57829003601f168201915b505050505094508380546102fd90610d51565b80601f016020809104026020016040519081016040528092919081815260200182805461032990610d51565b80156103765780601f1061034b57610100808354040283529160200191610376565b820191906000526020600020905b81548152906001019060200180831161035957829003601f168201915b50505050509350828054806020026020016040519081016040528092919081815260200182805480156103fe57602002820191906000526020600020905b8160009054906101000a900473ffffffffffffffffffffffffffffffffffffffff1673ffffffffffffffffffffffffffffffffffffffff16815260200190600101908083116103b4575b505050505092508180548060200260200160405190810160405280929190818152602001828054801561048657602002820191906000526020600020905b8160009054906101000a900473ffffffffffffffffffffffffffffffffffffffff1673ffffffffffffffffffffffffffffffffffffffff168152602001906001019080831161043c575b50505050509150965096509650965096509650965090919293949596565b60008054906101000a900473ffffffffffffffffffffffffffffffffffffffff1681565b600280546104d590610d51565b80601f016020809104026020016040519081016040528092919081815260200182805461050190610d51565b801561054e5780601f106105235761010080835404028352916020019161054e565b820191906000526020600020905b81548152906001019060200180831161053157829003601f168201915b505050505081565b60008054906101000a900473ffffffffffffffffffffffffffffffffffffffff1673ffffffffffffffffffffffffffffffffffffffff163373ffffffffffffffffffffffffffffffffffffffff16146105e4576040517f08c379a00000000000000000000000000000000000000000000000000000000081526004016105db90610e1b565b60405180910390fd5b6004819080600181540180825580915050600190039060005260206000200160009091909190916101000a81548173ffffffffffffffffffffffffffffffffffffffff021916908373ffffffffffffffffffffffffffffffffffffffff16021790555050565b60008054906101000a900473ffffffffffffffffffffffffffffffffffffffff1673ffffffffffffffffffffffffffffffffffffffff163373ffffffffffffffffffffffffffffffffffffffff16146106d8576040517f08c379a00000000000000000000000000000000000000000000000000000000081526004016106cf90610e1b565b60405180910390fd5b6005819080600181540180825580915050600190039060005260206000200160009091909190916101000a81548173ffffffffffffffffffffffffffffffffffffffff021916908373ffffffffffffffffffffffffffffffffffffffff16021790555050565b600660003373ffffffffffffffffffffffffffffffffffffffff1673ffffffffffffffffffffffffffffffffffffffff16815260200190815260200160002060009054906101000a900460ff16156107cb576040517f08c379a00000000000000000000000000000000000000000000000000000000081526004016107c290610e87565b60405180910390fd5b6001600660003373ffffffffffffffffffffffffffffffffffffffff1673ffffffffffffffffffffffffffffffffffffffff16815260200190815260200160002060006101000a81548160ff021916908315150217905550610839600160075461097990919063ffffffff16565b600781905550565b600160009054906101000a900473ffffffffffffffffffffffffffffffffffffffff1681565b6005818154811061087757600080fd5b906000526020600020016000915054906101000a900473ffffffffffffffffffffffffffffffffffffffff1681565b600380546108b390610d51565b80601f01602080910402602001604051908101604052809291908181526020018280546108df90610d51565b801561092c5780601f106109015761010080835404028352916020019161092c565b820191906000526020600020905b81548152906001019060200180831161090f57829003601f168201915b505050505081565b60075481565b6004818154811061094a57600080fd5b906000526020600020016000915054906101000a900473ffffffffffffffffffffffffffffffffffffffff1681565b60008082846109889190610ed6565b9050838110156109cd576040517f08c379a00000000000000000000000000000000000000000000000000000000081526004016109c490610f78565b60405180910390fd5b8091505092915050565b600073ffffffffffffffffffffffffffffffffffffffff82169050919050565b6000610a02826109d7565b9050919050565b610a12816109f7565b82525050565b600081519050919050565b600082825260208201905092915050565b60005b83811015610a52578082015181840152602081019050610a37565b83811115610a61576000848401525b50505050565b6000601f19601f8301169050919050565b6000610a8382610a18565b610a8d8185610a23565b9350610a9d818560208601610a34565b610aa681610a67565b840191505092915050565b600081519050919050565b600082825260208201905092915050565b6000819050602082019050919050565b610ae6816109f7565b82525050565b6000610af88383610add565b60208301905092915050565b6000602082019050919050565b6000610b1c82610ab1565b610b268185610abc565b9350610b3183610acd565b8060005b83811015610b62578151610b498882610aec565b9750610b5483610b04565b925050600181019050610b35565b5085935050505092915050565b6000819050919050565b610b8281610b6f565b82525050565b600060e082019050610b9d600083018a610a09565b610baa6020830189610a09565b8181036040830152610bbc8188610a78565b90508181036060830152610bd08187610a78565b90508181036080830152610be48186610b11565b905081810360a0830152610bf88185610b11565b9050610c0760c0830184610b79565b98975050505050505050565b6000602082019050610c286000830184610a09565b92915050565b60006020820190508181036000830152610c488184610a78565b905092915050565b600080fd5b610c5e816109f7565b8114610c6957600080fd5b50565b600081359050610c7b81610c55565b92915050565b600060208284031215610c9757610c96610c50565b5b6000610ca584828501610c6c565b91505092915050565b610cb781610b6f565b8114610cc257600080fd5b50565b600081359050610cd481610cae565b92915050565b600060208284031215610cf057610cef610c50565b5b6000610cfe84828501610cc5565b91505092915050565b6000602082019050610d1c6000830184610b79565b92915050565b7f4e487b7100000000000000000000000000000000000000000000000000000000600052602260045260246000fd5b60006002820490506001821680610d6957607f821691505b60208210811415610d7d57610d7c610d22565b5b50919050565b7f546869732066756e6374696f6e2068617320746f2062652063616c6c6564206660008201527f726f6d207468652073746f727920636f6e747261637420627920616e2061636360208201527f657074656420617574686f72206f6e6c79000000000000000000000000000000604082015250565b6000610e05605183610a23565b9150610e1082610d83565b606082019050919050565b60006020820190508181036000830152610e3481610df8565b9050919050565b7f596f75206c696b656420746869732073746f7279206265666f72650000000000600082015250565b6000610e71601b83610a23565b9150610e7c82610e3b565b602082019050919050565b60006020820190508181036000830152610ea081610e64565b9050919050565b7f4e487b7100000000000000000000000000000000000000000000000000000000600052601160045260246000fd5b6000610ee182610b6f565b9150610eec83610b6f565b9250827fffffffffffffffffffffffffffffffffffffffffffffffffffffffffffffffff03821115610f2157610f20610ea7565b5b828201905092915050565b7f536166654d6174683a206164646974696f6e206f766572666c6f770000000000600082015250565b6000610f62601b83610a23565b9150610f6d82610f2c565b602082019050919050565b60006020820190508181036000830152610f9181610f55565b905091905056fea2646970667358221220b412b41f33819b1faabd91eb5686541bbae2b45d6b912b75d5a325871c7249ff64736f6c63430008090033","opcodes":"PUSH1 0x80 PUSH1 0x40 MSTORE CALLVALUE DUP1 ISZERO PUSH3 0x11 JUMPI PUSH1 0x0 DUP1 REVERT JUMPDEST POP PUSH1 0x40 MLOAD PUSH3 0x15F7 CODESIZE SUB DUP1 PUSH3 0x15F7 DUP4 CODECOPY DUP2 DUP2 ADD PUSH1 0x40 MSTORE DUP2 ADD SWAP1 PUSH3 0x37 SWAP2 SWAP1 PUSH3 0x4DA JUMP JUMPDEST DUP6 PUSH1 0x1 PUSH1 0x0 PUSH2 0x100 EXP DUP2 SLOAD DUP2 PUSH20 0xFFFFFFFFFFFFFFFFFFFFFFFFFFFFFFFFFFFFFFFF MUL NOT AND SWAP1 DUP4 PUSH20 0xFFFFFFFFFFFFFFFFFFFFFFFFFFFFFFFFFFFFFFFF AND MUL OR SWAP1 SSTORE POP DUP5 PUSH1 0x0 DUP1 PUSH2 0x100 EXP DUP2 SLOAD DUP2 PUSH20 0xFFFFFFFFFFFFFFFFFFFFFFFFFFFFFFFFFFFFFFFF MUL NOT AND SWAP1 DUP4 PUSH20 0xFFFFFFFFFFFFFFFFFFFFFFFFFFFFFFFFFFFFFFFF AND MUL OR SWAP1 SSTORE POP DUP3 PUSH1 0x3 SWAP1 DUP1 MLOAD SWAP1 PUSH1 0x20 ADD SWAP1 PUSH3 0xD0 SWAP3 SWAP2 SWAP1 PUSH3 0x228 JUMP JUMPDEST POP DUP4 PUSH1 0x2 SWAP1 DUP1 MLOAD SWAP1 PUSH1 0x20 ADD SWAP1 PUSH3 0xE9 SWAP3 SWAP2 SWAP1 PUSH3 0x228 JUMP JUMPDEST POP PUSH1 0x0 PUSH20 0xFFFFFFFFFFFFFFFFFFFFFFFFFFFFFFFFFFFFFFFF AND DUP3 PUSH20 0xFFFFFFFFFFFFFFFFFFFFFFFFFFFFFFFFFFFFFFFF AND EQ PUSH3 0x183 JUMPI PUSH1 0x4 DUP3 SWAP1 DUP1 PUSH1 0x1 DUP2 SLOAD ADD DUP1 DUP3 SSTORE DUP1 SWAP2 POP POP PUSH1 0x1 SWAP1 SUB SWAP1 PUSH1 0x0 MSTORE PUSH1 0x20 PUSH1 0x0 KECCAK256 ADD PUSH1 0x0 SWAP1 SWAP2 SWAP1 SWAP2 SWAP1 SWAP2 PUSH2 0x100 EXP DUP2 SLOAD DUP2 PUSH20 0xFFFFFFFFFFFFFFFFFFFFFFFFFFFFFFFFFFFFFFFF MUL NOT AND SWAP1 DUP4 PUSH20 0xFFFFFFFFFFFFFFFFFFFFFFFFFFFFFFFFFFFFFFFF AND MUL OR SWAP1 SSTORE POP JUMPDEST PUSH1 0x0 PUSH20 0xFFFFFFFFFFFFFFFFFFFFFFFFFFFFFFFFFFFFFFFF AND DUP2 PUSH20 0xFFFFFFFFFFFFFFFFFFFFFFFFFFFFFFFFFFFFFFFF AND EQ PUSH3 0x21C JUMPI PUSH1 0x5 DUP2 SWAP1 DUP1 PUSH1 0x1 DUP2 SLOAD ADD DUP1 DUP3 SSTORE DUP1 SWAP2 POP POP PUSH1 0x1 SWAP1 SUB SWAP1 PUSH1 0x0 MSTORE PUSH1 0x20 PUSH1 0x0 KECCAK256 ADD PUSH1 0x0 SWAP1 SWAP2 SWAP1 SWAP2 SWAP1 SWAP2 PUSH2 0x100 EXP DUP2 SLOAD DUP2 PUSH20 0xFFFFFFFFFFFFFFFFFFFFFFFFFFFFFFFFFFFFFFFF MUL NOT AND SWAP1 DUP4 PUSH20 0xFFFFFFFFFFFFFFFFFFFFFFFFFFFFFFFFFFFFFFFF AND MUL OR SWAP1 SSTORE POP JUMPDEST POP POP POP POP POP POP PUSH3 0x619 JUMP JUMPDEST DUP3 DUP1 SLOAD PUSH3 0x236 SWAP1 PUSH3 0x5E3 JUMP JUMPDEST SWAP1 PUSH1 0x0 MSTORE PUSH1 0x20 PUSH1 0x0 KECCAK256 SWAP1 PUSH1 0x1F ADD PUSH1 0x20 SWAP1 DIV DUP2 ADD SWAP3 DUP3 PUSH3 0x25A JUMPI PUSH1 0x0 DUP6 SSTORE PUSH3 0x2A6 JUMP JUMPDEST DUP3 PUSH1 0x1F LT PUSH3 0x275 JUMPI DUP1 MLOAD PUSH1 0xFF NOT AND DUP4 DUP1 ADD OR DUP6 SSTORE PUSH3 0x2A6 JUMP JUMPDEST DUP3 DUP1 ADD PUSH1 0x1 ADD DUP6 SSTORE DUP3 ISZERO PUSH3 0x2A6 JUMPI SWAP2 DUP3 ADD JUMPDEST DUP3 DUP2 GT ISZERO PUSH3 0x2A5 JUMPI DUP3 MLOAD DUP3 SSTORE SWAP2 PUSH1 0x20 ADD SWAP2 SWAP1 PUSH1 0x1 ADD SWAP1 PUSH3 0x288 JUMP JUMPDEST JUMPDEST POP SWAP1 POP PUSH3 0x2B5 SWAP2 SWAP1 PUSH3 0x2B9 JUMP JUMPDEST POP SWAP1 JUMP JUMPDEST JUMPDEST DUP1 DUP3 GT ISZERO PUSH3 0x2D4 JUMPI PUSH1 0x0 DUP2 PUSH1 0x0 SWAP1 SSTORE POP PUSH1 0x1 ADD PUSH3 0x2BA JUMP JUMPDEST POP SWAP1 JUMP JUMPDEST PUSH1 0x0 PUSH1 0x40 MLOAD SWAP1 POP SWAP1 JUMP JUMPDEST PUSH1 0x0 DUP1 REVERT JUMPDEST PUSH1 0x0 DUP1 REVERT JUMPDEST PUSH1 0x0 PUSH20 0xFFFFFFFFFFFFFFFFFFFFFFFFFFFFFFFFFFFFFFFF DUP3 AND SWAP1 POP SWAP2 SWAP1 POP JUMP JUMPDEST PUSH1 0x0 PUSH3 0x319 DUP3 PUSH3 0x2EC JUMP JUMPDEST SWAP1 POP SWAP2 SWAP1 POP JUMP JUMPDEST PUSH3 0x32B DUP2 PUSH3 0x30C JUMP JUMPDEST DUP2 EQ PUSH3 0x337 JUMPI PUSH1 0x0 DUP1 REVERT JUMPDEST POP JUMP JUMPDEST PUSH1 0x0 DUP2 MLOAD SWAP1 POP PUSH3 0x34B DUP2 PUSH3 0x320 JUMP JUMPDEST SWAP3 SWAP2 POP POP JUMP JUMPDEST PUSH1 0x0 DUP1 REVERT JUMPDEST PUSH1 0x0 DUP1 REVERT JUMPDEST PUSH1 0x0 PUSH1 0x1F NOT PUSH1 0x1F DUP4 ADD AND SWAP1 POP SWAP2 SWAP1 POP JUMP JUMPDEST PUSH32 0x4E487B7100000000000000000000000000000000000000000000000000000000 PUSH1 0x0 MSTORE PUSH1 0x41 PUSH1 0x4 MSTORE PUSH1 0x24 PUSH1 0x0 REVERT JUMPDEST PUSH3 0x3A6 DUP3 PUSH3 0x35B JUMP JUMPDEST DUP2 ADD DUP2 DUP2 LT PUSH8 0xFFFFFFFFFFFFFFFF DUP3 GT OR ISZERO PUSH3 0x3C8 JUMPI PUSH3 0x3C7 PUSH3 0x36C JUMP JUMPDEST JUMPDEST DUP1 PUSH1 0x40 MSTORE POP POP POP JUMP JUMPDEST PUSH1 0x0 PUSH3 0x3DD PUSH3 0x2D8 JUMP JUMPDEST SWAP1 POP PUSH3 0x3EB DUP3 DUP3 PUSH3 0x39B JUMP JUMPDEST SWAP2 SWAP1 POP JUMP JUMPDEST PUSH1 0x0 PUSH8 0xFFFFFFFFFFFFFFFF DUP3 GT ISZERO PUSH3 0x40E JUMPI PUSH3 0x40D PUSH3 0x36C JUMP JUMPDEST JUMPDEST PUSH3 0x419 DUP3 PUSH3 0x35B JUMP JUMPDEST SWAP1 POP PUSH1 0x20 DUP2 ADD SWAP1 POP SWAP2 SWAP1 POP JUMP JUMPDEST PUSH1 0x0 JUMPDEST DUP4 DUP2 LT ISZERO PUSH3 0x446 JUMPI DUP1 DUP3 ADD MLOAD DUP2 DUP5 ADD MSTORE PUSH1 0x20 DUP2 ADD SWAP1 POP PUSH3 0x429 JUMP JUMPDEST DUP4 DUP2 GT ISZERO PUSH3 0x456 JUMPI PUSH1 0x0 DUP5 DUP5 ADD MSTORE JUMPDEST POP POP POP POP JUMP JUMPDEST PUSH1 0x0 PUSH3 0x473 PUSH3 0x46D DUP5 PUSH3 0x3F0 JUMP JUMPDEST PUSH3 0x3D1 JUMP JUMPDEST SWAP1 POP DUP3 DUP2 MSTORE PUSH1 0x20 DUP2 ADD DUP5 DUP5 DUP5 ADD GT ISZERO PUSH3 0x492 JUMPI PUSH3 0x491 PUSH3 0x356 JUMP JUMPDEST JUMPDEST PUSH3 0x49F DUP5 DUP3 DUP6 PUSH3 0x426 JUMP JUMPDEST POP SWAP4 SWAP3 POP POP POP JUMP JUMPDEST PUSH1 0x0 DUP3 PUSH1 0x1F DUP4 ADD SLT PUSH3 0x4BF JUMPI PUSH3 0x4BE PUSH3 0x351 JUMP JUMPDEST JUMPDEST DUP2 MLOAD PUSH3 0x4D1 DUP5 DUP3 PUSH1 0x20 DUP7 ADD PUSH3 0x45C JUMP JUMPDEST SWAP2 POP POP SWAP3 SWAP2 POP POP JUMP JUMPDEST PUSH1 0x0 DUP1 PUSH1 0x0 DUP1 PUSH1 0x0 DUP1 PUSH1 0xC0 DUP8 DUP10 SUB SLT ISZERO PUSH3 0x4FA JUMPI PUSH3 0x4F9 PUSH3 0x2E2 JUMP JUMPDEST JUMPDEST PUSH1 0x0 PUSH3 0x50A DUP10 DUP3 DUP11 ADD PUSH3 0x33A JUMP JUMPDEST SWAP7 POP POP PUSH1 0x20 PUSH3 0x51D DUP10 DUP3 DUP11 ADD PUSH3 0x33A JUMP JUMPDEST SWAP6 POP POP PUSH1 0x40 DUP8 ADD MLOAD PUSH8 0xFFFFFFFFFFFFFFFF DUP2 GT ISZERO PUSH3 0x541 JUMPI PUSH3 0x540 PUSH3 0x2E7 JUMP JUMPDEST JUMPDEST PUSH3 0x54F DUP10 DUP3 DUP11 ADD PUSH3 0x4A7 JUMP JUMPDEST SWAP5 POP POP PUSH1 0x60 DUP8 ADD MLOAD PUSH8 0xFFFFFFFFFFFFFFFF DUP2 GT ISZERO PUSH3 0x573 JUMPI PUSH3 0x572 PUSH3 0x2E7 JUMP JUMPDEST JUMPDEST PUSH3 0x581 DUP10 DUP3 DUP11 ADD PUSH3 0x4A7 JUMP JUMPDEST SWAP4 POP POP PUSH1 0x80 PUSH3 0x594 DUP10 DUP3 DUP11 ADD PUSH3 0x33A JUMP JUMPDEST SWAP3 POP POP PUSH1 0xA0 PUSH3 0x5A7 DUP10 DUP3 DUP11 ADD PUSH3 0x33A JUMP JUMPDEST SWAP2 POP POP SWAP3 SWAP6 POP SWAP3 SWAP6 POP SWAP3 SWAP6 JUMP JUMPDEST PUSH32 0x4E487B7100000000000000000000000000000000000000000000000000000000 PUSH1 0x0 MSTORE PUSH1 0x22 PUSH1 0x4 MSTORE PUSH1 0x24 PUSH1 0x0 REVERT JUMPDEST PUSH1 0x0 PUSH1 0x2 DUP3 DIV SWAP1 POP PUSH1 0x1 DUP3 AND DUP1 PUSH3 0x5FC JUMPI PUSH1 0x7F DUP3 AND SWAP2 POP JUMPDEST PUSH1 0x20 DUP3 LT DUP2 EQ ISZERO PUSH3 0x613 JUMPI PUSH3 0x612 PUSH3 0x5B4 JUMP JUMPDEST JUMPDEST POP SWAP2 SWAP1 POP JUMP JUMPDEST PUSH2 0xFCE DUP1 PUSH3 0x629 PUSH1 0x0 CODECOPY PUSH1 0x0 RETURN INVALID PUSH1 0x80 PUSH1 0x40 MSTORE CALLVALUE DUP1 ISZERO PUSH2 0x10 JUMPI PUSH1 0x0 DUP1 REVERT JUMPDEST POP PUSH1 0x4 CALLDATASIZE LT PUSH2 0xA9 JUMPI PUSH1 0x0 CALLDATALOAD PUSH1 0xE0 SHR DUP1 PUSH4 0xA523B88A GT PUSH2 0x71 JUMPI DUP1 PUSH4 0xA523B88A EQ PUSH2 0x146 JUMPI DUP1 PUSH4 0xA6C3E6B9 EQ PUSH2 0x150 JUMPI DUP1 PUSH4 0xC5FE6FFC EQ PUSH2 0x16E JUMPI DUP1 PUSH4 0xC623674F EQ PUSH2 0x19E JUMPI DUP1 PUSH4 0xE5A0AF3D EQ PUSH2 0x1BC JUMPI DUP1 PUSH4 0xED777791 EQ PUSH2 0x1DA JUMPI PUSH2 0xA9 JUMP JUMPDEST DUP1 PUSH4 0x4051DDAC EQ PUSH2 0xAE JUMPI DUP1 PUSH4 0x46C922D1 EQ PUSH2 0xD2 JUMPI DUP1 PUSH4 0x4A79D50C EQ PUSH2 0xF0 JUMPI DUP1 PUSH4 0x8758CE83 EQ PUSH2 0x10E JUMPI DUP1 PUSH4 0x988E46C8 EQ PUSH2 0x12A JUMPI JUMPDEST PUSH1 0x0 DUP1 REVERT JUMPDEST PUSH2 0xB6 PUSH2 0x20A JUMP JUMPDEST PUSH1 0x40 MLOAD PUSH2 0xC9 SWAP8 SWAP7 SWAP6 SWAP5 SWAP4 SWAP3 SWAP2 SWAP1 PUSH2 0xB88 JUMP JUMPDEST PUSH1 0x40 MLOAD DUP1 SWAP2 SUB SWAP1 RETURN JUMPDEST PUSH2 0xDA PUSH2 0x4A4 JUMP JUMPDEST PUSH1 0x40 MLOAD PUSH2 0xE7 SWAP2 SWAP1 PUSH2 0xC13 JUMP JUMPDEST PUSH1 0x40 MLOAD DUP1 SWAP2 SUB SWAP1 RETURN JUMPDEST PUSH2 0xF8 PUSH2 0x4C8 JUMP JUMPDEST PUSH1 0x40 MLOAD PUSH2 0x105 SWAP2 SWAP1 PUSH2 0xC2E JUMP JUMPDEST PUSH1 0x40 MLOAD DUP1 SWAP2 SUB SWAP1 RETURN JUMPDEST PUSH2 0x128 PUSH1 0x4 DUP1 CALLDATASIZE SUB DUP2 ADD SWAP1 PUSH2 0x123 SWAP2 SWAP1 PUSH2 0xC81 JUMP JUMPDEST PUSH2 0x556 JUMP JUMPDEST STOP JUMPDEST PUSH2 0x144 PUSH1 0x4 DUP1 CALLDATASIZE SUB DUP2 ADD SWAP1 PUSH2 0x13F SWAP2 SWAP1 PUSH2 0xC81 JUMP JUMPDEST PUSH2 0x64A JUMP JUMPDEST STOP JUMPDEST PUSH2 0x14E PUSH2 0x73E JUMP JUMPDEST STOP JUMPDEST PUSH2 0x158 PUSH2 0x841 JUMP JUMPDEST PUSH1 0x40 MLOAD PUSH2 0x165 SWAP2 SWAP1 PUSH2 0xC13 JUMP JUMPDEST PUSH1 0x40 MLOAD DUP1 SWAP2 SUB SWAP1 RETURN JUMPDEST PUSH2 0x188 PUSH1 0x4 DUP1 CALLDATASIZE SUB DUP2 ADD SWAP1 PUSH2 0x183 SWAP2 SWAP1 PUSH2 0xCDA JUMP JUMPDEST PUSH2 0x867 JUMP JUMPDEST PUSH1 0x40 MLOAD PUSH2 0x195 SWAP2 SWAP1 PUSH2 0xC13 JUMP JUMPDEST PUSH1 0x40 MLOAD DUP1 SWAP2 SUB SWAP1 RETURN JUMPDEST PUSH2 0x1A6 PUSH2 0x8A6 JUMP JUMPDEST PUSH1 0x40 MLOAD PUSH2 0x1B3 SWAP2 SWAP1 PUSH2 0xC2E JUMP JUMPDEST PUSH1 0x40 MLOAD DUP1 SWAP2 SUB SWAP1 RETURN JUMPDEST PUSH2 0x1C4 PUSH2 0x934 JUMP JUMPDEST PUSH1 0x40 MLOAD PUSH2 0x1D1 SWAP2 SWAP1 PUSH2 0xD07 JUMP JUMPDEST PUSH1 0x40 MLOAD DUP1 SWAP2 SUB SWAP1 RETURN JUMPDEST PUSH2 0x1F4 PUSH1 0x4 DUP1 CALLDATASIZE SUB DUP2 ADD SWAP1 PUSH2 0x1EF SWAP2 SWAP1 PUSH2 0xCDA JUMP JUMPDEST PUSH2 0x93A JUMP JUMPDEST PUSH1 0x40 MLOAD PUSH2 0x201 SWAP2 SWAP1 PUSH2 0xC13 JUMP JUMPDEST PUSH1 0x40 MLOAD DUP1 SWAP2 SUB SWAP1 RETURN JUMPDEST PUSH1 0x0 DUP1 PUSH1 0x60 DUP1 PUSH1 0x60 DUP1 PUSH1 0x0 DUP1 PUSH1 0x0 SWAP1 SLOAD SWAP1 PUSH2 0x100 EXP SWAP1 DIV PUSH20 0xFFFFFFFFFFFFFFFFFFFFFFFFFFFFFFFFFFFFFFFF AND PUSH1 0x1 PUSH1 0x0 SWAP1 SLOAD SWAP1 PUSH2 0x100 EXP SWAP1 DIV PUSH20 0xFFFFFFFFFFFFFFFFFFFFFFFFFFFFFFFFFFFFFFFF AND PUSH1 0x2 PUSH1 0x3 PUSH1 0x4 PUSH1 0x5 PUSH1 0x7 SLOAD DUP5 DUP1 SLOAD PUSH2 0x271 SWAP1 PUSH2 0xD51 JUMP JUMPDEST DUP1 PUSH1 0x1F ADD PUSH1 0x20 DUP1 SWAP2 DIV MUL PUSH1 0x20 ADD PUSH1 0x40 MLOAD SWAP1 DUP2 ADD PUSH1 0x40 MSTORE DUP1 SWAP3 SWAP2 SWAP1 DUP2 DUP2 MSTORE PUSH1 0x20 ADD DUP3 DUP1 SLOAD PUSH2 0x29D SWAP1 PUSH2 0xD51 JUMP JUMPDEST DUP1 ISZERO PUSH2 0x2EA JUMPI DUP1 PUSH1 0x1F LT PUSH2 0x2BF JUMPI PUSH2 0x100 DUP1 DUP4 SLOAD DIV MUL DUP4 MSTORE SWAP2 PUSH1 0x20 ADD SWAP2 PUSH2 0x2EA JUMP JUMPDEST DUP3 ADD SWAP2 SWAP1 PUSH1 0x0 MSTORE PUSH1 0x20 PUSH1 0x0 KECCAK256 SWAP1 JUMPDEST DUP2 SLOAD DUP2 MSTORE SWAP1 PUSH1 0x1 ADD SWAP1 PUSH1 0x20 ADD DUP1 DUP4 GT PUSH2 0x2CD JUMPI DUP3 SWAP1 SUB PUSH1 0x1F AND DUP3 ADD SWAP2 JUMPDEST POP POP POP POP POP SWAP5 POP DUP4 DUP1 SLOAD PUSH2 0x2FD SWAP1 PUSH2 0xD51 JUMP JUMPDEST DUP1 PUSH1 0x1F ADD PUSH1 0x20 DUP1 SWAP2 DIV MUL PUSH1 0x20 ADD PUSH1 0x40 MLOAD SWAP1 DUP2 ADD PUSH1 0x40 MSTORE DUP1 SWAP3 SWAP2 SWAP1 DUP2 DUP2 MSTORE PUSH1 0x20 ADD DUP3 DUP1 SLOAD PUSH2 0x329 SWAP1 PUSH2 0xD51 JUMP JUMPDEST DUP1 ISZERO PUSH2 0x376 JUMPI DUP1 PUSH1 0x1F LT PUSH2 0x34B JUMPI PUSH2 0x100 DUP1 DUP4 SLOAD DIV MUL DUP4 MSTORE SWAP2 PUSH1 0x20 ADD SWAP2 PUSH2 0x376 JUMP JUMPDEST DUP3 ADD SWAP2 SWAP1 PUSH1 0x0 MSTORE PUSH1 0x20 PUSH1 0x0 KECCAK256 SWAP1 JUMPDEST DUP2 SLOAD DUP2 MSTORE SWAP1 PUSH1 0x1 ADD SWAP1 PUSH1 0x20 ADD DUP1 DUP4 GT PUSH2 0x359 JUMPI DUP3 SWAP1 SUB PUSH1 0x1F AND DUP3 ADD SWAP2 JUMPDEST POP POP POP POP POP SWAP4 POP DUP3 DUP1 SLOAD DUP1 PUSH1 0x20 MUL PUSH1 0x20 ADD PUSH1 0x40 MLOAD SWAP1 DUP2 ADD PUSH1 0x40 MSTORE DUP1 SWAP3 SWAP2 SWAP1 DUP2 DUP2 MSTORE PUSH1 0x20 ADD DUP3 DUP1 SLOAD DUP1 ISZERO PUSH2 0x3FE JUMPI PUSH1 0x20 MUL DUP3 ADD SWAP2 SWAP1 PUSH1 0x0 MSTORE PUSH1 0x20 PUSH1 0x0 KECCAK256 SWAP1 JUMPDEST DUP2 PUSH1 0x0 SWAP1 SLOAD SWAP1 PUSH2 0x100 EXP SWAP1 DIV PUSH20 0xFFFFFFFFFFFFFFFFFFFFFFFFFFFFFFFFFFFFFFFF AND PUSH20 0xFFFFFFFFFFFFFFFFFFFFFFFFFFFFFFFFFFFFFFFF AND DUP2 MSTORE PUSH1 0x20 ADD SWAP1 PUSH1 0x1 ADD SWAP1 DUP1 DUP4 GT PUSH2 0x3B4 JUMPI JUMPDEST POP POP POP POP POP SWAP3 POP DUP2 DUP1 SLOAD DUP1 PUSH1 0x20 MUL PUSH1 0x20 ADD PUSH1 0x40 MLOAD SWAP1 DUP2 ADD PUSH1 0x40 MSTORE DUP1 SWAP3 SWAP2 SWAP1 DUP2 DUP2 MSTORE PUSH1 0x20 ADD DUP3 DUP1 SLOAD DUP1 ISZERO PUSH2 0x486 JUMPI PUSH1 0x20 MUL DUP3 ADD SWAP2 SWAP1 PUSH1 0x0 MSTORE PUSH1 0x20 PUSH1 0x0 KECCAK256 SWAP1 JUMPDEST DUP2 PUSH1 0x0 SWAP1 SLOAD SWAP1 PUSH2 0x100 EXP SWAP1 DIV PUSH20 0xFFFFFFFFFFFFFFFFFFFFFFFFFFFFFFFFFFFFFFFF AND PUSH20 0xFFFFFFFFFFFFFFFFFFFFFFFFFFFFFFFFFFFFFFFF AND DUP2 MSTORE PUSH1 0x20 ADD SWAP1 PUSH1 0x1 ADD SWAP1 DUP1 DUP4 GT PUSH2 0x43C JUMPI JUMPDEST POP POP POP POP POP SWAP2 POP SWAP7 POP SWAP7 POP SWAP7 POP SWAP7 POP SWAP7 POP SWAP7 POP SWAP7 POP SWAP1 SWAP2 SWAP3 SWAP4 SWAP5 SWAP6 SWAP7 JUMP JUMPDEST PUSH1 0x0 DUP1 SLOAD SWAP1 PUSH2 0x100 EXP SWAP1 DIV PUSH20 0xFFFFFFFFFFFFFFFFFFFFFFFFFFFFFFFFFFFFFFFF AND DUP2 JUMP JUMPDEST PUSH1 0x2 DUP1 SLOAD PUSH2 0x4D5 SWAP1 PUSH2 0xD51 JUMP JUMPDEST DUP1 PUSH1 0x1F ADD PUSH1 0x20 DUP1 SWAP2 DIV MUL PUSH1 0x20 ADD PUSH1 0x40 MLOAD SWAP1 DUP2 ADD PUSH1 0x40 MSTORE DUP1 SWAP3 SWAP2 SWAP1 DUP2 DUP2 MSTORE PUSH1 0x20 ADD DUP3 DUP1 SLOAD PUSH2 0x501 SWAP1 PUSH2 0xD51 JUMP JUMPDEST DUP1 ISZERO PUSH2 0x54E JUMPI DUP1 PUSH1 0x1F LT PUSH2 0x523 JUMPI PUSH2 0x100 DUP1 DUP4 SLOAD DIV MUL DUP4 MSTORE SWAP2 PUSH1 0x20 ADD SWAP2 PUSH2 0x54E JUMP JUMPDEST DUP3 ADD SWAP2 SWAP1 PUSH1 0x0 MSTORE PUSH1 0x20 PUSH1 0x0 KECCAK256 SWAP1 JUMPDEST DUP2 SLOAD DUP2 MSTORE SWAP1 PUSH1 0x1 ADD SWAP1 PUSH1 0x20 ADD DUP1 DUP4 GT PUSH2 0x531 JUMPI DUP3 SWAP1 SUB PUSH1 0x1F AND DUP3 ADD SWAP2 JUMPDEST POP POP POP POP POP DUP2 JUMP JUMPDEST PUSH1 0x0 DUP1 SLOAD SWAP1 PUSH2 0x100 EXP SWAP1 DIV PUSH20 0xFFFFFFFFFFFFFFFFFFFFFFFFFFFFFFFFFFFFFFFF AND PUSH20 0xFFFFFFFFFFFFFFFFFFFFFFFFFFFFFFFFFFFFFFFF AND CALLER PUSH20 0xFFFFFFFFFFFFFFFFFFFFFFFFFFFFFFFFFFFFFFFF AND EQ PUSH2 0x5E4 JUMPI PUSH1 0x40 MLOAD PUSH32 0x8C379A000000000000000000000000000000000000000000000000000000000 DUP2 MSTORE PUSH1 0x4 ADD PUSH2 0x5DB SWAP1 PUSH2 0xE1B JUMP JUMPDEST PUSH1 0x40 MLOAD DUP1 SWAP2 SUB SWAP1 REVERT JUMPDEST PUSH1 0x4 DUP2 SWAP1 DUP1 PUSH1 0x1 DUP2 SLOAD ADD DUP1 DUP3 SSTORE DUP1 SWAP2 POP POP PUSH1 0x1 SWAP1 SUB SWAP1 PUSH1 0x0 MSTORE PUSH1 0x20 PUSH1 0x0 KECCAK256 ADD PUSH1 0x0 SWAP1 SWAP2 SWAP1 SWAP2 SWAP1 SWAP2 PUSH2 0x100 EXP DUP2 SLOAD DUP2 PUSH20 0xFFFFFFFFFFFFFFFFFFFFFFFFFFFFFFFFFFFFFFFF MUL NOT AND SWAP1 DUP4 PUSH20 0xFFFFFFFFFFFFFFFFFFFFFFFFFFFFFFFFFFFFFFFF AND MUL OR SWAP1 SSTORE POP POP JUMP JUMPDEST PUSH1 0x0 DUP1 SLOAD SWAP1 PUSH2 0x100 EXP SWAP1 DIV PUSH20 0xFFFFFFFFFFFFFFFFFFFFFFFFFFFFFFFFFFFFFFFF AND PUSH20 0xFFFFFFFFFFFFFFFFFFFFFFFFFFFFFFFFFFFFFFFF AND CALLER PUSH20 0xFFFFFFFFFFFFFFFFFFFFFFFFFFFFFFFFFFFFFFFF AND EQ PUSH2 0x6D8 JUMPI PUSH1 0x40 MLOAD PUSH32 0x8C379A000000000000000000000000000000000000000000000000000000000 DUP2 MSTORE PUSH1 0x4 ADD PUSH2 0x6CF SWAP1 PUSH2 0xE1B JUMP JUMPDEST PUSH1 0x40 MLOAD DUP1 SWAP2 SUB SWAP1 REVERT JUMPDEST PUSH1 0x5 DUP2 SWAP1 DUP1 PUSH1 0x1 DUP2 SLOAD ADD DUP1 DUP3 SSTORE DUP1 SWAP2 POP POP PUSH1 0x1 SWAP1 SUB SWAP1 PUSH1 0x0 MSTORE PUSH1 0x20 PUSH1 0x0 KECCAK256 ADD PUSH1 0x0 SWAP1 SWAP2 SWAP1 SWAP2 SWAP1 SWAP2 PUSH2 0x100 EXP DUP2 SLOAD DUP2 PUSH20 0xFFFFFFFFFFFFFFFFFFFFFFFFFFFFFFFFFFFFFFFF MUL NOT AND SWAP1 DUP4 PUSH20 0xFFFFFFFFFFFFFFFFFFFFFFFFFFFFFFFFFFFFFFFF AND MUL OR SWAP1 SSTORE POP POP JUMP JUMPDEST PUSH1 0x6 PUSH1 0x0 CALLER PUSH20 0xFFFFFFFFFFFFFFFFFFFFFFFFFFFFFFFFFFFFFFFF AND PUSH20 0xFFFFFFFFFFFFFFFFFFFFFFFFFFFFFFFFFFFFFFFF AND DUP2 MSTORE PUSH1 0x20 ADD SWAP1 DUP2 MSTORE PUSH1 0x20 ADD PUSH1 0x0 KECCAK256 PUSH1 0x0 SWAP1 SLOAD SWAP1 PUSH2 0x100 EXP SWAP1 DIV PUSH1 0xFF AND ISZERO PUSH2 0x7CB JUMPI PUSH1 0x40 MLOAD PUSH32 0x8C379A000000000000000000000000000000000000000000000000000000000 DUP2 MSTORE PUSH1 0x4 ADD PUSH2 0x7C2 SWAP1 PUSH2 0xE87 JUMP JUMPDEST PUSH1 0x40 MLOAD DUP1 SWAP2 SUB SWAP1 REVERT JUMPDEST PUSH1 0x1 PUSH1 0x6 PUSH1 0x0 CALLER PUSH20 0xFFFFFFFFFFFFFFFFFFFFFFFFFFFFFFFFFFFFFFFF AND PUSH20 0xFFFFFFFFFFFFFFFFFFFFFFFFFFFFFFFFFFFFFFFF AND DUP2 MSTORE PUSH1 0x20 ADD SWAP1 DUP2 MSTORE PUSH1 0x20 ADD PUSH1 0x0 KECCAK256 PUSH1 0x0 PUSH2 0x100 EXP DUP2 SLOAD DUP2 PUSH1 0xFF MUL NOT AND SWAP1 DUP4 ISZERO ISZERO MUL OR SWAP1 SSTORE POP PUSH2 0x839 PUSH1 0x1 PUSH1 0x7 SLOAD PUSH2 0x979 SWAP1 SWAP2 SWAP1 PUSH4 0xFFFFFFFF AND JUMP JUMPDEST PUSH1 0x7 DUP2 SWAP1 SSTORE POP JUMP JUMPDEST PUSH1 0x1 PUSH1 0x0 SWAP1 SLOAD SWAP1 PUSH2 0x100 EXP SWAP1 DIV PUSH20 0xFFFFFFFFFFFFFFFFFFFFFFFFFFFFFFFFFFFFFFFF AND DUP2 JUMP JUMPDEST PUSH1 0x5 DUP2 DUP2 SLOAD DUP2 LT PUSH2 0x877 JUMPI PUSH1 0x0 DUP1 REVERT JUMPDEST SWAP1 PUSH1 0x0 MSTORE PUSH1 0x20 PUSH1 0x0 KECCAK256 ADD PUSH1 0x0 SWAP2 POP SLOAD SWAP1 PUSH2 0x100 EXP SWAP1 DIV PUSH20 0xFFFFFFFFFFFFFFFFFFFFFFFFFFFFFFFFFFFFFFFF AND DUP2 JUMP JUMPDEST PUSH1 0x3 DUP1 SLOAD PUSH2 0x8B3 SWAP1 PUSH2 0xD51 JUMP JUMPDEST DUP1 PUSH1 0x1F ADD PUSH1 0x20 DUP1 SWAP2 DIV MUL PUSH1 0x20 ADD PUSH1 0x40 MLOAD SWAP1 DUP2 ADD PUSH1 0x40 MSTORE DUP1 SWAP3 SWAP2 SWAP1 DUP2 DUP2 MSTORE PUSH1 0x20 ADD DUP3 DUP1 SLOAD PUSH2 0x8DF SWAP1 PUSH2 0xD51 JUMP JUMPDEST DUP1 ISZERO PUSH2 0x92C JUMPI DUP1 PUSH1 0x1F LT PUSH2 0x901 JUMPI PUSH2 0x100 DUP1 DUP4 SLOAD DIV MUL DUP4 MSTORE SWAP2 PUSH1 0x20 ADD SWAP2 PUSH2 0x92C JUMP JUMPDEST DUP3 ADD SWAP2 SWAP1 PUSH1 0x0 MSTORE PUSH1 0x20 PUSH1 0x0 KECCAK256 SWAP1 JUMPDEST DUP2 SLOAD DUP2 MSTORE SWAP1 PUSH1 0x1 ADD SWAP1 PUSH1 0x20 ADD DUP1 DUP4 GT PUSH2 0x90F JUMPI DUP3 SWAP1 SUB PUSH1 0x1F AND DUP3 ADD SWAP2 JUMPDEST POP POP POP POP POP DUP2 JUMP JUMPDEST PUSH1 0x7 SLOAD DUP2 JUMP JUMPDEST PUSH1 0x4 DUP2 DUP2 SLOAD DUP2 LT PUSH2 0x94A JUMPI PUSH1 0x0 DUP1 REVERT JUMPDEST SWAP1 PUSH1 0x0 MSTORE PUSH1 0x20 PUSH1 0x0 KECCAK256 ADD PUSH1 0x0 SWAP2 POP SLOAD SWAP1 PUSH2 0x100 EXP SWAP1 DIV PUSH20 0xFFFFFFFFFFFFFFFFFFFFFFFFFFFFFFFFFFFFFFFF AND DUP2 JUMP JUMPDEST PUSH1 0x0 DUP1 DUP3 DUP5 PUSH2 0x988 SWAP2 SWAP1 PUSH2 0xED6 JUMP JUMPDEST SWAP1 POP DUP4 DUP2 LT ISZERO PUSH2 0x9CD JUMPI PUSH1 0x40 MLOAD PUSH32 0x8C379A000000000000000000000000000000000000000000000000000000000 DUP2 MSTORE PUSH1 0x4 ADD PUSH2 0x9C4 SWAP1 PUSH2 0xF78 JUMP JUMPDEST PUSH1 0x40 MLOAD DUP1 SWAP2 SUB SWAP1 REVERT JUMPDEST DUP1 SWAP2 POP POP SWAP3 SWAP2 POP POP JUMP JUMPDEST PUSH1 0x0 PUSH20 0xFFFFFFFFFFFFFFFFFFFFFFFFFFFFFFFFFFFFFFFF DUP3 AND SWAP1 POP SWAP2 SWAP1 POP JUMP JUMPDEST PUSH1 0x0 PUSH2 0xA02 DUP3 PUSH2 0x9D7 JUMP JUMPDEST SWAP1 POP SWAP2 SWAP1 POP JUMP JUMPDEST PUSH2 0xA12 DUP2 PUSH2 0x9F7 JUMP JUMPDEST DUP3 MSTORE POP POP JUMP JUMPDEST PUSH1 0x0 DUP2 MLOAD SWAP1 POP SWAP2 SWAP1 POP JUMP JUMPDEST PUSH1 0x0 DUP3 DUP3 MSTORE PUSH1 0x20 DUP3 ADD SWAP1 POP SWAP3 SWAP2 POP POP JUMP JUMPDEST PUSH1 0x0 JUMPDEST DUP4 DUP2 LT ISZERO PUSH2 0xA52 JUMPI DUP1 DUP3 ADD MLOAD DUP2 DUP5 ADD MSTORE PUSH1 0x20 DUP2 ADD SWAP1 POP PUSH2 0xA37 JUMP JUMPDEST DUP4 DUP2 GT ISZERO PUSH2 0xA61 JUMPI PUSH1 0x0 DUP5 DUP5 ADD MSTORE JUMPDEST POP POP POP POP JUMP JUMPDEST PUSH1 0x0 PUSH1 0x1F NOT PUSH1 0x1F DUP4 ADD AND SWAP1 POP SWAP2 SWAP1 POP JUMP JUMPDEST PUSH1 0x0 PUSH2 0xA83 DUP3 PUSH2 0xA18 JUMP JUMPDEST PUSH2 0xA8D DUP2 DUP6 PUSH2 0xA23 JUMP JUMPDEST SWAP4 POP PUSH2 0xA9D DUP2 DUP6 PUSH1 0x20 DUP7 ADD PUSH2 0xA34 JUMP JUMPDEST PUSH2 0xAA6 DUP2 PUSH2 0xA67 JUMP JUMPDEST DUP5 ADD SWAP2 POP POP SWAP3 SWAP2 POP POP JUMP JUMPDEST PUSH1 0x0 DUP2 MLOAD SWAP1 POP SWAP2 SWAP1 POP JUMP JUMPDEST PUSH1 0x0 DUP3 DUP3 MSTORE PUSH1 0x20 DUP3 ADD SWAP1 POP SWAP3 SWAP2 POP POP JUMP JUMPDEST PUSH1 0x0 DUP2 SWAP1 POP PUSH1 0x20 DUP3 ADD SWAP1 POP SWAP2 SWAP1 POP JUMP JUMPDEST PUSH2 0xAE6 DUP2 PUSH2 0x9F7 JUMP JUMPDEST DUP3 MSTORE POP POP JUMP JUMPDEST PUSH1 0x0 PUSH2 0xAF8 DUP4 DUP4 PUSH2 0xADD JUMP JUMPDEST PUSH1 0x20 DUP4 ADD SWAP1 POP SWAP3 SWAP2 POP POP JUMP JUMPDEST PUSH1 0x0 PUSH1 0x20 DUP3 ADD SWAP1 POP SWAP2 SWAP1 POP JUMP JUMPDEST PUSH1 0x0 PUSH2 0xB1C DUP3 PUSH2 0xAB1 JUMP JUMPDEST PUSH2 0xB26 DUP2 DUP6 PUSH2 0xABC JUMP JUMPDEST SWAP4 POP PUSH2 0xB31 DUP4 PUSH2 0xACD JUMP JUMPDEST DUP1 PUSH1 0x0 JUMPDEST DUP4 DUP2 LT ISZERO PUSH2 0xB62 JUMPI DUP2 MLOAD PUSH2 0xB49 DUP9 DUP3 PUSH2 0xAEC JUMP JUMPDEST SWAP8 POP PUSH2 0xB54 DUP4 PUSH2 0xB04 JUMP JUMPDEST SWAP3 POP POP PUSH1 0x1 DUP2 ADD SWAP1 POP PUSH2 0xB35 JUMP JUMPDEST POP DUP6 SWAP4 POP POP POP POP SWAP3 SWAP2 POP POP JUMP JUMPDEST PUSH1 0x0 DUP2 SWAP1 POP SWAP2 SWAP1 POP JUMP JUMPDEST PUSH2 0xB82 DUP2 PUSH2 0xB6F JUMP JUMPDEST DUP3 MSTORE POP POP JUMP JUMPDEST PUSH1 0x0 PUSH1 0xE0 DUP3 ADD SWAP1 POP PUSH2 0xB9D PUSH1 0x0 DUP4 ADD DUP11 PUSH2 0xA09 JUMP JUMPDEST PUSH2 0xBAA PUSH1 0x20 DUP4 ADD DUP10 PUSH2 0xA09 JUMP JUMPDEST DUP2 DUP2 SUB PUSH1 0x40 DUP4 ADD MSTORE PUSH2 0xBBC DUP2 DUP9 PUSH2 0xA78 JUMP JUMPDEST SWAP1 POP DUP2 DUP2 SUB PUSH1 0x60 DUP4 ADD MSTORE PUSH2 0xBD0 DUP2 DUP8 PUSH2 0xA78 JUMP JUMPDEST SWAP1 POP DUP2 DUP2 SUB PUSH1 0x80 DUP4 ADD MSTORE PUSH2 0xBE4 DUP2 DUP7 PUSH2 0xB11 JUMP JUMPDEST SWAP1 POP DUP2 DUP2 SUB PUSH1 0xA0 DUP4 ADD MSTORE PUSH2 0xBF8 DUP2 DUP6 PUSH2 0xB11 JUMP JUMPDEST SWAP1 POP PUSH2 0xC07 PUSH1 0xC0 DUP4 ADD DUP5 PUSH2 0xB79 JUMP JUMPDEST SWAP9 SWAP8 POP POP POP POP POP POP POP POP JUMP JUMPDEST PUSH1 0x0 PUSH1 0x20 DUP3 ADD SWAP1 POP PUSH2 0xC28 PUSH1 0x0 DUP4 ADD DUP5 PUSH2 0xA09 JUMP JUMPDEST SWAP3 SWAP2 POP POP JUMP JUMPDEST PUSH1 0x0 PUSH1 0x20 DUP3 ADD SWAP1 POP DUP2 DUP2 SUB PUSH1 0x0 DUP4 ADD MSTORE PUSH2 0xC48 DUP2 DUP5 PUSH2 0xA78 JUMP JUMPDEST SWAP1 POP SWAP3 SWAP2 POP POP JUMP JUMPDEST PUSH1 0x0 DUP1 REVERT JUMPDEST PUSH2 0xC5E DUP2 PUSH2 0x9F7 JUMP JUMPDEST DUP2 EQ PUSH2 0xC69 JUMPI PUSH1 0x0 DUP1 REVERT JUMPDEST POP JUMP JUMPDEST PUSH1 0x0 DUP2 CALLDATALOAD SWAP1 POP PUSH2 0xC7B DUP2 PUSH2 0xC55 JUMP JUMPDEST SWAP3 SWAP2 POP POP JUMP JUMPDEST PUSH1 0x0 PUSH1 0x20 DUP3 DUP5 SUB SLT ISZERO PUSH2 0xC97 JUMPI PUSH2 0xC96 PUSH2 0xC50 JUMP JUMPDEST JUMPDEST PUSH1 0x0 PUSH2 0xCA5 DUP5 DUP3 DUP6 ADD PUSH2 0xC6C JUMP JUMPDEST SWAP2 POP POP SWAP3 SWAP2 POP POP JUMP JUMPDEST PUSH2 0xCB7 DUP2 PUSH2 0xB6F JUMP JUMPDEST DUP2 EQ PUSH2 0xCC2 JUMPI PUSH1 0x0 DUP1 REVERT JUMPDEST POP JUMP JUMPDEST PUSH1 0x0 DUP2 CALLDATALOAD SWAP1 POP PUSH2 0xCD4 DUP2 PUSH2 0xCAE JUMP JUMPDEST SWAP3 SWAP2 POP POP JUMP JUMPDEST PUSH1 0x0 PUSH1 0x20 DUP3 DUP5 SUB SLT ISZERO PUSH2 0xCF0 JUMPI PUSH2 0xCEF PUSH2 0xC50 JUMP JUMPDEST JUMPDEST PUSH1 0x0 PUSH2 0xCFE DUP5 DUP3 DUP6 ADD PUSH2 0xCC5 JUMP JUMPDEST SWAP2 POP POP SWAP3 SWAP2 POP POP JUMP JUMPDEST PUSH1 0x0 PUSH1 0x20 DUP3 ADD SWAP1 POP PUSH2 0xD1C PUSH1 0x0 DUP4 ADD DUP5 PUSH2 0xB79 JUMP JUMPDEST SWAP3 SWAP2 POP POP JUMP JUMPDEST PUSH32 0x4E487B7100000000000000000000000000000000000000000000000000000000 PUSH1 0x0 MSTORE PUSH1 0x22 PUSH1 0x4 MSTORE PUSH1 0x24 PUSH1 0x0 REVERT JUMPDEST PUSH1 0x0 PUSH1 0x2 DUP3 DIV SWAP1 POP PUSH1 0x1 DUP3 AND DUP1 PUSH2 0xD69 JUMPI PUSH1 0x7F DUP3 AND SWAP2 POP JUMPDEST PUSH1 0x20 DUP3 LT DUP2 EQ ISZERO PUSH2 0xD7D JUMPI PUSH2 0xD7C PUSH2 0xD22 JUMP JUMPDEST JUMPDEST POP SWAP2 SWAP1 POP JUMP JUMPDEST PUSH32 0x546869732066756E6374696F6E2068617320746F2062652063616C6C65642066 PUSH1 0x0 DUP3 ADD MSTORE PUSH32 0x726F6D207468652073746F727920636F6E747261637420627920616E20616363 PUSH1 0x20 DUP3 ADD MSTORE PUSH32 0x657074656420617574686F72206F6E6C79000000000000000000000000000000 PUSH1 0x40 DUP3 ADD MSTORE POP JUMP JUMPDEST PUSH1 0x0 PUSH2 0xE05 PUSH1 0x51 DUP4 PUSH2 0xA23 JUMP JUMPDEST SWAP2 POP PUSH2 0xE10 DUP3 PUSH2 0xD83 JUMP JUMPDEST PUSH1 0x60 DUP3 ADD SWAP1 POP SWAP2 SWAP1 POP JUMP JUMPDEST PUSH1 0x0 PUSH1 0x20 DUP3 ADD SWAP1 POP DUP2 DUP2 SUB PUSH1 0x0 DUP4 ADD MSTORE PUSH2 0xE34 DUP2 PUSH2 0xDF8 JUMP JUMPDEST SWAP1 POP SWAP2 SWAP1 POP JUMP JUMPDEST PUSH32 0x596F75206C696B656420746869732073746F7279206265666F72650000000000 PUSH1 0x0 DUP3 ADD MSTORE POP JUMP JUMPDEST PUSH1 0x0 PUSH2 0xE71 PUSH1 0x1B DUP4 PUSH2 0xA23 JUMP JUMPDEST SWAP2 POP PUSH2 0xE7C DUP3 PUSH2 0xE3B JUMP JUMPDEST PUSH1 0x20 DUP3 ADD SWAP1 POP SWAP2 SWAP1 POP JUMP JUMPDEST PUSH1 0x0 PUSH1 0x20 DUP3 ADD SWAP1 POP DUP2 DUP2 SUB PUSH1 0x0 DUP4 ADD MSTORE PUSH2 0xEA0 DUP2 PUSH2 0xE64 JUMP JUMPDEST SWAP1 POP SWAP2 SWAP1 POP JUMP JUMPDEST PUSH32 0x4E487B7100000000000000000000000000000000000000000000000000000000 PUSH1 0x0 MSTORE PUSH1 0x11 PUSH1 0x4 MSTORE PUSH1 0x24 PUSH1 0x0 REVERT JUMPDEST PUSH1 0x0 PUSH2 0xEE1 DUP3 PUSH2 0xB6F JUMP JUMPDEST SWAP2 POP PUSH2 0xEEC DUP4 PUSH2 0xB6F JUMP JUMPDEST SWAP3 POP DUP3 PUSH32 0xFFFFFFFFFFFFFFFFFFFFFFFFFFFFFFFFFFFFFFFFFFFFFFFFFFFFFFFFFFFFFFFF SUB DUP3 GT ISZERO PUSH2 0xF21 JUMPI PUSH2 0xF20 PUSH2 0xEA7 JUMP JUMPDEST JUMPDEST DUP3 DUP3 ADD SWAP1 POP SWAP3 SWAP2 POP POP JUMP JUMPDEST PUSH32 0x536166654D6174683A206164646974696F6E206F766572666C6F770000000000 PUSH1 0x0 DUP3 ADD MSTORE POP JUMP JUMPDEST PUSH1 0x0 PUSH2 0xF62 PUSH1 0x1B DUP4 PUSH2 0xA23 JUMP JUMPDEST SWAP2 POP PUSH2 0xF6D DUP3 PUSH2 0xF2C JUMP JUMPDEST PUSH1 0x20 DUP3 ADD SWAP1 POP SWAP2 SWAP1 POP JUMP JUMPDEST PUSH1 0x0 PUSH1 0x20 DUP3 ADD SWAP1 POP DUP2 DUP2 SUB PUSH1 0x0 DUP4 ADD MSTORE PUSH2 0xF91 DUP2 PUSH2 0xF55 JUMP JUMPDEST SWAP1 POP SWAP2 SWAP1 POP JUMP INVALID LOG2 PUSH5 0x6970667358 0x22 SLT KECCAK256 0xB4 SLT 0xB4 0x1F CALLER DUP2 SWAP12 0x1F 0xAA 0xBD SWAP2 0xEB JUMP DUP7 SLOAD SHL 0xBA 0xE2 0xB4 0x5D PUSH12 0x912B75D5A325871C7249FF64 PUSH20 0x6F6C634300080900330000000000000000000000 "},"gasEstimates":{"creation":{"codeDepositCost":"809200","executionCost":"infinite","totalCost":"infinite"},"external":{"author()":"2536","getSummary()":"infinite","ipfsHash()":"infinite","like()":"infinite","likeCount()":"2517","linkChildChapter(address)":"51290","linkParentChapter(address)":"51268","linkedChildChapters(uint256)":"5000","linkedParentChapters(uint256)":"5066","story()":"2534","title()":"infinite"}},"methodIdentifiers":{"author()":"a6c3e6b9","getSummary()":"4051ddac","ipfsHash()":"c623674f","like()":"a523b88a","likeCount()":"e5a0af3d","linkChildChapter(address)":"988e46c8","linkParentChapter(address)":"8758ce83","linkedChildChapters(uint256)":"c5fe6ffc","linkedParentChapters(uint256)":"ed777791","story()":"46c922d1","title()":"4a79d50c"}},"storageLayout":{"storage":[{"astId":794,"contract":"Story.sol:Chapter","label":"story","offset":0,"slot":"0","type":"t_address"},{"astId":796,"contract":"Story.sol:Chapter","label":"author","offset":0,"slot":"1","type":"t_address"},{"astId":798,"contract":"Story.sol:Chapter","label":"title","offset":0,"slot":"2","type":"t_string_storage"},{"astId":800,"contract":"Story.sol:Chapter","label":"ipfsHash","offset":0,"slot":"3","type":"t_string_storage"},{"astId":803,"contract":"Story.sol:Chapter","label":"linkedParentChapters","offset":0,"slot":"4","type":"t_array(t_address)dyn_storage"},{"astId":806,"contract":"Story.sol:Chapter","label":"linkedChildChapters","offset":0,"slot":"5","type":"t_array(t_address)dyn_storage"},{"astId":810,"contract":"Story.sol:Chapter","label":"likers","offset":0,"slot":"6","type":"t_mapping(t_address,t_bool)"},{"astId":812,"contract":"Story.sol:Chapter","label":"likeCount","offset":0,"slot":"7","type":"t_uint256"}],"types":{"t_address":{"encoding":"inplace","label":"address","numberOfBytes":"20"},"t_array(t_address)dyn_storage":{"base":"t_address","encoding":"dynamic_array","label":"address[]","numberOfBytes":"32"},"t_bool":{"encoding":"inplace","label":"bool","numberOfBytes":"1"},"t_mapping(t_address,t_bool)":{"encoding":"mapping","key":"t_address","label":"mapping(address => bool)","numberOfBytes":"32","value":"t_bool"},"t_string_storage":{"encoding":"bytes","label":"string","numberOfBytes":"32"},"t_uint256":{"encoding":"inplace","label":"uint256","numberOfBytes":"32"}}},"userdoc":{"kind":"user","methods":{},"version":1}}