{"abi":[{"inputs":[{"internalType":"string","name":"username","type":"string"}],"name":"addAuthorUsername","outputs":[],"stateMutability":"nonpayable","type":"function"},{"inputs":[{"internalType":"address","name":"","type":"address"}],"name":"authorUsernames","outputs":[{"internalType":"string","name":"","type":"string"}],"stateMutability":"view","type":"function"},{"inputs":[{"internalType":"string","name":"_title","type":"string"},{"internalType":"string","name":"_genre","type":"string"},{"internalType":"string","name":"_mainIdea","type":"string"}],"name":"createStory","outputs":[],"stateMutability":"nonpayable","type":"function"},{"inputs":[{"internalType":"uint256","name":"","type":"uint256"}],"name":"deployedStories","outputs":[{"internalType":"address","name":"","type":"address"}],"stateMutability":"view","type":"function"},{"inputs":[],"name":"getDeployedStories","outputs":[{"internalType":"address[]","name":"","type":"address[]"}],"stateMutability":"view","type":"function"}],"devdoc":{"kind":"dev","methods":{},"version":1},"evm":{"assembly":"    /* \"Story.sol\":431:1190  contract StoryFactory {... */\n  mstore(0x40, 0x80)\n  callvalue\n  dup1\n  iszero\n  tag_1\n  jumpi\n  0x00\n  dup1\n  revert\ntag_1:\n  pop\n  dataSize(sub_0)\n  dup1\n  dataOffset(sub_0)\n  0x00\n  codecopy\n  0x00\n  return\nstop\n\nsub_0: assembly {\n        /* \"Story.sol\":431:1190  contract StoryFactory {... */\n      mstore(0x40, 0x80)\n      callvalue\n      dup1\n      iszero\n      tag_1\n      jumpi\n      0x00\n      dup1\n      revert\n    tag_1:\n      pop\n      jumpi(tag_2, lt(calldatasize, 0x04))\n      shr(0xe0, calldataload(0x00))\n      dup1\n      0x18351ea7\n      eq\n      tag_3\n      jumpi\n      dup1\n      0x2ff2bdd5\n      eq\n      tag_4\n      jumpi\n      dup1\n      0x5048bd37\n      eq\n      tag_5\n      jumpi\n      dup1\n      0xadb6a397\n      eq\n      tag_6\n      jumpi\n      dup1\n      0xf4b955f3\n      eq\n      tag_7\n      jumpi\n    tag_2:\n      0x00\n      dup1\n      revert\n        /* \"Story.sol\":460:492  address[] public deployedStories */\n    tag_3:\n      tag_8\n      0x04\n      dup1\n      calldatasize\n      sub\n      dup2\n      add\n      swap1\n      tag_9\n      swap2\n      swap1\n      tag_10\n      jump\t// in\n    tag_9:\n      tag_11\n      jump\t// in\n    tag_8:\n      mload(0x40)\n      tag_12\n      swap2\n      swap1\n      tag_13\n      jump\t// in\n    tag_12:\n      mload(0x40)\n      dup1\n      swap2\n      sub\n      swap1\n      return\n        /* \"Story.sol\":796:906  function getDeployedStories() public view returns (address[] memory) {... */\n    tag_4:\n      tag_14\n      tag_15\n      jump\t// in\n    tag_14:\n      mload(0x40)\n      tag_16\n      swap2\n      swap1\n      tag_17\n      jump\t// in\n    tag_16:\n      mload(0x40)\n      dup1\n      swap2\n      sub\n      swap1\n      return\n        /* \"Story.sol\":914:1028  function addAuthorUsername(string memory username) public{... */\n    tag_5:\n      tag_18\n      0x04\n      dup1\n      calldatasize\n      sub\n      dup2\n      add\n      swap1\n      tag_19\n      swap2\n      swap1\n      tag_20\n      jump\t// in\n    tag_19:\n      tag_21\n      jump\t// in\n    tag_18:\n      stop\n        /* \"Story.sol\":499:548  mapping(address => string) public authorUsernames */\n    tag_6:\n      tag_22\n      0x04\n      dup1\n      calldatasize\n      sub\n      dup2\n      add\n      swap1\n      tag_23\n      swap2\n      swap1\n      tag_24\n      jump\t// in\n    tag_23:\n      tag_25\n      jump\t// in\n    tag_22:\n      mload(0x40)\n      tag_26\n      swap2\n      swap1\n      tag_27\n      jump\t// in\n    tag_26:\n      mload(0x40)\n      dup1\n      swap2\n      sub\n      swap1\n      return\n        /* \"Story.sol\":557:788  function createStory(string memory _title, string memory _genre, string memory _mainIdea) public {... */\n    tag_7:\n      tag_28\n      0x04\n      dup1\n      calldatasize\n      sub\n      dup2\n      add\n      swap1\n      tag_29\n      swap2\n      swap1\n      tag_30\n      jump\t// in\n    tag_29:\n      tag_31\n      jump\t// in\n    tag_28:\n      stop\n        /* \"Story.sol\":460:492  address[] public deployedStories */\n    tag_11:\n      0x00\n      dup2\n      dup2\n      sload\n      dup2\n      lt\n      tag_32\n      jumpi\n      0x00\n      dup1\n      revert\n    tag_32:\n      swap1\n      0x00\n      mstore\n      keccak256(0x00, 0x20)\n      add\n      0x00\n      swap2\n      pop\n      sload\n      swap1\n      0x0100\n      exp\n      swap1\n      div\n      0xffffffffffffffffffffffffffffffffffffffff\n      and\n      dup2\n      jump\t// out\n        /* \"Story.sol\":796:906  function getDeployedStories() public view returns (address[] memory) {... */\n    tag_15:\n        /* \"Story.sol\":847:863  address[] memory */\n      0x60\n        /* \"Story.sol\":883:898  deployedStories */\n      0x00\n        /* \"Story.sol\":876:898  return deployedStories */\n      dup1\n      sload\n      dup1\n      0x20\n      mul\n      0x20\n      add\n      mload(0x40)\n      swap1\n      dup2\n      add\n      0x40\n      mstore\n      dup1\n      swap3\n      swap2\n      swap1\n      dup2\n      dup2\n      mstore\n      0x20\n      add\n      dup3\n      dup1\n      sload\n      dup1\n      iszero\n      tag_35\n      jumpi\n      0x20\n      mul\n      dup3\n      add\n      swap2\n      swap1\n      0x00\n      mstore\n      keccak256(0x00, 0x20)\n      swap1\n    tag_36:\n      dup2\n      0x00\n      swap1\n      sload\n      swap1\n      0x0100\n      exp\n      swap1\n      div\n      0xffffffffffffffffffffffffffffffffffffffff\n      and\n      0xffffffffffffffffffffffffffffffffffffffff\n      and\n      dup2\n      mstore\n      0x20\n      add\n      swap1\n      0x01\n      add\n      swap1\n      dup1\n      dup4\n      gt\n      tag_36\n      jumpi\n    tag_35:\n      pop\n      pop\n      pop\n      pop\n      pop\n      swap1\n      pop\n        /* \"Story.sol\":796:906  function getDeployedStories() public view returns (address[] memory) {... */\n      swap1\n      jump\t// out\n        /* \"Story.sol\":914:1028  function addAuthorUsername(string memory username) public{... */\n    tag_21:\n        /* \"Story.sol\":1012:1020  username */\n      dup1\n        /* \"Story.sol\":982:997  authorUsernames */\n      0x01\n        /* \"Story.sol\":982:1009  authorUsernames[msg.sender] */\n      0x00\n        /* \"Story.sol\":998:1008  msg.sender */\n      caller\n        /* \"Story.sol\":982:1009  authorUsernames[msg.sender] */\n      0xffffffffffffffffffffffffffffffffffffffff\n      and\n      0xffffffffffffffffffffffffffffffffffffffff\n      and\n      dup2\n      mstore\n      0x20\n      add\n      swap1\n      dup2\n      mstore\n      0x20\n      add\n      0x00\n      keccak256\n        /* \"Story.sol\":982:1020  authorUsernames[msg.sender] = username */\n      swap1\n      dup1\n      mload\n      swap1\n      0x20\n      add\n      swap1\n      tag_38\n      swap3\n      swap2\n      swap1\n      tag_39\n      jump\t// in\n    tag_38:\n      pop\n        /* \"Story.sol\":914:1028  function addAuthorUsername(string memory username) public{... */\n      pop\n      jump\t// out\n        /* \"Story.sol\":499:548  mapping(address => string) public authorUsernames */\n    tag_25:\n      mstore(0x20, 0x01)\n      dup1\n      0x00\n      mstore\n      keccak256(0x00, 0x40)\n      0x00\n      swap2\n      pop\n      swap1\n      pop\n      dup1\n      sload\n      tag_40\n      swap1\n      tag_41\n      jump\t// in\n    tag_40:\n      dup1\n      0x1f\n      add\n      0x20\n      dup1\n      swap2\n      div\n      mul\n      0x20\n      add\n      mload(0x40)\n      swap1\n      dup2\n      add\n      0x40\n      mstore\n      dup1\n      swap3\n      swap2\n      swap1\n      dup2\n      dup2\n      mstore\n      0x20\n      add\n      dup3\n      dup1\n      sload\n      tag_42\n      swap1\n      tag_41\n      jump\t// in\n    tag_42:\n      dup1\n      iszero\n      tag_43\n      jumpi\n      dup1\n      0x1f\n      lt\n      tag_44\n      jumpi\n      0x0100\n      dup1\n      dup4\n      sload\n      div\n      mul\n      dup4\n      mstore\n      swap2\n      0x20\n      add\n      swap2\n      jump(tag_43)\n    tag_44:\n      dup3\n      add\n      swap2\n      swap1\n      0x00\n      mstore\n      keccak256(0x00, 0x20)\n      swap1\n    tag_45:\n      dup2\n      sload\n      dup2\n      mstore\n      swap1\n      0x01\n      add\n      swap1\n      0x20\n      add\n      dup1\n      dup4\n      gt\n      tag_45\n      jumpi\n      dup3\n      swap1\n      sub\n      0x1f\n      and\n      dup3\n      add\n      swap2\n    tag_43:\n      pop\n      pop\n      pop\n      pop\n      pop\n      dup2\n      jump\t// out\n        /* \"Story.sol\":557:788  function createStory(string memory _title, string memory _genre, string memory _mainIdea) public {... */\n    tag_31:\n        /* \"Story.sol\":665:679  Story newStory */\n      0x00\n        /* \"Story.sol\":692:702  msg.sender */\n      caller\n        /* \"Story.sol\":704:710  _title */\n      dup5\n        /* \"Story.sol\":712:718  _genre */\n      dup5\n        /* \"Story.sol\":720:729  _mainIdea */\n      dup5\n        /* \"Story.sol\":682:730  new Story(msg.sender, _title, _genre, _mainIdea) */\n      mload(0x40)\n      tag_47\n      swap1\n      tag_48\n      jump\t// in\n    tag_47:\n      tag_49\n      swap5\n      swap4\n      swap3\n      swap2\n      swap1\n      tag_50\n      jump\t// in\n    tag_49:\n      mload(0x40)\n      dup1\n      swap2\n      sub\n      swap1\n      0x00\n      create\n      dup1\n      iszero\n      dup1\n      iszero\n      tag_51\n      jumpi\n      returndatasize\n      0x00\n      dup1\n      returndatacopy\n      revert(0x00, returndatasize)\n    tag_51:\n      pop\n        /* \"Story.sol\":665:730  Story newStory = new Story(msg.sender, _title, _genre, _mainIdea) */\n      swap1\n      pop\n        /* \"Story.sol\":741:756  deployedStories */\n      0x00\n        /* \"Story.sol\":770:778  newStory */\n      dup2\n        /* \"Story.sol\":741:780  deployedStories.push(address(newStory)) */\n      swap1\n      dup1\n      0x01\n      dup2\n      sload\n      add\n      dup1\n      dup3\n      sstore\n      dup1\n      swap2\n      pop\n      pop\n      0x01\n      swap1\n      sub\n      swap1\n      0x00\n      mstore\n      keccak256(0x00, 0x20)\n      add\n      0x00\n      swap1\n      swap2\n      swap1\n      swap2\n      swap1\n      swap2\n      0x0100\n      exp\n      dup2\n      sload\n      dup2\n      0xffffffffffffffffffffffffffffffffffffffff\n      mul\n      not\n      and\n      swap1\n      dup4\n      0xffffffffffffffffffffffffffffffffffffffff\n      and\n      mul\n      or\n      swap1\n      sstore\n      pop\n        /* \"Story.sol\":654:788  {... */\n      pop\n        /* \"Story.sol\":557:788  function createStory(string memory _title, string memory _genre, string memory _mainIdea) public {... */\n      pop\n      pop\n      pop\n      jump\t// out\n    tag_39:\n      dup3\n      dup1\n      sload\n      tag_53\n      swap1\n      tag_41\n      jump\t// in\n    tag_53:\n      swap1\n      0x00\n      mstore\n      keccak256(0x00, 0x20)\n      swap1\n      0x1f\n      add\n      0x20\n      swap1\n      div\n      dup2\n      add\n      swap3\n      dup3\n      tag_55\n      jumpi\n      0x00\n      dup6\n      sstore\n      jump(tag_54)\n    tag_55:\n      dup3\n      0x1f\n      lt\n      tag_56\n      jumpi\n      dup1\n      mload\n      not(0xff)\n      and\n      dup4\n      dup1\n      add\n      or\n      dup6\n      sstore\n      jump(tag_54)\n    tag_56:\n      dup3\n      dup1\n      add\n      0x01\n      add\n      dup6\n      sstore\n      dup3\n      iszero\n      tag_54\n      jumpi\n      swap2\n      dup3\n      add\n    tag_57:\n      dup3\n      dup2\n      gt\n      iszero\n      tag_58\n      jumpi\n      dup3\n      mload\n      dup3\n      sstore\n      swap2\n      0x20\n      add\n      swap2\n      swap1\n      0x01\n      add\n      swap1\n      jump(tag_57)\n    tag_58:\n    tag_54:\n      pop\n      swap1\n      pop\n      tag_59\n      swap2\n      swap1\n      tag_60\n      jump\t// in\n    tag_59:\n      pop\n      swap1\n      jump\t// out\n    tag_48:\n      dataSize(sub_0)\n      dup1\n      dataOffset(sub_0)\n      dup4\n      codecopy\n      add\n      swap1\n      jump\t// out\n    tag_60:\n    tag_61:\n      dup1\n      dup3\n      gt\n      iszero\n      tag_62\n      jumpi\n      0x00\n      dup2\n      0x00\n      swap1\n      sstore\n      pop\n      0x01\n      add\n      jump(tag_61)\n    tag_62:\n      pop\n      swap1\n      jump\t// out\n        /* \"#utility.yul\":7:82   */\n    tag_63:\n        /* \"#utility.yul\":40:46   */\n      0x00\n        /* \"#utility.yul\":73:75   */\n      0x40\n        /* \"#utility.yul\":67:76   */\n      mload\n        /* \"#utility.yul\":57:76   */\n      swap1\n      pop\n        /* \"#utility.yul\":7:82   */\n      swap1\n      jump\t// out\n        /* \"#utility.yul\":88:205   */\n    tag_64:\n        /* \"#utility.yul\":197:198   */\n      0x00\n        /* \"#utility.yul\":194:195   */\n      dup1\n        /* \"#utility.yul\":187:199   */\n      revert\n        /* \"#utility.yul\":211:328   */\n    tag_65:\n        /* \"#utility.yul\":320:321   */\n      0x00\n        /* \"#utility.yul\":317:318   */\n      dup1\n        /* \"#utility.yul\":310:322   */\n      revert\n        /* \"#utility.yul\":334:411   */\n    tag_66:\n        /* \"#utility.yul\":371:378   */\n      0x00\n        /* \"#utility.yul\":400:405   */\n      dup2\n        /* \"#utility.yul\":389:405   */\n      swap1\n      pop\n        /* \"#utility.yul\":334:411   */\n      swap2\n      swap1\n      pop\n      jump\t// out\n        /* \"#utility.yul\":417:539   */\n    tag_67:\n        /* \"#utility.yul\":490:514   */\n      tag_102\n        /* \"#utility.yul\":508:513   */\n      dup2\n        /* \"#utility.yul\":490:514   */\n      tag_66\n      jump\t// in\n    tag_102:\n        /* \"#utility.yul\":483:488   */\n      dup2\n        /* \"#utility.yul\":480:515   */\n      eq\n        /* \"#utility.yul\":470:533   */\n      tag_103\n      jumpi\n        /* \"#utility.yul\":529:530   */\n      0x00\n        /* \"#utility.yul\":526:527   */\n      dup1\n        /* \"#utility.yul\":519:531   */\n      revert\n        /* \"#utility.yul\":470:533   */\n    tag_103:\n        /* \"#utility.yul\":417:539   */\n      pop\n      jump\t// out\n        /* \"#utility.yul\":545:684   */\n    tag_68:\n        /* \"#utility.yul\":591:596   */\n      0x00\n        /* \"#utility.yul\":629:635   */\n      dup2\n        /* \"#utility.yul\":616:636   */\n      calldataload\n        /* \"#utility.yul\":607:636   */\n      swap1\n      pop\n        /* \"#utility.yul\":645:678   */\n      tag_105\n        /* \"#utility.yul\":672:677   */\n      dup2\n        /* \"#utility.yul\":645:678   */\n      tag_67\n      jump\t// in\n    tag_105:\n        /* \"#utility.yul\":545:684   */\n      swap3\n      swap2\n      pop\n      pop\n      jump\t// out\n        /* \"#utility.yul\":690:1019   */\n    tag_10:\n        /* \"#utility.yul\":749:755   */\n      0x00\n        /* \"#utility.yul\":798:800   */\n      0x20\n        /* \"#utility.yul\":786:795   */\n      dup3\n        /* \"#utility.yul\":777:784   */\n      dup5\n        /* \"#utility.yul\":773:796   */\n      sub\n        /* \"#utility.yul\":769:801   */\n      slt\n        /* \"#utility.yul\":766:885   */\n      iszero\n      tag_107\n      jumpi\n        /* \"#utility.yul\":804:883   */\n      tag_108\n      tag_64\n      jump\t// in\n    tag_108:\n        /* \"#utility.yul\":766:885   */\n    tag_107:\n        /* \"#utility.yul\":924:925   */\n      0x00\n        /* \"#utility.yul\":949:1002   */\n      tag_109\n        /* \"#utility.yul\":994:1001   */\n      dup5\n        /* \"#utility.yul\":985:991   */\n      dup3\n        /* \"#utility.yul\":974:983   */\n      dup6\n        /* \"#utility.yul\":970:992   */\n      add\n        /* \"#utility.yul\":949:1002   */\n      tag_68\n      jump\t// in\n    tag_109:\n        /* \"#utility.yul\":939:1002   */\n      swap2\n      pop\n        /* \"#utility.yul\":895:1012   */\n      pop\n        /* \"#utility.yul\":690:1019   */\n      swap3\n      swap2\n      pop\n      pop\n      jump\t// out\n        /* \"#utility.yul\":1025:1151   */\n    tag_69:\n        /* \"#utility.yul\":1062:1069   */\n      0x00\n        /* \"#utility.yul\":1102:1144   */\n      0xffffffffffffffffffffffffffffffffffffffff\n        /* \"#utility.yul\":1095:1100   */\n      dup3\n        /* \"#utility.yul\":1091:1145   */\n      and\n        /* \"#utility.yul\":1080:1145   */\n      swap1\n      pop\n        /* \"#utility.yul\":1025:1151   */\n      swap2\n      swap1\n      pop\n      jump\t// out\n        /* \"#utility.yul\":1157:1253   */\n    tag_70:\n        /* \"#utility.yul\":1194:1201   */\n      0x00\n        /* \"#utility.yul\":1223:1247   */\n      tag_112\n        /* \"#utility.yul\":1241:1246   */\n      dup3\n        /* \"#utility.yul\":1223:1247   */\n      tag_69\n      jump\t// in\n    tag_112:\n        /* \"#utility.yul\":1212:1247   */\n      swap1\n      pop\n        /* \"#utility.yul\":1157:1253   */\n      swap2\n      swap1\n      pop\n      jump\t// out\n        /* \"#utility.yul\":1259:1377   */\n    tag_71:\n        /* \"#utility.yul\":1346:1370   */\n      tag_114\n        /* \"#utility.yul\":1364:1369   */\n      dup2\n        /* \"#utility.yul\":1346:1370   */\n      tag_70\n      jump\t// in\n    tag_114:\n        /* \"#utility.yul\":1341:1344   */\n      dup3\n        /* \"#utility.yul\":1334:1371   */\n      mstore\n        /* \"#utility.yul\":1259:1377   */\n      pop\n      pop\n      jump\t// out\n        /* \"#utility.yul\":1383:1605   */\n    tag_13:\n        /* \"#utility.yul\":1476:1480   */\n      0x00\n        /* \"#utility.yul\":1514:1516   */\n      0x20\n        /* \"#utility.yul\":1503:1512   */\n      dup3\n        /* \"#utility.yul\":1499:1517   */\n      add\n        /* \"#utility.yul\":1491:1517   */\n      swap1\n      pop\n        /* \"#utility.yul\":1527:1598   */\n      tag_116\n        /* \"#utility.yul\":1595:1596   */\n      0x00\n        /* \"#utility.yul\":1584:1593   */\n      dup4\n        /* \"#utility.yul\":1580:1597   */\n      add\n        /* \"#utility.yul\":1571:1577   */\n      dup5\n        /* \"#utility.yul\":1527:1598   */\n      tag_71\n      jump\t// in\n    tag_116:\n        /* \"#utility.yul\":1383:1605   */\n      swap3\n      swap2\n      pop\n      pop\n      jump\t// out\n        /* \"#utility.yul\":1611:1725   */\n    tag_72:\n        /* \"#utility.yul\":1678:1684   */\n      0x00\n        /* \"#utility.yul\":1712:1717   */\n      dup2\n        /* \"#utility.yul\":1706:1718   */\n      mload\n        /* \"#utility.yul\":1696:1718   */\n      swap1\n      pop\n        /* \"#utility.yul\":1611:1725   */\n      swap2\n      swap1\n      pop\n      jump\t// out\n        /* \"#utility.yul\":1731:1915   */\n    tag_73:\n        /* \"#utility.yul\":1830:1841   */\n      0x00\n        /* \"#utility.yul\":1864:1870   */\n      dup3\n        /* \"#utility.yul\":1859:1862   */\n      dup3\n        /* \"#utility.yul\":1852:1871   */\n      mstore\n        /* \"#utility.yul\":1904:1908   */\n      0x20\n        /* \"#utility.yul\":1899:1902   */\n      dup3\n        /* \"#utility.yul\":1895:1909   */\n      add\n        /* \"#utility.yul\":1880:1909   */\n      swap1\n      pop\n        /* \"#utility.yul\":1731:1915   */\n      swap3\n      swap2\n      pop\n      pop\n      jump\t// out\n        /* \"#utility.yul\":1921:2053   */\n    tag_74:\n        /* \"#utility.yul\":1988:1992   */\n      0x00\n        /* \"#utility.yul\":2011:2014   */\n      dup2\n        /* \"#utility.yul\":2003:2014   */\n      swap1\n      pop\n        /* \"#utility.yul\":2041:2045   */\n      0x20\n        /* \"#utility.yul\":2036:2039   */\n      dup3\n        /* \"#utility.yul\":2032:2046   */\n      add\n        /* \"#utility.yul\":2024:2046   */\n      swap1\n      pop\n        /* \"#utility.yul\":1921:2053   */\n      swap2\n      swap1\n      pop\n      jump\t// out\n        /* \"#utility.yul\":2059:2167   */\n    tag_75:\n        /* \"#utility.yul\":2136:2160   */\n      tag_121\n        /* \"#utility.yul\":2154:2159   */\n      dup2\n        /* \"#utility.yul\":2136:2160   */\n      tag_70\n      jump\t// in\n    tag_121:\n        /* \"#utility.yul\":2131:2134   */\n      dup3\n        /* \"#utility.yul\":2124:2161   */\n      mstore\n        /* \"#utility.yul\":2059:2167   */\n      pop\n      pop\n      jump\t// out\n        /* \"#utility.yul\":2173:2352   */\n    tag_76:\n        /* \"#utility.yul\":2242:2252   */\n      0x00\n        /* \"#utility.yul\":2263:2309   */\n      tag_123\n        /* \"#utility.yul\":2305:2308   */\n      dup4\n        /* \"#utility.yul\":2297:2303   */\n      dup4\n        /* \"#utility.yul\":2263:2309   */\n      tag_75\n      jump\t// in\n    tag_123:\n        /* \"#utility.yul\":2341:2345   */\n      0x20\n        /* \"#utility.yul\":2336:2339   */\n      dup4\n        /* \"#utility.yul\":2332:2346   */\n      add\n        /* \"#utility.yul\":2318:2346   */\n      swap1\n      pop\n        /* \"#utility.yul\":2173:2352   */\n      swap3\n      swap2\n      pop\n      pop\n      jump\t// out\n        /* \"#utility.yul\":2358:2471   */\n    tag_77:\n        /* \"#utility.yul\":2428:2432   */\n      0x00\n        /* \"#utility.yul\":2460:2464   */\n      0x20\n        /* \"#utility.yul\":2455:2458   */\n      dup3\n        /* \"#utility.yul\":2451:2465   */\n      add\n        /* \"#utility.yul\":2443:2465   */\n      swap1\n      pop\n        /* \"#utility.yul\":2358:2471   */\n      swap2\n      swap1\n      pop\n      jump\t// out\n        /* \"#utility.yul\":2507:3239   */\n    tag_78:\n        /* \"#utility.yul\":2626:2629   */\n      0x00\n        /* \"#utility.yul\":2655:2709   */\n      tag_126\n        /* \"#utility.yul\":2703:2708   */\n      dup3\n        /* \"#utility.yul\":2655:2709   */\n      tag_72\n      jump\t// in\n    tag_126:\n        /* \"#utility.yul\":2725:2811   */\n      tag_127\n        /* \"#utility.yul\":2804:2810   */\n      dup2\n        /* \"#utility.yul\":2799:2802   */\n      dup6\n        /* \"#utility.yul\":2725:2811   */\n      tag_73\n      jump\t// in\n    tag_127:\n        /* \"#utility.yul\":2718:2811   */\n      swap4\n      pop\n        /* \"#utility.yul\":2835:2891   */\n      tag_128\n        /* \"#utility.yul\":2885:2890   */\n      dup4\n        /* \"#utility.yul\":2835:2891   */\n      tag_74\n      jump\t// in\n    tag_128:\n        /* \"#utility.yul\":2914:2921   */\n      dup1\n        /* \"#utility.yul\":2945:2946   */\n      0x00\n        /* \"#utility.yul\":2930:3214   */\n    tag_129:\n        /* \"#utility.yul\":2955:2961   */\n      dup4\n        /* \"#utility.yul\":2952:2953   */\n      dup2\n        /* \"#utility.yul\":2949:2962   */\n      lt\n        /* \"#utility.yul\":2930:3214   */\n      iszero\n      tag_131\n      jumpi\n        /* \"#utility.yul\":3031:3037   */\n      dup2\n        /* \"#utility.yul\":3025:3038   */\n      mload\n        /* \"#utility.yul\":3058:3121   */\n      tag_132\n        /* \"#utility.yul\":3117:3120   */\n      dup9\n        /* \"#utility.yul\":3102:3115   */\n      dup3\n        /* \"#utility.yul\":3058:3121   */\n      tag_76\n      jump\t// in\n    tag_132:\n        /* \"#utility.yul\":3051:3121   */\n      swap8\n      pop\n        /* \"#utility.yul\":3144:3204   */\n      tag_133\n        /* \"#utility.yul\":3197:3203   */\n      dup4\n        /* \"#utility.yul\":3144:3204   */\n      tag_77\n      jump\t// in\n    tag_133:\n        /* \"#utility.yul\":3134:3204   */\n      swap3\n      pop\n        /* \"#utility.yul\":2990:3214   */\n      pop\n        /* \"#utility.yul\":2977:2978   */\n      0x01\n        /* \"#utility.yul\":2974:2975   */\n      dup2\n        /* \"#utility.yul\":2970:2979   */\n      add\n        /* \"#utility.yul\":2965:2979   */\n      swap1\n      pop\n        /* \"#utility.yul\":2930:3214   */\n      jump(tag_129)\n    tag_131:\n        /* \"#utility.yul\":2934:2948   */\n      pop\n        /* \"#utility.yul\":3230:3233   */\n      dup6\n        /* \"#utility.yul\":3223:3233   */\n      swap4\n      pop\n        /* \"#utility.yul\":2631:3239   */\n      pop\n      pop\n      pop\n        /* \"#utility.yul\":2507:3239   */\n      swap3\n      swap2\n      pop\n      pop\n      jump\t// out\n        /* \"#utility.yul\":3245:3618   */\n    tag_17:\n        /* \"#utility.yul\":3388:3392   */\n      0x00\n        /* \"#utility.yul\":3426:3428   */\n      0x20\n        /* \"#utility.yul\":3415:3424   */\n      dup3\n        /* \"#utility.yul\":3411:3429   */\n      add\n        /* \"#utility.yul\":3403:3429   */\n      swap1\n      pop\n        /* \"#utility.yul\":3475:3484   */\n      dup2\n        /* \"#utility.yul\":3469:3473   */\n      dup2\n        /* \"#utility.yul\":3465:3485   */\n      sub\n        /* \"#utility.yul\":3461:3462   */\n      0x00\n        /* \"#utility.yul\":3450:3459   */\n      dup4\n        /* \"#utility.yul\":3446:3463   */\n      add\n        /* \"#utility.yul\":3439:3486   */\n      mstore\n        /* \"#utility.yul\":3503:3611   */\n      tag_135\n        /* \"#utility.yul\":3606:3610   */\n      dup2\n        /* \"#utility.yul\":3597:3603   */\n      dup5\n        /* \"#utility.yul\":3503:3611   */\n      tag_78\n      jump\t// in\n    tag_135:\n        /* \"#utility.yul\":3495:3611   */\n      swap1\n      pop\n        /* \"#utility.yul\":3245:3618   */\n      swap3\n      swap2\n      pop\n      pop\n      jump\t// out\n        /* \"#utility.yul\":3624:3741   */\n    tag_79:\n        /* \"#utility.yul\":3733:3734   */\n      0x00\n        /* \"#utility.yul\":3730:3731   */\n      dup1\n        /* \"#utility.yul\":3723:3735   */\n      revert\n        /* \"#utility.yul\":3747:3864   */\n    tag_80:\n        /* \"#utility.yul\":3856:3857   */\n      0x00\n        /* \"#utility.yul\":3853:3854   */\n      dup1\n        /* \"#utility.yul\":3846:3858   */\n      revert\n        /* \"#utility.yul\":3870:3972   */\n    tag_81:\n        /* \"#utility.yul\":3911:3917   */\n      0x00\n        /* \"#utility.yul\":3962:3964   */\n      0x1f\n        /* \"#utility.yul\":3958:3965   */\n      not\n        /* \"#utility.yul\":3953:3955   */\n      0x1f\n        /* \"#utility.yul\":3946:3951   */\n      dup4\n        /* \"#utility.yul\":3942:3956   */\n      add\n        /* \"#utility.yul\":3938:3966   */\n      and\n        /* \"#utility.yul\":3928:3966   */\n      swap1\n      pop\n        /* \"#utility.yul\":3870:3972   */\n      swap2\n      swap1\n      pop\n      jump\t// out\n        /* \"#utility.yul\":3978:4158   */\n    tag_82:\n        /* \"#utility.yul\":4026:4103   */\n      0x4e487b7100000000000000000000000000000000000000000000000000000000\n        /* \"#utility.yul\":4023:4024   */\n      0x00\n        /* \"#utility.yul\":4016:4104   */\n      mstore\n        /* \"#utility.yul\":4123:4127   */\n      0x41\n        /* \"#utility.yul\":4120:4121   */\n      0x04\n        /* \"#utility.yul\":4113:4128   */\n      mstore\n        /* \"#utility.yul\":4147:4151   */\n      0x24\n        /* \"#utility.yul\":4144:4145   */\n      0x00\n        /* \"#utility.yul\":4137:4152   */\n      revert\n        /* \"#utility.yul\":4164:4445   */\n    tag_83:\n        /* \"#utility.yul\":4247:4274   */\n      tag_141\n        /* \"#utility.yul\":4269:4273   */\n      dup3\n        /* \"#utility.yul\":4247:4274   */\n      tag_81\n      jump\t// in\n    tag_141:\n        /* \"#utility.yul\":4239:4245   */\n      dup2\n        /* \"#utility.yul\":4235:4275   */\n      add\n        /* \"#utility.yul\":4377:4383   */\n      dup2\n        /* \"#utility.yul\":4365:4375   */\n      dup2\n        /* \"#utility.yul\":4362:4384   */\n      lt\n        /* \"#utility.yul\":4341:4359   */\n      0xffffffffffffffff\n        /* \"#utility.yul\":4329:4339   */\n      dup3\n        /* \"#utility.yul\":4326:4360   */\n      gt\n        /* \"#utility.yul\":4323:4385   */\n      or\n        /* \"#utility.yul\":4320:4408   */\n      iszero\n      tag_142\n      jumpi\n        /* \"#utility.yul\":4388:4406   */\n      tag_143\n      tag_82\n      jump\t// in\n    tag_143:\n        /* \"#utility.yul\":4320:4408   */\n    tag_142:\n        /* \"#utility.yul\":4428:4438   */\n      dup1\n        /* \"#utility.yul\":4424:4426   */\n      0x40\n        /* \"#utility.yul\":4417:4439   */\n      mstore\n        /* \"#utility.yul\":4207:4445   */\n      pop\n        /* \"#utility.yul\":4164:4445   */\n      pop\n      pop\n      jump\t// out\n        /* \"#utility.yul\":4451:4580   */\n    tag_84:\n        /* \"#utility.yul\":4485:4491   */\n      0x00\n        /* \"#utility.yul\":4512:4532   */\n      tag_145\n      tag_63\n      jump\t// in\n    tag_145:\n        /* \"#utility.yul\":4502:4532   */\n      swap1\n      pop\n        /* \"#utility.yul\":4541:4574   */\n      tag_146\n        /* \"#utility.yul\":4569:4573   */\n      dup3\n        /* \"#utility.yul\":4561:4567   */\n      dup3\n        /* \"#utility.yul\":4541:4574   */\n      tag_83\n      jump\t// in\n    tag_146:\n        /* \"#utility.yul\":4451:4580   */\n      swap2\n      swap1\n      pop\n      jump\t// out\n        /* \"#utility.yul\":4586:4894   */\n    tag_85:\n        /* \"#utility.yul\":4648:4652   */\n      0x00\n        /* \"#utility.yul\":4738:4756   */\n      0xffffffffffffffff\n        /* \"#utility.yul\":4730:4736   */\n      dup3\n        /* \"#utility.yul\":4727:4757   */\n      gt\n        /* \"#utility.yul\":4724:4780   */\n      iszero\n      tag_148\n      jumpi\n        /* \"#utility.yul\":4760:4778   */\n      tag_149\n      tag_82\n      jump\t// in\n    tag_149:\n        /* \"#utility.yul\":4724:4780   */\n    tag_148:\n        /* \"#utility.yul\":4798:4827   */\n      tag_150\n        /* \"#utility.yul\":4820:4826   */\n      dup3\n        /* \"#utility.yul\":4798:4827   */\n      tag_81\n      jump\t// in\n    tag_150:\n        /* \"#utility.yul\":4790:4827   */\n      swap1\n      pop\n        /* \"#utility.yul\":4882:4886   */\n      0x20\n        /* \"#utility.yul\":4876:4880   */\n      dup2\n        /* \"#utility.yul\":4872:4887   */\n      add\n        /* \"#utility.yul\":4864:4887   */\n      swap1\n      pop\n        /* \"#utility.yul\":4586:4894   */\n      swap2\n      swap1\n      pop\n      jump\t// out\n        /* \"#utility.yul\":4900:5054   */\n    tag_86:\n        /* \"#utility.yul\":4984:4990   */\n      dup3\n        /* \"#utility.yul\":4979:4982   */\n      dup2\n        /* \"#utility.yul\":4974:4977   */\n      dup4\n        /* \"#utility.yul\":4961:4991   */\n      calldatacopy\n        /* \"#utility.yul\":5046:5047   */\n      0x00\n        /* \"#utility.yul\":5037:5043   */\n      dup4\n        /* \"#utility.yul\":5032:5035   */\n      dup4\n        /* \"#utility.yul\":5028:5044   */\n      add\n        /* \"#utility.yul\":5021:5048   */\n      mstore\n        /* \"#utility.yul\":4900:5054   */\n      pop\n      pop\n      pop\n      jump\t// out\n        /* \"#utility.yul\":5060:5472   */\n    tag_87:\n        /* \"#utility.yul\":5138:5143   */\n      0x00\n        /* \"#utility.yul\":5163:5229   */\n      tag_153\n        /* \"#utility.yul\":5179:5228   */\n      tag_154\n        /* \"#utility.yul\":5221:5227   */\n      dup5\n        /* \"#utility.yul\":5179:5228   */\n      tag_85\n      jump\t// in\n    tag_154:\n        /* \"#utility.yul\":5163:5229   */\n      tag_84\n      jump\t// in\n    tag_153:\n        /* \"#utility.yul\":5154:5229   */\n      swap1\n      pop\n        /* \"#utility.yul\":5252:5258   */\n      dup3\n        /* \"#utility.yul\":5245:5250   */\n      dup2\n        /* \"#utility.yul\":5238:5259   */\n      mstore\n        /* \"#utility.yul\":5290:5294   */\n      0x20\n        /* \"#utility.yul\":5283:5288   */\n      dup2\n        /* \"#utility.yul\":5279:5295   */\n      add\n        /* \"#utility.yul\":5328:5331   */\n      dup5\n        /* \"#utility.yul\":5319:5325   */\n      dup5\n        /* \"#utility.yul\":5314:5317   */\n      dup5\n        /* \"#utility.yul\":5310:5326   */\n      add\n        /* \"#utility.yul\":5307:5332   */\n      gt\n        /* \"#utility.yul\":5304:5416   */\n      iszero\n      tag_155\n      jumpi\n        /* \"#utility.yul\":5335:5414   */\n      tag_156\n      tag_80\n      jump\t// in\n    tag_156:\n        /* \"#utility.yul\":5304:5416   */\n    tag_155:\n        /* \"#utility.yul\":5425:5466   */\n      tag_157\n        /* \"#utility.yul\":5459:5465   */\n      dup5\n        /* \"#utility.yul\":5454:5457   */\n      dup3\n        /* \"#utility.yul\":5449:5452   */\n      dup6\n        /* \"#utility.yul\":5425:5466   */\n      tag_86\n      jump\t// in\n    tag_157:\n        /* \"#utility.yul\":5144:5472   */\n      pop\n        /* \"#utility.yul\":5060:5472   */\n      swap4\n      swap3\n      pop\n      pop\n      pop\n      jump\t// out\n        /* \"#utility.yul\":5492:5832   */\n    tag_88:\n        /* \"#utility.yul\":5548:5553   */\n      0x00\n        /* \"#utility.yul\":5597:5600   */\n      dup3\n        /* \"#utility.yul\":5590:5594   */\n      0x1f\n        /* \"#utility.yul\":5582:5588   */\n      dup4\n        /* \"#utility.yul\":5578:5595   */\n      add\n        /* \"#utility.yul\":5574:5601   */\n      slt\n        /* \"#utility.yul\":5564:5686   */\n      tag_159\n      jumpi\n        /* \"#utility.yul\":5605:5684   */\n      tag_160\n      tag_79\n      jump\t// in\n    tag_160:\n        /* \"#utility.yul\":5564:5686   */\n    tag_159:\n        /* \"#utility.yul\":5722:5728   */\n      dup2\n        /* \"#utility.yul\":5709:5729   */\n      calldataload\n        /* \"#utility.yul\":5747:5826   */\n      tag_161\n        /* \"#utility.yul\":5822:5825   */\n      dup5\n        /* \"#utility.yul\":5814:5820   */\n      dup3\n        /* \"#utility.yul\":5807:5811   */\n      0x20\n        /* \"#utility.yul\":5799:5805   */\n      dup7\n        /* \"#utility.yul\":5795:5812   */\n      add\n        /* \"#utility.yul\":5747:5826   */\n      tag_87\n      jump\t// in\n    tag_161:\n        /* \"#utility.yul\":5738:5826   */\n      swap2\n      pop\n        /* \"#utility.yul\":5554:5832   */\n      pop\n        /* \"#utility.yul\":5492:5832   */\n      swap3\n      swap2\n      pop\n      pop\n      jump\t// out\n        /* \"#utility.yul\":5838:6347   */\n    tag_20:\n        /* \"#utility.yul\":5907:5913   */\n      0x00\n        /* \"#utility.yul\":5956:5958   */\n      0x20\n        /* \"#utility.yul\":5944:5953   */\n      dup3\n        /* \"#utility.yul\":5935:5942   */\n      dup5\n        /* \"#utility.yul\":5931:5954   */\n      sub\n        /* \"#utility.yul\":5927:5959   */\n      slt\n        /* \"#utility.yul\":5924:6043   */\n      iszero\n      tag_163\n      jumpi\n        /* \"#utility.yul\":5962:6041   */\n      tag_164\n      tag_64\n      jump\t// in\n    tag_164:\n        /* \"#utility.yul\":5924:6043   */\n    tag_163:\n        /* \"#utility.yul\":6110:6111   */\n      0x00\n        /* \"#utility.yul\":6099:6108   */\n      dup3\n        /* \"#utility.yul\":6095:6112   */\n      add\n        /* \"#utility.yul\":6082:6113   */\n      calldataload\n        /* \"#utility.yul\":6140:6158   */\n      0xffffffffffffffff\n        /* \"#utility.yul\":6132:6138   */\n      dup2\n        /* \"#utility.yul\":6129:6159   */\n      gt\n        /* \"#utility.yul\":6126:6243   */\n      iszero\n      tag_165\n      jumpi\n        /* \"#utility.yul\":6162:6241   */\n      tag_166\n      tag_65\n      jump\t// in\n    tag_166:\n        /* \"#utility.yul\":6126:6243   */\n    tag_165:\n        /* \"#utility.yul\":6267:6330   */\n      tag_167\n        /* \"#utility.yul\":6322:6329   */\n      dup5\n        /* \"#utility.yul\":6313:6319   */\n      dup3\n        /* \"#utility.yul\":6302:6311   */\n      dup6\n        /* \"#utility.yul\":6298:6320   */\n      add\n        /* \"#utility.yul\":6267:6330   */\n      tag_88\n      jump\t// in\n    tag_167:\n        /* \"#utility.yul\":6257:6330   */\n      swap2\n      pop\n        /* \"#utility.yul\":6053:6340   */\n      pop\n        /* \"#utility.yul\":5838:6347   */\n      swap3\n      swap2\n      pop\n      pop\n      jump\t// out\n        /* \"#utility.yul\":6353:6475   */\n    tag_89:\n        /* \"#utility.yul\":6426:6450   */\n      tag_169\n        /* \"#utility.yul\":6444:6449   */\n      dup2\n        /* \"#utility.yul\":6426:6450   */\n      tag_70\n      jump\t// in\n    tag_169:\n        /* \"#utility.yul\":6419:6424   */\n      dup2\n        /* \"#utility.yul\":6416:6451   */\n      eq\n        /* \"#utility.yul\":6406:6469   */\n      tag_170\n      jumpi\n        /* \"#utility.yul\":6465:6466   */\n      0x00\n        /* \"#utility.yul\":6462:6463   */\n      dup1\n        /* \"#utility.yul\":6455:6467   */\n      revert\n        /* \"#utility.yul\":6406:6469   */\n    tag_170:\n        /* \"#utility.yul\":6353:6475   */\n      pop\n      jump\t// out\n        /* \"#utility.yul\":6481:6620   */\n    tag_90:\n        /* \"#utility.yul\":6527:6532   */\n      0x00\n        /* \"#utility.yul\":6565:6571   */\n      dup2\n        /* \"#utility.yul\":6552:6572   */\n      calldataload\n        /* \"#utility.yul\":6543:6572   */\n      swap1\n      pop\n        /* \"#utility.yul\":6581:6614   */\n      tag_172\n        /* \"#utility.yul\":6608:6613   */\n      dup2\n        /* \"#utility.yul\":6581:6614   */\n      tag_89\n      jump\t// in\n    tag_172:\n        /* \"#utility.yul\":6481:6620   */\n      swap3\n      swap2\n      pop\n      pop\n      jump\t// out\n        /* \"#utility.yul\":6626:6955   */\n    tag_24:\n        /* \"#utility.yul\":6685:6691   */\n      0x00\n        /* \"#utility.yul\":6734:6736   */\n      0x20\n        /* \"#utility.yul\":6722:6731   */\n      dup3\n        /* \"#utility.yul\":6713:6720   */\n      dup5\n        /* \"#utility.yul\":6709:6732   */\n      sub\n        /* \"#utility.yul\":6705:6737   */\n      slt\n        /* \"#utility.yul\":6702:6821   */\n      iszero\n      tag_174\n      jumpi\n        /* \"#utility.yul\":6740:6819   */\n      tag_175\n      tag_64\n      jump\t// in\n    tag_175:\n        /* \"#utility.yul\":6702:6821   */\n    tag_174:\n        /* \"#utility.yul\":6860:6861   */\n      0x00\n        /* \"#utility.yul\":6885:6938   */\n      tag_176\n        /* \"#utility.yul\":6930:6937   */\n      dup5\n        /* \"#utility.yul\":6921:6927   */\n      dup3\n        /* \"#utility.yul\":6910:6919   */\n      dup6\n        /* \"#utility.yul\":6906:6928   */\n      add\n        /* \"#utility.yul\":6885:6938   */\n      tag_90\n      jump\t// in\n    tag_176:\n        /* \"#utility.yul\":6875:6938   */\n      swap2\n      pop\n        /* \"#utility.yul\":6831:6948   */\n      pop\n        /* \"#utility.yul\":6626:6955   */\n      swap3\n      swap2\n      pop\n      pop\n      jump\t// out\n        /* \"#utility.yul\":6961:7060   */\n    tag_91:\n        /* \"#utility.yul\":7013:7019   */\n      0x00\n        /* \"#utility.yul\":7047:7052   */\n      dup2\n        /* \"#utility.yul\":7041:7053   */\n      mload\n        /* \"#utility.yul\":7031:7053   */\n      swap1\n      pop\n        /* \"#utility.yul\":6961:7060   */\n      swap2\n      swap1\n      pop\n      jump\t// out\n        /* \"#utility.yul\":7066:7235   */\n    tag_92:\n        /* \"#utility.yul\":7150:7161   */\n      0x00\n        /* \"#utility.yul\":7184:7190   */\n      dup3\n        /* \"#utility.yul\":7179:7182   */\n      dup3\n        /* \"#utility.yul\":7172:7191   */\n      mstore\n        /* \"#utility.yul\":7224:7228   */\n      0x20\n        /* \"#utility.yul\":7219:7222   */\n      dup3\n        /* \"#utility.yul\":7215:7229   */\n      add\n        /* \"#utility.yul\":7200:7229   */\n      swap1\n      pop\n        /* \"#utility.yul\":7066:7235   */\n      swap3\n      swap2\n      pop\n      pop\n      jump\t// out\n        /* \"#utility.yul\":7241:7548   */\n    tag_93:\n        /* \"#utility.yul\":7309:7310   */\n      0x00\n        /* \"#utility.yul\":7319:7432   */\n    tag_180:\n        /* \"#utility.yul\":7333:7339   */\n      dup4\n        /* \"#utility.yul\":7330:7331   */\n      dup2\n        /* \"#utility.yul\":7327:7340   */\n      lt\n        /* \"#utility.yul\":7319:7432   */\n      iszero\n      tag_182\n      jumpi\n        /* \"#utility.yul\":7418:7419   */\n      dup1\n        /* \"#utility.yul\":7413:7416   */\n      dup3\n        /* \"#utility.yul\":7409:7420   */\n      add\n        /* \"#utility.yul\":7403:7421   */\n      mload\n        /* \"#utility.yul\":7399:7400   */\n      dup2\n        /* \"#utility.yul\":7394:7397   */\n      dup5\n        /* \"#utility.yul\":7390:7401   */\n      add\n        /* \"#utility.yul\":7383:7422   */\n      mstore\n        /* \"#utility.yul\":7355:7357   */\n      0x20\n        /* \"#utility.yul\":7352:7353   */\n      dup2\n        /* \"#utility.yul\":7348:7358   */\n      add\n        /* \"#utility.yul\":7343:7358   */\n      swap1\n      pop\n        /* \"#utility.yul\":7319:7432   */\n      jump(tag_180)\n    tag_182:\n        /* \"#utility.yul\":7450:7456   */\n      dup4\n        /* \"#utility.yul\":7447:7448   */\n      dup2\n        /* \"#utility.yul\":7444:7457   */\n      gt\n        /* \"#utility.yul\":7441:7542   */\n      iszero\n      tag_183\n      jumpi\n        /* \"#utility.yul\":7530:7531   */\n      0x00\n        /* \"#utility.yul\":7521:7527   */\n      dup5\n        /* \"#utility.yul\":7516:7519   */\n      dup5\n        /* \"#utility.yul\":7512:7528   */\n      add\n        /* \"#utility.yul\":7505:7532   */\n      mstore\n        /* \"#utility.yul\":7441:7542   */\n    tag_183:\n        /* \"#utility.yul\":7290:7548   */\n      pop\n        /* \"#utility.yul\":7241:7548   */\n      pop\n      pop\n      pop\n      jump\t// out\n        /* \"#utility.yul\":7554:7918   */\n    tag_94:\n        /* \"#utility.yul\":7642:7645   */\n      0x00\n        /* \"#utility.yul\":7670:7709   */\n      tag_185\n        /* \"#utility.yul\":7703:7708   */\n      dup3\n        /* \"#utility.yul\":7670:7709   */\n      tag_91\n      jump\t// in\n    tag_185:\n        /* \"#utility.yul\":7725:7796   */\n      tag_186\n        /* \"#utility.yul\":7789:7795   */\n      dup2\n        /* \"#utility.yul\":7784:7787   */\n      dup6\n        /* \"#utility.yul\":7725:7796   */\n      tag_92\n      jump\t// in\n    tag_186:\n        /* \"#utility.yul\":7718:7796   */\n      swap4\n      pop\n        /* \"#utility.yul\":7805:7857   */\n      tag_187\n        /* \"#utility.yul\":7850:7856   */\n      dup2\n        /* \"#utility.yul\":7845:7848   */\n      dup6\n        /* \"#utility.yul\":7838:7842   */\n      0x20\n        /* \"#utility.yul\":7831:7836   */\n      dup7\n        /* \"#utility.yul\":7827:7843   */\n      add\n        /* \"#utility.yul\":7805:7857   */\n      tag_93\n      jump\t// in\n    tag_187:\n        /* \"#utility.yul\":7882:7911   */\n      tag_188\n        /* \"#utility.yul\":7904:7910   */\n      dup2\n        /* \"#utility.yul\":7882:7911   */\n      tag_81\n      jump\t// in\n    tag_188:\n        /* \"#utility.yul\":7877:7880   */\n      dup5\n        /* \"#utility.yul\":7873:7912   */\n      add\n        /* \"#utility.yul\":7866:7912   */\n      swap2\n      pop\n        /* \"#utility.yul\":7646:7918   */\n      pop\n        /* \"#utility.yul\":7554:7918   */\n      swap3\n      swap2\n      pop\n      pop\n      jump\t// out\n        /* \"#utility.yul\":7924:8237   */\n    tag_27:\n        /* \"#utility.yul\":8037:8041   */\n      0x00\n        /* \"#utility.yul\":8075:8077   */\n      0x20\n        /* \"#utility.yul\":8064:8073   */\n      dup3\n        /* \"#utility.yul\":8060:8078   */\n      add\n        /* \"#utility.yul\":8052:8078   */\n      swap1\n      pop\n        /* \"#utility.yul\":8124:8133   */\n      dup2\n        /* \"#utility.yul\":8118:8122   */\n      dup2\n        /* \"#utility.yul\":8114:8134   */\n      sub\n        /* \"#utility.yul\":8110:8111   */\n      0x00\n        /* \"#utility.yul\":8099:8108   */\n      dup4\n        /* \"#utility.yul\":8095:8112   */\n      add\n        /* \"#utility.yul\":8088:8135   */\n      mstore\n        /* \"#utility.yul\":8152:8230   */\n      tag_190\n        /* \"#utility.yul\":8225:8229   */\n      dup2\n        /* \"#utility.yul\":8216:8222   */\n      dup5\n        /* \"#utility.yul\":8152:8230   */\n      tag_94\n      jump\t// in\n    tag_190:\n        /* \"#utility.yul\":8144:8230   */\n      swap1\n      pop\n        /* \"#utility.yul\":7924:8237   */\n      swap3\n      swap2\n      pop\n      pop\n      jump\t// out\n        /* \"#utility.yul\":8243:9402   */\n    tag_30:\n        /* \"#utility.yul\":8350:8356   */\n      0x00\n        /* \"#utility.yul\":8358:8364   */\n      dup1\n        /* \"#utility.yul\":8366:8372   */\n      0x00\n        /* \"#utility.yul\":8415:8417   */\n      0x60\n        /* \"#utility.yul\":8403:8412   */\n      dup5\n        /* \"#utility.yul\":8394:8401   */\n      dup7\n        /* \"#utility.yul\":8390:8413   */\n      sub\n        /* \"#utility.yul\":8386:8418   */\n      slt\n        /* \"#utility.yul\":8383:8502   */\n      iszero\n      tag_192\n      jumpi\n        /* \"#utility.yul\":8421:8500   */\n      tag_193\n      tag_64\n      jump\t// in\n    tag_193:\n        /* \"#utility.yul\":8383:8502   */\n    tag_192:\n        /* \"#utility.yul\":8569:8570   */\n      0x00\n        /* \"#utility.yul\":8558:8567   */\n      dup5\n        /* \"#utility.yul\":8554:8571   */\n      add\n        /* \"#utility.yul\":8541:8572   */\n      calldataload\n        /* \"#utility.yul\":8599:8617   */\n      0xffffffffffffffff\n        /* \"#utility.yul\":8591:8597   */\n      dup2\n        /* \"#utility.yul\":8588:8618   */\n      gt\n        /* \"#utility.yul\":8585:8702   */\n      iszero\n      tag_194\n      jumpi\n        /* \"#utility.yul\":8621:8700   */\n      tag_195\n      tag_65\n      jump\t// in\n    tag_195:\n        /* \"#utility.yul\":8585:8702   */\n    tag_194:\n        /* \"#utility.yul\":8726:8789   */\n      tag_196\n        /* \"#utility.yul\":8781:8788   */\n      dup7\n        /* \"#utility.yul\":8772:8778   */\n      dup3\n        /* \"#utility.yul\":8761:8770   */\n      dup8\n        /* \"#utility.yul\":8757:8779   */\n      add\n        /* \"#utility.yul\":8726:8789   */\n      tag_88\n      jump\t// in\n    tag_196:\n        /* \"#utility.yul\":8716:8789   */\n      swap4\n      pop\n        /* \"#utility.yul\":8512:8799   */\n      pop\n        /* \"#utility.yul\":8866:8868   */\n      0x20\n        /* \"#utility.yul\":8855:8864   */\n      dup5\n        /* \"#utility.yul\":8851:8869   */\n      add\n        /* \"#utility.yul\":8838:8870   */\n      calldataload\n        /* \"#utility.yul\":8897:8915   */\n      0xffffffffffffffff\n        /* \"#utility.yul\":8889:8895   */\n      dup2\n        /* \"#utility.yul\":8886:8916   */\n      gt\n        /* \"#utility.yul\":8883:9000   */\n      iszero\n      tag_197\n      jumpi\n        /* \"#utility.yul\":8919:8998   */\n      tag_198\n      tag_65\n      jump\t// in\n    tag_198:\n        /* \"#utility.yul\":8883:9000   */\n    tag_197:\n        /* \"#utility.yul\":9024:9087   */\n      tag_199\n        /* \"#utility.yul\":9079:9086   */\n      dup7\n        /* \"#utility.yul\":9070:9076   */\n      dup3\n        /* \"#utility.yul\":9059:9068   */\n      dup8\n        /* \"#utility.yul\":9055:9077   */\n      add\n        /* \"#utility.yul\":9024:9087   */\n      tag_88\n      jump\t// in\n    tag_199:\n        /* \"#utility.yul\":9014:9087   */\n      swap3\n      pop\n        /* \"#utility.yul\":8809:9097   */\n      pop\n        /* \"#utility.yul\":9164:9166   */\n      0x40\n        /* \"#utility.yul\":9153:9162   */\n      dup5\n        /* \"#utility.yul\":9149:9167   */\n      add\n        /* \"#utility.yul\":9136:9168   */\n      calldataload\n        /* \"#utility.yul\":9195:9213   */\n      0xffffffffffffffff\n        /* \"#utility.yul\":9187:9193   */\n      dup2\n        /* \"#utility.yul\":9184:9214   */\n      gt\n        /* \"#utility.yul\":9181:9298   */\n      iszero\n      tag_200\n      jumpi\n        /* \"#utility.yul\":9217:9296   */\n      tag_201\n      tag_65\n      jump\t// in\n    tag_201:\n        /* \"#utility.yul\":9181:9298   */\n    tag_200:\n        /* \"#utility.yul\":9322:9385   */\n      tag_202\n        /* \"#utility.yul\":9377:9384   */\n      dup7\n        /* \"#utility.yul\":9368:9374   */\n      dup3\n        /* \"#utility.yul\":9357:9366   */\n      dup8\n        /* \"#utility.yul\":9353:9375   */\n      add\n        /* \"#utility.yul\":9322:9385   */\n      tag_88\n      jump\t// in\n    tag_202:\n        /* \"#utility.yul\":9312:9385   */\n      swap2\n      pop\n        /* \"#utility.yul\":9107:9395   */\n      pop\n        /* \"#utility.yul\":8243:9402   */\n      swap3\n      pop\n      swap3\n      pop\n      swap3\n      jump\t// out\n        /* \"#utility.yul\":9408:9588   */\n    tag_95:\n        /* \"#utility.yul\":9456:9533   */\n      0x4e487b7100000000000000000000000000000000000000000000000000000000\n        /* \"#utility.yul\":9453:9454   */\n      0x00\n        /* \"#utility.yul\":9446:9534   */\n      mstore\n        /* \"#utility.yul\":9553:9557   */\n      0x22\n        /* \"#utility.yul\":9550:9551   */\n      0x04\n        /* \"#utility.yul\":9543:9558   */\n      mstore\n        /* \"#utility.yul\":9577:9581   */\n      0x24\n        /* \"#utility.yul\":9574:9575   */\n      0x00\n        /* \"#utility.yul\":9567:9582   */\n      revert\n        /* \"#utility.yul\":9594:9914   */\n    tag_41:\n        /* \"#utility.yul\":9638:9644   */\n      0x00\n        /* \"#utility.yul\":9675:9676   */\n      0x02\n        /* \"#utility.yul\":9669:9673   */\n      dup3\n        /* \"#utility.yul\":9665:9677   */\n      div\n        /* \"#utility.yul\":9655:9677   */\n      swap1\n      pop\n        /* \"#utility.yul\":9722:9723   */\n      0x01\n        /* \"#utility.yul\":9716:9720   */\n      dup3\n        /* \"#utility.yul\":9712:9724   */\n      and\n        /* \"#utility.yul\":9743:9761   */\n      dup1\n        /* \"#utility.yul\":9733:9814   */\n      tag_205\n      jumpi\n        /* \"#utility.yul\":9799:9803   */\n      0x7f\n        /* \"#utility.yul\":9791:9797   */\n      dup3\n        /* \"#utility.yul\":9787:9804   */\n      and\n        /* \"#utility.yul\":9777:9804   */\n      swap2\n      pop\n        /* \"#utility.yul\":9733:9814   */\n    tag_205:\n        /* \"#utility.yul\":9861:9863   */\n      0x20\n        /* \"#utility.yul\":9853:9859   */\n      dup3\n        /* \"#utility.yul\":9850:9864   */\n      lt\n        /* \"#utility.yul\":9830:9848   */\n      dup2\n        /* \"#utility.yul\":9827:9865   */\n      eq\n        /* \"#utility.yul\":9824:9908   */\n      iszero\n      tag_206\n      jumpi\n        /* \"#utility.yul\":9880:9898   */\n      tag_207\n      tag_95\n      jump\t// in\n    tag_207:\n        /* \"#utility.yul\":9824:9908   */\n    tag_206:\n        /* \"#utility.yul\":9645:9914   */\n      pop\n        /* \"#utility.yul\":9594:9914   */\n      swap2\n      swap1\n      pop\n      jump\t// out\n        /* \"#utility.yul\":9920:10746   */\n    tag_50:\n        /* \"#utility.yul\":10157:10161   */\n      0x00\n        /* \"#utility.yul\":10195:10198   */\n      0x80\n        /* \"#utility.yul\":10184:10193   */\n      dup3\n        /* \"#utility.yul\":10180:10199   */\n      add\n        /* \"#utility.yul\":10172:10199   */\n      swap1\n      pop\n        /* \"#utility.yul\":10209:10280   */\n      tag_209\n        /* \"#utility.yul\":10277:10278   */\n      0x00\n        /* \"#utility.yul\":10266:10275   */\n      dup4\n        /* \"#utility.yul\":10262:10279   */\n      add\n        /* \"#utility.yul\":10253:10259   */\n      dup8\n        /* \"#utility.yul\":10209:10280   */\n      tag_71\n      jump\t// in\n    tag_209:\n        /* \"#utility.yul\":10327:10336   */\n      dup2\n        /* \"#utility.yul\":10321:10325   */\n      dup2\n        /* \"#utility.yul\":10317:10337   */\n      sub\n        /* \"#utility.yul\":10312:10314   */\n      0x20\n        /* \"#utility.yul\":10301:10310   */\n      dup4\n        /* \"#utility.yul\":10297:10315   */\n      add\n        /* \"#utility.yul\":10290:10338   */\n      mstore\n        /* \"#utility.yul\":10355:10433   */\n      tag_210\n        /* \"#utility.yul\":10428:10432   */\n      dup2\n        /* \"#utility.yul\":10419:10425   */\n      dup7\n        /* \"#utility.yul\":10355:10433   */\n      tag_94\n      jump\t// in\n    tag_210:\n        /* \"#utility.yul\":10347:10433   */\n      swap1\n      pop\n        /* \"#utility.yul\":10480:10489   */\n      dup2\n        /* \"#utility.yul\":10474:10478   */\n      dup2\n        /* \"#utility.yul\":10470:10490   */\n      sub\n        /* \"#utility.yul\":10465:10467   */\n      0x40\n        /* \"#utility.yul\":10454:10463   */\n      dup4\n        /* \"#utility.yul\":10450:10468   */\n      add\n        /* \"#utility.yul\":10443:10491   */\n      mstore\n        /* \"#utility.yul\":10508:10586   */\n      tag_211\n        /* \"#utility.yul\":10581:10585   */\n      dup2\n        /* \"#utility.yul\":10572:10578   */\n      dup6\n        /* \"#utility.yul\":10508:10586   */\n      tag_94\n      jump\t// in\n    tag_211:\n        /* \"#utility.yul\":10500:10586   */\n      swap1\n      pop\n        /* \"#utility.yul\":10633:10642   */\n      dup2\n        /* \"#utility.yul\":10627:10631   */\n      dup2\n        /* \"#utility.yul\":10623:10643   */\n      sub\n        /* \"#utility.yul\":10618:10620   */\n      0x60\n        /* \"#utility.yul\":10607:10616   */\n      dup4\n        /* \"#utility.yul\":10603:10621   */\n      add\n        /* \"#utility.yul\":10596:10644   */\n      mstore\n        /* \"#utility.yul\":10661:10739   */\n      tag_212\n        /* \"#utility.yul\":10734:10738   */\n      dup2\n        /* \"#utility.yul\":10725:10731   */\n      dup5\n        /* \"#utility.yul\":10661:10739   */\n      tag_94\n      jump\t// in\n    tag_212:\n        /* \"#utility.yul\":10653:10739   */\n      swap1\n      pop\n        /* \"#utility.yul\":9920:10746   */\n      swap6\n      swap5\n      pop\n      pop\n      pop\n      pop\n      pop\n      jump\t// out\n    stop\n\n    sub_0: assembly {\n            /* \"Story.sol\":1194:7824  contract Story {... */\n          mstore(0x40, 0x80)\n            /* \"Story.sol\":1912:2258  constructor(address _mainAuthor, string memory _title, string memory _genre, string memory _mainIdea) {... */\n          callvalue\n          dup1\n          iszero\n          tag_1\n          jumpi\n          0x00\n          dup1\n          revert\n        tag_1:\n          pop\n          mload(0x40)\n          sub(codesize, bytecodeSize)\n          dup1\n          bytecodeSize\n          dup4\n          codecopy\n          dup2\n          dup2\n          add\n          0x40\n          mstore\n          dup2\n          add\n          swap1\n          tag_2\n          swap2\n          swap1\n          tag_3\n          jump\t// in\n        tag_2:\n            /* \"Story.sol\":2038:2049  _mainAuthor */\n          dup4\n            /* \"Story.sol\":2025:2035  mainAuthor */\n          0x00\n          dup1\n            /* \"Story.sol\":2025:2049  mainAuthor = _mainAuthor */\n          0x0100\n          exp\n          dup2\n          sload\n          dup2\n          0xffffffffffffffffffffffffffffffffffffffff\n          mul\n          not\n          and\n          swap1\n          dup4\n          0xffffffffffffffffffffffffffffffffffffffff\n          and\n          mul\n          or\n          swap1\n          sstore\n          pop\n            /* \"Story.sol\":2094:2098  true */\n          0x01\n            /* \"Story.sol\":2060:2078  authorsForSolidity */\n          0x04\n            /* \"Story.sol\":2060:2091  authorsForSolidity[_mainAuthor] */\n          0x00\n            /* \"Story.sol\":2079:2090  _mainAuthor */\n          dup7\n            /* \"Story.sol\":2060:2091  authorsForSolidity[_mainAuthor] */\n          0xffffffffffffffffffffffffffffffffffffffff\n          and\n          0xffffffffffffffffffffffffffffffffffffffff\n          and\n          dup2\n          mstore\n          0x20\n          add\n          swap1\n          dup2\n          mstore\n          0x20\n          add\n          0x00\n          keccak256\n          0x00\n            /* \"Story.sol\":2060:2098  authorsForSolidity[_mainAuthor] = true */\n          0x0100\n          exp\n          dup2\n          sload\n          dup2\n          0xff\n          mul\n          not\n          and\n          swap1\n          dup4\n          iszero\n          iszero\n          mul\n          or\n          swap1\n          sstore\n          pop\n            /* \"Story.sol\":2109:2124  authorsForReact */\n          0x05\n            /* \"Story.sol\":2130:2141  _mainAuthor */\n          dup5\n            /* \"Story.sol\":2109:2142  authorsForReact.push(_mainAuthor) */\n          swap1\n          dup1\n          0x01\n          dup2\n          sload\n          add\n          dup1\n          dup3\n          sstore\n          dup1\n          swap2\n          pop\n          pop\n          0x01\n          swap1\n          sub\n          swap1\n          0x00\n          mstore\n          keccak256(0x00, 0x20)\n          add\n          0x00\n          swap1\n          swap2\n          swap1\n          swap2\n          swap1\n          swap2\n          0x0100\n          exp\n          dup2\n          sload\n          dup2\n          0xffffffffffffffffffffffffffffffffffffffff\n          mul\n          not\n          and\n          swap1\n          dup4\n          0xffffffffffffffffffffffffffffffffffffffff\n          and\n          mul\n          or\n          swap1\n          sstore\n          pop\n            /* \"Story.sol\":2161:2167  _title */\n          dup3\n            /* \"Story.sol\":2153:2158  title */\n          0x01\n            /* \"Story.sol\":2153:2167  title = _title */\n          swap1\n          dup1\n          mload\n          swap1\n          0x20\n          add\n          swap1\n          tag_7\n          swap3\n          swap2\n          swap1\n          tag_8\n          jump\t// in\n        tag_7:\n          pop\n            /* \"Story.sol\":2186:2192  _genre */\n          dup2\n            /* \"Story.sol\":2178:2183  genre */\n          0x02\n            /* \"Story.sol\":2178:2192  genre = _genre */\n          swap1\n          dup1\n          mload\n          swap1\n          0x20\n          add\n          swap1\n          tag_9\n          swap3\n          swap2\n          swap1\n          tag_8\n          jump\t// in\n        tag_9:\n          pop\n            /* \"Story.sol\":2214:2223  _mainIdea */\n          dup1\n            /* \"Story.sol\":2203:2211  mainIdea */\n          0x03\n            /* \"Story.sol\":2203:2223  mainIdea = _mainIdea */\n          swap1\n          dup1\n          mload\n          swap1\n          0x20\n          add\n          swap1\n          tag_10\n          swap3\n          swap2\n          swap1\n          tag_8\n          jump\t// in\n        tag_10:\n          pop\n            /* \"Story.sol\":2245:2250  false */\n          0x00\n            /* \"Story.sol\":2234:2242  reported */\n          0x0b\n          0x00\n            /* \"Story.sol\":2234:2250  reported = false */\n          0x0100\n          exp\n          dup2\n          sload\n          dup2\n          0xff\n          mul\n          not\n          and\n          swap1\n          dup4\n          iszero\n          iszero\n          mul\n          or\n          swap1\n          sstore\n          pop\n            /* \"Story.sol\":1912:2258  constructor(address _mainAuthor, string memory _title, string memory _genre, string memory _mainIdea) {... */\n          pop\n          pop\n          pop\n          pop\n            /* \"Story.sol\":1194:7824  contract Story {... */\n          jump(tag_11)\n        tag_8:\n          dup3\n          dup1\n          sload\n          tag_12\n          swap1\n          tag_13\n          jump\t// in\n        tag_12:\n          swap1\n          0x00\n          mstore\n          keccak256(0x00, 0x20)\n          swap1\n          0x1f\n          add\n          0x20\n          swap1\n          div\n          dup2\n          add\n          swap3\n          dup3\n          tag_15\n          jumpi\n          0x00\n          dup6\n          sstore\n          jump(tag_14)\n        tag_15:\n          dup3\n          0x1f\n          lt\n          tag_16\n          jumpi\n          dup1\n          mload\n          not(0xff)\n          and\n          dup4\n          dup1\n          add\n          or\n          dup6\n          sstore\n          jump(tag_14)\n        tag_16:\n          dup3\n          dup1\n          add\n          0x01\n          add\n          dup6\n          sstore\n          dup3\n          iszero\n          tag_14\n          jumpi\n          swap2\n          dup3\n          add\n        tag_17:\n          dup3\n          dup2\n          gt\n          iszero\n          tag_18\n          jumpi\n          dup3\n          mload\n          dup3\n          sstore\n          swap2\n          0x20\n          add\n          swap2\n          swap1\n          0x01\n          add\n          swap1\n          jump(tag_17)\n        tag_18:\n        tag_14:\n          pop\n          swap1\n          pop\n          tag_19\n          swap2\n          swap1\n          tag_20\n          jump\t// in\n        tag_19:\n          pop\n          swap1\n          jump\t// out\n        tag_20:\n        tag_21:\n          dup1\n          dup3\n          gt\n          iszero\n          tag_22\n          jumpi\n          0x00\n          dup2\n          0x00\n          swap1\n          sstore\n          pop\n          0x01\n          add\n          jump(tag_21)\n        tag_22:\n          pop\n          swap1\n          jump\t// out\n            /* \"#utility.yul\":7:82   */\n        tag_23:\n            /* \"#utility.yul\":40:46   */\n          0x00\n            /* \"#utility.yul\":73:75   */\n          0x40\n            /* \"#utility.yul\":67:76   */\n          mload\n            /* \"#utility.yul\":57:76   */\n          swap1\n          pop\n            /* \"#utility.yul\":7:82   */\n          swap1\n          jump\t// out\n            /* \"#utility.yul\":88:205   */\n        tag_24:\n            /* \"#utility.yul\":197:198   */\n          0x00\n            /* \"#utility.yul\":194:195   */\n          dup1\n            /* \"#utility.yul\":187:199   */\n          revert\n            /* \"#utility.yul\":211:328   */\n        tag_25:\n            /* \"#utility.yul\":320:321   */\n          0x00\n            /* \"#utility.yul\":317:318   */\n          dup1\n            /* \"#utility.yul\":310:322   */\n          revert\n            /* \"#utility.yul\":334:460   */\n        tag_26:\n            /* \"#utility.yul\":371:378   */\n          0x00\n            /* \"#utility.yul\":411:453   */\n          0xffffffffffffffffffffffffffffffffffffffff\n            /* \"#utility.yul\":404:409   */\n          dup3\n            /* \"#utility.yul\":400:454   */\n          and\n            /* \"#utility.yul\":389:454   */\n          swap1\n          pop\n            /* \"#utility.yul\":334:460   */\n          swap2\n          swap1\n          pop\n          jump\t// out\n            /* \"#utility.yul\":466:562   */\n        tag_27:\n            /* \"#utility.yul\":503:510   */\n          0x00\n            /* \"#utility.yul\":532:556   */\n          tag_47\n            /* \"#utility.yul\":550:555   */\n          dup3\n            /* \"#utility.yul\":532:556   */\n          tag_26\n          jump\t// in\n        tag_47:\n            /* \"#utility.yul\":521:556   */\n          swap1\n          pop\n            /* \"#utility.yul\":466:562   */\n          swap2\n          swap1\n          pop\n          jump\t// out\n            /* \"#utility.yul\":568:690   */\n        tag_28:\n            /* \"#utility.yul\":641:665   */\n          tag_49\n            /* \"#utility.yul\":659:664   */\n          dup2\n            /* \"#utility.yul\":641:665   */\n          tag_27\n          jump\t// in\n        tag_49:\n            /* \"#utility.yul\":634:639   */\n          dup2\n            /* \"#utility.yul\":631:666   */\n          eq\n            /* \"#utility.yul\":621:684   */\n          tag_50\n          jumpi\n            /* \"#utility.yul\":680:681   */\n          0x00\n            /* \"#utility.yul\":677:678   */\n          dup1\n            /* \"#utility.yul\":670:682   */\n          revert\n            /* \"#utility.yul\":621:684   */\n        tag_50:\n            /* \"#utility.yul\":568:690   */\n          pop\n          jump\t// out\n            /* \"#utility.yul\":696:839   */\n        tag_29:\n            /* \"#utility.yul\":753:758   */\n          0x00\n            /* \"#utility.yul\":784:790   */\n          dup2\n            /* \"#utility.yul\":778:791   */\n          mload\n            /* \"#utility.yul\":769:791   */\n          swap1\n          pop\n            /* \"#utility.yul\":800:833   */\n          tag_52\n            /* \"#utility.yul\":827:832   */\n          dup2\n            /* \"#utility.yul\":800:833   */\n          tag_28\n          jump\t// in\n        tag_52:\n            /* \"#utility.yul\":696:839   */\n          swap3\n          swap2\n          pop\n          pop\n          jump\t// out\n            /* \"#utility.yul\":845:962   */\n        tag_30:\n            /* \"#utility.yul\":954:955   */\n          0x00\n            /* \"#utility.yul\":951:952   */\n          dup1\n            /* \"#utility.yul\":944:956   */\n          revert\n            /* \"#utility.yul\":968:1085   */\n        tag_31:\n            /* \"#utility.yul\":1077:1078   */\n          0x00\n            /* \"#utility.yul\":1074:1075   */\n          dup1\n            /* \"#utility.yul\":1067:1079   */\n          revert\n            /* \"#utility.yul\":1091:1193   */\n        tag_32:\n            /* \"#utility.yul\":1132:1138   */\n          0x00\n            /* \"#utility.yul\":1183:1185   */\n          0x1f\n            /* \"#utility.yul\":1179:1186   */\n          not\n            /* \"#utility.yul\":1174:1176   */\n          0x1f\n            /* \"#utility.yul\":1167:1172   */\n          dup4\n            /* \"#utility.yul\":1163:1177   */\n          add\n            /* \"#utility.yul\":1159:1187   */\n          and\n            /* \"#utility.yul\":1149:1187   */\n          swap1\n          pop\n            /* \"#utility.yul\":1091:1193   */\n          swap2\n          swap1\n          pop\n          jump\t// out\n            /* \"#utility.yul\":1199:1379   */\n        tag_33:\n            /* \"#utility.yul\":1247:1324   */\n          0x4e487b7100000000000000000000000000000000000000000000000000000000\n            /* \"#utility.yul\":1244:1245   */\n          0x00\n            /* \"#utility.yul\":1237:1325   */\n          mstore\n            /* \"#utility.yul\":1344:1348   */\n          0x41\n            /* \"#utility.yul\":1341:1342   */\n          0x04\n            /* \"#utility.yul\":1334:1349   */\n          mstore\n            /* \"#utility.yul\":1368:1372   */\n          0x24\n            /* \"#utility.yul\":1365:1366   */\n          0x00\n            /* \"#utility.yul\":1358:1373   */\n          revert\n            /* \"#utility.yul\":1385:1666   */\n        tag_34:\n            /* \"#utility.yul\":1468:1495   */\n          tag_58\n            /* \"#utility.yul\":1490:1494   */\n          dup3\n            /* \"#utility.yul\":1468:1495   */\n          tag_32\n          jump\t// in\n        tag_58:\n            /* \"#utility.yul\":1460:1466   */\n          dup2\n            /* \"#utility.yul\":1456:1496   */\n          add\n            /* \"#utility.yul\":1598:1604   */\n          dup2\n            /* \"#utility.yul\":1586:1596   */\n          dup2\n            /* \"#utility.yul\":1583:1605   */\n          lt\n            /* \"#utility.yul\":1562:1580   */\n          0xffffffffffffffff\n            /* \"#utility.yul\":1550:1560   */\n          dup3\n            /* \"#utility.yul\":1547:1581   */\n          gt\n            /* \"#utility.yul\":1544:1606   */\n          or\n            /* \"#utility.yul\":1541:1629   */\n          iszero\n          tag_59\n          jumpi\n            /* \"#utility.yul\":1609:1627   */\n          tag_60\n          tag_33\n          jump\t// in\n        tag_60:\n            /* \"#utility.yul\":1541:1629   */\n        tag_59:\n            /* \"#utility.yul\":1649:1659   */\n          dup1\n            /* \"#utility.yul\":1645:1647   */\n          0x40\n            /* \"#utility.yul\":1638:1660   */\n          mstore\n            /* \"#utility.yul\":1428:1666   */\n          pop\n            /* \"#utility.yul\":1385:1666   */\n          pop\n          pop\n          jump\t// out\n            /* \"#utility.yul\":1672:1801   */\n        tag_35:\n            /* \"#utility.yul\":1706:1712   */\n          0x00\n            /* \"#utility.yul\":1733:1753   */\n          tag_62\n          tag_23\n          jump\t// in\n        tag_62:\n            /* \"#utility.yul\":1723:1753   */\n          swap1\n          pop\n            /* \"#utility.yul\":1762:1795   */\n          tag_63\n            /* \"#utility.yul\":1790:1794   */\n          dup3\n            /* \"#utility.yul\":1782:1788   */\n          dup3\n            /* \"#utility.yul\":1762:1795   */\n          tag_34\n          jump\t// in\n        tag_63:\n            /* \"#utility.yul\":1672:1801   */\n          swap2\n          swap1\n          pop\n          jump\t// out\n            /* \"#utility.yul\":1807:2115   */\n        tag_36:\n            /* \"#utility.yul\":1869:1873   */\n          0x00\n            /* \"#utility.yul\":1959:1977   */\n          0xffffffffffffffff\n            /* \"#utility.yul\":1951:1957   */\n          dup3\n            /* \"#utility.yul\":1948:1978   */\n          gt\n            /* \"#utility.yul\":1945:2001   */\n          iszero\n          tag_65\n          jumpi\n            /* \"#utility.yul\":1981:1999   */\n          tag_66\n          tag_33\n          jump\t// in\n        tag_66:\n            /* \"#utility.yul\":1945:2001   */\n        tag_65:\n            /* \"#utility.yul\":2019:2048   */\n          tag_67\n            /* \"#utility.yul\":2041:2047   */\n          dup3\n            /* \"#utility.yul\":2019:2048   */\n          tag_32\n          jump\t// in\n        tag_67:\n            /* \"#utility.yul\":2011:2048   */\n          swap1\n          pop\n            /* \"#utility.yul\":2103:2107   */\n          0x20\n            /* \"#utility.yul\":2097:2101   */\n          dup2\n            /* \"#utility.yul\":2093:2108   */\n          add\n            /* \"#utility.yul\":2085:2108   */\n          swap1\n          pop\n            /* \"#utility.yul\":1807:2115   */\n          swap2\n          swap1\n          pop\n          jump\t// out\n            /* \"#utility.yul\":2121:2428   */\n        tag_37:\n            /* \"#utility.yul\":2189:2190   */\n          0x00\n            /* \"#utility.yul\":2199:2312   */\n        tag_69:\n            /* \"#utility.yul\":2213:2219   */\n          dup4\n            /* \"#utility.yul\":2210:2211   */\n          dup2\n            /* \"#utility.yul\":2207:2220   */\n          lt\n            /* \"#utility.yul\":2199:2312   */\n          iszero\n          tag_71\n          jumpi\n            /* \"#utility.yul\":2298:2299   */\n          dup1\n            /* \"#utility.yul\":2293:2296   */\n          dup3\n            /* \"#utility.yul\":2289:2300   */\n          add\n            /* \"#utility.yul\":2283:2301   */\n          mload\n            /* \"#utility.yul\":2279:2280   */\n          dup2\n            /* \"#utility.yul\":2274:2277   */\n          dup5\n            /* \"#utility.yul\":2270:2281   */\n          add\n            /* \"#utility.yul\":2263:2302   */\n          mstore\n            /* \"#utility.yul\":2235:2237   */\n          0x20\n            /* \"#utility.yul\":2232:2233   */\n          dup2\n            /* \"#utility.yul\":2228:2238   */\n          add\n            /* \"#utility.yul\":2223:2238   */\n          swap1\n          pop\n            /* \"#utility.yul\":2199:2312   */\n          jump(tag_69)\n        tag_71:\n            /* \"#utility.yul\":2330:2336   */\n          dup4\n            /* \"#utility.yul\":2327:2328   */\n          dup2\n            /* \"#utility.yul\":2324:2337   */\n          gt\n            /* \"#utility.yul\":2321:2422   */\n          iszero\n          tag_72\n          jumpi\n            /* \"#utility.yul\":2410:2411   */\n          0x00\n            /* \"#utility.yul\":2401:2407   */\n          dup5\n            /* \"#utility.yul\":2396:2399   */\n          dup5\n            /* \"#utility.yul\":2392:2408   */\n          add\n            /* \"#utility.yul\":2385:2412   */\n          mstore\n            /* \"#utility.yul\":2321:2422   */\n        tag_72:\n            /* \"#utility.yul\":2170:2428   */\n          pop\n            /* \"#utility.yul\":2121:2428   */\n          pop\n          pop\n          pop\n          jump\t// out\n            /* \"#utility.yul\":2434:2855   */\n        tag_38:\n            /* \"#utility.yul\":2523:2528   */\n          0x00\n            /* \"#utility.yul\":2548:2614   */\n          tag_74\n            /* \"#utility.yul\":2564:2613   */\n          tag_75\n            /* \"#utility.yul\":2606:2612   */\n          dup5\n            /* \"#utility.yul\":2564:2613   */\n          tag_36\n          jump\t// in\n        tag_75:\n            /* \"#utility.yul\":2548:2614   */\n          tag_35\n          jump\t// in\n        tag_74:\n            /* \"#utility.yul\":2539:2614   */\n          swap1\n          pop\n            /* \"#utility.yul\":2637:2643   */\n          dup3\n            /* \"#utility.yul\":2630:2635   */\n          dup2\n            /* \"#utility.yul\":2623:2644   */\n          mstore\n            /* \"#utility.yul\":2675:2679   */\n          0x20\n            /* \"#utility.yul\":2668:2673   */\n          dup2\n            /* \"#utility.yul\":2664:2680   */\n          add\n            /* \"#utility.yul\":2713:2716   */\n          dup5\n            /* \"#utility.yul\":2704:2710   */\n          dup5\n            /* \"#utility.yul\":2699:2702   */\n          dup5\n            /* \"#utility.yul\":2695:2711   */\n          add\n            /* \"#utility.yul\":2692:2717   */\n          gt\n            /* \"#utility.yul\":2689:2801   */\n          iszero\n          tag_76\n          jumpi\n            /* \"#utility.yul\":2720:2799   */\n          tag_77\n          tag_31\n          jump\t// in\n        tag_77:\n            /* \"#utility.yul\":2689:2801   */\n        tag_76:\n            /* \"#utility.yul\":2810:2849   */\n          tag_78\n            /* \"#utility.yul\":2842:2848   */\n          dup5\n            /* \"#utility.yul\":2837:2840   */\n          dup3\n            /* \"#utility.yul\":2832:2835   */\n          dup6\n            /* \"#utility.yul\":2810:2849   */\n          tag_37\n          jump\t// in\n        tag_78:\n            /* \"#utility.yul\":2529:2855   */\n          pop\n            /* \"#utility.yul\":2434:2855   */\n          swap4\n          swap3\n          pop\n          pop\n          pop\n          jump\t// out\n            /* \"#utility.yul\":2875:3230   */\n        tag_39:\n            /* \"#utility.yul\":2942:2947   */\n          0x00\n            /* \"#utility.yul\":2991:2994   */\n          dup3\n            /* \"#utility.yul\":2984:2988   */\n          0x1f\n            /* \"#utility.yul\":2976:2982   */\n          dup4\n            /* \"#utility.yul\":2972:2989   */\n          add\n            /* \"#utility.yul\":2968:2995   */\n          slt\n            /* \"#utility.yul\":2958:3080   */\n          tag_80\n          jumpi\n            /* \"#utility.yul\":2999:3078   */\n          tag_81\n          tag_30\n          jump\t// in\n        tag_81:\n            /* \"#utility.yul\":2958:3080   */\n        tag_80:\n            /* \"#utility.yul\":3109:3115   */\n          dup2\n            /* \"#utility.yul\":3103:3116   */\n          mload\n            /* \"#utility.yul\":3134:3224   */\n          tag_82\n            /* \"#utility.yul\":3220:3223   */\n          dup5\n            /* \"#utility.yul\":3212:3218   */\n          dup3\n            /* \"#utility.yul\":3205:3209   */\n          0x20\n            /* \"#utility.yul\":3197:3203   */\n          dup7\n            /* \"#utility.yul\":3193:3210   */\n          add\n            /* \"#utility.yul\":3134:3224   */\n          tag_38\n          jump\t// in\n        tag_82:\n            /* \"#utility.yul\":3125:3224   */\n          swap2\n          pop\n            /* \"#utility.yul\":2948:3230   */\n          pop\n            /* \"#utility.yul\":2875:3230   */\n          swap3\n          swap2\n          pop\n          pop\n          jump\t// out\n            /* \"#utility.yul\":3236:4575   */\n        tag_3:\n            /* \"#utility.yul\":3363:3369   */\n          0x00\n            /* \"#utility.yul\":3371:3377   */\n          dup1\n            /* \"#utility.yul\":3379:3385   */\n          0x00\n            /* \"#utility.yul\":3387:3393   */\n          dup1\n            /* \"#utility.yul\":3436:3439   */\n          0x80\n            /* \"#utility.yul\":3424:3433   */\n          dup6\n            /* \"#utility.yul\":3415:3422   */\n          dup8\n            /* \"#utility.yul\":3411:3434   */\n          sub\n            /* \"#utility.yul\":3407:3440   */\n          slt\n            /* \"#utility.yul\":3404:3524   */\n          iszero\n          tag_84\n          jumpi\n            /* \"#utility.yul\":3443:3522   */\n          tag_85\n          tag_24\n          jump\t// in\n        tag_85:\n            /* \"#utility.yul\":3404:3524   */\n        tag_84:\n            /* \"#utility.yul\":3563:3564   */\n          0x00\n            /* \"#utility.yul\":3588:3652   */\n          tag_86\n            /* \"#utility.yul\":3644:3651   */\n          dup8\n            /* \"#utility.yul\":3635:3641   */\n          dup3\n            /* \"#utility.yul\":3624:3633   */\n          dup9\n            /* \"#utility.yul\":3620:3642   */\n          add\n            /* \"#utility.yul\":3588:3652   */\n          tag_29\n          jump\t// in\n        tag_86:\n            /* \"#utility.yul\":3578:3652   */\n          swap5\n          pop\n            /* \"#utility.yul\":3534:3662   */\n          pop\n            /* \"#utility.yul\":3722:3724   */\n          0x20\n            /* \"#utility.yul\":3711:3720   */\n          dup6\n            /* \"#utility.yul\":3707:3725   */\n          add\n            /* \"#utility.yul\":3701:3726   */\n          mload\n            /* \"#utility.yul\":3753:3771   */\n          0xffffffffffffffff\n            /* \"#utility.yul\":3745:3751   */\n          dup2\n            /* \"#utility.yul\":3742:3772   */\n          gt\n            /* \"#utility.yul\":3739:3856   */\n          iszero\n          tag_87\n          jumpi\n            /* \"#utility.yul\":3775:3854   */\n          tag_88\n          tag_25\n          jump\t// in\n        tag_88:\n            /* \"#utility.yul\":3739:3856   */\n        tag_87:\n            /* \"#utility.yul\":3880:3954   */\n          tag_89\n            /* \"#utility.yul\":3946:3953   */\n          dup8\n            /* \"#utility.yul\":3937:3943   */\n          dup3\n            /* \"#utility.yul\":3926:3935   */\n          dup9\n            /* \"#utility.yul\":3922:3944   */\n          add\n            /* \"#utility.yul\":3880:3954   */\n          tag_39\n          jump\t// in\n        tag_89:\n            /* \"#utility.yul\":3870:3954   */\n          swap4\n          pop\n            /* \"#utility.yul\":3672:3964   */\n          pop\n            /* \"#utility.yul\":4024:4026   */\n          0x40\n            /* \"#utility.yul\":4013:4022   */\n          dup6\n            /* \"#utility.yul\":4009:4027   */\n          add\n            /* \"#utility.yul\":4003:4028   */\n          mload\n            /* \"#utility.yul\":4055:4073   */\n          0xffffffffffffffff\n            /* \"#utility.yul\":4047:4053   */\n          dup2\n            /* \"#utility.yul\":4044:4074   */\n          gt\n            /* \"#utility.yul\":4041:4158   */\n          iszero\n          tag_90\n          jumpi\n            /* \"#utility.yul\":4077:4156   */\n          tag_91\n          tag_25\n          jump\t// in\n        tag_91:\n            /* \"#utility.yul\":4041:4158   */\n        tag_90:\n            /* \"#utility.yul\":4182:4256   */\n          tag_92\n            /* \"#utility.yul\":4248:4255   */\n          dup8\n            /* \"#utility.yul\":4239:4245   */\n          dup3\n            /* \"#utility.yul\":4228:4237   */\n          dup9\n            /* \"#utility.yul\":4224:4246   */\n          add\n            /* \"#utility.yul\":4182:4256   */\n          tag_39\n          jump\t// in\n        tag_92:\n            /* \"#utility.yul\":4172:4256   */\n          swap3\n          pop\n            /* \"#utility.yul\":3974:4266   */\n          pop\n            /* \"#utility.yul\":4326:4328   */\n          0x60\n            /* \"#utility.yul\":4315:4324   */\n          dup6\n            /* \"#utility.yul\":4311:4329   */\n          add\n            /* \"#utility.yul\":4305:4330   */\n          mload\n            /* \"#utility.yul\":4357:4375   */\n          0xffffffffffffffff\n            /* \"#utility.yul\":4349:4355   */\n          dup2\n            /* \"#utility.yul\":4346:4376   */\n          gt\n            /* \"#utility.yul\":4343:4460   */\n          iszero\n          tag_93\n          jumpi\n            /* \"#utility.yul\":4379:4458   */\n          tag_94\n          tag_25\n          jump\t// in\n        tag_94:\n            /* \"#utility.yul\":4343:4460   */\n        tag_93:\n            /* \"#utility.yul\":4484:4558   */\n          tag_95\n            /* \"#utility.yul\":4550:4557   */\n          dup8\n            /* \"#utility.yul\":4541:4547   */\n          dup3\n            /* \"#utility.yul\":4530:4539   */\n          dup9\n            /* \"#utility.yul\":4526:4548   */\n          add\n            /* \"#utility.yul\":4484:4558   */\n          tag_39\n          jump\t// in\n        tag_95:\n            /* \"#utility.yul\":4474:4558   */\n          swap2\n          pop\n            /* \"#utility.yul\":4276:4568   */\n          pop\n            /* \"#utility.yul\":3236:4575   */\n          swap3\n          swap6\n          swap2\n          swap5\n          pop\n          swap3\n          pop\n          jump\t// out\n            /* \"#utility.yul\":4581:4761   */\n        tag_40:\n            /* \"#utility.yul\":4629:4706   */\n          0x4e487b7100000000000000000000000000000000000000000000000000000000\n            /* \"#utility.yul\":4626:4627   */\n          0x00\n            /* \"#utility.yul\":4619:4707   */\n          mstore\n            /* \"#utility.yul\":4726:4730   */\n          0x22\n            /* \"#utility.yul\":4723:4724   */\n          0x04\n            /* \"#utility.yul\":4716:4731   */\n          mstore\n            /* \"#utility.yul\":4750:4754   */\n          0x24\n            /* \"#utility.yul\":4747:4748   */\n          0x00\n            /* \"#utility.yul\":4740:4755   */\n          revert\n            /* \"#utility.yul\":4767:5087   */\n        tag_13:\n            /* \"#utility.yul\":4811:4817   */\n          0x00\n            /* \"#utility.yul\":4848:4849   */\n          0x02\n            /* \"#utility.yul\":4842:4846   */\n          dup3\n            /* \"#utility.yul\":4838:4850   */\n          div\n            /* \"#utility.yul\":4828:4850   */\n          swap1\n          pop\n            /* \"#utility.yul\":4895:4896   */\n          0x01\n            /* \"#utility.yul\":4889:4893   */\n          dup3\n            /* \"#utility.yul\":4885:4897   */\n          and\n            /* \"#utility.yul\":4916:4934   */\n          dup1\n            /* \"#utility.yul\":4906:4987   */\n          tag_98\n          jumpi\n            /* \"#utility.yul\":4972:4976   */\n          0x7f\n            /* \"#utility.yul\":4964:4970   */\n          dup3\n            /* \"#utility.yul\":4960:4977   */\n          and\n            /* \"#utility.yul\":4950:4977   */\n          swap2\n          pop\n            /* \"#utility.yul\":4906:4987   */\n        tag_98:\n            /* \"#utility.yul\":5034:5036   */\n          0x20\n            /* \"#utility.yul\":5026:5032   */\n          dup3\n            /* \"#utility.yul\":5023:5037   */\n          lt\n            /* \"#utility.yul\":5003:5021   */\n          dup2\n            /* \"#utility.yul\":5000:5038   */\n          eq\n            /* \"#utility.yul\":4997:5081   */\n          iszero\n          tag_99\n          jumpi\n            /* \"#utility.yul\":5053:5071   */\n          tag_100\n          tag_40\n          jump\t// in\n        tag_100:\n            /* \"#utility.yul\":4997:5081   */\n        tag_99:\n            /* \"#utility.yul\":4818:5087   */\n          pop\n            /* \"#utility.yul\":4767:5087   */\n          swap2\n          swap1\n          pop\n          jump\t// out\n            /* \"Story.sol\":1194:7824  contract Story {... */\n        tag_11:\n          dataSize(sub_0)\n          dup1\n          dataOffset(sub_0)\n          0x00\n          codecopy\n          0x00\n          return\n        stop\n\n        sub_0: assembly {\n                /* \"Story.sol\":1194:7824  contract Story {... */\n              mstore(0x40, 0x80)\n              jumpi(tag_1, lt(calldatasize, 0x04))\n              shr(0xe0, calldataload(0x00))\n              dup1\n              0x7f51aaf9\n              gt\n              tag_17\n              jumpi\n              dup1\n              0x9d3ed807\n              gt\n              tag_18\n              jumpi\n              dup1\n              0x9d3ed807\n              eq\n              tag_13\n              jumpi\n              dup1\n              0xb5202522\n              eq\n              tag_14\n              jumpi\n              dup1\n              0xd7bb99ba\n              eq\n              tag_15\n              jumpi\n              dup1\n              0xdfa14e23\n              eq\n              tag_16\n              jumpi\n              jump(tag_1)\n            tag_18:\n              dup1\n              0x7f51aaf9\n              eq\n              tag_9\n              jumpi\n              dup1\n              0x98b79628\n              eq\n              tag_10\n              jumpi\n              dup1\n              0x992b11dc\n              eq\n              tag_11\n              jumpi\n              dup1\n              0x9c636a0f\n              eq\n              tag_12\n              jumpi\n              jump(tag_1)\n            tag_17:\n              dup1\n              0x4051ddac\n              gt\n              tag_19\n              jumpi\n              dup1\n              0x4051ddac\n              eq\n              tag_5\n              jumpi\n              dup1\n              0x5cf298fb\n              eq\n              tag_6\n              jumpi\n              dup1\n              0x5d1a870a\n              eq\n              tag_7\n              jumpi\n              dup1\n              0x6fc6c579\n              eq\n              tag_8\n              jumpi\n              jump(tag_1)\n            tag_19:\n              dup1\n              0x2606a10b\n              eq\n              tag_2\n              jumpi\n              dup1\n              0x3b6246c2\n              eq\n              tag_3\n              jumpi\n              dup1\n              0x3e5690f4\n              eq\n              tag_4\n              jumpi\n            tag_1:\n              0x00\n              dup1\n              revert\n                /* \"Story.sol\":5694:6048  function report() public noReentrancy{... */\n            tag_2:\n              callvalue\n              dup1\n              iszero\n              tag_20\n              jumpi\n              0x00\n              dup1\n              revert\n            tag_20:\n              pop\n              tag_21\n              tag_22\n              jump\t// in\n            tag_21:\n              stop\n                /* \"Story.sol\":5199:5684  function dispenseRewards() public noReentrancy{... */\n            tag_3:\n              callvalue\n              dup1\n              iszero\n              tag_23\n              jumpi\n              0x00\n              dup1\n              revert\n            tag_23:\n              pop\n              tag_24\n              tag_25\n              jump\t// in\n            tag_24:\n              stop\n                /* \"Story.sol\":1336:1386  mapping(address => bool) public authorsForSolidity */\n            tag_4:\n              callvalue\n              dup1\n              iszero\n              tag_26\n              jumpi\n              0x00\n              dup1\n              revert\n            tag_26:\n              pop\n              tag_27\n              0x04\n              dup1\n              calldatasize\n              sub\n              dup2\n              add\n              swap1\n              tag_28\n              swap2\n              swap1\n              tag_29\n              jump\t// in\n            tag_28:\n              tag_30\n              jump\t// in\n            tag_27:\n              mload(0x40)\n              tag_31\n              swap2\n              swap1\n              tag_32\n              jump\t// in\n            tag_31:\n              mload(0x40)\n              dup1\n              swap2\n              sub\n              swap1\n              return\n                /* \"Story.sol\":6180:6659  function getSummary() public view returns (... */\n            tag_5:\n              callvalue\n              dup1\n              iszero\n              tag_33\n              jumpi\n              0x00\n              dup1\n              revert\n            tag_33:\n              pop\n              tag_34\n              tag_35\n              jump\t// in\n            tag_34:\n              mload(0x40)\n              tag_36\n              swap11\n              swap10\n              swap9\n              swap8\n              swap7\n              swap6\n              swap5\n              swap4\n              swap3\n              swap2\n              swap1\n              tag_37\n              jump\t// in\n            tag_36:\n              mload(0x40)\n              dup1\n              swap2\n              sub\n              swap1\n              return\n                /* \"Story.sol\":6667:6769  function isAuthor() public view returns (bool){... */\n            tag_6:\n              callvalue\n              dup1\n              iszero\n              tag_38\n              jumpi\n              0x00\n              dup1\n              revert\n            tag_38:\n              pop\n              tag_39\n              tag_40\n              jump\t// in\n            tag_39:\n              mload(0x40)\n              tag_41\n              swap2\n              swap1\n              tag_32\n              jump\t// in\n            tag_41:\n              mload(0x40)\n              dup1\n              swap2\n              sub\n              swap1\n              return\n                /* \"Story.sol\":1624:1644  bool public reported */\n            tag_7:\n              callvalue\n              dup1\n              iszero\n              tag_42\n              jumpi\n              0x00\n              dup1\n              revert\n            tag_42:\n              pop\n              tag_43\n              tag_44\n              jump\t// in\n            tag_43:\n              mload(0x40)\n              tag_45\n              swap2\n              swap1\n              tag_32\n              jump\t// in\n            tag_45:\n              mload(0x40)\n              dup1\n              swap2\n              sub\n              swap1\n              return\n                /* \"Story.sol\":1866:1903  RequestToJoin[] public requestsToJoin */\n            tag_8:\n              callvalue\n              dup1\n              iszero\n              tag_46\n              jumpi\n              0x00\n              dup1\n              revert\n            tag_46:\n              pop\n              tag_47\n              0x04\n              dup1\n              calldatasize\n              sub\n              dup2\n              add\n              swap1\n              tag_48\n              swap2\n              swap1\n              tag_49\n              jump\t// in\n            tag_48:\n              tag_50\n              jump\t// in\n            tag_47:\n              mload(0x40)\n              tag_51\n              swap6\n              swap5\n              swap4\n              swap3\n              swap2\n              swap1\n              tag_52\n              jump\t// in\n            tag_51:\n              mload(0x40)\n              dup1\n              swap2\n              sub\n              swap1\n              return\n                /* \"Story.sol\":1432:1483  mapping(address => bool) public chaptersForSolidity */\n            tag_9:\n              callvalue\n              dup1\n              iszero\n              tag_53\n              jumpi\n              0x00\n              dup1\n              revert\n            tag_53:\n              pop\n              tag_54\n              0x04\n              dup1\n              calldatasize\n              sub\n              dup2\n              add\n              swap1\n              tag_55\n              swap2\n              swap1\n              tag_29\n              jump\t// in\n            tag_55:\n              tag_56\n              jump\t// in\n            tag_54:\n              mload(0x40)\n              tag_57\n              swap2\n              swap1\n              tag_32\n              jump\t// in\n            tag_57:\n              mload(0x40)\n              dup1\n              swap2\n              sub\n              swap1\n              return\n                /* \"Story.sol\":2790:3728  function approveRequestToJoin(uint256 _index) public noReentrancy{... */\n            tag_10:\n              callvalue\n              dup1\n              iszero\n              tag_58\n              jumpi\n              0x00\n              dup1\n              revert\n            tag_58:\n              pop\n              tag_59\n              0x04\n              dup1\n              calldatasize\n              sub\n              dup2\n              add\n              swap1\n              tag_60\n              swap2\n              swap1\n              tag_49\n              jump\t// in\n            tag_60:\n              tag_61\n              jump\t// in\n            tag_59:\n              stop\n                /* \"Story.sol\":3736:5000  function createChapter(string memory _title,  string memory _ipfsHash, address _parentChapter, address _childChapter) public noReentrancy{... */\n            tag_11:\n              callvalue\n              dup1\n              iszero\n              tag_62\n              jumpi\n              0x00\n              dup1\n              revert\n            tag_62:\n              pop\n              tag_63\n              0x04\n              dup1\n              calldatasize\n              sub\n              dup2\n              add\n              swap1\n              tag_64\n              swap2\n              swap1\n              tag_65\n              jump\t// in\n            tag_64:\n              tag_66\n              jump\t// in\n            tag_63:\n              stop\n                /* \"Story.sol\":6062:6166  function getChapters() public view returns (address[] memory) {... */\n            tag_12:\n              callvalue\n              dup1\n              iszero\n              tag_67\n              jumpi\n              0x00\n              dup1\n              revert\n            tag_67:\n              pop\n              tag_68\n              tag_69\n              jump\t// in\n            tag_68:\n              mload(0x40)\n              tag_70\n              swap2\n              swap1\n              tag_71\n              jump\t// in\n            tag_70:\n              mload(0x40)\n              dup1\n              swap2\n              sub\n              swap1\n              return\n                /* \"Story.sol\":1393:1425  address[] public authorsForReact */\n            tag_13:\n              callvalue\n              dup1\n              iszero\n              tag_72\n              jumpi\n              0x00\n              dup1\n              revert\n            tag_72:\n              pop\n              tag_73\n              0x04\n              dup1\n              calldatasize\n              sub\n              dup2\n              add\n              swap1\n              tag_74\n              swap2\n              swap1\n              tag_49\n              jump\t// in\n            tag_74:\n              tag_75\n              jump\t// in\n            tag_73:\n              mload(0x40)\n              tag_76\n              swap2\n              swap1\n              tag_77\n              jump\t// in\n            tag_76:\n              mload(0x40)\n              dup1\n              swap2\n              sub\n              swap1\n              return\n                /* \"Story.sol\":1490:1523  address[] public chaptersForReact */\n            tag_14:\n              callvalue\n              dup1\n              iszero\n              tag_78\n              jumpi\n              0x00\n              dup1\n              revert\n            tag_78:\n              pop\n              tag_79\n              0x04\n              dup1\n              calldatasize\n              sub\n              dup2\n              add\n              swap1\n              tag_80\n              swap2\n              swap1\n              tag_49\n              jump\t// in\n            tag_80:\n              tag_81\n              jump\t// in\n            tag_79:\n              mload(0x40)\n              tag_82\n              swap2\n              swap1\n              tag_77\n              jump\t// in\n            tag_82:\n              mload(0x40)\n              dup1\n              swap2\n              sub\n              swap1\n              return\n                /* \"Story.sol\":5008:5191  function contribute() public payable noReentrancy{... */\n            tag_15:\n              tag_83\n              tag_84\n              jump\t// in\n            tag_83:\n              stop\n                /* \"Story.sol\":2266:2782  function createRequestToJoin(string memory _proposal) public noReentrancy{... */\n            tag_16:\n              callvalue\n              dup1\n              iszero\n              tag_85\n              jumpi\n              0x00\n              dup1\n              revert\n            tag_85:\n              pop\n              tag_86\n              0x04\n              dup1\n              calldatasize\n              sub\n              dup2\n              add\n              swap1\n              tag_87\n              swap2\n              swap1\n              tag_88\n              jump\t// in\n            tag_87:\n              tag_89\n              jump\t// in\n            tag_86:\n              stop\n                /* \"Story.sol\":5694:6048  function report() public noReentrancy{... */\n            tag_22:\n                /* \"Story.sol\":7724:7731  _locked */\n              0x08\n              0x00\n              swap1\n              sload\n              swap1\n              0x0100\n              exp\n              swap1\n              div\n              0xff\n              and\n                /* \"Story.sol\":7723:7731  !_locked */\n              iszero\n                /* \"Story.sol\":7715:7750  require(!_locked, \"Reentrant call\") */\n              tag_91\n              jumpi\n              mload(0x40)\n              0x08c379a000000000000000000000000000000000000000000000000000000000\n              dup2\n              mstore\n              0x04\n              add\n              tag_92\n              swap1\n              tag_93\n              jump\t// in\n            tag_92:\n              mload(0x40)\n              dup1\n              swap2\n              sub\n              swap1\n              revert\n            tag_91:\n                /* \"Story.sol\":7771:7775  true */\n              0x01\n                /* \"Story.sol\":7761:7768  _locked */\n              0x08\n              0x00\n                /* \"Story.sol\":7761:7775  _locked = true */\n              0x0100\n              exp\n              dup2\n              sload\n              dup2\n              0xff\n              mul\n              not\n              and\n              swap1\n              dup4\n              iszero\n              iszero\n              mul\n              or\n              swap1\n              sstore\n              pop\n                /* \"Story.sol\":5751:5759  reported */\n              0x0b\n              0x00\n              swap1\n              sload\n              swap1\n              0x0100\n              exp\n              swap1\n              div\n              0xff\n              and\n                /* \"Story.sol\":5750:5759  !reported */\n              iszero\n                /* \"Story.sol\":5742:5792  require(!reported, \"This story has been reported\") */\n              tag_95\n              jumpi\n              mload(0x40)\n              0x08c379a000000000000000000000000000000000000000000000000000000000\n              dup2\n              mstore\n              0x04\n              add\n              tag_96\n              swap1\n              tag_97\n              jump\t// in\n            tag_96:\n              mload(0x40)\n              dup1\n              swap2\n              sub\n              swap1\n              revert\n            tag_95:\n                /* \"Story.sol\":5812:5821  reporters */\n              0x09\n                /* \"Story.sol\":5812:5833  reporters[msg.sender] */\n              0x00\n                /* \"Story.sol\":5822:5832  msg.sender */\n              caller\n                /* \"Story.sol\":5812:5833  reporters[msg.sender] */\n              0xffffffffffffffffffffffffffffffffffffffff\n              and\n              0xffffffffffffffffffffffffffffffffffffffff\n              and\n              dup2\n              mstore\n              0x20\n              add\n              swap1\n              dup2\n              mstore\n              0x20\n              add\n              0x00\n              keccak256\n              0x00\n              swap1\n              sload\n              swap1\n              0x0100\n              exp\n              swap1\n              div\n              0xff\n              and\n                /* \"Story.sol\":5811:5833  !reporters[msg.sender] */\n              iszero\n                /* \"Story.sol\":5803:5872  require(!reporters[msg.sender],\"You have reported this story before\") */\n              tag_98\n              jumpi\n              mload(0x40)\n              0x08c379a000000000000000000000000000000000000000000000000000000000\n              dup2\n              mstore\n              0x04\n              add\n              tag_99\n              swap1\n              tag_100\n              jump\t// in\n            tag_99:\n              mload(0x40)\n              dup1\n              swap2\n              sub\n              swap1\n              revert\n            tag_98:\n                /* \"Story.sol\":5883:5904  reportersCount.add(1) */\n              tag_101\n                /* \"Story.sol\":5902:5903  1 */\n              0x01\n                /* \"Story.sol\":5883:5897  reportersCount */\n              sload(0x0a)\n                /* \"Story.sol\":5883:5901  reportersCount.add */\n              tag_102\n              swap1\n                /* \"Story.sol\":5883:5904  reportersCount.add(1) */\n              swap2\n              swap1\n              0xffffffff\n              and\n              jump\t// in\n            tag_101:\n              pop\n                /* \"Story.sol\":5939:5943  true */\n              0x01\n                /* \"Story.sol\":5915:5924  reporters */\n              0x09\n                /* \"Story.sol\":5915:5936  reporters[msg.sender] */\n              0x00\n                /* \"Story.sol\":5925:5935  msg.sender */\n              caller\n                /* \"Story.sol\":5915:5936  reporters[msg.sender] */\n              0xffffffffffffffffffffffffffffffffffffffff\n              and\n              0xffffffffffffffffffffffffffffffffffffffff\n              and\n              dup2\n              mstore\n              0x20\n              add\n              swap1\n              dup2\n              mstore\n              0x20\n              add\n              0x00\n              keccak256\n              0x00\n                /* \"Story.sol\":5915:5943  reporters[msg.sender] = true */\n              0x0100\n              exp\n              dup2\n              sload\n              dup2\n              0xff\n              mul\n              not\n              and\n              swap1\n              dup4\n              iszero\n              iszero\n              mul\n              or\n              swap1\n              sstore\n              pop\n                /* \"Story.sol\":5976:5979  100 */\n              0x64\n                /* \"Story.sol\":5959:5973  reportersCount */\n              sload(0x0a)\n                /* \"Story.sol\":5959:5979  reportersCount > 100 */\n              gt\n                /* \"Story.sol\":5956:6041  if(reportersCount > 100){ //arbitrary number... */\n              iszero\n              tag_103\n              jumpi\n                /* \"Story.sol\":6025:6029  true */\n              0x01\n                /* \"Story.sol\":6014:6022  reported */\n              0x0b\n              0x00\n                /* \"Story.sol\":6014:6029  reported = true */\n              0x0100\n              exp\n              dup2\n              sload\n              dup2\n              0xff\n              mul\n              not\n              and\n              swap1\n              dup4\n              iszero\n              iszero\n              mul\n              or\n              swap1\n              sstore\n              pop\n                /* \"Story.sol\":5956:6041  if(reportersCount > 100){ //arbitrary number... */\n            tag_103:\n                /* \"Story.sol\":7808:7813  false */\n              0x00\n                /* \"Story.sol\":7798:7805  _locked */\n              0x08\n              0x00\n                /* \"Story.sol\":7798:7813  _locked = false */\n              0x0100\n              exp\n              dup2\n              sload\n              dup2\n              0xff\n              mul\n              not\n              and\n              swap1\n              dup4\n              iszero\n              iszero\n              mul\n              or\n              swap1\n              sstore\n              pop\n                /* \"Story.sol\":5694:6048  function report() public noReentrancy{... */\n              jump\t// out\n                /* \"Story.sol\":5199:5684  function dispenseRewards() public noReentrancy{... */\n            tag_25:\n                /* \"Story.sol\":7724:7731  _locked */\n              0x08\n              0x00\n              swap1\n              sload\n              swap1\n              0x0100\n              exp\n              swap1\n              div\n              0xff\n              and\n                /* \"Story.sol\":7723:7731  !_locked */\n              iszero\n                /* \"Story.sol\":7715:7750  require(!_locked, \"Reentrant call\") */\n              tag_105\n              jumpi\n              mload(0x40)\n              0x08c379a000000000000000000000000000000000000000000000000000000000\n              dup2\n              mstore\n              0x04\n              add\n              tag_106\n              swap1\n              tag_93\n              jump\t// in\n            tag_106:\n              mload(0x40)\n              dup1\n              swap2\n              sub\n              swap1\n              revert\n            tag_105:\n                /* \"Story.sol\":7771:7775  true */\n              0x01\n                /* \"Story.sol\":7761:7768  _locked */\n              0x08\n              0x00\n                /* \"Story.sol\":7761:7775  _locked = true */\n              0x0100\n              exp\n              dup2\n              sload\n              dup2\n              0xff\n              mul\n              not\n              and\n              swap1\n              dup4\n              iszero\n              iszero\n              mul\n              or\n              swap1\n              sstore\n              pop\n                /* \"Story.sol\":5264:5282  authorsForSolidity */\n              0x04\n                /* \"Story.sol\":5264:5294  authorsForSolidity[msg.sender] */\n              0x00\n                /* \"Story.sol\":5283:5293  msg.sender */\n              caller\n                /* \"Story.sol\":5264:5294  authorsForSolidity[msg.sender] */\n              0xffffffffffffffffffffffffffffffffffffffff\n              and\n              0xffffffffffffffffffffffffffffffffffffffff\n              and\n              dup2\n              mstore\n              0x20\n              add\n              swap1\n              dup2\n              mstore\n              0x20\n              add\n              0x00\n              keccak256\n              0x00\n              swap1\n              sload\n              swap1\n              0x0100\n              exp\n              swap1\n              div\n              0xff\n              and\n                /* \"Story.sol\":5256:5345  require(authorsForSolidity[msg.sender], \"Only an authorized author can dispense rewards\") */\n              tag_108\n              jumpi\n              mload(0x40)\n              0x08c379a000000000000000000000000000000000000000000000000000000000\n              dup2\n              mstore\n              0x04\n              add\n              tag_109\n              swap1\n              tag_110\n              jump\t// in\n            tag_109:\n              mload(0x40)\n              dup1\n              swap2\n              sub\n              swap1\n              revert\n            tag_108:\n                /* \"Story.sol\":5358:5378  uint256 totalAuthors */\n              0x00\n                /* \"Story.sol\":5381:5396  authorsForReact */\n              0x05\n                /* \"Story.sol\":5381:5403  authorsForReact.length */\n              dup1\n              sload\n              swap1\n              pop\n                /* \"Story.sol\":5358:5403  uint256 totalAuthors = authorsForReact.length */\n              swap1\n              pop\n                /* \"Story.sol\":5414:5437  uint256 rewardPerAuthor */\n              0x00\n                /* \"Story.sol\":5440:5479  address(this).balance.div(totalAuthors) */\n              tag_111\n                /* \"Story.sol\":5466:5478  totalAuthors */\n              dup3\n                /* \"Story.sol\":5440:5461  address(this).balance */\n              selfbalance\n                /* \"Story.sol\":5440:5465  address(this).balance.div */\n              tag_112\n              swap1\n                /* \"Story.sol\":5440:5479  address(this).balance.div(totalAuthors) */\n              swap2\n              swap1\n              0xffffffff\n              and\n              jump\t// in\n            tag_111:\n                /* \"Story.sol\":5414:5479  uint256 rewardPerAuthor = address(this).balance.div(totalAuthors) */\n              swap1\n              pop\n                /* \"Story.sol\":5516:5517  0 */\n              0x00\n                /* \"Story.sol\":5498:5513  rewardPerAuthor */\n              dup2\n                /* \"Story.sol\":5498:5517  rewardPerAuthor > 0 */\n              gt\n                /* \"Story.sol\":5490:5543  require(rewardPerAuthor > 0, \"No reward to dispense\") */\n              tag_113\n              jumpi\n              mload(0x40)\n              0x08c379a000000000000000000000000000000000000000000000000000000000\n              dup2\n              mstore\n              0x04\n              add\n              tag_114\n              swap1\n              tag_115\n              jump\t// in\n            tag_114:\n              mload(0x40)\n              dup1\n              swap2\n              sub\n              swap1\n              revert\n            tag_113:\n                /* \"Story.sol\":5559:5568  uint256 i */\n              0x00\n                /* \"Story.sol\":5554:5677  for (uint256 i = 0; i < totalAuthors; i++) {... */\n            tag_116:\n                /* \"Story.sol\":5578:5590  totalAuthors */\n              dup3\n                /* \"Story.sol\":5574:5575  i */\n              dup2\n                /* \"Story.sol\":5574:5590  i < totalAuthors */\n              lt\n                /* \"Story.sol\":5554:5677  for (uint256 i = 0; i < totalAuthors; i++) {... */\n              iszero\n              tag_117\n              jumpi\n                /* \"Story.sol\":5620:5635  authorsForReact */\n              0x05\n                /* \"Story.sol\":5636:5637  i */\n              dup2\n                /* \"Story.sol\":5620:5638  authorsForReact[i] */\n              dup2\n              sload\n              dup2\n              lt\n              tag_119\n              jumpi\n              tag_120\n              tag_121\n              jump\t// in\n            tag_120:\n            tag_119:\n              swap1\n              0x00\n              mstore\n              keccak256(0x00, 0x20)\n              add\n              0x00\n              swap1\n              sload\n              swap1\n              0x0100\n              exp\n              swap1\n              div\n              0xffffffffffffffffffffffffffffffffffffffff\n              and\n                /* \"Story.sol\":5612:5648  payable(authorsForReact[i]).transfer */\n              0xffffffffffffffffffffffffffffffffffffffff\n              and\n                /* \"Story.sol\":5612:5665  payable(authorsForReact[i]).transfer(rewardPerAuthor) */\n              0x08fc\n                /* \"Story.sol\":5649:5664  rewardPerAuthor */\n              dup4\n                /* \"Story.sol\":5612:5665  payable(authorsForReact[i]).transfer(rewardPerAuthor) */\n              swap1\n              dup2\n              iszero\n              mul\n              swap1\n              mload(0x40)\n              0x00\n              mload(0x40)\n              dup1\n              dup4\n              sub\n              dup2\n              dup6\n              dup9\n              dup9\n              call\n              swap4\n              pop\n              pop\n              pop\n              pop\n              iszero\n              dup1\n              iszero\n              tag_124\n              jumpi\n              returndatasize\n              0x00\n              dup1\n              returndatacopy\n              revert(0x00, returndatasize)\n            tag_124:\n              pop\n                /* \"Story.sol\":5592:5595  i++ */\n              dup1\n              dup1\n              tag_125\n              swap1\n              tag_126\n              jump\t// in\n            tag_125:\n              swap2\n              pop\n              pop\n                /* \"Story.sol\":5554:5677  for (uint256 i = 0; i < totalAuthors; i++) {... */\n              jump(tag_116)\n            tag_117:\n              pop\n                /* \"Story.sol\":5245:5684  {... */\n              pop\n              pop\n                /* \"Story.sol\":7808:7813  false */\n              0x00\n                /* \"Story.sol\":7798:7805  _locked */\n              0x08\n              0x00\n                /* \"Story.sol\":7798:7813  _locked = false */\n              0x0100\n              exp\n              dup2\n              sload\n              dup2\n              0xff\n              mul\n              not\n              and\n              swap1\n              dup4\n              iszero\n              iszero\n              mul\n              or\n              swap1\n              sstore\n              pop\n                /* \"Story.sol\":5199:5684  function dispenseRewards() public noReentrancy{... */\n              jump\t// out\n                /* \"Story.sol\":1336:1386  mapping(address => bool) public authorsForSolidity */\n            tag_30:\n              mstore(0x20, 0x04)\n              dup1\n              0x00\n              mstore\n              keccak256(0x00, 0x40)\n              0x00\n              swap2\n              pop\n              sload\n              swap1\n              0x0100\n              exp\n              swap1\n              div\n              0xff\n              and\n              dup2\n              jump\t// out\n                /* \"Story.sol\":6180:6659  function getSummary() public view returns (... */\n            tag_35:\n                /* \"Story.sol\":6233:6240  address */\n              0x00\n                /* \"Story.sol\":6242:6255  string memory */\n              0x60\n                /* \"Story.sol\":6257:6270  string memory */\n              dup1\n                /* \"Story.sol\":6272:6285  string memory */\n              0x60\n                /* \"Story.sol\":6287:6303  address[] memory */\n              dup1\n                /* \"Story.sol\":6305:6322  address [] memory */\n              0x60\n                /* \"Story.sol\":6324:6328  uint */\n              0x00\n                /* \"Story.sol\":6330:6334  uint */\n              dup1\n                /* \"Story.sol\":6336:6340  bool */\n              0x00\n                /* \"Story.sol\":6342:6346  uint */\n              dup1\n                /* \"Story.sol\":6382:6392  mainAuthor */\n              0x00\n              dup1\n              sload\n              swap1\n              0x0100\n              exp\n              swap1\n              div\n              0xffffffffffffffffffffffffffffffffffffffff\n              and\n                /* \"Story.sol\":6407:6412  title */\n              0x01\n                /* \"Story.sol\":6427:6432  genre */\n              0x02\n                /* \"Story.sol\":6447:6455  mainIdea */\n              0x03\n                /* \"Story.sol\":6470:6485  authorsForReact */\n              0x05\n                /* \"Story.sol\":6500:6516  chaptersForReact */\n              0x07\n                /* \"Story.sol\":6531:6545  requestsToJoin */\n              0x0c\n                /* \"Story.sol\":6531:6552  requestsToJoin.length */\n              dup1\n              sload\n              swap1\n              pop\n                /* \"Story.sol\":6567:6581  reportersCount */\n              sload(0x0a)\n                /* \"Story.sol\":6596:6604  reported */\n              0x0b\n              0x00\n              swap1\n              sload\n              swap1\n              0x0100\n              exp\n              swap1\n              div\n              0xff\n              and\n                /* \"Story.sol\":6619:6640  address(this).balance */\n              selfbalance\n                /* \"Story.sol\":6359:6651  return ( ... */\n              dup9\n              dup1\n              sload\n              tag_128\n              swap1\n              tag_129\n              jump\t// in\n            tag_128:\n              dup1\n              0x1f\n              add\n              0x20\n              dup1\n              swap2\n              div\n              mul\n              0x20\n              add\n              mload(0x40)\n              swap1\n              dup2\n              add\n              0x40\n              mstore\n              dup1\n              swap3\n              swap2\n              swap1\n              dup2\n              dup2\n              mstore\n              0x20\n              add\n              dup3\n              dup1\n              sload\n              tag_130\n              swap1\n              tag_129\n              jump\t// in\n            tag_130:\n              dup1\n              iszero\n              tag_131\n              jumpi\n              dup1\n              0x1f\n              lt\n              tag_132\n              jumpi\n              0x0100\n              dup1\n              dup4\n              sload\n              div\n              mul\n              dup4\n              mstore\n              swap2\n              0x20\n              add\n              swap2\n              jump(tag_131)\n            tag_132:\n              dup3\n              add\n              swap2\n              swap1\n              0x00\n              mstore\n              keccak256(0x00, 0x20)\n              swap1\n            tag_133:\n              dup2\n              sload\n              dup2\n              mstore\n              swap1\n              0x01\n              add\n              swap1\n              0x20\n              add\n              dup1\n              dup4\n              gt\n              tag_133\n              jumpi\n              dup3\n              swap1\n              sub\n              0x1f\n              and\n              dup3\n              add\n              swap2\n            tag_131:\n              pop\n              pop\n              pop\n              pop\n              pop\n              swap9\n              pop\n              dup8\n              dup1\n              sload\n              tag_134\n              swap1\n              tag_129\n              jump\t// in\n            tag_134:\n              dup1\n              0x1f\n              add\n              0x20\n              dup1\n              swap2\n              div\n              mul\n              0x20\n              add\n              mload(0x40)\n              swap1\n              dup2\n              add\n              0x40\n              mstore\n              dup1\n              swap3\n              swap2\n              swap1\n              dup2\n              dup2\n              mstore\n              0x20\n              add\n              dup3\n              dup1\n              sload\n              tag_135\n              swap1\n              tag_129\n              jump\t// in\n            tag_135:\n              dup1\n              iszero\n              tag_136\n              jumpi\n              dup1\n              0x1f\n              lt\n              tag_137\n              jumpi\n              0x0100\n              dup1\n              dup4\n              sload\n              div\n              mul\n              dup4\n              mstore\n              swap2\n              0x20\n              add\n              swap2\n              jump(tag_136)\n            tag_137:\n              dup3\n              add\n              swap2\n              swap1\n              0x00\n              mstore\n              keccak256(0x00, 0x20)\n              swap1\n            tag_138:\n              dup2\n              sload\n              dup2\n              mstore\n              swap1\n              0x01\n              add\n              swap1\n              0x20\n              add\n              dup1\n              dup4\n              gt\n              tag_138\n              jumpi\n              dup3\n              swap1\n              sub\n              0x1f\n              and\n              dup3\n              add\n              swap2\n            tag_136:\n              pop\n              pop\n              pop\n              pop\n              pop\n              swap8\n              pop\n              dup7\n              dup1\n              sload\n              tag_139\n              swap1\n              tag_129\n              jump\t// in\n            tag_139:\n              dup1\n              0x1f\n              add\n              0x20\n              dup1\n              swap2\n              div\n              mul\n              0x20\n              add\n              mload(0x40)\n              swap1\n              dup2\n              add\n              0x40\n              mstore\n              dup1\n              swap3\n              swap2\n              swap1\n              dup2\n              dup2\n              mstore\n              0x20\n              add\n              dup3\n              dup1\n              sload\n              tag_140\n              swap1\n              tag_129\n              jump\t// in\n            tag_140:\n              dup1\n              iszero\n              tag_141\n              jumpi\n              dup1\n              0x1f\n              lt\n              tag_142\n              jumpi\n              0x0100\n              dup1\n              dup4\n              sload\n              div\n              mul\n              dup4\n              mstore\n              swap2\n              0x20\n              add\n              swap2\n              jump(tag_141)\n            tag_142:\n              dup3\n              add\n              swap2\n              swap1\n              0x00\n              mstore\n              keccak256(0x00, 0x20)\n              swap1\n            tag_143:\n              dup2\n              sload\n              dup2\n              mstore\n              swap1\n              0x01\n              add\n              swap1\n              0x20\n              add\n              dup1\n              dup4\n              gt\n              tag_143\n              jumpi\n              dup3\n              swap1\n              sub\n              0x1f\n              and\n              dup3\n              add\n              swap2\n            tag_141:\n              pop\n              pop\n              pop\n              pop\n              pop\n              swap7\n              pop\n              dup6\n              dup1\n              sload\n              dup1\n              0x20\n              mul\n              0x20\n              add\n              mload(0x40)\n              swap1\n              dup2\n              add\n              0x40\n              mstore\n              dup1\n              swap3\n              swap2\n              swap1\n              dup2\n              dup2\n              mstore\n              0x20\n              add\n              dup3\n              dup1\n              sload\n              dup1\n              iszero\n              tag_144\n              jumpi\n              0x20\n              mul\n              dup3\n              add\n              swap2\n              swap1\n              0x00\n              mstore\n              keccak256(0x00, 0x20)\n              swap1\n            tag_145:\n              dup2\n              0x00\n              swap1\n              sload\n              swap1\n              0x0100\n              exp\n              swap1\n              div\n              0xffffffffffffffffffffffffffffffffffffffff\n              and\n              0xffffffffffffffffffffffffffffffffffffffff\n              and\n              dup2\n              mstore\n              0x20\n              add\n              swap1\n              0x01\n              add\n              swap1\n              dup1\n              dup4\n              gt\n              tag_145\n              jumpi\n            tag_144:\n              pop\n              pop\n              pop\n              pop\n              pop\n              swap6\n              pop\n              dup5\n              dup1\n              sload\n              dup1\n              0x20\n              mul\n              0x20\n              add\n              mload(0x40)\n              swap1\n              dup2\n              add\n              0x40\n              mstore\n              dup1\n              swap3\n              swap2\n              swap1\n              dup2\n              dup2\n              mstore\n              0x20\n              add\n              dup3\n              dup1\n              sload\n              dup1\n              iszero\n              tag_146\n              jumpi\n              0x20\n              mul\n              dup3\n              add\n              swap2\n              swap1\n              0x00\n              mstore\n              keccak256(0x00, 0x20)\n              swap1\n            tag_147:\n              dup2\n              0x00\n              swap1\n              sload\n              swap1\n              0x0100\n              exp\n              swap1\n              div\n              0xffffffffffffffffffffffffffffffffffffffff\n              and\n              0xffffffffffffffffffffffffffffffffffffffff\n              and\n              dup2\n              mstore\n              0x20\n              add\n              swap1\n              0x01\n              add\n              swap1\n              dup1\n              dup4\n              gt\n              tag_147\n              jumpi\n            tag_146:\n              pop\n              pop\n              pop\n              pop\n              pop\n              swap5\n              pop\n              swap10\n              pop\n              swap10\n              pop\n              swap10\n              pop\n              swap10\n              pop\n              swap10\n              pop\n              swap10\n              pop\n              swap10\n              pop\n              swap10\n              pop\n              swap10\n              pop\n              swap10\n              pop\n                /* \"Story.sol\":6180:6659  function getSummary() public view returns (... */\n              swap1\n              swap2\n              swap3\n              swap4\n              swap5\n              swap6\n              swap7\n              swap8\n              swap9\n              swap10\n              jump\t// out\n                /* \"Story.sol\":6667:6769  function isAuthor() public view returns (bool){... */\n            tag_40:\n                /* \"Story.sol\":6708:6712  bool */\n              0x00\n                /* \"Story.sol\":6731:6749  authorsForSolidity */\n              0x04\n                /* \"Story.sol\":6731:6761  authorsForSolidity[msg.sender] */\n              0x00\n                /* \"Story.sol\":6750:6760  msg.sender */\n              caller\n                /* \"Story.sol\":6731:6761  authorsForSolidity[msg.sender] */\n              0xffffffffffffffffffffffffffffffffffffffff\n              and\n              0xffffffffffffffffffffffffffffffffffffffff\n              and\n              dup2\n              mstore\n              0x20\n              add\n              swap1\n              dup2\n              mstore\n              0x20\n              add\n              0x00\n              keccak256\n              0x00\n              swap1\n              sload\n              swap1\n              0x0100\n              exp\n              swap1\n              div\n              0xff\n              and\n                /* \"Story.sol\":6724:6761  return authorsForSolidity[msg.sender] */\n              swap1\n              pop\n                /* \"Story.sol\":6667:6769  function isAuthor() public view returns (bool){... */\n              swap1\n              jump\t// out\n                /* \"Story.sol\":1624:1644  bool public reported */\n            tag_44:\n              0x0b\n              0x00\n              swap1\n              sload\n              swap1\n              0x0100\n              exp\n              swap1\n              div\n              0xff\n              and\n              dup2\n              jump\t// out\n                /* \"Story.sol\":1866:1903  RequestToJoin[] public requestsToJoin */\n            tag_50:\n              0x0c\n              dup2\n              dup2\n              sload\n              dup2\n              lt\n              tag_149\n              jumpi\n              0x00\n              dup1\n              revert\n            tag_149:\n              swap1\n              0x00\n              mstore\n              keccak256(0x00, 0x20)\n              swap1\n              0x06\n              mul\n              add\n              0x00\n              swap2\n              pop\n              swap1\n              pop\n              dup1\n              0x00\n              add\n              dup1\n              sload\n              tag_151\n              swap1\n              tag_129\n              jump\t// in\n            tag_151:\n              dup1\n              0x1f\n              add\n              0x20\n              dup1\n              swap2\n              div\n              mul\n              0x20\n              add\n              mload(0x40)\n              swap1\n              dup2\n              add\n              0x40\n              mstore\n              dup1\n              swap3\n              swap2\n              swap1\n              dup2\n              dup2\n              mstore\n              0x20\n              add\n              dup3\n              dup1\n              sload\n              tag_152\n              swap1\n              tag_129\n              jump\t// in\n            tag_152:\n              dup1\n              iszero\n              tag_153\n              jumpi\n              dup1\n              0x1f\n              lt\n              tag_154\n              jumpi\n              0x0100\n              dup1\n              dup4\n              sload\n              div\n              mul\n              dup4\n              mstore\n              swap2\n              0x20\n              add\n              swap2\n              jump(tag_153)\n            tag_154:\n              dup3\n              add\n              swap2\n              swap1\n              0x00\n              mstore\n              keccak256(0x00, 0x20)\n              swap1\n            tag_155:\n              dup2\n              sload\n              dup2\n              mstore\n              swap1\n              0x01\n              add\n              swap1\n              0x20\n              add\n              dup1\n              dup4\n              gt\n              tag_155\n              jumpi\n              dup3\n              swap1\n              sub\n              0x1f\n              and\n              dup3\n              add\n              swap2\n            tag_153:\n              pop\n              pop\n              pop\n              pop\n              pop\n              swap1\n              dup1\n              0x01\n              add\n              sload\n              swap1\n              dup1\n              0x02\n              add\n              0x00\n              swap1\n              sload\n              swap1\n              0x0100\n              exp\n              swap1\n              div\n              0xffffffffffffffffffffffffffffffffffffffff\n              and\n              swap1\n              dup1\n              0x04\n              add\n              sload\n              swap1\n              dup1\n              0x05\n              add\n              0x00\n              swap1\n              sload\n              swap1\n              0x0100\n              exp\n              swap1\n              div\n              0xff\n              and\n              swap1\n              pop\n              dup6\n              jump\t// out\n                /* \"Story.sol\":1432:1483  mapping(address => bool) public chaptersForSolidity */\n            tag_56:\n              mstore(0x20, 0x06)\n              dup1\n              0x00\n              mstore\n              keccak256(0x00, 0x40)\n              0x00\n              swap2\n              pop\n              sload\n              swap1\n              0x0100\n              exp\n              swap1\n              div\n              0xff\n              and\n              dup2\n              jump\t// out\n                /* \"Story.sol\":2790:3728  function approveRequestToJoin(uint256 _index) public noReentrancy{... */\n            tag_61:\n                /* \"Story.sol\":7724:7731  _locked */\n              0x08\n              0x00\n              swap1\n              sload\n              swap1\n              0x0100\n              exp\n              swap1\n              div\n              0xff\n              and\n                /* \"Story.sol\":7723:7731  !_locked */\n              iszero\n                /* \"Story.sol\":7715:7750  require(!_locked, \"Reentrant call\") */\n              tag_157\n              jumpi\n              mload(0x40)\n              0x08c379a000000000000000000000000000000000000000000000000000000000\n              dup2\n              mstore\n              0x04\n              add\n              tag_158\n              swap1\n              tag_93\n              jump\t// in\n            tag_158:\n              mload(0x40)\n              dup1\n              swap2\n              sub\n              swap1\n              revert\n            tag_157:\n                /* \"Story.sol\":7771:7775  true */\n              0x01\n                /* \"Story.sol\":7761:7768  _locked */\n              0x08\n              0x00\n                /* \"Story.sol\":7761:7775  _locked = true */\n              0x0100\n              exp\n              dup2\n              sload\n              dup2\n              0xff\n              mul\n              not\n              and\n              swap1\n              dup4\n              iszero\n              iszero\n              mul\n              or\n              swap1\n              sstore\n              pop\n                /* \"Story.sol\":2875:2883  reported */\n              0x0b\n              0x00\n              swap1\n              sload\n              swap1\n              0x0100\n              exp\n              swap1\n              div\n              0xff\n              and\n                /* \"Story.sol\":2874:2883  !reported */\n              iszero\n                /* \"Story.sol\":2866:2916  require(!reported, \"This story has been reported\") */\n              tag_160\n              jumpi\n              mload(0x40)\n              0x08c379a000000000000000000000000000000000000000000000000000000000\n              dup2\n              mstore\n              0x04\n              add\n              tag_161\n              swap1\n              tag_97\n              jump\t// in\n            tag_161:\n              mload(0x40)\n              dup1\n              swap2\n              sub\n              swap1\n              revert\n            tag_160:\n                /* \"Story.sol\":2935:2953  authorsForSolidity */\n              0x04\n                /* \"Story.sol\":2935:2965  authorsForSolidity[msg.sender] */\n              0x00\n                /* \"Story.sol\":2954:2964  msg.sender */\n              caller\n                /* \"Story.sol\":2935:2965  authorsForSolidity[msg.sender] */\n              0xffffffffffffffffffffffffffffffffffffffff\n              and\n              0xffffffffffffffffffffffffffffffffffffffff\n              and\n              dup2\n              mstore\n              0x20\n              add\n              swap1\n              dup2\n              mstore\n              0x20\n              add\n              0x00\n              keccak256\n              0x00\n              swap1\n              sload\n              swap1\n              0x0100\n              exp\n              swap1\n              div\n              0xff\n              and\n                /* \"Story.sol\":2927:3015  require(authorsForSolidity[msg.sender], \"Only an accepted author can approve a request\") */\n              tag_162\n              jumpi\n              mload(0x40)\n              0x08c379a000000000000000000000000000000000000000000000000000000000\n              dup2\n              mstore\n              0x04\n              add\n              tag_163\n              swap1\n              tag_164\n              jump\t// in\n            tag_163:\n              mload(0x40)\n              dup1\n              swap2\n              sub\n              swap1\n              revert\n            tag_162:\n                /* \"Story.sol\":3043:3057  requestsToJoin */\n              0x0c\n                /* \"Story.sol\":3043:3064  requestsToJoin.length */\n              dup1\n              sload\n              swap1\n              pop\n                /* \"Story.sol\":3034:3040  _index */\n              dup2\n                /* \"Story.sol\":3034:3064  _index < requestsToJoin.length */\n              lt\n                /* \"Story.sol\":3034:3077  _index < requestsToJoin.length && _index>=0 */\n              dup1\n              iszero\n              tag_165\n              jumpi\n              pop\n                /* \"Story.sol\":3076:3077  0 */\n              0x00\n                /* \"Story.sol\":3068:3074  _index */\n              dup2\n                /* \"Story.sol\":3068:3077  _index>=0 */\n              lt\n              iszero\n                /* \"Story.sol\":3034:3077  _index < requestsToJoin.length && _index>=0 */\n            tag_165:\n                /* \"Story.sol\":3026:3101  require(_index < requestsToJoin.length && _index>=0, \"Index out of bounds\") */\n              tag_166\n              jumpi\n              mload(0x40)\n              0x08c379a000000000000000000000000000000000000000000000000000000000\n              dup2\n              mstore\n              0x04\n              add\n              tag_167\n              swap1\n              tag_168\n              jump\t// in\n            tag_167:\n              mload(0x40)\n              dup1\n              swap2\n              sub\n              swap1\n              revert\n            tag_166:\n                /* \"Story.sol\":3114:3143  RequestToJoin storage request */\n              0x00\n                /* \"Story.sol\":3146:3160  requestsToJoin */\n              0x0c\n                /* \"Story.sol\":3161:3167  _index */\n              dup3\n                /* \"Story.sol\":3146:3168  requestsToJoin[_index] */\n              dup2\n              sload\n              dup2\n              lt\n              tag_169\n              jumpi\n              tag_170\n              tag_121\n              jump\t// in\n            tag_170:\n            tag_169:\n              swap1\n              0x00\n              mstore\n              keccak256(0x00, 0x20)\n              swap1\n              0x06\n              mul\n              add\n                /* \"Story.sol\":3114:3168  RequestToJoin storage request = requestsToJoin[_index] */\n              swap1\n              pop\n                /* \"Story.sol\":3190:3197  request */\n              dup1\n                /* \"Story.sol\":3190:3207  request.approvers */\n              0x03\n              add\n                /* \"Story.sol\":3190:3219  request.approvers[msg.sender] */\n              0x00\n                /* \"Story.sol\":3208:3218  msg.sender */\n              caller\n                /* \"Story.sol\":3190:3219  request.approvers[msg.sender] */\n              0xffffffffffffffffffffffffffffffffffffffff\n              and\n              0xffffffffffffffffffffffffffffffffffffffff\n              and\n              dup2\n              mstore\n              0x20\n              add\n              swap1\n              dup2\n              mstore\n              0x20\n              add\n              0x00\n              keccak256\n              0x00\n              swap1\n              sload\n              swap1\n              0x0100\n              exp\n              swap1\n              div\n              0xff\n              and\n                /* \"Story.sol\":3189:3219  !request.approvers[msg.sender] */\n              iszero\n                /* \"Story.sol\":3181:3258  require(!request.approvers[msg.sender],\"This author already approved before\") */\n              tag_172\n              jumpi\n              mload(0x40)\n              0x08c379a000000000000000000000000000000000000000000000000000000000\n              dup2\n              mstore\n              0x04\n              add\n              tag_173\n              swap1\n              tag_174\n              jump\t// in\n            tag_173:\n              mload(0x40)\n              dup1\n              swap2\n              sub\n              swap1\n              revert\n            tag_172:\n                /* \"Story.sol\":3303:3307  true */\n              0x01\n                /* \"Story.sol\":3271:3278  request */\n              dup2\n                /* \"Story.sol\":3271:3288  request.approvers */\n              0x03\n              add\n                /* \"Story.sol\":3271:3300  request.approvers[msg.sender] */\n              0x00\n                /* \"Story.sol\":3289:3299  msg.sender */\n              caller\n                /* \"Story.sol\":3271:3300  request.approvers[msg.sender] */\n              0xffffffffffffffffffffffffffffffffffffffff\n              and\n              0xffffffffffffffffffffffffffffffffffffffff\n              and\n              dup2\n              mstore\n              0x20\n              add\n              swap1\n              dup2\n              mstore\n              0x20\n              add\n              0x00\n              keccak256\n              0x00\n                /* \"Story.sol\":3271:3307  request.approvers[msg.sender] = true */\n              0x0100\n              exp\n              dup2\n              sload\n              dup2\n              0xff\n              mul\n              not\n              and\n              swap1\n              dup4\n              iszero\n              iszero\n              mul\n              or\n              swap1\n              sstore\n              pop\n                /* \"Story.sol\":3343:3372  request.approversCount.add(1) */\n              tag_175\n                /* \"Story.sol\":3370:3371  1 */\n              0x01\n                /* \"Story.sol\":3343:3350  request */\n              dup3\n                /* \"Story.sol\":3343:3365  request.approversCount */\n              0x04\n              add\n              sload\n                /* \"Story.sol\":3343:3369  request.approversCount.add */\n              tag_102\n              swap1\n                /* \"Story.sol\":3343:3372  request.approversCount.add(1) */\n              swap2\n              swap1\n              0xffffffff\n              and\n              jump\t// in\n            tag_175:\n                /* \"Story.sol\":3318:3325  request */\n              dup2\n                /* \"Story.sol\":3318:3340  request.approversCount */\n              0x04\n              add\n                /* \"Story.sol\":3318:3372  request.approversCount = request.approversCount.add(1) */\n              dup2\n              swap1\n              sstore\n              pop\n                /* \"Story.sol\":3509:3510  2 */\n              0x02\n                /* \"Story.sol\":3485:3500  authorsForReact */\n              0x05\n                /* \"Story.sol\":3485:3507  authorsForReact.length */\n              dup1\n              sload\n              swap1\n              pop\n                /* \"Story.sol\":3484:3510  (authorsForReact.length)/2 */\n              tag_176\n              swap2\n              swap1\n              tag_177\n              jump\t// in\n            tag_176:\n                /* \"Story.sol\":3458:3465  request */\n              dup2\n                /* \"Story.sol\":3458:3480  request.approversCount */\n              0x04\n              add\n              sload\n                /* \"Story.sol\":3458:3510  request.approversCount >= (authorsForReact.length)/2 */\n              lt\n                /* \"Story.sol\":3455:3721  if(request.approversCount >= (authorsForReact.length)/2){... */\n              tag_178\n              jumpi\n                /* \"Story.sol\":3543:3547  true */\n              0x01\n                /* \"Story.sol\":3526:3533  request */\n              dup2\n                /* \"Story.sol\":3526:3540  request.status */\n              0x05\n              add\n              0x00\n                /* \"Story.sol\":3526:3547  request.status = true */\n              0x0100\n              exp\n              dup2\n              sload\n              dup2\n              0xff\n              mul\n              not\n              and\n              swap1\n              dup4\n              iszero\n              iszero\n              mul\n              or\n              swap1\n              sstore\n              pop\n                /* \"Story.sol\":3654:3658  true */\n              0x01\n                /* \"Story.sol\":3617:3635  authorsForSolidity */\n              0x04\n                /* \"Story.sol\":3617:3651  authorsForSolidity[request.author] */\n              0x00\n                /* \"Story.sol\":3636:3643  request */\n              dup4\n                /* \"Story.sol\":3636:3650  request.author */\n              0x02\n              add\n              0x00\n              swap1\n              sload\n              swap1\n              0x0100\n              exp\n              swap1\n              div\n              0xffffffffffffffffffffffffffffffffffffffff\n              and\n                /* \"Story.sol\":3617:3651  authorsForSolidity[request.author] */\n              0xffffffffffffffffffffffffffffffffffffffff\n              and\n              0xffffffffffffffffffffffffffffffffffffffff\n              and\n              dup2\n              mstore\n              0x20\n              add\n              swap1\n              dup2\n              mstore\n              0x20\n              add\n              0x00\n              keccak256\n              0x00\n                /* \"Story.sol\":3617:3658  authorsForSolidity[request.author] = true */\n              0x0100\n              exp\n              dup2\n              sload\n              dup2\n              0xff\n              mul\n              not\n              and\n              swap1\n              dup4\n              iszero\n              iszero\n              mul\n              or\n              swap1\n              sstore\n              pop\n                /* \"Story.sol\":3673:3688  authorsForReact */\n              0x05\n                /* \"Story.sol\":3694:3701  request */\n              dup2\n                /* \"Story.sol\":3694:3708  request.author */\n              0x02\n              add\n              0x00\n              swap1\n              sload\n              swap1\n              0x0100\n              exp\n              swap1\n              div\n              0xffffffffffffffffffffffffffffffffffffffff\n              and\n                /* \"Story.sol\":3673:3709  authorsForReact.push(request.author) */\n              swap1\n              dup1\n              0x01\n              dup2\n              sload\n              add\n              dup1\n              dup3\n              sstore\n              dup1\n              swap2\n              pop\n              pop\n              0x01\n              swap1\n              sub\n              swap1\n              0x00\n              mstore\n              keccak256(0x00, 0x20)\n              add\n              0x00\n              swap1\n              swap2\n              swap1\n              swap2\n              swap1\n              swap2\n              0x0100\n              exp\n              dup2\n              sload\n              dup2\n              0xffffffffffffffffffffffffffffffffffffffff\n              mul\n              not\n              and\n              swap1\n              dup4\n              0xffffffffffffffffffffffffffffffffffffffff\n              and\n              mul\n              or\n              swap1\n              sstore\n              pop\n                /* \"Story.sol\":3455:3721  if(request.approversCount >= (authorsForReact.length)/2){... */\n            tag_178:\n                /* \"Story.sol\":2855:3728  {... */\n              pop\n                /* \"Story.sol\":7808:7813  false */\n              0x00\n                /* \"Story.sol\":7798:7805  _locked */\n              0x08\n              0x00\n                /* \"Story.sol\":7798:7813  _locked = false */\n              0x0100\n              exp\n              dup2\n              sload\n              dup2\n              0xff\n              mul\n              not\n              and\n              swap1\n              dup4\n              iszero\n              iszero\n              mul\n              or\n              swap1\n              sstore\n              pop\n                /* \"Story.sol\":2790:3728  function approveRequestToJoin(uint256 _index) public noReentrancy{... */\n              pop\n              jump\t// out\n                /* \"Story.sol\":3736:5000  function createChapter(string memory _title,  string memory _ipfsHash, address _parentChapter, address _childChapter) public noReentrancy{... */\n            tag_66:\n                /* \"Story.sol\":7724:7731  _locked */\n              0x08\n              0x00\n              swap1\n              sload\n              swap1\n              0x0100\n              exp\n              swap1\n              div\n              0xff\n              and\n                /* \"Story.sol\":7723:7731  !_locked */\n              iszero\n                /* \"Story.sol\":7715:7750  require(!_locked, \"Reentrant call\") */\n              tag_181\n              jumpi\n              mload(0x40)\n              0x08c379a000000000000000000000000000000000000000000000000000000000\n              dup2\n              mstore\n              0x04\n              add\n              tag_182\n              swap1\n              tag_93\n              jump\t// in\n            tag_182:\n              mload(0x40)\n              dup1\n              swap2\n              sub\n              swap1\n              revert\n            tag_181:\n                /* \"Story.sol\":7771:7775  true */\n              0x01\n                /* \"Story.sol\":7761:7768  _locked */\n              0x08\n              0x00\n                /* \"Story.sol\":7761:7775  _locked = true */\n              0x0100\n              exp\n              dup2\n              sload\n              dup2\n              0xff\n              mul\n              not\n              and\n              swap1\n              dup4\n              iszero\n              iszero\n              mul\n              or\n              swap1\n              sstore\n              pop\n                /* \"Story.sol\":3893:3901  reported */\n              0x0b\n              0x00\n              swap1\n              sload\n              swap1\n              0x0100\n              exp\n              swap1\n              div\n              0xff\n              and\n                /* \"Story.sol\":3892:3901  !reported */\n              iszero\n                /* \"Story.sol\":3884:3934  require(!reported, \"This story has been reported\") */\n              tag_184\n              jumpi\n              mload(0x40)\n              0x08c379a000000000000000000000000000000000000000000000000000000000\n              dup2\n              mstore\n              0x04\n              add\n              tag_185\n              swap1\n              tag_97\n              jump\t// in\n            tag_185:\n              mload(0x40)\n              dup1\n              swap2\n              sub\n              swap1\n              revert\n            tag_184:\n                /* \"Story.sol\":3953:3971  authorsForSolidity */\n              0x04\n                /* \"Story.sol\":3953:3983  authorsForSolidity[msg.sender] */\n              0x00\n                /* \"Story.sol\":3972:3982  msg.sender */\n              caller\n                /* \"Story.sol\":3953:3983  authorsForSolidity[msg.sender] */\n              0xffffffffffffffffffffffffffffffffffffffff\n              and\n              0xffffffffffffffffffffffffffffffffffffffff\n              and\n              dup2\n              mstore\n              0x20\n              add\n              swap1\n              dup2\n              mstore\n              0x20\n              add\n              0x00\n              keccak256\n              0x00\n              swap1\n              sload\n              swap1\n              0x0100\n              exp\n              swap1\n              div\n              0xff\n              and\n                /* \"Story.sol\":3945:4032  require(authorsForSolidity[msg.sender], \"Only an accepted author can create a chapter\") */\n              tag_186\n              jumpi\n              mload(0x40)\n              0x08c379a000000000000000000000000000000000000000000000000000000000\n              dup2\n              mstore\n              0x04\n              add\n              tag_187\n              swap1\n              tag_188\n              jump\t// in\n            tag_187:\n              mload(0x40)\n              dup1\n              swap2\n              sub\n              swap1\n              revert\n            tag_186:\n                /* \"Story.sol\":4051:4077  isContract(_parentChapter) */\n              tag_189\n                /* \"Story.sol\":4062:4076  _parentChapter */\n              dup3\n                /* \"Story.sol\":4051:4061  isContract */\n              tag_190\n                /* \"Story.sol\":4051:4077  isContract(_parentChapter) */\n              jump\t// in\n            tag_189:\n                /* \"Story.sol\":4043:4115  require(isContract(_parentChapter), \"Parent chapter must be a contract\") */\n              tag_191\n              jumpi\n              mload(0x40)\n              0x08c379a000000000000000000000000000000000000000000000000000000000\n              dup2\n              mstore\n              0x04\n              add\n              tag_192\n              swap1\n              tag_193\n              jump\t// in\n            tag_192:\n              mload(0x40)\n              dup1\n              swap2\n              sub\n              swap1\n              revert\n            tag_191:\n                /* \"Story.sol\":4134:4159  isContract(_childChapter) */\n              tag_194\n                /* \"Story.sol\":4145:4158  _childChapter */\n              dup2\n                /* \"Story.sol\":4134:4144  isContract */\n              tag_190\n                /* \"Story.sol\":4134:4159  isContract(_childChapter) */\n              jump\t// in\n            tag_194:\n                /* \"Story.sol\":4126:4196  require(isContract(_childChapter), \"Child chapter must be a contract\") */\n              tag_195\n              jumpi\n              mload(0x40)\n              0x08c379a000000000000000000000000000000000000000000000000000000000\n              dup2\n              mstore\n              0x04\n              add\n              tag_196\n              swap1\n              tag_197\n              jump\t// in\n            tag_196:\n              mload(0x40)\n              dup1\n              swap2\n              sub\n              swap1\n              revert\n            tag_195:\n                /* \"Story.sol\":4215:4249  checkParentChapter(_parentChapter) */\n              tag_198\n                /* \"Story.sol\":4234:4248  _parentChapter */\n              dup3\n                /* \"Story.sol\":4215:4233  checkParentChapter */\n              tag_199\n                /* \"Story.sol\":4215:4249  checkParentChapter(_parentChapter) */\n              jump\t// in\n            tag_198:\n                /* \"Story.sol\":4207:4298  require(checkParentChapter(_parentChapter), \"Parent chapter must belong to the same story\") */\n              tag_200\n              jumpi\n              mload(0x40)\n              0x08c379a000000000000000000000000000000000000000000000000000000000\n              dup2\n              mstore\n              0x04\n              add\n              tag_201\n              swap1\n              tag_202\n              jump\t// in\n            tag_201:\n              mload(0x40)\n              dup1\n              swap2\n              sub\n              swap1\n              revert\n            tag_200:\n                /* \"Story.sol\":4317:4349  checkChildChapter(_childChapter) */\n              tag_203\n                /* \"Story.sol\":4335:4348  _childChapter */\n              dup2\n                /* \"Story.sol\":4317:4334  checkChildChapter */\n              tag_204\n                /* \"Story.sol\":4317:4349  checkChildChapter(_childChapter) */\n              jump\t// in\n            tag_203:\n                /* \"Story.sol\":4309:4397  require(checkChildChapter(_childChapter), \"Child chapter must belong to the same story\") */\n              tag_205\n              jumpi\n              mload(0x40)\n              0x08c379a000000000000000000000000000000000000000000000000000000000\n              dup2\n              mstore\n              0x04\n              add\n              tag_206\n              swap1\n              tag_207\n              jump\t// in\n            tag_206:\n              mload(0x40)\n              dup1\n              swap2\n              sub\n              swap1\n              revert\n            tag_205:\n                /* \"Story.sol\":4410:4428  Chapter newChapter */\n              0x00\n                /* \"Story.sol\":4443:4453  msg.sender */\n              caller\n                /* \"Story.sol\":4463:4467  this */\n              address\n                /* \"Story.sol\":4470:4476  _title */\n              dup7\n                /* \"Story.sol\":4479:4488  _ipfsHash */\n              dup7\n                /* \"Story.sol\":4490:4504  _parentChapter */\n              dup7\n                /* \"Story.sol\":4506:4519  _childChapter */\n              dup7\n                /* \"Story.sol\":4431:4520  new Chapter(msg.sender, address(this), _title,  _ipfsHash, _parentChapter, _childChapter) */\n              mload(0x40)\n              tag_208\n              swap1\n              tag_209\n              jump\t// in\n            tag_208:\n              tag_210\n              swap7\n              swap6\n              swap5\n              swap4\n              swap3\n              swap2\n              swap1\n              tag_211\n              jump\t// in\n            tag_210:\n              mload(0x40)\n              dup1\n              swap2\n              sub\n              swap1\n              0x00\n              create\n              dup1\n              iszero\n              dup1\n              iszero\n              tag_212\n              jumpi\n              returndatasize\n              0x00\n              dup1\n              returndatacopy\n              revert(0x00, returndatasize)\n            tag_212:\n              pop\n                /* \"Story.sol\":4410:4520  Chapter newChapter = new Chapter(msg.sender, address(this), _title,  _ipfsHash, _parentChapter, _childChapter) */\n              swap1\n              pop\n                /* \"Story.sol\":4560:4561  0 */\n              0x00\n                /* \"Story.sol\":4534:4562  _parentChapter != address(0) */\n              0xffffffffffffffffffffffffffffffffffffffff\n              and\n                /* \"Story.sol\":4534:4548  _parentChapter */\n              dup4\n                /* \"Story.sol\":4534:4562  _parentChapter != address(0) */\n              0xffffffffffffffffffffffffffffffffffffffff\n              and\n              eq\n                /* \"Story.sol\":4531:4701  if(_parentChapter != address(0)){... */\n              tag_213\n              jumpi\n                /* \"Story.sol\":4582:4596  Chapter parent */\n              0x00\n                /* \"Story.sol\":4607:4621  _parentChapter */\n              dup4\n                /* \"Story.sol\":4582:4622  Chapter parent = Chapter(_parentChapter) */\n              swap1\n              pop\n                /* \"Story.sol\":4641:4647  parent */\n              dup1\n                /* \"Story.sol\":4641:4664  parent.linkChildChapter */\n              0xffffffffffffffffffffffffffffffffffffffff\n              and\n              0x988e46c8\n                /* \"Story.sol\":4673:4683  newChapter */\n              dup4\n                /* \"Story.sol\":4641:4685  parent.linkChildChapter(address(newChapter)) */\n              mload(0x40)\n              dup3\n              0xffffffff\n              and\n              0xe0\n              shl\n              dup2\n              mstore\n              0x04\n              add\n              tag_214\n              swap2\n              swap1\n              tag_77\n              jump\t// in\n            tag_214:\n              0x00\n              mload(0x40)\n              dup1\n              dup4\n              sub\n              dup2\n              0x00\n              dup8\n              dup1\n              extcodesize\n              iszero\n              dup1\n              iszero\n              tag_215\n              jumpi\n              0x00\n              dup1\n              revert\n            tag_215:\n              pop\n              gas\n              call\n              iszero\n              dup1\n              iszero\n              tag_217\n              jumpi\n              returndatasize\n              0x00\n              dup1\n              returndatacopy\n              revert(0x00, returndatasize)\n            tag_217:\n              pop\n              pop\n              pop\n              pop\n                /* \"Story.sol\":4563:4701  {... */\n              pop\n                /* \"Story.sol\":4531:4701  if(_parentChapter != address(0)){... */\n            tag_213:\n                /* \"Story.sol\":4739:4740  0 */\n              0x00\n                /* \"Story.sol\":4714:4741  _childChapter != address(0) */\n              0xffffffffffffffffffffffffffffffffffffffff\n              and\n                /* \"Story.sol\":4714:4727  _childChapter */\n              dup3\n                /* \"Story.sol\":4714:4741  _childChapter != address(0) */\n              0xffffffffffffffffffffffffffffffffffffffff\n              and\n              eq\n                /* \"Story.sol\":4711:4878  if(_childChapter != address(0)){... */\n              tag_218\n              jumpi\n                /* \"Story.sol\":4761:4774  Chapter child */\n              0x00\n                /* \"Story.sol\":4785:4798  _childChapter */\n              dup3\n                /* \"Story.sol\":4761:4799  Chapter child = Chapter(_childChapter) */\n              swap1\n              pop\n                /* \"Story.sol\":4818:4823  child */\n              dup1\n                /* \"Story.sol\":4818:4841  child.linkParentChapter */\n              0xffffffffffffffffffffffffffffffffffffffff\n              and\n              0x8758ce83\n                /* \"Story.sol\":4850:4860  newChapter */\n              dup4\n                /* \"Story.sol\":4818:4862  child.linkParentChapter(address(newChapter)) */\n              mload(0x40)\n              dup3\n              0xffffffff\n              and\n              0xe0\n              shl\n              dup2\n              mstore\n              0x04\n              add\n              tag_219\n              swap2\n              swap1\n              tag_77\n              jump\t// in\n            tag_219:\n              0x00\n              mload(0x40)\n              dup1\n              dup4\n              sub\n              dup2\n              0x00\n              dup8\n              dup1\n              extcodesize\n              iszero\n              dup1\n              iszero\n              tag_220\n              jumpi\n              0x00\n              dup1\n              revert\n            tag_220:\n              pop\n              gas\n              call\n              iszero\n              dup1\n              iszero\n              tag_222\n              jumpi\n              returndatasize\n              0x00\n              dup1\n              returndatacopy\n              revert(0x00, returndatasize)\n            tag_222:\n              pop\n              pop\n              pop\n              pop\n                /* \"Story.sol\":4742:4878  {... */\n              pop\n                /* \"Story.sol\":4711:4878  if(_childChapter != address(0)){... */\n            tag_218:\n                /* \"Story.sol\":4888:4904  chaptersForReact */\n              0x07\n                /* \"Story.sol\":4918:4928  newChapter */\n              dup2\n                /* \"Story.sol\":4888:4930  chaptersForReact.push(address(newChapter)) */\n              swap1\n              dup1\n              0x01\n              dup2\n              sload\n              add\n              dup1\n              dup3\n              sstore\n              dup1\n              swap2\n              pop\n              pop\n              0x01\n              swap1\n              sub\n              swap1\n              0x00\n              mstore\n              keccak256(0x00, 0x20)\n              add\n              0x00\n              swap1\n              swap2\n              swap1\n              swap2\n              swap1\n              swap2\n              0x0100\n              exp\n              dup2\n              sload\n              dup2\n              0xffffffffffffffffffffffffffffffffffffffff\n              mul\n              not\n              and\n              swap1\n              dup4\n              0xffffffffffffffffffffffffffffffffffffffff\n              and\n              mul\n              or\n              swap1\n              sstore\n              pop\n                /* \"Story.sol\":4984:4988  true */\n              0x01\n                /* \"Story.sol\":4941:4960  chaptersForSolidity */\n              0x06\n                /* \"Story.sol\":4941:4981  chaptersForSolidity[address(newChapter)] */\n              0x00\n                /* \"Story.sol\":4969:4979  newChapter */\n              dup4\n                /* \"Story.sol\":4941:4981  chaptersForSolidity[address(newChapter)] */\n              0xffffffffffffffffffffffffffffffffffffffff\n              and\n              0xffffffffffffffffffffffffffffffffffffffff\n              and\n              dup2\n              mstore\n              0x20\n              add\n              swap1\n              dup2\n              mstore\n              0x20\n              add\n              0x00\n              keccak256\n              0x00\n                /* \"Story.sol\":4941:4988  chaptersForSolidity[address(newChapter)] = true */\n              0x0100\n              exp\n              dup2\n              sload\n              dup2\n              0xff\n              mul\n              not\n              and\n              swap1\n              dup4\n              iszero\n              iszero\n              mul\n              or\n              swap1\n              sstore\n              pop\n                /* \"Story.sol\":3873:5000  {... */\n              pop\n                /* \"Story.sol\":7808:7813  false */\n              0x00\n                /* \"Story.sol\":7798:7805  _locked */\n              0x08\n              0x00\n                /* \"Story.sol\":7798:7813  _locked = false */\n              0x0100\n              exp\n              dup2\n              sload\n              dup2\n              0xff\n              mul\n              not\n              and\n              swap1\n              dup4\n              iszero\n              iszero\n              mul\n              or\n              swap1\n              sstore\n              pop\n                /* \"Story.sol\":3736:5000  function createChapter(string memory _title,  string memory _ipfsHash, address _parentChapter, address _childChapter) public noReentrancy{... */\n              pop\n              pop\n              pop\n              pop\n              jump\t// out\n                /* \"Story.sol\":6062:6166  function getChapters() public view returns (address[] memory) {... */\n            tag_69:\n                /* \"Story.sol\":6106:6122  address[] memory */\n              0x60\n                /* \"Story.sol\":6142:6158  chaptersForReact */\n              0x07\n                /* \"Story.sol\":6135:6158  return chaptersForReact */\n              dup1\n              sload\n              dup1\n              0x20\n              mul\n              0x20\n              add\n              mload(0x40)\n              swap1\n              dup2\n              add\n              0x40\n              mstore\n              dup1\n              swap3\n              swap2\n              swap1\n              dup2\n              dup2\n              mstore\n              0x20\n              add\n              dup3\n              dup1\n              sload\n              dup1\n              iszero\n              tag_225\n              jumpi\n              0x20\n              mul\n              dup3\n              add\n              swap2\n              swap1\n              0x00\n              mstore\n              keccak256(0x00, 0x20)\n              swap1\n            tag_226:\n              dup2\n              0x00\n              swap1\n              sload\n              swap1\n              0x0100\n              exp\n              swap1\n              div\n              0xffffffffffffffffffffffffffffffffffffffff\n              and\n              0xffffffffffffffffffffffffffffffffffffffff\n              and\n              dup2\n              mstore\n              0x20\n              add\n              swap1\n              0x01\n              add\n              swap1\n              dup1\n              dup4\n              gt\n              tag_226\n              jumpi\n            tag_225:\n              pop\n              pop\n              pop\n              pop\n              pop\n              swap1\n              pop\n                /* \"Story.sol\":6062:6166  function getChapters() public view returns (address[] memory) {... */\n              swap1\n              jump\t// out\n                /* \"Story.sol\":1393:1425  address[] public authorsForReact */\n            tag_75:\n              0x05\n              dup2\n              dup2\n              sload\n              dup2\n              lt\n              tag_227\n              jumpi\n              0x00\n              dup1\n              revert\n            tag_227:\n              swap1\n              0x00\n              mstore\n              keccak256(0x00, 0x20)\n              add\n              0x00\n              swap2\n              pop\n              sload\n              swap1\n              0x0100\n              exp\n              swap1\n              div\n              0xffffffffffffffffffffffffffffffffffffffff\n              and\n              dup2\n              jump\t// out\n                /* \"Story.sol\":1490:1523  address[] public chaptersForReact */\n            tag_81:\n              0x07\n              dup2\n              dup2\n              sload\n              dup2\n              lt\n              tag_229\n              jumpi\n              0x00\n              dup1\n              revert\n            tag_229:\n              swap1\n              0x00\n              mstore\n              keccak256(0x00, 0x20)\n              add\n              0x00\n              swap2\n              pop\n              sload\n              swap1\n              0x0100\n              exp\n              swap1\n              div\n              0xffffffffffffffffffffffffffffffffffffffff\n              and\n              dup2\n              jump\t// out\n                /* \"Story.sol\":5008:5191  function contribute() public payable noReentrancy{... */\n            tag_84:\n                /* \"Story.sol\":7724:7731  _locked */\n              0x08\n              0x00\n              swap1\n              sload\n              swap1\n              0x0100\n              exp\n              swap1\n              div\n              0xff\n              and\n                /* \"Story.sol\":7723:7731  !_locked */\n              iszero\n                /* \"Story.sol\":7715:7750  require(!_locked, \"Reentrant call\") */\n              tag_232\n              jumpi\n              mload(0x40)\n              0x08c379a000000000000000000000000000000000000000000000000000000000\n              dup2\n              mstore\n              0x04\n              add\n              tag_233\n              swap1\n              tag_93\n              jump\t// in\n            tag_233:\n              mload(0x40)\n              dup1\n              swap2\n              sub\n              swap1\n              revert\n            tag_232:\n                /* \"Story.sol\":7771:7775  true */\n              0x01\n                /* \"Story.sol\":7761:7768  _locked */\n              0x08\n              0x00\n                /* \"Story.sol\":7761:7775  _locked = true */\n              0x0100\n              exp\n              dup2\n              sload\n              dup2\n              0xff\n              mul\n              not\n              and\n              swap1\n              dup4\n              iszero\n              iszero\n              mul\n              or\n              swap1\n              sstore\n              pop\n                /* \"Story.sol\":5089:5092  100 */\n              0x64\n                /* \"Story.sol\":5076:5085  msg.value */\n              callvalue\n                /* \"Story.sol\":5076:5092  msg.value >= 100 */\n              lt\n              iszero\n                /* \"Story.sol\":5068:5128  require(msg.value >= 100, \"Minimum contribution is 100 Wei\") */\n              tag_235\n              jumpi\n              mload(0x40)\n              0x08c379a000000000000000000000000000000000000000000000000000000000\n              dup2\n              mstore\n              0x04\n              add\n              tag_236\n              swap1\n              tag_237\n              jump\t// in\n            tag_236:\n              mload(0x40)\n              dup1\n              swap2\n              sub\n              swap1\n              revert\n            tag_235:\n                /* \"Story.sol\":7808:7813  false */\n              0x00\n                /* \"Story.sol\":7798:7805  _locked */\n              0x08\n              0x00\n                /* \"Story.sol\":7798:7813  _locked = false */\n              0x0100\n              exp\n              dup2\n              sload\n              dup2\n              0xff\n              mul\n              not\n              and\n              swap1\n              dup4\n              iszero\n              iszero\n              mul\n              or\n              swap1\n              sstore\n              pop\n                /* \"Story.sol\":5008:5191  function contribute() public payable noReentrancy{... */\n              jump\t// out\n                /* \"Story.sol\":2266:2782  function createRequestToJoin(string memory _proposal) public noReentrancy{... */\n            tag_89:\n                /* \"Story.sol\":7724:7731  _locked */\n              0x08\n              0x00\n              swap1\n              sload\n              swap1\n              0x0100\n              exp\n              swap1\n              div\n              0xff\n              and\n                /* \"Story.sol\":7723:7731  !_locked */\n              iszero\n                /* \"Story.sol\":7715:7750  require(!_locked, \"Reentrant call\") */\n              tag_239\n              jumpi\n              mload(0x40)\n              0x08c379a000000000000000000000000000000000000000000000000000000000\n              dup2\n              mstore\n              0x04\n              add\n              tag_240\n              swap1\n              tag_93\n              jump\t// in\n            tag_240:\n              mload(0x40)\n              dup1\n              swap2\n              sub\n              swap1\n              revert\n            tag_239:\n                /* \"Story.sol\":7771:7775  true */\n              0x01\n                /* \"Story.sol\":7761:7768  _locked */\n              0x08\n              0x00\n                /* \"Story.sol\":7761:7775  _locked = true */\n              0x0100\n              exp\n              dup2\n              sload\n              dup2\n              0xff\n              mul\n              not\n              and\n              swap1\n              dup4\n              iszero\n              iszero\n              mul\n              or\n              swap1\n              sstore\n              pop\n                /* \"Story.sol\":2359:2367  reported */\n              0x0b\n              0x00\n              swap1\n              sload\n              swap1\n              0x0100\n              exp\n              swap1\n              div\n              0xff\n              and\n                /* \"Story.sol\":2358:2367  !reported */\n              iszero\n                /* \"Story.sol\":2350:2400  require(!reported, \"This story has been reported\") */\n              tag_242\n              jumpi\n              mload(0x40)\n              0x08c379a000000000000000000000000000000000000000000000000000000000\n              dup2\n              mstore\n              0x04\n              add\n              tag_243\n              swap1\n              tag_97\n              jump\t// in\n            tag_243:\n              mload(0x40)\n              dup1\n              swap2\n              sub\n              swap1\n              revert\n            tag_242:\n                /* \"Story.sol\":2420:2438  authorsForSolidity */\n              0x04\n                /* \"Story.sol\":2420:2450  authorsForSolidity[msg.sender] */\n              0x00\n                /* \"Story.sol\":2439:2449  msg.sender */\n              caller\n                /* \"Story.sol\":2420:2450  authorsForSolidity[msg.sender] */\n              0xffffffffffffffffffffffffffffffffffffffff\n              and\n              0xffffffffffffffffffffffffffffffffffffffff\n              and\n              dup2\n              mstore\n              0x20\n              add\n              swap1\n              dup2\n              mstore\n              0x20\n              add\n              0x00\n              keccak256\n              0x00\n              swap1\n              sload\n              swap1\n              0x0100\n              exp\n              swap1\n              div\n              0xff\n              and\n                /* \"Story.sol\":2419:2450  !authorsForSolidity[msg.sender] */\n              iszero\n                /* \"Story.sol\":2411:2499  require(!authorsForSolidity[msg.sender], \"Author already exists in the list of authors\") */\n              tag_244\n              jumpi\n              mload(0x40)\n              0x08c379a000000000000000000000000000000000000000000000000000000000\n              dup2\n              mstore\n              0x04\n              add\n              tag_245\n              swap1\n              tag_246\n              jump\t// in\n            tag_245:\n              mload(0x40)\n              dup1\n              swap2\n              sub\n              swap1\n              revert\n            tag_244:\n                /* \"Story.sol\":2510:2542  RequestToJoin storage newRequest */\n              0x00\n                /* \"Story.sol\":2545:2559  requestsToJoin */\n              0x0c\n                /* \"Story.sol\":2545:2566  requestsToJoin.push() */\n              0x01\n              dup2\n              0x01\n              dup2\n              sload\n              add\n              dup1\n              dup3\n              sstore\n              dup1\n              swap2\n              pop\n              pop\n              sub\n              swap1\n              0x00\n              mstore\n              keccak256(0x00, 0x20)\n              swap1\n              0x06\n              mul\n              add\n                /* \"Story.sol\":2510:2566  RequestToJoin storage newRequest = requestsToJoin.push() */\n              swap1\n              pop\n                /* \"Story.sol\":2599:2608  _proposal */\n              dup2\n                /* \"Story.sol\":2577:2587  newRequest */\n              dup2\n                /* \"Story.sol\":2577:2596  newRequest.proposal */\n              0x00\n              add\n                /* \"Story.sol\":2577:2608  newRequest.proposal = _proposal */\n              swap1\n              dup1\n              mload\n              swap1\n              0x20\n              add\n              swap1\n              tag_248\n              swap3\n              swap2\n              swap1\n              tag_249\n              jump\t// in\n            tag_248:\n              pop\n                /* \"Story.sol\":2642:2657  block.timestamp */\n              timestamp\n                /* \"Story.sol\":2619:2629  newRequest */\n              dup2\n                /* \"Story.sol\":2619:2639  newRequest.timestamp */\n              0x01\n              add\n                /* \"Story.sol\":2619:2657  newRequest.timestamp = block.timestamp */\n              dup2\n              swap1\n              sstore\n              pop\n                /* \"Story.sol\":2688:2698  msg.sender */\n              caller\n                /* \"Story.sol\":2668:2678  newRequest */\n              dup2\n                /* \"Story.sol\":2668:2685  newRequest.author */\n              0x02\n              add\n              0x00\n                /* \"Story.sol\":2668:2698  newRequest.author = msg.sender */\n              0x0100\n              exp\n              dup2\n              sload\n              dup2\n              0xffffffffffffffffffffffffffffffffffffffff\n              mul\n              not\n              and\n              swap1\n              dup4\n              0xffffffffffffffffffffffffffffffffffffffff\n              and\n              mul\n              or\n              swap1\n              sstore\n              pop\n                /* \"Story.sol\":2737:2738  0 */\n              0x00\n                /* \"Story.sol\":2709:2719  newRequest */\n              dup2\n                /* \"Story.sol\":2709:2734  newRequest.approversCount */\n              0x04\n              add\n                /* \"Story.sol\":2709:2738  newRequest.approversCount = 0 */\n              dup2\n              swap1\n              sstore\n              pop\n                /* \"Story.sol\":2769:2774  false */\n              0x00\n                /* \"Story.sol\":2749:2759  newRequest */\n              dup2\n                /* \"Story.sol\":2749:2766  newRequest.status */\n              0x05\n              add\n              0x00\n                /* \"Story.sol\":2749:2774  newRequest.status = false */\n              0x0100\n              exp\n              dup2\n              sload\n              dup2\n              0xff\n              mul\n              not\n              and\n              swap1\n              dup4\n              iszero\n              iszero\n              mul\n              or\n              swap1\n              sstore\n              pop\n                /* \"Story.sol\":2339:2782  {... */\n              pop\n                /* \"Story.sol\":7808:7813  false */\n              0x00\n                /* \"Story.sol\":7798:7805  _locked */\n              0x08\n              0x00\n                /* \"Story.sol\":7798:7813  _locked = false */\n              0x0100\n              exp\n              dup2\n              sload\n              dup2\n              0xff\n              mul\n              not\n              and\n              swap1\n              dup4\n              iszero\n              iszero\n              mul\n              or\n              swap1\n              sstore\n              pop\n                /* \"Story.sol\":2266:2782  function createRequestToJoin(string memory _proposal) public noReentrancy{... */\n              pop\n              jump\t// out\n                /* \"Story.sol\":84:263  function add(uint256 a, uint256 b) internal pure returns (uint256) {... */\n            tag_102:\n                /* \"Story.sol\":142:149  uint256 */\n              0x00\n                /* \"Story.sol\":162:171  uint256 c */\n              dup1\n                /* \"Story.sol\":178:179  b */\n              dup3\n                /* \"Story.sol\":174:175  a */\n              dup5\n                /* \"Story.sol\":174:179  a + b */\n              tag_251\n              swap2\n              swap1\n              tag_252\n              jump\t// in\n            tag_251:\n                /* \"Story.sol\":162:179  uint256 c = a + b */\n              swap1\n              pop\n                /* \"Story.sol\":203:204  a */\n              dup4\n                /* \"Story.sol\":198:199  c */\n              dup2\n                /* \"Story.sol\":198:204  c >= a */\n              lt\n              iszero\n                /* \"Story.sol\":190:236  require(c >= a, \"SafeMath: addition overflow\") */\n              tag_253\n              jumpi\n              mload(0x40)\n              0x08c379a000000000000000000000000000000000000000000000000000000000\n              dup2\n              mstore\n              0x04\n              add\n              tag_254\n              swap1\n              tag_255\n              jump\t// in\n            tag_254:\n              mload(0x40)\n              dup1\n              swap2\n              sub\n              swap1\n              revert\n            tag_253:\n                /* \"Story.sol\":254:255  c */\n              dup1\n                /* \"Story.sol\":247:255  return c */\n              swap2\n              pop\n              pop\n                /* \"Story.sol\":84:263  function add(uint256 a, uint256 b) internal pure returns (uint256) {... */\n              swap3\n              swap2\n              pop\n              pop\n              jump\t// out\n                /* \"Story.sol\":269:422  function div(uint256 a, uint256 b) internal pure returns (uint256) {... */\n            tag_112:\n                /* \"Story.sol\":327:334  uint256 */\n              0x00\n                /* \"Story.sol\":359:360  0 */\n              dup1\n                /* \"Story.sol\":355:356  b */\n              dup3\n                /* \"Story.sol\":355:360  b > 0 */\n              gt\n                /* \"Story.sol\":347:391  require(b > 0, \"SafeMath: division by zero\") */\n              tag_257\n              jumpi\n              mload(0x40)\n              0x08c379a000000000000000000000000000000000000000000000000000000000\n              dup2\n              mstore\n              0x04\n              add\n              tag_258\n              swap1\n              tag_259\n              jump\t// in\n            tag_258:\n              mload(0x40)\n              dup1\n              swap2\n              sub\n              swap1\n              revert\n            tag_257:\n                /* \"Story.sol\":413:414  b */\n              dup2\n                /* \"Story.sol\":409:410  a */\n              dup4\n                /* \"Story.sol\":409:414  a / b */\n              tag_260\n              swap2\n              swap1\n              tag_177\n              jump\t// in\n            tag_260:\n                /* \"Story.sol\":402:414  return a / b */\n              swap1\n              pop\n                /* \"Story.sol\":269:422  function div(uint256 a, uint256 b) internal pure returns (uint256) {... */\n              swap3\n              swap2\n              pop\n              pop\n              jump\t// out\n                /* \"Story.sol\":7338:7670  function isContract(address account) internal view returns (bool) {... */\n            tag_190:\n                /* \"Story.sol\":7398:7402  bool */\n              0x00\n                /* \"Story.sol\":7499:7500  0 */\n              dup1\n                /* \"Story.sol\":7480:7501  account == address(0) */\n              0xffffffffffffffffffffffffffffffffffffffff\n              and\n                /* \"Story.sol\":7480:7487  account */\n              dup3\n                /* \"Story.sol\":7480:7501  account == address(0) */\n              0xffffffffffffffffffffffffffffffffffffffff\n              and\n              eq\n                /* \"Story.sol\":7476:7541  if (account == address(0)) {... */\n              iszero\n              tag_262\n              jumpi\n                /* \"Story.sol\":7525:7529  true */\n              0x01\n                /* \"Story.sol\":7518:7529  return true */\n              swap1\n              pop\n              jump(tag_261)\n                /* \"Story.sol\":7476:7541  if (account == address(0)) {... */\n            tag_262:\n                /* \"Story.sol\":7551:7563  uint256 size */\n              0x00\n                /* \"Story.sol\":7618:7625  account */\n              dup3\n                /* \"Story.sol\":7606:7626  extcodesize(account) */\n              extcodesize\n                /* \"Story.sol\":7598:7626  size := extcodesize(account) */\n              swap1\n              pop\n                /* \"Story.sol\":7661:7662  0 */\n              0x00\n                /* \"Story.sol\":7654:7658  size */\n              dup2\n                /* \"Story.sol\":7654:7662  size > 0 */\n              gt\n                /* \"Story.sol\":7647:7662  return size > 0 */\n              swap2\n              pop\n              pop\n                /* \"Story.sol\":7338:7670  function isContract(address account) internal view returns (bool) {... */\n            tag_261:\n              swap2\n              swap1\n              pop\n              jump\t// out\n                /* \"Story.sol\":6835:7053  function checkParentChapter(address parentChapter) internal view returns (bool){... */\n            tag_199:\n                /* \"Story.sol\":6909:6913  bool */\n              0x00\n                /* \"Story.sol\":6953:6954  0 */\n              dup1\n                /* \"Story.sol\":6928:6955  parentChapter == address(0) */\n              0xffffffffffffffffffffffffffffffffffffffff\n              and\n                /* \"Story.sol\":6928:6941  parentChapter */\n              dup3\n                /* \"Story.sol\":6928:6955  parentChapter == address(0) */\n              0xffffffffffffffffffffffffffffffffffffffff\n              and\n              eq\n                /* \"Story.sol\":6925:6994  if(parentChapter == address(0)){... */\n              iszero\n              tag_264\n              jumpi\n                /* \"Story.sol\":6978:6982  true */\n              0x01\n                /* \"Story.sol\":6971:6982  return true */\n              swap1\n              pop\n              jump(tag_263)\n                /* \"Story.sol\":6925:6994  if(parentChapter == address(0)){... */\n            tag_264:\n                /* \"Story.sol\":7011:7030  chaptersForSolidity */\n              0x06\n                /* \"Story.sol\":7011:7045  chaptersForSolidity[parentChapter] */\n              0x00\n                /* \"Story.sol\":7031:7044  parentChapter */\n              dup4\n                /* \"Story.sol\":7011:7045  chaptersForSolidity[parentChapter] */\n              0xffffffffffffffffffffffffffffffffffffffff\n              and\n              0xffffffffffffffffffffffffffffffffffffffff\n              and\n              dup2\n              mstore\n              0x20\n              add\n              swap1\n              dup2\n              mstore\n              0x20\n              add\n              0x00\n              keccak256\n              0x00\n              swap1\n              sload\n              swap1\n              0x0100\n              exp\n              swap1\n              div\n              0xff\n              and\n                /* \"Story.sol\":7004:7045  return chaptersForSolidity[parentChapter] */\n              swap1\n              pop\n                /* \"Story.sol\":6835:7053  function checkParentChapter(address parentChapter) internal view returns (bool){... */\n            tag_263:\n              swap2\n              swap1\n              pop\n              jump\t// out\n                /* \"Story.sol\":7116:7330  function checkChildChapter(address childChapter) internal view returns (bool){... */\n            tag_204:\n                /* \"Story.sol\":7188:7192  bool */\n              0x00\n                /* \"Story.sol\":7231:7232  0 */\n              dup1\n                /* \"Story.sol\":7207:7233  childChapter == address(0) */\n              0xffffffffffffffffffffffffffffffffffffffff\n              and\n                /* \"Story.sol\":7207:7219  childChapter */\n              dup3\n                /* \"Story.sol\":7207:7233  childChapter == address(0) */\n              0xffffffffffffffffffffffffffffffffffffffff\n              and\n              eq\n                /* \"Story.sol\":7204:7272  if(childChapter == address(0)){... */\n              iszero\n              tag_266\n              jumpi\n                /* \"Story.sol\":7256:7260  true */\n              0x01\n                /* \"Story.sol\":7249:7260  return true */\n              swap1\n              pop\n              jump(tag_265)\n                /* \"Story.sol\":7204:7272  if(childChapter == address(0)){... */\n            tag_266:\n                /* \"Story.sol\":7289:7308  chaptersForSolidity */\n              0x06\n                /* \"Story.sol\":7289:7322  chaptersForSolidity[childChapter] */\n              0x00\n                /* \"Story.sol\":7309:7321  childChapter */\n              dup4\n                /* \"Story.sol\":7289:7322  chaptersForSolidity[childChapter] */\n              0xffffffffffffffffffffffffffffffffffffffff\n              and\n              0xffffffffffffffffffffffffffffffffffffffff\n              and\n              dup2\n              mstore\n              0x20\n              add\n              swap1\n              dup2\n              mstore\n              0x20\n              add\n              0x00\n              keccak256\n              0x00\n              swap1\n              sload\n              swap1\n              0x0100\n              exp\n              swap1\n              div\n              0xff\n              and\n                /* \"Story.sol\":7282:7322  return chaptersForSolidity[childChapter] */\n              swap1\n              pop\n                /* \"Story.sol\":7116:7330  function checkChildChapter(address childChapter) internal view returns (bool){... */\n            tag_265:\n              swap2\n              swap1\n              pop\n              jump\t// out\n            tag_209:\n              dataSize(sub_0)\n              dup1\n              dataOffset(sub_0)\n              dup4\n              codecopy\n              add\n              swap1\n              jump\t// out\n            tag_249:\n              dup3\n              dup1\n              sload\n              tag_267\n              swap1\n              tag_129\n              jump\t// in\n            tag_267:\n              swap1\n              0x00\n              mstore\n              keccak256(0x00, 0x20)\n              swap1\n              0x1f\n              add\n              0x20\n              swap1\n              div\n              dup2\n              add\n              swap3\n              dup3\n              tag_269\n              jumpi\n              0x00\n              dup6\n              sstore\n              jump(tag_268)\n            tag_269:\n              dup3\n              0x1f\n              lt\n              tag_270\n              jumpi\n              dup1\n              mload\n              not(0xff)\n              and\n              dup4\n              dup1\n              add\n              or\n              dup6\n              sstore\n              jump(tag_268)\n            tag_270:\n              dup3\n              dup1\n              add\n              0x01\n              add\n              dup6\n              sstore\n              dup3\n              iszero\n              tag_268\n              jumpi\n              swap2\n              dup3\n              add\n            tag_271:\n              dup3\n              dup2\n              gt\n              iszero\n              tag_272\n              jumpi\n              dup3\n              mload\n              dup3\n              sstore\n              swap2\n              0x20\n              add\n              swap2\n              swap1\n              0x01\n              add\n              swap1\n              jump(tag_271)\n            tag_272:\n            tag_268:\n              pop\n              swap1\n              pop\n              tag_273\n              swap2\n              swap1\n              tag_274\n              jump\t// in\n            tag_273:\n              pop\n              swap1\n              jump\t// out\n            tag_274:\n            tag_275:\n              dup1\n              dup3\n              gt\n              iszero\n              tag_276\n              jumpi\n              0x00\n              dup2\n              0x00\n              swap1\n              sstore\n              pop\n              0x01\n              add\n              jump(tag_275)\n            tag_276:\n              pop\n              swap1\n              jump\t// out\n                /* \"#utility.yul\":7:82   */\n            tag_277:\n                /* \"#utility.yul\":40:46   */\n              0x00\n                /* \"#utility.yul\":73:75   */\n              0x40\n                /* \"#utility.yul\":67:76   */\n              mload\n                /* \"#utility.yul\":57:76   */\n              swap1\n              pop\n                /* \"#utility.yul\":7:82   */\n              swap1\n              jump\t// out\n                /* \"#utility.yul\":88:205   */\n            tag_278:\n                /* \"#utility.yul\":197:198   */\n              0x00\n                /* \"#utility.yul\":194:195   */\n              dup1\n                /* \"#utility.yul\":187:199   */\n              revert\n                /* \"#utility.yul\":211:328   */\n            tag_279:\n                /* \"#utility.yul\":320:321   */\n              0x00\n                /* \"#utility.yul\":317:318   */\n              dup1\n                /* \"#utility.yul\":310:322   */\n              revert\n                /* \"#utility.yul\":334:460   */\n            tag_280:\n                /* \"#utility.yul\":371:378   */\n              0x00\n                /* \"#utility.yul\":411:453   */\n              0xffffffffffffffffffffffffffffffffffffffff\n                /* \"#utility.yul\":404:409   */\n              dup3\n                /* \"#utility.yul\":400:454   */\n              and\n                /* \"#utility.yul\":389:454   */\n              swap1\n              pop\n                /* \"#utility.yul\":334:460   */\n              swap2\n              swap1\n              pop\n              jump\t// out\n                /* \"#utility.yul\":466:562   */\n            tag_281:\n                /* \"#utility.yul\":503:510   */\n              0x00\n                /* \"#utility.yul\":532:556   */\n              tag_355\n                /* \"#utility.yul\":550:555   */\n              dup3\n                /* \"#utility.yul\":532:556   */\n              tag_280\n              jump\t// in\n            tag_355:\n                /* \"#utility.yul\":521:556   */\n              swap1\n              pop\n                /* \"#utility.yul\":466:562   */\n              swap2\n              swap1\n              pop\n              jump\t// out\n                /* \"#utility.yul\":568:690   */\n            tag_282:\n                /* \"#utility.yul\":641:665   */\n              tag_357\n                /* \"#utility.yul\":659:664   */\n              dup2\n                /* \"#utility.yul\":641:665   */\n              tag_281\n              jump\t// in\n            tag_357:\n                /* \"#utility.yul\":634:639   */\n              dup2\n                /* \"#utility.yul\":631:666   */\n              eq\n                /* \"#utility.yul\":621:684   */\n              tag_358\n              jumpi\n                /* \"#utility.yul\":680:681   */\n              0x00\n                /* \"#utility.yul\":677:678   */\n              dup1\n                /* \"#utility.yul\":670:682   */\n              revert\n                /* \"#utility.yul\":621:684   */\n            tag_358:\n                /* \"#utility.yul\":568:690   */\n              pop\n              jump\t// out\n                /* \"#utility.yul\":696:835   */\n            tag_283:\n                /* \"#utility.yul\":742:747   */\n              0x00\n                /* \"#utility.yul\":780:786   */\n              dup2\n                /* \"#utility.yul\":767:787   */\n              calldataload\n                /* \"#utility.yul\":758:787   */\n              swap1\n              pop\n                /* \"#utility.yul\":796:829   */\n              tag_360\n                /* \"#utility.yul\":823:828   */\n              dup2\n                /* \"#utility.yul\":796:829   */\n              tag_282\n              jump\t// in\n            tag_360:\n                /* \"#utility.yul\":696:835   */\n              swap3\n              swap2\n              pop\n              pop\n              jump\t// out\n                /* \"#utility.yul\":841:1170   */\n            tag_29:\n                /* \"#utility.yul\":900:906   */\n              0x00\n                /* \"#utility.yul\":949:951   */\n              0x20\n                /* \"#utility.yul\":937:946   */\n              dup3\n                /* \"#utility.yul\":928:935   */\n              dup5\n                /* \"#utility.yul\":924:947   */\n              sub\n                /* \"#utility.yul\":920:952   */\n              slt\n                /* \"#utility.yul\":917:1036   */\n              iszero\n              tag_362\n              jumpi\n                /* \"#utility.yul\":955:1034   */\n              tag_363\n              tag_278\n              jump\t// in\n            tag_363:\n                /* \"#utility.yul\":917:1036   */\n            tag_362:\n                /* \"#utility.yul\":1075:1076   */\n              0x00\n                /* \"#utility.yul\":1100:1153   */\n              tag_364\n                /* \"#utility.yul\":1145:1152   */\n              dup5\n                /* \"#utility.yul\":1136:1142   */\n              dup3\n                /* \"#utility.yul\":1125:1134   */\n              dup6\n                /* \"#utility.yul\":1121:1143   */\n              add\n                /* \"#utility.yul\":1100:1153   */\n              tag_283\n              jump\t// in\n            tag_364:\n                /* \"#utility.yul\":1090:1153   */\n              swap2\n              pop\n                /* \"#utility.yul\":1046:1163   */\n              pop\n                /* \"#utility.yul\":841:1170   */\n              swap3\n              swap2\n              pop\n              pop\n              jump\t// out\n                /* \"#utility.yul\":1176:1266   */\n            tag_284:\n                /* \"#utility.yul\":1210:1217   */\n              0x00\n                /* \"#utility.yul\":1253:1258   */\n              dup2\n                /* \"#utility.yul\":1246:1259   */\n              iszero\n                /* \"#utility.yul\":1239:1260   */\n              iszero\n                /* \"#utility.yul\":1228:1260   */\n              swap1\n              pop\n                /* \"#utility.yul\":1176:1266   */\n              swap2\n              swap1\n              pop\n              jump\t// out\n                /* \"#utility.yul\":1272:1381   */\n            tag_285:\n                /* \"#utility.yul\":1353:1374   */\n              tag_367\n                /* \"#utility.yul\":1368:1373   */\n              dup2\n                /* \"#utility.yul\":1353:1374   */\n              tag_284\n              jump\t// in\n            tag_367:\n                /* \"#utility.yul\":1348:1351   */\n              dup3\n                /* \"#utility.yul\":1341:1375   */\n              mstore\n                /* \"#utility.yul\":1272:1381   */\n              pop\n              pop\n              jump\t// out\n                /* \"#utility.yul\":1387:1597   */\n            tag_32:\n                /* \"#utility.yul\":1474:1478   */\n              0x00\n                /* \"#utility.yul\":1512:1514   */\n              0x20\n                /* \"#utility.yul\":1501:1510   */\n              dup3\n                /* \"#utility.yul\":1497:1515   */\n              add\n                /* \"#utility.yul\":1489:1515   */\n              swap1\n              pop\n                /* \"#utility.yul\":1525:1590   */\n              tag_369\n                /* \"#utility.yul\":1587:1588   */\n              0x00\n                /* \"#utility.yul\":1576:1585   */\n              dup4\n                /* \"#utility.yul\":1572:1589   */\n              add\n                /* \"#utility.yul\":1563:1569   */\n              dup5\n                /* \"#utility.yul\":1525:1590   */\n              tag_285\n              jump\t// in\n            tag_369:\n                /* \"#utility.yul\":1387:1597   */\n              swap3\n              swap2\n              pop\n              pop\n              jump\t// out\n                /* \"#utility.yul\":1603:1721   */\n            tag_286:\n                /* \"#utility.yul\":1690:1714   */\n              tag_371\n                /* \"#utility.yul\":1708:1713   */\n              dup2\n                /* \"#utility.yul\":1690:1714   */\n              tag_281\n              jump\t// in\n            tag_371:\n                /* \"#utility.yul\":1685:1688   */\n              dup3\n                /* \"#utility.yul\":1678:1715   */\n              mstore\n                /* \"#utility.yul\":1603:1721   */\n              pop\n              pop\n              jump\t// out\n                /* \"#utility.yul\":1727:1826   */\n            tag_287:\n                /* \"#utility.yul\":1779:1785   */\n              0x00\n                /* \"#utility.yul\":1813:1818   */\n              dup2\n                /* \"#utility.yul\":1807:1819   */\n              mload\n                /* \"#utility.yul\":1797:1819   */\n              swap1\n              pop\n                /* \"#utility.yul\":1727:1826   */\n              swap2\n              swap1\n              pop\n              jump\t// out\n                /* \"#utility.yul\":1832:2001   */\n            tag_288:\n                /* \"#utility.yul\":1916:1927   */\n              0x00\n                /* \"#utility.yul\":1950:1956   */\n              dup3\n                /* \"#utility.yul\":1945:1948   */\n              dup3\n                /* \"#utility.yul\":1938:1957   */\n              mstore\n                /* \"#utility.yul\":1990:1994   */\n              0x20\n                /* \"#utility.yul\":1985:1988   */\n              dup3\n                /* \"#utility.yul\":1981:1995   */\n              add\n                /* \"#utility.yul\":1966:1995   */\n              swap1\n              pop\n                /* \"#utility.yul\":1832:2001   */\n              swap3\n              swap2\n              pop\n              pop\n              jump\t// out\n                /* \"#utility.yul\":2007:2314   */\n            tag_289:\n                /* \"#utility.yul\":2075:2076   */\n              0x00\n                /* \"#utility.yul\":2085:2198   */\n            tag_375:\n                /* \"#utility.yul\":2099:2105   */\n              dup4\n                /* \"#utility.yul\":2096:2097   */\n              dup2\n                /* \"#utility.yul\":2093:2106   */\n              lt\n                /* \"#utility.yul\":2085:2198   */\n              iszero\n              tag_377\n              jumpi\n                /* \"#utility.yul\":2184:2185   */\n              dup1\n                /* \"#utility.yul\":2179:2182   */\n              dup3\n                /* \"#utility.yul\":2175:2186   */\n              add\n                /* \"#utility.yul\":2169:2187   */\n              mload\n                /* \"#utility.yul\":2165:2166   */\n              dup2\n                /* \"#utility.yul\":2160:2163   */\n              dup5\n                /* \"#utility.yul\":2156:2167   */\n              add\n                /* \"#utility.yul\":2149:2188   */\n              mstore\n                /* \"#utility.yul\":2121:2123   */\n              0x20\n                /* \"#utility.yul\":2118:2119   */\n              dup2\n                /* \"#utility.yul\":2114:2124   */\n              add\n                /* \"#utility.yul\":2109:2124   */\n              swap1\n              pop\n                /* \"#utility.yul\":2085:2198   */\n              jump(tag_375)\n            tag_377:\n                /* \"#utility.yul\":2216:2222   */\n              dup4\n                /* \"#utility.yul\":2213:2214   */\n              dup2\n                /* \"#utility.yul\":2210:2223   */\n              gt\n                /* \"#utility.yul\":2207:2308   */\n              iszero\n              tag_378\n              jumpi\n                /* \"#utility.yul\":2296:2297   */\n              0x00\n                /* \"#utility.yul\":2287:2293   */\n              dup5\n                /* \"#utility.yul\":2282:2285   */\n              dup5\n                /* \"#utility.yul\":2278:2294   */\n              add\n                /* \"#utility.yul\":2271:2298   */\n              mstore\n                /* \"#utility.yul\":2207:2308   */\n            tag_378:\n                /* \"#utility.yul\":2056:2314   */\n              pop\n                /* \"#utility.yul\":2007:2314   */\n              pop\n              pop\n              pop\n              jump\t// out\n                /* \"#utility.yul\":2320:2422   */\n            tag_290:\n                /* \"#utility.yul\":2361:2367   */\n              0x00\n                /* \"#utility.yul\":2412:2414   */\n              0x1f\n                /* \"#utility.yul\":2408:2415   */\n              not\n                /* \"#utility.yul\":2403:2405   */\n              0x1f\n                /* \"#utility.yul\":2396:2401   */\n              dup4\n                /* \"#utility.yul\":2392:2406   */\n              add\n                /* \"#utility.yul\":2388:2416   */\n              and\n                /* \"#utility.yul\":2378:2416   */\n              swap1\n              pop\n                /* \"#utility.yul\":2320:2422   */\n              swap2\n              swap1\n              pop\n              jump\t// out\n                /* \"#utility.yul\":2428:2792   */\n            tag_291:\n                /* \"#utility.yul\":2516:2519   */\n              0x00\n                /* \"#utility.yul\":2544:2583   */\n              tag_381\n                /* \"#utility.yul\":2577:2582   */\n              dup3\n                /* \"#utility.yul\":2544:2583   */\n              tag_287\n              jump\t// in\n            tag_381:\n                /* \"#utility.yul\":2599:2670   */\n              tag_382\n                /* \"#utility.yul\":2663:2669   */\n              dup2\n                /* \"#utility.yul\":2658:2661   */\n              dup6\n                /* \"#utility.yul\":2599:2670   */\n              tag_288\n              jump\t// in\n            tag_382:\n                /* \"#utility.yul\":2592:2670   */\n              swap4\n              pop\n                /* \"#utility.yul\":2679:2731   */\n              tag_383\n                /* \"#utility.yul\":2724:2730   */\n              dup2\n                /* \"#utility.yul\":2719:2722   */\n              dup6\n                /* \"#utility.yul\":2712:2716   */\n              0x20\n                /* \"#utility.yul\":2705:2710   */\n              dup7\n                /* \"#utility.yul\":2701:2717   */\n              add\n                /* \"#utility.yul\":2679:2731   */\n              tag_289\n              jump\t// in\n            tag_383:\n                /* \"#utility.yul\":2756:2785   */\n              tag_384\n                /* \"#utility.yul\":2778:2784   */\n              dup2\n                /* \"#utility.yul\":2756:2785   */\n              tag_290\n              jump\t// in\n            tag_384:\n                /* \"#utility.yul\":2751:2754   */\n              dup5\n                /* \"#utility.yul\":2747:2786   */\n              add\n                /* \"#utility.yul\":2740:2786   */\n              swap2\n              pop\n                /* \"#utility.yul\":2520:2792   */\n              pop\n                /* \"#utility.yul\":2428:2792   */\n              swap3\n              swap2\n              pop\n              pop\n              jump\t// out\n                /* \"#utility.yul\":2798:2912   */\n            tag_292:\n                /* \"#utility.yul\":2865:2871   */\n              0x00\n                /* \"#utility.yul\":2899:2904   */\n              dup2\n                /* \"#utility.yul\":2893:2905   */\n              mload\n                /* \"#utility.yul\":2883:2905   */\n              swap1\n              pop\n                /* \"#utility.yul\":2798:2912   */\n              swap2\n              swap1\n              pop\n              jump\t// out\n                /* \"#utility.yul\":2918:3102   */\n            tag_293:\n                /* \"#utility.yul\":3017:3028   */\n              0x00\n                /* \"#utility.yul\":3051:3057   */\n              dup3\n                /* \"#utility.yul\":3046:3049   */\n              dup3\n                /* \"#utility.yul\":3039:3058   */\n              mstore\n                /* \"#utility.yul\":3091:3095   */\n              0x20\n                /* \"#utility.yul\":3086:3089   */\n              dup3\n                /* \"#utility.yul\":3082:3096   */\n              add\n                /* \"#utility.yul\":3067:3096   */\n              swap1\n              pop\n                /* \"#utility.yul\":2918:3102   */\n              swap3\n              swap2\n              pop\n              pop\n              jump\t// out\n                /* \"#utility.yul\":3108:3240   */\n            tag_294:\n                /* \"#utility.yul\":3175:3179   */\n              0x00\n                /* \"#utility.yul\":3198:3201   */\n              dup2\n                /* \"#utility.yul\":3190:3201   */\n              swap1\n              pop\n                /* \"#utility.yul\":3228:3232   */\n              0x20\n                /* \"#utility.yul\":3223:3226   */\n              dup3\n                /* \"#utility.yul\":3219:3233   */\n              add\n                /* \"#utility.yul\":3211:3233   */\n              swap1\n              pop\n                /* \"#utility.yul\":3108:3240   */\n              swap2\n              swap1\n              pop\n              jump\t// out\n                /* \"#utility.yul\":3246:3354   */\n            tag_295:\n                /* \"#utility.yul\":3323:3347   */\n              tag_389\n                /* \"#utility.yul\":3341:3346   */\n              dup2\n                /* \"#utility.yul\":3323:3347   */\n              tag_281\n              jump\t// in\n            tag_389:\n                /* \"#utility.yul\":3318:3321   */\n              dup3\n                /* \"#utility.yul\":3311:3348   */\n              mstore\n                /* \"#utility.yul\":3246:3354   */\n              pop\n              pop\n              jump\t// out\n                /* \"#utility.yul\":3360:3539   */\n            tag_296:\n                /* \"#utility.yul\":3429:3439   */\n              0x00\n                /* \"#utility.yul\":3450:3496   */\n              tag_391\n                /* \"#utility.yul\":3492:3495   */\n              dup4\n                /* \"#utility.yul\":3484:3490   */\n              dup4\n                /* \"#utility.yul\":3450:3496   */\n              tag_295\n              jump\t// in\n            tag_391:\n                /* \"#utility.yul\":3528:3532   */\n              0x20\n                /* \"#utility.yul\":3523:3526   */\n              dup4\n                /* \"#utility.yul\":3519:3533   */\n              add\n                /* \"#utility.yul\":3505:3533   */\n              swap1\n              pop\n                /* \"#utility.yul\":3360:3539   */\n              swap3\n              swap2\n              pop\n              pop\n              jump\t// out\n                /* \"#utility.yul\":3545:3658   */\n            tag_297:\n                /* \"#utility.yul\":3615:3619   */\n              0x00\n                /* \"#utility.yul\":3647:3651   */\n              0x20\n                /* \"#utility.yul\":3642:3645   */\n              dup3\n                /* \"#utility.yul\":3638:3652   */\n              add\n                /* \"#utility.yul\":3630:3652   */\n              swap1\n              pop\n                /* \"#utility.yul\":3545:3658   */\n              swap2\n              swap1\n              pop\n              jump\t// out\n                /* \"#utility.yul\":3694:4426   */\n            tag_298:\n                /* \"#utility.yul\":3813:3816   */\n              0x00\n                /* \"#utility.yul\":3842:3896   */\n              tag_394\n                /* \"#utility.yul\":3890:3895   */\n              dup3\n                /* \"#utility.yul\":3842:3896   */\n              tag_292\n              jump\t// in\n            tag_394:\n                /* \"#utility.yul\":3912:3998   */\n              tag_395\n                /* \"#utility.yul\":3991:3997   */\n              dup2\n                /* \"#utility.yul\":3986:3989   */\n              dup6\n                /* \"#utility.yul\":3912:3998   */\n              tag_293\n              jump\t// in\n            tag_395:\n                /* \"#utility.yul\":3905:3998   */\n              swap4\n              pop\n                /* \"#utility.yul\":4022:4078   */\n              tag_396\n                /* \"#utility.yul\":4072:4077   */\n              dup4\n                /* \"#utility.yul\":4022:4078   */\n              tag_294\n              jump\t// in\n            tag_396:\n                /* \"#utility.yul\":4101:4108   */\n              dup1\n                /* \"#utility.yul\":4132:4133   */\n              0x00\n                /* \"#utility.yul\":4117:4401   */\n            tag_397:\n                /* \"#utility.yul\":4142:4148   */\n              dup4\n                /* \"#utility.yul\":4139:4140   */\n              dup2\n                /* \"#utility.yul\":4136:4149   */\n              lt\n                /* \"#utility.yul\":4117:4401   */\n              iszero\n              tag_399\n              jumpi\n                /* \"#utility.yul\":4218:4224   */\n              dup2\n                /* \"#utility.yul\":4212:4225   */\n              mload\n                /* \"#utility.yul\":4245:4308   */\n              tag_400\n                /* \"#utility.yul\":4304:4307   */\n              dup9\n                /* \"#utility.yul\":4289:4302   */\n              dup3\n                /* \"#utility.yul\":4245:4308   */\n              tag_296\n              jump\t// in\n            tag_400:\n                /* \"#utility.yul\":4238:4308   */\n              swap8\n              pop\n                /* \"#utility.yul\":4331:4391   */\n              tag_401\n                /* \"#utility.yul\":4384:4390   */\n              dup4\n                /* \"#utility.yul\":4331:4391   */\n              tag_297\n              jump\t// in\n            tag_401:\n                /* \"#utility.yul\":4321:4391   */\n              swap3\n              pop\n                /* \"#utility.yul\":4177:4401   */\n              pop\n                /* \"#utility.yul\":4164:4165   */\n              0x01\n                /* \"#utility.yul\":4161:4162   */\n              dup2\n                /* \"#utility.yul\":4157:4166   */\n              add\n                /* \"#utility.yul\":4152:4166   */\n              swap1\n              pop\n                /* \"#utility.yul\":4117:4401   */\n              jump(tag_397)\n            tag_399:\n                /* \"#utility.yul\":4121:4135   */\n              pop\n                /* \"#utility.yul\":4417:4420   */\n              dup6\n                /* \"#utility.yul\":4410:4420   */\n              swap4\n              pop\n                /* \"#utility.yul\":3818:4426   */\n              pop\n              pop\n              pop\n                /* \"#utility.yul\":3694:4426   */\n              swap3\n              swap2\n              pop\n              pop\n              jump\t// out\n                /* \"#utility.yul\":4432:4509   */\n            tag_299:\n                /* \"#utility.yul\":4469:4476   */\n              0x00\n                /* \"#utility.yul\":4498:4503   */\n              dup2\n                /* \"#utility.yul\":4487:4503   */\n              swap1\n              pop\n                /* \"#utility.yul\":4432:4509   */\n              swap2\n              swap1\n              pop\n              jump\t// out\n                /* \"#utility.yul\":4515:4633   */\n            tag_300:\n                /* \"#utility.yul\":4602:4626   */\n              tag_404\n                /* \"#utility.yul\":4620:4625   */\n              dup2\n                /* \"#utility.yul\":4602:4626   */\n              tag_299\n              jump\t// in\n            tag_404:\n                /* \"#utility.yul\":4597:4600   */\n              dup3\n                /* \"#utility.yul\":4590:4627   */\n              mstore\n                /* \"#utility.yul\":4515:4633   */\n              pop\n              pop\n              jump\t// out\n                /* \"#utility.yul\":4639:6421   */\n            tag_37:\n                /* \"#utility.yul\":5138:5142   */\n              0x00\n                /* \"#utility.yul\":5176:5179   */\n              0x0140\n                /* \"#utility.yul\":5165:5174   */\n              dup3\n                /* \"#utility.yul\":5161:5180   */\n              add\n                /* \"#utility.yul\":5153:5180   */\n              swap1\n              pop\n                /* \"#utility.yul\":5190:5261   */\n              tag_406\n                /* \"#utility.yul\":5258:5259   */\n              0x00\n                /* \"#utility.yul\":5247:5256   */\n              dup4\n                /* \"#utility.yul\":5243:5260   */\n              add\n                /* \"#utility.yul\":5234:5240   */\n              dup14\n                /* \"#utility.yul\":5190:5261   */\n              tag_286\n              jump\t// in\n            tag_406:\n                /* \"#utility.yul\":5308:5317   */\n              dup2\n                /* \"#utility.yul\":5302:5306   */\n              dup2\n                /* \"#utility.yul\":5298:5318   */\n              sub\n                /* \"#utility.yul\":5293:5295   */\n              0x20\n                /* \"#utility.yul\":5282:5291   */\n              dup4\n                /* \"#utility.yul\":5278:5296   */\n              add\n                /* \"#utility.yul\":5271:5319   */\n              mstore\n                /* \"#utility.yul\":5336:5414   */\n              tag_407\n                /* \"#utility.yul\":5409:5413   */\n              dup2\n                /* \"#utility.yul\":5400:5406   */\n              dup13\n                /* \"#utility.yul\":5336:5414   */\n              tag_291\n              jump\t// in\n            tag_407:\n                /* \"#utility.yul\":5328:5414   */\n              swap1\n              pop\n                /* \"#utility.yul\":5461:5470   */\n              dup2\n                /* \"#utility.yul\":5455:5459   */\n              dup2\n                /* \"#utility.yul\":5451:5471   */\n              sub\n                /* \"#utility.yul\":5446:5448   */\n              0x40\n                /* \"#utility.yul\":5435:5444   */\n              dup4\n                /* \"#utility.yul\":5431:5449   */\n              add\n                /* \"#utility.yul\":5424:5472   */\n              mstore\n                /* \"#utility.yul\":5489:5567   */\n              tag_408\n                /* \"#utility.yul\":5562:5566   */\n              dup2\n                /* \"#utility.yul\":5553:5559   */\n              dup12\n                /* \"#utility.yul\":5489:5567   */\n              tag_291\n              jump\t// in\n            tag_408:\n                /* \"#utility.yul\":5481:5567   */\n              swap1\n              pop\n                /* \"#utility.yul\":5614:5623   */\n              dup2\n                /* \"#utility.yul\":5608:5612   */\n              dup2\n                /* \"#utility.yul\":5604:5624   */\n              sub\n                /* \"#utility.yul\":5599:5601   */\n              0x60\n                /* \"#utility.yul\":5588:5597   */\n              dup4\n                /* \"#utility.yul\":5584:5602   */\n              add\n                /* \"#utility.yul\":5577:5625   */\n              mstore\n                /* \"#utility.yul\":5642:5720   */\n              tag_409\n                /* \"#utility.yul\":5715:5719   */\n              dup2\n                /* \"#utility.yul\":5706:5712   */\n              dup11\n                /* \"#utility.yul\":5642:5720   */\n              tag_291\n              jump\t// in\n            tag_409:\n                /* \"#utility.yul\":5634:5720   */\n              swap1\n              pop\n                /* \"#utility.yul\":5768:5777   */\n              dup2\n                /* \"#utility.yul\":5762:5766   */\n              dup2\n                /* \"#utility.yul\":5758:5778   */\n              sub\n                /* \"#utility.yul\":5752:5755   */\n              0x80\n                /* \"#utility.yul\":5741:5750   */\n              dup4\n                /* \"#utility.yul\":5737:5756   */\n              add\n                /* \"#utility.yul\":5730:5779   */\n              mstore\n                /* \"#utility.yul\":5796:5904   */\n              tag_410\n                /* \"#utility.yul\":5899:5903   */\n              dup2\n                /* \"#utility.yul\":5890:5896   */\n              dup10\n                /* \"#utility.yul\":5796:5904   */\n              tag_298\n              jump\t// in\n            tag_410:\n                /* \"#utility.yul\":5788:5904   */\n              swap1\n              pop\n                /* \"#utility.yul\":5952:5961   */\n              dup2\n                /* \"#utility.yul\":5946:5950   */\n              dup2\n                /* \"#utility.yul\":5942:5962   */\n              sub\n                /* \"#utility.yul\":5936:5939   */\n              0xa0\n                /* \"#utility.yul\":5925:5934   */\n              dup4\n                /* \"#utility.yul\":5921:5940   */\n              add\n                /* \"#utility.yul\":5914:5963   */\n              mstore\n                /* \"#utility.yul\":5980:6088   */\n              tag_411\n                /* \"#utility.yul\":6083:6087   */\n              dup2\n                /* \"#utility.yul\":6074:6080   */\n              dup9\n                /* \"#utility.yul\":5980:6088   */\n              tag_298\n              jump\t// in\n            tag_411:\n                /* \"#utility.yul\":5972:6088   */\n              swap1\n              pop\n                /* \"#utility.yul\":6098:6171   */\n              tag_412\n                /* \"#utility.yul\":6166:6169   */\n              0xc0\n                /* \"#utility.yul\":6155:6164   */\n              dup4\n                /* \"#utility.yul\":6151:6170   */\n              add\n                /* \"#utility.yul\":6142:6148   */\n              dup8\n                /* \"#utility.yul\":6098:6171   */\n              tag_300\n              jump\t// in\n            tag_412:\n                /* \"#utility.yul\":6181:6254   */\n              tag_413\n                /* \"#utility.yul\":6249:6252   */\n              0xe0\n                /* \"#utility.yul\":6238:6247   */\n              dup4\n                /* \"#utility.yul\":6234:6253   */\n              add\n                /* \"#utility.yul\":6225:6231   */\n              dup7\n                /* \"#utility.yul\":6181:6254   */\n              tag_300\n              jump\t// in\n            tag_413:\n                /* \"#utility.yul\":6264:6331   */\n              tag_414\n                /* \"#utility.yul\":6326:6329   */\n              0x0100\n                /* \"#utility.yul\":6315:6324   */\n              dup4\n                /* \"#utility.yul\":6311:6330   */\n              add\n                /* \"#utility.yul\":6302:6308   */\n              dup6\n                /* \"#utility.yul\":6264:6331   */\n              tag_285\n              jump\t// in\n            tag_414:\n                /* \"#utility.yul\":6341:6414   */\n              tag_415\n                /* \"#utility.yul\":6409:6412   */\n              0x0120\n                /* \"#utility.yul\":6398:6407   */\n              dup4\n                /* \"#utility.yul\":6394:6413   */\n              add\n                /* \"#utility.yul\":6385:6391   */\n              dup5\n                /* \"#utility.yul\":6341:6414   */\n              tag_300\n              jump\t// in\n            tag_415:\n                /* \"#utility.yul\":4639:6421   */\n              swap12\n              swap11\n              pop\n              pop\n              pop\n              pop\n              pop\n              pop\n              pop\n              pop\n              pop\n              pop\n              pop\n              jump\t// out\n                /* \"#utility.yul\":6427:6549   */\n            tag_301:\n                /* \"#utility.yul\":6500:6524   */\n              tag_417\n                /* \"#utility.yul\":6518:6523   */\n              dup2\n                /* \"#utility.yul\":6500:6524   */\n              tag_299\n              jump\t// in\n            tag_417:\n                /* \"#utility.yul\":6493:6498   */\n              dup2\n                /* \"#utility.yul\":6490:6525   */\n              eq\n                /* \"#utility.yul\":6480:6543   */\n              tag_418\n              jumpi\n                /* \"#utility.yul\":6539:6540   */\n              0x00\n                /* \"#utility.yul\":6536:6537   */\n              dup1\n                /* \"#utility.yul\":6529:6541   */\n              revert\n                /* \"#utility.yul\":6480:6543   */\n            tag_418:\n                /* \"#utility.yul\":6427:6549   */\n              pop\n              jump\t// out\n                /* \"#utility.yul\":6555:6694   */\n            tag_302:\n                /* \"#utility.yul\":6601:6606   */\n              0x00\n                /* \"#utility.yul\":6639:6645   */\n              dup2\n                /* \"#utility.yul\":6626:6646   */\n              calldataload\n                /* \"#utility.yul\":6617:6646   */\n              swap1\n              pop\n                /* \"#utility.yul\":6655:6688   */\n              tag_420\n                /* \"#utility.yul\":6682:6687   */\n              dup2\n                /* \"#utility.yul\":6655:6688   */\n              tag_301\n              jump\t// in\n            tag_420:\n                /* \"#utility.yul\":6555:6694   */\n              swap3\n              swap2\n              pop\n              pop\n              jump\t// out\n                /* \"#utility.yul\":6700:7029   */\n            tag_49:\n                /* \"#utility.yul\":6759:6765   */\n              0x00\n                /* \"#utility.yul\":6808:6810   */\n              0x20\n                /* \"#utility.yul\":6796:6805   */\n              dup3\n                /* \"#utility.yul\":6787:6794   */\n              dup5\n                /* \"#utility.yul\":6783:6806   */\n              sub\n                /* \"#utility.yul\":6779:6811   */\n              slt\n                /* \"#utility.yul\":6776:6895   */\n              iszero\n              tag_422\n              jumpi\n                /* \"#utility.yul\":6814:6893   */\n              tag_423\n              tag_278\n              jump\t// in\n            tag_423:\n                /* \"#utility.yul\":6776:6895   */\n            tag_422:\n                /* \"#utility.yul\":6934:6935   */\n              0x00\n                /* \"#utility.yul\":6959:7012   */\n              tag_424\n                /* \"#utility.yul\":7004:7011   */\n              dup5\n                /* \"#utility.yul\":6995:7001   */\n              dup3\n                /* \"#utility.yul\":6984:6993   */\n              dup6\n                /* \"#utility.yul\":6980:7002   */\n              add\n                /* \"#utility.yul\":6959:7012   */\n              tag_302\n              jump\t// in\n            tag_424:\n                /* \"#utility.yul\":6949:7012   */\n              swap2\n              pop\n                /* \"#utility.yul\":6905:7022   */\n              pop\n                /* \"#utility.yul\":6700:7029   */\n              swap3\n              swap2\n              pop\n              pop\n              jump\t// out\n                /* \"#utility.yul\":7035:7778   */\n            tag_52:\n                /* \"#utility.yul\":7254:7258   */\n              0x00\n                /* \"#utility.yul\":7292:7295   */\n              0xa0\n                /* \"#utility.yul\":7281:7290   */\n              dup3\n                /* \"#utility.yul\":7277:7296   */\n              add\n                /* \"#utility.yul\":7269:7296   */\n              swap1\n              pop\n                /* \"#utility.yul\":7342:7351   */\n              dup2\n                /* \"#utility.yul\":7336:7340   */\n              dup2\n                /* \"#utility.yul\":7332:7352   */\n              sub\n                /* \"#utility.yul\":7328:7329   */\n              0x00\n                /* \"#utility.yul\":7317:7326   */\n              dup4\n                /* \"#utility.yul\":7313:7330   */\n              add\n                /* \"#utility.yul\":7306:7353   */\n              mstore\n                /* \"#utility.yul\":7370:7448   */\n              tag_426\n                /* \"#utility.yul\":7443:7447   */\n              dup2\n                /* \"#utility.yul\":7434:7440   */\n              dup9\n                /* \"#utility.yul\":7370:7448   */\n              tag_291\n              jump\t// in\n            tag_426:\n                /* \"#utility.yul\":7362:7448   */\n              swap1\n              pop\n                /* \"#utility.yul\":7458:7530   */\n              tag_427\n                /* \"#utility.yul\":7526:7528   */\n              0x20\n                /* \"#utility.yul\":7515:7524   */\n              dup4\n                /* \"#utility.yul\":7511:7529   */\n              add\n                /* \"#utility.yul\":7502:7508   */\n              dup8\n                /* \"#utility.yul\":7458:7530   */\n              tag_300\n              jump\t// in\n            tag_427:\n                /* \"#utility.yul\":7540:7612   */\n              tag_428\n                /* \"#utility.yul\":7608:7610   */\n              0x40\n                /* \"#utility.yul\":7597:7606   */\n              dup4\n                /* \"#utility.yul\":7593:7611   */\n              add\n                /* \"#utility.yul\":7584:7590   */\n              dup7\n                /* \"#utility.yul\":7540:7612   */\n              tag_286\n              jump\t// in\n            tag_428:\n                /* \"#utility.yul\":7622:7694   */\n              tag_429\n                /* \"#utility.yul\":7690:7692   */\n              0x60\n                /* \"#utility.yul\":7679:7688   */\n              dup4\n                /* \"#utility.yul\":7675:7693   */\n              add\n                /* \"#utility.yul\":7666:7672   */\n              dup6\n                /* \"#utility.yul\":7622:7694   */\n              tag_300\n              jump\t// in\n            tag_429:\n                /* \"#utility.yul\":7704:7771   */\n              tag_430\n                /* \"#utility.yul\":7766:7769   */\n              0x80\n                /* \"#utility.yul\":7755:7764   */\n              dup4\n                /* \"#utility.yul\":7751:7770   */\n              add\n                /* \"#utility.yul\":7742:7748   */\n              dup5\n                /* \"#utility.yul\":7704:7771   */\n              tag_285\n              jump\t// in\n            tag_430:\n                /* \"#utility.yul\":7035:7778   */\n              swap7\n              swap6\n              pop\n              pop\n              pop\n              pop\n              pop\n              pop\n              jump\t// out\n                /* \"#utility.yul\":7784:7901   */\n            tag_303:\n                /* \"#utility.yul\":7893:7894   */\n              0x00\n                /* \"#utility.yul\":7890:7891   */\n              dup1\n                /* \"#utility.yul\":7883:7895   */\n              revert\n                /* \"#utility.yul\":7907:8024   */\n            tag_304:\n                /* \"#utility.yul\":8016:8017   */\n              0x00\n                /* \"#utility.yul\":8013:8014   */\n              dup1\n                /* \"#utility.yul\":8006:8018   */\n              revert\n                /* \"#utility.yul\":8030:8210   */\n            tag_305:\n                /* \"#utility.yul\":8078:8155   */\n              0x4e487b7100000000000000000000000000000000000000000000000000000000\n                /* \"#utility.yul\":8075:8076   */\n              0x00\n                /* \"#utility.yul\":8068:8156   */\n              mstore\n                /* \"#utility.yul\":8175:8179   */\n              0x41\n                /* \"#utility.yul\":8172:8173   */\n              0x04\n                /* \"#utility.yul\":8165:8180   */\n              mstore\n                /* \"#utility.yul\":8199:8203   */\n              0x24\n                /* \"#utility.yul\":8196:8197   */\n              0x00\n                /* \"#utility.yul\":8189:8204   */\n              revert\n                /* \"#utility.yul\":8216:8497   */\n            tag_306:\n                /* \"#utility.yul\":8299:8326   */\n              tag_435\n                /* \"#utility.yul\":8321:8325   */\n              dup3\n                /* \"#utility.yul\":8299:8326   */\n              tag_290\n              jump\t// in\n            tag_435:\n                /* \"#utility.yul\":8291:8297   */\n              dup2\n                /* \"#utility.yul\":8287:8327   */\n              add\n                /* \"#utility.yul\":8429:8435   */\n              dup2\n                /* \"#utility.yul\":8417:8427   */\n              dup2\n                /* \"#utility.yul\":8414:8436   */\n              lt\n                /* \"#utility.yul\":8393:8411   */\n              0xffffffffffffffff\n                /* \"#utility.yul\":8381:8391   */\n              dup3\n                /* \"#utility.yul\":8378:8412   */\n              gt\n                /* \"#utility.yul\":8375:8437   */\n              or\n                /* \"#utility.yul\":8372:8460   */\n              iszero\n              tag_436\n              jumpi\n                /* \"#utility.yul\":8440:8458   */\n              tag_437\n              tag_305\n              jump\t// in\n            tag_437:\n                /* \"#utility.yul\":8372:8460   */\n            tag_436:\n                /* \"#utility.yul\":8480:8490   */\n              dup1\n                /* \"#utility.yul\":8476:8478   */\n              0x40\n                /* \"#utility.yul\":8469:8491   */\n              mstore\n                /* \"#utility.yul\":8259:8497   */\n              pop\n                /* \"#utility.yul\":8216:8497   */\n              pop\n              pop\n              jump\t// out\n                /* \"#utility.yul\":8503:8632   */\n            tag_307:\n                /* \"#utility.yul\":8537:8543   */\n              0x00\n                /* \"#utility.yul\":8564:8584   */\n              tag_439\n              tag_277\n              jump\t// in\n            tag_439:\n                /* \"#utility.yul\":8554:8584   */\n              swap1\n              pop\n                /* \"#utility.yul\":8593:8626   */\n              tag_440\n                /* \"#utility.yul\":8621:8625   */\n              dup3\n                /* \"#utility.yul\":8613:8619   */\n              dup3\n                /* \"#utility.yul\":8593:8626   */\n              tag_306\n              jump\t// in\n            tag_440:\n                /* \"#utility.yul\":8503:8632   */\n              swap2\n              swap1\n              pop\n              jump\t// out\n                /* \"#utility.yul\":8638:8946   */\n            tag_308:\n                /* \"#utility.yul\":8700:8704   */\n              0x00\n                /* \"#utility.yul\":8790:8808   */\n              0xffffffffffffffff\n                /* \"#utility.yul\":8782:8788   */\n              dup3\n                /* \"#utility.yul\":8779:8809   */\n              gt\n                /* \"#utility.yul\":8776:8832   */\n              iszero\n              tag_442\n              jumpi\n                /* \"#utility.yul\":8812:8830   */\n              tag_443\n              tag_305\n              jump\t// in\n            tag_443:\n                /* \"#utility.yul\":8776:8832   */\n            tag_442:\n                /* \"#utility.yul\":8850:8879   */\n              tag_444\n                /* \"#utility.yul\":8872:8878   */\n              dup3\n                /* \"#utility.yul\":8850:8879   */\n              tag_290\n              jump\t// in\n            tag_444:\n                /* \"#utility.yul\":8842:8879   */\n              swap1\n              pop\n                /* \"#utility.yul\":8934:8938   */\n              0x20\n                /* \"#utility.yul\":8928:8932   */\n              dup2\n                /* \"#utility.yul\":8924:8939   */\n              add\n                /* \"#utility.yul\":8916:8939   */\n              swap1\n              pop\n                /* \"#utility.yul\":8638:8946   */\n              swap2\n              swap1\n              pop\n              jump\t// out\n                /* \"#utility.yul\":8952:9106   */\n            tag_309:\n                /* \"#utility.yul\":9036:9042   */\n              dup3\n                /* \"#utility.yul\":9031:9034   */\n              dup2\n                /* \"#utility.yul\":9026:9029   */\n              dup4\n                /* \"#utility.yul\":9013:9043   */\n              calldatacopy\n                /* \"#utility.yul\":9098:9099   */\n              0x00\n                /* \"#utility.yul\":9089:9095   */\n              dup4\n                /* \"#utility.yul\":9084:9087   */\n              dup4\n                /* \"#utility.yul\":9080:9096   */\n              add\n                /* \"#utility.yul\":9073:9100   */\n              mstore\n                /* \"#utility.yul\":8952:9106   */\n              pop\n              pop\n              pop\n              jump\t// out\n                /* \"#utility.yul\":9112:9524   */\n            tag_310:\n                /* \"#utility.yul\":9190:9195   */\n              0x00\n                /* \"#utility.yul\":9215:9281   */\n              tag_447\n                /* \"#utility.yul\":9231:9280   */\n              tag_448\n                /* \"#utility.yul\":9273:9279   */\n              dup5\n                /* \"#utility.yul\":9231:9280   */\n              tag_308\n              jump\t// in\n            tag_448:\n                /* \"#utility.yul\":9215:9281   */\n              tag_307\n              jump\t// in\n            tag_447:\n                /* \"#utility.yul\":9206:9281   */\n              swap1\n              pop\n                /* \"#utility.yul\":9304:9310   */\n              dup3\n                /* \"#utility.yul\":9297:9302   */\n              dup2\n                /* \"#utility.yul\":9290:9311   */\n              mstore\n                /* \"#utility.yul\":9342:9346   */\n              0x20\n                /* \"#utility.yul\":9335:9340   */\n              dup2\n                /* \"#utility.yul\":9331:9347   */\n              add\n                /* \"#utility.yul\":9380:9383   */\n              dup5\n                /* \"#utility.yul\":9371:9377   */\n              dup5\n                /* \"#utility.yul\":9366:9369   */\n              dup5\n                /* \"#utility.yul\":9362:9378   */\n              add\n                /* \"#utility.yul\":9359:9384   */\n              gt\n                /* \"#utility.yul\":9356:9468   */\n              iszero\n              tag_449\n              jumpi\n                /* \"#utility.yul\":9387:9466   */\n              tag_450\n              tag_304\n              jump\t// in\n            tag_450:\n                /* \"#utility.yul\":9356:9468   */\n            tag_449:\n                /* \"#utility.yul\":9477:9518   */\n              tag_451\n                /* \"#utility.yul\":9511:9517   */\n              dup5\n                /* \"#utility.yul\":9506:9509   */\n              dup3\n                /* \"#utility.yul\":9501:9504   */\n              dup6\n                /* \"#utility.yul\":9477:9518   */\n              tag_309\n              jump\t// in\n            tag_451:\n                /* \"#utility.yul\":9196:9524   */\n              pop\n                /* \"#utility.yul\":9112:9524   */\n              swap4\n              swap3\n              pop\n              pop\n              pop\n              jump\t// out\n                /* \"#utility.yul\":9544:9884   */\n            tag_311:\n                /* \"#utility.yul\":9600:9605   */\n              0x00\n                /* \"#utility.yul\":9649:9652   */\n              dup3\n                /* \"#utility.yul\":9642:9646   */\n              0x1f\n                /* \"#utility.yul\":9634:9640   */\n              dup4\n                /* \"#utility.yul\":9630:9647   */\n              add\n                /* \"#utility.yul\":9626:9653   */\n              slt\n                /* \"#utility.yul\":9616:9738   */\n              tag_453\n              jumpi\n                /* \"#utility.yul\":9657:9736   */\n              tag_454\n              tag_303\n              jump\t// in\n            tag_454:\n                /* \"#utility.yul\":9616:9738   */\n            tag_453:\n                /* \"#utility.yul\":9774:9780   */\n              dup2\n                /* \"#utility.yul\":9761:9781   */\n              calldataload\n                /* \"#utility.yul\":9799:9878   */\n              tag_455\n                /* \"#utility.yul\":9874:9877   */\n              dup5\n                /* \"#utility.yul\":9866:9872   */\n              dup3\n                /* \"#utility.yul\":9859:9863   */\n              0x20\n                /* \"#utility.yul\":9851:9857   */\n              dup7\n                /* \"#utility.yul\":9847:9864   */\n              add\n                /* \"#utility.yul\":9799:9878   */\n              tag_310\n              jump\t// in\n            tag_455:\n                /* \"#utility.yul\":9790:9878   */\n              swap2\n              pop\n                /* \"#utility.yul\":9606:9884   */\n              pop\n                /* \"#utility.yul\":9544:9884   */\n              swap3\n              swap2\n              pop\n              pop\n              jump\t// out\n                /* \"#utility.yul\":9890:11015   */\n            tag_65:\n                /* \"#utility.yul\":9996:10002   */\n              0x00\n                /* \"#utility.yul\":10004:10010   */\n              dup1\n                /* \"#utility.yul\":10012:10018   */\n              0x00\n                /* \"#utility.yul\":10020:10026   */\n              dup1\n                /* \"#utility.yul\":10069:10072   */\n              0x80\n                /* \"#utility.yul\":10057:10066   */\n              dup6\n                /* \"#utility.yul\":10048:10055   */\n              dup8\n                /* \"#utility.yul\":10044:10067   */\n              sub\n                /* \"#utility.yul\":10040:10073   */\n              slt\n                /* \"#utility.yul\":10037:10157   */\n              iszero\n              tag_457\n              jumpi\n                /* \"#utility.yul\":10076:10155   */\n              tag_458\n              tag_278\n              jump\t// in\n            tag_458:\n                /* \"#utility.yul\":10037:10157   */\n            tag_457:\n                /* \"#utility.yul\":10224:10225   */\n              0x00\n                /* \"#utility.yul\":10213:10222   */\n              dup6\n                /* \"#utility.yul\":10209:10226   */\n              add\n                /* \"#utility.yul\":10196:10227   */\n              calldataload\n                /* \"#utility.yul\":10254:10272   */\n              0xffffffffffffffff\n                /* \"#utility.yul\":10246:10252   */\n              dup2\n                /* \"#utility.yul\":10243:10273   */\n              gt\n                /* \"#utility.yul\":10240:10357   */\n              iszero\n              tag_459\n              jumpi\n                /* \"#utility.yul\":10276:10355   */\n              tag_460\n              tag_279\n              jump\t// in\n            tag_460:\n                /* \"#utility.yul\":10240:10357   */\n            tag_459:\n                /* \"#utility.yul\":10381:10444   */\n              tag_461\n                /* \"#utility.yul\":10436:10443   */\n              dup8\n                /* \"#utility.yul\":10427:10433   */\n              dup3\n                /* \"#utility.yul\":10416:10425   */\n              dup9\n                /* \"#utility.yul\":10412:10434   */\n              add\n                /* \"#utility.yul\":10381:10444   */\n              tag_311\n              jump\t// in\n            tag_461:\n                /* \"#utility.yul\":10371:10444   */\n              swap5\n              pop\n                /* \"#utility.yul\":10167:10454   */\n              pop\n                /* \"#utility.yul\":10521:10523   */\n              0x20\n                /* \"#utility.yul\":10510:10519   */\n              dup6\n                /* \"#utility.yul\":10506:10524   */\n              add\n                /* \"#utility.yul\":10493:10525   */\n              calldataload\n                /* \"#utility.yul\":10552:10570   */\n              0xffffffffffffffff\n                /* \"#utility.yul\":10544:10550   */\n              dup2\n                /* \"#utility.yul\":10541:10571   */\n              gt\n                /* \"#utility.yul\":10538:10655   */\n              iszero\n              tag_462\n              jumpi\n                /* \"#utility.yul\":10574:10653   */\n              tag_463\n              tag_279\n              jump\t// in\n            tag_463:\n                /* \"#utility.yul\":10538:10655   */\n            tag_462:\n                /* \"#utility.yul\":10679:10742   */\n              tag_464\n                /* \"#utility.yul\":10734:10741   */\n              dup8\n                /* \"#utility.yul\":10725:10731   */\n              dup3\n                /* \"#utility.yul\":10714:10723   */\n              dup9\n                /* \"#utility.yul\":10710:10732   */\n              add\n                /* \"#utility.yul\":10679:10742   */\n              tag_311\n              jump\t// in\n            tag_464:\n                /* \"#utility.yul\":10669:10742   */\n              swap4\n              pop\n                /* \"#utility.yul\":10464:10752   */\n              pop\n                /* \"#utility.yul\":10791:10793   */\n              0x40\n                /* \"#utility.yul\":10817:10870   */\n              tag_465\n                /* \"#utility.yul\":10862:10869   */\n              dup8\n                /* \"#utility.yul\":10853:10859   */\n              dup3\n                /* \"#utility.yul\":10842:10851   */\n              dup9\n                /* \"#utility.yul\":10838:10860   */\n              add\n                /* \"#utility.yul\":10817:10870   */\n              tag_283\n              jump\t// in\n            tag_465:\n                /* \"#utility.yul\":10807:10870   */\n              swap3\n              pop\n                /* \"#utility.yul\":10762:10880   */\n              pop\n                /* \"#utility.yul\":10919:10921   */\n              0x60\n                /* \"#utility.yul\":10945:10998   */\n              tag_466\n                /* \"#utility.yul\":10990:10997   */\n              dup8\n                /* \"#utility.yul\":10981:10987   */\n              dup3\n                /* \"#utility.yul\":10970:10979   */\n              dup9\n                /* \"#utility.yul\":10966:10988   */\n              add\n                /* \"#utility.yul\":10945:10998   */\n              tag_283\n              jump\t// in\n            tag_466:\n                /* \"#utility.yul\":10935:10998   */\n              swap2\n              pop\n                /* \"#utility.yul\":10890:11008   */\n              pop\n                /* \"#utility.yul\":9890:11015   */\n              swap3\n              swap6\n              swap2\n              swap5\n              pop\n              swap3\n              pop\n              jump\t// out\n                /* \"#utility.yul\":11021:11394   */\n            tag_71:\n                /* \"#utility.yul\":11164:11168   */\n              0x00\n                /* \"#utility.yul\":11202:11204   */\n              0x20\n                /* \"#utility.yul\":11191:11200   */\n              dup3\n                /* \"#utility.yul\":11187:11205   */\n              add\n                /* \"#utility.yul\":11179:11205   */\n              swap1\n              pop\n                /* \"#utility.yul\":11251:11260   */\n              dup2\n                /* \"#utility.yul\":11245:11249   */\n              dup2\n                /* \"#utility.yul\":11241:11261   */\n              sub\n                /* \"#utility.yul\":11237:11238   */\n              0x00\n                /* \"#utility.yul\":11226:11235   */\n              dup4\n                /* \"#utility.yul\":11222:11239   */\n              add\n                /* \"#utility.yul\":11215:11262   */\n              mstore\n                /* \"#utility.yul\":11279:11387   */\n              tag_468\n                /* \"#utility.yul\":11382:11386   */\n              dup2\n                /* \"#utility.yul\":11373:11379   */\n              dup5\n                /* \"#utility.yul\":11279:11387   */\n              tag_298\n              jump\t// in\n            tag_468:\n                /* \"#utility.yul\":11271:11387   */\n              swap1\n              pop\n                /* \"#utility.yul\":11021:11394   */\n              swap3\n              swap2\n              pop\n              pop\n              jump\t// out\n                /* \"#utility.yul\":11400:11622   */\n            tag_77:\n                /* \"#utility.yul\":11493:11497   */\n              0x00\n                /* \"#utility.yul\":11531:11533   */\n              0x20\n                /* \"#utility.yul\":11520:11529   */\n              dup3\n                /* \"#utility.yul\":11516:11534   */\n              add\n                /* \"#utility.yul\":11508:11534   */\n              swap1\n              pop\n                /* \"#utility.yul\":11544:11615   */\n              tag_470\n                /* \"#utility.yul\":11612:11613   */\n              0x00\n                /* \"#utility.yul\":11601:11610   */\n              dup4\n                /* \"#utility.yul\":11597:11614   */\n              add\n                /* \"#utility.yul\":11588:11594   */\n              dup5\n                /* \"#utility.yul\":11544:11615   */\n              tag_286\n              jump\t// in\n            tag_470:\n                /* \"#utility.yul\":11400:11622   */\n              swap3\n              swap2\n              pop\n              pop\n              jump\t// out\n                /* \"#utility.yul\":11628:12137   */\n            tag_88:\n                /* \"#utility.yul\":11697:11703   */\n              0x00\n                /* \"#utility.yul\":11746:11748   */\n              0x20\n                /* \"#utility.yul\":11734:11743   */\n              dup3\n                /* \"#utility.yul\":11725:11732   */\n              dup5\n                /* \"#utility.yul\":11721:11744   */\n              sub\n                /* \"#utility.yul\":11717:11749   */\n              slt\n                /* \"#utility.yul\":11714:11833   */\n              iszero\n              tag_472\n              jumpi\n                /* \"#utility.yul\":11752:11831   */\n              tag_473\n              tag_278\n              jump\t// in\n            tag_473:\n                /* \"#utility.yul\":11714:11833   */\n            tag_472:\n                /* \"#utility.yul\":11900:11901   */\n              0x00\n                /* \"#utility.yul\":11889:11898   */\n              dup3\n                /* \"#utility.yul\":11885:11902   */\n              add\n                /* \"#utility.yul\":11872:11903   */\n              calldataload\n                /* \"#utility.yul\":11930:11948   */\n              0xffffffffffffffff\n                /* \"#utility.yul\":11922:11928   */\n              dup2\n                /* \"#utility.yul\":11919:11949   */\n              gt\n                /* \"#utility.yul\":11916:12033   */\n              iszero\n              tag_474\n              jumpi\n                /* \"#utility.yul\":11952:12031   */\n              tag_475\n              tag_279\n              jump\t// in\n            tag_475:\n                /* \"#utility.yul\":11916:12033   */\n            tag_474:\n                /* \"#utility.yul\":12057:12120   */\n              tag_476\n                /* \"#utility.yul\":12112:12119   */\n              dup5\n                /* \"#utility.yul\":12103:12109   */\n              dup3\n                /* \"#utility.yul\":12092:12101   */\n              dup6\n                /* \"#utility.yul\":12088:12110   */\n              add\n                /* \"#utility.yul\":12057:12120   */\n              tag_311\n              jump\t// in\n            tag_476:\n                /* \"#utility.yul\":12047:12120   */\n              swap2\n              pop\n                /* \"#utility.yul\":11843:12130   */\n              pop\n                /* \"#utility.yul\":11628:12137   */\n              swap3\n              swap2\n              pop\n              pop\n              jump\t// out\n                /* \"#utility.yul\":12143:12307   */\n            tag_312:\n                /* \"#utility.yul\":12283:12299   */\n              0x5265656e7472616e742063616c6c000000000000000000000000000000000000\n                /* \"#utility.yul\":12279:12280   */\n              0x00\n                /* \"#utility.yul\":12271:12277   */\n              dup3\n                /* \"#utility.yul\":12267:12281   */\n              add\n                /* \"#utility.yul\":12260:12300   */\n              mstore\n                /* \"#utility.yul\":12143:12307   */\n              pop\n              jump\t// out\n                /* \"#utility.yul\":12313:12679   */\n            tag_313:\n                /* \"#utility.yul\":12455:12458   */\n              0x00\n                /* \"#utility.yul\":12476:12543   */\n              tag_479\n                /* \"#utility.yul\":12540:12542   */\n              0x0e\n                /* \"#utility.yul\":12535:12538   */\n              dup4\n                /* \"#utility.yul\":12476:12543   */\n              tag_288\n              jump\t// in\n            tag_479:\n                /* \"#utility.yul\":12469:12543   */\n              swap2\n              pop\n                /* \"#utility.yul\":12552:12645   */\n              tag_480\n                /* \"#utility.yul\":12641:12644   */\n              dup3\n                /* \"#utility.yul\":12552:12645   */\n              tag_312\n              jump\t// in\n            tag_480:\n                /* \"#utility.yul\":12670:12672   */\n              0x20\n                /* \"#utility.yul\":12665:12668   */\n              dup3\n                /* \"#utility.yul\":12661:12673   */\n              add\n                /* \"#utility.yul\":12654:12673   */\n              swap1\n              pop\n                /* \"#utility.yul\":12313:12679   */\n              swap2\n              swap1\n              pop\n              jump\t// out\n                /* \"#utility.yul\":12685:13104   */\n            tag_93:\n                /* \"#utility.yul\":12851:12855   */\n              0x00\n                /* \"#utility.yul\":12889:12891   */\n              0x20\n                /* \"#utility.yul\":12878:12887   */\n              dup3\n                /* \"#utility.yul\":12874:12892   */\n              add\n                /* \"#utility.yul\":12866:12892   */\n              swap1\n              pop\n                /* \"#utility.yul\":12938:12947   */\n              dup2\n                /* \"#utility.yul\":12932:12936   */\n              dup2\n                /* \"#utility.yul\":12928:12948   */\n              sub\n                /* \"#utility.yul\":12924:12925   */\n              0x00\n                /* \"#utility.yul\":12913:12922   */\n              dup4\n                /* \"#utility.yul\":12909:12926   */\n              add\n                /* \"#utility.yul\":12902:12949   */\n              mstore\n                /* \"#utility.yul\":12966:13097   */\n              tag_482\n                /* \"#utility.yul\":13092:13096   */\n              dup2\n                /* \"#utility.yul\":12966:13097   */\n              tag_313\n              jump\t// in\n            tag_482:\n                /* \"#utility.yul\":12958:13097   */\n              swap1\n              pop\n                /* \"#utility.yul\":12685:13104   */\n              swap2\n              swap1\n              pop\n              jump\t// out\n                /* \"#utility.yul\":13110:13288   */\n            tag_314:\n                /* \"#utility.yul\":13250:13280   */\n              0x546869732073746f727920686173206265656e207265706f7274656400000000\n                /* \"#utility.yul\":13246:13247   */\n              0x00\n                /* \"#utility.yul\":13238:13244   */\n              dup3\n                /* \"#utility.yul\":13234:13248   */\n              add\n                /* \"#utility.yul\":13227:13281   */\n              mstore\n                /* \"#utility.yul\":13110:13288   */\n              pop\n              jump\t// out\n                /* \"#utility.yul\":13294:13660   */\n            tag_315:\n                /* \"#utility.yul\":13436:13439   */\n              0x00\n                /* \"#utility.yul\":13457:13524   */\n              tag_485\n                /* \"#utility.yul\":13521:13523   */\n              0x1c\n                /* \"#utility.yul\":13516:13519   */\n              dup4\n                /* \"#utility.yul\":13457:13524   */\n              tag_288\n              jump\t// in\n            tag_485:\n                /* \"#utility.yul\":13450:13524   */\n              swap2\n              pop\n                /* \"#utility.yul\":13533:13626   */\n              tag_486\n                /* \"#utility.yul\":13622:13625   */\n              dup3\n                /* \"#utility.yul\":13533:13626   */\n              tag_314\n              jump\t// in\n            tag_486:\n                /* \"#utility.yul\":13651:13653   */\n              0x20\n                /* \"#utility.yul\":13646:13649   */\n              dup3\n                /* \"#utility.yul\":13642:13654   */\n              add\n                /* \"#utility.yul\":13635:13654   */\n              swap1\n              pop\n                /* \"#utility.yul\":13294:13660   */\n              swap2\n              swap1\n              pop\n              jump\t// out\n                /* \"#utility.yul\":13666:14085   */\n            tag_97:\n                /* \"#utility.yul\":13832:13836   */\n              0x00\n                /* \"#utility.yul\":13870:13872   */\n              0x20\n                /* \"#utility.yul\":13859:13868   */\n              dup3\n                /* \"#utility.yul\":13855:13873   */\n              add\n                /* \"#utility.yul\":13847:13873   */\n              swap1\n              pop\n                /* \"#utility.yul\":13919:13928   */\n              dup2\n                /* \"#utility.yul\":13913:13917   */\n              dup2\n                /* \"#utility.yul\":13909:13929   */\n              sub\n                /* \"#utility.yul\":13905:13906   */\n              0x00\n                /* \"#utility.yul\":13894:13903   */\n              dup4\n                /* \"#utility.yul\":13890:13907   */\n              add\n                /* \"#utility.yul\":13883:13930   */\n              mstore\n                /* \"#utility.yul\":13947:14078   */\n              tag_488\n                /* \"#utility.yul\":14073:14077   */\n              dup2\n                /* \"#utility.yul\":13947:14078   */\n              tag_315\n              jump\t// in\n            tag_488:\n                /* \"#utility.yul\":13939:14078   */\n              swap1\n              pop\n                /* \"#utility.yul\":13666:14085   */\n              swap2\n              swap1\n              pop\n              jump\t// out\n                /* \"#utility.yul\":14091:14313   */\n            tag_316:\n                /* \"#utility.yul\":14231:14265   */\n              0x596f752068617665207265706f7274656420746869732073746f727920626566\n                /* \"#utility.yul\":14227:14228   */\n              0x00\n                /* \"#utility.yul\":14219:14225   */\n              dup3\n                /* \"#utility.yul\":14215:14229   */\n              add\n                /* \"#utility.yul\":14208:14266   */\n              mstore\n                /* \"#utility.yul\":14300:14305   */\n              0x6f72650000000000000000000000000000000000000000000000000000000000\n                /* \"#utility.yul\":14295:14297   */\n              0x20\n                /* \"#utility.yul\":14287:14293   */\n              dup3\n                /* \"#utility.yul\":14283:14298   */\n              add\n                /* \"#utility.yul\":14276:14306   */\n              mstore\n                /* \"#utility.yul\":14091:14313   */\n              pop\n              jump\t// out\n                /* \"#utility.yul\":14319:14685   */\n            tag_317:\n                /* \"#utility.yul\":14461:14464   */\n              0x00\n                /* \"#utility.yul\":14482:14549   */\n              tag_491\n                /* \"#utility.yul\":14546:14548   */\n              0x23\n                /* \"#utility.yul\":14541:14544   */\n              dup4\n                /* \"#utility.yul\":14482:14549   */\n              tag_288\n              jump\t// in\n            tag_491:\n                /* \"#utility.yul\":14475:14549   */\n              swap2\n              pop\n                /* \"#utility.yul\":14558:14651   */\n              tag_492\n                /* \"#utility.yul\":14647:14650   */\n              dup3\n                /* \"#utility.yul\":14558:14651   */\n              tag_316\n              jump\t// in\n            tag_492:\n                /* \"#utility.yul\":14676:14678   */\n              0x40\n                /* \"#utility.yul\":14671:14674   */\n              dup3\n                /* \"#utility.yul\":14667:14679   */\n              add\n                /* \"#utility.yul\":14660:14679   */\n              swap1\n              pop\n                /* \"#utility.yul\":14319:14685   */\n              swap2\n              swap1\n              pop\n              jump\t// out\n                /* \"#utility.yul\":14691:15110   */\n            tag_100:\n                /* \"#utility.yul\":14857:14861   */\n              0x00\n                /* \"#utility.yul\":14895:14897   */\n              0x20\n                /* \"#utility.yul\":14884:14893   */\n              dup3\n                /* \"#utility.yul\":14880:14898   */\n              add\n                /* \"#utility.yul\":14872:14898   */\n              swap1\n              pop\n                /* \"#utility.yul\":14944:14953   */\n              dup2\n                /* \"#utility.yul\":14938:14942   */\n              dup2\n                /* \"#utility.yul\":14934:14954   */\n              sub\n                /* \"#utility.yul\":14930:14931   */\n              0x00\n                /* \"#utility.yul\":14919:14928   */\n              dup4\n                /* \"#utility.yul\":14915:14932   */\n              add\n                /* \"#utility.yul\":14908:14955   */\n              mstore\n                /* \"#utility.yul\":14972:15103   */\n              tag_494\n                /* \"#utility.yul\":15098:15102   */\n              dup2\n                /* \"#utility.yul\":14972:15103   */\n              tag_317\n              jump\t// in\n            tag_494:\n                /* \"#utility.yul\":14964:15103   */\n              swap1\n              pop\n                /* \"#utility.yul\":14691:15110   */\n              swap2\n              swap1\n              pop\n              jump\t// out\n                /* \"#utility.yul\":15116:15349   */\n            tag_318:\n                /* \"#utility.yul\":15256:15290   */\n              0x4f6e6c7920616e20617574686f72697a656420617574686f722063616e206469\n                /* \"#utility.yul\":15252:15253   */\n              0x00\n                /* \"#utility.yul\":15244:15250   */\n              dup3\n                /* \"#utility.yul\":15240:15254   */\n              add\n                /* \"#utility.yul\":15233:15291   */\n              mstore\n                /* \"#utility.yul\":15325:15341   */\n              0x7370656e73652072657761726473000000000000000000000000000000000000\n                /* \"#utility.yul\":15320:15322   */\n              0x20\n                /* \"#utility.yul\":15312:15318   */\n              dup3\n                /* \"#utility.yul\":15308:15323   */\n              add\n                /* \"#utility.yul\":15301:15342   */\n              mstore\n                /* \"#utility.yul\":15116:15349   */\n              pop\n              jump\t// out\n                /* \"#utility.yul\":15355:15721   */\n            tag_319:\n                /* \"#utility.yul\":15497:15500   */\n              0x00\n                /* \"#utility.yul\":15518:15585   */\n              tag_497\n                /* \"#utility.yul\":15582:15584   */\n              0x2e\n                /* \"#utility.yul\":15577:15580   */\n              dup4\n                /* \"#utility.yul\":15518:15585   */\n              tag_288\n              jump\t// in\n            tag_497:\n                /* \"#utility.yul\":15511:15585   */\n              swap2\n              pop\n                /* \"#utility.yul\":15594:15687   */\n              tag_498\n                /* \"#utility.yul\":15683:15686   */\n              dup3\n                /* \"#utility.yul\":15594:15687   */\n              tag_318\n              jump\t// in\n            tag_498:\n                /* \"#utility.yul\":15712:15714   */\n              0x40\n                /* \"#utility.yul\":15707:15710   */\n              dup3\n                /* \"#utility.yul\":15703:15715   */\n              add\n                /* \"#utility.yul\":15696:15715   */\n              swap1\n              pop\n                /* \"#utility.yul\":15355:15721   */\n              swap2\n              swap1\n              pop\n              jump\t// out\n                /* \"#utility.yul\":15727:16146   */\n            tag_110:\n                /* \"#utility.yul\":15893:15897   */\n              0x00\n                /* \"#utility.yul\":15931:15933   */\n              0x20\n                /* \"#utility.yul\":15920:15929   */\n              dup3\n                /* \"#utility.yul\":15916:15934   */\n              add\n                /* \"#utility.yul\":15908:15934   */\n              swap1\n              pop\n                /* \"#utility.yul\":15980:15989   */\n              dup2\n                /* \"#utility.yul\":15974:15978   */\n              dup2\n                /* \"#utility.yul\":15970:15990   */\n              sub\n                /* \"#utility.yul\":15966:15967   */\n              0x00\n                /* \"#utility.yul\":15955:15964   */\n              dup4\n                /* \"#utility.yul\":15951:15968   */\n              add\n                /* \"#utility.yul\":15944:15991   */\n              mstore\n                /* \"#utility.yul\":16008:16139   */\n              tag_500\n                /* \"#utility.yul\":16134:16138   */\n              dup2\n                /* \"#utility.yul\":16008:16139   */\n              tag_319\n              jump\t// in\n            tag_500:\n                /* \"#utility.yul\":16000:16139   */\n              swap1\n              pop\n                /* \"#utility.yul\":15727:16146   */\n              swap2\n              swap1\n              pop\n              jump\t// out\n                /* \"#utility.yul\":16152:16323   */\n            tag_320:\n                /* \"#utility.yul\":16292:16315   */\n              0x4e6f2072657761726420746f2064697370656e73650000000000000000000000\n                /* \"#utility.yul\":16288:16289   */\n              0x00\n                /* \"#utility.yul\":16280:16286   */\n              dup3\n                /* \"#utility.yul\":16276:16290   */\n              add\n                /* \"#utility.yul\":16269:16316   */\n              mstore\n                /* \"#utility.yul\":16152:16323   */\n              pop\n              jump\t// out\n                /* \"#utility.yul\":16329:16695   */\n            tag_321:\n                /* \"#utility.yul\":16471:16474   */\n              0x00\n                /* \"#utility.yul\":16492:16559   */\n              tag_503\n                /* \"#utility.yul\":16556:16558   */\n              0x15\n                /* \"#utility.yul\":16551:16554   */\n              dup4\n                /* \"#utility.yul\":16492:16559   */\n              tag_288\n              jump\t// in\n            tag_503:\n                /* \"#utility.yul\":16485:16559   */\n              swap2\n              pop\n                /* \"#utility.yul\":16568:16661   */\n              tag_504\n                /* \"#utility.yul\":16657:16660   */\n              dup3\n                /* \"#utility.yul\":16568:16661   */\n              tag_320\n              jump\t// in\n            tag_504:\n                /* \"#utility.yul\":16686:16688   */\n              0x20\n                /* \"#utility.yul\":16681:16684   */\n              dup3\n                /* \"#utility.yul\":16677:16689   */\n              add\n                /* \"#utility.yul\":16670:16689   */\n              swap1\n              pop\n                /* \"#utility.yul\":16329:16695   */\n              swap2\n              swap1\n              pop\n              jump\t// out\n                /* \"#utility.yul\":16701:17120   */\n            tag_115:\n                /* \"#utility.yul\":16867:16871   */\n              0x00\n                /* \"#utility.yul\":16905:16907   */\n              0x20\n                /* \"#utility.yul\":16894:16903   */\n              dup3\n                /* \"#utility.yul\":16890:16908   */\n              add\n                /* \"#utility.yul\":16882:16908   */\n              swap1\n              pop\n                /* \"#utility.yul\":16954:16963   */\n              dup2\n                /* \"#utility.yul\":16948:16952   */\n              dup2\n                /* \"#utility.yul\":16944:16964   */\n              sub\n                /* \"#utility.yul\":16940:16941   */\n              0x00\n                /* \"#utility.yul\":16929:16938   */\n              dup4\n                /* \"#utility.yul\":16925:16942   */\n              add\n                /* \"#utility.yul\":16918:16965   */\n              mstore\n                /* \"#utility.yul\":16982:17113   */\n              tag_506\n                /* \"#utility.yul\":17108:17112   */\n              dup2\n                /* \"#utility.yul\":16982:17113   */\n              tag_321\n              jump\t// in\n            tag_506:\n                /* \"#utility.yul\":16974:17113   */\n              swap1\n              pop\n                /* \"#utility.yul\":16701:17120   */\n              swap2\n              swap1\n              pop\n              jump\t// out\n                /* \"#utility.yul\":17126:17306   */\n            tag_121:\n                /* \"#utility.yul\":17174:17251   */\n              0x4e487b7100000000000000000000000000000000000000000000000000000000\n                /* \"#utility.yul\":17171:17172   */\n              0x00\n                /* \"#utility.yul\":17164:17252   */\n              mstore\n                /* \"#utility.yul\":17271:17275   */\n              0x32\n                /* \"#utility.yul\":17268:17269   */\n              0x04\n                /* \"#utility.yul\":17261:17276   */\n              mstore\n                /* \"#utility.yul\":17295:17299   */\n              0x24\n                /* \"#utility.yul\":17292:17293   */\n              0x00\n                /* \"#utility.yul\":17285:17300   */\n              revert\n                /* \"#utility.yul\":17312:17492   */\n            tag_322:\n                /* \"#utility.yul\":17360:17437   */\n              0x4e487b7100000000000000000000000000000000000000000000000000000000\n                /* \"#utility.yul\":17357:17358   */\n              0x00\n                /* \"#utility.yul\":17350:17438   */\n              mstore\n                /* \"#utility.yul\":17457:17461   */\n              0x11\n                /* \"#utility.yul\":17454:17455   */\n              0x04\n                /* \"#utility.yul\":17447:17462   */\n              mstore\n                /* \"#utility.yul\":17481:17485   */\n              0x24\n                /* \"#utility.yul\":17478:17479   */\n              0x00\n                /* \"#utility.yul\":17471:17486   */\n              revert\n                /* \"#utility.yul\":17498:17731   */\n            tag_126:\n                /* \"#utility.yul\":17537:17540   */\n              0x00\n                /* \"#utility.yul\":17560:17584   */\n              tag_510\n                /* \"#utility.yul\":17578:17583   */\n              dup3\n                /* \"#utility.yul\":17560:17584   */\n              tag_299\n              jump\t// in\n            tag_510:\n                /* \"#utility.yul\":17551:17584   */\n              swap2\n              pop\n                /* \"#utility.yul\":17606:17672   */\n              0xffffffffffffffffffffffffffffffffffffffffffffffffffffffffffffffff\n                /* \"#utility.yul\":17599:17604   */\n              dup3\n                /* \"#utility.yul\":17596:17673   */\n              eq\n                /* \"#utility.yul\":17593:17696   */\n              iszero\n              tag_511\n              jumpi\n                /* \"#utility.yul\":17676:17694   */\n              tag_512\n              tag_322\n              jump\t// in\n            tag_512:\n                /* \"#utility.yul\":17593:17696   */\n            tag_511:\n                /* \"#utility.yul\":17723:17724   */\n              0x01\n                /* \"#utility.yul\":17716:17721   */\n              dup3\n                /* \"#utility.yul\":17712:17725   */\n              add\n                /* \"#utility.yul\":17705:17725   */\n              swap1\n              pop\n                /* \"#utility.yul\":17498:17731   */\n              swap2\n              swap1\n              pop\n              jump\t// out\n                /* \"#utility.yul\":17737:17917   */\n            tag_323:\n                /* \"#utility.yul\":17785:17862   */\n              0x4e487b7100000000000000000000000000000000000000000000000000000000\n                /* \"#utility.yul\":17782:17783   */\n              0x00\n                /* \"#utility.yul\":17775:17863   */\n              mstore\n                /* \"#utility.yul\":17882:17886   */\n              0x22\n                /* \"#utility.yul\":17879:17880   */\n              0x04\n                /* \"#utility.yul\":17872:17887   */\n              mstore\n                /* \"#utility.yul\":17906:17910   */\n              0x24\n                /* \"#utility.yul\":17903:17904   */\n              0x00\n                /* \"#utility.yul\":17896:17911   */\n              revert\n                /* \"#utility.yul\":17923:18243   */\n            tag_129:\n                /* \"#utility.yul\":17967:17973   */\n              0x00\n                /* \"#utility.yul\":18004:18005   */\n              0x02\n                /* \"#utility.yul\":17998:18002   */\n              dup3\n                /* \"#utility.yul\":17994:18006   */\n              div\n                /* \"#utility.yul\":17984:18006   */\n              swap1\n              pop\n                /* \"#utility.yul\":18051:18052   */\n              0x01\n                /* \"#utility.yul\":18045:18049   */\n              dup3\n                /* \"#utility.yul\":18041:18053   */\n              and\n                /* \"#utility.yul\":18072:18090   */\n              dup1\n                /* \"#utility.yul\":18062:18143   */\n              tag_515\n              jumpi\n                /* \"#utility.yul\":18128:18132   */\n              0x7f\n                /* \"#utility.yul\":18120:18126   */\n              dup3\n                /* \"#utility.yul\":18116:18133   */\n              and\n                /* \"#utility.yul\":18106:18133   */\n              swap2\n              pop\n                /* \"#utility.yul\":18062:18143   */\n            tag_515:\n                /* \"#utility.yul\":18190:18192   */\n              0x20\n                /* \"#utility.yul\":18182:18188   */\n              dup3\n                /* \"#utility.yul\":18179:18193   */\n              lt\n                /* \"#utility.yul\":18159:18177   */\n              dup2\n                /* \"#utility.yul\":18156:18194   */\n              eq\n                /* \"#utility.yul\":18153:18237   */\n              iszero\n              tag_516\n              jumpi\n                /* \"#utility.yul\":18209:18227   */\n              tag_517\n              tag_323\n              jump\t// in\n            tag_517:\n                /* \"#utility.yul\":18153:18237   */\n            tag_516:\n                /* \"#utility.yul\":17974:18243   */\n              pop\n                /* \"#utility.yul\":17923:18243   */\n              swap2\n              swap1\n              pop\n              jump\t// out\n                /* \"#utility.yul\":18249:18481   */\n            tag_324:\n                /* \"#utility.yul\":18389:18423   */\n              0x4f6e6c7920616e20616363657074656420617574686f722063616e2061707072\n                /* \"#utility.yul\":18385:18386   */\n              0x00\n                /* \"#utility.yul\":18377:18383   */\n              dup3\n                /* \"#utility.yul\":18373:18387   */\n              add\n                /* \"#utility.yul\":18366:18424   */\n              mstore\n                /* \"#utility.yul\":18458:18473   */\n              0x6f76652061207265717565737400000000000000000000000000000000000000\n                /* \"#utility.yul\":18453:18455   */\n              0x20\n                /* \"#utility.yul\":18445:18451   */\n              dup3\n                /* \"#utility.yul\":18441:18456   */\n              add\n                /* \"#utility.yul\":18434:18474   */\n              mstore\n                /* \"#utility.yul\":18249:18481   */\n              pop\n              jump\t// out\n                /* \"#utility.yul\":18487:18853   */\n            tag_325:\n                /* \"#utility.yul\":18629:18632   */\n              0x00\n                /* \"#utility.yul\":18650:18717   */\n              tag_520\n                /* \"#utility.yul\":18714:18716   */\n              0x2d\n                /* \"#utility.yul\":18709:18712   */\n              dup4\n                /* \"#utility.yul\":18650:18717   */\n              tag_288\n              jump\t// in\n            tag_520:\n                /* \"#utility.yul\":18643:18717   */\n              swap2\n              pop\n                /* \"#utility.yul\":18726:18819   */\n              tag_521\n                /* \"#utility.yul\":18815:18818   */\n              dup3\n                /* \"#utility.yul\":18726:18819   */\n              tag_324\n              jump\t// in\n            tag_521:\n                /* \"#utility.yul\":18844:18846   */\n              0x40\n                /* \"#utility.yul\":18839:18842   */\n              dup3\n                /* \"#utility.yul\":18835:18847   */\n              add\n                /* \"#utility.yul\":18828:18847   */\n              swap1\n              pop\n                /* \"#utility.yul\":18487:18853   */\n              swap2\n              swap1\n              pop\n              jump\t// out\n                /* \"#utility.yul\":18859:19278   */\n            tag_164:\n                /* \"#utility.yul\":19025:19029   */\n              0x00\n                /* \"#utility.yul\":19063:19065   */\n              0x20\n                /* \"#utility.yul\":19052:19061   */\n              dup3\n                /* \"#utility.yul\":19048:19066   */\n              add\n                /* \"#utility.yul\":19040:19066   */\n              swap1\n              pop\n                /* \"#utility.yul\":19112:19121   */\n              dup2\n                /* \"#utility.yul\":19106:19110   */\n              dup2\n                /* \"#utility.yul\":19102:19122   */\n              sub\n                /* \"#utility.yul\":19098:19099   */\n              0x00\n                /* \"#utility.yul\":19087:19096   */\n              dup4\n                /* \"#utility.yul\":19083:19100   */\n              add\n                /* \"#utility.yul\":19076:19123   */\n              mstore\n                /* \"#utility.yul\":19140:19271   */\n              tag_523\n                /* \"#utility.yul\":19266:19270   */\n              dup2\n                /* \"#utility.yul\":19140:19271   */\n              tag_325\n              jump\t// in\n            tag_523:\n                /* \"#utility.yul\":19132:19271   */\n              swap1\n              pop\n                /* \"#utility.yul\":18859:19278   */\n              swap2\n              swap1\n              pop\n              jump\t// out\n                /* \"#utility.yul\":19284:19453   */\n            tag_326:\n                /* \"#utility.yul\":19424:19445   */\n              0x496e646578206f7574206f6620626f756e647300000000000000000000000000\n                /* \"#utility.yul\":19420:19421   */\n              0x00\n                /* \"#utility.yul\":19412:19418   */\n              dup3\n                /* \"#utility.yul\":19408:19422   */\n              add\n                /* \"#utility.yul\":19401:19446   */\n              mstore\n                /* \"#utility.yul\":19284:19453   */\n              pop\n              jump\t// out\n                /* \"#utility.yul\":19459:19825   */\n            tag_327:\n                /* \"#utility.yul\":19601:19604   */\n              0x00\n                /* \"#utility.yul\":19622:19689   */\n              tag_526\n                /* \"#utility.yul\":19686:19688   */\n              0x13\n                /* \"#utility.yul\":19681:19684   */\n              dup4\n                /* \"#utility.yul\":19622:19689   */\n              tag_288\n              jump\t// in\n            tag_526:\n                /* \"#utility.yul\":19615:19689   */\n              swap2\n              pop\n                /* \"#utility.yul\":19698:19791   */\n              tag_527\n                /* \"#utility.yul\":19787:19790   */\n              dup3\n                /* \"#utility.yul\":19698:19791   */\n              tag_326\n              jump\t// in\n            tag_527:\n                /* \"#utility.yul\":19816:19818   */\n              0x20\n                /* \"#utility.yul\":19811:19814   */\n              dup3\n                /* \"#utility.yul\":19807:19819   */\n              add\n                /* \"#utility.yul\":19800:19819   */\n              swap1\n              pop\n                /* \"#utility.yul\":19459:19825   */\n              swap2\n              swap1\n              pop\n              jump\t// out\n                /* \"#utility.yul\":19831:20250   */\n            tag_168:\n                /* \"#utility.yul\":19997:20001   */\n              0x00\n                /* \"#utility.yul\":20035:20037   */\n              0x20\n                /* \"#utility.yul\":20024:20033   */\n              dup3\n                /* \"#utility.yul\":20020:20038   */\n              add\n                /* \"#utility.yul\":20012:20038   */\n              swap1\n              pop\n                /* \"#utility.yul\":20084:20093   */\n              dup2\n                /* \"#utility.yul\":20078:20082   */\n              dup2\n                /* \"#utility.yul\":20074:20094   */\n              sub\n                /* \"#utility.yul\":20070:20071   */\n              0x00\n                /* \"#utility.yul\":20059:20068   */\n              dup4\n                /* \"#utility.yul\":20055:20072   */\n              add\n                /* \"#utility.yul\":20048:20095   */\n              mstore\n                /* \"#utility.yul\":20112:20243   */\n              tag_529\n                /* \"#utility.yul\":20238:20242   */\n              dup2\n                /* \"#utility.yul\":20112:20243   */\n              tag_327\n              jump\t// in\n            tag_529:\n                /* \"#utility.yul\":20104:20243   */\n              swap1\n              pop\n                /* \"#utility.yul\":19831:20250   */\n              swap2\n              swap1\n              pop\n              jump\t// out\n                /* \"#utility.yul\":20256:20478   */\n            tag_328:\n                /* \"#utility.yul\":20396:20430   */\n              0x5468697320617574686f7220616c726561647920617070726f76656420626566\n                /* \"#utility.yul\":20392:20393   */\n              0x00\n                /* \"#utility.yul\":20384:20390   */\n              dup3\n                /* \"#utility.yul\":20380:20394   */\n              add\n                /* \"#utility.yul\":20373:20431   */\n              mstore\n                /* \"#utility.yul\":20465:20470   */\n              0x6f72650000000000000000000000000000000000000000000000000000000000\n                /* \"#utility.yul\":20460:20462   */\n              0x20\n                /* \"#utility.yul\":20452:20458   */\n              dup3\n                /* \"#utility.yul\":20448:20463   */\n              add\n                /* \"#utility.yul\":20441:20471   */\n              mstore\n                /* \"#utility.yul\":20256:20478   */\n              pop\n              jump\t// out\n                /* \"#utility.yul\":20484:20850   */\n            tag_329:\n                /* \"#utility.yul\":20626:20629   */\n              0x00\n                /* \"#utility.yul\":20647:20714   */\n              tag_532\n                /* \"#utility.yul\":20711:20713   */\n              0x23\n                /* \"#utility.yul\":20706:20709   */\n              dup4\n                /* \"#utility.yul\":20647:20714   */\n              tag_288\n              jump\t// in\n            tag_532:\n                /* \"#utility.yul\":20640:20714   */\n              swap2\n              pop\n                /* \"#utility.yul\":20723:20816   */\n              tag_533\n                /* \"#utility.yul\":20812:20815   */\n              dup3\n                /* \"#utility.yul\":20723:20816   */\n              tag_328\n              jump\t// in\n            tag_533:\n                /* \"#utility.yul\":20841:20843   */\n              0x40\n                /* \"#utility.yul\":20836:20839   */\n              dup3\n                /* \"#utility.yul\":20832:20844   */\n              add\n                /* \"#utility.yul\":20825:20844   */\n              swap1\n              pop\n                /* \"#utility.yul\":20484:20850   */\n              swap2\n              swap1\n              pop\n              jump\t// out\n                /* \"#utility.yul\":20856:21275   */\n            tag_174:\n                /* \"#utility.yul\":21022:21026   */\n              0x00\n                /* \"#utility.yul\":21060:21062   */\n              0x20\n                /* \"#utility.yul\":21049:21058   */\n              dup3\n                /* \"#utility.yul\":21045:21063   */\n              add\n                /* \"#utility.yul\":21037:21063   */\n              swap1\n              pop\n                /* \"#utility.yul\":21109:21118   */\n              dup2\n                /* \"#utility.yul\":21103:21107   */\n              dup2\n                /* \"#utility.yul\":21099:21119   */\n              sub\n                /* \"#utility.yul\":21095:21096   */\n              0x00\n                /* \"#utility.yul\":21084:21093   */\n              dup4\n                /* \"#utility.yul\":21080:21097   */\n              add\n                /* \"#utility.yul\":21073:21120   */\n              mstore\n                /* \"#utility.yul\":21137:21268   */\n              tag_535\n                /* \"#utility.yul\":21263:21267   */\n              dup2\n                /* \"#utility.yul\":21137:21268   */\n              tag_329\n              jump\t// in\n            tag_535:\n                /* \"#utility.yul\":21129:21268   */\n              swap1\n              pop\n                /* \"#utility.yul\":20856:21275   */\n              swap2\n              swap1\n              pop\n              jump\t// out\n                /* \"#utility.yul\":21281:21461   */\n            tag_330:\n                /* \"#utility.yul\":21329:21406   */\n              0x4e487b7100000000000000000000000000000000000000000000000000000000\n                /* \"#utility.yul\":21326:21327   */\n              0x00\n                /* \"#utility.yul\":21319:21407   */\n              mstore\n                /* \"#utility.yul\":21426:21430   */\n              0x12\n                /* \"#utility.yul\":21423:21424   */\n              0x04\n                /* \"#utility.yul\":21416:21431   */\n              mstore\n                /* \"#utility.yul\":21450:21454   */\n              0x24\n                /* \"#utility.yul\":21447:21448   */\n              0x00\n                /* \"#utility.yul\":21440:21455   */\n              revert\n                /* \"#utility.yul\":21467:21652   */\n            tag_177:\n                /* \"#utility.yul\":21507:21508   */\n              0x00\n                /* \"#utility.yul\":21524:21544   */\n              tag_538\n                /* \"#utility.yul\":21542:21543   */\n              dup3\n                /* \"#utility.yul\":21524:21544   */\n              tag_299\n              jump\t// in\n            tag_538:\n                /* \"#utility.yul\":21519:21544   */\n              swap2\n              pop\n                /* \"#utility.yul\":21558:21578   */\n              tag_539\n                /* \"#utility.yul\":21576:21577   */\n              dup4\n                /* \"#utility.yul\":21558:21578   */\n              tag_299\n              jump\t// in\n            tag_539:\n                /* \"#utility.yul\":21553:21578   */\n              swap3\n              pop\n                /* \"#utility.yul\":21597:21598   */\n              dup3\n                /* \"#utility.yul\":21587:21622   */\n              tag_540\n              jumpi\n                /* \"#utility.yul\":21602:21620   */\n              tag_541\n              tag_330\n              jump\t// in\n            tag_541:\n                /* \"#utility.yul\":21587:21622   */\n            tag_540:\n                /* \"#utility.yul\":21644:21645   */\n              dup3\n                /* \"#utility.yul\":21641:21642   */\n              dup3\n                /* \"#utility.yul\":21637:21646   */\n              div\n                /* \"#utility.yul\":21632:21646   */\n              swap1\n              pop\n                /* \"#utility.yul\":21467:21652   */\n              swap3\n              swap2\n              pop\n              pop\n              jump\t// out\n                /* \"#utility.yul\":21658:21889   */\n            tag_331:\n                /* \"#utility.yul\":21798:21832   */\n              0x4f6e6c7920616e20616363657074656420617574686f722063616e2063726561\n                /* \"#utility.yul\":21794:21795   */\n              0x00\n                /* \"#utility.yul\":21786:21792   */\n              dup3\n                /* \"#utility.yul\":21782:21796   */\n              add\n                /* \"#utility.yul\":21775:21833   */\n              mstore\n                /* \"#utility.yul\":21867:21881   */\n              0x7465206120636861707465720000000000000000000000000000000000000000\n                /* \"#utility.yul\":21862:21864   */\n              0x20\n                /* \"#utility.yul\":21854:21860   */\n              dup3\n                /* \"#utility.yul\":21850:21865   */\n              add\n                /* \"#utility.yul\":21843:21882   */\n              mstore\n                /* \"#utility.yul\":21658:21889   */\n              pop\n              jump\t// out\n                /* \"#utility.yul\":21895:22261   */\n            tag_332:\n                /* \"#utility.yul\":22037:22040   */\n              0x00\n                /* \"#utility.yul\":22058:22125   */\n              tag_544\n                /* \"#utility.yul\":22122:22124   */\n              0x2c\n                /* \"#utility.yul\":22117:22120   */\n              dup4\n                /* \"#utility.yul\":22058:22125   */\n              tag_288\n              jump\t// in\n            tag_544:\n                /* \"#utility.yul\":22051:22125   */\n              swap2\n              pop\n                /* \"#utility.yul\":22134:22227   */\n              tag_545\n                /* \"#utility.yul\":22223:22226   */\n              dup3\n                /* \"#utility.yul\":22134:22227   */\n              tag_331\n              jump\t// in\n            tag_545:\n                /* \"#utility.yul\":22252:22254   */\n              0x40\n                /* \"#utility.yul\":22247:22250   */\n              dup3\n                /* \"#utility.yul\":22243:22255   */\n              add\n                /* \"#utility.yul\":22236:22255   */\n              swap1\n              pop\n                /* \"#utility.yul\":21895:22261   */\n              swap2\n              swap1\n              pop\n              jump\t// out\n                /* \"#utility.yul\":22267:22686   */\n            tag_188:\n                /* \"#utility.yul\":22433:22437   */\n              0x00\n                /* \"#utility.yul\":22471:22473   */\n              0x20\n                /* \"#utility.yul\":22460:22469   */\n              dup3\n                /* \"#utility.yul\":22456:22474   */\n              add\n                /* \"#utility.yul\":22448:22474   */\n              swap1\n              pop\n                /* \"#utility.yul\":22520:22529   */\n              dup2\n                /* \"#utility.yul\":22514:22518   */\n              dup2\n                /* \"#utility.yul\":22510:22530   */\n              sub\n                /* \"#utility.yul\":22506:22507   */\n              0x00\n                /* \"#utility.yul\":22495:22504   */\n              dup4\n                /* \"#utility.yul\":22491:22508   */\n              add\n                /* \"#utility.yul\":22484:22531   */\n              mstore\n                /* \"#utility.yul\":22548:22679   */\n              tag_547\n                /* \"#utility.yul\":22674:22678   */\n              dup2\n                /* \"#utility.yul\":22548:22679   */\n              tag_332\n              jump\t// in\n            tag_547:\n                /* \"#utility.yul\":22540:22679   */\n              swap1\n              pop\n                /* \"#utility.yul\":22267:22686   */\n              swap2\n              swap1\n              pop\n              jump\t// out\n                /* \"#utility.yul\":22692:22912   */\n            tag_333:\n                /* \"#utility.yul\":22832:22866   */\n              0x506172656e742063686170746572206d757374206265206120636f6e74726163\n                /* \"#utility.yul\":22828:22829   */\n              0x00\n                /* \"#utility.yul\":22820:22826   */\n              dup3\n                /* \"#utility.yul\":22816:22830   */\n              add\n                /* \"#utility.yul\":22809:22867   */\n              mstore\n                /* \"#utility.yul\":22901:22904   */\n              0x7400000000000000000000000000000000000000000000000000000000000000\n                /* \"#utility.yul\":22896:22898   */\n              0x20\n                /* \"#utility.yul\":22888:22894   */\n              dup3\n                /* \"#utility.yul\":22884:22899   */\n              add\n                /* \"#utility.yul\":22877:22905   */\n              mstore\n                /* \"#utility.yul\":22692:22912   */\n              pop\n              jump\t// out\n                /* \"#utility.yul\":22918:23284   */\n            tag_334:\n                /* \"#utility.yul\":23060:23063   */\n              0x00\n                /* \"#utility.yul\":23081:23148   */\n              tag_550\n                /* \"#utility.yul\":23145:23147   */\n              0x21\n                /* \"#utility.yul\":23140:23143   */\n              dup4\n                /* \"#utility.yul\":23081:23148   */\n              tag_288\n              jump\t// in\n            tag_550:\n                /* \"#utility.yul\":23074:23148   */\n              swap2\n              pop\n                /* \"#utility.yul\":23157:23250   */\n              tag_551\n                /* \"#utility.yul\":23246:23249   */\n              dup3\n                /* \"#utility.yul\":23157:23250   */\n              tag_333\n              jump\t// in\n            tag_551:\n                /* \"#utility.yul\":23275:23277   */\n              0x40\n                /* \"#utility.yul\":23270:23273   */\n              dup3\n                /* \"#utility.yul\":23266:23278   */\n              add\n                /* \"#utility.yul\":23259:23278   */\n              swap1\n              pop\n                /* \"#utility.yul\":22918:23284   */\n              swap2\n              swap1\n              pop\n              jump\t// out\n                /* \"#utility.yul\":23290:23709   */\n            tag_193:\n                /* \"#utility.yul\":23456:23460   */\n              0x00\n                /* \"#utility.yul\":23494:23496   */\n              0x20\n                /* \"#utility.yul\":23483:23492   */\n              dup3\n                /* \"#utility.yul\":23479:23497   */\n              add\n                /* \"#utility.yul\":23471:23497   */\n              swap1\n              pop\n                /* \"#utility.yul\":23543:23552   */\n              dup2\n                /* \"#utility.yul\":23537:23541   */\n              dup2\n                /* \"#utility.yul\":23533:23553   */\n              sub\n                /* \"#utility.yul\":23529:23530   */\n              0x00\n                /* \"#utility.yul\":23518:23527   */\n              dup4\n                /* \"#utility.yul\":23514:23531   */\n              add\n                /* \"#utility.yul\":23507:23554   */\n              mstore\n                /* \"#utility.yul\":23571:23702   */\n              tag_553\n                /* \"#utility.yul\":23697:23701   */\n              dup2\n                /* \"#utility.yul\":23571:23702   */\n              tag_334\n              jump\t// in\n            tag_553:\n                /* \"#utility.yul\":23563:23702   */\n              swap1\n              pop\n                /* \"#utility.yul\":23290:23709   */\n              swap2\n              swap1\n              pop\n              jump\t// out\n                /* \"#utility.yul\":23715:23897   */\n            tag_335:\n                /* \"#utility.yul\":23855:23889   */\n              0x4368696c642063686170746572206d757374206265206120636f6e7472616374\n                /* \"#utility.yul\":23851:23852   */\n              0x00\n                /* \"#utility.yul\":23843:23849   */\n              dup3\n                /* \"#utility.yul\":23839:23853   */\n              add\n                /* \"#utility.yul\":23832:23890   */\n              mstore\n                /* \"#utility.yul\":23715:23897   */\n              pop\n              jump\t// out\n                /* \"#utility.yul\":23903:24269   */\n            tag_336:\n                /* \"#utility.yul\":24045:24048   */\n              0x00\n                /* \"#utility.yul\":24066:24133   */\n              tag_556\n                /* \"#utility.yul\":24130:24132   */\n              0x20\n                /* \"#utility.yul\":24125:24128   */\n              dup4\n                /* \"#utility.yul\":24066:24133   */\n              tag_288\n              jump\t// in\n            tag_556:\n                /* \"#utility.yul\":24059:24133   */\n              swap2\n              pop\n                /* \"#utility.yul\":24142:24235   */\n              tag_557\n                /* \"#utility.yul\":24231:24234   */\n              dup3\n                /* \"#utility.yul\":24142:24235   */\n              tag_335\n              jump\t// in\n            tag_557:\n                /* \"#utility.yul\":24260:24262   */\n              0x20\n                /* \"#utility.yul\":24255:24258   */\n              dup3\n                /* \"#utility.yul\":24251:24263   */\n              add\n                /* \"#utility.yul\":24244:24263   */\n              swap1\n              pop\n                /* \"#utility.yul\":23903:24269   */\n              swap2\n              swap1\n              pop\n              jump\t// out\n                /* \"#utility.yul\":24275:24694   */\n            tag_197:\n                /* \"#utility.yul\":24441:24445   */\n              0x00\n                /* \"#utility.yul\":24479:24481   */\n              0x20\n                /* \"#utility.yul\":24468:24477   */\n              dup3\n                /* \"#utility.yul\":24464:24482   */\n              add\n                /* \"#utility.yul\":24456:24482   */\n              swap1\n              pop\n                /* \"#utility.yul\":24528:24537   */\n              dup2\n                /* \"#utility.yul\":24522:24526   */\n              dup2\n                /* \"#utility.yul\":24518:24538   */\n              sub\n                /* \"#utility.yul\":24514:24515   */\n              0x00\n                /* \"#utility.yul\":24503:24512   */\n              dup4\n                /* \"#utility.yul\":24499:24516   */\n              add\n                /* \"#utility.yul\":24492:24539   */\n              mstore\n                /* \"#utility.yul\":24556:24687   */\n              tag_559\n                /* \"#utility.yul\":24682:24686   */\n              dup2\n                /* \"#utility.yul\":24556:24687   */\n              tag_336\n              jump\t// in\n            tag_559:\n                /* \"#utility.yul\":24548:24687   */\n              swap1\n              pop\n                /* \"#utility.yul\":24275:24694   */\n              swap2\n              swap1\n              pop\n              jump\t// out\n                /* \"#utility.yul\":24700:24931   */\n            tag_337:\n                /* \"#utility.yul\":24840:24874   */\n              0x506172656e742063686170746572206d7573742062656c6f6e6720746f207468\n                /* \"#utility.yul\":24836:24837   */\n              0x00\n                /* \"#utility.yul\":24828:24834   */\n              dup3\n                /* \"#utility.yul\":24824:24838   */\n              add\n                /* \"#utility.yul\":24817:24875   */\n              mstore\n                /* \"#utility.yul\":24909:24923   */\n              0x652073616d652073746f72790000000000000000000000000000000000000000\n                /* \"#utility.yul\":24904:24906   */\n              0x20\n                /* \"#utility.yul\":24896:24902   */\n              dup3\n                /* \"#utility.yul\":24892:24907   */\n              add\n                /* \"#utility.yul\":24885:24924   */\n              mstore\n                /* \"#utility.yul\":24700:24931   */\n              pop\n              jump\t// out\n                /* \"#utility.yul\":24937:25303   */\n            tag_338:\n                /* \"#utility.yul\":25079:25082   */\n              0x00\n                /* \"#utility.yul\":25100:25167   */\n              tag_562\n                /* \"#utility.yul\":25164:25166   */\n              0x2c\n                /* \"#utility.yul\":25159:25162   */\n              dup4\n                /* \"#utility.yul\":25100:25167   */\n              tag_288\n              jump\t// in\n            tag_562:\n                /* \"#utility.yul\":25093:25167   */\n              swap2\n              pop\n                /* \"#utility.yul\":25176:25269   */\n              tag_563\n                /* \"#utility.yul\":25265:25268   */\n              dup3\n                /* \"#utility.yul\":25176:25269   */\n              tag_337\n              jump\t// in\n            tag_563:\n                /* \"#utility.yul\":25294:25296   */\n              0x40\n                /* \"#utility.yul\":25289:25292   */\n              dup3\n                /* \"#utility.yul\":25285:25297   */\n              add\n                /* \"#utility.yul\":25278:25297   */\n              swap1\n              pop\n                /* \"#utility.yul\":24937:25303   */\n              swap2\n              swap1\n              pop\n              jump\t// out\n                /* \"#utility.yul\":25309:25728   */\n            tag_202:\n                /* \"#utility.yul\":25475:25479   */\n              0x00\n                /* \"#utility.yul\":25513:25515   */\n              0x20\n                /* \"#utility.yul\":25502:25511   */\n              dup3\n                /* \"#utility.yul\":25498:25516   */\n              add\n                /* \"#utility.yul\":25490:25516   */\n              swap1\n              pop\n                /* \"#utility.yul\":25562:25571   */\n              dup2\n                /* \"#utility.yul\":25556:25560   */\n              dup2\n                /* \"#utility.yul\":25552:25572   */\n              sub\n                /* \"#utility.yul\":25548:25549   */\n              0x00\n                /* \"#utility.yul\":25537:25546   */\n              dup4\n                /* \"#utility.yul\":25533:25550   */\n              add\n                /* \"#utility.yul\":25526:25573   */\n              mstore\n                /* \"#utility.yul\":25590:25721   */\n              tag_565\n                /* \"#utility.yul\":25716:25720   */\n              dup2\n                /* \"#utility.yul\":25590:25721   */\n              tag_338\n              jump\t// in\n            tag_565:\n                /* \"#utility.yul\":25582:25721   */\n              swap1\n              pop\n                /* \"#utility.yul\":25309:25728   */\n              swap2\n              swap1\n              pop\n              jump\t// out\n                /* \"#utility.yul\":25734:25964   */\n            tag_339:\n                /* \"#utility.yul\":25874:25908   */\n              0x4368696c642063686170746572206d7573742062656c6f6e6720746f20746865\n                /* \"#utility.yul\":25870:25871   */\n              0x00\n                /* \"#utility.yul\":25862:25868   */\n              dup3\n                /* \"#utility.yul\":25858:25872   */\n              add\n                /* \"#utility.yul\":25851:25909   */\n              mstore\n                /* \"#utility.yul\":25943:25956   */\n              0x2073616d652073746f7279000000000000000000000000000000000000000000\n                /* \"#utility.yul\":25938:25940   */\n              0x20\n                /* \"#utility.yul\":25930:25936   */\n              dup3\n                /* \"#utility.yul\":25926:25941   */\n              add\n                /* \"#utility.yul\":25919:25957   */\n              mstore\n                /* \"#utility.yul\":25734:25964   */\n              pop\n              jump\t// out\n                /* \"#utility.yul\":25970:26336   */\n            tag_340:\n                /* \"#utility.yul\":26112:26115   */\n              0x00\n                /* \"#utility.yul\":26133:26200   */\n              tag_568\n                /* \"#utility.yul\":26197:26199   */\n              0x2b\n                /* \"#utility.yul\":26192:26195   */\n              dup4\n                /* \"#utility.yul\":26133:26200   */\n              tag_288\n              jump\t// in\n            tag_568:\n                /* \"#utility.yul\":26126:26200   */\n              swap2\n              pop\n                /* \"#utility.yul\":26209:26302   */\n              tag_569\n                /* \"#utility.yul\":26298:26301   */\n              dup3\n                /* \"#utility.yul\":26209:26302   */\n              tag_339\n              jump\t// in\n            tag_569:\n                /* \"#utility.yul\":26327:26329   */\n              0x40\n                /* \"#utility.yul\":26322:26325   */\n              dup3\n                /* \"#utility.yul\":26318:26330   */\n              add\n                /* \"#utility.yul\":26311:26330   */\n              swap1\n              pop\n                /* \"#utility.yul\":25970:26336   */\n              swap2\n              swap1\n              pop\n              jump\t// out\n                /* \"#utility.yul\":26342:26761   */\n            tag_207:\n                /* \"#utility.yul\":26508:26512   */\n              0x00\n                /* \"#utility.yul\":26546:26548   */\n              0x20\n                /* \"#utility.yul\":26535:26544   */\n              dup3\n                /* \"#utility.yul\":26531:26549   */\n              add\n                /* \"#utility.yul\":26523:26549   */\n              swap1\n              pop\n                /* \"#utility.yul\":26595:26604   */\n              dup2\n                /* \"#utility.yul\":26589:26593   */\n              dup2\n                /* \"#utility.yul\":26585:26605   */\n              sub\n                /* \"#utility.yul\":26581:26582   */\n              0x00\n                /* \"#utility.yul\":26570:26579   */\n              dup4\n                /* \"#utility.yul\":26566:26583   */\n              add\n                /* \"#utility.yul\":26559:26606   */\n              mstore\n                /* \"#utility.yul\":26623:26754   */\n              tag_571\n                /* \"#utility.yul\":26749:26753   */\n              dup2\n                /* \"#utility.yul\":26623:26754   */\n              tag_340\n              jump\t// in\n            tag_571:\n                /* \"#utility.yul\":26615:26754   */\n              swap1\n              pop\n                /* \"#utility.yul\":26342:26761   */\n              swap2\n              swap1\n              pop\n              jump\t// out\n                /* \"#utility.yul\":26767:27724   */\n            tag_211:\n                /* \"#utility.yul\":27040:27044   */\n              0x00\n                /* \"#utility.yul\":27078:27081   */\n              0xc0\n                /* \"#utility.yul\":27067:27076   */\n              dup3\n                /* \"#utility.yul\":27063:27082   */\n              add\n                /* \"#utility.yul\":27055:27082   */\n              swap1\n              pop\n                /* \"#utility.yul\":27092:27163   */\n              tag_573\n                /* \"#utility.yul\":27160:27161   */\n              0x00\n                /* \"#utility.yul\":27149:27158   */\n              dup4\n                /* \"#utility.yul\":27145:27162   */\n              add\n                /* \"#utility.yul\":27136:27142   */\n              dup10\n                /* \"#utility.yul\":27092:27163   */\n              tag_286\n              jump\t// in\n            tag_573:\n                /* \"#utility.yul\":27173:27245   */\n              tag_574\n                /* \"#utility.yul\":27241:27243   */\n              0x20\n                /* \"#utility.yul\":27230:27239   */\n              dup4\n                /* \"#utility.yul\":27226:27244   */\n              add\n                /* \"#utility.yul\":27217:27223   */\n              dup9\n                /* \"#utility.yul\":27173:27245   */\n              tag_286\n              jump\t// in\n            tag_574:\n                /* \"#utility.yul\":27292:27301   */\n              dup2\n                /* \"#utility.yul\":27286:27290   */\n              dup2\n                /* \"#utility.yul\":27282:27302   */\n              sub\n                /* \"#utility.yul\":27277:27279   */\n              0x40\n                /* \"#utility.yul\":27266:27275   */\n              dup4\n                /* \"#utility.yul\":27262:27280   */\n              add\n                /* \"#utility.yul\":27255:27303   */\n              mstore\n                /* \"#utility.yul\":27320:27398   */\n              tag_575\n                /* \"#utility.yul\":27393:27397   */\n              dup2\n                /* \"#utility.yul\":27384:27390   */\n              dup8\n                /* \"#utility.yul\":27320:27398   */\n              tag_291\n              jump\t// in\n            tag_575:\n                /* \"#utility.yul\":27312:27398   */\n              swap1\n              pop\n                /* \"#utility.yul\":27445:27454   */\n              dup2\n                /* \"#utility.yul\":27439:27443   */\n              dup2\n                /* \"#utility.yul\":27435:27455   */\n              sub\n                /* \"#utility.yul\":27430:27432   */\n              0x60\n                /* \"#utility.yul\":27419:27428   */\n              dup4\n                /* \"#utility.yul\":27415:27433   */\n              add\n                /* \"#utility.yul\":27408:27456   */\n              mstore\n                /* \"#utility.yul\":27473:27551   */\n              tag_576\n                /* \"#utility.yul\":27546:27550   */\n              dup2\n                /* \"#utility.yul\":27537:27543   */\n              dup7\n                /* \"#utility.yul\":27473:27551   */\n              tag_291\n              jump\t// in\n            tag_576:\n                /* \"#utility.yul\":27465:27551   */\n              swap1\n              pop\n                /* \"#utility.yul\":27561:27634   */\n              tag_577\n                /* \"#utility.yul\":27629:27632   */\n              0x80\n                /* \"#utility.yul\":27618:27627   */\n              dup4\n                /* \"#utility.yul\":27614:27633   */\n              add\n                /* \"#utility.yul\":27605:27611   */\n              dup6\n                /* \"#utility.yul\":27561:27634   */\n              tag_286\n              jump\t// in\n            tag_577:\n                /* \"#utility.yul\":27644:27717   */\n              tag_578\n                /* \"#utility.yul\":27712:27715   */\n              0xa0\n                /* \"#utility.yul\":27701:27710   */\n              dup4\n                /* \"#utility.yul\":27697:27716   */\n              add\n                /* \"#utility.yul\":27688:27694   */\n              dup5\n                /* \"#utility.yul\":27644:27717   */\n              tag_286\n              jump\t// in\n            tag_578:\n                /* \"#utility.yul\":26767:27724   */\n              swap8\n              swap7\n              pop\n              pop\n              pop\n              pop\n              pop\n              pop\n              pop\n              jump\t// out\n                /* \"#utility.yul\":27730:27911   */\n            tag_341:\n                /* \"#utility.yul\":27870:27903   */\n              0x4d696e696d756d20636f6e747269627574696f6e206973203130302057656900\n                /* \"#utility.yul\":27866:27867   */\n              0x00\n                /* \"#utility.yul\":27858:27864   */\n              dup3\n                /* \"#utility.yul\":27854:27868   */\n              add\n                /* \"#utility.yul\":27847:27904   */\n              mstore\n                /* \"#utility.yul\":27730:27911   */\n              pop\n              jump\t// out\n                /* \"#utility.yul\":27917:28283   */\n            tag_342:\n                /* \"#utility.yul\":28059:28062   */\n              0x00\n                /* \"#utility.yul\":28080:28147   */\n              tag_581\n                /* \"#utility.yul\":28144:28146   */\n              0x1f\n                /* \"#utility.yul\":28139:28142   */\n              dup4\n                /* \"#utility.yul\":28080:28147   */\n              tag_288\n              jump\t// in\n            tag_581:\n                /* \"#utility.yul\":28073:28147   */\n              swap2\n              pop\n                /* \"#utility.yul\":28156:28249   */\n              tag_582\n                /* \"#utility.yul\":28245:28248   */\n              dup3\n                /* \"#utility.yul\":28156:28249   */\n              tag_341\n              jump\t// in\n            tag_582:\n                /* \"#utility.yul\":28274:28276   */\n              0x20\n                /* \"#utility.yul\":28269:28272   */\n              dup3\n                /* \"#utility.yul\":28265:28277   */\n              add\n                /* \"#utility.yul\":28258:28277   */\n              swap1\n              pop\n                /* \"#utility.yul\":27917:28283   */\n              swap2\n              swap1\n              pop\n              jump\t// out\n                /* \"#utility.yul\":28289:28708   */\n            tag_237:\n                /* \"#utility.yul\":28455:28459   */\n              0x00\n                /* \"#utility.yul\":28493:28495   */\n              0x20\n                /* \"#utility.yul\":28482:28491   */\n              dup3\n                /* \"#utility.yul\":28478:28496   */\n              add\n                /* \"#utility.yul\":28470:28496   */\n              swap1\n              pop\n                /* \"#utility.yul\":28542:28551   */\n              dup2\n                /* \"#utility.yul\":28536:28540   */\n              dup2\n                /* \"#utility.yul\":28532:28552   */\n              sub\n                /* \"#utility.yul\":28528:28529   */\n              0x00\n                /* \"#utility.yul\":28517:28526   */\n              dup4\n                /* \"#utility.yul\":28513:28530   */\n              add\n                /* \"#utility.yul\":28506:28553   */\n              mstore\n                /* \"#utility.yul\":28570:28701   */\n              tag_584\n                /* \"#utility.yul\":28696:28700   */\n              dup2\n                /* \"#utility.yul\":28570:28701   */\n              tag_342\n              jump\t// in\n            tag_584:\n                /* \"#utility.yul\":28562:28701   */\n              swap1\n              pop\n                /* \"#utility.yul\":28289:28708   */\n              swap2\n              swap1\n              pop\n              jump\t// out\n                /* \"#utility.yul\":28714:28945   */\n            tag_343:\n                /* \"#utility.yul\":28854:28888   */\n              0x417574686f7220616c72656164792065786973747320696e20746865206c6973\n                /* \"#utility.yul\":28850:28851   */\n              0x00\n                /* \"#utility.yul\":28842:28848   */\n              dup3\n                /* \"#utility.yul\":28838:28852   */\n              add\n                /* \"#utility.yul\":28831:28889   */\n              mstore\n                /* \"#utility.yul\":28923:28937   */\n              0x74206f6620617574686f72730000000000000000000000000000000000000000\n                /* \"#utility.yul\":28918:28920   */\n              0x20\n                /* \"#utility.yul\":28910:28916   */\n              dup3\n                /* \"#utility.yul\":28906:28921   */\n              add\n                /* \"#utility.yul\":28899:28938   */\n              mstore\n                /* \"#utility.yul\":28714:28945   */\n              pop\n              jump\t// out\n                /* \"#utility.yul\":28951:29317   */\n            tag_344:\n                /* \"#utility.yul\":29093:29096   */\n              0x00\n                /* \"#utility.yul\":29114:29181   */\n              tag_587\n                /* \"#utility.yul\":29178:29180   */\n              0x2c\n                /* \"#utility.yul\":29173:29176   */\n              dup4\n                /* \"#utility.yul\":29114:29181   */\n              tag_288\n              jump\t// in\n            tag_587:\n                /* \"#utility.yul\":29107:29181   */\n              swap2\n              pop\n                /* \"#utility.yul\":29190:29283   */\n              tag_588\n                /* \"#utility.yul\":29279:29282   */\n              dup3\n                /* \"#utility.yul\":29190:29283   */\n              tag_343\n              jump\t// in\n            tag_588:\n                /* \"#utility.yul\":29308:29310   */\n              0x40\n                /* \"#utility.yul\":29303:29306   */\n              dup3\n                /* \"#utility.yul\":29299:29311   */\n              add\n                /* \"#utility.yul\":29292:29311   */\n              swap1\n              pop\n                /* \"#utility.yul\":28951:29317   */\n              swap2\n              swap1\n              pop\n              jump\t// out\n                /* \"#utility.yul\":29323:29742   */\n            tag_246:\n                /* \"#utility.yul\":29489:29493   */\n              0x00\n                /* \"#utility.yul\":29527:29529   */\n              0x20\n                /* \"#utility.yul\":29516:29525   */\n              dup3\n                /* \"#utility.yul\":29512:29530   */\n              add\n                /* \"#utility.yul\":29504:29530   */\n              swap1\n              pop\n                /* \"#utility.yul\":29576:29585   */\n              dup2\n                /* \"#utility.yul\":29570:29574   */\n              dup2\n                /* \"#utility.yul\":29566:29586   */\n              sub\n                /* \"#utility.yul\":29562:29563   */\n              0x00\n                /* \"#utility.yul\":29551:29560   */\n              dup4\n                /* \"#utility.yul\":29547:29564   */\n              add\n                /* \"#utility.yul\":29540:29587   */\n              mstore\n                /* \"#utility.yul\":29604:29735   */\n              tag_590\n                /* \"#utility.yul\":29730:29734   */\n              dup2\n                /* \"#utility.yul\":29604:29735   */\n              tag_344\n              jump\t// in\n            tag_590:\n                /* \"#utility.yul\":29596:29735   */\n              swap1\n              pop\n                /* \"#utility.yul\":29323:29742   */\n              swap2\n              swap1\n              pop\n              jump\t// out\n                /* \"#utility.yul\":29748:30053   */\n            tag_252:\n                /* \"#utility.yul\":29788:29791   */\n              0x00\n                /* \"#utility.yul\":29807:29827   */\n              tag_592\n                /* \"#utility.yul\":29825:29826   */\n              dup3\n                /* \"#utility.yul\":29807:29827   */\n              tag_299\n              jump\t// in\n            tag_592:\n                /* \"#utility.yul\":29802:29827   */\n              swap2\n              pop\n                /* \"#utility.yul\":29841:29861   */\n              tag_593\n                /* \"#utility.yul\":29859:29860   */\n              dup4\n                /* \"#utility.yul\":29841:29861   */\n              tag_299\n              jump\t// in\n            tag_593:\n                /* \"#utility.yul\":29836:29861   */\n              swap3\n              pop\n                /* \"#utility.yul\":29995:29996   */\n              dup3\n                /* \"#utility.yul\":29927:29993   */\n              0xffffffffffffffffffffffffffffffffffffffffffffffffffffffffffffffff\n                /* \"#utility.yul\":29923:29997   */\n              sub\n                /* \"#utility.yul\":29920:29921   */\n              dup3\n                /* \"#utility.yul\":29917:29998   */\n              gt\n                /* \"#utility.yul\":29914:30021   */\n              iszero\n              tag_594\n              jumpi\n                /* \"#utility.yul\":30001:30019   */\n              tag_595\n              tag_322\n              jump\t// in\n            tag_595:\n                /* \"#utility.yul\":29914:30021   */\n            tag_594:\n                /* \"#utility.yul\":30045:30046   */\n              dup3\n                /* \"#utility.yul\":30042:30043   */\n              dup3\n                /* \"#utility.yul\":30038:30047   */\n              add\n                /* \"#utility.yul\":30031:30047   */\n              swap1\n              pop\n                /* \"#utility.yul\":29748:30053   */\n              swap3\n              swap2\n              pop\n              pop\n              jump\t// out\n                /* \"#utility.yul\":30059:30236   */\n            tag_345:\n                /* \"#utility.yul\":30199:30228   */\n              0x536166654d6174683a206164646974696f6e206f766572666c6f770000000000\n                /* \"#utility.yul\":30195:30196   */\n              0x00\n                /* \"#utility.yul\":30187:30193   */\n              dup3\n                /* \"#utility.yul\":30183:30197   */\n              add\n                /* \"#utility.yul\":30176:30229   */\n              mstore\n                /* \"#utility.yul\":30059:30236   */\n              pop\n              jump\t// out\n                /* \"#utility.yul\":30242:30608   */\n            tag_346:\n                /* \"#utility.yul\":30384:30387   */\n              0x00\n                /* \"#utility.yul\":30405:30472   */\n              tag_598\n                /* \"#utility.yul\":30469:30471   */\n              0x1b\n                /* \"#utility.yul\":30464:30467   */\n              dup4\n                /* \"#utility.yul\":30405:30472   */\n              tag_288\n              jump\t// in\n            tag_598:\n                /* \"#utility.yul\":30398:30472   */\n              swap2\n              pop\n                /* \"#utility.yul\":30481:30574   */\n              tag_599\n                /* \"#utility.yul\":30570:30573   */\n              dup3\n                /* \"#utility.yul\":30481:30574   */\n              tag_345\n              jump\t// in\n            tag_599:\n                /* \"#utility.yul\":30599:30601   */\n              0x20\n                /* \"#utility.yul\":30594:30597   */\n              dup3\n                /* \"#utility.yul\":30590:30602   */\n              add\n                /* \"#utility.yul\":30583:30602   */\n              swap1\n              pop\n                /* \"#utility.yul\":30242:30608   */\n              swap2\n              swap1\n              pop\n              jump\t// out\n                /* \"#utility.yul\":30614:31033   */\n            tag_255:\n                /* \"#utility.yul\":30780:30784   */\n              0x00\n                /* \"#utility.yul\":30818:30820   */\n              0x20\n                /* \"#utility.yul\":30807:30816   */\n              dup3\n                /* \"#utility.yul\":30803:30821   */\n              add\n                /* \"#utility.yul\":30795:30821   */\n              swap1\n              pop\n                /* \"#utility.yul\":30867:30876   */\n              dup2\n                /* \"#utility.yul\":30861:30865   */\n              dup2\n                /* \"#utility.yul\":30857:30877   */\n              sub\n                /* \"#utility.yul\":30853:30854   */\n              0x00\n                /* \"#utility.yul\":30842:30851   */\n              dup4\n                /* \"#utility.yul\":30838:30855   */\n              add\n                /* \"#utility.yul\":30831:30878   */\n              mstore\n                /* \"#utility.yul\":30895:31026   */\n              tag_601\n                /* \"#utility.yul\":31021:31025   */\n              dup2\n                /* \"#utility.yul\":30895:31026   */\n              tag_346\n              jump\t// in\n            tag_601:\n                /* \"#utility.yul\":30887:31026   */\n              swap1\n              pop\n                /* \"#utility.yul\":30614:31033   */\n              swap2\n              swap1\n              pop\n              jump\t// out\n                /* \"#utility.yul\":31039:31215   */\n            tag_347:\n                /* \"#utility.yul\":31179:31207   */\n              0x536166654d6174683a206469766973696f6e206279207a65726f000000000000\n                /* \"#utility.yul\":31175:31176   */\n              0x00\n                /* \"#utility.yul\":31167:31173   */\n              dup3\n                /* \"#utility.yul\":31163:31177   */\n              add\n                /* \"#utility.yul\":31156:31208   */\n              mstore\n                /* \"#utility.yul\":31039:31215   */\n              pop\n              jump\t// out\n                /* \"#utility.yul\":31221:31587   */\n            tag_348:\n                /* \"#utility.yul\":31363:31366   */\n              0x00\n                /* \"#utility.yul\":31384:31451   */\n              tag_604\n                /* \"#utility.yul\":31448:31450   */\n              0x1a\n                /* \"#utility.yul\":31443:31446   */\n              dup4\n                /* \"#utility.yul\":31384:31451   */\n              tag_288\n              jump\t// in\n            tag_604:\n                /* \"#utility.yul\":31377:31451   */\n              swap2\n              pop\n                /* \"#utility.yul\":31460:31553   */\n              tag_605\n                /* \"#utility.yul\":31549:31552   */\n              dup3\n                /* \"#utility.yul\":31460:31553   */\n              tag_347\n              jump\t// in\n            tag_605:\n                /* \"#utility.yul\":31578:31580   */\n              0x20\n                /* \"#utility.yul\":31573:31576   */\n              dup3\n                /* \"#utility.yul\":31569:31581   */\n              add\n                /* \"#utility.yul\":31562:31581   */\n              swap1\n              pop\n                /* \"#utility.yul\":31221:31587   */\n              swap2\n              swap1\n              pop\n              jump\t// out\n                /* \"#utility.yul\":31593:32012   */\n            tag_259:\n                /* \"#utility.yul\":31759:31763   */\n              0x00\n                /* \"#utility.yul\":31797:31799   */\n              0x20\n                /* \"#utility.yul\":31786:31795   */\n              dup3\n                /* \"#utility.yul\":31782:31800   */\n              add\n                /* \"#utility.yul\":31774:31800   */\n              swap1\n              pop\n                /* \"#utility.yul\":31846:31855   */\n              dup2\n                /* \"#utility.yul\":31840:31844   */\n              dup2\n                /* \"#utility.yul\":31836:31856   */\n              sub\n                /* \"#utility.yul\":31832:31833   */\n              0x00\n                /* \"#utility.yul\":31821:31830   */\n              dup4\n                /* \"#utility.yul\":31817:31834   */\n              add\n                /* \"#utility.yul\":31810:31857   */\n              mstore\n                /* \"#utility.yul\":31874:32005   */\n              tag_607\n                /* \"#utility.yul\":32000:32004   */\n              dup2\n                /* \"#utility.yul\":31874:32005   */\n              tag_348\n              jump\t// in\n            tag_607:\n                /* \"#utility.yul\":31866:32005   */\n              swap1\n              pop\n                /* \"#utility.yul\":31593:32012   */\n              swap2\n              swap1\n              pop\n              jump\t// out\n            stop\n\n            sub_0: assembly {\n                    /* \"Story.sol\":7828:9681  contract Chapter {... */\n                  mstore(0x40, 0x80)\n                    /* \"Story.sol\":8156:8623  constructor(address _author, address _story, string memory _title,  string memory _ipfsHash, address parentChapter, address childChapter) {... */\n                  callvalue\n                  dup1\n                  iszero\n                  tag_1\n                  jumpi\n                  0x00\n                  dup1\n                  revert\n                tag_1:\n                  pop\n                  mload(0x40)\n                  sub(codesize, bytecodeSize)\n                  dup1\n                  bytecodeSize\n                  dup4\n                  codecopy\n                  dup2\n                  dup2\n                  add\n                  0x40\n                  mstore\n                  dup2\n                  add\n                  swap1\n                  tag_2\n                  swap2\n                  swap1\n                  tag_3\n                  jump\t// in\n                tag_2:\n                    /* \"Story.sol\":8314:8321  _author */\n                  dup6\n                    /* \"Story.sol\":8305:8311  author */\n                  0x01\n                  0x00\n                    /* \"Story.sol\":8305:8321  author = _author */\n                  0x0100\n                  exp\n                  dup2\n                  sload\n                  dup2\n                  0xffffffffffffffffffffffffffffffffffffffff\n                  mul\n                  not\n                  and\n                  swap1\n                  dup4\n                  0xffffffffffffffffffffffffffffffffffffffff\n                  and\n                  mul\n                  or\n                  swap1\n                  sstore\n                  pop\n                    /* \"Story.sol\":8340:8346  _story */\n                  dup5\n                    /* \"Story.sol\":8332:8337  story */\n                  0x00\n                  dup1\n                    /* \"Story.sol\":8332:8346  story = _story */\n                  0x0100\n                  exp\n                  dup2\n                  sload\n                  dup2\n                  0xffffffffffffffffffffffffffffffffffffffff\n                  mul\n                  not\n                  and\n                  swap1\n                  dup4\n                  0xffffffffffffffffffffffffffffffffffffffff\n                  and\n                  mul\n                  or\n                  swap1\n                  sstore\n                  pop\n                    /* \"Story.sol\":8368:8377  _ipfsHash */\n                  dup3\n                    /* \"Story.sol\":8357:8365  ipfsHash */\n                  0x03\n                    /* \"Story.sol\":8357:8377  ipfsHash = _ipfsHash */\n                  swap1\n                  dup1\n                  mload\n                  swap1\n                  0x20\n                  add\n                  swap1\n                  tag_6\n                  swap3\n                  swap2\n                  swap1\n                  tag_7\n                  jump\t// in\n                tag_6:\n                  pop\n                    /* \"Story.sol\":8396:8402  _title */\n                  dup4\n                    /* \"Story.sol\":8388:8393  title */\n                  0x02\n                    /* \"Story.sol\":8388:8402  title = _title */\n                  swap1\n                  dup1\n                  mload\n                  swap1\n                  0x20\n                  add\n                  swap1\n                  tag_8\n                  swap3\n                  swap2\n                  swap1\n                  tag_7\n                  jump\t// in\n                tag_8:\n                  pop\n                    /* \"Story.sol\":8441:8442  0 */\n                  0x00\n                    /* \"Story.sol\":8416:8443  parentChapter != address(0) */\n                  0xffffffffffffffffffffffffffffffffffffffff\n                  and\n                    /* \"Story.sol\":8416:8429  parentChapter */\n                  dup3\n                    /* \"Story.sol\":8416:8443  parentChapter != address(0) */\n                  0xffffffffffffffffffffffffffffffffffffffff\n                  and\n                  eq\n                    /* \"Story.sol\":8413:8511  if(parentChapter != address(0)){... */\n                  tag_9\n                  jumpi\n                    /* \"Story.sol\":8459:8479  linkedParentChapters */\n                  0x04\n                    /* \"Story.sol\":8485:8498  parentChapter */\n                  dup3\n                    /* \"Story.sol\":8459:8499  linkedParentChapters.push(parentChapter) */\n                  swap1\n                  dup1\n                  0x01\n                  dup2\n                  sload\n                  add\n                  dup1\n                  dup3\n                  sstore\n                  dup1\n                  swap2\n                  pop\n                  pop\n                  0x01\n                  swap1\n                  sub\n                  swap1\n                  0x00\n                  mstore\n                  keccak256(0x00, 0x20)\n                  add\n                  0x00\n                  swap1\n                  swap2\n                  swap1\n                  swap2\n                  swap1\n                  swap2\n                  0x0100\n                  exp\n                  dup2\n                  sload\n                  dup2\n                  0xffffffffffffffffffffffffffffffffffffffff\n                  mul\n                  not\n                  and\n                  swap1\n                  dup4\n                  0xffffffffffffffffffffffffffffffffffffffff\n                  and\n                  mul\n                  or\n                  swap1\n                  sstore\n                  pop\n                    /* \"Story.sol\":8413:8511  if(parentChapter != address(0)){... */\n                tag_9:\n                    /* \"Story.sol\":8548:8549  0 */\n                  0x00\n                    /* \"Story.sol\":8524:8550  childChapter != address(0) */\n                  0xffffffffffffffffffffffffffffffffffffffff\n                  and\n                    /* \"Story.sol\":8524:8536  childChapter */\n                  dup2\n                    /* \"Story.sol\":8524:8550  childChapter != address(0) */\n                  0xffffffffffffffffffffffffffffffffffffffff\n                  and\n                  eq\n                    /* \"Story.sol\":8521:8616  if(childChapter != address(0)){... */\n                  tag_11\n                  jumpi\n                    /* \"Story.sol\":8566:8585  linkedChildChapters */\n                  0x05\n                    /* \"Story.sol\":8591:8603  childChapter */\n                  dup2\n                    /* \"Story.sol\":8566:8604  linkedChildChapters.push(childChapter) */\n                  swap1\n                  dup1\n                  0x01\n                  dup2\n                  sload\n                  add\n                  dup1\n                  dup3\n                  sstore\n                  dup1\n                  swap2\n                  pop\n                  pop\n                  0x01\n                  swap1\n                  sub\n                  swap1\n                  0x00\n                  mstore\n                  keccak256(0x00, 0x20)\n                  add\n                  0x00\n                  swap1\n                  swap2\n                  swap1\n                  swap2\n                  swap1\n                  swap2\n                  0x0100\n                  exp\n                  dup2\n                  sload\n                  dup2\n                  0xffffffffffffffffffffffffffffffffffffffff\n                  mul\n                  not\n                  and\n                  swap1\n                  dup4\n                  0xffffffffffffffffffffffffffffffffffffffff\n                  and\n                  mul\n                  or\n                  swap1\n                  sstore\n                  pop\n                    /* \"Story.sol\":8521:8616  if(childChapter != address(0)){... */\n                tag_11:\n                    /* \"Story.sol\":8156:8623  constructor(address _author, address _story, string memory _title,  string memory _ipfsHash, address parentChapter, address childChapter) {... */\n                  pop\n                  pop\n                  pop\n                  pop\n                  pop\n                  pop\n                    /* \"Story.sol\":7828:9681  contract Chapter {... */\n                  jump(tag_13)\n                tag_7:\n                  dup3\n                  dup1\n                  sload\n                  tag_14\n                  swap1\n                  tag_15\n                  jump\t// in\n                tag_14:\n                  swap1\n                  0x00\n                  mstore\n                  keccak256(0x00, 0x20)\n                  swap1\n                  0x1f\n                  add\n                  0x20\n                  swap1\n                  div\n                  dup2\n                  add\n                  swap3\n                  dup3\n                  tag_17\n                  jumpi\n                  0x00\n                  dup6\n                  sstore\n                  jump(tag_16)\n                tag_17:\n                  dup3\n                  0x1f\n                  lt\n                  tag_18\n                  jumpi\n                  dup1\n                  mload\n                  not(0xff)\n                  and\n                  dup4\n                  dup1\n                  add\n                  or\n                  dup6\n                  sstore\n                  jump(tag_16)\n                tag_18:\n                  dup3\n                  dup1\n                  add\n                  0x01\n                  add\n                  dup6\n                  sstore\n                  dup3\n                  iszero\n                  tag_16\n                  jumpi\n                  swap2\n                  dup3\n                  add\n                tag_19:\n                  dup3\n                  dup2\n                  gt\n                  iszero\n                  tag_20\n                  jumpi\n                  dup3\n                  mload\n                  dup3\n                  sstore\n                  swap2\n                  0x20\n                  add\n                  swap2\n                  swap1\n                  0x01\n                  add\n                  swap1\n                  jump(tag_19)\n                tag_20:\n                tag_16:\n                  pop\n                  swap1\n                  pop\n                  tag_21\n                  swap2\n                  swap1\n                  tag_22\n                  jump\t// in\n                tag_21:\n                  pop\n                  swap1\n                  jump\t// out\n                tag_22:\n                tag_23:\n                  dup1\n                  dup3\n                  gt\n                  iszero\n                  tag_24\n                  jumpi\n                  0x00\n                  dup2\n                  0x00\n                  swap1\n                  sstore\n                  pop\n                  0x01\n                  add\n                  jump(tag_23)\n                tag_24:\n                  pop\n                  swap1\n                  jump\t// out\n                    /* \"#utility.yul\":7:82   */\n                tag_25:\n                    /* \"#utility.yul\":40:46   */\n                  0x00\n                    /* \"#utility.yul\":73:75   */\n                  0x40\n                    /* \"#utility.yul\":67:76   */\n                  mload\n                    /* \"#utility.yul\":57:76   */\n                  swap1\n                  pop\n                    /* \"#utility.yul\":7:82   */\n                  swap1\n                  jump\t// out\n                    /* \"#utility.yul\":88:205   */\n                tag_26:\n                    /* \"#utility.yul\":197:198   */\n                  0x00\n                    /* \"#utility.yul\":194:195   */\n                  dup1\n                    /* \"#utility.yul\":187:199   */\n                  revert\n                    /* \"#utility.yul\":211:328   */\n                tag_27:\n                    /* \"#utility.yul\":320:321   */\n                  0x00\n                    /* \"#utility.yul\":317:318   */\n                  dup1\n                    /* \"#utility.yul\":310:322   */\n                  revert\n                    /* \"#utility.yul\":334:460   */\n                tag_28:\n                    /* \"#utility.yul\":371:378   */\n                  0x00\n                    /* \"#utility.yul\":411:453   */\n                  0xffffffffffffffffffffffffffffffffffffffff\n                    /* \"#utility.yul\":404:409   */\n                  dup3\n                    /* \"#utility.yul\":400:454   */\n                  and\n                    /* \"#utility.yul\":389:454   */\n                  swap1\n                  pop\n                    /* \"#utility.yul\":334:460   */\n                  swap2\n                  swap1\n                  pop\n                  jump\t// out\n                    /* \"#utility.yul\":466:562   */\n                tag_29:\n                    /* \"#utility.yul\":503:510   */\n                  0x00\n                    /* \"#utility.yul\":532:556   */\n                  tag_49\n                    /* \"#utility.yul\":550:555   */\n                  dup3\n                    /* \"#utility.yul\":532:556   */\n                  tag_28\n                  jump\t// in\n                tag_49:\n                    /* \"#utility.yul\":521:556   */\n                  swap1\n                  pop\n                    /* \"#utility.yul\":466:562   */\n                  swap2\n                  swap1\n                  pop\n                  jump\t// out\n                    /* \"#utility.yul\":568:690   */\n                tag_30:\n                    /* \"#utility.yul\":641:665   */\n                  tag_51\n                    /* \"#utility.yul\":659:664   */\n                  dup2\n                    /* \"#utility.yul\":641:665   */\n                  tag_29\n                  jump\t// in\n                tag_51:\n                    /* \"#utility.yul\":634:639   */\n                  dup2\n                    /* \"#utility.yul\":631:666   */\n                  eq\n                    /* \"#utility.yul\":621:684   */\n                  tag_52\n                  jumpi\n                    /* \"#utility.yul\":680:681   */\n                  0x00\n                    /* \"#utility.yul\":677:678   */\n                  dup1\n                    /* \"#utility.yul\":670:682   */\n                  revert\n                    /* \"#utility.yul\":621:684   */\n                tag_52:\n                    /* \"#utility.yul\":568:690   */\n                  pop\n                  jump\t// out\n                    /* \"#utility.yul\":696:839   */\n                tag_31:\n                    /* \"#utility.yul\":753:758   */\n                  0x00\n                    /* \"#utility.yul\":784:790   */\n                  dup2\n                    /* \"#utility.yul\":778:791   */\n                  mload\n                    /* \"#utility.yul\":769:791   */\n                  swap1\n                  pop\n                    /* \"#utility.yul\":800:833   */\n                  tag_54\n                    /* \"#utility.yul\":827:832   */\n                  dup2\n                    /* \"#utility.yul\":800:833   */\n                  tag_30\n                  jump\t// in\n                tag_54:\n                    /* \"#utility.yul\":696:839   */\n                  swap3\n                  swap2\n                  pop\n                  pop\n                  jump\t// out\n                    /* \"#utility.yul\":845:962   */\n                tag_32:\n                    /* \"#utility.yul\":954:955   */\n                  0x00\n                    /* \"#utility.yul\":951:952   */\n                  dup1\n                    /* \"#utility.yul\":944:956   */\n                  revert\n                    /* \"#utility.yul\":968:1085   */\n                tag_33:\n                    /* \"#utility.yul\":1077:1078   */\n                  0x00\n                    /* \"#utility.yul\":1074:1075   */\n                  dup1\n                    /* \"#utility.yul\":1067:1079   */\n                  revert\n                    /* \"#utility.yul\":1091:1193   */\n                tag_34:\n                    /* \"#utility.yul\":1132:1138   */\n                  0x00\n                    /* \"#utility.yul\":1183:1185   */\n                  0x1f\n                    /* \"#utility.yul\":1179:1186   */\n                  not\n                    /* \"#utility.yul\":1174:1176   */\n                  0x1f\n                    /* \"#utility.yul\":1167:1172   */\n                  dup4\n                    /* \"#utility.yul\":1163:1177   */\n                  add\n                    /* \"#utility.yul\":1159:1187   */\n                  and\n                    /* \"#utility.yul\":1149:1187   */\n                  swap1\n                  pop\n                    /* \"#utility.yul\":1091:1193   */\n                  swap2\n                  swap1\n                  pop\n                  jump\t// out\n                    /* \"#utility.yul\":1199:1379   */\n                tag_35:\n                    /* \"#utility.yul\":1247:1324   */\n                  0x4e487b7100000000000000000000000000000000000000000000000000000000\n                    /* \"#utility.yul\":1244:1245   */\n                  0x00\n                    /* \"#utility.yul\":1237:1325   */\n                  mstore\n                    /* \"#utility.yul\":1344:1348   */\n                  0x41\n                    /* \"#utility.yul\":1341:1342   */\n                  0x04\n                    /* \"#utility.yul\":1334:1349   */\n                  mstore\n                    /* \"#utility.yul\":1368:1372   */\n                  0x24\n                    /* \"#utility.yul\":1365:1366   */\n                  0x00\n                    /* \"#utility.yul\":1358:1373   */\n                  revert\n                    /* \"#utility.yul\":1385:1666   */\n                tag_36:\n                    /* \"#utility.yul\":1468:1495   */\n                  tag_60\n                    /* \"#utility.yul\":1490:1494   */\n                  dup3\n                    /* \"#utility.yul\":1468:1495   */\n                  tag_34\n                  jump\t// in\n                tag_60:\n                    /* \"#utility.yul\":1460:1466   */\n                  dup2\n                    /* \"#utility.yul\":1456:1496   */\n                  add\n                    /* \"#utility.yul\":1598:1604   */\n                  dup2\n                    /* \"#utility.yul\":1586:1596   */\n                  dup2\n                    /* \"#utility.yul\":1583:1605   */\n                  lt\n                    /* \"#utility.yul\":1562:1580   */\n                  0xffffffffffffffff\n                    /* \"#utility.yul\":1550:1560   */\n                  dup3\n                    /* \"#utility.yul\":1547:1581   */\n                  gt\n                    /* \"#utility.yul\":1544:1606   */\n                  or\n                    /* \"#utility.yul\":1541:1629   */\n                  iszero\n                  tag_61\n                  jumpi\n                    /* \"#utility.yul\":1609:1627   */\n                  tag_62\n                  tag_35\n                  jump\t// in\n                tag_62:\n                    /* \"#utility.yul\":1541:1629   */\n                tag_61:\n                    /* \"#utility.yul\":1649:1659   */\n                  dup1\n                    /* \"#utility.yul\":1645:1647   */\n                  0x40\n                    /* \"#utility.yul\":1638:1660   */\n                  mstore\n                    /* \"#utility.yul\":1428:1666   */\n                  pop\n                    /* \"#utility.yul\":1385:1666   */\n                  pop\n                  pop\n                  jump\t// out\n                    /* \"#utility.yul\":1672:1801   */\n                tag_37:\n                    /* \"#utility.yul\":1706:1712   */\n                  0x00\n                    /* \"#utility.yul\":1733:1753   */\n                  tag_64\n                  tag_25\n                  jump\t// in\n                tag_64:\n                    /* \"#utility.yul\":1723:1753   */\n                  swap1\n                  pop\n                    /* \"#utility.yul\":1762:1795   */\n                  tag_65\n                    /* \"#utility.yul\":1790:1794   */\n                  dup3\n                    /* \"#utility.yul\":1782:1788   */\n                  dup3\n                    /* \"#utility.yul\":1762:1795   */\n                  tag_36\n                  jump\t// in\n                tag_65:\n                    /* \"#utility.yul\":1672:1801   */\n                  swap2\n                  swap1\n                  pop\n                  jump\t// out\n                    /* \"#utility.yul\":1807:2115   */\n                tag_38:\n                    /* \"#utility.yul\":1869:1873   */\n                  0x00\n                    /* \"#utility.yul\":1959:1977   */\n                  0xffffffffffffffff\n                    /* \"#utility.yul\":1951:1957   */\n                  dup3\n                    /* \"#utility.yul\":1948:1978   */\n                  gt\n                    /* \"#utility.yul\":1945:2001   */\n                  iszero\n                  tag_67\n                  jumpi\n                    /* \"#utility.yul\":1981:1999   */\n                  tag_68\n                  tag_35\n                  jump\t// in\n                tag_68:\n                    /* \"#utility.yul\":1945:2001   */\n                tag_67:\n                    /* \"#utility.yul\":2019:2048   */\n                  tag_69\n                    /* \"#utility.yul\":2041:2047   */\n                  dup3\n                    /* \"#utility.yul\":2019:2048   */\n                  tag_34\n                  jump\t// in\n                tag_69:\n                    /* \"#utility.yul\":2011:2048   */\n                  swap1\n                  pop\n                    /* \"#utility.yul\":2103:2107   */\n                  0x20\n                    /* \"#utility.yul\":2097:2101   */\n                  dup2\n                    /* \"#utility.yul\":2093:2108   */\n                  add\n                    /* \"#utility.yul\":2085:2108   */\n                  swap1\n                  pop\n                    /* \"#utility.yul\":1807:2115   */\n                  swap2\n                  swap1\n                  pop\n                  jump\t// out\n                    /* \"#utility.yul\":2121:2428   */\n                tag_39:\n                    /* \"#utility.yul\":2189:2190   */\n                  0x00\n                    /* \"#utility.yul\":2199:2312   */\n                tag_71:\n                    /* \"#utility.yul\":2213:2219   */\n                  dup4\n                    /* \"#utility.yul\":2210:2211   */\n                  dup2\n                    /* \"#utility.yul\":2207:2220   */\n                  lt\n                    /* \"#utility.yul\":2199:2312   */\n                  iszero\n                  tag_73\n                  jumpi\n                    /* \"#utility.yul\":2298:2299   */\n                  dup1\n                    /* \"#utility.yul\":2293:2296   */\n                  dup3\n                    /* \"#utility.yul\":2289:2300   */\n                  add\n                    /* \"#utility.yul\":2283:2301   */\n                  mload\n                    /* \"#utility.yul\":2279:2280   */\n                  dup2\n                    /* \"#utility.yul\":2274:2277   */\n                  dup5\n                    /* \"#utility.yul\":2270:2281   */\n                  add\n                    /* \"#utility.yul\":2263:2302   */\n                  mstore\n                    /* \"#utility.yul\":2235:2237   */\n                  0x20\n                    /* \"#utility.yul\":2232:2233   */\n                  dup2\n                    /* \"#utility.yul\":2228:2238   */\n                  add\n                    /* \"#utility.yul\":2223:2238   */\n                  swap1\n                  pop\n                    /* \"#utility.yul\":2199:2312   */\n                  jump(tag_71)\n                tag_73:\n                    /* \"#utility.yul\":2330:2336   */\n                  dup4\n                    /* \"#utility.yul\":2327:2328   */\n                  dup2\n                    /* \"#utility.yul\":2324:2337   */\n                  gt\n                    /* \"#utility.yul\":2321:2422   */\n                  iszero\n                  tag_74\n                  jumpi\n                    /* \"#utility.yul\":2410:2411   */\n                  0x00\n                    /* \"#utility.yul\":2401:2407   */\n                  dup5\n                    /* \"#utility.yul\":2396:2399   */\n                  dup5\n                    /* \"#utility.yul\":2392:2408   */\n                  add\n                    /* \"#utility.yul\":2385:2412   */\n                  mstore\n                    /* \"#utility.yul\":2321:2422   */\n                tag_74:\n                    /* \"#utility.yul\":2170:2428   */\n                  pop\n                    /* \"#utility.yul\":2121:2428   */\n                  pop\n                  pop\n                  pop\n                  jump\t// out\n                    /* \"#utility.yul\":2434:2855   */\n                tag_40:\n                    /* \"#utility.yul\":2523:2528   */\n                  0x00\n                    /* \"#utility.yul\":2548:2614   */\n                  tag_76\n                    /* \"#utility.yul\":2564:2613   */\n                  tag_77\n                    /* \"#utility.yul\":2606:2612   */\n                  dup5\n                    /* \"#utility.yul\":2564:2613   */\n                  tag_38\n                  jump\t// in\n                tag_77:\n                    /* \"#utility.yul\":2548:2614   */\n                  tag_37\n                  jump\t// in\n                tag_76:\n                    /* \"#utility.yul\":2539:2614   */\n                  swap1\n                  pop\n                    /* \"#utility.yul\":2637:2643   */\n                  dup3\n                    /* \"#utility.yul\":2630:2635   */\n                  dup2\n                    /* \"#utility.yul\":2623:2644   */\n                  mstore\n                    /* \"#utility.yul\":2675:2679   */\n                  0x20\n                    /* \"#utility.yul\":2668:2673   */\n                  dup2\n                    /* \"#utility.yul\":2664:2680   */\n                  add\n                    /* \"#utility.yul\":2713:2716   */\n                  dup5\n                    /* \"#utility.yul\":2704:2710   */\n                  dup5\n                    /* \"#utility.yul\":2699:2702   */\n                  dup5\n                    /* \"#utility.yul\":2695:2711   */\n                  add\n                    /* \"#utility.yul\":2692:2717   */\n                  gt\n                    /* \"#utility.yul\":2689:2801   */\n                  iszero\n                  tag_78\n                  jumpi\n                    /* \"#utility.yul\":2720:2799   */\n                  tag_79\n                  tag_33\n                  jump\t// in\n                tag_79:\n                    /* \"#utility.yul\":2689:2801   */\n                tag_78:\n                    /* \"#utility.yul\":2810:2849   */\n                  tag_80\n                    /* \"#utility.yul\":2842:2848   */\n                  dup5\n                    /* \"#utility.yul\":2837:2840   */\n                  dup3\n                    /* \"#utility.yul\":2832:2835   */\n                  dup6\n                    /* \"#utility.yul\":2810:2849   */\n                  tag_39\n                  jump\t// in\n                tag_80:\n                    /* \"#utility.yul\":2529:2855   */\n                  pop\n                    /* \"#utility.yul\":2434:2855   */\n                  swap4\n                  swap3\n                  pop\n                  pop\n                  pop\n                  jump\t// out\n                    /* \"#utility.yul\":2875:3230   */\n                tag_41:\n                    /* \"#utility.yul\":2942:2947   */\n                  0x00\n                    /* \"#utility.yul\":2991:2994   */\n                  dup3\n                    /* \"#utility.yul\":2984:2988   */\n                  0x1f\n                    /* \"#utility.yul\":2976:2982   */\n                  dup4\n                    /* \"#utility.yul\":2972:2989   */\n                  add\n                    /* \"#utility.yul\":2968:2995   */\n                  slt\n                    /* \"#utility.yul\":2958:3080   */\n                  tag_82\n                  jumpi\n                    /* \"#utility.yul\":2999:3078   */\n                  tag_83\n                  tag_32\n                  jump\t// in\n                tag_83:\n                    /* \"#utility.yul\":2958:3080   */\n                tag_82:\n                    /* \"#utility.yul\":3109:3115   */\n                  dup2\n                    /* \"#utility.yul\":3103:3116   */\n                  mload\n                    /* \"#utility.yul\":3134:3224   */\n                  tag_84\n                    /* \"#utility.yul\":3220:3223   */\n                  dup5\n                    /* \"#utility.yul\":3212:3218   */\n                  dup3\n                    /* \"#utility.yul\":3205:3209   */\n                  0x20\n                    /* \"#utility.yul\":3197:3203   */\n                  dup7\n                    /* \"#utility.yul\":3193:3210   */\n                  add\n                    /* \"#utility.yul\":3134:3224   */\n                  tag_40\n                  jump\t// in\n                tag_84:\n                    /* \"#utility.yul\":3125:3224   */\n                  swap2\n                  pop\n                    /* \"#utility.yul\":2948:3230   */\n                  pop\n                    /* \"#utility.yul\":2875:3230   */\n                  swap3\n                  swap2\n                  pop\n                  pop\n                  jump\t// out\n                    /* \"#utility.yul\":3236:4716   */\n                tag_3:\n                    /* \"#utility.yul\":3371:3377   */\n                  0x00\n                    /* \"#utility.yul\":3379:3385   */\n                  dup1\n                    /* \"#utility.yul\":3387:3393   */\n                  0x00\n                    /* \"#utility.yul\":3395:3401   */\n                  dup1\n                    /* \"#utility.yul\":3403:3409   */\n                  0x00\n                    /* \"#utility.yul\":3411:3417   */\n                  dup1\n                    /* \"#utility.yul\":3460:3463   */\n                  0xc0\n                    /* \"#utility.yul\":3448:3457   */\n                  dup8\n                    /* \"#utility.yul\":3439:3446   */\n                  dup10\n                    /* \"#utility.yul\":3435:3458   */\n                  sub\n                    /* \"#utility.yul\":3431:3464   */\n                  slt\n                    /* \"#utility.yul\":3428:3548   */\n                  iszero\n                  tag_86\n                  jumpi\n                    /* \"#utility.yul\":3467:3546   */\n                  tag_87\n                  tag_26\n                  jump\t// in\n                tag_87:\n                    /* \"#utility.yul\":3428:3548   */\n                tag_86:\n                    /* \"#utility.yul\":3587:3588   */\n                  0x00\n                    /* \"#utility.yul\":3612:3676   */\n                  tag_88\n                    /* \"#utility.yul\":3668:3675   */\n                  dup10\n                    /* \"#utility.yul\":3659:3665   */\n                  dup3\n                    /* \"#utility.yul\":3648:3657   */\n                  dup11\n                    /* \"#utility.yul\":3644:3666   */\n                  add\n                    /* \"#utility.yul\":3612:3676   */\n                  tag_31\n                  jump\t// in\n                tag_88:\n                    /* \"#utility.yul\":3602:3676   */\n                  swap7\n                  pop\n                    /* \"#utility.yul\":3558:3686   */\n                  pop\n                    /* \"#utility.yul\":3725:3727   */\n                  0x20\n                    /* \"#utility.yul\":3751:3815   */\n                  tag_89\n                    /* \"#utility.yul\":3807:3814   */\n                  dup10\n                    /* \"#utility.yul\":3798:3804   */\n                  dup3\n                    /* \"#utility.yul\":3787:3796   */\n                  dup11\n                    /* \"#utility.yul\":3783:3805   */\n                  add\n                    /* \"#utility.yul\":3751:3815   */\n                  tag_31\n                  jump\t// in\n                tag_89:\n                    /* \"#utility.yul\":3741:3815   */\n                  swap6\n                  pop\n                    /* \"#utility.yul\":3696:3825   */\n                  pop\n                    /* \"#utility.yul\":3885:3887   */\n                  0x40\n                    /* \"#utility.yul\":3874:3883   */\n                  dup8\n                    /* \"#utility.yul\":3870:3888   */\n                  add\n                    /* \"#utility.yul\":3864:3889   */\n                  mload\n                    /* \"#utility.yul\":3916:3934   */\n                  0xffffffffffffffff\n                    /* \"#utility.yul\":3908:3914   */\n                  dup2\n                    /* \"#utility.yul\":3905:3935   */\n                  gt\n                    /* \"#utility.yul\":3902:4019   */\n                  iszero\n                  tag_90\n                  jumpi\n                    /* \"#utility.yul\":3938:4017   */\n                  tag_91\n                  tag_27\n                  jump\t// in\n                tag_91:\n                    /* \"#utility.yul\":3902:4019   */\n                tag_90:\n                    /* \"#utility.yul\":4043:4117   */\n                  tag_92\n                    /* \"#utility.yul\":4109:4116   */\n                  dup10\n                    /* \"#utility.yul\":4100:4106   */\n                  dup3\n                    /* \"#utility.yul\":4089:4098   */\n                  dup11\n                    /* \"#utility.yul\":4085:4107   */\n                  add\n                    /* \"#utility.yul\":4043:4117   */\n                  tag_41\n                  jump\t// in\n                tag_92:\n                    /* \"#utility.yul\":4033:4117   */\n                  swap5\n                  pop\n                    /* \"#utility.yul\":3835:4127   */\n                  pop\n                    /* \"#utility.yul\":4187:4189   */\n                  0x60\n                    /* \"#utility.yul\":4176:4185   */\n                  dup8\n                    /* \"#utility.yul\":4172:4190   */\n                  add\n                    /* \"#utility.yul\":4166:4191   */\n                  mload\n                    /* \"#utility.yul\":4218:4236   */\n                  0xffffffffffffffff\n                    /* \"#utility.yul\":4210:4216   */\n                  dup2\n                    /* \"#utility.yul\":4207:4237   */\n                  gt\n                    /* \"#utility.yul\":4204:4321   */\n                  iszero\n                  tag_93\n                  jumpi\n                    /* \"#utility.yul\":4240:4319   */\n                  tag_94\n                  tag_27\n                  jump\t// in\n                tag_94:\n                    /* \"#utility.yul\":4204:4321   */\n                tag_93:\n                    /* \"#utility.yul\":4345:4419   */\n                  tag_95\n                    /* \"#utility.yul\":4411:4418   */\n                  dup10\n                    /* \"#utility.yul\":4402:4408   */\n                  dup3\n                    /* \"#utility.yul\":4391:4400   */\n                  dup11\n                    /* \"#utility.yul\":4387:4409   */\n                  add\n                    /* \"#utility.yul\":4345:4419   */\n                  tag_41\n                  jump\t// in\n                tag_95:\n                    /* \"#utility.yul\":4335:4419   */\n                  swap4\n                  pop\n                    /* \"#utility.yul\":4137:4429   */\n                  pop\n                    /* \"#utility.yul\":4468:4471   */\n                  0x80\n                    /* \"#utility.yul\":4495:4559   */\n                  tag_96\n                    /* \"#utility.yul\":4551:4558   */\n                  dup10\n                    /* \"#utility.yul\":4542:4548   */\n                  dup3\n                    /* \"#utility.yul\":4531:4540   */\n                  dup11\n                    /* \"#utility.yul\":4527:4549   */\n                  add\n                    /* \"#utility.yul\":4495:4559   */\n                  tag_31\n                  jump\t// in\n                tag_96:\n                    /* \"#utility.yul\":4485:4559   */\n                  swap3\n                  pop\n                    /* \"#utility.yul\":4439:4569   */\n                  pop\n                    /* \"#utility.yul\":4608:4611   */\n                  0xa0\n                    /* \"#utility.yul\":4635:4699   */\n                  tag_97\n                    /* \"#utility.yul\":4691:4698   */\n                  dup10\n                    /* \"#utility.yul\":4682:4688   */\n                  dup3\n                    /* \"#utility.yul\":4671:4680   */\n                  dup11\n                    /* \"#utility.yul\":4667:4689   */\n                  add\n                    /* \"#utility.yul\":4635:4699   */\n                  tag_31\n                  jump\t// in\n                tag_97:\n                    /* \"#utility.yul\":4625:4699   */\n                  swap2\n                  pop\n                    /* \"#utility.yul\":4579:4709   */\n                  pop\n                    /* \"#utility.yul\":3236:4716   */\n                  swap3\n                  swap6\n                  pop\n                  swap3\n                  swap6\n                  pop\n                  swap3\n                  swap6\n                  jump\t// out\n                    /* \"#utility.yul\":4722:4902   */\n                tag_42:\n                    /* \"#utility.yul\":4770:4847   */\n                  0x4e487b7100000000000000000000000000000000000000000000000000000000\n                    /* \"#utility.yul\":4767:4768   */\n                  0x00\n                    /* \"#utility.yul\":4760:4848   */\n                  mstore\n                    /* \"#utility.yul\":4867:4871   */\n                  0x22\n                    /* \"#utility.yul\":4864:4865   */\n                  0x04\n                    /* \"#utility.yul\":4857:4872   */\n                  mstore\n                    /* \"#utility.yul\":4891:4895   */\n                  0x24\n                    /* \"#utility.yul\":4888:4889   */\n                  0x00\n                    /* \"#utility.yul\":4881:4896   */\n                  revert\n                    /* \"#utility.yul\":4908:5228   */\n                tag_15:\n                    /* \"#utility.yul\":4952:4958   */\n                  0x00\n                    /* \"#utility.yul\":4989:4990   */\n                  0x02\n                    /* \"#utility.yul\":4983:4987   */\n                  dup3\n                    /* \"#utility.yul\":4979:4991   */\n                  div\n                    /* \"#utility.yul\":4969:4991   */\n                  swap1\n                  pop\n                    /* \"#utility.yul\":5036:5037   */\n                  0x01\n                    /* \"#utility.yul\":5030:5034   */\n                  dup3\n                    /* \"#utility.yul\":5026:5038   */\n                  and\n                    /* \"#utility.yul\":5057:5075   */\n                  dup1\n                    /* \"#utility.yul\":5047:5128   */\n                  tag_100\n                  jumpi\n                    /* \"#utility.yul\":5113:5117   */\n                  0x7f\n                    /* \"#utility.yul\":5105:5111   */\n                  dup3\n                    /* \"#utility.yul\":5101:5118   */\n                  and\n                    /* \"#utility.yul\":5091:5118   */\n                  swap2\n                  pop\n                    /* \"#utility.yul\":5047:5128   */\n                tag_100:\n                    /* \"#utility.yul\":5175:5177   */\n                  0x20\n                    /* \"#utility.yul\":5167:5173   */\n                  dup3\n                    /* \"#utility.yul\":5164:5178   */\n                  lt\n                    /* \"#utility.yul\":5144:5162   */\n                  dup2\n                    /* \"#utility.yul\":5141:5179   */\n                  eq\n                    /* \"#utility.yul\":5138:5222   */\n                  iszero\n                  tag_101\n                  jumpi\n                    /* \"#utility.yul\":5194:5212   */\n                  tag_102\n                  tag_42\n                  jump\t// in\n                tag_102:\n                    /* \"#utility.yul\":5138:5222   */\n                tag_101:\n                    /* \"#utility.yul\":4959:5228   */\n                  pop\n                    /* \"#utility.yul\":4908:5228   */\n                  swap2\n                  swap1\n                  pop\n                  jump\t// out\n                    /* \"Story.sol\":7828:9681  contract Chapter {... */\n                tag_13:\n                  dataSize(sub_0)\n                  dup1\n                  dataOffset(sub_0)\n                  0x00\n                  codecopy\n                  0x00\n                  return\n                stop\n\n                sub_0: assembly {\n                        /* \"Story.sol\":7828:9681  contract Chapter {... */\n                      mstore(0x40, 0x80)\n                      callvalue\n                      dup1\n                      iszero\n                      tag_1\n                      jumpi\n                      0x00\n                      dup1\n                      revert\n                    tag_1:\n                      pop\n                      jumpi(tag_2, lt(calldatasize, 0x04))\n                      shr(0xe0, calldataload(0x00))\n                      dup1\n                      0xa523b88a\n                      gt\n                      tag_14\n                      jumpi\n                      dup1\n                      0xa523b88a\n                      eq\n                      tag_8\n                      jumpi\n                      dup1\n                      0xa6c3e6b9\n                      eq\n                      tag_9\n                      jumpi\n                      dup1\n                      0xc5fe6ffc\n                      eq\n                      tag_10\n                      jumpi\n                      dup1\n                      0xc623674f\n                      eq\n                      tag_11\n                      jumpi\n                      dup1\n                      0xe5a0af3d\n                      eq\n                      tag_12\n                      jumpi\n                      dup1\n                      0xed777791\n                      eq\n                      tag_13\n                      jumpi\n                      jump(tag_2)\n                    tag_14:\n                      dup1\n                      0x4051ddac\n                      eq\n                      tag_3\n                      jumpi\n                      dup1\n                      0x46c922d1\n                      eq\n                      tag_4\n                      jumpi\n                      dup1\n                      0x4a79d50c\n                      eq\n                      tag_5\n                      jumpi\n                      dup1\n                      0x8758ce83\n                      eq\n                      tag_6\n                      jumpi\n                      dup1\n                      0x988e46c8\n                      eq\n                      tag_7\n                      jumpi\n                    tag_2:\n                      0x00\n                      dup1\n                      revert\n                        /* \"Story.sol\":9320:9678  function getSummary() public view returns (... */\n                    tag_3:\n                      tag_15\n                      tag_16\n                      jump\t// in\n                    tag_15:\n                      mload(0x40)\n                      tag_17\n                      swap8\n                      swap7\n                      swap6\n                      swap5\n                      swap4\n                      swap3\n                      swap2\n                      swap1\n                      tag_18\n                      jump\t// in\n                    tag_17:\n                      mload(0x40)\n                      dup1\n                      swap2\n                      sub\n                      swap1\n                      return\n                        /* \"Story.sol\":7887:7907  address public story */\n                    tag_4:\n                      tag_19\n                      tag_20\n                      jump\t// in\n                    tag_19:\n                      mload(0x40)\n                      tag_21\n                      swap2\n                      swap1\n                      tag_22\n                      jump\t// in\n                    tag_21:\n                      mload(0x40)\n                      dup1\n                      swap2\n                      sub\n                      swap1\n                      return\n                        /* \"Story.sol\":7943:7962  string public title */\n                    tag_5:\n                      tag_23\n                      tag_24\n                      jump\t// in\n                    tag_23:\n                      mload(0x40)\n                      tag_25\n                      swap2\n                      swap1\n                      tag_26\n                      jump\t// in\n                    tag_25:\n                      mload(0x40)\n                      dup1\n                      swap2\n                      sub\n                      swap1\n                      return\n                        /* \"Story.sol\":8881:9121  function linkParentChapter(address parentChapter) public {... */\n                    tag_6:\n                      tag_27\n                      0x04\n                      dup1\n                      calldatasize\n                      sub\n                      dup2\n                      add\n                      swap1\n                      tag_28\n                      swap2\n                      swap1\n                      tag_29\n                      jump\t// in\n                    tag_28:\n                      tag_30\n                      jump\t// in\n                    tag_27:\n                      stop\n                        /* \"Story.sol\":8637:8873  function linkChildChapter(address childChapter) public {... */\n                    tag_7:\n                      tag_31\n                      0x04\n                      dup1\n                      calldatasize\n                      sub\n                      dup2\n                      add\n                      swap1\n                      tag_32\n                      swap2\n                      swap1\n                      tag_29\n                      jump\t// in\n                    tag_32:\n                      tag_33\n                      jump\t// in\n                    tag_31:\n                      stop\n                        /* \"Story.sol\":9137:9312  function like() public {... */\n                    tag_8:\n                      tag_34\n                      tag_35\n                      jump\t// in\n                    tag_34:\n                      stop\n                        /* \"Story.sol\":7915:7936  address public author */\n                    tag_9:\n                      tag_36\n                      tag_37\n                      jump\t// in\n                    tag_36:\n                      mload(0x40)\n                      tag_38\n                      swap2\n                      swap1\n                      tag_22\n                      jump\t// in\n                    tag_38:\n                      mload(0x40)\n                      dup1\n                      swap2\n                      sub\n                      swap1\n                      return\n                        /* \"Story.sol\":8042:8078  address[] public linkedChildChapters */\n                    tag_10:\n                      tag_39\n                      0x04\n                      dup1\n                      calldatasize\n                      sub\n                      dup2\n                      add\n                      swap1\n                      tag_40\n                      swap2\n                      swap1\n                      tag_41\n                      jump\t// in\n                    tag_40:\n                      tag_42\n                      jump\t// in\n                    tag_39:\n                      mload(0x40)\n                      tag_43\n                      swap2\n                      swap1\n                      tag_22\n                      jump\t// in\n                    tag_43:\n                      mload(0x40)\n                      dup1\n                      swap2\n                      sub\n                      swap1\n                      return\n                        /* \"Story.sol\":7969:7991  string public ipfsHash */\n                    tag_11:\n                      tag_44\n                      tag_45\n                      jump\t// in\n                    tag_44:\n                      mload(0x40)\n                      tag_46\n                      swap2\n                      swap1\n                      tag_26\n                      jump\t// in\n                    tag_46:\n                      mload(0x40)\n                      dup1\n                      swap2\n                      sub\n                      swap1\n                      return\n                        /* \"Story.sol\":8123:8147  uint256 public likeCount */\n                    tag_12:\n                      tag_47\n                      tag_48\n                      jump\t// in\n                    tag_47:\n                      mload(0x40)\n                      tag_49\n                      swap2\n                      swap1\n                      tag_50\n                      jump\t// in\n                    tag_49:\n                      mload(0x40)\n                      dup1\n                      swap2\n                      sub\n                      swap1\n                      return\n                        /* \"Story.sol\":7998:8035  address[] public linkedParentChapters */\n                    tag_13:\n                      tag_51\n                      0x04\n                      dup1\n                      calldatasize\n                      sub\n                      dup2\n                      add\n                      swap1\n                      tag_52\n                      swap2\n                      swap1\n                      tag_41\n                      jump\t// in\n                    tag_52:\n                      tag_53\n                      jump\t// in\n                    tag_51:\n                      mload(0x40)\n                      tag_54\n                      swap2\n                      swap1\n                      tag_22\n                      jump\t// in\n                    tag_54:\n                      mload(0x40)\n                      dup1\n                      swap2\n                      sub\n                      swap1\n                      return\n                        /* \"Story.sol\":9320:9678  function getSummary() public view returns (... */\n                    tag_16:\n                        /* \"Story.sol\":9373:9380  address */\n                      0x00\n                        /* \"Story.sol\":9382:9389  address */\n                      dup1\n                        /* \"Story.sol\":9391:9404  string memory */\n                      0x60\n                        /* \"Story.sol\":9406:9419  string memory */\n                      dup1\n                        /* \"Story.sol\":9421:9437  address[] memory */\n                      0x60\n                        /* \"Story.sol\":9439:9455  address[] memory */\n                      dup1\n                        /* \"Story.sol\":9457:9461  uint */\n                      0x00\n                        /* \"Story.sol\":9497:9502  story */\n                      dup1\n                      0x00\n                      swap1\n                      sload\n                      swap1\n                      0x0100\n                      exp\n                      swap1\n                      div\n                      0xffffffffffffffffffffffffffffffffffffffff\n                      and\n                        /* \"Story.sol\":9517:9523  author */\n                      0x01\n                      0x00\n                      swap1\n                      sload\n                      swap1\n                      0x0100\n                      exp\n                      swap1\n                      div\n                      0xffffffffffffffffffffffffffffffffffffffff\n                      and\n                        /* \"Story.sol\":9538:9543  title */\n                      0x02\n                        /* \"Story.sol\":9558:9566  ipfsHash */\n                      0x03\n                        /* \"Story.sol\":9581:9601  linkedParentChapters */\n                      0x04\n                        /* \"Story.sol\":9616:9635  linkedChildChapters */\n                      0x05\n                        /* \"Story.sol\":9650:9659  likeCount */\n                      sload(0x07)\n                        /* \"Story.sol\":9474:9670  return ( ... */\n                      dup5\n                      dup1\n                      sload\n                      tag_56\n                      swap1\n                      tag_57\n                      jump\t// in\n                    tag_56:\n                      dup1\n                      0x1f\n                      add\n                      0x20\n                      dup1\n                      swap2\n                      div\n                      mul\n                      0x20\n                      add\n                      mload(0x40)\n                      swap1\n                      dup2\n                      add\n                      0x40\n                      mstore\n                      dup1\n                      swap3\n                      swap2\n                      swap1\n                      dup2\n                      dup2\n                      mstore\n                      0x20\n                      add\n                      dup3\n                      dup1\n                      sload\n                      tag_58\n                      swap1\n                      tag_57\n                      jump\t// in\n                    tag_58:\n                      dup1\n                      iszero\n                      tag_59\n                      jumpi\n                      dup1\n                      0x1f\n                      lt\n                      tag_60\n                      jumpi\n                      0x0100\n                      dup1\n                      dup4\n                      sload\n                      div\n                      mul\n                      dup4\n                      mstore\n                      swap2\n                      0x20\n                      add\n                      swap2\n                      jump(tag_59)\n                    tag_60:\n                      dup3\n                      add\n                      swap2\n                      swap1\n                      0x00\n                      mstore\n                      keccak256(0x00, 0x20)\n                      swap1\n                    tag_61:\n                      dup2\n                      sload\n                      dup2\n                      mstore\n                      swap1\n                      0x01\n                      add\n                      swap1\n                      0x20\n                      add\n                      dup1\n                      dup4\n                      gt\n                      tag_61\n                      jumpi\n                      dup3\n                      swap1\n                      sub\n                      0x1f\n                      and\n                      dup3\n                      add\n                      swap2\n                    tag_59:\n                      pop\n                      pop\n                      pop\n                      pop\n                      pop\n                      swap5\n                      pop\n                      dup4\n                      dup1\n                      sload\n                      tag_62\n                      swap1\n                      tag_57\n                      jump\t// in\n                    tag_62:\n                      dup1\n                      0x1f\n                      add\n                      0x20\n                      dup1\n                      swap2\n                      div\n                      mul\n                      0x20\n                      add\n                      mload(0x40)\n                      swap1\n                      dup2\n                      add\n                      0x40\n                      mstore\n                      dup1\n                      swap3\n                      swap2\n                      swap1\n                      dup2\n                      dup2\n                      mstore\n                      0x20\n                      add\n                      dup3\n                      dup1\n                      sload\n                      tag_63\n                      swap1\n                      tag_57\n                      jump\t// in\n                    tag_63:\n                      dup1\n                      iszero\n                      tag_64\n                      jumpi\n                      dup1\n                      0x1f\n                      lt\n                      tag_65\n                      jumpi\n                      0x0100\n                      dup1\n                      dup4\n                      sload\n                      div\n                      mul\n                      dup4\n                      mstore\n                      swap2\n                      0x20\n                      add\n                      swap2\n                      jump(tag_64)\n                    tag_65:\n                      dup3\n                      add\n                      swap2\n                      swap1\n                      0x00\n                      mstore\n                      keccak256(0x00, 0x20)\n                      swap1\n                    tag_66:\n                      dup2\n                      sload\n                      dup2\n                      mstore\n                      swap1\n                      0x01\n                      add\n                      swap1\n                      0x20\n                      add\n                      dup1\n                      dup4\n                      gt\n                      tag_66\n                      jumpi\n                      dup3\n                      swap1\n                      sub\n                      0x1f\n                      and\n                      dup3\n                      add\n                      swap2\n                    tag_64:\n                      pop\n                      pop\n                      pop\n                      pop\n                      pop\n                      swap4\n                      pop\n                      dup3\n                      dup1\n                      sload\n                      dup1\n                      0x20\n                      mul\n                      0x20\n                      add\n                      mload(0x40)\n                      swap1\n                      dup2\n                      add\n                      0x40\n                      mstore\n                      dup1\n                      swap3\n                      swap2\n                      swap1\n                      dup2\n                      dup2\n                      mstore\n                      0x20\n                      add\n                      dup3\n                      dup1\n                      sload\n                      dup1\n                      iszero\n                      tag_67\n                      jumpi\n                      0x20\n                      mul\n                      dup3\n                      add\n                      swap2\n                      swap1\n                      0x00\n                      mstore\n                      keccak256(0x00, 0x20)\n                      swap1\n                    tag_68:\n                      dup2\n                      0x00\n                      swap1\n                      sload\n                      swap1\n                      0x0100\n                      exp\n                      swap1\n                      div\n                      0xffffffffffffffffffffffffffffffffffffffff\n                      and\n                      0xffffffffffffffffffffffffffffffffffffffff\n                      and\n                      dup2\n                      mstore\n                      0x20\n                      add\n                      swap1\n                      0x01\n                      add\n                      swap1\n                      dup1\n                      dup4\n                      gt\n                      tag_68\n                      jumpi\n                    tag_67:\n                      pop\n                      pop\n                      pop\n                      pop\n                      pop\n                      swap3\n                      pop\n                      dup2\n                      dup1\n                      sload\n                      dup1\n                      0x20\n                      mul\n                      0x20\n                      add\n                      mload(0x40)\n                      swap1\n                      dup2\n                      add\n                      0x40\n                      mstore\n                      dup1\n                      swap3\n                      swap2\n                      swap1\n                      dup2\n                      dup2\n                      mstore\n                      0x20\n                      add\n                      dup3\n                      dup1\n                      sload\n                      dup1\n                      iszero\n                      tag_69\n                      jumpi\n                      0x20\n                      mul\n                      dup3\n                      add\n                      swap2\n                      swap1\n                      0x00\n                      mstore\n                      keccak256(0x00, 0x20)\n                      swap1\n                    tag_70:\n                      dup2\n                      0x00\n                      swap1\n                      sload\n                      swap1\n                      0x0100\n                      exp\n                      swap1\n                      div\n                      0xffffffffffffffffffffffffffffffffffffffff\n                      and\n                      0xffffffffffffffffffffffffffffffffffffffff\n                      and\n                      dup2\n                      mstore\n                      0x20\n                      add\n                      swap1\n                      0x01\n                      add\n                      swap1\n                      dup1\n                      dup4\n                      gt\n                      tag_70\n                      jumpi\n                    tag_69:\n                      pop\n                      pop\n                      pop\n                      pop\n                      pop\n                      swap2\n                      pop\n                      swap7\n                      pop\n                      swap7\n                      pop\n                      swap7\n                      pop\n                      swap7\n                      pop\n                      swap7\n                      pop\n                      swap7\n                      pop\n                      swap7\n                      pop\n                        /* \"Story.sol\":9320:9678  function getSummary() public view returns (... */\n                      swap1\n                      swap2\n                      swap3\n                      swap4\n                      swap5\n                      swap6\n                      swap7\n                      jump\t// out\n                        /* \"Story.sol\":7887:7907  address public story */\n                    tag_20:\n                      0x00\n                      dup1\n                      sload\n                      swap1\n                      0x0100\n                      exp\n                      swap1\n                      div\n                      0xffffffffffffffffffffffffffffffffffffffff\n                      and\n                      dup2\n                      jump\t// out\n                        /* \"Story.sol\":7943:7962  string public title */\n                    tag_24:\n                      0x02\n                      dup1\n                      sload\n                      tag_71\n                      swap1\n                      tag_57\n                      jump\t// in\n                    tag_71:\n                      dup1\n                      0x1f\n                      add\n                      0x20\n                      dup1\n                      swap2\n                      div\n                      mul\n                      0x20\n                      add\n                      mload(0x40)\n                      swap1\n                      dup2\n                      add\n                      0x40\n                      mstore\n                      dup1\n                      swap3\n                      swap2\n                      swap1\n                      dup2\n                      dup2\n                      mstore\n                      0x20\n                      add\n                      dup3\n                      dup1\n                      sload\n                      tag_72\n                      swap1\n                      tag_57\n                      jump\t// in\n                    tag_72:\n                      dup1\n                      iszero\n                      tag_73\n                      jumpi\n                      dup1\n                      0x1f\n                      lt\n                      tag_74\n                      jumpi\n                      0x0100\n                      dup1\n                      dup4\n                      sload\n                      div\n                      mul\n                      dup4\n                      mstore\n                      swap2\n                      0x20\n                      add\n                      swap2\n                      jump(tag_73)\n                    tag_74:\n                      dup3\n                      add\n                      swap2\n                      swap1\n                      0x00\n                      mstore\n                      keccak256(0x00, 0x20)\n                      swap1\n                    tag_75:\n                      dup2\n                      sload\n                      dup2\n                      mstore\n                      swap1\n                      0x01\n                      add\n                      swap1\n                      0x20\n                      add\n                      dup1\n                      dup4\n                      gt\n                      tag_75\n                      jumpi\n                      dup3\n                      swap1\n                      sub\n                      0x1f\n                      and\n                      dup3\n                      add\n                      swap2\n                    tag_73:\n                      pop\n                      pop\n                      pop\n                      pop\n                      pop\n                      dup2\n                      jump\t// out\n                        /* \"Story.sol\":8881:9121  function linkParentChapter(address parentChapter) public {... */\n                    tag_30:\n                        /* \"Story.sol\":8971:8976  story */\n                      0x00\n                      dup1\n                      sload\n                      swap1\n                      0x0100\n                      exp\n                      swap1\n                      div\n                      0xffffffffffffffffffffffffffffffffffffffff\n                      and\n                        /* \"Story.sol\":8957:8976  msg.sender == story */\n                      0xffffffffffffffffffffffffffffffffffffffff\n                      and\n                        /* \"Story.sol\":8957:8967  msg.sender */\n                      caller\n                        /* \"Story.sol\":8957:8976  msg.sender == story */\n                      0xffffffffffffffffffffffffffffffffffffffff\n                      and\n                      eq\n                        /* \"Story.sol\":8949:9062  require(msg.sender == story, \"This function has to be called from the story contract by an accepted author only\") */\n                      tag_77\n                      jumpi\n                      mload(0x40)\n                      0x08c379a000000000000000000000000000000000000000000000000000000000\n                      dup2\n                      mstore\n                      0x04\n                      add\n                      tag_78\n                      swap1\n                      tag_79\n                      jump\t// in\n                    tag_78:\n                      mload(0x40)\n                      dup1\n                      swap2\n                      sub\n                      swap1\n                      revert\n                    tag_77:\n                        /* \"Story.sol\":9073:9093  linkedParentChapters */\n                      0x04\n                        /* \"Story.sol\":9099:9112  parentChapter */\n                      dup2\n                        /* \"Story.sol\":9073:9113  linkedParentChapters.push(parentChapter) */\n                      swap1\n                      dup1\n                      0x01\n                      dup2\n                      sload\n                      add\n                      dup1\n                      dup3\n                      sstore\n                      dup1\n                      swap2\n                      pop\n                      pop\n                      0x01\n                      swap1\n                      sub\n                      swap1\n                      0x00\n                      mstore\n                      keccak256(0x00, 0x20)\n                      add\n                      0x00\n                      swap1\n                      swap2\n                      swap1\n                      swap2\n                      swap1\n                      swap2\n                      0x0100\n                      exp\n                      dup2\n                      sload\n                      dup2\n                      0xffffffffffffffffffffffffffffffffffffffff\n                      mul\n                      not\n                      and\n                      swap1\n                      dup4\n                      0xffffffffffffffffffffffffffffffffffffffff\n                      and\n                      mul\n                      or\n                      swap1\n                      sstore\n                      pop\n                        /* \"Story.sol\":8881:9121  function linkParentChapter(address parentChapter) public {... */\n                      pop\n                      jump\t// out\n                        /* \"Story.sol\":8637:8873  function linkChildChapter(address childChapter) public {... */\n                    tag_33:\n                        /* \"Story.sol\":8725:8730  story */\n                      0x00\n                      dup1\n                      sload\n                      swap1\n                      0x0100\n                      exp\n                      swap1\n                      div\n                      0xffffffffffffffffffffffffffffffffffffffff\n                      and\n                        /* \"Story.sol\":8711:8730  msg.sender == story */\n                      0xffffffffffffffffffffffffffffffffffffffff\n                      and\n                        /* \"Story.sol\":8711:8721  msg.sender */\n                      caller\n                        /* \"Story.sol\":8711:8730  msg.sender == story */\n                      0xffffffffffffffffffffffffffffffffffffffff\n                      and\n                      eq\n                        /* \"Story.sol\":8703:8816  require(msg.sender == story, \"This function has to be called from the story contract by an accepted author only\") */\n                      tag_82\n                      jumpi\n                      mload(0x40)\n                      0x08c379a000000000000000000000000000000000000000000000000000000000\n                      dup2\n                      mstore\n                      0x04\n                      add\n                      tag_83\n                      swap1\n                      tag_79\n                      jump\t// in\n                    tag_83:\n                      mload(0x40)\n                      dup1\n                      swap2\n                      sub\n                      swap1\n                      revert\n                    tag_82:\n                        /* \"Story.sol\":8827:8846  linkedChildChapters */\n                      0x05\n                        /* \"Story.sol\":8852:8864  childChapter */\n                      dup2\n                        /* \"Story.sol\":8827:8865  linkedChildChapters.push(childChapter) */\n                      swap1\n                      dup1\n                      0x01\n                      dup2\n                      sload\n                      add\n                      dup1\n                      dup3\n                      sstore\n                      dup1\n                      swap2\n                      pop\n                      pop\n                      0x01\n                      swap1\n                      sub\n                      swap1\n                      0x00\n                      mstore\n                      keccak256(0x00, 0x20)\n                      add\n                      0x00\n                      swap1\n                      swap2\n                      swap1\n                      swap2\n                      swap1\n                      swap2\n                      0x0100\n                      exp\n                      dup2\n                      sload\n                      dup2\n                      0xffffffffffffffffffffffffffffffffffffffff\n                      mul\n                      not\n                      and\n                      swap1\n                      dup4\n                      0xffffffffffffffffffffffffffffffffffffffff\n                      and\n                      mul\n                      or\n                      swap1\n                      sstore\n                      pop\n                        /* \"Story.sol\":8637:8873  function linkChildChapter(address childChapter) public {... */\n                      pop\n                      jump\t// out\n                        /* \"Story.sol\":9137:9312  function like() public {... */\n                    tag_35:\n                        /* \"Story.sol\":9180:9186  likers */\n                      0x06\n                        /* \"Story.sol\":9180:9198  likers[msg.sender] */\n                      0x00\n                        /* \"Story.sol\":9187:9197  msg.sender */\n                      caller\n                        /* \"Story.sol\":9180:9198  likers[msg.sender] */\n                      0xffffffffffffffffffffffffffffffffffffffff\n                      and\n                      0xffffffffffffffffffffffffffffffffffffffff\n                      and\n                      dup2\n                      mstore\n                      0x20\n                      add\n                      swap1\n                      dup2\n                      mstore\n                      0x20\n                      add\n                      0x00\n                      keccak256\n                      0x00\n                      swap1\n                      sload\n                      swap1\n                      0x0100\n                      exp\n                      swap1\n                      div\n                      0xff\n                      and\n                        /* \"Story.sol\":9179:9198  !likers[msg.sender] */\n                      iszero\n                        /* \"Story.sol\":9171:9229  require(!likers[msg.sender],\"You liked this story before\") */\n                      tag_86\n                      jumpi\n                      mload(0x40)\n                      0x08c379a000000000000000000000000000000000000000000000000000000000\n                      dup2\n                      mstore\n                      0x04\n                      add\n                      tag_87\n                      swap1\n                      tag_88\n                      jump\t// in\n                    tag_87:\n                      mload(0x40)\n                      dup1\n                      swap2\n                      sub\n                      swap1\n                      revert\n                    tag_86:\n                        /* \"Story.sol\":9261:9265  true */\n                      0x01\n                        /* \"Story.sol\":9240:9246  likers */\n                      0x06\n                        /* \"Story.sol\":9240:9258  likers[msg.sender] */\n                      0x00\n                        /* \"Story.sol\":9247:9257  msg.sender */\n                      caller\n                        /* \"Story.sol\":9240:9258  likers[msg.sender] */\n                      0xffffffffffffffffffffffffffffffffffffffff\n                      and\n                      0xffffffffffffffffffffffffffffffffffffffff\n                      and\n                      dup2\n                      mstore\n                      0x20\n                      add\n                      swap1\n                      dup2\n                      mstore\n                      0x20\n                      add\n                      0x00\n                      keccak256\n                      0x00\n                        /* \"Story.sol\":9240:9265  likers[msg.sender] = true */\n                      0x0100\n                      exp\n                      dup2\n                      sload\n                      dup2\n                      0xff\n                      mul\n                      not\n                      and\n                      swap1\n                      dup4\n                      iszero\n                      iszero\n                      mul\n                      or\n                      swap1\n                      sstore\n                      pop\n                        /* \"Story.sol\":9288:9304  likeCount.add(1) */\n                      tag_89\n                        /* \"Story.sol\":9302:9303  1 */\n                      0x01\n                        /* \"Story.sol\":9288:9297  likeCount */\n                      sload(0x07)\n                        /* \"Story.sol\":9288:9301  likeCount.add */\n                      tag_90\n                      swap1\n                        /* \"Story.sol\":9288:9304  likeCount.add(1) */\n                      swap2\n                      swap1\n                      0xffffffff\n                      and\n                      jump\t// in\n                    tag_89:\n                        /* \"Story.sol\":9276:9285  likeCount */\n                      0x07\n                        /* \"Story.sol\":9276:9304  likeCount = likeCount.add(1) */\n                      dup2\n                      swap1\n                      sstore\n                      pop\n                        /* \"Story.sol\":9137:9312  function like() public {... */\n                      jump\t// out\n                        /* \"Story.sol\":7915:7936  address public author */\n                    tag_37:\n                      0x01\n                      0x00\n                      swap1\n                      sload\n                      swap1\n                      0x0100\n                      exp\n                      swap1\n                      div\n                      0xffffffffffffffffffffffffffffffffffffffff\n                      and\n                      dup2\n                      jump\t// out\n                        /* \"Story.sol\":8042:8078  address[] public linkedChildChapters */\n                    tag_42:\n                      0x05\n                      dup2\n                      dup2\n                      sload\n                      dup2\n                      lt\n                      tag_91\n                      jumpi\n                      0x00\n                      dup1\n                      revert\n                    tag_91:\n                      swap1\n                      0x00\n                      mstore\n                      keccak256(0x00, 0x20)\n                      add\n                      0x00\n                      swap2\n                      pop\n                      sload\n                      swap1\n                      0x0100\n                      exp\n                      swap1\n                      div\n                      0xffffffffffffffffffffffffffffffffffffffff\n                      and\n                      dup2\n                      jump\t// out\n                        /* \"Story.sol\":7969:7991  string public ipfsHash */\n                    tag_45:\n                      0x03\n                      dup1\n                      sload\n                      tag_93\n                      swap1\n                      tag_57\n                      jump\t// in\n                    tag_93:\n                      dup1\n                      0x1f\n                      add\n                      0x20\n                      dup1\n                      swap2\n                      div\n                      mul\n                      0x20\n                      add\n                      mload(0x40)\n                      swap1\n                      dup2\n                      add\n                      0x40\n                      mstore\n                      dup1\n                      swap3\n                      swap2\n                      swap1\n                      dup2\n                      dup2\n                      mstore\n                      0x20\n                      add\n                      dup3\n                      dup1\n                      sload\n                      tag_94\n                      swap1\n                      tag_57\n                      jump\t// in\n                    tag_94:\n                      dup1\n                      iszero\n                      tag_95\n                      jumpi\n                      dup1\n                      0x1f\n                      lt\n                      tag_96\n                      jumpi\n                      0x0100\n                      dup1\n                      dup4\n                      sload\n                      div\n                      mul\n                      dup4\n                      mstore\n                      swap2\n                      0x20\n                      add\n                      swap2\n                      jump(tag_95)\n                    tag_96:\n                      dup3\n                      add\n                      swap2\n                      swap1\n                      0x00\n                      mstore\n                      keccak256(0x00, 0x20)\n                      swap1\n                    tag_97:\n                      dup2\n                      sload\n                      dup2\n                      mstore\n                      swap1\n                      0x01\n                      add\n                      swap1\n                      0x20\n                      add\n                      dup1\n                      dup4\n                      gt\n                      tag_97\n                      jumpi\n                      dup3\n                      swap1\n                      sub\n                      0x1f\n                      and\n                      dup3\n                      add\n                      swap2\n                    tag_95:\n                      pop\n                      pop\n                      pop\n                      pop\n                      pop\n                      dup2\n                      jump\t// out\n                        /* \"Story.sol\":8123:8147  uint256 public likeCount */\n                    tag_48:\n                      sload(0x07)\n                      dup2\n                      jump\t// out\n                        /* \"Story.sol\":7998:8035  address[] public linkedParentChapters */\n                    tag_53:\n                      0x04\n                      dup2\n                      dup2\n                      sload\n                      dup2\n                      lt\n                      tag_98\n                      jumpi\n                      0x00\n                      dup1\n                      revert\n                    tag_98:\n                      swap1\n                      0x00\n                      mstore\n                      keccak256(0x00, 0x20)\n                      add\n                      0x00\n                      swap2\n                      pop\n                      sload\n                      swap1\n                      0x0100\n                      exp\n                      swap1\n                      div\n                      0xffffffffffffffffffffffffffffffffffffffff\n                      and\n                      dup2\n                      jump\t// out\n                        /* \"Story.sol\":84:263  function add(uint256 a, uint256 b) internal pure returns (uint256) {... */\n                    tag_90:\n                        /* \"Story.sol\":142:149  uint256 */\n                      0x00\n                        /* \"Story.sol\":162:171  uint256 c */\n                      dup1\n                        /* \"Story.sol\":178:179  b */\n                      dup3\n                        /* \"Story.sol\":174:175  a */\n                      dup5\n                        /* \"Story.sol\":174:179  a + b */\n                      tag_101\n                      swap2\n                      swap1\n                      tag_102\n                      jump\t// in\n                    tag_101:\n                        /* \"Story.sol\":162:179  uint256 c = a + b */\n                      swap1\n                      pop\n                        /* \"Story.sol\":203:204  a */\n                      dup4\n                        /* \"Story.sol\":198:199  c */\n                      dup2\n                        /* \"Story.sol\":198:204  c >= a */\n                      lt\n                      iszero\n                        /* \"Story.sol\":190:236  require(c >= a, \"SafeMath: addition overflow\") */\n                      tag_103\n                      jumpi\n                      mload(0x40)\n                      0x08c379a000000000000000000000000000000000000000000000000000000000\n                      dup2\n                      mstore\n                      0x04\n                      add\n                      tag_104\n                      swap1\n                      tag_105\n                      jump\t// in\n                    tag_104:\n                      mload(0x40)\n                      dup1\n                      swap2\n                      sub\n                      swap1\n                      revert\n                    tag_103:\n                        /* \"Story.sol\":254:255  c */\n                      dup1\n                        /* \"Story.sol\":247:255  return c */\n                      swap2\n                      pop\n                      pop\n                        /* \"Story.sol\":84:263  function add(uint256 a, uint256 b) internal pure returns (uint256) {... */\n                      swap3\n                      swap2\n                      pop\n                      pop\n                      jump\t// out\n                        /* \"#utility.yul\":7:133   */\n                    tag_106:\n                        /* \"#utility.yul\":44:51   */\n                      0x00\n                        /* \"#utility.yul\":84:126   */\n                      0xffffffffffffffffffffffffffffffffffffffff\n                        /* \"#utility.yul\":77:82   */\n                      dup3\n                        /* \"#utility.yul\":73:127   */\n                      and\n                        /* \"#utility.yul\":62:127   */\n                      swap1\n                      pop\n                        /* \"#utility.yul\":7:133   */\n                      swap2\n                      swap1\n                      pop\n                      jump\t// out\n                        /* \"#utility.yul\":139:235   */\n                    tag_107:\n                        /* \"#utility.yul\":176:183   */\n                      0x00\n                        /* \"#utility.yul\":205:229   */\n                      tag_141\n                        /* \"#utility.yul\":223:228   */\n                      dup3\n                        /* \"#utility.yul\":205:229   */\n                      tag_106\n                      jump\t// in\n                    tag_141:\n                        /* \"#utility.yul\":194:229   */\n                      swap1\n                      pop\n                        /* \"#utility.yul\":139:235   */\n                      swap2\n                      swap1\n                      pop\n                      jump\t// out\n                        /* \"#utility.yul\":241:359   */\n                    tag_108:\n                        /* \"#utility.yul\":328:352   */\n                      tag_143\n                        /* \"#utility.yul\":346:351   */\n                      dup2\n                        /* \"#utility.yul\":328:352   */\n                      tag_107\n                      jump\t// in\n                    tag_143:\n                        /* \"#utility.yul\":323:326   */\n                      dup3\n                        /* \"#utility.yul\":316:353   */\n                      mstore\n                        /* \"#utility.yul\":241:359   */\n                      pop\n                      pop\n                      jump\t// out\n                        /* \"#utility.yul\":365:464   */\n                    tag_109:\n                        /* \"#utility.yul\":417:423   */\n                      0x00\n                        /* \"#utility.yul\":451:456   */\n                      dup2\n                        /* \"#utility.yul\":445:457   */\n                      mload\n                        /* \"#utility.yul\":435:457   */\n                      swap1\n                      pop\n                        /* \"#utility.yul\":365:464   */\n                      swap2\n                      swap1\n                      pop\n                      jump\t// out\n                        /* \"#utility.yul\":470:639   */\n                    tag_110:\n                        /* \"#utility.yul\":554:565   */\n                      0x00\n                        /* \"#utility.yul\":588:594   */\n                      dup3\n                        /* \"#utility.yul\":583:586   */\n                      dup3\n                        /* \"#utility.yul\":576:595   */\n                      mstore\n                        /* \"#utility.yul\":628:632   */\n                      0x20\n                        /* \"#utility.yul\":623:626   */\n                      dup3\n                        /* \"#utility.yul\":619:633   */\n                      add\n                        /* \"#utility.yul\":604:633   */\n                      swap1\n                      pop\n                        /* \"#utility.yul\":470:639   */\n                      swap3\n                      swap2\n                      pop\n                      pop\n                      jump\t// out\n                        /* \"#utility.yul\":645:952   */\n                    tag_111:\n                        /* \"#utility.yul\":713:714   */\n                      0x00\n                        /* \"#utility.yul\":723:836   */\n                    tag_147:\n                        /* \"#utility.yul\":737:743   */\n                      dup4\n                        /* \"#utility.yul\":734:735   */\n                      dup2\n                        /* \"#utility.yul\":731:744   */\n                      lt\n                        /* \"#utility.yul\":723:836   */\n                      iszero\n                      tag_149\n                      jumpi\n                        /* \"#utility.yul\":822:823   */\n                      dup1\n                        /* \"#utility.yul\":817:820   */\n                      dup3\n                        /* \"#utility.yul\":813:824   */\n                      add\n                        /* \"#utility.yul\":807:825   */\n                      mload\n                        /* \"#utility.yul\":803:804   */\n                      dup2\n                        /* \"#utility.yul\":798:801   */\n                      dup5\n                        /* \"#utility.yul\":794:805   */\n                      add\n                        /* \"#utility.yul\":787:826   */\n                      mstore\n                        /* \"#utility.yul\":759:761   */\n                      0x20\n                        /* \"#utility.yul\":756:757   */\n                      dup2\n                        /* \"#utility.yul\":752:762   */\n                      add\n                        /* \"#utility.yul\":747:762   */\n                      swap1\n                      pop\n                        /* \"#utility.yul\":723:836   */\n                      jump(tag_147)\n                    tag_149:\n                        /* \"#utility.yul\":854:860   */\n                      dup4\n                        /* \"#utility.yul\":851:852   */\n                      dup2\n                        /* \"#utility.yul\":848:861   */\n                      gt\n                        /* \"#utility.yul\":845:946   */\n                      iszero\n                      tag_150\n                      jumpi\n                        /* \"#utility.yul\":934:935   */\n                      0x00\n                        /* \"#utility.yul\":925:931   */\n                      dup5\n                        /* \"#utility.yul\":920:923   */\n                      dup5\n                        /* \"#utility.yul\":916:932   */\n                      add\n                        /* \"#utility.yul\":909:936   */\n                      mstore\n                        /* \"#utility.yul\":845:946   */\n                    tag_150:\n                        /* \"#utility.yul\":694:952   */\n                      pop\n                        /* \"#utility.yul\":645:952   */\n                      pop\n                      pop\n                      pop\n                      jump\t// out\n                        /* \"#utility.yul\":958:1060   */\n                    tag_112:\n                        /* \"#utility.yul\":999:1005   */\n                      0x00\n                        /* \"#utility.yul\":1050:1052   */\n                      0x1f\n                        /* \"#utility.yul\":1046:1053   */\n                      not\n                        /* \"#utility.yul\":1041:1043   */\n                      0x1f\n                        /* \"#utility.yul\":1034:1039   */\n                      dup4\n                        /* \"#utility.yul\":1030:1044   */\n                      add\n                        /* \"#utility.yul\":1026:1054   */\n                      and\n                        /* \"#utility.yul\":1016:1054   */\n                      swap1\n                      pop\n                        /* \"#utility.yul\":958:1060   */\n                      swap2\n                      swap1\n                      pop\n                      jump\t// out\n                        /* \"#utility.yul\":1066:1430   */\n                    tag_113:\n                        /* \"#utility.yul\":1154:1157   */\n                      0x00\n                        /* \"#utility.yul\":1182:1221   */\n                      tag_153\n                        /* \"#utility.yul\":1215:1220   */\n                      dup3\n                        /* \"#utility.yul\":1182:1221   */\n                      tag_109\n                      jump\t// in\n                    tag_153:\n                        /* \"#utility.yul\":1237:1308   */\n                      tag_154\n                        /* \"#utility.yul\":1301:1307   */\n                      dup2\n                        /* \"#utility.yul\":1296:1299   */\n                      dup6\n                        /* \"#utility.yul\":1237:1308   */\n                      tag_110\n                      jump\t// in\n                    tag_154:\n                        /* \"#utility.yul\":1230:1308   */\n                      swap4\n                      pop\n                        /* \"#utility.yul\":1317:1369   */\n                      tag_155\n                        /* \"#utility.yul\":1362:1368   */\n                      dup2\n                        /* \"#utility.yul\":1357:1360   */\n                      dup6\n                        /* \"#utility.yul\":1350:1354   */\n                      0x20\n                        /* \"#utility.yul\":1343:1348   */\n                      dup7\n                        /* \"#utility.yul\":1339:1355   */\n                      add\n                        /* \"#utility.yul\":1317:1369   */\n                      tag_111\n                      jump\t// in\n                    tag_155:\n                        /* \"#utility.yul\":1394:1423   */\n                      tag_156\n                        /* \"#utility.yul\":1416:1422   */\n                      dup2\n                        /* \"#utility.yul\":1394:1423   */\n                      tag_112\n                      jump\t// in\n                    tag_156:\n                        /* \"#utility.yul\":1389:1392   */\n                      dup5\n                        /* \"#utility.yul\":1385:1424   */\n                      add\n                        /* \"#utility.yul\":1378:1424   */\n                      swap2\n                      pop\n                        /* \"#utility.yul\":1158:1430   */\n                      pop\n                        /* \"#utility.yul\":1066:1430   */\n                      swap3\n                      swap2\n                      pop\n                      pop\n                      jump\t// out\n                        /* \"#utility.yul\":1436:1550   */\n                    tag_114:\n                        /* \"#utility.yul\":1503:1509   */\n                      0x00\n                        /* \"#utility.yul\":1537:1542   */\n                      dup2\n                        /* \"#utility.yul\":1531:1543   */\n                      mload\n                        /* \"#utility.yul\":1521:1543   */\n                      swap1\n                      pop\n                        /* \"#utility.yul\":1436:1550   */\n                      swap2\n                      swap1\n                      pop\n                      jump\t// out\n                        /* \"#utility.yul\":1556:1740   */\n                    tag_115:\n                        /* \"#utility.yul\":1655:1666   */\n                      0x00\n                        /* \"#utility.yul\":1689:1695   */\n                      dup3\n                        /* \"#utility.yul\":1684:1687   */\n                      dup3\n                        /* \"#utility.yul\":1677:1696   */\n                      mstore\n                        /* \"#utility.yul\":1729:1733   */\n                      0x20\n                        /* \"#utility.yul\":1724:1727   */\n                      dup3\n                        /* \"#utility.yul\":1720:1734   */\n                      add\n                        /* \"#utility.yul\":1705:1734   */\n                      swap1\n                      pop\n                        /* \"#utility.yul\":1556:1740   */\n                      swap3\n                      swap2\n                      pop\n                      pop\n                      jump\t// out\n                        /* \"#utility.yul\":1746:1878   */\n                    tag_116:\n                        /* \"#utility.yul\":1813:1817   */\n                      0x00\n                        /* \"#utility.yul\":1836:1839   */\n                      dup2\n                        /* \"#utility.yul\":1828:1839   */\n                      swap1\n                      pop\n                        /* \"#utility.yul\":1866:1870   */\n                      0x20\n                        /* \"#utility.yul\":1861:1864   */\n                      dup3\n                        /* \"#utility.yul\":1857:1871   */\n                      add\n                        /* \"#utility.yul\":1849:1871   */\n                      swap1\n                      pop\n                        /* \"#utility.yul\":1746:1878   */\n                      swap2\n                      swap1\n                      pop\n                      jump\t// out\n                        /* \"#utility.yul\":1884:1992   */\n                    tag_117:\n                        /* \"#utility.yul\":1961:1985   */\n                      tag_161\n                        /* \"#utility.yul\":1979:1984   */\n                      dup2\n                        /* \"#utility.yul\":1961:1985   */\n                      tag_107\n                      jump\t// in\n                    tag_161:\n                        /* \"#utility.yul\":1956:1959   */\n                      dup3\n                        /* \"#utility.yul\":1949:1986   */\n                      mstore\n                        /* \"#utility.yul\":1884:1992   */\n                      pop\n                      pop\n                      jump\t// out\n                        /* \"#utility.yul\":1998:2177   */\n                    tag_118:\n                        /* \"#utility.yul\":2067:2077   */\n                      0x00\n                        /* \"#utility.yul\":2088:2134   */\n                      tag_163\n                        /* \"#utility.yul\":2130:2133   */\n                      dup4\n                        /* \"#utility.yul\":2122:2128   */\n                      dup4\n                        /* \"#utility.yul\":2088:2134   */\n                      tag_117\n                      jump\t// in\n                    tag_163:\n                        /* \"#utility.yul\":2166:2170   */\n                      0x20\n                        /* \"#utility.yul\":2161:2164   */\n                      dup4\n                        /* \"#utility.yul\":2157:2171   */\n                      add\n                        /* \"#utility.yul\":2143:2171   */\n                      swap1\n                      pop\n                        /* \"#utility.yul\":1998:2177   */\n                      swap3\n                      swap2\n                      pop\n                      pop\n                      jump\t// out\n                        /* \"#utility.yul\":2183:2296   */\n                    tag_119:\n                        /* \"#utility.yul\":2253:2257   */\n                      0x00\n                        /* \"#utility.yul\":2285:2289   */\n                      0x20\n                        /* \"#utility.yul\":2280:2283   */\n                      dup3\n                        /* \"#utility.yul\":2276:2290   */\n                      add\n                        /* \"#utility.yul\":2268:2290   */\n                      swap1\n                      pop\n                        /* \"#utility.yul\":2183:2296   */\n                      swap2\n                      swap1\n                      pop\n                      jump\t// out\n                        /* \"#utility.yul\":2332:3064   */\n                    tag_120:\n                        /* \"#utility.yul\":2451:2454   */\n                      0x00\n                        /* \"#utility.yul\":2480:2534   */\n                      tag_166\n                        /* \"#utility.yul\":2528:2533   */\n                      dup3\n                        /* \"#utility.yul\":2480:2534   */\n                      tag_114\n                      jump\t// in\n                    tag_166:\n                        /* \"#utility.yul\":2550:2636   */\n                      tag_167\n                        /* \"#utility.yul\":2629:2635   */\n                      dup2\n                        /* \"#utility.yul\":2624:2627   */\n                      dup6\n                        /* \"#utility.yul\":2550:2636   */\n                      tag_115\n                      jump\t// in\n                    tag_167:\n                        /* \"#utility.yul\":2543:2636   */\n                      swap4\n                      pop\n                        /* \"#utility.yul\":2660:2716   */\n                      tag_168\n                        /* \"#utility.yul\":2710:2715   */\n                      dup4\n                        /* \"#utility.yul\":2660:2716   */\n                      tag_116\n                      jump\t// in\n                    tag_168:\n                        /* \"#utility.yul\":2739:2746   */\n                      dup1\n                        /* \"#utility.yul\":2770:2771   */\n                      0x00\n                        /* \"#utility.yul\":2755:3039   */\n                    tag_169:\n                        /* \"#utility.yul\":2780:2786   */\n                      dup4\n                        /* \"#utility.yul\":2777:2778   */\n                      dup2\n                        /* \"#utility.yul\":2774:2787   */\n                      lt\n                        /* \"#utility.yul\":2755:3039   */\n                      iszero\n                      tag_171\n                      jumpi\n                        /* \"#utility.yul\":2856:2862   */\n                      dup2\n                        /* \"#utility.yul\":2850:2863   */\n                      mload\n                        /* \"#utility.yul\":2883:2946   */\n                      tag_172\n                        /* \"#utility.yul\":2942:2945   */\n                      dup9\n                        /* \"#utility.yul\":2927:2940   */\n                      dup3\n                        /* \"#utility.yul\":2883:2946   */\n                      tag_118\n                      jump\t// in\n                    tag_172:\n                        /* \"#utility.yul\":2876:2946   */\n                      swap8\n                      pop\n                        /* \"#utility.yul\":2969:3029   */\n                      tag_173\n                        /* \"#utility.yul\":3022:3028   */\n                      dup4\n                        /* \"#utility.yul\":2969:3029   */\n                      tag_119\n                      jump\t// in\n                    tag_173:\n                        /* \"#utility.yul\":2959:3029   */\n                      swap3\n                      pop\n                        /* \"#utility.yul\":2815:3039   */\n                      pop\n                        /* \"#utility.yul\":2802:2803   */\n                      0x01\n                        /* \"#utility.yul\":2799:2800   */\n                      dup2\n                        /* \"#utility.yul\":2795:2804   */\n                      add\n                        /* \"#utility.yul\":2790:2804   */\n                      swap1\n                      pop\n                        /* \"#utility.yul\":2755:3039   */\n                      jump(tag_169)\n                    tag_171:\n                        /* \"#utility.yul\":2759:2773   */\n                      pop\n                        /* \"#utility.yul\":3055:3058   */\n                      dup6\n                        /* \"#utility.yul\":3048:3058   */\n                      swap4\n                      pop\n                        /* \"#utility.yul\":2456:3064   */\n                      pop\n                      pop\n                      pop\n                        /* \"#utility.yul\":2332:3064   */\n                      swap3\n                      swap2\n                      pop\n                      pop\n                      jump\t// out\n                        /* \"#utility.yul\":3070:3147   */\n                    tag_121:\n                        /* \"#utility.yul\":3107:3114   */\n                      0x00\n                        /* \"#utility.yul\":3136:3141   */\n                      dup2\n                        /* \"#utility.yul\":3125:3141   */\n                      swap1\n                      pop\n                        /* \"#utility.yul\":3070:3147   */\n                      swap2\n                      swap1\n                      pop\n                      jump\t// out\n                        /* \"#utility.yul\":3153:3271   */\n                    tag_122:\n                        /* \"#utility.yul\":3240:3264   */\n                      tag_176\n                        /* \"#utility.yul\":3258:3263   */\n                      dup2\n                        /* \"#utility.yul\":3240:3264   */\n                      tag_121\n                      jump\t// in\n                    tag_176:\n                        /* \"#utility.yul\":3235:3238   */\n                      dup3\n                        /* \"#utility.yul\":3228:3265   */\n                      mstore\n                        /* \"#utility.yul\":3153:3271   */\n                      pop\n                      pop\n                      jump\t// out\n                        /* \"#utility.yul\":3277:4647   */\n                    tag_18:\n                        /* \"#utility.yul\":3678:3682   */\n                      0x00\n                        /* \"#utility.yul\":3716:3719   */\n                      0xe0\n                        /* \"#utility.yul\":3705:3714   */\n                      dup3\n                        /* \"#utility.yul\":3701:3720   */\n                      add\n                        /* \"#utility.yul\":3693:3720   */\n                      swap1\n                      pop\n                        /* \"#utility.yul\":3730:3801   */\n                      tag_178\n                        /* \"#utility.yul\":3798:3799   */\n                      0x00\n                        /* \"#utility.yul\":3787:3796   */\n                      dup4\n                        /* \"#utility.yul\":3783:3800   */\n                      add\n                        /* \"#utility.yul\":3774:3780   */\n                      dup11\n                        /* \"#utility.yul\":3730:3801   */\n                      tag_108\n                      jump\t// in\n                    tag_178:\n                        /* \"#utility.yul\":3811:3883   */\n                      tag_179\n                        /* \"#utility.yul\":3879:3881   */\n                      0x20\n                        /* \"#utility.yul\":3868:3877   */\n                      dup4\n                        /* \"#utility.yul\":3864:3882   */\n                      add\n                        /* \"#utility.yul\":3855:3861   */\n                      dup10\n                        /* \"#utility.yul\":3811:3883   */\n                      tag_108\n                      jump\t// in\n                    tag_179:\n                        /* \"#utility.yul\":3930:3939   */\n                      dup2\n                        /* \"#utility.yul\":3924:3928   */\n                      dup2\n                        /* \"#utility.yul\":3920:3940   */\n                      sub\n                        /* \"#utility.yul\":3915:3917   */\n                      0x40\n                        /* \"#utility.yul\":3904:3913   */\n                      dup4\n                        /* \"#utility.yul\":3900:3918   */\n                      add\n                        /* \"#utility.yul\":3893:3941   */\n                      mstore\n                        /* \"#utility.yul\":3958:4036   */\n                      tag_180\n                        /* \"#utility.yul\":4031:4035   */\n                      dup2\n                        /* \"#utility.yul\":4022:4028   */\n                      dup9\n                        /* \"#utility.yul\":3958:4036   */\n                      tag_113\n                      jump\t// in\n                    tag_180:\n                        /* \"#utility.yul\":3950:4036   */\n                      swap1\n                      pop\n                        /* \"#utility.yul\":4083:4092   */\n                      dup2\n                        /* \"#utility.yul\":4077:4081   */\n                      dup2\n                        /* \"#utility.yul\":4073:4093   */\n                      sub\n                        /* \"#utility.yul\":4068:4070   */\n                      0x60\n                        /* \"#utility.yul\":4057:4066   */\n                      dup4\n                        /* \"#utility.yul\":4053:4071   */\n                      add\n                        /* \"#utility.yul\":4046:4094   */\n                      mstore\n                        /* \"#utility.yul\":4111:4189   */\n                      tag_181\n                        /* \"#utility.yul\":4184:4188   */\n                      dup2\n                        /* \"#utility.yul\":4175:4181   */\n                      dup8\n                        /* \"#utility.yul\":4111:4189   */\n                      tag_113\n                      jump\t// in\n                    tag_181:\n                        /* \"#utility.yul\":4103:4189   */\n                      swap1\n                      pop\n                        /* \"#utility.yul\":4237:4246   */\n                      dup2\n                        /* \"#utility.yul\":4231:4235   */\n                      dup2\n                        /* \"#utility.yul\":4227:4247   */\n                      sub\n                        /* \"#utility.yul\":4221:4224   */\n                      0x80\n                        /* \"#utility.yul\":4210:4219   */\n                      dup4\n                        /* \"#utility.yul\":4206:4225   */\n                      add\n                        /* \"#utility.yul\":4199:4248   */\n                      mstore\n                        /* \"#utility.yul\":4265:4373   */\n                      tag_182\n                        /* \"#utility.yul\":4368:4372   */\n                      dup2\n                        /* \"#utility.yul\":4359:4365   */\n                      dup7\n                        /* \"#utility.yul\":4265:4373   */\n                      tag_120\n                      jump\t// in\n                    tag_182:\n                        /* \"#utility.yul\":4257:4373   */\n                      swap1\n                      pop\n                        /* \"#utility.yul\":4421:4430   */\n                      dup2\n                        /* \"#utility.yul\":4415:4419   */\n                      dup2\n                        /* \"#utility.yul\":4411:4431   */\n                      sub\n                        /* \"#utility.yul\":4405:4408   */\n                      0xa0\n                        /* \"#utility.yul\":4394:4403   */\n                      dup4\n                        /* \"#utility.yul\":4390:4409   */\n                      add\n                        /* \"#utility.yul\":4383:4432   */\n                      mstore\n                        /* \"#utility.yul\":4449:4557   */\n                      tag_183\n                        /* \"#utility.yul\":4552:4556   */\n                      dup2\n                        /* \"#utility.yul\":4543:4549   */\n                      dup6\n                        /* \"#utility.yul\":4449:4557   */\n                      tag_120\n                      jump\t// in\n                    tag_183:\n                        /* \"#utility.yul\":4441:4557   */\n                      swap1\n                      pop\n                        /* \"#utility.yul\":4567:4640   */\n                      tag_184\n                        /* \"#utility.yul\":4635:4638   */\n                      0xc0\n                        /* \"#utility.yul\":4624:4633   */\n                      dup4\n                        /* \"#utility.yul\":4620:4639   */\n                      add\n                        /* \"#utility.yul\":4611:4617   */\n                      dup5\n                        /* \"#utility.yul\":4567:4640   */\n                      tag_122\n                      jump\t// in\n                    tag_184:\n                        /* \"#utility.yul\":3277:4647   */\n                      swap9\n                      swap8\n                      pop\n                      pop\n                      pop\n                      pop\n                      pop\n                      pop\n                      pop\n                      pop\n                      jump\t// out\n                        /* \"#utility.yul\":4653:4875   */\n                    tag_22:\n                        /* \"#utility.yul\":4746:4750   */\n                      0x00\n                        /* \"#utility.yul\":4784:4786   */\n                      0x20\n                        /* \"#utility.yul\":4773:4782   */\n                      dup3\n                        /* \"#utility.yul\":4769:4787   */\n                      add\n                        /* \"#utility.yul\":4761:4787   */\n                      swap1\n                      pop\n                        /* \"#utility.yul\":4797:4868   */\n                      tag_186\n                        /* \"#utility.yul\":4865:4866   */\n                      0x00\n                        /* \"#utility.yul\":4854:4863   */\n                      dup4\n                        /* \"#utility.yul\":4850:4867   */\n                      add\n                        /* \"#utility.yul\":4841:4847   */\n                      dup5\n                        /* \"#utility.yul\":4797:4868   */\n                      tag_108\n                      jump\t// in\n                    tag_186:\n                        /* \"#utility.yul\":4653:4875   */\n                      swap3\n                      swap2\n                      pop\n                      pop\n                      jump\t// out\n                        /* \"#utility.yul\":4881:5194   */\n                    tag_26:\n                        /* \"#utility.yul\":4994:4998   */\n                      0x00\n                        /* \"#utility.yul\":5032:5034   */\n                      0x20\n                        /* \"#utility.yul\":5021:5030   */\n                      dup3\n                        /* \"#utility.yul\":5017:5035   */\n                      add\n                        /* \"#utility.yul\":5009:5035   */\n                      swap1\n                      pop\n                        /* \"#utility.yul\":5081:5090   */\n                      dup2\n                        /* \"#utility.yul\":5075:5079   */\n                      dup2\n                        /* \"#utility.yul\":5071:5091   */\n                      sub\n                        /* \"#utility.yul\":5067:5068   */\n                      0x00\n                        /* \"#utility.yul\":5056:5065   */\n                      dup4\n                        /* \"#utility.yul\":5052:5069   */\n                      add\n                        /* \"#utility.yul\":5045:5092   */\n                      mstore\n                        /* \"#utility.yul\":5109:5187   */\n                      tag_188\n                        /* \"#utility.yul\":5182:5186   */\n                      dup2\n                        /* \"#utility.yul\":5173:5179   */\n                      dup5\n                        /* \"#utility.yul\":5109:5187   */\n                      tag_113\n                      jump\t// in\n                    tag_188:\n                        /* \"#utility.yul\":5101:5187   */\n                      swap1\n                      pop\n                        /* \"#utility.yul\":4881:5194   */\n                      swap3\n                      swap2\n                      pop\n                      pop\n                      jump\t// out\n                        /* \"#utility.yul\":5281:5398   */\n                    tag_124:\n                        /* \"#utility.yul\":5390:5391   */\n                      0x00\n                        /* \"#utility.yul\":5387:5388   */\n                      dup1\n                        /* \"#utility.yul\":5380:5392   */\n                      revert\n                        /* \"#utility.yul\":5527:5649   */\n                    tag_126:\n                        /* \"#utility.yul\":5600:5624   */\n                      tag_193\n                        /* \"#utility.yul\":5618:5623   */\n                      dup2\n                        /* \"#utility.yul\":5600:5624   */\n                      tag_107\n                      jump\t// in\n                    tag_193:\n                        /* \"#utility.yul\":5593:5598   */\n                      dup2\n                        /* \"#utility.yul\":5590:5625   */\n                      eq\n                        /* \"#utility.yul\":5580:5643   */\n                      tag_194\n                      jumpi\n                        /* \"#utility.yul\":5639:5640   */\n                      0x00\n                        /* \"#utility.yul\":5636:5637   */\n                      dup1\n                        /* \"#utility.yul\":5629:5641   */\n                      revert\n                        /* \"#utility.yul\":5580:5643   */\n                    tag_194:\n                        /* \"#utility.yul\":5527:5649   */\n                      pop\n                      jump\t// out\n                        /* \"#utility.yul\":5655:5794   */\n                    tag_127:\n                        /* \"#utility.yul\":5701:5706   */\n                      0x00\n                        /* \"#utility.yul\":5739:5745   */\n                      dup2\n                        /* \"#utility.yul\":5726:5746   */\n                      calldataload\n                        /* \"#utility.yul\":5717:5746   */\n                      swap1\n                      pop\n                        /* \"#utility.yul\":5755:5788   */\n                      tag_196\n                        /* \"#utility.yul\":5782:5787   */\n                      dup2\n                        /* \"#utility.yul\":5755:5788   */\n                      tag_126\n                      jump\t// in\n                    tag_196:\n                        /* \"#utility.yul\":5655:5794   */\n                      swap3\n                      swap2\n                      pop\n                      pop\n                      jump\t// out\n                        /* \"#utility.yul\":5800:6129   */\n                    tag_29:\n                        /* \"#utility.yul\":5859:5865   */\n                      0x00\n                        /* \"#utility.yul\":5908:5910   */\n                      0x20\n                        /* \"#utility.yul\":5896:5905   */\n                      dup3\n                        /* \"#utility.yul\":5887:5894   */\n                      dup5\n                        /* \"#utility.yul\":5883:5906   */\n                      sub\n                        /* \"#utility.yul\":5879:5911   */\n                      slt\n                        /* \"#utility.yul\":5876:5995   */\n                      iszero\n                      tag_198\n                      jumpi\n                        /* \"#utility.yul\":5914:5993   */\n                      tag_199\n                      tag_124\n                      jump\t// in\n                    tag_199:\n                        /* \"#utility.yul\":5876:5995   */\n                    tag_198:\n                        /* \"#utility.yul\":6034:6035   */\n                      0x00\n                        /* \"#utility.yul\":6059:6112   */\n                      tag_200\n                        /* \"#utility.yul\":6104:6111   */\n                      dup5\n                        /* \"#utility.yul\":6095:6101   */\n                      dup3\n                        /* \"#utility.yul\":6084:6093   */\n                      dup6\n                        /* \"#utility.yul\":6080:6102   */\n                      add\n                        /* \"#utility.yul\":6059:6112   */\n                      tag_127\n                      jump\t// in\n                    tag_200:\n                        /* \"#utility.yul\":6049:6112   */\n                      swap2\n                      pop\n                        /* \"#utility.yul\":6005:6122   */\n                      pop\n                        /* \"#utility.yul\":5800:6129   */\n                      swap3\n                      swap2\n                      pop\n                      pop\n                      jump\t// out\n                        /* \"#utility.yul\":6135:6257   */\n                    tag_128:\n                        /* \"#utility.yul\":6208:6232   */\n                      tag_202\n                        /* \"#utility.yul\":6226:6231   */\n                      dup2\n                        /* \"#utility.yul\":6208:6232   */\n                      tag_121\n                      jump\t// in\n                    tag_202:\n                        /* \"#utility.yul\":6201:6206   */\n                      dup2\n                        /* \"#utility.yul\":6198:6233   */\n                      eq\n                        /* \"#utility.yul\":6188:6251   */\n                      tag_203\n                      jumpi\n                        /* \"#utility.yul\":6247:6248   */\n                      0x00\n                        /* \"#utility.yul\":6244:6245   */\n                      dup1\n                        /* \"#utility.yul\":6237:6249   */\n                      revert\n                        /* \"#utility.yul\":6188:6251   */\n                    tag_203:\n                        /* \"#utility.yul\":6135:6257   */\n                      pop\n                      jump\t// out\n                        /* \"#utility.yul\":6263:6402   */\n                    tag_129:\n                        /* \"#utility.yul\":6309:6314   */\n                      0x00\n                        /* \"#utility.yul\":6347:6353   */\n                      dup2\n                        /* \"#utility.yul\":6334:6354   */\n                      calldataload\n                        /* \"#utility.yul\":6325:6354   */\n                      swap1\n                      pop\n                        /* \"#utility.yul\":6363:6396   */\n                      tag_205\n                        /* \"#utility.yul\":6390:6395   */\n                      dup2\n                        /* \"#utility.yul\":6363:6396   */\n                      tag_128\n                      jump\t// in\n                    tag_205:\n                        /* \"#utility.yul\":6263:6402   */\n                      swap3\n                      swap2\n                      pop\n                      pop\n                      jump\t// out\n                        /* \"#utility.yul\":6408:6737   */\n                    tag_41:\n                        /* \"#utility.yul\":6467:6473   */\n                      0x00\n                        /* \"#utility.yul\":6516:6518   */\n                      0x20\n                        /* \"#utility.yul\":6504:6513   */\n                      dup3\n                        /* \"#utility.yul\":6495:6502   */\n                      dup5\n                        /* \"#utility.yul\":6491:6514   */\n                      sub\n                        /* \"#utility.yul\":6487:6519   */\n                      slt\n                        /* \"#utility.yul\":6484:6603   */\n                      iszero\n                      tag_207\n                      jumpi\n                        /* \"#utility.yul\":6522:6601   */\n                      tag_208\n                      tag_124\n                      jump\t// in\n                    tag_208:\n                        /* \"#utility.yul\":6484:6603   */\n                    tag_207:\n                        /* \"#utility.yul\":6642:6643   */\n                      0x00\n                        /* \"#utility.yul\":6667:6720   */\n                      tag_209\n                        /* \"#utility.yul\":6712:6719   */\n                      dup5\n                        /* \"#utility.yul\":6703:6709   */\n                      dup3\n                        /* \"#utility.yul\":6692:6701   */\n                      dup6\n                        /* \"#utility.yul\":6688:6710   */\n                      add\n                        /* \"#utility.yul\":6667:6720   */\n                      tag_129\n                      jump\t// in\n                    tag_209:\n                        /* \"#utility.yul\":6657:6720   */\n                      swap2\n                      pop\n                        /* \"#utility.yul\":6613:6730   */\n                      pop\n                        /* \"#utility.yul\":6408:6737   */\n                      swap3\n                      swap2\n                      pop\n                      pop\n                      jump\t// out\n                        /* \"#utility.yul\":6743:6965   */\n                    tag_50:\n                        /* \"#utility.yul\":6836:6840   */\n                      0x00\n                        /* \"#utility.yul\":6874:6876   */\n                      0x20\n                        /* \"#utility.yul\":6863:6872   */\n                      dup3\n                        /* \"#utility.yul\":6859:6877   */\n                      add\n                        /* \"#utility.yul\":6851:6877   */\n                      swap1\n                      pop\n                        /* \"#utility.yul\":6887:6958   */\n                      tag_211\n                        /* \"#utility.yul\":6955:6956   */\n                      0x00\n                        /* \"#utility.yul\":6944:6953   */\n                      dup4\n                        /* \"#utility.yul\":6940:6957   */\n                      add\n                        /* \"#utility.yul\":6931:6937   */\n                      dup5\n                        /* \"#utility.yul\":6887:6958   */\n                      tag_122\n                      jump\t// in\n                    tag_211:\n                        /* \"#utility.yul\":6743:6965   */\n                      swap3\n                      swap2\n                      pop\n                      pop\n                      jump\t// out\n                        /* \"#utility.yul\":6971:7151   */\n                    tag_130:\n                        /* \"#utility.yul\":7019:7096   */\n                      0x4e487b7100000000000000000000000000000000000000000000000000000000\n                        /* \"#utility.yul\":7016:7017   */\n                      0x00\n                        /* \"#utility.yul\":7009:7097   */\n                      mstore\n                        /* \"#utility.yul\":7116:7120   */\n                      0x22\n                        /* \"#utility.yul\":7113:7114   */\n                      0x04\n                        /* \"#utility.yul\":7106:7121   */\n                      mstore\n                        /* \"#utility.yul\":7140:7144   */\n                      0x24\n                        /* \"#utility.yul\":7137:7138   */\n                      0x00\n                        /* \"#utility.yul\":7130:7145   */\n                      revert\n                        /* \"#utility.yul\":7157:7477   */\n                    tag_57:\n                        /* \"#utility.yul\":7201:7207   */\n                      0x00\n                        /* \"#utility.yul\":7238:7239   */\n                      0x02\n                        /* \"#utility.yul\":7232:7236   */\n                      dup3\n                        /* \"#utility.yul\":7228:7240   */\n                      div\n                        /* \"#utility.yul\":7218:7240   */\n                      swap1\n                      pop\n                        /* \"#utility.yul\":7285:7286   */\n                      0x01\n                        /* \"#utility.yul\":7279:7283   */\n                      dup3\n                        /* \"#utility.yul\":7275:7287   */\n                      and\n                        /* \"#utility.yul\":7306:7324   */\n                      dup1\n                        /* \"#utility.yul\":7296:7377   */\n                      tag_214\n                      jumpi\n                        /* \"#utility.yul\":7362:7366   */\n                      0x7f\n                        /* \"#utility.yul\":7354:7360   */\n                      dup3\n                        /* \"#utility.yul\":7350:7367   */\n                      and\n                        /* \"#utility.yul\":7340:7367   */\n                      swap2\n                      pop\n                        /* \"#utility.yul\":7296:7377   */\n                    tag_214:\n                        /* \"#utility.yul\":7424:7426   */\n                      0x20\n                        /* \"#utility.yul\":7416:7422   */\n                      dup3\n                        /* \"#utility.yul\":7413:7427   */\n                      lt\n                        /* \"#utility.yul\":7393:7411   */\n                      dup2\n                        /* \"#utility.yul\":7390:7428   */\n                      eq\n                        /* \"#utility.yul\":7387:7471   */\n                      iszero\n                      tag_215\n                      jumpi\n                        /* \"#utility.yul\":7443:7461   */\n                      tag_216\n                      tag_130\n                      jump\t// in\n                    tag_216:\n                        /* \"#utility.yul\":7387:7471   */\n                    tag_215:\n                        /* \"#utility.yul\":7208:7477   */\n                      pop\n                        /* \"#utility.yul\":7157:7477   */\n                      swap2\n                      swap1\n                      pop\n                      jump\t// out\n                        /* \"#utility.yul\":7483:7788   */\n                    tag_131:\n                        /* \"#utility.yul\":7623:7657   */\n                      0x546869732066756e6374696f6e2068617320746f2062652063616c6c65642066\n                        /* \"#utility.yul\":7619:7620   */\n                      0x00\n                        /* \"#utility.yul\":7611:7617   */\n                      dup3\n                        /* \"#utility.yul\":7607:7621   */\n                      add\n                        /* \"#utility.yul\":7600:7658   */\n                      mstore\n                        /* \"#utility.yul\":7692:7726   */\n                      0x726f6d207468652073746f727920636f6e747261637420627920616e20616363\n                        /* \"#utility.yul\":7687:7689   */\n                      0x20\n                        /* \"#utility.yul\":7679:7685   */\n                      dup3\n                        /* \"#utility.yul\":7675:7690   */\n                      add\n                        /* \"#utility.yul\":7668:7727   */\n                      mstore\n                        /* \"#utility.yul\":7761:7780   */\n                      0x657074656420617574686f72206f6e6c79000000000000000000000000000000\n                        /* \"#utility.yul\":7756:7758   */\n                      0x40\n                        /* \"#utility.yul\":7748:7754   */\n                      dup3\n                        /* \"#utility.yul\":7744:7759   */\n                      add\n                        /* \"#utility.yul\":7737:7781   */\n                      mstore\n                        /* \"#utility.yul\":7483:7788   */\n                      pop\n                      jump\t// out\n                        /* \"#utility.yul\":7794:8160   */\n                    tag_132:\n                        /* \"#utility.yul\":7936:7939   */\n                      0x00\n                        /* \"#utility.yul\":7957:8024   */\n                      tag_219\n                        /* \"#utility.yul\":8021:8023   */\n                      0x51\n                        /* \"#utility.yul\":8016:8019   */\n                      dup4\n                        /* \"#utility.yul\":7957:8024   */\n                      tag_110\n                      jump\t// in\n                    tag_219:\n                        /* \"#utility.yul\":7950:8024   */\n                      swap2\n                      pop\n                        /* \"#utility.yul\":8033:8126   */\n                      tag_220\n                        /* \"#utility.yul\":8122:8125   */\n                      dup3\n                        /* \"#utility.yul\":8033:8126   */\n                      tag_131\n                      jump\t// in\n                    tag_220:\n                        /* \"#utility.yul\":8151:8153   */\n                      0x60\n                        /* \"#utility.yul\":8146:8149   */\n                      dup3\n                        /* \"#utility.yul\":8142:8154   */\n                      add\n                        /* \"#utility.yul\":8135:8154   */\n                      swap1\n                      pop\n                        /* \"#utility.yul\":7794:8160   */\n                      swap2\n                      swap1\n                      pop\n                      jump\t// out\n                        /* \"#utility.yul\":8166:8585   */\n                    tag_79:\n                        /* \"#utility.yul\":8332:8336   */\n                      0x00\n                        /* \"#utility.yul\":8370:8372   */\n                      0x20\n                        /* \"#utility.yul\":8359:8368   */\n                      dup3\n                        /* \"#utility.yul\":8355:8373   */\n                      add\n                        /* \"#utility.yul\":8347:8373   */\n                      swap1\n                      pop\n                        /* \"#utility.yul\":8419:8428   */\n                      dup2\n                        /* \"#utility.yul\":8413:8417   */\n                      dup2\n                        /* \"#utility.yul\":8409:8429   */\n                      sub\n                        /* \"#utility.yul\":8405:8406   */\n                      0x00\n                        /* \"#utility.yul\":8394:8403   */\n                      dup4\n                        /* \"#utility.yul\":8390:8407   */\n                      add\n                        /* \"#utility.yul\":8383:8430   */\n                      mstore\n                        /* \"#utility.yul\":8447:8578   */\n                      tag_222\n                        /* \"#utility.yul\":8573:8577   */\n                      dup2\n                        /* \"#utility.yul\":8447:8578   */\n                      tag_132\n                      jump\t// in\n                    tag_222:\n                        /* \"#utility.yul\":8439:8578   */\n                      swap1\n                      pop\n                        /* \"#utility.yul\":8166:8585   */\n                      swap2\n                      swap1\n                      pop\n                      jump\t// out\n                        /* \"#utility.yul\":8591:8768   */\n                    tag_133:\n                        /* \"#utility.yul\":8731:8760   */\n                      0x596f75206c696b656420746869732073746f7279206265666f72650000000000\n                        /* \"#utility.yul\":8727:8728   */\n                      0x00\n                        /* \"#utility.yul\":8719:8725   */\n                      dup3\n                        /* \"#utility.yul\":8715:8729   */\n                      add\n                        /* \"#utility.yul\":8708:8761   */\n                      mstore\n                        /* \"#utility.yul\":8591:8768   */\n                      pop\n                      jump\t// out\n                        /* \"#utility.yul\":8774:9140   */\n                    tag_134:\n                        /* \"#utility.yul\":8916:8919   */\n                      0x00\n                        /* \"#utility.yul\":8937:9004   */\n                      tag_225\n                        /* \"#utility.yul\":9001:9003   */\n                      0x1b\n                        /* \"#utility.yul\":8996:8999   */\n                      dup4\n                        /* \"#utility.yul\":8937:9004   */\n                      tag_110\n                      jump\t// in\n                    tag_225:\n                        /* \"#utility.yul\":8930:9004   */\n                      swap2\n                      pop\n                        /* \"#utility.yul\":9013:9106   */\n                      tag_226\n                        /* \"#utility.yul\":9102:9105   */\n                      dup3\n                        /* \"#utility.yul\":9013:9106   */\n                      tag_133\n                      jump\t// in\n                    tag_226:\n                        /* \"#utility.yul\":9131:9133   */\n                      0x20\n                        /* \"#utility.yul\":9126:9129   */\n                      dup3\n                        /* \"#utility.yul\":9122:9134   */\n                      add\n                        /* \"#utility.yul\":9115:9134   */\n                      swap1\n                      pop\n                        /* \"#utility.yul\":8774:9140   */\n                      swap2\n                      swap1\n                      pop\n                      jump\t// out\n                        /* \"#utility.yul\":9146:9565   */\n                    tag_88:\n                        /* \"#utility.yul\":9312:9316   */\n                      0x00\n                        /* \"#utility.yul\":9350:9352   */\n                      0x20\n                        /* \"#utility.yul\":9339:9348   */\n                      dup3\n                        /* \"#utility.yul\":9335:9353   */\n                      add\n                        /* \"#utility.yul\":9327:9353   */\n                      swap1\n                      pop\n                        /* \"#utility.yul\":9399:9408   */\n                      dup2\n                        /* \"#utility.yul\":9393:9397   */\n                      dup2\n                        /* \"#utility.yul\":9389:9409   */\n                      sub\n                        /* \"#utility.yul\":9385:9386   */\n                      0x00\n                        /* \"#utility.yul\":9374:9383   */\n                      dup4\n                        /* \"#utility.yul\":9370:9387   */\n                      add\n                        /* \"#utility.yul\":9363:9410   */\n                      mstore\n                        /* \"#utility.yul\":9427:9558   */\n                      tag_228\n                        /* \"#utility.yul\":9553:9557   */\n                      dup2\n                        /* \"#utility.yul\":9427:9558   */\n                      tag_134\n                      jump\t// in\n                    tag_228:\n                        /* \"#utility.yul\":9419:9558   */\n                      swap1\n                      pop\n                        /* \"#utility.yul\":9146:9565   */\n                      swap2\n                      swap1\n                      pop\n                      jump\t// out\n                        /* \"#utility.yul\":9571:9751   */\n                    tag_135:\n                        /* \"#utility.yul\":9619:9696   */\n                      0x4e487b7100000000000000000000000000000000000000000000000000000000\n                        /* \"#utility.yul\":9616:9617   */\n                      0x00\n                        /* \"#utility.yul\":9609:9697   */\n                      mstore\n                        /* \"#utility.yul\":9716:9720   */\n                      0x11\n                        /* \"#utility.yul\":9713:9714   */\n                      0x04\n                        /* \"#utility.yul\":9706:9721   */\n                      mstore\n                        /* \"#utility.yul\":9740:9744   */\n                      0x24\n                        /* \"#utility.yul\":9737:9738   */\n                      0x00\n                        /* \"#utility.yul\":9730:9745   */\n                      revert\n                        /* \"#utility.yul\":9757:10062   */\n                    tag_102:\n                        /* \"#utility.yul\":9797:9800   */\n                      0x00\n                        /* \"#utility.yul\":9816:9836   */\n                      tag_231\n                        /* \"#utility.yul\":9834:9835   */\n                      dup3\n                        /* \"#utility.yul\":9816:9836   */\n                      tag_121\n                      jump\t// in\n                    tag_231:\n                        /* \"#utility.yul\":9811:9836   */\n                      swap2\n                      pop\n                        /* \"#utility.yul\":9850:9870   */\n                      tag_232\n                        /* \"#utility.yul\":9868:9869   */\n                      dup4\n                        /* \"#utility.yul\":9850:9870   */\n                      tag_121\n                      jump\t// in\n                    tag_232:\n                        /* \"#utility.yul\":9845:9870   */\n                      swap3\n                      pop\n                        /* \"#utility.yul\":10004:10005   */\n                      dup3\n                        /* \"#utility.yul\":9936:10002   */\n                      0xffffffffffffffffffffffffffffffffffffffffffffffffffffffffffffffff\n                        /* \"#utility.yul\":9932:10006   */\n                      sub\n                        /* \"#utility.yul\":9929:9930   */\n                      dup3\n                        /* \"#utility.yul\":9926:10007   */\n                      gt\n                        /* \"#utility.yul\":9923:10030   */\n                      iszero\n                      tag_233\n                      jumpi\n                        /* \"#utility.yul\":10010:10028   */\n                      tag_234\n                      tag_135\n                      jump\t// in\n                    tag_234:\n                        /* \"#utility.yul\":9923:10030   */\n                    tag_233:\n                        /* \"#utility.yul\":10054:10055   */\n                      dup3\n                        /* \"#utility.yul\":10051:10052   */\n                      dup3\n                        /* \"#utility.yul\":10047:10056   */\n                      add\n                        /* \"#utility.yul\":10040:10056   */\n                      swap1\n                      pop\n                        /* \"#utility.yul\":9757:10062   */\n                      swap3\n                      swap2\n                      pop\n                      pop\n                      jump\t// out\n                        /* \"#utility.yul\":10068:10245   */\n                    tag_136:\n                        /* \"#utility.yul\":10208:10237   */\n                      0x536166654d6174683a206164646974696f6e206f766572666c6f770000000000\n                        /* \"#utility.yul\":10204:10205   */\n                      0x00\n                        /* \"#utility.yul\":10196:10202   */\n                      dup3\n                        /* \"#utility.yul\":10192:10206   */\n                      add\n                        /* \"#utility.yul\":10185:10238   */\n                      mstore\n                        /* \"#utility.yul\":10068:10245   */\n                      pop\n                      jump\t// out\n                        /* \"#utility.yul\":10251:10617   */\n                    tag_137:\n                        /* \"#utility.yul\":10393:10396   */\n                      0x00\n                        /* \"#utility.yul\":10414:10481   */\n                      tag_237\n                        /* \"#utility.yul\":10478:10480   */\n                      0x1b\n                        /* \"#utility.yul\":10473:10476   */\n                      dup4\n                        /* \"#utility.yul\":10414:10481   */\n                      tag_110\n                      jump\t// in\n                    tag_237:\n                        /* \"#utility.yul\":10407:10481   */\n                      swap2\n                      pop\n                        /* \"#utility.yul\":10490:10583   */\n                      tag_238\n                        /* \"#utility.yul\":10579:10582   */\n                      dup3\n                        /* \"#utility.yul\":10490:10583   */\n                      tag_136\n                      jump\t// in\n                    tag_238:\n                        /* \"#utility.yul\":10608:10610   */\n                      0x20\n                        /* \"#utility.yul\":10603:10606   */\n                      dup3\n                        /* \"#utility.yul\":10599:10611   */\n                      add\n                        /* \"#utility.yul\":10592:10611   */\n                      swap1\n                      pop\n                        /* \"#utility.yul\":10251:10617   */\n                      swap2\n                      swap1\n                      pop\n                      jump\t// out\n                        /* \"#utility.yul\":10623:11042   */\n                    tag_105:\n                        /* \"#utility.yul\":10789:10793   */\n                      0x00\n                        /* \"#utility.yul\":10827:10829   */\n                      0x20\n                        /* \"#utility.yul\":10816:10825   */\n                      dup3\n                        /* \"#utility.yul\":10812:10830   */\n                      add\n                        /* \"#utility.yul\":10804:10830   */\n                      swap1\n                      pop\n                        /* \"#utility.yul\":10876:10885   */\n                      dup2\n                        /* \"#utility.yul\":10870:10874   */\n                      dup2\n                        /* \"#utility.yul\":10866:10886   */\n                      sub\n                        /* \"#utility.yul\":10862:10863   */\n                      0x00\n                        /* \"#utility.yul\":10851:10860   */\n                      dup4\n                        /* \"#utility.yul\":10847:10864   */\n                      add\n                        /* \"#utility.yul\":10840:10887   */\n                      mstore\n                        /* \"#utility.yul\":10904:11035   */\n                      tag_240\n                        /* \"#utility.yul\":11030:11034   */\n                      dup2\n                        /* \"#utility.yul\":10904:11035   */\n                      tag_137\n                      jump\t// in\n                    tag_240:\n                        /* \"#utility.yul\":10896:11035   */\n                      swap1\n                      pop\n                        /* \"#utility.yul\":10623:11042   */\n                      swap2\n                      swap1\n                      pop\n                      jump\t// out\n\n                    auxdata: 0xa26469706673582212200bffd56b8a0fab4249bce05ff136bf468016325766e1e1ca305f2db71210c90864736f6c63430008090033\n                }\n            }\n\n            auxdata: 0xa26469706673582212202d9d2c46a607a02d7cf2258b4b40787996ea55a6b08f498bff39f559c098811364736f6c63430008090033\n        }\n    }\n\n    auxdata: 0xa26469706673582212204acea118c057a0916674e112aec6f2cdbe4d47b1f5269c0c5185e676fdc4452f64736f6c63430008090033\n}\n","bytecode":{"linkReferences":{},"object":"608060405234801561001057600080fd5b506155c5806100206000396000f3fe60806040523480156200001157600080fd5b50600436106200005e5760003560e01c806318351ea714620000635780632ff2bdd514620000995780635048bd3714620000bb578063adb6a39714620000db578063f4b955f31462000111575b600080fd5b6200008160048036038101906200007b9190620004bb565b62000131565b60405162000090919062000532565b60405180910390f35b620000a362000171565b604051620000b291906200061d565b60405180910390f35b620000d96004803603810190620000d39190620007a3565b62000201565b005b620000f96004803603810190620000f3919062000825565b6200025a565b604051620001089190620008ea565b60405180910390f35b6200012f60048036038101906200012991906200090e565b62000302565b005b600081815481106200014257600080fd5b906000526020600020016000915054906101000a900473ffffffffffffffffffffffffffffffffffffffff1681565b60606000805480602002602001604051908101604052809291908181526020018280548015620001f757602002820191906000526020600020905b8160009054906101000a900473ffffffffffffffffffffffffffffffffffffffff1673ffffffffffffffffffffffffffffffffffffffff1681526020019060010190808311620001ac575b5050505050905090565b80600160003373ffffffffffffffffffffffffffffffffffffffff1673ffffffffffffffffffffffffffffffffffffffff168152602001908152602001600020908051906020019062000256929190620003ae565b5050565b600160205280600052604060002060009150905080546200027b90620009f6565b80601f0160208091040260200160405190810160405280929190818152602001828054620002a990620009f6565b8015620002fa5780601f10620002ce57610100808354040283529160200191620002fa565b820191906000526020600020905b815481529060010190602001808311620002dc57829003601f168201915b505050505081565b60003384848460405162000316906200043f565b62000325949392919062000a2c565b604051809103906000f08015801562000342573d6000803e3d6000fd5b5090506000819080600181540180825580915050600190039060005260206000200160009091909190916101000a81548173ffffffffffffffffffffffffffffffffffffffff021916908373ffffffffffffffffffffffffffffffffffffffff16021790555050505050565b828054620003bc90620009f6565b90600052602060002090601f016020900481019282620003e057600085556200042c565b82601f10620003fb57805160ff19168380011785556200042c565b828001600101855582156200042c579182015b828111156200042b5782518255916020019190600101906200040e565b5b5090506200043b91906200044d565b5090565b614b018062000a8f83390190565b5b80821115620004685760008160009055506001016200044e565b5090565b6000604051905090565b600080fd5b600080fd5b6000819050919050565b620004958162000480565b8114620004a157600080fd5b50565b600081359050620004b5816200048a565b92915050565b600060208284031215620004d457620004d362000476565b5b6000620004e484828501620004a4565b91505092915050565b600073ffffffffffffffffffffffffffffffffffffffff82169050919050565b60006200051a82620004ed565b9050919050565b6200052c816200050d565b82525050565b600060208201905062000549600083018462000521565b92915050565b600081519050919050565b600082825260208201905092915050565b6000819050602082019050919050565b62000586816200050d565b82525050565b60006200059a83836200057b565b60208301905092915050565b6000602082019050919050565b6000620005c0826200054f565b620005cc81856200055a565b9350620005d9836200056b565b8060005b8381101562000610578151620005f488826200058c565b97506200060183620005a6565b925050600181019050620005dd565b5085935050505092915050565b60006020820190508181036000830152620006398184620005b3565b905092915050565b600080fd5b600080fd5b6000601f19601f8301169050919050565b7f4e487b7100000000000000000000000000000000000000000000000000000000600052604160045260246000fd5b62000696826200064b565b810181811067ffffffffffffffff82111715620006b857620006b76200065c565b5b80604052505050565b6000620006cd6200046c565b9050620006db82826200068b565b919050565b600067ffffffffffffffff821115620006fe57620006fd6200065c565b5b62000709826200064b565b9050602081019050919050565b82818337600083830152505050565b60006200073c6200073684620006e0565b620006c1565b9050828152602081018484840111156200075b576200075a62000646565b5b6200076884828562000716565b509392505050565b600082601f83011262000788576200078762000641565b5b81356200079a84826020860162000725565b91505092915050565b600060208284031215620007bc57620007bb62000476565b5b600082013567ffffffffffffffff811115620007dd57620007dc6200047b565b5b620007eb8482850162000770565b91505092915050565b620007ff816200050d565b81146200080b57600080fd5b50565b6000813590506200081f81620007f4565b92915050565b6000602082840312156200083e576200083d62000476565b5b60006200084e848285016200080e565b91505092915050565b600081519050919050565b600082825260208201905092915050565b60005b838110156200089357808201518184015260208101905062000876565b83811115620008a3576000848401525b50505050565b6000620008b68262000857565b620008c2818562000862565b9350620008d481856020860162000873565b620008df816200064b565b840191505092915050565b60006020820190508181036000830152620009068184620008a9565b905092915050565b6000806000606084860312156200092a576200092962000476565b5b600084013567ffffffffffffffff8111156200094b576200094a6200047b565b5b620009598682870162000770565b935050602084013567ffffffffffffffff8111156200097d576200097c6200047b565b5b6200098b8682870162000770565b925050604084013567ffffffffffffffff811115620009af57620009ae6200047b565b5b620009bd8682870162000770565b9150509250925092565b7f4e487b7100000000000000000000000000000000000000000000000000000000600052602260045260246000fd5b6000600282049050600182168062000a0f57607f821691505b6020821081141562000a265762000a25620009c7565b5b50919050565b600060808201905062000a43600083018762000521565b818103602083015262000a578186620008a9565b9050818103604083015262000a6d8185620008a9565b9050818103606083015262000a838184620008a9565b90509594505050505056fe60806040523480156200001157600080fd5b5060405162004b0138038062004b01833981810160405281019062000037919062000454565b836000806101000a81548173ffffffffffffffffffffffffffffffffffffffff021916908373ffffffffffffffffffffffffffffffffffffffff1602179055506001600460008673ffffffffffffffffffffffffffffffffffffffff1673ffffffffffffffffffffffffffffffffffffffff16815260200190815260200160002060006101000a81548160ff0219169083151502179055506005849080600181540180825580915050600190039060005260206000200160009091909190916101000a81548173ffffffffffffffffffffffffffffffffffffffff021916908373ffffffffffffffffffffffffffffffffffffffff16021790555082600190805190602001906200014a929190620001a2565b50816002908051906020019062000163929190620001a2565b5080600390805190602001906200017c929190620001a2565b506000600b60006101000a81548160ff0219169083151502179055505050505062000588565b828054620001b09062000552565b90600052602060002090601f016020900481019282620001d4576000855562000220565b82601f10620001ef57805160ff191683800117855562000220565b8280016001018555821562000220579182015b828111156200021f57825182559160200191906001019062000202565b5b5090506200022f919062000233565b5090565b5b808211156200024e57600081600090555060010162000234565b5090565b6000604051905090565b600080fd5b600080fd5b600073ffffffffffffffffffffffffffffffffffffffff82169050919050565b6000620002938262000266565b9050919050565b620002a58162000286565b8114620002b157600080fd5b50565b600081519050620002c5816200029a565b92915050565b600080fd5b600080fd5b6000601f19601f8301169050919050565b7f4e487b7100000000000000000000000000000000000000000000000000000000600052604160045260246000fd5b6200032082620002d5565b810181811067ffffffffffffffff82111715620003425762000341620002e6565b5b80604052505050565b60006200035762000252565b905062000365828262000315565b919050565b600067ffffffffffffffff821115620003885762000387620002e6565b5b6200039382620002d5565b9050602081019050919050565b60005b83811015620003c0578082015181840152602081019050620003a3565b83811115620003d0576000848401525b50505050565b6000620003ed620003e7846200036a565b6200034b565b9050828152602081018484840111156200040c576200040b620002d0565b5b62000419848285620003a0565b509392505050565b600082601f830112620004395762000438620002cb565b5b81516200044b848260208601620003d6565b91505092915050565b600080600080608085870312156200047157620004706200025c565b5b60006200048187828801620002b4565b945050602085015167ffffffffffffffff811115620004a557620004a462000261565b5b620004b38782880162000421565b935050604085015167ffffffffffffffff811115620004d757620004d662000261565b5b620004e58782880162000421565b925050606085015167ffffffffffffffff81111562000509576200050862000261565b5b620005178782880162000421565b91505092959194509250565b7f4e487b7100000000000000000000000000000000000000000000000000000000600052602260045260246000fd5b600060028204905060018216806200056b57607f821691505b6020821081141562000582576200058162000523565b5b50919050565b61456980620005986000396000f3fe608060405260043610620000fe5760003560e01c80637f51aaf911620000975780639d3ed80711620000615780639d3ed807146200032c578063b52025221462000370578063d7bb99ba14620003b4578063dfa14e2314620003c057620000fe565b80637f51aaf9146200025c57806398b7962814620002a0578063992b11dc14620002ce5780639c636a0f14620002fc57620000fe565b80634051ddac11620000d95780634051ddac146200017b5780635cf298fb14620001b45780635d1a870a14620001e45780636fc6c579146200021457620000fe565b80632606a10b14620001035780633b6246c2146200011d5780633e5690f41462000137575b600080fd5b3480156200011057600080fd5b506200011b620003ee565b005b3480156200012a57600080fd5b5062000135620005f5565b005b3480156200014457600080fd5b506200016360048036038101906200015d919062001dcd565b62000826565b60405162000172919062001e1c565b60405180910390f35b3480156200018857600080fd5b506200019362000846565b604051620001ab9a9998979695949392919062001fd7565b60405180910390f35b348015620001c157600080fd5b50620001cc62000b8b565b604051620001db919062001e1c565b60405180910390f35b348015620001f157600080fd5b50620001fc62000bdf565b6040516200020b919062001e1c565b60405180910390f35b3480156200022157600080fd5b506200024060048036038101906200023a9190620020db565b62000bf2565b604051620002539594939291906200210d565b60405180910390f35b3480156200026957600080fd5b5062000288600480360381019062000282919062001dcd565b62000cf6565b60405162000297919062001e1c565b60405180910390f35b348015620002ad57600080fd5b50620002cc6004803603810190620002c69190620020db565b62000d16565b005b348015620002db57600080fd5b50620002fa6004803603810190620002f49190620022c2565b62001154565b005b3480156200030957600080fd5b506200031462001652565b60405162000323919062002372565b60405180910390f35b3480156200033957600080fd5b50620003586004803603810190620003529190620020db565b620016e2565b60405162000367919062002396565b60405180910390f35b3480156200037d57600080fd5b506200039c6004803603810190620003969190620020db565b62001722565b604051620003ab919062002396565b60405180910390f35b620003be62001762565b005b348015620003cd57600080fd5b50620003ec6004803603810190620003e69190620023b3565b62001834565b005b600860009054906101000a900460ff161562000441576040517f08c379a0000000000000000000000000000000000000000000000000000000008152600401620004389062002454565b60405180910390fd5b6001600860006101000a81548160ff021916908315150217905550600b60009054906101000a900460ff1615620004af576040517f08c379a0000000000000000000000000000000000000000000000000000000008152600401620004a690620024c6565b60405180910390fd5b600960003373ffffffffffffffffffffffffffffffffffffffff1673ffffffffffffffffffffffffffffffffffffffff16815260200190815260200160002060009054906101000a900460ff16156200053f576040517f08c379a000000000000000000000000000000000000000000000000000000000815260040162000536906200255e565b60405180910390fd5b620005576001600a5462001a5690919063ffffffff16565b506001600960003373ffffffffffffffffffffffffffffffffffffffff1673ffffffffffffffffffffffffffffffffffffffff16815260200190815260200160002060006101000a81548160ff0219169083151502179055506064600a541115620005d8576001600b60006101000a81548160ff0219169083151502179055505b6000600860006101000a81548160ff021916908315150217905550565b600860009054906101000a900460ff161562000648576040517f08c379a00000000000000000000000000000000000000000000000000000000081526004016200063f9062002454565b60405180910390fd5b6001600860006101000a81548160ff021916908315150217905550600460003373ffffffffffffffffffffffffffffffffffffffff1673ffffffffffffffffffffffffffffffffffffffff16815260200190815260200160002060009054906101000a900460ff16620006f2576040517f08c379a0000000000000000000000000000000000000000000000000000000008152600401620006e990620025f6565b60405180910390fd5b60006005805490509050600062000713824762001ab990919063ffffffff16565b9050600081116200075b576040517f08c379a0000000000000000000000000000000000000000000000000000000008152600401620007529062002668565b60405180910390fd5b60005b828110156200080657600581815481106200077e576200077d6200268a565b5b9060005260206000200160009054906101000a900473ffffffffffffffffffffffffffffffffffffffff1673ffffffffffffffffffffffffffffffffffffffff166108fc839081150290604051600060405180830381858888f19350505050158015620007ef573d6000803e3d6000fd5b508080620007fd90620026e8565b9150506200075e565b5050506000600860006101000a81548160ff021916908315150217905550565b60046020528060005260406000206000915054906101000a900460ff1681565b6000606080606080606060008060008060008054906101000a900473ffffffffffffffffffffffffffffffffffffffff1660016002600360056007600c80549050600a54600b60009054906101000a900460ff1647888054620008a99062002765565b80601f0160208091040260200160405190810160405280929190818152602001828054620008d79062002765565b8015620009285780601f10620008fc5761010080835404028352916020019162000928565b820191906000526020600020905b8154815290600101906020018083116200090a57829003601f168201915b505050505098508780546200093d9062002765565b80601f01602080910402602001604051908101604052809291908181526020018280546200096b9062002765565b8015620009bc5780601f106200099057610100808354040283529160200191620009bc565b820191906000526020600020905b8154815290600101906020018083116200099e57829003601f168201915b50505050509750868054620009d19062002765565b80601f0160208091040260200160405190810160405280929190818152602001828054620009ff9062002765565b801562000a505780601f1062000a245761010080835404028352916020019162000a50565b820191906000526020600020905b81548152906001019060200180831162000a3257829003601f168201915b505050505096508580548060200260200160405190810160405280929190818152602001828054801562000ada57602002820191906000526020600020905b8160009054906101000a900473ffffffffffffffffffffffffffffffffffffffff1673ffffffffffffffffffffffffffffffffffffffff168152602001906001019080831162000a8f575b505050505095508480548060200260200160405190810160405280929190818152602001828054801562000b6457602002820191906000526020600020905b8160009054906101000a900473ffffffffffffffffffffffffffffffffffffffff1673ffffffffffffffffffffffffffffffffffffffff168152602001906001019080831162000b19575b50505050509450995099509950995099509950995099509950995090919293949596979899565b6000600460003373ffffffffffffffffffffffffffffffffffffffff1673ffffffffffffffffffffffffffffffffffffffff16815260200190815260200160002060009054906101000a900460ff16905090565b600b60009054906101000a900460ff1681565b600c818154811062000c0357600080fd5b906000526020600020906006020160009150905080600001805462000c289062002765565b80601f016020809104026020016040519081016040528092919081815260200182805462000c569062002765565b801562000ca75780601f1062000c7b5761010080835404028352916020019162000ca7565b820191906000526020600020905b81548152906001019060200180831162000c8957829003601f168201915b5050505050908060010154908060020160009054906101000a900473ffffffffffffffffffffffffffffffffffffffff16908060040154908060050160009054906101000a900460ff16905085565b60066020528060005260406000206000915054906101000a900460ff1681565b600860009054906101000a900460ff161562000d69576040517f08c379a000000000000000000000000000000000000000000000000000000000815260040162000d609062002454565b60405180910390fd5b6001600860006101000a81548160ff021916908315150217905550600b60009054906101000a900460ff161562000dd7576040517f08c379a000000000000000000000000000000000000000000000000000000000815260040162000dce90620024c6565b60405180910390fd5b600460003373ffffffffffffffffffffffffffffffffffffffff1673ffffffffffffffffffffffffffffffffffffffff16815260200190815260200160002060009054906101000a900460ff1662000e66576040517f08c379a000000000000000000000000000000000000000000000000000000000815260040162000e5d9062002811565b60405180910390fd5b600c805490508110801562000e7c575060008110155b62000ebe576040517f08c379a000000000000000000000000000000000000000000000000000000000815260040162000eb59062002883565b60405180910390fd5b6000600c828154811062000ed75762000ed66200268a565b5b906000526020600020906006020190508060030160003373ffffffffffffffffffffffffffffffffffffffff1673ffffffffffffffffffffffffffffffffffffffff16815260200190815260200160002060009054906101000a900460ff161562000f79576040517f08c379a000000000000000000000000000000000000000000000000000000000815260040162000f70906200291b565b60405180910390fd5b60018160030160003373ffffffffffffffffffffffffffffffffffffffff1673ffffffffffffffffffffffffffffffffffffffff16815260200190815260200160002060006101000a81548160ff02191690831515021790555062000fed6001826004015462001a5690919063ffffffff16565b816004018190555060026005805490506200100991906200296c565b816004015410620011355760018160050160006101000a81548160ff0219169083151502179055506001600460008360020160009054906101000a900473ffffffffffffffffffffffffffffffffffffffff1673ffffffffffffffffffffffffffffffffffffffff1673ffffffffffffffffffffffffffffffffffffffff16815260200190815260200160002060006101000a81548160ff02191690831515021790555060058160020160009054906101000a900473ffffffffffffffffffffffffffffffffffffffff169080600181540180825580915050600190039060005260206000200160009091909190916101000a81548173ffffffffffffffffffffffffffffffffffffffff021916908373ffffffffffffffffffffffffffffffffffffffff1602179055505b506000600860006101000a81548160ff02191690831515021790555050565b600860009054906101000a900460ff1615620011a7576040517f08c379a00000000000000000000000000000000000000000000000000000000081526004016200119e9062002454565b60405180910390fd5b6001600860006101000a81548160ff021916908315150217905550600b60009054906101000a900460ff161562001215576040517f08c379a00000000000000000000000000000000000000000000000000000000081526004016200120c90620024c6565b60405180910390fd5b600460003373ffffffffffffffffffffffffffffffffffffffff1673ffffffffffffffffffffffffffffffffffffffff16815260200190815260200160002060009054906101000a900460ff16620012a4576040517f08c379a00000000000000000000000000000000000000000000000000000000081526004016200129b9062002a1a565b60405180910390fd5b620012af8262001b16565b620012f1576040517f08c379a0000000000000000000000000000000000000000000000000000000008152600401620012e89062002ab2565b60405180910390fd5b620012fc8162001b16565b6200133e576040517f08c379a0000000000000000000000000000000000000000000000000000000008152600401620013359062002b24565b60405180910390fd5b620013498262001b6a565b6200138b576040517f08c379a0000000000000000000000000000000000000000000000000000000008152600401620013829062002bbc565b60405180910390fd5b620013968162001c00565b620013d8576040517f08c379a0000000000000000000000000000000000000000000000000000000008152600401620013cf9062002c54565b60405180910390fd5b6000333086868686604051620013ee9062001c96565b620013ff9695949392919062002c76565b604051809103906000f0801580156200141c573d6000803e3d6000fd5b509050600073ffffffffffffffffffffffffffffffffffffffff168373ffffffffffffffffffffffffffffffffffffffff1614620014ca5760008390508073ffffffffffffffffffffffffffffffffffffffff1663988e46c8836040518263ffffffff1660e01b815260040162001494919062002396565b600060405180830381600087803b158015620014af57600080fd5b505af1158015620014c4573d6000803e3d6000fd5b50505050505b600073ffffffffffffffffffffffffffffffffffffffff168273ffffffffffffffffffffffffffffffffffffffff1614620015755760008290508073ffffffffffffffffffffffffffffffffffffffff16638758ce83836040518263ffffffff1660e01b81526004016200153f919062002396565b600060405180830381600087803b1580156200155a57600080fd5b505af11580156200156f573d6000803e3d6000fd5b50505050505b6007819080600181540180825580915050600190039060005260206000200160009091909190916101000a81548173ffffffffffffffffffffffffffffffffffffffff021916908373ffffffffffffffffffffffffffffffffffffffff1602179055506001600660008373ffffffffffffffffffffffffffffffffffffffff1673ffffffffffffffffffffffffffffffffffffffff16815260200190815260200160002060006101000a81548160ff021916908315150217905550506000600860006101000a81548160ff02191690831515021790555050505050565b60606007805480602002602001604051908101604052809291908181526020018280548015620016d857602002820191906000526020600020905b8160009054906101000a900473ffffffffffffffffffffffffffffffffffffffff1673ffffffffffffffffffffffffffffffffffffffff16815260200190600101908083116200168d575b5050505050905090565b60058181548110620016f357600080fd5b906000526020600020016000915054906101000a900473ffffffffffffffffffffffffffffffffffffffff1681565b600781815481106200173357600080fd5b906000526020600020016000915054906101000a900473ffffffffffffffffffffffffffffffffffffffff1681565b600860009054906101000a900460ff1615620017b5576040517f08c379a0000000000000000000000000000000000000000000000000000000008152600401620017ac9062002454565b60405180910390fd5b6001600860006101000a81548160ff021916908315150217905550606434101562001817576040517f08c379a00000000000000000000000000000000000000000000000000000000081526004016200180e9062002d41565b60405180910390fd5b6000600860006101000a81548160ff021916908315150217905550565b600860009054906101000a900460ff161562001887576040517f08c379a00000000000000000000000000000000000000000000000000000000081526004016200187e9062002454565b60405180910390fd5b6001600860006101000a81548160ff021916908315150217905550600b60009054906101000a900460ff1615620018f5576040517f08c379a0000000000000000000000000000000000000000000000000000000008152600401620018ec90620024c6565b60405180910390fd5b600460003373ffffffffffffffffffffffffffffffffffffffff1673ffffffffffffffffffffffffffffffffffffffff16815260200190815260200160002060009054906101000a900460ff161562001985576040517f08c379a00000000000000000000000000000000000000000000000000000000081526004016200197c9062002dd9565b60405180910390fd5b6000600c600181600181540180825580915050039060005260206000209060060201905081816000019080519060200190620019c392919062001ca4565b50428160010181905550338160020160006101000a81548173ffffffffffffffffffffffffffffffffffffffff021916908373ffffffffffffffffffffffffffffffffffffffff1602179055506000816004018190555060008160050160006101000a81548160ff021916908315150217905550506000600860006101000a81548160ff02191690831515021790555050565b600080828462001a67919062002dfb565b90508381101562001aaf576040517f08c379a000000000000000000000000000000000000000000000000000000000815260040162001aa69062002ea8565b60405180910390fd5b8091505092915050565b600080821162001b00576040517f08c379a000000000000000000000000000000000000000000000000000000000815260040162001af79062002f1a565b60405180910390fd5b818362001b0e91906200296c565b905092915050565b60008073ffffffffffffffffffffffffffffffffffffffff168273ffffffffffffffffffffffffffffffffffffffff16141562001b57576001905062001b65565b6000823b9050600081119150505b919050565b60008073ffffffffffffffffffffffffffffffffffffffff168273ffffffffffffffffffffffffffffffffffffffff16141562001bab576001905062001bfb565b600660008373ffffffffffffffffffffffffffffffffffffffff1673ffffffffffffffffffffffffffffffffffffffff16815260200190815260200160002060009054906101000a900460ff1690505b919050565b60008073ffffffffffffffffffffffffffffffffffffffff168273ffffffffffffffffffffffffffffffffffffffff16141562001c41576001905062001c91565b600660008373ffffffffffffffffffffffffffffffffffffffff1673ffffffffffffffffffffffffffffffffffffffff16815260200190815260200160002060009054906101000a900460ff1690505b919050565b6115f78062002f3d83390190565b82805462001cb29062002765565b90600052602060002090601f01602090048101928262001cd6576000855562001d22565b82601f1062001cf157805160ff191683800117855562001d22565b8280016001018555821562001d22579182015b8281111562001d2157825182559160200191906001019062001d04565b5b50905062001d31919062001d35565b5090565b5b8082111562001d5057600081600090555060010162001d36565b5090565b6000604051905090565b600080fd5b600080fd5b600073ffffffffffffffffffffffffffffffffffffffff82169050919050565b600062001d958262001d68565b9050919050565b62001da78162001d88565b811462001db357600080fd5b50565b60008135905062001dc78162001d9c565b92915050565b60006020828403121562001de65762001de562001d5e565b5b600062001df68482850162001db6565b91505092915050565b60008115159050919050565b62001e168162001dff565b82525050565b600060208201905062001e33600083018462001e0b565b92915050565b62001e448162001d88565b82525050565b600081519050919050565b600082825260208201905092915050565b60005b8381101562001e8657808201518184015260208101905062001e69565b8381111562001e96576000848401525b50505050565b6000601f19601f8301169050919050565b600062001eba8262001e4a565b62001ec6818562001e55565b935062001ed881856020860162001e66565b62001ee38162001e9c565b840191505092915050565b600081519050919050565b600082825260208201905092915050565b6000819050602082019050919050565b62001f258162001d88565b82525050565b600062001f39838362001f1a565b60208301905092915050565b6000602082019050919050565b600062001f5f8262001eee565b62001f6b818562001ef9565b935062001f788362001f0a565b8060005b8381101562001faf57815162001f93888262001f2b565b975062001fa08362001f45565b92505060018101905062001f7c565b5085935050505092915050565b6000819050919050565b62001fd18162001fbc565b82525050565b60006101408201905062001fef600083018d62001e39565b818103602083015262002003818c62001ead565b9050818103604083015262002019818b62001ead565b905081810360608301526200202f818a62001ead565b9050818103608083015262002045818962001f52565b905081810360a08301526200205b818862001f52565b90506200206c60c083018762001fc6565b6200207b60e083018662001fc6565b6200208b61010083018562001e0b565b6200209b61012083018462001fc6565b9b9a5050505050505050505050565b620020b58162001fbc565b8114620020c157600080fd5b50565b600081359050620020d581620020aa565b92915050565b600060208284031215620020f457620020f362001d5e565b5b60006200210484828501620020c4565b91505092915050565b600060a082019050818103600083015262002129818862001ead565b90506200213a602083018762001fc6565b62002149604083018662001e39565b62002158606083018562001fc6565b62002167608083018462001e0b565b9695505050505050565b600080fd5b600080fd5b7f4e487b7100000000000000000000000000000000000000000000000000000000600052604160045260246000fd5b620021b58262001e9c565b810181811067ffffffffffffffff82111715620021d757620021d66200217b565b5b80604052505050565b6000620021ec62001d54565b9050620021fa8282620021aa565b919050565b600067ffffffffffffffff8211156200221d576200221c6200217b565b5b620022288262001e9c565b9050602081019050919050565b82818337600083830152505050565b60006200225b6200225584620021ff565b620021e0565b9050828152602081018484840111156200227a576200227962002176565b5b6200228784828562002235565b509392505050565b600082601f830112620022a757620022a662002171565b5b8135620022b984826020860162002244565b91505092915050565b60008060008060808587031215620022df57620022de62001d5e565b5b600085013567ffffffffffffffff8111156200230057620022ff62001d63565b5b6200230e878288016200228f565b945050602085013567ffffffffffffffff81111562002332576200233162001d63565b5b62002340878288016200228f565b9350506040620023538782880162001db6565b9250506060620023668782880162001db6565b91505092959194509250565b600060208201905081810360008301526200238e818462001f52565b905092915050565b6000602082019050620023ad600083018462001e39565b92915050565b600060208284031215620023cc57620023cb62001d5e565b5b600082013567ffffffffffffffff811115620023ed57620023ec62001d63565b5b620023fb848285016200228f565b91505092915050565b7f5265656e7472616e742063616c6c000000000000000000000000000000000000600082015250565b60006200243c600e8362001e55565b9150620024498262002404565b602082019050919050565b600060208201905081810360008301526200246f816200242d565b9050919050565b7f546869732073746f727920686173206265656e207265706f7274656400000000600082015250565b6000620024ae601c8362001e55565b9150620024bb8262002476565b602082019050919050565b60006020820190508181036000830152620024e1816200249f565b9050919050565b7f596f752068617665207265706f7274656420746869732073746f72792062656660008201527f6f72650000000000000000000000000000000000000000000000000000000000602082015250565b60006200254660238362001e55565b91506200255382620024e8565b604082019050919050565b60006020820190508181036000830152620025798162002537565b9050919050565b7f4f6e6c7920616e20617574686f72697a656420617574686f722063616e20646960008201527f7370656e73652072657761726473000000000000000000000000000000000000602082015250565b6000620025de602e8362001e55565b9150620025eb8262002580565b604082019050919050565b600060208201905081810360008301526200261181620025cf565b9050919050565b7f4e6f2072657761726420746f2064697370656e73650000000000000000000000600082015250565b60006200265060158362001e55565b91506200265d8262002618565b602082019050919050565b60006020820190508181036000830152620026838162002641565b9050919050565b7f4e487b7100000000000000000000000000000000000000000000000000000000600052603260045260246000fd5b7f4e487b7100000000000000000000000000000000000000000000000000000000600052601160045260246000fd5b6000620026f58262001fbc565b91507fffffffffffffffffffffffffffffffffffffffffffffffffffffffffffffffff8214156200272b576200272a620026b9565b5b600182019050919050565b7f4e487b7100000000000000000000000000000000000000000000000000000000600052602260045260246000fd5b600060028204905060018216806200277e57607f821691505b6020821081141562002795576200279462002736565b5b50919050565b7f4f6e6c7920616e20616363657074656420617574686f722063616e206170707260008201527f6f76652061207265717565737400000000000000000000000000000000000000602082015250565b6000620027f9602d8362001e55565b915062002806826200279b565b604082019050919050565b600060208201905081810360008301526200282c81620027ea565b9050919050565b7f496e646578206f7574206f6620626f756e647300000000000000000000000000600082015250565b60006200286b60138362001e55565b9150620028788262002833565b602082019050919050565b600060208201905081810360008301526200289e816200285c565b9050919050565b7f5468697320617574686f7220616c726561647920617070726f7665642062656660008201527f6f72650000000000000000000000000000000000000000000000000000000000602082015250565b60006200290360238362001e55565b91506200291082620028a5565b604082019050919050565b600060208201905081810360008301526200293681620028f4565b9050919050565b7f4e487b7100000000000000000000000000000000000000000000000000000000600052601260045260246000fd5b6000620029798262001fbc565b9150620029868362001fbc565b9250826200299957620029986200293d565b5b828204905092915050565b7f4f6e6c7920616e20616363657074656420617574686f722063616e206372656160008201527f7465206120636861707465720000000000000000000000000000000000000000602082015250565b600062002a02602c8362001e55565b915062002a0f82620029a4565b604082019050919050565b6000602082019050818103600083015262002a3581620029f3565b9050919050565b7f506172656e742063686170746572206d757374206265206120636f6e7472616360008201527f7400000000000000000000000000000000000000000000000000000000000000602082015250565b600062002a9a60218362001e55565b915062002aa78262002a3c565b604082019050919050565b6000602082019050818103600083015262002acd8162002a8b565b9050919050565b7f4368696c642063686170746572206d757374206265206120636f6e7472616374600082015250565b600062002b0c60208362001e55565b915062002b198262002ad4565b602082019050919050565b6000602082019050818103600083015262002b3f8162002afd565b9050919050565b7f506172656e742063686170746572206d7573742062656c6f6e6720746f20746860008201527f652073616d652073746f72790000000000000000000000000000000000000000602082015250565b600062002ba4602c8362001e55565b915062002bb18262002b46565b604082019050919050565b6000602082019050818103600083015262002bd78162002b95565b9050919050565b7f4368696c642063686170746572206d7573742062656c6f6e6720746f2074686560008201527f2073616d652073746f7279000000000000000000000000000000000000000000602082015250565b600062002c3c602b8362001e55565b915062002c498262002bde565b604082019050919050565b6000602082019050818103600083015262002c6f8162002c2d565b9050919050565b600060c08201905062002c8d600083018962001e39565b62002c9c602083018862001e39565b818103604083015262002cb0818762001ead565b9050818103606083015262002cc6818662001ead565b905062002cd7608083018562001e39565b62002ce660a083018462001e39565b979650505050505050565b7f4d696e696d756d20636f6e747269627574696f6e206973203130302057656900600082015250565b600062002d29601f8362001e55565b915062002d368262002cf1565b602082019050919050565b6000602082019050818103600083015262002d5c8162002d1a565b9050919050565b7f417574686f7220616c72656164792065786973747320696e20746865206c697360008201527f74206f6620617574686f72730000000000000000000000000000000000000000602082015250565b600062002dc1602c8362001e55565b915062002dce8262002d63565b604082019050919050565b6000602082019050818103600083015262002df48162002db2565b9050919050565b600062002e088262001fbc565b915062002e158362001fbc565b9250827fffffffffffffffffffffffffffffffffffffffffffffffffffffffffffffffff0382111562002e4d5762002e4c620026b9565b5b828201905092915050565b7f536166654d6174683a206164646974696f6e206f766572666c6f770000000000600082015250565b600062002e90601b8362001e55565b915062002e9d8262002e58565b602082019050919050565b6000602082019050818103600083015262002ec38162002e81565b9050919050565b7f536166654d6174683a206469766973696f6e206279207a65726f000000000000600082015250565b600062002f02601a8362001e55565b915062002f0f8262002eca565b602082019050919050565b6000602082019050818103600083015262002f358162002ef3565b905091905056fe60806040523480156200001157600080fd5b50604051620015f7380380620015f78339818101604052810190620000379190620004da565b85600160006101000a81548173ffffffffffffffffffffffffffffffffffffffff021916908373ffffffffffffffffffffffffffffffffffffffff160217905550846000806101000a81548173ffffffffffffffffffffffffffffffffffffffff021916908373ffffffffffffffffffffffffffffffffffffffff1602179055508260039080519060200190620000d092919062000228565b508360029080519060200190620000e992919062000228565b50600073ffffffffffffffffffffffffffffffffffffffff168273ffffffffffffffffffffffffffffffffffffffff161462000183576004829080600181540180825580915050600190039060005260206000200160009091909190916101000a81548173ffffffffffffffffffffffffffffffffffffffff021916908373ffffffffffffffffffffffffffffffffffffffff1602179055505b600073ffffffffffffffffffffffffffffffffffffffff168173ffffffffffffffffffffffffffffffffffffffff16146200021c576005819080600181540180825580915050600190039060005260206000200160009091909190916101000a81548173ffffffffffffffffffffffffffffffffffffffff021916908373ffffffffffffffffffffffffffffffffffffffff1602179055505b50505050505062000619565b8280546200023690620005e3565b90600052602060002090601f0160209004810192826200025a5760008555620002a6565b82601f106200027557805160ff1916838001178555620002a6565b82800160010185558215620002a6579182015b82811115620002a557825182559160200191906001019062000288565b5b509050620002b59190620002b9565b5090565b5b80821115620002d4576000816000905550600101620002ba565b5090565b6000604051905090565b600080fd5b600080fd5b600073ffffffffffffffffffffffffffffffffffffffff82169050919050565b60006200031982620002ec565b9050919050565b6200032b816200030c565b81146200033757600080fd5b50565b6000815190506200034b8162000320565b92915050565b600080fd5b600080fd5b6000601f19601f8301169050919050565b7f4e487b7100000000000000000000000000000000000000000000000000000000600052604160045260246000fd5b620003a6826200035b565b810181811067ffffffffffffffff82111715620003c857620003c76200036c565b5b80604052505050565b6000620003dd620002d8565b9050620003eb82826200039b565b919050565b600067ffffffffffffffff8211156200040e576200040d6200036c565b5b62000419826200035b565b9050602081019050919050565b60005b838110156200044657808201518184015260208101905062000429565b8381111562000456576000848401525b50505050565b6000620004736200046d84620003f0565b620003d1565b90508281526020810184848401111562000492576200049162000356565b5b6200049f84828562000426565b509392505050565b600082601f830112620004bf57620004be62000351565b5b8151620004d18482602086016200045c565b91505092915050565b60008060008060008060c08789031215620004fa57620004f9620002e2565b5b60006200050a89828a016200033a565b96505060206200051d89828a016200033a565b955050604087015167ffffffffffffffff811115620005415762000540620002e7565b5b6200054f89828a01620004a7565b945050606087015167ffffffffffffffff811115620005735762000572620002e7565b5b6200058189828a01620004a7565b93505060806200059489828a016200033a565b92505060a0620005a789828a016200033a565b9150509295509295509295565b7f4e487b7100000000000000000000000000000000000000000000000000000000600052602260045260246000fd5b60006002820490506001821680620005fc57607f821691505b60208210811415620006135762000612620005b4565b5b50919050565b610fce80620006296000396000f3fe608060405234801561001057600080fd5b50600436106100a95760003560e01c8063a523b88a11610071578063a523b88a14610146578063a6c3e6b914610150578063c5fe6ffc1461016e578063c623674f1461019e578063e5a0af3d146101bc578063ed777791146101da576100a9565b80634051ddac146100ae57806346c922d1146100d25780634a79d50c146100f05780638758ce831461010e578063988e46c81461012a575b600080fd5b6100b661020a565b6040516100c99796959493929190610b88565b60405180910390f35b6100da6104a4565b6040516100e79190610c13565b60405180910390f35b6100f86104c8565b6040516101059190610c2e565b60405180910390f35b61012860048036038101906101239190610c81565b610556565b005b610144600480360381019061013f9190610c81565b61064a565b005b61014e61073e565b005b610158610841565b6040516101659190610c13565b60405180910390f35b61018860048036038101906101839190610cda565b610867565b6040516101959190610c13565b60405180910390f35b6101a66108a6565b6040516101b39190610c2e565b60405180910390f35b6101c4610934565b6040516101d19190610d07565b60405180910390f35b6101f460048036038101906101ef9190610cda565b61093a565b6040516102019190610c13565b60405180910390f35b60008060608060608060008060009054906101000a900473ffffffffffffffffffffffffffffffffffffffff16600160009054906101000a900473ffffffffffffffffffffffffffffffffffffffff16600260036004600560075484805461027190610d51565b80601f016020809104026020016040519081016040528092919081815260200182805461029d90610d51565b80156102ea5780601f106102bf576101008083540402835291602001916102ea565b820191906000526020600020905b8154815290600101906020018083116102cd57829003601f168201915b505050505094508380546102fd90610d51565b80601f016020809104026020016040519081016040528092919081815260200182805461032990610d51565b80156103765780601f1061034b57610100808354040283529160200191610376565b820191906000526020600020905b81548152906001019060200180831161035957829003601f168201915b50505050509350828054806020026020016040519081016040528092919081815260200182805480156103fe57602002820191906000526020600020905b8160009054906101000a900473ffffffffffffffffffffffffffffffffffffffff1673ffffffffffffffffffffffffffffffffffffffff16815260200190600101908083116103b4575b505050505092508180548060200260200160405190810160405280929190818152602001828054801561048657602002820191906000526020600020905b8160009054906101000a900473ffffffffffffffffffffffffffffffffffffffff1673ffffffffffffffffffffffffffffffffffffffff168152602001906001019080831161043c575b50505050509150965096509650965096509650965090919293949596565b60008054906101000a900473ffffffffffffffffffffffffffffffffffffffff1681565b600280546104d590610d51565b80601f016020809104026020016040519081016040528092919081815260200182805461050190610d51565b801561054e5780601f106105235761010080835404028352916020019161054e565b820191906000526020600020905b81548152906001019060200180831161053157829003601f168201915b505050505081565b60008054906101000a900473ffffffffffffffffffffffffffffffffffffffff1673ffffffffffffffffffffffffffffffffffffffff163373ffffffffffffffffffffffffffffffffffffffff16146105e4576040517f08c379a00000000000000000000000000000000000000000000000000000000081526004016105db90610e1b565b60405180910390fd5b6004819080600181540180825580915050600190039060005260206000200160009091909190916101000a81548173ffffffffffffffffffffffffffffffffffffffff021916908373ffffffffffffffffffffffffffffffffffffffff16021790555050565b60008054906101000a900473ffffffffffffffffffffffffffffffffffffffff1673ffffffffffffffffffffffffffffffffffffffff163373ffffffffffffffffffffffffffffffffffffffff16146106d8576040517f08c379a00000000000000000000000000000000000000000000000000000000081526004016106cf90610e1b565b60405180910390fd5b6005819080600181540180825580915050600190039060005260206000200160009091909190916101000a81548173ffffffffffffffffffffffffffffffffffffffff021916908373ffffffffffffffffffffffffffffffffffffffff16021790555050565b600660003373ffffffffffffffffffffffffffffffffffffffff1673ffffffffffffffffffffffffffffffffffffffff16815260200190815260200160002060009054906101000a900460ff16156107cb576040517f08c379a00000000000000000000000000000000000000000000000000000000081526004016107c290610e87565b60405180910390fd5b6001600660003373ffffffffffffffffffffffffffffffffffffffff1673ffffffffffffffffffffffffffffffffffffffff16815260200190815260200160002060006101000a81548160ff021916908315150217905550610839600160075461097990919063ffffffff16565b600781905550565b600160009054906101000a900473ffffffffffffffffffffffffffffffffffffffff1681565b6005818154811061087757600080fd5b906000526020600020016000915054906101000a900473ffffffffffffffffffffffffffffffffffffffff1681565b600380546108b390610d51565b80601f01602080910402602001604051908101604052809291908181526020018280546108df90610d51565b801561092c5780601f106109015761010080835404028352916020019161092c565b820191906000526020600020905b81548152906001019060200180831161090f57829003601f168201915b505050505081565b60075481565b6004818154811061094a57600080fd5b906000526020600020016000915054906101000a900473ffffffffffffffffffffffffffffffffffffffff1681565b60008082846109889190610ed6565b9050838110156109cd576040517f08c379a00000000000000000000000000000000000000000000000000000000081526004016109c490610f78565b60405180910390fd5b8091505092915050565b600073ffffffffffffffffffffffffffffffffffffffff82169050919050565b6000610a02826109d7565b9050919050565b610a12816109f7565b82525050565b600081519050919050565b600082825260208201905092915050565b60005b83811015610a52578082015181840152602081019050610a37565b83811115610a61576000848401525b50505050565b6000601f19601f8301169050919050565b6000610a8382610a18565b610a8d8185610a23565b9350610a9d818560208601610a34565b610aa681610a67565b840191505092915050565b600081519050919050565b600082825260208201905092915050565b6000819050602082019050919050565b610ae6816109f7565b82525050565b6000610af88383610add565b60208301905092915050565b6000602082019050919050565b6000610b1c82610ab1565b610b268185610abc565b9350610b3183610acd565b8060005b83811015610b62578151610b498882610aec565b9750610b5483610b04565b925050600181019050610b35565b5085935050505092915050565b6000819050919050565b610b8281610b6f565b82525050565b600060e082019050610b9d600083018a610a09565b610baa6020830189610a09565b8181036040830152610bbc8188610a78565b90508181036060830152610bd08187610a78565b90508181036080830152610be48186610b11565b905081810360a0830152610bf88185610b11565b9050610c0760c0830184610b79565b98975050505050505050565b6000602082019050610c286000830184610a09565b92915050565b60006020820190508181036000830152610c488184610a78565b905092915050565b600080fd5b610c5e816109f7565b8114610c6957600080fd5b50565b600081359050610c7b81610c55565b92915050565b600060208284031215610c9757610c96610c50565b5b6000610ca584828501610c6c565b91505092915050565b610cb781610b6f565b8114610cc257600080fd5b50565b600081359050610cd481610cae565b92915050565b600060208284031215610cf057610cef610c50565b5b6000610cfe84828501610cc5565b91505092915050565b6000602082019050610d1c6000830184610b79565b92915050565b7f4e487b7100000000000000000000000000000000000000000000000000000000600052602260045260246000fd5b60006002820490506001821680610d6957607f821691505b60208210811415610d7d57610d7c610d22565b5b50919050565b7f546869732066756e6374696f6e2068617320746f2062652063616c6c6564206660008201527f726f6d207468652073746f727920636f6e747261637420627920616e2061636360208201527f657074656420617574686f72206f6e6c79000000000000000000000000000000604082015250565b6000610e05605183610a23565b9150610e1082610d83565b606082019050919050565b60006020820190508181036000830152610e3481610df8565b9050919050565b7f596f75206c696b656420746869732073746f7279206265666f72650000000000600082015250565b6000610e71601b83610a23565b9150610e7c82610e3b565b602082019050919050565b60006020820190508181036000830152610ea081610e64565b9050919050565b7f4e487b7100000000000000000000000000000000000000000000000000000000600052601160045260246000fd5b6000610ee182610b6f565b9150610eec83610b6f565b9250827fffffffffffffffffffffffffffffffffffffffffffffffffffffffffffffffff03821115610f2157610f20610ea7565b5b828201905092915050565b7f536166654d6174683a206164646974696f6e206f766572666c6f770000000000600082015250565b6000610f62601b83610a23565b9150610f6d82610f2c565b602082019050919050565b60006020820190508181036000830152610f9181610f55565b905091905056fea26469706673582212200bffd56b8a0fab4249bce05ff136bf468016325766e1e1ca305f2db71210c90864736f6c63430008090033a26469706673582212202d9d2c46a607a02d7cf2258b4b40787996ea55a6b08f498bff39f559c098811364736f6c63430008090033a26469706673582212204acea118c057a0916674e112aec6f2cdbe4d47b1f5269c0c5185e676fdc4452f64736f6c63430008090033","opcodes":"PUSH1 0x80 PUSH1 0x40 MSTORE CALLVALUE DUP1 ISZERO PUSH2 0x10 JUMPI PUSH1 0x0 DUP1 REVERT JUMPDEST POP PUSH2 0x55C5 DUP1 PUSH2 0x20 PUSH1 0x0 CODECOPY PUSH1 0x0 RETURN INVALID PUSH1 0x80 PUSH1 0x40 MSTORE CALLVALUE DUP1 ISZERO PUSH3 0x11 JUMPI PUSH1 0x0 DUP1 REVERT JUMPDEST POP PUSH1 0x4 CALLDATASIZE LT PUSH3 0x5E JUMPI PUSH1 0x0 CALLDATALOAD PUSH1 0xE0 SHR DUP1 PUSH4 0x18351EA7 EQ PUSH3 0x63 JUMPI DUP1 PUSH4 0x2FF2BDD5 EQ PUSH3 0x99 JUMPI DUP1 PUSH4 0x5048BD37 EQ PUSH3 0xBB JUMPI DUP1 PUSH4 0xADB6A397 EQ PUSH3 0xDB JUMPI DUP1 PUSH4 0xF4B955F3 EQ PUSH3 0x111 JUMPI JUMPDEST PUSH1 0x0 DUP1 REVERT JUMPDEST PUSH3 0x81 PUSH1 0x4 DUP1 CALLDATASIZE SUB DUP2 ADD SWAP1 PUSH3 0x7B SWAP2 SWAP1 PUSH3 0x4BB JUMP JUMPDEST PUSH3 0x131 JUMP JUMPDEST PUSH1 0x40 MLOAD PUSH3 0x90 SWAP2 SWAP1 PUSH3 0x532 JUMP JUMPDEST PUSH1 0x40 MLOAD DUP1 SWAP2 SUB SWAP1 RETURN JUMPDEST PUSH3 0xA3 PUSH3 0x171 JUMP JUMPDEST PUSH1 0x40 MLOAD PUSH3 0xB2 SWAP2 SWAP1 PUSH3 0x61D JUMP JUMPDEST PUSH1 0x40 MLOAD DUP1 SWAP2 SUB SWAP1 RETURN JUMPDEST PUSH3 0xD9 PUSH1 0x4 DUP1 CALLDATASIZE SUB DUP2 ADD SWAP1 PUSH3 0xD3 SWAP2 SWAP1 PUSH3 0x7A3 JUMP JUMPDEST PUSH3 0x201 JUMP JUMPDEST STOP JUMPDEST PUSH3 0xF9 PUSH1 0x4 DUP1 CALLDATASIZE SUB DUP2 ADD SWAP1 PUSH3 0xF3 SWAP2 SWAP1 PUSH3 0x825 JUMP JUMPDEST PUSH3 0x25A JUMP JUMPDEST PUSH1 0x40 MLOAD PUSH3 0x108 SWAP2 SWAP1 PUSH3 0x8EA JUMP JUMPDEST PUSH1 0x40 MLOAD DUP1 SWAP2 SUB SWAP1 RETURN JUMPDEST PUSH3 0x12F PUSH1 0x4 DUP1 CALLDATASIZE SUB DUP2 ADD SWAP1 PUSH3 0x129 SWAP2 SWAP1 PUSH3 0x90E JUMP JUMPDEST PUSH3 0x302 JUMP JUMPDEST STOP JUMPDEST PUSH1 0x0 DUP2 DUP2 SLOAD DUP2 LT PUSH3 0x142 JUMPI PUSH1 0x0 DUP1 REVERT JUMPDEST SWAP1 PUSH1 0x0 MSTORE PUSH1 0x20 PUSH1 0x0 KECCAK256 ADD PUSH1 0x0 SWAP2 POP SLOAD SWAP1 PUSH2 0x100 EXP SWAP1 DIV PUSH20 0xFFFFFFFFFFFFFFFFFFFFFFFFFFFFFFFFFFFFFFFF AND DUP2 JUMP JUMPDEST PUSH1 0x60 PUSH1 0x0 DUP1 SLOAD DUP1 PUSH1 0x20 MUL PUSH1 0x20 ADD PUSH1 0x40 MLOAD SWAP1 DUP2 ADD PUSH1 0x40 MSTORE DUP1 SWAP3 SWAP2 SWAP1 DUP2 DUP2 MSTORE PUSH1 0x20 ADD DUP3 DUP1 SLOAD DUP1 ISZERO PUSH3 0x1F7 JUMPI PUSH1 0x20 MUL DUP3 ADD SWAP2 SWAP1 PUSH1 0x0 MSTORE PUSH1 0x20 PUSH1 0x0 KECCAK256 SWAP1 JUMPDEST DUP2 PUSH1 0x0 SWAP1 SLOAD SWAP1 PUSH2 0x100 EXP SWAP1 DIV PUSH20 0xFFFFFFFFFFFFFFFFFFFFFFFFFFFFFFFFFFFFFFFF AND PUSH20 0xFFFFFFFFFFFFFFFFFFFFFFFFFFFFFFFFFFFFFFFF AND DUP2 MSTORE PUSH1 0x20 ADD SWAP1 PUSH1 0x1 ADD SWAP1 DUP1 DUP4 GT PUSH3 0x1AC JUMPI JUMPDEST POP POP POP POP POP SWAP1 POP SWAP1 JUMP JUMPDEST DUP1 PUSH1 0x1 PUSH1 0x0 CALLER PUSH20 0xFFFFFFFFFFFFFFFFFFFFFFFFFFFFFFFFFFFFFFFF AND PUSH20 0xFFFFFFFFFFFFFFFFFFFFFFFFFFFFFFFFFFFFFFFF AND DUP2 MSTORE PUSH1 0x20 ADD SWAP1 DUP2 MSTORE PUSH1 0x20 ADD PUSH1 0x0 KECCAK256 SWAP1 DUP1 MLOAD SWAP1 PUSH1 0x20 ADD SWAP1 PUSH3 0x256 SWAP3 SWAP2 SWAP1 PUSH3 0x3AE JUMP JUMPDEST POP POP JUMP JUMPDEST PUSH1 0x1 PUSH1 0x20 MSTORE DUP1 PUSH1 0x0 MSTORE PUSH1 0x40 PUSH1 0x0 KECCAK256 PUSH1 0x0 SWAP2 POP SWAP1 POP DUP1 SLOAD PUSH3 0x27B SWAP1 PUSH3 0x9F6 JUMP JUMPDEST DUP1 PUSH1 0x1F ADD PUSH1 0x20 DUP1 SWAP2 DIV MUL PUSH1 0x20 ADD PUSH1 0x40 MLOAD SWAP1 DUP2 ADD PUSH1 0x40 MSTORE DUP1 SWAP3 SWAP2 SWAP1 DUP2 DUP2 MSTORE PUSH1 0x20 ADD DUP3 DUP1 SLOAD PUSH3 0x2A9 SWAP1 PUSH3 0x9F6 JUMP JUMPDEST DUP1 ISZERO PUSH3 0x2FA JUMPI DUP1 PUSH1 0x1F LT PUSH3 0x2CE JUMPI PUSH2 0x100 DUP1 DUP4 SLOAD DIV MUL DUP4 MSTORE SWAP2 PUSH1 0x20 ADD SWAP2 PUSH3 0x2FA JUMP JUMPDEST DUP3 ADD SWAP2 SWAP1 PUSH1 0x0 MSTORE PUSH1 0x20 PUSH1 0x0 KECCAK256 SWAP1 JUMPDEST DUP2 SLOAD DUP2 MSTORE SWAP1 PUSH1 0x1 ADD SWAP1 PUSH1 0x20 ADD DUP1 DUP4 GT PUSH3 0x2DC JUMPI DUP3 SWAP1 SUB PUSH1 0x1F AND DUP3 ADD SWAP2 JUMPDEST POP POP POP POP POP DUP2 JUMP JUMPDEST PUSH1 0x0 CALLER DUP5 DUP5 DUP5 PUSH1 0x40 MLOAD PUSH3 0x316 SWAP1 PUSH3 0x43F JUMP JUMPDEST PUSH3 0x325 SWAP5 SWAP4 SWAP3 SWAP2 SWAP1 PUSH3 0xA2C JUMP JUMPDEST PUSH1 0x40 MLOAD DUP1 SWAP2 SUB SWAP1 PUSH1 0x0 CREATE DUP1 ISZERO DUP1 ISZERO PUSH3 0x342 JUMPI RETURNDATASIZE PUSH1 0x0 DUP1 RETURNDATACOPY RETURNDATASIZE PUSH1 0x0 REVERT JUMPDEST POP SWAP1 POP PUSH1 0x0 DUP2 SWAP1 DUP1 PUSH1 0x1 DUP2 SLOAD ADD DUP1 DUP3 SSTORE DUP1 SWAP2 POP POP PUSH1 0x1 SWAP1 SUB SWAP1 PUSH1 0x0 MSTORE PUSH1 0x20 PUSH1 0x0 KECCAK256 ADD PUSH1 0x0 SWAP1 SWAP2 SWAP1 SWAP2 SWAP1 SWAP2 PUSH2 0x100 EXP DUP2 SLOAD DUP2 PUSH20 0xFFFFFFFFFFFFFFFFFFFFFFFFFFFFFFFFFFFFFFFF MUL NOT AND SWAP1 DUP4 PUSH20 0xFFFFFFFFFFFFFFFFFFFFFFFFFFFFFFFFFFFFFFFF AND MUL OR SWAP1 SSTORE POP POP POP POP POP JUMP JUMPDEST DUP3 DUP1 SLOAD PUSH3 0x3BC SWAP1 PUSH3 0x9F6 JUMP JUMPDEST SWAP1 PUSH1 0x0 MSTORE PUSH1 0x20 PUSH1 0x0 KECCAK256 SWAP1 PUSH1 0x1F ADD PUSH1 0x20 SWAP1 DIV DUP2 ADD SWAP3 DUP3 PUSH3 0x3E0 JUMPI PUSH1 0x0 DUP6 SSTORE PUSH3 0x42C JUMP JUMPDEST DUP3 PUSH1 0x1F LT PUSH3 0x3FB JUMPI DUP1 MLOAD PUSH1 0xFF NOT AND DUP4 DUP1 ADD OR DUP6 SSTORE PUSH3 0x42C JUMP JUMPDEST DUP3 DUP1 ADD PUSH1 0x1 ADD DUP6 SSTORE DUP3 ISZERO PUSH3 0x42C JUMPI SWAP2 DUP3 ADD JUMPDEST DUP3 DUP2 GT ISZERO PUSH3 0x42B JUMPI DUP3 MLOAD DUP3 SSTORE SWAP2 PUSH1 0x20 ADD SWAP2 SWAP1 PUSH1 0x1 ADD SWAP1 PUSH3 0x40E JUMP JUMPDEST JUMPDEST POP SWAP1 POP PUSH3 0x43B SWAP2 SWAP1 PUSH3 0x44D JUMP JUMPDEST POP SWAP1 JUMP JUMPDEST PUSH2 0x4B01 DUP1 PUSH3 0xA8F DUP4 CODECOPY ADD SWAP1 JUMP JUMPDEST JUMPDEST DUP1 DUP3 GT ISZERO PUSH3 0x468 JUMPI PUSH1 0x0 DUP2 PUSH1 0x0 SWAP1 SSTORE POP PUSH1 0x1 ADD PUSH3 0x44E JUMP JUMPDEST POP SWAP1 JUMP JUMPDEST PUSH1 0x0 PUSH1 0x40 MLOAD SWAP1 POP SWAP1 JUMP JUMPDEST PUSH1 0x0 DUP1 REVERT JUMPDEST PUSH1 0x0 DUP1 REVERT JUMPDEST PUSH1 0x0 DUP2 SWAP1 POP SWAP2 SWAP1 POP JUMP JUMPDEST PUSH3 0x495 DUP2 PUSH3 0x480 JUMP JUMPDEST DUP2 EQ PUSH3 0x4A1 JUMPI PUSH1 0x0 DUP1 REVERT JUMPDEST POP JUMP JUMPDEST PUSH1 0x0 DUP2 CALLDATALOAD SWAP1 POP PUSH3 0x4B5 DUP2 PUSH3 0x48A JUMP JUMPDEST SWAP3 SWAP2 POP POP JUMP JUMPDEST PUSH1 0x0 PUSH1 0x20 DUP3 DUP5 SUB SLT ISZERO PUSH3 0x4D4 JUMPI PUSH3 0x4D3 PUSH3 0x476 JUMP JUMPDEST JUMPDEST PUSH1 0x0 PUSH3 0x4E4 DUP5 DUP3 DUP6 ADD PUSH3 0x4A4 JUMP JUMPDEST SWAP2 POP POP SWAP3 SWAP2 POP POP JUMP JUMPDEST PUSH1 0x0 PUSH20 0xFFFFFFFFFFFFFFFFFFFFFFFFFFFFFFFFFFFFFFFF DUP3 AND SWAP1 POP SWAP2 SWAP1 POP JUMP JUMPDEST PUSH1 0x0 PUSH3 0x51A DUP3 PUSH3 0x4ED JUMP JUMPDEST SWAP1 POP SWAP2 SWAP1 POP JUMP JUMPDEST PUSH3 0x52C DUP2 PUSH3 0x50D JUMP JUMPDEST DUP3 MSTORE POP POP JUMP JUMPDEST PUSH1 0x0 PUSH1 0x20 DUP3 ADD SWAP1 POP PUSH3 0x549 PUSH1 0x0 DUP4 ADD DUP5 PUSH3 0x521 JUMP JUMPDEST SWAP3 SWAP2 POP POP JUMP JUMPDEST PUSH1 0x0 DUP2 MLOAD SWAP1 POP SWAP2 SWAP1 POP JUMP JUMPDEST PUSH1 0x0 DUP3 DUP3 MSTORE PUSH1 0x20 DUP3 ADD SWAP1 POP SWAP3 SWAP2 POP POP JUMP JUMPDEST PUSH1 0x0 DUP2 SWAP1 POP PUSH1 0x20 DUP3 ADD SWAP1 POP SWAP2 SWAP1 POP JUMP JUMPDEST PUSH3 0x586 DUP2 PUSH3 0x50D JUMP JUMPDEST DUP3 MSTORE POP POP JUMP JUMPDEST PUSH1 0x0 PUSH3 0x59A DUP4 DUP4 PUSH3 0x57B JUMP JUMPDEST PUSH1 0x20 DUP4 ADD SWAP1 POP SWAP3 SWAP2 POP POP JUMP JUMPDEST PUSH1 0x0 PUSH1 0x20 DUP3 ADD SWAP1 POP SWAP2 SWAP1 POP JUMP JUMPDEST PUSH1 0x0 PUSH3 0x5C0 DUP3 PUSH3 0x54F JUMP JUMPDEST PUSH3 0x5CC DUP2 DUP6 PUSH3 0x55A JUMP JUMPDEST SWAP4 POP PUSH3 0x5D9 DUP4 PUSH3 0x56B JUMP JUMPDEST DUP1 PUSH1 0x0 JUMPDEST DUP4 DUP2 LT ISZERO PUSH3 0x610 JUMPI DUP2 MLOAD PUSH3 0x5F4 DUP9 DUP3 PUSH3 0x58C JUMP JUMPDEST SWAP8 POP PUSH3 0x601 DUP4 PUSH3 0x5A6 JUMP JUMPDEST SWAP3 POP POP PUSH1 0x1 DUP2 ADD SWAP1 POP PUSH3 0x5DD JUMP JUMPDEST POP DUP6 SWAP4 POP POP POP POP SWAP3 SWAP2 POP POP JUMP JUMPDEST PUSH1 0x0 PUSH1 0x20 DUP3 ADD SWAP1 POP DUP2 DUP2 SUB PUSH1 0x0 DUP4 ADD MSTORE PUSH3 0x639 DUP2 DUP5 PUSH3 0x5B3 JUMP JUMPDEST SWAP1 POP SWAP3 SWAP2 POP POP JUMP JUMPDEST PUSH1 0x0 DUP1 REVERT JUMPDEST PUSH1 0x0 DUP1 REVERT JUMPDEST PUSH1 0x0 PUSH1 0x1F NOT PUSH1 0x1F DUP4 ADD AND SWAP1 POP SWAP2 SWAP1 POP JUMP JUMPDEST PUSH32 0x4E487B7100000000000000000000000000000000000000000000000000000000 PUSH1 0x0 MSTORE PUSH1 0x41 PUSH1 0x4 MSTORE PUSH1 0x24 PUSH1 0x0 REVERT JUMPDEST PUSH3 0x696 DUP3 PUSH3 0x64B JUMP JUMPDEST DUP2 ADD DUP2 DUP2 LT PUSH8 0xFFFFFFFFFFFFFFFF DUP3 GT OR ISZERO PUSH3 0x6B8 JUMPI PUSH3 0x6B7 PUSH3 0x65C JUMP JUMPDEST JUMPDEST DUP1 PUSH1 0x40 MSTORE POP POP POP JUMP JUMPDEST PUSH1 0x0 PUSH3 0x6CD PUSH3 0x46C JUMP JUMPDEST SWAP1 POP PUSH3 0x6DB DUP3 DUP3 PUSH3 0x68B JUMP JUMPDEST SWAP2 SWAP1 POP JUMP JUMPDEST PUSH1 0x0 PUSH8 0xFFFFFFFFFFFFFFFF DUP3 GT ISZERO PUSH3 0x6FE JUMPI PUSH3 0x6FD PUSH3 0x65C JUMP JUMPDEST JUMPDEST PUSH3 0x709 DUP3 PUSH3 0x64B JUMP JUMPDEST SWAP1 POP PUSH1 0x20 DUP2 ADD SWAP1 POP SWAP2 SWAP1 POP JUMP JUMPDEST DUP3 DUP2 DUP4 CALLDATACOPY PUSH1 0x0 DUP4 DUP4 ADD MSTORE POP POP POP JUMP JUMPDEST PUSH1 0x0 PUSH3 0x73C PUSH3 0x736 DUP5 PUSH3 0x6E0 JUMP JUMPDEST PUSH3 0x6C1 JUMP JUMPDEST SWAP1 POP DUP3 DUP2 MSTORE PUSH1 0x20 DUP2 ADD DUP5 DUP5 DUP5 ADD GT ISZERO PUSH3 0x75B JUMPI PUSH3 0x75A PUSH3 0x646 JUMP JUMPDEST JUMPDEST PUSH3 0x768 DUP5 DUP3 DUP6 PUSH3 0x716 JUMP JUMPDEST POP SWAP4 SWAP3 POP POP POP JUMP JUMPDEST PUSH1 0x0 DUP3 PUSH1 0x1F DUP4 ADD SLT PUSH3 0x788 JUMPI PUSH3 0x787 PUSH3 0x641 JUMP JUMPDEST JUMPDEST DUP2 CALLDATALOAD PUSH3 0x79A DUP5 DUP3 PUSH1 0x20 DUP7 ADD PUSH3 0x725 JUMP JUMPDEST SWAP2 POP POP SWAP3 SWAP2 POP POP JUMP JUMPDEST PUSH1 0x0 PUSH1 0x20 DUP3 DUP5 SUB SLT ISZERO PUSH3 0x7BC JUMPI PUSH3 0x7BB PUSH3 0x476 JUMP JUMPDEST JUMPDEST PUSH1 0x0 DUP3 ADD CALLDATALOAD PUSH8 0xFFFFFFFFFFFFFFFF DUP2 GT ISZERO PUSH3 0x7DD JUMPI PUSH3 0x7DC PUSH3 0x47B JUMP JUMPDEST JUMPDEST PUSH3 0x7EB DUP5 DUP3 DUP6 ADD PUSH3 0x770 JUMP JUMPDEST SWAP2 POP POP SWAP3 SWAP2 POP POP JUMP JUMPDEST PUSH3 0x7FF DUP2 PUSH3 0x50D JUMP JUMPDEST DUP2 EQ PUSH3 0x80B JUMPI PUSH1 0x0 DUP1 REVERT JUMPDEST POP JUMP JUMPDEST PUSH1 0x0 DUP2 CALLDATALOAD SWAP1 POP PUSH3 0x81F DUP2 PUSH3 0x7F4 JUMP JUMPDEST SWAP3 SWAP2 POP POP JUMP JUMPDEST PUSH1 0x0 PUSH1 0x20 DUP3 DUP5 SUB SLT ISZERO PUSH3 0x83E JUMPI PUSH3 0x83D PUSH3 0x476 JUMP JUMPDEST JUMPDEST PUSH1 0x0 PUSH3 0x84E DUP5 DUP3 DUP6 ADD PUSH3 0x80E JUMP JUMPDEST SWAP2 POP POP SWAP3 SWAP2 POP POP JUMP JUMPDEST PUSH1 0x0 DUP2 MLOAD SWAP1 POP SWAP2 SWAP1 POP JUMP JUMPDEST PUSH1 0x0 DUP3 DUP3 MSTORE PUSH1 0x20 DUP3 ADD SWAP1 POP SWAP3 SWAP2 POP POP JUMP JUMPDEST PUSH1 0x0 JUMPDEST DUP4 DUP2 LT ISZERO PUSH3 0x893 JUMPI DUP1 DUP3 ADD MLOAD DUP2 DUP5 ADD MSTORE PUSH1 0x20 DUP2 ADD SWAP1 POP PUSH3 0x876 JUMP JUMPDEST DUP4 DUP2 GT ISZERO PUSH3 0x8A3 JUMPI PUSH1 0x0 DUP5 DUP5 ADD MSTORE JUMPDEST POP POP POP POP JUMP JUMPDEST PUSH1 0x0 PUSH3 0x8B6 DUP3 PUSH3 0x857 JUMP JUMPDEST PUSH3 0x8C2 DUP2 DUP6 PUSH3 0x862 JUMP JUMPDEST SWAP4 POP PUSH3 0x8D4 DUP2 DUP6 PUSH1 0x20 DUP7 ADD PUSH3 0x873 JUMP JUMPDEST PUSH3 0x8DF DUP2 PUSH3 0x64B JUMP JUMPDEST DUP5 ADD SWAP2 POP POP SWAP3 SWAP2 POP POP JUMP JUMPDEST PUSH1 0x0 PUSH1 0x20 DUP3 ADD SWAP1 POP DUP2 DUP2 SUB PUSH1 0x0 DUP4 ADD MSTORE PUSH3 0x906 DUP2 DUP5 PUSH3 0x8A9 JUMP JUMPDEST SWAP1 POP SWAP3 SWAP2 POP POP JUMP JUMPDEST PUSH1 0x0 DUP1 PUSH1 0x0 PUSH1 0x60 DUP5 DUP7 SUB SLT ISZERO PUSH3 0x92A JUMPI PUSH3 0x929 PUSH3 0x476 JUMP JUMPDEST JUMPDEST PUSH1 0x0 DUP5 ADD CALLDATALOAD PUSH8 0xFFFFFFFFFFFFFFFF DUP2 GT ISZERO PUSH3 0x94B JUMPI PUSH3 0x94A PUSH3 0x47B JUMP JUMPDEST JUMPDEST PUSH3 0x959 DUP7 DUP3 DUP8 ADD PUSH3 0x770 JUMP JUMPDEST SWAP4 POP POP PUSH1 0x20 DUP5 ADD CALLDATALOAD PUSH8 0xFFFFFFFFFFFFFFFF DUP2 GT ISZERO PUSH3 0x97D JUMPI PUSH3 0x97C PUSH3 0x47B JUMP JUMPDEST JUMPDEST PUSH3 0x98B DUP7 DUP3 DUP8 ADD PUSH3 0x770 JUMP JUMPDEST SWAP3 POP POP PUSH1 0x40 DUP5 ADD CALLDATALOAD PUSH8 0xFFFFFFFFFFFFFFFF DUP2 GT ISZERO PUSH3 0x9AF JUMPI PUSH3 0x9AE PUSH3 0x47B JUMP JUMPDEST JUMPDEST PUSH3 0x9BD DUP7 DUP3 DUP8 ADD PUSH3 0x770 JUMP JUMPDEST SWAP2 POP POP SWAP3 POP SWAP3 POP SWAP3 JUMP JUMPDEST PUSH32 0x4E487B7100000000000000000000000000000000000000000000000000000000 PUSH1 0x0 MSTORE PUSH1 0x22 PUSH1 0x4 MSTORE PUSH1 0x24 PUSH1 0x0 REVERT JUMPDEST PUSH1 0x0 PUSH1 0x2 DUP3 DIV SWAP1 POP PUSH1 0x1 DUP3 AND DUP1 PUSH3 0xA0F JUMPI PUSH1 0x7F DUP3 AND SWAP2 POP JUMPDEST PUSH1 0x20 DUP3 LT DUP2 EQ ISZERO PUSH3 0xA26 JUMPI PUSH3 0xA25 PUSH3 0x9C7 JUMP JUMPDEST JUMPDEST POP SWAP2 SWAP1 POP JUMP JUMPDEST PUSH1 0x0 PUSH1 0x80 DUP3 ADD SWAP1 POP PUSH3 0xA43 PUSH1 0x0 DUP4 ADD DUP8 PUSH3 0x521 JUMP JUMPDEST DUP2 DUP2 SUB PUSH1 0x20 DUP4 ADD MSTORE PUSH3 0xA57 DUP2 DUP7 PUSH3 0x8A9 JUMP JUMPDEST SWAP1 POP DUP2 DUP2 SUB PUSH1 0x40 DUP4 ADD MSTORE PUSH3 0xA6D DUP2 DUP6 PUSH3 0x8A9 JUMP JUMPDEST SWAP1 POP DUP2 DUP2 SUB PUSH1 0x60 DUP4 ADD MSTORE PUSH3 0xA83 DUP2 DUP5 PUSH3 0x8A9 JUMP JUMPDEST SWAP1 POP SWAP6 SWAP5 POP POP POP POP POP JUMP INVALID PUSH1 0x80 PUSH1 0x40 MSTORE CALLVALUE DUP1 ISZERO PUSH3 0x11 JUMPI PUSH1 0x0 DUP1 REVERT JUMPDEST POP PUSH1 0x40 MLOAD PUSH3 0x4B01 CODESIZE SUB DUP1 PUSH3 0x4B01 DUP4 CODECOPY DUP2 DUP2 ADD PUSH1 0x40 MSTORE DUP2 ADD SWAP1 PUSH3 0x37 SWAP2 SWAP1 PUSH3 0x454 JUMP JUMPDEST DUP4 PUSH1 0x0 DUP1 PUSH2 0x100 EXP DUP2 SLOAD DUP2 PUSH20 0xFFFFFFFFFFFFFFFFFFFFFFFFFFFFFFFFFFFFFFFF MUL NOT AND SWAP1 DUP4 PUSH20 0xFFFFFFFFFFFFFFFFFFFFFFFFFFFFFFFFFFFFFFFF AND MUL OR SWAP1 SSTORE POP PUSH1 0x1 PUSH1 0x4 PUSH1 0x0 DUP7 PUSH20 0xFFFFFFFFFFFFFFFFFFFFFFFFFFFFFFFFFFFFFFFF AND PUSH20 0xFFFFFFFFFFFFFFFFFFFFFFFFFFFFFFFFFFFFFFFF AND DUP2 MSTORE PUSH1 0x20 ADD SWAP1 DUP2 MSTORE PUSH1 0x20 ADD PUSH1 0x0 KECCAK256 PUSH1 0x0 PUSH2 0x100 EXP DUP2 SLOAD DUP2 PUSH1 0xFF MUL NOT AND SWAP1 DUP4 ISZERO ISZERO MUL OR SWAP1 SSTORE POP PUSH1 0x5 DUP5 SWAP1 DUP1 PUSH1 0x1 DUP2 SLOAD ADD DUP1 DUP3 SSTORE DUP1 SWAP2 POP POP PUSH1 0x1 SWAP1 SUB SWAP1 PUSH1 0x0 MSTORE PUSH1 0x20 PUSH1 0x0 KECCAK256 ADD PUSH1 0x0 SWAP1 SWAP2 SWAP1 SWAP2 SWAP1 SWAP2 PUSH2 0x100 EXP DUP2 SLOAD DUP2 PUSH20 0xFFFFFFFFFFFFFFFFFFFFFFFFFFFFFFFFFFFFFFFF MUL NOT AND SWAP1 DUP4 PUSH20 0xFFFFFFFFFFFFFFFFFFFFFFFFFFFFFFFFFFFFFFFF AND MUL OR SWAP1 SSTORE POP DUP3 PUSH1 0x1 SWAP1 DUP1 MLOAD SWAP1 PUSH1 0x20 ADD SWAP1 PUSH3 0x14A SWAP3 SWAP2 SWAP1 PUSH3 0x1A2 JUMP JUMPDEST POP DUP2 PUSH1 0x2 SWAP1 DUP1 MLOAD SWAP1 PUSH1 0x20 ADD SWAP1 PUSH3 0x163 SWAP3 SWAP2 SWAP1 PUSH3 0x1A2 JUMP JUMPDEST POP DUP1 PUSH1 0x3 SWAP1 DUP1 MLOAD SWAP1 PUSH1 0x20 ADD SWAP1 PUSH3 0x17C SWAP3 SWAP2 SWAP1 PUSH3 0x1A2 JUMP JUMPDEST POP PUSH1 0x0 PUSH1 0xB PUSH1 0x0 PUSH2 0x100 EXP DUP2 SLOAD DUP2 PUSH1 0xFF MUL NOT AND SWAP1 DUP4 ISZERO ISZERO MUL OR SWAP1 SSTORE POP POP POP POP POP PUSH3 0x588 JUMP JUMPDEST DUP3 DUP1 SLOAD PUSH3 0x1B0 SWAP1 PUSH3 0x552 JUMP JUMPDEST SWAP1 PUSH1 0x0 MSTORE PUSH1 0x20 PUSH1 0x0 KECCAK256 SWAP1 PUSH1 0x1F ADD PUSH1 0x20 SWAP1 DIV DUP2 ADD SWAP3 DUP3 PUSH3 0x1D4 JUMPI PUSH1 0x0 DUP6 SSTORE PUSH3 0x220 JUMP JUMPDEST DUP3 PUSH1 0x1F LT PUSH3 0x1EF JUMPI DUP1 MLOAD PUSH1 0xFF NOT AND DUP4 DUP1 ADD OR DUP6 SSTORE PUSH3 0x220 JUMP JUMPDEST DUP3 DUP1 ADD PUSH1 0x1 ADD DUP6 SSTORE DUP3 ISZERO PUSH3 0x220 JUMPI SWAP2 DUP3 ADD JUMPDEST DUP3 DUP2 GT ISZERO PUSH3 0x21F JUMPI DUP3 MLOAD DUP3 SSTORE SWAP2 PUSH1 0x20 ADD SWAP2 SWAP1 PUSH1 0x1 ADD SWAP1 PUSH3 0x202 JUMP JUMPDEST JUMPDEST POP SWAP1 POP PUSH3 0x22F SWAP2 SWAP1 PUSH3 0x233 JUMP JUMPDEST POP SWAP1 JUMP JUMPDEST JUMPDEST DUP1 DUP3 GT ISZERO PUSH3 0x24E JUMPI PUSH1 0x0 DUP2 PUSH1 0x0 SWAP1 SSTORE POP PUSH1 0x1 ADD PUSH3 0x234 JUMP JUMPDEST POP SWAP1 JUMP JUMPDEST PUSH1 0x0 PUSH1 0x40 MLOAD SWAP1 POP SWAP1 JUMP JUMPDEST PUSH1 0x0 DUP1 REVERT JUMPDEST PUSH1 0x0 DUP1 REVERT JUMPDEST PUSH1 0x0 PUSH20 0xFFFFFFFFFFFFFFFFFFFFFFFFFFFFFFFFFFFFFFFF DUP3 AND SWAP1 POP SWAP2 SWAP1 POP JUMP JUMPDEST PUSH1 0x0 PUSH3 0x293 DUP3 PUSH3 0x266 JUMP JUMPDEST SWAP1 POP SWAP2 SWAP1 POP JUMP JUMPDEST PUSH3 0x2A5 DUP2 PUSH3 0x286 JUMP JUMPDEST DUP2 EQ PUSH3 0x2B1 JUMPI PUSH1 0x0 DUP1 REVERT JUMPDEST POP JUMP JUMPDEST PUSH1 0x0 DUP2 MLOAD SWAP1 POP PUSH3 0x2C5 DUP2 PUSH3 0x29A JUMP JUMPDEST SWAP3 SWAP2 POP POP JUMP JUMPDEST PUSH1 0x0 DUP1 REVERT JUMPDEST PUSH1 0x0 DUP1 REVERT JUMPDEST PUSH1 0x0 PUSH1 0x1F NOT PUSH1 0x1F DUP4 ADD AND SWAP1 POP SWAP2 SWAP1 POP JUMP JUMPDEST PUSH32 0x4E487B7100000000000000000000000000000000000000000000000000000000 PUSH1 0x0 MSTORE PUSH1 0x41 PUSH1 0x4 MSTORE PUSH1 0x24 PUSH1 0x0 REVERT JUMPDEST PUSH3 0x320 DUP3 PUSH3 0x2D5 JUMP JUMPDEST DUP2 ADD DUP2 DUP2 LT PUSH8 0xFFFFFFFFFFFFFFFF DUP3 GT OR ISZERO PUSH3 0x342 JUMPI PUSH3 0x341 PUSH3 0x2E6 JUMP JUMPDEST JUMPDEST DUP1 PUSH1 0x40 MSTORE POP POP POP JUMP JUMPDEST PUSH1 0x0 PUSH3 0x357 PUSH3 0x252 JUMP JUMPDEST SWAP1 POP PUSH3 0x365 DUP3 DUP3 PUSH3 0x315 JUMP JUMPDEST SWAP2 SWAP1 POP JUMP JUMPDEST PUSH1 0x0 PUSH8 0xFFFFFFFFFFFFFFFF DUP3 GT ISZERO PUSH3 0x388 JUMPI PUSH3 0x387 PUSH3 0x2E6 JUMP JUMPDEST JUMPDEST PUSH3 0x393 DUP3 PUSH3 0x2D5 JUMP JUMPDEST SWAP1 POP PUSH1 0x20 DUP2 ADD SWAP1 POP SWAP2 SWAP1 POP JUMP JUMPDEST PUSH1 0x0 JUMPDEST DUP4 DUP2 LT ISZERO PUSH3 0x3C0 JUMPI DUP1 DUP3 ADD MLOAD DUP2 DUP5 ADD MSTORE PUSH1 0x20 DUP2 ADD SWAP1 POP PUSH3 0x3A3 JUMP JUMPDEST DUP4 DUP2 GT ISZERO PUSH3 0x3D0 JUMPI PUSH1 0x0 DUP5 DUP5 ADD MSTORE JUMPDEST POP POP POP POP JUMP JUMPDEST PUSH1 0x0 PUSH3 0x3ED PUSH3 0x3E7 DUP5 PUSH3 0x36A JUMP JUMPDEST PUSH3 0x34B JUMP JUMPDEST SWAP1 POP DUP3 DUP2 MSTORE PUSH1 0x20 DUP2 ADD DUP5 DUP5 DUP5 ADD GT ISZERO PUSH3 0x40C JUMPI PUSH3 0x40B PUSH3 0x2D0 JUMP JUMPDEST JUMPDEST PUSH3 0x419 DUP5 DUP3 DUP6 PUSH3 0x3A0 JUMP JUMPDEST POP SWAP4 SWAP3 POP POP POP JUMP JUMPDEST PUSH1 0x0 DUP3 PUSH1 0x1F DUP4 ADD SLT PUSH3 0x439 JUMPI PUSH3 0x438 PUSH3 0x2CB JUMP JUMPDEST JUMPDEST DUP2 MLOAD PUSH3 0x44B DUP5 DUP3 PUSH1 0x20 DUP7 ADD PUSH3 0x3D6 JUMP JUMPDEST SWAP2 POP POP SWAP3 SWAP2 POP POP JUMP JUMPDEST PUSH1 0x0 DUP1 PUSH1 0x0 DUP1 PUSH1 0x80 DUP6 DUP8 SUB SLT ISZERO PUSH3 0x471 JUMPI PUSH3 0x470 PUSH3 0x25C JUMP JUMPDEST JUMPDEST PUSH1 0x0 PUSH3 0x481 DUP8 DUP3 DUP9 ADD PUSH3 0x2B4 JUMP JUMPDEST SWAP5 POP POP PUSH1 0x20 DUP6 ADD MLOAD PUSH8 0xFFFFFFFFFFFFFFFF DUP2 GT ISZERO PUSH3 0x4A5 JUMPI PUSH3 0x4A4 PUSH3 0x261 JUMP JUMPDEST JUMPDEST PUSH3 0x4B3 DUP8 DUP3 DUP9 ADD PUSH3 0x421 JUMP JUMPDEST SWAP4 POP POP PUSH1 0x40 DUP6 ADD MLOAD PUSH8 0xFFFFFFFFFFFFFFFF DUP2 GT ISZERO PUSH3 0x4D7 JUMPI PUSH3 0x4D6 PUSH3 0x261 JUMP JUMPDEST JUMPDEST PUSH3 0x4E5 DUP8 DUP3 DUP9 ADD PUSH3 0x421 JUMP JUMPDEST SWAP3 POP POP PUSH1 0x60 DUP6 ADD MLOAD PUSH8 0xFFFFFFFFFFFFFFFF DUP2 GT ISZERO PUSH3 0x509 JUMPI PUSH3 0x508 PUSH3 0x261 JUMP JUMPDEST JUMPDEST PUSH3 0x517 DUP8 DUP3 DUP9 ADD PUSH3 0x421 JUMP JUMPDEST SWAP2 POP POP SWAP3 SWAP6 SWAP2 SWAP5 POP SWAP3 POP JUMP JUMPDEST PUSH32 0x4E487B7100000000000000000000000000000000000000000000000000000000 PUSH1 0x0 MSTORE PUSH1 0x22 PUSH1 0x4 MSTORE PUSH1 0x24 PUSH1 0x0 REVERT JUMPDEST PUSH1 0x0 PUSH1 0x2 DUP3 DIV SWAP1 POP PUSH1 0x1 DUP3 AND DUP1 PUSH3 0x56B JUMPI PUSH1 0x7F DUP3 AND SWAP2 POP JUMPDEST PUSH1 0x20 DUP3 LT DUP2 EQ ISZERO PUSH3 0x582 JUMPI PUSH3 0x581 PUSH3 0x523 JUMP JUMPDEST JUMPDEST POP SWAP2 SWAP1 POP JUMP JUMPDEST PUSH2 0x4569 DUP1 PUSH3 0x598 PUSH1 0x0 CODECOPY PUSH1 0x0 RETURN INVALID PUSH1 0x80 PUSH1 0x40 MSTORE PUSH1 0x4 CALLDATASIZE LT PUSH3 0xFE JUMPI PUSH1 0x0 CALLDATALOAD PUSH1 0xE0 SHR DUP1 PUSH4 0x7F51AAF9 GT PUSH3 0x97 JUMPI DUP1 PUSH4 0x9D3ED807 GT PUSH3 0x61 JUMPI DUP1 PUSH4 0x9D3ED807 EQ PUSH3 0x32C JUMPI DUP1 PUSH4 0xB5202522 EQ PUSH3 0x370 JUMPI DUP1 PUSH4 0xD7BB99BA EQ PUSH3 0x3B4 JUMPI DUP1 PUSH4 0xDFA14E23 EQ PUSH3 0x3C0 JUMPI PUSH3 0xFE JUMP JUMPDEST DUP1 PUSH4 0x7F51AAF9 EQ PUSH3 0x25C JUMPI DUP1 PUSH4 0x98B79628 EQ PUSH3 0x2A0 JUMPI DUP1 PUSH4 0x992B11DC EQ PUSH3 0x2CE JUMPI DUP1 PUSH4 0x9C636A0F EQ PUSH3 0x2FC JUMPI PUSH3 0xFE JUMP JUMPDEST DUP1 PUSH4 0x4051DDAC GT PUSH3 0xD9 JUMPI DUP1 PUSH4 0x4051DDAC EQ PUSH3 0x17B JUMPI DUP1 PUSH4 0x5CF298FB EQ PUSH3 0x1B4 JUMPI DUP1 PUSH4 0x5D1A870A EQ PUSH3 0x1E4 JUMPI DUP1 PUSH4 0x6FC6C579 EQ PUSH3 0x214 JUMPI PUSH3 0xFE JUMP JUMPDEST DUP1 PUSH4 0x2606A10B EQ PUSH3 0x103 JUMPI DUP1 PUSH4 0x3B6246C2 EQ PUSH3 0x11D JUMPI DUP1 PUSH4 0x3E5690F4 EQ PUSH3 0x137 JUMPI JUMPDEST PUSH1 0x0 DUP1 REVERT JUMPDEST CALLVALUE DUP1 ISZERO PUSH3 0x110 JUMPI PUSH1 0x0 DUP1 REVERT JUMPDEST POP PUSH3 0x11B PUSH3 0x3EE JUMP JUMPDEST STOP JUMPDEST CALLVALUE DUP1 ISZERO PUSH3 0x12A JUMPI PUSH1 0x0 DUP1 REVERT JUMPDEST POP PUSH3 0x135 PUSH3 0x5F5 JUMP JUMPDEST STOP JUMPDEST CALLVALUE DUP1 ISZERO PUSH3 0x144 JUMPI PUSH1 0x0 DUP1 REVERT JUMPDEST POP PUSH3 0x163 PUSH1 0x4 DUP1 CALLDATASIZE SUB DUP2 ADD SWAP1 PUSH3 0x15D SWAP2 SWAP1 PUSH3 0x1DCD JUMP JUMPDEST PUSH3 0x826 JUMP JUMPDEST PUSH1 0x40 MLOAD PUSH3 0x172 SWAP2 SWAP1 PUSH3 0x1E1C JUMP JUMPDEST PUSH1 0x40 MLOAD DUP1 SWAP2 SUB SWAP1 RETURN JUMPDEST CALLVALUE DUP1 ISZERO PUSH3 0x188 JUMPI PUSH1 0x0 DUP1 REVERT JUMPDEST POP PUSH3 0x193 PUSH3 0x846 JUMP JUMPDEST PUSH1 0x40 MLOAD PUSH3 0x1AB SWAP11 SWAP10 SWAP9 SWAP8 SWAP7 SWAP6 SWAP5 SWAP4 SWAP3 SWAP2 SWAP1 PUSH3 0x1FD7 JUMP JUMPDEST PUSH1 0x40 MLOAD DUP1 SWAP2 SUB SWAP1 RETURN JUMPDEST CALLVALUE DUP1 ISZERO PUSH3 0x1C1 JUMPI PUSH1 0x0 DUP1 REVERT JUMPDEST POP PUSH3 0x1CC PUSH3 0xB8B JUMP JUMPDEST PUSH1 0x40 MLOAD PUSH3 0x1DB SWAP2 SWAP1 PUSH3 0x1E1C JUMP JUMPDEST PUSH1 0x40 MLOAD DUP1 SWAP2 SUB SWAP1 RETURN JUMPDEST CALLVALUE DUP1 ISZERO PUSH3 0x1F1 JUMPI PUSH1 0x0 DUP1 REVERT JUMPDEST POP PUSH3 0x1FC PUSH3 0xBDF JUMP JUMPDEST PUSH1 0x40 MLOAD PUSH3 0x20B SWAP2 SWAP1 PUSH3 0x1E1C JUMP JUMPDEST PUSH1 0x40 MLOAD DUP1 SWAP2 SUB SWAP1 RETURN JUMPDEST CALLVALUE DUP1 ISZERO PUSH3 0x221 JUMPI PUSH1 0x0 DUP1 REVERT JUMPDEST POP PUSH3 0x240 PUSH1 0x4 DUP1 CALLDATASIZE SUB DUP2 ADD SWAP1 PUSH3 0x23A SWAP2 SWAP1 PUSH3 0x20DB JUMP JUMPDEST PUSH3 0xBF2 JUMP JUMPDEST PUSH1 0x40 MLOAD PUSH3 0x253 SWAP6 SWAP5 SWAP4 SWAP3 SWAP2 SWAP1 PUSH3 0x210D JUMP JUMPDEST PUSH1 0x40 MLOAD DUP1 SWAP2 SUB SWAP1 RETURN JUMPDEST CALLVALUE DUP1 ISZERO PUSH3 0x269 JUMPI PUSH1 0x0 DUP1 REVERT JUMPDEST POP PUSH3 0x288 PUSH1 0x4 DUP1 CALLDATASIZE SUB DUP2 ADD SWAP1 PUSH3 0x282 SWAP2 SWAP1 PUSH3 0x1DCD JUMP JUMPDEST PUSH3 0xCF6 JUMP JUMPDEST PUSH1 0x40 MLOAD PUSH3 0x297 SWAP2 SWAP1 PUSH3 0x1E1C JUMP JUMPDEST PUSH1 0x40 MLOAD DUP1 SWAP2 SUB SWAP1 RETURN JUMPDEST CALLVALUE DUP1 ISZERO PUSH3 0x2AD JUMPI PUSH1 0x0 DUP1 REVERT JUMPDEST POP PUSH3 0x2CC PUSH1 0x4 DUP1 CALLDATASIZE SUB DUP2 ADD SWAP1 PUSH3 0x2C6 SWAP2 SWAP1 PUSH3 0x20DB JUMP JUMPDEST PUSH3 0xD16 JUMP JUMPDEST STOP JUMPDEST CALLVALUE DUP1 ISZERO PUSH3 0x2DB JUMPI PUSH1 0x0 DUP1 REVERT JUMPDEST POP PUSH3 0x2FA PUSH1 0x4 DUP1 CALLDATASIZE SUB DUP2 ADD SWAP1 PUSH3 0x2F4 SWAP2 SWAP1 PUSH3 0x22C2 JUMP JUMPDEST PUSH3 0x1154 JUMP JUMPDEST STOP JUMPDEST CALLVALUE DUP1 ISZERO PUSH3 0x309 JUMPI PUSH1 0x0 DUP1 REVERT JUMPDEST POP PUSH3 0x314 PUSH3 0x1652 JUMP JUMPDEST PUSH1 0x40 MLOAD PUSH3 0x323 SWAP2 SWAP1 PUSH3 0x2372 JUMP JUMPDEST PUSH1 0x40 MLOAD DUP1 SWAP2 SUB SWAP1 RETURN JUMPDEST CALLVALUE DUP1 ISZERO PUSH3 0x339 JUMPI PUSH1 0x0 DUP1 REVERT JUMPDEST POP PUSH3 0x358 PUSH1 0x4 DUP1 CALLDATASIZE SUB DUP2 ADD SWAP1 PUSH3 0x352 SWAP2 SWAP1 PUSH3 0x20DB JUMP JUMPDEST PUSH3 0x16E2 JUMP JUMPDEST PUSH1 0x40 MLOAD PUSH3 0x367 SWAP2 SWAP1 PUSH3 0x2396 JUMP JUMPDEST PUSH1 0x40 MLOAD DUP1 SWAP2 SUB SWAP1 RETURN JUMPDEST CALLVALUE DUP1 ISZERO PUSH3 0x37D JUMPI PUSH1 0x0 DUP1 REVERT JUMPDEST POP PUSH3 0x39C PUSH1 0x4 DUP1 CALLDATASIZE SUB DUP2 ADD SWAP1 PUSH3 0x396 SWAP2 SWAP1 PUSH3 0x20DB JUMP JUMPDEST PUSH3 0x1722 JUMP JUMPDEST PUSH1 0x40 MLOAD PUSH3 0x3AB SWAP2 SWAP1 PUSH3 0x2396 JUMP JUMPDEST PUSH1 0x40 MLOAD DUP1 SWAP2 SUB SWAP1 RETURN JUMPDEST PUSH3 0x3BE PUSH3 0x1762 JUMP JUMPDEST STOP JUMPDEST CALLVALUE DUP1 ISZERO PUSH3 0x3CD JUMPI PUSH1 0x0 DUP1 REVERT JUMPDEST POP PUSH3 0x3EC PUSH1 0x4 DUP1 CALLDATASIZE SUB DUP2 ADD SWAP1 PUSH3 0x3E6 SWAP2 SWAP1 PUSH3 0x23B3 JUMP JUMPDEST PUSH3 0x1834 JUMP JUMPDEST STOP JUMPDEST PUSH1 0x8 PUSH1 0x0 SWAP1 SLOAD SWAP1 PUSH2 0x100 EXP SWAP1 DIV PUSH1 0xFF AND ISZERO PUSH3 0x441 JUMPI PUSH1 0x40 MLOAD PUSH32 0x8C379A000000000000000000000000000000000000000000000000000000000 DUP2 MSTORE PUSH1 0x4 ADD PUSH3 0x438 SWAP1 PUSH3 0x2454 JUMP JUMPDEST PUSH1 0x40 MLOAD DUP1 SWAP2 SUB SWAP1 REVERT JUMPDEST PUSH1 0x1 PUSH1 0x8 PUSH1 0x0 PUSH2 0x100 EXP DUP2 SLOAD DUP2 PUSH1 0xFF MUL NOT AND SWAP1 DUP4 ISZERO ISZERO MUL OR SWAP1 SSTORE POP PUSH1 0xB PUSH1 0x0 SWAP1 SLOAD SWAP1 PUSH2 0x100 EXP SWAP1 DIV PUSH1 0xFF AND ISZERO PUSH3 0x4AF JUMPI PUSH1 0x40 MLOAD PUSH32 0x8C379A000000000000000000000000000000000000000000000000000000000 DUP2 MSTORE PUSH1 0x4 ADD PUSH3 0x4A6 SWAP1 PUSH3 0x24C6 JUMP JUMPDEST PUSH1 0x40 MLOAD DUP1 SWAP2 SUB SWAP1 REVERT JUMPDEST PUSH1 0x9 PUSH1 0x0 CALLER PUSH20 0xFFFFFFFFFFFFFFFFFFFFFFFFFFFFFFFFFFFFFFFF AND PUSH20 0xFFFFFFFFFFFFFFFFFFFFFFFFFFFFFFFFFFFFFFFF AND DUP2 MSTORE PUSH1 0x20 ADD SWAP1 DUP2 MSTORE PUSH1 0x20 ADD PUSH1 0x0 KECCAK256 PUSH1 0x0 SWAP1 SLOAD SWAP1 PUSH2 0x100 EXP SWAP1 DIV PUSH1 0xFF AND ISZERO PUSH3 0x53F JUMPI PUSH1 0x40 MLOAD PUSH32 0x8C379A000000000000000000000000000000000000000000000000000000000 DUP2 MSTORE PUSH1 0x4 ADD PUSH3 0x536 SWAP1 PUSH3 0x255E JUMP JUMPDEST PUSH1 0x40 MLOAD DUP1 SWAP2 SUB SWAP1 REVERT JUMPDEST PUSH3 0x557 PUSH1 0x1 PUSH1 0xA SLOAD PUSH3 0x1A56 SWAP1 SWAP2 SWAP1 PUSH4 0xFFFFFFFF AND JUMP JUMPDEST POP PUSH1 0x1 PUSH1 0x9 PUSH1 0x0 CALLER PUSH20 0xFFFFFFFFFFFFFFFFFFFFFFFFFFFFFFFFFFFFFFFF AND PUSH20 0xFFFFFFFFFFFFFFFFFFFFFFFFFFFFFFFFFFFFFFFF AND DUP2 MSTORE PUSH1 0x20 ADD SWAP1 DUP2 MSTORE PUSH1 0x20 ADD PUSH1 0x0 KECCAK256 PUSH1 0x0 PUSH2 0x100 EXP DUP2 SLOAD DUP2 PUSH1 0xFF MUL NOT AND SWAP1 DUP4 ISZERO ISZERO MUL OR SWAP1 SSTORE POP PUSH1 0x64 PUSH1 0xA SLOAD GT ISZERO PUSH3 0x5D8 JUMPI PUSH1 0x1 PUSH1 0xB PUSH1 0x0 PUSH2 0x100 EXP DUP2 SLOAD DUP2 PUSH1 0xFF MUL NOT AND SWAP1 DUP4 ISZERO ISZERO MUL OR SWAP1 SSTORE POP JUMPDEST PUSH1 0x0 PUSH1 0x8 PUSH1 0x0 PUSH2 0x100 EXP DUP2 SLOAD DUP2 PUSH1 0xFF MUL NOT AND SWAP1 DUP4 ISZERO ISZERO MUL OR SWAP1 SSTORE POP JUMP JUMPDEST PUSH1 0x8 PUSH1 0x0 SWAP1 SLOAD SWAP1 PUSH2 0x100 EXP SWAP1 DIV PUSH1 0xFF AND ISZERO PUSH3 0x648 JUMPI PUSH1 0x40 MLOAD PUSH32 0x8C379A000000000000000000000000000000000000000000000000000000000 DUP2 MSTORE PUSH1 0x4 ADD PUSH3 0x63F SWAP1 PUSH3 0x2454 JUMP JUMPDEST PUSH1 0x40 MLOAD DUP1 SWAP2 SUB SWAP1 REVERT JUMPDEST PUSH1 0x1 PUSH1 0x8 PUSH1 0x0 PUSH2 0x100 EXP DUP2 SLOAD DUP2 PUSH1 0xFF MUL NOT AND SWAP1 DUP4 ISZERO ISZERO MUL OR SWAP1 SSTORE POP PUSH1 0x4 PUSH1 0x0 CALLER PUSH20 0xFFFFFFFFFFFFFFFFFFFFFFFFFFFFFFFFFFFFFFFF AND PUSH20 0xFFFFFFFFFFFFFFFFFFFFFFFFFFFFFFFFFFFFFFFF AND DUP2 MSTORE PUSH1 0x20 ADD SWAP1 DUP2 MSTORE PUSH1 0x20 ADD PUSH1 0x0 KECCAK256 PUSH1 0x0 SWAP1 SLOAD SWAP1 PUSH2 0x100 EXP SWAP1 DIV PUSH1 0xFF AND PUSH3 0x6F2 JUMPI PUSH1 0x40 MLOAD PUSH32 0x8C379A000000000000000000000000000000000000000000000000000000000 DUP2 MSTORE PUSH1 0x4 ADD PUSH3 0x6E9 SWAP1 PUSH3 0x25F6 JUMP JUMPDEST PUSH1 0x40 MLOAD DUP1 SWAP2 SUB SWAP1 REVERT JUMPDEST PUSH1 0x0 PUSH1 0x5 DUP1 SLOAD SWAP1 POP SWAP1 POP PUSH1 0x0 PUSH3 0x713 DUP3 SELFBALANCE PUSH3 0x1AB9 SWAP1 SWAP2 SWAP1 PUSH4 0xFFFFFFFF AND JUMP JUMPDEST SWAP1 POP PUSH1 0x0 DUP2 GT PUSH3 0x75B JUMPI PUSH1 0x40 MLOAD PUSH32 0x8C379A000000000000000000000000000000000000000000000000000000000 DUP2 MSTORE PUSH1 0x4 ADD PUSH3 0x752 SWAP1 PUSH3 0x2668 JUMP JUMPDEST PUSH1 0x40 MLOAD DUP1 SWAP2 SUB SWAP1 REVERT JUMPDEST PUSH1 0x0 JUMPDEST DUP3 DUP2 LT ISZERO PUSH3 0x806 JUMPI PUSH1 0x5 DUP2 DUP2 SLOAD DUP2 LT PUSH3 0x77E JUMPI PUSH3 0x77D PUSH3 0x268A JUMP JUMPDEST JUMPDEST SWAP1 PUSH1 0x0 MSTORE PUSH1 0x20 PUSH1 0x0 KECCAK256 ADD PUSH1 0x0 SWAP1 SLOAD SWAP1 PUSH2 0x100 EXP SWAP1 DIV PUSH20 0xFFFFFFFFFFFFFFFFFFFFFFFFFFFFFFFFFFFFFFFF AND PUSH20 0xFFFFFFFFFFFFFFFFFFFFFFFFFFFFFFFFFFFFFFFF AND PUSH2 0x8FC DUP4 SWAP1 DUP2 ISZERO MUL SWAP1 PUSH1 0x40 MLOAD PUSH1 0x0 PUSH1 0x40 MLOAD DUP1 DUP4 SUB DUP2 DUP6 DUP9 DUP9 CALL SWAP4 POP POP POP POP ISZERO DUP1 ISZERO PUSH3 0x7EF JUMPI RETURNDATASIZE PUSH1 0x0 DUP1 RETURNDATACOPY RETURNDATASIZE PUSH1 0x0 REVERT JUMPDEST POP DUP1 DUP1 PUSH3 0x7FD SWAP1 PUSH3 0x26E8 JUMP JUMPDEST SWAP2 POP POP PUSH3 0x75E JUMP JUMPDEST POP POP POP PUSH1 0x0 PUSH1 0x8 PUSH1 0x0 PUSH2 0x100 EXP DUP2 SLOAD DUP2 PUSH1 0xFF MUL NOT AND SWAP1 DUP4 ISZERO ISZERO MUL OR SWAP1 SSTORE POP JUMP JUMPDEST PUSH1 0x4 PUSH1 0x20 MSTORE DUP1 PUSH1 0x0 MSTORE PUSH1 0x40 PUSH1 0x0 KECCAK256 PUSH1 0x0 SWAP2 POP SLOAD SWAP1 PUSH2 0x100 EXP SWAP1 DIV PUSH1 0xFF AND DUP2 JUMP JUMPDEST PUSH1 0x0 PUSH1 0x60 DUP1 PUSH1 0x60 DUP1 PUSH1 0x60 PUSH1 0x0 DUP1 PUSH1 0x0 DUP1 PUSH1 0x0 DUP1 SLOAD SWAP1 PUSH2 0x100 EXP SWAP1 DIV PUSH20 0xFFFFFFFFFFFFFFFFFFFFFFFFFFFFFFFFFFFFFFFF AND PUSH1 0x1 PUSH1 0x2 PUSH1 0x3 PUSH1 0x5 PUSH1 0x7 PUSH1 0xC DUP1 SLOAD SWAP1 POP PUSH1 0xA SLOAD PUSH1 0xB PUSH1 0x0 SWAP1 SLOAD SWAP1 PUSH2 0x100 EXP SWAP1 DIV PUSH1 0xFF AND SELFBALANCE DUP9 DUP1 SLOAD PUSH3 0x8A9 SWAP1 PUSH3 0x2765 JUMP JUMPDEST DUP1 PUSH1 0x1F ADD PUSH1 0x20 DUP1 SWAP2 DIV MUL PUSH1 0x20 ADD PUSH1 0x40 MLOAD SWAP1 DUP2 ADD PUSH1 0x40 MSTORE DUP1 SWAP3 SWAP2 SWAP1 DUP2 DUP2 MSTORE PUSH1 0x20 ADD DUP3 DUP1 SLOAD PUSH3 0x8D7 SWAP1 PUSH3 0x2765 JUMP JUMPDEST DUP1 ISZERO PUSH3 0x928 JUMPI DUP1 PUSH1 0x1F LT PUSH3 0x8FC JUMPI PUSH2 0x100 DUP1 DUP4 SLOAD DIV MUL DUP4 MSTORE SWAP2 PUSH1 0x20 ADD SWAP2 PUSH3 0x928 JUMP JUMPDEST DUP3 ADD SWAP2 SWAP1 PUSH1 0x0 MSTORE PUSH1 0x20 PUSH1 0x0 KECCAK256 SWAP1 JUMPDEST DUP2 SLOAD DUP2 MSTORE SWAP1 PUSH1 0x1 ADD SWAP1 PUSH1 0x20 ADD DUP1 DUP4 GT PUSH3 0x90A JUMPI DUP3 SWAP1 SUB PUSH1 0x1F AND DUP3 ADD SWAP2 JUMPDEST POP POP POP POP POP SWAP9 POP DUP8 DUP1 SLOAD PUSH3 0x93D SWAP1 PUSH3 0x2765 JUMP JUMPDEST DUP1 PUSH1 0x1F ADD PUSH1 0x20 DUP1 SWAP2 DIV MUL PUSH1 0x20 ADD PUSH1 0x40 MLOAD SWAP1 DUP2 ADD PUSH1 0x40 MSTORE DUP1 SWAP3 SWAP2 SWAP1 DUP2 DUP2 MSTORE PUSH1 0x20 ADD DUP3 DUP1 SLOAD PUSH3 0x96B SWAP1 PUSH3 0x2765 JUMP JUMPDEST DUP1 ISZERO PUSH3 0x9BC JUMPI DUP1 PUSH1 0x1F LT PUSH3 0x990 JUMPI PUSH2 0x100 DUP1 DUP4 SLOAD DIV MUL DUP4 MSTORE SWAP2 PUSH1 0x20 ADD SWAP2 PUSH3 0x9BC JUMP JUMPDEST DUP3 ADD SWAP2 SWAP1 PUSH1 0x0 MSTORE PUSH1 0x20 PUSH1 0x0 KECCAK256 SWAP1 JUMPDEST DUP2 SLOAD DUP2 MSTORE SWAP1 PUSH1 0x1 ADD SWAP1 PUSH1 0x20 ADD DUP1 DUP4 GT PUSH3 0x99E JUMPI DUP3 SWAP1 SUB PUSH1 0x1F AND DUP3 ADD SWAP2 JUMPDEST POP POP POP POP POP SWAP8 POP DUP7 DUP1 SLOAD PUSH3 0x9D1 SWAP1 PUSH3 0x2765 JUMP JUMPDEST DUP1 PUSH1 0x1F ADD PUSH1 0x20 DUP1 SWAP2 DIV MUL PUSH1 0x20 ADD PUSH1 0x40 MLOAD SWAP1 DUP2 ADD PUSH1 0x40 MSTORE DUP1 SWAP3 SWAP2 SWAP1 DUP2 DUP2 MSTORE PUSH1 0x20 ADD DUP3 DUP1 SLOAD PUSH3 0x9FF SWAP1 PUSH3 0x2765 JUMP JUMPDEST DUP1 ISZERO PUSH3 0xA50 JUMPI DUP1 PUSH1 0x1F LT PUSH3 0xA24 JUMPI PUSH2 0x100 DUP1 DUP4 SLOAD DIV MUL DUP4 MSTORE SWAP2 PUSH1 0x20 ADD SWAP2 PUSH3 0xA50 JUMP JUMPDEST DUP3 ADD SWAP2 SWAP1 PUSH1 0x0 MSTORE PUSH1 0x20 PUSH1 0x0 KECCAK256 SWAP1 JUMPDEST DUP2 SLOAD DUP2 MSTORE SWAP1 PUSH1 0x1 ADD SWAP1 PUSH1 0x20 ADD DUP1 DUP4 GT PUSH3 0xA32 JUMPI DUP3 SWAP1 SUB PUSH1 0x1F AND DUP3 ADD SWAP2 JUMPDEST POP POP POP POP POP SWAP7 POP DUP6 DUP1 SLOAD DUP1 PUSH1 0x20 MUL PUSH1 0x20 ADD PUSH1 0x40 MLOAD SWAP1 DUP2 ADD PUSH1 0x40 MSTORE DUP1 SWAP3 SWAP2 SWAP1 DUP2 DUP2 MSTORE PUSH1 0x20 ADD DUP3 DUP1 SLOAD DUP1 ISZERO PUSH3 0xADA JUMPI PUSH1 0x20 MUL DUP3 ADD SWAP2 SWAP1 PUSH1 0x0 MSTORE PUSH1 0x20 PUSH1 0x0 KECCAK256 SWAP1 JUMPDEST DUP2 PUSH1 0x0 SWAP1 SLOAD SWAP1 PUSH2 0x100 EXP SWAP1 DIV PUSH20 0xFFFFFFFFFFFFFFFFFFFFFFFFFFFFFFFFFFFFFFFF AND PUSH20 0xFFFFFFFFFFFFFFFFFFFFFFFFFFFFFFFFFFFFFFFF AND DUP2 MSTORE PUSH1 0x20 ADD SWAP1 PUSH1 0x1 ADD SWAP1 DUP1 DUP4 GT PUSH3 0xA8F JUMPI JUMPDEST POP POP POP POP POP SWAP6 POP DUP5 DUP1 SLOAD DUP1 PUSH1 0x20 MUL PUSH1 0x20 ADD PUSH1 0x40 MLOAD SWAP1 DUP2 ADD PUSH1 0x40 MSTORE DUP1 SWAP3 SWAP2 SWAP1 DUP2 DUP2 MSTORE PUSH1 0x20 ADD DUP3 DUP1 SLOAD DUP1 ISZERO PUSH3 0xB64 JUMPI PUSH1 0x20 MUL DUP3 ADD SWAP2 SWAP1 PUSH1 0x0 MSTORE PUSH1 0x20 PUSH1 0x0 KECCAK256 SWAP1 JUMPDEST DUP2 PUSH1 0x0 SWAP1 SLOAD SWAP1 PUSH2 0x100 EXP SWAP1 DIV PUSH20 0xFFFFFFFFFFFFFFFFFFFFFFFFFFFFFFFFFFFFFFFF AND PUSH20 0xFFFFFFFFFFFFFFFFFFFFFFFFFFFFFFFFFFFFFFFF AND DUP2 MSTORE PUSH1 0x20 ADD SWAP1 PUSH1 0x1 ADD SWAP1 DUP1 DUP4 GT PUSH3 0xB19 JUMPI JUMPDEST POP POP POP POP POP SWAP5 POP SWAP10 POP SWAP10 POP SWAP10 POP SWAP10 POP SWAP10 POP SWAP10 POP SWAP10 POP SWAP10 POP SWAP10 POP SWAP10 POP SWAP1 SWAP2 SWAP3 SWAP4 SWAP5 SWAP6 SWAP7 SWAP8 SWAP9 SWAP10 JUMP JUMPDEST PUSH1 0x0 PUSH1 0x4 PUSH1 0x0 CALLER PUSH20 0xFFFFFFFFFFFFFFFFFFFFFFFFFFFFFFFFFFFFFFFF AND PUSH20 0xFFFFFFFFFFFFFFFFFFFFFFFFFFFFFFFFFFFFFFFF AND DUP2 MSTORE PUSH1 0x20 ADD SWAP1 DUP2 MSTORE PUSH1 0x20 ADD PUSH1 0x0 KECCAK256 PUSH1 0x0 SWAP1 SLOAD SWAP1 PUSH2 0x100 EXP SWAP1 DIV PUSH1 0xFF AND SWAP1 POP SWAP1 JUMP JUMPDEST PUSH1 0xB PUSH1 0x0 SWAP1 SLOAD SWAP1 PUSH2 0x100 EXP SWAP1 DIV PUSH1 0xFF AND DUP2 JUMP JUMPDEST PUSH1 0xC DUP2 DUP2 SLOAD DUP2 LT PUSH3 0xC03 JUMPI PUSH1 0x0 DUP1 REVERT JUMPDEST SWAP1 PUSH1 0x0 MSTORE PUSH1 0x20 PUSH1 0x0 KECCAK256 SWAP1 PUSH1 0x6 MUL ADD PUSH1 0x0 SWAP2 POP SWAP1 POP DUP1 PUSH1 0x0 ADD DUP1 SLOAD PUSH3 0xC28 SWAP1 PUSH3 0x2765 JUMP JUMPDEST DUP1 PUSH1 0x1F ADD PUSH1 0x20 DUP1 SWAP2 DIV MUL PUSH1 0x20 ADD PUSH1 0x40 MLOAD SWAP1 DUP2 ADD PUSH1 0x40 MSTORE DUP1 SWAP3 SWAP2 SWAP1 DUP2 DUP2 MSTORE PUSH1 0x20 ADD DUP3 DUP1 SLOAD PUSH3 0xC56 SWAP1 PUSH3 0x2765 JUMP JUMPDEST DUP1 ISZERO PUSH3 0xCA7 JUMPI DUP1 PUSH1 0x1F LT PUSH3 0xC7B JUMPI PUSH2 0x100 DUP1 DUP4 SLOAD DIV MUL DUP4 MSTORE SWAP2 PUSH1 0x20 ADD SWAP2 PUSH3 0xCA7 JUMP JUMPDEST DUP3 ADD SWAP2 SWAP1 PUSH1 0x0 MSTORE PUSH1 0x20 PUSH1 0x0 KECCAK256 SWAP1 JUMPDEST DUP2 SLOAD DUP2 MSTORE SWAP1 PUSH1 0x1 ADD SWAP1 PUSH1 0x20 ADD DUP1 DUP4 GT PUSH3 0xC89 JUMPI DUP3 SWAP1 SUB PUSH1 0x1F AND DUP3 ADD SWAP2 JUMPDEST POP POP POP POP POP SWAP1 DUP1 PUSH1 0x1 ADD SLOAD SWAP1 DUP1 PUSH1 0x2 ADD PUSH1 0x0 SWAP1 SLOAD SWAP1 PUSH2 0x100 EXP SWAP1 DIV PUSH20 0xFFFFFFFFFFFFFFFFFFFFFFFFFFFFFFFFFFFFFFFF AND SWAP1 DUP1 PUSH1 0x4 ADD SLOAD SWAP1 DUP1 PUSH1 0x5 ADD PUSH1 0x0 SWAP1 SLOAD SWAP1 PUSH2 0x100 EXP SWAP1 DIV PUSH1 0xFF AND SWAP1 POP DUP6 JUMP JUMPDEST PUSH1 0x6 PUSH1 0x20 MSTORE DUP1 PUSH1 0x0 MSTORE PUSH1 0x40 PUSH1 0x0 KECCAK256 PUSH1 0x0 SWAP2 POP SLOAD SWAP1 PUSH2 0x100 EXP SWAP1 DIV PUSH1 0xFF AND DUP2 JUMP JUMPDEST PUSH1 0x8 PUSH1 0x0 SWAP1 SLOAD SWAP1 PUSH2 0x100 EXP SWAP1 DIV PUSH1 0xFF AND ISZERO PUSH3 0xD69 JUMPI PUSH1 0x40 MLOAD PUSH32 0x8C379A000000000000000000000000000000000000000000000000000000000 DUP2 MSTORE PUSH1 0x4 ADD PUSH3 0xD60 SWAP1 PUSH3 0x2454 JUMP JUMPDEST PUSH1 0x40 MLOAD DUP1 SWAP2 SUB SWAP1 REVERT JUMPDEST PUSH1 0x1 PUSH1 0x8 PUSH1 0x0 PUSH2 0x100 EXP DUP2 SLOAD DUP2 PUSH1 0xFF MUL NOT AND SWAP1 DUP4 ISZERO ISZERO MUL OR SWAP1 SSTORE POP PUSH1 0xB PUSH1 0x0 SWAP1 SLOAD SWAP1 PUSH2 0x100 EXP SWAP1 DIV PUSH1 0xFF AND ISZERO PUSH3 0xDD7 JUMPI PUSH1 0x40 MLOAD PUSH32 0x8C379A000000000000000000000000000000000000000000000000000000000 DUP2 MSTORE PUSH1 0x4 ADD PUSH3 0xDCE SWAP1 PUSH3 0x24C6 JUMP JUMPDEST PUSH1 0x40 MLOAD DUP1 SWAP2 SUB SWAP1 REVERT JUMPDEST PUSH1 0x4 PUSH1 0x0 CALLER PUSH20 0xFFFFFFFFFFFFFFFFFFFFFFFFFFFFFFFFFFFFFFFF AND PUSH20 0xFFFFFFFFFFFFFFFFFFFFFFFFFFFFFFFFFFFFFFFF AND DUP2 MSTORE PUSH1 0x20 ADD SWAP1 DUP2 MSTORE PUSH1 0x20 ADD PUSH1 0x0 KECCAK256 PUSH1 0x0 SWAP1 SLOAD SWAP1 PUSH2 0x100 EXP SWAP1 DIV PUSH1 0xFF AND PUSH3 0xE66 JUMPI PUSH1 0x40 MLOAD PUSH32 0x8C379A000000000000000000000000000000000000000000000000000000000 DUP2 MSTORE PUSH1 0x4 ADD PUSH3 0xE5D SWAP1 PUSH3 0x2811 JUMP JUMPDEST PUSH1 0x40 MLOAD DUP1 SWAP2 SUB SWAP1 REVERT JUMPDEST PUSH1 0xC DUP1 SLOAD SWAP1 POP DUP2 LT DUP1 ISZERO PUSH3 0xE7C JUMPI POP PUSH1 0x0 DUP2 LT ISZERO JUMPDEST PUSH3 0xEBE JUMPI PUSH1 0x40 MLOAD PUSH32 0x8C379A000000000000000000000000000000000000000000000000000000000 DUP2 MSTORE PUSH1 0x4 ADD PUSH3 0xEB5 SWAP1 PUSH3 0x2883 JUMP JUMPDEST PUSH1 0x40 MLOAD DUP1 SWAP2 SUB SWAP1 REVERT JUMPDEST PUSH1 0x0 PUSH1 0xC DUP3 DUP2 SLOAD DUP2 LT PUSH3 0xED7 JUMPI PUSH3 0xED6 PUSH3 0x268A JUMP JUMPDEST JUMPDEST SWAP1 PUSH1 0x0 MSTORE PUSH1 0x20 PUSH1 0x0 KECCAK256 SWAP1 PUSH1 0x6 MUL ADD SWAP1 POP DUP1 PUSH1 0x3 ADD PUSH1 0x0 CALLER PUSH20 0xFFFFFFFFFFFFFFFFFFFFFFFFFFFFFFFFFFFFFFFF AND PUSH20 0xFFFFFFFFFFFFFFFFFFFFFFFFFFFFFFFFFFFFFFFF AND DUP2 MSTORE PUSH1 0x20 ADD SWAP1 DUP2 MSTORE PUSH1 0x20 ADD PUSH1 0x0 KECCAK256 PUSH1 0x0 SWAP1 SLOAD SWAP1 PUSH2 0x100 EXP SWAP1 DIV PUSH1 0xFF AND ISZERO PUSH3 0xF79 JUMPI PUSH1 0x40 MLOAD PUSH32 0x8C379A000000000000000000000000000000000000000000000000000000000 DUP2 MSTORE PUSH1 0x4 ADD PUSH3 0xF70 SWAP1 PUSH3 0x291B JUMP JUMPDEST PUSH1 0x40 MLOAD DUP1 SWAP2 SUB SWAP1 REVERT JUMPDEST PUSH1 0x1 DUP2 PUSH1 0x3 ADD PUSH1 0x0 CALLER PUSH20 0xFFFFFFFFFFFFFFFFFFFFFFFFFFFFFFFFFFFFFFFF AND PUSH20 0xFFFFFFFFFFFFFFFFFFFFFFFFFFFFFFFFFFFFFFFF AND DUP2 MSTORE PUSH1 0x20 ADD SWAP1 DUP2 MSTORE PUSH1 0x20 ADD PUSH1 0x0 KECCAK256 PUSH1 0x0 PUSH2 0x100 EXP DUP2 SLOAD DUP2 PUSH1 0xFF MUL NOT AND SWAP1 DUP4 ISZERO ISZERO MUL OR SWAP1 SSTORE POP PUSH3 0xFED PUSH1 0x1 DUP3 PUSH1 0x4 ADD SLOAD PUSH3 0x1A56 SWAP1 SWAP2 SWAP1 PUSH4 0xFFFFFFFF AND JUMP JUMPDEST DUP2 PUSH1 0x4 ADD DUP2 SWAP1 SSTORE POP PUSH1 0x2 PUSH1 0x5 DUP1 SLOAD SWAP1 POP PUSH3 0x1009 SWAP2 SWAP1 PUSH3 0x296C JUMP JUMPDEST DUP2 PUSH1 0x4 ADD SLOAD LT PUSH3 0x1135 JUMPI PUSH1 0x1 DUP2 PUSH1 0x5 ADD PUSH1 0x0 PUSH2 0x100 EXP DUP2 SLOAD DUP2 PUSH1 0xFF MUL NOT AND SWAP1 DUP4 ISZERO ISZERO MUL OR SWAP1 SSTORE POP PUSH1 0x1 PUSH1 0x4 PUSH1 0x0 DUP4 PUSH1 0x2 ADD PUSH1 0x0 SWAP1 SLOAD SWAP1 PUSH2 0x100 EXP SWAP1 DIV PUSH20 0xFFFFFFFFFFFFFFFFFFFFFFFFFFFFFFFFFFFFFFFF AND PUSH20 0xFFFFFFFFFFFFFFFFFFFFFFFFFFFFFFFFFFFFFFFF AND PUSH20 0xFFFFFFFFFFFFFFFFFFFFFFFFFFFFFFFFFFFFFFFF AND DUP2 MSTORE PUSH1 0x20 ADD SWAP1 DUP2 MSTORE PUSH1 0x20 ADD PUSH1 0x0 KECCAK256 PUSH1 0x0 PUSH2 0x100 EXP DUP2 SLOAD DUP2 PUSH1 0xFF MUL NOT AND SWAP1 DUP4 ISZERO ISZERO MUL OR SWAP1 SSTORE POP PUSH1 0x5 DUP2 PUSH1 0x2 ADD PUSH1 0x0 SWAP1 SLOAD SWAP1 PUSH2 0x100 EXP SWAP1 DIV PUSH20 0xFFFFFFFFFFFFFFFFFFFFFFFFFFFFFFFFFFFFFFFF AND SWAP1 DUP1 PUSH1 0x1 DUP2 SLOAD ADD DUP1 DUP3 SSTORE DUP1 SWAP2 POP POP PUSH1 0x1 SWAP1 SUB SWAP1 PUSH1 0x0 MSTORE PUSH1 0x20 PUSH1 0x0 KECCAK256 ADD PUSH1 0x0 SWAP1 SWAP2 SWAP1 SWAP2 SWAP1 SWAP2 PUSH2 0x100 EXP DUP2 SLOAD DUP2 PUSH20 0xFFFFFFFFFFFFFFFFFFFFFFFFFFFFFFFFFFFFFFFF MUL NOT AND SWAP1 DUP4 PUSH20 0xFFFFFFFFFFFFFFFFFFFFFFFFFFFFFFFFFFFFFFFF AND MUL OR SWAP1 SSTORE POP JUMPDEST POP PUSH1 0x0 PUSH1 0x8 PUSH1 0x0 PUSH2 0x100 EXP DUP2 SLOAD DUP2 PUSH1 0xFF MUL NOT AND SWAP1 DUP4 ISZERO ISZERO MUL OR SWAP1 SSTORE POP POP JUMP JUMPDEST PUSH1 0x8 PUSH1 0x0 SWAP1 SLOAD SWAP1 PUSH2 0x100 EXP SWAP1 DIV PUSH1 0xFF AND ISZERO PUSH3 0x11A7 JUMPI PUSH1 0x40 MLOAD PUSH32 0x8C379A000000000000000000000000000000000000000000000000000000000 DUP2 MSTORE PUSH1 0x4 ADD PUSH3 0x119E SWAP1 PUSH3 0x2454 JUMP JUMPDEST PUSH1 0x40 MLOAD DUP1 SWAP2 SUB SWAP1 REVERT JUMPDEST PUSH1 0x1 PUSH1 0x8 PUSH1 0x0 PUSH2 0x100 EXP DUP2 SLOAD DUP2 PUSH1 0xFF MUL NOT AND SWAP1 DUP4 ISZERO ISZERO MUL OR SWAP1 SSTORE POP PUSH1 0xB PUSH1 0x0 SWAP1 SLOAD SWAP1 PUSH2 0x100 EXP SWAP1 DIV PUSH1 0xFF AND ISZERO PUSH3 0x1215 JUMPI PUSH1 0x40 MLOAD PUSH32 0x8C379A000000000000000000000000000000000000000000000000000000000 DUP2 MSTORE PUSH1 0x4 ADD PUSH3 0x120C SWAP1 PUSH3 0x24C6 JUMP JUMPDEST PUSH1 0x40 MLOAD DUP1 SWAP2 SUB SWAP1 REVERT JUMPDEST PUSH1 0x4 PUSH1 0x0 CALLER PUSH20 0xFFFFFFFFFFFFFFFFFFFFFFFFFFFFFFFFFFFFFFFF AND PUSH20 0xFFFFFFFFFFFFFFFFFFFFFFFFFFFFFFFFFFFFFFFF AND DUP2 MSTORE PUSH1 0x20 ADD SWAP1 DUP2 MSTORE PUSH1 0x20 ADD PUSH1 0x0 KECCAK256 PUSH1 0x0 SWAP1 SLOAD SWAP1 PUSH2 0x100 EXP SWAP1 DIV PUSH1 0xFF AND PUSH3 0x12A4 JUMPI PUSH1 0x40 MLOAD PUSH32 0x8C379A000000000000000000000000000000000000000000000000000000000 DUP2 MSTORE PUSH1 0x4 ADD PUSH3 0x129B SWAP1 PUSH3 0x2A1A JUMP JUMPDEST PUSH1 0x40 MLOAD DUP1 SWAP2 SUB SWAP1 REVERT JUMPDEST PUSH3 0x12AF DUP3 PUSH3 0x1B16 JUMP JUMPDEST PUSH3 0x12F1 JUMPI PUSH1 0x40 MLOAD PUSH32 0x8C379A000000000000000000000000000000000000000000000000000000000 DUP2 MSTORE PUSH1 0x4 ADD PUSH3 0x12E8 SWAP1 PUSH3 0x2AB2 JUMP JUMPDEST PUSH1 0x40 MLOAD DUP1 SWAP2 SUB SWAP1 REVERT JUMPDEST PUSH3 0x12FC DUP2 PUSH3 0x1B16 JUMP JUMPDEST PUSH3 0x133E JUMPI PUSH1 0x40 MLOAD PUSH32 0x8C379A000000000000000000000000000000000000000000000000000000000 DUP2 MSTORE PUSH1 0x4 ADD PUSH3 0x1335 SWAP1 PUSH3 0x2B24 JUMP JUMPDEST PUSH1 0x40 MLOAD DUP1 SWAP2 SUB SWAP1 REVERT JUMPDEST PUSH3 0x1349 DUP3 PUSH3 0x1B6A JUMP JUMPDEST PUSH3 0x138B JUMPI PUSH1 0x40 MLOAD PUSH32 0x8C379A000000000000000000000000000000000000000000000000000000000 DUP2 MSTORE PUSH1 0x4 ADD PUSH3 0x1382 SWAP1 PUSH3 0x2BBC JUMP JUMPDEST PUSH1 0x40 MLOAD DUP1 SWAP2 SUB SWAP1 REVERT JUMPDEST PUSH3 0x1396 DUP2 PUSH3 0x1C00 JUMP JUMPDEST PUSH3 0x13D8 JUMPI PUSH1 0x40 MLOAD PUSH32 0x8C379A000000000000000000000000000000000000000000000000000000000 DUP2 MSTORE PUSH1 0x4 ADD PUSH3 0x13CF SWAP1 PUSH3 0x2C54 JUMP JUMPDEST PUSH1 0x40 MLOAD DUP1 SWAP2 SUB SWAP1 REVERT JUMPDEST PUSH1 0x0 CALLER ADDRESS DUP7 DUP7 DUP7 DUP7 PUSH1 0x40 MLOAD PUSH3 0x13EE SWAP1 PUSH3 0x1C96 JUMP JUMPDEST PUSH3 0x13FF SWAP7 SWAP6 SWAP5 SWAP4 SWAP3 SWAP2 SWAP1 PUSH3 0x2C76 JUMP JUMPDEST PUSH1 0x40 MLOAD DUP1 SWAP2 SUB SWAP1 PUSH1 0x0 CREATE DUP1 ISZERO DUP1 ISZERO PUSH3 0x141C JUMPI RETURNDATASIZE PUSH1 0x0 DUP1 RETURNDATACOPY RETURNDATASIZE PUSH1 0x0 REVERT JUMPDEST POP SWAP1 POP PUSH1 0x0 PUSH20 0xFFFFFFFFFFFFFFFFFFFFFFFFFFFFFFFFFFFFFFFF AND DUP4 PUSH20 0xFFFFFFFFFFFFFFFFFFFFFFFFFFFFFFFFFFFFFFFF AND EQ PUSH3 0x14CA JUMPI PUSH1 0x0 DUP4 SWAP1 POP DUP1 PUSH20 0xFFFFFFFFFFFFFFFFFFFFFFFFFFFFFFFFFFFFFFFF AND PUSH4 0x988E46C8 DUP4 PUSH1 0x40 MLOAD DUP3 PUSH4 0xFFFFFFFF AND PUSH1 0xE0 SHL DUP2 MSTORE PUSH1 0x4 ADD PUSH3 0x1494 SWAP2 SWAP1 PUSH3 0x2396 JUMP JUMPDEST PUSH1 0x0 PUSH1 0x40 MLOAD DUP1 DUP4 SUB DUP2 PUSH1 0x0 DUP8 DUP1 EXTCODESIZE ISZERO DUP1 ISZERO PUSH3 0x14AF JUMPI PUSH1 0x0 DUP1 REVERT JUMPDEST POP GAS CALL ISZERO DUP1 ISZERO PUSH3 0x14C4 JUMPI RETURNDATASIZE PUSH1 0x0 DUP1 RETURNDATACOPY RETURNDATASIZE PUSH1 0x0 REVERT JUMPDEST POP POP POP POP POP JUMPDEST PUSH1 0x0 PUSH20 0xFFFFFFFFFFFFFFFFFFFFFFFFFFFFFFFFFFFFFFFF AND DUP3 PUSH20 0xFFFFFFFFFFFFFFFFFFFFFFFFFFFFFFFFFFFFFFFF AND EQ PUSH3 0x1575 JUMPI PUSH1 0x0 DUP3 SWAP1 POP DUP1 PUSH20 0xFFFFFFFFFFFFFFFFFFFFFFFFFFFFFFFFFFFFFFFF AND PUSH4 0x8758CE83 DUP4 PUSH1 0x40 MLOAD DUP3 PUSH4 0xFFFFFFFF AND PUSH1 0xE0 SHL DUP2 MSTORE PUSH1 0x4 ADD PUSH3 0x153F SWAP2 SWAP1 PUSH3 0x2396 JUMP JUMPDEST PUSH1 0x0 PUSH1 0x40 MLOAD DUP1 DUP4 SUB DUP2 PUSH1 0x0 DUP8 DUP1 EXTCODESIZE ISZERO DUP1 ISZERO PUSH3 0x155A JUMPI PUSH1 0x0 DUP1 REVERT JUMPDEST POP GAS CALL ISZERO DUP1 ISZERO PUSH3 0x156F JUMPI RETURNDATASIZE PUSH1 0x0 DUP1 RETURNDATACOPY RETURNDATASIZE PUSH1 0x0 REVERT JUMPDEST POP POP POP POP POP JUMPDEST PUSH1 0x7 DUP2 SWAP1 DUP1 PUSH1 0x1 DUP2 SLOAD ADD DUP1 DUP3 SSTORE DUP1 SWAP2 POP POP PUSH1 0x1 SWAP1 SUB SWAP1 PUSH1 0x0 MSTORE PUSH1 0x20 PUSH1 0x0 KECCAK256 ADD PUSH1 0x0 SWAP1 SWAP2 SWAP1 SWAP2 SWAP1 SWAP2 PUSH2 0x100 EXP DUP2 SLOAD DUP2 PUSH20 0xFFFFFFFFFFFFFFFFFFFFFFFFFFFFFFFFFFFFFFFF MUL NOT AND SWAP1 DUP4 PUSH20 0xFFFFFFFFFFFFFFFFFFFFFFFFFFFFFFFFFFFFFFFF AND MUL OR SWAP1 SSTORE POP PUSH1 0x1 PUSH1 0x6 PUSH1 0x0 DUP4 PUSH20 0xFFFFFFFFFFFFFFFFFFFFFFFFFFFFFFFFFFFFFFFF AND PUSH20 0xFFFFFFFFFFFFFFFFFFFFFFFFFFFFFFFFFFFFFFFF AND DUP2 MSTORE PUSH1 0x20 ADD SWAP1 DUP2 MSTORE PUSH1 0x20 ADD PUSH1 0x0 KECCAK256 PUSH1 0x0 PUSH2 0x100 EXP DUP2 SLOAD DUP2 PUSH1 0xFF MUL NOT AND SWAP1 DUP4 ISZERO ISZERO MUL OR SWAP1 SSTORE POP POP PUSH1 0x0 PUSH1 0x8 PUSH1 0x0 PUSH2 0x100 EXP DUP2 SLOAD DUP2 PUSH1 0xFF MUL NOT AND SWAP1 DUP4 ISZERO ISZERO MUL OR SWAP1 SSTORE POP POP POP POP POP JUMP JUMPDEST PUSH1 0x60 PUSH1 0x7 DUP1 SLOAD DUP1 PUSH1 0x20 MUL PUSH1 0x20 ADD PUSH1 0x40 MLOAD SWAP1 DUP2 ADD PUSH1 0x40 MSTORE DUP1 SWAP3 SWAP2 SWAP1 DUP2 DUP2 MSTORE PUSH1 0x20 ADD DUP3 DUP1 SLOAD DUP1 ISZERO PUSH3 0x16D8 JUMPI PUSH1 0x20 MUL DUP3 ADD SWAP2 SWAP1 PUSH1 0x0 MSTORE PUSH1 0x20 PUSH1 0x0 KECCAK256 SWAP1 JUMPDEST DUP2 PUSH1 0x0 SWAP1 SLOAD SWAP1 PUSH2 0x100 EXP SWAP1 DIV PUSH20 0xFFFFFFFFFFFFFFFFFFFFFFFFFFFFFFFFFFFFFFFF AND PUSH20 0xFFFFFFFFFFFFFFFFFFFFFFFFFFFFFFFFFFFFFFFF AND DUP2 MSTORE PUSH1 0x20 ADD SWAP1 PUSH1 0x1 ADD SWAP1 DUP1 DUP4 GT PUSH3 0x168D JUMPI JUMPDEST POP POP POP POP POP SWAP1 POP SWAP1 JUMP JUMPDEST PUSH1 0x5 DUP2 DUP2 SLOAD DUP2 LT PUSH3 0x16F3 JUMPI PUSH1 0x0 DUP1 REVERT JUMPDEST SWAP1 PUSH1 0x0 MSTORE PUSH1 0x20 PUSH1 0x0 KECCAK256 ADD PUSH1 0x0 SWAP2 POP SLOAD SWAP1 PUSH2 0x100 EXP SWAP1 DIV PUSH20 0xFFFFFFFFFFFFFFFFFFFFFFFFFFFFFFFFFFFFFFFF AND DUP2 JUMP JUMPDEST PUSH1 0x7 DUP2 DUP2 SLOAD DUP2 LT PUSH3 0x1733 JUMPI PUSH1 0x0 DUP1 REVERT JUMPDEST SWAP1 PUSH1 0x0 MSTORE PUSH1 0x20 PUSH1 0x0 KECCAK256 ADD PUSH1 0x0 SWAP2 POP SLOAD SWAP1 PUSH2 0x100 EXP SWAP1 DIV PUSH20 0xFFFFFFFFFFFFFFFFFFFFFFFFFFFFFFFFFFFFFFFF AND DUP2 JUMP JUMPDEST PUSH1 0x8 PUSH1 0x0 SWAP1 SLOAD SWAP1 PUSH2 0x100 EXP SWAP1 DIV PUSH1 0xFF AND ISZERO PUSH3 0x17B5 JUMPI PUSH1 0x40 MLOAD PUSH32 0x8C379A000000000000000000000000000000000000000000000000000000000 DUP2 MSTORE PUSH1 0x4 ADD PUSH3 0x17AC SWAP1 PUSH3 0x2454 JUMP JUMPDEST PUSH1 0x40 MLOAD DUP1 SWAP2 SUB SWAP1 REVERT JUMPDEST PUSH1 0x1 PUSH1 0x8 PUSH1 0x0 PUSH2 0x100 EXP DUP2 SLOAD DUP2 PUSH1 0xFF MUL NOT AND SWAP1 DUP4 ISZERO ISZERO MUL OR SWAP1 SSTORE POP PUSH1 0x64 CALLVALUE LT ISZERO PUSH3 0x1817 JUMPI PUSH1 0x40 MLOAD PUSH32 0x8C379A000000000000000000000000000000000000000000000000000000000 DUP2 MSTORE PUSH1 0x4 ADD PUSH3 0x180E SWAP1 PUSH3 0x2D41 JUMP JUMPDEST PUSH1 0x40 MLOAD DUP1 SWAP2 SUB SWAP1 REVERT JUMPDEST PUSH1 0x0 PUSH1 0x8 PUSH1 0x0 PUSH2 0x100 EXP DUP2 SLOAD DUP2 PUSH1 0xFF MUL NOT AND SWAP1 DUP4 ISZERO ISZERO MUL OR SWAP1 SSTORE POP JUMP JUMPDEST PUSH1 0x8 PUSH1 0x0 SWAP1 SLOAD SWAP1 PUSH2 0x100 EXP SWAP1 DIV PUSH1 0xFF AND ISZERO PUSH3 0x1887 JUMPI PUSH1 0x40 MLOAD PUSH32 0x8C379A000000000000000000000000000000000000000000000000000000000 DUP2 MSTORE PUSH1 0x4 ADD PUSH3 0x187E SWAP1 PUSH3 0x2454 JUMP JUMPDEST PUSH1 0x40 MLOAD DUP1 SWAP2 SUB SWAP1 REVERT JUMPDEST PUSH1 0x1 PUSH1 0x8 PUSH1 0x0 PUSH2 0x100 EXP DUP2 SLOAD DUP2 PUSH1 0xFF MUL NOT AND SWAP1 DUP4 ISZERO ISZERO MUL OR SWAP1 SSTORE POP PUSH1 0xB PUSH1 0x0 SWAP1 SLOAD SWAP1 PUSH2 0x100 EXP SWAP1 DIV PUSH1 0xFF AND ISZERO PUSH3 0x18F5 JUMPI PUSH1 0x40 MLOAD PUSH32 0x8C379A000000000000000000000000000000000000000000000000000000000 DUP2 MSTORE PUSH1 0x4 ADD PUSH3 0x18EC SWAP1 PUSH3 0x24C6 JUMP JUMPDEST PUSH1 0x40 MLOAD DUP1 SWAP2 SUB SWAP1 REVERT JUMPDEST PUSH1 0x4 PUSH1 0x0 CALLER PUSH20 0xFFFFFFFFFFFFFFFFFFFFFFFFFFFFFFFFFFFFFFFF AND PUSH20 0xFFFFFFFFFFFFFFFFFFFFFFFFFFFFFFFFFFFFFFFF AND DUP2 MSTORE PUSH1 0x20 ADD SWAP1 DUP2 MSTORE PUSH1 0x20 ADD PUSH1 0x0 KECCAK256 PUSH1 0x0 SWAP1 SLOAD SWAP1 PUSH2 0x100 EXP SWAP1 DIV PUSH1 0xFF AND ISZERO PUSH3 0x1985 JUMPI PUSH1 0x40 MLOAD PUSH32 0x8C379A000000000000000000000000000000000000000000000000000000000 DUP2 MSTORE PUSH1 0x4 ADD PUSH3 0x197C SWAP1 PUSH3 0x2DD9 JUMP JUMPDEST PUSH1 0x40 MLOAD DUP1 SWAP2 SUB SWAP1 REVERT JUMPDEST PUSH1 0x0 PUSH1 0xC PUSH1 0x1 DUP2 PUSH1 0x1 DUP2 SLOAD ADD DUP1 DUP3 SSTORE DUP1 SWAP2 POP POP SUB SWAP1 PUSH1 0x0 MSTORE PUSH1 0x20 PUSH1 0x0 KECCAK256 SWAP1 PUSH1 0x6 MUL ADD SWAP1 POP DUP2 DUP2 PUSH1 0x0 ADD SWAP1 DUP1 MLOAD SWAP1 PUSH1 0x20 ADD SWAP1 PUSH3 0x19C3 SWAP3 SWAP2 SWAP1 PUSH3 0x1CA4 JUMP JUMPDEST POP TIMESTAMP DUP2 PUSH1 0x1 ADD DUP2 SWAP1 SSTORE POP CALLER DUP2 PUSH1 0x2 ADD PUSH1 0x0 PUSH2 0x100 EXP DUP2 SLOAD DUP2 PUSH20 0xFFFFFFFFFFFFFFFFFFFFFFFFFFFFFFFFFFFFFFFF MUL NOT AND SWAP1 DUP4 PUSH20 0xFFFFFFFFFFFFFFFFFFFFFFFFFFFFFFFFFFFFFFFF AND MUL OR SWAP1 SSTORE POP PUSH1 0x0 DUP2 PUSH1 0x4 ADD DUP2 SWAP1 SSTORE POP PUSH1 0x0 DUP2 PUSH1 0x5 ADD PUSH1 0x0 PUSH2 0x100 EXP DUP2 SLOAD DUP2 PUSH1 0xFF MUL NOT AND SWAP1 DUP4 ISZERO ISZERO MUL OR SWAP1 SSTORE POP POP PUSH1 0x0 PUSH1 0x8 PUSH1 0x0 PUSH2 0x100 EXP DUP2 SLOAD DUP2 PUSH1 0xFF MUL NOT AND SWAP1 DUP4 ISZERO ISZERO MUL OR SWAP1 SSTORE POP POP JUMP JUMPDEST PUSH1 0x0 DUP1 DUP3 DUP5 PUSH3 0x1A67 SWAP2 SWAP1 PUSH3 0x2DFB JUMP JUMPDEST SWAP1 POP DUP4 DUP2 LT ISZERO PUSH3 0x1AAF JUMPI PUSH1 0x40 MLOAD PUSH32 0x8C379A000000000000000000000000000000000000000000000000000000000 DUP2 MSTORE PUSH1 0x4 ADD PUSH3 0x1AA6 SWAP1 PUSH3 0x2EA8 JUMP JUMPDEST PUSH1 0x40 MLOAD DUP1 SWAP2 SUB SWAP1 REVERT JUMPDEST DUP1 SWAP2 POP POP SWAP3 SWAP2 POP POP JUMP JUMPDEST PUSH1 0x0 DUP1 DUP3 GT PUSH3 0x1B00 JUMPI PUSH1 0x40 MLOAD PUSH32 0x8C379A000000000000000000000000000000000000000000000000000000000 DUP2 MSTORE PUSH1 0x4 ADD PUSH3 0x1AF7 SWAP1 PUSH3 0x2F1A JUMP JUMPDEST PUSH1 0x40 MLOAD DUP1 SWAP2 SUB SWAP1 REVERT JUMPDEST DUP2 DUP4 PUSH3 0x1B0E SWAP2 SWAP1 PUSH3 0x296C JUMP JUMPDEST SWAP1 POP SWAP3 SWAP2 POP POP JUMP JUMPDEST PUSH1 0x0 DUP1 PUSH20 0xFFFFFFFFFFFFFFFFFFFFFFFFFFFFFFFFFFFFFFFF AND DUP3 PUSH20 0xFFFFFFFFFFFFFFFFFFFFFFFFFFFFFFFFFFFFFFFF AND EQ ISZERO PUSH3 0x1B57 JUMPI PUSH1 0x1 SWAP1 POP PUSH3 0x1B65 JUMP JUMPDEST PUSH1 0x0 DUP3 EXTCODESIZE SWAP1 POP PUSH1 0x0 DUP2 GT SWAP2 POP POP JUMPDEST SWAP2 SWAP1 POP JUMP JUMPDEST PUSH1 0x0 DUP1 PUSH20 0xFFFFFFFFFFFFFFFFFFFFFFFFFFFFFFFFFFFFFFFF AND DUP3 PUSH20 0xFFFFFFFFFFFFFFFFFFFFFFFFFFFFFFFFFFFFFFFF AND EQ ISZERO PUSH3 0x1BAB JUMPI PUSH1 0x1 SWAP1 POP PUSH3 0x1BFB JUMP JUMPDEST PUSH1 0x6 PUSH1 0x0 DUP4 PUSH20 0xFFFFFFFFFFFFFFFFFFFFFFFFFFFFFFFFFFFFFFFF AND PUSH20 0xFFFFFFFFFFFFFFFFFFFFFFFFFFFFFFFFFFFFFFFF AND DUP2 MSTORE PUSH1 0x20 ADD SWAP1 DUP2 MSTORE PUSH1 0x20 ADD PUSH1 0x0 KECCAK256 PUSH1 0x0 SWAP1 SLOAD SWAP1 PUSH2 0x100 EXP SWAP1 DIV PUSH1 0xFF AND SWAP1 POP JUMPDEST SWAP2 SWAP1 POP JUMP JUMPDEST PUSH1 0x0 DUP1 PUSH20 0xFFFFFFFFFFFFFFFFFFFFFFFFFFFFFFFFFFFFFFFF AND DUP3 PUSH20 0xFFFFFFFFFFFFFFFFFFFFFFFFFFFFFFFFFFFFFFFF AND EQ ISZERO PUSH3 0x1C41 JUMPI PUSH1 0x1 SWAP1 POP PUSH3 0x1C91 JUMP JUMPDEST PUSH1 0x6 PUSH1 0x0 DUP4 PUSH20 0xFFFFFFFFFFFFFFFFFFFFFFFFFFFFFFFFFFFFFFFF AND PUSH20 0xFFFFFFFFFFFFFFFFFFFFFFFFFFFFFFFFFFFFFFFF AND DUP2 MSTORE PUSH1 0x20 ADD SWAP1 DUP2 MSTORE PUSH1 0x20 ADD PUSH1 0x0 KECCAK256 PUSH1 0x0 SWAP1 SLOAD SWAP1 PUSH2 0x100 EXP SWAP1 DIV PUSH1 0xFF AND SWAP1 POP JUMPDEST SWAP2 SWAP1 POP JUMP JUMPDEST PUSH2 0x15F7 DUP1 PUSH3 0x2F3D DUP4 CODECOPY ADD SWAP1 JUMP JUMPDEST DUP3 DUP1 SLOAD PUSH3 0x1CB2 SWAP1 PUSH3 0x2765 JUMP JUMPDEST SWAP1 PUSH1 0x0 MSTORE PUSH1 0x20 PUSH1 0x0 KECCAK256 SWAP1 PUSH1 0x1F ADD PUSH1 0x20 SWAP1 DIV DUP2 ADD SWAP3 DUP3 PUSH3 0x1CD6 JUMPI PUSH1 0x0 DUP6 SSTORE PUSH3 0x1D22 JUMP JUMPDEST DUP3 PUSH1 0x1F LT PUSH3 0x1CF1 JUMPI DUP1 MLOAD PUSH1 0xFF NOT AND DUP4 DUP1 ADD OR DUP6 SSTORE PUSH3 0x1D22 JUMP JUMPDEST DUP3 DUP1 ADD PUSH1 0x1 ADD DUP6 SSTORE DUP3 ISZERO PUSH3 0x1D22 JUMPI SWAP2 DUP3 ADD JUMPDEST DUP3 DUP2 GT ISZERO PUSH3 0x1D21 JUMPI DUP3 MLOAD DUP3 SSTORE SWAP2 PUSH1 0x20 ADD SWAP2 SWAP1 PUSH1 0x1 ADD SWAP1 PUSH3 0x1D04 JUMP JUMPDEST JUMPDEST POP SWAP1 POP PUSH3 0x1D31 SWAP2 SWAP1 PUSH3 0x1D35 JUMP JUMPDEST POP SWAP1 JUMP JUMPDEST JUMPDEST DUP1 DUP3 GT ISZERO PUSH3 0x1D50 JUMPI PUSH1 0x0 DUP2 PUSH1 0x0 SWAP1 SSTORE POP PUSH1 0x1 ADD PUSH3 0x1D36 JUMP JUMPDEST POP SWAP1 JUMP JUMPDEST PUSH1 0x0 PUSH1 0x40 MLOAD SWAP1 POP SWAP1 JUMP JUMPDEST PUSH1 0x0 DUP1 REVERT JUMPDEST PUSH1 0x0 DUP1 REVERT JUMPDEST PUSH1 0x0 PUSH20 0xFFFFFFFFFFFFFFFFFFFFFFFFFFFFFFFFFFFFFFFF DUP3 AND SWAP1 POP SWAP2 SWAP1 POP JUMP JUMPDEST PUSH1 0x0 PUSH3 0x1D95 DUP3 PUSH3 0x1D68 JUMP JUMPDEST SWAP1 POP SWAP2 SWAP1 POP JUMP JUMPDEST PUSH3 0x1DA7 DUP2 PUSH3 0x1D88 JUMP JUMPDEST DUP2 EQ PUSH3 0x1DB3 JUMPI PUSH1 0x0 DUP1 REVERT JUMPDEST POP JUMP JUMPDEST PUSH1 0x0 DUP2 CALLDATALOAD SWAP1 POP PUSH3 0x1DC7 DUP2 PUSH3 0x1D9C JUMP JUMPDEST SWAP3 SWAP2 POP POP JUMP JUMPDEST PUSH1 0x0 PUSH1 0x20 DUP3 DUP5 SUB SLT ISZERO PUSH3 0x1DE6 JUMPI PUSH3 0x1DE5 PUSH3 0x1D5E JUMP JUMPDEST JUMPDEST PUSH1 0x0 PUSH3 0x1DF6 DUP5 DUP3 DUP6 ADD PUSH3 0x1DB6 JUMP JUMPDEST SWAP2 POP POP SWAP3 SWAP2 POP POP JUMP JUMPDEST PUSH1 0x0 DUP2 ISZERO ISZERO SWAP1 POP SWAP2 SWAP1 POP JUMP JUMPDEST PUSH3 0x1E16 DUP2 PUSH3 0x1DFF JUMP JUMPDEST DUP3 MSTORE POP POP JUMP JUMPDEST PUSH1 0x0 PUSH1 0x20 DUP3 ADD SWAP1 POP PUSH3 0x1E33 PUSH1 0x0 DUP4 ADD DUP5 PUSH3 0x1E0B JUMP JUMPDEST SWAP3 SWAP2 POP POP JUMP JUMPDEST PUSH3 0x1E44 DUP2 PUSH3 0x1D88 JUMP JUMPDEST DUP3 MSTORE POP POP JUMP JUMPDEST PUSH1 0x0 DUP2 MLOAD SWAP1 POP SWAP2 SWAP1 POP JUMP JUMPDEST PUSH1 0x0 DUP3 DUP3 MSTORE PUSH1 0x20 DUP3 ADD SWAP1 POP SWAP3 SWAP2 POP POP JUMP JUMPDEST PUSH1 0x0 JUMPDEST DUP4 DUP2 LT ISZERO PUSH3 0x1E86 JUMPI DUP1 DUP3 ADD MLOAD DUP2 DUP5 ADD MSTORE PUSH1 0x20 DUP2 ADD SWAP1 POP PUSH3 0x1E69 JUMP JUMPDEST DUP4 DUP2 GT ISZERO PUSH3 0x1E96 JUMPI PUSH1 0x0 DUP5 DUP5 ADD MSTORE JUMPDEST POP POP POP POP JUMP JUMPDEST PUSH1 0x0 PUSH1 0x1F NOT PUSH1 0x1F DUP4 ADD AND SWAP1 POP SWAP2 SWAP1 POP JUMP JUMPDEST PUSH1 0x0 PUSH3 0x1EBA DUP3 PUSH3 0x1E4A JUMP JUMPDEST PUSH3 0x1EC6 DUP2 DUP6 PUSH3 0x1E55 JUMP JUMPDEST SWAP4 POP PUSH3 0x1ED8 DUP2 DUP6 PUSH1 0x20 DUP7 ADD PUSH3 0x1E66 JUMP JUMPDEST PUSH3 0x1EE3 DUP2 PUSH3 0x1E9C JUMP JUMPDEST DUP5 ADD SWAP2 POP POP SWAP3 SWAP2 POP POP JUMP JUMPDEST PUSH1 0x0 DUP2 MLOAD SWAP1 POP SWAP2 SWAP1 POP JUMP JUMPDEST PUSH1 0x0 DUP3 DUP3 MSTORE PUSH1 0x20 DUP3 ADD SWAP1 POP SWAP3 SWAP2 POP POP JUMP JUMPDEST PUSH1 0x0 DUP2 SWAP1 POP PUSH1 0x20 DUP3 ADD SWAP1 POP SWAP2 SWAP1 POP JUMP JUMPDEST PUSH3 0x1F25 DUP2 PUSH3 0x1D88 JUMP JUMPDEST DUP3 MSTORE POP POP JUMP JUMPDEST PUSH1 0x0 PUSH3 0x1F39 DUP4 DUP4 PUSH3 0x1F1A JUMP JUMPDEST PUSH1 0x20 DUP4 ADD SWAP1 POP SWAP3 SWAP2 POP POP JUMP JUMPDEST PUSH1 0x0 PUSH1 0x20 DUP3 ADD SWAP1 POP SWAP2 SWAP1 POP JUMP JUMPDEST PUSH1 0x0 PUSH3 0x1F5F DUP3 PUSH3 0x1EEE JUMP JUMPDEST PUSH3 0x1F6B DUP2 DUP6 PUSH3 0x1EF9 JUMP JUMPDEST SWAP4 POP PUSH3 0x1F78 DUP4 PUSH3 0x1F0A JUMP JUMPDEST DUP1 PUSH1 0x0 JUMPDEST DUP4 DUP2 LT ISZERO PUSH3 0x1FAF JUMPI DUP2 MLOAD PUSH3 0x1F93 DUP9 DUP3 PUSH3 0x1F2B JUMP JUMPDEST SWAP8 POP PUSH3 0x1FA0 DUP4 PUSH3 0x1F45 JUMP JUMPDEST SWAP3 POP POP PUSH1 0x1 DUP2 ADD SWAP1 POP PUSH3 0x1F7C JUMP JUMPDEST POP DUP6 SWAP4 POP POP POP POP SWAP3 SWAP2 POP POP JUMP JUMPDEST PUSH1 0x0 DUP2 SWAP1 POP SWAP2 SWAP1 POP JUMP JUMPDEST PUSH3 0x1FD1 DUP2 PUSH3 0x1FBC JUMP JUMPDEST DUP3 MSTORE POP POP JUMP JUMPDEST PUSH1 0x0 PUSH2 0x140 DUP3 ADD SWAP1 POP PUSH3 0x1FEF PUSH1 0x0 DUP4 ADD DUP14 PUSH3 0x1E39 JUMP JUMPDEST DUP2 DUP2 SUB PUSH1 0x20 DUP4 ADD MSTORE PUSH3 0x2003 DUP2 DUP13 PUSH3 0x1EAD JUMP JUMPDEST SWAP1 POP DUP2 DUP2 SUB PUSH1 0x40 DUP4 ADD MSTORE PUSH3 0x2019 DUP2 DUP12 PUSH3 0x1EAD JUMP JUMPDEST SWAP1 POP DUP2 DUP2 SUB PUSH1 0x60 DUP4 ADD MSTORE PUSH3 0x202F DUP2 DUP11 PUSH3 0x1EAD JUMP JUMPDEST SWAP1 POP DUP2 DUP2 SUB PUSH1 0x80 DUP4 ADD MSTORE PUSH3 0x2045 DUP2 DUP10 PUSH3 0x1F52 JUMP JUMPDEST SWAP1 POP DUP2 DUP2 SUB PUSH1 0xA0 DUP4 ADD MSTORE PUSH3 0x205B DUP2 DUP9 PUSH3 0x1F52 JUMP JUMPDEST SWAP1 POP PUSH3 0x206C PUSH1 0xC0 DUP4 ADD DUP8 PUSH3 0x1FC6 JUMP JUMPDEST PUSH3 0x207B PUSH1 0xE0 DUP4 ADD DUP7 PUSH3 0x1FC6 JUMP JUMPDEST PUSH3 0x208B PUSH2 0x100 DUP4 ADD DUP6 PUSH3 0x1E0B JUMP JUMPDEST PUSH3 0x209B PUSH2 0x120 DUP4 ADD DUP5 PUSH3 0x1FC6 JUMP JUMPDEST SWAP12 SWAP11 POP POP POP POP POP POP POP POP POP POP POP JUMP JUMPDEST PUSH3 0x20B5 DUP2 PUSH3 0x1FBC JUMP JUMPDEST DUP2 EQ PUSH3 0x20C1 JUMPI PUSH1 0x0 DUP1 REVERT JUMPDEST POP JUMP JUMPDEST PUSH1 0x0 DUP2 CALLDATALOAD SWAP1 POP PUSH3 0x20D5 DUP2 PUSH3 0x20AA JUMP JUMPDEST SWAP3 SWAP2 POP POP JUMP JUMPDEST PUSH1 0x0 PUSH1 0x20 DUP3 DUP5 SUB SLT ISZERO PUSH3 0x20F4 JUMPI PUSH3 0x20F3 PUSH3 0x1D5E JUMP JUMPDEST JUMPDEST PUSH1 0x0 PUSH3 0x2104 DUP5 DUP3 DUP6 ADD PUSH3 0x20C4 JUMP JUMPDEST SWAP2 POP POP SWAP3 SWAP2 POP POP JUMP JUMPDEST PUSH1 0x0 PUSH1 0xA0 DUP3 ADD SWAP1 POP DUP2 DUP2 SUB PUSH1 0x0 DUP4 ADD MSTORE PUSH3 0x2129 DUP2 DUP9 PUSH3 0x1EAD JUMP JUMPDEST SWAP1 POP PUSH3 0x213A PUSH1 0x20 DUP4 ADD DUP8 PUSH3 0x1FC6 JUMP JUMPDEST PUSH3 0x2149 PUSH1 0x40 DUP4 ADD DUP7 PUSH3 0x1E39 JUMP JUMPDEST PUSH3 0x2158 PUSH1 0x60 DUP4 ADD DUP6 PUSH3 0x1FC6 JUMP JUMPDEST PUSH3 0x2167 PUSH1 0x80 DUP4 ADD DUP5 PUSH3 0x1E0B JUMP JUMPDEST SWAP7 SWAP6 POP POP POP POP POP POP JUMP JUMPDEST PUSH1 0x0 DUP1 REVERT JUMPDEST PUSH1 0x0 DUP1 REVERT JUMPDEST PUSH32 0x4E487B7100000000000000000000000000000000000000000000000000000000 PUSH1 0x0 MSTORE PUSH1 0x41 PUSH1 0x4 MSTORE PUSH1 0x24 PUSH1 0x0 REVERT JUMPDEST PUSH3 0x21B5 DUP3 PUSH3 0x1E9C JUMP JUMPDEST DUP2 ADD DUP2 DUP2 LT PUSH8 0xFFFFFFFFFFFFFFFF DUP3 GT OR ISZERO PUSH3 0x21D7 JUMPI PUSH3 0x21D6 PUSH3 0x217B JUMP JUMPDEST JUMPDEST DUP1 PUSH1 0x40 MSTORE POP POP POP JUMP JUMPDEST PUSH1 0x0 PUSH3 0x21EC PUSH3 0x1D54 JUMP JUMPDEST SWAP1 POP PUSH3 0x21FA DUP3 DUP3 PUSH3 0x21AA JUMP JUMPDEST SWAP2 SWAP1 POP JUMP JUMPDEST PUSH1 0x0 PUSH8 0xFFFFFFFFFFFFFFFF DUP3 GT ISZERO PUSH3 0x221D JUMPI PUSH3 0x221C PUSH3 0x217B JUMP JUMPDEST JUMPDEST PUSH3 0x2228 DUP3 PUSH3 0x1E9C JUMP JUMPDEST SWAP1 POP PUSH1 0x20 DUP2 ADD SWAP1 POP SWAP2 SWAP1 POP JUMP JUMPDEST DUP3 DUP2 DUP4 CALLDATACOPY PUSH1 0x0 DUP4 DUP4 ADD MSTORE POP POP POP JUMP JUMPDEST PUSH1 0x0 PUSH3 0x225B PUSH3 0x2255 DUP5 PUSH3 0x21FF JUMP JUMPDEST PUSH3 0x21E0 JUMP JUMPDEST SWAP1 POP DUP3 DUP2 MSTORE PUSH1 0x20 DUP2 ADD DUP5 DUP5 DUP5 ADD GT ISZERO PUSH3 0x227A JUMPI PUSH3 0x2279 PUSH3 0x2176 JUMP JUMPDEST JUMPDEST PUSH3 0x2287 DUP5 DUP3 DUP6 PUSH3 0x2235 JUMP JUMPDEST POP SWAP4 SWAP3 POP POP POP JUMP JUMPDEST PUSH1 0x0 DUP3 PUSH1 0x1F DUP4 ADD SLT PUSH3 0x22A7 JUMPI PUSH3 0x22A6 PUSH3 0x2171 JUMP JUMPDEST JUMPDEST DUP2 CALLDATALOAD PUSH3 0x22B9 DUP5 DUP3 PUSH1 0x20 DUP7 ADD PUSH3 0x2244 JUMP JUMPDEST SWAP2 POP POP SWAP3 SWAP2 POP POP JUMP JUMPDEST PUSH1 0x0 DUP1 PUSH1 0x0 DUP1 PUSH1 0x80 DUP6 DUP8 SUB SLT ISZERO PUSH3 0x22DF JUMPI PUSH3 0x22DE PUSH3 0x1D5E JUMP JUMPDEST JUMPDEST PUSH1 0x0 DUP6 ADD CALLDATALOAD PUSH8 0xFFFFFFFFFFFFFFFF DUP2 GT ISZERO PUSH3 0x2300 JUMPI PUSH3 0x22FF PUSH3 0x1D63 JUMP JUMPDEST JUMPDEST PUSH3 0x230E DUP8 DUP3 DUP9 ADD PUSH3 0x228F JUMP JUMPDEST SWAP5 POP POP PUSH1 0x20 DUP6 ADD CALLDATALOAD PUSH8 0xFFFFFFFFFFFFFFFF DUP2 GT ISZERO PUSH3 0x2332 JUMPI PUSH3 0x2331 PUSH3 0x1D63 JUMP JUMPDEST JUMPDEST PUSH3 0x2340 DUP8 DUP3 DUP9 ADD PUSH3 0x228F JUMP JUMPDEST SWAP4 POP POP PUSH1 0x40 PUSH3 0x2353 DUP8 DUP3 DUP9 ADD PUSH3 0x1DB6 JUMP JUMPDEST SWAP3 POP POP PUSH1 0x60 PUSH3 0x2366 DUP8 DUP3 DUP9 ADD PUSH3 0x1DB6 JUMP JUMPDEST SWAP2 POP POP SWAP3 SWAP6 SWAP2 SWAP5 POP SWAP3 POP JUMP JUMPDEST PUSH1 0x0 PUSH1 0x20 DUP3 ADD SWAP1 POP DUP2 DUP2 SUB PUSH1 0x0 DUP4 ADD MSTORE PUSH3 0x238E DUP2 DUP5 PUSH3 0x1F52 JUMP JUMPDEST SWAP1 POP SWAP3 SWAP2 POP POP JUMP JUMPDEST PUSH1 0x0 PUSH1 0x20 DUP3 ADD SWAP1 POP PUSH3 0x23AD PUSH1 0x0 DUP4 ADD DUP5 PUSH3 0x1E39 JUMP JUMPDEST SWAP3 SWAP2 POP POP JUMP JUMPDEST PUSH1 0x0 PUSH1 0x20 DUP3 DUP5 SUB SLT ISZERO PUSH3 0x23CC JUMPI PUSH3 0x23CB PUSH3 0x1D5E JUMP JUMPDEST JUMPDEST PUSH1 0x0 DUP3 ADD CALLDATALOAD PUSH8 0xFFFFFFFFFFFFFFFF DUP2 GT ISZERO PUSH3 0x23ED JUMPI PUSH3 0x23EC PUSH3 0x1D63 JUMP JUMPDEST JUMPDEST PUSH3 0x23FB DUP5 DUP3 DUP6 ADD PUSH3 0x228F JUMP JUMPDEST SWAP2 POP POP SWAP3 SWAP2 POP POP JUMP JUMPDEST PUSH32 0x5265656E7472616E742063616C6C000000000000000000000000000000000000 PUSH1 0x0 DUP3 ADD MSTORE POP JUMP JUMPDEST PUSH1 0x0 PUSH3 0x243C PUSH1 0xE DUP4 PUSH3 0x1E55 JUMP JUMPDEST SWAP2 POP PUSH3 0x2449 DUP3 PUSH3 0x2404 JUMP JUMPDEST PUSH1 0x20 DUP3 ADD SWAP1 POP SWAP2 SWAP1 POP JUMP JUMPDEST PUSH1 0x0 PUSH1 0x20 DUP3 ADD SWAP1 POP DUP2 DUP2 SUB PUSH1 0x0 DUP4 ADD MSTORE PUSH3 0x246F DUP2 PUSH3 0x242D JUMP JUMPDEST SWAP1 POP SWAP2 SWAP1 POP JUMP JUMPDEST PUSH32 0x546869732073746F727920686173206265656E207265706F7274656400000000 PUSH1 0x0 DUP3 ADD MSTORE POP JUMP JUMPDEST PUSH1 0x0 PUSH3 0x24AE PUSH1 0x1C DUP4 PUSH3 0x1E55 JUMP JUMPDEST SWAP2 POP PUSH3 0x24BB DUP3 PUSH3 0x2476 JUMP JUMPDEST PUSH1 0x20 DUP3 ADD SWAP1 POP SWAP2 SWAP1 POP JUMP JUMPDEST PUSH1 0x0 PUSH1 0x20 DUP3 ADD SWAP1 POP DUP2 DUP2 SUB PUSH1 0x0 DUP4 ADD MSTORE PUSH3 0x24E1 DUP2 PUSH3 0x249F JUMP JUMPDEST SWAP1 POP SWAP2 SWAP1 POP JUMP JUMPDEST PUSH32 0x596F752068617665207265706F7274656420746869732073746F727920626566 PUSH1 0x0 DUP3 ADD MSTORE PUSH32 0x6F72650000000000000000000000000000000000000000000000000000000000 PUSH1 0x20 DUP3 ADD MSTORE POP JUMP JUMPDEST PUSH1 0x0 PUSH3 0x2546 PUSH1 0x23 DUP4 PUSH3 0x1E55 JUMP JUMPDEST SWAP2 POP PUSH3 0x2553 DUP3 PUSH3 0x24E8 JUMP JUMPDEST PUSH1 0x40 DUP3 ADD SWAP1 POP SWAP2 SWAP1 POP JUMP JUMPDEST PUSH1 0x0 PUSH1 0x20 DUP3 ADD SWAP1 POP DUP2 DUP2 SUB PUSH1 0x0 DUP4 ADD MSTORE PUSH3 0x2579 DUP2 PUSH3 0x2537 JUMP JUMPDEST SWAP1 POP SWAP2 SWAP1 POP JUMP JUMPDEST PUSH32 0x4F6E6C7920616E20617574686F72697A656420617574686F722063616E206469 PUSH1 0x0 DUP3 ADD MSTORE PUSH32 0x7370656E73652072657761726473000000000000000000000000000000000000 PUSH1 0x20 DUP3 ADD MSTORE POP JUMP JUMPDEST PUSH1 0x0 PUSH3 0x25DE PUSH1 0x2E DUP4 PUSH3 0x1E55 JUMP JUMPDEST SWAP2 POP PUSH3 0x25EB DUP3 PUSH3 0x2580 JUMP JUMPDEST PUSH1 0x40 DUP3 ADD SWAP1 POP SWAP2 SWAP1 POP JUMP JUMPDEST PUSH1 0x0 PUSH1 0x20 DUP3 ADD SWAP1 POP DUP2 DUP2 SUB PUSH1 0x0 DUP4 ADD MSTORE PUSH3 0x2611 DUP2 PUSH3 0x25CF JUMP JUMPDEST SWAP1 POP SWAP2 SWAP1 POP JUMP JUMPDEST PUSH32 0x4E6F2072657761726420746F2064697370656E73650000000000000000000000 PUSH1 0x0 DUP3 ADD MSTORE POP JUMP JUMPDEST PUSH1 0x0 PUSH3 0x2650 PUSH1 0x15 DUP4 PUSH3 0x1E55 JUMP JUMPDEST SWAP2 POP PUSH3 0x265D DUP3 PUSH3 0x2618 JUMP JUMPDEST PUSH1 0x20 DUP3 ADD SWAP1 POP SWAP2 SWAP1 POP JUMP JUMPDEST PUSH1 0x0 PUSH1 0x20 DUP3 ADD SWAP1 POP DUP2 DUP2 SUB PUSH1 0x0 DUP4 ADD MSTORE PUSH3 0x2683 DUP2 PUSH3 0x2641 JUMP JUMPDEST SWAP1 POP SWAP2 SWAP1 POP JUMP JUMPDEST PUSH32 0x4E487B7100000000000000000000000000000000000000000000000000000000 PUSH1 0x0 MSTORE PUSH1 0x32 PUSH1 0x4 MSTORE PUSH1 0x24 PUSH1 0x0 REVERT JUMPDEST PUSH32 0x4E487B7100000000000000000000000000000000000000000000000000000000 PUSH1 0x0 MSTORE PUSH1 0x11 PUSH1 0x4 MSTORE PUSH1 0x24 PUSH1 0x0 REVERT JUMPDEST PUSH1 0x0 PUSH3 0x26F5 DUP3 PUSH3 0x1FBC JUMP JUMPDEST SWAP2 POP PUSH32 0xFFFFFFFFFFFFFFFFFFFFFFFFFFFFFFFFFFFFFFFFFFFFFFFFFFFFFFFFFFFFFFFF DUP3 EQ ISZERO PUSH3 0x272B JUMPI PUSH3 0x272A PUSH3 0x26B9 JUMP JUMPDEST JUMPDEST PUSH1 0x1 DUP3 ADD SWAP1 POP SWAP2 SWAP1 POP JUMP JUMPDEST PUSH32 0x4E487B7100000000000000000000000000000000000000000000000000000000 PUSH1 0x0 MSTORE PUSH1 0x22 PUSH1 0x4 MSTORE PUSH1 0x24 PUSH1 0x0 REVERT JUMPDEST PUSH1 0x0 PUSH1 0x2 DUP3 DIV SWAP1 POP PUSH1 0x1 DUP3 AND DUP1 PUSH3 0x277E JUMPI PUSH1 0x7F DUP3 AND SWAP2 POP JUMPDEST PUSH1 0x20 DUP3 LT DUP2 EQ ISZERO PUSH3 0x2795 JUMPI PUSH3 0x2794 PUSH3 0x2736 JUMP JUMPDEST JUMPDEST POP SWAP2 SWAP1 POP JUMP JUMPDEST PUSH32 0x4F6E6C7920616E20616363657074656420617574686F722063616E2061707072 PUSH1 0x0 DUP3 ADD MSTORE PUSH32 0x6F76652061207265717565737400000000000000000000000000000000000000 PUSH1 0x20 DUP3 ADD MSTORE POP JUMP JUMPDEST PUSH1 0x0 PUSH3 0x27F9 PUSH1 0x2D DUP4 PUSH3 0x1E55 JUMP JUMPDEST SWAP2 POP PUSH3 0x2806 DUP3 PUSH3 0x279B JUMP JUMPDEST PUSH1 0x40 DUP3 ADD SWAP1 POP SWAP2 SWAP1 POP JUMP JUMPDEST PUSH1 0x0 PUSH1 0x20 DUP3 ADD SWAP1 POP DUP2 DUP2 SUB PUSH1 0x0 DUP4 ADD MSTORE PUSH3 0x282C DUP2 PUSH3 0x27EA JUMP JUMPDEST SWAP1 POP SWAP2 SWAP1 POP JUMP JUMPDEST PUSH32 0x496E646578206F7574206F6620626F756E647300000000000000000000000000 PUSH1 0x0 DUP3 ADD MSTORE POP JUMP JUMPDEST PUSH1 0x0 PUSH3 0x286B PUSH1 0x13 DUP4 PUSH3 0x1E55 JUMP JUMPDEST SWAP2 POP PUSH3 0x2878 DUP3 PUSH3 0x2833 JUMP JUMPDEST PUSH1 0x20 DUP3 ADD SWAP1 POP SWAP2 SWAP1 POP JUMP JUMPDEST PUSH1 0x0 PUSH1 0x20 DUP3 ADD SWAP1 POP DUP2 DUP2 SUB PUSH1 0x0 DUP4 ADD MSTORE PUSH3 0x289E DUP2 PUSH3 0x285C JUMP JUMPDEST SWAP1 POP SWAP2 SWAP1 POP JUMP JUMPDEST PUSH32 0x5468697320617574686F7220616C726561647920617070726F76656420626566 PUSH1 0x0 DUP3 ADD MSTORE PUSH32 0x6F72650000000000000000000000000000000000000000000000000000000000 PUSH1 0x20 DUP3 ADD MSTORE POP JUMP JUMPDEST PUSH1 0x0 PUSH3 0x2903 PUSH1 0x23 DUP4 PUSH3 0x1E55 JUMP JUMPDEST SWAP2 POP PUSH3 0x2910 DUP3 PUSH3 0x28A5 JUMP JUMPDEST PUSH1 0x40 DUP3 ADD SWAP1 POP SWAP2 SWAP1 POP JUMP JUMPDEST PUSH1 0x0 PUSH1 0x20 DUP3 ADD SWAP1 POP DUP2 DUP2 SUB PUSH1 0x0 DUP4 ADD MSTORE PUSH3 0x2936 DUP2 PUSH3 0x28F4 JUMP JUMPDEST SWAP1 POP SWAP2 SWAP1 POP JUMP JUMPDEST PUSH32 0x4E487B7100000000000000000000000000000000000000000000000000000000 PUSH1 0x0 MSTORE PUSH1 0x12 PUSH1 0x4 MSTORE PUSH1 0x24 PUSH1 0x0 REVERT JUMPDEST PUSH1 0x0 PUSH3 0x2979 DUP3 PUSH3 0x1FBC JUMP JUMPDEST SWAP2 POP PUSH3 0x2986 DUP4 PUSH3 0x1FBC JUMP JUMPDEST SWAP3 POP DUP3 PUSH3 0x2999 JUMPI PUSH3 0x2998 PUSH3 0x293D JUMP JUMPDEST JUMPDEST DUP3 DUP3 DIV SWAP1 POP SWAP3 SWAP2 POP POP JUMP JUMPDEST PUSH32 0x4F6E6C7920616E20616363657074656420617574686F722063616E2063726561 PUSH1 0x0 DUP3 ADD MSTORE PUSH32 0x7465206120636861707465720000000000000000000000000000000000000000 PUSH1 0x20 DUP3 ADD MSTORE POP JUMP JUMPDEST PUSH1 0x0 PUSH3 0x2A02 PUSH1 0x2C DUP4 PUSH3 0x1E55 JUMP JUMPDEST SWAP2 POP PUSH3 0x2A0F DUP3 PUSH3 0x29A4 JUMP JUMPDEST PUSH1 0x40 DUP3 ADD SWAP1 POP SWAP2 SWAP1 POP JUMP JUMPDEST PUSH1 0x0 PUSH1 0x20 DUP3 ADD SWAP1 POP DUP2 DUP2 SUB PUSH1 0x0 DUP4 ADD MSTORE PUSH3 0x2A35 DUP2 PUSH3 0x29F3 JUMP JUMPDEST SWAP1 POP SWAP2 SWAP1 POP JUMP JUMPDEST PUSH32 0x506172656E742063686170746572206D757374206265206120636F6E74726163 PUSH1 0x0 DUP3 ADD MSTORE PUSH32 0x7400000000000000000000000000000000000000000000000000000000000000 PUSH1 0x20 DUP3 ADD MSTORE POP JUMP JUMPDEST PUSH1 0x0 PUSH3 0x2A9A PUSH1 0x21 DUP4 PUSH3 0x1E55 JUMP JUMPDEST SWAP2 POP PUSH3 0x2AA7 DUP3 PUSH3 0x2A3C JUMP JUMPDEST PUSH1 0x40 DUP3 ADD SWAP1 POP SWAP2 SWAP1 POP JUMP JUMPDEST PUSH1 0x0 PUSH1 0x20 DUP3 ADD SWAP1 POP DUP2 DUP2 SUB PUSH1 0x0 DUP4 ADD MSTORE PUSH3 0x2ACD DUP2 PUSH3 0x2A8B JUMP JUMPDEST SWAP1 POP SWAP2 SWAP1 POP JUMP JUMPDEST PUSH32 0x4368696C642063686170746572206D757374206265206120636F6E7472616374 PUSH1 0x0 DUP3 ADD MSTORE POP JUMP JUMPDEST PUSH1 0x0 PUSH3 0x2B0C PUSH1 0x20 DUP4 PUSH3 0x1E55 JUMP JUMPDEST SWAP2 POP PUSH3 0x2B19 DUP3 PUSH3 0x2AD4 JUMP JUMPDEST PUSH1 0x20 DUP3 ADD SWAP1 POP SWAP2 SWAP1 POP JUMP JUMPDEST PUSH1 0x0 PUSH1 0x20 DUP3 ADD SWAP1 POP DUP2 DUP2 SUB PUSH1 0x0 DUP4 ADD MSTORE PUSH3 0x2B3F DUP2 PUSH3 0x2AFD JUMP JUMPDEST SWAP1 POP SWAP2 SWAP1 POP JUMP JUMPDEST PUSH32 0x506172656E742063686170746572206D7573742062656C6F6E6720746F207468 PUSH1 0x0 DUP3 ADD MSTORE PUSH32 0x652073616D652073746F72790000000000000000000000000000000000000000 PUSH1 0x20 DUP3 ADD MSTORE POP JUMP JUMPDEST PUSH1 0x0 PUSH3 0x2BA4 PUSH1 0x2C DUP4 PUSH3 0x1E55 JUMP JUMPDEST SWAP2 POP PUSH3 0x2BB1 DUP3 PUSH3 0x2B46 JUMP JUMPDEST PUSH1 0x40 DUP3 ADD SWAP1 POP SWAP2 SWAP1 POP JUMP JUMPDEST PUSH1 0x0 PUSH1 0x20 DUP3 ADD SWAP1 POP DUP2 DUP2 SUB PUSH1 0x0 DUP4 ADD MSTORE PUSH3 0x2BD7 DUP2 PUSH3 0x2B95 JUMP JUMPDEST SWAP1 POP SWAP2 SWAP1 POP JUMP JUMPDEST PUSH32 0x4368696C642063686170746572206D7573742062656C6F6E6720746F20746865 PUSH1 0x0 DUP3 ADD MSTORE PUSH32 0x2073616D652073746F7279000000000000000000000000000000000000000000 PUSH1 0x20 DUP3 ADD MSTORE POP JUMP JUMPDEST PUSH1 0x0 PUSH3 0x2C3C PUSH1 0x2B DUP4 PUSH3 0x1E55 JUMP JUMPDEST SWAP2 POP PUSH3 0x2C49 DUP3 PUSH3 0x2BDE JUMP JUMPDEST PUSH1 0x40 DUP3 ADD SWAP1 POP SWAP2 SWAP1 POP JUMP JUMPDEST PUSH1 0x0 PUSH1 0x20 DUP3 ADD SWAP1 POP DUP2 DUP2 SUB PUSH1 0x0 DUP4 ADD MSTORE PUSH3 0x2C6F DUP2 PUSH3 0x2C2D JUMP JUMPDEST SWAP1 POP SWAP2 SWAP1 POP JUMP JUMPDEST PUSH1 0x0 PUSH1 0xC0 DUP3 ADD SWAP1 POP PUSH3 0x2C8D PUSH1 0x0 DUP4 ADD DUP10 PUSH3 0x1E39 JUMP JUMPDEST PUSH3 0x2C9C PUSH1 0x20 DUP4 ADD DUP9 PUSH3 0x1E39 JUMP JUMPDEST DUP2 DUP2 SUB PUSH1 0x40 DUP4 ADD MSTORE PUSH3 0x2CB0 DUP2 DUP8 PUSH3 0x1EAD JUMP JUMPDEST SWAP1 POP DUP2 DUP2 SUB PUSH1 0x60 DUP4 ADD MSTORE PUSH3 0x2CC6 DUP2 DUP7 PUSH3 0x1EAD JUMP JUMPDEST SWAP1 POP PUSH3 0x2CD7 PUSH1 0x80 DUP4 ADD DUP6 PUSH3 0x1E39 JUMP JUMPDEST PUSH3 0x2CE6 PUSH1 0xA0 DUP4 ADD DUP5 PUSH3 0x1E39 JUMP JUMPDEST SWAP8 SWAP7 POP POP POP POP POP POP POP JUMP JUMPDEST PUSH32 0x4D696E696D756D20636F6E747269627574696F6E206973203130302057656900 PUSH1 0x0 DUP3 ADD MSTORE POP JUMP JUMPDEST PUSH1 0x0 PUSH3 0x2D29 PUSH1 0x1F DUP4 PUSH3 0x1E55 JUMP JUMPDEST SWAP2 POP PUSH3 0x2D36 DUP3 PUSH3 0x2CF1 JUMP JUMPDEST PUSH1 0x20 DUP3 ADD SWAP1 POP SWAP2 SWAP1 POP JUMP JUMPDEST PUSH1 0x0 PUSH1 0x20 DUP3 ADD SWAP1 POP DUP2 DUP2 SUB PUSH1 0x0 DUP4 ADD MSTORE PUSH3 0x2D5C DUP2 PUSH3 0x2D1A JUMP JUMPDEST SWAP1 POP SWAP2 SWAP1 POP JUMP JUMPDEST PUSH32 0x417574686F7220616C72656164792065786973747320696E20746865206C6973 PUSH1 0x0 DUP3 ADD MSTORE PUSH32 0x74206F6620617574686F72730000000000000000000000000000000000000000 PUSH1 0x20 DUP3 ADD MSTORE POP JUMP JUMPDEST PUSH1 0x0 PUSH3 0x2DC1 PUSH1 0x2C DUP4 PUSH3 0x1E55 JUMP JUMPDEST SWAP2 POP PUSH3 0x2DCE DUP3 PUSH3 0x2D63 JUMP JUMPDEST PUSH1 0x40 DUP3 ADD SWAP1 POP SWAP2 SWAP1 POP JUMP JUMPDEST PUSH1 0x0 PUSH1 0x20 DUP3 ADD SWAP1 POP DUP2 DUP2 SUB PUSH1 0x0 DUP4 ADD MSTORE PUSH3 0x2DF4 DUP2 PUSH3 0x2DB2 JUMP JUMPDEST SWAP1 POP SWAP2 SWAP1 POP JUMP JUMPDEST PUSH1 0x0 PUSH3 0x2E08 DUP3 PUSH3 0x1FBC JUMP JUMPDEST SWAP2 POP PUSH3 0x2E15 DUP4 PUSH3 0x1FBC JUMP JUMPDEST SWAP3 POP DUP3 PUSH32 0xFFFFFFFFFFFFFFFFFFFFFFFFFFFFFFFFFFFFFFFFFFFFFFFFFFFFFFFFFFFFFFFF SUB DUP3 GT ISZERO PUSH3 0x2E4D JUMPI PUSH3 0x2E4C PUSH3 0x26B9 JUMP JUMPDEST JUMPDEST DUP3 DUP3 ADD SWAP1 POP SWAP3 SWAP2 POP POP JUMP JUMPDEST PUSH32 0x536166654D6174683A206164646974696F6E206F766572666C6F770000000000 PUSH1 0x0 DUP3 ADD MSTORE POP JUMP JUMPDEST PUSH1 0x0 PUSH3 0x2E90 PUSH1 0x1B DUP4 PUSH3 0x1E55 JUMP JUMPDEST SWAP2 POP PUSH3 0x2E9D DUP3 PUSH3 0x2E58 JUMP JUMPDEST PUSH1 0x20 DUP3 ADD SWAP1 POP SWAP2 SWAP1 POP JUMP JUMPDEST PUSH1 0x0 PUSH1 0x20 DUP3 ADD SWAP1 POP DUP2 DUP2 SUB PUSH1 0x0 DUP4 ADD MSTORE PUSH3 0x2EC3 DUP2 PUSH3 0x2E81 JUMP JUMPDEST SWAP1 POP SWAP2 SWAP1 POP JUMP JUMPDEST PUSH32 0x536166654D6174683A206469766973696F6E206279207A65726F000000000000 PUSH1 0x0 DUP3 ADD MSTORE POP JUMP JUMPDEST PUSH1 0x0 PUSH3 0x2F02 PUSH1 0x1A DUP4 PUSH3 0x1E55 JUMP JUMPDEST SWAP2 POP PUSH3 0x2F0F DUP3 PUSH3 0x2ECA JUMP JUMPDEST PUSH1 0x20 DUP3 ADD SWAP1 POP SWAP2 SWAP1 POP JUMP JUMPDEST PUSH1 0x0 PUSH1 0x20 DUP3 ADD SWAP1 POP DUP2 DUP2 SUB PUSH1 0x0 DUP4 ADD MSTORE PUSH3 0x2F35 DUP2 PUSH3 0x2EF3 JUMP JUMPDEST SWAP1 POP SWAP2 SWAP1 POP JUMP INVALID PUSH1 0x80 PUSH1 0x40 MSTORE CALLVALUE DUP1 ISZERO PUSH3 0x11 JUMPI PUSH1 0x0 DUP1 REVERT JUMPDEST POP PUSH1 0x40 MLOAD PUSH3 0x15F7 CODESIZE SUB DUP1 PUSH3 0x15F7 DUP4 CODECOPY DUP2 DUP2 ADD PUSH1 0x40 MSTORE DUP2 ADD SWAP1 PUSH3 0x37 SWAP2 SWAP1 PUSH3 0x4DA JUMP JUMPDEST DUP6 PUSH1 0x1 PUSH1 0x0 PUSH2 0x100 EXP DUP2 SLOAD DUP2 PUSH20 0xFFFFFFFFFFFFFFFFFFFFFFFFFFFFFFFFFFFFFFFF MUL NOT AND SWAP1 DUP4 PUSH20 0xFFFFFFFFFFFFFFFFFFFFFFFFFFFFFFFFFFFFFFFF AND MUL OR SWAP1 SSTORE POP DUP5 PUSH1 0x0 DUP1 PUSH2 0x100 EXP DUP2 SLOAD DUP2 PUSH20 0xFFFFFFFFFFFFFFFFFFFFFFFFFFFFFFFFFFFFFFFF MUL NOT AND SWAP1 DUP4 PUSH20 0xFFFFFFFFFFFFFFFFFFFFFFFFFFFFFFFFFFFFFFFF AND MUL OR SWAP1 SSTORE POP DUP3 PUSH1 0x3 SWAP1 DUP1 MLOAD SWAP1 PUSH1 0x20 ADD SWAP1 PUSH3 0xD0 SWAP3 SWAP2 SWAP1 PUSH3 0x228 JUMP JUMPDEST POP DUP4 PUSH1 0x2 SWAP1 DUP1 MLOAD SWAP1 PUSH1 0x20 ADD SWAP1 PUSH3 0xE9 SWAP3 SWAP2 SWAP1 PUSH3 0x228 JUMP JUMPDEST POP PUSH1 0x0 PUSH20 0xFFFFFFFFFFFFFFFFFFFFFFFFFFFFFFFFFFFFFFFF AND DUP3 PUSH20 0xFFFFFFFFFFFFFFFFFFFFFFFFFFFFFFFFFFFFFFFF AND EQ PUSH3 0x183 JUMPI PUSH1 0x4 DUP3 SWAP1 DUP1 PUSH1 0x1 DUP2 SLOAD ADD DUP1 DUP3 SSTORE DUP1 SWAP2 POP POP PUSH1 0x1 SWAP1 SUB SWAP1 PUSH1 0x0 MSTORE PUSH1 0x20 PUSH1 0x0 KECCAK256 ADD PUSH1 0x0 SWAP1 SWAP2 SWAP1 SWAP2 SWAP1 SWAP2 PUSH2 0x100 EXP DUP2 SLOAD DUP2 PUSH20 0xFFFFFFFFFFFFFFFFFFFFFFFFFFFFFFFFFFFFFFFF MUL NOT AND SWAP1 DUP4 PUSH20 0xFFFFFFFFFFFFFFFFFFFFFFFFFFFFFFFFFFFFFFFF AND MUL OR SWAP1 SSTORE POP JUMPDEST PUSH1 0x0 PUSH20 0xFFFFFFFFFFFFFFFFFFFFFFFFFFFFFFFFFFFFFFFF AND DUP2 PUSH20 0xFFFFFFFFFFFFFFFFFFFFFFFFFFFFFFFFFFFFFFFF AND EQ PUSH3 0x21C JUMPI PUSH1 0x5 DUP2 SWAP1 DUP1 PUSH1 0x1 DUP2 SLOAD ADD DUP1 DUP3 SSTORE DUP1 SWAP2 POP POP PUSH1 0x1 SWAP1 SUB SWAP1 PUSH1 0x0 MSTORE PUSH1 0x20 PUSH1 0x0 KECCAK256 ADD PUSH1 0x0 SWAP1 SWAP2 SWAP1 SWAP2 SWAP1 SWAP2 PUSH2 0x100 EXP DUP2 SLOAD DUP2 PUSH20 0xFFFFFFFFFFFFFFFFFFFFFFFFFFFFFFFFFFFFFFFF MUL NOT AND SWAP1 DUP4 PUSH20 0xFFFFFFFFFFFFFFFFFFFFFFFFFFFFFFFFFFFFFFFF AND MUL OR SWAP1 SSTORE POP JUMPDEST POP POP POP POP POP POP PUSH3 0x619 JUMP JUMPDEST DUP3 DUP1 SLOAD PUSH3 0x236 SWAP1 PUSH3 0x5E3 JUMP JUMPDEST SWAP1 PUSH1 0x0 MSTORE PUSH1 0x20 PUSH1 0x0 KECCAK256 SWAP1 PUSH1 0x1F ADD PUSH1 0x20 SWAP1 DIV DUP2 ADD SWAP3 DUP3 PUSH3 0x25A JUMPI PUSH1 0x0 DUP6 SSTORE PUSH3 0x2A6 JUMP JUMPDEST DUP3 PUSH1 0x1F LT PUSH3 0x275 JUMPI DUP1 MLOAD PUSH1 0xFF NOT AND DUP4 DUP1 ADD OR DUP6 SSTORE PUSH3 0x2A6 JUMP JUMPDEST DUP3 DUP1 ADD PUSH1 0x1 ADD DUP6 SSTORE DUP3 ISZERO PUSH3 0x2A6 JUMPI SWAP2 DUP3 ADD JUMPDEST DUP3 DUP2 GT ISZERO PUSH3 0x2A5 JUMPI DUP3 MLOAD DUP3 SSTORE SWAP2 PUSH1 0x20 ADD SWAP2 SWAP1 PUSH1 0x1 ADD SWAP1 PUSH3 0x288 JUMP JUMPDEST JUMPDEST POP SWAP1 POP PUSH3 0x2B5 SWAP2 SWAP1 PUSH3 0x2B9 JUMP JUMPDEST POP SWAP1 JUMP JUMPDEST JUMPDEST DUP1 DUP3 GT ISZERO PUSH3 0x2D4 JUMPI PUSH1 0x0 DUP2 PUSH1 0x0 SWAP1 SSTORE POP PUSH1 0x1 ADD PUSH3 0x2BA JUMP JUMPDEST POP SWAP1 JUMP JUMPDEST PUSH1 0x0 PUSH1 0x40 MLOAD SWAP1 POP SWAP1 JUMP JUMPDEST PUSH1 0x0 DUP1 REVERT JUMPDEST PUSH1 0x0 DUP1 REVERT JUMPDEST PUSH1 0x0 PUSH20 0xFFFFFFFFFFFFFFFFFFFFFFFFFFFFFFFFFFFFFFFF DUP3 AND SWAP1 POP SWAP2 SWAP1 POP JUMP JUMPDEST PUSH1 0x0 PUSH3 0x319 DUP3 PUSH3 0x2EC JUMP JUMPDEST SWAP1 POP SWAP2 SWAP1 POP JUMP JUMPDEST PUSH3 0x32B DUP2 PUSH3 0x30C JUMP JUMPDEST DUP2 EQ PUSH3 0x337 JUMPI PUSH1 0x0 DUP1 REVERT JUMPDEST POP JUMP JUMPDEST PUSH1 0x0 DUP2 MLOAD SWAP1 POP PUSH3 0x34B DUP2 PUSH3 0x320 JUMP JUMPDEST SWAP3 SWAP2 POP POP JUMP JUMPDEST PUSH1 0x0 DUP1 REVERT JUMPDEST PUSH1 0x0 DUP1 REVERT JUMPDEST PUSH1 0x0 PUSH1 0x1F NOT PUSH1 0x1F DUP4 ADD AND SWAP1 POP SWAP2 SWAP1 POP JUMP JUMPDEST PUSH32 0x4E487B7100000000000000000000000000000000000000000000000000000000 PUSH1 0x0 MSTORE PUSH1 0x41 PUSH1 0x4 MSTORE PUSH1 0x24 PUSH1 0x0 REVERT JUMPDEST PUSH3 0x3A6 DUP3 PUSH3 0x35B JUMP JUMPDEST DUP2 ADD DUP2 DUP2 LT PUSH8 0xFFFFFFFFFFFFFFFF DUP3 GT OR ISZERO PUSH3 0x3C8 JUMPI PUSH3 0x3C7 PUSH3 0x36C JUMP JUMPDEST JUMPDEST DUP1 PUSH1 0x40 MSTORE POP POP POP JUMP JUMPDEST PUSH1 0x0 PUSH3 0x3DD PUSH3 0x2D8 JUMP JUMPDEST SWAP1 POP PUSH3 0x3EB DUP3 DUP3 PUSH3 0x39B JUMP JUMPDEST SWAP2 SWAP1 POP JUMP JUMPDEST PUSH1 0x0 PUSH8 0xFFFFFFFFFFFFFFFF DUP3 GT ISZERO PUSH3 0x40E JUMPI PUSH3 0x40D PUSH3 0x36C JUMP JUMPDEST JUMPDEST PUSH3 0x419 DUP3 PUSH3 0x35B JUMP JUMPDEST SWAP1 POP PUSH1 0x20 DUP2 ADD SWAP1 POP SWAP2 SWAP1 POP JUMP JUMPDEST PUSH1 0x0 JUMPDEST DUP4 DUP2 LT ISZERO PUSH3 0x446 JUMPI DUP1 DUP3 ADD MLOAD DUP2 DUP5 ADD MSTORE PUSH1 0x20 DUP2 ADD SWAP1 POP PUSH3 0x429 JUMP JUMPDEST DUP4 DUP2 GT ISZERO PUSH3 0x456 JUMPI PUSH1 0x0 DUP5 DUP5 ADD MSTORE JUMPDEST POP POP POP POP JUMP JUMPDEST PUSH1 0x0 PUSH3 0x473 PUSH3 0x46D DUP5 PUSH3 0x3F0 JUMP JUMPDEST PUSH3 0x3D1 JUMP JUMPDEST SWAP1 POP DUP3 DUP2 MSTORE PUSH1 0x20 DUP2 ADD DUP5 DUP5 DUP5 ADD GT ISZERO PUSH3 0x492 JUMPI PUSH3 0x491 PUSH3 0x356 JUMP JUMPDEST JUMPDEST PUSH3 0x49F DUP5 DUP3 DUP6 PUSH3 0x426 JUMP JUMPDEST POP SWAP4 SWAP3 POP POP POP JUMP JUMPDEST PUSH1 0x0 DUP3 PUSH1 0x1F DUP4 ADD SLT PUSH3 0x4BF JUMPI PUSH3 0x4BE PUSH3 0x351 JUMP JUMPDEST JUMPDEST DUP2 MLOAD PUSH3 0x4D1 DUP5 DUP3 PUSH1 0x20 DUP7 ADD PUSH3 0x45C JUMP JUMPDEST SWAP2 POP POP SWAP3 SWAP2 POP POP JUMP JUMPDEST PUSH1 0x0 DUP1 PUSH1 0x0 DUP1 PUSH1 0x0 DUP1 PUSH1 0xC0 DUP8 DUP10 SUB SLT ISZERO PUSH3 0x4FA JUMPI PUSH3 0x4F9 PUSH3 0x2E2 JUMP JUMPDEST JUMPDEST PUSH1 0x0 PUSH3 0x50A DUP10 DUP3 DUP11 ADD PUSH3 0x33A JUMP JUMPDEST SWAP7 POP POP PUSH1 0x20 PUSH3 0x51D DUP10 DUP3 DUP11 ADD PUSH3 0x33A JUMP JUMPDEST SWAP6 POP POP PUSH1 0x40 DUP8 ADD MLOAD PUSH8 0xFFFFFFFFFFFFFFFF DUP2 GT ISZERO PUSH3 0x541 JUMPI PUSH3 0x540 PUSH3 0x2E7 JUMP JUMPDEST JUMPDEST PUSH3 0x54F DUP10 DUP3 DUP11 ADD PUSH3 0x4A7 JUMP JUMPDEST SWAP5 POP POP PUSH1 0x60 DUP8 ADD MLOAD PUSH8 0xFFFFFFFFFFFFFFFF DUP2 GT ISZERO PUSH3 0x573 JUMPI PUSH3 0x572 PUSH3 0x2E7 JUMP JUMPDEST JUMPDEST PUSH3 0x581 DUP10 DUP3 DUP11 ADD PUSH3 0x4A7 JUMP JUMPDEST SWAP4 POP POP PUSH1 0x80 PUSH3 0x594 DUP10 DUP3 DUP11 ADD PUSH3 0x33A JUMP JUMPDEST SWAP3 POP POP PUSH1 0xA0 PUSH3 0x5A7 DUP10 DUP3 DUP11 ADD PUSH3 0x33A JUMP JUMPDEST SWAP2 POP POP SWAP3 SWAP6 POP SWAP3 SWAP6 POP SWAP3 SWAP6 JUMP JUMPDEST PUSH32 0x4E487B7100000000000000000000000000000000000000000000000000000000 PUSH1 0x0 MSTORE PUSH1 0x22 PUSH1 0x4 MSTORE PUSH1 0x24 PUSH1 0x0 REVERT JUMPDEST PUSH1 0x0 PUSH1 0x2 DUP3 DIV SWAP1 POP PUSH1 0x1 DUP3 AND DUP1 PUSH3 0x5FC JUMPI PUSH1 0x7F DUP3 AND SWAP2 POP JUMPDEST PUSH1 0x20 DUP3 LT DUP2 EQ ISZERO PUSH3 0x613 JUMPI PUSH3 0x612 PUSH3 0x5B4 JUMP JUMPDEST JUMPDEST POP SWAP2 SWAP1 POP JUMP JUMPDEST PUSH2 0xFCE DUP1 PUSH3 0x629 PUSH1 0x0 CODECOPY PUSH1 0x0 RETURN INVALID PUSH1 0x80 PUSH1 0x40 MSTORE CALLVALUE DUP1 ISZERO PUSH2 0x10 JUMPI PUSH1 0x0 DUP1 REVERT JUMPDEST POP PUSH1 0x4 CALLDATASIZE LT PUSH2 0xA9 JUMPI PUSH1 0x0 CALLDATALOAD PUSH1 0xE0 SHR DUP1 PUSH4 0xA523B88A GT PUSH2 0x71 JUMPI DUP1 PUSH4 0xA523B88A EQ PUSH2 0x146 JUMPI DUP1 PUSH4 0xA6C3E6B9 EQ PUSH2 0x150 JUMPI DUP1 PUSH4 0xC5FE6FFC EQ PUSH2 0x16E JUMPI DUP1 PUSH4 0xC623674F EQ PUSH2 0x19E JUMPI DUP1 PUSH4 0xE5A0AF3D EQ PUSH2 0x1BC JUMPI DUP1 PUSH4 0xED777791 EQ PUSH2 0x1DA JUMPI PUSH2 0xA9 JUMP JUMPDEST DUP1 PUSH4 0x4051DDAC EQ PUSH2 0xAE JUMPI DUP1 PUSH4 0x46C922D1 EQ PUSH2 0xD2 JUMPI DUP1 PUSH4 0x4A79D50C EQ PUSH2 0xF0 JUMPI DUP1 PUSH4 0x8758CE83 EQ PUSH2 0x10E JUMPI DUP1 PUSH4 0x988E46C8 EQ PUSH2 0x12A JUMPI JUMPDEST PUSH1 0x0 DUP1 REVERT JUMPDEST PUSH2 0xB6 PUSH2 0x20A JUMP JUMPDEST PUSH1 0x40 MLOAD PUSH2 0xC9 SWAP8 SWAP7 SWAP6 SWAP5 SWAP4 SWAP3 SWAP2 SWAP1 PUSH2 0xB88 JUMP JUMPDEST PUSH1 0x40 MLOAD DUP1 SWAP2 SUB SWAP1 RETURN JUMPDEST PUSH2 0xDA PUSH2 0x4A4 JUMP JUMPDEST PUSH1 0x40 MLOAD PUSH2 0xE7 SWAP2 SWAP1 PUSH2 0xC13 JUMP JUMPDEST PUSH1 0x40 MLOAD DUP1 SWAP2 SUB SWAP1 RETURN JUMPDEST PUSH2 0xF8 PUSH2 0x4C8 JUMP JUMPDEST PUSH1 0x40 MLOAD PUSH2 0x105 SWAP2 SWAP1 PUSH2 0xC2E JUMP JUMPDEST PUSH1 0x40 MLOAD DUP1 SWAP2 SUB SWAP1 RETURN JUMPDEST PUSH2 0x128 PUSH1 0x4 DUP1 CALLDATASIZE SUB DUP2 ADD SWAP1 PUSH2 0x123 SWAP2 SWAP1 PUSH2 0xC81 JUMP JUMPDEST PUSH2 0x556 JUMP JUMPDEST STOP JUMPDEST PUSH2 0x144 PUSH1 0x4 DUP1 CALLDATASIZE SUB DUP2 ADD SWAP1 PUSH2 0x13F SWAP2 SWAP1 PUSH2 0xC81 JUMP JUMPDEST PUSH2 0x64A JUMP JUMPDEST STOP JUMPDEST PUSH2 0x14E PUSH2 0x73E JUMP JUMPDEST STOP JUMPDEST PUSH2 0x158 PUSH2 0x841 JUMP JUMPDEST PUSH1 0x40 MLOAD PUSH2 0x165 SWAP2 SWAP1 PUSH2 0xC13 JUMP JUMPDEST PUSH1 0x40 MLOAD DUP1 SWAP2 SUB SWAP1 RETURN JUMPDEST PUSH2 0x188 PUSH1 0x4 DUP1 CALLDATASIZE SUB DUP2 ADD SWAP1 PUSH2 0x183 SWAP2 SWAP1 PUSH2 0xCDA JUMP JUMPDEST PUSH2 0x867 JUMP JUMPDEST PUSH1 0x40 MLOAD PUSH2 0x195 SWAP2 SWAP1 PUSH2 0xC13 JUMP JUMPDEST PUSH1 0x40 MLOAD DUP1 SWAP2 SUB SWAP1 RETURN JUMPDEST PUSH2 0x1A6 PUSH2 0x8A6 JUMP JUMPDEST PUSH1 0x40 MLOAD PUSH2 0x1B3 SWAP2 SWAP1 PUSH2 0xC2E JUMP JUMPDEST PUSH1 0x40 MLOAD DUP1 SWAP2 SUB SWAP1 RETURN JUMPDEST PUSH2 0x1C4 PUSH2 0x934 JUMP JUMPDEST PUSH1 0x40 MLOAD PUSH2 0x1D1 SWAP2 SWAP1 PUSH2 0xD07 JUMP JUMPDEST PUSH1 0x40 MLOAD DUP1 SWAP2 SUB SWAP1 RETURN JUMPDEST PUSH2 0x1F4 PUSH1 0x4 DUP1 CALLDATASIZE SUB DUP2 ADD SWAP1 PUSH2 0x1EF SWAP2 SWAP1 PUSH2 0xCDA JUMP JUMPDEST PUSH2 0x93A JUMP JUMPDEST PUSH1 0x40 MLOAD PUSH2 0x201 SWAP2 SWAP1 PUSH2 0xC13 JUMP JUMPDEST PUSH1 0x40 MLOAD DUP1 SWAP2 SUB SWAP1 RETURN JUMPDEST PUSH1 0x0 DUP1 PUSH1 0x60 DUP1 PUSH1 0x60 DUP1 PUSH1 0x0 DUP1 PUSH1 0x0 SWAP1 SLOAD SWAP1 PUSH2 0x100 EXP SWAP1 DIV PUSH20 0xFFFFFFFFFFFFFFFFFFFFFFFFFFFFFFFFFFFFFFFF AND PUSH1 0x1 PUSH1 0x0 SWAP1 SLOAD SWAP1 PUSH2 0x100 EXP SWAP1 DIV PUSH20 0xFFFFFFFFFFFFFFFFFFFFFFFFFFFFFFFFFFFFFFFF AND PUSH1 0x2 PUSH1 0x3 PUSH1 0x4 PUSH1 0x5 PUSH1 0x7 SLOAD DUP5 DUP1 SLOAD PUSH2 0x271 SWAP1 PUSH2 0xD51 JUMP JUMPDEST DUP1 PUSH1 0x1F ADD PUSH1 0x20 DUP1 SWAP2 DIV MUL PUSH1 0x20 ADD PUSH1 0x40 MLOAD SWAP1 DUP2 ADD PUSH1 0x40 MSTORE DUP1 SWAP3 SWAP2 SWAP1 DUP2 DUP2 MSTORE PUSH1 0x20 ADD DUP3 DUP1 SLOAD PUSH2 0x29D SWAP1 PUSH2 0xD51 JUMP JUMPDEST DUP1 ISZERO PUSH2 0x2EA JUMPI DUP1 PUSH1 0x1F LT PUSH2 0x2BF JUMPI PUSH2 0x100 DUP1 DUP4 SLOAD DIV MUL DUP4 MSTORE SWAP2 PUSH1 0x20 ADD SWAP2 PUSH2 0x2EA JUMP JUMPDEST DUP3 ADD SWAP2 SWAP1 PUSH1 0x0 MSTORE PUSH1 0x20 PUSH1 0x0 KECCAK256 SWAP1 JUMPDEST DUP2 SLOAD DUP2 MSTORE SWAP1 PUSH1 0x1 ADD SWAP1 PUSH1 0x20 ADD DUP1 DUP4 GT PUSH2 0x2CD JUMPI DUP3 SWAP1 SUB PUSH1 0x1F AND DUP3 ADD SWAP2 JUMPDEST POP POP POP POP POP SWAP5 POP DUP4 DUP1 SLOAD PUSH2 0x2FD SWAP1 PUSH2 0xD51 JUMP JUMPDEST DUP1 PUSH1 0x1F ADD PUSH1 0x20 DUP1 SWAP2 DIV MUL PUSH1 0x20 ADD PUSH1 0x40 MLOAD SWAP1 DUP2 ADD PUSH1 0x40 MSTORE DUP1 SWAP3 SWAP2 SWAP1 DUP2 DUP2 MSTORE PUSH1 0x20 ADD DUP3 DUP1 SLOAD PUSH2 0x329 SWAP1 PUSH2 0xD51 JUMP JUMPDEST DUP1 ISZERO PUSH2 0x376 JUMPI DUP1 PUSH1 0x1F LT PUSH2 0x34B JUMPI PUSH2 0x100 DUP1 DUP4 SLOAD DIV MUL DUP4 MSTORE SWAP2 PUSH1 0x20 ADD SWAP2 PUSH2 0x376 JUMP JUMPDEST DUP3 ADD SWAP2 SWAP1 PUSH1 0x0 MSTORE PUSH1 0x20 PUSH1 0x0 KECCAK256 SWAP1 JUMPDEST DUP2 SLOAD DUP2 MSTORE SWAP1 PUSH1 0x1 ADD SWAP1 PUSH1 0x20 ADD DUP1 DUP4 GT PUSH2 0x359 JUMPI DUP3 SWAP1 SUB PUSH1 0x1F AND DUP3 ADD SWAP2 JUMPDEST POP POP POP POP POP SWAP4 POP DUP3 DUP1 SLOAD DUP1 PUSH1 0x20 MUL PUSH1 0x20 ADD PUSH1 0x40 MLOAD SWAP1 DUP2 ADD PUSH1 0x40 MSTORE DUP1 SWAP3 SWAP2 SWAP1 DUP2 DUP2 MSTORE PUSH1 0x20 ADD DUP3 DUP1 SLOAD DUP1 ISZERO PUSH2 0x3FE JUMPI PUSH1 0x20 MUL DUP3 ADD SWAP2 SWAP1 PUSH1 0x0 MSTORE PUSH1 0x20 PUSH1 0x0 KECCAK256 SWAP1 JUMPDEST DUP2 PUSH1 0x0 SWAP1 SLOAD SWAP1 PUSH2 0x100 EXP SWAP1 DIV PUSH20 0xFFFFFFFFFFFFFFFFFFFFFFFFFFFFFFFFFFFFFFFF AND PUSH20 0xFFFFFFFFFFFFFFFFFFFFFFFFFFFFFFFFFFFFFFFF AND DUP2 MSTORE PUSH1 0x20 ADD SWAP1 PUSH1 0x1 ADD SWAP1 DUP1 DUP4 GT PUSH2 0x3B4 JUMPI JUMPDEST POP POP POP POP POP SWAP3 POP DUP2 DUP1 SLOAD DUP1 PUSH1 0x20 MUL PUSH1 0x20 ADD PUSH1 0x40 MLOAD SWAP1 DUP2 ADD PUSH1 0x40 MSTORE DUP1 SWAP3 SWAP2 SWAP1 DUP2 DUP2 MSTORE PUSH1 0x20 ADD DUP3 DUP1 SLOAD DUP1 ISZERO PUSH2 0x486 JUMPI PUSH1 0x20 MUL DUP3 ADD SWAP2 SWAP1 PUSH1 0x0 MSTORE PUSH1 0x20 PUSH1 0x0 KECCAK256 SWAP1 JUMPDEST DUP2 PUSH1 0x0 SWAP1 SLOAD SWAP1 PUSH2 0x100 EXP SWAP1 DIV PUSH20 0xFFFFFFFFFFFFFFFFFFFFFFFFFFFFFFFFFFFFFFFF AND PUSH20 0xFFFFFFFFFFFFFFFFFFFFFFFFFFFFFFFFFFFFFFFF AND DUP2 MSTORE PUSH1 0x20 ADD SWAP1 PUSH1 0x1 ADD SWAP1 DUP1 DUP4 GT PUSH2 0x43C JUMPI JUMPDEST POP POP POP POP POP SWAP2 POP SWAP7 POP SWAP7 POP SWAP7 POP SWAP7 POP SWAP7 POP SWAP7 POP SWAP7 POP SWAP1 SWAP2 SWAP3 SWAP4 SWAP5 SWAP6 SWAP7 JUMP JUMPDEST PUSH1 0x0 DUP1 SLOAD SWAP1 PUSH2 0x100 EXP SWAP1 DIV PUSH20 0xFFFFFFFFFFFFFFFFFFFFFFFFFFFFFFFFFFFFFFFF AND DUP2 JUMP JUMPDEST PUSH1 0x2 DUP1 SLOAD PUSH2 0x4D5 SWAP1 PUSH2 0xD51 JUMP JUMPDEST DUP1 PUSH1 0x1F ADD PUSH1 0x20 DUP1 SWAP2 DIV MUL PUSH1 0x20 ADD PUSH1 0x40 MLOAD SWAP1 DUP2 ADD PUSH1 0x40 MSTORE DUP1 SWAP3 SWAP2 SWAP1 DUP2 DUP2 MSTORE PUSH1 0x20 ADD DUP3 DUP1 SLOAD PUSH2 0x501 SWAP1 PUSH2 0xD51 JUMP JUMPDEST DUP1 ISZERO PUSH2 0x54E JUMPI DUP1 PUSH1 0x1F LT PUSH2 0x523 JUMPI PUSH2 0x100 DUP1 DUP4 SLOAD DIV MUL DUP4 MSTORE SWAP2 PUSH1 0x20 ADD SWAP2 PUSH2 0x54E JUMP JUMPDEST DUP3 ADD SWAP2 SWAP1 PUSH1 0x0 MSTORE PUSH1 0x20 PUSH1 0x0 KECCAK256 SWAP1 JUMPDEST DUP2 SLOAD DUP2 MSTORE SWAP1 PUSH1 0x1 ADD SWAP1 PUSH1 0x20 ADD DUP1 DUP4 GT PUSH2 0x531 JUMPI DUP3 SWAP1 SUB PUSH1 0x1F AND DUP3 ADD SWAP2 JUMPDEST POP POP POP POP POP DUP2 JUMP JUMPDEST PUSH1 0x0 DUP1 SLOAD SWAP1 PUSH2 0x100 EXP SWAP1 DIV PUSH20 0xFFFFFFFFFFFFFFFFFFFFFFFFFFFFFFFFFFFFFFFF AND PUSH20 0xFFFFFFFFFFFFFFFFFFFFFFFFFFFFFFFFFFFFFFFF AND CALLER PUSH20 0xFFFFFFFFFFFFFFFFFFFFFFFFFFFFFFFFFFFFFFFF AND EQ PUSH2 0x5E4 JUMPI PUSH1 0x40 MLOAD PUSH32 0x8C379A000000000000000000000000000000000000000000000000000000000 DUP2 MSTORE PUSH1 0x4 ADD PUSH2 0x5DB SWAP1 PUSH2 0xE1B JUMP JUMPDEST PUSH1 0x40 MLOAD DUP1 SWAP2 SUB SWAP1 REVERT JUMPDEST PUSH1 0x4 DUP2 SWAP1 DUP1 PUSH1 0x1 DUP2 SLOAD ADD DUP1 DUP3 SSTORE DUP1 SWAP2 POP POP PUSH1 0x1 SWAP1 SUB SWAP1 PUSH1 0x0 MSTORE PUSH1 0x20 PUSH1 0x0 KECCAK256 ADD PUSH1 0x0 SWAP1 SWAP2 SWAP1 SWAP2 SWAP1 SWAP2 PUSH2 0x100 EXP DUP2 SLOAD DUP2 PUSH20 0xFFFFFFFFFFFFFFFFFFFFFFFFFFFFFFFFFFFFFFFF MUL NOT AND SWAP1 DUP4 PUSH20 0xFFFFFFFFFFFFFFFFFFFFFFFFFFFFFFFFFFFFFFFF AND MUL OR SWAP1 SSTORE POP POP JUMP JUMPDEST PUSH1 0x0 DUP1 SLOAD SWAP1 PUSH2 0x100 EXP SWAP1 DIV PUSH20 0xFFFFFFFFFFFFFFFFFFFFFFFFFFFFFFFFFFFFFFFF AND PUSH20 0xFFFFFFFFFFFFFFFFFFFFFFFFFFFFFFFFFFFFFFFF AND CALLER PUSH20 0xFFFFFFFFFFFFFFFFFFFFFFFFFFFFFFFFFFFFFFFF AND EQ PUSH2 0x6D8 JUMPI PUSH1 0x40 MLOAD PUSH32 0x8C379A000000000000000000000000000000000000000000000000000000000 DUP2 MSTORE PUSH1 0x4 ADD PUSH2 0x6CF SWAP1 PUSH2 0xE1B JUMP JUMPDEST PUSH1 0x40 MLOAD DUP1 SWAP2 SUB SWAP1 REVERT JUMPDEST PUSH1 0x5 DUP2 SWAP1 DUP1 PUSH1 0x1 DUP2 SLOAD ADD DUP1 DUP3 SSTORE DUP1 SWAP2 POP POP PUSH1 0x1 SWAP1 SUB SWAP1 PUSH1 0x0 MSTORE PUSH1 0x20 PUSH1 0x0 KECCAK256 ADD PUSH1 0x0 SWAP1 SWAP2 SWAP1 SWAP2 SWAP1 SWAP2 PUSH2 0x100 EXP DUP2 SLOAD DUP2 PUSH20 0xFFFFFFFFFFFFFFFFFFFFFFFFFFFFFFFFFFFFFFFF MUL NOT AND SWAP1 DUP4 PUSH20 0xFFFFFFFFFFFFFFFFFFFFFFFFFFFFFFFFFFFFFFFF AND MUL OR SWAP1 SSTORE POP POP JUMP JUMPDEST PUSH1 0x6 PUSH1 0x0 CALLER PUSH20 0xFFFFFFFFFFFFFFFFFFFFFFFFFFFFFFFFFFFFFFFF AND PUSH20 0xFFFFFFFFFFFFFFFFFFFFFFFFFFFFFFFFFFFFFFFF AND DUP2 MSTORE PUSH1 0x20 ADD SWAP1 DUP2 MSTORE PUSH1 0x20 ADD PUSH1 0x0 KECCAK256 PUSH1 0x0 SWAP1 SLOAD SWAP1 PUSH2 0x100 EXP SWAP1 DIV PUSH1 0xFF AND ISZERO PUSH2 0x7CB JUMPI PUSH1 0x40 MLOAD PUSH32 0x8C379A000000000000000000000000000000000000000000000000000000000 DUP2 MSTORE PUSH1 0x4 ADD PUSH2 0x7C2 SWAP1 PUSH2 0xE87 JUMP JUMPDEST PUSH1 0x40 MLOAD DUP1 SWAP2 SUB SWAP1 REVERT JUMPDEST PUSH1 0x1 PUSH1 0x6 PUSH1 0x0 CALLER PUSH20 0xFFFFFFFFFFFFFFFFFFFFFFFFFFFFFFFFFFFFFFFF AND PUSH20 0xFFFFFFFFFFFFFFFFFFFFFFFFFFFFFFFFFFFFFFFF AND DUP2 MSTORE PUSH1 0x20 ADD SWAP1 DUP2 MSTORE PUSH1 0x20 ADD PUSH1 0x0 KECCAK256 PUSH1 0x0 PUSH2 0x100 EXP DUP2 SLOAD DUP2 PUSH1 0xFF MUL NOT AND SWAP1 DUP4 ISZERO ISZERO MUL OR SWAP1 SSTORE POP PUSH2 0x839 PUSH1 0x1 PUSH1 0x7 SLOAD PUSH2 0x979 SWAP1 SWAP2 SWAP1 PUSH4 0xFFFFFFFF AND JUMP JUMPDEST PUSH1 0x7 DUP2 SWAP1 SSTORE POP JUMP JUMPDEST PUSH1 0x1 PUSH1 0x0 SWAP1 SLOAD SWAP1 PUSH2 0x100 EXP SWAP1 DIV PUSH20 0xFFFFFFFFFFFFFFFFFFFFFFFFFFFFFFFFFFFFFFFF AND DUP2 JUMP JUMPDEST PUSH1 0x5 DUP2 DUP2 SLOAD DUP2 LT PUSH2 0x877 JUMPI PUSH1 0x0 DUP1 REVERT JUMPDEST SWAP1 PUSH1 0x0 MSTORE PUSH1 0x20 PUSH1 0x0 KECCAK256 ADD PUSH1 0x0 SWAP2 POP SLOAD SWAP1 PUSH2 0x100 EXP SWAP1 DIV PUSH20 0xFFFFFFFFFFFFFFFFFFFFFFFFFFFFFFFFFFFFFFFF AND DUP2 JUMP JUMPDEST PUSH1 0x3 DUP1 SLOAD PUSH2 0x8B3 SWAP1 PUSH2 0xD51 JUMP JUMPDEST DUP1 PUSH1 0x1F ADD PUSH1 0x20 DUP1 SWAP2 DIV MUL PUSH1 0x20 ADD PUSH1 0x40 MLOAD SWAP1 DUP2 ADD PUSH1 0x40 MSTORE DUP1 SWAP3 SWAP2 SWAP1 DUP2 DUP2 MSTORE PUSH1 0x20 ADD DUP3 DUP1 SLOAD PUSH2 0x8DF SWAP1 PUSH2 0xD51 JUMP JUMPDEST DUP1 ISZERO PUSH2 0x92C JUMPI DUP1 PUSH1 0x1F LT PUSH2 0x901 JUMPI PUSH2 0x100 DUP1 DUP4 SLOAD DIV MUL DUP4 MSTORE SWAP2 PUSH1 0x20 ADD SWAP2 PUSH2 0x92C JUMP JUMPDEST DUP3 ADD SWAP2 SWAP1 PUSH1 0x0 MSTORE PUSH1 0x20 PUSH1 0x0 KECCAK256 SWAP1 JUMPDEST DUP2 SLOAD DUP2 MSTORE SWAP1 PUSH1 0x1 ADD SWAP1 PUSH1 0x20 ADD DUP1 DUP4 GT PUSH2 0x90F JUMPI DUP3 SWAP1 SUB PUSH1 0x1F AND DUP3 ADD SWAP2 JUMPDEST POP POP POP POP POP DUP2 JUMP JUMPDEST PUSH1 0x7 SLOAD DUP2 JUMP JUMPDEST PUSH1 0x4 DUP2 DUP2 SLOAD DUP2 LT PUSH2 0x94A JUMPI PUSH1 0x0 DUP1 REVERT JUMPDEST SWAP1 PUSH1 0x0 MSTORE PUSH1 0x20 PUSH1 0x0 KECCAK256 ADD PUSH1 0x0 SWAP2 POP SLOAD SWAP1 PUSH2 0x100 EXP SWAP1 DIV PUSH20 0xFFFFFFFFFFFFFFFFFFFFFFFFFFFFFFFFFFFFFFFF AND DUP2 JUMP JUMPDEST PUSH1 0x0 DUP1 DUP3 DUP5 PUSH2 0x988 SWAP2 SWAP1 PUSH2 0xED6 JUMP JUMPDEST SWAP1 POP DUP4 DUP2 LT ISZERO PUSH2 0x9CD JUMPI PUSH1 0x40 MLOAD PUSH32 0x8C379A000000000000000000000000000000000000000000000000000000000 DUP2 MSTORE PUSH1 0x4 ADD PUSH2 0x9C4 SWAP1 PUSH2 0xF78 JUMP JUMPDEST PUSH1 0x40 MLOAD DUP1 SWAP2 SUB SWAP1 REVERT JUMPDEST DUP1 SWAP2 POP POP SWAP3 SWAP2 POP POP JUMP JUMPDEST PUSH1 0x0 PUSH20 0xFFFFFFFFFFFFFFFFFFFFFFFFFFFFFFFFFFFFFFFF DUP3 AND SWAP1 POP SWAP2 SWAP1 POP JUMP JUMPDEST PUSH1 0x0 PUSH2 0xA02 DUP3 PUSH2 0x9D7 JUMP JUMPDEST SWAP1 POP SWAP2 SWAP1 POP JUMP JUMPDEST PUSH2 0xA12 DUP2 PUSH2 0x9F7 JUMP JUMPDEST DUP3 MSTORE POP POP JUMP JUMPDEST PUSH1 0x0 DUP2 MLOAD SWAP1 POP SWAP2 SWAP1 POP JUMP JUMPDEST PUSH1 0x0 DUP3 DUP3 MSTORE PUSH1 0x20 DUP3 ADD SWAP1 POP SWAP3 SWAP2 POP POP JUMP JUMPDEST PUSH1 0x0 JUMPDEST DUP4 DUP2 LT ISZERO PUSH2 0xA52 JUMPI DUP1 DUP3 ADD MLOAD DUP2 DUP5 ADD MSTORE PUSH1 0x20 DUP2 ADD SWAP1 POP PUSH2 0xA37 JUMP JUMPDEST DUP4 DUP2 GT ISZERO PUSH2 0xA61 JUMPI PUSH1 0x0 DUP5 DUP5 ADD MSTORE JUMPDEST POP POP POP POP JUMP JUMPDEST PUSH1 0x0 PUSH1 0x1F NOT PUSH1 0x1F DUP4 ADD AND SWAP1 POP SWAP2 SWAP1 POP JUMP JUMPDEST PUSH1 0x0 PUSH2 0xA83 DUP3 PUSH2 0xA18 JUMP JUMPDEST PUSH2 0xA8D DUP2 DUP6 PUSH2 0xA23 JUMP JUMPDEST SWAP4 POP PUSH2 0xA9D DUP2 DUP6 PUSH1 0x20 DUP7 ADD PUSH2 0xA34 JUMP JUMPDEST PUSH2 0xAA6 DUP2 PUSH2 0xA67 JUMP JUMPDEST DUP5 ADD SWAP2 POP POP SWAP3 SWAP2 POP POP JUMP JUMPDEST PUSH1 0x0 DUP2 MLOAD SWAP1 POP SWAP2 SWAP1 POP JUMP JUMPDEST PUSH1 0x0 DUP3 DUP3 MSTORE PUSH1 0x20 DUP3 ADD SWAP1 POP SWAP3 SWAP2 POP POP JUMP JUMPDEST PUSH1 0x0 DUP2 SWAP1 POP PUSH1 0x20 DUP3 ADD SWAP1 POP SWAP2 SWAP1 POP JUMP JUMPDEST PUSH2 0xAE6 DUP2 PUSH2 0x9F7 JUMP JUMPDEST DUP3 MSTORE POP POP JUMP JUMPDEST PUSH1 0x0 PUSH2 0xAF8 DUP4 DUP4 PUSH2 0xADD JUMP JUMPDEST PUSH1 0x20 DUP4 ADD SWAP1 POP SWAP3 SWAP2 POP POP JUMP JUMPDEST PUSH1 0x0 PUSH1 0x20 DUP3 ADD SWAP1 POP SWAP2 SWAP1 POP JUMP JUMPDEST PUSH1 0x0 PUSH2 0xB1C DUP3 PUSH2 0xAB1 JUMP JUMPDEST PUSH2 0xB26 DUP2 DUP6 PUSH2 0xABC JUMP JUMPDEST SWAP4 POP PUSH2 0xB31 DUP4 PUSH2 0xACD JUMP JUMPDEST DUP1 PUSH1 0x0 JUMPDEST DUP4 DUP2 LT ISZERO PUSH2 0xB62 JUMPI DUP2 MLOAD PUSH2 0xB49 DUP9 DUP3 PUSH2 0xAEC JUMP JUMPDEST SWAP8 POP PUSH2 0xB54 DUP4 PUSH2 0xB04 JUMP JUMPDEST SWAP3 POP POP PUSH1 0x1 DUP2 ADD SWAP1 POP PUSH2 0xB35 JUMP JUMPDEST POP DUP6 SWAP4 POP POP POP POP SWAP3 SWAP2 POP POP JUMP JUMPDEST PUSH1 0x0 DUP2 SWAP1 POP SWAP2 SWAP1 POP JUMP JUMPDEST PUSH2 0xB82 DUP2 PUSH2 0xB6F JUMP JUMPDEST DUP3 MSTORE POP POP JUMP JUMPDEST PUSH1 0x0 PUSH1 0xE0 DUP3 ADD SWAP1 POP PUSH2 0xB9D PUSH1 0x0 DUP4 ADD DUP11 PUSH2 0xA09 JUMP JUMPDEST PUSH2 0xBAA PUSH1 0x20 DUP4 ADD DUP10 PUSH2 0xA09 JUMP JUMPDEST DUP2 DUP2 SUB PUSH1 0x40 DUP4 ADD MSTORE PUSH2 0xBBC DUP2 DUP9 PUSH2 0xA78 JUMP JUMPDEST SWAP1 POP DUP2 DUP2 SUB PUSH1 0x60 DUP4 ADD MSTORE PUSH2 0xBD0 DUP2 DUP8 PUSH2 0xA78 JUMP JUMPDEST SWAP1 POP DUP2 DUP2 SUB PUSH1 0x80 DUP4 ADD MSTORE PUSH2 0xBE4 DUP2 DUP7 PUSH2 0xB11 JUMP JUMPDEST SWAP1 POP DUP2 DUP2 SUB PUSH1 0xA0 DUP4 ADD MSTORE PUSH2 0xBF8 DUP2 DUP6 PUSH2 0xB11 JUMP JUMPDEST SWAP1 POP PUSH2 0xC07 PUSH1 0xC0 DUP4 ADD DUP5 PUSH2 0xB79 JUMP JUMPDEST SWAP9 SWAP8 POP POP POP POP POP POP POP POP JUMP JUMPDEST PUSH1 0x0 PUSH1 0x20 DUP3 ADD SWAP1 POP PUSH2 0xC28 PUSH1 0x0 DUP4 ADD DUP5 PUSH2 0xA09 JUMP JUMPDEST SWAP3 SWAP2 POP POP JUMP JUMPDEST PUSH1 0x0 PUSH1 0x20 DUP3 ADD SWAP1 POP DUP2 DUP2 SUB PUSH1 0x0 DUP4 ADD MSTORE PUSH2 0xC48 DUP2 DUP5 PUSH2 0xA78 JUMP JUMPDEST SWAP1 POP SWAP3 SWAP2 POP POP JUMP JUMPDEST PUSH1 0x0 DUP1 REVERT JUMPDEST PUSH2 0xC5E DUP2 PUSH2 0x9F7 JUMP JUMPDEST DUP2 EQ PUSH2 0xC69 JUMPI PUSH1 0x0 DUP1 REVERT JUMPDEST POP JUMP JUMPDEST PUSH1 0x0 DUP2 CALLDATALOAD SWAP1 POP PUSH2 0xC7B DUP2 PUSH2 0xC55 JUMP JUMPDEST SWAP3 SWAP2 POP POP JUMP JUMPDEST PUSH1 0x0 PUSH1 0x20 DUP3 DUP5 SUB SLT ISZERO PUSH2 0xC97 JUMPI PUSH2 0xC96 PUSH2 0xC50 JUMP JUMPDEST JUMPDEST PUSH1 0x0 PUSH2 0xCA5 DUP5 DUP3 DUP6 ADD PUSH2 0xC6C JUMP JUMPDEST SWAP2 POP POP SWAP3 SWAP2 POP POP JUMP JUMPDEST PUSH2 0xCB7 DUP2 PUSH2 0xB6F JUMP JUMPDEST DUP2 EQ PUSH2 0xCC2 JUMPI PUSH1 0x0 DUP1 REVERT JUMPDEST POP JUMP JUMPDEST PUSH1 0x0 DUP2 CALLDATALOAD SWAP1 POP PUSH2 0xCD4 DUP2 PUSH2 0xCAE JUMP JUMPDEST SWAP3 SWAP2 POP POP JUMP JUMPDEST PUSH1 0x0 PUSH1 0x20 DUP3 DUP5 SUB SLT ISZERO PUSH2 0xCF0 JUMPI PUSH2 0xCEF PUSH2 0xC50 JUMP JUMPDEST JUMPDEST PUSH1 0x0 PUSH2 0xCFE DUP5 DUP3 DUP6 ADD PUSH2 0xCC5 JUMP JUMPDEST SWAP2 POP POP SWAP3 SWAP2 POP POP JUMP JUMPDEST PUSH1 0x0 PUSH1 0x20 DUP3 ADD SWAP1 POP PUSH2 0xD1C PUSH1 0x0 DUP4 ADD DUP5 PUSH2 0xB79 JUMP JUMPDEST SWAP3 SWAP2 POP POP JUMP JUMPDEST PUSH32 0x4E487B7100000000000000000000000000000000000000000000000000000000 PUSH1 0x0 MSTORE PUSH1 0x22 PUSH1 0x4 MSTORE PUSH1 0x24 PUSH1 0x0 REVERT JUMPDEST PUSH1 0x0 PUSH1 0x2 DUP3 DIV SWAP1 POP PUSH1 0x1 DUP3 AND DUP1 PUSH2 0xD69 JUMPI PUSH1 0x7F DUP3 AND SWAP2 POP JUMPDEST PUSH1 0x20 DUP3 LT DUP2 EQ ISZERO PUSH2 0xD7D JUMPI PUSH2 0xD7C PUSH2 0xD22 JUMP JUMPDEST JUMPDEST POP SWAP2 SWAP1 POP JUMP JUMPDEST PUSH32 0x546869732066756E6374696F6E2068617320746F2062652063616C6C65642066 PUSH1 0x0 DUP3 ADD MSTORE PUSH32 0x726F6D207468652073746F727920636F6E747261637420627920616E20616363 PUSH1 0x20 DUP3 ADD MSTORE PUSH32 0x657074656420617574686F72206F6E6C79000000000000000000000000000000 PUSH1 0x40 DUP3 ADD MSTORE POP JUMP JUMPDEST PUSH1 0x0 PUSH2 0xE05 PUSH1 0x51 DUP4 PUSH2 0xA23 JUMP JUMPDEST SWAP2 POP PUSH2 0xE10 DUP3 PUSH2 0xD83 JUMP JUMPDEST PUSH1 0x60 DUP3 ADD SWAP1 POP SWAP2 SWAP1 POP JUMP JUMPDEST PUSH1 0x0 PUSH1 0x20 DUP3 ADD SWAP1 POP DUP2 DUP2 SUB PUSH1 0x0 DUP4 ADD MSTORE PUSH2 0xE34 DUP2 PUSH2 0xDF8 JUMP JUMPDEST SWAP1 POP SWAP2 SWAP1 POP JUMP JUMPDEST PUSH32 0x596F75206C696B656420746869732073746F7279206265666F72650000000000 PUSH1 0x0 DUP3 ADD MSTORE POP JUMP JUMPDEST PUSH1 0x0 PUSH2 0xE71 PUSH1 0x1B DUP4 PUSH2 0xA23 JUMP JUMPDEST SWAP2 POP PUSH2 0xE7C DUP3 PUSH2 0xE3B JUMP JUMPDEST PUSH1 0x20 DUP3 ADD SWAP1 POP SWAP2 SWAP1 POP JUMP JUMPDEST PUSH1 0x0 PUSH1 0x20 DUP3 ADD SWAP1 POP DUP2 DUP2 SUB PUSH1 0x0 DUP4 ADD MSTORE PUSH2 0xEA0 DUP2 PUSH2 0xE64 JUMP JUMPDEST SWAP1 POP SWAP2 SWAP1 POP JUMP JUMPDEST PUSH32 0x4E487B7100000000000000000000000000000000000000000000000000000000 PUSH1 0x0 MSTORE PUSH1 0x11 PUSH1 0x4 MSTORE PUSH1 0x24 PUSH1 0x0 REVERT JUMPDEST PUSH1 0x0 PUSH2 0xEE1 DUP3 PUSH2 0xB6F JUMP JUMPDEST SWAP2 POP PUSH2 0xEEC DUP4 PUSH2 0xB6F JUMP JUMPDEST SWAP3 POP DUP3 PUSH32 0xFFFFFFFFFFFFFFFFFFFFFFFFFFFFFFFFFFFFFFFFFFFFFFFFFFFFFFFFFFFFFFFF SUB DUP3 GT ISZERO PUSH2 0xF21 JUMPI PUSH2 0xF20 PUSH2 0xEA7 JUMP JUMPDEST JUMPDEST DUP3 DUP3 ADD SWAP1 POP SWAP3 SWAP2 POP POP JUMP JUMPDEST PUSH32 0x536166654D6174683A206164646974696F6E206F766572666C6F770000000000 PUSH1 0x0 DUP3 ADD MSTORE POP JUMP JUMPDEST PUSH1 0x0 PUSH2 0xF62 PUSH1 0x1B DUP4 PUSH2 0xA23 JUMP JUMPDEST SWAP2 POP PUSH2 0xF6D DUP3 PUSH2 0xF2C JUMP JUMPDEST PUSH1 0x20 DUP3 ADD SWAP1 POP SWAP2 SWAP1 POP JUMP JUMPDEST PUSH1 0x0 PUSH1 0x20 DUP3 ADD SWAP1 POP DUP2 DUP2 SUB PUSH1 0x0 DUP4 ADD MSTORE PUSH2 0xF91 DUP2 PUSH2 0xF55 JUMP JUMPDEST SWAP1 POP SWAP2 SWAP1 POP JUMP INVALID LOG2 PUSH5 0x6970667358 0x22 SLT KECCAK256 SIGNEXTEND SELFDESTRUCT 0xD5 PUSH12 0x8A0FAB4249BCE05FF136BF46 DUP1 AND ORIGIN JUMPI PUSH7 0xE1E1CA305F2DB7 SLT LT 0xC9 ADDMOD PUSH5 0x736F6C6343 STOP ADDMOD MULMOD STOP CALLER LOG2 PUSH5 0x6970667358 0x22 SLT KECCAK256 0x2D SWAP14 0x2C CHAINID 0xA6 SMOD LOG0 0x2D PUSH29 0xF2258B4B40787996EA55A6B08F498BFF39F559C098811364736F6C6343 STOP ADDMOD MULMOD STOP CALLER LOG2 PUSH5 0x6970667358 0x22 SLT KECCAK256 0x4A 0xCE LOG1 XOR 0xC0 JUMPI LOG0 SWAP2 PUSH7 0x74E112AEC6F2CD 0xBE 0x4D SELFBALANCE 0xB1 CREATE2 0x26 SWAP13 0xC MLOAD DUP6 0xE6 PUSH23 0xFDC4452F64736F6C634300080900330000000000000000 "},"gasEstimates":{"creation":{"codeDepositCost":"4391400","executionCost":"5094","totalCost":"4396494"},"external":{"addAuthorUsername(string)":"infinite","authorUsernames(address)":"infinite","createStory(string,string,string)":"infinite","deployedStories(uint256)":"4934","getDeployedStories()":"infinite"}},"methodIdentifiers":{"addAuthorUsername(string)":"5048bd37","authorUsernames(address)":"adb6a397","createStory(string,string,string)":"f4b955f3","deployedStories(uint256)":"18351ea7","getDeployedStories()":"2ff2bdd5"}},"storageLayout":{"storage":[{"astId":51,"contract":"Story.sol:StoryFactory","label":"deployedStories","offset":0,"slot":"0","type":"t_array(t_address)dyn_storage"},{"astId":55,"contract":"Story.sol:StoryFactory","label":"authorUsernames","offset":0,"slot":"1","type":"t_mapping(t_address,t_string_storage)"}],"types":{"t_address":{"encoding":"inplace","label":"address","numberOfBytes":"20"},"t_array(t_address)dyn_storage":{"base":"t_address","encoding":"dynamic_array","label":"address[]","numberOfBytes":"32"},"t_mapping(t_address,t_string_storage)":{"encoding":"mapping","key":"t_address","label":"mapping(address => string)","numberOfBytes":"32","value":"t_string_storage"},"t_string_storage":{"encoding":"bytes","label":"string","numberOfBytes":"32"}}},"userdoc":{"kind":"user","methods":{},"version":1}}