{"abi":[{"anonymous":false,"inputs":[{"indexed":true,"internalType":"address","name":"storyAddress","type":"address"}],"name":"StoryCreated","type":"event"},{"inputs":[{"internalType":"string","name":"usernameAndPassword","type":"string"},{"internalType":"string","name":"pem","type":"string"}],"name":"createStory","outputs":[{"internalType":"address","name":"","type":"address"}],"stateMutability":"nonpayable","type":"function"},{"inputs":[{"internalType":"uint256","name":"","type":"uint256"}],"name":"deployedStories","outputs":[{"internalType":"address","name":"","type":"address"}],"stateMutability":"view","type":"function"},{"inputs":[],"name":"getDeployedStories","outputs":[{"internalType":"address[]","name":"","type":"address[]"}],"stateMutability":"view","type":"function"}],"devdoc":{"kind":"dev","methods":{},"version":1},"evm":{"assembly":"    /* \"Story.sol\":62:631  contract StoryFactory {... */\n  mstore(0x40, 0x80)\n  callvalue\n  dup1\n  iszero\n  tag_1\n  jumpi\n  0x00\n  dup1\n  revert\ntag_1:\n  pop\n  dataSize(sub_0)\n  dup1\n  dataOffset(sub_0)\n  0x00\n  codecopy\n  0x00\n  return\nstop\n\nsub_0: assembly {\n        /* \"Story.sol\":62:631  contract StoryFactory {... */\n      mstore(0x40, 0x80)\n      callvalue\n      dup1\n      iszero\n      tag_1\n      jumpi\n      0x00\n      dup1\n      revert\n    tag_1:\n      pop\n      jumpi(tag_2, lt(calldatasize, 0x04))\n      shr(0xe0, calldataload(0x00))\n      dup1\n      0x18351ea7\n      eq\n      tag_3\n      jumpi\n      dup1\n      0x2ff2bdd5\n      eq\n      tag_4\n      jumpi\n      dup1\n      0x9151d403\n      eq\n      tag_5\n      jumpi\n    tag_2:\n      0x00\n      dup1\n      revert\n        /* \"Story.sol\":91:123  address[] public deployedStories */\n    tag_3:\n      tag_6\n      0x04\n      dup1\n      calldatasize\n      sub\n      dup2\n      add\n      swap1\n      tag_7\n      swap2\n      swap1\n      tag_8\n      jump\t// in\n    tag_7:\n      tag_9\n      jump\t// in\n    tag_6:\n      mload(0x40)\n      tag_10\n      swap2\n      swap1\n      tag_11\n      jump\t// in\n    tag_10:\n      mload(0x40)\n      dup1\n      swap2\n      sub\n      swap1\n      return\n        /* \"Story.sol\":518:628  function getDeployedStories() public view returns (address[] memory) {... */\n    tag_4:\n      tag_12\n      tag_13\n      jump\t// in\n    tag_12:\n      mload(0x40)\n      tag_14\n      swap2\n      swap1\n      tag_15\n      jump\t// in\n    tag_14:\n      mload(0x40)\n      dup1\n      swap2\n      sub\n      swap1\n      return\n        /* \"Story.sol\":195:510  function createStory(string memory usernameAndPassword, string memory pem) public returns (address) {... */\n    tag_5:\n      tag_16\n      0x04\n      dup1\n      calldatasize\n      sub\n      dup2\n      add\n      swap1\n      tag_17\n      swap2\n      swap1\n      tag_18\n      jump\t// in\n    tag_17:\n      tag_19\n      jump\t// in\n    tag_16:\n      mload(0x40)\n      tag_20\n      swap2\n      swap1\n      tag_11\n      jump\t// in\n    tag_20:\n      mload(0x40)\n      dup1\n      swap2\n      sub\n      swap1\n      return\n        /* \"Story.sol\":91:123  address[] public deployedStories */\n    tag_9:\n      0x00\n      dup2\n      dup2\n      sload\n      dup2\n      lt\n      tag_21\n      jumpi\n      0x00\n      dup1\n      revert\n    tag_21:\n      swap1\n      0x00\n      mstore\n      keccak256(0x00, 0x20)\n      add\n      0x00\n      swap2\n      pop\n      sload\n      swap1\n      0x0100\n      exp\n      swap1\n      div\n      0xffffffffffffffffffffffffffffffffffffffff\n      and\n      dup2\n      jump\t// out\n        /* \"Story.sol\":518:628  function getDeployedStories() public view returns (address[] memory) {... */\n    tag_13:\n        /* \"Story.sol\":569:585  address[] memory */\n      0x60\n        /* \"Story.sol\":605:620  deployedStories */\n      0x00\n        /* \"Story.sol\":598:620  return deployedStories */\n      dup1\n      sload\n      dup1\n      0x20\n      mul\n      0x20\n      add\n      mload(0x40)\n      swap1\n      dup2\n      add\n      0x40\n      mstore\n      dup1\n      swap3\n      swap2\n      swap1\n      dup2\n      dup2\n      mstore\n      0x20\n      add\n      dup3\n      dup1\n      sload\n      dup1\n      iszero\n      tag_24\n      jumpi\n      0x20\n      mul\n      dup3\n      add\n      swap2\n      swap1\n      0x00\n      mstore\n      keccak256(0x00, 0x20)\n      swap1\n    tag_25:\n      dup2\n      0x00\n      swap1\n      sload\n      swap1\n      0x0100\n      exp\n      swap1\n      div\n      0xffffffffffffffffffffffffffffffffffffffff\n      and\n      0xffffffffffffffffffffffffffffffffffffffff\n      and\n      dup2\n      mstore\n      0x20\n      add\n      swap1\n      0x01\n      add\n      swap1\n      dup1\n      dup4\n      gt\n      tag_25\n      jumpi\n    tag_24:\n      pop\n      pop\n      pop\n      pop\n      pop\n      swap1\n      pop\n        /* \"Story.sol\":518:628  function getDeployedStories() public view returns (address[] memory) {... */\n      swap1\n      jump\t// out\n        /* \"Story.sol\":195:510  function createStory(string memory usernameAndPassword, string memory pem) public returns (address) {... */\n    tag_19:\n        /* \"Story.sol\":286:293  address */\n      0x00\n        /* \"Story.sol\":306:320  Story newStory */\n      dup1\n        /* \"Story.sol\":333:343  msg.sender */\n      caller\n        /* \"Story.sol\":345:364  usernameAndPassword */\n      dup5\n        /* \"Story.sol\":366:369  pem */\n      dup5\n        /* \"Story.sol\":323:370  new Story(msg.sender, usernameAndPassword, pem) */\n      mload(0x40)\n      tag_27\n      swap1\n      tag_28\n      jump\t// in\n    tag_27:\n      tag_29\n      swap4\n      swap3\n      swap2\n      swap1\n      tag_30\n      jump\t// in\n    tag_29:\n      mload(0x40)\n      dup1\n      swap2\n      sub\n      swap1\n      0x00\n      create\n      dup1\n      iszero\n      dup1\n      iszero\n      tag_31\n      jumpi\n      returndatasize\n      0x00\n      dup1\n      returndatacopy\n      revert(0x00, returndatasize)\n    tag_31:\n      pop\n        /* \"Story.sol\":306:370  Story newStory = new Story(msg.sender, usernameAndPassword, pem) */\n      swap1\n      pop\n        /* \"Story.sol\":381:396  deployedStories */\n      0x00\n        /* \"Story.sol\":410:418  newStory */\n      dup2\n        /* \"Story.sol\":381:420  deployedStories.push(address(newStory)) */\n      swap1\n      dup1\n      0x01\n      dup2\n      sload\n      add\n      dup1\n      dup3\n      sstore\n      dup1\n      swap2\n      pop\n      pop\n      0x01\n      swap1\n      sub\n      swap1\n      0x00\n      mstore\n      keccak256(0x00, 0x20)\n      add\n      0x00\n      swap1\n      swap2\n      swap1\n      swap2\n      swap1\n      swap2\n      0x0100\n      exp\n      dup2\n      sload\n      dup2\n      0xffffffffffffffffffffffffffffffffffffffff\n      mul\n      not\n      and\n      swap1\n      dup4\n      0xffffffffffffffffffffffffffffffffffffffff\n      and\n      mul\n      or\n      swap1\n      sstore\n      pop\n        /* \"Story.sol\":457:465  newStory */\n      dup1\n        /* \"Story.sol\":436:467  StoryCreated(address(newStory)) */\n      0xffffffffffffffffffffffffffffffffffffffff\n      and\n      0x994b548cd2649cd87c03e8af83cab9893684eba91bf07215ad26df0654dc0734\n      mload(0x40)\n      mload(0x40)\n      dup1\n      swap2\n      sub\n      swap1\n      log2\n        /* \"Story.sol\":493:501  newStory */\n      dup1\n        /* \"Story.sol\":478:502  return address(newStory) */\n      swap2\n      pop\n      pop\n        /* \"Story.sol\":195:510  function createStory(string memory usernameAndPassword, string memory pem) public returns (address) {... */\n      swap3\n      swap2\n      pop\n      pop\n      jump\t// out\n    tag_28:\n      dataSize(sub_0)\n      dup1\n      dataOffset(sub_0)\n      dup4\n      codecopy\n      add\n      swap1\n      jump\t// out\n        /* \"#utility.yul\":7:82   */\n    tag_33:\n        /* \"#utility.yul\":40:46   */\n      0x00\n        /* \"#utility.yul\":73:75   */\n      0x40\n        /* \"#utility.yul\":67:76   */\n      mload\n        /* \"#utility.yul\":57:76   */\n      swap1\n      pop\n        /* \"#utility.yul\":7:82   */\n      swap1\n      jump\t// out\n        /* \"#utility.yul\":88:205   */\n    tag_34:\n        /* \"#utility.yul\":197:198   */\n      0x00\n        /* \"#utility.yul\":194:195   */\n      dup1\n        /* \"#utility.yul\":187:199   */\n      revert\n        /* \"#utility.yul\":211:328   */\n    tag_35:\n        /* \"#utility.yul\":320:321   */\n      0x00\n        /* \"#utility.yul\":317:318   */\n      dup1\n        /* \"#utility.yul\":310:322   */\n      revert\n        /* \"#utility.yul\":334:411   */\n    tag_36:\n        /* \"#utility.yul\":371:378   */\n      0x00\n        /* \"#utility.yul\":400:405   */\n      dup2\n        /* \"#utility.yul\":389:405   */\n      swap1\n      pop\n        /* \"#utility.yul\":334:411   */\n      swap2\n      swap1\n      pop\n      jump\t// out\n        /* \"#utility.yul\":417:539   */\n    tag_37:\n        /* \"#utility.yul\":490:514   */\n      tag_69\n        /* \"#utility.yul\":508:513   */\n      dup2\n        /* \"#utility.yul\":490:514   */\n      tag_36\n      jump\t// in\n    tag_69:\n        /* \"#utility.yul\":483:488   */\n      dup2\n        /* \"#utility.yul\":480:515   */\n      eq\n        /* \"#utility.yul\":470:533   */\n      tag_70\n      jumpi\n        /* \"#utility.yul\":529:530   */\n      0x00\n        /* \"#utility.yul\":526:527   */\n      dup1\n        /* \"#utility.yul\":519:531   */\n      revert\n        /* \"#utility.yul\":470:533   */\n    tag_70:\n        /* \"#utility.yul\":417:539   */\n      pop\n      jump\t// out\n        /* \"#utility.yul\":545:684   */\n    tag_38:\n        /* \"#utility.yul\":591:596   */\n      0x00\n        /* \"#utility.yul\":629:635   */\n      dup2\n        /* \"#utility.yul\":616:636   */\n      calldataload\n        /* \"#utility.yul\":607:636   */\n      swap1\n      pop\n        /* \"#utility.yul\":645:678   */\n      tag_72\n        /* \"#utility.yul\":672:677   */\n      dup2\n        /* \"#utility.yul\":645:678   */\n      tag_37\n      jump\t// in\n    tag_72:\n        /* \"#utility.yul\":545:684   */\n      swap3\n      swap2\n      pop\n      pop\n      jump\t// out\n        /* \"#utility.yul\":690:1019   */\n    tag_8:\n        /* \"#utility.yul\":749:755   */\n      0x00\n        /* \"#utility.yul\":798:800   */\n      0x20\n        /* \"#utility.yul\":786:795   */\n      dup3\n        /* \"#utility.yul\":777:784   */\n      dup5\n        /* \"#utility.yul\":773:796   */\n      sub\n        /* \"#utility.yul\":769:801   */\n      slt\n        /* \"#utility.yul\":766:885   */\n      iszero\n      tag_74\n      jumpi\n        /* \"#utility.yul\":804:883   */\n      tag_75\n      tag_34\n      jump\t// in\n    tag_75:\n        /* \"#utility.yul\":766:885   */\n    tag_74:\n        /* \"#utility.yul\":924:925   */\n      0x00\n        /* \"#utility.yul\":949:1002   */\n      tag_76\n        /* \"#utility.yul\":994:1001   */\n      dup5\n        /* \"#utility.yul\":985:991   */\n      dup3\n        /* \"#utility.yul\":974:983   */\n      dup6\n        /* \"#utility.yul\":970:992   */\n      add\n        /* \"#utility.yul\":949:1002   */\n      tag_38\n      jump\t// in\n    tag_76:\n        /* \"#utility.yul\":939:1002   */\n      swap2\n      pop\n        /* \"#utility.yul\":895:1012   */\n      pop\n        /* \"#utility.yul\":690:1019   */\n      swap3\n      swap2\n      pop\n      pop\n      jump\t// out\n        /* \"#utility.yul\":1025:1151   */\n    tag_39:\n        /* \"#utility.yul\":1062:1069   */\n      0x00\n        /* \"#utility.yul\":1102:1144   */\n      0xffffffffffffffffffffffffffffffffffffffff\n        /* \"#utility.yul\":1095:1100   */\n      dup3\n        /* \"#utility.yul\":1091:1145   */\n      and\n        /* \"#utility.yul\":1080:1145   */\n      swap1\n      pop\n        /* \"#utility.yul\":1025:1151   */\n      swap2\n      swap1\n      pop\n      jump\t// out\n        /* \"#utility.yul\":1157:1253   */\n    tag_40:\n        /* \"#utility.yul\":1194:1201   */\n      0x00\n        /* \"#utility.yul\":1223:1247   */\n      tag_79\n        /* \"#utility.yul\":1241:1246   */\n      dup3\n        /* \"#utility.yul\":1223:1247   */\n      tag_39\n      jump\t// in\n    tag_79:\n        /* \"#utility.yul\":1212:1247   */\n      swap1\n      pop\n        /* \"#utility.yul\":1157:1253   */\n      swap2\n      swap1\n      pop\n      jump\t// out\n        /* \"#utility.yul\":1259:1377   */\n    tag_41:\n        /* \"#utility.yul\":1346:1370   */\n      tag_81\n        /* \"#utility.yul\":1364:1369   */\n      dup2\n        /* \"#utility.yul\":1346:1370   */\n      tag_40\n      jump\t// in\n    tag_81:\n        /* \"#utility.yul\":1341:1344   */\n      dup3\n        /* \"#utility.yul\":1334:1371   */\n      mstore\n        /* \"#utility.yul\":1259:1377   */\n      pop\n      pop\n      jump\t// out\n        /* \"#utility.yul\":1383:1605   */\n    tag_11:\n        /* \"#utility.yul\":1476:1480   */\n      0x00\n        /* \"#utility.yul\":1514:1516   */\n      0x20\n        /* \"#utility.yul\":1503:1512   */\n      dup3\n        /* \"#utility.yul\":1499:1517   */\n      add\n        /* \"#utility.yul\":1491:1517   */\n      swap1\n      pop\n        /* \"#utility.yul\":1527:1598   */\n      tag_83\n        /* \"#utility.yul\":1595:1596   */\n      0x00\n        /* \"#utility.yul\":1584:1593   */\n      dup4\n        /* \"#utility.yul\":1580:1597   */\n      add\n        /* \"#utility.yul\":1571:1577   */\n      dup5\n        /* \"#utility.yul\":1527:1598   */\n      tag_41\n      jump\t// in\n    tag_83:\n        /* \"#utility.yul\":1383:1605   */\n      swap3\n      swap2\n      pop\n      pop\n      jump\t// out\n        /* \"#utility.yul\":1611:1725   */\n    tag_42:\n        /* \"#utility.yul\":1678:1684   */\n      0x00\n        /* \"#utility.yul\":1712:1717   */\n      dup2\n        /* \"#utility.yul\":1706:1718   */\n      mload\n        /* \"#utility.yul\":1696:1718   */\n      swap1\n      pop\n        /* \"#utility.yul\":1611:1725   */\n      swap2\n      swap1\n      pop\n      jump\t// out\n        /* \"#utility.yul\":1731:1915   */\n    tag_43:\n        /* \"#utility.yul\":1830:1841   */\n      0x00\n        /* \"#utility.yul\":1864:1870   */\n      dup3\n        /* \"#utility.yul\":1859:1862   */\n      dup3\n        /* \"#utility.yul\":1852:1871   */\n      mstore\n        /* \"#utility.yul\":1904:1908   */\n      0x20\n        /* \"#utility.yul\":1899:1902   */\n      dup3\n        /* \"#utility.yul\":1895:1909   */\n      add\n        /* \"#utility.yul\":1880:1909   */\n      swap1\n      pop\n        /* \"#utility.yul\":1731:1915   */\n      swap3\n      swap2\n      pop\n      pop\n      jump\t// out\n        /* \"#utility.yul\":1921:2053   */\n    tag_44:\n        /* \"#utility.yul\":1988:1992   */\n      0x00\n        /* \"#utility.yul\":2011:2014   */\n      dup2\n        /* \"#utility.yul\":2003:2014   */\n      swap1\n      pop\n        /* \"#utility.yul\":2041:2045   */\n      0x20\n        /* \"#utility.yul\":2036:2039   */\n      dup3\n        /* \"#utility.yul\":2032:2046   */\n      add\n        /* \"#utility.yul\":2024:2046   */\n      swap1\n      pop\n        /* \"#utility.yul\":1921:2053   */\n      swap2\n      swap1\n      pop\n      jump\t// out\n        /* \"#utility.yul\":2059:2167   */\n    tag_45:\n        /* \"#utility.yul\":2136:2160   */\n      tag_88\n        /* \"#utility.yul\":2154:2159   */\n      dup2\n        /* \"#utility.yul\":2136:2160   */\n      tag_40\n      jump\t// in\n    tag_88:\n        /* \"#utility.yul\":2131:2134   */\n      dup3\n        /* \"#utility.yul\":2124:2161   */\n      mstore\n        /* \"#utility.yul\":2059:2167   */\n      pop\n      pop\n      jump\t// out\n        /* \"#utility.yul\":2173:2352   */\n    tag_46:\n        /* \"#utility.yul\":2242:2252   */\n      0x00\n        /* \"#utility.yul\":2263:2309   */\n      tag_90\n        /* \"#utility.yul\":2305:2308   */\n      dup4\n        /* \"#utility.yul\":2297:2303   */\n      dup4\n        /* \"#utility.yul\":2263:2309   */\n      tag_45\n      jump\t// in\n    tag_90:\n        /* \"#utility.yul\":2341:2345   */\n      0x20\n        /* \"#utility.yul\":2336:2339   */\n      dup4\n        /* \"#utility.yul\":2332:2346   */\n      add\n        /* \"#utility.yul\":2318:2346   */\n      swap1\n      pop\n        /* \"#utility.yul\":2173:2352   */\n      swap3\n      swap2\n      pop\n      pop\n      jump\t// out\n        /* \"#utility.yul\":2358:2471   */\n    tag_47:\n        /* \"#utility.yul\":2428:2432   */\n      0x00\n        /* \"#utility.yul\":2460:2464   */\n      0x20\n        /* \"#utility.yul\":2455:2458   */\n      dup3\n        /* \"#utility.yul\":2451:2465   */\n      add\n        /* \"#utility.yul\":2443:2465   */\n      swap1\n      pop\n        /* \"#utility.yul\":2358:2471   */\n      swap2\n      swap1\n      pop\n      jump\t// out\n        /* \"#utility.yul\":2507:3239   */\n    tag_48:\n        /* \"#utility.yul\":2626:2629   */\n      0x00\n        /* \"#utility.yul\":2655:2709   */\n      tag_93\n        /* \"#utility.yul\":2703:2708   */\n      dup3\n        /* \"#utility.yul\":2655:2709   */\n      tag_42\n      jump\t// in\n    tag_93:\n        /* \"#utility.yul\":2725:2811   */\n      tag_94\n        /* \"#utility.yul\":2804:2810   */\n      dup2\n        /* \"#utility.yul\":2799:2802   */\n      dup6\n        /* \"#utility.yul\":2725:2811   */\n      tag_43\n      jump\t// in\n    tag_94:\n        /* \"#utility.yul\":2718:2811   */\n      swap4\n      pop\n        /* \"#utility.yul\":2835:2891   */\n      tag_95\n        /* \"#utility.yul\":2885:2890   */\n      dup4\n        /* \"#utility.yul\":2835:2891   */\n      tag_44\n      jump\t// in\n    tag_95:\n        /* \"#utility.yul\":2914:2921   */\n      dup1\n        /* \"#utility.yul\":2945:2946   */\n      0x00\n        /* \"#utility.yul\":2930:3214   */\n    tag_96:\n        /* \"#utility.yul\":2955:2961   */\n      dup4\n        /* \"#utility.yul\":2952:2953   */\n      dup2\n        /* \"#utility.yul\":2949:2962   */\n      lt\n        /* \"#utility.yul\":2930:3214   */\n      iszero\n      tag_98\n      jumpi\n        /* \"#utility.yul\":3031:3037   */\n      dup2\n        /* \"#utility.yul\":3025:3038   */\n      mload\n        /* \"#utility.yul\":3058:3121   */\n      tag_99\n        /* \"#utility.yul\":3117:3120   */\n      dup9\n        /* \"#utility.yul\":3102:3115   */\n      dup3\n        /* \"#utility.yul\":3058:3121   */\n      tag_46\n      jump\t// in\n    tag_99:\n        /* \"#utility.yul\":3051:3121   */\n      swap8\n      pop\n        /* \"#utility.yul\":3144:3204   */\n      tag_100\n        /* \"#utility.yul\":3197:3203   */\n      dup4\n        /* \"#utility.yul\":3144:3204   */\n      tag_47\n      jump\t// in\n    tag_100:\n        /* \"#utility.yul\":3134:3204   */\n      swap3\n      pop\n        /* \"#utility.yul\":2990:3214   */\n      pop\n        /* \"#utility.yul\":2977:2978   */\n      0x01\n        /* \"#utility.yul\":2974:2975   */\n      dup2\n        /* \"#utility.yul\":2970:2979   */\n      add\n        /* \"#utility.yul\":2965:2979   */\n      swap1\n      pop\n        /* \"#utility.yul\":2930:3214   */\n      jump(tag_96)\n    tag_98:\n        /* \"#utility.yul\":2934:2948   */\n      pop\n        /* \"#utility.yul\":3230:3233   */\n      dup6\n        /* \"#utility.yul\":3223:3233   */\n      swap4\n      pop\n        /* \"#utility.yul\":2631:3239   */\n      pop\n      pop\n      pop\n        /* \"#utility.yul\":2507:3239   */\n      swap3\n      swap2\n      pop\n      pop\n      jump\t// out\n        /* \"#utility.yul\":3245:3618   */\n    tag_15:\n        /* \"#utility.yul\":3388:3392   */\n      0x00\n        /* \"#utility.yul\":3426:3428   */\n      0x20\n        /* \"#utility.yul\":3415:3424   */\n      dup3\n        /* \"#utility.yul\":3411:3429   */\n      add\n        /* \"#utility.yul\":3403:3429   */\n      swap1\n      pop\n        /* \"#utility.yul\":3475:3484   */\n      dup2\n        /* \"#utility.yul\":3469:3473   */\n      dup2\n        /* \"#utility.yul\":3465:3485   */\n      sub\n        /* \"#utility.yul\":3461:3462   */\n      0x00\n        /* \"#utility.yul\":3450:3459   */\n      dup4\n        /* \"#utility.yul\":3446:3463   */\n      add\n        /* \"#utility.yul\":3439:3486   */\n      mstore\n        /* \"#utility.yul\":3503:3611   */\n      tag_102\n        /* \"#utility.yul\":3606:3610   */\n      dup2\n        /* \"#utility.yul\":3597:3603   */\n      dup5\n        /* \"#utility.yul\":3503:3611   */\n      tag_48\n      jump\t// in\n    tag_102:\n        /* \"#utility.yul\":3495:3611   */\n      swap1\n      pop\n        /* \"#utility.yul\":3245:3618   */\n      swap3\n      swap2\n      pop\n      pop\n      jump\t// out\n        /* \"#utility.yul\":3624:3741   */\n    tag_49:\n        /* \"#utility.yul\":3733:3734   */\n      0x00\n        /* \"#utility.yul\":3730:3731   */\n      dup1\n        /* \"#utility.yul\":3723:3735   */\n      revert\n        /* \"#utility.yul\":3747:3864   */\n    tag_50:\n        /* \"#utility.yul\":3856:3857   */\n      0x00\n        /* \"#utility.yul\":3853:3854   */\n      dup1\n        /* \"#utility.yul\":3846:3858   */\n      revert\n        /* \"#utility.yul\":3870:3972   */\n    tag_51:\n        /* \"#utility.yul\":3911:3917   */\n      0x00\n        /* \"#utility.yul\":3962:3964   */\n      0x1f\n        /* \"#utility.yul\":3958:3965   */\n      not\n        /* \"#utility.yul\":3953:3955   */\n      0x1f\n        /* \"#utility.yul\":3946:3951   */\n      dup4\n        /* \"#utility.yul\":3942:3956   */\n      add\n        /* \"#utility.yul\":3938:3966   */\n      and\n        /* \"#utility.yul\":3928:3966   */\n      swap1\n      pop\n        /* \"#utility.yul\":3870:3972   */\n      swap2\n      swap1\n      pop\n      jump\t// out\n        /* \"#utility.yul\":3978:4158   */\n    tag_52:\n        /* \"#utility.yul\":4026:4103   */\n      0x4e487b7100000000000000000000000000000000000000000000000000000000\n        /* \"#utility.yul\":4023:4024   */\n      0x00\n        /* \"#utility.yul\":4016:4104   */\n      mstore\n        /* \"#utility.yul\":4123:4127   */\n      0x41\n        /* \"#utility.yul\":4120:4121   */\n      0x04\n        /* \"#utility.yul\":4113:4128   */\n      mstore\n        /* \"#utility.yul\":4147:4151   */\n      0x24\n        /* \"#utility.yul\":4144:4145   */\n      0x00\n        /* \"#utility.yul\":4137:4152   */\n      revert\n        /* \"#utility.yul\":4164:4445   */\n    tag_53:\n        /* \"#utility.yul\":4247:4274   */\n      tag_108\n        /* \"#utility.yul\":4269:4273   */\n      dup3\n        /* \"#utility.yul\":4247:4274   */\n      tag_51\n      jump\t// in\n    tag_108:\n        /* \"#utility.yul\":4239:4245   */\n      dup2\n        /* \"#utility.yul\":4235:4275   */\n      add\n        /* \"#utility.yul\":4377:4383   */\n      dup2\n        /* \"#utility.yul\":4365:4375   */\n      dup2\n        /* \"#utility.yul\":4362:4384   */\n      lt\n        /* \"#utility.yul\":4341:4359   */\n      0xffffffffffffffff\n        /* \"#utility.yul\":4329:4339   */\n      dup3\n        /* \"#utility.yul\":4326:4360   */\n      gt\n        /* \"#utility.yul\":4323:4385   */\n      or\n        /* \"#utility.yul\":4320:4408   */\n      iszero\n      tag_109\n      jumpi\n        /* \"#utility.yul\":4388:4406   */\n      tag_110\n      tag_52\n      jump\t// in\n    tag_110:\n        /* \"#utility.yul\":4320:4408   */\n    tag_109:\n        /* \"#utility.yul\":4428:4438   */\n      dup1\n        /* \"#utility.yul\":4424:4426   */\n      0x40\n        /* \"#utility.yul\":4417:4439   */\n      mstore\n        /* \"#utility.yul\":4207:4445   */\n      pop\n        /* \"#utility.yul\":4164:4445   */\n      pop\n      pop\n      jump\t// out\n        /* \"#utility.yul\":4451:4580   */\n    tag_54:\n        /* \"#utility.yul\":4485:4491   */\n      0x00\n        /* \"#utility.yul\":4512:4532   */\n      tag_112\n      tag_33\n      jump\t// in\n    tag_112:\n        /* \"#utility.yul\":4502:4532   */\n      swap1\n      pop\n        /* \"#utility.yul\":4541:4574   */\n      tag_113\n        /* \"#utility.yul\":4569:4573   */\n      dup3\n        /* \"#utility.yul\":4561:4567   */\n      dup3\n        /* \"#utility.yul\":4541:4574   */\n      tag_53\n      jump\t// in\n    tag_113:\n        /* \"#utility.yul\":4451:4580   */\n      swap2\n      swap1\n      pop\n      jump\t// out\n        /* \"#utility.yul\":4586:4894   */\n    tag_55:\n        /* \"#utility.yul\":4648:4652   */\n      0x00\n        /* \"#utility.yul\":4738:4756   */\n      0xffffffffffffffff\n        /* \"#utility.yul\":4730:4736   */\n      dup3\n        /* \"#utility.yul\":4727:4757   */\n      gt\n        /* \"#utility.yul\":4724:4780   */\n      iszero\n      tag_115\n      jumpi\n        /* \"#utility.yul\":4760:4778   */\n      tag_116\n      tag_52\n      jump\t// in\n    tag_116:\n        /* \"#utility.yul\":4724:4780   */\n    tag_115:\n        /* \"#utility.yul\":4798:4827   */\n      tag_117\n        /* \"#utility.yul\":4820:4826   */\n      dup3\n        /* \"#utility.yul\":4798:4827   */\n      tag_51\n      jump\t// in\n    tag_117:\n        /* \"#utility.yul\":4790:4827   */\n      swap1\n      pop\n        /* \"#utility.yul\":4882:4886   */\n      0x20\n        /* \"#utility.yul\":4876:4880   */\n      dup2\n        /* \"#utility.yul\":4872:4887   */\n      add\n        /* \"#utility.yul\":4864:4887   */\n      swap1\n      pop\n        /* \"#utility.yul\":4586:4894   */\n      swap2\n      swap1\n      pop\n      jump\t// out\n        /* \"#utility.yul\":4900:5054   */\n    tag_56:\n        /* \"#utility.yul\":4984:4990   */\n      dup3\n        /* \"#utility.yul\":4979:4982   */\n      dup2\n        /* \"#utility.yul\":4974:4977   */\n      dup4\n        /* \"#utility.yul\":4961:4991   */\n      calldatacopy\n        /* \"#utility.yul\":5046:5047   */\n      0x00\n        /* \"#utility.yul\":5037:5043   */\n      dup4\n        /* \"#utility.yul\":5032:5035   */\n      dup4\n        /* \"#utility.yul\":5028:5044   */\n      add\n        /* \"#utility.yul\":5021:5048   */\n      mstore\n        /* \"#utility.yul\":4900:5054   */\n      pop\n      pop\n      pop\n      jump\t// out\n        /* \"#utility.yul\":5060:5472   */\n    tag_57:\n        /* \"#utility.yul\":5138:5143   */\n      0x00\n        /* \"#utility.yul\":5163:5229   */\n      tag_120\n        /* \"#utility.yul\":5179:5228   */\n      tag_121\n        /* \"#utility.yul\":5221:5227   */\n      dup5\n        /* \"#utility.yul\":5179:5228   */\n      tag_55\n      jump\t// in\n    tag_121:\n        /* \"#utility.yul\":5163:5229   */\n      tag_54\n      jump\t// in\n    tag_120:\n        /* \"#utility.yul\":5154:5229   */\n      swap1\n      pop\n        /* \"#utility.yul\":5252:5258   */\n      dup3\n        /* \"#utility.yul\":5245:5250   */\n      dup2\n        /* \"#utility.yul\":5238:5259   */\n      mstore\n        /* \"#utility.yul\":5290:5294   */\n      0x20\n        /* \"#utility.yul\":5283:5288   */\n      dup2\n        /* \"#utility.yul\":5279:5295   */\n      add\n        /* \"#utility.yul\":5328:5331   */\n      dup5\n        /* \"#utility.yul\":5319:5325   */\n      dup5\n        /* \"#utility.yul\":5314:5317   */\n      dup5\n        /* \"#utility.yul\":5310:5326   */\n      add\n        /* \"#utility.yul\":5307:5332   */\n      gt\n        /* \"#utility.yul\":5304:5416   */\n      iszero\n      tag_122\n      jumpi\n        /* \"#utility.yul\":5335:5414   */\n      tag_123\n      tag_50\n      jump\t// in\n    tag_123:\n        /* \"#utility.yul\":5304:5416   */\n    tag_122:\n        /* \"#utility.yul\":5425:5466   */\n      tag_124\n        /* \"#utility.yul\":5459:5465   */\n      dup5\n        /* \"#utility.yul\":5454:5457   */\n      dup3\n        /* \"#utility.yul\":5449:5452   */\n      dup6\n        /* \"#utility.yul\":5425:5466   */\n      tag_56\n      jump\t// in\n    tag_124:\n        /* \"#utility.yul\":5144:5472   */\n      pop\n        /* \"#utility.yul\":5060:5472   */\n      swap4\n      swap3\n      pop\n      pop\n      pop\n      jump\t// out\n        /* \"#utility.yul\":5492:5832   */\n    tag_58:\n        /* \"#utility.yul\":5548:5553   */\n      0x00\n        /* \"#utility.yul\":5597:5600   */\n      dup3\n        /* \"#utility.yul\":5590:5594   */\n      0x1f\n        /* \"#utility.yul\":5582:5588   */\n      dup4\n        /* \"#utility.yul\":5578:5595   */\n      add\n        /* \"#utility.yul\":5574:5601   */\n      slt\n        /* \"#utility.yul\":5564:5686   */\n      tag_126\n      jumpi\n        /* \"#utility.yul\":5605:5684   */\n      tag_127\n      tag_49\n      jump\t// in\n    tag_127:\n        /* \"#utility.yul\":5564:5686   */\n    tag_126:\n        /* \"#utility.yul\":5722:5728   */\n      dup2\n        /* \"#utility.yul\":5709:5729   */\n      calldataload\n        /* \"#utility.yul\":5747:5826   */\n      tag_128\n        /* \"#utility.yul\":5822:5825   */\n      dup5\n        /* \"#utility.yul\":5814:5820   */\n      dup3\n        /* \"#utility.yul\":5807:5811   */\n      0x20\n        /* \"#utility.yul\":5799:5805   */\n      dup7\n        /* \"#utility.yul\":5795:5812   */\n      add\n        /* \"#utility.yul\":5747:5826   */\n      tag_57\n      jump\t// in\n    tag_128:\n        /* \"#utility.yul\":5738:5826   */\n      swap2\n      pop\n        /* \"#utility.yul\":5554:5832   */\n      pop\n        /* \"#utility.yul\":5492:5832   */\n      swap3\n      swap2\n      pop\n      pop\n      jump\t// out\n        /* \"#utility.yul\":5838:6672   */\n    tag_18:\n        /* \"#utility.yul\":5926:5932   */\n      0x00\n        /* \"#utility.yul\":5934:5940   */\n      dup1\n        /* \"#utility.yul\":5983:5985   */\n      0x40\n        /* \"#utility.yul\":5971:5980   */\n      dup4\n        /* \"#utility.yul\":5962:5969   */\n      dup6\n        /* \"#utility.yul\":5958:5981   */\n      sub\n        /* \"#utility.yul\":5954:5986   */\n      slt\n        /* \"#utility.yul\":5951:6070   */\n      iszero\n      tag_130\n      jumpi\n        /* \"#utility.yul\":5989:6068   */\n      tag_131\n      tag_34\n      jump\t// in\n    tag_131:\n        /* \"#utility.yul\":5951:6070   */\n    tag_130:\n        /* \"#utility.yul\":6137:6138   */\n      0x00\n        /* \"#utility.yul\":6126:6135   */\n      dup4\n        /* \"#utility.yul\":6122:6139   */\n      add\n        /* \"#utility.yul\":6109:6140   */\n      calldataload\n        /* \"#utility.yul\":6167:6185   */\n      0xffffffffffffffff\n        /* \"#utility.yul\":6159:6165   */\n      dup2\n        /* \"#utility.yul\":6156:6186   */\n      gt\n        /* \"#utility.yul\":6153:6270   */\n      iszero\n      tag_132\n      jumpi\n        /* \"#utility.yul\":6189:6268   */\n      tag_133\n      tag_35\n      jump\t// in\n    tag_133:\n        /* \"#utility.yul\":6153:6270   */\n    tag_132:\n        /* \"#utility.yul\":6294:6357   */\n      tag_134\n        /* \"#utility.yul\":6349:6356   */\n      dup6\n        /* \"#utility.yul\":6340:6346   */\n      dup3\n        /* \"#utility.yul\":6329:6338   */\n      dup7\n        /* \"#utility.yul\":6325:6347   */\n      add\n        /* \"#utility.yul\":6294:6357   */\n      tag_58\n      jump\t// in\n    tag_134:\n        /* \"#utility.yul\":6284:6357   */\n      swap3\n      pop\n        /* \"#utility.yul\":6080:6367   */\n      pop\n        /* \"#utility.yul\":6434:6436   */\n      0x20\n        /* \"#utility.yul\":6423:6432   */\n      dup4\n        /* \"#utility.yul\":6419:6437   */\n      add\n        /* \"#utility.yul\":6406:6438   */\n      calldataload\n        /* \"#utility.yul\":6465:6483   */\n      0xffffffffffffffff\n        /* \"#utility.yul\":6457:6463   */\n      dup2\n        /* \"#utility.yul\":6454:6484   */\n      gt\n        /* \"#utility.yul\":6451:6568   */\n      iszero\n      tag_135\n      jumpi\n        /* \"#utility.yul\":6487:6566   */\n      tag_136\n      tag_35\n      jump\t// in\n    tag_136:\n        /* \"#utility.yul\":6451:6568   */\n    tag_135:\n        /* \"#utility.yul\":6592:6655   */\n      tag_137\n        /* \"#utility.yul\":6647:6654   */\n      dup6\n        /* \"#utility.yul\":6638:6644   */\n      dup3\n        /* \"#utility.yul\":6627:6636   */\n      dup7\n        /* \"#utility.yul\":6623:6645   */\n      add\n        /* \"#utility.yul\":6592:6655   */\n      tag_58\n      jump\t// in\n    tag_137:\n        /* \"#utility.yul\":6582:6655   */\n      swap2\n      pop\n        /* \"#utility.yul\":6377:6665   */\n      pop\n        /* \"#utility.yul\":5838:6672   */\n      swap3\n      pop\n      swap3\n      swap1\n      pop\n      jump\t// out\n        /* \"#utility.yul\":6678:6777   */\n    tag_59:\n        /* \"#utility.yul\":6730:6736   */\n      0x00\n        /* \"#utility.yul\":6764:6769   */\n      dup2\n        /* \"#utility.yul\":6758:6770   */\n      mload\n        /* \"#utility.yul\":6748:6770   */\n      swap1\n      pop\n        /* \"#utility.yul\":6678:6777   */\n      swap2\n      swap1\n      pop\n      jump\t// out\n        /* \"#utility.yul\":6783:6952   */\n    tag_60:\n        /* \"#utility.yul\":6867:6878   */\n      0x00\n        /* \"#utility.yul\":6901:6907   */\n      dup3\n        /* \"#utility.yul\":6896:6899   */\n      dup3\n        /* \"#utility.yul\":6889:6908   */\n      mstore\n        /* \"#utility.yul\":6941:6945   */\n      0x20\n        /* \"#utility.yul\":6936:6939   */\n      dup3\n        /* \"#utility.yul\":6932:6946   */\n      add\n        /* \"#utility.yul\":6917:6946   */\n      swap1\n      pop\n        /* \"#utility.yul\":6783:6952   */\n      swap3\n      swap2\n      pop\n      pop\n      jump\t// out\n        /* \"#utility.yul\":6958:7265   */\n    tag_61:\n        /* \"#utility.yul\":7026:7027   */\n      0x00\n        /* \"#utility.yul\":7036:7149   */\n    tag_141:\n        /* \"#utility.yul\":7050:7056   */\n      dup4\n        /* \"#utility.yul\":7047:7048   */\n      dup2\n        /* \"#utility.yul\":7044:7057   */\n      lt\n        /* \"#utility.yul\":7036:7149   */\n      iszero\n      tag_143\n      jumpi\n        /* \"#utility.yul\":7135:7136   */\n      dup1\n        /* \"#utility.yul\":7130:7133   */\n      dup3\n        /* \"#utility.yul\":7126:7137   */\n      add\n        /* \"#utility.yul\":7120:7138   */\n      mload\n        /* \"#utility.yul\":7116:7117   */\n      dup2\n        /* \"#utility.yul\":7111:7114   */\n      dup5\n        /* \"#utility.yul\":7107:7118   */\n      add\n        /* \"#utility.yul\":7100:7139   */\n      mstore\n        /* \"#utility.yul\":7072:7074   */\n      0x20\n        /* \"#utility.yul\":7069:7070   */\n      dup2\n        /* \"#utility.yul\":7065:7075   */\n      add\n        /* \"#utility.yul\":7060:7075   */\n      swap1\n      pop\n        /* \"#utility.yul\":7036:7149   */\n      jump(tag_141)\n    tag_143:\n        /* \"#utility.yul\":7167:7173   */\n      dup4\n        /* \"#utility.yul\":7164:7165   */\n      dup2\n        /* \"#utility.yul\":7161:7174   */\n      gt\n        /* \"#utility.yul\":7158:7259   */\n      iszero\n      tag_144\n      jumpi\n        /* \"#utility.yul\":7247:7248   */\n      0x00\n        /* \"#utility.yul\":7238:7244   */\n      dup5\n        /* \"#utility.yul\":7233:7236   */\n      dup5\n        /* \"#utility.yul\":7229:7245   */\n      add\n        /* \"#utility.yul\":7222:7249   */\n      mstore\n        /* \"#utility.yul\":7158:7259   */\n    tag_144:\n        /* \"#utility.yul\":7007:7265   */\n      pop\n        /* \"#utility.yul\":6958:7265   */\n      pop\n      pop\n      pop\n      jump\t// out\n        /* \"#utility.yul\":7271:7635   */\n    tag_62:\n        /* \"#utility.yul\":7359:7362   */\n      0x00\n        /* \"#utility.yul\":7387:7426   */\n      tag_146\n        /* \"#utility.yul\":7420:7425   */\n      dup3\n        /* \"#utility.yul\":7387:7426   */\n      tag_59\n      jump\t// in\n    tag_146:\n        /* \"#utility.yul\":7442:7513   */\n      tag_147\n        /* \"#utility.yul\":7506:7512   */\n      dup2\n        /* \"#utility.yul\":7501:7504   */\n      dup6\n        /* \"#utility.yul\":7442:7513   */\n      tag_60\n      jump\t// in\n    tag_147:\n        /* \"#utility.yul\":7435:7513   */\n      swap4\n      pop\n        /* \"#utility.yul\":7522:7574   */\n      tag_148\n        /* \"#utility.yul\":7567:7573   */\n      dup2\n        /* \"#utility.yul\":7562:7565   */\n      dup6\n        /* \"#utility.yul\":7555:7559   */\n      0x20\n        /* \"#utility.yul\":7548:7553   */\n      dup7\n        /* \"#utility.yul\":7544:7560   */\n      add\n        /* \"#utility.yul\":7522:7574   */\n      tag_61\n      jump\t// in\n    tag_148:\n        /* \"#utility.yul\":7599:7628   */\n      tag_149\n        /* \"#utility.yul\":7621:7627   */\n      dup2\n        /* \"#utility.yul\":7599:7628   */\n      tag_51\n      jump\t// in\n    tag_149:\n        /* \"#utility.yul\":7594:7597   */\n      dup5\n        /* \"#utility.yul\":7590:7629   */\n      add\n        /* \"#utility.yul\":7583:7629   */\n      swap2\n      pop\n        /* \"#utility.yul\":7363:7635   */\n      pop\n        /* \"#utility.yul\":7271:7635   */\n      swap3\n      swap2\n      pop\n      pop\n      jump\t// out\n        /* \"#utility.yul\":7641:8265   */\n    tag_30:\n        /* \"#utility.yul\":7830:7834   */\n      0x00\n        /* \"#utility.yul\":7868:7870   */\n      0x60\n        /* \"#utility.yul\":7857:7866   */\n      dup3\n        /* \"#utility.yul\":7853:7871   */\n      add\n        /* \"#utility.yul\":7845:7871   */\n      swap1\n      pop\n        /* \"#utility.yul\":7881:7952   */\n      tag_151\n        /* \"#utility.yul\":7949:7950   */\n      0x00\n        /* \"#utility.yul\":7938:7947   */\n      dup4\n        /* \"#utility.yul\":7934:7951   */\n      add\n        /* \"#utility.yul\":7925:7931   */\n      dup7\n        /* \"#utility.yul\":7881:7952   */\n      tag_41\n      jump\t// in\n    tag_151:\n        /* \"#utility.yul\":7999:8008   */\n      dup2\n        /* \"#utility.yul\":7993:7997   */\n      dup2\n        /* \"#utility.yul\":7989:8009   */\n      sub\n        /* \"#utility.yul\":7984:7986   */\n      0x20\n        /* \"#utility.yul\":7973:7982   */\n      dup4\n        /* \"#utility.yul\":7969:7987   */\n      add\n        /* \"#utility.yul\":7962:8010   */\n      mstore\n        /* \"#utility.yul\":8027:8105   */\n      tag_152\n        /* \"#utility.yul\":8100:8104   */\n      dup2\n        /* \"#utility.yul\":8091:8097   */\n      dup6\n        /* \"#utility.yul\":8027:8105   */\n      tag_62\n      jump\t// in\n    tag_152:\n        /* \"#utility.yul\":8019:8105   */\n      swap1\n      pop\n        /* \"#utility.yul\":8152:8161   */\n      dup2\n        /* \"#utility.yul\":8146:8150   */\n      dup2\n        /* \"#utility.yul\":8142:8162   */\n      sub\n        /* \"#utility.yul\":8137:8139   */\n      0x40\n        /* \"#utility.yul\":8126:8135   */\n      dup4\n        /* \"#utility.yul\":8122:8140   */\n      add\n        /* \"#utility.yul\":8115:8163   */\n      mstore\n        /* \"#utility.yul\":8180:8258   */\n      tag_153\n        /* \"#utility.yul\":8253:8257   */\n      dup2\n        /* \"#utility.yul\":8244:8250   */\n      dup5\n        /* \"#utility.yul\":8180:8258   */\n      tag_62\n      jump\t// in\n    tag_153:\n        /* \"#utility.yul\":8172:8258   */\n      swap1\n      pop\n        /* \"#utility.yul\":7641:8265   */\n      swap5\n      swap4\n      pop\n      pop\n      pop\n      pop\n      jump\t// out\n    stop\n\n    sub_0: assembly {\n            /* \"Story.sol\":635:2955  contract Story {... */\n          mstore(0x40, 0x80)\n            /* \"Story.sol\":1008:1299  constructor(address _mainAuthor, string memory _usernameAndPassword, string memory _pem) {... */\n          callvalue\n          dup1\n          iszero\n          tag_1\n          jumpi\n          0x00\n          dup1\n          revert\n        tag_1:\n          pop\n          mload(0x40)\n          sub(codesize, bytecodeSize)\n          dup1\n          bytecodeSize\n          dup4\n          codecopy\n          dup2\n          dup2\n          add\n          0x40\n          mstore\n          dup2\n          add\n          swap1\n          tag_2\n          swap2\n          swap1\n          tag_3\n          jump\t// in\n        tag_2:\n            /* \"Story.sol\":1142:1146  true */\n          0x01\n            /* \"Story.sol\":1108:1126  authorsForSolidity */\n          0x00\n            /* \"Story.sol\":1108:1139  authorsForSolidity[_mainAuthor] */\n          dup1\n            /* \"Story.sol\":1127:1138  _mainAuthor */\n          dup6\n            /* \"Story.sol\":1108:1139  authorsForSolidity[_mainAuthor] */\n          0xffffffffffffffffffffffffffffffffffffffff\n          and\n          0xffffffffffffffffffffffffffffffffffffffff\n          and\n          dup2\n          mstore\n          0x20\n          add\n          swap1\n          dup2\n          mstore\n          0x20\n          add\n          0x00\n          keccak256\n          0x00\n            /* \"Story.sol\":1108:1146  authorsForSolidity[_mainAuthor] = true */\n          0x0100\n          exp\n          dup2\n          sload\n          dup2\n          0xff\n          mul\n          not\n          and\n          swap1\n          dup4\n          iszero\n          iszero\n          mul\n          or\n          swap1\n          sstore\n          pop\n            /* \"Story.sol\":1157:1172  authorsForReact */\n          0x01\n            /* \"Story.sol\":1178:1189  _mainAuthor */\n          dup4\n            /* \"Story.sol\":1157:1190  authorsForReact.push(_mainAuthor) */\n          swap1\n          dup1\n          0x01\n          dup2\n          sload\n          add\n          dup1\n          dup3\n          sstore\n          dup1\n          swap2\n          pop\n          pop\n          0x01\n          swap1\n          sub\n          swap1\n          0x00\n          mstore\n          keccak256(0x00, 0x20)\n          add\n          0x00\n          swap1\n          swap2\n          swap1\n          swap2\n          swap1\n          swap2\n          0x0100\n          exp\n          dup2\n          sload\n          dup2\n          0xffffffffffffffffffffffffffffffffffffffff\n          mul\n          not\n          and\n          swap1\n          dup4\n          0xffffffffffffffffffffffffffffffffffffffff\n          and\n          mul\n          or\n          swap1\n          sstore\n          pop\n            /* \"Story.sol\":1212:1217  false */\n          0x00\n            /* \"Story.sol\":1201:1209  reported */\n          0x02\n          0x00\n            /* \"Story.sol\":1201:1217  reported = false */\n          0x0100\n          exp\n          dup2\n          sload\n          dup2\n          0xff\n          mul\n          not\n          and\n          swap1\n          dup4\n          iszero\n          iszero\n          mul\n          or\n          swap1\n          sstore\n          pop\n            /* \"Story.sol\":1250:1270  _usernameAndPassword */\n          dup2\n            /* \"Story.sol\":1228:1247  usernameAndPassword */\n          0x03\n            /* \"Story.sol\":1228:1270  usernameAndPassword = _usernameAndPassword */\n          swap1\n          dup1\n          mload\n          swap1\n          0x20\n          add\n          swap1\n          tag_7\n          swap3\n          swap2\n          swap1\n          tag_8\n          jump\t// in\n        tag_7:\n          pop\n            /* \"Story.sol\":1287:1291  _pem */\n          dup1\n            /* \"Story.sol\":1281:1284  pem */\n          0x04\n            /* \"Story.sol\":1281:1291  pem = _pem */\n          swap1\n          dup1\n          mload\n          swap1\n          0x20\n          add\n          swap1\n          tag_9\n          swap3\n          swap2\n          swap1\n          tag_8\n          jump\t// in\n        tag_9:\n          pop\n            /* \"Story.sol\":1008:1299  constructor(address _mainAuthor, string memory _usernameAndPassword, string memory _pem) {... */\n          pop\n          pop\n          pop\n            /* \"Story.sol\":635:2955  contract Story {... */\n          jump(tag_10)\n        tag_8:\n          dup3\n          dup1\n          sload\n          tag_11\n          swap1\n          tag_12\n          jump\t// in\n        tag_11:\n          swap1\n          0x00\n          mstore\n          keccak256(0x00, 0x20)\n          swap1\n          0x1f\n          add\n          0x20\n          swap1\n          div\n          dup2\n          add\n          swap3\n          dup3\n          tag_14\n          jumpi\n          0x00\n          dup6\n          sstore\n          jump(tag_13)\n        tag_14:\n          dup3\n          0x1f\n          lt\n          tag_15\n          jumpi\n          dup1\n          mload\n          not(0xff)\n          and\n          dup4\n          dup1\n          add\n          or\n          dup6\n          sstore\n          jump(tag_13)\n        tag_15:\n          dup3\n          dup1\n          add\n          0x01\n          add\n          dup6\n          sstore\n          dup3\n          iszero\n          tag_13\n          jumpi\n          swap2\n          dup3\n          add\n        tag_16:\n          dup3\n          dup2\n          gt\n          iszero\n          tag_17\n          jumpi\n          dup3\n          mload\n          dup3\n          sstore\n          swap2\n          0x20\n          add\n          swap2\n          swap1\n          0x01\n          add\n          swap1\n          jump(tag_16)\n        tag_17:\n        tag_13:\n          pop\n          swap1\n          pop\n          tag_18\n          swap2\n          swap1\n          tag_19\n          jump\t// in\n        tag_18:\n          pop\n          swap1\n          jump\t// out\n        tag_19:\n        tag_20:\n          dup1\n          dup3\n          gt\n          iszero\n          tag_21\n          jumpi\n          0x00\n          dup2\n          0x00\n          swap1\n          sstore\n          pop\n          0x01\n          add\n          jump(tag_20)\n        tag_21:\n          pop\n          swap1\n          jump\t// out\n            /* \"#utility.yul\":7:82   */\n        tag_22:\n            /* \"#utility.yul\":40:46   */\n          0x00\n            /* \"#utility.yul\":73:75   */\n          0x40\n            /* \"#utility.yul\":67:76   */\n          mload\n            /* \"#utility.yul\":57:76   */\n          swap1\n          pop\n            /* \"#utility.yul\":7:82   */\n          swap1\n          jump\t// out\n            /* \"#utility.yul\":88:205   */\n        tag_23:\n            /* \"#utility.yul\":197:198   */\n          0x00\n            /* \"#utility.yul\":194:195   */\n          dup1\n            /* \"#utility.yul\":187:199   */\n          revert\n            /* \"#utility.yul\":211:328   */\n        tag_24:\n            /* \"#utility.yul\":320:321   */\n          0x00\n            /* \"#utility.yul\":317:318   */\n          dup1\n            /* \"#utility.yul\":310:322   */\n          revert\n            /* \"#utility.yul\":334:460   */\n        tag_25:\n            /* \"#utility.yul\":371:378   */\n          0x00\n            /* \"#utility.yul\":411:453   */\n          0xffffffffffffffffffffffffffffffffffffffff\n            /* \"#utility.yul\":404:409   */\n          dup3\n            /* \"#utility.yul\":400:454   */\n          and\n            /* \"#utility.yul\":389:454   */\n          swap1\n          pop\n            /* \"#utility.yul\":334:460   */\n          swap2\n          swap1\n          pop\n          jump\t// out\n            /* \"#utility.yul\":466:562   */\n        tag_26:\n            /* \"#utility.yul\":503:510   */\n          0x00\n            /* \"#utility.yul\":532:556   */\n          tag_46\n            /* \"#utility.yul\":550:555   */\n          dup3\n            /* \"#utility.yul\":532:556   */\n          tag_25\n          jump\t// in\n        tag_46:\n            /* \"#utility.yul\":521:556   */\n          swap1\n          pop\n            /* \"#utility.yul\":466:562   */\n          swap2\n          swap1\n          pop\n          jump\t// out\n            /* \"#utility.yul\":568:690   */\n        tag_27:\n            /* \"#utility.yul\":641:665   */\n          tag_48\n            /* \"#utility.yul\":659:664   */\n          dup2\n            /* \"#utility.yul\":641:665   */\n          tag_26\n          jump\t// in\n        tag_48:\n            /* \"#utility.yul\":634:639   */\n          dup2\n            /* \"#utility.yul\":631:666   */\n          eq\n            /* \"#utility.yul\":621:684   */\n          tag_49\n          jumpi\n            /* \"#utility.yul\":680:681   */\n          0x00\n            /* \"#utility.yul\":677:678   */\n          dup1\n            /* \"#utility.yul\":670:682   */\n          revert\n            /* \"#utility.yul\":621:684   */\n        tag_49:\n            /* \"#utility.yul\":568:690   */\n          pop\n          jump\t// out\n            /* \"#utility.yul\":696:839   */\n        tag_28:\n            /* \"#utility.yul\":753:758   */\n          0x00\n            /* \"#utility.yul\":784:790   */\n          dup2\n            /* \"#utility.yul\":778:791   */\n          mload\n            /* \"#utility.yul\":769:791   */\n          swap1\n          pop\n            /* \"#utility.yul\":800:833   */\n          tag_51\n            /* \"#utility.yul\":827:832   */\n          dup2\n            /* \"#utility.yul\":800:833   */\n          tag_27\n          jump\t// in\n        tag_51:\n            /* \"#utility.yul\":696:839   */\n          swap3\n          swap2\n          pop\n          pop\n          jump\t// out\n            /* \"#utility.yul\":845:962   */\n        tag_29:\n            /* \"#utility.yul\":954:955   */\n          0x00\n            /* \"#utility.yul\":951:952   */\n          dup1\n            /* \"#utility.yul\":944:956   */\n          revert\n            /* \"#utility.yul\":968:1085   */\n        tag_30:\n            /* \"#utility.yul\":1077:1078   */\n          0x00\n            /* \"#utility.yul\":1074:1075   */\n          dup1\n            /* \"#utility.yul\":1067:1079   */\n          revert\n            /* \"#utility.yul\":1091:1193   */\n        tag_31:\n            /* \"#utility.yul\":1132:1138   */\n          0x00\n            /* \"#utility.yul\":1183:1185   */\n          0x1f\n            /* \"#utility.yul\":1179:1186   */\n          not\n            /* \"#utility.yul\":1174:1176   */\n          0x1f\n            /* \"#utility.yul\":1167:1172   */\n          dup4\n            /* \"#utility.yul\":1163:1177   */\n          add\n            /* \"#utility.yul\":1159:1187   */\n          and\n            /* \"#utility.yul\":1149:1187   */\n          swap1\n          pop\n            /* \"#utility.yul\":1091:1193   */\n          swap2\n          swap1\n          pop\n          jump\t// out\n            /* \"#utility.yul\":1199:1379   */\n        tag_32:\n            /* \"#utility.yul\":1247:1324   */\n          0x4e487b7100000000000000000000000000000000000000000000000000000000\n            /* \"#utility.yul\":1244:1245   */\n          0x00\n            /* \"#utility.yul\":1237:1325   */\n          mstore\n            /* \"#utility.yul\":1344:1348   */\n          0x41\n            /* \"#utility.yul\":1341:1342   */\n          0x04\n            /* \"#utility.yul\":1334:1349   */\n          mstore\n            /* \"#utility.yul\":1368:1372   */\n          0x24\n            /* \"#utility.yul\":1365:1366   */\n          0x00\n            /* \"#utility.yul\":1358:1373   */\n          revert\n            /* \"#utility.yul\":1385:1666   */\n        tag_33:\n            /* \"#utility.yul\":1468:1495   */\n          tag_57\n            /* \"#utility.yul\":1490:1494   */\n          dup3\n            /* \"#utility.yul\":1468:1495   */\n          tag_31\n          jump\t// in\n        tag_57:\n            /* \"#utility.yul\":1460:1466   */\n          dup2\n            /* \"#utility.yul\":1456:1496   */\n          add\n            /* \"#utility.yul\":1598:1604   */\n          dup2\n            /* \"#utility.yul\":1586:1596   */\n          dup2\n            /* \"#utility.yul\":1583:1605   */\n          lt\n            /* \"#utility.yul\":1562:1580   */\n          0xffffffffffffffff\n            /* \"#utility.yul\":1550:1560   */\n          dup3\n            /* \"#utility.yul\":1547:1581   */\n          gt\n            /* \"#utility.yul\":1544:1606   */\n          or\n            /* \"#utility.yul\":1541:1629   */\n          iszero\n          tag_58\n          jumpi\n            /* \"#utility.yul\":1609:1627   */\n          tag_59\n          tag_32\n          jump\t// in\n        tag_59:\n            /* \"#utility.yul\":1541:1629   */\n        tag_58:\n            /* \"#utility.yul\":1649:1659   */\n          dup1\n            /* \"#utility.yul\":1645:1647   */\n          0x40\n            /* \"#utility.yul\":1638:1660   */\n          mstore\n            /* \"#utility.yul\":1428:1666   */\n          pop\n            /* \"#utility.yul\":1385:1666   */\n          pop\n          pop\n          jump\t// out\n            /* \"#utility.yul\":1672:1801   */\n        tag_34:\n            /* \"#utility.yul\":1706:1712   */\n          0x00\n            /* \"#utility.yul\":1733:1753   */\n          tag_61\n          tag_22\n          jump\t// in\n        tag_61:\n            /* \"#utility.yul\":1723:1753   */\n          swap1\n          pop\n            /* \"#utility.yul\":1762:1795   */\n          tag_62\n            /* \"#utility.yul\":1790:1794   */\n          dup3\n            /* \"#utility.yul\":1782:1788   */\n          dup3\n            /* \"#utility.yul\":1762:1795   */\n          tag_33\n          jump\t// in\n        tag_62:\n            /* \"#utility.yul\":1672:1801   */\n          swap2\n          swap1\n          pop\n          jump\t// out\n            /* \"#utility.yul\":1807:2115   */\n        tag_35:\n            /* \"#utility.yul\":1869:1873   */\n          0x00\n            /* \"#utility.yul\":1959:1977   */\n          0xffffffffffffffff\n            /* \"#utility.yul\":1951:1957   */\n          dup3\n            /* \"#utility.yul\":1948:1978   */\n          gt\n            /* \"#utility.yul\":1945:2001   */\n          iszero\n          tag_64\n          jumpi\n            /* \"#utility.yul\":1981:1999   */\n          tag_65\n          tag_32\n          jump\t// in\n        tag_65:\n            /* \"#utility.yul\":1945:2001   */\n        tag_64:\n            /* \"#utility.yul\":2019:2048   */\n          tag_66\n            /* \"#utility.yul\":2041:2047   */\n          dup3\n            /* \"#utility.yul\":2019:2048   */\n          tag_31\n          jump\t// in\n        tag_66:\n            /* \"#utility.yul\":2011:2048   */\n          swap1\n          pop\n            /* \"#utility.yul\":2103:2107   */\n          0x20\n            /* \"#utility.yul\":2097:2101   */\n          dup2\n            /* \"#utility.yul\":2093:2108   */\n          add\n            /* \"#utility.yul\":2085:2108   */\n          swap1\n          pop\n            /* \"#utility.yul\":1807:2115   */\n          swap2\n          swap1\n          pop\n          jump\t// out\n            /* \"#utility.yul\":2121:2428   */\n        tag_36:\n            /* \"#utility.yul\":2189:2190   */\n          0x00\n            /* \"#utility.yul\":2199:2312   */\n        tag_68:\n            /* \"#utility.yul\":2213:2219   */\n          dup4\n            /* \"#utility.yul\":2210:2211   */\n          dup2\n            /* \"#utility.yul\":2207:2220   */\n          lt\n            /* \"#utility.yul\":2199:2312   */\n          iszero\n          tag_70\n          jumpi\n            /* \"#utility.yul\":2298:2299   */\n          dup1\n            /* \"#utility.yul\":2293:2296   */\n          dup3\n            /* \"#utility.yul\":2289:2300   */\n          add\n            /* \"#utility.yul\":2283:2301   */\n          mload\n            /* \"#utility.yul\":2279:2280   */\n          dup2\n            /* \"#utility.yul\":2274:2277   */\n          dup5\n            /* \"#utility.yul\":2270:2281   */\n          add\n            /* \"#utility.yul\":2263:2302   */\n          mstore\n            /* \"#utility.yul\":2235:2237   */\n          0x20\n            /* \"#utility.yul\":2232:2233   */\n          dup2\n            /* \"#utility.yul\":2228:2238   */\n          add\n            /* \"#utility.yul\":2223:2238   */\n          swap1\n          pop\n            /* \"#utility.yul\":2199:2312   */\n          jump(tag_68)\n        tag_70:\n            /* \"#utility.yul\":2330:2336   */\n          dup4\n            /* \"#utility.yul\":2327:2328   */\n          dup2\n            /* \"#utility.yul\":2324:2337   */\n          gt\n            /* \"#utility.yul\":2321:2422   */\n          iszero\n          tag_71\n          jumpi\n            /* \"#utility.yul\":2410:2411   */\n          0x00\n            /* \"#utility.yul\":2401:2407   */\n          dup5\n            /* \"#utility.yul\":2396:2399   */\n          dup5\n            /* \"#utility.yul\":2392:2408   */\n          add\n            /* \"#utility.yul\":2385:2412   */\n          mstore\n            /* \"#utility.yul\":2321:2422   */\n        tag_71:\n            /* \"#utility.yul\":2170:2428   */\n          pop\n            /* \"#utility.yul\":2121:2428   */\n          pop\n          pop\n          pop\n          jump\t// out\n            /* \"#utility.yul\":2434:2855   */\n        tag_37:\n            /* \"#utility.yul\":2523:2528   */\n          0x00\n            /* \"#utility.yul\":2548:2614   */\n          tag_73\n            /* \"#utility.yul\":2564:2613   */\n          tag_74\n            /* \"#utility.yul\":2606:2612   */\n          dup5\n            /* \"#utility.yul\":2564:2613   */\n          tag_35\n          jump\t// in\n        tag_74:\n            /* \"#utility.yul\":2548:2614   */\n          tag_34\n          jump\t// in\n        tag_73:\n            /* \"#utility.yul\":2539:2614   */\n          swap1\n          pop\n            /* \"#utility.yul\":2637:2643   */\n          dup3\n            /* \"#utility.yul\":2630:2635   */\n          dup2\n            /* \"#utility.yul\":2623:2644   */\n          mstore\n            /* \"#utility.yul\":2675:2679   */\n          0x20\n            /* \"#utility.yul\":2668:2673   */\n          dup2\n            /* \"#utility.yul\":2664:2680   */\n          add\n            /* \"#utility.yul\":2713:2716   */\n          dup5\n            /* \"#utility.yul\":2704:2710   */\n          dup5\n            /* \"#utility.yul\":2699:2702   */\n          dup5\n            /* \"#utility.yul\":2695:2711   */\n          add\n            /* \"#utility.yul\":2692:2717   */\n          gt\n            /* \"#utility.yul\":2689:2801   */\n          iszero\n          tag_75\n          jumpi\n            /* \"#utility.yul\":2720:2799   */\n          tag_76\n          tag_30\n          jump\t// in\n        tag_76:\n            /* \"#utility.yul\":2689:2801   */\n        tag_75:\n            /* \"#utility.yul\":2810:2849   */\n          tag_77\n            /* \"#utility.yul\":2842:2848   */\n          dup5\n            /* \"#utility.yul\":2837:2840   */\n          dup3\n            /* \"#utility.yul\":2832:2835   */\n          dup6\n            /* \"#utility.yul\":2810:2849   */\n          tag_36\n          jump\t// in\n        tag_77:\n            /* \"#utility.yul\":2529:2855   */\n          pop\n            /* \"#utility.yul\":2434:2855   */\n          swap4\n          swap3\n          pop\n          pop\n          pop\n          jump\t// out\n            /* \"#utility.yul\":2875:3230   */\n        tag_38:\n            /* \"#utility.yul\":2942:2947   */\n          0x00\n            /* \"#utility.yul\":2991:2994   */\n          dup3\n            /* \"#utility.yul\":2984:2988   */\n          0x1f\n            /* \"#utility.yul\":2976:2982   */\n          dup4\n            /* \"#utility.yul\":2972:2989   */\n          add\n            /* \"#utility.yul\":2968:2995   */\n          slt\n            /* \"#utility.yul\":2958:3080   */\n          tag_79\n          jumpi\n            /* \"#utility.yul\":2999:3078   */\n          tag_80\n          tag_29\n          jump\t// in\n        tag_80:\n            /* \"#utility.yul\":2958:3080   */\n        tag_79:\n            /* \"#utility.yul\":3109:3115   */\n          dup2\n            /* \"#utility.yul\":3103:3116   */\n          mload\n            /* \"#utility.yul\":3134:3224   */\n          tag_81\n            /* \"#utility.yul\":3220:3223   */\n          dup5\n            /* \"#utility.yul\":3212:3218   */\n          dup3\n            /* \"#utility.yul\":3205:3209   */\n          0x20\n            /* \"#utility.yul\":3197:3203   */\n          dup7\n            /* \"#utility.yul\":3193:3210   */\n          add\n            /* \"#utility.yul\":3134:3224   */\n          tag_37\n          jump\t// in\n        tag_81:\n            /* \"#utility.yul\":3125:3224   */\n          swap2\n          pop\n            /* \"#utility.yul\":2948:3230   */\n          pop\n            /* \"#utility.yul\":2875:3230   */\n          swap3\n          swap2\n          pop\n          pop\n          jump\t// out\n            /* \"#utility.yul\":3236:4245   */\n        tag_3:\n            /* \"#utility.yul\":3344:3350   */\n          0x00\n            /* \"#utility.yul\":3352:3358   */\n          dup1\n            /* \"#utility.yul\":3360:3366   */\n          0x00\n            /* \"#utility.yul\":3409:3411   */\n          0x60\n            /* \"#utility.yul\":3397:3406   */\n          dup5\n            /* \"#utility.yul\":3388:3395   */\n          dup7\n            /* \"#utility.yul\":3384:3407   */\n          sub\n            /* \"#utility.yul\":3380:3412   */\n          slt\n            /* \"#utility.yul\":3377:3496   */\n          iszero\n          tag_83\n          jumpi\n            /* \"#utility.yul\":3415:3494   */\n          tag_84\n          tag_23\n          jump\t// in\n        tag_84:\n            /* \"#utility.yul\":3377:3496   */\n        tag_83:\n            /* \"#utility.yul\":3535:3536   */\n          0x00\n            /* \"#utility.yul\":3560:3624   */\n          tag_85\n            /* \"#utility.yul\":3616:3623   */\n          dup7\n            /* \"#utility.yul\":3607:3613   */\n          dup3\n            /* \"#utility.yul\":3596:3605   */\n          dup8\n            /* \"#utility.yul\":3592:3614   */\n          add\n            /* \"#utility.yul\":3560:3624   */\n          tag_28\n          jump\t// in\n        tag_85:\n            /* \"#utility.yul\":3550:3624   */\n          swap4\n          pop\n            /* \"#utility.yul\":3506:3634   */\n          pop\n            /* \"#utility.yul\":3694:3696   */\n          0x20\n            /* \"#utility.yul\":3683:3692   */\n          dup5\n            /* \"#utility.yul\":3679:3697   */\n          add\n            /* \"#utility.yul\":3673:3698   */\n          mload\n            /* \"#utility.yul\":3725:3743   */\n          0xffffffffffffffff\n            /* \"#utility.yul\":3717:3723   */\n          dup2\n            /* \"#utility.yul\":3714:3744   */\n          gt\n            /* \"#utility.yul\":3711:3828   */\n          iszero\n          tag_86\n          jumpi\n            /* \"#utility.yul\":3747:3826   */\n          tag_87\n          tag_24\n          jump\t// in\n        tag_87:\n            /* \"#utility.yul\":3711:3828   */\n        tag_86:\n            /* \"#utility.yul\":3852:3926   */\n          tag_88\n            /* \"#utility.yul\":3918:3925   */\n          dup7\n            /* \"#utility.yul\":3909:3915   */\n          dup3\n            /* \"#utility.yul\":3898:3907   */\n          dup8\n            /* \"#utility.yul\":3894:3916   */\n          add\n            /* \"#utility.yul\":3852:3926   */\n          tag_38\n          jump\t// in\n        tag_88:\n            /* \"#utility.yul\":3842:3926   */\n          swap3\n          pop\n            /* \"#utility.yul\":3644:3936   */\n          pop\n            /* \"#utility.yul\":3996:3998   */\n          0x40\n            /* \"#utility.yul\":3985:3994   */\n          dup5\n            /* \"#utility.yul\":3981:3999   */\n          add\n            /* \"#utility.yul\":3975:4000   */\n          mload\n            /* \"#utility.yul\":4027:4045   */\n          0xffffffffffffffff\n            /* \"#utility.yul\":4019:4025   */\n          dup2\n            /* \"#utility.yul\":4016:4046   */\n          gt\n            /* \"#utility.yul\":4013:4130   */\n          iszero\n          tag_89\n          jumpi\n            /* \"#utility.yul\":4049:4128   */\n          tag_90\n          tag_24\n          jump\t// in\n        tag_90:\n            /* \"#utility.yul\":4013:4130   */\n        tag_89:\n            /* \"#utility.yul\":4154:4228   */\n          tag_91\n            /* \"#utility.yul\":4220:4227   */\n          dup7\n            /* \"#utility.yul\":4211:4217   */\n          dup3\n            /* \"#utility.yul\":4200:4209   */\n          dup8\n            /* \"#utility.yul\":4196:4218   */\n          add\n            /* \"#utility.yul\":4154:4228   */\n          tag_38\n          jump\t// in\n        tag_91:\n            /* \"#utility.yul\":4144:4228   */\n          swap2\n          pop\n            /* \"#utility.yul\":3946:4238   */\n          pop\n            /* \"#utility.yul\":3236:4245   */\n          swap3\n          pop\n          swap3\n          pop\n          swap3\n          jump\t// out\n            /* \"#utility.yul\":4251:4431   */\n        tag_39:\n            /* \"#utility.yul\":4299:4376   */\n          0x4e487b7100000000000000000000000000000000000000000000000000000000\n            /* \"#utility.yul\":4296:4297   */\n          0x00\n            /* \"#utility.yul\":4289:4377   */\n          mstore\n            /* \"#utility.yul\":4396:4400   */\n          0x22\n            /* \"#utility.yul\":4393:4394   */\n          0x04\n            /* \"#utility.yul\":4386:4401   */\n          mstore\n            /* \"#utility.yul\":4420:4424   */\n          0x24\n            /* \"#utility.yul\":4417:4418   */\n          0x00\n            /* \"#utility.yul\":4410:4425   */\n          revert\n            /* \"#utility.yul\":4437:4757   */\n        tag_12:\n            /* \"#utility.yul\":4481:4487   */\n          0x00\n            /* \"#utility.yul\":4518:4519   */\n          0x02\n            /* \"#utility.yul\":4512:4516   */\n          dup3\n            /* \"#utility.yul\":4508:4520   */\n          div\n            /* \"#utility.yul\":4498:4520   */\n          swap1\n          pop\n            /* \"#utility.yul\":4565:4566   */\n          0x01\n            /* \"#utility.yul\":4559:4563   */\n          dup3\n            /* \"#utility.yul\":4555:4567   */\n          and\n            /* \"#utility.yul\":4586:4604   */\n          dup1\n            /* \"#utility.yul\":4576:4657   */\n          tag_94\n          jumpi\n            /* \"#utility.yul\":4642:4646   */\n          0x7f\n            /* \"#utility.yul\":4634:4640   */\n          dup3\n            /* \"#utility.yul\":4630:4647   */\n          and\n            /* \"#utility.yul\":4620:4647   */\n          swap2\n          pop\n            /* \"#utility.yul\":4576:4657   */\n        tag_94:\n            /* \"#utility.yul\":4704:4706   */\n          0x20\n            /* \"#utility.yul\":4696:4702   */\n          dup3\n            /* \"#utility.yul\":4693:4707   */\n          lt\n            /* \"#utility.yul\":4673:4691   */\n          dup2\n            /* \"#utility.yul\":4670:4708   */\n          eq\n            /* \"#utility.yul\":4667:4751   */\n          iszero\n          tag_95\n          jumpi\n            /* \"#utility.yul\":4723:4741   */\n          tag_96\n          tag_39\n          jump\t// in\n        tag_96:\n            /* \"#utility.yul\":4667:4751   */\n        tag_95:\n            /* \"#utility.yul\":4488:4757   */\n          pop\n            /* \"#utility.yul\":4437:4757   */\n          swap2\n          swap1\n          pop\n          jump\t// out\n            /* \"Story.sol\":635:2955  contract Story {... */\n        tag_10:\n          dataSize(sub_0)\n          dup1\n          dataOffset(sub_0)\n          0x00\n          codecopy\n          0x00\n          return\n        stop\n\n        sub_0: assembly {\n                /* \"Story.sol\":635:2955  contract Story {... */\n              mstore(0x40, 0x80)\n              callvalue\n              dup1\n              iszero\n              tag_1\n              jumpi\n              0x00\n              dup1\n              revert\n            tag_1:\n              pop\n              jumpi(tag_2, lt(calldatasize, 0x04))\n              shr(0xe0, calldataload(0x00))\n              dup1\n              0x5d1a870a\n              gt\n              tag_13\n              jumpi\n              dup1\n              0x5d1a870a\n              eq\n              tag_8\n              jumpi\n              dup1\n              0x6fc6c579\n              eq\n              tag_9\n              jumpi\n              dup1\n              0x98b79628\n              eq\n              tag_10\n              jumpi\n              dup1\n              0x9d3ed807\n              eq\n              tag_11\n              jumpi\n              dup1\n              0xdfa14e23\n              eq\n              tag_12\n              jumpi\n              jump(tag_2)\n            tag_13:\n              dup1\n              0x1008016d\n              eq\n              tag_3\n              jumpi\n              dup1\n              0x3e5690f4\n              eq\n              tag_4\n              jumpi\n              dup1\n              0x4051ddac\n              eq\n              tag_5\n              jumpi\n              dup1\n              0x4bb3fdad\n              eq\n              tag_6\n              jumpi\n              dup1\n              0x5cf298fb\n              eq\n              tag_7\n              jumpi\n            tag_2:\n              0x00\n              dup1\n              revert\n                /* \"Story.sol\":780:813  string public usernameAndPassword */\n            tag_3:\n              tag_14\n              tag_15\n              jump\t// in\n            tag_14:\n              mload(0x40)\n              tag_16\n              swap2\n              swap1\n              tag_17\n              jump\t// in\n            tag_16:\n              mload(0x40)\n              dup1\n              swap2\n              sub\n              swap1\n              return\n                /* \"Story.sol\":657:707  mapping(address => bool) public authorsForSolidity */\n            tag_4:\n              tag_18\n              0x04\n              dup1\n              calldatasize\n              sub\n              dup2\n              add\n              swap1\n              tag_19\n              swap2\n              swap1\n              tag_20\n              jump\t// in\n            tag_19:\n              tag_21\n              jump\t// in\n            tag_18:\n              mload(0x40)\n              tag_22\n              swap2\n              swap1\n              tag_23\n              jump\t// in\n            tag_22:\n              mload(0x40)\n              dup1\n              swap2\n              sub\n              swap1\n              return\n                /* \"Story.sol\":2527:2830  function getSummary() public view returns (... */\n            tag_5:\n              tag_24\n              tag_25\n              jump\t// in\n            tag_24:\n              mload(0x40)\n              tag_26\n              swap6\n              swap5\n              swap4\n              swap3\n              swap2\n              swap1\n              tag_27\n              jump\t// in\n            tag_26:\n              mload(0x40)\n              dup1\n              swap2\n              sub\n              swap1\n              return\n                /* \"Story.sol\":820:837  string public pem */\n            tag_6:\n              tag_28\n              tag_29\n              jump\t// in\n            tag_28:\n              mload(0x40)\n              tag_30\n              swap2\n              swap1\n              tag_17\n              jump\t// in\n            tag_30:\n              mload(0x40)\n              dup1\n              swap2\n              sub\n              swap1\n              return\n                /* \"Story.sol\":2838:2940  function isAuthor() public view returns (bool){... */\n            tag_7:\n              tag_31\n              tag_32\n              jump\t// in\n            tag_31:\n              mload(0x40)\n              tag_33\n              swap2\n              swap1\n              tag_23\n              jump\t// in\n            tag_33:\n              mload(0x40)\n              dup1\n              swap2\n              sub\n              swap1\n              return\n                /* \"Story.sol\":753:773  bool public reported */\n            tag_8:\n              tag_34\n              tag_35\n              jump\t// in\n            tag_34:\n              mload(0x40)\n              tag_36\n              swap2\n              swap1\n              tag_23\n              jump\t// in\n            tag_36:\n              mload(0x40)\n              dup1\n              swap2\n              sub\n              swap1\n              return\n                /* \"Story.sol\":962:999  RequestToJoin[] public requestsToJoin */\n            tag_9:\n              tag_37\n              0x04\n              dup1\n              calldatasize\n              sub\n              dup2\n              add\n              swap1\n              tag_38\n              swap2\n              swap1\n              tag_39\n              jump\t// in\n            tag_38:\n              tag_40\n              jump\t// in\n            tag_37:\n              mload(0x40)\n              tag_41\n              swap4\n              swap3\n              swap2\n              swap1\n              tag_42\n              jump\t// in\n            tag_41:\n              mload(0x40)\n              dup1\n              swap2\n              sub\n              swap1\n              return\n                /* \"Story.sol\":1708:2519  function approveRequestToJoin(uint256 _index) public {... */\n            tag_10:\n              tag_43\n              0x04\n              dup1\n              calldatasize\n              sub\n              dup2\n              add\n              swap1\n              tag_44\n              swap2\n              swap1\n              tag_39\n              jump\t// in\n            tag_44:\n              tag_45\n              jump\t// in\n            tag_43:\n              stop\n                /* \"Story.sol\":714:746  address[] public authorsForReact */\n            tag_11:\n              tag_46\n              0x04\n              dup1\n              calldatasize\n              sub\n              dup2\n              add\n              swap1\n              tag_47\n              swap2\n              swap1\n              tag_39\n              jump\t// in\n            tag_47:\n              tag_48\n              jump\t// in\n            tag_46:\n              mload(0x40)\n              tag_49\n              swap2\n              swap1\n              tag_50\n              jump\t// in\n            tag_49:\n              mload(0x40)\n              dup1\n              swap2\n              sub\n              swap1\n              return\n                /* \"Story.sol\":1307:1700  function createRequestToJoin(string memory _proposal) public {... */\n            tag_12:\n              tag_51\n              0x04\n              dup1\n              calldatasize\n              sub\n              dup2\n              add\n              swap1\n              tag_52\n              swap2\n              swap1\n              tag_53\n              jump\t// in\n            tag_52:\n              tag_54\n              jump\t// in\n            tag_51:\n              stop\n                /* \"Story.sol\":780:813  string public usernameAndPassword */\n            tag_15:\n              0x03\n              dup1\n              sload\n              tag_55\n              swap1\n              tag_56\n              jump\t// in\n            tag_55:\n              dup1\n              0x1f\n              add\n              0x20\n              dup1\n              swap2\n              div\n              mul\n              0x20\n              add\n              mload(0x40)\n              swap1\n              dup2\n              add\n              0x40\n              mstore\n              dup1\n              swap3\n              swap2\n              swap1\n              dup2\n              dup2\n              mstore\n              0x20\n              add\n              dup3\n              dup1\n              sload\n              tag_57\n              swap1\n              tag_56\n              jump\t// in\n            tag_57:\n              dup1\n              iszero\n              tag_58\n              jumpi\n              dup1\n              0x1f\n              lt\n              tag_59\n              jumpi\n              0x0100\n              dup1\n              dup4\n              sload\n              div\n              mul\n              dup4\n              mstore\n              swap2\n              0x20\n              add\n              swap2\n              jump(tag_58)\n            tag_59:\n              dup3\n              add\n              swap2\n              swap1\n              0x00\n              mstore\n              keccak256(0x00, 0x20)\n              swap1\n            tag_60:\n              dup2\n              sload\n              dup2\n              mstore\n              swap1\n              0x01\n              add\n              swap1\n              0x20\n              add\n              dup1\n              dup4\n              gt\n              tag_60\n              jumpi\n              dup3\n              swap1\n              sub\n              0x1f\n              and\n              dup3\n              add\n              swap2\n            tag_58:\n              pop\n              pop\n              pop\n              pop\n              pop\n              dup2\n              jump\t// out\n                /* \"Story.sol\":657:707  mapping(address => bool) public authorsForSolidity */\n            tag_21:\n              mstore(0x20, 0x00)\n              dup1\n              0x00\n              mstore\n              keccak256(0x00, 0x40)\n              0x00\n              swap2\n              pop\n              sload\n              swap1\n              0x0100\n              exp\n              swap1\n              div\n              0xff\n              and\n              dup2\n              jump\t// out\n                /* \"Story.sol\":2527:2830  function getSummary() public view returns (... */\n            tag_25:\n                /* \"Story.sol\":2580:2596  address[] memory */\n              0x60\n                /* \"Story.sol\":2598:2620  RequestToJoin[] memory */\n              dup1\n                /* \"Story.sol\":2622:2626  bool */\n              0x00\n                /* \"Story.sol\":2628:2641  string memory */\n              0x60\n                /* \"Story.sol\":2643:2656  string memory */\n              dup1\n                /* \"Story.sol\":2692:2707  authorsForReact */\n              0x01\n                /* \"Story.sol\":2722:2736  requestsToJoin */\n              0x05\n                /* \"Story.sol\":2751:2759  reported */\n              0x02\n              0x00\n              swap1\n              sload\n              swap1\n              0x0100\n              exp\n              swap1\n              div\n              0xff\n              and\n                /* \"Story.sol\":2774:2793  usernameAndPassword */\n              0x03\n                /* \"Story.sol\":2808:2811  pem */\n              0x04\n                /* \"Story.sol\":2669:2822  return ( ... */\n              dup5\n              dup1\n              sload\n              dup1\n              0x20\n              mul\n              0x20\n              add\n              mload(0x40)\n              swap1\n              dup2\n              add\n              0x40\n              mstore\n              dup1\n              swap3\n              swap2\n              swap1\n              dup2\n              dup2\n              mstore\n              0x20\n              add\n              dup3\n              dup1\n              sload\n              dup1\n              iszero\n              tag_62\n              jumpi\n              0x20\n              mul\n              dup3\n              add\n              swap2\n              swap1\n              0x00\n              mstore\n              keccak256(0x00, 0x20)\n              swap1\n            tag_63:\n              dup2\n              0x00\n              swap1\n              sload\n              swap1\n              0x0100\n              exp\n              swap1\n              div\n              0xffffffffffffffffffffffffffffffffffffffff\n              and\n              0xffffffffffffffffffffffffffffffffffffffff\n              and\n              dup2\n              mstore\n              0x20\n              add\n              swap1\n              0x01\n              add\n              swap1\n              dup1\n              dup4\n              gt\n              tag_63\n              jumpi\n            tag_62:\n              pop\n              pop\n              pop\n              pop\n              pop\n              swap5\n              pop\n              dup4\n              dup1\n              sload\n              dup1\n              0x20\n              mul\n              0x20\n              add\n              mload(0x40)\n              swap1\n              dup2\n              add\n              0x40\n              mstore\n              dup1\n              swap3\n              swap2\n              swap1\n              dup2\n              dup2\n              mstore\n              0x20\n              add\n              0x00\n              swap1\n            tag_64:\n              dup3\n              dup3\n              lt\n              iszero\n              tag_65\n              jumpi\n              dup4\n              dup3\n              swap1\n              0x00\n              mstore\n              keccak256(0x00, 0x20)\n              swap1\n              0x03\n              mul\n              add\n              mload(0x40)\n              dup1\n              0x60\n              add\n              0x40\n              mstore\n              swap1\n              dup2\n              0x00\n              dup3\n              add\n              dup1\n              sload\n              tag_67\n              swap1\n              tag_56\n              jump\t// in\n            tag_67:\n              dup1\n              0x1f\n              add\n              0x20\n              dup1\n              swap2\n              div\n              mul\n              0x20\n              add\n              mload(0x40)\n              swap1\n              dup2\n              add\n              0x40\n              mstore\n              dup1\n              swap3\n              swap2\n              swap1\n              dup2\n              dup2\n              mstore\n              0x20\n              add\n              dup3\n              dup1\n              sload\n              tag_68\n              swap1\n              tag_56\n              jump\t// in\n            tag_68:\n              dup1\n              iszero\n              tag_69\n              jumpi\n              dup1\n              0x1f\n              lt\n              tag_70\n              jumpi\n              0x0100\n              dup1\n              dup4\n              sload\n              div\n              mul\n              dup4\n              mstore\n              swap2\n              0x20\n              add\n              swap2\n              jump(tag_69)\n            tag_70:\n              dup3\n              add\n              swap2\n              swap1\n              0x00\n              mstore\n              keccak256(0x00, 0x20)\n              swap1\n            tag_71:\n              dup2\n              sload\n              dup2\n              mstore\n              swap1\n              0x01\n              add\n              swap1\n              0x20\n              add\n              dup1\n              dup4\n              gt\n              tag_71\n              jumpi\n              dup3\n              swap1\n              sub\n              0x1f\n              and\n              dup3\n              add\n              swap2\n            tag_69:\n              pop\n              pop\n              pop\n              pop\n              pop\n              dup2\n              mstore\n              0x20\n              add\n              0x01\n              dup3\n              add\n              sload\n              dup2\n              mstore\n              0x20\n              add\n              0x02\n              dup3\n              add\n              0x00\n              swap1\n              sload\n              swap1\n              0x0100\n              exp\n              swap1\n              div\n              0xffffffffffffffffffffffffffffffffffffffff\n              and\n              0xffffffffffffffffffffffffffffffffffffffff\n              and\n              0xffffffffffffffffffffffffffffffffffffffff\n              and\n              dup2\n              mstore\n              pop\n              pop\n              dup2\n              mstore\n              0x20\n              add\n              swap1\n              0x01\n              add\n              swap1\n              jump(tag_64)\n            tag_65:\n              pop\n              pop\n              pop\n              pop\n              swap4\n              pop\n              dup2\n              dup1\n              sload\n              tag_72\n              swap1\n              tag_56\n              jump\t// in\n            tag_72:\n              dup1\n              0x1f\n              add\n              0x20\n              dup1\n              swap2\n              div\n              mul\n              0x20\n              add\n              mload(0x40)\n              swap1\n              dup2\n              add\n              0x40\n              mstore\n              dup1\n              swap3\n              swap2\n              swap1\n              dup2\n              dup2\n              mstore\n              0x20\n              add\n              dup3\n              dup1\n              sload\n              tag_73\n              swap1\n              tag_56\n              jump\t// in\n            tag_73:\n              dup1\n              iszero\n              tag_74\n              jumpi\n              dup1\n              0x1f\n              lt\n              tag_75\n              jumpi\n              0x0100\n              dup1\n              dup4\n              sload\n              div\n              mul\n              dup4\n              mstore\n              swap2\n              0x20\n              add\n              swap2\n              jump(tag_74)\n            tag_75:\n              dup3\n              add\n              swap2\n              swap1\n              0x00\n              mstore\n              keccak256(0x00, 0x20)\n              swap1\n            tag_76:\n              dup2\n              sload\n              dup2\n              mstore\n              swap1\n              0x01\n              add\n              swap1\n              0x20\n              add\n              dup1\n              dup4\n              gt\n              tag_76\n              jumpi\n              dup3\n              swap1\n              sub\n              0x1f\n              and\n              dup3\n              add\n              swap2\n            tag_74:\n              pop\n              pop\n              pop\n              pop\n              pop\n              swap2\n              pop\n              dup1\n              dup1\n              sload\n              tag_77\n              swap1\n              tag_56\n              jump\t// in\n            tag_77:\n              dup1\n              0x1f\n              add\n              0x20\n              dup1\n              swap2\n              div\n              mul\n              0x20\n              add\n              mload(0x40)\n              swap1\n              dup2\n              add\n              0x40\n              mstore\n              dup1\n              swap3\n              swap2\n              swap1\n              dup2\n              dup2\n              mstore\n              0x20\n              add\n              dup3\n              dup1\n              sload\n              tag_78\n              swap1\n              tag_56\n              jump\t// in\n            tag_78:\n              dup1\n              iszero\n              tag_79\n              jumpi\n              dup1\n              0x1f\n              lt\n              tag_80\n              jumpi\n              0x0100\n              dup1\n              dup4\n              sload\n              div\n              mul\n              dup4\n              mstore\n              swap2\n              0x20\n              add\n              swap2\n              jump(tag_79)\n            tag_80:\n              dup3\n              add\n              swap2\n              swap1\n              0x00\n              mstore\n              keccak256(0x00, 0x20)\n              swap1\n            tag_81:\n              dup2\n              sload\n              dup2\n              mstore\n              swap1\n              0x01\n              add\n              swap1\n              0x20\n              add\n              dup1\n              dup4\n              gt\n              tag_81\n              jumpi\n              dup3\n              swap1\n              sub\n              0x1f\n              and\n              dup3\n              add\n              swap2\n            tag_79:\n              pop\n              pop\n              pop\n              pop\n              pop\n              swap1\n              pop\n              swap5\n              pop\n              swap5\n              pop\n              swap5\n              pop\n              swap5\n              pop\n              swap5\n              pop\n                /* \"Story.sol\":2527:2830  function getSummary() public view returns (... */\n              swap1\n              swap2\n              swap3\n              swap4\n              swap5\n              jump\t// out\n                /* \"Story.sol\":820:837  string public pem */\n            tag_29:\n              0x04\n              dup1\n              sload\n              tag_82\n              swap1\n              tag_56\n              jump\t// in\n            tag_82:\n              dup1\n              0x1f\n              add\n              0x20\n              dup1\n              swap2\n              div\n              mul\n              0x20\n              add\n              mload(0x40)\n              swap1\n              dup2\n              add\n              0x40\n              mstore\n              dup1\n              swap3\n              swap2\n              swap1\n              dup2\n              dup2\n              mstore\n              0x20\n              add\n              dup3\n              dup1\n              sload\n              tag_83\n              swap1\n              tag_56\n              jump\t// in\n            tag_83:\n              dup1\n              iszero\n              tag_84\n              jumpi\n              dup1\n              0x1f\n              lt\n              tag_85\n              jumpi\n              0x0100\n              dup1\n              dup4\n              sload\n              div\n              mul\n              dup4\n              mstore\n              swap2\n              0x20\n              add\n              swap2\n              jump(tag_84)\n            tag_85:\n              dup3\n              add\n              swap2\n              swap1\n              0x00\n              mstore\n              keccak256(0x00, 0x20)\n              swap1\n            tag_86:\n              dup2\n              sload\n              dup2\n              mstore\n              swap1\n              0x01\n              add\n              swap1\n              0x20\n              add\n              dup1\n              dup4\n              gt\n              tag_86\n              jumpi\n              dup3\n              swap1\n              sub\n              0x1f\n              and\n              dup3\n              add\n              swap2\n            tag_84:\n              pop\n              pop\n              pop\n              pop\n              pop\n              dup2\n              jump\t// out\n                /* \"Story.sol\":2838:2940  function isAuthor() public view returns (bool){... */\n            tag_32:\n                /* \"Story.sol\":2879:2883  bool */\n              0x00\n                /* \"Story.sol\":2902:2920  authorsForSolidity */\n              dup1\n                /* \"Story.sol\":2902:2932  authorsForSolidity[msg.sender] */\n              0x00\n                /* \"Story.sol\":2921:2931  msg.sender */\n              caller\n                /* \"Story.sol\":2902:2932  authorsForSolidity[msg.sender] */\n              0xffffffffffffffffffffffffffffffffffffffff\n              and\n              0xffffffffffffffffffffffffffffffffffffffff\n              and\n              dup2\n              mstore\n              0x20\n              add\n              swap1\n              dup2\n              mstore\n              0x20\n              add\n              0x00\n              keccak256\n              0x00\n              swap1\n              sload\n              swap1\n              0x0100\n              exp\n              swap1\n              div\n              0xff\n              and\n                /* \"Story.sol\":2895:2932  return authorsForSolidity[msg.sender] */\n              swap1\n              pop\n                /* \"Story.sol\":2838:2940  function isAuthor() public view returns (bool){... */\n              swap1\n              jump\t// out\n                /* \"Story.sol\":753:773  bool public reported */\n            tag_35:\n              0x02\n              0x00\n              swap1\n              sload\n              swap1\n              0x0100\n              exp\n              swap1\n              div\n              0xff\n              and\n              dup2\n              jump\t// out\n                /* \"Story.sol\":962:999  RequestToJoin[] public requestsToJoin */\n            tag_40:\n              0x05\n              dup2\n              dup2\n              sload\n              dup2\n              lt\n              tag_88\n              jumpi\n              0x00\n              dup1\n              revert\n            tag_88:\n              swap1\n              0x00\n              mstore\n              keccak256(0x00, 0x20)\n              swap1\n              0x03\n              mul\n              add\n              0x00\n              swap2\n              pop\n              swap1\n              pop\n              dup1\n              0x00\n              add\n              dup1\n              sload\n              tag_90\n              swap1\n              tag_56\n              jump\t// in\n            tag_90:\n              dup1\n              0x1f\n              add\n              0x20\n              dup1\n              swap2\n              div\n              mul\n              0x20\n              add\n              mload(0x40)\n              swap1\n              dup2\n              add\n              0x40\n              mstore\n              dup1\n              swap3\n              swap2\n              swap1\n              dup2\n              dup2\n              mstore\n              0x20\n              add\n              dup3\n              dup1\n              sload\n              tag_91\n              swap1\n              tag_56\n              jump\t// in\n            tag_91:\n              dup1\n              iszero\n              tag_92\n              jumpi\n              dup1\n              0x1f\n              lt\n              tag_93\n              jumpi\n              0x0100\n              dup1\n              dup4\n              sload\n              div\n              mul\n              dup4\n              mstore\n              swap2\n              0x20\n              add\n              swap2\n              jump(tag_92)\n            tag_93:\n              dup3\n              add\n              swap2\n              swap1\n              0x00\n              mstore\n              keccak256(0x00, 0x20)\n              swap1\n            tag_94:\n              dup2\n              sload\n              dup2\n              mstore\n              swap1\n              0x01\n              add\n              swap1\n              0x20\n              add\n              dup1\n              dup4\n              gt\n              tag_94\n              jumpi\n              dup3\n              swap1\n              sub\n              0x1f\n              and\n              dup3\n              add\n              swap2\n            tag_92:\n              pop\n              pop\n              pop\n              pop\n              pop\n              swap1\n              dup1\n              0x01\n              add\n              sload\n              swap1\n              dup1\n              0x02\n              add\n              0x00\n              swap1\n              sload\n              swap1\n              0x0100\n              exp\n              swap1\n              div\n              0xffffffffffffffffffffffffffffffffffffffff\n              and\n              swap1\n              pop\n              dup4\n              jump\t// out\n                /* \"Story.sol\":1708:2519  function approveRequestToJoin(uint256 _index) public {... */\n            tag_45:\n                /* \"Story.sol\":1780:1798  authorsForSolidity */\n              0x00\n                /* \"Story.sol\":1780:1810  authorsForSolidity[msg.sender] */\n              dup1\n                /* \"Story.sol\":1799:1809  msg.sender */\n              caller\n                /* \"Story.sol\":1780:1810  authorsForSolidity[msg.sender] */\n              0xffffffffffffffffffffffffffffffffffffffff\n              and\n              0xffffffffffffffffffffffffffffffffffffffff\n              and\n              dup2\n              mstore\n              0x20\n              add\n              swap1\n              dup2\n              mstore\n              0x20\n              add\n              0x00\n              keccak256\n              0x00\n              swap1\n              sload\n              swap1\n              0x0100\n              exp\n              swap1\n              div\n              0xff\n              and\n                /* \"Story.sol\":1772:1860  require(authorsForSolidity[msg.sender], \"Only an accepted author can approve a request\") */\n              tag_96\n              jumpi\n              mload(0x40)\n              0x08c379a000000000000000000000000000000000000000000000000000000000\n              dup2\n              mstore\n              0x04\n              add\n              tag_97\n              swap1\n              tag_98\n              jump\t// in\n            tag_97:\n              mload(0x40)\n              dup1\n              swap2\n              sub\n              swap1\n              revert\n            tag_96:\n                /* \"Story.sol\":1880:1898  authorsForSolidity */\n              0x00\n                /* \"Story.sol\":1880:1929  authorsForSolidity[requestsToJoin[_index].author] */\n              dup1\n                /* \"Story.sol\":1899:1913  requestsToJoin */\n              0x05\n                /* \"Story.sol\":1914:1920  _index */\n              dup4\n                /* \"Story.sol\":1899:1921  requestsToJoin[_index] */\n              dup2\n              sload\n              dup2\n              lt\n              tag_99\n              jumpi\n              tag_100\n              tag_101\n              jump\t// in\n            tag_100:\n            tag_99:\n              swap1\n              0x00\n              mstore\n              keccak256(0x00, 0x20)\n              swap1\n              0x03\n              mul\n              add\n                /* \"Story.sol\":1899:1928  requestsToJoin[_index].author */\n              0x02\n              add\n              0x00\n              swap1\n              sload\n              swap1\n              0x0100\n              exp\n              swap1\n              div\n              0xffffffffffffffffffffffffffffffffffffffff\n              and\n                /* \"Story.sol\":1880:1929  authorsForSolidity[requestsToJoin[_index].author] */\n              0xffffffffffffffffffffffffffffffffffffffff\n              and\n              0xffffffffffffffffffffffffffffffffffffffff\n              and\n              dup2\n              mstore\n              0x20\n              add\n              swap1\n              dup2\n              mstore\n              0x20\n              add\n              0x00\n              keccak256\n              0x00\n              swap1\n              sload\n              swap1\n              0x0100\n              exp\n              swap1\n              div\n              0xff\n              and\n                /* \"Story.sol\":1879:1929  !authorsForSolidity[requestsToJoin[_index].author] */\n              iszero\n                /* \"Story.sol\":1871:1998  require(!authorsForSolidity[requestsToJoin[_index].author], \"Author of the request is already included in the list of authors\") */\n              tag_103\n              jumpi\n              mload(0x40)\n              0x08c379a000000000000000000000000000000000000000000000000000000000\n              dup2\n              mstore\n              0x04\n              add\n              tag_104\n              swap1\n              tag_105\n              jump\t// in\n            tag_104:\n              mload(0x40)\n              dup1\n              swap2\n              sub\n              swap1\n              revert\n            tag_103:\n                /* \"Story.sol\":2011:2028  uint256 lastIndex */\n              0x00\n                /* \"Story.sol\":2055:2056  1 */\n              0x01\n                /* \"Story.sol\":2031:2045  requestsToJoin */\n              0x05\n                /* \"Story.sol\":2031:2052  requestsToJoin.length */\n              dup1\n              sload\n              swap1\n              pop\n                /* \"Story.sol\":2031:2056  requestsToJoin.length - 1 */\n              tag_106\n              swap2\n              swap1\n              tag_107\n              jump\t// in\n            tag_106:\n                /* \"Story.sol\":2011:2056  uint256 lastIndex = requestsToJoin.length - 1 */\n              swap1\n              pop\n                /* \"Story.sol\":2150:2182  RequestToJoin memory lastRequest */\n              0x00\n                /* \"Story.sol\":2185:2199  requestsToJoin */\n              0x05\n                /* \"Story.sol\":2200:2209  lastIndex */\n              dup3\n                /* \"Story.sol\":2185:2210  requestsToJoin[lastIndex] */\n              dup2\n              sload\n              dup2\n              lt\n              tag_108\n              jumpi\n              tag_109\n              tag_101\n              jump\t// in\n            tag_109:\n            tag_108:\n              swap1\n              0x00\n              mstore\n              keccak256(0x00, 0x20)\n              swap1\n              0x03\n              mul\n              add\n                /* \"Story.sol\":2150:2210  RequestToJoin memory lastRequest = requestsToJoin[lastIndex] */\n              mload(0x40)\n              dup1\n              0x60\n              add\n              0x40\n              mstore\n              swap1\n              dup2\n              0x00\n              dup3\n              add\n              dup1\n              sload\n              tag_111\n              swap1\n              tag_56\n              jump\t// in\n            tag_111:\n              dup1\n              0x1f\n              add\n              0x20\n              dup1\n              swap2\n              div\n              mul\n              0x20\n              add\n              mload(0x40)\n              swap1\n              dup2\n              add\n              0x40\n              mstore\n              dup1\n              swap3\n              swap2\n              swap1\n              dup2\n              dup2\n              mstore\n              0x20\n              add\n              dup3\n              dup1\n              sload\n              tag_112\n              swap1\n              tag_56\n              jump\t// in\n            tag_112:\n              dup1\n              iszero\n              tag_113\n              jumpi\n              dup1\n              0x1f\n              lt\n              tag_114\n              jumpi\n              0x0100\n              dup1\n              dup4\n              sload\n              div\n              mul\n              dup4\n              mstore\n              swap2\n              0x20\n              add\n              swap2\n              jump(tag_113)\n            tag_114:\n              dup3\n              add\n              swap2\n              swap1\n              0x00\n              mstore\n              keccak256(0x00, 0x20)\n              swap1\n            tag_115:\n              dup2\n              sload\n              dup2\n              mstore\n              swap1\n              0x01\n              add\n              swap1\n              0x20\n              add\n              dup1\n              dup4\n              gt\n              tag_115\n              jumpi\n              dup3\n              swap1\n              sub\n              0x1f\n              and\n              dup3\n              add\n              swap2\n            tag_113:\n              pop\n              pop\n              pop\n              pop\n              pop\n              dup2\n              mstore\n              0x20\n              add\n              0x01\n              dup3\n              add\n              sload\n              dup2\n              mstore\n              0x20\n              add\n              0x02\n              dup3\n              add\n              0x00\n              swap1\n              sload\n              swap1\n              0x0100\n              exp\n              swap1\n              div\n              0xffffffffffffffffffffffffffffffffffffffff\n              and\n              0xffffffffffffffffffffffffffffffffffffffff\n              and\n              0xffffffffffffffffffffffffffffffffffffffff\n              and\n              dup2\n              mstore\n              pop\n              pop\n              swap1\n              pop\n                /* \"Story.sol\":2246:2257  lastRequest */\n              dup1\n                /* \"Story.sol\":2221:2235  requestsToJoin */\n              0x05\n                /* \"Story.sol\":2236:2242  _index */\n              dup5\n                /* \"Story.sol\":2221:2243  requestsToJoin[_index] */\n              dup2\n              sload\n              dup2\n              lt\n              tag_116\n              jumpi\n              tag_117\n              tag_101\n              jump\t// in\n            tag_117:\n            tag_116:\n              swap1\n              0x00\n              mstore\n              keccak256(0x00, 0x20)\n              swap1\n              0x03\n              mul\n              add\n                /* \"Story.sol\":2221:2257  requestsToJoin[_index] = lastRequest */\n              0x00\n              dup3\n              add\n              mload\n              dup2\n              0x00\n              add\n              swap1\n              dup1\n              mload\n              swap1\n              0x20\n              add\n              swap1\n              tag_119\n              swap3\n              swap2\n              swap1\n              tag_120\n              jump\t// in\n            tag_119:\n              pop\n              0x20\n              dup3\n              add\n              mload\n              dup2\n              0x01\n              add\n              sstore\n              0x40\n              dup3\n              add\n              mload\n              dup2\n              0x02\n              add\n              exp(0x0100, 0x00)\n              dup2\n              sload\n              dup2\n              0xffffffffffffffffffffffffffffffffffffffff\n              mul\n              not\n              and\n              swap1\n              dup4\n              0xffffffffffffffffffffffffffffffffffffffff\n              and\n              mul\n              or\n              swap1\n              sstore\n              pop\n              swap1\n              pop\n              pop\n                /* \"Story.sol\":2333:2347  requestsToJoin */\n              0x05\n                /* \"Story.sol\":2333:2353  requestsToJoin.pop() */\n              dup1\n              sload\n              dup1\n              tag_121\n              jumpi\n              tag_122\n              tag_123\n              jump\t// in\n            tag_122:\n            tag_121:\n              0x01\n              swap1\n              sub\n              dup2\n              dup2\n              swap1\n              0x00\n              mstore\n              keccak256(0x00, 0x20)\n              swap1\n              0x03\n              mul\n              add\n              0x00\n              dup1\n              dup3\n              add\n              0x00\n              tag_125\n              swap2\n              swap1\n              tag_126\n              jump\t// in\n            tag_125:\n              0x01\n              dup3\n              add\n              0x00\n              swap1\n              sstore\n              0x02\n              dup3\n              add\n              exp(0x0100, 0x00)\n              dup2\n              sload\n              swap1\n              0xffffffffffffffffffffffffffffffffffffffff\n              mul\n              not\n              and\n              swap1\n              sstore\n              pop\n              pop\n              swap1\n              sstore\n                /* \"Story.sol\":2456:2460  true */\n              0x01\n                /* \"Story.sol\":2415:2433  authorsForSolidity */\n              0x00\n                /* \"Story.sol\":2415:2453  authorsForSolidity[lastRequest.author] */\n              dup1\n                /* \"Story.sol\":2434:2445  lastRequest */\n              dup4\n                /* \"Story.sol\":2434:2452  lastRequest.author */\n              0x40\n              add\n              mload\n                /* \"Story.sol\":2415:2453  authorsForSolidity[lastRequest.author] */\n              0xffffffffffffffffffffffffffffffffffffffff\n              and\n              0xffffffffffffffffffffffffffffffffffffffff\n              and\n              dup2\n              mstore\n              0x20\n              add\n              swap1\n              dup2\n              mstore\n              0x20\n              add\n              0x00\n              keccak256\n              0x00\n                /* \"Story.sol\":2415:2460  authorsForSolidity[lastRequest.author] = true */\n              0x0100\n              exp\n              dup2\n              sload\n              dup2\n              0xff\n              mul\n              not\n              and\n              swap1\n              dup4\n              iszero\n              iszero\n              mul\n              or\n              swap1\n              sstore\n              pop\n                /* \"Story.sol\":2471:2486  authorsForReact */\n              0x01\n                /* \"Story.sol\":2492:2503  lastRequest */\n              dup2\n                /* \"Story.sol\":2492:2510  lastRequest.author */\n              0x40\n              add\n              mload\n                /* \"Story.sol\":2471:2511  authorsForReact.push(lastRequest.author) */\n              swap1\n              dup1\n              0x01\n              dup2\n              sload\n              add\n              dup1\n              dup3\n              sstore\n              dup1\n              swap2\n              pop\n              pop\n              0x01\n              swap1\n              sub\n              swap1\n              0x00\n              mstore\n              keccak256(0x00, 0x20)\n              add\n              0x00\n              swap1\n              swap2\n              swap1\n              swap2\n              swap1\n              swap2\n              0x0100\n              exp\n              dup2\n              sload\n              dup2\n              0xffffffffffffffffffffffffffffffffffffffff\n              mul\n              not\n              and\n              swap1\n              dup4\n              0xffffffffffffffffffffffffffffffffffffffff\n              and\n              mul\n              or\n              swap1\n              sstore\n              pop\n                /* \"Story.sol\":1761:2519  {... */\n              pop\n              pop\n                /* \"Story.sol\":1708:2519  function approveRequestToJoin(uint256 _index) public {... */\n              pop\n              jump\t// out\n                /* \"Story.sol\":714:746  address[] public authorsForReact */\n            tag_48:\n              0x01\n              dup2\n              dup2\n              sload\n              dup2\n              lt\n              tag_128\n              jumpi\n              0x00\n              dup1\n              revert\n            tag_128:\n              swap1\n              0x00\n              mstore\n              keccak256(0x00, 0x20)\n              add\n              0x00\n              swap2\n              pop\n              sload\n              swap1\n              0x0100\n              exp\n              swap1\n              div\n              0xffffffffffffffffffffffffffffffffffffffff\n              and\n              dup2\n              jump\t// out\n                /* \"Story.sol\":1307:1700  function createRequestToJoin(string memory _proposal) public {... */\n            tag_54:\n                /* \"Story.sol\":1388:1406  authorsForSolidity */\n              0x00\n                /* \"Story.sol\":1388:1418  authorsForSolidity[msg.sender] */\n              dup1\n                /* \"Story.sol\":1407:1417  msg.sender */\n              caller\n                /* \"Story.sol\":1388:1418  authorsForSolidity[msg.sender] */\n              0xffffffffffffffffffffffffffffffffffffffff\n              and\n              0xffffffffffffffffffffffffffffffffffffffff\n              and\n              dup2\n              mstore\n              0x20\n              add\n              swap1\n              dup2\n              mstore\n              0x20\n              add\n              0x00\n              keccak256\n              0x00\n              swap1\n              sload\n              swap1\n              0x0100\n              exp\n              swap1\n              div\n              0xff\n              and\n                /* \"Story.sol\":1387:1418  !authorsForSolidity[msg.sender] */\n              iszero\n                /* \"Story.sol\":1379:1467  require(!authorsForSolidity[msg.sender], \"Author already exists in the list of authors\") */\n              tag_131\n              jumpi\n              mload(0x40)\n              0x08c379a000000000000000000000000000000000000000000000000000000000\n              dup2\n              mstore\n              0x04\n              add\n              tag_132\n              swap1\n              tag_133\n              jump\t// in\n            tag_132:\n              mload(0x40)\n              dup1\n              swap2\n              sub\n              swap1\n              revert\n            tag_131:\n                /* \"Story.sol\":1480:1511  RequestToJoin memory newRequest */\n              0x00\n                /* \"Story.sol\":1514:1648  RequestToJoin({... */\n              mload(0x40)\n              dup1\n              0x60\n              add\n              0x40\n              mstore\n              dup1\n                /* \"Story.sol\":1553:1562  _proposal */\n              dup4\n                /* \"Story.sol\":1514:1648  RequestToJoin({... */\n              dup2\n              mstore\n              0x20\n              add\n                /* \"Story.sol\":1588:1603  block.timestamp */\n              timestamp\n                /* \"Story.sol\":1514:1648  RequestToJoin({... */\n              dup2\n              mstore\n              0x20\n              add\n                /* \"Story.sol\":1626:1636  msg.sender */\n              caller\n                /* \"Story.sol\":1514:1648  RequestToJoin({... */\n              0xffffffffffffffffffffffffffffffffffffffff\n              and\n              dup2\n              mstore\n              pop\n                /* \"Story.sol\":1480:1648  RequestToJoin memory newRequest = RequestToJoin({... */\n              swap1\n              pop\n                /* \"Story.sol\":1661:1675  requestsToJoin */\n              0x05\n                /* \"Story.sol\":1681:1691  newRequest */\n              dup2\n                /* \"Story.sol\":1661:1692  requestsToJoin.push(newRequest) */\n              swap1\n              dup1\n              0x01\n              dup2\n              sload\n              add\n              dup1\n              dup3\n              sstore\n              dup1\n              swap2\n              pop\n              pop\n              0x01\n              swap1\n              sub\n              swap1\n              0x00\n              mstore\n              keccak256(0x00, 0x20)\n              swap1\n              0x03\n              mul\n              add\n              0x00\n              swap1\n              swap2\n              swap1\n              swap2\n              swap1\n              swap2\n              pop\n              0x00\n              dup3\n              add\n              mload\n              dup2\n              0x00\n              add\n              swap1\n              dup1\n              mload\n              swap1\n              0x20\n              add\n              swap1\n              tag_135\n              swap3\n              swap2\n              swap1\n              tag_120\n              jump\t// in\n            tag_135:\n              pop\n              0x20\n              dup3\n              add\n              mload\n              dup2\n              0x01\n              add\n              sstore\n              0x40\n              dup3\n              add\n              mload\n              dup2\n              0x02\n              add\n              exp(0x0100, 0x00)\n              dup2\n              sload\n              dup2\n              0xffffffffffffffffffffffffffffffffffffffff\n              mul\n              not\n              and\n              swap1\n              dup4\n              0xffffffffffffffffffffffffffffffffffffffff\n              and\n              mul\n              or\n              swap1\n              sstore\n              pop\n              pop\n              pop\n                /* \"Story.sol\":1368:1700  {... */\n              pop\n                /* \"Story.sol\":1307:1700  function createRequestToJoin(string memory _proposal) public {... */\n              pop\n              jump\t// out\n            tag_120:\n              dup3\n              dup1\n              sload\n              tag_136\n              swap1\n              tag_56\n              jump\t// in\n            tag_136:\n              swap1\n              0x00\n              mstore\n              keccak256(0x00, 0x20)\n              swap1\n              0x1f\n              add\n              0x20\n              swap1\n              div\n              dup2\n              add\n              swap3\n              dup3\n              tag_138\n              jumpi\n              0x00\n              dup6\n              sstore\n              jump(tag_137)\n            tag_138:\n              dup3\n              0x1f\n              lt\n              tag_139\n              jumpi\n              dup1\n              mload\n              not(0xff)\n              and\n              dup4\n              dup1\n              add\n              or\n              dup6\n              sstore\n              jump(tag_137)\n            tag_139:\n              dup3\n              dup1\n              add\n              0x01\n              add\n              dup6\n              sstore\n              dup3\n              iszero\n              tag_137\n              jumpi\n              swap2\n              dup3\n              add\n            tag_140:\n              dup3\n              dup2\n              gt\n              iszero\n              tag_141\n              jumpi\n              dup3\n              mload\n              dup3\n              sstore\n              swap2\n              0x20\n              add\n              swap2\n              swap1\n              0x01\n              add\n              swap1\n              jump(tag_140)\n            tag_141:\n            tag_137:\n              pop\n              swap1\n              pop\n              tag_142\n              swap2\n              swap1\n              tag_143\n              jump\t// in\n            tag_142:\n              pop\n              swap1\n              jump\t// out\n            tag_126:\n              pop\n              dup1\n              sload\n              tag_144\n              swap1\n              tag_56\n              jump\t// in\n            tag_144:\n              0x00\n              dup3\n              sstore\n              dup1\n              0x1f\n              lt\n              tag_146\n              jumpi\n              pop\n              jump(tag_145)\n            tag_146:\n              0x1f\n              add\n              0x20\n              swap1\n              div\n              swap1\n              0x00\n              mstore\n              keccak256(0x00, 0x20)\n              swap1\n              dup2\n              add\n              swap1\n              tag_147\n              swap2\n              swap1\n              tag_143\n              jump\t// in\n            tag_147:\n            tag_145:\n              pop\n              jump\t// out\n            tag_143:\n            tag_148:\n              dup1\n              dup3\n              gt\n              iszero\n              tag_149\n              jumpi\n              0x00\n              dup2\n              0x00\n              swap1\n              sstore\n              pop\n              0x01\n              add\n              jump(tag_148)\n            tag_149:\n              pop\n              swap1\n              jump\t// out\n                /* \"#utility.yul\":7:106   */\n            tag_150:\n                /* \"#utility.yul\":59:65   */\n              0x00\n                /* \"#utility.yul\":93:98   */\n              dup2\n                /* \"#utility.yul\":87:99   */\n              mload\n                /* \"#utility.yul\":77:99   */\n              swap1\n              pop\n                /* \"#utility.yul\":7:106   */\n              swap2\n              swap1\n              pop\n              jump\t// out\n                /* \"#utility.yul\":112:281   */\n            tag_151:\n                /* \"#utility.yul\":196:207   */\n              0x00\n                /* \"#utility.yul\":230:236   */\n              dup3\n                /* \"#utility.yul\":225:228   */\n              dup3\n                /* \"#utility.yul\":218:237   */\n              mstore\n                /* \"#utility.yul\":270:274   */\n              0x20\n                /* \"#utility.yul\":265:268   */\n              dup3\n                /* \"#utility.yul\":261:275   */\n              add\n                /* \"#utility.yul\":246:275   */\n              swap1\n              pop\n                /* \"#utility.yul\":112:281   */\n              swap3\n              swap2\n              pop\n              pop\n              jump\t// out\n                /* \"#utility.yul\":287:594   */\n            tag_152:\n                /* \"#utility.yul\":355:356   */\n              0x00\n                /* \"#utility.yul\":365:478   */\n            tag_207:\n                /* \"#utility.yul\":379:385   */\n              dup4\n                /* \"#utility.yul\":376:377   */\n              dup2\n                /* \"#utility.yul\":373:386   */\n              lt\n                /* \"#utility.yul\":365:478   */\n              iszero\n              tag_209\n              jumpi\n                /* \"#utility.yul\":464:465   */\n              dup1\n                /* \"#utility.yul\":459:462   */\n              dup3\n                /* \"#utility.yul\":455:466   */\n              add\n                /* \"#utility.yul\":449:467   */\n              mload\n                /* \"#utility.yul\":445:446   */\n              dup2\n                /* \"#utility.yul\":440:443   */\n              dup5\n                /* \"#utility.yul\":436:447   */\n              add\n                /* \"#utility.yul\":429:468   */\n              mstore\n                /* \"#utility.yul\":401:403   */\n              0x20\n                /* \"#utility.yul\":398:399   */\n              dup2\n                /* \"#utility.yul\":394:404   */\n              add\n                /* \"#utility.yul\":389:404   */\n              swap1\n              pop\n                /* \"#utility.yul\":365:478   */\n              jump(tag_207)\n            tag_209:\n                /* \"#utility.yul\":496:502   */\n              dup4\n                /* \"#utility.yul\":493:494   */\n              dup2\n                /* \"#utility.yul\":490:503   */\n              gt\n                /* \"#utility.yul\":487:588   */\n              iszero\n              tag_210\n              jumpi\n                /* \"#utility.yul\":576:577   */\n              0x00\n                /* \"#utility.yul\":567:573   */\n              dup5\n                /* \"#utility.yul\":562:565   */\n              dup5\n                /* \"#utility.yul\":558:574   */\n              add\n                /* \"#utility.yul\":551:578   */\n              mstore\n                /* \"#utility.yul\":487:588   */\n            tag_210:\n                /* \"#utility.yul\":336:594   */\n              pop\n                /* \"#utility.yul\":287:594   */\n              pop\n              pop\n              pop\n              jump\t// out\n                /* \"#utility.yul\":600:702   */\n            tag_153:\n                /* \"#utility.yul\":641:647   */\n              0x00\n                /* \"#utility.yul\":692:694   */\n              0x1f\n                /* \"#utility.yul\":688:695   */\n              not\n                /* \"#utility.yul\":683:685   */\n              0x1f\n                /* \"#utility.yul\":676:681   */\n              dup4\n                /* \"#utility.yul\":672:686   */\n              add\n                /* \"#utility.yul\":668:696   */\n              and\n                /* \"#utility.yul\":658:696   */\n              swap1\n              pop\n                /* \"#utility.yul\":600:702   */\n              swap2\n              swap1\n              pop\n              jump\t// out\n                /* \"#utility.yul\":708:1072   */\n            tag_154:\n                /* \"#utility.yul\":796:799   */\n              0x00\n                /* \"#utility.yul\":824:863   */\n              tag_213\n                /* \"#utility.yul\":857:862   */\n              dup3\n                /* \"#utility.yul\":824:863   */\n              tag_150\n              jump\t// in\n            tag_213:\n                /* \"#utility.yul\":879:950   */\n              tag_214\n                /* \"#utility.yul\":943:949   */\n              dup2\n                /* \"#utility.yul\":938:941   */\n              dup6\n                /* \"#utility.yul\":879:950   */\n              tag_151\n              jump\t// in\n            tag_214:\n                /* \"#utility.yul\":872:950   */\n              swap4\n              pop\n                /* \"#utility.yul\":959:1011   */\n              tag_215\n                /* \"#utility.yul\":1004:1010   */\n              dup2\n                /* \"#utility.yul\":999:1002   */\n              dup6\n                /* \"#utility.yul\":992:996   */\n              0x20\n                /* \"#utility.yul\":985:990   */\n              dup7\n                /* \"#utility.yul\":981:997   */\n              add\n                /* \"#utility.yul\":959:1011   */\n              tag_152\n              jump\t// in\n            tag_215:\n                /* \"#utility.yul\":1036:1065   */\n              tag_216\n                /* \"#utility.yul\":1058:1064   */\n              dup2\n                /* \"#utility.yul\":1036:1065   */\n              tag_153\n              jump\t// in\n            tag_216:\n                /* \"#utility.yul\":1031:1034   */\n              dup5\n                /* \"#utility.yul\":1027:1066   */\n              add\n                /* \"#utility.yul\":1020:1066   */\n              swap2\n              pop\n                /* \"#utility.yul\":800:1072   */\n              pop\n                /* \"#utility.yul\":708:1072   */\n              swap3\n              swap2\n              pop\n              pop\n              jump\t// out\n                /* \"#utility.yul\":1078:1391   */\n            tag_17:\n                /* \"#utility.yul\":1191:1195   */\n              0x00\n                /* \"#utility.yul\":1229:1231   */\n              0x20\n                /* \"#utility.yul\":1218:1227   */\n              dup3\n                /* \"#utility.yul\":1214:1232   */\n              add\n                /* \"#utility.yul\":1206:1232   */\n              swap1\n              pop\n                /* \"#utility.yul\":1278:1287   */\n              dup2\n                /* \"#utility.yul\":1272:1276   */\n              dup2\n                /* \"#utility.yul\":1268:1288   */\n              sub\n                /* \"#utility.yul\":1264:1265   */\n              0x00\n                /* \"#utility.yul\":1253:1262   */\n              dup4\n                /* \"#utility.yul\":1249:1266   */\n              add\n                /* \"#utility.yul\":1242:1289   */\n              mstore\n                /* \"#utility.yul\":1306:1384   */\n              tag_218\n                /* \"#utility.yul\":1379:1383   */\n              dup2\n                /* \"#utility.yul\":1370:1376   */\n              dup5\n                /* \"#utility.yul\":1306:1384   */\n              tag_154\n              jump\t// in\n            tag_218:\n                /* \"#utility.yul\":1298:1384   */\n              swap1\n              pop\n                /* \"#utility.yul\":1078:1391   */\n              swap3\n              swap2\n              pop\n              pop\n              jump\t// out\n                /* \"#utility.yul\":1397:1472   */\n            tag_155:\n                /* \"#utility.yul\":1430:1436   */\n              0x00\n                /* \"#utility.yul\":1463:1465   */\n              0x40\n                /* \"#utility.yul\":1457:1466   */\n              mload\n                /* \"#utility.yul\":1447:1466   */\n              swap1\n              pop\n                /* \"#utility.yul\":1397:1472   */\n              swap1\n              jump\t// out\n                /* \"#utility.yul\":1478:1595   */\n            tag_156:\n                /* \"#utility.yul\":1587:1588   */\n              0x00\n                /* \"#utility.yul\":1584:1585   */\n              dup1\n                /* \"#utility.yul\":1577:1589   */\n              revert\n                /* \"#utility.yul\":1601:1718   */\n            tag_157:\n                /* \"#utility.yul\":1710:1711   */\n              0x00\n                /* \"#utility.yul\":1707:1708   */\n              dup1\n                /* \"#utility.yul\":1700:1712   */\n              revert\n                /* \"#utility.yul\":1724:1850   */\n            tag_158:\n                /* \"#utility.yul\":1761:1768   */\n              0x00\n                /* \"#utility.yul\":1801:1843   */\n              0xffffffffffffffffffffffffffffffffffffffff\n                /* \"#utility.yul\":1794:1799   */\n              dup3\n                /* \"#utility.yul\":1790:1844   */\n              and\n                /* \"#utility.yul\":1779:1844   */\n              swap1\n              pop\n                /* \"#utility.yul\":1724:1850   */\n              swap2\n              swap1\n              pop\n              jump\t// out\n                /* \"#utility.yul\":1856:1952   */\n            tag_159:\n                /* \"#utility.yul\":1893:1900   */\n              0x00\n                /* \"#utility.yul\":1922:1946   */\n              tag_224\n                /* \"#utility.yul\":1940:1945   */\n              dup3\n                /* \"#utility.yul\":1922:1946   */\n              tag_158\n              jump\t// in\n            tag_224:\n                /* \"#utility.yul\":1911:1946   */\n              swap1\n              pop\n                /* \"#utility.yul\":1856:1952   */\n              swap2\n              swap1\n              pop\n              jump\t// out\n                /* \"#utility.yul\":1958:2080   */\n            tag_160:\n                /* \"#utility.yul\":2031:2055   */\n              tag_226\n                /* \"#utility.yul\":2049:2054   */\n              dup2\n                /* \"#utility.yul\":2031:2055   */\n              tag_159\n              jump\t// in\n            tag_226:\n                /* \"#utility.yul\":2024:2029   */\n              dup2\n                /* \"#utility.yul\":2021:2056   */\n              eq\n                /* \"#utility.yul\":2011:2074   */\n              tag_227\n              jumpi\n                /* \"#utility.yul\":2070:2071   */\n              0x00\n                /* \"#utility.yul\":2067:2068   */\n              dup1\n                /* \"#utility.yul\":2060:2072   */\n              revert\n                /* \"#utility.yul\":2011:2074   */\n            tag_227:\n                /* \"#utility.yul\":1958:2080   */\n              pop\n              jump\t// out\n                /* \"#utility.yul\":2086:2225   */\n            tag_161:\n                /* \"#utility.yul\":2132:2137   */\n              0x00\n                /* \"#utility.yul\":2170:2176   */\n              dup2\n                /* \"#utility.yul\":2157:2177   */\n              calldataload\n                /* \"#utility.yul\":2148:2177   */\n              swap1\n              pop\n                /* \"#utility.yul\":2186:2219   */\n              tag_229\n                /* \"#utility.yul\":2213:2218   */\n              dup2\n                /* \"#utility.yul\":2186:2219   */\n              tag_160\n              jump\t// in\n            tag_229:\n                /* \"#utility.yul\":2086:2225   */\n              swap3\n              swap2\n              pop\n              pop\n              jump\t// out\n                /* \"#utility.yul\":2231:2560   */\n            tag_20:\n                /* \"#utility.yul\":2290:2296   */\n              0x00\n                /* \"#utility.yul\":2339:2341   */\n              0x20\n                /* \"#utility.yul\":2327:2336   */\n              dup3\n                /* \"#utility.yul\":2318:2325   */\n              dup5\n                /* \"#utility.yul\":2314:2337   */\n              sub\n                /* \"#utility.yul\":2310:2342   */\n              slt\n                /* \"#utility.yul\":2307:2426   */\n              iszero\n              tag_231\n              jumpi\n                /* \"#utility.yul\":2345:2424   */\n              tag_232\n              tag_156\n              jump\t// in\n            tag_232:\n                /* \"#utility.yul\":2307:2426   */\n            tag_231:\n                /* \"#utility.yul\":2465:2466   */\n              0x00\n                /* \"#utility.yul\":2490:2543   */\n              tag_233\n                /* \"#utility.yul\":2535:2542   */\n              dup5\n                /* \"#utility.yul\":2526:2532   */\n              dup3\n                /* \"#utility.yul\":2515:2524   */\n              dup6\n                /* \"#utility.yul\":2511:2533   */\n              add\n                /* \"#utility.yul\":2490:2543   */\n              tag_161\n              jump\t// in\n            tag_233:\n                /* \"#utility.yul\":2480:2543   */\n              swap2\n              pop\n                /* \"#utility.yul\":2436:2553   */\n              pop\n                /* \"#utility.yul\":2231:2560   */\n              swap3\n              swap2\n              pop\n              pop\n              jump\t// out\n                /* \"#utility.yul\":2566:2656   */\n            tag_162:\n                /* \"#utility.yul\":2600:2607   */\n              0x00\n                /* \"#utility.yul\":2643:2648   */\n              dup2\n                /* \"#utility.yul\":2636:2649   */\n              iszero\n                /* \"#utility.yul\":2629:2650   */\n              iszero\n                /* \"#utility.yul\":2618:2650   */\n              swap1\n              pop\n                /* \"#utility.yul\":2566:2656   */\n              swap2\n              swap1\n              pop\n              jump\t// out\n                /* \"#utility.yul\":2662:2771   */\n            tag_163:\n                /* \"#utility.yul\":2743:2764   */\n              tag_236\n                /* \"#utility.yul\":2758:2763   */\n              dup2\n                /* \"#utility.yul\":2743:2764   */\n              tag_162\n              jump\t// in\n            tag_236:\n                /* \"#utility.yul\":2738:2741   */\n              dup3\n                /* \"#utility.yul\":2731:2765   */\n              mstore\n                /* \"#utility.yul\":2662:2771   */\n              pop\n              pop\n              jump\t// out\n                /* \"#utility.yul\":2777:2987   */\n            tag_23:\n                /* \"#utility.yul\":2864:2868   */\n              0x00\n                /* \"#utility.yul\":2902:2904   */\n              0x20\n                /* \"#utility.yul\":2891:2900   */\n              dup3\n                /* \"#utility.yul\":2887:2905   */\n              add\n                /* \"#utility.yul\":2879:2905   */\n              swap1\n              pop\n                /* \"#utility.yul\":2915:2980   */\n              tag_238\n                /* \"#utility.yul\":2977:2978   */\n              0x00\n                /* \"#utility.yul\":2966:2975   */\n              dup4\n                /* \"#utility.yul\":2962:2979   */\n              add\n                /* \"#utility.yul\":2953:2959   */\n              dup5\n                /* \"#utility.yul\":2915:2980   */\n              tag_163\n              jump\t// in\n            tag_238:\n                /* \"#utility.yul\":2777:2987   */\n              swap3\n              swap2\n              pop\n              pop\n              jump\t// out\n                /* \"#utility.yul\":2993:3107   */\n            tag_164:\n                /* \"#utility.yul\":3060:3066   */\n              0x00\n                /* \"#utility.yul\":3094:3099   */\n              dup2\n                /* \"#utility.yul\":3088:3100   */\n              mload\n                /* \"#utility.yul\":3078:3100   */\n              swap1\n              pop\n                /* \"#utility.yul\":2993:3107   */\n              swap2\n              swap1\n              pop\n              jump\t// out\n                /* \"#utility.yul\":3113:3297   */\n            tag_165:\n                /* \"#utility.yul\":3212:3223   */\n              0x00\n                /* \"#utility.yul\":3246:3252   */\n              dup3\n                /* \"#utility.yul\":3241:3244   */\n              dup3\n                /* \"#utility.yul\":3234:3253   */\n              mstore\n                /* \"#utility.yul\":3286:3290   */\n              0x20\n                /* \"#utility.yul\":3281:3284   */\n              dup3\n                /* \"#utility.yul\":3277:3291   */\n              add\n                /* \"#utility.yul\":3262:3291   */\n              swap1\n              pop\n                /* \"#utility.yul\":3113:3297   */\n              swap3\n              swap2\n              pop\n              pop\n              jump\t// out\n                /* \"#utility.yul\":3303:3435   */\n            tag_166:\n                /* \"#utility.yul\":3370:3374   */\n              0x00\n                /* \"#utility.yul\":3393:3396   */\n              dup2\n                /* \"#utility.yul\":3385:3396   */\n              swap1\n              pop\n                /* \"#utility.yul\":3423:3427   */\n              0x20\n                /* \"#utility.yul\":3418:3421   */\n              dup3\n                /* \"#utility.yul\":3414:3428   */\n              add\n                /* \"#utility.yul\":3406:3428   */\n              swap1\n              pop\n                /* \"#utility.yul\":3303:3435   */\n              swap2\n              swap1\n              pop\n              jump\t// out\n                /* \"#utility.yul\":3441:3549   */\n            tag_167:\n                /* \"#utility.yul\":3518:3542   */\n              tag_243\n                /* \"#utility.yul\":3536:3541   */\n              dup2\n                /* \"#utility.yul\":3518:3542   */\n              tag_159\n              jump\t// in\n            tag_243:\n                /* \"#utility.yul\":3513:3516   */\n              dup3\n                /* \"#utility.yul\":3506:3543   */\n              mstore\n                /* \"#utility.yul\":3441:3549   */\n              pop\n              pop\n              jump\t// out\n                /* \"#utility.yul\":3555:3734   */\n            tag_168:\n                /* \"#utility.yul\":3624:3634   */\n              0x00\n                /* \"#utility.yul\":3645:3691   */\n              tag_245\n                /* \"#utility.yul\":3687:3690   */\n              dup4\n                /* \"#utility.yul\":3679:3685   */\n              dup4\n                /* \"#utility.yul\":3645:3691   */\n              tag_167\n              jump\t// in\n            tag_245:\n                /* \"#utility.yul\":3723:3727   */\n              0x20\n                /* \"#utility.yul\":3718:3721   */\n              dup4\n                /* \"#utility.yul\":3714:3728   */\n              add\n                /* \"#utility.yul\":3700:3728   */\n              swap1\n              pop\n                /* \"#utility.yul\":3555:3734   */\n              swap3\n              swap2\n              pop\n              pop\n              jump\t// out\n                /* \"#utility.yul\":3740:3853   */\n            tag_169:\n                /* \"#utility.yul\":3810:3814   */\n              0x00\n                /* \"#utility.yul\":3842:3846   */\n              0x20\n                /* \"#utility.yul\":3837:3840   */\n              dup3\n                /* \"#utility.yul\":3833:3847   */\n              add\n                /* \"#utility.yul\":3825:3847   */\n              swap1\n              pop\n                /* \"#utility.yul\":3740:3853   */\n              swap2\n              swap1\n              pop\n              jump\t// out\n                /* \"#utility.yul\":3889:4621   */\n            tag_170:\n                /* \"#utility.yul\":4008:4011   */\n              0x00\n                /* \"#utility.yul\":4037:4091   */\n              tag_248\n                /* \"#utility.yul\":4085:4090   */\n              dup3\n                /* \"#utility.yul\":4037:4091   */\n              tag_164\n              jump\t// in\n            tag_248:\n                /* \"#utility.yul\":4107:4193   */\n              tag_249\n                /* \"#utility.yul\":4186:4192   */\n              dup2\n                /* \"#utility.yul\":4181:4184   */\n              dup6\n                /* \"#utility.yul\":4107:4193   */\n              tag_165\n              jump\t// in\n            tag_249:\n                /* \"#utility.yul\":4100:4193   */\n              swap4\n              pop\n                /* \"#utility.yul\":4217:4273   */\n              tag_250\n                /* \"#utility.yul\":4267:4272   */\n              dup4\n                /* \"#utility.yul\":4217:4273   */\n              tag_166\n              jump\t// in\n            tag_250:\n                /* \"#utility.yul\":4296:4303   */\n              dup1\n                /* \"#utility.yul\":4327:4328   */\n              0x00\n                /* \"#utility.yul\":4312:4596   */\n            tag_251:\n                /* \"#utility.yul\":4337:4343   */\n              dup4\n                /* \"#utility.yul\":4334:4335   */\n              dup2\n                /* \"#utility.yul\":4331:4344   */\n              lt\n                /* \"#utility.yul\":4312:4596   */\n              iszero\n              tag_253\n              jumpi\n                /* \"#utility.yul\":4413:4419   */\n              dup2\n                /* \"#utility.yul\":4407:4420   */\n              mload\n                /* \"#utility.yul\":4440:4503   */\n              tag_254\n                /* \"#utility.yul\":4499:4502   */\n              dup9\n                /* \"#utility.yul\":4484:4497   */\n              dup3\n                /* \"#utility.yul\":4440:4503   */\n              tag_168\n              jump\t// in\n            tag_254:\n                /* \"#utility.yul\":4433:4503   */\n              swap8\n              pop\n                /* \"#utility.yul\":4526:4586   */\n              tag_255\n                /* \"#utility.yul\":4579:4585   */\n              dup4\n                /* \"#utility.yul\":4526:4586   */\n              tag_169\n              jump\t// in\n            tag_255:\n                /* \"#utility.yul\":4516:4586   */\n              swap3\n              pop\n                /* \"#utility.yul\":4372:4596   */\n              pop\n                /* \"#utility.yul\":4359:4360   */\n              0x01\n                /* \"#utility.yul\":4356:4357   */\n              dup2\n                /* \"#utility.yul\":4352:4361   */\n              add\n                /* \"#utility.yul\":4347:4361   */\n              swap1\n              pop\n                /* \"#utility.yul\":4312:4596   */\n              jump(tag_251)\n            tag_253:\n                /* \"#utility.yul\":4316:4330   */\n              pop\n                /* \"#utility.yul\":4612:4615   */\n              dup6\n                /* \"#utility.yul\":4605:4615   */\n              swap4\n              pop\n                /* \"#utility.yul\":4013:4621   */\n              pop\n              pop\n              pop\n                /* \"#utility.yul\":3889:4621   */\n              swap3\n              swap2\n              pop\n              pop\n              jump\t// out\n                /* \"#utility.yul\":4627:4770   */\n            tag_171:\n                /* \"#utility.yul\":4723:4729   */\n              0x00\n                /* \"#utility.yul\":4757:4762   */\n              dup2\n                /* \"#utility.yul\":4751:4763   */\n              mload\n                /* \"#utility.yul\":4741:4763   */\n              swap1\n              pop\n                /* \"#utility.yul\":4627:4770   */\n              swap2\n              swap1\n              pop\n              jump\t// out\n                /* \"#utility.yul\":4776:4989   */\n            tag_172:\n                /* \"#utility.yul\":4904:4915   */\n              0x00\n                /* \"#utility.yul\":4938:4944   */\n              dup3\n                /* \"#utility.yul\":4933:4936   */\n              dup3\n                /* \"#utility.yul\":4926:4945   */\n              mstore\n                /* \"#utility.yul\":4978:4982   */\n              0x20\n                /* \"#utility.yul\":4973:4976   */\n              dup3\n                /* \"#utility.yul\":4969:4983   */\n              add\n                /* \"#utility.yul\":4954:4983   */\n              swap1\n              pop\n                /* \"#utility.yul\":4776:4989   */\n              swap3\n              swap2\n              pop\n              pop\n              jump\t// out\n                /* \"#utility.yul\":4995:5156   */\n            tag_173:\n                /* \"#utility.yul\":5091:5095   */\n              0x00\n                /* \"#utility.yul\":5114:5117   */\n              dup2\n                /* \"#utility.yul\":5106:5117   */\n              swap1\n              pop\n                /* \"#utility.yul\":5144:5148   */\n              0x20\n                /* \"#utility.yul\":5139:5142   */\n              dup3\n                /* \"#utility.yul\":5135:5149   */\n              add\n                /* \"#utility.yul\":5127:5149   */\n              swap1\n              pop\n                /* \"#utility.yul\":4995:5156   */\n              swap2\n              swap1\n              pop\n              jump\t// out\n                /* \"#utility.yul\":5162:5321   */\n            tag_174:\n                /* \"#utility.yul\":5236:5247   */\n              0x00\n                /* \"#utility.yul\":5270:5276   */\n              dup3\n                /* \"#utility.yul\":5265:5268   */\n              dup3\n                /* \"#utility.yul\":5258:5277   */\n              mstore\n                /* \"#utility.yul\":5310:5314   */\n              0x20\n                /* \"#utility.yul\":5305:5308   */\n              dup3\n                /* \"#utility.yul\":5301:5315   */\n              add\n                /* \"#utility.yul\":5286:5315   */\n              swap1\n              pop\n                /* \"#utility.yul\":5162:5321   */\n              swap3\n              swap2\n              pop\n              pop\n              jump\t// out\n                /* \"#utility.yul\":5327:5671   */\n            tag_175:\n                /* \"#utility.yul\":5405:5408   */\n              0x00\n                /* \"#utility.yul\":5433:5472   */\n              tag_261\n                /* \"#utility.yul\":5466:5471   */\n              dup3\n                /* \"#utility.yul\":5433:5472   */\n              tag_150\n              jump\t// in\n            tag_261:\n                /* \"#utility.yul\":5488:5549   */\n              tag_262\n                /* \"#utility.yul\":5542:5548   */\n              dup2\n                /* \"#utility.yul\":5537:5540   */\n              dup6\n                /* \"#utility.yul\":5488:5549   */\n              tag_174\n              jump\t// in\n            tag_262:\n                /* \"#utility.yul\":5481:5549   */\n              swap4\n              pop\n                /* \"#utility.yul\":5558:5610   */\n              tag_263\n                /* \"#utility.yul\":5603:5609   */\n              dup2\n                /* \"#utility.yul\":5598:5601   */\n              dup6\n                /* \"#utility.yul\":5591:5595   */\n              0x20\n                /* \"#utility.yul\":5584:5589   */\n              dup7\n                /* \"#utility.yul\":5580:5596   */\n              add\n                /* \"#utility.yul\":5558:5610   */\n              tag_152\n              jump\t// in\n            tag_263:\n                /* \"#utility.yul\":5635:5664   */\n              tag_264\n                /* \"#utility.yul\":5657:5663   */\n              dup2\n                /* \"#utility.yul\":5635:5664   */\n              tag_153\n              jump\t// in\n            tag_264:\n                /* \"#utility.yul\":5630:5633   */\n              dup5\n                /* \"#utility.yul\":5626:5665   */\n              add\n                /* \"#utility.yul\":5619:5665   */\n              swap2\n              pop\n                /* \"#utility.yul\":5409:5671   */\n              pop\n                /* \"#utility.yul\":5327:5671   */\n              swap3\n              swap2\n              pop\n              pop\n              jump\t// out\n                /* \"#utility.yul\":5677:5754   */\n            tag_176:\n                /* \"#utility.yul\":5714:5721   */\n              0x00\n                /* \"#utility.yul\":5743:5748   */\n              dup2\n                /* \"#utility.yul\":5732:5748   */\n              swap1\n              pop\n                /* \"#utility.yul\":5677:5754   */\n              swap2\n              swap1\n              pop\n              jump\t// out\n                /* \"#utility.yul\":5760:5868   */\n            tag_177:\n                /* \"#utility.yul\":5837:5861   */\n              tag_267\n                /* \"#utility.yul\":5855:5860   */\n              dup2\n                /* \"#utility.yul\":5837:5861   */\n              tag_176\n              jump\t// in\n            tag_267:\n                /* \"#utility.yul\":5832:5835   */\n              dup3\n                /* \"#utility.yul\":5825:5862   */\n              mstore\n                /* \"#utility.yul\":5760:5868   */\n              pop\n              pop\n              jump\t// out\n                /* \"#utility.yul\":5938:6727   */\n            tag_178:\n                /* \"#utility.yul\":6055:6058   */\n              0x00\n                /* \"#utility.yul\":6091:6095   */\n              0x60\n                /* \"#utility.yul\":6086:6089   */\n              dup4\n                /* \"#utility.yul\":6082:6096   */\n              add\n                /* \"#utility.yul\":6182:6186   */\n              0x00\n                /* \"#utility.yul\":6175:6180   */\n              dup4\n                /* \"#utility.yul\":6171:6187   */\n              add\n                /* \"#utility.yul\":6165:6188   */\n              mload\n                /* \"#utility.yul\":6235:6238   */\n              dup5\n                /* \"#utility.yul\":6229:6233   */\n              dup3\n                /* \"#utility.yul\":6225:6239   */\n              sub\n                /* \"#utility.yul\":6218:6222   */\n              0x00\n                /* \"#utility.yul\":6213:6216   */\n              dup7\n                /* \"#utility.yul\":6209:6223   */\n              add\n                /* \"#utility.yul\":6202:6240   */\n              mstore\n                /* \"#utility.yul\":6261:6334   */\n              tag_269\n                /* \"#utility.yul\":6329:6333   */\n              dup3\n                /* \"#utility.yul\":6315:6327   */\n              dup3\n                /* \"#utility.yul\":6261:6334   */\n              tag_175\n              jump\t// in\n            tag_269:\n                /* \"#utility.yul\":6253:6334   */\n              swap2\n              pop\n                /* \"#utility.yul\":6106:6345   */\n              pop\n                /* \"#utility.yul\":6432:6436   */\n              0x20\n                /* \"#utility.yul\":6425:6430   */\n              dup4\n                /* \"#utility.yul\":6421:6437   */\n              add\n                /* \"#utility.yul\":6415:6438   */\n              mload\n                /* \"#utility.yul\":6451:6514   */\n              tag_270\n                /* \"#utility.yul\":6508:6512   */\n              0x20\n                /* \"#utility.yul\":6503:6506   */\n              dup7\n                /* \"#utility.yul\":6499:6513   */\n              add\n                /* \"#utility.yul\":6485:6497   */\n              dup3\n                /* \"#utility.yul\":6451:6514   */\n              tag_177\n              jump\t// in\n            tag_270:\n                /* \"#utility.yul\":6355:6524   */\n              pop\n                /* \"#utility.yul\":6608:6612   */\n              0x40\n                /* \"#utility.yul\":6601:6606   */\n              dup4\n                /* \"#utility.yul\":6597:6613   */\n              add\n                /* \"#utility.yul\":6591:6614   */\n              mload\n                /* \"#utility.yul\":6627:6690   */\n              tag_271\n                /* \"#utility.yul\":6684:6688   */\n              0x40\n                /* \"#utility.yul\":6679:6682   */\n              dup7\n                /* \"#utility.yul\":6675:6689   */\n              add\n                /* \"#utility.yul\":6661:6673   */\n              dup3\n                /* \"#utility.yul\":6627:6690   */\n              tag_167\n              jump\t// in\n            tag_271:\n                /* \"#utility.yul\":6534:6700   */\n              pop\n                /* \"#utility.yul\":6717:6721   */\n              dup1\n                /* \"#utility.yul\":6710:6721   */\n              swap2\n              pop\n                /* \"#utility.yul\":6060:6727   */\n              pop\n                /* \"#utility.yul\":5938:6727   */\n              swap3\n              swap2\n              pop\n              pop\n              jump\t// out\n                /* \"#utility.yul\":6733:7005   */\n            tag_179:\n                /* \"#utility.yul\":6860:6870   */\n              0x00\n                /* \"#utility.yul\":6895:6999   */\n              tag_273\n                /* \"#utility.yul\":6995:6998   */\n              dup4\n                /* \"#utility.yul\":6987:6993   */\n              dup4\n                /* \"#utility.yul\":6895:6999   */\n              tag_178\n              jump\t// in\n            tag_273:\n                /* \"#utility.yul\":6881:6999   */\n              swap1\n              pop\n                /* \"#utility.yul\":6733:7005   */\n              swap3\n              swap2\n              pop\n              pop\n              jump\t// out\n                /* \"#utility.yul\":7011:7153   */\n            tag_180:\n                /* \"#utility.yul\":7110:7114   */\n              0x00\n                /* \"#utility.yul\":7142:7146   */\n              0x20\n                /* \"#utility.yul\":7137:7140   */\n              dup3\n                /* \"#utility.yul\":7133:7147   */\n              add\n                /* \"#utility.yul\":7125:7147   */\n              swap1\n              pop\n                /* \"#utility.yul\":7011:7153   */\n              swap2\n              swap1\n              pop\n              jump\t// out\n                /* \"#utility.yul\":7227:8370   */\n            tag_181:\n                /* \"#utility.yul\":7404:7407   */\n              0x00\n                /* \"#utility.yul\":7433:7516   */\n              tag_276\n                /* \"#utility.yul\":7510:7515   */\n              dup3\n                /* \"#utility.yul\":7433:7516   */\n              tag_171\n              jump\t// in\n            tag_276:\n                /* \"#utility.yul\":7532:7647   */\n              tag_277\n                /* \"#utility.yul\":7640:7646   */\n              dup2\n                /* \"#utility.yul\":7635:7638   */\n              dup6\n                /* \"#utility.yul\":7532:7647   */\n              tag_172\n              jump\t// in\n            tag_277:\n                /* \"#utility.yul\":7525:7647   */\n              swap4\n              pop\n                /* \"#utility.yul\":7673:7676   */\n              dup4\n                /* \"#utility.yul\":7718:7722   */\n              0x20\n                /* \"#utility.yul\":7710:7716   */\n              dup3\n                /* \"#utility.yul\":7706:7723   */\n              mul\n                /* \"#utility.yul\":7701:7704   */\n              dup6\n                /* \"#utility.yul\":7697:7724   */\n              add\n                /* \"#utility.yul\":7748:7833   */\n              tag_278\n                /* \"#utility.yul\":7827:7832   */\n              dup6\n                /* \"#utility.yul\":7748:7833   */\n              tag_173\n              jump\t// in\n            tag_278:\n                /* \"#utility.yul\":7856:7863   */\n              dup1\n                /* \"#utility.yul\":7887:7888   */\n              0x00\n                /* \"#utility.yul\":7872:8325   */\n            tag_279:\n                /* \"#utility.yul\":7897:7903   */\n              dup6\n                /* \"#utility.yul\":7894:7895   */\n              dup2\n                /* \"#utility.yul\":7891:7904   */\n              lt\n                /* \"#utility.yul\":7872:8325   */\n              iszero\n              tag_281\n              jumpi\n                /* \"#utility.yul\":7968:7977   */\n              dup5\n                /* \"#utility.yul\":7962:7966   */\n              dup5\n                /* \"#utility.yul\":7958:7978   */\n              sub\n                /* \"#utility.yul\":7953:7956   */\n              dup10\n                /* \"#utility.yul\":7946:7979   */\n              mstore\n                /* \"#utility.yul\":8019:8025   */\n              dup2\n                /* \"#utility.yul\":8013:8026   */\n              mload\n                /* \"#utility.yul\":8047:8169   */\n              tag_282\n                /* \"#utility.yul\":8164:8168   */\n              dup6\n                /* \"#utility.yul\":8149:8162   */\n              dup3\n                /* \"#utility.yul\":8047:8169   */\n              tag_179\n              jump\t// in\n            tag_282:\n                /* \"#utility.yul\":8039:8169   */\n              swap5\n              pop\n                /* \"#utility.yul\":8192:8281   */\n              tag_283\n                /* \"#utility.yul\":8274:8280   */\n              dup4\n                /* \"#utility.yul\":8192:8281   */\n              tag_180\n              jump\t// in\n            tag_283:\n                /* \"#utility.yul\":8182:8281   */\n              swap3\n              pop\n                /* \"#utility.yul\":8310:8314   */\n              0x20\n                /* \"#utility.yul\":8305:8308   */\n              dup11\n                /* \"#utility.yul\":8301:8315   */\n              add\n                /* \"#utility.yul\":8294:8315   */\n              swap10\n              pop\n                /* \"#utility.yul\":7932:8325   */\n              pop\n                /* \"#utility.yul\":7919:7920   */\n              0x01\n                /* \"#utility.yul\":7916:7917   */\n              dup2\n                /* \"#utility.yul\":7912:7921   */\n              add\n                /* \"#utility.yul\":7907:7921   */\n              swap1\n              pop\n                /* \"#utility.yul\":7872:8325   */\n              jump(tag_279)\n            tag_281:\n                /* \"#utility.yul\":7876:7890   */\n              pop\n                /* \"#utility.yul\":8341:8345   */\n              dup3\n                /* \"#utility.yul\":8334:8345   */\n              swap8\n              pop\n                /* \"#utility.yul\":8361:8364   */\n              dup8\n                /* \"#utility.yul\":8354:8364   */\n              swap6\n              pop\n                /* \"#utility.yul\":7409:8370   */\n              pop\n              pop\n              pop\n              pop\n              pop\n                /* \"#utility.yul\":7227:8370   */\n              swap3\n              swap2\n              pop\n              pop\n              jump\t// out\n                /* \"#utility.yul\":8376:9628   */\n            tag_27:\n                /* \"#utility.yul\":8773:8777   */\n              0x00\n                /* \"#utility.yul\":8811:8814   */\n              0xa0\n                /* \"#utility.yul\":8800:8809   */\n              dup3\n                /* \"#utility.yul\":8796:8815   */\n              add\n                /* \"#utility.yul\":8788:8815   */\n              swap1\n              pop\n                /* \"#utility.yul\":8861:8870   */\n              dup2\n                /* \"#utility.yul\":8855:8859   */\n              dup2\n                /* \"#utility.yul\":8851:8871   */\n              sub\n                /* \"#utility.yul\":8847:8848   */\n              0x00\n                /* \"#utility.yul\":8836:8845   */\n              dup4\n                /* \"#utility.yul\":8832:8849   */\n              add\n                /* \"#utility.yul\":8825:8872   */\n              mstore\n                /* \"#utility.yul\":8889:8997   */\n              tag_285\n                /* \"#utility.yul\":8992:8996   */\n              dup2\n                /* \"#utility.yul\":8983:8989   */\n              dup9\n                /* \"#utility.yul\":8889:8997   */\n              tag_170\n              jump\t// in\n            tag_285:\n                /* \"#utility.yul\":8881:8997   */\n              swap1\n              pop\n                /* \"#utility.yul\":9044:9053   */\n              dup2\n                /* \"#utility.yul\":9038:9042   */\n              dup2\n                /* \"#utility.yul\":9034:9054   */\n              sub\n                /* \"#utility.yul\":9029:9031   */\n              0x20\n                /* \"#utility.yul\":9018:9027   */\n              dup4\n                /* \"#utility.yul\":9014:9032   */\n              add\n                /* \"#utility.yul\":9007:9055   */\n              mstore\n                /* \"#utility.yul\":9072:9238   */\n              tag_286\n                /* \"#utility.yul\":9233:9237   */\n              dup2\n                /* \"#utility.yul\":9224:9230   */\n              dup8\n                /* \"#utility.yul\":9072:9238   */\n              tag_181\n              jump\t// in\n            tag_286:\n                /* \"#utility.yul\":9064:9238   */\n              swap1\n              pop\n                /* \"#utility.yul\":9248:9314   */\n              tag_287\n                /* \"#utility.yul\":9310:9312   */\n              0x40\n                /* \"#utility.yul\":9299:9308   */\n              dup4\n                /* \"#utility.yul\":9295:9313   */\n              add\n                /* \"#utility.yul\":9286:9292   */\n              dup7\n                /* \"#utility.yul\":9248:9314   */\n              tag_163\n              jump\t// in\n            tag_287:\n                /* \"#utility.yul\":9361:9370   */\n              dup2\n                /* \"#utility.yul\":9355:9359   */\n              dup2\n                /* \"#utility.yul\":9351:9371   */\n              sub\n                /* \"#utility.yul\":9346:9348   */\n              0x60\n                /* \"#utility.yul\":9335:9344   */\n              dup4\n                /* \"#utility.yul\":9331:9349   */\n              add\n                /* \"#utility.yul\":9324:9372   */\n              mstore\n                /* \"#utility.yul\":9389:9467   */\n              tag_288\n                /* \"#utility.yul\":9462:9466   */\n              dup2\n                /* \"#utility.yul\":9453:9459   */\n              dup6\n                /* \"#utility.yul\":9389:9467   */\n              tag_154\n              jump\t// in\n            tag_288:\n                /* \"#utility.yul\":9381:9467   */\n              swap1\n              pop\n                /* \"#utility.yul\":9515:9524   */\n              dup2\n                /* \"#utility.yul\":9509:9513   */\n              dup2\n                /* \"#utility.yul\":9505:9525   */\n              sub\n                /* \"#utility.yul\":9499:9502   */\n              0x80\n                /* \"#utility.yul\":9488:9497   */\n              dup4\n                /* \"#utility.yul\":9484:9503   */\n              add\n                /* \"#utility.yul\":9477:9526   */\n              mstore\n                /* \"#utility.yul\":9543:9621   */\n              tag_289\n                /* \"#utility.yul\":9616:9620   */\n              dup2\n                /* \"#utility.yul\":9607:9613   */\n              dup5\n                /* \"#utility.yul\":9543:9621   */\n              tag_154\n              jump\t// in\n            tag_289:\n                /* \"#utility.yul\":9535:9621   */\n              swap1\n              pop\n                /* \"#utility.yul\":8376:9628   */\n              swap7\n              swap6\n              pop\n              pop\n              pop\n              pop\n              pop\n              pop\n              jump\t// out\n                /* \"#utility.yul\":9634:9756   */\n            tag_182:\n                /* \"#utility.yul\":9707:9731   */\n              tag_291\n                /* \"#utility.yul\":9725:9730   */\n              dup2\n                /* \"#utility.yul\":9707:9731   */\n              tag_176\n              jump\t// in\n            tag_291:\n                /* \"#utility.yul\":9700:9705   */\n              dup2\n                /* \"#utility.yul\":9697:9732   */\n              eq\n                /* \"#utility.yul\":9687:9750   */\n              tag_292\n              jumpi\n                /* \"#utility.yul\":9746:9747   */\n              0x00\n                /* \"#utility.yul\":9743:9744   */\n              dup1\n                /* \"#utility.yul\":9736:9748   */\n              revert\n                /* \"#utility.yul\":9687:9750   */\n            tag_292:\n                /* \"#utility.yul\":9634:9756   */\n              pop\n              jump\t// out\n                /* \"#utility.yul\":9762:9901   */\n            tag_183:\n                /* \"#utility.yul\":9808:9813   */\n              0x00\n                /* \"#utility.yul\":9846:9852   */\n              dup2\n                /* \"#utility.yul\":9833:9853   */\n              calldataload\n                /* \"#utility.yul\":9824:9853   */\n              swap1\n              pop\n                /* \"#utility.yul\":9862:9895   */\n              tag_294\n                /* \"#utility.yul\":9889:9894   */\n              dup2\n                /* \"#utility.yul\":9862:9895   */\n              tag_182\n              jump\t// in\n            tag_294:\n                /* \"#utility.yul\":9762:9901   */\n              swap3\n              swap2\n              pop\n              pop\n              jump\t// out\n                /* \"#utility.yul\":9907:10236   */\n            tag_39:\n                /* \"#utility.yul\":9966:9972   */\n              0x00\n                /* \"#utility.yul\":10015:10017   */\n              0x20\n                /* \"#utility.yul\":10003:10012   */\n              dup3\n                /* \"#utility.yul\":9994:10001   */\n              dup5\n                /* \"#utility.yul\":9990:10013   */\n              sub\n                /* \"#utility.yul\":9986:10018   */\n              slt\n                /* \"#utility.yul\":9983:10102   */\n              iszero\n              tag_296\n              jumpi\n                /* \"#utility.yul\":10021:10100   */\n              tag_297\n              tag_156\n              jump\t// in\n            tag_297:\n                /* \"#utility.yul\":9983:10102   */\n            tag_296:\n                /* \"#utility.yul\":10141:10142   */\n              0x00\n                /* \"#utility.yul\":10166:10219   */\n              tag_298\n                /* \"#utility.yul\":10211:10218   */\n              dup5\n                /* \"#utility.yul\":10202:10208   */\n              dup3\n                /* \"#utility.yul\":10191:10200   */\n              dup6\n                /* \"#utility.yul\":10187:10209   */\n              add\n                /* \"#utility.yul\":10166:10219   */\n              tag_183\n              jump\t// in\n            tag_298:\n                /* \"#utility.yul\":10156:10219   */\n              swap2\n              pop\n                /* \"#utility.yul\":10112:10229   */\n              pop\n                /* \"#utility.yul\":9907:10236   */\n              swap3\n              swap2\n              pop\n              pop\n              jump\t// out\n                /* \"#utility.yul\":10242:10360   */\n            tag_184:\n                /* \"#utility.yul\":10329:10353   */\n              tag_300\n                /* \"#utility.yul\":10347:10352   */\n              dup2\n                /* \"#utility.yul\":10329:10353   */\n              tag_176\n              jump\t// in\n            tag_300:\n                /* \"#utility.yul\":10324:10327   */\n              dup3\n                /* \"#utility.yul\":10317:10354   */\n              mstore\n                /* \"#utility.yul\":10242:10360   */\n              pop\n              pop\n              jump\t// out\n                /* \"#utility.yul\":10366:10484   */\n            tag_185:\n                /* \"#utility.yul\":10453:10477   */\n              tag_302\n                /* \"#utility.yul\":10471:10476   */\n              dup2\n                /* \"#utility.yul\":10453:10477   */\n              tag_159\n              jump\t// in\n            tag_302:\n                /* \"#utility.yul\":10448:10451   */\n              dup3\n                /* \"#utility.yul\":10441:10478   */\n              mstore\n                /* \"#utility.yul\":10366:10484   */\n              pop\n              pop\n              jump\t// out\n                /* \"#utility.yul\":10490:11023   */\n            tag_42:\n                /* \"#utility.yul\":10659:10663   */\n              0x00\n                /* \"#utility.yul\":10697:10699   */\n              0x60\n                /* \"#utility.yul\":10686:10695   */\n              dup3\n                /* \"#utility.yul\":10682:10700   */\n              add\n                /* \"#utility.yul\":10674:10700   */\n              swap1\n              pop\n                /* \"#utility.yul\":10746:10755   */\n              dup2\n                /* \"#utility.yul\":10740:10744   */\n              dup2\n                /* \"#utility.yul\":10736:10756   */\n              sub\n                /* \"#utility.yul\":10732:10733   */\n              0x00\n                /* \"#utility.yul\":10721:10730   */\n              dup4\n                /* \"#utility.yul\":10717:10734   */\n              add\n                /* \"#utility.yul\":10710:10757   */\n              mstore\n                /* \"#utility.yul\":10774:10852   */\n              tag_304\n                /* \"#utility.yul\":10847:10851   */\n              dup2\n                /* \"#utility.yul\":10838:10844   */\n              dup7\n                /* \"#utility.yul\":10774:10852   */\n              tag_154\n              jump\t// in\n            tag_304:\n                /* \"#utility.yul\":10766:10852   */\n              swap1\n              pop\n                /* \"#utility.yul\":10862:10934   */\n              tag_305\n                /* \"#utility.yul\":10930:10932   */\n              0x20\n                /* \"#utility.yul\":10919:10928   */\n              dup4\n                /* \"#utility.yul\":10915:10933   */\n              add\n                /* \"#utility.yul\":10906:10912   */\n              dup6\n                /* \"#utility.yul\":10862:10934   */\n              tag_184\n              jump\t// in\n            tag_305:\n                /* \"#utility.yul\":10944:11016   */\n              tag_306\n                /* \"#utility.yul\":11012:11014   */\n              0x40\n                /* \"#utility.yul\":11001:11010   */\n              dup4\n                /* \"#utility.yul\":10997:11015   */\n              add\n                /* \"#utility.yul\":10988:10994   */\n              dup5\n                /* \"#utility.yul\":10944:11016   */\n              tag_185\n              jump\t// in\n            tag_306:\n                /* \"#utility.yul\":10490:11023   */\n              swap5\n              swap4\n              pop\n              pop\n              pop\n              pop\n              jump\t// out\n                /* \"#utility.yul\":11029:11251   */\n            tag_50:\n                /* \"#utility.yul\":11122:11126   */\n              0x00\n                /* \"#utility.yul\":11160:11162   */\n              0x20\n                /* \"#utility.yul\":11149:11158   */\n              dup3\n                /* \"#utility.yul\":11145:11163   */\n              add\n                /* \"#utility.yul\":11137:11163   */\n              swap1\n              pop\n                /* \"#utility.yul\":11173:11244   */\n              tag_308\n                /* \"#utility.yul\":11241:11242   */\n              0x00\n                /* \"#utility.yul\":11230:11239   */\n              dup4\n                /* \"#utility.yul\":11226:11243   */\n              add\n                /* \"#utility.yul\":11217:11223   */\n              dup5\n                /* \"#utility.yul\":11173:11244   */\n              tag_185\n              jump\t// in\n            tag_308:\n                /* \"#utility.yul\":11029:11251   */\n              swap3\n              swap2\n              pop\n              pop\n              jump\t// out\n                /* \"#utility.yul\":11257:11374   */\n            tag_186:\n                /* \"#utility.yul\":11366:11367   */\n              0x00\n                /* \"#utility.yul\":11363:11364   */\n              dup1\n                /* \"#utility.yul\":11356:11368   */\n              revert\n                /* \"#utility.yul\":11380:11497   */\n            tag_187:\n                /* \"#utility.yul\":11489:11490   */\n              0x00\n                /* \"#utility.yul\":11486:11487   */\n              dup1\n                /* \"#utility.yul\":11479:11491   */\n              revert\n                /* \"#utility.yul\":11503:11683   */\n            tag_188:\n                /* \"#utility.yul\":11551:11628   */\n              0x4e487b7100000000000000000000000000000000000000000000000000000000\n                /* \"#utility.yul\":11548:11549   */\n              0x00\n                /* \"#utility.yul\":11541:11629   */\n              mstore\n                /* \"#utility.yul\":11648:11652   */\n              0x41\n                /* \"#utility.yul\":11645:11646   */\n              0x04\n                /* \"#utility.yul\":11638:11653   */\n              mstore\n                /* \"#utility.yul\":11672:11676   */\n              0x24\n                /* \"#utility.yul\":11669:11670   */\n              0x00\n                /* \"#utility.yul\":11662:11677   */\n              revert\n                /* \"#utility.yul\":11689:11970   */\n            tag_189:\n                /* \"#utility.yul\":11772:11799   */\n              tag_313\n                /* \"#utility.yul\":11794:11798   */\n              dup3\n                /* \"#utility.yul\":11772:11799   */\n              tag_153\n              jump\t// in\n            tag_313:\n                /* \"#utility.yul\":11764:11770   */\n              dup2\n                /* \"#utility.yul\":11760:11800   */\n              add\n                /* \"#utility.yul\":11902:11908   */\n              dup2\n                /* \"#utility.yul\":11890:11900   */\n              dup2\n                /* \"#utility.yul\":11887:11909   */\n              lt\n                /* \"#utility.yul\":11866:11884   */\n              0xffffffffffffffff\n                /* \"#utility.yul\":11854:11864   */\n              dup3\n                /* \"#utility.yul\":11851:11885   */\n              gt\n                /* \"#utility.yul\":11848:11910   */\n              or\n                /* \"#utility.yul\":11845:11933   */\n              iszero\n              tag_314\n              jumpi\n                /* \"#utility.yul\":11913:11931   */\n              tag_315\n              tag_188\n              jump\t// in\n            tag_315:\n                /* \"#utility.yul\":11845:11933   */\n            tag_314:\n                /* \"#utility.yul\":11953:11963   */\n              dup1\n                /* \"#utility.yul\":11949:11951   */\n              0x40\n                /* \"#utility.yul\":11942:11964   */\n              mstore\n                /* \"#utility.yul\":11732:11970   */\n              pop\n                /* \"#utility.yul\":11689:11970   */\n              pop\n              pop\n              jump\t// out\n                /* \"#utility.yul\":11976:12105   */\n            tag_190:\n                /* \"#utility.yul\":12010:12016   */\n              0x00\n                /* \"#utility.yul\":12037:12057   */\n              tag_317\n              tag_155\n              jump\t// in\n            tag_317:\n                /* \"#utility.yul\":12027:12057   */\n              swap1\n              pop\n                /* \"#utility.yul\":12066:12099   */\n              tag_318\n                /* \"#utility.yul\":12094:12098   */\n              dup3\n                /* \"#utility.yul\":12086:12092   */\n              dup3\n                /* \"#utility.yul\":12066:12099   */\n              tag_189\n              jump\t// in\n            tag_318:\n                /* \"#utility.yul\":11976:12105   */\n              swap2\n              swap1\n              pop\n              jump\t// out\n                /* \"#utility.yul\":12111:12419   */\n            tag_191:\n                /* \"#utility.yul\":12173:12177   */\n              0x00\n                /* \"#utility.yul\":12263:12281   */\n              0xffffffffffffffff\n                /* \"#utility.yul\":12255:12261   */\n              dup3\n                /* \"#utility.yul\":12252:12282   */\n              gt\n                /* \"#utility.yul\":12249:12305   */\n              iszero\n              tag_320\n              jumpi\n                /* \"#utility.yul\":12285:12303   */\n              tag_321\n              tag_188\n              jump\t// in\n            tag_321:\n                /* \"#utility.yul\":12249:12305   */\n            tag_320:\n                /* \"#utility.yul\":12323:12352   */\n              tag_322\n                /* \"#utility.yul\":12345:12351   */\n              dup3\n                /* \"#utility.yul\":12323:12352   */\n              tag_153\n              jump\t// in\n            tag_322:\n                /* \"#utility.yul\":12315:12352   */\n              swap1\n              pop\n                /* \"#utility.yul\":12407:12411   */\n              0x20\n                /* \"#utility.yul\":12401:12405   */\n              dup2\n                /* \"#utility.yul\":12397:12412   */\n              add\n                /* \"#utility.yul\":12389:12412   */\n              swap1\n              pop\n                /* \"#utility.yul\":12111:12419   */\n              swap2\n              swap1\n              pop\n              jump\t// out\n                /* \"#utility.yul\":12425:12579   */\n            tag_192:\n                /* \"#utility.yul\":12509:12515   */\n              dup3\n                /* \"#utility.yul\":12504:12507   */\n              dup2\n                /* \"#utility.yul\":12499:12502   */\n              dup4\n                /* \"#utility.yul\":12486:12516   */\n              calldatacopy\n                /* \"#utility.yul\":12571:12572   */\n              0x00\n                /* \"#utility.yul\":12562:12568   */\n              dup4\n                /* \"#utility.yul\":12557:12560   */\n              dup4\n                /* \"#utility.yul\":12553:12569   */\n              add\n                /* \"#utility.yul\":12546:12573   */\n              mstore\n                /* \"#utility.yul\":12425:12579   */\n              pop\n              pop\n              pop\n              jump\t// out\n                /* \"#utility.yul\":12585:12997   */\n            tag_193:\n                /* \"#utility.yul\":12663:12668   */\n              0x00\n                /* \"#utility.yul\":12688:12754   */\n              tag_325\n                /* \"#utility.yul\":12704:12753   */\n              tag_326\n                /* \"#utility.yul\":12746:12752   */\n              dup5\n                /* \"#utility.yul\":12704:12753   */\n              tag_191\n              jump\t// in\n            tag_326:\n                /* \"#utility.yul\":12688:12754   */\n              tag_190\n              jump\t// in\n            tag_325:\n                /* \"#utility.yul\":12679:12754   */\n              swap1\n              pop\n                /* \"#utility.yul\":12777:12783   */\n              dup3\n                /* \"#utility.yul\":12770:12775   */\n              dup2\n                /* \"#utility.yul\":12763:12784   */\n              mstore\n                /* \"#utility.yul\":12815:12819   */\n              0x20\n                /* \"#utility.yul\":12808:12813   */\n              dup2\n                /* \"#utility.yul\":12804:12820   */\n              add\n                /* \"#utility.yul\":12853:12856   */\n              dup5\n                /* \"#utility.yul\":12844:12850   */\n              dup5\n                /* \"#utility.yul\":12839:12842   */\n              dup5\n                /* \"#utility.yul\":12835:12851   */\n              add\n                /* \"#utility.yul\":12832:12857   */\n              gt\n                /* \"#utility.yul\":12829:12941   */\n              iszero\n              tag_327\n              jumpi\n                /* \"#utility.yul\":12860:12939   */\n              tag_328\n              tag_187\n              jump\t// in\n            tag_328:\n                /* \"#utility.yul\":12829:12941   */\n            tag_327:\n                /* \"#utility.yul\":12950:12991   */\n              tag_329\n                /* \"#utility.yul\":12984:12990   */\n              dup5\n                /* \"#utility.yul\":12979:12982   */\n              dup3\n                /* \"#utility.yul\":12974:12977   */\n              dup6\n                /* \"#utility.yul\":12950:12991   */\n              tag_192\n              jump\t// in\n            tag_329:\n                /* \"#utility.yul\":12669:12997   */\n              pop\n                /* \"#utility.yul\":12585:12997   */\n              swap4\n              swap3\n              pop\n              pop\n              pop\n              jump\t// out\n                /* \"#utility.yul\":13017:13357   */\n            tag_194:\n                /* \"#utility.yul\":13073:13078   */\n              0x00\n                /* \"#utility.yul\":13122:13125   */\n              dup3\n                /* \"#utility.yul\":13115:13119   */\n              0x1f\n                /* \"#utility.yul\":13107:13113   */\n              dup4\n                /* \"#utility.yul\":13103:13120   */\n              add\n                /* \"#utility.yul\":13099:13126   */\n              slt\n                /* \"#utility.yul\":13089:13211   */\n              tag_331\n              jumpi\n                /* \"#utility.yul\":13130:13209   */\n              tag_332\n              tag_186\n              jump\t// in\n            tag_332:\n                /* \"#utility.yul\":13089:13211   */\n            tag_331:\n                /* \"#utility.yul\":13247:13253   */\n              dup2\n                /* \"#utility.yul\":13234:13254   */\n              calldataload\n                /* \"#utility.yul\":13272:13351   */\n              tag_333\n                /* \"#utility.yul\":13347:13350   */\n              dup5\n                /* \"#utility.yul\":13339:13345   */\n              dup3\n                /* \"#utility.yul\":13332:13336   */\n              0x20\n                /* \"#utility.yul\":13324:13330   */\n              dup7\n                /* \"#utility.yul\":13320:13337   */\n              add\n                /* \"#utility.yul\":13272:13351   */\n              tag_193\n              jump\t// in\n            tag_333:\n                /* \"#utility.yul\":13263:13351   */\n              swap2\n              pop\n                /* \"#utility.yul\":13079:13357   */\n              pop\n                /* \"#utility.yul\":13017:13357   */\n              swap3\n              swap2\n              pop\n              pop\n              jump\t// out\n                /* \"#utility.yul\":13363:13872   */\n            tag_53:\n                /* \"#utility.yul\":13432:13438   */\n              0x00\n                /* \"#utility.yul\":13481:13483   */\n              0x20\n                /* \"#utility.yul\":13469:13478   */\n              dup3\n                /* \"#utility.yul\":13460:13467   */\n              dup5\n                /* \"#utility.yul\":13456:13479   */\n              sub\n                /* \"#utility.yul\":13452:13484   */\n              slt\n                /* \"#utility.yul\":13449:13568   */\n              iszero\n              tag_335\n              jumpi\n                /* \"#utility.yul\":13487:13566   */\n              tag_336\n              tag_156\n              jump\t// in\n            tag_336:\n                /* \"#utility.yul\":13449:13568   */\n            tag_335:\n                /* \"#utility.yul\":13635:13636   */\n              0x00\n                /* \"#utility.yul\":13624:13633   */\n              dup3\n                /* \"#utility.yul\":13620:13637   */\n              add\n                /* \"#utility.yul\":13607:13638   */\n              calldataload\n                /* \"#utility.yul\":13665:13683   */\n              0xffffffffffffffff\n                /* \"#utility.yul\":13657:13663   */\n              dup2\n                /* \"#utility.yul\":13654:13684   */\n              gt\n                /* \"#utility.yul\":13651:13768   */\n              iszero\n              tag_337\n              jumpi\n                /* \"#utility.yul\":13687:13766   */\n              tag_338\n              tag_157\n              jump\t// in\n            tag_338:\n                /* \"#utility.yul\":13651:13768   */\n            tag_337:\n                /* \"#utility.yul\":13792:13855   */\n              tag_339\n                /* \"#utility.yul\":13847:13854   */\n              dup5\n                /* \"#utility.yul\":13838:13844   */\n              dup3\n                /* \"#utility.yul\":13827:13836   */\n              dup6\n                /* \"#utility.yul\":13823:13845   */\n              add\n                /* \"#utility.yul\":13792:13855   */\n              tag_194\n              jump\t// in\n            tag_339:\n                /* \"#utility.yul\":13782:13855   */\n              swap2\n              pop\n                /* \"#utility.yul\":13578:13865   */\n              pop\n                /* \"#utility.yul\":13363:13872   */\n              swap3\n              swap2\n              pop\n              pop\n              jump\t// out\n                /* \"#utility.yul\":13878:14058   */\n            tag_195:\n                /* \"#utility.yul\":13926:14003   */\n              0x4e487b7100000000000000000000000000000000000000000000000000000000\n                /* \"#utility.yul\":13923:13924   */\n              0x00\n                /* \"#utility.yul\":13916:14004   */\n              mstore\n                /* \"#utility.yul\":14023:14027   */\n              0x22\n                /* \"#utility.yul\":14020:14021   */\n              0x04\n                /* \"#utility.yul\":14013:14028   */\n              mstore\n                /* \"#utility.yul\":14047:14051   */\n              0x24\n                /* \"#utility.yul\":14044:14045   */\n              0x00\n                /* \"#utility.yul\":14037:14052   */\n              revert\n                /* \"#utility.yul\":14064:14384   */\n            tag_56:\n                /* \"#utility.yul\":14108:14114   */\n              0x00\n                /* \"#utility.yul\":14145:14146   */\n              0x02\n                /* \"#utility.yul\":14139:14143   */\n              dup3\n                /* \"#utility.yul\":14135:14147   */\n              div\n                /* \"#utility.yul\":14125:14147   */\n              swap1\n              pop\n                /* \"#utility.yul\":14192:14193   */\n              0x01\n                /* \"#utility.yul\":14186:14190   */\n              dup3\n                /* \"#utility.yul\":14182:14194   */\n              and\n                /* \"#utility.yul\":14213:14231   */\n              dup1\n                /* \"#utility.yul\":14203:14284   */\n              tag_342\n              jumpi\n                /* \"#utility.yul\":14269:14273   */\n              0x7f\n                /* \"#utility.yul\":14261:14267   */\n              dup3\n                /* \"#utility.yul\":14257:14274   */\n              and\n                /* \"#utility.yul\":14247:14274   */\n              swap2\n              pop\n                /* \"#utility.yul\":14203:14284   */\n            tag_342:\n                /* \"#utility.yul\":14331:14333   */\n              0x20\n                /* \"#utility.yul\":14323:14329   */\n              dup3\n                /* \"#utility.yul\":14320:14334   */\n              lt\n                /* \"#utility.yul\":14300:14318   */\n              dup2\n                /* \"#utility.yul\":14297:14335   */\n              eq\n                /* \"#utility.yul\":14294:14378   */\n              iszero\n              tag_343\n              jumpi\n                /* \"#utility.yul\":14350:14368   */\n              tag_344\n              tag_195\n              jump\t// in\n            tag_344:\n                /* \"#utility.yul\":14294:14378   */\n            tag_343:\n                /* \"#utility.yul\":14115:14384   */\n              pop\n                /* \"#utility.yul\":14064:14384   */\n              swap2\n              swap1\n              pop\n              jump\t// out\n                /* \"#utility.yul\":14390:14622   */\n            tag_196:\n                /* \"#utility.yul\":14530:14564   */\n              0x4f6e6c7920616e20616363657074656420617574686f722063616e2061707072\n                /* \"#utility.yul\":14526:14527   */\n              0x00\n                /* \"#utility.yul\":14518:14524   */\n              dup3\n                /* \"#utility.yul\":14514:14528   */\n              add\n                /* \"#utility.yul\":14507:14565   */\n              mstore\n                /* \"#utility.yul\":14599:14614   */\n              0x6f76652061207265717565737400000000000000000000000000000000000000\n                /* \"#utility.yul\":14594:14596   */\n              0x20\n                /* \"#utility.yul\":14586:14592   */\n              dup3\n                /* \"#utility.yul\":14582:14597   */\n              add\n                /* \"#utility.yul\":14575:14615   */\n              mstore\n                /* \"#utility.yul\":14390:14622   */\n              pop\n              jump\t// out\n                /* \"#utility.yul\":14628:14994   */\n            tag_197:\n                /* \"#utility.yul\":14770:14773   */\n              0x00\n                /* \"#utility.yul\":14791:14858   */\n              tag_347\n                /* \"#utility.yul\":14855:14857   */\n              0x2d\n                /* \"#utility.yul\":14850:14853   */\n              dup4\n                /* \"#utility.yul\":14791:14858   */\n              tag_151\n              jump\t// in\n            tag_347:\n                /* \"#utility.yul\":14784:14858   */\n              swap2\n              pop\n                /* \"#utility.yul\":14867:14960   */\n              tag_348\n                /* \"#utility.yul\":14956:14959   */\n              dup3\n                /* \"#utility.yul\":14867:14960   */\n              tag_196\n              jump\t// in\n            tag_348:\n                /* \"#utility.yul\":14985:14987   */\n              0x40\n                /* \"#utility.yul\":14980:14983   */\n              dup3\n                /* \"#utility.yul\":14976:14988   */\n              add\n                /* \"#utility.yul\":14969:14988   */\n              swap1\n              pop\n                /* \"#utility.yul\":14628:14994   */\n              swap2\n              swap1\n              pop\n              jump\t// out\n                /* \"#utility.yul\":15000:15419   */\n            tag_98:\n                /* \"#utility.yul\":15166:15170   */\n              0x00\n                /* \"#utility.yul\":15204:15206   */\n              0x20\n                /* \"#utility.yul\":15193:15202   */\n              dup3\n                /* \"#utility.yul\":15189:15207   */\n              add\n                /* \"#utility.yul\":15181:15207   */\n              swap1\n              pop\n                /* \"#utility.yul\":15253:15262   */\n              dup2\n                /* \"#utility.yul\":15247:15251   */\n              dup2\n                /* \"#utility.yul\":15243:15263   */\n              sub\n                /* \"#utility.yul\":15239:15240   */\n              0x00\n                /* \"#utility.yul\":15228:15237   */\n              dup4\n                /* \"#utility.yul\":15224:15241   */\n              add\n                /* \"#utility.yul\":15217:15264   */\n              mstore\n                /* \"#utility.yul\":15281:15412   */\n              tag_350\n                /* \"#utility.yul\":15407:15411   */\n              dup2\n                /* \"#utility.yul\":15281:15412   */\n              tag_197\n              jump\t// in\n            tag_350:\n                /* \"#utility.yul\":15273:15412   */\n              swap1\n              pop\n                /* \"#utility.yul\":15000:15419   */\n              swap2\n              swap1\n              pop\n              jump\t// out\n                /* \"#utility.yul\":15425:15605   */\n            tag_101:\n                /* \"#utility.yul\":15473:15550   */\n              0x4e487b7100000000000000000000000000000000000000000000000000000000\n                /* \"#utility.yul\":15470:15471   */\n              0x00\n                /* \"#utility.yul\":15463:15551   */\n              mstore\n                /* \"#utility.yul\":15570:15574   */\n              0x32\n                /* \"#utility.yul\":15567:15568   */\n              0x04\n                /* \"#utility.yul\":15560:15575   */\n              mstore\n                /* \"#utility.yul\":15594:15598   */\n              0x24\n                /* \"#utility.yul\":15591:15592   */\n              0x00\n                /* \"#utility.yul\":15584:15599   */\n              revert\n                /* \"#utility.yul\":15611:15862   */\n            tag_198:\n                /* \"#utility.yul\":15751:15785   */\n              0x417574686f72206f6620746865207265717565737420697320616c7265616479\n                /* \"#utility.yul\":15747:15748   */\n              0x00\n                /* \"#utility.yul\":15739:15745   */\n              dup3\n                /* \"#utility.yul\":15735:15749   */\n              add\n                /* \"#utility.yul\":15728:15786   */\n              mstore\n                /* \"#utility.yul\":15820:15854   */\n              0x20696e636c7564656420696e20746865206c697374206f6620617574686f7273\n                /* \"#utility.yul\":15815:15817   */\n              0x20\n                /* \"#utility.yul\":15807:15813   */\n              dup3\n                /* \"#utility.yul\":15803:15818   */\n              add\n                /* \"#utility.yul\":15796:15855   */\n              mstore\n                /* \"#utility.yul\":15611:15862   */\n              pop\n              jump\t// out\n                /* \"#utility.yul\":15868:16234   */\n            tag_199:\n                /* \"#utility.yul\":16010:16013   */\n              0x00\n                /* \"#utility.yul\":16031:16098   */\n              tag_354\n                /* \"#utility.yul\":16095:16097   */\n              0x40\n                /* \"#utility.yul\":16090:16093   */\n              dup4\n                /* \"#utility.yul\":16031:16098   */\n              tag_151\n              jump\t// in\n            tag_354:\n                /* \"#utility.yul\":16024:16098   */\n              swap2\n              pop\n                /* \"#utility.yul\":16107:16200   */\n              tag_355\n                /* \"#utility.yul\":16196:16199   */\n              dup3\n                /* \"#utility.yul\":16107:16200   */\n              tag_198\n              jump\t// in\n            tag_355:\n                /* \"#utility.yul\":16225:16227   */\n              0x40\n                /* \"#utility.yul\":16220:16223   */\n              dup3\n                /* \"#utility.yul\":16216:16228   */\n              add\n                /* \"#utility.yul\":16209:16228   */\n              swap1\n              pop\n                /* \"#utility.yul\":15868:16234   */\n              swap2\n              swap1\n              pop\n              jump\t// out\n                /* \"#utility.yul\":16240:16659   */\n            tag_105:\n                /* \"#utility.yul\":16406:16410   */\n              0x00\n                /* \"#utility.yul\":16444:16446   */\n              0x20\n                /* \"#utility.yul\":16433:16442   */\n              dup3\n                /* \"#utility.yul\":16429:16447   */\n              add\n                /* \"#utility.yul\":16421:16447   */\n              swap1\n              pop\n                /* \"#utility.yul\":16493:16502   */\n              dup2\n                /* \"#utility.yul\":16487:16491   */\n              dup2\n                /* \"#utility.yul\":16483:16503   */\n              sub\n                /* \"#utility.yul\":16479:16480   */\n              0x00\n                /* \"#utility.yul\":16468:16477   */\n              dup4\n                /* \"#utility.yul\":16464:16481   */\n              add\n                /* \"#utility.yul\":16457:16504   */\n              mstore\n                /* \"#utility.yul\":16521:16652   */\n              tag_357\n                /* \"#utility.yul\":16647:16651   */\n              dup2\n                /* \"#utility.yul\":16521:16652   */\n              tag_199\n              jump\t// in\n            tag_357:\n                /* \"#utility.yul\":16513:16652   */\n              swap1\n              pop\n                /* \"#utility.yul\":16240:16659   */\n              swap2\n              swap1\n              pop\n              jump\t// out\n                /* \"#utility.yul\":16665:16845   */\n            tag_200:\n                /* \"#utility.yul\":16713:16790   */\n              0x4e487b7100000000000000000000000000000000000000000000000000000000\n                /* \"#utility.yul\":16710:16711   */\n              0x00\n                /* \"#utility.yul\":16703:16791   */\n              mstore\n                /* \"#utility.yul\":16810:16814   */\n              0x11\n                /* \"#utility.yul\":16807:16808   */\n              0x04\n                /* \"#utility.yul\":16800:16815   */\n              mstore\n                /* \"#utility.yul\":16834:16838   */\n              0x24\n                /* \"#utility.yul\":16831:16832   */\n              0x00\n                /* \"#utility.yul\":16824:16839   */\n              revert\n                /* \"#utility.yul\":16851:17042   */\n            tag_107:\n                /* \"#utility.yul\":16891:16895   */\n              0x00\n                /* \"#utility.yul\":16911:16931   */\n              tag_360\n                /* \"#utility.yul\":16929:16930   */\n              dup3\n                /* \"#utility.yul\":16911:16931   */\n              tag_176\n              jump\t// in\n            tag_360:\n                /* \"#utility.yul\":16906:16931   */\n              swap2\n              pop\n                /* \"#utility.yul\":16945:16965   */\n              tag_361\n                /* \"#utility.yul\":16963:16964   */\n              dup4\n                /* \"#utility.yul\":16945:16965   */\n              tag_176\n              jump\t// in\n            tag_361:\n                /* \"#utility.yul\":16940:16965   */\n              swap3\n              pop\n                /* \"#utility.yul\":16984:16985   */\n              dup3\n                /* \"#utility.yul\":16981:16982   */\n              dup3\n                /* \"#utility.yul\":16978:16986   */\n              lt\n                /* \"#utility.yul\":16975:17009   */\n              iszero\n              tag_362\n              jumpi\n                /* \"#utility.yul\":16989:17007   */\n              tag_363\n              tag_200\n              jump\t// in\n            tag_363:\n                /* \"#utility.yul\":16975:17009   */\n            tag_362:\n                /* \"#utility.yul\":17034:17035   */\n              dup3\n                /* \"#utility.yul\":17031:17032   */\n              dup3\n                /* \"#utility.yul\":17027:17036   */\n              sub\n                /* \"#utility.yul\":17019:17036   */\n              swap1\n              pop\n                /* \"#utility.yul\":16851:17042   */\n              swap3\n              swap2\n              pop\n              pop\n              jump\t// out\n                /* \"#utility.yul\":17048:17228   */\n            tag_123:\n                /* \"#utility.yul\":17096:17173   */\n              0x4e487b7100000000000000000000000000000000000000000000000000000000\n                /* \"#utility.yul\":17093:17094   */\n              0x00\n                /* \"#utility.yul\":17086:17174   */\n              mstore\n                /* \"#utility.yul\":17193:17197   */\n              0x31\n                /* \"#utility.yul\":17190:17191   */\n              0x04\n                /* \"#utility.yul\":17183:17198   */\n              mstore\n                /* \"#utility.yul\":17217:17221   */\n              0x24\n                /* \"#utility.yul\":17214:17215   */\n              0x00\n                /* \"#utility.yul\":17207:17222   */\n              revert\n                /* \"#utility.yul\":17234:17465   */\n            tag_201:\n                /* \"#utility.yul\":17374:17408   */\n              0x417574686f7220616c72656164792065786973747320696e20746865206c6973\n                /* \"#utility.yul\":17370:17371   */\n              0x00\n                /* \"#utility.yul\":17362:17368   */\n              dup3\n                /* \"#utility.yul\":17358:17372   */\n              add\n                /* \"#utility.yul\":17351:17409   */\n              mstore\n                /* \"#utility.yul\":17443:17457   */\n              0x74206f6620617574686f72730000000000000000000000000000000000000000\n                /* \"#utility.yul\":17438:17440   */\n              0x20\n                /* \"#utility.yul\":17430:17436   */\n              dup3\n                /* \"#utility.yul\":17426:17441   */\n              add\n                /* \"#utility.yul\":17419:17458   */\n              mstore\n                /* \"#utility.yul\":17234:17465   */\n              pop\n              jump\t// out\n                /* \"#utility.yul\":17471:17837   */\n            tag_202:\n                /* \"#utility.yul\":17613:17616   */\n              0x00\n                /* \"#utility.yul\":17634:17701   */\n              tag_367\n                /* \"#utility.yul\":17698:17700   */\n              0x2c\n                /* \"#utility.yul\":17693:17696   */\n              dup4\n                /* \"#utility.yul\":17634:17701   */\n              tag_151\n              jump\t// in\n            tag_367:\n                /* \"#utility.yul\":17627:17701   */\n              swap2\n              pop\n                /* \"#utility.yul\":17710:17803   */\n              tag_368\n                /* \"#utility.yul\":17799:17802   */\n              dup3\n                /* \"#utility.yul\":17710:17803   */\n              tag_201\n              jump\t// in\n            tag_368:\n                /* \"#utility.yul\":17828:17830   */\n              0x40\n                /* \"#utility.yul\":17823:17826   */\n              dup3\n                /* \"#utility.yul\":17819:17831   */\n              add\n                /* \"#utility.yul\":17812:17831   */\n              swap1\n              pop\n                /* \"#utility.yul\":17471:17837   */\n              swap2\n              swap1\n              pop\n              jump\t// out\n                /* \"#utility.yul\":17843:18262   */\n            tag_133:\n                /* \"#utility.yul\":18009:18013   */\n              0x00\n                /* \"#utility.yul\":18047:18049   */\n              0x20\n                /* \"#utility.yul\":18036:18045   */\n              dup3\n                /* \"#utility.yul\":18032:18050   */\n              add\n                /* \"#utility.yul\":18024:18050   */\n              swap1\n              pop\n                /* \"#utility.yul\":18096:18105   */\n              dup2\n                /* \"#utility.yul\":18090:18094   */\n              dup2\n                /* \"#utility.yul\":18086:18106   */\n              sub\n                /* \"#utility.yul\":18082:18083   */\n              0x00\n                /* \"#utility.yul\":18071:18080   */\n              dup4\n                /* \"#utility.yul\":18067:18084   */\n              add\n                /* \"#utility.yul\":18060:18107   */\n              mstore\n                /* \"#utility.yul\":18124:18255   */\n              tag_370\n                /* \"#utility.yul\":18250:18254   */\n              dup2\n                /* \"#utility.yul\":18124:18255   */\n              tag_202\n              jump\t// in\n            tag_370:\n                /* \"#utility.yul\":18116:18255   */\n              swap1\n              pop\n                /* \"#utility.yul\":17843:18262   */\n              swap2\n              swap1\n              pop\n              jump\t// out\n\n            auxdata: 0xa2646970667358221220dbc7f9452eda781340872a696dd0fc6f09254ee7b4ce222cf478d2f779575dfd64736f6c63430008090033\n        }\n    }\n\n    auxdata: 0xa26469706673582212207c0c9bdaca414bdc751443aa7f1db30e731f32e3ea0e41d9e312ae52f557b4f564736f6c63430008090033\n}\n","bytecode":{"linkReferences":{},"object":"608060405234801561001057600080fd5b50612493806100206000396000f3fe60806040523480156200001157600080fd5b5060043610620000465760003560e01c806318351ea7146200004b5780632ff2bdd514620000815780639151d40314620000a3575b600080fd5b620000696004803603810190620000639190620002f8565b620000d9565b6040516200007891906200036f565b60405180910390f35b6200008b62000119565b6040516200009a91906200045a565b60405180910390f35b620000c16004803603810190620000bb9190620005e0565b620001a9565b604051620000d091906200036f565b60405180910390f35b60008181548110620000ea57600080fd5b906000526020600020016000915054906101000a900473ffffffffffffffffffffffffffffffffffffffff1681565b606060008054806020026020016040519081016040528092919081815260200182805480156200019f57602002820191906000526020600020905b8160009054906101000a900473ffffffffffffffffffffffffffffffffffffffff1673ffffffffffffffffffffffffffffffffffffffff168152602001906001019080831162000154575b5050505050905090565b600080338484604051620001bd906200029b565b620001cb93929190620006f8565b604051809103906000f080158015620001e8573d6000803e3d6000fd5b5090506000819080600181540180825580915050600190039060005260206000200160009091909190916101000a81548173ffffffffffffffffffffffffffffffffffffffff021916908373ffffffffffffffffffffffffffffffffffffffff1602179055508073ffffffffffffffffffffffffffffffffffffffff167f994b548cd2649cd87c03e8af83cab9893684eba91bf07215ad26df0654dc073460405160405180910390a28091505092915050565b611d1a806200074483390190565b6000604051905090565b600080fd5b600080fd5b6000819050919050565b620002d281620002bd565b8114620002de57600080fd5b50565b600081359050620002f281620002c7565b92915050565b600060208284031215620003115762000310620002b3565b5b60006200032184828501620002e1565b91505092915050565b600073ffffffffffffffffffffffffffffffffffffffff82169050919050565b600062000357826200032a565b9050919050565b62000369816200034a565b82525050565b60006020820190506200038660008301846200035e565b92915050565b600081519050919050565b600082825260208201905092915050565b6000819050602082019050919050565b620003c3816200034a565b82525050565b6000620003d78383620003b8565b60208301905092915050565b6000602082019050919050565b6000620003fd826200038c565b62000409818562000397565b93506200041683620003a8565b8060005b838110156200044d578151620004318882620003c9565b97506200043e83620003e3565b9250506001810190506200041a565b5085935050505092915050565b60006020820190508181036000830152620004768184620003f0565b905092915050565b600080fd5b600080fd5b6000601f19601f8301169050919050565b7f4e487b7100000000000000000000000000000000000000000000000000000000600052604160045260246000fd5b620004d38262000488565b810181811067ffffffffffffffff82111715620004f557620004f462000499565b5b80604052505050565b60006200050a620002a9565b9050620005188282620004c8565b919050565b600067ffffffffffffffff8211156200053b576200053a62000499565b5b620005468262000488565b9050602081019050919050565b82818337600083830152505050565b60006200057962000573846200051d565b620004fe565b90508281526020810184848401111562000598576200059762000483565b5b620005a584828562000553565b509392505050565b600082601f830112620005c557620005c46200047e565b5b8135620005d784826020860162000562565b91505092915050565b60008060408385031215620005fa57620005f9620002b3565b5b600083013567ffffffffffffffff8111156200061b576200061a620002b8565b5b6200062985828601620005ad565b925050602083013567ffffffffffffffff8111156200064d576200064c620002b8565b5b6200065b85828601620005ad565b9150509250929050565b600081519050919050565b600082825260208201905092915050565b60005b83811015620006a157808201518184015260208101905062000684565b83811115620006b1576000848401525b50505050565b6000620006c48262000665565b620006d0818562000670565b9350620006e281856020860162000681565b620006ed8162000488565b840191505092915050565b60006060820190506200070f60008301866200035e565b8181036020830152620007238185620006b7565b90508181036040830152620007398184620006b7565b905094935050505056fe60806040523480156200001157600080fd5b5060405162001d1a38038062001d1a8339818101604052810190620000379190620003f9565b60016000808573ffffffffffffffffffffffffffffffffffffffff1673ffffffffffffffffffffffffffffffffffffffff16815260200190815260200160002060006101000a81548160ff0219169083151502179055506001839080600181540180825580915050600190039060005260206000200160009091909190916101000a81548173ffffffffffffffffffffffffffffffffffffffff021916908373ffffffffffffffffffffffffffffffffffffffff1602179055506000600260006101000a81548160ff02191690831515021790555081600390805190602001906200012492919062000147565b5080600490805190602001906200013d92919062000147565b50505050620004f8565b8280546200015590620004c2565b90600052602060002090601f016020900481019282620001795760008555620001c5565b82601f106200019457805160ff1916838001178555620001c5565b82800160010185558215620001c5579182015b82811115620001c4578251825591602001919060010190620001a7565b5b509050620001d49190620001d8565b5090565b5b80821115620001f3576000816000905550600101620001d9565b5090565b6000604051905090565b600080fd5b600080fd5b600073ffffffffffffffffffffffffffffffffffffffff82169050919050565b600062000238826200020b565b9050919050565b6200024a816200022b565b81146200025657600080fd5b50565b6000815190506200026a816200023f565b92915050565b600080fd5b600080fd5b6000601f19601f8301169050919050565b7f4e487b7100000000000000000000000000000000000000000000000000000000600052604160045260246000fd5b620002c5826200027a565b810181811067ffffffffffffffff82111715620002e757620002e66200028b565b5b80604052505050565b6000620002fc620001f7565b90506200030a8282620002ba565b919050565b600067ffffffffffffffff8211156200032d576200032c6200028b565b5b62000338826200027a565b9050602081019050919050565b60005b838110156200036557808201518184015260208101905062000348565b8381111562000375576000848401525b50505050565b6000620003926200038c846200030f565b620002f0565b905082815260208101848484011115620003b157620003b062000275565b5b620003be84828562000345565b509392505050565b600082601f830112620003de57620003dd62000270565b5b8151620003f08482602086016200037b565b91505092915050565b60008060006060848603121562000415576200041462000201565b5b6000620004258682870162000259565b935050602084015167ffffffffffffffff81111562000449576200044862000206565b5b6200045786828701620003c6565b925050604084015167ffffffffffffffff8111156200047b576200047a62000206565b5b6200048986828701620003c6565b9150509250925092565b7f4e487b7100000000000000000000000000000000000000000000000000000000600052602260045260246000fd5b60006002820490506001821680620004db57607f821691505b60208210811415620004f257620004f162000493565b5b50919050565b61181280620005086000396000f3fe608060405234801561001057600080fd5b506004361061009e5760003560e01c80635d1a870a116100665780635d1a870a1461014f5780636fc6c5791461016d57806398b796281461019f5780639d3ed807146101bb578063dfa14e23146101eb5761009e565b80631008016d146100a35780633e5690f4146100c15780634051ddac146100f15780634bb3fdad146101135780635cf298fb14610131575b600080fd5b6100ab610207565b6040516100b89190610f1d565b60405180910390f35b6100db60048036038101906100d69190610fb1565b610295565b6040516100e89190610ff9565b60405180910390f35b6100f96102b5565b60405161010a959493929190611247565b60405180910390f35b61011b6105d1565b6040516101289190610f1d565b60405180910390f35b61013961065f565b6040516101469190610ff9565b60405180910390f35b6101576106b2565b6040516101649190610ff9565b60405180910390f35b610187600480360381019061018291906112e2565b6106c5565b6040516101969392919061132d565b60405180910390f35b6101b960048036038101906101b491906112e2565b6107a7565b005b6101d560048036038101906101d091906112e2565b610c01565b6040516101e2919061136b565b60405180910390f35b610205600480360381019061020091906114bb565b610c40565b005b6003805461021490611533565b80601f016020809104026020016040519081016040528092919081815260200182805461024090611533565b801561028d5780601f106102625761010080835404028352916020019161028d565b820191906000526020600020905b81548152906001019060200180831161027057829003601f168201915b505050505081565b60006020528060005260406000206000915054906101000a900460ff1681565b606080600060608060016005600260009054906101000a900460ff16600360048480548060200260200160405190810160405280929190818152602001828054801561035657602002820191906000526020600020905b8160009054906101000a900473ffffffffffffffffffffffffffffffffffffffff1673ffffffffffffffffffffffffffffffffffffffff168152602001906001019080831161030c575b5050505050945083805480602002602001604051908101604052809291908181526020016000905b828210156104a257838290600052602060002090600302016040518060600160405290816000820180546103b190611533565b80601f01602080910402602001604051908101604052809291908181526020018280546103dd90611533565b801561042a5780601f106103ff5761010080835404028352916020019161042a565b820191906000526020600020905b81548152906001019060200180831161040d57829003601f168201915b50505050508152602001600182015481526020016002820160009054906101000a900473ffffffffffffffffffffffffffffffffffffffff1673ffffffffffffffffffffffffffffffffffffffff1673ffffffffffffffffffffffffffffffffffffffff16815250508152602001906001019061037e565b5050505093508180546104b490611533565b80601f01602080910402602001604051908101604052809291908181526020018280546104e090611533565b801561052d5780601f106105025761010080835404028352916020019161052d565b820191906000526020600020905b81548152906001019060200180831161051057829003601f168201915b5050505050915080805461054090611533565b80601f016020809104026020016040519081016040528092919081815260200182805461056c90611533565b80156105b95780601f1061058e576101008083540402835291602001916105b9565b820191906000526020600020905b81548152906001019060200180831161059c57829003601f168201915b50505050509050945094509450945094509091929394565b600480546105de90611533565b80601f016020809104026020016040519081016040528092919081815260200182805461060a90611533565b80156106575780601f1061062c57610100808354040283529160200191610657565b820191906000526020600020905b81548152906001019060200180831161063a57829003601f168201915b505050505081565b60008060003373ffffffffffffffffffffffffffffffffffffffff1673ffffffffffffffffffffffffffffffffffffffff16815260200190815260200160002060009054906101000a900460ff16905090565b600260009054906101000a900460ff1681565b600581815481106106d557600080fd5b90600052602060002090600302016000915090508060000180546106f890611533565b80601f016020809104026020016040519081016040528092919081815260200182805461072490611533565b80156107715780601f1061074657610100808354040283529160200191610771565b820191906000526020600020905b81548152906001019060200180831161075457829003601f168201915b5050505050908060010154908060020160009054906101000a900473ffffffffffffffffffffffffffffffffffffffff16905083565b6000803373ffffffffffffffffffffffffffffffffffffffff1673ffffffffffffffffffffffffffffffffffffffff16815260200190815260200160002060009054906101000a900460ff16610832576040517f08c379a0000000000000000000000000000000000000000000000000000000008152600401610829906115d7565b60405180910390fd5b60008060058381548110610849576108486115f7565b5b906000526020600020906003020160020160009054906101000a900473ffffffffffffffffffffffffffffffffffffffff1673ffffffffffffffffffffffffffffffffffffffff1673ffffffffffffffffffffffffffffffffffffffff16815260200190815260200160002060009054906101000a900460ff1615610903576040517f08c379a00000000000000000000000000000000000000000000000000000000081526004016108fa90611698565b60405180910390fd5b6000600160058054905061091791906116e7565b905060006005828154811061092f5761092e6115f7565b5b906000526020600020906003020160405180606001604052908160008201805461095890611533565b80601f016020809104026020016040519081016040528092919081815260200182805461098490611533565b80156109d15780601f106109a6576101008083540402835291602001916109d1565b820191906000526020600020905b8154815290600101906020018083116109b457829003601f168201915b50505050508152602001600182015481526020016002820160009054906101000a900473ffffffffffffffffffffffffffffffffffffffff1673ffffffffffffffffffffffffffffffffffffffff1673ffffffffffffffffffffffffffffffffffffffff168152505090508060058481548110610a5157610a506115f7565b5b90600052602060002090600302016000820151816000019080519060200190610a7b929190610da1565b506020820151816001015560408201518160020160006101000a81548173ffffffffffffffffffffffffffffffffffffffff021916908373ffffffffffffffffffffffffffffffffffffffff1602179055509050506005805480610ae257610ae161171b565b5b600190038181906000526020600020906003020160008082016000610b079190610e27565b60018201600090556002820160006101000a81549073ffffffffffffffffffffffffffffffffffffffff0219169055505090556001600080836040015173ffffffffffffffffffffffffffffffffffffffff1673ffffffffffffffffffffffffffffffffffffffff16815260200190815260200160002060006101000a81548160ff021916908315150217905550600181604001519080600181540180825580915050600190039060005260206000200160009091909190916101000a81548173ffffffffffffffffffffffffffffffffffffffff021916908373ffffffffffffffffffffffffffffffffffffffff160217905550505050565b60018181548110610c1157600080fd5b906000526020600020016000915054906101000a900473ffffffffffffffffffffffffffffffffffffffff1681565b6000803373ffffffffffffffffffffffffffffffffffffffff1673ffffffffffffffffffffffffffffffffffffffff16815260200190815260200160002060009054906101000a900460ff1615610ccc576040517f08c379a0000000000000000000000000000000000000000000000000000000008152600401610cc3906117bc565b60405180910390fd5b600060405180606001604052808381526020014281526020013373ffffffffffffffffffffffffffffffffffffffff16815250905060058190806001815401808255809150506001900390600052602060002090600302016000909190919091506000820151816000019080519060200190610d49929190610da1565b506020820151816001015560408201518160020160006101000a81548173ffffffffffffffffffffffffffffffffffffffff021916908373ffffffffffffffffffffffffffffffffffffffff16021790555050505050565b828054610dad90611533565b90600052602060002090601f016020900481019282610dcf5760008555610e16565b82601f10610de857805160ff1916838001178555610e16565b82800160010185558215610e16579182015b82811115610e15578251825591602001919060010190610dfa565b5b509050610e239190610e67565b5090565b508054610e3390611533565b6000825580601f10610e455750610e64565b601f016020900490600052602060002090810190610e639190610e67565b5b50565b5b80821115610e80576000816000905550600101610e68565b5090565b600081519050919050565b600082825260208201905092915050565b60005b83811015610ebe578082015181840152602081019050610ea3565b83811115610ecd576000848401525b50505050565b6000601f19601f8301169050919050565b6000610eef82610e84565b610ef98185610e8f565b9350610f09818560208601610ea0565b610f1281610ed3565b840191505092915050565b60006020820190508181036000830152610f378184610ee4565b905092915050565b6000604051905090565b600080fd5b600080fd5b600073ffffffffffffffffffffffffffffffffffffffff82169050919050565b6000610f7e82610f53565b9050919050565b610f8e81610f73565b8114610f9957600080fd5b50565b600081359050610fab81610f85565b92915050565b600060208284031215610fc757610fc6610f49565b5b6000610fd584828501610f9c565b91505092915050565b60008115159050919050565b610ff381610fde565b82525050565b600060208201905061100e6000830184610fea565b92915050565b600081519050919050565b600082825260208201905092915050565b6000819050602082019050919050565b61104981610f73565b82525050565b600061105b8383611040565b60208301905092915050565b6000602082019050919050565b600061107f82611014565b611089818561101f565b935061109483611030565b8060005b838110156110c55781516110ac888261104f565b97506110b783611067565b925050600181019050611098565b5085935050505092915050565b600081519050919050565b600082825260208201905092915050565b6000819050602082019050919050565b600082825260208201905092915050565b600061111a82610e84565b61112481856110fe565b9350611134818560208601610ea0565b61113d81610ed3565b840191505092915050565b6000819050919050565b61115b81611148565b82525050565b6000606083016000830151848203600086015261117e828261110f565b91505060208301516111936020860182611152565b5060408301516111a66040860182611040565b508091505092915050565b60006111bd8383611161565b905092915050565b6000602082019050919050565b60006111dd826110d2565b6111e781856110dd565b9350836020820285016111f9856110ee565b8060005b85811015611235578484038952815161121685826111b1565b9450611221836111c5565b925060208a019950506001810190506111fd565b50829750879550505050505092915050565b600060a08201905081810360008301526112618188611074565b9050818103602083015261127581876111d2565b90506112846040830186610fea565b81810360608301526112968185610ee4565b905081810360808301526112aa8184610ee4565b90509695505050505050565b6112bf81611148565b81146112ca57600080fd5b50565b6000813590506112dc816112b6565b92915050565b6000602082840312156112f8576112f7610f49565b5b6000611306848285016112cd565b91505092915050565b61131881611148565b82525050565b61132781610f73565b82525050565b600060608201905081810360008301526113478186610ee4565b9050611356602083018561130f565b611363604083018461131e565b949350505050565b6000602082019050611380600083018461131e565b92915050565b600080fd5b600080fd5b7f4e487b7100000000000000000000000000000000000000000000000000000000600052604160045260246000fd5b6113c882610ed3565b810181811067ffffffffffffffff821117156113e7576113e6611390565b5b80604052505050565b60006113fa610f3f565b905061140682826113bf565b919050565b600067ffffffffffffffff82111561142657611425611390565b5b61142f82610ed3565b9050602081019050919050565b82818337600083830152505050565b600061145e6114598461140b565b6113f0565b90508281526020810184848401111561147a5761147961138b565b5b61148584828561143c565b509392505050565b600082601f8301126114a2576114a1611386565b5b81356114b284826020860161144b565b91505092915050565b6000602082840312156114d1576114d0610f49565b5b600082013567ffffffffffffffff8111156114ef576114ee610f4e565b5b6114fb8482850161148d565b91505092915050565b7f4e487b7100000000000000000000000000000000000000000000000000000000600052602260045260246000fd5b6000600282049050600182168061154b57607f821691505b6020821081141561155f5761155e611504565b5b50919050565b7f4f6e6c7920616e20616363657074656420617574686f722063616e206170707260008201527f6f76652061207265717565737400000000000000000000000000000000000000602082015250565b60006115c1602d83610e8f565b91506115cc82611565565b604082019050919050565b600060208201905081810360008301526115f0816115b4565b9050919050565b7f4e487b7100000000000000000000000000000000000000000000000000000000600052603260045260246000fd5b7f417574686f72206f6620746865207265717565737420697320616c726561647960008201527f20696e636c7564656420696e20746865206c697374206f6620617574686f7273602082015250565b6000611682604083610e8f565b915061168d82611626565b604082019050919050565b600060208201905081810360008301526116b181611675565b9050919050565b7f4e487b7100000000000000000000000000000000000000000000000000000000600052601160045260246000fd5b60006116f282611148565b91506116fd83611148565b9250828210156117105761170f6116b8565b5b828203905092915050565b7f4e487b7100000000000000000000000000000000000000000000000000000000600052603160045260246000fd5b7f417574686f7220616c72656164792065786973747320696e20746865206c697360008201527f74206f6620617574686f72730000000000000000000000000000000000000000602082015250565b60006117a6602c83610e8f565b91506117b18261174a565b604082019050919050565b600060208201905081810360008301526117d581611799565b905091905056fea2646970667358221220dbc7f9452eda781340872a696dd0fc6f09254ee7b4ce222cf478d2f779575dfd64736f6c63430008090033a26469706673582212207c0c9bdaca414bdc751443aa7f1db30e731f32e3ea0e41d9e312ae52f557b4f564736f6c63430008090033","opcodes":"PUSH1 0x80 PUSH1 0x40 MSTORE CALLVALUE DUP1 ISZERO PUSH2 0x10 JUMPI PUSH1 0x0 DUP1 REVERT JUMPDEST POP PUSH2 0x2493 DUP1 PUSH2 0x20 PUSH1 0x0 CODECOPY PUSH1 0x0 RETURN INVALID PUSH1 0x80 PUSH1 0x40 MSTORE CALLVALUE DUP1 ISZERO PUSH3 0x11 JUMPI PUSH1 0x0 DUP1 REVERT JUMPDEST POP PUSH1 0x4 CALLDATASIZE LT PUSH3 0x46 JUMPI PUSH1 0x0 CALLDATALOAD PUSH1 0xE0 SHR DUP1 PUSH4 0x18351EA7 EQ PUSH3 0x4B JUMPI DUP1 PUSH4 0x2FF2BDD5 EQ PUSH3 0x81 JUMPI DUP1 PUSH4 0x9151D403 EQ PUSH3 0xA3 JUMPI JUMPDEST PUSH1 0x0 DUP1 REVERT JUMPDEST PUSH3 0x69 PUSH1 0x4 DUP1 CALLDATASIZE SUB DUP2 ADD SWAP1 PUSH3 0x63 SWAP2 SWAP1 PUSH3 0x2F8 JUMP JUMPDEST PUSH3 0xD9 JUMP JUMPDEST PUSH1 0x40 MLOAD PUSH3 0x78 SWAP2 SWAP1 PUSH3 0x36F JUMP JUMPDEST PUSH1 0x40 MLOAD DUP1 SWAP2 SUB SWAP1 RETURN JUMPDEST PUSH3 0x8B PUSH3 0x119 JUMP JUMPDEST PUSH1 0x40 MLOAD PUSH3 0x9A SWAP2 SWAP1 PUSH3 0x45A JUMP JUMPDEST PUSH1 0x40 MLOAD DUP1 SWAP2 SUB SWAP1 RETURN JUMPDEST PUSH3 0xC1 PUSH1 0x4 DUP1 CALLDATASIZE SUB DUP2 ADD SWAP1 PUSH3 0xBB SWAP2 SWAP1 PUSH3 0x5E0 JUMP JUMPDEST PUSH3 0x1A9 JUMP JUMPDEST PUSH1 0x40 MLOAD PUSH3 0xD0 SWAP2 SWAP1 PUSH3 0x36F JUMP JUMPDEST PUSH1 0x40 MLOAD DUP1 SWAP2 SUB SWAP1 RETURN JUMPDEST PUSH1 0x0 DUP2 DUP2 SLOAD DUP2 LT PUSH3 0xEA JUMPI PUSH1 0x0 DUP1 REVERT JUMPDEST SWAP1 PUSH1 0x0 MSTORE PUSH1 0x20 PUSH1 0x0 KECCAK256 ADD PUSH1 0x0 SWAP2 POP SLOAD SWAP1 PUSH2 0x100 EXP SWAP1 DIV PUSH20 0xFFFFFFFFFFFFFFFFFFFFFFFFFFFFFFFFFFFFFFFF AND DUP2 JUMP JUMPDEST PUSH1 0x60 PUSH1 0x0 DUP1 SLOAD DUP1 PUSH1 0x20 MUL PUSH1 0x20 ADD PUSH1 0x40 MLOAD SWAP1 DUP2 ADD PUSH1 0x40 MSTORE DUP1 SWAP3 SWAP2 SWAP1 DUP2 DUP2 MSTORE PUSH1 0x20 ADD DUP3 DUP1 SLOAD DUP1 ISZERO PUSH3 0x19F JUMPI PUSH1 0x20 MUL DUP3 ADD SWAP2 SWAP1 PUSH1 0x0 MSTORE PUSH1 0x20 PUSH1 0x0 KECCAK256 SWAP1 JUMPDEST DUP2 PUSH1 0x0 SWAP1 SLOAD SWAP1 PUSH2 0x100 EXP SWAP1 DIV PUSH20 0xFFFFFFFFFFFFFFFFFFFFFFFFFFFFFFFFFFFFFFFF AND PUSH20 0xFFFFFFFFFFFFFFFFFFFFFFFFFFFFFFFFFFFFFFFF AND DUP2 MSTORE PUSH1 0x20 ADD SWAP1 PUSH1 0x1 ADD SWAP1 DUP1 DUP4 GT PUSH3 0x154 JUMPI JUMPDEST POP POP POP POP POP SWAP1 POP SWAP1 JUMP JUMPDEST PUSH1 0x0 DUP1 CALLER DUP5 DUP5 PUSH1 0x40 MLOAD PUSH3 0x1BD SWAP1 PUSH3 0x29B JUMP JUMPDEST PUSH3 0x1CB SWAP4 SWAP3 SWAP2 SWAP1 PUSH3 0x6F8 JUMP JUMPDEST PUSH1 0x40 MLOAD DUP1 SWAP2 SUB SWAP1 PUSH1 0x0 CREATE DUP1 ISZERO DUP1 ISZERO PUSH3 0x1E8 JUMPI RETURNDATASIZE PUSH1 0x0 DUP1 RETURNDATACOPY RETURNDATASIZE PUSH1 0x0 REVERT JUMPDEST POP SWAP1 POP PUSH1 0x0 DUP2 SWAP1 DUP1 PUSH1 0x1 DUP2 SLOAD ADD DUP1 DUP3 SSTORE DUP1 SWAP2 POP POP PUSH1 0x1 SWAP1 SUB SWAP1 PUSH1 0x0 MSTORE PUSH1 0x20 PUSH1 0x0 KECCAK256 ADD PUSH1 0x0 SWAP1 SWAP2 SWAP1 SWAP2 SWAP1 SWAP2 PUSH2 0x100 EXP DUP2 SLOAD DUP2 PUSH20 0xFFFFFFFFFFFFFFFFFFFFFFFFFFFFFFFFFFFFFFFF MUL NOT AND SWAP1 DUP4 PUSH20 0xFFFFFFFFFFFFFFFFFFFFFFFFFFFFFFFFFFFFFFFF AND MUL OR SWAP1 SSTORE POP DUP1 PUSH20 0xFFFFFFFFFFFFFFFFFFFFFFFFFFFFFFFFFFFFFFFF AND PUSH32 0x994B548CD2649CD87C03E8AF83CAB9893684EBA91BF07215AD26DF0654DC0734 PUSH1 0x40 MLOAD PUSH1 0x40 MLOAD DUP1 SWAP2 SUB SWAP1 LOG2 DUP1 SWAP2 POP POP SWAP3 SWAP2 POP POP JUMP JUMPDEST PUSH2 0x1D1A DUP1 PUSH3 0x744 DUP4 CODECOPY ADD SWAP1 JUMP JUMPDEST PUSH1 0x0 PUSH1 0x40 MLOAD SWAP1 POP SWAP1 JUMP JUMPDEST PUSH1 0x0 DUP1 REVERT JUMPDEST PUSH1 0x0 DUP1 REVERT JUMPDEST PUSH1 0x0 DUP2 SWAP1 POP SWAP2 SWAP1 POP JUMP JUMPDEST PUSH3 0x2D2 DUP2 PUSH3 0x2BD JUMP JUMPDEST DUP2 EQ PUSH3 0x2DE JUMPI PUSH1 0x0 DUP1 REVERT JUMPDEST POP JUMP JUMPDEST PUSH1 0x0 DUP2 CALLDATALOAD SWAP1 POP PUSH3 0x2F2 DUP2 PUSH3 0x2C7 JUMP JUMPDEST SWAP3 SWAP2 POP POP JUMP JUMPDEST PUSH1 0x0 PUSH1 0x20 DUP3 DUP5 SUB SLT ISZERO PUSH3 0x311 JUMPI PUSH3 0x310 PUSH3 0x2B3 JUMP JUMPDEST JUMPDEST PUSH1 0x0 PUSH3 0x321 DUP5 DUP3 DUP6 ADD PUSH3 0x2E1 JUMP JUMPDEST SWAP2 POP POP SWAP3 SWAP2 POP POP JUMP JUMPDEST PUSH1 0x0 PUSH20 0xFFFFFFFFFFFFFFFFFFFFFFFFFFFFFFFFFFFFFFFF DUP3 AND SWAP1 POP SWAP2 SWAP1 POP JUMP JUMPDEST PUSH1 0x0 PUSH3 0x357 DUP3 PUSH3 0x32A JUMP JUMPDEST SWAP1 POP SWAP2 SWAP1 POP JUMP JUMPDEST PUSH3 0x369 DUP2 PUSH3 0x34A JUMP JUMPDEST DUP3 MSTORE POP POP JUMP JUMPDEST PUSH1 0x0 PUSH1 0x20 DUP3 ADD SWAP1 POP PUSH3 0x386 PUSH1 0x0 DUP4 ADD DUP5 PUSH3 0x35E JUMP JUMPDEST SWAP3 SWAP2 POP POP JUMP JUMPDEST PUSH1 0x0 DUP2 MLOAD SWAP1 POP SWAP2 SWAP1 POP JUMP JUMPDEST PUSH1 0x0 DUP3 DUP3 MSTORE PUSH1 0x20 DUP3 ADD SWAP1 POP SWAP3 SWAP2 POP POP JUMP JUMPDEST PUSH1 0x0 DUP2 SWAP1 POP PUSH1 0x20 DUP3 ADD SWAP1 POP SWAP2 SWAP1 POP JUMP JUMPDEST PUSH3 0x3C3 DUP2 PUSH3 0x34A JUMP JUMPDEST DUP3 MSTORE POP POP JUMP JUMPDEST PUSH1 0x0 PUSH3 0x3D7 DUP4 DUP4 PUSH3 0x3B8 JUMP JUMPDEST PUSH1 0x20 DUP4 ADD SWAP1 POP SWAP3 SWAP2 POP POP JUMP JUMPDEST PUSH1 0x0 PUSH1 0x20 DUP3 ADD SWAP1 POP SWAP2 SWAP1 POP JUMP JUMPDEST PUSH1 0x0 PUSH3 0x3FD DUP3 PUSH3 0x38C JUMP JUMPDEST PUSH3 0x409 DUP2 DUP6 PUSH3 0x397 JUMP JUMPDEST SWAP4 POP PUSH3 0x416 DUP4 PUSH3 0x3A8 JUMP JUMPDEST DUP1 PUSH1 0x0 JUMPDEST DUP4 DUP2 LT ISZERO PUSH3 0x44D JUMPI DUP2 MLOAD PUSH3 0x431 DUP9 DUP3 PUSH3 0x3C9 JUMP JUMPDEST SWAP8 POP PUSH3 0x43E DUP4 PUSH3 0x3E3 JUMP JUMPDEST SWAP3 POP POP PUSH1 0x1 DUP2 ADD SWAP1 POP PUSH3 0x41A JUMP JUMPDEST POP DUP6 SWAP4 POP POP POP POP SWAP3 SWAP2 POP POP JUMP JUMPDEST PUSH1 0x0 PUSH1 0x20 DUP3 ADD SWAP1 POP DUP2 DUP2 SUB PUSH1 0x0 DUP4 ADD MSTORE PUSH3 0x476 DUP2 DUP5 PUSH3 0x3F0 JUMP JUMPDEST SWAP1 POP SWAP3 SWAP2 POP POP JUMP JUMPDEST PUSH1 0x0 DUP1 REVERT JUMPDEST PUSH1 0x0 DUP1 REVERT JUMPDEST PUSH1 0x0 PUSH1 0x1F NOT PUSH1 0x1F DUP4 ADD AND SWAP1 POP SWAP2 SWAP1 POP JUMP JUMPDEST PUSH32 0x4E487B7100000000000000000000000000000000000000000000000000000000 PUSH1 0x0 MSTORE PUSH1 0x41 PUSH1 0x4 MSTORE PUSH1 0x24 PUSH1 0x0 REVERT JUMPDEST PUSH3 0x4D3 DUP3 PUSH3 0x488 JUMP JUMPDEST DUP2 ADD DUP2 DUP2 LT PUSH8 0xFFFFFFFFFFFFFFFF DUP3 GT OR ISZERO PUSH3 0x4F5 JUMPI PUSH3 0x4F4 PUSH3 0x499 JUMP JUMPDEST JUMPDEST DUP1 PUSH1 0x40 MSTORE POP POP POP JUMP JUMPDEST PUSH1 0x0 PUSH3 0x50A PUSH3 0x2A9 JUMP JUMPDEST SWAP1 POP PUSH3 0x518 DUP3 DUP3 PUSH3 0x4C8 JUMP JUMPDEST SWAP2 SWAP1 POP JUMP JUMPDEST PUSH1 0x0 PUSH8 0xFFFFFFFFFFFFFFFF DUP3 GT ISZERO PUSH3 0x53B JUMPI PUSH3 0x53A PUSH3 0x499 JUMP JUMPDEST JUMPDEST PUSH3 0x546 DUP3 PUSH3 0x488 JUMP JUMPDEST SWAP1 POP PUSH1 0x20 DUP2 ADD SWAP1 POP SWAP2 SWAP1 POP JUMP JUMPDEST DUP3 DUP2 DUP4 CALLDATACOPY PUSH1 0x0 DUP4 DUP4 ADD MSTORE POP POP POP JUMP JUMPDEST PUSH1 0x0 PUSH3 0x579 PUSH3 0x573 DUP5 PUSH3 0x51D JUMP JUMPDEST PUSH3 0x4FE JUMP JUMPDEST SWAP1 POP DUP3 DUP2 MSTORE PUSH1 0x20 DUP2 ADD DUP5 DUP5 DUP5 ADD GT ISZERO PUSH3 0x598 JUMPI PUSH3 0x597 PUSH3 0x483 JUMP JUMPDEST JUMPDEST PUSH3 0x5A5 DUP5 DUP3 DUP6 PUSH3 0x553 JUMP JUMPDEST POP SWAP4 SWAP3 POP POP POP JUMP JUMPDEST PUSH1 0x0 DUP3 PUSH1 0x1F DUP4 ADD SLT PUSH3 0x5C5 JUMPI PUSH3 0x5C4 PUSH3 0x47E JUMP JUMPDEST JUMPDEST DUP2 CALLDATALOAD PUSH3 0x5D7 DUP5 DUP3 PUSH1 0x20 DUP7 ADD PUSH3 0x562 JUMP JUMPDEST SWAP2 POP POP SWAP3 SWAP2 POP POP JUMP JUMPDEST PUSH1 0x0 DUP1 PUSH1 0x40 DUP4 DUP6 SUB SLT ISZERO PUSH3 0x5FA JUMPI PUSH3 0x5F9 PUSH3 0x2B3 JUMP JUMPDEST JUMPDEST PUSH1 0x0 DUP4 ADD CALLDATALOAD PUSH8 0xFFFFFFFFFFFFFFFF DUP2 GT ISZERO PUSH3 0x61B JUMPI PUSH3 0x61A PUSH3 0x2B8 JUMP JUMPDEST JUMPDEST PUSH3 0x629 DUP6 DUP3 DUP7 ADD PUSH3 0x5AD JUMP JUMPDEST SWAP3 POP POP PUSH1 0x20 DUP4 ADD CALLDATALOAD PUSH8 0xFFFFFFFFFFFFFFFF DUP2 GT ISZERO PUSH3 0x64D JUMPI PUSH3 0x64C PUSH3 0x2B8 JUMP JUMPDEST JUMPDEST PUSH3 0x65B DUP6 DUP3 DUP7 ADD PUSH3 0x5AD JUMP JUMPDEST SWAP2 POP POP SWAP3 POP SWAP3 SWAP1 POP JUMP JUMPDEST PUSH1 0x0 DUP2 MLOAD SWAP1 POP SWAP2 SWAP1 POP JUMP JUMPDEST PUSH1 0x0 DUP3 DUP3 MSTORE PUSH1 0x20 DUP3 ADD SWAP1 POP SWAP3 SWAP2 POP POP JUMP JUMPDEST PUSH1 0x0 JUMPDEST DUP4 DUP2 LT ISZERO PUSH3 0x6A1 JUMPI DUP1 DUP3 ADD MLOAD DUP2 DUP5 ADD MSTORE PUSH1 0x20 DUP2 ADD SWAP1 POP PUSH3 0x684 JUMP JUMPDEST DUP4 DUP2 GT ISZERO PUSH3 0x6B1 JUMPI PUSH1 0x0 DUP5 DUP5 ADD MSTORE JUMPDEST POP POP POP POP JUMP JUMPDEST PUSH1 0x0 PUSH3 0x6C4 DUP3 PUSH3 0x665 JUMP JUMPDEST PUSH3 0x6D0 DUP2 DUP6 PUSH3 0x670 JUMP JUMPDEST SWAP4 POP PUSH3 0x6E2 DUP2 DUP6 PUSH1 0x20 DUP7 ADD PUSH3 0x681 JUMP JUMPDEST PUSH3 0x6ED DUP2 PUSH3 0x488 JUMP JUMPDEST DUP5 ADD SWAP2 POP POP SWAP3 SWAP2 POP POP JUMP JUMPDEST PUSH1 0x0 PUSH1 0x60 DUP3 ADD SWAP1 POP PUSH3 0x70F PUSH1 0x0 DUP4 ADD DUP7 PUSH3 0x35E JUMP JUMPDEST DUP2 DUP2 SUB PUSH1 0x20 DUP4 ADD MSTORE PUSH3 0x723 DUP2 DUP6 PUSH3 0x6B7 JUMP JUMPDEST SWAP1 POP DUP2 DUP2 SUB PUSH1 0x40 DUP4 ADD MSTORE PUSH3 0x739 DUP2 DUP5 PUSH3 0x6B7 JUMP JUMPDEST SWAP1 POP SWAP5 SWAP4 POP POP POP POP JUMP INVALID PUSH1 0x80 PUSH1 0x40 MSTORE CALLVALUE DUP1 ISZERO PUSH3 0x11 JUMPI PUSH1 0x0 DUP1 REVERT JUMPDEST POP PUSH1 0x40 MLOAD PUSH3 0x1D1A CODESIZE SUB DUP1 PUSH3 0x1D1A DUP4 CODECOPY DUP2 DUP2 ADD PUSH1 0x40 MSTORE DUP2 ADD SWAP1 PUSH3 0x37 SWAP2 SWAP1 PUSH3 0x3F9 JUMP JUMPDEST PUSH1 0x1 PUSH1 0x0 DUP1 DUP6 PUSH20 0xFFFFFFFFFFFFFFFFFFFFFFFFFFFFFFFFFFFFFFFF AND PUSH20 0xFFFFFFFFFFFFFFFFFFFFFFFFFFFFFFFFFFFFFFFF AND DUP2 MSTORE PUSH1 0x20 ADD SWAP1 DUP2 MSTORE PUSH1 0x20 ADD PUSH1 0x0 KECCAK256 PUSH1 0x0 PUSH2 0x100 EXP DUP2 SLOAD DUP2 PUSH1 0xFF MUL NOT AND SWAP1 DUP4 ISZERO ISZERO MUL OR SWAP1 SSTORE POP PUSH1 0x1 DUP4 SWAP1 DUP1 PUSH1 0x1 DUP2 SLOAD ADD DUP1 DUP3 SSTORE DUP1 SWAP2 POP POP PUSH1 0x1 SWAP1 SUB SWAP1 PUSH1 0x0 MSTORE PUSH1 0x20 PUSH1 0x0 KECCAK256 ADD PUSH1 0x0 SWAP1 SWAP2 SWAP1 SWAP2 SWAP1 SWAP2 PUSH2 0x100 EXP DUP2 SLOAD DUP2 PUSH20 0xFFFFFFFFFFFFFFFFFFFFFFFFFFFFFFFFFFFFFFFF MUL NOT AND SWAP1 DUP4 PUSH20 0xFFFFFFFFFFFFFFFFFFFFFFFFFFFFFFFFFFFFFFFF AND MUL OR SWAP1 SSTORE POP PUSH1 0x0 PUSH1 0x2 PUSH1 0x0 PUSH2 0x100 EXP DUP2 SLOAD DUP2 PUSH1 0xFF MUL NOT AND SWAP1 DUP4 ISZERO ISZERO MUL OR SWAP1 SSTORE POP DUP2 PUSH1 0x3 SWAP1 DUP1 MLOAD SWAP1 PUSH1 0x20 ADD SWAP1 PUSH3 0x124 SWAP3 SWAP2 SWAP1 PUSH3 0x147 JUMP JUMPDEST POP DUP1 PUSH1 0x4 SWAP1 DUP1 MLOAD SWAP1 PUSH1 0x20 ADD SWAP1 PUSH3 0x13D SWAP3 SWAP2 SWAP1 PUSH3 0x147 JUMP JUMPDEST POP POP POP POP PUSH3 0x4F8 JUMP JUMPDEST DUP3 DUP1 SLOAD PUSH3 0x155 SWAP1 PUSH3 0x4C2 JUMP JUMPDEST SWAP1 PUSH1 0x0 MSTORE PUSH1 0x20 PUSH1 0x0 KECCAK256 SWAP1 PUSH1 0x1F ADD PUSH1 0x20 SWAP1 DIV DUP2 ADD SWAP3 DUP3 PUSH3 0x179 JUMPI PUSH1 0x0 DUP6 SSTORE PUSH3 0x1C5 JUMP JUMPDEST DUP3 PUSH1 0x1F LT PUSH3 0x194 JUMPI DUP1 MLOAD PUSH1 0xFF NOT AND DUP4 DUP1 ADD OR DUP6 SSTORE PUSH3 0x1C5 JUMP JUMPDEST DUP3 DUP1 ADD PUSH1 0x1 ADD DUP6 SSTORE DUP3 ISZERO PUSH3 0x1C5 JUMPI SWAP2 DUP3 ADD JUMPDEST DUP3 DUP2 GT ISZERO PUSH3 0x1C4 JUMPI DUP3 MLOAD DUP3 SSTORE SWAP2 PUSH1 0x20 ADD SWAP2 SWAP1 PUSH1 0x1 ADD SWAP1 PUSH3 0x1A7 JUMP JUMPDEST JUMPDEST POP SWAP1 POP PUSH3 0x1D4 SWAP2 SWAP1 PUSH3 0x1D8 JUMP JUMPDEST POP SWAP1 JUMP JUMPDEST JUMPDEST DUP1 DUP3 GT ISZERO PUSH3 0x1F3 JUMPI PUSH1 0x0 DUP2 PUSH1 0x0 SWAP1 SSTORE POP PUSH1 0x1 ADD PUSH3 0x1D9 JUMP JUMPDEST POP SWAP1 JUMP JUMPDEST PUSH1 0x0 PUSH1 0x40 MLOAD SWAP1 POP SWAP1 JUMP JUMPDEST PUSH1 0x0 DUP1 REVERT JUMPDEST PUSH1 0x0 DUP1 REVERT JUMPDEST PUSH1 0x0 PUSH20 0xFFFFFFFFFFFFFFFFFFFFFFFFFFFFFFFFFFFFFFFF DUP3 AND SWAP1 POP SWAP2 SWAP1 POP JUMP JUMPDEST PUSH1 0x0 PUSH3 0x238 DUP3 PUSH3 0x20B JUMP JUMPDEST SWAP1 POP SWAP2 SWAP1 POP JUMP JUMPDEST PUSH3 0x24A DUP2 PUSH3 0x22B JUMP JUMPDEST DUP2 EQ PUSH3 0x256 JUMPI PUSH1 0x0 DUP1 REVERT JUMPDEST POP JUMP JUMPDEST PUSH1 0x0 DUP2 MLOAD SWAP1 POP PUSH3 0x26A DUP2 PUSH3 0x23F JUMP JUMPDEST SWAP3 SWAP2 POP POP JUMP JUMPDEST PUSH1 0x0 DUP1 REVERT JUMPDEST PUSH1 0x0 DUP1 REVERT JUMPDEST PUSH1 0x0 PUSH1 0x1F NOT PUSH1 0x1F DUP4 ADD AND SWAP1 POP SWAP2 SWAP1 POP JUMP JUMPDEST PUSH32 0x4E487B7100000000000000000000000000000000000000000000000000000000 PUSH1 0x0 MSTORE PUSH1 0x41 PUSH1 0x4 MSTORE PUSH1 0x24 PUSH1 0x0 REVERT JUMPDEST PUSH3 0x2C5 DUP3 PUSH3 0x27A JUMP JUMPDEST DUP2 ADD DUP2 DUP2 LT PUSH8 0xFFFFFFFFFFFFFFFF DUP3 GT OR ISZERO PUSH3 0x2E7 JUMPI PUSH3 0x2E6 PUSH3 0x28B JUMP JUMPDEST JUMPDEST DUP1 PUSH1 0x40 MSTORE POP POP POP JUMP JUMPDEST PUSH1 0x0 PUSH3 0x2FC PUSH3 0x1F7 JUMP JUMPDEST SWAP1 POP PUSH3 0x30A DUP3 DUP3 PUSH3 0x2BA JUMP JUMPDEST SWAP2 SWAP1 POP JUMP JUMPDEST PUSH1 0x0 PUSH8 0xFFFFFFFFFFFFFFFF DUP3 GT ISZERO PUSH3 0x32D JUMPI PUSH3 0x32C PUSH3 0x28B JUMP JUMPDEST JUMPDEST PUSH3 0x338 DUP3 PUSH3 0x27A JUMP JUMPDEST SWAP1 POP PUSH1 0x20 DUP2 ADD SWAP1 POP SWAP2 SWAP1 POP JUMP JUMPDEST PUSH1 0x0 JUMPDEST DUP4 DUP2 LT ISZERO PUSH3 0x365 JUMPI DUP1 DUP3 ADD MLOAD DUP2 DUP5 ADD MSTORE PUSH1 0x20 DUP2 ADD SWAP1 POP PUSH3 0x348 JUMP JUMPDEST DUP4 DUP2 GT ISZERO PUSH3 0x375 JUMPI PUSH1 0x0 DUP5 DUP5 ADD MSTORE JUMPDEST POP POP POP POP JUMP JUMPDEST PUSH1 0x0 PUSH3 0x392 PUSH3 0x38C DUP5 PUSH3 0x30F JUMP JUMPDEST PUSH3 0x2F0 JUMP JUMPDEST SWAP1 POP DUP3 DUP2 MSTORE PUSH1 0x20 DUP2 ADD DUP5 DUP5 DUP5 ADD GT ISZERO PUSH3 0x3B1 JUMPI PUSH3 0x3B0 PUSH3 0x275 JUMP JUMPDEST JUMPDEST PUSH3 0x3BE DUP5 DUP3 DUP6 PUSH3 0x345 JUMP JUMPDEST POP SWAP4 SWAP3 POP POP POP JUMP JUMPDEST PUSH1 0x0 DUP3 PUSH1 0x1F DUP4 ADD SLT PUSH3 0x3DE JUMPI PUSH3 0x3DD PUSH3 0x270 JUMP JUMPDEST JUMPDEST DUP2 MLOAD PUSH3 0x3F0 DUP5 DUP3 PUSH1 0x20 DUP7 ADD PUSH3 0x37B JUMP JUMPDEST SWAP2 POP POP SWAP3 SWAP2 POP POP JUMP JUMPDEST PUSH1 0x0 DUP1 PUSH1 0x0 PUSH1 0x60 DUP5 DUP7 SUB SLT ISZERO PUSH3 0x415 JUMPI PUSH3 0x414 PUSH3 0x201 JUMP JUMPDEST JUMPDEST PUSH1 0x0 PUSH3 0x425 DUP7 DUP3 DUP8 ADD PUSH3 0x259 JUMP JUMPDEST SWAP4 POP POP PUSH1 0x20 DUP5 ADD MLOAD PUSH8 0xFFFFFFFFFFFFFFFF DUP2 GT ISZERO PUSH3 0x449 JUMPI PUSH3 0x448 PUSH3 0x206 JUMP JUMPDEST JUMPDEST PUSH3 0x457 DUP7 DUP3 DUP8 ADD PUSH3 0x3C6 JUMP JUMPDEST SWAP3 POP POP PUSH1 0x40 DUP5 ADD MLOAD PUSH8 0xFFFFFFFFFFFFFFFF DUP2 GT ISZERO PUSH3 0x47B JUMPI PUSH3 0x47A PUSH3 0x206 JUMP JUMPDEST JUMPDEST PUSH3 0x489 DUP7 DUP3 DUP8 ADD PUSH3 0x3C6 JUMP JUMPDEST SWAP2 POP POP SWAP3 POP SWAP3 POP SWAP3 JUMP JUMPDEST PUSH32 0x4E487B7100000000000000000000000000000000000000000000000000000000 PUSH1 0x0 MSTORE PUSH1 0x22 PUSH1 0x4 MSTORE PUSH1 0x24 PUSH1 0x0 REVERT JUMPDEST PUSH1 0x0 PUSH1 0x2 DUP3 DIV SWAP1 POP PUSH1 0x1 DUP3 AND DUP1 PUSH3 0x4DB JUMPI PUSH1 0x7F DUP3 AND SWAP2 POP JUMPDEST PUSH1 0x20 DUP3 LT DUP2 EQ ISZERO PUSH3 0x4F2 JUMPI PUSH3 0x4F1 PUSH3 0x493 JUMP JUMPDEST JUMPDEST POP SWAP2 SWAP1 POP JUMP JUMPDEST PUSH2 0x1812 DUP1 PUSH3 0x508 PUSH1 0x0 CODECOPY PUSH1 0x0 RETURN INVALID PUSH1 0x80 PUSH1 0x40 MSTORE CALLVALUE DUP1 ISZERO PUSH2 0x10 JUMPI PUSH1 0x0 DUP1 REVERT JUMPDEST POP PUSH1 0x4 CALLDATASIZE LT PUSH2 0x9E JUMPI PUSH1 0x0 CALLDATALOAD PUSH1 0xE0 SHR DUP1 PUSH4 0x5D1A870A GT PUSH2 0x66 JUMPI DUP1 PUSH4 0x5D1A870A EQ PUSH2 0x14F JUMPI DUP1 PUSH4 0x6FC6C579 EQ PUSH2 0x16D JUMPI DUP1 PUSH4 0x98B79628 EQ PUSH2 0x19F JUMPI DUP1 PUSH4 0x9D3ED807 EQ PUSH2 0x1BB JUMPI DUP1 PUSH4 0xDFA14E23 EQ PUSH2 0x1EB JUMPI PUSH2 0x9E JUMP JUMPDEST DUP1 PUSH4 0x1008016D EQ PUSH2 0xA3 JUMPI DUP1 PUSH4 0x3E5690F4 EQ PUSH2 0xC1 JUMPI DUP1 PUSH4 0x4051DDAC EQ PUSH2 0xF1 JUMPI DUP1 PUSH4 0x4BB3FDAD EQ PUSH2 0x113 JUMPI DUP1 PUSH4 0x5CF298FB EQ PUSH2 0x131 JUMPI JUMPDEST PUSH1 0x0 DUP1 REVERT JUMPDEST PUSH2 0xAB PUSH2 0x207 JUMP JUMPDEST PUSH1 0x40 MLOAD PUSH2 0xB8 SWAP2 SWAP1 PUSH2 0xF1D JUMP JUMPDEST PUSH1 0x40 MLOAD DUP1 SWAP2 SUB SWAP1 RETURN JUMPDEST PUSH2 0xDB PUSH1 0x4 DUP1 CALLDATASIZE SUB DUP2 ADD SWAP1 PUSH2 0xD6 SWAP2 SWAP1 PUSH2 0xFB1 JUMP JUMPDEST PUSH2 0x295 JUMP JUMPDEST PUSH1 0x40 MLOAD PUSH2 0xE8 SWAP2 SWAP1 PUSH2 0xFF9 JUMP JUMPDEST PUSH1 0x40 MLOAD DUP1 SWAP2 SUB SWAP1 RETURN JUMPDEST PUSH2 0xF9 PUSH2 0x2B5 JUMP JUMPDEST PUSH1 0x40 MLOAD PUSH2 0x10A SWAP6 SWAP5 SWAP4 SWAP3 SWAP2 SWAP1 PUSH2 0x1247 JUMP JUMPDEST PUSH1 0x40 MLOAD DUP1 SWAP2 SUB SWAP1 RETURN JUMPDEST PUSH2 0x11B PUSH2 0x5D1 JUMP JUMPDEST PUSH1 0x40 MLOAD PUSH2 0x128 SWAP2 SWAP1 PUSH2 0xF1D JUMP JUMPDEST PUSH1 0x40 MLOAD DUP1 SWAP2 SUB SWAP1 RETURN JUMPDEST PUSH2 0x139 PUSH2 0x65F JUMP JUMPDEST PUSH1 0x40 MLOAD PUSH2 0x146 SWAP2 SWAP1 PUSH2 0xFF9 JUMP JUMPDEST PUSH1 0x40 MLOAD DUP1 SWAP2 SUB SWAP1 RETURN JUMPDEST PUSH2 0x157 PUSH2 0x6B2 JUMP JUMPDEST PUSH1 0x40 MLOAD PUSH2 0x164 SWAP2 SWAP1 PUSH2 0xFF9 JUMP JUMPDEST PUSH1 0x40 MLOAD DUP1 SWAP2 SUB SWAP1 RETURN JUMPDEST PUSH2 0x187 PUSH1 0x4 DUP1 CALLDATASIZE SUB DUP2 ADD SWAP1 PUSH2 0x182 SWAP2 SWAP1 PUSH2 0x12E2 JUMP JUMPDEST PUSH2 0x6C5 JUMP JUMPDEST PUSH1 0x40 MLOAD PUSH2 0x196 SWAP4 SWAP3 SWAP2 SWAP1 PUSH2 0x132D JUMP JUMPDEST PUSH1 0x40 MLOAD DUP1 SWAP2 SUB SWAP1 RETURN JUMPDEST PUSH2 0x1B9 PUSH1 0x4 DUP1 CALLDATASIZE SUB DUP2 ADD SWAP1 PUSH2 0x1B4 SWAP2 SWAP1 PUSH2 0x12E2 JUMP JUMPDEST PUSH2 0x7A7 JUMP JUMPDEST STOP JUMPDEST PUSH2 0x1D5 PUSH1 0x4 DUP1 CALLDATASIZE SUB DUP2 ADD SWAP1 PUSH2 0x1D0 SWAP2 SWAP1 PUSH2 0x12E2 JUMP JUMPDEST PUSH2 0xC01 JUMP JUMPDEST PUSH1 0x40 MLOAD PUSH2 0x1E2 SWAP2 SWAP1 PUSH2 0x136B JUMP JUMPDEST PUSH1 0x40 MLOAD DUP1 SWAP2 SUB SWAP1 RETURN JUMPDEST PUSH2 0x205 PUSH1 0x4 DUP1 CALLDATASIZE SUB DUP2 ADD SWAP1 PUSH2 0x200 SWAP2 SWAP1 PUSH2 0x14BB JUMP JUMPDEST PUSH2 0xC40 JUMP JUMPDEST STOP JUMPDEST PUSH1 0x3 DUP1 SLOAD PUSH2 0x214 SWAP1 PUSH2 0x1533 JUMP JUMPDEST DUP1 PUSH1 0x1F ADD PUSH1 0x20 DUP1 SWAP2 DIV MUL PUSH1 0x20 ADD PUSH1 0x40 MLOAD SWAP1 DUP2 ADD PUSH1 0x40 MSTORE DUP1 SWAP3 SWAP2 SWAP1 DUP2 DUP2 MSTORE PUSH1 0x20 ADD DUP3 DUP1 SLOAD PUSH2 0x240 SWAP1 PUSH2 0x1533 JUMP JUMPDEST DUP1 ISZERO PUSH2 0x28D JUMPI DUP1 PUSH1 0x1F LT PUSH2 0x262 JUMPI PUSH2 0x100 DUP1 DUP4 SLOAD DIV MUL DUP4 MSTORE SWAP2 PUSH1 0x20 ADD SWAP2 PUSH2 0x28D JUMP JUMPDEST DUP3 ADD SWAP2 SWAP1 PUSH1 0x0 MSTORE PUSH1 0x20 PUSH1 0x0 KECCAK256 SWAP1 JUMPDEST DUP2 SLOAD DUP2 MSTORE SWAP1 PUSH1 0x1 ADD SWAP1 PUSH1 0x20 ADD DUP1 DUP4 GT PUSH2 0x270 JUMPI DUP3 SWAP1 SUB PUSH1 0x1F AND DUP3 ADD SWAP2 JUMPDEST POP POP POP POP POP DUP2 JUMP JUMPDEST PUSH1 0x0 PUSH1 0x20 MSTORE DUP1 PUSH1 0x0 MSTORE PUSH1 0x40 PUSH1 0x0 KECCAK256 PUSH1 0x0 SWAP2 POP SLOAD SWAP1 PUSH2 0x100 EXP SWAP1 DIV PUSH1 0xFF AND DUP2 JUMP JUMPDEST PUSH1 0x60 DUP1 PUSH1 0x0 PUSH1 0x60 DUP1 PUSH1 0x1 PUSH1 0x5 PUSH1 0x2 PUSH1 0x0 SWAP1 SLOAD SWAP1 PUSH2 0x100 EXP SWAP1 DIV PUSH1 0xFF AND PUSH1 0x3 PUSH1 0x4 DUP5 DUP1 SLOAD DUP1 PUSH1 0x20 MUL PUSH1 0x20 ADD PUSH1 0x40 MLOAD SWAP1 DUP2 ADD PUSH1 0x40 MSTORE DUP1 SWAP3 SWAP2 SWAP1 DUP2 DUP2 MSTORE PUSH1 0x20 ADD DUP3 DUP1 SLOAD DUP1 ISZERO PUSH2 0x356 JUMPI PUSH1 0x20 MUL DUP3 ADD SWAP2 SWAP1 PUSH1 0x0 MSTORE PUSH1 0x20 PUSH1 0x0 KECCAK256 SWAP1 JUMPDEST DUP2 PUSH1 0x0 SWAP1 SLOAD SWAP1 PUSH2 0x100 EXP SWAP1 DIV PUSH20 0xFFFFFFFFFFFFFFFFFFFFFFFFFFFFFFFFFFFFFFFF AND PUSH20 0xFFFFFFFFFFFFFFFFFFFFFFFFFFFFFFFFFFFFFFFF AND DUP2 MSTORE PUSH1 0x20 ADD SWAP1 PUSH1 0x1 ADD SWAP1 DUP1 DUP4 GT PUSH2 0x30C JUMPI JUMPDEST POP POP POP POP POP SWAP5 POP DUP4 DUP1 SLOAD DUP1 PUSH1 0x20 MUL PUSH1 0x20 ADD PUSH1 0x40 MLOAD SWAP1 DUP2 ADD PUSH1 0x40 MSTORE DUP1 SWAP3 SWAP2 SWAP1 DUP2 DUP2 MSTORE PUSH1 0x20 ADD PUSH1 0x0 SWAP1 JUMPDEST DUP3 DUP3 LT ISZERO PUSH2 0x4A2 JUMPI DUP4 DUP3 SWAP1 PUSH1 0x0 MSTORE PUSH1 0x20 PUSH1 0x0 KECCAK256 SWAP1 PUSH1 0x3 MUL ADD PUSH1 0x40 MLOAD DUP1 PUSH1 0x60 ADD PUSH1 0x40 MSTORE SWAP1 DUP2 PUSH1 0x0 DUP3 ADD DUP1 SLOAD PUSH2 0x3B1 SWAP1 PUSH2 0x1533 JUMP JUMPDEST DUP1 PUSH1 0x1F ADD PUSH1 0x20 DUP1 SWAP2 DIV MUL PUSH1 0x20 ADD PUSH1 0x40 MLOAD SWAP1 DUP2 ADD PUSH1 0x40 MSTORE DUP1 SWAP3 SWAP2 SWAP1 DUP2 DUP2 MSTORE PUSH1 0x20 ADD DUP3 DUP1 SLOAD PUSH2 0x3DD SWAP1 PUSH2 0x1533 JUMP JUMPDEST DUP1 ISZERO PUSH2 0x42A JUMPI DUP1 PUSH1 0x1F LT PUSH2 0x3FF JUMPI PUSH2 0x100 DUP1 DUP4 SLOAD DIV MUL DUP4 MSTORE SWAP2 PUSH1 0x20 ADD SWAP2 PUSH2 0x42A JUMP JUMPDEST DUP3 ADD SWAP2 SWAP1 PUSH1 0x0 MSTORE PUSH1 0x20 PUSH1 0x0 KECCAK256 SWAP1 JUMPDEST DUP2 SLOAD DUP2 MSTORE SWAP1 PUSH1 0x1 ADD SWAP1 PUSH1 0x20 ADD DUP1 DUP4 GT PUSH2 0x40D JUMPI DUP3 SWAP1 SUB PUSH1 0x1F AND DUP3 ADD SWAP2 JUMPDEST POP POP POP POP POP DUP2 MSTORE PUSH1 0x20 ADD PUSH1 0x1 DUP3 ADD SLOAD DUP2 MSTORE PUSH1 0x20 ADD PUSH1 0x2 DUP3 ADD PUSH1 0x0 SWAP1 SLOAD SWAP1 PUSH2 0x100 EXP SWAP1 DIV PUSH20 0xFFFFFFFFFFFFFFFFFFFFFFFFFFFFFFFFFFFFFFFF AND PUSH20 0xFFFFFFFFFFFFFFFFFFFFFFFFFFFFFFFFFFFFFFFF AND PUSH20 0xFFFFFFFFFFFFFFFFFFFFFFFFFFFFFFFFFFFFFFFF AND DUP2 MSTORE POP POP DUP2 MSTORE PUSH1 0x20 ADD SWAP1 PUSH1 0x1 ADD SWAP1 PUSH2 0x37E JUMP JUMPDEST POP POP POP POP SWAP4 POP DUP2 DUP1 SLOAD PUSH2 0x4B4 SWAP1 PUSH2 0x1533 JUMP JUMPDEST DUP1 PUSH1 0x1F ADD PUSH1 0x20 DUP1 SWAP2 DIV MUL PUSH1 0x20 ADD PUSH1 0x40 MLOAD SWAP1 DUP2 ADD PUSH1 0x40 MSTORE DUP1 SWAP3 SWAP2 SWAP1 DUP2 DUP2 MSTORE PUSH1 0x20 ADD DUP3 DUP1 SLOAD PUSH2 0x4E0 SWAP1 PUSH2 0x1533 JUMP JUMPDEST DUP1 ISZERO PUSH2 0x52D JUMPI DUP1 PUSH1 0x1F LT PUSH2 0x502 JUMPI PUSH2 0x100 DUP1 DUP4 SLOAD DIV MUL DUP4 MSTORE SWAP2 PUSH1 0x20 ADD SWAP2 PUSH2 0x52D JUMP JUMPDEST DUP3 ADD SWAP2 SWAP1 PUSH1 0x0 MSTORE PUSH1 0x20 PUSH1 0x0 KECCAK256 SWAP1 JUMPDEST DUP2 SLOAD DUP2 MSTORE SWAP1 PUSH1 0x1 ADD SWAP1 PUSH1 0x20 ADD DUP1 DUP4 GT PUSH2 0x510 JUMPI DUP3 SWAP1 SUB PUSH1 0x1F AND DUP3 ADD SWAP2 JUMPDEST POP POP POP POP POP SWAP2 POP DUP1 DUP1 SLOAD PUSH2 0x540 SWAP1 PUSH2 0x1533 JUMP JUMPDEST DUP1 PUSH1 0x1F ADD PUSH1 0x20 DUP1 SWAP2 DIV MUL PUSH1 0x20 ADD PUSH1 0x40 MLOAD SWAP1 DUP2 ADD PUSH1 0x40 MSTORE DUP1 SWAP3 SWAP2 SWAP1 DUP2 DUP2 MSTORE PUSH1 0x20 ADD DUP3 DUP1 SLOAD PUSH2 0x56C SWAP1 PUSH2 0x1533 JUMP JUMPDEST DUP1 ISZERO PUSH2 0x5B9 JUMPI DUP1 PUSH1 0x1F LT PUSH2 0x58E JUMPI PUSH2 0x100 DUP1 DUP4 SLOAD DIV MUL DUP4 MSTORE SWAP2 PUSH1 0x20 ADD SWAP2 PUSH2 0x5B9 JUMP JUMPDEST DUP3 ADD SWAP2 SWAP1 PUSH1 0x0 MSTORE PUSH1 0x20 PUSH1 0x0 KECCAK256 SWAP1 JUMPDEST DUP2 SLOAD DUP2 MSTORE SWAP1 PUSH1 0x1 ADD SWAP1 PUSH1 0x20 ADD DUP1 DUP4 GT PUSH2 0x59C JUMPI DUP3 SWAP1 SUB PUSH1 0x1F AND DUP3 ADD SWAP2 JUMPDEST POP POP POP POP POP SWAP1 POP SWAP5 POP SWAP5 POP SWAP5 POP SWAP5 POP SWAP5 POP SWAP1 SWAP2 SWAP3 SWAP4 SWAP5 JUMP JUMPDEST PUSH1 0x4 DUP1 SLOAD PUSH2 0x5DE SWAP1 PUSH2 0x1533 JUMP JUMPDEST DUP1 PUSH1 0x1F ADD PUSH1 0x20 DUP1 SWAP2 DIV MUL PUSH1 0x20 ADD PUSH1 0x40 MLOAD SWAP1 DUP2 ADD PUSH1 0x40 MSTORE DUP1 SWAP3 SWAP2 SWAP1 DUP2 DUP2 MSTORE PUSH1 0x20 ADD DUP3 DUP1 SLOAD PUSH2 0x60A SWAP1 PUSH2 0x1533 JUMP JUMPDEST DUP1 ISZERO PUSH2 0x657 JUMPI DUP1 PUSH1 0x1F LT PUSH2 0x62C JUMPI PUSH2 0x100 DUP1 DUP4 SLOAD DIV MUL DUP4 MSTORE SWAP2 PUSH1 0x20 ADD SWAP2 PUSH2 0x657 JUMP JUMPDEST DUP3 ADD SWAP2 SWAP1 PUSH1 0x0 MSTORE PUSH1 0x20 PUSH1 0x0 KECCAK256 SWAP1 JUMPDEST DUP2 SLOAD DUP2 MSTORE SWAP1 PUSH1 0x1 ADD SWAP1 PUSH1 0x20 ADD DUP1 DUP4 GT PUSH2 0x63A JUMPI DUP3 SWAP1 SUB PUSH1 0x1F AND DUP3 ADD SWAP2 JUMPDEST POP POP POP POP POP DUP2 JUMP JUMPDEST PUSH1 0x0 DUP1 PUSH1 0x0 CALLER PUSH20 0xFFFFFFFFFFFFFFFFFFFFFFFFFFFFFFFFFFFFFFFF AND PUSH20 0xFFFFFFFFFFFFFFFFFFFFFFFFFFFFFFFFFFFFFFFF AND DUP2 MSTORE PUSH1 0x20 ADD SWAP1 DUP2 MSTORE PUSH1 0x20 ADD PUSH1 0x0 KECCAK256 PUSH1 0x0 SWAP1 SLOAD SWAP1 PUSH2 0x100 EXP SWAP1 DIV PUSH1 0xFF AND SWAP1 POP SWAP1 JUMP JUMPDEST PUSH1 0x2 PUSH1 0x0 SWAP1 SLOAD SWAP1 PUSH2 0x100 EXP SWAP1 DIV PUSH1 0xFF AND DUP2 JUMP JUMPDEST PUSH1 0x5 DUP2 DUP2 SLOAD DUP2 LT PUSH2 0x6D5 JUMPI PUSH1 0x0 DUP1 REVERT JUMPDEST SWAP1 PUSH1 0x0 MSTORE PUSH1 0x20 PUSH1 0x0 KECCAK256 SWAP1 PUSH1 0x3 MUL ADD PUSH1 0x0 SWAP2 POP SWAP1 POP DUP1 PUSH1 0x0 ADD DUP1 SLOAD PUSH2 0x6F8 SWAP1 PUSH2 0x1533 JUMP JUMPDEST DUP1 PUSH1 0x1F ADD PUSH1 0x20 DUP1 SWAP2 DIV MUL PUSH1 0x20 ADD PUSH1 0x40 MLOAD SWAP1 DUP2 ADD PUSH1 0x40 MSTORE DUP1 SWAP3 SWAP2 SWAP1 DUP2 DUP2 MSTORE PUSH1 0x20 ADD DUP3 DUP1 SLOAD PUSH2 0x724 SWAP1 PUSH2 0x1533 JUMP JUMPDEST DUP1 ISZERO PUSH2 0x771 JUMPI DUP1 PUSH1 0x1F LT PUSH2 0x746 JUMPI PUSH2 0x100 DUP1 DUP4 SLOAD DIV MUL DUP4 MSTORE SWAP2 PUSH1 0x20 ADD SWAP2 PUSH2 0x771 JUMP JUMPDEST DUP3 ADD SWAP2 SWAP1 PUSH1 0x0 MSTORE PUSH1 0x20 PUSH1 0x0 KECCAK256 SWAP1 JUMPDEST DUP2 SLOAD DUP2 MSTORE SWAP1 PUSH1 0x1 ADD SWAP1 PUSH1 0x20 ADD DUP1 DUP4 GT PUSH2 0x754 JUMPI DUP3 SWAP1 SUB PUSH1 0x1F AND DUP3 ADD SWAP2 JUMPDEST POP POP POP POP POP SWAP1 DUP1 PUSH1 0x1 ADD SLOAD SWAP1 DUP1 PUSH1 0x2 ADD PUSH1 0x0 SWAP1 SLOAD SWAP1 PUSH2 0x100 EXP SWAP1 DIV PUSH20 0xFFFFFFFFFFFFFFFFFFFFFFFFFFFFFFFFFFFFFFFF AND SWAP1 POP DUP4 JUMP JUMPDEST PUSH1 0x0 DUP1 CALLER PUSH20 0xFFFFFFFFFFFFFFFFFFFFFFFFFFFFFFFFFFFFFFFF AND PUSH20 0xFFFFFFFFFFFFFFFFFFFFFFFFFFFFFFFFFFFFFFFF AND DUP2 MSTORE PUSH1 0x20 ADD SWAP1 DUP2 MSTORE PUSH1 0x20 ADD PUSH1 0x0 KECCAK256 PUSH1 0x0 SWAP1 SLOAD SWAP1 PUSH2 0x100 EXP SWAP1 DIV PUSH1 0xFF AND PUSH2 0x832 JUMPI PUSH1 0x40 MLOAD PUSH32 0x8C379A000000000000000000000000000000000000000000000000000000000 DUP2 MSTORE PUSH1 0x4 ADD PUSH2 0x829 SWAP1 PUSH2 0x15D7 JUMP JUMPDEST PUSH1 0x40 MLOAD DUP1 SWAP2 SUB SWAP1 REVERT JUMPDEST PUSH1 0x0 DUP1 PUSH1 0x5 DUP4 DUP2 SLOAD DUP2 LT PUSH2 0x849 JUMPI PUSH2 0x848 PUSH2 0x15F7 JUMP JUMPDEST JUMPDEST SWAP1 PUSH1 0x0 MSTORE PUSH1 0x20 PUSH1 0x0 KECCAK256 SWAP1 PUSH1 0x3 MUL ADD PUSH1 0x2 ADD PUSH1 0x0 SWAP1 SLOAD SWAP1 PUSH2 0x100 EXP SWAP1 DIV PUSH20 0xFFFFFFFFFFFFFFFFFFFFFFFFFFFFFFFFFFFFFFFF AND PUSH20 0xFFFFFFFFFFFFFFFFFFFFFFFFFFFFFFFFFFFFFFFF AND PUSH20 0xFFFFFFFFFFFFFFFFFFFFFFFFFFFFFFFFFFFFFFFF AND DUP2 MSTORE PUSH1 0x20 ADD SWAP1 DUP2 MSTORE PUSH1 0x20 ADD PUSH1 0x0 KECCAK256 PUSH1 0x0 SWAP1 SLOAD SWAP1 PUSH2 0x100 EXP SWAP1 DIV PUSH1 0xFF AND ISZERO PUSH2 0x903 JUMPI PUSH1 0x40 MLOAD PUSH32 0x8C379A000000000000000000000000000000000000000000000000000000000 DUP2 MSTORE PUSH1 0x4 ADD PUSH2 0x8FA SWAP1 PUSH2 0x1698 JUMP JUMPDEST PUSH1 0x40 MLOAD DUP1 SWAP2 SUB SWAP1 REVERT JUMPDEST PUSH1 0x0 PUSH1 0x1 PUSH1 0x5 DUP1 SLOAD SWAP1 POP PUSH2 0x917 SWAP2 SWAP1 PUSH2 0x16E7 JUMP JUMPDEST SWAP1 POP PUSH1 0x0 PUSH1 0x5 DUP3 DUP2 SLOAD DUP2 LT PUSH2 0x92F JUMPI PUSH2 0x92E PUSH2 0x15F7 JUMP JUMPDEST JUMPDEST SWAP1 PUSH1 0x0 MSTORE PUSH1 0x20 PUSH1 0x0 KECCAK256 SWAP1 PUSH1 0x3 MUL ADD PUSH1 0x40 MLOAD DUP1 PUSH1 0x60 ADD PUSH1 0x40 MSTORE SWAP1 DUP2 PUSH1 0x0 DUP3 ADD DUP1 SLOAD PUSH2 0x958 SWAP1 PUSH2 0x1533 JUMP JUMPDEST DUP1 PUSH1 0x1F ADD PUSH1 0x20 DUP1 SWAP2 DIV MUL PUSH1 0x20 ADD PUSH1 0x40 MLOAD SWAP1 DUP2 ADD PUSH1 0x40 MSTORE DUP1 SWAP3 SWAP2 SWAP1 DUP2 DUP2 MSTORE PUSH1 0x20 ADD DUP3 DUP1 SLOAD PUSH2 0x984 SWAP1 PUSH2 0x1533 JUMP JUMPDEST DUP1 ISZERO PUSH2 0x9D1 JUMPI DUP1 PUSH1 0x1F LT PUSH2 0x9A6 JUMPI PUSH2 0x100 DUP1 DUP4 SLOAD DIV MUL DUP4 MSTORE SWAP2 PUSH1 0x20 ADD SWAP2 PUSH2 0x9D1 JUMP JUMPDEST DUP3 ADD SWAP2 SWAP1 PUSH1 0x0 MSTORE PUSH1 0x20 PUSH1 0x0 KECCAK256 SWAP1 JUMPDEST DUP2 SLOAD DUP2 MSTORE SWAP1 PUSH1 0x1 ADD SWAP1 PUSH1 0x20 ADD DUP1 DUP4 GT PUSH2 0x9B4 JUMPI DUP3 SWAP1 SUB PUSH1 0x1F AND DUP3 ADD SWAP2 JUMPDEST POP POP POP POP POP DUP2 MSTORE PUSH1 0x20 ADD PUSH1 0x1 DUP3 ADD SLOAD DUP2 MSTORE PUSH1 0x20 ADD PUSH1 0x2 DUP3 ADD PUSH1 0x0 SWAP1 SLOAD SWAP1 PUSH2 0x100 EXP SWAP1 DIV PUSH20 0xFFFFFFFFFFFFFFFFFFFFFFFFFFFFFFFFFFFFFFFF AND PUSH20 0xFFFFFFFFFFFFFFFFFFFFFFFFFFFFFFFFFFFFFFFF AND PUSH20 0xFFFFFFFFFFFFFFFFFFFFFFFFFFFFFFFFFFFFFFFF AND DUP2 MSTORE POP POP SWAP1 POP DUP1 PUSH1 0x5 DUP5 DUP2 SLOAD DUP2 LT PUSH2 0xA51 JUMPI PUSH2 0xA50 PUSH2 0x15F7 JUMP JUMPDEST JUMPDEST SWAP1 PUSH1 0x0 MSTORE PUSH1 0x20 PUSH1 0x0 KECCAK256 SWAP1 PUSH1 0x3 MUL ADD PUSH1 0x0 DUP3 ADD MLOAD DUP2 PUSH1 0x0 ADD SWAP1 DUP1 MLOAD SWAP1 PUSH1 0x20 ADD SWAP1 PUSH2 0xA7B SWAP3 SWAP2 SWAP1 PUSH2 0xDA1 JUMP JUMPDEST POP PUSH1 0x20 DUP3 ADD MLOAD DUP2 PUSH1 0x1 ADD SSTORE PUSH1 0x40 DUP3 ADD MLOAD DUP2 PUSH1 0x2 ADD PUSH1 0x0 PUSH2 0x100 EXP DUP2 SLOAD DUP2 PUSH20 0xFFFFFFFFFFFFFFFFFFFFFFFFFFFFFFFFFFFFFFFF MUL NOT AND SWAP1 DUP4 PUSH20 0xFFFFFFFFFFFFFFFFFFFFFFFFFFFFFFFFFFFFFFFF AND MUL OR SWAP1 SSTORE POP SWAP1 POP POP PUSH1 0x5 DUP1 SLOAD DUP1 PUSH2 0xAE2 JUMPI PUSH2 0xAE1 PUSH2 0x171B JUMP JUMPDEST JUMPDEST PUSH1 0x1 SWAP1 SUB DUP2 DUP2 SWAP1 PUSH1 0x0 MSTORE PUSH1 0x20 PUSH1 0x0 KECCAK256 SWAP1 PUSH1 0x3 MUL ADD PUSH1 0x0 DUP1 DUP3 ADD PUSH1 0x0 PUSH2 0xB07 SWAP2 SWAP1 PUSH2 0xE27 JUMP JUMPDEST PUSH1 0x1 DUP3 ADD PUSH1 0x0 SWAP1 SSTORE PUSH1 0x2 DUP3 ADD PUSH1 0x0 PUSH2 0x100 EXP DUP2 SLOAD SWAP1 PUSH20 0xFFFFFFFFFFFFFFFFFFFFFFFFFFFFFFFFFFFFFFFF MUL NOT AND SWAP1 SSTORE POP POP SWAP1 SSTORE PUSH1 0x1 PUSH1 0x0 DUP1 DUP4 PUSH1 0x40 ADD MLOAD PUSH20 0xFFFFFFFFFFFFFFFFFFFFFFFFFFFFFFFFFFFFFFFF AND PUSH20 0xFFFFFFFFFFFFFFFFFFFFFFFFFFFFFFFFFFFFFFFF AND DUP2 MSTORE PUSH1 0x20 ADD SWAP1 DUP2 MSTORE PUSH1 0x20 ADD PUSH1 0x0 KECCAK256 PUSH1 0x0 PUSH2 0x100 EXP DUP2 SLOAD DUP2 PUSH1 0xFF MUL NOT AND SWAP1 DUP4 ISZERO ISZERO MUL OR SWAP1 SSTORE POP PUSH1 0x1 DUP2 PUSH1 0x40 ADD MLOAD SWAP1 DUP1 PUSH1 0x1 DUP2 SLOAD ADD DUP1 DUP3 SSTORE DUP1 SWAP2 POP POP PUSH1 0x1 SWAP1 SUB SWAP1 PUSH1 0x0 MSTORE PUSH1 0x20 PUSH1 0x0 KECCAK256 ADD PUSH1 0x0 SWAP1 SWAP2 SWAP1 SWAP2 SWAP1 SWAP2 PUSH2 0x100 EXP DUP2 SLOAD DUP2 PUSH20 0xFFFFFFFFFFFFFFFFFFFFFFFFFFFFFFFFFFFFFFFF MUL NOT AND SWAP1 DUP4 PUSH20 0xFFFFFFFFFFFFFFFFFFFFFFFFFFFFFFFFFFFFFFFF AND MUL OR SWAP1 SSTORE POP POP POP POP JUMP JUMPDEST PUSH1 0x1 DUP2 DUP2 SLOAD DUP2 LT PUSH2 0xC11 JUMPI PUSH1 0x0 DUP1 REVERT JUMPDEST SWAP1 PUSH1 0x0 MSTORE PUSH1 0x20 PUSH1 0x0 KECCAK256 ADD PUSH1 0x0 SWAP2 POP SLOAD SWAP1 PUSH2 0x100 EXP SWAP1 DIV PUSH20 0xFFFFFFFFFFFFFFFFFFFFFFFFFFFFFFFFFFFFFFFF AND DUP2 JUMP JUMPDEST PUSH1 0x0 DUP1 CALLER PUSH20 0xFFFFFFFFFFFFFFFFFFFFFFFFFFFFFFFFFFFFFFFF AND PUSH20 0xFFFFFFFFFFFFFFFFFFFFFFFFFFFFFFFFFFFFFFFF AND DUP2 MSTORE PUSH1 0x20 ADD SWAP1 DUP2 MSTORE PUSH1 0x20 ADD PUSH1 0x0 KECCAK256 PUSH1 0x0 SWAP1 SLOAD SWAP1 PUSH2 0x100 EXP SWAP1 DIV PUSH1 0xFF AND ISZERO PUSH2 0xCCC JUMPI PUSH1 0x40 MLOAD PUSH32 0x8C379A000000000000000000000000000000000000000000000000000000000 DUP2 MSTORE PUSH1 0x4 ADD PUSH2 0xCC3 SWAP1 PUSH2 0x17BC JUMP JUMPDEST PUSH1 0x40 MLOAD DUP1 SWAP2 SUB SWAP1 REVERT JUMPDEST PUSH1 0x0 PUSH1 0x40 MLOAD DUP1 PUSH1 0x60 ADD PUSH1 0x40 MSTORE DUP1 DUP4 DUP2 MSTORE PUSH1 0x20 ADD TIMESTAMP DUP2 MSTORE PUSH1 0x20 ADD CALLER PUSH20 0xFFFFFFFFFFFFFFFFFFFFFFFFFFFFFFFFFFFFFFFF AND DUP2 MSTORE POP SWAP1 POP PUSH1 0x5 DUP2 SWAP1 DUP1 PUSH1 0x1 DUP2 SLOAD ADD DUP1 DUP3 SSTORE DUP1 SWAP2 POP POP PUSH1 0x1 SWAP1 SUB SWAP1 PUSH1 0x0 MSTORE PUSH1 0x20 PUSH1 0x0 KECCAK256 SWAP1 PUSH1 0x3 MUL ADD PUSH1 0x0 SWAP1 SWAP2 SWAP1 SWAP2 SWAP1 SWAP2 POP PUSH1 0x0 DUP3 ADD MLOAD DUP2 PUSH1 0x0 ADD SWAP1 DUP1 MLOAD SWAP1 PUSH1 0x20 ADD SWAP1 PUSH2 0xD49 SWAP3 SWAP2 SWAP1 PUSH2 0xDA1 JUMP JUMPDEST POP PUSH1 0x20 DUP3 ADD MLOAD DUP2 PUSH1 0x1 ADD SSTORE PUSH1 0x40 DUP3 ADD MLOAD DUP2 PUSH1 0x2 ADD PUSH1 0x0 PUSH2 0x100 EXP DUP2 SLOAD DUP2 PUSH20 0xFFFFFFFFFFFFFFFFFFFFFFFFFFFFFFFFFFFFFFFF MUL NOT AND SWAP1 DUP4 PUSH20 0xFFFFFFFFFFFFFFFFFFFFFFFFFFFFFFFFFFFFFFFF AND MUL OR SWAP1 SSTORE POP POP POP POP POP JUMP JUMPDEST DUP3 DUP1 SLOAD PUSH2 0xDAD SWAP1 PUSH2 0x1533 JUMP JUMPDEST SWAP1 PUSH1 0x0 MSTORE PUSH1 0x20 PUSH1 0x0 KECCAK256 SWAP1 PUSH1 0x1F ADD PUSH1 0x20 SWAP1 DIV DUP2 ADD SWAP3 DUP3 PUSH2 0xDCF JUMPI PUSH1 0x0 DUP6 SSTORE PUSH2 0xE16 JUMP JUMPDEST DUP3 PUSH1 0x1F LT PUSH2 0xDE8 JUMPI DUP1 MLOAD PUSH1 0xFF NOT AND DUP4 DUP1 ADD OR DUP6 SSTORE PUSH2 0xE16 JUMP JUMPDEST DUP3 DUP1 ADD PUSH1 0x1 ADD DUP6 SSTORE DUP3 ISZERO PUSH2 0xE16 JUMPI SWAP2 DUP3 ADD JUMPDEST DUP3 DUP2 GT ISZERO PUSH2 0xE15 JUMPI DUP3 MLOAD DUP3 SSTORE SWAP2 PUSH1 0x20 ADD SWAP2 SWAP1 PUSH1 0x1 ADD SWAP1 PUSH2 0xDFA JUMP JUMPDEST JUMPDEST POP SWAP1 POP PUSH2 0xE23 SWAP2 SWAP1 PUSH2 0xE67 JUMP JUMPDEST POP SWAP1 JUMP JUMPDEST POP DUP1 SLOAD PUSH2 0xE33 SWAP1 PUSH2 0x1533 JUMP JUMPDEST PUSH1 0x0 DUP3 SSTORE DUP1 PUSH1 0x1F LT PUSH2 0xE45 JUMPI POP PUSH2 0xE64 JUMP JUMPDEST PUSH1 0x1F ADD PUSH1 0x20 SWAP1 DIV SWAP1 PUSH1 0x0 MSTORE PUSH1 0x20 PUSH1 0x0 KECCAK256 SWAP1 DUP2 ADD SWAP1 PUSH2 0xE63 SWAP2 SWAP1 PUSH2 0xE67 JUMP JUMPDEST JUMPDEST POP JUMP JUMPDEST JUMPDEST DUP1 DUP3 GT ISZERO PUSH2 0xE80 JUMPI PUSH1 0x0 DUP2 PUSH1 0x0 SWAP1 SSTORE POP PUSH1 0x1 ADD PUSH2 0xE68 JUMP JUMPDEST POP SWAP1 JUMP JUMPDEST PUSH1 0x0 DUP2 MLOAD SWAP1 POP SWAP2 SWAP1 POP JUMP JUMPDEST PUSH1 0x0 DUP3 DUP3 MSTORE PUSH1 0x20 DUP3 ADD SWAP1 POP SWAP3 SWAP2 POP POP JUMP JUMPDEST PUSH1 0x0 JUMPDEST DUP4 DUP2 LT ISZERO PUSH2 0xEBE JUMPI DUP1 DUP3 ADD MLOAD DUP2 DUP5 ADD MSTORE PUSH1 0x20 DUP2 ADD SWAP1 POP PUSH2 0xEA3 JUMP JUMPDEST DUP4 DUP2 GT ISZERO PUSH2 0xECD JUMPI PUSH1 0x0 DUP5 DUP5 ADD MSTORE JUMPDEST POP POP POP POP JUMP JUMPDEST PUSH1 0x0 PUSH1 0x1F NOT PUSH1 0x1F DUP4 ADD AND SWAP1 POP SWAP2 SWAP1 POP JUMP JUMPDEST PUSH1 0x0 PUSH2 0xEEF DUP3 PUSH2 0xE84 JUMP JUMPDEST PUSH2 0xEF9 DUP2 DUP6 PUSH2 0xE8F JUMP JUMPDEST SWAP4 POP PUSH2 0xF09 DUP2 DUP6 PUSH1 0x20 DUP7 ADD PUSH2 0xEA0 JUMP JUMPDEST PUSH2 0xF12 DUP2 PUSH2 0xED3 JUMP JUMPDEST DUP5 ADD SWAP2 POP POP SWAP3 SWAP2 POP POP JUMP JUMPDEST PUSH1 0x0 PUSH1 0x20 DUP3 ADD SWAP1 POP DUP2 DUP2 SUB PUSH1 0x0 DUP4 ADD MSTORE PUSH2 0xF37 DUP2 DUP5 PUSH2 0xEE4 JUMP JUMPDEST SWAP1 POP SWAP3 SWAP2 POP POP JUMP JUMPDEST PUSH1 0x0 PUSH1 0x40 MLOAD SWAP1 POP SWAP1 JUMP JUMPDEST PUSH1 0x0 DUP1 REVERT JUMPDEST PUSH1 0x0 DUP1 REVERT JUMPDEST PUSH1 0x0 PUSH20 0xFFFFFFFFFFFFFFFFFFFFFFFFFFFFFFFFFFFFFFFF DUP3 AND SWAP1 POP SWAP2 SWAP1 POP JUMP JUMPDEST PUSH1 0x0 PUSH2 0xF7E DUP3 PUSH2 0xF53 JUMP JUMPDEST SWAP1 POP SWAP2 SWAP1 POP JUMP JUMPDEST PUSH2 0xF8E DUP2 PUSH2 0xF73 JUMP JUMPDEST DUP2 EQ PUSH2 0xF99 JUMPI PUSH1 0x0 DUP1 REVERT JUMPDEST POP JUMP JUMPDEST PUSH1 0x0 DUP2 CALLDATALOAD SWAP1 POP PUSH2 0xFAB DUP2 PUSH2 0xF85 JUMP JUMPDEST SWAP3 SWAP2 POP POP JUMP JUMPDEST PUSH1 0x0 PUSH1 0x20 DUP3 DUP5 SUB SLT ISZERO PUSH2 0xFC7 JUMPI PUSH2 0xFC6 PUSH2 0xF49 JUMP JUMPDEST JUMPDEST PUSH1 0x0 PUSH2 0xFD5 DUP5 DUP3 DUP6 ADD PUSH2 0xF9C JUMP JUMPDEST SWAP2 POP POP SWAP3 SWAP2 POP POP JUMP JUMPDEST PUSH1 0x0 DUP2 ISZERO ISZERO SWAP1 POP SWAP2 SWAP1 POP JUMP JUMPDEST PUSH2 0xFF3 DUP2 PUSH2 0xFDE JUMP JUMPDEST DUP3 MSTORE POP POP JUMP JUMPDEST PUSH1 0x0 PUSH1 0x20 DUP3 ADD SWAP1 POP PUSH2 0x100E PUSH1 0x0 DUP4 ADD DUP5 PUSH2 0xFEA JUMP JUMPDEST SWAP3 SWAP2 POP POP JUMP JUMPDEST PUSH1 0x0 DUP2 MLOAD SWAP1 POP SWAP2 SWAP1 POP JUMP JUMPDEST PUSH1 0x0 DUP3 DUP3 MSTORE PUSH1 0x20 DUP3 ADD SWAP1 POP SWAP3 SWAP2 POP POP JUMP JUMPDEST PUSH1 0x0 DUP2 SWAP1 POP PUSH1 0x20 DUP3 ADD SWAP1 POP SWAP2 SWAP1 POP JUMP JUMPDEST PUSH2 0x1049 DUP2 PUSH2 0xF73 JUMP JUMPDEST DUP3 MSTORE POP POP JUMP JUMPDEST PUSH1 0x0 PUSH2 0x105B DUP4 DUP4 PUSH2 0x1040 JUMP JUMPDEST PUSH1 0x20 DUP4 ADD SWAP1 POP SWAP3 SWAP2 POP POP JUMP JUMPDEST PUSH1 0x0 PUSH1 0x20 DUP3 ADD SWAP1 POP SWAP2 SWAP1 POP JUMP JUMPDEST PUSH1 0x0 PUSH2 0x107F DUP3 PUSH2 0x1014 JUMP JUMPDEST PUSH2 0x1089 DUP2 DUP6 PUSH2 0x101F JUMP JUMPDEST SWAP4 POP PUSH2 0x1094 DUP4 PUSH2 0x1030 JUMP JUMPDEST DUP1 PUSH1 0x0 JUMPDEST DUP4 DUP2 LT ISZERO PUSH2 0x10C5 JUMPI DUP2 MLOAD PUSH2 0x10AC DUP9 DUP3 PUSH2 0x104F JUMP JUMPDEST SWAP8 POP PUSH2 0x10B7 DUP4 PUSH2 0x1067 JUMP JUMPDEST SWAP3 POP POP PUSH1 0x1 DUP2 ADD SWAP1 POP PUSH2 0x1098 JUMP JUMPDEST POP DUP6 SWAP4 POP POP POP POP SWAP3 SWAP2 POP POP JUMP JUMPDEST PUSH1 0x0 DUP2 MLOAD SWAP1 POP SWAP2 SWAP1 POP JUMP JUMPDEST PUSH1 0x0 DUP3 DUP3 MSTORE PUSH1 0x20 DUP3 ADD SWAP1 POP SWAP3 SWAP2 POP POP JUMP JUMPDEST PUSH1 0x0 DUP2 SWAP1 POP PUSH1 0x20 DUP3 ADD SWAP1 POP SWAP2 SWAP1 POP JUMP JUMPDEST PUSH1 0x0 DUP3 DUP3 MSTORE PUSH1 0x20 DUP3 ADD SWAP1 POP SWAP3 SWAP2 POP POP JUMP JUMPDEST PUSH1 0x0 PUSH2 0x111A DUP3 PUSH2 0xE84 JUMP JUMPDEST PUSH2 0x1124 DUP2 DUP6 PUSH2 0x10FE JUMP JUMPDEST SWAP4 POP PUSH2 0x1134 DUP2 DUP6 PUSH1 0x20 DUP7 ADD PUSH2 0xEA0 JUMP JUMPDEST PUSH2 0x113D DUP2 PUSH2 0xED3 JUMP JUMPDEST DUP5 ADD SWAP2 POP POP SWAP3 SWAP2 POP POP JUMP JUMPDEST PUSH1 0x0 DUP2 SWAP1 POP SWAP2 SWAP1 POP JUMP JUMPDEST PUSH2 0x115B DUP2 PUSH2 0x1148 JUMP JUMPDEST DUP3 MSTORE POP POP JUMP JUMPDEST PUSH1 0x0 PUSH1 0x60 DUP4 ADD PUSH1 0x0 DUP4 ADD MLOAD DUP5 DUP3 SUB PUSH1 0x0 DUP7 ADD MSTORE PUSH2 0x117E DUP3 DUP3 PUSH2 0x110F JUMP JUMPDEST SWAP2 POP POP PUSH1 0x20 DUP4 ADD MLOAD PUSH2 0x1193 PUSH1 0x20 DUP7 ADD DUP3 PUSH2 0x1152 JUMP JUMPDEST POP PUSH1 0x40 DUP4 ADD MLOAD PUSH2 0x11A6 PUSH1 0x40 DUP7 ADD DUP3 PUSH2 0x1040 JUMP JUMPDEST POP DUP1 SWAP2 POP POP SWAP3 SWAP2 POP POP JUMP JUMPDEST PUSH1 0x0 PUSH2 0x11BD DUP4 DUP4 PUSH2 0x1161 JUMP JUMPDEST SWAP1 POP SWAP3 SWAP2 POP POP JUMP JUMPDEST PUSH1 0x0 PUSH1 0x20 DUP3 ADD SWAP1 POP SWAP2 SWAP1 POP JUMP JUMPDEST PUSH1 0x0 PUSH2 0x11DD DUP3 PUSH2 0x10D2 JUMP JUMPDEST PUSH2 0x11E7 DUP2 DUP6 PUSH2 0x10DD JUMP JUMPDEST SWAP4 POP DUP4 PUSH1 0x20 DUP3 MUL DUP6 ADD PUSH2 0x11F9 DUP6 PUSH2 0x10EE JUMP JUMPDEST DUP1 PUSH1 0x0 JUMPDEST DUP6 DUP2 LT ISZERO PUSH2 0x1235 JUMPI DUP5 DUP5 SUB DUP10 MSTORE DUP2 MLOAD PUSH2 0x1216 DUP6 DUP3 PUSH2 0x11B1 JUMP JUMPDEST SWAP5 POP PUSH2 0x1221 DUP4 PUSH2 0x11C5 JUMP JUMPDEST SWAP3 POP PUSH1 0x20 DUP11 ADD SWAP10 POP POP PUSH1 0x1 DUP2 ADD SWAP1 POP PUSH2 0x11FD JUMP JUMPDEST POP DUP3 SWAP8 POP DUP8 SWAP6 POP POP POP POP POP POP SWAP3 SWAP2 POP POP JUMP JUMPDEST PUSH1 0x0 PUSH1 0xA0 DUP3 ADD SWAP1 POP DUP2 DUP2 SUB PUSH1 0x0 DUP4 ADD MSTORE PUSH2 0x1261 DUP2 DUP9 PUSH2 0x1074 JUMP JUMPDEST SWAP1 POP DUP2 DUP2 SUB PUSH1 0x20 DUP4 ADD MSTORE PUSH2 0x1275 DUP2 DUP8 PUSH2 0x11D2 JUMP JUMPDEST SWAP1 POP PUSH2 0x1284 PUSH1 0x40 DUP4 ADD DUP7 PUSH2 0xFEA JUMP JUMPDEST DUP2 DUP2 SUB PUSH1 0x60 DUP4 ADD MSTORE PUSH2 0x1296 DUP2 DUP6 PUSH2 0xEE4 JUMP JUMPDEST SWAP1 POP DUP2 DUP2 SUB PUSH1 0x80 DUP4 ADD MSTORE PUSH2 0x12AA DUP2 DUP5 PUSH2 0xEE4 JUMP JUMPDEST SWAP1 POP SWAP7 SWAP6 POP POP POP POP POP POP JUMP JUMPDEST PUSH2 0x12BF DUP2 PUSH2 0x1148 JUMP JUMPDEST DUP2 EQ PUSH2 0x12CA JUMPI PUSH1 0x0 DUP1 REVERT JUMPDEST POP JUMP JUMPDEST PUSH1 0x0 DUP2 CALLDATALOAD SWAP1 POP PUSH2 0x12DC DUP2 PUSH2 0x12B6 JUMP JUMPDEST SWAP3 SWAP2 POP POP JUMP JUMPDEST PUSH1 0x0 PUSH1 0x20 DUP3 DUP5 SUB SLT ISZERO PUSH2 0x12F8 JUMPI PUSH2 0x12F7 PUSH2 0xF49 JUMP JUMPDEST JUMPDEST PUSH1 0x0 PUSH2 0x1306 DUP5 DUP3 DUP6 ADD PUSH2 0x12CD JUMP JUMPDEST SWAP2 POP POP SWAP3 SWAP2 POP POP JUMP JUMPDEST PUSH2 0x1318 DUP2 PUSH2 0x1148 JUMP JUMPDEST DUP3 MSTORE POP POP JUMP JUMPDEST PUSH2 0x1327 DUP2 PUSH2 0xF73 JUMP JUMPDEST DUP3 MSTORE POP POP JUMP JUMPDEST PUSH1 0x0 PUSH1 0x60 DUP3 ADD SWAP1 POP DUP2 DUP2 SUB PUSH1 0x0 DUP4 ADD MSTORE PUSH2 0x1347 DUP2 DUP7 PUSH2 0xEE4 JUMP JUMPDEST SWAP1 POP PUSH2 0x1356 PUSH1 0x20 DUP4 ADD DUP6 PUSH2 0x130F JUMP JUMPDEST PUSH2 0x1363 PUSH1 0x40 DUP4 ADD DUP5 PUSH2 0x131E JUMP JUMPDEST SWAP5 SWAP4 POP POP POP POP JUMP JUMPDEST PUSH1 0x0 PUSH1 0x20 DUP3 ADD SWAP1 POP PUSH2 0x1380 PUSH1 0x0 DUP4 ADD DUP5 PUSH2 0x131E JUMP JUMPDEST SWAP3 SWAP2 POP POP JUMP JUMPDEST PUSH1 0x0 DUP1 REVERT JUMPDEST PUSH1 0x0 DUP1 REVERT JUMPDEST PUSH32 0x4E487B7100000000000000000000000000000000000000000000000000000000 PUSH1 0x0 MSTORE PUSH1 0x41 PUSH1 0x4 MSTORE PUSH1 0x24 PUSH1 0x0 REVERT JUMPDEST PUSH2 0x13C8 DUP3 PUSH2 0xED3 JUMP JUMPDEST DUP2 ADD DUP2 DUP2 LT PUSH8 0xFFFFFFFFFFFFFFFF DUP3 GT OR ISZERO PUSH2 0x13E7 JUMPI PUSH2 0x13E6 PUSH2 0x1390 JUMP JUMPDEST JUMPDEST DUP1 PUSH1 0x40 MSTORE POP POP POP JUMP JUMPDEST PUSH1 0x0 PUSH2 0x13FA PUSH2 0xF3F JUMP JUMPDEST SWAP1 POP PUSH2 0x1406 DUP3 DUP3 PUSH2 0x13BF JUMP JUMPDEST SWAP2 SWAP1 POP JUMP JUMPDEST PUSH1 0x0 PUSH8 0xFFFFFFFFFFFFFFFF DUP3 GT ISZERO PUSH2 0x1426 JUMPI PUSH2 0x1425 PUSH2 0x1390 JUMP JUMPDEST JUMPDEST PUSH2 0x142F DUP3 PUSH2 0xED3 JUMP JUMPDEST SWAP1 POP PUSH1 0x20 DUP2 ADD SWAP1 POP SWAP2 SWAP1 POP JUMP JUMPDEST DUP3 DUP2 DUP4 CALLDATACOPY PUSH1 0x0 DUP4 DUP4 ADD MSTORE POP POP POP JUMP JUMPDEST PUSH1 0x0 PUSH2 0x145E PUSH2 0x1459 DUP5 PUSH2 0x140B JUMP JUMPDEST PUSH2 0x13F0 JUMP JUMPDEST SWAP1 POP DUP3 DUP2 MSTORE PUSH1 0x20 DUP2 ADD DUP5 DUP5 DUP5 ADD GT ISZERO PUSH2 0x147A JUMPI PUSH2 0x1479 PUSH2 0x138B JUMP JUMPDEST JUMPDEST PUSH2 0x1485 DUP5 DUP3 DUP6 PUSH2 0x143C JUMP JUMPDEST POP SWAP4 SWAP3 POP POP POP JUMP JUMPDEST PUSH1 0x0 DUP3 PUSH1 0x1F DUP4 ADD SLT PUSH2 0x14A2 JUMPI PUSH2 0x14A1 PUSH2 0x1386 JUMP JUMPDEST JUMPDEST DUP2 CALLDATALOAD PUSH2 0x14B2 DUP5 DUP3 PUSH1 0x20 DUP7 ADD PUSH2 0x144B JUMP JUMPDEST SWAP2 POP POP SWAP3 SWAP2 POP POP JUMP JUMPDEST PUSH1 0x0 PUSH1 0x20 DUP3 DUP5 SUB SLT ISZERO PUSH2 0x14D1 JUMPI PUSH2 0x14D0 PUSH2 0xF49 JUMP JUMPDEST JUMPDEST PUSH1 0x0 DUP3 ADD CALLDATALOAD PUSH8 0xFFFFFFFFFFFFFFFF DUP2 GT ISZERO PUSH2 0x14EF JUMPI PUSH2 0x14EE PUSH2 0xF4E JUMP JUMPDEST JUMPDEST PUSH2 0x14FB DUP5 DUP3 DUP6 ADD PUSH2 0x148D JUMP JUMPDEST SWAP2 POP POP SWAP3 SWAP2 POP POP JUMP JUMPDEST PUSH32 0x4E487B7100000000000000000000000000000000000000000000000000000000 PUSH1 0x0 MSTORE PUSH1 0x22 PUSH1 0x4 MSTORE PUSH1 0x24 PUSH1 0x0 REVERT JUMPDEST PUSH1 0x0 PUSH1 0x2 DUP3 DIV SWAP1 POP PUSH1 0x1 DUP3 AND DUP1 PUSH2 0x154B JUMPI PUSH1 0x7F DUP3 AND SWAP2 POP JUMPDEST PUSH1 0x20 DUP3 LT DUP2 EQ ISZERO PUSH2 0x155F JUMPI PUSH2 0x155E PUSH2 0x1504 JUMP JUMPDEST JUMPDEST POP SWAP2 SWAP1 POP JUMP JUMPDEST PUSH32 0x4F6E6C7920616E20616363657074656420617574686F722063616E2061707072 PUSH1 0x0 DUP3 ADD MSTORE PUSH32 0x6F76652061207265717565737400000000000000000000000000000000000000 PUSH1 0x20 DUP3 ADD MSTORE POP JUMP JUMPDEST PUSH1 0x0 PUSH2 0x15C1 PUSH1 0x2D DUP4 PUSH2 0xE8F JUMP JUMPDEST SWAP2 POP PUSH2 0x15CC DUP3 PUSH2 0x1565 JUMP JUMPDEST PUSH1 0x40 DUP3 ADD SWAP1 POP SWAP2 SWAP1 POP JUMP JUMPDEST PUSH1 0x0 PUSH1 0x20 DUP3 ADD SWAP1 POP DUP2 DUP2 SUB PUSH1 0x0 DUP4 ADD MSTORE PUSH2 0x15F0 DUP2 PUSH2 0x15B4 JUMP JUMPDEST SWAP1 POP SWAP2 SWAP1 POP JUMP JUMPDEST PUSH32 0x4E487B7100000000000000000000000000000000000000000000000000000000 PUSH1 0x0 MSTORE PUSH1 0x32 PUSH1 0x4 MSTORE PUSH1 0x24 PUSH1 0x0 REVERT JUMPDEST PUSH32 0x417574686F72206F6620746865207265717565737420697320616C7265616479 PUSH1 0x0 DUP3 ADD MSTORE PUSH32 0x20696E636C7564656420696E20746865206C697374206F6620617574686F7273 PUSH1 0x20 DUP3 ADD MSTORE POP JUMP JUMPDEST PUSH1 0x0 PUSH2 0x1682 PUSH1 0x40 DUP4 PUSH2 0xE8F JUMP JUMPDEST SWAP2 POP PUSH2 0x168D DUP3 PUSH2 0x1626 JUMP JUMPDEST PUSH1 0x40 DUP3 ADD SWAP1 POP SWAP2 SWAP1 POP JUMP JUMPDEST PUSH1 0x0 PUSH1 0x20 DUP3 ADD SWAP1 POP DUP2 DUP2 SUB PUSH1 0x0 DUP4 ADD MSTORE PUSH2 0x16B1 DUP2 PUSH2 0x1675 JUMP JUMPDEST SWAP1 POP SWAP2 SWAP1 POP JUMP JUMPDEST PUSH32 0x4E487B7100000000000000000000000000000000000000000000000000000000 PUSH1 0x0 MSTORE PUSH1 0x11 PUSH1 0x4 MSTORE PUSH1 0x24 PUSH1 0x0 REVERT JUMPDEST PUSH1 0x0 PUSH2 0x16F2 DUP3 PUSH2 0x1148 JUMP JUMPDEST SWAP2 POP PUSH2 0x16FD DUP4 PUSH2 0x1148 JUMP JUMPDEST SWAP3 POP DUP3 DUP3 LT ISZERO PUSH2 0x1710 JUMPI PUSH2 0x170F PUSH2 0x16B8 JUMP JUMPDEST JUMPDEST DUP3 DUP3 SUB SWAP1 POP SWAP3 SWAP2 POP POP JUMP JUMPDEST PUSH32 0x4E487B7100000000000000000000000000000000000000000000000000000000 PUSH1 0x0 MSTORE PUSH1 0x31 PUSH1 0x4 MSTORE PUSH1 0x24 PUSH1 0x0 REVERT JUMPDEST PUSH32 0x417574686F7220616C72656164792065786973747320696E20746865206C6973 PUSH1 0x0 DUP3 ADD MSTORE PUSH32 0x74206F6620617574686F72730000000000000000000000000000000000000000 PUSH1 0x20 DUP3 ADD MSTORE POP JUMP JUMPDEST PUSH1 0x0 PUSH2 0x17A6 PUSH1 0x2C DUP4 PUSH2 0xE8F JUMP JUMPDEST SWAP2 POP PUSH2 0x17B1 DUP3 PUSH2 0x174A JUMP JUMPDEST PUSH1 0x40 DUP3 ADD SWAP1 POP SWAP2 SWAP1 POP JUMP JUMPDEST PUSH1 0x0 PUSH1 0x20 DUP3 ADD SWAP1 POP DUP2 DUP2 SUB PUSH1 0x0 DUP4 ADD MSTORE PUSH2 0x17D5 DUP2 PUSH2 0x1799 JUMP JUMPDEST SWAP1 POP SWAP2 SWAP1 POP JUMP INVALID LOG2 PUSH5 0x6970667358 0x22 SLT KECCAK256 0xDB 0xC7 0xF9 GASLIMIT 0x2E 0xDA PUSH25 0x1340872A696DD0FC6F09254EE7B4CE222CF478D2F779575DFD PUSH5 0x736F6C6343 STOP ADDMOD MULMOD STOP CALLER LOG2 PUSH5 0x6970667358 0x22 SLT KECCAK256 PUSH29 0xC9BDACA414BDC751443AA7F1DB30E731F32E3EA0E41D9E312AE52F557 0xB4 CREATE2 PUSH5 0x736F6C6343 STOP ADDMOD MULMOD STOP CALLER "},"gasEstimates":{"creation":{"codeDepositCost":"1872600","executionCost":"1976","totalCost":"1874576"},"external":{"createStory(string,string)":"infinite","deployedStories(uint256)":"4934","getDeployedStories()":"infinite"}},"methodIdentifiers":{"createStory(string,string)":"9151d403","deployedStories(uint256)":"18351ea7","getDeployedStories()":"2ff2bdd5"}},"storageLayout":{"storage":[{"astId":4,"contract":"Story.sol:StoryFactory","label":"deployedStories","offset":0,"slot":"0","type":"t_array(t_address)dyn_storage"}],"types":{"t_address":{"encoding":"inplace","label":"address","numberOfBytes":"20"},"t_array(t_address)dyn_storage":{"base":"t_address","encoding":"dynamic_array","label":"address[]","numberOfBytes":"32"}}},"userdoc":{"kind":"user","methods":{},"version":1}}