{"abi":[{"inputs":[{"internalType":"address","name":"_mainAuthor","type":"address"},{"internalType":"string","name":"_title","type":"string"},{"internalType":"string","name":"_genre","type":"string"},{"internalType":"string","name":"_mainIdea","type":"string"}],"stateMutability":"nonpayable","type":"constructor"},{"inputs":[{"internalType":"uint256","name":"_index","type":"uint256"}],"name":"approveRequestToJoin","outputs":[],"stateMutability":"nonpayable","type":"function"},{"inputs":[{"internalType":"uint256","name":"","type":"uint256"}],"name":"authorsForReact","outputs":[{"internalType":"address","name":"","type":"address"}],"stateMutability":"view","type":"function"},{"inputs":[{"internalType":"address","name":"","type":"address"}],"name":"authorsForSolidity","outputs":[{"internalType":"bool","name":"","type":"bool"}],"stateMutability":"view","type":"function"},{"inputs":[{"internalType":"uint256","name":"","type":"uint256"}],"name":"chaptersForReact","outputs":[{"internalType":"address","name":"","type":"address"}],"stateMutability":"view","type":"function"},{"inputs":[{"internalType":"address","name":"","type":"address"}],"name":"chaptersForSolidity","outputs":[{"internalType":"bool","name":"","type":"bool"}],"stateMutability":"view","type":"function"},{"inputs":[],"name":"contribute","outputs":[],"stateMutability":"payable","type":"function"},{"inputs":[{"internalType":"string","name":"_title","type":"string"},{"internalType":"string","name":"_ipfsHash","type":"string"},{"internalType":"address","name":"_parentChapter","type":"address"},{"internalType":"address","name":"_childChapter","type":"address"}],"name":"createChapter","outputs":[],"stateMutability":"nonpayable","type":"function"},{"inputs":[{"internalType":"string","name":"_proposal","type":"string"}],"name":"createRequestToJoin","outputs":[],"stateMutability":"nonpayable","type":"function"},{"inputs":[],"name":"dispenseRewards","outputs":[],"stateMutability":"nonpayable","type":"function"},{"inputs":[],"name":"getChapters","outputs":[{"internalType":"address[]","name":"","type":"address[]"}],"stateMutability":"view","type":"function"},{"inputs":[],"name":"getSummary","outputs":[{"internalType":"address","name":"","type":"address"},{"internalType":"string","name":"","type":"string"},{"internalType":"string","name":"","type":"string"},{"internalType":"string","name":"","type":"string"},{"internalType":"address[]","name":"","type":"address[]"},{"internalType":"address[]","name":"","type":"address[]"},{"internalType":"uint256","name":"","type":"uint256"},{"internalType":"uint256","name":"","type":"uint256"},{"internalType":"bool","name":"","type":"bool"},{"internalType":"uint256","name":"","type":"uint256"}],"stateMutability":"view","type":"function"},{"inputs":[],"name":"isAuthor","outputs":[{"internalType":"bool","name":"","type":"bool"}],"stateMutability":"view","type":"function"},{"inputs":[],"name":"report","outputs":[],"stateMutability":"nonpayable","type":"function"},{"inputs":[],"name":"reported","outputs":[{"internalType":"bool","name":"","type":"bool"}],"stateMutability":"view","type":"function"}],"devdoc":{"kind":"dev","methods":{},"version":1},"evm":{"assembly":"    /* \"Story.sol\":1164:7787  contract Story {... */\n  mstore(0x40, 0x80)\n    /* \"Story.sol\":1875:2221  constructor(address _mainAuthor, string memory _title, string memory _genre, string memory _mainIdea) {... */\n  callvalue\n  dup1\n  iszero\n  tag_1\n  jumpi\n  0x00\n  dup1\n  revert\ntag_1:\n  pop\n  mload(0x40)\n  sub(codesize, bytecodeSize)\n  dup1\n  bytecodeSize\n  dup4\n  codecopy\n  dup2\n  dup2\n  add\n  0x40\n  mstore\n  dup2\n  add\n  swap1\n  tag_2\n  swap2\n  swap1\n  tag_3\n  jump\t// in\ntag_2:\n    /* \"Story.sol\":2001:2012  _mainAuthor */\n  dup4\n    /* \"Story.sol\":1988:1998  mainAuthor */\n  0x00\n  dup1\n    /* \"Story.sol\":1988:2012  mainAuthor = _mainAuthor */\n  0x0100\n  exp\n  dup2\n  sload\n  dup2\n  0xffffffffffffffffffffffffffffffffffffffff\n  mul\n  not\n  and\n  swap1\n  dup4\n  0xffffffffffffffffffffffffffffffffffffffff\n  and\n  mul\n  or\n  swap1\n  sstore\n  pop\n    /* \"Story.sol\":2057:2061  true */\n  0x01\n    /* \"Story.sol\":2023:2041  authorsForSolidity */\n  0x04\n    /* \"Story.sol\":2023:2054  authorsForSolidity[_mainAuthor] */\n  0x00\n    /* \"Story.sol\":2042:2053  _mainAuthor */\n  dup7\n    /* \"Story.sol\":2023:2054  authorsForSolidity[_mainAuthor] */\n  0xffffffffffffffffffffffffffffffffffffffff\n  and\n  0xffffffffffffffffffffffffffffffffffffffff\n  and\n  dup2\n  mstore\n  0x20\n  add\n  swap1\n  dup2\n  mstore\n  0x20\n  add\n  0x00\n  keccak256\n  0x00\n    /* \"Story.sol\":2023:2061  authorsForSolidity[_mainAuthor] = true */\n  0x0100\n  exp\n  dup2\n  sload\n  dup2\n  0xff\n  mul\n  not\n  and\n  swap1\n  dup4\n  iszero\n  iszero\n  mul\n  or\n  swap1\n  sstore\n  pop\n    /* \"Story.sol\":2072:2087  authorsForReact */\n  0x05\n    /* \"Story.sol\":2093:2104  _mainAuthor */\n  dup5\n    /* \"Story.sol\":2072:2105  authorsForReact.push(_mainAuthor) */\n  swap1\n  dup1\n  0x01\n  dup2\n  sload\n  add\n  dup1\n  dup3\n  sstore\n  dup1\n  swap2\n  pop\n  pop\n  0x01\n  swap1\n  sub\n  swap1\n  0x00\n  mstore\n  keccak256(0x00, 0x20)\n  add\n  0x00\n  swap1\n  swap2\n  swap1\n  swap2\n  swap1\n  swap2\n  0x0100\n  exp\n  dup2\n  sload\n  dup2\n  0xffffffffffffffffffffffffffffffffffffffff\n  mul\n  not\n  and\n  swap1\n  dup4\n  0xffffffffffffffffffffffffffffffffffffffff\n  and\n  mul\n  or\n  swap1\n  sstore\n  pop\n    /* \"Story.sol\":2124:2130  _title */\n  dup3\n    /* \"Story.sol\":2116:2121  title */\n  0x01\n    /* \"Story.sol\":2116:2130  title = _title */\n  swap1\n  dup1\n  mload\n  swap1\n  0x20\n  add\n  swap1\n  tag_7\n  swap3\n  swap2\n  swap1\n  tag_8\n  jump\t// in\ntag_7:\n  pop\n    /* \"Story.sol\":2149:2155  _genre */\n  dup2\n    /* \"Story.sol\":2141:2146  genre */\n  0x02\n    /* \"Story.sol\":2141:2155  genre = _genre */\n  swap1\n  dup1\n  mload\n  swap1\n  0x20\n  add\n  swap1\n  tag_9\n  swap3\n  swap2\n  swap1\n  tag_8\n  jump\t// in\ntag_9:\n  pop\n    /* \"Story.sol\":2177:2186  _mainIdea */\n  dup1\n    /* \"Story.sol\":2166:2174  mainIdea */\n  0x03\n    /* \"Story.sol\":2166:2186  mainIdea = _mainIdea */\n  swap1\n  dup1\n  mload\n  swap1\n  0x20\n  add\n  swap1\n  tag_10\n  swap3\n  swap2\n  swap1\n  tag_8\n  jump\t// in\ntag_10:\n  pop\n    /* \"Story.sol\":2208:2213  false */\n  0x00\n    /* \"Story.sol\":2197:2205  reported */\n  0x0b\n  0x00\n    /* \"Story.sol\":2197:2213  reported = false */\n  0x0100\n  exp\n  dup2\n  sload\n  dup2\n  0xff\n  mul\n  not\n  and\n  swap1\n  dup4\n  iszero\n  iszero\n  mul\n  or\n  swap1\n  sstore\n  pop\n    /* \"Story.sol\":1875:2221  constructor(address _mainAuthor, string memory _title, string memory _genre, string memory _mainIdea) {... */\n  pop\n  pop\n  pop\n  pop\n    /* \"Story.sol\":1164:7787  contract Story {... */\n  jump(tag_11)\ntag_8:\n  dup3\n  dup1\n  sload\n  tag_12\n  swap1\n  tag_13\n  jump\t// in\ntag_12:\n  swap1\n  0x00\n  mstore\n  keccak256(0x00, 0x20)\n  swap1\n  0x1f\n  add\n  0x20\n  swap1\n  div\n  dup2\n  add\n  swap3\n  dup3\n  tag_15\n  jumpi\n  0x00\n  dup6\n  sstore\n  jump(tag_14)\ntag_15:\n  dup3\n  0x1f\n  lt\n  tag_16\n  jumpi\n  dup1\n  mload\n  not(0xff)\n  and\n  dup4\n  dup1\n  add\n  or\n  dup6\n  sstore\n  jump(tag_14)\ntag_16:\n  dup3\n  dup1\n  add\n  0x01\n  add\n  dup6\n  sstore\n  dup3\n  iszero\n  tag_14\n  jumpi\n  swap2\n  dup3\n  add\ntag_17:\n  dup3\n  dup2\n  gt\n  iszero\n  tag_18\n  jumpi\n  dup3\n  mload\n  dup3\n  sstore\n  swap2\n  0x20\n  add\n  swap2\n  swap1\n  0x01\n  add\n  swap1\n  jump(tag_17)\ntag_18:\ntag_14:\n  pop\n  swap1\n  pop\n  tag_19\n  swap2\n  swap1\n  tag_20\n  jump\t// in\ntag_19:\n  pop\n  swap1\n  jump\t// out\ntag_20:\ntag_21:\n  dup1\n  dup3\n  gt\n  iszero\n  tag_22\n  jumpi\n  0x00\n  dup2\n  0x00\n  swap1\n  sstore\n  pop\n  0x01\n  add\n  jump(tag_21)\ntag_22:\n  pop\n  swap1\n  jump\t// out\n    /* \"#utility.yul\":7:82   */\ntag_23:\n    /* \"#utility.yul\":40:46   */\n  0x00\n    /* \"#utility.yul\":73:75   */\n  0x40\n    /* \"#utility.yul\":67:76   */\n  mload\n    /* \"#utility.yul\":57:76   */\n  swap1\n  pop\n    /* \"#utility.yul\":7:82   */\n  swap1\n  jump\t// out\n    /* \"#utility.yul\":88:205   */\ntag_24:\n    /* \"#utility.yul\":197:198   */\n  0x00\n    /* \"#utility.yul\":194:195   */\n  dup1\n    /* \"#utility.yul\":187:199   */\n  revert\n    /* \"#utility.yul\":211:328   */\ntag_25:\n    /* \"#utility.yul\":320:321   */\n  0x00\n    /* \"#utility.yul\":317:318   */\n  dup1\n    /* \"#utility.yul\":310:322   */\n  revert\n    /* \"#utility.yul\":334:460   */\ntag_26:\n    /* \"#utility.yul\":371:378   */\n  0x00\n    /* \"#utility.yul\":411:453   */\n  0xffffffffffffffffffffffffffffffffffffffff\n    /* \"#utility.yul\":404:409   */\n  dup3\n    /* \"#utility.yul\":400:454   */\n  and\n    /* \"#utility.yul\":389:454   */\n  swap1\n  pop\n    /* \"#utility.yul\":334:460   */\n  swap2\n  swap1\n  pop\n  jump\t// out\n    /* \"#utility.yul\":466:562   */\ntag_27:\n    /* \"#utility.yul\":503:510   */\n  0x00\n    /* \"#utility.yul\":532:556   */\n  tag_47\n    /* \"#utility.yul\":550:555   */\n  dup3\n    /* \"#utility.yul\":532:556   */\n  tag_26\n  jump\t// in\ntag_47:\n    /* \"#utility.yul\":521:556   */\n  swap1\n  pop\n    /* \"#utility.yul\":466:562   */\n  swap2\n  swap1\n  pop\n  jump\t// out\n    /* \"#utility.yul\":568:690   */\ntag_28:\n    /* \"#utility.yul\":641:665   */\n  tag_49\n    /* \"#utility.yul\":659:664   */\n  dup2\n    /* \"#utility.yul\":641:665   */\n  tag_27\n  jump\t// in\ntag_49:\n    /* \"#utility.yul\":634:639   */\n  dup2\n    /* \"#utility.yul\":631:666   */\n  eq\n    /* \"#utility.yul\":621:684   */\n  tag_50\n  jumpi\n    /* \"#utility.yul\":680:681   */\n  0x00\n    /* \"#utility.yul\":677:678   */\n  dup1\n    /* \"#utility.yul\":670:682   */\n  revert\n    /* \"#utility.yul\":621:684   */\ntag_50:\n    /* \"#utility.yul\":568:690   */\n  pop\n  jump\t// out\n    /* \"#utility.yul\":696:839   */\ntag_29:\n    /* \"#utility.yul\":753:758   */\n  0x00\n    /* \"#utility.yul\":784:790   */\n  dup2\n    /* \"#utility.yul\":778:791   */\n  mload\n    /* \"#utility.yul\":769:791   */\n  swap1\n  pop\n    /* \"#utility.yul\":800:833   */\n  tag_52\n    /* \"#utility.yul\":827:832   */\n  dup2\n    /* \"#utility.yul\":800:833   */\n  tag_28\n  jump\t// in\ntag_52:\n    /* \"#utility.yul\":696:839   */\n  swap3\n  swap2\n  pop\n  pop\n  jump\t// out\n    /* \"#utility.yul\":845:962   */\ntag_30:\n    /* \"#utility.yul\":954:955   */\n  0x00\n    /* \"#utility.yul\":951:952   */\n  dup1\n    /* \"#utility.yul\":944:956   */\n  revert\n    /* \"#utility.yul\":968:1085   */\ntag_31:\n    /* \"#utility.yul\":1077:1078   */\n  0x00\n    /* \"#utility.yul\":1074:1075   */\n  dup1\n    /* \"#utility.yul\":1067:1079   */\n  revert\n    /* \"#utility.yul\":1091:1193   */\ntag_32:\n    /* \"#utility.yul\":1132:1138   */\n  0x00\n    /* \"#utility.yul\":1183:1185   */\n  0x1f\n    /* \"#utility.yul\":1179:1186   */\n  not\n    /* \"#utility.yul\":1174:1176   */\n  0x1f\n    /* \"#utility.yul\":1167:1172   */\n  dup4\n    /* \"#utility.yul\":1163:1177   */\n  add\n    /* \"#utility.yul\":1159:1187   */\n  and\n    /* \"#utility.yul\":1149:1187   */\n  swap1\n  pop\n    /* \"#utility.yul\":1091:1193   */\n  swap2\n  swap1\n  pop\n  jump\t// out\n    /* \"#utility.yul\":1199:1379   */\ntag_33:\n    /* \"#utility.yul\":1247:1324   */\n  0x4e487b7100000000000000000000000000000000000000000000000000000000\n    /* \"#utility.yul\":1244:1245   */\n  0x00\n    /* \"#utility.yul\":1237:1325   */\n  mstore\n    /* \"#utility.yul\":1344:1348   */\n  0x41\n    /* \"#utility.yul\":1341:1342   */\n  0x04\n    /* \"#utility.yul\":1334:1349   */\n  mstore\n    /* \"#utility.yul\":1368:1372   */\n  0x24\n    /* \"#utility.yul\":1365:1366   */\n  0x00\n    /* \"#utility.yul\":1358:1373   */\n  revert\n    /* \"#utility.yul\":1385:1666   */\ntag_34:\n    /* \"#utility.yul\":1468:1495   */\n  tag_58\n    /* \"#utility.yul\":1490:1494   */\n  dup3\n    /* \"#utility.yul\":1468:1495   */\n  tag_32\n  jump\t// in\ntag_58:\n    /* \"#utility.yul\":1460:1466   */\n  dup2\n    /* \"#utility.yul\":1456:1496   */\n  add\n    /* \"#utility.yul\":1598:1604   */\n  dup2\n    /* \"#utility.yul\":1586:1596   */\n  dup2\n    /* \"#utility.yul\":1583:1605   */\n  lt\n    /* \"#utility.yul\":1562:1580   */\n  0xffffffffffffffff\n    /* \"#utility.yul\":1550:1560   */\n  dup3\n    /* \"#utility.yul\":1547:1581   */\n  gt\n    /* \"#utility.yul\":1544:1606   */\n  or\n    /* \"#utility.yul\":1541:1629   */\n  iszero\n  tag_59\n  jumpi\n    /* \"#utility.yul\":1609:1627   */\n  tag_60\n  tag_33\n  jump\t// in\ntag_60:\n    /* \"#utility.yul\":1541:1629   */\ntag_59:\n    /* \"#utility.yul\":1649:1659   */\n  dup1\n    /* \"#utility.yul\":1645:1647   */\n  0x40\n    /* \"#utility.yul\":1638:1660   */\n  mstore\n    /* \"#utility.yul\":1428:1666   */\n  pop\n    /* \"#utility.yul\":1385:1666   */\n  pop\n  pop\n  jump\t// out\n    /* \"#utility.yul\":1672:1801   */\ntag_35:\n    /* \"#utility.yul\":1706:1712   */\n  0x00\n    /* \"#utility.yul\":1733:1753   */\n  tag_62\n  tag_23\n  jump\t// in\ntag_62:\n    /* \"#utility.yul\":1723:1753   */\n  swap1\n  pop\n    /* \"#utility.yul\":1762:1795   */\n  tag_63\n    /* \"#utility.yul\":1790:1794   */\n  dup3\n    /* \"#utility.yul\":1782:1788   */\n  dup3\n    /* \"#utility.yul\":1762:1795   */\n  tag_34\n  jump\t// in\ntag_63:\n    /* \"#utility.yul\":1672:1801   */\n  swap2\n  swap1\n  pop\n  jump\t// out\n    /* \"#utility.yul\":1807:2115   */\ntag_36:\n    /* \"#utility.yul\":1869:1873   */\n  0x00\n    /* \"#utility.yul\":1959:1977   */\n  0xffffffffffffffff\n    /* \"#utility.yul\":1951:1957   */\n  dup3\n    /* \"#utility.yul\":1948:1978   */\n  gt\n    /* \"#utility.yul\":1945:2001   */\n  iszero\n  tag_65\n  jumpi\n    /* \"#utility.yul\":1981:1999   */\n  tag_66\n  tag_33\n  jump\t// in\ntag_66:\n    /* \"#utility.yul\":1945:2001   */\ntag_65:\n    /* \"#utility.yul\":2019:2048   */\n  tag_67\n    /* \"#utility.yul\":2041:2047   */\n  dup3\n    /* \"#utility.yul\":2019:2048   */\n  tag_32\n  jump\t// in\ntag_67:\n    /* \"#utility.yul\":2011:2048   */\n  swap1\n  pop\n    /* \"#utility.yul\":2103:2107   */\n  0x20\n    /* \"#utility.yul\":2097:2101   */\n  dup2\n    /* \"#utility.yul\":2093:2108   */\n  add\n    /* \"#utility.yul\":2085:2108   */\n  swap1\n  pop\n    /* \"#utility.yul\":1807:2115   */\n  swap2\n  swap1\n  pop\n  jump\t// out\n    /* \"#utility.yul\":2121:2428   */\ntag_37:\n    /* \"#utility.yul\":2189:2190   */\n  0x00\n    /* \"#utility.yul\":2199:2312   */\ntag_69:\n    /* \"#utility.yul\":2213:2219   */\n  dup4\n    /* \"#utility.yul\":2210:2211   */\n  dup2\n    /* \"#utility.yul\":2207:2220   */\n  lt\n    /* \"#utility.yul\":2199:2312   */\n  iszero\n  tag_71\n  jumpi\n    /* \"#utility.yul\":2298:2299   */\n  dup1\n    /* \"#utility.yul\":2293:2296   */\n  dup3\n    /* \"#utility.yul\":2289:2300   */\n  add\n    /* \"#utility.yul\":2283:2301   */\n  mload\n    /* \"#utility.yul\":2279:2280   */\n  dup2\n    /* \"#utility.yul\":2274:2277   */\n  dup5\n    /* \"#utility.yul\":2270:2281   */\n  add\n    /* \"#utility.yul\":2263:2302   */\n  mstore\n    /* \"#utility.yul\":2235:2237   */\n  0x20\n    /* \"#utility.yul\":2232:2233   */\n  dup2\n    /* \"#utility.yul\":2228:2238   */\n  add\n    /* \"#utility.yul\":2223:2238   */\n  swap1\n  pop\n    /* \"#utility.yul\":2199:2312   */\n  jump(tag_69)\ntag_71:\n    /* \"#utility.yul\":2330:2336   */\n  dup4\n    /* \"#utility.yul\":2327:2328   */\n  dup2\n    /* \"#utility.yul\":2324:2337   */\n  gt\n    /* \"#utility.yul\":2321:2422   */\n  iszero\n  tag_72\n  jumpi\n    /* \"#utility.yul\":2410:2411   */\n  0x00\n    /* \"#utility.yul\":2401:2407   */\n  dup5\n    /* \"#utility.yul\":2396:2399   */\n  dup5\n    /* \"#utility.yul\":2392:2408   */\n  add\n    /* \"#utility.yul\":2385:2412   */\n  mstore\n    /* \"#utility.yul\":2321:2422   */\ntag_72:\n    /* \"#utility.yul\":2170:2428   */\n  pop\n    /* \"#utility.yul\":2121:2428   */\n  pop\n  pop\n  pop\n  jump\t// out\n    /* \"#utility.yul\":2434:2855   */\ntag_38:\n    /* \"#utility.yul\":2523:2528   */\n  0x00\n    /* \"#utility.yul\":2548:2614   */\n  tag_74\n    /* \"#utility.yul\":2564:2613   */\n  tag_75\n    /* \"#utility.yul\":2606:2612   */\n  dup5\n    /* \"#utility.yul\":2564:2613   */\n  tag_36\n  jump\t// in\ntag_75:\n    /* \"#utility.yul\":2548:2614   */\n  tag_35\n  jump\t// in\ntag_74:\n    /* \"#utility.yul\":2539:2614   */\n  swap1\n  pop\n    /* \"#utility.yul\":2637:2643   */\n  dup3\n    /* \"#utility.yul\":2630:2635   */\n  dup2\n    /* \"#utility.yul\":2623:2644   */\n  mstore\n    /* \"#utility.yul\":2675:2679   */\n  0x20\n    /* \"#utility.yul\":2668:2673   */\n  dup2\n    /* \"#utility.yul\":2664:2680   */\n  add\n    /* \"#utility.yul\":2713:2716   */\n  dup5\n    /* \"#utility.yul\":2704:2710   */\n  dup5\n    /* \"#utility.yul\":2699:2702   */\n  dup5\n    /* \"#utility.yul\":2695:2711   */\n  add\n    /* \"#utility.yul\":2692:2717   */\n  gt\n    /* \"#utility.yul\":2689:2801   */\n  iszero\n  tag_76\n  jumpi\n    /* \"#utility.yul\":2720:2799   */\n  tag_77\n  tag_31\n  jump\t// in\ntag_77:\n    /* \"#utility.yul\":2689:2801   */\ntag_76:\n    /* \"#utility.yul\":2810:2849   */\n  tag_78\n    /* \"#utility.yul\":2842:2848   */\n  dup5\n    /* \"#utility.yul\":2837:2840   */\n  dup3\n    /* \"#utility.yul\":2832:2835   */\n  dup6\n    /* \"#utility.yul\":2810:2849   */\n  tag_37\n  jump\t// in\ntag_78:\n    /* \"#utility.yul\":2529:2855   */\n  pop\n    /* \"#utility.yul\":2434:2855   */\n  swap4\n  swap3\n  pop\n  pop\n  pop\n  jump\t// out\n    /* \"#utility.yul\":2875:3230   */\ntag_39:\n    /* \"#utility.yul\":2942:2947   */\n  0x00\n    /* \"#utility.yul\":2991:2994   */\n  dup3\n    /* \"#utility.yul\":2984:2988   */\n  0x1f\n    /* \"#utility.yul\":2976:2982   */\n  dup4\n    /* \"#utility.yul\":2972:2989   */\n  add\n    /* \"#utility.yul\":2968:2995   */\n  slt\n    /* \"#utility.yul\":2958:3080   */\n  tag_80\n  jumpi\n    /* \"#utility.yul\":2999:3078   */\n  tag_81\n  tag_30\n  jump\t// in\ntag_81:\n    /* \"#utility.yul\":2958:3080   */\ntag_80:\n    /* \"#utility.yul\":3109:3115   */\n  dup2\n    /* \"#utility.yul\":3103:3116   */\n  mload\n    /* \"#utility.yul\":3134:3224   */\n  tag_82\n    /* \"#utility.yul\":3220:3223   */\n  dup5\n    /* \"#utility.yul\":3212:3218   */\n  dup3\n    /* \"#utility.yul\":3205:3209   */\n  0x20\n    /* \"#utility.yul\":3197:3203   */\n  dup7\n    /* \"#utility.yul\":3193:3210   */\n  add\n    /* \"#utility.yul\":3134:3224   */\n  tag_38\n  jump\t// in\ntag_82:\n    /* \"#utility.yul\":3125:3224   */\n  swap2\n  pop\n    /* \"#utility.yul\":2948:3230   */\n  pop\n    /* \"#utility.yul\":2875:3230   */\n  swap3\n  swap2\n  pop\n  pop\n  jump\t// out\n    /* \"#utility.yul\":3236:4575   */\ntag_3:\n    /* \"#utility.yul\":3363:3369   */\n  0x00\n    /* \"#utility.yul\":3371:3377   */\n  dup1\n    /* \"#utility.yul\":3379:3385   */\n  0x00\n    /* \"#utility.yul\":3387:3393   */\n  dup1\n    /* \"#utility.yul\":3436:3439   */\n  0x80\n    /* \"#utility.yul\":3424:3433   */\n  dup6\n    /* \"#utility.yul\":3415:3422   */\n  dup8\n    /* \"#utility.yul\":3411:3434   */\n  sub\n    /* \"#utility.yul\":3407:3440   */\n  slt\n    /* \"#utility.yul\":3404:3524   */\n  iszero\n  tag_84\n  jumpi\n    /* \"#utility.yul\":3443:3522   */\n  tag_85\n  tag_24\n  jump\t// in\ntag_85:\n    /* \"#utility.yul\":3404:3524   */\ntag_84:\n    /* \"#utility.yul\":3563:3564   */\n  0x00\n    /* \"#utility.yul\":3588:3652   */\n  tag_86\n    /* \"#utility.yul\":3644:3651   */\n  dup8\n    /* \"#utility.yul\":3635:3641   */\n  dup3\n    /* \"#utility.yul\":3624:3633   */\n  dup9\n    /* \"#utility.yul\":3620:3642   */\n  add\n    /* \"#utility.yul\":3588:3652   */\n  tag_29\n  jump\t// in\ntag_86:\n    /* \"#utility.yul\":3578:3652   */\n  swap5\n  pop\n    /* \"#utility.yul\":3534:3662   */\n  pop\n    /* \"#utility.yul\":3722:3724   */\n  0x20\n    /* \"#utility.yul\":3711:3720   */\n  dup6\n    /* \"#utility.yul\":3707:3725   */\n  add\n    /* \"#utility.yul\":3701:3726   */\n  mload\n    /* \"#utility.yul\":3753:3771   */\n  0xffffffffffffffff\n    /* \"#utility.yul\":3745:3751   */\n  dup2\n    /* \"#utility.yul\":3742:3772   */\n  gt\n    /* \"#utility.yul\":3739:3856   */\n  iszero\n  tag_87\n  jumpi\n    /* \"#utility.yul\":3775:3854   */\n  tag_88\n  tag_25\n  jump\t// in\ntag_88:\n    /* \"#utility.yul\":3739:3856   */\ntag_87:\n    /* \"#utility.yul\":3880:3954   */\n  tag_89\n    /* \"#utility.yul\":3946:3953   */\n  dup8\n    /* \"#utility.yul\":3937:3943   */\n  dup3\n    /* \"#utility.yul\":3926:3935   */\n  dup9\n    /* \"#utility.yul\":3922:3944   */\n  add\n    /* \"#utility.yul\":3880:3954   */\n  tag_39\n  jump\t// in\ntag_89:\n    /* \"#utility.yul\":3870:3954   */\n  swap4\n  pop\n    /* \"#utility.yul\":3672:3964   */\n  pop\n    /* \"#utility.yul\":4024:4026   */\n  0x40\n    /* \"#utility.yul\":4013:4022   */\n  dup6\n    /* \"#utility.yul\":4009:4027   */\n  add\n    /* \"#utility.yul\":4003:4028   */\n  mload\n    /* \"#utility.yul\":4055:4073   */\n  0xffffffffffffffff\n    /* \"#utility.yul\":4047:4053   */\n  dup2\n    /* \"#utility.yul\":4044:4074   */\n  gt\n    /* \"#utility.yul\":4041:4158   */\n  iszero\n  tag_90\n  jumpi\n    /* \"#utility.yul\":4077:4156   */\n  tag_91\n  tag_25\n  jump\t// in\ntag_91:\n    /* \"#utility.yul\":4041:4158   */\ntag_90:\n    /* \"#utility.yul\":4182:4256   */\n  tag_92\n    /* \"#utility.yul\":4248:4255   */\n  dup8\n    /* \"#utility.yul\":4239:4245   */\n  dup3\n    /* \"#utility.yul\":4228:4237   */\n  dup9\n    /* \"#utility.yul\":4224:4246   */\n  add\n    /* \"#utility.yul\":4182:4256   */\n  tag_39\n  jump\t// in\ntag_92:\n    /* \"#utility.yul\":4172:4256   */\n  swap3\n  pop\n    /* \"#utility.yul\":3974:4266   */\n  pop\n    /* \"#utility.yul\":4326:4328   */\n  0x60\n    /* \"#utility.yul\":4315:4324   */\n  dup6\n    /* \"#utility.yul\":4311:4329   */\n  add\n    /* \"#utility.yul\":4305:4330   */\n  mload\n    /* \"#utility.yul\":4357:4375   */\n  0xffffffffffffffff\n    /* \"#utility.yul\":4349:4355   */\n  dup2\n    /* \"#utility.yul\":4346:4376   */\n  gt\n    /* \"#utility.yul\":4343:4460   */\n  iszero\n  tag_93\n  jumpi\n    /* \"#utility.yul\":4379:4458   */\n  tag_94\n  tag_25\n  jump\t// in\ntag_94:\n    /* \"#utility.yul\":4343:4460   */\ntag_93:\n    /* \"#utility.yul\":4484:4558   */\n  tag_95\n    /* \"#utility.yul\":4550:4557   */\n  dup8\n    /* \"#utility.yul\":4541:4547   */\n  dup3\n    /* \"#utility.yul\":4530:4539   */\n  dup9\n    /* \"#utility.yul\":4526:4548   */\n  add\n    /* \"#utility.yul\":4484:4558   */\n  tag_39\n  jump\t// in\ntag_95:\n    /* \"#utility.yul\":4474:4558   */\n  swap2\n  pop\n    /* \"#utility.yul\":4276:4568   */\n  pop\n    /* \"#utility.yul\":3236:4575   */\n  swap3\n  swap6\n  swap2\n  swap5\n  pop\n  swap3\n  pop\n  jump\t// out\n    /* \"#utility.yul\":4581:4761   */\ntag_40:\n    /* \"#utility.yul\":4629:4706   */\n  0x4e487b7100000000000000000000000000000000000000000000000000000000\n    /* \"#utility.yul\":4626:4627   */\n  0x00\n    /* \"#utility.yul\":4619:4707   */\n  mstore\n    /* \"#utility.yul\":4726:4730   */\n  0x22\n    /* \"#utility.yul\":4723:4724   */\n  0x04\n    /* \"#utility.yul\":4716:4731   */\n  mstore\n    /* \"#utility.yul\":4750:4754   */\n  0x24\n    /* \"#utility.yul\":4747:4748   */\n  0x00\n    /* \"#utility.yul\":4740:4755   */\n  revert\n    /* \"#utility.yul\":4767:5087   */\ntag_13:\n    /* \"#utility.yul\":4811:4817   */\n  0x00\n    /* \"#utility.yul\":4848:4849   */\n  0x02\n    /* \"#utility.yul\":4842:4846   */\n  dup3\n    /* \"#utility.yul\":4838:4850   */\n  div\n    /* \"#utility.yul\":4828:4850   */\n  swap1\n  pop\n    /* \"#utility.yul\":4895:4896   */\n  0x01\n    /* \"#utility.yul\":4889:4893   */\n  dup3\n    /* \"#utility.yul\":4885:4897   */\n  and\n    /* \"#utility.yul\":4916:4934   */\n  dup1\n    /* \"#utility.yul\":4906:4987   */\n  tag_98\n  jumpi\n    /* \"#utility.yul\":4972:4976   */\n  0x7f\n    /* \"#utility.yul\":4964:4970   */\n  dup3\n    /* \"#utility.yul\":4960:4977   */\n  and\n    /* \"#utility.yul\":4950:4977   */\n  swap2\n  pop\n    /* \"#utility.yul\":4906:4987   */\ntag_98:\n    /* \"#utility.yul\":5034:5036   */\n  0x20\n    /* \"#utility.yul\":5026:5032   */\n  dup3\n    /* \"#utility.yul\":5023:5037   */\n  lt\n    /* \"#utility.yul\":5003:5021   */\n  dup2\n    /* \"#utility.yul\":5000:5038   */\n  eq\n    /* \"#utility.yul\":4997:5081   */\n  iszero\n  tag_99\n  jumpi\n    /* \"#utility.yul\":5053:5071   */\n  tag_100\n  tag_40\n  jump\t// in\ntag_100:\n    /* \"#utility.yul\":4997:5081   */\ntag_99:\n    /* \"#utility.yul\":4818:5087   */\n  pop\n    /* \"#utility.yul\":4767:5087   */\n  swap2\n  swap1\n  pop\n  jump\t// out\n    /* \"Story.sol\":1164:7787  contract Story {... */\ntag_11:\n  dataSize(sub_0)\n  dup1\n  dataOffset(sub_0)\n  0x00\n  codecopy\n  0x00\n  return\nstop\n\nsub_0: assembly {\n        /* \"Story.sol\":1164:7787  contract Story {... */\n      mstore(0x40, 0x80)\n      jumpi(tag_1, lt(calldatasize, 0x04))\n      shr(0xe0, calldataload(0x00))\n      dup1\n      0x98b79628\n      gt\n      tag_16\n      jumpi\n      dup1\n      0x9d3ed807\n      gt\n      tag_17\n      jumpi\n      dup1\n      0x9d3ed807\n      eq\n      tag_12\n      jumpi\n      dup1\n      0xb5202522\n      eq\n      tag_13\n      jumpi\n      dup1\n      0xd7bb99ba\n      eq\n      tag_14\n      jumpi\n      dup1\n      0xdfa14e23\n      eq\n      tag_15\n      jumpi\n      jump(tag_1)\n    tag_17:\n      dup1\n      0x98b79628\n      eq\n      tag_9\n      jumpi\n      dup1\n      0x992b11dc\n      eq\n      tag_10\n      jumpi\n      dup1\n      0x9c636a0f\n      eq\n      tag_11\n      jumpi\n      jump(tag_1)\n    tag_16:\n      dup1\n      0x4051ddac\n      gt\n      tag_18\n      jumpi\n      dup1\n      0x4051ddac\n      eq\n      tag_5\n      jumpi\n      dup1\n      0x5cf298fb\n      eq\n      tag_6\n      jumpi\n      dup1\n      0x5d1a870a\n      eq\n      tag_7\n      jumpi\n      dup1\n      0x7f51aaf9\n      eq\n      tag_8\n      jumpi\n      jump(tag_1)\n    tag_18:\n      dup1\n      0x2606a10b\n      eq\n      tag_2\n      jumpi\n      dup1\n      0x3b6246c2\n      eq\n      tag_3\n      jumpi\n      dup1\n      0x3e5690f4\n      eq\n      tag_4\n      jumpi\n    tag_1:\n      0x00\n      dup1\n      revert\n        /* \"Story.sol\":5657:6011  function report() public noReentrancy{... */\n    tag_2:\n      callvalue\n      dup1\n      iszero\n      tag_19\n      jumpi\n      0x00\n      dup1\n      revert\n    tag_19:\n      pop\n      tag_20\n      tag_21\n      jump\t// in\n    tag_20:\n      stop\n        /* \"Story.sol\":5162:5647  function dispenseRewards() public noReentrancy{... */\n    tag_3:\n      callvalue\n      dup1\n      iszero\n      tag_22\n      jumpi\n      0x00\n      dup1\n      revert\n    tag_22:\n      pop\n      tag_23\n      tag_24\n      jump\t// in\n    tag_23:\n      stop\n        /* \"Story.sol\":1306:1356  mapping(address => bool) public authorsForSolidity */\n    tag_4:\n      callvalue\n      dup1\n      iszero\n      tag_25\n      jumpi\n      0x00\n      dup1\n      revert\n    tag_25:\n      pop\n      tag_26\n      0x04\n      dup1\n      calldatasize\n      sub\n      dup2\n      add\n      swap1\n      tag_27\n      swap2\n      swap1\n      tag_28\n      jump\t// in\n    tag_27:\n      tag_29\n      jump\t// in\n    tag_26:\n      mload(0x40)\n      tag_30\n      swap2\n      swap1\n      tag_31\n      jump\t// in\n    tag_30:\n      mload(0x40)\n      dup1\n      swap2\n      sub\n      swap1\n      return\n        /* \"Story.sol\":6143:6622  function getSummary() public view returns (... */\n    tag_5:\n      callvalue\n      dup1\n      iszero\n      tag_32\n      jumpi\n      0x00\n      dup1\n      revert\n    tag_32:\n      pop\n      tag_33\n      tag_34\n      jump\t// in\n    tag_33:\n      mload(0x40)\n      tag_35\n      swap11\n      swap10\n      swap9\n      swap8\n      swap7\n      swap6\n      swap5\n      swap4\n      swap3\n      swap2\n      swap1\n      tag_36\n      jump\t// in\n    tag_35:\n      mload(0x40)\n      dup1\n      swap2\n      sub\n      swap1\n      return\n        /* \"Story.sol\":6630:6732  function isAuthor() public view returns (bool){... */\n    tag_6:\n      callvalue\n      dup1\n      iszero\n      tag_37\n      jumpi\n      0x00\n      dup1\n      revert\n    tag_37:\n      pop\n      tag_38\n      tag_39\n      jump\t// in\n    tag_38:\n      mload(0x40)\n      tag_40\n      swap2\n      swap1\n      tag_31\n      jump\t// in\n    tag_40:\n      mload(0x40)\n      dup1\n      swap2\n      sub\n      swap1\n      return\n        /* \"Story.sol\":1594:1614  bool public reported */\n    tag_7:\n      callvalue\n      dup1\n      iszero\n      tag_41\n      jumpi\n      0x00\n      dup1\n      revert\n    tag_41:\n      pop\n      tag_42\n      tag_43\n      jump\t// in\n    tag_42:\n      mload(0x40)\n      tag_44\n      swap2\n      swap1\n      tag_31\n      jump\t// in\n    tag_44:\n      mload(0x40)\n      dup1\n      swap2\n      sub\n      swap1\n      return\n        /* \"Story.sol\":1402:1453  mapping(address => bool) public chaptersForSolidity */\n    tag_8:\n      callvalue\n      dup1\n      iszero\n      tag_45\n      jumpi\n      0x00\n      dup1\n      revert\n    tag_45:\n      pop\n      tag_46\n      0x04\n      dup1\n      calldatasize\n      sub\n      dup2\n      add\n      swap1\n      tag_47\n      swap2\n      swap1\n      tag_28\n      jump\t// in\n    tag_47:\n      tag_48\n      jump\t// in\n    tag_46:\n      mload(0x40)\n      tag_49\n      swap2\n      swap1\n      tag_31\n      jump\t// in\n    tag_49:\n      mload(0x40)\n      dup1\n      swap2\n      sub\n      swap1\n      return\n        /* \"Story.sol\":2753:3691  function approveRequestToJoin(uint256 _index) public noReentrancy{... */\n    tag_9:\n      callvalue\n      dup1\n      iszero\n      tag_50\n      jumpi\n      0x00\n      dup1\n      revert\n    tag_50:\n      pop\n      tag_51\n      0x04\n      dup1\n      calldatasize\n      sub\n      dup2\n      add\n      swap1\n      tag_52\n      swap2\n      swap1\n      tag_53\n      jump\t// in\n    tag_52:\n      tag_54\n      jump\t// in\n    tag_51:\n      stop\n        /* \"Story.sol\":3699:4963  function createChapter(string memory _title,  string memory _ipfsHash, address _parentChapter, address _childChapter) public noReentrancy{... */\n    tag_10:\n      callvalue\n      dup1\n      iszero\n      tag_55\n      jumpi\n      0x00\n      dup1\n      revert\n    tag_55:\n      pop\n      tag_56\n      0x04\n      dup1\n      calldatasize\n      sub\n      dup2\n      add\n      swap1\n      tag_57\n      swap2\n      swap1\n      tag_58\n      jump\t// in\n    tag_57:\n      tag_59\n      jump\t// in\n    tag_56:\n      stop\n        /* \"Story.sol\":6025:6129  function getChapters() public view returns (address[] memory) {... */\n    tag_11:\n      callvalue\n      dup1\n      iszero\n      tag_60\n      jumpi\n      0x00\n      dup1\n      revert\n    tag_60:\n      pop\n      tag_61\n      tag_62\n      jump\t// in\n    tag_61:\n      mload(0x40)\n      tag_63\n      swap2\n      swap1\n      tag_64\n      jump\t// in\n    tag_63:\n      mload(0x40)\n      dup1\n      swap2\n      sub\n      swap1\n      return\n        /* \"Story.sol\":1363:1395  address[] public authorsForReact */\n    tag_12:\n      callvalue\n      dup1\n      iszero\n      tag_65\n      jumpi\n      0x00\n      dup1\n      revert\n    tag_65:\n      pop\n      tag_66\n      0x04\n      dup1\n      calldatasize\n      sub\n      dup2\n      add\n      swap1\n      tag_67\n      swap2\n      swap1\n      tag_53\n      jump\t// in\n    tag_67:\n      tag_68\n      jump\t// in\n    tag_66:\n      mload(0x40)\n      tag_69\n      swap2\n      swap1\n      tag_70\n      jump\t// in\n    tag_69:\n      mload(0x40)\n      dup1\n      swap2\n      sub\n      swap1\n      return\n        /* \"Story.sol\":1460:1493  address[] public chaptersForReact */\n    tag_13:\n      callvalue\n      dup1\n      iszero\n      tag_71\n      jumpi\n      0x00\n      dup1\n      revert\n    tag_71:\n      pop\n      tag_72\n      0x04\n      dup1\n      calldatasize\n      sub\n      dup2\n      add\n      swap1\n      tag_73\n      swap2\n      swap1\n      tag_53\n      jump\t// in\n    tag_73:\n      tag_74\n      jump\t// in\n    tag_72:\n      mload(0x40)\n      tag_75\n      swap2\n      swap1\n      tag_70\n      jump\t// in\n    tag_75:\n      mload(0x40)\n      dup1\n      swap2\n      sub\n      swap1\n      return\n        /* \"Story.sol\":4971:5154  function contribute() public payable noReentrancy{... */\n    tag_14:\n      tag_76\n      tag_77\n      jump\t// in\n    tag_76:\n      stop\n        /* \"Story.sol\":2229:2745  function createRequestToJoin(string memory _proposal) public noReentrancy{... */\n    tag_15:\n      callvalue\n      dup1\n      iszero\n      tag_78\n      jumpi\n      0x00\n      dup1\n      revert\n    tag_78:\n      pop\n      tag_79\n      0x04\n      dup1\n      calldatasize\n      sub\n      dup2\n      add\n      swap1\n      tag_80\n      swap2\n      swap1\n      tag_81\n      jump\t// in\n    tag_80:\n      tag_82\n      jump\t// in\n    tag_79:\n      stop\n        /* \"Story.sol\":5657:6011  function report() public noReentrancy{... */\n    tag_21:\n        /* \"Story.sol\":7687:7694  _locked */\n      0x08\n      0x00\n      swap1\n      sload\n      swap1\n      0x0100\n      exp\n      swap1\n      div\n      0xff\n      and\n        /* \"Story.sol\":7686:7694  !_locked */\n      iszero\n        /* \"Story.sol\":7678:7713  require(!_locked, \"Reentrant call\") */\n      tag_84\n      jumpi\n      mload(0x40)\n      0x08c379a000000000000000000000000000000000000000000000000000000000\n      dup2\n      mstore\n      0x04\n      add\n      tag_85\n      swap1\n      tag_86\n      jump\t// in\n    tag_85:\n      mload(0x40)\n      dup1\n      swap2\n      sub\n      swap1\n      revert\n    tag_84:\n        /* \"Story.sol\":7734:7738  true */\n      0x01\n        /* \"Story.sol\":7724:7731  _locked */\n      0x08\n      0x00\n        /* \"Story.sol\":7724:7738  _locked = true */\n      0x0100\n      exp\n      dup2\n      sload\n      dup2\n      0xff\n      mul\n      not\n      and\n      swap1\n      dup4\n      iszero\n      iszero\n      mul\n      or\n      swap1\n      sstore\n      pop\n        /* \"Story.sol\":5714:5722  reported */\n      0x0b\n      0x00\n      swap1\n      sload\n      swap1\n      0x0100\n      exp\n      swap1\n      div\n      0xff\n      and\n        /* \"Story.sol\":5713:5722  !reported */\n      iszero\n        /* \"Story.sol\":5705:5755  require(!reported, \"This story has been reported\") */\n      tag_88\n      jumpi\n      mload(0x40)\n      0x08c379a000000000000000000000000000000000000000000000000000000000\n      dup2\n      mstore\n      0x04\n      add\n      tag_89\n      swap1\n      tag_90\n      jump\t// in\n    tag_89:\n      mload(0x40)\n      dup1\n      swap2\n      sub\n      swap1\n      revert\n    tag_88:\n        /* \"Story.sol\":5775:5784  reporters */\n      0x09\n        /* \"Story.sol\":5775:5796  reporters[msg.sender] */\n      0x00\n        /* \"Story.sol\":5785:5795  msg.sender */\n      caller\n        /* \"Story.sol\":5775:5796  reporters[msg.sender] */\n      0xffffffffffffffffffffffffffffffffffffffff\n      and\n      0xffffffffffffffffffffffffffffffffffffffff\n      and\n      dup2\n      mstore\n      0x20\n      add\n      swap1\n      dup2\n      mstore\n      0x20\n      add\n      0x00\n      keccak256\n      0x00\n      swap1\n      sload\n      swap1\n      0x0100\n      exp\n      swap1\n      div\n      0xff\n      and\n        /* \"Story.sol\":5774:5796  !reporters[msg.sender] */\n      iszero\n        /* \"Story.sol\":5766:5835  require(!reporters[msg.sender],\"You have reported this story before\") */\n      tag_91\n      jumpi\n      mload(0x40)\n      0x08c379a000000000000000000000000000000000000000000000000000000000\n      dup2\n      mstore\n      0x04\n      add\n      tag_92\n      swap1\n      tag_93\n      jump\t// in\n    tag_92:\n      mload(0x40)\n      dup1\n      swap2\n      sub\n      swap1\n      revert\n    tag_91:\n        /* \"Story.sol\":5846:5867  reportersCount.add(1) */\n      tag_94\n        /* \"Story.sol\":5865:5866  1 */\n      0x01\n        /* \"Story.sol\":5846:5860  reportersCount */\n      sload(0x0a)\n        /* \"Story.sol\":5846:5864  reportersCount.add */\n      tag_95\n      swap1\n        /* \"Story.sol\":5846:5867  reportersCount.add(1) */\n      swap2\n      swap1\n      0xffffffff\n      and\n      jump\t// in\n    tag_94:\n      pop\n        /* \"Story.sol\":5902:5906  true */\n      0x01\n        /* \"Story.sol\":5878:5887  reporters */\n      0x09\n        /* \"Story.sol\":5878:5899  reporters[msg.sender] */\n      0x00\n        /* \"Story.sol\":5888:5898  msg.sender */\n      caller\n        /* \"Story.sol\":5878:5899  reporters[msg.sender] */\n      0xffffffffffffffffffffffffffffffffffffffff\n      and\n      0xffffffffffffffffffffffffffffffffffffffff\n      and\n      dup2\n      mstore\n      0x20\n      add\n      swap1\n      dup2\n      mstore\n      0x20\n      add\n      0x00\n      keccak256\n      0x00\n        /* \"Story.sol\":5878:5906  reporters[msg.sender] = true */\n      0x0100\n      exp\n      dup2\n      sload\n      dup2\n      0xff\n      mul\n      not\n      and\n      swap1\n      dup4\n      iszero\n      iszero\n      mul\n      or\n      swap1\n      sstore\n      pop\n        /* \"Story.sol\":5939:5942  100 */\n      0x64\n        /* \"Story.sol\":5922:5936  reportersCount */\n      sload(0x0a)\n        /* \"Story.sol\":5922:5942  reportersCount > 100 */\n      gt\n        /* \"Story.sol\":5919:6004  if(reportersCount > 100){ //arbitrary number... */\n      iszero\n      tag_96\n      jumpi\n        /* \"Story.sol\":5988:5992  true */\n      0x01\n        /* \"Story.sol\":5977:5985  reported */\n      0x0b\n      0x00\n        /* \"Story.sol\":5977:5992  reported = true */\n      0x0100\n      exp\n      dup2\n      sload\n      dup2\n      0xff\n      mul\n      not\n      and\n      swap1\n      dup4\n      iszero\n      iszero\n      mul\n      or\n      swap1\n      sstore\n      pop\n        /* \"Story.sol\":5919:6004  if(reportersCount > 100){ //arbitrary number... */\n    tag_96:\n        /* \"Story.sol\":7771:7776  false */\n      0x00\n        /* \"Story.sol\":7761:7768  _locked */\n      0x08\n      0x00\n        /* \"Story.sol\":7761:7776  _locked = false */\n      0x0100\n      exp\n      dup2\n      sload\n      dup2\n      0xff\n      mul\n      not\n      and\n      swap1\n      dup4\n      iszero\n      iszero\n      mul\n      or\n      swap1\n      sstore\n      pop\n        /* \"Story.sol\":5657:6011  function report() public noReentrancy{... */\n      jump\t// out\n        /* \"Story.sol\":5162:5647  function dispenseRewards() public noReentrancy{... */\n    tag_24:\n        /* \"Story.sol\":7687:7694  _locked */\n      0x08\n      0x00\n      swap1\n      sload\n      swap1\n      0x0100\n      exp\n      swap1\n      div\n      0xff\n      and\n        /* \"Story.sol\":7686:7694  !_locked */\n      iszero\n        /* \"Story.sol\":7678:7713  require(!_locked, \"Reentrant call\") */\n      tag_98\n      jumpi\n      mload(0x40)\n      0x08c379a000000000000000000000000000000000000000000000000000000000\n      dup2\n      mstore\n      0x04\n      add\n      tag_99\n      swap1\n      tag_86\n      jump\t// in\n    tag_99:\n      mload(0x40)\n      dup1\n      swap2\n      sub\n      swap1\n      revert\n    tag_98:\n        /* \"Story.sol\":7734:7738  true */\n      0x01\n        /* \"Story.sol\":7724:7731  _locked */\n      0x08\n      0x00\n        /* \"Story.sol\":7724:7738  _locked = true */\n      0x0100\n      exp\n      dup2\n      sload\n      dup2\n      0xff\n      mul\n      not\n      and\n      swap1\n      dup4\n      iszero\n      iszero\n      mul\n      or\n      swap1\n      sstore\n      pop\n        /* \"Story.sol\":5227:5245  authorsForSolidity */\n      0x04\n        /* \"Story.sol\":5227:5257  authorsForSolidity[msg.sender] */\n      0x00\n        /* \"Story.sol\":5246:5256  msg.sender */\n      caller\n        /* \"Story.sol\":5227:5257  authorsForSolidity[msg.sender] */\n      0xffffffffffffffffffffffffffffffffffffffff\n      and\n      0xffffffffffffffffffffffffffffffffffffffff\n      and\n      dup2\n      mstore\n      0x20\n      add\n      swap1\n      dup2\n      mstore\n      0x20\n      add\n      0x00\n      keccak256\n      0x00\n      swap1\n      sload\n      swap1\n      0x0100\n      exp\n      swap1\n      div\n      0xff\n      and\n        /* \"Story.sol\":5219:5308  require(authorsForSolidity[msg.sender], \"Only an authorized author can dispense rewards\") */\n      tag_101\n      jumpi\n      mload(0x40)\n      0x08c379a000000000000000000000000000000000000000000000000000000000\n      dup2\n      mstore\n      0x04\n      add\n      tag_102\n      swap1\n      tag_103\n      jump\t// in\n    tag_102:\n      mload(0x40)\n      dup1\n      swap2\n      sub\n      swap1\n      revert\n    tag_101:\n        /* \"Story.sol\":5321:5341  uint256 totalAuthors */\n      0x00\n        /* \"Story.sol\":5344:5359  authorsForReact */\n      0x05\n        /* \"Story.sol\":5344:5366  authorsForReact.length */\n      dup1\n      sload\n      swap1\n      pop\n        /* \"Story.sol\":5321:5366  uint256 totalAuthors = authorsForReact.length */\n      swap1\n      pop\n        /* \"Story.sol\":5377:5400  uint256 rewardPerAuthor */\n      0x00\n        /* \"Story.sol\":5403:5442  address(this).balance.div(totalAuthors) */\n      tag_104\n        /* \"Story.sol\":5429:5441  totalAuthors */\n      dup3\n        /* \"Story.sol\":5403:5424  address(this).balance */\n      selfbalance\n        /* \"Story.sol\":5403:5428  address(this).balance.div */\n      tag_105\n      swap1\n        /* \"Story.sol\":5403:5442  address(this).balance.div(totalAuthors) */\n      swap2\n      swap1\n      0xffffffff\n      and\n      jump\t// in\n    tag_104:\n        /* \"Story.sol\":5377:5442  uint256 rewardPerAuthor = address(this).balance.div(totalAuthors) */\n      swap1\n      pop\n        /* \"Story.sol\":5479:5480  0 */\n      0x00\n        /* \"Story.sol\":5461:5476  rewardPerAuthor */\n      dup2\n        /* \"Story.sol\":5461:5480  rewardPerAuthor > 0 */\n      gt\n        /* \"Story.sol\":5453:5506  require(rewardPerAuthor > 0, \"No reward to dispense\") */\n      tag_106\n      jumpi\n      mload(0x40)\n      0x08c379a000000000000000000000000000000000000000000000000000000000\n      dup2\n      mstore\n      0x04\n      add\n      tag_107\n      swap1\n      tag_108\n      jump\t// in\n    tag_107:\n      mload(0x40)\n      dup1\n      swap2\n      sub\n      swap1\n      revert\n    tag_106:\n        /* \"Story.sol\":5522:5531  uint256 i */\n      0x00\n        /* \"Story.sol\":5517:5640  for (uint256 i = 0; i < totalAuthors; i++) {... */\n    tag_109:\n        /* \"Story.sol\":5541:5553  totalAuthors */\n      dup3\n        /* \"Story.sol\":5537:5538  i */\n      dup2\n        /* \"Story.sol\":5537:5553  i < totalAuthors */\n      lt\n        /* \"Story.sol\":5517:5640  for (uint256 i = 0; i < totalAuthors; i++) {... */\n      iszero\n      tag_110\n      jumpi\n        /* \"Story.sol\":5583:5598  authorsForReact */\n      0x05\n        /* \"Story.sol\":5599:5600  i */\n      dup2\n        /* \"Story.sol\":5583:5601  authorsForReact[i] */\n      dup2\n      sload\n      dup2\n      lt\n      tag_112\n      jumpi\n      tag_113\n      tag_114\n      jump\t// in\n    tag_113:\n    tag_112:\n      swap1\n      0x00\n      mstore\n      keccak256(0x00, 0x20)\n      add\n      0x00\n      swap1\n      sload\n      swap1\n      0x0100\n      exp\n      swap1\n      div\n      0xffffffffffffffffffffffffffffffffffffffff\n      and\n        /* \"Story.sol\":5575:5611  payable(authorsForReact[i]).transfer */\n      0xffffffffffffffffffffffffffffffffffffffff\n      and\n        /* \"Story.sol\":5575:5628  payable(authorsForReact[i]).transfer(rewardPerAuthor) */\n      0x08fc\n        /* \"Story.sol\":5612:5627  rewardPerAuthor */\n      dup4\n        /* \"Story.sol\":5575:5628  payable(authorsForReact[i]).transfer(rewardPerAuthor) */\n      swap1\n      dup2\n      iszero\n      mul\n      swap1\n      mload(0x40)\n      0x00\n      mload(0x40)\n      dup1\n      dup4\n      sub\n      dup2\n      dup6\n      dup9\n      dup9\n      call\n      swap4\n      pop\n      pop\n      pop\n      pop\n      iszero\n      dup1\n      iszero\n      tag_117\n      jumpi\n      returndatasize\n      0x00\n      dup1\n      returndatacopy\n      revert(0x00, returndatasize)\n    tag_117:\n      pop\n        /* \"Story.sol\":5555:5558  i++ */\n      dup1\n      dup1\n      tag_118\n      swap1\n      tag_119\n      jump\t// in\n    tag_118:\n      swap2\n      pop\n      pop\n        /* \"Story.sol\":5517:5640  for (uint256 i = 0; i < totalAuthors; i++) {... */\n      jump(tag_109)\n    tag_110:\n      pop\n        /* \"Story.sol\":5208:5647  {... */\n      pop\n      pop\n        /* \"Story.sol\":7771:7776  false */\n      0x00\n        /* \"Story.sol\":7761:7768  _locked */\n      0x08\n      0x00\n        /* \"Story.sol\":7761:7776  _locked = false */\n      0x0100\n      exp\n      dup2\n      sload\n      dup2\n      0xff\n      mul\n      not\n      and\n      swap1\n      dup4\n      iszero\n      iszero\n      mul\n      or\n      swap1\n      sstore\n      pop\n        /* \"Story.sol\":5162:5647  function dispenseRewards() public noReentrancy{... */\n      jump\t// out\n        /* \"Story.sol\":1306:1356  mapping(address => bool) public authorsForSolidity */\n    tag_29:\n      mstore(0x20, 0x04)\n      dup1\n      0x00\n      mstore\n      keccak256(0x00, 0x40)\n      0x00\n      swap2\n      pop\n      sload\n      swap1\n      0x0100\n      exp\n      swap1\n      div\n      0xff\n      and\n      dup2\n      jump\t// out\n        /* \"Story.sol\":6143:6622  function getSummary() public view returns (... */\n    tag_34:\n        /* \"Story.sol\":6196:6203  address */\n      0x00\n        /* \"Story.sol\":6205:6218  string memory */\n      0x60\n        /* \"Story.sol\":6220:6233  string memory */\n      dup1\n        /* \"Story.sol\":6235:6248  string memory */\n      0x60\n        /* \"Story.sol\":6250:6266  address[] memory */\n      dup1\n        /* \"Story.sol\":6268:6285  address [] memory */\n      0x60\n        /* \"Story.sol\":6287:6291  uint */\n      0x00\n        /* \"Story.sol\":6293:6297  uint */\n      dup1\n        /* \"Story.sol\":6299:6303  bool */\n      0x00\n        /* \"Story.sol\":6305:6309  uint */\n      dup1\n        /* \"Story.sol\":6345:6355  mainAuthor */\n      0x00\n      dup1\n      sload\n      swap1\n      0x0100\n      exp\n      swap1\n      div\n      0xffffffffffffffffffffffffffffffffffffffff\n      and\n        /* \"Story.sol\":6370:6375  title */\n      0x01\n        /* \"Story.sol\":6390:6395  genre */\n      0x02\n        /* \"Story.sol\":6410:6418  mainIdea */\n      0x03\n        /* \"Story.sol\":6433:6448  authorsForReact */\n      0x05\n        /* \"Story.sol\":6463:6479  chaptersForReact */\n      0x07\n        /* \"Story.sol\":6494:6508  requestsToJoin */\n      0x0c\n        /* \"Story.sol\":6494:6515  requestsToJoin.length */\n      dup1\n      sload\n      swap1\n      pop\n        /* \"Story.sol\":6530:6544  reportersCount */\n      sload(0x0a)\n        /* \"Story.sol\":6559:6567  reported */\n      0x0b\n      0x00\n      swap1\n      sload\n      swap1\n      0x0100\n      exp\n      swap1\n      div\n      0xff\n      and\n        /* \"Story.sol\":6582:6603  address(this).balance */\n      selfbalance\n        /* \"Story.sol\":6322:6614  return ( ... */\n      dup9\n      dup1\n      sload\n      tag_121\n      swap1\n      tag_122\n      jump\t// in\n    tag_121:\n      dup1\n      0x1f\n      add\n      0x20\n      dup1\n      swap2\n      div\n      mul\n      0x20\n      add\n      mload(0x40)\n      swap1\n      dup2\n      add\n      0x40\n      mstore\n      dup1\n      swap3\n      swap2\n      swap1\n      dup2\n      dup2\n      mstore\n      0x20\n      add\n      dup3\n      dup1\n      sload\n      tag_123\n      swap1\n      tag_122\n      jump\t// in\n    tag_123:\n      dup1\n      iszero\n      tag_124\n      jumpi\n      dup1\n      0x1f\n      lt\n      tag_125\n      jumpi\n      0x0100\n      dup1\n      dup4\n      sload\n      div\n      mul\n      dup4\n      mstore\n      swap2\n      0x20\n      add\n      swap2\n      jump(tag_124)\n    tag_125:\n      dup3\n      add\n      swap2\n      swap1\n      0x00\n      mstore\n      keccak256(0x00, 0x20)\n      swap1\n    tag_126:\n      dup2\n      sload\n      dup2\n      mstore\n      swap1\n      0x01\n      add\n      swap1\n      0x20\n      add\n      dup1\n      dup4\n      gt\n      tag_126\n      jumpi\n      dup3\n      swap1\n      sub\n      0x1f\n      and\n      dup3\n      add\n      swap2\n    tag_124:\n      pop\n      pop\n      pop\n      pop\n      pop\n      swap9\n      pop\n      dup8\n      dup1\n      sload\n      tag_127\n      swap1\n      tag_122\n      jump\t// in\n    tag_127:\n      dup1\n      0x1f\n      add\n      0x20\n      dup1\n      swap2\n      div\n      mul\n      0x20\n      add\n      mload(0x40)\n      swap1\n      dup2\n      add\n      0x40\n      mstore\n      dup1\n      swap3\n      swap2\n      swap1\n      dup2\n      dup2\n      mstore\n      0x20\n      add\n      dup3\n      dup1\n      sload\n      tag_128\n      swap1\n      tag_122\n      jump\t// in\n    tag_128:\n      dup1\n      iszero\n      tag_129\n      jumpi\n      dup1\n      0x1f\n      lt\n      tag_130\n      jumpi\n      0x0100\n      dup1\n      dup4\n      sload\n      div\n      mul\n      dup4\n      mstore\n      swap2\n      0x20\n      add\n      swap2\n      jump(tag_129)\n    tag_130:\n      dup3\n      add\n      swap2\n      swap1\n      0x00\n      mstore\n      keccak256(0x00, 0x20)\n      swap1\n    tag_131:\n      dup2\n      sload\n      dup2\n      mstore\n      swap1\n      0x01\n      add\n      swap1\n      0x20\n      add\n      dup1\n      dup4\n      gt\n      tag_131\n      jumpi\n      dup3\n      swap1\n      sub\n      0x1f\n      and\n      dup3\n      add\n      swap2\n    tag_129:\n      pop\n      pop\n      pop\n      pop\n      pop\n      swap8\n      pop\n      dup7\n      dup1\n      sload\n      tag_132\n      swap1\n      tag_122\n      jump\t// in\n    tag_132:\n      dup1\n      0x1f\n      add\n      0x20\n      dup1\n      swap2\n      div\n      mul\n      0x20\n      add\n      mload(0x40)\n      swap1\n      dup2\n      add\n      0x40\n      mstore\n      dup1\n      swap3\n      swap2\n      swap1\n      dup2\n      dup2\n      mstore\n      0x20\n      add\n      dup3\n      dup1\n      sload\n      tag_133\n      swap1\n      tag_122\n      jump\t// in\n    tag_133:\n      dup1\n      iszero\n      tag_134\n      jumpi\n      dup1\n      0x1f\n      lt\n      tag_135\n      jumpi\n      0x0100\n      dup1\n      dup4\n      sload\n      div\n      mul\n      dup4\n      mstore\n      swap2\n      0x20\n      add\n      swap2\n      jump(tag_134)\n    tag_135:\n      dup3\n      add\n      swap2\n      swap1\n      0x00\n      mstore\n      keccak256(0x00, 0x20)\n      swap1\n    tag_136:\n      dup2\n      sload\n      dup2\n      mstore\n      swap1\n      0x01\n      add\n      swap1\n      0x20\n      add\n      dup1\n      dup4\n      gt\n      tag_136\n      jumpi\n      dup3\n      swap1\n      sub\n      0x1f\n      and\n      dup3\n      add\n      swap2\n    tag_134:\n      pop\n      pop\n      pop\n      pop\n      pop\n      swap7\n      pop\n      dup6\n      dup1\n      sload\n      dup1\n      0x20\n      mul\n      0x20\n      add\n      mload(0x40)\n      swap1\n      dup2\n      add\n      0x40\n      mstore\n      dup1\n      swap3\n      swap2\n      swap1\n      dup2\n      dup2\n      mstore\n      0x20\n      add\n      dup3\n      dup1\n      sload\n      dup1\n      iszero\n      tag_137\n      jumpi\n      0x20\n      mul\n      dup3\n      add\n      swap2\n      swap1\n      0x00\n      mstore\n      keccak256(0x00, 0x20)\n      swap1\n    tag_138:\n      dup2\n      0x00\n      swap1\n      sload\n      swap1\n      0x0100\n      exp\n      swap1\n      div\n      0xffffffffffffffffffffffffffffffffffffffff\n      and\n      0xffffffffffffffffffffffffffffffffffffffff\n      and\n      dup2\n      mstore\n      0x20\n      add\n      swap1\n      0x01\n      add\n      swap1\n      dup1\n      dup4\n      gt\n      tag_138\n      jumpi\n    tag_137:\n      pop\n      pop\n      pop\n      pop\n      pop\n      swap6\n      pop\n      dup5\n      dup1\n      sload\n      dup1\n      0x20\n      mul\n      0x20\n      add\n      mload(0x40)\n      swap1\n      dup2\n      add\n      0x40\n      mstore\n      dup1\n      swap3\n      swap2\n      swap1\n      dup2\n      dup2\n      mstore\n      0x20\n      add\n      dup3\n      dup1\n      sload\n      dup1\n      iszero\n      tag_139\n      jumpi\n      0x20\n      mul\n      dup3\n      add\n      swap2\n      swap1\n      0x00\n      mstore\n      keccak256(0x00, 0x20)\n      swap1\n    tag_140:\n      dup2\n      0x00\n      swap1\n      sload\n      swap1\n      0x0100\n      exp\n      swap1\n      div\n      0xffffffffffffffffffffffffffffffffffffffff\n      and\n      0xffffffffffffffffffffffffffffffffffffffff\n      and\n      dup2\n      mstore\n      0x20\n      add\n      swap1\n      0x01\n      add\n      swap1\n      dup1\n      dup4\n      gt\n      tag_140\n      jumpi\n    tag_139:\n      pop\n      pop\n      pop\n      pop\n      pop\n      swap5\n      pop\n      swap10\n      pop\n      swap10\n      pop\n      swap10\n      pop\n      swap10\n      pop\n      swap10\n      pop\n      swap10\n      pop\n      swap10\n      pop\n      swap10\n      pop\n      swap10\n      pop\n      swap10\n      pop\n        /* \"Story.sol\":6143:6622  function getSummary() public view returns (... */\n      swap1\n      swap2\n      swap3\n      swap4\n      swap5\n      swap6\n      swap7\n      swap8\n      swap9\n      swap10\n      jump\t// out\n        /* \"Story.sol\":6630:6732  function isAuthor() public view returns (bool){... */\n    tag_39:\n        /* \"Story.sol\":6671:6675  bool */\n      0x00\n        /* \"Story.sol\":6694:6712  authorsForSolidity */\n      0x04\n        /* \"Story.sol\":6694:6724  authorsForSolidity[msg.sender] */\n      0x00\n        /* \"Story.sol\":6713:6723  msg.sender */\n      caller\n        /* \"Story.sol\":6694:6724  authorsForSolidity[msg.sender] */\n      0xffffffffffffffffffffffffffffffffffffffff\n      and\n      0xffffffffffffffffffffffffffffffffffffffff\n      and\n      dup2\n      mstore\n      0x20\n      add\n      swap1\n      dup2\n      mstore\n      0x20\n      add\n      0x00\n      keccak256\n      0x00\n      swap1\n      sload\n      swap1\n      0x0100\n      exp\n      swap1\n      div\n      0xff\n      and\n        /* \"Story.sol\":6687:6724  return authorsForSolidity[msg.sender] */\n      swap1\n      pop\n        /* \"Story.sol\":6630:6732  function isAuthor() public view returns (bool){... */\n      swap1\n      jump\t// out\n        /* \"Story.sol\":1594:1614  bool public reported */\n    tag_43:\n      0x0b\n      0x00\n      swap1\n      sload\n      swap1\n      0x0100\n      exp\n      swap1\n      div\n      0xff\n      and\n      dup2\n      jump\t// out\n        /* \"Story.sol\":1402:1453  mapping(address => bool) public chaptersForSolidity */\n    tag_48:\n      mstore(0x20, 0x06)\n      dup1\n      0x00\n      mstore\n      keccak256(0x00, 0x40)\n      0x00\n      swap2\n      pop\n      sload\n      swap1\n      0x0100\n      exp\n      swap1\n      div\n      0xff\n      and\n      dup2\n      jump\t// out\n        /* \"Story.sol\":2753:3691  function approveRequestToJoin(uint256 _index) public noReentrancy{... */\n    tag_54:\n        /* \"Story.sol\":7687:7694  _locked */\n      0x08\n      0x00\n      swap1\n      sload\n      swap1\n      0x0100\n      exp\n      swap1\n      div\n      0xff\n      and\n        /* \"Story.sol\":7686:7694  !_locked */\n      iszero\n        /* \"Story.sol\":7678:7713  require(!_locked, \"Reentrant call\") */\n      tag_143\n      jumpi\n      mload(0x40)\n      0x08c379a000000000000000000000000000000000000000000000000000000000\n      dup2\n      mstore\n      0x04\n      add\n      tag_144\n      swap1\n      tag_86\n      jump\t// in\n    tag_144:\n      mload(0x40)\n      dup1\n      swap2\n      sub\n      swap1\n      revert\n    tag_143:\n        /* \"Story.sol\":7734:7738  true */\n      0x01\n        /* \"Story.sol\":7724:7731  _locked */\n      0x08\n      0x00\n        /* \"Story.sol\":7724:7738  _locked = true */\n      0x0100\n      exp\n      dup2\n      sload\n      dup2\n      0xff\n      mul\n      not\n      and\n      swap1\n      dup4\n      iszero\n      iszero\n      mul\n      or\n      swap1\n      sstore\n      pop\n        /* \"Story.sol\":2838:2846  reported */\n      0x0b\n      0x00\n      swap1\n      sload\n      swap1\n      0x0100\n      exp\n      swap1\n      div\n      0xff\n      and\n        /* \"Story.sol\":2837:2846  !reported */\n      iszero\n        /* \"Story.sol\":2829:2879  require(!reported, \"This story has been reported\") */\n      tag_146\n      jumpi\n      mload(0x40)\n      0x08c379a000000000000000000000000000000000000000000000000000000000\n      dup2\n      mstore\n      0x04\n      add\n      tag_147\n      swap1\n      tag_90\n      jump\t// in\n    tag_147:\n      mload(0x40)\n      dup1\n      swap2\n      sub\n      swap1\n      revert\n    tag_146:\n        /* \"Story.sol\":2898:2916  authorsForSolidity */\n      0x04\n        /* \"Story.sol\":2898:2928  authorsForSolidity[msg.sender] */\n      0x00\n        /* \"Story.sol\":2917:2927  msg.sender */\n      caller\n        /* \"Story.sol\":2898:2928  authorsForSolidity[msg.sender] */\n      0xffffffffffffffffffffffffffffffffffffffff\n      and\n      0xffffffffffffffffffffffffffffffffffffffff\n      and\n      dup2\n      mstore\n      0x20\n      add\n      swap1\n      dup2\n      mstore\n      0x20\n      add\n      0x00\n      keccak256\n      0x00\n      swap1\n      sload\n      swap1\n      0x0100\n      exp\n      swap1\n      div\n      0xff\n      and\n        /* \"Story.sol\":2890:2978  require(authorsForSolidity[msg.sender], \"Only an accepted author can approve a request\") */\n      tag_148\n      jumpi\n      mload(0x40)\n      0x08c379a000000000000000000000000000000000000000000000000000000000\n      dup2\n      mstore\n      0x04\n      add\n      tag_149\n      swap1\n      tag_150\n      jump\t// in\n    tag_149:\n      mload(0x40)\n      dup1\n      swap2\n      sub\n      swap1\n      revert\n    tag_148:\n        /* \"Story.sol\":3006:3020  requestsToJoin */\n      0x0c\n        /* \"Story.sol\":3006:3027  requestsToJoin.length */\n      dup1\n      sload\n      swap1\n      pop\n        /* \"Story.sol\":2997:3003  _index */\n      dup2\n        /* \"Story.sol\":2997:3027  _index < requestsToJoin.length */\n      lt\n        /* \"Story.sol\":2997:3040  _index < requestsToJoin.length && _index>=0 */\n      dup1\n      iszero\n      tag_151\n      jumpi\n      pop\n        /* \"Story.sol\":3039:3040  0 */\n      0x00\n        /* \"Story.sol\":3031:3037  _index */\n      dup2\n        /* \"Story.sol\":3031:3040  _index>=0 */\n      lt\n      iszero\n        /* \"Story.sol\":2997:3040  _index < requestsToJoin.length && _index>=0 */\n    tag_151:\n        /* \"Story.sol\":2989:3064  require(_index < requestsToJoin.length && _index>=0, \"Index out of bounds\") */\n      tag_152\n      jumpi\n      mload(0x40)\n      0x08c379a000000000000000000000000000000000000000000000000000000000\n      dup2\n      mstore\n      0x04\n      add\n      tag_153\n      swap1\n      tag_154\n      jump\t// in\n    tag_153:\n      mload(0x40)\n      dup1\n      swap2\n      sub\n      swap1\n      revert\n    tag_152:\n        /* \"Story.sol\":3077:3106  RequestToJoin storage request */\n      0x00\n        /* \"Story.sol\":3109:3123  requestsToJoin */\n      0x0c\n        /* \"Story.sol\":3124:3130  _index */\n      dup3\n        /* \"Story.sol\":3109:3131  requestsToJoin[_index] */\n      dup2\n      sload\n      dup2\n      lt\n      tag_155\n      jumpi\n      tag_156\n      tag_114\n      jump\t// in\n    tag_156:\n    tag_155:\n      swap1\n      0x00\n      mstore\n      keccak256(0x00, 0x20)\n      swap1\n      0x06\n      mul\n      add\n        /* \"Story.sol\":3077:3131  RequestToJoin storage request = requestsToJoin[_index] */\n      swap1\n      pop\n        /* \"Story.sol\":3153:3160  request */\n      dup1\n        /* \"Story.sol\":3153:3170  request.approvers */\n      0x03\n      add\n        /* \"Story.sol\":3153:3182  request.approvers[msg.sender] */\n      0x00\n        /* \"Story.sol\":3171:3181  msg.sender */\n      caller\n        /* \"Story.sol\":3153:3182  request.approvers[msg.sender] */\n      0xffffffffffffffffffffffffffffffffffffffff\n      and\n      0xffffffffffffffffffffffffffffffffffffffff\n      and\n      dup2\n      mstore\n      0x20\n      add\n      swap1\n      dup2\n      mstore\n      0x20\n      add\n      0x00\n      keccak256\n      0x00\n      swap1\n      sload\n      swap1\n      0x0100\n      exp\n      swap1\n      div\n      0xff\n      and\n        /* \"Story.sol\":3152:3182  !request.approvers[msg.sender] */\n      iszero\n        /* \"Story.sol\":3144:3221  require(!request.approvers[msg.sender],\"This author already approved before\") */\n      tag_158\n      jumpi\n      mload(0x40)\n      0x08c379a000000000000000000000000000000000000000000000000000000000\n      dup2\n      mstore\n      0x04\n      add\n      tag_159\n      swap1\n      tag_160\n      jump\t// in\n    tag_159:\n      mload(0x40)\n      dup1\n      swap2\n      sub\n      swap1\n      revert\n    tag_158:\n        /* \"Story.sol\":3266:3270  true */\n      0x01\n        /* \"Story.sol\":3234:3241  request */\n      dup2\n        /* \"Story.sol\":3234:3251  request.approvers */\n      0x03\n      add\n        /* \"Story.sol\":3234:3263  request.approvers[msg.sender] */\n      0x00\n        /* \"Story.sol\":3252:3262  msg.sender */\n      caller\n        /* \"Story.sol\":3234:3263  request.approvers[msg.sender] */\n      0xffffffffffffffffffffffffffffffffffffffff\n      and\n      0xffffffffffffffffffffffffffffffffffffffff\n      and\n      dup2\n      mstore\n      0x20\n      add\n      swap1\n      dup2\n      mstore\n      0x20\n      add\n      0x00\n      keccak256\n      0x00\n        /* \"Story.sol\":3234:3270  request.approvers[msg.sender] = true */\n      0x0100\n      exp\n      dup2\n      sload\n      dup2\n      0xff\n      mul\n      not\n      and\n      swap1\n      dup4\n      iszero\n      iszero\n      mul\n      or\n      swap1\n      sstore\n      pop\n        /* \"Story.sol\":3306:3335  request.approversCount.add(1) */\n      tag_161\n        /* \"Story.sol\":3333:3334  1 */\n      0x01\n        /* \"Story.sol\":3306:3313  request */\n      dup3\n        /* \"Story.sol\":3306:3328  request.approversCount */\n      0x04\n      add\n      sload\n        /* \"Story.sol\":3306:3332  request.approversCount.add */\n      tag_95\n      swap1\n        /* \"Story.sol\":3306:3335  request.approversCount.add(1) */\n      swap2\n      swap1\n      0xffffffff\n      and\n      jump\t// in\n    tag_161:\n        /* \"Story.sol\":3281:3288  request */\n      dup2\n        /* \"Story.sol\":3281:3303  request.approversCount */\n      0x04\n      add\n        /* \"Story.sol\":3281:3335  request.approversCount = request.approversCount.add(1) */\n      dup2\n      swap1\n      sstore\n      pop\n        /* \"Story.sol\":3472:3473  2 */\n      0x02\n        /* \"Story.sol\":3448:3463  authorsForReact */\n      0x05\n        /* \"Story.sol\":3448:3470  authorsForReact.length */\n      dup1\n      sload\n      swap1\n      pop\n        /* \"Story.sol\":3447:3473  (authorsForReact.length)/2 */\n      tag_162\n      swap2\n      swap1\n      tag_163\n      jump\t// in\n    tag_162:\n        /* \"Story.sol\":3421:3428  request */\n      dup2\n        /* \"Story.sol\":3421:3443  request.approversCount */\n      0x04\n      add\n      sload\n        /* \"Story.sol\":3421:3473  request.approversCount >= (authorsForReact.length)/2 */\n      lt\n        /* \"Story.sol\":3418:3684  if(request.approversCount >= (authorsForReact.length)/2){... */\n      tag_164\n      jumpi\n        /* \"Story.sol\":3506:3510  true */\n      0x01\n        /* \"Story.sol\":3489:3496  request */\n      dup2\n        /* \"Story.sol\":3489:3503  request.status */\n      0x05\n      add\n      0x00\n        /* \"Story.sol\":3489:3510  request.status = true */\n      0x0100\n      exp\n      dup2\n      sload\n      dup2\n      0xff\n      mul\n      not\n      and\n      swap1\n      dup4\n      iszero\n      iszero\n      mul\n      or\n      swap1\n      sstore\n      pop\n        /* \"Story.sol\":3617:3621  true */\n      0x01\n        /* \"Story.sol\":3580:3598  authorsForSolidity */\n      0x04\n        /* \"Story.sol\":3580:3614  authorsForSolidity[request.author] */\n      0x00\n        /* \"Story.sol\":3599:3606  request */\n      dup4\n        /* \"Story.sol\":3599:3613  request.author */\n      0x02\n      add\n      0x00\n      swap1\n      sload\n      swap1\n      0x0100\n      exp\n      swap1\n      div\n      0xffffffffffffffffffffffffffffffffffffffff\n      and\n        /* \"Story.sol\":3580:3614  authorsForSolidity[request.author] */\n      0xffffffffffffffffffffffffffffffffffffffff\n      and\n      0xffffffffffffffffffffffffffffffffffffffff\n      and\n      dup2\n      mstore\n      0x20\n      add\n      swap1\n      dup2\n      mstore\n      0x20\n      add\n      0x00\n      keccak256\n      0x00\n        /* \"Story.sol\":3580:3621  authorsForSolidity[request.author] = true */\n      0x0100\n      exp\n      dup2\n      sload\n      dup2\n      0xff\n      mul\n      not\n      and\n      swap1\n      dup4\n      iszero\n      iszero\n      mul\n      or\n      swap1\n      sstore\n      pop\n        /* \"Story.sol\":3636:3651  authorsForReact */\n      0x05\n        /* \"Story.sol\":3657:3664  request */\n      dup2\n        /* \"Story.sol\":3657:3671  request.author */\n      0x02\n      add\n      0x00\n      swap1\n      sload\n      swap1\n      0x0100\n      exp\n      swap1\n      div\n      0xffffffffffffffffffffffffffffffffffffffff\n      and\n        /* \"Story.sol\":3636:3672  authorsForReact.push(request.author) */\n      swap1\n      dup1\n      0x01\n      dup2\n      sload\n      add\n      dup1\n      dup3\n      sstore\n      dup1\n      swap2\n      pop\n      pop\n      0x01\n      swap1\n      sub\n      swap1\n      0x00\n      mstore\n      keccak256(0x00, 0x20)\n      add\n      0x00\n      swap1\n      swap2\n      swap1\n      swap2\n      swap1\n      swap2\n      0x0100\n      exp\n      dup2\n      sload\n      dup2\n      0xffffffffffffffffffffffffffffffffffffffff\n      mul\n      not\n      and\n      swap1\n      dup4\n      0xffffffffffffffffffffffffffffffffffffffff\n      and\n      mul\n      or\n      swap1\n      sstore\n      pop\n        /* \"Story.sol\":3418:3684  if(request.approversCount >= (authorsForReact.length)/2){... */\n    tag_164:\n        /* \"Story.sol\":2818:3691  {... */\n      pop\n        /* \"Story.sol\":7771:7776  false */\n      0x00\n        /* \"Story.sol\":7761:7768  _locked */\n      0x08\n      0x00\n        /* \"Story.sol\":7761:7776  _locked = false */\n      0x0100\n      exp\n      dup2\n      sload\n      dup2\n      0xff\n      mul\n      not\n      and\n      swap1\n      dup4\n      iszero\n      iszero\n      mul\n      or\n      swap1\n      sstore\n      pop\n        /* \"Story.sol\":2753:3691  function approveRequestToJoin(uint256 _index) public noReentrancy{... */\n      pop\n      jump\t// out\n        /* \"Story.sol\":3699:4963  function createChapter(string memory _title,  string memory _ipfsHash, address _parentChapter, address _childChapter) public noReentrancy{... */\n    tag_59:\n        /* \"Story.sol\":7687:7694  _locked */\n      0x08\n      0x00\n      swap1\n      sload\n      swap1\n      0x0100\n      exp\n      swap1\n      div\n      0xff\n      and\n        /* \"Story.sol\":7686:7694  !_locked */\n      iszero\n        /* \"Story.sol\":7678:7713  require(!_locked, \"Reentrant call\") */\n      tag_167\n      jumpi\n      mload(0x40)\n      0x08c379a000000000000000000000000000000000000000000000000000000000\n      dup2\n      mstore\n      0x04\n      add\n      tag_168\n      swap1\n      tag_86\n      jump\t// in\n    tag_168:\n      mload(0x40)\n      dup1\n      swap2\n      sub\n      swap1\n      revert\n    tag_167:\n        /* \"Story.sol\":7734:7738  true */\n      0x01\n        /* \"Story.sol\":7724:7731  _locked */\n      0x08\n      0x00\n        /* \"Story.sol\":7724:7738  _locked = true */\n      0x0100\n      exp\n      dup2\n      sload\n      dup2\n      0xff\n      mul\n      not\n      and\n      swap1\n      dup4\n      iszero\n      iszero\n      mul\n      or\n      swap1\n      sstore\n      pop\n        /* \"Story.sol\":3856:3864  reported */\n      0x0b\n      0x00\n      swap1\n      sload\n      swap1\n      0x0100\n      exp\n      swap1\n      div\n      0xff\n      and\n        /* \"Story.sol\":3855:3864  !reported */\n      iszero\n        /* \"Story.sol\":3847:3897  require(!reported, \"This story has been reported\") */\n      tag_170\n      jumpi\n      mload(0x40)\n      0x08c379a000000000000000000000000000000000000000000000000000000000\n      dup2\n      mstore\n      0x04\n      add\n      tag_171\n      swap1\n      tag_90\n      jump\t// in\n    tag_171:\n      mload(0x40)\n      dup1\n      swap2\n      sub\n      swap1\n      revert\n    tag_170:\n        /* \"Story.sol\":3916:3934  authorsForSolidity */\n      0x04\n        /* \"Story.sol\":3916:3946  authorsForSolidity[msg.sender] */\n      0x00\n        /* \"Story.sol\":3935:3945  msg.sender */\n      caller\n        /* \"Story.sol\":3916:3946  authorsForSolidity[msg.sender] */\n      0xffffffffffffffffffffffffffffffffffffffff\n      and\n      0xffffffffffffffffffffffffffffffffffffffff\n      and\n      dup2\n      mstore\n      0x20\n      add\n      swap1\n      dup2\n      mstore\n      0x20\n      add\n      0x00\n      keccak256\n      0x00\n      swap1\n      sload\n      swap1\n      0x0100\n      exp\n      swap1\n      div\n      0xff\n      and\n        /* \"Story.sol\":3908:3995  require(authorsForSolidity[msg.sender], \"Only an accepted author can create a chapter\") */\n      tag_172\n      jumpi\n      mload(0x40)\n      0x08c379a000000000000000000000000000000000000000000000000000000000\n      dup2\n      mstore\n      0x04\n      add\n      tag_173\n      swap1\n      tag_174\n      jump\t// in\n    tag_173:\n      mload(0x40)\n      dup1\n      swap2\n      sub\n      swap1\n      revert\n    tag_172:\n        /* \"Story.sol\":4014:4040  isContract(_parentChapter) */\n      tag_175\n        /* \"Story.sol\":4025:4039  _parentChapter */\n      dup3\n        /* \"Story.sol\":4014:4024  isContract */\n      tag_176\n        /* \"Story.sol\":4014:4040  isContract(_parentChapter) */\n      jump\t// in\n    tag_175:\n        /* \"Story.sol\":4006:4078  require(isContract(_parentChapter), \"Parent chapter must be a contract\") */\n      tag_177\n      jumpi\n      mload(0x40)\n      0x08c379a000000000000000000000000000000000000000000000000000000000\n      dup2\n      mstore\n      0x04\n      add\n      tag_178\n      swap1\n      tag_179\n      jump\t// in\n    tag_178:\n      mload(0x40)\n      dup1\n      swap2\n      sub\n      swap1\n      revert\n    tag_177:\n        /* \"Story.sol\":4097:4122  isContract(_childChapter) */\n      tag_180\n        /* \"Story.sol\":4108:4121  _childChapter */\n      dup2\n        /* \"Story.sol\":4097:4107  isContract */\n      tag_176\n        /* \"Story.sol\":4097:4122  isContract(_childChapter) */\n      jump\t// in\n    tag_180:\n        /* \"Story.sol\":4089:4159  require(isContract(_childChapter), \"Child chapter must be a contract\") */\n      tag_181\n      jumpi\n      mload(0x40)\n      0x08c379a000000000000000000000000000000000000000000000000000000000\n      dup2\n      mstore\n      0x04\n      add\n      tag_182\n      swap1\n      tag_183\n      jump\t// in\n    tag_182:\n      mload(0x40)\n      dup1\n      swap2\n      sub\n      swap1\n      revert\n    tag_181:\n        /* \"Story.sol\":4178:4212  checkParentChapter(_parentChapter) */\n      tag_184\n        /* \"Story.sol\":4197:4211  _parentChapter */\n      dup3\n        /* \"Story.sol\":4178:4196  checkParentChapter */\n      tag_185\n        /* \"Story.sol\":4178:4212  checkParentChapter(_parentChapter) */\n      jump\t// in\n    tag_184:\n        /* \"Story.sol\":4170:4261  require(checkParentChapter(_parentChapter), \"Parent chapter must belong to the same story\") */\n      tag_186\n      jumpi\n      mload(0x40)\n      0x08c379a000000000000000000000000000000000000000000000000000000000\n      dup2\n      mstore\n      0x04\n      add\n      tag_187\n      swap1\n      tag_188\n      jump\t// in\n    tag_187:\n      mload(0x40)\n      dup1\n      swap2\n      sub\n      swap1\n      revert\n    tag_186:\n        /* \"Story.sol\":4280:4312  checkChildChapter(_childChapter) */\n      tag_189\n        /* \"Story.sol\":4298:4311  _childChapter */\n      dup2\n        /* \"Story.sol\":4280:4297  checkChildChapter */\n      tag_190\n        /* \"Story.sol\":4280:4312  checkChildChapter(_childChapter) */\n      jump\t// in\n    tag_189:\n        /* \"Story.sol\":4272:4360  require(checkChildChapter(_childChapter), \"Child chapter must belong to the same story\") */\n      tag_191\n      jumpi\n      mload(0x40)\n      0x08c379a000000000000000000000000000000000000000000000000000000000\n      dup2\n      mstore\n      0x04\n      add\n      tag_192\n      swap1\n      tag_193\n      jump\t// in\n    tag_192:\n      mload(0x40)\n      dup1\n      swap2\n      sub\n      swap1\n      revert\n    tag_191:\n        /* \"Story.sol\":4373:4391  Chapter newChapter */\n      0x00\n        /* \"Story.sol\":4406:4416  msg.sender */\n      caller\n        /* \"Story.sol\":4426:4430  this */\n      address\n        /* \"Story.sol\":4433:4439  _title */\n      dup7\n        /* \"Story.sol\":4442:4451  _ipfsHash */\n      dup7\n        /* \"Story.sol\":4453:4467  _parentChapter */\n      dup7\n        /* \"Story.sol\":4469:4482  _childChapter */\n      dup7\n        /* \"Story.sol\":4394:4483  new Chapter(msg.sender, address(this), _title,  _ipfsHash, _parentChapter, _childChapter) */\n      mload(0x40)\n      tag_194\n      swap1\n      tag_195\n      jump\t// in\n    tag_194:\n      tag_196\n      swap7\n      swap6\n      swap5\n      swap4\n      swap3\n      swap2\n      swap1\n      tag_197\n      jump\t// in\n    tag_196:\n      mload(0x40)\n      dup1\n      swap2\n      sub\n      swap1\n      0x00\n      create\n      dup1\n      iszero\n      dup1\n      iszero\n      tag_198\n      jumpi\n      returndatasize\n      0x00\n      dup1\n      returndatacopy\n      revert(0x00, returndatasize)\n    tag_198:\n      pop\n        /* \"Story.sol\":4373:4483  Chapter newChapter = new Chapter(msg.sender, address(this), _title,  _ipfsHash, _parentChapter, _childChapter) */\n      swap1\n      pop\n        /* \"Story.sol\":4523:4524  0 */\n      0x00\n        /* \"Story.sol\":4497:4525  _parentChapter != address(0) */\n      0xffffffffffffffffffffffffffffffffffffffff\n      and\n        /* \"Story.sol\":4497:4511  _parentChapter */\n      dup4\n        /* \"Story.sol\":4497:4525  _parentChapter != address(0) */\n      0xffffffffffffffffffffffffffffffffffffffff\n      and\n      eq\n        /* \"Story.sol\":4494:4664  if(_parentChapter != address(0)){... */\n      tag_199\n      jumpi\n        /* \"Story.sol\":4545:4559  Chapter parent */\n      0x00\n        /* \"Story.sol\":4570:4584  _parentChapter */\n      dup4\n        /* \"Story.sol\":4545:4585  Chapter parent = Chapter(_parentChapter) */\n      swap1\n      pop\n        /* \"Story.sol\":4604:4610  parent */\n      dup1\n        /* \"Story.sol\":4604:4627  parent.linkChildChapter */\n      0xffffffffffffffffffffffffffffffffffffffff\n      and\n      0x988e46c8\n        /* \"Story.sol\":4636:4646  newChapter */\n      dup4\n        /* \"Story.sol\":4604:4648  parent.linkChildChapter(address(newChapter)) */\n      mload(0x40)\n      dup3\n      0xffffffff\n      and\n      0xe0\n      shl\n      dup2\n      mstore\n      0x04\n      add\n      tag_200\n      swap2\n      swap1\n      tag_70\n      jump\t// in\n    tag_200:\n      0x00\n      mload(0x40)\n      dup1\n      dup4\n      sub\n      dup2\n      0x00\n      dup8\n      dup1\n      extcodesize\n      iszero\n      dup1\n      iszero\n      tag_201\n      jumpi\n      0x00\n      dup1\n      revert\n    tag_201:\n      pop\n      gas\n      call\n      iszero\n      dup1\n      iszero\n      tag_203\n      jumpi\n      returndatasize\n      0x00\n      dup1\n      returndatacopy\n      revert(0x00, returndatasize)\n    tag_203:\n      pop\n      pop\n      pop\n      pop\n        /* \"Story.sol\":4526:4664  {... */\n      pop\n        /* \"Story.sol\":4494:4664  if(_parentChapter != address(0)){... */\n    tag_199:\n        /* \"Story.sol\":4702:4703  0 */\n      0x00\n        /* \"Story.sol\":4677:4704  _childChapter != address(0) */\n      0xffffffffffffffffffffffffffffffffffffffff\n      and\n        /* \"Story.sol\":4677:4690  _childChapter */\n      dup3\n        /* \"Story.sol\":4677:4704  _childChapter != address(0) */\n      0xffffffffffffffffffffffffffffffffffffffff\n      and\n      eq\n        /* \"Story.sol\":4674:4841  if(_childChapter != address(0)){... */\n      tag_204\n      jumpi\n        /* \"Story.sol\":4724:4737  Chapter child */\n      0x00\n        /* \"Story.sol\":4748:4761  _childChapter */\n      dup3\n        /* \"Story.sol\":4724:4762  Chapter child = Chapter(_childChapter) */\n      swap1\n      pop\n        /* \"Story.sol\":4781:4786  child */\n      dup1\n        /* \"Story.sol\":4781:4804  child.linkParentChapter */\n      0xffffffffffffffffffffffffffffffffffffffff\n      and\n      0x8758ce83\n        /* \"Story.sol\":4813:4823  newChapter */\n      dup4\n        /* \"Story.sol\":4781:4825  child.linkParentChapter(address(newChapter)) */\n      mload(0x40)\n      dup3\n      0xffffffff\n      and\n      0xe0\n      shl\n      dup2\n      mstore\n      0x04\n      add\n      tag_205\n      swap2\n      swap1\n      tag_70\n      jump\t// in\n    tag_205:\n      0x00\n      mload(0x40)\n      dup1\n      dup4\n      sub\n      dup2\n      0x00\n      dup8\n      dup1\n      extcodesize\n      iszero\n      dup1\n      iszero\n      tag_206\n      jumpi\n      0x00\n      dup1\n      revert\n    tag_206:\n      pop\n      gas\n      call\n      iszero\n      dup1\n      iszero\n      tag_208\n      jumpi\n      returndatasize\n      0x00\n      dup1\n      returndatacopy\n      revert(0x00, returndatasize)\n    tag_208:\n      pop\n      pop\n      pop\n      pop\n        /* \"Story.sol\":4705:4841  {... */\n      pop\n        /* \"Story.sol\":4674:4841  if(_childChapter != address(0)){... */\n    tag_204:\n        /* \"Story.sol\":4851:4867  chaptersForReact */\n      0x07\n        /* \"Story.sol\":4881:4891  newChapter */\n      dup2\n        /* \"Story.sol\":4851:4893  chaptersForReact.push(address(newChapter)) */\n      swap1\n      dup1\n      0x01\n      dup2\n      sload\n      add\n      dup1\n      dup3\n      sstore\n      dup1\n      swap2\n      pop\n      pop\n      0x01\n      swap1\n      sub\n      swap1\n      0x00\n      mstore\n      keccak256(0x00, 0x20)\n      add\n      0x00\n      swap1\n      swap2\n      swap1\n      swap2\n      swap1\n      swap2\n      0x0100\n      exp\n      dup2\n      sload\n      dup2\n      0xffffffffffffffffffffffffffffffffffffffff\n      mul\n      not\n      and\n      swap1\n      dup4\n      0xffffffffffffffffffffffffffffffffffffffff\n      and\n      mul\n      or\n      swap1\n      sstore\n      pop\n        /* \"Story.sol\":4947:4951  true */\n      0x01\n        /* \"Story.sol\":4904:4923  chaptersForSolidity */\n      0x06\n        /* \"Story.sol\":4904:4944  chaptersForSolidity[address(newChapter)] */\n      0x00\n        /* \"Story.sol\":4932:4942  newChapter */\n      dup4\n        /* \"Story.sol\":4904:4944  chaptersForSolidity[address(newChapter)] */\n      0xffffffffffffffffffffffffffffffffffffffff\n      and\n      0xffffffffffffffffffffffffffffffffffffffff\n      and\n      dup2\n      mstore\n      0x20\n      add\n      swap1\n      dup2\n      mstore\n      0x20\n      add\n      0x00\n      keccak256\n      0x00\n        /* \"Story.sol\":4904:4951  chaptersForSolidity[address(newChapter)] = true */\n      0x0100\n      exp\n      dup2\n      sload\n      dup2\n      0xff\n      mul\n      not\n      and\n      swap1\n      dup4\n      iszero\n      iszero\n      mul\n      or\n      swap1\n      sstore\n      pop\n        /* \"Story.sol\":3836:4963  {... */\n      pop\n        /* \"Story.sol\":7771:7776  false */\n      0x00\n        /* \"Story.sol\":7761:7768  _locked */\n      0x08\n      0x00\n        /* \"Story.sol\":7761:7776  _locked = false */\n      0x0100\n      exp\n      dup2\n      sload\n      dup2\n      0xff\n      mul\n      not\n      and\n      swap1\n      dup4\n      iszero\n      iszero\n      mul\n      or\n      swap1\n      sstore\n      pop\n        /* \"Story.sol\":3699:4963  function createChapter(string memory _title,  string memory _ipfsHash, address _parentChapter, address _childChapter) public noReentrancy{... */\n      pop\n      pop\n      pop\n      pop\n      jump\t// out\n        /* \"Story.sol\":6025:6129  function getChapters() public view returns (address[] memory) {... */\n    tag_62:\n        /* \"Story.sol\":6069:6085  address[] memory */\n      0x60\n        /* \"Story.sol\":6105:6121  chaptersForReact */\n      0x07\n        /* \"Story.sol\":6098:6121  return chaptersForReact */\n      dup1\n      sload\n      dup1\n      0x20\n      mul\n      0x20\n      add\n      mload(0x40)\n      swap1\n      dup2\n      add\n      0x40\n      mstore\n      dup1\n      swap3\n      swap2\n      swap1\n      dup2\n      dup2\n      mstore\n      0x20\n      add\n      dup3\n      dup1\n      sload\n      dup1\n      iszero\n      tag_211\n      jumpi\n      0x20\n      mul\n      dup3\n      add\n      swap2\n      swap1\n      0x00\n      mstore\n      keccak256(0x00, 0x20)\n      swap1\n    tag_212:\n      dup2\n      0x00\n      swap1\n      sload\n      swap1\n      0x0100\n      exp\n      swap1\n      div\n      0xffffffffffffffffffffffffffffffffffffffff\n      and\n      0xffffffffffffffffffffffffffffffffffffffff\n      and\n      dup2\n      mstore\n      0x20\n      add\n      swap1\n      0x01\n      add\n      swap1\n      dup1\n      dup4\n      gt\n      tag_212\n      jumpi\n    tag_211:\n      pop\n      pop\n      pop\n      pop\n      pop\n      swap1\n      pop\n        /* \"Story.sol\":6025:6129  function getChapters() public view returns (address[] memory) {... */\n      swap1\n      jump\t// out\n        /* \"Story.sol\":1363:1395  address[] public authorsForReact */\n    tag_68:\n      0x05\n      dup2\n      dup2\n      sload\n      dup2\n      lt\n      tag_213\n      jumpi\n      0x00\n      dup1\n      revert\n    tag_213:\n      swap1\n      0x00\n      mstore\n      keccak256(0x00, 0x20)\n      add\n      0x00\n      swap2\n      pop\n      sload\n      swap1\n      0x0100\n      exp\n      swap1\n      div\n      0xffffffffffffffffffffffffffffffffffffffff\n      and\n      dup2\n      jump\t// out\n        /* \"Story.sol\":1460:1493  address[] public chaptersForReact */\n    tag_74:\n      0x07\n      dup2\n      dup2\n      sload\n      dup2\n      lt\n      tag_215\n      jumpi\n      0x00\n      dup1\n      revert\n    tag_215:\n      swap1\n      0x00\n      mstore\n      keccak256(0x00, 0x20)\n      add\n      0x00\n      swap2\n      pop\n      sload\n      swap1\n      0x0100\n      exp\n      swap1\n      div\n      0xffffffffffffffffffffffffffffffffffffffff\n      and\n      dup2\n      jump\t// out\n        /* \"Story.sol\":4971:5154  function contribute() public payable noReentrancy{... */\n    tag_77:\n        /* \"Story.sol\":7687:7694  _locked */\n      0x08\n      0x00\n      swap1\n      sload\n      swap1\n      0x0100\n      exp\n      swap1\n      div\n      0xff\n      and\n        /* \"Story.sol\":7686:7694  !_locked */\n      iszero\n        /* \"Story.sol\":7678:7713  require(!_locked, \"Reentrant call\") */\n      tag_218\n      jumpi\n      mload(0x40)\n      0x08c379a000000000000000000000000000000000000000000000000000000000\n      dup2\n      mstore\n      0x04\n      add\n      tag_219\n      swap1\n      tag_86\n      jump\t// in\n    tag_219:\n      mload(0x40)\n      dup1\n      swap2\n      sub\n      swap1\n      revert\n    tag_218:\n        /* \"Story.sol\":7734:7738  true */\n      0x01\n        /* \"Story.sol\":7724:7731  _locked */\n      0x08\n      0x00\n        /* \"Story.sol\":7724:7738  _locked = true */\n      0x0100\n      exp\n      dup2\n      sload\n      dup2\n      0xff\n      mul\n      not\n      and\n      swap1\n      dup4\n      iszero\n      iszero\n      mul\n      or\n      swap1\n      sstore\n      pop\n        /* \"Story.sol\":5052:5055  100 */\n      0x64\n        /* \"Story.sol\":5039:5048  msg.value */\n      callvalue\n        /* \"Story.sol\":5039:5055  msg.value >= 100 */\n      lt\n      iszero\n        /* \"Story.sol\":5031:5091  require(msg.value >= 100, \"Minimum contribution is 100 Wei\") */\n      tag_221\n      jumpi\n      mload(0x40)\n      0x08c379a000000000000000000000000000000000000000000000000000000000\n      dup2\n      mstore\n      0x04\n      add\n      tag_222\n      swap1\n      tag_223\n      jump\t// in\n    tag_222:\n      mload(0x40)\n      dup1\n      swap2\n      sub\n      swap1\n      revert\n    tag_221:\n        /* \"Story.sol\":7771:7776  false */\n      0x00\n        /* \"Story.sol\":7761:7768  _locked */\n      0x08\n      0x00\n        /* \"Story.sol\":7761:7776  _locked = false */\n      0x0100\n      exp\n      dup2\n      sload\n      dup2\n      0xff\n      mul\n      not\n      and\n      swap1\n      dup4\n      iszero\n      iszero\n      mul\n      or\n      swap1\n      sstore\n      pop\n        /* \"Story.sol\":4971:5154  function contribute() public payable noReentrancy{... */\n      jump\t// out\n        /* \"Story.sol\":2229:2745  function createRequestToJoin(string memory _proposal) public noReentrancy{... */\n    tag_82:\n        /* \"Story.sol\":7687:7694  _locked */\n      0x08\n      0x00\n      swap1\n      sload\n      swap1\n      0x0100\n      exp\n      swap1\n      div\n      0xff\n      and\n        /* \"Story.sol\":7686:7694  !_locked */\n      iszero\n        /* \"Story.sol\":7678:7713  require(!_locked, \"Reentrant call\") */\n      tag_225\n      jumpi\n      mload(0x40)\n      0x08c379a000000000000000000000000000000000000000000000000000000000\n      dup2\n      mstore\n      0x04\n      add\n      tag_226\n      swap1\n      tag_86\n      jump\t// in\n    tag_226:\n      mload(0x40)\n      dup1\n      swap2\n      sub\n      swap1\n      revert\n    tag_225:\n        /* \"Story.sol\":7734:7738  true */\n      0x01\n        /* \"Story.sol\":7724:7731  _locked */\n      0x08\n      0x00\n        /* \"Story.sol\":7724:7738  _locked = true */\n      0x0100\n      exp\n      dup2\n      sload\n      dup2\n      0xff\n      mul\n      not\n      and\n      swap1\n      dup4\n      iszero\n      iszero\n      mul\n      or\n      swap1\n      sstore\n      pop\n        /* \"Story.sol\":2322:2330  reported */\n      0x0b\n      0x00\n      swap1\n      sload\n      swap1\n      0x0100\n      exp\n      swap1\n      div\n      0xff\n      and\n        /* \"Story.sol\":2321:2330  !reported */\n      iszero\n        /* \"Story.sol\":2313:2363  require(!reported, \"This story has been reported\") */\n      tag_228\n      jumpi\n      mload(0x40)\n      0x08c379a000000000000000000000000000000000000000000000000000000000\n      dup2\n      mstore\n      0x04\n      add\n      tag_229\n      swap1\n      tag_90\n      jump\t// in\n    tag_229:\n      mload(0x40)\n      dup1\n      swap2\n      sub\n      swap1\n      revert\n    tag_228:\n        /* \"Story.sol\":2383:2401  authorsForSolidity */\n      0x04\n        /* \"Story.sol\":2383:2413  authorsForSolidity[msg.sender] */\n      0x00\n        /* \"Story.sol\":2402:2412  msg.sender */\n      caller\n        /* \"Story.sol\":2383:2413  authorsForSolidity[msg.sender] */\n      0xffffffffffffffffffffffffffffffffffffffff\n      and\n      0xffffffffffffffffffffffffffffffffffffffff\n      and\n      dup2\n      mstore\n      0x20\n      add\n      swap1\n      dup2\n      mstore\n      0x20\n      add\n      0x00\n      keccak256\n      0x00\n      swap1\n      sload\n      swap1\n      0x0100\n      exp\n      swap1\n      div\n      0xff\n      and\n        /* \"Story.sol\":2382:2413  !authorsForSolidity[msg.sender] */\n      iszero\n        /* \"Story.sol\":2374:2462  require(!authorsForSolidity[msg.sender], \"Author already exists in the list of authors\") */\n      tag_230\n      jumpi\n      mload(0x40)\n      0x08c379a000000000000000000000000000000000000000000000000000000000\n      dup2\n      mstore\n      0x04\n      add\n      tag_231\n      swap1\n      tag_232\n      jump\t// in\n    tag_231:\n      mload(0x40)\n      dup1\n      swap2\n      sub\n      swap1\n      revert\n    tag_230:\n        /* \"Story.sol\":2473:2505  RequestToJoin storage newRequest */\n      0x00\n        /* \"Story.sol\":2508:2522  requestsToJoin */\n      0x0c\n        /* \"Story.sol\":2508:2529  requestsToJoin.push() */\n      0x01\n      dup2\n      0x01\n      dup2\n      sload\n      add\n      dup1\n      dup3\n      sstore\n      dup1\n      swap2\n      pop\n      pop\n      sub\n      swap1\n      0x00\n      mstore\n      keccak256(0x00, 0x20)\n      swap1\n      0x06\n      mul\n      add\n        /* \"Story.sol\":2473:2529  RequestToJoin storage newRequest = requestsToJoin.push() */\n      swap1\n      pop\n        /* \"Story.sol\":2562:2571  _proposal */\n      dup2\n        /* \"Story.sol\":2540:2550  newRequest */\n      dup2\n        /* \"Story.sol\":2540:2559  newRequest.proposal */\n      0x00\n      add\n        /* \"Story.sol\":2540:2571  newRequest.proposal = _proposal */\n      swap1\n      dup1\n      mload\n      swap1\n      0x20\n      add\n      swap1\n      tag_234\n      swap3\n      swap2\n      swap1\n      tag_235\n      jump\t// in\n    tag_234:\n      pop\n        /* \"Story.sol\":2605:2620  block.timestamp */\n      timestamp\n        /* \"Story.sol\":2582:2592  newRequest */\n      dup2\n        /* \"Story.sol\":2582:2602  newRequest.timestamp */\n      0x01\n      add\n        /* \"Story.sol\":2582:2620  newRequest.timestamp = block.timestamp */\n      dup2\n      swap1\n      sstore\n      pop\n        /* \"Story.sol\":2651:2661  msg.sender */\n      caller\n        /* \"Story.sol\":2631:2641  newRequest */\n      dup2\n        /* \"Story.sol\":2631:2648  newRequest.author */\n      0x02\n      add\n      0x00\n        /* \"Story.sol\":2631:2661  newRequest.author = msg.sender */\n      0x0100\n      exp\n      dup2\n      sload\n      dup2\n      0xffffffffffffffffffffffffffffffffffffffff\n      mul\n      not\n      and\n      swap1\n      dup4\n      0xffffffffffffffffffffffffffffffffffffffff\n      and\n      mul\n      or\n      swap1\n      sstore\n      pop\n        /* \"Story.sol\":2700:2701  0 */\n      0x00\n        /* \"Story.sol\":2672:2682  newRequest */\n      dup2\n        /* \"Story.sol\":2672:2697  newRequest.approversCount */\n      0x04\n      add\n        /* \"Story.sol\":2672:2701  newRequest.approversCount = 0 */\n      dup2\n      swap1\n      sstore\n      pop\n        /* \"Story.sol\":2732:2737  false */\n      0x00\n        /* \"Story.sol\":2712:2722  newRequest */\n      dup2\n        /* \"Story.sol\":2712:2729  newRequest.status */\n      0x05\n      add\n      0x00\n        /* \"Story.sol\":2712:2737  newRequest.status = false */\n      0x0100\n      exp\n      dup2\n      sload\n      dup2\n      0xff\n      mul\n      not\n      and\n      swap1\n      dup4\n      iszero\n      iszero\n      mul\n      or\n      swap1\n      sstore\n      pop\n        /* \"Story.sol\":2302:2745  {... */\n      pop\n        /* \"Story.sol\":7771:7776  false */\n      0x00\n        /* \"Story.sol\":7761:7768  _locked */\n      0x08\n      0x00\n        /* \"Story.sol\":7761:7776  _locked = false */\n      0x0100\n      exp\n      dup2\n      sload\n      dup2\n      0xff\n      mul\n      not\n      and\n      swap1\n      dup4\n      iszero\n      iszero\n      mul\n      or\n      swap1\n      sstore\n      pop\n        /* \"Story.sol\":2229:2745  function createRequestToJoin(string memory _proposal) public noReentrancy{... */\n      pop\n      jump\t// out\n        /* \"Story.sol\":84:263  function add(uint256 a, uint256 b) internal pure returns (uint256) {... */\n    tag_95:\n        /* \"Story.sol\":142:149  uint256 */\n      0x00\n        /* \"Story.sol\":162:171  uint256 c */\n      dup1\n        /* \"Story.sol\":178:179  b */\n      dup3\n        /* \"Story.sol\":174:175  a */\n      dup5\n        /* \"Story.sol\":174:179  a + b */\n      tag_237\n      swap2\n      swap1\n      tag_238\n      jump\t// in\n    tag_237:\n        /* \"Story.sol\":162:179  uint256 c = a + b */\n      swap1\n      pop\n        /* \"Story.sol\":203:204  a */\n      dup4\n        /* \"Story.sol\":198:199  c */\n      dup2\n        /* \"Story.sol\":198:204  c >= a */\n      lt\n      iszero\n        /* \"Story.sol\":190:236  require(c >= a, \"SafeMath: addition overflow\") */\n      tag_239\n      jumpi\n      mload(0x40)\n      0x08c379a000000000000000000000000000000000000000000000000000000000\n      dup2\n      mstore\n      0x04\n      add\n      tag_240\n      swap1\n      tag_241\n      jump\t// in\n    tag_240:\n      mload(0x40)\n      dup1\n      swap2\n      sub\n      swap1\n      revert\n    tag_239:\n        /* \"Story.sol\":254:255  c */\n      dup1\n        /* \"Story.sol\":247:255  return c */\n      swap2\n      pop\n      pop\n        /* \"Story.sol\":84:263  function add(uint256 a, uint256 b) internal pure returns (uint256) {... */\n      swap3\n      swap2\n      pop\n      pop\n      jump\t// out\n        /* \"Story.sol\":269:422  function div(uint256 a, uint256 b) internal pure returns (uint256) {... */\n    tag_105:\n        /* \"Story.sol\":327:334  uint256 */\n      0x00\n        /* \"Story.sol\":359:360  0 */\n      dup1\n        /* \"Story.sol\":355:356  b */\n      dup3\n        /* \"Story.sol\":355:360  b > 0 */\n      gt\n        /* \"Story.sol\":347:391  require(b > 0, \"SafeMath: division by zero\") */\n      tag_243\n      jumpi\n      mload(0x40)\n      0x08c379a000000000000000000000000000000000000000000000000000000000\n      dup2\n      mstore\n      0x04\n      add\n      tag_244\n      swap1\n      tag_245\n      jump\t// in\n    tag_244:\n      mload(0x40)\n      dup1\n      swap2\n      sub\n      swap1\n      revert\n    tag_243:\n        /* \"Story.sol\":413:414  b */\n      dup2\n        /* \"Story.sol\":409:410  a */\n      dup4\n        /* \"Story.sol\":409:414  a / b */\n      tag_246\n      swap2\n      swap1\n      tag_163\n      jump\t// in\n    tag_246:\n        /* \"Story.sol\":402:414  return a / b */\n      swap1\n      pop\n        /* \"Story.sol\":269:422  function div(uint256 a, uint256 b) internal pure returns (uint256) {... */\n      swap3\n      swap2\n      pop\n      pop\n      jump\t// out\n        /* \"Story.sol\":7301:7633  function isContract(address account) internal view returns (bool) {... */\n    tag_176:\n        /* \"Story.sol\":7361:7365  bool */\n      0x00\n        /* \"Story.sol\":7462:7463  0 */\n      dup1\n        /* \"Story.sol\":7443:7464  account == address(0) */\n      0xffffffffffffffffffffffffffffffffffffffff\n      and\n        /* \"Story.sol\":7443:7450  account */\n      dup3\n        /* \"Story.sol\":7443:7464  account == address(0) */\n      0xffffffffffffffffffffffffffffffffffffffff\n      and\n      eq\n        /* \"Story.sol\":7439:7504  if (account == address(0)) {... */\n      iszero\n      tag_248\n      jumpi\n        /* \"Story.sol\":7488:7492  true */\n      0x01\n        /* \"Story.sol\":7481:7492  return true */\n      swap1\n      pop\n      jump(tag_247)\n        /* \"Story.sol\":7439:7504  if (account == address(0)) {... */\n    tag_248:\n        /* \"Story.sol\":7514:7526  uint256 size */\n      0x00\n        /* \"Story.sol\":7581:7588  account */\n      dup3\n        /* \"Story.sol\":7569:7589  extcodesize(account) */\n      extcodesize\n        /* \"Story.sol\":7561:7589  size := extcodesize(account) */\n      swap1\n      pop\n        /* \"Story.sol\":7624:7625  0 */\n      0x00\n        /* \"Story.sol\":7617:7621  size */\n      dup2\n        /* \"Story.sol\":7617:7625  size > 0 */\n      gt\n        /* \"Story.sol\":7610:7625  return size > 0 */\n      swap2\n      pop\n      pop\n        /* \"Story.sol\":7301:7633  function isContract(address account) internal view returns (bool) {... */\n    tag_247:\n      swap2\n      swap1\n      pop\n      jump\t// out\n        /* \"Story.sol\":6798:7016  function checkParentChapter(address parentChapter) internal view returns (bool){... */\n    tag_185:\n        /* \"Story.sol\":6872:6876  bool */\n      0x00\n        /* \"Story.sol\":6916:6917  0 */\n      dup1\n        /* \"Story.sol\":6891:6918  parentChapter == address(0) */\n      0xffffffffffffffffffffffffffffffffffffffff\n      and\n        /* \"Story.sol\":6891:6904  parentChapter */\n      dup3\n        /* \"Story.sol\":6891:6918  parentChapter == address(0) */\n      0xffffffffffffffffffffffffffffffffffffffff\n      and\n      eq\n        /* \"Story.sol\":6888:6957  if(parentChapter == address(0)){... */\n      iszero\n      tag_250\n      jumpi\n        /* \"Story.sol\":6941:6945  true */\n      0x01\n        /* \"Story.sol\":6934:6945  return true */\n      swap1\n      pop\n      jump(tag_249)\n        /* \"Story.sol\":6888:6957  if(parentChapter == address(0)){... */\n    tag_250:\n        /* \"Story.sol\":6974:6993  chaptersForSolidity */\n      0x06\n        /* \"Story.sol\":6974:7008  chaptersForSolidity[parentChapter] */\n      0x00\n        /* \"Story.sol\":6994:7007  parentChapter */\n      dup4\n        /* \"Story.sol\":6974:7008  chaptersForSolidity[parentChapter] */\n      0xffffffffffffffffffffffffffffffffffffffff\n      and\n      0xffffffffffffffffffffffffffffffffffffffff\n      and\n      dup2\n      mstore\n      0x20\n      add\n      swap1\n      dup2\n      mstore\n      0x20\n      add\n      0x00\n      keccak256\n      0x00\n      swap1\n      sload\n      swap1\n      0x0100\n      exp\n      swap1\n      div\n      0xff\n      and\n        /* \"Story.sol\":6967:7008  return chaptersForSolidity[parentChapter] */\n      swap1\n      pop\n        /* \"Story.sol\":6798:7016  function checkParentChapter(address parentChapter) internal view returns (bool){... */\n    tag_249:\n      swap2\n      swap1\n      pop\n      jump\t// out\n        /* \"Story.sol\":7079:7293  function checkChildChapter(address childChapter) internal view returns (bool){... */\n    tag_190:\n        /* \"Story.sol\":7151:7155  bool */\n      0x00\n        /* \"Story.sol\":7194:7195  0 */\n      dup1\n        /* \"Story.sol\":7170:7196  childChapter == address(0) */\n      0xffffffffffffffffffffffffffffffffffffffff\n      and\n        /* \"Story.sol\":7170:7182  childChapter */\n      dup3\n        /* \"Story.sol\":7170:7196  childChapter == address(0) */\n      0xffffffffffffffffffffffffffffffffffffffff\n      and\n      eq\n        /* \"Story.sol\":7167:7235  if(childChapter == address(0)){... */\n      iszero\n      tag_252\n      jumpi\n        /* \"Story.sol\":7219:7223  true */\n      0x01\n        /* \"Story.sol\":7212:7223  return true */\n      swap1\n      pop\n      jump(tag_251)\n        /* \"Story.sol\":7167:7235  if(childChapter == address(0)){... */\n    tag_252:\n        /* \"Story.sol\":7252:7271  chaptersForSolidity */\n      0x06\n        /* \"Story.sol\":7252:7285  chaptersForSolidity[childChapter] */\n      0x00\n        /* \"Story.sol\":7272:7284  childChapter */\n      dup4\n        /* \"Story.sol\":7252:7285  chaptersForSolidity[childChapter] */\n      0xffffffffffffffffffffffffffffffffffffffff\n      and\n      0xffffffffffffffffffffffffffffffffffffffff\n      and\n      dup2\n      mstore\n      0x20\n      add\n      swap1\n      dup2\n      mstore\n      0x20\n      add\n      0x00\n      keccak256\n      0x00\n      swap1\n      sload\n      swap1\n      0x0100\n      exp\n      swap1\n      div\n      0xff\n      and\n        /* \"Story.sol\":7245:7285  return chaptersForSolidity[childChapter] */\n      swap1\n      pop\n        /* \"Story.sol\":7079:7293  function checkChildChapter(address childChapter) internal view returns (bool){... */\n    tag_251:\n      swap2\n      swap1\n      pop\n      jump\t// out\n    tag_195:\n      dataSize(sub_0)\n      dup1\n      dataOffset(sub_0)\n      dup4\n      codecopy\n      add\n      swap1\n      jump\t// out\n    tag_235:\n      dup3\n      dup1\n      sload\n      tag_253\n      swap1\n      tag_122\n      jump\t// in\n    tag_253:\n      swap1\n      0x00\n      mstore\n      keccak256(0x00, 0x20)\n      swap1\n      0x1f\n      add\n      0x20\n      swap1\n      div\n      dup2\n      add\n      swap3\n      dup3\n      tag_255\n      jumpi\n      0x00\n      dup6\n      sstore\n      jump(tag_254)\n    tag_255:\n      dup3\n      0x1f\n      lt\n      tag_256\n      jumpi\n      dup1\n      mload\n      not(0xff)\n      and\n      dup4\n      dup1\n      add\n      or\n      dup6\n      sstore\n      jump(tag_254)\n    tag_256:\n      dup3\n      dup1\n      add\n      0x01\n      add\n      dup6\n      sstore\n      dup3\n      iszero\n      tag_254\n      jumpi\n      swap2\n      dup3\n      add\n    tag_257:\n      dup3\n      dup2\n      gt\n      iszero\n      tag_258\n      jumpi\n      dup3\n      mload\n      dup3\n      sstore\n      swap2\n      0x20\n      add\n      swap2\n      swap1\n      0x01\n      add\n      swap1\n      jump(tag_257)\n    tag_258:\n    tag_254:\n      pop\n      swap1\n      pop\n      tag_259\n      swap2\n      swap1\n      tag_260\n      jump\t// in\n    tag_259:\n      pop\n      swap1\n      jump\t// out\n    tag_260:\n    tag_261:\n      dup1\n      dup3\n      gt\n      iszero\n      tag_262\n      jumpi\n      0x00\n      dup2\n      0x00\n      swap1\n      sstore\n      pop\n      0x01\n      add\n      jump(tag_261)\n    tag_262:\n      pop\n      swap1\n      jump\t// out\n        /* \"#utility.yul\":7:82   */\n    tag_263:\n        /* \"#utility.yul\":40:46   */\n      0x00\n        /* \"#utility.yul\":73:75   */\n      0x40\n        /* \"#utility.yul\":67:76   */\n      mload\n        /* \"#utility.yul\":57:76   */\n      swap1\n      pop\n        /* \"#utility.yul\":7:82   */\n      swap1\n      jump\t// out\n        /* \"#utility.yul\":88:205   */\n    tag_264:\n        /* \"#utility.yul\":197:198   */\n      0x00\n        /* \"#utility.yul\":194:195   */\n      dup1\n        /* \"#utility.yul\":187:199   */\n      revert\n        /* \"#utility.yul\":211:328   */\n    tag_265:\n        /* \"#utility.yul\":320:321   */\n      0x00\n        /* \"#utility.yul\":317:318   */\n      dup1\n        /* \"#utility.yul\":310:322   */\n      revert\n        /* \"#utility.yul\":334:460   */\n    tag_266:\n        /* \"#utility.yul\":371:378   */\n      0x00\n        /* \"#utility.yul\":411:453   */\n      0xffffffffffffffffffffffffffffffffffffffff\n        /* \"#utility.yul\":404:409   */\n      dup3\n        /* \"#utility.yul\":400:454   */\n      and\n        /* \"#utility.yul\":389:454   */\n      swap1\n      pop\n        /* \"#utility.yul\":334:460   */\n      swap2\n      swap1\n      pop\n      jump\t// out\n        /* \"#utility.yul\":466:562   */\n    tag_267:\n        /* \"#utility.yul\":503:510   */\n      0x00\n        /* \"#utility.yul\":532:556   */\n      tag_341\n        /* \"#utility.yul\":550:555   */\n      dup3\n        /* \"#utility.yul\":532:556   */\n      tag_266\n      jump\t// in\n    tag_341:\n        /* \"#utility.yul\":521:556   */\n      swap1\n      pop\n        /* \"#utility.yul\":466:562   */\n      swap2\n      swap1\n      pop\n      jump\t// out\n        /* \"#utility.yul\":568:690   */\n    tag_268:\n        /* \"#utility.yul\":641:665   */\n      tag_343\n        /* \"#utility.yul\":659:664   */\n      dup2\n        /* \"#utility.yul\":641:665   */\n      tag_267\n      jump\t// in\n    tag_343:\n        /* \"#utility.yul\":634:639   */\n      dup2\n        /* \"#utility.yul\":631:666   */\n      eq\n        /* \"#utility.yul\":621:684   */\n      tag_344\n      jumpi\n        /* \"#utility.yul\":680:681   */\n      0x00\n        /* \"#utility.yul\":677:678   */\n      dup1\n        /* \"#utility.yul\":670:682   */\n      revert\n        /* \"#utility.yul\":621:684   */\n    tag_344:\n        /* \"#utility.yul\":568:690   */\n      pop\n      jump\t// out\n        /* \"#utility.yul\":696:835   */\n    tag_269:\n        /* \"#utility.yul\":742:747   */\n      0x00\n        /* \"#utility.yul\":780:786   */\n      dup2\n        /* \"#utility.yul\":767:787   */\n      calldataload\n        /* \"#utility.yul\":758:787   */\n      swap1\n      pop\n        /* \"#utility.yul\":796:829   */\n      tag_346\n        /* \"#utility.yul\":823:828   */\n      dup2\n        /* \"#utility.yul\":796:829   */\n      tag_268\n      jump\t// in\n    tag_346:\n        /* \"#utility.yul\":696:835   */\n      swap3\n      swap2\n      pop\n      pop\n      jump\t// out\n        /* \"#utility.yul\":841:1170   */\n    tag_28:\n        /* \"#utility.yul\":900:906   */\n      0x00\n        /* \"#utility.yul\":949:951   */\n      0x20\n        /* \"#utility.yul\":937:946   */\n      dup3\n        /* \"#utility.yul\":928:935   */\n      dup5\n        /* \"#utility.yul\":924:947   */\n      sub\n        /* \"#utility.yul\":920:952   */\n      slt\n        /* \"#utility.yul\":917:1036   */\n      iszero\n      tag_348\n      jumpi\n        /* \"#utility.yul\":955:1034   */\n      tag_349\n      tag_264\n      jump\t// in\n    tag_349:\n        /* \"#utility.yul\":917:1036   */\n    tag_348:\n        /* \"#utility.yul\":1075:1076   */\n      0x00\n        /* \"#utility.yul\":1100:1153   */\n      tag_350\n        /* \"#utility.yul\":1145:1152   */\n      dup5\n        /* \"#utility.yul\":1136:1142   */\n      dup3\n        /* \"#utility.yul\":1125:1134   */\n      dup6\n        /* \"#utility.yul\":1121:1143   */\n      add\n        /* \"#utility.yul\":1100:1153   */\n      tag_269\n      jump\t// in\n    tag_350:\n        /* \"#utility.yul\":1090:1153   */\n      swap2\n      pop\n        /* \"#utility.yul\":1046:1163   */\n      pop\n        /* \"#utility.yul\":841:1170   */\n      swap3\n      swap2\n      pop\n      pop\n      jump\t// out\n        /* \"#utility.yul\":1176:1266   */\n    tag_270:\n        /* \"#utility.yul\":1210:1217   */\n      0x00\n        /* \"#utility.yul\":1253:1258   */\n      dup2\n        /* \"#utility.yul\":1246:1259   */\n      iszero\n        /* \"#utility.yul\":1239:1260   */\n      iszero\n        /* \"#utility.yul\":1228:1260   */\n      swap1\n      pop\n        /* \"#utility.yul\":1176:1266   */\n      swap2\n      swap1\n      pop\n      jump\t// out\n        /* \"#utility.yul\":1272:1381   */\n    tag_271:\n        /* \"#utility.yul\":1353:1374   */\n      tag_353\n        /* \"#utility.yul\":1368:1373   */\n      dup2\n        /* \"#utility.yul\":1353:1374   */\n      tag_270\n      jump\t// in\n    tag_353:\n        /* \"#utility.yul\":1348:1351   */\n      dup3\n        /* \"#utility.yul\":1341:1375   */\n      mstore\n        /* \"#utility.yul\":1272:1381   */\n      pop\n      pop\n      jump\t// out\n        /* \"#utility.yul\":1387:1597   */\n    tag_31:\n        /* \"#utility.yul\":1474:1478   */\n      0x00\n        /* \"#utility.yul\":1512:1514   */\n      0x20\n        /* \"#utility.yul\":1501:1510   */\n      dup3\n        /* \"#utility.yul\":1497:1515   */\n      add\n        /* \"#utility.yul\":1489:1515   */\n      swap1\n      pop\n        /* \"#utility.yul\":1525:1590   */\n      tag_355\n        /* \"#utility.yul\":1587:1588   */\n      0x00\n        /* \"#utility.yul\":1576:1585   */\n      dup4\n        /* \"#utility.yul\":1572:1589   */\n      add\n        /* \"#utility.yul\":1563:1569   */\n      dup5\n        /* \"#utility.yul\":1525:1590   */\n      tag_271\n      jump\t// in\n    tag_355:\n        /* \"#utility.yul\":1387:1597   */\n      swap3\n      swap2\n      pop\n      pop\n      jump\t// out\n        /* \"#utility.yul\":1603:1721   */\n    tag_272:\n        /* \"#utility.yul\":1690:1714   */\n      tag_357\n        /* \"#utility.yul\":1708:1713   */\n      dup2\n        /* \"#utility.yul\":1690:1714   */\n      tag_267\n      jump\t// in\n    tag_357:\n        /* \"#utility.yul\":1685:1688   */\n      dup3\n        /* \"#utility.yul\":1678:1715   */\n      mstore\n        /* \"#utility.yul\":1603:1721   */\n      pop\n      pop\n      jump\t// out\n        /* \"#utility.yul\":1727:1826   */\n    tag_273:\n        /* \"#utility.yul\":1779:1785   */\n      0x00\n        /* \"#utility.yul\":1813:1818   */\n      dup2\n        /* \"#utility.yul\":1807:1819   */\n      mload\n        /* \"#utility.yul\":1797:1819   */\n      swap1\n      pop\n        /* \"#utility.yul\":1727:1826   */\n      swap2\n      swap1\n      pop\n      jump\t// out\n        /* \"#utility.yul\":1832:2001   */\n    tag_274:\n        /* \"#utility.yul\":1916:1927   */\n      0x00\n        /* \"#utility.yul\":1950:1956   */\n      dup3\n        /* \"#utility.yul\":1945:1948   */\n      dup3\n        /* \"#utility.yul\":1938:1957   */\n      mstore\n        /* \"#utility.yul\":1990:1994   */\n      0x20\n        /* \"#utility.yul\":1985:1988   */\n      dup3\n        /* \"#utility.yul\":1981:1995   */\n      add\n        /* \"#utility.yul\":1966:1995   */\n      swap1\n      pop\n        /* \"#utility.yul\":1832:2001   */\n      swap3\n      swap2\n      pop\n      pop\n      jump\t// out\n        /* \"#utility.yul\":2007:2314   */\n    tag_275:\n        /* \"#utility.yul\":2075:2076   */\n      0x00\n        /* \"#utility.yul\":2085:2198   */\n    tag_361:\n        /* \"#utility.yul\":2099:2105   */\n      dup4\n        /* \"#utility.yul\":2096:2097   */\n      dup2\n        /* \"#utility.yul\":2093:2106   */\n      lt\n        /* \"#utility.yul\":2085:2198   */\n      iszero\n      tag_363\n      jumpi\n        /* \"#utility.yul\":2184:2185   */\n      dup1\n        /* \"#utility.yul\":2179:2182   */\n      dup3\n        /* \"#utility.yul\":2175:2186   */\n      add\n        /* \"#utility.yul\":2169:2187   */\n      mload\n        /* \"#utility.yul\":2165:2166   */\n      dup2\n        /* \"#utility.yul\":2160:2163   */\n      dup5\n        /* \"#utility.yul\":2156:2167   */\n      add\n        /* \"#utility.yul\":2149:2188   */\n      mstore\n        /* \"#utility.yul\":2121:2123   */\n      0x20\n        /* \"#utility.yul\":2118:2119   */\n      dup2\n        /* \"#utility.yul\":2114:2124   */\n      add\n        /* \"#utility.yul\":2109:2124   */\n      swap1\n      pop\n        /* \"#utility.yul\":2085:2198   */\n      jump(tag_361)\n    tag_363:\n        /* \"#utility.yul\":2216:2222   */\n      dup4\n        /* \"#utility.yul\":2213:2214   */\n      dup2\n        /* \"#utility.yul\":2210:2223   */\n      gt\n        /* \"#utility.yul\":2207:2308   */\n      iszero\n      tag_364\n      jumpi\n        /* \"#utility.yul\":2296:2297   */\n      0x00\n        /* \"#utility.yul\":2287:2293   */\n      dup5\n        /* \"#utility.yul\":2282:2285   */\n      dup5\n        /* \"#utility.yul\":2278:2294   */\n      add\n        /* \"#utility.yul\":2271:2298   */\n      mstore\n        /* \"#utility.yul\":2207:2308   */\n    tag_364:\n        /* \"#utility.yul\":2056:2314   */\n      pop\n        /* \"#utility.yul\":2007:2314   */\n      pop\n      pop\n      pop\n      jump\t// out\n        /* \"#utility.yul\":2320:2422   */\n    tag_276:\n        /* \"#utility.yul\":2361:2367   */\n      0x00\n        /* \"#utility.yul\":2412:2414   */\n      0x1f\n        /* \"#utility.yul\":2408:2415   */\n      not\n        /* \"#utility.yul\":2403:2405   */\n      0x1f\n        /* \"#utility.yul\":2396:2401   */\n      dup4\n        /* \"#utility.yul\":2392:2406   */\n      add\n        /* \"#utility.yul\":2388:2416   */\n      and\n        /* \"#utility.yul\":2378:2416   */\n      swap1\n      pop\n        /* \"#utility.yul\":2320:2422   */\n      swap2\n      swap1\n      pop\n      jump\t// out\n        /* \"#utility.yul\":2428:2792   */\n    tag_277:\n        /* \"#utility.yul\":2516:2519   */\n      0x00\n        /* \"#utility.yul\":2544:2583   */\n      tag_367\n        /* \"#utility.yul\":2577:2582   */\n      dup3\n        /* \"#utility.yul\":2544:2583   */\n      tag_273\n      jump\t// in\n    tag_367:\n        /* \"#utility.yul\":2599:2670   */\n      tag_368\n        /* \"#utility.yul\":2663:2669   */\n      dup2\n        /* \"#utility.yul\":2658:2661   */\n      dup6\n        /* \"#utility.yul\":2599:2670   */\n      tag_274\n      jump\t// in\n    tag_368:\n        /* \"#utility.yul\":2592:2670   */\n      swap4\n      pop\n        /* \"#utility.yul\":2679:2731   */\n      tag_369\n        /* \"#utility.yul\":2724:2730   */\n      dup2\n        /* \"#utility.yul\":2719:2722   */\n      dup6\n        /* \"#utility.yul\":2712:2716   */\n      0x20\n        /* \"#utility.yul\":2705:2710   */\n      dup7\n        /* \"#utility.yul\":2701:2717   */\n      add\n        /* \"#utility.yul\":2679:2731   */\n      tag_275\n      jump\t// in\n    tag_369:\n        /* \"#utility.yul\":2756:2785   */\n      tag_370\n        /* \"#utility.yul\":2778:2784   */\n      dup2\n        /* \"#utility.yul\":2756:2785   */\n      tag_276\n      jump\t// in\n    tag_370:\n        /* \"#utility.yul\":2751:2754   */\n      dup5\n        /* \"#utility.yul\":2747:2786   */\n      add\n        /* \"#utility.yul\":2740:2786   */\n      swap2\n      pop\n        /* \"#utility.yul\":2520:2792   */\n      pop\n        /* \"#utility.yul\":2428:2792   */\n      swap3\n      swap2\n      pop\n      pop\n      jump\t// out\n        /* \"#utility.yul\":2798:2912   */\n    tag_278:\n        /* \"#utility.yul\":2865:2871   */\n      0x00\n        /* \"#utility.yul\":2899:2904   */\n      dup2\n        /* \"#utility.yul\":2893:2905   */\n      mload\n        /* \"#utility.yul\":2883:2905   */\n      swap1\n      pop\n        /* \"#utility.yul\":2798:2912   */\n      swap2\n      swap1\n      pop\n      jump\t// out\n        /* \"#utility.yul\":2918:3102   */\n    tag_279:\n        /* \"#utility.yul\":3017:3028   */\n      0x00\n        /* \"#utility.yul\":3051:3057   */\n      dup3\n        /* \"#utility.yul\":3046:3049   */\n      dup3\n        /* \"#utility.yul\":3039:3058   */\n      mstore\n        /* \"#utility.yul\":3091:3095   */\n      0x20\n        /* \"#utility.yul\":3086:3089   */\n      dup3\n        /* \"#utility.yul\":3082:3096   */\n      add\n        /* \"#utility.yul\":3067:3096   */\n      swap1\n      pop\n        /* \"#utility.yul\":2918:3102   */\n      swap3\n      swap2\n      pop\n      pop\n      jump\t// out\n        /* \"#utility.yul\":3108:3240   */\n    tag_280:\n        /* \"#utility.yul\":3175:3179   */\n      0x00\n        /* \"#utility.yul\":3198:3201   */\n      dup2\n        /* \"#utility.yul\":3190:3201   */\n      swap1\n      pop\n        /* \"#utility.yul\":3228:3232   */\n      0x20\n        /* \"#utility.yul\":3223:3226   */\n      dup3\n        /* \"#utility.yul\":3219:3233   */\n      add\n        /* \"#utility.yul\":3211:3233   */\n      swap1\n      pop\n        /* \"#utility.yul\":3108:3240   */\n      swap2\n      swap1\n      pop\n      jump\t// out\n        /* \"#utility.yul\":3246:3354   */\n    tag_281:\n        /* \"#utility.yul\":3323:3347   */\n      tag_375\n        /* \"#utility.yul\":3341:3346   */\n      dup2\n        /* \"#utility.yul\":3323:3347   */\n      tag_267\n      jump\t// in\n    tag_375:\n        /* \"#utility.yul\":3318:3321   */\n      dup3\n        /* \"#utility.yul\":3311:3348   */\n      mstore\n        /* \"#utility.yul\":3246:3354   */\n      pop\n      pop\n      jump\t// out\n        /* \"#utility.yul\":3360:3539   */\n    tag_282:\n        /* \"#utility.yul\":3429:3439   */\n      0x00\n        /* \"#utility.yul\":3450:3496   */\n      tag_377\n        /* \"#utility.yul\":3492:3495   */\n      dup4\n        /* \"#utility.yul\":3484:3490   */\n      dup4\n        /* \"#utility.yul\":3450:3496   */\n      tag_281\n      jump\t// in\n    tag_377:\n        /* \"#utility.yul\":3528:3532   */\n      0x20\n        /* \"#utility.yul\":3523:3526   */\n      dup4\n        /* \"#utility.yul\":3519:3533   */\n      add\n        /* \"#utility.yul\":3505:3533   */\n      swap1\n      pop\n        /* \"#utility.yul\":3360:3539   */\n      swap3\n      swap2\n      pop\n      pop\n      jump\t// out\n        /* \"#utility.yul\":3545:3658   */\n    tag_283:\n        /* \"#utility.yul\":3615:3619   */\n      0x00\n        /* \"#utility.yul\":3647:3651   */\n      0x20\n        /* \"#utility.yul\":3642:3645   */\n      dup3\n        /* \"#utility.yul\":3638:3652   */\n      add\n        /* \"#utility.yul\":3630:3652   */\n      swap1\n      pop\n        /* \"#utility.yul\":3545:3658   */\n      swap2\n      swap1\n      pop\n      jump\t// out\n        /* \"#utility.yul\":3694:4426   */\n    tag_284:\n        /* \"#utility.yul\":3813:3816   */\n      0x00\n        /* \"#utility.yul\":3842:3896   */\n      tag_380\n        /* \"#utility.yul\":3890:3895   */\n      dup3\n        /* \"#utility.yul\":3842:3896   */\n      tag_278\n      jump\t// in\n    tag_380:\n        /* \"#utility.yul\":3912:3998   */\n      tag_381\n        /* \"#utility.yul\":3991:3997   */\n      dup2\n        /* \"#utility.yul\":3986:3989   */\n      dup6\n        /* \"#utility.yul\":3912:3998   */\n      tag_279\n      jump\t// in\n    tag_381:\n        /* \"#utility.yul\":3905:3998   */\n      swap4\n      pop\n        /* \"#utility.yul\":4022:4078   */\n      tag_382\n        /* \"#utility.yul\":4072:4077   */\n      dup4\n        /* \"#utility.yul\":4022:4078   */\n      tag_280\n      jump\t// in\n    tag_382:\n        /* \"#utility.yul\":4101:4108   */\n      dup1\n        /* \"#utility.yul\":4132:4133   */\n      0x00\n        /* \"#utility.yul\":4117:4401   */\n    tag_383:\n        /* \"#utility.yul\":4142:4148   */\n      dup4\n        /* \"#utility.yul\":4139:4140   */\n      dup2\n        /* \"#utility.yul\":4136:4149   */\n      lt\n        /* \"#utility.yul\":4117:4401   */\n      iszero\n      tag_385\n      jumpi\n        /* \"#utility.yul\":4218:4224   */\n      dup2\n        /* \"#utility.yul\":4212:4225   */\n      mload\n        /* \"#utility.yul\":4245:4308   */\n      tag_386\n        /* \"#utility.yul\":4304:4307   */\n      dup9\n        /* \"#utility.yul\":4289:4302   */\n      dup3\n        /* \"#utility.yul\":4245:4308   */\n      tag_282\n      jump\t// in\n    tag_386:\n        /* \"#utility.yul\":4238:4308   */\n      swap8\n      pop\n        /* \"#utility.yul\":4331:4391   */\n      tag_387\n        /* \"#utility.yul\":4384:4390   */\n      dup4\n        /* \"#utility.yul\":4331:4391   */\n      tag_283\n      jump\t// in\n    tag_387:\n        /* \"#utility.yul\":4321:4391   */\n      swap3\n      pop\n        /* \"#utility.yul\":4177:4401   */\n      pop\n        /* \"#utility.yul\":4164:4165   */\n      0x01\n        /* \"#utility.yul\":4161:4162   */\n      dup2\n        /* \"#utility.yul\":4157:4166   */\n      add\n        /* \"#utility.yul\":4152:4166   */\n      swap1\n      pop\n        /* \"#utility.yul\":4117:4401   */\n      jump(tag_383)\n    tag_385:\n        /* \"#utility.yul\":4121:4135   */\n      pop\n        /* \"#utility.yul\":4417:4420   */\n      dup6\n        /* \"#utility.yul\":4410:4420   */\n      swap4\n      pop\n        /* \"#utility.yul\":3818:4426   */\n      pop\n      pop\n      pop\n        /* \"#utility.yul\":3694:4426   */\n      swap3\n      swap2\n      pop\n      pop\n      jump\t// out\n        /* \"#utility.yul\":4432:4509   */\n    tag_285:\n        /* \"#utility.yul\":4469:4476   */\n      0x00\n        /* \"#utility.yul\":4498:4503   */\n      dup2\n        /* \"#utility.yul\":4487:4503   */\n      swap1\n      pop\n        /* \"#utility.yul\":4432:4509   */\n      swap2\n      swap1\n      pop\n      jump\t// out\n        /* \"#utility.yul\":4515:4633   */\n    tag_286:\n        /* \"#utility.yul\":4602:4626   */\n      tag_390\n        /* \"#utility.yul\":4620:4625   */\n      dup2\n        /* \"#utility.yul\":4602:4626   */\n      tag_285\n      jump\t// in\n    tag_390:\n        /* \"#utility.yul\":4597:4600   */\n      dup3\n        /* \"#utility.yul\":4590:4627   */\n      mstore\n        /* \"#utility.yul\":4515:4633   */\n      pop\n      pop\n      jump\t// out\n        /* \"#utility.yul\":4639:6421   */\n    tag_36:\n        /* \"#utility.yul\":5138:5142   */\n      0x00\n        /* \"#utility.yul\":5176:5179   */\n      0x0140\n        /* \"#utility.yul\":5165:5174   */\n      dup3\n        /* \"#utility.yul\":5161:5180   */\n      add\n        /* \"#utility.yul\":5153:5180   */\n      swap1\n      pop\n        /* \"#utility.yul\":5190:5261   */\n      tag_392\n        /* \"#utility.yul\":5258:5259   */\n      0x00\n        /* \"#utility.yul\":5247:5256   */\n      dup4\n        /* \"#utility.yul\":5243:5260   */\n      add\n        /* \"#utility.yul\":5234:5240   */\n      dup14\n        /* \"#utility.yul\":5190:5261   */\n      tag_272\n      jump\t// in\n    tag_392:\n        /* \"#utility.yul\":5308:5317   */\n      dup2\n        /* \"#utility.yul\":5302:5306   */\n      dup2\n        /* \"#utility.yul\":5298:5318   */\n      sub\n        /* \"#utility.yul\":5293:5295   */\n      0x20\n        /* \"#utility.yul\":5282:5291   */\n      dup4\n        /* \"#utility.yul\":5278:5296   */\n      add\n        /* \"#utility.yul\":5271:5319   */\n      mstore\n        /* \"#utility.yul\":5336:5414   */\n      tag_393\n        /* \"#utility.yul\":5409:5413   */\n      dup2\n        /* \"#utility.yul\":5400:5406   */\n      dup13\n        /* \"#utility.yul\":5336:5414   */\n      tag_277\n      jump\t// in\n    tag_393:\n        /* \"#utility.yul\":5328:5414   */\n      swap1\n      pop\n        /* \"#utility.yul\":5461:5470   */\n      dup2\n        /* \"#utility.yul\":5455:5459   */\n      dup2\n        /* \"#utility.yul\":5451:5471   */\n      sub\n        /* \"#utility.yul\":5446:5448   */\n      0x40\n        /* \"#utility.yul\":5435:5444   */\n      dup4\n        /* \"#utility.yul\":5431:5449   */\n      add\n        /* \"#utility.yul\":5424:5472   */\n      mstore\n        /* \"#utility.yul\":5489:5567   */\n      tag_394\n        /* \"#utility.yul\":5562:5566   */\n      dup2\n        /* \"#utility.yul\":5553:5559   */\n      dup12\n        /* \"#utility.yul\":5489:5567   */\n      tag_277\n      jump\t// in\n    tag_394:\n        /* \"#utility.yul\":5481:5567   */\n      swap1\n      pop\n        /* \"#utility.yul\":5614:5623   */\n      dup2\n        /* \"#utility.yul\":5608:5612   */\n      dup2\n        /* \"#utility.yul\":5604:5624   */\n      sub\n        /* \"#utility.yul\":5599:5601   */\n      0x60\n        /* \"#utility.yul\":5588:5597   */\n      dup4\n        /* \"#utility.yul\":5584:5602   */\n      add\n        /* \"#utility.yul\":5577:5625   */\n      mstore\n        /* \"#utility.yul\":5642:5720   */\n      tag_395\n        /* \"#utility.yul\":5715:5719   */\n      dup2\n        /* \"#utility.yul\":5706:5712   */\n      dup11\n        /* \"#utility.yul\":5642:5720   */\n      tag_277\n      jump\t// in\n    tag_395:\n        /* \"#utility.yul\":5634:5720   */\n      swap1\n      pop\n        /* \"#utility.yul\":5768:5777   */\n      dup2\n        /* \"#utility.yul\":5762:5766   */\n      dup2\n        /* \"#utility.yul\":5758:5778   */\n      sub\n        /* \"#utility.yul\":5752:5755   */\n      0x80\n        /* \"#utility.yul\":5741:5750   */\n      dup4\n        /* \"#utility.yul\":5737:5756   */\n      add\n        /* \"#utility.yul\":5730:5779   */\n      mstore\n        /* \"#utility.yul\":5796:5904   */\n      tag_396\n        /* \"#utility.yul\":5899:5903   */\n      dup2\n        /* \"#utility.yul\":5890:5896   */\n      dup10\n        /* \"#utility.yul\":5796:5904   */\n      tag_284\n      jump\t// in\n    tag_396:\n        /* \"#utility.yul\":5788:5904   */\n      swap1\n      pop\n        /* \"#utility.yul\":5952:5961   */\n      dup2\n        /* \"#utility.yul\":5946:5950   */\n      dup2\n        /* \"#utility.yul\":5942:5962   */\n      sub\n        /* \"#utility.yul\":5936:5939   */\n      0xa0\n        /* \"#utility.yul\":5925:5934   */\n      dup4\n        /* \"#utility.yul\":5921:5940   */\n      add\n        /* \"#utility.yul\":5914:5963   */\n      mstore\n        /* \"#utility.yul\":5980:6088   */\n      tag_397\n        /* \"#utility.yul\":6083:6087   */\n      dup2\n        /* \"#utility.yul\":6074:6080   */\n      dup9\n        /* \"#utility.yul\":5980:6088   */\n      tag_284\n      jump\t// in\n    tag_397:\n        /* \"#utility.yul\":5972:6088   */\n      swap1\n      pop\n        /* \"#utility.yul\":6098:6171   */\n      tag_398\n        /* \"#utility.yul\":6166:6169   */\n      0xc0\n        /* \"#utility.yul\":6155:6164   */\n      dup4\n        /* \"#utility.yul\":6151:6170   */\n      add\n        /* \"#utility.yul\":6142:6148   */\n      dup8\n        /* \"#utility.yul\":6098:6171   */\n      tag_286\n      jump\t// in\n    tag_398:\n        /* \"#utility.yul\":6181:6254   */\n      tag_399\n        /* \"#utility.yul\":6249:6252   */\n      0xe0\n        /* \"#utility.yul\":6238:6247   */\n      dup4\n        /* \"#utility.yul\":6234:6253   */\n      add\n        /* \"#utility.yul\":6225:6231   */\n      dup7\n        /* \"#utility.yul\":6181:6254   */\n      tag_286\n      jump\t// in\n    tag_399:\n        /* \"#utility.yul\":6264:6331   */\n      tag_400\n        /* \"#utility.yul\":6326:6329   */\n      0x0100\n        /* \"#utility.yul\":6315:6324   */\n      dup4\n        /* \"#utility.yul\":6311:6330   */\n      add\n        /* \"#utility.yul\":6302:6308   */\n      dup6\n        /* \"#utility.yul\":6264:6331   */\n      tag_271\n      jump\t// in\n    tag_400:\n        /* \"#utility.yul\":6341:6414   */\n      tag_401\n        /* \"#utility.yul\":6409:6412   */\n      0x0120\n        /* \"#utility.yul\":6398:6407   */\n      dup4\n        /* \"#utility.yul\":6394:6413   */\n      add\n        /* \"#utility.yul\":6385:6391   */\n      dup5\n        /* \"#utility.yul\":6341:6414   */\n      tag_286\n      jump\t// in\n    tag_401:\n        /* \"#utility.yul\":4639:6421   */\n      swap12\n      swap11\n      pop\n      pop\n      pop\n      pop\n      pop\n      pop\n      pop\n      pop\n      pop\n      pop\n      pop\n      jump\t// out\n        /* \"#utility.yul\":6427:6549   */\n    tag_287:\n        /* \"#utility.yul\":6500:6524   */\n      tag_403\n        /* \"#utility.yul\":6518:6523   */\n      dup2\n        /* \"#utility.yul\":6500:6524   */\n      tag_285\n      jump\t// in\n    tag_403:\n        /* \"#utility.yul\":6493:6498   */\n      dup2\n        /* \"#utility.yul\":6490:6525   */\n      eq\n        /* \"#utility.yul\":6480:6543   */\n      tag_404\n      jumpi\n        /* \"#utility.yul\":6539:6540   */\n      0x00\n        /* \"#utility.yul\":6536:6537   */\n      dup1\n        /* \"#utility.yul\":6529:6541   */\n      revert\n        /* \"#utility.yul\":6480:6543   */\n    tag_404:\n        /* \"#utility.yul\":6427:6549   */\n      pop\n      jump\t// out\n        /* \"#utility.yul\":6555:6694   */\n    tag_288:\n        /* \"#utility.yul\":6601:6606   */\n      0x00\n        /* \"#utility.yul\":6639:6645   */\n      dup2\n        /* \"#utility.yul\":6626:6646   */\n      calldataload\n        /* \"#utility.yul\":6617:6646   */\n      swap1\n      pop\n        /* \"#utility.yul\":6655:6688   */\n      tag_406\n        /* \"#utility.yul\":6682:6687   */\n      dup2\n        /* \"#utility.yul\":6655:6688   */\n      tag_287\n      jump\t// in\n    tag_406:\n        /* \"#utility.yul\":6555:6694   */\n      swap3\n      swap2\n      pop\n      pop\n      jump\t// out\n        /* \"#utility.yul\":6700:7029   */\n    tag_53:\n        /* \"#utility.yul\":6759:6765   */\n      0x00\n        /* \"#utility.yul\":6808:6810   */\n      0x20\n        /* \"#utility.yul\":6796:6805   */\n      dup3\n        /* \"#utility.yul\":6787:6794   */\n      dup5\n        /* \"#utility.yul\":6783:6806   */\n      sub\n        /* \"#utility.yul\":6779:6811   */\n      slt\n        /* \"#utility.yul\":6776:6895   */\n      iszero\n      tag_408\n      jumpi\n        /* \"#utility.yul\":6814:6893   */\n      tag_409\n      tag_264\n      jump\t// in\n    tag_409:\n        /* \"#utility.yul\":6776:6895   */\n    tag_408:\n        /* \"#utility.yul\":6934:6935   */\n      0x00\n        /* \"#utility.yul\":6959:7012   */\n      tag_410\n        /* \"#utility.yul\":7004:7011   */\n      dup5\n        /* \"#utility.yul\":6995:7001   */\n      dup3\n        /* \"#utility.yul\":6984:6993   */\n      dup6\n        /* \"#utility.yul\":6980:7002   */\n      add\n        /* \"#utility.yul\":6959:7012   */\n      tag_288\n      jump\t// in\n    tag_410:\n        /* \"#utility.yul\":6949:7012   */\n      swap2\n      pop\n        /* \"#utility.yul\":6905:7022   */\n      pop\n        /* \"#utility.yul\":6700:7029   */\n      swap3\n      swap2\n      pop\n      pop\n      jump\t// out\n        /* \"#utility.yul\":7035:7152   */\n    tag_289:\n        /* \"#utility.yul\":7144:7145   */\n      0x00\n        /* \"#utility.yul\":7141:7142   */\n      dup1\n        /* \"#utility.yul\":7134:7146   */\n      revert\n        /* \"#utility.yul\":7158:7275   */\n    tag_290:\n        /* \"#utility.yul\":7267:7268   */\n      0x00\n        /* \"#utility.yul\":7264:7265   */\n      dup1\n        /* \"#utility.yul\":7257:7269   */\n      revert\n        /* \"#utility.yul\":7281:7461   */\n    tag_291:\n        /* \"#utility.yul\":7329:7406   */\n      0x4e487b7100000000000000000000000000000000000000000000000000000000\n        /* \"#utility.yul\":7326:7327   */\n      0x00\n        /* \"#utility.yul\":7319:7407   */\n      mstore\n        /* \"#utility.yul\":7426:7430   */\n      0x41\n        /* \"#utility.yul\":7423:7424   */\n      0x04\n        /* \"#utility.yul\":7416:7431   */\n      mstore\n        /* \"#utility.yul\":7450:7454   */\n      0x24\n        /* \"#utility.yul\":7447:7448   */\n      0x00\n        /* \"#utility.yul\":7440:7455   */\n      revert\n        /* \"#utility.yul\":7467:7748   */\n    tag_292:\n        /* \"#utility.yul\":7550:7577   */\n      tag_415\n        /* \"#utility.yul\":7572:7576   */\n      dup3\n        /* \"#utility.yul\":7550:7577   */\n      tag_276\n      jump\t// in\n    tag_415:\n        /* \"#utility.yul\":7542:7548   */\n      dup2\n        /* \"#utility.yul\":7538:7578   */\n      add\n        /* \"#utility.yul\":7680:7686   */\n      dup2\n        /* \"#utility.yul\":7668:7678   */\n      dup2\n        /* \"#utility.yul\":7665:7687   */\n      lt\n        /* \"#utility.yul\":7644:7662   */\n      0xffffffffffffffff\n        /* \"#utility.yul\":7632:7642   */\n      dup3\n        /* \"#utility.yul\":7629:7663   */\n      gt\n        /* \"#utility.yul\":7626:7688   */\n      or\n        /* \"#utility.yul\":7623:7711   */\n      iszero\n      tag_416\n      jumpi\n        /* \"#utility.yul\":7691:7709   */\n      tag_417\n      tag_291\n      jump\t// in\n    tag_417:\n        /* \"#utility.yul\":7623:7711   */\n    tag_416:\n        /* \"#utility.yul\":7731:7741   */\n      dup1\n        /* \"#utility.yul\":7727:7729   */\n      0x40\n        /* \"#utility.yul\":7720:7742   */\n      mstore\n        /* \"#utility.yul\":7510:7748   */\n      pop\n        /* \"#utility.yul\":7467:7748   */\n      pop\n      pop\n      jump\t// out\n        /* \"#utility.yul\":7754:7883   */\n    tag_293:\n        /* \"#utility.yul\":7788:7794   */\n      0x00\n        /* \"#utility.yul\":7815:7835   */\n      tag_419\n      tag_263\n      jump\t// in\n    tag_419:\n        /* \"#utility.yul\":7805:7835   */\n      swap1\n      pop\n        /* \"#utility.yul\":7844:7877   */\n      tag_420\n        /* \"#utility.yul\":7872:7876   */\n      dup3\n        /* \"#utility.yul\":7864:7870   */\n      dup3\n        /* \"#utility.yul\":7844:7877   */\n      tag_292\n      jump\t// in\n    tag_420:\n        /* \"#utility.yul\":7754:7883   */\n      swap2\n      swap1\n      pop\n      jump\t// out\n        /* \"#utility.yul\":7889:8197   */\n    tag_294:\n        /* \"#utility.yul\":7951:7955   */\n      0x00\n        /* \"#utility.yul\":8041:8059   */\n      0xffffffffffffffff\n        /* \"#utility.yul\":8033:8039   */\n      dup3\n        /* \"#utility.yul\":8030:8060   */\n      gt\n        /* \"#utility.yul\":8027:8083   */\n      iszero\n      tag_422\n      jumpi\n        /* \"#utility.yul\":8063:8081   */\n      tag_423\n      tag_291\n      jump\t// in\n    tag_423:\n        /* \"#utility.yul\":8027:8083   */\n    tag_422:\n        /* \"#utility.yul\":8101:8130   */\n      tag_424\n        /* \"#utility.yul\":8123:8129   */\n      dup3\n        /* \"#utility.yul\":8101:8130   */\n      tag_276\n      jump\t// in\n    tag_424:\n        /* \"#utility.yul\":8093:8130   */\n      swap1\n      pop\n        /* \"#utility.yul\":8185:8189   */\n      0x20\n        /* \"#utility.yul\":8179:8183   */\n      dup2\n        /* \"#utility.yul\":8175:8190   */\n      add\n        /* \"#utility.yul\":8167:8190   */\n      swap1\n      pop\n        /* \"#utility.yul\":7889:8197   */\n      swap2\n      swap1\n      pop\n      jump\t// out\n        /* \"#utility.yul\":8203:8357   */\n    tag_295:\n        /* \"#utility.yul\":8287:8293   */\n      dup3\n        /* \"#utility.yul\":8282:8285   */\n      dup2\n        /* \"#utility.yul\":8277:8280   */\n      dup4\n        /* \"#utility.yul\":8264:8294   */\n      calldatacopy\n        /* \"#utility.yul\":8349:8350   */\n      0x00\n        /* \"#utility.yul\":8340:8346   */\n      dup4\n        /* \"#utility.yul\":8335:8338   */\n      dup4\n        /* \"#utility.yul\":8331:8347   */\n      add\n        /* \"#utility.yul\":8324:8351   */\n      mstore\n        /* \"#utility.yul\":8203:8357   */\n      pop\n      pop\n      pop\n      jump\t// out\n        /* \"#utility.yul\":8363:8775   */\n    tag_296:\n        /* \"#utility.yul\":8441:8446   */\n      0x00\n        /* \"#utility.yul\":8466:8532   */\n      tag_427\n        /* \"#utility.yul\":8482:8531   */\n      tag_428\n        /* \"#utility.yul\":8524:8530   */\n      dup5\n        /* \"#utility.yul\":8482:8531   */\n      tag_294\n      jump\t// in\n    tag_428:\n        /* \"#utility.yul\":8466:8532   */\n      tag_293\n      jump\t// in\n    tag_427:\n        /* \"#utility.yul\":8457:8532   */\n      swap1\n      pop\n        /* \"#utility.yul\":8555:8561   */\n      dup3\n        /* \"#utility.yul\":8548:8553   */\n      dup2\n        /* \"#utility.yul\":8541:8562   */\n      mstore\n        /* \"#utility.yul\":8593:8597   */\n      0x20\n        /* \"#utility.yul\":8586:8591   */\n      dup2\n        /* \"#utility.yul\":8582:8598   */\n      add\n        /* \"#utility.yul\":8631:8634   */\n      dup5\n        /* \"#utility.yul\":8622:8628   */\n      dup5\n        /* \"#utility.yul\":8617:8620   */\n      dup5\n        /* \"#utility.yul\":8613:8629   */\n      add\n        /* \"#utility.yul\":8610:8635   */\n      gt\n        /* \"#utility.yul\":8607:8719   */\n      iszero\n      tag_429\n      jumpi\n        /* \"#utility.yul\":8638:8717   */\n      tag_430\n      tag_290\n      jump\t// in\n    tag_430:\n        /* \"#utility.yul\":8607:8719   */\n    tag_429:\n        /* \"#utility.yul\":8728:8769   */\n      tag_431\n        /* \"#utility.yul\":8762:8768   */\n      dup5\n        /* \"#utility.yul\":8757:8760   */\n      dup3\n        /* \"#utility.yul\":8752:8755   */\n      dup6\n        /* \"#utility.yul\":8728:8769   */\n      tag_295\n      jump\t// in\n    tag_431:\n        /* \"#utility.yul\":8447:8775   */\n      pop\n        /* \"#utility.yul\":8363:8775   */\n      swap4\n      swap3\n      pop\n      pop\n      pop\n      jump\t// out\n        /* \"#utility.yul\":8795:9135   */\n    tag_297:\n        /* \"#utility.yul\":8851:8856   */\n      0x00\n        /* \"#utility.yul\":8900:8903   */\n      dup3\n        /* \"#utility.yul\":8893:8897   */\n      0x1f\n        /* \"#utility.yul\":8885:8891   */\n      dup4\n        /* \"#utility.yul\":8881:8898   */\n      add\n        /* \"#utility.yul\":8877:8904   */\n      slt\n        /* \"#utility.yul\":8867:8989   */\n      tag_433\n      jumpi\n        /* \"#utility.yul\":8908:8987   */\n      tag_434\n      tag_289\n      jump\t// in\n    tag_434:\n        /* \"#utility.yul\":8867:8989   */\n    tag_433:\n        /* \"#utility.yul\":9025:9031   */\n      dup2\n        /* \"#utility.yul\":9012:9032   */\n      calldataload\n        /* \"#utility.yul\":9050:9129   */\n      tag_435\n        /* \"#utility.yul\":9125:9128   */\n      dup5\n        /* \"#utility.yul\":9117:9123   */\n      dup3\n        /* \"#utility.yul\":9110:9114   */\n      0x20\n        /* \"#utility.yul\":9102:9108   */\n      dup7\n        /* \"#utility.yul\":9098:9115   */\n      add\n        /* \"#utility.yul\":9050:9129   */\n      tag_296\n      jump\t// in\n    tag_435:\n        /* \"#utility.yul\":9041:9129   */\n      swap2\n      pop\n        /* \"#utility.yul\":8857:9135   */\n      pop\n        /* \"#utility.yul\":8795:9135   */\n      swap3\n      swap2\n      pop\n      pop\n      jump\t// out\n        /* \"#utility.yul\":9141:10266   */\n    tag_58:\n        /* \"#utility.yul\":9247:9253   */\n      0x00\n        /* \"#utility.yul\":9255:9261   */\n      dup1\n        /* \"#utility.yul\":9263:9269   */\n      0x00\n        /* \"#utility.yul\":9271:9277   */\n      dup1\n        /* \"#utility.yul\":9320:9323   */\n      0x80\n        /* \"#utility.yul\":9308:9317   */\n      dup6\n        /* \"#utility.yul\":9299:9306   */\n      dup8\n        /* \"#utility.yul\":9295:9318   */\n      sub\n        /* \"#utility.yul\":9291:9324   */\n      slt\n        /* \"#utility.yul\":9288:9408   */\n      iszero\n      tag_437\n      jumpi\n        /* \"#utility.yul\":9327:9406   */\n      tag_438\n      tag_264\n      jump\t// in\n    tag_438:\n        /* \"#utility.yul\":9288:9408   */\n    tag_437:\n        /* \"#utility.yul\":9475:9476   */\n      0x00\n        /* \"#utility.yul\":9464:9473   */\n      dup6\n        /* \"#utility.yul\":9460:9477   */\n      add\n        /* \"#utility.yul\":9447:9478   */\n      calldataload\n        /* \"#utility.yul\":9505:9523   */\n      0xffffffffffffffff\n        /* \"#utility.yul\":9497:9503   */\n      dup2\n        /* \"#utility.yul\":9494:9524   */\n      gt\n        /* \"#utility.yul\":9491:9608   */\n      iszero\n      tag_439\n      jumpi\n        /* \"#utility.yul\":9527:9606   */\n      tag_440\n      tag_265\n      jump\t// in\n    tag_440:\n        /* \"#utility.yul\":9491:9608   */\n    tag_439:\n        /* \"#utility.yul\":9632:9695   */\n      tag_441\n        /* \"#utility.yul\":9687:9694   */\n      dup8\n        /* \"#utility.yul\":9678:9684   */\n      dup3\n        /* \"#utility.yul\":9667:9676   */\n      dup9\n        /* \"#utility.yul\":9663:9685   */\n      add\n        /* \"#utility.yul\":9632:9695   */\n      tag_297\n      jump\t// in\n    tag_441:\n        /* \"#utility.yul\":9622:9695   */\n      swap5\n      pop\n        /* \"#utility.yul\":9418:9705   */\n      pop\n        /* \"#utility.yul\":9772:9774   */\n      0x20\n        /* \"#utility.yul\":9761:9770   */\n      dup6\n        /* \"#utility.yul\":9757:9775   */\n      add\n        /* \"#utility.yul\":9744:9776   */\n      calldataload\n        /* \"#utility.yul\":9803:9821   */\n      0xffffffffffffffff\n        /* \"#utility.yul\":9795:9801   */\n      dup2\n        /* \"#utility.yul\":9792:9822   */\n      gt\n        /* \"#utility.yul\":9789:9906   */\n      iszero\n      tag_442\n      jumpi\n        /* \"#utility.yul\":9825:9904   */\n      tag_443\n      tag_265\n      jump\t// in\n    tag_443:\n        /* \"#utility.yul\":9789:9906   */\n    tag_442:\n        /* \"#utility.yul\":9930:9993   */\n      tag_444\n        /* \"#utility.yul\":9985:9992   */\n      dup8\n        /* \"#utility.yul\":9976:9982   */\n      dup3\n        /* \"#utility.yul\":9965:9974   */\n      dup9\n        /* \"#utility.yul\":9961:9983   */\n      add\n        /* \"#utility.yul\":9930:9993   */\n      tag_297\n      jump\t// in\n    tag_444:\n        /* \"#utility.yul\":9920:9993   */\n      swap4\n      pop\n        /* \"#utility.yul\":9715:10003   */\n      pop\n        /* \"#utility.yul\":10042:10044   */\n      0x40\n        /* \"#utility.yul\":10068:10121   */\n      tag_445\n        /* \"#utility.yul\":10113:10120   */\n      dup8\n        /* \"#utility.yul\":10104:10110   */\n      dup3\n        /* \"#utility.yul\":10093:10102   */\n      dup9\n        /* \"#utility.yul\":10089:10111   */\n      add\n        /* \"#utility.yul\":10068:10121   */\n      tag_269\n      jump\t// in\n    tag_445:\n        /* \"#utility.yul\":10058:10121   */\n      swap3\n      pop\n        /* \"#utility.yul\":10013:10131   */\n      pop\n        /* \"#utility.yul\":10170:10172   */\n      0x60\n        /* \"#utility.yul\":10196:10249   */\n      tag_446\n        /* \"#utility.yul\":10241:10248   */\n      dup8\n        /* \"#utility.yul\":10232:10238   */\n      dup3\n        /* \"#utility.yul\":10221:10230   */\n      dup9\n        /* \"#utility.yul\":10217:10239   */\n      add\n        /* \"#utility.yul\":10196:10249   */\n      tag_269\n      jump\t// in\n    tag_446:\n        /* \"#utility.yul\":10186:10249   */\n      swap2\n      pop\n        /* \"#utility.yul\":10141:10259   */\n      pop\n        /* \"#utility.yul\":9141:10266   */\n      swap3\n      swap6\n      swap2\n      swap5\n      pop\n      swap3\n      pop\n      jump\t// out\n        /* \"#utility.yul\":10272:10645   */\n    tag_64:\n        /* \"#utility.yul\":10415:10419   */\n      0x00\n        /* \"#utility.yul\":10453:10455   */\n      0x20\n        /* \"#utility.yul\":10442:10451   */\n      dup3\n        /* \"#utility.yul\":10438:10456   */\n      add\n        /* \"#utility.yul\":10430:10456   */\n      swap1\n      pop\n        /* \"#utility.yul\":10502:10511   */\n      dup2\n        /* \"#utility.yul\":10496:10500   */\n      dup2\n        /* \"#utility.yul\":10492:10512   */\n      sub\n        /* \"#utility.yul\":10488:10489   */\n      0x00\n        /* \"#utility.yul\":10477:10486   */\n      dup4\n        /* \"#utility.yul\":10473:10490   */\n      add\n        /* \"#utility.yul\":10466:10513   */\n      mstore\n        /* \"#utility.yul\":10530:10638   */\n      tag_448\n        /* \"#utility.yul\":10633:10637   */\n      dup2\n        /* \"#utility.yul\":10624:10630   */\n      dup5\n        /* \"#utility.yul\":10530:10638   */\n      tag_284\n      jump\t// in\n    tag_448:\n        /* \"#utility.yul\":10522:10638   */\n      swap1\n      pop\n        /* \"#utility.yul\":10272:10645   */\n      swap3\n      swap2\n      pop\n      pop\n      jump\t// out\n        /* \"#utility.yul\":10651:10873   */\n    tag_70:\n        /* \"#utility.yul\":10744:10748   */\n      0x00\n        /* \"#utility.yul\":10782:10784   */\n      0x20\n        /* \"#utility.yul\":10771:10780   */\n      dup3\n        /* \"#utility.yul\":10767:10785   */\n      add\n        /* \"#utility.yul\":10759:10785   */\n      swap1\n      pop\n        /* \"#utility.yul\":10795:10866   */\n      tag_450\n        /* \"#utility.yul\":10863:10864   */\n      0x00\n        /* \"#utility.yul\":10852:10861   */\n      dup4\n        /* \"#utility.yul\":10848:10865   */\n      add\n        /* \"#utility.yul\":10839:10845   */\n      dup5\n        /* \"#utility.yul\":10795:10866   */\n      tag_272\n      jump\t// in\n    tag_450:\n        /* \"#utility.yul\":10651:10873   */\n      swap3\n      swap2\n      pop\n      pop\n      jump\t// out\n        /* \"#utility.yul\":10879:11388   */\n    tag_81:\n        /* \"#utility.yul\":10948:10954   */\n      0x00\n        /* \"#utility.yul\":10997:10999   */\n      0x20\n        /* \"#utility.yul\":10985:10994   */\n      dup3\n        /* \"#utility.yul\":10976:10983   */\n      dup5\n        /* \"#utility.yul\":10972:10995   */\n      sub\n        /* \"#utility.yul\":10968:11000   */\n      slt\n        /* \"#utility.yul\":10965:11084   */\n      iszero\n      tag_452\n      jumpi\n        /* \"#utility.yul\":11003:11082   */\n      tag_453\n      tag_264\n      jump\t// in\n    tag_453:\n        /* \"#utility.yul\":10965:11084   */\n    tag_452:\n        /* \"#utility.yul\":11151:11152   */\n      0x00\n        /* \"#utility.yul\":11140:11149   */\n      dup3\n        /* \"#utility.yul\":11136:11153   */\n      add\n        /* \"#utility.yul\":11123:11154   */\n      calldataload\n        /* \"#utility.yul\":11181:11199   */\n      0xffffffffffffffff\n        /* \"#utility.yul\":11173:11179   */\n      dup2\n        /* \"#utility.yul\":11170:11200   */\n      gt\n        /* \"#utility.yul\":11167:11284   */\n      iszero\n      tag_454\n      jumpi\n        /* \"#utility.yul\":11203:11282   */\n      tag_455\n      tag_265\n      jump\t// in\n    tag_455:\n        /* \"#utility.yul\":11167:11284   */\n    tag_454:\n        /* \"#utility.yul\":11308:11371   */\n      tag_456\n        /* \"#utility.yul\":11363:11370   */\n      dup5\n        /* \"#utility.yul\":11354:11360   */\n      dup3\n        /* \"#utility.yul\":11343:11352   */\n      dup6\n        /* \"#utility.yul\":11339:11361   */\n      add\n        /* \"#utility.yul\":11308:11371   */\n      tag_297\n      jump\t// in\n    tag_456:\n        /* \"#utility.yul\":11298:11371   */\n      swap2\n      pop\n        /* \"#utility.yul\":11094:11381   */\n      pop\n        /* \"#utility.yul\":10879:11388   */\n      swap3\n      swap2\n      pop\n      pop\n      jump\t// out\n        /* \"#utility.yul\":11394:11558   */\n    tag_298:\n        /* \"#utility.yul\":11534:11550   */\n      0x5265656e7472616e742063616c6c000000000000000000000000000000000000\n        /* \"#utility.yul\":11530:11531   */\n      0x00\n        /* \"#utility.yul\":11522:11528   */\n      dup3\n        /* \"#utility.yul\":11518:11532   */\n      add\n        /* \"#utility.yul\":11511:11551   */\n      mstore\n        /* \"#utility.yul\":11394:11558   */\n      pop\n      jump\t// out\n        /* \"#utility.yul\":11564:11930   */\n    tag_299:\n        /* \"#utility.yul\":11706:11709   */\n      0x00\n        /* \"#utility.yul\":11727:11794   */\n      tag_459\n        /* \"#utility.yul\":11791:11793   */\n      0x0e\n        /* \"#utility.yul\":11786:11789   */\n      dup4\n        /* \"#utility.yul\":11727:11794   */\n      tag_274\n      jump\t// in\n    tag_459:\n        /* \"#utility.yul\":11720:11794   */\n      swap2\n      pop\n        /* \"#utility.yul\":11803:11896   */\n      tag_460\n        /* \"#utility.yul\":11892:11895   */\n      dup3\n        /* \"#utility.yul\":11803:11896   */\n      tag_298\n      jump\t// in\n    tag_460:\n        /* \"#utility.yul\":11921:11923   */\n      0x20\n        /* \"#utility.yul\":11916:11919   */\n      dup3\n        /* \"#utility.yul\":11912:11924   */\n      add\n        /* \"#utility.yul\":11905:11924   */\n      swap1\n      pop\n        /* \"#utility.yul\":11564:11930   */\n      swap2\n      swap1\n      pop\n      jump\t// out\n        /* \"#utility.yul\":11936:12355   */\n    tag_86:\n        /* \"#utility.yul\":12102:12106   */\n      0x00\n        /* \"#utility.yul\":12140:12142   */\n      0x20\n        /* \"#utility.yul\":12129:12138   */\n      dup3\n        /* \"#utility.yul\":12125:12143   */\n      add\n        /* \"#utility.yul\":12117:12143   */\n      swap1\n      pop\n        /* \"#utility.yul\":12189:12198   */\n      dup2\n        /* \"#utility.yul\":12183:12187   */\n      dup2\n        /* \"#utility.yul\":12179:12199   */\n      sub\n        /* \"#utility.yul\":12175:12176   */\n      0x00\n        /* \"#utility.yul\":12164:12173   */\n      dup4\n        /* \"#utility.yul\":12160:12177   */\n      add\n        /* \"#utility.yul\":12153:12200   */\n      mstore\n        /* \"#utility.yul\":12217:12348   */\n      tag_462\n        /* \"#utility.yul\":12343:12347   */\n      dup2\n        /* \"#utility.yul\":12217:12348   */\n      tag_299\n      jump\t// in\n    tag_462:\n        /* \"#utility.yul\":12209:12348   */\n      swap1\n      pop\n        /* \"#utility.yul\":11936:12355   */\n      swap2\n      swap1\n      pop\n      jump\t// out\n        /* \"#utility.yul\":12361:12539   */\n    tag_300:\n        /* \"#utility.yul\":12501:12531   */\n      0x546869732073746f727920686173206265656e207265706f7274656400000000\n        /* \"#utility.yul\":12497:12498   */\n      0x00\n        /* \"#utility.yul\":12489:12495   */\n      dup3\n        /* \"#utility.yul\":12485:12499   */\n      add\n        /* \"#utility.yul\":12478:12532   */\n      mstore\n        /* \"#utility.yul\":12361:12539   */\n      pop\n      jump\t// out\n        /* \"#utility.yul\":12545:12911   */\n    tag_301:\n        /* \"#utility.yul\":12687:12690   */\n      0x00\n        /* \"#utility.yul\":12708:12775   */\n      tag_465\n        /* \"#utility.yul\":12772:12774   */\n      0x1c\n        /* \"#utility.yul\":12767:12770   */\n      dup4\n        /* \"#utility.yul\":12708:12775   */\n      tag_274\n      jump\t// in\n    tag_465:\n        /* \"#utility.yul\":12701:12775   */\n      swap2\n      pop\n        /* \"#utility.yul\":12784:12877   */\n      tag_466\n        /* \"#utility.yul\":12873:12876   */\n      dup3\n        /* \"#utility.yul\":12784:12877   */\n      tag_300\n      jump\t// in\n    tag_466:\n        /* \"#utility.yul\":12902:12904   */\n      0x20\n        /* \"#utility.yul\":12897:12900   */\n      dup3\n        /* \"#utility.yul\":12893:12905   */\n      add\n        /* \"#utility.yul\":12886:12905   */\n      swap1\n      pop\n        /* \"#utility.yul\":12545:12911   */\n      swap2\n      swap1\n      pop\n      jump\t// out\n        /* \"#utility.yul\":12917:13336   */\n    tag_90:\n        /* \"#utility.yul\":13083:13087   */\n      0x00\n        /* \"#utility.yul\":13121:13123   */\n      0x20\n        /* \"#utility.yul\":13110:13119   */\n      dup3\n        /* \"#utility.yul\":13106:13124   */\n      add\n        /* \"#utility.yul\":13098:13124   */\n      swap1\n      pop\n        /* \"#utility.yul\":13170:13179   */\n      dup2\n        /* \"#utility.yul\":13164:13168   */\n      dup2\n        /* \"#utility.yul\":13160:13180   */\n      sub\n        /* \"#utility.yul\":13156:13157   */\n      0x00\n        /* \"#utility.yul\":13145:13154   */\n      dup4\n        /* \"#utility.yul\":13141:13158   */\n      add\n        /* \"#utility.yul\":13134:13181   */\n      mstore\n        /* \"#utility.yul\":13198:13329   */\n      tag_468\n        /* \"#utility.yul\":13324:13328   */\n      dup2\n        /* \"#utility.yul\":13198:13329   */\n      tag_301\n      jump\t// in\n    tag_468:\n        /* \"#utility.yul\":13190:13329   */\n      swap1\n      pop\n        /* \"#utility.yul\":12917:13336   */\n      swap2\n      swap1\n      pop\n      jump\t// out\n        /* \"#utility.yul\":13342:13564   */\n    tag_302:\n        /* \"#utility.yul\":13482:13516   */\n      0x596f752068617665207265706f7274656420746869732073746f727920626566\n        /* \"#utility.yul\":13478:13479   */\n      0x00\n        /* \"#utility.yul\":13470:13476   */\n      dup3\n        /* \"#utility.yul\":13466:13480   */\n      add\n        /* \"#utility.yul\":13459:13517   */\n      mstore\n        /* \"#utility.yul\":13551:13556   */\n      0x6f72650000000000000000000000000000000000000000000000000000000000\n        /* \"#utility.yul\":13546:13548   */\n      0x20\n        /* \"#utility.yul\":13538:13544   */\n      dup3\n        /* \"#utility.yul\":13534:13549   */\n      add\n        /* \"#utility.yul\":13527:13557   */\n      mstore\n        /* \"#utility.yul\":13342:13564   */\n      pop\n      jump\t// out\n        /* \"#utility.yul\":13570:13936   */\n    tag_303:\n        /* \"#utility.yul\":13712:13715   */\n      0x00\n        /* \"#utility.yul\":13733:13800   */\n      tag_471\n        /* \"#utility.yul\":13797:13799   */\n      0x23\n        /* \"#utility.yul\":13792:13795   */\n      dup4\n        /* \"#utility.yul\":13733:13800   */\n      tag_274\n      jump\t// in\n    tag_471:\n        /* \"#utility.yul\":13726:13800   */\n      swap2\n      pop\n        /* \"#utility.yul\":13809:13902   */\n      tag_472\n        /* \"#utility.yul\":13898:13901   */\n      dup3\n        /* \"#utility.yul\":13809:13902   */\n      tag_302\n      jump\t// in\n    tag_472:\n        /* \"#utility.yul\":13927:13929   */\n      0x40\n        /* \"#utility.yul\":13922:13925   */\n      dup3\n        /* \"#utility.yul\":13918:13930   */\n      add\n        /* \"#utility.yul\":13911:13930   */\n      swap1\n      pop\n        /* \"#utility.yul\":13570:13936   */\n      swap2\n      swap1\n      pop\n      jump\t// out\n        /* \"#utility.yul\":13942:14361   */\n    tag_93:\n        /* \"#utility.yul\":14108:14112   */\n      0x00\n        /* \"#utility.yul\":14146:14148   */\n      0x20\n        /* \"#utility.yul\":14135:14144   */\n      dup3\n        /* \"#utility.yul\":14131:14149   */\n      add\n        /* \"#utility.yul\":14123:14149   */\n      swap1\n      pop\n        /* \"#utility.yul\":14195:14204   */\n      dup2\n        /* \"#utility.yul\":14189:14193   */\n      dup2\n        /* \"#utility.yul\":14185:14205   */\n      sub\n        /* \"#utility.yul\":14181:14182   */\n      0x00\n        /* \"#utility.yul\":14170:14179   */\n      dup4\n        /* \"#utility.yul\":14166:14183   */\n      add\n        /* \"#utility.yul\":14159:14206   */\n      mstore\n        /* \"#utility.yul\":14223:14354   */\n      tag_474\n        /* \"#utility.yul\":14349:14353   */\n      dup2\n        /* \"#utility.yul\":14223:14354   */\n      tag_303\n      jump\t// in\n    tag_474:\n        /* \"#utility.yul\":14215:14354   */\n      swap1\n      pop\n        /* \"#utility.yul\":13942:14361   */\n      swap2\n      swap1\n      pop\n      jump\t// out\n        /* \"#utility.yul\":14367:14600   */\n    tag_304:\n        /* \"#utility.yul\":14507:14541   */\n      0x4f6e6c7920616e20617574686f72697a656420617574686f722063616e206469\n        /* \"#utility.yul\":14503:14504   */\n      0x00\n        /* \"#utility.yul\":14495:14501   */\n      dup3\n        /* \"#utility.yul\":14491:14505   */\n      add\n        /* \"#utility.yul\":14484:14542   */\n      mstore\n        /* \"#utility.yul\":14576:14592   */\n      0x7370656e73652072657761726473000000000000000000000000000000000000\n        /* \"#utility.yul\":14571:14573   */\n      0x20\n        /* \"#utility.yul\":14563:14569   */\n      dup3\n        /* \"#utility.yul\":14559:14574   */\n      add\n        /* \"#utility.yul\":14552:14593   */\n      mstore\n        /* \"#utility.yul\":14367:14600   */\n      pop\n      jump\t// out\n        /* \"#utility.yul\":14606:14972   */\n    tag_305:\n        /* \"#utility.yul\":14748:14751   */\n      0x00\n        /* \"#utility.yul\":14769:14836   */\n      tag_477\n        /* \"#utility.yul\":14833:14835   */\n      0x2e\n        /* \"#utility.yul\":14828:14831   */\n      dup4\n        /* \"#utility.yul\":14769:14836   */\n      tag_274\n      jump\t// in\n    tag_477:\n        /* \"#utility.yul\":14762:14836   */\n      swap2\n      pop\n        /* \"#utility.yul\":14845:14938   */\n      tag_478\n        /* \"#utility.yul\":14934:14937   */\n      dup3\n        /* \"#utility.yul\":14845:14938   */\n      tag_304\n      jump\t// in\n    tag_478:\n        /* \"#utility.yul\":14963:14965   */\n      0x40\n        /* \"#utility.yul\":14958:14961   */\n      dup3\n        /* \"#utility.yul\":14954:14966   */\n      add\n        /* \"#utility.yul\":14947:14966   */\n      swap1\n      pop\n        /* \"#utility.yul\":14606:14972   */\n      swap2\n      swap1\n      pop\n      jump\t// out\n        /* \"#utility.yul\":14978:15397   */\n    tag_103:\n        /* \"#utility.yul\":15144:15148   */\n      0x00\n        /* \"#utility.yul\":15182:15184   */\n      0x20\n        /* \"#utility.yul\":15171:15180   */\n      dup3\n        /* \"#utility.yul\":15167:15185   */\n      add\n        /* \"#utility.yul\":15159:15185   */\n      swap1\n      pop\n        /* \"#utility.yul\":15231:15240   */\n      dup2\n        /* \"#utility.yul\":15225:15229   */\n      dup2\n        /* \"#utility.yul\":15221:15241   */\n      sub\n        /* \"#utility.yul\":15217:15218   */\n      0x00\n        /* \"#utility.yul\":15206:15215   */\n      dup4\n        /* \"#utility.yul\":15202:15219   */\n      add\n        /* \"#utility.yul\":15195:15242   */\n      mstore\n        /* \"#utility.yul\":15259:15390   */\n      tag_480\n        /* \"#utility.yul\":15385:15389   */\n      dup2\n        /* \"#utility.yul\":15259:15390   */\n      tag_305\n      jump\t// in\n    tag_480:\n        /* \"#utility.yul\":15251:15390   */\n      swap1\n      pop\n        /* \"#utility.yul\":14978:15397   */\n      swap2\n      swap1\n      pop\n      jump\t// out\n        /* \"#utility.yul\":15403:15574   */\n    tag_306:\n        /* \"#utility.yul\":15543:15566   */\n      0x4e6f2072657761726420746f2064697370656e73650000000000000000000000\n        /* \"#utility.yul\":15539:15540   */\n      0x00\n        /* \"#utility.yul\":15531:15537   */\n      dup3\n        /* \"#utility.yul\":15527:15541   */\n      add\n        /* \"#utility.yul\":15520:15567   */\n      mstore\n        /* \"#utility.yul\":15403:15574   */\n      pop\n      jump\t// out\n        /* \"#utility.yul\":15580:15946   */\n    tag_307:\n        /* \"#utility.yul\":15722:15725   */\n      0x00\n        /* \"#utility.yul\":15743:15810   */\n      tag_483\n        /* \"#utility.yul\":15807:15809   */\n      0x15\n        /* \"#utility.yul\":15802:15805   */\n      dup4\n        /* \"#utility.yul\":15743:15810   */\n      tag_274\n      jump\t// in\n    tag_483:\n        /* \"#utility.yul\":15736:15810   */\n      swap2\n      pop\n        /* \"#utility.yul\":15819:15912   */\n      tag_484\n        /* \"#utility.yul\":15908:15911   */\n      dup3\n        /* \"#utility.yul\":15819:15912   */\n      tag_306\n      jump\t// in\n    tag_484:\n        /* \"#utility.yul\":15937:15939   */\n      0x20\n        /* \"#utility.yul\":15932:15935   */\n      dup3\n        /* \"#utility.yul\":15928:15940   */\n      add\n        /* \"#utility.yul\":15921:15940   */\n      swap1\n      pop\n        /* \"#utility.yul\":15580:15946   */\n      swap2\n      swap1\n      pop\n      jump\t// out\n        /* \"#utility.yul\":15952:16371   */\n    tag_108:\n        /* \"#utility.yul\":16118:16122   */\n      0x00\n        /* \"#utility.yul\":16156:16158   */\n      0x20\n        /* \"#utility.yul\":16145:16154   */\n      dup3\n        /* \"#utility.yul\":16141:16159   */\n      add\n        /* \"#utility.yul\":16133:16159   */\n      swap1\n      pop\n        /* \"#utility.yul\":16205:16214   */\n      dup2\n        /* \"#utility.yul\":16199:16203   */\n      dup2\n        /* \"#utility.yul\":16195:16215   */\n      sub\n        /* \"#utility.yul\":16191:16192   */\n      0x00\n        /* \"#utility.yul\":16180:16189   */\n      dup4\n        /* \"#utility.yul\":16176:16193   */\n      add\n        /* \"#utility.yul\":16169:16216   */\n      mstore\n        /* \"#utility.yul\":16233:16364   */\n      tag_486\n        /* \"#utility.yul\":16359:16363   */\n      dup2\n        /* \"#utility.yul\":16233:16364   */\n      tag_307\n      jump\t// in\n    tag_486:\n        /* \"#utility.yul\":16225:16364   */\n      swap1\n      pop\n        /* \"#utility.yul\":15952:16371   */\n      swap2\n      swap1\n      pop\n      jump\t// out\n        /* \"#utility.yul\":16377:16557   */\n    tag_114:\n        /* \"#utility.yul\":16425:16502   */\n      0x4e487b7100000000000000000000000000000000000000000000000000000000\n        /* \"#utility.yul\":16422:16423   */\n      0x00\n        /* \"#utility.yul\":16415:16503   */\n      mstore\n        /* \"#utility.yul\":16522:16526   */\n      0x32\n        /* \"#utility.yul\":16519:16520   */\n      0x04\n        /* \"#utility.yul\":16512:16527   */\n      mstore\n        /* \"#utility.yul\":16546:16550   */\n      0x24\n        /* \"#utility.yul\":16543:16544   */\n      0x00\n        /* \"#utility.yul\":16536:16551   */\n      revert\n        /* \"#utility.yul\":16563:16743   */\n    tag_308:\n        /* \"#utility.yul\":16611:16688   */\n      0x4e487b7100000000000000000000000000000000000000000000000000000000\n        /* \"#utility.yul\":16608:16609   */\n      0x00\n        /* \"#utility.yul\":16601:16689   */\n      mstore\n        /* \"#utility.yul\":16708:16712   */\n      0x11\n        /* \"#utility.yul\":16705:16706   */\n      0x04\n        /* \"#utility.yul\":16698:16713   */\n      mstore\n        /* \"#utility.yul\":16732:16736   */\n      0x24\n        /* \"#utility.yul\":16729:16730   */\n      0x00\n        /* \"#utility.yul\":16722:16737   */\n      revert\n        /* \"#utility.yul\":16749:16982   */\n    tag_119:\n        /* \"#utility.yul\":16788:16791   */\n      0x00\n        /* \"#utility.yul\":16811:16835   */\n      tag_490\n        /* \"#utility.yul\":16829:16834   */\n      dup3\n        /* \"#utility.yul\":16811:16835   */\n      tag_285\n      jump\t// in\n    tag_490:\n        /* \"#utility.yul\":16802:16835   */\n      swap2\n      pop\n        /* \"#utility.yul\":16857:16923   */\n      0xffffffffffffffffffffffffffffffffffffffffffffffffffffffffffffffff\n        /* \"#utility.yul\":16850:16855   */\n      dup3\n        /* \"#utility.yul\":16847:16924   */\n      eq\n        /* \"#utility.yul\":16844:16947   */\n      iszero\n      tag_491\n      jumpi\n        /* \"#utility.yul\":16927:16945   */\n      tag_492\n      tag_308\n      jump\t// in\n    tag_492:\n        /* \"#utility.yul\":16844:16947   */\n    tag_491:\n        /* \"#utility.yul\":16974:16975   */\n      0x01\n        /* \"#utility.yul\":16967:16972   */\n      dup3\n        /* \"#utility.yul\":16963:16976   */\n      add\n        /* \"#utility.yul\":16956:16976   */\n      swap1\n      pop\n        /* \"#utility.yul\":16749:16982   */\n      swap2\n      swap1\n      pop\n      jump\t// out\n        /* \"#utility.yul\":16988:17168   */\n    tag_309:\n        /* \"#utility.yul\":17036:17113   */\n      0x4e487b7100000000000000000000000000000000000000000000000000000000\n        /* \"#utility.yul\":17033:17034   */\n      0x00\n        /* \"#utility.yul\":17026:17114   */\n      mstore\n        /* \"#utility.yul\":17133:17137   */\n      0x22\n        /* \"#utility.yul\":17130:17131   */\n      0x04\n        /* \"#utility.yul\":17123:17138   */\n      mstore\n        /* \"#utility.yul\":17157:17161   */\n      0x24\n        /* \"#utility.yul\":17154:17155   */\n      0x00\n        /* \"#utility.yul\":17147:17162   */\n      revert\n        /* \"#utility.yul\":17174:17494   */\n    tag_122:\n        /* \"#utility.yul\":17218:17224   */\n      0x00\n        /* \"#utility.yul\":17255:17256   */\n      0x02\n        /* \"#utility.yul\":17249:17253   */\n      dup3\n        /* \"#utility.yul\":17245:17257   */\n      div\n        /* \"#utility.yul\":17235:17257   */\n      swap1\n      pop\n        /* \"#utility.yul\":17302:17303   */\n      0x01\n        /* \"#utility.yul\":17296:17300   */\n      dup3\n        /* \"#utility.yul\":17292:17304   */\n      and\n        /* \"#utility.yul\":17323:17341   */\n      dup1\n        /* \"#utility.yul\":17313:17394   */\n      tag_495\n      jumpi\n        /* \"#utility.yul\":17379:17383   */\n      0x7f\n        /* \"#utility.yul\":17371:17377   */\n      dup3\n        /* \"#utility.yul\":17367:17384   */\n      and\n        /* \"#utility.yul\":17357:17384   */\n      swap2\n      pop\n        /* \"#utility.yul\":17313:17394   */\n    tag_495:\n        /* \"#utility.yul\":17441:17443   */\n      0x20\n        /* \"#utility.yul\":17433:17439   */\n      dup3\n        /* \"#utility.yul\":17430:17444   */\n      lt\n        /* \"#utility.yul\":17410:17428   */\n      dup2\n        /* \"#utility.yul\":17407:17445   */\n      eq\n        /* \"#utility.yul\":17404:17488   */\n      iszero\n      tag_496\n      jumpi\n        /* \"#utility.yul\":17460:17478   */\n      tag_497\n      tag_309\n      jump\t// in\n    tag_497:\n        /* \"#utility.yul\":17404:17488   */\n    tag_496:\n        /* \"#utility.yul\":17225:17494   */\n      pop\n        /* \"#utility.yul\":17174:17494   */\n      swap2\n      swap1\n      pop\n      jump\t// out\n        /* \"#utility.yul\":17500:17732   */\n    tag_310:\n        /* \"#utility.yul\":17640:17674   */\n      0x4f6e6c7920616e20616363657074656420617574686f722063616e2061707072\n        /* \"#utility.yul\":17636:17637   */\n      0x00\n        /* \"#utility.yul\":17628:17634   */\n      dup3\n        /* \"#utility.yul\":17624:17638   */\n      add\n        /* \"#utility.yul\":17617:17675   */\n      mstore\n        /* \"#utility.yul\":17709:17724   */\n      0x6f76652061207265717565737400000000000000000000000000000000000000\n        /* \"#utility.yul\":17704:17706   */\n      0x20\n        /* \"#utility.yul\":17696:17702   */\n      dup3\n        /* \"#utility.yul\":17692:17707   */\n      add\n        /* \"#utility.yul\":17685:17725   */\n      mstore\n        /* \"#utility.yul\":17500:17732   */\n      pop\n      jump\t// out\n        /* \"#utility.yul\":17738:18104   */\n    tag_311:\n        /* \"#utility.yul\":17880:17883   */\n      0x00\n        /* \"#utility.yul\":17901:17968   */\n      tag_500\n        /* \"#utility.yul\":17965:17967   */\n      0x2d\n        /* \"#utility.yul\":17960:17963   */\n      dup4\n        /* \"#utility.yul\":17901:17968   */\n      tag_274\n      jump\t// in\n    tag_500:\n        /* \"#utility.yul\":17894:17968   */\n      swap2\n      pop\n        /* \"#utility.yul\":17977:18070   */\n      tag_501\n        /* \"#utility.yul\":18066:18069   */\n      dup3\n        /* \"#utility.yul\":17977:18070   */\n      tag_310\n      jump\t// in\n    tag_501:\n        /* \"#utility.yul\":18095:18097   */\n      0x40\n        /* \"#utility.yul\":18090:18093   */\n      dup3\n        /* \"#utility.yul\":18086:18098   */\n      add\n        /* \"#utility.yul\":18079:18098   */\n      swap1\n      pop\n        /* \"#utility.yul\":17738:18104   */\n      swap2\n      swap1\n      pop\n      jump\t// out\n        /* \"#utility.yul\":18110:18529   */\n    tag_150:\n        /* \"#utility.yul\":18276:18280   */\n      0x00\n        /* \"#utility.yul\":18314:18316   */\n      0x20\n        /* \"#utility.yul\":18303:18312   */\n      dup3\n        /* \"#utility.yul\":18299:18317   */\n      add\n        /* \"#utility.yul\":18291:18317   */\n      swap1\n      pop\n        /* \"#utility.yul\":18363:18372   */\n      dup2\n        /* \"#utility.yul\":18357:18361   */\n      dup2\n        /* \"#utility.yul\":18353:18373   */\n      sub\n        /* \"#utility.yul\":18349:18350   */\n      0x00\n        /* \"#utility.yul\":18338:18347   */\n      dup4\n        /* \"#utility.yul\":18334:18351   */\n      add\n        /* \"#utility.yul\":18327:18374   */\n      mstore\n        /* \"#utility.yul\":18391:18522   */\n      tag_503\n        /* \"#utility.yul\":18517:18521   */\n      dup2\n        /* \"#utility.yul\":18391:18522   */\n      tag_311\n      jump\t// in\n    tag_503:\n        /* \"#utility.yul\":18383:18522   */\n      swap1\n      pop\n        /* \"#utility.yul\":18110:18529   */\n      swap2\n      swap1\n      pop\n      jump\t// out\n        /* \"#utility.yul\":18535:18704   */\n    tag_312:\n        /* \"#utility.yul\":18675:18696   */\n      0x496e646578206f7574206f6620626f756e647300000000000000000000000000\n        /* \"#utility.yul\":18671:18672   */\n      0x00\n        /* \"#utility.yul\":18663:18669   */\n      dup3\n        /* \"#utility.yul\":18659:18673   */\n      add\n        /* \"#utility.yul\":18652:18697   */\n      mstore\n        /* \"#utility.yul\":18535:18704   */\n      pop\n      jump\t// out\n        /* \"#utility.yul\":18710:19076   */\n    tag_313:\n        /* \"#utility.yul\":18852:18855   */\n      0x00\n        /* \"#utility.yul\":18873:18940   */\n      tag_506\n        /* \"#utility.yul\":18937:18939   */\n      0x13\n        /* \"#utility.yul\":18932:18935   */\n      dup4\n        /* \"#utility.yul\":18873:18940   */\n      tag_274\n      jump\t// in\n    tag_506:\n        /* \"#utility.yul\":18866:18940   */\n      swap2\n      pop\n        /* \"#utility.yul\":18949:19042   */\n      tag_507\n        /* \"#utility.yul\":19038:19041   */\n      dup3\n        /* \"#utility.yul\":18949:19042   */\n      tag_312\n      jump\t// in\n    tag_507:\n        /* \"#utility.yul\":19067:19069   */\n      0x20\n        /* \"#utility.yul\":19062:19065   */\n      dup3\n        /* \"#utility.yul\":19058:19070   */\n      add\n        /* \"#utility.yul\":19051:19070   */\n      swap1\n      pop\n        /* \"#utility.yul\":18710:19076   */\n      swap2\n      swap1\n      pop\n      jump\t// out\n        /* \"#utility.yul\":19082:19501   */\n    tag_154:\n        /* \"#utility.yul\":19248:19252   */\n      0x00\n        /* \"#utility.yul\":19286:19288   */\n      0x20\n        /* \"#utility.yul\":19275:19284   */\n      dup3\n        /* \"#utility.yul\":19271:19289   */\n      add\n        /* \"#utility.yul\":19263:19289   */\n      swap1\n      pop\n        /* \"#utility.yul\":19335:19344   */\n      dup2\n        /* \"#utility.yul\":19329:19333   */\n      dup2\n        /* \"#utility.yul\":19325:19345   */\n      sub\n        /* \"#utility.yul\":19321:19322   */\n      0x00\n        /* \"#utility.yul\":19310:19319   */\n      dup4\n        /* \"#utility.yul\":19306:19323   */\n      add\n        /* \"#utility.yul\":19299:19346   */\n      mstore\n        /* \"#utility.yul\":19363:19494   */\n      tag_509\n        /* \"#utility.yul\":19489:19493   */\n      dup2\n        /* \"#utility.yul\":19363:19494   */\n      tag_313\n      jump\t// in\n    tag_509:\n        /* \"#utility.yul\":19355:19494   */\n      swap1\n      pop\n        /* \"#utility.yul\":19082:19501   */\n      swap2\n      swap1\n      pop\n      jump\t// out\n        /* \"#utility.yul\":19507:19729   */\n    tag_314:\n        /* \"#utility.yul\":19647:19681   */\n      0x5468697320617574686f7220616c726561647920617070726f76656420626566\n        /* \"#utility.yul\":19643:19644   */\n      0x00\n        /* \"#utility.yul\":19635:19641   */\n      dup3\n        /* \"#utility.yul\":19631:19645   */\n      add\n        /* \"#utility.yul\":19624:19682   */\n      mstore\n        /* \"#utility.yul\":19716:19721   */\n      0x6f72650000000000000000000000000000000000000000000000000000000000\n        /* \"#utility.yul\":19711:19713   */\n      0x20\n        /* \"#utility.yul\":19703:19709   */\n      dup3\n        /* \"#utility.yul\":19699:19714   */\n      add\n        /* \"#utility.yul\":19692:19722   */\n      mstore\n        /* \"#utility.yul\":19507:19729   */\n      pop\n      jump\t// out\n        /* \"#utility.yul\":19735:20101   */\n    tag_315:\n        /* \"#utility.yul\":19877:19880   */\n      0x00\n        /* \"#utility.yul\":19898:19965   */\n      tag_512\n        /* \"#utility.yul\":19962:19964   */\n      0x23\n        /* \"#utility.yul\":19957:19960   */\n      dup4\n        /* \"#utility.yul\":19898:19965   */\n      tag_274\n      jump\t// in\n    tag_512:\n        /* \"#utility.yul\":19891:19965   */\n      swap2\n      pop\n        /* \"#utility.yul\":19974:20067   */\n      tag_513\n        /* \"#utility.yul\":20063:20066   */\n      dup3\n        /* \"#utility.yul\":19974:20067   */\n      tag_314\n      jump\t// in\n    tag_513:\n        /* \"#utility.yul\":20092:20094   */\n      0x40\n        /* \"#utility.yul\":20087:20090   */\n      dup3\n        /* \"#utility.yul\":20083:20095   */\n      add\n        /* \"#utility.yul\":20076:20095   */\n      swap1\n      pop\n        /* \"#utility.yul\":19735:20101   */\n      swap2\n      swap1\n      pop\n      jump\t// out\n        /* \"#utility.yul\":20107:20526   */\n    tag_160:\n        /* \"#utility.yul\":20273:20277   */\n      0x00\n        /* \"#utility.yul\":20311:20313   */\n      0x20\n        /* \"#utility.yul\":20300:20309   */\n      dup3\n        /* \"#utility.yul\":20296:20314   */\n      add\n        /* \"#utility.yul\":20288:20314   */\n      swap1\n      pop\n        /* \"#utility.yul\":20360:20369   */\n      dup2\n        /* \"#utility.yul\":20354:20358   */\n      dup2\n        /* \"#utility.yul\":20350:20370   */\n      sub\n        /* \"#utility.yul\":20346:20347   */\n      0x00\n        /* \"#utility.yul\":20335:20344   */\n      dup4\n        /* \"#utility.yul\":20331:20348   */\n      add\n        /* \"#utility.yul\":20324:20371   */\n      mstore\n        /* \"#utility.yul\":20388:20519   */\n      tag_515\n        /* \"#utility.yul\":20514:20518   */\n      dup2\n        /* \"#utility.yul\":20388:20519   */\n      tag_315\n      jump\t// in\n    tag_515:\n        /* \"#utility.yul\":20380:20519   */\n      swap1\n      pop\n        /* \"#utility.yul\":20107:20526   */\n      swap2\n      swap1\n      pop\n      jump\t// out\n        /* \"#utility.yul\":20532:20712   */\n    tag_316:\n        /* \"#utility.yul\":20580:20657   */\n      0x4e487b7100000000000000000000000000000000000000000000000000000000\n        /* \"#utility.yul\":20577:20578   */\n      0x00\n        /* \"#utility.yul\":20570:20658   */\n      mstore\n        /* \"#utility.yul\":20677:20681   */\n      0x12\n        /* \"#utility.yul\":20674:20675   */\n      0x04\n        /* \"#utility.yul\":20667:20682   */\n      mstore\n        /* \"#utility.yul\":20701:20705   */\n      0x24\n        /* \"#utility.yul\":20698:20699   */\n      0x00\n        /* \"#utility.yul\":20691:20706   */\n      revert\n        /* \"#utility.yul\":20718:20903   */\n    tag_163:\n        /* \"#utility.yul\":20758:20759   */\n      0x00\n        /* \"#utility.yul\":20775:20795   */\n      tag_518\n        /* \"#utility.yul\":20793:20794   */\n      dup3\n        /* \"#utility.yul\":20775:20795   */\n      tag_285\n      jump\t// in\n    tag_518:\n        /* \"#utility.yul\":20770:20795   */\n      swap2\n      pop\n        /* \"#utility.yul\":20809:20829   */\n      tag_519\n        /* \"#utility.yul\":20827:20828   */\n      dup4\n        /* \"#utility.yul\":20809:20829   */\n      tag_285\n      jump\t// in\n    tag_519:\n        /* \"#utility.yul\":20804:20829   */\n      swap3\n      pop\n        /* \"#utility.yul\":20848:20849   */\n      dup3\n        /* \"#utility.yul\":20838:20873   */\n      tag_520\n      jumpi\n        /* \"#utility.yul\":20853:20871   */\n      tag_521\n      tag_316\n      jump\t// in\n    tag_521:\n        /* \"#utility.yul\":20838:20873   */\n    tag_520:\n        /* \"#utility.yul\":20895:20896   */\n      dup3\n        /* \"#utility.yul\":20892:20893   */\n      dup3\n        /* \"#utility.yul\":20888:20897   */\n      div\n        /* \"#utility.yul\":20883:20897   */\n      swap1\n      pop\n        /* \"#utility.yul\":20718:20903   */\n      swap3\n      swap2\n      pop\n      pop\n      jump\t// out\n        /* \"#utility.yul\":20909:21140   */\n    tag_317:\n        /* \"#utility.yul\":21049:21083   */\n      0x4f6e6c7920616e20616363657074656420617574686f722063616e2063726561\n        /* \"#utility.yul\":21045:21046   */\n      0x00\n        /* \"#utility.yul\":21037:21043   */\n      dup3\n        /* \"#utility.yul\":21033:21047   */\n      add\n        /* \"#utility.yul\":21026:21084   */\n      mstore\n        /* \"#utility.yul\":21118:21132   */\n      0x7465206120636861707465720000000000000000000000000000000000000000\n        /* \"#utility.yul\":21113:21115   */\n      0x20\n        /* \"#utility.yul\":21105:21111   */\n      dup3\n        /* \"#utility.yul\":21101:21116   */\n      add\n        /* \"#utility.yul\":21094:21133   */\n      mstore\n        /* \"#utility.yul\":20909:21140   */\n      pop\n      jump\t// out\n        /* \"#utility.yul\":21146:21512   */\n    tag_318:\n        /* \"#utility.yul\":21288:21291   */\n      0x00\n        /* \"#utility.yul\":21309:21376   */\n      tag_524\n        /* \"#utility.yul\":21373:21375   */\n      0x2c\n        /* \"#utility.yul\":21368:21371   */\n      dup4\n        /* \"#utility.yul\":21309:21376   */\n      tag_274\n      jump\t// in\n    tag_524:\n        /* \"#utility.yul\":21302:21376   */\n      swap2\n      pop\n        /* \"#utility.yul\":21385:21478   */\n      tag_525\n        /* \"#utility.yul\":21474:21477   */\n      dup3\n        /* \"#utility.yul\":21385:21478   */\n      tag_317\n      jump\t// in\n    tag_525:\n        /* \"#utility.yul\":21503:21505   */\n      0x40\n        /* \"#utility.yul\":21498:21501   */\n      dup3\n        /* \"#utility.yul\":21494:21506   */\n      add\n        /* \"#utility.yul\":21487:21506   */\n      swap1\n      pop\n        /* \"#utility.yul\":21146:21512   */\n      swap2\n      swap1\n      pop\n      jump\t// out\n        /* \"#utility.yul\":21518:21937   */\n    tag_174:\n        /* \"#utility.yul\":21684:21688   */\n      0x00\n        /* \"#utility.yul\":21722:21724   */\n      0x20\n        /* \"#utility.yul\":21711:21720   */\n      dup3\n        /* \"#utility.yul\":21707:21725   */\n      add\n        /* \"#utility.yul\":21699:21725   */\n      swap1\n      pop\n        /* \"#utility.yul\":21771:21780   */\n      dup2\n        /* \"#utility.yul\":21765:21769   */\n      dup2\n        /* \"#utility.yul\":21761:21781   */\n      sub\n        /* \"#utility.yul\":21757:21758   */\n      0x00\n        /* \"#utility.yul\":21746:21755   */\n      dup4\n        /* \"#utility.yul\":21742:21759   */\n      add\n        /* \"#utility.yul\":21735:21782   */\n      mstore\n        /* \"#utility.yul\":21799:21930   */\n      tag_527\n        /* \"#utility.yul\":21925:21929   */\n      dup2\n        /* \"#utility.yul\":21799:21930   */\n      tag_318\n      jump\t// in\n    tag_527:\n        /* \"#utility.yul\":21791:21930   */\n      swap1\n      pop\n        /* \"#utility.yul\":21518:21937   */\n      swap2\n      swap1\n      pop\n      jump\t// out\n        /* \"#utility.yul\":21943:22163   */\n    tag_319:\n        /* \"#utility.yul\":22083:22117   */\n      0x506172656e742063686170746572206d757374206265206120636f6e74726163\n        /* \"#utility.yul\":22079:22080   */\n      0x00\n        /* \"#utility.yul\":22071:22077   */\n      dup3\n        /* \"#utility.yul\":22067:22081   */\n      add\n        /* \"#utility.yul\":22060:22118   */\n      mstore\n        /* \"#utility.yul\":22152:22155   */\n      0x7400000000000000000000000000000000000000000000000000000000000000\n        /* \"#utility.yul\":22147:22149   */\n      0x20\n        /* \"#utility.yul\":22139:22145   */\n      dup3\n        /* \"#utility.yul\":22135:22150   */\n      add\n        /* \"#utility.yul\":22128:22156   */\n      mstore\n        /* \"#utility.yul\":21943:22163   */\n      pop\n      jump\t// out\n        /* \"#utility.yul\":22169:22535   */\n    tag_320:\n        /* \"#utility.yul\":22311:22314   */\n      0x00\n        /* \"#utility.yul\":22332:22399   */\n      tag_530\n        /* \"#utility.yul\":22396:22398   */\n      0x21\n        /* \"#utility.yul\":22391:22394   */\n      dup4\n        /* \"#utility.yul\":22332:22399   */\n      tag_274\n      jump\t// in\n    tag_530:\n        /* \"#utility.yul\":22325:22399   */\n      swap2\n      pop\n        /* \"#utility.yul\":22408:22501   */\n      tag_531\n        /* \"#utility.yul\":22497:22500   */\n      dup3\n        /* \"#utility.yul\":22408:22501   */\n      tag_319\n      jump\t// in\n    tag_531:\n        /* \"#utility.yul\":22526:22528   */\n      0x40\n        /* \"#utility.yul\":22521:22524   */\n      dup3\n        /* \"#utility.yul\":22517:22529   */\n      add\n        /* \"#utility.yul\":22510:22529   */\n      swap1\n      pop\n        /* \"#utility.yul\":22169:22535   */\n      swap2\n      swap1\n      pop\n      jump\t// out\n        /* \"#utility.yul\":22541:22960   */\n    tag_179:\n        /* \"#utility.yul\":22707:22711   */\n      0x00\n        /* \"#utility.yul\":22745:22747   */\n      0x20\n        /* \"#utility.yul\":22734:22743   */\n      dup3\n        /* \"#utility.yul\":22730:22748   */\n      add\n        /* \"#utility.yul\":22722:22748   */\n      swap1\n      pop\n        /* \"#utility.yul\":22794:22803   */\n      dup2\n        /* \"#utility.yul\":22788:22792   */\n      dup2\n        /* \"#utility.yul\":22784:22804   */\n      sub\n        /* \"#utility.yul\":22780:22781   */\n      0x00\n        /* \"#utility.yul\":22769:22778   */\n      dup4\n        /* \"#utility.yul\":22765:22782   */\n      add\n        /* \"#utility.yul\":22758:22805   */\n      mstore\n        /* \"#utility.yul\":22822:22953   */\n      tag_533\n        /* \"#utility.yul\":22948:22952   */\n      dup2\n        /* \"#utility.yul\":22822:22953   */\n      tag_320\n      jump\t// in\n    tag_533:\n        /* \"#utility.yul\":22814:22953   */\n      swap1\n      pop\n        /* \"#utility.yul\":22541:22960   */\n      swap2\n      swap1\n      pop\n      jump\t// out\n        /* \"#utility.yul\":22966:23148   */\n    tag_321:\n        /* \"#utility.yul\":23106:23140   */\n      0x4368696c642063686170746572206d757374206265206120636f6e7472616374\n        /* \"#utility.yul\":23102:23103   */\n      0x00\n        /* \"#utility.yul\":23094:23100   */\n      dup3\n        /* \"#utility.yul\":23090:23104   */\n      add\n        /* \"#utility.yul\":23083:23141   */\n      mstore\n        /* \"#utility.yul\":22966:23148   */\n      pop\n      jump\t// out\n        /* \"#utility.yul\":23154:23520   */\n    tag_322:\n        /* \"#utility.yul\":23296:23299   */\n      0x00\n        /* \"#utility.yul\":23317:23384   */\n      tag_536\n        /* \"#utility.yul\":23381:23383   */\n      0x20\n        /* \"#utility.yul\":23376:23379   */\n      dup4\n        /* \"#utility.yul\":23317:23384   */\n      tag_274\n      jump\t// in\n    tag_536:\n        /* \"#utility.yul\":23310:23384   */\n      swap2\n      pop\n        /* \"#utility.yul\":23393:23486   */\n      tag_537\n        /* \"#utility.yul\":23482:23485   */\n      dup3\n        /* \"#utility.yul\":23393:23486   */\n      tag_321\n      jump\t// in\n    tag_537:\n        /* \"#utility.yul\":23511:23513   */\n      0x20\n        /* \"#utility.yul\":23506:23509   */\n      dup3\n        /* \"#utility.yul\":23502:23514   */\n      add\n        /* \"#utility.yul\":23495:23514   */\n      swap1\n      pop\n        /* \"#utility.yul\":23154:23520   */\n      swap2\n      swap1\n      pop\n      jump\t// out\n        /* \"#utility.yul\":23526:23945   */\n    tag_183:\n        /* \"#utility.yul\":23692:23696   */\n      0x00\n        /* \"#utility.yul\":23730:23732   */\n      0x20\n        /* \"#utility.yul\":23719:23728   */\n      dup3\n        /* \"#utility.yul\":23715:23733   */\n      add\n        /* \"#utility.yul\":23707:23733   */\n      swap1\n      pop\n        /* \"#utility.yul\":23779:23788   */\n      dup2\n        /* \"#utility.yul\":23773:23777   */\n      dup2\n        /* \"#utility.yul\":23769:23789   */\n      sub\n        /* \"#utility.yul\":23765:23766   */\n      0x00\n        /* \"#utility.yul\":23754:23763   */\n      dup4\n        /* \"#utility.yul\":23750:23767   */\n      add\n        /* \"#utility.yul\":23743:23790   */\n      mstore\n        /* \"#utility.yul\":23807:23938   */\n      tag_539\n        /* \"#utility.yul\":23933:23937   */\n      dup2\n        /* \"#utility.yul\":23807:23938   */\n      tag_322\n      jump\t// in\n    tag_539:\n        /* \"#utility.yul\":23799:23938   */\n      swap1\n      pop\n        /* \"#utility.yul\":23526:23945   */\n      swap2\n      swap1\n      pop\n      jump\t// out\n        /* \"#utility.yul\":23951:24182   */\n    tag_323:\n        /* \"#utility.yul\":24091:24125   */\n      0x506172656e742063686170746572206d7573742062656c6f6e6720746f207468\n        /* \"#utility.yul\":24087:24088   */\n      0x00\n        /* \"#utility.yul\":24079:24085   */\n      dup3\n        /* \"#utility.yul\":24075:24089   */\n      add\n        /* \"#utility.yul\":24068:24126   */\n      mstore\n        /* \"#utility.yul\":24160:24174   */\n      0x652073616d652073746f72790000000000000000000000000000000000000000\n        /* \"#utility.yul\":24155:24157   */\n      0x20\n        /* \"#utility.yul\":24147:24153   */\n      dup3\n        /* \"#utility.yul\":24143:24158   */\n      add\n        /* \"#utility.yul\":24136:24175   */\n      mstore\n        /* \"#utility.yul\":23951:24182   */\n      pop\n      jump\t// out\n        /* \"#utility.yul\":24188:24554   */\n    tag_324:\n        /* \"#utility.yul\":24330:24333   */\n      0x00\n        /* \"#utility.yul\":24351:24418   */\n      tag_542\n        /* \"#utility.yul\":24415:24417   */\n      0x2c\n        /* \"#utility.yul\":24410:24413   */\n      dup4\n        /* \"#utility.yul\":24351:24418   */\n      tag_274\n      jump\t// in\n    tag_542:\n        /* \"#utility.yul\":24344:24418   */\n      swap2\n      pop\n        /* \"#utility.yul\":24427:24520   */\n      tag_543\n        /* \"#utility.yul\":24516:24519   */\n      dup3\n        /* \"#utility.yul\":24427:24520   */\n      tag_323\n      jump\t// in\n    tag_543:\n        /* \"#utility.yul\":24545:24547   */\n      0x40\n        /* \"#utility.yul\":24540:24543   */\n      dup3\n        /* \"#utility.yul\":24536:24548   */\n      add\n        /* \"#utility.yul\":24529:24548   */\n      swap1\n      pop\n        /* \"#utility.yul\":24188:24554   */\n      swap2\n      swap1\n      pop\n      jump\t// out\n        /* \"#utility.yul\":24560:24979   */\n    tag_188:\n        /* \"#utility.yul\":24726:24730   */\n      0x00\n        /* \"#utility.yul\":24764:24766   */\n      0x20\n        /* \"#utility.yul\":24753:24762   */\n      dup3\n        /* \"#utility.yul\":24749:24767   */\n      add\n        /* \"#utility.yul\":24741:24767   */\n      swap1\n      pop\n        /* \"#utility.yul\":24813:24822   */\n      dup2\n        /* \"#utility.yul\":24807:24811   */\n      dup2\n        /* \"#utility.yul\":24803:24823   */\n      sub\n        /* \"#utility.yul\":24799:24800   */\n      0x00\n        /* \"#utility.yul\":24788:24797   */\n      dup4\n        /* \"#utility.yul\":24784:24801   */\n      add\n        /* \"#utility.yul\":24777:24824   */\n      mstore\n        /* \"#utility.yul\":24841:24972   */\n      tag_545\n        /* \"#utility.yul\":24967:24971   */\n      dup2\n        /* \"#utility.yul\":24841:24972   */\n      tag_324\n      jump\t// in\n    tag_545:\n        /* \"#utility.yul\":24833:24972   */\n      swap1\n      pop\n        /* \"#utility.yul\":24560:24979   */\n      swap2\n      swap1\n      pop\n      jump\t// out\n        /* \"#utility.yul\":24985:25215   */\n    tag_325:\n        /* \"#utility.yul\":25125:25159   */\n      0x4368696c642063686170746572206d7573742062656c6f6e6720746f20746865\n        /* \"#utility.yul\":25121:25122   */\n      0x00\n        /* \"#utility.yul\":25113:25119   */\n      dup3\n        /* \"#utility.yul\":25109:25123   */\n      add\n        /* \"#utility.yul\":25102:25160   */\n      mstore\n        /* \"#utility.yul\":25194:25207   */\n      0x2073616d652073746f7279000000000000000000000000000000000000000000\n        /* \"#utility.yul\":25189:25191   */\n      0x20\n        /* \"#utility.yul\":25181:25187   */\n      dup3\n        /* \"#utility.yul\":25177:25192   */\n      add\n        /* \"#utility.yul\":25170:25208   */\n      mstore\n        /* \"#utility.yul\":24985:25215   */\n      pop\n      jump\t// out\n        /* \"#utility.yul\":25221:25587   */\n    tag_326:\n        /* \"#utility.yul\":25363:25366   */\n      0x00\n        /* \"#utility.yul\":25384:25451   */\n      tag_548\n        /* \"#utility.yul\":25448:25450   */\n      0x2b\n        /* \"#utility.yul\":25443:25446   */\n      dup4\n        /* \"#utility.yul\":25384:25451   */\n      tag_274\n      jump\t// in\n    tag_548:\n        /* \"#utility.yul\":25377:25451   */\n      swap2\n      pop\n        /* \"#utility.yul\":25460:25553   */\n      tag_549\n        /* \"#utility.yul\":25549:25552   */\n      dup3\n        /* \"#utility.yul\":25460:25553   */\n      tag_325\n      jump\t// in\n    tag_549:\n        /* \"#utility.yul\":25578:25580   */\n      0x40\n        /* \"#utility.yul\":25573:25576   */\n      dup3\n        /* \"#utility.yul\":25569:25581   */\n      add\n        /* \"#utility.yul\":25562:25581   */\n      swap1\n      pop\n        /* \"#utility.yul\":25221:25587   */\n      swap2\n      swap1\n      pop\n      jump\t// out\n        /* \"#utility.yul\":25593:26012   */\n    tag_193:\n        /* \"#utility.yul\":25759:25763   */\n      0x00\n        /* \"#utility.yul\":25797:25799   */\n      0x20\n        /* \"#utility.yul\":25786:25795   */\n      dup3\n        /* \"#utility.yul\":25782:25800   */\n      add\n        /* \"#utility.yul\":25774:25800   */\n      swap1\n      pop\n        /* \"#utility.yul\":25846:25855   */\n      dup2\n        /* \"#utility.yul\":25840:25844   */\n      dup2\n        /* \"#utility.yul\":25836:25856   */\n      sub\n        /* \"#utility.yul\":25832:25833   */\n      0x00\n        /* \"#utility.yul\":25821:25830   */\n      dup4\n        /* \"#utility.yul\":25817:25834   */\n      add\n        /* \"#utility.yul\":25810:25857   */\n      mstore\n        /* \"#utility.yul\":25874:26005   */\n      tag_551\n        /* \"#utility.yul\":26000:26004   */\n      dup2\n        /* \"#utility.yul\":25874:26005   */\n      tag_326\n      jump\t// in\n    tag_551:\n        /* \"#utility.yul\":25866:26005   */\n      swap1\n      pop\n        /* \"#utility.yul\":25593:26012   */\n      swap2\n      swap1\n      pop\n      jump\t// out\n        /* \"#utility.yul\":26018:26975   */\n    tag_197:\n        /* \"#utility.yul\":26291:26295   */\n      0x00\n        /* \"#utility.yul\":26329:26332   */\n      0xc0\n        /* \"#utility.yul\":26318:26327   */\n      dup3\n        /* \"#utility.yul\":26314:26333   */\n      add\n        /* \"#utility.yul\":26306:26333   */\n      swap1\n      pop\n        /* \"#utility.yul\":26343:26414   */\n      tag_553\n        /* \"#utility.yul\":26411:26412   */\n      0x00\n        /* \"#utility.yul\":26400:26409   */\n      dup4\n        /* \"#utility.yul\":26396:26413   */\n      add\n        /* \"#utility.yul\":26387:26393   */\n      dup10\n        /* \"#utility.yul\":26343:26414   */\n      tag_272\n      jump\t// in\n    tag_553:\n        /* \"#utility.yul\":26424:26496   */\n      tag_554\n        /* \"#utility.yul\":26492:26494   */\n      0x20\n        /* \"#utility.yul\":26481:26490   */\n      dup4\n        /* \"#utility.yul\":26477:26495   */\n      add\n        /* \"#utility.yul\":26468:26474   */\n      dup9\n        /* \"#utility.yul\":26424:26496   */\n      tag_272\n      jump\t// in\n    tag_554:\n        /* \"#utility.yul\":26543:26552   */\n      dup2\n        /* \"#utility.yul\":26537:26541   */\n      dup2\n        /* \"#utility.yul\":26533:26553   */\n      sub\n        /* \"#utility.yul\":26528:26530   */\n      0x40\n        /* \"#utility.yul\":26517:26526   */\n      dup4\n        /* \"#utility.yul\":26513:26531   */\n      add\n        /* \"#utility.yul\":26506:26554   */\n      mstore\n        /* \"#utility.yul\":26571:26649   */\n      tag_555\n        /* \"#utility.yul\":26644:26648   */\n      dup2\n        /* \"#utility.yul\":26635:26641   */\n      dup8\n        /* \"#utility.yul\":26571:26649   */\n      tag_277\n      jump\t// in\n    tag_555:\n        /* \"#utility.yul\":26563:26649   */\n      swap1\n      pop\n        /* \"#utility.yul\":26696:26705   */\n      dup2\n        /* \"#utility.yul\":26690:26694   */\n      dup2\n        /* \"#utility.yul\":26686:26706   */\n      sub\n        /* \"#utility.yul\":26681:26683   */\n      0x60\n        /* \"#utility.yul\":26670:26679   */\n      dup4\n        /* \"#utility.yul\":26666:26684   */\n      add\n        /* \"#utility.yul\":26659:26707   */\n      mstore\n        /* \"#utility.yul\":26724:26802   */\n      tag_556\n        /* \"#utility.yul\":26797:26801   */\n      dup2\n        /* \"#utility.yul\":26788:26794   */\n      dup7\n        /* \"#utility.yul\":26724:26802   */\n      tag_277\n      jump\t// in\n    tag_556:\n        /* \"#utility.yul\":26716:26802   */\n      swap1\n      pop\n        /* \"#utility.yul\":26812:26885   */\n      tag_557\n        /* \"#utility.yul\":26880:26883   */\n      0x80\n        /* \"#utility.yul\":26869:26878   */\n      dup4\n        /* \"#utility.yul\":26865:26884   */\n      add\n        /* \"#utility.yul\":26856:26862   */\n      dup6\n        /* \"#utility.yul\":26812:26885   */\n      tag_272\n      jump\t// in\n    tag_557:\n        /* \"#utility.yul\":26895:26968   */\n      tag_558\n        /* \"#utility.yul\":26963:26966   */\n      0xa0\n        /* \"#utility.yul\":26952:26961   */\n      dup4\n        /* \"#utility.yul\":26948:26967   */\n      add\n        /* \"#utility.yul\":26939:26945   */\n      dup5\n        /* \"#utility.yul\":26895:26968   */\n      tag_272\n      jump\t// in\n    tag_558:\n        /* \"#utility.yul\":26018:26975   */\n      swap8\n      swap7\n      pop\n      pop\n      pop\n      pop\n      pop\n      pop\n      pop\n      jump\t// out\n        /* \"#utility.yul\":26981:27162   */\n    tag_327:\n        /* \"#utility.yul\":27121:27154   */\n      0x4d696e696d756d20636f6e747269627574696f6e206973203130302057656900\n        /* \"#utility.yul\":27117:27118   */\n      0x00\n        /* \"#utility.yul\":27109:27115   */\n      dup3\n        /* \"#utility.yul\":27105:27119   */\n      add\n        /* \"#utility.yul\":27098:27155   */\n      mstore\n        /* \"#utility.yul\":26981:27162   */\n      pop\n      jump\t// out\n        /* \"#utility.yul\":27168:27534   */\n    tag_328:\n        /* \"#utility.yul\":27310:27313   */\n      0x00\n        /* \"#utility.yul\":27331:27398   */\n      tag_561\n        /* \"#utility.yul\":27395:27397   */\n      0x1f\n        /* \"#utility.yul\":27390:27393   */\n      dup4\n        /* \"#utility.yul\":27331:27398   */\n      tag_274\n      jump\t// in\n    tag_561:\n        /* \"#utility.yul\":27324:27398   */\n      swap2\n      pop\n        /* \"#utility.yul\":27407:27500   */\n      tag_562\n        /* \"#utility.yul\":27496:27499   */\n      dup3\n        /* \"#utility.yul\":27407:27500   */\n      tag_327\n      jump\t// in\n    tag_562:\n        /* \"#utility.yul\":27525:27527   */\n      0x20\n        /* \"#utility.yul\":27520:27523   */\n      dup3\n        /* \"#utility.yul\":27516:27528   */\n      add\n        /* \"#utility.yul\":27509:27528   */\n      swap1\n      pop\n        /* \"#utility.yul\":27168:27534   */\n      swap2\n      swap1\n      pop\n      jump\t// out\n        /* \"#utility.yul\":27540:27959   */\n    tag_223:\n        /* \"#utility.yul\":27706:27710   */\n      0x00\n        /* \"#utility.yul\":27744:27746   */\n      0x20\n        /* \"#utility.yul\":27733:27742   */\n      dup3\n        /* \"#utility.yul\":27729:27747   */\n      add\n        /* \"#utility.yul\":27721:27747   */\n      swap1\n      pop\n        /* \"#utility.yul\":27793:27802   */\n      dup2\n        /* \"#utility.yul\":27787:27791   */\n      dup2\n        /* \"#utility.yul\":27783:27803   */\n      sub\n        /* \"#utility.yul\":27779:27780   */\n      0x00\n        /* \"#utility.yul\":27768:27777   */\n      dup4\n        /* \"#utility.yul\":27764:27781   */\n      add\n        /* \"#utility.yul\":27757:27804   */\n      mstore\n        /* \"#utility.yul\":27821:27952   */\n      tag_564\n        /* \"#utility.yul\":27947:27951   */\n      dup2\n        /* \"#utility.yul\":27821:27952   */\n      tag_328\n      jump\t// in\n    tag_564:\n        /* \"#utility.yul\":27813:27952   */\n      swap1\n      pop\n        /* \"#utility.yul\":27540:27959   */\n      swap2\n      swap1\n      pop\n      jump\t// out\n        /* \"#utility.yul\":27965:28196   */\n    tag_329:\n        /* \"#utility.yul\":28105:28139   */\n      0x417574686f7220616c72656164792065786973747320696e20746865206c6973\n        /* \"#utility.yul\":28101:28102   */\n      0x00\n        /* \"#utility.yul\":28093:28099   */\n      dup3\n        /* \"#utility.yul\":28089:28103   */\n      add\n        /* \"#utility.yul\":28082:28140   */\n      mstore\n        /* \"#utility.yul\":28174:28188   */\n      0x74206f6620617574686f72730000000000000000000000000000000000000000\n        /* \"#utility.yul\":28169:28171   */\n      0x20\n        /* \"#utility.yul\":28161:28167   */\n      dup3\n        /* \"#utility.yul\":28157:28172   */\n      add\n        /* \"#utility.yul\":28150:28189   */\n      mstore\n        /* \"#utility.yul\":27965:28196   */\n      pop\n      jump\t// out\n        /* \"#utility.yul\":28202:28568   */\n    tag_330:\n        /* \"#utility.yul\":28344:28347   */\n      0x00\n        /* \"#utility.yul\":28365:28432   */\n      tag_567\n        /* \"#utility.yul\":28429:28431   */\n      0x2c\n        /* \"#utility.yul\":28424:28427   */\n      dup4\n        /* \"#utility.yul\":28365:28432   */\n      tag_274\n      jump\t// in\n    tag_567:\n        /* \"#utility.yul\":28358:28432   */\n      swap2\n      pop\n        /* \"#utility.yul\":28441:28534   */\n      tag_568\n        /* \"#utility.yul\":28530:28533   */\n      dup3\n        /* \"#utility.yul\":28441:28534   */\n      tag_329\n      jump\t// in\n    tag_568:\n        /* \"#utility.yul\":28559:28561   */\n      0x40\n        /* \"#utility.yul\":28554:28557   */\n      dup3\n        /* \"#utility.yul\":28550:28562   */\n      add\n        /* \"#utility.yul\":28543:28562   */\n      swap1\n      pop\n        /* \"#utility.yul\":28202:28568   */\n      swap2\n      swap1\n      pop\n      jump\t// out\n        /* \"#utility.yul\":28574:28993   */\n    tag_232:\n        /* \"#utility.yul\":28740:28744   */\n      0x00\n        /* \"#utility.yul\":28778:28780   */\n      0x20\n        /* \"#utility.yul\":28767:28776   */\n      dup3\n        /* \"#utility.yul\":28763:28781   */\n      add\n        /* \"#utility.yul\":28755:28781   */\n      swap1\n      pop\n        /* \"#utility.yul\":28827:28836   */\n      dup2\n        /* \"#utility.yul\":28821:28825   */\n      dup2\n        /* \"#utility.yul\":28817:28837   */\n      sub\n        /* \"#utility.yul\":28813:28814   */\n      0x00\n        /* \"#utility.yul\":28802:28811   */\n      dup4\n        /* \"#utility.yul\":28798:28815   */\n      add\n        /* \"#utility.yul\":28791:28838   */\n      mstore\n        /* \"#utility.yul\":28855:28986   */\n      tag_570\n        /* \"#utility.yul\":28981:28985   */\n      dup2\n        /* \"#utility.yul\":28855:28986   */\n      tag_330\n      jump\t// in\n    tag_570:\n        /* \"#utility.yul\":28847:28986   */\n      swap1\n      pop\n        /* \"#utility.yul\":28574:28993   */\n      swap2\n      swap1\n      pop\n      jump\t// out\n        /* \"#utility.yul\":28999:29304   */\n    tag_238:\n        /* \"#utility.yul\":29039:29042   */\n      0x00\n        /* \"#utility.yul\":29058:29078   */\n      tag_572\n        /* \"#utility.yul\":29076:29077   */\n      dup3\n        /* \"#utility.yul\":29058:29078   */\n      tag_285\n      jump\t// in\n    tag_572:\n        /* \"#utility.yul\":29053:29078   */\n      swap2\n      pop\n        /* \"#utility.yul\":29092:29112   */\n      tag_573\n        /* \"#utility.yul\":29110:29111   */\n      dup4\n        /* \"#utility.yul\":29092:29112   */\n      tag_285\n      jump\t// in\n    tag_573:\n        /* \"#utility.yul\":29087:29112   */\n      swap3\n      pop\n        /* \"#utility.yul\":29246:29247   */\n      dup3\n        /* \"#utility.yul\":29178:29244   */\n      0xffffffffffffffffffffffffffffffffffffffffffffffffffffffffffffffff\n        /* \"#utility.yul\":29174:29248   */\n      sub\n        /* \"#utility.yul\":29171:29172   */\n      dup3\n        /* \"#utility.yul\":29168:29249   */\n      gt\n        /* \"#utility.yul\":29165:29272   */\n      iszero\n      tag_574\n      jumpi\n        /* \"#utility.yul\":29252:29270   */\n      tag_575\n      tag_308\n      jump\t// in\n    tag_575:\n        /* \"#utility.yul\":29165:29272   */\n    tag_574:\n        /* \"#utility.yul\":29296:29297   */\n      dup3\n        /* \"#utility.yul\":29293:29294   */\n      dup3\n        /* \"#utility.yul\":29289:29298   */\n      add\n        /* \"#utility.yul\":29282:29298   */\n      swap1\n      pop\n        /* \"#utility.yul\":28999:29304   */\n      swap3\n      swap2\n      pop\n      pop\n      jump\t// out\n        /* \"#utility.yul\":29310:29487   */\n    tag_331:\n        /* \"#utility.yul\":29450:29479   */\n      0x536166654d6174683a206164646974696f6e206f766572666c6f770000000000\n        /* \"#utility.yul\":29446:29447   */\n      0x00\n        /* \"#utility.yul\":29438:29444   */\n      dup3\n        /* \"#utility.yul\":29434:29448   */\n      add\n        /* \"#utility.yul\":29427:29480   */\n      mstore\n        /* \"#utility.yul\":29310:29487   */\n      pop\n      jump\t// out\n        /* \"#utility.yul\":29493:29859   */\n    tag_332:\n        /* \"#utility.yul\":29635:29638   */\n      0x00\n        /* \"#utility.yul\":29656:29723   */\n      tag_578\n        /* \"#utility.yul\":29720:29722   */\n      0x1b\n        /* \"#utility.yul\":29715:29718   */\n      dup4\n        /* \"#utility.yul\":29656:29723   */\n      tag_274\n      jump\t// in\n    tag_578:\n        /* \"#utility.yul\":29649:29723   */\n      swap2\n      pop\n        /* \"#utility.yul\":29732:29825   */\n      tag_579\n        /* \"#utility.yul\":29821:29824   */\n      dup3\n        /* \"#utility.yul\":29732:29825   */\n      tag_331\n      jump\t// in\n    tag_579:\n        /* \"#utility.yul\":29850:29852   */\n      0x20\n        /* \"#utility.yul\":29845:29848   */\n      dup3\n        /* \"#utility.yul\":29841:29853   */\n      add\n        /* \"#utility.yul\":29834:29853   */\n      swap1\n      pop\n        /* \"#utility.yul\":29493:29859   */\n      swap2\n      swap1\n      pop\n      jump\t// out\n        /* \"#utility.yul\":29865:30284   */\n    tag_241:\n        /* \"#utility.yul\":30031:30035   */\n      0x00\n        /* \"#utility.yul\":30069:30071   */\n      0x20\n        /* \"#utility.yul\":30058:30067   */\n      dup3\n        /* \"#utility.yul\":30054:30072   */\n      add\n        /* \"#utility.yul\":30046:30072   */\n      swap1\n      pop\n        /* \"#utility.yul\":30118:30127   */\n      dup2\n        /* \"#utility.yul\":30112:30116   */\n      dup2\n        /* \"#utility.yul\":30108:30128   */\n      sub\n        /* \"#utility.yul\":30104:30105   */\n      0x00\n        /* \"#utility.yul\":30093:30102   */\n      dup4\n        /* \"#utility.yul\":30089:30106   */\n      add\n        /* \"#utility.yul\":30082:30129   */\n      mstore\n        /* \"#utility.yul\":30146:30277   */\n      tag_581\n        /* \"#utility.yul\":30272:30276   */\n      dup2\n        /* \"#utility.yul\":30146:30277   */\n      tag_332\n      jump\t// in\n    tag_581:\n        /* \"#utility.yul\":30138:30277   */\n      swap1\n      pop\n        /* \"#utility.yul\":29865:30284   */\n      swap2\n      swap1\n      pop\n      jump\t// out\n        /* \"#utility.yul\":30290:30466   */\n    tag_333:\n        /* \"#utility.yul\":30430:30458   */\n      0x536166654d6174683a206469766973696f6e206279207a65726f000000000000\n        /* \"#utility.yul\":30426:30427   */\n      0x00\n        /* \"#utility.yul\":30418:30424   */\n      dup3\n        /* \"#utility.yul\":30414:30428   */\n      add\n        /* \"#utility.yul\":30407:30459   */\n      mstore\n        /* \"#utility.yul\":30290:30466   */\n      pop\n      jump\t// out\n        /* \"#utility.yul\":30472:30838   */\n    tag_334:\n        /* \"#utility.yul\":30614:30617   */\n      0x00\n        /* \"#utility.yul\":30635:30702   */\n      tag_584\n        /* \"#utility.yul\":30699:30701   */\n      0x1a\n        /* \"#utility.yul\":30694:30697   */\n      dup4\n        /* \"#utility.yul\":30635:30702   */\n      tag_274\n      jump\t// in\n    tag_584:\n        /* \"#utility.yul\":30628:30702   */\n      swap2\n      pop\n        /* \"#utility.yul\":30711:30804   */\n      tag_585\n        /* \"#utility.yul\":30800:30803   */\n      dup3\n        /* \"#utility.yul\":30711:30804   */\n      tag_333\n      jump\t// in\n    tag_585:\n        /* \"#utility.yul\":30829:30831   */\n      0x20\n        /* \"#utility.yul\":30824:30827   */\n      dup3\n        /* \"#utility.yul\":30820:30832   */\n      add\n        /* \"#utility.yul\":30813:30832   */\n      swap1\n      pop\n        /* \"#utility.yul\":30472:30838   */\n      swap2\n      swap1\n      pop\n      jump\t// out\n        /* \"#utility.yul\":30844:31263   */\n    tag_245:\n        /* \"#utility.yul\":31010:31014   */\n      0x00\n        /* \"#utility.yul\":31048:31050   */\n      0x20\n        /* \"#utility.yul\":31037:31046   */\n      dup3\n        /* \"#utility.yul\":31033:31051   */\n      add\n        /* \"#utility.yul\":31025:31051   */\n      swap1\n      pop\n        /* \"#utility.yul\":31097:31106   */\n      dup2\n        /* \"#utility.yul\":31091:31095   */\n      dup2\n        /* \"#utility.yul\":31087:31107   */\n      sub\n        /* \"#utility.yul\":31083:31084   */\n      0x00\n        /* \"#utility.yul\":31072:31081   */\n      dup4\n        /* \"#utility.yul\":31068:31085   */\n      add\n        /* \"#utility.yul\":31061:31108   */\n      mstore\n        /* \"#utility.yul\":31125:31256   */\n      tag_587\n        /* \"#utility.yul\":31251:31255   */\n      dup2\n        /* \"#utility.yul\":31125:31256   */\n      tag_334\n      jump\t// in\n    tag_587:\n        /* \"#utility.yul\":31117:31256   */\n      swap1\n      pop\n        /* \"#utility.yul\":30844:31263   */\n      swap2\n      swap1\n      pop\n      jump\t// out\n    stop\n\n    sub_0: assembly {\n            /* \"Story.sol\":7791:9644  contract Chapter {... */\n          mstore(0x40, 0x80)\n            /* \"Story.sol\":8119:8586  constructor(address _author, address _story, string memory _title,  string memory _ipfsHash, address parentChapter, address childChapter) {... */\n          callvalue\n          dup1\n          iszero\n          tag_1\n          jumpi\n          0x00\n          dup1\n          revert\n        tag_1:\n          pop\n          mload(0x40)\n          sub(codesize, bytecodeSize)\n          dup1\n          bytecodeSize\n          dup4\n          codecopy\n          dup2\n          dup2\n          add\n          0x40\n          mstore\n          dup2\n          add\n          swap1\n          tag_2\n          swap2\n          swap1\n          tag_3\n          jump\t// in\n        tag_2:\n            /* \"Story.sol\":8277:8284  _author */\n          dup6\n            /* \"Story.sol\":8268:8274  author */\n          0x01\n          0x00\n            /* \"Story.sol\":8268:8284  author = _author */\n          0x0100\n          exp\n          dup2\n          sload\n          dup2\n          0xffffffffffffffffffffffffffffffffffffffff\n          mul\n          not\n          and\n          swap1\n          dup4\n          0xffffffffffffffffffffffffffffffffffffffff\n          and\n          mul\n          or\n          swap1\n          sstore\n          pop\n            /* \"Story.sol\":8303:8309  _story */\n          dup5\n            /* \"Story.sol\":8295:8300  story */\n          0x00\n          dup1\n            /* \"Story.sol\":8295:8309  story = _story */\n          0x0100\n          exp\n          dup2\n          sload\n          dup2\n          0xffffffffffffffffffffffffffffffffffffffff\n          mul\n          not\n          and\n          swap1\n          dup4\n          0xffffffffffffffffffffffffffffffffffffffff\n          and\n          mul\n          or\n          swap1\n          sstore\n          pop\n            /* \"Story.sol\":8331:8340  _ipfsHash */\n          dup3\n            /* \"Story.sol\":8320:8328  ipfsHash */\n          0x03\n            /* \"Story.sol\":8320:8340  ipfsHash = _ipfsHash */\n          swap1\n          dup1\n          mload\n          swap1\n          0x20\n          add\n          swap1\n          tag_6\n          swap3\n          swap2\n          swap1\n          tag_7\n          jump\t// in\n        tag_6:\n          pop\n            /* \"Story.sol\":8359:8365  _title */\n          dup4\n            /* \"Story.sol\":8351:8356  title */\n          0x02\n            /* \"Story.sol\":8351:8365  title = _title */\n          swap1\n          dup1\n          mload\n          swap1\n          0x20\n          add\n          swap1\n          tag_8\n          swap3\n          swap2\n          swap1\n          tag_7\n          jump\t// in\n        tag_8:\n          pop\n            /* \"Story.sol\":8404:8405  0 */\n          0x00\n            /* \"Story.sol\":8379:8406  parentChapter != address(0) */\n          0xffffffffffffffffffffffffffffffffffffffff\n          and\n            /* \"Story.sol\":8379:8392  parentChapter */\n          dup3\n            /* \"Story.sol\":8379:8406  parentChapter != address(0) */\n          0xffffffffffffffffffffffffffffffffffffffff\n          and\n          eq\n            /* \"Story.sol\":8376:8474  if(parentChapter != address(0)){... */\n          tag_9\n          jumpi\n            /* \"Story.sol\":8422:8442  linkedParentChapters */\n          0x04\n            /* \"Story.sol\":8448:8461  parentChapter */\n          dup3\n            /* \"Story.sol\":8422:8462  linkedParentChapters.push(parentChapter) */\n          swap1\n          dup1\n          0x01\n          dup2\n          sload\n          add\n          dup1\n          dup3\n          sstore\n          dup1\n          swap2\n          pop\n          pop\n          0x01\n          swap1\n          sub\n          swap1\n          0x00\n          mstore\n          keccak256(0x00, 0x20)\n          add\n          0x00\n          swap1\n          swap2\n          swap1\n          swap2\n          swap1\n          swap2\n          0x0100\n          exp\n          dup2\n          sload\n          dup2\n          0xffffffffffffffffffffffffffffffffffffffff\n          mul\n          not\n          and\n          swap1\n          dup4\n          0xffffffffffffffffffffffffffffffffffffffff\n          and\n          mul\n          or\n          swap1\n          sstore\n          pop\n            /* \"Story.sol\":8376:8474  if(parentChapter != address(0)){... */\n        tag_9:\n            /* \"Story.sol\":8511:8512  0 */\n          0x00\n            /* \"Story.sol\":8487:8513  childChapter != address(0) */\n          0xffffffffffffffffffffffffffffffffffffffff\n          and\n            /* \"Story.sol\":8487:8499  childChapter */\n          dup2\n            /* \"Story.sol\":8487:8513  childChapter != address(0) */\n          0xffffffffffffffffffffffffffffffffffffffff\n          and\n          eq\n            /* \"Story.sol\":8484:8579  if(childChapter != address(0)){... */\n          tag_11\n          jumpi\n            /* \"Story.sol\":8529:8548  linkedChildChapters */\n          0x05\n            /* \"Story.sol\":8554:8566  childChapter */\n          dup2\n            /* \"Story.sol\":8529:8567  linkedChildChapters.push(childChapter) */\n          swap1\n          dup1\n          0x01\n          dup2\n          sload\n          add\n          dup1\n          dup3\n          sstore\n          dup1\n          swap2\n          pop\n          pop\n          0x01\n          swap1\n          sub\n          swap1\n          0x00\n          mstore\n          keccak256(0x00, 0x20)\n          add\n          0x00\n          swap1\n          swap2\n          swap1\n          swap2\n          swap1\n          swap2\n          0x0100\n          exp\n          dup2\n          sload\n          dup2\n          0xffffffffffffffffffffffffffffffffffffffff\n          mul\n          not\n          and\n          swap1\n          dup4\n          0xffffffffffffffffffffffffffffffffffffffff\n          and\n          mul\n          or\n          swap1\n          sstore\n          pop\n            /* \"Story.sol\":8484:8579  if(childChapter != address(0)){... */\n        tag_11:\n            /* \"Story.sol\":8119:8586  constructor(address _author, address _story, string memory _title,  string memory _ipfsHash, address parentChapter, address childChapter) {... */\n          pop\n          pop\n          pop\n          pop\n          pop\n          pop\n            /* \"Story.sol\":7791:9644  contract Chapter {... */\n          jump(tag_13)\n        tag_7:\n          dup3\n          dup1\n          sload\n          tag_14\n          swap1\n          tag_15\n          jump\t// in\n        tag_14:\n          swap1\n          0x00\n          mstore\n          keccak256(0x00, 0x20)\n          swap1\n          0x1f\n          add\n          0x20\n          swap1\n          div\n          dup2\n          add\n          swap3\n          dup3\n          tag_17\n          jumpi\n          0x00\n          dup6\n          sstore\n          jump(tag_16)\n        tag_17:\n          dup3\n          0x1f\n          lt\n          tag_18\n          jumpi\n          dup1\n          mload\n          not(0xff)\n          and\n          dup4\n          dup1\n          add\n          or\n          dup6\n          sstore\n          jump(tag_16)\n        tag_18:\n          dup3\n          dup1\n          add\n          0x01\n          add\n          dup6\n          sstore\n          dup3\n          iszero\n          tag_16\n          jumpi\n          swap2\n          dup3\n          add\n        tag_19:\n          dup3\n          dup2\n          gt\n          iszero\n          tag_20\n          jumpi\n          dup3\n          mload\n          dup3\n          sstore\n          swap2\n          0x20\n          add\n          swap2\n          swap1\n          0x01\n          add\n          swap1\n          jump(tag_19)\n        tag_20:\n        tag_16:\n          pop\n          swap1\n          pop\n          tag_21\n          swap2\n          swap1\n          tag_22\n          jump\t// in\n        tag_21:\n          pop\n          swap1\n          jump\t// out\n        tag_22:\n        tag_23:\n          dup1\n          dup3\n          gt\n          iszero\n          tag_24\n          jumpi\n          0x00\n          dup2\n          0x00\n          swap1\n          sstore\n          pop\n          0x01\n          add\n          jump(tag_23)\n        tag_24:\n          pop\n          swap1\n          jump\t// out\n            /* \"#utility.yul\":7:82   */\n        tag_25:\n            /* \"#utility.yul\":40:46   */\n          0x00\n            /* \"#utility.yul\":73:75   */\n          0x40\n            /* \"#utility.yul\":67:76   */\n          mload\n            /* \"#utility.yul\":57:76   */\n          swap1\n          pop\n            /* \"#utility.yul\":7:82   */\n          swap1\n          jump\t// out\n            /* \"#utility.yul\":88:205   */\n        tag_26:\n            /* \"#utility.yul\":197:198   */\n          0x00\n            /* \"#utility.yul\":194:195   */\n          dup1\n            /* \"#utility.yul\":187:199   */\n          revert\n            /* \"#utility.yul\":211:328   */\n        tag_27:\n            /* \"#utility.yul\":320:321   */\n          0x00\n            /* \"#utility.yul\":317:318   */\n          dup1\n            /* \"#utility.yul\":310:322   */\n          revert\n            /* \"#utility.yul\":334:460   */\n        tag_28:\n            /* \"#utility.yul\":371:378   */\n          0x00\n            /* \"#utility.yul\":411:453   */\n          0xffffffffffffffffffffffffffffffffffffffff\n            /* \"#utility.yul\":404:409   */\n          dup3\n            /* \"#utility.yul\":400:454   */\n          and\n            /* \"#utility.yul\":389:454   */\n          swap1\n          pop\n            /* \"#utility.yul\":334:460   */\n          swap2\n          swap1\n          pop\n          jump\t// out\n            /* \"#utility.yul\":466:562   */\n        tag_29:\n            /* \"#utility.yul\":503:510   */\n          0x00\n            /* \"#utility.yul\":532:556   */\n          tag_49\n            /* \"#utility.yul\":550:555   */\n          dup3\n            /* \"#utility.yul\":532:556   */\n          tag_28\n          jump\t// in\n        tag_49:\n            /* \"#utility.yul\":521:556   */\n          swap1\n          pop\n            /* \"#utility.yul\":466:562   */\n          swap2\n          swap1\n          pop\n          jump\t// out\n            /* \"#utility.yul\":568:690   */\n        tag_30:\n            /* \"#utility.yul\":641:665   */\n          tag_51\n            /* \"#utility.yul\":659:664   */\n          dup2\n            /* \"#utility.yul\":641:665   */\n          tag_29\n          jump\t// in\n        tag_51:\n            /* \"#utility.yul\":634:639   */\n          dup2\n            /* \"#utility.yul\":631:666   */\n          eq\n            /* \"#utility.yul\":621:684   */\n          tag_52\n          jumpi\n            /* \"#utility.yul\":680:681   */\n          0x00\n            /* \"#utility.yul\":677:678   */\n          dup1\n            /* \"#utility.yul\":670:682   */\n          revert\n            /* \"#utility.yul\":621:684   */\n        tag_52:\n            /* \"#utility.yul\":568:690   */\n          pop\n          jump\t// out\n            /* \"#utility.yul\":696:839   */\n        tag_31:\n            /* \"#utility.yul\":753:758   */\n          0x00\n            /* \"#utility.yul\":784:790   */\n          dup2\n            /* \"#utility.yul\":778:791   */\n          mload\n            /* \"#utility.yul\":769:791   */\n          swap1\n          pop\n            /* \"#utility.yul\":800:833   */\n          tag_54\n            /* \"#utility.yul\":827:832   */\n          dup2\n            /* \"#utility.yul\":800:833   */\n          tag_30\n          jump\t// in\n        tag_54:\n            /* \"#utility.yul\":696:839   */\n          swap3\n          swap2\n          pop\n          pop\n          jump\t// out\n            /* \"#utility.yul\":845:962   */\n        tag_32:\n            /* \"#utility.yul\":954:955   */\n          0x00\n            /* \"#utility.yul\":951:952   */\n          dup1\n            /* \"#utility.yul\":944:956   */\n          revert\n            /* \"#utility.yul\":968:1085   */\n        tag_33:\n            /* \"#utility.yul\":1077:1078   */\n          0x00\n            /* \"#utility.yul\":1074:1075   */\n          dup1\n            /* \"#utility.yul\":1067:1079   */\n          revert\n            /* \"#utility.yul\":1091:1193   */\n        tag_34:\n            /* \"#utility.yul\":1132:1138   */\n          0x00\n            /* \"#utility.yul\":1183:1185   */\n          0x1f\n            /* \"#utility.yul\":1179:1186   */\n          not\n            /* \"#utility.yul\":1174:1176   */\n          0x1f\n            /* \"#utility.yul\":1167:1172   */\n          dup4\n            /* \"#utility.yul\":1163:1177   */\n          add\n            /* \"#utility.yul\":1159:1187   */\n          and\n            /* \"#utility.yul\":1149:1187   */\n          swap1\n          pop\n            /* \"#utility.yul\":1091:1193   */\n          swap2\n          swap1\n          pop\n          jump\t// out\n            /* \"#utility.yul\":1199:1379   */\n        tag_35:\n            /* \"#utility.yul\":1247:1324   */\n          0x4e487b7100000000000000000000000000000000000000000000000000000000\n            /* \"#utility.yul\":1244:1245   */\n          0x00\n            /* \"#utility.yul\":1237:1325   */\n          mstore\n            /* \"#utility.yul\":1344:1348   */\n          0x41\n            /* \"#utility.yul\":1341:1342   */\n          0x04\n            /* \"#utility.yul\":1334:1349   */\n          mstore\n            /* \"#utility.yul\":1368:1372   */\n          0x24\n            /* \"#utility.yul\":1365:1366   */\n          0x00\n            /* \"#utility.yul\":1358:1373   */\n          revert\n            /* \"#utility.yul\":1385:1666   */\n        tag_36:\n            /* \"#utility.yul\":1468:1495   */\n          tag_60\n            /* \"#utility.yul\":1490:1494   */\n          dup3\n            /* \"#utility.yul\":1468:1495   */\n          tag_34\n          jump\t// in\n        tag_60:\n            /* \"#utility.yul\":1460:1466   */\n          dup2\n            /* \"#utility.yul\":1456:1496   */\n          add\n            /* \"#utility.yul\":1598:1604   */\n          dup2\n            /* \"#utility.yul\":1586:1596   */\n          dup2\n            /* \"#utility.yul\":1583:1605   */\n          lt\n            /* \"#utility.yul\":1562:1580   */\n          0xffffffffffffffff\n            /* \"#utility.yul\":1550:1560   */\n          dup3\n            /* \"#utility.yul\":1547:1581   */\n          gt\n            /* \"#utility.yul\":1544:1606   */\n          or\n            /* \"#utility.yul\":1541:1629   */\n          iszero\n          tag_61\n          jumpi\n            /* \"#utility.yul\":1609:1627   */\n          tag_62\n          tag_35\n          jump\t// in\n        tag_62:\n            /* \"#utility.yul\":1541:1629   */\n        tag_61:\n            /* \"#utility.yul\":1649:1659   */\n          dup1\n            /* \"#utility.yul\":1645:1647   */\n          0x40\n            /* \"#utility.yul\":1638:1660   */\n          mstore\n            /* \"#utility.yul\":1428:1666   */\n          pop\n            /* \"#utility.yul\":1385:1666   */\n          pop\n          pop\n          jump\t// out\n            /* \"#utility.yul\":1672:1801   */\n        tag_37:\n            /* \"#utility.yul\":1706:1712   */\n          0x00\n            /* \"#utility.yul\":1733:1753   */\n          tag_64\n          tag_25\n          jump\t// in\n        tag_64:\n            /* \"#utility.yul\":1723:1753   */\n          swap1\n          pop\n            /* \"#utility.yul\":1762:1795   */\n          tag_65\n            /* \"#utility.yul\":1790:1794   */\n          dup3\n            /* \"#utility.yul\":1782:1788   */\n          dup3\n            /* \"#utility.yul\":1762:1795   */\n          tag_36\n          jump\t// in\n        tag_65:\n            /* \"#utility.yul\":1672:1801   */\n          swap2\n          swap1\n          pop\n          jump\t// out\n            /* \"#utility.yul\":1807:2115   */\n        tag_38:\n            /* \"#utility.yul\":1869:1873   */\n          0x00\n            /* \"#utility.yul\":1959:1977   */\n          0xffffffffffffffff\n            /* \"#utility.yul\":1951:1957   */\n          dup3\n            /* \"#utility.yul\":1948:1978   */\n          gt\n            /* \"#utility.yul\":1945:2001   */\n          iszero\n          tag_67\n          jumpi\n            /* \"#utility.yul\":1981:1999   */\n          tag_68\n          tag_35\n          jump\t// in\n        tag_68:\n            /* \"#utility.yul\":1945:2001   */\n        tag_67:\n            /* \"#utility.yul\":2019:2048   */\n          tag_69\n            /* \"#utility.yul\":2041:2047   */\n          dup3\n            /* \"#utility.yul\":2019:2048   */\n          tag_34\n          jump\t// in\n        tag_69:\n            /* \"#utility.yul\":2011:2048   */\n          swap1\n          pop\n            /* \"#utility.yul\":2103:2107   */\n          0x20\n            /* \"#utility.yul\":2097:2101   */\n          dup2\n            /* \"#utility.yul\":2093:2108   */\n          add\n            /* \"#utility.yul\":2085:2108   */\n          swap1\n          pop\n            /* \"#utility.yul\":1807:2115   */\n          swap2\n          swap1\n          pop\n          jump\t// out\n            /* \"#utility.yul\":2121:2428   */\n        tag_39:\n            /* \"#utility.yul\":2189:2190   */\n          0x00\n            /* \"#utility.yul\":2199:2312   */\n        tag_71:\n            /* \"#utility.yul\":2213:2219   */\n          dup4\n            /* \"#utility.yul\":2210:2211   */\n          dup2\n            /* \"#utility.yul\":2207:2220   */\n          lt\n            /* \"#utility.yul\":2199:2312   */\n          iszero\n          tag_73\n          jumpi\n            /* \"#utility.yul\":2298:2299   */\n          dup1\n            /* \"#utility.yul\":2293:2296   */\n          dup3\n            /* \"#utility.yul\":2289:2300   */\n          add\n            /* \"#utility.yul\":2283:2301   */\n          mload\n            /* \"#utility.yul\":2279:2280   */\n          dup2\n            /* \"#utility.yul\":2274:2277   */\n          dup5\n            /* \"#utility.yul\":2270:2281   */\n          add\n            /* \"#utility.yul\":2263:2302   */\n          mstore\n            /* \"#utility.yul\":2235:2237   */\n          0x20\n            /* \"#utility.yul\":2232:2233   */\n          dup2\n            /* \"#utility.yul\":2228:2238   */\n          add\n            /* \"#utility.yul\":2223:2238   */\n          swap1\n          pop\n            /* \"#utility.yul\":2199:2312   */\n          jump(tag_71)\n        tag_73:\n            /* \"#utility.yul\":2330:2336   */\n          dup4\n            /* \"#utility.yul\":2327:2328   */\n          dup2\n            /* \"#utility.yul\":2324:2337   */\n          gt\n            /* \"#utility.yul\":2321:2422   */\n          iszero\n          tag_74\n          jumpi\n            /* \"#utility.yul\":2410:2411   */\n          0x00\n            /* \"#utility.yul\":2401:2407   */\n          dup5\n            /* \"#utility.yul\":2396:2399   */\n          dup5\n            /* \"#utility.yul\":2392:2408   */\n          add\n            /* \"#utility.yul\":2385:2412   */\n          mstore\n            /* \"#utility.yul\":2321:2422   */\n        tag_74:\n            /* \"#utility.yul\":2170:2428   */\n          pop\n            /* \"#utility.yul\":2121:2428   */\n          pop\n          pop\n          pop\n          jump\t// out\n            /* \"#utility.yul\":2434:2855   */\n        tag_40:\n            /* \"#utility.yul\":2523:2528   */\n          0x00\n            /* \"#utility.yul\":2548:2614   */\n          tag_76\n            /* \"#utility.yul\":2564:2613   */\n          tag_77\n            /* \"#utility.yul\":2606:2612   */\n          dup5\n            /* \"#utility.yul\":2564:2613   */\n          tag_38\n          jump\t// in\n        tag_77:\n            /* \"#utility.yul\":2548:2614   */\n          tag_37\n          jump\t// in\n        tag_76:\n            /* \"#utility.yul\":2539:2614   */\n          swap1\n          pop\n            /* \"#utility.yul\":2637:2643   */\n          dup3\n            /* \"#utility.yul\":2630:2635   */\n          dup2\n            /* \"#utility.yul\":2623:2644   */\n          mstore\n            /* \"#utility.yul\":2675:2679   */\n          0x20\n            /* \"#utility.yul\":2668:2673   */\n          dup2\n            /* \"#utility.yul\":2664:2680   */\n          add\n            /* \"#utility.yul\":2713:2716   */\n          dup5\n            /* \"#utility.yul\":2704:2710   */\n          dup5\n            /* \"#utility.yul\":2699:2702   */\n          dup5\n            /* \"#utility.yul\":2695:2711   */\n          add\n            /* \"#utility.yul\":2692:2717   */\n          gt\n            /* \"#utility.yul\":2689:2801   */\n          iszero\n          tag_78\n          jumpi\n            /* \"#utility.yul\":2720:2799   */\n          tag_79\n          tag_33\n          jump\t// in\n        tag_79:\n            /* \"#utility.yul\":2689:2801   */\n        tag_78:\n            /* \"#utility.yul\":2810:2849   */\n          tag_80\n            /* \"#utility.yul\":2842:2848   */\n          dup5\n            /* \"#utility.yul\":2837:2840   */\n          dup3\n            /* \"#utility.yul\":2832:2835   */\n          dup6\n            /* \"#utility.yul\":2810:2849   */\n          tag_39\n          jump\t// in\n        tag_80:\n            /* \"#utility.yul\":2529:2855   */\n          pop\n            /* \"#utility.yul\":2434:2855   */\n          swap4\n          swap3\n          pop\n          pop\n          pop\n          jump\t// out\n            /* \"#utility.yul\":2875:3230   */\n        tag_41:\n            /* \"#utility.yul\":2942:2947   */\n          0x00\n            /* \"#utility.yul\":2991:2994   */\n          dup3\n            /* \"#utility.yul\":2984:2988   */\n          0x1f\n            /* \"#utility.yul\":2976:2982   */\n          dup4\n            /* \"#utility.yul\":2972:2989   */\n          add\n            /* \"#utility.yul\":2968:2995   */\n          slt\n            /* \"#utility.yul\":2958:3080   */\n          tag_82\n          jumpi\n            /* \"#utility.yul\":2999:3078   */\n          tag_83\n          tag_32\n          jump\t// in\n        tag_83:\n            /* \"#utility.yul\":2958:3080   */\n        tag_82:\n            /* \"#utility.yul\":3109:3115   */\n          dup2\n            /* \"#utility.yul\":3103:3116   */\n          mload\n            /* \"#utility.yul\":3134:3224   */\n          tag_84\n            /* \"#utility.yul\":3220:3223   */\n          dup5\n            /* \"#utility.yul\":3212:3218   */\n          dup3\n            /* \"#utility.yul\":3205:3209   */\n          0x20\n            /* \"#utility.yul\":3197:3203   */\n          dup7\n            /* \"#utility.yul\":3193:3210   */\n          add\n            /* \"#utility.yul\":3134:3224   */\n          tag_40\n          jump\t// in\n        tag_84:\n            /* \"#utility.yul\":3125:3224   */\n          swap2\n          pop\n            /* \"#utility.yul\":2948:3230   */\n          pop\n            /* \"#utility.yul\":2875:3230   */\n          swap3\n          swap2\n          pop\n          pop\n          jump\t// out\n            /* \"#utility.yul\":3236:4716   */\n        tag_3:\n            /* \"#utility.yul\":3371:3377   */\n          0x00\n            /* \"#utility.yul\":3379:3385   */\n          dup1\n            /* \"#utility.yul\":3387:3393   */\n          0x00\n            /* \"#utility.yul\":3395:3401   */\n          dup1\n            /* \"#utility.yul\":3403:3409   */\n          0x00\n            /* \"#utility.yul\":3411:3417   */\n          dup1\n            /* \"#utility.yul\":3460:3463   */\n          0xc0\n            /* \"#utility.yul\":3448:3457   */\n          dup8\n            /* \"#utility.yul\":3439:3446   */\n          dup10\n            /* \"#utility.yul\":3435:3458   */\n          sub\n            /* \"#utility.yul\":3431:3464   */\n          slt\n            /* \"#utility.yul\":3428:3548   */\n          iszero\n          tag_86\n          jumpi\n            /* \"#utility.yul\":3467:3546   */\n          tag_87\n          tag_26\n          jump\t// in\n        tag_87:\n            /* \"#utility.yul\":3428:3548   */\n        tag_86:\n            /* \"#utility.yul\":3587:3588   */\n          0x00\n            /* \"#utility.yul\":3612:3676   */\n          tag_88\n            /* \"#utility.yul\":3668:3675   */\n          dup10\n            /* \"#utility.yul\":3659:3665   */\n          dup3\n            /* \"#utility.yul\":3648:3657   */\n          dup11\n            /* \"#utility.yul\":3644:3666   */\n          add\n            /* \"#utility.yul\":3612:3676   */\n          tag_31\n          jump\t// in\n        tag_88:\n            /* \"#utility.yul\":3602:3676   */\n          swap7\n          pop\n            /* \"#utility.yul\":3558:3686   */\n          pop\n            /* \"#utility.yul\":3725:3727   */\n          0x20\n            /* \"#utility.yul\":3751:3815   */\n          tag_89\n            /* \"#utility.yul\":3807:3814   */\n          dup10\n            /* \"#utility.yul\":3798:3804   */\n          dup3\n            /* \"#utility.yul\":3787:3796   */\n          dup11\n            /* \"#utility.yul\":3783:3805   */\n          add\n            /* \"#utility.yul\":3751:3815   */\n          tag_31\n          jump\t// in\n        tag_89:\n            /* \"#utility.yul\":3741:3815   */\n          swap6\n          pop\n            /* \"#utility.yul\":3696:3825   */\n          pop\n            /* \"#utility.yul\":3885:3887   */\n          0x40\n            /* \"#utility.yul\":3874:3883   */\n          dup8\n            /* \"#utility.yul\":3870:3888   */\n          add\n            /* \"#utility.yul\":3864:3889   */\n          mload\n            /* \"#utility.yul\":3916:3934   */\n          0xffffffffffffffff\n            /* \"#utility.yul\":3908:3914   */\n          dup2\n            /* \"#utility.yul\":3905:3935   */\n          gt\n            /* \"#utility.yul\":3902:4019   */\n          iszero\n          tag_90\n          jumpi\n            /* \"#utility.yul\":3938:4017   */\n          tag_91\n          tag_27\n          jump\t// in\n        tag_91:\n            /* \"#utility.yul\":3902:4019   */\n        tag_90:\n            /* \"#utility.yul\":4043:4117   */\n          tag_92\n            /* \"#utility.yul\":4109:4116   */\n          dup10\n            /* \"#utility.yul\":4100:4106   */\n          dup3\n            /* \"#utility.yul\":4089:4098   */\n          dup11\n            /* \"#utility.yul\":4085:4107   */\n          add\n            /* \"#utility.yul\":4043:4117   */\n          tag_41\n          jump\t// in\n        tag_92:\n            /* \"#utility.yul\":4033:4117   */\n          swap5\n          pop\n            /* \"#utility.yul\":3835:4127   */\n          pop\n            /* \"#utility.yul\":4187:4189   */\n          0x60\n            /* \"#utility.yul\":4176:4185   */\n          dup8\n            /* \"#utility.yul\":4172:4190   */\n          add\n            /* \"#utility.yul\":4166:4191   */\n          mload\n            /* \"#utility.yul\":4218:4236   */\n          0xffffffffffffffff\n            /* \"#utility.yul\":4210:4216   */\n          dup2\n            /* \"#utility.yul\":4207:4237   */\n          gt\n            /* \"#utility.yul\":4204:4321   */\n          iszero\n          tag_93\n          jumpi\n            /* \"#utility.yul\":4240:4319   */\n          tag_94\n          tag_27\n          jump\t// in\n        tag_94:\n            /* \"#utility.yul\":4204:4321   */\n        tag_93:\n            /* \"#utility.yul\":4345:4419   */\n          tag_95\n            /* \"#utility.yul\":4411:4418   */\n          dup10\n            /* \"#utility.yul\":4402:4408   */\n          dup3\n            /* \"#utility.yul\":4391:4400   */\n          dup11\n            /* \"#utility.yul\":4387:4409   */\n          add\n            /* \"#utility.yul\":4345:4419   */\n          tag_41\n          jump\t// in\n        tag_95:\n            /* \"#utility.yul\":4335:4419   */\n          swap4\n          pop\n            /* \"#utility.yul\":4137:4429   */\n          pop\n            /* \"#utility.yul\":4468:4471   */\n          0x80\n            /* \"#utility.yul\":4495:4559   */\n          tag_96\n            /* \"#utility.yul\":4551:4558   */\n          dup10\n            /* \"#utility.yul\":4542:4548   */\n          dup3\n            /* \"#utility.yul\":4531:4540   */\n          dup11\n            /* \"#utility.yul\":4527:4549   */\n          add\n            /* \"#utility.yul\":4495:4559   */\n          tag_31\n          jump\t// in\n        tag_96:\n            /* \"#utility.yul\":4485:4559   */\n          swap3\n          pop\n            /* \"#utility.yul\":4439:4569   */\n          pop\n            /* \"#utility.yul\":4608:4611   */\n          0xa0\n            /* \"#utility.yul\":4635:4699   */\n          tag_97\n            /* \"#utility.yul\":4691:4698   */\n          dup10\n            /* \"#utility.yul\":4682:4688   */\n          dup3\n            /* \"#utility.yul\":4671:4680   */\n          dup11\n            /* \"#utility.yul\":4667:4689   */\n          add\n            /* \"#utility.yul\":4635:4699   */\n          tag_31\n          jump\t// in\n        tag_97:\n            /* \"#utility.yul\":4625:4699   */\n          swap2\n          pop\n            /* \"#utility.yul\":4579:4709   */\n          pop\n            /* \"#utility.yul\":3236:4716   */\n          swap3\n          swap6\n          pop\n          swap3\n          swap6\n          pop\n          swap3\n          swap6\n          jump\t// out\n            /* \"#utility.yul\":4722:4902   */\n        tag_42:\n            /* \"#utility.yul\":4770:4847   */\n          0x4e487b7100000000000000000000000000000000000000000000000000000000\n            /* \"#utility.yul\":4767:4768   */\n          0x00\n            /* \"#utility.yul\":4760:4848   */\n          mstore\n            /* \"#utility.yul\":4867:4871   */\n          0x22\n            /* \"#utility.yul\":4864:4865   */\n          0x04\n            /* \"#utility.yul\":4857:4872   */\n          mstore\n            /* \"#utility.yul\":4891:4895   */\n          0x24\n            /* \"#utility.yul\":4888:4889   */\n          0x00\n            /* \"#utility.yul\":4881:4896   */\n          revert\n            /* \"#utility.yul\":4908:5228   */\n        tag_15:\n            /* \"#utility.yul\":4952:4958   */\n          0x00\n            /* \"#utility.yul\":4989:4990   */\n          0x02\n            /* \"#utility.yul\":4983:4987   */\n          dup3\n            /* \"#utility.yul\":4979:4991   */\n          div\n            /* \"#utility.yul\":4969:4991   */\n          swap1\n          pop\n            /* \"#utility.yul\":5036:5037   */\n          0x01\n            /* \"#utility.yul\":5030:5034   */\n          dup3\n            /* \"#utility.yul\":5026:5038   */\n          and\n            /* \"#utility.yul\":5057:5075   */\n          dup1\n            /* \"#utility.yul\":5047:5128   */\n          tag_100\n          jumpi\n            /* \"#utility.yul\":5113:5117   */\n          0x7f\n            /* \"#utility.yul\":5105:5111   */\n          dup3\n            /* \"#utility.yul\":5101:5118   */\n          and\n            /* \"#utility.yul\":5091:5118   */\n          swap2\n          pop\n            /* \"#utility.yul\":5047:5128   */\n        tag_100:\n            /* \"#utility.yul\":5175:5177   */\n          0x20\n            /* \"#utility.yul\":5167:5173   */\n          dup3\n            /* \"#utility.yul\":5164:5178   */\n          lt\n            /* \"#utility.yul\":5144:5162   */\n          dup2\n            /* \"#utility.yul\":5141:5179   */\n          eq\n            /* \"#utility.yul\":5138:5222   */\n          iszero\n          tag_101\n          jumpi\n            /* \"#utility.yul\":5194:5212   */\n          tag_102\n          tag_42\n          jump\t// in\n        tag_102:\n            /* \"#utility.yul\":5138:5222   */\n        tag_101:\n            /* \"#utility.yul\":4959:5228   */\n          pop\n            /* \"#utility.yul\":4908:5228   */\n          swap2\n          swap1\n          pop\n          jump\t// out\n            /* \"Story.sol\":7791:9644  contract Chapter {... */\n        tag_13:\n          dataSize(sub_0)\n          dup1\n          dataOffset(sub_0)\n          0x00\n          codecopy\n          0x00\n          return\n        stop\n\n        sub_0: assembly {\n                /* \"Story.sol\":7791:9644  contract Chapter {... */\n              mstore(0x40, 0x80)\n              callvalue\n              dup1\n              iszero\n              tag_1\n              jumpi\n              0x00\n              dup1\n              revert\n            tag_1:\n              pop\n              jumpi(tag_2, lt(calldatasize, 0x04))\n              shr(0xe0, calldataload(0x00))\n              dup1\n              0xa523b88a\n              gt\n              tag_14\n              jumpi\n              dup1\n              0xa523b88a\n              eq\n              tag_8\n              jumpi\n              dup1\n              0xa6c3e6b9\n              eq\n              tag_9\n              jumpi\n              dup1\n              0xc5fe6ffc\n              eq\n              tag_10\n              jumpi\n              dup1\n              0xc623674f\n              eq\n              tag_11\n              jumpi\n              dup1\n              0xe5a0af3d\n              eq\n              tag_12\n              jumpi\n              dup1\n              0xed777791\n              eq\n              tag_13\n              jumpi\n              jump(tag_2)\n            tag_14:\n              dup1\n              0x4051ddac\n              eq\n              tag_3\n              jumpi\n              dup1\n              0x46c922d1\n              eq\n              tag_4\n              jumpi\n              dup1\n              0x4a79d50c\n              eq\n              tag_5\n              jumpi\n              dup1\n              0x8758ce83\n              eq\n              tag_6\n              jumpi\n              dup1\n              0x988e46c8\n              eq\n              tag_7\n              jumpi\n            tag_2:\n              0x00\n              dup1\n              revert\n                /* \"Story.sol\":9283:9641  function getSummary() public view returns (... */\n            tag_3:\n              tag_15\n              tag_16\n              jump\t// in\n            tag_15:\n              mload(0x40)\n              tag_17\n              swap8\n              swap7\n              swap6\n              swap5\n              swap4\n              swap3\n              swap2\n              swap1\n              tag_18\n              jump\t// in\n            tag_17:\n              mload(0x40)\n              dup1\n              swap2\n              sub\n              swap1\n              return\n                /* \"Story.sol\":7850:7870  address public story */\n            tag_4:\n              tag_19\n              tag_20\n              jump\t// in\n            tag_19:\n              mload(0x40)\n              tag_21\n              swap2\n              swap1\n              tag_22\n              jump\t// in\n            tag_21:\n              mload(0x40)\n              dup1\n              swap2\n              sub\n              swap1\n              return\n                /* \"Story.sol\":7906:7925  string public title */\n            tag_5:\n              tag_23\n              tag_24\n              jump\t// in\n            tag_23:\n              mload(0x40)\n              tag_25\n              swap2\n              swap1\n              tag_26\n              jump\t// in\n            tag_25:\n              mload(0x40)\n              dup1\n              swap2\n              sub\n              swap1\n              return\n                /* \"Story.sol\":8844:9084  function linkParentChapter(address parentChapter) public {... */\n            tag_6:\n              tag_27\n              0x04\n              dup1\n              calldatasize\n              sub\n              dup2\n              add\n              swap1\n              tag_28\n              swap2\n              swap1\n              tag_29\n              jump\t// in\n            tag_28:\n              tag_30\n              jump\t// in\n            tag_27:\n              stop\n                /* \"Story.sol\":8600:8836  function linkChildChapter(address childChapter) public {... */\n            tag_7:\n              tag_31\n              0x04\n              dup1\n              calldatasize\n              sub\n              dup2\n              add\n              swap1\n              tag_32\n              swap2\n              swap1\n              tag_29\n              jump\t// in\n            tag_32:\n              tag_33\n              jump\t// in\n            tag_31:\n              stop\n                /* \"Story.sol\":9100:9275  function like() public {... */\n            tag_8:\n              tag_34\n              tag_35\n              jump\t// in\n            tag_34:\n              stop\n                /* \"Story.sol\":7878:7899  address public author */\n            tag_9:\n              tag_36\n              tag_37\n              jump\t// in\n            tag_36:\n              mload(0x40)\n              tag_38\n              swap2\n              swap1\n              tag_22\n              jump\t// in\n            tag_38:\n              mload(0x40)\n              dup1\n              swap2\n              sub\n              swap1\n              return\n                /* \"Story.sol\":8005:8041  address[] public linkedChildChapters */\n            tag_10:\n              tag_39\n              0x04\n              dup1\n              calldatasize\n              sub\n              dup2\n              add\n              swap1\n              tag_40\n              swap2\n              swap1\n              tag_41\n              jump\t// in\n            tag_40:\n              tag_42\n              jump\t// in\n            tag_39:\n              mload(0x40)\n              tag_43\n              swap2\n              swap1\n              tag_22\n              jump\t// in\n            tag_43:\n              mload(0x40)\n              dup1\n              swap2\n              sub\n              swap1\n              return\n                /* \"Story.sol\":7932:7954  string public ipfsHash */\n            tag_11:\n              tag_44\n              tag_45\n              jump\t// in\n            tag_44:\n              mload(0x40)\n              tag_46\n              swap2\n              swap1\n              tag_26\n              jump\t// in\n            tag_46:\n              mload(0x40)\n              dup1\n              swap2\n              sub\n              swap1\n              return\n                /* \"Story.sol\":8086:8110  uint256 public likeCount */\n            tag_12:\n              tag_47\n              tag_48\n              jump\t// in\n            tag_47:\n              mload(0x40)\n              tag_49\n              swap2\n              swap1\n              tag_50\n              jump\t// in\n            tag_49:\n              mload(0x40)\n              dup1\n              swap2\n              sub\n              swap1\n              return\n                /* \"Story.sol\":7961:7998  address[] public linkedParentChapters */\n            tag_13:\n              tag_51\n              0x04\n              dup1\n              calldatasize\n              sub\n              dup2\n              add\n              swap1\n              tag_52\n              swap2\n              swap1\n              tag_41\n              jump\t// in\n            tag_52:\n              tag_53\n              jump\t// in\n            tag_51:\n              mload(0x40)\n              tag_54\n              swap2\n              swap1\n              tag_22\n              jump\t// in\n            tag_54:\n              mload(0x40)\n              dup1\n              swap2\n              sub\n              swap1\n              return\n                /* \"Story.sol\":9283:9641  function getSummary() public view returns (... */\n            tag_16:\n                /* \"Story.sol\":9336:9343  address */\n              0x00\n                /* \"Story.sol\":9345:9352  address */\n              dup1\n                /* \"Story.sol\":9354:9367  string memory */\n              0x60\n                /* \"Story.sol\":9369:9382  string memory */\n              dup1\n                /* \"Story.sol\":9384:9400  address[] memory */\n              0x60\n                /* \"Story.sol\":9402:9418  address[] memory */\n              dup1\n                /* \"Story.sol\":9420:9424  uint */\n              0x00\n                /* \"Story.sol\":9460:9465  story */\n              dup1\n              0x00\n              swap1\n              sload\n              swap1\n              0x0100\n              exp\n              swap1\n              div\n              0xffffffffffffffffffffffffffffffffffffffff\n              and\n                /* \"Story.sol\":9480:9486  author */\n              0x01\n              0x00\n              swap1\n              sload\n              swap1\n              0x0100\n              exp\n              swap1\n              div\n              0xffffffffffffffffffffffffffffffffffffffff\n              and\n                /* \"Story.sol\":9501:9506  title */\n              0x02\n                /* \"Story.sol\":9521:9529  ipfsHash */\n              0x03\n                /* \"Story.sol\":9544:9564  linkedParentChapters */\n              0x04\n                /* \"Story.sol\":9579:9598  linkedChildChapters */\n              0x05\n                /* \"Story.sol\":9613:9622  likeCount */\n              sload(0x07)\n                /* \"Story.sol\":9437:9633  return ( ... */\n              dup5\n              dup1\n              sload\n              tag_56\n              swap1\n              tag_57\n              jump\t// in\n            tag_56:\n              dup1\n              0x1f\n              add\n              0x20\n              dup1\n              swap2\n              div\n              mul\n              0x20\n              add\n              mload(0x40)\n              swap1\n              dup2\n              add\n              0x40\n              mstore\n              dup1\n              swap3\n              swap2\n              swap1\n              dup2\n              dup2\n              mstore\n              0x20\n              add\n              dup3\n              dup1\n              sload\n              tag_58\n              swap1\n              tag_57\n              jump\t// in\n            tag_58:\n              dup1\n              iszero\n              tag_59\n              jumpi\n              dup1\n              0x1f\n              lt\n              tag_60\n              jumpi\n              0x0100\n              dup1\n              dup4\n              sload\n              div\n              mul\n              dup4\n              mstore\n              swap2\n              0x20\n              add\n              swap2\n              jump(tag_59)\n            tag_60:\n              dup3\n              add\n              swap2\n              swap1\n              0x00\n              mstore\n              keccak256(0x00, 0x20)\n              swap1\n            tag_61:\n              dup2\n              sload\n              dup2\n              mstore\n              swap1\n              0x01\n              add\n              swap1\n              0x20\n              add\n              dup1\n              dup4\n              gt\n              tag_61\n              jumpi\n              dup3\n              swap1\n              sub\n              0x1f\n              and\n              dup3\n              add\n              swap2\n            tag_59:\n              pop\n              pop\n              pop\n              pop\n              pop\n              swap5\n              pop\n              dup4\n              dup1\n              sload\n              tag_62\n              swap1\n              tag_57\n              jump\t// in\n            tag_62:\n              dup1\n              0x1f\n              add\n              0x20\n              dup1\n              swap2\n              div\n              mul\n              0x20\n              add\n              mload(0x40)\n              swap1\n              dup2\n              add\n              0x40\n              mstore\n              dup1\n              swap3\n              swap2\n              swap1\n              dup2\n              dup2\n              mstore\n              0x20\n              add\n              dup3\n              dup1\n              sload\n              tag_63\n              swap1\n              tag_57\n              jump\t// in\n            tag_63:\n              dup1\n              iszero\n              tag_64\n              jumpi\n              dup1\n              0x1f\n              lt\n              tag_65\n              jumpi\n              0x0100\n              dup1\n              dup4\n              sload\n              div\n              mul\n              dup4\n              mstore\n              swap2\n              0x20\n              add\n              swap2\n              jump(tag_64)\n            tag_65:\n              dup3\n              add\n              swap2\n              swap1\n              0x00\n              mstore\n              keccak256(0x00, 0x20)\n              swap1\n            tag_66:\n              dup2\n              sload\n              dup2\n              mstore\n              swap1\n              0x01\n              add\n              swap1\n              0x20\n              add\n              dup1\n              dup4\n              gt\n              tag_66\n              jumpi\n              dup3\n              swap1\n              sub\n              0x1f\n              and\n              dup3\n              add\n              swap2\n            tag_64:\n              pop\n              pop\n              pop\n              pop\n              pop\n              swap4\n              pop\n              dup3\n              dup1\n              sload\n              dup1\n              0x20\n              mul\n              0x20\n              add\n              mload(0x40)\n              swap1\n              dup2\n              add\n              0x40\n              mstore\n              dup1\n              swap3\n              swap2\n              swap1\n              dup2\n              dup2\n              mstore\n              0x20\n              add\n              dup3\n              dup1\n              sload\n              dup1\n              iszero\n              tag_67\n              jumpi\n              0x20\n              mul\n              dup3\n              add\n              swap2\n              swap1\n              0x00\n              mstore\n              keccak256(0x00, 0x20)\n              swap1\n            tag_68:\n              dup2\n              0x00\n              swap1\n              sload\n              swap1\n              0x0100\n              exp\n              swap1\n              div\n              0xffffffffffffffffffffffffffffffffffffffff\n              and\n              0xffffffffffffffffffffffffffffffffffffffff\n              and\n              dup2\n              mstore\n              0x20\n              add\n              swap1\n              0x01\n              add\n              swap1\n              dup1\n              dup4\n              gt\n              tag_68\n              jumpi\n            tag_67:\n              pop\n              pop\n              pop\n              pop\n              pop\n              swap3\n              pop\n              dup2\n              dup1\n              sload\n              dup1\n              0x20\n              mul\n              0x20\n              add\n              mload(0x40)\n              swap1\n              dup2\n              add\n              0x40\n              mstore\n              dup1\n              swap3\n              swap2\n              swap1\n              dup2\n              dup2\n              mstore\n              0x20\n              add\n              dup3\n              dup1\n              sload\n              dup1\n              iszero\n              tag_69\n              jumpi\n              0x20\n              mul\n              dup3\n              add\n              swap2\n              swap1\n              0x00\n              mstore\n              keccak256(0x00, 0x20)\n              swap1\n            tag_70:\n              dup2\n              0x00\n              swap1\n              sload\n              swap1\n              0x0100\n              exp\n              swap1\n              div\n              0xffffffffffffffffffffffffffffffffffffffff\n              and\n              0xffffffffffffffffffffffffffffffffffffffff\n              and\n              dup2\n              mstore\n              0x20\n              add\n              swap1\n              0x01\n              add\n              swap1\n              dup1\n              dup4\n              gt\n              tag_70\n              jumpi\n            tag_69:\n              pop\n              pop\n              pop\n              pop\n              pop\n              swap2\n              pop\n              swap7\n              pop\n              swap7\n              pop\n              swap7\n              pop\n              swap7\n              pop\n              swap7\n              pop\n              swap7\n              pop\n              swap7\n              pop\n                /* \"Story.sol\":9283:9641  function getSummary() public view returns (... */\n              swap1\n              swap2\n              swap3\n              swap4\n              swap5\n              swap6\n              swap7\n              jump\t// out\n                /* \"Story.sol\":7850:7870  address public story */\n            tag_20:\n              0x00\n              dup1\n              sload\n              swap1\n              0x0100\n              exp\n              swap1\n              div\n              0xffffffffffffffffffffffffffffffffffffffff\n              and\n              dup2\n              jump\t// out\n                /* \"Story.sol\":7906:7925  string public title */\n            tag_24:\n              0x02\n              dup1\n              sload\n              tag_71\n              swap1\n              tag_57\n              jump\t// in\n            tag_71:\n              dup1\n              0x1f\n              add\n              0x20\n              dup1\n              swap2\n              div\n              mul\n              0x20\n              add\n              mload(0x40)\n              swap1\n              dup2\n              add\n              0x40\n              mstore\n              dup1\n              swap3\n              swap2\n              swap1\n              dup2\n              dup2\n              mstore\n              0x20\n              add\n              dup3\n              dup1\n              sload\n              tag_72\n              swap1\n              tag_57\n              jump\t// in\n            tag_72:\n              dup1\n              iszero\n              tag_73\n              jumpi\n              dup1\n              0x1f\n              lt\n              tag_74\n              jumpi\n              0x0100\n              dup1\n              dup4\n              sload\n              div\n              mul\n              dup4\n              mstore\n              swap2\n              0x20\n              add\n              swap2\n              jump(tag_73)\n            tag_74:\n              dup3\n              add\n              swap2\n              swap1\n              0x00\n              mstore\n              keccak256(0x00, 0x20)\n              swap1\n            tag_75:\n              dup2\n              sload\n              dup2\n              mstore\n              swap1\n              0x01\n              add\n              swap1\n              0x20\n              add\n              dup1\n              dup4\n              gt\n              tag_75\n              jumpi\n              dup3\n              swap1\n              sub\n              0x1f\n              and\n              dup3\n              add\n              swap2\n            tag_73:\n              pop\n              pop\n              pop\n              pop\n              pop\n              dup2\n              jump\t// out\n                /* \"Story.sol\":8844:9084  function linkParentChapter(address parentChapter) public {... */\n            tag_30:\n                /* \"Story.sol\":8934:8939  story */\n              0x00\n              dup1\n              sload\n              swap1\n              0x0100\n              exp\n              swap1\n              div\n              0xffffffffffffffffffffffffffffffffffffffff\n              and\n                /* \"Story.sol\":8920:8939  msg.sender == story */\n              0xffffffffffffffffffffffffffffffffffffffff\n              and\n                /* \"Story.sol\":8920:8930  msg.sender */\n              caller\n                /* \"Story.sol\":8920:8939  msg.sender == story */\n              0xffffffffffffffffffffffffffffffffffffffff\n              and\n              eq\n                /* \"Story.sol\":8912:9025  require(msg.sender == story, \"This function has to be called from the story contract by an accepted author only\") */\n              tag_77\n              jumpi\n              mload(0x40)\n              0x08c379a000000000000000000000000000000000000000000000000000000000\n              dup2\n              mstore\n              0x04\n              add\n              tag_78\n              swap1\n              tag_79\n              jump\t// in\n            tag_78:\n              mload(0x40)\n              dup1\n              swap2\n              sub\n              swap1\n              revert\n            tag_77:\n                /* \"Story.sol\":9036:9056  linkedParentChapters */\n              0x04\n                /* \"Story.sol\":9062:9075  parentChapter */\n              dup2\n                /* \"Story.sol\":9036:9076  linkedParentChapters.push(parentChapter) */\n              swap1\n              dup1\n              0x01\n              dup2\n              sload\n              add\n              dup1\n              dup3\n              sstore\n              dup1\n              swap2\n              pop\n              pop\n              0x01\n              swap1\n              sub\n              swap1\n              0x00\n              mstore\n              keccak256(0x00, 0x20)\n              add\n              0x00\n              swap1\n              swap2\n              swap1\n              swap2\n              swap1\n              swap2\n              0x0100\n              exp\n              dup2\n              sload\n              dup2\n              0xffffffffffffffffffffffffffffffffffffffff\n              mul\n              not\n              and\n              swap1\n              dup4\n              0xffffffffffffffffffffffffffffffffffffffff\n              and\n              mul\n              or\n              swap1\n              sstore\n              pop\n                /* \"Story.sol\":8844:9084  function linkParentChapter(address parentChapter) public {... */\n              pop\n              jump\t// out\n                /* \"Story.sol\":8600:8836  function linkChildChapter(address childChapter) public {... */\n            tag_33:\n                /* \"Story.sol\":8688:8693  story */\n              0x00\n              dup1\n              sload\n              swap1\n              0x0100\n              exp\n              swap1\n              div\n              0xffffffffffffffffffffffffffffffffffffffff\n              and\n                /* \"Story.sol\":8674:8693  msg.sender == story */\n              0xffffffffffffffffffffffffffffffffffffffff\n              and\n                /* \"Story.sol\":8674:8684  msg.sender */\n              caller\n                /* \"Story.sol\":8674:8693  msg.sender == story */\n              0xffffffffffffffffffffffffffffffffffffffff\n              and\n              eq\n                /* \"Story.sol\":8666:8779  require(msg.sender == story, \"This function has to be called from the story contract by an accepted author only\") */\n              tag_82\n              jumpi\n              mload(0x40)\n              0x08c379a000000000000000000000000000000000000000000000000000000000\n              dup2\n              mstore\n              0x04\n              add\n              tag_83\n              swap1\n              tag_79\n              jump\t// in\n            tag_83:\n              mload(0x40)\n              dup1\n              swap2\n              sub\n              swap1\n              revert\n            tag_82:\n                /* \"Story.sol\":8790:8809  linkedChildChapters */\n              0x05\n                /* \"Story.sol\":8815:8827  childChapter */\n              dup2\n                /* \"Story.sol\":8790:8828  linkedChildChapters.push(childChapter) */\n              swap1\n              dup1\n              0x01\n              dup2\n              sload\n              add\n              dup1\n              dup3\n              sstore\n              dup1\n              swap2\n              pop\n              pop\n              0x01\n              swap1\n              sub\n              swap1\n              0x00\n              mstore\n              keccak256(0x00, 0x20)\n              add\n              0x00\n              swap1\n              swap2\n              swap1\n              swap2\n              swap1\n              swap2\n              0x0100\n              exp\n              dup2\n              sload\n              dup2\n              0xffffffffffffffffffffffffffffffffffffffff\n              mul\n              not\n              and\n              swap1\n              dup4\n              0xffffffffffffffffffffffffffffffffffffffff\n              and\n              mul\n              or\n              swap1\n              sstore\n              pop\n                /* \"Story.sol\":8600:8836  function linkChildChapter(address childChapter) public {... */\n              pop\n              jump\t// out\n                /* \"Story.sol\":9100:9275  function like() public {... */\n            tag_35:\n                /* \"Story.sol\":9143:9149  likers */\n              0x06\n                /* \"Story.sol\":9143:9161  likers[msg.sender] */\n              0x00\n                /* \"Story.sol\":9150:9160  msg.sender */\n              caller\n                /* \"Story.sol\":9143:9161  likers[msg.sender] */\n              0xffffffffffffffffffffffffffffffffffffffff\n              and\n              0xffffffffffffffffffffffffffffffffffffffff\n              and\n              dup2\n              mstore\n              0x20\n              add\n              swap1\n              dup2\n              mstore\n              0x20\n              add\n              0x00\n              keccak256\n              0x00\n              swap1\n              sload\n              swap1\n              0x0100\n              exp\n              swap1\n              div\n              0xff\n              and\n                /* \"Story.sol\":9142:9161  !likers[msg.sender] */\n              iszero\n                /* \"Story.sol\":9134:9192  require(!likers[msg.sender],\"You liked this story before\") */\n              tag_86\n              jumpi\n              mload(0x40)\n              0x08c379a000000000000000000000000000000000000000000000000000000000\n              dup2\n              mstore\n              0x04\n              add\n              tag_87\n              swap1\n              tag_88\n              jump\t// in\n            tag_87:\n              mload(0x40)\n              dup1\n              swap2\n              sub\n              swap1\n              revert\n            tag_86:\n                /* \"Story.sol\":9224:9228  true */\n              0x01\n                /* \"Story.sol\":9203:9209  likers */\n              0x06\n                /* \"Story.sol\":9203:9221  likers[msg.sender] */\n              0x00\n                /* \"Story.sol\":9210:9220  msg.sender */\n              caller\n                /* \"Story.sol\":9203:9221  likers[msg.sender] */\n              0xffffffffffffffffffffffffffffffffffffffff\n              and\n              0xffffffffffffffffffffffffffffffffffffffff\n              and\n              dup2\n              mstore\n              0x20\n              add\n              swap1\n              dup2\n              mstore\n              0x20\n              add\n              0x00\n              keccak256\n              0x00\n                /* \"Story.sol\":9203:9228  likers[msg.sender] = true */\n              0x0100\n              exp\n              dup2\n              sload\n              dup2\n              0xff\n              mul\n              not\n              and\n              swap1\n              dup4\n              iszero\n              iszero\n              mul\n              or\n              swap1\n              sstore\n              pop\n                /* \"Story.sol\":9251:9267  likeCount.add(1) */\n              tag_89\n                /* \"Story.sol\":9265:9266  1 */\n              0x01\n                /* \"Story.sol\":9251:9260  likeCount */\n              sload(0x07)\n                /* \"Story.sol\":9251:9264  likeCount.add */\n              tag_90\n              swap1\n                /* \"Story.sol\":9251:9267  likeCount.add(1) */\n              swap2\n              swap1\n              0xffffffff\n              and\n              jump\t// in\n            tag_89:\n                /* \"Story.sol\":9239:9248  likeCount */\n              0x07\n                /* \"Story.sol\":9239:9267  likeCount = likeCount.add(1) */\n              dup2\n              swap1\n              sstore\n              pop\n                /* \"Story.sol\":9100:9275  function like() public {... */\n              jump\t// out\n                /* \"Story.sol\":7878:7899  address public author */\n            tag_37:\n              0x01\n              0x00\n              swap1\n              sload\n              swap1\n              0x0100\n              exp\n              swap1\n              div\n              0xffffffffffffffffffffffffffffffffffffffff\n              and\n              dup2\n              jump\t// out\n                /* \"Story.sol\":8005:8041  address[] public linkedChildChapters */\n            tag_42:\n              0x05\n              dup2\n              dup2\n              sload\n              dup2\n              lt\n              tag_91\n              jumpi\n              0x00\n              dup1\n              revert\n            tag_91:\n              swap1\n              0x00\n              mstore\n              keccak256(0x00, 0x20)\n              add\n              0x00\n              swap2\n              pop\n              sload\n              swap1\n              0x0100\n              exp\n              swap1\n              div\n              0xffffffffffffffffffffffffffffffffffffffff\n              and\n              dup2\n              jump\t// out\n                /* \"Story.sol\":7932:7954  string public ipfsHash */\n            tag_45:\n              0x03\n              dup1\n              sload\n              tag_93\n              swap1\n              tag_57\n              jump\t// in\n            tag_93:\n              dup1\n              0x1f\n              add\n              0x20\n              dup1\n              swap2\n              div\n              mul\n              0x20\n              add\n              mload(0x40)\n              swap1\n              dup2\n              add\n              0x40\n              mstore\n              dup1\n              swap3\n              swap2\n              swap1\n              dup2\n              dup2\n              mstore\n              0x20\n              add\n              dup3\n              dup1\n              sload\n              tag_94\n              swap1\n              tag_57\n              jump\t// in\n            tag_94:\n              dup1\n              iszero\n              tag_95\n              jumpi\n              dup1\n              0x1f\n              lt\n              tag_96\n              jumpi\n              0x0100\n              dup1\n              dup4\n              sload\n              div\n              mul\n              dup4\n              mstore\n              swap2\n              0x20\n              add\n              swap2\n              jump(tag_95)\n            tag_96:\n              dup3\n              add\n              swap2\n              swap1\n              0x00\n              mstore\n              keccak256(0x00, 0x20)\n              swap1\n            tag_97:\n              dup2\n              sload\n              dup2\n              mstore\n              swap1\n              0x01\n              add\n              swap1\n              0x20\n              add\n              dup1\n              dup4\n              gt\n              tag_97\n              jumpi\n              dup3\n              swap1\n              sub\n              0x1f\n              and\n              dup3\n              add\n              swap2\n            tag_95:\n              pop\n              pop\n              pop\n              pop\n              pop\n              dup2\n              jump\t// out\n                /* \"Story.sol\":8086:8110  uint256 public likeCount */\n            tag_48:\n              sload(0x07)\n              dup2\n              jump\t// out\n                /* \"Story.sol\":7961:7998  address[] public linkedParentChapters */\n            tag_53:\n              0x04\n              dup2\n              dup2\n              sload\n              dup2\n              lt\n              tag_98\n              jumpi\n              0x00\n              dup1\n              revert\n            tag_98:\n              swap1\n              0x00\n              mstore\n              keccak256(0x00, 0x20)\n              add\n              0x00\n              swap2\n              pop\n              sload\n              swap1\n              0x0100\n              exp\n              swap1\n              div\n              0xffffffffffffffffffffffffffffffffffffffff\n              and\n              dup2\n              jump\t// out\n                /* \"Story.sol\":84:263  function add(uint256 a, uint256 b) internal pure returns (uint256) {... */\n            tag_90:\n                /* \"Story.sol\":142:149  uint256 */\n              0x00\n                /* \"Story.sol\":162:171  uint256 c */\n              dup1\n                /* \"Story.sol\":178:179  b */\n              dup3\n                /* \"Story.sol\":174:175  a */\n              dup5\n                /* \"Story.sol\":174:179  a + b */\n              tag_101\n              swap2\n              swap1\n              tag_102\n              jump\t// in\n            tag_101:\n                /* \"Story.sol\":162:179  uint256 c = a + b */\n              swap1\n              pop\n                /* \"Story.sol\":203:204  a */\n              dup4\n                /* \"Story.sol\":198:199  c */\n              dup2\n                /* \"Story.sol\":198:204  c >= a */\n              lt\n              iszero\n                /* \"Story.sol\":190:236  require(c >= a, \"SafeMath: addition overflow\") */\n              tag_103\n              jumpi\n              mload(0x40)\n              0x08c379a000000000000000000000000000000000000000000000000000000000\n              dup2\n              mstore\n              0x04\n              add\n              tag_104\n              swap1\n              tag_105\n              jump\t// in\n            tag_104:\n              mload(0x40)\n              dup1\n              swap2\n              sub\n              swap1\n              revert\n            tag_103:\n                /* \"Story.sol\":254:255  c */\n              dup1\n                /* \"Story.sol\":247:255  return c */\n              swap2\n              pop\n              pop\n                /* \"Story.sol\":84:263  function add(uint256 a, uint256 b) internal pure returns (uint256) {... */\n              swap3\n              swap2\n              pop\n              pop\n              jump\t// out\n                /* \"#utility.yul\":7:133   */\n            tag_106:\n                /* \"#utility.yul\":44:51   */\n              0x00\n                /* \"#utility.yul\":84:126   */\n              0xffffffffffffffffffffffffffffffffffffffff\n                /* \"#utility.yul\":77:82   */\n              dup3\n                /* \"#utility.yul\":73:127   */\n              and\n                /* \"#utility.yul\":62:127   */\n              swap1\n              pop\n                /* \"#utility.yul\":7:133   */\n              swap2\n              swap1\n              pop\n              jump\t// out\n                /* \"#utility.yul\":139:235   */\n            tag_107:\n                /* \"#utility.yul\":176:183   */\n              0x00\n                /* \"#utility.yul\":205:229   */\n              tag_141\n                /* \"#utility.yul\":223:228   */\n              dup3\n                /* \"#utility.yul\":205:229   */\n              tag_106\n              jump\t// in\n            tag_141:\n                /* \"#utility.yul\":194:229   */\n              swap1\n              pop\n                /* \"#utility.yul\":139:235   */\n              swap2\n              swap1\n              pop\n              jump\t// out\n                /* \"#utility.yul\":241:359   */\n            tag_108:\n                /* \"#utility.yul\":328:352   */\n              tag_143\n                /* \"#utility.yul\":346:351   */\n              dup2\n                /* \"#utility.yul\":328:352   */\n              tag_107\n              jump\t// in\n            tag_143:\n                /* \"#utility.yul\":323:326   */\n              dup3\n                /* \"#utility.yul\":316:353   */\n              mstore\n                /* \"#utility.yul\":241:359   */\n              pop\n              pop\n              jump\t// out\n                /* \"#utility.yul\":365:464   */\n            tag_109:\n                /* \"#utility.yul\":417:423   */\n              0x00\n                /* \"#utility.yul\":451:456   */\n              dup2\n                /* \"#utility.yul\":445:457   */\n              mload\n                /* \"#utility.yul\":435:457   */\n              swap1\n              pop\n                /* \"#utility.yul\":365:464   */\n              swap2\n              swap1\n              pop\n              jump\t// out\n                /* \"#utility.yul\":470:639   */\n            tag_110:\n                /* \"#utility.yul\":554:565   */\n              0x00\n                /* \"#utility.yul\":588:594   */\n              dup3\n                /* \"#utility.yul\":583:586   */\n              dup3\n                /* \"#utility.yul\":576:595   */\n              mstore\n                /* \"#utility.yul\":628:632   */\n              0x20\n                /* \"#utility.yul\":623:626   */\n              dup3\n                /* \"#utility.yul\":619:633   */\n              add\n                /* \"#utility.yul\":604:633   */\n              swap1\n              pop\n                /* \"#utility.yul\":470:639   */\n              swap3\n              swap2\n              pop\n              pop\n              jump\t// out\n                /* \"#utility.yul\":645:952   */\n            tag_111:\n                /* \"#utility.yul\":713:714   */\n              0x00\n                /* \"#utility.yul\":723:836   */\n            tag_147:\n                /* \"#utility.yul\":737:743   */\n              dup4\n                /* \"#utility.yul\":734:735   */\n              dup2\n                /* \"#utility.yul\":731:744   */\n              lt\n                /* \"#utility.yul\":723:836   */\n              iszero\n              tag_149\n              jumpi\n                /* \"#utility.yul\":822:823   */\n              dup1\n                /* \"#utility.yul\":817:820   */\n              dup3\n                /* \"#utility.yul\":813:824   */\n              add\n                /* \"#utility.yul\":807:825   */\n              mload\n                /* \"#utility.yul\":803:804   */\n              dup2\n                /* \"#utility.yul\":798:801   */\n              dup5\n                /* \"#utility.yul\":794:805   */\n              add\n                /* \"#utility.yul\":787:826   */\n              mstore\n                /* \"#utility.yul\":759:761   */\n              0x20\n                /* \"#utility.yul\":756:757   */\n              dup2\n                /* \"#utility.yul\":752:762   */\n              add\n                /* \"#utility.yul\":747:762   */\n              swap1\n              pop\n                /* \"#utility.yul\":723:836   */\n              jump(tag_147)\n            tag_149:\n                /* \"#utility.yul\":854:860   */\n              dup4\n                /* \"#utility.yul\":851:852   */\n              dup2\n                /* \"#utility.yul\":848:861   */\n              gt\n                /* \"#utility.yul\":845:946   */\n              iszero\n              tag_150\n              jumpi\n                /* \"#utility.yul\":934:935   */\n              0x00\n                /* \"#utility.yul\":925:931   */\n              dup5\n                /* \"#utility.yul\":920:923   */\n              dup5\n                /* \"#utility.yul\":916:932   */\n              add\n                /* \"#utility.yul\":909:936   */\n              mstore\n                /* \"#utility.yul\":845:946   */\n            tag_150:\n                /* \"#utility.yul\":694:952   */\n              pop\n                /* \"#utility.yul\":645:952   */\n              pop\n              pop\n              pop\n              jump\t// out\n                /* \"#utility.yul\":958:1060   */\n            tag_112:\n                /* \"#utility.yul\":999:1005   */\n              0x00\n                /* \"#utility.yul\":1050:1052   */\n              0x1f\n                /* \"#utility.yul\":1046:1053   */\n              not\n                /* \"#utility.yul\":1041:1043   */\n              0x1f\n                /* \"#utility.yul\":1034:1039   */\n              dup4\n                /* \"#utility.yul\":1030:1044   */\n              add\n                /* \"#utility.yul\":1026:1054   */\n              and\n                /* \"#utility.yul\":1016:1054   */\n              swap1\n              pop\n                /* \"#utility.yul\":958:1060   */\n              swap2\n              swap1\n              pop\n              jump\t// out\n                /* \"#utility.yul\":1066:1430   */\n            tag_113:\n                /* \"#utility.yul\":1154:1157   */\n              0x00\n                /* \"#utility.yul\":1182:1221   */\n              tag_153\n                /* \"#utility.yul\":1215:1220   */\n              dup3\n                /* \"#utility.yul\":1182:1221   */\n              tag_109\n              jump\t// in\n            tag_153:\n                /* \"#utility.yul\":1237:1308   */\n              tag_154\n                /* \"#utility.yul\":1301:1307   */\n              dup2\n                /* \"#utility.yul\":1296:1299   */\n              dup6\n                /* \"#utility.yul\":1237:1308   */\n              tag_110\n              jump\t// in\n            tag_154:\n                /* \"#utility.yul\":1230:1308   */\n              swap4\n              pop\n                /* \"#utility.yul\":1317:1369   */\n              tag_155\n                /* \"#utility.yul\":1362:1368   */\n              dup2\n                /* \"#utility.yul\":1357:1360   */\n              dup6\n                /* \"#utility.yul\":1350:1354   */\n              0x20\n                /* \"#utility.yul\":1343:1348   */\n              dup7\n                /* \"#utility.yul\":1339:1355   */\n              add\n                /* \"#utility.yul\":1317:1369   */\n              tag_111\n              jump\t// in\n            tag_155:\n                /* \"#utility.yul\":1394:1423   */\n              tag_156\n                /* \"#utility.yul\":1416:1422   */\n              dup2\n                /* \"#utility.yul\":1394:1423   */\n              tag_112\n              jump\t// in\n            tag_156:\n                /* \"#utility.yul\":1389:1392   */\n              dup5\n                /* \"#utility.yul\":1385:1424   */\n              add\n                /* \"#utility.yul\":1378:1424   */\n              swap2\n              pop\n                /* \"#utility.yul\":1158:1430   */\n              pop\n                /* \"#utility.yul\":1066:1430   */\n              swap3\n              swap2\n              pop\n              pop\n              jump\t// out\n                /* \"#utility.yul\":1436:1550   */\n            tag_114:\n                /* \"#utility.yul\":1503:1509   */\n              0x00\n                /* \"#utility.yul\":1537:1542   */\n              dup2\n                /* \"#utility.yul\":1531:1543   */\n              mload\n                /* \"#utility.yul\":1521:1543   */\n              swap1\n              pop\n                /* \"#utility.yul\":1436:1550   */\n              swap2\n              swap1\n              pop\n              jump\t// out\n                /* \"#utility.yul\":1556:1740   */\n            tag_115:\n                /* \"#utility.yul\":1655:1666   */\n              0x00\n                /* \"#utility.yul\":1689:1695   */\n              dup3\n                /* \"#utility.yul\":1684:1687   */\n              dup3\n                /* \"#utility.yul\":1677:1696   */\n              mstore\n                /* \"#utility.yul\":1729:1733   */\n              0x20\n                /* \"#utility.yul\":1724:1727   */\n              dup3\n                /* \"#utility.yul\":1720:1734   */\n              add\n                /* \"#utility.yul\":1705:1734   */\n              swap1\n              pop\n                /* \"#utility.yul\":1556:1740   */\n              swap3\n              swap2\n              pop\n              pop\n              jump\t// out\n                /* \"#utility.yul\":1746:1878   */\n            tag_116:\n                /* \"#utility.yul\":1813:1817   */\n              0x00\n                /* \"#utility.yul\":1836:1839   */\n              dup2\n                /* \"#utility.yul\":1828:1839   */\n              swap1\n              pop\n                /* \"#utility.yul\":1866:1870   */\n              0x20\n                /* \"#utility.yul\":1861:1864   */\n              dup3\n                /* \"#utility.yul\":1857:1871   */\n              add\n                /* \"#utility.yul\":1849:1871   */\n              swap1\n              pop\n                /* \"#utility.yul\":1746:1878   */\n              swap2\n              swap1\n              pop\n              jump\t// out\n                /* \"#utility.yul\":1884:1992   */\n            tag_117:\n                /* \"#utility.yul\":1961:1985   */\n              tag_161\n                /* \"#utility.yul\":1979:1984   */\n              dup2\n                /* \"#utility.yul\":1961:1985   */\n              tag_107\n              jump\t// in\n            tag_161:\n                /* \"#utility.yul\":1956:1959   */\n              dup3\n                /* \"#utility.yul\":1949:1986   */\n              mstore\n                /* \"#utility.yul\":1884:1992   */\n              pop\n              pop\n              jump\t// out\n                /* \"#utility.yul\":1998:2177   */\n            tag_118:\n                /* \"#utility.yul\":2067:2077   */\n              0x00\n                /* \"#utility.yul\":2088:2134   */\n              tag_163\n                /* \"#utility.yul\":2130:2133   */\n              dup4\n                /* \"#utility.yul\":2122:2128   */\n              dup4\n                /* \"#utility.yul\":2088:2134   */\n              tag_117\n              jump\t// in\n            tag_163:\n                /* \"#utility.yul\":2166:2170   */\n              0x20\n                /* \"#utility.yul\":2161:2164   */\n              dup4\n                /* \"#utility.yul\":2157:2171   */\n              add\n                /* \"#utility.yul\":2143:2171   */\n              swap1\n              pop\n                /* \"#utility.yul\":1998:2177   */\n              swap3\n              swap2\n              pop\n              pop\n              jump\t// out\n                /* \"#utility.yul\":2183:2296   */\n            tag_119:\n                /* \"#utility.yul\":2253:2257   */\n              0x00\n                /* \"#utility.yul\":2285:2289   */\n              0x20\n                /* \"#utility.yul\":2280:2283   */\n              dup3\n                /* \"#utility.yul\":2276:2290   */\n              add\n                /* \"#utility.yul\":2268:2290   */\n              swap1\n              pop\n                /* \"#utility.yul\":2183:2296   */\n              swap2\n              swap1\n              pop\n              jump\t// out\n                /* \"#utility.yul\":2332:3064   */\n            tag_120:\n                /* \"#utility.yul\":2451:2454   */\n              0x00\n                /* \"#utility.yul\":2480:2534   */\n              tag_166\n                /* \"#utility.yul\":2528:2533   */\n              dup3\n                /* \"#utility.yul\":2480:2534   */\n              tag_114\n              jump\t// in\n            tag_166:\n                /* \"#utility.yul\":2550:2636   */\n              tag_167\n                /* \"#utility.yul\":2629:2635   */\n              dup2\n                /* \"#utility.yul\":2624:2627   */\n              dup6\n                /* \"#utility.yul\":2550:2636   */\n              tag_115\n              jump\t// in\n            tag_167:\n                /* \"#utility.yul\":2543:2636   */\n              swap4\n              pop\n                /* \"#utility.yul\":2660:2716   */\n              tag_168\n                /* \"#utility.yul\":2710:2715   */\n              dup4\n                /* \"#utility.yul\":2660:2716   */\n              tag_116\n              jump\t// in\n            tag_168:\n                /* \"#utility.yul\":2739:2746   */\n              dup1\n                /* \"#utility.yul\":2770:2771   */\n              0x00\n                /* \"#utility.yul\":2755:3039   */\n            tag_169:\n                /* \"#utility.yul\":2780:2786   */\n              dup4\n                /* \"#utility.yul\":2777:2778   */\n              dup2\n                /* \"#utility.yul\":2774:2787   */\n              lt\n                /* \"#utility.yul\":2755:3039   */\n              iszero\n              tag_171\n              jumpi\n                /* \"#utility.yul\":2856:2862   */\n              dup2\n                /* \"#utility.yul\":2850:2863   */\n              mload\n                /* \"#utility.yul\":2883:2946   */\n              tag_172\n                /* \"#utility.yul\":2942:2945   */\n              dup9\n                /* \"#utility.yul\":2927:2940   */\n              dup3\n                /* \"#utility.yul\":2883:2946   */\n              tag_118\n              jump\t// in\n            tag_172:\n                /* \"#utility.yul\":2876:2946   */\n              swap8\n              pop\n                /* \"#utility.yul\":2969:3029   */\n              tag_173\n                /* \"#utility.yul\":3022:3028   */\n              dup4\n                /* \"#utility.yul\":2969:3029   */\n              tag_119\n              jump\t// in\n            tag_173:\n                /* \"#utility.yul\":2959:3029   */\n              swap3\n              pop\n                /* \"#utility.yul\":2815:3039   */\n              pop\n                /* \"#utility.yul\":2802:2803   */\n              0x01\n                /* \"#utility.yul\":2799:2800   */\n              dup2\n                /* \"#utility.yul\":2795:2804   */\n              add\n                /* \"#utility.yul\":2790:2804   */\n              swap1\n              pop\n                /* \"#utility.yul\":2755:3039   */\n              jump(tag_169)\n            tag_171:\n                /* \"#utility.yul\":2759:2773   */\n              pop\n                /* \"#utility.yul\":3055:3058   */\n              dup6\n                /* \"#utility.yul\":3048:3058   */\n              swap4\n              pop\n                /* \"#utility.yul\":2456:3064   */\n              pop\n              pop\n              pop\n                /* \"#utility.yul\":2332:3064   */\n              swap3\n              swap2\n              pop\n              pop\n              jump\t// out\n                /* \"#utility.yul\":3070:3147   */\n            tag_121:\n                /* \"#utility.yul\":3107:3114   */\n              0x00\n                /* \"#utility.yul\":3136:3141   */\n              dup2\n                /* \"#utility.yul\":3125:3141   */\n              swap1\n              pop\n                /* \"#utility.yul\":3070:3147   */\n              swap2\n              swap1\n              pop\n              jump\t// out\n                /* \"#utility.yul\":3153:3271   */\n            tag_122:\n                /* \"#utility.yul\":3240:3264   */\n              tag_176\n                /* \"#utility.yul\":3258:3263   */\n              dup2\n                /* \"#utility.yul\":3240:3264   */\n              tag_121\n              jump\t// in\n            tag_176:\n                /* \"#utility.yul\":3235:3238   */\n              dup3\n                /* \"#utility.yul\":3228:3265   */\n              mstore\n                /* \"#utility.yul\":3153:3271   */\n              pop\n              pop\n              jump\t// out\n                /* \"#utility.yul\":3277:4647   */\n            tag_18:\n                /* \"#utility.yul\":3678:3682   */\n              0x00\n                /* \"#utility.yul\":3716:3719   */\n              0xe0\n                /* \"#utility.yul\":3705:3714   */\n              dup3\n                /* \"#utility.yul\":3701:3720   */\n              add\n                /* \"#utility.yul\":3693:3720   */\n              swap1\n              pop\n                /* \"#utility.yul\":3730:3801   */\n              tag_178\n                /* \"#utility.yul\":3798:3799   */\n              0x00\n                /* \"#utility.yul\":3787:3796   */\n              dup4\n                /* \"#utility.yul\":3783:3800   */\n              add\n                /* \"#utility.yul\":3774:3780   */\n              dup11\n                /* \"#utility.yul\":3730:3801   */\n              tag_108\n              jump\t// in\n            tag_178:\n                /* \"#utility.yul\":3811:3883   */\n              tag_179\n                /* \"#utility.yul\":3879:3881   */\n              0x20\n                /* \"#utility.yul\":3868:3877   */\n              dup4\n                /* \"#utility.yul\":3864:3882   */\n              add\n                /* \"#utility.yul\":3855:3861   */\n              dup10\n                /* \"#utility.yul\":3811:3883   */\n              tag_108\n              jump\t// in\n            tag_179:\n                /* \"#utility.yul\":3930:3939   */\n              dup2\n                /* \"#utility.yul\":3924:3928   */\n              dup2\n                /* \"#utility.yul\":3920:3940   */\n              sub\n                /* \"#utility.yul\":3915:3917   */\n              0x40\n                /* \"#utility.yul\":3904:3913   */\n              dup4\n                /* \"#utility.yul\":3900:3918   */\n              add\n                /* \"#utility.yul\":3893:3941   */\n              mstore\n                /* \"#utility.yul\":3958:4036   */\n              tag_180\n                /* \"#utility.yul\":4031:4035   */\n              dup2\n                /* \"#utility.yul\":4022:4028   */\n              dup9\n                /* \"#utility.yul\":3958:4036   */\n              tag_113\n              jump\t// in\n            tag_180:\n                /* \"#utility.yul\":3950:4036   */\n              swap1\n              pop\n                /* \"#utility.yul\":4083:4092   */\n              dup2\n                /* \"#utility.yul\":4077:4081   */\n              dup2\n                /* \"#utility.yul\":4073:4093   */\n              sub\n                /* \"#utility.yul\":4068:4070   */\n              0x60\n                /* \"#utility.yul\":4057:4066   */\n              dup4\n                /* \"#utility.yul\":4053:4071   */\n              add\n                /* \"#utility.yul\":4046:4094   */\n              mstore\n                /* \"#utility.yul\":4111:4189   */\n              tag_181\n                /* \"#utility.yul\":4184:4188   */\n              dup2\n                /* \"#utility.yul\":4175:4181   */\n              dup8\n                /* \"#utility.yul\":4111:4189   */\n              tag_113\n              jump\t// in\n            tag_181:\n                /* \"#utility.yul\":4103:4189   */\n              swap1\n              pop\n                /* \"#utility.yul\":4237:4246   */\n              dup2\n                /* \"#utility.yul\":4231:4235   */\n              dup2\n                /* \"#utility.yul\":4227:4247   */\n              sub\n                /* \"#utility.yul\":4221:4224   */\n              0x80\n                /* \"#utility.yul\":4210:4219   */\n              dup4\n                /* \"#utility.yul\":4206:4225   */\n              add\n                /* \"#utility.yul\":4199:4248   */\n              mstore\n                /* \"#utility.yul\":4265:4373   */\n              tag_182\n                /* \"#utility.yul\":4368:4372   */\n              dup2\n                /* \"#utility.yul\":4359:4365   */\n              dup7\n                /* \"#utility.yul\":4265:4373   */\n              tag_120\n              jump\t// in\n            tag_182:\n                /* \"#utility.yul\":4257:4373   */\n              swap1\n              pop\n                /* \"#utility.yul\":4421:4430   */\n              dup2\n                /* \"#utility.yul\":4415:4419   */\n              dup2\n                /* \"#utility.yul\":4411:4431   */\n              sub\n                /* \"#utility.yul\":4405:4408   */\n              0xa0\n                /* \"#utility.yul\":4394:4403   */\n              dup4\n                /* \"#utility.yul\":4390:4409   */\n              add\n                /* \"#utility.yul\":4383:4432   */\n              mstore\n                /* \"#utility.yul\":4449:4557   */\n              tag_183\n                /* \"#utility.yul\":4552:4556   */\n              dup2\n                /* \"#utility.yul\":4543:4549   */\n              dup6\n                /* \"#utility.yul\":4449:4557   */\n              tag_120\n              jump\t// in\n            tag_183:\n                /* \"#utility.yul\":4441:4557   */\n              swap1\n              pop\n                /* \"#utility.yul\":4567:4640   */\n              tag_184\n                /* \"#utility.yul\":4635:4638   */\n              0xc0\n                /* \"#utility.yul\":4624:4633   */\n              dup4\n                /* \"#utility.yul\":4620:4639   */\n              add\n                /* \"#utility.yul\":4611:4617   */\n              dup5\n                /* \"#utility.yul\":4567:4640   */\n              tag_122\n              jump\t// in\n            tag_184:\n                /* \"#utility.yul\":3277:4647   */\n              swap9\n              swap8\n              pop\n              pop\n              pop\n              pop\n              pop\n              pop\n              pop\n              pop\n              jump\t// out\n                /* \"#utility.yul\":4653:4875   */\n            tag_22:\n                /* \"#utility.yul\":4746:4750   */\n              0x00\n                /* \"#utility.yul\":4784:4786   */\n              0x20\n                /* \"#utility.yul\":4773:4782   */\n              dup3\n                /* \"#utility.yul\":4769:4787   */\n              add\n                /* \"#utility.yul\":4761:4787   */\n              swap1\n              pop\n                /* \"#utility.yul\":4797:4868   */\n              tag_186\n                /* \"#utility.yul\":4865:4866   */\n              0x00\n                /* \"#utility.yul\":4854:4863   */\n              dup4\n                /* \"#utility.yul\":4850:4867   */\n              add\n                /* \"#utility.yul\":4841:4847   */\n              dup5\n                /* \"#utility.yul\":4797:4868   */\n              tag_108\n              jump\t// in\n            tag_186:\n                /* \"#utility.yul\":4653:4875   */\n              swap3\n              swap2\n              pop\n              pop\n              jump\t// out\n                /* \"#utility.yul\":4881:5194   */\n            tag_26:\n                /* \"#utility.yul\":4994:4998   */\n              0x00\n                /* \"#utility.yul\":5032:5034   */\n              0x20\n                /* \"#utility.yul\":5021:5030   */\n              dup3\n                /* \"#utility.yul\":5017:5035   */\n              add\n                /* \"#utility.yul\":5009:5035   */\n              swap1\n              pop\n                /* \"#utility.yul\":5081:5090   */\n              dup2\n                /* \"#utility.yul\":5075:5079   */\n              dup2\n                /* \"#utility.yul\":5071:5091   */\n              sub\n                /* \"#utility.yul\":5067:5068   */\n              0x00\n                /* \"#utility.yul\":5056:5065   */\n              dup4\n                /* \"#utility.yul\":5052:5069   */\n              add\n                /* \"#utility.yul\":5045:5092   */\n              mstore\n                /* \"#utility.yul\":5109:5187   */\n              tag_188\n                /* \"#utility.yul\":5182:5186   */\n              dup2\n                /* \"#utility.yul\":5173:5179   */\n              dup5\n                /* \"#utility.yul\":5109:5187   */\n              tag_113\n              jump\t// in\n            tag_188:\n                /* \"#utility.yul\":5101:5187   */\n              swap1\n              pop\n                /* \"#utility.yul\":4881:5194   */\n              swap3\n              swap2\n              pop\n              pop\n              jump\t// out\n                /* \"#utility.yul\":5281:5398   */\n            tag_124:\n                /* \"#utility.yul\":5390:5391   */\n              0x00\n                /* \"#utility.yul\":5387:5388   */\n              dup1\n                /* \"#utility.yul\":5380:5392   */\n              revert\n                /* \"#utility.yul\":5527:5649   */\n            tag_126:\n                /* \"#utility.yul\":5600:5624   */\n              tag_193\n                /* \"#utility.yul\":5618:5623   */\n              dup2\n                /* \"#utility.yul\":5600:5624   */\n              tag_107\n              jump\t// in\n            tag_193:\n                /* \"#utility.yul\":5593:5598   */\n              dup2\n                /* \"#utility.yul\":5590:5625   */\n              eq\n                /* \"#utility.yul\":5580:5643   */\n              tag_194\n              jumpi\n                /* \"#utility.yul\":5639:5640   */\n              0x00\n                /* \"#utility.yul\":5636:5637   */\n              dup1\n                /* \"#utility.yul\":5629:5641   */\n              revert\n                /* \"#utility.yul\":5580:5643   */\n            tag_194:\n                /* \"#utility.yul\":5527:5649   */\n              pop\n              jump\t// out\n                /* \"#utility.yul\":5655:5794   */\n            tag_127:\n                /* \"#utility.yul\":5701:5706   */\n              0x00\n                /* \"#utility.yul\":5739:5745   */\n              dup2\n                /* \"#utility.yul\":5726:5746   */\n              calldataload\n                /* \"#utility.yul\":5717:5746   */\n              swap1\n              pop\n                /* \"#utility.yul\":5755:5788   */\n              tag_196\n                /* \"#utility.yul\":5782:5787   */\n              dup2\n                /* \"#utility.yul\":5755:5788   */\n              tag_126\n              jump\t// in\n            tag_196:\n                /* \"#utility.yul\":5655:5794   */\n              swap3\n              swap2\n              pop\n              pop\n              jump\t// out\n                /* \"#utility.yul\":5800:6129   */\n            tag_29:\n                /* \"#utility.yul\":5859:5865   */\n              0x00\n                /* \"#utility.yul\":5908:5910   */\n              0x20\n                /* \"#utility.yul\":5896:5905   */\n              dup3\n                /* \"#utility.yul\":5887:5894   */\n              dup5\n                /* \"#utility.yul\":5883:5906   */\n              sub\n                /* \"#utility.yul\":5879:5911   */\n              slt\n                /* \"#utility.yul\":5876:5995   */\n              iszero\n              tag_198\n              jumpi\n                /* \"#utility.yul\":5914:5993   */\n              tag_199\n              tag_124\n              jump\t// in\n            tag_199:\n                /* \"#utility.yul\":5876:5995   */\n            tag_198:\n                /* \"#utility.yul\":6034:6035   */\n              0x00\n                /* \"#utility.yul\":6059:6112   */\n              tag_200\n                /* \"#utility.yul\":6104:6111   */\n              dup5\n                /* \"#utility.yul\":6095:6101   */\n              dup3\n                /* \"#utility.yul\":6084:6093   */\n              dup6\n                /* \"#utility.yul\":6080:6102   */\n              add\n                /* \"#utility.yul\":6059:6112   */\n              tag_127\n              jump\t// in\n            tag_200:\n                /* \"#utility.yul\":6049:6112   */\n              swap2\n              pop\n                /* \"#utility.yul\":6005:6122   */\n              pop\n                /* \"#utility.yul\":5800:6129   */\n              swap3\n              swap2\n              pop\n              pop\n              jump\t// out\n                /* \"#utility.yul\":6135:6257   */\n            tag_128:\n                /* \"#utility.yul\":6208:6232   */\n              tag_202\n                /* \"#utility.yul\":6226:6231   */\n              dup2\n                /* \"#utility.yul\":6208:6232   */\n              tag_121\n              jump\t// in\n            tag_202:\n                /* \"#utility.yul\":6201:6206   */\n              dup2\n                /* \"#utility.yul\":6198:6233   */\n              eq\n                /* \"#utility.yul\":6188:6251   */\n              tag_203\n              jumpi\n                /* \"#utility.yul\":6247:6248   */\n              0x00\n                /* \"#utility.yul\":6244:6245   */\n              dup1\n                /* \"#utility.yul\":6237:6249   */\n              revert\n                /* \"#utility.yul\":6188:6251   */\n            tag_203:\n                /* \"#utility.yul\":6135:6257   */\n              pop\n              jump\t// out\n                /* \"#utility.yul\":6263:6402   */\n            tag_129:\n                /* \"#utility.yul\":6309:6314   */\n              0x00\n                /* \"#utility.yul\":6347:6353   */\n              dup2\n                /* \"#utility.yul\":6334:6354   */\n              calldataload\n                /* \"#utility.yul\":6325:6354   */\n              swap1\n              pop\n                /* \"#utility.yul\":6363:6396   */\n              tag_205\n                /* \"#utility.yul\":6390:6395   */\n              dup2\n                /* \"#utility.yul\":6363:6396   */\n              tag_128\n              jump\t// in\n            tag_205:\n                /* \"#utility.yul\":6263:6402   */\n              swap3\n              swap2\n              pop\n              pop\n              jump\t// out\n                /* \"#utility.yul\":6408:6737   */\n            tag_41:\n                /* \"#utility.yul\":6467:6473   */\n              0x00\n                /* \"#utility.yul\":6516:6518   */\n              0x20\n                /* \"#utility.yul\":6504:6513   */\n              dup3\n                /* \"#utility.yul\":6495:6502   */\n              dup5\n                /* \"#utility.yul\":6491:6514   */\n              sub\n                /* \"#utility.yul\":6487:6519   */\n              slt\n                /* \"#utility.yul\":6484:6603   */\n              iszero\n              tag_207\n              jumpi\n                /* \"#utility.yul\":6522:6601   */\n              tag_208\n              tag_124\n              jump\t// in\n            tag_208:\n                /* \"#utility.yul\":6484:6603   */\n            tag_207:\n                /* \"#utility.yul\":6642:6643   */\n              0x00\n                /* \"#utility.yul\":6667:6720   */\n              tag_209\n                /* \"#utility.yul\":6712:6719   */\n              dup5\n                /* \"#utility.yul\":6703:6709   */\n              dup3\n                /* \"#utility.yul\":6692:6701   */\n              dup6\n                /* \"#utility.yul\":6688:6710   */\n              add\n                /* \"#utility.yul\":6667:6720   */\n              tag_129\n              jump\t// in\n            tag_209:\n                /* \"#utility.yul\":6657:6720   */\n              swap2\n              pop\n                /* \"#utility.yul\":6613:6730   */\n              pop\n                /* \"#utility.yul\":6408:6737   */\n              swap3\n              swap2\n              pop\n              pop\n              jump\t// out\n                /* \"#utility.yul\":6743:6965   */\n            tag_50:\n                /* \"#utility.yul\":6836:6840   */\n              0x00\n                /* \"#utility.yul\":6874:6876   */\n              0x20\n                /* \"#utility.yul\":6863:6872   */\n              dup3\n                /* \"#utility.yul\":6859:6877   */\n              add\n                /* \"#utility.yul\":6851:6877   */\n              swap1\n              pop\n                /* \"#utility.yul\":6887:6958   */\n              tag_211\n                /* \"#utility.yul\":6955:6956   */\n              0x00\n                /* \"#utility.yul\":6944:6953   */\n              dup4\n                /* \"#utility.yul\":6940:6957   */\n              add\n                /* \"#utility.yul\":6931:6937   */\n              dup5\n                /* \"#utility.yul\":6887:6958   */\n              tag_122\n              jump\t// in\n            tag_211:\n                /* \"#utility.yul\":6743:6965   */\n              swap3\n              swap2\n              pop\n              pop\n              jump\t// out\n                /* \"#utility.yul\":6971:7151   */\n            tag_130:\n                /* \"#utility.yul\":7019:7096   */\n              0x4e487b7100000000000000000000000000000000000000000000000000000000\n                /* \"#utility.yul\":7016:7017   */\n              0x00\n                /* \"#utility.yul\":7009:7097   */\n              mstore\n                /* \"#utility.yul\":7116:7120   */\n              0x22\n                /* \"#utility.yul\":7113:7114   */\n              0x04\n                /* \"#utility.yul\":7106:7121   */\n              mstore\n                /* \"#utility.yul\":7140:7144   */\n              0x24\n                /* \"#utility.yul\":7137:7138   */\n              0x00\n                /* \"#utility.yul\":7130:7145   */\n              revert\n                /* \"#utility.yul\":7157:7477   */\n            tag_57:\n                /* \"#utility.yul\":7201:7207   */\n              0x00\n                /* \"#utility.yul\":7238:7239   */\n              0x02\n                /* \"#utility.yul\":7232:7236   */\n              dup3\n                /* \"#utility.yul\":7228:7240   */\n              div\n                /* \"#utility.yul\":7218:7240   */\n              swap1\n              pop\n                /* \"#utility.yul\":7285:7286   */\n              0x01\n                /* \"#utility.yul\":7279:7283   */\n              dup3\n                /* \"#utility.yul\":7275:7287   */\n              and\n                /* \"#utility.yul\":7306:7324   */\n              dup1\n                /* \"#utility.yul\":7296:7377   */\n              tag_214\n              jumpi\n                /* \"#utility.yul\":7362:7366   */\n              0x7f\n                /* \"#utility.yul\":7354:7360   */\n              dup3\n                /* \"#utility.yul\":7350:7367   */\n              and\n                /* \"#utility.yul\":7340:7367   */\n              swap2\n              pop\n                /* \"#utility.yul\":7296:7377   */\n            tag_214:\n                /* \"#utility.yul\":7424:7426   */\n              0x20\n                /* \"#utility.yul\":7416:7422   */\n              dup3\n                /* \"#utility.yul\":7413:7427   */\n              lt\n                /* \"#utility.yul\":7393:7411   */\n              dup2\n                /* \"#utility.yul\":7390:7428   */\n              eq\n                /* \"#utility.yul\":7387:7471   */\n              iszero\n              tag_215\n              jumpi\n                /* \"#utility.yul\":7443:7461   */\n              tag_216\n              tag_130\n              jump\t// in\n            tag_216:\n                /* \"#utility.yul\":7387:7471   */\n            tag_215:\n                /* \"#utility.yul\":7208:7477   */\n              pop\n                /* \"#utility.yul\":7157:7477   */\n              swap2\n              swap1\n              pop\n              jump\t// out\n                /* \"#utility.yul\":7483:7788   */\n            tag_131:\n                /* \"#utility.yul\":7623:7657   */\n              0x546869732066756e6374696f6e2068617320746f2062652063616c6c65642066\n                /* \"#utility.yul\":7619:7620   */\n              0x00\n                /* \"#utility.yul\":7611:7617   */\n              dup3\n                /* \"#utility.yul\":7607:7621   */\n              add\n                /* \"#utility.yul\":7600:7658   */\n              mstore\n                /* \"#utility.yul\":7692:7726   */\n              0x726f6d207468652073746f727920636f6e747261637420627920616e20616363\n                /* \"#utility.yul\":7687:7689   */\n              0x20\n                /* \"#utility.yul\":7679:7685   */\n              dup3\n                /* \"#utility.yul\":7675:7690   */\n              add\n                /* \"#utility.yul\":7668:7727   */\n              mstore\n                /* \"#utility.yul\":7761:7780   */\n              0x657074656420617574686f72206f6e6c79000000000000000000000000000000\n                /* \"#utility.yul\":7756:7758   */\n              0x40\n                /* \"#utility.yul\":7748:7754   */\n              dup3\n                /* \"#utility.yul\":7744:7759   */\n              add\n                /* \"#utility.yul\":7737:7781   */\n              mstore\n                /* \"#utility.yul\":7483:7788   */\n              pop\n              jump\t// out\n                /* \"#utility.yul\":7794:8160   */\n            tag_132:\n                /* \"#utility.yul\":7936:7939   */\n              0x00\n                /* \"#utility.yul\":7957:8024   */\n              tag_219\n                /* \"#utility.yul\":8021:8023   */\n              0x51\n                /* \"#utility.yul\":8016:8019   */\n              dup4\n                /* \"#utility.yul\":7957:8024   */\n              tag_110\n              jump\t// in\n            tag_219:\n                /* \"#utility.yul\":7950:8024   */\n              swap2\n              pop\n                /* \"#utility.yul\":8033:8126   */\n              tag_220\n                /* \"#utility.yul\":8122:8125   */\n              dup3\n                /* \"#utility.yul\":8033:8126   */\n              tag_131\n              jump\t// in\n            tag_220:\n                /* \"#utility.yul\":8151:8153   */\n              0x60\n                /* \"#utility.yul\":8146:8149   */\n              dup3\n                /* \"#utility.yul\":8142:8154   */\n              add\n                /* \"#utility.yul\":8135:8154   */\n              swap1\n              pop\n                /* \"#utility.yul\":7794:8160   */\n              swap2\n              swap1\n              pop\n              jump\t// out\n                /* \"#utility.yul\":8166:8585   */\n            tag_79:\n                /* \"#utility.yul\":8332:8336   */\n              0x00\n                /* \"#utility.yul\":8370:8372   */\n              0x20\n                /* \"#utility.yul\":8359:8368   */\n              dup3\n                /* \"#utility.yul\":8355:8373   */\n              add\n                /* \"#utility.yul\":8347:8373   */\n              swap1\n              pop\n                /* \"#utility.yul\":8419:8428   */\n              dup2\n                /* \"#utility.yul\":8413:8417   */\n              dup2\n                /* \"#utility.yul\":8409:8429   */\n              sub\n                /* \"#utility.yul\":8405:8406   */\n              0x00\n                /* \"#utility.yul\":8394:8403   */\n              dup4\n                /* \"#utility.yul\":8390:8407   */\n              add\n                /* \"#utility.yul\":8383:8430   */\n              mstore\n                /* \"#utility.yul\":8447:8578   */\n              tag_222\n                /* \"#utility.yul\":8573:8577   */\n              dup2\n                /* \"#utility.yul\":8447:8578   */\n              tag_132\n              jump\t// in\n            tag_222:\n                /* \"#utility.yul\":8439:8578   */\n              swap1\n              pop\n                /* \"#utility.yul\":8166:8585   */\n              swap2\n              swap1\n              pop\n              jump\t// out\n                /* \"#utility.yul\":8591:8768   */\n            tag_133:\n                /* \"#utility.yul\":8731:8760   */\n              0x596f75206c696b656420746869732073746f7279206265666f72650000000000\n                /* \"#utility.yul\":8727:8728   */\n              0x00\n                /* \"#utility.yul\":8719:8725   */\n              dup3\n                /* \"#utility.yul\":8715:8729   */\n              add\n                /* \"#utility.yul\":8708:8761   */\n              mstore\n                /* \"#utility.yul\":8591:8768   */\n              pop\n              jump\t// out\n                /* \"#utility.yul\":8774:9140   */\n            tag_134:\n                /* \"#utility.yul\":8916:8919   */\n              0x00\n                /* \"#utility.yul\":8937:9004   */\n              tag_225\n                /* \"#utility.yul\":9001:9003   */\n              0x1b\n                /* \"#utility.yul\":8996:8999   */\n              dup4\n                /* \"#utility.yul\":8937:9004   */\n              tag_110\n              jump\t// in\n            tag_225:\n                /* \"#utility.yul\":8930:9004   */\n              swap2\n              pop\n                /* \"#utility.yul\":9013:9106   */\n              tag_226\n                /* \"#utility.yul\":9102:9105   */\n              dup3\n                /* \"#utility.yul\":9013:9106   */\n              tag_133\n              jump\t// in\n            tag_226:\n                /* \"#utility.yul\":9131:9133   */\n              0x20\n                /* \"#utility.yul\":9126:9129   */\n              dup3\n                /* \"#utility.yul\":9122:9134   */\n              add\n                /* \"#utility.yul\":9115:9134   */\n              swap1\n              pop\n                /* \"#utility.yul\":8774:9140   */\n              swap2\n              swap1\n              pop\n              jump\t// out\n                /* \"#utility.yul\":9146:9565   */\n            tag_88:\n                /* \"#utility.yul\":9312:9316   */\n              0x00\n                /* \"#utility.yul\":9350:9352   */\n              0x20\n                /* \"#utility.yul\":9339:9348   */\n              dup3\n                /* \"#utility.yul\":9335:9353   */\n              add\n                /* \"#utility.yul\":9327:9353   */\n              swap1\n              pop\n                /* \"#utility.yul\":9399:9408   */\n              dup2\n                /* \"#utility.yul\":9393:9397   */\n              dup2\n                /* \"#utility.yul\":9389:9409   */\n              sub\n                /* \"#utility.yul\":9385:9386   */\n              0x00\n                /* \"#utility.yul\":9374:9383   */\n              dup4\n                /* \"#utility.yul\":9370:9387   */\n              add\n                /* \"#utility.yul\":9363:9410   */\n              mstore\n                /* \"#utility.yul\":9427:9558   */\n              tag_228\n                /* \"#utility.yul\":9553:9557   */\n              dup2\n                /* \"#utility.yul\":9427:9558   */\n              tag_134\n              jump\t// in\n            tag_228:\n                /* \"#utility.yul\":9419:9558   */\n              swap1\n              pop\n                /* \"#utility.yul\":9146:9565   */\n              swap2\n              swap1\n              pop\n              jump\t// out\n                /* \"#utility.yul\":9571:9751   */\n            tag_135:\n                /* \"#utility.yul\":9619:9696   */\n              0x4e487b7100000000000000000000000000000000000000000000000000000000\n                /* \"#utility.yul\":9616:9617   */\n              0x00\n                /* \"#utility.yul\":9609:9697   */\n              mstore\n                /* \"#utility.yul\":9716:9720   */\n              0x11\n                /* \"#utility.yul\":9713:9714   */\n              0x04\n                /* \"#utility.yul\":9706:9721   */\n              mstore\n                /* \"#utility.yul\":9740:9744   */\n              0x24\n                /* \"#utility.yul\":9737:9738   */\n              0x00\n                /* \"#utility.yul\":9730:9745   */\n              revert\n                /* \"#utility.yul\":9757:10062   */\n            tag_102:\n                /* \"#utility.yul\":9797:9800   */\n              0x00\n                /* \"#utility.yul\":9816:9836   */\n              tag_231\n                /* \"#utility.yul\":9834:9835   */\n              dup3\n                /* \"#utility.yul\":9816:9836   */\n              tag_121\n              jump\t// in\n            tag_231:\n                /* \"#utility.yul\":9811:9836   */\n              swap2\n              pop\n                /* \"#utility.yul\":9850:9870   */\n              tag_232\n                /* \"#utility.yul\":9868:9869   */\n              dup4\n                /* \"#utility.yul\":9850:9870   */\n              tag_121\n              jump\t// in\n            tag_232:\n                /* \"#utility.yul\":9845:9870   */\n              swap3\n              pop\n                /* \"#utility.yul\":10004:10005   */\n              dup3\n                /* \"#utility.yul\":9936:10002   */\n              0xffffffffffffffffffffffffffffffffffffffffffffffffffffffffffffffff\n                /* \"#utility.yul\":9932:10006   */\n              sub\n                /* \"#utility.yul\":9929:9930   */\n              dup3\n                /* \"#utility.yul\":9926:10007   */\n              gt\n                /* \"#utility.yul\":9923:10030   */\n              iszero\n              tag_233\n              jumpi\n                /* \"#utility.yul\":10010:10028   */\n              tag_234\n              tag_135\n              jump\t// in\n            tag_234:\n                /* \"#utility.yul\":9923:10030   */\n            tag_233:\n                /* \"#utility.yul\":10054:10055   */\n              dup3\n                /* \"#utility.yul\":10051:10052   */\n              dup3\n                /* \"#utility.yul\":10047:10056   */\n              add\n                /* \"#utility.yul\":10040:10056   */\n              swap1\n              pop\n                /* \"#utility.yul\":9757:10062   */\n              swap3\n              swap2\n              pop\n              pop\n              jump\t// out\n                /* \"#utility.yul\":10068:10245   */\n            tag_136:\n                /* \"#utility.yul\":10208:10237   */\n              0x536166654d6174683a206164646974696f6e206f766572666c6f770000000000\n                /* \"#utility.yul\":10204:10205   */\n              0x00\n                /* \"#utility.yul\":10196:10202   */\n              dup3\n                /* \"#utility.yul\":10192:10206   */\n              add\n                /* \"#utility.yul\":10185:10238   */\n              mstore\n                /* \"#utility.yul\":10068:10245   */\n              pop\n              jump\t// out\n                /* \"#utility.yul\":10251:10617   */\n            tag_137:\n                /* \"#utility.yul\":10393:10396   */\n              0x00\n                /* \"#utility.yul\":10414:10481   */\n              tag_237\n                /* \"#utility.yul\":10478:10480   */\n              0x1b\n                /* \"#utility.yul\":10473:10476   */\n              dup4\n                /* \"#utility.yul\":10414:10481   */\n              tag_110\n              jump\t// in\n            tag_237:\n                /* \"#utility.yul\":10407:10481   */\n              swap2\n              pop\n                /* \"#utility.yul\":10490:10583   */\n              tag_238\n                /* \"#utility.yul\":10579:10582   */\n              dup3\n                /* \"#utility.yul\":10490:10583   */\n              tag_136\n              jump\t// in\n            tag_238:\n                /* \"#utility.yul\":10608:10610   */\n              0x20\n                /* \"#utility.yul\":10603:10606   */\n              dup3\n                /* \"#utility.yul\":10599:10611   */\n              add\n                /* \"#utility.yul\":10592:10611   */\n              swap1\n              pop\n                /* \"#utility.yul\":10251:10617   */\n              swap2\n              swap1\n              pop\n              jump\t// out\n                /* \"#utility.yul\":10623:11042   */\n            tag_105:\n                /* \"#utility.yul\":10789:10793   */\n              0x00\n                /* \"#utility.yul\":10827:10829   */\n              0x20\n                /* \"#utility.yul\":10816:10825   */\n              dup3\n                /* \"#utility.yul\":10812:10830   */\n              add\n                /* \"#utility.yul\":10804:10830   */\n              swap1\n              pop\n                /* \"#utility.yul\":10876:10885   */\n              dup2\n                /* \"#utility.yul\":10870:10874   */\n              dup2\n                /* \"#utility.yul\":10866:10886   */\n              sub\n                /* \"#utility.yul\":10862:10863   */\n              0x00\n                /* \"#utility.yul\":10851:10860   */\n              dup4\n                /* \"#utility.yul\":10847:10864   */\n              add\n                /* \"#utility.yul\":10840:10887   */\n              mstore\n                /* \"#utility.yul\":10904:11035   */\n              tag_240\n                /* \"#utility.yul\":11030:11034   */\n              dup2\n                /* \"#utility.yul\":10904:11035   */\n              tag_137\n              jump\t// in\n            tag_240:\n                /* \"#utility.yul\":10896:11035   */\n              swap1\n              pop\n                /* \"#utility.yul\":10623:11042   */\n              swap2\n              swap1\n              pop\n              jump\t// out\n\n            auxdata: 0xa2646970667358221220b412b41f33819b1faabd91eb5686541bbae2b45d6b912b75d5a325871c7249ff64736f6c63430008090033\n        }\n    }\n\n    auxdata: 0xa264697066735822122017a2e15333278dd1d6b7be9fad46b741c72e3beb5eb9dfcd0699db1509e22a1e64736f6c63430008090033\n}\n","bytecode":{"linkReferences":{},"object":"60806040523480156200001157600080fd5b506040516200494538038062004945833981810160405281019062000037919062000454565b836000806101000a81548173ffffffffffffffffffffffffffffffffffffffff021916908373ffffffffffffffffffffffffffffffffffffffff1602179055506001600460008673ffffffffffffffffffffffffffffffffffffffff1673ffffffffffffffffffffffffffffffffffffffff16815260200190815260200160002060006101000a81548160ff0219169083151502179055506005849080600181540180825580915050600190039060005260206000200160009091909190916101000a81548173ffffffffffffffffffffffffffffffffffffffff021916908373ffffffffffffffffffffffffffffffffffffffff16021790555082600190805190602001906200014a929190620001a2565b50816002908051906020019062000163929190620001a2565b5080600390805190602001906200017c929190620001a2565b506000600b60006101000a81548160ff0219169083151502179055505050505062000588565b828054620001b09062000552565b90600052602060002090601f016020900481019282620001d4576000855562000220565b82601f10620001ef57805160ff191683800117855562000220565b8280016001018555821562000220579182015b828111156200021f57825182559160200191906001019062000202565b5b5090506200022f919062000233565b5090565b5b808211156200024e57600081600090555060010162000234565b5090565b6000604051905090565b600080fd5b600080fd5b600073ffffffffffffffffffffffffffffffffffffffff82169050919050565b6000620002938262000266565b9050919050565b620002a58162000286565b8114620002b157600080fd5b50565b600081519050620002c5816200029a565b92915050565b600080fd5b600080fd5b6000601f19601f8301169050919050565b7f4e487b7100000000000000000000000000000000000000000000000000000000600052604160045260246000fd5b6200032082620002d5565b810181811067ffffffffffffffff82111715620003425762000341620002e6565b5b80604052505050565b60006200035762000252565b905062000365828262000315565b919050565b600067ffffffffffffffff821115620003885762000387620002e6565b5b6200039382620002d5565b9050602081019050919050565b60005b83811015620003c0578082015181840152602081019050620003a3565b83811115620003d0576000848401525b50505050565b6000620003ed620003e7846200036a565b6200034b565b9050828152602081018484840111156200040c576200040b620002d0565b5b62000419848285620003a0565b509392505050565b600082601f830112620004395762000438620002cb565b5b81516200044b848260208601620003d6565b91505092915050565b600080600080608085870312156200047157620004706200025c565b5b60006200048187828801620002b4565b945050602085015167ffffffffffffffff811115620004a557620004a462000261565b5b620004b38782880162000421565b935050604085015167ffffffffffffffff811115620004d757620004d662000261565b5b620004e58782880162000421565b925050606085015167ffffffffffffffff81111562000509576200050862000261565b5b620005178782880162000421565b91505092959194509250565b7f4e487b7100000000000000000000000000000000000000000000000000000000600052602260045260246000fd5b600060028204905060018216806200056b57607f821691505b6020821081141562000582576200058162000523565b5b50919050565b6143ad80620005986000396000f3fe608060405260043610620000f25760003560e01c806398b79628116200008b5780639d3ed80711620000615780639d3ed80714620002d8578063b5202522146200031c578063d7bb99ba1462000360578063dfa14e23146200036c57620000f2565b806398b79628146200024c578063992b11dc146200027a5780639c636a0f14620002a857620000f2565b80634051ddac11620000cd5780634051ddac146200016f5780635cf298fb14620001a85780635d1a870a14620001d85780637f51aaf9146200020857620000f2565b80632606a10b14620000f75780633b6246c214620001115780633e5690f4146200012b575b600080fd5b3480156200010457600080fd5b506200010f6200039a565b005b3480156200011e57600080fd5b5062000129620005a1565b005b3480156200013857600080fd5b5062000157600480360381019062000151919062001c75565b620007d2565b60405162000166919062001cc4565b60405180910390f35b3480156200017c57600080fd5b5062000187620007f2565b6040516200019f9a9998979695949392919062001e7f565b60405180910390f35b348015620001b557600080fd5b50620001c062000b37565b604051620001cf919062001cc4565b60405180910390f35b348015620001e557600080fd5b50620001f062000b8b565b604051620001ff919062001cc4565b60405180910390f35b3480156200021557600080fd5b506200023460048036038101906200022e919062001c75565b62000b9e565b60405162000243919062001cc4565b60405180910390f35b3480156200025957600080fd5b5062000278600480360381019062000272919062001f83565b62000bbe565b005b3480156200028757600080fd5b50620002a66004803603810190620002a0919062002106565b62000ffc565b005b348015620002b557600080fd5b50620002c0620014fa565b604051620002cf9190620021b6565b60405180910390f35b348015620002e557600080fd5b50620003046004803603810190620002fe919062001f83565b6200158a565b604051620003139190620021da565b60405180910390f35b3480156200032957600080fd5b5062000348600480360381019062000342919062001f83565b620015ca565b604051620003579190620021da565b60405180910390f35b6200036a6200160a565b005b3480156200037957600080fd5b50620003986004803603810190620003929190620021f7565b620016dc565b005b600860009054906101000a900460ff1615620003ed576040517f08c379a0000000000000000000000000000000000000000000000000000000008152600401620003e49062002298565b60405180910390fd5b6001600860006101000a81548160ff021916908315150217905550600b60009054906101000a900460ff16156200045b576040517f08c379a000000000000000000000000000000000000000000000000000000000815260040162000452906200230a565b60405180910390fd5b600960003373ffffffffffffffffffffffffffffffffffffffff1673ffffffffffffffffffffffffffffffffffffffff16815260200190815260200160002060009054906101000a900460ff1615620004eb576040517f08c379a0000000000000000000000000000000000000000000000000000000008152600401620004e290620023a2565b60405180910390fd5b620005036001600a54620018fe90919063ffffffff16565b506001600960003373ffffffffffffffffffffffffffffffffffffffff1673ffffffffffffffffffffffffffffffffffffffff16815260200190815260200160002060006101000a81548160ff0219169083151502179055506064600a54111562000584576001600b60006101000a81548160ff0219169083151502179055505b6000600860006101000a81548160ff021916908315150217905550565b600860009054906101000a900460ff1615620005f4576040517f08c379a0000000000000000000000000000000000000000000000000000000008152600401620005eb9062002298565b60405180910390fd5b6001600860006101000a81548160ff021916908315150217905550600460003373ffffffffffffffffffffffffffffffffffffffff1673ffffffffffffffffffffffffffffffffffffffff16815260200190815260200160002060009054906101000a900460ff166200069e576040517f08c379a000000000000000000000000000000000000000000000000000000000815260040162000695906200243a565b60405180910390fd5b600060058054905090506000620006bf82476200196190919063ffffffff16565b90506000811162000707576040517f08c379a0000000000000000000000000000000000000000000000000000000008152600401620006fe90620024ac565b60405180910390fd5b60005b82811015620007b257600581815481106200072a5762000729620024ce565b5b9060005260206000200160009054906101000a900473ffffffffffffffffffffffffffffffffffffffff1673ffffffffffffffffffffffffffffffffffffffff166108fc839081150290604051600060405180830381858888f193505050501580156200079b573d6000803e3d6000fd5b508080620007a9906200252c565b9150506200070a565b5050506000600860006101000a81548160ff021916908315150217905550565b60046020528060005260406000206000915054906101000a900460ff1681565b6000606080606080606060008060008060008054906101000a900473ffffffffffffffffffffffffffffffffffffffff1660016002600360056007600c80549050600a54600b60009054906101000a900460ff16478880546200085590620025a9565b80601f01602080910402602001604051908101604052809291908181526020018280546200088390620025a9565b8015620008d45780601f10620008a857610100808354040283529160200191620008d4565b820191906000526020600020905b815481529060010190602001808311620008b657829003601f168201915b50505050509850878054620008e990620025a9565b80601f01602080910402602001604051908101604052809291908181526020018280546200091790620025a9565b8015620009685780601f106200093c5761010080835404028352916020019162000968565b820191906000526020600020905b8154815290600101906020018083116200094a57829003601f168201915b505050505097508680546200097d90620025a9565b80601f0160208091040260200160405190810160405280929190818152602001828054620009ab90620025a9565b8015620009fc5780601f10620009d057610100808354040283529160200191620009fc565b820191906000526020600020905b815481529060010190602001808311620009de57829003601f168201915b505050505096508580548060200260200160405190810160405280929190818152602001828054801562000a8657602002820191906000526020600020905b8160009054906101000a900473ffffffffffffffffffffffffffffffffffffffff1673ffffffffffffffffffffffffffffffffffffffff168152602001906001019080831162000a3b575b505050505095508480548060200260200160405190810160405280929190818152602001828054801562000b1057602002820191906000526020600020905b8160009054906101000a900473ffffffffffffffffffffffffffffffffffffffff1673ffffffffffffffffffffffffffffffffffffffff168152602001906001019080831162000ac5575b50505050509450995099509950995099509950995099509950995090919293949596979899565b6000600460003373ffffffffffffffffffffffffffffffffffffffff1673ffffffffffffffffffffffffffffffffffffffff16815260200190815260200160002060009054906101000a900460ff16905090565b600b60009054906101000a900460ff1681565b60066020528060005260406000206000915054906101000a900460ff1681565b600860009054906101000a900460ff161562000c11576040517f08c379a000000000000000000000000000000000000000000000000000000000815260040162000c089062002298565b60405180910390fd5b6001600860006101000a81548160ff021916908315150217905550600b60009054906101000a900460ff161562000c7f576040517f08c379a000000000000000000000000000000000000000000000000000000000815260040162000c76906200230a565b60405180910390fd5b600460003373ffffffffffffffffffffffffffffffffffffffff1673ffffffffffffffffffffffffffffffffffffffff16815260200190815260200160002060009054906101000a900460ff1662000d0e576040517f08c379a000000000000000000000000000000000000000000000000000000000815260040162000d059062002655565b60405180910390fd5b600c805490508110801562000d24575060008110155b62000d66576040517f08c379a000000000000000000000000000000000000000000000000000000000815260040162000d5d90620026c7565b60405180910390fd5b6000600c828154811062000d7f5762000d7e620024ce565b5b906000526020600020906006020190508060030160003373ffffffffffffffffffffffffffffffffffffffff1673ffffffffffffffffffffffffffffffffffffffff16815260200190815260200160002060009054906101000a900460ff161562000e21576040517f08c379a000000000000000000000000000000000000000000000000000000000815260040162000e18906200275f565b60405180910390fd5b60018160030160003373ffffffffffffffffffffffffffffffffffffffff1673ffffffffffffffffffffffffffffffffffffffff16815260200190815260200160002060006101000a81548160ff02191690831515021790555062000e9560018260040154620018fe90919063ffffffff16565b8160040181905550600260058054905062000eb19190620027b0565b81600401541062000fdd5760018160050160006101000a81548160ff0219169083151502179055506001600460008360020160009054906101000a900473ffffffffffffffffffffffffffffffffffffffff1673ffffffffffffffffffffffffffffffffffffffff1673ffffffffffffffffffffffffffffffffffffffff16815260200190815260200160002060006101000a81548160ff02191690831515021790555060058160020160009054906101000a900473ffffffffffffffffffffffffffffffffffffffff169080600181540180825580915050600190039060005260206000200160009091909190916101000a81548173ffffffffffffffffffffffffffffffffffffffff021916908373ffffffffffffffffffffffffffffffffffffffff1602179055505b506000600860006101000a81548160ff02191690831515021790555050565b600860009054906101000a900460ff16156200104f576040517f08c379a0000000000000000000000000000000000000000000000000000000008152600401620010469062002298565b60405180910390fd5b6001600860006101000a81548160ff021916908315150217905550600b60009054906101000a900460ff1615620010bd576040517f08c379a0000000000000000000000000000000000000000000000000000000008152600401620010b4906200230a565b60405180910390fd5b600460003373ffffffffffffffffffffffffffffffffffffffff1673ffffffffffffffffffffffffffffffffffffffff16815260200190815260200160002060009054906101000a900460ff166200114c576040517f08c379a000000000000000000000000000000000000000000000000000000000815260040162001143906200285e565b60405180910390fd5b6200115782620019be565b62001199576040517f08c379a00000000000000000000000000000000000000000000000000000000081526004016200119090620028f6565b60405180910390fd5b620011a481620019be565b620011e6576040517f08c379a0000000000000000000000000000000000000000000000000000000008152600401620011dd9062002968565b60405180910390fd5b620011f18262001a12565b62001233576040517f08c379a00000000000000000000000000000000000000000000000000000000081526004016200122a9062002a00565b60405180910390fd5b6200123e8162001aa8565b62001280576040517f08c379a0000000000000000000000000000000000000000000000000000000008152600401620012779062002a98565b60405180910390fd5b6000333086868686604051620012969062001b3e565b620012a79695949392919062002aba565b604051809103906000f080158015620012c4573d6000803e3d6000fd5b509050600073ffffffffffffffffffffffffffffffffffffffff168373ffffffffffffffffffffffffffffffffffffffff1614620013725760008390508073ffffffffffffffffffffffffffffffffffffffff1663988e46c8836040518263ffffffff1660e01b81526004016200133c9190620021da565b600060405180830381600087803b1580156200135757600080fd5b505af11580156200136c573d6000803e3d6000fd5b50505050505b600073ffffffffffffffffffffffffffffffffffffffff168273ffffffffffffffffffffffffffffffffffffffff16146200141d5760008290508073ffffffffffffffffffffffffffffffffffffffff16638758ce83836040518263ffffffff1660e01b8152600401620013e79190620021da565b600060405180830381600087803b1580156200140257600080fd5b505af115801562001417573d6000803e3d6000fd5b50505050505b6007819080600181540180825580915050600190039060005260206000200160009091909190916101000a81548173ffffffffffffffffffffffffffffffffffffffff021916908373ffffffffffffffffffffffffffffffffffffffff1602179055506001600660008373ffffffffffffffffffffffffffffffffffffffff1673ffffffffffffffffffffffffffffffffffffffff16815260200190815260200160002060006101000a81548160ff021916908315150217905550506000600860006101000a81548160ff02191690831515021790555050505050565b606060078054806020026020016040519081016040528092919081815260200182805480156200158057602002820191906000526020600020905b8160009054906101000a900473ffffffffffffffffffffffffffffffffffffffff1673ffffffffffffffffffffffffffffffffffffffff168152602001906001019080831162001535575b5050505050905090565b600581815481106200159b57600080fd5b906000526020600020016000915054906101000a900473ffffffffffffffffffffffffffffffffffffffff1681565b60078181548110620015db57600080fd5b906000526020600020016000915054906101000a900473ffffffffffffffffffffffffffffffffffffffff1681565b600860009054906101000a900460ff16156200165d576040517f08c379a0000000000000000000000000000000000000000000000000000000008152600401620016549062002298565b60405180910390fd5b6001600860006101000a81548160ff0219169083151502179055506064341015620016bf576040517f08c379a0000000000000000000000000000000000000000000000000000000008152600401620016b69062002b85565b60405180910390fd5b6000600860006101000a81548160ff021916908315150217905550565b600860009054906101000a900460ff16156200172f576040517f08c379a0000000000000000000000000000000000000000000000000000000008152600401620017269062002298565b60405180910390fd5b6001600860006101000a81548160ff021916908315150217905550600b60009054906101000a900460ff16156200179d576040517f08c379a000000000000000000000000000000000000000000000000000000000815260040162001794906200230a565b60405180910390fd5b600460003373ffffffffffffffffffffffffffffffffffffffff1673ffffffffffffffffffffffffffffffffffffffff16815260200190815260200160002060009054906101000a900460ff16156200182d576040517f08c379a0000000000000000000000000000000000000000000000000000000008152600401620018249062002c1d565b60405180910390fd5b6000600c6001816001815401808255809150500390600052602060002090600602019050818160000190805190602001906200186b92919062001b4c565b50428160010181905550338160020160006101000a81548173ffffffffffffffffffffffffffffffffffffffff021916908373ffffffffffffffffffffffffffffffffffffffff1602179055506000816004018190555060008160050160006101000a81548160ff021916908315150217905550506000600860006101000a81548160ff02191690831515021790555050565b60008082846200190f919062002c3f565b90508381101562001957576040517f08c379a00000000000000000000000000000000000000000000000000000000081526004016200194e9062002cec565b60405180910390fd5b8091505092915050565b6000808211620019a8576040517f08c379a00000000000000000000000000000000000000000000000000000000081526004016200199f9062002d5e565b60405180910390fd5b8183620019b69190620027b0565b905092915050565b60008073ffffffffffffffffffffffffffffffffffffffff168273ffffffffffffffffffffffffffffffffffffffff161415620019ff576001905062001a0d565b6000823b9050600081119150505b919050565b60008073ffffffffffffffffffffffffffffffffffffffff168273ffffffffffffffffffffffffffffffffffffffff16141562001a53576001905062001aa3565b600660008373ffffffffffffffffffffffffffffffffffffffff1673ffffffffffffffffffffffffffffffffffffffff16815260200190815260200160002060009054906101000a900460ff1690505b919050565b60008073ffffffffffffffffffffffffffffffffffffffff168273ffffffffffffffffffffffffffffffffffffffff16141562001ae9576001905062001b39565b600660008373ffffffffffffffffffffffffffffffffffffffff1673ffffffffffffffffffffffffffffffffffffffff16815260200190815260200160002060009054906101000a900460ff1690505b919050565b6115f78062002d8183390190565b82805462001b5a90620025a9565b90600052602060002090601f01602090048101928262001b7e576000855562001bca565b82601f1062001b9957805160ff191683800117855562001bca565b8280016001018555821562001bca579182015b8281111562001bc957825182559160200191906001019062001bac565b5b50905062001bd9919062001bdd565b5090565b5b8082111562001bf857600081600090555060010162001bde565b5090565b6000604051905090565b600080fd5b600080fd5b600073ffffffffffffffffffffffffffffffffffffffff82169050919050565b600062001c3d8262001c10565b9050919050565b62001c4f8162001c30565b811462001c5b57600080fd5b50565b60008135905062001c6f8162001c44565b92915050565b60006020828403121562001c8e5762001c8d62001c06565b5b600062001c9e8482850162001c5e565b91505092915050565b60008115159050919050565b62001cbe8162001ca7565b82525050565b600060208201905062001cdb600083018462001cb3565b92915050565b62001cec8162001c30565b82525050565b600081519050919050565b600082825260208201905092915050565b60005b8381101562001d2e57808201518184015260208101905062001d11565b8381111562001d3e576000848401525b50505050565b6000601f19601f8301169050919050565b600062001d628262001cf2565b62001d6e818562001cfd565b935062001d8081856020860162001d0e565b62001d8b8162001d44565b840191505092915050565b600081519050919050565b600082825260208201905092915050565b6000819050602082019050919050565b62001dcd8162001c30565b82525050565b600062001de1838362001dc2565b60208301905092915050565b6000602082019050919050565b600062001e078262001d96565b62001e13818562001da1565b935062001e208362001db2565b8060005b8381101562001e5757815162001e3b888262001dd3565b975062001e488362001ded565b92505060018101905062001e24565b5085935050505092915050565b6000819050919050565b62001e798162001e64565b82525050565b60006101408201905062001e97600083018d62001ce1565b818103602083015262001eab818c62001d55565b9050818103604083015262001ec1818b62001d55565b9050818103606083015262001ed7818a62001d55565b9050818103608083015262001eed818962001dfa565b905081810360a083015262001f03818862001dfa565b905062001f1460c083018762001e6e565b62001f2360e083018662001e6e565b62001f3361010083018562001cb3565b62001f4361012083018462001e6e565b9b9a5050505050505050505050565b62001f5d8162001e64565b811462001f6957600080fd5b50565b60008135905062001f7d8162001f52565b92915050565b60006020828403121562001f9c5762001f9b62001c06565b5b600062001fac8482850162001f6c565b91505092915050565b600080fd5b600080fd5b7f4e487b7100000000000000000000000000000000000000000000000000000000600052604160045260246000fd5b62001ff98262001d44565b810181811067ffffffffffffffff821117156200201b576200201a62001fbf565b5b80604052505050565b60006200203062001bfc565b90506200203e828262001fee565b919050565b600067ffffffffffffffff82111562002061576200206062001fbf565b5b6200206c8262001d44565b9050602081019050919050565b82818337600083830152505050565b60006200209f620020998462002043565b62002024565b905082815260208101848484011115620020be57620020bd62001fba565b5b620020cb84828562002079565b509392505050565b600082601f830112620020eb57620020ea62001fb5565b5b8135620020fd84826020860162002088565b91505092915050565b6000806000806080858703121562002123576200212262001c06565b5b600085013567ffffffffffffffff81111562002144576200214362001c0b565b5b6200215287828801620020d3565b945050602085013567ffffffffffffffff81111562002176576200217562001c0b565b5b6200218487828801620020d3565b9350506040620021978782880162001c5e565b9250506060620021aa8782880162001c5e565b91505092959194509250565b60006020820190508181036000830152620021d2818462001dfa565b905092915050565b6000602082019050620021f1600083018462001ce1565b92915050565b60006020828403121562002210576200220f62001c06565b5b600082013567ffffffffffffffff81111562002231576200223062001c0b565b5b6200223f84828501620020d3565b91505092915050565b7f5265656e7472616e742063616c6c000000000000000000000000000000000000600082015250565b600062002280600e8362001cfd565b91506200228d8262002248565b602082019050919050565b60006020820190508181036000830152620022b38162002271565b9050919050565b7f546869732073746f727920686173206265656e207265706f7274656400000000600082015250565b6000620022f2601c8362001cfd565b9150620022ff82620022ba565b602082019050919050565b600060208201905081810360008301526200232581620022e3565b9050919050565b7f596f752068617665207265706f7274656420746869732073746f72792062656660008201527f6f72650000000000000000000000000000000000000000000000000000000000602082015250565b60006200238a60238362001cfd565b915062002397826200232c565b604082019050919050565b60006020820190508181036000830152620023bd816200237b565b9050919050565b7f4f6e6c7920616e20617574686f72697a656420617574686f722063616e20646960008201527f7370656e73652072657761726473000000000000000000000000000000000000602082015250565b600062002422602e8362001cfd565b91506200242f82620023c4565b604082019050919050565b60006020820190508181036000830152620024558162002413565b9050919050565b7f4e6f2072657761726420746f2064697370656e73650000000000000000000000600082015250565b60006200249460158362001cfd565b9150620024a1826200245c565b602082019050919050565b60006020820190508181036000830152620024c78162002485565b9050919050565b7f4e487b7100000000000000000000000000000000000000000000000000000000600052603260045260246000fd5b7f4e487b7100000000000000000000000000000000000000000000000000000000600052601160045260246000fd5b6000620025398262001e64565b91507fffffffffffffffffffffffffffffffffffffffffffffffffffffffffffffffff8214156200256f576200256e620024fd565b5b600182019050919050565b7f4e487b7100000000000000000000000000000000000000000000000000000000600052602260045260246000fd5b60006002820490506001821680620025c257607f821691505b60208210811415620025d957620025d86200257a565b5b50919050565b7f4f6e6c7920616e20616363657074656420617574686f722063616e206170707260008201527f6f76652061207265717565737400000000000000000000000000000000000000602082015250565b60006200263d602d8362001cfd565b91506200264a82620025df565b604082019050919050565b6000602082019050818103600083015262002670816200262e565b9050919050565b7f496e646578206f7574206f6620626f756e647300000000000000000000000000600082015250565b6000620026af60138362001cfd565b9150620026bc8262002677565b602082019050919050565b60006020820190508181036000830152620026e281620026a0565b9050919050565b7f5468697320617574686f7220616c726561647920617070726f7665642062656660008201527f6f72650000000000000000000000000000000000000000000000000000000000602082015250565b60006200274760238362001cfd565b91506200275482620026e9565b604082019050919050565b600060208201905081810360008301526200277a8162002738565b9050919050565b7f4e487b7100000000000000000000000000000000000000000000000000000000600052601260045260246000fd5b6000620027bd8262001e64565b9150620027ca8362001e64565b925082620027dd57620027dc62002781565b5b828204905092915050565b7f4f6e6c7920616e20616363657074656420617574686f722063616e206372656160008201527f7465206120636861707465720000000000000000000000000000000000000000602082015250565b600062002846602c8362001cfd565b91506200285382620027e8565b604082019050919050565b60006020820190508181036000830152620028798162002837565b9050919050565b7f506172656e742063686170746572206d757374206265206120636f6e7472616360008201527f7400000000000000000000000000000000000000000000000000000000000000602082015250565b6000620028de60218362001cfd565b9150620028eb8262002880565b604082019050919050565b600060208201905081810360008301526200291181620028cf565b9050919050565b7f4368696c642063686170746572206d757374206265206120636f6e7472616374600082015250565b60006200295060208362001cfd565b91506200295d8262002918565b602082019050919050565b60006020820190508181036000830152620029838162002941565b9050919050565b7f506172656e742063686170746572206d7573742062656c6f6e6720746f20746860008201527f652073616d652073746f72790000000000000000000000000000000000000000602082015250565b6000620029e8602c8362001cfd565b9150620029f5826200298a565b604082019050919050565b6000602082019050818103600083015262002a1b81620029d9565b9050919050565b7f4368696c642063686170746572206d7573742062656c6f6e6720746f2074686560008201527f2073616d652073746f7279000000000000000000000000000000000000000000602082015250565b600062002a80602b8362001cfd565b915062002a8d8262002a22565b604082019050919050565b6000602082019050818103600083015262002ab38162002a71565b9050919050565b600060c08201905062002ad1600083018962001ce1565b62002ae0602083018862001ce1565b818103604083015262002af4818762001d55565b9050818103606083015262002b0a818662001d55565b905062002b1b608083018562001ce1565b62002b2a60a083018462001ce1565b979650505050505050565b7f4d696e696d756d20636f6e747269627574696f6e206973203130302057656900600082015250565b600062002b6d601f8362001cfd565b915062002b7a8262002b35565b602082019050919050565b6000602082019050818103600083015262002ba08162002b5e565b9050919050565b7f417574686f7220616c72656164792065786973747320696e20746865206c697360008201527f74206f6620617574686f72730000000000000000000000000000000000000000602082015250565b600062002c05602c8362001cfd565b915062002c128262002ba7565b604082019050919050565b6000602082019050818103600083015262002c388162002bf6565b9050919050565b600062002c4c8262001e64565b915062002c598362001e64565b9250827fffffffffffffffffffffffffffffffffffffffffffffffffffffffffffffffff0382111562002c915762002c90620024fd565b5b828201905092915050565b7f536166654d6174683a206164646974696f6e206f766572666c6f770000000000600082015250565b600062002cd4601b8362001cfd565b915062002ce18262002c9c565b602082019050919050565b6000602082019050818103600083015262002d078162002cc5565b9050919050565b7f536166654d6174683a206469766973696f6e206279207a65726f000000000000600082015250565b600062002d46601a8362001cfd565b915062002d538262002d0e565b602082019050919050565b6000602082019050818103600083015262002d798162002d37565b905091905056fe60806040523480156200001157600080fd5b50604051620015f7380380620015f78339818101604052810190620000379190620004da565b85600160006101000a81548173ffffffffffffffffffffffffffffffffffffffff021916908373ffffffffffffffffffffffffffffffffffffffff160217905550846000806101000a81548173ffffffffffffffffffffffffffffffffffffffff021916908373ffffffffffffffffffffffffffffffffffffffff1602179055508260039080519060200190620000d092919062000228565b508360029080519060200190620000e992919062000228565b50600073ffffffffffffffffffffffffffffffffffffffff168273ffffffffffffffffffffffffffffffffffffffff161462000183576004829080600181540180825580915050600190039060005260206000200160009091909190916101000a81548173ffffffffffffffffffffffffffffffffffffffff021916908373ffffffffffffffffffffffffffffffffffffffff1602179055505b600073ffffffffffffffffffffffffffffffffffffffff168173ffffffffffffffffffffffffffffffffffffffff16146200021c576005819080600181540180825580915050600190039060005260206000200160009091909190916101000a81548173ffffffffffffffffffffffffffffffffffffffff021916908373ffffffffffffffffffffffffffffffffffffffff1602179055505b50505050505062000619565b8280546200023690620005e3565b90600052602060002090601f0160209004810192826200025a5760008555620002a6565b82601f106200027557805160ff1916838001178555620002a6565b82800160010185558215620002a6579182015b82811115620002a557825182559160200191906001019062000288565b5b509050620002b59190620002b9565b5090565b5b80821115620002d4576000816000905550600101620002ba565b5090565b6000604051905090565b600080fd5b600080fd5b600073ffffffffffffffffffffffffffffffffffffffff82169050919050565b60006200031982620002ec565b9050919050565b6200032b816200030c565b81146200033757600080fd5b50565b6000815190506200034b8162000320565b92915050565b600080fd5b600080fd5b6000601f19601f8301169050919050565b7f4e487b7100000000000000000000000000000000000000000000000000000000600052604160045260246000fd5b620003a6826200035b565b810181811067ffffffffffffffff82111715620003c857620003c76200036c565b5b80604052505050565b6000620003dd620002d8565b9050620003eb82826200039b565b919050565b600067ffffffffffffffff8211156200040e576200040d6200036c565b5b62000419826200035b565b9050602081019050919050565b60005b838110156200044657808201518184015260208101905062000429565b8381111562000456576000848401525b50505050565b6000620004736200046d84620003f0565b620003d1565b90508281526020810184848401111562000492576200049162000356565b5b6200049f84828562000426565b509392505050565b600082601f830112620004bf57620004be62000351565b5b8151620004d18482602086016200045c565b91505092915050565b60008060008060008060c08789031215620004fa57620004f9620002e2565b5b60006200050a89828a016200033a565b96505060206200051d89828a016200033a565b955050604087015167ffffffffffffffff811115620005415762000540620002e7565b5b6200054f89828a01620004a7565b945050606087015167ffffffffffffffff811115620005735762000572620002e7565b5b6200058189828a01620004a7565b93505060806200059489828a016200033a565b92505060a0620005a789828a016200033a565b9150509295509295509295565b7f4e487b7100000000000000000000000000000000000000000000000000000000600052602260045260246000fd5b60006002820490506001821680620005fc57607f821691505b60208210811415620006135762000612620005b4565b5b50919050565b610fce80620006296000396000f3fe608060405234801561001057600080fd5b50600436106100a95760003560e01c8063a523b88a11610071578063a523b88a14610146578063a6c3e6b914610150578063c5fe6ffc1461016e578063c623674f1461019e578063e5a0af3d146101bc578063ed777791146101da576100a9565b80634051ddac146100ae57806346c922d1146100d25780634a79d50c146100f05780638758ce831461010e578063988e46c81461012a575b600080fd5b6100b661020a565b6040516100c99796959493929190610b88565b60405180910390f35b6100da6104a4565b6040516100e79190610c13565b60405180910390f35b6100f86104c8565b6040516101059190610c2e565b60405180910390f35b61012860048036038101906101239190610c81565b610556565b005b610144600480360381019061013f9190610c81565b61064a565b005b61014e61073e565b005b610158610841565b6040516101659190610c13565b60405180910390f35b61018860048036038101906101839190610cda565b610867565b6040516101959190610c13565b60405180910390f35b6101a66108a6565b6040516101b39190610c2e565b60405180910390f35b6101c4610934565b6040516101d19190610d07565b60405180910390f35b6101f460048036038101906101ef9190610cda565b61093a565b6040516102019190610c13565b60405180910390f35b60008060608060608060008060009054906101000a900473ffffffffffffffffffffffffffffffffffffffff16600160009054906101000a900473ffffffffffffffffffffffffffffffffffffffff16600260036004600560075484805461027190610d51565b80601f016020809104026020016040519081016040528092919081815260200182805461029d90610d51565b80156102ea5780601f106102bf576101008083540402835291602001916102ea565b820191906000526020600020905b8154815290600101906020018083116102cd57829003601f168201915b505050505094508380546102fd90610d51565b80601f016020809104026020016040519081016040528092919081815260200182805461032990610d51565b80156103765780601f1061034b57610100808354040283529160200191610376565b820191906000526020600020905b81548152906001019060200180831161035957829003601f168201915b50505050509350828054806020026020016040519081016040528092919081815260200182805480156103fe57602002820191906000526020600020905b8160009054906101000a900473ffffffffffffffffffffffffffffffffffffffff1673ffffffffffffffffffffffffffffffffffffffff16815260200190600101908083116103b4575b505050505092508180548060200260200160405190810160405280929190818152602001828054801561048657602002820191906000526020600020905b8160009054906101000a900473ffffffffffffffffffffffffffffffffffffffff1673ffffffffffffffffffffffffffffffffffffffff168152602001906001019080831161043c575b50505050509150965096509650965096509650965090919293949596565b60008054906101000a900473ffffffffffffffffffffffffffffffffffffffff1681565b600280546104d590610d51565b80601f016020809104026020016040519081016040528092919081815260200182805461050190610d51565b801561054e5780601f106105235761010080835404028352916020019161054e565b820191906000526020600020905b81548152906001019060200180831161053157829003601f168201915b505050505081565b60008054906101000a900473ffffffffffffffffffffffffffffffffffffffff1673ffffffffffffffffffffffffffffffffffffffff163373ffffffffffffffffffffffffffffffffffffffff16146105e4576040517f08c379a00000000000000000000000000000000000000000000000000000000081526004016105db90610e1b565b60405180910390fd5b6004819080600181540180825580915050600190039060005260206000200160009091909190916101000a81548173ffffffffffffffffffffffffffffffffffffffff021916908373ffffffffffffffffffffffffffffffffffffffff16021790555050565b60008054906101000a900473ffffffffffffffffffffffffffffffffffffffff1673ffffffffffffffffffffffffffffffffffffffff163373ffffffffffffffffffffffffffffffffffffffff16146106d8576040517f08c379a00000000000000000000000000000000000000000000000000000000081526004016106cf90610e1b565b60405180910390fd5b6005819080600181540180825580915050600190039060005260206000200160009091909190916101000a81548173ffffffffffffffffffffffffffffffffffffffff021916908373ffffffffffffffffffffffffffffffffffffffff16021790555050565b600660003373ffffffffffffffffffffffffffffffffffffffff1673ffffffffffffffffffffffffffffffffffffffff16815260200190815260200160002060009054906101000a900460ff16156107cb576040517f08c379a00000000000000000000000000000000000000000000000000000000081526004016107c290610e87565b60405180910390fd5b6001600660003373ffffffffffffffffffffffffffffffffffffffff1673ffffffffffffffffffffffffffffffffffffffff16815260200190815260200160002060006101000a81548160ff021916908315150217905550610839600160075461097990919063ffffffff16565b600781905550565b600160009054906101000a900473ffffffffffffffffffffffffffffffffffffffff1681565b6005818154811061087757600080fd5b906000526020600020016000915054906101000a900473ffffffffffffffffffffffffffffffffffffffff1681565b600380546108b390610d51565b80601f01602080910402602001604051908101604052809291908181526020018280546108df90610d51565b801561092c5780601f106109015761010080835404028352916020019161092c565b820191906000526020600020905b81548152906001019060200180831161090f57829003601f168201915b505050505081565b60075481565b6004818154811061094a57600080fd5b906000526020600020016000915054906101000a900473ffffffffffffffffffffffffffffffffffffffff1681565b60008082846109889190610ed6565b9050838110156109cd576040517f08c379a00000000000000000000000000000000000000000000000000000000081526004016109c490610f78565b60405180910390fd5b8091505092915050565b600073ffffffffffffffffffffffffffffffffffffffff82169050919050565b6000610a02826109d7565b9050919050565b610a12816109f7565b82525050565b600081519050919050565b600082825260208201905092915050565b60005b83811015610a52578082015181840152602081019050610a37565b83811115610a61576000848401525b50505050565b6000601f19601f8301169050919050565b6000610a8382610a18565b610a8d8185610a23565b9350610a9d818560208601610a34565b610aa681610a67565b840191505092915050565b600081519050919050565b600082825260208201905092915050565b6000819050602082019050919050565b610ae6816109f7565b82525050565b6000610af88383610add565b60208301905092915050565b6000602082019050919050565b6000610b1c82610ab1565b610b268185610abc565b9350610b3183610acd565b8060005b83811015610b62578151610b498882610aec565b9750610b5483610b04565b925050600181019050610b35565b5085935050505092915050565b6000819050919050565b610b8281610b6f565b82525050565b600060e082019050610b9d600083018a610a09565b610baa6020830189610a09565b8181036040830152610bbc8188610a78565b90508181036060830152610bd08187610a78565b90508181036080830152610be48186610b11565b905081810360a0830152610bf88185610b11565b9050610c0760c0830184610b79565b98975050505050505050565b6000602082019050610c286000830184610a09565b92915050565b60006020820190508181036000830152610c488184610a78565b905092915050565b600080fd5b610c5e816109f7565b8114610c6957600080fd5b50565b600081359050610c7b81610c55565b92915050565b600060208284031215610c9757610c96610c50565b5b6000610ca584828501610c6c565b91505092915050565b610cb781610b6f565b8114610cc257600080fd5b50565b600081359050610cd481610cae565b92915050565b600060208284031215610cf057610cef610c50565b5b6000610cfe84828501610cc5565b91505092915050565b6000602082019050610d1c6000830184610b79565b92915050565b7f4e487b7100000000000000000000000000000000000000000000000000000000600052602260045260246000fd5b60006002820490506001821680610d6957607f821691505b60208210811415610d7d57610d7c610d22565b5b50919050565b7f546869732066756e6374696f6e2068617320746f2062652063616c6c6564206660008201527f726f6d207468652073746f727920636f6e747261637420627920616e2061636360208201527f657074656420617574686f72206f6e6c79000000000000000000000000000000604082015250565b6000610e05605183610a23565b9150610e1082610d83565b606082019050919050565b60006020820190508181036000830152610e3481610df8565b9050919050565b7f596f75206c696b656420746869732073746f7279206265666f72650000000000600082015250565b6000610e71601b83610a23565b9150610e7c82610e3b565b602082019050919050565b60006020820190508181036000830152610ea081610e64565b9050919050565b7f4e487b7100000000000000000000000000000000000000000000000000000000600052601160045260246000fd5b6000610ee182610b6f565b9150610eec83610b6f565b9250827fffffffffffffffffffffffffffffffffffffffffffffffffffffffffffffffff03821115610f2157610f20610ea7565b5b828201905092915050565b7f536166654d6174683a206164646974696f6e206f766572666c6f770000000000600082015250565b6000610f62601b83610a23565b9150610f6d82610f2c565b602082019050919050565b60006020820190508181036000830152610f9181610f55565b905091905056fea2646970667358221220b412b41f33819b1faabd91eb5686541bbae2b45d6b912b75d5a325871c7249ff64736f6c63430008090033a264697066735822122017a2e15333278dd1d6b7be9fad46b741c72e3beb5eb9dfcd0699db1509e22a1e64736f6c63430008090033","opcodes":"PUSH1 0x80 PUSH1 0x40 MSTORE CALLVALUE DUP1 ISZERO PUSH3 0x11 JUMPI PUSH1 0x0 DUP1 REVERT JUMPDEST POP PUSH1 0x40 MLOAD PUSH3 0x4945 CODESIZE SUB DUP1 PUSH3 0x4945 DUP4 CODECOPY DUP2 DUP2 ADD PUSH1 0x40 MSTORE DUP2 ADD SWAP1 PUSH3 0x37 SWAP2 SWAP1 PUSH3 0x454 JUMP JUMPDEST DUP4 PUSH1 0x0 DUP1 PUSH2 0x100 EXP DUP2 SLOAD DUP2 PUSH20 0xFFFFFFFFFFFFFFFFFFFFFFFFFFFFFFFFFFFFFFFF MUL NOT AND SWAP1 DUP4 PUSH20 0xFFFFFFFFFFFFFFFFFFFFFFFFFFFFFFFFFFFFFFFF AND MUL OR SWAP1 SSTORE POP PUSH1 0x1 PUSH1 0x4 PUSH1 0x0 DUP7 PUSH20 0xFFFFFFFFFFFFFFFFFFFFFFFFFFFFFFFFFFFFFFFF AND PUSH20 0xFFFFFFFFFFFFFFFFFFFFFFFFFFFFFFFFFFFFFFFF AND DUP2 MSTORE PUSH1 0x20 ADD SWAP1 DUP2 MSTORE PUSH1 0x20 ADD PUSH1 0x0 KECCAK256 PUSH1 0x0 PUSH2 0x100 EXP DUP2 SLOAD DUP2 PUSH1 0xFF MUL NOT AND SWAP1 DUP4 ISZERO ISZERO MUL OR SWAP1 SSTORE POP PUSH1 0x5 DUP5 SWAP1 DUP1 PUSH1 0x1 DUP2 SLOAD ADD DUP1 DUP3 SSTORE DUP1 SWAP2 POP POP PUSH1 0x1 SWAP1 SUB SWAP1 PUSH1 0x0 MSTORE PUSH1 0x20 PUSH1 0x0 KECCAK256 ADD PUSH1 0x0 SWAP1 SWAP2 SWAP1 SWAP2 SWAP1 SWAP2 PUSH2 0x100 EXP DUP2 SLOAD DUP2 PUSH20 0xFFFFFFFFFFFFFFFFFFFFFFFFFFFFFFFFFFFFFFFF MUL NOT AND SWAP1 DUP4 PUSH20 0xFFFFFFFFFFFFFFFFFFFFFFFFFFFFFFFFFFFFFFFF AND MUL OR SWAP1 SSTORE POP DUP3 PUSH1 0x1 SWAP1 DUP1 MLOAD SWAP1 PUSH1 0x20 ADD SWAP1 PUSH3 0x14A SWAP3 SWAP2 SWAP1 PUSH3 0x1A2 JUMP JUMPDEST POP DUP2 PUSH1 0x2 SWAP1 DUP1 MLOAD SWAP1 PUSH1 0x20 ADD SWAP1 PUSH3 0x163 SWAP3 SWAP2 SWAP1 PUSH3 0x1A2 JUMP JUMPDEST POP DUP1 PUSH1 0x3 SWAP1 DUP1 MLOAD SWAP1 PUSH1 0x20 ADD SWAP1 PUSH3 0x17C SWAP3 SWAP2 SWAP1 PUSH3 0x1A2 JUMP JUMPDEST POP PUSH1 0x0 PUSH1 0xB PUSH1 0x0 PUSH2 0x100 EXP DUP2 SLOAD DUP2 PUSH1 0xFF MUL NOT AND SWAP1 DUP4 ISZERO ISZERO MUL OR SWAP1 SSTORE POP POP POP POP POP PUSH3 0x588 JUMP JUMPDEST DUP3 DUP1 SLOAD PUSH3 0x1B0 SWAP1 PUSH3 0x552 JUMP JUMPDEST SWAP1 PUSH1 0x0 MSTORE PUSH1 0x20 PUSH1 0x0 KECCAK256 SWAP1 PUSH1 0x1F ADD PUSH1 0x20 SWAP1 DIV DUP2 ADD SWAP3 DUP3 PUSH3 0x1D4 JUMPI PUSH1 0x0 DUP6 SSTORE PUSH3 0x220 JUMP JUMPDEST DUP3 PUSH1 0x1F LT PUSH3 0x1EF JUMPI DUP1 MLOAD PUSH1 0xFF NOT AND DUP4 DUP1 ADD OR DUP6 SSTORE PUSH3 0x220 JUMP JUMPDEST DUP3 DUP1 ADD PUSH1 0x1 ADD DUP6 SSTORE DUP3 ISZERO PUSH3 0x220 JUMPI SWAP2 DUP3 ADD JUMPDEST DUP3 DUP2 GT ISZERO PUSH3 0x21F JUMPI DUP3 MLOAD DUP3 SSTORE SWAP2 PUSH1 0x20 ADD SWAP2 SWAP1 PUSH1 0x1 ADD SWAP1 PUSH3 0x202 JUMP JUMPDEST JUMPDEST POP SWAP1 POP PUSH3 0x22F SWAP2 SWAP1 PUSH3 0x233 JUMP JUMPDEST POP SWAP1 JUMP JUMPDEST JUMPDEST DUP1 DUP3 GT ISZERO PUSH3 0x24E JUMPI PUSH1 0x0 DUP2 PUSH1 0x0 SWAP1 SSTORE POP PUSH1 0x1 ADD PUSH3 0x234 JUMP JUMPDEST POP SWAP1 JUMP JUMPDEST PUSH1 0x0 PUSH1 0x40 MLOAD SWAP1 POP SWAP1 JUMP JUMPDEST PUSH1 0x0 DUP1 REVERT JUMPDEST PUSH1 0x0 DUP1 REVERT JUMPDEST PUSH1 0x0 PUSH20 0xFFFFFFFFFFFFFFFFFFFFFFFFFFFFFFFFFFFFFFFF DUP3 AND SWAP1 POP SWAP2 SWAP1 POP JUMP JUMPDEST PUSH1 0x0 PUSH3 0x293 DUP3 PUSH3 0x266 JUMP JUMPDEST SWAP1 POP SWAP2 SWAP1 POP JUMP JUMPDEST PUSH3 0x2A5 DUP2 PUSH3 0x286 JUMP JUMPDEST DUP2 EQ PUSH3 0x2B1 JUMPI PUSH1 0x0 DUP1 REVERT JUMPDEST POP JUMP JUMPDEST PUSH1 0x0 DUP2 MLOAD SWAP1 POP PUSH3 0x2C5 DUP2 PUSH3 0x29A JUMP JUMPDEST SWAP3 SWAP2 POP POP JUMP JUMPDEST PUSH1 0x0 DUP1 REVERT JUMPDEST PUSH1 0x0 DUP1 REVERT JUMPDEST PUSH1 0x0 PUSH1 0x1F NOT PUSH1 0x1F DUP4 ADD AND SWAP1 POP SWAP2 SWAP1 POP JUMP JUMPDEST PUSH32 0x4E487B7100000000000000000000000000000000000000000000000000000000 PUSH1 0x0 MSTORE PUSH1 0x41 PUSH1 0x4 MSTORE PUSH1 0x24 PUSH1 0x0 REVERT JUMPDEST PUSH3 0x320 DUP3 PUSH3 0x2D5 JUMP JUMPDEST DUP2 ADD DUP2 DUP2 LT PUSH8 0xFFFFFFFFFFFFFFFF DUP3 GT OR ISZERO PUSH3 0x342 JUMPI PUSH3 0x341 PUSH3 0x2E6 JUMP JUMPDEST JUMPDEST DUP1 PUSH1 0x40 MSTORE POP POP POP JUMP JUMPDEST PUSH1 0x0 PUSH3 0x357 PUSH3 0x252 JUMP JUMPDEST SWAP1 POP PUSH3 0x365 DUP3 DUP3 PUSH3 0x315 JUMP JUMPDEST SWAP2 SWAP1 POP JUMP JUMPDEST PUSH1 0x0 PUSH8 0xFFFFFFFFFFFFFFFF DUP3 GT ISZERO PUSH3 0x388 JUMPI PUSH3 0x387 PUSH3 0x2E6 JUMP JUMPDEST JUMPDEST PUSH3 0x393 DUP3 PUSH3 0x2D5 JUMP JUMPDEST SWAP1 POP PUSH1 0x20 DUP2 ADD SWAP1 POP SWAP2 SWAP1 POP JUMP JUMPDEST PUSH1 0x0 JUMPDEST DUP4 DUP2 LT ISZERO PUSH3 0x3C0 JUMPI DUP1 DUP3 ADD MLOAD DUP2 DUP5 ADD MSTORE PUSH1 0x20 DUP2 ADD SWAP1 POP PUSH3 0x3A3 JUMP JUMPDEST DUP4 DUP2 GT ISZERO PUSH3 0x3D0 JUMPI PUSH1 0x0 DUP5 DUP5 ADD MSTORE JUMPDEST POP POP POP POP JUMP JUMPDEST PUSH1 0x0 PUSH3 0x3ED PUSH3 0x3E7 DUP5 PUSH3 0x36A JUMP JUMPDEST PUSH3 0x34B JUMP JUMPDEST SWAP1 POP DUP3 DUP2 MSTORE PUSH1 0x20 DUP2 ADD DUP5 DUP5 DUP5 ADD GT ISZERO PUSH3 0x40C JUMPI PUSH3 0x40B PUSH3 0x2D0 JUMP JUMPDEST JUMPDEST PUSH3 0x419 DUP5 DUP3 DUP6 PUSH3 0x3A0 JUMP JUMPDEST POP SWAP4 SWAP3 POP POP POP JUMP JUMPDEST PUSH1 0x0 DUP3 PUSH1 0x1F DUP4 ADD SLT PUSH3 0x439 JUMPI PUSH3 0x438 PUSH3 0x2CB JUMP JUMPDEST JUMPDEST DUP2 MLOAD PUSH3 0x44B DUP5 DUP3 PUSH1 0x20 DUP7 ADD PUSH3 0x3D6 JUMP JUMPDEST SWAP2 POP POP SWAP3 SWAP2 POP POP JUMP JUMPDEST PUSH1 0x0 DUP1 PUSH1 0x0 DUP1 PUSH1 0x80 DUP6 DUP8 SUB SLT ISZERO PUSH3 0x471 JUMPI PUSH3 0x470 PUSH3 0x25C JUMP JUMPDEST JUMPDEST PUSH1 0x0 PUSH3 0x481 DUP8 DUP3 DUP9 ADD PUSH3 0x2B4 JUMP JUMPDEST SWAP5 POP POP PUSH1 0x20 DUP6 ADD MLOAD PUSH8 0xFFFFFFFFFFFFFFFF DUP2 GT ISZERO PUSH3 0x4A5 JUMPI PUSH3 0x4A4 PUSH3 0x261 JUMP JUMPDEST JUMPDEST PUSH3 0x4B3 DUP8 DUP3 DUP9 ADD PUSH3 0x421 JUMP JUMPDEST SWAP4 POP POP PUSH1 0x40 DUP6 ADD MLOAD PUSH8 0xFFFFFFFFFFFFFFFF DUP2 GT ISZERO PUSH3 0x4D7 JUMPI PUSH3 0x4D6 PUSH3 0x261 JUMP JUMPDEST JUMPDEST PUSH3 0x4E5 DUP8 DUP3 DUP9 ADD PUSH3 0x421 JUMP JUMPDEST SWAP3 POP POP PUSH1 0x60 DUP6 ADD MLOAD PUSH8 0xFFFFFFFFFFFFFFFF DUP2 GT ISZERO PUSH3 0x509 JUMPI PUSH3 0x508 PUSH3 0x261 JUMP JUMPDEST JUMPDEST PUSH3 0x517 DUP8 DUP3 DUP9 ADD PUSH3 0x421 JUMP JUMPDEST SWAP2 POP POP SWAP3 SWAP6 SWAP2 SWAP5 POP SWAP3 POP JUMP JUMPDEST PUSH32 0x4E487B7100000000000000000000000000000000000000000000000000000000 PUSH1 0x0 MSTORE PUSH1 0x22 PUSH1 0x4 MSTORE PUSH1 0x24 PUSH1 0x0 REVERT JUMPDEST PUSH1 0x0 PUSH1 0x2 DUP3 DIV SWAP1 POP PUSH1 0x1 DUP3 AND DUP1 PUSH3 0x56B JUMPI PUSH1 0x7F DUP3 AND SWAP2 POP JUMPDEST PUSH1 0x20 DUP3 LT DUP2 EQ ISZERO PUSH3 0x582 JUMPI PUSH3 0x581 PUSH3 0x523 JUMP JUMPDEST JUMPDEST POP SWAP2 SWAP1 POP JUMP JUMPDEST PUSH2 0x43AD DUP1 PUSH3 0x598 PUSH1 0x0 CODECOPY PUSH1 0x0 RETURN INVALID PUSH1 0x80 PUSH1 0x40 MSTORE PUSH1 0x4 CALLDATASIZE LT PUSH3 0xF2 JUMPI PUSH1 0x0 CALLDATALOAD PUSH1 0xE0 SHR DUP1 PUSH4 0x98B79628 GT PUSH3 0x8B JUMPI DUP1 PUSH4 0x9D3ED807 GT PUSH3 0x61 JUMPI DUP1 PUSH4 0x9D3ED807 EQ PUSH3 0x2D8 JUMPI DUP1 PUSH4 0xB5202522 EQ PUSH3 0x31C JUMPI DUP1 PUSH4 0xD7BB99BA EQ PUSH3 0x360 JUMPI DUP1 PUSH4 0xDFA14E23 EQ PUSH3 0x36C JUMPI PUSH3 0xF2 JUMP JUMPDEST DUP1 PUSH4 0x98B79628 EQ PUSH3 0x24C JUMPI DUP1 PUSH4 0x992B11DC EQ PUSH3 0x27A JUMPI DUP1 PUSH4 0x9C636A0F EQ PUSH3 0x2A8 JUMPI PUSH3 0xF2 JUMP JUMPDEST DUP1 PUSH4 0x4051DDAC GT PUSH3 0xCD JUMPI DUP1 PUSH4 0x4051DDAC EQ PUSH3 0x16F JUMPI DUP1 PUSH4 0x5CF298FB EQ PUSH3 0x1A8 JUMPI DUP1 PUSH4 0x5D1A870A EQ PUSH3 0x1D8 JUMPI DUP1 PUSH4 0x7F51AAF9 EQ PUSH3 0x208 JUMPI PUSH3 0xF2 JUMP JUMPDEST DUP1 PUSH4 0x2606A10B EQ PUSH3 0xF7 JUMPI DUP1 PUSH4 0x3B6246C2 EQ PUSH3 0x111 JUMPI DUP1 PUSH4 0x3E5690F4 EQ PUSH3 0x12B JUMPI JUMPDEST PUSH1 0x0 DUP1 REVERT JUMPDEST CALLVALUE DUP1 ISZERO PUSH3 0x104 JUMPI PUSH1 0x0 DUP1 REVERT JUMPDEST POP PUSH3 0x10F PUSH3 0x39A JUMP JUMPDEST STOP JUMPDEST CALLVALUE DUP1 ISZERO PUSH3 0x11E JUMPI PUSH1 0x0 DUP1 REVERT JUMPDEST POP PUSH3 0x129 PUSH3 0x5A1 JUMP JUMPDEST STOP JUMPDEST CALLVALUE DUP1 ISZERO PUSH3 0x138 JUMPI PUSH1 0x0 DUP1 REVERT JUMPDEST POP PUSH3 0x157 PUSH1 0x4 DUP1 CALLDATASIZE SUB DUP2 ADD SWAP1 PUSH3 0x151 SWAP2 SWAP1 PUSH3 0x1C75 JUMP JUMPDEST PUSH3 0x7D2 JUMP JUMPDEST PUSH1 0x40 MLOAD PUSH3 0x166 SWAP2 SWAP1 PUSH3 0x1CC4 JUMP JUMPDEST PUSH1 0x40 MLOAD DUP1 SWAP2 SUB SWAP1 RETURN JUMPDEST CALLVALUE DUP1 ISZERO PUSH3 0x17C JUMPI PUSH1 0x0 DUP1 REVERT JUMPDEST POP PUSH3 0x187 PUSH3 0x7F2 JUMP JUMPDEST PUSH1 0x40 MLOAD PUSH3 0x19F SWAP11 SWAP10 SWAP9 SWAP8 SWAP7 SWAP6 SWAP5 SWAP4 SWAP3 SWAP2 SWAP1 PUSH3 0x1E7F JUMP JUMPDEST PUSH1 0x40 MLOAD DUP1 SWAP2 SUB SWAP1 RETURN JUMPDEST CALLVALUE DUP1 ISZERO PUSH3 0x1B5 JUMPI PUSH1 0x0 DUP1 REVERT JUMPDEST POP PUSH3 0x1C0 PUSH3 0xB37 JUMP JUMPDEST PUSH1 0x40 MLOAD PUSH3 0x1CF SWAP2 SWAP1 PUSH3 0x1CC4 JUMP JUMPDEST PUSH1 0x40 MLOAD DUP1 SWAP2 SUB SWAP1 RETURN JUMPDEST CALLVALUE DUP1 ISZERO PUSH3 0x1E5 JUMPI PUSH1 0x0 DUP1 REVERT JUMPDEST POP PUSH3 0x1F0 PUSH3 0xB8B JUMP JUMPDEST PUSH1 0x40 MLOAD PUSH3 0x1FF SWAP2 SWAP1 PUSH3 0x1CC4 JUMP JUMPDEST PUSH1 0x40 MLOAD DUP1 SWAP2 SUB SWAP1 RETURN JUMPDEST CALLVALUE DUP1 ISZERO PUSH3 0x215 JUMPI PUSH1 0x0 DUP1 REVERT JUMPDEST POP PUSH3 0x234 PUSH1 0x4 DUP1 CALLDATASIZE SUB DUP2 ADD SWAP1 PUSH3 0x22E SWAP2 SWAP1 PUSH3 0x1C75 JUMP JUMPDEST PUSH3 0xB9E JUMP JUMPDEST PUSH1 0x40 MLOAD PUSH3 0x243 SWAP2 SWAP1 PUSH3 0x1CC4 JUMP JUMPDEST PUSH1 0x40 MLOAD DUP1 SWAP2 SUB SWAP1 RETURN JUMPDEST CALLVALUE DUP1 ISZERO PUSH3 0x259 JUMPI PUSH1 0x0 DUP1 REVERT JUMPDEST POP PUSH3 0x278 PUSH1 0x4 DUP1 CALLDATASIZE SUB DUP2 ADD SWAP1 PUSH3 0x272 SWAP2 SWAP1 PUSH3 0x1F83 JUMP JUMPDEST PUSH3 0xBBE JUMP JUMPDEST STOP JUMPDEST CALLVALUE DUP1 ISZERO PUSH3 0x287 JUMPI PUSH1 0x0 DUP1 REVERT JUMPDEST POP PUSH3 0x2A6 PUSH1 0x4 DUP1 CALLDATASIZE SUB DUP2 ADD SWAP1 PUSH3 0x2A0 SWAP2 SWAP1 PUSH3 0x2106 JUMP JUMPDEST PUSH3 0xFFC JUMP JUMPDEST STOP JUMPDEST CALLVALUE DUP1 ISZERO PUSH3 0x2B5 JUMPI PUSH1 0x0 DUP1 REVERT JUMPDEST POP PUSH3 0x2C0 PUSH3 0x14FA JUMP JUMPDEST PUSH1 0x40 MLOAD PUSH3 0x2CF SWAP2 SWAP1 PUSH3 0x21B6 JUMP JUMPDEST PUSH1 0x40 MLOAD DUP1 SWAP2 SUB SWAP1 RETURN JUMPDEST CALLVALUE DUP1 ISZERO PUSH3 0x2E5 JUMPI PUSH1 0x0 DUP1 REVERT JUMPDEST POP PUSH3 0x304 PUSH1 0x4 DUP1 CALLDATASIZE SUB DUP2 ADD SWAP1 PUSH3 0x2FE SWAP2 SWAP1 PUSH3 0x1F83 JUMP JUMPDEST PUSH3 0x158A JUMP JUMPDEST PUSH1 0x40 MLOAD PUSH3 0x313 SWAP2 SWAP1 PUSH3 0x21DA JUMP JUMPDEST PUSH1 0x40 MLOAD DUP1 SWAP2 SUB SWAP1 RETURN JUMPDEST CALLVALUE DUP1 ISZERO PUSH3 0x329 JUMPI PUSH1 0x0 DUP1 REVERT JUMPDEST POP PUSH3 0x348 PUSH1 0x4 DUP1 CALLDATASIZE SUB DUP2 ADD SWAP1 PUSH3 0x342 SWAP2 SWAP1 PUSH3 0x1F83 JUMP JUMPDEST PUSH3 0x15CA JUMP JUMPDEST PUSH1 0x40 MLOAD PUSH3 0x357 SWAP2 SWAP1 PUSH3 0x21DA JUMP JUMPDEST PUSH1 0x40 MLOAD DUP1 SWAP2 SUB SWAP1 RETURN JUMPDEST PUSH3 0x36A PUSH3 0x160A JUMP JUMPDEST STOP JUMPDEST CALLVALUE DUP1 ISZERO PUSH3 0x379 JUMPI PUSH1 0x0 DUP1 REVERT JUMPDEST POP PUSH3 0x398 PUSH1 0x4 DUP1 CALLDATASIZE SUB DUP2 ADD SWAP1 PUSH3 0x392 SWAP2 SWAP1 PUSH3 0x21F7 JUMP JUMPDEST PUSH3 0x16DC JUMP JUMPDEST STOP JUMPDEST PUSH1 0x8 PUSH1 0x0 SWAP1 SLOAD SWAP1 PUSH2 0x100 EXP SWAP1 DIV PUSH1 0xFF AND ISZERO PUSH3 0x3ED JUMPI PUSH1 0x40 MLOAD PUSH32 0x8C379A000000000000000000000000000000000000000000000000000000000 DUP2 MSTORE PUSH1 0x4 ADD PUSH3 0x3E4 SWAP1 PUSH3 0x2298 JUMP JUMPDEST PUSH1 0x40 MLOAD DUP1 SWAP2 SUB SWAP1 REVERT JUMPDEST PUSH1 0x1 PUSH1 0x8 PUSH1 0x0 PUSH2 0x100 EXP DUP2 SLOAD DUP2 PUSH1 0xFF MUL NOT AND SWAP1 DUP4 ISZERO ISZERO MUL OR SWAP1 SSTORE POP PUSH1 0xB PUSH1 0x0 SWAP1 SLOAD SWAP1 PUSH2 0x100 EXP SWAP1 DIV PUSH1 0xFF AND ISZERO PUSH3 0x45B JUMPI PUSH1 0x40 MLOAD PUSH32 0x8C379A000000000000000000000000000000000000000000000000000000000 DUP2 MSTORE PUSH1 0x4 ADD PUSH3 0x452 SWAP1 PUSH3 0x230A JUMP JUMPDEST PUSH1 0x40 MLOAD DUP1 SWAP2 SUB SWAP1 REVERT JUMPDEST PUSH1 0x9 PUSH1 0x0 CALLER PUSH20 0xFFFFFFFFFFFFFFFFFFFFFFFFFFFFFFFFFFFFFFFF AND PUSH20 0xFFFFFFFFFFFFFFFFFFFFFFFFFFFFFFFFFFFFFFFF AND DUP2 MSTORE PUSH1 0x20 ADD SWAP1 DUP2 MSTORE PUSH1 0x20 ADD PUSH1 0x0 KECCAK256 PUSH1 0x0 SWAP1 SLOAD SWAP1 PUSH2 0x100 EXP SWAP1 DIV PUSH1 0xFF AND ISZERO PUSH3 0x4EB JUMPI PUSH1 0x40 MLOAD PUSH32 0x8C379A000000000000000000000000000000000000000000000000000000000 DUP2 MSTORE PUSH1 0x4 ADD PUSH3 0x4E2 SWAP1 PUSH3 0x23A2 JUMP JUMPDEST PUSH1 0x40 MLOAD DUP1 SWAP2 SUB SWAP1 REVERT JUMPDEST PUSH3 0x503 PUSH1 0x1 PUSH1 0xA SLOAD PUSH3 0x18FE SWAP1 SWAP2 SWAP1 PUSH4 0xFFFFFFFF AND JUMP JUMPDEST POP PUSH1 0x1 PUSH1 0x9 PUSH1 0x0 CALLER PUSH20 0xFFFFFFFFFFFFFFFFFFFFFFFFFFFFFFFFFFFFFFFF AND PUSH20 0xFFFFFFFFFFFFFFFFFFFFFFFFFFFFFFFFFFFFFFFF AND DUP2 MSTORE PUSH1 0x20 ADD SWAP1 DUP2 MSTORE PUSH1 0x20 ADD PUSH1 0x0 KECCAK256 PUSH1 0x0 PUSH2 0x100 EXP DUP2 SLOAD DUP2 PUSH1 0xFF MUL NOT AND SWAP1 DUP4 ISZERO ISZERO MUL OR SWAP1 SSTORE POP PUSH1 0x64 PUSH1 0xA SLOAD GT ISZERO PUSH3 0x584 JUMPI PUSH1 0x1 PUSH1 0xB PUSH1 0x0 PUSH2 0x100 EXP DUP2 SLOAD DUP2 PUSH1 0xFF MUL NOT AND SWAP1 DUP4 ISZERO ISZERO MUL OR SWAP1 SSTORE POP JUMPDEST PUSH1 0x0 PUSH1 0x8 PUSH1 0x0 PUSH2 0x100 EXP DUP2 SLOAD DUP2 PUSH1 0xFF MUL NOT AND SWAP1 DUP4 ISZERO ISZERO MUL OR SWAP1 SSTORE POP JUMP JUMPDEST PUSH1 0x8 PUSH1 0x0 SWAP1 SLOAD SWAP1 PUSH2 0x100 EXP SWAP1 DIV PUSH1 0xFF AND ISZERO PUSH3 0x5F4 JUMPI PUSH1 0x40 MLOAD PUSH32 0x8C379A000000000000000000000000000000000000000000000000000000000 DUP2 MSTORE PUSH1 0x4 ADD PUSH3 0x5EB SWAP1 PUSH3 0x2298 JUMP JUMPDEST PUSH1 0x40 MLOAD DUP1 SWAP2 SUB SWAP1 REVERT JUMPDEST PUSH1 0x1 PUSH1 0x8 PUSH1 0x0 PUSH2 0x100 EXP DUP2 SLOAD DUP2 PUSH1 0xFF MUL NOT AND SWAP1 DUP4 ISZERO ISZERO MUL OR SWAP1 SSTORE POP PUSH1 0x4 PUSH1 0x0 CALLER PUSH20 0xFFFFFFFFFFFFFFFFFFFFFFFFFFFFFFFFFFFFFFFF AND PUSH20 0xFFFFFFFFFFFFFFFFFFFFFFFFFFFFFFFFFFFFFFFF AND DUP2 MSTORE PUSH1 0x20 ADD SWAP1 DUP2 MSTORE PUSH1 0x20 ADD PUSH1 0x0 KECCAK256 PUSH1 0x0 SWAP1 SLOAD SWAP1 PUSH2 0x100 EXP SWAP1 DIV PUSH1 0xFF AND PUSH3 0x69E JUMPI PUSH1 0x40 MLOAD PUSH32 0x8C379A000000000000000000000000000000000000000000000000000000000 DUP2 MSTORE PUSH1 0x4 ADD PUSH3 0x695 SWAP1 PUSH3 0x243A JUMP JUMPDEST PUSH1 0x40 MLOAD DUP1 SWAP2 SUB SWAP1 REVERT JUMPDEST PUSH1 0x0 PUSH1 0x5 DUP1 SLOAD SWAP1 POP SWAP1 POP PUSH1 0x0 PUSH3 0x6BF DUP3 SELFBALANCE PUSH3 0x1961 SWAP1 SWAP2 SWAP1 PUSH4 0xFFFFFFFF AND JUMP JUMPDEST SWAP1 POP PUSH1 0x0 DUP2 GT PUSH3 0x707 JUMPI PUSH1 0x40 MLOAD PUSH32 0x8C379A000000000000000000000000000000000000000000000000000000000 DUP2 MSTORE PUSH1 0x4 ADD PUSH3 0x6FE SWAP1 PUSH3 0x24AC JUMP JUMPDEST PUSH1 0x40 MLOAD DUP1 SWAP2 SUB SWAP1 REVERT JUMPDEST PUSH1 0x0 JUMPDEST DUP3 DUP2 LT ISZERO PUSH3 0x7B2 JUMPI PUSH1 0x5 DUP2 DUP2 SLOAD DUP2 LT PUSH3 0x72A JUMPI PUSH3 0x729 PUSH3 0x24CE JUMP JUMPDEST JUMPDEST SWAP1 PUSH1 0x0 MSTORE PUSH1 0x20 PUSH1 0x0 KECCAK256 ADD PUSH1 0x0 SWAP1 SLOAD SWAP1 PUSH2 0x100 EXP SWAP1 DIV PUSH20 0xFFFFFFFFFFFFFFFFFFFFFFFFFFFFFFFFFFFFFFFF AND PUSH20 0xFFFFFFFFFFFFFFFFFFFFFFFFFFFFFFFFFFFFFFFF AND PUSH2 0x8FC DUP4 SWAP1 DUP2 ISZERO MUL SWAP1 PUSH1 0x40 MLOAD PUSH1 0x0 PUSH1 0x40 MLOAD DUP1 DUP4 SUB DUP2 DUP6 DUP9 DUP9 CALL SWAP4 POP POP POP POP ISZERO DUP1 ISZERO PUSH3 0x79B JUMPI RETURNDATASIZE PUSH1 0x0 DUP1 RETURNDATACOPY RETURNDATASIZE PUSH1 0x0 REVERT JUMPDEST POP DUP1 DUP1 PUSH3 0x7A9 SWAP1 PUSH3 0x252C JUMP JUMPDEST SWAP2 POP POP PUSH3 0x70A JUMP JUMPDEST POP POP POP PUSH1 0x0 PUSH1 0x8 PUSH1 0x0 PUSH2 0x100 EXP DUP2 SLOAD DUP2 PUSH1 0xFF MUL NOT AND SWAP1 DUP4 ISZERO ISZERO MUL OR SWAP1 SSTORE POP JUMP JUMPDEST PUSH1 0x4 PUSH1 0x20 MSTORE DUP1 PUSH1 0x0 MSTORE PUSH1 0x40 PUSH1 0x0 KECCAK256 PUSH1 0x0 SWAP2 POP SLOAD SWAP1 PUSH2 0x100 EXP SWAP1 DIV PUSH1 0xFF AND DUP2 JUMP JUMPDEST PUSH1 0x0 PUSH1 0x60 DUP1 PUSH1 0x60 DUP1 PUSH1 0x60 PUSH1 0x0 DUP1 PUSH1 0x0 DUP1 PUSH1 0x0 DUP1 SLOAD SWAP1 PUSH2 0x100 EXP SWAP1 DIV PUSH20 0xFFFFFFFFFFFFFFFFFFFFFFFFFFFFFFFFFFFFFFFF AND PUSH1 0x1 PUSH1 0x2 PUSH1 0x3 PUSH1 0x5 PUSH1 0x7 PUSH1 0xC DUP1 SLOAD SWAP1 POP PUSH1 0xA SLOAD PUSH1 0xB PUSH1 0x0 SWAP1 SLOAD SWAP1 PUSH2 0x100 EXP SWAP1 DIV PUSH1 0xFF AND SELFBALANCE DUP9 DUP1 SLOAD PUSH3 0x855 SWAP1 PUSH3 0x25A9 JUMP JUMPDEST DUP1 PUSH1 0x1F ADD PUSH1 0x20 DUP1 SWAP2 DIV MUL PUSH1 0x20 ADD PUSH1 0x40 MLOAD SWAP1 DUP2 ADD PUSH1 0x40 MSTORE DUP1 SWAP3 SWAP2 SWAP1 DUP2 DUP2 MSTORE PUSH1 0x20 ADD DUP3 DUP1 SLOAD PUSH3 0x883 SWAP1 PUSH3 0x25A9 JUMP JUMPDEST DUP1 ISZERO PUSH3 0x8D4 JUMPI DUP1 PUSH1 0x1F LT PUSH3 0x8A8 JUMPI PUSH2 0x100 DUP1 DUP4 SLOAD DIV MUL DUP4 MSTORE SWAP2 PUSH1 0x20 ADD SWAP2 PUSH3 0x8D4 JUMP JUMPDEST DUP3 ADD SWAP2 SWAP1 PUSH1 0x0 MSTORE PUSH1 0x20 PUSH1 0x0 KECCAK256 SWAP1 JUMPDEST DUP2 SLOAD DUP2 MSTORE SWAP1 PUSH1 0x1 ADD SWAP1 PUSH1 0x20 ADD DUP1 DUP4 GT PUSH3 0x8B6 JUMPI DUP3 SWAP1 SUB PUSH1 0x1F AND DUP3 ADD SWAP2 JUMPDEST POP POP POP POP POP SWAP9 POP DUP8 DUP1 SLOAD PUSH3 0x8E9 SWAP1 PUSH3 0x25A9 JUMP JUMPDEST DUP1 PUSH1 0x1F ADD PUSH1 0x20 DUP1 SWAP2 DIV MUL PUSH1 0x20 ADD PUSH1 0x40 MLOAD SWAP1 DUP2 ADD PUSH1 0x40 MSTORE DUP1 SWAP3 SWAP2 SWAP1 DUP2 DUP2 MSTORE PUSH1 0x20 ADD DUP3 DUP1 SLOAD PUSH3 0x917 SWAP1 PUSH3 0x25A9 JUMP JUMPDEST DUP1 ISZERO PUSH3 0x968 JUMPI DUP1 PUSH1 0x1F LT PUSH3 0x93C JUMPI PUSH2 0x100 DUP1 DUP4 SLOAD DIV MUL DUP4 MSTORE SWAP2 PUSH1 0x20 ADD SWAP2 PUSH3 0x968 JUMP JUMPDEST DUP3 ADD SWAP2 SWAP1 PUSH1 0x0 MSTORE PUSH1 0x20 PUSH1 0x0 KECCAK256 SWAP1 JUMPDEST DUP2 SLOAD DUP2 MSTORE SWAP1 PUSH1 0x1 ADD SWAP1 PUSH1 0x20 ADD DUP1 DUP4 GT PUSH3 0x94A JUMPI DUP3 SWAP1 SUB PUSH1 0x1F AND DUP3 ADD SWAP2 JUMPDEST POP POP POP POP POP SWAP8 POP DUP7 DUP1 SLOAD PUSH3 0x97D SWAP1 PUSH3 0x25A9 JUMP JUMPDEST DUP1 PUSH1 0x1F ADD PUSH1 0x20 DUP1 SWAP2 DIV MUL PUSH1 0x20 ADD PUSH1 0x40 MLOAD SWAP1 DUP2 ADD PUSH1 0x40 MSTORE DUP1 SWAP3 SWAP2 SWAP1 DUP2 DUP2 MSTORE PUSH1 0x20 ADD DUP3 DUP1 SLOAD PUSH3 0x9AB SWAP1 PUSH3 0x25A9 JUMP JUMPDEST DUP1 ISZERO PUSH3 0x9FC JUMPI DUP1 PUSH1 0x1F LT PUSH3 0x9D0 JUMPI PUSH2 0x100 DUP1 DUP4 SLOAD DIV MUL DUP4 MSTORE SWAP2 PUSH1 0x20 ADD SWAP2 PUSH3 0x9FC JUMP JUMPDEST DUP3 ADD SWAP2 SWAP1 PUSH1 0x0 MSTORE PUSH1 0x20 PUSH1 0x0 KECCAK256 SWAP1 JUMPDEST DUP2 SLOAD DUP2 MSTORE SWAP1 PUSH1 0x1 ADD SWAP1 PUSH1 0x20 ADD DUP1 DUP4 GT PUSH3 0x9DE JUMPI DUP3 SWAP1 SUB PUSH1 0x1F AND DUP3 ADD SWAP2 JUMPDEST POP POP POP POP POP SWAP7 POP DUP6 DUP1 SLOAD DUP1 PUSH1 0x20 MUL PUSH1 0x20 ADD PUSH1 0x40 MLOAD SWAP1 DUP2 ADD PUSH1 0x40 MSTORE DUP1 SWAP3 SWAP2 SWAP1 DUP2 DUP2 MSTORE PUSH1 0x20 ADD DUP3 DUP1 SLOAD DUP1 ISZERO PUSH3 0xA86 JUMPI PUSH1 0x20 MUL DUP3 ADD SWAP2 SWAP1 PUSH1 0x0 MSTORE PUSH1 0x20 PUSH1 0x0 KECCAK256 SWAP1 JUMPDEST DUP2 PUSH1 0x0 SWAP1 SLOAD SWAP1 PUSH2 0x100 EXP SWAP1 DIV PUSH20 0xFFFFFFFFFFFFFFFFFFFFFFFFFFFFFFFFFFFFFFFF AND PUSH20 0xFFFFFFFFFFFFFFFFFFFFFFFFFFFFFFFFFFFFFFFF AND DUP2 MSTORE PUSH1 0x20 ADD SWAP1 PUSH1 0x1 ADD SWAP1 DUP1 DUP4 GT PUSH3 0xA3B JUMPI JUMPDEST POP POP POP POP POP SWAP6 POP DUP5 DUP1 SLOAD DUP1 PUSH1 0x20 MUL PUSH1 0x20 ADD PUSH1 0x40 MLOAD SWAP1 DUP2 ADD PUSH1 0x40 MSTORE DUP1 SWAP3 SWAP2 SWAP1 DUP2 DUP2 MSTORE PUSH1 0x20 ADD DUP3 DUP1 SLOAD DUP1 ISZERO PUSH3 0xB10 JUMPI PUSH1 0x20 MUL DUP3 ADD SWAP2 SWAP1 PUSH1 0x0 MSTORE PUSH1 0x20 PUSH1 0x0 KECCAK256 SWAP1 JUMPDEST DUP2 PUSH1 0x0 SWAP1 SLOAD SWAP1 PUSH2 0x100 EXP SWAP1 DIV PUSH20 0xFFFFFFFFFFFFFFFFFFFFFFFFFFFFFFFFFFFFFFFF AND PUSH20 0xFFFFFFFFFFFFFFFFFFFFFFFFFFFFFFFFFFFFFFFF AND DUP2 MSTORE PUSH1 0x20 ADD SWAP1 PUSH1 0x1 ADD SWAP1 DUP1 DUP4 GT PUSH3 0xAC5 JUMPI JUMPDEST POP POP POP POP POP SWAP5 POP SWAP10 POP SWAP10 POP SWAP10 POP SWAP10 POP SWAP10 POP SWAP10 POP SWAP10 POP SWAP10 POP SWAP10 POP SWAP10 POP SWAP1 SWAP2 SWAP3 SWAP4 SWAP5 SWAP6 SWAP7 SWAP8 SWAP9 SWAP10 JUMP JUMPDEST PUSH1 0x0 PUSH1 0x4 PUSH1 0x0 CALLER PUSH20 0xFFFFFFFFFFFFFFFFFFFFFFFFFFFFFFFFFFFFFFFF AND PUSH20 0xFFFFFFFFFFFFFFFFFFFFFFFFFFFFFFFFFFFFFFFF AND DUP2 MSTORE PUSH1 0x20 ADD SWAP1 DUP2 MSTORE PUSH1 0x20 ADD PUSH1 0x0 KECCAK256 PUSH1 0x0 SWAP1 SLOAD SWAP1 PUSH2 0x100 EXP SWAP1 DIV PUSH1 0xFF AND SWAP1 POP SWAP1 JUMP JUMPDEST PUSH1 0xB PUSH1 0x0 SWAP1 SLOAD SWAP1 PUSH2 0x100 EXP SWAP1 DIV PUSH1 0xFF AND DUP2 JUMP JUMPDEST PUSH1 0x6 PUSH1 0x20 MSTORE DUP1 PUSH1 0x0 MSTORE PUSH1 0x40 PUSH1 0x0 KECCAK256 PUSH1 0x0 SWAP2 POP SLOAD SWAP1 PUSH2 0x100 EXP SWAP1 DIV PUSH1 0xFF AND DUP2 JUMP JUMPDEST PUSH1 0x8 PUSH1 0x0 SWAP1 SLOAD SWAP1 PUSH2 0x100 EXP SWAP1 DIV PUSH1 0xFF AND ISZERO PUSH3 0xC11 JUMPI PUSH1 0x40 MLOAD PUSH32 0x8C379A000000000000000000000000000000000000000000000000000000000 DUP2 MSTORE PUSH1 0x4 ADD PUSH3 0xC08 SWAP1 PUSH3 0x2298 JUMP JUMPDEST PUSH1 0x40 MLOAD DUP1 SWAP2 SUB SWAP1 REVERT JUMPDEST PUSH1 0x1 PUSH1 0x8 PUSH1 0x0 PUSH2 0x100 EXP DUP2 SLOAD DUP2 PUSH1 0xFF MUL NOT AND SWAP1 DUP4 ISZERO ISZERO MUL OR SWAP1 SSTORE POP PUSH1 0xB PUSH1 0x0 SWAP1 SLOAD SWAP1 PUSH2 0x100 EXP SWAP1 DIV PUSH1 0xFF AND ISZERO PUSH3 0xC7F JUMPI PUSH1 0x40 MLOAD PUSH32 0x8C379A000000000000000000000000000000000000000000000000000000000 DUP2 MSTORE PUSH1 0x4 ADD PUSH3 0xC76 SWAP1 PUSH3 0x230A JUMP JUMPDEST PUSH1 0x40 MLOAD DUP1 SWAP2 SUB SWAP1 REVERT JUMPDEST PUSH1 0x4 PUSH1 0x0 CALLER PUSH20 0xFFFFFFFFFFFFFFFFFFFFFFFFFFFFFFFFFFFFFFFF AND PUSH20 0xFFFFFFFFFFFFFFFFFFFFFFFFFFFFFFFFFFFFFFFF AND DUP2 MSTORE PUSH1 0x20 ADD SWAP1 DUP2 MSTORE PUSH1 0x20 ADD PUSH1 0x0 KECCAK256 PUSH1 0x0 SWAP1 SLOAD SWAP1 PUSH2 0x100 EXP SWAP1 DIV PUSH1 0xFF AND PUSH3 0xD0E JUMPI PUSH1 0x40 MLOAD PUSH32 0x8C379A000000000000000000000000000000000000000000000000000000000 DUP2 MSTORE PUSH1 0x4 ADD PUSH3 0xD05 SWAP1 PUSH3 0x2655 JUMP JUMPDEST PUSH1 0x40 MLOAD DUP1 SWAP2 SUB SWAP1 REVERT JUMPDEST PUSH1 0xC DUP1 SLOAD SWAP1 POP DUP2 LT DUP1 ISZERO PUSH3 0xD24 JUMPI POP PUSH1 0x0 DUP2 LT ISZERO JUMPDEST PUSH3 0xD66 JUMPI PUSH1 0x40 MLOAD PUSH32 0x8C379A000000000000000000000000000000000000000000000000000000000 DUP2 MSTORE PUSH1 0x4 ADD PUSH3 0xD5D SWAP1 PUSH3 0x26C7 JUMP JUMPDEST PUSH1 0x40 MLOAD DUP1 SWAP2 SUB SWAP1 REVERT JUMPDEST PUSH1 0x0 PUSH1 0xC DUP3 DUP2 SLOAD DUP2 LT PUSH3 0xD7F JUMPI PUSH3 0xD7E PUSH3 0x24CE JUMP JUMPDEST JUMPDEST SWAP1 PUSH1 0x0 MSTORE PUSH1 0x20 PUSH1 0x0 KECCAK256 SWAP1 PUSH1 0x6 MUL ADD SWAP1 POP DUP1 PUSH1 0x3 ADD PUSH1 0x0 CALLER PUSH20 0xFFFFFFFFFFFFFFFFFFFFFFFFFFFFFFFFFFFFFFFF AND PUSH20 0xFFFFFFFFFFFFFFFFFFFFFFFFFFFFFFFFFFFFFFFF AND DUP2 MSTORE PUSH1 0x20 ADD SWAP1 DUP2 MSTORE PUSH1 0x20 ADD PUSH1 0x0 KECCAK256 PUSH1 0x0 SWAP1 SLOAD SWAP1 PUSH2 0x100 EXP SWAP1 DIV PUSH1 0xFF AND ISZERO PUSH3 0xE21 JUMPI PUSH1 0x40 MLOAD PUSH32 0x8C379A000000000000000000000000000000000000000000000000000000000 DUP2 MSTORE PUSH1 0x4 ADD PUSH3 0xE18 SWAP1 PUSH3 0x275F JUMP JUMPDEST PUSH1 0x40 MLOAD DUP1 SWAP2 SUB SWAP1 REVERT JUMPDEST PUSH1 0x1 DUP2 PUSH1 0x3 ADD PUSH1 0x0 CALLER PUSH20 0xFFFFFFFFFFFFFFFFFFFFFFFFFFFFFFFFFFFFFFFF AND PUSH20 0xFFFFFFFFFFFFFFFFFFFFFFFFFFFFFFFFFFFFFFFF AND DUP2 MSTORE PUSH1 0x20 ADD SWAP1 DUP2 MSTORE PUSH1 0x20 ADD PUSH1 0x0 KECCAK256 PUSH1 0x0 PUSH2 0x100 EXP DUP2 SLOAD DUP2 PUSH1 0xFF MUL NOT AND SWAP1 DUP4 ISZERO ISZERO MUL OR SWAP1 SSTORE POP PUSH3 0xE95 PUSH1 0x1 DUP3 PUSH1 0x4 ADD SLOAD PUSH3 0x18FE SWAP1 SWAP2 SWAP1 PUSH4 0xFFFFFFFF AND JUMP JUMPDEST DUP2 PUSH1 0x4 ADD DUP2 SWAP1 SSTORE POP PUSH1 0x2 PUSH1 0x5 DUP1 SLOAD SWAP1 POP PUSH3 0xEB1 SWAP2 SWAP1 PUSH3 0x27B0 JUMP JUMPDEST DUP2 PUSH1 0x4 ADD SLOAD LT PUSH3 0xFDD JUMPI PUSH1 0x1 DUP2 PUSH1 0x5 ADD PUSH1 0x0 PUSH2 0x100 EXP DUP2 SLOAD DUP2 PUSH1 0xFF MUL NOT AND SWAP1 DUP4 ISZERO ISZERO MUL OR SWAP1 SSTORE POP PUSH1 0x1 PUSH1 0x4 PUSH1 0x0 DUP4 PUSH1 0x2 ADD PUSH1 0x0 SWAP1 SLOAD SWAP1 PUSH2 0x100 EXP SWAP1 DIV PUSH20 0xFFFFFFFFFFFFFFFFFFFFFFFFFFFFFFFFFFFFFFFF AND PUSH20 0xFFFFFFFFFFFFFFFFFFFFFFFFFFFFFFFFFFFFFFFF AND PUSH20 0xFFFFFFFFFFFFFFFFFFFFFFFFFFFFFFFFFFFFFFFF AND DUP2 MSTORE PUSH1 0x20 ADD SWAP1 DUP2 MSTORE PUSH1 0x20 ADD PUSH1 0x0 KECCAK256 PUSH1 0x0 PUSH2 0x100 EXP DUP2 SLOAD DUP2 PUSH1 0xFF MUL NOT AND SWAP1 DUP4 ISZERO ISZERO MUL OR SWAP1 SSTORE POP PUSH1 0x5 DUP2 PUSH1 0x2 ADD PUSH1 0x0 SWAP1 SLOAD SWAP1 PUSH2 0x100 EXP SWAP1 DIV PUSH20 0xFFFFFFFFFFFFFFFFFFFFFFFFFFFFFFFFFFFFFFFF AND SWAP1 DUP1 PUSH1 0x1 DUP2 SLOAD ADD DUP1 DUP3 SSTORE DUP1 SWAP2 POP POP PUSH1 0x1 SWAP1 SUB SWAP1 PUSH1 0x0 MSTORE PUSH1 0x20 PUSH1 0x0 KECCAK256 ADD PUSH1 0x0 SWAP1 SWAP2 SWAP1 SWAP2 SWAP1 SWAP2 PUSH2 0x100 EXP DUP2 SLOAD DUP2 PUSH20 0xFFFFFFFFFFFFFFFFFFFFFFFFFFFFFFFFFFFFFFFF MUL NOT AND SWAP1 DUP4 PUSH20 0xFFFFFFFFFFFFFFFFFFFFFFFFFFFFFFFFFFFFFFFF AND MUL OR SWAP1 SSTORE POP JUMPDEST POP PUSH1 0x0 PUSH1 0x8 PUSH1 0x0 PUSH2 0x100 EXP DUP2 SLOAD DUP2 PUSH1 0xFF MUL NOT AND SWAP1 DUP4 ISZERO ISZERO MUL OR SWAP1 SSTORE POP POP JUMP JUMPDEST PUSH1 0x8 PUSH1 0x0 SWAP1 SLOAD SWAP1 PUSH2 0x100 EXP SWAP1 DIV PUSH1 0xFF AND ISZERO PUSH3 0x104F JUMPI PUSH1 0x40 MLOAD PUSH32 0x8C379A000000000000000000000000000000000000000000000000000000000 DUP2 MSTORE PUSH1 0x4 ADD PUSH3 0x1046 SWAP1 PUSH3 0x2298 JUMP JUMPDEST PUSH1 0x40 MLOAD DUP1 SWAP2 SUB SWAP1 REVERT JUMPDEST PUSH1 0x1 PUSH1 0x8 PUSH1 0x0 PUSH2 0x100 EXP DUP2 SLOAD DUP2 PUSH1 0xFF MUL NOT AND SWAP1 DUP4 ISZERO ISZERO MUL OR SWAP1 SSTORE POP PUSH1 0xB PUSH1 0x0 SWAP1 SLOAD SWAP1 PUSH2 0x100 EXP SWAP1 DIV PUSH1 0xFF AND ISZERO PUSH3 0x10BD JUMPI PUSH1 0x40 MLOAD PUSH32 0x8C379A000000000000000000000000000000000000000000000000000000000 DUP2 MSTORE PUSH1 0x4 ADD PUSH3 0x10B4 SWAP1 PUSH3 0x230A JUMP JUMPDEST PUSH1 0x40 MLOAD DUP1 SWAP2 SUB SWAP1 REVERT JUMPDEST PUSH1 0x4 PUSH1 0x0 CALLER PUSH20 0xFFFFFFFFFFFFFFFFFFFFFFFFFFFFFFFFFFFFFFFF AND PUSH20 0xFFFFFFFFFFFFFFFFFFFFFFFFFFFFFFFFFFFFFFFF AND DUP2 MSTORE PUSH1 0x20 ADD SWAP1 DUP2 MSTORE PUSH1 0x20 ADD PUSH1 0x0 KECCAK256 PUSH1 0x0 SWAP1 SLOAD SWAP1 PUSH2 0x100 EXP SWAP1 DIV PUSH1 0xFF AND PUSH3 0x114C JUMPI PUSH1 0x40 MLOAD PUSH32 0x8C379A000000000000000000000000000000000000000000000000000000000 DUP2 MSTORE PUSH1 0x4 ADD PUSH3 0x1143 SWAP1 PUSH3 0x285E JUMP JUMPDEST PUSH1 0x40 MLOAD DUP1 SWAP2 SUB SWAP1 REVERT JUMPDEST PUSH3 0x1157 DUP3 PUSH3 0x19BE JUMP JUMPDEST PUSH3 0x1199 JUMPI PUSH1 0x40 MLOAD PUSH32 0x8C379A000000000000000000000000000000000000000000000000000000000 DUP2 MSTORE PUSH1 0x4 ADD PUSH3 0x1190 SWAP1 PUSH3 0x28F6 JUMP JUMPDEST PUSH1 0x40 MLOAD DUP1 SWAP2 SUB SWAP1 REVERT JUMPDEST PUSH3 0x11A4 DUP2 PUSH3 0x19BE JUMP JUMPDEST PUSH3 0x11E6 JUMPI PUSH1 0x40 MLOAD PUSH32 0x8C379A000000000000000000000000000000000000000000000000000000000 DUP2 MSTORE PUSH1 0x4 ADD PUSH3 0x11DD SWAP1 PUSH3 0x2968 JUMP JUMPDEST PUSH1 0x40 MLOAD DUP1 SWAP2 SUB SWAP1 REVERT JUMPDEST PUSH3 0x11F1 DUP3 PUSH3 0x1A12 JUMP JUMPDEST PUSH3 0x1233 JUMPI PUSH1 0x40 MLOAD PUSH32 0x8C379A000000000000000000000000000000000000000000000000000000000 DUP2 MSTORE PUSH1 0x4 ADD PUSH3 0x122A SWAP1 PUSH3 0x2A00 JUMP JUMPDEST PUSH1 0x40 MLOAD DUP1 SWAP2 SUB SWAP1 REVERT JUMPDEST PUSH3 0x123E DUP2 PUSH3 0x1AA8 JUMP JUMPDEST PUSH3 0x1280 JUMPI PUSH1 0x40 MLOAD PUSH32 0x8C379A000000000000000000000000000000000000000000000000000000000 DUP2 MSTORE PUSH1 0x4 ADD PUSH3 0x1277 SWAP1 PUSH3 0x2A98 JUMP JUMPDEST PUSH1 0x40 MLOAD DUP1 SWAP2 SUB SWAP1 REVERT JUMPDEST PUSH1 0x0 CALLER ADDRESS DUP7 DUP7 DUP7 DUP7 PUSH1 0x40 MLOAD PUSH3 0x1296 SWAP1 PUSH3 0x1B3E JUMP JUMPDEST PUSH3 0x12A7 SWAP7 SWAP6 SWAP5 SWAP4 SWAP3 SWAP2 SWAP1 PUSH3 0x2ABA JUMP JUMPDEST PUSH1 0x40 MLOAD DUP1 SWAP2 SUB SWAP1 PUSH1 0x0 CREATE DUP1 ISZERO DUP1 ISZERO PUSH3 0x12C4 JUMPI RETURNDATASIZE PUSH1 0x0 DUP1 RETURNDATACOPY RETURNDATASIZE PUSH1 0x0 REVERT JUMPDEST POP SWAP1 POP PUSH1 0x0 PUSH20 0xFFFFFFFFFFFFFFFFFFFFFFFFFFFFFFFFFFFFFFFF AND DUP4 PUSH20 0xFFFFFFFFFFFFFFFFFFFFFFFFFFFFFFFFFFFFFFFF AND EQ PUSH3 0x1372 JUMPI PUSH1 0x0 DUP4 SWAP1 POP DUP1 PUSH20 0xFFFFFFFFFFFFFFFFFFFFFFFFFFFFFFFFFFFFFFFF AND PUSH4 0x988E46C8 DUP4 PUSH1 0x40 MLOAD DUP3 PUSH4 0xFFFFFFFF AND PUSH1 0xE0 SHL DUP2 MSTORE PUSH1 0x4 ADD PUSH3 0x133C SWAP2 SWAP1 PUSH3 0x21DA JUMP JUMPDEST PUSH1 0x0 PUSH1 0x40 MLOAD DUP1 DUP4 SUB DUP2 PUSH1 0x0 DUP8 DUP1 EXTCODESIZE ISZERO DUP1 ISZERO PUSH3 0x1357 JUMPI PUSH1 0x0 DUP1 REVERT JUMPDEST POP GAS CALL ISZERO DUP1 ISZERO PUSH3 0x136C JUMPI RETURNDATASIZE PUSH1 0x0 DUP1 RETURNDATACOPY RETURNDATASIZE PUSH1 0x0 REVERT JUMPDEST POP POP POP POP POP JUMPDEST PUSH1 0x0 PUSH20 0xFFFFFFFFFFFFFFFFFFFFFFFFFFFFFFFFFFFFFFFF AND DUP3 PUSH20 0xFFFFFFFFFFFFFFFFFFFFFFFFFFFFFFFFFFFFFFFF AND EQ PUSH3 0x141D JUMPI PUSH1 0x0 DUP3 SWAP1 POP DUP1 PUSH20 0xFFFFFFFFFFFFFFFFFFFFFFFFFFFFFFFFFFFFFFFF AND PUSH4 0x8758CE83 DUP4 PUSH1 0x40 MLOAD DUP3 PUSH4 0xFFFFFFFF AND PUSH1 0xE0 SHL DUP2 MSTORE PUSH1 0x4 ADD PUSH3 0x13E7 SWAP2 SWAP1 PUSH3 0x21DA JUMP JUMPDEST PUSH1 0x0 PUSH1 0x40 MLOAD DUP1 DUP4 SUB DUP2 PUSH1 0x0 DUP8 DUP1 EXTCODESIZE ISZERO DUP1 ISZERO PUSH3 0x1402 JUMPI PUSH1 0x0 DUP1 REVERT JUMPDEST POP GAS CALL ISZERO DUP1 ISZERO PUSH3 0x1417 JUMPI RETURNDATASIZE PUSH1 0x0 DUP1 RETURNDATACOPY RETURNDATASIZE PUSH1 0x0 REVERT JUMPDEST POP POP POP POP POP JUMPDEST PUSH1 0x7 DUP2 SWAP1 DUP1 PUSH1 0x1 DUP2 SLOAD ADD DUP1 DUP3 SSTORE DUP1 SWAP2 POP POP PUSH1 0x1 SWAP1 SUB SWAP1 PUSH1 0x0 MSTORE PUSH1 0x20 PUSH1 0x0 KECCAK256 ADD PUSH1 0x0 SWAP1 SWAP2 SWAP1 SWAP2 SWAP1 SWAP2 PUSH2 0x100 EXP DUP2 SLOAD DUP2 PUSH20 0xFFFFFFFFFFFFFFFFFFFFFFFFFFFFFFFFFFFFFFFF MUL NOT AND SWAP1 DUP4 PUSH20 0xFFFFFFFFFFFFFFFFFFFFFFFFFFFFFFFFFFFFFFFF AND MUL OR SWAP1 SSTORE POP PUSH1 0x1 PUSH1 0x6 PUSH1 0x0 DUP4 PUSH20 0xFFFFFFFFFFFFFFFFFFFFFFFFFFFFFFFFFFFFFFFF AND PUSH20 0xFFFFFFFFFFFFFFFFFFFFFFFFFFFFFFFFFFFFFFFF AND DUP2 MSTORE PUSH1 0x20 ADD SWAP1 DUP2 MSTORE PUSH1 0x20 ADD PUSH1 0x0 KECCAK256 PUSH1 0x0 PUSH2 0x100 EXP DUP2 SLOAD DUP2 PUSH1 0xFF MUL NOT AND SWAP1 DUP4 ISZERO ISZERO MUL OR SWAP1 SSTORE POP POP PUSH1 0x0 PUSH1 0x8 PUSH1 0x0 PUSH2 0x100 EXP DUP2 SLOAD DUP2 PUSH1 0xFF MUL NOT AND SWAP1 DUP4 ISZERO ISZERO MUL OR SWAP1 SSTORE POP POP POP POP POP JUMP JUMPDEST PUSH1 0x60 PUSH1 0x7 DUP1 SLOAD DUP1 PUSH1 0x20 MUL PUSH1 0x20 ADD PUSH1 0x40 MLOAD SWAP1 DUP2 ADD PUSH1 0x40 MSTORE DUP1 SWAP3 SWAP2 SWAP1 DUP2 DUP2 MSTORE PUSH1 0x20 ADD DUP3 DUP1 SLOAD DUP1 ISZERO PUSH3 0x1580 JUMPI PUSH1 0x20 MUL DUP3 ADD SWAP2 SWAP1 PUSH1 0x0 MSTORE PUSH1 0x20 PUSH1 0x0 KECCAK256 SWAP1 JUMPDEST DUP2 PUSH1 0x0 SWAP1 SLOAD SWAP1 PUSH2 0x100 EXP SWAP1 DIV PUSH20 0xFFFFFFFFFFFFFFFFFFFFFFFFFFFFFFFFFFFFFFFF AND PUSH20 0xFFFFFFFFFFFFFFFFFFFFFFFFFFFFFFFFFFFFFFFF AND DUP2 MSTORE PUSH1 0x20 ADD SWAP1 PUSH1 0x1 ADD SWAP1 DUP1 DUP4 GT PUSH3 0x1535 JUMPI JUMPDEST POP POP POP POP POP SWAP1 POP SWAP1 JUMP JUMPDEST PUSH1 0x5 DUP2 DUP2 SLOAD DUP2 LT PUSH3 0x159B JUMPI PUSH1 0x0 DUP1 REVERT JUMPDEST SWAP1 PUSH1 0x0 MSTORE PUSH1 0x20 PUSH1 0x0 KECCAK256 ADD PUSH1 0x0 SWAP2 POP SLOAD SWAP1 PUSH2 0x100 EXP SWAP1 DIV PUSH20 0xFFFFFFFFFFFFFFFFFFFFFFFFFFFFFFFFFFFFFFFF AND DUP2 JUMP JUMPDEST PUSH1 0x7 DUP2 DUP2 SLOAD DUP2 LT PUSH3 0x15DB JUMPI PUSH1 0x0 DUP1 REVERT JUMPDEST SWAP1 PUSH1 0x0 MSTORE PUSH1 0x20 PUSH1 0x0 KECCAK256 ADD PUSH1 0x0 SWAP2 POP SLOAD SWAP1 PUSH2 0x100 EXP SWAP1 DIV PUSH20 0xFFFFFFFFFFFFFFFFFFFFFFFFFFFFFFFFFFFFFFFF AND DUP2 JUMP JUMPDEST PUSH1 0x8 PUSH1 0x0 SWAP1 SLOAD SWAP1 PUSH2 0x100 EXP SWAP1 DIV PUSH1 0xFF AND ISZERO PUSH3 0x165D JUMPI PUSH1 0x40 MLOAD PUSH32 0x8C379A000000000000000000000000000000000000000000000000000000000 DUP2 MSTORE PUSH1 0x4 ADD PUSH3 0x1654 SWAP1 PUSH3 0x2298 JUMP JUMPDEST PUSH1 0x40 MLOAD DUP1 SWAP2 SUB SWAP1 REVERT JUMPDEST PUSH1 0x1 PUSH1 0x8 PUSH1 0x0 PUSH2 0x100 EXP DUP2 SLOAD DUP2 PUSH1 0xFF MUL NOT AND SWAP1 DUP4 ISZERO ISZERO MUL OR SWAP1 SSTORE POP PUSH1 0x64 CALLVALUE LT ISZERO PUSH3 0x16BF JUMPI PUSH1 0x40 MLOAD PUSH32 0x8C379A000000000000000000000000000000000000000000000000000000000 DUP2 MSTORE PUSH1 0x4 ADD PUSH3 0x16B6 SWAP1 PUSH3 0x2B85 JUMP JUMPDEST PUSH1 0x40 MLOAD DUP1 SWAP2 SUB SWAP1 REVERT JUMPDEST PUSH1 0x0 PUSH1 0x8 PUSH1 0x0 PUSH2 0x100 EXP DUP2 SLOAD DUP2 PUSH1 0xFF MUL NOT AND SWAP1 DUP4 ISZERO ISZERO MUL OR SWAP1 SSTORE POP JUMP JUMPDEST PUSH1 0x8 PUSH1 0x0 SWAP1 SLOAD SWAP1 PUSH2 0x100 EXP SWAP1 DIV PUSH1 0xFF AND ISZERO PUSH3 0x172F JUMPI PUSH1 0x40 MLOAD PUSH32 0x8C379A000000000000000000000000000000000000000000000000000000000 DUP2 MSTORE PUSH1 0x4 ADD PUSH3 0x1726 SWAP1 PUSH3 0x2298 JUMP JUMPDEST PUSH1 0x40 MLOAD DUP1 SWAP2 SUB SWAP1 REVERT JUMPDEST PUSH1 0x1 PUSH1 0x8 PUSH1 0x0 PUSH2 0x100 EXP DUP2 SLOAD DUP2 PUSH1 0xFF MUL NOT AND SWAP1 DUP4 ISZERO ISZERO MUL OR SWAP1 SSTORE POP PUSH1 0xB PUSH1 0x0 SWAP1 SLOAD SWAP1 PUSH2 0x100 EXP SWAP1 DIV PUSH1 0xFF AND ISZERO PUSH3 0x179D JUMPI PUSH1 0x40 MLOAD PUSH32 0x8C379A000000000000000000000000000000000000000000000000000000000 DUP2 MSTORE PUSH1 0x4 ADD PUSH3 0x1794 SWAP1 PUSH3 0x230A JUMP JUMPDEST PUSH1 0x40 MLOAD DUP1 SWAP2 SUB SWAP1 REVERT JUMPDEST PUSH1 0x4 PUSH1 0x0 CALLER PUSH20 0xFFFFFFFFFFFFFFFFFFFFFFFFFFFFFFFFFFFFFFFF AND PUSH20 0xFFFFFFFFFFFFFFFFFFFFFFFFFFFFFFFFFFFFFFFF AND DUP2 MSTORE PUSH1 0x20 ADD SWAP1 DUP2 MSTORE PUSH1 0x20 ADD PUSH1 0x0 KECCAK256 PUSH1 0x0 SWAP1 SLOAD SWAP1 PUSH2 0x100 EXP SWAP1 DIV PUSH1 0xFF AND ISZERO PUSH3 0x182D JUMPI PUSH1 0x40 MLOAD PUSH32 0x8C379A000000000000000000000000000000000000000000000000000000000 DUP2 MSTORE PUSH1 0x4 ADD PUSH3 0x1824 SWAP1 PUSH3 0x2C1D JUMP JUMPDEST PUSH1 0x40 MLOAD DUP1 SWAP2 SUB SWAP1 REVERT JUMPDEST PUSH1 0x0 PUSH1 0xC PUSH1 0x1 DUP2 PUSH1 0x1 DUP2 SLOAD ADD DUP1 DUP3 SSTORE DUP1 SWAP2 POP POP SUB SWAP1 PUSH1 0x0 MSTORE PUSH1 0x20 PUSH1 0x0 KECCAK256 SWAP1 PUSH1 0x6 MUL ADD SWAP1 POP DUP2 DUP2 PUSH1 0x0 ADD SWAP1 DUP1 MLOAD SWAP1 PUSH1 0x20 ADD SWAP1 PUSH3 0x186B SWAP3 SWAP2 SWAP1 PUSH3 0x1B4C JUMP JUMPDEST POP TIMESTAMP DUP2 PUSH1 0x1 ADD DUP2 SWAP1 SSTORE POP CALLER DUP2 PUSH1 0x2 ADD PUSH1 0x0 PUSH2 0x100 EXP DUP2 SLOAD DUP2 PUSH20 0xFFFFFFFFFFFFFFFFFFFFFFFFFFFFFFFFFFFFFFFF MUL NOT AND SWAP1 DUP4 PUSH20 0xFFFFFFFFFFFFFFFFFFFFFFFFFFFFFFFFFFFFFFFF AND MUL OR SWAP1 SSTORE POP PUSH1 0x0 DUP2 PUSH1 0x4 ADD DUP2 SWAP1 SSTORE POP PUSH1 0x0 DUP2 PUSH1 0x5 ADD PUSH1 0x0 PUSH2 0x100 EXP DUP2 SLOAD DUP2 PUSH1 0xFF MUL NOT AND SWAP1 DUP4 ISZERO ISZERO MUL OR SWAP1 SSTORE POP POP PUSH1 0x0 PUSH1 0x8 PUSH1 0x0 PUSH2 0x100 EXP DUP2 SLOAD DUP2 PUSH1 0xFF MUL NOT AND SWAP1 DUP4 ISZERO ISZERO MUL OR SWAP1 SSTORE POP POP JUMP JUMPDEST PUSH1 0x0 DUP1 DUP3 DUP5 PUSH3 0x190F SWAP2 SWAP1 PUSH3 0x2C3F JUMP JUMPDEST SWAP1 POP DUP4 DUP2 LT ISZERO PUSH3 0x1957 JUMPI PUSH1 0x40 MLOAD PUSH32 0x8C379A000000000000000000000000000000000000000000000000000000000 DUP2 MSTORE PUSH1 0x4 ADD PUSH3 0x194E SWAP1 PUSH3 0x2CEC JUMP JUMPDEST PUSH1 0x40 MLOAD DUP1 SWAP2 SUB SWAP1 REVERT JUMPDEST DUP1 SWAP2 POP POP SWAP3 SWAP2 POP POP JUMP JUMPDEST PUSH1 0x0 DUP1 DUP3 GT PUSH3 0x19A8 JUMPI PUSH1 0x40 MLOAD PUSH32 0x8C379A000000000000000000000000000000000000000000000000000000000 DUP2 MSTORE PUSH1 0x4 ADD PUSH3 0x199F SWAP1 PUSH3 0x2D5E JUMP JUMPDEST PUSH1 0x40 MLOAD DUP1 SWAP2 SUB SWAP1 REVERT JUMPDEST DUP2 DUP4 PUSH3 0x19B6 SWAP2 SWAP1 PUSH3 0x27B0 JUMP JUMPDEST SWAP1 POP SWAP3 SWAP2 POP POP JUMP JUMPDEST PUSH1 0x0 DUP1 PUSH20 0xFFFFFFFFFFFFFFFFFFFFFFFFFFFFFFFFFFFFFFFF AND DUP3 PUSH20 0xFFFFFFFFFFFFFFFFFFFFFFFFFFFFFFFFFFFFFFFF AND EQ ISZERO PUSH3 0x19FF JUMPI PUSH1 0x1 SWAP1 POP PUSH3 0x1A0D JUMP JUMPDEST PUSH1 0x0 DUP3 EXTCODESIZE SWAP1 POP PUSH1 0x0 DUP2 GT SWAP2 POP POP JUMPDEST SWAP2 SWAP1 POP JUMP JUMPDEST PUSH1 0x0 DUP1 PUSH20 0xFFFFFFFFFFFFFFFFFFFFFFFFFFFFFFFFFFFFFFFF AND DUP3 PUSH20 0xFFFFFFFFFFFFFFFFFFFFFFFFFFFFFFFFFFFFFFFF AND EQ ISZERO PUSH3 0x1A53 JUMPI PUSH1 0x1 SWAP1 POP PUSH3 0x1AA3 JUMP JUMPDEST PUSH1 0x6 PUSH1 0x0 DUP4 PUSH20 0xFFFFFFFFFFFFFFFFFFFFFFFFFFFFFFFFFFFFFFFF AND PUSH20 0xFFFFFFFFFFFFFFFFFFFFFFFFFFFFFFFFFFFFFFFF AND DUP2 MSTORE PUSH1 0x20 ADD SWAP1 DUP2 MSTORE PUSH1 0x20 ADD PUSH1 0x0 KECCAK256 PUSH1 0x0 SWAP1 SLOAD SWAP1 PUSH2 0x100 EXP SWAP1 DIV PUSH1 0xFF AND SWAP1 POP JUMPDEST SWAP2 SWAP1 POP JUMP JUMPDEST PUSH1 0x0 DUP1 PUSH20 0xFFFFFFFFFFFFFFFFFFFFFFFFFFFFFFFFFFFFFFFF AND DUP3 PUSH20 0xFFFFFFFFFFFFFFFFFFFFFFFFFFFFFFFFFFFFFFFF AND EQ ISZERO PUSH3 0x1AE9 JUMPI PUSH1 0x1 SWAP1 POP PUSH3 0x1B39 JUMP JUMPDEST PUSH1 0x6 PUSH1 0x0 DUP4 PUSH20 0xFFFFFFFFFFFFFFFFFFFFFFFFFFFFFFFFFFFFFFFF AND PUSH20 0xFFFFFFFFFFFFFFFFFFFFFFFFFFFFFFFFFFFFFFFF AND DUP2 MSTORE PUSH1 0x20 ADD SWAP1 DUP2 MSTORE PUSH1 0x20 ADD PUSH1 0x0 KECCAK256 PUSH1 0x0 SWAP1 SLOAD SWAP1 PUSH2 0x100 EXP SWAP1 DIV PUSH1 0xFF AND SWAP1 POP JUMPDEST SWAP2 SWAP1 POP JUMP JUMPDEST PUSH2 0x15F7 DUP1 PUSH3 0x2D81 DUP4 CODECOPY ADD SWAP1 JUMP JUMPDEST DUP3 DUP1 SLOAD PUSH3 0x1B5A SWAP1 PUSH3 0x25A9 JUMP JUMPDEST SWAP1 PUSH1 0x0 MSTORE PUSH1 0x20 PUSH1 0x0 KECCAK256 SWAP1 PUSH1 0x1F ADD PUSH1 0x20 SWAP1 DIV DUP2 ADD SWAP3 DUP3 PUSH3 0x1B7E JUMPI PUSH1 0x0 DUP6 SSTORE PUSH3 0x1BCA JUMP JUMPDEST DUP3 PUSH1 0x1F LT PUSH3 0x1B99 JUMPI DUP1 MLOAD PUSH1 0xFF NOT AND DUP4 DUP1 ADD OR DUP6 SSTORE PUSH3 0x1BCA JUMP JUMPDEST DUP3 DUP1 ADD PUSH1 0x1 ADD DUP6 SSTORE DUP3 ISZERO PUSH3 0x1BCA JUMPI SWAP2 DUP3 ADD JUMPDEST DUP3 DUP2 GT ISZERO PUSH3 0x1BC9 JUMPI DUP3 MLOAD DUP3 SSTORE SWAP2 PUSH1 0x20 ADD SWAP2 SWAP1 PUSH1 0x1 ADD SWAP1 PUSH3 0x1BAC JUMP JUMPDEST JUMPDEST POP SWAP1 POP PUSH3 0x1BD9 SWAP2 SWAP1 PUSH3 0x1BDD JUMP JUMPDEST POP SWAP1 JUMP JUMPDEST JUMPDEST DUP1 DUP3 GT ISZERO PUSH3 0x1BF8 JUMPI PUSH1 0x0 DUP2 PUSH1 0x0 SWAP1 SSTORE POP PUSH1 0x1 ADD PUSH3 0x1BDE JUMP JUMPDEST POP SWAP1 JUMP JUMPDEST PUSH1 0x0 PUSH1 0x40 MLOAD SWAP1 POP SWAP1 JUMP JUMPDEST PUSH1 0x0 DUP1 REVERT JUMPDEST PUSH1 0x0 DUP1 REVERT JUMPDEST PUSH1 0x0 PUSH20 0xFFFFFFFFFFFFFFFFFFFFFFFFFFFFFFFFFFFFFFFF DUP3 AND SWAP1 POP SWAP2 SWAP1 POP JUMP JUMPDEST PUSH1 0x0 PUSH3 0x1C3D DUP3 PUSH3 0x1C10 JUMP JUMPDEST SWAP1 POP SWAP2 SWAP1 POP JUMP JUMPDEST PUSH3 0x1C4F DUP2 PUSH3 0x1C30 JUMP JUMPDEST DUP2 EQ PUSH3 0x1C5B JUMPI PUSH1 0x0 DUP1 REVERT JUMPDEST POP JUMP JUMPDEST PUSH1 0x0 DUP2 CALLDATALOAD SWAP1 POP PUSH3 0x1C6F DUP2 PUSH3 0x1C44 JUMP JUMPDEST SWAP3 SWAP2 POP POP JUMP JUMPDEST PUSH1 0x0 PUSH1 0x20 DUP3 DUP5 SUB SLT ISZERO PUSH3 0x1C8E JUMPI PUSH3 0x1C8D PUSH3 0x1C06 JUMP JUMPDEST JUMPDEST PUSH1 0x0 PUSH3 0x1C9E DUP5 DUP3 DUP6 ADD PUSH3 0x1C5E JUMP JUMPDEST SWAP2 POP POP SWAP3 SWAP2 POP POP JUMP JUMPDEST PUSH1 0x0 DUP2 ISZERO ISZERO SWAP1 POP SWAP2 SWAP1 POP JUMP JUMPDEST PUSH3 0x1CBE DUP2 PUSH3 0x1CA7 JUMP JUMPDEST DUP3 MSTORE POP POP JUMP JUMPDEST PUSH1 0x0 PUSH1 0x20 DUP3 ADD SWAP1 POP PUSH3 0x1CDB PUSH1 0x0 DUP4 ADD DUP5 PUSH3 0x1CB3 JUMP JUMPDEST SWAP3 SWAP2 POP POP JUMP JUMPDEST PUSH3 0x1CEC DUP2 PUSH3 0x1C30 JUMP JUMPDEST DUP3 MSTORE POP POP JUMP JUMPDEST PUSH1 0x0 DUP2 MLOAD SWAP1 POP SWAP2 SWAP1 POP JUMP JUMPDEST PUSH1 0x0 DUP3 DUP3 MSTORE PUSH1 0x20 DUP3 ADD SWAP1 POP SWAP3 SWAP2 POP POP JUMP JUMPDEST PUSH1 0x0 JUMPDEST DUP4 DUP2 LT ISZERO PUSH3 0x1D2E JUMPI DUP1 DUP3 ADD MLOAD DUP2 DUP5 ADD MSTORE PUSH1 0x20 DUP2 ADD SWAP1 POP PUSH3 0x1D11 JUMP JUMPDEST DUP4 DUP2 GT ISZERO PUSH3 0x1D3E JUMPI PUSH1 0x0 DUP5 DUP5 ADD MSTORE JUMPDEST POP POP POP POP JUMP JUMPDEST PUSH1 0x0 PUSH1 0x1F NOT PUSH1 0x1F DUP4 ADD AND SWAP1 POP SWAP2 SWAP1 POP JUMP JUMPDEST PUSH1 0x0 PUSH3 0x1D62 DUP3 PUSH3 0x1CF2 JUMP JUMPDEST PUSH3 0x1D6E DUP2 DUP6 PUSH3 0x1CFD JUMP JUMPDEST SWAP4 POP PUSH3 0x1D80 DUP2 DUP6 PUSH1 0x20 DUP7 ADD PUSH3 0x1D0E JUMP JUMPDEST PUSH3 0x1D8B DUP2 PUSH3 0x1D44 JUMP JUMPDEST DUP5 ADD SWAP2 POP POP SWAP3 SWAP2 POP POP JUMP JUMPDEST PUSH1 0x0 DUP2 MLOAD SWAP1 POP SWAP2 SWAP1 POP JUMP JUMPDEST PUSH1 0x0 DUP3 DUP3 MSTORE PUSH1 0x20 DUP3 ADD SWAP1 POP SWAP3 SWAP2 POP POP JUMP JUMPDEST PUSH1 0x0 DUP2 SWAP1 POP PUSH1 0x20 DUP3 ADD SWAP1 POP SWAP2 SWAP1 POP JUMP JUMPDEST PUSH3 0x1DCD DUP2 PUSH3 0x1C30 JUMP JUMPDEST DUP3 MSTORE POP POP JUMP JUMPDEST PUSH1 0x0 PUSH3 0x1DE1 DUP4 DUP4 PUSH3 0x1DC2 JUMP JUMPDEST PUSH1 0x20 DUP4 ADD SWAP1 POP SWAP3 SWAP2 POP POP JUMP JUMPDEST PUSH1 0x0 PUSH1 0x20 DUP3 ADD SWAP1 POP SWAP2 SWAP1 POP JUMP JUMPDEST PUSH1 0x0 PUSH3 0x1E07 DUP3 PUSH3 0x1D96 JUMP JUMPDEST PUSH3 0x1E13 DUP2 DUP6 PUSH3 0x1DA1 JUMP JUMPDEST SWAP4 POP PUSH3 0x1E20 DUP4 PUSH3 0x1DB2 JUMP JUMPDEST DUP1 PUSH1 0x0 JUMPDEST DUP4 DUP2 LT ISZERO PUSH3 0x1E57 JUMPI DUP2 MLOAD PUSH3 0x1E3B DUP9 DUP3 PUSH3 0x1DD3 JUMP JUMPDEST SWAP8 POP PUSH3 0x1E48 DUP4 PUSH3 0x1DED JUMP JUMPDEST SWAP3 POP POP PUSH1 0x1 DUP2 ADD SWAP1 POP PUSH3 0x1E24 JUMP JUMPDEST POP DUP6 SWAP4 POP POP POP POP SWAP3 SWAP2 POP POP JUMP JUMPDEST PUSH1 0x0 DUP2 SWAP1 POP SWAP2 SWAP1 POP JUMP JUMPDEST PUSH3 0x1E79 DUP2 PUSH3 0x1E64 JUMP JUMPDEST DUP3 MSTORE POP POP JUMP JUMPDEST PUSH1 0x0 PUSH2 0x140 DUP3 ADD SWAP1 POP PUSH3 0x1E97 PUSH1 0x0 DUP4 ADD DUP14 PUSH3 0x1CE1 JUMP JUMPDEST DUP2 DUP2 SUB PUSH1 0x20 DUP4 ADD MSTORE PUSH3 0x1EAB DUP2 DUP13 PUSH3 0x1D55 JUMP JUMPDEST SWAP1 POP DUP2 DUP2 SUB PUSH1 0x40 DUP4 ADD MSTORE PUSH3 0x1EC1 DUP2 DUP12 PUSH3 0x1D55 JUMP JUMPDEST SWAP1 POP DUP2 DUP2 SUB PUSH1 0x60 DUP4 ADD MSTORE PUSH3 0x1ED7 DUP2 DUP11 PUSH3 0x1D55 JUMP JUMPDEST SWAP1 POP DUP2 DUP2 SUB PUSH1 0x80 DUP4 ADD MSTORE PUSH3 0x1EED DUP2 DUP10 PUSH3 0x1DFA JUMP JUMPDEST SWAP1 POP DUP2 DUP2 SUB PUSH1 0xA0 DUP4 ADD MSTORE PUSH3 0x1F03 DUP2 DUP9 PUSH3 0x1DFA JUMP JUMPDEST SWAP1 POP PUSH3 0x1F14 PUSH1 0xC0 DUP4 ADD DUP8 PUSH3 0x1E6E JUMP JUMPDEST PUSH3 0x1F23 PUSH1 0xE0 DUP4 ADD DUP7 PUSH3 0x1E6E JUMP JUMPDEST PUSH3 0x1F33 PUSH2 0x100 DUP4 ADD DUP6 PUSH3 0x1CB3 JUMP JUMPDEST PUSH3 0x1F43 PUSH2 0x120 DUP4 ADD DUP5 PUSH3 0x1E6E JUMP JUMPDEST SWAP12 SWAP11 POP POP POP POP POP POP POP POP POP POP POP JUMP JUMPDEST PUSH3 0x1F5D DUP2 PUSH3 0x1E64 JUMP JUMPDEST DUP2 EQ PUSH3 0x1F69 JUMPI PUSH1 0x0 DUP1 REVERT JUMPDEST POP JUMP JUMPDEST PUSH1 0x0 DUP2 CALLDATALOAD SWAP1 POP PUSH3 0x1F7D DUP2 PUSH3 0x1F52 JUMP JUMPDEST SWAP3 SWAP2 POP POP JUMP JUMPDEST PUSH1 0x0 PUSH1 0x20 DUP3 DUP5 SUB SLT ISZERO PUSH3 0x1F9C JUMPI PUSH3 0x1F9B PUSH3 0x1C06 JUMP JUMPDEST JUMPDEST PUSH1 0x0 PUSH3 0x1FAC DUP5 DUP3 DUP6 ADD PUSH3 0x1F6C JUMP JUMPDEST SWAP2 POP POP SWAP3 SWAP2 POP POP JUMP JUMPDEST PUSH1 0x0 DUP1 REVERT JUMPDEST PUSH1 0x0 DUP1 REVERT JUMPDEST PUSH32 0x4E487B7100000000000000000000000000000000000000000000000000000000 PUSH1 0x0 MSTORE PUSH1 0x41 PUSH1 0x4 MSTORE PUSH1 0x24 PUSH1 0x0 REVERT JUMPDEST PUSH3 0x1FF9 DUP3 PUSH3 0x1D44 JUMP JUMPDEST DUP2 ADD DUP2 DUP2 LT PUSH8 0xFFFFFFFFFFFFFFFF DUP3 GT OR ISZERO PUSH3 0x201B JUMPI PUSH3 0x201A PUSH3 0x1FBF JUMP JUMPDEST JUMPDEST DUP1 PUSH1 0x40 MSTORE POP POP POP JUMP JUMPDEST PUSH1 0x0 PUSH3 0x2030 PUSH3 0x1BFC JUMP JUMPDEST SWAP1 POP PUSH3 0x203E DUP3 DUP3 PUSH3 0x1FEE JUMP JUMPDEST SWAP2 SWAP1 POP JUMP JUMPDEST PUSH1 0x0 PUSH8 0xFFFFFFFFFFFFFFFF DUP3 GT ISZERO PUSH3 0x2061 JUMPI PUSH3 0x2060 PUSH3 0x1FBF JUMP JUMPDEST JUMPDEST PUSH3 0x206C DUP3 PUSH3 0x1D44 JUMP JUMPDEST SWAP1 POP PUSH1 0x20 DUP2 ADD SWAP1 POP SWAP2 SWAP1 POP JUMP JUMPDEST DUP3 DUP2 DUP4 CALLDATACOPY PUSH1 0x0 DUP4 DUP4 ADD MSTORE POP POP POP JUMP JUMPDEST PUSH1 0x0 PUSH3 0x209F PUSH3 0x2099 DUP5 PUSH3 0x2043 JUMP JUMPDEST PUSH3 0x2024 JUMP JUMPDEST SWAP1 POP DUP3 DUP2 MSTORE PUSH1 0x20 DUP2 ADD DUP5 DUP5 DUP5 ADD GT ISZERO PUSH3 0x20BE JUMPI PUSH3 0x20BD PUSH3 0x1FBA JUMP JUMPDEST JUMPDEST PUSH3 0x20CB DUP5 DUP3 DUP6 PUSH3 0x2079 JUMP JUMPDEST POP SWAP4 SWAP3 POP POP POP JUMP JUMPDEST PUSH1 0x0 DUP3 PUSH1 0x1F DUP4 ADD SLT PUSH3 0x20EB JUMPI PUSH3 0x20EA PUSH3 0x1FB5 JUMP JUMPDEST JUMPDEST DUP2 CALLDATALOAD PUSH3 0x20FD DUP5 DUP3 PUSH1 0x20 DUP7 ADD PUSH3 0x2088 JUMP JUMPDEST SWAP2 POP POP SWAP3 SWAP2 POP POP JUMP JUMPDEST PUSH1 0x0 DUP1 PUSH1 0x0 DUP1 PUSH1 0x80 DUP6 DUP8 SUB SLT ISZERO PUSH3 0x2123 JUMPI PUSH3 0x2122 PUSH3 0x1C06 JUMP JUMPDEST JUMPDEST PUSH1 0x0 DUP6 ADD CALLDATALOAD PUSH8 0xFFFFFFFFFFFFFFFF DUP2 GT ISZERO PUSH3 0x2144 JUMPI PUSH3 0x2143 PUSH3 0x1C0B JUMP JUMPDEST JUMPDEST PUSH3 0x2152 DUP8 DUP3 DUP9 ADD PUSH3 0x20D3 JUMP JUMPDEST SWAP5 POP POP PUSH1 0x20 DUP6 ADD CALLDATALOAD PUSH8 0xFFFFFFFFFFFFFFFF DUP2 GT ISZERO PUSH3 0x2176 JUMPI PUSH3 0x2175 PUSH3 0x1C0B JUMP JUMPDEST JUMPDEST PUSH3 0x2184 DUP8 DUP3 DUP9 ADD PUSH3 0x20D3 JUMP JUMPDEST SWAP4 POP POP PUSH1 0x40 PUSH3 0x2197 DUP8 DUP3 DUP9 ADD PUSH3 0x1C5E JUMP JUMPDEST SWAP3 POP POP PUSH1 0x60 PUSH3 0x21AA DUP8 DUP3 DUP9 ADD PUSH3 0x1C5E JUMP JUMPDEST SWAP2 POP POP SWAP3 SWAP6 SWAP2 SWAP5 POP SWAP3 POP JUMP JUMPDEST PUSH1 0x0 PUSH1 0x20 DUP3 ADD SWAP1 POP DUP2 DUP2 SUB PUSH1 0x0 DUP4 ADD MSTORE PUSH3 0x21D2 DUP2 DUP5 PUSH3 0x1DFA JUMP JUMPDEST SWAP1 POP SWAP3 SWAP2 POP POP JUMP JUMPDEST PUSH1 0x0 PUSH1 0x20 DUP3 ADD SWAP1 POP PUSH3 0x21F1 PUSH1 0x0 DUP4 ADD DUP5 PUSH3 0x1CE1 JUMP JUMPDEST SWAP3 SWAP2 POP POP JUMP JUMPDEST PUSH1 0x0 PUSH1 0x20 DUP3 DUP5 SUB SLT ISZERO PUSH3 0x2210 JUMPI PUSH3 0x220F PUSH3 0x1C06 JUMP JUMPDEST JUMPDEST PUSH1 0x0 DUP3 ADD CALLDATALOAD PUSH8 0xFFFFFFFFFFFFFFFF DUP2 GT ISZERO PUSH3 0x2231 JUMPI PUSH3 0x2230 PUSH3 0x1C0B JUMP JUMPDEST JUMPDEST PUSH3 0x223F DUP5 DUP3 DUP6 ADD PUSH3 0x20D3 JUMP JUMPDEST SWAP2 POP POP SWAP3 SWAP2 POP POP JUMP JUMPDEST PUSH32 0x5265656E7472616E742063616C6C000000000000000000000000000000000000 PUSH1 0x0 DUP3 ADD MSTORE POP JUMP JUMPDEST PUSH1 0x0 PUSH3 0x2280 PUSH1 0xE DUP4 PUSH3 0x1CFD JUMP JUMPDEST SWAP2 POP PUSH3 0x228D DUP3 PUSH3 0x2248 JUMP JUMPDEST PUSH1 0x20 DUP3 ADD SWAP1 POP SWAP2 SWAP1 POP JUMP JUMPDEST PUSH1 0x0 PUSH1 0x20 DUP3 ADD SWAP1 POP DUP2 DUP2 SUB PUSH1 0x0 DUP4 ADD MSTORE PUSH3 0x22B3 DUP2 PUSH3 0x2271 JUMP JUMPDEST SWAP1 POP SWAP2 SWAP1 POP JUMP JUMPDEST PUSH32 0x546869732073746F727920686173206265656E207265706F7274656400000000 PUSH1 0x0 DUP3 ADD MSTORE POP JUMP JUMPDEST PUSH1 0x0 PUSH3 0x22F2 PUSH1 0x1C DUP4 PUSH3 0x1CFD JUMP JUMPDEST SWAP2 POP PUSH3 0x22FF DUP3 PUSH3 0x22BA JUMP JUMPDEST PUSH1 0x20 DUP3 ADD SWAP1 POP SWAP2 SWAP1 POP JUMP JUMPDEST PUSH1 0x0 PUSH1 0x20 DUP3 ADD SWAP1 POP DUP2 DUP2 SUB PUSH1 0x0 DUP4 ADD MSTORE PUSH3 0x2325 DUP2 PUSH3 0x22E3 JUMP JUMPDEST SWAP1 POP SWAP2 SWAP1 POP JUMP JUMPDEST PUSH32 0x596F752068617665207265706F7274656420746869732073746F727920626566 PUSH1 0x0 DUP3 ADD MSTORE PUSH32 0x6F72650000000000000000000000000000000000000000000000000000000000 PUSH1 0x20 DUP3 ADD MSTORE POP JUMP JUMPDEST PUSH1 0x0 PUSH3 0x238A PUSH1 0x23 DUP4 PUSH3 0x1CFD JUMP JUMPDEST SWAP2 POP PUSH3 0x2397 DUP3 PUSH3 0x232C JUMP JUMPDEST PUSH1 0x40 DUP3 ADD SWAP1 POP SWAP2 SWAP1 POP JUMP JUMPDEST PUSH1 0x0 PUSH1 0x20 DUP3 ADD SWAP1 POP DUP2 DUP2 SUB PUSH1 0x0 DUP4 ADD MSTORE PUSH3 0x23BD DUP2 PUSH3 0x237B JUMP JUMPDEST SWAP1 POP SWAP2 SWAP1 POP JUMP JUMPDEST PUSH32 0x4F6E6C7920616E20617574686F72697A656420617574686F722063616E206469 PUSH1 0x0 DUP3 ADD MSTORE PUSH32 0x7370656E73652072657761726473000000000000000000000000000000000000 PUSH1 0x20 DUP3 ADD MSTORE POP JUMP JUMPDEST PUSH1 0x0 PUSH3 0x2422 PUSH1 0x2E DUP4 PUSH3 0x1CFD JUMP JUMPDEST SWAP2 POP PUSH3 0x242F DUP3 PUSH3 0x23C4 JUMP JUMPDEST PUSH1 0x40 DUP3 ADD SWAP1 POP SWAP2 SWAP1 POP JUMP JUMPDEST PUSH1 0x0 PUSH1 0x20 DUP3 ADD SWAP1 POP DUP2 DUP2 SUB PUSH1 0x0 DUP4 ADD MSTORE PUSH3 0x2455 DUP2 PUSH3 0x2413 JUMP JUMPDEST SWAP1 POP SWAP2 SWAP1 POP JUMP JUMPDEST PUSH32 0x4E6F2072657761726420746F2064697370656E73650000000000000000000000 PUSH1 0x0 DUP3 ADD MSTORE POP JUMP JUMPDEST PUSH1 0x0 PUSH3 0x2494 PUSH1 0x15 DUP4 PUSH3 0x1CFD JUMP JUMPDEST SWAP2 POP PUSH3 0x24A1 DUP3 PUSH3 0x245C JUMP JUMPDEST PUSH1 0x20 DUP3 ADD SWAP1 POP SWAP2 SWAP1 POP JUMP JUMPDEST PUSH1 0x0 PUSH1 0x20 DUP3 ADD SWAP1 POP DUP2 DUP2 SUB PUSH1 0x0 DUP4 ADD MSTORE PUSH3 0x24C7 DUP2 PUSH3 0x2485 JUMP JUMPDEST SWAP1 POP SWAP2 SWAP1 POP JUMP JUMPDEST PUSH32 0x4E487B7100000000000000000000000000000000000000000000000000000000 PUSH1 0x0 MSTORE PUSH1 0x32 PUSH1 0x4 MSTORE PUSH1 0x24 PUSH1 0x0 REVERT JUMPDEST PUSH32 0x4E487B7100000000000000000000000000000000000000000000000000000000 PUSH1 0x0 MSTORE PUSH1 0x11 PUSH1 0x4 MSTORE PUSH1 0x24 PUSH1 0x0 REVERT JUMPDEST PUSH1 0x0 PUSH3 0x2539 DUP3 PUSH3 0x1E64 JUMP JUMPDEST SWAP2 POP PUSH32 0xFFFFFFFFFFFFFFFFFFFFFFFFFFFFFFFFFFFFFFFFFFFFFFFFFFFFFFFFFFFFFFFF DUP3 EQ ISZERO PUSH3 0x256F JUMPI PUSH3 0x256E PUSH3 0x24FD JUMP JUMPDEST JUMPDEST PUSH1 0x1 DUP3 ADD SWAP1 POP SWAP2 SWAP1 POP JUMP JUMPDEST PUSH32 0x4E487B7100000000000000000000000000000000000000000000000000000000 PUSH1 0x0 MSTORE PUSH1 0x22 PUSH1 0x4 MSTORE PUSH1 0x24 PUSH1 0x0 REVERT JUMPDEST PUSH1 0x0 PUSH1 0x2 DUP3 DIV SWAP1 POP PUSH1 0x1 DUP3 AND DUP1 PUSH3 0x25C2 JUMPI PUSH1 0x7F DUP3 AND SWAP2 POP JUMPDEST PUSH1 0x20 DUP3 LT DUP2 EQ ISZERO PUSH3 0x25D9 JUMPI PUSH3 0x25D8 PUSH3 0x257A JUMP JUMPDEST JUMPDEST POP SWAP2 SWAP1 POP JUMP JUMPDEST PUSH32 0x4F6E6C7920616E20616363657074656420617574686F722063616E2061707072 PUSH1 0x0 DUP3 ADD MSTORE PUSH32 0x6F76652061207265717565737400000000000000000000000000000000000000 PUSH1 0x20 DUP3 ADD MSTORE POP JUMP JUMPDEST PUSH1 0x0 PUSH3 0x263D PUSH1 0x2D DUP4 PUSH3 0x1CFD JUMP JUMPDEST SWAP2 POP PUSH3 0x264A DUP3 PUSH3 0x25DF JUMP JUMPDEST PUSH1 0x40 DUP3 ADD SWAP1 POP SWAP2 SWAP1 POP JUMP JUMPDEST PUSH1 0x0 PUSH1 0x20 DUP3 ADD SWAP1 POP DUP2 DUP2 SUB PUSH1 0x0 DUP4 ADD MSTORE PUSH3 0x2670 DUP2 PUSH3 0x262E JUMP JUMPDEST SWAP1 POP SWAP2 SWAP1 POP JUMP JUMPDEST PUSH32 0x496E646578206F7574206F6620626F756E647300000000000000000000000000 PUSH1 0x0 DUP3 ADD MSTORE POP JUMP JUMPDEST PUSH1 0x0 PUSH3 0x26AF PUSH1 0x13 DUP4 PUSH3 0x1CFD JUMP JUMPDEST SWAP2 POP PUSH3 0x26BC DUP3 PUSH3 0x2677 JUMP JUMPDEST PUSH1 0x20 DUP3 ADD SWAP1 POP SWAP2 SWAP1 POP JUMP JUMPDEST PUSH1 0x0 PUSH1 0x20 DUP3 ADD SWAP1 POP DUP2 DUP2 SUB PUSH1 0x0 DUP4 ADD MSTORE PUSH3 0x26E2 DUP2 PUSH3 0x26A0 JUMP JUMPDEST SWAP1 POP SWAP2 SWAP1 POP JUMP JUMPDEST PUSH32 0x5468697320617574686F7220616C726561647920617070726F76656420626566 PUSH1 0x0 DUP3 ADD MSTORE PUSH32 0x6F72650000000000000000000000000000000000000000000000000000000000 PUSH1 0x20 DUP3 ADD MSTORE POP JUMP JUMPDEST PUSH1 0x0 PUSH3 0x2747 PUSH1 0x23 DUP4 PUSH3 0x1CFD JUMP JUMPDEST SWAP2 POP PUSH3 0x2754 DUP3 PUSH3 0x26E9 JUMP JUMPDEST PUSH1 0x40 DUP3 ADD SWAP1 POP SWAP2 SWAP1 POP JUMP JUMPDEST PUSH1 0x0 PUSH1 0x20 DUP3 ADD SWAP1 POP DUP2 DUP2 SUB PUSH1 0x0 DUP4 ADD MSTORE PUSH3 0x277A DUP2 PUSH3 0x2738 JUMP JUMPDEST SWAP1 POP SWAP2 SWAP1 POP JUMP JUMPDEST PUSH32 0x4E487B7100000000000000000000000000000000000000000000000000000000 PUSH1 0x0 MSTORE PUSH1 0x12 PUSH1 0x4 MSTORE PUSH1 0x24 PUSH1 0x0 REVERT JUMPDEST PUSH1 0x0 PUSH3 0x27BD DUP3 PUSH3 0x1E64 JUMP JUMPDEST SWAP2 POP PUSH3 0x27CA DUP4 PUSH3 0x1E64 JUMP JUMPDEST SWAP3 POP DUP3 PUSH3 0x27DD JUMPI PUSH3 0x27DC PUSH3 0x2781 JUMP JUMPDEST JUMPDEST DUP3 DUP3 DIV SWAP1 POP SWAP3 SWAP2 POP POP JUMP JUMPDEST PUSH32 0x4F6E6C7920616E20616363657074656420617574686F722063616E2063726561 PUSH1 0x0 DUP3 ADD MSTORE PUSH32 0x7465206120636861707465720000000000000000000000000000000000000000 PUSH1 0x20 DUP3 ADD MSTORE POP JUMP JUMPDEST PUSH1 0x0 PUSH3 0x2846 PUSH1 0x2C DUP4 PUSH3 0x1CFD JUMP JUMPDEST SWAP2 POP PUSH3 0x2853 DUP3 PUSH3 0x27E8 JUMP JUMPDEST PUSH1 0x40 DUP3 ADD SWAP1 POP SWAP2 SWAP1 POP JUMP JUMPDEST PUSH1 0x0 PUSH1 0x20 DUP3 ADD SWAP1 POP DUP2 DUP2 SUB PUSH1 0x0 DUP4 ADD MSTORE PUSH3 0x2879 DUP2 PUSH3 0x2837 JUMP JUMPDEST SWAP1 POP SWAP2 SWAP1 POP JUMP JUMPDEST PUSH32 0x506172656E742063686170746572206D757374206265206120636F6E74726163 PUSH1 0x0 DUP3 ADD MSTORE PUSH32 0x7400000000000000000000000000000000000000000000000000000000000000 PUSH1 0x20 DUP3 ADD MSTORE POP JUMP JUMPDEST PUSH1 0x0 PUSH3 0x28DE PUSH1 0x21 DUP4 PUSH3 0x1CFD JUMP JUMPDEST SWAP2 POP PUSH3 0x28EB DUP3 PUSH3 0x2880 JUMP JUMPDEST PUSH1 0x40 DUP3 ADD SWAP1 POP SWAP2 SWAP1 POP JUMP JUMPDEST PUSH1 0x0 PUSH1 0x20 DUP3 ADD SWAP1 POP DUP2 DUP2 SUB PUSH1 0x0 DUP4 ADD MSTORE PUSH3 0x2911 DUP2 PUSH3 0x28CF JUMP JUMPDEST SWAP1 POP SWAP2 SWAP1 POP JUMP JUMPDEST PUSH32 0x4368696C642063686170746572206D757374206265206120636F6E7472616374 PUSH1 0x0 DUP3 ADD MSTORE POP JUMP JUMPDEST PUSH1 0x0 PUSH3 0x2950 PUSH1 0x20 DUP4 PUSH3 0x1CFD JUMP JUMPDEST SWAP2 POP PUSH3 0x295D DUP3 PUSH3 0x2918 JUMP JUMPDEST PUSH1 0x20 DUP3 ADD SWAP1 POP SWAP2 SWAP1 POP JUMP JUMPDEST PUSH1 0x0 PUSH1 0x20 DUP3 ADD SWAP1 POP DUP2 DUP2 SUB PUSH1 0x0 DUP4 ADD MSTORE PUSH3 0x2983 DUP2 PUSH3 0x2941 JUMP JUMPDEST SWAP1 POP SWAP2 SWAP1 POP JUMP JUMPDEST PUSH32 0x506172656E742063686170746572206D7573742062656C6F6E6720746F207468 PUSH1 0x0 DUP3 ADD MSTORE PUSH32 0x652073616D652073746F72790000000000000000000000000000000000000000 PUSH1 0x20 DUP3 ADD MSTORE POP JUMP JUMPDEST PUSH1 0x0 PUSH3 0x29E8 PUSH1 0x2C DUP4 PUSH3 0x1CFD JUMP JUMPDEST SWAP2 POP PUSH3 0x29F5 DUP3 PUSH3 0x298A JUMP JUMPDEST PUSH1 0x40 DUP3 ADD SWAP1 POP SWAP2 SWAP1 POP JUMP JUMPDEST PUSH1 0x0 PUSH1 0x20 DUP3 ADD SWAP1 POP DUP2 DUP2 SUB PUSH1 0x0 DUP4 ADD MSTORE PUSH3 0x2A1B DUP2 PUSH3 0x29D9 JUMP JUMPDEST SWAP1 POP SWAP2 SWAP1 POP JUMP JUMPDEST PUSH32 0x4368696C642063686170746572206D7573742062656C6F6E6720746F20746865 PUSH1 0x0 DUP3 ADD MSTORE PUSH32 0x2073616D652073746F7279000000000000000000000000000000000000000000 PUSH1 0x20 DUP3 ADD MSTORE POP JUMP JUMPDEST PUSH1 0x0 PUSH3 0x2A80 PUSH1 0x2B DUP4 PUSH3 0x1CFD JUMP JUMPDEST SWAP2 POP PUSH3 0x2A8D DUP3 PUSH3 0x2A22 JUMP JUMPDEST PUSH1 0x40 DUP3 ADD SWAP1 POP SWAP2 SWAP1 POP JUMP JUMPDEST PUSH1 0x0 PUSH1 0x20 DUP3 ADD SWAP1 POP DUP2 DUP2 SUB PUSH1 0x0 DUP4 ADD MSTORE PUSH3 0x2AB3 DUP2 PUSH3 0x2A71 JUMP JUMPDEST SWAP1 POP SWAP2 SWAP1 POP JUMP JUMPDEST PUSH1 0x0 PUSH1 0xC0 DUP3 ADD SWAP1 POP PUSH3 0x2AD1 PUSH1 0x0 DUP4 ADD DUP10 PUSH3 0x1CE1 JUMP JUMPDEST PUSH3 0x2AE0 PUSH1 0x20 DUP4 ADD DUP9 PUSH3 0x1CE1 JUMP JUMPDEST DUP2 DUP2 SUB PUSH1 0x40 DUP4 ADD MSTORE PUSH3 0x2AF4 DUP2 DUP8 PUSH3 0x1D55 JUMP JUMPDEST SWAP1 POP DUP2 DUP2 SUB PUSH1 0x60 DUP4 ADD MSTORE PUSH3 0x2B0A DUP2 DUP7 PUSH3 0x1D55 JUMP JUMPDEST SWAP1 POP PUSH3 0x2B1B PUSH1 0x80 DUP4 ADD DUP6 PUSH3 0x1CE1 JUMP JUMPDEST PUSH3 0x2B2A PUSH1 0xA0 DUP4 ADD DUP5 PUSH3 0x1CE1 JUMP JUMPDEST SWAP8 SWAP7 POP POP POP POP POP POP POP JUMP JUMPDEST PUSH32 0x4D696E696D756D20636F6E747269627574696F6E206973203130302057656900 PUSH1 0x0 DUP3 ADD MSTORE POP JUMP JUMPDEST PUSH1 0x0 PUSH3 0x2B6D PUSH1 0x1F DUP4 PUSH3 0x1CFD JUMP JUMPDEST SWAP2 POP PUSH3 0x2B7A DUP3 PUSH3 0x2B35 JUMP JUMPDEST PUSH1 0x20 DUP3 ADD SWAP1 POP SWAP2 SWAP1 POP JUMP JUMPDEST PUSH1 0x0 PUSH1 0x20 DUP3 ADD SWAP1 POP DUP2 DUP2 SUB PUSH1 0x0 DUP4 ADD MSTORE PUSH3 0x2BA0 DUP2 PUSH3 0x2B5E JUMP JUMPDEST SWAP1 POP SWAP2 SWAP1 POP JUMP JUMPDEST PUSH32 0x417574686F7220616C72656164792065786973747320696E20746865206C6973 PUSH1 0x0 DUP3 ADD MSTORE PUSH32 0x74206F6620617574686F72730000000000000000000000000000000000000000 PUSH1 0x20 DUP3 ADD MSTORE POP JUMP JUMPDEST PUSH1 0x0 PUSH3 0x2C05 PUSH1 0x2C DUP4 PUSH3 0x1CFD JUMP JUMPDEST SWAP2 POP PUSH3 0x2C12 DUP3 PUSH3 0x2BA7 JUMP JUMPDEST PUSH1 0x40 DUP3 ADD SWAP1 POP SWAP2 SWAP1 POP JUMP JUMPDEST PUSH1 0x0 PUSH1 0x20 DUP3 ADD SWAP1 POP DUP2 DUP2 SUB PUSH1 0x0 DUP4 ADD MSTORE PUSH3 0x2C38 DUP2 PUSH3 0x2BF6 JUMP JUMPDEST SWAP1 POP SWAP2 SWAP1 POP JUMP JUMPDEST PUSH1 0x0 PUSH3 0x2C4C DUP3 PUSH3 0x1E64 JUMP JUMPDEST SWAP2 POP PUSH3 0x2C59 DUP4 PUSH3 0x1E64 JUMP JUMPDEST SWAP3 POP DUP3 PUSH32 0xFFFFFFFFFFFFFFFFFFFFFFFFFFFFFFFFFFFFFFFFFFFFFFFFFFFFFFFFFFFFFFFF SUB DUP3 GT ISZERO PUSH3 0x2C91 JUMPI PUSH3 0x2C90 PUSH3 0x24FD JUMP JUMPDEST JUMPDEST DUP3 DUP3 ADD SWAP1 POP SWAP3 SWAP2 POP POP JUMP JUMPDEST PUSH32 0x536166654D6174683A206164646974696F6E206F766572666C6F770000000000 PUSH1 0x0 DUP3 ADD MSTORE POP JUMP JUMPDEST PUSH1 0x0 PUSH3 0x2CD4 PUSH1 0x1B DUP4 PUSH3 0x1CFD JUMP JUMPDEST SWAP2 POP PUSH3 0x2CE1 DUP3 PUSH3 0x2C9C JUMP JUMPDEST PUSH1 0x20 DUP3 ADD SWAP1 POP SWAP2 SWAP1 POP JUMP JUMPDEST PUSH1 0x0 PUSH1 0x20 DUP3 ADD SWAP1 POP DUP2 DUP2 SUB PUSH1 0x0 DUP4 ADD MSTORE PUSH3 0x2D07 DUP2 PUSH3 0x2CC5 JUMP JUMPDEST SWAP1 POP SWAP2 SWAP1 POP JUMP JUMPDEST PUSH32 0x536166654D6174683A206469766973696F6E206279207A65726F000000000000 PUSH1 0x0 DUP3 ADD MSTORE POP JUMP JUMPDEST PUSH1 0x0 PUSH3 0x2D46 PUSH1 0x1A DUP4 PUSH3 0x1CFD JUMP JUMPDEST SWAP2 POP PUSH3 0x2D53 DUP3 PUSH3 0x2D0E JUMP JUMPDEST PUSH1 0x20 DUP3 ADD SWAP1 POP SWAP2 SWAP1 POP JUMP JUMPDEST PUSH1 0x0 PUSH1 0x20 DUP3 ADD SWAP1 POP DUP2 DUP2 SUB PUSH1 0x0 DUP4 ADD MSTORE PUSH3 0x2D79 DUP2 PUSH3 0x2D37 JUMP JUMPDEST SWAP1 POP SWAP2 SWAP1 POP JUMP INVALID PUSH1 0x80 PUSH1 0x40 MSTORE CALLVALUE DUP1 ISZERO PUSH3 0x11 JUMPI PUSH1 0x0 DUP1 REVERT JUMPDEST POP PUSH1 0x40 MLOAD PUSH3 0x15F7 CODESIZE SUB DUP1 PUSH3 0x15F7 DUP4 CODECOPY DUP2 DUP2 ADD PUSH1 0x40 MSTORE DUP2 ADD SWAP1 PUSH3 0x37 SWAP2 SWAP1 PUSH3 0x4DA JUMP JUMPDEST DUP6 PUSH1 0x1 PUSH1 0x0 PUSH2 0x100 EXP DUP2 SLOAD DUP2 PUSH20 0xFFFFFFFFFFFFFFFFFFFFFFFFFFFFFFFFFFFFFFFF MUL NOT AND SWAP1 DUP4 PUSH20 0xFFFFFFFFFFFFFFFFFFFFFFFFFFFFFFFFFFFFFFFF AND MUL OR SWAP1 SSTORE POP DUP5 PUSH1 0x0 DUP1 PUSH2 0x100 EXP DUP2 SLOAD DUP2 PUSH20 0xFFFFFFFFFFFFFFFFFFFFFFFFFFFFFFFFFFFFFFFF MUL NOT AND SWAP1 DUP4 PUSH20 0xFFFFFFFFFFFFFFFFFFFFFFFFFFFFFFFFFFFFFFFF AND MUL OR SWAP1 SSTORE POP DUP3 PUSH1 0x3 SWAP1 DUP1 MLOAD SWAP1 PUSH1 0x20 ADD SWAP1 PUSH3 0xD0 SWAP3 SWAP2 SWAP1 PUSH3 0x228 JUMP JUMPDEST POP DUP4 PUSH1 0x2 SWAP1 DUP1 MLOAD SWAP1 PUSH1 0x20 ADD SWAP1 PUSH3 0xE9 SWAP3 SWAP2 SWAP1 PUSH3 0x228 JUMP JUMPDEST POP PUSH1 0x0 PUSH20 0xFFFFFFFFFFFFFFFFFFFFFFFFFFFFFFFFFFFFFFFF AND DUP3 PUSH20 0xFFFFFFFFFFFFFFFFFFFFFFFFFFFFFFFFFFFFFFFF AND EQ PUSH3 0x183 JUMPI PUSH1 0x4 DUP3 SWAP1 DUP1 PUSH1 0x1 DUP2 SLOAD ADD DUP1 DUP3 SSTORE DUP1 SWAP2 POP POP PUSH1 0x1 SWAP1 SUB SWAP1 PUSH1 0x0 MSTORE PUSH1 0x20 PUSH1 0x0 KECCAK256 ADD PUSH1 0x0 SWAP1 SWAP2 SWAP1 SWAP2 SWAP1 SWAP2 PUSH2 0x100 EXP DUP2 SLOAD DUP2 PUSH20 0xFFFFFFFFFFFFFFFFFFFFFFFFFFFFFFFFFFFFFFFF MUL NOT AND SWAP1 DUP4 PUSH20 0xFFFFFFFFFFFFFFFFFFFFFFFFFFFFFFFFFFFFFFFF AND MUL OR SWAP1 SSTORE POP JUMPDEST PUSH1 0x0 PUSH20 0xFFFFFFFFFFFFFFFFFFFFFFFFFFFFFFFFFFFFFFFF AND DUP2 PUSH20 0xFFFFFFFFFFFFFFFFFFFFFFFFFFFFFFFFFFFFFFFF AND EQ PUSH3 0x21C JUMPI PUSH1 0x5 DUP2 SWAP1 DUP1 PUSH1 0x1 DUP2 SLOAD ADD DUP1 DUP3 SSTORE DUP1 SWAP2 POP POP PUSH1 0x1 SWAP1 SUB SWAP1 PUSH1 0x0 MSTORE PUSH1 0x20 PUSH1 0x0 KECCAK256 ADD PUSH1 0x0 SWAP1 SWAP2 SWAP1 SWAP2 SWAP1 SWAP2 PUSH2 0x100 EXP DUP2 SLOAD DUP2 PUSH20 0xFFFFFFFFFFFFFFFFFFFFFFFFFFFFFFFFFFFFFFFF MUL NOT AND SWAP1 DUP4 PUSH20 0xFFFFFFFFFFFFFFFFFFFFFFFFFFFFFFFFFFFFFFFF AND MUL OR SWAP1 SSTORE POP JUMPDEST POP POP POP POP POP POP PUSH3 0x619 JUMP JUMPDEST DUP3 DUP1 SLOAD PUSH3 0x236 SWAP1 PUSH3 0x5E3 JUMP JUMPDEST SWAP1 PUSH1 0x0 MSTORE PUSH1 0x20 PUSH1 0x0 KECCAK256 SWAP1 PUSH1 0x1F ADD PUSH1 0x20 SWAP1 DIV DUP2 ADD SWAP3 DUP3 PUSH3 0x25A JUMPI PUSH1 0x0 DUP6 SSTORE PUSH3 0x2A6 JUMP JUMPDEST DUP3 PUSH1 0x1F LT PUSH3 0x275 JUMPI DUP1 MLOAD PUSH1 0xFF NOT AND DUP4 DUP1 ADD OR DUP6 SSTORE PUSH3 0x2A6 JUMP JUMPDEST DUP3 DUP1 ADD PUSH1 0x1 ADD DUP6 SSTORE DUP3 ISZERO PUSH3 0x2A6 JUMPI SWAP2 DUP3 ADD JUMPDEST DUP3 DUP2 GT ISZERO PUSH3 0x2A5 JUMPI DUP3 MLOAD DUP3 SSTORE SWAP2 PUSH1 0x20 ADD SWAP2 SWAP1 PUSH1 0x1 ADD SWAP1 PUSH3 0x288 JUMP JUMPDEST JUMPDEST POP SWAP1 POP PUSH3 0x2B5 SWAP2 SWAP1 PUSH3 0x2B9 JUMP JUMPDEST POP SWAP1 JUMP JUMPDEST JUMPDEST DUP1 DUP3 GT ISZERO PUSH3 0x2D4 JUMPI PUSH1 0x0 DUP2 PUSH1 0x0 SWAP1 SSTORE POP PUSH1 0x1 ADD PUSH3 0x2BA JUMP JUMPDEST POP SWAP1 JUMP JUMPDEST PUSH1 0x0 PUSH1 0x40 MLOAD SWAP1 POP SWAP1 JUMP JUMPDEST PUSH1 0x0 DUP1 REVERT JUMPDEST PUSH1 0x0 DUP1 REVERT JUMPDEST PUSH1 0x0 PUSH20 0xFFFFFFFFFFFFFFFFFFFFFFFFFFFFFFFFFFFFFFFF DUP3 AND SWAP1 POP SWAP2 SWAP1 POP JUMP JUMPDEST PUSH1 0x0 PUSH3 0x319 DUP3 PUSH3 0x2EC JUMP JUMPDEST SWAP1 POP SWAP2 SWAP1 POP JUMP JUMPDEST PUSH3 0x32B DUP2 PUSH3 0x30C JUMP JUMPDEST DUP2 EQ PUSH3 0x337 JUMPI PUSH1 0x0 DUP1 REVERT JUMPDEST POP JUMP JUMPDEST PUSH1 0x0 DUP2 MLOAD SWAP1 POP PUSH3 0x34B DUP2 PUSH3 0x320 JUMP JUMPDEST SWAP3 SWAP2 POP POP JUMP JUMPDEST PUSH1 0x0 DUP1 REVERT JUMPDEST PUSH1 0x0 DUP1 REVERT JUMPDEST PUSH1 0x0 PUSH1 0x1F NOT PUSH1 0x1F DUP4 ADD AND SWAP1 POP SWAP2 SWAP1 POP JUMP JUMPDEST PUSH32 0x4E487B7100000000000000000000000000000000000000000000000000000000 PUSH1 0x0 MSTORE PUSH1 0x41 PUSH1 0x4 MSTORE PUSH1 0x24 PUSH1 0x0 REVERT JUMPDEST PUSH3 0x3A6 DUP3 PUSH3 0x35B JUMP JUMPDEST DUP2 ADD DUP2 DUP2 LT PUSH8 0xFFFFFFFFFFFFFFFF DUP3 GT OR ISZERO PUSH3 0x3C8 JUMPI PUSH3 0x3C7 PUSH3 0x36C JUMP JUMPDEST JUMPDEST DUP1 PUSH1 0x40 MSTORE POP POP POP JUMP JUMPDEST PUSH1 0x0 PUSH3 0x3DD PUSH3 0x2D8 JUMP JUMPDEST SWAP1 POP PUSH3 0x3EB DUP3 DUP3 PUSH3 0x39B JUMP JUMPDEST SWAP2 SWAP1 POP JUMP JUMPDEST PUSH1 0x0 PUSH8 0xFFFFFFFFFFFFFFFF DUP3 GT ISZERO PUSH3 0x40E JUMPI PUSH3 0x40D PUSH3 0x36C JUMP JUMPDEST JUMPDEST PUSH3 0x419 DUP3 PUSH3 0x35B JUMP JUMPDEST SWAP1 POP PUSH1 0x20 DUP2 ADD SWAP1 POP SWAP2 SWAP1 POP JUMP JUMPDEST PUSH1 0x0 JUMPDEST DUP4 DUP2 LT ISZERO PUSH3 0x446 JUMPI DUP1 DUP3 ADD MLOAD DUP2 DUP5 ADD MSTORE PUSH1 0x20 DUP2 ADD SWAP1 POP PUSH3 0x429 JUMP JUMPDEST DUP4 DUP2 GT ISZERO PUSH3 0x456 JUMPI PUSH1 0x0 DUP5 DUP5 ADD MSTORE JUMPDEST POP POP POP POP JUMP JUMPDEST PUSH1 0x0 PUSH3 0x473 PUSH3 0x46D DUP5 PUSH3 0x3F0 JUMP JUMPDEST PUSH3 0x3D1 JUMP JUMPDEST SWAP1 POP DUP3 DUP2 MSTORE PUSH1 0x20 DUP2 ADD DUP5 DUP5 DUP5 ADD GT ISZERO PUSH3 0x492 JUMPI PUSH3 0x491 PUSH3 0x356 JUMP JUMPDEST JUMPDEST PUSH3 0x49F DUP5 DUP3 DUP6 PUSH3 0x426 JUMP JUMPDEST POP SWAP4 SWAP3 POP POP POP JUMP JUMPDEST PUSH1 0x0 DUP3 PUSH1 0x1F DUP4 ADD SLT PUSH3 0x4BF JUMPI PUSH3 0x4BE PUSH3 0x351 JUMP JUMPDEST JUMPDEST DUP2 MLOAD PUSH3 0x4D1 DUP5 DUP3 PUSH1 0x20 DUP7 ADD PUSH3 0x45C JUMP JUMPDEST SWAP2 POP POP SWAP3 SWAP2 POP POP JUMP JUMPDEST PUSH1 0x0 DUP1 PUSH1 0x0 DUP1 PUSH1 0x0 DUP1 PUSH1 0xC0 DUP8 DUP10 SUB SLT ISZERO PUSH3 0x4FA JUMPI PUSH3 0x4F9 PUSH3 0x2E2 JUMP JUMPDEST JUMPDEST PUSH1 0x0 PUSH3 0x50A DUP10 DUP3 DUP11 ADD PUSH3 0x33A JUMP JUMPDEST SWAP7 POP POP PUSH1 0x20 PUSH3 0x51D DUP10 DUP3 DUP11 ADD PUSH3 0x33A JUMP JUMPDEST SWAP6 POP POP PUSH1 0x40 DUP8 ADD MLOAD PUSH8 0xFFFFFFFFFFFFFFFF DUP2 GT ISZERO PUSH3 0x541 JUMPI PUSH3 0x540 PUSH3 0x2E7 JUMP JUMPDEST JUMPDEST PUSH3 0x54F DUP10 DUP3 DUP11 ADD PUSH3 0x4A7 JUMP JUMPDEST SWAP5 POP POP PUSH1 0x60 DUP8 ADD MLOAD PUSH8 0xFFFFFFFFFFFFFFFF DUP2 GT ISZERO PUSH3 0x573 JUMPI PUSH3 0x572 PUSH3 0x2E7 JUMP JUMPDEST JUMPDEST PUSH3 0x581 DUP10 DUP3 DUP11 ADD PUSH3 0x4A7 JUMP JUMPDEST SWAP4 POP POP PUSH1 0x80 PUSH3 0x594 DUP10 DUP3 DUP11 ADD PUSH3 0x33A JUMP JUMPDEST SWAP3 POP POP PUSH1 0xA0 PUSH3 0x5A7 DUP10 DUP3 DUP11 ADD PUSH3 0x33A JUMP JUMPDEST SWAP2 POP POP SWAP3 SWAP6 POP SWAP3 SWAP6 POP SWAP3 SWAP6 JUMP JUMPDEST PUSH32 0x4E487B7100000000000000000000000000000000000000000000000000000000 PUSH1 0x0 MSTORE PUSH1 0x22 PUSH1 0x4 MSTORE PUSH1 0x24 PUSH1 0x0 REVERT JUMPDEST PUSH1 0x0 PUSH1 0x2 DUP3 DIV SWAP1 POP PUSH1 0x1 DUP3 AND DUP1 PUSH3 0x5FC JUMPI PUSH1 0x7F DUP3 AND SWAP2 POP JUMPDEST PUSH1 0x20 DUP3 LT DUP2 EQ ISZERO PUSH3 0x613 JUMPI PUSH3 0x612 PUSH3 0x5B4 JUMP JUMPDEST JUMPDEST POP SWAP2 SWAP1 POP JUMP JUMPDEST PUSH2 0xFCE DUP1 PUSH3 0x629 PUSH1 0x0 CODECOPY PUSH1 0x0 RETURN INVALID PUSH1 0x80 PUSH1 0x40 MSTORE CALLVALUE DUP1 ISZERO PUSH2 0x10 JUMPI PUSH1 0x0 DUP1 REVERT JUMPDEST POP PUSH1 0x4 CALLDATASIZE LT PUSH2 0xA9 JUMPI PUSH1 0x0 CALLDATALOAD PUSH1 0xE0 SHR DUP1 PUSH4 0xA523B88A GT PUSH2 0x71 JUMPI DUP1 PUSH4 0xA523B88A EQ PUSH2 0x146 JUMPI DUP1 PUSH4 0xA6C3E6B9 EQ PUSH2 0x150 JUMPI DUP1 PUSH4 0xC5FE6FFC EQ PUSH2 0x16E JUMPI DUP1 PUSH4 0xC623674F EQ PUSH2 0x19E JUMPI DUP1 PUSH4 0xE5A0AF3D EQ PUSH2 0x1BC JUMPI DUP1 PUSH4 0xED777791 EQ PUSH2 0x1DA JUMPI PUSH2 0xA9 JUMP JUMPDEST DUP1 PUSH4 0x4051DDAC EQ PUSH2 0xAE JUMPI DUP1 PUSH4 0x46C922D1 EQ PUSH2 0xD2 JUMPI DUP1 PUSH4 0x4A79D50C EQ PUSH2 0xF0 JUMPI DUP1 PUSH4 0x8758CE83 EQ PUSH2 0x10E JUMPI DUP1 PUSH4 0x988E46C8 EQ PUSH2 0x12A JUMPI JUMPDEST PUSH1 0x0 DUP1 REVERT JUMPDEST PUSH2 0xB6 PUSH2 0x20A JUMP JUMPDEST PUSH1 0x40 MLOAD PUSH2 0xC9 SWAP8 SWAP7 SWAP6 SWAP5 SWAP4 SWAP3 SWAP2 SWAP1 PUSH2 0xB88 JUMP JUMPDEST PUSH1 0x40 MLOAD DUP1 SWAP2 SUB SWAP1 RETURN JUMPDEST PUSH2 0xDA PUSH2 0x4A4 JUMP JUMPDEST PUSH1 0x40 MLOAD PUSH2 0xE7 SWAP2 SWAP1 PUSH2 0xC13 JUMP JUMPDEST PUSH1 0x40 MLOAD DUP1 SWAP2 SUB SWAP1 RETURN JUMPDEST PUSH2 0xF8 PUSH2 0x4C8 JUMP JUMPDEST PUSH1 0x40 MLOAD PUSH2 0x105 SWAP2 SWAP1 PUSH2 0xC2E JUMP JUMPDEST PUSH1 0x40 MLOAD DUP1 SWAP2 SUB SWAP1 RETURN JUMPDEST PUSH2 0x128 PUSH1 0x4 DUP1 CALLDATASIZE SUB DUP2 ADD SWAP1 PUSH2 0x123 SWAP2 SWAP1 PUSH2 0xC81 JUMP JUMPDEST PUSH2 0x556 JUMP JUMPDEST STOP JUMPDEST PUSH2 0x144 PUSH1 0x4 DUP1 CALLDATASIZE SUB DUP2 ADD SWAP1 PUSH2 0x13F SWAP2 SWAP1 PUSH2 0xC81 JUMP JUMPDEST PUSH2 0x64A JUMP JUMPDEST STOP JUMPDEST PUSH2 0x14E PUSH2 0x73E JUMP JUMPDEST STOP JUMPDEST PUSH2 0x158 PUSH2 0x841 JUMP JUMPDEST PUSH1 0x40 MLOAD PUSH2 0x165 SWAP2 SWAP1 PUSH2 0xC13 JUMP JUMPDEST PUSH1 0x40 MLOAD DUP1 SWAP2 SUB SWAP1 RETURN JUMPDEST PUSH2 0x188 PUSH1 0x4 DUP1 CALLDATASIZE SUB DUP2 ADD SWAP1 PUSH2 0x183 SWAP2 SWAP1 PUSH2 0xCDA JUMP JUMPDEST PUSH2 0x867 JUMP JUMPDEST PUSH1 0x40 MLOAD PUSH2 0x195 SWAP2 SWAP1 PUSH2 0xC13 JUMP JUMPDEST PUSH1 0x40 MLOAD DUP1 SWAP2 SUB SWAP1 RETURN JUMPDEST PUSH2 0x1A6 PUSH2 0x8A6 JUMP JUMPDEST PUSH1 0x40 MLOAD PUSH2 0x1B3 SWAP2 SWAP1 PUSH2 0xC2E JUMP JUMPDEST PUSH1 0x40 MLOAD DUP1 SWAP2 SUB SWAP1 RETURN JUMPDEST PUSH2 0x1C4 PUSH2 0x934 JUMP JUMPDEST PUSH1 0x40 MLOAD PUSH2 0x1D1 SWAP2 SWAP1 PUSH2 0xD07 JUMP JUMPDEST PUSH1 0x40 MLOAD DUP1 SWAP2 SUB SWAP1 RETURN JUMPDEST PUSH2 0x1F4 PUSH1 0x4 DUP1 CALLDATASIZE SUB DUP2 ADD SWAP1 PUSH2 0x1EF SWAP2 SWAP1 PUSH2 0xCDA JUMP JUMPDEST PUSH2 0x93A JUMP JUMPDEST PUSH1 0x40 MLOAD PUSH2 0x201 SWAP2 SWAP1 PUSH2 0xC13 JUMP JUMPDEST PUSH1 0x40 MLOAD DUP1 SWAP2 SUB SWAP1 RETURN JUMPDEST PUSH1 0x0 DUP1 PUSH1 0x60 DUP1 PUSH1 0x60 DUP1 PUSH1 0x0 DUP1 PUSH1 0x0 SWAP1 SLOAD SWAP1 PUSH2 0x100 EXP SWAP1 DIV PUSH20 0xFFFFFFFFFFFFFFFFFFFFFFFFFFFFFFFFFFFFFFFF AND PUSH1 0x1 PUSH1 0x0 SWAP1 SLOAD SWAP1 PUSH2 0x100 EXP SWAP1 DIV PUSH20 0xFFFFFFFFFFFFFFFFFFFFFFFFFFFFFFFFFFFFFFFF AND PUSH1 0x2 PUSH1 0x3 PUSH1 0x4 PUSH1 0x5 PUSH1 0x7 SLOAD DUP5 DUP1 SLOAD PUSH2 0x271 SWAP1 PUSH2 0xD51 JUMP JUMPDEST DUP1 PUSH1 0x1F ADD PUSH1 0x20 DUP1 SWAP2 DIV MUL PUSH1 0x20 ADD PUSH1 0x40 MLOAD SWAP1 DUP2 ADD PUSH1 0x40 MSTORE DUP1 SWAP3 SWAP2 SWAP1 DUP2 DUP2 MSTORE PUSH1 0x20 ADD DUP3 DUP1 SLOAD PUSH2 0x29D SWAP1 PUSH2 0xD51 JUMP JUMPDEST DUP1 ISZERO PUSH2 0x2EA JUMPI DUP1 PUSH1 0x1F LT PUSH2 0x2BF JUMPI PUSH2 0x100 DUP1 DUP4 SLOAD DIV MUL DUP4 MSTORE SWAP2 PUSH1 0x20 ADD SWAP2 PUSH2 0x2EA JUMP JUMPDEST DUP3 ADD SWAP2 SWAP1 PUSH1 0x0 MSTORE PUSH1 0x20 PUSH1 0x0 KECCAK256 SWAP1 JUMPDEST DUP2 SLOAD DUP2 MSTORE SWAP1 PUSH1 0x1 ADD SWAP1 PUSH1 0x20 ADD DUP1 DUP4 GT PUSH2 0x2CD JUMPI DUP3 SWAP1 SUB PUSH1 0x1F AND DUP3 ADD SWAP2 JUMPDEST POP POP POP POP POP SWAP5 POP DUP4 DUP1 SLOAD PUSH2 0x2FD SWAP1 PUSH2 0xD51 JUMP JUMPDEST DUP1 PUSH1 0x1F ADD PUSH1 0x20 DUP1 SWAP2 DIV MUL PUSH1 0x20 ADD PUSH1 0x40 MLOAD SWAP1 DUP2 ADD PUSH1 0x40 MSTORE DUP1 SWAP3 SWAP2 SWAP1 DUP2 DUP2 MSTORE PUSH1 0x20 ADD DUP3 DUP1 SLOAD PUSH2 0x329 SWAP1 PUSH2 0xD51 JUMP JUMPDEST DUP1 ISZERO PUSH2 0x376 JUMPI DUP1 PUSH1 0x1F LT PUSH2 0x34B JUMPI PUSH2 0x100 DUP1 DUP4 SLOAD DIV MUL DUP4 MSTORE SWAP2 PUSH1 0x20 ADD SWAP2 PUSH2 0x376 JUMP JUMPDEST DUP3 ADD SWAP2 SWAP1 PUSH1 0x0 MSTORE PUSH1 0x20 PUSH1 0x0 KECCAK256 SWAP1 JUMPDEST DUP2 SLOAD DUP2 MSTORE SWAP1 PUSH1 0x1 ADD SWAP1 PUSH1 0x20 ADD DUP1 DUP4 GT PUSH2 0x359 JUMPI DUP3 SWAP1 SUB PUSH1 0x1F AND DUP3 ADD SWAP2 JUMPDEST POP POP POP POP POP SWAP4 POP DUP3 DUP1 SLOAD DUP1 PUSH1 0x20 MUL PUSH1 0x20 ADD PUSH1 0x40 MLOAD SWAP1 DUP2 ADD PUSH1 0x40 MSTORE DUP1 SWAP3 SWAP2 SWAP1 DUP2 DUP2 MSTORE PUSH1 0x20 ADD DUP3 DUP1 SLOAD DUP1 ISZERO PUSH2 0x3FE JUMPI PUSH1 0x20 MUL DUP3 ADD SWAP2 SWAP1 PUSH1 0x0 MSTORE PUSH1 0x20 PUSH1 0x0 KECCAK256 SWAP1 JUMPDEST DUP2 PUSH1 0x0 SWAP1 SLOAD SWAP1 PUSH2 0x100 EXP SWAP1 DIV PUSH20 0xFFFFFFFFFFFFFFFFFFFFFFFFFFFFFFFFFFFFFFFF AND PUSH20 0xFFFFFFFFFFFFFFFFFFFFFFFFFFFFFFFFFFFFFFFF AND DUP2 MSTORE PUSH1 0x20 ADD SWAP1 PUSH1 0x1 ADD SWAP1 DUP1 DUP4 GT PUSH2 0x3B4 JUMPI JUMPDEST POP POP POP POP POP SWAP3 POP DUP2 DUP1 SLOAD DUP1 PUSH1 0x20 MUL PUSH1 0x20 ADD PUSH1 0x40 MLOAD SWAP1 DUP2 ADD PUSH1 0x40 MSTORE DUP1 SWAP3 SWAP2 SWAP1 DUP2 DUP2 MSTORE PUSH1 0x20 ADD DUP3 DUP1 SLOAD DUP1 ISZERO PUSH2 0x486 JUMPI PUSH1 0x20 MUL DUP3 ADD SWAP2 SWAP1 PUSH1 0x0 MSTORE PUSH1 0x20 PUSH1 0x0 KECCAK256 SWAP1 JUMPDEST DUP2 PUSH1 0x0 SWAP1 SLOAD SWAP1 PUSH2 0x100 EXP SWAP1 DIV PUSH20 0xFFFFFFFFFFFFFFFFFFFFFFFFFFFFFFFFFFFFFFFF AND PUSH20 0xFFFFFFFFFFFFFFFFFFFFFFFFFFFFFFFFFFFFFFFF AND DUP2 MSTORE PUSH1 0x20 ADD SWAP1 PUSH1 0x1 ADD SWAP1 DUP1 DUP4 GT PUSH2 0x43C JUMPI JUMPDEST POP POP POP POP POP SWAP2 POP SWAP7 POP SWAP7 POP SWAP7 POP SWAP7 POP SWAP7 POP SWAP7 POP SWAP7 POP SWAP1 SWAP2 SWAP3 SWAP4 SWAP5 SWAP6 SWAP7 JUMP JUMPDEST PUSH1 0x0 DUP1 SLOAD SWAP1 PUSH2 0x100 EXP SWAP1 DIV PUSH20 0xFFFFFFFFFFFFFFFFFFFFFFFFFFFFFFFFFFFFFFFF AND DUP2 JUMP JUMPDEST PUSH1 0x2 DUP1 SLOAD PUSH2 0x4D5 SWAP1 PUSH2 0xD51 JUMP JUMPDEST DUP1 PUSH1 0x1F ADD PUSH1 0x20 DUP1 SWAP2 DIV MUL PUSH1 0x20 ADD PUSH1 0x40 MLOAD SWAP1 DUP2 ADD PUSH1 0x40 MSTORE DUP1 SWAP3 SWAP2 SWAP1 DUP2 DUP2 MSTORE PUSH1 0x20 ADD DUP3 DUP1 SLOAD PUSH2 0x501 SWAP1 PUSH2 0xD51 JUMP JUMPDEST DUP1 ISZERO PUSH2 0x54E JUMPI DUP1 PUSH1 0x1F LT PUSH2 0x523 JUMPI PUSH2 0x100 DUP1 DUP4 SLOAD DIV MUL DUP4 MSTORE SWAP2 PUSH1 0x20 ADD SWAP2 PUSH2 0x54E JUMP JUMPDEST DUP3 ADD SWAP2 SWAP1 PUSH1 0x0 MSTORE PUSH1 0x20 PUSH1 0x0 KECCAK256 SWAP1 JUMPDEST DUP2 SLOAD DUP2 MSTORE SWAP1 PUSH1 0x1 ADD SWAP1 PUSH1 0x20 ADD DUP1 DUP4 GT PUSH2 0x531 JUMPI DUP3 SWAP1 SUB PUSH1 0x1F AND DUP3 ADD SWAP2 JUMPDEST POP POP POP POP POP DUP2 JUMP JUMPDEST PUSH1 0x0 DUP1 SLOAD SWAP1 PUSH2 0x100 EXP SWAP1 DIV PUSH20 0xFFFFFFFFFFFFFFFFFFFFFFFFFFFFFFFFFFFFFFFF AND PUSH20 0xFFFFFFFFFFFFFFFFFFFFFFFFFFFFFFFFFFFFFFFF AND CALLER PUSH20 0xFFFFFFFFFFFFFFFFFFFFFFFFFFFFFFFFFFFFFFFF AND EQ PUSH2 0x5E4 JUMPI PUSH1 0x40 MLOAD PUSH32 0x8C379A000000000000000000000000000000000000000000000000000000000 DUP2 MSTORE PUSH1 0x4 ADD PUSH2 0x5DB SWAP1 PUSH2 0xE1B JUMP JUMPDEST PUSH1 0x40 MLOAD DUP1 SWAP2 SUB SWAP1 REVERT JUMPDEST PUSH1 0x4 DUP2 SWAP1 DUP1 PUSH1 0x1 DUP2 SLOAD ADD DUP1 DUP3 SSTORE DUP1 SWAP2 POP POP PUSH1 0x1 SWAP1 SUB SWAP1 PUSH1 0x0 MSTORE PUSH1 0x20 PUSH1 0x0 KECCAK256 ADD PUSH1 0x0 SWAP1 SWAP2 SWAP1 SWAP2 SWAP1 SWAP2 PUSH2 0x100 EXP DUP2 SLOAD DUP2 PUSH20 0xFFFFFFFFFFFFFFFFFFFFFFFFFFFFFFFFFFFFFFFF MUL NOT AND SWAP1 DUP4 PUSH20 0xFFFFFFFFFFFFFFFFFFFFFFFFFFFFFFFFFFFFFFFF AND MUL OR SWAP1 SSTORE POP POP JUMP JUMPDEST PUSH1 0x0 DUP1 SLOAD SWAP1 PUSH2 0x100 EXP SWAP1 DIV PUSH20 0xFFFFFFFFFFFFFFFFFFFFFFFFFFFFFFFFFFFFFFFF AND PUSH20 0xFFFFFFFFFFFFFFFFFFFFFFFFFFFFFFFFFFFFFFFF AND CALLER PUSH20 0xFFFFFFFFFFFFFFFFFFFFFFFFFFFFFFFFFFFFFFFF AND EQ PUSH2 0x6D8 JUMPI PUSH1 0x40 MLOAD PUSH32 0x8C379A000000000000000000000000000000000000000000000000000000000 DUP2 MSTORE PUSH1 0x4 ADD PUSH2 0x6CF SWAP1 PUSH2 0xE1B JUMP JUMPDEST PUSH1 0x40 MLOAD DUP1 SWAP2 SUB SWAP1 REVERT JUMPDEST PUSH1 0x5 DUP2 SWAP1 DUP1 PUSH1 0x1 DUP2 SLOAD ADD DUP1 DUP3 SSTORE DUP1 SWAP2 POP POP PUSH1 0x1 SWAP1 SUB SWAP1 PUSH1 0x0 MSTORE PUSH1 0x20 PUSH1 0x0 KECCAK256 ADD PUSH1 0x0 SWAP1 SWAP2 SWAP1 SWAP2 SWAP1 SWAP2 PUSH2 0x100 EXP DUP2 SLOAD DUP2 PUSH20 0xFFFFFFFFFFFFFFFFFFFFFFFFFFFFFFFFFFFFFFFF MUL NOT AND SWAP1 DUP4 PUSH20 0xFFFFFFFFFFFFFFFFFFFFFFFFFFFFFFFFFFFFFFFF AND MUL OR SWAP1 SSTORE POP POP JUMP JUMPDEST PUSH1 0x6 PUSH1 0x0 CALLER PUSH20 0xFFFFFFFFFFFFFFFFFFFFFFFFFFFFFFFFFFFFFFFF AND PUSH20 0xFFFFFFFFFFFFFFFFFFFFFFFFFFFFFFFFFFFFFFFF AND DUP2 MSTORE PUSH1 0x20 ADD SWAP1 DUP2 MSTORE PUSH1 0x20 ADD PUSH1 0x0 KECCAK256 PUSH1 0x0 SWAP1 SLOAD SWAP1 PUSH2 0x100 EXP SWAP1 DIV PUSH1 0xFF AND ISZERO PUSH2 0x7CB JUMPI PUSH1 0x40 MLOAD PUSH32 0x8C379A000000000000000000000000000000000000000000000000000000000 DUP2 MSTORE PUSH1 0x4 ADD PUSH2 0x7C2 SWAP1 PUSH2 0xE87 JUMP JUMPDEST PUSH1 0x40 MLOAD DUP1 SWAP2 SUB SWAP1 REVERT JUMPDEST PUSH1 0x1 PUSH1 0x6 PUSH1 0x0 CALLER PUSH20 0xFFFFFFFFFFFFFFFFFFFFFFFFFFFFFFFFFFFFFFFF AND PUSH20 0xFFFFFFFFFFFFFFFFFFFFFFFFFFFFFFFFFFFFFFFF AND DUP2 MSTORE PUSH1 0x20 ADD SWAP1 DUP2 MSTORE PUSH1 0x20 ADD PUSH1 0x0 KECCAK256 PUSH1 0x0 PUSH2 0x100 EXP DUP2 SLOAD DUP2 PUSH1 0xFF MUL NOT AND SWAP1 DUP4 ISZERO ISZERO MUL OR SWAP1 SSTORE POP PUSH2 0x839 PUSH1 0x1 PUSH1 0x7 SLOAD PUSH2 0x979 SWAP1 SWAP2 SWAP1 PUSH4 0xFFFFFFFF AND JUMP JUMPDEST PUSH1 0x7 DUP2 SWAP1 SSTORE POP JUMP JUMPDEST PUSH1 0x1 PUSH1 0x0 SWAP1 SLOAD SWAP1 PUSH2 0x100 EXP SWAP1 DIV PUSH20 0xFFFFFFFFFFFFFFFFFFFFFFFFFFFFFFFFFFFFFFFF AND DUP2 JUMP JUMPDEST PUSH1 0x5 DUP2 DUP2 SLOAD DUP2 LT PUSH2 0x877 JUMPI PUSH1 0x0 DUP1 REVERT JUMPDEST SWAP1 PUSH1 0x0 MSTORE PUSH1 0x20 PUSH1 0x0 KECCAK256 ADD PUSH1 0x0 SWAP2 POP SLOAD SWAP1 PUSH2 0x100 EXP SWAP1 DIV PUSH20 0xFFFFFFFFFFFFFFFFFFFFFFFFFFFFFFFFFFFFFFFF AND DUP2 JUMP JUMPDEST PUSH1 0x3 DUP1 SLOAD PUSH2 0x8B3 SWAP1 PUSH2 0xD51 JUMP JUMPDEST DUP1 PUSH1 0x1F ADD PUSH1 0x20 DUP1 SWAP2 DIV MUL PUSH1 0x20 ADD PUSH1 0x40 MLOAD SWAP1 DUP2 ADD PUSH1 0x40 MSTORE DUP1 SWAP3 SWAP2 SWAP1 DUP2 DUP2 MSTORE PUSH1 0x20 ADD DUP3 DUP1 SLOAD PUSH2 0x8DF SWAP1 PUSH2 0xD51 JUMP JUMPDEST DUP1 ISZERO PUSH2 0x92C JUMPI DUP1 PUSH1 0x1F LT PUSH2 0x901 JUMPI PUSH2 0x100 DUP1 DUP4 SLOAD DIV MUL DUP4 MSTORE SWAP2 PUSH1 0x20 ADD SWAP2 PUSH2 0x92C JUMP JUMPDEST DUP3 ADD SWAP2 SWAP1 PUSH1 0x0 MSTORE PUSH1 0x20 PUSH1 0x0 KECCAK256 SWAP1 JUMPDEST DUP2 SLOAD DUP2 MSTORE SWAP1 PUSH1 0x1 ADD SWAP1 PUSH1 0x20 ADD DUP1 DUP4 GT PUSH2 0x90F JUMPI DUP3 SWAP1 SUB PUSH1 0x1F AND DUP3 ADD SWAP2 JUMPDEST POP POP POP POP POP DUP2 JUMP JUMPDEST PUSH1 0x7 SLOAD DUP2 JUMP JUMPDEST PUSH1 0x4 DUP2 DUP2 SLOAD DUP2 LT PUSH2 0x94A JUMPI PUSH1 0x0 DUP1 REVERT JUMPDEST SWAP1 PUSH1 0x0 MSTORE PUSH1 0x20 PUSH1 0x0 KECCAK256 ADD PUSH1 0x0 SWAP2 POP SLOAD SWAP1 PUSH2 0x100 EXP SWAP1 DIV PUSH20 0xFFFFFFFFFFFFFFFFFFFFFFFFFFFFFFFFFFFFFFFF AND DUP2 JUMP JUMPDEST PUSH1 0x0 DUP1 DUP3 DUP5 PUSH2 0x988 SWAP2 SWAP1 PUSH2 0xED6 JUMP JUMPDEST SWAP1 POP DUP4 DUP2 LT ISZERO PUSH2 0x9CD JUMPI PUSH1 0x40 MLOAD PUSH32 0x8C379A000000000000000000000000000000000000000000000000000000000 DUP2 MSTORE PUSH1 0x4 ADD PUSH2 0x9C4 SWAP1 PUSH2 0xF78 JUMP JUMPDEST PUSH1 0x40 MLOAD DUP1 SWAP2 SUB SWAP1 REVERT JUMPDEST DUP1 SWAP2 POP POP SWAP3 SWAP2 POP POP JUMP JUMPDEST PUSH1 0x0 PUSH20 0xFFFFFFFFFFFFFFFFFFFFFFFFFFFFFFFFFFFFFFFF DUP3 AND SWAP1 POP SWAP2 SWAP1 POP JUMP JUMPDEST PUSH1 0x0 PUSH2 0xA02 DUP3 PUSH2 0x9D7 JUMP JUMPDEST SWAP1 POP SWAP2 SWAP1 POP JUMP JUMPDEST PUSH2 0xA12 DUP2 PUSH2 0x9F7 JUMP JUMPDEST DUP3 MSTORE POP POP JUMP JUMPDEST PUSH1 0x0 DUP2 MLOAD SWAP1 POP SWAP2 SWAP1 POP JUMP JUMPDEST PUSH1 0x0 DUP3 DUP3 MSTORE PUSH1 0x20 DUP3 ADD SWAP1 POP SWAP3 SWAP2 POP POP JUMP JUMPDEST PUSH1 0x0 JUMPDEST DUP4 DUP2 LT ISZERO PUSH2 0xA52 JUMPI DUP1 DUP3 ADD MLOAD DUP2 DUP5 ADD MSTORE PUSH1 0x20 DUP2 ADD SWAP1 POP PUSH2 0xA37 JUMP JUMPDEST DUP4 DUP2 GT ISZERO PUSH2 0xA61 JUMPI PUSH1 0x0 DUP5 DUP5 ADD MSTORE JUMPDEST POP POP POP POP JUMP JUMPDEST PUSH1 0x0 PUSH1 0x1F NOT PUSH1 0x1F DUP4 ADD AND SWAP1 POP SWAP2 SWAP1 POP JUMP JUMPDEST PUSH1 0x0 PUSH2 0xA83 DUP3 PUSH2 0xA18 JUMP JUMPDEST PUSH2 0xA8D DUP2 DUP6 PUSH2 0xA23 JUMP JUMPDEST SWAP4 POP PUSH2 0xA9D DUP2 DUP6 PUSH1 0x20 DUP7 ADD PUSH2 0xA34 JUMP JUMPDEST PUSH2 0xAA6 DUP2 PUSH2 0xA67 JUMP JUMPDEST DUP5 ADD SWAP2 POP POP SWAP3 SWAP2 POP POP JUMP JUMPDEST PUSH1 0x0 DUP2 MLOAD SWAP1 POP SWAP2 SWAP1 POP JUMP JUMPDEST PUSH1 0x0 DUP3 DUP3 MSTORE PUSH1 0x20 DUP3 ADD SWAP1 POP SWAP3 SWAP2 POP POP JUMP JUMPDEST PUSH1 0x0 DUP2 SWAP1 POP PUSH1 0x20 DUP3 ADD SWAP1 POP SWAP2 SWAP1 POP JUMP JUMPDEST PUSH2 0xAE6 DUP2 PUSH2 0x9F7 JUMP JUMPDEST DUP3 MSTORE POP POP JUMP JUMPDEST PUSH1 0x0 PUSH2 0xAF8 DUP4 DUP4 PUSH2 0xADD JUMP JUMPDEST PUSH1 0x20 DUP4 ADD SWAP1 POP SWAP3 SWAP2 POP POP JUMP JUMPDEST PUSH1 0x0 PUSH1 0x20 DUP3 ADD SWAP1 POP SWAP2 SWAP1 POP JUMP JUMPDEST PUSH1 0x0 PUSH2 0xB1C DUP3 PUSH2 0xAB1 JUMP JUMPDEST PUSH2 0xB26 DUP2 DUP6 PUSH2 0xABC JUMP JUMPDEST SWAP4 POP PUSH2 0xB31 DUP4 PUSH2 0xACD JUMP JUMPDEST DUP1 PUSH1 0x0 JUMPDEST DUP4 DUP2 LT ISZERO PUSH2 0xB62 JUMPI DUP2 MLOAD PUSH2 0xB49 DUP9 DUP3 PUSH2 0xAEC JUMP JUMPDEST SWAP8 POP PUSH2 0xB54 DUP4 PUSH2 0xB04 JUMP JUMPDEST SWAP3 POP POP PUSH1 0x1 DUP2 ADD SWAP1 POP PUSH2 0xB35 JUMP JUMPDEST POP DUP6 SWAP4 POP POP POP POP SWAP3 SWAP2 POP POP JUMP JUMPDEST PUSH1 0x0 DUP2 SWAP1 POP SWAP2 SWAP1 POP JUMP JUMPDEST PUSH2 0xB82 DUP2 PUSH2 0xB6F JUMP JUMPDEST DUP3 MSTORE POP POP JUMP JUMPDEST PUSH1 0x0 PUSH1 0xE0 DUP3 ADD SWAP1 POP PUSH2 0xB9D PUSH1 0x0 DUP4 ADD DUP11 PUSH2 0xA09 JUMP JUMPDEST PUSH2 0xBAA PUSH1 0x20 DUP4 ADD DUP10 PUSH2 0xA09 JUMP JUMPDEST DUP2 DUP2 SUB PUSH1 0x40 DUP4 ADD MSTORE PUSH2 0xBBC DUP2 DUP9 PUSH2 0xA78 JUMP JUMPDEST SWAP1 POP DUP2 DUP2 SUB PUSH1 0x60 DUP4 ADD MSTORE PUSH2 0xBD0 DUP2 DUP8 PUSH2 0xA78 JUMP JUMPDEST SWAP1 POP DUP2 DUP2 SUB PUSH1 0x80 DUP4 ADD MSTORE PUSH2 0xBE4 DUP2 DUP7 PUSH2 0xB11 JUMP JUMPDEST SWAP1 POP DUP2 DUP2 SUB PUSH1 0xA0 DUP4 ADD MSTORE PUSH2 0xBF8 DUP2 DUP6 PUSH2 0xB11 JUMP JUMPDEST SWAP1 POP PUSH2 0xC07 PUSH1 0xC0 DUP4 ADD DUP5 PUSH2 0xB79 JUMP JUMPDEST SWAP9 SWAP8 POP POP POP POP POP POP POP POP JUMP JUMPDEST PUSH1 0x0 PUSH1 0x20 DUP3 ADD SWAP1 POP PUSH2 0xC28 PUSH1 0x0 DUP4 ADD DUP5 PUSH2 0xA09 JUMP JUMPDEST SWAP3 SWAP2 POP POP JUMP JUMPDEST PUSH1 0x0 PUSH1 0x20 DUP3 ADD SWAP1 POP DUP2 DUP2 SUB PUSH1 0x0 DUP4 ADD MSTORE PUSH2 0xC48 DUP2 DUP5 PUSH2 0xA78 JUMP JUMPDEST SWAP1 POP SWAP3 SWAP2 POP POP JUMP JUMPDEST PUSH1 0x0 DUP1 REVERT JUMPDEST PUSH2 0xC5E DUP2 PUSH2 0x9F7 JUMP JUMPDEST DUP2 EQ PUSH2 0xC69 JUMPI PUSH1 0x0 DUP1 REVERT JUMPDEST POP JUMP JUMPDEST PUSH1 0x0 DUP2 CALLDATALOAD SWAP1 POP PUSH2 0xC7B DUP2 PUSH2 0xC55 JUMP JUMPDEST SWAP3 SWAP2 POP POP JUMP JUMPDEST PUSH1 0x0 PUSH1 0x20 DUP3 DUP5 SUB SLT ISZERO PUSH2 0xC97 JUMPI PUSH2 0xC96 PUSH2 0xC50 JUMP JUMPDEST JUMPDEST PUSH1 0x0 PUSH2 0xCA5 DUP5 DUP3 DUP6 ADD PUSH2 0xC6C JUMP JUMPDEST SWAP2 POP POP SWAP3 SWAP2 POP POP JUMP JUMPDEST PUSH2 0xCB7 DUP2 PUSH2 0xB6F JUMP JUMPDEST DUP2 EQ PUSH2 0xCC2 JUMPI PUSH1 0x0 DUP1 REVERT JUMPDEST POP JUMP JUMPDEST PUSH1 0x0 DUP2 CALLDATALOAD SWAP1 POP PUSH2 0xCD4 DUP2 PUSH2 0xCAE JUMP JUMPDEST SWAP3 SWAP2 POP POP JUMP JUMPDEST PUSH1 0x0 PUSH1 0x20 DUP3 DUP5 SUB SLT ISZERO PUSH2 0xCF0 JUMPI PUSH2 0xCEF PUSH2 0xC50 JUMP JUMPDEST JUMPDEST PUSH1 0x0 PUSH2 0xCFE DUP5 DUP3 DUP6 ADD PUSH2 0xCC5 JUMP JUMPDEST SWAP2 POP POP SWAP3 SWAP2 POP POP JUMP JUMPDEST PUSH1 0x0 PUSH1 0x20 DUP3 ADD SWAP1 POP PUSH2 0xD1C PUSH1 0x0 DUP4 ADD DUP5 PUSH2 0xB79 JUMP JUMPDEST SWAP3 SWAP2 POP POP JUMP JUMPDEST PUSH32 0x4E487B7100000000000000000000000000000000000000000000000000000000 PUSH1 0x0 MSTORE PUSH1 0x22 PUSH1 0x4 MSTORE PUSH1 0x24 PUSH1 0x0 REVERT JUMPDEST PUSH1 0x0 PUSH1 0x2 DUP3 DIV SWAP1 POP PUSH1 0x1 DUP3 AND DUP1 PUSH2 0xD69 JUMPI PUSH1 0x7F DUP3 AND SWAP2 POP JUMPDEST PUSH1 0x20 DUP3 LT DUP2 EQ ISZERO PUSH2 0xD7D JUMPI PUSH2 0xD7C PUSH2 0xD22 JUMP JUMPDEST JUMPDEST POP SWAP2 SWAP1 POP JUMP JUMPDEST PUSH32 0x546869732066756E6374696F6E2068617320746F2062652063616C6C65642066 PUSH1 0x0 DUP3 ADD MSTORE PUSH32 0x726F6D207468652073746F727920636F6E747261637420627920616E20616363 PUSH1 0x20 DUP3 ADD MSTORE PUSH32 0x657074656420617574686F72206F6E6C79000000000000000000000000000000 PUSH1 0x40 DUP3 ADD MSTORE POP JUMP JUMPDEST PUSH1 0x0 PUSH2 0xE05 PUSH1 0x51 DUP4 PUSH2 0xA23 JUMP JUMPDEST SWAP2 POP PUSH2 0xE10 DUP3 PUSH2 0xD83 JUMP JUMPDEST PUSH1 0x60 DUP3 ADD SWAP1 POP SWAP2 SWAP1 POP JUMP JUMPDEST PUSH1 0x0 PUSH1 0x20 DUP3 ADD SWAP1 POP DUP2 DUP2 SUB PUSH1 0x0 DUP4 ADD MSTORE PUSH2 0xE34 DUP2 PUSH2 0xDF8 JUMP JUMPDEST SWAP1 POP SWAP2 SWAP1 POP JUMP JUMPDEST PUSH32 0x596F75206C696B656420746869732073746F7279206265666F72650000000000 PUSH1 0x0 DUP3 ADD MSTORE POP JUMP JUMPDEST PUSH1 0x0 PUSH2 0xE71 PUSH1 0x1B DUP4 PUSH2 0xA23 JUMP JUMPDEST SWAP2 POP PUSH2 0xE7C DUP3 PUSH2 0xE3B JUMP JUMPDEST PUSH1 0x20 DUP3 ADD SWAP1 POP SWAP2 SWAP1 POP JUMP JUMPDEST PUSH1 0x0 PUSH1 0x20 DUP3 ADD SWAP1 POP DUP2 DUP2 SUB PUSH1 0x0 DUP4 ADD MSTORE PUSH2 0xEA0 DUP2 PUSH2 0xE64 JUMP JUMPDEST SWAP1 POP SWAP2 SWAP1 POP JUMP JUMPDEST PUSH32 0x4E487B7100000000000000000000000000000000000000000000000000000000 PUSH1 0x0 MSTORE PUSH1 0x11 PUSH1 0x4 MSTORE PUSH1 0x24 PUSH1 0x0 REVERT JUMPDEST PUSH1 0x0 PUSH2 0xEE1 DUP3 PUSH2 0xB6F JUMP JUMPDEST SWAP2 POP PUSH2 0xEEC DUP4 PUSH2 0xB6F JUMP JUMPDEST SWAP3 POP DUP3 PUSH32 0xFFFFFFFFFFFFFFFFFFFFFFFFFFFFFFFFFFFFFFFFFFFFFFFFFFFFFFFFFFFFFFFF SUB DUP3 GT ISZERO PUSH2 0xF21 JUMPI PUSH2 0xF20 PUSH2 0xEA7 JUMP JUMPDEST JUMPDEST DUP3 DUP3 ADD SWAP1 POP SWAP3 SWAP2 POP POP JUMP JUMPDEST PUSH32 0x536166654D6174683A206164646974696F6E206F766572666C6F770000000000 PUSH1 0x0 DUP3 ADD MSTORE POP JUMP JUMPDEST PUSH1 0x0 PUSH2 0xF62 PUSH1 0x1B DUP4 PUSH2 0xA23 JUMP JUMPDEST SWAP2 POP PUSH2 0xF6D DUP3 PUSH2 0xF2C JUMP JUMPDEST PUSH1 0x20 DUP3 ADD SWAP1 POP SWAP2 SWAP1 POP JUMP JUMPDEST PUSH1 0x0 PUSH1 0x20 DUP3 ADD SWAP1 POP DUP2 DUP2 SUB PUSH1 0x0 DUP4 ADD MSTORE PUSH2 0xF91 DUP2 PUSH2 0xF55 JUMP JUMPDEST SWAP1 POP SWAP2 SWAP1 POP JUMP INVALID LOG2 PUSH5 0x6970667358 0x22 SLT KECCAK256 0xB4 SLT 0xB4 0x1F CALLER DUP2 SWAP12 0x1F 0xAA 0xBD SWAP2 0xEB JUMP DUP7 SLOAD SHL 0xBA 0xE2 0xB4 0x5D PUSH12 0x912B75D5A325871C7249FF64 PUSH20 0x6F6C63430008090033A264697066735822122017 LOG2 0xE1 MSTORE8 CALLER 0x27 DUP14 0xD1 0xD6 0xB7 0xBE SWAP16 0xAD CHAINID 0xB7 COINBASE 0xC7 0x2E EXTCODESIZE 0xEB 0x5E 0xB9 0xDF 0xCD MOD SWAP10 0xDB ISZERO MULMOD 0xE2 0x2A 0x1E PUSH5 0x736F6C6343 STOP ADDMOD MULMOD STOP CALLER "},"gasEstimates":{"creation":{"codeDepositCost":"3465000","executionCost":"infinite","totalCost":"infinite"},"external":{"approveRequestToJoin(uint256)":"infinite","authorsForReact(uint256)":"4978","authorsForSolidity(address)":"2913","chaptersForReact(uint256)":"5000","chaptersForSolidity(address)":"2934","contribute()":"50901","createChapter(string,string,address,address)":"infinite","createRequestToJoin(string)":"infinite","dispenseRewards()":"infinite","getChapters()":"infinite","getSummary()":"infinite","isAuthor()":"2613","report()":"infinite","reported()":"2538"},"internal":{"checkChildChapter(address)":"2299","checkParentChapter(address)":"2299","isContract(address)":"2686"}},"methodIdentifiers":{"approveRequestToJoin(uint256)":"98b79628","authorsForReact(uint256)":"9d3ed807","authorsForSolidity(address)":"3e5690f4","chaptersForReact(uint256)":"b5202522","chaptersForSolidity(address)":"7f51aaf9","contribute()":"d7bb99ba","createChapter(string,string,address,address)":"992b11dc","createRequestToJoin(string)":"dfa14e23","dispenseRewards()":"3b6246c2","getChapters()":"9c636a0f","getSummary()":"4051ddac","isAuthor()":"5cf298fb","report()":"2606a10b","reported()":"5d1a870a"}},"storageLayout":{"storage":[{"astId":126,"contract":"Story.sol:Story","label":"mainAuthor","offset":0,"slot":"0","type":"t_address"},{"astId":128,"contract":"Story.sol:Story","label":"title","offset":0,"slot":"1","type":"t_string_storage"},{"astId":130,"contract":"Story.sol:Story","label":"genre","offset":0,"slot":"2","type":"t_string_storage"},{"astId":132,"contract":"Story.sol:Story","label":"mainIdea","offset":0,"slot":"3","type":"t_string_storage"},{"astId":136,"contract":"Story.sol:Story","label":"authorsForSolidity","offset":0,"slot":"4","type":"t_mapping(t_address,t_bool)"},{"astId":139,"contract":"Story.sol:Story","label":"authorsForReact","offset":0,"slot":"5","type":"t_array(t_address)dyn_storage"},{"astId":143,"contract":"Story.sol:Story","label":"chaptersForSolidity","offset":0,"slot":"6","type":"t_mapping(t_address,t_bool)"},{"astId":146,"contract":"Story.sol:Story","label":"chaptersForReact","offset":0,"slot":"7","type":"t_array(t_address)dyn_storage"},{"astId":148,"contract":"Story.sol:Story","label":"_locked","offset":0,"slot":"8","type":"t_bool"},{"astId":152,"contract":"Story.sol:Story","label":"reporters","offset":0,"slot":"9","type":"t_mapping(t_address,t_bool)"},{"astId":154,"contract":"Story.sol:Story","label":"reportersCount","offset":0,"slot":"10","type":"t_uint256"},{"astId":156,"contract":"Story.sol:Story","label":"reported","offset":0,"slot":"11","type":"t_bool"},{"astId":175,"contract":"Story.sol:Story","label":"requestsToJoin","offset":0,"slot":"12","type":"t_array(t_struct(RequestToJoin)171_storage)dyn_storage"}],"types":{"t_address":{"encoding":"inplace","label":"address","numberOfBytes":"20"},"t_array(t_address)dyn_storage":{"base":"t_address","encoding":"dynamic_array","label":"address[]","numberOfBytes":"32"},"t_array(t_struct(RequestToJoin)171_storage)dyn_storage":{"base":"t_struct(RequestToJoin)171_storage","encoding":"dynamic_array","label":"struct Story.RequestToJoin[]","numberOfBytes":"32"},"t_bool":{"encoding":"inplace","label":"bool","numberOfBytes":"1"},"t_mapping(t_address,t_bool)":{"encoding":"mapping","key":"t_address","label":"mapping(address => bool)","numberOfBytes":"32","value":"t_bool"},"t_string_storage":{"encoding":"bytes","label":"string","numberOfBytes":"32"},"t_struct(RequestToJoin)171_storage":{"encoding":"inplace","label":"struct Story.RequestToJoin","members":[{"astId":158,"contract":"Story.sol:Story","label":"proposal","offset":0,"slot":"0","type":"t_string_storage"},{"astId":160,"contract":"Story.sol:Story","label":"timestamp","offset":0,"slot":"1","type":"t_uint256"},{"astId":162,"contract":"Story.sol:Story","label":"author","offset":0,"slot":"2","type":"t_address"},{"astId":166,"contract":"Story.sol:Story","label":"approvers","offset":0,"slot":"3","type":"t_mapping(t_address,t_bool)"},{"astId":168,"contract":"Story.sol:Story","label":"approversCount","offset":0,"slot":"4","type":"t_uint256"},{"astId":170,"contract":"Story.sol:Story","label":"status","offset":0,"slot":"5","type":"t_bool"}],"numberOfBytes":"192"},"t_uint256":{"encoding":"inplace","label":"uint256","numberOfBytes":"32"}}},"userdoc":{"kind":"user","methods":{},"version":1}}