{"abi":[{"inputs":[{"internalType":"string","name":"username","type":"string"}],"name":"addAuthorUsername","outputs":[],"stateMutability":"nonpayable","type":"function"},{"inputs":[{"internalType":"address","name":"","type":"address"}],"name":"authorUsernames","outputs":[{"internalType":"string","name":"","type":"string"}],"stateMutability":"view","type":"function"},{"inputs":[{"internalType":"string","name":"_title","type":"string"},{"internalType":"string","name":"_genre","type":"string"},{"internalType":"string","name":"_mainIdea","type":"string"},{"internalType":"string","name":"_coverPhoto","type":"string"}],"name":"createStory","outputs":[],"stateMutability":"nonpayable","type":"function"},{"inputs":[{"internalType":"uint256","name":"","type":"uint256"}],"name":"deployedStories","outputs":[{"internalType":"address","name":"","type":"address"}],"stateMutability":"view","type":"function"},{"inputs":[],"name":"getDeployedStories","outputs":[{"internalType":"address[]","name":"","type":"address[]"}],"stateMutability":"view","type":"function"}],"devdoc":{"kind":"dev","methods":{},"version":1},"evm":{"assembly":"    /* \"Story.sol\":72:767  contract StoryFactory {... */\n  mstore(0x40, 0x80)\n  callvalue\n  dup1\n  iszero\n  tag_1\n  jumpi\n  0x00\n  dup1\n  revert\ntag_1:\n  pop\n  dataSize(sub_0)\n  dup1\n  dataOffset(sub_0)\n  0x00\n  codecopy\n  0x00\n  return\nstop\n\nsub_0: assembly {\n        /* \"Story.sol\":72:767  contract StoryFactory {... */\n      mstore(0x40, 0x80)\n      callvalue\n      dup1\n      iszero\n      tag_1\n      jumpi\n      0x00\n      dup1\n      revert\n    tag_1:\n      pop\n      jumpi(tag_2, lt(calldatasize, 0x04))\n      shr(0xe0, calldataload(0x00))\n      dup1\n      0x18351ea7\n      eq\n      tag_3\n      jumpi\n      dup1\n      0x2ff2bdd5\n      eq\n      tag_4\n      jumpi\n      dup1\n      0x5048bd37\n      eq\n      tag_5\n      jumpi\n      dup1\n      0x590c1e78\n      eq\n      tag_6\n      jumpi\n      dup1\n      0xadb6a397\n      eq\n      tag_7\n      jumpi\n    tag_2:\n      0x00\n      dup1\n      revert\n        /* \"Story.sol\":107:139  address[] public deployedStories */\n    tag_3:\n      tag_8\n      0x04\n      dup1\n      calldatasize\n      sub\n      dup2\n      add\n      swap1\n      tag_9\n      swap2\n      swap1\n      tag_10\n      jump\t// in\n    tag_9:\n      tag_11\n      jump\t// in\n    tag_8:\n      mload(0x40)\n      tag_12\n      swap2\n      swap1\n      tag_13\n      jump\t// in\n    tag_12:\n      mload(0x40)\n      dup1\n      swap2\n      sub\n      swap1\n      return\n        /* \"Story.sol\":507:625  function getDeployedStories() public view returns (address[] memory) {... */\n    tag_4:\n      tag_14\n      tag_15\n      jump\t// in\n    tag_14:\n      mload(0x40)\n      tag_16\n      swap2\n      swap1\n      tag_17\n      jump\t// in\n    tag_16:\n      mload(0x40)\n      dup1\n      swap2\n      sub\n      swap1\n      return\n        /* \"Story.sol\":637:760  function addAuthorUsername(string memory username) public {... */\n    tag_5:\n      tag_18\n      0x04\n      dup1\n      calldatasize\n      sub\n      dup2\n      add\n      swap1\n      tag_19\n      swap2\n      swap1\n      tag_20\n      jump\t// in\n    tag_19:\n      tag_21\n      jump\t// in\n    tag_18:\n      stop\n        /* \"Story.sol\":212:495  function createStory(string memory _title, string memory _genre, string memory _mainIdea, string memory _coverPhoto) public {... */\n    tag_6:\n      tag_22\n      0x04\n      dup1\n      calldatasize\n      sub\n      dup2\n      add\n      swap1\n      tag_23\n      swap2\n      swap1\n      tag_24\n      jump\t// in\n    tag_23:\n      tag_25\n      jump\t// in\n    tag_22:\n      stop\n        /* \"Story.sol\":150:199  mapping(address => string) public authorUsernames */\n    tag_7:\n      tag_26\n      0x04\n      dup1\n      calldatasize\n      sub\n      dup2\n      add\n      swap1\n      tag_27\n      swap2\n      swap1\n      tag_28\n      jump\t// in\n    tag_27:\n      tag_29\n      jump\t// in\n    tag_26:\n      mload(0x40)\n      tag_30\n      swap2\n      swap1\n      tag_31\n      jump\t// in\n    tag_30:\n      mload(0x40)\n      dup1\n      swap2\n      sub\n      swap1\n      return\n        /* \"Story.sol\":107:139  address[] public deployedStories */\n    tag_11:\n      0x00\n      dup2\n      dup2\n      sload\n      dup2\n      lt\n      tag_32\n      jumpi\n      0x00\n      dup1\n      revert\n    tag_32:\n      swap1\n      0x00\n      mstore\n      keccak256(0x00, 0x20)\n      add\n      0x00\n      swap2\n      pop\n      sload\n      swap1\n      0x0100\n      exp\n      swap1\n      div\n      0xffffffffffffffffffffffffffffffffffffffff\n      and\n      dup2\n      jump\t// out\n        /* \"Story.sol\":507:625  function getDeployedStories() public view returns (address[] memory) {... */\n    tag_15:\n        /* \"Story.sol\":558:574  address[] memory */\n      0x60\n        /* \"Story.sol\":598:613  deployedStories */\n      0x00\n        /* \"Story.sol\":591:613  return deployedStories */\n      dup1\n      sload\n      dup1\n      0x20\n      mul\n      0x20\n      add\n      mload(0x40)\n      swap1\n      dup2\n      add\n      0x40\n      mstore\n      dup1\n      swap3\n      swap2\n      swap1\n      dup2\n      dup2\n      mstore\n      0x20\n      add\n      dup3\n      dup1\n      sload\n      dup1\n      iszero\n      tag_35\n      jumpi\n      0x20\n      mul\n      dup3\n      add\n      swap2\n      swap1\n      0x00\n      mstore\n      keccak256(0x00, 0x20)\n      swap1\n    tag_36:\n      dup2\n      0x00\n      swap1\n      sload\n      swap1\n      0x0100\n      exp\n      swap1\n      div\n      0xffffffffffffffffffffffffffffffffffffffff\n      and\n      0xffffffffffffffffffffffffffffffffffffffff\n      and\n      dup2\n      mstore\n      0x20\n      add\n      swap1\n      0x01\n      add\n      swap1\n      dup1\n      dup4\n      gt\n      tag_36\n      jumpi\n    tag_35:\n      pop\n      pop\n      pop\n      pop\n      pop\n      swap1\n      pop\n        /* \"Story.sol\":507:625  function getDeployedStories() public view returns (address[] memory) {... */\n      swap1\n      jump\t// out\n        /* \"Story.sol\":637:760  function addAuthorUsername(string memory username) public {... */\n    tag_21:\n        /* \"Story.sol\":740:748  username */\n      dup1\n        /* \"Story.sol\":710:725  authorUsernames */\n      0x01\n        /* \"Story.sol\":710:737  authorUsernames[msg.sender] */\n      0x00\n        /* \"Story.sol\":726:736  msg.sender */\n      caller\n        /* \"Story.sol\":710:737  authorUsernames[msg.sender] */\n      0xffffffffffffffffffffffffffffffffffffffff\n      and\n      0xffffffffffffffffffffffffffffffffffffffff\n      and\n      dup2\n      mstore\n      0x20\n      add\n      swap1\n      dup2\n      mstore\n      0x20\n      add\n      0x00\n      keccak256\n        /* \"Story.sol\":710:748  authorUsernames[msg.sender] = username */\n      swap1\n      dup1\n      mload\n      swap1\n      0x20\n      add\n      swap1\n      tag_38\n      swap3\n      swap2\n      swap1\n      tag_39\n      jump\t// in\n    tag_38:\n      pop\n        /* \"Story.sol\":637:760  function addAuthorUsername(string memory username) public {... */\n      pop\n      jump\t// out\n        /* \"Story.sol\":212:495  function createStory(string memory _title, string memory _genre, string memory _mainIdea, string memory _coverPhoto) public {... */\n    tag_25:\n        /* \"Story.sol\":351:365  Story newStory */\n      0x00\n        /* \"Story.sol\":378:388  msg.sender */\n      caller\n        /* \"Story.sol\":390:396  _title */\n      dup6\n        /* \"Story.sol\":398:404  _genre */\n      dup6\n        /* \"Story.sol\":406:415  _mainIdea */\n      dup6\n        /* \"Story.sol\":417:428  _coverPhoto */\n      dup6\n        /* \"Story.sol\":368:429  new Story(msg.sender, _title, _genre, _mainIdea, _coverPhoto) */\n      mload(0x40)\n      tag_41\n      swap1\n      tag_42\n      jump\t// in\n    tag_41:\n      tag_43\n      swap6\n      swap5\n      swap4\n      swap3\n      swap2\n      swap1\n      tag_44\n      jump\t// in\n    tag_43:\n      mload(0x40)\n      dup1\n      swap2\n      sub\n      swap1\n      0x00\n      create\n      dup1\n      iszero\n      dup1\n      iszero\n      tag_45\n      jumpi\n      returndatasize\n      0x00\n      dup1\n      returndatacopy\n      revert(0x00, returndatasize)\n    tag_45:\n      pop\n        /* \"Story.sol\":351:429  Story newStory = new Story(msg.sender, _title, _genre, _mainIdea, _coverPhoto) */\n      swap1\n      pop\n        /* \"Story.sol\":444:459  deployedStories */\n      0x00\n        /* \"Story.sol\":473:481  newStory */\n      dup2\n        /* \"Story.sol\":444:483  deployedStories.push(address(newStory)) */\n      swap1\n      dup1\n      0x01\n      dup2\n      sload\n      add\n      dup1\n      dup3\n      sstore\n      dup1\n      swap2\n      pop\n      pop\n      0x01\n      swap1\n      sub\n      swap1\n      0x00\n      mstore\n      keccak256(0x00, 0x20)\n      add\n      0x00\n      swap1\n      swap2\n      swap1\n      swap2\n      swap1\n      swap2\n      0x0100\n      exp\n      dup2\n      sload\n      dup2\n      0xffffffffffffffffffffffffffffffffffffffff\n      mul\n      not\n      and\n      swap1\n      dup4\n      0xffffffffffffffffffffffffffffffffffffffff\n      and\n      mul\n      or\n      swap1\n      sstore\n      pop\n        /* \"Story.sol\":336:495  {... */\n      pop\n        /* \"Story.sol\":212:495  function createStory(string memory _title, string memory _genre, string memory _mainIdea, string memory _coverPhoto) public {... */\n      pop\n      pop\n      pop\n      pop\n      jump\t// out\n        /* \"Story.sol\":150:199  mapping(address => string) public authorUsernames */\n    tag_29:\n      mstore(0x20, 0x01)\n      dup1\n      0x00\n      mstore\n      keccak256(0x00, 0x40)\n      0x00\n      swap2\n      pop\n      swap1\n      pop\n      dup1\n      sload\n      tag_47\n      swap1\n      tag_48\n      jump\t// in\n    tag_47:\n      dup1\n      0x1f\n      add\n      0x20\n      dup1\n      swap2\n      div\n      mul\n      0x20\n      add\n      mload(0x40)\n      swap1\n      dup2\n      add\n      0x40\n      mstore\n      dup1\n      swap3\n      swap2\n      swap1\n      dup2\n      dup2\n      mstore\n      0x20\n      add\n      dup3\n      dup1\n      sload\n      tag_49\n      swap1\n      tag_48\n      jump\t// in\n    tag_49:\n      dup1\n      iszero\n      tag_50\n      jumpi\n      dup1\n      0x1f\n      lt\n      tag_51\n      jumpi\n      0x0100\n      dup1\n      dup4\n      sload\n      div\n      mul\n      dup4\n      mstore\n      swap2\n      0x20\n      add\n      swap2\n      jump(tag_50)\n    tag_51:\n      dup3\n      add\n      swap2\n      swap1\n      0x00\n      mstore\n      keccak256(0x00, 0x20)\n      swap1\n    tag_52:\n      dup2\n      sload\n      dup2\n      mstore\n      swap1\n      0x01\n      add\n      swap1\n      0x20\n      add\n      dup1\n      dup4\n      gt\n      tag_52\n      jumpi\n      dup3\n      swap1\n      sub\n      0x1f\n      and\n      dup3\n      add\n      swap2\n    tag_50:\n      pop\n      pop\n      pop\n      pop\n      pop\n      dup2\n      jump\t// out\n    tag_39:\n      dup3\n      dup1\n      sload\n      tag_53\n      swap1\n      tag_48\n      jump\t// in\n    tag_53:\n      swap1\n      0x00\n      mstore\n      keccak256(0x00, 0x20)\n      swap1\n      0x1f\n      add\n      0x20\n      swap1\n      div\n      dup2\n      add\n      swap3\n      dup3\n      tag_55\n      jumpi\n      0x00\n      dup6\n      sstore\n      jump(tag_54)\n    tag_55:\n      dup3\n      0x1f\n      lt\n      tag_56\n      jumpi\n      dup1\n      mload\n      not(0xff)\n      and\n      dup4\n      dup1\n      add\n      or\n      dup6\n      sstore\n      jump(tag_54)\n    tag_56:\n      dup3\n      dup1\n      add\n      0x01\n      add\n      dup6\n      sstore\n      dup3\n      iszero\n      tag_54\n      jumpi\n      swap2\n      dup3\n      add\n    tag_57:\n      dup3\n      dup2\n      gt\n      iszero\n      tag_58\n      jumpi\n      dup3\n      mload\n      dup3\n      sstore\n      swap2\n      0x20\n      add\n      swap2\n      swap1\n      0x01\n      add\n      swap1\n      jump(tag_57)\n    tag_58:\n    tag_54:\n      pop\n      swap1\n      pop\n      tag_59\n      swap2\n      swap1\n      tag_60\n      jump\t// in\n    tag_59:\n      pop\n      swap1\n      jump\t// out\n    tag_42:\n      dataSize(sub_0)\n      dup1\n      dataOffset(sub_0)\n      dup4\n      codecopy\n      add\n      swap1\n      jump\t// out\n    tag_60:\n    tag_61:\n      dup1\n      dup3\n      gt\n      iszero\n      tag_62\n      jumpi\n      0x00\n      dup2\n      0x00\n      swap1\n      sstore\n      pop\n      0x01\n      add\n      jump(tag_61)\n    tag_62:\n      pop\n      swap1\n      jump\t// out\n        /* \"#utility.yul\":7:82   */\n    tag_63:\n        /* \"#utility.yul\":40:46   */\n      0x00\n        /* \"#utility.yul\":73:75   */\n      0x40\n        /* \"#utility.yul\":67:76   */\n      mload\n        /* \"#utility.yul\":57:76   */\n      swap1\n      pop\n        /* \"#utility.yul\":7:82   */\n      swap1\n      jump\t// out\n        /* \"#utility.yul\":88:205   */\n    tag_64:\n        /* \"#utility.yul\":197:198   */\n      0x00\n        /* \"#utility.yul\":194:195   */\n      dup1\n        /* \"#utility.yul\":187:199   */\n      revert\n        /* \"#utility.yul\":211:328   */\n    tag_65:\n        /* \"#utility.yul\":320:321   */\n      0x00\n        /* \"#utility.yul\":317:318   */\n      dup1\n        /* \"#utility.yul\":310:322   */\n      revert\n        /* \"#utility.yul\":334:411   */\n    tag_66:\n        /* \"#utility.yul\":371:378   */\n      0x00\n        /* \"#utility.yul\":400:405   */\n      dup2\n        /* \"#utility.yul\":389:405   */\n      swap1\n      pop\n        /* \"#utility.yul\":334:411   */\n      swap2\n      swap1\n      pop\n      jump\t// out\n        /* \"#utility.yul\":417:539   */\n    tag_67:\n        /* \"#utility.yul\":490:514   */\n      tag_102\n        /* \"#utility.yul\":508:513   */\n      dup2\n        /* \"#utility.yul\":490:514   */\n      tag_66\n      jump\t// in\n    tag_102:\n        /* \"#utility.yul\":483:488   */\n      dup2\n        /* \"#utility.yul\":480:515   */\n      eq\n        /* \"#utility.yul\":470:533   */\n      tag_103\n      jumpi\n        /* \"#utility.yul\":529:530   */\n      0x00\n        /* \"#utility.yul\":526:527   */\n      dup1\n        /* \"#utility.yul\":519:531   */\n      revert\n        /* \"#utility.yul\":470:533   */\n    tag_103:\n        /* \"#utility.yul\":417:539   */\n      pop\n      jump\t// out\n        /* \"#utility.yul\":545:684   */\n    tag_68:\n        /* \"#utility.yul\":591:596   */\n      0x00\n        /* \"#utility.yul\":629:635   */\n      dup2\n        /* \"#utility.yul\":616:636   */\n      calldataload\n        /* \"#utility.yul\":607:636   */\n      swap1\n      pop\n        /* \"#utility.yul\":645:678   */\n      tag_105\n        /* \"#utility.yul\":672:677   */\n      dup2\n        /* \"#utility.yul\":645:678   */\n      tag_67\n      jump\t// in\n    tag_105:\n        /* \"#utility.yul\":545:684   */\n      swap3\n      swap2\n      pop\n      pop\n      jump\t// out\n        /* \"#utility.yul\":690:1019   */\n    tag_10:\n        /* \"#utility.yul\":749:755   */\n      0x00\n        /* \"#utility.yul\":798:800   */\n      0x20\n        /* \"#utility.yul\":786:795   */\n      dup3\n        /* \"#utility.yul\":777:784   */\n      dup5\n        /* \"#utility.yul\":773:796   */\n      sub\n        /* \"#utility.yul\":769:801   */\n      slt\n        /* \"#utility.yul\":766:885   */\n      iszero\n      tag_107\n      jumpi\n        /* \"#utility.yul\":804:883   */\n      tag_108\n      tag_64\n      jump\t// in\n    tag_108:\n        /* \"#utility.yul\":766:885   */\n    tag_107:\n        /* \"#utility.yul\":924:925   */\n      0x00\n        /* \"#utility.yul\":949:1002   */\n      tag_109\n        /* \"#utility.yul\":994:1001   */\n      dup5\n        /* \"#utility.yul\":985:991   */\n      dup3\n        /* \"#utility.yul\":974:983   */\n      dup6\n        /* \"#utility.yul\":970:992   */\n      add\n        /* \"#utility.yul\":949:1002   */\n      tag_68\n      jump\t// in\n    tag_109:\n        /* \"#utility.yul\":939:1002   */\n      swap2\n      pop\n        /* \"#utility.yul\":895:1012   */\n      pop\n        /* \"#utility.yul\":690:1019   */\n      swap3\n      swap2\n      pop\n      pop\n      jump\t// out\n        /* \"#utility.yul\":1025:1151   */\n    tag_69:\n        /* \"#utility.yul\":1062:1069   */\n      0x00\n        /* \"#utility.yul\":1102:1144   */\n      0xffffffffffffffffffffffffffffffffffffffff\n        /* \"#utility.yul\":1095:1100   */\n      dup3\n        /* \"#utility.yul\":1091:1145   */\n      and\n        /* \"#utility.yul\":1080:1145   */\n      swap1\n      pop\n        /* \"#utility.yul\":1025:1151   */\n      swap2\n      swap1\n      pop\n      jump\t// out\n        /* \"#utility.yul\":1157:1253   */\n    tag_70:\n        /* \"#utility.yul\":1194:1201   */\n      0x00\n        /* \"#utility.yul\":1223:1247   */\n      tag_112\n        /* \"#utility.yul\":1241:1246   */\n      dup3\n        /* \"#utility.yul\":1223:1247   */\n      tag_69\n      jump\t// in\n    tag_112:\n        /* \"#utility.yul\":1212:1247   */\n      swap1\n      pop\n        /* \"#utility.yul\":1157:1253   */\n      swap2\n      swap1\n      pop\n      jump\t// out\n        /* \"#utility.yul\":1259:1377   */\n    tag_71:\n        /* \"#utility.yul\":1346:1370   */\n      tag_114\n        /* \"#utility.yul\":1364:1369   */\n      dup2\n        /* \"#utility.yul\":1346:1370   */\n      tag_70\n      jump\t// in\n    tag_114:\n        /* \"#utility.yul\":1341:1344   */\n      dup3\n        /* \"#utility.yul\":1334:1371   */\n      mstore\n        /* \"#utility.yul\":1259:1377   */\n      pop\n      pop\n      jump\t// out\n        /* \"#utility.yul\":1383:1605   */\n    tag_13:\n        /* \"#utility.yul\":1476:1480   */\n      0x00\n        /* \"#utility.yul\":1514:1516   */\n      0x20\n        /* \"#utility.yul\":1503:1512   */\n      dup3\n        /* \"#utility.yul\":1499:1517   */\n      add\n        /* \"#utility.yul\":1491:1517   */\n      swap1\n      pop\n        /* \"#utility.yul\":1527:1598   */\n      tag_116\n        /* \"#utility.yul\":1595:1596   */\n      0x00\n        /* \"#utility.yul\":1584:1593   */\n      dup4\n        /* \"#utility.yul\":1580:1597   */\n      add\n        /* \"#utility.yul\":1571:1577   */\n      dup5\n        /* \"#utility.yul\":1527:1598   */\n      tag_71\n      jump\t// in\n    tag_116:\n        /* \"#utility.yul\":1383:1605   */\n      swap3\n      swap2\n      pop\n      pop\n      jump\t// out\n        /* \"#utility.yul\":1611:1725   */\n    tag_72:\n        /* \"#utility.yul\":1678:1684   */\n      0x00\n        /* \"#utility.yul\":1712:1717   */\n      dup2\n        /* \"#utility.yul\":1706:1718   */\n      mload\n        /* \"#utility.yul\":1696:1718   */\n      swap1\n      pop\n        /* \"#utility.yul\":1611:1725   */\n      swap2\n      swap1\n      pop\n      jump\t// out\n        /* \"#utility.yul\":1731:1915   */\n    tag_73:\n        /* \"#utility.yul\":1830:1841   */\n      0x00\n        /* \"#utility.yul\":1864:1870   */\n      dup3\n        /* \"#utility.yul\":1859:1862   */\n      dup3\n        /* \"#utility.yul\":1852:1871   */\n      mstore\n        /* \"#utility.yul\":1904:1908   */\n      0x20\n        /* \"#utility.yul\":1899:1902   */\n      dup3\n        /* \"#utility.yul\":1895:1909   */\n      add\n        /* \"#utility.yul\":1880:1909   */\n      swap1\n      pop\n        /* \"#utility.yul\":1731:1915   */\n      swap3\n      swap2\n      pop\n      pop\n      jump\t// out\n        /* \"#utility.yul\":1921:2053   */\n    tag_74:\n        /* \"#utility.yul\":1988:1992   */\n      0x00\n        /* \"#utility.yul\":2011:2014   */\n      dup2\n        /* \"#utility.yul\":2003:2014   */\n      swap1\n      pop\n        /* \"#utility.yul\":2041:2045   */\n      0x20\n        /* \"#utility.yul\":2036:2039   */\n      dup3\n        /* \"#utility.yul\":2032:2046   */\n      add\n        /* \"#utility.yul\":2024:2046   */\n      swap1\n      pop\n        /* \"#utility.yul\":1921:2053   */\n      swap2\n      swap1\n      pop\n      jump\t// out\n        /* \"#utility.yul\":2059:2167   */\n    tag_75:\n        /* \"#utility.yul\":2136:2160   */\n      tag_121\n        /* \"#utility.yul\":2154:2159   */\n      dup2\n        /* \"#utility.yul\":2136:2160   */\n      tag_70\n      jump\t// in\n    tag_121:\n        /* \"#utility.yul\":2131:2134   */\n      dup3\n        /* \"#utility.yul\":2124:2161   */\n      mstore\n        /* \"#utility.yul\":2059:2167   */\n      pop\n      pop\n      jump\t// out\n        /* \"#utility.yul\":2173:2352   */\n    tag_76:\n        /* \"#utility.yul\":2242:2252   */\n      0x00\n        /* \"#utility.yul\":2263:2309   */\n      tag_123\n        /* \"#utility.yul\":2305:2308   */\n      dup4\n        /* \"#utility.yul\":2297:2303   */\n      dup4\n        /* \"#utility.yul\":2263:2309   */\n      tag_75\n      jump\t// in\n    tag_123:\n        /* \"#utility.yul\":2341:2345   */\n      0x20\n        /* \"#utility.yul\":2336:2339   */\n      dup4\n        /* \"#utility.yul\":2332:2346   */\n      add\n        /* \"#utility.yul\":2318:2346   */\n      swap1\n      pop\n        /* \"#utility.yul\":2173:2352   */\n      swap3\n      swap2\n      pop\n      pop\n      jump\t// out\n        /* \"#utility.yul\":2358:2471   */\n    tag_77:\n        /* \"#utility.yul\":2428:2432   */\n      0x00\n        /* \"#utility.yul\":2460:2464   */\n      0x20\n        /* \"#utility.yul\":2455:2458   */\n      dup3\n        /* \"#utility.yul\":2451:2465   */\n      add\n        /* \"#utility.yul\":2443:2465   */\n      swap1\n      pop\n        /* \"#utility.yul\":2358:2471   */\n      swap2\n      swap1\n      pop\n      jump\t// out\n        /* \"#utility.yul\":2507:3239   */\n    tag_78:\n        /* \"#utility.yul\":2626:2629   */\n      0x00\n        /* \"#utility.yul\":2655:2709   */\n      tag_126\n        /* \"#utility.yul\":2703:2708   */\n      dup3\n        /* \"#utility.yul\":2655:2709   */\n      tag_72\n      jump\t// in\n    tag_126:\n        /* \"#utility.yul\":2725:2811   */\n      tag_127\n        /* \"#utility.yul\":2804:2810   */\n      dup2\n        /* \"#utility.yul\":2799:2802   */\n      dup6\n        /* \"#utility.yul\":2725:2811   */\n      tag_73\n      jump\t// in\n    tag_127:\n        /* \"#utility.yul\":2718:2811   */\n      swap4\n      pop\n        /* \"#utility.yul\":2835:2891   */\n      tag_128\n        /* \"#utility.yul\":2885:2890   */\n      dup4\n        /* \"#utility.yul\":2835:2891   */\n      tag_74\n      jump\t// in\n    tag_128:\n        /* \"#utility.yul\":2914:2921   */\n      dup1\n        /* \"#utility.yul\":2945:2946   */\n      0x00\n        /* \"#utility.yul\":2930:3214   */\n    tag_129:\n        /* \"#utility.yul\":2955:2961   */\n      dup4\n        /* \"#utility.yul\":2952:2953   */\n      dup2\n        /* \"#utility.yul\":2949:2962   */\n      lt\n        /* \"#utility.yul\":2930:3214   */\n      iszero\n      tag_131\n      jumpi\n        /* \"#utility.yul\":3031:3037   */\n      dup2\n        /* \"#utility.yul\":3025:3038   */\n      mload\n        /* \"#utility.yul\":3058:3121   */\n      tag_132\n        /* \"#utility.yul\":3117:3120   */\n      dup9\n        /* \"#utility.yul\":3102:3115   */\n      dup3\n        /* \"#utility.yul\":3058:3121   */\n      tag_76\n      jump\t// in\n    tag_132:\n        /* \"#utility.yul\":3051:3121   */\n      swap8\n      pop\n        /* \"#utility.yul\":3144:3204   */\n      tag_133\n        /* \"#utility.yul\":3197:3203   */\n      dup4\n        /* \"#utility.yul\":3144:3204   */\n      tag_77\n      jump\t// in\n    tag_133:\n        /* \"#utility.yul\":3134:3204   */\n      swap3\n      pop\n        /* \"#utility.yul\":2990:3214   */\n      pop\n        /* \"#utility.yul\":2977:2978   */\n      0x01\n        /* \"#utility.yul\":2974:2975   */\n      dup2\n        /* \"#utility.yul\":2970:2979   */\n      add\n        /* \"#utility.yul\":2965:2979   */\n      swap1\n      pop\n        /* \"#utility.yul\":2930:3214   */\n      jump(tag_129)\n    tag_131:\n        /* \"#utility.yul\":2934:2948   */\n      pop\n        /* \"#utility.yul\":3230:3233   */\n      dup6\n        /* \"#utility.yul\":3223:3233   */\n      swap4\n      pop\n        /* \"#utility.yul\":2631:3239   */\n      pop\n      pop\n      pop\n        /* \"#utility.yul\":2507:3239   */\n      swap3\n      swap2\n      pop\n      pop\n      jump\t// out\n        /* \"#utility.yul\":3245:3618   */\n    tag_17:\n        /* \"#utility.yul\":3388:3392   */\n      0x00\n        /* \"#utility.yul\":3426:3428   */\n      0x20\n        /* \"#utility.yul\":3415:3424   */\n      dup3\n        /* \"#utility.yul\":3411:3429   */\n      add\n        /* \"#utility.yul\":3403:3429   */\n      swap1\n      pop\n        /* \"#utility.yul\":3475:3484   */\n      dup2\n        /* \"#utility.yul\":3469:3473   */\n      dup2\n        /* \"#utility.yul\":3465:3485   */\n      sub\n        /* \"#utility.yul\":3461:3462   */\n      0x00\n        /* \"#utility.yul\":3450:3459   */\n      dup4\n        /* \"#utility.yul\":3446:3463   */\n      add\n        /* \"#utility.yul\":3439:3486   */\n      mstore\n        /* \"#utility.yul\":3503:3611   */\n      tag_135\n        /* \"#utility.yul\":3606:3610   */\n      dup2\n        /* \"#utility.yul\":3597:3603   */\n      dup5\n        /* \"#utility.yul\":3503:3611   */\n      tag_78\n      jump\t// in\n    tag_135:\n        /* \"#utility.yul\":3495:3611   */\n      swap1\n      pop\n        /* \"#utility.yul\":3245:3618   */\n      swap3\n      swap2\n      pop\n      pop\n      jump\t// out\n        /* \"#utility.yul\":3624:3741   */\n    tag_79:\n        /* \"#utility.yul\":3733:3734   */\n      0x00\n        /* \"#utility.yul\":3730:3731   */\n      dup1\n        /* \"#utility.yul\":3723:3735   */\n      revert\n        /* \"#utility.yul\":3747:3864   */\n    tag_80:\n        /* \"#utility.yul\":3856:3857   */\n      0x00\n        /* \"#utility.yul\":3853:3854   */\n      dup1\n        /* \"#utility.yul\":3846:3858   */\n      revert\n        /* \"#utility.yul\":3870:3972   */\n    tag_81:\n        /* \"#utility.yul\":3911:3917   */\n      0x00\n        /* \"#utility.yul\":3962:3964   */\n      0x1f\n        /* \"#utility.yul\":3958:3965   */\n      not\n        /* \"#utility.yul\":3953:3955   */\n      0x1f\n        /* \"#utility.yul\":3946:3951   */\n      dup4\n        /* \"#utility.yul\":3942:3956   */\n      add\n        /* \"#utility.yul\":3938:3966   */\n      and\n        /* \"#utility.yul\":3928:3966   */\n      swap1\n      pop\n        /* \"#utility.yul\":3870:3972   */\n      swap2\n      swap1\n      pop\n      jump\t// out\n        /* \"#utility.yul\":3978:4158   */\n    tag_82:\n        /* \"#utility.yul\":4026:4103   */\n      0x4e487b7100000000000000000000000000000000000000000000000000000000\n        /* \"#utility.yul\":4023:4024   */\n      0x00\n        /* \"#utility.yul\":4016:4104   */\n      mstore\n        /* \"#utility.yul\":4123:4127   */\n      0x41\n        /* \"#utility.yul\":4120:4121   */\n      0x04\n        /* \"#utility.yul\":4113:4128   */\n      mstore\n        /* \"#utility.yul\":4147:4151   */\n      0x24\n        /* \"#utility.yul\":4144:4145   */\n      0x00\n        /* \"#utility.yul\":4137:4152   */\n      revert\n        /* \"#utility.yul\":4164:4445   */\n    tag_83:\n        /* \"#utility.yul\":4247:4274   */\n      tag_141\n        /* \"#utility.yul\":4269:4273   */\n      dup3\n        /* \"#utility.yul\":4247:4274   */\n      tag_81\n      jump\t// in\n    tag_141:\n        /* \"#utility.yul\":4239:4245   */\n      dup2\n        /* \"#utility.yul\":4235:4275   */\n      add\n        /* \"#utility.yul\":4377:4383   */\n      dup2\n        /* \"#utility.yul\":4365:4375   */\n      dup2\n        /* \"#utility.yul\":4362:4384   */\n      lt\n        /* \"#utility.yul\":4341:4359   */\n      0xffffffffffffffff\n        /* \"#utility.yul\":4329:4339   */\n      dup3\n        /* \"#utility.yul\":4326:4360   */\n      gt\n        /* \"#utility.yul\":4323:4385   */\n      or\n        /* \"#utility.yul\":4320:4408   */\n      iszero\n      tag_142\n      jumpi\n        /* \"#utility.yul\":4388:4406   */\n      tag_143\n      tag_82\n      jump\t// in\n    tag_143:\n        /* \"#utility.yul\":4320:4408   */\n    tag_142:\n        /* \"#utility.yul\":4428:4438   */\n      dup1\n        /* \"#utility.yul\":4424:4426   */\n      0x40\n        /* \"#utility.yul\":4417:4439   */\n      mstore\n        /* \"#utility.yul\":4207:4445   */\n      pop\n        /* \"#utility.yul\":4164:4445   */\n      pop\n      pop\n      jump\t// out\n        /* \"#utility.yul\":4451:4580   */\n    tag_84:\n        /* \"#utility.yul\":4485:4491   */\n      0x00\n        /* \"#utility.yul\":4512:4532   */\n      tag_145\n      tag_63\n      jump\t// in\n    tag_145:\n        /* \"#utility.yul\":4502:4532   */\n      swap1\n      pop\n        /* \"#utility.yul\":4541:4574   */\n      tag_146\n        /* \"#utility.yul\":4569:4573   */\n      dup3\n        /* \"#utility.yul\":4561:4567   */\n      dup3\n        /* \"#utility.yul\":4541:4574   */\n      tag_83\n      jump\t// in\n    tag_146:\n        /* \"#utility.yul\":4451:4580   */\n      swap2\n      swap1\n      pop\n      jump\t// out\n        /* \"#utility.yul\":4586:4894   */\n    tag_85:\n        /* \"#utility.yul\":4648:4652   */\n      0x00\n        /* \"#utility.yul\":4738:4756   */\n      0xffffffffffffffff\n        /* \"#utility.yul\":4730:4736   */\n      dup3\n        /* \"#utility.yul\":4727:4757   */\n      gt\n        /* \"#utility.yul\":4724:4780   */\n      iszero\n      tag_148\n      jumpi\n        /* \"#utility.yul\":4760:4778   */\n      tag_149\n      tag_82\n      jump\t// in\n    tag_149:\n        /* \"#utility.yul\":4724:4780   */\n    tag_148:\n        /* \"#utility.yul\":4798:4827   */\n      tag_150\n        /* \"#utility.yul\":4820:4826   */\n      dup3\n        /* \"#utility.yul\":4798:4827   */\n      tag_81\n      jump\t// in\n    tag_150:\n        /* \"#utility.yul\":4790:4827   */\n      swap1\n      pop\n        /* \"#utility.yul\":4882:4886   */\n      0x20\n        /* \"#utility.yul\":4876:4880   */\n      dup2\n        /* \"#utility.yul\":4872:4887   */\n      add\n        /* \"#utility.yul\":4864:4887   */\n      swap1\n      pop\n        /* \"#utility.yul\":4586:4894   */\n      swap2\n      swap1\n      pop\n      jump\t// out\n        /* \"#utility.yul\":4900:5054   */\n    tag_86:\n        /* \"#utility.yul\":4984:4990   */\n      dup3\n        /* \"#utility.yul\":4979:4982   */\n      dup2\n        /* \"#utility.yul\":4974:4977   */\n      dup4\n        /* \"#utility.yul\":4961:4991   */\n      calldatacopy\n        /* \"#utility.yul\":5046:5047   */\n      0x00\n        /* \"#utility.yul\":5037:5043   */\n      dup4\n        /* \"#utility.yul\":5032:5035   */\n      dup4\n        /* \"#utility.yul\":5028:5044   */\n      add\n        /* \"#utility.yul\":5021:5048   */\n      mstore\n        /* \"#utility.yul\":4900:5054   */\n      pop\n      pop\n      pop\n      jump\t// out\n        /* \"#utility.yul\":5060:5472   */\n    tag_87:\n        /* \"#utility.yul\":5138:5143   */\n      0x00\n        /* \"#utility.yul\":5163:5229   */\n      tag_153\n        /* \"#utility.yul\":5179:5228   */\n      tag_154\n        /* \"#utility.yul\":5221:5227   */\n      dup5\n        /* \"#utility.yul\":5179:5228   */\n      tag_85\n      jump\t// in\n    tag_154:\n        /* \"#utility.yul\":5163:5229   */\n      tag_84\n      jump\t// in\n    tag_153:\n        /* \"#utility.yul\":5154:5229   */\n      swap1\n      pop\n        /* \"#utility.yul\":5252:5258   */\n      dup3\n        /* \"#utility.yul\":5245:5250   */\n      dup2\n        /* \"#utility.yul\":5238:5259   */\n      mstore\n        /* \"#utility.yul\":5290:5294   */\n      0x20\n        /* \"#utility.yul\":5283:5288   */\n      dup2\n        /* \"#utility.yul\":5279:5295   */\n      add\n        /* \"#utility.yul\":5328:5331   */\n      dup5\n        /* \"#utility.yul\":5319:5325   */\n      dup5\n        /* \"#utility.yul\":5314:5317   */\n      dup5\n        /* \"#utility.yul\":5310:5326   */\n      add\n        /* \"#utility.yul\":5307:5332   */\n      gt\n        /* \"#utility.yul\":5304:5416   */\n      iszero\n      tag_155\n      jumpi\n        /* \"#utility.yul\":5335:5414   */\n      tag_156\n      tag_80\n      jump\t// in\n    tag_156:\n        /* \"#utility.yul\":5304:5416   */\n    tag_155:\n        /* \"#utility.yul\":5425:5466   */\n      tag_157\n        /* \"#utility.yul\":5459:5465   */\n      dup5\n        /* \"#utility.yul\":5454:5457   */\n      dup3\n        /* \"#utility.yul\":5449:5452   */\n      dup6\n        /* \"#utility.yul\":5425:5466   */\n      tag_86\n      jump\t// in\n    tag_157:\n        /* \"#utility.yul\":5144:5472   */\n      pop\n        /* \"#utility.yul\":5060:5472   */\n      swap4\n      swap3\n      pop\n      pop\n      pop\n      jump\t// out\n        /* \"#utility.yul\":5492:5832   */\n    tag_88:\n        /* \"#utility.yul\":5548:5553   */\n      0x00\n        /* \"#utility.yul\":5597:5600   */\n      dup3\n        /* \"#utility.yul\":5590:5594   */\n      0x1f\n        /* \"#utility.yul\":5582:5588   */\n      dup4\n        /* \"#utility.yul\":5578:5595   */\n      add\n        /* \"#utility.yul\":5574:5601   */\n      slt\n        /* \"#utility.yul\":5564:5686   */\n      tag_159\n      jumpi\n        /* \"#utility.yul\":5605:5684   */\n      tag_160\n      tag_79\n      jump\t// in\n    tag_160:\n        /* \"#utility.yul\":5564:5686   */\n    tag_159:\n        /* \"#utility.yul\":5722:5728   */\n      dup2\n        /* \"#utility.yul\":5709:5729   */\n      calldataload\n        /* \"#utility.yul\":5747:5826   */\n      tag_161\n        /* \"#utility.yul\":5822:5825   */\n      dup5\n        /* \"#utility.yul\":5814:5820   */\n      dup3\n        /* \"#utility.yul\":5807:5811   */\n      0x20\n        /* \"#utility.yul\":5799:5805   */\n      dup7\n        /* \"#utility.yul\":5795:5812   */\n      add\n        /* \"#utility.yul\":5747:5826   */\n      tag_87\n      jump\t// in\n    tag_161:\n        /* \"#utility.yul\":5738:5826   */\n      swap2\n      pop\n        /* \"#utility.yul\":5554:5832   */\n      pop\n        /* \"#utility.yul\":5492:5832   */\n      swap3\n      swap2\n      pop\n      pop\n      jump\t// out\n        /* \"#utility.yul\":5838:6347   */\n    tag_20:\n        /* \"#utility.yul\":5907:5913   */\n      0x00\n        /* \"#utility.yul\":5956:5958   */\n      0x20\n        /* \"#utility.yul\":5944:5953   */\n      dup3\n        /* \"#utility.yul\":5935:5942   */\n      dup5\n        /* \"#utility.yul\":5931:5954   */\n      sub\n        /* \"#utility.yul\":5927:5959   */\n      slt\n        /* \"#utility.yul\":5924:6043   */\n      iszero\n      tag_163\n      jumpi\n        /* \"#utility.yul\":5962:6041   */\n      tag_164\n      tag_64\n      jump\t// in\n    tag_164:\n        /* \"#utility.yul\":5924:6043   */\n    tag_163:\n        /* \"#utility.yul\":6110:6111   */\n      0x00\n        /* \"#utility.yul\":6099:6108   */\n      dup3\n        /* \"#utility.yul\":6095:6112   */\n      add\n        /* \"#utility.yul\":6082:6113   */\n      calldataload\n        /* \"#utility.yul\":6140:6158   */\n      0xffffffffffffffff\n        /* \"#utility.yul\":6132:6138   */\n      dup2\n        /* \"#utility.yul\":6129:6159   */\n      gt\n        /* \"#utility.yul\":6126:6243   */\n      iszero\n      tag_165\n      jumpi\n        /* \"#utility.yul\":6162:6241   */\n      tag_166\n      tag_65\n      jump\t// in\n    tag_166:\n        /* \"#utility.yul\":6126:6243   */\n    tag_165:\n        /* \"#utility.yul\":6267:6330   */\n      tag_167\n        /* \"#utility.yul\":6322:6329   */\n      dup5\n        /* \"#utility.yul\":6313:6319   */\n      dup3\n        /* \"#utility.yul\":6302:6311   */\n      dup6\n        /* \"#utility.yul\":6298:6320   */\n      add\n        /* \"#utility.yul\":6267:6330   */\n      tag_88\n      jump\t// in\n    tag_167:\n        /* \"#utility.yul\":6257:6330   */\n      swap2\n      pop\n        /* \"#utility.yul\":6053:6340   */\n      pop\n        /* \"#utility.yul\":5838:6347   */\n      swap3\n      swap2\n      pop\n      pop\n      jump\t// out\n        /* \"#utility.yul\":6353:7838   */\n    tag_24:\n        /* \"#utility.yul\":6479:6485   */\n      0x00\n        /* \"#utility.yul\":6487:6493   */\n      dup1\n        /* \"#utility.yul\":6495:6501   */\n      0x00\n        /* \"#utility.yul\":6503:6509   */\n      dup1\n        /* \"#utility.yul\":6552:6555   */\n      0x80\n        /* \"#utility.yul\":6540:6549   */\n      dup6\n        /* \"#utility.yul\":6531:6538   */\n      dup8\n        /* \"#utility.yul\":6527:6550   */\n      sub\n        /* \"#utility.yul\":6523:6556   */\n      slt\n        /* \"#utility.yul\":6520:6640   */\n      iszero\n      tag_169\n      jumpi\n        /* \"#utility.yul\":6559:6638   */\n      tag_170\n      tag_64\n      jump\t// in\n    tag_170:\n        /* \"#utility.yul\":6520:6640   */\n    tag_169:\n        /* \"#utility.yul\":6707:6708   */\n      0x00\n        /* \"#utility.yul\":6696:6705   */\n      dup6\n        /* \"#utility.yul\":6692:6709   */\n      add\n        /* \"#utility.yul\":6679:6710   */\n      calldataload\n        /* \"#utility.yul\":6737:6755   */\n      0xffffffffffffffff\n        /* \"#utility.yul\":6729:6735   */\n      dup2\n        /* \"#utility.yul\":6726:6756   */\n      gt\n        /* \"#utility.yul\":6723:6840   */\n      iszero\n      tag_171\n      jumpi\n        /* \"#utility.yul\":6759:6838   */\n      tag_172\n      tag_65\n      jump\t// in\n    tag_172:\n        /* \"#utility.yul\":6723:6840   */\n    tag_171:\n        /* \"#utility.yul\":6864:6927   */\n      tag_173\n        /* \"#utility.yul\":6919:6926   */\n      dup8\n        /* \"#utility.yul\":6910:6916   */\n      dup3\n        /* \"#utility.yul\":6899:6908   */\n      dup9\n        /* \"#utility.yul\":6895:6917   */\n      add\n        /* \"#utility.yul\":6864:6927   */\n      tag_88\n      jump\t// in\n    tag_173:\n        /* \"#utility.yul\":6854:6927   */\n      swap5\n      pop\n        /* \"#utility.yul\":6650:6937   */\n      pop\n        /* \"#utility.yul\":7004:7006   */\n      0x20\n        /* \"#utility.yul\":6993:7002   */\n      dup6\n        /* \"#utility.yul\":6989:7007   */\n      add\n        /* \"#utility.yul\":6976:7008   */\n      calldataload\n        /* \"#utility.yul\":7035:7053   */\n      0xffffffffffffffff\n        /* \"#utility.yul\":7027:7033   */\n      dup2\n        /* \"#utility.yul\":7024:7054   */\n      gt\n        /* \"#utility.yul\":7021:7138   */\n      iszero\n      tag_174\n      jumpi\n        /* \"#utility.yul\":7057:7136   */\n      tag_175\n      tag_65\n      jump\t// in\n    tag_175:\n        /* \"#utility.yul\":7021:7138   */\n    tag_174:\n        /* \"#utility.yul\":7162:7225   */\n      tag_176\n        /* \"#utility.yul\":7217:7224   */\n      dup8\n        /* \"#utility.yul\":7208:7214   */\n      dup3\n        /* \"#utility.yul\":7197:7206   */\n      dup9\n        /* \"#utility.yul\":7193:7215   */\n      add\n        /* \"#utility.yul\":7162:7225   */\n      tag_88\n      jump\t// in\n    tag_176:\n        /* \"#utility.yul\":7152:7225   */\n      swap4\n      pop\n        /* \"#utility.yul\":6947:7235   */\n      pop\n        /* \"#utility.yul\":7302:7304   */\n      0x40\n        /* \"#utility.yul\":7291:7300   */\n      dup6\n        /* \"#utility.yul\":7287:7305   */\n      add\n        /* \"#utility.yul\":7274:7306   */\n      calldataload\n        /* \"#utility.yul\":7333:7351   */\n      0xffffffffffffffff\n        /* \"#utility.yul\":7325:7331   */\n      dup2\n        /* \"#utility.yul\":7322:7352   */\n      gt\n        /* \"#utility.yul\":7319:7436   */\n      iszero\n      tag_177\n      jumpi\n        /* \"#utility.yul\":7355:7434   */\n      tag_178\n      tag_65\n      jump\t// in\n    tag_178:\n        /* \"#utility.yul\":7319:7436   */\n    tag_177:\n        /* \"#utility.yul\":7460:7523   */\n      tag_179\n        /* \"#utility.yul\":7515:7522   */\n      dup8\n        /* \"#utility.yul\":7506:7512   */\n      dup3\n        /* \"#utility.yul\":7495:7504   */\n      dup9\n        /* \"#utility.yul\":7491:7513   */\n      add\n        /* \"#utility.yul\":7460:7523   */\n      tag_88\n      jump\t// in\n    tag_179:\n        /* \"#utility.yul\":7450:7523   */\n      swap3\n      pop\n        /* \"#utility.yul\":7245:7533   */\n      pop\n        /* \"#utility.yul\":7600:7602   */\n      0x60\n        /* \"#utility.yul\":7589:7598   */\n      dup6\n        /* \"#utility.yul\":7585:7603   */\n      add\n        /* \"#utility.yul\":7572:7604   */\n      calldataload\n        /* \"#utility.yul\":7631:7649   */\n      0xffffffffffffffff\n        /* \"#utility.yul\":7623:7629   */\n      dup2\n        /* \"#utility.yul\":7620:7650   */\n      gt\n        /* \"#utility.yul\":7617:7734   */\n      iszero\n      tag_180\n      jumpi\n        /* \"#utility.yul\":7653:7732   */\n      tag_181\n      tag_65\n      jump\t// in\n    tag_181:\n        /* \"#utility.yul\":7617:7734   */\n    tag_180:\n        /* \"#utility.yul\":7758:7821   */\n      tag_182\n        /* \"#utility.yul\":7813:7820   */\n      dup8\n        /* \"#utility.yul\":7804:7810   */\n      dup3\n        /* \"#utility.yul\":7793:7802   */\n      dup9\n        /* \"#utility.yul\":7789:7811   */\n      add\n        /* \"#utility.yul\":7758:7821   */\n      tag_88\n      jump\t// in\n    tag_182:\n        /* \"#utility.yul\":7748:7821   */\n      swap2\n      pop\n        /* \"#utility.yul\":7543:7831   */\n      pop\n        /* \"#utility.yul\":6353:7838   */\n      swap3\n      swap6\n      swap2\n      swap5\n      pop\n      swap3\n      pop\n      jump\t// out\n        /* \"#utility.yul\":7844:7966   */\n    tag_89:\n        /* \"#utility.yul\":7917:7941   */\n      tag_184\n        /* \"#utility.yul\":7935:7940   */\n      dup2\n        /* \"#utility.yul\":7917:7941   */\n      tag_70\n      jump\t// in\n    tag_184:\n        /* \"#utility.yul\":7910:7915   */\n      dup2\n        /* \"#utility.yul\":7907:7942   */\n      eq\n        /* \"#utility.yul\":7897:7960   */\n      tag_185\n      jumpi\n        /* \"#utility.yul\":7956:7957   */\n      0x00\n        /* \"#utility.yul\":7953:7954   */\n      dup1\n        /* \"#utility.yul\":7946:7958   */\n      revert\n        /* \"#utility.yul\":7897:7960   */\n    tag_185:\n        /* \"#utility.yul\":7844:7966   */\n      pop\n      jump\t// out\n        /* \"#utility.yul\":7972:8111   */\n    tag_90:\n        /* \"#utility.yul\":8018:8023   */\n      0x00\n        /* \"#utility.yul\":8056:8062   */\n      dup2\n        /* \"#utility.yul\":8043:8063   */\n      calldataload\n        /* \"#utility.yul\":8034:8063   */\n      swap1\n      pop\n        /* \"#utility.yul\":8072:8105   */\n      tag_187\n        /* \"#utility.yul\":8099:8104   */\n      dup2\n        /* \"#utility.yul\":8072:8105   */\n      tag_89\n      jump\t// in\n    tag_187:\n        /* \"#utility.yul\":7972:8111   */\n      swap3\n      swap2\n      pop\n      pop\n      jump\t// out\n        /* \"#utility.yul\":8117:8446   */\n    tag_28:\n        /* \"#utility.yul\":8176:8182   */\n      0x00\n        /* \"#utility.yul\":8225:8227   */\n      0x20\n        /* \"#utility.yul\":8213:8222   */\n      dup3\n        /* \"#utility.yul\":8204:8211   */\n      dup5\n        /* \"#utility.yul\":8200:8223   */\n      sub\n        /* \"#utility.yul\":8196:8228   */\n      slt\n        /* \"#utility.yul\":8193:8312   */\n      iszero\n      tag_189\n      jumpi\n        /* \"#utility.yul\":8231:8310   */\n      tag_190\n      tag_64\n      jump\t// in\n    tag_190:\n        /* \"#utility.yul\":8193:8312   */\n    tag_189:\n        /* \"#utility.yul\":8351:8352   */\n      0x00\n        /* \"#utility.yul\":8376:8429   */\n      tag_191\n        /* \"#utility.yul\":8421:8428   */\n      dup5\n        /* \"#utility.yul\":8412:8418   */\n      dup3\n        /* \"#utility.yul\":8401:8410   */\n      dup6\n        /* \"#utility.yul\":8397:8419   */\n      add\n        /* \"#utility.yul\":8376:8429   */\n      tag_90\n      jump\t// in\n    tag_191:\n        /* \"#utility.yul\":8366:8429   */\n      swap2\n      pop\n        /* \"#utility.yul\":8322:8439   */\n      pop\n        /* \"#utility.yul\":8117:8446   */\n      swap3\n      swap2\n      pop\n      pop\n      jump\t// out\n        /* \"#utility.yul\":8452:8551   */\n    tag_91:\n        /* \"#utility.yul\":8504:8510   */\n      0x00\n        /* \"#utility.yul\":8538:8543   */\n      dup2\n        /* \"#utility.yul\":8532:8544   */\n      mload\n        /* \"#utility.yul\":8522:8544   */\n      swap1\n      pop\n        /* \"#utility.yul\":8452:8551   */\n      swap2\n      swap1\n      pop\n      jump\t// out\n        /* \"#utility.yul\":8557:8726   */\n    tag_92:\n        /* \"#utility.yul\":8641:8652   */\n      0x00\n        /* \"#utility.yul\":8675:8681   */\n      dup3\n        /* \"#utility.yul\":8670:8673   */\n      dup3\n        /* \"#utility.yul\":8663:8682   */\n      mstore\n        /* \"#utility.yul\":8715:8719   */\n      0x20\n        /* \"#utility.yul\":8710:8713   */\n      dup3\n        /* \"#utility.yul\":8706:8720   */\n      add\n        /* \"#utility.yul\":8691:8720   */\n      swap1\n      pop\n        /* \"#utility.yul\":8557:8726   */\n      swap3\n      swap2\n      pop\n      pop\n      jump\t// out\n        /* \"#utility.yul\":8732:9039   */\n    tag_93:\n        /* \"#utility.yul\":8800:8801   */\n      0x00\n        /* \"#utility.yul\":8810:8923   */\n    tag_195:\n        /* \"#utility.yul\":8824:8830   */\n      dup4\n        /* \"#utility.yul\":8821:8822   */\n      dup2\n        /* \"#utility.yul\":8818:8831   */\n      lt\n        /* \"#utility.yul\":8810:8923   */\n      iszero\n      tag_197\n      jumpi\n        /* \"#utility.yul\":8909:8910   */\n      dup1\n        /* \"#utility.yul\":8904:8907   */\n      dup3\n        /* \"#utility.yul\":8900:8911   */\n      add\n        /* \"#utility.yul\":8894:8912   */\n      mload\n        /* \"#utility.yul\":8890:8891   */\n      dup2\n        /* \"#utility.yul\":8885:8888   */\n      dup5\n        /* \"#utility.yul\":8881:8892   */\n      add\n        /* \"#utility.yul\":8874:8913   */\n      mstore\n        /* \"#utility.yul\":8846:8848   */\n      0x20\n        /* \"#utility.yul\":8843:8844   */\n      dup2\n        /* \"#utility.yul\":8839:8849   */\n      add\n        /* \"#utility.yul\":8834:8849   */\n      swap1\n      pop\n        /* \"#utility.yul\":8810:8923   */\n      jump(tag_195)\n    tag_197:\n        /* \"#utility.yul\":8941:8947   */\n      dup4\n        /* \"#utility.yul\":8938:8939   */\n      dup2\n        /* \"#utility.yul\":8935:8948   */\n      gt\n        /* \"#utility.yul\":8932:9033   */\n      iszero\n      tag_198\n      jumpi\n        /* \"#utility.yul\":9021:9022   */\n      0x00\n        /* \"#utility.yul\":9012:9018   */\n      dup5\n        /* \"#utility.yul\":9007:9010   */\n      dup5\n        /* \"#utility.yul\":9003:9019   */\n      add\n        /* \"#utility.yul\":8996:9023   */\n      mstore\n        /* \"#utility.yul\":8932:9033   */\n    tag_198:\n        /* \"#utility.yul\":8781:9039   */\n      pop\n        /* \"#utility.yul\":8732:9039   */\n      pop\n      pop\n      pop\n      jump\t// out\n        /* \"#utility.yul\":9045:9409   */\n    tag_94:\n        /* \"#utility.yul\":9133:9136   */\n      0x00\n        /* \"#utility.yul\":9161:9200   */\n      tag_200\n        /* \"#utility.yul\":9194:9199   */\n      dup3\n        /* \"#utility.yul\":9161:9200   */\n      tag_91\n      jump\t// in\n    tag_200:\n        /* \"#utility.yul\":9216:9287   */\n      tag_201\n        /* \"#utility.yul\":9280:9286   */\n      dup2\n        /* \"#utility.yul\":9275:9278   */\n      dup6\n        /* \"#utility.yul\":9216:9287   */\n      tag_92\n      jump\t// in\n    tag_201:\n        /* \"#utility.yul\":9209:9287   */\n      swap4\n      pop\n        /* \"#utility.yul\":9296:9348   */\n      tag_202\n        /* \"#utility.yul\":9341:9347   */\n      dup2\n        /* \"#utility.yul\":9336:9339   */\n      dup6\n        /* \"#utility.yul\":9329:9333   */\n      0x20\n        /* \"#utility.yul\":9322:9327   */\n      dup7\n        /* \"#utility.yul\":9318:9334   */\n      add\n        /* \"#utility.yul\":9296:9348   */\n      tag_93\n      jump\t// in\n    tag_202:\n        /* \"#utility.yul\":9373:9402   */\n      tag_203\n        /* \"#utility.yul\":9395:9401   */\n      dup2\n        /* \"#utility.yul\":9373:9402   */\n      tag_81\n      jump\t// in\n    tag_203:\n        /* \"#utility.yul\":9368:9371   */\n      dup5\n        /* \"#utility.yul\":9364:9403   */\n      add\n        /* \"#utility.yul\":9357:9403   */\n      swap2\n      pop\n        /* \"#utility.yul\":9137:9409   */\n      pop\n        /* \"#utility.yul\":9045:9409   */\n      swap3\n      swap2\n      pop\n      pop\n      jump\t// out\n        /* \"#utility.yul\":9415:9728   */\n    tag_31:\n        /* \"#utility.yul\":9528:9532   */\n      0x00\n        /* \"#utility.yul\":9566:9568   */\n      0x20\n        /* \"#utility.yul\":9555:9564   */\n      dup3\n        /* \"#utility.yul\":9551:9569   */\n      add\n        /* \"#utility.yul\":9543:9569   */\n      swap1\n      pop\n        /* \"#utility.yul\":9615:9624   */\n      dup2\n        /* \"#utility.yul\":9609:9613   */\n      dup2\n        /* \"#utility.yul\":9605:9625   */\n      sub\n        /* \"#utility.yul\":9601:9602   */\n      0x00\n        /* \"#utility.yul\":9590:9599   */\n      dup4\n        /* \"#utility.yul\":9586:9603   */\n      add\n        /* \"#utility.yul\":9579:9626   */\n      mstore\n        /* \"#utility.yul\":9643:9721   */\n      tag_205\n        /* \"#utility.yul\":9716:9720   */\n      dup2\n        /* \"#utility.yul\":9707:9713   */\n      dup5\n        /* \"#utility.yul\":9643:9721   */\n      tag_94\n      jump\t// in\n    tag_205:\n        /* \"#utility.yul\":9635:9721   */\n      swap1\n      pop\n        /* \"#utility.yul\":9415:9728   */\n      swap3\n      swap2\n      pop\n      pop\n      jump\t// out\n        /* \"#utility.yul\":9734:10762   */\n    tag_44:\n        /* \"#utility.yul\":10019:10023   */\n      0x00\n        /* \"#utility.yul\":10057:10060   */\n      0xa0\n        /* \"#utility.yul\":10046:10055   */\n      dup3\n        /* \"#utility.yul\":10042:10061   */\n      add\n        /* \"#utility.yul\":10034:10061   */\n      swap1\n      pop\n        /* \"#utility.yul\":10071:10142   */\n      tag_207\n        /* \"#utility.yul\":10139:10140   */\n      0x00\n        /* \"#utility.yul\":10128:10137   */\n      dup4\n        /* \"#utility.yul\":10124:10141   */\n      add\n        /* \"#utility.yul\":10115:10121   */\n      dup9\n        /* \"#utility.yul\":10071:10142   */\n      tag_71\n      jump\t// in\n    tag_207:\n        /* \"#utility.yul\":10189:10198   */\n      dup2\n        /* \"#utility.yul\":10183:10187   */\n      dup2\n        /* \"#utility.yul\":10179:10199   */\n      sub\n        /* \"#utility.yul\":10174:10176   */\n      0x20\n        /* \"#utility.yul\":10163:10172   */\n      dup4\n        /* \"#utility.yul\":10159:10177   */\n      add\n        /* \"#utility.yul\":10152:10200   */\n      mstore\n        /* \"#utility.yul\":10217:10295   */\n      tag_208\n        /* \"#utility.yul\":10290:10294   */\n      dup2\n        /* \"#utility.yul\":10281:10287   */\n      dup8\n        /* \"#utility.yul\":10217:10295   */\n      tag_94\n      jump\t// in\n    tag_208:\n        /* \"#utility.yul\":10209:10295   */\n      swap1\n      pop\n        /* \"#utility.yul\":10342:10351   */\n      dup2\n        /* \"#utility.yul\":10336:10340   */\n      dup2\n        /* \"#utility.yul\":10332:10352   */\n      sub\n        /* \"#utility.yul\":10327:10329   */\n      0x40\n        /* \"#utility.yul\":10316:10325   */\n      dup4\n        /* \"#utility.yul\":10312:10330   */\n      add\n        /* \"#utility.yul\":10305:10353   */\n      mstore\n        /* \"#utility.yul\":10370:10448   */\n      tag_209\n        /* \"#utility.yul\":10443:10447   */\n      dup2\n        /* \"#utility.yul\":10434:10440   */\n      dup7\n        /* \"#utility.yul\":10370:10448   */\n      tag_94\n      jump\t// in\n    tag_209:\n        /* \"#utility.yul\":10362:10448   */\n      swap1\n      pop\n        /* \"#utility.yul\":10495:10504   */\n      dup2\n        /* \"#utility.yul\":10489:10493   */\n      dup2\n        /* \"#utility.yul\":10485:10505   */\n      sub\n        /* \"#utility.yul\":10480:10482   */\n      0x60\n        /* \"#utility.yul\":10469:10478   */\n      dup4\n        /* \"#utility.yul\":10465:10483   */\n      add\n        /* \"#utility.yul\":10458:10506   */\n      mstore\n        /* \"#utility.yul\":10523:10601   */\n      tag_210\n        /* \"#utility.yul\":10596:10600   */\n      dup2\n        /* \"#utility.yul\":10587:10593   */\n      dup6\n        /* \"#utility.yul\":10523:10601   */\n      tag_94\n      jump\t// in\n    tag_210:\n        /* \"#utility.yul\":10515:10601   */\n      swap1\n      pop\n        /* \"#utility.yul\":10649:10658   */\n      dup2\n        /* \"#utility.yul\":10643:10647   */\n      dup2\n        /* \"#utility.yul\":10639:10659   */\n      sub\n        /* \"#utility.yul\":10633:10636   */\n      0x80\n        /* \"#utility.yul\":10622:10631   */\n      dup4\n        /* \"#utility.yul\":10618:10637   */\n      add\n        /* \"#utility.yul\":10611:10660   */\n      mstore\n        /* \"#utility.yul\":10677:10755   */\n      tag_211\n        /* \"#utility.yul\":10750:10754   */\n      dup2\n        /* \"#utility.yul\":10741:10747   */\n      dup5\n        /* \"#utility.yul\":10677:10755   */\n      tag_94\n      jump\t// in\n    tag_211:\n        /* \"#utility.yul\":10669:10755   */\n      swap1\n      pop\n        /* \"#utility.yul\":9734:10762   */\n      swap7\n      swap6\n      pop\n      pop\n      pop\n      pop\n      pop\n      pop\n      jump\t// out\n        /* \"#utility.yul\":10768:10948   */\n    tag_95:\n        /* \"#utility.yul\":10816:10893   */\n      0x4e487b7100000000000000000000000000000000000000000000000000000000\n        /* \"#utility.yul\":10813:10814   */\n      0x00\n        /* \"#utility.yul\":10806:10894   */\n      mstore\n        /* \"#utility.yul\":10913:10917   */\n      0x22\n        /* \"#utility.yul\":10910:10911   */\n      0x04\n        /* \"#utility.yul\":10903:10918   */\n      mstore\n        /* \"#utility.yul\":10937:10941   */\n      0x24\n        /* \"#utility.yul\":10934:10935   */\n      0x00\n        /* \"#utility.yul\":10927:10942   */\n      revert\n        /* \"#utility.yul\":10954:11274   */\n    tag_48:\n        /* \"#utility.yul\":10998:11004   */\n      0x00\n        /* \"#utility.yul\":11035:11036   */\n      0x02\n        /* \"#utility.yul\":11029:11033   */\n      dup3\n        /* \"#utility.yul\":11025:11037   */\n      div\n        /* \"#utility.yul\":11015:11037   */\n      swap1\n      pop\n        /* \"#utility.yul\":11082:11083   */\n      0x01\n        /* \"#utility.yul\":11076:11080   */\n      dup3\n        /* \"#utility.yul\":11072:11084   */\n      and\n        /* \"#utility.yul\":11103:11121   */\n      dup1\n        /* \"#utility.yul\":11093:11174   */\n      tag_214\n      jumpi\n        /* \"#utility.yul\":11159:11163   */\n      0x7f\n        /* \"#utility.yul\":11151:11157   */\n      dup3\n        /* \"#utility.yul\":11147:11164   */\n      and\n        /* \"#utility.yul\":11137:11164   */\n      swap2\n      pop\n        /* \"#utility.yul\":11093:11174   */\n    tag_214:\n        /* \"#utility.yul\":11221:11223   */\n      0x20\n        /* \"#utility.yul\":11213:11219   */\n      dup3\n        /* \"#utility.yul\":11210:11224   */\n      lt\n        /* \"#utility.yul\":11190:11208   */\n      dup2\n        /* \"#utility.yul\":11187:11225   */\n      eq\n        /* \"#utility.yul\":11184:11268   */\n      iszero\n      tag_215\n      jumpi\n        /* \"#utility.yul\":11240:11258   */\n      tag_216\n      tag_95\n      jump\t// in\n    tag_216:\n        /* \"#utility.yul\":11184:11268   */\n    tag_215:\n        /* \"#utility.yul\":11005:11274   */\n      pop\n        /* \"#utility.yul\":10954:11274   */\n      swap2\n      swap1\n      pop\n      jump\t// out\n    stop\n\n    sub_0: assembly {\n            /* \"Story.sol\":775:8388  contract Story {... */\n          mstore(0x40, 0x80)\n            /* \"Story.sol\":2049:2430  constructor(address _mainAuthor, string memory _title, string memory _genre, string memory _mainIdea, string memory _coverPhoto) payable{... */\n          mload(0x40)\n          sub(codesize, bytecodeSize)\n          dup1\n          bytecodeSize\n          dup4\n          codecopy\n          dup2\n          dup2\n          add\n          0x40\n          mstore\n          dup2\n          add\n          swap1\n          tag_1\n          swap2\n          swap1\n          tag_2\n          jump\t// in\n        tag_1:\n            /* \"Story.sol\":2234:2238  true */\n          0x01\n            /* \"Story.sol\":2200:2218  authorsForSolidity */\n          0x08\n            /* \"Story.sol\":2200:2231  authorsForSolidity[_mainAuthor] */\n          0x00\n            /* \"Story.sol\":2219:2230  _mainAuthor */\n          dup8\n            /* \"Story.sol\":2200:2231  authorsForSolidity[_mainAuthor] */\n          0xffffffffffffffffffffffffffffffffffffffff\n          and\n          0xffffffffffffffffffffffffffffffffffffffff\n          and\n          dup2\n          mstore\n          0x20\n          add\n          swap1\n          dup2\n          mstore\n          0x20\n          add\n          0x00\n          keccak256\n          0x00\n            /* \"Story.sol\":2200:2238  authorsForSolidity[_mainAuthor] = true */\n          0x0100\n          exp\n          dup2\n          sload\n          dup2\n          0xff\n          mul\n          not\n          and\n          swap1\n          dup4\n          iszero\n          iszero\n          mul\n          or\n          swap1\n          sstore\n          pop\n            /* \"Story.sol\":2253:2268  authorsForReact */\n          0x09\n            /* \"Story.sol\":2274:2285  _mainAuthor */\n          dup6\n            /* \"Story.sol\":2253:2286  authorsForReact.push(_mainAuthor) */\n          swap1\n          dup1\n          0x01\n          dup2\n          sload\n          add\n          dup1\n          dup3\n          sstore\n          dup1\n          swap2\n          pop\n          pop\n          0x01\n          swap1\n          sub\n          swap1\n          0x00\n          mstore\n          keccak256(0x00, 0x20)\n          add\n          0x00\n          swap1\n          swap2\n          swap1\n          swap2\n          swap1\n          swap2\n          0x0100\n          exp\n          dup2\n          sload\n          dup2\n          0xffffffffffffffffffffffffffffffffffffffff\n          mul\n          not\n          and\n          swap1\n          dup4\n          0xffffffffffffffffffffffffffffffffffffffff\n          and\n          mul\n          or\n          swap1\n          sstore\n          pop\n            /* \"Story.sol\":2309:2315  _title */\n          dup4\n            /* \"Story.sol\":2301:2306  title */\n          0x00\n            /* \"Story.sol\":2301:2315  title = _title */\n          swap1\n          dup1\n          mload\n          swap1\n          0x20\n          add\n          swap1\n          tag_6\n          swap3\n          swap2\n          swap1\n          tag_7\n          jump\t// in\n        tag_6:\n          pop\n            /* \"Story.sol\":2338:2344  _genre */\n          dup3\n            /* \"Story.sol\":2330:2335  genre */\n          0x01\n            /* \"Story.sol\":2330:2344  genre = _genre */\n          swap1\n          dup1\n          mload\n          swap1\n          0x20\n          add\n          swap1\n          tag_8\n          swap3\n          swap2\n          swap1\n          tag_7\n          jump\t// in\n        tag_8:\n          pop\n            /* \"Story.sol\":2370:2379  _mainIdea */\n          dup2\n            /* \"Story.sol\":2359:2367  mainIdea */\n          0x02\n            /* \"Story.sol\":2359:2379  mainIdea = _mainIdea */\n          swap1\n          dup1\n          mload\n          swap1\n          0x20\n          add\n          swap1\n          tag_9\n          swap3\n          swap2\n          swap1\n          tag_7\n          jump\t// in\n        tag_9:\n          pop\n            /* \"Story.sol\":2407:2418  _coverPhoto */\n          dup1\n            /* \"Story.sol\":2394:2404  coverPhoto */\n          0x03\n            /* \"Story.sol\":2394:2418  coverPhoto = _coverPhoto */\n          swap1\n          dup1\n          mload\n          swap1\n          0x20\n          add\n          swap1\n          tag_10\n          swap3\n          swap2\n          swap1\n          tag_7\n          jump\t// in\n        tag_10:\n          pop\n            /* \"Story.sol\":2049:2430  constructor(address _mainAuthor, string memory _title, string memory _genre, string memory _mainIdea, string memory _coverPhoto) payable{... */\n          pop\n          pop\n          pop\n          pop\n          pop\n            /* \"Story.sol\":775:8388  contract Story {... */\n          jump(tag_11)\n        tag_7:\n          dup3\n          dup1\n          sload\n          tag_12\n          swap1\n          tag_13\n          jump\t// in\n        tag_12:\n          swap1\n          0x00\n          mstore\n          keccak256(0x00, 0x20)\n          swap1\n          0x1f\n          add\n          0x20\n          swap1\n          div\n          dup2\n          add\n          swap3\n          dup3\n          tag_15\n          jumpi\n          0x00\n          dup6\n          sstore\n          jump(tag_14)\n        tag_15:\n          dup3\n          0x1f\n          lt\n          tag_16\n          jumpi\n          dup1\n          mload\n          not(0xff)\n          and\n          dup4\n          dup1\n          add\n          or\n          dup6\n          sstore\n          jump(tag_14)\n        tag_16:\n          dup3\n          dup1\n          add\n          0x01\n          add\n          dup6\n          sstore\n          dup3\n          iszero\n          tag_14\n          jumpi\n          swap2\n          dup3\n          add\n        tag_17:\n          dup3\n          dup2\n          gt\n          iszero\n          tag_18\n          jumpi\n          dup3\n          mload\n          dup3\n          sstore\n          swap2\n          0x20\n          add\n          swap2\n          swap1\n          0x01\n          add\n          swap1\n          jump(tag_17)\n        tag_18:\n        tag_14:\n          pop\n          swap1\n          pop\n          tag_19\n          swap2\n          swap1\n          tag_20\n          jump\t// in\n        tag_19:\n          pop\n          swap1\n          jump\t// out\n        tag_20:\n        tag_21:\n          dup1\n          dup3\n          gt\n          iszero\n          tag_22\n          jumpi\n          0x00\n          dup2\n          0x00\n          swap1\n          sstore\n          pop\n          0x01\n          add\n          jump(tag_21)\n        tag_22:\n          pop\n          swap1\n          jump\t// out\n            /* \"#utility.yul\":7:82   */\n        tag_23:\n            /* \"#utility.yul\":40:46   */\n          0x00\n            /* \"#utility.yul\":73:75   */\n          0x40\n            /* \"#utility.yul\":67:76   */\n          mload\n            /* \"#utility.yul\":57:76   */\n          swap1\n          pop\n            /* \"#utility.yul\":7:82   */\n          swap1\n          jump\t// out\n            /* \"#utility.yul\":88:205   */\n        tag_24:\n            /* \"#utility.yul\":197:198   */\n          0x00\n            /* \"#utility.yul\":194:195   */\n          dup1\n            /* \"#utility.yul\":187:199   */\n          revert\n            /* \"#utility.yul\":211:328   */\n        tag_25:\n            /* \"#utility.yul\":320:321   */\n          0x00\n            /* \"#utility.yul\":317:318   */\n          dup1\n            /* \"#utility.yul\":310:322   */\n          revert\n            /* \"#utility.yul\":334:460   */\n        tag_26:\n            /* \"#utility.yul\":371:378   */\n          0x00\n            /* \"#utility.yul\":411:453   */\n          0xffffffffffffffffffffffffffffffffffffffff\n            /* \"#utility.yul\":404:409   */\n          dup3\n            /* \"#utility.yul\":400:454   */\n          and\n            /* \"#utility.yul\":389:454   */\n          swap1\n          pop\n            /* \"#utility.yul\":334:460   */\n          swap2\n          swap1\n          pop\n          jump\t// out\n            /* \"#utility.yul\":466:562   */\n        tag_27:\n            /* \"#utility.yul\":503:510   */\n          0x00\n            /* \"#utility.yul\":532:556   */\n          tag_47\n            /* \"#utility.yul\":550:555   */\n          dup3\n            /* \"#utility.yul\":532:556   */\n          tag_26\n          jump\t// in\n        tag_47:\n            /* \"#utility.yul\":521:556   */\n          swap1\n          pop\n            /* \"#utility.yul\":466:562   */\n          swap2\n          swap1\n          pop\n          jump\t// out\n            /* \"#utility.yul\":568:690   */\n        tag_28:\n            /* \"#utility.yul\":641:665   */\n          tag_49\n            /* \"#utility.yul\":659:664   */\n          dup2\n            /* \"#utility.yul\":641:665   */\n          tag_27\n          jump\t// in\n        tag_49:\n            /* \"#utility.yul\":634:639   */\n          dup2\n            /* \"#utility.yul\":631:666   */\n          eq\n            /* \"#utility.yul\":621:684   */\n          tag_50\n          jumpi\n            /* \"#utility.yul\":680:681   */\n          0x00\n            /* \"#utility.yul\":677:678   */\n          dup1\n            /* \"#utility.yul\":670:682   */\n          revert\n            /* \"#utility.yul\":621:684   */\n        tag_50:\n            /* \"#utility.yul\":568:690   */\n          pop\n          jump\t// out\n            /* \"#utility.yul\":696:839   */\n        tag_29:\n            /* \"#utility.yul\":753:758   */\n          0x00\n            /* \"#utility.yul\":784:790   */\n          dup2\n            /* \"#utility.yul\":778:791   */\n          mload\n            /* \"#utility.yul\":769:791   */\n          swap1\n          pop\n            /* \"#utility.yul\":800:833   */\n          tag_52\n            /* \"#utility.yul\":827:832   */\n          dup2\n            /* \"#utility.yul\":800:833   */\n          tag_28\n          jump\t// in\n        tag_52:\n            /* \"#utility.yul\":696:839   */\n          swap3\n          swap2\n          pop\n          pop\n          jump\t// out\n            /* \"#utility.yul\":845:962   */\n        tag_30:\n            /* \"#utility.yul\":954:955   */\n          0x00\n            /* \"#utility.yul\":951:952   */\n          dup1\n            /* \"#utility.yul\":944:956   */\n          revert\n            /* \"#utility.yul\":968:1085   */\n        tag_31:\n            /* \"#utility.yul\":1077:1078   */\n          0x00\n            /* \"#utility.yul\":1074:1075   */\n          dup1\n            /* \"#utility.yul\":1067:1079   */\n          revert\n            /* \"#utility.yul\":1091:1193   */\n        tag_32:\n            /* \"#utility.yul\":1132:1138   */\n          0x00\n            /* \"#utility.yul\":1183:1185   */\n          0x1f\n            /* \"#utility.yul\":1179:1186   */\n          not\n            /* \"#utility.yul\":1174:1176   */\n          0x1f\n            /* \"#utility.yul\":1167:1172   */\n          dup4\n            /* \"#utility.yul\":1163:1177   */\n          add\n            /* \"#utility.yul\":1159:1187   */\n          and\n            /* \"#utility.yul\":1149:1187   */\n          swap1\n          pop\n            /* \"#utility.yul\":1091:1193   */\n          swap2\n          swap1\n          pop\n          jump\t// out\n            /* \"#utility.yul\":1199:1379   */\n        tag_33:\n            /* \"#utility.yul\":1247:1324   */\n          0x4e487b7100000000000000000000000000000000000000000000000000000000\n            /* \"#utility.yul\":1244:1245   */\n          0x00\n            /* \"#utility.yul\":1237:1325   */\n          mstore\n            /* \"#utility.yul\":1344:1348   */\n          0x41\n            /* \"#utility.yul\":1341:1342   */\n          0x04\n            /* \"#utility.yul\":1334:1349   */\n          mstore\n            /* \"#utility.yul\":1368:1372   */\n          0x24\n            /* \"#utility.yul\":1365:1366   */\n          0x00\n            /* \"#utility.yul\":1358:1373   */\n          revert\n            /* \"#utility.yul\":1385:1666   */\n        tag_34:\n            /* \"#utility.yul\":1468:1495   */\n          tag_58\n            /* \"#utility.yul\":1490:1494   */\n          dup3\n            /* \"#utility.yul\":1468:1495   */\n          tag_32\n          jump\t// in\n        tag_58:\n            /* \"#utility.yul\":1460:1466   */\n          dup2\n            /* \"#utility.yul\":1456:1496   */\n          add\n            /* \"#utility.yul\":1598:1604   */\n          dup2\n            /* \"#utility.yul\":1586:1596   */\n          dup2\n            /* \"#utility.yul\":1583:1605   */\n          lt\n            /* \"#utility.yul\":1562:1580   */\n          0xffffffffffffffff\n            /* \"#utility.yul\":1550:1560   */\n          dup3\n            /* \"#utility.yul\":1547:1581   */\n          gt\n            /* \"#utility.yul\":1544:1606   */\n          or\n            /* \"#utility.yul\":1541:1629   */\n          iszero\n          tag_59\n          jumpi\n            /* \"#utility.yul\":1609:1627   */\n          tag_60\n          tag_33\n          jump\t// in\n        tag_60:\n            /* \"#utility.yul\":1541:1629   */\n        tag_59:\n            /* \"#utility.yul\":1649:1659   */\n          dup1\n            /* \"#utility.yul\":1645:1647   */\n          0x40\n            /* \"#utility.yul\":1638:1660   */\n          mstore\n            /* \"#utility.yul\":1428:1666   */\n          pop\n            /* \"#utility.yul\":1385:1666   */\n          pop\n          pop\n          jump\t// out\n            /* \"#utility.yul\":1672:1801   */\n        tag_35:\n            /* \"#utility.yul\":1706:1712   */\n          0x00\n            /* \"#utility.yul\":1733:1753   */\n          tag_62\n          tag_23\n          jump\t// in\n        tag_62:\n            /* \"#utility.yul\":1723:1753   */\n          swap1\n          pop\n            /* \"#utility.yul\":1762:1795   */\n          tag_63\n            /* \"#utility.yul\":1790:1794   */\n          dup3\n            /* \"#utility.yul\":1782:1788   */\n          dup3\n            /* \"#utility.yul\":1762:1795   */\n          tag_34\n          jump\t// in\n        tag_63:\n            /* \"#utility.yul\":1672:1801   */\n          swap2\n          swap1\n          pop\n          jump\t// out\n            /* \"#utility.yul\":1807:2115   */\n        tag_36:\n            /* \"#utility.yul\":1869:1873   */\n          0x00\n            /* \"#utility.yul\":1959:1977   */\n          0xffffffffffffffff\n            /* \"#utility.yul\":1951:1957   */\n          dup3\n            /* \"#utility.yul\":1948:1978   */\n          gt\n            /* \"#utility.yul\":1945:2001   */\n          iszero\n          tag_65\n          jumpi\n            /* \"#utility.yul\":1981:1999   */\n          tag_66\n          tag_33\n          jump\t// in\n        tag_66:\n            /* \"#utility.yul\":1945:2001   */\n        tag_65:\n            /* \"#utility.yul\":2019:2048   */\n          tag_67\n            /* \"#utility.yul\":2041:2047   */\n          dup3\n            /* \"#utility.yul\":2019:2048   */\n          tag_32\n          jump\t// in\n        tag_67:\n            /* \"#utility.yul\":2011:2048   */\n          swap1\n          pop\n            /* \"#utility.yul\":2103:2107   */\n          0x20\n            /* \"#utility.yul\":2097:2101   */\n          dup2\n            /* \"#utility.yul\":2093:2108   */\n          add\n            /* \"#utility.yul\":2085:2108   */\n          swap1\n          pop\n            /* \"#utility.yul\":1807:2115   */\n          swap2\n          swap1\n          pop\n          jump\t// out\n            /* \"#utility.yul\":2121:2428   */\n        tag_37:\n            /* \"#utility.yul\":2189:2190   */\n          0x00\n            /* \"#utility.yul\":2199:2312   */\n        tag_69:\n            /* \"#utility.yul\":2213:2219   */\n          dup4\n            /* \"#utility.yul\":2210:2211   */\n          dup2\n            /* \"#utility.yul\":2207:2220   */\n          lt\n            /* \"#utility.yul\":2199:2312   */\n          iszero\n          tag_71\n          jumpi\n            /* \"#utility.yul\":2298:2299   */\n          dup1\n            /* \"#utility.yul\":2293:2296   */\n          dup3\n            /* \"#utility.yul\":2289:2300   */\n          add\n            /* \"#utility.yul\":2283:2301   */\n          mload\n            /* \"#utility.yul\":2279:2280   */\n          dup2\n            /* \"#utility.yul\":2274:2277   */\n          dup5\n            /* \"#utility.yul\":2270:2281   */\n          add\n            /* \"#utility.yul\":2263:2302   */\n          mstore\n            /* \"#utility.yul\":2235:2237   */\n          0x20\n            /* \"#utility.yul\":2232:2233   */\n          dup2\n            /* \"#utility.yul\":2228:2238   */\n          add\n            /* \"#utility.yul\":2223:2238   */\n          swap1\n          pop\n            /* \"#utility.yul\":2199:2312   */\n          jump(tag_69)\n        tag_71:\n            /* \"#utility.yul\":2330:2336   */\n          dup4\n            /* \"#utility.yul\":2327:2328   */\n          dup2\n            /* \"#utility.yul\":2324:2337   */\n          gt\n            /* \"#utility.yul\":2321:2422   */\n          iszero\n          tag_72\n          jumpi\n            /* \"#utility.yul\":2410:2411   */\n          0x00\n            /* \"#utility.yul\":2401:2407   */\n          dup5\n            /* \"#utility.yul\":2396:2399   */\n          dup5\n            /* \"#utility.yul\":2392:2408   */\n          add\n            /* \"#utility.yul\":2385:2412   */\n          mstore\n            /* \"#utility.yul\":2321:2422   */\n        tag_72:\n            /* \"#utility.yul\":2170:2428   */\n          pop\n            /* \"#utility.yul\":2121:2428   */\n          pop\n          pop\n          pop\n          jump\t// out\n            /* \"#utility.yul\":2434:2855   */\n        tag_38:\n            /* \"#utility.yul\":2523:2528   */\n          0x00\n            /* \"#utility.yul\":2548:2614   */\n          tag_74\n            /* \"#utility.yul\":2564:2613   */\n          tag_75\n            /* \"#utility.yul\":2606:2612   */\n          dup5\n            /* \"#utility.yul\":2564:2613   */\n          tag_36\n          jump\t// in\n        tag_75:\n            /* \"#utility.yul\":2548:2614   */\n          tag_35\n          jump\t// in\n        tag_74:\n            /* \"#utility.yul\":2539:2614   */\n          swap1\n          pop\n            /* \"#utility.yul\":2637:2643   */\n          dup3\n            /* \"#utility.yul\":2630:2635   */\n          dup2\n            /* \"#utility.yul\":2623:2644   */\n          mstore\n            /* \"#utility.yul\":2675:2679   */\n          0x20\n            /* \"#utility.yul\":2668:2673   */\n          dup2\n            /* \"#utility.yul\":2664:2680   */\n          add\n            /* \"#utility.yul\":2713:2716   */\n          dup5\n            /* \"#utility.yul\":2704:2710   */\n          dup5\n            /* \"#utility.yul\":2699:2702   */\n          dup5\n            /* \"#utility.yul\":2695:2711   */\n          add\n            /* \"#utility.yul\":2692:2717   */\n          gt\n            /* \"#utility.yul\":2689:2801   */\n          iszero\n          tag_76\n          jumpi\n            /* \"#utility.yul\":2720:2799   */\n          tag_77\n          tag_31\n          jump\t// in\n        tag_77:\n            /* \"#utility.yul\":2689:2801   */\n        tag_76:\n            /* \"#utility.yul\":2810:2849   */\n          tag_78\n            /* \"#utility.yul\":2842:2848   */\n          dup5\n            /* \"#utility.yul\":2837:2840   */\n          dup3\n            /* \"#utility.yul\":2832:2835   */\n          dup6\n            /* \"#utility.yul\":2810:2849   */\n          tag_37\n          jump\t// in\n        tag_78:\n            /* \"#utility.yul\":2529:2855   */\n          pop\n            /* \"#utility.yul\":2434:2855   */\n          swap4\n          swap3\n          pop\n          pop\n          pop\n          jump\t// out\n            /* \"#utility.yul\":2875:3230   */\n        tag_39:\n            /* \"#utility.yul\":2942:2947   */\n          0x00\n            /* \"#utility.yul\":2991:2994   */\n          dup3\n            /* \"#utility.yul\":2984:2988   */\n          0x1f\n            /* \"#utility.yul\":2976:2982   */\n          dup4\n            /* \"#utility.yul\":2972:2989   */\n          add\n            /* \"#utility.yul\":2968:2995   */\n          slt\n            /* \"#utility.yul\":2958:3080   */\n          tag_80\n          jumpi\n            /* \"#utility.yul\":2999:3078   */\n          tag_81\n          tag_30\n          jump\t// in\n        tag_81:\n            /* \"#utility.yul\":2958:3080   */\n        tag_80:\n            /* \"#utility.yul\":3109:3115   */\n          dup2\n            /* \"#utility.yul\":3103:3116   */\n          mload\n            /* \"#utility.yul\":3134:3224   */\n          tag_82\n            /* \"#utility.yul\":3220:3223   */\n          dup5\n            /* \"#utility.yul\":3212:3218   */\n          dup3\n            /* \"#utility.yul\":3205:3209   */\n          0x20\n            /* \"#utility.yul\":3197:3203   */\n          dup7\n            /* \"#utility.yul\":3193:3210   */\n          add\n            /* \"#utility.yul\":3134:3224   */\n          tag_38\n          jump\t// in\n        tag_82:\n            /* \"#utility.yul\":3125:3224   */\n          swap2\n          pop\n            /* \"#utility.yul\":2948:3230   */\n          pop\n            /* \"#utility.yul\":2875:3230   */\n          swap3\n          swap2\n          pop\n          pop\n          jump\t// out\n            /* \"#utility.yul\":3236:4905   */\n        tag_2:\n            /* \"#utility.yul\":3382:3388   */\n          0x00\n            /* \"#utility.yul\":3390:3396   */\n          dup1\n            /* \"#utility.yul\":3398:3404   */\n          0x00\n            /* \"#utility.yul\":3406:3412   */\n          dup1\n            /* \"#utility.yul\":3414:3420   */\n          0x00\n            /* \"#utility.yul\":3463:3466   */\n          0xa0\n            /* \"#utility.yul\":3451:3460   */\n          dup7\n            /* \"#utility.yul\":3442:3449   */\n          dup9\n            /* \"#utility.yul\":3438:3461   */\n          sub\n            /* \"#utility.yul\":3434:3467   */\n          slt\n            /* \"#utility.yul\":3431:3551   */\n          iszero\n          tag_84\n          jumpi\n            /* \"#utility.yul\":3470:3549   */\n          tag_85\n          tag_24\n          jump\t// in\n        tag_85:\n            /* \"#utility.yul\":3431:3551   */\n        tag_84:\n            /* \"#utility.yul\":3590:3591   */\n          0x00\n            /* \"#utility.yul\":3615:3679   */\n          tag_86\n            /* \"#utility.yul\":3671:3678   */\n          dup9\n            /* \"#utility.yul\":3662:3668   */\n          dup3\n            /* \"#utility.yul\":3651:3660   */\n          dup10\n            /* \"#utility.yul\":3647:3669   */\n          add\n            /* \"#utility.yul\":3615:3679   */\n          tag_29\n          jump\t// in\n        tag_86:\n            /* \"#utility.yul\":3605:3679   */\n          swap6\n          pop\n            /* \"#utility.yul\":3561:3689   */\n          pop\n            /* \"#utility.yul\":3749:3751   */\n          0x20\n            /* \"#utility.yul\":3738:3747   */\n          dup7\n            /* \"#utility.yul\":3734:3752   */\n          add\n            /* \"#utility.yul\":3728:3753   */\n          mload\n            /* \"#utility.yul\":3780:3798   */\n          0xffffffffffffffff\n            /* \"#utility.yul\":3772:3778   */\n          dup2\n            /* \"#utility.yul\":3769:3799   */\n          gt\n            /* \"#utility.yul\":3766:3883   */\n          iszero\n          tag_87\n          jumpi\n            /* \"#utility.yul\":3802:3881   */\n          tag_88\n          tag_25\n          jump\t// in\n        tag_88:\n            /* \"#utility.yul\":3766:3883   */\n        tag_87:\n            /* \"#utility.yul\":3907:3981   */\n          tag_89\n            /* \"#utility.yul\":3973:3980   */\n          dup9\n            /* \"#utility.yul\":3964:3970   */\n          dup3\n            /* \"#utility.yul\":3953:3962   */\n          dup10\n            /* \"#utility.yul\":3949:3971   */\n          add\n            /* \"#utility.yul\":3907:3981   */\n          tag_39\n          jump\t// in\n        tag_89:\n            /* \"#utility.yul\":3897:3981   */\n          swap5\n          pop\n            /* \"#utility.yul\":3699:3991   */\n          pop\n            /* \"#utility.yul\":4051:4053   */\n          0x40\n            /* \"#utility.yul\":4040:4049   */\n          dup7\n            /* \"#utility.yul\":4036:4054   */\n          add\n            /* \"#utility.yul\":4030:4055   */\n          mload\n            /* \"#utility.yul\":4082:4100   */\n          0xffffffffffffffff\n            /* \"#utility.yul\":4074:4080   */\n          dup2\n            /* \"#utility.yul\":4071:4101   */\n          gt\n            /* \"#utility.yul\":4068:4185   */\n          iszero\n          tag_90\n          jumpi\n            /* \"#utility.yul\":4104:4183   */\n          tag_91\n          tag_25\n          jump\t// in\n        tag_91:\n            /* \"#utility.yul\":4068:4185   */\n        tag_90:\n            /* \"#utility.yul\":4209:4283   */\n          tag_92\n            /* \"#utility.yul\":4275:4282   */\n          dup9\n            /* \"#utility.yul\":4266:4272   */\n          dup3\n            /* \"#utility.yul\":4255:4264   */\n          dup10\n            /* \"#utility.yul\":4251:4273   */\n          add\n            /* \"#utility.yul\":4209:4283   */\n          tag_39\n          jump\t// in\n        tag_92:\n            /* \"#utility.yul\":4199:4283   */\n          swap4\n          pop\n            /* \"#utility.yul\":4001:4293   */\n          pop\n            /* \"#utility.yul\":4353:4355   */\n          0x60\n            /* \"#utility.yul\":4342:4351   */\n          dup7\n            /* \"#utility.yul\":4338:4356   */\n          add\n            /* \"#utility.yul\":4332:4357   */\n          mload\n            /* \"#utility.yul\":4384:4402   */\n          0xffffffffffffffff\n            /* \"#utility.yul\":4376:4382   */\n          dup2\n            /* \"#utility.yul\":4373:4403   */\n          gt\n            /* \"#utility.yul\":4370:4487   */\n          iszero\n          tag_93\n          jumpi\n            /* \"#utility.yul\":4406:4485   */\n          tag_94\n          tag_25\n          jump\t// in\n        tag_94:\n            /* \"#utility.yul\":4370:4487   */\n        tag_93:\n            /* \"#utility.yul\":4511:4585   */\n          tag_95\n            /* \"#utility.yul\":4577:4584   */\n          dup9\n            /* \"#utility.yul\":4568:4574   */\n          dup3\n            /* \"#utility.yul\":4557:4566   */\n          dup10\n            /* \"#utility.yul\":4553:4575   */\n          add\n            /* \"#utility.yul\":4511:4585   */\n          tag_39\n          jump\t// in\n        tag_95:\n            /* \"#utility.yul\":4501:4585   */\n          swap3\n          pop\n            /* \"#utility.yul\":4303:4595   */\n          pop\n            /* \"#utility.yul\":4655:4658   */\n          0x80\n            /* \"#utility.yul\":4644:4653   */\n          dup7\n            /* \"#utility.yul\":4640:4659   */\n          add\n            /* \"#utility.yul\":4634:4660   */\n          mload\n            /* \"#utility.yul\":4687:4705   */\n          0xffffffffffffffff\n            /* \"#utility.yul\":4679:4685   */\n          dup2\n            /* \"#utility.yul\":4676:4706   */\n          gt\n            /* \"#utility.yul\":4673:4790   */\n          iszero\n          tag_96\n          jumpi\n            /* \"#utility.yul\":4709:4788   */\n          tag_97\n          tag_25\n          jump\t// in\n        tag_97:\n            /* \"#utility.yul\":4673:4790   */\n        tag_96:\n            /* \"#utility.yul\":4814:4888   */\n          tag_98\n            /* \"#utility.yul\":4880:4887   */\n          dup9\n            /* \"#utility.yul\":4871:4877   */\n          dup3\n            /* \"#utility.yul\":4860:4869   */\n          dup10\n            /* \"#utility.yul\":4856:4878   */\n          add\n            /* \"#utility.yul\":4814:4888   */\n          tag_39\n          jump\t// in\n        tag_98:\n            /* \"#utility.yul\":4804:4888   */\n          swap2\n          pop\n            /* \"#utility.yul\":4605:4898   */\n          pop\n            /* \"#utility.yul\":3236:4905   */\n          swap3\n          swap6\n          pop\n          swap3\n          swap6\n          swap1\n          swap4\n          pop\n          jump\t// out\n            /* \"#utility.yul\":4911:5091   */\n        tag_40:\n            /* \"#utility.yul\":4959:5036   */\n          0x4e487b7100000000000000000000000000000000000000000000000000000000\n            /* \"#utility.yul\":4956:4957   */\n          0x00\n            /* \"#utility.yul\":4949:5037   */\n          mstore\n            /* \"#utility.yul\":5056:5060   */\n          0x22\n            /* \"#utility.yul\":5053:5054   */\n          0x04\n            /* \"#utility.yul\":5046:5061   */\n          mstore\n            /* \"#utility.yul\":5080:5084   */\n          0x24\n            /* \"#utility.yul\":5077:5078   */\n          0x00\n            /* \"#utility.yul\":5070:5085   */\n          revert\n            /* \"#utility.yul\":5097:5417   */\n        tag_13:\n            /* \"#utility.yul\":5141:5147   */\n          0x00\n            /* \"#utility.yul\":5178:5179   */\n          0x02\n            /* \"#utility.yul\":5172:5176   */\n          dup3\n            /* \"#utility.yul\":5168:5180   */\n          div\n            /* \"#utility.yul\":5158:5180   */\n          swap1\n          pop\n            /* \"#utility.yul\":5225:5226   */\n          0x01\n            /* \"#utility.yul\":5219:5223   */\n          dup3\n            /* \"#utility.yul\":5215:5227   */\n          and\n            /* \"#utility.yul\":5246:5264   */\n          dup1\n            /* \"#utility.yul\":5236:5317   */\n          tag_101\n          jumpi\n            /* \"#utility.yul\":5302:5306   */\n          0x7f\n            /* \"#utility.yul\":5294:5300   */\n          dup3\n            /* \"#utility.yul\":5290:5307   */\n          and\n            /* \"#utility.yul\":5280:5307   */\n          swap2\n          pop\n            /* \"#utility.yul\":5236:5317   */\n        tag_101:\n            /* \"#utility.yul\":5364:5366   */\n          0x20\n            /* \"#utility.yul\":5356:5362   */\n          dup3\n            /* \"#utility.yul\":5353:5367   */\n          lt\n            /* \"#utility.yul\":5333:5351   */\n          dup2\n            /* \"#utility.yul\":5330:5368   */\n          eq\n            /* \"#utility.yul\":5327:5411   */\n          iszero\n          tag_102\n          jumpi\n            /* \"#utility.yul\":5383:5401   */\n          tag_103\n          tag_40\n          jump\t// in\n        tag_103:\n            /* \"#utility.yul\":5327:5411   */\n        tag_102:\n            /* \"#utility.yul\":5148:5417   */\n          pop\n            /* \"#utility.yul\":5097:5417   */\n          swap2\n          swap1\n          pop\n          jump\t// out\n            /* \"Story.sol\":775:8388  contract Story {... */\n        tag_11:\n          dataSize(sub_0)\n          dup1\n          dataOffset(sub_0)\n          0x00\n          codecopy\n          0x00\n          return\n        stop\n\n        sub_0: assembly {\n                /* \"Story.sol\":775:8388  contract Story {... */\n              mstore(0x40, 0x80)\n              jumpi(tag_1, lt(calldatasize, 0x04))\n              shr(0xe0, calldataload(0x00))\n              dup1\n              0x6fc6c579\n              gt\n              tag_24\n              jumpi\n              dup1\n              0x9d3ed807\n              gt\n              tag_25\n              jumpi\n              dup1\n              0x9d3ed807\n              eq\n              tag_18\n              jumpi\n              dup1\n              0xb5202522\n              eq\n              tag_19\n              jumpi\n              dup1\n              0xd5ac2a87\n              eq\n              tag_20\n              jumpi\n              dup1\n              0xdfa14e23\n              eq\n              tag_21\n              jumpi\n              dup1\n              0xe8ae38e4\n              eq\n              tag_22\n              jumpi\n              dup1\n              0xf7b78a5b\n              eq\n              tag_23\n              jumpi\n              jump(tag_1)\n            tag_25:\n              dup1\n              0x6fc6c579\n              eq\n              tag_13\n              jumpi\n              dup1\n              0x7f51aaf9\n              eq\n              tag_14\n              jumpi\n              dup1\n              0x8da5cb5b\n              eq\n              tag_15\n              jumpi\n              dup1\n              0x98b79628\n              eq\n              tag_16\n              jumpi\n              dup1\n              0x992b11dc\n              eq\n              tag_17\n              jumpi\n              jump(tag_1)\n            tag_24:\n              dup1\n              0x3e5690f4\n              gt\n              tag_26\n              jumpi\n              dup1\n              0x3e5690f4\n              eq\n              tag_7\n              jumpi\n              dup1\n              0x4051ddac\n              eq\n              tag_8\n              jumpi\n              dup1\n              0x497c9419\n              eq\n              tag_9\n              jumpi\n              dup1\n              0x4a79d50c\n              eq\n              tag_10\n              jumpi\n              dup1\n              0x5d1a870a\n              eq\n              tag_11\n              jumpi\n              dup1\n              0x6c0a6656\n              eq\n              tag_12\n              jumpi\n              jump(tag_1)\n            tag_26:\n              dup1\n              0x14a7585d\n              eq\n              tag_2\n              jumpi\n              dup1\n              0x17de3a41\n              eq\n              tag_3\n              jumpi\n              dup1\n              0x2606a10b\n              eq\n              tag_4\n              jumpi\n              dup1\n              0x2cc1cd9e\n              eq\n              tag_5\n              jumpi\n              dup1\n              0x34976b9b\n              eq\n              tag_6\n              jumpi\n            tag_1:\n              0x00\n              dup1\n              revert\n                /* \"Story.sol\":2442:2815  function createRequestToBuy() public payable noReentrancy { //make price in wei... */\n            tag_2:\n              tag_27\n              tag_28\n              jump\t// in\n            tag_27:\n              stop\n                /* \"Story.sol\":831:850  string public genre */\n            tag_3:\n              callvalue\n              dup1\n              iszero\n              tag_29\n              jumpi\n              0x00\n              dup1\n              revert\n            tag_29:\n              pop\n              tag_30\n              tag_31\n              jump\t// in\n            tag_30:\n              mload(0x40)\n              tag_32\n              swap2\n              swap1\n              tag_33\n              jump\t// in\n            tag_32:\n              mload(0x40)\n              dup1\n              swap2\n              sub\n              swap1\n              return\n                /* \"Story.sol\":7380:7765  function report() public noReentrancy {... */\n            tag_4:\n              callvalue\n              dup1\n              iszero\n              tag_34\n              jumpi\n              0x00\n              dup1\n              revert\n            tag_34:\n              pop\n              tag_35\n              tag_36\n              jump\t// in\n            tag_35:\n              stop\n                /* \"Story.sol\":1028:1069  mapping(address => bool) public reporters */\n            tag_5:\n              callvalue\n              dup1\n              iszero\n              tag_37\n              jumpi\n              0x00\n              dup1\n              revert\n            tag_37:\n              pop\n              tag_38\n              0x04\n              dup1\n              calldatasize\n              sub\n              dup2\n              add\n              swap1\n              tag_39\n              swap2\n              swap1\n              tag_40\n              jump\t// in\n            tag_39:\n              tag_41\n              jump\t// in\n            tag_38:\n              mload(0x40)\n              tag_42\n              swap2\n              swap1\n              tag_43\n              jump\t// in\n            tag_42:\n              mload(0x40)\n              dup1\n              swap2\n              sub\n              swap1\n              return\n                /* \"Story.sol\":1843:1861  bool public bought */\n            tag_6:\n              callvalue\n              dup1\n              iszero\n              tag_44\n              jumpi\n              0x00\n              dup1\n              revert\n            tag_44:\n              pop\n              tag_45\n              tag_46\n              jump\t// in\n            tag_45:\n              mload(0x40)\n              tag_47\n              swap2\n              swap1\n              tag_43\n              jump\t// in\n            tag_47:\n              mload(0x40)\n              dup1\n              swap2\n              sub\n              swap1\n              return\n                /* \"Story.sol\":1082:1132  mapping(address => bool) public authorsForSolidity */\n            tag_7:\n              callvalue\n              dup1\n              iszero\n              tag_48\n              jumpi\n              0x00\n              dup1\n              revert\n            tag_48:\n              pop\n              tag_49\n              0x04\n              dup1\n              calldatasize\n              sub\n              dup2\n              add\n              swap1\n              tag_50\n              swap2\n              swap1\n              tag_40\n              jump\t// in\n            tag_50:\n              tag_51\n              jump\t// in\n            tag_49:\n              mload(0x40)\n              tag_52\n              swap2\n              swap1\n              tag_43\n              jump\t// in\n            tag_52:\n              mload(0x40)\n              dup1\n              swap2\n              sub\n              swap1\n              return\n                /* \"Story.sol\":7777:8379  function getSummary() public view returns (... */\n            tag_8:\n              callvalue\n              dup1\n              iszero\n              tag_53\n              jumpi\n              0x00\n              dup1\n              revert\n            tag_53:\n              pop\n              tag_54\n              tag_55\n              jump\t// in\n            tag_54:\n              mload(0x40)\n              tag_56\n              swap13\n              swap12\n              swap11\n              swap10\n              swap9\n              swap8\n              swap7\n              swap6\n              swap5\n              swap4\n              swap3\n              swap2\n              swap1\n              tag_57\n              jump\t// in\n            tag_56:\n              mload(0x40)\n              dup1\n              swap2\n              sub\n              swap1\n              return\n                /* \"Story.sol\":2825:4512  function approveRequestToBuy(uint256 _index) public payable noReentrancy {... */\n            tag_9:\n              tag_58\n              0x04\n              dup1\n              calldatasize\n              sub\n              dup2\n              add\n              swap1\n              tag_59\n              swap2\n              swap1\n              tag_60\n              jump\t// in\n            tag_59:\n              tag_61\n              jump\t// in\n            tag_58:\n              stop\n                /* \"Story.sol\":801:820  string public title */\n            tag_10:\n              callvalue\n              dup1\n              iszero\n              tag_62\n              jumpi\n              0x00\n              dup1\n              revert\n            tag_62:\n              pop\n              tag_63\n              tag_64\n              jump\t// in\n            tag_63:\n              mload(0x40)\n              tag_65\n              swap2\n              swap1\n              tag_33\n              jump\t// in\n            tag_65:\n              mload(0x40)\n              dup1\n              swap2\n              sub\n              swap1\n              return\n                /* \"Story.sol\":997:1017  bool public reported */\n            tag_11:\n              callvalue\n              dup1\n              iszero\n              tag_66\n              jumpi\n              0x00\n              dup1\n              revert\n            tag_66:\n              pop\n              tag_67\n              tag_68\n              jump\t// in\n            tag_67:\n              mload(0x40)\n              tag_69\n              swap2\n              swap1\n              tag_43\n              jump\t// in\n            tag_69:\n              mload(0x40)\n              dup1\n              swap2\n              sub\n              swap1\n              return\n                /* \"Story.sol\":1764:1799  RequestToBuy[] public requestsToBuy */\n            tag_12:\n              callvalue\n              dup1\n              iszero\n              tag_70\n              jumpi\n              0x00\n              dup1\n              revert\n            tag_70:\n              pop\n              tag_71\n              0x04\n              dup1\n              calldatasize\n              sub\n              dup2\n              add\n              swap1\n              tag_72\n              swap2\n              swap1\n              tag_60\n              jump\t// in\n            tag_72:\n              tag_73\n              jump\t// in\n            tag_71:\n              mload(0x40)\n              tag_74\n              swap5\n              swap4\n              swap3\n              swap2\n              swap1\n              tag_75\n              jump\t// in\n            tag_74:\n              mload(0x40)\n              dup1\n              swap2\n              sub\n              swap1\n              return\n                /* \"Story.sol\":1507:1544  RequestToJoin[] public requestsToJoin */\n            tag_13:\n              callvalue\n              dup1\n              iszero\n              tag_76\n              jumpi\n              0x00\n              dup1\n              revert\n            tag_76:\n              pop\n              tag_77\n              0x04\n              dup1\n              calldatasize\n              sub\n              dup2\n              add\n              swap1\n              tag_78\n              swap2\n              swap1\n              tag_60\n              jump\t// in\n            tag_78:\n              tag_79\n              jump\t// in\n            tag_77:\n              mload(0x40)\n              tag_80\n              swap5\n              swap4\n              swap3\n              swap2\n              swap1\n              tag_81\n              jump\t// in\n            tag_80:\n              mload(0x40)\n              dup1\n              swap2\n              sub\n              swap1\n              return\n                /* \"Story.sol\":1186:1237  mapping(address => bool) public chaptersForSolidity */\n            tag_14:\n              callvalue\n              dup1\n              iszero\n              tag_82\n              jumpi\n              0x00\n              dup1\n              revert\n            tag_82:\n              pop\n              tag_83\n              0x04\n              dup1\n              calldatasize\n              sub\n              dup2\n              add\n              swap1\n              tag_84\n              swap2\n              swap1\n              tag_40\n              jump\t// in\n            tag_84:\n              tag_85\n              jump\t// in\n            tag_83:\n              mload(0x40)\n              tag_86\n              swap2\n              swap1\n              tag_43\n              jump\t// in\n            tag_86:\n              mload(0x40)\n              dup1\n              swap2\n              sub\n              swap1\n              return\n                /* \"Story.sol\":1812:1832  address public owner */\n            tag_15:\n              callvalue\n              dup1\n              iszero\n              tag_87\n              jumpi\n              0x00\n              dup1\n              revert\n            tag_87:\n              pop\n              tag_88\n              tag_89\n              jump\t// in\n            tag_88:\n              mload(0x40)\n              tag_90\n              swap2\n              swap1\n              tag_91\n              jump\t// in\n            tag_90:\n              mload(0x40)\n              dup1\n              swap2\n              sub\n              swap1\n              return\n                /* \"Story.sol\":5024:6084  function approveRequestToJoin(uint256 _index) public noReentrancy {... */\n            tag_16:\n              callvalue\n              dup1\n              iszero\n              tag_92\n              jumpi\n              0x00\n              dup1\n              revert\n            tag_92:\n              pop\n              tag_93\n              0x04\n              dup1\n              calldatasize\n              sub\n              dup2\n              add\n              swap1\n              tag_94\n              swap2\n              swap1\n              tag_60\n              jump\t// in\n            tag_94:\n              tag_95\n              jump\t// in\n            tag_93:\n              stop\n                /* \"Story.sol\":6096:7366  function createChapter(string memory _title, string memory _ipfsHash, address _parentChapter, address _childChapter) public noReentrancy {... */\n            tag_17:\n              callvalue\n              dup1\n              iszero\n              tag_96\n              jumpi\n              0x00\n              dup1\n              revert\n            tag_96:\n              pop\n              tag_97\n              0x04\n              dup1\n              calldatasize\n              sub\n              dup2\n              add\n              swap1\n              tag_98\n              swap2\n              swap1\n              tag_99\n              jump\t// in\n            tag_98:\n              tag_100\n              jump\t// in\n            tag_97:\n              stop\n                /* \"Story.sol\":1143:1175  address[] public authorsForReact */\n            tag_18:\n              callvalue\n              dup1\n              iszero\n              tag_101\n              jumpi\n              0x00\n              dup1\n              revert\n            tag_101:\n              pop\n              tag_102\n              0x04\n              dup1\n              calldatasize\n              sub\n              dup2\n              add\n              swap1\n              tag_103\n              swap2\n              swap1\n              tag_60\n              jump\t// in\n            tag_103:\n              tag_104\n              jump\t// in\n            tag_102:\n              mload(0x40)\n              tag_105\n              swap2\n              swap1\n              tag_91\n              jump\t// in\n            tag_105:\n              mload(0x40)\n              dup1\n              swap2\n              sub\n              swap1\n              return\n                /* \"Story.sol\":1248:1281  address[] public chaptersForReact */\n            tag_19:\n              callvalue\n              dup1\n              iszero\n              tag_106\n              jumpi\n              0x00\n              dup1\n              revert\n            tag_106:\n              pop\n              tag_107\n              0x04\n              dup1\n              calldatasize\n              sub\n              dup2\n              add\n              swap1\n              tag_108\n              swap2\n              swap1\n              tag_60\n              jump\t// in\n            tag_108:\n              tag_109\n              jump\t// in\n            tag_107:\n              mload(0x40)\n              tag_110\n              swap2\n              swap1\n              tag_91\n              jump\t// in\n            tag_110:\n              mload(0x40)\n              dup1\n              swap2\n              sub\n              swap1\n              return\n                /* \"Story.sol\":894:918  string public coverPhoto */\n            tag_20:\n              callvalue\n              dup1\n              iszero\n              tag_111\n              jumpi\n              0x00\n              dup1\n              revert\n            tag_111:\n              pop\n              tag_112\n              tag_113\n              jump\t// in\n            tag_112:\n              mload(0x40)\n              tag_114\n              swap2\n              swap1\n              tag_33\n              jump\t// in\n            tag_114:\n              mload(0x40)\n              dup1\n              swap2\n              sub\n              swap1\n              return\n                /* \"Story.sol\":4525:5002  function createRequestToJoin(string memory _proposal) public noReentrancy {... */\n            tag_21:\n              callvalue\n              dup1\n              iszero\n              tag_115\n              jumpi\n              0x00\n              dup1\n              revert\n            tag_115:\n              pop\n              tag_116\n              0x04\n              dup1\n              calldatasize\n              sub\n              dup2\n              add\n              swap1\n              tag_117\n              swap2\n              swap1\n              tag_118\n              jump\t// in\n            tag_117:\n              tag_119\n              jump\t// in\n            tag_116:\n              stop\n                /* \"Story.sol\":861:883  string public mainIdea */\n            tag_22:\n              callvalue\n              dup1\n              iszero\n              tag_120\n              jumpi\n              0x00\n              dup1\n              revert\n            tag_120:\n              pop\n              tag_121\n              tag_122\n              jump\t// in\n            tag_121:\n              mload(0x40)\n              tag_123\n              swap2\n              swap1\n              tag_33\n              jump\t// in\n            tag_123:\n              mload(0x40)\n              dup1\n              swap2\n              sub\n              swap1\n              return\n                /* \"Story.sol\":960:986  uint public reportersCount */\n            tag_23:\n              callvalue\n              dup1\n              iszero\n              tag_124\n              jumpi\n              0x00\n              dup1\n              revert\n            tag_124:\n              pop\n              tag_125\n              tag_126\n              jump\t// in\n            tag_125:\n              mload(0x40)\n              tag_127\n              swap2\n              swap1\n              tag_128\n              jump\t// in\n            tag_127:\n              mload(0x40)\n              dup1\n              swap2\n              sub\n              swap1\n              return\n                /* \"Story.sol\":2442:2815  function createRequestToBuy() public payable noReentrancy { //make price in wei... */\n            tag_28:\n                /* \"Story.sol\":1924:1931  _locked */\n              0x04\n              0x00\n              swap1\n              sload\n              swap1\n              0x0100\n              exp\n              swap1\n              div\n              0xff\n              and\n                /* \"Story.sol\":1923:1931  !_locked */\n              iszero\n                /* \"Story.sol\":1915:1950  require(!_locked, \"Reentrant call\") */\n              tag_130\n              jumpi\n              mload(0x40)\n              0x08c379a000000000000000000000000000000000000000000000000000000000\n              dup2\n              mstore\n              0x04\n              add\n              tag_131\n              swap1\n              tag_132\n              jump\t// in\n            tag_131:\n              mload(0x40)\n              dup1\n              swap2\n              sub\n              swap1\n              revert\n            tag_130:\n                /* \"Story.sol\":1975:1979  true */\n              0x01\n                /* \"Story.sol\":1965:1972  _locked */\n              0x04\n              0x00\n                /* \"Story.sol\":1965:1979  _locked = true */\n              0x0100\n              exp\n              dup2\n              sload\n              dup2\n              0xff\n              mul\n              not\n              and\n              swap1\n              dup4\n              iszero\n              iszero\n              mul\n              or\n              swap1\n              sstore\n              pop\n                /* \"Story.sol\":2544:2550  bought */\n              0x0e\n              0x14\n              swap1\n              sload\n              swap1\n              0x0100\n              exp\n              swap1\n              div\n              0xff\n              and\n                /* \"Story.sol\":2543:2550  !bought */\n              iszero\n                /* \"Story.sol\":2535:2581  require(!bought, \"This story has been bought\") */\n              tag_134\n              jumpi\n              mload(0x40)\n              0x08c379a000000000000000000000000000000000000000000000000000000000\n              dup2\n              mstore\n              0x04\n              add\n              tag_135\n              swap1\n              tag_136\n              jump\t// in\n            tag_135:\n              mload(0x40)\n              dup1\n              swap2\n              sub\n              swap1\n              revert\n            tag_134:\n                /* \"Story.sol\":2605:2613  reported */\n              0x06\n              0x00\n              swap1\n              sload\n              swap1\n              0x0100\n              exp\n              swap1\n              div\n              0xff\n              and\n                /* \"Story.sol\":2604:2613  !reported */\n              iszero\n                /* \"Story.sol\":2596:2646  require(!reported, \"This story has been reported\") */\n              tag_137\n              jumpi\n              mload(0x40)\n              0x08c379a000000000000000000000000000000000000000000000000000000000\n              dup2\n              mstore\n              0x04\n              add\n              tag_138\n              swap1\n              tag_139\n              jump\t// in\n            tag_138:\n              mload(0x40)\n              dup1\n              swap2\n              sub\n              swap1\n              revert\n            tag_137:\n                /* \"Story.sol\":2661:2692  RequestToBuy storage newRequest */\n              0x00\n                /* \"Story.sol\":2695:2708  requestsToBuy */\n              0x0d\n                /* \"Story.sol\":2695:2715  requestsToBuy.push() */\n              0x01\n              dup2\n              0x01\n              dup2\n              sload\n              add\n              dup1\n              dup3\n              sstore\n              dup1\n              swap2\n              pop\n              pop\n              sub\n              swap1\n              0x00\n              mstore\n              keccak256(0x00, 0x20)\n              swap1\n              0x05\n              mul\n              add\n                /* \"Story.sol\":2661:2715  RequestToBuy storage newRequest = requestsToBuy.push() */\n              swap1\n              pop\n                /* \"Story.sol\":2749:2758  msg.value */\n              callvalue\n                /* \"Story.sol\":2730:2740  newRequest */\n              dup2\n                /* \"Story.sol\":2730:2746  newRequest.price */\n              0x00\n              add\n                /* \"Story.sol\":2730:2758  newRequest.price = msg.value */\n              dup2\n              swap1\n              sstore\n              pop\n                /* \"Story.sol\":2793:2803  msg.sender */\n              caller\n                /* \"Story.sol\":2773:2783  newRequest */\n              dup2\n                /* \"Story.sol\":2773:2790  newRequest.bidder */\n              0x01\n              add\n              0x00\n                /* \"Story.sol\":2773:2803  newRequest.bidder = msg.sender */\n              0x0100\n              exp\n              dup2\n              sload\n              dup2\n              0xffffffffffffffffffffffffffffffffffffffff\n              mul\n              not\n              and\n              swap1\n              dup4\n              0xffffffffffffffffffffffffffffffffffffffff\n              and\n              mul\n              or\n              swap1\n              sstore\n              pop\n                /* \"Story.sol\":2500:2815  { //make price in wei... */\n              pop\n                /* \"Story.sol\":2020:2025  false */\n              0x00\n                /* \"Story.sol\":2010:2017  _locked */\n              0x04\n              0x00\n                /* \"Story.sol\":2010:2025  _locked = false */\n              0x0100\n              exp\n              dup2\n              sload\n              dup2\n              0xff\n              mul\n              not\n              and\n              swap1\n              dup4\n              iszero\n              iszero\n              mul\n              or\n              swap1\n              sstore\n              pop\n                /* \"Story.sol\":2442:2815  function createRequestToBuy() public payable noReentrancy { //make price in wei... */\n              jump\t// out\n                /* \"Story.sol\":831:850  string public genre */\n            tag_31:\n              0x01\n              dup1\n              sload\n              tag_141\n              swap1\n              tag_142\n              jump\t// in\n            tag_141:\n              dup1\n              0x1f\n              add\n              0x20\n              dup1\n              swap2\n              div\n              mul\n              0x20\n              add\n              mload(0x40)\n              swap1\n              dup2\n              add\n              0x40\n              mstore\n              dup1\n              swap3\n              swap2\n              swap1\n              dup2\n              dup2\n              mstore\n              0x20\n              add\n              dup3\n              dup1\n              sload\n              tag_143\n              swap1\n              tag_142\n              jump\t// in\n            tag_143:\n              dup1\n              iszero\n              tag_144\n              jumpi\n              dup1\n              0x1f\n              lt\n              tag_145\n              jumpi\n              0x0100\n              dup1\n              dup4\n              sload\n              div\n              mul\n              dup4\n              mstore\n              swap2\n              0x20\n              add\n              swap2\n              jump(tag_144)\n            tag_145:\n              dup3\n              add\n              swap2\n              swap1\n              0x00\n              mstore\n              keccak256(0x00, 0x20)\n              swap1\n            tag_146:\n              dup2\n              sload\n              dup2\n              mstore\n              swap1\n              0x01\n              add\n              swap1\n              0x20\n              add\n              dup1\n              dup4\n              gt\n              tag_146\n              jumpi\n              dup3\n              swap1\n              sub\n              0x1f\n              and\n              dup3\n              add\n              swap2\n            tag_144:\n              pop\n              pop\n              pop\n              pop\n              pop\n              dup2\n              jump\t// out\n                /* \"Story.sol\":7380:7765  function report() public noReentrancy {... */\n            tag_36:\n                /* \"Story.sol\":1924:1931  _locked */\n              0x04\n              0x00\n              swap1\n              sload\n              swap1\n              0x0100\n              exp\n              swap1\n              div\n              0xff\n              and\n                /* \"Story.sol\":1923:1931  !_locked */\n              iszero\n                /* \"Story.sol\":1915:1950  require(!_locked, \"Reentrant call\") */\n              tag_148\n              jumpi\n              mload(0x40)\n              0x08c379a000000000000000000000000000000000000000000000000000000000\n              dup2\n              mstore\n              0x04\n              add\n              tag_149\n              swap1\n              tag_132\n              jump\t// in\n            tag_149:\n              mload(0x40)\n              dup1\n              swap2\n              sub\n              swap1\n              revert\n            tag_148:\n                /* \"Story.sol\":1975:1979  true */\n              0x01\n                /* \"Story.sol\":1965:1972  _locked */\n              0x04\n              0x00\n                /* \"Story.sol\":1965:1979  _locked = true */\n              0x0100\n              exp\n              dup2\n              sload\n              dup2\n              0xff\n              mul\n              not\n              and\n              swap1\n              dup4\n              iszero\n              iszero\n              mul\n              or\n              swap1\n              sstore\n              pop\n                /* \"Story.sol\":7442:7450  reported */\n              0x06\n              0x00\n              swap1\n              sload\n              swap1\n              0x0100\n              exp\n              swap1\n              div\n              0xff\n              and\n                /* \"Story.sol\":7441:7450  !reported */\n              iszero\n                /* \"Story.sol\":7433:7483  require(!reported, \"This story has been reported\") */\n              tag_151\n              jumpi\n              mload(0x40)\n              0x08c379a000000000000000000000000000000000000000000000000000000000\n              dup2\n              mstore\n              0x04\n              add\n              tag_152\n              swap1\n              tag_139\n              jump\t// in\n            tag_152:\n              mload(0x40)\n              dup1\n              swap2\n              sub\n              swap1\n              revert\n            tag_151:\n                /* \"Story.sol\":7507:7516  reporters */\n              0x07\n                /* \"Story.sol\":7507:7528  reporters[msg.sender] */\n              0x00\n                /* \"Story.sol\":7517:7527  msg.sender */\n              caller\n                /* \"Story.sol\":7507:7528  reporters[msg.sender] */\n              0xffffffffffffffffffffffffffffffffffffffff\n              and\n              0xffffffffffffffffffffffffffffffffffffffff\n              and\n              dup2\n              mstore\n              0x20\n              add\n              swap1\n              dup2\n              mstore\n              0x20\n              add\n              0x00\n              keccak256\n              0x00\n              swap1\n              sload\n              swap1\n              0x0100\n              exp\n              swap1\n              div\n              0xff\n              and\n                /* \"Story.sol\":7506:7528  !reporters[msg.sender] */\n              iszero\n                /* \"Story.sol\":7498:7568  require(!reporters[msg.sender], \"You have reported this story before\") */\n              tag_153\n              jumpi\n              mload(0x40)\n              0x08c379a000000000000000000000000000000000000000000000000000000000\n              dup2\n              mstore\n              0x04\n              add\n              tag_154\n              swap1\n              tag_155\n              jump\t// in\n            tag_154:\n              mload(0x40)\n              dup1\n              swap2\n              sub\n              swap1\n              revert\n            tag_153:\n                /* \"Story.sol\":7583:7597  reportersCount */\n              0x05\n              0x00\n                /* \"Story.sol\":7583:7599  reportersCount++ */\n              dup2\n              sload\n              dup1\n              swap3\n              swap2\n              swap1\n              tag_156\n              swap1\n              tag_157\n              jump\t// in\n            tag_156:\n              swap2\n              swap1\n              pop\n              sstore\n              pop\n                /* \"Story.sol\":7638:7642  true */\n              0x01\n                /* \"Story.sol\":7614:7623  reporters */\n              0x07\n                /* \"Story.sol\":7614:7635  reporters[msg.sender] */\n              0x00\n                /* \"Story.sol\":7624:7634  msg.sender */\n              caller\n                /* \"Story.sol\":7614:7635  reporters[msg.sender] */\n              0xffffffffffffffffffffffffffffffffffffffff\n              and\n              0xffffffffffffffffffffffffffffffffffffffff\n              and\n              dup2\n              mstore\n              0x20\n              add\n              swap1\n              dup2\n              mstore\n              0x20\n              add\n              0x00\n              keccak256\n              0x00\n                /* \"Story.sol\":7614:7642  reporters[msg.sender] = true */\n              0x0100\n              exp\n              dup2\n              sload\n              dup2\n              0xff\n              mul\n              not\n              and\n              swap1\n              dup4\n              iszero\n              iszero\n              mul\n              or\n              swap1\n              sstore\n              pop\n                /* \"Story.sol\":7680:7683  100 */\n              0x64\n                /* \"Story.sol\":7663:7677  reportersCount */\n              sload(0x05)\n                /* \"Story.sol\":7663:7683  reportersCount > 100 */\n              gt\n                /* \"Story.sol\":7659:7754  if (reportersCount > 100) { //arbitrary number... */\n              iszero\n              tag_158\n              jumpi\n                /* \"Story.sol\":7734:7738  true */\n              0x01\n                /* \"Story.sol\":7723:7731  reported */\n              0x06\n              0x00\n                /* \"Story.sol\":7723:7738  reported = true */\n              0x0100\n              exp\n              dup2\n              sload\n              dup2\n              0xff\n              mul\n              not\n              and\n              swap1\n              dup4\n              iszero\n              iszero\n              mul\n              or\n              swap1\n              sstore\n              pop\n                /* \"Story.sol\":7659:7754  if (reportersCount > 100) { //arbitrary number... */\n            tag_158:\n                /* \"Story.sol\":2020:2025  false */\n              0x00\n                /* \"Story.sol\":2010:2017  _locked */\n              0x04\n              0x00\n                /* \"Story.sol\":2010:2025  _locked = false */\n              0x0100\n              exp\n              dup2\n              sload\n              dup2\n              0xff\n              mul\n              not\n              and\n              swap1\n              dup4\n              iszero\n              iszero\n              mul\n              or\n              swap1\n              sstore\n              pop\n                /* \"Story.sol\":7380:7765  function report() public noReentrancy {... */\n              jump\t// out\n                /* \"Story.sol\":1028:1069  mapping(address => bool) public reporters */\n            tag_41:\n              mstore(0x20, 0x07)\n              dup1\n              0x00\n              mstore\n              keccak256(0x00, 0x40)\n              0x00\n              swap2\n              pop\n              sload\n              swap1\n              0x0100\n              exp\n              swap1\n              div\n              0xff\n              and\n              dup2\n              jump\t// out\n                /* \"Story.sol\":1843:1861  bool public bought */\n            tag_46:\n              0x0e\n              0x14\n              swap1\n              sload\n              swap1\n              0x0100\n              exp\n              swap1\n              div\n              0xff\n              and\n              dup2\n              jump\t// out\n                /* \"Story.sol\":1082:1132  mapping(address => bool) public authorsForSolidity */\n            tag_51:\n              mstore(0x20, 0x08)\n              dup1\n              0x00\n              mstore\n              keccak256(0x00, 0x40)\n              0x00\n              swap2\n              pop\n              sload\n              swap1\n              0x0100\n              exp\n              swap1\n              div\n              0xff\n              and\n              dup2\n              jump\t// out\n                /* \"Story.sol\":7777:8379  function getSummary() public view returns (... */\n            tag_55:\n                /* \"Story.sol\":7834:7847  string memory */\n              0x60\n                /* \"Story.sol\":7849:7862  string memory */\n              dup1\n                /* \"Story.sol\":7864:7877  string memory */\n              0x60\n                /* \"Story.sol\":7879:7895  address[] memory */\n              dup1\n                /* \"Story.sol\":7897:7913  address[] memory */\n              0x60\n                /* \"Story.sol\":7915:7919  uint */\n              0x00\n                /* \"Story.sol\":7921:7925  uint */\n              dup1\n                /* \"Story.sol\":7927:7931  bool */\n              0x00\n                /* \"Story.sol\":7933:7946  string memory */\n              0x60\n                /* \"Story.sol\":7948:7952  uint */\n              0x00\n                /* \"Story.sol\":7954:7958  bool */\n              dup1\n                /* \"Story.sol\":7960:7967  address */\n              0x00\n                /* \"Story.sol\":8010:8015  title */\n              dup1\n                /* \"Story.sol\":8034:8039  genre */\n              0x01\n                /* \"Story.sol\":8058:8066  mainIdea */\n              0x02\n                /* \"Story.sol\":8085:8100  authorsForReact */\n              0x09\n                /* \"Story.sol\":8119:8135  chaptersForReact */\n              0x0b\n                /* \"Story.sol\":8154:8168  requestsToJoin */\n              0x0c\n                /* \"Story.sol\":8154:8175  requestsToJoin.length */\n              dup1\n              sload\n              swap1\n              pop\n                /* \"Story.sol\":8194:8208  reportersCount */\n              sload(0x05)\n                /* \"Story.sol\":8227:8235  reported */\n              0x06\n              0x00\n              swap1\n              sload\n              swap1\n              0x0100\n              exp\n              swap1\n              div\n              0xff\n              and\n                /* \"Story.sol\":8254:8264  coverPhoto */\n              0x03\n                /* \"Story.sol\":8283:8296  requestsToBuy */\n              0x0d\n                /* \"Story.sol\":8283:8303  requestsToBuy.length */\n              dup1\n              sload\n              swap1\n              pop\n                /* \"Story.sol\":8322:8328  bought */\n              0x0e\n              0x14\n              swap1\n              sload\n              swap1\n              0x0100\n              exp\n              swap1\n              div\n              0xff\n              and\n                /* \"Story.sol\":8347:8352  owner */\n              0x0e\n              0x00\n              swap1\n              sload\n              swap1\n              0x0100\n              exp\n              swap1\n              div\n              0xffffffffffffffffffffffffffffffffffffffff\n              and\n                /* \"Story.sol\":7984:8367  return (... */\n              dup12\n              dup1\n              sload\n              tag_160\n              swap1\n              tag_142\n              jump\t// in\n            tag_160:\n              dup1\n              0x1f\n              add\n              0x20\n              dup1\n              swap2\n              div\n              mul\n              0x20\n              add\n              mload(0x40)\n              swap1\n              dup2\n              add\n              0x40\n              mstore\n              dup1\n              swap3\n              swap2\n              swap1\n              dup2\n              dup2\n              mstore\n              0x20\n              add\n              dup3\n              dup1\n              sload\n              tag_161\n              swap1\n              tag_142\n              jump\t// in\n            tag_161:\n              dup1\n              iszero\n              tag_162\n              jumpi\n              dup1\n              0x1f\n              lt\n              tag_163\n              jumpi\n              0x0100\n              dup1\n              dup4\n              sload\n              div\n              mul\n              dup4\n              mstore\n              swap2\n              0x20\n              add\n              swap2\n              jump(tag_162)\n            tag_163:\n              dup3\n              add\n              swap2\n              swap1\n              0x00\n              mstore\n              keccak256(0x00, 0x20)\n              swap1\n            tag_164:\n              dup2\n              sload\n              dup2\n              mstore\n              swap1\n              0x01\n              add\n              swap1\n              0x20\n              add\n              dup1\n              dup4\n              gt\n              tag_164\n              jumpi\n              dup3\n              swap1\n              sub\n              0x1f\n              and\n              dup3\n              add\n              swap2\n            tag_162:\n              pop\n              pop\n              pop\n              pop\n              pop\n              swap12\n              pop\n              dup11\n              dup1\n              sload\n              tag_165\n              swap1\n              tag_142\n              jump\t// in\n            tag_165:\n              dup1\n              0x1f\n              add\n              0x20\n              dup1\n              swap2\n              div\n              mul\n              0x20\n              add\n              mload(0x40)\n              swap1\n              dup2\n              add\n              0x40\n              mstore\n              dup1\n              swap3\n              swap2\n              swap1\n              dup2\n              dup2\n              mstore\n              0x20\n              add\n              dup3\n              dup1\n              sload\n              tag_166\n              swap1\n              tag_142\n              jump\t// in\n            tag_166:\n              dup1\n              iszero\n              tag_167\n              jumpi\n              dup1\n              0x1f\n              lt\n              tag_168\n              jumpi\n              0x0100\n              dup1\n              dup4\n              sload\n              div\n              mul\n              dup4\n              mstore\n              swap2\n              0x20\n              add\n              swap2\n              jump(tag_167)\n            tag_168:\n              dup3\n              add\n              swap2\n              swap1\n              0x00\n              mstore\n              keccak256(0x00, 0x20)\n              swap1\n            tag_169:\n              dup2\n              sload\n              dup2\n              mstore\n              swap1\n              0x01\n              add\n              swap1\n              0x20\n              add\n              dup1\n              dup4\n              gt\n              tag_169\n              jumpi\n              dup3\n              swap1\n              sub\n              0x1f\n              and\n              dup3\n              add\n              swap2\n            tag_167:\n              pop\n              pop\n              pop\n              pop\n              pop\n              swap11\n              pop\n              dup10\n              dup1\n              sload\n              tag_170\n              swap1\n              tag_142\n              jump\t// in\n            tag_170:\n              dup1\n              0x1f\n              add\n              0x20\n              dup1\n              swap2\n              div\n              mul\n              0x20\n              add\n              mload(0x40)\n              swap1\n              dup2\n              add\n              0x40\n              mstore\n              dup1\n              swap3\n              swap2\n              swap1\n              dup2\n              dup2\n              mstore\n              0x20\n              add\n              dup3\n              dup1\n              sload\n              tag_171\n              swap1\n              tag_142\n              jump\t// in\n            tag_171:\n              dup1\n              iszero\n              tag_172\n              jumpi\n              dup1\n              0x1f\n              lt\n              tag_173\n              jumpi\n              0x0100\n              dup1\n              dup4\n              sload\n              div\n              mul\n              dup4\n              mstore\n              swap2\n              0x20\n              add\n              swap2\n              jump(tag_172)\n            tag_173:\n              dup3\n              add\n              swap2\n              swap1\n              0x00\n              mstore\n              keccak256(0x00, 0x20)\n              swap1\n            tag_174:\n              dup2\n              sload\n              dup2\n              mstore\n              swap1\n              0x01\n              add\n              swap1\n              0x20\n              add\n              dup1\n              dup4\n              gt\n              tag_174\n              jumpi\n              dup3\n              swap1\n              sub\n              0x1f\n              and\n              dup3\n              add\n              swap2\n            tag_172:\n              pop\n              pop\n              pop\n              pop\n              pop\n              swap10\n              pop\n              dup9\n              dup1\n              sload\n              dup1\n              0x20\n              mul\n              0x20\n              add\n              mload(0x40)\n              swap1\n              dup2\n              add\n              0x40\n              mstore\n              dup1\n              swap3\n              swap2\n              swap1\n              dup2\n              dup2\n              mstore\n              0x20\n              add\n              dup3\n              dup1\n              sload\n              dup1\n              iszero\n              tag_175\n              jumpi\n              0x20\n              mul\n              dup3\n              add\n              swap2\n              swap1\n              0x00\n              mstore\n              keccak256(0x00, 0x20)\n              swap1\n            tag_176:\n              dup2\n              0x00\n              swap1\n              sload\n              swap1\n              0x0100\n              exp\n              swap1\n              div\n              0xffffffffffffffffffffffffffffffffffffffff\n              and\n              0xffffffffffffffffffffffffffffffffffffffff\n              and\n              dup2\n              mstore\n              0x20\n              add\n              swap1\n              0x01\n              add\n              swap1\n              dup1\n              dup4\n              gt\n              tag_176\n              jumpi\n            tag_175:\n              pop\n              pop\n              pop\n              pop\n              pop\n              swap9\n              pop\n              dup8\n              dup1\n              sload\n              dup1\n              0x20\n              mul\n              0x20\n              add\n              mload(0x40)\n              swap1\n              dup2\n              add\n              0x40\n              mstore\n              dup1\n              swap3\n              swap2\n              swap1\n              dup2\n              dup2\n              mstore\n              0x20\n              add\n              dup3\n              dup1\n              sload\n              dup1\n              iszero\n              tag_177\n              jumpi\n              0x20\n              mul\n              dup3\n              add\n              swap2\n              swap1\n              0x00\n              mstore\n              keccak256(0x00, 0x20)\n              swap1\n            tag_178:\n              dup2\n              0x00\n              swap1\n              sload\n              swap1\n              0x0100\n              exp\n              swap1\n              div\n              0xffffffffffffffffffffffffffffffffffffffff\n              and\n              0xffffffffffffffffffffffffffffffffffffffff\n              and\n              dup2\n              mstore\n              0x20\n              add\n              swap1\n              0x01\n              add\n              swap1\n              dup1\n              dup4\n              gt\n              tag_178\n              jumpi\n            tag_177:\n              pop\n              pop\n              pop\n              pop\n              pop\n              swap8\n              pop\n              dup4\n              dup1\n              sload\n              tag_179\n              swap1\n              tag_142\n              jump\t// in\n            tag_179:\n              dup1\n              0x1f\n              add\n              0x20\n              dup1\n              swap2\n              div\n              mul\n              0x20\n              add\n              mload(0x40)\n              swap1\n              dup2\n              add\n              0x40\n              mstore\n              dup1\n              swap3\n              swap2\n              swap1\n              dup2\n              dup2\n              mstore\n              0x20\n              add\n              dup3\n              dup1\n              sload\n              tag_180\n              swap1\n              tag_142\n              jump\t// in\n            tag_180:\n              dup1\n              iszero\n              tag_181\n              jumpi\n              dup1\n              0x1f\n              lt\n              tag_182\n              jumpi\n              0x0100\n              dup1\n              dup4\n              sload\n              div\n              mul\n              dup4\n              mstore\n              swap2\n              0x20\n              add\n              swap2\n              jump(tag_181)\n            tag_182:\n              dup3\n              add\n              swap2\n              swap1\n              0x00\n              mstore\n              keccak256(0x00, 0x20)\n              swap1\n            tag_183:\n              dup2\n              sload\n              dup2\n              mstore\n              swap1\n              0x01\n              add\n              swap1\n              0x20\n              add\n              dup1\n              dup4\n              gt\n              tag_183\n              jumpi\n              dup3\n              swap1\n              sub\n              0x1f\n              and\n              dup3\n              add\n              swap2\n            tag_181:\n              pop\n              pop\n              pop\n              pop\n              pop\n              swap4\n              pop\n              swap12\n              pop\n              swap12\n              pop\n              swap12\n              pop\n              swap12\n              pop\n              swap12\n              pop\n              swap12\n              pop\n              swap12\n              pop\n              swap12\n              pop\n              swap12\n              pop\n              swap12\n              pop\n              swap12\n              pop\n              swap12\n              pop\n                /* \"Story.sol\":7777:8379  function getSummary() public view returns (... */\n              swap1\n              swap2\n              swap3\n              swap4\n              swap5\n              swap6\n              swap7\n              swap8\n              swap9\n              swap10\n              swap11\n              swap12\n              jump\t// out\n                /* \"Story.sol\":2825:4512  function approveRequestToBuy(uint256 _index) public payable noReentrancy {... */\n            tag_61:\n                /* \"Story.sol\":1924:1931  _locked */\n              0x04\n              0x00\n              swap1\n              sload\n              swap1\n              0x0100\n              exp\n              swap1\n              div\n              0xff\n              and\n                /* \"Story.sol\":1923:1931  !_locked */\n              iszero\n                /* \"Story.sol\":1915:1950  require(!_locked, \"Reentrant call\") */\n              tag_185\n              jumpi\n              mload(0x40)\n              0x08c379a000000000000000000000000000000000000000000000000000000000\n              dup2\n              mstore\n              0x04\n              add\n              tag_186\n              swap1\n              tag_132\n              jump\t// in\n            tag_186:\n              mload(0x40)\n              dup1\n              swap2\n              sub\n              swap1\n              revert\n            tag_185:\n                /* \"Story.sol\":1975:1979  true */\n              0x01\n                /* \"Story.sol\":1965:1972  _locked */\n              0x04\n              0x00\n                /* \"Story.sol\":1965:1979  _locked = true */\n              0x0100\n              exp\n              dup2\n              sload\n              dup2\n              0xff\n              mul\n              not\n              and\n              swap1\n              dup4\n              iszero\n              iszero\n              mul\n              or\n              swap1\n              sstore\n              pop\n                /* \"Story.sol\":2922:2928  bought */\n              0x0e\n              0x14\n              swap1\n              sload\n              swap1\n              0x0100\n              exp\n              swap1\n              div\n              0xff\n              and\n                /* \"Story.sol\":2921:2928  !bought */\n              iszero\n                /* \"Story.sol\":2913:2959  require(!bought, \"This story has been bought\") */\n              tag_188\n              jumpi\n              mload(0x40)\n              0x08c379a000000000000000000000000000000000000000000000000000000000\n              dup2\n              mstore\n              0x04\n              add\n              tag_189\n              swap1\n              tag_136\n              jump\t// in\n            tag_189:\n              mload(0x40)\n              dup1\n              swap2\n              sub\n              swap1\n              revert\n            tag_188:\n                /* \"Story.sol\":2983:2991  reported */\n              0x06\n              0x00\n              swap1\n              sload\n              swap1\n              0x0100\n              exp\n              swap1\n              div\n              0xff\n              and\n                /* \"Story.sol\":2982:2991  !reported */\n              iszero\n                /* \"Story.sol\":2974:3024  require(!reported, \"This story has been reported\") */\n              tag_190\n              jumpi\n              mload(0x40)\n              0x08c379a000000000000000000000000000000000000000000000000000000000\n              dup2\n              mstore\n              0x04\n              add\n              tag_191\n              swap1\n              tag_139\n              jump\t// in\n            tag_191:\n              mload(0x40)\n              dup1\n              swap2\n              sub\n              swap1\n              revert\n            tag_190:\n                /* \"Story.sol\":3047:3065  authorsForSolidity */\n              0x08\n                /* \"Story.sol\":3047:3077  authorsForSolidity[msg.sender] */\n              0x00\n                /* \"Story.sol\":3066:3076  msg.sender */\n              caller\n                /* \"Story.sol\":3047:3077  authorsForSolidity[msg.sender] */\n              0xffffffffffffffffffffffffffffffffffffffff\n              and\n              0xffffffffffffffffffffffffffffffffffffffff\n              and\n              dup2\n              mstore\n              0x20\n              add\n              swap1\n              dup2\n              mstore\n              0x20\n              add\n              0x00\n              keccak256\n              0x00\n              swap1\n              sload\n              swap1\n              0x0100\n              exp\n              swap1\n              div\n              0xff\n              and\n                /* \"Story.sol\":3039:3127  require(authorsForSolidity[msg.sender], \"Only an accepted author can approve a request\") */\n              tag_192\n              jumpi\n              mload(0x40)\n              0x08c379a000000000000000000000000000000000000000000000000000000000\n              dup2\n              mstore\n              0x04\n              add\n              tag_193\n              swap1\n              tag_194\n              jump\t// in\n            tag_193:\n              mload(0x40)\n              dup1\n              swap2\n              sub\n              swap1\n              revert\n            tag_192:\n                /* \"Story.sol\":3144:3172  RequestToBuy storage request */\n              0x00\n                /* \"Story.sol\":3175:3188  requestsToBuy */\n              0x0d\n                /* \"Story.sol\":3189:3195  _index */\n              dup3\n                /* \"Story.sol\":3175:3196  requestsToBuy[_index] */\n              dup2\n              sload\n              dup2\n              lt\n              tag_195\n              jumpi\n              tag_196\n              tag_197\n              jump\t// in\n            tag_196:\n            tag_195:\n              swap1\n              0x00\n              mstore\n              keccak256(0x00, 0x20)\n              swap1\n              0x05\n              mul\n              add\n                /* \"Story.sol\":3144:3196  RequestToBuy storage request = requestsToBuy[_index] */\n              swap1\n              pop\n                /* \"Story.sol\":3222:3229  request */\n              dup1\n                /* \"Story.sol\":3222:3239  request.approvers */\n              0x02\n              add\n                /* \"Story.sol\":3222:3251  request.approvers[msg.sender] */\n              0x00\n                /* \"Story.sol\":3240:3250  msg.sender */\n              caller\n                /* \"Story.sol\":3222:3251  request.approvers[msg.sender] */\n              0xffffffffffffffffffffffffffffffffffffffff\n              and\n              0xffffffffffffffffffffffffffffffffffffffff\n              and\n              dup2\n              mstore\n              0x20\n              add\n              swap1\n              dup2\n              mstore\n              0x20\n              add\n              0x00\n              keccak256\n              0x00\n              swap1\n              sload\n              swap1\n              0x0100\n              exp\n              swap1\n              div\n              0xff\n              and\n                /* \"Story.sol\":3221:3251  !request.approvers[msg.sender] */\n              iszero\n                /* \"Story.sol\":3213:3291  require(!request.approvers[msg.sender], \"This author already approved before\") */\n              tag_199\n              jumpi\n              mload(0x40)\n              0x08c379a000000000000000000000000000000000000000000000000000000000\n              dup2\n              mstore\n              0x04\n              add\n              tag_200\n              swap1\n              tag_201\n              jump\t// in\n            tag_200:\n              mload(0x40)\n              dup1\n              swap2\n              sub\n              swap1\n              revert\n            tag_199:\n                /* \"Story.sol\":3315:3322  request */\n              dup1\n                /* \"Story.sol\":3315:3329  request.status */\n              0x04\n              add\n              0x00\n              swap1\n              sload\n              swap1\n              0x0100\n              exp\n              swap1\n              div\n              0xff\n              and\n                /* \"Story.sol\":3314:3329  !request.status */\n              iszero\n                /* \"Story.sol\":3306:3379  require(!request.status, \"This request has already been approved before\") */\n              tag_202\n              jumpi\n              mload(0x40)\n              0x08c379a000000000000000000000000000000000000000000000000000000000\n              dup2\n              mstore\n              0x04\n              add\n              tag_203\n              swap1\n              tag_204\n              jump\t// in\n            tag_203:\n              mload(0x40)\n              dup1\n              swap2\n              sub\n              swap1\n              revert\n            tag_202:\n                /* \"Story.sol\":3428:3432  true */\n              0x01\n                /* \"Story.sol\":3396:3403  request */\n              dup2\n                /* \"Story.sol\":3396:3413  request.approvers */\n              0x02\n              add\n                /* \"Story.sol\":3396:3425  request.approvers[msg.sender] */\n              0x00\n                /* \"Story.sol\":3414:3424  msg.sender */\n              caller\n                /* \"Story.sol\":3396:3425  request.approvers[msg.sender] */\n              0xffffffffffffffffffffffffffffffffffffffff\n              and\n              0xffffffffffffffffffffffffffffffffffffffff\n              and\n              dup2\n              mstore\n              0x20\n              add\n              swap1\n              dup2\n              mstore\n              0x20\n              add\n              0x00\n              keccak256\n              0x00\n                /* \"Story.sol\":3396:3432  request.approvers[msg.sender] = true */\n              0x0100\n              exp\n              dup2\n              sload\n              dup2\n              0xff\n              mul\n              not\n              and\n              swap1\n              dup4\n              iszero\n              iszero\n              mul\n              or\n              swap1\n              sstore\n              pop\n                /* \"Story.sol\":3497:3498  1 */\n              0x01\n                /* \"Story.sol\":3472:3479  request */\n              dup2\n                /* \"Story.sol\":3472:3494  request.approversCount */\n              0x03\n              add\n              sload\n                /* \"Story.sol\":3472:3498  request.approversCount + 1 */\n              tag_205\n              swap2\n              swap1\n              tag_206\n              jump\t// in\n            tag_205:\n                /* \"Story.sol\":3447:3454  request */\n              dup2\n                /* \"Story.sol\":3447:3469  request.approversCount */\n              0x03\n              add\n                /* \"Story.sol\":3447:3498  request.approversCount = request.approversCount + 1 */\n              dup2\n              swap1\n              sstore\n              pop\n                /* \"Story.sol\":3640:3641  2 */\n              0x02\n                /* \"Story.sol\":3615:3630  authorsForReact */\n              0x09\n                /* \"Story.sol\":3615:3637  authorsForReact.length */\n              dup1\n              sload\n              swap1\n              pop\n                /* \"Story.sol\":3615:3641  authorsForReact.length / 2 */\n              tag_207\n              swap2\n              swap1\n              tag_208\n              jump\t// in\n            tag_207:\n                /* \"Story.sol\":3589:3596  request */\n              dup2\n                /* \"Story.sol\":3589:3611  request.approversCount */\n              0x03\n              add\n              sload\n                /* \"Story.sol\":3589:3642  request.approversCount > (authorsForReact.length / 2) */\n              gt\n                /* \"Story.sol\":3585:4487  if (request.approversCount > (authorsForReact.length / 2) ) {... */\n              iszero\n              tag_209\n              jumpi\n                /* \"Story.sol\":3681:3685  true */\n              0x01\n                /* \"Story.sol\":3664:3671  request */\n              dup2\n                /* \"Story.sol\":3664:3678  request.status */\n              0x04\n              add\n              0x00\n                /* \"Story.sol\":3664:3685  request.status = true */\n              0x0100\n              exp\n              dup2\n              sload\n              dup2\n              0xff\n              mul\n              not\n              and\n              swap1\n              dup4\n              iszero\n              iszero\n              mul\n              or\n              swap1\n              sstore\n              pop\n                /* \"Story.sol\":3712:3719  request */\n              dup1\n                /* \"Story.sol\":3712:3726  request.bidder */\n              0x01\n              add\n              0x00\n              swap1\n              sload\n              swap1\n              0x0100\n              exp\n              swap1\n              div\n              0xffffffffffffffffffffffffffffffffffffffff\n              and\n                /* \"Story.sol\":3704:3709  owner */\n              0x0e\n              0x00\n                /* \"Story.sol\":3704:3726  owner = request.bidder */\n              0x0100\n              exp\n              dup2\n              sload\n              dup2\n              0xffffffffffffffffffffffffffffffffffffffff\n              mul\n              not\n              and\n              swap1\n              dup4\n              0xffffffffffffffffffffffffffffffffffffffff\n              and\n              mul\n              or\n              swap1\n              sstore\n              pop\n                /* \"Story.sol\":3754:3758  true */\n              0x01\n                /* \"Story.sol\":3745:3751  bought */\n              0x0e\n              0x14\n                /* \"Story.sol\":3745:3758  bought = true */\n              0x0100\n              exp\n              dup2\n              sload\n              dup2\n              0xff\n              mul\n              not\n              and\n              swap1\n              dup4\n              iszero\n              iszero\n              mul\n              or\n              swap1\n              sstore\n              pop\n                /* \"Story.sol\":3840:3863  uint256 amountPerAuthor */\n              0x00\n                /* \"Story.sol\":3882:3897  authorsForReact */\n              0x09\n                /* \"Story.sol\":3882:3904  authorsForReact.length */\n              dup1\n              sload\n              swap1\n              pop\n                /* \"Story.sol\":3866:3873  request */\n              dup3\n                /* \"Story.sol\":3866:3879  request.price */\n              0x00\n              add\n              sload\n                /* \"Story.sol\":3866:3904  request.price / authorsForReact.length */\n              tag_210\n              swap2\n              swap1\n              tag_208\n              jump\t// in\n            tag_210:\n                /* \"Story.sol\":3840:3904  uint256 amountPerAuthor = request.price / authorsForReact.length */\n              swap1\n              pop\n                /* \"Story.sol\":3923:3932  uint256 i */\n              0x00\n                /* \"Story.sol\":3955:4112  while (i < authorsForReact.length) {... */\n            tag_211:\n                /* \"Story.sol\":3966:3981  authorsForReact */\n              0x09\n                /* \"Story.sol\":3966:3988  authorsForReact.length */\n              dup1\n              sload\n              swap1\n              pop\n                /* \"Story.sol\":3962:3963  i */\n              dup2\n                /* \"Story.sol\":3962:3988  i < authorsForReact.length */\n              lt\n                /* \"Story.sol\":3955:4112  while (i < authorsForReact.length) {... */\n              iszero\n              tag_212\n              jumpi\n                /* \"Story.sol\":4021:4036  authorsForReact */\n              0x09\n                /* \"Story.sol\":4037:4038  i */\n              dup2\n                /* \"Story.sol\":4021:4039  authorsForReact[i] */\n              dup2\n              sload\n              dup2\n              lt\n              tag_213\n              jumpi\n              tag_214\n              tag_197\n              jump\t// in\n            tag_214:\n            tag_213:\n              swap1\n              0x00\n              mstore\n              keccak256(0x00, 0x20)\n              add\n              0x00\n              swap1\n              sload\n              swap1\n              0x0100\n              exp\n              swap1\n              div\n              0xffffffffffffffffffffffffffffffffffffffff\n              and\n                /* \"Story.sol\":4013:4049  payable(authorsForReact[i]).transfer */\n              0xffffffffffffffffffffffffffffffffffffffff\n              and\n                /* \"Story.sol\":4013:4066  payable(authorsForReact[i]).transfer(amountPerAuthor) */\n              0x08fc\n                /* \"Story.sol\":4050:4065  amountPerAuthor */\n              dup4\n                /* \"Story.sol\":4013:4066  payable(authorsForReact[i]).transfer(amountPerAuthor) */\n              swap1\n              dup2\n              iszero\n              mul\n              swap1\n              mload(0x40)\n              0x00\n              mload(0x40)\n              dup1\n              dup4\n              sub\n              dup2\n              dup6\n              dup9\n              dup9\n              call\n              swap4\n              pop\n              pop\n              pop\n              pop\n              iszero\n              dup1\n              iszero\n              tag_217\n              jumpi\n              returndatasize\n              0x00\n              dup1\n              returndatacopy\n              revert(0x00, returndatasize)\n            tag_217:\n              pop\n                /* \"Story.sol\":4089:4092  i++ */\n              dup1\n              dup1\n              tag_218\n              swap1\n              tag_157\n              jump\t// in\n            tag_218:\n              swap2\n              pop\n              pop\n                /* \"Story.sol\":3955:4112  while (i < authorsForReact.length) {... */\n              jump(tag_211)\n            tag_212:\n                /* \"Story.sol\":4179:4180  0 */\n              0x00\n                /* \"Story.sol\":4175:4180  i = 0 */\n              swap1\n              pop\n                /* \"Story.sol\":4199:4452  while (i < requestsToBuy.length){... */\n            tag_219:\n                /* \"Story.sol\":4210:4223  requestsToBuy */\n              0x0d\n                /* \"Story.sol\":4210:4230  requestsToBuy.length */\n              dup1\n              sload\n              swap1\n              pop\n                /* \"Story.sol\":4206:4207  i */\n              dup2\n                /* \"Story.sol\":4206:4230  i < requestsToBuy.length */\n              lt\n                /* \"Story.sol\":4199:4452  while (i < requestsToBuy.length){... */\n              iszero\n              tag_220\n              jumpi\n                /* \"Story.sol\":4284:4289  false */\n              0x00\n                /* \"Story.sol\":4257:4289  requestsToBuy[i].status == false */\n              iszero\n              iszero\n                /* \"Story.sol\":4257:4270  requestsToBuy */\n              0x0d\n                /* \"Story.sol\":4271:4272  i */\n              dup3\n                /* \"Story.sol\":4257:4273  requestsToBuy[i] */\n              dup2\n              sload\n              dup2\n              lt\n              tag_221\n              jumpi\n              tag_222\n              tag_197\n              jump\t// in\n            tag_222:\n            tag_221:\n              swap1\n              0x00\n              mstore\n              keccak256(0x00, 0x20)\n              swap1\n              0x05\n              mul\n              add\n                /* \"Story.sol\":4257:4280  requestsToBuy[i].status */\n              0x04\n              add\n              0x00\n              swap1\n              sload\n              swap1\n              0x0100\n              exp\n              swap1\n              div\n              0xff\n              and\n                /* \"Story.sol\":4257:4289  requestsToBuy[i].status == false */\n              iszero\n              iszero\n              eq\n                /* \"Story.sol\":4254:4407  if(requestsToBuy[i].status == false){ ... */\n              iszero\n              tag_224\n              jumpi\n                /* \"Story.sol\":4326:4339  requestsToBuy */\n              0x0d\n                /* \"Story.sol\":4340:4341  i */\n              dup2\n                /* \"Story.sol\":4326:4342  requestsToBuy[i] */\n              dup2\n              sload\n              dup2\n              lt\n              tag_225\n              jumpi\n              tag_226\n              tag_197\n              jump\t// in\n            tag_226:\n            tag_225:\n              swap1\n              0x00\n              mstore\n              keccak256(0x00, 0x20)\n              swap1\n              0x05\n              mul\n              add\n                /* \"Story.sol\":4326:4349  requestsToBuy[i].bidder */\n              0x01\n              add\n              0x00\n              swap1\n              sload\n              swap1\n              0x0100\n              exp\n              swap1\n              div\n              0xffffffffffffffffffffffffffffffffffffffff\n              and\n                /* \"Story.sol\":4318:4359  payable(requestsToBuy[i].bidder).transfer */\n              0xffffffffffffffffffffffffffffffffffffffff\n              and\n                /* \"Story.sol\":4318:4383  payable(requestsToBuy[i].bidder).transfer(requestsToBuy[i].price) */\n              0x08fc\n                /* \"Story.sol\":4360:4373  requestsToBuy */\n              0x0d\n                /* \"Story.sol\":4374:4375  i */\n              dup4\n                /* \"Story.sol\":4360:4376  requestsToBuy[i] */\n              dup2\n              sload\n              dup2\n              lt\n              tag_228\n              jumpi\n              tag_229\n              tag_197\n              jump\t// in\n            tag_229:\n            tag_228:\n              swap1\n              0x00\n              mstore\n              keccak256(0x00, 0x20)\n              swap1\n              0x05\n              mul\n              add\n                /* \"Story.sol\":4360:4382  requestsToBuy[i].price */\n              0x00\n              add\n              sload\n                /* \"Story.sol\":4318:4383  payable(requestsToBuy[i].bidder).transfer(requestsToBuy[i].price) */\n              swap1\n              dup2\n              iszero\n              mul\n              swap1\n              mload(0x40)\n              0x00\n              mload(0x40)\n              dup1\n              dup4\n              sub\n              dup2\n              dup6\n              dup9\n              dup9\n              call\n              swap4\n              pop\n              pop\n              pop\n              pop\n              iszero\n              dup1\n              iszero\n              tag_232\n              jumpi\n              returndatasize\n              0x00\n              dup1\n              returndatacopy\n              revert(0x00, returndatasize)\n            tag_232:\n              pop\n                /* \"Story.sol\":4254:4407  if(requestsToBuy[i].status == false){ ... */\n            tag_224:\n                /* \"Story.sol\":4429:4432  i++ */\n              dup1\n              dup1\n              tag_233\n              swap1\n              tag_157\n              jump\t// in\n            tag_233:\n              swap2\n              pop\n              pop\n                /* \"Story.sol\":4199:4452  while (i < requestsToBuy.length){... */\n              jump(tag_219)\n            tag_220:\n                /* \"Story.sol\":3645:4487  {... */\n              pop\n              pop\n                /* \"Story.sol\":3585:4487  if (request.approversCount > (authorsForReact.length / 2) ) {... */\n            tag_209:\n                /* \"Story.sol\":2898:4512  {... */\n              pop\n                /* \"Story.sol\":2020:2025  false */\n              0x00\n                /* \"Story.sol\":2010:2017  _locked */\n              0x04\n              0x00\n                /* \"Story.sol\":2010:2025  _locked = false */\n              0x0100\n              exp\n              dup2\n              sload\n              dup2\n              0xff\n              mul\n              not\n              and\n              swap1\n              dup4\n              iszero\n              iszero\n              mul\n              or\n              swap1\n              sstore\n              pop\n                /* \"Story.sol\":2825:4512  function approveRequestToBuy(uint256 _index) public payable noReentrancy {... */\n              pop\n              jump\t// out\n                /* \"Story.sol\":801:820  string public title */\n            tag_64:\n              0x00\n              dup1\n              sload\n              tag_234\n              swap1\n              tag_142\n              jump\t// in\n            tag_234:\n              dup1\n              0x1f\n              add\n              0x20\n              dup1\n              swap2\n              div\n              mul\n              0x20\n              add\n              mload(0x40)\n              swap1\n              dup2\n              add\n              0x40\n              mstore\n              dup1\n              swap3\n              swap2\n              swap1\n              dup2\n              dup2\n              mstore\n              0x20\n              add\n              dup3\n              dup1\n              sload\n              tag_235\n              swap1\n              tag_142\n              jump\t// in\n            tag_235:\n              dup1\n              iszero\n              tag_236\n              jumpi\n              dup1\n              0x1f\n              lt\n              tag_237\n              jumpi\n              0x0100\n              dup1\n              dup4\n              sload\n              div\n              mul\n              dup4\n              mstore\n              swap2\n              0x20\n              add\n              swap2\n              jump(tag_236)\n            tag_237:\n              dup3\n              add\n              swap2\n              swap1\n              0x00\n              mstore\n              keccak256(0x00, 0x20)\n              swap1\n            tag_238:\n              dup2\n              sload\n              dup2\n              mstore\n              swap1\n              0x01\n              add\n              swap1\n              0x20\n              add\n              dup1\n              dup4\n              gt\n              tag_238\n              jumpi\n              dup3\n              swap1\n              sub\n              0x1f\n              and\n              dup3\n              add\n              swap2\n            tag_236:\n              pop\n              pop\n              pop\n              pop\n              pop\n              dup2\n              jump\t// out\n                /* \"Story.sol\":997:1017  bool public reported */\n            tag_68:\n              0x06\n              0x00\n              swap1\n              sload\n              swap1\n              0x0100\n              exp\n              swap1\n              div\n              0xff\n              and\n              dup2\n              jump\t// out\n                /* \"Story.sol\":1764:1799  RequestToBuy[] public requestsToBuy */\n            tag_73:\n              0x0d\n              dup2\n              dup2\n              sload\n              dup2\n              lt\n              tag_239\n              jumpi\n              0x00\n              dup1\n              revert\n            tag_239:\n              swap1\n              0x00\n              mstore\n              keccak256(0x00, 0x20)\n              swap1\n              0x05\n              mul\n              add\n              0x00\n              swap2\n              pop\n              swap1\n              pop\n              dup1\n              0x00\n              add\n              sload\n              swap1\n              dup1\n              0x01\n              add\n              0x00\n              swap1\n              sload\n              swap1\n              0x0100\n              exp\n              swap1\n              div\n              0xffffffffffffffffffffffffffffffffffffffff\n              and\n              swap1\n              dup1\n              0x03\n              add\n              sload\n              swap1\n              dup1\n              0x04\n              add\n              0x00\n              swap1\n              sload\n              swap1\n              0x0100\n              exp\n              swap1\n              div\n              0xff\n              and\n              swap1\n              pop\n              dup5\n              jump\t// out\n                /* \"Story.sol\":1507:1544  RequestToJoin[] public requestsToJoin */\n            tag_79:\n              0x0c\n              dup2\n              dup2\n              sload\n              dup2\n              lt\n              tag_241\n              jumpi\n              0x00\n              dup1\n              revert\n            tag_241:\n              swap1\n              0x00\n              mstore\n              keccak256(0x00, 0x20)\n              swap1\n              0x05\n              mul\n              add\n              0x00\n              swap2\n              pop\n              swap1\n              pop\n              dup1\n              0x00\n              add\n              dup1\n              sload\n              tag_243\n              swap1\n              tag_142\n              jump\t// in\n            tag_243:\n              dup1\n              0x1f\n              add\n              0x20\n              dup1\n              swap2\n              div\n              mul\n              0x20\n              add\n              mload(0x40)\n              swap1\n              dup2\n              add\n              0x40\n              mstore\n              dup1\n              swap3\n              swap2\n              swap1\n              dup2\n              dup2\n              mstore\n              0x20\n              add\n              dup3\n              dup1\n              sload\n              tag_244\n              swap1\n              tag_142\n              jump\t// in\n            tag_244:\n              dup1\n              iszero\n              tag_245\n              jumpi\n              dup1\n              0x1f\n              lt\n              tag_246\n              jumpi\n              0x0100\n              dup1\n              dup4\n              sload\n              div\n              mul\n              dup4\n              mstore\n              swap2\n              0x20\n              add\n              swap2\n              jump(tag_245)\n            tag_246:\n              dup3\n              add\n              swap2\n              swap1\n              0x00\n              mstore\n              keccak256(0x00, 0x20)\n              swap1\n            tag_247:\n              dup2\n              sload\n              dup2\n              mstore\n              swap1\n              0x01\n              add\n              swap1\n              0x20\n              add\n              dup1\n              dup4\n              gt\n              tag_247\n              jumpi\n              dup3\n              swap1\n              sub\n              0x1f\n              and\n              dup3\n              add\n              swap2\n            tag_245:\n              pop\n              pop\n              pop\n              pop\n              pop\n              swap1\n              dup1\n              0x01\n              add\n              0x00\n              swap1\n              sload\n              swap1\n              0x0100\n              exp\n              swap1\n              div\n              0xffffffffffffffffffffffffffffffffffffffff\n              and\n              swap1\n              dup1\n              0x03\n              add\n              sload\n              swap1\n              dup1\n              0x04\n              add\n              0x00\n              swap1\n              sload\n              swap1\n              0x0100\n              exp\n              swap1\n              div\n              0xff\n              and\n              swap1\n              pop\n              dup5\n              jump\t// out\n                /* \"Story.sol\":1186:1237  mapping(address => bool) public chaptersForSolidity */\n            tag_85:\n              mstore(0x20, 0x0a)\n              dup1\n              0x00\n              mstore\n              keccak256(0x00, 0x40)\n              0x00\n              swap2\n              pop\n              sload\n              swap1\n              0x0100\n              exp\n              swap1\n              div\n              0xff\n              and\n              dup2\n              jump\t// out\n                /* \"Story.sol\":1812:1832  address public owner */\n            tag_89:\n              0x0e\n              0x00\n              swap1\n              sload\n              swap1\n              0x0100\n              exp\n              swap1\n              div\n              0xffffffffffffffffffffffffffffffffffffffff\n              and\n              dup2\n              jump\t// out\n                /* \"Story.sol\":5024:6084  function approveRequestToJoin(uint256 _index) public noReentrancy {... */\n            tag_95:\n                /* \"Story.sol\":1924:1931  _locked */\n              0x04\n              0x00\n              swap1\n              sload\n              swap1\n              0x0100\n              exp\n              swap1\n              div\n              0xff\n              and\n                /* \"Story.sol\":1923:1931  !_locked */\n              iszero\n                /* \"Story.sol\":1915:1950  require(!_locked, \"Reentrant call\") */\n              tag_249\n              jumpi\n              mload(0x40)\n              0x08c379a000000000000000000000000000000000000000000000000000000000\n              dup2\n              mstore\n              0x04\n              add\n              tag_250\n              swap1\n              tag_132\n              jump\t// in\n            tag_250:\n              mload(0x40)\n              dup1\n              swap2\n              sub\n              swap1\n              revert\n            tag_249:\n                /* \"Story.sol\":1975:1979  true */\n              0x01\n                /* \"Story.sol\":1965:1972  _locked */\n              0x04\n              0x00\n                /* \"Story.sol\":1965:1979  _locked = true */\n              0x0100\n              exp\n              dup2\n              sload\n              dup2\n              0xff\n              mul\n              not\n              and\n              swap1\n              dup4\n              iszero\n              iszero\n              mul\n              or\n              swap1\n              sstore\n              pop\n                /* \"Story.sol\":5114:5120  bought */\n              0x0e\n              0x14\n              swap1\n              sload\n              swap1\n              0x0100\n              exp\n              swap1\n              div\n              0xff\n              and\n                /* \"Story.sol\":5113:5120  !bought */\n              iszero\n                /* \"Story.sol\":5105:5151  require(!bought, \"This story has been bought\") */\n              tag_252\n              jumpi\n              mload(0x40)\n              0x08c379a000000000000000000000000000000000000000000000000000000000\n              dup2\n              mstore\n              0x04\n              add\n              tag_253\n              swap1\n              tag_136\n              jump\t// in\n            tag_253:\n              mload(0x40)\n              dup1\n              swap2\n              sub\n              swap1\n              revert\n            tag_252:\n                /* \"Story.sol\":5175:5183  reported */\n              0x06\n              0x00\n              swap1\n              sload\n              swap1\n              0x0100\n              exp\n              swap1\n              div\n              0xff\n              and\n                /* \"Story.sol\":5174:5183  !reported */\n              iszero\n                /* \"Story.sol\":5166:5216  require(!reported, \"This story has been reported\") */\n              tag_254\n              jumpi\n              mload(0x40)\n              0x08c379a000000000000000000000000000000000000000000000000000000000\n              dup2\n              mstore\n              0x04\n              add\n              tag_255\n              swap1\n              tag_139\n              jump\t// in\n            tag_255:\n              mload(0x40)\n              dup1\n              swap2\n              sub\n              swap1\n              revert\n            tag_254:\n                /* \"Story.sol\":5239:5257  authorsForSolidity */\n              0x08\n                /* \"Story.sol\":5239:5269  authorsForSolidity[msg.sender] */\n              0x00\n                /* \"Story.sol\":5258:5268  msg.sender */\n              caller\n                /* \"Story.sol\":5239:5269  authorsForSolidity[msg.sender] */\n              0xffffffffffffffffffffffffffffffffffffffff\n              and\n              0xffffffffffffffffffffffffffffffffffffffff\n              and\n              dup2\n              mstore\n              0x20\n              add\n              swap1\n              dup2\n              mstore\n              0x20\n              add\n              0x00\n              keccak256\n              0x00\n              swap1\n              sload\n              swap1\n              0x0100\n              exp\n              swap1\n              div\n              0xff\n              and\n                /* \"Story.sol\":5231:5319  require(authorsForSolidity[msg.sender], \"Only an accepted author can approve a request\") */\n              tag_256\n              jumpi\n              mload(0x40)\n              0x08c379a000000000000000000000000000000000000000000000000000000000\n              dup2\n              mstore\n              0x04\n              add\n              tag_257\n              swap1\n              tag_194\n              jump\t// in\n            tag_257:\n              mload(0x40)\n              dup1\n              swap2\n              sub\n              swap1\n              revert\n            tag_256:\n                /* \"Story.sol\":5336:5365  RequestToJoin storage request */\n              0x00\n                /* \"Story.sol\":5368:5382  requestsToJoin */\n              0x0c\n                /* \"Story.sol\":5383:5389  _index */\n              dup3\n                /* \"Story.sol\":5368:5390  requestsToJoin[_index] */\n              dup2\n              sload\n              dup2\n              lt\n              tag_258\n              jumpi\n              tag_259\n              tag_197\n              jump\t// in\n            tag_259:\n            tag_258:\n              swap1\n              0x00\n              mstore\n              keccak256(0x00, 0x20)\n              swap1\n              0x05\n              mul\n              add\n                /* \"Story.sol\":5336:5390  RequestToJoin storage request = requestsToJoin[_index] */\n              swap1\n              pop\n                /* \"Story.sol\":5416:5423  request */\n              dup1\n                /* \"Story.sol\":5416:5433  request.approvers */\n              0x02\n              add\n                /* \"Story.sol\":5416:5445  request.approvers[msg.sender] */\n              0x00\n                /* \"Story.sol\":5434:5444  msg.sender */\n              caller\n                /* \"Story.sol\":5416:5445  request.approvers[msg.sender] */\n              0xffffffffffffffffffffffffffffffffffffffff\n              and\n              0xffffffffffffffffffffffffffffffffffffffff\n              and\n              dup2\n              mstore\n              0x20\n              add\n              swap1\n              dup2\n              mstore\n              0x20\n              add\n              0x00\n              keccak256\n              0x00\n              swap1\n              sload\n              swap1\n              0x0100\n              exp\n              swap1\n              div\n              0xff\n              and\n                /* \"Story.sol\":5415:5445  !request.approvers[msg.sender] */\n              iszero\n                /* \"Story.sol\":5407:5485  require(!request.approvers[msg.sender], \"This author already approved before\") */\n              tag_261\n              jumpi\n              mload(0x40)\n              0x08c379a000000000000000000000000000000000000000000000000000000000\n              dup2\n              mstore\n              0x04\n              add\n              tag_262\n              swap1\n              tag_201\n              jump\t// in\n            tag_262:\n              mload(0x40)\n              dup1\n              swap2\n              sub\n              swap1\n              revert\n            tag_261:\n                /* \"Story.sol\":5509:5516  request */\n              dup1\n                /* \"Story.sol\":5509:5523  request.status */\n              0x04\n              add\n              0x00\n              swap1\n              sload\n              swap1\n              0x0100\n              exp\n              swap1\n              div\n              0xff\n              and\n                /* \"Story.sol\":5508:5523  !request.status */\n              iszero\n                /* \"Story.sol\":5500:5573  require(!request.status, \"This request has already been approved before\") */\n              tag_263\n              jumpi\n              mload(0x40)\n              0x08c379a000000000000000000000000000000000000000000000000000000000\n              dup2\n              mstore\n              0x04\n              add\n              tag_264\n              swap1\n              tag_204\n              jump\t// in\n            tag_264:\n              mload(0x40)\n              dup1\n              swap2\n              sub\n              swap1\n              revert\n            tag_263:\n                /* \"Story.sol\":5622:5626  true */\n              0x01\n                /* \"Story.sol\":5590:5597  request */\n              dup2\n                /* \"Story.sol\":5590:5607  request.approvers */\n              0x02\n              add\n                /* \"Story.sol\":5590:5619  request.approvers[msg.sender] */\n              0x00\n                /* \"Story.sol\":5608:5618  msg.sender */\n              caller\n                /* \"Story.sol\":5590:5619  request.approvers[msg.sender] */\n              0xffffffffffffffffffffffffffffffffffffffff\n              and\n              0xffffffffffffffffffffffffffffffffffffffff\n              and\n              dup2\n              mstore\n              0x20\n              add\n              swap1\n              dup2\n              mstore\n              0x20\n              add\n              0x00\n              keccak256\n              0x00\n                /* \"Story.sol\":5590:5626  request.approvers[msg.sender] = true */\n              0x0100\n              exp\n              dup2\n              sload\n              dup2\n              0xff\n              mul\n              not\n              and\n              swap1\n              dup4\n              iszero\n              iszero\n              mul\n              or\n              swap1\n              sstore\n              pop\n                /* \"Story.sol\":5691:5692  1 */\n              0x01\n                /* \"Story.sol\":5666:5673  request */\n              dup2\n                /* \"Story.sol\":5666:5688  request.approversCount */\n              0x03\n              add\n              sload\n                /* \"Story.sol\":5666:5692  request.approversCount + 1 */\n              tag_265\n              swap2\n              swap1\n              tag_206\n              jump\t// in\n            tag_265:\n                /* \"Story.sol\":5641:5648  request */\n              dup2\n                /* \"Story.sol\":5641:5663  request.approversCount */\n              0x03\n              add\n                /* \"Story.sol\":5641:5692  request.approversCount = request.approversCount + 1 */\n              dup2\n              swap1\n              sstore\n              pop\n                /* \"Story.sol\":5838:5839  2 */\n              0x02\n                /* \"Story.sol\":5813:5828  authorsForReact */\n              0x09\n                /* \"Story.sol\":5813:5835  authorsForReact.length */\n              dup1\n              sload\n              swap1\n              pop\n                /* \"Story.sol\":5813:5839  authorsForReact.length / 2 */\n              tag_266\n              swap2\n              swap1\n              tag_208\n              jump\t// in\n            tag_266:\n                /* \"Story.sol\":5787:5794  request */\n              dup2\n                /* \"Story.sol\":5787:5809  request.approversCount */\n              0x03\n              add\n              sload\n                /* \"Story.sol\":5787:5840  request.approversCount > (authorsForReact.length / 2) */\n              gt\n                /* \"Story.sol\":5783:6073  if (request.approversCount > (authorsForReact.length / 2) ) {... */\n              iszero\n              tag_267\n              jumpi\n                /* \"Story.sol\":5958:5962  true */\n              0x01\n                /* \"Story.sol\":5921:5939  authorsForSolidity */\n              0x08\n                /* \"Story.sol\":5921:5955  authorsForSolidity[request.author] */\n              0x00\n                /* \"Story.sol\":5940:5947  request */\n              dup4\n                /* \"Story.sol\":5940:5954  request.author */\n              0x01\n              add\n              0x00\n              swap1\n              sload\n              swap1\n              0x0100\n              exp\n              swap1\n              div\n              0xffffffffffffffffffffffffffffffffffffffff\n              and\n                /* \"Story.sol\":5921:5955  authorsForSolidity[request.author] */\n              0xffffffffffffffffffffffffffffffffffffffff\n              and\n              0xffffffffffffffffffffffffffffffffffffffff\n              and\n              dup2\n              mstore\n              0x20\n              add\n              swap1\n              dup2\n              mstore\n              0x20\n              add\n              0x00\n              keccak256\n              0x00\n                /* \"Story.sol\":5921:5962  authorsForSolidity[request.author] = true */\n              0x0100\n              exp\n              dup2\n              sload\n              dup2\n              0xff\n              mul\n              not\n              and\n              swap1\n              dup4\n              iszero\n              iszero\n              mul\n              or\n              swap1\n              sstore\n              pop\n                /* \"Story.sol\":5981:5996  authorsForReact */\n              0x09\n                /* \"Story.sol\":6002:6009  request */\n              dup2\n                /* \"Story.sol\":6002:6016  request.author */\n              0x01\n              add\n              0x00\n              swap1\n              sload\n              swap1\n              0x0100\n              exp\n              swap1\n              div\n              0xffffffffffffffffffffffffffffffffffffffff\n              and\n                /* \"Story.sol\":5981:6017  authorsForReact.push(request.author) */\n              swap1\n              dup1\n              0x01\n              dup2\n              sload\n              add\n              dup1\n              dup3\n              sstore\n              dup1\n              swap2\n              pop\n              pop\n              0x01\n              swap1\n              sub\n              swap1\n              0x00\n              mstore\n              keccak256(0x00, 0x20)\n              add\n              0x00\n              swap1\n              swap2\n              swap1\n              swap2\n              swap1\n              swap2\n              0x0100\n              exp\n              dup2\n              sload\n              dup2\n              0xffffffffffffffffffffffffffffffffffffffff\n              mul\n              not\n              and\n              swap1\n              dup4\n              0xffffffffffffffffffffffffffffffffffffffff\n              and\n              mul\n              or\n              swap1\n              sstore\n              pop\n                /* \"Story.sol\":6053:6057  true */\n              0x01\n                /* \"Story.sol\":6036:6043  request */\n              dup2\n                /* \"Story.sol\":6036:6050  request.status */\n              0x04\n              add\n              0x00\n                /* \"Story.sol\":6036:6057  request.status = true */\n              0x0100\n              exp\n              dup2\n              sload\n              dup2\n              0xff\n              mul\n              not\n              and\n              swap1\n              dup4\n              iszero\n              iszero\n              mul\n              or\n              swap1\n              sstore\n              pop\n                /* \"Story.sol\":5783:6073  if (request.approversCount > (authorsForReact.length / 2) ) {... */\n            tag_267:\n                /* \"Story.sol\":5090:6084  {... */\n              pop\n                /* \"Story.sol\":2020:2025  false */\n              0x00\n                /* \"Story.sol\":2010:2017  _locked */\n              0x04\n              0x00\n                /* \"Story.sol\":2010:2025  _locked = false */\n              0x0100\n              exp\n              dup2\n              sload\n              dup2\n              0xff\n              mul\n              not\n              and\n              swap1\n              dup4\n              iszero\n              iszero\n              mul\n              or\n              swap1\n              sstore\n              pop\n                /* \"Story.sol\":5024:6084  function approveRequestToJoin(uint256 _index) public noReentrancy {... */\n              pop\n              jump\t// out\n                /* \"Story.sol\":6096:7366  function createChapter(string memory _title, string memory _ipfsHash, address _parentChapter, address _childChapter) public noReentrancy {... */\n            tag_100:\n                /* \"Story.sol\":1924:1931  _locked */\n              0x04\n              0x00\n              swap1\n              sload\n              swap1\n              0x0100\n              exp\n              swap1\n              div\n              0xff\n              and\n                /* \"Story.sol\":1923:1931  !_locked */\n              iszero\n                /* \"Story.sol\":1915:1950  require(!_locked, \"Reentrant call\") */\n              tag_270\n              jumpi\n              mload(0x40)\n              0x08c379a000000000000000000000000000000000000000000000000000000000\n              dup2\n              mstore\n              0x04\n              add\n              tag_271\n              swap1\n              tag_132\n              jump\t// in\n            tag_271:\n              mload(0x40)\n              dup1\n              swap2\n              sub\n              swap1\n              revert\n            tag_270:\n                /* \"Story.sol\":1975:1979  true */\n              0x01\n                /* \"Story.sol\":1965:1972  _locked */\n              0x04\n              0x00\n                /* \"Story.sol\":1965:1979  _locked = true */\n              0x0100\n              exp\n              dup2\n              sload\n              dup2\n              0xff\n              mul\n              not\n              and\n              swap1\n              dup4\n              iszero\n              iszero\n              mul\n              or\n              swap1\n              sstore\n              pop\n                /* \"Story.sol\":6257:6263  bought */\n              0x0e\n              0x14\n              swap1\n              sload\n              swap1\n              0x0100\n              exp\n              swap1\n              div\n              0xff\n              and\n                /* \"Story.sol\":6256:6263  !bought */\n              iszero\n                /* \"Story.sol\":6248:6294  require(!bought, \"This story has been bought\") */\n              tag_273\n              jumpi\n              mload(0x40)\n              0x08c379a000000000000000000000000000000000000000000000000000000000\n              dup2\n              mstore\n              0x04\n              add\n              tag_274\n              swap1\n              tag_136\n              jump\t// in\n            tag_274:\n              mload(0x40)\n              dup1\n              swap2\n              sub\n              swap1\n              revert\n            tag_273:\n                /* \"Story.sol\":6318:6326  reported */\n              0x06\n              0x00\n              swap1\n              sload\n              swap1\n              0x0100\n              exp\n              swap1\n              div\n              0xff\n              and\n                /* \"Story.sol\":6317:6326  !reported */\n              iszero\n                /* \"Story.sol\":6309:6359  require(!reported, \"This story has been reported\") */\n              tag_275\n              jumpi\n              mload(0x40)\n              0x08c379a000000000000000000000000000000000000000000000000000000000\n              dup2\n              mstore\n              0x04\n              add\n              tag_276\n              swap1\n              tag_139\n              jump\t// in\n            tag_276:\n              mload(0x40)\n              dup1\n              swap2\n              sub\n              swap1\n              revert\n            tag_275:\n                /* \"Story.sol\":6382:6400  authorsForSolidity */\n              0x08\n                /* \"Story.sol\":6382:6412  authorsForSolidity[msg.sender] */\n              0x00\n                /* \"Story.sol\":6401:6411  msg.sender */\n              caller\n                /* \"Story.sol\":6382:6412  authorsForSolidity[msg.sender] */\n              0xffffffffffffffffffffffffffffffffffffffff\n              and\n              0xffffffffffffffffffffffffffffffffffffffff\n              and\n              dup2\n              mstore\n              0x20\n              add\n              swap1\n              dup2\n              mstore\n              0x20\n              add\n              0x00\n              keccak256\n              0x00\n              swap1\n              sload\n              swap1\n              0x0100\n              exp\n              swap1\n              div\n              0xff\n              and\n                /* \"Story.sol\":6374:6461  require(authorsForSolidity[msg.sender], \"Only an accepted author can create a chapter\") */\n              tag_277\n              jumpi\n              mload(0x40)\n              0x08c379a000000000000000000000000000000000000000000000000000000000\n              dup2\n              mstore\n              0x04\n              add\n              tag_278\n              swap1\n              tag_279\n              jump\t// in\n            tag_278:\n              mload(0x40)\n              dup1\n              swap2\n              sub\n              swap1\n              revert\n            tag_277:\n                /* \"Story.sol\":6484:6503  chaptersForSolidity */\n              0x0a\n                /* \"Story.sol\":6484:6519  chaptersForSolidity[_parentChapter] */\n              0x00\n                /* \"Story.sol\":6504:6518  _parentChapter */\n              dup4\n                /* \"Story.sol\":6484:6519  chaptersForSolidity[_parentChapter] */\n              0xffffffffffffffffffffffffffffffffffffffff\n              and\n              0xffffffffffffffffffffffffffffffffffffffff\n              and\n              dup2\n              mstore\n              0x20\n              add\n              swap1\n              dup2\n              mstore\n              0x20\n              add\n              0x00\n              keccak256\n              0x00\n              swap1\n              sload\n              swap1\n              0x0100\n              exp\n              swap1\n              div\n              0xff\n              and\n                /* \"Story.sol\":6484:6553  chaptersForSolidity[_parentChapter] || (_parentChapter == address(0)) */\n              dup1\n              tag_280\n              jumpi\n              pop\n                /* \"Story.sol\":6550:6551  0 */\n              0x00\n                /* \"Story.sol\":6524:6552  _parentChapter == address(0) */\n              0xffffffffffffffffffffffffffffffffffffffff\n              and\n                /* \"Story.sol\":6524:6538  _parentChapter */\n              dup3\n                /* \"Story.sol\":6524:6552  _parentChapter == address(0) */\n              0xffffffffffffffffffffffffffffffffffffffff\n              and\n              eq\n                /* \"Story.sol\":6484:6553  chaptersForSolidity[_parentChapter] || (_parentChapter == address(0)) */\n            tag_280:\n                /* \"Story.sol\":6476:6602  require(chaptersForSolidity[_parentChapter] || (_parentChapter == address(0)), \"Parent chapter must belong to the same story\") */\n              tag_281\n              jumpi\n              mload(0x40)\n              0x08c379a000000000000000000000000000000000000000000000000000000000\n              dup2\n              mstore\n              0x04\n              add\n              tag_282\n              swap1\n              tag_283\n              jump\t// in\n            tag_282:\n              mload(0x40)\n              dup1\n              swap2\n              sub\n              swap1\n              revert\n            tag_281:\n                /* \"Story.sol\":6625:6644  chaptersForSolidity */\n              0x0a\n                /* \"Story.sol\":6625:6659  chaptersForSolidity[_childChapter] */\n              0x00\n                /* \"Story.sol\":6645:6658  _childChapter */\n              dup3\n                /* \"Story.sol\":6625:6659  chaptersForSolidity[_childChapter] */\n              0xffffffffffffffffffffffffffffffffffffffff\n              and\n              0xffffffffffffffffffffffffffffffffffffffff\n              and\n              dup2\n              mstore\n              0x20\n              add\n              swap1\n              dup2\n              mstore\n              0x20\n              add\n              0x00\n              keccak256\n              0x00\n              swap1\n              sload\n              swap1\n              0x0100\n              exp\n              swap1\n              div\n              0xff\n              and\n                /* \"Story.sol\":6625:6692  chaptersForSolidity[_childChapter] || (_childChapter == address(0)) */\n              dup1\n              tag_284\n              jumpi\n              pop\n                /* \"Story.sol\":6689:6690  0 */\n              0x00\n                /* \"Story.sol\":6664:6691  _childChapter == address(0) */\n              0xffffffffffffffffffffffffffffffffffffffff\n              and\n                /* \"Story.sol\":6664:6677  _childChapter */\n              dup2\n                /* \"Story.sol\":6664:6691  _childChapter == address(0) */\n              0xffffffffffffffffffffffffffffffffffffffff\n              and\n              eq\n                /* \"Story.sol\":6625:6692  chaptersForSolidity[_childChapter] || (_childChapter == address(0)) */\n            tag_284:\n                /* \"Story.sol\":6617:6740  require(chaptersForSolidity[_childChapter] || (_childChapter == address(0)), \"Child chapter must belong to the same story\") */\n              tag_285\n              jumpi\n              mload(0x40)\n              0x08c379a000000000000000000000000000000000000000000000000000000000\n              dup2\n              mstore\n              0x04\n              add\n              tag_286\n              swap1\n              tag_287\n              jump\t// in\n            tag_286:\n              mload(0x40)\n              dup1\n              swap2\n              sub\n              swap1\n              revert\n            tag_285:\n                /* \"Story.sol\":6757:6775  Chapter newChapter */\n              0x00\n                /* \"Story.sol\":6790:6800  msg.sender */\n              caller\n                /* \"Story.sol\":6810:6814  this */\n              address\n                /* \"Story.sol\":6817:6823  _title */\n              dup7\n                /* \"Story.sol\":6825:6834  _ipfsHash */\n              dup7\n                /* \"Story.sol\":6836:6850  _parentChapter */\n              dup7\n                /* \"Story.sol\":6852:6865  _childChapter */\n              dup7\n                /* \"Story.sol\":6778:6866  new Chapter(msg.sender, address(this), _title, _ipfsHash, _parentChapter, _childChapter) */\n              mload(0x40)\n              tag_288\n              swap1\n              tag_289\n              jump\t// in\n            tag_288:\n              tag_290\n              swap7\n              swap6\n              swap5\n              swap4\n              swap3\n              swap2\n              swap1\n              tag_291\n              jump\t// in\n            tag_290:\n              mload(0x40)\n              dup1\n              swap2\n              sub\n              swap1\n              0x00\n              create\n              dup1\n              iszero\n              dup1\n              iszero\n              tag_292\n              jumpi\n              returndatasize\n              0x00\n              dup1\n              returndatacopy\n              revert(0x00, returndatasize)\n            tag_292:\n              pop\n                /* \"Story.sol\":6757:6866  Chapter newChapter = new Chapter(msg.sender, address(this), _title, _ipfsHash, _parentChapter, _childChapter) */\n              swap1\n              pop\n                /* \"Story.sol\":6911:6912  0 */\n              0x00\n                /* \"Story.sol\":6885:6913  _parentChapter != address(0) */\n              0xffffffffffffffffffffffffffffffffffffffff\n              and\n                /* \"Story.sol\":6885:6899  _parentChapter */\n              dup4\n                /* \"Story.sol\":6885:6913  _parentChapter != address(0) */\n              0xffffffffffffffffffffffffffffffffffffffff\n              and\n              eq\n                /* \"Story.sol\":6881:7053  if (_parentChapter != address(0)) {... */\n              tag_293\n              jumpi\n                /* \"Story.sol\":6934:6948  Chapter parent */\n              0x00\n                /* \"Story.sol\":6959:6973  _parentChapter */\n              dup4\n                /* \"Story.sol\":6934:6974  Chapter parent = Chapter(_parentChapter) */\n              swap1\n              pop\n                /* \"Story.sol\":6993:6999  parent */\n              dup1\n                /* \"Story.sol\":6993:7016  parent.linkChildChapter */\n              0xffffffffffffffffffffffffffffffffffffffff\n              and\n              0x988e46c8\n                /* \"Story.sol\":7025:7035  newChapter */\n              dup4\n                /* \"Story.sol\":6993:7037  parent.linkChildChapter(address(newChapter)) */\n              mload(0x40)\n              dup3\n              0xffffffff\n              and\n              0xe0\n              shl\n              dup2\n              mstore\n              0x04\n              add\n              tag_294\n              swap2\n              swap1\n              tag_91\n              jump\t// in\n            tag_294:\n              0x00\n              mload(0x40)\n              dup1\n              dup4\n              sub\n              dup2\n              0x00\n              dup8\n              dup1\n              extcodesize\n              iszero\n              dup1\n              iszero\n              tag_295\n              jumpi\n              0x00\n              dup1\n              revert\n            tag_295:\n              pop\n              gas\n              call\n              iszero\n              dup1\n              iszero\n              tag_297\n              jumpi\n              returndatasize\n              0x00\n              dup1\n              returndatacopy\n              revert(0x00, returndatasize)\n            tag_297:\n              pop\n              pop\n              pop\n              pop\n                /* \"Story.sol\":6915:7053  {... */\n              pop\n                /* \"Story.sol\":6881:7053  if (_parentChapter != address(0)) {... */\n            tag_293:\n                /* \"Story.sol\":7096:7097  0 */\n              0x00\n                /* \"Story.sol\":7071:7098  _childChapter != address(0) */\n              0xffffffffffffffffffffffffffffffffffffffff\n              and\n                /* \"Story.sol\":7071:7084  _childChapter */\n              dup3\n                /* \"Story.sol\":7071:7098  _childChapter != address(0) */\n              0xffffffffffffffffffffffffffffffffffffffff\n              and\n              eq\n                /* \"Story.sol\":7067:7236  if (_childChapter != address(0)) {... */\n              tag_298\n              jumpi\n                /* \"Story.sol\":7119:7132  Chapter child */\n              0x00\n                /* \"Story.sol\":7143:7156  _childChapter */\n              dup3\n                /* \"Story.sol\":7119:7157  Chapter child = Chapter(_childChapter) */\n              swap1\n              pop\n                /* \"Story.sol\":7176:7181  child */\n              dup1\n                /* \"Story.sol\":7176:7199  child.linkParentChapter */\n              0xffffffffffffffffffffffffffffffffffffffff\n              and\n              0x8758ce83\n                /* \"Story.sol\":7208:7218  newChapter */\n              dup4\n                /* \"Story.sol\":7176:7220  child.linkParentChapter(address(newChapter)) */\n              mload(0x40)\n              dup3\n              0xffffffff\n              and\n              0xe0\n              shl\n              dup2\n              mstore\n              0x04\n              add\n              tag_299\n              swap2\n              swap1\n              tag_91\n              jump\t// in\n            tag_299:\n              0x00\n              mload(0x40)\n              dup1\n              dup4\n              sub\n              dup2\n              0x00\n              dup8\n              dup1\n              extcodesize\n              iszero\n              dup1\n              iszero\n              tag_300\n              jumpi\n              0x00\n              dup1\n              revert\n            tag_300:\n              pop\n              gas\n              call\n              iszero\n              dup1\n              iszero\n              tag_302\n              jumpi\n              returndatasize\n              0x00\n              dup1\n              returndatacopy\n              revert(0x00, returndatasize)\n            tag_302:\n              pop\n              pop\n              pop\n              pop\n                /* \"Story.sol\":7100:7236  {... */\n              pop\n                /* \"Story.sol\":7067:7236  if (_childChapter != address(0)) {... */\n            tag_298:\n                /* \"Story.sol\":7250:7266  chaptersForReact */\n              0x0b\n                /* \"Story.sol\":7280:7290  newChapter */\n              dup2\n                /* \"Story.sol\":7250:7292  chaptersForReact.push(address(newChapter)) */\n              swap1\n              dup1\n              0x01\n              dup2\n              sload\n              add\n              dup1\n              dup3\n              sstore\n              dup1\n              swap2\n              pop\n              pop\n              0x01\n              swap1\n              sub\n              swap1\n              0x00\n              mstore\n              keccak256(0x00, 0x20)\n              add\n              0x00\n              swap1\n              swap2\n              swap1\n              swap2\n              swap1\n              swap2\n              0x0100\n              exp\n              dup2\n              sload\n              dup2\n              0xffffffffffffffffffffffffffffffffffffffff\n              mul\n              not\n              and\n              swap1\n              dup4\n              0xffffffffffffffffffffffffffffffffffffffff\n              and\n              mul\n              or\n              swap1\n              sstore\n              pop\n                /* \"Story.sol\":7350:7354  true */\n              0x01\n                /* \"Story.sol\":7307:7326  chaptersForSolidity */\n              0x0a\n                /* \"Story.sol\":7307:7347  chaptersForSolidity[address(newChapter)] */\n              0x00\n                /* \"Story.sol\":7335:7345  newChapter */\n              dup4\n                /* \"Story.sol\":7307:7347  chaptersForSolidity[address(newChapter)] */\n              0xffffffffffffffffffffffffffffffffffffffff\n              and\n              0xffffffffffffffffffffffffffffffffffffffff\n              and\n              dup2\n              mstore\n              0x20\n              add\n              swap1\n              dup2\n              mstore\n              0x20\n              add\n              0x00\n              keccak256\n              0x00\n                /* \"Story.sol\":7307:7354  chaptersForSolidity[address(newChapter)] = true */\n              0x0100\n              exp\n              dup2\n              sload\n              dup2\n              0xff\n              mul\n              not\n              and\n              swap1\n              dup4\n              iszero\n              iszero\n              mul\n              or\n              swap1\n              sstore\n              pop\n                /* \"Story.sol\":6233:7366  {... */\n              pop\n                /* \"Story.sol\":2020:2025  false */\n              0x00\n                /* \"Story.sol\":2010:2017  _locked */\n              0x04\n              0x00\n                /* \"Story.sol\":2010:2025  _locked = false */\n              0x0100\n              exp\n              dup2\n              sload\n              dup2\n              0xff\n              mul\n              not\n              and\n              swap1\n              dup4\n              iszero\n              iszero\n              mul\n              or\n              swap1\n              sstore\n              pop\n                /* \"Story.sol\":6096:7366  function createChapter(string memory _title, string memory _ipfsHash, address _parentChapter, address _childChapter) public noReentrancy {... */\n              pop\n              pop\n              pop\n              pop\n              jump\t// out\n                /* \"Story.sol\":1143:1175  address[] public authorsForReact */\n            tag_104:\n              0x09\n              dup2\n              dup2\n              sload\n              dup2\n              lt\n              tag_304\n              jumpi\n              0x00\n              dup1\n              revert\n            tag_304:\n              swap1\n              0x00\n              mstore\n              keccak256(0x00, 0x20)\n              add\n              0x00\n              swap2\n              pop\n              sload\n              swap1\n              0x0100\n              exp\n              swap1\n              div\n              0xffffffffffffffffffffffffffffffffffffffff\n              and\n              dup2\n              jump\t// out\n                /* \"Story.sol\":1248:1281  address[] public chaptersForReact */\n            tag_109:\n              0x0b\n              dup2\n              dup2\n              sload\n              dup2\n              lt\n              tag_306\n              jumpi\n              0x00\n              dup1\n              revert\n            tag_306:\n              swap1\n              0x00\n              mstore\n              keccak256(0x00, 0x20)\n              add\n              0x00\n              swap2\n              pop\n              sload\n              swap1\n              0x0100\n              exp\n              swap1\n              div\n              0xffffffffffffffffffffffffffffffffffffffff\n              and\n              dup2\n              jump\t// out\n                /* \"Story.sol\":894:918  string public coverPhoto */\n            tag_113:\n              0x03\n              dup1\n              sload\n              tag_308\n              swap1\n              tag_142\n              jump\t// in\n            tag_308:\n              dup1\n              0x1f\n              add\n              0x20\n              dup1\n              swap2\n              div\n              mul\n              0x20\n              add\n              mload(0x40)\n              swap1\n              dup2\n              add\n              0x40\n              mstore\n              dup1\n              swap3\n              swap2\n              swap1\n              dup2\n              dup2\n              mstore\n              0x20\n              add\n              dup3\n              dup1\n              sload\n              tag_309\n              swap1\n              tag_142\n              jump\t// in\n            tag_309:\n              dup1\n              iszero\n              tag_310\n              jumpi\n              dup1\n              0x1f\n              lt\n              tag_311\n              jumpi\n              0x0100\n              dup1\n              dup4\n              sload\n              div\n              mul\n              dup4\n              mstore\n              swap2\n              0x20\n              add\n              swap2\n              jump(tag_310)\n            tag_311:\n              dup3\n              add\n              swap2\n              swap1\n              0x00\n              mstore\n              keccak256(0x00, 0x20)\n              swap1\n            tag_312:\n              dup2\n              sload\n              dup2\n              mstore\n              swap1\n              0x01\n              add\n              swap1\n              0x20\n              add\n              dup1\n              dup4\n              gt\n              tag_312\n              jumpi\n              dup3\n              swap1\n              sub\n              0x1f\n              and\n              dup3\n              add\n              swap2\n            tag_310:\n              pop\n              pop\n              pop\n              pop\n              pop\n              dup2\n              jump\t// out\n                /* \"Story.sol\":4525:5002  function createRequestToJoin(string memory _proposal) public noReentrancy {... */\n            tag_119:\n                /* \"Story.sol\":1924:1931  _locked */\n              0x04\n              0x00\n              swap1\n              sload\n              swap1\n              0x0100\n              exp\n              swap1\n              div\n              0xff\n              and\n                /* \"Story.sol\":1923:1931  !_locked */\n              iszero\n                /* \"Story.sol\":1915:1950  require(!_locked, \"Reentrant call\") */\n              tag_314\n              jumpi\n              mload(0x40)\n              0x08c379a000000000000000000000000000000000000000000000000000000000\n              dup2\n              mstore\n              0x04\n              add\n              tag_315\n              swap1\n              tag_132\n              jump\t// in\n            tag_315:\n              mload(0x40)\n              dup1\n              swap2\n              sub\n              swap1\n              revert\n            tag_314:\n                /* \"Story.sol\":1975:1979  true */\n              0x01\n                /* \"Story.sol\":1965:1972  _locked */\n              0x04\n              0x00\n                /* \"Story.sol\":1965:1979  _locked = true */\n              0x0100\n              exp\n              dup2\n              sload\n              dup2\n              0xff\n              mul\n              not\n              and\n              swap1\n              dup4\n              iszero\n              iszero\n              mul\n              or\n              swap1\n              sstore\n              pop\n                /* \"Story.sol\":4623:4629  bought */\n              0x0e\n              0x14\n              swap1\n              sload\n              swap1\n              0x0100\n              exp\n              swap1\n              div\n              0xff\n              and\n                /* \"Story.sol\":4622:4629  !bought */\n              iszero\n                /* \"Story.sol\":4614:4660  require(!bought, \"This story has been bought\") */\n              tag_317\n              jumpi\n              mload(0x40)\n              0x08c379a000000000000000000000000000000000000000000000000000000000\n              dup2\n              mstore\n              0x04\n              add\n              tag_318\n              swap1\n              tag_136\n              jump\t// in\n            tag_318:\n              mload(0x40)\n              dup1\n              swap2\n              sub\n              swap1\n              revert\n            tag_317:\n                /* \"Story.sol\":4684:4692  reported */\n              0x06\n              0x00\n              swap1\n              sload\n              swap1\n              0x0100\n              exp\n              swap1\n              div\n              0xff\n              and\n                /* \"Story.sol\":4683:4692  !reported */\n              iszero\n                /* \"Story.sol\":4675:4725  require(!reported, \"This story has been reported\") */\n              tag_319\n              jumpi\n              mload(0x40)\n              0x08c379a000000000000000000000000000000000000000000000000000000000\n              dup2\n              mstore\n              0x04\n              add\n              tag_320\n              swap1\n              tag_139\n              jump\t// in\n            tag_320:\n              mload(0x40)\n              dup1\n              swap2\n              sub\n              swap1\n              revert\n            tag_319:\n                /* \"Story.sol\":4749:4767  authorsForSolidity */\n              0x08\n                /* \"Story.sol\":4749:4779  authorsForSolidity[msg.sender] */\n              0x00\n                /* \"Story.sol\":4768:4778  msg.sender */\n              caller\n                /* \"Story.sol\":4749:4779  authorsForSolidity[msg.sender] */\n              0xffffffffffffffffffffffffffffffffffffffff\n              and\n              0xffffffffffffffffffffffffffffffffffffffff\n              and\n              dup2\n              mstore\n              0x20\n              add\n              swap1\n              dup2\n              mstore\n              0x20\n              add\n              0x00\n              keccak256\n              0x00\n              swap1\n              sload\n              swap1\n              0x0100\n              exp\n              swap1\n              div\n              0xff\n              and\n                /* \"Story.sol\":4748:4779  !authorsForSolidity[msg.sender] */\n              iszero\n                /* \"Story.sol\":4740:4828  require(!authorsForSolidity[msg.sender], \"Author already exists in the list of authors\") */\n              tag_321\n              jumpi\n              mload(0x40)\n              0x08c379a000000000000000000000000000000000000000000000000000000000\n              dup2\n              mstore\n              0x04\n              add\n              tag_322\n              swap1\n              tag_323\n              jump\t// in\n            tag_322:\n              mload(0x40)\n              dup1\n              swap2\n              sub\n              swap1\n              revert\n            tag_321:\n                /* \"Story.sol\":4843:4875  RequestToJoin storage newRequest */\n              0x00\n                /* \"Story.sol\":4878:4892  requestsToJoin */\n              0x0c\n                /* \"Story.sol\":4878:4899  requestsToJoin.push() */\n              0x01\n              dup2\n              0x01\n              dup2\n              sload\n              add\n              dup1\n              dup3\n              sstore\n              dup1\n              swap2\n              pop\n              pop\n              sub\n              swap1\n              0x00\n              mstore\n              keccak256(0x00, 0x20)\n              swap1\n              0x05\n              mul\n              add\n                /* \"Story.sol\":4843:4899  RequestToJoin storage newRequest = requestsToJoin.push() */\n              swap1\n              pop\n                /* \"Story.sol\":4936:4945  _proposal */\n              dup2\n                /* \"Story.sol\":4914:4924  newRequest */\n              dup2\n                /* \"Story.sol\":4914:4933  newRequest.proposal */\n              0x00\n              add\n                /* \"Story.sol\":4914:4945  newRequest.proposal = _proposal */\n              swap1\n              dup1\n              mload\n              swap1\n              0x20\n              add\n              swap1\n              tag_325\n              swap3\n              swap2\n              swap1\n              tag_326\n              jump\t// in\n            tag_325:\n              pop\n                /* \"Story.sol\":4980:4990  msg.sender */\n              caller\n                /* \"Story.sol\":4960:4970  newRequest */\n              dup2\n                /* \"Story.sol\":4960:4977  newRequest.author */\n              0x01\n              add\n              0x00\n                /* \"Story.sol\":4960:4990  newRequest.author = msg.sender */\n              0x0100\n              exp\n              dup2\n              sload\n              dup2\n              0xffffffffffffffffffffffffffffffffffffffff\n              mul\n              not\n              and\n              swap1\n              dup4\n              0xffffffffffffffffffffffffffffffffffffffff\n              and\n              mul\n              or\n              swap1\n              sstore\n              pop\n                /* \"Story.sol\":4599:5002  {... */\n              pop\n                /* \"Story.sol\":2020:2025  false */\n              0x00\n                /* \"Story.sol\":2010:2017  _locked */\n              0x04\n              0x00\n                /* \"Story.sol\":2010:2025  _locked = false */\n              0x0100\n              exp\n              dup2\n              sload\n              dup2\n              0xff\n              mul\n              not\n              and\n              swap1\n              dup4\n              iszero\n              iszero\n              mul\n              or\n              swap1\n              sstore\n              pop\n                /* \"Story.sol\":4525:5002  function createRequestToJoin(string memory _proposal) public noReentrancy {... */\n              pop\n              jump\t// out\n                /* \"Story.sol\":861:883  string public mainIdea */\n            tag_122:\n              0x02\n              dup1\n              sload\n              tag_327\n              swap1\n              tag_142\n              jump\t// in\n            tag_327:\n              dup1\n              0x1f\n              add\n              0x20\n              dup1\n              swap2\n              div\n              mul\n              0x20\n              add\n              mload(0x40)\n              swap1\n              dup2\n              add\n              0x40\n              mstore\n              dup1\n              swap3\n              swap2\n              swap1\n              dup2\n              dup2\n              mstore\n              0x20\n              add\n              dup3\n              dup1\n              sload\n              tag_328\n              swap1\n              tag_142\n              jump\t// in\n            tag_328:\n              dup1\n              iszero\n              tag_329\n              jumpi\n              dup1\n              0x1f\n              lt\n              tag_330\n              jumpi\n              0x0100\n              dup1\n              dup4\n              sload\n              div\n              mul\n              dup4\n              mstore\n              swap2\n              0x20\n              add\n              swap2\n              jump(tag_329)\n            tag_330:\n              dup3\n              add\n              swap2\n              swap1\n              0x00\n              mstore\n              keccak256(0x00, 0x20)\n              swap1\n            tag_331:\n              dup2\n              sload\n              dup2\n              mstore\n              swap1\n              0x01\n              add\n              swap1\n              0x20\n              add\n              dup1\n              dup4\n              gt\n              tag_331\n              jumpi\n              dup3\n              swap1\n              sub\n              0x1f\n              and\n              dup3\n              add\n              swap2\n            tag_329:\n              pop\n              pop\n              pop\n              pop\n              pop\n              dup2\n              jump\t// out\n                /* \"Story.sol\":960:986  uint public reportersCount */\n            tag_126:\n              sload(0x05)\n              dup2\n              jump\t// out\n            tag_289:\n              dataSize(sub_0)\n              dup1\n              dataOffset(sub_0)\n              dup4\n              codecopy\n              add\n              swap1\n              jump\t// out\n            tag_326:\n              dup3\n              dup1\n              sload\n              tag_332\n              swap1\n              tag_142\n              jump\t// in\n            tag_332:\n              swap1\n              0x00\n              mstore\n              keccak256(0x00, 0x20)\n              swap1\n              0x1f\n              add\n              0x20\n              swap1\n              div\n              dup2\n              add\n              swap3\n              dup3\n              tag_334\n              jumpi\n              0x00\n              dup6\n              sstore\n              jump(tag_333)\n            tag_334:\n              dup3\n              0x1f\n              lt\n              tag_335\n              jumpi\n              dup1\n              mload\n              not(0xff)\n              and\n              dup4\n              dup1\n              add\n              or\n              dup6\n              sstore\n              jump(tag_333)\n            tag_335:\n              dup3\n              dup1\n              add\n              0x01\n              add\n              dup6\n              sstore\n              dup3\n              iszero\n              tag_333\n              jumpi\n              swap2\n              dup3\n              add\n            tag_336:\n              dup3\n              dup2\n              gt\n              iszero\n              tag_337\n              jumpi\n              dup3\n              mload\n              dup3\n              sstore\n              swap2\n              0x20\n              add\n              swap2\n              swap1\n              0x01\n              add\n              swap1\n              jump(tag_336)\n            tag_337:\n            tag_333:\n              pop\n              swap1\n              pop\n              tag_338\n              swap2\n              swap1\n              tag_339\n              jump\t// in\n            tag_338:\n              pop\n              swap1\n              jump\t// out\n            tag_339:\n            tag_340:\n              dup1\n              dup3\n              gt\n              iszero\n              tag_341\n              jumpi\n              0x00\n              dup2\n              0x00\n              swap1\n              sstore\n              pop\n              0x01\n              add\n              jump(tag_340)\n            tag_341:\n              pop\n              swap1\n              jump\t// out\n                /* \"#utility.yul\":7:106   */\n            tag_342:\n                /* \"#utility.yul\":59:65   */\n              0x00\n                /* \"#utility.yul\":93:98   */\n              dup2\n                /* \"#utility.yul\":87:99   */\n              mload\n                /* \"#utility.yul\":77:99   */\n              swap1\n              pop\n                /* \"#utility.yul\":7:106   */\n              swap2\n              swap1\n              pop\n              jump\t// out\n                /* \"#utility.yul\":112:281   */\n            tag_343:\n                /* \"#utility.yul\":196:207   */\n              0x00\n                /* \"#utility.yul\":230:236   */\n              dup3\n                /* \"#utility.yul\":225:228   */\n              dup3\n                /* \"#utility.yul\":218:237   */\n              mstore\n                /* \"#utility.yul\":270:274   */\n              0x20\n                /* \"#utility.yul\":265:268   */\n              dup3\n                /* \"#utility.yul\":261:275   */\n              add\n                /* \"#utility.yul\":246:275   */\n              swap1\n              pop\n                /* \"#utility.yul\":112:281   */\n              swap3\n              swap2\n              pop\n              pop\n              jump\t// out\n                /* \"#utility.yul\":287:594   */\n            tag_344:\n                /* \"#utility.yul\":355:356   */\n              0x00\n                /* \"#utility.yul\":365:478   */\n            tag_406:\n                /* \"#utility.yul\":379:385   */\n              dup4\n                /* \"#utility.yul\":376:377   */\n              dup2\n                /* \"#utility.yul\":373:386   */\n              lt\n                /* \"#utility.yul\":365:478   */\n              iszero\n              tag_408\n              jumpi\n                /* \"#utility.yul\":464:465   */\n              dup1\n                /* \"#utility.yul\":459:462   */\n              dup3\n                /* \"#utility.yul\":455:466   */\n              add\n                /* \"#utility.yul\":449:467   */\n              mload\n                /* \"#utility.yul\":445:446   */\n              dup2\n                /* \"#utility.yul\":440:443   */\n              dup5\n                /* \"#utility.yul\":436:447   */\n              add\n                /* \"#utility.yul\":429:468   */\n              mstore\n                /* \"#utility.yul\":401:403   */\n              0x20\n                /* \"#utility.yul\":398:399   */\n              dup2\n                /* \"#utility.yul\":394:404   */\n              add\n                /* \"#utility.yul\":389:404   */\n              swap1\n              pop\n                /* \"#utility.yul\":365:478   */\n              jump(tag_406)\n            tag_408:\n                /* \"#utility.yul\":496:502   */\n              dup4\n                /* \"#utility.yul\":493:494   */\n              dup2\n                /* \"#utility.yul\":490:503   */\n              gt\n                /* \"#utility.yul\":487:588   */\n              iszero\n              tag_409\n              jumpi\n                /* \"#utility.yul\":576:577   */\n              0x00\n                /* \"#utility.yul\":567:573   */\n              dup5\n                /* \"#utility.yul\":562:565   */\n              dup5\n                /* \"#utility.yul\":558:574   */\n              add\n                /* \"#utility.yul\":551:578   */\n              mstore\n                /* \"#utility.yul\":487:588   */\n            tag_409:\n                /* \"#utility.yul\":336:594   */\n              pop\n                /* \"#utility.yul\":287:594   */\n              pop\n              pop\n              pop\n              jump\t// out\n                /* \"#utility.yul\":600:702   */\n            tag_345:\n                /* \"#utility.yul\":641:647   */\n              0x00\n                /* \"#utility.yul\":692:694   */\n              0x1f\n                /* \"#utility.yul\":688:695   */\n              not\n                /* \"#utility.yul\":683:685   */\n              0x1f\n                /* \"#utility.yul\":676:681   */\n              dup4\n                /* \"#utility.yul\":672:686   */\n              add\n                /* \"#utility.yul\":668:696   */\n              and\n                /* \"#utility.yul\":658:696   */\n              swap1\n              pop\n                /* \"#utility.yul\":600:702   */\n              swap2\n              swap1\n              pop\n              jump\t// out\n                /* \"#utility.yul\":708:1072   */\n            tag_346:\n                /* \"#utility.yul\":796:799   */\n              0x00\n                /* \"#utility.yul\":824:863   */\n              tag_412\n                /* \"#utility.yul\":857:862   */\n              dup3\n                /* \"#utility.yul\":824:863   */\n              tag_342\n              jump\t// in\n            tag_412:\n                /* \"#utility.yul\":879:950   */\n              tag_413\n                /* \"#utility.yul\":943:949   */\n              dup2\n                /* \"#utility.yul\":938:941   */\n              dup6\n                /* \"#utility.yul\":879:950   */\n              tag_343\n              jump\t// in\n            tag_413:\n                /* \"#utility.yul\":872:950   */\n              swap4\n              pop\n                /* \"#utility.yul\":959:1011   */\n              tag_414\n                /* \"#utility.yul\":1004:1010   */\n              dup2\n                /* \"#utility.yul\":999:1002   */\n              dup6\n                /* \"#utility.yul\":992:996   */\n              0x20\n                /* \"#utility.yul\":985:990   */\n              dup7\n                /* \"#utility.yul\":981:997   */\n              add\n                /* \"#utility.yul\":959:1011   */\n              tag_344\n              jump\t// in\n            tag_414:\n                /* \"#utility.yul\":1036:1065   */\n              tag_415\n                /* \"#utility.yul\":1058:1064   */\n              dup2\n                /* \"#utility.yul\":1036:1065   */\n              tag_345\n              jump\t// in\n            tag_415:\n                /* \"#utility.yul\":1031:1034   */\n              dup5\n                /* \"#utility.yul\":1027:1066   */\n              add\n                /* \"#utility.yul\":1020:1066   */\n              swap2\n              pop\n                /* \"#utility.yul\":800:1072   */\n              pop\n                /* \"#utility.yul\":708:1072   */\n              swap3\n              swap2\n              pop\n              pop\n              jump\t// out\n                /* \"#utility.yul\":1078:1391   */\n            tag_33:\n                /* \"#utility.yul\":1191:1195   */\n              0x00\n                /* \"#utility.yul\":1229:1231   */\n              0x20\n                /* \"#utility.yul\":1218:1227   */\n              dup3\n                /* \"#utility.yul\":1214:1232   */\n              add\n                /* \"#utility.yul\":1206:1232   */\n              swap1\n              pop\n                /* \"#utility.yul\":1278:1287   */\n              dup2\n                /* \"#utility.yul\":1272:1276   */\n              dup2\n                /* \"#utility.yul\":1268:1288   */\n              sub\n                /* \"#utility.yul\":1264:1265   */\n              0x00\n                /* \"#utility.yul\":1253:1262   */\n              dup4\n                /* \"#utility.yul\":1249:1266   */\n              add\n                /* \"#utility.yul\":1242:1289   */\n              mstore\n                /* \"#utility.yul\":1306:1384   */\n              tag_417\n                /* \"#utility.yul\":1379:1383   */\n              dup2\n                /* \"#utility.yul\":1370:1376   */\n              dup5\n                /* \"#utility.yul\":1306:1384   */\n              tag_346\n              jump\t// in\n            tag_417:\n                /* \"#utility.yul\":1298:1384   */\n              swap1\n              pop\n                /* \"#utility.yul\":1078:1391   */\n              swap3\n              swap2\n              pop\n              pop\n              jump\t// out\n                /* \"#utility.yul\":1397:1472   */\n            tag_347:\n                /* \"#utility.yul\":1430:1436   */\n              0x00\n                /* \"#utility.yul\":1463:1465   */\n              0x40\n                /* \"#utility.yul\":1457:1466   */\n              mload\n                /* \"#utility.yul\":1447:1466   */\n              swap1\n              pop\n                /* \"#utility.yul\":1397:1472   */\n              swap1\n              jump\t// out\n                /* \"#utility.yul\":1478:1595   */\n            tag_348:\n                /* \"#utility.yul\":1587:1588   */\n              0x00\n                /* \"#utility.yul\":1584:1585   */\n              dup1\n                /* \"#utility.yul\":1577:1589   */\n              revert\n                /* \"#utility.yul\":1601:1718   */\n            tag_349:\n                /* \"#utility.yul\":1710:1711   */\n              0x00\n                /* \"#utility.yul\":1707:1708   */\n              dup1\n                /* \"#utility.yul\":1700:1712   */\n              revert\n                /* \"#utility.yul\":1724:1850   */\n            tag_350:\n                /* \"#utility.yul\":1761:1768   */\n              0x00\n                /* \"#utility.yul\":1801:1843   */\n              0xffffffffffffffffffffffffffffffffffffffff\n                /* \"#utility.yul\":1794:1799   */\n              dup3\n                /* \"#utility.yul\":1790:1844   */\n              and\n                /* \"#utility.yul\":1779:1844   */\n              swap1\n              pop\n                /* \"#utility.yul\":1724:1850   */\n              swap2\n              swap1\n              pop\n              jump\t// out\n                /* \"#utility.yul\":1856:1952   */\n            tag_351:\n                /* \"#utility.yul\":1893:1900   */\n              0x00\n                /* \"#utility.yul\":1922:1946   */\n              tag_423\n                /* \"#utility.yul\":1940:1945   */\n              dup3\n                /* \"#utility.yul\":1922:1946   */\n              tag_350\n              jump\t// in\n            tag_423:\n                /* \"#utility.yul\":1911:1946   */\n              swap1\n              pop\n                /* \"#utility.yul\":1856:1952   */\n              swap2\n              swap1\n              pop\n              jump\t// out\n                /* \"#utility.yul\":1958:2080   */\n            tag_352:\n                /* \"#utility.yul\":2031:2055   */\n              tag_425\n                /* \"#utility.yul\":2049:2054   */\n              dup2\n                /* \"#utility.yul\":2031:2055   */\n              tag_351\n              jump\t// in\n            tag_425:\n                /* \"#utility.yul\":2024:2029   */\n              dup2\n                /* \"#utility.yul\":2021:2056   */\n              eq\n                /* \"#utility.yul\":2011:2074   */\n              tag_426\n              jumpi\n                /* \"#utility.yul\":2070:2071   */\n              0x00\n                /* \"#utility.yul\":2067:2068   */\n              dup1\n                /* \"#utility.yul\":2060:2072   */\n              revert\n                /* \"#utility.yul\":2011:2074   */\n            tag_426:\n                /* \"#utility.yul\":1958:2080   */\n              pop\n              jump\t// out\n                /* \"#utility.yul\":2086:2225   */\n            tag_353:\n                /* \"#utility.yul\":2132:2137   */\n              0x00\n                /* \"#utility.yul\":2170:2176   */\n              dup2\n                /* \"#utility.yul\":2157:2177   */\n              calldataload\n                /* \"#utility.yul\":2148:2177   */\n              swap1\n              pop\n                /* \"#utility.yul\":2186:2219   */\n              tag_428\n                /* \"#utility.yul\":2213:2218   */\n              dup2\n                /* \"#utility.yul\":2186:2219   */\n              tag_352\n              jump\t// in\n            tag_428:\n                /* \"#utility.yul\":2086:2225   */\n              swap3\n              swap2\n              pop\n              pop\n              jump\t// out\n                /* \"#utility.yul\":2231:2560   */\n            tag_40:\n                /* \"#utility.yul\":2290:2296   */\n              0x00\n                /* \"#utility.yul\":2339:2341   */\n              0x20\n                /* \"#utility.yul\":2327:2336   */\n              dup3\n                /* \"#utility.yul\":2318:2325   */\n              dup5\n                /* \"#utility.yul\":2314:2337   */\n              sub\n                /* \"#utility.yul\":2310:2342   */\n              slt\n                /* \"#utility.yul\":2307:2426   */\n              iszero\n              tag_430\n              jumpi\n                /* \"#utility.yul\":2345:2424   */\n              tag_431\n              tag_348\n              jump\t// in\n            tag_431:\n                /* \"#utility.yul\":2307:2426   */\n            tag_430:\n                /* \"#utility.yul\":2465:2466   */\n              0x00\n                /* \"#utility.yul\":2490:2543   */\n              tag_432\n                /* \"#utility.yul\":2535:2542   */\n              dup5\n                /* \"#utility.yul\":2526:2532   */\n              dup3\n                /* \"#utility.yul\":2515:2524   */\n              dup6\n                /* \"#utility.yul\":2511:2533   */\n              add\n                /* \"#utility.yul\":2490:2543   */\n              tag_353\n              jump\t// in\n            tag_432:\n                /* \"#utility.yul\":2480:2543   */\n              swap2\n              pop\n                /* \"#utility.yul\":2436:2553   */\n              pop\n                /* \"#utility.yul\":2231:2560   */\n              swap3\n              swap2\n              pop\n              pop\n              jump\t// out\n                /* \"#utility.yul\":2566:2656   */\n            tag_354:\n                /* \"#utility.yul\":2600:2607   */\n              0x00\n                /* \"#utility.yul\":2643:2648   */\n              dup2\n                /* \"#utility.yul\":2636:2649   */\n              iszero\n                /* \"#utility.yul\":2629:2650   */\n              iszero\n                /* \"#utility.yul\":2618:2650   */\n              swap1\n              pop\n                /* \"#utility.yul\":2566:2656   */\n              swap2\n              swap1\n              pop\n              jump\t// out\n                /* \"#utility.yul\":2662:2771   */\n            tag_355:\n                /* \"#utility.yul\":2743:2764   */\n              tag_435\n                /* \"#utility.yul\":2758:2763   */\n              dup2\n                /* \"#utility.yul\":2743:2764   */\n              tag_354\n              jump\t// in\n            tag_435:\n                /* \"#utility.yul\":2738:2741   */\n              dup3\n                /* \"#utility.yul\":2731:2765   */\n              mstore\n                /* \"#utility.yul\":2662:2771   */\n              pop\n              pop\n              jump\t// out\n                /* \"#utility.yul\":2777:2987   */\n            tag_43:\n                /* \"#utility.yul\":2864:2868   */\n              0x00\n                /* \"#utility.yul\":2902:2904   */\n              0x20\n                /* \"#utility.yul\":2891:2900   */\n              dup3\n                /* \"#utility.yul\":2887:2905   */\n              add\n                /* \"#utility.yul\":2879:2905   */\n              swap1\n              pop\n                /* \"#utility.yul\":2915:2980   */\n              tag_437\n                /* \"#utility.yul\":2977:2978   */\n              0x00\n                /* \"#utility.yul\":2966:2975   */\n              dup4\n                /* \"#utility.yul\":2962:2979   */\n              add\n                /* \"#utility.yul\":2953:2959   */\n              dup5\n                /* \"#utility.yul\":2915:2980   */\n              tag_355\n              jump\t// in\n            tag_437:\n                /* \"#utility.yul\":2777:2987   */\n              swap3\n              swap2\n              pop\n              pop\n              jump\t// out\n                /* \"#utility.yul\":2993:3107   */\n            tag_356:\n                /* \"#utility.yul\":3060:3066   */\n              0x00\n                /* \"#utility.yul\":3094:3099   */\n              dup2\n                /* \"#utility.yul\":3088:3100   */\n              mload\n                /* \"#utility.yul\":3078:3100   */\n              swap1\n              pop\n                /* \"#utility.yul\":2993:3107   */\n              swap2\n              swap1\n              pop\n              jump\t// out\n                /* \"#utility.yul\":3113:3297   */\n            tag_357:\n                /* \"#utility.yul\":3212:3223   */\n              0x00\n                /* \"#utility.yul\":3246:3252   */\n              dup3\n                /* \"#utility.yul\":3241:3244   */\n              dup3\n                /* \"#utility.yul\":3234:3253   */\n              mstore\n                /* \"#utility.yul\":3286:3290   */\n              0x20\n                /* \"#utility.yul\":3281:3284   */\n              dup3\n                /* \"#utility.yul\":3277:3291   */\n              add\n                /* \"#utility.yul\":3262:3291   */\n              swap1\n              pop\n                /* \"#utility.yul\":3113:3297   */\n              swap3\n              swap2\n              pop\n              pop\n              jump\t// out\n                /* \"#utility.yul\":3303:3435   */\n            tag_358:\n                /* \"#utility.yul\":3370:3374   */\n              0x00\n                /* \"#utility.yul\":3393:3396   */\n              dup2\n                /* \"#utility.yul\":3385:3396   */\n              swap1\n              pop\n                /* \"#utility.yul\":3423:3427   */\n              0x20\n                /* \"#utility.yul\":3418:3421   */\n              dup3\n                /* \"#utility.yul\":3414:3428   */\n              add\n                /* \"#utility.yul\":3406:3428   */\n              swap1\n              pop\n                /* \"#utility.yul\":3303:3435   */\n              swap2\n              swap1\n              pop\n              jump\t// out\n                /* \"#utility.yul\":3441:3549   */\n            tag_359:\n                /* \"#utility.yul\":3518:3542   */\n              tag_442\n                /* \"#utility.yul\":3536:3541   */\n              dup2\n                /* \"#utility.yul\":3518:3542   */\n              tag_351\n              jump\t// in\n            tag_442:\n                /* \"#utility.yul\":3513:3516   */\n              dup3\n                /* \"#utility.yul\":3506:3543   */\n              mstore\n                /* \"#utility.yul\":3441:3549   */\n              pop\n              pop\n              jump\t// out\n                /* \"#utility.yul\":3555:3734   */\n            tag_360:\n                /* \"#utility.yul\":3624:3634   */\n              0x00\n                /* \"#utility.yul\":3645:3691   */\n              tag_444\n                /* \"#utility.yul\":3687:3690   */\n              dup4\n                /* \"#utility.yul\":3679:3685   */\n              dup4\n                /* \"#utility.yul\":3645:3691   */\n              tag_359\n              jump\t// in\n            tag_444:\n                /* \"#utility.yul\":3723:3727   */\n              0x20\n                /* \"#utility.yul\":3718:3721   */\n              dup4\n                /* \"#utility.yul\":3714:3728   */\n              add\n                /* \"#utility.yul\":3700:3728   */\n              swap1\n              pop\n                /* \"#utility.yul\":3555:3734   */\n              swap3\n              swap2\n              pop\n              pop\n              jump\t// out\n                /* \"#utility.yul\":3740:3853   */\n            tag_361:\n                /* \"#utility.yul\":3810:3814   */\n              0x00\n                /* \"#utility.yul\":3842:3846   */\n              0x20\n                /* \"#utility.yul\":3837:3840   */\n              dup3\n                /* \"#utility.yul\":3833:3847   */\n              add\n                /* \"#utility.yul\":3825:3847   */\n              swap1\n              pop\n                /* \"#utility.yul\":3740:3853   */\n              swap2\n              swap1\n              pop\n              jump\t// out\n                /* \"#utility.yul\":3889:4621   */\n            tag_362:\n                /* \"#utility.yul\":4008:4011   */\n              0x00\n                /* \"#utility.yul\":4037:4091   */\n              tag_447\n                /* \"#utility.yul\":4085:4090   */\n              dup3\n                /* \"#utility.yul\":4037:4091   */\n              tag_356\n              jump\t// in\n            tag_447:\n                /* \"#utility.yul\":4107:4193   */\n              tag_448\n                /* \"#utility.yul\":4186:4192   */\n              dup2\n                /* \"#utility.yul\":4181:4184   */\n              dup6\n                /* \"#utility.yul\":4107:4193   */\n              tag_357\n              jump\t// in\n            tag_448:\n                /* \"#utility.yul\":4100:4193   */\n              swap4\n              pop\n                /* \"#utility.yul\":4217:4273   */\n              tag_449\n                /* \"#utility.yul\":4267:4272   */\n              dup4\n                /* \"#utility.yul\":4217:4273   */\n              tag_358\n              jump\t// in\n            tag_449:\n                /* \"#utility.yul\":4296:4303   */\n              dup1\n                /* \"#utility.yul\":4327:4328   */\n              0x00\n                /* \"#utility.yul\":4312:4596   */\n            tag_450:\n                /* \"#utility.yul\":4337:4343   */\n              dup4\n                /* \"#utility.yul\":4334:4335   */\n              dup2\n                /* \"#utility.yul\":4331:4344   */\n              lt\n                /* \"#utility.yul\":4312:4596   */\n              iszero\n              tag_452\n              jumpi\n                /* \"#utility.yul\":4413:4419   */\n              dup2\n                /* \"#utility.yul\":4407:4420   */\n              mload\n                /* \"#utility.yul\":4440:4503   */\n              tag_453\n                /* \"#utility.yul\":4499:4502   */\n              dup9\n                /* \"#utility.yul\":4484:4497   */\n              dup3\n                /* \"#utility.yul\":4440:4503   */\n              tag_360\n              jump\t// in\n            tag_453:\n                /* \"#utility.yul\":4433:4503   */\n              swap8\n              pop\n                /* \"#utility.yul\":4526:4586   */\n              tag_454\n                /* \"#utility.yul\":4579:4585   */\n              dup4\n                /* \"#utility.yul\":4526:4586   */\n              tag_361\n              jump\t// in\n            tag_454:\n                /* \"#utility.yul\":4516:4586   */\n              swap3\n              pop\n                /* \"#utility.yul\":4372:4596   */\n              pop\n                /* \"#utility.yul\":4359:4360   */\n              0x01\n                /* \"#utility.yul\":4356:4357   */\n              dup2\n                /* \"#utility.yul\":4352:4361   */\n              add\n                /* \"#utility.yul\":4347:4361   */\n              swap1\n              pop\n                /* \"#utility.yul\":4312:4596   */\n              jump(tag_450)\n            tag_452:\n                /* \"#utility.yul\":4316:4330   */\n              pop\n                /* \"#utility.yul\":4612:4615   */\n              dup6\n                /* \"#utility.yul\":4605:4615   */\n              swap4\n              pop\n                /* \"#utility.yul\":4013:4621   */\n              pop\n              pop\n              pop\n                /* \"#utility.yul\":3889:4621   */\n              swap3\n              swap2\n              pop\n              pop\n              jump\t// out\n                /* \"#utility.yul\":4627:4704   */\n            tag_363:\n                /* \"#utility.yul\":4664:4671   */\n              0x00\n                /* \"#utility.yul\":4693:4698   */\n              dup2\n                /* \"#utility.yul\":4682:4698   */\n              swap1\n              pop\n                /* \"#utility.yul\":4627:4704   */\n              swap2\n              swap1\n              pop\n              jump\t// out\n                /* \"#utility.yul\":4710:4828   */\n            tag_364:\n                /* \"#utility.yul\":4797:4821   */\n              tag_457\n                /* \"#utility.yul\":4815:4820   */\n              dup2\n                /* \"#utility.yul\":4797:4821   */\n              tag_363\n              jump\t// in\n            tag_457:\n                /* \"#utility.yul\":4792:4795   */\n              dup3\n                /* \"#utility.yul\":4785:4822   */\n              mstore\n                /* \"#utility.yul\":4710:4828   */\n              pop\n              pop\n              jump\t// out\n                /* \"#utility.yul\":4834:4952   */\n            tag_365:\n                /* \"#utility.yul\":4921:4945   */\n              tag_459\n                /* \"#utility.yul\":4939:4944   */\n              dup2\n                /* \"#utility.yul\":4921:4945   */\n              tag_351\n              jump\t// in\n            tag_459:\n                /* \"#utility.yul\":4916:4919   */\n              dup3\n                /* \"#utility.yul\":4909:4946   */\n              mstore\n                /* \"#utility.yul\":4834:4952   */\n              pop\n              pop\n              jump\t// out\n                /* \"#utility.yul\":4958:7045   */\n            tag_57:\n                /* \"#utility.yul\":5529:5533   */\n              0x00\n                /* \"#utility.yul\":5567:5570   */\n              0x0180\n                /* \"#utility.yul\":5556:5565   */\n              dup3\n                /* \"#utility.yul\":5552:5571   */\n              add\n                /* \"#utility.yul\":5544:5571   */\n              swap1\n              pop\n                /* \"#utility.yul\":5617:5626   */\n              dup2\n                /* \"#utility.yul\":5611:5615   */\n              dup2\n                /* \"#utility.yul\":5607:5627   */\n              sub\n                /* \"#utility.yul\":5603:5604   */\n              0x00\n                /* \"#utility.yul\":5592:5601   */\n              dup4\n                /* \"#utility.yul\":5588:5605   */\n              add\n                /* \"#utility.yul\":5581:5628   */\n              mstore\n                /* \"#utility.yul\":5645:5723   */\n              tag_461\n                /* \"#utility.yul\":5718:5722   */\n              dup2\n                /* \"#utility.yul\":5709:5715   */\n              dup16\n                /* \"#utility.yul\":5645:5723   */\n              tag_346\n              jump\t// in\n            tag_461:\n                /* \"#utility.yul\":5637:5723   */\n              swap1\n              pop\n                /* \"#utility.yul\":5770:5779   */\n              dup2\n                /* \"#utility.yul\":5764:5768   */\n              dup2\n                /* \"#utility.yul\":5760:5780   */\n              sub\n                /* \"#utility.yul\":5755:5757   */\n              0x20\n                /* \"#utility.yul\":5744:5753   */\n              dup4\n                /* \"#utility.yul\":5740:5758   */\n              add\n                /* \"#utility.yul\":5733:5781   */\n              mstore\n                /* \"#utility.yul\":5798:5876   */\n              tag_462\n                /* \"#utility.yul\":5871:5875   */\n              dup2\n                /* \"#utility.yul\":5862:5868   */\n              dup15\n                /* \"#utility.yul\":5798:5876   */\n              tag_346\n              jump\t// in\n            tag_462:\n                /* \"#utility.yul\":5790:5876   */\n              swap1\n              pop\n                /* \"#utility.yul\":5923:5932   */\n              dup2\n                /* \"#utility.yul\":5917:5921   */\n              dup2\n                /* \"#utility.yul\":5913:5933   */\n              sub\n                /* \"#utility.yul\":5908:5910   */\n              0x40\n                /* \"#utility.yul\":5897:5906   */\n              dup4\n                /* \"#utility.yul\":5893:5911   */\n              add\n                /* \"#utility.yul\":5886:5934   */\n              mstore\n                /* \"#utility.yul\":5951:6029   */\n              tag_463\n                /* \"#utility.yul\":6024:6028   */\n              dup2\n                /* \"#utility.yul\":6015:6021   */\n              dup14\n                /* \"#utility.yul\":5951:6029   */\n              tag_346\n              jump\t// in\n            tag_463:\n                /* \"#utility.yul\":5943:6029   */\n              swap1\n              pop\n                /* \"#utility.yul\":6076:6085   */\n              dup2\n                /* \"#utility.yul\":6070:6074   */\n              dup2\n                /* \"#utility.yul\":6066:6086   */\n              sub\n                /* \"#utility.yul\":6061:6063   */\n              0x60\n                /* \"#utility.yul\":6050:6059   */\n              dup4\n                /* \"#utility.yul\":6046:6064   */\n              add\n                /* \"#utility.yul\":6039:6087   */\n              mstore\n                /* \"#utility.yul\":6104:6212   */\n              tag_464\n                /* \"#utility.yul\":6207:6211   */\n              dup2\n                /* \"#utility.yul\":6198:6204   */\n              dup13\n                /* \"#utility.yul\":6104:6212   */\n              tag_362\n              jump\t// in\n            tag_464:\n                /* \"#utility.yul\":6096:6212   */\n              swap1\n              pop\n                /* \"#utility.yul\":6260:6269   */\n              dup2\n                /* \"#utility.yul\":6254:6258   */\n              dup2\n                /* \"#utility.yul\":6250:6270   */\n              sub\n                /* \"#utility.yul\":6244:6247   */\n              0x80\n                /* \"#utility.yul\":6233:6242   */\n              dup4\n                /* \"#utility.yul\":6229:6248   */\n              add\n                /* \"#utility.yul\":6222:6271   */\n              mstore\n                /* \"#utility.yul\":6288:6396   */\n              tag_465\n                /* \"#utility.yul\":6391:6395   */\n              dup2\n                /* \"#utility.yul\":6382:6388   */\n              dup12\n                /* \"#utility.yul\":6288:6396   */\n              tag_362\n              jump\t// in\n            tag_465:\n                /* \"#utility.yul\":6280:6396   */\n              swap1\n              pop\n                /* \"#utility.yul\":6406:6479   */\n              tag_466\n                /* \"#utility.yul\":6474:6477   */\n              0xa0\n                /* \"#utility.yul\":6463:6472   */\n              dup4\n                /* \"#utility.yul\":6459:6478   */\n              add\n                /* \"#utility.yul\":6450:6456   */\n              dup11\n                /* \"#utility.yul\":6406:6479   */\n              tag_364\n              jump\t// in\n            tag_466:\n                /* \"#utility.yul\":6489:6562   */\n              tag_467\n                /* \"#utility.yul\":6557:6560   */\n              0xc0\n                /* \"#utility.yul\":6546:6555   */\n              dup4\n                /* \"#utility.yul\":6542:6561   */\n              add\n                /* \"#utility.yul\":6533:6539   */\n              dup10\n                /* \"#utility.yul\":6489:6562   */\n              tag_364\n              jump\t// in\n            tag_467:\n                /* \"#utility.yul\":6572:6639   */\n              tag_468\n                /* \"#utility.yul\":6634:6637   */\n              0xe0\n                /* \"#utility.yul\":6623:6632   */\n              dup4\n                /* \"#utility.yul\":6619:6638   */\n              add\n                /* \"#utility.yul\":6610:6616   */\n              dup9\n                /* \"#utility.yul\":6572:6639   */\n              tag_355\n              jump\t// in\n            tag_468:\n                /* \"#utility.yul\":6687:6696   */\n              dup2\n                /* \"#utility.yul\":6681:6685   */\n              dup2\n                /* \"#utility.yul\":6677:6697   */\n              sub\n                /* \"#utility.yul\":6671:6674   */\n              0x0100\n                /* \"#utility.yul\":6660:6669   */\n              dup4\n                /* \"#utility.yul\":6656:6675   */\n              add\n                /* \"#utility.yul\":6649:6698   */\n              mstore\n                /* \"#utility.yul\":6715:6793   */\n              tag_469\n                /* \"#utility.yul\":6788:6792   */\n              dup2\n                /* \"#utility.yul\":6779:6785   */\n              dup8\n                /* \"#utility.yul\":6715:6793   */\n              tag_346\n              jump\t// in\n            tag_469:\n                /* \"#utility.yul\":6707:6793   */\n              swap1\n              pop\n                /* \"#utility.yul\":6803:6876   */\n              tag_470\n                /* \"#utility.yul\":6871:6874   */\n              0x0120\n                /* \"#utility.yul\":6860:6869   */\n              dup4\n                /* \"#utility.yul\":6856:6875   */\n              add\n                /* \"#utility.yul\":6847:6853   */\n              dup7\n                /* \"#utility.yul\":6803:6876   */\n              tag_364\n              jump\t// in\n            tag_470:\n                /* \"#utility.yul\":6886:6954   */\n              tag_471\n                /* \"#utility.yul\":6949:6952   */\n              0x0140\n                /* \"#utility.yul\":6938:6947   */\n              dup4\n                /* \"#utility.yul\":6934:6953   */\n              add\n                /* \"#utility.yul\":6924:6931   */\n              dup6\n                /* \"#utility.yul\":6886:6954   */\n              tag_355\n              jump\t// in\n            tag_471:\n                /* \"#utility.yul\":6964:7038   */\n              tag_472\n                /* \"#utility.yul\":7033:7036   */\n              0x0160\n                /* \"#utility.yul\":7022:7031   */\n              dup4\n                /* \"#utility.yul\":7018:7037   */\n              add\n                /* \"#utility.yul\":7008:7015   */\n              dup5\n                /* \"#utility.yul\":6964:7038   */\n              tag_365\n              jump\t// in\n            tag_472:\n                /* \"#utility.yul\":4958:7045   */\n              swap14\n              swap13\n              pop\n              pop\n              pop\n              pop\n              pop\n              pop\n              pop\n              pop\n              pop\n              pop\n              pop\n              pop\n              pop\n              jump\t// out\n                /* \"#utility.yul\":7051:7173   */\n            tag_366:\n                /* \"#utility.yul\":7124:7148   */\n              tag_474\n                /* \"#utility.yul\":7142:7147   */\n              dup2\n                /* \"#utility.yul\":7124:7148   */\n              tag_363\n              jump\t// in\n            tag_474:\n                /* \"#utility.yul\":7117:7122   */\n              dup2\n                /* \"#utility.yul\":7114:7149   */\n              eq\n                /* \"#utility.yul\":7104:7167   */\n              tag_475\n              jumpi\n                /* \"#utility.yul\":7163:7164   */\n              0x00\n                /* \"#utility.yul\":7160:7161   */\n              dup1\n                /* \"#utility.yul\":7153:7165   */\n              revert\n                /* \"#utility.yul\":7104:7167   */\n            tag_475:\n                /* \"#utility.yul\":7051:7173   */\n              pop\n              jump\t// out\n                /* \"#utility.yul\":7179:7318   */\n            tag_367:\n                /* \"#utility.yul\":7225:7230   */\n              0x00\n                /* \"#utility.yul\":7263:7269   */\n              dup2\n                /* \"#utility.yul\":7250:7270   */\n              calldataload\n                /* \"#utility.yul\":7241:7270   */\n              swap1\n              pop\n                /* \"#utility.yul\":7279:7312   */\n              tag_477\n                /* \"#utility.yul\":7306:7311   */\n              dup2\n                /* \"#utility.yul\":7279:7312   */\n              tag_366\n              jump\t// in\n            tag_477:\n                /* \"#utility.yul\":7179:7318   */\n              swap3\n              swap2\n              pop\n              pop\n              jump\t// out\n                /* \"#utility.yul\":7324:7653   */\n            tag_60:\n                /* \"#utility.yul\":7383:7389   */\n              0x00\n                /* \"#utility.yul\":7432:7434   */\n              0x20\n                /* \"#utility.yul\":7420:7429   */\n              dup3\n                /* \"#utility.yul\":7411:7418   */\n              dup5\n                /* \"#utility.yul\":7407:7430   */\n              sub\n                /* \"#utility.yul\":7403:7435   */\n              slt\n                /* \"#utility.yul\":7400:7519   */\n              iszero\n              tag_479\n              jumpi\n                /* \"#utility.yul\":7438:7517   */\n              tag_480\n              tag_348\n              jump\t// in\n            tag_480:\n                /* \"#utility.yul\":7400:7519   */\n            tag_479:\n                /* \"#utility.yul\":7558:7559   */\n              0x00\n                /* \"#utility.yul\":7583:7636   */\n              tag_481\n                /* \"#utility.yul\":7628:7635   */\n              dup5\n                /* \"#utility.yul\":7619:7625   */\n              dup3\n                /* \"#utility.yul\":7608:7617   */\n              dup6\n                /* \"#utility.yul\":7604:7626   */\n              add\n                /* \"#utility.yul\":7583:7636   */\n              tag_367\n              jump\t// in\n            tag_481:\n                /* \"#utility.yul\":7573:7636   */\n              swap2\n              pop\n                /* \"#utility.yul\":7529:7646   */\n              pop\n                /* \"#utility.yul\":7324:7653   */\n              swap3\n              swap2\n              pop\n              pop\n              jump\t// out\n                /* \"#utility.yul\":7659:8200   */\n            tag_75:\n                /* \"#utility.yul\":7830:7834   */\n              0x00\n                /* \"#utility.yul\":7868:7871   */\n              0x80\n                /* \"#utility.yul\":7857:7866   */\n              dup3\n                /* \"#utility.yul\":7853:7872   */\n              add\n                /* \"#utility.yul\":7845:7872   */\n              swap1\n              pop\n                /* \"#utility.yul\":7882:7953   */\n              tag_483\n                /* \"#utility.yul\":7950:7951   */\n              0x00\n                /* \"#utility.yul\":7939:7948   */\n              dup4\n                /* \"#utility.yul\":7935:7952   */\n              add\n                /* \"#utility.yul\":7926:7932   */\n              dup8\n                /* \"#utility.yul\":7882:7953   */\n              tag_364\n              jump\t// in\n            tag_483:\n                /* \"#utility.yul\":7963:8035   */\n              tag_484\n                /* \"#utility.yul\":8031:8033   */\n              0x20\n                /* \"#utility.yul\":8020:8029   */\n              dup4\n                /* \"#utility.yul\":8016:8034   */\n              add\n                /* \"#utility.yul\":8007:8013   */\n              dup7\n                /* \"#utility.yul\":7963:8035   */\n              tag_365\n              jump\t// in\n            tag_484:\n                /* \"#utility.yul\":8045:8117   */\n              tag_485\n                /* \"#utility.yul\":8113:8115   */\n              0x40\n                /* \"#utility.yul\":8102:8111   */\n              dup4\n                /* \"#utility.yul\":8098:8116   */\n              add\n                /* \"#utility.yul\":8089:8095   */\n              dup6\n                /* \"#utility.yul\":8045:8117   */\n              tag_364\n              jump\t// in\n            tag_485:\n                /* \"#utility.yul\":8127:8193   */\n              tag_486\n                /* \"#utility.yul\":8189:8191   */\n              0x60\n                /* \"#utility.yul\":8178:8187   */\n              dup4\n                /* \"#utility.yul\":8174:8192   */\n              add\n                /* \"#utility.yul\":8165:8171   */\n              dup5\n                /* \"#utility.yul\":8127:8193   */\n              tag_355\n              jump\t// in\n            tag_486:\n                /* \"#utility.yul\":7659:8200   */\n              swap6\n              swap5\n              pop\n              pop\n              pop\n              pop\n              pop\n              jump\t// out\n                /* \"#utility.yul\":8206:8838   */\n            tag_81:\n                /* \"#utility.yul\":8397:8401   */\n              0x00\n                /* \"#utility.yul\":8435:8438   */\n              0x80\n                /* \"#utility.yul\":8424:8433   */\n              dup3\n                /* \"#utility.yul\":8420:8439   */\n              add\n                /* \"#utility.yul\":8412:8439   */\n              swap1\n              pop\n                /* \"#utility.yul\":8485:8494   */\n              dup2\n                /* \"#utility.yul\":8479:8483   */\n              dup2\n                /* \"#utility.yul\":8475:8495   */\n              sub\n                /* \"#utility.yul\":8471:8472   */\n              0x00\n                /* \"#utility.yul\":8460:8469   */\n              dup4\n                /* \"#utility.yul\":8456:8473   */\n              add\n                /* \"#utility.yul\":8449:8496   */\n              mstore\n                /* \"#utility.yul\":8513:8591   */\n              tag_488\n                /* \"#utility.yul\":8586:8590   */\n              dup2\n                /* \"#utility.yul\":8577:8583   */\n              dup8\n                /* \"#utility.yul\":8513:8591   */\n              tag_346\n              jump\t// in\n            tag_488:\n                /* \"#utility.yul\":8505:8591   */\n              swap1\n              pop\n                /* \"#utility.yul\":8601:8673   */\n              tag_489\n                /* \"#utility.yul\":8669:8671   */\n              0x20\n                /* \"#utility.yul\":8658:8667   */\n              dup4\n                /* \"#utility.yul\":8654:8672   */\n              add\n                /* \"#utility.yul\":8645:8651   */\n              dup7\n                /* \"#utility.yul\":8601:8673   */\n              tag_365\n              jump\t// in\n            tag_489:\n                /* \"#utility.yul\":8683:8755   */\n              tag_490\n                /* \"#utility.yul\":8751:8753   */\n              0x40\n                /* \"#utility.yul\":8740:8749   */\n              dup4\n                /* \"#utility.yul\":8736:8754   */\n              add\n                /* \"#utility.yul\":8727:8733   */\n              dup6\n                /* \"#utility.yul\":8683:8755   */\n              tag_364\n              jump\t// in\n            tag_490:\n                /* \"#utility.yul\":8765:8831   */\n              tag_491\n                /* \"#utility.yul\":8827:8829   */\n              0x60\n                /* \"#utility.yul\":8816:8825   */\n              dup4\n                /* \"#utility.yul\":8812:8830   */\n              add\n                /* \"#utility.yul\":8803:8809   */\n              dup5\n                /* \"#utility.yul\":8765:8831   */\n              tag_355\n              jump\t// in\n            tag_491:\n                /* \"#utility.yul\":8206:8838   */\n              swap6\n              swap5\n              pop\n              pop\n              pop\n              pop\n              pop\n              jump\t// out\n                /* \"#utility.yul\":8844:9066   */\n            tag_91:\n                /* \"#utility.yul\":8937:8941   */\n              0x00\n                /* \"#utility.yul\":8975:8977   */\n              0x20\n                /* \"#utility.yul\":8964:8973   */\n              dup3\n                /* \"#utility.yul\":8960:8978   */\n              add\n                /* \"#utility.yul\":8952:8978   */\n              swap1\n              pop\n                /* \"#utility.yul\":8988:9059   */\n              tag_493\n                /* \"#utility.yul\":9056:9057   */\n              0x00\n                /* \"#utility.yul\":9045:9054   */\n              dup4\n                /* \"#utility.yul\":9041:9058   */\n              add\n                /* \"#utility.yul\":9032:9038   */\n              dup5\n                /* \"#utility.yul\":8988:9059   */\n              tag_365\n              jump\t// in\n            tag_493:\n                /* \"#utility.yul\":8844:9066   */\n              swap3\n              swap2\n              pop\n              pop\n              jump\t// out\n                /* \"#utility.yul\":9072:9189   */\n            tag_368:\n                /* \"#utility.yul\":9181:9182   */\n              0x00\n                /* \"#utility.yul\":9178:9179   */\n              dup1\n                /* \"#utility.yul\":9171:9183   */\n              revert\n                /* \"#utility.yul\":9195:9312   */\n            tag_369:\n                /* \"#utility.yul\":9304:9305   */\n              0x00\n                /* \"#utility.yul\":9301:9302   */\n              dup1\n                /* \"#utility.yul\":9294:9306   */\n              revert\n                /* \"#utility.yul\":9318:9498   */\n            tag_370:\n                /* \"#utility.yul\":9366:9443   */\n              0x4e487b7100000000000000000000000000000000000000000000000000000000\n                /* \"#utility.yul\":9363:9364   */\n              0x00\n                /* \"#utility.yul\":9356:9444   */\n              mstore\n                /* \"#utility.yul\":9463:9467   */\n              0x41\n                /* \"#utility.yul\":9460:9461   */\n              0x04\n                /* \"#utility.yul\":9453:9468   */\n              mstore\n                /* \"#utility.yul\":9487:9491   */\n              0x24\n                /* \"#utility.yul\":9484:9485   */\n              0x00\n                /* \"#utility.yul\":9477:9492   */\n              revert\n                /* \"#utility.yul\":9504:9785   */\n            tag_371:\n                /* \"#utility.yul\":9587:9614   */\n              tag_498\n                /* \"#utility.yul\":9609:9613   */\n              dup3\n                /* \"#utility.yul\":9587:9614   */\n              tag_345\n              jump\t// in\n            tag_498:\n                /* \"#utility.yul\":9579:9585   */\n              dup2\n                /* \"#utility.yul\":9575:9615   */\n              add\n                /* \"#utility.yul\":9717:9723   */\n              dup2\n                /* \"#utility.yul\":9705:9715   */\n              dup2\n                /* \"#utility.yul\":9702:9724   */\n              lt\n                /* \"#utility.yul\":9681:9699   */\n              0xffffffffffffffff\n                /* \"#utility.yul\":9669:9679   */\n              dup3\n                /* \"#utility.yul\":9666:9700   */\n              gt\n                /* \"#utility.yul\":9663:9725   */\n              or\n                /* \"#utility.yul\":9660:9748   */\n              iszero\n              tag_499\n              jumpi\n                /* \"#utility.yul\":9728:9746   */\n              tag_500\n              tag_370\n              jump\t// in\n            tag_500:\n                /* \"#utility.yul\":9660:9748   */\n            tag_499:\n                /* \"#utility.yul\":9768:9778   */\n              dup1\n                /* \"#utility.yul\":9764:9766   */\n              0x40\n                /* \"#utility.yul\":9757:9779   */\n              mstore\n                /* \"#utility.yul\":9547:9785   */\n              pop\n                /* \"#utility.yul\":9504:9785   */\n              pop\n              pop\n              jump\t// out\n                /* \"#utility.yul\":9791:9920   */\n            tag_372:\n                /* \"#utility.yul\":9825:9831   */\n              0x00\n                /* \"#utility.yul\":9852:9872   */\n              tag_502\n              tag_347\n              jump\t// in\n            tag_502:\n                /* \"#utility.yul\":9842:9872   */\n              swap1\n              pop\n                /* \"#utility.yul\":9881:9914   */\n              tag_503\n                /* \"#utility.yul\":9909:9913   */\n              dup3\n                /* \"#utility.yul\":9901:9907   */\n              dup3\n                /* \"#utility.yul\":9881:9914   */\n              tag_371\n              jump\t// in\n            tag_503:\n                /* \"#utility.yul\":9791:9920   */\n              swap2\n              swap1\n              pop\n              jump\t// out\n                /* \"#utility.yul\":9926:10234   */\n            tag_373:\n                /* \"#utility.yul\":9988:9992   */\n              0x00\n                /* \"#utility.yul\":10078:10096   */\n              0xffffffffffffffff\n                /* \"#utility.yul\":10070:10076   */\n              dup3\n                /* \"#utility.yul\":10067:10097   */\n              gt\n                /* \"#utility.yul\":10064:10120   */\n              iszero\n              tag_505\n              jumpi\n                /* \"#utility.yul\":10100:10118   */\n              tag_506\n              tag_370\n              jump\t// in\n            tag_506:\n                /* \"#utility.yul\":10064:10120   */\n            tag_505:\n                /* \"#utility.yul\":10138:10167   */\n              tag_507\n                /* \"#utility.yul\":10160:10166   */\n              dup3\n                /* \"#utility.yul\":10138:10167   */\n              tag_345\n              jump\t// in\n            tag_507:\n                /* \"#utility.yul\":10130:10167   */\n              swap1\n              pop\n                /* \"#utility.yul\":10222:10226   */\n              0x20\n                /* \"#utility.yul\":10216:10220   */\n              dup2\n                /* \"#utility.yul\":10212:10227   */\n              add\n                /* \"#utility.yul\":10204:10227   */\n              swap1\n              pop\n                /* \"#utility.yul\":9926:10234   */\n              swap2\n              swap1\n              pop\n              jump\t// out\n                /* \"#utility.yul\":10240:10394   */\n            tag_374:\n                /* \"#utility.yul\":10324:10330   */\n              dup3\n                /* \"#utility.yul\":10319:10322   */\n              dup2\n                /* \"#utility.yul\":10314:10317   */\n              dup4\n                /* \"#utility.yul\":10301:10331   */\n              calldatacopy\n                /* \"#utility.yul\":10386:10387   */\n              0x00\n                /* \"#utility.yul\":10377:10383   */\n              dup4\n                /* \"#utility.yul\":10372:10375   */\n              dup4\n                /* \"#utility.yul\":10368:10384   */\n              add\n                /* \"#utility.yul\":10361:10388   */\n              mstore\n                /* \"#utility.yul\":10240:10394   */\n              pop\n              pop\n              pop\n              jump\t// out\n                /* \"#utility.yul\":10400:10812   */\n            tag_375:\n                /* \"#utility.yul\":10478:10483   */\n              0x00\n                /* \"#utility.yul\":10503:10569   */\n              tag_510\n                /* \"#utility.yul\":10519:10568   */\n              tag_511\n                /* \"#utility.yul\":10561:10567   */\n              dup5\n                /* \"#utility.yul\":10519:10568   */\n              tag_373\n              jump\t// in\n            tag_511:\n                /* \"#utility.yul\":10503:10569   */\n              tag_372\n              jump\t// in\n            tag_510:\n                /* \"#utility.yul\":10494:10569   */\n              swap1\n              pop\n                /* \"#utility.yul\":10592:10598   */\n              dup3\n                /* \"#utility.yul\":10585:10590   */\n              dup2\n                /* \"#utility.yul\":10578:10599   */\n              mstore\n                /* \"#utility.yul\":10630:10634   */\n              0x20\n                /* \"#utility.yul\":10623:10628   */\n              dup2\n                /* \"#utility.yul\":10619:10635   */\n              add\n                /* \"#utility.yul\":10668:10671   */\n              dup5\n                /* \"#utility.yul\":10659:10665   */\n              dup5\n                /* \"#utility.yul\":10654:10657   */\n              dup5\n                /* \"#utility.yul\":10650:10666   */\n              add\n                /* \"#utility.yul\":10647:10672   */\n              gt\n                /* \"#utility.yul\":10644:10756   */\n              iszero\n              tag_512\n              jumpi\n                /* \"#utility.yul\":10675:10754   */\n              tag_513\n              tag_369\n              jump\t// in\n            tag_513:\n                /* \"#utility.yul\":10644:10756   */\n            tag_512:\n                /* \"#utility.yul\":10765:10806   */\n              tag_514\n                /* \"#utility.yul\":10799:10805   */\n              dup5\n                /* \"#utility.yul\":10794:10797   */\n              dup3\n                /* \"#utility.yul\":10789:10792   */\n              dup6\n                /* \"#utility.yul\":10765:10806   */\n              tag_374\n              jump\t// in\n            tag_514:\n                /* \"#utility.yul\":10484:10812   */\n              pop\n                /* \"#utility.yul\":10400:10812   */\n              swap4\n              swap3\n              pop\n              pop\n              pop\n              jump\t// out\n                /* \"#utility.yul\":10832:11172   */\n            tag_376:\n                /* \"#utility.yul\":10888:10893   */\n              0x00\n                /* \"#utility.yul\":10937:10940   */\n              dup3\n                /* \"#utility.yul\":10930:10934   */\n              0x1f\n                /* \"#utility.yul\":10922:10928   */\n              dup4\n                /* \"#utility.yul\":10918:10935   */\n              add\n                /* \"#utility.yul\":10914:10941   */\n              slt\n                /* \"#utility.yul\":10904:11026   */\n              tag_516\n              jumpi\n                /* \"#utility.yul\":10945:11024   */\n              tag_517\n              tag_368\n              jump\t// in\n            tag_517:\n                /* \"#utility.yul\":10904:11026   */\n            tag_516:\n                /* \"#utility.yul\":11062:11068   */\n              dup2\n                /* \"#utility.yul\":11049:11069   */\n              calldataload\n                /* \"#utility.yul\":11087:11166   */\n              tag_518\n                /* \"#utility.yul\":11162:11165   */\n              dup5\n                /* \"#utility.yul\":11154:11160   */\n              dup3\n                /* \"#utility.yul\":11147:11151   */\n              0x20\n                /* \"#utility.yul\":11139:11145   */\n              dup7\n                /* \"#utility.yul\":11135:11152   */\n              add\n                /* \"#utility.yul\":11087:11166   */\n              tag_375\n              jump\t// in\n            tag_518:\n                /* \"#utility.yul\":11078:11166   */\n              swap2\n              pop\n                /* \"#utility.yul\":10894:11172   */\n              pop\n                /* \"#utility.yul\":10832:11172   */\n              swap3\n              swap2\n              pop\n              pop\n              jump\t// out\n                /* \"#utility.yul\":11178:12303   */\n            tag_99:\n                /* \"#utility.yul\":11284:11290   */\n              0x00\n                /* \"#utility.yul\":11292:11298   */\n              dup1\n                /* \"#utility.yul\":11300:11306   */\n              0x00\n                /* \"#utility.yul\":11308:11314   */\n              dup1\n                /* \"#utility.yul\":11357:11360   */\n              0x80\n                /* \"#utility.yul\":11345:11354   */\n              dup6\n                /* \"#utility.yul\":11336:11343   */\n              dup8\n                /* \"#utility.yul\":11332:11355   */\n              sub\n                /* \"#utility.yul\":11328:11361   */\n              slt\n                /* \"#utility.yul\":11325:11445   */\n              iszero\n              tag_520\n              jumpi\n                /* \"#utility.yul\":11364:11443   */\n              tag_521\n              tag_348\n              jump\t// in\n            tag_521:\n                /* \"#utility.yul\":11325:11445   */\n            tag_520:\n                /* \"#utility.yul\":11512:11513   */\n              0x00\n                /* \"#utility.yul\":11501:11510   */\n              dup6\n                /* \"#utility.yul\":11497:11514   */\n              add\n                /* \"#utility.yul\":11484:11515   */\n              calldataload\n                /* \"#utility.yul\":11542:11560   */\n              0xffffffffffffffff\n                /* \"#utility.yul\":11534:11540   */\n              dup2\n                /* \"#utility.yul\":11531:11561   */\n              gt\n                /* \"#utility.yul\":11528:11645   */\n              iszero\n              tag_522\n              jumpi\n                /* \"#utility.yul\":11564:11643   */\n              tag_523\n              tag_349\n              jump\t// in\n            tag_523:\n                /* \"#utility.yul\":11528:11645   */\n            tag_522:\n                /* \"#utility.yul\":11669:11732   */\n              tag_524\n                /* \"#utility.yul\":11724:11731   */\n              dup8\n                /* \"#utility.yul\":11715:11721   */\n              dup3\n                /* \"#utility.yul\":11704:11713   */\n              dup9\n                /* \"#utility.yul\":11700:11722   */\n              add\n                /* \"#utility.yul\":11669:11732   */\n              tag_376\n              jump\t// in\n            tag_524:\n                /* \"#utility.yul\":11659:11732   */\n              swap5\n              pop\n                /* \"#utility.yul\":11455:11742   */\n              pop\n                /* \"#utility.yul\":11809:11811   */\n              0x20\n                /* \"#utility.yul\":11798:11807   */\n              dup6\n                /* \"#utility.yul\":11794:11812   */\n              add\n                /* \"#utility.yul\":11781:11813   */\n              calldataload\n                /* \"#utility.yul\":11840:11858   */\n              0xffffffffffffffff\n                /* \"#utility.yul\":11832:11838   */\n              dup2\n                /* \"#utility.yul\":11829:11859   */\n              gt\n                /* \"#utility.yul\":11826:11943   */\n              iszero\n              tag_525\n              jumpi\n                /* \"#utility.yul\":11862:11941   */\n              tag_526\n              tag_349\n              jump\t// in\n            tag_526:\n                /* \"#utility.yul\":11826:11943   */\n            tag_525:\n                /* \"#utility.yul\":11967:12030   */\n              tag_527\n                /* \"#utility.yul\":12022:12029   */\n              dup8\n                /* \"#utility.yul\":12013:12019   */\n              dup3\n                /* \"#utility.yul\":12002:12011   */\n              dup9\n                /* \"#utility.yul\":11998:12020   */\n              add\n                /* \"#utility.yul\":11967:12030   */\n              tag_376\n              jump\t// in\n            tag_527:\n                /* \"#utility.yul\":11957:12030   */\n              swap4\n              pop\n                /* \"#utility.yul\":11752:12040   */\n              pop\n                /* \"#utility.yul\":12079:12081   */\n              0x40\n                /* \"#utility.yul\":12105:12158   */\n              tag_528\n                /* \"#utility.yul\":12150:12157   */\n              dup8\n                /* \"#utility.yul\":12141:12147   */\n              dup3\n                /* \"#utility.yul\":12130:12139   */\n              dup9\n                /* \"#utility.yul\":12126:12148   */\n              add\n                /* \"#utility.yul\":12105:12158   */\n              tag_353\n              jump\t// in\n            tag_528:\n                /* \"#utility.yul\":12095:12158   */\n              swap3\n              pop\n                /* \"#utility.yul\":12050:12168   */\n              pop\n                /* \"#utility.yul\":12207:12209   */\n              0x60\n                /* \"#utility.yul\":12233:12286   */\n              tag_529\n                /* \"#utility.yul\":12278:12285   */\n              dup8\n                /* \"#utility.yul\":12269:12275   */\n              dup3\n                /* \"#utility.yul\":12258:12267   */\n              dup9\n                /* \"#utility.yul\":12254:12276   */\n              add\n                /* \"#utility.yul\":12233:12286   */\n              tag_353\n              jump\t// in\n            tag_529:\n                /* \"#utility.yul\":12223:12286   */\n              swap2\n              pop\n                /* \"#utility.yul\":12178:12296   */\n              pop\n                /* \"#utility.yul\":11178:12303   */\n              swap3\n              swap6\n              swap2\n              swap5\n              pop\n              swap3\n              pop\n              jump\t// out\n                /* \"#utility.yul\":12309:12818   */\n            tag_118:\n                /* \"#utility.yul\":12378:12384   */\n              0x00\n                /* \"#utility.yul\":12427:12429   */\n              0x20\n                /* \"#utility.yul\":12415:12424   */\n              dup3\n                /* \"#utility.yul\":12406:12413   */\n              dup5\n                /* \"#utility.yul\":12402:12425   */\n              sub\n                /* \"#utility.yul\":12398:12430   */\n              slt\n                /* \"#utility.yul\":12395:12514   */\n              iszero\n              tag_531\n              jumpi\n                /* \"#utility.yul\":12433:12512   */\n              tag_532\n              tag_348\n              jump\t// in\n            tag_532:\n                /* \"#utility.yul\":12395:12514   */\n            tag_531:\n                /* \"#utility.yul\":12581:12582   */\n              0x00\n                /* \"#utility.yul\":12570:12579   */\n              dup3\n                /* \"#utility.yul\":12566:12583   */\n              add\n                /* \"#utility.yul\":12553:12584   */\n              calldataload\n                /* \"#utility.yul\":12611:12629   */\n              0xffffffffffffffff\n                /* \"#utility.yul\":12603:12609   */\n              dup2\n                /* \"#utility.yul\":12600:12630   */\n              gt\n                /* \"#utility.yul\":12597:12714   */\n              iszero\n              tag_533\n              jumpi\n                /* \"#utility.yul\":12633:12712   */\n              tag_534\n              tag_349\n              jump\t// in\n            tag_534:\n                /* \"#utility.yul\":12597:12714   */\n            tag_533:\n                /* \"#utility.yul\":12738:12801   */\n              tag_535\n                /* \"#utility.yul\":12793:12800   */\n              dup5\n                /* \"#utility.yul\":12784:12790   */\n              dup3\n                /* \"#utility.yul\":12773:12782   */\n              dup6\n                /* \"#utility.yul\":12769:12791   */\n              add\n                /* \"#utility.yul\":12738:12801   */\n              tag_376\n              jump\t// in\n            tag_535:\n                /* \"#utility.yul\":12728:12801   */\n              swap2\n              pop\n                /* \"#utility.yul\":12524:12811   */\n              pop\n                /* \"#utility.yul\":12309:12818   */\n              swap3\n              swap2\n              pop\n              pop\n              jump\t// out\n                /* \"#utility.yul\":12824:13046   */\n            tag_128:\n                /* \"#utility.yul\":12917:12921   */\n              0x00\n                /* \"#utility.yul\":12955:12957   */\n              0x20\n                /* \"#utility.yul\":12944:12953   */\n              dup3\n                /* \"#utility.yul\":12940:12958   */\n              add\n                /* \"#utility.yul\":12932:12958   */\n              swap1\n              pop\n                /* \"#utility.yul\":12968:13039   */\n              tag_537\n                /* \"#utility.yul\":13036:13037   */\n              0x00\n                /* \"#utility.yul\":13025:13034   */\n              dup4\n                /* \"#utility.yul\":13021:13038   */\n              add\n                /* \"#utility.yul\":13012:13018   */\n              dup5\n                /* \"#utility.yul\":12968:13039   */\n              tag_364\n              jump\t// in\n            tag_537:\n                /* \"#utility.yul\":12824:13046   */\n              swap3\n              swap2\n              pop\n              pop\n              jump\t// out\n                /* \"#utility.yul\":13052:13216   */\n            tag_377:\n                /* \"#utility.yul\":13192:13208   */\n              0x5265656e7472616e742063616c6c000000000000000000000000000000000000\n                /* \"#utility.yul\":13188:13189   */\n              0x00\n                /* \"#utility.yul\":13180:13186   */\n              dup3\n                /* \"#utility.yul\":13176:13190   */\n              add\n                /* \"#utility.yul\":13169:13209   */\n              mstore\n                /* \"#utility.yul\":13052:13216   */\n              pop\n              jump\t// out\n                /* \"#utility.yul\":13222:13588   */\n            tag_378:\n                /* \"#utility.yul\":13364:13367   */\n              0x00\n                /* \"#utility.yul\":13385:13452   */\n              tag_540\n                /* \"#utility.yul\":13449:13451   */\n              0x0e\n                /* \"#utility.yul\":13444:13447   */\n              dup4\n                /* \"#utility.yul\":13385:13452   */\n              tag_343\n              jump\t// in\n            tag_540:\n                /* \"#utility.yul\":13378:13452   */\n              swap2\n              pop\n                /* \"#utility.yul\":13461:13554   */\n              tag_541\n                /* \"#utility.yul\":13550:13553   */\n              dup3\n                /* \"#utility.yul\":13461:13554   */\n              tag_377\n              jump\t// in\n            tag_541:\n                /* \"#utility.yul\":13579:13581   */\n              0x20\n                /* \"#utility.yul\":13574:13577   */\n              dup3\n                /* \"#utility.yul\":13570:13582   */\n              add\n                /* \"#utility.yul\":13563:13582   */\n              swap1\n              pop\n                /* \"#utility.yul\":13222:13588   */\n              swap2\n              swap1\n              pop\n              jump\t// out\n                /* \"#utility.yul\":13594:14013   */\n            tag_132:\n                /* \"#utility.yul\":13760:13764   */\n              0x00\n                /* \"#utility.yul\":13798:13800   */\n              0x20\n                /* \"#utility.yul\":13787:13796   */\n              dup3\n                /* \"#utility.yul\":13783:13801   */\n              add\n                /* \"#utility.yul\":13775:13801   */\n              swap1\n              pop\n                /* \"#utility.yul\":13847:13856   */\n              dup2\n                /* \"#utility.yul\":13841:13845   */\n              dup2\n                /* \"#utility.yul\":13837:13857   */\n              sub\n                /* \"#utility.yul\":13833:13834   */\n              0x00\n                /* \"#utility.yul\":13822:13831   */\n              dup4\n                /* \"#utility.yul\":13818:13835   */\n              add\n                /* \"#utility.yul\":13811:13858   */\n              mstore\n                /* \"#utility.yul\":13875:14006   */\n              tag_543\n                /* \"#utility.yul\":14001:14005   */\n              dup2\n                /* \"#utility.yul\":13875:14006   */\n              tag_378\n              jump\t// in\n            tag_543:\n                /* \"#utility.yul\":13867:14006   */\n              swap1\n              pop\n                /* \"#utility.yul\":13594:14013   */\n              swap2\n              swap1\n              pop\n              jump\t// out\n                /* \"#utility.yul\":14019:14195   */\n            tag_379:\n                /* \"#utility.yul\":14159:14187   */\n              0x546869732073746f727920686173206265656e20626f75676874000000000000\n                /* \"#utility.yul\":14155:14156   */\n              0x00\n                /* \"#utility.yul\":14147:14153   */\n              dup3\n                /* \"#utility.yul\":14143:14157   */\n              add\n                /* \"#utility.yul\":14136:14188   */\n              mstore\n                /* \"#utility.yul\":14019:14195   */\n              pop\n              jump\t// out\n                /* \"#utility.yul\":14201:14567   */\n            tag_380:\n                /* \"#utility.yul\":14343:14346   */\n              0x00\n                /* \"#utility.yul\":14364:14431   */\n              tag_546\n                /* \"#utility.yul\":14428:14430   */\n              0x1a\n                /* \"#utility.yul\":14423:14426   */\n              dup4\n                /* \"#utility.yul\":14364:14431   */\n              tag_343\n              jump\t// in\n            tag_546:\n                /* \"#utility.yul\":14357:14431   */\n              swap2\n              pop\n                /* \"#utility.yul\":14440:14533   */\n              tag_547\n                /* \"#utility.yul\":14529:14532   */\n              dup3\n                /* \"#utility.yul\":14440:14533   */\n              tag_379\n              jump\t// in\n            tag_547:\n                /* \"#utility.yul\":14558:14560   */\n              0x20\n                /* \"#utility.yul\":14553:14556   */\n              dup3\n                /* \"#utility.yul\":14549:14561   */\n              add\n                /* \"#utility.yul\":14542:14561   */\n              swap1\n              pop\n                /* \"#utility.yul\":14201:14567   */\n              swap2\n              swap1\n              pop\n              jump\t// out\n                /* \"#utility.yul\":14573:14992   */\n            tag_136:\n                /* \"#utility.yul\":14739:14743   */\n              0x00\n                /* \"#utility.yul\":14777:14779   */\n              0x20\n                /* \"#utility.yul\":14766:14775   */\n              dup3\n                /* \"#utility.yul\":14762:14780   */\n              add\n                /* \"#utility.yul\":14754:14780   */\n              swap1\n              pop\n                /* \"#utility.yul\":14826:14835   */\n              dup2\n                /* \"#utility.yul\":14820:14824   */\n              dup2\n                /* \"#utility.yul\":14816:14836   */\n              sub\n                /* \"#utility.yul\":14812:14813   */\n              0x00\n                /* \"#utility.yul\":14801:14810   */\n              dup4\n                /* \"#utility.yul\":14797:14814   */\n              add\n                /* \"#utility.yul\":14790:14837   */\n              mstore\n                /* \"#utility.yul\":14854:14985   */\n              tag_549\n                /* \"#utility.yul\":14980:14984   */\n              dup2\n                /* \"#utility.yul\":14854:14985   */\n              tag_380\n              jump\t// in\n            tag_549:\n                /* \"#utility.yul\":14846:14985   */\n              swap1\n              pop\n                /* \"#utility.yul\":14573:14992   */\n              swap2\n              swap1\n              pop\n              jump\t// out\n                /* \"#utility.yul\":14998:15176   */\n            tag_381:\n                /* \"#utility.yul\":15138:15168   */\n              0x546869732073746f727920686173206265656e207265706f7274656400000000\n                /* \"#utility.yul\":15134:15135   */\n              0x00\n                /* \"#utility.yul\":15126:15132   */\n              dup3\n                /* \"#utility.yul\":15122:15136   */\n              add\n                /* \"#utility.yul\":15115:15169   */\n              mstore\n                /* \"#utility.yul\":14998:15176   */\n              pop\n              jump\t// out\n                /* \"#utility.yul\":15182:15548   */\n            tag_382:\n                /* \"#utility.yul\":15324:15327   */\n              0x00\n                /* \"#utility.yul\":15345:15412   */\n              tag_552\n                /* \"#utility.yul\":15409:15411   */\n              0x1c\n                /* \"#utility.yul\":15404:15407   */\n              dup4\n                /* \"#utility.yul\":15345:15412   */\n              tag_343\n              jump\t// in\n            tag_552:\n                /* \"#utility.yul\":15338:15412   */\n              swap2\n              pop\n                /* \"#utility.yul\":15421:15514   */\n              tag_553\n                /* \"#utility.yul\":15510:15513   */\n              dup3\n                /* \"#utility.yul\":15421:15514   */\n              tag_381\n              jump\t// in\n            tag_553:\n                /* \"#utility.yul\":15539:15541   */\n              0x20\n                /* \"#utility.yul\":15534:15537   */\n              dup3\n                /* \"#utility.yul\":15530:15542   */\n              add\n                /* \"#utility.yul\":15523:15542   */\n              swap1\n              pop\n                /* \"#utility.yul\":15182:15548   */\n              swap2\n              swap1\n              pop\n              jump\t// out\n                /* \"#utility.yul\":15554:15973   */\n            tag_139:\n                /* \"#utility.yul\":15720:15724   */\n              0x00\n                /* \"#utility.yul\":15758:15760   */\n              0x20\n                /* \"#utility.yul\":15747:15756   */\n              dup3\n                /* \"#utility.yul\":15743:15761   */\n              add\n                /* \"#utility.yul\":15735:15761   */\n              swap1\n              pop\n                /* \"#utility.yul\":15807:15816   */\n              dup2\n                /* \"#utility.yul\":15801:15805   */\n              dup2\n                /* \"#utility.yul\":15797:15817   */\n              sub\n                /* \"#utility.yul\":15793:15794   */\n              0x00\n                /* \"#utility.yul\":15782:15791   */\n              dup4\n                /* \"#utility.yul\":15778:15795   */\n              add\n                /* \"#utility.yul\":15771:15818   */\n              mstore\n                /* \"#utility.yul\":15835:15966   */\n              tag_555\n                /* \"#utility.yul\":15961:15965   */\n              dup2\n                /* \"#utility.yul\":15835:15966   */\n              tag_382\n              jump\t// in\n            tag_555:\n                /* \"#utility.yul\":15827:15966   */\n              swap1\n              pop\n                /* \"#utility.yul\":15554:15973   */\n              swap2\n              swap1\n              pop\n              jump\t// out\n                /* \"#utility.yul\":15979:16159   */\n            tag_383:\n                /* \"#utility.yul\":16027:16104   */\n              0x4e487b7100000000000000000000000000000000000000000000000000000000\n                /* \"#utility.yul\":16024:16025   */\n              0x00\n                /* \"#utility.yul\":16017:16105   */\n              mstore\n                /* \"#utility.yul\":16124:16128   */\n              0x22\n                /* \"#utility.yul\":16121:16122   */\n              0x04\n                /* \"#utility.yul\":16114:16129   */\n              mstore\n                /* \"#utility.yul\":16148:16152   */\n              0x24\n                /* \"#utility.yul\":16145:16146   */\n              0x00\n                /* \"#utility.yul\":16138:16153   */\n              revert\n                /* \"#utility.yul\":16165:16485   */\n            tag_142:\n                /* \"#utility.yul\":16209:16215   */\n              0x00\n                /* \"#utility.yul\":16246:16247   */\n              0x02\n                /* \"#utility.yul\":16240:16244   */\n              dup3\n                /* \"#utility.yul\":16236:16248   */\n              div\n                /* \"#utility.yul\":16226:16248   */\n              swap1\n              pop\n                /* \"#utility.yul\":16293:16294   */\n              0x01\n                /* \"#utility.yul\":16287:16291   */\n              dup3\n                /* \"#utility.yul\":16283:16295   */\n              and\n                /* \"#utility.yul\":16314:16332   */\n              dup1\n                /* \"#utility.yul\":16304:16385   */\n              tag_558\n              jumpi\n                /* \"#utility.yul\":16370:16374   */\n              0x7f\n                /* \"#utility.yul\":16362:16368   */\n              dup3\n                /* \"#utility.yul\":16358:16375   */\n              and\n                /* \"#utility.yul\":16348:16375   */\n              swap2\n              pop\n                /* \"#utility.yul\":16304:16385   */\n            tag_558:\n                /* \"#utility.yul\":16432:16434   */\n              0x20\n                /* \"#utility.yul\":16424:16430   */\n              dup3\n                /* \"#utility.yul\":16421:16435   */\n              lt\n                /* \"#utility.yul\":16401:16419   */\n              dup2\n                /* \"#utility.yul\":16398:16436   */\n              eq\n                /* \"#utility.yul\":16395:16479   */\n              iszero\n              tag_559\n              jumpi\n                /* \"#utility.yul\":16451:16469   */\n              tag_560\n              tag_383\n              jump\t// in\n            tag_560:\n                /* \"#utility.yul\":16395:16479   */\n            tag_559:\n                /* \"#utility.yul\":16216:16485   */\n              pop\n                /* \"#utility.yul\":16165:16485   */\n              swap2\n              swap1\n              pop\n              jump\t// out\n                /* \"#utility.yul\":16491:16713   */\n            tag_384:\n                /* \"#utility.yul\":16631:16665   */\n              0x596f752068617665207265706f7274656420746869732073746f727920626566\n                /* \"#utility.yul\":16627:16628   */\n              0x00\n                /* \"#utility.yul\":16619:16625   */\n              dup3\n                /* \"#utility.yul\":16615:16629   */\n              add\n                /* \"#utility.yul\":16608:16666   */\n              mstore\n                /* \"#utility.yul\":16700:16705   */\n              0x6f72650000000000000000000000000000000000000000000000000000000000\n                /* \"#utility.yul\":16695:16697   */\n              0x20\n                /* \"#utility.yul\":16687:16693   */\n              dup3\n                /* \"#utility.yul\":16683:16698   */\n              add\n                /* \"#utility.yul\":16676:16706   */\n              mstore\n                /* \"#utility.yul\":16491:16713   */\n              pop\n              jump\t// out\n                /* \"#utility.yul\":16719:17085   */\n            tag_385:\n                /* \"#utility.yul\":16861:16864   */\n              0x00\n                /* \"#utility.yul\":16882:16949   */\n              tag_563\n                /* \"#utility.yul\":16946:16948   */\n              0x23\n                /* \"#utility.yul\":16941:16944   */\n              dup4\n                /* \"#utility.yul\":16882:16949   */\n              tag_343\n              jump\t// in\n            tag_563:\n                /* \"#utility.yul\":16875:16949   */\n              swap2\n              pop\n                /* \"#utility.yul\":16958:17051   */\n              tag_564\n                /* \"#utility.yul\":17047:17050   */\n              dup3\n                /* \"#utility.yul\":16958:17051   */\n              tag_384\n              jump\t// in\n            tag_564:\n                /* \"#utility.yul\":17076:17078   */\n              0x40\n                /* \"#utility.yul\":17071:17074   */\n              dup3\n                /* \"#utility.yul\":17067:17079   */\n              add\n                /* \"#utility.yul\":17060:17079   */\n              swap1\n              pop\n                /* \"#utility.yul\":16719:17085   */\n              swap2\n              swap1\n              pop\n              jump\t// out\n                /* \"#utility.yul\":17091:17510   */\n            tag_155:\n                /* \"#utility.yul\":17257:17261   */\n              0x00\n                /* \"#utility.yul\":17295:17297   */\n              0x20\n                /* \"#utility.yul\":17284:17293   */\n              dup3\n                /* \"#utility.yul\":17280:17298   */\n              add\n                /* \"#utility.yul\":17272:17298   */\n              swap1\n              pop\n                /* \"#utility.yul\":17344:17353   */\n              dup2\n                /* \"#utility.yul\":17338:17342   */\n              dup2\n                /* \"#utility.yul\":17334:17354   */\n              sub\n                /* \"#utility.yul\":17330:17331   */\n              0x00\n                /* \"#utility.yul\":17319:17328   */\n              dup4\n                /* \"#utility.yul\":17315:17332   */\n              add\n                /* \"#utility.yul\":17308:17355   */\n              mstore\n                /* \"#utility.yul\":17372:17503   */\n              tag_566\n                /* \"#utility.yul\":17498:17502   */\n              dup2\n                /* \"#utility.yul\":17372:17503   */\n              tag_385\n              jump\t// in\n            tag_566:\n                /* \"#utility.yul\":17364:17503   */\n              swap1\n              pop\n                /* \"#utility.yul\":17091:17510   */\n              swap2\n              swap1\n              pop\n              jump\t// out\n                /* \"#utility.yul\":17516:17696   */\n            tag_386:\n                /* \"#utility.yul\":17564:17641   */\n              0x4e487b7100000000000000000000000000000000000000000000000000000000\n                /* \"#utility.yul\":17561:17562   */\n              0x00\n                /* \"#utility.yul\":17554:17642   */\n              mstore\n                /* \"#utility.yul\":17661:17665   */\n              0x11\n                /* \"#utility.yul\":17658:17659   */\n              0x04\n                /* \"#utility.yul\":17651:17666   */\n              mstore\n                /* \"#utility.yul\":17685:17689   */\n              0x24\n                /* \"#utility.yul\":17682:17683   */\n              0x00\n                /* \"#utility.yul\":17675:17690   */\n              revert\n                /* \"#utility.yul\":17702:17935   */\n            tag_157:\n                /* \"#utility.yul\":17741:17744   */\n              0x00\n                /* \"#utility.yul\":17764:17788   */\n              tag_569\n                /* \"#utility.yul\":17782:17787   */\n              dup3\n                /* \"#utility.yul\":17764:17788   */\n              tag_363\n              jump\t// in\n            tag_569:\n                /* \"#utility.yul\":17755:17788   */\n              swap2\n              pop\n                /* \"#utility.yul\":17810:17876   */\n              0xffffffffffffffffffffffffffffffffffffffffffffffffffffffffffffffff\n                /* \"#utility.yul\":17803:17808   */\n              dup3\n                /* \"#utility.yul\":17800:17877   */\n              eq\n                /* \"#utility.yul\":17797:17900   */\n              iszero\n              tag_570\n              jumpi\n                /* \"#utility.yul\":17880:17898   */\n              tag_571\n              tag_386\n              jump\t// in\n            tag_571:\n                /* \"#utility.yul\":17797:17900   */\n            tag_570:\n                /* \"#utility.yul\":17927:17928   */\n              0x01\n                /* \"#utility.yul\":17920:17925   */\n              dup3\n                /* \"#utility.yul\":17916:17929   */\n              add\n                /* \"#utility.yul\":17909:17929   */\n              swap1\n              pop\n                /* \"#utility.yul\":17702:17935   */\n              swap2\n              swap1\n              pop\n              jump\t// out\n                /* \"#utility.yul\":17941:18173   */\n            tag_387:\n                /* \"#utility.yul\":18081:18115   */\n              0x4f6e6c7920616e20616363657074656420617574686f722063616e2061707072\n                /* \"#utility.yul\":18077:18078   */\n              0x00\n                /* \"#utility.yul\":18069:18075   */\n              dup3\n                /* \"#utility.yul\":18065:18079   */\n              add\n                /* \"#utility.yul\":18058:18116   */\n              mstore\n                /* \"#utility.yul\":18150:18165   */\n              0x6f76652061207265717565737400000000000000000000000000000000000000\n                /* \"#utility.yul\":18145:18147   */\n              0x20\n                /* \"#utility.yul\":18137:18143   */\n              dup3\n                /* \"#utility.yul\":18133:18148   */\n              add\n                /* \"#utility.yul\":18126:18166   */\n              mstore\n                /* \"#utility.yul\":17941:18173   */\n              pop\n              jump\t// out\n                /* \"#utility.yul\":18179:18545   */\n            tag_388:\n                /* \"#utility.yul\":18321:18324   */\n              0x00\n                /* \"#utility.yul\":18342:18409   */\n              tag_574\n                /* \"#utility.yul\":18406:18408   */\n              0x2d\n                /* \"#utility.yul\":18401:18404   */\n              dup4\n                /* \"#utility.yul\":18342:18409   */\n              tag_343\n              jump\t// in\n            tag_574:\n                /* \"#utility.yul\":18335:18409   */\n              swap2\n              pop\n                /* \"#utility.yul\":18418:18511   */\n              tag_575\n                /* \"#utility.yul\":18507:18510   */\n              dup3\n                /* \"#utility.yul\":18418:18511   */\n              tag_387\n              jump\t// in\n            tag_575:\n                /* \"#utility.yul\":18536:18538   */\n              0x40\n                /* \"#utility.yul\":18531:18534   */\n              dup3\n                /* \"#utility.yul\":18527:18539   */\n              add\n                /* \"#utility.yul\":18520:18539   */\n              swap1\n              pop\n                /* \"#utility.yul\":18179:18545   */\n              swap2\n              swap1\n              pop\n              jump\t// out\n                /* \"#utility.yul\":18551:18970   */\n            tag_194:\n                /* \"#utility.yul\":18717:18721   */\n              0x00\n                /* \"#utility.yul\":18755:18757   */\n              0x20\n                /* \"#utility.yul\":18744:18753   */\n              dup3\n                /* \"#utility.yul\":18740:18758   */\n              add\n                /* \"#utility.yul\":18732:18758   */\n              swap1\n              pop\n                /* \"#utility.yul\":18804:18813   */\n              dup2\n                /* \"#utility.yul\":18798:18802   */\n              dup2\n                /* \"#utility.yul\":18794:18814   */\n              sub\n                /* \"#utility.yul\":18790:18791   */\n              0x00\n                /* \"#utility.yul\":18779:18788   */\n              dup4\n                /* \"#utility.yul\":18775:18792   */\n              add\n                /* \"#utility.yul\":18768:18815   */\n              mstore\n                /* \"#utility.yul\":18832:18963   */\n              tag_577\n                /* \"#utility.yul\":18958:18962   */\n              dup2\n                /* \"#utility.yul\":18832:18963   */\n              tag_388\n              jump\t// in\n            tag_577:\n                /* \"#utility.yul\":18824:18963   */\n              swap1\n              pop\n                /* \"#utility.yul\":18551:18970   */\n              swap2\n              swap1\n              pop\n              jump\t// out\n                /* \"#utility.yul\":18976:19156   */\n            tag_197:\n                /* \"#utility.yul\":19024:19101   */\n              0x4e487b7100000000000000000000000000000000000000000000000000000000\n                /* \"#utility.yul\":19021:19022   */\n              0x00\n                /* \"#utility.yul\":19014:19102   */\n              mstore\n                /* \"#utility.yul\":19121:19125   */\n              0x32\n                /* \"#utility.yul\":19118:19119   */\n              0x04\n                /* \"#utility.yul\":19111:19126   */\n              mstore\n                /* \"#utility.yul\":19145:19149   */\n              0x24\n                /* \"#utility.yul\":19142:19143   */\n              0x00\n                /* \"#utility.yul\":19135:19150   */\n              revert\n                /* \"#utility.yul\":19162:19384   */\n            tag_389:\n                /* \"#utility.yul\":19302:19336   */\n              0x5468697320617574686f7220616c726561647920617070726f76656420626566\n                /* \"#utility.yul\":19298:19299   */\n              0x00\n                /* \"#utility.yul\":19290:19296   */\n              dup3\n                /* \"#utility.yul\":19286:19300   */\n              add\n                /* \"#utility.yul\":19279:19337   */\n              mstore\n                /* \"#utility.yul\":19371:19376   */\n              0x6f72650000000000000000000000000000000000000000000000000000000000\n                /* \"#utility.yul\":19366:19368   */\n              0x20\n                /* \"#utility.yul\":19358:19364   */\n              dup3\n                /* \"#utility.yul\":19354:19369   */\n              add\n                /* \"#utility.yul\":19347:19377   */\n              mstore\n                /* \"#utility.yul\":19162:19384   */\n              pop\n              jump\t// out\n                /* \"#utility.yul\":19390:19756   */\n            tag_390:\n                /* \"#utility.yul\":19532:19535   */\n              0x00\n                /* \"#utility.yul\":19553:19620   */\n              tag_581\n                /* \"#utility.yul\":19617:19619   */\n              0x23\n                /* \"#utility.yul\":19612:19615   */\n              dup4\n                /* \"#utility.yul\":19553:19620   */\n              tag_343\n              jump\t// in\n            tag_581:\n                /* \"#utility.yul\":19546:19620   */\n              swap2\n              pop\n                /* \"#utility.yul\":19629:19722   */\n              tag_582\n                /* \"#utility.yul\":19718:19721   */\n              dup3\n                /* \"#utility.yul\":19629:19722   */\n              tag_389\n              jump\t// in\n            tag_582:\n                /* \"#utility.yul\":19747:19749   */\n              0x40\n                /* \"#utility.yul\":19742:19745   */\n              dup3\n                /* \"#utility.yul\":19738:19750   */\n              add\n                /* \"#utility.yul\":19731:19750   */\n              swap1\n              pop\n                /* \"#utility.yul\":19390:19756   */\n              swap2\n              swap1\n              pop\n              jump\t// out\n                /* \"#utility.yul\":19762:20181   */\n            tag_201:\n                /* \"#utility.yul\":19928:19932   */\n              0x00\n                /* \"#utility.yul\":19966:19968   */\n              0x20\n                /* \"#utility.yul\":19955:19964   */\n              dup3\n                /* \"#utility.yul\":19951:19969   */\n              add\n                /* \"#utility.yul\":19943:19969   */\n              swap1\n              pop\n                /* \"#utility.yul\":20015:20024   */\n              dup2\n                /* \"#utility.yul\":20009:20013   */\n              dup2\n                /* \"#utility.yul\":20005:20025   */\n              sub\n                /* \"#utility.yul\":20001:20002   */\n              0x00\n                /* \"#utility.yul\":19990:19999   */\n              dup4\n                /* \"#utility.yul\":19986:20003   */\n              add\n                /* \"#utility.yul\":19979:20026   */\n              mstore\n                /* \"#utility.yul\":20043:20174   */\n              tag_584\n                /* \"#utility.yul\":20169:20173   */\n              dup2\n                /* \"#utility.yul\":20043:20174   */\n              tag_390\n              jump\t// in\n            tag_584:\n                /* \"#utility.yul\":20035:20174   */\n              swap1\n              pop\n                /* \"#utility.yul\":19762:20181   */\n              swap2\n              swap1\n              pop\n              jump\t// out\n                /* \"#utility.yul\":20187:20419   */\n            tag_391:\n                /* \"#utility.yul\":20327:20361   */\n              0x5468697320726571756573742068617320616c7265616479206265656e206170\n                /* \"#utility.yul\":20323:20324   */\n              0x00\n                /* \"#utility.yul\":20315:20321   */\n              dup3\n                /* \"#utility.yul\":20311:20325   */\n              add\n                /* \"#utility.yul\":20304:20362   */\n              mstore\n                /* \"#utility.yul\":20396:20411   */\n              0x70726f766564206265666f726500000000000000000000000000000000000000\n                /* \"#utility.yul\":20391:20393   */\n              0x20\n                /* \"#utility.yul\":20383:20389   */\n              dup3\n                /* \"#utility.yul\":20379:20394   */\n              add\n                /* \"#utility.yul\":20372:20412   */\n              mstore\n                /* \"#utility.yul\":20187:20419   */\n              pop\n              jump\t// out\n                /* \"#utility.yul\":20425:20791   */\n            tag_392:\n                /* \"#utility.yul\":20567:20570   */\n              0x00\n                /* \"#utility.yul\":20588:20655   */\n              tag_587\n                /* \"#utility.yul\":20652:20654   */\n              0x2d\n                /* \"#utility.yul\":20647:20650   */\n              dup4\n                /* \"#utility.yul\":20588:20655   */\n              tag_343\n              jump\t// in\n            tag_587:\n                /* \"#utility.yul\":20581:20655   */\n              swap2\n              pop\n                /* \"#utility.yul\":20664:20757   */\n              tag_588\n                /* \"#utility.yul\":20753:20756   */\n              dup3\n                /* \"#utility.yul\":20664:20757   */\n              tag_391\n              jump\t// in\n            tag_588:\n                /* \"#utility.yul\":20782:20784   */\n              0x40\n                /* \"#utility.yul\":20777:20780   */\n              dup3\n                /* \"#utility.yul\":20773:20785   */\n              add\n                /* \"#utility.yul\":20766:20785   */\n              swap1\n              pop\n                /* \"#utility.yul\":20425:20791   */\n              swap2\n              swap1\n              pop\n              jump\t// out\n                /* \"#utility.yul\":20797:21216   */\n            tag_204:\n                /* \"#utility.yul\":20963:20967   */\n              0x00\n                /* \"#utility.yul\":21001:21003   */\n              0x20\n                /* \"#utility.yul\":20990:20999   */\n              dup3\n                /* \"#utility.yul\":20986:21004   */\n              add\n                /* \"#utility.yul\":20978:21004   */\n              swap1\n              pop\n                /* \"#utility.yul\":21050:21059   */\n              dup2\n                /* \"#utility.yul\":21044:21048   */\n              dup2\n                /* \"#utility.yul\":21040:21060   */\n              sub\n                /* \"#utility.yul\":21036:21037   */\n              0x00\n                /* \"#utility.yul\":21025:21034   */\n              dup4\n                /* \"#utility.yul\":21021:21038   */\n              add\n                /* \"#utility.yul\":21014:21061   */\n              mstore\n                /* \"#utility.yul\":21078:21209   */\n              tag_590\n                /* \"#utility.yul\":21204:21208   */\n              dup2\n                /* \"#utility.yul\":21078:21209   */\n              tag_392\n              jump\t// in\n            tag_590:\n                /* \"#utility.yul\":21070:21209   */\n              swap1\n              pop\n                /* \"#utility.yul\":20797:21216   */\n              swap2\n              swap1\n              pop\n              jump\t// out\n                /* \"#utility.yul\":21222:21527   */\n            tag_206:\n                /* \"#utility.yul\":21262:21265   */\n              0x00\n                /* \"#utility.yul\":21281:21301   */\n              tag_592\n                /* \"#utility.yul\":21299:21300   */\n              dup3\n                /* \"#utility.yul\":21281:21301   */\n              tag_363\n              jump\t// in\n            tag_592:\n                /* \"#utility.yul\":21276:21301   */\n              swap2\n              pop\n                /* \"#utility.yul\":21315:21335   */\n              tag_593\n                /* \"#utility.yul\":21333:21334   */\n              dup4\n                /* \"#utility.yul\":21315:21335   */\n              tag_363\n              jump\t// in\n            tag_593:\n                /* \"#utility.yul\":21310:21335   */\n              swap3\n              pop\n                /* \"#utility.yul\":21469:21470   */\n              dup3\n                /* \"#utility.yul\":21401:21467   */\n              0xffffffffffffffffffffffffffffffffffffffffffffffffffffffffffffffff\n                /* \"#utility.yul\":21397:21471   */\n              sub\n                /* \"#utility.yul\":21394:21395   */\n              dup3\n                /* \"#utility.yul\":21391:21472   */\n              gt\n                /* \"#utility.yul\":21388:21495   */\n              iszero\n              tag_594\n              jumpi\n                /* \"#utility.yul\":21475:21493   */\n              tag_595\n              tag_386\n              jump\t// in\n            tag_595:\n                /* \"#utility.yul\":21388:21495   */\n            tag_594:\n                /* \"#utility.yul\":21519:21520   */\n              dup3\n                /* \"#utility.yul\":21516:21517   */\n              dup3\n                /* \"#utility.yul\":21512:21521   */\n              add\n                /* \"#utility.yul\":21505:21521   */\n              swap1\n              pop\n                /* \"#utility.yul\":21222:21527   */\n              swap3\n              swap2\n              pop\n              pop\n              jump\t// out\n                /* \"#utility.yul\":21533:21713   */\n            tag_393:\n                /* \"#utility.yul\":21581:21658   */\n              0x4e487b7100000000000000000000000000000000000000000000000000000000\n                /* \"#utility.yul\":21578:21579   */\n              0x00\n                /* \"#utility.yul\":21571:21659   */\n              mstore\n                /* \"#utility.yul\":21678:21682   */\n              0x12\n                /* \"#utility.yul\":21675:21676   */\n              0x04\n                /* \"#utility.yul\":21668:21683   */\n              mstore\n                /* \"#utility.yul\":21702:21706   */\n              0x24\n                /* \"#utility.yul\":21699:21700   */\n              0x00\n                /* \"#utility.yul\":21692:21707   */\n              revert\n                /* \"#utility.yul\":21719:21904   */\n            tag_208:\n                /* \"#utility.yul\":21759:21760   */\n              0x00\n                /* \"#utility.yul\":21776:21796   */\n              tag_598\n                /* \"#utility.yul\":21794:21795   */\n              dup3\n                /* \"#utility.yul\":21776:21796   */\n              tag_363\n              jump\t// in\n            tag_598:\n                /* \"#utility.yul\":21771:21796   */\n              swap2\n              pop\n                /* \"#utility.yul\":21810:21830   */\n              tag_599\n                /* \"#utility.yul\":21828:21829   */\n              dup4\n                /* \"#utility.yul\":21810:21830   */\n              tag_363\n              jump\t// in\n            tag_599:\n                /* \"#utility.yul\":21805:21830   */\n              swap3\n              pop\n                /* \"#utility.yul\":21849:21850   */\n              dup3\n                /* \"#utility.yul\":21839:21874   */\n              tag_600\n              jumpi\n                /* \"#utility.yul\":21854:21872   */\n              tag_601\n              tag_393\n              jump\t// in\n            tag_601:\n                /* \"#utility.yul\":21839:21874   */\n            tag_600:\n                /* \"#utility.yul\":21896:21897   */\n              dup3\n                /* \"#utility.yul\":21893:21894   */\n              dup3\n                /* \"#utility.yul\":21889:21898   */\n              div\n                /* \"#utility.yul\":21884:21898   */\n              swap1\n              pop\n                /* \"#utility.yul\":21719:21904   */\n              swap3\n              swap2\n              pop\n              pop\n              jump\t// out\n                /* \"#utility.yul\":21910:22141   */\n            tag_394:\n                /* \"#utility.yul\":22050:22084   */\n              0x4f6e6c7920616e20616363657074656420617574686f722063616e2063726561\n                /* \"#utility.yul\":22046:22047   */\n              0x00\n                /* \"#utility.yul\":22038:22044   */\n              dup3\n                /* \"#utility.yul\":22034:22048   */\n              add\n                /* \"#utility.yul\":22027:22085   */\n              mstore\n                /* \"#utility.yul\":22119:22133   */\n              0x7465206120636861707465720000000000000000000000000000000000000000\n                /* \"#utility.yul\":22114:22116   */\n              0x20\n                /* \"#utility.yul\":22106:22112   */\n              dup3\n                /* \"#utility.yul\":22102:22117   */\n              add\n                /* \"#utility.yul\":22095:22134   */\n              mstore\n                /* \"#utility.yul\":21910:22141   */\n              pop\n              jump\t// out\n                /* \"#utility.yul\":22147:22513   */\n            tag_395:\n                /* \"#utility.yul\":22289:22292   */\n              0x00\n                /* \"#utility.yul\":22310:22377   */\n              tag_604\n                /* \"#utility.yul\":22374:22376   */\n              0x2c\n                /* \"#utility.yul\":22369:22372   */\n              dup4\n                /* \"#utility.yul\":22310:22377   */\n              tag_343\n              jump\t// in\n            tag_604:\n                /* \"#utility.yul\":22303:22377   */\n              swap2\n              pop\n                /* \"#utility.yul\":22386:22479   */\n              tag_605\n                /* \"#utility.yul\":22475:22478   */\n              dup3\n                /* \"#utility.yul\":22386:22479   */\n              tag_394\n              jump\t// in\n            tag_605:\n                /* \"#utility.yul\":22504:22506   */\n              0x40\n                /* \"#utility.yul\":22499:22502   */\n              dup3\n                /* \"#utility.yul\":22495:22507   */\n              add\n                /* \"#utility.yul\":22488:22507   */\n              swap1\n              pop\n                /* \"#utility.yul\":22147:22513   */\n              swap2\n              swap1\n              pop\n              jump\t// out\n                /* \"#utility.yul\":22519:22938   */\n            tag_279:\n                /* \"#utility.yul\":22685:22689   */\n              0x00\n                /* \"#utility.yul\":22723:22725   */\n              0x20\n                /* \"#utility.yul\":22712:22721   */\n              dup3\n                /* \"#utility.yul\":22708:22726   */\n              add\n                /* \"#utility.yul\":22700:22726   */\n              swap1\n              pop\n                /* \"#utility.yul\":22772:22781   */\n              dup2\n                /* \"#utility.yul\":22766:22770   */\n              dup2\n                /* \"#utility.yul\":22762:22782   */\n              sub\n                /* \"#utility.yul\":22758:22759   */\n              0x00\n                /* \"#utility.yul\":22747:22756   */\n              dup4\n                /* \"#utility.yul\":22743:22760   */\n              add\n                /* \"#utility.yul\":22736:22783   */\n              mstore\n                /* \"#utility.yul\":22800:22931   */\n              tag_607\n                /* \"#utility.yul\":22926:22930   */\n              dup2\n                /* \"#utility.yul\":22800:22931   */\n              tag_395\n              jump\t// in\n            tag_607:\n                /* \"#utility.yul\":22792:22931   */\n              swap1\n              pop\n                /* \"#utility.yul\":22519:22938   */\n              swap2\n              swap1\n              pop\n              jump\t// out\n                /* \"#utility.yul\":22944:23175   */\n            tag_396:\n                /* \"#utility.yul\":23084:23118   */\n              0x506172656e742063686170746572206d7573742062656c6f6e6720746f207468\n                /* \"#utility.yul\":23080:23081   */\n              0x00\n                /* \"#utility.yul\":23072:23078   */\n              dup3\n                /* \"#utility.yul\":23068:23082   */\n              add\n                /* \"#utility.yul\":23061:23119   */\n              mstore\n                /* \"#utility.yul\":23153:23167   */\n              0x652073616d652073746f72790000000000000000000000000000000000000000\n                /* \"#utility.yul\":23148:23150   */\n              0x20\n                /* \"#utility.yul\":23140:23146   */\n              dup3\n                /* \"#utility.yul\":23136:23151   */\n              add\n                /* \"#utility.yul\":23129:23168   */\n              mstore\n                /* \"#utility.yul\":22944:23175   */\n              pop\n              jump\t// out\n                /* \"#utility.yul\":23181:23547   */\n            tag_397:\n                /* \"#utility.yul\":23323:23326   */\n              0x00\n                /* \"#utility.yul\":23344:23411   */\n              tag_610\n                /* \"#utility.yul\":23408:23410   */\n              0x2c\n                /* \"#utility.yul\":23403:23406   */\n              dup4\n                /* \"#utility.yul\":23344:23411   */\n              tag_343\n              jump\t// in\n            tag_610:\n                /* \"#utility.yul\":23337:23411   */\n              swap2\n              pop\n                /* \"#utility.yul\":23420:23513   */\n              tag_611\n                /* \"#utility.yul\":23509:23512   */\n              dup3\n                /* \"#utility.yul\":23420:23513   */\n              tag_396\n              jump\t// in\n            tag_611:\n                /* \"#utility.yul\":23538:23540   */\n              0x40\n                /* \"#utility.yul\":23533:23536   */\n              dup3\n                /* \"#utility.yul\":23529:23541   */\n              add\n                /* \"#utility.yul\":23522:23541   */\n              swap1\n              pop\n                /* \"#utility.yul\":23181:23547   */\n              swap2\n              swap1\n              pop\n              jump\t// out\n                /* \"#utility.yul\":23553:23972   */\n            tag_283:\n                /* \"#utility.yul\":23719:23723   */\n              0x00\n                /* \"#utility.yul\":23757:23759   */\n              0x20\n                /* \"#utility.yul\":23746:23755   */\n              dup3\n                /* \"#utility.yul\":23742:23760   */\n              add\n                /* \"#utility.yul\":23734:23760   */\n              swap1\n              pop\n                /* \"#utility.yul\":23806:23815   */\n              dup2\n                /* \"#utility.yul\":23800:23804   */\n              dup2\n                /* \"#utility.yul\":23796:23816   */\n              sub\n                /* \"#utility.yul\":23792:23793   */\n              0x00\n                /* \"#utility.yul\":23781:23790   */\n              dup4\n                /* \"#utility.yul\":23777:23794   */\n              add\n                /* \"#utility.yul\":23770:23817   */\n              mstore\n                /* \"#utility.yul\":23834:23965   */\n              tag_613\n                /* \"#utility.yul\":23960:23964   */\n              dup2\n                /* \"#utility.yul\":23834:23965   */\n              tag_397\n              jump\t// in\n            tag_613:\n                /* \"#utility.yul\":23826:23965   */\n              swap1\n              pop\n                /* \"#utility.yul\":23553:23972   */\n              swap2\n              swap1\n              pop\n              jump\t// out\n                /* \"#utility.yul\":23978:24208   */\n            tag_398:\n                /* \"#utility.yul\":24118:24152   */\n              0x4368696c642063686170746572206d7573742062656c6f6e6720746f20746865\n                /* \"#utility.yul\":24114:24115   */\n              0x00\n                /* \"#utility.yul\":24106:24112   */\n              dup3\n                /* \"#utility.yul\":24102:24116   */\n              add\n                /* \"#utility.yul\":24095:24153   */\n              mstore\n                /* \"#utility.yul\":24187:24200   */\n              0x2073616d652073746f7279000000000000000000000000000000000000000000\n                /* \"#utility.yul\":24182:24184   */\n              0x20\n                /* \"#utility.yul\":24174:24180   */\n              dup3\n                /* \"#utility.yul\":24170:24185   */\n              add\n                /* \"#utility.yul\":24163:24201   */\n              mstore\n                /* \"#utility.yul\":23978:24208   */\n              pop\n              jump\t// out\n                /* \"#utility.yul\":24214:24580   */\n            tag_399:\n                /* \"#utility.yul\":24356:24359   */\n              0x00\n                /* \"#utility.yul\":24377:24444   */\n              tag_616\n                /* \"#utility.yul\":24441:24443   */\n              0x2b\n                /* \"#utility.yul\":24436:24439   */\n              dup4\n                /* \"#utility.yul\":24377:24444   */\n              tag_343\n              jump\t// in\n            tag_616:\n                /* \"#utility.yul\":24370:24444   */\n              swap2\n              pop\n                /* \"#utility.yul\":24453:24546   */\n              tag_617\n                /* \"#utility.yul\":24542:24545   */\n              dup3\n                /* \"#utility.yul\":24453:24546   */\n              tag_398\n              jump\t// in\n            tag_617:\n                /* \"#utility.yul\":24571:24573   */\n              0x40\n                /* \"#utility.yul\":24566:24569   */\n              dup3\n                /* \"#utility.yul\":24562:24574   */\n              add\n                /* \"#utility.yul\":24555:24574   */\n              swap1\n              pop\n                /* \"#utility.yul\":24214:24580   */\n              swap2\n              swap1\n              pop\n              jump\t// out\n                /* \"#utility.yul\":24586:25005   */\n            tag_287:\n                /* \"#utility.yul\":24752:24756   */\n              0x00\n                /* \"#utility.yul\":24790:24792   */\n              0x20\n                /* \"#utility.yul\":24779:24788   */\n              dup3\n                /* \"#utility.yul\":24775:24793   */\n              add\n                /* \"#utility.yul\":24767:24793   */\n              swap1\n              pop\n                /* \"#utility.yul\":24839:24848   */\n              dup2\n                /* \"#utility.yul\":24833:24837   */\n              dup2\n                /* \"#utility.yul\":24829:24849   */\n              sub\n                /* \"#utility.yul\":24825:24826   */\n              0x00\n                /* \"#utility.yul\":24814:24823   */\n              dup4\n                /* \"#utility.yul\":24810:24827   */\n              add\n                /* \"#utility.yul\":24803:24850   */\n              mstore\n                /* \"#utility.yul\":24867:24998   */\n              tag_619\n                /* \"#utility.yul\":24993:24997   */\n              dup2\n                /* \"#utility.yul\":24867:24998   */\n              tag_399\n              jump\t// in\n            tag_619:\n                /* \"#utility.yul\":24859:24998   */\n              swap1\n              pop\n                /* \"#utility.yul\":24586:25005   */\n              swap2\n              swap1\n              pop\n              jump\t// out\n                /* \"#utility.yul\":25011:25968   */\n            tag_291:\n                /* \"#utility.yul\":25284:25288   */\n              0x00\n                /* \"#utility.yul\":25322:25325   */\n              0xc0\n                /* \"#utility.yul\":25311:25320   */\n              dup3\n                /* \"#utility.yul\":25307:25326   */\n              add\n                /* \"#utility.yul\":25299:25326   */\n              swap1\n              pop\n                /* \"#utility.yul\":25336:25407   */\n              tag_621\n                /* \"#utility.yul\":25404:25405   */\n              0x00\n                /* \"#utility.yul\":25393:25402   */\n              dup4\n                /* \"#utility.yul\":25389:25406   */\n              add\n                /* \"#utility.yul\":25380:25386   */\n              dup10\n                /* \"#utility.yul\":25336:25407   */\n              tag_365\n              jump\t// in\n            tag_621:\n                /* \"#utility.yul\":25417:25489   */\n              tag_622\n                /* \"#utility.yul\":25485:25487   */\n              0x20\n                /* \"#utility.yul\":25474:25483   */\n              dup4\n                /* \"#utility.yul\":25470:25488   */\n              add\n                /* \"#utility.yul\":25461:25467   */\n              dup9\n                /* \"#utility.yul\":25417:25489   */\n              tag_365\n              jump\t// in\n            tag_622:\n                /* \"#utility.yul\":25536:25545   */\n              dup2\n                /* \"#utility.yul\":25530:25534   */\n              dup2\n                /* \"#utility.yul\":25526:25546   */\n              sub\n                /* \"#utility.yul\":25521:25523   */\n              0x40\n                /* \"#utility.yul\":25510:25519   */\n              dup4\n                /* \"#utility.yul\":25506:25524   */\n              add\n                /* \"#utility.yul\":25499:25547   */\n              mstore\n                /* \"#utility.yul\":25564:25642   */\n              tag_623\n                /* \"#utility.yul\":25637:25641   */\n              dup2\n                /* \"#utility.yul\":25628:25634   */\n              dup8\n                /* \"#utility.yul\":25564:25642   */\n              tag_346\n              jump\t// in\n            tag_623:\n                /* \"#utility.yul\":25556:25642   */\n              swap1\n              pop\n                /* \"#utility.yul\":25689:25698   */\n              dup2\n                /* \"#utility.yul\":25683:25687   */\n              dup2\n                /* \"#utility.yul\":25679:25699   */\n              sub\n                /* \"#utility.yul\":25674:25676   */\n              0x60\n                /* \"#utility.yul\":25663:25672   */\n              dup4\n                /* \"#utility.yul\":25659:25677   */\n              add\n                /* \"#utility.yul\":25652:25700   */\n              mstore\n                /* \"#utility.yul\":25717:25795   */\n              tag_624\n                /* \"#utility.yul\":25790:25794   */\n              dup2\n                /* \"#utility.yul\":25781:25787   */\n              dup7\n                /* \"#utility.yul\":25717:25795   */\n              tag_346\n              jump\t// in\n            tag_624:\n                /* \"#utility.yul\":25709:25795   */\n              swap1\n              pop\n                /* \"#utility.yul\":25805:25878   */\n              tag_625\n                /* \"#utility.yul\":25873:25876   */\n              0x80\n                /* \"#utility.yul\":25862:25871   */\n              dup4\n                /* \"#utility.yul\":25858:25877   */\n              add\n                /* \"#utility.yul\":25849:25855   */\n              dup6\n                /* \"#utility.yul\":25805:25878   */\n              tag_365\n              jump\t// in\n            tag_625:\n                /* \"#utility.yul\":25888:25961   */\n              tag_626\n                /* \"#utility.yul\":25956:25959   */\n              0xa0\n                /* \"#utility.yul\":25945:25954   */\n              dup4\n                /* \"#utility.yul\":25941:25960   */\n              add\n                /* \"#utility.yul\":25932:25938   */\n              dup5\n                /* \"#utility.yul\":25888:25961   */\n              tag_365\n              jump\t// in\n            tag_626:\n                /* \"#utility.yul\":25011:25968   */\n              swap8\n              swap7\n              pop\n              pop\n              pop\n              pop\n              pop\n              pop\n              pop\n              jump\t// out\n                /* \"#utility.yul\":25974:26205   */\n            tag_400:\n                /* \"#utility.yul\":26114:26148   */\n              0x417574686f7220616c72656164792065786973747320696e20746865206c6973\n                /* \"#utility.yul\":26110:26111   */\n              0x00\n                /* \"#utility.yul\":26102:26108   */\n              dup3\n                /* \"#utility.yul\":26098:26112   */\n              add\n                /* \"#utility.yul\":26091:26149   */\n              mstore\n                /* \"#utility.yul\":26183:26197   */\n              0x74206f6620617574686f72730000000000000000000000000000000000000000\n                /* \"#utility.yul\":26178:26180   */\n              0x20\n                /* \"#utility.yul\":26170:26176   */\n              dup3\n                /* \"#utility.yul\":26166:26181   */\n              add\n                /* \"#utility.yul\":26159:26198   */\n              mstore\n                /* \"#utility.yul\":25974:26205   */\n              pop\n              jump\t// out\n                /* \"#utility.yul\":26211:26577   */\n            tag_401:\n                /* \"#utility.yul\":26353:26356   */\n              0x00\n                /* \"#utility.yul\":26374:26441   */\n              tag_629\n                /* \"#utility.yul\":26438:26440   */\n              0x2c\n                /* \"#utility.yul\":26433:26436   */\n              dup4\n                /* \"#utility.yul\":26374:26441   */\n              tag_343\n              jump\t// in\n            tag_629:\n                /* \"#utility.yul\":26367:26441   */\n              swap2\n              pop\n                /* \"#utility.yul\":26450:26543   */\n              tag_630\n                /* \"#utility.yul\":26539:26542   */\n              dup3\n                /* \"#utility.yul\":26450:26543   */\n              tag_400\n              jump\t// in\n            tag_630:\n                /* \"#utility.yul\":26568:26570   */\n              0x40\n                /* \"#utility.yul\":26563:26566   */\n              dup3\n                /* \"#utility.yul\":26559:26571   */\n              add\n                /* \"#utility.yul\":26552:26571   */\n              swap1\n              pop\n                /* \"#utility.yul\":26211:26577   */\n              swap2\n              swap1\n              pop\n              jump\t// out\n                /* \"#utility.yul\":26583:27002   */\n            tag_323:\n                /* \"#utility.yul\":26749:26753   */\n              0x00\n                /* \"#utility.yul\":26787:26789   */\n              0x20\n                /* \"#utility.yul\":26776:26785   */\n              dup3\n                /* \"#utility.yul\":26772:26790   */\n              add\n                /* \"#utility.yul\":26764:26790   */\n              swap1\n              pop\n                /* \"#utility.yul\":26836:26845   */\n              dup2\n                /* \"#utility.yul\":26830:26834   */\n              dup2\n                /* \"#utility.yul\":26826:26846   */\n              sub\n                /* \"#utility.yul\":26822:26823   */\n              0x00\n                /* \"#utility.yul\":26811:26820   */\n              dup4\n                /* \"#utility.yul\":26807:26824   */\n              add\n                /* \"#utility.yul\":26800:26847   */\n              mstore\n                /* \"#utility.yul\":26864:26995   */\n              tag_632\n                /* \"#utility.yul\":26990:26994   */\n              dup2\n                /* \"#utility.yul\":26864:26995   */\n              tag_401\n              jump\t// in\n            tag_632:\n                /* \"#utility.yul\":26856:26995   */\n              swap1\n              pop\n                /* \"#utility.yul\":26583:27002   */\n              swap2\n              swap1\n              pop\n              jump\t// out\n            stop\n\n            sub_0: assembly {\n                    /* \"Story.sol\":8394:10369  contract Chapter {... */\n                  mstore(0x40, 0x80)\n                    /* \"Story.sol\":8724:9238  constructor(address _author, address _story, string memory _title, string memory _ipfsHash, address parentChapter, address childChapter) {... */\n                  callvalue\n                  dup1\n                  iszero\n                  tag_1\n                  jumpi\n                  0x00\n                  dup1\n                  revert\n                tag_1:\n                  pop\n                  mload(0x40)\n                  sub(codesize, bytecodeSize)\n                  dup1\n                  bytecodeSize\n                  dup4\n                  codecopy\n                  dup2\n                  dup2\n                  add\n                  0x40\n                  mstore\n                  dup2\n                  add\n                  swap1\n                  tag_2\n                  swap2\n                  swap1\n                  tag_3\n                  jump\t// in\n                tag_2:\n                    /* \"Story.sol\":8885:8892  _author */\n                  dup6\n                    /* \"Story.sol\":8876:8882  author */\n                  0x01\n                  0x00\n                    /* \"Story.sol\":8876:8892  author = _author */\n                  0x0100\n                  exp\n                  dup2\n                  sload\n                  dup2\n                  0xffffffffffffffffffffffffffffffffffffffff\n                  mul\n                  not\n                  and\n                  swap1\n                  dup4\n                  0xffffffffffffffffffffffffffffffffffffffff\n                  and\n                  mul\n                  or\n                  swap1\n                  sstore\n                  pop\n                    /* \"Story.sol\":8915:8921  _story */\n                  dup5\n                    /* \"Story.sol\":8907:8912  story */\n                  0x00\n                  dup1\n                    /* \"Story.sol\":8907:8921  story = _story */\n                  0x0100\n                  exp\n                  dup2\n                  sload\n                  dup2\n                  0xffffffffffffffffffffffffffffffffffffffff\n                  mul\n                  not\n                  and\n                  swap1\n                  dup4\n                  0xffffffffffffffffffffffffffffffffffffffff\n                  and\n                  mul\n                  or\n                  swap1\n                  sstore\n                  pop\n                    /* \"Story.sol\":8947:8956  _ipfsHash */\n                  dup3\n                    /* \"Story.sol\":8936:8944  ipfsHash */\n                  0x03\n                    /* \"Story.sol\":8936:8956  ipfsHash = _ipfsHash */\n                  swap1\n                  dup1\n                  mload\n                  swap1\n                  0x20\n                  add\n                  swap1\n                  tag_6\n                  swap3\n                  swap2\n                  swap1\n                  tag_7\n                  jump\t// in\n                tag_6:\n                  pop\n                    /* \"Story.sol\":8979:8985  _title */\n                  dup4\n                    /* \"Story.sol\":8971:8976  title */\n                  0x02\n                    /* \"Story.sol\":8971:8985  title = _title */\n                  swap1\n                  dup1\n                  mload\n                  swap1\n                  0x20\n                  add\n                  swap1\n                  tag_8\n                  swap3\n                  swap2\n                  swap1\n                  tag_7\n                  jump\t// in\n                tag_8:\n                  pop\n                    /* \"Story.sol\":9029:9030  0 */\n                  0x00\n                    /* \"Story.sol\":9004:9031  parentChapter != address(0) */\n                  0xffffffffffffffffffffffffffffffffffffffff\n                  and\n                    /* \"Story.sol\":9004:9017  parentChapter */\n                  dup3\n                    /* \"Story.sol\":9004:9031  parentChapter != address(0) */\n                  0xffffffffffffffffffffffffffffffffffffffff\n                  and\n                  eq\n                    /* \"Story.sol\":9000:9108  if (parentChapter != address(0)) {... */\n                  tag_9\n                  jumpi\n                    /* \"Story.sol\":9052:9072  linkedParentChapters */\n                  0x04\n                    /* \"Story.sol\":9078:9091  parentChapter */\n                  dup3\n                    /* \"Story.sol\":9052:9092  linkedParentChapters.push(parentChapter) */\n                  swap1\n                  dup1\n                  0x01\n                  dup2\n                  sload\n                  add\n                  dup1\n                  dup3\n                  sstore\n                  dup1\n                  swap2\n                  pop\n                  pop\n                  0x01\n                  swap1\n                  sub\n                  swap1\n                  0x00\n                  mstore\n                  keccak256(0x00, 0x20)\n                  add\n                  0x00\n                  swap1\n                  swap2\n                  swap1\n                  swap2\n                  swap1\n                  swap2\n                  0x0100\n                  exp\n                  dup2\n                  sload\n                  dup2\n                  0xffffffffffffffffffffffffffffffffffffffff\n                  mul\n                  not\n                  and\n                  swap1\n                  dup4\n                  0xffffffffffffffffffffffffffffffffffffffff\n                  and\n                  mul\n                  or\n                  swap1\n                  sstore\n                  pop\n                    /* \"Story.sol\":9000:9108  if (parentChapter != address(0)) {... */\n                tag_9:\n                    /* \"Story.sol\":9150:9151  0 */\n                  0x00\n                    /* \"Story.sol\":9126:9152  childChapter != address(0) */\n                  0xffffffffffffffffffffffffffffffffffffffff\n                  and\n                    /* \"Story.sol\":9126:9138  childChapter */\n                  dup2\n                    /* \"Story.sol\":9126:9152  childChapter != address(0) */\n                  0xffffffffffffffffffffffffffffffffffffffff\n                  and\n                  eq\n                    /* \"Story.sol\":9122:9227  if (childChapter != address(0)) {... */\n                  tag_11\n                  jumpi\n                    /* \"Story.sol\":9173:9192  linkedChildChapters */\n                  0x05\n                    /* \"Story.sol\":9198:9210  childChapter */\n                  dup2\n                    /* \"Story.sol\":9173:9211  linkedChildChapters.push(childChapter) */\n                  swap1\n                  dup1\n                  0x01\n                  dup2\n                  sload\n                  add\n                  dup1\n                  dup3\n                  sstore\n                  dup1\n                  swap2\n                  pop\n                  pop\n                  0x01\n                  swap1\n                  sub\n                  swap1\n                  0x00\n                  mstore\n                  keccak256(0x00, 0x20)\n                  add\n                  0x00\n                  swap1\n                  swap2\n                  swap1\n                  swap2\n                  swap1\n                  swap2\n                  0x0100\n                  exp\n                  dup2\n                  sload\n                  dup2\n                  0xffffffffffffffffffffffffffffffffffffffff\n                  mul\n                  not\n                  and\n                  swap1\n                  dup4\n                  0xffffffffffffffffffffffffffffffffffffffff\n                  and\n                  mul\n                  or\n                  swap1\n                  sstore\n                  pop\n                    /* \"Story.sol\":9122:9227  if (childChapter != address(0)) {... */\n                tag_11:\n                    /* \"Story.sol\":8724:9238  constructor(address _author, address _story, string memory _title, string memory _ipfsHash, address parentChapter, address childChapter) {... */\n                  pop\n                  pop\n                  pop\n                  pop\n                  pop\n                  pop\n                    /* \"Story.sol\":8394:10369  contract Chapter {... */\n                  jump(tag_13)\n                tag_7:\n                  dup3\n                  dup1\n                  sload\n                  tag_14\n                  swap1\n                  tag_15\n                  jump\t// in\n                tag_14:\n                  swap1\n                  0x00\n                  mstore\n                  keccak256(0x00, 0x20)\n                  swap1\n                  0x1f\n                  add\n                  0x20\n                  swap1\n                  div\n                  dup2\n                  add\n                  swap3\n                  dup3\n                  tag_17\n                  jumpi\n                  0x00\n                  dup6\n                  sstore\n                  jump(tag_16)\n                tag_17:\n                  dup3\n                  0x1f\n                  lt\n                  tag_18\n                  jumpi\n                  dup1\n                  mload\n                  not(0xff)\n                  and\n                  dup4\n                  dup1\n                  add\n                  or\n                  dup6\n                  sstore\n                  jump(tag_16)\n                tag_18:\n                  dup3\n                  dup1\n                  add\n                  0x01\n                  add\n                  dup6\n                  sstore\n                  dup3\n                  iszero\n                  tag_16\n                  jumpi\n                  swap2\n                  dup3\n                  add\n                tag_19:\n                  dup3\n                  dup2\n                  gt\n                  iszero\n                  tag_20\n                  jumpi\n                  dup3\n                  mload\n                  dup3\n                  sstore\n                  swap2\n                  0x20\n                  add\n                  swap2\n                  swap1\n                  0x01\n                  add\n                  swap1\n                  jump(tag_19)\n                tag_20:\n                tag_16:\n                  pop\n                  swap1\n                  pop\n                  tag_21\n                  swap2\n                  swap1\n                  tag_22\n                  jump\t// in\n                tag_21:\n                  pop\n                  swap1\n                  jump\t// out\n                tag_22:\n                tag_23:\n                  dup1\n                  dup3\n                  gt\n                  iszero\n                  tag_24\n                  jumpi\n                  0x00\n                  dup2\n                  0x00\n                  swap1\n                  sstore\n                  pop\n                  0x01\n                  add\n                  jump(tag_23)\n                tag_24:\n                  pop\n                  swap1\n                  jump\t// out\n                    /* \"#utility.yul\":7:82   */\n                tag_25:\n                    /* \"#utility.yul\":40:46   */\n                  0x00\n                    /* \"#utility.yul\":73:75   */\n                  0x40\n                    /* \"#utility.yul\":67:76   */\n                  mload\n                    /* \"#utility.yul\":57:76   */\n                  swap1\n                  pop\n                    /* \"#utility.yul\":7:82   */\n                  swap1\n                  jump\t// out\n                    /* \"#utility.yul\":88:205   */\n                tag_26:\n                    /* \"#utility.yul\":197:198   */\n                  0x00\n                    /* \"#utility.yul\":194:195   */\n                  dup1\n                    /* \"#utility.yul\":187:199   */\n                  revert\n                    /* \"#utility.yul\":211:328   */\n                tag_27:\n                    /* \"#utility.yul\":320:321   */\n                  0x00\n                    /* \"#utility.yul\":317:318   */\n                  dup1\n                    /* \"#utility.yul\":310:322   */\n                  revert\n                    /* \"#utility.yul\":334:460   */\n                tag_28:\n                    /* \"#utility.yul\":371:378   */\n                  0x00\n                    /* \"#utility.yul\":411:453   */\n                  0xffffffffffffffffffffffffffffffffffffffff\n                    /* \"#utility.yul\":404:409   */\n                  dup3\n                    /* \"#utility.yul\":400:454   */\n                  and\n                    /* \"#utility.yul\":389:454   */\n                  swap1\n                  pop\n                    /* \"#utility.yul\":334:460   */\n                  swap2\n                  swap1\n                  pop\n                  jump\t// out\n                    /* \"#utility.yul\":466:562   */\n                tag_29:\n                    /* \"#utility.yul\":503:510   */\n                  0x00\n                    /* \"#utility.yul\":532:556   */\n                  tag_49\n                    /* \"#utility.yul\":550:555   */\n                  dup3\n                    /* \"#utility.yul\":532:556   */\n                  tag_28\n                  jump\t// in\n                tag_49:\n                    /* \"#utility.yul\":521:556   */\n                  swap1\n                  pop\n                    /* \"#utility.yul\":466:562   */\n                  swap2\n                  swap1\n                  pop\n                  jump\t// out\n                    /* \"#utility.yul\":568:690   */\n                tag_30:\n                    /* \"#utility.yul\":641:665   */\n                  tag_51\n                    /* \"#utility.yul\":659:664   */\n                  dup2\n                    /* \"#utility.yul\":641:665   */\n                  tag_29\n                  jump\t// in\n                tag_51:\n                    /* \"#utility.yul\":634:639   */\n                  dup2\n                    /* \"#utility.yul\":631:666   */\n                  eq\n                    /* \"#utility.yul\":621:684   */\n                  tag_52\n                  jumpi\n                    /* \"#utility.yul\":680:681   */\n                  0x00\n                    /* \"#utility.yul\":677:678   */\n                  dup1\n                    /* \"#utility.yul\":670:682   */\n                  revert\n                    /* \"#utility.yul\":621:684   */\n                tag_52:\n                    /* \"#utility.yul\":568:690   */\n                  pop\n                  jump\t// out\n                    /* \"#utility.yul\":696:839   */\n                tag_31:\n                    /* \"#utility.yul\":753:758   */\n                  0x00\n                    /* \"#utility.yul\":784:790   */\n                  dup2\n                    /* \"#utility.yul\":778:791   */\n                  mload\n                    /* \"#utility.yul\":769:791   */\n                  swap1\n                  pop\n                    /* \"#utility.yul\":800:833   */\n                  tag_54\n                    /* \"#utility.yul\":827:832   */\n                  dup2\n                    /* \"#utility.yul\":800:833   */\n                  tag_30\n                  jump\t// in\n                tag_54:\n                    /* \"#utility.yul\":696:839   */\n                  swap3\n                  swap2\n                  pop\n                  pop\n                  jump\t// out\n                    /* \"#utility.yul\":845:962   */\n                tag_32:\n                    /* \"#utility.yul\":954:955   */\n                  0x00\n                    /* \"#utility.yul\":951:952   */\n                  dup1\n                    /* \"#utility.yul\":944:956   */\n                  revert\n                    /* \"#utility.yul\":968:1085   */\n                tag_33:\n                    /* \"#utility.yul\":1077:1078   */\n                  0x00\n                    /* \"#utility.yul\":1074:1075   */\n                  dup1\n                    /* \"#utility.yul\":1067:1079   */\n                  revert\n                    /* \"#utility.yul\":1091:1193   */\n                tag_34:\n                    /* \"#utility.yul\":1132:1138   */\n                  0x00\n                    /* \"#utility.yul\":1183:1185   */\n                  0x1f\n                    /* \"#utility.yul\":1179:1186   */\n                  not\n                    /* \"#utility.yul\":1174:1176   */\n                  0x1f\n                    /* \"#utility.yul\":1167:1172   */\n                  dup4\n                    /* \"#utility.yul\":1163:1177   */\n                  add\n                    /* \"#utility.yul\":1159:1187   */\n                  and\n                    /* \"#utility.yul\":1149:1187   */\n                  swap1\n                  pop\n                    /* \"#utility.yul\":1091:1193   */\n                  swap2\n                  swap1\n                  pop\n                  jump\t// out\n                    /* \"#utility.yul\":1199:1379   */\n                tag_35:\n                    /* \"#utility.yul\":1247:1324   */\n                  0x4e487b7100000000000000000000000000000000000000000000000000000000\n                    /* \"#utility.yul\":1244:1245   */\n                  0x00\n                    /* \"#utility.yul\":1237:1325   */\n                  mstore\n                    /* \"#utility.yul\":1344:1348   */\n                  0x41\n                    /* \"#utility.yul\":1341:1342   */\n                  0x04\n                    /* \"#utility.yul\":1334:1349   */\n                  mstore\n                    /* \"#utility.yul\":1368:1372   */\n                  0x24\n                    /* \"#utility.yul\":1365:1366   */\n                  0x00\n                    /* \"#utility.yul\":1358:1373   */\n                  revert\n                    /* \"#utility.yul\":1385:1666   */\n                tag_36:\n                    /* \"#utility.yul\":1468:1495   */\n                  tag_60\n                    /* \"#utility.yul\":1490:1494   */\n                  dup3\n                    /* \"#utility.yul\":1468:1495   */\n                  tag_34\n                  jump\t// in\n                tag_60:\n                    /* \"#utility.yul\":1460:1466   */\n                  dup2\n                    /* \"#utility.yul\":1456:1496   */\n                  add\n                    /* \"#utility.yul\":1598:1604   */\n                  dup2\n                    /* \"#utility.yul\":1586:1596   */\n                  dup2\n                    /* \"#utility.yul\":1583:1605   */\n                  lt\n                    /* \"#utility.yul\":1562:1580   */\n                  0xffffffffffffffff\n                    /* \"#utility.yul\":1550:1560   */\n                  dup3\n                    /* \"#utility.yul\":1547:1581   */\n                  gt\n                    /* \"#utility.yul\":1544:1606   */\n                  or\n                    /* \"#utility.yul\":1541:1629   */\n                  iszero\n                  tag_61\n                  jumpi\n                    /* \"#utility.yul\":1609:1627   */\n                  tag_62\n                  tag_35\n                  jump\t// in\n                tag_62:\n                    /* \"#utility.yul\":1541:1629   */\n                tag_61:\n                    /* \"#utility.yul\":1649:1659   */\n                  dup1\n                    /* \"#utility.yul\":1645:1647   */\n                  0x40\n                    /* \"#utility.yul\":1638:1660   */\n                  mstore\n                    /* \"#utility.yul\":1428:1666   */\n                  pop\n                    /* \"#utility.yul\":1385:1666   */\n                  pop\n                  pop\n                  jump\t// out\n                    /* \"#utility.yul\":1672:1801   */\n                tag_37:\n                    /* \"#utility.yul\":1706:1712   */\n                  0x00\n                    /* \"#utility.yul\":1733:1753   */\n                  tag_64\n                  tag_25\n                  jump\t// in\n                tag_64:\n                    /* \"#utility.yul\":1723:1753   */\n                  swap1\n                  pop\n                    /* \"#utility.yul\":1762:1795   */\n                  tag_65\n                    /* \"#utility.yul\":1790:1794   */\n                  dup3\n                    /* \"#utility.yul\":1782:1788   */\n                  dup3\n                    /* \"#utility.yul\":1762:1795   */\n                  tag_36\n                  jump\t// in\n                tag_65:\n                    /* \"#utility.yul\":1672:1801   */\n                  swap2\n                  swap1\n                  pop\n                  jump\t// out\n                    /* \"#utility.yul\":1807:2115   */\n                tag_38:\n                    /* \"#utility.yul\":1869:1873   */\n                  0x00\n                    /* \"#utility.yul\":1959:1977   */\n                  0xffffffffffffffff\n                    /* \"#utility.yul\":1951:1957   */\n                  dup3\n                    /* \"#utility.yul\":1948:1978   */\n                  gt\n                    /* \"#utility.yul\":1945:2001   */\n                  iszero\n                  tag_67\n                  jumpi\n                    /* \"#utility.yul\":1981:1999   */\n                  tag_68\n                  tag_35\n                  jump\t// in\n                tag_68:\n                    /* \"#utility.yul\":1945:2001   */\n                tag_67:\n                    /* \"#utility.yul\":2019:2048   */\n                  tag_69\n                    /* \"#utility.yul\":2041:2047   */\n                  dup3\n                    /* \"#utility.yul\":2019:2048   */\n                  tag_34\n                  jump\t// in\n                tag_69:\n                    /* \"#utility.yul\":2011:2048   */\n                  swap1\n                  pop\n                    /* \"#utility.yul\":2103:2107   */\n                  0x20\n                    /* \"#utility.yul\":2097:2101   */\n                  dup2\n                    /* \"#utility.yul\":2093:2108   */\n                  add\n                    /* \"#utility.yul\":2085:2108   */\n                  swap1\n                  pop\n                    /* \"#utility.yul\":1807:2115   */\n                  swap2\n                  swap1\n                  pop\n                  jump\t// out\n                    /* \"#utility.yul\":2121:2428   */\n                tag_39:\n                    /* \"#utility.yul\":2189:2190   */\n                  0x00\n                    /* \"#utility.yul\":2199:2312   */\n                tag_71:\n                    /* \"#utility.yul\":2213:2219   */\n                  dup4\n                    /* \"#utility.yul\":2210:2211   */\n                  dup2\n                    /* \"#utility.yul\":2207:2220   */\n                  lt\n                    /* \"#utility.yul\":2199:2312   */\n                  iszero\n                  tag_73\n                  jumpi\n                    /* \"#utility.yul\":2298:2299   */\n                  dup1\n                    /* \"#utility.yul\":2293:2296   */\n                  dup3\n                    /* \"#utility.yul\":2289:2300   */\n                  add\n                    /* \"#utility.yul\":2283:2301   */\n                  mload\n                    /* \"#utility.yul\":2279:2280   */\n                  dup2\n                    /* \"#utility.yul\":2274:2277   */\n                  dup5\n                    /* \"#utility.yul\":2270:2281   */\n                  add\n                    /* \"#utility.yul\":2263:2302   */\n                  mstore\n                    /* \"#utility.yul\":2235:2237   */\n                  0x20\n                    /* \"#utility.yul\":2232:2233   */\n                  dup2\n                    /* \"#utility.yul\":2228:2238   */\n                  add\n                    /* \"#utility.yul\":2223:2238   */\n                  swap1\n                  pop\n                    /* \"#utility.yul\":2199:2312   */\n                  jump(tag_71)\n                tag_73:\n                    /* \"#utility.yul\":2330:2336   */\n                  dup4\n                    /* \"#utility.yul\":2327:2328   */\n                  dup2\n                    /* \"#utility.yul\":2324:2337   */\n                  gt\n                    /* \"#utility.yul\":2321:2422   */\n                  iszero\n                  tag_74\n                  jumpi\n                    /* \"#utility.yul\":2410:2411   */\n                  0x00\n                    /* \"#utility.yul\":2401:2407   */\n                  dup5\n                    /* \"#utility.yul\":2396:2399   */\n                  dup5\n                    /* \"#utility.yul\":2392:2408   */\n                  add\n                    /* \"#utility.yul\":2385:2412   */\n                  mstore\n                    /* \"#utility.yul\":2321:2422   */\n                tag_74:\n                    /* \"#utility.yul\":2170:2428   */\n                  pop\n                    /* \"#utility.yul\":2121:2428   */\n                  pop\n                  pop\n                  pop\n                  jump\t// out\n                    /* \"#utility.yul\":2434:2855   */\n                tag_40:\n                    /* \"#utility.yul\":2523:2528   */\n                  0x00\n                    /* \"#utility.yul\":2548:2614   */\n                  tag_76\n                    /* \"#utility.yul\":2564:2613   */\n                  tag_77\n                    /* \"#utility.yul\":2606:2612   */\n                  dup5\n                    /* \"#utility.yul\":2564:2613   */\n                  tag_38\n                  jump\t// in\n                tag_77:\n                    /* \"#utility.yul\":2548:2614   */\n                  tag_37\n                  jump\t// in\n                tag_76:\n                    /* \"#utility.yul\":2539:2614   */\n                  swap1\n                  pop\n                    /* \"#utility.yul\":2637:2643   */\n                  dup3\n                    /* \"#utility.yul\":2630:2635   */\n                  dup2\n                    /* \"#utility.yul\":2623:2644   */\n                  mstore\n                    /* \"#utility.yul\":2675:2679   */\n                  0x20\n                    /* \"#utility.yul\":2668:2673   */\n                  dup2\n                    /* \"#utility.yul\":2664:2680   */\n                  add\n                    /* \"#utility.yul\":2713:2716   */\n                  dup5\n                    /* \"#utility.yul\":2704:2710   */\n                  dup5\n                    /* \"#utility.yul\":2699:2702   */\n                  dup5\n                    /* \"#utility.yul\":2695:2711   */\n                  add\n                    /* \"#utility.yul\":2692:2717   */\n                  gt\n                    /* \"#utility.yul\":2689:2801   */\n                  iszero\n                  tag_78\n                  jumpi\n                    /* \"#utility.yul\":2720:2799   */\n                  tag_79\n                  tag_33\n                  jump\t// in\n                tag_79:\n                    /* \"#utility.yul\":2689:2801   */\n                tag_78:\n                    /* \"#utility.yul\":2810:2849   */\n                  tag_80\n                    /* \"#utility.yul\":2842:2848   */\n                  dup5\n                    /* \"#utility.yul\":2837:2840   */\n                  dup3\n                    /* \"#utility.yul\":2832:2835   */\n                  dup6\n                    /* \"#utility.yul\":2810:2849   */\n                  tag_39\n                  jump\t// in\n                tag_80:\n                    /* \"#utility.yul\":2529:2855   */\n                  pop\n                    /* \"#utility.yul\":2434:2855   */\n                  swap4\n                  swap3\n                  pop\n                  pop\n                  pop\n                  jump\t// out\n                    /* \"#utility.yul\":2875:3230   */\n                tag_41:\n                    /* \"#utility.yul\":2942:2947   */\n                  0x00\n                    /* \"#utility.yul\":2991:2994   */\n                  dup3\n                    /* \"#utility.yul\":2984:2988   */\n                  0x1f\n                    /* \"#utility.yul\":2976:2982   */\n                  dup4\n                    /* \"#utility.yul\":2972:2989   */\n                  add\n                    /* \"#utility.yul\":2968:2995   */\n                  slt\n                    /* \"#utility.yul\":2958:3080   */\n                  tag_82\n                  jumpi\n                    /* \"#utility.yul\":2999:3078   */\n                  tag_83\n                  tag_32\n                  jump\t// in\n                tag_83:\n                    /* \"#utility.yul\":2958:3080   */\n                tag_82:\n                    /* \"#utility.yul\":3109:3115   */\n                  dup2\n                    /* \"#utility.yul\":3103:3116   */\n                  mload\n                    /* \"#utility.yul\":3134:3224   */\n                  tag_84\n                    /* \"#utility.yul\":3220:3223   */\n                  dup5\n                    /* \"#utility.yul\":3212:3218   */\n                  dup3\n                    /* \"#utility.yul\":3205:3209   */\n                  0x20\n                    /* \"#utility.yul\":3197:3203   */\n                  dup7\n                    /* \"#utility.yul\":3193:3210   */\n                  add\n                    /* \"#utility.yul\":3134:3224   */\n                  tag_40\n                  jump\t// in\n                tag_84:\n                    /* \"#utility.yul\":3125:3224   */\n                  swap2\n                  pop\n                    /* \"#utility.yul\":2948:3230   */\n                  pop\n                    /* \"#utility.yul\":2875:3230   */\n                  swap3\n                  swap2\n                  pop\n                  pop\n                  jump\t// out\n                    /* \"#utility.yul\":3236:4716   */\n                tag_3:\n                    /* \"#utility.yul\":3371:3377   */\n                  0x00\n                    /* \"#utility.yul\":3379:3385   */\n                  dup1\n                    /* \"#utility.yul\":3387:3393   */\n                  0x00\n                    /* \"#utility.yul\":3395:3401   */\n                  dup1\n                    /* \"#utility.yul\":3403:3409   */\n                  0x00\n                    /* \"#utility.yul\":3411:3417   */\n                  dup1\n                    /* \"#utility.yul\":3460:3463   */\n                  0xc0\n                    /* \"#utility.yul\":3448:3457   */\n                  dup8\n                    /* \"#utility.yul\":3439:3446   */\n                  dup10\n                    /* \"#utility.yul\":3435:3458   */\n                  sub\n                    /* \"#utility.yul\":3431:3464   */\n                  slt\n                    /* \"#utility.yul\":3428:3548   */\n                  iszero\n                  tag_86\n                  jumpi\n                    /* \"#utility.yul\":3467:3546   */\n                  tag_87\n                  tag_26\n                  jump\t// in\n                tag_87:\n                    /* \"#utility.yul\":3428:3548   */\n                tag_86:\n                    /* \"#utility.yul\":3587:3588   */\n                  0x00\n                    /* \"#utility.yul\":3612:3676   */\n                  tag_88\n                    /* \"#utility.yul\":3668:3675   */\n                  dup10\n                    /* \"#utility.yul\":3659:3665   */\n                  dup3\n                    /* \"#utility.yul\":3648:3657   */\n                  dup11\n                    /* \"#utility.yul\":3644:3666   */\n                  add\n                    /* \"#utility.yul\":3612:3676   */\n                  tag_31\n                  jump\t// in\n                tag_88:\n                    /* \"#utility.yul\":3602:3676   */\n                  swap7\n                  pop\n                    /* \"#utility.yul\":3558:3686   */\n                  pop\n                    /* \"#utility.yul\":3725:3727   */\n                  0x20\n                    /* \"#utility.yul\":3751:3815   */\n                  tag_89\n                    /* \"#utility.yul\":3807:3814   */\n                  dup10\n                    /* \"#utility.yul\":3798:3804   */\n                  dup3\n                    /* \"#utility.yul\":3787:3796   */\n                  dup11\n                    /* \"#utility.yul\":3783:3805   */\n                  add\n                    /* \"#utility.yul\":3751:3815   */\n                  tag_31\n                  jump\t// in\n                tag_89:\n                    /* \"#utility.yul\":3741:3815   */\n                  swap6\n                  pop\n                    /* \"#utility.yul\":3696:3825   */\n                  pop\n                    /* \"#utility.yul\":3885:3887   */\n                  0x40\n                    /* \"#utility.yul\":3874:3883   */\n                  dup8\n                    /* \"#utility.yul\":3870:3888   */\n                  add\n                    /* \"#utility.yul\":3864:3889   */\n                  mload\n                    /* \"#utility.yul\":3916:3934   */\n                  0xffffffffffffffff\n                    /* \"#utility.yul\":3908:3914   */\n                  dup2\n                    /* \"#utility.yul\":3905:3935   */\n                  gt\n                    /* \"#utility.yul\":3902:4019   */\n                  iszero\n                  tag_90\n                  jumpi\n                    /* \"#utility.yul\":3938:4017   */\n                  tag_91\n                  tag_27\n                  jump\t// in\n                tag_91:\n                    /* \"#utility.yul\":3902:4019   */\n                tag_90:\n                    /* \"#utility.yul\":4043:4117   */\n                  tag_92\n                    /* \"#utility.yul\":4109:4116   */\n                  dup10\n                    /* \"#utility.yul\":4100:4106   */\n                  dup3\n                    /* \"#utility.yul\":4089:4098   */\n                  dup11\n                    /* \"#utility.yul\":4085:4107   */\n                  add\n                    /* \"#utility.yul\":4043:4117   */\n                  tag_41\n                  jump\t// in\n                tag_92:\n                    /* \"#utility.yul\":4033:4117   */\n                  swap5\n                  pop\n                    /* \"#utility.yul\":3835:4127   */\n                  pop\n                    /* \"#utility.yul\":4187:4189   */\n                  0x60\n                    /* \"#utility.yul\":4176:4185   */\n                  dup8\n                    /* \"#utility.yul\":4172:4190   */\n                  add\n                    /* \"#utility.yul\":4166:4191   */\n                  mload\n                    /* \"#utility.yul\":4218:4236   */\n                  0xffffffffffffffff\n                    /* \"#utility.yul\":4210:4216   */\n                  dup2\n                    /* \"#utility.yul\":4207:4237   */\n                  gt\n                    /* \"#utility.yul\":4204:4321   */\n                  iszero\n                  tag_93\n                  jumpi\n                    /* \"#utility.yul\":4240:4319   */\n                  tag_94\n                  tag_27\n                  jump\t// in\n                tag_94:\n                    /* \"#utility.yul\":4204:4321   */\n                tag_93:\n                    /* \"#utility.yul\":4345:4419   */\n                  tag_95\n                    /* \"#utility.yul\":4411:4418   */\n                  dup10\n                    /* \"#utility.yul\":4402:4408   */\n                  dup3\n                    /* \"#utility.yul\":4391:4400   */\n                  dup11\n                    /* \"#utility.yul\":4387:4409   */\n                  add\n                    /* \"#utility.yul\":4345:4419   */\n                  tag_41\n                  jump\t// in\n                tag_95:\n                    /* \"#utility.yul\":4335:4419   */\n                  swap4\n                  pop\n                    /* \"#utility.yul\":4137:4429   */\n                  pop\n                    /* \"#utility.yul\":4468:4471   */\n                  0x80\n                    /* \"#utility.yul\":4495:4559   */\n                  tag_96\n                    /* \"#utility.yul\":4551:4558   */\n                  dup10\n                    /* \"#utility.yul\":4542:4548   */\n                  dup3\n                    /* \"#utility.yul\":4531:4540   */\n                  dup11\n                    /* \"#utility.yul\":4527:4549   */\n                  add\n                    /* \"#utility.yul\":4495:4559   */\n                  tag_31\n                  jump\t// in\n                tag_96:\n                    /* \"#utility.yul\":4485:4559   */\n                  swap3\n                  pop\n                    /* \"#utility.yul\":4439:4569   */\n                  pop\n                    /* \"#utility.yul\":4608:4611   */\n                  0xa0\n                    /* \"#utility.yul\":4635:4699   */\n                  tag_97\n                    /* \"#utility.yul\":4691:4698   */\n                  dup10\n                    /* \"#utility.yul\":4682:4688   */\n                  dup3\n                    /* \"#utility.yul\":4671:4680   */\n                  dup11\n                    /* \"#utility.yul\":4667:4689   */\n                  add\n                    /* \"#utility.yul\":4635:4699   */\n                  tag_31\n                  jump\t// in\n                tag_97:\n                    /* \"#utility.yul\":4625:4699   */\n                  swap2\n                  pop\n                    /* \"#utility.yul\":4579:4709   */\n                  pop\n                    /* \"#utility.yul\":3236:4716   */\n                  swap3\n                  swap6\n                  pop\n                  swap3\n                  swap6\n                  pop\n                  swap3\n                  swap6\n                  jump\t// out\n                    /* \"#utility.yul\":4722:4902   */\n                tag_42:\n                    /* \"#utility.yul\":4770:4847   */\n                  0x4e487b7100000000000000000000000000000000000000000000000000000000\n                    /* \"#utility.yul\":4767:4768   */\n                  0x00\n                    /* \"#utility.yul\":4760:4848   */\n                  mstore\n                    /* \"#utility.yul\":4867:4871   */\n                  0x22\n                    /* \"#utility.yul\":4864:4865   */\n                  0x04\n                    /* \"#utility.yul\":4857:4872   */\n                  mstore\n                    /* \"#utility.yul\":4891:4895   */\n                  0x24\n                    /* \"#utility.yul\":4888:4889   */\n                  0x00\n                    /* \"#utility.yul\":4881:4896   */\n                  revert\n                    /* \"#utility.yul\":4908:5228   */\n                tag_15:\n                    /* \"#utility.yul\":4952:4958   */\n                  0x00\n                    /* \"#utility.yul\":4989:4990   */\n                  0x02\n                    /* \"#utility.yul\":4983:4987   */\n                  dup3\n                    /* \"#utility.yul\":4979:4991   */\n                  div\n                    /* \"#utility.yul\":4969:4991   */\n                  swap1\n                  pop\n                    /* \"#utility.yul\":5036:5037   */\n                  0x01\n                    /* \"#utility.yul\":5030:5034   */\n                  dup3\n                    /* \"#utility.yul\":5026:5038   */\n                  and\n                    /* \"#utility.yul\":5057:5075   */\n                  dup1\n                    /* \"#utility.yul\":5047:5128   */\n                  tag_100\n                  jumpi\n                    /* \"#utility.yul\":5113:5117   */\n                  0x7f\n                    /* \"#utility.yul\":5105:5111   */\n                  dup3\n                    /* \"#utility.yul\":5101:5118   */\n                  and\n                    /* \"#utility.yul\":5091:5118   */\n                  swap2\n                  pop\n                    /* \"#utility.yul\":5047:5128   */\n                tag_100:\n                    /* \"#utility.yul\":5175:5177   */\n                  0x20\n                    /* \"#utility.yul\":5167:5173   */\n                  dup3\n                    /* \"#utility.yul\":5164:5178   */\n                  lt\n                    /* \"#utility.yul\":5144:5162   */\n                  dup2\n                    /* \"#utility.yul\":5141:5179   */\n                  eq\n                    /* \"#utility.yul\":5138:5222   */\n                  iszero\n                  tag_101\n                  jumpi\n                    /* \"#utility.yul\":5194:5212   */\n                  tag_102\n                  tag_42\n                  jump\t// in\n                tag_102:\n                    /* \"#utility.yul\":5138:5222   */\n                tag_101:\n                    /* \"#utility.yul\":4959:5228   */\n                  pop\n                    /* \"#utility.yul\":4908:5228   */\n                  swap2\n                  swap1\n                  pop\n                  jump\t// out\n                    /* \"Story.sol\":8394:10369  contract Chapter {... */\n                tag_13:\n                  dataSize(sub_0)\n                  dup1\n                  dataOffset(sub_0)\n                  0x00\n                  codecopy\n                  0x00\n                  return\n                stop\n\n                sub_0: assembly {\n                        /* \"Story.sol\":8394:10369  contract Chapter {... */\n                      mstore(0x40, 0x80)\n                      callvalue\n                      dup1\n                      iszero\n                      tag_1\n                      jumpi\n                      0x00\n                      dup1\n                      revert\n                    tag_1:\n                      pop\n                      jumpi(tag_2, lt(calldatasize, 0x04))\n                      shr(0xe0, calldataload(0x00))\n                      dup1\n                      0xa523b88a\n                      gt\n                      tag_14\n                      jumpi\n                      dup1\n                      0xa523b88a\n                      eq\n                      tag_8\n                      jumpi\n                      dup1\n                      0xa6c3e6b9\n                      eq\n                      tag_9\n                      jumpi\n                      dup1\n                      0xc5fe6ffc\n                      eq\n                      tag_10\n                      jumpi\n                      dup1\n                      0xc623674f\n                      eq\n                      tag_11\n                      jumpi\n                      dup1\n                      0xe5a0af3d\n                      eq\n                      tag_12\n                      jumpi\n                      dup1\n                      0xed777791\n                      eq\n                      tag_13\n                      jumpi\n                      jump(tag_2)\n                    tag_14:\n                      dup1\n                      0x4051ddac\n                      eq\n                      tag_3\n                      jumpi\n                      dup1\n                      0x46c922d1\n                      eq\n                      tag_4\n                      jumpi\n                      dup1\n                      0x4a79d50c\n                      eq\n                      tag_5\n                      jumpi\n                      dup1\n                      0x8758ce83\n                      eq\n                      tag_6\n                      jumpi\n                      dup1\n                      0x988e46c8\n                      eq\n                      tag_7\n                      jumpi\n                    tag_2:\n                      0x00\n                      dup1\n                      revert\n                        /* \"Story.sol\":9961:10362  function getSummary() public view returns (... */\n                    tag_3:\n                      tag_15\n                      tag_16\n                      jump\t// in\n                    tag_15:\n                      mload(0x40)\n                      tag_17\n                      swap8\n                      swap7\n                      swap6\n                      swap5\n                      swap4\n                      swap3\n                      swap2\n                      swap1\n                      tag_18\n                      jump\t// in\n                    tag_17:\n                      mload(0x40)\n                      dup1\n                      swap2\n                      sub\n                      swap1\n                      return\n                        /* \"Story.sol\":8424:8444  address public story */\n                    tag_4:\n                      tag_19\n                      tag_20\n                      jump\t// in\n                    tag_19:\n                      mload(0x40)\n                      tag_21\n                      swap2\n                      swap1\n                      tag_22\n                      jump\t// in\n                    tag_21:\n                      mload(0x40)\n                      dup1\n                      swap2\n                      sub\n                      swap1\n                      return\n                        /* \"Story.sol\":8487:8506  string public title */\n                    tag_5:\n                      tag_23\n                      tag_24\n                      jump\t// in\n                    tag_23:\n                      mload(0x40)\n                      tag_25\n                      swap2\n                      swap1\n                      tag_26\n                      jump\t// in\n                    tag_25:\n                      mload(0x40)\n                      dup1\n                      swap2\n                      sub\n                      swap1\n                      return\n                        /* \"Story.sol\":9510:9762  function linkParentChapter(address parentChapter) public {... */\n                    tag_6:\n                      tag_27\n                      0x04\n                      dup1\n                      calldatasize\n                      sub\n                      dup2\n                      add\n                      swap1\n                      tag_28\n                      swap2\n                      swap1\n                      tag_29\n                      jump\t// in\n                    tag_28:\n                      tag_30\n                      jump\t// in\n                    tag_27:\n                      stop\n                        /* \"Story.sol\":9250:9498  function linkChildChapter(address childChapter) public {... */\n                    tag_7:\n                      tag_31\n                      0x04\n                      dup1\n                      calldatasize\n                      sub\n                      dup2\n                      add\n                      swap1\n                      tag_32\n                      swap2\n                      swap1\n                      tag_29\n                      jump\t// in\n                    tag_32:\n                      tag_33\n                      jump\t// in\n                    tag_31:\n                      stop\n                        /* \"Story.sol\":9774:9949  function like() public {... */\n                    tag_8:\n                      tag_34\n                      tag_35\n                      jump\t// in\n                    tag_34:\n                      stop\n                        /* \"Story.sol\":8455:8476  address public author */\n                    tag_9:\n                      tag_36\n                      tag_37\n                      jump\t// in\n                    tag_36:\n                      mload(0x40)\n                      tag_38\n                      swap2\n                      swap1\n                      tag_22\n                      jump\t// in\n                    tag_38:\n                      mload(0x40)\n                      dup1\n                      swap2\n                      sub\n                      swap1\n                      return\n                        /* \"Story.sol\":8598:8634  address[] public linkedChildChapters */\n                    tag_10:\n                      tag_39\n                      0x04\n                      dup1\n                      calldatasize\n                      sub\n                      dup2\n                      add\n                      swap1\n                      tag_40\n                      swap2\n                      swap1\n                      tag_41\n                      jump\t// in\n                    tag_40:\n                      tag_42\n                      jump\t// in\n                    tag_39:\n                      mload(0x40)\n                      tag_43\n                      swap2\n                      swap1\n                      tag_22\n                      jump\t// in\n                    tag_43:\n                      mload(0x40)\n                      dup1\n                      swap2\n                      sub\n                      swap1\n                      return\n                        /* \"Story.sol\":8517:8539  string public ipfsHash */\n                    tag_11:\n                      tag_44\n                      tag_45\n                      jump\t// in\n                    tag_44:\n                      mload(0x40)\n                      tag_46\n                      swap2\n                      swap1\n                      tag_26\n                      jump\t// in\n                    tag_46:\n                      mload(0x40)\n                      dup1\n                      swap2\n                      sub\n                      swap1\n                      return\n                        /* \"Story.sol\":8687:8711  uint256 public likeCount */\n                    tag_12:\n                      tag_47\n                      tag_48\n                      jump\t// in\n                    tag_47:\n                      mload(0x40)\n                      tag_49\n                      swap2\n                      swap1\n                      tag_50\n                      jump\t// in\n                    tag_49:\n                      mload(0x40)\n                      dup1\n                      swap2\n                      sub\n                      swap1\n                      return\n                        /* \"Story.sol\":8550:8587  address[] public linkedParentChapters */\n                    tag_13:\n                      tag_51\n                      0x04\n                      dup1\n                      calldatasize\n                      sub\n                      dup2\n                      add\n                      swap1\n                      tag_52\n                      swap2\n                      swap1\n                      tag_41\n                      jump\t// in\n                    tag_52:\n                      tag_53\n                      jump\t// in\n                    tag_51:\n                      mload(0x40)\n                      tag_54\n                      swap2\n                      swap1\n                      tag_22\n                      jump\t// in\n                    tag_54:\n                      mload(0x40)\n                      dup1\n                      swap2\n                      sub\n                      swap1\n                      return\n                        /* \"Story.sol\":9961:10362  function getSummary() public view returns (... */\n                    tag_16:\n                        /* \"Story.sol\":10018:10025  address */\n                      0x00\n                        /* \"Story.sol\":10027:10034  address */\n                      dup1\n                        /* \"Story.sol\":10036:10049  string memory */\n                      0x60\n                        /* \"Story.sol\":10051:10064  string memory */\n                      dup1\n                        /* \"Story.sol\":10066:10082  address[] memory */\n                      0x60\n                        /* \"Story.sol\":10084:10100  address[] memory */\n                      dup1\n                        /* \"Story.sol\":10102:10106  uint */\n                      0x00\n                        /* \"Story.sol\":10149:10154  story */\n                      dup1\n                      0x00\n                      swap1\n                      sload\n                      swap1\n                      0x0100\n                      exp\n                      swap1\n                      div\n                      0xffffffffffffffffffffffffffffffffffffffff\n                      and\n                        /* \"Story.sol\":10173:10179  author */\n                      0x01\n                      0x00\n                      swap1\n                      sload\n                      swap1\n                      0x0100\n                      exp\n                      swap1\n                      div\n                      0xffffffffffffffffffffffffffffffffffffffff\n                      and\n                        /* \"Story.sol\":10198:10203  title */\n                      0x02\n                        /* \"Story.sol\":10222:10230  ipfsHash */\n                      0x03\n                        /* \"Story.sol\":10249:10269  linkedParentChapters */\n                      0x04\n                        /* \"Story.sol\":10288:10307  linkedChildChapters */\n                      0x05\n                        /* \"Story.sol\":10326:10335  likeCount */\n                      sload(0x07)\n                        /* \"Story.sol\":10123:10350  return (... */\n                      dup5\n                      dup1\n                      sload\n                      tag_56\n                      swap1\n                      tag_57\n                      jump\t// in\n                    tag_56:\n                      dup1\n                      0x1f\n                      add\n                      0x20\n                      dup1\n                      swap2\n                      div\n                      mul\n                      0x20\n                      add\n                      mload(0x40)\n                      swap1\n                      dup2\n                      add\n                      0x40\n                      mstore\n                      dup1\n                      swap3\n                      swap2\n                      swap1\n                      dup2\n                      dup2\n                      mstore\n                      0x20\n                      add\n                      dup3\n                      dup1\n                      sload\n                      tag_58\n                      swap1\n                      tag_57\n                      jump\t// in\n                    tag_58:\n                      dup1\n                      iszero\n                      tag_59\n                      jumpi\n                      dup1\n                      0x1f\n                      lt\n                      tag_60\n                      jumpi\n                      0x0100\n                      dup1\n                      dup4\n                      sload\n                      div\n                      mul\n                      dup4\n                      mstore\n                      swap2\n                      0x20\n                      add\n                      swap2\n                      jump(tag_59)\n                    tag_60:\n                      dup3\n                      add\n                      swap2\n                      swap1\n                      0x00\n                      mstore\n                      keccak256(0x00, 0x20)\n                      swap1\n                    tag_61:\n                      dup2\n                      sload\n                      dup2\n                      mstore\n                      swap1\n                      0x01\n                      add\n                      swap1\n                      0x20\n                      add\n                      dup1\n                      dup4\n                      gt\n                      tag_61\n                      jumpi\n                      dup3\n                      swap1\n                      sub\n                      0x1f\n                      and\n                      dup3\n                      add\n                      swap2\n                    tag_59:\n                      pop\n                      pop\n                      pop\n                      pop\n                      pop\n                      swap5\n                      pop\n                      dup4\n                      dup1\n                      sload\n                      tag_62\n                      swap1\n                      tag_57\n                      jump\t// in\n                    tag_62:\n                      dup1\n                      0x1f\n                      add\n                      0x20\n                      dup1\n                      swap2\n                      div\n                      mul\n                      0x20\n                      add\n                      mload(0x40)\n                      swap1\n                      dup2\n                      add\n                      0x40\n                      mstore\n                      dup1\n                      swap3\n                      swap2\n                      swap1\n                      dup2\n                      dup2\n                      mstore\n                      0x20\n                      add\n                      dup3\n                      dup1\n                      sload\n                      tag_63\n                      swap1\n                      tag_57\n                      jump\t// in\n                    tag_63:\n                      dup1\n                      iszero\n                      tag_64\n                      jumpi\n                      dup1\n                      0x1f\n                      lt\n                      tag_65\n                      jumpi\n                      0x0100\n                      dup1\n                      dup4\n                      sload\n                      div\n                      mul\n                      dup4\n                      mstore\n                      swap2\n                      0x20\n                      add\n                      swap2\n                      jump(tag_64)\n                    tag_65:\n                      dup3\n                      add\n                      swap2\n                      swap1\n                      0x00\n                      mstore\n                      keccak256(0x00, 0x20)\n                      swap1\n                    tag_66:\n                      dup2\n                      sload\n                      dup2\n                      mstore\n                      swap1\n                      0x01\n                      add\n                      swap1\n                      0x20\n                      add\n                      dup1\n                      dup4\n                      gt\n                      tag_66\n                      jumpi\n                      dup3\n                      swap1\n                      sub\n                      0x1f\n                      and\n                      dup3\n                      add\n                      swap2\n                    tag_64:\n                      pop\n                      pop\n                      pop\n                      pop\n                      pop\n                      swap4\n                      pop\n                      dup3\n                      dup1\n                      sload\n                      dup1\n                      0x20\n                      mul\n                      0x20\n                      add\n                      mload(0x40)\n                      swap1\n                      dup2\n                      add\n                      0x40\n                      mstore\n                      dup1\n                      swap3\n                      swap2\n                      swap1\n                      dup2\n                      dup2\n                      mstore\n                      0x20\n                      add\n                      dup3\n                      dup1\n                      sload\n                      dup1\n                      iszero\n                      tag_67\n                      jumpi\n                      0x20\n                      mul\n                      dup3\n                      add\n                      swap2\n                      swap1\n                      0x00\n                      mstore\n                      keccak256(0x00, 0x20)\n                      swap1\n                    tag_68:\n                      dup2\n                      0x00\n                      swap1\n                      sload\n                      swap1\n                      0x0100\n                      exp\n                      swap1\n                      div\n                      0xffffffffffffffffffffffffffffffffffffffff\n                      and\n                      0xffffffffffffffffffffffffffffffffffffffff\n                      and\n                      dup2\n                      mstore\n                      0x20\n                      add\n                      swap1\n                      0x01\n                      add\n                      swap1\n                      dup1\n                      dup4\n                      gt\n                      tag_68\n                      jumpi\n                    tag_67:\n                      pop\n                      pop\n                      pop\n                      pop\n                      pop\n                      swap3\n                      pop\n                      dup2\n                      dup1\n                      sload\n                      dup1\n                      0x20\n                      mul\n                      0x20\n                      add\n                      mload(0x40)\n                      swap1\n                      dup2\n                      add\n                      0x40\n                      mstore\n                      dup1\n                      swap3\n                      swap2\n                      swap1\n                      dup2\n                      dup2\n                      mstore\n                      0x20\n                      add\n                      dup3\n                      dup1\n                      sload\n                      dup1\n                      iszero\n                      tag_69\n                      jumpi\n                      0x20\n                      mul\n                      dup3\n                      add\n                      swap2\n                      swap1\n                      0x00\n                      mstore\n                      keccak256(0x00, 0x20)\n                      swap1\n                    tag_70:\n                      dup2\n                      0x00\n                      swap1\n                      sload\n                      swap1\n                      0x0100\n                      exp\n                      swap1\n                      div\n                      0xffffffffffffffffffffffffffffffffffffffff\n                      and\n                      0xffffffffffffffffffffffffffffffffffffffff\n                      and\n                      dup2\n                      mstore\n                      0x20\n                      add\n                      swap1\n                      0x01\n                      add\n                      swap1\n                      dup1\n                      dup4\n                      gt\n                      tag_70\n                      jumpi\n                    tag_69:\n                      pop\n                      pop\n                      pop\n                      pop\n                      pop\n                      swap2\n                      pop\n                      swap7\n                      pop\n                      swap7\n                      pop\n                      swap7\n                      pop\n                      swap7\n                      pop\n                      swap7\n                      pop\n                      swap7\n                      pop\n                      swap7\n                      pop\n                        /* \"Story.sol\":9961:10362  function getSummary() public view returns (... */\n                      swap1\n                      swap2\n                      swap3\n                      swap4\n                      swap5\n                      swap6\n                      swap7\n                      jump\t// out\n                        /* \"Story.sol\":8424:8444  address public story */\n                    tag_20:\n                      0x00\n                      dup1\n                      sload\n                      swap1\n                      0x0100\n                      exp\n                      swap1\n                      div\n                      0xffffffffffffffffffffffffffffffffffffffff\n                      and\n                      dup2\n                      jump\t// out\n                        /* \"Story.sol\":8487:8506  string public title */\n                    tag_24:\n                      0x02\n                      dup1\n                      sload\n                      tag_71\n                      swap1\n                      tag_57\n                      jump\t// in\n                    tag_71:\n                      dup1\n                      0x1f\n                      add\n                      0x20\n                      dup1\n                      swap2\n                      div\n                      mul\n                      0x20\n                      add\n                      mload(0x40)\n                      swap1\n                      dup2\n                      add\n                      0x40\n                      mstore\n                      dup1\n                      swap3\n                      swap2\n                      swap1\n                      dup2\n                      dup2\n                      mstore\n                      0x20\n                      add\n                      dup3\n                      dup1\n                      sload\n                      tag_72\n                      swap1\n                      tag_57\n                      jump\t// in\n                    tag_72:\n                      dup1\n                      iszero\n                      tag_73\n                      jumpi\n                      dup1\n                      0x1f\n                      lt\n                      tag_74\n                      jumpi\n                      0x0100\n                      dup1\n                      dup4\n                      sload\n                      div\n                      mul\n                      dup4\n                      mstore\n                      swap2\n                      0x20\n                      add\n                      swap2\n                      jump(tag_73)\n                    tag_74:\n                      dup3\n                      add\n                      swap2\n                      swap1\n                      0x00\n                      mstore\n                      keccak256(0x00, 0x20)\n                      swap1\n                    tag_75:\n                      dup2\n                      sload\n                      dup2\n                      mstore\n                      swap1\n                      0x01\n                      add\n                      swap1\n                      0x20\n                      add\n                      dup1\n                      dup4\n                      gt\n                      tag_75\n                      jumpi\n                      dup3\n                      swap1\n                      sub\n                      0x1f\n                      and\n                      dup3\n                      add\n                      swap2\n                    tag_73:\n                      pop\n                      pop\n                      pop\n                      pop\n                      pop\n                      dup2\n                      jump\t// out\n                        /* \"Story.sol\":9510:9762  function linkParentChapter(address parentChapter) public {... */\n                    tag_30:\n                        /* \"Story.sol\":9604:9609  story */\n                      0x00\n                      dup1\n                      sload\n                      swap1\n                      0x0100\n                      exp\n                      swap1\n                      div\n                      0xffffffffffffffffffffffffffffffffffffffff\n                      and\n                        /* \"Story.sol\":9590:9609  msg.sender == story */\n                      0xffffffffffffffffffffffffffffffffffffffff\n                      and\n                        /* \"Story.sol\":9590:9600  msg.sender */\n                      caller\n                        /* \"Story.sol\":9590:9609  msg.sender == story */\n                      0xffffffffffffffffffffffffffffffffffffffff\n                      and\n                      eq\n                        /* \"Story.sol\":9582:9695  require(msg.sender == story, \"This function has to be called from the story contract by an accepted author only\") */\n                      tag_77\n                      jumpi\n                      mload(0x40)\n                      0x08c379a000000000000000000000000000000000000000000000000000000000\n                      dup2\n                      mstore\n                      0x04\n                      add\n                      tag_78\n                      swap1\n                      tag_79\n                      jump\t// in\n                    tag_78:\n                      mload(0x40)\n                      dup1\n                      swap2\n                      sub\n                      swap1\n                      revert\n                    tag_77:\n                        /* \"Story.sol\":9710:9730  linkedParentChapters */\n                      0x04\n                        /* \"Story.sol\":9736:9749  parentChapter */\n                      dup2\n                        /* \"Story.sol\":9710:9750  linkedParentChapters.push(parentChapter) */\n                      swap1\n                      dup1\n                      0x01\n                      dup2\n                      sload\n                      add\n                      dup1\n                      dup3\n                      sstore\n                      dup1\n                      swap2\n                      pop\n                      pop\n                      0x01\n                      swap1\n                      sub\n                      swap1\n                      0x00\n                      mstore\n                      keccak256(0x00, 0x20)\n                      add\n                      0x00\n                      swap1\n                      swap2\n                      swap1\n                      swap2\n                      swap1\n                      swap2\n                      0x0100\n                      exp\n                      dup2\n                      sload\n                      dup2\n                      0xffffffffffffffffffffffffffffffffffffffff\n                      mul\n                      not\n                      and\n                      swap1\n                      dup4\n                      0xffffffffffffffffffffffffffffffffffffffff\n                      and\n                      mul\n                      or\n                      swap1\n                      sstore\n                      pop\n                        /* \"Story.sol\":9510:9762  function linkParentChapter(address parentChapter) public {... */\n                      pop\n                      jump\t// out\n                        /* \"Story.sol\":9250:9498  function linkChildChapter(address childChapter) public {... */\n                    tag_33:\n                        /* \"Story.sol\":9342:9347  story */\n                      0x00\n                      dup1\n                      sload\n                      swap1\n                      0x0100\n                      exp\n                      swap1\n                      div\n                      0xffffffffffffffffffffffffffffffffffffffff\n                      and\n                        /* \"Story.sol\":9328:9347  msg.sender == story */\n                      0xffffffffffffffffffffffffffffffffffffffff\n                      and\n                        /* \"Story.sol\":9328:9338  msg.sender */\n                      caller\n                        /* \"Story.sol\":9328:9347  msg.sender == story */\n                      0xffffffffffffffffffffffffffffffffffffffff\n                      and\n                      eq\n                        /* \"Story.sol\":9320:9433  require(msg.sender == story, \"This function has to be called from the story contract by an accepted author only\") */\n                      tag_82\n                      jumpi\n                      mload(0x40)\n                      0x08c379a000000000000000000000000000000000000000000000000000000000\n                      dup2\n                      mstore\n                      0x04\n                      add\n                      tag_83\n                      swap1\n                      tag_79\n                      jump\t// in\n                    tag_83:\n                      mload(0x40)\n                      dup1\n                      swap2\n                      sub\n                      swap1\n                      revert\n                    tag_82:\n                        /* \"Story.sol\":9448:9467  linkedChildChapters */\n                      0x05\n                        /* \"Story.sol\":9473:9485  childChapter */\n                      dup2\n                        /* \"Story.sol\":9448:9486  linkedChildChapters.push(childChapter) */\n                      swap1\n                      dup1\n                      0x01\n                      dup2\n                      sload\n                      add\n                      dup1\n                      dup3\n                      sstore\n                      dup1\n                      swap2\n                      pop\n                      pop\n                      0x01\n                      swap1\n                      sub\n                      swap1\n                      0x00\n                      mstore\n                      keccak256(0x00, 0x20)\n                      add\n                      0x00\n                      swap1\n                      swap2\n                      swap1\n                      swap2\n                      swap1\n                      swap2\n                      0x0100\n                      exp\n                      dup2\n                      sload\n                      dup2\n                      0xffffffffffffffffffffffffffffffffffffffff\n                      mul\n                      not\n                      and\n                      swap1\n                      dup4\n                      0xffffffffffffffffffffffffffffffffffffffff\n                      and\n                      mul\n                      or\n                      swap1\n                      sstore\n                      pop\n                        /* \"Story.sol\":9250:9498  function linkChildChapter(address childChapter) public {... */\n                      pop\n                      jump\t// out\n                        /* \"Story.sol\":9774:9949  function like() public {... */\n                    tag_35:\n                        /* \"Story.sol\":9821:9827  likers */\n                      0x06\n                        /* \"Story.sol\":9821:9839  likers[msg.sender] */\n                      0x00\n                        /* \"Story.sol\":9828:9838  msg.sender */\n                      caller\n                        /* \"Story.sol\":9821:9839  likers[msg.sender] */\n                      0xffffffffffffffffffffffffffffffffffffffff\n                      and\n                      0xffffffffffffffffffffffffffffffffffffffff\n                      and\n                      dup2\n                      mstore\n                      0x20\n                      add\n                      swap1\n                      dup2\n                      mstore\n                      0x20\n                      add\n                      0x00\n                      keccak256\n                      0x00\n                      swap1\n                      sload\n                      swap1\n                      0x0100\n                      exp\n                      swap1\n                      div\n                      0xff\n                      and\n                        /* \"Story.sol\":9820:9839  !likers[msg.sender] */\n                      iszero\n                        /* \"Story.sol\":9812:9871  require(!likers[msg.sender], \"You liked this story before\") */\n                      tag_86\n                      jumpi\n                      mload(0x40)\n                      0x08c379a000000000000000000000000000000000000000000000000000000000\n                      dup2\n                      mstore\n                      0x04\n                      add\n                      tag_87\n                      swap1\n                      tag_88\n                      jump\t// in\n                    tag_87:\n                      mload(0x40)\n                      dup1\n                      swap2\n                      sub\n                      swap1\n                      revert\n                    tag_86:\n                        /* \"Story.sol\":9907:9911  true */\n                      0x01\n                        /* \"Story.sol\":9886:9892  likers */\n                      0x06\n                        /* \"Story.sol\":9886:9904  likers[msg.sender] */\n                      0x00\n                        /* \"Story.sol\":9893:9903  msg.sender */\n                      caller\n                        /* \"Story.sol\":9886:9904  likers[msg.sender] */\n                      0xffffffffffffffffffffffffffffffffffffffff\n                      and\n                      0xffffffffffffffffffffffffffffffffffffffff\n                      and\n                      dup2\n                      mstore\n                      0x20\n                      add\n                      swap1\n                      dup2\n                      mstore\n                      0x20\n                      add\n                      0x00\n                      keccak256\n                      0x00\n                        /* \"Story.sol\":9886:9911  likers[msg.sender] = true */\n                      0x0100\n                      exp\n                      dup2\n                      sload\n                      dup2\n                      0xff\n                      mul\n                      not\n                      and\n                      swap1\n                      dup4\n                      iszero\n                      iszero\n                      mul\n                      or\n                      swap1\n                      sstore\n                      pop\n                        /* \"Story.sol\":9926:9935  likeCount */\n                      0x07\n                      0x00\n                        /* \"Story.sol\":9926:9937  likeCount++ */\n                      dup2\n                      sload\n                      dup1\n                      swap3\n                      swap2\n                      swap1\n                      tag_89\n                      swap1\n                      tag_90\n                      jump\t// in\n                    tag_89:\n                      swap2\n                      swap1\n                      pop\n                      sstore\n                      pop\n                        /* \"Story.sol\":9774:9949  function like() public {... */\n                      jump\t// out\n                        /* \"Story.sol\":8455:8476  address public author */\n                    tag_37:\n                      0x01\n                      0x00\n                      swap1\n                      sload\n                      swap1\n                      0x0100\n                      exp\n                      swap1\n                      div\n                      0xffffffffffffffffffffffffffffffffffffffff\n                      and\n                      dup2\n                      jump\t// out\n                        /* \"Story.sol\":8598:8634  address[] public linkedChildChapters */\n                    tag_42:\n                      0x05\n                      dup2\n                      dup2\n                      sload\n                      dup2\n                      lt\n                      tag_91\n                      jumpi\n                      0x00\n                      dup1\n                      revert\n                    tag_91:\n                      swap1\n                      0x00\n                      mstore\n                      keccak256(0x00, 0x20)\n                      add\n                      0x00\n                      swap2\n                      pop\n                      sload\n                      swap1\n                      0x0100\n                      exp\n                      swap1\n                      div\n                      0xffffffffffffffffffffffffffffffffffffffff\n                      and\n                      dup2\n                      jump\t// out\n                        /* \"Story.sol\":8517:8539  string public ipfsHash */\n                    tag_45:\n                      0x03\n                      dup1\n                      sload\n                      tag_93\n                      swap1\n                      tag_57\n                      jump\t// in\n                    tag_93:\n                      dup1\n                      0x1f\n                      add\n                      0x20\n                      dup1\n                      swap2\n                      div\n                      mul\n                      0x20\n                      add\n                      mload(0x40)\n                      swap1\n                      dup2\n                      add\n                      0x40\n                      mstore\n                      dup1\n                      swap3\n                      swap2\n                      swap1\n                      dup2\n                      dup2\n                      mstore\n                      0x20\n                      add\n                      dup3\n                      dup1\n                      sload\n                      tag_94\n                      swap1\n                      tag_57\n                      jump\t// in\n                    tag_94:\n                      dup1\n                      iszero\n                      tag_95\n                      jumpi\n                      dup1\n                      0x1f\n                      lt\n                      tag_96\n                      jumpi\n                      0x0100\n                      dup1\n                      dup4\n                      sload\n                      div\n                      mul\n                      dup4\n                      mstore\n                      swap2\n                      0x20\n                      add\n                      swap2\n                      jump(tag_95)\n                    tag_96:\n                      dup3\n                      add\n                      swap2\n                      swap1\n                      0x00\n                      mstore\n                      keccak256(0x00, 0x20)\n                      swap1\n                    tag_97:\n                      dup2\n                      sload\n                      dup2\n                      mstore\n                      swap1\n                      0x01\n                      add\n                      swap1\n                      0x20\n                      add\n                      dup1\n                      dup4\n                      gt\n                      tag_97\n                      jumpi\n                      dup3\n                      swap1\n                      sub\n                      0x1f\n                      and\n                      dup3\n                      add\n                      swap2\n                    tag_95:\n                      pop\n                      pop\n                      pop\n                      pop\n                      pop\n                      dup2\n                      jump\t// out\n                        /* \"Story.sol\":8687:8711  uint256 public likeCount */\n                    tag_48:\n                      sload(0x07)\n                      dup2\n                      jump\t// out\n                        /* \"Story.sol\":8550:8587  address[] public linkedParentChapters */\n                    tag_53:\n                      0x04\n                      dup2\n                      dup2\n                      sload\n                      dup2\n                      lt\n                      tag_98\n                      jumpi\n                      0x00\n                      dup1\n                      revert\n                    tag_98:\n                      swap1\n                      0x00\n                      mstore\n                      keccak256(0x00, 0x20)\n                      add\n                      0x00\n                      swap2\n                      pop\n                      sload\n                      swap1\n                      0x0100\n                      exp\n                      swap1\n                      div\n                      0xffffffffffffffffffffffffffffffffffffffff\n                      and\n                      dup2\n                      jump\t// out\n                        /* \"#utility.yul\":7:133   */\n                    tag_100:\n                        /* \"#utility.yul\":44:51   */\n                      0x00\n                        /* \"#utility.yul\":84:126   */\n                      0xffffffffffffffffffffffffffffffffffffffff\n                        /* \"#utility.yul\":77:82   */\n                      dup3\n                        /* \"#utility.yul\":73:127   */\n                      and\n                        /* \"#utility.yul\":62:127   */\n                      swap1\n                      pop\n                        /* \"#utility.yul\":7:133   */\n                      swap2\n                      swap1\n                      pop\n                      jump\t// out\n                        /* \"#utility.yul\":139:235   */\n                    tag_101:\n                        /* \"#utility.yul\":176:183   */\n                      0x00\n                        /* \"#utility.yul\":205:229   */\n                      tag_133\n                        /* \"#utility.yul\":223:228   */\n                      dup3\n                        /* \"#utility.yul\":205:229   */\n                      tag_100\n                      jump\t// in\n                    tag_133:\n                        /* \"#utility.yul\":194:229   */\n                      swap1\n                      pop\n                        /* \"#utility.yul\":139:235   */\n                      swap2\n                      swap1\n                      pop\n                      jump\t// out\n                        /* \"#utility.yul\":241:359   */\n                    tag_102:\n                        /* \"#utility.yul\":328:352   */\n                      tag_135\n                        /* \"#utility.yul\":346:351   */\n                      dup2\n                        /* \"#utility.yul\":328:352   */\n                      tag_101\n                      jump\t// in\n                    tag_135:\n                        /* \"#utility.yul\":323:326   */\n                      dup3\n                        /* \"#utility.yul\":316:353   */\n                      mstore\n                        /* \"#utility.yul\":241:359   */\n                      pop\n                      pop\n                      jump\t// out\n                        /* \"#utility.yul\":365:464   */\n                    tag_103:\n                        /* \"#utility.yul\":417:423   */\n                      0x00\n                        /* \"#utility.yul\":451:456   */\n                      dup2\n                        /* \"#utility.yul\":445:457   */\n                      mload\n                        /* \"#utility.yul\":435:457   */\n                      swap1\n                      pop\n                        /* \"#utility.yul\":365:464   */\n                      swap2\n                      swap1\n                      pop\n                      jump\t// out\n                        /* \"#utility.yul\":470:639   */\n                    tag_104:\n                        /* \"#utility.yul\":554:565   */\n                      0x00\n                        /* \"#utility.yul\":588:594   */\n                      dup3\n                        /* \"#utility.yul\":583:586   */\n                      dup3\n                        /* \"#utility.yul\":576:595   */\n                      mstore\n                        /* \"#utility.yul\":628:632   */\n                      0x20\n                        /* \"#utility.yul\":623:626   */\n                      dup3\n                        /* \"#utility.yul\":619:633   */\n                      add\n                        /* \"#utility.yul\":604:633   */\n                      swap1\n                      pop\n                        /* \"#utility.yul\":470:639   */\n                      swap3\n                      swap2\n                      pop\n                      pop\n                      jump\t// out\n                        /* \"#utility.yul\":645:952   */\n                    tag_105:\n                        /* \"#utility.yul\":713:714   */\n                      0x00\n                        /* \"#utility.yul\":723:836   */\n                    tag_139:\n                        /* \"#utility.yul\":737:743   */\n                      dup4\n                        /* \"#utility.yul\":734:735   */\n                      dup2\n                        /* \"#utility.yul\":731:744   */\n                      lt\n                        /* \"#utility.yul\":723:836   */\n                      iszero\n                      tag_141\n                      jumpi\n                        /* \"#utility.yul\":822:823   */\n                      dup1\n                        /* \"#utility.yul\":817:820   */\n                      dup3\n                        /* \"#utility.yul\":813:824   */\n                      add\n                        /* \"#utility.yul\":807:825   */\n                      mload\n                        /* \"#utility.yul\":803:804   */\n                      dup2\n                        /* \"#utility.yul\":798:801   */\n                      dup5\n                        /* \"#utility.yul\":794:805   */\n                      add\n                        /* \"#utility.yul\":787:826   */\n                      mstore\n                        /* \"#utility.yul\":759:761   */\n                      0x20\n                        /* \"#utility.yul\":756:757   */\n                      dup2\n                        /* \"#utility.yul\":752:762   */\n                      add\n                        /* \"#utility.yul\":747:762   */\n                      swap1\n                      pop\n                        /* \"#utility.yul\":723:836   */\n                      jump(tag_139)\n                    tag_141:\n                        /* \"#utility.yul\":854:860   */\n                      dup4\n                        /* \"#utility.yul\":851:852   */\n                      dup2\n                        /* \"#utility.yul\":848:861   */\n                      gt\n                        /* \"#utility.yul\":845:946   */\n                      iszero\n                      tag_142\n                      jumpi\n                        /* \"#utility.yul\":934:935   */\n                      0x00\n                        /* \"#utility.yul\":925:931   */\n                      dup5\n                        /* \"#utility.yul\":920:923   */\n                      dup5\n                        /* \"#utility.yul\":916:932   */\n                      add\n                        /* \"#utility.yul\":909:936   */\n                      mstore\n                        /* \"#utility.yul\":845:946   */\n                    tag_142:\n                        /* \"#utility.yul\":694:952   */\n                      pop\n                        /* \"#utility.yul\":645:952   */\n                      pop\n                      pop\n                      pop\n                      jump\t// out\n                        /* \"#utility.yul\":958:1060   */\n                    tag_106:\n                        /* \"#utility.yul\":999:1005   */\n                      0x00\n                        /* \"#utility.yul\":1050:1052   */\n                      0x1f\n                        /* \"#utility.yul\":1046:1053   */\n                      not\n                        /* \"#utility.yul\":1041:1043   */\n                      0x1f\n                        /* \"#utility.yul\":1034:1039   */\n                      dup4\n                        /* \"#utility.yul\":1030:1044   */\n                      add\n                        /* \"#utility.yul\":1026:1054   */\n                      and\n                        /* \"#utility.yul\":1016:1054   */\n                      swap1\n                      pop\n                        /* \"#utility.yul\":958:1060   */\n                      swap2\n                      swap1\n                      pop\n                      jump\t// out\n                        /* \"#utility.yul\":1066:1430   */\n                    tag_107:\n                        /* \"#utility.yul\":1154:1157   */\n                      0x00\n                        /* \"#utility.yul\":1182:1221   */\n                      tag_145\n                        /* \"#utility.yul\":1215:1220   */\n                      dup3\n                        /* \"#utility.yul\":1182:1221   */\n                      tag_103\n                      jump\t// in\n                    tag_145:\n                        /* \"#utility.yul\":1237:1308   */\n                      tag_146\n                        /* \"#utility.yul\":1301:1307   */\n                      dup2\n                        /* \"#utility.yul\":1296:1299   */\n                      dup6\n                        /* \"#utility.yul\":1237:1308   */\n                      tag_104\n                      jump\t// in\n                    tag_146:\n                        /* \"#utility.yul\":1230:1308   */\n                      swap4\n                      pop\n                        /* \"#utility.yul\":1317:1369   */\n                      tag_147\n                        /* \"#utility.yul\":1362:1368   */\n                      dup2\n                        /* \"#utility.yul\":1357:1360   */\n                      dup6\n                        /* \"#utility.yul\":1350:1354   */\n                      0x20\n                        /* \"#utility.yul\":1343:1348   */\n                      dup7\n                        /* \"#utility.yul\":1339:1355   */\n                      add\n                        /* \"#utility.yul\":1317:1369   */\n                      tag_105\n                      jump\t// in\n                    tag_147:\n                        /* \"#utility.yul\":1394:1423   */\n                      tag_148\n                        /* \"#utility.yul\":1416:1422   */\n                      dup2\n                        /* \"#utility.yul\":1394:1423   */\n                      tag_106\n                      jump\t// in\n                    tag_148:\n                        /* \"#utility.yul\":1389:1392   */\n                      dup5\n                        /* \"#utility.yul\":1385:1424   */\n                      add\n                        /* \"#utility.yul\":1378:1424   */\n                      swap2\n                      pop\n                        /* \"#utility.yul\":1158:1430   */\n                      pop\n                        /* \"#utility.yul\":1066:1430   */\n                      swap3\n                      swap2\n                      pop\n                      pop\n                      jump\t// out\n                        /* \"#utility.yul\":1436:1550   */\n                    tag_108:\n                        /* \"#utility.yul\":1503:1509   */\n                      0x00\n                        /* \"#utility.yul\":1537:1542   */\n                      dup2\n                        /* \"#utility.yul\":1531:1543   */\n                      mload\n                        /* \"#utility.yul\":1521:1543   */\n                      swap1\n                      pop\n                        /* \"#utility.yul\":1436:1550   */\n                      swap2\n                      swap1\n                      pop\n                      jump\t// out\n                        /* \"#utility.yul\":1556:1740   */\n                    tag_109:\n                        /* \"#utility.yul\":1655:1666   */\n                      0x00\n                        /* \"#utility.yul\":1689:1695   */\n                      dup3\n                        /* \"#utility.yul\":1684:1687   */\n                      dup3\n                        /* \"#utility.yul\":1677:1696   */\n                      mstore\n                        /* \"#utility.yul\":1729:1733   */\n                      0x20\n                        /* \"#utility.yul\":1724:1727   */\n                      dup3\n                        /* \"#utility.yul\":1720:1734   */\n                      add\n                        /* \"#utility.yul\":1705:1734   */\n                      swap1\n                      pop\n                        /* \"#utility.yul\":1556:1740   */\n                      swap3\n                      swap2\n                      pop\n                      pop\n                      jump\t// out\n                        /* \"#utility.yul\":1746:1878   */\n                    tag_110:\n                        /* \"#utility.yul\":1813:1817   */\n                      0x00\n                        /* \"#utility.yul\":1836:1839   */\n                      dup2\n                        /* \"#utility.yul\":1828:1839   */\n                      swap1\n                      pop\n                        /* \"#utility.yul\":1866:1870   */\n                      0x20\n                        /* \"#utility.yul\":1861:1864   */\n                      dup3\n                        /* \"#utility.yul\":1857:1871   */\n                      add\n                        /* \"#utility.yul\":1849:1871   */\n                      swap1\n                      pop\n                        /* \"#utility.yul\":1746:1878   */\n                      swap2\n                      swap1\n                      pop\n                      jump\t// out\n                        /* \"#utility.yul\":1884:1992   */\n                    tag_111:\n                        /* \"#utility.yul\":1961:1985   */\n                      tag_153\n                        /* \"#utility.yul\":1979:1984   */\n                      dup2\n                        /* \"#utility.yul\":1961:1985   */\n                      tag_101\n                      jump\t// in\n                    tag_153:\n                        /* \"#utility.yul\":1956:1959   */\n                      dup3\n                        /* \"#utility.yul\":1949:1986   */\n                      mstore\n                        /* \"#utility.yul\":1884:1992   */\n                      pop\n                      pop\n                      jump\t// out\n                        /* \"#utility.yul\":1998:2177   */\n                    tag_112:\n                        /* \"#utility.yul\":2067:2077   */\n                      0x00\n                        /* \"#utility.yul\":2088:2134   */\n                      tag_155\n                        /* \"#utility.yul\":2130:2133   */\n                      dup4\n                        /* \"#utility.yul\":2122:2128   */\n                      dup4\n                        /* \"#utility.yul\":2088:2134   */\n                      tag_111\n                      jump\t// in\n                    tag_155:\n                        /* \"#utility.yul\":2166:2170   */\n                      0x20\n                        /* \"#utility.yul\":2161:2164   */\n                      dup4\n                        /* \"#utility.yul\":2157:2171   */\n                      add\n                        /* \"#utility.yul\":2143:2171   */\n                      swap1\n                      pop\n                        /* \"#utility.yul\":1998:2177   */\n                      swap3\n                      swap2\n                      pop\n                      pop\n                      jump\t// out\n                        /* \"#utility.yul\":2183:2296   */\n                    tag_113:\n                        /* \"#utility.yul\":2253:2257   */\n                      0x00\n                        /* \"#utility.yul\":2285:2289   */\n                      0x20\n                        /* \"#utility.yul\":2280:2283   */\n                      dup3\n                        /* \"#utility.yul\":2276:2290   */\n                      add\n                        /* \"#utility.yul\":2268:2290   */\n                      swap1\n                      pop\n                        /* \"#utility.yul\":2183:2296   */\n                      swap2\n                      swap1\n                      pop\n                      jump\t// out\n                        /* \"#utility.yul\":2332:3064   */\n                    tag_114:\n                        /* \"#utility.yul\":2451:2454   */\n                      0x00\n                        /* \"#utility.yul\":2480:2534   */\n                      tag_158\n                        /* \"#utility.yul\":2528:2533   */\n                      dup3\n                        /* \"#utility.yul\":2480:2534   */\n                      tag_108\n                      jump\t// in\n                    tag_158:\n                        /* \"#utility.yul\":2550:2636   */\n                      tag_159\n                        /* \"#utility.yul\":2629:2635   */\n                      dup2\n                        /* \"#utility.yul\":2624:2627   */\n                      dup6\n                        /* \"#utility.yul\":2550:2636   */\n                      tag_109\n                      jump\t// in\n                    tag_159:\n                        /* \"#utility.yul\":2543:2636   */\n                      swap4\n                      pop\n                        /* \"#utility.yul\":2660:2716   */\n                      tag_160\n                        /* \"#utility.yul\":2710:2715   */\n                      dup4\n                        /* \"#utility.yul\":2660:2716   */\n                      tag_110\n                      jump\t// in\n                    tag_160:\n                        /* \"#utility.yul\":2739:2746   */\n                      dup1\n                        /* \"#utility.yul\":2770:2771   */\n                      0x00\n                        /* \"#utility.yul\":2755:3039   */\n                    tag_161:\n                        /* \"#utility.yul\":2780:2786   */\n                      dup4\n                        /* \"#utility.yul\":2777:2778   */\n                      dup2\n                        /* \"#utility.yul\":2774:2787   */\n                      lt\n                        /* \"#utility.yul\":2755:3039   */\n                      iszero\n                      tag_163\n                      jumpi\n                        /* \"#utility.yul\":2856:2862   */\n                      dup2\n                        /* \"#utility.yul\":2850:2863   */\n                      mload\n                        /* \"#utility.yul\":2883:2946   */\n                      tag_164\n                        /* \"#utility.yul\":2942:2945   */\n                      dup9\n                        /* \"#utility.yul\":2927:2940   */\n                      dup3\n                        /* \"#utility.yul\":2883:2946   */\n                      tag_112\n                      jump\t// in\n                    tag_164:\n                        /* \"#utility.yul\":2876:2946   */\n                      swap8\n                      pop\n                        /* \"#utility.yul\":2969:3029   */\n                      tag_165\n                        /* \"#utility.yul\":3022:3028   */\n                      dup4\n                        /* \"#utility.yul\":2969:3029   */\n                      tag_113\n                      jump\t// in\n                    tag_165:\n                        /* \"#utility.yul\":2959:3029   */\n                      swap3\n                      pop\n                        /* \"#utility.yul\":2815:3039   */\n                      pop\n                        /* \"#utility.yul\":2802:2803   */\n                      0x01\n                        /* \"#utility.yul\":2799:2800   */\n                      dup2\n                        /* \"#utility.yul\":2795:2804   */\n                      add\n                        /* \"#utility.yul\":2790:2804   */\n                      swap1\n                      pop\n                        /* \"#utility.yul\":2755:3039   */\n                      jump(tag_161)\n                    tag_163:\n                        /* \"#utility.yul\":2759:2773   */\n                      pop\n                        /* \"#utility.yul\":3055:3058   */\n                      dup6\n                        /* \"#utility.yul\":3048:3058   */\n                      swap4\n                      pop\n                        /* \"#utility.yul\":2456:3064   */\n                      pop\n                      pop\n                      pop\n                        /* \"#utility.yul\":2332:3064   */\n                      swap3\n                      swap2\n                      pop\n                      pop\n                      jump\t// out\n                        /* \"#utility.yul\":3070:3147   */\n                    tag_115:\n                        /* \"#utility.yul\":3107:3114   */\n                      0x00\n                        /* \"#utility.yul\":3136:3141   */\n                      dup2\n                        /* \"#utility.yul\":3125:3141   */\n                      swap1\n                      pop\n                        /* \"#utility.yul\":3070:3147   */\n                      swap2\n                      swap1\n                      pop\n                      jump\t// out\n                        /* \"#utility.yul\":3153:3271   */\n                    tag_116:\n                        /* \"#utility.yul\":3240:3264   */\n                      tag_168\n                        /* \"#utility.yul\":3258:3263   */\n                      dup2\n                        /* \"#utility.yul\":3240:3264   */\n                      tag_115\n                      jump\t// in\n                    tag_168:\n                        /* \"#utility.yul\":3235:3238   */\n                      dup3\n                        /* \"#utility.yul\":3228:3265   */\n                      mstore\n                        /* \"#utility.yul\":3153:3271   */\n                      pop\n                      pop\n                      jump\t// out\n                        /* \"#utility.yul\":3277:4647   */\n                    tag_18:\n                        /* \"#utility.yul\":3678:3682   */\n                      0x00\n                        /* \"#utility.yul\":3716:3719   */\n                      0xe0\n                        /* \"#utility.yul\":3705:3714   */\n                      dup3\n                        /* \"#utility.yul\":3701:3720   */\n                      add\n                        /* \"#utility.yul\":3693:3720   */\n                      swap1\n                      pop\n                        /* \"#utility.yul\":3730:3801   */\n                      tag_170\n                        /* \"#utility.yul\":3798:3799   */\n                      0x00\n                        /* \"#utility.yul\":3787:3796   */\n                      dup4\n                        /* \"#utility.yul\":3783:3800   */\n                      add\n                        /* \"#utility.yul\":3774:3780   */\n                      dup11\n                        /* \"#utility.yul\":3730:3801   */\n                      tag_102\n                      jump\t// in\n                    tag_170:\n                        /* \"#utility.yul\":3811:3883   */\n                      tag_171\n                        /* \"#utility.yul\":3879:3881   */\n                      0x20\n                        /* \"#utility.yul\":3868:3877   */\n                      dup4\n                        /* \"#utility.yul\":3864:3882   */\n                      add\n                        /* \"#utility.yul\":3855:3861   */\n                      dup10\n                        /* \"#utility.yul\":3811:3883   */\n                      tag_102\n                      jump\t// in\n                    tag_171:\n                        /* \"#utility.yul\":3930:3939   */\n                      dup2\n                        /* \"#utility.yul\":3924:3928   */\n                      dup2\n                        /* \"#utility.yul\":3920:3940   */\n                      sub\n                        /* \"#utility.yul\":3915:3917   */\n                      0x40\n                        /* \"#utility.yul\":3904:3913   */\n                      dup4\n                        /* \"#utility.yul\":3900:3918   */\n                      add\n                        /* \"#utility.yul\":3893:3941   */\n                      mstore\n                        /* \"#utility.yul\":3958:4036   */\n                      tag_172\n                        /* \"#utility.yul\":4031:4035   */\n                      dup2\n                        /* \"#utility.yul\":4022:4028   */\n                      dup9\n                        /* \"#utility.yul\":3958:4036   */\n                      tag_107\n                      jump\t// in\n                    tag_172:\n                        /* \"#utility.yul\":3950:4036   */\n                      swap1\n                      pop\n                        /* \"#utility.yul\":4083:4092   */\n                      dup2\n                        /* \"#utility.yul\":4077:4081   */\n                      dup2\n                        /* \"#utility.yul\":4073:4093   */\n                      sub\n                        /* \"#utility.yul\":4068:4070   */\n                      0x60\n                        /* \"#utility.yul\":4057:4066   */\n                      dup4\n                        /* \"#utility.yul\":4053:4071   */\n                      add\n                        /* \"#utility.yul\":4046:4094   */\n                      mstore\n                        /* \"#utility.yul\":4111:4189   */\n                      tag_173\n                        /* \"#utility.yul\":4184:4188   */\n                      dup2\n                        /* \"#utility.yul\":4175:4181   */\n                      dup8\n                        /* \"#utility.yul\":4111:4189   */\n                      tag_107\n                      jump\t// in\n                    tag_173:\n                        /* \"#utility.yul\":4103:4189   */\n                      swap1\n                      pop\n                        /* \"#utility.yul\":4237:4246   */\n                      dup2\n                        /* \"#utility.yul\":4231:4235   */\n                      dup2\n                        /* \"#utility.yul\":4227:4247   */\n                      sub\n                        /* \"#utility.yul\":4221:4224   */\n                      0x80\n                        /* \"#utility.yul\":4210:4219   */\n                      dup4\n                        /* \"#utility.yul\":4206:4225   */\n                      add\n                        /* \"#utility.yul\":4199:4248   */\n                      mstore\n                        /* \"#utility.yul\":4265:4373   */\n                      tag_174\n                        /* \"#utility.yul\":4368:4372   */\n                      dup2\n                        /* \"#utility.yul\":4359:4365   */\n                      dup7\n                        /* \"#utility.yul\":4265:4373   */\n                      tag_114\n                      jump\t// in\n                    tag_174:\n                        /* \"#utility.yul\":4257:4373   */\n                      swap1\n                      pop\n                        /* \"#utility.yul\":4421:4430   */\n                      dup2\n                        /* \"#utility.yul\":4415:4419   */\n                      dup2\n                        /* \"#utility.yul\":4411:4431   */\n                      sub\n                        /* \"#utility.yul\":4405:4408   */\n                      0xa0\n                        /* \"#utility.yul\":4394:4403   */\n                      dup4\n                        /* \"#utility.yul\":4390:4409   */\n                      add\n                        /* \"#utility.yul\":4383:4432   */\n                      mstore\n                        /* \"#utility.yul\":4449:4557   */\n                      tag_175\n                        /* \"#utility.yul\":4552:4556   */\n                      dup2\n                        /* \"#utility.yul\":4543:4549   */\n                      dup6\n                        /* \"#utility.yul\":4449:4557   */\n                      tag_114\n                      jump\t// in\n                    tag_175:\n                        /* \"#utility.yul\":4441:4557   */\n                      swap1\n                      pop\n                        /* \"#utility.yul\":4567:4640   */\n                      tag_176\n                        /* \"#utility.yul\":4635:4638   */\n                      0xc0\n                        /* \"#utility.yul\":4624:4633   */\n                      dup4\n                        /* \"#utility.yul\":4620:4639   */\n                      add\n                        /* \"#utility.yul\":4611:4617   */\n                      dup5\n                        /* \"#utility.yul\":4567:4640   */\n                      tag_116\n                      jump\t// in\n                    tag_176:\n                        /* \"#utility.yul\":3277:4647   */\n                      swap9\n                      swap8\n                      pop\n                      pop\n                      pop\n                      pop\n                      pop\n                      pop\n                      pop\n                      pop\n                      jump\t// out\n                        /* \"#utility.yul\":4653:4875   */\n                    tag_22:\n                        /* \"#utility.yul\":4746:4750   */\n                      0x00\n                        /* \"#utility.yul\":4784:4786   */\n                      0x20\n                        /* \"#utility.yul\":4773:4782   */\n                      dup3\n                        /* \"#utility.yul\":4769:4787   */\n                      add\n                        /* \"#utility.yul\":4761:4787   */\n                      swap1\n                      pop\n                        /* \"#utility.yul\":4797:4868   */\n                      tag_178\n                        /* \"#utility.yul\":4865:4866   */\n                      0x00\n                        /* \"#utility.yul\":4854:4863   */\n                      dup4\n                        /* \"#utility.yul\":4850:4867   */\n                      add\n                        /* \"#utility.yul\":4841:4847   */\n                      dup5\n                        /* \"#utility.yul\":4797:4868   */\n                      tag_102\n                      jump\t// in\n                    tag_178:\n                        /* \"#utility.yul\":4653:4875   */\n                      swap3\n                      swap2\n                      pop\n                      pop\n                      jump\t// out\n                        /* \"#utility.yul\":4881:5194   */\n                    tag_26:\n                        /* \"#utility.yul\":4994:4998   */\n                      0x00\n                        /* \"#utility.yul\":5032:5034   */\n                      0x20\n                        /* \"#utility.yul\":5021:5030   */\n                      dup3\n                        /* \"#utility.yul\":5017:5035   */\n                      add\n                        /* \"#utility.yul\":5009:5035   */\n                      swap1\n                      pop\n                        /* \"#utility.yul\":5081:5090   */\n                      dup2\n                        /* \"#utility.yul\":5075:5079   */\n                      dup2\n                        /* \"#utility.yul\":5071:5091   */\n                      sub\n                        /* \"#utility.yul\":5067:5068   */\n                      0x00\n                        /* \"#utility.yul\":5056:5065   */\n                      dup4\n                        /* \"#utility.yul\":5052:5069   */\n                      add\n                        /* \"#utility.yul\":5045:5092   */\n                      mstore\n                        /* \"#utility.yul\":5109:5187   */\n                      tag_180\n                        /* \"#utility.yul\":5182:5186   */\n                      dup2\n                        /* \"#utility.yul\":5173:5179   */\n                      dup5\n                        /* \"#utility.yul\":5109:5187   */\n                      tag_107\n                      jump\t// in\n                    tag_180:\n                        /* \"#utility.yul\":5101:5187   */\n                      swap1\n                      pop\n                        /* \"#utility.yul\":4881:5194   */\n                      swap3\n                      swap2\n                      pop\n                      pop\n                      jump\t// out\n                        /* \"#utility.yul\":5281:5398   */\n                    tag_118:\n                        /* \"#utility.yul\":5390:5391   */\n                      0x00\n                        /* \"#utility.yul\":5387:5388   */\n                      dup1\n                        /* \"#utility.yul\":5380:5392   */\n                      revert\n                        /* \"#utility.yul\":5527:5649   */\n                    tag_120:\n                        /* \"#utility.yul\":5600:5624   */\n                      tag_185\n                        /* \"#utility.yul\":5618:5623   */\n                      dup2\n                        /* \"#utility.yul\":5600:5624   */\n                      tag_101\n                      jump\t// in\n                    tag_185:\n                        /* \"#utility.yul\":5593:5598   */\n                      dup2\n                        /* \"#utility.yul\":5590:5625   */\n                      eq\n                        /* \"#utility.yul\":5580:5643   */\n                      tag_186\n                      jumpi\n                        /* \"#utility.yul\":5639:5640   */\n                      0x00\n                        /* \"#utility.yul\":5636:5637   */\n                      dup1\n                        /* \"#utility.yul\":5629:5641   */\n                      revert\n                        /* \"#utility.yul\":5580:5643   */\n                    tag_186:\n                        /* \"#utility.yul\":5527:5649   */\n                      pop\n                      jump\t// out\n                        /* \"#utility.yul\":5655:5794   */\n                    tag_121:\n                        /* \"#utility.yul\":5701:5706   */\n                      0x00\n                        /* \"#utility.yul\":5739:5745   */\n                      dup2\n                        /* \"#utility.yul\":5726:5746   */\n                      calldataload\n                        /* \"#utility.yul\":5717:5746   */\n                      swap1\n                      pop\n                        /* \"#utility.yul\":5755:5788   */\n                      tag_188\n                        /* \"#utility.yul\":5782:5787   */\n                      dup2\n                        /* \"#utility.yul\":5755:5788   */\n                      tag_120\n                      jump\t// in\n                    tag_188:\n                        /* \"#utility.yul\":5655:5794   */\n                      swap3\n                      swap2\n                      pop\n                      pop\n                      jump\t// out\n                        /* \"#utility.yul\":5800:6129   */\n                    tag_29:\n                        /* \"#utility.yul\":5859:5865   */\n                      0x00\n                        /* \"#utility.yul\":5908:5910   */\n                      0x20\n                        /* \"#utility.yul\":5896:5905   */\n                      dup3\n                        /* \"#utility.yul\":5887:5894   */\n                      dup5\n                        /* \"#utility.yul\":5883:5906   */\n                      sub\n                        /* \"#utility.yul\":5879:5911   */\n                      slt\n                        /* \"#utility.yul\":5876:5995   */\n                      iszero\n                      tag_190\n                      jumpi\n                        /* \"#utility.yul\":5914:5993   */\n                      tag_191\n                      tag_118\n                      jump\t// in\n                    tag_191:\n                        /* \"#utility.yul\":5876:5995   */\n                    tag_190:\n                        /* \"#utility.yul\":6034:6035   */\n                      0x00\n                        /* \"#utility.yul\":6059:6112   */\n                      tag_192\n                        /* \"#utility.yul\":6104:6111   */\n                      dup5\n                        /* \"#utility.yul\":6095:6101   */\n                      dup3\n                        /* \"#utility.yul\":6084:6093   */\n                      dup6\n                        /* \"#utility.yul\":6080:6102   */\n                      add\n                        /* \"#utility.yul\":6059:6112   */\n                      tag_121\n                      jump\t// in\n                    tag_192:\n                        /* \"#utility.yul\":6049:6112   */\n                      swap2\n                      pop\n                        /* \"#utility.yul\":6005:6122   */\n                      pop\n                        /* \"#utility.yul\":5800:6129   */\n                      swap3\n                      swap2\n                      pop\n                      pop\n                      jump\t// out\n                        /* \"#utility.yul\":6135:6257   */\n                    tag_122:\n                        /* \"#utility.yul\":6208:6232   */\n                      tag_194\n                        /* \"#utility.yul\":6226:6231   */\n                      dup2\n                        /* \"#utility.yul\":6208:6232   */\n                      tag_115\n                      jump\t// in\n                    tag_194:\n                        /* \"#utility.yul\":6201:6206   */\n                      dup2\n                        /* \"#utility.yul\":6198:6233   */\n                      eq\n                        /* \"#utility.yul\":6188:6251   */\n                      tag_195\n                      jumpi\n                        /* \"#utility.yul\":6247:6248   */\n                      0x00\n                        /* \"#utility.yul\":6244:6245   */\n                      dup1\n                        /* \"#utility.yul\":6237:6249   */\n                      revert\n                        /* \"#utility.yul\":6188:6251   */\n                    tag_195:\n                        /* \"#utility.yul\":6135:6257   */\n                      pop\n                      jump\t// out\n                        /* \"#utility.yul\":6263:6402   */\n                    tag_123:\n                        /* \"#utility.yul\":6309:6314   */\n                      0x00\n                        /* \"#utility.yul\":6347:6353   */\n                      dup2\n                        /* \"#utility.yul\":6334:6354   */\n                      calldataload\n                        /* \"#utility.yul\":6325:6354   */\n                      swap1\n                      pop\n                        /* \"#utility.yul\":6363:6396   */\n                      tag_197\n                        /* \"#utility.yul\":6390:6395   */\n                      dup2\n                        /* \"#utility.yul\":6363:6396   */\n                      tag_122\n                      jump\t// in\n                    tag_197:\n                        /* \"#utility.yul\":6263:6402   */\n                      swap3\n                      swap2\n                      pop\n                      pop\n                      jump\t// out\n                        /* \"#utility.yul\":6408:6737   */\n                    tag_41:\n                        /* \"#utility.yul\":6467:6473   */\n                      0x00\n                        /* \"#utility.yul\":6516:6518   */\n                      0x20\n                        /* \"#utility.yul\":6504:6513   */\n                      dup3\n                        /* \"#utility.yul\":6495:6502   */\n                      dup5\n                        /* \"#utility.yul\":6491:6514   */\n                      sub\n                        /* \"#utility.yul\":6487:6519   */\n                      slt\n                        /* \"#utility.yul\":6484:6603   */\n                      iszero\n                      tag_199\n                      jumpi\n                        /* \"#utility.yul\":6522:6601   */\n                      tag_200\n                      tag_118\n                      jump\t// in\n                    tag_200:\n                        /* \"#utility.yul\":6484:6603   */\n                    tag_199:\n                        /* \"#utility.yul\":6642:6643   */\n                      0x00\n                        /* \"#utility.yul\":6667:6720   */\n                      tag_201\n                        /* \"#utility.yul\":6712:6719   */\n                      dup5\n                        /* \"#utility.yul\":6703:6709   */\n                      dup3\n                        /* \"#utility.yul\":6692:6701   */\n                      dup6\n                        /* \"#utility.yul\":6688:6710   */\n                      add\n                        /* \"#utility.yul\":6667:6720   */\n                      tag_123\n                      jump\t// in\n                    tag_201:\n                        /* \"#utility.yul\":6657:6720   */\n                      swap2\n                      pop\n                        /* \"#utility.yul\":6613:6730   */\n                      pop\n                        /* \"#utility.yul\":6408:6737   */\n                      swap3\n                      swap2\n                      pop\n                      pop\n                      jump\t// out\n                        /* \"#utility.yul\":6743:6965   */\n                    tag_50:\n                        /* \"#utility.yul\":6836:6840   */\n                      0x00\n                        /* \"#utility.yul\":6874:6876   */\n                      0x20\n                        /* \"#utility.yul\":6863:6872   */\n                      dup3\n                        /* \"#utility.yul\":6859:6877   */\n                      add\n                        /* \"#utility.yul\":6851:6877   */\n                      swap1\n                      pop\n                        /* \"#utility.yul\":6887:6958   */\n                      tag_203\n                        /* \"#utility.yul\":6955:6956   */\n                      0x00\n                        /* \"#utility.yul\":6944:6953   */\n                      dup4\n                        /* \"#utility.yul\":6940:6957   */\n                      add\n                        /* \"#utility.yul\":6931:6937   */\n                      dup5\n                        /* \"#utility.yul\":6887:6958   */\n                      tag_116\n                      jump\t// in\n                    tag_203:\n                        /* \"#utility.yul\":6743:6965   */\n                      swap3\n                      swap2\n                      pop\n                      pop\n                      jump\t// out\n                        /* \"#utility.yul\":6971:7151   */\n                    tag_124:\n                        /* \"#utility.yul\":7019:7096   */\n                      0x4e487b7100000000000000000000000000000000000000000000000000000000\n                        /* \"#utility.yul\":7016:7017   */\n                      0x00\n                        /* \"#utility.yul\":7009:7097   */\n                      mstore\n                        /* \"#utility.yul\":7116:7120   */\n                      0x22\n                        /* \"#utility.yul\":7113:7114   */\n                      0x04\n                        /* \"#utility.yul\":7106:7121   */\n                      mstore\n                        /* \"#utility.yul\":7140:7144   */\n                      0x24\n                        /* \"#utility.yul\":7137:7138   */\n                      0x00\n                        /* \"#utility.yul\":7130:7145   */\n                      revert\n                        /* \"#utility.yul\":7157:7477   */\n                    tag_57:\n                        /* \"#utility.yul\":7201:7207   */\n                      0x00\n                        /* \"#utility.yul\":7238:7239   */\n                      0x02\n                        /* \"#utility.yul\":7232:7236   */\n                      dup3\n                        /* \"#utility.yul\":7228:7240   */\n                      div\n                        /* \"#utility.yul\":7218:7240   */\n                      swap1\n                      pop\n                        /* \"#utility.yul\":7285:7286   */\n                      0x01\n                        /* \"#utility.yul\":7279:7283   */\n                      dup3\n                        /* \"#utility.yul\":7275:7287   */\n                      and\n                        /* \"#utility.yul\":7306:7324   */\n                      dup1\n                        /* \"#utility.yul\":7296:7377   */\n                      tag_206\n                      jumpi\n                        /* \"#utility.yul\":7362:7366   */\n                      0x7f\n                        /* \"#utility.yul\":7354:7360   */\n                      dup3\n                        /* \"#utility.yul\":7350:7367   */\n                      and\n                        /* \"#utility.yul\":7340:7367   */\n                      swap2\n                      pop\n                        /* \"#utility.yul\":7296:7377   */\n                    tag_206:\n                        /* \"#utility.yul\":7424:7426   */\n                      0x20\n                        /* \"#utility.yul\":7416:7422   */\n                      dup3\n                        /* \"#utility.yul\":7413:7427   */\n                      lt\n                        /* \"#utility.yul\":7393:7411   */\n                      dup2\n                        /* \"#utility.yul\":7390:7428   */\n                      eq\n                        /* \"#utility.yul\":7387:7471   */\n                      iszero\n                      tag_207\n                      jumpi\n                        /* \"#utility.yul\":7443:7461   */\n                      tag_208\n                      tag_124\n                      jump\t// in\n                    tag_208:\n                        /* \"#utility.yul\":7387:7471   */\n                    tag_207:\n                        /* \"#utility.yul\":7208:7477   */\n                      pop\n                        /* \"#utility.yul\":7157:7477   */\n                      swap2\n                      swap1\n                      pop\n                      jump\t// out\n                        /* \"#utility.yul\":7483:7788   */\n                    tag_125:\n                        /* \"#utility.yul\":7623:7657   */\n                      0x546869732066756e6374696f6e2068617320746f2062652063616c6c65642066\n                        /* \"#utility.yul\":7619:7620   */\n                      0x00\n                        /* \"#utility.yul\":7611:7617   */\n                      dup3\n                        /* \"#utility.yul\":7607:7621   */\n                      add\n                        /* \"#utility.yul\":7600:7658   */\n                      mstore\n                        /* \"#utility.yul\":7692:7726   */\n                      0x726f6d207468652073746f727920636f6e747261637420627920616e20616363\n                        /* \"#utility.yul\":7687:7689   */\n                      0x20\n                        /* \"#utility.yul\":7679:7685   */\n                      dup3\n                        /* \"#utility.yul\":7675:7690   */\n                      add\n                        /* \"#utility.yul\":7668:7727   */\n                      mstore\n                        /* \"#utility.yul\":7761:7780   */\n                      0x657074656420617574686f72206f6e6c79000000000000000000000000000000\n                        /* \"#utility.yul\":7756:7758   */\n                      0x40\n                        /* \"#utility.yul\":7748:7754   */\n                      dup3\n                        /* \"#utility.yul\":7744:7759   */\n                      add\n                        /* \"#utility.yul\":7737:7781   */\n                      mstore\n                        /* \"#utility.yul\":7483:7788   */\n                      pop\n                      jump\t// out\n                        /* \"#utility.yul\":7794:8160   */\n                    tag_126:\n                        /* \"#utility.yul\":7936:7939   */\n                      0x00\n                        /* \"#utility.yul\":7957:8024   */\n                      tag_211\n                        /* \"#utility.yul\":8021:8023   */\n                      0x51\n                        /* \"#utility.yul\":8016:8019   */\n                      dup4\n                        /* \"#utility.yul\":7957:8024   */\n                      tag_104\n                      jump\t// in\n                    tag_211:\n                        /* \"#utility.yul\":7950:8024   */\n                      swap2\n                      pop\n                        /* \"#utility.yul\":8033:8126   */\n                      tag_212\n                        /* \"#utility.yul\":8122:8125   */\n                      dup3\n                        /* \"#utility.yul\":8033:8126   */\n                      tag_125\n                      jump\t// in\n                    tag_212:\n                        /* \"#utility.yul\":8151:8153   */\n                      0x60\n                        /* \"#utility.yul\":8146:8149   */\n                      dup3\n                        /* \"#utility.yul\":8142:8154   */\n                      add\n                        /* \"#utility.yul\":8135:8154   */\n                      swap1\n                      pop\n                        /* \"#utility.yul\":7794:8160   */\n                      swap2\n                      swap1\n                      pop\n                      jump\t// out\n                        /* \"#utility.yul\":8166:8585   */\n                    tag_79:\n                        /* \"#utility.yul\":8332:8336   */\n                      0x00\n                        /* \"#utility.yul\":8370:8372   */\n                      0x20\n                        /* \"#utility.yul\":8359:8368   */\n                      dup3\n                        /* \"#utility.yul\":8355:8373   */\n                      add\n                        /* \"#utility.yul\":8347:8373   */\n                      swap1\n                      pop\n                        /* \"#utility.yul\":8419:8428   */\n                      dup2\n                        /* \"#utility.yul\":8413:8417   */\n                      dup2\n                        /* \"#utility.yul\":8409:8429   */\n                      sub\n                        /* \"#utility.yul\":8405:8406   */\n                      0x00\n                        /* \"#utility.yul\":8394:8403   */\n                      dup4\n                        /* \"#utility.yul\":8390:8407   */\n                      add\n                        /* \"#utility.yul\":8383:8430   */\n                      mstore\n                        /* \"#utility.yul\":8447:8578   */\n                      tag_214\n                        /* \"#utility.yul\":8573:8577   */\n                      dup2\n                        /* \"#utility.yul\":8447:8578   */\n                      tag_126\n                      jump\t// in\n                    tag_214:\n                        /* \"#utility.yul\":8439:8578   */\n                      swap1\n                      pop\n                        /* \"#utility.yul\":8166:8585   */\n                      swap2\n                      swap1\n                      pop\n                      jump\t// out\n                        /* \"#utility.yul\":8591:8768   */\n                    tag_127:\n                        /* \"#utility.yul\":8731:8760   */\n                      0x596f75206c696b656420746869732073746f7279206265666f72650000000000\n                        /* \"#utility.yul\":8727:8728   */\n                      0x00\n                        /* \"#utility.yul\":8719:8725   */\n                      dup3\n                        /* \"#utility.yul\":8715:8729   */\n                      add\n                        /* \"#utility.yul\":8708:8761   */\n                      mstore\n                        /* \"#utility.yul\":8591:8768   */\n                      pop\n                      jump\t// out\n                        /* \"#utility.yul\":8774:9140   */\n                    tag_128:\n                        /* \"#utility.yul\":8916:8919   */\n                      0x00\n                        /* \"#utility.yul\":8937:9004   */\n                      tag_217\n                        /* \"#utility.yul\":9001:9003   */\n                      0x1b\n                        /* \"#utility.yul\":8996:8999   */\n                      dup4\n                        /* \"#utility.yul\":8937:9004   */\n                      tag_104\n                      jump\t// in\n                    tag_217:\n                        /* \"#utility.yul\":8930:9004   */\n                      swap2\n                      pop\n                        /* \"#utility.yul\":9013:9106   */\n                      tag_218\n                        /* \"#utility.yul\":9102:9105   */\n                      dup3\n                        /* \"#utility.yul\":9013:9106   */\n                      tag_127\n                      jump\t// in\n                    tag_218:\n                        /* \"#utility.yul\":9131:9133   */\n                      0x20\n                        /* \"#utility.yul\":9126:9129   */\n                      dup3\n                        /* \"#utility.yul\":9122:9134   */\n                      add\n                        /* \"#utility.yul\":9115:9134   */\n                      swap1\n                      pop\n                        /* \"#utility.yul\":8774:9140   */\n                      swap2\n                      swap1\n                      pop\n                      jump\t// out\n                        /* \"#utility.yul\":9146:9565   */\n                    tag_88:\n                        /* \"#utility.yul\":9312:9316   */\n                      0x00\n                        /* \"#utility.yul\":9350:9352   */\n                      0x20\n                        /* \"#utility.yul\":9339:9348   */\n                      dup3\n                        /* \"#utility.yul\":9335:9353   */\n                      add\n                        /* \"#utility.yul\":9327:9353   */\n                      swap1\n                      pop\n                        /* \"#utility.yul\":9399:9408   */\n                      dup2\n                        /* \"#utility.yul\":9393:9397   */\n                      dup2\n                        /* \"#utility.yul\":9389:9409   */\n                      sub\n                        /* \"#utility.yul\":9385:9386   */\n                      0x00\n                        /* \"#utility.yul\":9374:9383   */\n                      dup4\n                        /* \"#utility.yul\":9370:9387   */\n                      add\n                        /* \"#utility.yul\":9363:9410   */\n                      mstore\n                        /* \"#utility.yul\":9427:9558   */\n                      tag_220\n                        /* \"#utility.yul\":9553:9557   */\n                      dup2\n                        /* \"#utility.yul\":9427:9558   */\n                      tag_128\n                      jump\t// in\n                    tag_220:\n                        /* \"#utility.yul\":9419:9558   */\n                      swap1\n                      pop\n                        /* \"#utility.yul\":9146:9565   */\n                      swap2\n                      swap1\n                      pop\n                      jump\t// out\n                        /* \"#utility.yul\":9571:9751   */\n                    tag_129:\n                        /* \"#utility.yul\":9619:9696   */\n                      0x4e487b7100000000000000000000000000000000000000000000000000000000\n                        /* \"#utility.yul\":9616:9617   */\n                      0x00\n                        /* \"#utility.yul\":9609:9697   */\n                      mstore\n                        /* \"#utility.yul\":9716:9720   */\n                      0x11\n                        /* \"#utility.yul\":9713:9714   */\n                      0x04\n                        /* \"#utility.yul\":9706:9721   */\n                      mstore\n                        /* \"#utility.yul\":9740:9744   */\n                      0x24\n                        /* \"#utility.yul\":9737:9738   */\n                      0x00\n                        /* \"#utility.yul\":9730:9745   */\n                      revert\n                        /* \"#utility.yul\":9757:9990   */\n                    tag_90:\n                        /* \"#utility.yul\":9796:9799   */\n                      0x00\n                        /* \"#utility.yul\":9819:9843   */\n                      tag_223\n                        /* \"#utility.yul\":9837:9842   */\n                      dup3\n                        /* \"#utility.yul\":9819:9843   */\n                      tag_115\n                      jump\t// in\n                    tag_223:\n                        /* \"#utility.yul\":9810:9843   */\n                      swap2\n                      pop\n                        /* \"#utility.yul\":9865:9931   */\n                      0xffffffffffffffffffffffffffffffffffffffffffffffffffffffffffffffff\n                        /* \"#utility.yul\":9858:9863   */\n                      dup3\n                        /* \"#utility.yul\":9855:9932   */\n                      eq\n                        /* \"#utility.yul\":9852:9955   */\n                      iszero\n                      tag_224\n                      jumpi\n                        /* \"#utility.yul\":9935:9953   */\n                      tag_225\n                      tag_129\n                      jump\t// in\n                    tag_225:\n                        /* \"#utility.yul\":9852:9955   */\n                    tag_224:\n                        /* \"#utility.yul\":9982:9983   */\n                      0x01\n                        /* \"#utility.yul\":9975:9980   */\n                      dup3\n                        /* \"#utility.yul\":9971:9984   */\n                      add\n                        /* \"#utility.yul\":9964:9984   */\n                      swap1\n                      pop\n                        /* \"#utility.yul\":9757:9990   */\n                      swap2\n                      swap1\n                      pop\n                      jump\t// out\n\n                    auxdata: 0xa2646970667358221220b683f558122081f4f6663bb08bd71fe2aa354682cca008ee01a6e3f174ee9d0e64736f6c63430008090033\n                }\n            }\n\n            auxdata: 0xa2646970667358221220c769552a77a791302e110cfe165fae98bd2dc4716d5881541c96c497a0ba291164736f6c63430008090033\n        }\n    }\n\n    auxdata: 0xa26469706673582212208fa7d313eecff7bf89a7eedaa355fb27fa2ddcb8fd2b9ef77aed78af8836cca064736f6c63430008090033\n}\n","bytecode":{"linkReferences":{},"object":"608060405234801561001057600080fd5b50615b08806100206000396000f3fe60806040523480156200001157600080fd5b50600436106200005e5760003560e01c806318351ea714620000635780632ff2bdd514620000995780635048bd3714620000bb578063590c1e7814620000db578063adb6a39714620000fb575b600080fd5b6200008160048036038101906200007b9190620004be565b62000131565b60405162000090919062000535565b60405180910390f35b620000a362000171565b604051620000b2919062000620565b60405180910390f35b620000d96004803603810190620000d39190620007a6565b62000201565b005b620000f96004803603810190620000f39190620007f7565b6200025a565b005b62000119600480360381019062000113919062000916565b62000309565b604051620001289190620009db565b60405180910390f35b600081815481106200014257600080fd5b906000526020600020016000915054906101000a900473ffffffffffffffffffffffffffffffffffffffff1681565b60606000805480602002602001604051908101604052809291908181526020018280548015620001f757602002820191906000526020600020905b8160009054906101000a900473ffffffffffffffffffffffffffffffffffffffff1673ffffffffffffffffffffffffffffffffffffffff1681526020019060010190808311620001ac575b5050505050905090565b80600160003373ffffffffffffffffffffffffffffffffffffffff1673ffffffffffffffffffffffffffffffffffffffff168152602001908152602001600020908051906020019062000256929190620003b1565b5050565b600033858585856040516200026f9062000442565b6200027f959493929190620009ff565b604051809103906000f0801580156200029c573d6000803e3d6000fd5b5090506000819080600181540180825580915050600190039060005260206000200160009091909190916101000a81548173ffffffffffffffffffffffffffffffffffffffff021916908373ffffffffffffffffffffffffffffffffffffffff1602179055505050505050565b600160205280600052604060002060009150905080546200032a9062000aa7565b80601f0160208091040260200160405190810160405280929190818152602001828054620003589062000aa7565b8015620003a95780601f106200037d57610100808354040283529160200191620003a9565b820191906000526020600020905b8154815290600101906020018083116200038b57829003601f168201915b505050505081565b828054620003bf9062000aa7565b90600052602060002090601f016020900481019282620003e357600085556200042f565b82601f10620003fe57805160ff19168380011785556200042f565b828001600101855582156200042f579182015b828111156200042e57825182559160200191906001019062000411565b5b5090506200043e919062000450565b5090565b614ff58062000ade83390190565b5b808211156200046b57600081600090555060010162000451565b5090565b6000604051905090565b600080fd5b600080fd5b6000819050919050565b620004988162000483565b8114620004a457600080fd5b50565b600081359050620004b8816200048d565b92915050565b600060208284031215620004d757620004d662000479565b5b6000620004e784828501620004a7565b91505092915050565b600073ffffffffffffffffffffffffffffffffffffffff82169050919050565b60006200051d82620004f0565b9050919050565b6200052f8162000510565b82525050565b60006020820190506200054c600083018462000524565b92915050565b600081519050919050565b600082825260208201905092915050565b6000819050602082019050919050565b620005898162000510565b82525050565b60006200059d83836200057e565b60208301905092915050565b6000602082019050919050565b6000620005c38262000552565b620005cf81856200055d565b9350620005dc836200056e565b8060005b8381101562000613578151620005f788826200058f565b97506200060483620005a9565b925050600181019050620005e0565b5085935050505092915050565b600060208201905081810360008301526200063c8184620005b6565b905092915050565b600080fd5b600080fd5b6000601f19601f8301169050919050565b7f4e487b7100000000000000000000000000000000000000000000000000000000600052604160045260246000fd5b62000699826200064e565b810181811067ffffffffffffffff82111715620006bb57620006ba6200065f565b5b80604052505050565b6000620006d06200046f565b9050620006de82826200068e565b919050565b600067ffffffffffffffff8211156200070157620007006200065f565b5b6200070c826200064e565b9050602081019050919050565b82818337600083830152505050565b60006200073f6200073984620006e3565b620006c4565b9050828152602081018484840111156200075e576200075d62000649565b5b6200076b84828562000719565b509392505050565b600082601f8301126200078b576200078a62000644565b5b81356200079d84826020860162000728565b91505092915050565b600060208284031215620007bf57620007be62000479565b5b600082013567ffffffffffffffff811115620007e057620007df6200047e565b5b620007ee8482850162000773565b91505092915050565b6000806000806080858703121562000814576200081362000479565b5b600085013567ffffffffffffffff8111156200083557620008346200047e565b5b620008438782880162000773565b945050602085013567ffffffffffffffff8111156200086757620008666200047e565b5b620008758782880162000773565b935050604085013567ffffffffffffffff8111156200089957620008986200047e565b5b620008a78782880162000773565b925050606085013567ffffffffffffffff811115620008cb57620008ca6200047e565b5b620008d98782880162000773565b91505092959194509250565b620008f08162000510565b8114620008fc57600080fd5b50565b6000813590506200091081620008e5565b92915050565b6000602082840312156200092f576200092e62000479565b5b60006200093f84828501620008ff565b91505092915050565b600081519050919050565b600082825260208201905092915050565b60005b838110156200098457808201518184015260208101905062000967565b8381111562000994576000848401525b50505050565b6000620009a78262000948565b620009b3818562000953565b9350620009c581856020860162000964565b620009d0816200064e565b840191505092915050565b60006020820190508181036000830152620009f781846200099a565b905092915050565b600060a08201905062000a16600083018862000524565b818103602083015262000a2a81876200099a565b9050818103604083015262000a4081866200099a565b9050818103606083015262000a5681856200099a565b9050818103608083015262000a6c81846200099a565b90509695505050505050565b7f4e487b7100000000000000000000000000000000000000000000000000000000600052602260045260246000fd5b6000600282049050600182168062000ac057607f821691505b6020821081141562000ad75762000ad662000a78565b5b5091905056fe608060405260405162004ff538038062004ff5833981810160405281019062000029919062000405565b6001600860008773ffffffffffffffffffffffffffffffffffffffff1673ffffffffffffffffffffffffffffffffffffffff16815260200190815260200160002060006101000a81548160ff0219169083151502179055506009859080600181540180825580915050600190039060005260206000200160009091909190916101000a81548173ffffffffffffffffffffffffffffffffffffffff021916908373ffffffffffffffffffffffffffffffffffffffff1602179055508360009080519060200190620000fc92919062000153565b5082600190805190602001906200011592919062000153565b5081600290805190602001906200012e92919062000153565b5080600390805190602001906200014792919062000153565b5050505050506200056e565b828054620001619062000538565b90600052602060002090601f016020900481019282620001855760008555620001d1565b82601f10620001a057805160ff1916838001178555620001d1565b82800160010185558215620001d1579182015b82811115620001d0578251825591602001919060010190620001b3565b5b509050620001e09190620001e4565b5090565b5b80821115620001ff576000816000905550600101620001e5565b5090565b6000604051905090565b600080fd5b600080fd5b600073ffffffffffffffffffffffffffffffffffffffff82169050919050565b6000620002448262000217565b9050919050565b620002568162000237565b81146200026257600080fd5b50565b60008151905062000276816200024b565b92915050565b600080fd5b600080fd5b6000601f19601f8301169050919050565b7f4e487b7100000000000000000000000000000000000000000000000000000000600052604160045260246000fd5b620002d18262000286565b810181811067ffffffffffffffff82111715620002f357620002f262000297565b5b80604052505050565b60006200030862000203565b9050620003168282620002c6565b919050565b600067ffffffffffffffff82111562000339576200033862000297565b5b620003448262000286565b9050602081019050919050565b60005b838110156200037157808201518184015260208101905062000354565b8381111562000381576000848401525b50505050565b60006200039e62000398846200031b565b620002fc565b905082815260208101848484011115620003bd57620003bc62000281565b5b620003ca84828562000351565b509392505050565b600082601f830112620003ea57620003e96200027c565b5b8151620003fc84826020860162000387565b91505092915050565b600080600080600060a086880312156200042457620004236200020d565b5b6000620004348882890162000265565b955050602086015167ffffffffffffffff81111562000458576200045762000212565b5b6200046688828901620003d2565b945050604086015167ffffffffffffffff8111156200048a576200048962000212565b5b6200049888828901620003d2565b935050606086015167ffffffffffffffff811115620004bc57620004bb62000212565b5b620004ca88828901620003d2565b925050608086015167ffffffffffffffff811115620004ee57620004ed62000212565b5b620004fc88828901620003d2565b9150509295509295909350565b7f4e487b7100000000000000000000000000000000000000000000000000000000600052602260045260246000fd5b600060028204905060018216806200055157607f821691505b6020821081141562000568576200056762000509565b5b50919050565b614a77806200057e6000396000f3fe608060405260043610620001525760003560e01c80636fc6c57911620000bb5780639d3ed80711620000795780639d3ed807146200047e578063b520252214620004c2578063d5ac2a871462000506578063dfa14e231462000536578063e8ae38e41462000564578063f7b78a5b14620005945762000152565b80636fc6c57914620003675780637f51aaf914620003ae5780638da5cb5b14620003f257806398b796281462000422578063992b11dc14620004505762000152565b80633e5690f411620001155780633e5690f414620002215780634051ddac1462000265578063497c941914620002a05780634a79d50c14620002c05780635d1a870a14620002f05780636c0a665614620003205762000152565b806314a7585d146200015757806317de3a4114620001635780632606a10b14620001935780632cc1cd9e14620001ad57806334976b9b14620001f1575b600080fd5b62000161620005c4565b005b3480156200017057600080fd5b506200017b62000766565b6040516200018a919062002630565b60405180910390f35b348015620001a057600080fd5b50620001ab620007fc565b005b348015620001ba57600080fd5b50620001d96004803603810190620001d39190620026cd565b62000a04565b604051620001e891906200271c565b60405180910390f35b348015620001fe57600080fd5b506200020962000a24565b6040516200021891906200271c565b60405180910390f35b3480156200022e57600080fd5b506200024d6004803603810190620002479190620026cd565b62000a37565b6040516200025c91906200271c565b60405180910390f35b3480156200027257600080fd5b506200027d62000a57565b604051620002979c9b9a9998979695949392919062002833565b60405180910390f35b620002be6004803603810190620002b8919062002960565b62000e52565b005b348015620002cd57600080fd5b50620002d862001449565b604051620002e7919062002630565b60405180910390f35b348015620002fd57600080fd5b5062000308620014df565b6040516200031791906200271c565b60405180910390f35b3480156200032d57600080fd5b506200034c600480360381019062000346919062002960565b620014f2565b6040516200035e949392919062002992565b60405180910390f35b3480156200037457600080fd5b506200039360048036038101906200038d919062002960565b62001560565b604051620003a59493929190620029df565b60405180910390f35b348015620003bb57600080fd5b50620003da6004803603810190620003d49190620026cd565b6200165e565b604051620003e991906200271c565b60405180910390f35b348015620003ff57600080fd5b506200040a6200167e565b60405162000419919062002a33565b60405180910390f35b3480156200042f57600080fd5b506200044e600480360381019062000448919062002960565b620016a4565b005b3480156200045d57600080fd5b506200047c600480360381019062000476919062002ba1565b62001b2c565b005b3480156200048b57600080fd5b50620004aa6004803603810190620004a4919062002960565b620020d7565b604051620004b9919062002a33565b60405180910390f35b348015620004cf57600080fd5b50620004ee6004803603810190620004e8919062002960565b62002117565b604051620004fd919062002a33565b60405180910390f35b3480156200051357600080fd5b506200051e62002157565b6040516200052d919062002630565b60405180910390f35b3480156200054357600080fd5b506200056260048036038101906200055c919062002c51565b620021ed565b005b3480156200057157600080fd5b506200057c62002432565b6040516200058b919062002630565b60405180910390f35b348015620005a157600080fd5b50620005ac620024c8565b604051620005bb919062002ca2565b60405180910390f35b600460009054906101000a900460ff161562000617576040517f08c379a00000000000000000000000000000000000000000000000000000000081526004016200060e9062002d0f565b60405180910390fd5b6001600460006101000a81548160ff021916908315150217905550600e60149054906101000a900460ff161562000685576040517f08c379a00000000000000000000000000000000000000000000000000000000081526004016200067c9062002d81565b60405180910390fd5b600660009054906101000a900460ff1615620006d8576040517f08c379a0000000000000000000000000000000000000000000000000000000008152600401620006cf9062002df3565b60405180910390fd5b6000600d6001816001815401808255809150500390600052602060002090600502019050348160000181905550338160010160006101000a81548173ffffffffffffffffffffffffffffffffffffffff021916908373ffffffffffffffffffffffffffffffffffffffff160217905550506000600460006101000a81548160ff021916908315150217905550565b60018054620007759062002e44565b80601f0160208091040260200160405190810160405280929190818152602001828054620007a39062002e44565b8015620007f45780601f10620007c857610100808354040283529160200191620007f4565b820191906000526020600020905b815481529060010190602001808311620007d657829003601f168201915b505050505081565b600460009054906101000a900460ff16156200084f576040517f08c379a0000000000000000000000000000000000000000000000000000000008152600401620008469062002d0f565b60405180910390fd5b6001600460006101000a81548160ff021916908315150217905550600660009054906101000a900460ff1615620008bd576040517f08c379a0000000000000000000000000000000000000000000000000000000008152600401620008b49062002df3565b60405180910390fd5b600760003373ffffffffffffffffffffffffffffffffffffffff1673ffffffffffffffffffffffffffffffffffffffff16815260200190815260200160002060009054906101000a900460ff16156200094d576040517f08c379a0000000000000000000000000000000000000000000000000000000008152600401620009449062002ef0565b60405180910390fd5b60056000815480929190620009629062002f41565b91905055506001600760003373ffffffffffffffffffffffffffffffffffffffff1673ffffffffffffffffffffffffffffffffffffffff16815260200190815260200160002060006101000a81548160ff02191690831515021790555060646005541115620009e7576001600660006101000a81548160ff0219169083151502179055505b6000600460006101000a81548160ff021916908315150217905550565b60076020528060005260406000206000915054906101000a900460ff1681565b600e60149054906101000a900460ff1681565b60086020528060005260406000206000915054906101000a900460ff1681565b606080606080606060008060006060600080600080600160026009600b600c80549050600554600660009054906101000a900460ff166003600d80549050600e60149054906101000a900460ff16600e60009054906101000a900473ffffffffffffffffffffffffffffffffffffffff168b805462000ad69062002e44565b80601f016020809104026020016040519081016040528092919081815260200182805462000b049062002e44565b801562000b555780601f1062000b295761010080835404028352916020019162000b55565b820191906000526020600020905b81548152906001019060200180831162000b3757829003601f168201915b50505050509b508a805462000b6a9062002e44565b80601f016020809104026020016040519081016040528092919081815260200182805462000b989062002e44565b801562000be95780601f1062000bbd5761010080835404028352916020019162000be9565b820191906000526020600020905b81548152906001019060200180831162000bcb57829003601f168201915b50505050509a5089805462000bfe9062002e44565b80601f016020809104026020016040519081016040528092919081815260200182805462000c2c9062002e44565b801562000c7d5780601f1062000c515761010080835404028352916020019162000c7d565b820191906000526020600020905b81548152906001019060200180831162000c5f57829003601f168201915b505050505099508880548060200260200160405190810160405280929190818152602001828054801562000d0757602002820191906000526020600020905b8160009054906101000a900473ffffffffffffffffffffffffffffffffffffffff1673ffffffffffffffffffffffffffffffffffffffff168152602001906001019080831162000cbc575b505050505098508780548060200260200160405190810160405280929190818152602001828054801562000d9157602002820191906000526020600020905b8160009054906101000a900473ffffffffffffffffffffffffffffffffffffffff1673ffffffffffffffffffffffffffffffffffffffff168152602001906001019080831162000d46575b5050505050975083805462000da69062002e44565b80601f016020809104026020016040519081016040528092919081815260200182805462000dd49062002e44565b801562000e255780601f1062000df95761010080835404028352916020019162000e25565b820191906000526020600020905b81548152906001019060200180831162000e0757829003601f168201915b505050505093509b509b509b509b509b509b509b509b509b509b509b509b50909192939495969798999a9b565b600460009054906101000a900460ff161562000ea5576040517f08c379a000000000000000000000000000000000000000000000000000000000815260040162000e9c9062002d0f565b60405180910390fd5b6001600460006101000a81548160ff021916908315150217905550600e60149054906101000a900460ff161562000f13576040517f08c379a000000000000000000000000000000000000000000000000000000000815260040162000f0a9062002d81565b60405180910390fd5b600660009054906101000a900460ff161562000f66576040517f08c379a000000000000000000000000000000000000000000000000000000000815260040162000f5d9062002df3565b60405180910390fd5b600860003373ffffffffffffffffffffffffffffffffffffffff1673ffffffffffffffffffffffffffffffffffffffff16815260200190815260200160002060009054906101000a900460ff1662000ff5576040517f08c379a000000000000000000000000000000000000000000000000000000000815260040162000fec9062003005565b60405180910390fd5b6000600d82815481106200100e576200100d62003027565b5b906000526020600020906005020190508060020160003373ffffffffffffffffffffffffffffffffffffffff1673ffffffffffffffffffffffffffffffffffffffff16815260200190815260200160002060009054906101000a900460ff1615620010b0576040517f08c379a0000000000000000000000000000000000000000000000000000000008152600401620010a790620030cc565b60405180910390fd5b8060040160009054906101000a900460ff161562001105576040517f08c379a0000000000000000000000000000000000000000000000000000000008152600401620010fc9062003164565b60405180910390fd5b60018160020160003373ffffffffffffffffffffffffffffffffffffffff1673ffffffffffffffffffffffffffffffffffffffff16815260200190815260200160002060006101000a81548160ff0219169083151502179055506001816003015462001172919062003186565b816003018190555060026009805490506200118e919062003212565b816003015411156200142a5760018160040160006101000a81548160ff0219169083151502179055508060010160009054906101000a900473ffffffffffffffffffffffffffffffffffffffff16600e60006101000a81548173ffffffffffffffffffffffffffffffffffffffff021916908373ffffffffffffffffffffffffffffffffffffffff1602179055506001600e60146101000a81548160ff0219169083151502179055506000600980549050826000015462001250919062003212565b905060005b6009805490508110156200130257600981815481106200127a576200127962003027565b5b9060005260206000200160009054906101000a900473ffffffffffffffffffffffffffffffffffffffff1673ffffffffffffffffffffffffffffffffffffffff166108fc839081150290604051600060405180830381858888f19350505050158015620012eb573d6000803e3d6000fd5b508080620012f99062002f41565b91505062001255565b600090505b600d80549050811015620014275760001515600d828154811062001330576200132f62003027565b5b906000526020600020906005020160040160009054906101000a900460ff16151514156200141157600d81815481106200136f576200136e62003027565b5b906000526020600020906005020160010160009054906101000a900473ffffffffffffffffffffffffffffffffffffffff1673ffffffffffffffffffffffffffffffffffffffff166108fc600d8381548110620013d157620013d062003027565b5b9060005260206000209060050201600001549081150290604051600060405180830381858888f193505050501580156200140f573d6000803e3d6000fd5b505b80806200141e9062002f41565b91505062001307565b50505b506000600460006101000a81548160ff02191690831515021790555050565b60008054620014589062002e44565b80601f0160208091040260200160405190810160405280929190818152602001828054620014869062002e44565b8015620014d75780601f10620014ab57610100808354040283529160200191620014d7565b820191906000526020600020905b815481529060010190602001808311620014b957829003601f168201915b505050505081565b600660009054906101000a900460ff1681565b600d81815481106200150357600080fd5b90600052602060002090600502016000915090508060000154908060010160009054906101000a900473ffffffffffffffffffffffffffffffffffffffff16908060030154908060040160009054906101000a900460ff16905084565b600c81815481106200157157600080fd5b9060005260206000209060050201600091509050806000018054620015969062002e44565b80601f0160208091040260200160405190810160405280929190818152602001828054620015c49062002e44565b8015620016155780601f10620015e95761010080835404028352916020019162001615565b820191906000526020600020905b815481529060010190602001808311620015f757829003601f168201915b5050505050908060010160009054906101000a900473ffffffffffffffffffffffffffffffffffffffff16908060030154908060040160009054906101000a900460ff16905084565b600a6020528060005260406000206000915054906101000a900460ff1681565b600e60009054906101000a900473ffffffffffffffffffffffffffffffffffffffff1681565b600460009054906101000a900460ff1615620016f7576040517f08c379a0000000000000000000000000000000000000000000000000000000008152600401620016ee9062002d0f565b60405180910390fd5b6001600460006101000a81548160ff021916908315150217905550600e60149054906101000a900460ff161562001765576040517f08c379a00000000000000000000000000000000000000000000000000000000081526004016200175c9062002d81565b60405180910390fd5b600660009054906101000a900460ff1615620017b8576040517f08c379a0000000000000000000000000000000000000000000000000000000008152600401620017af9062002df3565b60405180910390fd5b600860003373ffffffffffffffffffffffffffffffffffffffff1673ffffffffffffffffffffffffffffffffffffffff16815260200190815260200160002060009054906101000a900460ff1662001847576040517f08c379a00000000000000000000000000000000000000000000000000000000081526004016200183e9062003005565b60405180910390fd5b6000600c828154811062001860576200185f62003027565b5b906000526020600020906005020190508060020160003373ffffffffffffffffffffffffffffffffffffffff1673ffffffffffffffffffffffffffffffffffffffff16815260200190815260200160002060009054906101000a900460ff161562001902576040517f08c379a0000000000000000000000000000000000000000000000000000000008152600401620018f990620030cc565b60405180910390fd5b8060040160009054906101000a900460ff161562001957576040517f08c379a00000000000000000000000000000000000000000000000000000000081526004016200194e9062003164565b60405180910390fd5b60018160020160003373ffffffffffffffffffffffffffffffffffffffff1673ffffffffffffffffffffffffffffffffffffffff16815260200190815260200160002060006101000a81548160ff02191690831515021790555060018160030154620019c4919062003186565b81600301819055506002600980549050620019e0919062003212565b8160030154111562001b0d576001600860008360010160009054906101000a900473ffffffffffffffffffffffffffffffffffffffff1673ffffffffffffffffffffffffffffffffffffffff1673ffffffffffffffffffffffffffffffffffffffff16815260200190815260200160002060006101000a81548160ff02191690831515021790555060098160010160009054906101000a900473ffffffffffffffffffffffffffffffffffffffff169080600181540180825580915050600190039060005260206000200160009091909190916101000a81548173ffffffffffffffffffffffffffffffffffffffff021916908373ffffffffffffffffffffffffffffffffffffffff16021790555060018160040160006101000a81548160ff0219169083151502179055505b506000600460006101000a81548160ff02191690831515021790555050565b600460009054906101000a900460ff161562001b7f576040517f08c379a000000000000000000000000000000000000000000000000000000000815260040162001b769062002d0f565b60405180910390fd5b6001600460006101000a81548160ff021916908315150217905550600e60149054906101000a900460ff161562001bed576040517f08c379a000000000000000000000000000000000000000000000000000000000815260040162001be49062002d81565b60405180910390fd5b600660009054906101000a900460ff161562001c40576040517f08c379a000000000000000000000000000000000000000000000000000000000815260040162001c379062002df3565b60405180910390fd5b600860003373ffffffffffffffffffffffffffffffffffffffff1673ffffffffffffffffffffffffffffffffffffffff16815260200190815260200160002060009054906101000a900460ff1662001ccf576040517f08c379a000000000000000000000000000000000000000000000000000000000815260040162001cc690620032c0565b60405180910390fd5b600a60008373ffffffffffffffffffffffffffffffffffffffff1673ffffffffffffffffffffffffffffffffffffffff16815260200190815260200160002060009054906101000a900460ff168062001d545750600073ffffffffffffffffffffffffffffffffffffffff168273ffffffffffffffffffffffffffffffffffffffff16145b62001d96576040517f08c379a000000000000000000000000000000000000000000000000000000000815260040162001d8d9062003358565b60405180910390fd5b600a60008273ffffffffffffffffffffffffffffffffffffffff1673ffffffffffffffffffffffffffffffffffffffff16815260200190815260200160002060009054906101000a900460ff168062001e1b5750600073ffffffffffffffffffffffffffffffffffffffff168173ffffffffffffffffffffffffffffffffffffffff16145b62001e5d576040517f08c379a000000000000000000000000000000000000000000000000000000000815260040162001e5490620033f0565b60405180910390fd5b600033308686868660405162001e7390620024ce565b62001e849695949392919062003412565b604051809103906000f08015801562001ea1573d6000803e3d6000fd5b509050600073ffffffffffffffffffffffffffffffffffffffff168373ffffffffffffffffffffffffffffffffffffffff161462001f4f5760008390508073ffffffffffffffffffffffffffffffffffffffff1663988e46c8836040518263ffffffff1660e01b815260040162001f19919062002a33565b600060405180830381600087803b15801562001f3457600080fd5b505af115801562001f49573d6000803e3d6000fd5b50505050505b600073ffffffffffffffffffffffffffffffffffffffff168273ffffffffffffffffffffffffffffffffffffffff161462001ffa5760008290508073ffffffffffffffffffffffffffffffffffffffff16638758ce83836040518263ffffffff1660e01b815260040162001fc4919062002a33565b600060405180830381600087803b15801562001fdf57600080fd5b505af115801562001ff4573d6000803e3d6000fd5b50505050505b600b819080600181540180825580915050600190039060005260206000200160009091909190916101000a81548173ffffffffffffffffffffffffffffffffffffffff021916908373ffffffffffffffffffffffffffffffffffffffff1602179055506001600a60008373ffffffffffffffffffffffffffffffffffffffff1673ffffffffffffffffffffffffffffffffffffffff16815260200190815260200160002060006101000a81548160ff021916908315150217905550506000600460006101000a81548160ff02191690831515021790555050505050565b60098181548110620020e857600080fd5b906000526020600020016000915054906101000a900473ffffffffffffffffffffffffffffffffffffffff1681565b600b81815481106200212857600080fd5b906000526020600020016000915054906101000a900473ffffffffffffffffffffffffffffffffffffffff1681565b60038054620021669062002e44565b80601f0160208091040260200160405190810160405280929190818152602001828054620021949062002e44565b8015620021e55780601f10620021b957610100808354040283529160200191620021e5565b820191906000526020600020905b815481529060010190602001808311620021c757829003601f168201915b505050505081565b600460009054906101000a900460ff161562002240576040517f08c379a0000000000000000000000000000000000000000000000000000000008152600401620022379062002d0f565b60405180910390fd5b6001600460006101000a81548160ff021916908315150217905550600e60149054906101000a900460ff1615620022ae576040517f08c379a0000000000000000000000000000000000000000000000000000000008152600401620022a59062002d81565b60405180910390fd5b600660009054906101000a900460ff161562002301576040517f08c379a0000000000000000000000000000000000000000000000000000000008152600401620022f89062002df3565b60405180910390fd5b600860003373ffffffffffffffffffffffffffffffffffffffff1673ffffffffffffffffffffffffffffffffffffffff16815260200190815260200160002060009054906101000a900460ff161562002391576040517f08c379a0000000000000000000000000000000000000000000000000000000008152600401620023889062003503565b60405180910390fd5b6000600c600181600181540180825580915050039060005260206000209060050201905081816000019080519060200190620023cf929190620024dc565b50338160010160006101000a81548173ffffffffffffffffffffffffffffffffffffffff021916908373ffffffffffffffffffffffffffffffffffffffff160217905550506000600460006101000a81548160ff02191690831515021790555050565b60028054620024419062002e44565b80601f01602080910402602001604051908101604052809291908181526020018280546200246f9062002e44565b8015620024c05780601f106200249457610100808354040283529160200191620024c0565b820191906000526020600020905b815481529060010190602001808311620024a257829003601f168201915b505050505081565b60055481565b61151c806200352683390190565b828054620024ea9062002e44565b90600052602060002090601f0160209004810192826200250e57600085556200255a565b82601f106200252957805160ff19168380011785556200255a565b828001600101855582156200255a579182015b82811115620025595782518255916020019190600101906200253c565b5b5090506200256991906200256d565b5090565b5b80821115620025885760008160009055506001016200256e565b5090565b600081519050919050565b600082825260208201905092915050565b60005b83811015620025c8578082015181840152602081019050620025ab565b83811115620025d8576000848401525b50505050565b6000601f19601f8301169050919050565b6000620025fc826200258c565b62002608818562002597565b93506200261a818560208601620025a8565b6200262581620025de565b840191505092915050565b600060208201905081810360008301526200264c8184620025ef565b905092915050565b6000604051905090565b600080fd5b600080fd5b600073ffffffffffffffffffffffffffffffffffffffff82169050919050565b6000620026958262002668565b9050919050565b620026a78162002688565b8114620026b357600080fd5b50565b600081359050620026c7816200269c565b92915050565b600060208284031215620026e657620026e56200265e565b5b6000620026f684828501620026b6565b91505092915050565b60008115159050919050565b6200271681620026ff565b82525050565b60006020820190506200273360008301846200270b565b92915050565b600081519050919050565b600082825260208201905092915050565b6000819050602082019050919050565b620027708162002688565b82525050565b600062002784838362002765565b60208301905092915050565b6000602082019050919050565b6000620027aa8262002739565b620027b6818562002744565b9350620027c38362002755565b8060005b83811015620027fa578151620027de888262002776565b9750620027eb8362002790565b925050600181019050620027c7565b5085935050505092915050565b6000819050919050565b6200281c8162002807565b82525050565b6200282d8162002688565b82525050565b600061018082019050818103600083015262002850818f620025ef565b9050818103602083015262002866818e620025ef565b905081810360408301526200287c818d620025ef565b9050818103606083015262002892818c6200279d565b90508181036080830152620028a8818b6200279d565b9050620028b960a083018a62002811565b620028c860c083018962002811565b620028d760e08301886200270b565b818103610100830152620028ec8187620025ef565b9050620028fe61012083018662002811565b6200290e6101408301856200270b565b6200291e61016083018462002822565b9d9c50505050505050505050505050565b6200293a8162002807565b81146200294657600080fd5b50565b6000813590506200295a816200292f565b92915050565b6000602082840312156200297957620029786200265e565b5b6000620029898482850162002949565b91505092915050565b6000608082019050620029a9600083018762002811565b620029b8602083018662002822565b620029c7604083018562002811565b620029d660608301846200270b565b95945050505050565b60006080820190508181036000830152620029fb8187620025ef565b905062002a0c602083018662002822565b62002a1b604083018562002811565b62002a2a60608301846200270b565b95945050505050565b600060208201905062002a4a600083018462002822565b92915050565b600080fd5b600080fd5b7f4e487b7100000000000000000000000000000000000000000000000000000000600052604160045260246000fd5b62002a9482620025de565b810181811067ffffffffffffffff8211171562002ab65762002ab562002a5a565b5b80604052505050565b600062002acb62002654565b905062002ad9828262002a89565b919050565b600067ffffffffffffffff82111562002afc5762002afb62002a5a565b5b62002b0782620025de565b9050602081019050919050565b82818337600083830152505050565b600062002b3a62002b348462002ade565b62002abf565b90508281526020810184848401111562002b595762002b5862002a55565b5b62002b6684828562002b14565b509392505050565b600082601f83011262002b865762002b8562002a50565b5b813562002b9884826020860162002b23565b91505092915050565b6000806000806080858703121562002bbe5762002bbd6200265e565b5b600085013567ffffffffffffffff81111562002bdf5762002bde62002663565b5b62002bed8782880162002b6e565b945050602085013567ffffffffffffffff81111562002c115762002c1062002663565b5b62002c1f8782880162002b6e565b935050604062002c3287828801620026b6565b925050606062002c4587828801620026b6565b91505092959194509250565b60006020828403121562002c6a5762002c696200265e565b5b600082013567ffffffffffffffff81111562002c8b5762002c8a62002663565b5b62002c998482850162002b6e565b91505092915050565b600060208201905062002cb9600083018462002811565b92915050565b7f5265656e7472616e742063616c6c000000000000000000000000000000000000600082015250565b600062002cf7600e8362002597565b915062002d048262002cbf565b602082019050919050565b6000602082019050818103600083015262002d2a8162002ce8565b9050919050565b7f546869732073746f727920686173206265656e20626f75676874000000000000600082015250565b600062002d69601a8362002597565b915062002d768262002d31565b602082019050919050565b6000602082019050818103600083015262002d9c8162002d5a565b9050919050565b7f546869732073746f727920686173206265656e207265706f7274656400000000600082015250565b600062002ddb601c8362002597565b915062002de88262002da3565b602082019050919050565b6000602082019050818103600083015262002e0e8162002dcc565b9050919050565b7f4e487b7100000000000000000000000000000000000000000000000000000000600052602260045260246000fd5b6000600282049050600182168062002e5d57607f821691505b6020821081141562002e745762002e7362002e15565b5b50919050565b7f596f752068617665207265706f7274656420746869732073746f72792062656660008201527f6f72650000000000000000000000000000000000000000000000000000000000602082015250565b600062002ed860238362002597565b915062002ee58262002e7a565b604082019050919050565b6000602082019050818103600083015262002f0b8162002ec9565b9050919050565b7f4e487b7100000000000000000000000000000000000000000000000000000000600052601160045260246000fd5b600062002f4e8262002807565b91507fffffffffffffffffffffffffffffffffffffffffffffffffffffffffffffffff82141562002f845762002f8362002f12565b5b600182019050919050565b7f4f6e6c7920616e20616363657074656420617574686f722063616e206170707260008201527f6f76652061207265717565737400000000000000000000000000000000000000602082015250565b600062002fed602d8362002597565b915062002ffa8262002f8f565b604082019050919050565b60006020820190508181036000830152620030208162002fde565b9050919050565b7f4e487b7100000000000000000000000000000000000000000000000000000000600052603260045260246000fd5b7f5468697320617574686f7220616c726561647920617070726f7665642062656660008201527f6f72650000000000000000000000000000000000000000000000000000000000602082015250565b6000620030b460238362002597565b9150620030c18262003056565b604082019050919050565b60006020820190508181036000830152620030e781620030a5565b9050919050565b7f5468697320726571756573742068617320616c7265616479206265656e20617060008201527f70726f766564206265666f726500000000000000000000000000000000000000602082015250565b60006200314c602d8362002597565b91506200315982620030ee565b604082019050919050565b600060208201905081810360008301526200317f816200313d565b9050919050565b6000620031938262002807565b9150620031a08362002807565b9250827fffffffffffffffffffffffffffffffffffffffffffffffffffffffffffffffff03821115620031d857620031d762002f12565b5b828201905092915050565b7f4e487b7100000000000000000000000000000000000000000000000000000000600052601260045260246000fd5b60006200321f8262002807565b91506200322c8362002807565b9250826200323f576200323e620031e3565b5b828204905092915050565b7f4f6e6c7920616e20616363657074656420617574686f722063616e206372656160008201527f7465206120636861707465720000000000000000000000000000000000000000602082015250565b6000620032a8602c8362002597565b9150620032b5826200324a565b604082019050919050565b60006020820190508181036000830152620032db8162003299565b9050919050565b7f506172656e742063686170746572206d7573742062656c6f6e6720746f20746860008201527f652073616d652073746f72790000000000000000000000000000000000000000602082015250565b600062003340602c8362002597565b91506200334d82620032e2565b604082019050919050565b60006020820190508181036000830152620033738162003331565b9050919050565b7f4368696c642063686170746572206d7573742062656c6f6e6720746f2074686560008201527f2073616d652073746f7279000000000000000000000000000000000000000000602082015250565b6000620033d8602b8362002597565b9150620033e5826200337a565b604082019050919050565b600060208201905081810360008301526200340b81620033c9565b9050919050565b600060c08201905062003429600083018962002822565b62003438602083018862002822565b81810360408301526200344c8187620025ef565b90508181036060830152620034628186620025ef565b905062003473608083018562002822565b6200348260a083018462002822565b979650505050505050565b7f417574686f7220616c72656164792065786973747320696e20746865206c697360008201527f74206f6620617574686f72730000000000000000000000000000000000000000602082015250565b6000620034eb602c8362002597565b9150620034f8826200348d565b604082019050919050565b600060208201905081810360008301526200351e81620034dc565b905091905056fe60806040523480156200001157600080fd5b506040516200151c3803806200151c8339818101604052810190620000379190620004da565b85600160006101000a81548173ffffffffffffffffffffffffffffffffffffffff021916908373ffffffffffffffffffffffffffffffffffffffff160217905550846000806101000a81548173ffffffffffffffffffffffffffffffffffffffff021916908373ffffffffffffffffffffffffffffffffffffffff1602179055508260039080519060200190620000d092919062000228565b508360029080519060200190620000e992919062000228565b50600073ffffffffffffffffffffffffffffffffffffffff168273ffffffffffffffffffffffffffffffffffffffff161462000183576004829080600181540180825580915050600190039060005260206000200160009091909190916101000a81548173ffffffffffffffffffffffffffffffffffffffff021916908373ffffffffffffffffffffffffffffffffffffffff1602179055505b600073ffffffffffffffffffffffffffffffffffffffff168173ffffffffffffffffffffffffffffffffffffffff16146200021c576005819080600181540180825580915050600190039060005260206000200160009091909190916101000a81548173ffffffffffffffffffffffffffffffffffffffff021916908373ffffffffffffffffffffffffffffffffffffffff1602179055505b50505050505062000619565b8280546200023690620005e3565b90600052602060002090601f0160209004810192826200025a5760008555620002a6565b82601f106200027557805160ff1916838001178555620002a6565b82800160010185558215620002a6579182015b82811115620002a557825182559160200191906001019062000288565b5b509050620002b59190620002b9565b5090565b5b80821115620002d4576000816000905550600101620002ba565b5090565b6000604051905090565b600080fd5b600080fd5b600073ffffffffffffffffffffffffffffffffffffffff82169050919050565b60006200031982620002ec565b9050919050565b6200032b816200030c565b81146200033757600080fd5b50565b6000815190506200034b8162000320565b92915050565b600080fd5b600080fd5b6000601f19601f8301169050919050565b7f4e487b7100000000000000000000000000000000000000000000000000000000600052604160045260246000fd5b620003a6826200035b565b810181811067ffffffffffffffff82111715620003c857620003c76200036c565b5b80604052505050565b6000620003dd620002d8565b9050620003eb82826200039b565b919050565b600067ffffffffffffffff8211156200040e576200040d6200036c565b5b62000419826200035b565b9050602081019050919050565b60005b838110156200044657808201518184015260208101905062000429565b8381111562000456576000848401525b50505050565b6000620004736200046d84620003f0565b620003d1565b90508281526020810184848401111562000492576200049162000356565b5b6200049f84828562000426565b509392505050565b600082601f830112620004bf57620004be62000351565b5b8151620004d18482602086016200045c565b91505092915050565b60008060008060008060c08789031215620004fa57620004f9620002e2565b5b60006200050a89828a016200033a565b96505060206200051d89828a016200033a565b955050604087015167ffffffffffffffff811115620005415762000540620002e7565b5b6200054f89828a01620004a7565b945050606087015167ffffffffffffffff811115620005735762000572620002e7565b5b6200058189828a01620004a7565b93505060806200059489828a016200033a565b92505060a0620005a789828a016200033a565b9150509295509295509295565b7f4e487b7100000000000000000000000000000000000000000000000000000000600052602260045260246000fd5b60006002820490506001821680620005fc57607f821691505b60208210811415620006135762000612620005b4565b5b50919050565b610ef380620006296000396000f3fe608060405234801561001057600080fd5b50600436106100a95760003560e01c8063a523b88a11610071578063a523b88a14610146578063a6c3e6b914610150578063c5fe6ffc1461016e578063c623674f1461019e578063e5a0af3d146101bc578063ed777791146101da576100a9565b80634051ddac146100ae57806346c922d1146100d25780634a79d50c146100f05780638758ce831461010e578063988e46c81461012a575b600080fd5b6100b661020a565b6040516100c99796959493929190610b26565b60405180910390f35b6100da6104a4565b6040516100e79190610bb1565b60405180910390f35b6100f86104c8565b6040516101059190610bcc565b60405180910390f35b61012860048036038101906101239190610c1f565b610556565b005b610144600480360381019061013f9190610c1f565b61064a565b005b61014e61073e565b005b61015861083d565b6040516101659190610bb1565b60405180910390f35b61018860048036038101906101839190610c78565b610863565b6040516101959190610bb1565b60405180910390f35b6101a66108a2565b6040516101b39190610bcc565b60405180910390f35b6101c4610930565b6040516101d19190610ca5565b60405180910390f35b6101f460048036038101906101ef9190610c78565b610936565b6040516102019190610bb1565b60405180910390f35b60008060608060608060008060009054906101000a900473ffffffffffffffffffffffffffffffffffffffff16600160009054906101000a900473ffffffffffffffffffffffffffffffffffffffff16600260036004600560075484805461027190610cef565b80601f016020809104026020016040519081016040528092919081815260200182805461029d90610cef565b80156102ea5780601f106102bf576101008083540402835291602001916102ea565b820191906000526020600020905b8154815290600101906020018083116102cd57829003601f168201915b505050505094508380546102fd90610cef565b80601f016020809104026020016040519081016040528092919081815260200182805461032990610cef565b80156103765780601f1061034b57610100808354040283529160200191610376565b820191906000526020600020905b81548152906001019060200180831161035957829003601f168201915b50505050509350828054806020026020016040519081016040528092919081815260200182805480156103fe57602002820191906000526020600020905b8160009054906101000a900473ffffffffffffffffffffffffffffffffffffffff1673ffffffffffffffffffffffffffffffffffffffff16815260200190600101908083116103b4575b505050505092508180548060200260200160405190810160405280929190818152602001828054801561048657602002820191906000526020600020905b8160009054906101000a900473ffffffffffffffffffffffffffffffffffffffff1673ffffffffffffffffffffffffffffffffffffffff168152602001906001019080831161043c575b50505050509150965096509650965096509650965090919293949596565b60008054906101000a900473ffffffffffffffffffffffffffffffffffffffff1681565b600280546104d590610cef565b80601f016020809104026020016040519081016040528092919081815260200182805461050190610cef565b801561054e5780601f106105235761010080835404028352916020019161054e565b820191906000526020600020905b81548152906001019060200180831161053157829003601f168201915b505050505081565b60008054906101000a900473ffffffffffffffffffffffffffffffffffffffff1673ffffffffffffffffffffffffffffffffffffffff163373ffffffffffffffffffffffffffffffffffffffff16146105e4576040517f08c379a00000000000000000000000000000000000000000000000000000000081526004016105db90610db9565b60405180910390fd5b6004819080600181540180825580915050600190039060005260206000200160009091909190916101000a81548173ffffffffffffffffffffffffffffffffffffffff021916908373ffffffffffffffffffffffffffffffffffffffff16021790555050565b60008054906101000a900473ffffffffffffffffffffffffffffffffffffffff1673ffffffffffffffffffffffffffffffffffffffff163373ffffffffffffffffffffffffffffffffffffffff16146106d8576040517f08c379a00000000000000000000000000000000000000000000000000000000081526004016106cf90610db9565b60405180910390fd5b6005819080600181540180825580915050600190039060005260206000200160009091909190916101000a81548173ffffffffffffffffffffffffffffffffffffffff021916908373ffffffffffffffffffffffffffffffffffffffff16021790555050565b600660003373ffffffffffffffffffffffffffffffffffffffff1673ffffffffffffffffffffffffffffffffffffffff16815260200190815260200160002060009054906101000a900460ff16156107cb576040517f08c379a00000000000000000000000000000000000000000000000000000000081526004016107c290610e25565b60405180910390fd5b6001600660003373ffffffffffffffffffffffffffffffffffffffff1673ffffffffffffffffffffffffffffffffffffffff16815260200190815260200160002060006101000a81548160ff0219169083151502179055506007600081548092919061083690610e74565b9190505550565b600160009054906101000a900473ffffffffffffffffffffffffffffffffffffffff1681565b6005818154811061087357600080fd5b906000526020600020016000915054906101000a900473ffffffffffffffffffffffffffffffffffffffff1681565b600380546108af90610cef565b80601f01602080910402602001604051908101604052809291908181526020018280546108db90610cef565b80156109285780601f106108fd57610100808354040283529160200191610928565b820191906000526020600020905b81548152906001019060200180831161090b57829003601f168201915b505050505081565b60075481565b6004818154811061094657600080fd5b906000526020600020016000915054906101000a900473ffffffffffffffffffffffffffffffffffffffff1681565b600073ffffffffffffffffffffffffffffffffffffffff82169050919050565b60006109a082610975565b9050919050565b6109b081610995565b82525050565b600081519050919050565b600082825260208201905092915050565b60005b838110156109f05780820151818401526020810190506109d5565b838111156109ff576000848401525b50505050565b6000601f19601f8301169050919050565b6000610a21826109b6565b610a2b81856109c1565b9350610a3b8185602086016109d2565b610a4481610a05565b840191505092915050565b600081519050919050565b600082825260208201905092915050565b6000819050602082019050919050565b610a8481610995565b82525050565b6000610a968383610a7b565b60208301905092915050565b6000602082019050919050565b6000610aba82610a4f565b610ac48185610a5a565b9350610acf83610a6b565b8060005b83811015610b00578151610ae78882610a8a565b9750610af283610aa2565b925050600181019050610ad3565b5085935050505092915050565b6000819050919050565b610b2081610b0d565b82525050565b600060e082019050610b3b600083018a6109a7565b610b4860208301896109a7565b8181036040830152610b5a8188610a16565b90508181036060830152610b6e8187610a16565b90508181036080830152610b828186610aaf565b905081810360a0830152610b968185610aaf565b9050610ba560c0830184610b17565b98975050505050505050565b6000602082019050610bc660008301846109a7565b92915050565b60006020820190508181036000830152610be68184610a16565b905092915050565b600080fd5b610bfc81610995565b8114610c0757600080fd5b50565b600081359050610c1981610bf3565b92915050565b600060208284031215610c3557610c34610bee565b5b6000610c4384828501610c0a565b91505092915050565b610c5581610b0d565b8114610c6057600080fd5b50565b600081359050610c7281610c4c565b92915050565b600060208284031215610c8e57610c8d610bee565b5b6000610c9c84828501610c63565b91505092915050565b6000602082019050610cba6000830184610b17565b92915050565b7f4e487b7100000000000000000000000000000000000000000000000000000000600052602260045260246000fd5b60006002820490506001821680610d0757607f821691505b60208210811415610d1b57610d1a610cc0565b5b50919050565b7f546869732066756e6374696f6e2068617320746f2062652063616c6c6564206660008201527f726f6d207468652073746f727920636f6e747261637420627920616e2061636360208201527f657074656420617574686f72206f6e6c79000000000000000000000000000000604082015250565b6000610da36051836109c1565b9150610dae82610d21565b606082019050919050565b60006020820190508181036000830152610dd281610d96565b9050919050565b7f596f75206c696b656420746869732073746f7279206265666f72650000000000600082015250565b6000610e0f601b836109c1565b9150610e1a82610dd9565b602082019050919050565b60006020820190508181036000830152610e3e81610e02565b9050919050565b7f4e487b7100000000000000000000000000000000000000000000000000000000600052601160045260246000fd5b6000610e7f82610b0d565b91507fffffffffffffffffffffffffffffffffffffffffffffffffffffffffffffffff821415610eb257610eb1610e45565b5b60018201905091905056fea2646970667358221220b683f558122081f4f6663bb08bd71fe2aa354682cca008ee01a6e3f174ee9d0e64736f6c63430008090033a2646970667358221220c769552a77a791302e110cfe165fae98bd2dc4716d5881541c96c497a0ba291164736f6c63430008090033a26469706673582212208fa7d313eecff7bf89a7eedaa355fb27fa2ddcb8fd2b9ef77aed78af8836cca064736f6c63430008090033","opcodes":"PUSH1 0x80 PUSH1 0x40 MSTORE CALLVALUE DUP1 ISZERO PUSH2 0x10 JUMPI PUSH1 0x0 DUP1 REVERT JUMPDEST POP PUSH2 0x5B08 DUP1 PUSH2 0x20 PUSH1 0x0 CODECOPY PUSH1 0x0 RETURN INVALID PUSH1 0x80 PUSH1 0x40 MSTORE CALLVALUE DUP1 ISZERO PUSH3 0x11 JUMPI PUSH1 0x0 DUP1 REVERT JUMPDEST POP PUSH1 0x4 CALLDATASIZE LT PUSH3 0x5E JUMPI PUSH1 0x0 CALLDATALOAD PUSH1 0xE0 SHR DUP1 PUSH4 0x18351EA7 EQ PUSH3 0x63 JUMPI DUP1 PUSH4 0x2FF2BDD5 EQ PUSH3 0x99 JUMPI DUP1 PUSH4 0x5048BD37 EQ PUSH3 0xBB JUMPI DUP1 PUSH4 0x590C1E78 EQ PUSH3 0xDB JUMPI DUP1 PUSH4 0xADB6A397 EQ PUSH3 0xFB JUMPI JUMPDEST PUSH1 0x0 DUP1 REVERT JUMPDEST PUSH3 0x81 PUSH1 0x4 DUP1 CALLDATASIZE SUB DUP2 ADD SWAP1 PUSH3 0x7B SWAP2 SWAP1 PUSH3 0x4BE JUMP JUMPDEST PUSH3 0x131 JUMP JUMPDEST PUSH1 0x40 MLOAD PUSH3 0x90 SWAP2 SWAP1 PUSH3 0x535 JUMP JUMPDEST PUSH1 0x40 MLOAD DUP1 SWAP2 SUB SWAP1 RETURN JUMPDEST PUSH3 0xA3 PUSH3 0x171 JUMP JUMPDEST PUSH1 0x40 MLOAD PUSH3 0xB2 SWAP2 SWAP1 PUSH3 0x620 JUMP JUMPDEST PUSH1 0x40 MLOAD DUP1 SWAP2 SUB SWAP1 RETURN JUMPDEST PUSH3 0xD9 PUSH1 0x4 DUP1 CALLDATASIZE SUB DUP2 ADD SWAP1 PUSH3 0xD3 SWAP2 SWAP1 PUSH3 0x7A6 JUMP JUMPDEST PUSH3 0x201 JUMP JUMPDEST STOP JUMPDEST PUSH3 0xF9 PUSH1 0x4 DUP1 CALLDATASIZE SUB DUP2 ADD SWAP1 PUSH3 0xF3 SWAP2 SWAP1 PUSH3 0x7F7 JUMP JUMPDEST PUSH3 0x25A JUMP JUMPDEST STOP JUMPDEST PUSH3 0x119 PUSH1 0x4 DUP1 CALLDATASIZE SUB DUP2 ADD SWAP1 PUSH3 0x113 SWAP2 SWAP1 PUSH3 0x916 JUMP JUMPDEST PUSH3 0x309 JUMP JUMPDEST PUSH1 0x40 MLOAD PUSH3 0x128 SWAP2 SWAP1 PUSH3 0x9DB JUMP JUMPDEST PUSH1 0x40 MLOAD DUP1 SWAP2 SUB SWAP1 RETURN JUMPDEST PUSH1 0x0 DUP2 DUP2 SLOAD DUP2 LT PUSH3 0x142 JUMPI PUSH1 0x0 DUP1 REVERT JUMPDEST SWAP1 PUSH1 0x0 MSTORE PUSH1 0x20 PUSH1 0x0 KECCAK256 ADD PUSH1 0x0 SWAP2 POP SLOAD SWAP1 PUSH2 0x100 EXP SWAP1 DIV PUSH20 0xFFFFFFFFFFFFFFFFFFFFFFFFFFFFFFFFFFFFFFFF AND DUP2 JUMP JUMPDEST PUSH1 0x60 PUSH1 0x0 DUP1 SLOAD DUP1 PUSH1 0x20 MUL PUSH1 0x20 ADD PUSH1 0x40 MLOAD SWAP1 DUP2 ADD PUSH1 0x40 MSTORE DUP1 SWAP3 SWAP2 SWAP1 DUP2 DUP2 MSTORE PUSH1 0x20 ADD DUP3 DUP1 SLOAD DUP1 ISZERO PUSH3 0x1F7 JUMPI PUSH1 0x20 MUL DUP3 ADD SWAP2 SWAP1 PUSH1 0x0 MSTORE PUSH1 0x20 PUSH1 0x0 KECCAK256 SWAP1 JUMPDEST DUP2 PUSH1 0x0 SWAP1 SLOAD SWAP1 PUSH2 0x100 EXP SWAP1 DIV PUSH20 0xFFFFFFFFFFFFFFFFFFFFFFFFFFFFFFFFFFFFFFFF AND PUSH20 0xFFFFFFFFFFFFFFFFFFFFFFFFFFFFFFFFFFFFFFFF AND DUP2 MSTORE PUSH1 0x20 ADD SWAP1 PUSH1 0x1 ADD SWAP1 DUP1 DUP4 GT PUSH3 0x1AC JUMPI JUMPDEST POP POP POP POP POP SWAP1 POP SWAP1 JUMP JUMPDEST DUP1 PUSH1 0x1 PUSH1 0x0 CALLER PUSH20 0xFFFFFFFFFFFFFFFFFFFFFFFFFFFFFFFFFFFFFFFF AND PUSH20 0xFFFFFFFFFFFFFFFFFFFFFFFFFFFFFFFFFFFFFFFF AND DUP2 MSTORE PUSH1 0x20 ADD SWAP1 DUP2 MSTORE PUSH1 0x20 ADD PUSH1 0x0 KECCAK256 SWAP1 DUP1 MLOAD SWAP1 PUSH1 0x20 ADD SWAP1 PUSH3 0x256 SWAP3 SWAP2 SWAP1 PUSH3 0x3B1 JUMP JUMPDEST POP POP JUMP JUMPDEST PUSH1 0x0 CALLER DUP6 DUP6 DUP6 DUP6 PUSH1 0x40 MLOAD PUSH3 0x26F SWAP1 PUSH3 0x442 JUMP JUMPDEST PUSH3 0x27F SWAP6 SWAP5 SWAP4 SWAP3 SWAP2 SWAP1 PUSH3 0x9FF JUMP JUMPDEST PUSH1 0x40 MLOAD DUP1 SWAP2 SUB SWAP1 PUSH1 0x0 CREATE DUP1 ISZERO DUP1 ISZERO PUSH3 0x29C JUMPI RETURNDATASIZE PUSH1 0x0 DUP1 RETURNDATACOPY RETURNDATASIZE PUSH1 0x0 REVERT JUMPDEST POP SWAP1 POP PUSH1 0x0 DUP2 SWAP1 DUP1 PUSH1 0x1 DUP2 SLOAD ADD DUP1 DUP3 SSTORE DUP1 SWAP2 POP POP PUSH1 0x1 SWAP1 SUB SWAP1 PUSH1 0x0 MSTORE PUSH1 0x20 PUSH1 0x0 KECCAK256 ADD PUSH1 0x0 SWAP1 SWAP2 SWAP1 SWAP2 SWAP1 SWAP2 PUSH2 0x100 EXP DUP2 SLOAD DUP2 PUSH20 0xFFFFFFFFFFFFFFFFFFFFFFFFFFFFFFFFFFFFFFFF MUL NOT AND SWAP1 DUP4 PUSH20 0xFFFFFFFFFFFFFFFFFFFFFFFFFFFFFFFFFFFFFFFF AND MUL OR SWAP1 SSTORE POP POP POP POP POP POP JUMP JUMPDEST PUSH1 0x1 PUSH1 0x20 MSTORE DUP1 PUSH1 0x0 MSTORE PUSH1 0x40 PUSH1 0x0 KECCAK256 PUSH1 0x0 SWAP2 POP SWAP1 POP DUP1 SLOAD PUSH3 0x32A SWAP1 PUSH3 0xAA7 JUMP JUMPDEST DUP1 PUSH1 0x1F ADD PUSH1 0x20 DUP1 SWAP2 DIV MUL PUSH1 0x20 ADD PUSH1 0x40 MLOAD SWAP1 DUP2 ADD PUSH1 0x40 MSTORE DUP1 SWAP3 SWAP2 SWAP1 DUP2 DUP2 MSTORE PUSH1 0x20 ADD DUP3 DUP1 SLOAD PUSH3 0x358 SWAP1 PUSH3 0xAA7 JUMP JUMPDEST DUP1 ISZERO PUSH3 0x3A9 JUMPI DUP1 PUSH1 0x1F LT PUSH3 0x37D JUMPI PUSH2 0x100 DUP1 DUP4 SLOAD DIV MUL DUP4 MSTORE SWAP2 PUSH1 0x20 ADD SWAP2 PUSH3 0x3A9 JUMP JUMPDEST DUP3 ADD SWAP2 SWAP1 PUSH1 0x0 MSTORE PUSH1 0x20 PUSH1 0x0 KECCAK256 SWAP1 JUMPDEST DUP2 SLOAD DUP2 MSTORE SWAP1 PUSH1 0x1 ADD SWAP1 PUSH1 0x20 ADD DUP1 DUP4 GT PUSH3 0x38B JUMPI DUP3 SWAP1 SUB PUSH1 0x1F AND DUP3 ADD SWAP2 JUMPDEST POP POP POP POP POP DUP2 JUMP JUMPDEST DUP3 DUP1 SLOAD PUSH3 0x3BF SWAP1 PUSH3 0xAA7 JUMP JUMPDEST SWAP1 PUSH1 0x0 MSTORE PUSH1 0x20 PUSH1 0x0 KECCAK256 SWAP1 PUSH1 0x1F ADD PUSH1 0x20 SWAP1 DIV DUP2 ADD SWAP3 DUP3 PUSH3 0x3E3 JUMPI PUSH1 0x0 DUP6 SSTORE PUSH3 0x42F JUMP JUMPDEST DUP3 PUSH1 0x1F LT PUSH3 0x3FE JUMPI DUP1 MLOAD PUSH1 0xFF NOT AND DUP4 DUP1 ADD OR DUP6 SSTORE PUSH3 0x42F JUMP JUMPDEST DUP3 DUP1 ADD PUSH1 0x1 ADD DUP6 SSTORE DUP3 ISZERO PUSH3 0x42F JUMPI SWAP2 DUP3 ADD JUMPDEST DUP3 DUP2 GT ISZERO PUSH3 0x42E JUMPI DUP3 MLOAD DUP3 SSTORE SWAP2 PUSH1 0x20 ADD SWAP2 SWAP1 PUSH1 0x1 ADD SWAP1 PUSH3 0x411 JUMP JUMPDEST JUMPDEST POP SWAP1 POP PUSH3 0x43E SWAP2 SWAP1 PUSH3 0x450 JUMP JUMPDEST POP SWAP1 JUMP JUMPDEST PUSH2 0x4FF5 DUP1 PUSH3 0xADE DUP4 CODECOPY ADD SWAP1 JUMP JUMPDEST JUMPDEST DUP1 DUP3 GT ISZERO PUSH3 0x46B JUMPI PUSH1 0x0 DUP2 PUSH1 0x0 SWAP1 SSTORE POP PUSH1 0x1 ADD PUSH3 0x451 JUMP JUMPDEST POP SWAP1 JUMP JUMPDEST PUSH1 0x0 PUSH1 0x40 MLOAD SWAP1 POP SWAP1 JUMP JUMPDEST PUSH1 0x0 DUP1 REVERT JUMPDEST PUSH1 0x0 DUP1 REVERT JUMPDEST PUSH1 0x0 DUP2 SWAP1 POP SWAP2 SWAP1 POP JUMP JUMPDEST PUSH3 0x498 DUP2 PUSH3 0x483 JUMP JUMPDEST DUP2 EQ PUSH3 0x4A4 JUMPI PUSH1 0x0 DUP1 REVERT JUMPDEST POP JUMP JUMPDEST PUSH1 0x0 DUP2 CALLDATALOAD SWAP1 POP PUSH3 0x4B8 DUP2 PUSH3 0x48D JUMP JUMPDEST SWAP3 SWAP2 POP POP JUMP JUMPDEST PUSH1 0x0 PUSH1 0x20 DUP3 DUP5 SUB SLT ISZERO PUSH3 0x4D7 JUMPI PUSH3 0x4D6 PUSH3 0x479 JUMP JUMPDEST JUMPDEST PUSH1 0x0 PUSH3 0x4E7 DUP5 DUP3 DUP6 ADD PUSH3 0x4A7 JUMP JUMPDEST SWAP2 POP POP SWAP3 SWAP2 POP POP JUMP JUMPDEST PUSH1 0x0 PUSH20 0xFFFFFFFFFFFFFFFFFFFFFFFFFFFFFFFFFFFFFFFF DUP3 AND SWAP1 POP SWAP2 SWAP1 POP JUMP JUMPDEST PUSH1 0x0 PUSH3 0x51D DUP3 PUSH3 0x4F0 JUMP JUMPDEST SWAP1 POP SWAP2 SWAP1 POP JUMP JUMPDEST PUSH3 0x52F DUP2 PUSH3 0x510 JUMP JUMPDEST DUP3 MSTORE POP POP JUMP JUMPDEST PUSH1 0x0 PUSH1 0x20 DUP3 ADD SWAP1 POP PUSH3 0x54C PUSH1 0x0 DUP4 ADD DUP5 PUSH3 0x524 JUMP JUMPDEST SWAP3 SWAP2 POP POP JUMP JUMPDEST PUSH1 0x0 DUP2 MLOAD SWAP1 POP SWAP2 SWAP1 POP JUMP JUMPDEST PUSH1 0x0 DUP3 DUP3 MSTORE PUSH1 0x20 DUP3 ADD SWAP1 POP SWAP3 SWAP2 POP POP JUMP JUMPDEST PUSH1 0x0 DUP2 SWAP1 POP PUSH1 0x20 DUP3 ADD SWAP1 POP SWAP2 SWAP1 POP JUMP JUMPDEST PUSH3 0x589 DUP2 PUSH3 0x510 JUMP JUMPDEST DUP3 MSTORE POP POP JUMP JUMPDEST PUSH1 0x0 PUSH3 0x59D DUP4 DUP4 PUSH3 0x57E JUMP JUMPDEST PUSH1 0x20 DUP4 ADD SWAP1 POP SWAP3 SWAP2 POP POP JUMP JUMPDEST PUSH1 0x0 PUSH1 0x20 DUP3 ADD SWAP1 POP SWAP2 SWAP1 POP JUMP JUMPDEST PUSH1 0x0 PUSH3 0x5C3 DUP3 PUSH3 0x552 JUMP JUMPDEST PUSH3 0x5CF DUP2 DUP6 PUSH3 0x55D JUMP JUMPDEST SWAP4 POP PUSH3 0x5DC DUP4 PUSH3 0x56E JUMP JUMPDEST DUP1 PUSH1 0x0 JUMPDEST DUP4 DUP2 LT ISZERO PUSH3 0x613 JUMPI DUP2 MLOAD PUSH3 0x5F7 DUP9 DUP3 PUSH3 0x58F JUMP JUMPDEST SWAP8 POP PUSH3 0x604 DUP4 PUSH3 0x5A9 JUMP JUMPDEST SWAP3 POP POP PUSH1 0x1 DUP2 ADD SWAP1 POP PUSH3 0x5E0 JUMP JUMPDEST POP DUP6 SWAP4 POP POP POP POP SWAP3 SWAP2 POP POP JUMP JUMPDEST PUSH1 0x0 PUSH1 0x20 DUP3 ADD SWAP1 POP DUP2 DUP2 SUB PUSH1 0x0 DUP4 ADD MSTORE PUSH3 0x63C DUP2 DUP5 PUSH3 0x5B6 JUMP JUMPDEST SWAP1 POP SWAP3 SWAP2 POP POP JUMP JUMPDEST PUSH1 0x0 DUP1 REVERT JUMPDEST PUSH1 0x0 DUP1 REVERT JUMPDEST PUSH1 0x0 PUSH1 0x1F NOT PUSH1 0x1F DUP4 ADD AND SWAP1 POP SWAP2 SWAP1 POP JUMP JUMPDEST PUSH32 0x4E487B7100000000000000000000000000000000000000000000000000000000 PUSH1 0x0 MSTORE PUSH1 0x41 PUSH1 0x4 MSTORE PUSH1 0x24 PUSH1 0x0 REVERT JUMPDEST PUSH3 0x699 DUP3 PUSH3 0x64E JUMP JUMPDEST DUP2 ADD DUP2 DUP2 LT PUSH8 0xFFFFFFFFFFFFFFFF DUP3 GT OR ISZERO PUSH3 0x6BB JUMPI PUSH3 0x6BA PUSH3 0x65F JUMP JUMPDEST JUMPDEST DUP1 PUSH1 0x40 MSTORE POP POP POP JUMP JUMPDEST PUSH1 0x0 PUSH3 0x6D0 PUSH3 0x46F JUMP JUMPDEST SWAP1 POP PUSH3 0x6DE DUP3 DUP3 PUSH3 0x68E JUMP JUMPDEST SWAP2 SWAP1 POP JUMP JUMPDEST PUSH1 0x0 PUSH8 0xFFFFFFFFFFFFFFFF DUP3 GT ISZERO PUSH3 0x701 JUMPI PUSH3 0x700 PUSH3 0x65F JUMP JUMPDEST JUMPDEST PUSH3 0x70C DUP3 PUSH3 0x64E JUMP JUMPDEST SWAP1 POP PUSH1 0x20 DUP2 ADD SWAP1 POP SWAP2 SWAP1 POP JUMP JUMPDEST DUP3 DUP2 DUP4 CALLDATACOPY PUSH1 0x0 DUP4 DUP4 ADD MSTORE POP POP POP JUMP JUMPDEST PUSH1 0x0 PUSH3 0x73F PUSH3 0x739 DUP5 PUSH3 0x6E3 JUMP JUMPDEST PUSH3 0x6C4 JUMP JUMPDEST SWAP1 POP DUP3 DUP2 MSTORE PUSH1 0x20 DUP2 ADD DUP5 DUP5 DUP5 ADD GT ISZERO PUSH3 0x75E JUMPI PUSH3 0x75D PUSH3 0x649 JUMP JUMPDEST JUMPDEST PUSH3 0x76B DUP5 DUP3 DUP6 PUSH3 0x719 JUMP JUMPDEST POP SWAP4 SWAP3 POP POP POP JUMP JUMPDEST PUSH1 0x0 DUP3 PUSH1 0x1F DUP4 ADD SLT PUSH3 0x78B JUMPI PUSH3 0x78A PUSH3 0x644 JUMP JUMPDEST JUMPDEST DUP2 CALLDATALOAD PUSH3 0x79D DUP5 DUP3 PUSH1 0x20 DUP7 ADD PUSH3 0x728 JUMP JUMPDEST SWAP2 POP POP SWAP3 SWAP2 POP POP JUMP JUMPDEST PUSH1 0x0 PUSH1 0x20 DUP3 DUP5 SUB SLT ISZERO PUSH3 0x7BF JUMPI PUSH3 0x7BE PUSH3 0x479 JUMP JUMPDEST JUMPDEST PUSH1 0x0 DUP3 ADD CALLDATALOAD PUSH8 0xFFFFFFFFFFFFFFFF DUP2 GT ISZERO PUSH3 0x7E0 JUMPI PUSH3 0x7DF PUSH3 0x47E JUMP JUMPDEST JUMPDEST PUSH3 0x7EE DUP5 DUP3 DUP6 ADD PUSH3 0x773 JUMP JUMPDEST SWAP2 POP POP SWAP3 SWAP2 POP POP JUMP JUMPDEST PUSH1 0x0 DUP1 PUSH1 0x0 DUP1 PUSH1 0x80 DUP6 DUP8 SUB SLT ISZERO PUSH3 0x814 JUMPI PUSH3 0x813 PUSH3 0x479 JUMP JUMPDEST JUMPDEST PUSH1 0x0 DUP6 ADD CALLDATALOAD PUSH8 0xFFFFFFFFFFFFFFFF DUP2 GT ISZERO PUSH3 0x835 JUMPI PUSH3 0x834 PUSH3 0x47E JUMP JUMPDEST JUMPDEST PUSH3 0x843 DUP8 DUP3 DUP9 ADD PUSH3 0x773 JUMP JUMPDEST SWAP5 POP POP PUSH1 0x20 DUP6 ADD CALLDATALOAD PUSH8 0xFFFFFFFFFFFFFFFF DUP2 GT ISZERO PUSH3 0x867 JUMPI PUSH3 0x866 PUSH3 0x47E JUMP JUMPDEST JUMPDEST PUSH3 0x875 DUP8 DUP3 DUP9 ADD PUSH3 0x773 JUMP JUMPDEST SWAP4 POP POP PUSH1 0x40 DUP6 ADD CALLDATALOAD PUSH8 0xFFFFFFFFFFFFFFFF DUP2 GT ISZERO PUSH3 0x899 JUMPI PUSH3 0x898 PUSH3 0x47E JUMP JUMPDEST JUMPDEST PUSH3 0x8A7 DUP8 DUP3 DUP9 ADD PUSH3 0x773 JUMP JUMPDEST SWAP3 POP POP PUSH1 0x60 DUP6 ADD CALLDATALOAD PUSH8 0xFFFFFFFFFFFFFFFF DUP2 GT ISZERO PUSH3 0x8CB JUMPI PUSH3 0x8CA PUSH3 0x47E JUMP JUMPDEST JUMPDEST PUSH3 0x8D9 DUP8 DUP3 DUP9 ADD PUSH3 0x773 JUMP JUMPDEST SWAP2 POP POP SWAP3 SWAP6 SWAP2 SWAP5 POP SWAP3 POP JUMP JUMPDEST PUSH3 0x8F0 DUP2 PUSH3 0x510 JUMP JUMPDEST DUP2 EQ PUSH3 0x8FC JUMPI PUSH1 0x0 DUP1 REVERT JUMPDEST POP JUMP JUMPDEST PUSH1 0x0 DUP2 CALLDATALOAD SWAP1 POP PUSH3 0x910 DUP2 PUSH3 0x8E5 JUMP JUMPDEST SWAP3 SWAP2 POP POP JUMP JUMPDEST PUSH1 0x0 PUSH1 0x20 DUP3 DUP5 SUB SLT ISZERO PUSH3 0x92F JUMPI PUSH3 0x92E PUSH3 0x479 JUMP JUMPDEST JUMPDEST PUSH1 0x0 PUSH3 0x93F DUP5 DUP3 DUP6 ADD PUSH3 0x8FF JUMP JUMPDEST SWAP2 POP POP SWAP3 SWAP2 POP POP JUMP JUMPDEST PUSH1 0x0 DUP2 MLOAD SWAP1 POP SWAP2 SWAP1 POP JUMP JUMPDEST PUSH1 0x0 DUP3 DUP3 MSTORE PUSH1 0x20 DUP3 ADD SWAP1 POP SWAP3 SWAP2 POP POP JUMP JUMPDEST PUSH1 0x0 JUMPDEST DUP4 DUP2 LT ISZERO PUSH3 0x984 JUMPI DUP1 DUP3 ADD MLOAD DUP2 DUP5 ADD MSTORE PUSH1 0x20 DUP2 ADD SWAP1 POP PUSH3 0x967 JUMP JUMPDEST DUP4 DUP2 GT ISZERO PUSH3 0x994 JUMPI PUSH1 0x0 DUP5 DUP5 ADD MSTORE JUMPDEST POP POP POP POP JUMP JUMPDEST PUSH1 0x0 PUSH3 0x9A7 DUP3 PUSH3 0x948 JUMP JUMPDEST PUSH3 0x9B3 DUP2 DUP6 PUSH3 0x953 JUMP JUMPDEST SWAP4 POP PUSH3 0x9C5 DUP2 DUP6 PUSH1 0x20 DUP7 ADD PUSH3 0x964 JUMP JUMPDEST PUSH3 0x9D0 DUP2 PUSH3 0x64E JUMP JUMPDEST DUP5 ADD SWAP2 POP POP SWAP3 SWAP2 POP POP JUMP JUMPDEST PUSH1 0x0 PUSH1 0x20 DUP3 ADD SWAP1 POP DUP2 DUP2 SUB PUSH1 0x0 DUP4 ADD MSTORE PUSH3 0x9F7 DUP2 DUP5 PUSH3 0x99A JUMP JUMPDEST SWAP1 POP SWAP3 SWAP2 POP POP JUMP JUMPDEST PUSH1 0x0 PUSH1 0xA0 DUP3 ADD SWAP1 POP PUSH3 0xA16 PUSH1 0x0 DUP4 ADD DUP9 PUSH3 0x524 JUMP JUMPDEST DUP2 DUP2 SUB PUSH1 0x20 DUP4 ADD MSTORE PUSH3 0xA2A DUP2 DUP8 PUSH3 0x99A JUMP JUMPDEST SWAP1 POP DUP2 DUP2 SUB PUSH1 0x40 DUP4 ADD MSTORE PUSH3 0xA40 DUP2 DUP7 PUSH3 0x99A JUMP JUMPDEST SWAP1 POP DUP2 DUP2 SUB PUSH1 0x60 DUP4 ADD MSTORE PUSH3 0xA56 DUP2 DUP6 PUSH3 0x99A JUMP JUMPDEST SWAP1 POP DUP2 DUP2 SUB PUSH1 0x80 DUP4 ADD MSTORE PUSH3 0xA6C DUP2 DUP5 PUSH3 0x99A JUMP JUMPDEST SWAP1 POP SWAP7 SWAP6 POP POP POP POP POP POP JUMP JUMPDEST PUSH32 0x4E487B7100000000000000000000000000000000000000000000000000000000 PUSH1 0x0 MSTORE PUSH1 0x22 PUSH1 0x4 MSTORE PUSH1 0x24 PUSH1 0x0 REVERT JUMPDEST PUSH1 0x0 PUSH1 0x2 DUP3 DIV SWAP1 POP PUSH1 0x1 DUP3 AND DUP1 PUSH3 0xAC0 JUMPI PUSH1 0x7F DUP3 AND SWAP2 POP JUMPDEST PUSH1 0x20 DUP3 LT DUP2 EQ ISZERO PUSH3 0xAD7 JUMPI PUSH3 0xAD6 PUSH3 0xA78 JUMP JUMPDEST JUMPDEST POP SWAP2 SWAP1 POP JUMP INVALID PUSH1 0x80 PUSH1 0x40 MSTORE PUSH1 0x40 MLOAD PUSH3 0x4FF5 CODESIZE SUB DUP1 PUSH3 0x4FF5 DUP4 CODECOPY DUP2 DUP2 ADD PUSH1 0x40 MSTORE DUP2 ADD SWAP1 PUSH3 0x29 SWAP2 SWAP1 PUSH3 0x405 JUMP JUMPDEST PUSH1 0x1 PUSH1 0x8 PUSH1 0x0 DUP8 PUSH20 0xFFFFFFFFFFFFFFFFFFFFFFFFFFFFFFFFFFFFFFFF AND PUSH20 0xFFFFFFFFFFFFFFFFFFFFFFFFFFFFFFFFFFFFFFFF AND DUP2 MSTORE PUSH1 0x20 ADD SWAP1 DUP2 MSTORE PUSH1 0x20 ADD PUSH1 0x0 KECCAK256 PUSH1 0x0 PUSH2 0x100 EXP DUP2 SLOAD DUP2 PUSH1 0xFF MUL NOT AND SWAP1 DUP4 ISZERO ISZERO MUL OR SWAP1 SSTORE POP PUSH1 0x9 DUP6 SWAP1 DUP1 PUSH1 0x1 DUP2 SLOAD ADD DUP1 DUP3 SSTORE DUP1 SWAP2 POP POP PUSH1 0x1 SWAP1 SUB SWAP1 PUSH1 0x0 MSTORE PUSH1 0x20 PUSH1 0x0 KECCAK256 ADD PUSH1 0x0 SWAP1 SWAP2 SWAP1 SWAP2 SWAP1 SWAP2 PUSH2 0x100 EXP DUP2 SLOAD DUP2 PUSH20 0xFFFFFFFFFFFFFFFFFFFFFFFFFFFFFFFFFFFFFFFF MUL NOT AND SWAP1 DUP4 PUSH20 0xFFFFFFFFFFFFFFFFFFFFFFFFFFFFFFFFFFFFFFFF AND MUL OR SWAP1 SSTORE POP DUP4 PUSH1 0x0 SWAP1 DUP1 MLOAD SWAP1 PUSH1 0x20 ADD SWAP1 PUSH3 0xFC SWAP3 SWAP2 SWAP1 PUSH3 0x153 JUMP JUMPDEST POP DUP3 PUSH1 0x1 SWAP1 DUP1 MLOAD SWAP1 PUSH1 0x20 ADD SWAP1 PUSH3 0x115 SWAP3 SWAP2 SWAP1 PUSH3 0x153 JUMP JUMPDEST POP DUP2 PUSH1 0x2 SWAP1 DUP1 MLOAD SWAP1 PUSH1 0x20 ADD SWAP1 PUSH3 0x12E SWAP3 SWAP2 SWAP1 PUSH3 0x153 JUMP JUMPDEST POP DUP1 PUSH1 0x3 SWAP1 DUP1 MLOAD SWAP1 PUSH1 0x20 ADD SWAP1 PUSH3 0x147 SWAP3 SWAP2 SWAP1 PUSH3 0x153 JUMP JUMPDEST POP POP POP POP POP POP PUSH3 0x56E JUMP JUMPDEST DUP3 DUP1 SLOAD PUSH3 0x161 SWAP1 PUSH3 0x538 JUMP JUMPDEST SWAP1 PUSH1 0x0 MSTORE PUSH1 0x20 PUSH1 0x0 KECCAK256 SWAP1 PUSH1 0x1F ADD PUSH1 0x20 SWAP1 DIV DUP2 ADD SWAP3 DUP3 PUSH3 0x185 JUMPI PUSH1 0x0 DUP6 SSTORE PUSH3 0x1D1 JUMP JUMPDEST DUP3 PUSH1 0x1F LT PUSH3 0x1A0 JUMPI DUP1 MLOAD PUSH1 0xFF NOT AND DUP4 DUP1 ADD OR DUP6 SSTORE PUSH3 0x1D1 JUMP JUMPDEST DUP3 DUP1 ADD PUSH1 0x1 ADD DUP6 SSTORE DUP3 ISZERO PUSH3 0x1D1 JUMPI SWAP2 DUP3 ADD JUMPDEST DUP3 DUP2 GT ISZERO PUSH3 0x1D0 JUMPI DUP3 MLOAD DUP3 SSTORE SWAP2 PUSH1 0x20 ADD SWAP2 SWAP1 PUSH1 0x1 ADD SWAP1 PUSH3 0x1B3 JUMP JUMPDEST JUMPDEST POP SWAP1 POP PUSH3 0x1E0 SWAP2 SWAP1 PUSH3 0x1E4 JUMP JUMPDEST POP SWAP1 JUMP JUMPDEST JUMPDEST DUP1 DUP3 GT ISZERO PUSH3 0x1FF JUMPI PUSH1 0x0 DUP2 PUSH1 0x0 SWAP1 SSTORE POP PUSH1 0x1 ADD PUSH3 0x1E5 JUMP JUMPDEST POP SWAP1 JUMP JUMPDEST PUSH1 0x0 PUSH1 0x40 MLOAD SWAP1 POP SWAP1 JUMP JUMPDEST PUSH1 0x0 DUP1 REVERT JUMPDEST PUSH1 0x0 DUP1 REVERT JUMPDEST PUSH1 0x0 PUSH20 0xFFFFFFFFFFFFFFFFFFFFFFFFFFFFFFFFFFFFFFFF DUP3 AND SWAP1 POP SWAP2 SWAP1 POP JUMP JUMPDEST PUSH1 0x0 PUSH3 0x244 DUP3 PUSH3 0x217 JUMP JUMPDEST SWAP1 POP SWAP2 SWAP1 POP JUMP JUMPDEST PUSH3 0x256 DUP2 PUSH3 0x237 JUMP JUMPDEST DUP2 EQ PUSH3 0x262 JUMPI PUSH1 0x0 DUP1 REVERT JUMPDEST POP JUMP JUMPDEST PUSH1 0x0 DUP2 MLOAD SWAP1 POP PUSH3 0x276 DUP2 PUSH3 0x24B JUMP JUMPDEST SWAP3 SWAP2 POP POP JUMP JUMPDEST PUSH1 0x0 DUP1 REVERT JUMPDEST PUSH1 0x0 DUP1 REVERT JUMPDEST PUSH1 0x0 PUSH1 0x1F NOT PUSH1 0x1F DUP4 ADD AND SWAP1 POP SWAP2 SWAP1 POP JUMP JUMPDEST PUSH32 0x4E487B7100000000000000000000000000000000000000000000000000000000 PUSH1 0x0 MSTORE PUSH1 0x41 PUSH1 0x4 MSTORE PUSH1 0x24 PUSH1 0x0 REVERT JUMPDEST PUSH3 0x2D1 DUP3 PUSH3 0x286 JUMP JUMPDEST DUP2 ADD DUP2 DUP2 LT PUSH8 0xFFFFFFFFFFFFFFFF DUP3 GT OR ISZERO PUSH3 0x2F3 JUMPI PUSH3 0x2F2 PUSH3 0x297 JUMP JUMPDEST JUMPDEST DUP1 PUSH1 0x40 MSTORE POP POP POP JUMP JUMPDEST PUSH1 0x0 PUSH3 0x308 PUSH3 0x203 JUMP JUMPDEST SWAP1 POP PUSH3 0x316 DUP3 DUP3 PUSH3 0x2C6 JUMP JUMPDEST SWAP2 SWAP1 POP JUMP JUMPDEST PUSH1 0x0 PUSH8 0xFFFFFFFFFFFFFFFF DUP3 GT ISZERO PUSH3 0x339 JUMPI PUSH3 0x338 PUSH3 0x297 JUMP JUMPDEST JUMPDEST PUSH3 0x344 DUP3 PUSH3 0x286 JUMP JUMPDEST SWAP1 POP PUSH1 0x20 DUP2 ADD SWAP1 POP SWAP2 SWAP1 POP JUMP JUMPDEST PUSH1 0x0 JUMPDEST DUP4 DUP2 LT ISZERO PUSH3 0x371 JUMPI DUP1 DUP3 ADD MLOAD DUP2 DUP5 ADD MSTORE PUSH1 0x20 DUP2 ADD SWAP1 POP PUSH3 0x354 JUMP JUMPDEST DUP4 DUP2 GT ISZERO PUSH3 0x381 JUMPI PUSH1 0x0 DUP5 DUP5 ADD MSTORE JUMPDEST POP POP POP POP JUMP JUMPDEST PUSH1 0x0 PUSH3 0x39E PUSH3 0x398 DUP5 PUSH3 0x31B JUMP JUMPDEST PUSH3 0x2FC JUMP JUMPDEST SWAP1 POP DUP3 DUP2 MSTORE PUSH1 0x20 DUP2 ADD DUP5 DUP5 DUP5 ADD GT ISZERO PUSH3 0x3BD JUMPI PUSH3 0x3BC PUSH3 0x281 JUMP JUMPDEST JUMPDEST PUSH3 0x3CA DUP5 DUP3 DUP6 PUSH3 0x351 JUMP JUMPDEST POP SWAP4 SWAP3 POP POP POP JUMP JUMPDEST PUSH1 0x0 DUP3 PUSH1 0x1F DUP4 ADD SLT PUSH3 0x3EA JUMPI PUSH3 0x3E9 PUSH3 0x27C JUMP JUMPDEST JUMPDEST DUP2 MLOAD PUSH3 0x3FC DUP5 DUP3 PUSH1 0x20 DUP7 ADD PUSH3 0x387 JUMP JUMPDEST SWAP2 POP POP SWAP3 SWAP2 POP POP JUMP JUMPDEST PUSH1 0x0 DUP1 PUSH1 0x0 DUP1 PUSH1 0x0 PUSH1 0xA0 DUP7 DUP9 SUB SLT ISZERO PUSH3 0x424 JUMPI PUSH3 0x423 PUSH3 0x20D JUMP JUMPDEST JUMPDEST PUSH1 0x0 PUSH3 0x434 DUP9 DUP3 DUP10 ADD PUSH3 0x265 JUMP JUMPDEST SWAP6 POP POP PUSH1 0x20 DUP7 ADD MLOAD PUSH8 0xFFFFFFFFFFFFFFFF DUP2 GT ISZERO PUSH3 0x458 JUMPI PUSH3 0x457 PUSH3 0x212 JUMP JUMPDEST JUMPDEST PUSH3 0x466 DUP9 DUP3 DUP10 ADD PUSH3 0x3D2 JUMP JUMPDEST SWAP5 POP POP PUSH1 0x40 DUP7 ADD MLOAD PUSH8 0xFFFFFFFFFFFFFFFF DUP2 GT ISZERO PUSH3 0x48A JUMPI PUSH3 0x489 PUSH3 0x212 JUMP JUMPDEST JUMPDEST PUSH3 0x498 DUP9 DUP3 DUP10 ADD PUSH3 0x3D2 JUMP JUMPDEST SWAP4 POP POP PUSH1 0x60 DUP7 ADD MLOAD PUSH8 0xFFFFFFFFFFFFFFFF DUP2 GT ISZERO PUSH3 0x4BC JUMPI PUSH3 0x4BB PUSH3 0x212 JUMP JUMPDEST JUMPDEST PUSH3 0x4CA DUP9 DUP3 DUP10 ADD PUSH3 0x3D2 JUMP JUMPDEST SWAP3 POP POP PUSH1 0x80 DUP7 ADD MLOAD PUSH8 0xFFFFFFFFFFFFFFFF DUP2 GT ISZERO PUSH3 0x4EE JUMPI PUSH3 0x4ED PUSH3 0x212 JUMP JUMPDEST JUMPDEST PUSH3 0x4FC DUP9 DUP3 DUP10 ADD PUSH3 0x3D2 JUMP JUMPDEST SWAP2 POP POP SWAP3 SWAP6 POP SWAP3 SWAP6 SWAP1 SWAP4 POP JUMP JUMPDEST PUSH32 0x4E487B7100000000000000000000000000000000000000000000000000000000 PUSH1 0x0 MSTORE PUSH1 0x22 PUSH1 0x4 MSTORE PUSH1 0x24 PUSH1 0x0 REVERT JUMPDEST PUSH1 0x0 PUSH1 0x2 DUP3 DIV SWAP1 POP PUSH1 0x1 DUP3 AND DUP1 PUSH3 0x551 JUMPI PUSH1 0x7F DUP3 AND SWAP2 POP JUMPDEST PUSH1 0x20 DUP3 LT DUP2 EQ ISZERO PUSH3 0x568 JUMPI PUSH3 0x567 PUSH3 0x509 JUMP JUMPDEST JUMPDEST POP SWAP2 SWAP1 POP JUMP JUMPDEST PUSH2 0x4A77 DUP1 PUSH3 0x57E PUSH1 0x0 CODECOPY PUSH1 0x0 RETURN INVALID PUSH1 0x80 PUSH1 0x40 MSTORE PUSH1 0x4 CALLDATASIZE LT PUSH3 0x152 JUMPI PUSH1 0x0 CALLDATALOAD PUSH1 0xE0 SHR DUP1 PUSH4 0x6FC6C579 GT PUSH3 0xBB JUMPI DUP1 PUSH4 0x9D3ED807 GT PUSH3 0x79 JUMPI DUP1 PUSH4 0x9D3ED807 EQ PUSH3 0x47E JUMPI DUP1 PUSH4 0xB5202522 EQ PUSH3 0x4C2 JUMPI DUP1 PUSH4 0xD5AC2A87 EQ PUSH3 0x506 JUMPI DUP1 PUSH4 0xDFA14E23 EQ PUSH3 0x536 JUMPI DUP1 PUSH4 0xE8AE38E4 EQ PUSH3 0x564 JUMPI DUP1 PUSH4 0xF7B78A5B EQ PUSH3 0x594 JUMPI PUSH3 0x152 JUMP JUMPDEST DUP1 PUSH4 0x6FC6C579 EQ PUSH3 0x367 JUMPI DUP1 PUSH4 0x7F51AAF9 EQ PUSH3 0x3AE JUMPI DUP1 PUSH4 0x8DA5CB5B EQ PUSH3 0x3F2 JUMPI DUP1 PUSH4 0x98B79628 EQ PUSH3 0x422 JUMPI DUP1 PUSH4 0x992B11DC EQ PUSH3 0x450 JUMPI PUSH3 0x152 JUMP JUMPDEST DUP1 PUSH4 0x3E5690F4 GT PUSH3 0x115 JUMPI DUP1 PUSH4 0x3E5690F4 EQ PUSH3 0x221 JUMPI DUP1 PUSH4 0x4051DDAC EQ PUSH3 0x265 JUMPI DUP1 PUSH4 0x497C9419 EQ PUSH3 0x2A0 JUMPI DUP1 PUSH4 0x4A79D50C EQ PUSH3 0x2C0 JUMPI DUP1 PUSH4 0x5D1A870A EQ PUSH3 0x2F0 JUMPI DUP1 PUSH4 0x6C0A6656 EQ PUSH3 0x320 JUMPI PUSH3 0x152 JUMP JUMPDEST DUP1 PUSH4 0x14A7585D EQ PUSH3 0x157 JUMPI DUP1 PUSH4 0x17DE3A41 EQ PUSH3 0x163 JUMPI DUP1 PUSH4 0x2606A10B EQ PUSH3 0x193 JUMPI DUP1 PUSH4 0x2CC1CD9E EQ PUSH3 0x1AD JUMPI DUP1 PUSH4 0x34976B9B EQ PUSH3 0x1F1 JUMPI JUMPDEST PUSH1 0x0 DUP1 REVERT JUMPDEST PUSH3 0x161 PUSH3 0x5C4 JUMP JUMPDEST STOP JUMPDEST CALLVALUE DUP1 ISZERO PUSH3 0x170 JUMPI PUSH1 0x0 DUP1 REVERT JUMPDEST POP PUSH3 0x17B PUSH3 0x766 JUMP JUMPDEST PUSH1 0x40 MLOAD PUSH3 0x18A SWAP2 SWAP1 PUSH3 0x2630 JUMP JUMPDEST PUSH1 0x40 MLOAD DUP1 SWAP2 SUB SWAP1 RETURN JUMPDEST CALLVALUE DUP1 ISZERO PUSH3 0x1A0 JUMPI PUSH1 0x0 DUP1 REVERT JUMPDEST POP PUSH3 0x1AB PUSH3 0x7FC JUMP JUMPDEST STOP JUMPDEST CALLVALUE DUP1 ISZERO PUSH3 0x1BA JUMPI PUSH1 0x0 DUP1 REVERT JUMPDEST POP PUSH3 0x1D9 PUSH1 0x4 DUP1 CALLDATASIZE SUB DUP2 ADD SWAP1 PUSH3 0x1D3 SWAP2 SWAP1 PUSH3 0x26CD JUMP JUMPDEST PUSH3 0xA04 JUMP JUMPDEST PUSH1 0x40 MLOAD PUSH3 0x1E8 SWAP2 SWAP1 PUSH3 0x271C JUMP JUMPDEST PUSH1 0x40 MLOAD DUP1 SWAP2 SUB SWAP1 RETURN JUMPDEST CALLVALUE DUP1 ISZERO PUSH3 0x1FE JUMPI PUSH1 0x0 DUP1 REVERT JUMPDEST POP PUSH3 0x209 PUSH3 0xA24 JUMP JUMPDEST PUSH1 0x40 MLOAD PUSH3 0x218 SWAP2 SWAP1 PUSH3 0x271C JUMP JUMPDEST PUSH1 0x40 MLOAD DUP1 SWAP2 SUB SWAP1 RETURN JUMPDEST CALLVALUE DUP1 ISZERO PUSH3 0x22E JUMPI PUSH1 0x0 DUP1 REVERT JUMPDEST POP PUSH3 0x24D PUSH1 0x4 DUP1 CALLDATASIZE SUB DUP2 ADD SWAP1 PUSH3 0x247 SWAP2 SWAP1 PUSH3 0x26CD JUMP JUMPDEST PUSH3 0xA37 JUMP JUMPDEST PUSH1 0x40 MLOAD PUSH3 0x25C SWAP2 SWAP1 PUSH3 0x271C JUMP JUMPDEST PUSH1 0x40 MLOAD DUP1 SWAP2 SUB SWAP1 RETURN JUMPDEST CALLVALUE DUP1 ISZERO PUSH3 0x272 JUMPI PUSH1 0x0 DUP1 REVERT JUMPDEST POP PUSH3 0x27D PUSH3 0xA57 JUMP JUMPDEST PUSH1 0x40 MLOAD PUSH3 0x297 SWAP13 SWAP12 SWAP11 SWAP10 SWAP9 SWAP8 SWAP7 SWAP6 SWAP5 SWAP4 SWAP3 SWAP2 SWAP1 PUSH3 0x2833 JUMP JUMPDEST PUSH1 0x40 MLOAD DUP1 SWAP2 SUB SWAP1 RETURN JUMPDEST PUSH3 0x2BE PUSH1 0x4 DUP1 CALLDATASIZE SUB DUP2 ADD SWAP1 PUSH3 0x2B8 SWAP2 SWAP1 PUSH3 0x2960 JUMP JUMPDEST PUSH3 0xE52 JUMP JUMPDEST STOP JUMPDEST CALLVALUE DUP1 ISZERO PUSH3 0x2CD JUMPI PUSH1 0x0 DUP1 REVERT JUMPDEST POP PUSH3 0x2D8 PUSH3 0x1449 JUMP JUMPDEST PUSH1 0x40 MLOAD PUSH3 0x2E7 SWAP2 SWAP1 PUSH3 0x2630 JUMP JUMPDEST PUSH1 0x40 MLOAD DUP1 SWAP2 SUB SWAP1 RETURN JUMPDEST CALLVALUE DUP1 ISZERO PUSH3 0x2FD JUMPI PUSH1 0x0 DUP1 REVERT JUMPDEST POP PUSH3 0x308 PUSH3 0x14DF JUMP JUMPDEST PUSH1 0x40 MLOAD PUSH3 0x317 SWAP2 SWAP1 PUSH3 0x271C JUMP JUMPDEST PUSH1 0x40 MLOAD DUP1 SWAP2 SUB SWAP1 RETURN JUMPDEST CALLVALUE DUP1 ISZERO PUSH3 0x32D JUMPI PUSH1 0x0 DUP1 REVERT JUMPDEST POP PUSH3 0x34C PUSH1 0x4 DUP1 CALLDATASIZE SUB DUP2 ADD SWAP1 PUSH3 0x346 SWAP2 SWAP1 PUSH3 0x2960 JUMP JUMPDEST PUSH3 0x14F2 JUMP JUMPDEST PUSH1 0x40 MLOAD PUSH3 0x35E SWAP5 SWAP4 SWAP3 SWAP2 SWAP1 PUSH3 0x2992 JUMP JUMPDEST PUSH1 0x40 MLOAD DUP1 SWAP2 SUB SWAP1 RETURN JUMPDEST CALLVALUE DUP1 ISZERO PUSH3 0x374 JUMPI PUSH1 0x0 DUP1 REVERT JUMPDEST POP PUSH3 0x393 PUSH1 0x4 DUP1 CALLDATASIZE SUB DUP2 ADD SWAP1 PUSH3 0x38D SWAP2 SWAP1 PUSH3 0x2960 JUMP JUMPDEST PUSH3 0x1560 JUMP JUMPDEST PUSH1 0x40 MLOAD PUSH3 0x3A5 SWAP5 SWAP4 SWAP3 SWAP2 SWAP1 PUSH3 0x29DF JUMP JUMPDEST PUSH1 0x40 MLOAD DUP1 SWAP2 SUB SWAP1 RETURN JUMPDEST CALLVALUE DUP1 ISZERO PUSH3 0x3BB JUMPI PUSH1 0x0 DUP1 REVERT JUMPDEST POP PUSH3 0x3DA PUSH1 0x4 DUP1 CALLDATASIZE SUB DUP2 ADD SWAP1 PUSH3 0x3D4 SWAP2 SWAP1 PUSH3 0x26CD JUMP JUMPDEST PUSH3 0x165E JUMP JUMPDEST PUSH1 0x40 MLOAD PUSH3 0x3E9 SWAP2 SWAP1 PUSH3 0x271C JUMP JUMPDEST PUSH1 0x40 MLOAD DUP1 SWAP2 SUB SWAP1 RETURN JUMPDEST CALLVALUE DUP1 ISZERO PUSH3 0x3FF JUMPI PUSH1 0x0 DUP1 REVERT JUMPDEST POP PUSH3 0x40A PUSH3 0x167E JUMP JUMPDEST PUSH1 0x40 MLOAD PUSH3 0x419 SWAP2 SWAP1 PUSH3 0x2A33 JUMP JUMPDEST PUSH1 0x40 MLOAD DUP1 SWAP2 SUB SWAP1 RETURN JUMPDEST CALLVALUE DUP1 ISZERO PUSH3 0x42F JUMPI PUSH1 0x0 DUP1 REVERT JUMPDEST POP PUSH3 0x44E PUSH1 0x4 DUP1 CALLDATASIZE SUB DUP2 ADD SWAP1 PUSH3 0x448 SWAP2 SWAP1 PUSH3 0x2960 JUMP JUMPDEST PUSH3 0x16A4 JUMP JUMPDEST STOP JUMPDEST CALLVALUE DUP1 ISZERO PUSH3 0x45D JUMPI PUSH1 0x0 DUP1 REVERT JUMPDEST POP PUSH3 0x47C PUSH1 0x4 DUP1 CALLDATASIZE SUB DUP2 ADD SWAP1 PUSH3 0x476 SWAP2 SWAP1 PUSH3 0x2BA1 JUMP JUMPDEST PUSH3 0x1B2C JUMP JUMPDEST STOP JUMPDEST CALLVALUE DUP1 ISZERO PUSH3 0x48B JUMPI PUSH1 0x0 DUP1 REVERT JUMPDEST POP PUSH3 0x4AA PUSH1 0x4 DUP1 CALLDATASIZE SUB DUP2 ADD SWAP1 PUSH3 0x4A4 SWAP2 SWAP1 PUSH3 0x2960 JUMP JUMPDEST PUSH3 0x20D7 JUMP JUMPDEST PUSH1 0x40 MLOAD PUSH3 0x4B9 SWAP2 SWAP1 PUSH3 0x2A33 JUMP JUMPDEST PUSH1 0x40 MLOAD DUP1 SWAP2 SUB SWAP1 RETURN JUMPDEST CALLVALUE DUP1 ISZERO PUSH3 0x4CF JUMPI PUSH1 0x0 DUP1 REVERT JUMPDEST POP PUSH3 0x4EE PUSH1 0x4 DUP1 CALLDATASIZE SUB DUP2 ADD SWAP1 PUSH3 0x4E8 SWAP2 SWAP1 PUSH3 0x2960 JUMP JUMPDEST PUSH3 0x2117 JUMP JUMPDEST PUSH1 0x40 MLOAD PUSH3 0x4FD SWAP2 SWAP1 PUSH3 0x2A33 JUMP JUMPDEST PUSH1 0x40 MLOAD DUP1 SWAP2 SUB SWAP1 RETURN JUMPDEST CALLVALUE DUP1 ISZERO PUSH3 0x513 JUMPI PUSH1 0x0 DUP1 REVERT JUMPDEST POP PUSH3 0x51E PUSH3 0x2157 JUMP JUMPDEST PUSH1 0x40 MLOAD PUSH3 0x52D SWAP2 SWAP1 PUSH3 0x2630 JUMP JUMPDEST PUSH1 0x40 MLOAD DUP1 SWAP2 SUB SWAP1 RETURN JUMPDEST CALLVALUE DUP1 ISZERO PUSH3 0x543 JUMPI PUSH1 0x0 DUP1 REVERT JUMPDEST POP PUSH3 0x562 PUSH1 0x4 DUP1 CALLDATASIZE SUB DUP2 ADD SWAP1 PUSH3 0x55C SWAP2 SWAP1 PUSH3 0x2C51 JUMP JUMPDEST PUSH3 0x21ED JUMP JUMPDEST STOP JUMPDEST CALLVALUE DUP1 ISZERO PUSH3 0x571 JUMPI PUSH1 0x0 DUP1 REVERT JUMPDEST POP PUSH3 0x57C PUSH3 0x2432 JUMP JUMPDEST PUSH1 0x40 MLOAD PUSH3 0x58B SWAP2 SWAP1 PUSH3 0x2630 JUMP JUMPDEST PUSH1 0x40 MLOAD DUP1 SWAP2 SUB SWAP1 RETURN JUMPDEST CALLVALUE DUP1 ISZERO PUSH3 0x5A1 JUMPI PUSH1 0x0 DUP1 REVERT JUMPDEST POP PUSH3 0x5AC PUSH3 0x24C8 JUMP JUMPDEST PUSH1 0x40 MLOAD PUSH3 0x5BB SWAP2 SWAP1 PUSH3 0x2CA2 JUMP JUMPDEST PUSH1 0x40 MLOAD DUP1 SWAP2 SUB SWAP1 RETURN JUMPDEST PUSH1 0x4 PUSH1 0x0 SWAP1 SLOAD SWAP1 PUSH2 0x100 EXP SWAP1 DIV PUSH1 0xFF AND ISZERO PUSH3 0x617 JUMPI PUSH1 0x40 MLOAD PUSH32 0x8C379A000000000000000000000000000000000000000000000000000000000 DUP2 MSTORE PUSH1 0x4 ADD PUSH3 0x60E SWAP1 PUSH3 0x2D0F JUMP JUMPDEST PUSH1 0x40 MLOAD DUP1 SWAP2 SUB SWAP1 REVERT JUMPDEST PUSH1 0x1 PUSH1 0x4 PUSH1 0x0 PUSH2 0x100 EXP DUP2 SLOAD DUP2 PUSH1 0xFF MUL NOT AND SWAP1 DUP4 ISZERO ISZERO MUL OR SWAP1 SSTORE POP PUSH1 0xE PUSH1 0x14 SWAP1 SLOAD SWAP1 PUSH2 0x100 EXP SWAP1 DIV PUSH1 0xFF AND ISZERO PUSH3 0x685 JUMPI PUSH1 0x40 MLOAD PUSH32 0x8C379A000000000000000000000000000000000000000000000000000000000 DUP2 MSTORE PUSH1 0x4 ADD PUSH3 0x67C SWAP1 PUSH3 0x2D81 JUMP JUMPDEST PUSH1 0x40 MLOAD DUP1 SWAP2 SUB SWAP1 REVERT JUMPDEST PUSH1 0x6 PUSH1 0x0 SWAP1 SLOAD SWAP1 PUSH2 0x100 EXP SWAP1 DIV PUSH1 0xFF AND ISZERO PUSH3 0x6D8 JUMPI PUSH1 0x40 MLOAD PUSH32 0x8C379A000000000000000000000000000000000000000000000000000000000 DUP2 MSTORE PUSH1 0x4 ADD PUSH3 0x6CF SWAP1 PUSH3 0x2DF3 JUMP JUMPDEST PUSH1 0x40 MLOAD DUP1 SWAP2 SUB SWAP1 REVERT JUMPDEST PUSH1 0x0 PUSH1 0xD PUSH1 0x1 DUP2 PUSH1 0x1 DUP2 SLOAD ADD DUP1 DUP3 SSTORE DUP1 SWAP2 POP POP SUB SWAP1 PUSH1 0x0 MSTORE PUSH1 0x20 PUSH1 0x0 KECCAK256 SWAP1 PUSH1 0x5 MUL ADD SWAP1 POP CALLVALUE DUP2 PUSH1 0x0 ADD DUP2 SWAP1 SSTORE POP CALLER DUP2 PUSH1 0x1 ADD PUSH1 0x0 PUSH2 0x100 EXP DUP2 SLOAD DUP2 PUSH20 0xFFFFFFFFFFFFFFFFFFFFFFFFFFFFFFFFFFFFFFFF MUL NOT AND SWAP1 DUP4 PUSH20 0xFFFFFFFFFFFFFFFFFFFFFFFFFFFFFFFFFFFFFFFF AND MUL OR SWAP1 SSTORE POP POP PUSH1 0x0 PUSH1 0x4 PUSH1 0x0 PUSH2 0x100 EXP DUP2 SLOAD DUP2 PUSH1 0xFF MUL NOT AND SWAP1 DUP4 ISZERO ISZERO MUL OR SWAP1 SSTORE POP JUMP JUMPDEST PUSH1 0x1 DUP1 SLOAD PUSH3 0x775 SWAP1 PUSH3 0x2E44 JUMP JUMPDEST DUP1 PUSH1 0x1F ADD PUSH1 0x20 DUP1 SWAP2 DIV MUL PUSH1 0x20 ADD PUSH1 0x40 MLOAD SWAP1 DUP2 ADD PUSH1 0x40 MSTORE DUP1 SWAP3 SWAP2 SWAP1 DUP2 DUP2 MSTORE PUSH1 0x20 ADD DUP3 DUP1 SLOAD PUSH3 0x7A3 SWAP1 PUSH3 0x2E44 JUMP JUMPDEST DUP1 ISZERO PUSH3 0x7F4 JUMPI DUP1 PUSH1 0x1F LT PUSH3 0x7C8 JUMPI PUSH2 0x100 DUP1 DUP4 SLOAD DIV MUL DUP4 MSTORE SWAP2 PUSH1 0x20 ADD SWAP2 PUSH3 0x7F4 JUMP JUMPDEST DUP3 ADD SWAP2 SWAP1 PUSH1 0x0 MSTORE PUSH1 0x20 PUSH1 0x0 KECCAK256 SWAP1 JUMPDEST DUP2 SLOAD DUP2 MSTORE SWAP1 PUSH1 0x1 ADD SWAP1 PUSH1 0x20 ADD DUP1 DUP4 GT PUSH3 0x7D6 JUMPI DUP3 SWAP1 SUB PUSH1 0x1F AND DUP3 ADD SWAP2 JUMPDEST POP POP POP POP POP DUP2 JUMP JUMPDEST PUSH1 0x4 PUSH1 0x0 SWAP1 SLOAD SWAP1 PUSH2 0x100 EXP SWAP1 DIV PUSH1 0xFF AND ISZERO PUSH3 0x84F JUMPI PUSH1 0x40 MLOAD PUSH32 0x8C379A000000000000000000000000000000000000000000000000000000000 DUP2 MSTORE PUSH1 0x4 ADD PUSH3 0x846 SWAP1 PUSH3 0x2D0F JUMP JUMPDEST PUSH1 0x40 MLOAD DUP1 SWAP2 SUB SWAP1 REVERT JUMPDEST PUSH1 0x1 PUSH1 0x4 PUSH1 0x0 PUSH2 0x100 EXP DUP2 SLOAD DUP2 PUSH1 0xFF MUL NOT AND SWAP1 DUP4 ISZERO ISZERO MUL OR SWAP1 SSTORE POP PUSH1 0x6 PUSH1 0x0 SWAP1 SLOAD SWAP1 PUSH2 0x100 EXP SWAP1 DIV PUSH1 0xFF AND ISZERO PUSH3 0x8BD JUMPI PUSH1 0x40 MLOAD PUSH32 0x8C379A000000000000000000000000000000000000000000000000000000000 DUP2 MSTORE PUSH1 0x4 ADD PUSH3 0x8B4 SWAP1 PUSH3 0x2DF3 JUMP JUMPDEST PUSH1 0x40 MLOAD DUP1 SWAP2 SUB SWAP1 REVERT JUMPDEST PUSH1 0x7 PUSH1 0x0 CALLER PUSH20 0xFFFFFFFFFFFFFFFFFFFFFFFFFFFFFFFFFFFFFFFF AND PUSH20 0xFFFFFFFFFFFFFFFFFFFFFFFFFFFFFFFFFFFFFFFF AND DUP2 MSTORE PUSH1 0x20 ADD SWAP1 DUP2 MSTORE PUSH1 0x20 ADD PUSH1 0x0 KECCAK256 PUSH1 0x0 SWAP1 SLOAD SWAP1 PUSH2 0x100 EXP SWAP1 DIV PUSH1 0xFF AND ISZERO PUSH3 0x94D JUMPI PUSH1 0x40 MLOAD PUSH32 0x8C379A000000000000000000000000000000000000000000000000000000000 DUP2 MSTORE PUSH1 0x4 ADD PUSH3 0x944 SWAP1 PUSH3 0x2EF0 JUMP JUMPDEST PUSH1 0x40 MLOAD DUP1 SWAP2 SUB SWAP1 REVERT JUMPDEST PUSH1 0x5 PUSH1 0x0 DUP2 SLOAD DUP1 SWAP3 SWAP2 SWAP1 PUSH3 0x962 SWAP1 PUSH3 0x2F41 JUMP JUMPDEST SWAP2 SWAP1 POP SSTORE POP PUSH1 0x1 PUSH1 0x7 PUSH1 0x0 CALLER PUSH20 0xFFFFFFFFFFFFFFFFFFFFFFFFFFFFFFFFFFFFFFFF AND PUSH20 0xFFFFFFFFFFFFFFFFFFFFFFFFFFFFFFFFFFFFFFFF AND DUP2 MSTORE PUSH1 0x20 ADD SWAP1 DUP2 MSTORE PUSH1 0x20 ADD PUSH1 0x0 KECCAK256 PUSH1 0x0 PUSH2 0x100 EXP DUP2 SLOAD DUP2 PUSH1 0xFF MUL NOT AND SWAP1 DUP4 ISZERO ISZERO MUL OR SWAP1 SSTORE POP PUSH1 0x64 PUSH1 0x5 SLOAD GT ISZERO PUSH3 0x9E7 JUMPI PUSH1 0x1 PUSH1 0x6 PUSH1 0x0 PUSH2 0x100 EXP DUP2 SLOAD DUP2 PUSH1 0xFF MUL NOT AND SWAP1 DUP4 ISZERO ISZERO MUL OR SWAP1 SSTORE POP JUMPDEST PUSH1 0x0 PUSH1 0x4 PUSH1 0x0 PUSH2 0x100 EXP DUP2 SLOAD DUP2 PUSH1 0xFF MUL NOT AND SWAP1 DUP4 ISZERO ISZERO MUL OR SWAP1 SSTORE POP JUMP JUMPDEST PUSH1 0x7 PUSH1 0x20 MSTORE DUP1 PUSH1 0x0 MSTORE PUSH1 0x40 PUSH1 0x0 KECCAK256 PUSH1 0x0 SWAP2 POP SLOAD SWAP1 PUSH2 0x100 EXP SWAP1 DIV PUSH1 0xFF AND DUP2 JUMP JUMPDEST PUSH1 0xE PUSH1 0x14 SWAP1 SLOAD SWAP1 PUSH2 0x100 EXP SWAP1 DIV PUSH1 0xFF AND DUP2 JUMP JUMPDEST PUSH1 0x8 PUSH1 0x20 MSTORE DUP1 PUSH1 0x0 MSTORE PUSH1 0x40 PUSH1 0x0 KECCAK256 PUSH1 0x0 SWAP2 POP SLOAD SWAP1 PUSH2 0x100 EXP SWAP1 DIV PUSH1 0xFF AND DUP2 JUMP JUMPDEST PUSH1 0x60 DUP1 PUSH1 0x60 DUP1 PUSH1 0x60 PUSH1 0x0 DUP1 PUSH1 0x0 PUSH1 0x60 PUSH1 0x0 DUP1 PUSH1 0x0 DUP1 PUSH1 0x1 PUSH1 0x2 PUSH1 0x9 PUSH1 0xB PUSH1 0xC DUP1 SLOAD SWAP1 POP PUSH1 0x5 SLOAD PUSH1 0x6 PUSH1 0x0 SWAP1 SLOAD SWAP1 PUSH2 0x100 EXP SWAP1 DIV PUSH1 0xFF AND PUSH1 0x3 PUSH1 0xD DUP1 SLOAD SWAP1 POP PUSH1 0xE PUSH1 0x14 SWAP1 SLOAD SWAP1 PUSH2 0x100 EXP SWAP1 DIV PUSH1 0xFF AND PUSH1 0xE PUSH1 0x0 SWAP1 SLOAD SWAP1 PUSH2 0x100 EXP SWAP1 DIV PUSH20 0xFFFFFFFFFFFFFFFFFFFFFFFFFFFFFFFFFFFFFFFF AND DUP12 DUP1 SLOAD PUSH3 0xAD6 SWAP1 PUSH3 0x2E44 JUMP JUMPDEST DUP1 PUSH1 0x1F ADD PUSH1 0x20 DUP1 SWAP2 DIV MUL PUSH1 0x20 ADD PUSH1 0x40 MLOAD SWAP1 DUP2 ADD PUSH1 0x40 MSTORE DUP1 SWAP3 SWAP2 SWAP1 DUP2 DUP2 MSTORE PUSH1 0x20 ADD DUP3 DUP1 SLOAD PUSH3 0xB04 SWAP1 PUSH3 0x2E44 JUMP JUMPDEST DUP1 ISZERO PUSH3 0xB55 JUMPI DUP1 PUSH1 0x1F LT PUSH3 0xB29 JUMPI PUSH2 0x100 DUP1 DUP4 SLOAD DIV MUL DUP4 MSTORE SWAP2 PUSH1 0x20 ADD SWAP2 PUSH3 0xB55 JUMP JUMPDEST DUP3 ADD SWAP2 SWAP1 PUSH1 0x0 MSTORE PUSH1 0x20 PUSH1 0x0 KECCAK256 SWAP1 JUMPDEST DUP2 SLOAD DUP2 MSTORE SWAP1 PUSH1 0x1 ADD SWAP1 PUSH1 0x20 ADD DUP1 DUP4 GT PUSH3 0xB37 JUMPI DUP3 SWAP1 SUB PUSH1 0x1F AND DUP3 ADD SWAP2 JUMPDEST POP POP POP POP POP SWAP12 POP DUP11 DUP1 SLOAD PUSH3 0xB6A SWAP1 PUSH3 0x2E44 JUMP JUMPDEST DUP1 PUSH1 0x1F ADD PUSH1 0x20 DUP1 SWAP2 DIV MUL PUSH1 0x20 ADD PUSH1 0x40 MLOAD SWAP1 DUP2 ADD PUSH1 0x40 MSTORE DUP1 SWAP3 SWAP2 SWAP1 DUP2 DUP2 MSTORE PUSH1 0x20 ADD DUP3 DUP1 SLOAD PUSH3 0xB98 SWAP1 PUSH3 0x2E44 JUMP JUMPDEST DUP1 ISZERO PUSH3 0xBE9 JUMPI DUP1 PUSH1 0x1F LT PUSH3 0xBBD JUMPI PUSH2 0x100 DUP1 DUP4 SLOAD DIV MUL DUP4 MSTORE SWAP2 PUSH1 0x20 ADD SWAP2 PUSH3 0xBE9 JUMP JUMPDEST DUP3 ADD SWAP2 SWAP1 PUSH1 0x0 MSTORE PUSH1 0x20 PUSH1 0x0 KECCAK256 SWAP1 JUMPDEST DUP2 SLOAD DUP2 MSTORE SWAP1 PUSH1 0x1 ADD SWAP1 PUSH1 0x20 ADD DUP1 DUP4 GT PUSH3 0xBCB JUMPI DUP3 SWAP1 SUB PUSH1 0x1F AND DUP3 ADD SWAP2 JUMPDEST POP POP POP POP POP SWAP11 POP DUP10 DUP1 SLOAD PUSH3 0xBFE SWAP1 PUSH3 0x2E44 JUMP JUMPDEST DUP1 PUSH1 0x1F ADD PUSH1 0x20 DUP1 SWAP2 DIV MUL PUSH1 0x20 ADD PUSH1 0x40 MLOAD SWAP1 DUP2 ADD PUSH1 0x40 MSTORE DUP1 SWAP3 SWAP2 SWAP1 DUP2 DUP2 MSTORE PUSH1 0x20 ADD DUP3 DUP1 SLOAD PUSH3 0xC2C SWAP1 PUSH3 0x2E44 JUMP JUMPDEST DUP1 ISZERO PUSH3 0xC7D JUMPI DUP1 PUSH1 0x1F LT PUSH3 0xC51 JUMPI PUSH2 0x100 DUP1 DUP4 SLOAD DIV MUL DUP4 MSTORE SWAP2 PUSH1 0x20 ADD SWAP2 PUSH3 0xC7D JUMP JUMPDEST DUP3 ADD SWAP2 SWAP1 PUSH1 0x0 MSTORE PUSH1 0x20 PUSH1 0x0 KECCAK256 SWAP1 JUMPDEST DUP2 SLOAD DUP2 MSTORE SWAP1 PUSH1 0x1 ADD SWAP1 PUSH1 0x20 ADD DUP1 DUP4 GT PUSH3 0xC5F JUMPI DUP3 SWAP1 SUB PUSH1 0x1F AND DUP3 ADD SWAP2 JUMPDEST POP POP POP POP POP SWAP10 POP DUP9 DUP1 SLOAD DUP1 PUSH1 0x20 MUL PUSH1 0x20 ADD PUSH1 0x40 MLOAD SWAP1 DUP2 ADD PUSH1 0x40 MSTORE DUP1 SWAP3 SWAP2 SWAP1 DUP2 DUP2 MSTORE PUSH1 0x20 ADD DUP3 DUP1 SLOAD DUP1 ISZERO PUSH3 0xD07 JUMPI PUSH1 0x20 MUL DUP3 ADD SWAP2 SWAP1 PUSH1 0x0 MSTORE PUSH1 0x20 PUSH1 0x0 KECCAK256 SWAP1 JUMPDEST DUP2 PUSH1 0x0 SWAP1 SLOAD SWAP1 PUSH2 0x100 EXP SWAP1 DIV PUSH20 0xFFFFFFFFFFFFFFFFFFFFFFFFFFFFFFFFFFFFFFFF AND PUSH20 0xFFFFFFFFFFFFFFFFFFFFFFFFFFFFFFFFFFFFFFFF AND DUP2 MSTORE PUSH1 0x20 ADD SWAP1 PUSH1 0x1 ADD SWAP1 DUP1 DUP4 GT PUSH3 0xCBC JUMPI JUMPDEST POP POP POP POP POP SWAP9 POP DUP8 DUP1 SLOAD DUP1 PUSH1 0x20 MUL PUSH1 0x20 ADD PUSH1 0x40 MLOAD SWAP1 DUP2 ADD PUSH1 0x40 MSTORE DUP1 SWAP3 SWAP2 SWAP1 DUP2 DUP2 MSTORE PUSH1 0x20 ADD DUP3 DUP1 SLOAD DUP1 ISZERO PUSH3 0xD91 JUMPI PUSH1 0x20 MUL DUP3 ADD SWAP2 SWAP1 PUSH1 0x0 MSTORE PUSH1 0x20 PUSH1 0x0 KECCAK256 SWAP1 JUMPDEST DUP2 PUSH1 0x0 SWAP1 SLOAD SWAP1 PUSH2 0x100 EXP SWAP1 DIV PUSH20 0xFFFFFFFFFFFFFFFFFFFFFFFFFFFFFFFFFFFFFFFF AND PUSH20 0xFFFFFFFFFFFFFFFFFFFFFFFFFFFFFFFFFFFFFFFF AND DUP2 MSTORE PUSH1 0x20 ADD SWAP1 PUSH1 0x1 ADD SWAP1 DUP1 DUP4 GT PUSH3 0xD46 JUMPI JUMPDEST POP POP POP POP POP SWAP8 POP DUP4 DUP1 SLOAD PUSH3 0xDA6 SWAP1 PUSH3 0x2E44 JUMP JUMPDEST DUP1 PUSH1 0x1F ADD PUSH1 0x20 DUP1 SWAP2 DIV MUL PUSH1 0x20 ADD PUSH1 0x40 MLOAD SWAP1 DUP2 ADD PUSH1 0x40 MSTORE DUP1 SWAP3 SWAP2 SWAP1 DUP2 DUP2 MSTORE PUSH1 0x20 ADD DUP3 DUP1 SLOAD PUSH3 0xDD4 SWAP1 PUSH3 0x2E44 JUMP JUMPDEST DUP1 ISZERO PUSH3 0xE25 JUMPI DUP1 PUSH1 0x1F LT PUSH3 0xDF9 JUMPI PUSH2 0x100 DUP1 DUP4 SLOAD DIV MUL DUP4 MSTORE SWAP2 PUSH1 0x20 ADD SWAP2 PUSH3 0xE25 JUMP JUMPDEST DUP3 ADD SWAP2 SWAP1 PUSH1 0x0 MSTORE PUSH1 0x20 PUSH1 0x0 KECCAK256 SWAP1 JUMPDEST DUP2 SLOAD DUP2 MSTORE SWAP1 PUSH1 0x1 ADD SWAP1 PUSH1 0x20 ADD DUP1 DUP4 GT PUSH3 0xE07 JUMPI DUP3 SWAP1 SUB PUSH1 0x1F AND DUP3 ADD SWAP2 JUMPDEST POP POP POP POP POP SWAP4 POP SWAP12 POP SWAP12 POP SWAP12 POP SWAP12 POP SWAP12 POP SWAP12 POP SWAP12 POP SWAP12 POP SWAP12 POP SWAP12 POP SWAP12 POP SWAP12 POP SWAP1 SWAP2 SWAP3 SWAP4 SWAP5 SWAP6 SWAP7 SWAP8 SWAP9 SWAP10 SWAP11 SWAP12 JUMP JUMPDEST PUSH1 0x4 PUSH1 0x0 SWAP1 SLOAD SWAP1 PUSH2 0x100 EXP SWAP1 DIV PUSH1 0xFF AND ISZERO PUSH3 0xEA5 JUMPI PUSH1 0x40 MLOAD PUSH32 0x8C379A000000000000000000000000000000000000000000000000000000000 DUP2 MSTORE PUSH1 0x4 ADD PUSH3 0xE9C SWAP1 PUSH3 0x2D0F JUMP JUMPDEST PUSH1 0x40 MLOAD DUP1 SWAP2 SUB SWAP1 REVERT JUMPDEST PUSH1 0x1 PUSH1 0x4 PUSH1 0x0 PUSH2 0x100 EXP DUP2 SLOAD DUP2 PUSH1 0xFF MUL NOT AND SWAP1 DUP4 ISZERO ISZERO MUL OR SWAP1 SSTORE POP PUSH1 0xE PUSH1 0x14 SWAP1 SLOAD SWAP1 PUSH2 0x100 EXP SWAP1 DIV PUSH1 0xFF AND ISZERO PUSH3 0xF13 JUMPI PUSH1 0x40 MLOAD PUSH32 0x8C379A000000000000000000000000000000000000000000000000000000000 DUP2 MSTORE PUSH1 0x4 ADD PUSH3 0xF0A SWAP1 PUSH3 0x2D81 JUMP JUMPDEST PUSH1 0x40 MLOAD DUP1 SWAP2 SUB SWAP1 REVERT JUMPDEST PUSH1 0x6 PUSH1 0x0 SWAP1 SLOAD SWAP1 PUSH2 0x100 EXP SWAP1 DIV PUSH1 0xFF AND ISZERO PUSH3 0xF66 JUMPI PUSH1 0x40 MLOAD PUSH32 0x8C379A000000000000000000000000000000000000000000000000000000000 DUP2 MSTORE PUSH1 0x4 ADD PUSH3 0xF5D SWAP1 PUSH3 0x2DF3 JUMP JUMPDEST PUSH1 0x40 MLOAD DUP1 SWAP2 SUB SWAP1 REVERT JUMPDEST PUSH1 0x8 PUSH1 0x0 CALLER PUSH20 0xFFFFFFFFFFFFFFFFFFFFFFFFFFFFFFFFFFFFFFFF AND PUSH20 0xFFFFFFFFFFFFFFFFFFFFFFFFFFFFFFFFFFFFFFFF AND DUP2 MSTORE PUSH1 0x20 ADD SWAP1 DUP2 MSTORE PUSH1 0x20 ADD PUSH1 0x0 KECCAK256 PUSH1 0x0 SWAP1 SLOAD SWAP1 PUSH2 0x100 EXP SWAP1 DIV PUSH1 0xFF AND PUSH3 0xFF5 JUMPI PUSH1 0x40 MLOAD PUSH32 0x8C379A000000000000000000000000000000000000000000000000000000000 DUP2 MSTORE PUSH1 0x4 ADD PUSH3 0xFEC SWAP1 PUSH3 0x3005 JUMP JUMPDEST PUSH1 0x40 MLOAD DUP1 SWAP2 SUB SWAP1 REVERT JUMPDEST PUSH1 0x0 PUSH1 0xD DUP3 DUP2 SLOAD DUP2 LT PUSH3 0x100E JUMPI PUSH3 0x100D PUSH3 0x3027 JUMP JUMPDEST JUMPDEST SWAP1 PUSH1 0x0 MSTORE PUSH1 0x20 PUSH1 0x0 KECCAK256 SWAP1 PUSH1 0x5 MUL ADD SWAP1 POP DUP1 PUSH1 0x2 ADD PUSH1 0x0 CALLER PUSH20 0xFFFFFFFFFFFFFFFFFFFFFFFFFFFFFFFFFFFFFFFF AND PUSH20 0xFFFFFFFFFFFFFFFFFFFFFFFFFFFFFFFFFFFFFFFF AND DUP2 MSTORE PUSH1 0x20 ADD SWAP1 DUP2 MSTORE PUSH1 0x20 ADD PUSH1 0x0 KECCAK256 PUSH1 0x0 SWAP1 SLOAD SWAP1 PUSH2 0x100 EXP SWAP1 DIV PUSH1 0xFF AND ISZERO PUSH3 0x10B0 JUMPI PUSH1 0x40 MLOAD PUSH32 0x8C379A000000000000000000000000000000000000000000000000000000000 DUP2 MSTORE PUSH1 0x4 ADD PUSH3 0x10A7 SWAP1 PUSH3 0x30CC JUMP JUMPDEST PUSH1 0x40 MLOAD DUP1 SWAP2 SUB SWAP1 REVERT JUMPDEST DUP1 PUSH1 0x4 ADD PUSH1 0x0 SWAP1 SLOAD SWAP1 PUSH2 0x100 EXP SWAP1 DIV PUSH1 0xFF AND ISZERO PUSH3 0x1105 JUMPI PUSH1 0x40 MLOAD PUSH32 0x8C379A000000000000000000000000000000000000000000000000000000000 DUP2 MSTORE PUSH1 0x4 ADD PUSH3 0x10FC SWAP1 PUSH3 0x3164 JUMP JUMPDEST PUSH1 0x40 MLOAD DUP1 SWAP2 SUB SWAP1 REVERT JUMPDEST PUSH1 0x1 DUP2 PUSH1 0x2 ADD PUSH1 0x0 CALLER PUSH20 0xFFFFFFFFFFFFFFFFFFFFFFFFFFFFFFFFFFFFFFFF AND PUSH20 0xFFFFFFFFFFFFFFFFFFFFFFFFFFFFFFFFFFFFFFFF AND DUP2 MSTORE PUSH1 0x20 ADD SWAP1 DUP2 MSTORE PUSH1 0x20 ADD PUSH1 0x0 KECCAK256 PUSH1 0x0 PUSH2 0x100 EXP DUP2 SLOAD DUP2 PUSH1 0xFF MUL NOT AND SWAP1 DUP4 ISZERO ISZERO MUL OR SWAP1 SSTORE POP PUSH1 0x1 DUP2 PUSH1 0x3 ADD SLOAD PUSH3 0x1172 SWAP2 SWAP1 PUSH3 0x3186 JUMP JUMPDEST DUP2 PUSH1 0x3 ADD DUP2 SWAP1 SSTORE POP PUSH1 0x2 PUSH1 0x9 DUP1 SLOAD SWAP1 POP PUSH3 0x118E SWAP2 SWAP1 PUSH3 0x3212 JUMP JUMPDEST DUP2 PUSH1 0x3 ADD SLOAD GT ISZERO PUSH3 0x142A JUMPI PUSH1 0x1 DUP2 PUSH1 0x4 ADD PUSH1 0x0 PUSH2 0x100 EXP DUP2 SLOAD DUP2 PUSH1 0xFF MUL NOT AND SWAP1 DUP4 ISZERO ISZERO MUL OR SWAP1 SSTORE POP DUP1 PUSH1 0x1 ADD PUSH1 0x0 SWAP1 SLOAD SWAP1 PUSH2 0x100 EXP SWAP1 DIV PUSH20 0xFFFFFFFFFFFFFFFFFFFFFFFFFFFFFFFFFFFFFFFF AND PUSH1 0xE PUSH1 0x0 PUSH2 0x100 EXP DUP2 SLOAD DUP2 PUSH20 0xFFFFFFFFFFFFFFFFFFFFFFFFFFFFFFFFFFFFFFFF MUL NOT AND SWAP1 DUP4 PUSH20 0xFFFFFFFFFFFFFFFFFFFFFFFFFFFFFFFFFFFFFFFF AND MUL OR SWAP1 SSTORE POP PUSH1 0x1 PUSH1 0xE PUSH1 0x14 PUSH2 0x100 EXP DUP2 SLOAD DUP2 PUSH1 0xFF MUL NOT AND SWAP1 DUP4 ISZERO ISZERO MUL OR SWAP1 SSTORE POP PUSH1 0x0 PUSH1 0x9 DUP1 SLOAD SWAP1 POP DUP3 PUSH1 0x0 ADD SLOAD PUSH3 0x1250 SWAP2 SWAP1 PUSH3 0x3212 JUMP JUMPDEST SWAP1 POP PUSH1 0x0 JUMPDEST PUSH1 0x9 DUP1 SLOAD SWAP1 POP DUP2 LT ISZERO PUSH3 0x1302 JUMPI PUSH1 0x9 DUP2 DUP2 SLOAD DUP2 LT PUSH3 0x127A JUMPI PUSH3 0x1279 PUSH3 0x3027 JUMP JUMPDEST JUMPDEST SWAP1 PUSH1 0x0 MSTORE PUSH1 0x20 PUSH1 0x0 KECCAK256 ADD PUSH1 0x0 SWAP1 SLOAD SWAP1 PUSH2 0x100 EXP SWAP1 DIV PUSH20 0xFFFFFFFFFFFFFFFFFFFFFFFFFFFFFFFFFFFFFFFF AND PUSH20 0xFFFFFFFFFFFFFFFFFFFFFFFFFFFFFFFFFFFFFFFF AND PUSH2 0x8FC DUP4 SWAP1 DUP2 ISZERO MUL SWAP1 PUSH1 0x40 MLOAD PUSH1 0x0 PUSH1 0x40 MLOAD DUP1 DUP4 SUB DUP2 DUP6 DUP9 DUP9 CALL SWAP4 POP POP POP POP ISZERO DUP1 ISZERO PUSH3 0x12EB JUMPI RETURNDATASIZE PUSH1 0x0 DUP1 RETURNDATACOPY RETURNDATASIZE PUSH1 0x0 REVERT JUMPDEST POP DUP1 DUP1 PUSH3 0x12F9 SWAP1 PUSH3 0x2F41 JUMP JUMPDEST SWAP2 POP POP PUSH3 0x1255 JUMP JUMPDEST PUSH1 0x0 SWAP1 POP JUMPDEST PUSH1 0xD DUP1 SLOAD SWAP1 POP DUP2 LT ISZERO PUSH3 0x1427 JUMPI PUSH1 0x0 ISZERO ISZERO PUSH1 0xD DUP3 DUP2 SLOAD DUP2 LT PUSH3 0x1330 JUMPI PUSH3 0x132F PUSH3 0x3027 JUMP JUMPDEST JUMPDEST SWAP1 PUSH1 0x0 MSTORE PUSH1 0x20 PUSH1 0x0 KECCAK256 SWAP1 PUSH1 0x5 MUL ADD PUSH1 0x4 ADD PUSH1 0x0 SWAP1 SLOAD SWAP1 PUSH2 0x100 EXP SWAP1 DIV PUSH1 0xFF AND ISZERO ISZERO EQ ISZERO PUSH3 0x1411 JUMPI PUSH1 0xD DUP2 DUP2 SLOAD DUP2 LT PUSH3 0x136F JUMPI PUSH3 0x136E PUSH3 0x3027 JUMP JUMPDEST JUMPDEST SWAP1 PUSH1 0x0 MSTORE PUSH1 0x20 PUSH1 0x0 KECCAK256 SWAP1 PUSH1 0x5 MUL ADD PUSH1 0x1 ADD PUSH1 0x0 SWAP1 SLOAD SWAP1 PUSH2 0x100 EXP SWAP1 DIV PUSH20 0xFFFFFFFFFFFFFFFFFFFFFFFFFFFFFFFFFFFFFFFF AND PUSH20 0xFFFFFFFFFFFFFFFFFFFFFFFFFFFFFFFFFFFFFFFF AND PUSH2 0x8FC PUSH1 0xD DUP4 DUP2 SLOAD DUP2 LT PUSH3 0x13D1 JUMPI PUSH3 0x13D0 PUSH3 0x3027 JUMP JUMPDEST JUMPDEST SWAP1 PUSH1 0x0 MSTORE PUSH1 0x20 PUSH1 0x0 KECCAK256 SWAP1 PUSH1 0x5 MUL ADD PUSH1 0x0 ADD SLOAD SWAP1 DUP2 ISZERO MUL SWAP1 PUSH1 0x40 MLOAD PUSH1 0x0 PUSH1 0x40 MLOAD DUP1 DUP4 SUB DUP2 DUP6 DUP9 DUP9 CALL SWAP4 POP POP POP POP ISZERO DUP1 ISZERO PUSH3 0x140F JUMPI RETURNDATASIZE PUSH1 0x0 DUP1 RETURNDATACOPY RETURNDATASIZE PUSH1 0x0 REVERT JUMPDEST POP JUMPDEST DUP1 DUP1 PUSH3 0x141E SWAP1 PUSH3 0x2F41 JUMP JUMPDEST SWAP2 POP POP PUSH3 0x1307 JUMP JUMPDEST POP POP JUMPDEST POP PUSH1 0x0 PUSH1 0x4 PUSH1 0x0 PUSH2 0x100 EXP DUP2 SLOAD DUP2 PUSH1 0xFF MUL NOT AND SWAP1 DUP4 ISZERO ISZERO MUL OR SWAP1 SSTORE POP POP JUMP JUMPDEST PUSH1 0x0 DUP1 SLOAD PUSH3 0x1458 SWAP1 PUSH3 0x2E44 JUMP JUMPDEST DUP1 PUSH1 0x1F ADD PUSH1 0x20 DUP1 SWAP2 DIV MUL PUSH1 0x20 ADD PUSH1 0x40 MLOAD SWAP1 DUP2 ADD PUSH1 0x40 MSTORE DUP1 SWAP3 SWAP2 SWAP1 DUP2 DUP2 MSTORE PUSH1 0x20 ADD DUP3 DUP1 SLOAD PUSH3 0x1486 SWAP1 PUSH3 0x2E44 JUMP JUMPDEST DUP1 ISZERO PUSH3 0x14D7 JUMPI DUP1 PUSH1 0x1F LT PUSH3 0x14AB JUMPI PUSH2 0x100 DUP1 DUP4 SLOAD DIV MUL DUP4 MSTORE SWAP2 PUSH1 0x20 ADD SWAP2 PUSH3 0x14D7 JUMP JUMPDEST DUP3 ADD SWAP2 SWAP1 PUSH1 0x0 MSTORE PUSH1 0x20 PUSH1 0x0 KECCAK256 SWAP1 JUMPDEST DUP2 SLOAD DUP2 MSTORE SWAP1 PUSH1 0x1 ADD SWAP1 PUSH1 0x20 ADD DUP1 DUP4 GT PUSH3 0x14B9 JUMPI DUP3 SWAP1 SUB PUSH1 0x1F AND DUP3 ADD SWAP2 JUMPDEST POP POP POP POP POP DUP2 JUMP JUMPDEST PUSH1 0x6 PUSH1 0x0 SWAP1 SLOAD SWAP1 PUSH2 0x100 EXP SWAP1 DIV PUSH1 0xFF AND DUP2 JUMP JUMPDEST PUSH1 0xD DUP2 DUP2 SLOAD DUP2 LT PUSH3 0x1503 JUMPI PUSH1 0x0 DUP1 REVERT JUMPDEST SWAP1 PUSH1 0x0 MSTORE PUSH1 0x20 PUSH1 0x0 KECCAK256 SWAP1 PUSH1 0x5 MUL ADD PUSH1 0x0 SWAP2 POP SWAP1 POP DUP1 PUSH1 0x0 ADD SLOAD SWAP1 DUP1 PUSH1 0x1 ADD PUSH1 0x0 SWAP1 SLOAD SWAP1 PUSH2 0x100 EXP SWAP1 DIV PUSH20 0xFFFFFFFFFFFFFFFFFFFFFFFFFFFFFFFFFFFFFFFF AND SWAP1 DUP1 PUSH1 0x3 ADD SLOAD SWAP1 DUP1 PUSH1 0x4 ADD PUSH1 0x0 SWAP1 SLOAD SWAP1 PUSH2 0x100 EXP SWAP1 DIV PUSH1 0xFF AND SWAP1 POP DUP5 JUMP JUMPDEST PUSH1 0xC DUP2 DUP2 SLOAD DUP2 LT PUSH3 0x1571 JUMPI PUSH1 0x0 DUP1 REVERT JUMPDEST SWAP1 PUSH1 0x0 MSTORE PUSH1 0x20 PUSH1 0x0 KECCAK256 SWAP1 PUSH1 0x5 MUL ADD PUSH1 0x0 SWAP2 POP SWAP1 POP DUP1 PUSH1 0x0 ADD DUP1 SLOAD PUSH3 0x1596 SWAP1 PUSH3 0x2E44 JUMP JUMPDEST DUP1 PUSH1 0x1F ADD PUSH1 0x20 DUP1 SWAP2 DIV MUL PUSH1 0x20 ADD PUSH1 0x40 MLOAD SWAP1 DUP2 ADD PUSH1 0x40 MSTORE DUP1 SWAP3 SWAP2 SWAP1 DUP2 DUP2 MSTORE PUSH1 0x20 ADD DUP3 DUP1 SLOAD PUSH3 0x15C4 SWAP1 PUSH3 0x2E44 JUMP JUMPDEST DUP1 ISZERO PUSH3 0x1615 JUMPI DUP1 PUSH1 0x1F LT PUSH3 0x15E9 JUMPI PUSH2 0x100 DUP1 DUP4 SLOAD DIV MUL DUP4 MSTORE SWAP2 PUSH1 0x20 ADD SWAP2 PUSH3 0x1615 JUMP JUMPDEST DUP3 ADD SWAP2 SWAP1 PUSH1 0x0 MSTORE PUSH1 0x20 PUSH1 0x0 KECCAK256 SWAP1 JUMPDEST DUP2 SLOAD DUP2 MSTORE SWAP1 PUSH1 0x1 ADD SWAP1 PUSH1 0x20 ADD DUP1 DUP4 GT PUSH3 0x15F7 JUMPI DUP3 SWAP1 SUB PUSH1 0x1F AND DUP3 ADD SWAP2 JUMPDEST POP POP POP POP POP SWAP1 DUP1 PUSH1 0x1 ADD PUSH1 0x0 SWAP1 SLOAD SWAP1 PUSH2 0x100 EXP SWAP1 DIV PUSH20 0xFFFFFFFFFFFFFFFFFFFFFFFFFFFFFFFFFFFFFFFF AND SWAP1 DUP1 PUSH1 0x3 ADD SLOAD SWAP1 DUP1 PUSH1 0x4 ADD PUSH1 0x0 SWAP1 SLOAD SWAP1 PUSH2 0x100 EXP SWAP1 DIV PUSH1 0xFF AND SWAP1 POP DUP5 JUMP JUMPDEST PUSH1 0xA PUSH1 0x20 MSTORE DUP1 PUSH1 0x0 MSTORE PUSH1 0x40 PUSH1 0x0 KECCAK256 PUSH1 0x0 SWAP2 POP SLOAD SWAP1 PUSH2 0x100 EXP SWAP1 DIV PUSH1 0xFF AND DUP2 JUMP JUMPDEST PUSH1 0xE PUSH1 0x0 SWAP1 SLOAD SWAP1 PUSH2 0x100 EXP SWAP1 DIV PUSH20 0xFFFFFFFFFFFFFFFFFFFFFFFFFFFFFFFFFFFFFFFF AND DUP2 JUMP JUMPDEST PUSH1 0x4 PUSH1 0x0 SWAP1 SLOAD SWAP1 PUSH2 0x100 EXP SWAP1 DIV PUSH1 0xFF AND ISZERO PUSH3 0x16F7 JUMPI PUSH1 0x40 MLOAD PUSH32 0x8C379A000000000000000000000000000000000000000000000000000000000 DUP2 MSTORE PUSH1 0x4 ADD PUSH3 0x16EE SWAP1 PUSH3 0x2D0F JUMP JUMPDEST PUSH1 0x40 MLOAD DUP1 SWAP2 SUB SWAP1 REVERT JUMPDEST PUSH1 0x1 PUSH1 0x4 PUSH1 0x0 PUSH2 0x100 EXP DUP2 SLOAD DUP2 PUSH1 0xFF MUL NOT AND SWAP1 DUP4 ISZERO ISZERO MUL OR SWAP1 SSTORE POP PUSH1 0xE PUSH1 0x14 SWAP1 SLOAD SWAP1 PUSH2 0x100 EXP SWAP1 DIV PUSH1 0xFF AND ISZERO PUSH3 0x1765 JUMPI PUSH1 0x40 MLOAD PUSH32 0x8C379A000000000000000000000000000000000000000000000000000000000 DUP2 MSTORE PUSH1 0x4 ADD PUSH3 0x175C SWAP1 PUSH3 0x2D81 JUMP JUMPDEST PUSH1 0x40 MLOAD DUP1 SWAP2 SUB SWAP1 REVERT JUMPDEST PUSH1 0x6 PUSH1 0x0 SWAP1 SLOAD SWAP1 PUSH2 0x100 EXP SWAP1 DIV PUSH1 0xFF AND ISZERO PUSH3 0x17B8 JUMPI PUSH1 0x40 MLOAD PUSH32 0x8C379A000000000000000000000000000000000000000000000000000000000 DUP2 MSTORE PUSH1 0x4 ADD PUSH3 0x17AF SWAP1 PUSH3 0x2DF3 JUMP JUMPDEST PUSH1 0x40 MLOAD DUP1 SWAP2 SUB SWAP1 REVERT JUMPDEST PUSH1 0x8 PUSH1 0x0 CALLER PUSH20 0xFFFFFFFFFFFFFFFFFFFFFFFFFFFFFFFFFFFFFFFF AND PUSH20 0xFFFFFFFFFFFFFFFFFFFFFFFFFFFFFFFFFFFFFFFF AND DUP2 MSTORE PUSH1 0x20 ADD SWAP1 DUP2 MSTORE PUSH1 0x20 ADD PUSH1 0x0 KECCAK256 PUSH1 0x0 SWAP1 SLOAD SWAP1 PUSH2 0x100 EXP SWAP1 DIV PUSH1 0xFF AND PUSH3 0x1847 JUMPI PUSH1 0x40 MLOAD PUSH32 0x8C379A000000000000000000000000000000000000000000000000000000000 DUP2 MSTORE PUSH1 0x4 ADD PUSH3 0x183E SWAP1 PUSH3 0x3005 JUMP JUMPDEST PUSH1 0x40 MLOAD DUP1 SWAP2 SUB SWAP1 REVERT JUMPDEST PUSH1 0x0 PUSH1 0xC DUP3 DUP2 SLOAD DUP2 LT PUSH3 0x1860 JUMPI PUSH3 0x185F PUSH3 0x3027 JUMP JUMPDEST JUMPDEST SWAP1 PUSH1 0x0 MSTORE PUSH1 0x20 PUSH1 0x0 KECCAK256 SWAP1 PUSH1 0x5 MUL ADD SWAP1 POP DUP1 PUSH1 0x2 ADD PUSH1 0x0 CALLER PUSH20 0xFFFFFFFFFFFFFFFFFFFFFFFFFFFFFFFFFFFFFFFF AND PUSH20 0xFFFFFFFFFFFFFFFFFFFFFFFFFFFFFFFFFFFFFFFF AND DUP2 MSTORE PUSH1 0x20 ADD SWAP1 DUP2 MSTORE PUSH1 0x20 ADD PUSH1 0x0 KECCAK256 PUSH1 0x0 SWAP1 SLOAD SWAP1 PUSH2 0x100 EXP SWAP1 DIV PUSH1 0xFF AND ISZERO PUSH3 0x1902 JUMPI PUSH1 0x40 MLOAD PUSH32 0x8C379A000000000000000000000000000000000000000000000000000000000 DUP2 MSTORE PUSH1 0x4 ADD PUSH3 0x18F9 SWAP1 PUSH3 0x30CC JUMP JUMPDEST PUSH1 0x40 MLOAD DUP1 SWAP2 SUB SWAP1 REVERT JUMPDEST DUP1 PUSH1 0x4 ADD PUSH1 0x0 SWAP1 SLOAD SWAP1 PUSH2 0x100 EXP SWAP1 DIV PUSH1 0xFF AND ISZERO PUSH3 0x1957 JUMPI PUSH1 0x40 MLOAD PUSH32 0x8C379A000000000000000000000000000000000000000000000000000000000 DUP2 MSTORE PUSH1 0x4 ADD PUSH3 0x194E SWAP1 PUSH3 0x3164 JUMP JUMPDEST PUSH1 0x40 MLOAD DUP1 SWAP2 SUB SWAP1 REVERT JUMPDEST PUSH1 0x1 DUP2 PUSH1 0x2 ADD PUSH1 0x0 CALLER PUSH20 0xFFFFFFFFFFFFFFFFFFFFFFFFFFFFFFFFFFFFFFFF AND PUSH20 0xFFFFFFFFFFFFFFFFFFFFFFFFFFFFFFFFFFFFFFFF AND DUP2 MSTORE PUSH1 0x20 ADD SWAP1 DUP2 MSTORE PUSH1 0x20 ADD PUSH1 0x0 KECCAK256 PUSH1 0x0 PUSH2 0x100 EXP DUP2 SLOAD DUP2 PUSH1 0xFF MUL NOT AND SWAP1 DUP4 ISZERO ISZERO MUL OR SWAP1 SSTORE POP PUSH1 0x1 DUP2 PUSH1 0x3 ADD SLOAD PUSH3 0x19C4 SWAP2 SWAP1 PUSH3 0x3186 JUMP JUMPDEST DUP2 PUSH1 0x3 ADD DUP2 SWAP1 SSTORE POP PUSH1 0x2 PUSH1 0x9 DUP1 SLOAD SWAP1 POP PUSH3 0x19E0 SWAP2 SWAP1 PUSH3 0x3212 JUMP JUMPDEST DUP2 PUSH1 0x3 ADD SLOAD GT ISZERO PUSH3 0x1B0D JUMPI PUSH1 0x1 PUSH1 0x8 PUSH1 0x0 DUP4 PUSH1 0x1 ADD PUSH1 0x0 SWAP1 SLOAD SWAP1 PUSH2 0x100 EXP SWAP1 DIV PUSH20 0xFFFFFFFFFFFFFFFFFFFFFFFFFFFFFFFFFFFFFFFF AND PUSH20 0xFFFFFFFFFFFFFFFFFFFFFFFFFFFFFFFFFFFFFFFF AND PUSH20 0xFFFFFFFFFFFFFFFFFFFFFFFFFFFFFFFFFFFFFFFF AND DUP2 MSTORE PUSH1 0x20 ADD SWAP1 DUP2 MSTORE PUSH1 0x20 ADD PUSH1 0x0 KECCAK256 PUSH1 0x0 PUSH2 0x100 EXP DUP2 SLOAD DUP2 PUSH1 0xFF MUL NOT AND SWAP1 DUP4 ISZERO ISZERO MUL OR SWAP1 SSTORE POP PUSH1 0x9 DUP2 PUSH1 0x1 ADD PUSH1 0x0 SWAP1 SLOAD SWAP1 PUSH2 0x100 EXP SWAP1 DIV PUSH20 0xFFFFFFFFFFFFFFFFFFFFFFFFFFFFFFFFFFFFFFFF AND SWAP1 DUP1 PUSH1 0x1 DUP2 SLOAD ADD DUP1 DUP3 SSTORE DUP1 SWAP2 POP POP PUSH1 0x1 SWAP1 SUB SWAP1 PUSH1 0x0 MSTORE PUSH1 0x20 PUSH1 0x0 KECCAK256 ADD PUSH1 0x0 SWAP1 SWAP2 SWAP1 SWAP2 SWAP1 SWAP2 PUSH2 0x100 EXP DUP2 SLOAD DUP2 PUSH20 0xFFFFFFFFFFFFFFFFFFFFFFFFFFFFFFFFFFFFFFFF MUL NOT AND SWAP1 DUP4 PUSH20 0xFFFFFFFFFFFFFFFFFFFFFFFFFFFFFFFFFFFFFFFF AND MUL OR SWAP1 SSTORE POP PUSH1 0x1 DUP2 PUSH1 0x4 ADD PUSH1 0x0 PUSH2 0x100 EXP DUP2 SLOAD DUP2 PUSH1 0xFF MUL NOT AND SWAP1 DUP4 ISZERO ISZERO MUL OR SWAP1 SSTORE POP JUMPDEST POP PUSH1 0x0 PUSH1 0x4 PUSH1 0x0 PUSH2 0x100 EXP DUP2 SLOAD DUP2 PUSH1 0xFF MUL NOT AND SWAP1 DUP4 ISZERO ISZERO MUL OR SWAP1 SSTORE POP POP JUMP JUMPDEST PUSH1 0x4 PUSH1 0x0 SWAP1 SLOAD SWAP1 PUSH2 0x100 EXP SWAP1 DIV PUSH1 0xFF AND ISZERO PUSH3 0x1B7F JUMPI PUSH1 0x40 MLOAD PUSH32 0x8C379A000000000000000000000000000000000000000000000000000000000 DUP2 MSTORE PUSH1 0x4 ADD PUSH3 0x1B76 SWAP1 PUSH3 0x2D0F JUMP JUMPDEST PUSH1 0x40 MLOAD DUP1 SWAP2 SUB SWAP1 REVERT JUMPDEST PUSH1 0x1 PUSH1 0x4 PUSH1 0x0 PUSH2 0x100 EXP DUP2 SLOAD DUP2 PUSH1 0xFF MUL NOT AND SWAP1 DUP4 ISZERO ISZERO MUL OR SWAP1 SSTORE POP PUSH1 0xE PUSH1 0x14 SWAP1 SLOAD SWAP1 PUSH2 0x100 EXP SWAP1 DIV PUSH1 0xFF AND ISZERO PUSH3 0x1BED JUMPI PUSH1 0x40 MLOAD PUSH32 0x8C379A000000000000000000000000000000000000000000000000000000000 DUP2 MSTORE PUSH1 0x4 ADD PUSH3 0x1BE4 SWAP1 PUSH3 0x2D81 JUMP JUMPDEST PUSH1 0x40 MLOAD DUP1 SWAP2 SUB SWAP1 REVERT JUMPDEST PUSH1 0x6 PUSH1 0x0 SWAP1 SLOAD SWAP1 PUSH2 0x100 EXP SWAP1 DIV PUSH1 0xFF AND ISZERO PUSH3 0x1C40 JUMPI PUSH1 0x40 MLOAD PUSH32 0x8C379A000000000000000000000000000000000000000000000000000000000 DUP2 MSTORE PUSH1 0x4 ADD PUSH3 0x1C37 SWAP1 PUSH3 0x2DF3 JUMP JUMPDEST PUSH1 0x40 MLOAD DUP1 SWAP2 SUB SWAP1 REVERT JUMPDEST PUSH1 0x8 PUSH1 0x0 CALLER PUSH20 0xFFFFFFFFFFFFFFFFFFFFFFFFFFFFFFFFFFFFFFFF AND PUSH20 0xFFFFFFFFFFFFFFFFFFFFFFFFFFFFFFFFFFFFFFFF AND DUP2 MSTORE PUSH1 0x20 ADD SWAP1 DUP2 MSTORE PUSH1 0x20 ADD PUSH1 0x0 KECCAK256 PUSH1 0x0 SWAP1 SLOAD SWAP1 PUSH2 0x100 EXP SWAP1 DIV PUSH1 0xFF AND PUSH3 0x1CCF JUMPI PUSH1 0x40 MLOAD PUSH32 0x8C379A000000000000000000000000000000000000000000000000000000000 DUP2 MSTORE PUSH1 0x4 ADD PUSH3 0x1CC6 SWAP1 PUSH3 0x32C0 JUMP JUMPDEST PUSH1 0x40 MLOAD DUP1 SWAP2 SUB SWAP1 REVERT JUMPDEST PUSH1 0xA PUSH1 0x0 DUP4 PUSH20 0xFFFFFFFFFFFFFFFFFFFFFFFFFFFFFFFFFFFFFFFF AND PUSH20 0xFFFFFFFFFFFFFFFFFFFFFFFFFFFFFFFFFFFFFFFF AND DUP2 MSTORE PUSH1 0x20 ADD SWAP1 DUP2 MSTORE PUSH1 0x20 ADD PUSH1 0x0 KECCAK256 PUSH1 0x0 SWAP1 SLOAD SWAP1 PUSH2 0x100 EXP SWAP1 DIV PUSH1 0xFF AND DUP1 PUSH3 0x1D54 JUMPI POP PUSH1 0x0 PUSH20 0xFFFFFFFFFFFFFFFFFFFFFFFFFFFFFFFFFFFFFFFF AND DUP3 PUSH20 0xFFFFFFFFFFFFFFFFFFFFFFFFFFFFFFFFFFFFFFFF AND EQ JUMPDEST PUSH3 0x1D96 JUMPI PUSH1 0x40 MLOAD PUSH32 0x8C379A000000000000000000000000000000000000000000000000000000000 DUP2 MSTORE PUSH1 0x4 ADD PUSH3 0x1D8D SWAP1 PUSH3 0x3358 JUMP JUMPDEST PUSH1 0x40 MLOAD DUP1 SWAP2 SUB SWAP1 REVERT JUMPDEST PUSH1 0xA PUSH1 0x0 DUP3 PUSH20 0xFFFFFFFFFFFFFFFFFFFFFFFFFFFFFFFFFFFFFFFF AND PUSH20 0xFFFFFFFFFFFFFFFFFFFFFFFFFFFFFFFFFFFFFFFF AND DUP2 MSTORE PUSH1 0x20 ADD SWAP1 DUP2 MSTORE PUSH1 0x20 ADD PUSH1 0x0 KECCAK256 PUSH1 0x0 SWAP1 SLOAD SWAP1 PUSH2 0x100 EXP SWAP1 DIV PUSH1 0xFF AND DUP1 PUSH3 0x1E1B JUMPI POP PUSH1 0x0 PUSH20 0xFFFFFFFFFFFFFFFFFFFFFFFFFFFFFFFFFFFFFFFF AND DUP2 PUSH20 0xFFFFFFFFFFFFFFFFFFFFFFFFFFFFFFFFFFFFFFFF AND EQ JUMPDEST PUSH3 0x1E5D JUMPI PUSH1 0x40 MLOAD PUSH32 0x8C379A000000000000000000000000000000000000000000000000000000000 DUP2 MSTORE PUSH1 0x4 ADD PUSH3 0x1E54 SWAP1 PUSH3 0x33F0 JUMP JUMPDEST PUSH1 0x40 MLOAD DUP1 SWAP2 SUB SWAP1 REVERT JUMPDEST PUSH1 0x0 CALLER ADDRESS DUP7 DUP7 DUP7 DUP7 PUSH1 0x40 MLOAD PUSH3 0x1E73 SWAP1 PUSH3 0x24CE JUMP JUMPDEST PUSH3 0x1E84 SWAP7 SWAP6 SWAP5 SWAP4 SWAP3 SWAP2 SWAP1 PUSH3 0x3412 JUMP JUMPDEST PUSH1 0x40 MLOAD DUP1 SWAP2 SUB SWAP1 PUSH1 0x0 CREATE DUP1 ISZERO DUP1 ISZERO PUSH3 0x1EA1 JUMPI RETURNDATASIZE PUSH1 0x0 DUP1 RETURNDATACOPY RETURNDATASIZE PUSH1 0x0 REVERT JUMPDEST POP SWAP1 POP PUSH1 0x0 PUSH20 0xFFFFFFFFFFFFFFFFFFFFFFFFFFFFFFFFFFFFFFFF AND DUP4 PUSH20 0xFFFFFFFFFFFFFFFFFFFFFFFFFFFFFFFFFFFFFFFF AND EQ PUSH3 0x1F4F JUMPI PUSH1 0x0 DUP4 SWAP1 POP DUP1 PUSH20 0xFFFFFFFFFFFFFFFFFFFFFFFFFFFFFFFFFFFFFFFF AND PUSH4 0x988E46C8 DUP4 PUSH1 0x40 MLOAD DUP3 PUSH4 0xFFFFFFFF AND PUSH1 0xE0 SHL DUP2 MSTORE PUSH1 0x4 ADD PUSH3 0x1F19 SWAP2 SWAP1 PUSH3 0x2A33 JUMP JUMPDEST PUSH1 0x0 PUSH1 0x40 MLOAD DUP1 DUP4 SUB DUP2 PUSH1 0x0 DUP8 DUP1 EXTCODESIZE ISZERO DUP1 ISZERO PUSH3 0x1F34 JUMPI PUSH1 0x0 DUP1 REVERT JUMPDEST POP GAS CALL ISZERO DUP1 ISZERO PUSH3 0x1F49 JUMPI RETURNDATASIZE PUSH1 0x0 DUP1 RETURNDATACOPY RETURNDATASIZE PUSH1 0x0 REVERT JUMPDEST POP POP POP POP POP JUMPDEST PUSH1 0x0 PUSH20 0xFFFFFFFFFFFFFFFFFFFFFFFFFFFFFFFFFFFFFFFF AND DUP3 PUSH20 0xFFFFFFFFFFFFFFFFFFFFFFFFFFFFFFFFFFFFFFFF AND EQ PUSH3 0x1FFA JUMPI PUSH1 0x0 DUP3 SWAP1 POP DUP1 PUSH20 0xFFFFFFFFFFFFFFFFFFFFFFFFFFFFFFFFFFFFFFFF AND PUSH4 0x8758CE83 DUP4 PUSH1 0x40 MLOAD DUP3 PUSH4 0xFFFFFFFF AND PUSH1 0xE0 SHL DUP2 MSTORE PUSH1 0x4 ADD PUSH3 0x1FC4 SWAP2 SWAP1 PUSH3 0x2A33 JUMP JUMPDEST PUSH1 0x0 PUSH1 0x40 MLOAD DUP1 DUP4 SUB DUP2 PUSH1 0x0 DUP8 DUP1 EXTCODESIZE ISZERO DUP1 ISZERO PUSH3 0x1FDF JUMPI PUSH1 0x0 DUP1 REVERT JUMPDEST POP GAS CALL ISZERO DUP1 ISZERO PUSH3 0x1FF4 JUMPI RETURNDATASIZE PUSH1 0x0 DUP1 RETURNDATACOPY RETURNDATASIZE PUSH1 0x0 REVERT JUMPDEST POP POP POP POP POP JUMPDEST PUSH1 0xB DUP2 SWAP1 DUP1 PUSH1 0x1 DUP2 SLOAD ADD DUP1 DUP3 SSTORE DUP1 SWAP2 POP POP PUSH1 0x1 SWAP1 SUB SWAP1 PUSH1 0x0 MSTORE PUSH1 0x20 PUSH1 0x0 KECCAK256 ADD PUSH1 0x0 SWAP1 SWAP2 SWAP1 SWAP2 SWAP1 SWAP2 PUSH2 0x100 EXP DUP2 SLOAD DUP2 PUSH20 0xFFFFFFFFFFFFFFFFFFFFFFFFFFFFFFFFFFFFFFFF MUL NOT AND SWAP1 DUP4 PUSH20 0xFFFFFFFFFFFFFFFFFFFFFFFFFFFFFFFFFFFFFFFF AND MUL OR SWAP1 SSTORE POP PUSH1 0x1 PUSH1 0xA PUSH1 0x0 DUP4 PUSH20 0xFFFFFFFFFFFFFFFFFFFFFFFFFFFFFFFFFFFFFFFF AND PUSH20 0xFFFFFFFFFFFFFFFFFFFFFFFFFFFFFFFFFFFFFFFF AND DUP2 MSTORE PUSH1 0x20 ADD SWAP1 DUP2 MSTORE PUSH1 0x20 ADD PUSH1 0x0 KECCAK256 PUSH1 0x0 PUSH2 0x100 EXP DUP2 SLOAD DUP2 PUSH1 0xFF MUL NOT AND SWAP1 DUP4 ISZERO ISZERO MUL OR SWAP1 SSTORE POP POP PUSH1 0x0 PUSH1 0x4 PUSH1 0x0 PUSH2 0x100 EXP DUP2 SLOAD DUP2 PUSH1 0xFF MUL NOT AND SWAP1 DUP4 ISZERO ISZERO MUL OR SWAP1 SSTORE POP POP POP POP POP JUMP JUMPDEST PUSH1 0x9 DUP2 DUP2 SLOAD DUP2 LT PUSH3 0x20E8 JUMPI PUSH1 0x0 DUP1 REVERT JUMPDEST SWAP1 PUSH1 0x0 MSTORE PUSH1 0x20 PUSH1 0x0 KECCAK256 ADD PUSH1 0x0 SWAP2 POP SLOAD SWAP1 PUSH2 0x100 EXP SWAP1 DIV PUSH20 0xFFFFFFFFFFFFFFFFFFFFFFFFFFFFFFFFFFFFFFFF AND DUP2 JUMP JUMPDEST PUSH1 0xB DUP2 DUP2 SLOAD DUP2 LT PUSH3 0x2128 JUMPI PUSH1 0x0 DUP1 REVERT JUMPDEST SWAP1 PUSH1 0x0 MSTORE PUSH1 0x20 PUSH1 0x0 KECCAK256 ADD PUSH1 0x0 SWAP2 POP SLOAD SWAP1 PUSH2 0x100 EXP SWAP1 DIV PUSH20 0xFFFFFFFFFFFFFFFFFFFFFFFFFFFFFFFFFFFFFFFF AND DUP2 JUMP JUMPDEST PUSH1 0x3 DUP1 SLOAD PUSH3 0x2166 SWAP1 PUSH3 0x2E44 JUMP JUMPDEST DUP1 PUSH1 0x1F ADD PUSH1 0x20 DUP1 SWAP2 DIV MUL PUSH1 0x20 ADD PUSH1 0x40 MLOAD SWAP1 DUP2 ADD PUSH1 0x40 MSTORE DUP1 SWAP3 SWAP2 SWAP1 DUP2 DUP2 MSTORE PUSH1 0x20 ADD DUP3 DUP1 SLOAD PUSH3 0x2194 SWAP1 PUSH3 0x2E44 JUMP JUMPDEST DUP1 ISZERO PUSH3 0x21E5 JUMPI DUP1 PUSH1 0x1F LT PUSH3 0x21B9 JUMPI PUSH2 0x100 DUP1 DUP4 SLOAD DIV MUL DUP4 MSTORE SWAP2 PUSH1 0x20 ADD SWAP2 PUSH3 0x21E5 JUMP JUMPDEST DUP3 ADD SWAP2 SWAP1 PUSH1 0x0 MSTORE PUSH1 0x20 PUSH1 0x0 KECCAK256 SWAP1 JUMPDEST DUP2 SLOAD DUP2 MSTORE SWAP1 PUSH1 0x1 ADD SWAP1 PUSH1 0x20 ADD DUP1 DUP4 GT PUSH3 0x21C7 JUMPI DUP3 SWAP1 SUB PUSH1 0x1F AND DUP3 ADD SWAP2 JUMPDEST POP POP POP POP POP DUP2 JUMP JUMPDEST PUSH1 0x4 PUSH1 0x0 SWAP1 SLOAD SWAP1 PUSH2 0x100 EXP SWAP1 DIV PUSH1 0xFF AND ISZERO PUSH3 0x2240 JUMPI PUSH1 0x40 MLOAD PUSH32 0x8C379A000000000000000000000000000000000000000000000000000000000 DUP2 MSTORE PUSH1 0x4 ADD PUSH3 0x2237 SWAP1 PUSH3 0x2D0F JUMP JUMPDEST PUSH1 0x40 MLOAD DUP1 SWAP2 SUB SWAP1 REVERT JUMPDEST PUSH1 0x1 PUSH1 0x4 PUSH1 0x0 PUSH2 0x100 EXP DUP2 SLOAD DUP2 PUSH1 0xFF MUL NOT AND SWAP1 DUP4 ISZERO ISZERO MUL OR SWAP1 SSTORE POP PUSH1 0xE PUSH1 0x14 SWAP1 SLOAD SWAP1 PUSH2 0x100 EXP SWAP1 DIV PUSH1 0xFF AND ISZERO PUSH3 0x22AE JUMPI PUSH1 0x40 MLOAD PUSH32 0x8C379A000000000000000000000000000000000000000000000000000000000 DUP2 MSTORE PUSH1 0x4 ADD PUSH3 0x22A5 SWAP1 PUSH3 0x2D81 JUMP JUMPDEST PUSH1 0x40 MLOAD DUP1 SWAP2 SUB SWAP1 REVERT JUMPDEST PUSH1 0x6 PUSH1 0x0 SWAP1 SLOAD SWAP1 PUSH2 0x100 EXP SWAP1 DIV PUSH1 0xFF AND ISZERO PUSH3 0x2301 JUMPI PUSH1 0x40 MLOAD PUSH32 0x8C379A000000000000000000000000000000000000000000000000000000000 DUP2 MSTORE PUSH1 0x4 ADD PUSH3 0x22F8 SWAP1 PUSH3 0x2DF3 JUMP JUMPDEST PUSH1 0x40 MLOAD DUP1 SWAP2 SUB SWAP1 REVERT JUMPDEST PUSH1 0x8 PUSH1 0x0 CALLER PUSH20 0xFFFFFFFFFFFFFFFFFFFFFFFFFFFFFFFFFFFFFFFF AND PUSH20 0xFFFFFFFFFFFFFFFFFFFFFFFFFFFFFFFFFFFFFFFF AND DUP2 MSTORE PUSH1 0x20 ADD SWAP1 DUP2 MSTORE PUSH1 0x20 ADD PUSH1 0x0 KECCAK256 PUSH1 0x0 SWAP1 SLOAD SWAP1 PUSH2 0x100 EXP SWAP1 DIV PUSH1 0xFF AND ISZERO PUSH3 0x2391 JUMPI PUSH1 0x40 MLOAD PUSH32 0x8C379A000000000000000000000000000000000000000000000000000000000 DUP2 MSTORE PUSH1 0x4 ADD PUSH3 0x2388 SWAP1 PUSH3 0x3503 JUMP JUMPDEST PUSH1 0x40 MLOAD DUP1 SWAP2 SUB SWAP1 REVERT JUMPDEST PUSH1 0x0 PUSH1 0xC PUSH1 0x1 DUP2 PUSH1 0x1 DUP2 SLOAD ADD DUP1 DUP3 SSTORE DUP1 SWAP2 POP POP SUB SWAP1 PUSH1 0x0 MSTORE PUSH1 0x20 PUSH1 0x0 KECCAK256 SWAP1 PUSH1 0x5 MUL ADD SWAP1 POP DUP2 DUP2 PUSH1 0x0 ADD SWAP1 DUP1 MLOAD SWAP1 PUSH1 0x20 ADD SWAP1 PUSH3 0x23CF SWAP3 SWAP2 SWAP1 PUSH3 0x24DC JUMP JUMPDEST POP CALLER DUP2 PUSH1 0x1 ADD PUSH1 0x0 PUSH2 0x100 EXP DUP2 SLOAD DUP2 PUSH20 0xFFFFFFFFFFFFFFFFFFFFFFFFFFFFFFFFFFFFFFFF MUL NOT AND SWAP1 DUP4 PUSH20 0xFFFFFFFFFFFFFFFFFFFFFFFFFFFFFFFFFFFFFFFF AND MUL OR SWAP1 SSTORE POP POP PUSH1 0x0 PUSH1 0x4 PUSH1 0x0 PUSH2 0x100 EXP DUP2 SLOAD DUP2 PUSH1 0xFF MUL NOT AND SWAP1 DUP4 ISZERO ISZERO MUL OR SWAP1 SSTORE POP POP JUMP JUMPDEST PUSH1 0x2 DUP1 SLOAD PUSH3 0x2441 SWAP1 PUSH3 0x2E44 JUMP JUMPDEST DUP1 PUSH1 0x1F ADD PUSH1 0x20 DUP1 SWAP2 DIV MUL PUSH1 0x20 ADD PUSH1 0x40 MLOAD SWAP1 DUP2 ADD PUSH1 0x40 MSTORE DUP1 SWAP3 SWAP2 SWAP1 DUP2 DUP2 MSTORE PUSH1 0x20 ADD DUP3 DUP1 SLOAD PUSH3 0x246F SWAP1 PUSH3 0x2E44 JUMP JUMPDEST DUP1 ISZERO PUSH3 0x24C0 JUMPI DUP1 PUSH1 0x1F LT PUSH3 0x2494 JUMPI PUSH2 0x100 DUP1 DUP4 SLOAD DIV MUL DUP4 MSTORE SWAP2 PUSH1 0x20 ADD SWAP2 PUSH3 0x24C0 JUMP JUMPDEST DUP3 ADD SWAP2 SWAP1 PUSH1 0x0 MSTORE PUSH1 0x20 PUSH1 0x0 KECCAK256 SWAP1 JUMPDEST DUP2 SLOAD DUP2 MSTORE SWAP1 PUSH1 0x1 ADD SWAP1 PUSH1 0x20 ADD DUP1 DUP4 GT PUSH3 0x24A2 JUMPI DUP3 SWAP1 SUB PUSH1 0x1F AND DUP3 ADD SWAP2 JUMPDEST POP POP POP POP POP DUP2 JUMP JUMPDEST PUSH1 0x5 SLOAD DUP2 JUMP JUMPDEST PUSH2 0x151C DUP1 PUSH3 0x3526 DUP4 CODECOPY ADD SWAP1 JUMP JUMPDEST DUP3 DUP1 SLOAD PUSH3 0x24EA SWAP1 PUSH3 0x2E44 JUMP JUMPDEST SWAP1 PUSH1 0x0 MSTORE PUSH1 0x20 PUSH1 0x0 KECCAK256 SWAP1 PUSH1 0x1F ADD PUSH1 0x20 SWAP1 DIV DUP2 ADD SWAP3 DUP3 PUSH3 0x250E JUMPI PUSH1 0x0 DUP6 SSTORE PUSH3 0x255A JUMP JUMPDEST DUP3 PUSH1 0x1F LT PUSH3 0x2529 JUMPI DUP1 MLOAD PUSH1 0xFF NOT AND DUP4 DUP1 ADD OR DUP6 SSTORE PUSH3 0x255A JUMP JUMPDEST DUP3 DUP1 ADD PUSH1 0x1 ADD DUP6 SSTORE DUP3 ISZERO PUSH3 0x255A JUMPI SWAP2 DUP3 ADD JUMPDEST DUP3 DUP2 GT ISZERO PUSH3 0x2559 JUMPI DUP3 MLOAD DUP3 SSTORE SWAP2 PUSH1 0x20 ADD SWAP2 SWAP1 PUSH1 0x1 ADD SWAP1 PUSH3 0x253C JUMP JUMPDEST JUMPDEST POP SWAP1 POP PUSH3 0x2569 SWAP2 SWAP1 PUSH3 0x256D JUMP JUMPDEST POP SWAP1 JUMP JUMPDEST JUMPDEST DUP1 DUP3 GT ISZERO PUSH3 0x2588 JUMPI PUSH1 0x0 DUP2 PUSH1 0x0 SWAP1 SSTORE POP PUSH1 0x1 ADD PUSH3 0x256E JUMP JUMPDEST POP SWAP1 JUMP JUMPDEST PUSH1 0x0 DUP2 MLOAD SWAP1 POP SWAP2 SWAP1 POP JUMP JUMPDEST PUSH1 0x0 DUP3 DUP3 MSTORE PUSH1 0x20 DUP3 ADD SWAP1 POP SWAP3 SWAP2 POP POP JUMP JUMPDEST PUSH1 0x0 JUMPDEST DUP4 DUP2 LT ISZERO PUSH3 0x25C8 JUMPI DUP1 DUP3 ADD MLOAD DUP2 DUP5 ADD MSTORE PUSH1 0x20 DUP2 ADD SWAP1 POP PUSH3 0x25AB JUMP JUMPDEST DUP4 DUP2 GT ISZERO PUSH3 0x25D8 JUMPI PUSH1 0x0 DUP5 DUP5 ADD MSTORE JUMPDEST POP POP POP POP JUMP JUMPDEST PUSH1 0x0 PUSH1 0x1F NOT PUSH1 0x1F DUP4 ADD AND SWAP1 POP SWAP2 SWAP1 POP JUMP JUMPDEST PUSH1 0x0 PUSH3 0x25FC DUP3 PUSH3 0x258C JUMP JUMPDEST PUSH3 0x2608 DUP2 DUP6 PUSH3 0x2597 JUMP JUMPDEST SWAP4 POP PUSH3 0x261A DUP2 DUP6 PUSH1 0x20 DUP7 ADD PUSH3 0x25A8 JUMP JUMPDEST PUSH3 0x2625 DUP2 PUSH3 0x25DE JUMP JUMPDEST DUP5 ADD SWAP2 POP POP SWAP3 SWAP2 POP POP JUMP JUMPDEST PUSH1 0x0 PUSH1 0x20 DUP3 ADD SWAP1 POP DUP2 DUP2 SUB PUSH1 0x0 DUP4 ADD MSTORE PUSH3 0x264C DUP2 DUP5 PUSH3 0x25EF JUMP JUMPDEST SWAP1 POP SWAP3 SWAP2 POP POP JUMP JUMPDEST PUSH1 0x0 PUSH1 0x40 MLOAD SWAP1 POP SWAP1 JUMP JUMPDEST PUSH1 0x0 DUP1 REVERT JUMPDEST PUSH1 0x0 DUP1 REVERT JUMPDEST PUSH1 0x0 PUSH20 0xFFFFFFFFFFFFFFFFFFFFFFFFFFFFFFFFFFFFFFFF DUP3 AND SWAP1 POP SWAP2 SWAP1 POP JUMP JUMPDEST PUSH1 0x0 PUSH3 0x2695 DUP3 PUSH3 0x2668 JUMP JUMPDEST SWAP1 POP SWAP2 SWAP1 POP JUMP JUMPDEST PUSH3 0x26A7 DUP2 PUSH3 0x2688 JUMP JUMPDEST DUP2 EQ PUSH3 0x26B3 JUMPI PUSH1 0x0 DUP1 REVERT JUMPDEST POP JUMP JUMPDEST PUSH1 0x0 DUP2 CALLDATALOAD SWAP1 POP PUSH3 0x26C7 DUP2 PUSH3 0x269C JUMP JUMPDEST SWAP3 SWAP2 POP POP JUMP JUMPDEST PUSH1 0x0 PUSH1 0x20 DUP3 DUP5 SUB SLT ISZERO PUSH3 0x26E6 JUMPI PUSH3 0x26E5 PUSH3 0x265E JUMP JUMPDEST JUMPDEST PUSH1 0x0 PUSH3 0x26F6 DUP5 DUP3 DUP6 ADD PUSH3 0x26B6 JUMP JUMPDEST SWAP2 POP POP SWAP3 SWAP2 POP POP JUMP JUMPDEST PUSH1 0x0 DUP2 ISZERO ISZERO SWAP1 POP SWAP2 SWAP1 POP JUMP JUMPDEST PUSH3 0x2716 DUP2 PUSH3 0x26FF JUMP JUMPDEST DUP3 MSTORE POP POP JUMP JUMPDEST PUSH1 0x0 PUSH1 0x20 DUP3 ADD SWAP1 POP PUSH3 0x2733 PUSH1 0x0 DUP4 ADD DUP5 PUSH3 0x270B JUMP JUMPDEST SWAP3 SWAP2 POP POP JUMP JUMPDEST PUSH1 0x0 DUP2 MLOAD SWAP1 POP SWAP2 SWAP1 POP JUMP JUMPDEST PUSH1 0x0 DUP3 DUP3 MSTORE PUSH1 0x20 DUP3 ADD SWAP1 POP SWAP3 SWAP2 POP POP JUMP JUMPDEST PUSH1 0x0 DUP2 SWAP1 POP PUSH1 0x20 DUP3 ADD SWAP1 POP SWAP2 SWAP1 POP JUMP JUMPDEST PUSH3 0x2770 DUP2 PUSH3 0x2688 JUMP JUMPDEST DUP3 MSTORE POP POP JUMP JUMPDEST PUSH1 0x0 PUSH3 0x2784 DUP4 DUP4 PUSH3 0x2765 JUMP JUMPDEST PUSH1 0x20 DUP4 ADD SWAP1 POP SWAP3 SWAP2 POP POP JUMP JUMPDEST PUSH1 0x0 PUSH1 0x20 DUP3 ADD SWAP1 POP SWAP2 SWAP1 POP JUMP JUMPDEST PUSH1 0x0 PUSH3 0x27AA DUP3 PUSH3 0x2739 JUMP JUMPDEST PUSH3 0x27B6 DUP2 DUP6 PUSH3 0x2744 JUMP JUMPDEST SWAP4 POP PUSH3 0x27C3 DUP4 PUSH3 0x2755 JUMP JUMPDEST DUP1 PUSH1 0x0 JUMPDEST DUP4 DUP2 LT ISZERO PUSH3 0x27FA JUMPI DUP2 MLOAD PUSH3 0x27DE DUP9 DUP3 PUSH3 0x2776 JUMP JUMPDEST SWAP8 POP PUSH3 0x27EB DUP4 PUSH3 0x2790 JUMP JUMPDEST SWAP3 POP POP PUSH1 0x1 DUP2 ADD SWAP1 POP PUSH3 0x27C7 JUMP JUMPDEST POP DUP6 SWAP4 POP POP POP POP SWAP3 SWAP2 POP POP JUMP JUMPDEST PUSH1 0x0 DUP2 SWAP1 POP SWAP2 SWAP1 POP JUMP JUMPDEST PUSH3 0x281C DUP2 PUSH3 0x2807 JUMP JUMPDEST DUP3 MSTORE POP POP JUMP JUMPDEST PUSH3 0x282D DUP2 PUSH3 0x2688 JUMP JUMPDEST DUP3 MSTORE POP POP JUMP JUMPDEST PUSH1 0x0 PUSH2 0x180 DUP3 ADD SWAP1 POP DUP2 DUP2 SUB PUSH1 0x0 DUP4 ADD MSTORE PUSH3 0x2850 DUP2 DUP16 PUSH3 0x25EF JUMP JUMPDEST SWAP1 POP DUP2 DUP2 SUB PUSH1 0x20 DUP4 ADD MSTORE PUSH3 0x2866 DUP2 DUP15 PUSH3 0x25EF JUMP JUMPDEST SWAP1 POP DUP2 DUP2 SUB PUSH1 0x40 DUP4 ADD MSTORE PUSH3 0x287C DUP2 DUP14 PUSH3 0x25EF JUMP JUMPDEST SWAP1 POP DUP2 DUP2 SUB PUSH1 0x60 DUP4 ADD MSTORE PUSH3 0x2892 DUP2 DUP13 PUSH3 0x279D JUMP JUMPDEST SWAP1 POP DUP2 DUP2 SUB PUSH1 0x80 DUP4 ADD MSTORE PUSH3 0x28A8 DUP2 DUP12 PUSH3 0x279D JUMP JUMPDEST SWAP1 POP PUSH3 0x28B9 PUSH1 0xA0 DUP4 ADD DUP11 PUSH3 0x2811 JUMP JUMPDEST PUSH3 0x28C8 PUSH1 0xC0 DUP4 ADD DUP10 PUSH3 0x2811 JUMP JUMPDEST PUSH3 0x28D7 PUSH1 0xE0 DUP4 ADD DUP9 PUSH3 0x270B JUMP JUMPDEST DUP2 DUP2 SUB PUSH2 0x100 DUP4 ADD MSTORE PUSH3 0x28EC DUP2 DUP8 PUSH3 0x25EF JUMP JUMPDEST SWAP1 POP PUSH3 0x28FE PUSH2 0x120 DUP4 ADD DUP7 PUSH3 0x2811 JUMP JUMPDEST PUSH3 0x290E PUSH2 0x140 DUP4 ADD DUP6 PUSH3 0x270B JUMP JUMPDEST PUSH3 0x291E PUSH2 0x160 DUP4 ADD DUP5 PUSH3 0x2822 JUMP JUMPDEST SWAP14 SWAP13 POP POP POP POP POP POP POP POP POP POP POP POP POP JUMP JUMPDEST PUSH3 0x293A DUP2 PUSH3 0x2807 JUMP JUMPDEST DUP2 EQ PUSH3 0x2946 JUMPI PUSH1 0x0 DUP1 REVERT JUMPDEST POP JUMP JUMPDEST PUSH1 0x0 DUP2 CALLDATALOAD SWAP1 POP PUSH3 0x295A DUP2 PUSH3 0x292F JUMP JUMPDEST SWAP3 SWAP2 POP POP JUMP JUMPDEST PUSH1 0x0 PUSH1 0x20 DUP3 DUP5 SUB SLT ISZERO PUSH3 0x2979 JUMPI PUSH3 0x2978 PUSH3 0x265E JUMP JUMPDEST JUMPDEST PUSH1 0x0 PUSH3 0x2989 DUP5 DUP3 DUP6 ADD PUSH3 0x2949 JUMP JUMPDEST SWAP2 POP POP SWAP3 SWAP2 POP POP JUMP JUMPDEST PUSH1 0x0 PUSH1 0x80 DUP3 ADD SWAP1 POP PUSH3 0x29A9 PUSH1 0x0 DUP4 ADD DUP8 PUSH3 0x2811 JUMP JUMPDEST PUSH3 0x29B8 PUSH1 0x20 DUP4 ADD DUP7 PUSH3 0x2822 JUMP JUMPDEST PUSH3 0x29C7 PUSH1 0x40 DUP4 ADD DUP6 PUSH3 0x2811 JUMP JUMPDEST PUSH3 0x29D6 PUSH1 0x60 DUP4 ADD DUP5 PUSH3 0x270B JUMP JUMPDEST SWAP6 SWAP5 POP POP POP POP POP JUMP JUMPDEST PUSH1 0x0 PUSH1 0x80 DUP3 ADD SWAP1 POP DUP2 DUP2 SUB PUSH1 0x0 DUP4 ADD MSTORE PUSH3 0x29FB DUP2 DUP8 PUSH3 0x25EF JUMP JUMPDEST SWAP1 POP PUSH3 0x2A0C PUSH1 0x20 DUP4 ADD DUP7 PUSH3 0x2822 JUMP JUMPDEST PUSH3 0x2A1B PUSH1 0x40 DUP4 ADD DUP6 PUSH3 0x2811 JUMP JUMPDEST PUSH3 0x2A2A PUSH1 0x60 DUP4 ADD DUP5 PUSH3 0x270B JUMP JUMPDEST SWAP6 SWAP5 POP POP POP POP POP JUMP JUMPDEST PUSH1 0x0 PUSH1 0x20 DUP3 ADD SWAP1 POP PUSH3 0x2A4A PUSH1 0x0 DUP4 ADD DUP5 PUSH3 0x2822 JUMP JUMPDEST SWAP3 SWAP2 POP POP JUMP JUMPDEST PUSH1 0x0 DUP1 REVERT JUMPDEST PUSH1 0x0 DUP1 REVERT JUMPDEST PUSH32 0x4E487B7100000000000000000000000000000000000000000000000000000000 PUSH1 0x0 MSTORE PUSH1 0x41 PUSH1 0x4 MSTORE PUSH1 0x24 PUSH1 0x0 REVERT JUMPDEST PUSH3 0x2A94 DUP3 PUSH3 0x25DE JUMP JUMPDEST DUP2 ADD DUP2 DUP2 LT PUSH8 0xFFFFFFFFFFFFFFFF DUP3 GT OR ISZERO PUSH3 0x2AB6 JUMPI PUSH3 0x2AB5 PUSH3 0x2A5A JUMP JUMPDEST JUMPDEST DUP1 PUSH1 0x40 MSTORE POP POP POP JUMP JUMPDEST PUSH1 0x0 PUSH3 0x2ACB PUSH3 0x2654 JUMP JUMPDEST SWAP1 POP PUSH3 0x2AD9 DUP3 DUP3 PUSH3 0x2A89 JUMP JUMPDEST SWAP2 SWAP1 POP JUMP JUMPDEST PUSH1 0x0 PUSH8 0xFFFFFFFFFFFFFFFF DUP3 GT ISZERO PUSH3 0x2AFC JUMPI PUSH3 0x2AFB PUSH3 0x2A5A JUMP JUMPDEST JUMPDEST PUSH3 0x2B07 DUP3 PUSH3 0x25DE JUMP JUMPDEST SWAP1 POP PUSH1 0x20 DUP2 ADD SWAP1 POP SWAP2 SWAP1 POP JUMP JUMPDEST DUP3 DUP2 DUP4 CALLDATACOPY PUSH1 0x0 DUP4 DUP4 ADD MSTORE POP POP POP JUMP JUMPDEST PUSH1 0x0 PUSH3 0x2B3A PUSH3 0x2B34 DUP5 PUSH3 0x2ADE JUMP JUMPDEST PUSH3 0x2ABF JUMP JUMPDEST SWAP1 POP DUP3 DUP2 MSTORE PUSH1 0x20 DUP2 ADD DUP5 DUP5 DUP5 ADD GT ISZERO PUSH3 0x2B59 JUMPI PUSH3 0x2B58 PUSH3 0x2A55 JUMP JUMPDEST JUMPDEST PUSH3 0x2B66 DUP5 DUP3 DUP6 PUSH3 0x2B14 JUMP JUMPDEST POP SWAP4 SWAP3 POP POP POP JUMP JUMPDEST PUSH1 0x0 DUP3 PUSH1 0x1F DUP4 ADD SLT PUSH3 0x2B86 JUMPI PUSH3 0x2B85 PUSH3 0x2A50 JUMP JUMPDEST JUMPDEST DUP2 CALLDATALOAD PUSH3 0x2B98 DUP5 DUP3 PUSH1 0x20 DUP7 ADD PUSH3 0x2B23 JUMP JUMPDEST SWAP2 POP POP SWAP3 SWAP2 POP POP JUMP JUMPDEST PUSH1 0x0 DUP1 PUSH1 0x0 DUP1 PUSH1 0x80 DUP6 DUP8 SUB SLT ISZERO PUSH3 0x2BBE JUMPI PUSH3 0x2BBD PUSH3 0x265E JUMP JUMPDEST JUMPDEST PUSH1 0x0 DUP6 ADD CALLDATALOAD PUSH8 0xFFFFFFFFFFFFFFFF DUP2 GT ISZERO PUSH3 0x2BDF JUMPI PUSH3 0x2BDE PUSH3 0x2663 JUMP JUMPDEST JUMPDEST PUSH3 0x2BED DUP8 DUP3 DUP9 ADD PUSH3 0x2B6E JUMP JUMPDEST SWAP5 POP POP PUSH1 0x20 DUP6 ADD CALLDATALOAD PUSH8 0xFFFFFFFFFFFFFFFF DUP2 GT ISZERO PUSH3 0x2C11 JUMPI PUSH3 0x2C10 PUSH3 0x2663 JUMP JUMPDEST JUMPDEST PUSH3 0x2C1F DUP8 DUP3 DUP9 ADD PUSH3 0x2B6E JUMP JUMPDEST SWAP4 POP POP PUSH1 0x40 PUSH3 0x2C32 DUP8 DUP3 DUP9 ADD PUSH3 0x26B6 JUMP JUMPDEST SWAP3 POP POP PUSH1 0x60 PUSH3 0x2C45 DUP8 DUP3 DUP9 ADD PUSH3 0x26B6 JUMP JUMPDEST SWAP2 POP POP SWAP3 SWAP6 SWAP2 SWAP5 POP SWAP3 POP JUMP JUMPDEST PUSH1 0x0 PUSH1 0x20 DUP3 DUP5 SUB SLT ISZERO PUSH3 0x2C6A JUMPI PUSH3 0x2C69 PUSH3 0x265E JUMP JUMPDEST JUMPDEST PUSH1 0x0 DUP3 ADD CALLDATALOAD PUSH8 0xFFFFFFFFFFFFFFFF DUP2 GT ISZERO PUSH3 0x2C8B JUMPI PUSH3 0x2C8A PUSH3 0x2663 JUMP JUMPDEST JUMPDEST PUSH3 0x2C99 DUP5 DUP3 DUP6 ADD PUSH3 0x2B6E JUMP JUMPDEST SWAP2 POP POP SWAP3 SWAP2 POP POP JUMP JUMPDEST PUSH1 0x0 PUSH1 0x20 DUP3 ADD SWAP1 POP PUSH3 0x2CB9 PUSH1 0x0 DUP4 ADD DUP5 PUSH3 0x2811 JUMP JUMPDEST SWAP3 SWAP2 POP POP JUMP JUMPDEST PUSH32 0x5265656E7472616E742063616C6C000000000000000000000000000000000000 PUSH1 0x0 DUP3 ADD MSTORE POP JUMP JUMPDEST PUSH1 0x0 PUSH3 0x2CF7 PUSH1 0xE DUP4 PUSH3 0x2597 JUMP JUMPDEST SWAP2 POP PUSH3 0x2D04 DUP3 PUSH3 0x2CBF JUMP JUMPDEST PUSH1 0x20 DUP3 ADD SWAP1 POP SWAP2 SWAP1 POP JUMP JUMPDEST PUSH1 0x0 PUSH1 0x20 DUP3 ADD SWAP1 POP DUP2 DUP2 SUB PUSH1 0x0 DUP4 ADD MSTORE PUSH3 0x2D2A DUP2 PUSH3 0x2CE8 JUMP JUMPDEST SWAP1 POP SWAP2 SWAP1 POP JUMP JUMPDEST PUSH32 0x546869732073746F727920686173206265656E20626F75676874000000000000 PUSH1 0x0 DUP3 ADD MSTORE POP JUMP JUMPDEST PUSH1 0x0 PUSH3 0x2D69 PUSH1 0x1A DUP4 PUSH3 0x2597 JUMP JUMPDEST SWAP2 POP PUSH3 0x2D76 DUP3 PUSH3 0x2D31 JUMP JUMPDEST PUSH1 0x20 DUP3 ADD SWAP1 POP SWAP2 SWAP1 POP JUMP JUMPDEST PUSH1 0x0 PUSH1 0x20 DUP3 ADD SWAP1 POP DUP2 DUP2 SUB PUSH1 0x0 DUP4 ADD MSTORE PUSH3 0x2D9C DUP2 PUSH3 0x2D5A JUMP JUMPDEST SWAP1 POP SWAP2 SWAP1 POP JUMP JUMPDEST PUSH32 0x546869732073746F727920686173206265656E207265706F7274656400000000 PUSH1 0x0 DUP3 ADD MSTORE POP JUMP JUMPDEST PUSH1 0x0 PUSH3 0x2DDB PUSH1 0x1C DUP4 PUSH3 0x2597 JUMP JUMPDEST SWAP2 POP PUSH3 0x2DE8 DUP3 PUSH3 0x2DA3 JUMP JUMPDEST PUSH1 0x20 DUP3 ADD SWAP1 POP SWAP2 SWAP1 POP JUMP JUMPDEST PUSH1 0x0 PUSH1 0x20 DUP3 ADD SWAP1 POP DUP2 DUP2 SUB PUSH1 0x0 DUP4 ADD MSTORE PUSH3 0x2E0E DUP2 PUSH3 0x2DCC JUMP JUMPDEST SWAP1 POP SWAP2 SWAP1 POP JUMP JUMPDEST PUSH32 0x4E487B7100000000000000000000000000000000000000000000000000000000 PUSH1 0x0 MSTORE PUSH1 0x22 PUSH1 0x4 MSTORE PUSH1 0x24 PUSH1 0x0 REVERT JUMPDEST PUSH1 0x0 PUSH1 0x2 DUP3 DIV SWAP1 POP PUSH1 0x1 DUP3 AND DUP1 PUSH3 0x2E5D JUMPI PUSH1 0x7F DUP3 AND SWAP2 POP JUMPDEST PUSH1 0x20 DUP3 LT DUP2 EQ ISZERO PUSH3 0x2E74 JUMPI PUSH3 0x2E73 PUSH3 0x2E15 JUMP JUMPDEST JUMPDEST POP SWAP2 SWAP1 POP JUMP JUMPDEST PUSH32 0x596F752068617665207265706F7274656420746869732073746F727920626566 PUSH1 0x0 DUP3 ADD MSTORE PUSH32 0x6F72650000000000000000000000000000000000000000000000000000000000 PUSH1 0x20 DUP3 ADD MSTORE POP JUMP JUMPDEST PUSH1 0x0 PUSH3 0x2ED8 PUSH1 0x23 DUP4 PUSH3 0x2597 JUMP JUMPDEST SWAP2 POP PUSH3 0x2EE5 DUP3 PUSH3 0x2E7A JUMP JUMPDEST PUSH1 0x40 DUP3 ADD SWAP1 POP SWAP2 SWAP1 POP JUMP JUMPDEST PUSH1 0x0 PUSH1 0x20 DUP3 ADD SWAP1 POP DUP2 DUP2 SUB PUSH1 0x0 DUP4 ADD MSTORE PUSH3 0x2F0B DUP2 PUSH3 0x2EC9 JUMP JUMPDEST SWAP1 POP SWAP2 SWAP1 POP JUMP JUMPDEST PUSH32 0x4E487B7100000000000000000000000000000000000000000000000000000000 PUSH1 0x0 MSTORE PUSH1 0x11 PUSH1 0x4 MSTORE PUSH1 0x24 PUSH1 0x0 REVERT JUMPDEST PUSH1 0x0 PUSH3 0x2F4E DUP3 PUSH3 0x2807 JUMP JUMPDEST SWAP2 POP PUSH32 0xFFFFFFFFFFFFFFFFFFFFFFFFFFFFFFFFFFFFFFFFFFFFFFFFFFFFFFFFFFFFFFFF DUP3 EQ ISZERO PUSH3 0x2F84 JUMPI PUSH3 0x2F83 PUSH3 0x2F12 JUMP JUMPDEST JUMPDEST PUSH1 0x1 DUP3 ADD SWAP1 POP SWAP2 SWAP1 POP JUMP JUMPDEST PUSH32 0x4F6E6C7920616E20616363657074656420617574686F722063616E2061707072 PUSH1 0x0 DUP3 ADD MSTORE PUSH32 0x6F76652061207265717565737400000000000000000000000000000000000000 PUSH1 0x20 DUP3 ADD MSTORE POP JUMP JUMPDEST PUSH1 0x0 PUSH3 0x2FED PUSH1 0x2D DUP4 PUSH3 0x2597 JUMP JUMPDEST SWAP2 POP PUSH3 0x2FFA DUP3 PUSH3 0x2F8F JUMP JUMPDEST PUSH1 0x40 DUP3 ADD SWAP1 POP SWAP2 SWAP1 POP JUMP JUMPDEST PUSH1 0x0 PUSH1 0x20 DUP3 ADD SWAP1 POP DUP2 DUP2 SUB PUSH1 0x0 DUP4 ADD MSTORE PUSH3 0x3020 DUP2 PUSH3 0x2FDE JUMP JUMPDEST SWAP1 POP SWAP2 SWAP1 POP JUMP JUMPDEST PUSH32 0x4E487B7100000000000000000000000000000000000000000000000000000000 PUSH1 0x0 MSTORE PUSH1 0x32 PUSH1 0x4 MSTORE PUSH1 0x24 PUSH1 0x0 REVERT JUMPDEST PUSH32 0x5468697320617574686F7220616C726561647920617070726F76656420626566 PUSH1 0x0 DUP3 ADD MSTORE PUSH32 0x6F72650000000000000000000000000000000000000000000000000000000000 PUSH1 0x20 DUP3 ADD MSTORE POP JUMP JUMPDEST PUSH1 0x0 PUSH3 0x30B4 PUSH1 0x23 DUP4 PUSH3 0x2597 JUMP JUMPDEST SWAP2 POP PUSH3 0x30C1 DUP3 PUSH3 0x3056 JUMP JUMPDEST PUSH1 0x40 DUP3 ADD SWAP1 POP SWAP2 SWAP1 POP JUMP JUMPDEST PUSH1 0x0 PUSH1 0x20 DUP3 ADD SWAP1 POP DUP2 DUP2 SUB PUSH1 0x0 DUP4 ADD MSTORE PUSH3 0x30E7 DUP2 PUSH3 0x30A5 JUMP JUMPDEST SWAP1 POP SWAP2 SWAP1 POP JUMP JUMPDEST PUSH32 0x5468697320726571756573742068617320616C7265616479206265656E206170 PUSH1 0x0 DUP3 ADD MSTORE PUSH32 0x70726F766564206265666F726500000000000000000000000000000000000000 PUSH1 0x20 DUP3 ADD MSTORE POP JUMP JUMPDEST PUSH1 0x0 PUSH3 0x314C PUSH1 0x2D DUP4 PUSH3 0x2597 JUMP JUMPDEST SWAP2 POP PUSH3 0x3159 DUP3 PUSH3 0x30EE JUMP JUMPDEST PUSH1 0x40 DUP3 ADD SWAP1 POP SWAP2 SWAP1 POP JUMP JUMPDEST PUSH1 0x0 PUSH1 0x20 DUP3 ADD SWAP1 POP DUP2 DUP2 SUB PUSH1 0x0 DUP4 ADD MSTORE PUSH3 0x317F DUP2 PUSH3 0x313D JUMP JUMPDEST SWAP1 POP SWAP2 SWAP1 POP JUMP JUMPDEST PUSH1 0x0 PUSH3 0x3193 DUP3 PUSH3 0x2807 JUMP JUMPDEST SWAP2 POP PUSH3 0x31A0 DUP4 PUSH3 0x2807 JUMP JUMPDEST SWAP3 POP DUP3 PUSH32 0xFFFFFFFFFFFFFFFFFFFFFFFFFFFFFFFFFFFFFFFFFFFFFFFFFFFFFFFFFFFFFFFF SUB DUP3 GT ISZERO PUSH3 0x31D8 JUMPI PUSH3 0x31D7 PUSH3 0x2F12 JUMP JUMPDEST JUMPDEST DUP3 DUP3 ADD SWAP1 POP SWAP3 SWAP2 POP POP JUMP JUMPDEST PUSH32 0x4E487B7100000000000000000000000000000000000000000000000000000000 PUSH1 0x0 MSTORE PUSH1 0x12 PUSH1 0x4 MSTORE PUSH1 0x24 PUSH1 0x0 REVERT JUMPDEST PUSH1 0x0 PUSH3 0x321F DUP3 PUSH3 0x2807 JUMP JUMPDEST SWAP2 POP PUSH3 0x322C DUP4 PUSH3 0x2807 JUMP JUMPDEST SWAP3 POP DUP3 PUSH3 0x323F JUMPI PUSH3 0x323E PUSH3 0x31E3 JUMP JUMPDEST JUMPDEST DUP3 DUP3 DIV SWAP1 POP SWAP3 SWAP2 POP POP JUMP JUMPDEST PUSH32 0x4F6E6C7920616E20616363657074656420617574686F722063616E2063726561 PUSH1 0x0 DUP3 ADD MSTORE PUSH32 0x7465206120636861707465720000000000000000000000000000000000000000 PUSH1 0x20 DUP3 ADD MSTORE POP JUMP JUMPDEST PUSH1 0x0 PUSH3 0x32A8 PUSH1 0x2C DUP4 PUSH3 0x2597 JUMP JUMPDEST SWAP2 POP PUSH3 0x32B5 DUP3 PUSH3 0x324A JUMP JUMPDEST PUSH1 0x40 DUP3 ADD SWAP1 POP SWAP2 SWAP1 POP JUMP JUMPDEST PUSH1 0x0 PUSH1 0x20 DUP3 ADD SWAP1 POP DUP2 DUP2 SUB PUSH1 0x0 DUP4 ADD MSTORE PUSH3 0x32DB DUP2 PUSH3 0x3299 JUMP JUMPDEST SWAP1 POP SWAP2 SWAP1 POP JUMP JUMPDEST PUSH32 0x506172656E742063686170746572206D7573742062656C6F6E6720746F207468 PUSH1 0x0 DUP3 ADD MSTORE PUSH32 0x652073616D652073746F72790000000000000000000000000000000000000000 PUSH1 0x20 DUP3 ADD MSTORE POP JUMP JUMPDEST PUSH1 0x0 PUSH3 0x3340 PUSH1 0x2C DUP4 PUSH3 0x2597 JUMP JUMPDEST SWAP2 POP PUSH3 0x334D DUP3 PUSH3 0x32E2 JUMP JUMPDEST PUSH1 0x40 DUP3 ADD SWAP1 POP SWAP2 SWAP1 POP JUMP JUMPDEST PUSH1 0x0 PUSH1 0x20 DUP3 ADD SWAP1 POP DUP2 DUP2 SUB PUSH1 0x0 DUP4 ADD MSTORE PUSH3 0x3373 DUP2 PUSH3 0x3331 JUMP JUMPDEST SWAP1 POP SWAP2 SWAP1 POP JUMP JUMPDEST PUSH32 0x4368696C642063686170746572206D7573742062656C6F6E6720746F20746865 PUSH1 0x0 DUP3 ADD MSTORE PUSH32 0x2073616D652073746F7279000000000000000000000000000000000000000000 PUSH1 0x20 DUP3 ADD MSTORE POP JUMP JUMPDEST PUSH1 0x0 PUSH3 0x33D8 PUSH1 0x2B DUP4 PUSH3 0x2597 JUMP JUMPDEST SWAP2 POP PUSH3 0x33E5 DUP3 PUSH3 0x337A JUMP JUMPDEST PUSH1 0x40 DUP3 ADD SWAP1 POP SWAP2 SWAP1 POP JUMP JUMPDEST PUSH1 0x0 PUSH1 0x20 DUP3 ADD SWAP1 POP DUP2 DUP2 SUB PUSH1 0x0 DUP4 ADD MSTORE PUSH3 0x340B DUP2 PUSH3 0x33C9 JUMP JUMPDEST SWAP1 POP SWAP2 SWAP1 POP JUMP JUMPDEST PUSH1 0x0 PUSH1 0xC0 DUP3 ADD SWAP1 POP PUSH3 0x3429 PUSH1 0x0 DUP4 ADD DUP10 PUSH3 0x2822 JUMP JUMPDEST PUSH3 0x3438 PUSH1 0x20 DUP4 ADD DUP9 PUSH3 0x2822 JUMP JUMPDEST DUP2 DUP2 SUB PUSH1 0x40 DUP4 ADD MSTORE PUSH3 0x344C DUP2 DUP8 PUSH3 0x25EF JUMP JUMPDEST SWAP1 POP DUP2 DUP2 SUB PUSH1 0x60 DUP4 ADD MSTORE PUSH3 0x3462 DUP2 DUP7 PUSH3 0x25EF JUMP JUMPDEST SWAP1 POP PUSH3 0x3473 PUSH1 0x80 DUP4 ADD DUP6 PUSH3 0x2822 JUMP JUMPDEST PUSH3 0x3482 PUSH1 0xA0 DUP4 ADD DUP5 PUSH3 0x2822 JUMP JUMPDEST SWAP8 SWAP7 POP POP POP POP POP POP POP JUMP JUMPDEST PUSH32 0x417574686F7220616C72656164792065786973747320696E20746865206C6973 PUSH1 0x0 DUP3 ADD MSTORE PUSH32 0x74206F6620617574686F72730000000000000000000000000000000000000000 PUSH1 0x20 DUP3 ADD MSTORE POP JUMP JUMPDEST PUSH1 0x0 PUSH3 0x34EB PUSH1 0x2C DUP4 PUSH3 0x2597 JUMP JUMPDEST SWAP2 POP PUSH3 0x34F8 DUP3 PUSH3 0x348D JUMP JUMPDEST PUSH1 0x40 DUP3 ADD SWAP1 POP SWAP2 SWAP1 POP JUMP JUMPDEST PUSH1 0x0 PUSH1 0x20 DUP3 ADD SWAP1 POP DUP2 DUP2 SUB PUSH1 0x0 DUP4 ADD MSTORE PUSH3 0x351E DUP2 PUSH3 0x34DC JUMP JUMPDEST SWAP1 POP SWAP2 SWAP1 POP JUMP INVALID PUSH1 0x80 PUSH1 0x40 MSTORE CALLVALUE DUP1 ISZERO PUSH3 0x11 JUMPI PUSH1 0x0 DUP1 REVERT JUMPDEST POP PUSH1 0x40 MLOAD PUSH3 0x151C CODESIZE SUB DUP1 PUSH3 0x151C DUP4 CODECOPY DUP2 DUP2 ADD PUSH1 0x40 MSTORE DUP2 ADD SWAP1 PUSH3 0x37 SWAP2 SWAP1 PUSH3 0x4DA JUMP JUMPDEST DUP6 PUSH1 0x1 PUSH1 0x0 PUSH2 0x100 EXP DUP2 SLOAD DUP2 PUSH20 0xFFFFFFFFFFFFFFFFFFFFFFFFFFFFFFFFFFFFFFFF MUL NOT AND SWAP1 DUP4 PUSH20 0xFFFFFFFFFFFFFFFFFFFFFFFFFFFFFFFFFFFFFFFF AND MUL OR SWAP1 SSTORE POP DUP5 PUSH1 0x0 DUP1 PUSH2 0x100 EXP DUP2 SLOAD DUP2 PUSH20 0xFFFFFFFFFFFFFFFFFFFFFFFFFFFFFFFFFFFFFFFF MUL NOT AND SWAP1 DUP4 PUSH20 0xFFFFFFFFFFFFFFFFFFFFFFFFFFFFFFFFFFFFFFFF AND MUL OR SWAP1 SSTORE POP DUP3 PUSH1 0x3 SWAP1 DUP1 MLOAD SWAP1 PUSH1 0x20 ADD SWAP1 PUSH3 0xD0 SWAP3 SWAP2 SWAP1 PUSH3 0x228 JUMP JUMPDEST POP DUP4 PUSH1 0x2 SWAP1 DUP1 MLOAD SWAP1 PUSH1 0x20 ADD SWAP1 PUSH3 0xE9 SWAP3 SWAP2 SWAP1 PUSH3 0x228 JUMP JUMPDEST POP PUSH1 0x0 PUSH20 0xFFFFFFFFFFFFFFFFFFFFFFFFFFFFFFFFFFFFFFFF AND DUP3 PUSH20 0xFFFFFFFFFFFFFFFFFFFFFFFFFFFFFFFFFFFFFFFF AND EQ PUSH3 0x183 JUMPI PUSH1 0x4 DUP3 SWAP1 DUP1 PUSH1 0x1 DUP2 SLOAD ADD DUP1 DUP3 SSTORE DUP1 SWAP2 POP POP PUSH1 0x1 SWAP1 SUB SWAP1 PUSH1 0x0 MSTORE PUSH1 0x20 PUSH1 0x0 KECCAK256 ADD PUSH1 0x0 SWAP1 SWAP2 SWAP1 SWAP2 SWAP1 SWAP2 PUSH2 0x100 EXP DUP2 SLOAD DUP2 PUSH20 0xFFFFFFFFFFFFFFFFFFFFFFFFFFFFFFFFFFFFFFFF MUL NOT AND SWAP1 DUP4 PUSH20 0xFFFFFFFFFFFFFFFFFFFFFFFFFFFFFFFFFFFFFFFF AND MUL OR SWAP1 SSTORE POP JUMPDEST PUSH1 0x0 PUSH20 0xFFFFFFFFFFFFFFFFFFFFFFFFFFFFFFFFFFFFFFFF AND DUP2 PUSH20 0xFFFFFFFFFFFFFFFFFFFFFFFFFFFFFFFFFFFFFFFF AND EQ PUSH3 0x21C JUMPI PUSH1 0x5 DUP2 SWAP1 DUP1 PUSH1 0x1 DUP2 SLOAD ADD DUP1 DUP3 SSTORE DUP1 SWAP2 POP POP PUSH1 0x1 SWAP1 SUB SWAP1 PUSH1 0x0 MSTORE PUSH1 0x20 PUSH1 0x0 KECCAK256 ADD PUSH1 0x0 SWAP1 SWAP2 SWAP1 SWAP2 SWAP1 SWAP2 PUSH2 0x100 EXP DUP2 SLOAD DUP2 PUSH20 0xFFFFFFFFFFFFFFFFFFFFFFFFFFFFFFFFFFFFFFFF MUL NOT AND SWAP1 DUP4 PUSH20 0xFFFFFFFFFFFFFFFFFFFFFFFFFFFFFFFFFFFFFFFF AND MUL OR SWAP1 SSTORE POP JUMPDEST POP POP POP POP POP POP PUSH3 0x619 JUMP JUMPDEST DUP3 DUP1 SLOAD PUSH3 0x236 SWAP1 PUSH3 0x5E3 JUMP JUMPDEST SWAP1 PUSH1 0x0 MSTORE PUSH1 0x20 PUSH1 0x0 KECCAK256 SWAP1 PUSH1 0x1F ADD PUSH1 0x20 SWAP1 DIV DUP2 ADD SWAP3 DUP3 PUSH3 0x25A JUMPI PUSH1 0x0 DUP6 SSTORE PUSH3 0x2A6 JUMP JUMPDEST DUP3 PUSH1 0x1F LT PUSH3 0x275 JUMPI DUP1 MLOAD PUSH1 0xFF NOT AND DUP4 DUP1 ADD OR DUP6 SSTORE PUSH3 0x2A6 JUMP JUMPDEST DUP3 DUP1 ADD PUSH1 0x1 ADD DUP6 SSTORE DUP3 ISZERO PUSH3 0x2A6 JUMPI SWAP2 DUP3 ADD JUMPDEST DUP3 DUP2 GT ISZERO PUSH3 0x2A5 JUMPI DUP3 MLOAD DUP3 SSTORE SWAP2 PUSH1 0x20 ADD SWAP2 SWAP1 PUSH1 0x1 ADD SWAP1 PUSH3 0x288 JUMP JUMPDEST JUMPDEST POP SWAP1 POP PUSH3 0x2B5 SWAP2 SWAP1 PUSH3 0x2B9 JUMP JUMPDEST POP SWAP1 JUMP JUMPDEST JUMPDEST DUP1 DUP3 GT ISZERO PUSH3 0x2D4 JUMPI PUSH1 0x0 DUP2 PUSH1 0x0 SWAP1 SSTORE POP PUSH1 0x1 ADD PUSH3 0x2BA JUMP JUMPDEST POP SWAP1 JUMP JUMPDEST PUSH1 0x0 PUSH1 0x40 MLOAD SWAP1 POP SWAP1 JUMP JUMPDEST PUSH1 0x0 DUP1 REVERT JUMPDEST PUSH1 0x0 DUP1 REVERT JUMPDEST PUSH1 0x0 PUSH20 0xFFFFFFFFFFFFFFFFFFFFFFFFFFFFFFFFFFFFFFFF DUP3 AND SWAP1 POP SWAP2 SWAP1 POP JUMP JUMPDEST PUSH1 0x0 PUSH3 0x319 DUP3 PUSH3 0x2EC JUMP JUMPDEST SWAP1 POP SWAP2 SWAP1 POP JUMP JUMPDEST PUSH3 0x32B DUP2 PUSH3 0x30C JUMP JUMPDEST DUP2 EQ PUSH3 0x337 JUMPI PUSH1 0x0 DUP1 REVERT JUMPDEST POP JUMP JUMPDEST PUSH1 0x0 DUP2 MLOAD SWAP1 POP PUSH3 0x34B DUP2 PUSH3 0x320 JUMP JUMPDEST SWAP3 SWAP2 POP POP JUMP JUMPDEST PUSH1 0x0 DUP1 REVERT JUMPDEST PUSH1 0x0 DUP1 REVERT JUMPDEST PUSH1 0x0 PUSH1 0x1F NOT PUSH1 0x1F DUP4 ADD AND SWAP1 POP SWAP2 SWAP1 POP JUMP JUMPDEST PUSH32 0x4E487B7100000000000000000000000000000000000000000000000000000000 PUSH1 0x0 MSTORE PUSH1 0x41 PUSH1 0x4 MSTORE PUSH1 0x24 PUSH1 0x0 REVERT JUMPDEST PUSH3 0x3A6 DUP3 PUSH3 0x35B JUMP JUMPDEST DUP2 ADD DUP2 DUP2 LT PUSH8 0xFFFFFFFFFFFFFFFF DUP3 GT OR ISZERO PUSH3 0x3C8 JUMPI PUSH3 0x3C7 PUSH3 0x36C JUMP JUMPDEST JUMPDEST DUP1 PUSH1 0x40 MSTORE POP POP POP JUMP JUMPDEST PUSH1 0x0 PUSH3 0x3DD PUSH3 0x2D8 JUMP JUMPDEST SWAP1 POP PUSH3 0x3EB DUP3 DUP3 PUSH3 0x39B JUMP JUMPDEST SWAP2 SWAP1 POP JUMP JUMPDEST PUSH1 0x0 PUSH8 0xFFFFFFFFFFFFFFFF DUP3 GT ISZERO PUSH3 0x40E JUMPI PUSH3 0x40D PUSH3 0x36C JUMP JUMPDEST JUMPDEST PUSH3 0x419 DUP3 PUSH3 0x35B JUMP JUMPDEST SWAP1 POP PUSH1 0x20 DUP2 ADD SWAP1 POP SWAP2 SWAP1 POP JUMP JUMPDEST PUSH1 0x0 JUMPDEST DUP4 DUP2 LT ISZERO PUSH3 0x446 JUMPI DUP1 DUP3 ADD MLOAD DUP2 DUP5 ADD MSTORE PUSH1 0x20 DUP2 ADD SWAP1 POP PUSH3 0x429 JUMP JUMPDEST DUP4 DUP2 GT ISZERO PUSH3 0x456 JUMPI PUSH1 0x0 DUP5 DUP5 ADD MSTORE JUMPDEST POP POP POP POP JUMP JUMPDEST PUSH1 0x0 PUSH3 0x473 PUSH3 0x46D DUP5 PUSH3 0x3F0 JUMP JUMPDEST PUSH3 0x3D1 JUMP JUMPDEST SWAP1 POP DUP3 DUP2 MSTORE PUSH1 0x20 DUP2 ADD DUP5 DUP5 DUP5 ADD GT ISZERO PUSH3 0x492 JUMPI PUSH3 0x491 PUSH3 0x356 JUMP JUMPDEST JUMPDEST PUSH3 0x49F DUP5 DUP3 DUP6 PUSH3 0x426 JUMP JUMPDEST POP SWAP4 SWAP3 POP POP POP JUMP JUMPDEST PUSH1 0x0 DUP3 PUSH1 0x1F DUP4 ADD SLT PUSH3 0x4BF JUMPI PUSH3 0x4BE PUSH3 0x351 JUMP JUMPDEST JUMPDEST DUP2 MLOAD PUSH3 0x4D1 DUP5 DUP3 PUSH1 0x20 DUP7 ADD PUSH3 0x45C JUMP JUMPDEST SWAP2 POP POP SWAP3 SWAP2 POP POP JUMP JUMPDEST PUSH1 0x0 DUP1 PUSH1 0x0 DUP1 PUSH1 0x0 DUP1 PUSH1 0xC0 DUP8 DUP10 SUB SLT ISZERO PUSH3 0x4FA JUMPI PUSH3 0x4F9 PUSH3 0x2E2 JUMP JUMPDEST JUMPDEST PUSH1 0x0 PUSH3 0x50A DUP10 DUP3 DUP11 ADD PUSH3 0x33A JUMP JUMPDEST SWAP7 POP POP PUSH1 0x20 PUSH3 0x51D DUP10 DUP3 DUP11 ADD PUSH3 0x33A JUMP JUMPDEST SWAP6 POP POP PUSH1 0x40 DUP8 ADD MLOAD PUSH8 0xFFFFFFFFFFFFFFFF DUP2 GT ISZERO PUSH3 0x541 JUMPI PUSH3 0x540 PUSH3 0x2E7 JUMP JUMPDEST JUMPDEST PUSH3 0x54F DUP10 DUP3 DUP11 ADD PUSH3 0x4A7 JUMP JUMPDEST SWAP5 POP POP PUSH1 0x60 DUP8 ADD MLOAD PUSH8 0xFFFFFFFFFFFFFFFF DUP2 GT ISZERO PUSH3 0x573 JUMPI PUSH3 0x572 PUSH3 0x2E7 JUMP JUMPDEST JUMPDEST PUSH3 0x581 DUP10 DUP3 DUP11 ADD PUSH3 0x4A7 JUMP JUMPDEST SWAP4 POP POP PUSH1 0x80 PUSH3 0x594 DUP10 DUP3 DUP11 ADD PUSH3 0x33A JUMP JUMPDEST SWAP3 POP POP PUSH1 0xA0 PUSH3 0x5A7 DUP10 DUP3 DUP11 ADD PUSH3 0x33A JUMP JUMPDEST SWAP2 POP POP SWAP3 SWAP6 POP SWAP3 SWAP6 POP SWAP3 SWAP6 JUMP JUMPDEST PUSH32 0x4E487B7100000000000000000000000000000000000000000000000000000000 PUSH1 0x0 MSTORE PUSH1 0x22 PUSH1 0x4 MSTORE PUSH1 0x24 PUSH1 0x0 REVERT JUMPDEST PUSH1 0x0 PUSH1 0x2 DUP3 DIV SWAP1 POP PUSH1 0x1 DUP3 AND DUP1 PUSH3 0x5FC JUMPI PUSH1 0x7F DUP3 AND SWAP2 POP JUMPDEST PUSH1 0x20 DUP3 LT DUP2 EQ ISZERO PUSH3 0x613 JUMPI PUSH3 0x612 PUSH3 0x5B4 JUMP JUMPDEST JUMPDEST POP SWAP2 SWAP1 POP JUMP JUMPDEST PUSH2 0xEF3 DUP1 PUSH3 0x629 PUSH1 0x0 CODECOPY PUSH1 0x0 RETURN INVALID PUSH1 0x80 PUSH1 0x40 MSTORE CALLVALUE DUP1 ISZERO PUSH2 0x10 JUMPI PUSH1 0x0 DUP1 REVERT JUMPDEST POP PUSH1 0x4 CALLDATASIZE LT PUSH2 0xA9 JUMPI PUSH1 0x0 CALLDATALOAD PUSH1 0xE0 SHR DUP1 PUSH4 0xA523B88A GT PUSH2 0x71 JUMPI DUP1 PUSH4 0xA523B88A EQ PUSH2 0x146 JUMPI DUP1 PUSH4 0xA6C3E6B9 EQ PUSH2 0x150 JUMPI DUP1 PUSH4 0xC5FE6FFC EQ PUSH2 0x16E JUMPI DUP1 PUSH4 0xC623674F EQ PUSH2 0x19E JUMPI DUP1 PUSH4 0xE5A0AF3D EQ PUSH2 0x1BC JUMPI DUP1 PUSH4 0xED777791 EQ PUSH2 0x1DA JUMPI PUSH2 0xA9 JUMP JUMPDEST DUP1 PUSH4 0x4051DDAC EQ PUSH2 0xAE JUMPI DUP1 PUSH4 0x46C922D1 EQ PUSH2 0xD2 JUMPI DUP1 PUSH4 0x4A79D50C EQ PUSH2 0xF0 JUMPI DUP1 PUSH4 0x8758CE83 EQ PUSH2 0x10E JUMPI DUP1 PUSH4 0x988E46C8 EQ PUSH2 0x12A JUMPI JUMPDEST PUSH1 0x0 DUP1 REVERT JUMPDEST PUSH2 0xB6 PUSH2 0x20A JUMP JUMPDEST PUSH1 0x40 MLOAD PUSH2 0xC9 SWAP8 SWAP7 SWAP6 SWAP5 SWAP4 SWAP3 SWAP2 SWAP1 PUSH2 0xB26 JUMP JUMPDEST PUSH1 0x40 MLOAD DUP1 SWAP2 SUB SWAP1 RETURN JUMPDEST PUSH2 0xDA PUSH2 0x4A4 JUMP JUMPDEST PUSH1 0x40 MLOAD PUSH2 0xE7 SWAP2 SWAP1 PUSH2 0xBB1 JUMP JUMPDEST PUSH1 0x40 MLOAD DUP1 SWAP2 SUB SWAP1 RETURN JUMPDEST PUSH2 0xF8 PUSH2 0x4C8 JUMP JUMPDEST PUSH1 0x40 MLOAD PUSH2 0x105 SWAP2 SWAP1 PUSH2 0xBCC JUMP JUMPDEST PUSH1 0x40 MLOAD DUP1 SWAP2 SUB SWAP1 RETURN JUMPDEST PUSH2 0x128 PUSH1 0x4 DUP1 CALLDATASIZE SUB DUP2 ADD SWAP1 PUSH2 0x123 SWAP2 SWAP1 PUSH2 0xC1F JUMP JUMPDEST PUSH2 0x556 JUMP JUMPDEST STOP JUMPDEST PUSH2 0x144 PUSH1 0x4 DUP1 CALLDATASIZE SUB DUP2 ADD SWAP1 PUSH2 0x13F SWAP2 SWAP1 PUSH2 0xC1F JUMP JUMPDEST PUSH2 0x64A JUMP JUMPDEST STOP JUMPDEST PUSH2 0x14E PUSH2 0x73E JUMP JUMPDEST STOP JUMPDEST PUSH2 0x158 PUSH2 0x83D JUMP JUMPDEST PUSH1 0x40 MLOAD PUSH2 0x165 SWAP2 SWAP1 PUSH2 0xBB1 JUMP JUMPDEST PUSH1 0x40 MLOAD DUP1 SWAP2 SUB SWAP1 RETURN JUMPDEST PUSH2 0x188 PUSH1 0x4 DUP1 CALLDATASIZE SUB DUP2 ADD SWAP1 PUSH2 0x183 SWAP2 SWAP1 PUSH2 0xC78 JUMP JUMPDEST PUSH2 0x863 JUMP JUMPDEST PUSH1 0x40 MLOAD PUSH2 0x195 SWAP2 SWAP1 PUSH2 0xBB1 JUMP JUMPDEST PUSH1 0x40 MLOAD DUP1 SWAP2 SUB SWAP1 RETURN JUMPDEST PUSH2 0x1A6 PUSH2 0x8A2 JUMP JUMPDEST PUSH1 0x40 MLOAD PUSH2 0x1B3 SWAP2 SWAP1 PUSH2 0xBCC JUMP JUMPDEST PUSH1 0x40 MLOAD DUP1 SWAP2 SUB SWAP1 RETURN JUMPDEST PUSH2 0x1C4 PUSH2 0x930 JUMP JUMPDEST PUSH1 0x40 MLOAD PUSH2 0x1D1 SWAP2 SWAP1 PUSH2 0xCA5 JUMP JUMPDEST PUSH1 0x40 MLOAD DUP1 SWAP2 SUB SWAP1 RETURN JUMPDEST PUSH2 0x1F4 PUSH1 0x4 DUP1 CALLDATASIZE SUB DUP2 ADD SWAP1 PUSH2 0x1EF SWAP2 SWAP1 PUSH2 0xC78 JUMP JUMPDEST PUSH2 0x936 JUMP JUMPDEST PUSH1 0x40 MLOAD PUSH2 0x201 SWAP2 SWAP1 PUSH2 0xBB1 JUMP JUMPDEST PUSH1 0x40 MLOAD DUP1 SWAP2 SUB SWAP1 RETURN JUMPDEST PUSH1 0x0 DUP1 PUSH1 0x60 DUP1 PUSH1 0x60 DUP1 PUSH1 0x0 DUP1 PUSH1 0x0 SWAP1 SLOAD SWAP1 PUSH2 0x100 EXP SWAP1 DIV PUSH20 0xFFFFFFFFFFFFFFFFFFFFFFFFFFFFFFFFFFFFFFFF AND PUSH1 0x1 PUSH1 0x0 SWAP1 SLOAD SWAP1 PUSH2 0x100 EXP SWAP1 DIV PUSH20 0xFFFFFFFFFFFFFFFFFFFFFFFFFFFFFFFFFFFFFFFF AND PUSH1 0x2 PUSH1 0x3 PUSH1 0x4 PUSH1 0x5 PUSH1 0x7 SLOAD DUP5 DUP1 SLOAD PUSH2 0x271 SWAP1 PUSH2 0xCEF JUMP JUMPDEST DUP1 PUSH1 0x1F ADD PUSH1 0x20 DUP1 SWAP2 DIV MUL PUSH1 0x20 ADD PUSH1 0x40 MLOAD SWAP1 DUP2 ADD PUSH1 0x40 MSTORE DUP1 SWAP3 SWAP2 SWAP1 DUP2 DUP2 MSTORE PUSH1 0x20 ADD DUP3 DUP1 SLOAD PUSH2 0x29D SWAP1 PUSH2 0xCEF JUMP JUMPDEST DUP1 ISZERO PUSH2 0x2EA JUMPI DUP1 PUSH1 0x1F LT PUSH2 0x2BF JUMPI PUSH2 0x100 DUP1 DUP4 SLOAD DIV MUL DUP4 MSTORE SWAP2 PUSH1 0x20 ADD SWAP2 PUSH2 0x2EA JUMP JUMPDEST DUP3 ADD SWAP2 SWAP1 PUSH1 0x0 MSTORE PUSH1 0x20 PUSH1 0x0 KECCAK256 SWAP1 JUMPDEST DUP2 SLOAD DUP2 MSTORE SWAP1 PUSH1 0x1 ADD SWAP1 PUSH1 0x20 ADD DUP1 DUP4 GT PUSH2 0x2CD JUMPI DUP3 SWAP1 SUB PUSH1 0x1F AND DUP3 ADD SWAP2 JUMPDEST POP POP POP POP POP SWAP5 POP DUP4 DUP1 SLOAD PUSH2 0x2FD SWAP1 PUSH2 0xCEF JUMP JUMPDEST DUP1 PUSH1 0x1F ADD PUSH1 0x20 DUP1 SWAP2 DIV MUL PUSH1 0x20 ADD PUSH1 0x40 MLOAD SWAP1 DUP2 ADD PUSH1 0x40 MSTORE DUP1 SWAP3 SWAP2 SWAP1 DUP2 DUP2 MSTORE PUSH1 0x20 ADD DUP3 DUP1 SLOAD PUSH2 0x329 SWAP1 PUSH2 0xCEF JUMP JUMPDEST DUP1 ISZERO PUSH2 0x376 JUMPI DUP1 PUSH1 0x1F LT PUSH2 0x34B JUMPI PUSH2 0x100 DUP1 DUP4 SLOAD DIV MUL DUP4 MSTORE SWAP2 PUSH1 0x20 ADD SWAP2 PUSH2 0x376 JUMP JUMPDEST DUP3 ADD SWAP2 SWAP1 PUSH1 0x0 MSTORE PUSH1 0x20 PUSH1 0x0 KECCAK256 SWAP1 JUMPDEST DUP2 SLOAD DUP2 MSTORE SWAP1 PUSH1 0x1 ADD SWAP1 PUSH1 0x20 ADD DUP1 DUP4 GT PUSH2 0x359 JUMPI DUP3 SWAP1 SUB PUSH1 0x1F AND DUP3 ADD SWAP2 JUMPDEST POP POP POP POP POP SWAP4 POP DUP3 DUP1 SLOAD DUP1 PUSH1 0x20 MUL PUSH1 0x20 ADD PUSH1 0x40 MLOAD SWAP1 DUP2 ADD PUSH1 0x40 MSTORE DUP1 SWAP3 SWAP2 SWAP1 DUP2 DUP2 MSTORE PUSH1 0x20 ADD DUP3 DUP1 SLOAD DUP1 ISZERO PUSH2 0x3FE JUMPI PUSH1 0x20 MUL DUP3 ADD SWAP2 SWAP1 PUSH1 0x0 MSTORE PUSH1 0x20 PUSH1 0x0 KECCAK256 SWAP1 JUMPDEST DUP2 PUSH1 0x0 SWAP1 SLOAD SWAP1 PUSH2 0x100 EXP SWAP1 DIV PUSH20 0xFFFFFFFFFFFFFFFFFFFFFFFFFFFFFFFFFFFFFFFF AND PUSH20 0xFFFFFFFFFFFFFFFFFFFFFFFFFFFFFFFFFFFFFFFF AND DUP2 MSTORE PUSH1 0x20 ADD SWAP1 PUSH1 0x1 ADD SWAP1 DUP1 DUP4 GT PUSH2 0x3B4 JUMPI JUMPDEST POP POP POP POP POP SWAP3 POP DUP2 DUP1 SLOAD DUP1 PUSH1 0x20 MUL PUSH1 0x20 ADD PUSH1 0x40 MLOAD SWAP1 DUP2 ADD PUSH1 0x40 MSTORE DUP1 SWAP3 SWAP2 SWAP1 DUP2 DUP2 MSTORE PUSH1 0x20 ADD DUP3 DUP1 SLOAD DUP1 ISZERO PUSH2 0x486 JUMPI PUSH1 0x20 MUL DUP3 ADD SWAP2 SWAP1 PUSH1 0x0 MSTORE PUSH1 0x20 PUSH1 0x0 KECCAK256 SWAP1 JUMPDEST DUP2 PUSH1 0x0 SWAP1 SLOAD SWAP1 PUSH2 0x100 EXP SWAP1 DIV PUSH20 0xFFFFFFFFFFFFFFFFFFFFFFFFFFFFFFFFFFFFFFFF AND PUSH20 0xFFFFFFFFFFFFFFFFFFFFFFFFFFFFFFFFFFFFFFFF AND DUP2 MSTORE PUSH1 0x20 ADD SWAP1 PUSH1 0x1 ADD SWAP1 DUP1 DUP4 GT PUSH2 0x43C JUMPI JUMPDEST POP POP POP POP POP SWAP2 POP SWAP7 POP SWAP7 POP SWAP7 POP SWAP7 POP SWAP7 POP SWAP7 POP SWAP7 POP SWAP1 SWAP2 SWAP3 SWAP4 SWAP5 SWAP6 SWAP7 JUMP JUMPDEST PUSH1 0x0 DUP1 SLOAD SWAP1 PUSH2 0x100 EXP SWAP1 DIV PUSH20 0xFFFFFFFFFFFFFFFFFFFFFFFFFFFFFFFFFFFFFFFF AND DUP2 JUMP JUMPDEST PUSH1 0x2 DUP1 SLOAD PUSH2 0x4D5 SWAP1 PUSH2 0xCEF JUMP JUMPDEST DUP1 PUSH1 0x1F ADD PUSH1 0x20 DUP1 SWAP2 DIV MUL PUSH1 0x20 ADD PUSH1 0x40 MLOAD SWAP1 DUP2 ADD PUSH1 0x40 MSTORE DUP1 SWAP3 SWAP2 SWAP1 DUP2 DUP2 MSTORE PUSH1 0x20 ADD DUP3 DUP1 SLOAD PUSH2 0x501 SWAP1 PUSH2 0xCEF JUMP JUMPDEST DUP1 ISZERO PUSH2 0x54E JUMPI DUP1 PUSH1 0x1F LT PUSH2 0x523 JUMPI PUSH2 0x100 DUP1 DUP4 SLOAD DIV MUL DUP4 MSTORE SWAP2 PUSH1 0x20 ADD SWAP2 PUSH2 0x54E JUMP JUMPDEST DUP3 ADD SWAP2 SWAP1 PUSH1 0x0 MSTORE PUSH1 0x20 PUSH1 0x0 KECCAK256 SWAP1 JUMPDEST DUP2 SLOAD DUP2 MSTORE SWAP1 PUSH1 0x1 ADD SWAP1 PUSH1 0x20 ADD DUP1 DUP4 GT PUSH2 0x531 JUMPI DUP3 SWAP1 SUB PUSH1 0x1F AND DUP3 ADD SWAP2 JUMPDEST POP POP POP POP POP DUP2 JUMP JUMPDEST PUSH1 0x0 DUP1 SLOAD SWAP1 PUSH2 0x100 EXP SWAP1 DIV PUSH20 0xFFFFFFFFFFFFFFFFFFFFFFFFFFFFFFFFFFFFFFFF AND PUSH20 0xFFFFFFFFFFFFFFFFFFFFFFFFFFFFFFFFFFFFFFFF AND CALLER PUSH20 0xFFFFFFFFFFFFFFFFFFFFFFFFFFFFFFFFFFFFFFFF AND EQ PUSH2 0x5E4 JUMPI PUSH1 0x40 MLOAD PUSH32 0x8C379A000000000000000000000000000000000000000000000000000000000 DUP2 MSTORE PUSH1 0x4 ADD PUSH2 0x5DB SWAP1 PUSH2 0xDB9 JUMP JUMPDEST PUSH1 0x40 MLOAD DUP1 SWAP2 SUB SWAP1 REVERT JUMPDEST PUSH1 0x4 DUP2 SWAP1 DUP1 PUSH1 0x1 DUP2 SLOAD ADD DUP1 DUP3 SSTORE DUP1 SWAP2 POP POP PUSH1 0x1 SWAP1 SUB SWAP1 PUSH1 0x0 MSTORE PUSH1 0x20 PUSH1 0x0 KECCAK256 ADD PUSH1 0x0 SWAP1 SWAP2 SWAP1 SWAP2 SWAP1 SWAP2 PUSH2 0x100 EXP DUP2 SLOAD DUP2 PUSH20 0xFFFFFFFFFFFFFFFFFFFFFFFFFFFFFFFFFFFFFFFF MUL NOT AND SWAP1 DUP4 PUSH20 0xFFFFFFFFFFFFFFFFFFFFFFFFFFFFFFFFFFFFFFFF AND MUL OR SWAP1 SSTORE POP POP JUMP JUMPDEST PUSH1 0x0 DUP1 SLOAD SWAP1 PUSH2 0x100 EXP SWAP1 DIV PUSH20 0xFFFFFFFFFFFFFFFFFFFFFFFFFFFFFFFFFFFFFFFF AND PUSH20 0xFFFFFFFFFFFFFFFFFFFFFFFFFFFFFFFFFFFFFFFF AND CALLER PUSH20 0xFFFFFFFFFFFFFFFFFFFFFFFFFFFFFFFFFFFFFFFF AND EQ PUSH2 0x6D8 JUMPI PUSH1 0x40 MLOAD PUSH32 0x8C379A000000000000000000000000000000000000000000000000000000000 DUP2 MSTORE PUSH1 0x4 ADD PUSH2 0x6CF SWAP1 PUSH2 0xDB9 JUMP JUMPDEST PUSH1 0x40 MLOAD DUP1 SWAP2 SUB SWAP1 REVERT JUMPDEST PUSH1 0x5 DUP2 SWAP1 DUP1 PUSH1 0x1 DUP2 SLOAD ADD DUP1 DUP3 SSTORE DUP1 SWAP2 POP POP PUSH1 0x1 SWAP1 SUB SWAP1 PUSH1 0x0 MSTORE PUSH1 0x20 PUSH1 0x0 KECCAK256 ADD PUSH1 0x0 SWAP1 SWAP2 SWAP1 SWAP2 SWAP1 SWAP2 PUSH2 0x100 EXP DUP2 SLOAD DUP2 PUSH20 0xFFFFFFFFFFFFFFFFFFFFFFFFFFFFFFFFFFFFFFFF MUL NOT AND SWAP1 DUP4 PUSH20 0xFFFFFFFFFFFFFFFFFFFFFFFFFFFFFFFFFFFFFFFF AND MUL OR SWAP1 SSTORE POP POP JUMP JUMPDEST PUSH1 0x6 PUSH1 0x0 CALLER PUSH20 0xFFFFFFFFFFFFFFFFFFFFFFFFFFFFFFFFFFFFFFFF AND PUSH20 0xFFFFFFFFFFFFFFFFFFFFFFFFFFFFFFFFFFFFFFFF AND DUP2 MSTORE PUSH1 0x20 ADD SWAP1 DUP2 MSTORE PUSH1 0x20 ADD PUSH1 0x0 KECCAK256 PUSH1 0x0 SWAP1 SLOAD SWAP1 PUSH2 0x100 EXP SWAP1 DIV PUSH1 0xFF AND ISZERO PUSH2 0x7CB JUMPI PUSH1 0x40 MLOAD PUSH32 0x8C379A000000000000000000000000000000000000000000000000000000000 DUP2 MSTORE PUSH1 0x4 ADD PUSH2 0x7C2 SWAP1 PUSH2 0xE25 JUMP JUMPDEST PUSH1 0x40 MLOAD DUP1 SWAP2 SUB SWAP1 REVERT JUMPDEST PUSH1 0x1 PUSH1 0x6 PUSH1 0x0 CALLER PUSH20 0xFFFFFFFFFFFFFFFFFFFFFFFFFFFFFFFFFFFFFFFF AND PUSH20 0xFFFFFFFFFFFFFFFFFFFFFFFFFFFFFFFFFFFFFFFF AND DUP2 MSTORE PUSH1 0x20 ADD SWAP1 DUP2 MSTORE PUSH1 0x20 ADD PUSH1 0x0 KECCAK256 PUSH1 0x0 PUSH2 0x100 EXP DUP2 SLOAD DUP2 PUSH1 0xFF MUL NOT AND SWAP1 DUP4 ISZERO ISZERO MUL OR SWAP1 SSTORE POP PUSH1 0x7 PUSH1 0x0 DUP2 SLOAD DUP1 SWAP3 SWAP2 SWAP1 PUSH2 0x836 SWAP1 PUSH2 0xE74 JUMP JUMPDEST SWAP2 SWAP1 POP SSTORE POP JUMP JUMPDEST PUSH1 0x1 PUSH1 0x0 SWAP1 SLOAD SWAP1 PUSH2 0x100 EXP SWAP1 DIV PUSH20 0xFFFFFFFFFFFFFFFFFFFFFFFFFFFFFFFFFFFFFFFF AND DUP2 JUMP JUMPDEST PUSH1 0x5 DUP2 DUP2 SLOAD DUP2 LT PUSH2 0x873 JUMPI PUSH1 0x0 DUP1 REVERT JUMPDEST SWAP1 PUSH1 0x0 MSTORE PUSH1 0x20 PUSH1 0x0 KECCAK256 ADD PUSH1 0x0 SWAP2 POP SLOAD SWAP1 PUSH2 0x100 EXP SWAP1 DIV PUSH20 0xFFFFFFFFFFFFFFFFFFFFFFFFFFFFFFFFFFFFFFFF AND DUP2 JUMP JUMPDEST PUSH1 0x3 DUP1 SLOAD PUSH2 0x8AF SWAP1 PUSH2 0xCEF JUMP JUMPDEST DUP1 PUSH1 0x1F ADD PUSH1 0x20 DUP1 SWAP2 DIV MUL PUSH1 0x20 ADD PUSH1 0x40 MLOAD SWAP1 DUP2 ADD PUSH1 0x40 MSTORE DUP1 SWAP3 SWAP2 SWAP1 DUP2 DUP2 MSTORE PUSH1 0x20 ADD DUP3 DUP1 SLOAD PUSH2 0x8DB SWAP1 PUSH2 0xCEF JUMP JUMPDEST DUP1 ISZERO PUSH2 0x928 JUMPI DUP1 PUSH1 0x1F LT PUSH2 0x8FD JUMPI PUSH2 0x100 DUP1 DUP4 SLOAD DIV MUL DUP4 MSTORE SWAP2 PUSH1 0x20 ADD SWAP2 PUSH2 0x928 JUMP JUMPDEST DUP3 ADD SWAP2 SWAP1 PUSH1 0x0 MSTORE PUSH1 0x20 PUSH1 0x0 KECCAK256 SWAP1 JUMPDEST DUP2 SLOAD DUP2 MSTORE SWAP1 PUSH1 0x1 ADD SWAP1 PUSH1 0x20 ADD DUP1 DUP4 GT PUSH2 0x90B JUMPI DUP3 SWAP1 SUB PUSH1 0x1F AND DUP3 ADD SWAP2 JUMPDEST POP POP POP POP POP DUP2 JUMP JUMPDEST PUSH1 0x7 SLOAD DUP2 JUMP JUMPDEST PUSH1 0x4 DUP2 DUP2 SLOAD DUP2 LT PUSH2 0x946 JUMPI PUSH1 0x0 DUP1 REVERT JUMPDEST SWAP1 PUSH1 0x0 MSTORE PUSH1 0x20 PUSH1 0x0 KECCAK256 ADD PUSH1 0x0 SWAP2 POP SLOAD SWAP1 PUSH2 0x100 EXP SWAP1 DIV PUSH20 0xFFFFFFFFFFFFFFFFFFFFFFFFFFFFFFFFFFFFFFFF AND DUP2 JUMP JUMPDEST PUSH1 0x0 PUSH20 0xFFFFFFFFFFFFFFFFFFFFFFFFFFFFFFFFFFFFFFFF DUP3 AND SWAP1 POP SWAP2 SWAP1 POP JUMP JUMPDEST PUSH1 0x0 PUSH2 0x9A0 DUP3 PUSH2 0x975 JUMP JUMPDEST SWAP1 POP SWAP2 SWAP1 POP JUMP JUMPDEST PUSH2 0x9B0 DUP2 PUSH2 0x995 JUMP JUMPDEST DUP3 MSTORE POP POP JUMP JUMPDEST PUSH1 0x0 DUP2 MLOAD SWAP1 POP SWAP2 SWAP1 POP JUMP JUMPDEST PUSH1 0x0 DUP3 DUP3 MSTORE PUSH1 0x20 DUP3 ADD SWAP1 POP SWAP3 SWAP2 POP POP JUMP JUMPDEST PUSH1 0x0 JUMPDEST DUP4 DUP2 LT ISZERO PUSH2 0x9F0 JUMPI DUP1 DUP3 ADD MLOAD DUP2 DUP5 ADD MSTORE PUSH1 0x20 DUP2 ADD SWAP1 POP PUSH2 0x9D5 JUMP JUMPDEST DUP4 DUP2 GT ISZERO PUSH2 0x9FF JUMPI PUSH1 0x0 DUP5 DUP5 ADD MSTORE JUMPDEST POP POP POP POP JUMP JUMPDEST PUSH1 0x0 PUSH1 0x1F NOT PUSH1 0x1F DUP4 ADD AND SWAP1 POP SWAP2 SWAP1 POP JUMP JUMPDEST PUSH1 0x0 PUSH2 0xA21 DUP3 PUSH2 0x9B6 JUMP JUMPDEST PUSH2 0xA2B DUP2 DUP6 PUSH2 0x9C1 JUMP JUMPDEST SWAP4 POP PUSH2 0xA3B DUP2 DUP6 PUSH1 0x20 DUP7 ADD PUSH2 0x9D2 JUMP JUMPDEST PUSH2 0xA44 DUP2 PUSH2 0xA05 JUMP JUMPDEST DUP5 ADD SWAP2 POP POP SWAP3 SWAP2 POP POP JUMP JUMPDEST PUSH1 0x0 DUP2 MLOAD SWAP1 POP SWAP2 SWAP1 POP JUMP JUMPDEST PUSH1 0x0 DUP3 DUP3 MSTORE PUSH1 0x20 DUP3 ADD SWAP1 POP SWAP3 SWAP2 POP POP JUMP JUMPDEST PUSH1 0x0 DUP2 SWAP1 POP PUSH1 0x20 DUP3 ADD SWAP1 POP SWAP2 SWAP1 POP JUMP JUMPDEST PUSH2 0xA84 DUP2 PUSH2 0x995 JUMP JUMPDEST DUP3 MSTORE POP POP JUMP JUMPDEST PUSH1 0x0 PUSH2 0xA96 DUP4 DUP4 PUSH2 0xA7B JUMP JUMPDEST PUSH1 0x20 DUP4 ADD SWAP1 POP SWAP3 SWAP2 POP POP JUMP JUMPDEST PUSH1 0x0 PUSH1 0x20 DUP3 ADD SWAP1 POP SWAP2 SWAP1 POP JUMP JUMPDEST PUSH1 0x0 PUSH2 0xABA DUP3 PUSH2 0xA4F JUMP JUMPDEST PUSH2 0xAC4 DUP2 DUP6 PUSH2 0xA5A JUMP JUMPDEST SWAP4 POP PUSH2 0xACF DUP4 PUSH2 0xA6B JUMP JUMPDEST DUP1 PUSH1 0x0 JUMPDEST DUP4 DUP2 LT ISZERO PUSH2 0xB00 JUMPI DUP2 MLOAD PUSH2 0xAE7 DUP9 DUP3 PUSH2 0xA8A JUMP JUMPDEST SWAP8 POP PUSH2 0xAF2 DUP4 PUSH2 0xAA2 JUMP JUMPDEST SWAP3 POP POP PUSH1 0x1 DUP2 ADD SWAP1 POP PUSH2 0xAD3 JUMP JUMPDEST POP DUP6 SWAP4 POP POP POP POP SWAP3 SWAP2 POP POP JUMP JUMPDEST PUSH1 0x0 DUP2 SWAP1 POP SWAP2 SWAP1 POP JUMP JUMPDEST PUSH2 0xB20 DUP2 PUSH2 0xB0D JUMP JUMPDEST DUP3 MSTORE POP POP JUMP JUMPDEST PUSH1 0x0 PUSH1 0xE0 DUP3 ADD SWAP1 POP PUSH2 0xB3B PUSH1 0x0 DUP4 ADD DUP11 PUSH2 0x9A7 JUMP JUMPDEST PUSH2 0xB48 PUSH1 0x20 DUP4 ADD DUP10 PUSH2 0x9A7 JUMP JUMPDEST DUP2 DUP2 SUB PUSH1 0x40 DUP4 ADD MSTORE PUSH2 0xB5A DUP2 DUP9 PUSH2 0xA16 JUMP JUMPDEST SWAP1 POP DUP2 DUP2 SUB PUSH1 0x60 DUP4 ADD MSTORE PUSH2 0xB6E DUP2 DUP8 PUSH2 0xA16 JUMP JUMPDEST SWAP1 POP DUP2 DUP2 SUB PUSH1 0x80 DUP4 ADD MSTORE PUSH2 0xB82 DUP2 DUP7 PUSH2 0xAAF JUMP JUMPDEST SWAP1 POP DUP2 DUP2 SUB PUSH1 0xA0 DUP4 ADD MSTORE PUSH2 0xB96 DUP2 DUP6 PUSH2 0xAAF JUMP JUMPDEST SWAP1 POP PUSH2 0xBA5 PUSH1 0xC0 DUP4 ADD DUP5 PUSH2 0xB17 JUMP JUMPDEST SWAP9 SWAP8 POP POP POP POP POP POP POP POP JUMP JUMPDEST PUSH1 0x0 PUSH1 0x20 DUP3 ADD SWAP1 POP PUSH2 0xBC6 PUSH1 0x0 DUP4 ADD DUP5 PUSH2 0x9A7 JUMP JUMPDEST SWAP3 SWAP2 POP POP JUMP JUMPDEST PUSH1 0x0 PUSH1 0x20 DUP3 ADD SWAP1 POP DUP2 DUP2 SUB PUSH1 0x0 DUP4 ADD MSTORE PUSH2 0xBE6 DUP2 DUP5 PUSH2 0xA16 JUMP JUMPDEST SWAP1 POP SWAP3 SWAP2 POP POP JUMP JUMPDEST PUSH1 0x0 DUP1 REVERT JUMPDEST PUSH2 0xBFC DUP2 PUSH2 0x995 JUMP JUMPDEST DUP2 EQ PUSH2 0xC07 JUMPI PUSH1 0x0 DUP1 REVERT JUMPDEST POP JUMP JUMPDEST PUSH1 0x0 DUP2 CALLDATALOAD SWAP1 POP PUSH2 0xC19 DUP2 PUSH2 0xBF3 JUMP JUMPDEST SWAP3 SWAP2 POP POP JUMP JUMPDEST PUSH1 0x0 PUSH1 0x20 DUP3 DUP5 SUB SLT ISZERO PUSH2 0xC35 JUMPI PUSH2 0xC34 PUSH2 0xBEE JUMP JUMPDEST JUMPDEST PUSH1 0x0 PUSH2 0xC43 DUP5 DUP3 DUP6 ADD PUSH2 0xC0A JUMP JUMPDEST SWAP2 POP POP SWAP3 SWAP2 POP POP JUMP JUMPDEST PUSH2 0xC55 DUP2 PUSH2 0xB0D JUMP JUMPDEST DUP2 EQ PUSH2 0xC60 JUMPI PUSH1 0x0 DUP1 REVERT JUMPDEST POP JUMP JUMPDEST PUSH1 0x0 DUP2 CALLDATALOAD SWAP1 POP PUSH2 0xC72 DUP2 PUSH2 0xC4C JUMP JUMPDEST SWAP3 SWAP2 POP POP JUMP JUMPDEST PUSH1 0x0 PUSH1 0x20 DUP3 DUP5 SUB SLT ISZERO PUSH2 0xC8E JUMPI PUSH2 0xC8D PUSH2 0xBEE JUMP JUMPDEST JUMPDEST PUSH1 0x0 PUSH2 0xC9C DUP5 DUP3 DUP6 ADD PUSH2 0xC63 JUMP JUMPDEST SWAP2 POP POP SWAP3 SWAP2 POP POP JUMP JUMPDEST PUSH1 0x0 PUSH1 0x20 DUP3 ADD SWAP1 POP PUSH2 0xCBA PUSH1 0x0 DUP4 ADD DUP5 PUSH2 0xB17 JUMP JUMPDEST SWAP3 SWAP2 POP POP JUMP JUMPDEST PUSH32 0x4E487B7100000000000000000000000000000000000000000000000000000000 PUSH1 0x0 MSTORE PUSH1 0x22 PUSH1 0x4 MSTORE PUSH1 0x24 PUSH1 0x0 REVERT JUMPDEST PUSH1 0x0 PUSH1 0x2 DUP3 DIV SWAP1 POP PUSH1 0x1 DUP3 AND DUP1 PUSH2 0xD07 JUMPI PUSH1 0x7F DUP3 AND SWAP2 POP JUMPDEST PUSH1 0x20 DUP3 LT DUP2 EQ ISZERO PUSH2 0xD1B JUMPI PUSH2 0xD1A PUSH2 0xCC0 JUMP JUMPDEST JUMPDEST POP SWAP2 SWAP1 POP JUMP JUMPDEST PUSH32 0x546869732066756E6374696F6E2068617320746F2062652063616C6C65642066 PUSH1 0x0 DUP3 ADD MSTORE PUSH32 0x726F6D207468652073746F727920636F6E747261637420627920616E20616363 PUSH1 0x20 DUP3 ADD MSTORE PUSH32 0x657074656420617574686F72206F6E6C79000000000000000000000000000000 PUSH1 0x40 DUP3 ADD MSTORE POP JUMP JUMPDEST PUSH1 0x0 PUSH2 0xDA3 PUSH1 0x51 DUP4 PUSH2 0x9C1 JUMP JUMPDEST SWAP2 POP PUSH2 0xDAE DUP3 PUSH2 0xD21 JUMP JUMPDEST PUSH1 0x60 DUP3 ADD SWAP1 POP SWAP2 SWAP1 POP JUMP JUMPDEST PUSH1 0x0 PUSH1 0x20 DUP3 ADD SWAP1 POP DUP2 DUP2 SUB PUSH1 0x0 DUP4 ADD MSTORE PUSH2 0xDD2 DUP2 PUSH2 0xD96 JUMP JUMPDEST SWAP1 POP SWAP2 SWAP1 POP JUMP JUMPDEST PUSH32 0x596F75206C696B656420746869732073746F7279206265666F72650000000000 PUSH1 0x0 DUP3 ADD MSTORE POP JUMP JUMPDEST PUSH1 0x0 PUSH2 0xE0F PUSH1 0x1B DUP4 PUSH2 0x9C1 JUMP JUMPDEST SWAP2 POP PUSH2 0xE1A DUP3 PUSH2 0xDD9 JUMP JUMPDEST PUSH1 0x20 DUP3 ADD SWAP1 POP SWAP2 SWAP1 POP JUMP JUMPDEST PUSH1 0x0 PUSH1 0x20 DUP3 ADD SWAP1 POP DUP2 DUP2 SUB PUSH1 0x0 DUP4 ADD MSTORE PUSH2 0xE3E DUP2 PUSH2 0xE02 JUMP JUMPDEST SWAP1 POP SWAP2 SWAP1 POP JUMP JUMPDEST PUSH32 0x4E487B7100000000000000000000000000000000000000000000000000000000 PUSH1 0x0 MSTORE PUSH1 0x11 PUSH1 0x4 MSTORE PUSH1 0x24 PUSH1 0x0 REVERT JUMPDEST PUSH1 0x0 PUSH2 0xE7F DUP3 PUSH2 0xB0D JUMP JUMPDEST SWAP2 POP PUSH32 0xFFFFFFFFFFFFFFFFFFFFFFFFFFFFFFFFFFFFFFFFFFFFFFFFFFFFFFFFFFFFFFFF DUP3 EQ ISZERO PUSH2 0xEB2 JUMPI PUSH2 0xEB1 PUSH2 0xE45 JUMP JUMPDEST JUMPDEST PUSH1 0x1 DUP3 ADD SWAP1 POP SWAP2 SWAP1 POP JUMP INVALID LOG2 PUSH5 0x6970667358 0x22 SLT KECCAK256 0xB6 DUP4 CREATE2 PC SLT KECCAK256 DUP2 DELEGATECALL 0xF6 PUSH7 0x3BB08BD71FE2AA CALLDATALOAD CHAINID DUP3 0xCC LOG0 ADDMOD 0xEE ADD 0xA6 0xE3 CALL PUSH21 0xEE9D0E64736F6C63430008090033A2646970667358 0x22 SLT KECCAK256 0xC7 PUSH10 0x552A77A791302E110CFE AND 0x5F 0xAE SWAP9 0xBD 0x2D 0xC4 PUSH18 0x6D5881541C96C497A0BA291164736F6C6343 STOP ADDMOD MULMOD STOP CALLER LOG2 PUSH5 0x6970667358 0x22 SLT KECCAK256 DUP16 0xA7 0xD3 SGT 0xEE 0xCF 0xF7 0xBF DUP10 0xA7 0xEE 0xDA LOG3 SSTORE 0xFB 0x27 STATICCALL 0x2D 0xDC 0xB8 REVERT 0x2B SWAP15 0xF7 PUSH27 0xED78AF8836CCA064736F6C63430008090033000000000000000000 "},"gasEstimates":{"creation":{"codeDepositCost":"4660800","executionCost":"5462","totalCost":"4666262"},"external":{"addAuthorUsername(string)":"infinite","authorUsernames(address)":"infinite","createStory(string,string,string,string)":"infinite","deployedStories(uint256)":"4934","getDeployedStories()":"infinite"}},"methodIdentifiers":{"addAuthorUsername(string)":"5048bd37","authorUsernames(address)":"adb6a397","createStory(string,string,string,string)":"590c1e78","deployedStories(uint256)":"18351ea7","getDeployedStories()":"2ff2bdd5"}},"storageLayout":{"storage":[{"astId":4,"contract":"Story.sol:StoryFactory","label":"deployedStories","offset":0,"slot":"0","type":"t_array(t_address)dyn_storage"},{"astId":8,"contract":"Story.sol:StoryFactory","label":"authorUsernames","offset":0,"slot":"1","type":"t_mapping(t_address,t_string_storage)"}],"types":{"t_address":{"encoding":"inplace","label":"address","numberOfBytes":"20"},"t_array(t_address)dyn_storage":{"base":"t_address","encoding":"dynamic_array","label":"address[]","numberOfBytes":"32"},"t_mapping(t_address,t_string_storage)":{"encoding":"mapping","key":"t_address","label":"mapping(address => string)","numberOfBytes":"32","value":"t_string_storage"},"t_string_storage":{"encoding":"bytes","label":"string","numberOfBytes":"32"}}},"userdoc":{"kind":"user","methods":{},"version":1}}