{"abi":[{"inputs":[{"internalType":"string","name":"_title","type":"string"},{"internalType":"string","name":"_genre","type":"string"},{"internalType":"string","name":"_mainIdea","type":"string"}],"name":"createStory","outputs":[],"stateMutability":"nonpayable","type":"function"},{"inputs":[{"internalType":"uint256","name":"","type":"uint256"}],"name":"deployedStories","outputs":[{"internalType":"address","name":"","type":"address"}],"stateMutability":"view","type":"function"},{"inputs":[],"name":"getDeployedStories","outputs":[{"internalType":"address[]","name":"","type":"address[]"}],"stateMutability":"view","type":"function"}],"devdoc":{"kind":"dev","methods":{},"version":1},"evm":{"assembly":"    /* \"Story.sol\":431:853  contract StoryFactory {... */\n  mstore(0x40, 0x80)\n  callvalue\n  dup1\n  iszero\n  tag_1\n  jumpi\n  0x00\n  dup1\n  revert\ntag_1:\n  pop\n  dataSize(sub_0)\n  dup1\n  dataOffset(sub_0)\n  0x00\n  codecopy\n  0x00\n  return\nstop\n\nsub_0: assembly {\n        /* \"Story.sol\":431:853  contract StoryFactory {... */\n      mstore(0x40, 0x80)\n      callvalue\n      dup1\n      iszero\n      tag_1\n      jumpi\n      0x00\n      dup1\n      revert\n    tag_1:\n      pop\n      jumpi(tag_2, lt(calldatasize, 0x04))\n      shr(0xe0, calldataload(0x00))\n      dup1\n      0x18351ea7\n      eq\n      tag_3\n      jumpi\n      dup1\n      0x2ff2bdd5\n      eq\n      tag_4\n      jumpi\n      dup1\n      0xf4b955f3\n      eq\n      tag_5\n      jumpi\n    tag_2:\n      0x00\n      dup1\n      revert\n        /* \"Story.sol\":460:492  address[] public deployedStories */\n    tag_3:\n      tag_6\n      0x04\n      dup1\n      calldatasize\n      sub\n      dup2\n      add\n      swap1\n      tag_7\n      swap2\n      swap1\n      tag_8\n      jump\t// in\n    tag_7:\n      tag_9\n      jump\t// in\n    tag_6:\n      mload(0x40)\n      tag_10\n      swap2\n      swap1\n      tag_11\n      jump\t// in\n    tag_10:\n      mload(0x40)\n      dup1\n      swap2\n      sub\n      swap1\n      return\n        /* \"Story.sol\":740:850  function getDeployedStories() public view returns (address[] memory) {... */\n    tag_4:\n      tag_12\n      tag_13\n      jump\t// in\n    tag_12:\n      mload(0x40)\n      tag_14\n      swap2\n      swap1\n      tag_15\n      jump\t// in\n    tag_14:\n      mload(0x40)\n      dup1\n      swap2\n      sub\n      swap1\n      return\n        /* \"Story.sol\":501:732  function createStory(string memory _title, string memory _genre, string memory _mainIdea) public {... */\n    tag_5:\n      tag_16\n      0x04\n      dup1\n      calldatasize\n      sub\n      dup2\n      add\n      swap1\n      tag_17\n      swap2\n      swap1\n      tag_18\n      jump\t// in\n    tag_17:\n      tag_19\n      jump\t// in\n    tag_16:\n      stop\n        /* \"Story.sol\":460:492  address[] public deployedStories */\n    tag_9:\n      0x00\n      dup2\n      dup2\n      sload\n      dup2\n      lt\n      tag_20\n      jumpi\n      0x00\n      dup1\n      revert\n    tag_20:\n      swap1\n      0x00\n      mstore\n      keccak256(0x00, 0x20)\n      add\n      0x00\n      swap2\n      pop\n      sload\n      swap1\n      0x0100\n      exp\n      swap1\n      div\n      0xffffffffffffffffffffffffffffffffffffffff\n      and\n      dup2\n      jump\t// out\n        /* \"Story.sol\":740:850  function getDeployedStories() public view returns (address[] memory) {... */\n    tag_13:\n        /* \"Story.sol\":791:807  address[] memory */\n      0x60\n        /* \"Story.sol\":827:842  deployedStories */\n      0x00\n        /* \"Story.sol\":820:842  return deployedStories */\n      dup1\n      sload\n      dup1\n      0x20\n      mul\n      0x20\n      add\n      mload(0x40)\n      swap1\n      dup2\n      add\n      0x40\n      mstore\n      dup1\n      swap3\n      swap2\n      swap1\n      dup2\n      dup2\n      mstore\n      0x20\n      add\n      dup3\n      dup1\n      sload\n      dup1\n      iszero\n      tag_23\n      jumpi\n      0x20\n      mul\n      dup3\n      add\n      swap2\n      swap1\n      0x00\n      mstore\n      keccak256(0x00, 0x20)\n      swap1\n    tag_24:\n      dup2\n      0x00\n      swap1\n      sload\n      swap1\n      0x0100\n      exp\n      swap1\n      div\n      0xffffffffffffffffffffffffffffffffffffffff\n      and\n      0xffffffffffffffffffffffffffffffffffffffff\n      and\n      dup2\n      mstore\n      0x20\n      add\n      swap1\n      0x01\n      add\n      swap1\n      dup1\n      dup4\n      gt\n      tag_24\n      jumpi\n    tag_23:\n      pop\n      pop\n      pop\n      pop\n      pop\n      swap1\n      pop\n        /* \"Story.sol\":740:850  function getDeployedStories() public view returns (address[] memory) {... */\n      swap1\n      jump\t// out\n        /* \"Story.sol\":501:732  function createStory(string memory _title, string memory _genre, string memory _mainIdea) public {... */\n    tag_19:\n        /* \"Story.sol\":609:623  Story newStory */\n      0x00\n        /* \"Story.sol\":636:646  msg.sender */\n      caller\n        /* \"Story.sol\":648:654  _title */\n      dup5\n        /* \"Story.sol\":656:662  _genre */\n      dup5\n        /* \"Story.sol\":664:673  _mainIdea */\n      dup5\n        /* \"Story.sol\":626:674  new Story(msg.sender, _title, _genre, _mainIdea) */\n      mload(0x40)\n      tag_26\n      swap1\n      tag_27\n      jump\t// in\n    tag_26:\n      tag_28\n      swap5\n      swap4\n      swap3\n      swap2\n      swap1\n      tag_29\n      jump\t// in\n    tag_28:\n      mload(0x40)\n      dup1\n      swap2\n      sub\n      swap1\n      0x00\n      create\n      dup1\n      iszero\n      dup1\n      iszero\n      tag_30\n      jumpi\n      returndatasize\n      0x00\n      dup1\n      returndatacopy\n      revert(0x00, returndatasize)\n    tag_30:\n      pop\n        /* \"Story.sol\":609:674  Story newStory = new Story(msg.sender, _title, _genre, _mainIdea) */\n      swap1\n      pop\n        /* \"Story.sol\":685:700  deployedStories */\n      0x00\n        /* \"Story.sol\":714:722  newStory */\n      dup2\n        /* \"Story.sol\":685:724  deployedStories.push(address(newStory)) */\n      swap1\n      dup1\n      0x01\n      dup2\n      sload\n      add\n      dup1\n      dup3\n      sstore\n      dup1\n      swap2\n      pop\n      pop\n      0x01\n      swap1\n      sub\n      swap1\n      0x00\n      mstore\n      keccak256(0x00, 0x20)\n      add\n      0x00\n      swap1\n      swap2\n      swap1\n      swap2\n      swap1\n      swap2\n      0x0100\n      exp\n      dup2\n      sload\n      dup2\n      0xffffffffffffffffffffffffffffffffffffffff\n      mul\n      not\n      and\n      swap1\n      dup4\n      0xffffffffffffffffffffffffffffffffffffffff\n      and\n      mul\n      or\n      swap1\n      sstore\n      pop\n        /* \"Story.sol\":598:732  {... */\n      pop\n        /* \"Story.sol\":501:732  function createStory(string memory _title, string memory _genre, string memory _mainIdea) public {... */\n      pop\n      pop\n      pop\n      jump\t// out\n    tag_27:\n      dataSize(sub_0)\n      dup1\n      dataOffset(sub_0)\n      dup4\n      codecopy\n      add\n      swap1\n      jump\t// out\n        /* \"#utility.yul\":7:82   */\n    tag_32:\n        /* \"#utility.yul\":40:46   */\n      0x00\n        /* \"#utility.yul\":73:75   */\n      0x40\n        /* \"#utility.yul\":67:76   */\n      mload\n        /* \"#utility.yul\":57:76   */\n      swap1\n      pop\n        /* \"#utility.yul\":7:82   */\n      swap1\n      jump\t// out\n        /* \"#utility.yul\":88:205   */\n    tag_33:\n        /* \"#utility.yul\":197:198   */\n      0x00\n        /* \"#utility.yul\":194:195   */\n      dup1\n        /* \"#utility.yul\":187:199   */\n      revert\n        /* \"#utility.yul\":211:328   */\n    tag_34:\n        /* \"#utility.yul\":320:321   */\n      0x00\n        /* \"#utility.yul\":317:318   */\n      dup1\n        /* \"#utility.yul\":310:322   */\n      revert\n        /* \"#utility.yul\":334:411   */\n    tag_35:\n        /* \"#utility.yul\":371:378   */\n      0x00\n        /* \"#utility.yul\":400:405   */\n      dup2\n        /* \"#utility.yul\":389:405   */\n      swap1\n      pop\n        /* \"#utility.yul\":334:411   */\n      swap2\n      swap1\n      pop\n      jump\t// out\n        /* \"#utility.yul\":417:539   */\n    tag_36:\n        /* \"#utility.yul\":490:514   */\n      tag_68\n        /* \"#utility.yul\":508:513   */\n      dup2\n        /* \"#utility.yul\":490:514   */\n      tag_35\n      jump\t// in\n    tag_68:\n        /* \"#utility.yul\":483:488   */\n      dup2\n        /* \"#utility.yul\":480:515   */\n      eq\n        /* \"#utility.yul\":470:533   */\n      tag_69\n      jumpi\n        /* \"#utility.yul\":529:530   */\n      0x00\n        /* \"#utility.yul\":526:527   */\n      dup1\n        /* \"#utility.yul\":519:531   */\n      revert\n        /* \"#utility.yul\":470:533   */\n    tag_69:\n        /* \"#utility.yul\":417:539   */\n      pop\n      jump\t// out\n        /* \"#utility.yul\":545:684   */\n    tag_37:\n        /* \"#utility.yul\":591:596   */\n      0x00\n        /* \"#utility.yul\":629:635   */\n      dup2\n        /* \"#utility.yul\":616:636   */\n      calldataload\n        /* \"#utility.yul\":607:636   */\n      swap1\n      pop\n        /* \"#utility.yul\":645:678   */\n      tag_71\n        /* \"#utility.yul\":672:677   */\n      dup2\n        /* \"#utility.yul\":645:678   */\n      tag_36\n      jump\t// in\n    tag_71:\n        /* \"#utility.yul\":545:684   */\n      swap3\n      swap2\n      pop\n      pop\n      jump\t// out\n        /* \"#utility.yul\":690:1019   */\n    tag_8:\n        /* \"#utility.yul\":749:755   */\n      0x00\n        /* \"#utility.yul\":798:800   */\n      0x20\n        /* \"#utility.yul\":786:795   */\n      dup3\n        /* \"#utility.yul\":777:784   */\n      dup5\n        /* \"#utility.yul\":773:796   */\n      sub\n        /* \"#utility.yul\":769:801   */\n      slt\n        /* \"#utility.yul\":766:885   */\n      iszero\n      tag_73\n      jumpi\n        /* \"#utility.yul\":804:883   */\n      tag_74\n      tag_33\n      jump\t// in\n    tag_74:\n        /* \"#utility.yul\":766:885   */\n    tag_73:\n        /* \"#utility.yul\":924:925   */\n      0x00\n        /* \"#utility.yul\":949:1002   */\n      tag_75\n        /* \"#utility.yul\":994:1001   */\n      dup5\n        /* \"#utility.yul\":985:991   */\n      dup3\n        /* \"#utility.yul\":974:983   */\n      dup6\n        /* \"#utility.yul\":970:992   */\n      add\n        /* \"#utility.yul\":949:1002   */\n      tag_37\n      jump\t// in\n    tag_75:\n        /* \"#utility.yul\":939:1002   */\n      swap2\n      pop\n        /* \"#utility.yul\":895:1012   */\n      pop\n        /* \"#utility.yul\":690:1019   */\n      swap3\n      swap2\n      pop\n      pop\n      jump\t// out\n        /* \"#utility.yul\":1025:1151   */\n    tag_38:\n        /* \"#utility.yul\":1062:1069   */\n      0x00\n        /* \"#utility.yul\":1102:1144   */\n      0xffffffffffffffffffffffffffffffffffffffff\n        /* \"#utility.yul\":1095:1100   */\n      dup3\n        /* \"#utility.yul\":1091:1145   */\n      and\n        /* \"#utility.yul\":1080:1145   */\n      swap1\n      pop\n        /* \"#utility.yul\":1025:1151   */\n      swap2\n      swap1\n      pop\n      jump\t// out\n        /* \"#utility.yul\":1157:1253   */\n    tag_39:\n        /* \"#utility.yul\":1194:1201   */\n      0x00\n        /* \"#utility.yul\":1223:1247   */\n      tag_78\n        /* \"#utility.yul\":1241:1246   */\n      dup3\n        /* \"#utility.yul\":1223:1247   */\n      tag_38\n      jump\t// in\n    tag_78:\n        /* \"#utility.yul\":1212:1247   */\n      swap1\n      pop\n        /* \"#utility.yul\":1157:1253   */\n      swap2\n      swap1\n      pop\n      jump\t// out\n        /* \"#utility.yul\":1259:1377   */\n    tag_40:\n        /* \"#utility.yul\":1346:1370   */\n      tag_80\n        /* \"#utility.yul\":1364:1369   */\n      dup2\n        /* \"#utility.yul\":1346:1370   */\n      tag_39\n      jump\t// in\n    tag_80:\n        /* \"#utility.yul\":1341:1344   */\n      dup3\n        /* \"#utility.yul\":1334:1371   */\n      mstore\n        /* \"#utility.yul\":1259:1377   */\n      pop\n      pop\n      jump\t// out\n        /* \"#utility.yul\":1383:1605   */\n    tag_11:\n        /* \"#utility.yul\":1476:1480   */\n      0x00\n        /* \"#utility.yul\":1514:1516   */\n      0x20\n        /* \"#utility.yul\":1503:1512   */\n      dup3\n        /* \"#utility.yul\":1499:1517   */\n      add\n        /* \"#utility.yul\":1491:1517   */\n      swap1\n      pop\n        /* \"#utility.yul\":1527:1598   */\n      tag_82\n        /* \"#utility.yul\":1595:1596   */\n      0x00\n        /* \"#utility.yul\":1584:1593   */\n      dup4\n        /* \"#utility.yul\":1580:1597   */\n      add\n        /* \"#utility.yul\":1571:1577   */\n      dup5\n        /* \"#utility.yul\":1527:1598   */\n      tag_40\n      jump\t// in\n    tag_82:\n        /* \"#utility.yul\":1383:1605   */\n      swap3\n      swap2\n      pop\n      pop\n      jump\t// out\n        /* \"#utility.yul\":1611:1725   */\n    tag_41:\n        /* \"#utility.yul\":1678:1684   */\n      0x00\n        /* \"#utility.yul\":1712:1717   */\n      dup2\n        /* \"#utility.yul\":1706:1718   */\n      mload\n        /* \"#utility.yul\":1696:1718   */\n      swap1\n      pop\n        /* \"#utility.yul\":1611:1725   */\n      swap2\n      swap1\n      pop\n      jump\t// out\n        /* \"#utility.yul\":1731:1915   */\n    tag_42:\n        /* \"#utility.yul\":1830:1841   */\n      0x00\n        /* \"#utility.yul\":1864:1870   */\n      dup3\n        /* \"#utility.yul\":1859:1862   */\n      dup3\n        /* \"#utility.yul\":1852:1871   */\n      mstore\n        /* \"#utility.yul\":1904:1908   */\n      0x20\n        /* \"#utility.yul\":1899:1902   */\n      dup3\n        /* \"#utility.yul\":1895:1909   */\n      add\n        /* \"#utility.yul\":1880:1909   */\n      swap1\n      pop\n        /* \"#utility.yul\":1731:1915   */\n      swap3\n      swap2\n      pop\n      pop\n      jump\t// out\n        /* \"#utility.yul\":1921:2053   */\n    tag_43:\n        /* \"#utility.yul\":1988:1992   */\n      0x00\n        /* \"#utility.yul\":2011:2014   */\n      dup2\n        /* \"#utility.yul\":2003:2014   */\n      swap1\n      pop\n        /* \"#utility.yul\":2041:2045   */\n      0x20\n        /* \"#utility.yul\":2036:2039   */\n      dup3\n        /* \"#utility.yul\":2032:2046   */\n      add\n        /* \"#utility.yul\":2024:2046   */\n      swap1\n      pop\n        /* \"#utility.yul\":1921:2053   */\n      swap2\n      swap1\n      pop\n      jump\t// out\n        /* \"#utility.yul\":2059:2167   */\n    tag_44:\n        /* \"#utility.yul\":2136:2160   */\n      tag_87\n        /* \"#utility.yul\":2154:2159   */\n      dup2\n        /* \"#utility.yul\":2136:2160   */\n      tag_39\n      jump\t// in\n    tag_87:\n        /* \"#utility.yul\":2131:2134   */\n      dup3\n        /* \"#utility.yul\":2124:2161   */\n      mstore\n        /* \"#utility.yul\":2059:2167   */\n      pop\n      pop\n      jump\t// out\n        /* \"#utility.yul\":2173:2352   */\n    tag_45:\n        /* \"#utility.yul\":2242:2252   */\n      0x00\n        /* \"#utility.yul\":2263:2309   */\n      tag_89\n        /* \"#utility.yul\":2305:2308   */\n      dup4\n        /* \"#utility.yul\":2297:2303   */\n      dup4\n        /* \"#utility.yul\":2263:2309   */\n      tag_44\n      jump\t// in\n    tag_89:\n        /* \"#utility.yul\":2341:2345   */\n      0x20\n        /* \"#utility.yul\":2336:2339   */\n      dup4\n        /* \"#utility.yul\":2332:2346   */\n      add\n        /* \"#utility.yul\":2318:2346   */\n      swap1\n      pop\n        /* \"#utility.yul\":2173:2352   */\n      swap3\n      swap2\n      pop\n      pop\n      jump\t// out\n        /* \"#utility.yul\":2358:2471   */\n    tag_46:\n        /* \"#utility.yul\":2428:2432   */\n      0x00\n        /* \"#utility.yul\":2460:2464   */\n      0x20\n        /* \"#utility.yul\":2455:2458   */\n      dup3\n        /* \"#utility.yul\":2451:2465   */\n      add\n        /* \"#utility.yul\":2443:2465   */\n      swap1\n      pop\n        /* \"#utility.yul\":2358:2471   */\n      swap2\n      swap1\n      pop\n      jump\t// out\n        /* \"#utility.yul\":2507:3239   */\n    tag_47:\n        /* \"#utility.yul\":2626:2629   */\n      0x00\n        /* \"#utility.yul\":2655:2709   */\n      tag_92\n        /* \"#utility.yul\":2703:2708   */\n      dup3\n        /* \"#utility.yul\":2655:2709   */\n      tag_41\n      jump\t// in\n    tag_92:\n        /* \"#utility.yul\":2725:2811   */\n      tag_93\n        /* \"#utility.yul\":2804:2810   */\n      dup2\n        /* \"#utility.yul\":2799:2802   */\n      dup6\n        /* \"#utility.yul\":2725:2811   */\n      tag_42\n      jump\t// in\n    tag_93:\n        /* \"#utility.yul\":2718:2811   */\n      swap4\n      pop\n        /* \"#utility.yul\":2835:2891   */\n      tag_94\n        /* \"#utility.yul\":2885:2890   */\n      dup4\n        /* \"#utility.yul\":2835:2891   */\n      tag_43\n      jump\t// in\n    tag_94:\n        /* \"#utility.yul\":2914:2921   */\n      dup1\n        /* \"#utility.yul\":2945:2946   */\n      0x00\n        /* \"#utility.yul\":2930:3214   */\n    tag_95:\n        /* \"#utility.yul\":2955:2961   */\n      dup4\n        /* \"#utility.yul\":2952:2953   */\n      dup2\n        /* \"#utility.yul\":2949:2962   */\n      lt\n        /* \"#utility.yul\":2930:3214   */\n      iszero\n      tag_97\n      jumpi\n        /* \"#utility.yul\":3031:3037   */\n      dup2\n        /* \"#utility.yul\":3025:3038   */\n      mload\n        /* \"#utility.yul\":3058:3121   */\n      tag_98\n        /* \"#utility.yul\":3117:3120   */\n      dup9\n        /* \"#utility.yul\":3102:3115   */\n      dup3\n        /* \"#utility.yul\":3058:3121   */\n      tag_45\n      jump\t// in\n    tag_98:\n        /* \"#utility.yul\":3051:3121   */\n      swap8\n      pop\n        /* \"#utility.yul\":3144:3204   */\n      tag_99\n        /* \"#utility.yul\":3197:3203   */\n      dup4\n        /* \"#utility.yul\":3144:3204   */\n      tag_46\n      jump\t// in\n    tag_99:\n        /* \"#utility.yul\":3134:3204   */\n      swap3\n      pop\n        /* \"#utility.yul\":2990:3214   */\n      pop\n        /* \"#utility.yul\":2977:2978   */\n      0x01\n        /* \"#utility.yul\":2974:2975   */\n      dup2\n        /* \"#utility.yul\":2970:2979   */\n      add\n        /* \"#utility.yul\":2965:2979   */\n      swap1\n      pop\n        /* \"#utility.yul\":2930:3214   */\n      jump(tag_95)\n    tag_97:\n        /* \"#utility.yul\":2934:2948   */\n      pop\n        /* \"#utility.yul\":3230:3233   */\n      dup6\n        /* \"#utility.yul\":3223:3233   */\n      swap4\n      pop\n        /* \"#utility.yul\":2631:3239   */\n      pop\n      pop\n      pop\n        /* \"#utility.yul\":2507:3239   */\n      swap3\n      swap2\n      pop\n      pop\n      jump\t// out\n        /* \"#utility.yul\":3245:3618   */\n    tag_15:\n        /* \"#utility.yul\":3388:3392   */\n      0x00\n        /* \"#utility.yul\":3426:3428   */\n      0x20\n        /* \"#utility.yul\":3415:3424   */\n      dup3\n        /* \"#utility.yul\":3411:3429   */\n      add\n        /* \"#utility.yul\":3403:3429   */\n      swap1\n      pop\n        /* \"#utility.yul\":3475:3484   */\n      dup2\n        /* \"#utility.yul\":3469:3473   */\n      dup2\n        /* \"#utility.yul\":3465:3485   */\n      sub\n        /* \"#utility.yul\":3461:3462   */\n      0x00\n        /* \"#utility.yul\":3450:3459   */\n      dup4\n        /* \"#utility.yul\":3446:3463   */\n      add\n        /* \"#utility.yul\":3439:3486   */\n      mstore\n        /* \"#utility.yul\":3503:3611   */\n      tag_101\n        /* \"#utility.yul\":3606:3610   */\n      dup2\n        /* \"#utility.yul\":3597:3603   */\n      dup5\n        /* \"#utility.yul\":3503:3611   */\n      tag_47\n      jump\t// in\n    tag_101:\n        /* \"#utility.yul\":3495:3611   */\n      swap1\n      pop\n        /* \"#utility.yul\":3245:3618   */\n      swap3\n      swap2\n      pop\n      pop\n      jump\t// out\n        /* \"#utility.yul\":3624:3741   */\n    tag_48:\n        /* \"#utility.yul\":3733:3734   */\n      0x00\n        /* \"#utility.yul\":3730:3731   */\n      dup1\n        /* \"#utility.yul\":3723:3735   */\n      revert\n        /* \"#utility.yul\":3747:3864   */\n    tag_49:\n        /* \"#utility.yul\":3856:3857   */\n      0x00\n        /* \"#utility.yul\":3853:3854   */\n      dup1\n        /* \"#utility.yul\":3846:3858   */\n      revert\n        /* \"#utility.yul\":3870:3972   */\n    tag_50:\n        /* \"#utility.yul\":3911:3917   */\n      0x00\n        /* \"#utility.yul\":3962:3964   */\n      0x1f\n        /* \"#utility.yul\":3958:3965   */\n      not\n        /* \"#utility.yul\":3953:3955   */\n      0x1f\n        /* \"#utility.yul\":3946:3951   */\n      dup4\n        /* \"#utility.yul\":3942:3956   */\n      add\n        /* \"#utility.yul\":3938:3966   */\n      and\n        /* \"#utility.yul\":3928:3966   */\n      swap1\n      pop\n        /* \"#utility.yul\":3870:3972   */\n      swap2\n      swap1\n      pop\n      jump\t// out\n        /* \"#utility.yul\":3978:4158   */\n    tag_51:\n        /* \"#utility.yul\":4026:4103   */\n      0x4e487b7100000000000000000000000000000000000000000000000000000000\n        /* \"#utility.yul\":4023:4024   */\n      0x00\n        /* \"#utility.yul\":4016:4104   */\n      mstore\n        /* \"#utility.yul\":4123:4127   */\n      0x41\n        /* \"#utility.yul\":4120:4121   */\n      0x04\n        /* \"#utility.yul\":4113:4128   */\n      mstore\n        /* \"#utility.yul\":4147:4151   */\n      0x24\n        /* \"#utility.yul\":4144:4145   */\n      0x00\n        /* \"#utility.yul\":4137:4152   */\n      revert\n        /* \"#utility.yul\":4164:4445   */\n    tag_52:\n        /* \"#utility.yul\":4247:4274   */\n      tag_107\n        /* \"#utility.yul\":4269:4273   */\n      dup3\n        /* \"#utility.yul\":4247:4274   */\n      tag_50\n      jump\t// in\n    tag_107:\n        /* \"#utility.yul\":4239:4245   */\n      dup2\n        /* \"#utility.yul\":4235:4275   */\n      add\n        /* \"#utility.yul\":4377:4383   */\n      dup2\n        /* \"#utility.yul\":4365:4375   */\n      dup2\n        /* \"#utility.yul\":4362:4384   */\n      lt\n        /* \"#utility.yul\":4341:4359   */\n      0xffffffffffffffff\n        /* \"#utility.yul\":4329:4339   */\n      dup3\n        /* \"#utility.yul\":4326:4360   */\n      gt\n        /* \"#utility.yul\":4323:4385   */\n      or\n        /* \"#utility.yul\":4320:4408   */\n      iszero\n      tag_108\n      jumpi\n        /* \"#utility.yul\":4388:4406   */\n      tag_109\n      tag_51\n      jump\t// in\n    tag_109:\n        /* \"#utility.yul\":4320:4408   */\n    tag_108:\n        /* \"#utility.yul\":4428:4438   */\n      dup1\n        /* \"#utility.yul\":4424:4426   */\n      0x40\n        /* \"#utility.yul\":4417:4439   */\n      mstore\n        /* \"#utility.yul\":4207:4445   */\n      pop\n        /* \"#utility.yul\":4164:4445   */\n      pop\n      pop\n      jump\t// out\n        /* \"#utility.yul\":4451:4580   */\n    tag_53:\n        /* \"#utility.yul\":4485:4491   */\n      0x00\n        /* \"#utility.yul\":4512:4532   */\n      tag_111\n      tag_32\n      jump\t// in\n    tag_111:\n        /* \"#utility.yul\":4502:4532   */\n      swap1\n      pop\n        /* \"#utility.yul\":4541:4574   */\n      tag_112\n        /* \"#utility.yul\":4569:4573   */\n      dup3\n        /* \"#utility.yul\":4561:4567   */\n      dup3\n        /* \"#utility.yul\":4541:4574   */\n      tag_52\n      jump\t// in\n    tag_112:\n        /* \"#utility.yul\":4451:4580   */\n      swap2\n      swap1\n      pop\n      jump\t// out\n        /* \"#utility.yul\":4586:4894   */\n    tag_54:\n        /* \"#utility.yul\":4648:4652   */\n      0x00\n        /* \"#utility.yul\":4738:4756   */\n      0xffffffffffffffff\n        /* \"#utility.yul\":4730:4736   */\n      dup3\n        /* \"#utility.yul\":4727:4757   */\n      gt\n        /* \"#utility.yul\":4724:4780   */\n      iszero\n      tag_114\n      jumpi\n        /* \"#utility.yul\":4760:4778   */\n      tag_115\n      tag_51\n      jump\t// in\n    tag_115:\n        /* \"#utility.yul\":4724:4780   */\n    tag_114:\n        /* \"#utility.yul\":4798:4827   */\n      tag_116\n        /* \"#utility.yul\":4820:4826   */\n      dup3\n        /* \"#utility.yul\":4798:4827   */\n      tag_50\n      jump\t// in\n    tag_116:\n        /* \"#utility.yul\":4790:4827   */\n      swap1\n      pop\n        /* \"#utility.yul\":4882:4886   */\n      0x20\n        /* \"#utility.yul\":4876:4880   */\n      dup2\n        /* \"#utility.yul\":4872:4887   */\n      add\n        /* \"#utility.yul\":4864:4887   */\n      swap1\n      pop\n        /* \"#utility.yul\":4586:4894   */\n      swap2\n      swap1\n      pop\n      jump\t// out\n        /* \"#utility.yul\":4900:5054   */\n    tag_55:\n        /* \"#utility.yul\":4984:4990   */\n      dup3\n        /* \"#utility.yul\":4979:4982   */\n      dup2\n        /* \"#utility.yul\":4974:4977   */\n      dup4\n        /* \"#utility.yul\":4961:4991   */\n      calldatacopy\n        /* \"#utility.yul\":5046:5047   */\n      0x00\n        /* \"#utility.yul\":5037:5043   */\n      dup4\n        /* \"#utility.yul\":5032:5035   */\n      dup4\n        /* \"#utility.yul\":5028:5044   */\n      add\n        /* \"#utility.yul\":5021:5048   */\n      mstore\n        /* \"#utility.yul\":4900:5054   */\n      pop\n      pop\n      pop\n      jump\t// out\n        /* \"#utility.yul\":5060:5472   */\n    tag_56:\n        /* \"#utility.yul\":5138:5143   */\n      0x00\n        /* \"#utility.yul\":5163:5229   */\n      tag_119\n        /* \"#utility.yul\":5179:5228   */\n      tag_120\n        /* \"#utility.yul\":5221:5227   */\n      dup5\n        /* \"#utility.yul\":5179:5228   */\n      tag_54\n      jump\t// in\n    tag_120:\n        /* \"#utility.yul\":5163:5229   */\n      tag_53\n      jump\t// in\n    tag_119:\n        /* \"#utility.yul\":5154:5229   */\n      swap1\n      pop\n        /* \"#utility.yul\":5252:5258   */\n      dup3\n        /* \"#utility.yul\":5245:5250   */\n      dup2\n        /* \"#utility.yul\":5238:5259   */\n      mstore\n        /* \"#utility.yul\":5290:5294   */\n      0x20\n        /* \"#utility.yul\":5283:5288   */\n      dup2\n        /* \"#utility.yul\":5279:5295   */\n      add\n        /* \"#utility.yul\":5328:5331   */\n      dup5\n        /* \"#utility.yul\":5319:5325   */\n      dup5\n        /* \"#utility.yul\":5314:5317   */\n      dup5\n        /* \"#utility.yul\":5310:5326   */\n      add\n        /* \"#utility.yul\":5307:5332   */\n      gt\n        /* \"#utility.yul\":5304:5416   */\n      iszero\n      tag_121\n      jumpi\n        /* \"#utility.yul\":5335:5414   */\n      tag_122\n      tag_49\n      jump\t// in\n    tag_122:\n        /* \"#utility.yul\":5304:5416   */\n    tag_121:\n        /* \"#utility.yul\":5425:5466   */\n      tag_123\n        /* \"#utility.yul\":5459:5465   */\n      dup5\n        /* \"#utility.yul\":5454:5457   */\n      dup3\n        /* \"#utility.yul\":5449:5452   */\n      dup6\n        /* \"#utility.yul\":5425:5466   */\n      tag_55\n      jump\t// in\n    tag_123:\n        /* \"#utility.yul\":5144:5472   */\n      pop\n        /* \"#utility.yul\":5060:5472   */\n      swap4\n      swap3\n      pop\n      pop\n      pop\n      jump\t// out\n        /* \"#utility.yul\":5492:5832   */\n    tag_57:\n        /* \"#utility.yul\":5548:5553   */\n      0x00\n        /* \"#utility.yul\":5597:5600   */\n      dup3\n        /* \"#utility.yul\":5590:5594   */\n      0x1f\n        /* \"#utility.yul\":5582:5588   */\n      dup4\n        /* \"#utility.yul\":5578:5595   */\n      add\n        /* \"#utility.yul\":5574:5601   */\n      slt\n        /* \"#utility.yul\":5564:5686   */\n      tag_125\n      jumpi\n        /* \"#utility.yul\":5605:5684   */\n      tag_126\n      tag_48\n      jump\t// in\n    tag_126:\n        /* \"#utility.yul\":5564:5686   */\n    tag_125:\n        /* \"#utility.yul\":5722:5728   */\n      dup2\n        /* \"#utility.yul\":5709:5729   */\n      calldataload\n        /* \"#utility.yul\":5747:5826   */\n      tag_127\n        /* \"#utility.yul\":5822:5825   */\n      dup5\n        /* \"#utility.yul\":5814:5820   */\n      dup3\n        /* \"#utility.yul\":5807:5811   */\n      0x20\n        /* \"#utility.yul\":5799:5805   */\n      dup7\n        /* \"#utility.yul\":5795:5812   */\n      add\n        /* \"#utility.yul\":5747:5826   */\n      tag_56\n      jump\t// in\n    tag_127:\n        /* \"#utility.yul\":5738:5826   */\n      swap2\n      pop\n        /* \"#utility.yul\":5554:5832   */\n      pop\n        /* \"#utility.yul\":5492:5832   */\n      swap3\n      swap2\n      pop\n      pop\n      jump\t// out\n        /* \"#utility.yul\":5838:6997   */\n    tag_18:\n        /* \"#utility.yul\":5945:5951   */\n      0x00\n        /* \"#utility.yul\":5953:5959   */\n      dup1\n        /* \"#utility.yul\":5961:5967   */\n      0x00\n        /* \"#utility.yul\":6010:6012   */\n      0x60\n        /* \"#utility.yul\":5998:6007   */\n      dup5\n        /* \"#utility.yul\":5989:5996   */\n      dup7\n        /* \"#utility.yul\":5985:6008   */\n      sub\n        /* \"#utility.yul\":5981:6013   */\n      slt\n        /* \"#utility.yul\":5978:6097   */\n      iszero\n      tag_129\n      jumpi\n        /* \"#utility.yul\":6016:6095   */\n      tag_130\n      tag_33\n      jump\t// in\n    tag_130:\n        /* \"#utility.yul\":5978:6097   */\n    tag_129:\n        /* \"#utility.yul\":6164:6165   */\n      0x00\n        /* \"#utility.yul\":6153:6162   */\n      dup5\n        /* \"#utility.yul\":6149:6166   */\n      add\n        /* \"#utility.yul\":6136:6167   */\n      calldataload\n        /* \"#utility.yul\":6194:6212   */\n      0xffffffffffffffff\n        /* \"#utility.yul\":6186:6192   */\n      dup2\n        /* \"#utility.yul\":6183:6213   */\n      gt\n        /* \"#utility.yul\":6180:6297   */\n      iszero\n      tag_131\n      jumpi\n        /* \"#utility.yul\":6216:6295   */\n      tag_132\n      tag_34\n      jump\t// in\n    tag_132:\n        /* \"#utility.yul\":6180:6297   */\n    tag_131:\n        /* \"#utility.yul\":6321:6384   */\n      tag_133\n        /* \"#utility.yul\":6376:6383   */\n      dup7\n        /* \"#utility.yul\":6367:6373   */\n      dup3\n        /* \"#utility.yul\":6356:6365   */\n      dup8\n        /* \"#utility.yul\":6352:6374   */\n      add\n        /* \"#utility.yul\":6321:6384   */\n      tag_57\n      jump\t// in\n    tag_133:\n        /* \"#utility.yul\":6311:6384   */\n      swap4\n      pop\n        /* \"#utility.yul\":6107:6394   */\n      pop\n        /* \"#utility.yul\":6461:6463   */\n      0x20\n        /* \"#utility.yul\":6450:6459   */\n      dup5\n        /* \"#utility.yul\":6446:6464   */\n      add\n        /* \"#utility.yul\":6433:6465   */\n      calldataload\n        /* \"#utility.yul\":6492:6510   */\n      0xffffffffffffffff\n        /* \"#utility.yul\":6484:6490   */\n      dup2\n        /* \"#utility.yul\":6481:6511   */\n      gt\n        /* \"#utility.yul\":6478:6595   */\n      iszero\n      tag_134\n      jumpi\n        /* \"#utility.yul\":6514:6593   */\n      tag_135\n      tag_34\n      jump\t// in\n    tag_135:\n        /* \"#utility.yul\":6478:6595   */\n    tag_134:\n        /* \"#utility.yul\":6619:6682   */\n      tag_136\n        /* \"#utility.yul\":6674:6681   */\n      dup7\n        /* \"#utility.yul\":6665:6671   */\n      dup3\n        /* \"#utility.yul\":6654:6663   */\n      dup8\n        /* \"#utility.yul\":6650:6672   */\n      add\n        /* \"#utility.yul\":6619:6682   */\n      tag_57\n      jump\t// in\n    tag_136:\n        /* \"#utility.yul\":6609:6682   */\n      swap3\n      pop\n        /* \"#utility.yul\":6404:6692   */\n      pop\n        /* \"#utility.yul\":6759:6761   */\n      0x40\n        /* \"#utility.yul\":6748:6757   */\n      dup5\n        /* \"#utility.yul\":6744:6762   */\n      add\n        /* \"#utility.yul\":6731:6763   */\n      calldataload\n        /* \"#utility.yul\":6790:6808   */\n      0xffffffffffffffff\n        /* \"#utility.yul\":6782:6788   */\n      dup2\n        /* \"#utility.yul\":6779:6809   */\n      gt\n        /* \"#utility.yul\":6776:6893   */\n      iszero\n      tag_137\n      jumpi\n        /* \"#utility.yul\":6812:6891   */\n      tag_138\n      tag_34\n      jump\t// in\n    tag_138:\n        /* \"#utility.yul\":6776:6893   */\n    tag_137:\n        /* \"#utility.yul\":6917:6980   */\n      tag_139\n        /* \"#utility.yul\":6972:6979   */\n      dup7\n        /* \"#utility.yul\":6963:6969   */\n      dup3\n        /* \"#utility.yul\":6952:6961   */\n      dup8\n        /* \"#utility.yul\":6948:6970   */\n      add\n        /* \"#utility.yul\":6917:6980   */\n      tag_57\n      jump\t// in\n    tag_139:\n        /* \"#utility.yul\":6907:6980   */\n      swap2\n      pop\n        /* \"#utility.yul\":6702:6990   */\n      pop\n        /* \"#utility.yul\":5838:6997   */\n      swap3\n      pop\n      swap3\n      pop\n      swap3\n      jump\t// out\n        /* \"#utility.yul\":7003:7102   */\n    tag_58:\n        /* \"#utility.yul\":7055:7061   */\n      0x00\n        /* \"#utility.yul\":7089:7094   */\n      dup2\n        /* \"#utility.yul\":7083:7095   */\n      mload\n        /* \"#utility.yul\":7073:7095   */\n      swap1\n      pop\n        /* \"#utility.yul\":7003:7102   */\n      swap2\n      swap1\n      pop\n      jump\t// out\n        /* \"#utility.yul\":7108:7277   */\n    tag_59:\n        /* \"#utility.yul\":7192:7203   */\n      0x00\n        /* \"#utility.yul\":7226:7232   */\n      dup3\n        /* \"#utility.yul\":7221:7224   */\n      dup3\n        /* \"#utility.yul\":7214:7233   */\n      mstore\n        /* \"#utility.yul\":7266:7270   */\n      0x20\n        /* \"#utility.yul\":7261:7264   */\n      dup3\n        /* \"#utility.yul\":7257:7271   */\n      add\n        /* \"#utility.yul\":7242:7271   */\n      swap1\n      pop\n        /* \"#utility.yul\":7108:7277   */\n      swap3\n      swap2\n      pop\n      pop\n      jump\t// out\n        /* \"#utility.yul\":7283:7590   */\n    tag_60:\n        /* \"#utility.yul\":7351:7352   */\n      0x00\n        /* \"#utility.yul\":7361:7474   */\n    tag_143:\n        /* \"#utility.yul\":7375:7381   */\n      dup4\n        /* \"#utility.yul\":7372:7373   */\n      dup2\n        /* \"#utility.yul\":7369:7382   */\n      lt\n        /* \"#utility.yul\":7361:7474   */\n      iszero\n      tag_145\n      jumpi\n        /* \"#utility.yul\":7460:7461   */\n      dup1\n        /* \"#utility.yul\":7455:7458   */\n      dup3\n        /* \"#utility.yul\":7451:7462   */\n      add\n        /* \"#utility.yul\":7445:7463   */\n      mload\n        /* \"#utility.yul\":7441:7442   */\n      dup2\n        /* \"#utility.yul\":7436:7439   */\n      dup5\n        /* \"#utility.yul\":7432:7443   */\n      add\n        /* \"#utility.yul\":7425:7464   */\n      mstore\n        /* \"#utility.yul\":7397:7399   */\n      0x20\n        /* \"#utility.yul\":7394:7395   */\n      dup2\n        /* \"#utility.yul\":7390:7400   */\n      add\n        /* \"#utility.yul\":7385:7400   */\n      swap1\n      pop\n        /* \"#utility.yul\":7361:7474   */\n      jump(tag_143)\n    tag_145:\n        /* \"#utility.yul\":7492:7498   */\n      dup4\n        /* \"#utility.yul\":7489:7490   */\n      dup2\n        /* \"#utility.yul\":7486:7499   */\n      gt\n        /* \"#utility.yul\":7483:7584   */\n      iszero\n      tag_146\n      jumpi\n        /* \"#utility.yul\":7572:7573   */\n      0x00\n        /* \"#utility.yul\":7563:7569   */\n      dup5\n        /* \"#utility.yul\":7558:7561   */\n      dup5\n        /* \"#utility.yul\":7554:7570   */\n      add\n        /* \"#utility.yul\":7547:7574   */\n      mstore\n        /* \"#utility.yul\":7483:7584   */\n    tag_146:\n        /* \"#utility.yul\":7332:7590   */\n      pop\n        /* \"#utility.yul\":7283:7590   */\n      pop\n      pop\n      pop\n      jump\t// out\n        /* \"#utility.yul\":7596:7960   */\n    tag_61:\n        /* \"#utility.yul\":7684:7687   */\n      0x00\n        /* \"#utility.yul\":7712:7751   */\n      tag_148\n        /* \"#utility.yul\":7745:7750   */\n      dup3\n        /* \"#utility.yul\":7712:7751   */\n      tag_58\n      jump\t// in\n    tag_148:\n        /* \"#utility.yul\":7767:7838   */\n      tag_149\n        /* \"#utility.yul\":7831:7837   */\n      dup2\n        /* \"#utility.yul\":7826:7829   */\n      dup6\n        /* \"#utility.yul\":7767:7838   */\n      tag_59\n      jump\t// in\n    tag_149:\n        /* \"#utility.yul\":7760:7838   */\n      swap4\n      pop\n        /* \"#utility.yul\":7847:7899   */\n      tag_150\n        /* \"#utility.yul\":7892:7898   */\n      dup2\n        /* \"#utility.yul\":7887:7890   */\n      dup6\n        /* \"#utility.yul\":7880:7884   */\n      0x20\n        /* \"#utility.yul\":7873:7878   */\n      dup7\n        /* \"#utility.yul\":7869:7885   */\n      add\n        /* \"#utility.yul\":7847:7899   */\n      tag_60\n      jump\t// in\n    tag_150:\n        /* \"#utility.yul\":7924:7953   */\n      tag_151\n        /* \"#utility.yul\":7946:7952   */\n      dup2\n        /* \"#utility.yul\":7924:7953   */\n      tag_50\n      jump\t// in\n    tag_151:\n        /* \"#utility.yul\":7919:7922   */\n      dup5\n        /* \"#utility.yul\":7915:7954   */\n      add\n        /* \"#utility.yul\":7908:7954   */\n      swap2\n      pop\n        /* \"#utility.yul\":7688:7960   */\n      pop\n        /* \"#utility.yul\":7596:7960   */\n      swap3\n      swap2\n      pop\n      pop\n      jump\t// out\n        /* \"#utility.yul\":7966:8792   */\n    tag_29:\n        /* \"#utility.yul\":8203:8207   */\n      0x00\n        /* \"#utility.yul\":8241:8244   */\n      0x80\n        /* \"#utility.yul\":8230:8239   */\n      dup3\n        /* \"#utility.yul\":8226:8245   */\n      add\n        /* \"#utility.yul\":8218:8245   */\n      swap1\n      pop\n        /* \"#utility.yul\":8255:8326   */\n      tag_153\n        /* \"#utility.yul\":8323:8324   */\n      0x00\n        /* \"#utility.yul\":8312:8321   */\n      dup4\n        /* \"#utility.yul\":8308:8325   */\n      add\n        /* \"#utility.yul\":8299:8305   */\n      dup8\n        /* \"#utility.yul\":8255:8326   */\n      tag_40\n      jump\t// in\n    tag_153:\n        /* \"#utility.yul\":8373:8382   */\n      dup2\n        /* \"#utility.yul\":8367:8371   */\n      dup2\n        /* \"#utility.yul\":8363:8383   */\n      sub\n        /* \"#utility.yul\":8358:8360   */\n      0x20\n        /* \"#utility.yul\":8347:8356   */\n      dup4\n        /* \"#utility.yul\":8343:8361   */\n      add\n        /* \"#utility.yul\":8336:8384   */\n      mstore\n        /* \"#utility.yul\":8401:8479   */\n      tag_154\n        /* \"#utility.yul\":8474:8478   */\n      dup2\n        /* \"#utility.yul\":8465:8471   */\n      dup7\n        /* \"#utility.yul\":8401:8479   */\n      tag_61\n      jump\t// in\n    tag_154:\n        /* \"#utility.yul\":8393:8479   */\n      swap1\n      pop\n        /* \"#utility.yul\":8526:8535   */\n      dup2\n        /* \"#utility.yul\":8520:8524   */\n      dup2\n        /* \"#utility.yul\":8516:8536   */\n      sub\n        /* \"#utility.yul\":8511:8513   */\n      0x40\n        /* \"#utility.yul\":8500:8509   */\n      dup4\n        /* \"#utility.yul\":8496:8514   */\n      add\n        /* \"#utility.yul\":8489:8537   */\n      mstore\n        /* \"#utility.yul\":8554:8632   */\n      tag_155\n        /* \"#utility.yul\":8627:8631   */\n      dup2\n        /* \"#utility.yul\":8618:8624   */\n      dup6\n        /* \"#utility.yul\":8554:8632   */\n      tag_61\n      jump\t// in\n    tag_155:\n        /* \"#utility.yul\":8546:8632   */\n      swap1\n      pop\n        /* \"#utility.yul\":8679:8688   */\n      dup2\n        /* \"#utility.yul\":8673:8677   */\n      dup2\n        /* \"#utility.yul\":8669:8689   */\n      sub\n        /* \"#utility.yul\":8664:8666   */\n      0x60\n        /* \"#utility.yul\":8653:8662   */\n      dup4\n        /* \"#utility.yul\":8649:8667   */\n      add\n        /* \"#utility.yul\":8642:8690   */\n      mstore\n        /* \"#utility.yul\":8707:8785   */\n      tag_156\n        /* \"#utility.yul\":8780:8784   */\n      dup2\n        /* \"#utility.yul\":8771:8777   */\n      dup5\n        /* \"#utility.yul\":8707:8785   */\n      tag_61\n      jump\t// in\n    tag_156:\n        /* \"#utility.yul\":8699:8785   */\n      swap1\n      pop\n        /* \"#utility.yul\":7966:8792   */\n      swap6\n      swap5\n      pop\n      pop\n      pop\n      pop\n      pop\n      jump\t// out\n    stop\n\n    sub_0: assembly {\n            /* \"Story.sol\":857:8912  contract Story {... */\n          mstore(0x40, 0x80)\n            /* \"Story.sol\":1886:2232  constructor(address _mainAuthor, string memory _title, string memory _genre, string memory _mainIdea) {... */\n          callvalue\n          dup1\n          iszero\n          tag_1\n          jumpi\n          0x00\n          dup1\n          revert\n        tag_1:\n          pop\n          mload(0x40)\n          sub(codesize, bytecodeSize)\n          dup1\n          bytecodeSize\n          dup4\n          codecopy\n          dup2\n          dup2\n          add\n          0x40\n          mstore\n          dup2\n          add\n          swap1\n          tag_2\n          swap2\n          swap1\n          tag_3\n          jump\t// in\n        tag_2:\n            /* \"Story.sol\":2012:2023  _mainAuthor */\n          dup4\n            /* \"Story.sol\":1999:2009  mainAuthor */\n          0x00\n          dup1\n            /* \"Story.sol\":1999:2023  mainAuthor = _mainAuthor */\n          0x0100\n          exp\n          dup2\n          sload\n          dup2\n          0xffffffffffffffffffffffffffffffffffffffff\n          mul\n          not\n          and\n          swap1\n          dup4\n          0xffffffffffffffffffffffffffffffffffffffff\n          and\n          mul\n          or\n          swap1\n          sstore\n          pop\n            /* \"Story.sol\":2068:2072  true */\n          0x01\n            /* \"Story.sol\":2034:2052  authorsForSolidity */\n          0x04\n            /* \"Story.sol\":2034:2065  authorsForSolidity[_mainAuthor] */\n          0x00\n            /* \"Story.sol\":2053:2064  _mainAuthor */\n          dup7\n            /* \"Story.sol\":2034:2065  authorsForSolidity[_mainAuthor] */\n          0xffffffffffffffffffffffffffffffffffffffff\n          and\n          0xffffffffffffffffffffffffffffffffffffffff\n          and\n          dup2\n          mstore\n          0x20\n          add\n          swap1\n          dup2\n          mstore\n          0x20\n          add\n          0x00\n          keccak256\n          0x00\n            /* \"Story.sol\":2034:2072  authorsForSolidity[_mainAuthor] = true */\n          0x0100\n          exp\n          dup2\n          sload\n          dup2\n          0xff\n          mul\n          not\n          and\n          swap1\n          dup4\n          iszero\n          iszero\n          mul\n          or\n          swap1\n          sstore\n          pop\n            /* \"Story.sol\":2083:2098  authorsForReact */\n          0x05\n            /* \"Story.sol\":2104:2115  _mainAuthor */\n          dup5\n            /* \"Story.sol\":2083:2116  authorsForReact.push(_mainAuthor) */\n          swap1\n          dup1\n          0x01\n          dup2\n          sload\n          add\n          dup1\n          dup3\n          sstore\n          dup1\n          swap2\n          pop\n          pop\n          0x01\n          swap1\n          sub\n          swap1\n          0x00\n          mstore\n          keccak256(0x00, 0x20)\n          add\n          0x00\n          swap1\n          swap2\n          swap1\n          swap2\n          swap1\n          swap2\n          0x0100\n          exp\n          dup2\n          sload\n          dup2\n          0xffffffffffffffffffffffffffffffffffffffff\n          mul\n          not\n          and\n          swap1\n          dup4\n          0xffffffffffffffffffffffffffffffffffffffff\n          and\n          mul\n          or\n          swap1\n          sstore\n          pop\n            /* \"Story.sol\":2135:2141  _title */\n          dup3\n            /* \"Story.sol\":2127:2132  title */\n          0x01\n            /* \"Story.sol\":2127:2141  title = _title */\n          swap1\n          dup1\n          mload\n          swap1\n          0x20\n          add\n          swap1\n          tag_7\n          swap3\n          swap2\n          swap1\n          tag_8\n          jump\t// in\n        tag_7:\n          pop\n            /* \"Story.sol\":2160:2166  _genre */\n          dup2\n            /* \"Story.sol\":2152:2157  genre */\n          0x02\n            /* \"Story.sol\":2152:2166  genre = _genre */\n          swap1\n          dup1\n          mload\n          swap1\n          0x20\n          add\n          swap1\n          tag_9\n          swap3\n          swap2\n          swap1\n          tag_8\n          jump\t// in\n        tag_9:\n          pop\n            /* \"Story.sol\":2188:2197  _mainIdea */\n          dup1\n            /* \"Story.sol\":2177:2185  mainIdea */\n          0x03\n            /* \"Story.sol\":2177:2197  mainIdea = _mainIdea */\n          swap1\n          dup1\n          mload\n          swap1\n          0x20\n          add\n          swap1\n          tag_10\n          swap3\n          swap2\n          swap1\n          tag_8\n          jump\t// in\n        tag_10:\n          pop\n            /* \"Story.sol\":2219:2224  false */\n          0x00\n            /* \"Story.sol\":2208:2216  reported */\n          0x0b\n          0x00\n            /* \"Story.sol\":2208:2224  reported = false */\n          0x0100\n          exp\n          dup2\n          sload\n          dup2\n          0xff\n          mul\n          not\n          and\n          swap1\n          dup4\n          iszero\n          iszero\n          mul\n          or\n          swap1\n          sstore\n          pop\n            /* \"Story.sol\":1886:2232  constructor(address _mainAuthor, string memory _title, string memory _genre, string memory _mainIdea) {... */\n          pop\n          pop\n          pop\n          pop\n            /* \"Story.sol\":857:8912  contract Story {... */\n          jump(tag_11)\n        tag_8:\n          dup3\n          dup1\n          sload\n          tag_12\n          swap1\n          tag_13\n          jump\t// in\n        tag_12:\n          swap1\n          0x00\n          mstore\n          keccak256(0x00, 0x20)\n          swap1\n          0x1f\n          add\n          0x20\n          swap1\n          div\n          dup2\n          add\n          swap3\n          dup3\n          tag_15\n          jumpi\n          0x00\n          dup6\n          sstore\n          jump(tag_14)\n        tag_15:\n          dup3\n          0x1f\n          lt\n          tag_16\n          jumpi\n          dup1\n          mload\n          not(0xff)\n          and\n          dup4\n          dup1\n          add\n          or\n          dup6\n          sstore\n          jump(tag_14)\n        tag_16:\n          dup3\n          dup1\n          add\n          0x01\n          add\n          dup6\n          sstore\n          dup3\n          iszero\n          tag_14\n          jumpi\n          swap2\n          dup3\n          add\n        tag_17:\n          dup3\n          dup2\n          gt\n          iszero\n          tag_18\n          jumpi\n          dup3\n          mload\n          dup3\n          sstore\n          swap2\n          0x20\n          add\n          swap2\n          swap1\n          0x01\n          add\n          swap1\n          jump(tag_17)\n        tag_18:\n        tag_14:\n          pop\n          swap1\n          pop\n          tag_19\n          swap2\n          swap1\n          tag_20\n          jump\t// in\n        tag_19:\n          pop\n          swap1\n          jump\t// out\n        tag_20:\n        tag_21:\n          dup1\n          dup3\n          gt\n          iszero\n          tag_22\n          jumpi\n          0x00\n          dup2\n          0x00\n          swap1\n          sstore\n          pop\n          0x01\n          add\n          jump(tag_21)\n        tag_22:\n          pop\n          swap1\n          jump\t// out\n            /* \"#utility.yul\":7:82   */\n        tag_23:\n            /* \"#utility.yul\":40:46   */\n          0x00\n            /* \"#utility.yul\":73:75   */\n          0x40\n            /* \"#utility.yul\":67:76   */\n          mload\n            /* \"#utility.yul\":57:76   */\n          swap1\n          pop\n            /* \"#utility.yul\":7:82   */\n          swap1\n          jump\t// out\n            /* \"#utility.yul\":88:205   */\n        tag_24:\n            /* \"#utility.yul\":197:198   */\n          0x00\n            /* \"#utility.yul\":194:195   */\n          dup1\n            /* \"#utility.yul\":187:199   */\n          revert\n            /* \"#utility.yul\":211:328   */\n        tag_25:\n            /* \"#utility.yul\":320:321   */\n          0x00\n            /* \"#utility.yul\":317:318   */\n          dup1\n            /* \"#utility.yul\":310:322   */\n          revert\n            /* \"#utility.yul\":334:460   */\n        tag_26:\n            /* \"#utility.yul\":371:378   */\n          0x00\n            /* \"#utility.yul\":411:453   */\n          0xffffffffffffffffffffffffffffffffffffffff\n            /* \"#utility.yul\":404:409   */\n          dup3\n            /* \"#utility.yul\":400:454   */\n          and\n            /* \"#utility.yul\":389:454   */\n          swap1\n          pop\n            /* \"#utility.yul\":334:460   */\n          swap2\n          swap1\n          pop\n          jump\t// out\n            /* \"#utility.yul\":466:562   */\n        tag_27:\n            /* \"#utility.yul\":503:510   */\n          0x00\n            /* \"#utility.yul\":532:556   */\n          tag_47\n            /* \"#utility.yul\":550:555   */\n          dup3\n            /* \"#utility.yul\":532:556   */\n          tag_26\n          jump\t// in\n        tag_47:\n            /* \"#utility.yul\":521:556   */\n          swap1\n          pop\n            /* \"#utility.yul\":466:562   */\n          swap2\n          swap1\n          pop\n          jump\t// out\n            /* \"#utility.yul\":568:690   */\n        tag_28:\n            /* \"#utility.yul\":641:665   */\n          tag_49\n            /* \"#utility.yul\":659:664   */\n          dup2\n            /* \"#utility.yul\":641:665   */\n          tag_27\n          jump\t// in\n        tag_49:\n            /* \"#utility.yul\":634:639   */\n          dup2\n            /* \"#utility.yul\":631:666   */\n          eq\n            /* \"#utility.yul\":621:684   */\n          tag_50\n          jumpi\n            /* \"#utility.yul\":680:681   */\n          0x00\n            /* \"#utility.yul\":677:678   */\n          dup1\n            /* \"#utility.yul\":670:682   */\n          revert\n            /* \"#utility.yul\":621:684   */\n        tag_50:\n            /* \"#utility.yul\":568:690   */\n          pop\n          jump\t// out\n            /* \"#utility.yul\":696:839   */\n        tag_29:\n            /* \"#utility.yul\":753:758   */\n          0x00\n            /* \"#utility.yul\":784:790   */\n          dup2\n            /* \"#utility.yul\":778:791   */\n          mload\n            /* \"#utility.yul\":769:791   */\n          swap1\n          pop\n            /* \"#utility.yul\":800:833   */\n          tag_52\n            /* \"#utility.yul\":827:832   */\n          dup2\n            /* \"#utility.yul\":800:833   */\n          tag_28\n          jump\t// in\n        tag_52:\n            /* \"#utility.yul\":696:839   */\n          swap3\n          swap2\n          pop\n          pop\n          jump\t// out\n            /* \"#utility.yul\":845:962   */\n        tag_30:\n            /* \"#utility.yul\":954:955   */\n          0x00\n            /* \"#utility.yul\":951:952   */\n          dup1\n            /* \"#utility.yul\":944:956   */\n          revert\n            /* \"#utility.yul\":968:1085   */\n        tag_31:\n            /* \"#utility.yul\":1077:1078   */\n          0x00\n            /* \"#utility.yul\":1074:1075   */\n          dup1\n            /* \"#utility.yul\":1067:1079   */\n          revert\n            /* \"#utility.yul\":1091:1193   */\n        tag_32:\n            /* \"#utility.yul\":1132:1138   */\n          0x00\n            /* \"#utility.yul\":1183:1185   */\n          0x1f\n            /* \"#utility.yul\":1179:1186   */\n          not\n            /* \"#utility.yul\":1174:1176   */\n          0x1f\n            /* \"#utility.yul\":1167:1172   */\n          dup4\n            /* \"#utility.yul\":1163:1177   */\n          add\n            /* \"#utility.yul\":1159:1187   */\n          and\n            /* \"#utility.yul\":1149:1187   */\n          swap1\n          pop\n            /* \"#utility.yul\":1091:1193   */\n          swap2\n          swap1\n          pop\n          jump\t// out\n            /* \"#utility.yul\":1199:1379   */\n        tag_33:\n            /* \"#utility.yul\":1247:1324   */\n          0x4e487b7100000000000000000000000000000000000000000000000000000000\n            /* \"#utility.yul\":1244:1245   */\n          0x00\n            /* \"#utility.yul\":1237:1325   */\n          mstore\n            /* \"#utility.yul\":1344:1348   */\n          0x41\n            /* \"#utility.yul\":1341:1342   */\n          0x04\n            /* \"#utility.yul\":1334:1349   */\n          mstore\n            /* \"#utility.yul\":1368:1372   */\n          0x24\n            /* \"#utility.yul\":1365:1366   */\n          0x00\n            /* \"#utility.yul\":1358:1373   */\n          revert\n            /* \"#utility.yul\":1385:1666   */\n        tag_34:\n            /* \"#utility.yul\":1468:1495   */\n          tag_58\n            /* \"#utility.yul\":1490:1494   */\n          dup3\n            /* \"#utility.yul\":1468:1495   */\n          tag_32\n          jump\t// in\n        tag_58:\n            /* \"#utility.yul\":1460:1466   */\n          dup2\n            /* \"#utility.yul\":1456:1496   */\n          add\n            /* \"#utility.yul\":1598:1604   */\n          dup2\n            /* \"#utility.yul\":1586:1596   */\n          dup2\n            /* \"#utility.yul\":1583:1605   */\n          lt\n            /* \"#utility.yul\":1562:1580   */\n          0xffffffffffffffff\n            /* \"#utility.yul\":1550:1560   */\n          dup3\n            /* \"#utility.yul\":1547:1581   */\n          gt\n            /* \"#utility.yul\":1544:1606   */\n          or\n            /* \"#utility.yul\":1541:1629   */\n          iszero\n          tag_59\n          jumpi\n            /* \"#utility.yul\":1609:1627   */\n          tag_60\n          tag_33\n          jump\t// in\n        tag_60:\n            /* \"#utility.yul\":1541:1629   */\n        tag_59:\n            /* \"#utility.yul\":1649:1659   */\n          dup1\n            /* \"#utility.yul\":1645:1647   */\n          0x40\n            /* \"#utility.yul\":1638:1660   */\n          mstore\n            /* \"#utility.yul\":1428:1666   */\n          pop\n            /* \"#utility.yul\":1385:1666   */\n          pop\n          pop\n          jump\t// out\n            /* \"#utility.yul\":1672:1801   */\n        tag_35:\n            /* \"#utility.yul\":1706:1712   */\n          0x00\n            /* \"#utility.yul\":1733:1753   */\n          tag_62\n          tag_23\n          jump\t// in\n        tag_62:\n            /* \"#utility.yul\":1723:1753   */\n          swap1\n          pop\n            /* \"#utility.yul\":1762:1795   */\n          tag_63\n            /* \"#utility.yul\":1790:1794   */\n          dup3\n            /* \"#utility.yul\":1782:1788   */\n          dup3\n            /* \"#utility.yul\":1762:1795   */\n          tag_34\n          jump\t// in\n        tag_63:\n            /* \"#utility.yul\":1672:1801   */\n          swap2\n          swap1\n          pop\n          jump\t// out\n            /* \"#utility.yul\":1807:2115   */\n        tag_36:\n            /* \"#utility.yul\":1869:1873   */\n          0x00\n            /* \"#utility.yul\":1959:1977   */\n          0xffffffffffffffff\n            /* \"#utility.yul\":1951:1957   */\n          dup3\n            /* \"#utility.yul\":1948:1978   */\n          gt\n            /* \"#utility.yul\":1945:2001   */\n          iszero\n          tag_65\n          jumpi\n            /* \"#utility.yul\":1981:1999   */\n          tag_66\n          tag_33\n          jump\t// in\n        tag_66:\n            /* \"#utility.yul\":1945:2001   */\n        tag_65:\n            /* \"#utility.yul\":2019:2048   */\n          tag_67\n            /* \"#utility.yul\":2041:2047   */\n          dup3\n            /* \"#utility.yul\":2019:2048   */\n          tag_32\n          jump\t// in\n        tag_67:\n            /* \"#utility.yul\":2011:2048   */\n          swap1\n          pop\n            /* \"#utility.yul\":2103:2107   */\n          0x20\n            /* \"#utility.yul\":2097:2101   */\n          dup2\n            /* \"#utility.yul\":2093:2108   */\n          add\n            /* \"#utility.yul\":2085:2108   */\n          swap1\n          pop\n            /* \"#utility.yul\":1807:2115   */\n          swap2\n          swap1\n          pop\n          jump\t// out\n            /* \"#utility.yul\":2121:2428   */\n        tag_37:\n            /* \"#utility.yul\":2189:2190   */\n          0x00\n            /* \"#utility.yul\":2199:2312   */\n        tag_69:\n            /* \"#utility.yul\":2213:2219   */\n          dup4\n            /* \"#utility.yul\":2210:2211   */\n          dup2\n            /* \"#utility.yul\":2207:2220   */\n          lt\n            /* \"#utility.yul\":2199:2312   */\n          iszero\n          tag_71\n          jumpi\n            /* \"#utility.yul\":2298:2299   */\n          dup1\n            /* \"#utility.yul\":2293:2296   */\n          dup3\n            /* \"#utility.yul\":2289:2300   */\n          add\n            /* \"#utility.yul\":2283:2301   */\n          mload\n            /* \"#utility.yul\":2279:2280   */\n          dup2\n            /* \"#utility.yul\":2274:2277   */\n          dup5\n            /* \"#utility.yul\":2270:2281   */\n          add\n            /* \"#utility.yul\":2263:2302   */\n          mstore\n            /* \"#utility.yul\":2235:2237   */\n          0x20\n            /* \"#utility.yul\":2232:2233   */\n          dup2\n            /* \"#utility.yul\":2228:2238   */\n          add\n            /* \"#utility.yul\":2223:2238   */\n          swap1\n          pop\n            /* \"#utility.yul\":2199:2312   */\n          jump(tag_69)\n        tag_71:\n            /* \"#utility.yul\":2330:2336   */\n          dup4\n            /* \"#utility.yul\":2327:2328   */\n          dup2\n            /* \"#utility.yul\":2324:2337   */\n          gt\n            /* \"#utility.yul\":2321:2422   */\n          iszero\n          tag_72\n          jumpi\n            /* \"#utility.yul\":2410:2411   */\n          0x00\n            /* \"#utility.yul\":2401:2407   */\n          dup5\n            /* \"#utility.yul\":2396:2399   */\n          dup5\n            /* \"#utility.yul\":2392:2408   */\n          add\n            /* \"#utility.yul\":2385:2412   */\n          mstore\n            /* \"#utility.yul\":2321:2422   */\n        tag_72:\n            /* \"#utility.yul\":2170:2428   */\n          pop\n            /* \"#utility.yul\":2121:2428   */\n          pop\n          pop\n          pop\n          jump\t// out\n            /* \"#utility.yul\":2434:2855   */\n        tag_38:\n            /* \"#utility.yul\":2523:2528   */\n          0x00\n            /* \"#utility.yul\":2548:2614   */\n          tag_74\n            /* \"#utility.yul\":2564:2613   */\n          tag_75\n            /* \"#utility.yul\":2606:2612   */\n          dup5\n            /* \"#utility.yul\":2564:2613   */\n          tag_36\n          jump\t// in\n        tag_75:\n            /* \"#utility.yul\":2548:2614   */\n          tag_35\n          jump\t// in\n        tag_74:\n            /* \"#utility.yul\":2539:2614   */\n          swap1\n          pop\n            /* \"#utility.yul\":2637:2643   */\n          dup3\n            /* \"#utility.yul\":2630:2635   */\n          dup2\n            /* \"#utility.yul\":2623:2644   */\n          mstore\n            /* \"#utility.yul\":2675:2679   */\n          0x20\n            /* \"#utility.yul\":2668:2673   */\n          dup2\n            /* \"#utility.yul\":2664:2680   */\n          add\n            /* \"#utility.yul\":2713:2716   */\n          dup5\n            /* \"#utility.yul\":2704:2710   */\n          dup5\n            /* \"#utility.yul\":2699:2702   */\n          dup5\n            /* \"#utility.yul\":2695:2711   */\n          add\n            /* \"#utility.yul\":2692:2717   */\n          gt\n            /* \"#utility.yul\":2689:2801   */\n          iszero\n          tag_76\n          jumpi\n            /* \"#utility.yul\":2720:2799   */\n          tag_77\n          tag_31\n          jump\t// in\n        tag_77:\n            /* \"#utility.yul\":2689:2801   */\n        tag_76:\n            /* \"#utility.yul\":2810:2849   */\n          tag_78\n            /* \"#utility.yul\":2842:2848   */\n          dup5\n            /* \"#utility.yul\":2837:2840   */\n          dup3\n            /* \"#utility.yul\":2832:2835   */\n          dup6\n            /* \"#utility.yul\":2810:2849   */\n          tag_37\n          jump\t// in\n        tag_78:\n            /* \"#utility.yul\":2529:2855   */\n          pop\n            /* \"#utility.yul\":2434:2855   */\n          swap4\n          swap3\n          pop\n          pop\n          pop\n          jump\t// out\n            /* \"#utility.yul\":2875:3230   */\n        tag_39:\n            /* \"#utility.yul\":2942:2947   */\n          0x00\n            /* \"#utility.yul\":2991:2994   */\n          dup3\n            /* \"#utility.yul\":2984:2988   */\n          0x1f\n            /* \"#utility.yul\":2976:2982   */\n          dup4\n            /* \"#utility.yul\":2972:2989   */\n          add\n            /* \"#utility.yul\":2968:2995   */\n          slt\n            /* \"#utility.yul\":2958:3080   */\n          tag_80\n          jumpi\n            /* \"#utility.yul\":2999:3078   */\n          tag_81\n          tag_30\n          jump\t// in\n        tag_81:\n            /* \"#utility.yul\":2958:3080   */\n        tag_80:\n            /* \"#utility.yul\":3109:3115   */\n          dup2\n            /* \"#utility.yul\":3103:3116   */\n          mload\n            /* \"#utility.yul\":3134:3224   */\n          tag_82\n            /* \"#utility.yul\":3220:3223   */\n          dup5\n            /* \"#utility.yul\":3212:3218   */\n          dup3\n            /* \"#utility.yul\":3205:3209   */\n          0x20\n            /* \"#utility.yul\":3197:3203   */\n          dup7\n            /* \"#utility.yul\":3193:3210   */\n          add\n            /* \"#utility.yul\":3134:3224   */\n          tag_38\n          jump\t// in\n        tag_82:\n            /* \"#utility.yul\":3125:3224   */\n          swap2\n          pop\n            /* \"#utility.yul\":2948:3230   */\n          pop\n            /* \"#utility.yul\":2875:3230   */\n          swap3\n          swap2\n          pop\n          pop\n          jump\t// out\n            /* \"#utility.yul\":3236:4575   */\n        tag_3:\n            /* \"#utility.yul\":3363:3369   */\n          0x00\n            /* \"#utility.yul\":3371:3377   */\n          dup1\n            /* \"#utility.yul\":3379:3385   */\n          0x00\n            /* \"#utility.yul\":3387:3393   */\n          dup1\n            /* \"#utility.yul\":3436:3439   */\n          0x80\n            /* \"#utility.yul\":3424:3433   */\n          dup6\n            /* \"#utility.yul\":3415:3422   */\n          dup8\n            /* \"#utility.yul\":3411:3434   */\n          sub\n            /* \"#utility.yul\":3407:3440   */\n          slt\n            /* \"#utility.yul\":3404:3524   */\n          iszero\n          tag_84\n          jumpi\n            /* \"#utility.yul\":3443:3522   */\n          tag_85\n          tag_24\n          jump\t// in\n        tag_85:\n            /* \"#utility.yul\":3404:3524   */\n        tag_84:\n            /* \"#utility.yul\":3563:3564   */\n          0x00\n            /* \"#utility.yul\":3588:3652   */\n          tag_86\n            /* \"#utility.yul\":3644:3651   */\n          dup8\n            /* \"#utility.yul\":3635:3641   */\n          dup3\n            /* \"#utility.yul\":3624:3633   */\n          dup9\n            /* \"#utility.yul\":3620:3642   */\n          add\n            /* \"#utility.yul\":3588:3652   */\n          tag_29\n          jump\t// in\n        tag_86:\n            /* \"#utility.yul\":3578:3652   */\n          swap5\n          pop\n            /* \"#utility.yul\":3534:3662   */\n          pop\n            /* \"#utility.yul\":3722:3724   */\n          0x20\n            /* \"#utility.yul\":3711:3720   */\n          dup6\n            /* \"#utility.yul\":3707:3725   */\n          add\n            /* \"#utility.yul\":3701:3726   */\n          mload\n            /* \"#utility.yul\":3753:3771   */\n          0xffffffffffffffff\n            /* \"#utility.yul\":3745:3751   */\n          dup2\n            /* \"#utility.yul\":3742:3772   */\n          gt\n            /* \"#utility.yul\":3739:3856   */\n          iszero\n          tag_87\n          jumpi\n            /* \"#utility.yul\":3775:3854   */\n          tag_88\n          tag_25\n          jump\t// in\n        tag_88:\n            /* \"#utility.yul\":3739:3856   */\n        tag_87:\n            /* \"#utility.yul\":3880:3954   */\n          tag_89\n            /* \"#utility.yul\":3946:3953   */\n          dup8\n            /* \"#utility.yul\":3937:3943   */\n          dup3\n            /* \"#utility.yul\":3926:3935   */\n          dup9\n            /* \"#utility.yul\":3922:3944   */\n          add\n            /* \"#utility.yul\":3880:3954   */\n          tag_39\n          jump\t// in\n        tag_89:\n            /* \"#utility.yul\":3870:3954   */\n          swap4\n          pop\n            /* \"#utility.yul\":3672:3964   */\n          pop\n            /* \"#utility.yul\":4024:4026   */\n          0x40\n            /* \"#utility.yul\":4013:4022   */\n          dup6\n            /* \"#utility.yul\":4009:4027   */\n          add\n            /* \"#utility.yul\":4003:4028   */\n          mload\n            /* \"#utility.yul\":4055:4073   */\n          0xffffffffffffffff\n            /* \"#utility.yul\":4047:4053   */\n          dup2\n            /* \"#utility.yul\":4044:4074   */\n          gt\n            /* \"#utility.yul\":4041:4158   */\n          iszero\n          tag_90\n          jumpi\n            /* \"#utility.yul\":4077:4156   */\n          tag_91\n          tag_25\n          jump\t// in\n        tag_91:\n            /* \"#utility.yul\":4041:4158   */\n        tag_90:\n            /* \"#utility.yul\":4182:4256   */\n          tag_92\n            /* \"#utility.yul\":4248:4255   */\n          dup8\n            /* \"#utility.yul\":4239:4245   */\n          dup3\n            /* \"#utility.yul\":4228:4237   */\n          dup9\n            /* \"#utility.yul\":4224:4246   */\n          add\n            /* \"#utility.yul\":4182:4256   */\n          tag_39\n          jump\t// in\n        tag_92:\n            /* \"#utility.yul\":4172:4256   */\n          swap3\n          pop\n            /* \"#utility.yul\":3974:4266   */\n          pop\n            /* \"#utility.yul\":4326:4328   */\n          0x60\n            /* \"#utility.yul\":4315:4324   */\n          dup6\n            /* \"#utility.yul\":4311:4329   */\n          add\n            /* \"#utility.yul\":4305:4330   */\n          mload\n            /* \"#utility.yul\":4357:4375   */\n          0xffffffffffffffff\n            /* \"#utility.yul\":4349:4355   */\n          dup2\n            /* \"#utility.yul\":4346:4376   */\n          gt\n            /* \"#utility.yul\":4343:4460   */\n          iszero\n          tag_93\n          jumpi\n            /* \"#utility.yul\":4379:4458   */\n          tag_94\n          tag_25\n          jump\t// in\n        tag_94:\n            /* \"#utility.yul\":4343:4460   */\n        tag_93:\n            /* \"#utility.yul\":4484:4558   */\n          tag_95\n            /* \"#utility.yul\":4550:4557   */\n          dup8\n            /* \"#utility.yul\":4541:4547   */\n          dup3\n            /* \"#utility.yul\":4530:4539   */\n          dup9\n            /* \"#utility.yul\":4526:4548   */\n          add\n            /* \"#utility.yul\":4484:4558   */\n          tag_39\n          jump\t// in\n        tag_95:\n            /* \"#utility.yul\":4474:4558   */\n          swap2\n          pop\n            /* \"#utility.yul\":4276:4568   */\n          pop\n            /* \"#utility.yul\":3236:4575   */\n          swap3\n          swap6\n          swap2\n          swap5\n          pop\n          swap3\n          pop\n          jump\t// out\n            /* \"#utility.yul\":4581:4761   */\n        tag_40:\n            /* \"#utility.yul\":4629:4706   */\n          0x4e487b7100000000000000000000000000000000000000000000000000000000\n            /* \"#utility.yul\":4626:4627   */\n          0x00\n            /* \"#utility.yul\":4619:4707   */\n          mstore\n            /* \"#utility.yul\":4726:4730   */\n          0x22\n            /* \"#utility.yul\":4723:4724   */\n          0x04\n            /* \"#utility.yul\":4716:4731   */\n          mstore\n            /* \"#utility.yul\":4750:4754   */\n          0x24\n            /* \"#utility.yul\":4747:4748   */\n          0x00\n            /* \"#utility.yul\":4740:4755   */\n          revert\n            /* \"#utility.yul\":4767:5087   */\n        tag_13:\n            /* \"#utility.yul\":4811:4817   */\n          0x00\n            /* \"#utility.yul\":4848:4849   */\n          0x02\n            /* \"#utility.yul\":4842:4846   */\n          dup3\n            /* \"#utility.yul\":4838:4850   */\n          div\n            /* \"#utility.yul\":4828:4850   */\n          swap1\n          pop\n            /* \"#utility.yul\":4895:4896   */\n          0x01\n            /* \"#utility.yul\":4889:4893   */\n          dup3\n            /* \"#utility.yul\":4885:4897   */\n          and\n            /* \"#utility.yul\":4916:4934   */\n          dup1\n            /* \"#utility.yul\":4906:4987   */\n          tag_98\n          jumpi\n            /* \"#utility.yul\":4972:4976   */\n          0x7f\n            /* \"#utility.yul\":4964:4970   */\n          dup3\n            /* \"#utility.yul\":4960:4977   */\n          and\n            /* \"#utility.yul\":4950:4977   */\n          swap2\n          pop\n            /* \"#utility.yul\":4906:4987   */\n        tag_98:\n            /* \"#utility.yul\":5034:5036   */\n          0x20\n            /* \"#utility.yul\":5026:5032   */\n          dup3\n            /* \"#utility.yul\":5023:5037   */\n          lt\n            /* \"#utility.yul\":5003:5021   */\n          dup2\n            /* \"#utility.yul\":5000:5038   */\n          eq\n            /* \"#utility.yul\":4997:5081   */\n          iszero\n          tag_99\n          jumpi\n            /* \"#utility.yul\":5053:5071   */\n          tag_100\n          tag_40\n          jump\t// in\n        tag_100:\n            /* \"#utility.yul\":4997:5081   */\n        tag_99:\n            /* \"#utility.yul\":4818:5087   */\n          pop\n            /* \"#utility.yul\":4767:5087   */\n          swap2\n          swap1\n          pop\n          jump\t// out\n            /* \"Story.sol\":857:8912  contract Story {... */\n        tag_11:\n          dataSize(sub_0)\n          dup1\n          dataOffset(sub_0)\n          0x00\n          codecopy\n          0x00\n          return\n        stop\n\n        sub_0: assembly {\n                /* \"Story.sol\":857:8912  contract Story {... */\n              mstore(0x40, 0x80)\n              jumpi(tag_1, lt(calldatasize, 0x04))\n              shr(0xe0, calldataload(0x00))\n              dup1\n              0x7f51aaf9\n              gt\n              tag_17\n              jumpi\n              dup1\n              0xb5202522\n              gt\n              tag_18\n              jumpi\n              dup1\n              0xb5202522\n              eq\n              tag_13\n              jumpi\n              dup1\n              0xcfb65804\n              eq\n              tag_14\n              jumpi\n              dup1\n              0xd7bb99ba\n              eq\n              tag_15\n              jumpi\n              dup1\n              0xdfa14e23\n              eq\n              tag_16\n              jumpi\n              jump(tag_1)\n            tag_18:\n              dup1\n              0x7f51aaf9\n              eq\n              tag_9\n              jumpi\n              dup1\n              0x98b79628\n              eq\n              tag_10\n              jumpi\n              dup1\n              0x9c636a0f\n              eq\n              tag_11\n              jumpi\n              dup1\n              0x9d3ed807\n              eq\n              tag_12\n              jumpi\n              jump(tag_1)\n            tag_17:\n              dup1\n              0x3e5690f4\n              gt\n              tag_19\n              jumpi\n              dup1\n              0x3e5690f4\n              eq\n              tag_5\n              jumpi\n              dup1\n              0x4051ddac\n              eq\n              tag_6\n              jumpi\n              dup1\n              0x5cf298fb\n              eq\n              tag_7\n              jumpi\n              dup1\n              0x5d1a870a\n              eq\n              tag_8\n              jumpi\n              jump(tag_1)\n            tag_19:\n              dup1\n              0x2606a10b\n              eq\n              tag_2\n              jumpi\n              dup1\n              0x29224406\n              eq\n              tag_3\n              jumpi\n              dup1\n              0x3b6246c2\n              eq\n              tag_4\n              jumpi\n            tag_1:\n              0x00\n              dup1\n              revert\n                /* \"Story.sol\":6739:7093  function report() public noReentrancy{... */\n            tag_2:\n              callvalue\n              dup1\n              iszero\n              tag_20\n              jumpi\n              0x00\n              dup1\n              revert\n            tag_20:\n              pop\n              tag_21\n              tag_22\n              jump\t// in\n            tag_21:\n              stop\n                /* \"Story.sol\":4722:6057  function approveChapterRequest(uint _index) public noReentrancy{... */\n            tag_3:\n              callvalue\n              dup1\n              iszero\n              tag_23\n              jumpi\n              0x00\n              dup1\n              revert\n            tag_23:\n              pop\n              tag_24\n              0x04\n              dup1\n              calldatasize\n              sub\n              dup2\n              add\n              swap1\n              tag_25\n              swap2\n              swap1\n              tag_26\n              jump\t// in\n            tag_25:\n              tag_27\n              jump\t// in\n            tag_24:\n              stop\n                /* \"Story.sol\":6256:6729  function dispenseRewards() public {... */\n            tag_4:\n              callvalue\n              dup1\n              iszero\n              tag_28\n              jumpi\n              0x00\n              dup1\n              revert\n            tag_28:\n              pop\n              tag_29\n              tag_30\n              jump\t// in\n            tag_29:\n              stop\n                /* \"Story.sol\":999:1049  mapping(address => bool) public authorsForSolidity */\n            tag_5:\n              callvalue\n              dup1\n              iszero\n              tag_31\n              jumpi\n              0x00\n              dup1\n              revert\n            tag_31:\n              pop\n              tag_32\n              0x04\n              dup1\n              calldatasize\n              sub\n              dup2\n              add\n              swap1\n              tag_33\n              swap2\n              swap1\n              tag_34\n              jump\t// in\n            tag_33:\n              tag_35\n              jump\t// in\n            tag_32:\n              mload(0x40)\n              tag_36\n              swap2\n              swap1\n              tag_37\n              jump\t// in\n            tag_36:\n              mload(0x40)\n              dup1\n              swap2\n              sub\n              swap1\n              return\n                /* \"Story.sol\":7225:7747  function getSummary() public view returns (... */\n            tag_6:\n              callvalue\n              dup1\n              iszero\n              tag_38\n              jumpi\n              0x00\n              dup1\n              revert\n            tag_38:\n              pop\n              tag_39\n              tag_40\n              jump\t// in\n            tag_39:\n              mload(0x40)\n              tag_41\n              swap12\n              swap11\n              swap10\n              swap9\n              swap8\n              swap7\n              swap6\n              swap5\n              swap4\n              swap3\n              swap2\n              swap1\n              tag_42\n              jump\t// in\n            tag_41:\n              mload(0x40)\n              dup1\n              swap2\n              sub\n              swap1\n              return\n                /* \"Story.sol\":7755:7857  function isAuthor() public view returns (bool){... */\n            tag_7:\n              callvalue\n              dup1\n              iszero\n              tag_43\n              jumpi\n              0x00\n              dup1\n              revert\n            tag_43:\n              pop\n              tag_44\n              tag_45\n              jump\t// in\n            tag_44:\n              mload(0x40)\n              tag_46\n              swap2\n              swap1\n              tag_37\n              jump\t// in\n            tag_46:\n              mload(0x40)\n              dup1\n              swap2\n              sub\n              swap1\n              return\n                /* \"Story.sol\":1287:1307  bool public reported */\n            tag_8:\n              callvalue\n              dup1\n              iszero\n              tag_47\n              jumpi\n              0x00\n              dup1\n              revert\n            tag_47:\n              pop\n              tag_48\n              tag_49\n              jump\t// in\n            tag_48:\n              mload(0x40)\n              tag_50\n              swap2\n              swap1\n              tag_37\n              jump\t// in\n            tag_50:\n              mload(0x40)\n              dup1\n              swap2\n              sub\n              swap1\n              return\n                /* \"Story.sol\":1095:1146  mapping(address => bool) public chaptersForSolidity */\n            tag_9:\n              callvalue\n              dup1\n              iszero\n              tag_51\n              jumpi\n              0x00\n              dup1\n              revert\n            tag_51:\n              pop\n              tag_52\n              0x04\n              dup1\n              calldatasize\n              sub\n              dup2\n              add\n              swap1\n              tag_53\n              swap2\n              swap1\n              tag_34\n              jump\t// in\n            tag_53:\n              tag_54\n              jump\t// in\n            tag_52:\n              mload(0x40)\n              tag_55\n              swap2\n              swap1\n              tag_37\n              jump\t// in\n            tag_55:\n              mload(0x40)\n              dup1\n              swap2\n              sub\n              swap1\n              return\n                /* \"Story.sol\":2752:3669  function approveRequestToJoin(uint256 _index) public {... */\n            tag_10:\n              callvalue\n              dup1\n              iszero\n              tag_56\n              jumpi\n              0x00\n              dup1\n              revert\n            tag_56:\n              pop\n              tag_57\n              0x04\n              dup1\n              calldatasize\n              sub\n              dup2\n              add\n              swap1\n              tag_58\n              swap2\n              swap1\n              tag_26\n              jump\t// in\n            tag_58:\n              tag_59\n              jump\t// in\n            tag_57:\n              stop\n                /* \"Story.sol\":7107:7211  function getChapters() public view returns (address[] memory) {... */\n            tag_11:\n              callvalue\n              dup1\n              iszero\n              tag_60\n              jumpi\n              0x00\n              dup1\n              revert\n            tag_60:\n              pop\n              tag_61\n              tag_62\n              jump\t// in\n            tag_61:\n              mload(0x40)\n              tag_63\n              swap2\n              swap1\n              tag_64\n              jump\t// in\n            tag_63:\n              mload(0x40)\n              dup1\n              swap2\n              sub\n              swap1\n              return\n                /* \"Story.sol\":1056:1088  address[] public authorsForReact */\n            tag_12:\n              callvalue\n              dup1\n              iszero\n              tag_65\n              jumpi\n              0x00\n              dup1\n              revert\n            tag_65:\n              pop\n              tag_66\n              0x04\n              dup1\n              calldatasize\n              sub\n              dup2\n              add\n              swap1\n              tag_67\n              swap2\n              swap1\n              tag_26\n              jump\t// in\n            tag_67:\n              tag_68\n              jump\t// in\n            tag_66:\n              mload(0x40)\n              tag_69\n              swap2\n              swap1\n              tag_70\n              jump\t// in\n            tag_69:\n              mload(0x40)\n              dup1\n              swap2\n              sub\n              swap1\n              return\n                /* \"Story.sol\":1153:1186  address[] public chaptersForReact */\n            tag_13:\n              callvalue\n              dup1\n              iszero\n              tag_71\n              jumpi\n              0x00\n              dup1\n              revert\n            tag_71:\n              pop\n              tag_72\n              0x04\n              dup1\n              calldatasize\n              sub\n              dup2\n              add\n              swap1\n              tag_73\n              swap2\n              swap1\n              tag_26\n              jump\t// in\n            tag_73:\n              tag_74\n              jump\t// in\n            tag_72:\n              mload(0x40)\n              tag_75\n              swap2\n              swap1\n              tag_70\n              jump\t// in\n            tag_75:\n              mload(0x40)\n              dup1\n              swap2\n              sub\n              swap1\n              return\n                /* \"Story.sol\":3677:4714  function createChapterRequest(string memory _ipfsHash, address _parentChapter, address _childChapter) public noReentrancy{... */\n            tag_14:\n              callvalue\n              dup1\n              iszero\n              tag_76\n              jumpi\n              0x00\n              dup1\n              revert\n            tag_76:\n              pop\n              tag_77\n              0x04\n              dup1\n              calldatasize\n              sub\n              dup2\n              add\n              swap1\n              tag_78\n              swap2\n              swap1\n              tag_79\n              jump\t// in\n            tag_78:\n              tag_80\n              jump\t// in\n            tag_77:\n              stop\n                /* \"Story.sol\":6065:6248  function contribute() public payable noReentrancy{... */\n            tag_15:\n              tag_81\n              tag_82\n              jump\t// in\n            tag_81:\n              stop\n                /* \"Story.sol\":2240:2744  function createRequestToJoin(string memory _proposal) public {... */\n            tag_16:\n              callvalue\n              dup1\n              iszero\n              tag_83\n              jumpi\n              0x00\n              dup1\n              revert\n            tag_83:\n              pop\n              tag_84\n              0x04\n              dup1\n              calldatasize\n              sub\n              dup2\n              add\n              swap1\n              tag_85\n              swap2\n              swap1\n              tag_86\n              jump\t// in\n            tag_85:\n              tag_87\n              jump\t// in\n            tag_84:\n              stop\n                /* \"Story.sol\":6739:7093  function report() public noReentrancy{... */\n            tag_22:\n                /* \"Story.sol\":8812:8819  _locked */\n              0x08\n              0x00\n              swap1\n              sload\n              swap1\n              0x0100\n              exp\n              swap1\n              div\n              0xff\n              and\n                /* \"Story.sol\":8811:8819  !_locked */\n              iszero\n                /* \"Story.sol\":8803:8838  require(!_locked, \"Reentrant call\") */\n              tag_89\n              jumpi\n              mload(0x40)\n              0x08c379a000000000000000000000000000000000000000000000000000000000\n              dup2\n              mstore\n              0x04\n              add\n              tag_90\n              swap1\n              tag_91\n              jump\t// in\n            tag_90:\n              mload(0x40)\n              dup1\n              swap2\n              sub\n              swap1\n              revert\n            tag_89:\n                /* \"Story.sol\":8859:8863  true */\n              0x01\n                /* \"Story.sol\":8849:8856  _locked */\n              0x08\n              0x00\n                /* \"Story.sol\":8849:8863  _locked = true */\n              0x0100\n              exp\n              dup2\n              sload\n              dup2\n              0xff\n              mul\n              not\n              and\n              swap1\n              dup4\n              iszero\n              iszero\n              mul\n              or\n              swap1\n              sstore\n              pop\n                /* \"Story.sol\":6796:6804  reported */\n              0x0b\n              0x00\n              swap1\n              sload\n              swap1\n              0x0100\n              exp\n              swap1\n              div\n              0xff\n              and\n                /* \"Story.sol\":6795:6804  !reported */\n              iszero\n                /* \"Story.sol\":6787:6837  require(!reported, \"This story has been reported\") */\n              tag_93\n              jumpi\n              mload(0x40)\n              0x08c379a000000000000000000000000000000000000000000000000000000000\n              dup2\n              mstore\n              0x04\n              add\n              tag_94\n              swap1\n              tag_95\n              jump\t// in\n            tag_94:\n              mload(0x40)\n              dup1\n              swap2\n              sub\n              swap1\n              revert\n            tag_93:\n                /* \"Story.sol\":6857:6866  reporters */\n              0x09\n                /* \"Story.sol\":6857:6878  reporters[msg.sender] */\n              0x00\n                /* \"Story.sol\":6867:6877  msg.sender */\n              caller\n                /* \"Story.sol\":6857:6878  reporters[msg.sender] */\n              0xffffffffffffffffffffffffffffffffffffffff\n              and\n              0xffffffffffffffffffffffffffffffffffffffff\n              and\n              dup2\n              mstore\n              0x20\n              add\n              swap1\n              dup2\n              mstore\n              0x20\n              add\n              0x00\n              keccak256\n              0x00\n              swap1\n              sload\n              swap1\n              0x0100\n              exp\n              swap1\n              div\n              0xff\n              and\n                /* \"Story.sol\":6856:6878  !reporters[msg.sender] */\n              iszero\n                /* \"Story.sol\":6848:6917  require(!reporters[msg.sender],\"You have reported this story before\") */\n              tag_96\n              jumpi\n              mload(0x40)\n              0x08c379a000000000000000000000000000000000000000000000000000000000\n              dup2\n              mstore\n              0x04\n              add\n              tag_97\n              swap1\n              tag_98\n              jump\t// in\n            tag_97:\n              mload(0x40)\n              dup1\n              swap2\n              sub\n              swap1\n              revert\n            tag_96:\n                /* \"Story.sol\":6928:6949  reportersCount.add(1) */\n              tag_99\n                /* \"Story.sol\":6947:6948  1 */\n              0x01\n                /* \"Story.sol\":6928:6942  reportersCount */\n              sload(0x0a)\n                /* \"Story.sol\":6928:6946  reportersCount.add */\n              tag_100\n              swap1\n                /* \"Story.sol\":6928:6949  reportersCount.add(1) */\n              swap2\n              swap1\n              0xffffffff\n              and\n              jump\t// in\n            tag_99:\n              pop\n                /* \"Story.sol\":6984:6988  true */\n              0x01\n                /* \"Story.sol\":6960:6969  reporters */\n              0x09\n                /* \"Story.sol\":6960:6981  reporters[msg.sender] */\n              0x00\n                /* \"Story.sol\":6970:6980  msg.sender */\n              caller\n                /* \"Story.sol\":6960:6981  reporters[msg.sender] */\n              0xffffffffffffffffffffffffffffffffffffffff\n              and\n              0xffffffffffffffffffffffffffffffffffffffff\n              and\n              dup2\n              mstore\n              0x20\n              add\n              swap1\n              dup2\n              mstore\n              0x20\n              add\n              0x00\n              keccak256\n              0x00\n                /* \"Story.sol\":6960:6988  reporters[msg.sender] = true */\n              0x0100\n              exp\n              dup2\n              sload\n              dup2\n              0xff\n              mul\n              not\n              and\n              swap1\n              dup4\n              iszero\n              iszero\n              mul\n              or\n              swap1\n              sstore\n              pop\n                /* \"Story.sol\":7021:7024  100 */\n              0x64\n                /* \"Story.sol\":7004:7018  reportersCount */\n              sload(0x0a)\n                /* \"Story.sol\":7004:7024  reportersCount > 100 */\n              gt\n                /* \"Story.sol\":7001:7086  if(reportersCount > 100){ //arbitrary number... */\n              iszero\n              tag_101\n              jumpi\n                /* \"Story.sol\":7070:7074  true */\n              0x01\n                /* \"Story.sol\":7059:7067  reported */\n              0x0b\n              0x00\n                /* \"Story.sol\":7059:7074  reported = true */\n              0x0100\n              exp\n              dup2\n              sload\n              dup2\n              0xff\n              mul\n              not\n              and\n              swap1\n              dup4\n              iszero\n              iszero\n              mul\n              or\n              swap1\n              sstore\n              pop\n                /* \"Story.sol\":7001:7086  if(reportersCount > 100){ //arbitrary number... */\n            tag_101:\n                /* \"Story.sol\":8896:8901  false */\n              0x00\n                /* \"Story.sol\":8886:8893  _locked */\n              0x08\n              0x00\n                /* \"Story.sol\":8886:8901  _locked = false */\n              0x0100\n              exp\n              dup2\n              sload\n              dup2\n              0xff\n              mul\n              not\n              and\n              swap1\n              dup4\n              iszero\n              iszero\n              mul\n              or\n              swap1\n              sstore\n              pop\n                /* \"Story.sol\":6739:7093  function report() public noReentrancy{... */\n              jump\t// out\n                /* \"Story.sol\":4722:6057  function approveChapterRequest(uint _index) public noReentrancy{... */\n            tag_27:\n                /* \"Story.sol\":8812:8819  _locked */\n              0x08\n              0x00\n              swap1\n              sload\n              swap1\n              0x0100\n              exp\n              swap1\n              div\n              0xff\n              and\n                /* \"Story.sol\":8811:8819  !_locked */\n              iszero\n                /* \"Story.sol\":8803:8838  require(!_locked, \"Reentrant call\") */\n              tag_103\n              jumpi\n              mload(0x40)\n              0x08c379a000000000000000000000000000000000000000000000000000000000\n              dup2\n              mstore\n              0x04\n              add\n              tag_104\n              swap1\n              tag_91\n              jump\t// in\n            tag_104:\n              mload(0x40)\n              dup1\n              swap2\n              sub\n              swap1\n              revert\n            tag_103:\n                /* \"Story.sol\":8859:8863  true */\n              0x01\n                /* \"Story.sol\":8849:8856  _locked */\n              0x08\n              0x00\n                /* \"Story.sol\":8849:8863  _locked = true */\n              0x0100\n              exp\n              dup2\n              sload\n              dup2\n              0xff\n              mul\n              not\n              and\n              swap1\n              dup4\n              iszero\n              iszero\n              mul\n              or\n              swap1\n              sstore\n              pop\n                /* \"Story.sol\":4805:4813  reported */\n              0x0b\n              0x00\n              swap1\n              sload\n              swap1\n              0x0100\n              exp\n              swap1\n              div\n              0xff\n              and\n                /* \"Story.sol\":4804:4813  !reported */\n              iszero\n                /* \"Story.sol\":4796:4846  require(!reported, \"This story has been reported\") */\n              tag_106\n              jumpi\n              mload(0x40)\n              0x08c379a000000000000000000000000000000000000000000000000000000000\n              dup2\n              mstore\n              0x04\n              add\n              tag_107\n              swap1\n              tag_95\n              jump\t// in\n            tag_107:\n              mload(0x40)\n              dup1\n              swap2\n              sub\n              swap1\n              revert\n            tag_106:\n                /* \"Story.sol\":4865:4883  authorsForSolidity */\n              0x04\n                /* \"Story.sol\":4865:4895  authorsForSolidity[msg.sender] */\n              0x00\n                /* \"Story.sol\":4884:4894  msg.sender */\n              caller\n                /* \"Story.sol\":4865:4895  authorsForSolidity[msg.sender] */\n              0xffffffffffffffffffffffffffffffffffffffff\n              and\n              0xffffffffffffffffffffffffffffffffffffffff\n              and\n              dup2\n              mstore\n              0x20\n              add\n              swap1\n              dup2\n              mstore\n              0x20\n              add\n              0x00\n              keccak256\n              0x00\n              swap1\n              sload\n              swap1\n              0x0100\n              exp\n              swap1\n              div\n              0xff\n              and\n                /* \"Story.sol\":4857:4945  require(authorsForSolidity[msg.sender], \"Only an accepted author can approve a request\") */\n              tag_108\n              jumpi\n              mload(0x40)\n              0x08c379a000000000000000000000000000000000000000000000000000000000\n              dup2\n              mstore\n              0x04\n              add\n              tag_109\n              swap1\n              tag_110\n              jump\t// in\n            tag_109:\n              mload(0x40)\n              dup1\n              swap2\n              sub\n              swap1\n              revert\n            tag_108:\n                /* \"Story.sol\":4973:4988  chapterRequests */\n              0x0d\n                /* \"Story.sol\":4973:4995  chapterRequests.length */\n              dup1\n              sload\n              swap1\n              pop\n                /* \"Story.sol\":4964:4970  _index */\n              dup2\n                /* \"Story.sol\":4964:4995  _index < chapterRequests.length */\n              lt\n                /* \"Story.sol\":4964:5008  _index < chapterRequests.length && _index>=0 */\n              dup1\n              iszero\n              tag_111\n              jumpi\n              pop\n                /* \"Story.sol\":5007:5008  0 */\n              0x00\n                /* \"Story.sol\":4999:5005  _index */\n              dup2\n                /* \"Story.sol\":4999:5008  _index>=0 */\n              lt\n              iszero\n                /* \"Story.sol\":4964:5008  _index < chapterRequests.length && _index>=0 */\n            tag_111:\n                /* \"Story.sol\":4956:5032  require(_index < chapterRequests.length && _index>=0, \"Index out of bounds\") */\n              tag_112\n              jumpi\n              mload(0x40)\n              0x08c379a000000000000000000000000000000000000000000000000000000000\n              dup2\n              mstore\n              0x04\n              add\n              tag_113\n              swap1\n              tag_114\n              jump\t// in\n            tag_113:\n              mload(0x40)\n              dup1\n              swap2\n              sub\n              swap1\n              revert\n            tag_112:\n                /* \"Story.sol\":5045:5075  ChapterRequest storage request */\n              0x00\n                /* \"Story.sol\":5078:5093  chapterRequests */\n              0x0d\n                /* \"Story.sol\":5094:5100  _index */\n              dup3\n                /* \"Story.sol\":5078:5101  chapterRequests[_index] */\n              dup2\n              sload\n              dup2\n              lt\n              tag_115\n              jumpi\n              tag_116\n              tag_117\n              jump\t// in\n            tag_116:\n            tag_115:\n              swap1\n              0x00\n              mstore\n              keccak256(0x00, 0x20)\n              swap1\n              0x08\n              mul\n              add\n                /* \"Story.sol\":5045:5101  ChapterRequest storage request = chapterRequests[_index] */\n              swap1\n              pop\n                /* \"Story.sol\":5144:5148  true */\n              0x01\n                /* \"Story.sol\":5112:5119  request */\n              dup2\n                /* \"Story.sol\":5112:5129  request.approvers */\n              0x05\n              add\n                /* \"Story.sol\":5112:5141  request.approvers[msg.sender] */\n              0x00\n                /* \"Story.sol\":5130:5140  msg.sender */\n              caller\n                /* \"Story.sol\":5112:5141  request.approvers[msg.sender] */\n              0xffffffffffffffffffffffffffffffffffffffff\n              and\n              0xffffffffffffffffffffffffffffffffffffffff\n              and\n              dup2\n              mstore\n              0x20\n              add\n              swap1\n              dup2\n              mstore\n              0x20\n              add\n              0x00\n              keccak256\n              0x00\n                /* \"Story.sol\":5112:5148  request.approvers[msg.sender] = true */\n              0x0100\n              exp\n              dup2\n              sload\n              dup2\n              0xff\n              mul\n              not\n              and\n              swap1\n              dup4\n              iszero\n              iszero\n              mul\n              or\n              swap1\n              sstore\n              pop\n                /* \"Story.sol\":5184:5213  request.approversCount.add(1) */\n              tag_119\n                /* \"Story.sol\":5211:5212  1 */\n              0x01\n                /* \"Story.sol\":5184:5191  request */\n              dup3\n                /* \"Story.sol\":5184:5206  request.approversCount */\n              0x06\n              add\n              sload\n                /* \"Story.sol\":5184:5210  request.approversCount.add */\n              tag_100\n              swap1\n                /* \"Story.sol\":5184:5213  request.approversCount.add(1) */\n              swap2\n              swap1\n              0xffffffff\n              and\n              jump\t// in\n            tag_119:\n                /* \"Story.sol\":5159:5166  request */\n              dup2\n                /* \"Story.sol\":5159:5181  request.approversCount */\n              0x06\n              add\n                /* \"Story.sol\":5159:5213  request.approversCount = request.approversCount.add(1) */\n              dup2\n              swap1\n              sstore\n              pop\n                /* \"Story.sol\":5322:5337  authorsForReact */\n              0x05\n                /* \"Story.sol\":5322:5344  authorsForReact.length */\n              dup1\n              sload\n              swap1\n              pop\n                /* \"Story.sol\":5296:5303  request */\n              dup2\n                /* \"Story.sol\":5296:5318  request.approversCount */\n              0x06\n              add\n              sload\n                /* \"Story.sol\":5296:5344  request.approversCount == authorsForReact.length */\n              eq\n                /* \"Story.sol\":5293:6048  if(request.approversCount == authorsForReact.length){... */\n              iszero\n              tag_120\n              jumpi\n                /* \"Story.sol\":5377:5381  true */\n              0x01\n                /* \"Story.sol\":5360:5367  request */\n              dup2\n                /* \"Story.sol\":5360:5374  request.status */\n              0x07\n              add\n              0x00\n                /* \"Story.sol\":5360:5381  request.status = true */\n              0x0100\n              exp\n              dup2\n              sload\n              dup2\n              0xff\n              mul\n              not\n              and\n              swap1\n              dup4\n              iszero\n              iszero\n              mul\n              or\n              swap1\n              sstore\n              pop\n                /* \"Story.sol\":5396:5414  Chapter newChapter */\n              0x00\n                /* \"Story.sol\":5429:5436  request */\n              dup2\n                /* \"Story.sol\":5429:5443  request.author */\n              0x02\n              add\n              0x00\n              swap1\n              sload\n              swap1\n              0x0100\n              exp\n              swap1\n              div\n              0xffffffffffffffffffffffffffffffffffffffff\n              and\n                /* \"Story.sol\":5453:5457  this */\n              address\n                /* \"Story.sol\":5460:5467  request */\n              dup4\n                /* \"Story.sol\":5460:5476  request.ipfsHash */\n              0x00\n              add\n                /* \"Story.sol\":5478:5485  request */\n              dup5\n                /* \"Story.sol\":5478:5499  request.parentChapter */\n              0x03\n              add\n              0x00\n              swap1\n              sload\n              swap1\n              0x0100\n              exp\n              swap1\n              div\n              0xffffffffffffffffffffffffffffffffffffffff\n              and\n                /* \"Story.sol\":5501:5508  request */\n              dup6\n                /* \"Story.sol\":5501:5521  request.childChapter */\n              0x04\n              add\n              0x00\n              swap1\n              sload\n              swap1\n              0x0100\n              exp\n              swap1\n              div\n              0xffffffffffffffffffffffffffffffffffffffff\n              and\n                /* \"Story.sol\":5417:5522  new Chapter(request.author, address(this), request.ipfsHash, request.parentChapter, request.childChapter) */\n              mload(0x40)\n              tag_121\n              swap1\n              tag_122\n              jump\t// in\n            tag_121:\n              tag_123\n              swap6\n              swap5\n              swap4\n              swap3\n              swap2\n              swap1\n              tag_124\n              jump\t// in\n            tag_123:\n              mload(0x40)\n              dup1\n              swap2\n              sub\n              swap1\n              0x00\n              create\n              dup1\n              iszero\n              dup1\n              iszero\n              tag_125\n              jumpi\n              returndatasize\n              0x00\n              dup1\n              returndatacopy\n              revert(0x00, returndatasize)\n            tag_125:\n              pop\n                /* \"Story.sol\":5396:5522  Chapter newChapter = new Chapter(request.author, address(this), request.ipfsHash, request.parentChapter, request.childChapter) */\n              swap1\n              pop\n                /* \"Story.sol\":5575:5576  0 */\n              0x00\n                /* \"Story.sol\":5542:5577  request.parentChapter != address(0) */\n              0xffffffffffffffffffffffffffffffffffffffff\n              and\n                /* \"Story.sol\":5542:5549  request */\n              dup3\n                /* \"Story.sol\":5542:5563  request.parentChapter */\n              0x03\n              add\n              0x00\n              swap1\n              sload\n              swap1\n              0x0100\n              exp\n              swap1\n              div\n              0xffffffffffffffffffffffffffffffffffffffff\n              and\n                /* \"Story.sol\":5542:5577  request.parentChapter != address(0) */\n              0xffffffffffffffffffffffffffffffffffffffff\n              and\n              eq\n                /* \"Story.sol\":5539:5723  if(request.parentChapter != address(0)){... */\n              tag_126\n              jumpi\n                /* \"Story.sol\":5597:5611  Chapter parent */\n              0x00\n                /* \"Story.sol\":5622:5629  request */\n              dup3\n                /* \"Story.sol\":5622:5643  request.parentChapter */\n              0x03\n              add\n              0x00\n              swap1\n              sload\n              swap1\n              0x0100\n              exp\n              swap1\n              div\n              0xffffffffffffffffffffffffffffffffffffffff\n              and\n                /* \"Story.sol\":5597:5644  Chapter parent = Chapter(request.parentChapter) */\n              swap1\n              pop\n                /* \"Story.sol\":5663:5669  parent */\n              dup1\n                /* \"Story.sol\":5663:5686  parent.linkChildChapter */\n              0xffffffffffffffffffffffffffffffffffffffff\n              and\n              0x988e46c8\n                /* \"Story.sol\":5695:5705  newChapter */\n              dup4\n                /* \"Story.sol\":5663:5707  parent.linkChildChapter(address(newChapter)) */\n              mload(0x40)\n              dup3\n              0xffffffff\n              and\n              0xe0\n              shl\n              dup2\n              mstore\n              0x04\n              add\n              tag_127\n              swap2\n              swap1\n              tag_70\n              jump\t// in\n            tag_127:\n              0x00\n              mload(0x40)\n              dup1\n              dup4\n              sub\n              dup2\n              0x00\n              dup8\n              dup1\n              extcodesize\n              iszero\n              dup1\n              iszero\n              tag_128\n              jumpi\n              0x00\n              dup1\n              revert\n            tag_128:\n              pop\n              gas\n              call\n              iszero\n              dup1\n              iszero\n              tag_130\n              jumpi\n              returndatasize\n              0x00\n              dup1\n              returndatacopy\n              revert(0x00, returndatasize)\n            tag_130:\n              pop\n              pop\n              pop\n              pop\n                /* \"Story.sol\":5578:5723  {... */\n              pop\n                /* \"Story.sol\":5539:5723  if(request.parentChapter != address(0)){... */\n            tag_126:\n                /* \"Story.sol\":5772:5773  0 */\n              0x00\n                /* \"Story.sol\":5740:5774  request.childChapter != address(0) */\n              0xffffffffffffffffffffffffffffffffffffffff\n              and\n                /* \"Story.sol\":5740:5747  request */\n              dup3\n                /* \"Story.sol\":5740:5760  request.childChapter */\n              0x04\n              add\n              0x00\n              swap1\n              sload\n              swap1\n              0x0100\n              exp\n              swap1\n              div\n              0xffffffffffffffffffffffffffffffffffffffff\n              and\n                /* \"Story.sol\":5740:5774  request.childChapter != address(0) */\n              0xffffffffffffffffffffffffffffffffffffffff\n              and\n              eq\n                /* \"Story.sol\":5737:5918  if(request.childChapter != address(0)){... */\n              tag_131\n              jumpi\n                /* \"Story.sol\":5794:5807  Chapter child */\n              0x00\n                /* \"Story.sol\":5818:5825  request */\n              dup3\n                /* \"Story.sol\":5818:5838  request.childChapter */\n              0x04\n              add\n              0x00\n              swap1\n              sload\n              swap1\n              0x0100\n              exp\n              swap1\n              div\n              0xffffffffffffffffffffffffffffffffffffffff\n              and\n                /* \"Story.sol\":5794:5839  Chapter child = Chapter(request.childChapter) */\n              swap1\n              pop\n                /* \"Story.sol\":5858:5863  child */\n              dup1\n                /* \"Story.sol\":5858:5881  child.linkParentChapter */\n              0xffffffffffffffffffffffffffffffffffffffff\n              and\n              0x8758ce83\n                /* \"Story.sol\":5890:5900  newChapter */\n              dup4\n                /* \"Story.sol\":5858:5902  child.linkParentChapter(address(newChapter)) */\n              mload(0x40)\n              dup3\n              0xffffffff\n              and\n              0xe0\n              shl\n              dup2\n              mstore\n              0x04\n              add\n              tag_132\n              swap2\n              swap1\n              tag_70\n              jump\t// in\n            tag_132:\n              0x00\n              mload(0x40)\n              dup1\n              dup4\n              sub\n              dup2\n              0x00\n              dup8\n              dup1\n              extcodesize\n              iszero\n              dup1\n              iszero\n              tag_133\n              jumpi\n              0x00\n              dup1\n              revert\n            tag_133:\n              pop\n              gas\n              call\n              iszero\n              dup1\n              iszero\n              tag_135\n              jumpi\n              returndatasize\n              0x00\n              dup1\n              returndatacopy\n              revert(0x00, returndatasize)\n            tag_135:\n              pop\n              pop\n              pop\n              pop\n                /* \"Story.sol\":5775:5918  {... */\n              pop\n                /* \"Story.sol\":5737:5918  if(request.childChapter != address(0)){... */\n            tag_131:\n                /* \"Story.sol\":5932:5948  chaptersForReact */\n              0x07\n                /* \"Story.sol\":5962:5972  newChapter */\n              dup2\n                /* \"Story.sol\":5932:5974  chaptersForReact.push(address(newChapter)) */\n              swap1\n              dup1\n              0x01\n              dup2\n              sload\n              add\n              dup1\n              dup3\n              sstore\n              dup1\n              swap2\n              pop\n              pop\n              0x01\n              swap1\n              sub\n              swap1\n              0x00\n              mstore\n              keccak256(0x00, 0x20)\n              add\n              0x00\n              swap1\n              swap2\n              swap1\n              swap2\n              swap1\n              swap2\n              0x0100\n              exp\n              dup2\n              sload\n              dup2\n              0xffffffffffffffffffffffffffffffffffffffff\n              mul\n              not\n              and\n              swap1\n              dup4\n              0xffffffffffffffffffffffffffffffffffffffff\n              and\n              mul\n              or\n              swap1\n              sstore\n              pop\n                /* \"Story.sol\":6032:6036  true */\n              0x01\n                /* \"Story.sol\":5989:6008  chaptersForSolidity */\n              0x06\n                /* \"Story.sol\":5989:6029  chaptersForSolidity[address(newChapter)] */\n              0x00\n                /* \"Story.sol\":6017:6027  newChapter */\n              dup4\n                /* \"Story.sol\":5989:6029  chaptersForSolidity[address(newChapter)] */\n              0xffffffffffffffffffffffffffffffffffffffff\n              and\n              0xffffffffffffffffffffffffffffffffffffffff\n              and\n              dup2\n              mstore\n              0x20\n              add\n              swap1\n              dup2\n              mstore\n              0x20\n              add\n              0x00\n              keccak256\n              0x00\n                /* \"Story.sol\":5989:6036  chaptersForSolidity[address(newChapter)] = true */\n              0x0100\n              exp\n              dup2\n              sload\n              dup2\n              0xff\n              mul\n              not\n              and\n              swap1\n              dup4\n              iszero\n              iszero\n              mul\n              or\n              swap1\n              sstore\n              pop\n                /* \"Story.sol\":5345:6048  {... */\n              pop\n                /* \"Story.sol\":5293:6048  if(request.approversCount == authorsForReact.length){... */\n            tag_120:\n                /* \"Story.sol\":4785:6057  {... */\n              pop\n                /* \"Story.sol\":8896:8901  false */\n              0x00\n                /* \"Story.sol\":8886:8893  _locked */\n              0x08\n              0x00\n                /* \"Story.sol\":8886:8901  _locked = false */\n              0x0100\n              exp\n              dup2\n              sload\n              dup2\n              0xff\n              mul\n              not\n              and\n              swap1\n              dup4\n              iszero\n              iszero\n              mul\n              or\n              swap1\n              sstore\n              pop\n                /* \"Story.sol\":4722:6057  function approveChapterRequest(uint _index) public noReentrancy{... */\n              pop\n              jump\t// out\n                /* \"Story.sol\":6256:6729  function dispenseRewards() public {... */\n            tag_30:\n                /* \"Story.sol\":6309:6327  authorsForSolidity */\n              0x04\n                /* \"Story.sol\":6309:6339  authorsForSolidity[msg.sender] */\n              0x00\n                /* \"Story.sol\":6328:6338  msg.sender */\n              caller\n                /* \"Story.sol\":6309:6339  authorsForSolidity[msg.sender] */\n              0xffffffffffffffffffffffffffffffffffffffff\n              and\n              0xffffffffffffffffffffffffffffffffffffffff\n              and\n              dup2\n              mstore\n              0x20\n              add\n              swap1\n              dup2\n              mstore\n              0x20\n              add\n              0x00\n              keccak256\n              0x00\n              swap1\n              sload\n              swap1\n              0x0100\n              exp\n              swap1\n              div\n              0xff\n              and\n                /* \"Story.sol\":6301:6390  require(authorsForSolidity[msg.sender], \"Only an authorized author can dispense rewards\") */\n              tag_138\n              jumpi\n              mload(0x40)\n              0x08c379a000000000000000000000000000000000000000000000000000000000\n              dup2\n              mstore\n              0x04\n              add\n              tag_139\n              swap1\n              tag_140\n              jump\t// in\n            tag_139:\n              mload(0x40)\n              dup1\n              swap2\n              sub\n              swap1\n              revert\n            tag_138:\n                /* \"Story.sol\":6403:6423  uint256 totalAuthors */\n              0x00\n                /* \"Story.sol\":6426:6441  authorsForReact */\n              0x05\n                /* \"Story.sol\":6426:6448  authorsForReact.length */\n              dup1\n              sload\n              swap1\n              pop\n                /* \"Story.sol\":6403:6448  uint256 totalAuthors = authorsForReact.length */\n              swap1\n              pop\n                /* \"Story.sol\":6459:6482  uint256 rewardPerAuthor */\n              0x00\n                /* \"Story.sol\":6485:6524  address(this).balance.div(totalAuthors) */\n              tag_141\n                /* \"Story.sol\":6511:6523  totalAuthors */\n              dup3\n                /* \"Story.sol\":6485:6506  address(this).balance */\n              selfbalance\n                /* \"Story.sol\":6485:6510  address(this).balance.div */\n              tag_142\n              swap1\n                /* \"Story.sol\":6485:6524  address(this).balance.div(totalAuthors) */\n              swap2\n              swap1\n              0xffffffff\n              and\n              jump\t// in\n            tag_141:\n                /* \"Story.sol\":6459:6524  uint256 rewardPerAuthor = address(this).balance.div(totalAuthors) */\n              swap1\n              pop\n                /* \"Story.sol\":6561:6562  0 */\n              0x00\n                /* \"Story.sol\":6543:6558  rewardPerAuthor */\n              dup2\n                /* \"Story.sol\":6543:6562  rewardPerAuthor > 0 */\n              gt\n                /* \"Story.sol\":6535:6588  require(rewardPerAuthor > 0, \"No reward to dispense\") */\n              tag_143\n              jumpi\n              mload(0x40)\n              0x08c379a000000000000000000000000000000000000000000000000000000000\n              dup2\n              mstore\n              0x04\n              add\n              tag_144\n              swap1\n              tag_145\n              jump\t// in\n            tag_144:\n              mload(0x40)\n              dup1\n              swap2\n              sub\n              swap1\n              revert\n            tag_143:\n                /* \"Story.sol\":6604:6613  uint256 i */\n              0x00\n                /* \"Story.sol\":6599:6722  for (uint256 i = 0; i < totalAuthors; i++) {... */\n            tag_146:\n                /* \"Story.sol\":6623:6635  totalAuthors */\n              dup3\n                /* \"Story.sol\":6619:6620  i */\n              dup2\n                /* \"Story.sol\":6619:6635  i < totalAuthors */\n              lt\n                /* \"Story.sol\":6599:6722  for (uint256 i = 0; i < totalAuthors; i++) {... */\n              iszero\n              tag_147\n              jumpi\n                /* \"Story.sol\":6665:6680  authorsForReact */\n              0x05\n                /* \"Story.sol\":6681:6682  i */\n              dup2\n                /* \"Story.sol\":6665:6683  authorsForReact[i] */\n              dup2\n              sload\n              dup2\n              lt\n              tag_149\n              jumpi\n              tag_150\n              tag_117\n              jump\t// in\n            tag_150:\n            tag_149:\n              swap1\n              0x00\n              mstore\n              keccak256(0x00, 0x20)\n              add\n              0x00\n              swap1\n              sload\n              swap1\n              0x0100\n              exp\n              swap1\n              div\n              0xffffffffffffffffffffffffffffffffffffffff\n              and\n                /* \"Story.sol\":6657:6693  payable(authorsForReact[i]).transfer */\n              0xffffffffffffffffffffffffffffffffffffffff\n              and\n                /* \"Story.sol\":6657:6710  payable(authorsForReact[i]).transfer(rewardPerAuthor) */\n              0x08fc\n                /* \"Story.sol\":6694:6709  rewardPerAuthor */\n              dup4\n                /* \"Story.sol\":6657:6710  payable(authorsForReact[i]).transfer(rewardPerAuthor) */\n              swap1\n              dup2\n              iszero\n              mul\n              swap1\n              mload(0x40)\n              0x00\n              mload(0x40)\n              dup1\n              dup4\n              sub\n              dup2\n              dup6\n              dup9\n              dup9\n              call\n              swap4\n              pop\n              pop\n              pop\n              pop\n              iszero\n              dup1\n              iszero\n              tag_153\n              jumpi\n              returndatasize\n              0x00\n              dup1\n              returndatacopy\n              revert(0x00, returndatasize)\n            tag_153:\n              pop\n                /* \"Story.sol\":6637:6640  i++ */\n              dup1\n              dup1\n              tag_154\n              swap1\n              tag_155\n              jump\t// in\n            tag_154:\n              swap2\n              pop\n              pop\n                /* \"Story.sol\":6599:6722  for (uint256 i = 0; i < totalAuthors; i++) {... */\n              jump(tag_146)\n            tag_147:\n              pop\n                /* \"Story.sol\":6290:6729  {... */\n              pop\n              pop\n                /* \"Story.sol\":6256:6729  function dispenseRewards() public {... */\n              jump\t// out\n                /* \"Story.sol\":999:1049  mapping(address => bool) public authorsForSolidity */\n            tag_35:\n              mstore(0x20, 0x04)\n              dup1\n              0x00\n              mstore\n              keccak256(0x00, 0x40)\n              0x00\n              swap2\n              pop\n              sload\n              swap1\n              0x0100\n              exp\n              swap1\n              div\n              0xff\n              and\n              dup2\n              jump\t// out\n                /* \"Story.sol\":7225:7747  function getSummary() public view returns (... */\n            tag_40:\n                /* \"Story.sol\":7278:7285  address */\n              0x00\n                /* \"Story.sol\":7287:7300  string memory */\n              0x60\n                /* \"Story.sol\":7302:7315  string memory */\n              dup1\n                /* \"Story.sol\":7317:7330  string memory */\n              0x60\n                /* \"Story.sol\":7332:7348  address[] memory */\n              dup1\n                /* \"Story.sol\":7350:7367  address [] memory */\n              0x60\n                /* \"Story.sol\":7369:7373  uint */\n              0x00\n                /* \"Story.sol\":7375:7379  uint */\n              dup1\n                /* \"Story.sol\":7381:7385  uint */\n              0x00\n                /* \"Story.sol\":7387:7391  bool */\n              dup1\n                /* \"Story.sol\":7393:7397  uint */\n              0x00\n                /* \"Story.sol\":7433:7443  mainAuthor */\n              dup1\n              0x00\n              swap1\n              sload\n              swap1\n              0x0100\n              exp\n              swap1\n              div\n              0xffffffffffffffffffffffffffffffffffffffff\n              and\n                /* \"Story.sol\":7458:7463  title */\n              0x01\n                /* \"Story.sol\":7478:7483  genre */\n              0x02\n                /* \"Story.sol\":7498:7506  mainIdea */\n              0x03\n                /* \"Story.sol\":7521:7536  authorsForReact */\n              0x05\n                /* \"Story.sol\":7551:7567  chaptersForReact */\n              0x07\n                /* \"Story.sol\":7582:7596  requestsToJoin */\n              0x0c\n                /* \"Story.sol\":7582:7603  requestsToJoin.length */\n              dup1\n              sload\n              swap1\n              pop\n                /* \"Story.sol\":7618:7633  chapterRequests */\n              0x0d\n                /* \"Story.sol\":7618:7640  chapterRequests.length */\n              dup1\n              sload\n              swap1\n              pop\n                /* \"Story.sol\":7655:7669  reportersCount */\n              sload(0x0a)\n                /* \"Story.sol\":7684:7692  reported */\n              0x0b\n              0x00\n              swap1\n              sload\n              swap1\n              0x0100\n              exp\n              swap1\n              div\n              0xff\n              and\n                /* \"Story.sol\":7707:7728  address(this).balance */\n              selfbalance\n                /* \"Story.sol\":7410:7739  return ( ... */\n              dup10\n              dup1\n              sload\n              tag_157\n              swap1\n              tag_158\n              jump\t// in\n            tag_157:\n              dup1\n              0x1f\n              add\n              0x20\n              dup1\n              swap2\n              div\n              mul\n              0x20\n              add\n              mload(0x40)\n              swap1\n              dup2\n              add\n              0x40\n              mstore\n              dup1\n              swap3\n              swap2\n              swap1\n              dup2\n              dup2\n              mstore\n              0x20\n              add\n              dup3\n              dup1\n              sload\n              tag_159\n              swap1\n              tag_158\n              jump\t// in\n            tag_159:\n              dup1\n              iszero\n              tag_160\n              jumpi\n              dup1\n              0x1f\n              lt\n              tag_161\n              jumpi\n              0x0100\n              dup1\n              dup4\n              sload\n              div\n              mul\n              dup4\n              mstore\n              swap2\n              0x20\n              add\n              swap2\n              jump(tag_160)\n            tag_161:\n              dup3\n              add\n              swap2\n              swap1\n              0x00\n              mstore\n              keccak256(0x00, 0x20)\n              swap1\n            tag_162:\n              dup2\n              sload\n              dup2\n              mstore\n              swap1\n              0x01\n              add\n              swap1\n              0x20\n              add\n              dup1\n              dup4\n              gt\n              tag_162\n              jumpi\n              dup3\n              swap1\n              sub\n              0x1f\n              and\n              dup3\n              add\n              swap2\n            tag_160:\n              pop\n              pop\n              pop\n              pop\n              pop\n              swap10\n              pop\n              dup9\n              dup1\n              sload\n              tag_163\n              swap1\n              tag_158\n              jump\t// in\n            tag_163:\n              dup1\n              0x1f\n              add\n              0x20\n              dup1\n              swap2\n              div\n              mul\n              0x20\n              add\n              mload(0x40)\n              swap1\n              dup2\n              add\n              0x40\n              mstore\n              dup1\n              swap3\n              swap2\n              swap1\n              dup2\n              dup2\n              mstore\n              0x20\n              add\n              dup3\n              dup1\n              sload\n              tag_164\n              swap1\n              tag_158\n              jump\t// in\n            tag_164:\n              dup1\n              iszero\n              tag_165\n              jumpi\n              dup1\n              0x1f\n              lt\n              tag_166\n              jumpi\n              0x0100\n              dup1\n              dup4\n              sload\n              div\n              mul\n              dup4\n              mstore\n              swap2\n              0x20\n              add\n              swap2\n              jump(tag_165)\n            tag_166:\n              dup3\n              add\n              swap2\n              swap1\n              0x00\n              mstore\n              keccak256(0x00, 0x20)\n              swap1\n            tag_167:\n              dup2\n              sload\n              dup2\n              mstore\n              swap1\n              0x01\n              add\n              swap1\n              0x20\n              add\n              dup1\n              dup4\n              gt\n              tag_167\n              jumpi\n              dup3\n              swap1\n              sub\n              0x1f\n              and\n              dup3\n              add\n              swap2\n            tag_165:\n              pop\n              pop\n              pop\n              pop\n              pop\n              swap9\n              pop\n              dup8\n              dup1\n              sload\n              tag_168\n              swap1\n              tag_158\n              jump\t// in\n            tag_168:\n              dup1\n              0x1f\n              add\n              0x20\n              dup1\n              swap2\n              div\n              mul\n              0x20\n              add\n              mload(0x40)\n              swap1\n              dup2\n              add\n              0x40\n              mstore\n              dup1\n              swap3\n              swap2\n              swap1\n              dup2\n              dup2\n              mstore\n              0x20\n              add\n              dup3\n              dup1\n              sload\n              tag_169\n              swap1\n              tag_158\n              jump\t// in\n            tag_169:\n              dup1\n              iszero\n              tag_170\n              jumpi\n              dup1\n              0x1f\n              lt\n              tag_171\n              jumpi\n              0x0100\n              dup1\n              dup4\n              sload\n              div\n              mul\n              dup4\n              mstore\n              swap2\n              0x20\n              add\n              swap2\n              jump(tag_170)\n            tag_171:\n              dup3\n              add\n              swap2\n              swap1\n              0x00\n              mstore\n              keccak256(0x00, 0x20)\n              swap1\n            tag_172:\n              dup2\n              sload\n              dup2\n              mstore\n              swap1\n              0x01\n              add\n              swap1\n              0x20\n              add\n              dup1\n              dup4\n              gt\n              tag_172\n              jumpi\n              dup3\n              swap1\n              sub\n              0x1f\n              and\n              dup3\n              add\n              swap2\n            tag_170:\n              pop\n              pop\n              pop\n              pop\n              pop\n              swap8\n              pop\n              dup7\n              dup1\n              sload\n              dup1\n              0x20\n              mul\n              0x20\n              add\n              mload(0x40)\n              swap1\n              dup2\n              add\n              0x40\n              mstore\n              dup1\n              swap3\n              swap2\n              swap1\n              dup2\n              dup2\n              mstore\n              0x20\n              add\n              dup3\n              dup1\n              sload\n              dup1\n              iszero\n              tag_173\n              jumpi\n              0x20\n              mul\n              dup3\n              add\n              swap2\n              swap1\n              0x00\n              mstore\n              keccak256(0x00, 0x20)\n              swap1\n            tag_174:\n              dup2\n              0x00\n              swap1\n              sload\n              swap1\n              0x0100\n              exp\n              swap1\n              div\n              0xffffffffffffffffffffffffffffffffffffffff\n              and\n              0xffffffffffffffffffffffffffffffffffffffff\n              and\n              dup2\n              mstore\n              0x20\n              add\n              swap1\n              0x01\n              add\n              swap1\n              dup1\n              dup4\n              gt\n              tag_174\n              jumpi\n            tag_173:\n              pop\n              pop\n              pop\n              pop\n              pop\n              swap7\n              pop\n              dup6\n              dup1\n              sload\n              dup1\n              0x20\n              mul\n              0x20\n              add\n              mload(0x40)\n              swap1\n              dup2\n              add\n              0x40\n              mstore\n              dup1\n              swap3\n              swap2\n              swap1\n              dup2\n              dup2\n              mstore\n              0x20\n              add\n              dup3\n              dup1\n              sload\n              dup1\n              iszero\n              tag_175\n              jumpi\n              0x20\n              mul\n              dup3\n              add\n              swap2\n              swap1\n              0x00\n              mstore\n              keccak256(0x00, 0x20)\n              swap1\n            tag_176:\n              dup2\n              0x00\n              swap1\n              sload\n              swap1\n              0x0100\n              exp\n              swap1\n              div\n              0xffffffffffffffffffffffffffffffffffffffff\n              and\n              0xffffffffffffffffffffffffffffffffffffffff\n              and\n              dup2\n              mstore\n              0x20\n              add\n              swap1\n              0x01\n              add\n              swap1\n              dup1\n              dup4\n              gt\n              tag_176\n              jumpi\n            tag_175:\n              pop\n              pop\n              pop\n              pop\n              pop\n              swap6\n              pop\n              swap11\n              pop\n              swap11\n              pop\n              swap11\n              pop\n              swap11\n              pop\n              swap11\n              pop\n              swap11\n              pop\n              swap11\n              pop\n              swap11\n              pop\n              swap11\n              pop\n              swap11\n              pop\n              swap11\n              pop\n                /* \"Story.sol\":7225:7747  function getSummary() public view returns (... */\n              swap1\n              swap2\n              swap3\n              swap4\n              swap5\n              swap6\n              swap7\n              swap8\n              swap9\n              swap10\n              swap11\n              jump\t// out\n                /* \"Story.sol\":7755:7857  function isAuthor() public view returns (bool){... */\n            tag_45:\n                /* \"Story.sol\":7796:7800  bool */\n              0x00\n                /* \"Story.sol\":7819:7837  authorsForSolidity */\n              0x04\n                /* \"Story.sol\":7819:7849  authorsForSolidity[msg.sender] */\n              0x00\n                /* \"Story.sol\":7838:7848  msg.sender */\n              caller\n                /* \"Story.sol\":7819:7849  authorsForSolidity[msg.sender] */\n              0xffffffffffffffffffffffffffffffffffffffff\n              and\n              0xffffffffffffffffffffffffffffffffffffffff\n              and\n              dup2\n              mstore\n              0x20\n              add\n              swap1\n              dup2\n              mstore\n              0x20\n              add\n              0x00\n              keccak256\n              0x00\n              swap1\n              sload\n              swap1\n              0x0100\n              exp\n              swap1\n              div\n              0xff\n              and\n                /* \"Story.sol\":7812:7849  return authorsForSolidity[msg.sender] */\n              swap1\n              pop\n                /* \"Story.sol\":7755:7857  function isAuthor() public view returns (bool){... */\n              swap1\n              jump\t// out\n                /* \"Story.sol\":1287:1307  bool public reported */\n            tag_49:\n              0x0b\n              0x00\n              swap1\n              sload\n              swap1\n              0x0100\n              exp\n              swap1\n              div\n              0xff\n              and\n              dup2\n              jump\t// out\n                /* \"Story.sol\":1095:1146  mapping(address => bool) public chaptersForSolidity */\n            tag_54:\n              mstore(0x20, 0x06)\n              dup1\n              0x00\n              mstore\n              keccak256(0x00, 0x40)\n              0x00\n              swap2\n              pop\n              sload\n              swap1\n              0x0100\n              exp\n              swap1\n              div\n              0xff\n              and\n              dup2\n              jump\t// out\n                /* \"Story.sol\":2752:3669  function approveRequestToJoin(uint256 _index) public {... */\n            tag_59:\n                /* \"Story.sol\":2825:2833  reported */\n              0x0b\n              0x00\n              swap1\n              sload\n              swap1\n              0x0100\n              exp\n              swap1\n              div\n              0xff\n              and\n                /* \"Story.sol\":2824:2833  !reported */\n              iszero\n                /* \"Story.sol\":2816:2866  require(!reported, \"This story has been reported\") */\n              tag_179\n              jumpi\n              mload(0x40)\n              0x08c379a000000000000000000000000000000000000000000000000000000000\n              dup2\n              mstore\n              0x04\n              add\n              tag_180\n              swap1\n              tag_95\n              jump\t// in\n            tag_180:\n              mload(0x40)\n              dup1\n              swap2\n              sub\n              swap1\n              revert\n            tag_179:\n                /* \"Story.sol\":2885:2903  authorsForSolidity */\n              0x04\n                /* \"Story.sol\":2885:2915  authorsForSolidity[msg.sender] */\n              0x00\n                /* \"Story.sol\":2904:2914  msg.sender */\n              caller\n                /* \"Story.sol\":2885:2915  authorsForSolidity[msg.sender] */\n              0xffffffffffffffffffffffffffffffffffffffff\n              and\n              0xffffffffffffffffffffffffffffffffffffffff\n              and\n              dup2\n              mstore\n              0x20\n              add\n              swap1\n              dup2\n              mstore\n              0x20\n              add\n              0x00\n              keccak256\n              0x00\n              swap1\n              sload\n              swap1\n              0x0100\n              exp\n              swap1\n              div\n              0xff\n              and\n                /* \"Story.sol\":2877:2965  require(authorsForSolidity[msg.sender], \"Only an accepted author can approve a request\") */\n              tag_181\n              jumpi\n              mload(0x40)\n              0x08c379a000000000000000000000000000000000000000000000000000000000\n              dup2\n              mstore\n              0x04\n              add\n              tag_182\n              swap1\n              tag_110\n              jump\t// in\n            tag_182:\n              mload(0x40)\n              dup1\n              swap2\n              sub\n              swap1\n              revert\n            tag_181:\n                /* \"Story.sol\":2993:3007  requestsToJoin */\n              0x0c\n                /* \"Story.sol\":2993:3014  requestsToJoin.length */\n              dup1\n              sload\n              swap1\n              pop\n                /* \"Story.sol\":2984:2990  _index */\n              dup2\n                /* \"Story.sol\":2984:3014  _index < requestsToJoin.length */\n              lt\n                /* \"Story.sol\":2984:3027  _index < requestsToJoin.length && _index>=0 */\n              dup1\n              iszero\n              tag_183\n              jumpi\n              pop\n                /* \"Story.sol\":3026:3027  0 */\n              0x00\n                /* \"Story.sol\":3018:3024  _index */\n              dup2\n                /* \"Story.sol\":3018:3027  _index>=0 */\n              lt\n              iszero\n                /* \"Story.sol\":2984:3027  _index < requestsToJoin.length && _index>=0 */\n            tag_183:\n                /* \"Story.sol\":2976:3051  require(_index < requestsToJoin.length && _index>=0, \"Index out of bounds\") */\n              tag_184\n              jumpi\n              mload(0x40)\n              0x08c379a000000000000000000000000000000000000000000000000000000000\n              dup2\n              mstore\n              0x04\n              add\n              tag_185\n              swap1\n              tag_114\n              jump\t// in\n            tag_185:\n              mload(0x40)\n              dup1\n              swap2\n              sub\n              swap1\n              revert\n            tag_184:\n                /* \"Story.sol\":3064:3093  RequestToJoin storage request */\n              0x00\n                /* \"Story.sol\":3096:3110  requestsToJoin */\n              0x0c\n                /* \"Story.sol\":3111:3117  _index */\n              dup3\n                /* \"Story.sol\":3096:3118  requestsToJoin[_index] */\n              dup2\n              sload\n              dup2\n              lt\n              tag_186\n              jumpi\n              tag_187\n              tag_117\n              jump\t// in\n            tag_187:\n            tag_186:\n              swap1\n              0x00\n              mstore\n              keccak256(0x00, 0x20)\n              swap1\n              0x06\n              mul\n              add\n                /* \"Story.sol\":3064:3118  RequestToJoin storage request = requestsToJoin[_index] */\n              swap1\n              pop\n                /* \"Story.sol\":3140:3147  request */\n              dup1\n                /* \"Story.sol\":3140:3157  request.approvers */\n              0x03\n              add\n                /* \"Story.sol\":3140:3169  request.approvers[msg.sender] */\n              0x00\n                /* \"Story.sol\":3158:3168  msg.sender */\n              caller\n                /* \"Story.sol\":3140:3169  request.approvers[msg.sender] */\n              0xffffffffffffffffffffffffffffffffffffffff\n              and\n              0xffffffffffffffffffffffffffffffffffffffff\n              and\n              dup2\n              mstore\n              0x20\n              add\n              swap1\n              dup2\n              mstore\n              0x20\n              add\n              0x00\n              keccak256\n              0x00\n              swap1\n              sload\n              swap1\n              0x0100\n              exp\n              swap1\n              div\n              0xff\n              and\n                /* \"Story.sol\":3139:3169  !request.approvers[msg.sender] */\n              iszero\n                /* \"Story.sol\":3131:3208  require(!request.approvers[msg.sender],\"This author already approved before\") */\n              tag_189\n              jumpi\n              mload(0x40)\n              0x08c379a000000000000000000000000000000000000000000000000000000000\n              dup2\n              mstore\n              0x04\n              add\n              tag_190\n              swap1\n              tag_191\n              jump\t// in\n            tag_190:\n              mload(0x40)\n              dup1\n              swap2\n              sub\n              swap1\n              revert\n            tag_189:\n                /* \"Story.sol\":3253:3257  true */\n              0x01\n                /* \"Story.sol\":3221:3228  request */\n              dup2\n                /* \"Story.sol\":3221:3238  request.approvers */\n              0x03\n              add\n                /* \"Story.sol\":3221:3250  request.approvers[msg.sender] */\n              0x00\n                /* \"Story.sol\":3239:3249  msg.sender */\n              caller\n                /* \"Story.sol\":3221:3250  request.approvers[msg.sender] */\n              0xffffffffffffffffffffffffffffffffffffffff\n              and\n              0xffffffffffffffffffffffffffffffffffffffff\n              and\n              dup2\n              mstore\n              0x20\n              add\n              swap1\n              dup2\n              mstore\n              0x20\n              add\n              0x00\n              keccak256\n              0x00\n                /* \"Story.sol\":3221:3257  request.approvers[msg.sender] = true */\n              0x0100\n              exp\n              dup2\n              sload\n              dup2\n              0xff\n              mul\n              not\n              and\n              swap1\n              dup4\n              iszero\n              iszero\n              mul\n              or\n              swap1\n              sstore\n              pop\n                /* \"Story.sol\":3293:3322  request.approversCount.add(1) */\n              tag_192\n                /* \"Story.sol\":3320:3321  1 */\n              0x01\n                /* \"Story.sol\":3293:3300  request */\n              dup3\n                /* \"Story.sol\":3293:3315  request.approversCount */\n              0x04\n              add\n              sload\n                /* \"Story.sol\":3293:3319  request.approversCount.add */\n              tag_100\n              swap1\n                /* \"Story.sol\":3293:3322  request.approversCount.add(1) */\n              swap2\n              swap1\n              0xffffffff\n              and\n              jump\t// in\n            tag_192:\n                /* \"Story.sol\":3268:3275  request */\n              dup2\n                /* \"Story.sol\":3268:3290  request.approversCount */\n              0x04\n              add\n                /* \"Story.sol\":3268:3322  request.approversCount = request.approversCount.add(1) */\n              dup2\n              swap1\n              sstore\n              pop\n                /* \"Story.sol\":3429:3444  authorsForReact */\n              0x05\n                /* \"Story.sol\":3429:3451  authorsForReact.length */\n              dup1\n              sload\n              swap1\n              pop\n                /* \"Story.sol\":3403:3410  request */\n              dup2\n                /* \"Story.sol\":3403:3425  request.approversCount */\n              0x04\n              add\n              sload\n                /* \"Story.sol\":3403:3451  request.approversCount == authorsForReact.length */\n              eq\n                /* \"Story.sol\":3400:3662  if(request.approversCount == authorsForReact.length){... */\n              iszero\n              tag_193\n              jumpi\n                /* \"Story.sol\":3484:3488  true */\n              0x01\n                /* \"Story.sol\":3467:3474  request */\n              dup2\n                /* \"Story.sol\":3467:3481  request.status */\n              0x05\n              add\n              0x00\n                /* \"Story.sol\":3467:3488  request.status = true */\n              0x0100\n              exp\n              dup2\n              sload\n              dup2\n              0xff\n              mul\n              not\n              and\n              swap1\n              dup4\n              iszero\n              iszero\n              mul\n              or\n              swap1\n              sstore\n              pop\n                /* \"Story.sol\":3595:3599  true */\n              0x01\n                /* \"Story.sol\":3558:3576  authorsForSolidity */\n              0x04\n                /* \"Story.sol\":3558:3592  authorsForSolidity[request.author] */\n              0x00\n                /* \"Story.sol\":3577:3584  request */\n              dup4\n                /* \"Story.sol\":3577:3591  request.author */\n              0x02\n              add\n              0x00\n              swap1\n              sload\n              swap1\n              0x0100\n              exp\n              swap1\n              div\n              0xffffffffffffffffffffffffffffffffffffffff\n              and\n                /* \"Story.sol\":3558:3592  authorsForSolidity[request.author] */\n              0xffffffffffffffffffffffffffffffffffffffff\n              and\n              0xffffffffffffffffffffffffffffffffffffffff\n              and\n              dup2\n              mstore\n              0x20\n              add\n              swap1\n              dup2\n              mstore\n              0x20\n              add\n              0x00\n              keccak256\n              0x00\n                /* \"Story.sol\":3558:3599  authorsForSolidity[request.author] = true */\n              0x0100\n              exp\n              dup2\n              sload\n              dup2\n              0xff\n              mul\n              not\n              and\n              swap1\n              dup4\n              iszero\n              iszero\n              mul\n              or\n              swap1\n              sstore\n              pop\n                /* \"Story.sol\":3614:3629  authorsForReact */\n              0x05\n                /* \"Story.sol\":3635:3642  request */\n              dup2\n                /* \"Story.sol\":3635:3649  request.author */\n              0x02\n              add\n              0x00\n              swap1\n              sload\n              swap1\n              0x0100\n              exp\n              swap1\n              div\n              0xffffffffffffffffffffffffffffffffffffffff\n              and\n                /* \"Story.sol\":3614:3650  authorsForReact.push(request.author) */\n              swap1\n              dup1\n              0x01\n              dup2\n              sload\n              add\n              dup1\n              dup3\n              sstore\n              dup1\n              swap2\n              pop\n              pop\n              0x01\n              swap1\n              sub\n              swap1\n              0x00\n              mstore\n              keccak256(0x00, 0x20)\n              add\n              0x00\n              swap1\n              swap2\n              swap1\n              swap2\n              swap1\n              swap2\n              0x0100\n              exp\n              dup2\n              sload\n              dup2\n              0xffffffffffffffffffffffffffffffffffffffff\n              mul\n              not\n              and\n              swap1\n              dup4\n              0xffffffffffffffffffffffffffffffffffffffff\n              and\n              mul\n              or\n              swap1\n              sstore\n              pop\n                /* \"Story.sol\":3400:3662  if(request.approversCount == authorsForReact.length){... */\n            tag_193:\n                /* \"Story.sol\":2805:3669  {... */\n              pop\n                /* \"Story.sol\":2752:3669  function approveRequestToJoin(uint256 _index) public {... */\n              pop\n              jump\t// out\n                /* \"Story.sol\":7107:7211  function getChapters() public view returns (address[] memory) {... */\n            tag_62:\n                /* \"Story.sol\":7151:7167  address[] memory */\n              0x60\n                /* \"Story.sol\":7187:7203  chaptersForReact */\n              0x07\n                /* \"Story.sol\":7180:7203  return chaptersForReact */\n              dup1\n              sload\n              dup1\n              0x20\n              mul\n              0x20\n              add\n              mload(0x40)\n              swap1\n              dup2\n              add\n              0x40\n              mstore\n              dup1\n              swap3\n              swap2\n              swap1\n              dup2\n              dup2\n              mstore\n              0x20\n              add\n              dup3\n              dup1\n              sload\n              dup1\n              iszero\n              tag_196\n              jumpi\n              0x20\n              mul\n              dup3\n              add\n              swap2\n              swap1\n              0x00\n              mstore\n              keccak256(0x00, 0x20)\n              swap1\n            tag_197:\n              dup2\n              0x00\n              swap1\n              sload\n              swap1\n              0x0100\n              exp\n              swap1\n              div\n              0xffffffffffffffffffffffffffffffffffffffff\n              and\n              0xffffffffffffffffffffffffffffffffffffffff\n              and\n              dup2\n              mstore\n              0x20\n              add\n              swap1\n              0x01\n              add\n              swap1\n              dup1\n              dup4\n              gt\n              tag_197\n              jumpi\n            tag_196:\n              pop\n              pop\n              pop\n              pop\n              pop\n              swap1\n              pop\n                /* \"Story.sol\":7107:7211  function getChapters() public view returns (address[] memory) {... */\n              swap1\n              jump\t// out\n                /* \"Story.sol\":1056:1088  address[] public authorsForReact */\n            tag_68:\n              0x05\n              dup2\n              dup2\n              sload\n              dup2\n              lt\n              tag_198\n              jumpi\n              0x00\n              dup1\n              revert\n            tag_198:\n              swap1\n              0x00\n              mstore\n              keccak256(0x00, 0x20)\n              add\n              0x00\n              swap2\n              pop\n              sload\n              swap1\n              0x0100\n              exp\n              swap1\n              div\n              0xffffffffffffffffffffffffffffffffffffffff\n              and\n              dup2\n              jump\t// out\n                /* \"Story.sol\":1153:1186  address[] public chaptersForReact */\n            tag_74:\n              0x07\n              dup2\n              dup2\n              sload\n              dup2\n              lt\n              tag_200\n              jumpi\n              0x00\n              dup1\n              revert\n            tag_200:\n              swap1\n              0x00\n              mstore\n              keccak256(0x00, 0x20)\n              add\n              0x00\n              swap2\n              pop\n              sload\n              swap1\n              0x0100\n              exp\n              swap1\n              div\n              0xffffffffffffffffffffffffffffffffffffffff\n              and\n              dup2\n              jump\t// out\n                /* \"Story.sol\":3677:4714  function createChapterRequest(string memory _ipfsHash, address _parentChapter, address _childChapter) public noReentrancy{... */\n            tag_80:\n                /* \"Story.sol\":8812:8819  _locked */\n              0x08\n              0x00\n              swap1\n              sload\n              swap1\n              0x0100\n              exp\n              swap1\n              div\n              0xff\n              and\n                /* \"Story.sol\":8811:8819  !_locked */\n              iszero\n                /* \"Story.sol\":8803:8838  require(!_locked, \"Reentrant call\") */\n              tag_203\n              jumpi\n              mload(0x40)\n              0x08c379a000000000000000000000000000000000000000000000000000000000\n              dup2\n              mstore\n              0x04\n              add\n              tag_204\n              swap1\n              tag_91\n              jump\t// in\n            tag_204:\n              mload(0x40)\n              dup1\n              swap2\n              sub\n              swap1\n              revert\n            tag_203:\n                /* \"Story.sol\":8859:8863  true */\n              0x01\n                /* \"Story.sol\":8849:8856  _locked */\n              0x08\n              0x00\n                /* \"Story.sol\":8849:8863  _locked = true */\n              0x0100\n              exp\n              dup2\n              sload\n              dup2\n              0xff\n              mul\n              not\n              and\n              swap1\n              dup4\n              iszero\n              iszero\n              mul\n              or\n              swap1\n              sstore\n              pop\n                /* \"Story.sol\":3818:3826  reported */\n              0x0b\n              0x00\n              swap1\n              sload\n              swap1\n              0x0100\n              exp\n              swap1\n              div\n              0xff\n              and\n                /* \"Story.sol\":3817:3826  !reported */\n              iszero\n                /* \"Story.sol\":3809:3859  require(!reported, \"This story has been reported\") */\n              tag_206\n              jumpi\n              mload(0x40)\n              0x08c379a000000000000000000000000000000000000000000000000000000000\n              dup2\n              mstore\n              0x04\n              add\n              tag_207\n              swap1\n              tag_95\n              jump\t// in\n            tag_207:\n              mload(0x40)\n              dup1\n              swap2\n              sub\n              swap1\n              revert\n            tag_206:\n                /* \"Story.sol\":3878:3896  authorsForSolidity */\n              0x04\n                /* \"Story.sol\":3878:3908  authorsForSolidity[msg.sender] */\n              0x00\n                /* \"Story.sol\":3897:3907  msg.sender */\n              caller\n                /* \"Story.sol\":3878:3908  authorsForSolidity[msg.sender] */\n              0xffffffffffffffffffffffffffffffffffffffff\n              and\n              0xffffffffffffffffffffffffffffffffffffffff\n              and\n              dup2\n              mstore\n              0x20\n              add\n              swap1\n              dup2\n              mstore\n              0x20\n              add\n              0x00\n              keccak256\n              0x00\n              swap1\n              sload\n              swap1\n              0x0100\n              exp\n              swap1\n              div\n              0xff\n              and\n                /* \"Story.sol\":3870:3962  require(authorsForSolidity[msg.sender],\"Only an accepted author can attempt to add chapter\") */\n              tag_208\n              jumpi\n              mload(0x40)\n              0x08c379a000000000000000000000000000000000000000000000000000000000\n              dup2\n              mstore\n              0x04\n              add\n              tag_209\n              swap1\n              tag_210\n              jump\t// in\n            tag_209:\n              mload(0x40)\n              dup1\n              swap2\n              sub\n              swap1\n              revert\n            tag_208:\n                /* \"Story.sol\":3981:4007  isContract(_parentChapter) */\n              tag_211\n                /* \"Story.sol\":3992:4006  _parentChapter */\n              dup3\n                /* \"Story.sol\":3981:3991  isContract */\n              tag_212\n                /* \"Story.sol\":3981:4007  isContract(_parentChapter) */\n              jump\t// in\n            tag_211:\n                /* \"Story.sol\":3973:4045  require(isContract(_parentChapter), \"Parent chapter must be a contract\") */\n              tag_213\n              jumpi\n              mload(0x40)\n              0x08c379a000000000000000000000000000000000000000000000000000000000\n              dup2\n              mstore\n              0x04\n              add\n              tag_214\n              swap1\n              tag_215\n              jump\t// in\n            tag_214:\n              mload(0x40)\n              dup1\n              swap2\n              sub\n              swap1\n              revert\n            tag_213:\n                /* \"Story.sol\":4064:4089  isContract(_childChapter) */\n              tag_216\n                /* \"Story.sol\":4075:4088  _childChapter */\n              dup2\n                /* \"Story.sol\":4064:4074  isContract */\n              tag_212\n                /* \"Story.sol\":4064:4089  isContract(_childChapter) */\n              jump\t// in\n            tag_216:\n                /* \"Story.sol\":4056:4126  require(isContract(_childChapter), \"Child chapter must be a contract\") */\n              tag_217\n              jumpi\n              mload(0x40)\n              0x08c379a000000000000000000000000000000000000000000000000000000000\n              dup2\n              mstore\n              0x04\n              add\n              tag_218\n              swap1\n              tag_219\n              jump\t// in\n            tag_218:\n              mload(0x40)\n              dup1\n              swap2\n              sub\n              swap1\n              revert\n            tag_217:\n                /* \"Story.sol\":4145:4179  checkParentChapter(_parentChapter) */\n              tag_220\n                /* \"Story.sol\":4164:4178  _parentChapter */\n              dup3\n                /* \"Story.sol\":4145:4163  checkParentChapter */\n              tag_221\n                /* \"Story.sol\":4145:4179  checkParentChapter(_parentChapter) */\n              jump\t// in\n            tag_220:\n                /* \"Story.sol\":4137:4228  require(checkParentChapter(_parentChapter), \"Parent chapter must belong to the same story\") */\n              tag_222\n              jumpi\n              mload(0x40)\n              0x08c379a000000000000000000000000000000000000000000000000000000000\n              dup2\n              mstore\n              0x04\n              add\n              tag_223\n              swap1\n              tag_224\n              jump\t// in\n            tag_223:\n              mload(0x40)\n              dup1\n              swap2\n              sub\n              swap1\n              revert\n            tag_222:\n                /* \"Story.sol\":4247:4279  checkChildChapter(_childChapter) */\n              tag_225\n                /* \"Story.sol\":4265:4278  _childChapter */\n              dup2\n                /* \"Story.sol\":4247:4264  checkChildChapter */\n              tag_226\n                /* \"Story.sol\":4247:4279  checkChildChapter(_childChapter) */\n              jump\t// in\n            tag_225:\n                /* \"Story.sol\":4239:4327  require(checkChildChapter(_childChapter), \"Child chapter must belong to the same story\") */\n              tag_227\n              jumpi\n              mload(0x40)\n              0x08c379a000000000000000000000000000000000000000000000000000000000\n              dup2\n              mstore\n              0x04\n              add\n              tag_228\n              swap1\n              tag_229\n              jump\t// in\n            tag_228:\n              mload(0x40)\n              dup1\n              swap2\n              sub\n              swap1\n              revert\n            tag_227:\n                /* \"Story.sol\":4338:4371  ChapterRequest storage newRequest */\n              0x00\n                /* \"Story.sol\":4374:4389  chapterRequests */\n              0x0d\n                /* \"Story.sol\":4374:4396  chapterRequests.push() */\n              0x01\n              dup2\n              0x01\n              dup2\n              sload\n              add\n              dup1\n              dup3\n              sstore\n              dup1\n              swap2\n              pop\n              pop\n              sub\n              swap1\n              0x00\n              mstore\n              keccak256(0x00, 0x20)\n              swap1\n              0x08\n              mul\n              add\n                /* \"Story.sol\":4338:4396  ChapterRequest storage newRequest = chapterRequests.push() */\n              swap1\n              pop\n                /* \"Story.sol\":4429:4438  _ipfsHash */\n              dup4\n                /* \"Story.sol\":4407:4417  newRequest */\n              dup2\n                /* \"Story.sol\":4407:4426  newRequest.ipfsHash */\n              0x00\n              add\n                /* \"Story.sol\":4407:4438  newRequest.ipfsHash = _ipfsHash */\n              swap1\n              dup1\n              mload\n              swap1\n              0x20\n              add\n              swap1\n              tag_231\n              swap3\n              swap2\n              swap1\n              tag_232\n              jump\t// in\n            tag_231:\n              pop\n                /* \"Story.sol\":4472:4487  block.timestamp */\n              timestamp\n                /* \"Story.sol\":4449:4459  newRequest */\n              dup2\n                /* \"Story.sol\":4449:4469  newRequest.timestamp */\n              0x01\n              add\n                /* \"Story.sol\":4449:4487  newRequest.timestamp = block.timestamp */\n              dup2\n              swap1\n              sstore\n              pop\n                /* \"Story.sol\":4518:4528  msg.sender */\n              caller\n                /* \"Story.sol\":4498:4508  newRequest */\n              dup2\n                /* \"Story.sol\":4498:4515  newRequest.author */\n              0x02\n              add\n              0x00\n                /* \"Story.sol\":4498:4528  newRequest.author = msg.sender */\n              0x0100\n              exp\n              dup2\n              sload\n              dup2\n              0xffffffffffffffffffffffffffffffffffffffff\n              mul\n              not\n              and\n              swap1\n              dup4\n              0xffffffffffffffffffffffffffffffffffffffff\n              and\n              mul\n              or\n              swap1\n              sstore\n              pop\n                /* \"Story.sol\":4566:4580  _parentChapter */\n              dup3\n                /* \"Story.sol\":4539:4549  newRequest */\n              dup2\n                /* \"Story.sol\":4539:4563  newRequest.parentChapter */\n              0x03\n              add\n              0x00\n                /* \"Story.sol\":4539:4580  newRequest.parentChapter = _parentChapter */\n              0x0100\n              exp\n              dup2\n              sload\n              dup2\n              0xffffffffffffffffffffffffffffffffffffffff\n              mul\n              not\n              and\n              swap1\n              dup4\n              0xffffffffffffffffffffffffffffffffffffffff\n              and\n              mul\n              or\n              swap1\n              sstore\n              pop\n                /* \"Story.sol\":4617:4630  _childChapter */\n              dup2\n                /* \"Story.sol\":4591:4601  newRequest */\n              dup2\n                /* \"Story.sol\":4591:4614  newRequest.childChapter */\n              0x04\n              add\n              0x00\n                /* \"Story.sol\":4591:4630  newRequest.childChapter = _childChapter */\n              0x0100\n              exp\n              dup2\n              sload\n              dup2\n              0xffffffffffffffffffffffffffffffffffffffff\n              mul\n              not\n              and\n              swap1\n              dup4\n              0xffffffffffffffffffffffffffffffffffffffff\n              and\n              mul\n              or\n              swap1\n              sstore\n              pop\n                /* \"Story.sol\":4669:4670  0 */\n              0x00\n                /* \"Story.sol\":4641:4651  newRequest */\n              dup2\n                /* \"Story.sol\":4641:4666  newRequest.approversCount */\n              0x06\n              add\n                /* \"Story.sol\":4641:4670  newRequest.approversCount = 0 */\n              dup2\n              swap1\n              sstore\n              pop\n                /* \"Story.sol\":4701:4706  false */\n              0x00\n                /* \"Story.sol\":4681:4691  newRequest */\n              dup2\n                /* \"Story.sol\":4681:4698  newRequest.status */\n              0x07\n              add\n              0x00\n                /* \"Story.sol\":4681:4706  newRequest.status = false */\n              0x0100\n              exp\n              dup2\n              sload\n              dup2\n              0xff\n              mul\n              not\n              and\n              swap1\n              dup4\n              iszero\n              iszero\n              mul\n              or\n              swap1\n              sstore\n              pop\n                /* \"Story.sol\":3798:4714  {... */\n              pop\n                /* \"Story.sol\":8896:8901  false */\n              0x00\n                /* \"Story.sol\":8886:8893  _locked */\n              0x08\n              0x00\n                /* \"Story.sol\":8886:8901  _locked = false */\n              0x0100\n              exp\n              dup2\n              sload\n              dup2\n              0xff\n              mul\n              not\n              and\n              swap1\n              dup4\n              iszero\n              iszero\n              mul\n              or\n              swap1\n              sstore\n              pop\n                /* \"Story.sol\":3677:4714  function createChapterRequest(string memory _ipfsHash, address _parentChapter, address _childChapter) public noReentrancy{... */\n              pop\n              pop\n              pop\n              jump\t// out\n                /* \"Story.sol\":6065:6248  function contribute() public payable noReentrancy{... */\n            tag_82:\n                /* \"Story.sol\":8812:8819  _locked */\n              0x08\n              0x00\n              swap1\n              sload\n              swap1\n              0x0100\n              exp\n              swap1\n              div\n              0xff\n              and\n                /* \"Story.sol\":8811:8819  !_locked */\n              iszero\n                /* \"Story.sol\":8803:8838  require(!_locked, \"Reentrant call\") */\n              tag_234\n              jumpi\n              mload(0x40)\n              0x08c379a000000000000000000000000000000000000000000000000000000000\n              dup2\n              mstore\n              0x04\n              add\n              tag_235\n              swap1\n              tag_91\n              jump\t// in\n            tag_235:\n              mload(0x40)\n              dup1\n              swap2\n              sub\n              swap1\n              revert\n            tag_234:\n                /* \"Story.sol\":8859:8863  true */\n              0x01\n                /* \"Story.sol\":8849:8856  _locked */\n              0x08\n              0x00\n                /* \"Story.sol\":8849:8863  _locked = true */\n              0x0100\n              exp\n              dup2\n              sload\n              dup2\n              0xff\n              mul\n              not\n              and\n              swap1\n              dup4\n              iszero\n              iszero\n              mul\n              or\n              swap1\n              sstore\n              pop\n                /* \"Story.sol\":6146:6149  100 */\n              0x64\n                /* \"Story.sol\":6133:6142  msg.value */\n              callvalue\n                /* \"Story.sol\":6133:6149  msg.value >= 100 */\n              lt\n              iszero\n                /* \"Story.sol\":6125:6185  require(msg.value >= 100, \"Minimum contribution is 100 Wei\") */\n              tag_237\n              jumpi\n              mload(0x40)\n              0x08c379a000000000000000000000000000000000000000000000000000000000\n              dup2\n              mstore\n              0x04\n              add\n              tag_238\n              swap1\n              tag_239\n              jump\t// in\n            tag_238:\n              mload(0x40)\n              dup1\n              swap2\n              sub\n              swap1\n              revert\n            tag_237:\n                /* \"Story.sol\":8896:8901  false */\n              0x00\n                /* \"Story.sol\":8886:8893  _locked */\n              0x08\n              0x00\n                /* \"Story.sol\":8886:8901  _locked = false */\n              0x0100\n              exp\n              dup2\n              sload\n              dup2\n              0xff\n              mul\n              not\n              and\n              swap1\n              dup4\n              iszero\n              iszero\n              mul\n              or\n              swap1\n              sstore\n              pop\n                /* \"Story.sol\":6065:6248  function contribute() public payable noReentrancy{... */\n              jump\t// out\n                /* \"Story.sol\":2240:2744  function createRequestToJoin(string memory _proposal) public {... */\n            tag_87:\n                /* \"Story.sol\":2321:2329  reported */\n              0x0b\n              0x00\n              swap1\n              sload\n              swap1\n              0x0100\n              exp\n              swap1\n              div\n              0xff\n              and\n                /* \"Story.sol\":2320:2329  !reported */\n              iszero\n                /* \"Story.sol\":2312:2362  require(!reported, \"This story has been reported\") */\n              tag_241\n              jumpi\n              mload(0x40)\n              0x08c379a000000000000000000000000000000000000000000000000000000000\n              dup2\n              mstore\n              0x04\n              add\n              tag_242\n              swap1\n              tag_95\n              jump\t// in\n            tag_242:\n              mload(0x40)\n              dup1\n              swap2\n              sub\n              swap1\n              revert\n            tag_241:\n                /* \"Story.sol\":2382:2400  authorsForSolidity */\n              0x04\n                /* \"Story.sol\":2382:2412  authorsForSolidity[msg.sender] */\n              0x00\n                /* \"Story.sol\":2401:2411  msg.sender */\n              caller\n                /* \"Story.sol\":2382:2412  authorsForSolidity[msg.sender] */\n              0xffffffffffffffffffffffffffffffffffffffff\n              and\n              0xffffffffffffffffffffffffffffffffffffffff\n              and\n              dup2\n              mstore\n              0x20\n              add\n              swap1\n              dup2\n              mstore\n              0x20\n              add\n              0x00\n              keccak256\n              0x00\n              swap1\n              sload\n              swap1\n              0x0100\n              exp\n              swap1\n              div\n              0xff\n              and\n                /* \"Story.sol\":2381:2412  !authorsForSolidity[msg.sender] */\n              iszero\n                /* \"Story.sol\":2373:2461  require(!authorsForSolidity[msg.sender], \"Author already exists in the list of authors\") */\n              tag_243\n              jumpi\n              mload(0x40)\n              0x08c379a000000000000000000000000000000000000000000000000000000000\n              dup2\n              mstore\n              0x04\n              add\n              tag_244\n              swap1\n              tag_245\n              jump\t// in\n            tag_244:\n              mload(0x40)\n              dup1\n              swap2\n              sub\n              swap1\n              revert\n            tag_243:\n                /* \"Story.sol\":2472:2504  RequestToJoin storage newRequest */\n              0x00\n                /* \"Story.sol\":2507:2521  requestsToJoin */\n              0x0c\n                /* \"Story.sol\":2507:2528  requestsToJoin.push() */\n              0x01\n              dup2\n              0x01\n              dup2\n              sload\n              add\n              dup1\n              dup3\n              sstore\n              dup1\n              swap2\n              pop\n              pop\n              sub\n              swap1\n              0x00\n              mstore\n              keccak256(0x00, 0x20)\n              swap1\n              0x06\n              mul\n              add\n                /* \"Story.sol\":2472:2528  RequestToJoin storage newRequest = requestsToJoin.push() */\n              swap1\n              pop\n                /* \"Story.sol\":2561:2570  _proposal */\n              dup2\n                /* \"Story.sol\":2539:2549  newRequest */\n              dup2\n                /* \"Story.sol\":2539:2558  newRequest.proposal */\n              0x00\n              add\n                /* \"Story.sol\":2539:2570  newRequest.proposal = _proposal */\n              swap1\n              dup1\n              mload\n              swap1\n              0x20\n              add\n              swap1\n              tag_247\n              swap3\n              swap2\n              swap1\n              tag_232\n              jump\t// in\n            tag_247:\n              pop\n                /* \"Story.sol\":2604:2619  block.timestamp */\n              timestamp\n                /* \"Story.sol\":2581:2591  newRequest */\n              dup2\n                /* \"Story.sol\":2581:2601  newRequest.timestamp */\n              0x01\n              add\n                /* \"Story.sol\":2581:2619  newRequest.timestamp = block.timestamp */\n              dup2\n              swap1\n              sstore\n              pop\n                /* \"Story.sol\":2650:2660  msg.sender */\n              caller\n                /* \"Story.sol\":2630:2640  newRequest */\n              dup2\n                /* \"Story.sol\":2630:2647  newRequest.author */\n              0x02\n              add\n              0x00\n                /* \"Story.sol\":2630:2660  newRequest.author = msg.sender */\n              0x0100\n              exp\n              dup2\n              sload\n              dup2\n              0xffffffffffffffffffffffffffffffffffffffff\n              mul\n              not\n              and\n              swap1\n              dup4\n              0xffffffffffffffffffffffffffffffffffffffff\n              and\n              mul\n              or\n              swap1\n              sstore\n              pop\n                /* \"Story.sol\":2699:2700  0 */\n              0x00\n                /* \"Story.sol\":2671:2681  newRequest */\n              dup2\n                /* \"Story.sol\":2671:2696  newRequest.approversCount */\n              0x04\n              add\n                /* \"Story.sol\":2671:2700  newRequest.approversCount = 0 */\n              dup2\n              swap1\n              sstore\n              pop\n                /* \"Story.sol\":2731:2736  false */\n              0x00\n                /* \"Story.sol\":2711:2721  newRequest */\n              dup2\n                /* \"Story.sol\":2711:2728  newRequest.status */\n              0x05\n              add\n              0x00\n                /* \"Story.sol\":2711:2736  newRequest.status = false */\n              0x0100\n              exp\n              dup2\n              sload\n              dup2\n              0xff\n              mul\n              not\n              and\n              swap1\n              dup4\n              iszero\n              iszero\n              mul\n              or\n              swap1\n              sstore\n              pop\n                /* \"Story.sol\":2301:2744  {... */\n              pop\n                /* \"Story.sol\":2240:2744  function createRequestToJoin(string memory _proposal) public {... */\n              pop\n              jump\t// out\n                /* \"Story.sol\":84:263  function add(uint256 a, uint256 b) internal pure returns (uint256) {... */\n            tag_100:\n                /* \"Story.sol\":142:149  uint256 */\n              0x00\n                /* \"Story.sol\":162:171  uint256 c */\n              dup1\n                /* \"Story.sol\":178:179  b */\n              dup3\n                /* \"Story.sol\":174:175  a */\n              dup5\n                /* \"Story.sol\":174:179  a + b */\n              tag_249\n              swap2\n              swap1\n              tag_250\n              jump\t// in\n            tag_249:\n                /* \"Story.sol\":162:179  uint256 c = a + b */\n              swap1\n              pop\n                /* \"Story.sol\":203:204  a */\n              dup4\n                /* \"Story.sol\":198:199  c */\n              dup2\n                /* \"Story.sol\":198:204  c >= a */\n              lt\n              iszero\n                /* \"Story.sol\":190:236  require(c >= a, \"SafeMath: addition overflow\") */\n              tag_251\n              jumpi\n              mload(0x40)\n              0x08c379a000000000000000000000000000000000000000000000000000000000\n              dup2\n              mstore\n              0x04\n              add\n              tag_252\n              swap1\n              tag_253\n              jump\t// in\n            tag_252:\n              mload(0x40)\n              dup1\n              swap2\n              sub\n              swap1\n              revert\n            tag_251:\n                /* \"Story.sol\":254:255  c */\n              dup1\n                /* \"Story.sol\":247:255  return c */\n              swap2\n              pop\n              pop\n                /* \"Story.sol\":84:263  function add(uint256 a, uint256 b) internal pure returns (uint256) {... */\n              swap3\n              swap2\n              pop\n              pop\n              jump\t// out\n                /* \"Story.sol\":269:422  function div(uint256 a, uint256 b) internal pure returns (uint256) {... */\n            tag_142:\n                /* \"Story.sol\":327:334  uint256 */\n              0x00\n                /* \"Story.sol\":359:360  0 */\n              dup1\n                /* \"Story.sol\":355:356  b */\n              dup3\n                /* \"Story.sol\":355:360  b > 0 */\n              gt\n                /* \"Story.sol\":347:391  require(b > 0, \"SafeMath: division by zero\") */\n              tag_255\n              jumpi\n              mload(0x40)\n              0x08c379a000000000000000000000000000000000000000000000000000000000\n              dup2\n              mstore\n              0x04\n              add\n              tag_256\n              swap1\n              tag_257\n              jump\t// in\n            tag_256:\n              mload(0x40)\n              dup1\n              swap2\n              sub\n              swap1\n              revert\n            tag_255:\n                /* \"Story.sol\":413:414  b */\n              dup2\n                /* \"Story.sol\":409:410  a */\n              dup4\n                /* \"Story.sol\":409:414  a / b */\n              tag_258\n              swap2\n              swap1\n              tag_259\n              jump\t// in\n            tag_258:\n                /* \"Story.sol\":402:414  return a / b */\n              swap1\n              pop\n                /* \"Story.sol\":269:422  function div(uint256 a, uint256 b) internal pure returns (uint256) {... */\n              swap3\n              swap2\n              pop\n              pop\n              jump\t// out\n                /* \"Story.sol\":8426:8758  function isContract(address account) internal view returns (bool) {... */\n            tag_212:\n                /* \"Story.sol\":8486:8490  bool */\n              0x00\n                /* \"Story.sol\":8587:8588  0 */\n              dup1\n                /* \"Story.sol\":8568:8589  account == address(0) */\n              0xffffffffffffffffffffffffffffffffffffffff\n              and\n                /* \"Story.sol\":8568:8575  account */\n              dup3\n                /* \"Story.sol\":8568:8589  account == address(0) */\n              0xffffffffffffffffffffffffffffffffffffffff\n              and\n              eq\n                /* \"Story.sol\":8564:8629  if (account == address(0)) {... */\n              iszero\n              tag_261\n              jumpi\n                /* \"Story.sol\":8613:8617  true */\n              0x01\n                /* \"Story.sol\":8606:8617  return true */\n              swap1\n              pop\n              jump(tag_260)\n                /* \"Story.sol\":8564:8629  if (account == address(0)) {... */\n            tag_261:\n                /* \"Story.sol\":8639:8651  uint256 size */\n              0x00\n                /* \"Story.sol\":8706:8713  account */\n              dup3\n                /* \"Story.sol\":8694:8714  extcodesize(account) */\n              extcodesize\n                /* \"Story.sol\":8686:8714  size := extcodesize(account) */\n              swap1\n              pop\n                /* \"Story.sol\":8749:8750  0 */\n              0x00\n                /* \"Story.sol\":8742:8746  size */\n              dup2\n                /* \"Story.sol\":8742:8750  size > 0 */\n              gt\n                /* \"Story.sol\":8735:8750  return size > 0 */\n              swap2\n              pop\n              pop\n                /* \"Story.sol\":8426:8758  function isContract(address account) internal view returns (bool) {... */\n            tag_260:\n              swap2\n              swap1\n              pop\n              jump\t// out\n                /* \"Story.sol\":7923:8141  function checkParentChapter(address parentChapter) internal view returns (bool){... */\n            tag_221:\n                /* \"Story.sol\":7997:8001  bool */\n              0x00\n                /* \"Story.sol\":8041:8042  0 */\n              dup1\n                /* \"Story.sol\":8016:8043  parentChapter == address(0) */\n              0xffffffffffffffffffffffffffffffffffffffff\n              and\n                /* \"Story.sol\":8016:8029  parentChapter */\n              dup3\n                /* \"Story.sol\":8016:8043  parentChapter == address(0) */\n              0xffffffffffffffffffffffffffffffffffffffff\n              and\n              eq\n                /* \"Story.sol\":8013:8082  if(parentChapter == address(0)){... */\n              iszero\n              tag_263\n              jumpi\n                /* \"Story.sol\":8066:8070  true */\n              0x01\n                /* \"Story.sol\":8059:8070  return true */\n              swap1\n              pop\n              jump(tag_262)\n                /* \"Story.sol\":8013:8082  if(parentChapter == address(0)){... */\n            tag_263:\n                /* \"Story.sol\":8099:8118  chaptersForSolidity */\n              0x06\n                /* \"Story.sol\":8099:8133  chaptersForSolidity[parentChapter] */\n              0x00\n                /* \"Story.sol\":8119:8132  parentChapter */\n              dup4\n                /* \"Story.sol\":8099:8133  chaptersForSolidity[parentChapter] */\n              0xffffffffffffffffffffffffffffffffffffffff\n              and\n              0xffffffffffffffffffffffffffffffffffffffff\n              and\n              dup2\n              mstore\n              0x20\n              add\n              swap1\n              dup2\n              mstore\n              0x20\n              add\n              0x00\n              keccak256\n              0x00\n              swap1\n              sload\n              swap1\n              0x0100\n              exp\n              swap1\n              div\n              0xff\n              and\n                /* \"Story.sol\":8092:8133  return chaptersForSolidity[parentChapter] */\n              swap1\n              pop\n                /* \"Story.sol\":7923:8141  function checkParentChapter(address parentChapter) internal view returns (bool){... */\n            tag_262:\n              swap2\n              swap1\n              pop\n              jump\t// out\n                /* \"Story.sol\":8204:8418  function checkChildChapter(address childChapter) internal view returns (bool){... */\n            tag_226:\n                /* \"Story.sol\":8276:8280  bool */\n              0x00\n                /* \"Story.sol\":8319:8320  0 */\n              dup1\n                /* \"Story.sol\":8295:8321  childChapter == address(0) */\n              0xffffffffffffffffffffffffffffffffffffffff\n              and\n                /* \"Story.sol\":8295:8307  childChapter */\n              dup3\n                /* \"Story.sol\":8295:8321  childChapter == address(0) */\n              0xffffffffffffffffffffffffffffffffffffffff\n              and\n              eq\n                /* \"Story.sol\":8292:8360  if(childChapter == address(0)){... */\n              iszero\n              tag_265\n              jumpi\n                /* \"Story.sol\":8344:8348  true */\n              0x01\n                /* \"Story.sol\":8337:8348  return true */\n              swap1\n              pop\n              jump(tag_264)\n                /* \"Story.sol\":8292:8360  if(childChapter == address(0)){... */\n            tag_265:\n                /* \"Story.sol\":8377:8396  chaptersForSolidity */\n              0x06\n                /* \"Story.sol\":8377:8410  chaptersForSolidity[childChapter] */\n              0x00\n                /* \"Story.sol\":8397:8409  childChapter */\n              dup4\n                /* \"Story.sol\":8377:8410  chaptersForSolidity[childChapter] */\n              0xffffffffffffffffffffffffffffffffffffffff\n              and\n              0xffffffffffffffffffffffffffffffffffffffff\n              and\n              dup2\n              mstore\n              0x20\n              add\n              swap1\n              dup2\n              mstore\n              0x20\n              add\n              0x00\n              keccak256\n              0x00\n              swap1\n              sload\n              swap1\n              0x0100\n              exp\n              swap1\n              div\n              0xff\n              and\n                /* \"Story.sol\":8370:8410  return chaptersForSolidity[childChapter] */\n              swap1\n              pop\n                /* \"Story.sol\":8204:8418  function checkChildChapter(address childChapter) internal view returns (bool){... */\n            tag_264:\n              swap2\n              swap1\n              pop\n              jump\t// out\n            tag_122:\n              dataSize(sub_0)\n              dup1\n              dataOffset(sub_0)\n              dup4\n              codecopy\n              add\n              swap1\n              jump\t// out\n            tag_232:\n              dup3\n              dup1\n              sload\n              tag_266\n              swap1\n              tag_158\n              jump\t// in\n            tag_266:\n              swap1\n              0x00\n              mstore\n              keccak256(0x00, 0x20)\n              swap1\n              0x1f\n              add\n              0x20\n              swap1\n              div\n              dup2\n              add\n              swap3\n              dup3\n              tag_268\n              jumpi\n              0x00\n              dup6\n              sstore\n              jump(tag_267)\n            tag_268:\n              dup3\n              0x1f\n              lt\n              tag_269\n              jumpi\n              dup1\n              mload\n              not(0xff)\n              and\n              dup4\n              dup1\n              add\n              or\n              dup6\n              sstore\n              jump(tag_267)\n            tag_269:\n              dup3\n              dup1\n              add\n              0x01\n              add\n              dup6\n              sstore\n              dup3\n              iszero\n              tag_267\n              jumpi\n              swap2\n              dup3\n              add\n            tag_270:\n              dup3\n              dup2\n              gt\n              iszero\n              tag_271\n              jumpi\n              dup3\n              mload\n              dup3\n              sstore\n              swap2\n              0x20\n              add\n              swap2\n              swap1\n              0x01\n              add\n              swap1\n              jump(tag_270)\n            tag_271:\n            tag_267:\n              pop\n              swap1\n              pop\n              tag_272\n              swap2\n              swap1\n              tag_273\n              jump\t// in\n            tag_272:\n              pop\n              swap1\n              jump\t// out\n            tag_273:\n            tag_274:\n              dup1\n              dup3\n              gt\n              iszero\n              tag_275\n              jumpi\n              0x00\n              dup2\n              0x00\n              swap1\n              sstore\n              pop\n              0x01\n              add\n              jump(tag_274)\n            tag_275:\n              pop\n              swap1\n              jump\t// out\n                /* \"#utility.yul\":7:82   */\n            tag_276:\n                /* \"#utility.yul\":40:46   */\n              0x00\n                /* \"#utility.yul\":73:75   */\n              0x40\n                /* \"#utility.yul\":67:76   */\n              mload\n                /* \"#utility.yul\":57:76   */\n              swap1\n              pop\n                /* \"#utility.yul\":7:82   */\n              swap1\n              jump\t// out\n                /* \"#utility.yul\":88:205   */\n            tag_277:\n                /* \"#utility.yul\":197:198   */\n              0x00\n                /* \"#utility.yul\":194:195   */\n              dup1\n                /* \"#utility.yul\":187:199   */\n              revert\n                /* \"#utility.yul\":211:328   */\n            tag_278:\n                /* \"#utility.yul\":320:321   */\n              0x00\n                /* \"#utility.yul\":317:318   */\n              dup1\n                /* \"#utility.yul\":310:322   */\n              revert\n                /* \"#utility.yul\":334:411   */\n            tag_279:\n                /* \"#utility.yul\":371:378   */\n              0x00\n                /* \"#utility.yul\":400:405   */\n              dup2\n                /* \"#utility.yul\":389:405   */\n              swap1\n              pop\n                /* \"#utility.yul\":334:411   */\n              swap2\n              swap1\n              pop\n              jump\t// out\n                /* \"#utility.yul\":417:539   */\n            tag_280:\n                /* \"#utility.yul\":490:514   */\n              tag_356\n                /* \"#utility.yul\":508:513   */\n              dup2\n                /* \"#utility.yul\":490:514   */\n              tag_279\n              jump\t// in\n            tag_356:\n                /* \"#utility.yul\":483:488   */\n              dup2\n                /* \"#utility.yul\":480:515   */\n              eq\n                /* \"#utility.yul\":470:533   */\n              tag_357\n              jumpi\n                /* \"#utility.yul\":529:530   */\n              0x00\n                /* \"#utility.yul\":526:527   */\n              dup1\n                /* \"#utility.yul\":519:531   */\n              revert\n                /* \"#utility.yul\":470:533   */\n            tag_357:\n                /* \"#utility.yul\":417:539   */\n              pop\n              jump\t// out\n                /* \"#utility.yul\":545:684   */\n            tag_281:\n                /* \"#utility.yul\":591:596   */\n              0x00\n                /* \"#utility.yul\":629:635   */\n              dup2\n                /* \"#utility.yul\":616:636   */\n              calldataload\n                /* \"#utility.yul\":607:636   */\n              swap1\n              pop\n                /* \"#utility.yul\":645:678   */\n              tag_359\n                /* \"#utility.yul\":672:677   */\n              dup2\n                /* \"#utility.yul\":645:678   */\n              tag_280\n              jump\t// in\n            tag_359:\n                /* \"#utility.yul\":545:684   */\n              swap3\n              swap2\n              pop\n              pop\n              jump\t// out\n                /* \"#utility.yul\":690:1019   */\n            tag_26:\n                /* \"#utility.yul\":749:755   */\n              0x00\n                /* \"#utility.yul\":798:800   */\n              0x20\n                /* \"#utility.yul\":786:795   */\n              dup3\n                /* \"#utility.yul\":777:784   */\n              dup5\n                /* \"#utility.yul\":773:796   */\n              sub\n                /* \"#utility.yul\":769:801   */\n              slt\n                /* \"#utility.yul\":766:885   */\n              iszero\n              tag_361\n              jumpi\n                /* \"#utility.yul\":804:883   */\n              tag_362\n              tag_277\n              jump\t// in\n            tag_362:\n                /* \"#utility.yul\":766:885   */\n            tag_361:\n                /* \"#utility.yul\":924:925   */\n              0x00\n                /* \"#utility.yul\":949:1002   */\n              tag_363\n                /* \"#utility.yul\":994:1001   */\n              dup5\n                /* \"#utility.yul\":985:991   */\n              dup3\n                /* \"#utility.yul\":974:983   */\n              dup6\n                /* \"#utility.yul\":970:992   */\n              add\n                /* \"#utility.yul\":949:1002   */\n              tag_281\n              jump\t// in\n            tag_363:\n                /* \"#utility.yul\":939:1002   */\n              swap2\n              pop\n                /* \"#utility.yul\":895:1012   */\n              pop\n                /* \"#utility.yul\":690:1019   */\n              swap3\n              swap2\n              pop\n              pop\n              jump\t// out\n                /* \"#utility.yul\":1025:1151   */\n            tag_282:\n                /* \"#utility.yul\":1062:1069   */\n              0x00\n                /* \"#utility.yul\":1102:1144   */\n              0xffffffffffffffffffffffffffffffffffffffff\n                /* \"#utility.yul\":1095:1100   */\n              dup3\n                /* \"#utility.yul\":1091:1145   */\n              and\n                /* \"#utility.yul\":1080:1145   */\n              swap1\n              pop\n                /* \"#utility.yul\":1025:1151   */\n              swap2\n              swap1\n              pop\n              jump\t// out\n                /* \"#utility.yul\":1157:1253   */\n            tag_283:\n                /* \"#utility.yul\":1194:1201   */\n              0x00\n                /* \"#utility.yul\":1223:1247   */\n              tag_366\n                /* \"#utility.yul\":1241:1246   */\n              dup3\n                /* \"#utility.yul\":1223:1247   */\n              tag_282\n              jump\t// in\n            tag_366:\n                /* \"#utility.yul\":1212:1247   */\n              swap1\n              pop\n                /* \"#utility.yul\":1157:1253   */\n              swap2\n              swap1\n              pop\n              jump\t// out\n                /* \"#utility.yul\":1259:1381   */\n            tag_284:\n                /* \"#utility.yul\":1332:1356   */\n              tag_368\n                /* \"#utility.yul\":1350:1355   */\n              dup2\n                /* \"#utility.yul\":1332:1356   */\n              tag_283\n              jump\t// in\n            tag_368:\n                /* \"#utility.yul\":1325:1330   */\n              dup2\n                /* \"#utility.yul\":1322:1357   */\n              eq\n                /* \"#utility.yul\":1312:1375   */\n              tag_369\n              jumpi\n                /* \"#utility.yul\":1371:1372   */\n              0x00\n                /* \"#utility.yul\":1368:1369   */\n              dup1\n                /* \"#utility.yul\":1361:1373   */\n              revert\n                /* \"#utility.yul\":1312:1375   */\n            tag_369:\n                /* \"#utility.yul\":1259:1381   */\n              pop\n              jump\t// out\n                /* \"#utility.yul\":1387:1526   */\n            tag_285:\n                /* \"#utility.yul\":1433:1438   */\n              0x00\n                /* \"#utility.yul\":1471:1477   */\n              dup2\n                /* \"#utility.yul\":1458:1478   */\n              calldataload\n                /* \"#utility.yul\":1449:1478   */\n              swap1\n              pop\n                /* \"#utility.yul\":1487:1520   */\n              tag_371\n                /* \"#utility.yul\":1514:1519   */\n              dup2\n                /* \"#utility.yul\":1487:1520   */\n              tag_284\n              jump\t// in\n            tag_371:\n                /* \"#utility.yul\":1387:1526   */\n              swap3\n              swap2\n              pop\n              pop\n              jump\t// out\n                /* \"#utility.yul\":1532:1861   */\n            tag_34:\n                /* \"#utility.yul\":1591:1597   */\n              0x00\n                /* \"#utility.yul\":1640:1642   */\n              0x20\n                /* \"#utility.yul\":1628:1637   */\n              dup3\n                /* \"#utility.yul\":1619:1626   */\n              dup5\n                /* \"#utility.yul\":1615:1638   */\n              sub\n                /* \"#utility.yul\":1611:1643   */\n              slt\n                /* \"#utility.yul\":1608:1727   */\n              iszero\n              tag_373\n              jumpi\n                /* \"#utility.yul\":1646:1725   */\n              tag_374\n              tag_277\n              jump\t// in\n            tag_374:\n                /* \"#utility.yul\":1608:1727   */\n            tag_373:\n                /* \"#utility.yul\":1766:1767   */\n              0x00\n                /* \"#utility.yul\":1791:1844   */\n              tag_375\n                /* \"#utility.yul\":1836:1843   */\n              dup5\n                /* \"#utility.yul\":1827:1833   */\n              dup3\n                /* \"#utility.yul\":1816:1825   */\n              dup6\n                /* \"#utility.yul\":1812:1834   */\n              add\n                /* \"#utility.yul\":1791:1844   */\n              tag_285\n              jump\t// in\n            tag_375:\n                /* \"#utility.yul\":1781:1844   */\n              swap2\n              pop\n                /* \"#utility.yul\":1737:1854   */\n              pop\n                /* \"#utility.yul\":1532:1861   */\n              swap3\n              swap2\n              pop\n              pop\n              jump\t// out\n                /* \"#utility.yul\":1867:1957   */\n            tag_286:\n                /* \"#utility.yul\":1901:1908   */\n              0x00\n                /* \"#utility.yul\":1944:1949   */\n              dup2\n                /* \"#utility.yul\":1937:1950   */\n              iszero\n                /* \"#utility.yul\":1930:1951   */\n              iszero\n                /* \"#utility.yul\":1919:1951   */\n              swap1\n              pop\n                /* \"#utility.yul\":1867:1957   */\n              swap2\n              swap1\n              pop\n              jump\t// out\n                /* \"#utility.yul\":1963:2072   */\n            tag_287:\n                /* \"#utility.yul\":2044:2065   */\n              tag_378\n                /* \"#utility.yul\":2059:2064   */\n              dup2\n                /* \"#utility.yul\":2044:2065   */\n              tag_286\n              jump\t// in\n            tag_378:\n                /* \"#utility.yul\":2039:2042   */\n              dup3\n                /* \"#utility.yul\":2032:2066   */\n              mstore\n                /* \"#utility.yul\":1963:2072   */\n              pop\n              pop\n              jump\t// out\n                /* \"#utility.yul\":2078:2288   */\n            tag_37:\n                /* \"#utility.yul\":2165:2169   */\n              0x00\n                /* \"#utility.yul\":2203:2205   */\n              0x20\n                /* \"#utility.yul\":2192:2201   */\n              dup3\n                /* \"#utility.yul\":2188:2206   */\n              add\n                /* \"#utility.yul\":2180:2206   */\n              swap1\n              pop\n                /* \"#utility.yul\":2216:2281   */\n              tag_380\n                /* \"#utility.yul\":2278:2279   */\n              0x00\n                /* \"#utility.yul\":2267:2276   */\n              dup4\n                /* \"#utility.yul\":2263:2280   */\n              add\n                /* \"#utility.yul\":2254:2260   */\n              dup5\n                /* \"#utility.yul\":2216:2281   */\n              tag_287\n              jump\t// in\n            tag_380:\n                /* \"#utility.yul\":2078:2288   */\n              swap3\n              swap2\n              pop\n              pop\n              jump\t// out\n                /* \"#utility.yul\":2294:2412   */\n            tag_288:\n                /* \"#utility.yul\":2381:2405   */\n              tag_382\n                /* \"#utility.yul\":2399:2404   */\n              dup2\n                /* \"#utility.yul\":2381:2405   */\n              tag_283\n              jump\t// in\n            tag_382:\n                /* \"#utility.yul\":2376:2379   */\n              dup3\n                /* \"#utility.yul\":2369:2406   */\n              mstore\n                /* \"#utility.yul\":2294:2412   */\n              pop\n              pop\n              jump\t// out\n                /* \"#utility.yul\":2418:2517   */\n            tag_289:\n                /* \"#utility.yul\":2470:2476   */\n              0x00\n                /* \"#utility.yul\":2504:2509   */\n              dup2\n                /* \"#utility.yul\":2498:2510   */\n              mload\n                /* \"#utility.yul\":2488:2510   */\n              swap1\n              pop\n                /* \"#utility.yul\":2418:2517   */\n              swap2\n              swap1\n              pop\n              jump\t// out\n                /* \"#utility.yul\":2523:2692   */\n            tag_290:\n                /* \"#utility.yul\":2607:2618   */\n              0x00\n                /* \"#utility.yul\":2641:2647   */\n              dup3\n                /* \"#utility.yul\":2636:2639   */\n              dup3\n                /* \"#utility.yul\":2629:2648   */\n              mstore\n                /* \"#utility.yul\":2681:2685   */\n              0x20\n                /* \"#utility.yul\":2676:2679   */\n              dup3\n                /* \"#utility.yul\":2672:2686   */\n              add\n                /* \"#utility.yul\":2657:2686   */\n              swap1\n              pop\n                /* \"#utility.yul\":2523:2692   */\n              swap3\n              swap2\n              pop\n              pop\n              jump\t// out\n                /* \"#utility.yul\":2698:3005   */\n            tag_291:\n                /* \"#utility.yul\":2766:2767   */\n              0x00\n                /* \"#utility.yul\":2776:2889   */\n            tag_386:\n                /* \"#utility.yul\":2790:2796   */\n              dup4\n                /* \"#utility.yul\":2787:2788   */\n              dup2\n                /* \"#utility.yul\":2784:2797   */\n              lt\n                /* \"#utility.yul\":2776:2889   */\n              iszero\n              tag_388\n              jumpi\n                /* \"#utility.yul\":2875:2876   */\n              dup1\n                /* \"#utility.yul\":2870:2873   */\n              dup3\n                /* \"#utility.yul\":2866:2877   */\n              add\n                /* \"#utility.yul\":2860:2878   */\n              mload\n                /* \"#utility.yul\":2856:2857   */\n              dup2\n                /* \"#utility.yul\":2851:2854   */\n              dup5\n                /* \"#utility.yul\":2847:2858   */\n              add\n                /* \"#utility.yul\":2840:2879   */\n              mstore\n                /* \"#utility.yul\":2812:2814   */\n              0x20\n                /* \"#utility.yul\":2809:2810   */\n              dup2\n                /* \"#utility.yul\":2805:2815   */\n              add\n                /* \"#utility.yul\":2800:2815   */\n              swap1\n              pop\n                /* \"#utility.yul\":2776:2889   */\n              jump(tag_386)\n            tag_388:\n                /* \"#utility.yul\":2907:2913   */\n              dup4\n                /* \"#utility.yul\":2904:2905   */\n              dup2\n                /* \"#utility.yul\":2901:2914   */\n              gt\n                /* \"#utility.yul\":2898:2999   */\n              iszero\n              tag_389\n              jumpi\n                /* \"#utility.yul\":2987:2988   */\n              0x00\n                /* \"#utility.yul\":2978:2984   */\n              dup5\n                /* \"#utility.yul\":2973:2976   */\n              dup5\n                /* \"#utility.yul\":2969:2985   */\n              add\n                /* \"#utility.yul\":2962:2989   */\n              mstore\n                /* \"#utility.yul\":2898:2999   */\n            tag_389:\n                /* \"#utility.yul\":2747:3005   */\n              pop\n                /* \"#utility.yul\":2698:3005   */\n              pop\n              pop\n              pop\n              jump\t// out\n                /* \"#utility.yul\":3011:3113   */\n            tag_292:\n                /* \"#utility.yul\":3052:3058   */\n              0x00\n                /* \"#utility.yul\":3103:3105   */\n              0x1f\n                /* \"#utility.yul\":3099:3106   */\n              not\n                /* \"#utility.yul\":3094:3096   */\n              0x1f\n                /* \"#utility.yul\":3087:3092   */\n              dup4\n                /* \"#utility.yul\":3083:3097   */\n              add\n                /* \"#utility.yul\":3079:3107   */\n              and\n                /* \"#utility.yul\":3069:3107   */\n              swap1\n              pop\n                /* \"#utility.yul\":3011:3113   */\n              swap2\n              swap1\n              pop\n              jump\t// out\n                /* \"#utility.yul\":3119:3483   */\n            tag_293:\n                /* \"#utility.yul\":3207:3210   */\n              0x00\n                /* \"#utility.yul\":3235:3274   */\n              tag_392\n                /* \"#utility.yul\":3268:3273   */\n              dup3\n                /* \"#utility.yul\":3235:3274   */\n              tag_289\n              jump\t// in\n            tag_392:\n                /* \"#utility.yul\":3290:3361   */\n              tag_393\n                /* \"#utility.yul\":3354:3360   */\n              dup2\n                /* \"#utility.yul\":3349:3352   */\n              dup6\n                /* \"#utility.yul\":3290:3361   */\n              tag_290\n              jump\t// in\n            tag_393:\n                /* \"#utility.yul\":3283:3361   */\n              swap4\n              pop\n                /* \"#utility.yul\":3370:3422   */\n              tag_394\n                /* \"#utility.yul\":3415:3421   */\n              dup2\n                /* \"#utility.yul\":3410:3413   */\n              dup6\n                /* \"#utility.yul\":3403:3407   */\n              0x20\n                /* \"#utility.yul\":3396:3401   */\n              dup7\n                /* \"#utility.yul\":3392:3408   */\n              add\n                /* \"#utility.yul\":3370:3422   */\n              tag_291\n              jump\t// in\n            tag_394:\n                /* \"#utility.yul\":3447:3476   */\n              tag_395\n                /* \"#utility.yul\":3469:3475   */\n              dup2\n                /* \"#utility.yul\":3447:3476   */\n              tag_292\n              jump\t// in\n            tag_395:\n                /* \"#utility.yul\":3442:3445   */\n              dup5\n                /* \"#utility.yul\":3438:3477   */\n              add\n                /* \"#utility.yul\":3431:3477   */\n              swap2\n              pop\n                /* \"#utility.yul\":3211:3483   */\n              pop\n                /* \"#utility.yul\":3119:3483   */\n              swap3\n              swap2\n              pop\n              pop\n              jump\t// out\n                /* \"#utility.yul\":3489:3603   */\n            tag_294:\n                /* \"#utility.yul\":3556:3562   */\n              0x00\n                /* \"#utility.yul\":3590:3595   */\n              dup2\n                /* \"#utility.yul\":3584:3596   */\n              mload\n                /* \"#utility.yul\":3574:3596   */\n              swap1\n              pop\n                /* \"#utility.yul\":3489:3603   */\n              swap2\n              swap1\n              pop\n              jump\t// out\n                /* \"#utility.yul\":3609:3793   */\n            tag_295:\n                /* \"#utility.yul\":3708:3719   */\n              0x00\n                /* \"#utility.yul\":3742:3748   */\n              dup3\n                /* \"#utility.yul\":3737:3740   */\n              dup3\n                /* \"#utility.yul\":3730:3749   */\n              mstore\n                /* \"#utility.yul\":3782:3786   */\n              0x20\n                /* \"#utility.yul\":3777:3780   */\n              dup3\n                /* \"#utility.yul\":3773:3787   */\n              add\n                /* \"#utility.yul\":3758:3787   */\n              swap1\n              pop\n                /* \"#utility.yul\":3609:3793   */\n              swap3\n              swap2\n              pop\n              pop\n              jump\t// out\n                /* \"#utility.yul\":3799:3931   */\n            tag_296:\n                /* \"#utility.yul\":3866:3870   */\n              0x00\n                /* \"#utility.yul\":3889:3892   */\n              dup2\n                /* \"#utility.yul\":3881:3892   */\n              swap1\n              pop\n                /* \"#utility.yul\":3919:3923   */\n              0x20\n                /* \"#utility.yul\":3914:3917   */\n              dup3\n                /* \"#utility.yul\":3910:3924   */\n              add\n                /* \"#utility.yul\":3902:3924   */\n              swap1\n              pop\n                /* \"#utility.yul\":3799:3931   */\n              swap2\n              swap1\n              pop\n              jump\t// out\n                /* \"#utility.yul\":3937:4045   */\n            tag_297:\n                /* \"#utility.yul\":4014:4038   */\n              tag_400\n                /* \"#utility.yul\":4032:4037   */\n              dup2\n                /* \"#utility.yul\":4014:4038   */\n              tag_283\n              jump\t// in\n            tag_400:\n                /* \"#utility.yul\":4009:4012   */\n              dup3\n                /* \"#utility.yul\":4002:4039   */\n              mstore\n                /* \"#utility.yul\":3937:4045   */\n              pop\n              pop\n              jump\t// out\n                /* \"#utility.yul\":4051:4230   */\n            tag_298:\n                /* \"#utility.yul\":4120:4130   */\n              0x00\n                /* \"#utility.yul\":4141:4187   */\n              tag_402\n                /* \"#utility.yul\":4183:4186   */\n              dup4\n                /* \"#utility.yul\":4175:4181   */\n              dup4\n                /* \"#utility.yul\":4141:4187   */\n              tag_297\n              jump\t// in\n            tag_402:\n                /* \"#utility.yul\":4219:4223   */\n              0x20\n                /* \"#utility.yul\":4214:4217   */\n              dup4\n                /* \"#utility.yul\":4210:4224   */\n              add\n                /* \"#utility.yul\":4196:4224   */\n              swap1\n              pop\n                /* \"#utility.yul\":4051:4230   */\n              swap3\n              swap2\n              pop\n              pop\n              jump\t// out\n                /* \"#utility.yul\":4236:4349   */\n            tag_299:\n                /* \"#utility.yul\":4306:4310   */\n              0x00\n                /* \"#utility.yul\":4338:4342   */\n              0x20\n                /* \"#utility.yul\":4333:4336   */\n              dup3\n                /* \"#utility.yul\":4329:4343   */\n              add\n                /* \"#utility.yul\":4321:4343   */\n              swap1\n              pop\n                /* \"#utility.yul\":4236:4349   */\n              swap2\n              swap1\n              pop\n              jump\t// out\n                /* \"#utility.yul\":4385:5117   */\n            tag_300:\n                /* \"#utility.yul\":4504:4507   */\n              0x00\n                /* \"#utility.yul\":4533:4587   */\n              tag_405\n                /* \"#utility.yul\":4581:4586   */\n              dup3\n                /* \"#utility.yul\":4533:4587   */\n              tag_294\n              jump\t// in\n            tag_405:\n                /* \"#utility.yul\":4603:4689   */\n              tag_406\n                /* \"#utility.yul\":4682:4688   */\n              dup2\n                /* \"#utility.yul\":4677:4680   */\n              dup6\n                /* \"#utility.yul\":4603:4689   */\n              tag_295\n              jump\t// in\n            tag_406:\n                /* \"#utility.yul\":4596:4689   */\n              swap4\n              pop\n                /* \"#utility.yul\":4713:4769   */\n              tag_407\n                /* \"#utility.yul\":4763:4768   */\n              dup4\n                /* \"#utility.yul\":4713:4769   */\n              tag_296\n              jump\t// in\n            tag_407:\n                /* \"#utility.yul\":4792:4799   */\n              dup1\n                /* \"#utility.yul\":4823:4824   */\n              0x00\n                /* \"#utility.yul\":4808:5092   */\n            tag_408:\n                /* \"#utility.yul\":4833:4839   */\n              dup4\n                /* \"#utility.yul\":4830:4831   */\n              dup2\n                /* \"#utility.yul\":4827:4840   */\n              lt\n                /* \"#utility.yul\":4808:5092   */\n              iszero\n              tag_410\n              jumpi\n                /* \"#utility.yul\":4909:4915   */\n              dup2\n                /* \"#utility.yul\":4903:4916   */\n              mload\n                /* \"#utility.yul\":4936:4999   */\n              tag_411\n                /* \"#utility.yul\":4995:4998   */\n              dup9\n                /* \"#utility.yul\":4980:4993   */\n              dup3\n                /* \"#utility.yul\":4936:4999   */\n              tag_298\n              jump\t// in\n            tag_411:\n                /* \"#utility.yul\":4929:4999   */\n              swap8\n              pop\n                /* \"#utility.yul\":5022:5082   */\n              tag_412\n                /* \"#utility.yul\":5075:5081   */\n              dup4\n                /* \"#utility.yul\":5022:5082   */\n              tag_299\n              jump\t// in\n            tag_412:\n                /* \"#utility.yul\":5012:5082   */\n              swap3\n              pop\n                /* \"#utility.yul\":4868:5092   */\n              pop\n                /* \"#utility.yul\":4855:4856   */\n              0x01\n                /* \"#utility.yul\":4852:4853   */\n              dup2\n                /* \"#utility.yul\":4848:4857   */\n              add\n                /* \"#utility.yul\":4843:4857   */\n              swap1\n              pop\n                /* \"#utility.yul\":4808:5092   */\n              jump(tag_408)\n            tag_410:\n                /* \"#utility.yul\":4812:4826   */\n              pop\n                /* \"#utility.yul\":5108:5111   */\n              dup6\n                /* \"#utility.yul\":5101:5111   */\n              swap4\n              pop\n                /* \"#utility.yul\":4509:5117   */\n              pop\n              pop\n              pop\n                /* \"#utility.yul\":4385:5117   */\n              swap3\n              swap2\n              pop\n              pop\n              jump\t// out\n                /* \"#utility.yul\":5123:5241   */\n            tag_301:\n                /* \"#utility.yul\":5210:5234   */\n              tag_414\n                /* \"#utility.yul\":5228:5233   */\n              dup2\n                /* \"#utility.yul\":5210:5234   */\n              tag_279\n              jump\t// in\n            tag_414:\n                /* \"#utility.yul\":5205:5208   */\n              dup3\n                /* \"#utility.yul\":5198:5235   */\n              mstore\n                /* \"#utility.yul\":5123:5241   */\n              pop\n              pop\n              jump\t// out\n                /* \"#utility.yul\":5247:7142   */\n            tag_42:\n                /* \"#utility.yul\":5775:5779   */\n              0x00\n                /* \"#utility.yul\":5813:5816   */\n              0x0160\n                /* \"#utility.yul\":5802:5811   */\n              dup3\n                /* \"#utility.yul\":5798:5817   */\n              add\n                /* \"#utility.yul\":5790:5817   */\n              swap1\n              pop\n                /* \"#utility.yul\":5827:5898   */\n              tag_416\n                /* \"#utility.yul\":5895:5896   */\n              0x00\n                /* \"#utility.yul\":5884:5893   */\n              dup4\n                /* \"#utility.yul\":5880:5897   */\n              add\n                /* \"#utility.yul\":5871:5877   */\n              dup15\n                /* \"#utility.yul\":5827:5898   */\n              tag_288\n              jump\t// in\n            tag_416:\n                /* \"#utility.yul\":5945:5954   */\n              dup2\n                /* \"#utility.yul\":5939:5943   */\n              dup2\n                /* \"#utility.yul\":5935:5955   */\n              sub\n                /* \"#utility.yul\":5930:5932   */\n              0x20\n                /* \"#utility.yul\":5919:5928   */\n              dup4\n                /* \"#utility.yul\":5915:5933   */\n              add\n                /* \"#utility.yul\":5908:5956   */\n              mstore\n                /* \"#utility.yul\":5973:6051   */\n              tag_417\n                /* \"#utility.yul\":6046:6050   */\n              dup2\n                /* \"#utility.yul\":6037:6043   */\n              dup14\n                /* \"#utility.yul\":5973:6051   */\n              tag_293\n              jump\t// in\n            tag_417:\n                /* \"#utility.yul\":5965:6051   */\n              swap1\n              pop\n                /* \"#utility.yul\":6098:6107   */\n              dup2\n                /* \"#utility.yul\":6092:6096   */\n              dup2\n                /* \"#utility.yul\":6088:6108   */\n              sub\n                /* \"#utility.yul\":6083:6085   */\n              0x40\n                /* \"#utility.yul\":6072:6081   */\n              dup4\n                /* \"#utility.yul\":6068:6086   */\n              add\n                /* \"#utility.yul\":6061:6109   */\n              mstore\n                /* \"#utility.yul\":6126:6204   */\n              tag_418\n                /* \"#utility.yul\":6199:6203   */\n              dup2\n                /* \"#utility.yul\":6190:6196   */\n              dup13\n                /* \"#utility.yul\":6126:6204   */\n              tag_293\n              jump\t// in\n            tag_418:\n                /* \"#utility.yul\":6118:6204   */\n              swap1\n              pop\n                /* \"#utility.yul\":6251:6260   */\n              dup2\n                /* \"#utility.yul\":6245:6249   */\n              dup2\n                /* \"#utility.yul\":6241:6261   */\n              sub\n                /* \"#utility.yul\":6236:6238   */\n              0x60\n                /* \"#utility.yul\":6225:6234   */\n              dup4\n                /* \"#utility.yul\":6221:6239   */\n              add\n                /* \"#utility.yul\":6214:6262   */\n              mstore\n                /* \"#utility.yul\":6279:6357   */\n              tag_419\n                /* \"#utility.yul\":6352:6356   */\n              dup2\n                /* \"#utility.yul\":6343:6349   */\n              dup12\n                /* \"#utility.yul\":6279:6357   */\n              tag_293\n              jump\t// in\n            tag_419:\n                /* \"#utility.yul\":6271:6357   */\n              swap1\n              pop\n                /* \"#utility.yul\":6405:6414   */\n              dup2\n                /* \"#utility.yul\":6399:6403   */\n              dup2\n                /* \"#utility.yul\":6395:6415   */\n              sub\n                /* \"#utility.yul\":6389:6392   */\n              0x80\n                /* \"#utility.yul\":6378:6387   */\n              dup4\n                /* \"#utility.yul\":6374:6393   */\n              add\n                /* \"#utility.yul\":6367:6416   */\n              mstore\n                /* \"#utility.yul\":6433:6541   */\n              tag_420\n                /* \"#utility.yul\":6536:6540   */\n              dup2\n                /* \"#utility.yul\":6527:6533   */\n              dup11\n                /* \"#utility.yul\":6433:6541   */\n              tag_300\n              jump\t// in\n            tag_420:\n                /* \"#utility.yul\":6425:6541   */\n              swap1\n              pop\n                /* \"#utility.yul\":6589:6598   */\n              dup2\n                /* \"#utility.yul\":6583:6587   */\n              dup2\n                /* \"#utility.yul\":6579:6599   */\n              sub\n                /* \"#utility.yul\":6573:6576   */\n              0xa0\n                /* \"#utility.yul\":6562:6571   */\n              dup4\n                /* \"#utility.yul\":6558:6577   */\n              add\n                /* \"#utility.yul\":6551:6600   */\n              mstore\n                /* \"#utility.yul\":6617:6725   */\n              tag_421\n                /* \"#utility.yul\":6720:6724   */\n              dup2\n                /* \"#utility.yul\":6711:6717   */\n              dup10\n                /* \"#utility.yul\":6617:6725   */\n              tag_300\n              jump\t// in\n            tag_421:\n                /* \"#utility.yul\":6609:6725   */\n              swap1\n              pop\n                /* \"#utility.yul\":6735:6808   */\n              tag_422\n                /* \"#utility.yul\":6803:6806   */\n              0xc0\n                /* \"#utility.yul\":6792:6801   */\n              dup4\n                /* \"#utility.yul\":6788:6807   */\n              add\n                /* \"#utility.yul\":6779:6785   */\n              dup9\n                /* \"#utility.yul\":6735:6808   */\n              tag_301\n              jump\t// in\n            tag_422:\n                /* \"#utility.yul\":6818:6891   */\n              tag_423\n                /* \"#utility.yul\":6886:6889   */\n              0xe0\n                /* \"#utility.yul\":6875:6884   */\n              dup4\n                /* \"#utility.yul\":6871:6890   */\n              add\n                /* \"#utility.yul\":6862:6868   */\n              dup8\n                /* \"#utility.yul\":6818:6891   */\n              tag_301\n              jump\t// in\n            tag_423:\n                /* \"#utility.yul\":6901:6974   */\n              tag_424\n                /* \"#utility.yul\":6969:6972   */\n              0x0100\n                /* \"#utility.yul\":6958:6967   */\n              dup4\n                /* \"#utility.yul\":6954:6973   */\n              add\n                /* \"#utility.yul\":6945:6951   */\n              dup7\n                /* \"#utility.yul\":6901:6974   */\n              tag_301\n              jump\t// in\n            tag_424:\n                /* \"#utility.yul\":6984:7051   */\n              tag_425\n                /* \"#utility.yul\":7046:7049   */\n              0x0120\n                /* \"#utility.yul\":7035:7044   */\n              dup4\n                /* \"#utility.yul\":7031:7050   */\n              add\n                /* \"#utility.yul\":7022:7028   */\n              dup6\n                /* \"#utility.yul\":6984:7051   */\n              tag_287\n              jump\t// in\n            tag_425:\n                /* \"#utility.yul\":7061:7135   */\n              tag_426\n                /* \"#utility.yul\":7130:7133   */\n              0x0140\n                /* \"#utility.yul\":7119:7128   */\n              dup4\n                /* \"#utility.yul\":7115:7134   */\n              add\n                /* \"#utility.yul\":7105:7112   */\n              dup5\n                /* \"#utility.yul\":7061:7135   */\n              tag_301\n              jump\t// in\n            tag_426:\n                /* \"#utility.yul\":5247:7142   */\n              swap13\n              swap12\n              pop\n              pop\n              pop\n              pop\n              pop\n              pop\n              pop\n              pop\n              pop\n              pop\n              pop\n              pop\n              jump\t// out\n                /* \"#utility.yul\":7148:7521   */\n            tag_64:\n                /* \"#utility.yul\":7291:7295   */\n              0x00\n                /* \"#utility.yul\":7329:7331   */\n              0x20\n                /* \"#utility.yul\":7318:7327   */\n              dup3\n                /* \"#utility.yul\":7314:7332   */\n              add\n                /* \"#utility.yul\":7306:7332   */\n              swap1\n              pop\n                /* \"#utility.yul\":7378:7387   */\n              dup2\n                /* \"#utility.yul\":7372:7376   */\n              dup2\n                /* \"#utility.yul\":7368:7388   */\n              sub\n                /* \"#utility.yul\":7364:7365   */\n              0x00\n                /* \"#utility.yul\":7353:7362   */\n              dup4\n                /* \"#utility.yul\":7349:7366   */\n              add\n                /* \"#utility.yul\":7342:7389   */\n              mstore\n                /* \"#utility.yul\":7406:7514   */\n              tag_428\n                /* \"#utility.yul\":7509:7513   */\n              dup2\n                /* \"#utility.yul\":7500:7506   */\n              dup5\n                /* \"#utility.yul\":7406:7514   */\n              tag_300\n              jump\t// in\n            tag_428:\n                /* \"#utility.yul\":7398:7514   */\n              swap1\n              pop\n                /* \"#utility.yul\":7148:7521   */\n              swap3\n              swap2\n              pop\n              pop\n              jump\t// out\n                /* \"#utility.yul\":7527:7749   */\n            tag_70:\n                /* \"#utility.yul\":7620:7624   */\n              0x00\n                /* \"#utility.yul\":7658:7660   */\n              0x20\n                /* \"#utility.yul\":7647:7656   */\n              dup3\n                /* \"#utility.yul\":7643:7661   */\n              add\n                /* \"#utility.yul\":7635:7661   */\n              swap1\n              pop\n                /* \"#utility.yul\":7671:7742   */\n              tag_430\n                /* \"#utility.yul\":7739:7740   */\n              0x00\n                /* \"#utility.yul\":7728:7737   */\n              dup4\n                /* \"#utility.yul\":7724:7741   */\n              add\n                /* \"#utility.yul\":7715:7721   */\n              dup5\n                /* \"#utility.yul\":7671:7742   */\n              tag_288\n              jump\t// in\n            tag_430:\n                /* \"#utility.yul\":7527:7749   */\n              swap3\n              swap2\n              pop\n              pop\n              jump\t// out\n                /* \"#utility.yul\":7755:7872   */\n            tag_302:\n                /* \"#utility.yul\":7864:7865   */\n              0x00\n                /* \"#utility.yul\":7861:7862   */\n              dup1\n                /* \"#utility.yul\":7854:7866   */\n              revert\n                /* \"#utility.yul\":7878:7995   */\n            tag_303:\n                /* \"#utility.yul\":7987:7988   */\n              0x00\n                /* \"#utility.yul\":7984:7985   */\n              dup1\n                /* \"#utility.yul\":7977:7989   */\n              revert\n                /* \"#utility.yul\":8001:8181   */\n            tag_304:\n                /* \"#utility.yul\":8049:8126   */\n              0x4e487b7100000000000000000000000000000000000000000000000000000000\n                /* \"#utility.yul\":8046:8047   */\n              0x00\n                /* \"#utility.yul\":8039:8127   */\n              mstore\n                /* \"#utility.yul\":8146:8150   */\n              0x41\n                /* \"#utility.yul\":8143:8144   */\n              0x04\n                /* \"#utility.yul\":8136:8151   */\n              mstore\n                /* \"#utility.yul\":8170:8174   */\n              0x24\n                /* \"#utility.yul\":8167:8168   */\n              0x00\n                /* \"#utility.yul\":8160:8175   */\n              revert\n                /* \"#utility.yul\":8187:8468   */\n            tag_305:\n                /* \"#utility.yul\":8270:8297   */\n              tag_435\n                /* \"#utility.yul\":8292:8296   */\n              dup3\n                /* \"#utility.yul\":8270:8297   */\n              tag_292\n              jump\t// in\n            tag_435:\n                /* \"#utility.yul\":8262:8268   */\n              dup2\n                /* \"#utility.yul\":8258:8298   */\n              add\n                /* \"#utility.yul\":8400:8406   */\n              dup2\n                /* \"#utility.yul\":8388:8398   */\n              dup2\n                /* \"#utility.yul\":8385:8407   */\n              lt\n                /* \"#utility.yul\":8364:8382   */\n              0xffffffffffffffff\n                /* \"#utility.yul\":8352:8362   */\n              dup3\n                /* \"#utility.yul\":8349:8383   */\n              gt\n                /* \"#utility.yul\":8346:8408   */\n              or\n                /* \"#utility.yul\":8343:8431   */\n              iszero\n              tag_436\n              jumpi\n                /* \"#utility.yul\":8411:8429   */\n              tag_437\n              tag_304\n              jump\t// in\n            tag_437:\n                /* \"#utility.yul\":8343:8431   */\n            tag_436:\n                /* \"#utility.yul\":8451:8461   */\n              dup1\n                /* \"#utility.yul\":8447:8449   */\n              0x40\n                /* \"#utility.yul\":8440:8462   */\n              mstore\n                /* \"#utility.yul\":8230:8468   */\n              pop\n                /* \"#utility.yul\":8187:8468   */\n              pop\n              pop\n              jump\t// out\n                /* \"#utility.yul\":8474:8603   */\n            tag_306:\n                /* \"#utility.yul\":8508:8514   */\n              0x00\n                /* \"#utility.yul\":8535:8555   */\n              tag_439\n              tag_276\n              jump\t// in\n            tag_439:\n                /* \"#utility.yul\":8525:8555   */\n              swap1\n              pop\n                /* \"#utility.yul\":8564:8597   */\n              tag_440\n                /* \"#utility.yul\":8592:8596   */\n              dup3\n                /* \"#utility.yul\":8584:8590   */\n              dup3\n                /* \"#utility.yul\":8564:8597   */\n              tag_305\n              jump\t// in\n            tag_440:\n                /* \"#utility.yul\":8474:8603   */\n              swap2\n              swap1\n              pop\n              jump\t// out\n                /* \"#utility.yul\":8609:8917   */\n            tag_307:\n                /* \"#utility.yul\":8671:8675   */\n              0x00\n                /* \"#utility.yul\":8761:8779   */\n              0xffffffffffffffff\n                /* \"#utility.yul\":8753:8759   */\n              dup3\n                /* \"#utility.yul\":8750:8780   */\n              gt\n                /* \"#utility.yul\":8747:8803   */\n              iszero\n              tag_442\n              jumpi\n                /* \"#utility.yul\":8783:8801   */\n              tag_443\n              tag_304\n              jump\t// in\n            tag_443:\n                /* \"#utility.yul\":8747:8803   */\n            tag_442:\n                /* \"#utility.yul\":8821:8850   */\n              tag_444\n                /* \"#utility.yul\":8843:8849   */\n              dup3\n                /* \"#utility.yul\":8821:8850   */\n              tag_292\n              jump\t// in\n            tag_444:\n                /* \"#utility.yul\":8813:8850   */\n              swap1\n              pop\n                /* \"#utility.yul\":8905:8909   */\n              0x20\n                /* \"#utility.yul\":8899:8903   */\n              dup2\n                /* \"#utility.yul\":8895:8910   */\n              add\n                /* \"#utility.yul\":8887:8910   */\n              swap1\n              pop\n                /* \"#utility.yul\":8609:8917   */\n              swap2\n              swap1\n              pop\n              jump\t// out\n                /* \"#utility.yul\":8923:9077   */\n            tag_308:\n                /* \"#utility.yul\":9007:9013   */\n              dup3\n                /* \"#utility.yul\":9002:9005   */\n              dup2\n                /* \"#utility.yul\":8997:9000   */\n              dup4\n                /* \"#utility.yul\":8984:9014   */\n              calldatacopy\n                /* \"#utility.yul\":9069:9070   */\n              0x00\n                /* \"#utility.yul\":9060:9066   */\n              dup4\n                /* \"#utility.yul\":9055:9058   */\n              dup4\n                /* \"#utility.yul\":9051:9067   */\n              add\n                /* \"#utility.yul\":9044:9071   */\n              mstore\n                /* \"#utility.yul\":8923:9077   */\n              pop\n              pop\n              pop\n              jump\t// out\n                /* \"#utility.yul\":9083:9495   */\n            tag_309:\n                /* \"#utility.yul\":9161:9166   */\n              0x00\n                /* \"#utility.yul\":9186:9252   */\n              tag_447\n                /* \"#utility.yul\":9202:9251   */\n              tag_448\n                /* \"#utility.yul\":9244:9250   */\n              dup5\n                /* \"#utility.yul\":9202:9251   */\n              tag_307\n              jump\t// in\n            tag_448:\n                /* \"#utility.yul\":9186:9252   */\n              tag_306\n              jump\t// in\n            tag_447:\n                /* \"#utility.yul\":9177:9252   */\n              swap1\n              pop\n                /* \"#utility.yul\":9275:9281   */\n              dup3\n                /* \"#utility.yul\":9268:9273   */\n              dup2\n                /* \"#utility.yul\":9261:9282   */\n              mstore\n                /* \"#utility.yul\":9313:9317   */\n              0x20\n                /* \"#utility.yul\":9306:9311   */\n              dup2\n                /* \"#utility.yul\":9302:9318   */\n              add\n                /* \"#utility.yul\":9351:9354   */\n              dup5\n                /* \"#utility.yul\":9342:9348   */\n              dup5\n                /* \"#utility.yul\":9337:9340   */\n              dup5\n                /* \"#utility.yul\":9333:9349   */\n              add\n                /* \"#utility.yul\":9330:9355   */\n              gt\n                /* \"#utility.yul\":9327:9439   */\n              iszero\n              tag_449\n              jumpi\n                /* \"#utility.yul\":9358:9437   */\n              tag_450\n              tag_303\n              jump\t// in\n            tag_450:\n                /* \"#utility.yul\":9327:9439   */\n            tag_449:\n                /* \"#utility.yul\":9448:9489   */\n              tag_451\n                /* \"#utility.yul\":9482:9488   */\n              dup5\n                /* \"#utility.yul\":9477:9480   */\n              dup3\n                /* \"#utility.yul\":9472:9475   */\n              dup6\n                /* \"#utility.yul\":9448:9489   */\n              tag_308\n              jump\t// in\n            tag_451:\n                /* \"#utility.yul\":9167:9495   */\n              pop\n                /* \"#utility.yul\":9083:9495   */\n              swap4\n              swap3\n              pop\n              pop\n              pop\n              jump\t// out\n                /* \"#utility.yul\":9515:9855   */\n            tag_310:\n                /* \"#utility.yul\":9571:9576   */\n              0x00\n                /* \"#utility.yul\":9620:9623   */\n              dup3\n                /* \"#utility.yul\":9613:9617   */\n              0x1f\n                /* \"#utility.yul\":9605:9611   */\n              dup4\n                /* \"#utility.yul\":9601:9618   */\n              add\n                /* \"#utility.yul\":9597:9624   */\n              slt\n                /* \"#utility.yul\":9587:9709   */\n              tag_453\n              jumpi\n                /* \"#utility.yul\":9628:9707   */\n              tag_454\n              tag_302\n              jump\t// in\n            tag_454:\n                /* \"#utility.yul\":9587:9709   */\n            tag_453:\n                /* \"#utility.yul\":9745:9751   */\n              dup2\n                /* \"#utility.yul\":9732:9752   */\n              calldataload\n                /* \"#utility.yul\":9770:9849   */\n              tag_455\n                /* \"#utility.yul\":9845:9848   */\n              dup5\n                /* \"#utility.yul\":9837:9843   */\n              dup3\n                /* \"#utility.yul\":9830:9834   */\n              0x20\n                /* \"#utility.yul\":9822:9828   */\n              dup7\n                /* \"#utility.yul\":9818:9835   */\n              add\n                /* \"#utility.yul\":9770:9849   */\n              tag_309\n              jump\t// in\n            tag_455:\n                /* \"#utility.yul\":9761:9849   */\n              swap2\n              pop\n                /* \"#utility.yul\":9577:9855   */\n              pop\n                /* \"#utility.yul\":9515:9855   */\n              swap3\n              swap2\n              pop\n              pop\n              jump\t// out\n                /* \"#utility.yul\":9861:10660   */\n            tag_79:\n                /* \"#utility.yul\":9948:9954   */\n              0x00\n                /* \"#utility.yul\":9956:9962   */\n              dup1\n                /* \"#utility.yul\":9964:9970   */\n              0x00\n                /* \"#utility.yul\":10013:10015   */\n              0x60\n                /* \"#utility.yul\":10001:10010   */\n              dup5\n                /* \"#utility.yul\":9992:9999   */\n              dup7\n                /* \"#utility.yul\":9988:10011   */\n              sub\n                /* \"#utility.yul\":9984:10016   */\n              slt\n                /* \"#utility.yul\":9981:10100   */\n              iszero\n              tag_457\n              jumpi\n                /* \"#utility.yul\":10019:10098   */\n              tag_458\n              tag_277\n              jump\t// in\n            tag_458:\n                /* \"#utility.yul\":9981:10100   */\n            tag_457:\n                /* \"#utility.yul\":10167:10168   */\n              0x00\n                /* \"#utility.yul\":10156:10165   */\n              dup5\n                /* \"#utility.yul\":10152:10169   */\n              add\n                /* \"#utility.yul\":10139:10170   */\n              calldataload\n                /* \"#utility.yul\":10197:10215   */\n              0xffffffffffffffff\n                /* \"#utility.yul\":10189:10195   */\n              dup2\n                /* \"#utility.yul\":10186:10216   */\n              gt\n                /* \"#utility.yul\":10183:10300   */\n              iszero\n              tag_459\n              jumpi\n                /* \"#utility.yul\":10219:10298   */\n              tag_460\n              tag_278\n              jump\t// in\n            tag_460:\n                /* \"#utility.yul\":10183:10300   */\n            tag_459:\n                /* \"#utility.yul\":10324:10387   */\n              tag_461\n                /* \"#utility.yul\":10379:10386   */\n              dup7\n                /* \"#utility.yul\":10370:10376   */\n              dup3\n                /* \"#utility.yul\":10359:10368   */\n              dup8\n                /* \"#utility.yul\":10355:10377   */\n              add\n                /* \"#utility.yul\":10324:10387   */\n              tag_310\n              jump\t// in\n            tag_461:\n                /* \"#utility.yul\":10314:10387   */\n              swap4\n              pop\n                /* \"#utility.yul\":10110:10397   */\n              pop\n                /* \"#utility.yul\":10436:10438   */\n              0x20\n                /* \"#utility.yul\":10462:10515   */\n              tag_462\n                /* \"#utility.yul\":10507:10514   */\n              dup7\n                /* \"#utility.yul\":10498:10504   */\n              dup3\n                /* \"#utility.yul\":10487:10496   */\n              dup8\n                /* \"#utility.yul\":10483:10505   */\n              add\n                /* \"#utility.yul\":10462:10515   */\n              tag_285\n              jump\t// in\n            tag_462:\n                /* \"#utility.yul\":10452:10515   */\n              swap3\n              pop\n                /* \"#utility.yul\":10407:10525   */\n              pop\n                /* \"#utility.yul\":10564:10566   */\n              0x40\n                /* \"#utility.yul\":10590:10643   */\n              tag_463\n                /* \"#utility.yul\":10635:10642   */\n              dup7\n                /* \"#utility.yul\":10626:10632   */\n              dup3\n                /* \"#utility.yul\":10615:10624   */\n              dup8\n                /* \"#utility.yul\":10611:10633   */\n              add\n                /* \"#utility.yul\":10590:10643   */\n              tag_285\n              jump\t// in\n            tag_463:\n                /* \"#utility.yul\":10580:10643   */\n              swap2\n              pop\n                /* \"#utility.yul\":10535:10653   */\n              pop\n                /* \"#utility.yul\":9861:10660   */\n              swap3\n              pop\n              swap3\n              pop\n              swap3\n              jump\t// out\n                /* \"#utility.yul\":10666:11175   */\n            tag_86:\n                /* \"#utility.yul\":10735:10741   */\n              0x00\n                /* \"#utility.yul\":10784:10786   */\n              0x20\n                /* \"#utility.yul\":10772:10781   */\n              dup3\n                /* \"#utility.yul\":10763:10770   */\n              dup5\n                /* \"#utility.yul\":10759:10782   */\n              sub\n                /* \"#utility.yul\":10755:10787   */\n              slt\n                /* \"#utility.yul\":10752:10871   */\n              iszero\n              tag_465\n              jumpi\n                /* \"#utility.yul\":10790:10869   */\n              tag_466\n              tag_277\n              jump\t// in\n            tag_466:\n                /* \"#utility.yul\":10752:10871   */\n            tag_465:\n                /* \"#utility.yul\":10938:10939   */\n              0x00\n                /* \"#utility.yul\":10927:10936   */\n              dup3\n                /* \"#utility.yul\":10923:10940   */\n              add\n                /* \"#utility.yul\":10910:10941   */\n              calldataload\n                /* \"#utility.yul\":10968:10986   */\n              0xffffffffffffffff\n                /* \"#utility.yul\":10960:10966   */\n              dup2\n                /* \"#utility.yul\":10957:10987   */\n              gt\n                /* \"#utility.yul\":10954:11071   */\n              iszero\n              tag_467\n              jumpi\n                /* \"#utility.yul\":10990:11069   */\n              tag_468\n              tag_278\n              jump\t// in\n            tag_468:\n                /* \"#utility.yul\":10954:11071   */\n            tag_467:\n                /* \"#utility.yul\":11095:11158   */\n              tag_469\n                /* \"#utility.yul\":11150:11157   */\n              dup5\n                /* \"#utility.yul\":11141:11147   */\n              dup3\n                /* \"#utility.yul\":11130:11139   */\n              dup6\n                /* \"#utility.yul\":11126:11148   */\n              add\n                /* \"#utility.yul\":11095:11158   */\n              tag_310\n              jump\t// in\n            tag_469:\n                /* \"#utility.yul\":11085:11158   */\n              swap2\n              pop\n                /* \"#utility.yul\":10881:11168   */\n              pop\n                /* \"#utility.yul\":10666:11175   */\n              swap3\n              swap2\n              pop\n              pop\n              jump\t// out\n                /* \"#utility.yul\":11181:11345   */\n            tag_311:\n                /* \"#utility.yul\":11321:11337   */\n              0x5265656e7472616e742063616c6c000000000000000000000000000000000000\n                /* \"#utility.yul\":11317:11318   */\n              0x00\n                /* \"#utility.yul\":11309:11315   */\n              dup3\n                /* \"#utility.yul\":11305:11319   */\n              add\n                /* \"#utility.yul\":11298:11338   */\n              mstore\n                /* \"#utility.yul\":11181:11345   */\n              pop\n              jump\t// out\n                /* \"#utility.yul\":11351:11717   */\n            tag_312:\n                /* \"#utility.yul\":11493:11496   */\n              0x00\n                /* \"#utility.yul\":11514:11581   */\n              tag_472\n                /* \"#utility.yul\":11578:11580   */\n              0x0e\n                /* \"#utility.yul\":11573:11576   */\n              dup4\n                /* \"#utility.yul\":11514:11581   */\n              tag_290\n              jump\t// in\n            tag_472:\n                /* \"#utility.yul\":11507:11581   */\n              swap2\n              pop\n                /* \"#utility.yul\":11590:11683   */\n              tag_473\n                /* \"#utility.yul\":11679:11682   */\n              dup3\n                /* \"#utility.yul\":11590:11683   */\n              tag_311\n              jump\t// in\n            tag_473:\n                /* \"#utility.yul\":11708:11710   */\n              0x20\n                /* \"#utility.yul\":11703:11706   */\n              dup3\n                /* \"#utility.yul\":11699:11711   */\n              add\n                /* \"#utility.yul\":11692:11711   */\n              swap1\n              pop\n                /* \"#utility.yul\":11351:11717   */\n              swap2\n              swap1\n              pop\n              jump\t// out\n                /* \"#utility.yul\":11723:12142   */\n            tag_91:\n                /* \"#utility.yul\":11889:11893   */\n              0x00\n                /* \"#utility.yul\":11927:11929   */\n              0x20\n                /* \"#utility.yul\":11916:11925   */\n              dup3\n                /* \"#utility.yul\":11912:11930   */\n              add\n                /* \"#utility.yul\":11904:11930   */\n              swap1\n              pop\n                /* \"#utility.yul\":11976:11985   */\n              dup2\n                /* \"#utility.yul\":11970:11974   */\n              dup2\n                /* \"#utility.yul\":11966:11986   */\n              sub\n                /* \"#utility.yul\":11962:11963   */\n              0x00\n                /* \"#utility.yul\":11951:11960   */\n              dup4\n                /* \"#utility.yul\":11947:11964   */\n              add\n                /* \"#utility.yul\":11940:11987   */\n              mstore\n                /* \"#utility.yul\":12004:12135   */\n              tag_475\n                /* \"#utility.yul\":12130:12134   */\n              dup2\n                /* \"#utility.yul\":12004:12135   */\n              tag_312\n              jump\t// in\n            tag_475:\n                /* \"#utility.yul\":11996:12135   */\n              swap1\n              pop\n                /* \"#utility.yul\":11723:12142   */\n              swap2\n              swap1\n              pop\n              jump\t// out\n                /* \"#utility.yul\":12148:12326   */\n            tag_313:\n                /* \"#utility.yul\":12288:12318   */\n              0x546869732073746f727920686173206265656e207265706f7274656400000000\n                /* \"#utility.yul\":12284:12285   */\n              0x00\n                /* \"#utility.yul\":12276:12282   */\n              dup3\n                /* \"#utility.yul\":12272:12286   */\n              add\n                /* \"#utility.yul\":12265:12319   */\n              mstore\n                /* \"#utility.yul\":12148:12326   */\n              pop\n              jump\t// out\n                /* \"#utility.yul\":12332:12698   */\n            tag_314:\n                /* \"#utility.yul\":12474:12477   */\n              0x00\n                /* \"#utility.yul\":12495:12562   */\n              tag_478\n                /* \"#utility.yul\":12559:12561   */\n              0x1c\n                /* \"#utility.yul\":12554:12557   */\n              dup4\n                /* \"#utility.yul\":12495:12562   */\n              tag_290\n              jump\t// in\n            tag_478:\n                /* \"#utility.yul\":12488:12562   */\n              swap2\n              pop\n                /* \"#utility.yul\":12571:12664   */\n              tag_479\n                /* \"#utility.yul\":12660:12663   */\n              dup3\n                /* \"#utility.yul\":12571:12664   */\n              tag_313\n              jump\t// in\n            tag_479:\n                /* \"#utility.yul\":12689:12691   */\n              0x20\n                /* \"#utility.yul\":12684:12687   */\n              dup3\n                /* \"#utility.yul\":12680:12692   */\n              add\n                /* \"#utility.yul\":12673:12692   */\n              swap1\n              pop\n                /* \"#utility.yul\":12332:12698   */\n              swap2\n              swap1\n              pop\n              jump\t// out\n                /* \"#utility.yul\":12704:13123   */\n            tag_95:\n                /* \"#utility.yul\":12870:12874   */\n              0x00\n                /* \"#utility.yul\":12908:12910   */\n              0x20\n                /* \"#utility.yul\":12897:12906   */\n              dup3\n                /* \"#utility.yul\":12893:12911   */\n              add\n                /* \"#utility.yul\":12885:12911   */\n              swap1\n              pop\n                /* \"#utility.yul\":12957:12966   */\n              dup2\n                /* \"#utility.yul\":12951:12955   */\n              dup2\n                /* \"#utility.yul\":12947:12967   */\n              sub\n                /* \"#utility.yul\":12943:12944   */\n              0x00\n                /* \"#utility.yul\":12932:12941   */\n              dup4\n                /* \"#utility.yul\":12928:12945   */\n              add\n                /* \"#utility.yul\":12921:12968   */\n              mstore\n                /* \"#utility.yul\":12985:13116   */\n              tag_481\n                /* \"#utility.yul\":13111:13115   */\n              dup2\n                /* \"#utility.yul\":12985:13116   */\n              tag_314\n              jump\t// in\n            tag_481:\n                /* \"#utility.yul\":12977:13116   */\n              swap1\n              pop\n                /* \"#utility.yul\":12704:13123   */\n              swap2\n              swap1\n              pop\n              jump\t// out\n                /* \"#utility.yul\":13129:13351   */\n            tag_315:\n                /* \"#utility.yul\":13269:13303   */\n              0x596f752068617665207265706f7274656420746869732073746f727920626566\n                /* \"#utility.yul\":13265:13266   */\n              0x00\n                /* \"#utility.yul\":13257:13263   */\n              dup3\n                /* \"#utility.yul\":13253:13267   */\n              add\n                /* \"#utility.yul\":13246:13304   */\n              mstore\n                /* \"#utility.yul\":13338:13343   */\n              0x6f72650000000000000000000000000000000000000000000000000000000000\n                /* \"#utility.yul\":13333:13335   */\n              0x20\n                /* \"#utility.yul\":13325:13331   */\n              dup3\n                /* \"#utility.yul\":13321:13336   */\n              add\n                /* \"#utility.yul\":13314:13344   */\n              mstore\n                /* \"#utility.yul\":13129:13351   */\n              pop\n              jump\t// out\n                /* \"#utility.yul\":13357:13723   */\n            tag_316:\n                /* \"#utility.yul\":13499:13502   */\n              0x00\n                /* \"#utility.yul\":13520:13587   */\n              tag_484\n                /* \"#utility.yul\":13584:13586   */\n              0x23\n                /* \"#utility.yul\":13579:13582   */\n              dup4\n                /* \"#utility.yul\":13520:13587   */\n              tag_290\n              jump\t// in\n            tag_484:\n                /* \"#utility.yul\":13513:13587   */\n              swap2\n              pop\n                /* \"#utility.yul\":13596:13689   */\n              tag_485\n                /* \"#utility.yul\":13685:13688   */\n              dup3\n                /* \"#utility.yul\":13596:13689   */\n              tag_315\n              jump\t// in\n            tag_485:\n                /* \"#utility.yul\":13714:13716   */\n              0x40\n                /* \"#utility.yul\":13709:13712   */\n              dup3\n                /* \"#utility.yul\":13705:13717   */\n              add\n                /* \"#utility.yul\":13698:13717   */\n              swap1\n              pop\n                /* \"#utility.yul\":13357:13723   */\n              swap2\n              swap1\n              pop\n              jump\t// out\n                /* \"#utility.yul\":13729:14148   */\n            tag_98:\n                /* \"#utility.yul\":13895:13899   */\n              0x00\n                /* \"#utility.yul\":13933:13935   */\n              0x20\n                /* \"#utility.yul\":13922:13931   */\n              dup3\n                /* \"#utility.yul\":13918:13936   */\n              add\n                /* \"#utility.yul\":13910:13936   */\n              swap1\n              pop\n                /* \"#utility.yul\":13982:13991   */\n              dup2\n                /* \"#utility.yul\":13976:13980   */\n              dup2\n                /* \"#utility.yul\":13972:13992   */\n              sub\n                /* \"#utility.yul\":13968:13969   */\n              0x00\n                /* \"#utility.yul\":13957:13966   */\n              dup4\n                /* \"#utility.yul\":13953:13970   */\n              add\n                /* \"#utility.yul\":13946:13993   */\n              mstore\n                /* \"#utility.yul\":14010:14141   */\n              tag_487\n                /* \"#utility.yul\":14136:14140   */\n              dup2\n                /* \"#utility.yul\":14010:14141   */\n              tag_316\n              jump\t// in\n            tag_487:\n                /* \"#utility.yul\":14002:14141   */\n              swap1\n              pop\n                /* \"#utility.yul\":13729:14148   */\n              swap2\n              swap1\n              pop\n              jump\t// out\n                /* \"#utility.yul\":14154:14386   */\n            tag_317:\n                /* \"#utility.yul\":14294:14328   */\n              0x4f6e6c7920616e20616363657074656420617574686f722063616e2061707072\n                /* \"#utility.yul\":14290:14291   */\n              0x00\n                /* \"#utility.yul\":14282:14288   */\n              dup3\n                /* \"#utility.yul\":14278:14292   */\n              add\n                /* \"#utility.yul\":14271:14329   */\n              mstore\n                /* \"#utility.yul\":14363:14378   */\n              0x6f76652061207265717565737400000000000000000000000000000000000000\n                /* \"#utility.yul\":14358:14360   */\n              0x20\n                /* \"#utility.yul\":14350:14356   */\n              dup3\n                /* \"#utility.yul\":14346:14361   */\n              add\n                /* \"#utility.yul\":14339:14379   */\n              mstore\n                /* \"#utility.yul\":14154:14386   */\n              pop\n              jump\t// out\n                /* \"#utility.yul\":14392:14758   */\n            tag_318:\n                /* \"#utility.yul\":14534:14537   */\n              0x00\n                /* \"#utility.yul\":14555:14622   */\n              tag_490\n                /* \"#utility.yul\":14619:14621   */\n              0x2d\n                /* \"#utility.yul\":14614:14617   */\n              dup4\n                /* \"#utility.yul\":14555:14622   */\n              tag_290\n              jump\t// in\n            tag_490:\n                /* \"#utility.yul\":14548:14622   */\n              swap2\n              pop\n                /* \"#utility.yul\":14631:14724   */\n              tag_491\n                /* \"#utility.yul\":14720:14723   */\n              dup3\n                /* \"#utility.yul\":14631:14724   */\n              tag_317\n              jump\t// in\n            tag_491:\n                /* \"#utility.yul\":14749:14751   */\n              0x40\n                /* \"#utility.yul\":14744:14747   */\n              dup3\n                /* \"#utility.yul\":14740:14752   */\n              add\n                /* \"#utility.yul\":14733:14752   */\n              swap1\n              pop\n                /* \"#utility.yul\":14392:14758   */\n              swap2\n              swap1\n              pop\n              jump\t// out\n                /* \"#utility.yul\":14764:15183   */\n            tag_110:\n                /* \"#utility.yul\":14930:14934   */\n              0x00\n                /* \"#utility.yul\":14968:14970   */\n              0x20\n                /* \"#utility.yul\":14957:14966   */\n              dup3\n                /* \"#utility.yul\":14953:14971   */\n              add\n                /* \"#utility.yul\":14945:14971   */\n              swap1\n              pop\n                /* \"#utility.yul\":15017:15026   */\n              dup2\n                /* \"#utility.yul\":15011:15015   */\n              dup2\n                /* \"#utility.yul\":15007:15027   */\n              sub\n                /* \"#utility.yul\":15003:15004   */\n              0x00\n                /* \"#utility.yul\":14992:15001   */\n              dup4\n                /* \"#utility.yul\":14988:15005   */\n              add\n                /* \"#utility.yul\":14981:15028   */\n              mstore\n                /* \"#utility.yul\":15045:15176   */\n              tag_493\n                /* \"#utility.yul\":15171:15175   */\n              dup2\n                /* \"#utility.yul\":15045:15176   */\n              tag_318\n              jump\t// in\n            tag_493:\n                /* \"#utility.yul\":15037:15176   */\n              swap1\n              pop\n                /* \"#utility.yul\":14764:15183   */\n              swap2\n              swap1\n              pop\n              jump\t// out\n                /* \"#utility.yul\":15189:15358   */\n            tag_319:\n                /* \"#utility.yul\":15329:15350   */\n              0x496e646578206f7574206f6620626f756e647300000000000000000000000000\n                /* \"#utility.yul\":15325:15326   */\n              0x00\n                /* \"#utility.yul\":15317:15323   */\n              dup3\n                /* \"#utility.yul\":15313:15327   */\n              add\n                /* \"#utility.yul\":15306:15351   */\n              mstore\n                /* \"#utility.yul\":15189:15358   */\n              pop\n              jump\t// out\n                /* \"#utility.yul\":15364:15730   */\n            tag_320:\n                /* \"#utility.yul\":15506:15509   */\n              0x00\n                /* \"#utility.yul\":15527:15594   */\n              tag_496\n                /* \"#utility.yul\":15591:15593   */\n              0x13\n                /* \"#utility.yul\":15586:15589   */\n              dup4\n                /* \"#utility.yul\":15527:15594   */\n              tag_290\n              jump\t// in\n            tag_496:\n                /* \"#utility.yul\":15520:15594   */\n              swap2\n              pop\n                /* \"#utility.yul\":15603:15696   */\n              tag_497\n                /* \"#utility.yul\":15692:15695   */\n              dup3\n                /* \"#utility.yul\":15603:15696   */\n              tag_319\n              jump\t// in\n            tag_497:\n                /* \"#utility.yul\":15721:15723   */\n              0x20\n                /* \"#utility.yul\":15716:15719   */\n              dup3\n                /* \"#utility.yul\":15712:15724   */\n              add\n                /* \"#utility.yul\":15705:15724   */\n              swap1\n              pop\n                /* \"#utility.yul\":15364:15730   */\n              swap2\n              swap1\n              pop\n              jump\t// out\n                /* \"#utility.yul\":15736:16155   */\n            tag_114:\n                /* \"#utility.yul\":15902:15906   */\n              0x00\n                /* \"#utility.yul\":15940:15942   */\n              0x20\n                /* \"#utility.yul\":15929:15938   */\n              dup3\n                /* \"#utility.yul\":15925:15943   */\n              add\n                /* \"#utility.yul\":15917:15943   */\n              swap1\n              pop\n                /* \"#utility.yul\":15989:15998   */\n              dup2\n                /* \"#utility.yul\":15983:15987   */\n              dup2\n                /* \"#utility.yul\":15979:15999   */\n              sub\n                /* \"#utility.yul\":15975:15976   */\n              0x00\n                /* \"#utility.yul\":15964:15973   */\n              dup4\n                /* \"#utility.yul\":15960:15977   */\n              add\n                /* \"#utility.yul\":15953:16000   */\n              mstore\n                /* \"#utility.yul\":16017:16148   */\n              tag_499\n                /* \"#utility.yul\":16143:16147   */\n              dup2\n                /* \"#utility.yul\":16017:16148   */\n              tag_320\n              jump\t// in\n            tag_499:\n                /* \"#utility.yul\":16009:16148   */\n              swap1\n              pop\n                /* \"#utility.yul\":15736:16155   */\n              swap2\n              swap1\n              pop\n              jump\t// out\n                /* \"#utility.yul\":16161:16341   */\n            tag_117:\n                /* \"#utility.yul\":16209:16286   */\n              0x4e487b7100000000000000000000000000000000000000000000000000000000\n                /* \"#utility.yul\":16206:16207   */\n              0x00\n                /* \"#utility.yul\":16199:16287   */\n              mstore\n                /* \"#utility.yul\":16306:16310   */\n              0x32\n                /* \"#utility.yul\":16303:16304   */\n              0x04\n                /* \"#utility.yul\":16296:16311   */\n              mstore\n                /* \"#utility.yul\":16330:16334   */\n              0x24\n                /* \"#utility.yul\":16327:16328   */\n              0x00\n                /* \"#utility.yul\":16320:16335   */\n              revert\n                /* \"#utility.yul\":16347:16527   */\n            tag_321:\n                /* \"#utility.yul\":16395:16472   */\n              0x4e487b7100000000000000000000000000000000000000000000000000000000\n                /* \"#utility.yul\":16392:16393   */\n              0x00\n                /* \"#utility.yul\":16385:16473   */\n              mstore\n                /* \"#utility.yul\":16492:16496   */\n              0x22\n                /* \"#utility.yul\":16489:16490   */\n              0x04\n                /* \"#utility.yul\":16482:16497   */\n              mstore\n                /* \"#utility.yul\":16516:16520   */\n              0x24\n                /* \"#utility.yul\":16513:16514   */\n              0x00\n                /* \"#utility.yul\":16506:16521   */\n              revert\n                /* \"#utility.yul\":16533:16853   */\n            tag_158:\n                /* \"#utility.yul\":16577:16583   */\n              0x00\n                /* \"#utility.yul\":16614:16615   */\n              0x02\n                /* \"#utility.yul\":16608:16612   */\n              dup3\n                /* \"#utility.yul\":16604:16616   */\n              div\n                /* \"#utility.yul\":16594:16616   */\n              swap1\n              pop\n                /* \"#utility.yul\":16661:16662   */\n              0x01\n                /* \"#utility.yul\":16655:16659   */\n              dup3\n                /* \"#utility.yul\":16651:16663   */\n              and\n                /* \"#utility.yul\":16682:16700   */\n              dup1\n                /* \"#utility.yul\":16672:16753   */\n              tag_503\n              jumpi\n                /* \"#utility.yul\":16738:16742   */\n              0x7f\n                /* \"#utility.yul\":16730:16736   */\n              dup3\n                /* \"#utility.yul\":16726:16743   */\n              and\n                /* \"#utility.yul\":16716:16743   */\n              swap2\n              pop\n                /* \"#utility.yul\":16672:16753   */\n            tag_503:\n                /* \"#utility.yul\":16800:16802   */\n              0x20\n                /* \"#utility.yul\":16792:16798   */\n              dup3\n                /* \"#utility.yul\":16789:16803   */\n              lt\n                /* \"#utility.yul\":16769:16787   */\n              dup2\n                /* \"#utility.yul\":16766:16804   */\n              eq\n                /* \"#utility.yul\":16763:16847   */\n              iszero\n              tag_504\n              jumpi\n                /* \"#utility.yul\":16819:16837   */\n              tag_505\n              tag_321\n              jump\t// in\n            tag_505:\n                /* \"#utility.yul\":16763:16847   */\n            tag_504:\n                /* \"#utility.yul\":16584:16853   */\n              pop\n                /* \"#utility.yul\":16533:16853   */\n              swap2\n              swap1\n              pop\n              jump\t// out\n                /* \"#utility.yul\":16859:17000   */\n            tag_322:\n                /* \"#utility.yul\":16908:16912   */\n              0x00\n                /* \"#utility.yul\":16931:16934   */\n              dup2\n                /* \"#utility.yul\":16923:16934   */\n              swap1\n              pop\n                /* \"#utility.yul\":16954:16957   */\n              dup2\n                /* \"#utility.yul\":16951:16952   */\n              0x00\n                /* \"#utility.yul\":16944:16958   */\n              mstore\n                /* \"#utility.yul\":16988:16992   */\n              0x20\n                /* \"#utility.yul\":16985:16986   */\n              0x00\n                /* \"#utility.yul\":16975:16993   */\n              keccak256\n                /* \"#utility.yul\":16967:16993   */\n              swap1\n              pop\n                /* \"#utility.yul\":16859:17000   */\n              swap2\n              swap1\n              pop\n              jump\t// out\n                /* \"#utility.yul\":17030:17832   */\n            tag_323:\n                /* \"#utility.yul\":17115:17118   */\n              0x00\n                /* \"#utility.yul\":17152:17157   */\n              dup2\n                /* \"#utility.yul\":17146:17158   */\n              sload\n                /* \"#utility.yul\":17181:17217   */\n              tag_508\n                /* \"#utility.yul\":17207:17216   */\n              dup2\n                /* \"#utility.yul\":17181:17217   */\n              tag_158\n              jump\t// in\n            tag_508:\n                /* \"#utility.yul\":17233:17304   */\n              tag_509\n                /* \"#utility.yul\":17297:17303   */\n              dup2\n                /* \"#utility.yul\":17292:17295   */\n              dup7\n                /* \"#utility.yul\":17233:17304   */\n              tag_290\n              jump\t// in\n            tag_509:\n                /* \"#utility.yul\":17226:17304   */\n              swap5\n              pop\n                /* \"#utility.yul\":17335:17336   */\n              0x01\n                /* \"#utility.yul\":17324:17333   */\n              dup3\n                /* \"#utility.yul\":17320:17337   */\n              and\n                /* \"#utility.yul\":17351:17352   */\n              0x00\n                /* \"#utility.yul\":17346:17481   */\n              dup2\n              eq\n              tag_511\n              jumpi\n                /* \"#utility.yul\":17495:17496   */\n              0x01\n                /* \"#utility.yul\":17490:17826   */\n              dup2\n              eq\n              tag_512\n              jumpi\n                /* \"#utility.yul\":17313:17826   */\n              jump(tag_510)\n                /* \"#utility.yul\":17346:17481   */\n            tag_511:\n                /* \"#utility.yul\":17430:17434   */\n              0xff\n                /* \"#utility.yul\":17426:17435   */\n              not\n                /* \"#utility.yul\":17415:17424   */\n              dup4\n                /* \"#utility.yul\":17411:17436   */\n              and\n                /* \"#utility.yul\":17406:17409   */\n              dup7\n                /* \"#utility.yul\":17399:17437   */\n              mstore\n                /* \"#utility.yul\":17466:17470   */\n              0x20\n                /* \"#utility.yul\":17461:17464   */\n              dup7\n                /* \"#utility.yul\":17457:17471   */\n              add\n                /* \"#utility.yul\":17450:17471   */\n              swap4\n              pop\n                /* \"#utility.yul\":17346:17481   */\n              jump(tag_510)\n                /* \"#utility.yul\":17490:17826   */\n            tag_512:\n                /* \"#utility.yul\":17557:17595   */\n              tag_513\n                /* \"#utility.yul\":17589:17594   */\n              dup6\n                /* \"#utility.yul\":17557:17595   */\n              tag_322\n              jump\t// in\n            tag_513:\n                /* \"#utility.yul\":17617:17618   */\n              0x00\n                /* \"#utility.yul\":17631:17785   */\n            tag_514:\n                /* \"#utility.yul\":17645:17651   */\n              dup4\n                /* \"#utility.yul\":17642:17643   */\n              dup2\n                /* \"#utility.yul\":17639:17652   */\n              lt\n                /* \"#utility.yul\":17631:17785   */\n              iszero\n              tag_516\n              jumpi\n                /* \"#utility.yul\":17719:17726   */\n              dup2\n                /* \"#utility.yul\":17713:17727   */\n              sload\n                /* \"#utility.yul\":17709:17710   */\n              dup2\n                /* \"#utility.yul\":17704:17707   */\n              dup10\n                /* \"#utility.yul\":17700:17711   */\n              add\n                /* \"#utility.yul\":17693:17728   */\n              mstore\n                /* \"#utility.yul\":17769:17770   */\n              0x01\n                /* \"#utility.yul\":17760:17767   */\n              dup3\n                /* \"#utility.yul\":17756:17771   */\n              add\n                /* \"#utility.yul\":17745:17771   */\n              swap2\n              pop\n                /* \"#utility.yul\":17667:17671   */\n              0x20\n                /* \"#utility.yul\":17664:17665   */\n              dup2\n                /* \"#utility.yul\":17660:17672   */\n              add\n                /* \"#utility.yul\":17655:17672   */\n              swap1\n              pop\n                /* \"#utility.yul\":17631:17785   */\n              jump(tag_514)\n            tag_516:\n                /* \"#utility.yul\":17814:17815   */\n              dup1\n                /* \"#utility.yul\":17809:17812   */\n              dup9\n                /* \"#utility.yul\":17805:17816   */\n              add\n                /* \"#utility.yul\":17798:17816   */\n              swap6\n              pop\n                /* \"#utility.yul\":17497:17826   */\n              pop\n              pop\n                /* \"#utility.yul\":17313:17826   */\n            tag_510:\n              pop\n                /* \"#utility.yul\":17119:17832   */\n              pop\n              pop\n                /* \"#utility.yul\":17030:17832   */\n              swap3\n              swap2\n              pop\n              pop\n              jump\t// out\n                /* \"#utility.yul\":17838:18587   */\n            tag_124:\n                /* \"#utility.yul\":18060:18064   */\n              0x00\n                /* \"#utility.yul\":18098:18101   */\n              0xa0\n                /* \"#utility.yul\":18087:18096   */\n              dup3\n                /* \"#utility.yul\":18083:18102   */\n              add\n                /* \"#utility.yul\":18075:18102   */\n              swap1\n              pop\n                /* \"#utility.yul\":18112:18183   */\n              tag_518\n                /* \"#utility.yul\":18180:18181   */\n              0x00\n                /* \"#utility.yul\":18169:18178   */\n              dup4\n                /* \"#utility.yul\":18165:18182   */\n              add\n                /* \"#utility.yul\":18156:18162   */\n              dup9\n                /* \"#utility.yul\":18112:18183   */\n              tag_288\n              jump\t// in\n            tag_518:\n                /* \"#utility.yul\":18193:18265   */\n              tag_519\n                /* \"#utility.yul\":18261:18263   */\n              0x20\n                /* \"#utility.yul\":18250:18259   */\n              dup4\n                /* \"#utility.yul\":18246:18264   */\n              add\n                /* \"#utility.yul\":18237:18243   */\n              dup8\n                /* \"#utility.yul\":18193:18265   */\n              tag_288\n              jump\t// in\n            tag_519:\n                /* \"#utility.yul\":18312:18321   */\n              dup2\n                /* \"#utility.yul\":18306:18310   */\n              dup2\n                /* \"#utility.yul\":18302:18322   */\n              sub\n                /* \"#utility.yul\":18297:18299   */\n              0x40\n                /* \"#utility.yul\":18286:18295   */\n              dup4\n                /* \"#utility.yul\":18282:18300   */\n              add\n                /* \"#utility.yul\":18275:18323   */\n              mstore\n                /* \"#utility.yul\":18340:18415   */\n              tag_520\n                /* \"#utility.yul\":18410:18414   */\n              dup2\n                /* \"#utility.yul\":18401:18407   */\n              dup7\n                /* \"#utility.yul\":18340:18415   */\n              tag_323\n              jump\t// in\n            tag_520:\n                /* \"#utility.yul\":18332:18415   */\n              swap1\n              pop\n                /* \"#utility.yul\":18425:18497   */\n              tag_521\n                /* \"#utility.yul\":18493:18495   */\n              0x60\n                /* \"#utility.yul\":18482:18491   */\n              dup4\n                /* \"#utility.yul\":18478:18496   */\n              add\n                /* \"#utility.yul\":18469:18475   */\n              dup6\n                /* \"#utility.yul\":18425:18497   */\n              tag_288\n              jump\t// in\n            tag_521:\n                /* \"#utility.yul\":18507:18580   */\n              tag_522\n                /* \"#utility.yul\":18575:18578   */\n              0x80\n                /* \"#utility.yul\":18564:18573   */\n              dup4\n                /* \"#utility.yul\":18560:18579   */\n              add\n                /* \"#utility.yul\":18551:18557   */\n              dup5\n                /* \"#utility.yul\":18507:18580   */\n              tag_288\n              jump\t// in\n            tag_522:\n                /* \"#utility.yul\":17838:18587   */\n              swap7\n              swap6\n              pop\n              pop\n              pop\n              pop\n              pop\n              pop\n              jump\t// out\n                /* \"#utility.yul\":18593:18826   */\n            tag_324:\n                /* \"#utility.yul\":18733:18767   */\n              0x4f6e6c7920616e20617574686f72697a656420617574686f722063616e206469\n                /* \"#utility.yul\":18729:18730   */\n              0x00\n                /* \"#utility.yul\":18721:18727   */\n              dup3\n                /* \"#utility.yul\":18717:18731   */\n              add\n                /* \"#utility.yul\":18710:18768   */\n              mstore\n                /* \"#utility.yul\":18802:18818   */\n              0x7370656e73652072657761726473000000000000000000000000000000000000\n                /* \"#utility.yul\":18797:18799   */\n              0x20\n                /* \"#utility.yul\":18789:18795   */\n              dup3\n                /* \"#utility.yul\":18785:18800   */\n              add\n                /* \"#utility.yul\":18778:18819   */\n              mstore\n                /* \"#utility.yul\":18593:18826   */\n              pop\n              jump\t// out\n                /* \"#utility.yul\":18832:19198   */\n            tag_325:\n                /* \"#utility.yul\":18974:18977   */\n              0x00\n                /* \"#utility.yul\":18995:19062   */\n              tag_525\n                /* \"#utility.yul\":19059:19061   */\n              0x2e\n                /* \"#utility.yul\":19054:19057   */\n              dup4\n                /* \"#utility.yul\":18995:19062   */\n              tag_290\n              jump\t// in\n            tag_525:\n                /* \"#utility.yul\":18988:19062   */\n              swap2\n              pop\n                /* \"#utility.yul\":19071:19164   */\n              tag_526\n                /* \"#utility.yul\":19160:19163   */\n              dup3\n                /* \"#utility.yul\":19071:19164   */\n              tag_324\n              jump\t// in\n            tag_526:\n                /* \"#utility.yul\":19189:19191   */\n              0x40\n                /* \"#utility.yul\":19184:19187   */\n              dup3\n                /* \"#utility.yul\":19180:19192   */\n              add\n                /* \"#utility.yul\":19173:19192   */\n              swap1\n              pop\n                /* \"#utility.yul\":18832:19198   */\n              swap2\n              swap1\n              pop\n              jump\t// out\n                /* \"#utility.yul\":19204:19623   */\n            tag_140:\n                /* \"#utility.yul\":19370:19374   */\n              0x00\n                /* \"#utility.yul\":19408:19410   */\n              0x20\n                /* \"#utility.yul\":19397:19406   */\n              dup3\n                /* \"#utility.yul\":19393:19411   */\n              add\n                /* \"#utility.yul\":19385:19411   */\n              swap1\n              pop\n                /* \"#utility.yul\":19457:19466   */\n              dup2\n                /* \"#utility.yul\":19451:19455   */\n              dup2\n                /* \"#utility.yul\":19447:19467   */\n              sub\n                /* \"#utility.yul\":19443:19444   */\n              0x00\n                /* \"#utility.yul\":19432:19441   */\n              dup4\n                /* \"#utility.yul\":19428:19445   */\n              add\n                /* \"#utility.yul\":19421:19468   */\n              mstore\n                /* \"#utility.yul\":19485:19616   */\n              tag_528\n                /* \"#utility.yul\":19611:19615   */\n              dup2\n                /* \"#utility.yul\":19485:19616   */\n              tag_325\n              jump\t// in\n            tag_528:\n                /* \"#utility.yul\":19477:19616   */\n              swap1\n              pop\n                /* \"#utility.yul\":19204:19623   */\n              swap2\n              swap1\n              pop\n              jump\t// out\n                /* \"#utility.yul\":19629:19800   */\n            tag_326:\n                /* \"#utility.yul\":19769:19792   */\n              0x4e6f2072657761726420746f2064697370656e73650000000000000000000000\n                /* \"#utility.yul\":19765:19766   */\n              0x00\n                /* \"#utility.yul\":19757:19763   */\n              dup3\n                /* \"#utility.yul\":19753:19767   */\n              add\n                /* \"#utility.yul\":19746:19793   */\n              mstore\n                /* \"#utility.yul\":19629:19800   */\n              pop\n              jump\t// out\n                /* \"#utility.yul\":19806:20172   */\n            tag_327:\n                /* \"#utility.yul\":19948:19951   */\n              0x00\n                /* \"#utility.yul\":19969:20036   */\n              tag_531\n                /* \"#utility.yul\":20033:20035   */\n              0x15\n                /* \"#utility.yul\":20028:20031   */\n              dup4\n                /* \"#utility.yul\":19969:20036   */\n              tag_290\n              jump\t// in\n            tag_531:\n                /* \"#utility.yul\":19962:20036   */\n              swap2\n              pop\n                /* \"#utility.yul\":20045:20138   */\n              tag_532\n                /* \"#utility.yul\":20134:20137   */\n              dup3\n                /* \"#utility.yul\":20045:20138   */\n              tag_326\n              jump\t// in\n            tag_532:\n                /* \"#utility.yul\":20163:20165   */\n              0x20\n                /* \"#utility.yul\":20158:20161   */\n              dup3\n                /* \"#utility.yul\":20154:20166   */\n              add\n                /* \"#utility.yul\":20147:20166   */\n              swap1\n              pop\n                /* \"#utility.yul\":19806:20172   */\n              swap2\n              swap1\n              pop\n              jump\t// out\n                /* \"#utility.yul\":20178:20597   */\n            tag_145:\n                /* \"#utility.yul\":20344:20348   */\n              0x00\n                /* \"#utility.yul\":20382:20384   */\n              0x20\n                /* \"#utility.yul\":20371:20380   */\n              dup3\n                /* \"#utility.yul\":20367:20385   */\n              add\n                /* \"#utility.yul\":20359:20385   */\n              swap1\n              pop\n                /* \"#utility.yul\":20431:20440   */\n              dup2\n                /* \"#utility.yul\":20425:20429   */\n              dup2\n                /* \"#utility.yul\":20421:20441   */\n              sub\n                /* \"#utility.yul\":20417:20418   */\n              0x00\n                /* \"#utility.yul\":20406:20415   */\n              dup4\n                /* \"#utility.yul\":20402:20419   */\n              add\n                /* \"#utility.yul\":20395:20442   */\n              mstore\n                /* \"#utility.yul\":20459:20590   */\n              tag_534\n                /* \"#utility.yul\":20585:20589   */\n              dup2\n                /* \"#utility.yul\":20459:20590   */\n              tag_327\n              jump\t// in\n            tag_534:\n                /* \"#utility.yul\":20451:20590   */\n              swap1\n              pop\n                /* \"#utility.yul\":20178:20597   */\n              swap2\n              swap1\n              pop\n              jump\t// out\n                /* \"#utility.yul\":20603:20783   */\n            tag_328:\n                /* \"#utility.yul\":20651:20728   */\n              0x4e487b7100000000000000000000000000000000000000000000000000000000\n                /* \"#utility.yul\":20648:20649   */\n              0x00\n                /* \"#utility.yul\":20641:20729   */\n              mstore\n                /* \"#utility.yul\":20748:20752   */\n              0x11\n                /* \"#utility.yul\":20745:20746   */\n              0x04\n                /* \"#utility.yul\":20738:20753   */\n              mstore\n                /* \"#utility.yul\":20772:20776   */\n              0x24\n                /* \"#utility.yul\":20769:20770   */\n              0x00\n                /* \"#utility.yul\":20762:20777   */\n              revert\n                /* \"#utility.yul\":20789:21022   */\n            tag_155:\n                /* \"#utility.yul\":20828:20831   */\n              0x00\n                /* \"#utility.yul\":20851:20875   */\n              tag_537\n                /* \"#utility.yul\":20869:20874   */\n              dup3\n                /* \"#utility.yul\":20851:20875   */\n              tag_279\n              jump\t// in\n            tag_537:\n                /* \"#utility.yul\":20842:20875   */\n              swap2\n              pop\n                /* \"#utility.yul\":20897:20963   */\n              0xffffffffffffffffffffffffffffffffffffffffffffffffffffffffffffffff\n                /* \"#utility.yul\":20890:20895   */\n              dup3\n                /* \"#utility.yul\":20887:20964   */\n              eq\n                /* \"#utility.yul\":20884:20987   */\n              iszero\n              tag_538\n              jumpi\n                /* \"#utility.yul\":20967:20985   */\n              tag_539\n              tag_328\n              jump\t// in\n            tag_539:\n                /* \"#utility.yul\":20884:20987   */\n            tag_538:\n                /* \"#utility.yul\":21014:21015   */\n              0x01\n                /* \"#utility.yul\":21007:21012   */\n              dup3\n                /* \"#utility.yul\":21003:21016   */\n              add\n                /* \"#utility.yul\":20996:21016   */\n              swap1\n              pop\n                /* \"#utility.yul\":20789:21022   */\n              swap2\n              swap1\n              pop\n              jump\t// out\n                /* \"#utility.yul\":21028:21250   */\n            tag_329:\n                /* \"#utility.yul\":21168:21202   */\n              0x5468697320617574686f7220616c726561647920617070726f76656420626566\n                /* \"#utility.yul\":21164:21165   */\n              0x00\n                /* \"#utility.yul\":21156:21162   */\n              dup3\n                /* \"#utility.yul\":21152:21166   */\n              add\n                /* \"#utility.yul\":21145:21203   */\n              mstore\n                /* \"#utility.yul\":21237:21242   */\n              0x6f72650000000000000000000000000000000000000000000000000000000000\n                /* \"#utility.yul\":21232:21234   */\n              0x20\n                /* \"#utility.yul\":21224:21230   */\n              dup3\n                /* \"#utility.yul\":21220:21235   */\n              add\n                /* \"#utility.yul\":21213:21243   */\n              mstore\n                /* \"#utility.yul\":21028:21250   */\n              pop\n              jump\t// out\n                /* \"#utility.yul\":21256:21622   */\n            tag_330:\n                /* \"#utility.yul\":21398:21401   */\n              0x00\n                /* \"#utility.yul\":21419:21486   */\n              tag_542\n                /* \"#utility.yul\":21483:21485   */\n              0x23\n                /* \"#utility.yul\":21478:21481   */\n              dup4\n                /* \"#utility.yul\":21419:21486   */\n              tag_290\n              jump\t// in\n            tag_542:\n                /* \"#utility.yul\":21412:21486   */\n              swap2\n              pop\n                /* \"#utility.yul\":21495:21588   */\n              tag_543\n                /* \"#utility.yul\":21584:21587   */\n              dup3\n                /* \"#utility.yul\":21495:21588   */\n              tag_329\n              jump\t// in\n            tag_543:\n                /* \"#utility.yul\":21613:21615   */\n              0x40\n                /* \"#utility.yul\":21608:21611   */\n              dup3\n                /* \"#utility.yul\":21604:21616   */\n              add\n                /* \"#utility.yul\":21597:21616   */\n              swap1\n              pop\n                /* \"#utility.yul\":21256:21622   */\n              swap2\n              swap1\n              pop\n              jump\t// out\n                /* \"#utility.yul\":21628:22047   */\n            tag_191:\n                /* \"#utility.yul\":21794:21798   */\n              0x00\n                /* \"#utility.yul\":21832:21834   */\n              0x20\n                /* \"#utility.yul\":21821:21830   */\n              dup3\n                /* \"#utility.yul\":21817:21835   */\n              add\n                /* \"#utility.yul\":21809:21835   */\n              swap1\n              pop\n                /* \"#utility.yul\":21881:21890   */\n              dup2\n                /* \"#utility.yul\":21875:21879   */\n              dup2\n                /* \"#utility.yul\":21871:21891   */\n              sub\n                /* \"#utility.yul\":21867:21868   */\n              0x00\n                /* \"#utility.yul\":21856:21865   */\n              dup4\n                /* \"#utility.yul\":21852:21869   */\n              add\n                /* \"#utility.yul\":21845:21892   */\n              mstore\n                /* \"#utility.yul\":21909:22040   */\n              tag_545\n                /* \"#utility.yul\":22035:22039   */\n              dup2\n                /* \"#utility.yul\":21909:22040   */\n              tag_330\n              jump\t// in\n            tag_545:\n                /* \"#utility.yul\":21901:22040   */\n              swap1\n              pop\n                /* \"#utility.yul\":21628:22047   */\n              swap2\n              swap1\n              pop\n              jump\t// out\n                /* \"#utility.yul\":22053:22290   */\n            tag_331:\n                /* \"#utility.yul\":22193:22227   */\n              0x4f6e6c7920616e20616363657074656420617574686f722063616e2061747465\n                /* \"#utility.yul\":22189:22190   */\n              0x00\n                /* \"#utility.yul\":22181:22187   */\n              dup3\n                /* \"#utility.yul\":22177:22191   */\n              add\n                /* \"#utility.yul\":22170:22228   */\n              mstore\n                /* \"#utility.yul\":22262:22282   */\n              0x6d707420746f2061646420636861707465720000000000000000000000000000\n                /* \"#utility.yul\":22257:22259   */\n              0x20\n                /* \"#utility.yul\":22249:22255   */\n              dup3\n                /* \"#utility.yul\":22245:22260   */\n              add\n                /* \"#utility.yul\":22238:22283   */\n              mstore\n                /* \"#utility.yul\":22053:22290   */\n              pop\n              jump\t// out\n                /* \"#utility.yul\":22296:22662   */\n            tag_332:\n                /* \"#utility.yul\":22438:22441   */\n              0x00\n                /* \"#utility.yul\":22459:22526   */\n              tag_548\n                /* \"#utility.yul\":22523:22525   */\n              0x32\n                /* \"#utility.yul\":22518:22521   */\n              dup4\n                /* \"#utility.yul\":22459:22526   */\n              tag_290\n              jump\t// in\n            tag_548:\n                /* \"#utility.yul\":22452:22526   */\n              swap2\n              pop\n                /* \"#utility.yul\":22535:22628   */\n              tag_549\n                /* \"#utility.yul\":22624:22627   */\n              dup3\n                /* \"#utility.yul\":22535:22628   */\n              tag_331\n              jump\t// in\n            tag_549:\n                /* \"#utility.yul\":22653:22655   */\n              0x40\n                /* \"#utility.yul\":22648:22651   */\n              dup3\n                /* \"#utility.yul\":22644:22656   */\n              add\n                /* \"#utility.yul\":22637:22656   */\n              swap1\n              pop\n                /* \"#utility.yul\":22296:22662   */\n              swap2\n              swap1\n              pop\n              jump\t// out\n                /* \"#utility.yul\":22668:23087   */\n            tag_210:\n                /* \"#utility.yul\":22834:22838   */\n              0x00\n                /* \"#utility.yul\":22872:22874   */\n              0x20\n                /* \"#utility.yul\":22861:22870   */\n              dup3\n                /* \"#utility.yul\":22857:22875   */\n              add\n                /* \"#utility.yul\":22849:22875   */\n              swap1\n              pop\n                /* \"#utility.yul\":22921:22930   */\n              dup2\n                /* \"#utility.yul\":22915:22919   */\n              dup2\n                /* \"#utility.yul\":22911:22931   */\n              sub\n                /* \"#utility.yul\":22907:22908   */\n              0x00\n                /* \"#utility.yul\":22896:22905   */\n              dup4\n                /* \"#utility.yul\":22892:22909   */\n              add\n                /* \"#utility.yul\":22885:22932   */\n              mstore\n                /* \"#utility.yul\":22949:23080   */\n              tag_551\n                /* \"#utility.yul\":23075:23079   */\n              dup2\n                /* \"#utility.yul\":22949:23080   */\n              tag_332\n              jump\t// in\n            tag_551:\n                /* \"#utility.yul\":22941:23080   */\n              swap1\n              pop\n                /* \"#utility.yul\":22668:23087   */\n              swap2\n              swap1\n              pop\n              jump\t// out\n                /* \"#utility.yul\":23093:23313   */\n            tag_333:\n                /* \"#utility.yul\":23233:23267   */\n              0x506172656e742063686170746572206d757374206265206120636f6e74726163\n                /* \"#utility.yul\":23229:23230   */\n              0x00\n                /* \"#utility.yul\":23221:23227   */\n              dup3\n                /* \"#utility.yul\":23217:23231   */\n              add\n                /* \"#utility.yul\":23210:23268   */\n              mstore\n                /* \"#utility.yul\":23302:23305   */\n              0x7400000000000000000000000000000000000000000000000000000000000000\n                /* \"#utility.yul\":23297:23299   */\n              0x20\n                /* \"#utility.yul\":23289:23295   */\n              dup3\n                /* \"#utility.yul\":23285:23300   */\n              add\n                /* \"#utility.yul\":23278:23306   */\n              mstore\n                /* \"#utility.yul\":23093:23313   */\n              pop\n              jump\t// out\n                /* \"#utility.yul\":23319:23685   */\n            tag_334:\n                /* \"#utility.yul\":23461:23464   */\n              0x00\n                /* \"#utility.yul\":23482:23549   */\n              tag_554\n                /* \"#utility.yul\":23546:23548   */\n              0x21\n                /* \"#utility.yul\":23541:23544   */\n              dup4\n                /* \"#utility.yul\":23482:23549   */\n              tag_290\n              jump\t// in\n            tag_554:\n                /* \"#utility.yul\":23475:23549   */\n              swap2\n              pop\n                /* \"#utility.yul\":23558:23651   */\n              tag_555\n                /* \"#utility.yul\":23647:23650   */\n              dup3\n                /* \"#utility.yul\":23558:23651   */\n              tag_333\n              jump\t// in\n            tag_555:\n                /* \"#utility.yul\":23676:23678   */\n              0x40\n                /* \"#utility.yul\":23671:23674   */\n              dup3\n                /* \"#utility.yul\":23667:23679   */\n              add\n                /* \"#utility.yul\":23660:23679   */\n              swap1\n              pop\n                /* \"#utility.yul\":23319:23685   */\n              swap2\n              swap1\n              pop\n              jump\t// out\n                /* \"#utility.yul\":23691:24110   */\n            tag_215:\n                /* \"#utility.yul\":23857:23861   */\n              0x00\n                /* \"#utility.yul\":23895:23897   */\n              0x20\n                /* \"#utility.yul\":23884:23893   */\n              dup3\n                /* \"#utility.yul\":23880:23898   */\n              add\n                /* \"#utility.yul\":23872:23898   */\n              swap1\n              pop\n                /* \"#utility.yul\":23944:23953   */\n              dup2\n                /* \"#utility.yul\":23938:23942   */\n              dup2\n                /* \"#utility.yul\":23934:23954   */\n              sub\n                /* \"#utility.yul\":23930:23931   */\n              0x00\n                /* \"#utility.yul\":23919:23928   */\n              dup4\n                /* \"#utility.yul\":23915:23932   */\n              add\n                /* \"#utility.yul\":23908:23955   */\n              mstore\n                /* \"#utility.yul\":23972:24103   */\n              tag_557\n                /* \"#utility.yul\":24098:24102   */\n              dup2\n                /* \"#utility.yul\":23972:24103   */\n              tag_334\n              jump\t// in\n            tag_557:\n                /* \"#utility.yul\":23964:24103   */\n              swap1\n              pop\n                /* \"#utility.yul\":23691:24110   */\n              swap2\n              swap1\n              pop\n              jump\t// out\n                /* \"#utility.yul\":24116:24298   */\n            tag_335:\n                /* \"#utility.yul\":24256:24290   */\n              0x4368696c642063686170746572206d757374206265206120636f6e7472616374\n                /* \"#utility.yul\":24252:24253   */\n              0x00\n                /* \"#utility.yul\":24244:24250   */\n              dup3\n                /* \"#utility.yul\":24240:24254   */\n              add\n                /* \"#utility.yul\":24233:24291   */\n              mstore\n                /* \"#utility.yul\":24116:24298   */\n              pop\n              jump\t// out\n                /* \"#utility.yul\":24304:24670   */\n            tag_336:\n                /* \"#utility.yul\":24446:24449   */\n              0x00\n                /* \"#utility.yul\":24467:24534   */\n              tag_560\n                /* \"#utility.yul\":24531:24533   */\n              0x20\n                /* \"#utility.yul\":24526:24529   */\n              dup4\n                /* \"#utility.yul\":24467:24534   */\n              tag_290\n              jump\t// in\n            tag_560:\n                /* \"#utility.yul\":24460:24534   */\n              swap2\n              pop\n                /* \"#utility.yul\":24543:24636   */\n              tag_561\n                /* \"#utility.yul\":24632:24635   */\n              dup3\n                /* \"#utility.yul\":24543:24636   */\n              tag_335\n              jump\t// in\n            tag_561:\n                /* \"#utility.yul\":24661:24663   */\n              0x20\n                /* \"#utility.yul\":24656:24659   */\n              dup3\n                /* \"#utility.yul\":24652:24664   */\n              add\n                /* \"#utility.yul\":24645:24664   */\n              swap1\n              pop\n                /* \"#utility.yul\":24304:24670   */\n              swap2\n              swap1\n              pop\n              jump\t// out\n                /* \"#utility.yul\":24676:25095   */\n            tag_219:\n                /* \"#utility.yul\":24842:24846   */\n              0x00\n                /* \"#utility.yul\":24880:24882   */\n              0x20\n                /* \"#utility.yul\":24869:24878   */\n              dup3\n                /* \"#utility.yul\":24865:24883   */\n              add\n                /* \"#utility.yul\":24857:24883   */\n              swap1\n              pop\n                /* \"#utility.yul\":24929:24938   */\n              dup2\n                /* \"#utility.yul\":24923:24927   */\n              dup2\n                /* \"#utility.yul\":24919:24939   */\n              sub\n                /* \"#utility.yul\":24915:24916   */\n              0x00\n                /* \"#utility.yul\":24904:24913   */\n              dup4\n                /* \"#utility.yul\":24900:24917   */\n              add\n                /* \"#utility.yul\":24893:24940   */\n              mstore\n                /* \"#utility.yul\":24957:25088   */\n              tag_563\n                /* \"#utility.yul\":25083:25087   */\n              dup2\n                /* \"#utility.yul\":24957:25088   */\n              tag_336\n              jump\t// in\n            tag_563:\n                /* \"#utility.yul\":24949:25088   */\n              swap1\n              pop\n                /* \"#utility.yul\":24676:25095   */\n              swap2\n              swap1\n              pop\n              jump\t// out\n                /* \"#utility.yul\":25101:25332   */\n            tag_337:\n                /* \"#utility.yul\":25241:25275   */\n              0x506172656e742063686170746572206d7573742062656c6f6e6720746f207468\n                /* \"#utility.yul\":25237:25238   */\n              0x00\n                /* \"#utility.yul\":25229:25235   */\n              dup3\n                /* \"#utility.yul\":25225:25239   */\n              add\n                /* \"#utility.yul\":25218:25276   */\n              mstore\n                /* \"#utility.yul\":25310:25324   */\n              0x652073616d652073746f72790000000000000000000000000000000000000000\n                /* \"#utility.yul\":25305:25307   */\n              0x20\n                /* \"#utility.yul\":25297:25303   */\n              dup3\n                /* \"#utility.yul\":25293:25308   */\n              add\n                /* \"#utility.yul\":25286:25325   */\n              mstore\n                /* \"#utility.yul\":25101:25332   */\n              pop\n              jump\t// out\n                /* \"#utility.yul\":25338:25704   */\n            tag_338:\n                /* \"#utility.yul\":25480:25483   */\n              0x00\n                /* \"#utility.yul\":25501:25568   */\n              tag_566\n                /* \"#utility.yul\":25565:25567   */\n              0x2c\n                /* \"#utility.yul\":25560:25563   */\n              dup4\n                /* \"#utility.yul\":25501:25568   */\n              tag_290\n              jump\t// in\n            tag_566:\n                /* \"#utility.yul\":25494:25568   */\n              swap2\n              pop\n                /* \"#utility.yul\":25577:25670   */\n              tag_567\n                /* \"#utility.yul\":25666:25669   */\n              dup3\n                /* \"#utility.yul\":25577:25670   */\n              tag_337\n              jump\t// in\n            tag_567:\n                /* \"#utility.yul\":25695:25697   */\n              0x40\n                /* \"#utility.yul\":25690:25693   */\n              dup3\n                /* \"#utility.yul\":25686:25698   */\n              add\n                /* \"#utility.yul\":25679:25698   */\n              swap1\n              pop\n                /* \"#utility.yul\":25338:25704   */\n              swap2\n              swap1\n              pop\n              jump\t// out\n                /* \"#utility.yul\":25710:26129   */\n            tag_224:\n                /* \"#utility.yul\":25876:25880   */\n              0x00\n                /* \"#utility.yul\":25914:25916   */\n              0x20\n                /* \"#utility.yul\":25903:25912   */\n              dup3\n                /* \"#utility.yul\":25899:25917   */\n              add\n                /* \"#utility.yul\":25891:25917   */\n              swap1\n              pop\n                /* \"#utility.yul\":25963:25972   */\n              dup2\n                /* \"#utility.yul\":25957:25961   */\n              dup2\n                /* \"#utility.yul\":25953:25973   */\n              sub\n                /* \"#utility.yul\":25949:25950   */\n              0x00\n                /* \"#utility.yul\":25938:25947   */\n              dup4\n                /* \"#utility.yul\":25934:25951   */\n              add\n                /* \"#utility.yul\":25927:25974   */\n              mstore\n                /* \"#utility.yul\":25991:26122   */\n              tag_569\n                /* \"#utility.yul\":26117:26121   */\n              dup2\n                /* \"#utility.yul\":25991:26122   */\n              tag_338\n              jump\t// in\n            tag_569:\n                /* \"#utility.yul\":25983:26122   */\n              swap1\n              pop\n                /* \"#utility.yul\":25710:26129   */\n              swap2\n              swap1\n              pop\n              jump\t// out\n                /* \"#utility.yul\":26135:26365   */\n            tag_339:\n                /* \"#utility.yul\":26275:26309   */\n              0x4368696c642063686170746572206d7573742062656c6f6e6720746f20746865\n                /* \"#utility.yul\":26271:26272   */\n              0x00\n                /* \"#utility.yul\":26263:26269   */\n              dup3\n                /* \"#utility.yul\":26259:26273   */\n              add\n                /* \"#utility.yul\":26252:26310   */\n              mstore\n                /* \"#utility.yul\":26344:26357   */\n              0x2073616d652073746f7279000000000000000000000000000000000000000000\n                /* \"#utility.yul\":26339:26341   */\n              0x20\n                /* \"#utility.yul\":26331:26337   */\n              dup3\n                /* \"#utility.yul\":26327:26342   */\n              add\n                /* \"#utility.yul\":26320:26358   */\n              mstore\n                /* \"#utility.yul\":26135:26365   */\n              pop\n              jump\t// out\n                /* \"#utility.yul\":26371:26737   */\n            tag_340:\n                /* \"#utility.yul\":26513:26516   */\n              0x00\n                /* \"#utility.yul\":26534:26601   */\n              tag_572\n                /* \"#utility.yul\":26598:26600   */\n              0x2b\n                /* \"#utility.yul\":26593:26596   */\n              dup4\n                /* \"#utility.yul\":26534:26601   */\n              tag_290\n              jump\t// in\n            tag_572:\n                /* \"#utility.yul\":26527:26601   */\n              swap2\n              pop\n                /* \"#utility.yul\":26610:26703   */\n              tag_573\n                /* \"#utility.yul\":26699:26702   */\n              dup3\n                /* \"#utility.yul\":26610:26703   */\n              tag_339\n              jump\t// in\n            tag_573:\n                /* \"#utility.yul\":26728:26730   */\n              0x40\n                /* \"#utility.yul\":26723:26726   */\n              dup3\n                /* \"#utility.yul\":26719:26731   */\n              add\n                /* \"#utility.yul\":26712:26731   */\n              swap1\n              pop\n                /* \"#utility.yul\":26371:26737   */\n              swap2\n              swap1\n              pop\n              jump\t// out\n                /* \"#utility.yul\":26743:27162   */\n            tag_229:\n                /* \"#utility.yul\":26909:26913   */\n              0x00\n                /* \"#utility.yul\":26947:26949   */\n              0x20\n                /* \"#utility.yul\":26936:26945   */\n              dup3\n                /* \"#utility.yul\":26932:26950   */\n              add\n                /* \"#utility.yul\":26924:26950   */\n              swap1\n              pop\n                /* \"#utility.yul\":26996:27005   */\n              dup2\n                /* \"#utility.yul\":26990:26994   */\n              dup2\n                /* \"#utility.yul\":26986:27006   */\n              sub\n                /* \"#utility.yul\":26982:26983   */\n              0x00\n                /* \"#utility.yul\":26971:26980   */\n              dup4\n                /* \"#utility.yul\":26967:26984   */\n              add\n                /* \"#utility.yul\":26960:27007   */\n              mstore\n                /* \"#utility.yul\":27024:27155   */\n              tag_575\n                /* \"#utility.yul\":27150:27154   */\n              dup2\n                /* \"#utility.yul\":27024:27155   */\n              tag_340\n              jump\t// in\n            tag_575:\n                /* \"#utility.yul\":27016:27155   */\n              swap1\n              pop\n                /* \"#utility.yul\":26743:27162   */\n              swap2\n              swap1\n              pop\n              jump\t// out\n                /* \"#utility.yul\":27168:27349   */\n            tag_341:\n                /* \"#utility.yul\":27308:27341   */\n              0x4d696e696d756d20636f6e747269627574696f6e206973203130302057656900\n                /* \"#utility.yul\":27304:27305   */\n              0x00\n                /* \"#utility.yul\":27296:27302   */\n              dup3\n                /* \"#utility.yul\":27292:27306   */\n              add\n                /* \"#utility.yul\":27285:27342   */\n              mstore\n                /* \"#utility.yul\":27168:27349   */\n              pop\n              jump\t// out\n                /* \"#utility.yul\":27355:27721   */\n            tag_342:\n                /* \"#utility.yul\":27497:27500   */\n              0x00\n                /* \"#utility.yul\":27518:27585   */\n              tag_578\n                /* \"#utility.yul\":27582:27584   */\n              0x1f\n                /* \"#utility.yul\":27577:27580   */\n              dup4\n                /* \"#utility.yul\":27518:27585   */\n              tag_290\n              jump\t// in\n            tag_578:\n                /* \"#utility.yul\":27511:27585   */\n              swap2\n              pop\n                /* \"#utility.yul\":27594:27687   */\n              tag_579\n                /* \"#utility.yul\":27683:27686   */\n              dup3\n                /* \"#utility.yul\":27594:27687   */\n              tag_341\n              jump\t// in\n            tag_579:\n                /* \"#utility.yul\":27712:27714   */\n              0x20\n                /* \"#utility.yul\":27707:27710   */\n              dup3\n                /* \"#utility.yul\":27703:27715   */\n              add\n                /* \"#utility.yul\":27696:27715   */\n              swap1\n              pop\n                /* \"#utility.yul\":27355:27721   */\n              swap2\n              swap1\n              pop\n              jump\t// out\n                /* \"#utility.yul\":27727:28146   */\n            tag_239:\n                /* \"#utility.yul\":27893:27897   */\n              0x00\n                /* \"#utility.yul\":27931:27933   */\n              0x20\n                /* \"#utility.yul\":27920:27929   */\n              dup3\n                /* \"#utility.yul\":27916:27934   */\n              add\n                /* \"#utility.yul\":27908:27934   */\n              swap1\n              pop\n                /* \"#utility.yul\":27980:27989   */\n              dup2\n                /* \"#utility.yul\":27974:27978   */\n              dup2\n                /* \"#utility.yul\":27970:27990   */\n              sub\n                /* \"#utility.yul\":27966:27967   */\n              0x00\n                /* \"#utility.yul\":27955:27964   */\n              dup4\n                /* \"#utility.yul\":27951:27968   */\n              add\n                /* \"#utility.yul\":27944:27991   */\n              mstore\n                /* \"#utility.yul\":28008:28139   */\n              tag_581\n                /* \"#utility.yul\":28134:28138   */\n              dup2\n                /* \"#utility.yul\":28008:28139   */\n              tag_342\n              jump\t// in\n            tag_581:\n                /* \"#utility.yul\":28000:28139   */\n              swap1\n              pop\n                /* \"#utility.yul\":27727:28146   */\n              swap2\n              swap1\n              pop\n              jump\t// out\n                /* \"#utility.yul\":28152:28383   */\n            tag_343:\n                /* \"#utility.yul\":28292:28326   */\n              0x417574686f7220616c72656164792065786973747320696e20746865206c6973\n                /* \"#utility.yul\":28288:28289   */\n              0x00\n                /* \"#utility.yul\":28280:28286   */\n              dup3\n                /* \"#utility.yul\":28276:28290   */\n              add\n                /* \"#utility.yul\":28269:28327   */\n              mstore\n                /* \"#utility.yul\":28361:28375   */\n              0x74206f6620617574686f72730000000000000000000000000000000000000000\n                /* \"#utility.yul\":28356:28358   */\n              0x20\n                /* \"#utility.yul\":28348:28354   */\n              dup3\n                /* \"#utility.yul\":28344:28359   */\n              add\n                /* \"#utility.yul\":28337:28376   */\n              mstore\n                /* \"#utility.yul\":28152:28383   */\n              pop\n              jump\t// out\n                /* \"#utility.yul\":28389:28755   */\n            tag_344:\n                /* \"#utility.yul\":28531:28534   */\n              0x00\n                /* \"#utility.yul\":28552:28619   */\n              tag_584\n                /* \"#utility.yul\":28616:28618   */\n              0x2c\n                /* \"#utility.yul\":28611:28614   */\n              dup4\n                /* \"#utility.yul\":28552:28619   */\n              tag_290\n              jump\t// in\n            tag_584:\n                /* \"#utility.yul\":28545:28619   */\n              swap2\n              pop\n                /* \"#utility.yul\":28628:28721   */\n              tag_585\n                /* \"#utility.yul\":28717:28720   */\n              dup3\n                /* \"#utility.yul\":28628:28721   */\n              tag_343\n              jump\t// in\n            tag_585:\n                /* \"#utility.yul\":28746:28748   */\n              0x40\n                /* \"#utility.yul\":28741:28744   */\n              dup3\n                /* \"#utility.yul\":28737:28749   */\n              add\n                /* \"#utility.yul\":28730:28749   */\n              swap1\n              pop\n                /* \"#utility.yul\":28389:28755   */\n              swap2\n              swap1\n              pop\n              jump\t// out\n                /* \"#utility.yul\":28761:29180   */\n            tag_245:\n                /* \"#utility.yul\":28927:28931   */\n              0x00\n                /* \"#utility.yul\":28965:28967   */\n              0x20\n                /* \"#utility.yul\":28954:28963   */\n              dup3\n                /* \"#utility.yul\":28950:28968   */\n              add\n                /* \"#utility.yul\":28942:28968   */\n              swap1\n              pop\n                /* \"#utility.yul\":29014:29023   */\n              dup2\n                /* \"#utility.yul\":29008:29012   */\n              dup2\n                /* \"#utility.yul\":29004:29024   */\n              sub\n                /* \"#utility.yul\":29000:29001   */\n              0x00\n                /* \"#utility.yul\":28989:28998   */\n              dup4\n                /* \"#utility.yul\":28985:29002   */\n              add\n                /* \"#utility.yul\":28978:29025   */\n              mstore\n                /* \"#utility.yul\":29042:29173   */\n              tag_587\n                /* \"#utility.yul\":29168:29172   */\n              dup2\n                /* \"#utility.yul\":29042:29173   */\n              tag_344\n              jump\t// in\n            tag_587:\n                /* \"#utility.yul\":29034:29173   */\n              swap1\n              pop\n                /* \"#utility.yul\":28761:29180   */\n              swap2\n              swap1\n              pop\n              jump\t// out\n                /* \"#utility.yul\":29186:29491   */\n            tag_250:\n                /* \"#utility.yul\":29226:29229   */\n              0x00\n                /* \"#utility.yul\":29245:29265   */\n              tag_589\n                /* \"#utility.yul\":29263:29264   */\n              dup3\n                /* \"#utility.yul\":29245:29265   */\n              tag_279\n              jump\t// in\n            tag_589:\n                /* \"#utility.yul\":29240:29265   */\n              swap2\n              pop\n                /* \"#utility.yul\":29279:29299   */\n              tag_590\n                /* \"#utility.yul\":29297:29298   */\n              dup4\n                /* \"#utility.yul\":29279:29299   */\n              tag_279\n              jump\t// in\n            tag_590:\n                /* \"#utility.yul\":29274:29299   */\n              swap3\n              pop\n                /* \"#utility.yul\":29433:29434   */\n              dup3\n                /* \"#utility.yul\":29365:29431   */\n              0xffffffffffffffffffffffffffffffffffffffffffffffffffffffffffffffff\n                /* \"#utility.yul\":29361:29435   */\n              sub\n                /* \"#utility.yul\":29358:29359   */\n              dup3\n                /* \"#utility.yul\":29355:29436   */\n              gt\n                /* \"#utility.yul\":29352:29459   */\n              iszero\n              tag_591\n              jumpi\n                /* \"#utility.yul\":29439:29457   */\n              tag_592\n              tag_328\n              jump\t// in\n            tag_592:\n                /* \"#utility.yul\":29352:29459   */\n            tag_591:\n                /* \"#utility.yul\":29483:29484   */\n              dup3\n                /* \"#utility.yul\":29480:29481   */\n              dup3\n                /* \"#utility.yul\":29476:29485   */\n              add\n                /* \"#utility.yul\":29469:29485   */\n              swap1\n              pop\n                /* \"#utility.yul\":29186:29491   */\n              swap3\n              swap2\n              pop\n              pop\n              jump\t// out\n                /* \"#utility.yul\":29497:29674   */\n            tag_345:\n                /* \"#utility.yul\":29637:29666   */\n              0x536166654d6174683a206164646974696f6e206f766572666c6f770000000000\n                /* \"#utility.yul\":29633:29634   */\n              0x00\n                /* \"#utility.yul\":29625:29631   */\n              dup3\n                /* \"#utility.yul\":29621:29635   */\n              add\n                /* \"#utility.yul\":29614:29667   */\n              mstore\n                /* \"#utility.yul\":29497:29674   */\n              pop\n              jump\t// out\n                /* \"#utility.yul\":29680:30046   */\n            tag_346:\n                /* \"#utility.yul\":29822:29825   */\n              0x00\n                /* \"#utility.yul\":29843:29910   */\n              tag_595\n                /* \"#utility.yul\":29907:29909   */\n              0x1b\n                /* \"#utility.yul\":29902:29905   */\n              dup4\n                /* \"#utility.yul\":29843:29910   */\n              tag_290\n              jump\t// in\n            tag_595:\n                /* \"#utility.yul\":29836:29910   */\n              swap2\n              pop\n                /* \"#utility.yul\":29919:30012   */\n              tag_596\n                /* \"#utility.yul\":30008:30011   */\n              dup3\n                /* \"#utility.yul\":29919:30012   */\n              tag_345\n              jump\t// in\n            tag_596:\n                /* \"#utility.yul\":30037:30039   */\n              0x20\n                /* \"#utility.yul\":30032:30035   */\n              dup3\n                /* \"#utility.yul\":30028:30040   */\n              add\n                /* \"#utility.yul\":30021:30040   */\n              swap1\n              pop\n                /* \"#utility.yul\":29680:30046   */\n              swap2\n              swap1\n              pop\n              jump\t// out\n                /* \"#utility.yul\":30052:30471   */\n            tag_253:\n                /* \"#utility.yul\":30218:30222   */\n              0x00\n                /* \"#utility.yul\":30256:30258   */\n              0x20\n                /* \"#utility.yul\":30245:30254   */\n              dup3\n                /* \"#utility.yul\":30241:30259   */\n              add\n                /* \"#utility.yul\":30233:30259   */\n              swap1\n              pop\n                /* \"#utility.yul\":30305:30314   */\n              dup2\n                /* \"#utility.yul\":30299:30303   */\n              dup2\n                /* \"#utility.yul\":30295:30315   */\n              sub\n                /* \"#utility.yul\":30291:30292   */\n              0x00\n                /* \"#utility.yul\":30280:30289   */\n              dup4\n                /* \"#utility.yul\":30276:30293   */\n              add\n                /* \"#utility.yul\":30269:30316   */\n              mstore\n                /* \"#utility.yul\":30333:30464   */\n              tag_598\n                /* \"#utility.yul\":30459:30463   */\n              dup2\n                /* \"#utility.yul\":30333:30464   */\n              tag_346\n              jump\t// in\n            tag_598:\n                /* \"#utility.yul\":30325:30464   */\n              swap1\n              pop\n                /* \"#utility.yul\":30052:30471   */\n              swap2\n              swap1\n              pop\n              jump\t// out\n                /* \"#utility.yul\":30477:30653   */\n            tag_347:\n                /* \"#utility.yul\":30617:30645   */\n              0x536166654d6174683a206469766973696f6e206279207a65726f000000000000\n                /* \"#utility.yul\":30613:30614   */\n              0x00\n                /* \"#utility.yul\":30605:30611   */\n              dup3\n                /* \"#utility.yul\":30601:30615   */\n              add\n                /* \"#utility.yul\":30594:30646   */\n              mstore\n                /* \"#utility.yul\":30477:30653   */\n              pop\n              jump\t// out\n                /* \"#utility.yul\":30659:31025   */\n            tag_348:\n                /* \"#utility.yul\":30801:30804   */\n              0x00\n                /* \"#utility.yul\":30822:30889   */\n              tag_601\n                /* \"#utility.yul\":30886:30888   */\n              0x1a\n                /* \"#utility.yul\":30881:30884   */\n              dup4\n                /* \"#utility.yul\":30822:30889   */\n              tag_290\n              jump\t// in\n            tag_601:\n                /* \"#utility.yul\":30815:30889   */\n              swap2\n              pop\n                /* \"#utility.yul\":30898:30991   */\n              tag_602\n                /* \"#utility.yul\":30987:30990   */\n              dup3\n                /* \"#utility.yul\":30898:30991   */\n              tag_347\n              jump\t// in\n            tag_602:\n                /* \"#utility.yul\":31016:31018   */\n              0x20\n                /* \"#utility.yul\":31011:31014   */\n              dup3\n                /* \"#utility.yul\":31007:31019   */\n              add\n                /* \"#utility.yul\":31000:31019   */\n              swap1\n              pop\n                /* \"#utility.yul\":30659:31025   */\n              swap2\n              swap1\n              pop\n              jump\t// out\n                /* \"#utility.yul\":31031:31450   */\n            tag_257:\n                /* \"#utility.yul\":31197:31201   */\n              0x00\n                /* \"#utility.yul\":31235:31237   */\n              0x20\n                /* \"#utility.yul\":31224:31233   */\n              dup3\n                /* \"#utility.yul\":31220:31238   */\n              add\n                /* \"#utility.yul\":31212:31238   */\n              swap1\n              pop\n                /* \"#utility.yul\":31284:31293   */\n              dup2\n                /* \"#utility.yul\":31278:31282   */\n              dup2\n                /* \"#utility.yul\":31274:31294   */\n              sub\n                /* \"#utility.yul\":31270:31271   */\n              0x00\n                /* \"#utility.yul\":31259:31268   */\n              dup4\n                /* \"#utility.yul\":31255:31272   */\n              add\n                /* \"#utility.yul\":31248:31295   */\n              mstore\n                /* \"#utility.yul\":31312:31443   */\n              tag_604\n                /* \"#utility.yul\":31438:31442   */\n              dup2\n                /* \"#utility.yul\":31312:31443   */\n              tag_348\n              jump\t// in\n            tag_604:\n                /* \"#utility.yul\":31304:31443   */\n              swap1\n              pop\n                /* \"#utility.yul\":31031:31450   */\n              swap2\n              swap1\n              pop\n              jump\t// out\n                /* \"#utility.yul\":31456:31636   */\n            tag_349:\n                /* \"#utility.yul\":31504:31581   */\n              0x4e487b7100000000000000000000000000000000000000000000000000000000\n                /* \"#utility.yul\":31501:31502   */\n              0x00\n                /* \"#utility.yul\":31494:31582   */\n              mstore\n                /* \"#utility.yul\":31601:31605   */\n              0x12\n                /* \"#utility.yul\":31598:31599   */\n              0x04\n                /* \"#utility.yul\":31591:31606   */\n              mstore\n                /* \"#utility.yul\":31625:31629   */\n              0x24\n                /* \"#utility.yul\":31622:31623   */\n              0x00\n                /* \"#utility.yul\":31615:31630   */\n              revert\n                /* \"#utility.yul\":31642:31827   */\n            tag_259:\n                /* \"#utility.yul\":31682:31683   */\n              0x00\n                /* \"#utility.yul\":31699:31719   */\n              tag_607\n                /* \"#utility.yul\":31717:31718   */\n              dup3\n                /* \"#utility.yul\":31699:31719   */\n              tag_279\n              jump\t// in\n            tag_607:\n                /* \"#utility.yul\":31694:31719   */\n              swap2\n              pop\n                /* \"#utility.yul\":31733:31753   */\n              tag_608\n                /* \"#utility.yul\":31751:31752   */\n              dup4\n                /* \"#utility.yul\":31733:31753   */\n              tag_279\n              jump\t// in\n            tag_608:\n                /* \"#utility.yul\":31728:31753   */\n              swap3\n              pop\n                /* \"#utility.yul\":31772:31773   */\n              dup3\n                /* \"#utility.yul\":31762:31797   */\n              tag_609\n              jumpi\n                /* \"#utility.yul\":31777:31795   */\n              tag_610\n              tag_349\n              jump\t// in\n            tag_610:\n                /* \"#utility.yul\":31762:31797   */\n            tag_609:\n                /* \"#utility.yul\":31819:31820   */\n              dup3\n                /* \"#utility.yul\":31816:31817   */\n              dup3\n                /* \"#utility.yul\":31812:31821   */\n              div\n                /* \"#utility.yul\":31807:31821   */\n              swap1\n              pop\n                /* \"#utility.yul\":31642:31827   */\n              swap3\n              swap2\n              pop\n              pop\n              jump\t// out\n            stop\n\n            sub_0: assembly {\n                    /* \"Story.sol\":8916:10660  contract Chapter {... */\n                  mstore(0x40, 0x80)\n                    /* \"Story.sol\":9218:9637  constructor(address _author, address _story, string memory _ipfsHash, address parentChapter, address childChapter) {... */\n                  callvalue\n                  dup1\n                  iszero\n                  tag_1\n                  jumpi\n                  0x00\n                  dup1\n                  revert\n                tag_1:\n                  pop\n                  mload(0x40)\n                  sub(codesize, bytecodeSize)\n                  dup1\n                  bytecodeSize\n                  dup4\n                  codecopy\n                  dup2\n                  dup2\n                  add\n                  0x40\n                  mstore\n                  dup2\n                  add\n                  swap1\n                  tag_2\n                  swap2\n                  swap1\n                  tag_3\n                  jump\t// in\n                tag_2:\n                    /* \"Story.sol\":9353:9360  _author */\n                  dup5\n                    /* \"Story.sol\":9344:9350  author */\n                  0x01\n                  0x00\n                    /* \"Story.sol\":9344:9360  author = _author */\n                  0x0100\n                  exp\n                  dup2\n                  sload\n                  dup2\n                  0xffffffffffffffffffffffffffffffffffffffff\n                  mul\n                  not\n                  and\n                  swap1\n                  dup4\n                  0xffffffffffffffffffffffffffffffffffffffff\n                  and\n                  mul\n                  or\n                  swap1\n                  sstore\n                  pop\n                    /* \"Story.sol\":9379:9385  _story */\n                  dup4\n                    /* \"Story.sol\":9371:9376  story */\n                  0x00\n                  dup1\n                    /* \"Story.sol\":9371:9385  story = _story */\n                  0x0100\n                  exp\n                  dup2\n                  sload\n                  dup2\n                  0xffffffffffffffffffffffffffffffffffffffff\n                  mul\n                  not\n                  and\n                  swap1\n                  dup4\n                  0xffffffffffffffffffffffffffffffffffffffff\n                  and\n                  mul\n                  or\n                  swap1\n                  sstore\n                  pop\n                    /* \"Story.sol\":9407:9416  _ipfsHash */\n                  dup3\n                    /* \"Story.sol\":9396:9404  ipfsHash */\n                  0x02\n                    /* \"Story.sol\":9396:9416  ipfsHash = _ipfsHash */\n                  swap1\n                  dup1\n                  mload\n                  swap1\n                  0x20\n                  add\n                  swap1\n                  tag_6\n                  swap3\n                  swap2\n                  swap1\n                  tag_7\n                  jump\t// in\n                tag_6:\n                  pop\n                    /* \"Story.sol\":9455:9456  0 */\n                  0x00\n                    /* \"Story.sol\":9430:9457  parentChapter != address(0) */\n                  0xffffffffffffffffffffffffffffffffffffffff\n                  and\n                    /* \"Story.sol\":9430:9443  parentChapter */\n                  dup3\n                    /* \"Story.sol\":9430:9457  parentChapter != address(0) */\n                  0xffffffffffffffffffffffffffffffffffffffff\n                  and\n                  eq\n                    /* \"Story.sol\":9427:9525  if(parentChapter != address(0)){... */\n                  tag_8\n                  jumpi\n                    /* \"Story.sol\":9473:9493  linkedParentChapters */\n                  0x03\n                    /* \"Story.sol\":9499:9512  parentChapter */\n                  dup3\n                    /* \"Story.sol\":9473:9513  linkedParentChapters.push(parentChapter) */\n                  swap1\n                  dup1\n                  0x01\n                  dup2\n                  sload\n                  add\n                  dup1\n                  dup3\n                  sstore\n                  dup1\n                  swap2\n                  pop\n                  pop\n                  0x01\n                  swap1\n                  sub\n                  swap1\n                  0x00\n                  mstore\n                  keccak256(0x00, 0x20)\n                  add\n                  0x00\n                  swap1\n                  swap2\n                  swap1\n                  swap2\n                  swap1\n                  swap2\n                  0x0100\n                  exp\n                  dup2\n                  sload\n                  dup2\n                  0xffffffffffffffffffffffffffffffffffffffff\n                  mul\n                  not\n                  and\n                  swap1\n                  dup4\n                  0xffffffffffffffffffffffffffffffffffffffff\n                  and\n                  mul\n                  or\n                  swap1\n                  sstore\n                  pop\n                    /* \"Story.sol\":9427:9525  if(parentChapter != address(0)){... */\n                tag_8:\n                    /* \"Story.sol\":9562:9563  0 */\n                  0x00\n                    /* \"Story.sol\":9538:9564  childChapter != address(0) */\n                  0xffffffffffffffffffffffffffffffffffffffff\n                  and\n                    /* \"Story.sol\":9538:9550  childChapter */\n                  dup2\n                    /* \"Story.sol\":9538:9564  childChapter != address(0) */\n                  0xffffffffffffffffffffffffffffffffffffffff\n                  and\n                  eq\n                    /* \"Story.sol\":9535:9630  if(childChapter != address(0)){... */\n                  tag_10\n                  jumpi\n                    /* \"Story.sol\":9580:9599  linkedChildChapters */\n                  0x04\n                    /* \"Story.sol\":9605:9617  childChapter */\n                  dup2\n                    /* \"Story.sol\":9580:9618  linkedChildChapters.push(childChapter) */\n                  swap1\n                  dup1\n                  0x01\n                  dup2\n                  sload\n                  add\n                  dup1\n                  dup3\n                  sstore\n                  dup1\n                  swap2\n                  pop\n                  pop\n                  0x01\n                  swap1\n                  sub\n                  swap1\n                  0x00\n                  mstore\n                  keccak256(0x00, 0x20)\n                  add\n                  0x00\n                  swap1\n                  swap2\n                  swap1\n                  swap2\n                  swap1\n                  swap2\n                  0x0100\n                  exp\n                  dup2\n                  sload\n                  dup2\n                  0xffffffffffffffffffffffffffffffffffffffff\n                  mul\n                  not\n                  and\n                  swap1\n                  dup4\n                  0xffffffffffffffffffffffffffffffffffffffff\n                  and\n                  mul\n                  or\n                  swap1\n                  sstore\n                  pop\n                    /* \"Story.sol\":9535:9630  if(childChapter != address(0)){... */\n                tag_10:\n                    /* \"Story.sol\":9218:9637  constructor(address _author, address _story, string memory _ipfsHash, address parentChapter, address childChapter) {... */\n                  pop\n                  pop\n                  pop\n                  pop\n                  pop\n                    /* \"Story.sol\":8916:10660  contract Chapter {... */\n                  jump(tag_12)\n                tag_7:\n                  dup3\n                  dup1\n                  sload\n                  tag_13\n                  swap1\n                  tag_14\n                  jump\t// in\n                tag_13:\n                  swap1\n                  0x00\n                  mstore\n                  keccak256(0x00, 0x20)\n                  swap1\n                  0x1f\n                  add\n                  0x20\n                  swap1\n                  div\n                  dup2\n                  add\n                  swap3\n                  dup3\n                  tag_16\n                  jumpi\n                  0x00\n                  dup6\n                  sstore\n                  jump(tag_15)\n                tag_16:\n                  dup3\n                  0x1f\n                  lt\n                  tag_17\n                  jumpi\n                  dup1\n                  mload\n                  not(0xff)\n                  and\n                  dup4\n                  dup1\n                  add\n                  or\n                  dup6\n                  sstore\n                  jump(tag_15)\n                tag_17:\n                  dup3\n                  dup1\n                  add\n                  0x01\n                  add\n                  dup6\n                  sstore\n                  dup3\n                  iszero\n                  tag_15\n                  jumpi\n                  swap2\n                  dup3\n                  add\n                tag_18:\n                  dup3\n                  dup2\n                  gt\n                  iszero\n                  tag_19\n                  jumpi\n                  dup3\n                  mload\n                  dup3\n                  sstore\n                  swap2\n                  0x20\n                  add\n                  swap2\n                  swap1\n                  0x01\n                  add\n                  swap1\n                  jump(tag_18)\n                tag_19:\n                tag_15:\n                  pop\n                  swap1\n                  pop\n                  tag_20\n                  swap2\n                  swap1\n                  tag_21\n                  jump\t// in\n                tag_20:\n                  pop\n                  swap1\n                  jump\t// out\n                tag_21:\n                tag_22:\n                  dup1\n                  dup3\n                  gt\n                  iszero\n                  tag_23\n                  jumpi\n                  0x00\n                  dup2\n                  0x00\n                  swap1\n                  sstore\n                  pop\n                  0x01\n                  add\n                  jump(tag_22)\n                tag_23:\n                  pop\n                  swap1\n                  jump\t// out\n                    /* \"#utility.yul\":7:82   */\n                tag_24:\n                    /* \"#utility.yul\":40:46   */\n                  0x00\n                    /* \"#utility.yul\":73:75   */\n                  0x40\n                    /* \"#utility.yul\":67:76   */\n                  mload\n                    /* \"#utility.yul\":57:76   */\n                  swap1\n                  pop\n                    /* \"#utility.yul\":7:82   */\n                  swap1\n                  jump\t// out\n                    /* \"#utility.yul\":88:205   */\n                tag_25:\n                    /* \"#utility.yul\":197:198   */\n                  0x00\n                    /* \"#utility.yul\":194:195   */\n                  dup1\n                    /* \"#utility.yul\":187:199   */\n                  revert\n                    /* \"#utility.yul\":211:328   */\n                tag_26:\n                    /* \"#utility.yul\":320:321   */\n                  0x00\n                    /* \"#utility.yul\":317:318   */\n                  dup1\n                    /* \"#utility.yul\":310:322   */\n                  revert\n                    /* \"#utility.yul\":334:460   */\n                tag_27:\n                    /* \"#utility.yul\":371:378   */\n                  0x00\n                    /* \"#utility.yul\":411:453   */\n                  0xffffffffffffffffffffffffffffffffffffffff\n                    /* \"#utility.yul\":404:409   */\n                  dup3\n                    /* \"#utility.yul\":400:454   */\n                  and\n                    /* \"#utility.yul\":389:454   */\n                  swap1\n                  pop\n                    /* \"#utility.yul\":334:460   */\n                  swap2\n                  swap1\n                  pop\n                  jump\t// out\n                    /* \"#utility.yul\":466:562   */\n                tag_28:\n                    /* \"#utility.yul\":503:510   */\n                  0x00\n                    /* \"#utility.yul\":532:556   */\n                  tag_48\n                    /* \"#utility.yul\":550:555   */\n                  dup3\n                    /* \"#utility.yul\":532:556   */\n                  tag_27\n                  jump\t// in\n                tag_48:\n                    /* \"#utility.yul\":521:556   */\n                  swap1\n                  pop\n                    /* \"#utility.yul\":466:562   */\n                  swap2\n                  swap1\n                  pop\n                  jump\t// out\n                    /* \"#utility.yul\":568:690   */\n                tag_29:\n                    /* \"#utility.yul\":641:665   */\n                  tag_50\n                    /* \"#utility.yul\":659:664   */\n                  dup2\n                    /* \"#utility.yul\":641:665   */\n                  tag_28\n                  jump\t// in\n                tag_50:\n                    /* \"#utility.yul\":634:639   */\n                  dup2\n                    /* \"#utility.yul\":631:666   */\n                  eq\n                    /* \"#utility.yul\":621:684   */\n                  tag_51\n                  jumpi\n                    /* \"#utility.yul\":680:681   */\n                  0x00\n                    /* \"#utility.yul\":677:678   */\n                  dup1\n                    /* \"#utility.yul\":670:682   */\n                  revert\n                    /* \"#utility.yul\":621:684   */\n                tag_51:\n                    /* \"#utility.yul\":568:690   */\n                  pop\n                  jump\t// out\n                    /* \"#utility.yul\":696:839   */\n                tag_30:\n                    /* \"#utility.yul\":753:758   */\n                  0x00\n                    /* \"#utility.yul\":784:790   */\n                  dup2\n                    /* \"#utility.yul\":778:791   */\n                  mload\n                    /* \"#utility.yul\":769:791   */\n                  swap1\n                  pop\n                    /* \"#utility.yul\":800:833   */\n                  tag_53\n                    /* \"#utility.yul\":827:832   */\n                  dup2\n                    /* \"#utility.yul\":800:833   */\n                  tag_29\n                  jump\t// in\n                tag_53:\n                    /* \"#utility.yul\":696:839   */\n                  swap3\n                  swap2\n                  pop\n                  pop\n                  jump\t// out\n                    /* \"#utility.yul\":845:962   */\n                tag_31:\n                    /* \"#utility.yul\":954:955   */\n                  0x00\n                    /* \"#utility.yul\":951:952   */\n                  dup1\n                    /* \"#utility.yul\":944:956   */\n                  revert\n                    /* \"#utility.yul\":968:1085   */\n                tag_32:\n                    /* \"#utility.yul\":1077:1078   */\n                  0x00\n                    /* \"#utility.yul\":1074:1075   */\n                  dup1\n                    /* \"#utility.yul\":1067:1079   */\n                  revert\n                    /* \"#utility.yul\":1091:1193   */\n                tag_33:\n                    /* \"#utility.yul\":1132:1138   */\n                  0x00\n                    /* \"#utility.yul\":1183:1185   */\n                  0x1f\n                    /* \"#utility.yul\":1179:1186   */\n                  not\n                    /* \"#utility.yul\":1174:1176   */\n                  0x1f\n                    /* \"#utility.yul\":1167:1172   */\n                  dup4\n                    /* \"#utility.yul\":1163:1177   */\n                  add\n                    /* \"#utility.yul\":1159:1187   */\n                  and\n                    /* \"#utility.yul\":1149:1187   */\n                  swap1\n                  pop\n                    /* \"#utility.yul\":1091:1193   */\n                  swap2\n                  swap1\n                  pop\n                  jump\t// out\n                    /* \"#utility.yul\":1199:1379   */\n                tag_34:\n                    /* \"#utility.yul\":1247:1324   */\n                  0x4e487b7100000000000000000000000000000000000000000000000000000000\n                    /* \"#utility.yul\":1244:1245   */\n                  0x00\n                    /* \"#utility.yul\":1237:1325   */\n                  mstore\n                    /* \"#utility.yul\":1344:1348   */\n                  0x41\n                    /* \"#utility.yul\":1341:1342   */\n                  0x04\n                    /* \"#utility.yul\":1334:1349   */\n                  mstore\n                    /* \"#utility.yul\":1368:1372   */\n                  0x24\n                    /* \"#utility.yul\":1365:1366   */\n                  0x00\n                    /* \"#utility.yul\":1358:1373   */\n                  revert\n                    /* \"#utility.yul\":1385:1666   */\n                tag_35:\n                    /* \"#utility.yul\":1468:1495   */\n                  tag_59\n                    /* \"#utility.yul\":1490:1494   */\n                  dup3\n                    /* \"#utility.yul\":1468:1495   */\n                  tag_33\n                  jump\t// in\n                tag_59:\n                    /* \"#utility.yul\":1460:1466   */\n                  dup2\n                    /* \"#utility.yul\":1456:1496   */\n                  add\n                    /* \"#utility.yul\":1598:1604   */\n                  dup2\n                    /* \"#utility.yul\":1586:1596   */\n                  dup2\n                    /* \"#utility.yul\":1583:1605   */\n                  lt\n                    /* \"#utility.yul\":1562:1580   */\n                  0xffffffffffffffff\n                    /* \"#utility.yul\":1550:1560   */\n                  dup3\n                    /* \"#utility.yul\":1547:1581   */\n                  gt\n                    /* \"#utility.yul\":1544:1606   */\n                  or\n                    /* \"#utility.yul\":1541:1629   */\n                  iszero\n                  tag_60\n                  jumpi\n                    /* \"#utility.yul\":1609:1627   */\n                  tag_61\n                  tag_34\n                  jump\t// in\n                tag_61:\n                    /* \"#utility.yul\":1541:1629   */\n                tag_60:\n                    /* \"#utility.yul\":1649:1659   */\n                  dup1\n                    /* \"#utility.yul\":1645:1647   */\n                  0x40\n                    /* \"#utility.yul\":1638:1660   */\n                  mstore\n                    /* \"#utility.yul\":1428:1666   */\n                  pop\n                    /* \"#utility.yul\":1385:1666   */\n                  pop\n                  pop\n                  jump\t// out\n                    /* \"#utility.yul\":1672:1801   */\n                tag_36:\n                    /* \"#utility.yul\":1706:1712   */\n                  0x00\n                    /* \"#utility.yul\":1733:1753   */\n                  tag_63\n                  tag_24\n                  jump\t// in\n                tag_63:\n                    /* \"#utility.yul\":1723:1753   */\n                  swap1\n                  pop\n                    /* \"#utility.yul\":1762:1795   */\n                  tag_64\n                    /* \"#utility.yul\":1790:1794   */\n                  dup3\n                    /* \"#utility.yul\":1782:1788   */\n                  dup3\n                    /* \"#utility.yul\":1762:1795   */\n                  tag_35\n                  jump\t// in\n                tag_64:\n                    /* \"#utility.yul\":1672:1801   */\n                  swap2\n                  swap1\n                  pop\n                  jump\t// out\n                    /* \"#utility.yul\":1807:2115   */\n                tag_37:\n                    /* \"#utility.yul\":1869:1873   */\n                  0x00\n                    /* \"#utility.yul\":1959:1977   */\n                  0xffffffffffffffff\n                    /* \"#utility.yul\":1951:1957   */\n                  dup3\n                    /* \"#utility.yul\":1948:1978   */\n                  gt\n                    /* \"#utility.yul\":1945:2001   */\n                  iszero\n                  tag_66\n                  jumpi\n                    /* \"#utility.yul\":1981:1999   */\n                  tag_67\n                  tag_34\n                  jump\t// in\n                tag_67:\n                    /* \"#utility.yul\":1945:2001   */\n                tag_66:\n                    /* \"#utility.yul\":2019:2048   */\n                  tag_68\n                    /* \"#utility.yul\":2041:2047   */\n                  dup3\n                    /* \"#utility.yul\":2019:2048   */\n                  tag_33\n                  jump\t// in\n                tag_68:\n                    /* \"#utility.yul\":2011:2048   */\n                  swap1\n                  pop\n                    /* \"#utility.yul\":2103:2107   */\n                  0x20\n                    /* \"#utility.yul\":2097:2101   */\n                  dup2\n                    /* \"#utility.yul\":2093:2108   */\n                  add\n                    /* \"#utility.yul\":2085:2108   */\n                  swap1\n                  pop\n                    /* \"#utility.yul\":1807:2115   */\n                  swap2\n                  swap1\n                  pop\n                  jump\t// out\n                    /* \"#utility.yul\":2121:2428   */\n                tag_38:\n                    /* \"#utility.yul\":2189:2190   */\n                  0x00\n                    /* \"#utility.yul\":2199:2312   */\n                tag_70:\n                    /* \"#utility.yul\":2213:2219   */\n                  dup4\n                    /* \"#utility.yul\":2210:2211   */\n                  dup2\n                    /* \"#utility.yul\":2207:2220   */\n                  lt\n                    /* \"#utility.yul\":2199:2312   */\n                  iszero\n                  tag_72\n                  jumpi\n                    /* \"#utility.yul\":2298:2299   */\n                  dup1\n                    /* \"#utility.yul\":2293:2296   */\n                  dup3\n                    /* \"#utility.yul\":2289:2300   */\n                  add\n                    /* \"#utility.yul\":2283:2301   */\n                  mload\n                    /* \"#utility.yul\":2279:2280   */\n                  dup2\n                    /* \"#utility.yul\":2274:2277   */\n                  dup5\n                    /* \"#utility.yul\":2270:2281   */\n                  add\n                    /* \"#utility.yul\":2263:2302   */\n                  mstore\n                    /* \"#utility.yul\":2235:2237   */\n                  0x20\n                    /* \"#utility.yul\":2232:2233   */\n                  dup2\n                    /* \"#utility.yul\":2228:2238   */\n                  add\n                    /* \"#utility.yul\":2223:2238   */\n                  swap1\n                  pop\n                    /* \"#utility.yul\":2199:2312   */\n                  jump(tag_70)\n                tag_72:\n                    /* \"#utility.yul\":2330:2336   */\n                  dup4\n                    /* \"#utility.yul\":2327:2328   */\n                  dup2\n                    /* \"#utility.yul\":2324:2337   */\n                  gt\n                    /* \"#utility.yul\":2321:2422   */\n                  iszero\n                  tag_73\n                  jumpi\n                    /* \"#utility.yul\":2410:2411   */\n                  0x00\n                    /* \"#utility.yul\":2401:2407   */\n                  dup5\n                    /* \"#utility.yul\":2396:2399   */\n                  dup5\n                    /* \"#utility.yul\":2392:2408   */\n                  add\n                    /* \"#utility.yul\":2385:2412   */\n                  mstore\n                    /* \"#utility.yul\":2321:2422   */\n                tag_73:\n                    /* \"#utility.yul\":2170:2428   */\n                  pop\n                    /* \"#utility.yul\":2121:2428   */\n                  pop\n                  pop\n                  pop\n                  jump\t// out\n                    /* \"#utility.yul\":2434:2855   */\n                tag_39:\n                    /* \"#utility.yul\":2523:2528   */\n                  0x00\n                    /* \"#utility.yul\":2548:2614   */\n                  tag_75\n                    /* \"#utility.yul\":2564:2613   */\n                  tag_76\n                    /* \"#utility.yul\":2606:2612   */\n                  dup5\n                    /* \"#utility.yul\":2564:2613   */\n                  tag_37\n                  jump\t// in\n                tag_76:\n                    /* \"#utility.yul\":2548:2614   */\n                  tag_36\n                  jump\t// in\n                tag_75:\n                    /* \"#utility.yul\":2539:2614   */\n                  swap1\n                  pop\n                    /* \"#utility.yul\":2637:2643   */\n                  dup3\n                    /* \"#utility.yul\":2630:2635   */\n                  dup2\n                    /* \"#utility.yul\":2623:2644   */\n                  mstore\n                    /* \"#utility.yul\":2675:2679   */\n                  0x20\n                    /* \"#utility.yul\":2668:2673   */\n                  dup2\n                    /* \"#utility.yul\":2664:2680   */\n                  add\n                    /* \"#utility.yul\":2713:2716   */\n                  dup5\n                    /* \"#utility.yul\":2704:2710   */\n                  dup5\n                    /* \"#utility.yul\":2699:2702   */\n                  dup5\n                    /* \"#utility.yul\":2695:2711   */\n                  add\n                    /* \"#utility.yul\":2692:2717   */\n                  gt\n                    /* \"#utility.yul\":2689:2801   */\n                  iszero\n                  tag_77\n                  jumpi\n                    /* \"#utility.yul\":2720:2799   */\n                  tag_78\n                  tag_32\n                  jump\t// in\n                tag_78:\n                    /* \"#utility.yul\":2689:2801   */\n                tag_77:\n                    /* \"#utility.yul\":2810:2849   */\n                  tag_79\n                    /* \"#utility.yul\":2842:2848   */\n                  dup5\n                    /* \"#utility.yul\":2837:2840   */\n                  dup3\n                    /* \"#utility.yul\":2832:2835   */\n                  dup6\n                    /* \"#utility.yul\":2810:2849   */\n                  tag_38\n                  jump\t// in\n                tag_79:\n                    /* \"#utility.yul\":2529:2855   */\n                  pop\n                    /* \"#utility.yul\":2434:2855   */\n                  swap4\n                  swap3\n                  pop\n                  pop\n                  pop\n                  jump\t// out\n                    /* \"#utility.yul\":2875:3230   */\n                tag_40:\n                    /* \"#utility.yul\":2942:2947   */\n                  0x00\n                    /* \"#utility.yul\":2991:2994   */\n                  dup3\n                    /* \"#utility.yul\":2984:2988   */\n                  0x1f\n                    /* \"#utility.yul\":2976:2982   */\n                  dup4\n                    /* \"#utility.yul\":2972:2989   */\n                  add\n                    /* \"#utility.yul\":2968:2995   */\n                  slt\n                    /* \"#utility.yul\":2958:3080   */\n                  tag_81\n                  jumpi\n                    /* \"#utility.yul\":2999:3078   */\n                  tag_82\n                  tag_31\n                  jump\t// in\n                tag_82:\n                    /* \"#utility.yul\":2958:3080   */\n                tag_81:\n                    /* \"#utility.yul\":3109:3115   */\n                  dup2\n                    /* \"#utility.yul\":3103:3116   */\n                  mload\n                    /* \"#utility.yul\":3134:3224   */\n                  tag_83\n                    /* \"#utility.yul\":3220:3223   */\n                  dup5\n                    /* \"#utility.yul\":3212:3218   */\n                  dup3\n                    /* \"#utility.yul\":3205:3209   */\n                  0x20\n                    /* \"#utility.yul\":3197:3203   */\n                  dup7\n                    /* \"#utility.yul\":3193:3210   */\n                  add\n                    /* \"#utility.yul\":3134:3224   */\n                  tag_39\n                  jump\t// in\n                tag_83:\n                    /* \"#utility.yul\":3125:3224   */\n                  swap2\n                  pop\n                    /* \"#utility.yul\":2948:3230   */\n                  pop\n                    /* \"#utility.yul\":2875:3230   */\n                  swap3\n                  swap2\n                  pop\n                  pop\n                  jump\t// out\n                    /* \"#utility.yul\":3236:4386   */\n                tag_3:\n                    /* \"#utility.yul\":3352:3358   */\n                  0x00\n                    /* \"#utility.yul\":3360:3366   */\n                  dup1\n                    /* \"#utility.yul\":3368:3374   */\n                  0x00\n                    /* \"#utility.yul\":3376:3382   */\n                  dup1\n                    /* \"#utility.yul\":3384:3390   */\n                  0x00\n                    /* \"#utility.yul\":3433:3436   */\n                  0xa0\n                    /* \"#utility.yul\":3421:3430   */\n                  dup7\n                    /* \"#utility.yul\":3412:3419   */\n                  dup9\n                    /* \"#utility.yul\":3408:3431   */\n                  sub\n                    /* \"#utility.yul\":3404:3437   */\n                  slt\n                    /* \"#utility.yul\":3401:3521   */\n                  iszero\n                  tag_85\n                  jumpi\n                    /* \"#utility.yul\":3440:3519   */\n                  tag_86\n                  tag_25\n                  jump\t// in\n                tag_86:\n                    /* \"#utility.yul\":3401:3521   */\n                tag_85:\n                    /* \"#utility.yul\":3560:3561   */\n                  0x00\n                    /* \"#utility.yul\":3585:3649   */\n                  tag_87\n                    /* \"#utility.yul\":3641:3648   */\n                  dup9\n                    /* \"#utility.yul\":3632:3638   */\n                  dup3\n                    /* \"#utility.yul\":3621:3630   */\n                  dup10\n                    /* \"#utility.yul\":3617:3639   */\n                  add\n                    /* \"#utility.yul\":3585:3649   */\n                  tag_30\n                  jump\t// in\n                tag_87:\n                    /* \"#utility.yul\":3575:3649   */\n                  swap6\n                  pop\n                    /* \"#utility.yul\":3531:3659   */\n                  pop\n                    /* \"#utility.yul\":3698:3700   */\n                  0x20\n                    /* \"#utility.yul\":3724:3788   */\n                  tag_88\n                    /* \"#utility.yul\":3780:3787   */\n                  dup9\n                    /* \"#utility.yul\":3771:3777   */\n                  dup3\n                    /* \"#utility.yul\":3760:3769   */\n                  dup10\n                    /* \"#utility.yul\":3756:3778   */\n                  add\n                    /* \"#utility.yul\":3724:3788   */\n                  tag_30\n                  jump\t// in\n                tag_88:\n                    /* \"#utility.yul\":3714:3788   */\n                  swap5\n                  pop\n                    /* \"#utility.yul\":3669:3798   */\n                  pop\n                    /* \"#utility.yul\":3858:3860   */\n                  0x40\n                    /* \"#utility.yul\":3847:3856   */\n                  dup7\n                    /* \"#utility.yul\":3843:3861   */\n                  add\n                    /* \"#utility.yul\":3837:3862   */\n                  mload\n                    /* \"#utility.yul\":3889:3907   */\n                  0xffffffffffffffff\n                    /* \"#utility.yul\":3881:3887   */\n                  dup2\n                    /* \"#utility.yul\":3878:3908   */\n                  gt\n                    /* \"#utility.yul\":3875:3992   */\n                  iszero\n                  tag_89\n                  jumpi\n                    /* \"#utility.yul\":3911:3990   */\n                  tag_90\n                  tag_26\n                  jump\t// in\n                tag_90:\n                    /* \"#utility.yul\":3875:3992   */\n                tag_89:\n                    /* \"#utility.yul\":4016:4090   */\n                  tag_91\n                    /* \"#utility.yul\":4082:4089   */\n                  dup9\n                    /* \"#utility.yul\":4073:4079   */\n                  dup3\n                    /* \"#utility.yul\":4062:4071   */\n                  dup10\n                    /* \"#utility.yul\":4058:4080   */\n                  add\n                    /* \"#utility.yul\":4016:4090   */\n                  tag_40\n                  jump\t// in\n                tag_91:\n                    /* \"#utility.yul\":4006:4090   */\n                  swap4\n                  pop\n                    /* \"#utility.yul\":3808:4100   */\n                  pop\n                    /* \"#utility.yul\":4139:4141   */\n                  0x60\n                    /* \"#utility.yul\":4165:4229   */\n                  tag_92\n                    /* \"#utility.yul\":4221:4228   */\n                  dup9\n                    /* \"#utility.yul\":4212:4218   */\n                  dup3\n                    /* \"#utility.yul\":4201:4210   */\n                  dup10\n                    /* \"#utility.yul\":4197:4219   */\n                  add\n                    /* \"#utility.yul\":4165:4229   */\n                  tag_30\n                  jump\t// in\n                tag_92:\n                    /* \"#utility.yul\":4155:4229   */\n                  swap3\n                  pop\n                    /* \"#utility.yul\":4110:4239   */\n                  pop\n                    /* \"#utility.yul\":4278:4281   */\n                  0x80\n                    /* \"#utility.yul\":4305:4369   */\n                  tag_93\n                    /* \"#utility.yul\":4361:4368   */\n                  dup9\n                    /* \"#utility.yul\":4352:4358   */\n                  dup3\n                    /* \"#utility.yul\":4341:4350   */\n                  dup10\n                    /* \"#utility.yul\":4337:4359   */\n                  add\n                    /* \"#utility.yul\":4305:4369   */\n                  tag_30\n                  jump\t// in\n                tag_93:\n                    /* \"#utility.yul\":4295:4369   */\n                  swap2\n                  pop\n                    /* \"#utility.yul\":4249:4379   */\n                  pop\n                    /* \"#utility.yul\":3236:4386   */\n                  swap3\n                  swap6\n                  pop\n                  swap3\n                  swap6\n                  swap1\n                  swap4\n                  pop\n                  jump\t// out\n                    /* \"#utility.yul\":4392:4572   */\n                tag_41:\n                    /* \"#utility.yul\":4440:4517   */\n                  0x4e487b7100000000000000000000000000000000000000000000000000000000\n                    /* \"#utility.yul\":4437:4438   */\n                  0x00\n                    /* \"#utility.yul\":4430:4518   */\n                  mstore\n                    /* \"#utility.yul\":4537:4541   */\n                  0x22\n                    /* \"#utility.yul\":4534:4535   */\n                  0x04\n                    /* \"#utility.yul\":4527:4542   */\n                  mstore\n                    /* \"#utility.yul\":4561:4565   */\n                  0x24\n                    /* \"#utility.yul\":4558:4559   */\n                  0x00\n                    /* \"#utility.yul\":4551:4566   */\n                  revert\n                    /* \"#utility.yul\":4578:4898   */\n                tag_14:\n                    /* \"#utility.yul\":4622:4628   */\n                  0x00\n                    /* \"#utility.yul\":4659:4660   */\n                  0x02\n                    /* \"#utility.yul\":4653:4657   */\n                  dup3\n                    /* \"#utility.yul\":4649:4661   */\n                  div\n                    /* \"#utility.yul\":4639:4661   */\n                  swap1\n                  pop\n                    /* \"#utility.yul\":4706:4707   */\n                  0x01\n                    /* \"#utility.yul\":4700:4704   */\n                  dup3\n                    /* \"#utility.yul\":4696:4708   */\n                  and\n                    /* \"#utility.yul\":4727:4745   */\n                  dup1\n                    /* \"#utility.yul\":4717:4798   */\n                  tag_96\n                  jumpi\n                    /* \"#utility.yul\":4783:4787   */\n                  0x7f\n                    /* \"#utility.yul\":4775:4781   */\n                  dup3\n                    /* \"#utility.yul\":4771:4788   */\n                  and\n                    /* \"#utility.yul\":4761:4788   */\n                  swap2\n                  pop\n                    /* \"#utility.yul\":4717:4798   */\n                tag_96:\n                    /* \"#utility.yul\":4845:4847   */\n                  0x20\n                    /* \"#utility.yul\":4837:4843   */\n                  dup3\n                    /* \"#utility.yul\":4834:4848   */\n                  lt\n                    /* \"#utility.yul\":4814:4832   */\n                  dup2\n                    /* \"#utility.yul\":4811:4849   */\n                  eq\n                    /* \"#utility.yul\":4808:4892   */\n                  iszero\n                  tag_97\n                  jumpi\n                    /* \"#utility.yul\":4864:4882   */\n                  tag_98\n                  tag_41\n                  jump\t// in\n                tag_98:\n                    /* \"#utility.yul\":4808:4892   */\n                tag_97:\n                    /* \"#utility.yul\":4629:4898   */\n                  pop\n                    /* \"#utility.yul\":4578:4898   */\n                  swap2\n                  swap1\n                  pop\n                  jump\t// out\n                    /* \"Story.sol\":8916:10660  contract Chapter {... */\n                tag_12:\n                  dataSize(sub_0)\n                  dup1\n                  dataOffset(sub_0)\n                  0x00\n                  codecopy\n                  0x00\n                  return\n                stop\n\n                sub_0: assembly {\n                        /* \"Story.sol\":8916:10660  contract Chapter {... */\n                      mstore(0x40, 0x80)\n                      callvalue\n                      dup1\n                      iszero\n                      tag_1\n                      jumpi\n                      0x00\n                      dup1\n                      revert\n                    tag_1:\n                      pop\n                      jumpi(tag_2, lt(calldatasize, 0x04))\n                      shr(0xe0, calldataload(0x00))\n                      dup1\n                      0xa6c3e6b9\n                      gt\n                      tag_13\n                      jumpi\n                      dup1\n                      0xa6c3e6b9\n                      eq\n                      tag_8\n                      jumpi\n                      dup1\n                      0xc5fe6ffc\n                      eq\n                      tag_9\n                      jumpi\n                      dup1\n                      0xc623674f\n                      eq\n                      tag_10\n                      jumpi\n                      dup1\n                      0xe5a0af3d\n                      eq\n                      tag_11\n                      jumpi\n                      dup1\n                      0xed777791\n                      eq\n                      tag_12\n                      jumpi\n                      jump(tag_2)\n                    tag_13:\n                      dup1\n                      0x4051ddac\n                      eq\n                      tag_3\n                      jumpi\n                      dup1\n                      0x46c922d1\n                      eq\n                      tag_4\n                      jumpi\n                      dup1\n                      0x8758ce83\n                      eq\n                      tag_5\n                      jumpi\n                      dup1\n                      0x988e46c8\n                      eq\n                      tag_6\n                      jumpi\n                      dup1\n                      0xa523b88a\n                      eq\n                      tag_7\n                      jumpi\n                    tag_2:\n                      0x00\n                      dup1\n                      revert\n                        /* \"Story.sol\":10334:10657  function getSummary() public view returns (... */\n                    tag_3:\n                      tag_14\n                      tag_15\n                      jump\t// in\n                    tag_14:\n                      mload(0x40)\n                      tag_16\n                      swap7\n                      swap6\n                      swap5\n                      swap4\n                      swap3\n                      swap2\n                      swap1\n                      tag_17\n                      jump\t// in\n                    tag_16:\n                      mload(0x40)\n                      dup1\n                      swap2\n                      sub\n                      swap1\n                      return\n                        /* \"Story.sol\":8975:8995  address public story */\n                    tag_4:\n                      tag_18\n                      tag_19\n                      jump\t// in\n                    tag_18:\n                      mload(0x40)\n                      tag_20\n                      swap2\n                      swap1\n                      tag_21\n                      jump\t// in\n                    tag_20:\n                      mload(0x40)\n                      dup1\n                      swap2\n                      sub\n                      swap1\n                      return\n                        /* \"Story.sol\":9895:10135  function linkParentChapter(address parentChapter) public {... */\n                    tag_5:\n                      tag_22\n                      0x04\n                      dup1\n                      calldatasize\n                      sub\n                      dup2\n                      add\n                      swap1\n                      tag_23\n                      swap2\n                      swap1\n                      tag_24\n                      jump\t// in\n                    tag_23:\n                      tag_25\n                      jump\t// in\n                    tag_22:\n                      stop\n                        /* \"Story.sol\":9651:9887  function linkChildChapter(address childChapter) public {... */\n                    tag_6:\n                      tag_26\n                      0x04\n                      dup1\n                      calldatasize\n                      sub\n                      dup2\n                      add\n                      swap1\n                      tag_27\n                      swap2\n                      swap1\n                      tag_24\n                      jump\t// in\n                    tag_27:\n                      tag_28\n                      jump\t// in\n                    tag_26:\n                      stop\n                        /* \"Story.sol\":10151:10326  function like() public {... */\n                    tag_7:\n                      tag_29\n                      tag_30\n                      jump\t// in\n                    tag_29:\n                      stop\n                        /* \"Story.sol\":9003:9024  address public author */\n                    tag_8:\n                      tag_31\n                      tag_32\n                      jump\t// in\n                    tag_31:\n                      mload(0x40)\n                      tag_33\n                      swap2\n                      swap1\n                      tag_21\n                      jump\t// in\n                    tag_33:\n                      mload(0x40)\n                      dup1\n                      swap2\n                      sub\n                      swap1\n                      return\n                        /* \"Story.sol\":9104:9140  address[] public linkedChildChapters */\n                    tag_9:\n                      tag_34\n                      0x04\n                      dup1\n                      calldatasize\n                      sub\n                      dup2\n                      add\n                      swap1\n                      tag_35\n                      swap2\n                      swap1\n                      tag_36\n                      jump\t// in\n                    tag_35:\n                      tag_37\n                      jump\t// in\n                    tag_34:\n                      mload(0x40)\n                      tag_38\n                      swap2\n                      swap1\n                      tag_21\n                      jump\t// in\n                    tag_38:\n                      mload(0x40)\n                      dup1\n                      swap2\n                      sub\n                      swap1\n                      return\n                        /* \"Story.sol\":9031:9053  string public ipfsHash */\n                    tag_10:\n                      tag_39\n                      tag_40\n                      jump\t// in\n                    tag_39:\n                      mload(0x40)\n                      tag_41\n                      swap2\n                      swap1\n                      tag_42\n                      jump\t// in\n                    tag_41:\n                      mload(0x40)\n                      dup1\n                      swap2\n                      sub\n                      swap1\n                      return\n                        /* \"Story.sol\":9185:9209  uint256 public likeCount */\n                    tag_11:\n                      tag_43\n                      tag_44\n                      jump\t// in\n                    tag_43:\n                      mload(0x40)\n                      tag_45\n                      swap2\n                      swap1\n                      tag_46\n                      jump\t// in\n                    tag_45:\n                      mload(0x40)\n                      dup1\n                      swap2\n                      sub\n                      swap1\n                      return\n                        /* \"Story.sol\":9060:9097  address[] public linkedParentChapters */\n                    tag_12:\n                      tag_47\n                      0x04\n                      dup1\n                      calldatasize\n                      sub\n                      dup2\n                      add\n                      swap1\n                      tag_48\n                      swap2\n                      swap1\n                      tag_36\n                      jump\t// in\n                    tag_48:\n                      tag_49\n                      jump\t// in\n                    tag_47:\n                      mload(0x40)\n                      tag_50\n                      swap2\n                      swap1\n                      tag_21\n                      jump\t// in\n                    tag_50:\n                      mload(0x40)\n                      dup1\n                      swap2\n                      sub\n                      swap1\n                      return\n                        /* \"Story.sol\":10334:10657  function getSummary() public view returns (... */\n                    tag_15:\n                        /* \"Story.sol\":10387:10394  address */\n                      0x00\n                        /* \"Story.sol\":10396:10403  address */\n                      dup1\n                        /* \"Story.sol\":10405:10418  string memory */\n                      0x60\n                        /* \"Story.sol\":10420:10436  address[] memory */\n                      dup1\n                        /* \"Story.sol\":10438:10454  address[] memory */\n                      0x60\n                        /* \"Story.sol\":10456:10460  uint */\n                      0x00\n                        /* \"Story.sol\":10496:10501  story */\n                      dup1\n                      0x00\n                      swap1\n                      sload\n                      swap1\n                      0x0100\n                      exp\n                      swap1\n                      div\n                      0xffffffffffffffffffffffffffffffffffffffff\n                      and\n                        /* \"Story.sol\":10516:10522  author */\n                      0x01\n                      0x00\n                      swap1\n                      sload\n                      swap1\n                      0x0100\n                      exp\n                      swap1\n                      div\n                      0xffffffffffffffffffffffffffffffffffffffff\n                      and\n                        /* \"Story.sol\":10537:10545  ipfsHash */\n                      0x02\n                        /* \"Story.sol\":10560:10580  linkedParentChapters */\n                      0x03\n                        /* \"Story.sol\":10595:10614  linkedChildChapters */\n                      0x04\n                        /* \"Story.sol\":10629:10638  likeCount */\n                      sload(0x06)\n                        /* \"Story.sol\":10473:10649  return ( ... */\n                      dup4\n                      dup1\n                      sload\n                      tag_52\n                      swap1\n                      tag_53\n                      jump\t// in\n                    tag_52:\n                      dup1\n                      0x1f\n                      add\n                      0x20\n                      dup1\n                      swap2\n                      div\n                      mul\n                      0x20\n                      add\n                      mload(0x40)\n                      swap1\n                      dup2\n                      add\n                      0x40\n                      mstore\n                      dup1\n                      swap3\n                      swap2\n                      swap1\n                      dup2\n                      dup2\n                      mstore\n                      0x20\n                      add\n                      dup3\n                      dup1\n                      sload\n                      tag_54\n                      swap1\n                      tag_53\n                      jump\t// in\n                    tag_54:\n                      dup1\n                      iszero\n                      tag_55\n                      jumpi\n                      dup1\n                      0x1f\n                      lt\n                      tag_56\n                      jumpi\n                      0x0100\n                      dup1\n                      dup4\n                      sload\n                      div\n                      mul\n                      dup4\n                      mstore\n                      swap2\n                      0x20\n                      add\n                      swap2\n                      jump(tag_55)\n                    tag_56:\n                      dup3\n                      add\n                      swap2\n                      swap1\n                      0x00\n                      mstore\n                      keccak256(0x00, 0x20)\n                      swap1\n                    tag_57:\n                      dup2\n                      sload\n                      dup2\n                      mstore\n                      swap1\n                      0x01\n                      add\n                      swap1\n                      0x20\n                      add\n                      dup1\n                      dup4\n                      gt\n                      tag_57\n                      jumpi\n                      dup3\n                      swap1\n                      sub\n                      0x1f\n                      and\n                      dup3\n                      add\n                      swap2\n                    tag_55:\n                      pop\n                      pop\n                      pop\n                      pop\n                      pop\n                      swap4\n                      pop\n                      dup3\n                      dup1\n                      sload\n                      dup1\n                      0x20\n                      mul\n                      0x20\n                      add\n                      mload(0x40)\n                      swap1\n                      dup2\n                      add\n                      0x40\n                      mstore\n                      dup1\n                      swap3\n                      swap2\n                      swap1\n                      dup2\n                      dup2\n                      mstore\n                      0x20\n                      add\n                      dup3\n                      dup1\n                      sload\n                      dup1\n                      iszero\n                      tag_58\n                      jumpi\n                      0x20\n                      mul\n                      dup3\n                      add\n                      swap2\n                      swap1\n                      0x00\n                      mstore\n                      keccak256(0x00, 0x20)\n                      swap1\n                    tag_59:\n                      dup2\n                      0x00\n                      swap1\n                      sload\n                      swap1\n                      0x0100\n                      exp\n                      swap1\n                      div\n                      0xffffffffffffffffffffffffffffffffffffffff\n                      and\n                      0xffffffffffffffffffffffffffffffffffffffff\n                      and\n                      dup2\n                      mstore\n                      0x20\n                      add\n                      swap1\n                      0x01\n                      add\n                      swap1\n                      dup1\n                      dup4\n                      gt\n                      tag_59\n                      jumpi\n                    tag_58:\n                      pop\n                      pop\n                      pop\n                      pop\n                      pop\n                      swap3\n                      pop\n                      dup2\n                      dup1\n                      sload\n                      dup1\n                      0x20\n                      mul\n                      0x20\n                      add\n                      mload(0x40)\n                      swap1\n                      dup2\n                      add\n                      0x40\n                      mstore\n                      dup1\n                      swap3\n                      swap2\n                      swap1\n                      dup2\n                      dup2\n                      mstore\n                      0x20\n                      add\n                      dup3\n                      dup1\n                      sload\n                      dup1\n                      iszero\n                      tag_60\n                      jumpi\n                      0x20\n                      mul\n                      dup3\n                      add\n                      swap2\n                      swap1\n                      0x00\n                      mstore\n                      keccak256(0x00, 0x20)\n                      swap1\n                    tag_61:\n                      dup2\n                      0x00\n                      swap1\n                      sload\n                      swap1\n                      0x0100\n                      exp\n                      swap1\n                      div\n                      0xffffffffffffffffffffffffffffffffffffffff\n                      and\n                      0xffffffffffffffffffffffffffffffffffffffff\n                      and\n                      dup2\n                      mstore\n                      0x20\n                      add\n                      swap1\n                      0x01\n                      add\n                      swap1\n                      dup1\n                      dup4\n                      gt\n                      tag_61\n                      jumpi\n                    tag_60:\n                      pop\n                      pop\n                      pop\n                      pop\n                      pop\n                      swap2\n                      pop\n                      swap6\n                      pop\n                      swap6\n                      pop\n                      swap6\n                      pop\n                      swap6\n                      pop\n                      swap6\n                      pop\n                      swap6\n                      pop\n                        /* \"Story.sol\":10334:10657  function getSummary() public view returns (... */\n                      swap1\n                      swap2\n                      swap3\n                      swap4\n                      swap5\n                      swap6\n                      jump\t// out\n                        /* \"Story.sol\":8975:8995  address public story */\n                    tag_19:\n                      0x00\n                      dup1\n                      sload\n                      swap1\n                      0x0100\n                      exp\n                      swap1\n                      div\n                      0xffffffffffffffffffffffffffffffffffffffff\n                      and\n                      dup2\n                      jump\t// out\n                        /* \"Story.sol\":9895:10135  function linkParentChapter(address parentChapter) public {... */\n                    tag_25:\n                        /* \"Story.sol\":9985:9990  story */\n                      0x00\n                      dup1\n                      sload\n                      swap1\n                      0x0100\n                      exp\n                      swap1\n                      div\n                      0xffffffffffffffffffffffffffffffffffffffff\n                      and\n                        /* \"Story.sol\":9971:9990  msg.sender == story */\n                      0xffffffffffffffffffffffffffffffffffffffff\n                      and\n                        /* \"Story.sol\":9971:9981  msg.sender */\n                      caller\n                        /* \"Story.sol\":9971:9990  msg.sender == story */\n                      0xffffffffffffffffffffffffffffffffffffffff\n                      and\n                      eq\n                        /* \"Story.sol\":9963:10076  require(msg.sender == story, \"This function has to be called from the story contract by an accepted author only\") */\n                      tag_63\n                      jumpi\n                      mload(0x40)\n                      0x08c379a000000000000000000000000000000000000000000000000000000000\n                      dup2\n                      mstore\n                      0x04\n                      add\n                      tag_64\n                      swap1\n                      tag_65\n                      jump\t// in\n                    tag_64:\n                      mload(0x40)\n                      dup1\n                      swap2\n                      sub\n                      swap1\n                      revert\n                    tag_63:\n                        /* \"Story.sol\":10087:10107  linkedParentChapters */\n                      0x03\n                        /* \"Story.sol\":10113:10126  parentChapter */\n                      dup2\n                        /* \"Story.sol\":10087:10127  linkedParentChapters.push(parentChapter) */\n                      swap1\n                      dup1\n                      0x01\n                      dup2\n                      sload\n                      add\n                      dup1\n                      dup3\n                      sstore\n                      dup1\n                      swap2\n                      pop\n                      pop\n                      0x01\n                      swap1\n                      sub\n                      swap1\n                      0x00\n                      mstore\n                      keccak256(0x00, 0x20)\n                      add\n                      0x00\n                      swap1\n                      swap2\n                      swap1\n                      swap2\n                      swap1\n                      swap2\n                      0x0100\n                      exp\n                      dup2\n                      sload\n                      dup2\n                      0xffffffffffffffffffffffffffffffffffffffff\n                      mul\n                      not\n                      and\n                      swap1\n                      dup4\n                      0xffffffffffffffffffffffffffffffffffffffff\n                      and\n                      mul\n                      or\n                      swap1\n                      sstore\n                      pop\n                        /* \"Story.sol\":9895:10135  function linkParentChapter(address parentChapter) public {... */\n                      pop\n                      jump\t// out\n                        /* \"Story.sol\":9651:9887  function linkChildChapter(address childChapter) public {... */\n                    tag_28:\n                        /* \"Story.sol\":9739:9744  story */\n                      0x00\n                      dup1\n                      sload\n                      swap1\n                      0x0100\n                      exp\n                      swap1\n                      div\n                      0xffffffffffffffffffffffffffffffffffffffff\n                      and\n                        /* \"Story.sol\":9725:9744  msg.sender == story */\n                      0xffffffffffffffffffffffffffffffffffffffff\n                      and\n                        /* \"Story.sol\":9725:9735  msg.sender */\n                      caller\n                        /* \"Story.sol\":9725:9744  msg.sender == story */\n                      0xffffffffffffffffffffffffffffffffffffffff\n                      and\n                      eq\n                        /* \"Story.sol\":9717:9830  require(msg.sender == story, \"This function has to be called from the story contract by an accepted author only\") */\n                      tag_68\n                      jumpi\n                      mload(0x40)\n                      0x08c379a000000000000000000000000000000000000000000000000000000000\n                      dup2\n                      mstore\n                      0x04\n                      add\n                      tag_69\n                      swap1\n                      tag_65\n                      jump\t// in\n                    tag_69:\n                      mload(0x40)\n                      dup1\n                      swap2\n                      sub\n                      swap1\n                      revert\n                    tag_68:\n                        /* \"Story.sol\":9841:9860  linkedChildChapters */\n                      0x04\n                        /* \"Story.sol\":9866:9878  childChapter */\n                      dup2\n                        /* \"Story.sol\":9841:9879  linkedChildChapters.push(childChapter) */\n                      swap1\n                      dup1\n                      0x01\n                      dup2\n                      sload\n                      add\n                      dup1\n                      dup3\n                      sstore\n                      dup1\n                      swap2\n                      pop\n                      pop\n                      0x01\n                      swap1\n                      sub\n                      swap1\n                      0x00\n                      mstore\n                      keccak256(0x00, 0x20)\n                      add\n                      0x00\n                      swap1\n                      swap2\n                      swap1\n                      swap2\n                      swap1\n                      swap2\n                      0x0100\n                      exp\n                      dup2\n                      sload\n                      dup2\n                      0xffffffffffffffffffffffffffffffffffffffff\n                      mul\n                      not\n                      and\n                      swap1\n                      dup4\n                      0xffffffffffffffffffffffffffffffffffffffff\n                      and\n                      mul\n                      or\n                      swap1\n                      sstore\n                      pop\n                        /* \"Story.sol\":9651:9887  function linkChildChapter(address childChapter) public {... */\n                      pop\n                      jump\t// out\n                        /* \"Story.sol\":10151:10326  function like() public {... */\n                    tag_30:\n                        /* \"Story.sol\":10194:10200  likers */\n                      0x05\n                        /* \"Story.sol\":10194:10212  likers[msg.sender] */\n                      0x00\n                        /* \"Story.sol\":10201:10211  msg.sender */\n                      caller\n                        /* \"Story.sol\":10194:10212  likers[msg.sender] */\n                      0xffffffffffffffffffffffffffffffffffffffff\n                      and\n                      0xffffffffffffffffffffffffffffffffffffffff\n                      and\n                      dup2\n                      mstore\n                      0x20\n                      add\n                      swap1\n                      dup2\n                      mstore\n                      0x20\n                      add\n                      0x00\n                      keccak256\n                      0x00\n                      swap1\n                      sload\n                      swap1\n                      0x0100\n                      exp\n                      swap1\n                      div\n                      0xff\n                      and\n                        /* \"Story.sol\":10193:10212  !likers[msg.sender] */\n                      iszero\n                        /* \"Story.sol\":10185:10243  require(!likers[msg.sender],\"You liked this story before\") */\n                      tag_72\n                      jumpi\n                      mload(0x40)\n                      0x08c379a000000000000000000000000000000000000000000000000000000000\n                      dup2\n                      mstore\n                      0x04\n                      add\n                      tag_73\n                      swap1\n                      tag_74\n                      jump\t// in\n                    tag_73:\n                      mload(0x40)\n                      dup1\n                      swap2\n                      sub\n                      swap1\n                      revert\n                    tag_72:\n                        /* \"Story.sol\":10275:10279  true */\n                      0x01\n                        /* \"Story.sol\":10254:10260  likers */\n                      0x05\n                        /* \"Story.sol\":10254:10272  likers[msg.sender] */\n                      0x00\n                        /* \"Story.sol\":10261:10271  msg.sender */\n                      caller\n                        /* \"Story.sol\":10254:10272  likers[msg.sender] */\n                      0xffffffffffffffffffffffffffffffffffffffff\n                      and\n                      0xffffffffffffffffffffffffffffffffffffffff\n                      and\n                      dup2\n                      mstore\n                      0x20\n                      add\n                      swap1\n                      dup2\n                      mstore\n                      0x20\n                      add\n                      0x00\n                      keccak256\n                      0x00\n                        /* \"Story.sol\":10254:10279  likers[msg.sender] = true */\n                      0x0100\n                      exp\n                      dup2\n                      sload\n                      dup2\n                      0xff\n                      mul\n                      not\n                      and\n                      swap1\n                      dup4\n                      iszero\n                      iszero\n                      mul\n                      or\n                      swap1\n                      sstore\n                      pop\n                        /* \"Story.sol\":10302:10318  likeCount.add(1) */\n                      tag_75\n                        /* \"Story.sol\":10316:10317  1 */\n                      0x01\n                        /* \"Story.sol\":10302:10311  likeCount */\n                      sload(0x06)\n                        /* \"Story.sol\":10302:10315  likeCount.add */\n                      tag_76\n                      swap1\n                        /* \"Story.sol\":10302:10318  likeCount.add(1) */\n                      swap2\n                      swap1\n                      0xffffffff\n                      and\n                      jump\t// in\n                    tag_75:\n                        /* \"Story.sol\":10290:10299  likeCount */\n                      0x06\n                        /* \"Story.sol\":10290:10318  likeCount = likeCount.add(1) */\n                      dup2\n                      swap1\n                      sstore\n                      pop\n                        /* \"Story.sol\":10151:10326  function like() public {... */\n                      jump\t// out\n                        /* \"Story.sol\":9003:9024  address public author */\n                    tag_32:\n                      0x01\n                      0x00\n                      swap1\n                      sload\n                      swap1\n                      0x0100\n                      exp\n                      swap1\n                      div\n                      0xffffffffffffffffffffffffffffffffffffffff\n                      and\n                      dup2\n                      jump\t// out\n                        /* \"Story.sol\":9104:9140  address[] public linkedChildChapters */\n                    tag_37:\n                      0x04\n                      dup2\n                      dup2\n                      sload\n                      dup2\n                      lt\n                      tag_77\n                      jumpi\n                      0x00\n                      dup1\n                      revert\n                    tag_77:\n                      swap1\n                      0x00\n                      mstore\n                      keccak256(0x00, 0x20)\n                      add\n                      0x00\n                      swap2\n                      pop\n                      sload\n                      swap1\n                      0x0100\n                      exp\n                      swap1\n                      div\n                      0xffffffffffffffffffffffffffffffffffffffff\n                      and\n                      dup2\n                      jump\t// out\n                        /* \"Story.sol\":9031:9053  string public ipfsHash */\n                    tag_40:\n                      0x02\n                      dup1\n                      sload\n                      tag_79\n                      swap1\n                      tag_53\n                      jump\t// in\n                    tag_79:\n                      dup1\n                      0x1f\n                      add\n                      0x20\n                      dup1\n                      swap2\n                      div\n                      mul\n                      0x20\n                      add\n                      mload(0x40)\n                      swap1\n                      dup2\n                      add\n                      0x40\n                      mstore\n                      dup1\n                      swap3\n                      swap2\n                      swap1\n                      dup2\n                      dup2\n                      mstore\n                      0x20\n                      add\n                      dup3\n                      dup1\n                      sload\n                      tag_80\n                      swap1\n                      tag_53\n                      jump\t// in\n                    tag_80:\n                      dup1\n                      iszero\n                      tag_81\n                      jumpi\n                      dup1\n                      0x1f\n                      lt\n                      tag_82\n                      jumpi\n                      0x0100\n                      dup1\n                      dup4\n                      sload\n                      div\n                      mul\n                      dup4\n                      mstore\n                      swap2\n                      0x20\n                      add\n                      swap2\n                      jump(tag_81)\n                    tag_82:\n                      dup3\n                      add\n                      swap2\n                      swap1\n                      0x00\n                      mstore\n                      keccak256(0x00, 0x20)\n                      swap1\n                    tag_83:\n                      dup2\n                      sload\n                      dup2\n                      mstore\n                      swap1\n                      0x01\n                      add\n                      swap1\n                      0x20\n                      add\n                      dup1\n                      dup4\n                      gt\n                      tag_83\n                      jumpi\n                      dup3\n                      swap1\n                      sub\n                      0x1f\n                      and\n                      dup3\n                      add\n                      swap2\n                    tag_81:\n                      pop\n                      pop\n                      pop\n                      pop\n                      pop\n                      dup2\n                      jump\t// out\n                        /* \"Story.sol\":9185:9209  uint256 public likeCount */\n                    tag_44:\n                      sload(0x06)\n                      dup2\n                      jump\t// out\n                        /* \"Story.sol\":9060:9097  address[] public linkedParentChapters */\n                    tag_49:\n                      0x03\n                      dup2\n                      dup2\n                      sload\n                      dup2\n                      lt\n                      tag_84\n                      jumpi\n                      0x00\n                      dup1\n                      revert\n                    tag_84:\n                      swap1\n                      0x00\n                      mstore\n                      keccak256(0x00, 0x20)\n                      add\n                      0x00\n                      swap2\n                      pop\n                      sload\n                      swap1\n                      0x0100\n                      exp\n                      swap1\n                      div\n                      0xffffffffffffffffffffffffffffffffffffffff\n                      and\n                      dup2\n                      jump\t// out\n                        /* \"Story.sol\":84:263  function add(uint256 a, uint256 b) internal pure returns (uint256) {... */\n                    tag_76:\n                        /* \"Story.sol\":142:149  uint256 */\n                      0x00\n                        /* \"Story.sol\":162:171  uint256 c */\n                      dup1\n                        /* \"Story.sol\":178:179  b */\n                      dup3\n                        /* \"Story.sol\":174:175  a */\n                      dup5\n                        /* \"Story.sol\":174:179  a + b */\n                      tag_87\n                      swap2\n                      swap1\n                      tag_88\n                      jump\t// in\n                    tag_87:\n                        /* \"Story.sol\":162:179  uint256 c = a + b */\n                      swap1\n                      pop\n                        /* \"Story.sol\":203:204  a */\n                      dup4\n                        /* \"Story.sol\":198:199  c */\n                      dup2\n                        /* \"Story.sol\":198:204  c >= a */\n                      lt\n                      iszero\n                        /* \"Story.sol\":190:236  require(c >= a, \"SafeMath: addition overflow\") */\n                      tag_89\n                      jumpi\n                      mload(0x40)\n                      0x08c379a000000000000000000000000000000000000000000000000000000000\n                      dup2\n                      mstore\n                      0x04\n                      add\n                      tag_90\n                      swap1\n                      tag_91\n                      jump\t// in\n                    tag_90:\n                      mload(0x40)\n                      dup1\n                      swap2\n                      sub\n                      swap1\n                      revert\n                    tag_89:\n                        /* \"Story.sol\":254:255  c */\n                      dup1\n                        /* \"Story.sol\":247:255  return c */\n                      swap2\n                      pop\n                      pop\n                        /* \"Story.sol\":84:263  function add(uint256 a, uint256 b) internal pure returns (uint256) {... */\n                      swap3\n                      swap2\n                      pop\n                      pop\n                      jump\t// out\n                        /* \"#utility.yul\":7:133   */\n                    tag_92:\n                        /* \"#utility.yul\":44:51   */\n                      0x00\n                        /* \"#utility.yul\":84:126   */\n                      0xffffffffffffffffffffffffffffffffffffffff\n                        /* \"#utility.yul\":77:82   */\n                      dup3\n                        /* \"#utility.yul\":73:127   */\n                      and\n                        /* \"#utility.yul\":62:127   */\n                      swap1\n                      pop\n                        /* \"#utility.yul\":7:133   */\n                      swap2\n                      swap1\n                      pop\n                      jump\t// out\n                        /* \"#utility.yul\":139:235   */\n                    tag_93:\n                        /* \"#utility.yul\":176:183   */\n                      0x00\n                        /* \"#utility.yul\":205:229   */\n                      tag_127\n                        /* \"#utility.yul\":223:228   */\n                      dup3\n                        /* \"#utility.yul\":205:229   */\n                      tag_92\n                      jump\t// in\n                    tag_127:\n                        /* \"#utility.yul\":194:229   */\n                      swap1\n                      pop\n                        /* \"#utility.yul\":139:235   */\n                      swap2\n                      swap1\n                      pop\n                      jump\t// out\n                        /* \"#utility.yul\":241:359   */\n                    tag_94:\n                        /* \"#utility.yul\":328:352   */\n                      tag_129\n                        /* \"#utility.yul\":346:351   */\n                      dup2\n                        /* \"#utility.yul\":328:352   */\n                      tag_93\n                      jump\t// in\n                    tag_129:\n                        /* \"#utility.yul\":323:326   */\n                      dup3\n                        /* \"#utility.yul\":316:353   */\n                      mstore\n                        /* \"#utility.yul\":241:359   */\n                      pop\n                      pop\n                      jump\t// out\n                        /* \"#utility.yul\":365:464   */\n                    tag_95:\n                        /* \"#utility.yul\":417:423   */\n                      0x00\n                        /* \"#utility.yul\":451:456   */\n                      dup2\n                        /* \"#utility.yul\":445:457   */\n                      mload\n                        /* \"#utility.yul\":435:457   */\n                      swap1\n                      pop\n                        /* \"#utility.yul\":365:464   */\n                      swap2\n                      swap1\n                      pop\n                      jump\t// out\n                        /* \"#utility.yul\":470:639   */\n                    tag_96:\n                        /* \"#utility.yul\":554:565   */\n                      0x00\n                        /* \"#utility.yul\":588:594   */\n                      dup3\n                        /* \"#utility.yul\":583:586   */\n                      dup3\n                        /* \"#utility.yul\":576:595   */\n                      mstore\n                        /* \"#utility.yul\":628:632   */\n                      0x20\n                        /* \"#utility.yul\":623:626   */\n                      dup3\n                        /* \"#utility.yul\":619:633   */\n                      add\n                        /* \"#utility.yul\":604:633   */\n                      swap1\n                      pop\n                        /* \"#utility.yul\":470:639   */\n                      swap3\n                      swap2\n                      pop\n                      pop\n                      jump\t// out\n                        /* \"#utility.yul\":645:952   */\n                    tag_97:\n                        /* \"#utility.yul\":713:714   */\n                      0x00\n                        /* \"#utility.yul\":723:836   */\n                    tag_133:\n                        /* \"#utility.yul\":737:743   */\n                      dup4\n                        /* \"#utility.yul\":734:735   */\n                      dup2\n                        /* \"#utility.yul\":731:744   */\n                      lt\n                        /* \"#utility.yul\":723:836   */\n                      iszero\n                      tag_135\n                      jumpi\n                        /* \"#utility.yul\":822:823   */\n                      dup1\n                        /* \"#utility.yul\":817:820   */\n                      dup3\n                        /* \"#utility.yul\":813:824   */\n                      add\n                        /* \"#utility.yul\":807:825   */\n                      mload\n                        /* \"#utility.yul\":803:804   */\n                      dup2\n                        /* \"#utility.yul\":798:801   */\n                      dup5\n                        /* \"#utility.yul\":794:805   */\n                      add\n                        /* \"#utility.yul\":787:826   */\n                      mstore\n                        /* \"#utility.yul\":759:761   */\n                      0x20\n                        /* \"#utility.yul\":756:757   */\n                      dup2\n                        /* \"#utility.yul\":752:762   */\n                      add\n                        /* \"#utility.yul\":747:762   */\n                      swap1\n                      pop\n                        /* \"#utility.yul\":723:836   */\n                      jump(tag_133)\n                    tag_135:\n                        /* \"#utility.yul\":854:860   */\n                      dup4\n                        /* \"#utility.yul\":851:852   */\n                      dup2\n                        /* \"#utility.yul\":848:861   */\n                      gt\n                        /* \"#utility.yul\":845:946   */\n                      iszero\n                      tag_136\n                      jumpi\n                        /* \"#utility.yul\":934:935   */\n                      0x00\n                        /* \"#utility.yul\":925:931   */\n                      dup5\n                        /* \"#utility.yul\":920:923   */\n                      dup5\n                        /* \"#utility.yul\":916:932   */\n                      add\n                        /* \"#utility.yul\":909:936   */\n                      mstore\n                        /* \"#utility.yul\":845:946   */\n                    tag_136:\n                        /* \"#utility.yul\":694:952   */\n                      pop\n                        /* \"#utility.yul\":645:952   */\n                      pop\n                      pop\n                      pop\n                      jump\t// out\n                        /* \"#utility.yul\":958:1060   */\n                    tag_98:\n                        /* \"#utility.yul\":999:1005   */\n                      0x00\n                        /* \"#utility.yul\":1050:1052   */\n                      0x1f\n                        /* \"#utility.yul\":1046:1053   */\n                      not\n                        /* \"#utility.yul\":1041:1043   */\n                      0x1f\n                        /* \"#utility.yul\":1034:1039   */\n                      dup4\n                        /* \"#utility.yul\":1030:1044   */\n                      add\n                        /* \"#utility.yul\":1026:1054   */\n                      and\n                        /* \"#utility.yul\":1016:1054   */\n                      swap1\n                      pop\n                        /* \"#utility.yul\":958:1060   */\n                      swap2\n                      swap1\n                      pop\n                      jump\t// out\n                        /* \"#utility.yul\":1066:1430   */\n                    tag_99:\n                        /* \"#utility.yul\":1154:1157   */\n                      0x00\n                        /* \"#utility.yul\":1182:1221   */\n                      tag_139\n                        /* \"#utility.yul\":1215:1220   */\n                      dup3\n                        /* \"#utility.yul\":1182:1221   */\n                      tag_95\n                      jump\t// in\n                    tag_139:\n                        /* \"#utility.yul\":1237:1308   */\n                      tag_140\n                        /* \"#utility.yul\":1301:1307   */\n                      dup2\n                        /* \"#utility.yul\":1296:1299   */\n                      dup6\n                        /* \"#utility.yul\":1237:1308   */\n                      tag_96\n                      jump\t// in\n                    tag_140:\n                        /* \"#utility.yul\":1230:1308   */\n                      swap4\n                      pop\n                        /* \"#utility.yul\":1317:1369   */\n                      tag_141\n                        /* \"#utility.yul\":1362:1368   */\n                      dup2\n                        /* \"#utility.yul\":1357:1360   */\n                      dup6\n                        /* \"#utility.yul\":1350:1354   */\n                      0x20\n                        /* \"#utility.yul\":1343:1348   */\n                      dup7\n                        /* \"#utility.yul\":1339:1355   */\n                      add\n                        /* \"#utility.yul\":1317:1369   */\n                      tag_97\n                      jump\t// in\n                    tag_141:\n                        /* \"#utility.yul\":1394:1423   */\n                      tag_142\n                        /* \"#utility.yul\":1416:1422   */\n                      dup2\n                        /* \"#utility.yul\":1394:1423   */\n                      tag_98\n                      jump\t// in\n                    tag_142:\n                        /* \"#utility.yul\":1389:1392   */\n                      dup5\n                        /* \"#utility.yul\":1385:1424   */\n                      add\n                        /* \"#utility.yul\":1378:1424   */\n                      swap2\n                      pop\n                        /* \"#utility.yul\":1158:1430   */\n                      pop\n                        /* \"#utility.yul\":1066:1430   */\n                      swap3\n                      swap2\n                      pop\n                      pop\n                      jump\t// out\n                        /* \"#utility.yul\":1436:1550   */\n                    tag_100:\n                        /* \"#utility.yul\":1503:1509   */\n                      0x00\n                        /* \"#utility.yul\":1537:1542   */\n                      dup2\n                        /* \"#utility.yul\":1531:1543   */\n                      mload\n                        /* \"#utility.yul\":1521:1543   */\n                      swap1\n                      pop\n                        /* \"#utility.yul\":1436:1550   */\n                      swap2\n                      swap1\n                      pop\n                      jump\t// out\n                        /* \"#utility.yul\":1556:1740   */\n                    tag_101:\n                        /* \"#utility.yul\":1655:1666   */\n                      0x00\n                        /* \"#utility.yul\":1689:1695   */\n                      dup3\n                        /* \"#utility.yul\":1684:1687   */\n                      dup3\n                        /* \"#utility.yul\":1677:1696   */\n                      mstore\n                        /* \"#utility.yul\":1729:1733   */\n                      0x20\n                        /* \"#utility.yul\":1724:1727   */\n                      dup3\n                        /* \"#utility.yul\":1720:1734   */\n                      add\n                        /* \"#utility.yul\":1705:1734   */\n                      swap1\n                      pop\n                        /* \"#utility.yul\":1556:1740   */\n                      swap3\n                      swap2\n                      pop\n                      pop\n                      jump\t// out\n                        /* \"#utility.yul\":1746:1878   */\n                    tag_102:\n                        /* \"#utility.yul\":1813:1817   */\n                      0x00\n                        /* \"#utility.yul\":1836:1839   */\n                      dup2\n                        /* \"#utility.yul\":1828:1839   */\n                      swap1\n                      pop\n                        /* \"#utility.yul\":1866:1870   */\n                      0x20\n                        /* \"#utility.yul\":1861:1864   */\n                      dup3\n                        /* \"#utility.yul\":1857:1871   */\n                      add\n                        /* \"#utility.yul\":1849:1871   */\n                      swap1\n                      pop\n                        /* \"#utility.yul\":1746:1878   */\n                      swap2\n                      swap1\n                      pop\n                      jump\t// out\n                        /* \"#utility.yul\":1884:1992   */\n                    tag_103:\n                        /* \"#utility.yul\":1961:1985   */\n                      tag_147\n                        /* \"#utility.yul\":1979:1984   */\n                      dup2\n                        /* \"#utility.yul\":1961:1985   */\n                      tag_93\n                      jump\t// in\n                    tag_147:\n                        /* \"#utility.yul\":1956:1959   */\n                      dup3\n                        /* \"#utility.yul\":1949:1986   */\n                      mstore\n                        /* \"#utility.yul\":1884:1992   */\n                      pop\n                      pop\n                      jump\t// out\n                        /* \"#utility.yul\":1998:2177   */\n                    tag_104:\n                        /* \"#utility.yul\":2067:2077   */\n                      0x00\n                        /* \"#utility.yul\":2088:2134   */\n                      tag_149\n                        /* \"#utility.yul\":2130:2133   */\n                      dup4\n                        /* \"#utility.yul\":2122:2128   */\n                      dup4\n                        /* \"#utility.yul\":2088:2134   */\n                      tag_103\n                      jump\t// in\n                    tag_149:\n                        /* \"#utility.yul\":2166:2170   */\n                      0x20\n                        /* \"#utility.yul\":2161:2164   */\n                      dup4\n                        /* \"#utility.yul\":2157:2171   */\n                      add\n                        /* \"#utility.yul\":2143:2171   */\n                      swap1\n                      pop\n                        /* \"#utility.yul\":1998:2177   */\n                      swap3\n                      swap2\n                      pop\n                      pop\n                      jump\t// out\n                        /* \"#utility.yul\":2183:2296   */\n                    tag_105:\n                        /* \"#utility.yul\":2253:2257   */\n                      0x00\n                        /* \"#utility.yul\":2285:2289   */\n                      0x20\n                        /* \"#utility.yul\":2280:2283   */\n                      dup3\n                        /* \"#utility.yul\":2276:2290   */\n                      add\n                        /* \"#utility.yul\":2268:2290   */\n                      swap1\n                      pop\n                        /* \"#utility.yul\":2183:2296   */\n                      swap2\n                      swap1\n                      pop\n                      jump\t// out\n                        /* \"#utility.yul\":2332:3064   */\n                    tag_106:\n                        /* \"#utility.yul\":2451:2454   */\n                      0x00\n                        /* \"#utility.yul\":2480:2534   */\n                      tag_152\n                        /* \"#utility.yul\":2528:2533   */\n                      dup3\n                        /* \"#utility.yul\":2480:2534   */\n                      tag_100\n                      jump\t// in\n                    tag_152:\n                        /* \"#utility.yul\":2550:2636   */\n                      tag_153\n                        /* \"#utility.yul\":2629:2635   */\n                      dup2\n                        /* \"#utility.yul\":2624:2627   */\n                      dup6\n                        /* \"#utility.yul\":2550:2636   */\n                      tag_101\n                      jump\t// in\n                    tag_153:\n                        /* \"#utility.yul\":2543:2636   */\n                      swap4\n                      pop\n                        /* \"#utility.yul\":2660:2716   */\n                      tag_154\n                        /* \"#utility.yul\":2710:2715   */\n                      dup4\n                        /* \"#utility.yul\":2660:2716   */\n                      tag_102\n                      jump\t// in\n                    tag_154:\n                        /* \"#utility.yul\":2739:2746   */\n                      dup1\n                        /* \"#utility.yul\":2770:2771   */\n                      0x00\n                        /* \"#utility.yul\":2755:3039   */\n                    tag_155:\n                        /* \"#utility.yul\":2780:2786   */\n                      dup4\n                        /* \"#utility.yul\":2777:2778   */\n                      dup2\n                        /* \"#utility.yul\":2774:2787   */\n                      lt\n                        /* \"#utility.yul\":2755:3039   */\n                      iszero\n                      tag_157\n                      jumpi\n                        /* \"#utility.yul\":2856:2862   */\n                      dup2\n                        /* \"#utility.yul\":2850:2863   */\n                      mload\n                        /* \"#utility.yul\":2883:2946   */\n                      tag_158\n                        /* \"#utility.yul\":2942:2945   */\n                      dup9\n                        /* \"#utility.yul\":2927:2940   */\n                      dup3\n                        /* \"#utility.yul\":2883:2946   */\n                      tag_104\n                      jump\t// in\n                    tag_158:\n                        /* \"#utility.yul\":2876:2946   */\n                      swap8\n                      pop\n                        /* \"#utility.yul\":2969:3029   */\n                      tag_159\n                        /* \"#utility.yul\":3022:3028   */\n                      dup4\n                        /* \"#utility.yul\":2969:3029   */\n                      tag_105\n                      jump\t// in\n                    tag_159:\n                        /* \"#utility.yul\":2959:3029   */\n                      swap3\n                      pop\n                        /* \"#utility.yul\":2815:3039   */\n                      pop\n                        /* \"#utility.yul\":2802:2803   */\n                      0x01\n                        /* \"#utility.yul\":2799:2800   */\n                      dup2\n                        /* \"#utility.yul\":2795:2804   */\n                      add\n                        /* \"#utility.yul\":2790:2804   */\n                      swap1\n                      pop\n                        /* \"#utility.yul\":2755:3039   */\n                      jump(tag_155)\n                    tag_157:\n                        /* \"#utility.yul\":2759:2773   */\n                      pop\n                        /* \"#utility.yul\":3055:3058   */\n                      dup6\n                        /* \"#utility.yul\":3048:3058   */\n                      swap4\n                      pop\n                        /* \"#utility.yul\":2456:3064   */\n                      pop\n                      pop\n                      pop\n                        /* \"#utility.yul\":2332:3064   */\n                      swap3\n                      swap2\n                      pop\n                      pop\n                      jump\t// out\n                        /* \"#utility.yul\":3070:3147   */\n                    tag_107:\n                        /* \"#utility.yul\":3107:3114   */\n                      0x00\n                        /* \"#utility.yul\":3136:3141   */\n                      dup2\n                        /* \"#utility.yul\":3125:3141   */\n                      swap1\n                      pop\n                        /* \"#utility.yul\":3070:3147   */\n                      swap2\n                      swap1\n                      pop\n                      jump\t// out\n                        /* \"#utility.yul\":3153:3271   */\n                    tag_108:\n                        /* \"#utility.yul\":3240:3264   */\n                      tag_162\n                        /* \"#utility.yul\":3258:3263   */\n                      dup2\n                        /* \"#utility.yul\":3240:3264   */\n                      tag_107\n                      jump\t// in\n                    tag_162:\n                        /* \"#utility.yul\":3235:3238   */\n                      dup3\n                        /* \"#utility.yul\":3228:3265   */\n                      mstore\n                        /* \"#utility.yul\":3153:3271   */\n                      pop\n                      pop\n                      jump\t// out\n                        /* \"#utility.yul\":3277:4445   */\n                    tag_17:\n                        /* \"#utility.yul\":3630:3634   */\n                      0x00\n                        /* \"#utility.yul\":3668:3671   */\n                      0xc0\n                        /* \"#utility.yul\":3657:3666   */\n                      dup3\n                        /* \"#utility.yul\":3653:3672   */\n                      add\n                        /* \"#utility.yul\":3645:3672   */\n                      swap1\n                      pop\n                        /* \"#utility.yul\":3682:3753   */\n                      tag_164\n                        /* \"#utility.yul\":3750:3751   */\n                      0x00\n                        /* \"#utility.yul\":3739:3748   */\n                      dup4\n                        /* \"#utility.yul\":3735:3752   */\n                      add\n                        /* \"#utility.yul\":3726:3732   */\n                      dup10\n                        /* \"#utility.yul\":3682:3753   */\n                      tag_94\n                      jump\t// in\n                    tag_164:\n                        /* \"#utility.yul\":3763:3835   */\n                      tag_165\n                        /* \"#utility.yul\":3831:3833   */\n                      0x20\n                        /* \"#utility.yul\":3820:3829   */\n                      dup4\n                        /* \"#utility.yul\":3816:3834   */\n                      add\n                        /* \"#utility.yul\":3807:3813   */\n                      dup9\n                        /* \"#utility.yul\":3763:3835   */\n                      tag_94\n                      jump\t// in\n                    tag_165:\n                        /* \"#utility.yul\":3882:3891   */\n                      dup2\n                        /* \"#utility.yul\":3876:3880   */\n                      dup2\n                        /* \"#utility.yul\":3872:3892   */\n                      sub\n                        /* \"#utility.yul\":3867:3869   */\n                      0x40\n                        /* \"#utility.yul\":3856:3865   */\n                      dup4\n                        /* \"#utility.yul\":3852:3870   */\n                      add\n                        /* \"#utility.yul\":3845:3893   */\n                      mstore\n                        /* \"#utility.yul\":3910:3988   */\n                      tag_166\n                        /* \"#utility.yul\":3983:3987   */\n                      dup2\n                        /* \"#utility.yul\":3974:3980   */\n                      dup8\n                        /* \"#utility.yul\":3910:3988   */\n                      tag_99\n                      jump\t// in\n                    tag_166:\n                        /* \"#utility.yul\":3902:3988   */\n                      swap1\n                      pop\n                        /* \"#utility.yul\":4035:4044   */\n                      dup2\n                        /* \"#utility.yul\":4029:4033   */\n                      dup2\n                        /* \"#utility.yul\":4025:4045   */\n                      sub\n                        /* \"#utility.yul\":4020:4022   */\n                      0x60\n                        /* \"#utility.yul\":4009:4018   */\n                      dup4\n                        /* \"#utility.yul\":4005:4023   */\n                      add\n                        /* \"#utility.yul\":3998:4046   */\n                      mstore\n                        /* \"#utility.yul\":4063:4171   */\n                      tag_167\n                        /* \"#utility.yul\":4166:4170   */\n                      dup2\n                        /* \"#utility.yul\":4157:4163   */\n                      dup7\n                        /* \"#utility.yul\":4063:4171   */\n                      tag_106\n                      jump\t// in\n                    tag_167:\n                        /* \"#utility.yul\":4055:4171   */\n                      swap1\n                      pop\n                        /* \"#utility.yul\":4219:4228   */\n                      dup2\n                        /* \"#utility.yul\":4213:4217   */\n                      dup2\n                        /* \"#utility.yul\":4209:4229   */\n                      sub\n                        /* \"#utility.yul\":4203:4206   */\n                      0x80\n                        /* \"#utility.yul\":4192:4201   */\n                      dup4\n                        /* \"#utility.yul\":4188:4207   */\n                      add\n                        /* \"#utility.yul\":4181:4230   */\n                      mstore\n                        /* \"#utility.yul\":4247:4355   */\n                      tag_168\n                        /* \"#utility.yul\":4350:4354   */\n                      dup2\n                        /* \"#utility.yul\":4341:4347   */\n                      dup6\n                        /* \"#utility.yul\":4247:4355   */\n                      tag_106\n                      jump\t// in\n                    tag_168:\n                        /* \"#utility.yul\":4239:4355   */\n                      swap1\n                      pop\n                        /* \"#utility.yul\":4365:4438   */\n                      tag_169\n                        /* \"#utility.yul\":4433:4436   */\n                      0xa0\n                        /* \"#utility.yul\":4422:4431   */\n                      dup4\n                        /* \"#utility.yul\":4418:4437   */\n                      add\n                        /* \"#utility.yul\":4409:4415   */\n                      dup5\n                        /* \"#utility.yul\":4365:4438   */\n                      tag_108\n                      jump\t// in\n                    tag_169:\n                        /* \"#utility.yul\":3277:4445   */\n                      swap8\n                      swap7\n                      pop\n                      pop\n                      pop\n                      pop\n                      pop\n                      pop\n                      pop\n                      jump\t// out\n                        /* \"#utility.yul\":4451:4673   */\n                    tag_21:\n                        /* \"#utility.yul\":4544:4548   */\n                      0x00\n                        /* \"#utility.yul\":4582:4584   */\n                      0x20\n                        /* \"#utility.yul\":4571:4580   */\n                      dup3\n                        /* \"#utility.yul\":4567:4585   */\n                      add\n                        /* \"#utility.yul\":4559:4585   */\n                      swap1\n                      pop\n                        /* \"#utility.yul\":4595:4666   */\n                      tag_171\n                        /* \"#utility.yul\":4663:4664   */\n                      0x00\n                        /* \"#utility.yul\":4652:4661   */\n                      dup4\n                        /* \"#utility.yul\":4648:4665   */\n                      add\n                        /* \"#utility.yul\":4639:4645   */\n                      dup5\n                        /* \"#utility.yul\":4595:4666   */\n                      tag_94\n                      jump\t// in\n                    tag_171:\n                        /* \"#utility.yul\":4451:4673   */\n                      swap3\n                      swap2\n                      pop\n                      pop\n                      jump\t// out\n                        /* \"#utility.yul\":4760:4877   */\n                    tag_110:\n                        /* \"#utility.yul\":4869:4870   */\n                      0x00\n                        /* \"#utility.yul\":4866:4867   */\n                      dup1\n                        /* \"#utility.yul\":4859:4871   */\n                      revert\n                        /* \"#utility.yul\":5006:5128   */\n                    tag_112:\n                        /* \"#utility.yul\":5079:5103   */\n                      tag_176\n                        /* \"#utility.yul\":5097:5102   */\n                      dup2\n                        /* \"#utility.yul\":5079:5103   */\n                      tag_93\n                      jump\t// in\n                    tag_176:\n                        /* \"#utility.yul\":5072:5077   */\n                      dup2\n                        /* \"#utility.yul\":5069:5104   */\n                      eq\n                        /* \"#utility.yul\":5059:5122   */\n                      tag_177\n                      jumpi\n                        /* \"#utility.yul\":5118:5119   */\n                      0x00\n                        /* \"#utility.yul\":5115:5116   */\n                      dup1\n                        /* \"#utility.yul\":5108:5120   */\n                      revert\n                        /* \"#utility.yul\":5059:5122   */\n                    tag_177:\n                        /* \"#utility.yul\":5006:5128   */\n                      pop\n                      jump\t// out\n                        /* \"#utility.yul\":5134:5273   */\n                    tag_113:\n                        /* \"#utility.yul\":5180:5185   */\n                      0x00\n                        /* \"#utility.yul\":5218:5224   */\n                      dup2\n                        /* \"#utility.yul\":5205:5225   */\n                      calldataload\n                        /* \"#utility.yul\":5196:5225   */\n                      swap1\n                      pop\n                        /* \"#utility.yul\":5234:5267   */\n                      tag_179\n                        /* \"#utility.yul\":5261:5266   */\n                      dup2\n                        /* \"#utility.yul\":5234:5267   */\n                      tag_112\n                      jump\t// in\n                    tag_179:\n                        /* \"#utility.yul\":5134:5273   */\n                      swap3\n                      swap2\n                      pop\n                      pop\n                      jump\t// out\n                        /* \"#utility.yul\":5279:5608   */\n                    tag_24:\n                        /* \"#utility.yul\":5338:5344   */\n                      0x00\n                        /* \"#utility.yul\":5387:5389   */\n                      0x20\n                        /* \"#utility.yul\":5375:5384   */\n                      dup3\n                        /* \"#utility.yul\":5366:5373   */\n                      dup5\n                        /* \"#utility.yul\":5362:5385   */\n                      sub\n                        /* \"#utility.yul\":5358:5390   */\n                      slt\n                        /* \"#utility.yul\":5355:5474   */\n                      iszero\n                      tag_181\n                      jumpi\n                        /* \"#utility.yul\":5393:5472   */\n                      tag_182\n                      tag_110\n                      jump\t// in\n                    tag_182:\n                        /* \"#utility.yul\":5355:5474   */\n                    tag_181:\n                        /* \"#utility.yul\":5513:5514   */\n                      0x00\n                        /* \"#utility.yul\":5538:5591   */\n                      tag_183\n                        /* \"#utility.yul\":5583:5590   */\n                      dup5\n                        /* \"#utility.yul\":5574:5580   */\n                      dup3\n                        /* \"#utility.yul\":5563:5572   */\n                      dup6\n                        /* \"#utility.yul\":5559:5581   */\n                      add\n                        /* \"#utility.yul\":5538:5591   */\n                      tag_113\n                      jump\t// in\n                    tag_183:\n                        /* \"#utility.yul\":5528:5591   */\n                      swap2\n                      pop\n                        /* \"#utility.yul\":5484:5601   */\n                      pop\n                        /* \"#utility.yul\":5279:5608   */\n                      swap3\n                      swap2\n                      pop\n                      pop\n                      jump\t// out\n                        /* \"#utility.yul\":5614:5736   */\n                    tag_114:\n                        /* \"#utility.yul\":5687:5711   */\n                      tag_185\n                        /* \"#utility.yul\":5705:5710   */\n                      dup2\n                        /* \"#utility.yul\":5687:5711   */\n                      tag_107\n                      jump\t// in\n                    tag_185:\n                        /* \"#utility.yul\":5680:5685   */\n                      dup2\n                        /* \"#utility.yul\":5677:5712   */\n                      eq\n                        /* \"#utility.yul\":5667:5730   */\n                      tag_186\n                      jumpi\n                        /* \"#utility.yul\":5726:5727   */\n                      0x00\n                        /* \"#utility.yul\":5723:5724   */\n                      dup1\n                        /* \"#utility.yul\":5716:5728   */\n                      revert\n                        /* \"#utility.yul\":5667:5730   */\n                    tag_186:\n                        /* \"#utility.yul\":5614:5736   */\n                      pop\n                      jump\t// out\n                        /* \"#utility.yul\":5742:5881   */\n                    tag_115:\n                        /* \"#utility.yul\":5788:5793   */\n                      0x00\n                        /* \"#utility.yul\":5826:5832   */\n                      dup2\n                        /* \"#utility.yul\":5813:5833   */\n                      calldataload\n                        /* \"#utility.yul\":5804:5833   */\n                      swap1\n                      pop\n                        /* \"#utility.yul\":5842:5875   */\n                      tag_188\n                        /* \"#utility.yul\":5869:5874   */\n                      dup2\n                        /* \"#utility.yul\":5842:5875   */\n                      tag_114\n                      jump\t// in\n                    tag_188:\n                        /* \"#utility.yul\":5742:5881   */\n                      swap3\n                      swap2\n                      pop\n                      pop\n                      jump\t// out\n                        /* \"#utility.yul\":5887:6216   */\n                    tag_36:\n                        /* \"#utility.yul\":5946:5952   */\n                      0x00\n                        /* \"#utility.yul\":5995:5997   */\n                      0x20\n                        /* \"#utility.yul\":5983:5992   */\n                      dup3\n                        /* \"#utility.yul\":5974:5981   */\n                      dup5\n                        /* \"#utility.yul\":5970:5993   */\n                      sub\n                        /* \"#utility.yul\":5966:5998   */\n                      slt\n                        /* \"#utility.yul\":5963:6082   */\n                      iszero\n                      tag_190\n                      jumpi\n                        /* \"#utility.yul\":6001:6080   */\n                      tag_191\n                      tag_110\n                      jump\t// in\n                    tag_191:\n                        /* \"#utility.yul\":5963:6082   */\n                    tag_190:\n                        /* \"#utility.yul\":6121:6122   */\n                      0x00\n                        /* \"#utility.yul\":6146:6199   */\n                      tag_192\n                        /* \"#utility.yul\":6191:6198   */\n                      dup5\n                        /* \"#utility.yul\":6182:6188   */\n                      dup3\n                        /* \"#utility.yul\":6171:6180   */\n                      dup6\n                        /* \"#utility.yul\":6167:6189   */\n                      add\n                        /* \"#utility.yul\":6146:6199   */\n                      tag_115\n                      jump\t// in\n                    tag_192:\n                        /* \"#utility.yul\":6136:6199   */\n                      swap2\n                      pop\n                        /* \"#utility.yul\":6092:6209   */\n                      pop\n                        /* \"#utility.yul\":5887:6216   */\n                      swap3\n                      swap2\n                      pop\n                      pop\n                      jump\t// out\n                        /* \"#utility.yul\":6222:6535   */\n                    tag_42:\n                        /* \"#utility.yul\":6335:6339   */\n                      0x00\n                        /* \"#utility.yul\":6373:6375   */\n                      0x20\n                        /* \"#utility.yul\":6362:6371   */\n                      dup3\n                        /* \"#utility.yul\":6358:6376   */\n                      add\n                        /* \"#utility.yul\":6350:6376   */\n                      swap1\n                      pop\n                        /* \"#utility.yul\":6422:6431   */\n                      dup2\n                        /* \"#utility.yul\":6416:6420   */\n                      dup2\n                        /* \"#utility.yul\":6412:6432   */\n                      sub\n                        /* \"#utility.yul\":6408:6409   */\n                      0x00\n                        /* \"#utility.yul\":6397:6406   */\n                      dup4\n                        /* \"#utility.yul\":6393:6410   */\n                      add\n                        /* \"#utility.yul\":6386:6433   */\n                      mstore\n                        /* \"#utility.yul\":6450:6528   */\n                      tag_194\n                        /* \"#utility.yul\":6523:6527   */\n                      dup2\n                        /* \"#utility.yul\":6514:6520   */\n                      dup5\n                        /* \"#utility.yul\":6450:6528   */\n                      tag_99\n                      jump\t// in\n                    tag_194:\n                        /* \"#utility.yul\":6442:6528   */\n                      swap1\n                      pop\n                        /* \"#utility.yul\":6222:6535   */\n                      swap3\n                      swap2\n                      pop\n                      pop\n                      jump\t// out\n                        /* \"#utility.yul\":6541:6763   */\n                    tag_46:\n                        /* \"#utility.yul\":6634:6638   */\n                      0x00\n                        /* \"#utility.yul\":6672:6674   */\n                      0x20\n                        /* \"#utility.yul\":6661:6670   */\n                      dup3\n                        /* \"#utility.yul\":6657:6675   */\n                      add\n                        /* \"#utility.yul\":6649:6675   */\n                      swap1\n                      pop\n                        /* \"#utility.yul\":6685:6756   */\n                      tag_196\n                        /* \"#utility.yul\":6753:6754   */\n                      0x00\n                        /* \"#utility.yul\":6742:6751   */\n                      dup4\n                        /* \"#utility.yul\":6738:6755   */\n                      add\n                        /* \"#utility.yul\":6729:6735   */\n                      dup5\n                        /* \"#utility.yul\":6685:6756   */\n                      tag_108\n                      jump\t// in\n                    tag_196:\n                        /* \"#utility.yul\":6541:6763   */\n                      swap3\n                      swap2\n                      pop\n                      pop\n                      jump\t// out\n                        /* \"#utility.yul\":6769:6949   */\n                    tag_116:\n                        /* \"#utility.yul\":6817:6894   */\n                      0x4e487b7100000000000000000000000000000000000000000000000000000000\n                        /* \"#utility.yul\":6814:6815   */\n                      0x00\n                        /* \"#utility.yul\":6807:6895   */\n                      mstore\n                        /* \"#utility.yul\":6914:6918   */\n                      0x22\n                        /* \"#utility.yul\":6911:6912   */\n                      0x04\n                        /* \"#utility.yul\":6904:6919   */\n                      mstore\n                        /* \"#utility.yul\":6938:6942   */\n                      0x24\n                        /* \"#utility.yul\":6935:6936   */\n                      0x00\n                        /* \"#utility.yul\":6928:6943   */\n                      revert\n                        /* \"#utility.yul\":6955:7275   */\n                    tag_53:\n                        /* \"#utility.yul\":6999:7005   */\n                      0x00\n                        /* \"#utility.yul\":7036:7037   */\n                      0x02\n                        /* \"#utility.yul\":7030:7034   */\n                      dup3\n                        /* \"#utility.yul\":7026:7038   */\n                      div\n                        /* \"#utility.yul\":7016:7038   */\n                      swap1\n                      pop\n                        /* \"#utility.yul\":7083:7084   */\n                      0x01\n                        /* \"#utility.yul\":7077:7081   */\n                      dup3\n                        /* \"#utility.yul\":7073:7085   */\n                      and\n                        /* \"#utility.yul\":7104:7122   */\n                      dup1\n                        /* \"#utility.yul\":7094:7175   */\n                      tag_199\n                      jumpi\n                        /* \"#utility.yul\":7160:7164   */\n                      0x7f\n                        /* \"#utility.yul\":7152:7158   */\n                      dup3\n                        /* \"#utility.yul\":7148:7165   */\n                      and\n                        /* \"#utility.yul\":7138:7165   */\n                      swap2\n                      pop\n                        /* \"#utility.yul\":7094:7175   */\n                    tag_199:\n                        /* \"#utility.yul\":7222:7224   */\n                      0x20\n                        /* \"#utility.yul\":7214:7220   */\n                      dup3\n                        /* \"#utility.yul\":7211:7225   */\n                      lt\n                        /* \"#utility.yul\":7191:7209   */\n                      dup2\n                        /* \"#utility.yul\":7188:7226   */\n                      eq\n                        /* \"#utility.yul\":7185:7269   */\n                      iszero\n                      tag_200\n                      jumpi\n                        /* \"#utility.yul\":7241:7259   */\n                      tag_201\n                      tag_116\n                      jump\t// in\n                    tag_201:\n                        /* \"#utility.yul\":7185:7269   */\n                    tag_200:\n                        /* \"#utility.yul\":7006:7275   */\n                      pop\n                        /* \"#utility.yul\":6955:7275   */\n                      swap2\n                      swap1\n                      pop\n                      jump\t// out\n                        /* \"#utility.yul\":7281:7586   */\n                    tag_117:\n                        /* \"#utility.yul\":7421:7455   */\n                      0x546869732066756e6374696f6e2068617320746f2062652063616c6c65642066\n                        /* \"#utility.yul\":7417:7418   */\n                      0x00\n                        /* \"#utility.yul\":7409:7415   */\n                      dup3\n                        /* \"#utility.yul\":7405:7419   */\n                      add\n                        /* \"#utility.yul\":7398:7456   */\n                      mstore\n                        /* \"#utility.yul\":7490:7524   */\n                      0x726f6d207468652073746f727920636f6e747261637420627920616e20616363\n                        /* \"#utility.yul\":7485:7487   */\n                      0x20\n                        /* \"#utility.yul\":7477:7483   */\n                      dup3\n                        /* \"#utility.yul\":7473:7488   */\n                      add\n                        /* \"#utility.yul\":7466:7525   */\n                      mstore\n                        /* \"#utility.yul\":7559:7578   */\n                      0x657074656420617574686f72206f6e6c79000000000000000000000000000000\n                        /* \"#utility.yul\":7554:7556   */\n                      0x40\n                        /* \"#utility.yul\":7546:7552   */\n                      dup3\n                        /* \"#utility.yul\":7542:7557   */\n                      add\n                        /* \"#utility.yul\":7535:7579   */\n                      mstore\n                        /* \"#utility.yul\":7281:7586   */\n                      pop\n                      jump\t// out\n                        /* \"#utility.yul\":7592:7958   */\n                    tag_118:\n                        /* \"#utility.yul\":7734:7737   */\n                      0x00\n                        /* \"#utility.yul\":7755:7822   */\n                      tag_204\n                        /* \"#utility.yul\":7819:7821   */\n                      0x51\n                        /* \"#utility.yul\":7814:7817   */\n                      dup4\n                        /* \"#utility.yul\":7755:7822   */\n                      tag_96\n                      jump\t// in\n                    tag_204:\n                        /* \"#utility.yul\":7748:7822   */\n                      swap2\n                      pop\n                        /* \"#utility.yul\":7831:7924   */\n                      tag_205\n                        /* \"#utility.yul\":7920:7923   */\n                      dup3\n                        /* \"#utility.yul\":7831:7924   */\n                      tag_117\n                      jump\t// in\n                    tag_205:\n                        /* \"#utility.yul\":7949:7951   */\n                      0x60\n                        /* \"#utility.yul\":7944:7947   */\n                      dup3\n                        /* \"#utility.yul\":7940:7952   */\n                      add\n                        /* \"#utility.yul\":7933:7952   */\n                      swap1\n                      pop\n                        /* \"#utility.yul\":7592:7958   */\n                      swap2\n                      swap1\n                      pop\n                      jump\t// out\n                        /* \"#utility.yul\":7964:8383   */\n                    tag_65:\n                        /* \"#utility.yul\":8130:8134   */\n                      0x00\n                        /* \"#utility.yul\":8168:8170   */\n                      0x20\n                        /* \"#utility.yul\":8157:8166   */\n                      dup3\n                        /* \"#utility.yul\":8153:8171   */\n                      add\n                        /* \"#utility.yul\":8145:8171   */\n                      swap1\n                      pop\n                        /* \"#utility.yul\":8217:8226   */\n                      dup2\n                        /* \"#utility.yul\":8211:8215   */\n                      dup2\n                        /* \"#utility.yul\":8207:8227   */\n                      sub\n                        /* \"#utility.yul\":8203:8204   */\n                      0x00\n                        /* \"#utility.yul\":8192:8201   */\n                      dup4\n                        /* \"#utility.yul\":8188:8205   */\n                      add\n                        /* \"#utility.yul\":8181:8228   */\n                      mstore\n                        /* \"#utility.yul\":8245:8376   */\n                      tag_207\n                        /* \"#utility.yul\":8371:8375   */\n                      dup2\n                        /* \"#utility.yul\":8245:8376   */\n                      tag_118\n                      jump\t// in\n                    tag_207:\n                        /* \"#utility.yul\":8237:8376   */\n                      swap1\n                      pop\n                        /* \"#utility.yul\":7964:8383   */\n                      swap2\n                      swap1\n                      pop\n                      jump\t// out\n                        /* \"#utility.yul\":8389:8566   */\n                    tag_119:\n                        /* \"#utility.yul\":8529:8558   */\n                      0x596f75206c696b656420746869732073746f7279206265666f72650000000000\n                        /* \"#utility.yul\":8525:8526   */\n                      0x00\n                        /* \"#utility.yul\":8517:8523   */\n                      dup3\n                        /* \"#utility.yul\":8513:8527   */\n                      add\n                        /* \"#utility.yul\":8506:8559   */\n                      mstore\n                        /* \"#utility.yul\":8389:8566   */\n                      pop\n                      jump\t// out\n                        /* \"#utility.yul\":8572:8938   */\n                    tag_120:\n                        /* \"#utility.yul\":8714:8717   */\n                      0x00\n                        /* \"#utility.yul\":8735:8802   */\n                      tag_210\n                        /* \"#utility.yul\":8799:8801   */\n                      0x1b\n                        /* \"#utility.yul\":8794:8797   */\n                      dup4\n                        /* \"#utility.yul\":8735:8802   */\n                      tag_96\n                      jump\t// in\n                    tag_210:\n                        /* \"#utility.yul\":8728:8802   */\n                      swap2\n                      pop\n                        /* \"#utility.yul\":8811:8904   */\n                      tag_211\n                        /* \"#utility.yul\":8900:8903   */\n                      dup3\n                        /* \"#utility.yul\":8811:8904   */\n                      tag_119\n                      jump\t// in\n                    tag_211:\n                        /* \"#utility.yul\":8929:8931   */\n                      0x20\n                        /* \"#utility.yul\":8924:8927   */\n                      dup3\n                        /* \"#utility.yul\":8920:8932   */\n                      add\n                        /* \"#utility.yul\":8913:8932   */\n                      swap1\n                      pop\n                        /* \"#utility.yul\":8572:8938   */\n                      swap2\n                      swap1\n                      pop\n                      jump\t// out\n                        /* \"#utility.yul\":8944:9363   */\n                    tag_74:\n                        /* \"#utility.yul\":9110:9114   */\n                      0x00\n                        /* \"#utility.yul\":9148:9150   */\n                      0x20\n                        /* \"#utility.yul\":9137:9146   */\n                      dup3\n                        /* \"#utility.yul\":9133:9151   */\n                      add\n                        /* \"#utility.yul\":9125:9151   */\n                      swap1\n                      pop\n                        /* \"#utility.yul\":9197:9206   */\n                      dup2\n                        /* \"#utility.yul\":9191:9195   */\n                      dup2\n                        /* \"#utility.yul\":9187:9207   */\n                      sub\n                        /* \"#utility.yul\":9183:9184   */\n                      0x00\n                        /* \"#utility.yul\":9172:9181   */\n                      dup4\n                        /* \"#utility.yul\":9168:9185   */\n                      add\n                        /* \"#utility.yul\":9161:9208   */\n                      mstore\n                        /* \"#utility.yul\":9225:9356   */\n                      tag_213\n                        /* \"#utility.yul\":9351:9355   */\n                      dup2\n                        /* \"#utility.yul\":9225:9356   */\n                      tag_120\n                      jump\t// in\n                    tag_213:\n                        /* \"#utility.yul\":9217:9356   */\n                      swap1\n                      pop\n                        /* \"#utility.yul\":8944:9363   */\n                      swap2\n                      swap1\n                      pop\n                      jump\t// out\n                        /* \"#utility.yul\":9369:9549   */\n                    tag_121:\n                        /* \"#utility.yul\":9417:9494   */\n                      0x4e487b7100000000000000000000000000000000000000000000000000000000\n                        /* \"#utility.yul\":9414:9415   */\n                      0x00\n                        /* \"#utility.yul\":9407:9495   */\n                      mstore\n                        /* \"#utility.yul\":9514:9518   */\n                      0x11\n                        /* \"#utility.yul\":9511:9512   */\n                      0x04\n                        /* \"#utility.yul\":9504:9519   */\n                      mstore\n                        /* \"#utility.yul\":9538:9542   */\n                      0x24\n                        /* \"#utility.yul\":9535:9536   */\n                      0x00\n                        /* \"#utility.yul\":9528:9543   */\n                      revert\n                        /* \"#utility.yul\":9555:9860   */\n                    tag_88:\n                        /* \"#utility.yul\":9595:9598   */\n                      0x00\n                        /* \"#utility.yul\":9614:9634   */\n                      tag_216\n                        /* \"#utility.yul\":9632:9633   */\n                      dup3\n                        /* \"#utility.yul\":9614:9634   */\n                      tag_107\n                      jump\t// in\n                    tag_216:\n                        /* \"#utility.yul\":9609:9634   */\n                      swap2\n                      pop\n                        /* \"#utility.yul\":9648:9668   */\n                      tag_217\n                        /* \"#utility.yul\":9666:9667   */\n                      dup4\n                        /* \"#utility.yul\":9648:9668   */\n                      tag_107\n                      jump\t// in\n                    tag_217:\n                        /* \"#utility.yul\":9643:9668   */\n                      swap3\n                      pop\n                        /* \"#utility.yul\":9802:9803   */\n                      dup3\n                        /* \"#utility.yul\":9734:9800   */\n                      0xffffffffffffffffffffffffffffffffffffffffffffffffffffffffffffffff\n                        /* \"#utility.yul\":9730:9804   */\n                      sub\n                        /* \"#utility.yul\":9727:9728   */\n                      dup3\n                        /* \"#utility.yul\":9724:9805   */\n                      gt\n                        /* \"#utility.yul\":9721:9828   */\n                      iszero\n                      tag_218\n                      jumpi\n                        /* \"#utility.yul\":9808:9826   */\n                      tag_219\n                      tag_121\n                      jump\t// in\n                    tag_219:\n                        /* \"#utility.yul\":9721:9828   */\n                    tag_218:\n                        /* \"#utility.yul\":9852:9853   */\n                      dup3\n                        /* \"#utility.yul\":9849:9850   */\n                      dup3\n                        /* \"#utility.yul\":9845:9854   */\n                      add\n                        /* \"#utility.yul\":9838:9854   */\n                      swap1\n                      pop\n                        /* \"#utility.yul\":9555:9860   */\n                      swap3\n                      swap2\n                      pop\n                      pop\n                      jump\t// out\n                        /* \"#utility.yul\":9866:10043   */\n                    tag_122:\n                        /* \"#utility.yul\":10006:10035   */\n                      0x536166654d6174683a206164646974696f6e206f766572666c6f770000000000\n                        /* \"#utility.yul\":10002:10003   */\n                      0x00\n                        /* \"#utility.yul\":9994:10000   */\n                      dup3\n                        /* \"#utility.yul\":9990:10004   */\n                      add\n                        /* \"#utility.yul\":9983:10036   */\n                      mstore\n                        /* \"#utility.yul\":9866:10043   */\n                      pop\n                      jump\t// out\n                        /* \"#utility.yul\":10049:10415   */\n                    tag_123:\n                        /* \"#utility.yul\":10191:10194   */\n                      0x00\n                        /* \"#utility.yul\":10212:10279   */\n                      tag_222\n                        /* \"#utility.yul\":10276:10278   */\n                      0x1b\n                        /* \"#utility.yul\":10271:10274   */\n                      dup4\n                        /* \"#utility.yul\":10212:10279   */\n                      tag_96\n                      jump\t// in\n                    tag_222:\n                        /* \"#utility.yul\":10205:10279   */\n                      swap2\n                      pop\n                        /* \"#utility.yul\":10288:10381   */\n                      tag_223\n                        /* \"#utility.yul\":10377:10380   */\n                      dup3\n                        /* \"#utility.yul\":10288:10381   */\n                      tag_122\n                      jump\t// in\n                    tag_223:\n                        /* \"#utility.yul\":10406:10408   */\n                      0x20\n                        /* \"#utility.yul\":10401:10404   */\n                      dup3\n                        /* \"#utility.yul\":10397:10409   */\n                      add\n                        /* \"#utility.yul\":10390:10409   */\n                      swap1\n                      pop\n                        /* \"#utility.yul\":10049:10415   */\n                      swap2\n                      swap1\n                      pop\n                      jump\t// out\n                        /* \"#utility.yul\":10421:10840   */\n                    tag_91:\n                        /* \"#utility.yul\":10587:10591   */\n                      0x00\n                        /* \"#utility.yul\":10625:10627   */\n                      0x20\n                        /* \"#utility.yul\":10614:10623   */\n                      dup3\n                        /* \"#utility.yul\":10610:10628   */\n                      add\n                        /* \"#utility.yul\":10602:10628   */\n                      swap1\n                      pop\n                        /* \"#utility.yul\":10674:10683   */\n                      dup2\n                        /* \"#utility.yul\":10668:10672   */\n                      dup2\n                        /* \"#utility.yul\":10664:10684   */\n                      sub\n                        /* \"#utility.yul\":10660:10661   */\n                      0x00\n                        /* \"#utility.yul\":10649:10658   */\n                      dup4\n                        /* \"#utility.yul\":10645:10662   */\n                      add\n                        /* \"#utility.yul\":10638:10685   */\n                      mstore\n                        /* \"#utility.yul\":10702:10833   */\n                      tag_225\n                        /* \"#utility.yul\":10828:10832   */\n                      dup2\n                        /* \"#utility.yul\":10702:10833   */\n                      tag_123\n                      jump\t// in\n                    tag_225:\n                        /* \"#utility.yul\":10694:10833   */\n                      swap1\n                      pop\n                        /* \"#utility.yul\":10421:10840   */\n                      swap2\n                      swap1\n                      pop\n                      jump\t// out\n\n                    auxdata: 0xa26469706673582212203028a4aec6c74546e7eb264d9b0fe9b5829ed5f44dcb10032dcf6f78a276af9664736f6c63430008090033\n                }\n            }\n\n            auxdata: 0xa2646970667358221220c103eaef46b81d9a25d2f1b1ebd9e052555e8243625a79156880041879c8e1b664736f6c63430008090033\n        }\n    }\n\n    auxdata: 0xa26469706673582212200b4d75914d17e4ba7eaf7f8f58e41f473717fe27b26621922ebd41d4f3c9bbd664736f6c63430008090033\n}\n","bytecode":{"linkReferences":{},"object":"608060405234801561001057600080fd5b506152d7806100206000396000f3fe60806040523480156200001157600080fd5b5060043610620000465760003560e01c806318351ea7146200004b5780632ff2bdd51462000081578063f4b955f314620000a3575b600080fd5b6200006960048036038101906200006391906200029c565b620000c3565b60405162000078919062000313565b60405180910390f35b6200008b62000103565b6040516200009a9190620003fe565b60405180910390f35b620000c16004803603810190620000bb919062000584565b62000193565b005b60008181548110620000d457600080fd5b906000526020600020016000915054906101000a900473ffffffffffffffffffffffffffffffffffffffff1681565b606060008054806020026020016040519081016040528092919081815260200182805480156200018957602002820191906000526020600020905b8160009054906101000a900473ffffffffffffffffffffffffffffffffffffffff1673ffffffffffffffffffffffffffffffffffffffff16815260200190600101908083116200013e575b5050505050905090565b600033848484604051620001a7906200023f565b620001b69493929190620006d0565b604051809103906000f080158015620001d3573d6000803e3d6000fd5b5090506000819080600181540180825580915050600190039060005260206000200160009091909190916101000a81548173ffffffffffffffffffffffffffffffffffffffff021916908373ffffffffffffffffffffffffffffffffffffffff16021790555050505050565b614b6f806200073383390190565b6000604051905090565b600080fd5b600080fd5b6000819050919050565b620002768162000261565b81146200028257600080fd5b50565b60008135905062000296816200026b565b92915050565b600060208284031215620002b557620002b462000257565b5b6000620002c58482850162000285565b91505092915050565b600073ffffffffffffffffffffffffffffffffffffffff82169050919050565b6000620002fb82620002ce565b9050919050565b6200030d81620002ee565b82525050565b60006020820190506200032a600083018462000302565b92915050565b600081519050919050565b600082825260208201905092915050565b6000819050602082019050919050565b6200036781620002ee565b82525050565b60006200037b83836200035c565b60208301905092915050565b6000602082019050919050565b6000620003a18262000330565b620003ad81856200033b565b9350620003ba836200034c565b8060005b83811015620003f1578151620003d588826200036d565b9750620003e28362000387565b925050600181019050620003be565b5085935050505092915050565b600060208201905081810360008301526200041a818462000394565b905092915050565b600080fd5b600080fd5b6000601f19601f8301169050919050565b7f4e487b7100000000000000000000000000000000000000000000000000000000600052604160045260246000fd5b62000477826200042c565b810181811067ffffffffffffffff821117156200049957620004986200043d565b5b80604052505050565b6000620004ae6200024d565b9050620004bc82826200046c565b919050565b600067ffffffffffffffff821115620004df57620004de6200043d565b5b620004ea826200042c565b9050602081019050919050565b82818337600083830152505050565b60006200051d6200051784620004c1565b620004a2565b9050828152602081018484840111156200053c576200053b62000427565b5b62000549848285620004f7565b509392505050565b600082601f83011262000569576200056862000422565b5b81356200057b84826020860162000506565b91505092915050565b600080600060608486031215620005a0576200059f62000257565b5b600084013567ffffffffffffffff811115620005c157620005c06200025c565b5b620005cf8682870162000551565b935050602084013567ffffffffffffffff811115620005f357620005f26200025c565b5b620006018682870162000551565b925050604084013567ffffffffffffffff8111156200062557620006246200025c565b5b620006338682870162000551565b9150509250925092565b600081519050919050565b600082825260208201905092915050565b60005b83811015620006795780820151818401526020810190506200065c565b8381111562000689576000848401525b50505050565b60006200069c826200063d565b620006a8818562000648565b9350620006ba81856020860162000659565b620006c5816200042c565b840191505092915050565b6000608082019050620006e7600083018762000302565b8181036020830152620006fb81866200068f565b905081810360408301526200071181856200068f565b905081810360608301526200072781846200068f565b90509594505050505056fe60806040523480156200001157600080fd5b5060405162004b6f38038062004b6f833981810160405281019062000037919062000454565b836000806101000a81548173ffffffffffffffffffffffffffffffffffffffff021916908373ffffffffffffffffffffffffffffffffffffffff1602179055506001600460008673ffffffffffffffffffffffffffffffffffffffff1673ffffffffffffffffffffffffffffffffffffffff16815260200190815260200160002060006101000a81548160ff0219169083151502179055506005849080600181540180825580915050600190039060005260206000200160009091909190916101000a81548173ffffffffffffffffffffffffffffffffffffffff021916908373ffffffffffffffffffffffffffffffffffffffff16021790555082600190805190602001906200014a929190620001a2565b50816002908051906020019062000163929190620001a2565b5080600390805190602001906200017c929190620001a2565b506000600b60006101000a81548160ff0219169083151502179055505050505062000588565b828054620001b09062000552565b90600052602060002090601f016020900481019282620001d4576000855562000220565b82601f10620001ef57805160ff191683800117855562000220565b8280016001018555821562000220579182015b828111156200021f57825182559160200191906001019062000202565b5b5090506200022f919062000233565b5090565b5b808211156200024e57600081600090555060010162000234565b5090565b6000604051905090565b600080fd5b600080fd5b600073ffffffffffffffffffffffffffffffffffffffff82169050919050565b6000620002938262000266565b9050919050565b620002a58162000286565b8114620002b157600080fd5b50565b600081519050620002c5816200029a565b92915050565b600080fd5b600080fd5b6000601f19601f8301169050919050565b7f4e487b7100000000000000000000000000000000000000000000000000000000600052604160045260246000fd5b6200032082620002d5565b810181811067ffffffffffffffff82111715620003425762000341620002e6565b5b80604052505050565b60006200035762000252565b905062000365828262000315565b919050565b600067ffffffffffffffff821115620003885762000387620002e6565b5b6200039382620002d5565b9050602081019050919050565b60005b83811015620003c0578082015181840152602081019050620003a3565b83811115620003d0576000848401525b50505050565b6000620003ed620003e7846200036a565b6200034b565b9050828152602081018484840111156200040c576200040b620002d0565b5b62000419848285620003a0565b509392505050565b600082601f830112620004395762000438620002cb565b5b81516200044b848260208601620003d6565b91505092915050565b600080600080608085870312156200047157620004706200025c565b5b60006200048187828801620002b4565b945050602085015167ffffffffffffffff811115620004a557620004a462000261565b5b620004b38782880162000421565b935050604085015167ffffffffffffffff811115620004d757620004d662000261565b5b620004e58782880162000421565b925050606085015167ffffffffffffffff81111562000509576200050862000261565b5b620005178782880162000421565b91505092959194509250565b7f4e487b7100000000000000000000000000000000000000000000000000000000600052602260045260246000fd5b600060028204905060018216806200056b57607f821691505b6020821081141562000582576200058162000523565b5b50919050565b6145d780620005986000396000f3fe608060405260043610620000fe5760003560e01c80637f51aaf91162000097578063b52025221162000061578063b52025221462000329578063cfb65804146200036d578063d7bb99ba146200039b578063dfa14e2314620003a757620000fe565b80637f51aaf9146200024357806398b7962814620002875780639c636a0f14620002b55780639d3ed80714620002e557620000fe565b80633e5690f411620000d95780633e5690f414620001655780634051ddac14620001a95780635cf298fb14620001e35780635d1a870a146200021357620000fe565b80632606a10b146200010357806329224406146200011d5780633b6246c2146200014b575b600080fd5b3480156200011057600080fd5b506200011b620003d5565b005b3480156200012a57600080fd5b5062000149600480360381019062000143919062001fbb565b620005dc565b005b3480156200015857600080fd5b506200016362000bce565b005b3480156200017257600080fd5b506200019160048036038101906200018b919062002052565b62000d76565b604051620001a09190620020a1565b60405180910390f35b348015620001b657600080fd5b50620001c162000d96565b604051620001da9b9a9998979695949392919062002252565b60405180910390f35b348015620001f057600080fd5b50620001fb620010e7565b6040516200020a9190620020a1565b60405180910390f35b3480156200022057600080fd5b506200022b6200113b565b6040516200023a9190620020a1565b60405180910390f35b3480156200025057600080fd5b506200026f600480360381019062000269919062002052565b6200114e565b6040516200027e9190620020a1565b60405180910390f35b3480156200029457600080fd5b50620002b36004803603810190620002ad919062001fbb565b6200116e565b005b348015620002c257600080fd5b50620002cd62001516565b604051620002dc919062002336565b60405180910390f35b348015620002f257600080fd5b506200031160048036038101906200030b919062001fbb565b620015a6565b6040516200032091906200235a565b60405180910390f35b3480156200033657600080fd5b506200035560048036038101906200034f919062001fbb565b620015e6565b6040516200036491906200235a565b60405180910390f35b3480156200037a57600080fd5b50620003996004803603810190620003939190620024c8565b62001626565b005b620003a562001a03565b005b348015620003b457600080fd5b50620003d36004803603810190620003cd919062002543565b62001ad5565b005b600860009054906101000a900460ff161562000428576040517f08c379a00000000000000000000000000000000000000000000000000000000081526004016200041f90620025e4565b60405180910390fd5b6001600860006101000a81548160ff021916908315150217905550600b60009054906101000a900460ff161562000496576040517f08c379a00000000000000000000000000000000000000000000000000000000081526004016200048d9062002656565b60405180910390fd5b600960003373ffffffffffffffffffffffffffffffffffffffff1673ffffffffffffffffffffffffffffffffffffffff16815260200190815260200160002060009054906101000a900460ff161562000526576040517f08c379a00000000000000000000000000000000000000000000000000000000081526004016200051d90620026ee565b60405180910390fd5b6200053e6001600a5462001c6e90919063ffffffff16565b506001600960003373ffffffffffffffffffffffffffffffffffffffff1673ffffffffffffffffffffffffffffffffffffffff16815260200190815260200160002060006101000a81548160ff0219169083151502179055506064600a541115620005bf576001600b60006101000a81548160ff0219169083151502179055505b6000600860006101000a81548160ff021916908315150217905550565b600860009054906101000a900460ff16156200062f576040517f08c379a00000000000000000000000000000000000000000000000000000000081526004016200062690620025e4565b60405180910390fd5b6001600860006101000a81548160ff021916908315150217905550600b60009054906101000a900460ff16156200069d576040517f08c379a0000000000000000000000000000000000000000000000000000000008152600401620006949062002656565b60405180910390fd5b600460003373ffffffffffffffffffffffffffffffffffffffff1673ffffffffffffffffffffffffffffffffffffffff16815260200190815260200160002060009054906101000a900460ff166200072c576040517f08c379a0000000000000000000000000000000000000000000000000000000008152600401620007239062002786565b60405180910390fd5b600d805490508110801562000742575060008110155b62000784576040517f08c379a00000000000000000000000000000000000000000000000000000000081526004016200077b90620027f8565b60405180910390fd5b6000600d82815481106200079d576200079c6200281a565b5b9060005260206000209060080201905060018160050160003373ffffffffffffffffffffffffffffffffffffffff1673ffffffffffffffffffffffffffffffffffffffff16815260200190815260200160002060006101000a81548160ff021916908315150217905550620008216001826006015462001c6e90919063ffffffff16565b81600601819055506005805490508160060154141562000baf5760018160070160006101000a81548160ff02191690831515021790555060008160020160009054906101000a900473ffffffffffffffffffffffffffffffffffffffff1630836000018460030160009054906101000a900473ffffffffffffffffffffffffffffffffffffffff168560040160009054906101000a900473ffffffffffffffffffffffffffffffffffffffff16604051620008dc9062001eae565b620008ec9594939291906200294f565b604051809103906000f08015801562000909573d6000803e3d6000fd5b509050600073ffffffffffffffffffffffffffffffffffffffff168260030160009054906101000a900473ffffffffffffffffffffffffffffffffffffffff1673ffffffffffffffffffffffffffffffffffffffff1614620009ff5760008260030160009054906101000a900473ffffffffffffffffffffffffffffffffffffffff1690508073ffffffffffffffffffffffffffffffffffffffff1663988e46c8836040518263ffffffff1660e01b8152600401620009c991906200235a565b600060405180830381600087803b158015620009e457600080fd5b505af1158015620009f9573d6000803e3d6000fd5b50505050505b600073ffffffffffffffffffffffffffffffffffffffff168260040160009054906101000a900473ffffffffffffffffffffffffffffffffffffffff1673ffffffffffffffffffffffffffffffffffffffff161462000af25760008260040160009054906101000a900473ffffffffffffffffffffffffffffffffffffffff1690508073ffffffffffffffffffffffffffffffffffffffff16638758ce83836040518263ffffffff1660e01b815260040162000abc91906200235a565b600060405180830381600087803b15801562000ad757600080fd5b505af115801562000aec573d6000803e3d6000fd5b50505050505b6007819080600181540180825580915050600190039060005260206000200160009091909190916101000a81548173ffffffffffffffffffffffffffffffffffffffff021916908373ffffffffffffffffffffffffffffffffffffffff1602179055506001600660008373ffffffffffffffffffffffffffffffffffffffff1673ffffffffffffffffffffffffffffffffffffffff16815260200190815260200160002060006101000a81548160ff021916908315150217905550505b506000600860006101000a81548160ff02191690831515021790555050565b600460003373ffffffffffffffffffffffffffffffffffffffff1673ffffffffffffffffffffffffffffffffffffffff16815260200190815260200160002060009054906101000a900460ff1662000c5d576040517f08c379a000000000000000000000000000000000000000000000000000000000815260040162000c549062002a29565b60405180910390fd5b60006005805490509050600062000c7e824762001cd190919063ffffffff16565b90506000811162000cc6576040517f08c379a000000000000000000000000000000000000000000000000000000000815260040162000cbd9062002a9b565b60405180910390fd5b60005b8281101562000d71576005818154811062000ce95762000ce86200281a565b5b9060005260206000200160009054906101000a900473ffffffffffffffffffffffffffffffffffffffff1673ffffffffffffffffffffffffffffffffffffffff166108fc839081150290604051600060405180830381858888f1935050505015801562000d5a573d6000803e3d6000fd5b50808062000d689062002aec565b91505062000cc9565b505050565b60046020528060005260406000206000915054906101000a900460ff1681565b6000606080606080606060008060008060008060009054906101000a900473ffffffffffffffffffffffffffffffffffffffff1660016002600360056007600c80549050600d80549050600a54600b60009054906101000a900460ff164789805462000e029062002878565b80601f016020809104026020016040519081016040528092919081815260200182805462000e309062002878565b801562000e815780601f1062000e555761010080835404028352916020019162000e81565b820191906000526020600020905b81548152906001019060200180831162000e6357829003601f168201915b5050505050995088805462000e969062002878565b80601f016020809104026020016040519081016040528092919081815260200182805462000ec49062002878565b801562000f155780601f1062000ee95761010080835404028352916020019162000f15565b820191906000526020600020905b81548152906001019060200180831162000ef757829003601f168201915b5050505050985087805462000f2a9062002878565b80601f016020809104026020016040519081016040528092919081815260200182805462000f589062002878565b801562000fa95780601f1062000f7d5761010080835404028352916020019162000fa9565b820191906000526020600020905b81548152906001019060200180831162000f8b57829003601f168201915b50505050509750868054806020026020016040519081016040528092919081815260200182805480156200103357602002820191906000526020600020905b8160009054906101000a900473ffffffffffffffffffffffffffffffffffffffff1673ffffffffffffffffffffffffffffffffffffffff168152602001906001019080831162000fe8575b5050505050965085805480602002602001604051908101604052809291908181526020018280548015620010bd57602002820191906000526020600020905b8160009054906101000a900473ffffffffffffffffffffffffffffffffffffffff1673ffffffffffffffffffffffffffffffffffffffff168152602001906001019080831162001072575b505050505095509a509a509a509a509a509a509a509a509a509a509a50909192939495969798999a565b6000600460003373ffffffffffffffffffffffffffffffffffffffff1673ffffffffffffffffffffffffffffffffffffffff16815260200190815260200160002060009054906101000a900460ff16905090565b600b60009054906101000a900460ff1681565b60066020528060005260406000206000915054906101000a900460ff1681565b600b60009054906101000a900460ff1615620011c1576040517f08c379a0000000000000000000000000000000000000000000000000000000008152600401620011b89062002656565b60405180910390fd5b600460003373ffffffffffffffffffffffffffffffffffffffff1673ffffffffffffffffffffffffffffffffffffffff16815260200190815260200160002060009054906101000a900460ff1662001250576040517f08c379a0000000000000000000000000000000000000000000000000000000008152600401620012479062002786565b60405180910390fd5b600c805490508110801562001266575060008110155b620012a8576040517f08c379a00000000000000000000000000000000000000000000000000000000081526004016200129f90620027f8565b60405180910390fd5b6000600c8281548110620012c157620012c06200281a565b5b906000526020600020906006020190508060030160003373ffffffffffffffffffffffffffffffffffffffff1673ffffffffffffffffffffffffffffffffffffffff16815260200190815260200160002060009054906101000a900460ff161562001363576040517f08c379a00000000000000000000000000000000000000000000000000000000081526004016200135a9062002bb0565b60405180910390fd5b60018160030160003373ffffffffffffffffffffffffffffffffffffffff1673ffffffffffffffffffffffffffffffffffffffff16815260200190815260200160002060006101000a81548160ff021916908315150217905550620013d76001826004015462001c6e90919063ffffffff16565b816004018190555060058054905081600401541415620015125760018160050160006101000a81548160ff0219169083151502179055506001600460008360020160009054906101000a900473ffffffffffffffffffffffffffffffffffffffff1673ffffffffffffffffffffffffffffffffffffffff1673ffffffffffffffffffffffffffffffffffffffff16815260200190815260200160002060006101000a81548160ff02191690831515021790555060058160020160009054906101000a900473ffffffffffffffffffffffffffffffffffffffff169080600181540180825580915050600190039060005260206000200160009091909190916101000a81548173ffffffffffffffffffffffffffffffffffffffff021916908373ffffffffffffffffffffffffffffffffffffffff1602179055505b5050565b606060078054806020026020016040519081016040528092919081815260200182805480156200159c57602002820191906000526020600020905b8160009054906101000a900473ffffffffffffffffffffffffffffffffffffffff1673ffffffffffffffffffffffffffffffffffffffff168152602001906001019080831162001551575b5050505050905090565b60058181548110620015b757600080fd5b906000526020600020016000915054906101000a900473ffffffffffffffffffffffffffffffffffffffff1681565b60078181548110620015f757600080fd5b906000526020600020016000915054906101000a900473ffffffffffffffffffffffffffffffffffffffff1681565b600860009054906101000a900460ff161562001679576040517f08c379a00000000000000000000000000000000000000000000000000000000081526004016200167090620025e4565b60405180910390fd5b6001600860006101000a81548160ff021916908315150217905550600b60009054906101000a900460ff1615620016e7576040517f08c379a0000000000000000000000000000000000000000000000000000000008152600401620016de9062002656565b60405180910390fd5b600460003373ffffffffffffffffffffffffffffffffffffffff1673ffffffffffffffffffffffffffffffffffffffff16815260200190815260200160002060009054906101000a900460ff1662001776576040517f08c379a00000000000000000000000000000000000000000000000000000000081526004016200176d9062002c48565b60405180910390fd5b620017818262001d2e565b620017c3576040517f08c379a0000000000000000000000000000000000000000000000000000000008152600401620017ba9062002ce0565b60405180910390fd5b620017ce8162001d2e565b62001810576040517f08c379a0000000000000000000000000000000000000000000000000000000008152600401620018079062002d52565b60405180910390fd5b6200181b8262001d82565b6200185d576040517f08c379a0000000000000000000000000000000000000000000000000000000008152600401620018549062002dea565b60405180910390fd5b620018688162001e18565b620018aa576040517f08c379a0000000000000000000000000000000000000000000000000000000008152600401620018a19062002e82565b60405180910390fd5b6000600d600181600181540180825580915050039060005260206000209060080201905083816000019080519060200190620018e892919062001ebc565b50428160010181905550338160020160006101000a81548173ffffffffffffffffffffffffffffffffffffffff021916908373ffffffffffffffffffffffffffffffffffffffff160217905550828160030160006101000a81548173ffffffffffffffffffffffffffffffffffffffff021916908373ffffffffffffffffffffffffffffffffffffffff160217905550818160040160006101000a81548173ffffffffffffffffffffffffffffffffffffffff021916908373ffffffffffffffffffffffffffffffffffffffff1602179055506000816006018190555060008160070160006101000a81548160ff021916908315150217905550506000600860006101000a81548160ff021916908315150217905550505050565b600860009054906101000a900460ff161562001a56576040517f08c379a000000000000000000000000000000000000000000000000000000000815260040162001a4d90620025e4565b60405180910390fd5b6001600860006101000a81548160ff021916908315150217905550606434101562001ab8576040517f08c379a000000000000000000000000000000000000000000000000000000000815260040162001aaf9062002ef4565b60405180910390fd5b6000600860006101000a81548160ff021916908315150217905550565b600b60009054906101000a900460ff161562001b28576040517f08c379a000000000000000000000000000000000000000000000000000000000815260040162001b1f9062002656565b60405180910390fd5b600460003373ffffffffffffffffffffffffffffffffffffffff1673ffffffffffffffffffffffffffffffffffffffff16815260200190815260200160002060009054906101000a900460ff161562001bb8576040517f08c379a000000000000000000000000000000000000000000000000000000000815260040162001baf9062002f8c565b60405180910390fd5b6000600c60018160018154018082558091505003906000526020600020906006020190508181600001908051906020019062001bf692919062001ebc565b50428160010181905550338160020160006101000a81548173ffffffffffffffffffffffffffffffffffffffff021916908373ffffffffffffffffffffffffffffffffffffffff1602179055506000816004018190555060008160050160006101000a81548160ff0219169083151502179055505050565b600080828462001c7f919062002fae565b90508381101562001cc7576040517f08c379a000000000000000000000000000000000000000000000000000000000815260040162001cbe906200305b565b60405180910390fd5b8091505092915050565b600080821162001d18576040517f08c379a000000000000000000000000000000000000000000000000000000000815260040162001d0f90620030cd565b60405180910390fd5b818362001d2691906200311e565b905092915050565b60008073ffffffffffffffffffffffffffffffffffffffff168273ffffffffffffffffffffffffffffffffffffffff16141562001d6f576001905062001d7d565b6000823b9050600081119150505b919050565b60008073ffffffffffffffffffffffffffffffffffffffff168273ffffffffffffffffffffffffffffffffffffffff16141562001dc3576001905062001e13565b600660008373ffffffffffffffffffffffffffffffffffffffff1673ffffffffffffffffffffffffffffffffffffffff16815260200190815260200160002060009054906101000a900460ff1690505b919050565b60008073ffffffffffffffffffffffffffffffffffffffff168273ffffffffffffffffffffffffffffffffffffffff16141562001e59576001905062001ea9565b600660008373ffffffffffffffffffffffffffffffffffffffff1673ffffffffffffffffffffffffffffffffffffffff16815260200190815260200160002060009054906101000a900460ff1690505b919050565b61144b806200315783390190565b82805462001eca9062002878565b90600052602060002090601f01602090048101928262001eee576000855562001f3a565b82601f1062001f0957805160ff191683800117855562001f3a565b8280016001018555821562001f3a579182015b8281111562001f3957825182559160200191906001019062001f1c565b5b50905062001f49919062001f4d565b5090565b5b8082111562001f6857600081600090555060010162001f4e565b5090565b6000604051905090565b600080fd5b600080fd5b6000819050919050565b62001f958162001f80565b811462001fa157600080fd5b50565b60008135905062001fb58162001f8a565b92915050565b60006020828403121562001fd45762001fd362001f76565b5b600062001fe48482850162001fa4565b91505092915050565b600073ffffffffffffffffffffffffffffffffffffffff82169050919050565b60006200201a8262001fed565b9050919050565b6200202c816200200d565b81146200203857600080fd5b50565b6000813590506200204c8162002021565b92915050565b6000602082840312156200206b576200206a62001f76565b5b60006200207b848285016200203b565b91505092915050565b60008115159050919050565b6200209b8162002084565b82525050565b6000602082019050620020b8600083018462002090565b92915050565b620020c9816200200d565b82525050565b600081519050919050565b600082825260208201905092915050565b60005b838110156200210b578082015181840152602081019050620020ee565b838111156200211b576000848401525b50505050565b6000601f19601f8301169050919050565b60006200213f82620020cf565b6200214b8185620020da565b93506200215d818560208601620020eb565b620021688162002121565b840191505092915050565b600081519050919050565b600082825260208201905092915050565b6000819050602082019050919050565b620021aa816200200d565b82525050565b6000620021be83836200219f565b60208301905092915050565b6000602082019050919050565b6000620021e48262002173565b620021f081856200217e565b9350620021fd836200218f565b8060005b8381101562002234578151620022188882620021b0565b97506200222583620021ca565b92505060018101905062002201565b5085935050505092915050565b6200224c8162001f80565b82525050565b6000610160820190506200226a600083018e620020be565b81810360208301526200227e818d62002132565b9050818103604083015262002294818c62002132565b90508181036060830152620022aa818b62002132565b90508181036080830152620022c0818a620021d7565b905081810360a0830152620022d68189620021d7565b9050620022e760c083018862002241565b620022f660e083018762002241565b6200230661010083018662002241565b6200231661012083018562002090565b6200232661014083018462002241565b9c9b505050505050505050505050565b60006020820190508181036000830152620023528184620021d7565b905092915050565b6000602082019050620023716000830184620020be565b92915050565b600080fd5b600080fd5b7f4e487b7100000000000000000000000000000000000000000000000000000000600052604160045260246000fd5b620023bb8262002121565b810181811067ffffffffffffffff82111715620023dd57620023dc62002381565b5b80604052505050565b6000620023f262001f6c565b9050620024008282620023b0565b919050565b600067ffffffffffffffff82111562002423576200242262002381565b5b6200242e8262002121565b9050602081019050919050565b82818337600083830152505050565b6000620024616200245b8462002405565b620023e6565b90508281526020810184848401111562002480576200247f6200237c565b5b6200248d8482856200243b565b509392505050565b600082601f830112620024ad57620024ac62002377565b5b8135620024bf8482602086016200244a565b91505092915050565b600080600060608486031215620024e457620024e362001f76565b5b600084013567ffffffffffffffff81111562002505576200250462001f7b565b5b620025138682870162002495565b935050602062002526868287016200203b565b925050604062002539868287016200203b565b9150509250925092565b6000602082840312156200255c576200255b62001f76565b5b600082013567ffffffffffffffff8111156200257d576200257c62001f7b565b5b6200258b8482850162002495565b91505092915050565b7f5265656e7472616e742063616c6c000000000000000000000000000000000000600082015250565b6000620025cc600e83620020da565b9150620025d98262002594565b602082019050919050565b60006020820190508181036000830152620025ff81620025bd565b9050919050565b7f546869732073746f727920686173206265656e207265706f7274656400000000600082015250565b60006200263e601c83620020da565b91506200264b8262002606565b602082019050919050565b6000602082019050818103600083015262002671816200262f565b9050919050565b7f596f752068617665207265706f7274656420746869732073746f72792062656660008201527f6f72650000000000000000000000000000000000000000000000000000000000602082015250565b6000620026d6602383620020da565b9150620026e38262002678565b604082019050919050565b600060208201905081810360008301526200270981620026c7565b9050919050565b7f4f6e6c7920616e20616363657074656420617574686f722063616e206170707260008201527f6f76652061207265717565737400000000000000000000000000000000000000602082015250565b60006200276e602d83620020da565b91506200277b8262002710565b604082019050919050565b60006020820190508181036000830152620027a1816200275f565b9050919050565b7f496e646578206f7574206f6620626f756e647300000000000000000000000000600082015250565b6000620027e0601383620020da565b9150620027ed82620027a8565b602082019050919050565b600060208201905081810360008301526200281381620027d1565b9050919050565b7f4e487b7100000000000000000000000000000000000000000000000000000000600052603260045260246000fd5b7f4e487b7100000000000000000000000000000000000000000000000000000000600052602260045260246000fd5b600060028204905060018216806200289157607f821691505b60208210811415620028a857620028a762002849565b5b50919050565b60008190508160005260206000209050919050565b60008154620028d28162002878565b620028de8186620020da565b94506001821660008114620028fc57600181146200290f5762002946565b60ff198316865260208601935062002946565b6200291a85620028ae565b60005b838110156200293e578154818901526001820191506020810190506200291d565b808801955050505b50505092915050565b600060a082019050620029666000830188620020be565b620029756020830187620020be565b8181036040830152620029898186620028c3565b90506200299a6060830185620020be565b620029a96080830184620020be565b9695505050505050565b7f4f6e6c7920616e20617574686f72697a656420617574686f722063616e20646960008201527f7370656e73652072657761726473000000000000000000000000000000000000602082015250565b600062002a11602e83620020da565b915062002a1e82620029b3565b604082019050919050565b6000602082019050818103600083015262002a448162002a02565b9050919050565b7f4e6f2072657761726420746f2064697370656e73650000000000000000000000600082015250565b600062002a83601583620020da565b915062002a908262002a4b565b602082019050919050565b6000602082019050818103600083015262002ab68162002a74565b9050919050565b7f4e487b7100000000000000000000000000000000000000000000000000000000600052601160045260246000fd5b600062002af98262001f80565b91507fffffffffffffffffffffffffffffffffffffffffffffffffffffffffffffffff82141562002b2f5762002b2e62002abd565b5b600182019050919050565b7f5468697320617574686f7220616c726561647920617070726f7665642062656660008201527f6f72650000000000000000000000000000000000000000000000000000000000602082015250565b600062002b98602383620020da565b915062002ba58262002b3a565b604082019050919050565b6000602082019050818103600083015262002bcb8162002b89565b9050919050565b7f4f6e6c7920616e20616363657074656420617574686f722063616e206174746560008201527f6d707420746f2061646420636861707465720000000000000000000000000000602082015250565b600062002c30603283620020da565b915062002c3d8262002bd2565b604082019050919050565b6000602082019050818103600083015262002c638162002c21565b9050919050565b7f506172656e742063686170746572206d757374206265206120636f6e7472616360008201527f7400000000000000000000000000000000000000000000000000000000000000602082015250565b600062002cc8602183620020da565b915062002cd58262002c6a565b604082019050919050565b6000602082019050818103600083015262002cfb8162002cb9565b9050919050565b7f4368696c642063686170746572206d757374206265206120636f6e7472616374600082015250565b600062002d3a602083620020da565b915062002d478262002d02565b602082019050919050565b6000602082019050818103600083015262002d6d8162002d2b565b9050919050565b7f506172656e742063686170746572206d7573742062656c6f6e6720746f20746860008201527f652073616d652073746f72790000000000000000000000000000000000000000602082015250565b600062002dd2602c83620020da565b915062002ddf8262002d74565b604082019050919050565b6000602082019050818103600083015262002e058162002dc3565b9050919050565b7f4368696c642063686170746572206d7573742062656c6f6e6720746f2074686560008201527f2073616d652073746f7279000000000000000000000000000000000000000000602082015250565b600062002e6a602b83620020da565b915062002e778262002e0c565b604082019050919050565b6000602082019050818103600083015262002e9d8162002e5b565b9050919050565b7f4d696e696d756d20636f6e747269627574696f6e206973203130302057656900600082015250565b600062002edc601f83620020da565b915062002ee98262002ea4565b602082019050919050565b6000602082019050818103600083015262002f0f8162002ecd565b9050919050565b7f417574686f7220616c72656164792065786973747320696e20746865206c697360008201527f74206f6620617574686f72730000000000000000000000000000000000000000602082015250565b600062002f74602c83620020da565b915062002f818262002f16565b604082019050919050565b6000602082019050818103600083015262002fa78162002f65565b9050919050565b600062002fbb8262001f80565b915062002fc88362001f80565b9250827fffffffffffffffffffffffffffffffffffffffffffffffffffffffffffffffff03821115620030005762002fff62002abd565b5b828201905092915050565b7f536166654d6174683a206164646974696f6e206f766572666c6f770000000000600082015250565b600062003043601b83620020da565b915062003050826200300b565b602082019050919050565b60006020820190508181036000830152620030768162003034565b9050919050565b7f536166654d6174683a206469766973696f6e206279207a65726f000000000000600082015250565b6000620030b5601a83620020da565b9150620030c2826200307d565b602082019050919050565b60006020820190508181036000830152620030e881620030a6565b9050919050565b7f4e487b7100000000000000000000000000000000000000000000000000000000600052601260045260246000fd5b60006200312b8262001f80565b9150620031388362001f80565b9250826200314b576200314a620030ef565b5b82820490509291505056fe60806040523480156200001157600080fd5b506040516200144b3803806200144b8339818101604052810190620000379190620004c0565b84600160006101000a81548173ffffffffffffffffffffffffffffffffffffffff021916908373ffffffffffffffffffffffffffffffffffffffff160217905550836000806101000a81548173ffffffffffffffffffffffffffffffffffffffff021916908373ffffffffffffffffffffffffffffffffffffffff1602179055508260029080519060200190620000d09291906200020e565b50600073ffffffffffffffffffffffffffffffffffffffff168273ffffffffffffffffffffffffffffffffffffffff16146200016a576003829080600181540180825580915050600190039060005260206000200160009091909190916101000a81548173ffffffffffffffffffffffffffffffffffffffff021916908373ffffffffffffffffffffffffffffffffffffffff1602179055505b600073ffffffffffffffffffffffffffffffffffffffff168173ffffffffffffffffffffffffffffffffffffffff161462000203576004819080600181540180825580915050600190039060005260206000200160009091909190916101000a81548173ffffffffffffffffffffffffffffffffffffffff021916908373ffffffffffffffffffffffffffffffffffffffff1602179055505b5050505050620005cc565b8280546200021c9062000596565b90600052602060002090601f0160209004810192826200024057600085556200028c565b82601f106200025b57805160ff19168380011785556200028c565b828001600101855582156200028c579182015b828111156200028b5782518255916020019190600101906200026e565b5b5090506200029b91906200029f565b5090565b5b80821115620002ba576000816000905550600101620002a0565b5090565b6000604051905090565b600080fd5b600080fd5b600073ffffffffffffffffffffffffffffffffffffffff82169050919050565b6000620002ff82620002d2565b9050919050565b6200031181620002f2565b81146200031d57600080fd5b50565b600081519050620003318162000306565b92915050565b600080fd5b600080fd5b6000601f19601f8301169050919050565b7f4e487b7100000000000000000000000000000000000000000000000000000000600052604160045260246000fd5b6200038c8262000341565b810181811067ffffffffffffffff82111715620003ae57620003ad62000352565b5b80604052505050565b6000620003c3620002be565b9050620003d1828262000381565b919050565b600067ffffffffffffffff821115620003f457620003f362000352565b5b620003ff8262000341565b9050602081019050919050565b60005b838110156200042c5780820151818401526020810190506200040f565b838111156200043c576000848401525b50505050565b6000620004596200045384620003d6565b620003b7565b9050828152602081018484840111156200047857620004776200033c565b5b620004858482856200040c565b509392505050565b600082601f830112620004a557620004a462000337565b5b8151620004b784826020860162000442565b91505092915050565b600080600080600060a08688031215620004df57620004de620002c8565b5b6000620004ef8882890162000320565b9550506020620005028882890162000320565b945050604086015167ffffffffffffffff811115620005265762000525620002cd565b5b62000534888289016200048d565b9350506060620005478882890162000320565b92505060806200055a8882890162000320565b9150509295509295909350565b7f4e487b7100000000000000000000000000000000000000000000000000000000600052602260045260246000fd5b60006002820490506001821680620005af57607f821691505b60208210811415620005c657620005c562000567565b5b50919050565b610e6f80620005dc6000396000f3fe608060405234801561001057600080fd5b506004361061009e5760003560e01c8063a6c3e6b911610066578063a6c3e6b914610126578063c5fe6ffc14610144578063c623674f14610174578063e5a0af3d14610192578063ed777791146101b05761009e565b80634051ddac146100a357806346c922d1146100c65780638758ce83146100e4578063988e46c814610100578063a523b88a1461011c575b600080fd5b6100ab6101e0565b6040516100bd96959493929190610a3e565b60405180910390f35b6100ce6103e8565b6040516100db9190610ab4565b60405180910390f35b6100fe60048036038101906100f99190610b00565b61040c565b005b61011a60048036038101906101159190610b00565b610500565b005b6101246105f4565b005b61012e6106f7565b60405161013b9190610ab4565b60405180910390f35b61015e60048036038101906101599190610b59565b61071d565b60405161016b9190610ab4565b60405180910390f35b61017c61075c565b6040516101899190610b86565b60405180910390f35b61019a6107ea565b6040516101a79190610ba8565b60405180910390f35b6101ca60048036038101906101c59190610b59565b6107f0565b6040516101d79190610ab4565b60405180910390f35b600080606080606060008060009054906101000a900473ffffffffffffffffffffffffffffffffffffffff16600160009054906101000a900473ffffffffffffffffffffffffffffffffffffffff1660026003600460065483805461024490610bf2565b80601f016020809104026020016040519081016040528092919081815260200182805461027090610bf2565b80156102bd5780601f10610292576101008083540402835291602001916102bd565b820191906000526020600020905b8154815290600101906020018083116102a057829003601f168201915b505050505093508280548060200260200160405190810160405280929190818152602001828054801561034557602002820191906000526020600020905b8160009054906101000a900473ffffffffffffffffffffffffffffffffffffffff1673ffffffffffffffffffffffffffffffffffffffff16815260200190600101908083116102fb575b50505050509250818054806020026020016040519081016040528092919081815260200182805480156103cd57602002820191906000526020600020905b8160009054906101000a900473ffffffffffffffffffffffffffffffffffffffff1673ffffffffffffffffffffffffffffffffffffffff1681526020019060010190808311610383575b50505050509150955095509550955095509550909192939495565b60008054906101000a900473ffffffffffffffffffffffffffffffffffffffff1681565b60008054906101000a900473ffffffffffffffffffffffffffffffffffffffff1673ffffffffffffffffffffffffffffffffffffffff163373ffffffffffffffffffffffffffffffffffffffff161461049a576040517f08c379a000000000000000000000000000000000000000000000000000000000815260040161049190610cbc565b60405180910390fd5b6003819080600181540180825580915050600190039060005260206000200160009091909190916101000a81548173ffffffffffffffffffffffffffffffffffffffff021916908373ffffffffffffffffffffffffffffffffffffffff16021790555050565b60008054906101000a900473ffffffffffffffffffffffffffffffffffffffff1673ffffffffffffffffffffffffffffffffffffffff163373ffffffffffffffffffffffffffffffffffffffff161461058e576040517f08c379a000000000000000000000000000000000000000000000000000000000815260040161058590610cbc565b60405180910390fd5b6004819080600181540180825580915050600190039060005260206000200160009091909190916101000a81548173ffffffffffffffffffffffffffffffffffffffff021916908373ffffffffffffffffffffffffffffffffffffffff16021790555050565b600560003373ffffffffffffffffffffffffffffffffffffffff1673ffffffffffffffffffffffffffffffffffffffff16815260200190815260200160002060009054906101000a900460ff1615610681576040517f08c379a000000000000000000000000000000000000000000000000000000000815260040161067890610d28565b60405180910390fd5b6001600560003373ffffffffffffffffffffffffffffffffffffffff1673ffffffffffffffffffffffffffffffffffffffff16815260200190815260200160002060006101000a81548160ff0219169083151502179055506106ef600160065461082f90919063ffffffff16565b600681905550565b600160009054906101000a900473ffffffffffffffffffffffffffffffffffffffff1681565b6004818154811061072d57600080fd5b906000526020600020016000915054906101000a900473ffffffffffffffffffffffffffffffffffffffff1681565b6002805461076990610bf2565b80601f016020809104026020016040519081016040528092919081815260200182805461079590610bf2565b80156107e25780601f106107b7576101008083540402835291602001916107e2565b820191906000526020600020905b8154815290600101906020018083116107c557829003601f168201915b505050505081565b60065481565b6003818154811061080057600080fd5b906000526020600020016000915054906101000a900473ffffffffffffffffffffffffffffffffffffffff1681565b600080828461083e9190610d77565b905083811015610883576040517f08c379a000000000000000000000000000000000000000000000000000000000815260040161087a90610e19565b60405180910390fd5b8091505092915050565b600073ffffffffffffffffffffffffffffffffffffffff82169050919050565b60006108b88261088d565b9050919050565b6108c8816108ad565b82525050565b600081519050919050565b600082825260208201905092915050565b60005b838110156109085780820151818401526020810190506108ed565b83811115610917576000848401525b50505050565b6000601f19601f8301169050919050565b6000610939826108ce565b61094381856108d9565b93506109538185602086016108ea565b61095c8161091d565b840191505092915050565b600081519050919050565b600082825260208201905092915050565b6000819050602082019050919050565b61099c816108ad565b82525050565b60006109ae8383610993565b60208301905092915050565b6000602082019050919050565b60006109d282610967565b6109dc8185610972565b93506109e783610983565b8060005b83811015610a185781516109ff88826109a2565b9750610a0a836109ba565b9250506001810190506109eb565b5085935050505092915050565b6000819050919050565b610a3881610a25565b82525050565b600060c082019050610a5360008301896108bf565b610a6060208301886108bf565b8181036040830152610a72818761092e565b90508181036060830152610a8681866109c7565b90508181036080830152610a9a81856109c7565b9050610aa960a0830184610a2f565b979650505050505050565b6000602082019050610ac960008301846108bf565b92915050565b600080fd5b610add816108ad565b8114610ae857600080fd5b50565b600081359050610afa81610ad4565b92915050565b600060208284031215610b1657610b15610acf565b5b6000610b2484828501610aeb565b91505092915050565b610b3681610a25565b8114610b4157600080fd5b50565b600081359050610b5381610b2d565b92915050565b600060208284031215610b6f57610b6e610acf565b5b6000610b7d84828501610b44565b91505092915050565b60006020820190508181036000830152610ba0818461092e565b905092915050565b6000602082019050610bbd6000830184610a2f565b92915050565b7f4e487b7100000000000000000000000000000000000000000000000000000000600052602260045260246000fd5b60006002820490506001821680610c0a57607f821691505b60208210811415610c1e57610c1d610bc3565b5b50919050565b7f546869732066756e6374696f6e2068617320746f2062652063616c6c6564206660008201527f726f6d207468652073746f727920636f6e747261637420627920616e2061636360208201527f657074656420617574686f72206f6e6c79000000000000000000000000000000604082015250565b6000610ca66051836108d9565b9150610cb182610c24565b606082019050919050565b60006020820190508181036000830152610cd581610c99565b9050919050565b7f596f75206c696b656420746869732073746f7279206265666f72650000000000600082015250565b6000610d12601b836108d9565b9150610d1d82610cdc565b602082019050919050565b60006020820190508181036000830152610d4181610d05565b9050919050565b7f4e487b7100000000000000000000000000000000000000000000000000000000600052601160045260246000fd5b6000610d8282610a25565b9150610d8d83610a25565b9250827fffffffffffffffffffffffffffffffffffffffffffffffffffffffffffffffff03821115610dc257610dc1610d48565b5b828201905092915050565b7f536166654d6174683a206164646974696f6e206f766572666c6f770000000000600082015250565b6000610e03601b836108d9565b9150610e0e82610dcd565b602082019050919050565b60006020820190508181036000830152610e3281610df6565b905091905056fea26469706673582212203028a4aec6c74546e7eb264d9b0fe9b5829ed5f44dcb10032dcf6f78a276af9664736f6c63430008090033a2646970667358221220c103eaef46b81d9a25d2f1b1ebd9e052555e8243625a79156880041879c8e1b664736f6c63430008090033a26469706673582212200b4d75914d17e4ba7eaf7f8f58e41f473717fe27b26621922ebd41d4f3c9bbd664736f6c63430008090033","opcodes":"PUSH1 0x80 PUSH1 0x40 MSTORE CALLVALUE DUP1 ISZERO PUSH2 0x10 JUMPI PUSH1 0x0 DUP1 REVERT JUMPDEST POP PUSH2 0x52D7 DUP1 PUSH2 0x20 PUSH1 0x0 CODECOPY PUSH1 0x0 RETURN INVALID PUSH1 0x80 PUSH1 0x40 MSTORE CALLVALUE DUP1 ISZERO PUSH3 0x11 JUMPI PUSH1 0x0 DUP1 REVERT JUMPDEST POP PUSH1 0x4 CALLDATASIZE LT PUSH3 0x46 JUMPI PUSH1 0x0 CALLDATALOAD PUSH1 0xE0 SHR DUP1 PUSH4 0x18351EA7 EQ PUSH3 0x4B JUMPI DUP1 PUSH4 0x2FF2BDD5 EQ PUSH3 0x81 JUMPI DUP1 PUSH4 0xF4B955F3 EQ PUSH3 0xA3 JUMPI JUMPDEST PUSH1 0x0 DUP1 REVERT JUMPDEST PUSH3 0x69 PUSH1 0x4 DUP1 CALLDATASIZE SUB DUP2 ADD SWAP1 PUSH3 0x63 SWAP2 SWAP1 PUSH3 0x29C JUMP JUMPDEST PUSH3 0xC3 JUMP JUMPDEST PUSH1 0x40 MLOAD PUSH3 0x78 SWAP2 SWAP1 PUSH3 0x313 JUMP JUMPDEST PUSH1 0x40 MLOAD DUP1 SWAP2 SUB SWAP1 RETURN JUMPDEST PUSH3 0x8B PUSH3 0x103 JUMP JUMPDEST PUSH1 0x40 MLOAD PUSH3 0x9A SWAP2 SWAP1 PUSH3 0x3FE JUMP JUMPDEST PUSH1 0x40 MLOAD DUP1 SWAP2 SUB SWAP1 RETURN JUMPDEST PUSH3 0xC1 PUSH1 0x4 DUP1 CALLDATASIZE SUB DUP2 ADD SWAP1 PUSH3 0xBB SWAP2 SWAP1 PUSH3 0x584 JUMP JUMPDEST PUSH3 0x193 JUMP JUMPDEST STOP JUMPDEST PUSH1 0x0 DUP2 DUP2 SLOAD DUP2 LT PUSH3 0xD4 JUMPI PUSH1 0x0 DUP1 REVERT JUMPDEST SWAP1 PUSH1 0x0 MSTORE PUSH1 0x20 PUSH1 0x0 KECCAK256 ADD PUSH1 0x0 SWAP2 POP SLOAD SWAP1 PUSH2 0x100 EXP SWAP1 DIV PUSH20 0xFFFFFFFFFFFFFFFFFFFFFFFFFFFFFFFFFFFFFFFF AND DUP2 JUMP JUMPDEST PUSH1 0x60 PUSH1 0x0 DUP1 SLOAD DUP1 PUSH1 0x20 MUL PUSH1 0x20 ADD PUSH1 0x40 MLOAD SWAP1 DUP2 ADD PUSH1 0x40 MSTORE DUP1 SWAP3 SWAP2 SWAP1 DUP2 DUP2 MSTORE PUSH1 0x20 ADD DUP3 DUP1 SLOAD DUP1 ISZERO PUSH3 0x189 JUMPI PUSH1 0x20 MUL DUP3 ADD SWAP2 SWAP1 PUSH1 0x0 MSTORE PUSH1 0x20 PUSH1 0x0 KECCAK256 SWAP1 JUMPDEST DUP2 PUSH1 0x0 SWAP1 SLOAD SWAP1 PUSH2 0x100 EXP SWAP1 DIV PUSH20 0xFFFFFFFFFFFFFFFFFFFFFFFFFFFFFFFFFFFFFFFF AND PUSH20 0xFFFFFFFFFFFFFFFFFFFFFFFFFFFFFFFFFFFFFFFF AND DUP2 MSTORE PUSH1 0x20 ADD SWAP1 PUSH1 0x1 ADD SWAP1 DUP1 DUP4 GT PUSH3 0x13E JUMPI JUMPDEST POP POP POP POP POP SWAP1 POP SWAP1 JUMP JUMPDEST PUSH1 0x0 CALLER DUP5 DUP5 DUP5 PUSH1 0x40 MLOAD PUSH3 0x1A7 SWAP1 PUSH3 0x23F JUMP JUMPDEST PUSH3 0x1B6 SWAP5 SWAP4 SWAP3 SWAP2 SWAP1 PUSH3 0x6D0 JUMP JUMPDEST PUSH1 0x40 MLOAD DUP1 SWAP2 SUB SWAP1 PUSH1 0x0 CREATE DUP1 ISZERO DUP1 ISZERO PUSH3 0x1D3 JUMPI RETURNDATASIZE PUSH1 0x0 DUP1 RETURNDATACOPY RETURNDATASIZE PUSH1 0x0 REVERT JUMPDEST POP SWAP1 POP PUSH1 0x0 DUP2 SWAP1 DUP1 PUSH1 0x1 DUP2 SLOAD ADD DUP1 DUP3 SSTORE DUP1 SWAP2 POP POP PUSH1 0x1 SWAP1 SUB SWAP1 PUSH1 0x0 MSTORE PUSH1 0x20 PUSH1 0x0 KECCAK256 ADD PUSH1 0x0 SWAP1 SWAP2 SWAP1 SWAP2 SWAP1 SWAP2 PUSH2 0x100 EXP DUP2 SLOAD DUP2 PUSH20 0xFFFFFFFFFFFFFFFFFFFFFFFFFFFFFFFFFFFFFFFF MUL NOT AND SWAP1 DUP4 PUSH20 0xFFFFFFFFFFFFFFFFFFFFFFFFFFFFFFFFFFFFFFFF AND MUL OR SWAP1 SSTORE POP POP POP POP POP JUMP JUMPDEST PUSH2 0x4B6F DUP1 PUSH3 0x733 DUP4 CODECOPY ADD SWAP1 JUMP JUMPDEST PUSH1 0x0 PUSH1 0x40 MLOAD SWAP1 POP SWAP1 JUMP JUMPDEST PUSH1 0x0 DUP1 REVERT JUMPDEST PUSH1 0x0 DUP1 REVERT JUMPDEST PUSH1 0x0 DUP2 SWAP1 POP SWAP2 SWAP1 POP JUMP JUMPDEST PUSH3 0x276 DUP2 PUSH3 0x261 JUMP JUMPDEST DUP2 EQ PUSH3 0x282 JUMPI PUSH1 0x0 DUP1 REVERT JUMPDEST POP JUMP JUMPDEST PUSH1 0x0 DUP2 CALLDATALOAD SWAP1 POP PUSH3 0x296 DUP2 PUSH3 0x26B JUMP JUMPDEST SWAP3 SWAP2 POP POP JUMP JUMPDEST PUSH1 0x0 PUSH1 0x20 DUP3 DUP5 SUB SLT ISZERO PUSH3 0x2B5 JUMPI PUSH3 0x2B4 PUSH3 0x257 JUMP JUMPDEST JUMPDEST PUSH1 0x0 PUSH3 0x2C5 DUP5 DUP3 DUP6 ADD PUSH3 0x285 JUMP JUMPDEST SWAP2 POP POP SWAP3 SWAP2 POP POP JUMP JUMPDEST PUSH1 0x0 PUSH20 0xFFFFFFFFFFFFFFFFFFFFFFFFFFFFFFFFFFFFFFFF DUP3 AND SWAP1 POP SWAP2 SWAP1 POP JUMP JUMPDEST PUSH1 0x0 PUSH3 0x2FB DUP3 PUSH3 0x2CE JUMP JUMPDEST SWAP1 POP SWAP2 SWAP1 POP JUMP JUMPDEST PUSH3 0x30D DUP2 PUSH3 0x2EE JUMP JUMPDEST DUP3 MSTORE POP POP JUMP JUMPDEST PUSH1 0x0 PUSH1 0x20 DUP3 ADD SWAP1 POP PUSH3 0x32A PUSH1 0x0 DUP4 ADD DUP5 PUSH3 0x302 JUMP JUMPDEST SWAP3 SWAP2 POP POP JUMP JUMPDEST PUSH1 0x0 DUP2 MLOAD SWAP1 POP SWAP2 SWAP1 POP JUMP JUMPDEST PUSH1 0x0 DUP3 DUP3 MSTORE PUSH1 0x20 DUP3 ADD SWAP1 POP SWAP3 SWAP2 POP POP JUMP JUMPDEST PUSH1 0x0 DUP2 SWAP1 POP PUSH1 0x20 DUP3 ADD SWAP1 POP SWAP2 SWAP1 POP JUMP JUMPDEST PUSH3 0x367 DUP2 PUSH3 0x2EE JUMP JUMPDEST DUP3 MSTORE POP POP JUMP JUMPDEST PUSH1 0x0 PUSH3 0x37B DUP4 DUP4 PUSH3 0x35C JUMP JUMPDEST PUSH1 0x20 DUP4 ADD SWAP1 POP SWAP3 SWAP2 POP POP JUMP JUMPDEST PUSH1 0x0 PUSH1 0x20 DUP3 ADD SWAP1 POP SWAP2 SWAP1 POP JUMP JUMPDEST PUSH1 0x0 PUSH3 0x3A1 DUP3 PUSH3 0x330 JUMP JUMPDEST PUSH3 0x3AD DUP2 DUP6 PUSH3 0x33B JUMP JUMPDEST SWAP4 POP PUSH3 0x3BA DUP4 PUSH3 0x34C JUMP JUMPDEST DUP1 PUSH1 0x0 JUMPDEST DUP4 DUP2 LT ISZERO PUSH3 0x3F1 JUMPI DUP2 MLOAD PUSH3 0x3D5 DUP9 DUP3 PUSH3 0x36D JUMP JUMPDEST SWAP8 POP PUSH3 0x3E2 DUP4 PUSH3 0x387 JUMP JUMPDEST SWAP3 POP POP PUSH1 0x1 DUP2 ADD SWAP1 POP PUSH3 0x3BE JUMP JUMPDEST POP DUP6 SWAP4 POP POP POP POP SWAP3 SWAP2 POP POP JUMP JUMPDEST PUSH1 0x0 PUSH1 0x20 DUP3 ADD SWAP1 POP DUP2 DUP2 SUB PUSH1 0x0 DUP4 ADD MSTORE PUSH3 0x41A DUP2 DUP5 PUSH3 0x394 JUMP JUMPDEST SWAP1 POP SWAP3 SWAP2 POP POP JUMP JUMPDEST PUSH1 0x0 DUP1 REVERT JUMPDEST PUSH1 0x0 DUP1 REVERT JUMPDEST PUSH1 0x0 PUSH1 0x1F NOT PUSH1 0x1F DUP4 ADD AND SWAP1 POP SWAP2 SWAP1 POP JUMP JUMPDEST PUSH32 0x4E487B7100000000000000000000000000000000000000000000000000000000 PUSH1 0x0 MSTORE PUSH1 0x41 PUSH1 0x4 MSTORE PUSH1 0x24 PUSH1 0x0 REVERT JUMPDEST PUSH3 0x477 DUP3 PUSH3 0x42C JUMP JUMPDEST DUP2 ADD DUP2 DUP2 LT PUSH8 0xFFFFFFFFFFFFFFFF DUP3 GT OR ISZERO PUSH3 0x499 JUMPI PUSH3 0x498 PUSH3 0x43D JUMP JUMPDEST JUMPDEST DUP1 PUSH1 0x40 MSTORE POP POP POP JUMP JUMPDEST PUSH1 0x0 PUSH3 0x4AE PUSH3 0x24D JUMP JUMPDEST SWAP1 POP PUSH3 0x4BC DUP3 DUP3 PUSH3 0x46C JUMP JUMPDEST SWAP2 SWAP1 POP JUMP JUMPDEST PUSH1 0x0 PUSH8 0xFFFFFFFFFFFFFFFF DUP3 GT ISZERO PUSH3 0x4DF JUMPI PUSH3 0x4DE PUSH3 0x43D JUMP JUMPDEST JUMPDEST PUSH3 0x4EA DUP3 PUSH3 0x42C JUMP JUMPDEST SWAP1 POP PUSH1 0x20 DUP2 ADD SWAP1 POP SWAP2 SWAP1 POP JUMP JUMPDEST DUP3 DUP2 DUP4 CALLDATACOPY PUSH1 0x0 DUP4 DUP4 ADD MSTORE POP POP POP JUMP JUMPDEST PUSH1 0x0 PUSH3 0x51D PUSH3 0x517 DUP5 PUSH3 0x4C1 JUMP JUMPDEST PUSH3 0x4A2 JUMP JUMPDEST SWAP1 POP DUP3 DUP2 MSTORE PUSH1 0x20 DUP2 ADD DUP5 DUP5 DUP5 ADD GT ISZERO PUSH3 0x53C JUMPI PUSH3 0x53B PUSH3 0x427 JUMP JUMPDEST JUMPDEST PUSH3 0x549 DUP5 DUP3 DUP6 PUSH3 0x4F7 JUMP JUMPDEST POP SWAP4 SWAP3 POP POP POP JUMP JUMPDEST PUSH1 0x0 DUP3 PUSH1 0x1F DUP4 ADD SLT PUSH3 0x569 JUMPI PUSH3 0x568 PUSH3 0x422 JUMP JUMPDEST JUMPDEST DUP2 CALLDATALOAD PUSH3 0x57B DUP5 DUP3 PUSH1 0x20 DUP7 ADD PUSH3 0x506 JUMP JUMPDEST SWAP2 POP POP SWAP3 SWAP2 POP POP JUMP JUMPDEST PUSH1 0x0 DUP1 PUSH1 0x0 PUSH1 0x60 DUP5 DUP7 SUB SLT ISZERO PUSH3 0x5A0 JUMPI PUSH3 0x59F PUSH3 0x257 JUMP JUMPDEST JUMPDEST PUSH1 0x0 DUP5 ADD CALLDATALOAD PUSH8 0xFFFFFFFFFFFFFFFF DUP2 GT ISZERO PUSH3 0x5C1 JUMPI PUSH3 0x5C0 PUSH3 0x25C JUMP JUMPDEST JUMPDEST PUSH3 0x5CF DUP7 DUP3 DUP8 ADD PUSH3 0x551 JUMP JUMPDEST SWAP4 POP POP PUSH1 0x20 DUP5 ADD CALLDATALOAD PUSH8 0xFFFFFFFFFFFFFFFF DUP2 GT ISZERO PUSH3 0x5F3 JUMPI PUSH3 0x5F2 PUSH3 0x25C JUMP JUMPDEST JUMPDEST PUSH3 0x601 DUP7 DUP3 DUP8 ADD PUSH3 0x551 JUMP JUMPDEST SWAP3 POP POP PUSH1 0x40 DUP5 ADD CALLDATALOAD PUSH8 0xFFFFFFFFFFFFFFFF DUP2 GT ISZERO PUSH3 0x625 JUMPI PUSH3 0x624 PUSH3 0x25C JUMP JUMPDEST JUMPDEST PUSH3 0x633 DUP7 DUP3 DUP8 ADD PUSH3 0x551 JUMP JUMPDEST SWAP2 POP POP SWAP3 POP SWAP3 POP SWAP3 JUMP JUMPDEST PUSH1 0x0 DUP2 MLOAD SWAP1 POP SWAP2 SWAP1 POP JUMP JUMPDEST PUSH1 0x0 DUP3 DUP3 MSTORE PUSH1 0x20 DUP3 ADD SWAP1 POP SWAP3 SWAP2 POP POP JUMP JUMPDEST PUSH1 0x0 JUMPDEST DUP4 DUP2 LT ISZERO PUSH3 0x679 JUMPI DUP1 DUP3 ADD MLOAD DUP2 DUP5 ADD MSTORE PUSH1 0x20 DUP2 ADD SWAP1 POP PUSH3 0x65C JUMP JUMPDEST DUP4 DUP2 GT ISZERO PUSH3 0x689 JUMPI PUSH1 0x0 DUP5 DUP5 ADD MSTORE JUMPDEST POP POP POP POP JUMP JUMPDEST PUSH1 0x0 PUSH3 0x69C DUP3 PUSH3 0x63D JUMP JUMPDEST PUSH3 0x6A8 DUP2 DUP6 PUSH3 0x648 JUMP JUMPDEST SWAP4 POP PUSH3 0x6BA DUP2 DUP6 PUSH1 0x20 DUP7 ADD PUSH3 0x659 JUMP JUMPDEST PUSH3 0x6C5 DUP2 PUSH3 0x42C JUMP JUMPDEST DUP5 ADD SWAP2 POP POP SWAP3 SWAP2 POP POP JUMP JUMPDEST PUSH1 0x0 PUSH1 0x80 DUP3 ADD SWAP1 POP PUSH3 0x6E7 PUSH1 0x0 DUP4 ADD DUP8 PUSH3 0x302 JUMP JUMPDEST DUP2 DUP2 SUB PUSH1 0x20 DUP4 ADD MSTORE PUSH3 0x6FB DUP2 DUP7 PUSH3 0x68F JUMP JUMPDEST SWAP1 POP DUP2 DUP2 SUB PUSH1 0x40 DUP4 ADD MSTORE PUSH3 0x711 DUP2 DUP6 PUSH3 0x68F JUMP JUMPDEST SWAP1 POP DUP2 DUP2 SUB PUSH1 0x60 DUP4 ADD MSTORE PUSH3 0x727 DUP2 DUP5 PUSH3 0x68F JUMP JUMPDEST SWAP1 POP SWAP6 SWAP5 POP POP POP POP POP JUMP INVALID PUSH1 0x80 PUSH1 0x40 MSTORE CALLVALUE DUP1 ISZERO PUSH3 0x11 JUMPI PUSH1 0x0 DUP1 REVERT JUMPDEST POP PUSH1 0x40 MLOAD PUSH3 0x4B6F CODESIZE SUB DUP1 PUSH3 0x4B6F DUP4 CODECOPY DUP2 DUP2 ADD PUSH1 0x40 MSTORE DUP2 ADD SWAP1 PUSH3 0x37 SWAP2 SWAP1 PUSH3 0x454 JUMP JUMPDEST DUP4 PUSH1 0x0 DUP1 PUSH2 0x100 EXP DUP2 SLOAD DUP2 PUSH20 0xFFFFFFFFFFFFFFFFFFFFFFFFFFFFFFFFFFFFFFFF MUL NOT AND SWAP1 DUP4 PUSH20 0xFFFFFFFFFFFFFFFFFFFFFFFFFFFFFFFFFFFFFFFF AND MUL OR SWAP1 SSTORE POP PUSH1 0x1 PUSH1 0x4 PUSH1 0x0 DUP7 PUSH20 0xFFFFFFFFFFFFFFFFFFFFFFFFFFFFFFFFFFFFFFFF AND PUSH20 0xFFFFFFFFFFFFFFFFFFFFFFFFFFFFFFFFFFFFFFFF AND DUP2 MSTORE PUSH1 0x20 ADD SWAP1 DUP2 MSTORE PUSH1 0x20 ADD PUSH1 0x0 KECCAK256 PUSH1 0x0 PUSH2 0x100 EXP DUP2 SLOAD DUP2 PUSH1 0xFF MUL NOT AND SWAP1 DUP4 ISZERO ISZERO MUL OR SWAP1 SSTORE POP PUSH1 0x5 DUP5 SWAP1 DUP1 PUSH1 0x1 DUP2 SLOAD ADD DUP1 DUP3 SSTORE DUP1 SWAP2 POP POP PUSH1 0x1 SWAP1 SUB SWAP1 PUSH1 0x0 MSTORE PUSH1 0x20 PUSH1 0x0 KECCAK256 ADD PUSH1 0x0 SWAP1 SWAP2 SWAP1 SWAP2 SWAP1 SWAP2 PUSH2 0x100 EXP DUP2 SLOAD DUP2 PUSH20 0xFFFFFFFFFFFFFFFFFFFFFFFFFFFFFFFFFFFFFFFF MUL NOT AND SWAP1 DUP4 PUSH20 0xFFFFFFFFFFFFFFFFFFFFFFFFFFFFFFFFFFFFFFFF AND MUL OR SWAP1 SSTORE POP DUP3 PUSH1 0x1 SWAP1 DUP1 MLOAD SWAP1 PUSH1 0x20 ADD SWAP1 PUSH3 0x14A SWAP3 SWAP2 SWAP1 PUSH3 0x1A2 JUMP JUMPDEST POP DUP2 PUSH1 0x2 SWAP1 DUP1 MLOAD SWAP1 PUSH1 0x20 ADD SWAP1 PUSH3 0x163 SWAP3 SWAP2 SWAP1 PUSH3 0x1A2 JUMP JUMPDEST POP DUP1 PUSH1 0x3 SWAP1 DUP1 MLOAD SWAP1 PUSH1 0x20 ADD SWAP1 PUSH3 0x17C SWAP3 SWAP2 SWAP1 PUSH3 0x1A2 JUMP JUMPDEST POP PUSH1 0x0 PUSH1 0xB PUSH1 0x0 PUSH2 0x100 EXP DUP2 SLOAD DUP2 PUSH1 0xFF MUL NOT AND SWAP1 DUP4 ISZERO ISZERO MUL OR SWAP1 SSTORE POP POP POP POP POP PUSH3 0x588 JUMP JUMPDEST DUP3 DUP1 SLOAD PUSH3 0x1B0 SWAP1 PUSH3 0x552 JUMP JUMPDEST SWAP1 PUSH1 0x0 MSTORE PUSH1 0x20 PUSH1 0x0 KECCAK256 SWAP1 PUSH1 0x1F ADD PUSH1 0x20 SWAP1 DIV DUP2 ADD SWAP3 DUP3 PUSH3 0x1D4 JUMPI PUSH1 0x0 DUP6 SSTORE PUSH3 0x220 JUMP JUMPDEST DUP3 PUSH1 0x1F LT PUSH3 0x1EF JUMPI DUP1 MLOAD PUSH1 0xFF NOT AND DUP4 DUP1 ADD OR DUP6 SSTORE PUSH3 0x220 JUMP JUMPDEST DUP3 DUP1 ADD PUSH1 0x1 ADD DUP6 SSTORE DUP3 ISZERO PUSH3 0x220 JUMPI SWAP2 DUP3 ADD JUMPDEST DUP3 DUP2 GT ISZERO PUSH3 0x21F JUMPI DUP3 MLOAD DUP3 SSTORE SWAP2 PUSH1 0x20 ADD SWAP2 SWAP1 PUSH1 0x1 ADD SWAP1 PUSH3 0x202 JUMP JUMPDEST JUMPDEST POP SWAP1 POP PUSH3 0x22F SWAP2 SWAP1 PUSH3 0x233 JUMP JUMPDEST POP SWAP1 JUMP JUMPDEST JUMPDEST DUP1 DUP3 GT ISZERO PUSH3 0x24E JUMPI PUSH1 0x0 DUP2 PUSH1 0x0 SWAP1 SSTORE POP PUSH1 0x1 ADD PUSH3 0x234 JUMP JUMPDEST POP SWAP1 JUMP JUMPDEST PUSH1 0x0 PUSH1 0x40 MLOAD SWAP1 POP SWAP1 JUMP JUMPDEST PUSH1 0x0 DUP1 REVERT JUMPDEST PUSH1 0x0 DUP1 REVERT JUMPDEST PUSH1 0x0 PUSH20 0xFFFFFFFFFFFFFFFFFFFFFFFFFFFFFFFFFFFFFFFF DUP3 AND SWAP1 POP SWAP2 SWAP1 POP JUMP JUMPDEST PUSH1 0x0 PUSH3 0x293 DUP3 PUSH3 0x266 JUMP JUMPDEST SWAP1 POP SWAP2 SWAP1 POP JUMP JUMPDEST PUSH3 0x2A5 DUP2 PUSH3 0x286 JUMP JUMPDEST DUP2 EQ PUSH3 0x2B1 JUMPI PUSH1 0x0 DUP1 REVERT JUMPDEST POP JUMP JUMPDEST PUSH1 0x0 DUP2 MLOAD SWAP1 POP PUSH3 0x2C5 DUP2 PUSH3 0x29A JUMP JUMPDEST SWAP3 SWAP2 POP POP JUMP JUMPDEST PUSH1 0x0 DUP1 REVERT JUMPDEST PUSH1 0x0 DUP1 REVERT JUMPDEST PUSH1 0x0 PUSH1 0x1F NOT PUSH1 0x1F DUP4 ADD AND SWAP1 POP SWAP2 SWAP1 POP JUMP JUMPDEST PUSH32 0x4E487B7100000000000000000000000000000000000000000000000000000000 PUSH1 0x0 MSTORE PUSH1 0x41 PUSH1 0x4 MSTORE PUSH1 0x24 PUSH1 0x0 REVERT JUMPDEST PUSH3 0x320 DUP3 PUSH3 0x2D5 JUMP JUMPDEST DUP2 ADD DUP2 DUP2 LT PUSH8 0xFFFFFFFFFFFFFFFF DUP3 GT OR ISZERO PUSH3 0x342 JUMPI PUSH3 0x341 PUSH3 0x2E6 JUMP JUMPDEST JUMPDEST DUP1 PUSH1 0x40 MSTORE POP POP POP JUMP JUMPDEST PUSH1 0x0 PUSH3 0x357 PUSH3 0x252 JUMP JUMPDEST SWAP1 POP PUSH3 0x365 DUP3 DUP3 PUSH3 0x315 JUMP JUMPDEST SWAP2 SWAP1 POP JUMP JUMPDEST PUSH1 0x0 PUSH8 0xFFFFFFFFFFFFFFFF DUP3 GT ISZERO PUSH3 0x388 JUMPI PUSH3 0x387 PUSH3 0x2E6 JUMP JUMPDEST JUMPDEST PUSH3 0x393 DUP3 PUSH3 0x2D5 JUMP JUMPDEST SWAP1 POP PUSH1 0x20 DUP2 ADD SWAP1 POP SWAP2 SWAP1 POP JUMP JUMPDEST PUSH1 0x0 JUMPDEST DUP4 DUP2 LT ISZERO PUSH3 0x3C0 JUMPI DUP1 DUP3 ADD MLOAD DUP2 DUP5 ADD MSTORE PUSH1 0x20 DUP2 ADD SWAP1 POP PUSH3 0x3A3 JUMP JUMPDEST DUP4 DUP2 GT ISZERO PUSH3 0x3D0 JUMPI PUSH1 0x0 DUP5 DUP5 ADD MSTORE JUMPDEST POP POP POP POP JUMP JUMPDEST PUSH1 0x0 PUSH3 0x3ED PUSH3 0x3E7 DUP5 PUSH3 0x36A JUMP JUMPDEST PUSH3 0x34B JUMP JUMPDEST SWAP1 POP DUP3 DUP2 MSTORE PUSH1 0x20 DUP2 ADD DUP5 DUP5 DUP5 ADD GT ISZERO PUSH3 0x40C JUMPI PUSH3 0x40B PUSH3 0x2D0 JUMP JUMPDEST JUMPDEST PUSH3 0x419 DUP5 DUP3 DUP6 PUSH3 0x3A0 JUMP JUMPDEST POP SWAP4 SWAP3 POP POP POP JUMP JUMPDEST PUSH1 0x0 DUP3 PUSH1 0x1F DUP4 ADD SLT PUSH3 0x439 JUMPI PUSH3 0x438 PUSH3 0x2CB JUMP JUMPDEST JUMPDEST DUP2 MLOAD PUSH3 0x44B DUP5 DUP3 PUSH1 0x20 DUP7 ADD PUSH3 0x3D6 JUMP JUMPDEST SWAP2 POP POP SWAP3 SWAP2 POP POP JUMP JUMPDEST PUSH1 0x0 DUP1 PUSH1 0x0 DUP1 PUSH1 0x80 DUP6 DUP8 SUB SLT ISZERO PUSH3 0x471 JUMPI PUSH3 0x470 PUSH3 0x25C JUMP JUMPDEST JUMPDEST PUSH1 0x0 PUSH3 0x481 DUP8 DUP3 DUP9 ADD PUSH3 0x2B4 JUMP JUMPDEST SWAP5 POP POP PUSH1 0x20 DUP6 ADD MLOAD PUSH8 0xFFFFFFFFFFFFFFFF DUP2 GT ISZERO PUSH3 0x4A5 JUMPI PUSH3 0x4A4 PUSH3 0x261 JUMP JUMPDEST JUMPDEST PUSH3 0x4B3 DUP8 DUP3 DUP9 ADD PUSH3 0x421 JUMP JUMPDEST SWAP4 POP POP PUSH1 0x40 DUP6 ADD MLOAD PUSH8 0xFFFFFFFFFFFFFFFF DUP2 GT ISZERO PUSH3 0x4D7 JUMPI PUSH3 0x4D6 PUSH3 0x261 JUMP JUMPDEST JUMPDEST PUSH3 0x4E5 DUP8 DUP3 DUP9 ADD PUSH3 0x421 JUMP JUMPDEST SWAP3 POP POP PUSH1 0x60 DUP6 ADD MLOAD PUSH8 0xFFFFFFFFFFFFFFFF DUP2 GT ISZERO PUSH3 0x509 JUMPI PUSH3 0x508 PUSH3 0x261 JUMP JUMPDEST JUMPDEST PUSH3 0x517 DUP8 DUP3 DUP9 ADD PUSH3 0x421 JUMP JUMPDEST SWAP2 POP POP SWAP3 SWAP6 SWAP2 SWAP5 POP SWAP3 POP JUMP JUMPDEST PUSH32 0x4E487B7100000000000000000000000000000000000000000000000000000000 PUSH1 0x0 MSTORE PUSH1 0x22 PUSH1 0x4 MSTORE PUSH1 0x24 PUSH1 0x0 REVERT JUMPDEST PUSH1 0x0 PUSH1 0x2 DUP3 DIV SWAP1 POP PUSH1 0x1 DUP3 AND DUP1 PUSH3 0x56B JUMPI PUSH1 0x7F DUP3 AND SWAP2 POP JUMPDEST PUSH1 0x20 DUP3 LT DUP2 EQ ISZERO PUSH3 0x582 JUMPI PUSH3 0x581 PUSH3 0x523 JUMP JUMPDEST JUMPDEST POP SWAP2 SWAP1 POP JUMP JUMPDEST PUSH2 0x45D7 DUP1 PUSH3 0x598 PUSH1 0x0 CODECOPY PUSH1 0x0 RETURN INVALID PUSH1 0x80 PUSH1 0x40 MSTORE PUSH1 0x4 CALLDATASIZE LT PUSH3 0xFE JUMPI PUSH1 0x0 CALLDATALOAD PUSH1 0xE0 SHR DUP1 PUSH4 0x7F51AAF9 GT PUSH3 0x97 JUMPI DUP1 PUSH4 0xB5202522 GT PUSH3 0x61 JUMPI DUP1 PUSH4 0xB5202522 EQ PUSH3 0x329 JUMPI DUP1 PUSH4 0xCFB65804 EQ PUSH3 0x36D JUMPI DUP1 PUSH4 0xD7BB99BA EQ PUSH3 0x39B JUMPI DUP1 PUSH4 0xDFA14E23 EQ PUSH3 0x3A7 JUMPI PUSH3 0xFE JUMP JUMPDEST DUP1 PUSH4 0x7F51AAF9 EQ PUSH3 0x243 JUMPI DUP1 PUSH4 0x98B79628 EQ PUSH3 0x287 JUMPI DUP1 PUSH4 0x9C636A0F EQ PUSH3 0x2B5 JUMPI DUP1 PUSH4 0x9D3ED807 EQ PUSH3 0x2E5 JUMPI PUSH3 0xFE JUMP JUMPDEST DUP1 PUSH4 0x3E5690F4 GT PUSH3 0xD9 JUMPI DUP1 PUSH4 0x3E5690F4 EQ PUSH3 0x165 JUMPI DUP1 PUSH4 0x4051DDAC EQ PUSH3 0x1A9 JUMPI DUP1 PUSH4 0x5CF298FB EQ PUSH3 0x1E3 JUMPI DUP1 PUSH4 0x5D1A870A EQ PUSH3 0x213 JUMPI PUSH3 0xFE JUMP JUMPDEST DUP1 PUSH4 0x2606A10B EQ PUSH3 0x103 JUMPI DUP1 PUSH4 0x29224406 EQ PUSH3 0x11D JUMPI DUP1 PUSH4 0x3B6246C2 EQ PUSH3 0x14B JUMPI JUMPDEST PUSH1 0x0 DUP1 REVERT JUMPDEST CALLVALUE DUP1 ISZERO PUSH3 0x110 JUMPI PUSH1 0x0 DUP1 REVERT JUMPDEST POP PUSH3 0x11B PUSH3 0x3D5 JUMP JUMPDEST STOP JUMPDEST CALLVALUE DUP1 ISZERO PUSH3 0x12A JUMPI PUSH1 0x0 DUP1 REVERT JUMPDEST POP PUSH3 0x149 PUSH1 0x4 DUP1 CALLDATASIZE SUB DUP2 ADD SWAP1 PUSH3 0x143 SWAP2 SWAP1 PUSH3 0x1FBB JUMP JUMPDEST PUSH3 0x5DC JUMP JUMPDEST STOP JUMPDEST CALLVALUE DUP1 ISZERO PUSH3 0x158 JUMPI PUSH1 0x0 DUP1 REVERT JUMPDEST POP PUSH3 0x163 PUSH3 0xBCE JUMP JUMPDEST STOP JUMPDEST CALLVALUE DUP1 ISZERO PUSH3 0x172 JUMPI PUSH1 0x0 DUP1 REVERT JUMPDEST POP PUSH3 0x191 PUSH1 0x4 DUP1 CALLDATASIZE SUB DUP2 ADD SWAP1 PUSH3 0x18B SWAP2 SWAP1 PUSH3 0x2052 JUMP JUMPDEST PUSH3 0xD76 JUMP JUMPDEST PUSH1 0x40 MLOAD PUSH3 0x1A0 SWAP2 SWAP1 PUSH3 0x20A1 JUMP JUMPDEST PUSH1 0x40 MLOAD DUP1 SWAP2 SUB SWAP1 RETURN JUMPDEST CALLVALUE DUP1 ISZERO PUSH3 0x1B6 JUMPI PUSH1 0x0 DUP1 REVERT JUMPDEST POP PUSH3 0x1C1 PUSH3 0xD96 JUMP JUMPDEST PUSH1 0x40 MLOAD PUSH3 0x1DA SWAP12 SWAP11 SWAP10 SWAP9 SWAP8 SWAP7 SWAP6 SWAP5 SWAP4 SWAP3 SWAP2 SWAP1 PUSH3 0x2252 JUMP JUMPDEST PUSH1 0x40 MLOAD DUP1 SWAP2 SUB SWAP1 RETURN JUMPDEST CALLVALUE DUP1 ISZERO PUSH3 0x1F0 JUMPI PUSH1 0x0 DUP1 REVERT JUMPDEST POP PUSH3 0x1FB PUSH3 0x10E7 JUMP JUMPDEST PUSH1 0x40 MLOAD PUSH3 0x20A SWAP2 SWAP1 PUSH3 0x20A1 JUMP JUMPDEST PUSH1 0x40 MLOAD DUP1 SWAP2 SUB SWAP1 RETURN JUMPDEST CALLVALUE DUP1 ISZERO PUSH3 0x220 JUMPI PUSH1 0x0 DUP1 REVERT JUMPDEST POP PUSH3 0x22B PUSH3 0x113B JUMP JUMPDEST PUSH1 0x40 MLOAD PUSH3 0x23A SWAP2 SWAP1 PUSH3 0x20A1 JUMP JUMPDEST PUSH1 0x40 MLOAD DUP1 SWAP2 SUB SWAP1 RETURN JUMPDEST CALLVALUE DUP1 ISZERO PUSH3 0x250 JUMPI PUSH1 0x0 DUP1 REVERT JUMPDEST POP PUSH3 0x26F PUSH1 0x4 DUP1 CALLDATASIZE SUB DUP2 ADD SWAP1 PUSH3 0x269 SWAP2 SWAP1 PUSH3 0x2052 JUMP JUMPDEST PUSH3 0x114E JUMP JUMPDEST PUSH1 0x40 MLOAD PUSH3 0x27E SWAP2 SWAP1 PUSH3 0x20A1 JUMP JUMPDEST PUSH1 0x40 MLOAD DUP1 SWAP2 SUB SWAP1 RETURN JUMPDEST CALLVALUE DUP1 ISZERO PUSH3 0x294 JUMPI PUSH1 0x0 DUP1 REVERT JUMPDEST POP PUSH3 0x2B3 PUSH1 0x4 DUP1 CALLDATASIZE SUB DUP2 ADD SWAP1 PUSH3 0x2AD SWAP2 SWAP1 PUSH3 0x1FBB JUMP JUMPDEST PUSH3 0x116E JUMP JUMPDEST STOP JUMPDEST CALLVALUE DUP1 ISZERO PUSH3 0x2C2 JUMPI PUSH1 0x0 DUP1 REVERT JUMPDEST POP PUSH3 0x2CD PUSH3 0x1516 JUMP JUMPDEST PUSH1 0x40 MLOAD PUSH3 0x2DC SWAP2 SWAP1 PUSH3 0x2336 JUMP JUMPDEST PUSH1 0x40 MLOAD DUP1 SWAP2 SUB SWAP1 RETURN JUMPDEST CALLVALUE DUP1 ISZERO PUSH3 0x2F2 JUMPI PUSH1 0x0 DUP1 REVERT JUMPDEST POP PUSH3 0x311 PUSH1 0x4 DUP1 CALLDATASIZE SUB DUP2 ADD SWAP1 PUSH3 0x30B SWAP2 SWAP1 PUSH3 0x1FBB JUMP JUMPDEST PUSH3 0x15A6 JUMP JUMPDEST PUSH1 0x40 MLOAD PUSH3 0x320 SWAP2 SWAP1 PUSH3 0x235A JUMP JUMPDEST PUSH1 0x40 MLOAD DUP1 SWAP2 SUB SWAP1 RETURN JUMPDEST CALLVALUE DUP1 ISZERO PUSH3 0x336 JUMPI PUSH1 0x0 DUP1 REVERT JUMPDEST POP PUSH3 0x355 PUSH1 0x4 DUP1 CALLDATASIZE SUB DUP2 ADD SWAP1 PUSH3 0x34F SWAP2 SWAP1 PUSH3 0x1FBB JUMP JUMPDEST PUSH3 0x15E6 JUMP JUMPDEST PUSH1 0x40 MLOAD PUSH3 0x364 SWAP2 SWAP1 PUSH3 0x235A JUMP JUMPDEST PUSH1 0x40 MLOAD DUP1 SWAP2 SUB SWAP1 RETURN JUMPDEST CALLVALUE DUP1 ISZERO PUSH3 0x37A JUMPI PUSH1 0x0 DUP1 REVERT JUMPDEST POP PUSH3 0x399 PUSH1 0x4 DUP1 CALLDATASIZE SUB DUP2 ADD SWAP1 PUSH3 0x393 SWAP2 SWAP1 PUSH3 0x24C8 JUMP JUMPDEST PUSH3 0x1626 JUMP JUMPDEST STOP JUMPDEST PUSH3 0x3A5 PUSH3 0x1A03 JUMP JUMPDEST STOP JUMPDEST CALLVALUE DUP1 ISZERO PUSH3 0x3B4 JUMPI PUSH1 0x0 DUP1 REVERT JUMPDEST POP PUSH3 0x3D3 PUSH1 0x4 DUP1 CALLDATASIZE SUB DUP2 ADD SWAP1 PUSH3 0x3CD SWAP2 SWAP1 PUSH3 0x2543 JUMP JUMPDEST PUSH3 0x1AD5 JUMP JUMPDEST STOP JUMPDEST PUSH1 0x8 PUSH1 0x0 SWAP1 SLOAD SWAP1 PUSH2 0x100 EXP SWAP1 DIV PUSH1 0xFF AND ISZERO PUSH3 0x428 JUMPI PUSH1 0x40 MLOAD PUSH32 0x8C379A000000000000000000000000000000000000000000000000000000000 DUP2 MSTORE PUSH1 0x4 ADD PUSH3 0x41F SWAP1 PUSH3 0x25E4 JUMP JUMPDEST PUSH1 0x40 MLOAD DUP1 SWAP2 SUB SWAP1 REVERT JUMPDEST PUSH1 0x1 PUSH1 0x8 PUSH1 0x0 PUSH2 0x100 EXP DUP2 SLOAD DUP2 PUSH1 0xFF MUL NOT AND SWAP1 DUP4 ISZERO ISZERO MUL OR SWAP1 SSTORE POP PUSH1 0xB PUSH1 0x0 SWAP1 SLOAD SWAP1 PUSH2 0x100 EXP SWAP1 DIV PUSH1 0xFF AND ISZERO PUSH3 0x496 JUMPI PUSH1 0x40 MLOAD PUSH32 0x8C379A000000000000000000000000000000000000000000000000000000000 DUP2 MSTORE PUSH1 0x4 ADD PUSH3 0x48D SWAP1 PUSH3 0x2656 JUMP JUMPDEST PUSH1 0x40 MLOAD DUP1 SWAP2 SUB SWAP1 REVERT JUMPDEST PUSH1 0x9 PUSH1 0x0 CALLER PUSH20 0xFFFFFFFFFFFFFFFFFFFFFFFFFFFFFFFFFFFFFFFF AND PUSH20 0xFFFFFFFFFFFFFFFFFFFFFFFFFFFFFFFFFFFFFFFF AND DUP2 MSTORE PUSH1 0x20 ADD SWAP1 DUP2 MSTORE PUSH1 0x20 ADD PUSH1 0x0 KECCAK256 PUSH1 0x0 SWAP1 SLOAD SWAP1 PUSH2 0x100 EXP SWAP1 DIV PUSH1 0xFF AND ISZERO PUSH3 0x526 JUMPI PUSH1 0x40 MLOAD PUSH32 0x8C379A000000000000000000000000000000000000000000000000000000000 DUP2 MSTORE PUSH1 0x4 ADD PUSH3 0x51D SWAP1 PUSH3 0x26EE JUMP JUMPDEST PUSH1 0x40 MLOAD DUP1 SWAP2 SUB SWAP1 REVERT JUMPDEST PUSH3 0x53E PUSH1 0x1 PUSH1 0xA SLOAD PUSH3 0x1C6E SWAP1 SWAP2 SWAP1 PUSH4 0xFFFFFFFF AND JUMP JUMPDEST POP PUSH1 0x1 PUSH1 0x9 PUSH1 0x0 CALLER PUSH20 0xFFFFFFFFFFFFFFFFFFFFFFFFFFFFFFFFFFFFFFFF AND PUSH20 0xFFFFFFFFFFFFFFFFFFFFFFFFFFFFFFFFFFFFFFFF AND DUP2 MSTORE PUSH1 0x20 ADD SWAP1 DUP2 MSTORE PUSH1 0x20 ADD PUSH1 0x0 KECCAK256 PUSH1 0x0 PUSH2 0x100 EXP DUP2 SLOAD DUP2 PUSH1 0xFF MUL NOT AND SWAP1 DUP4 ISZERO ISZERO MUL OR SWAP1 SSTORE POP PUSH1 0x64 PUSH1 0xA SLOAD GT ISZERO PUSH3 0x5BF JUMPI PUSH1 0x1 PUSH1 0xB PUSH1 0x0 PUSH2 0x100 EXP DUP2 SLOAD DUP2 PUSH1 0xFF MUL NOT AND SWAP1 DUP4 ISZERO ISZERO MUL OR SWAP1 SSTORE POP JUMPDEST PUSH1 0x0 PUSH1 0x8 PUSH1 0x0 PUSH2 0x100 EXP DUP2 SLOAD DUP2 PUSH1 0xFF MUL NOT AND SWAP1 DUP4 ISZERO ISZERO MUL OR SWAP1 SSTORE POP JUMP JUMPDEST PUSH1 0x8 PUSH1 0x0 SWAP1 SLOAD SWAP1 PUSH2 0x100 EXP SWAP1 DIV PUSH1 0xFF AND ISZERO PUSH3 0x62F JUMPI PUSH1 0x40 MLOAD PUSH32 0x8C379A000000000000000000000000000000000000000000000000000000000 DUP2 MSTORE PUSH1 0x4 ADD PUSH3 0x626 SWAP1 PUSH3 0x25E4 JUMP JUMPDEST PUSH1 0x40 MLOAD DUP1 SWAP2 SUB SWAP1 REVERT JUMPDEST PUSH1 0x1 PUSH1 0x8 PUSH1 0x0 PUSH2 0x100 EXP DUP2 SLOAD DUP2 PUSH1 0xFF MUL NOT AND SWAP1 DUP4 ISZERO ISZERO MUL OR SWAP1 SSTORE POP PUSH1 0xB PUSH1 0x0 SWAP1 SLOAD SWAP1 PUSH2 0x100 EXP SWAP1 DIV PUSH1 0xFF AND ISZERO PUSH3 0x69D JUMPI PUSH1 0x40 MLOAD PUSH32 0x8C379A000000000000000000000000000000000000000000000000000000000 DUP2 MSTORE PUSH1 0x4 ADD PUSH3 0x694 SWAP1 PUSH3 0x2656 JUMP JUMPDEST PUSH1 0x40 MLOAD DUP1 SWAP2 SUB SWAP1 REVERT JUMPDEST PUSH1 0x4 PUSH1 0x0 CALLER PUSH20 0xFFFFFFFFFFFFFFFFFFFFFFFFFFFFFFFFFFFFFFFF AND PUSH20 0xFFFFFFFFFFFFFFFFFFFFFFFFFFFFFFFFFFFFFFFF AND DUP2 MSTORE PUSH1 0x20 ADD SWAP1 DUP2 MSTORE PUSH1 0x20 ADD PUSH1 0x0 KECCAK256 PUSH1 0x0 SWAP1 SLOAD SWAP1 PUSH2 0x100 EXP SWAP1 DIV PUSH1 0xFF AND PUSH3 0x72C JUMPI PUSH1 0x40 MLOAD PUSH32 0x8C379A000000000000000000000000000000000000000000000000000000000 DUP2 MSTORE PUSH1 0x4 ADD PUSH3 0x723 SWAP1 PUSH3 0x2786 JUMP JUMPDEST PUSH1 0x40 MLOAD DUP1 SWAP2 SUB SWAP1 REVERT JUMPDEST PUSH1 0xD DUP1 SLOAD SWAP1 POP DUP2 LT DUP1 ISZERO PUSH3 0x742 JUMPI POP PUSH1 0x0 DUP2 LT ISZERO JUMPDEST PUSH3 0x784 JUMPI PUSH1 0x40 MLOAD PUSH32 0x8C379A000000000000000000000000000000000000000000000000000000000 DUP2 MSTORE PUSH1 0x4 ADD PUSH3 0x77B SWAP1 PUSH3 0x27F8 JUMP JUMPDEST PUSH1 0x40 MLOAD DUP1 SWAP2 SUB SWAP1 REVERT JUMPDEST PUSH1 0x0 PUSH1 0xD DUP3 DUP2 SLOAD DUP2 LT PUSH3 0x79D JUMPI PUSH3 0x79C PUSH3 0x281A JUMP JUMPDEST JUMPDEST SWAP1 PUSH1 0x0 MSTORE PUSH1 0x20 PUSH1 0x0 KECCAK256 SWAP1 PUSH1 0x8 MUL ADD SWAP1 POP PUSH1 0x1 DUP2 PUSH1 0x5 ADD PUSH1 0x0 CALLER PUSH20 0xFFFFFFFFFFFFFFFFFFFFFFFFFFFFFFFFFFFFFFFF AND PUSH20 0xFFFFFFFFFFFFFFFFFFFFFFFFFFFFFFFFFFFFFFFF AND DUP2 MSTORE PUSH1 0x20 ADD SWAP1 DUP2 MSTORE PUSH1 0x20 ADD PUSH1 0x0 KECCAK256 PUSH1 0x0 PUSH2 0x100 EXP DUP2 SLOAD DUP2 PUSH1 0xFF MUL NOT AND SWAP1 DUP4 ISZERO ISZERO MUL OR SWAP1 SSTORE POP PUSH3 0x821 PUSH1 0x1 DUP3 PUSH1 0x6 ADD SLOAD PUSH3 0x1C6E SWAP1 SWAP2 SWAP1 PUSH4 0xFFFFFFFF AND JUMP JUMPDEST DUP2 PUSH1 0x6 ADD DUP2 SWAP1 SSTORE POP PUSH1 0x5 DUP1 SLOAD SWAP1 POP DUP2 PUSH1 0x6 ADD SLOAD EQ ISZERO PUSH3 0xBAF JUMPI PUSH1 0x1 DUP2 PUSH1 0x7 ADD PUSH1 0x0 PUSH2 0x100 EXP DUP2 SLOAD DUP2 PUSH1 0xFF MUL NOT AND SWAP1 DUP4 ISZERO ISZERO MUL OR SWAP1 SSTORE POP PUSH1 0x0 DUP2 PUSH1 0x2 ADD PUSH1 0x0 SWAP1 SLOAD SWAP1 PUSH2 0x100 EXP SWAP1 DIV PUSH20 0xFFFFFFFFFFFFFFFFFFFFFFFFFFFFFFFFFFFFFFFF AND ADDRESS DUP4 PUSH1 0x0 ADD DUP5 PUSH1 0x3 ADD PUSH1 0x0 SWAP1 SLOAD SWAP1 PUSH2 0x100 EXP SWAP1 DIV PUSH20 0xFFFFFFFFFFFFFFFFFFFFFFFFFFFFFFFFFFFFFFFF AND DUP6 PUSH1 0x4 ADD PUSH1 0x0 SWAP1 SLOAD SWAP1 PUSH2 0x100 EXP SWAP1 DIV PUSH20 0xFFFFFFFFFFFFFFFFFFFFFFFFFFFFFFFFFFFFFFFF AND PUSH1 0x40 MLOAD PUSH3 0x8DC SWAP1 PUSH3 0x1EAE JUMP JUMPDEST PUSH3 0x8EC SWAP6 SWAP5 SWAP4 SWAP3 SWAP2 SWAP1 PUSH3 0x294F JUMP JUMPDEST PUSH1 0x40 MLOAD DUP1 SWAP2 SUB SWAP1 PUSH1 0x0 CREATE DUP1 ISZERO DUP1 ISZERO PUSH3 0x909 JUMPI RETURNDATASIZE PUSH1 0x0 DUP1 RETURNDATACOPY RETURNDATASIZE PUSH1 0x0 REVERT JUMPDEST POP SWAP1 POP PUSH1 0x0 PUSH20 0xFFFFFFFFFFFFFFFFFFFFFFFFFFFFFFFFFFFFFFFF AND DUP3 PUSH1 0x3 ADD PUSH1 0x0 SWAP1 SLOAD SWAP1 PUSH2 0x100 EXP SWAP1 DIV PUSH20 0xFFFFFFFFFFFFFFFFFFFFFFFFFFFFFFFFFFFFFFFF AND PUSH20 0xFFFFFFFFFFFFFFFFFFFFFFFFFFFFFFFFFFFFFFFF AND EQ PUSH3 0x9FF JUMPI PUSH1 0x0 DUP3 PUSH1 0x3 ADD PUSH1 0x0 SWAP1 SLOAD SWAP1 PUSH2 0x100 EXP SWAP1 DIV PUSH20 0xFFFFFFFFFFFFFFFFFFFFFFFFFFFFFFFFFFFFFFFF AND SWAP1 POP DUP1 PUSH20 0xFFFFFFFFFFFFFFFFFFFFFFFFFFFFFFFFFFFFFFFF AND PUSH4 0x988E46C8 DUP4 PUSH1 0x40 MLOAD DUP3 PUSH4 0xFFFFFFFF AND PUSH1 0xE0 SHL DUP2 MSTORE PUSH1 0x4 ADD PUSH3 0x9C9 SWAP2 SWAP1 PUSH3 0x235A JUMP JUMPDEST PUSH1 0x0 PUSH1 0x40 MLOAD DUP1 DUP4 SUB DUP2 PUSH1 0x0 DUP8 DUP1 EXTCODESIZE ISZERO DUP1 ISZERO PUSH3 0x9E4 JUMPI PUSH1 0x0 DUP1 REVERT JUMPDEST POP GAS CALL ISZERO DUP1 ISZERO PUSH3 0x9F9 JUMPI RETURNDATASIZE PUSH1 0x0 DUP1 RETURNDATACOPY RETURNDATASIZE PUSH1 0x0 REVERT JUMPDEST POP POP POP POP POP JUMPDEST PUSH1 0x0 PUSH20 0xFFFFFFFFFFFFFFFFFFFFFFFFFFFFFFFFFFFFFFFF AND DUP3 PUSH1 0x4 ADD PUSH1 0x0 SWAP1 SLOAD SWAP1 PUSH2 0x100 EXP SWAP1 DIV PUSH20 0xFFFFFFFFFFFFFFFFFFFFFFFFFFFFFFFFFFFFFFFF AND PUSH20 0xFFFFFFFFFFFFFFFFFFFFFFFFFFFFFFFFFFFFFFFF AND EQ PUSH3 0xAF2 JUMPI PUSH1 0x0 DUP3 PUSH1 0x4 ADD PUSH1 0x0 SWAP1 SLOAD SWAP1 PUSH2 0x100 EXP SWAP1 DIV PUSH20 0xFFFFFFFFFFFFFFFFFFFFFFFFFFFFFFFFFFFFFFFF AND SWAP1 POP DUP1 PUSH20 0xFFFFFFFFFFFFFFFFFFFFFFFFFFFFFFFFFFFFFFFF AND PUSH4 0x8758CE83 DUP4 PUSH1 0x40 MLOAD DUP3 PUSH4 0xFFFFFFFF AND PUSH1 0xE0 SHL DUP2 MSTORE PUSH1 0x4 ADD PUSH3 0xABC SWAP2 SWAP1 PUSH3 0x235A JUMP JUMPDEST PUSH1 0x0 PUSH1 0x40 MLOAD DUP1 DUP4 SUB DUP2 PUSH1 0x0 DUP8 DUP1 EXTCODESIZE ISZERO DUP1 ISZERO PUSH3 0xAD7 JUMPI PUSH1 0x0 DUP1 REVERT JUMPDEST POP GAS CALL ISZERO DUP1 ISZERO PUSH3 0xAEC JUMPI RETURNDATASIZE PUSH1 0x0 DUP1 RETURNDATACOPY RETURNDATASIZE PUSH1 0x0 REVERT JUMPDEST POP POP POP POP POP JUMPDEST PUSH1 0x7 DUP2 SWAP1 DUP1 PUSH1 0x1 DUP2 SLOAD ADD DUP1 DUP3 SSTORE DUP1 SWAP2 POP POP PUSH1 0x1 SWAP1 SUB SWAP1 PUSH1 0x0 MSTORE PUSH1 0x20 PUSH1 0x0 KECCAK256 ADD PUSH1 0x0 SWAP1 SWAP2 SWAP1 SWAP2 SWAP1 SWAP2 PUSH2 0x100 EXP DUP2 SLOAD DUP2 PUSH20 0xFFFFFFFFFFFFFFFFFFFFFFFFFFFFFFFFFFFFFFFF MUL NOT AND SWAP1 DUP4 PUSH20 0xFFFFFFFFFFFFFFFFFFFFFFFFFFFFFFFFFFFFFFFF AND MUL OR SWAP1 SSTORE POP PUSH1 0x1 PUSH1 0x6 PUSH1 0x0 DUP4 PUSH20 0xFFFFFFFFFFFFFFFFFFFFFFFFFFFFFFFFFFFFFFFF AND PUSH20 0xFFFFFFFFFFFFFFFFFFFFFFFFFFFFFFFFFFFFFFFF AND DUP2 MSTORE PUSH1 0x20 ADD SWAP1 DUP2 MSTORE PUSH1 0x20 ADD PUSH1 0x0 KECCAK256 PUSH1 0x0 PUSH2 0x100 EXP DUP2 SLOAD DUP2 PUSH1 0xFF MUL NOT AND SWAP1 DUP4 ISZERO ISZERO MUL OR SWAP1 SSTORE POP POP JUMPDEST POP PUSH1 0x0 PUSH1 0x8 PUSH1 0x0 PUSH2 0x100 EXP DUP2 SLOAD DUP2 PUSH1 0xFF MUL NOT AND SWAP1 DUP4 ISZERO ISZERO MUL OR SWAP1 SSTORE POP POP JUMP JUMPDEST PUSH1 0x4 PUSH1 0x0 CALLER PUSH20 0xFFFFFFFFFFFFFFFFFFFFFFFFFFFFFFFFFFFFFFFF AND PUSH20 0xFFFFFFFFFFFFFFFFFFFFFFFFFFFFFFFFFFFFFFFF AND DUP2 MSTORE PUSH1 0x20 ADD SWAP1 DUP2 MSTORE PUSH1 0x20 ADD PUSH1 0x0 KECCAK256 PUSH1 0x0 SWAP1 SLOAD SWAP1 PUSH2 0x100 EXP SWAP1 DIV PUSH1 0xFF AND PUSH3 0xC5D JUMPI PUSH1 0x40 MLOAD PUSH32 0x8C379A000000000000000000000000000000000000000000000000000000000 DUP2 MSTORE PUSH1 0x4 ADD PUSH3 0xC54 SWAP1 PUSH3 0x2A29 JUMP JUMPDEST PUSH1 0x40 MLOAD DUP1 SWAP2 SUB SWAP1 REVERT JUMPDEST PUSH1 0x0 PUSH1 0x5 DUP1 SLOAD SWAP1 POP SWAP1 POP PUSH1 0x0 PUSH3 0xC7E DUP3 SELFBALANCE PUSH3 0x1CD1 SWAP1 SWAP2 SWAP1 PUSH4 0xFFFFFFFF AND JUMP JUMPDEST SWAP1 POP PUSH1 0x0 DUP2 GT PUSH3 0xCC6 JUMPI PUSH1 0x40 MLOAD PUSH32 0x8C379A000000000000000000000000000000000000000000000000000000000 DUP2 MSTORE PUSH1 0x4 ADD PUSH3 0xCBD SWAP1 PUSH3 0x2A9B JUMP JUMPDEST PUSH1 0x40 MLOAD DUP1 SWAP2 SUB SWAP1 REVERT JUMPDEST PUSH1 0x0 JUMPDEST DUP3 DUP2 LT ISZERO PUSH3 0xD71 JUMPI PUSH1 0x5 DUP2 DUP2 SLOAD DUP2 LT PUSH3 0xCE9 JUMPI PUSH3 0xCE8 PUSH3 0x281A JUMP JUMPDEST JUMPDEST SWAP1 PUSH1 0x0 MSTORE PUSH1 0x20 PUSH1 0x0 KECCAK256 ADD PUSH1 0x0 SWAP1 SLOAD SWAP1 PUSH2 0x100 EXP SWAP1 DIV PUSH20 0xFFFFFFFFFFFFFFFFFFFFFFFFFFFFFFFFFFFFFFFF AND PUSH20 0xFFFFFFFFFFFFFFFFFFFFFFFFFFFFFFFFFFFFFFFF AND PUSH2 0x8FC DUP4 SWAP1 DUP2 ISZERO MUL SWAP1 PUSH1 0x40 MLOAD PUSH1 0x0 PUSH1 0x40 MLOAD DUP1 DUP4 SUB DUP2 DUP6 DUP9 DUP9 CALL SWAP4 POP POP POP POP ISZERO DUP1 ISZERO PUSH3 0xD5A JUMPI RETURNDATASIZE PUSH1 0x0 DUP1 RETURNDATACOPY RETURNDATASIZE PUSH1 0x0 REVERT JUMPDEST POP DUP1 DUP1 PUSH3 0xD68 SWAP1 PUSH3 0x2AEC JUMP JUMPDEST SWAP2 POP POP PUSH3 0xCC9 JUMP JUMPDEST POP POP POP JUMP JUMPDEST PUSH1 0x4 PUSH1 0x20 MSTORE DUP1 PUSH1 0x0 MSTORE PUSH1 0x40 PUSH1 0x0 KECCAK256 PUSH1 0x0 SWAP2 POP SLOAD SWAP1 PUSH2 0x100 EXP SWAP1 DIV PUSH1 0xFF AND DUP2 JUMP JUMPDEST PUSH1 0x0 PUSH1 0x60 DUP1 PUSH1 0x60 DUP1 PUSH1 0x60 PUSH1 0x0 DUP1 PUSH1 0x0 DUP1 PUSH1 0x0 DUP1 PUSH1 0x0 SWAP1 SLOAD SWAP1 PUSH2 0x100 EXP SWAP1 DIV PUSH20 0xFFFFFFFFFFFFFFFFFFFFFFFFFFFFFFFFFFFFFFFF AND PUSH1 0x1 PUSH1 0x2 PUSH1 0x3 PUSH1 0x5 PUSH1 0x7 PUSH1 0xC DUP1 SLOAD SWAP1 POP PUSH1 0xD DUP1 SLOAD SWAP1 POP PUSH1 0xA SLOAD PUSH1 0xB PUSH1 0x0 SWAP1 SLOAD SWAP1 PUSH2 0x100 EXP SWAP1 DIV PUSH1 0xFF AND SELFBALANCE DUP10 DUP1 SLOAD PUSH3 0xE02 SWAP1 PUSH3 0x2878 JUMP JUMPDEST DUP1 PUSH1 0x1F ADD PUSH1 0x20 DUP1 SWAP2 DIV MUL PUSH1 0x20 ADD PUSH1 0x40 MLOAD SWAP1 DUP2 ADD PUSH1 0x40 MSTORE DUP1 SWAP3 SWAP2 SWAP1 DUP2 DUP2 MSTORE PUSH1 0x20 ADD DUP3 DUP1 SLOAD PUSH3 0xE30 SWAP1 PUSH3 0x2878 JUMP JUMPDEST DUP1 ISZERO PUSH3 0xE81 JUMPI DUP1 PUSH1 0x1F LT PUSH3 0xE55 JUMPI PUSH2 0x100 DUP1 DUP4 SLOAD DIV MUL DUP4 MSTORE SWAP2 PUSH1 0x20 ADD SWAP2 PUSH3 0xE81 JUMP JUMPDEST DUP3 ADD SWAP2 SWAP1 PUSH1 0x0 MSTORE PUSH1 0x20 PUSH1 0x0 KECCAK256 SWAP1 JUMPDEST DUP2 SLOAD DUP2 MSTORE SWAP1 PUSH1 0x1 ADD SWAP1 PUSH1 0x20 ADD DUP1 DUP4 GT PUSH3 0xE63 JUMPI DUP3 SWAP1 SUB PUSH1 0x1F AND DUP3 ADD SWAP2 JUMPDEST POP POP POP POP POP SWAP10 POP DUP9 DUP1 SLOAD PUSH3 0xE96 SWAP1 PUSH3 0x2878 JUMP JUMPDEST DUP1 PUSH1 0x1F ADD PUSH1 0x20 DUP1 SWAP2 DIV MUL PUSH1 0x20 ADD PUSH1 0x40 MLOAD SWAP1 DUP2 ADD PUSH1 0x40 MSTORE DUP1 SWAP3 SWAP2 SWAP1 DUP2 DUP2 MSTORE PUSH1 0x20 ADD DUP3 DUP1 SLOAD PUSH3 0xEC4 SWAP1 PUSH3 0x2878 JUMP JUMPDEST DUP1 ISZERO PUSH3 0xF15 JUMPI DUP1 PUSH1 0x1F LT PUSH3 0xEE9 JUMPI PUSH2 0x100 DUP1 DUP4 SLOAD DIV MUL DUP4 MSTORE SWAP2 PUSH1 0x20 ADD SWAP2 PUSH3 0xF15 JUMP JUMPDEST DUP3 ADD SWAP2 SWAP1 PUSH1 0x0 MSTORE PUSH1 0x20 PUSH1 0x0 KECCAK256 SWAP1 JUMPDEST DUP2 SLOAD DUP2 MSTORE SWAP1 PUSH1 0x1 ADD SWAP1 PUSH1 0x20 ADD DUP1 DUP4 GT PUSH3 0xEF7 JUMPI DUP3 SWAP1 SUB PUSH1 0x1F AND DUP3 ADD SWAP2 JUMPDEST POP POP POP POP POP SWAP9 POP DUP8 DUP1 SLOAD PUSH3 0xF2A SWAP1 PUSH3 0x2878 JUMP JUMPDEST DUP1 PUSH1 0x1F ADD PUSH1 0x20 DUP1 SWAP2 DIV MUL PUSH1 0x20 ADD PUSH1 0x40 MLOAD SWAP1 DUP2 ADD PUSH1 0x40 MSTORE DUP1 SWAP3 SWAP2 SWAP1 DUP2 DUP2 MSTORE PUSH1 0x20 ADD DUP3 DUP1 SLOAD PUSH3 0xF58 SWAP1 PUSH3 0x2878 JUMP JUMPDEST DUP1 ISZERO PUSH3 0xFA9 JUMPI DUP1 PUSH1 0x1F LT PUSH3 0xF7D JUMPI PUSH2 0x100 DUP1 DUP4 SLOAD DIV MUL DUP4 MSTORE SWAP2 PUSH1 0x20 ADD SWAP2 PUSH3 0xFA9 JUMP JUMPDEST DUP3 ADD SWAP2 SWAP1 PUSH1 0x0 MSTORE PUSH1 0x20 PUSH1 0x0 KECCAK256 SWAP1 JUMPDEST DUP2 SLOAD DUP2 MSTORE SWAP1 PUSH1 0x1 ADD SWAP1 PUSH1 0x20 ADD DUP1 DUP4 GT PUSH3 0xF8B JUMPI DUP3 SWAP1 SUB PUSH1 0x1F AND DUP3 ADD SWAP2 JUMPDEST POP POP POP POP POP SWAP8 POP DUP7 DUP1 SLOAD DUP1 PUSH1 0x20 MUL PUSH1 0x20 ADD PUSH1 0x40 MLOAD SWAP1 DUP2 ADD PUSH1 0x40 MSTORE DUP1 SWAP3 SWAP2 SWAP1 DUP2 DUP2 MSTORE PUSH1 0x20 ADD DUP3 DUP1 SLOAD DUP1 ISZERO PUSH3 0x1033 JUMPI PUSH1 0x20 MUL DUP3 ADD SWAP2 SWAP1 PUSH1 0x0 MSTORE PUSH1 0x20 PUSH1 0x0 KECCAK256 SWAP1 JUMPDEST DUP2 PUSH1 0x0 SWAP1 SLOAD SWAP1 PUSH2 0x100 EXP SWAP1 DIV PUSH20 0xFFFFFFFFFFFFFFFFFFFFFFFFFFFFFFFFFFFFFFFF AND PUSH20 0xFFFFFFFFFFFFFFFFFFFFFFFFFFFFFFFFFFFFFFFF AND DUP2 MSTORE PUSH1 0x20 ADD SWAP1 PUSH1 0x1 ADD SWAP1 DUP1 DUP4 GT PUSH3 0xFE8 JUMPI JUMPDEST POP POP POP POP POP SWAP7 POP DUP6 DUP1 SLOAD DUP1 PUSH1 0x20 MUL PUSH1 0x20 ADD PUSH1 0x40 MLOAD SWAP1 DUP2 ADD PUSH1 0x40 MSTORE DUP1 SWAP3 SWAP2 SWAP1 DUP2 DUP2 MSTORE PUSH1 0x20 ADD DUP3 DUP1 SLOAD DUP1 ISZERO PUSH3 0x10BD JUMPI PUSH1 0x20 MUL DUP3 ADD SWAP2 SWAP1 PUSH1 0x0 MSTORE PUSH1 0x20 PUSH1 0x0 KECCAK256 SWAP1 JUMPDEST DUP2 PUSH1 0x0 SWAP1 SLOAD SWAP1 PUSH2 0x100 EXP SWAP1 DIV PUSH20 0xFFFFFFFFFFFFFFFFFFFFFFFFFFFFFFFFFFFFFFFF AND PUSH20 0xFFFFFFFFFFFFFFFFFFFFFFFFFFFFFFFFFFFFFFFF AND DUP2 MSTORE PUSH1 0x20 ADD SWAP1 PUSH1 0x1 ADD SWAP1 DUP1 DUP4 GT PUSH3 0x1072 JUMPI JUMPDEST POP POP POP POP POP SWAP6 POP SWAP11 POP SWAP11 POP SWAP11 POP SWAP11 POP SWAP11 POP SWAP11 POP SWAP11 POP SWAP11 POP SWAP11 POP SWAP11 POP SWAP11 POP SWAP1 SWAP2 SWAP3 SWAP4 SWAP5 SWAP6 SWAP7 SWAP8 SWAP9 SWAP10 SWAP11 JUMP JUMPDEST PUSH1 0x0 PUSH1 0x4 PUSH1 0x0 CALLER PUSH20 0xFFFFFFFFFFFFFFFFFFFFFFFFFFFFFFFFFFFFFFFF AND PUSH20 0xFFFFFFFFFFFFFFFFFFFFFFFFFFFFFFFFFFFFFFFF AND DUP2 MSTORE PUSH1 0x20 ADD SWAP1 DUP2 MSTORE PUSH1 0x20 ADD PUSH1 0x0 KECCAK256 PUSH1 0x0 SWAP1 SLOAD SWAP1 PUSH2 0x100 EXP SWAP1 DIV PUSH1 0xFF AND SWAP1 POP SWAP1 JUMP JUMPDEST PUSH1 0xB PUSH1 0x0 SWAP1 SLOAD SWAP1 PUSH2 0x100 EXP SWAP1 DIV PUSH1 0xFF AND DUP2 JUMP JUMPDEST PUSH1 0x6 PUSH1 0x20 MSTORE DUP1 PUSH1 0x0 MSTORE PUSH1 0x40 PUSH1 0x0 KECCAK256 PUSH1 0x0 SWAP2 POP SLOAD SWAP1 PUSH2 0x100 EXP SWAP1 DIV PUSH1 0xFF AND DUP2 JUMP JUMPDEST PUSH1 0xB PUSH1 0x0 SWAP1 SLOAD SWAP1 PUSH2 0x100 EXP SWAP1 DIV PUSH1 0xFF AND ISZERO PUSH3 0x11C1 JUMPI PUSH1 0x40 MLOAD PUSH32 0x8C379A000000000000000000000000000000000000000000000000000000000 DUP2 MSTORE PUSH1 0x4 ADD PUSH3 0x11B8 SWAP1 PUSH3 0x2656 JUMP JUMPDEST PUSH1 0x40 MLOAD DUP1 SWAP2 SUB SWAP1 REVERT JUMPDEST PUSH1 0x4 PUSH1 0x0 CALLER PUSH20 0xFFFFFFFFFFFFFFFFFFFFFFFFFFFFFFFFFFFFFFFF AND PUSH20 0xFFFFFFFFFFFFFFFFFFFFFFFFFFFFFFFFFFFFFFFF AND DUP2 MSTORE PUSH1 0x20 ADD SWAP1 DUP2 MSTORE PUSH1 0x20 ADD PUSH1 0x0 KECCAK256 PUSH1 0x0 SWAP1 SLOAD SWAP1 PUSH2 0x100 EXP SWAP1 DIV PUSH1 0xFF AND PUSH3 0x1250 JUMPI PUSH1 0x40 MLOAD PUSH32 0x8C379A000000000000000000000000000000000000000000000000000000000 DUP2 MSTORE PUSH1 0x4 ADD PUSH3 0x1247 SWAP1 PUSH3 0x2786 JUMP JUMPDEST PUSH1 0x40 MLOAD DUP1 SWAP2 SUB SWAP1 REVERT JUMPDEST PUSH1 0xC DUP1 SLOAD SWAP1 POP DUP2 LT DUP1 ISZERO PUSH3 0x1266 JUMPI POP PUSH1 0x0 DUP2 LT ISZERO JUMPDEST PUSH3 0x12A8 JUMPI PUSH1 0x40 MLOAD PUSH32 0x8C379A000000000000000000000000000000000000000000000000000000000 DUP2 MSTORE PUSH1 0x4 ADD PUSH3 0x129F SWAP1 PUSH3 0x27F8 JUMP JUMPDEST PUSH1 0x40 MLOAD DUP1 SWAP2 SUB SWAP1 REVERT JUMPDEST PUSH1 0x0 PUSH1 0xC DUP3 DUP2 SLOAD DUP2 LT PUSH3 0x12C1 JUMPI PUSH3 0x12C0 PUSH3 0x281A JUMP JUMPDEST JUMPDEST SWAP1 PUSH1 0x0 MSTORE PUSH1 0x20 PUSH1 0x0 KECCAK256 SWAP1 PUSH1 0x6 MUL ADD SWAP1 POP DUP1 PUSH1 0x3 ADD PUSH1 0x0 CALLER PUSH20 0xFFFFFFFFFFFFFFFFFFFFFFFFFFFFFFFFFFFFFFFF AND PUSH20 0xFFFFFFFFFFFFFFFFFFFFFFFFFFFFFFFFFFFFFFFF AND DUP2 MSTORE PUSH1 0x20 ADD SWAP1 DUP2 MSTORE PUSH1 0x20 ADD PUSH1 0x0 KECCAK256 PUSH1 0x0 SWAP1 SLOAD SWAP1 PUSH2 0x100 EXP SWAP1 DIV PUSH1 0xFF AND ISZERO PUSH3 0x1363 JUMPI PUSH1 0x40 MLOAD PUSH32 0x8C379A000000000000000000000000000000000000000000000000000000000 DUP2 MSTORE PUSH1 0x4 ADD PUSH3 0x135A SWAP1 PUSH3 0x2BB0 JUMP JUMPDEST PUSH1 0x40 MLOAD DUP1 SWAP2 SUB SWAP1 REVERT JUMPDEST PUSH1 0x1 DUP2 PUSH1 0x3 ADD PUSH1 0x0 CALLER PUSH20 0xFFFFFFFFFFFFFFFFFFFFFFFFFFFFFFFFFFFFFFFF AND PUSH20 0xFFFFFFFFFFFFFFFFFFFFFFFFFFFFFFFFFFFFFFFF AND DUP2 MSTORE PUSH1 0x20 ADD SWAP1 DUP2 MSTORE PUSH1 0x20 ADD PUSH1 0x0 KECCAK256 PUSH1 0x0 PUSH2 0x100 EXP DUP2 SLOAD DUP2 PUSH1 0xFF MUL NOT AND SWAP1 DUP4 ISZERO ISZERO MUL OR SWAP1 SSTORE POP PUSH3 0x13D7 PUSH1 0x1 DUP3 PUSH1 0x4 ADD SLOAD PUSH3 0x1C6E SWAP1 SWAP2 SWAP1 PUSH4 0xFFFFFFFF AND JUMP JUMPDEST DUP2 PUSH1 0x4 ADD DUP2 SWAP1 SSTORE POP PUSH1 0x5 DUP1 SLOAD SWAP1 POP DUP2 PUSH1 0x4 ADD SLOAD EQ ISZERO PUSH3 0x1512 JUMPI PUSH1 0x1 DUP2 PUSH1 0x5 ADD PUSH1 0x0 PUSH2 0x100 EXP DUP2 SLOAD DUP2 PUSH1 0xFF MUL NOT AND SWAP1 DUP4 ISZERO ISZERO MUL OR SWAP1 SSTORE POP PUSH1 0x1 PUSH1 0x4 PUSH1 0x0 DUP4 PUSH1 0x2 ADD PUSH1 0x0 SWAP1 SLOAD SWAP1 PUSH2 0x100 EXP SWAP1 DIV PUSH20 0xFFFFFFFFFFFFFFFFFFFFFFFFFFFFFFFFFFFFFFFF AND PUSH20 0xFFFFFFFFFFFFFFFFFFFFFFFFFFFFFFFFFFFFFFFF AND PUSH20 0xFFFFFFFFFFFFFFFFFFFFFFFFFFFFFFFFFFFFFFFF AND DUP2 MSTORE PUSH1 0x20 ADD SWAP1 DUP2 MSTORE PUSH1 0x20 ADD PUSH1 0x0 KECCAK256 PUSH1 0x0 PUSH2 0x100 EXP DUP2 SLOAD DUP2 PUSH1 0xFF MUL NOT AND SWAP1 DUP4 ISZERO ISZERO MUL OR SWAP1 SSTORE POP PUSH1 0x5 DUP2 PUSH1 0x2 ADD PUSH1 0x0 SWAP1 SLOAD SWAP1 PUSH2 0x100 EXP SWAP1 DIV PUSH20 0xFFFFFFFFFFFFFFFFFFFFFFFFFFFFFFFFFFFFFFFF AND SWAP1 DUP1 PUSH1 0x1 DUP2 SLOAD ADD DUP1 DUP3 SSTORE DUP1 SWAP2 POP POP PUSH1 0x1 SWAP1 SUB SWAP1 PUSH1 0x0 MSTORE PUSH1 0x20 PUSH1 0x0 KECCAK256 ADD PUSH1 0x0 SWAP1 SWAP2 SWAP1 SWAP2 SWAP1 SWAP2 PUSH2 0x100 EXP DUP2 SLOAD DUP2 PUSH20 0xFFFFFFFFFFFFFFFFFFFFFFFFFFFFFFFFFFFFFFFF MUL NOT AND SWAP1 DUP4 PUSH20 0xFFFFFFFFFFFFFFFFFFFFFFFFFFFFFFFFFFFFFFFF AND MUL OR SWAP1 SSTORE POP JUMPDEST POP POP JUMP JUMPDEST PUSH1 0x60 PUSH1 0x7 DUP1 SLOAD DUP1 PUSH1 0x20 MUL PUSH1 0x20 ADD PUSH1 0x40 MLOAD SWAP1 DUP2 ADD PUSH1 0x40 MSTORE DUP1 SWAP3 SWAP2 SWAP1 DUP2 DUP2 MSTORE PUSH1 0x20 ADD DUP3 DUP1 SLOAD DUP1 ISZERO PUSH3 0x159C JUMPI PUSH1 0x20 MUL DUP3 ADD SWAP2 SWAP1 PUSH1 0x0 MSTORE PUSH1 0x20 PUSH1 0x0 KECCAK256 SWAP1 JUMPDEST DUP2 PUSH1 0x0 SWAP1 SLOAD SWAP1 PUSH2 0x100 EXP SWAP1 DIV PUSH20 0xFFFFFFFFFFFFFFFFFFFFFFFFFFFFFFFFFFFFFFFF AND PUSH20 0xFFFFFFFFFFFFFFFFFFFFFFFFFFFFFFFFFFFFFFFF AND DUP2 MSTORE PUSH1 0x20 ADD SWAP1 PUSH1 0x1 ADD SWAP1 DUP1 DUP4 GT PUSH3 0x1551 JUMPI JUMPDEST POP POP POP POP POP SWAP1 POP SWAP1 JUMP JUMPDEST PUSH1 0x5 DUP2 DUP2 SLOAD DUP2 LT PUSH3 0x15B7 JUMPI PUSH1 0x0 DUP1 REVERT JUMPDEST SWAP1 PUSH1 0x0 MSTORE PUSH1 0x20 PUSH1 0x0 KECCAK256 ADD PUSH1 0x0 SWAP2 POP SLOAD SWAP1 PUSH2 0x100 EXP SWAP1 DIV PUSH20 0xFFFFFFFFFFFFFFFFFFFFFFFFFFFFFFFFFFFFFFFF AND DUP2 JUMP JUMPDEST PUSH1 0x7 DUP2 DUP2 SLOAD DUP2 LT PUSH3 0x15F7 JUMPI PUSH1 0x0 DUP1 REVERT JUMPDEST SWAP1 PUSH1 0x0 MSTORE PUSH1 0x20 PUSH1 0x0 KECCAK256 ADD PUSH1 0x0 SWAP2 POP SLOAD SWAP1 PUSH2 0x100 EXP SWAP1 DIV PUSH20 0xFFFFFFFFFFFFFFFFFFFFFFFFFFFFFFFFFFFFFFFF AND DUP2 JUMP JUMPDEST PUSH1 0x8 PUSH1 0x0 SWAP1 SLOAD SWAP1 PUSH2 0x100 EXP SWAP1 DIV PUSH1 0xFF AND ISZERO PUSH3 0x1679 JUMPI PUSH1 0x40 MLOAD PUSH32 0x8C379A000000000000000000000000000000000000000000000000000000000 DUP2 MSTORE PUSH1 0x4 ADD PUSH3 0x1670 SWAP1 PUSH3 0x25E4 JUMP JUMPDEST PUSH1 0x40 MLOAD DUP1 SWAP2 SUB SWAP1 REVERT JUMPDEST PUSH1 0x1 PUSH1 0x8 PUSH1 0x0 PUSH2 0x100 EXP DUP2 SLOAD DUP2 PUSH1 0xFF MUL NOT AND SWAP1 DUP4 ISZERO ISZERO MUL OR SWAP1 SSTORE POP PUSH1 0xB PUSH1 0x0 SWAP1 SLOAD SWAP1 PUSH2 0x100 EXP SWAP1 DIV PUSH1 0xFF AND ISZERO PUSH3 0x16E7 JUMPI PUSH1 0x40 MLOAD PUSH32 0x8C379A000000000000000000000000000000000000000000000000000000000 DUP2 MSTORE PUSH1 0x4 ADD PUSH3 0x16DE SWAP1 PUSH3 0x2656 JUMP JUMPDEST PUSH1 0x40 MLOAD DUP1 SWAP2 SUB SWAP1 REVERT JUMPDEST PUSH1 0x4 PUSH1 0x0 CALLER PUSH20 0xFFFFFFFFFFFFFFFFFFFFFFFFFFFFFFFFFFFFFFFF AND PUSH20 0xFFFFFFFFFFFFFFFFFFFFFFFFFFFFFFFFFFFFFFFF AND DUP2 MSTORE PUSH1 0x20 ADD SWAP1 DUP2 MSTORE PUSH1 0x20 ADD PUSH1 0x0 KECCAK256 PUSH1 0x0 SWAP1 SLOAD SWAP1 PUSH2 0x100 EXP SWAP1 DIV PUSH1 0xFF AND PUSH3 0x1776 JUMPI PUSH1 0x40 MLOAD PUSH32 0x8C379A000000000000000000000000000000000000000000000000000000000 DUP2 MSTORE PUSH1 0x4 ADD PUSH3 0x176D SWAP1 PUSH3 0x2C48 JUMP JUMPDEST PUSH1 0x40 MLOAD DUP1 SWAP2 SUB SWAP1 REVERT JUMPDEST PUSH3 0x1781 DUP3 PUSH3 0x1D2E JUMP JUMPDEST PUSH3 0x17C3 JUMPI PUSH1 0x40 MLOAD PUSH32 0x8C379A000000000000000000000000000000000000000000000000000000000 DUP2 MSTORE PUSH1 0x4 ADD PUSH3 0x17BA SWAP1 PUSH3 0x2CE0 JUMP JUMPDEST PUSH1 0x40 MLOAD DUP1 SWAP2 SUB SWAP1 REVERT JUMPDEST PUSH3 0x17CE DUP2 PUSH3 0x1D2E JUMP JUMPDEST PUSH3 0x1810 JUMPI PUSH1 0x40 MLOAD PUSH32 0x8C379A000000000000000000000000000000000000000000000000000000000 DUP2 MSTORE PUSH1 0x4 ADD PUSH3 0x1807 SWAP1 PUSH3 0x2D52 JUMP JUMPDEST PUSH1 0x40 MLOAD DUP1 SWAP2 SUB SWAP1 REVERT JUMPDEST PUSH3 0x181B DUP3 PUSH3 0x1D82 JUMP JUMPDEST PUSH3 0x185D JUMPI PUSH1 0x40 MLOAD PUSH32 0x8C379A000000000000000000000000000000000000000000000000000000000 DUP2 MSTORE PUSH1 0x4 ADD PUSH3 0x1854 SWAP1 PUSH3 0x2DEA JUMP JUMPDEST PUSH1 0x40 MLOAD DUP1 SWAP2 SUB SWAP1 REVERT JUMPDEST PUSH3 0x1868 DUP2 PUSH3 0x1E18 JUMP JUMPDEST PUSH3 0x18AA JUMPI PUSH1 0x40 MLOAD PUSH32 0x8C379A000000000000000000000000000000000000000000000000000000000 DUP2 MSTORE PUSH1 0x4 ADD PUSH3 0x18A1 SWAP1 PUSH3 0x2E82 JUMP JUMPDEST PUSH1 0x40 MLOAD DUP1 SWAP2 SUB SWAP1 REVERT JUMPDEST PUSH1 0x0 PUSH1 0xD PUSH1 0x1 DUP2 PUSH1 0x1 DUP2 SLOAD ADD DUP1 DUP3 SSTORE DUP1 SWAP2 POP POP SUB SWAP1 PUSH1 0x0 MSTORE PUSH1 0x20 PUSH1 0x0 KECCAK256 SWAP1 PUSH1 0x8 MUL ADD SWAP1 POP DUP4 DUP2 PUSH1 0x0 ADD SWAP1 DUP1 MLOAD SWAP1 PUSH1 0x20 ADD SWAP1 PUSH3 0x18E8 SWAP3 SWAP2 SWAP1 PUSH3 0x1EBC JUMP JUMPDEST POP TIMESTAMP DUP2 PUSH1 0x1 ADD DUP2 SWAP1 SSTORE POP CALLER DUP2 PUSH1 0x2 ADD PUSH1 0x0 PUSH2 0x100 EXP DUP2 SLOAD DUP2 PUSH20 0xFFFFFFFFFFFFFFFFFFFFFFFFFFFFFFFFFFFFFFFF MUL NOT AND SWAP1 DUP4 PUSH20 0xFFFFFFFFFFFFFFFFFFFFFFFFFFFFFFFFFFFFFFFF AND MUL OR SWAP1 SSTORE POP DUP3 DUP2 PUSH1 0x3 ADD PUSH1 0x0 PUSH2 0x100 EXP DUP2 SLOAD DUP2 PUSH20 0xFFFFFFFFFFFFFFFFFFFFFFFFFFFFFFFFFFFFFFFF MUL NOT AND SWAP1 DUP4 PUSH20 0xFFFFFFFFFFFFFFFFFFFFFFFFFFFFFFFFFFFFFFFF AND MUL OR SWAP1 SSTORE POP DUP2 DUP2 PUSH1 0x4 ADD PUSH1 0x0 PUSH2 0x100 EXP DUP2 SLOAD DUP2 PUSH20 0xFFFFFFFFFFFFFFFFFFFFFFFFFFFFFFFFFFFFFFFF MUL NOT AND SWAP1 DUP4 PUSH20 0xFFFFFFFFFFFFFFFFFFFFFFFFFFFFFFFFFFFFFFFF AND MUL OR SWAP1 SSTORE POP PUSH1 0x0 DUP2 PUSH1 0x6 ADD DUP2 SWAP1 SSTORE POP PUSH1 0x0 DUP2 PUSH1 0x7 ADD PUSH1 0x0 PUSH2 0x100 EXP DUP2 SLOAD DUP2 PUSH1 0xFF MUL NOT AND SWAP1 DUP4 ISZERO ISZERO MUL OR SWAP1 SSTORE POP POP PUSH1 0x0 PUSH1 0x8 PUSH1 0x0 PUSH2 0x100 EXP DUP2 SLOAD DUP2 PUSH1 0xFF MUL NOT AND SWAP1 DUP4 ISZERO ISZERO MUL OR SWAP1 SSTORE POP POP POP POP JUMP JUMPDEST PUSH1 0x8 PUSH1 0x0 SWAP1 SLOAD SWAP1 PUSH2 0x100 EXP SWAP1 DIV PUSH1 0xFF AND ISZERO PUSH3 0x1A56 JUMPI PUSH1 0x40 MLOAD PUSH32 0x8C379A000000000000000000000000000000000000000000000000000000000 DUP2 MSTORE PUSH1 0x4 ADD PUSH3 0x1A4D SWAP1 PUSH3 0x25E4 JUMP JUMPDEST PUSH1 0x40 MLOAD DUP1 SWAP2 SUB SWAP1 REVERT JUMPDEST PUSH1 0x1 PUSH1 0x8 PUSH1 0x0 PUSH2 0x100 EXP DUP2 SLOAD DUP2 PUSH1 0xFF MUL NOT AND SWAP1 DUP4 ISZERO ISZERO MUL OR SWAP1 SSTORE POP PUSH1 0x64 CALLVALUE LT ISZERO PUSH3 0x1AB8 JUMPI PUSH1 0x40 MLOAD PUSH32 0x8C379A000000000000000000000000000000000000000000000000000000000 DUP2 MSTORE PUSH1 0x4 ADD PUSH3 0x1AAF SWAP1 PUSH3 0x2EF4 JUMP JUMPDEST PUSH1 0x40 MLOAD DUP1 SWAP2 SUB SWAP1 REVERT JUMPDEST PUSH1 0x0 PUSH1 0x8 PUSH1 0x0 PUSH2 0x100 EXP DUP2 SLOAD DUP2 PUSH1 0xFF MUL NOT AND SWAP1 DUP4 ISZERO ISZERO MUL OR SWAP1 SSTORE POP JUMP JUMPDEST PUSH1 0xB PUSH1 0x0 SWAP1 SLOAD SWAP1 PUSH2 0x100 EXP SWAP1 DIV PUSH1 0xFF AND ISZERO PUSH3 0x1B28 JUMPI PUSH1 0x40 MLOAD PUSH32 0x8C379A000000000000000000000000000000000000000000000000000000000 DUP2 MSTORE PUSH1 0x4 ADD PUSH3 0x1B1F SWAP1 PUSH3 0x2656 JUMP JUMPDEST PUSH1 0x40 MLOAD DUP1 SWAP2 SUB SWAP1 REVERT JUMPDEST PUSH1 0x4 PUSH1 0x0 CALLER PUSH20 0xFFFFFFFFFFFFFFFFFFFFFFFFFFFFFFFFFFFFFFFF AND PUSH20 0xFFFFFFFFFFFFFFFFFFFFFFFFFFFFFFFFFFFFFFFF AND DUP2 MSTORE PUSH1 0x20 ADD SWAP1 DUP2 MSTORE PUSH1 0x20 ADD PUSH1 0x0 KECCAK256 PUSH1 0x0 SWAP1 SLOAD SWAP1 PUSH2 0x100 EXP SWAP1 DIV PUSH1 0xFF AND ISZERO PUSH3 0x1BB8 JUMPI PUSH1 0x40 MLOAD PUSH32 0x8C379A000000000000000000000000000000000000000000000000000000000 DUP2 MSTORE PUSH1 0x4 ADD PUSH3 0x1BAF SWAP1 PUSH3 0x2F8C JUMP JUMPDEST PUSH1 0x40 MLOAD DUP1 SWAP2 SUB SWAP1 REVERT JUMPDEST PUSH1 0x0 PUSH1 0xC PUSH1 0x1 DUP2 PUSH1 0x1 DUP2 SLOAD ADD DUP1 DUP3 SSTORE DUP1 SWAP2 POP POP SUB SWAP1 PUSH1 0x0 MSTORE PUSH1 0x20 PUSH1 0x0 KECCAK256 SWAP1 PUSH1 0x6 MUL ADD SWAP1 POP DUP2 DUP2 PUSH1 0x0 ADD SWAP1 DUP1 MLOAD SWAP1 PUSH1 0x20 ADD SWAP1 PUSH3 0x1BF6 SWAP3 SWAP2 SWAP1 PUSH3 0x1EBC JUMP JUMPDEST POP TIMESTAMP DUP2 PUSH1 0x1 ADD DUP2 SWAP1 SSTORE POP CALLER DUP2 PUSH1 0x2 ADD PUSH1 0x0 PUSH2 0x100 EXP DUP2 SLOAD DUP2 PUSH20 0xFFFFFFFFFFFFFFFFFFFFFFFFFFFFFFFFFFFFFFFF MUL NOT AND SWAP1 DUP4 PUSH20 0xFFFFFFFFFFFFFFFFFFFFFFFFFFFFFFFFFFFFFFFF AND MUL OR SWAP1 SSTORE POP PUSH1 0x0 DUP2 PUSH1 0x4 ADD DUP2 SWAP1 SSTORE POP PUSH1 0x0 DUP2 PUSH1 0x5 ADD PUSH1 0x0 PUSH2 0x100 EXP DUP2 SLOAD DUP2 PUSH1 0xFF MUL NOT AND SWAP1 DUP4 ISZERO ISZERO MUL OR SWAP1 SSTORE POP POP POP JUMP JUMPDEST PUSH1 0x0 DUP1 DUP3 DUP5 PUSH3 0x1C7F SWAP2 SWAP1 PUSH3 0x2FAE JUMP JUMPDEST SWAP1 POP DUP4 DUP2 LT ISZERO PUSH3 0x1CC7 JUMPI PUSH1 0x40 MLOAD PUSH32 0x8C379A000000000000000000000000000000000000000000000000000000000 DUP2 MSTORE PUSH1 0x4 ADD PUSH3 0x1CBE SWAP1 PUSH3 0x305B JUMP JUMPDEST PUSH1 0x40 MLOAD DUP1 SWAP2 SUB SWAP1 REVERT JUMPDEST DUP1 SWAP2 POP POP SWAP3 SWAP2 POP POP JUMP JUMPDEST PUSH1 0x0 DUP1 DUP3 GT PUSH3 0x1D18 JUMPI PUSH1 0x40 MLOAD PUSH32 0x8C379A000000000000000000000000000000000000000000000000000000000 DUP2 MSTORE PUSH1 0x4 ADD PUSH3 0x1D0F SWAP1 PUSH3 0x30CD JUMP JUMPDEST PUSH1 0x40 MLOAD DUP1 SWAP2 SUB SWAP1 REVERT JUMPDEST DUP2 DUP4 PUSH3 0x1D26 SWAP2 SWAP1 PUSH3 0x311E JUMP JUMPDEST SWAP1 POP SWAP3 SWAP2 POP POP JUMP JUMPDEST PUSH1 0x0 DUP1 PUSH20 0xFFFFFFFFFFFFFFFFFFFFFFFFFFFFFFFFFFFFFFFF AND DUP3 PUSH20 0xFFFFFFFFFFFFFFFFFFFFFFFFFFFFFFFFFFFFFFFF AND EQ ISZERO PUSH3 0x1D6F JUMPI PUSH1 0x1 SWAP1 POP PUSH3 0x1D7D JUMP JUMPDEST PUSH1 0x0 DUP3 EXTCODESIZE SWAP1 POP PUSH1 0x0 DUP2 GT SWAP2 POP POP JUMPDEST SWAP2 SWAP1 POP JUMP JUMPDEST PUSH1 0x0 DUP1 PUSH20 0xFFFFFFFFFFFFFFFFFFFFFFFFFFFFFFFFFFFFFFFF AND DUP3 PUSH20 0xFFFFFFFFFFFFFFFFFFFFFFFFFFFFFFFFFFFFFFFF AND EQ ISZERO PUSH3 0x1DC3 JUMPI PUSH1 0x1 SWAP1 POP PUSH3 0x1E13 JUMP JUMPDEST PUSH1 0x6 PUSH1 0x0 DUP4 PUSH20 0xFFFFFFFFFFFFFFFFFFFFFFFFFFFFFFFFFFFFFFFF AND PUSH20 0xFFFFFFFFFFFFFFFFFFFFFFFFFFFFFFFFFFFFFFFF AND DUP2 MSTORE PUSH1 0x20 ADD SWAP1 DUP2 MSTORE PUSH1 0x20 ADD PUSH1 0x0 KECCAK256 PUSH1 0x0 SWAP1 SLOAD SWAP1 PUSH2 0x100 EXP SWAP1 DIV PUSH1 0xFF AND SWAP1 POP JUMPDEST SWAP2 SWAP1 POP JUMP JUMPDEST PUSH1 0x0 DUP1 PUSH20 0xFFFFFFFFFFFFFFFFFFFFFFFFFFFFFFFFFFFFFFFF AND DUP3 PUSH20 0xFFFFFFFFFFFFFFFFFFFFFFFFFFFFFFFFFFFFFFFF AND EQ ISZERO PUSH3 0x1E59 JUMPI PUSH1 0x1 SWAP1 POP PUSH3 0x1EA9 JUMP JUMPDEST PUSH1 0x6 PUSH1 0x0 DUP4 PUSH20 0xFFFFFFFFFFFFFFFFFFFFFFFFFFFFFFFFFFFFFFFF AND PUSH20 0xFFFFFFFFFFFFFFFFFFFFFFFFFFFFFFFFFFFFFFFF AND DUP2 MSTORE PUSH1 0x20 ADD SWAP1 DUP2 MSTORE PUSH1 0x20 ADD PUSH1 0x0 KECCAK256 PUSH1 0x0 SWAP1 SLOAD SWAP1 PUSH2 0x100 EXP SWAP1 DIV PUSH1 0xFF AND SWAP1 POP JUMPDEST SWAP2 SWAP1 POP JUMP JUMPDEST PUSH2 0x144B DUP1 PUSH3 0x3157 DUP4 CODECOPY ADD SWAP1 JUMP JUMPDEST DUP3 DUP1 SLOAD PUSH3 0x1ECA SWAP1 PUSH3 0x2878 JUMP JUMPDEST SWAP1 PUSH1 0x0 MSTORE PUSH1 0x20 PUSH1 0x0 KECCAK256 SWAP1 PUSH1 0x1F ADD PUSH1 0x20 SWAP1 DIV DUP2 ADD SWAP3 DUP3 PUSH3 0x1EEE JUMPI PUSH1 0x0 DUP6 SSTORE PUSH3 0x1F3A JUMP JUMPDEST DUP3 PUSH1 0x1F LT PUSH3 0x1F09 JUMPI DUP1 MLOAD PUSH1 0xFF NOT AND DUP4 DUP1 ADD OR DUP6 SSTORE PUSH3 0x1F3A JUMP JUMPDEST DUP3 DUP1 ADD PUSH1 0x1 ADD DUP6 SSTORE DUP3 ISZERO PUSH3 0x1F3A JUMPI SWAP2 DUP3 ADD JUMPDEST DUP3 DUP2 GT ISZERO PUSH3 0x1F39 JUMPI DUP3 MLOAD DUP3 SSTORE SWAP2 PUSH1 0x20 ADD SWAP2 SWAP1 PUSH1 0x1 ADD SWAP1 PUSH3 0x1F1C JUMP JUMPDEST JUMPDEST POP SWAP1 POP PUSH3 0x1F49 SWAP2 SWAP1 PUSH3 0x1F4D JUMP JUMPDEST POP SWAP1 JUMP JUMPDEST JUMPDEST DUP1 DUP3 GT ISZERO PUSH3 0x1F68 JUMPI PUSH1 0x0 DUP2 PUSH1 0x0 SWAP1 SSTORE POP PUSH1 0x1 ADD PUSH3 0x1F4E JUMP JUMPDEST POP SWAP1 JUMP JUMPDEST PUSH1 0x0 PUSH1 0x40 MLOAD SWAP1 POP SWAP1 JUMP JUMPDEST PUSH1 0x0 DUP1 REVERT JUMPDEST PUSH1 0x0 DUP1 REVERT JUMPDEST PUSH1 0x0 DUP2 SWAP1 POP SWAP2 SWAP1 POP JUMP JUMPDEST PUSH3 0x1F95 DUP2 PUSH3 0x1F80 JUMP JUMPDEST DUP2 EQ PUSH3 0x1FA1 JUMPI PUSH1 0x0 DUP1 REVERT JUMPDEST POP JUMP JUMPDEST PUSH1 0x0 DUP2 CALLDATALOAD SWAP1 POP PUSH3 0x1FB5 DUP2 PUSH3 0x1F8A JUMP JUMPDEST SWAP3 SWAP2 POP POP JUMP JUMPDEST PUSH1 0x0 PUSH1 0x20 DUP3 DUP5 SUB SLT ISZERO PUSH3 0x1FD4 JUMPI PUSH3 0x1FD3 PUSH3 0x1F76 JUMP JUMPDEST JUMPDEST PUSH1 0x0 PUSH3 0x1FE4 DUP5 DUP3 DUP6 ADD PUSH3 0x1FA4 JUMP JUMPDEST SWAP2 POP POP SWAP3 SWAP2 POP POP JUMP JUMPDEST PUSH1 0x0 PUSH20 0xFFFFFFFFFFFFFFFFFFFFFFFFFFFFFFFFFFFFFFFF DUP3 AND SWAP1 POP SWAP2 SWAP1 POP JUMP JUMPDEST PUSH1 0x0 PUSH3 0x201A DUP3 PUSH3 0x1FED JUMP JUMPDEST SWAP1 POP SWAP2 SWAP1 POP JUMP JUMPDEST PUSH3 0x202C DUP2 PUSH3 0x200D JUMP JUMPDEST DUP2 EQ PUSH3 0x2038 JUMPI PUSH1 0x0 DUP1 REVERT JUMPDEST POP JUMP JUMPDEST PUSH1 0x0 DUP2 CALLDATALOAD SWAP1 POP PUSH3 0x204C DUP2 PUSH3 0x2021 JUMP JUMPDEST SWAP3 SWAP2 POP POP JUMP JUMPDEST PUSH1 0x0 PUSH1 0x20 DUP3 DUP5 SUB SLT ISZERO PUSH3 0x206B JUMPI PUSH3 0x206A PUSH3 0x1F76 JUMP JUMPDEST JUMPDEST PUSH1 0x0 PUSH3 0x207B DUP5 DUP3 DUP6 ADD PUSH3 0x203B JUMP JUMPDEST SWAP2 POP POP SWAP3 SWAP2 POP POP JUMP JUMPDEST PUSH1 0x0 DUP2 ISZERO ISZERO SWAP1 POP SWAP2 SWAP1 POP JUMP JUMPDEST PUSH3 0x209B DUP2 PUSH3 0x2084 JUMP JUMPDEST DUP3 MSTORE POP POP JUMP JUMPDEST PUSH1 0x0 PUSH1 0x20 DUP3 ADD SWAP1 POP PUSH3 0x20B8 PUSH1 0x0 DUP4 ADD DUP5 PUSH3 0x2090 JUMP JUMPDEST SWAP3 SWAP2 POP POP JUMP JUMPDEST PUSH3 0x20C9 DUP2 PUSH3 0x200D JUMP JUMPDEST DUP3 MSTORE POP POP JUMP JUMPDEST PUSH1 0x0 DUP2 MLOAD SWAP1 POP SWAP2 SWAP1 POP JUMP JUMPDEST PUSH1 0x0 DUP3 DUP3 MSTORE PUSH1 0x20 DUP3 ADD SWAP1 POP SWAP3 SWAP2 POP POP JUMP JUMPDEST PUSH1 0x0 JUMPDEST DUP4 DUP2 LT ISZERO PUSH3 0x210B JUMPI DUP1 DUP3 ADD MLOAD DUP2 DUP5 ADD MSTORE PUSH1 0x20 DUP2 ADD SWAP1 POP PUSH3 0x20EE JUMP JUMPDEST DUP4 DUP2 GT ISZERO PUSH3 0x211B JUMPI PUSH1 0x0 DUP5 DUP5 ADD MSTORE JUMPDEST POP POP POP POP JUMP JUMPDEST PUSH1 0x0 PUSH1 0x1F NOT PUSH1 0x1F DUP4 ADD AND SWAP1 POP SWAP2 SWAP1 POP JUMP JUMPDEST PUSH1 0x0 PUSH3 0x213F DUP3 PUSH3 0x20CF JUMP JUMPDEST PUSH3 0x214B DUP2 DUP6 PUSH3 0x20DA JUMP JUMPDEST SWAP4 POP PUSH3 0x215D DUP2 DUP6 PUSH1 0x20 DUP7 ADD PUSH3 0x20EB JUMP JUMPDEST PUSH3 0x2168 DUP2 PUSH3 0x2121 JUMP JUMPDEST DUP5 ADD SWAP2 POP POP SWAP3 SWAP2 POP POP JUMP JUMPDEST PUSH1 0x0 DUP2 MLOAD SWAP1 POP SWAP2 SWAP1 POP JUMP JUMPDEST PUSH1 0x0 DUP3 DUP3 MSTORE PUSH1 0x20 DUP3 ADD SWAP1 POP SWAP3 SWAP2 POP POP JUMP JUMPDEST PUSH1 0x0 DUP2 SWAP1 POP PUSH1 0x20 DUP3 ADD SWAP1 POP SWAP2 SWAP1 POP JUMP JUMPDEST PUSH3 0x21AA DUP2 PUSH3 0x200D JUMP JUMPDEST DUP3 MSTORE POP POP JUMP JUMPDEST PUSH1 0x0 PUSH3 0x21BE DUP4 DUP4 PUSH3 0x219F JUMP JUMPDEST PUSH1 0x20 DUP4 ADD SWAP1 POP SWAP3 SWAP2 POP POP JUMP JUMPDEST PUSH1 0x0 PUSH1 0x20 DUP3 ADD SWAP1 POP SWAP2 SWAP1 POP JUMP JUMPDEST PUSH1 0x0 PUSH3 0x21E4 DUP3 PUSH3 0x2173 JUMP JUMPDEST PUSH3 0x21F0 DUP2 DUP6 PUSH3 0x217E JUMP JUMPDEST SWAP4 POP PUSH3 0x21FD DUP4 PUSH3 0x218F JUMP JUMPDEST DUP1 PUSH1 0x0 JUMPDEST DUP4 DUP2 LT ISZERO PUSH3 0x2234 JUMPI DUP2 MLOAD PUSH3 0x2218 DUP9 DUP3 PUSH3 0x21B0 JUMP JUMPDEST SWAP8 POP PUSH3 0x2225 DUP4 PUSH3 0x21CA JUMP JUMPDEST SWAP3 POP POP PUSH1 0x1 DUP2 ADD SWAP1 POP PUSH3 0x2201 JUMP JUMPDEST POP DUP6 SWAP4 POP POP POP POP SWAP3 SWAP2 POP POP JUMP JUMPDEST PUSH3 0x224C DUP2 PUSH3 0x1F80 JUMP JUMPDEST DUP3 MSTORE POP POP JUMP JUMPDEST PUSH1 0x0 PUSH2 0x160 DUP3 ADD SWAP1 POP PUSH3 0x226A PUSH1 0x0 DUP4 ADD DUP15 PUSH3 0x20BE JUMP JUMPDEST DUP2 DUP2 SUB PUSH1 0x20 DUP4 ADD MSTORE PUSH3 0x227E DUP2 DUP14 PUSH3 0x2132 JUMP JUMPDEST SWAP1 POP DUP2 DUP2 SUB PUSH1 0x40 DUP4 ADD MSTORE PUSH3 0x2294 DUP2 DUP13 PUSH3 0x2132 JUMP JUMPDEST SWAP1 POP DUP2 DUP2 SUB PUSH1 0x60 DUP4 ADD MSTORE PUSH3 0x22AA DUP2 DUP12 PUSH3 0x2132 JUMP JUMPDEST SWAP1 POP DUP2 DUP2 SUB PUSH1 0x80 DUP4 ADD MSTORE PUSH3 0x22C0 DUP2 DUP11 PUSH3 0x21D7 JUMP JUMPDEST SWAP1 POP DUP2 DUP2 SUB PUSH1 0xA0 DUP4 ADD MSTORE PUSH3 0x22D6 DUP2 DUP10 PUSH3 0x21D7 JUMP JUMPDEST SWAP1 POP PUSH3 0x22E7 PUSH1 0xC0 DUP4 ADD DUP9 PUSH3 0x2241 JUMP JUMPDEST PUSH3 0x22F6 PUSH1 0xE0 DUP4 ADD DUP8 PUSH3 0x2241 JUMP JUMPDEST PUSH3 0x2306 PUSH2 0x100 DUP4 ADD DUP7 PUSH3 0x2241 JUMP JUMPDEST PUSH3 0x2316 PUSH2 0x120 DUP4 ADD DUP6 PUSH3 0x2090 JUMP JUMPDEST PUSH3 0x2326 PUSH2 0x140 DUP4 ADD DUP5 PUSH3 0x2241 JUMP JUMPDEST SWAP13 SWAP12 POP POP POP POP POP POP POP POP POP POP POP POP JUMP JUMPDEST PUSH1 0x0 PUSH1 0x20 DUP3 ADD SWAP1 POP DUP2 DUP2 SUB PUSH1 0x0 DUP4 ADD MSTORE PUSH3 0x2352 DUP2 DUP5 PUSH3 0x21D7 JUMP JUMPDEST SWAP1 POP SWAP3 SWAP2 POP POP JUMP JUMPDEST PUSH1 0x0 PUSH1 0x20 DUP3 ADD SWAP1 POP PUSH3 0x2371 PUSH1 0x0 DUP4 ADD DUP5 PUSH3 0x20BE JUMP JUMPDEST SWAP3 SWAP2 POP POP JUMP JUMPDEST PUSH1 0x0 DUP1 REVERT JUMPDEST PUSH1 0x0 DUP1 REVERT JUMPDEST PUSH32 0x4E487B7100000000000000000000000000000000000000000000000000000000 PUSH1 0x0 MSTORE PUSH1 0x41 PUSH1 0x4 MSTORE PUSH1 0x24 PUSH1 0x0 REVERT JUMPDEST PUSH3 0x23BB DUP3 PUSH3 0x2121 JUMP JUMPDEST DUP2 ADD DUP2 DUP2 LT PUSH8 0xFFFFFFFFFFFFFFFF DUP3 GT OR ISZERO PUSH3 0x23DD JUMPI PUSH3 0x23DC PUSH3 0x2381 JUMP JUMPDEST JUMPDEST DUP1 PUSH1 0x40 MSTORE POP POP POP JUMP JUMPDEST PUSH1 0x0 PUSH3 0x23F2 PUSH3 0x1F6C JUMP JUMPDEST SWAP1 POP PUSH3 0x2400 DUP3 DUP3 PUSH3 0x23B0 JUMP JUMPDEST SWAP2 SWAP1 POP JUMP JUMPDEST PUSH1 0x0 PUSH8 0xFFFFFFFFFFFFFFFF DUP3 GT ISZERO PUSH3 0x2423 JUMPI PUSH3 0x2422 PUSH3 0x2381 JUMP JUMPDEST JUMPDEST PUSH3 0x242E DUP3 PUSH3 0x2121 JUMP JUMPDEST SWAP1 POP PUSH1 0x20 DUP2 ADD SWAP1 POP SWAP2 SWAP1 POP JUMP JUMPDEST DUP3 DUP2 DUP4 CALLDATACOPY PUSH1 0x0 DUP4 DUP4 ADD MSTORE POP POP POP JUMP JUMPDEST PUSH1 0x0 PUSH3 0x2461 PUSH3 0x245B DUP5 PUSH3 0x2405 JUMP JUMPDEST PUSH3 0x23E6 JUMP JUMPDEST SWAP1 POP DUP3 DUP2 MSTORE PUSH1 0x20 DUP2 ADD DUP5 DUP5 DUP5 ADD GT ISZERO PUSH3 0x2480 JUMPI PUSH3 0x247F PUSH3 0x237C JUMP JUMPDEST JUMPDEST PUSH3 0x248D DUP5 DUP3 DUP6 PUSH3 0x243B JUMP JUMPDEST POP SWAP4 SWAP3 POP POP POP JUMP JUMPDEST PUSH1 0x0 DUP3 PUSH1 0x1F DUP4 ADD SLT PUSH3 0x24AD JUMPI PUSH3 0x24AC PUSH3 0x2377 JUMP JUMPDEST JUMPDEST DUP2 CALLDATALOAD PUSH3 0x24BF DUP5 DUP3 PUSH1 0x20 DUP7 ADD PUSH3 0x244A JUMP JUMPDEST SWAP2 POP POP SWAP3 SWAP2 POP POP JUMP JUMPDEST PUSH1 0x0 DUP1 PUSH1 0x0 PUSH1 0x60 DUP5 DUP7 SUB SLT ISZERO PUSH3 0x24E4 JUMPI PUSH3 0x24E3 PUSH3 0x1F76 JUMP JUMPDEST JUMPDEST PUSH1 0x0 DUP5 ADD CALLDATALOAD PUSH8 0xFFFFFFFFFFFFFFFF DUP2 GT ISZERO PUSH3 0x2505 JUMPI PUSH3 0x2504 PUSH3 0x1F7B JUMP JUMPDEST JUMPDEST PUSH3 0x2513 DUP7 DUP3 DUP8 ADD PUSH3 0x2495 JUMP JUMPDEST SWAP4 POP POP PUSH1 0x20 PUSH3 0x2526 DUP7 DUP3 DUP8 ADD PUSH3 0x203B JUMP JUMPDEST SWAP3 POP POP PUSH1 0x40 PUSH3 0x2539 DUP7 DUP3 DUP8 ADD PUSH3 0x203B JUMP JUMPDEST SWAP2 POP POP SWAP3 POP SWAP3 POP SWAP3 JUMP JUMPDEST PUSH1 0x0 PUSH1 0x20 DUP3 DUP5 SUB SLT ISZERO PUSH3 0x255C JUMPI PUSH3 0x255B PUSH3 0x1F76 JUMP JUMPDEST JUMPDEST PUSH1 0x0 DUP3 ADD CALLDATALOAD PUSH8 0xFFFFFFFFFFFFFFFF DUP2 GT ISZERO PUSH3 0x257D JUMPI PUSH3 0x257C PUSH3 0x1F7B JUMP JUMPDEST JUMPDEST PUSH3 0x258B DUP5 DUP3 DUP6 ADD PUSH3 0x2495 JUMP JUMPDEST SWAP2 POP POP SWAP3 SWAP2 POP POP JUMP JUMPDEST PUSH32 0x5265656E7472616E742063616C6C000000000000000000000000000000000000 PUSH1 0x0 DUP3 ADD MSTORE POP JUMP JUMPDEST PUSH1 0x0 PUSH3 0x25CC PUSH1 0xE DUP4 PUSH3 0x20DA JUMP JUMPDEST SWAP2 POP PUSH3 0x25D9 DUP3 PUSH3 0x2594 JUMP JUMPDEST PUSH1 0x20 DUP3 ADD SWAP1 POP SWAP2 SWAP1 POP JUMP JUMPDEST PUSH1 0x0 PUSH1 0x20 DUP3 ADD SWAP1 POP DUP2 DUP2 SUB PUSH1 0x0 DUP4 ADD MSTORE PUSH3 0x25FF DUP2 PUSH3 0x25BD JUMP JUMPDEST SWAP1 POP SWAP2 SWAP1 POP JUMP JUMPDEST PUSH32 0x546869732073746F727920686173206265656E207265706F7274656400000000 PUSH1 0x0 DUP3 ADD MSTORE POP JUMP JUMPDEST PUSH1 0x0 PUSH3 0x263E PUSH1 0x1C DUP4 PUSH3 0x20DA JUMP JUMPDEST SWAP2 POP PUSH3 0x264B DUP3 PUSH3 0x2606 JUMP JUMPDEST PUSH1 0x20 DUP3 ADD SWAP1 POP SWAP2 SWAP1 POP JUMP JUMPDEST PUSH1 0x0 PUSH1 0x20 DUP3 ADD SWAP1 POP DUP2 DUP2 SUB PUSH1 0x0 DUP4 ADD MSTORE PUSH3 0x2671 DUP2 PUSH3 0x262F JUMP JUMPDEST SWAP1 POP SWAP2 SWAP1 POP JUMP JUMPDEST PUSH32 0x596F752068617665207265706F7274656420746869732073746F727920626566 PUSH1 0x0 DUP3 ADD MSTORE PUSH32 0x6F72650000000000000000000000000000000000000000000000000000000000 PUSH1 0x20 DUP3 ADD MSTORE POP JUMP JUMPDEST PUSH1 0x0 PUSH3 0x26D6 PUSH1 0x23 DUP4 PUSH3 0x20DA JUMP JUMPDEST SWAP2 POP PUSH3 0x26E3 DUP3 PUSH3 0x2678 JUMP JUMPDEST PUSH1 0x40 DUP3 ADD SWAP1 POP SWAP2 SWAP1 POP JUMP JUMPDEST PUSH1 0x0 PUSH1 0x20 DUP3 ADD SWAP1 POP DUP2 DUP2 SUB PUSH1 0x0 DUP4 ADD MSTORE PUSH3 0x2709 DUP2 PUSH3 0x26C7 JUMP JUMPDEST SWAP1 POP SWAP2 SWAP1 POP JUMP JUMPDEST PUSH32 0x4F6E6C7920616E20616363657074656420617574686F722063616E2061707072 PUSH1 0x0 DUP3 ADD MSTORE PUSH32 0x6F76652061207265717565737400000000000000000000000000000000000000 PUSH1 0x20 DUP3 ADD MSTORE POP JUMP JUMPDEST PUSH1 0x0 PUSH3 0x276E PUSH1 0x2D DUP4 PUSH3 0x20DA JUMP JUMPDEST SWAP2 POP PUSH3 0x277B DUP3 PUSH3 0x2710 JUMP JUMPDEST PUSH1 0x40 DUP3 ADD SWAP1 POP SWAP2 SWAP1 POP JUMP JUMPDEST PUSH1 0x0 PUSH1 0x20 DUP3 ADD SWAP1 POP DUP2 DUP2 SUB PUSH1 0x0 DUP4 ADD MSTORE PUSH3 0x27A1 DUP2 PUSH3 0x275F JUMP JUMPDEST SWAP1 POP SWAP2 SWAP1 POP JUMP JUMPDEST PUSH32 0x496E646578206F7574206F6620626F756E647300000000000000000000000000 PUSH1 0x0 DUP3 ADD MSTORE POP JUMP JUMPDEST PUSH1 0x0 PUSH3 0x27E0 PUSH1 0x13 DUP4 PUSH3 0x20DA JUMP JUMPDEST SWAP2 POP PUSH3 0x27ED DUP3 PUSH3 0x27A8 JUMP JUMPDEST PUSH1 0x20 DUP3 ADD SWAP1 POP SWAP2 SWAP1 POP JUMP JUMPDEST PUSH1 0x0 PUSH1 0x20 DUP3 ADD SWAP1 POP DUP2 DUP2 SUB PUSH1 0x0 DUP4 ADD MSTORE PUSH3 0x2813 DUP2 PUSH3 0x27D1 JUMP JUMPDEST SWAP1 POP SWAP2 SWAP1 POP JUMP JUMPDEST PUSH32 0x4E487B7100000000000000000000000000000000000000000000000000000000 PUSH1 0x0 MSTORE PUSH1 0x32 PUSH1 0x4 MSTORE PUSH1 0x24 PUSH1 0x0 REVERT JUMPDEST PUSH32 0x4E487B7100000000000000000000000000000000000000000000000000000000 PUSH1 0x0 MSTORE PUSH1 0x22 PUSH1 0x4 MSTORE PUSH1 0x24 PUSH1 0x0 REVERT JUMPDEST PUSH1 0x0 PUSH1 0x2 DUP3 DIV SWAP1 POP PUSH1 0x1 DUP3 AND DUP1 PUSH3 0x2891 JUMPI PUSH1 0x7F DUP3 AND SWAP2 POP JUMPDEST PUSH1 0x20 DUP3 LT DUP2 EQ ISZERO PUSH3 0x28A8 JUMPI PUSH3 0x28A7 PUSH3 0x2849 JUMP JUMPDEST JUMPDEST POP SWAP2 SWAP1 POP JUMP JUMPDEST PUSH1 0x0 DUP2 SWAP1 POP DUP2 PUSH1 0x0 MSTORE PUSH1 0x20 PUSH1 0x0 KECCAK256 SWAP1 POP SWAP2 SWAP1 POP JUMP JUMPDEST PUSH1 0x0 DUP2 SLOAD PUSH3 0x28D2 DUP2 PUSH3 0x2878 JUMP JUMPDEST PUSH3 0x28DE DUP2 DUP7 PUSH3 0x20DA JUMP JUMPDEST SWAP5 POP PUSH1 0x1 DUP3 AND PUSH1 0x0 DUP2 EQ PUSH3 0x28FC JUMPI PUSH1 0x1 DUP2 EQ PUSH3 0x290F JUMPI PUSH3 0x2946 JUMP JUMPDEST PUSH1 0xFF NOT DUP4 AND DUP7 MSTORE PUSH1 0x20 DUP7 ADD SWAP4 POP PUSH3 0x2946 JUMP JUMPDEST PUSH3 0x291A DUP6 PUSH3 0x28AE JUMP JUMPDEST PUSH1 0x0 JUMPDEST DUP4 DUP2 LT ISZERO PUSH3 0x293E JUMPI DUP2 SLOAD DUP2 DUP10 ADD MSTORE PUSH1 0x1 DUP3 ADD SWAP2 POP PUSH1 0x20 DUP2 ADD SWAP1 POP PUSH3 0x291D JUMP JUMPDEST DUP1 DUP9 ADD SWAP6 POP POP POP JUMPDEST POP POP POP SWAP3 SWAP2 POP POP JUMP JUMPDEST PUSH1 0x0 PUSH1 0xA0 DUP3 ADD SWAP1 POP PUSH3 0x2966 PUSH1 0x0 DUP4 ADD DUP9 PUSH3 0x20BE JUMP JUMPDEST PUSH3 0x2975 PUSH1 0x20 DUP4 ADD DUP8 PUSH3 0x20BE JUMP JUMPDEST DUP2 DUP2 SUB PUSH1 0x40 DUP4 ADD MSTORE PUSH3 0x2989 DUP2 DUP7 PUSH3 0x28C3 JUMP JUMPDEST SWAP1 POP PUSH3 0x299A PUSH1 0x60 DUP4 ADD DUP6 PUSH3 0x20BE JUMP JUMPDEST PUSH3 0x29A9 PUSH1 0x80 DUP4 ADD DUP5 PUSH3 0x20BE JUMP JUMPDEST SWAP7 SWAP6 POP POP POP POP POP POP JUMP JUMPDEST PUSH32 0x4F6E6C7920616E20617574686F72697A656420617574686F722063616E206469 PUSH1 0x0 DUP3 ADD MSTORE PUSH32 0x7370656E73652072657761726473000000000000000000000000000000000000 PUSH1 0x20 DUP3 ADD MSTORE POP JUMP JUMPDEST PUSH1 0x0 PUSH3 0x2A11 PUSH1 0x2E DUP4 PUSH3 0x20DA JUMP JUMPDEST SWAP2 POP PUSH3 0x2A1E DUP3 PUSH3 0x29B3 JUMP JUMPDEST PUSH1 0x40 DUP3 ADD SWAP1 POP SWAP2 SWAP1 POP JUMP JUMPDEST PUSH1 0x0 PUSH1 0x20 DUP3 ADD SWAP1 POP DUP2 DUP2 SUB PUSH1 0x0 DUP4 ADD MSTORE PUSH3 0x2A44 DUP2 PUSH3 0x2A02 JUMP JUMPDEST SWAP1 POP SWAP2 SWAP1 POP JUMP JUMPDEST PUSH32 0x4E6F2072657761726420746F2064697370656E73650000000000000000000000 PUSH1 0x0 DUP3 ADD MSTORE POP JUMP JUMPDEST PUSH1 0x0 PUSH3 0x2A83 PUSH1 0x15 DUP4 PUSH3 0x20DA JUMP JUMPDEST SWAP2 POP PUSH3 0x2A90 DUP3 PUSH3 0x2A4B JUMP JUMPDEST PUSH1 0x20 DUP3 ADD SWAP1 POP SWAP2 SWAP1 POP JUMP JUMPDEST PUSH1 0x0 PUSH1 0x20 DUP3 ADD SWAP1 POP DUP2 DUP2 SUB PUSH1 0x0 DUP4 ADD MSTORE PUSH3 0x2AB6 DUP2 PUSH3 0x2A74 JUMP JUMPDEST SWAP1 POP SWAP2 SWAP1 POP JUMP JUMPDEST PUSH32 0x4E487B7100000000000000000000000000000000000000000000000000000000 PUSH1 0x0 MSTORE PUSH1 0x11 PUSH1 0x4 MSTORE PUSH1 0x24 PUSH1 0x0 REVERT JUMPDEST PUSH1 0x0 PUSH3 0x2AF9 DUP3 PUSH3 0x1F80 JUMP JUMPDEST SWAP2 POP PUSH32 0xFFFFFFFFFFFFFFFFFFFFFFFFFFFFFFFFFFFFFFFFFFFFFFFFFFFFFFFFFFFFFFFF DUP3 EQ ISZERO PUSH3 0x2B2F JUMPI PUSH3 0x2B2E PUSH3 0x2ABD JUMP JUMPDEST JUMPDEST PUSH1 0x1 DUP3 ADD SWAP1 POP SWAP2 SWAP1 POP JUMP JUMPDEST PUSH32 0x5468697320617574686F7220616C726561647920617070726F76656420626566 PUSH1 0x0 DUP3 ADD MSTORE PUSH32 0x6F72650000000000000000000000000000000000000000000000000000000000 PUSH1 0x20 DUP3 ADD MSTORE POP JUMP JUMPDEST PUSH1 0x0 PUSH3 0x2B98 PUSH1 0x23 DUP4 PUSH3 0x20DA JUMP JUMPDEST SWAP2 POP PUSH3 0x2BA5 DUP3 PUSH3 0x2B3A JUMP JUMPDEST PUSH1 0x40 DUP3 ADD SWAP1 POP SWAP2 SWAP1 POP JUMP JUMPDEST PUSH1 0x0 PUSH1 0x20 DUP3 ADD SWAP1 POP DUP2 DUP2 SUB PUSH1 0x0 DUP4 ADD MSTORE PUSH3 0x2BCB DUP2 PUSH3 0x2B89 JUMP JUMPDEST SWAP1 POP SWAP2 SWAP1 POP JUMP JUMPDEST PUSH32 0x4F6E6C7920616E20616363657074656420617574686F722063616E2061747465 PUSH1 0x0 DUP3 ADD MSTORE PUSH32 0x6D707420746F2061646420636861707465720000000000000000000000000000 PUSH1 0x20 DUP3 ADD MSTORE POP JUMP JUMPDEST PUSH1 0x0 PUSH3 0x2C30 PUSH1 0x32 DUP4 PUSH3 0x20DA JUMP JUMPDEST SWAP2 POP PUSH3 0x2C3D DUP3 PUSH3 0x2BD2 JUMP JUMPDEST PUSH1 0x40 DUP3 ADD SWAP1 POP SWAP2 SWAP1 POP JUMP JUMPDEST PUSH1 0x0 PUSH1 0x20 DUP3 ADD SWAP1 POP DUP2 DUP2 SUB PUSH1 0x0 DUP4 ADD MSTORE PUSH3 0x2C63 DUP2 PUSH3 0x2C21 JUMP JUMPDEST SWAP1 POP SWAP2 SWAP1 POP JUMP JUMPDEST PUSH32 0x506172656E742063686170746572206D757374206265206120636F6E74726163 PUSH1 0x0 DUP3 ADD MSTORE PUSH32 0x7400000000000000000000000000000000000000000000000000000000000000 PUSH1 0x20 DUP3 ADD MSTORE POP JUMP JUMPDEST PUSH1 0x0 PUSH3 0x2CC8 PUSH1 0x21 DUP4 PUSH3 0x20DA JUMP JUMPDEST SWAP2 POP PUSH3 0x2CD5 DUP3 PUSH3 0x2C6A JUMP JUMPDEST PUSH1 0x40 DUP3 ADD SWAP1 POP SWAP2 SWAP1 POP JUMP JUMPDEST PUSH1 0x0 PUSH1 0x20 DUP3 ADD SWAP1 POP DUP2 DUP2 SUB PUSH1 0x0 DUP4 ADD MSTORE PUSH3 0x2CFB DUP2 PUSH3 0x2CB9 JUMP JUMPDEST SWAP1 POP SWAP2 SWAP1 POP JUMP JUMPDEST PUSH32 0x4368696C642063686170746572206D757374206265206120636F6E7472616374 PUSH1 0x0 DUP3 ADD MSTORE POP JUMP JUMPDEST PUSH1 0x0 PUSH3 0x2D3A PUSH1 0x20 DUP4 PUSH3 0x20DA JUMP JUMPDEST SWAP2 POP PUSH3 0x2D47 DUP3 PUSH3 0x2D02 JUMP JUMPDEST PUSH1 0x20 DUP3 ADD SWAP1 POP SWAP2 SWAP1 POP JUMP JUMPDEST PUSH1 0x0 PUSH1 0x20 DUP3 ADD SWAP1 POP DUP2 DUP2 SUB PUSH1 0x0 DUP4 ADD MSTORE PUSH3 0x2D6D DUP2 PUSH3 0x2D2B JUMP JUMPDEST SWAP1 POP SWAP2 SWAP1 POP JUMP JUMPDEST PUSH32 0x506172656E742063686170746572206D7573742062656C6F6E6720746F207468 PUSH1 0x0 DUP3 ADD MSTORE PUSH32 0x652073616D652073746F72790000000000000000000000000000000000000000 PUSH1 0x20 DUP3 ADD MSTORE POP JUMP JUMPDEST PUSH1 0x0 PUSH3 0x2DD2 PUSH1 0x2C DUP4 PUSH3 0x20DA JUMP JUMPDEST SWAP2 POP PUSH3 0x2DDF DUP3 PUSH3 0x2D74 JUMP JUMPDEST PUSH1 0x40 DUP3 ADD SWAP1 POP SWAP2 SWAP1 POP JUMP JUMPDEST PUSH1 0x0 PUSH1 0x20 DUP3 ADD SWAP1 POP DUP2 DUP2 SUB PUSH1 0x0 DUP4 ADD MSTORE PUSH3 0x2E05 DUP2 PUSH3 0x2DC3 JUMP JUMPDEST SWAP1 POP SWAP2 SWAP1 POP JUMP JUMPDEST PUSH32 0x4368696C642063686170746572206D7573742062656C6F6E6720746F20746865 PUSH1 0x0 DUP3 ADD MSTORE PUSH32 0x2073616D652073746F7279000000000000000000000000000000000000000000 PUSH1 0x20 DUP3 ADD MSTORE POP JUMP JUMPDEST PUSH1 0x0 PUSH3 0x2E6A PUSH1 0x2B DUP4 PUSH3 0x20DA JUMP JUMPDEST SWAP2 POP PUSH3 0x2E77 DUP3 PUSH3 0x2E0C JUMP JUMPDEST PUSH1 0x40 DUP3 ADD SWAP1 POP SWAP2 SWAP1 POP JUMP JUMPDEST PUSH1 0x0 PUSH1 0x20 DUP3 ADD SWAP1 POP DUP2 DUP2 SUB PUSH1 0x0 DUP4 ADD MSTORE PUSH3 0x2E9D DUP2 PUSH3 0x2E5B JUMP JUMPDEST SWAP1 POP SWAP2 SWAP1 POP JUMP JUMPDEST PUSH32 0x4D696E696D756D20636F6E747269627574696F6E206973203130302057656900 PUSH1 0x0 DUP3 ADD MSTORE POP JUMP JUMPDEST PUSH1 0x0 PUSH3 0x2EDC PUSH1 0x1F DUP4 PUSH3 0x20DA JUMP JUMPDEST SWAP2 POP PUSH3 0x2EE9 DUP3 PUSH3 0x2EA4 JUMP JUMPDEST PUSH1 0x20 DUP3 ADD SWAP1 POP SWAP2 SWAP1 POP JUMP JUMPDEST PUSH1 0x0 PUSH1 0x20 DUP3 ADD SWAP1 POP DUP2 DUP2 SUB PUSH1 0x0 DUP4 ADD MSTORE PUSH3 0x2F0F DUP2 PUSH3 0x2ECD JUMP JUMPDEST SWAP1 POP SWAP2 SWAP1 POP JUMP JUMPDEST PUSH32 0x417574686F7220616C72656164792065786973747320696E20746865206C6973 PUSH1 0x0 DUP3 ADD MSTORE PUSH32 0x74206F6620617574686F72730000000000000000000000000000000000000000 PUSH1 0x20 DUP3 ADD MSTORE POP JUMP JUMPDEST PUSH1 0x0 PUSH3 0x2F74 PUSH1 0x2C DUP4 PUSH3 0x20DA JUMP JUMPDEST SWAP2 POP PUSH3 0x2F81 DUP3 PUSH3 0x2F16 JUMP JUMPDEST PUSH1 0x40 DUP3 ADD SWAP1 POP SWAP2 SWAP1 POP JUMP JUMPDEST PUSH1 0x0 PUSH1 0x20 DUP3 ADD SWAP1 POP DUP2 DUP2 SUB PUSH1 0x0 DUP4 ADD MSTORE PUSH3 0x2FA7 DUP2 PUSH3 0x2F65 JUMP JUMPDEST SWAP1 POP SWAP2 SWAP1 POP JUMP JUMPDEST PUSH1 0x0 PUSH3 0x2FBB DUP3 PUSH3 0x1F80 JUMP JUMPDEST SWAP2 POP PUSH3 0x2FC8 DUP4 PUSH3 0x1F80 JUMP JUMPDEST SWAP3 POP DUP3 PUSH32 0xFFFFFFFFFFFFFFFFFFFFFFFFFFFFFFFFFFFFFFFFFFFFFFFFFFFFFFFFFFFFFFFF SUB DUP3 GT ISZERO PUSH3 0x3000 JUMPI PUSH3 0x2FFF PUSH3 0x2ABD JUMP JUMPDEST JUMPDEST DUP3 DUP3 ADD SWAP1 POP SWAP3 SWAP2 POP POP JUMP JUMPDEST PUSH32 0x536166654D6174683A206164646974696F6E206F766572666C6F770000000000 PUSH1 0x0 DUP3 ADD MSTORE POP JUMP JUMPDEST PUSH1 0x0 PUSH3 0x3043 PUSH1 0x1B DUP4 PUSH3 0x20DA JUMP JUMPDEST SWAP2 POP PUSH3 0x3050 DUP3 PUSH3 0x300B JUMP JUMPDEST PUSH1 0x20 DUP3 ADD SWAP1 POP SWAP2 SWAP1 POP JUMP JUMPDEST PUSH1 0x0 PUSH1 0x20 DUP3 ADD SWAP1 POP DUP2 DUP2 SUB PUSH1 0x0 DUP4 ADD MSTORE PUSH3 0x3076 DUP2 PUSH3 0x3034 JUMP JUMPDEST SWAP1 POP SWAP2 SWAP1 POP JUMP JUMPDEST PUSH32 0x536166654D6174683A206469766973696F6E206279207A65726F000000000000 PUSH1 0x0 DUP3 ADD MSTORE POP JUMP JUMPDEST PUSH1 0x0 PUSH3 0x30B5 PUSH1 0x1A DUP4 PUSH3 0x20DA JUMP JUMPDEST SWAP2 POP PUSH3 0x30C2 DUP3 PUSH3 0x307D JUMP JUMPDEST PUSH1 0x20 DUP3 ADD SWAP1 POP SWAP2 SWAP1 POP JUMP JUMPDEST PUSH1 0x0 PUSH1 0x20 DUP3 ADD SWAP1 POP DUP2 DUP2 SUB PUSH1 0x0 DUP4 ADD MSTORE PUSH3 0x30E8 DUP2 PUSH3 0x30A6 JUMP JUMPDEST SWAP1 POP SWAP2 SWAP1 POP JUMP JUMPDEST PUSH32 0x4E487B7100000000000000000000000000000000000000000000000000000000 PUSH1 0x0 MSTORE PUSH1 0x12 PUSH1 0x4 MSTORE PUSH1 0x24 PUSH1 0x0 REVERT JUMPDEST PUSH1 0x0 PUSH3 0x312B DUP3 PUSH3 0x1F80 JUMP JUMPDEST SWAP2 POP PUSH3 0x3138 DUP4 PUSH3 0x1F80 JUMP JUMPDEST SWAP3 POP DUP3 PUSH3 0x314B JUMPI PUSH3 0x314A PUSH3 0x30EF JUMP JUMPDEST JUMPDEST DUP3 DUP3 DIV SWAP1 POP SWAP3 SWAP2 POP POP JUMP INVALID PUSH1 0x80 PUSH1 0x40 MSTORE CALLVALUE DUP1 ISZERO PUSH3 0x11 JUMPI PUSH1 0x0 DUP1 REVERT JUMPDEST POP PUSH1 0x40 MLOAD PUSH3 0x144B CODESIZE SUB DUP1 PUSH3 0x144B DUP4 CODECOPY DUP2 DUP2 ADD PUSH1 0x40 MSTORE DUP2 ADD SWAP1 PUSH3 0x37 SWAP2 SWAP1 PUSH3 0x4C0 JUMP JUMPDEST DUP5 PUSH1 0x1 PUSH1 0x0 PUSH2 0x100 EXP DUP2 SLOAD DUP2 PUSH20 0xFFFFFFFFFFFFFFFFFFFFFFFFFFFFFFFFFFFFFFFF MUL NOT AND SWAP1 DUP4 PUSH20 0xFFFFFFFFFFFFFFFFFFFFFFFFFFFFFFFFFFFFFFFF AND MUL OR SWAP1 SSTORE POP DUP4 PUSH1 0x0 DUP1 PUSH2 0x100 EXP DUP2 SLOAD DUP2 PUSH20 0xFFFFFFFFFFFFFFFFFFFFFFFFFFFFFFFFFFFFFFFF MUL NOT AND SWAP1 DUP4 PUSH20 0xFFFFFFFFFFFFFFFFFFFFFFFFFFFFFFFFFFFFFFFF AND MUL OR SWAP1 SSTORE POP DUP3 PUSH1 0x2 SWAP1 DUP1 MLOAD SWAP1 PUSH1 0x20 ADD SWAP1 PUSH3 0xD0 SWAP3 SWAP2 SWAP1 PUSH3 0x20E JUMP JUMPDEST POP PUSH1 0x0 PUSH20 0xFFFFFFFFFFFFFFFFFFFFFFFFFFFFFFFFFFFFFFFF AND DUP3 PUSH20 0xFFFFFFFFFFFFFFFFFFFFFFFFFFFFFFFFFFFFFFFF AND EQ PUSH3 0x16A JUMPI PUSH1 0x3 DUP3 SWAP1 DUP1 PUSH1 0x1 DUP2 SLOAD ADD DUP1 DUP3 SSTORE DUP1 SWAP2 POP POP PUSH1 0x1 SWAP1 SUB SWAP1 PUSH1 0x0 MSTORE PUSH1 0x20 PUSH1 0x0 KECCAK256 ADD PUSH1 0x0 SWAP1 SWAP2 SWAP1 SWAP2 SWAP1 SWAP2 PUSH2 0x100 EXP DUP2 SLOAD DUP2 PUSH20 0xFFFFFFFFFFFFFFFFFFFFFFFFFFFFFFFFFFFFFFFF MUL NOT AND SWAP1 DUP4 PUSH20 0xFFFFFFFFFFFFFFFFFFFFFFFFFFFFFFFFFFFFFFFF AND MUL OR SWAP1 SSTORE POP JUMPDEST PUSH1 0x0 PUSH20 0xFFFFFFFFFFFFFFFFFFFFFFFFFFFFFFFFFFFFFFFF AND DUP2 PUSH20 0xFFFFFFFFFFFFFFFFFFFFFFFFFFFFFFFFFFFFFFFF AND EQ PUSH3 0x203 JUMPI PUSH1 0x4 DUP2 SWAP1 DUP1 PUSH1 0x1 DUP2 SLOAD ADD DUP1 DUP3 SSTORE DUP1 SWAP2 POP POP PUSH1 0x1 SWAP1 SUB SWAP1 PUSH1 0x0 MSTORE PUSH1 0x20 PUSH1 0x0 KECCAK256 ADD PUSH1 0x0 SWAP1 SWAP2 SWAP1 SWAP2 SWAP1 SWAP2 PUSH2 0x100 EXP DUP2 SLOAD DUP2 PUSH20 0xFFFFFFFFFFFFFFFFFFFFFFFFFFFFFFFFFFFFFFFF MUL NOT AND SWAP1 DUP4 PUSH20 0xFFFFFFFFFFFFFFFFFFFFFFFFFFFFFFFFFFFFFFFF AND MUL OR SWAP1 SSTORE POP JUMPDEST POP POP POP POP POP PUSH3 0x5CC JUMP JUMPDEST DUP3 DUP1 SLOAD PUSH3 0x21C SWAP1 PUSH3 0x596 JUMP JUMPDEST SWAP1 PUSH1 0x0 MSTORE PUSH1 0x20 PUSH1 0x0 KECCAK256 SWAP1 PUSH1 0x1F ADD PUSH1 0x20 SWAP1 DIV DUP2 ADD SWAP3 DUP3 PUSH3 0x240 JUMPI PUSH1 0x0 DUP6 SSTORE PUSH3 0x28C JUMP JUMPDEST DUP3 PUSH1 0x1F LT PUSH3 0x25B JUMPI DUP1 MLOAD PUSH1 0xFF NOT AND DUP4 DUP1 ADD OR DUP6 SSTORE PUSH3 0x28C JUMP JUMPDEST DUP3 DUP1 ADD PUSH1 0x1 ADD DUP6 SSTORE DUP3 ISZERO PUSH3 0x28C JUMPI SWAP2 DUP3 ADD JUMPDEST DUP3 DUP2 GT ISZERO PUSH3 0x28B JUMPI DUP3 MLOAD DUP3 SSTORE SWAP2 PUSH1 0x20 ADD SWAP2 SWAP1 PUSH1 0x1 ADD SWAP1 PUSH3 0x26E JUMP JUMPDEST JUMPDEST POP SWAP1 POP PUSH3 0x29B SWAP2 SWAP1 PUSH3 0x29F JUMP JUMPDEST POP SWAP1 JUMP JUMPDEST JUMPDEST DUP1 DUP3 GT ISZERO PUSH3 0x2BA JUMPI PUSH1 0x0 DUP2 PUSH1 0x0 SWAP1 SSTORE POP PUSH1 0x1 ADD PUSH3 0x2A0 JUMP JUMPDEST POP SWAP1 JUMP JUMPDEST PUSH1 0x0 PUSH1 0x40 MLOAD SWAP1 POP SWAP1 JUMP JUMPDEST PUSH1 0x0 DUP1 REVERT JUMPDEST PUSH1 0x0 DUP1 REVERT JUMPDEST PUSH1 0x0 PUSH20 0xFFFFFFFFFFFFFFFFFFFFFFFFFFFFFFFFFFFFFFFF DUP3 AND SWAP1 POP SWAP2 SWAP1 POP JUMP JUMPDEST PUSH1 0x0 PUSH3 0x2FF DUP3 PUSH3 0x2D2 JUMP JUMPDEST SWAP1 POP SWAP2 SWAP1 POP JUMP JUMPDEST PUSH3 0x311 DUP2 PUSH3 0x2F2 JUMP JUMPDEST DUP2 EQ PUSH3 0x31D JUMPI PUSH1 0x0 DUP1 REVERT JUMPDEST POP JUMP JUMPDEST PUSH1 0x0 DUP2 MLOAD SWAP1 POP PUSH3 0x331 DUP2 PUSH3 0x306 JUMP JUMPDEST SWAP3 SWAP2 POP POP JUMP JUMPDEST PUSH1 0x0 DUP1 REVERT JUMPDEST PUSH1 0x0 DUP1 REVERT JUMPDEST PUSH1 0x0 PUSH1 0x1F NOT PUSH1 0x1F DUP4 ADD AND SWAP1 POP SWAP2 SWAP1 POP JUMP JUMPDEST PUSH32 0x4E487B7100000000000000000000000000000000000000000000000000000000 PUSH1 0x0 MSTORE PUSH1 0x41 PUSH1 0x4 MSTORE PUSH1 0x24 PUSH1 0x0 REVERT JUMPDEST PUSH3 0x38C DUP3 PUSH3 0x341 JUMP JUMPDEST DUP2 ADD DUP2 DUP2 LT PUSH8 0xFFFFFFFFFFFFFFFF DUP3 GT OR ISZERO PUSH3 0x3AE JUMPI PUSH3 0x3AD PUSH3 0x352 JUMP JUMPDEST JUMPDEST DUP1 PUSH1 0x40 MSTORE POP POP POP JUMP JUMPDEST PUSH1 0x0 PUSH3 0x3C3 PUSH3 0x2BE JUMP JUMPDEST SWAP1 POP PUSH3 0x3D1 DUP3 DUP3 PUSH3 0x381 JUMP JUMPDEST SWAP2 SWAP1 POP JUMP JUMPDEST PUSH1 0x0 PUSH8 0xFFFFFFFFFFFFFFFF DUP3 GT ISZERO PUSH3 0x3F4 JUMPI PUSH3 0x3F3 PUSH3 0x352 JUMP JUMPDEST JUMPDEST PUSH3 0x3FF DUP3 PUSH3 0x341 JUMP JUMPDEST SWAP1 POP PUSH1 0x20 DUP2 ADD SWAP1 POP SWAP2 SWAP1 POP JUMP JUMPDEST PUSH1 0x0 JUMPDEST DUP4 DUP2 LT ISZERO PUSH3 0x42C JUMPI DUP1 DUP3 ADD MLOAD DUP2 DUP5 ADD MSTORE PUSH1 0x20 DUP2 ADD SWAP1 POP PUSH3 0x40F JUMP JUMPDEST DUP4 DUP2 GT ISZERO PUSH3 0x43C JUMPI PUSH1 0x0 DUP5 DUP5 ADD MSTORE JUMPDEST POP POP POP POP JUMP JUMPDEST PUSH1 0x0 PUSH3 0x459 PUSH3 0x453 DUP5 PUSH3 0x3D6 JUMP JUMPDEST PUSH3 0x3B7 JUMP JUMPDEST SWAP1 POP DUP3 DUP2 MSTORE PUSH1 0x20 DUP2 ADD DUP5 DUP5 DUP5 ADD GT ISZERO PUSH3 0x478 JUMPI PUSH3 0x477 PUSH3 0x33C JUMP JUMPDEST JUMPDEST PUSH3 0x485 DUP5 DUP3 DUP6 PUSH3 0x40C JUMP JUMPDEST POP SWAP4 SWAP3 POP POP POP JUMP JUMPDEST PUSH1 0x0 DUP3 PUSH1 0x1F DUP4 ADD SLT PUSH3 0x4A5 JUMPI PUSH3 0x4A4 PUSH3 0x337 JUMP JUMPDEST JUMPDEST DUP2 MLOAD PUSH3 0x4B7 DUP5 DUP3 PUSH1 0x20 DUP7 ADD PUSH3 0x442 JUMP JUMPDEST SWAP2 POP POP SWAP3 SWAP2 POP POP JUMP JUMPDEST PUSH1 0x0 DUP1 PUSH1 0x0 DUP1 PUSH1 0x0 PUSH1 0xA0 DUP7 DUP9 SUB SLT ISZERO PUSH3 0x4DF JUMPI PUSH3 0x4DE PUSH3 0x2C8 JUMP JUMPDEST JUMPDEST PUSH1 0x0 PUSH3 0x4EF DUP9 DUP3 DUP10 ADD PUSH3 0x320 JUMP JUMPDEST SWAP6 POP POP PUSH1 0x20 PUSH3 0x502 DUP9 DUP3 DUP10 ADD PUSH3 0x320 JUMP JUMPDEST SWAP5 POP POP PUSH1 0x40 DUP7 ADD MLOAD PUSH8 0xFFFFFFFFFFFFFFFF DUP2 GT ISZERO PUSH3 0x526 JUMPI PUSH3 0x525 PUSH3 0x2CD JUMP JUMPDEST JUMPDEST PUSH3 0x534 DUP9 DUP3 DUP10 ADD PUSH3 0x48D JUMP JUMPDEST SWAP4 POP POP PUSH1 0x60 PUSH3 0x547 DUP9 DUP3 DUP10 ADD PUSH3 0x320 JUMP JUMPDEST SWAP3 POP POP PUSH1 0x80 PUSH3 0x55A DUP9 DUP3 DUP10 ADD PUSH3 0x320 JUMP JUMPDEST SWAP2 POP POP SWAP3 SWAP6 POP SWAP3 SWAP6 SWAP1 SWAP4 POP JUMP JUMPDEST PUSH32 0x4E487B7100000000000000000000000000000000000000000000000000000000 PUSH1 0x0 MSTORE PUSH1 0x22 PUSH1 0x4 MSTORE PUSH1 0x24 PUSH1 0x0 REVERT JUMPDEST PUSH1 0x0 PUSH1 0x2 DUP3 DIV SWAP1 POP PUSH1 0x1 DUP3 AND DUP1 PUSH3 0x5AF JUMPI PUSH1 0x7F DUP3 AND SWAP2 POP JUMPDEST PUSH1 0x20 DUP3 LT DUP2 EQ ISZERO PUSH3 0x5C6 JUMPI PUSH3 0x5C5 PUSH3 0x567 JUMP JUMPDEST JUMPDEST POP SWAP2 SWAP1 POP JUMP JUMPDEST PUSH2 0xE6F DUP1 PUSH3 0x5DC PUSH1 0x0 CODECOPY PUSH1 0x0 RETURN INVALID PUSH1 0x80 PUSH1 0x40 MSTORE CALLVALUE DUP1 ISZERO PUSH2 0x10 JUMPI PUSH1 0x0 DUP1 REVERT JUMPDEST POP PUSH1 0x4 CALLDATASIZE LT PUSH2 0x9E JUMPI PUSH1 0x0 CALLDATALOAD PUSH1 0xE0 SHR DUP1 PUSH4 0xA6C3E6B9 GT PUSH2 0x66 JUMPI DUP1 PUSH4 0xA6C3E6B9 EQ PUSH2 0x126 JUMPI DUP1 PUSH4 0xC5FE6FFC EQ PUSH2 0x144 JUMPI DUP1 PUSH4 0xC623674F EQ PUSH2 0x174 JUMPI DUP1 PUSH4 0xE5A0AF3D EQ PUSH2 0x192 JUMPI DUP1 PUSH4 0xED777791 EQ PUSH2 0x1B0 JUMPI PUSH2 0x9E JUMP JUMPDEST DUP1 PUSH4 0x4051DDAC EQ PUSH2 0xA3 JUMPI DUP1 PUSH4 0x46C922D1 EQ PUSH2 0xC6 JUMPI DUP1 PUSH4 0x8758CE83 EQ PUSH2 0xE4 JUMPI DUP1 PUSH4 0x988E46C8 EQ PUSH2 0x100 JUMPI DUP1 PUSH4 0xA523B88A EQ PUSH2 0x11C JUMPI JUMPDEST PUSH1 0x0 DUP1 REVERT JUMPDEST PUSH2 0xAB PUSH2 0x1E0 JUMP JUMPDEST PUSH1 0x40 MLOAD PUSH2 0xBD SWAP7 SWAP6 SWAP5 SWAP4 SWAP3 SWAP2 SWAP1 PUSH2 0xA3E JUMP JUMPDEST PUSH1 0x40 MLOAD DUP1 SWAP2 SUB SWAP1 RETURN JUMPDEST PUSH2 0xCE PUSH2 0x3E8 JUMP JUMPDEST PUSH1 0x40 MLOAD PUSH2 0xDB SWAP2 SWAP1 PUSH2 0xAB4 JUMP JUMPDEST PUSH1 0x40 MLOAD DUP1 SWAP2 SUB SWAP1 RETURN JUMPDEST PUSH2 0xFE PUSH1 0x4 DUP1 CALLDATASIZE SUB DUP2 ADD SWAP1 PUSH2 0xF9 SWAP2 SWAP1 PUSH2 0xB00 JUMP JUMPDEST PUSH2 0x40C JUMP JUMPDEST STOP JUMPDEST PUSH2 0x11A PUSH1 0x4 DUP1 CALLDATASIZE SUB DUP2 ADD SWAP1 PUSH2 0x115 SWAP2 SWAP1 PUSH2 0xB00 JUMP JUMPDEST PUSH2 0x500 JUMP JUMPDEST STOP JUMPDEST PUSH2 0x124 PUSH2 0x5F4 JUMP JUMPDEST STOP JUMPDEST PUSH2 0x12E PUSH2 0x6F7 JUMP JUMPDEST PUSH1 0x40 MLOAD PUSH2 0x13B SWAP2 SWAP1 PUSH2 0xAB4 JUMP JUMPDEST PUSH1 0x40 MLOAD DUP1 SWAP2 SUB SWAP1 RETURN JUMPDEST PUSH2 0x15E PUSH1 0x4 DUP1 CALLDATASIZE SUB DUP2 ADD SWAP1 PUSH2 0x159 SWAP2 SWAP1 PUSH2 0xB59 JUMP JUMPDEST PUSH2 0x71D JUMP JUMPDEST PUSH1 0x40 MLOAD PUSH2 0x16B SWAP2 SWAP1 PUSH2 0xAB4 JUMP JUMPDEST PUSH1 0x40 MLOAD DUP1 SWAP2 SUB SWAP1 RETURN JUMPDEST PUSH2 0x17C PUSH2 0x75C JUMP JUMPDEST PUSH1 0x40 MLOAD PUSH2 0x189 SWAP2 SWAP1 PUSH2 0xB86 JUMP JUMPDEST PUSH1 0x40 MLOAD DUP1 SWAP2 SUB SWAP1 RETURN JUMPDEST PUSH2 0x19A PUSH2 0x7EA JUMP JUMPDEST PUSH1 0x40 MLOAD PUSH2 0x1A7 SWAP2 SWAP1 PUSH2 0xBA8 JUMP JUMPDEST PUSH1 0x40 MLOAD DUP1 SWAP2 SUB SWAP1 RETURN JUMPDEST PUSH2 0x1CA PUSH1 0x4 DUP1 CALLDATASIZE SUB DUP2 ADD SWAP1 PUSH2 0x1C5 SWAP2 SWAP1 PUSH2 0xB59 JUMP JUMPDEST PUSH2 0x7F0 JUMP JUMPDEST PUSH1 0x40 MLOAD PUSH2 0x1D7 SWAP2 SWAP1 PUSH2 0xAB4 JUMP JUMPDEST PUSH1 0x40 MLOAD DUP1 SWAP2 SUB SWAP1 RETURN JUMPDEST PUSH1 0x0 DUP1 PUSH1 0x60 DUP1 PUSH1 0x60 PUSH1 0x0 DUP1 PUSH1 0x0 SWAP1 SLOAD SWAP1 PUSH2 0x100 EXP SWAP1 DIV PUSH20 0xFFFFFFFFFFFFFFFFFFFFFFFFFFFFFFFFFFFFFFFF AND PUSH1 0x1 PUSH1 0x0 SWAP1 SLOAD SWAP1 PUSH2 0x100 EXP SWAP1 DIV PUSH20 0xFFFFFFFFFFFFFFFFFFFFFFFFFFFFFFFFFFFFFFFF AND PUSH1 0x2 PUSH1 0x3 PUSH1 0x4 PUSH1 0x6 SLOAD DUP4 DUP1 SLOAD PUSH2 0x244 SWAP1 PUSH2 0xBF2 JUMP JUMPDEST DUP1 PUSH1 0x1F ADD PUSH1 0x20 DUP1 SWAP2 DIV MUL PUSH1 0x20 ADD PUSH1 0x40 MLOAD SWAP1 DUP2 ADD PUSH1 0x40 MSTORE DUP1 SWAP3 SWAP2 SWAP1 DUP2 DUP2 MSTORE PUSH1 0x20 ADD DUP3 DUP1 SLOAD PUSH2 0x270 SWAP1 PUSH2 0xBF2 JUMP JUMPDEST DUP1 ISZERO PUSH2 0x2BD JUMPI DUP1 PUSH1 0x1F LT PUSH2 0x292 JUMPI PUSH2 0x100 DUP1 DUP4 SLOAD DIV MUL DUP4 MSTORE SWAP2 PUSH1 0x20 ADD SWAP2 PUSH2 0x2BD JUMP JUMPDEST DUP3 ADD SWAP2 SWAP1 PUSH1 0x0 MSTORE PUSH1 0x20 PUSH1 0x0 KECCAK256 SWAP1 JUMPDEST DUP2 SLOAD DUP2 MSTORE SWAP1 PUSH1 0x1 ADD SWAP1 PUSH1 0x20 ADD DUP1 DUP4 GT PUSH2 0x2A0 JUMPI DUP3 SWAP1 SUB PUSH1 0x1F AND DUP3 ADD SWAP2 JUMPDEST POP POP POP POP POP SWAP4 POP DUP3 DUP1 SLOAD DUP1 PUSH1 0x20 MUL PUSH1 0x20 ADD PUSH1 0x40 MLOAD SWAP1 DUP2 ADD PUSH1 0x40 MSTORE DUP1 SWAP3 SWAP2 SWAP1 DUP2 DUP2 MSTORE PUSH1 0x20 ADD DUP3 DUP1 SLOAD DUP1 ISZERO PUSH2 0x345 JUMPI PUSH1 0x20 MUL DUP3 ADD SWAP2 SWAP1 PUSH1 0x0 MSTORE PUSH1 0x20 PUSH1 0x0 KECCAK256 SWAP1 JUMPDEST DUP2 PUSH1 0x0 SWAP1 SLOAD SWAP1 PUSH2 0x100 EXP SWAP1 DIV PUSH20 0xFFFFFFFFFFFFFFFFFFFFFFFFFFFFFFFFFFFFFFFF AND PUSH20 0xFFFFFFFFFFFFFFFFFFFFFFFFFFFFFFFFFFFFFFFF AND DUP2 MSTORE PUSH1 0x20 ADD SWAP1 PUSH1 0x1 ADD SWAP1 DUP1 DUP4 GT PUSH2 0x2FB JUMPI JUMPDEST POP POP POP POP POP SWAP3 POP DUP2 DUP1 SLOAD DUP1 PUSH1 0x20 MUL PUSH1 0x20 ADD PUSH1 0x40 MLOAD SWAP1 DUP2 ADD PUSH1 0x40 MSTORE DUP1 SWAP3 SWAP2 SWAP1 DUP2 DUP2 MSTORE PUSH1 0x20 ADD DUP3 DUP1 SLOAD DUP1 ISZERO PUSH2 0x3CD JUMPI PUSH1 0x20 MUL DUP3 ADD SWAP2 SWAP1 PUSH1 0x0 MSTORE PUSH1 0x20 PUSH1 0x0 KECCAK256 SWAP1 JUMPDEST DUP2 PUSH1 0x0 SWAP1 SLOAD SWAP1 PUSH2 0x100 EXP SWAP1 DIV PUSH20 0xFFFFFFFFFFFFFFFFFFFFFFFFFFFFFFFFFFFFFFFF AND PUSH20 0xFFFFFFFFFFFFFFFFFFFFFFFFFFFFFFFFFFFFFFFF AND DUP2 MSTORE PUSH1 0x20 ADD SWAP1 PUSH1 0x1 ADD SWAP1 DUP1 DUP4 GT PUSH2 0x383 JUMPI JUMPDEST POP POP POP POP POP SWAP2 POP SWAP6 POP SWAP6 POP SWAP6 POP SWAP6 POP SWAP6 POP SWAP6 POP SWAP1 SWAP2 SWAP3 SWAP4 SWAP5 SWAP6 JUMP JUMPDEST PUSH1 0x0 DUP1 SLOAD SWAP1 PUSH2 0x100 EXP SWAP1 DIV PUSH20 0xFFFFFFFFFFFFFFFFFFFFFFFFFFFFFFFFFFFFFFFF AND DUP2 JUMP JUMPDEST PUSH1 0x0 DUP1 SLOAD SWAP1 PUSH2 0x100 EXP SWAP1 DIV PUSH20 0xFFFFFFFFFFFFFFFFFFFFFFFFFFFFFFFFFFFFFFFF AND PUSH20 0xFFFFFFFFFFFFFFFFFFFFFFFFFFFFFFFFFFFFFFFF AND CALLER PUSH20 0xFFFFFFFFFFFFFFFFFFFFFFFFFFFFFFFFFFFFFFFF AND EQ PUSH2 0x49A JUMPI PUSH1 0x40 MLOAD PUSH32 0x8C379A000000000000000000000000000000000000000000000000000000000 DUP2 MSTORE PUSH1 0x4 ADD PUSH2 0x491 SWAP1 PUSH2 0xCBC JUMP JUMPDEST PUSH1 0x40 MLOAD DUP1 SWAP2 SUB SWAP1 REVERT JUMPDEST PUSH1 0x3 DUP2 SWAP1 DUP1 PUSH1 0x1 DUP2 SLOAD ADD DUP1 DUP3 SSTORE DUP1 SWAP2 POP POP PUSH1 0x1 SWAP1 SUB SWAP1 PUSH1 0x0 MSTORE PUSH1 0x20 PUSH1 0x0 KECCAK256 ADD PUSH1 0x0 SWAP1 SWAP2 SWAP1 SWAP2 SWAP1 SWAP2 PUSH2 0x100 EXP DUP2 SLOAD DUP2 PUSH20 0xFFFFFFFFFFFFFFFFFFFFFFFFFFFFFFFFFFFFFFFF MUL NOT AND SWAP1 DUP4 PUSH20 0xFFFFFFFFFFFFFFFFFFFFFFFFFFFFFFFFFFFFFFFF AND MUL OR SWAP1 SSTORE POP POP JUMP JUMPDEST PUSH1 0x0 DUP1 SLOAD SWAP1 PUSH2 0x100 EXP SWAP1 DIV PUSH20 0xFFFFFFFFFFFFFFFFFFFFFFFFFFFFFFFFFFFFFFFF AND PUSH20 0xFFFFFFFFFFFFFFFFFFFFFFFFFFFFFFFFFFFFFFFF AND CALLER PUSH20 0xFFFFFFFFFFFFFFFFFFFFFFFFFFFFFFFFFFFFFFFF AND EQ PUSH2 0x58E JUMPI PUSH1 0x40 MLOAD PUSH32 0x8C379A000000000000000000000000000000000000000000000000000000000 DUP2 MSTORE PUSH1 0x4 ADD PUSH2 0x585 SWAP1 PUSH2 0xCBC JUMP JUMPDEST PUSH1 0x40 MLOAD DUP1 SWAP2 SUB SWAP1 REVERT JUMPDEST PUSH1 0x4 DUP2 SWAP1 DUP1 PUSH1 0x1 DUP2 SLOAD ADD DUP1 DUP3 SSTORE DUP1 SWAP2 POP POP PUSH1 0x1 SWAP1 SUB SWAP1 PUSH1 0x0 MSTORE PUSH1 0x20 PUSH1 0x0 KECCAK256 ADD PUSH1 0x0 SWAP1 SWAP2 SWAP1 SWAP2 SWAP1 SWAP2 PUSH2 0x100 EXP DUP2 SLOAD DUP2 PUSH20 0xFFFFFFFFFFFFFFFFFFFFFFFFFFFFFFFFFFFFFFFF MUL NOT AND SWAP1 DUP4 PUSH20 0xFFFFFFFFFFFFFFFFFFFFFFFFFFFFFFFFFFFFFFFF AND MUL OR SWAP1 SSTORE POP POP JUMP JUMPDEST PUSH1 0x5 PUSH1 0x0 CALLER PUSH20 0xFFFFFFFFFFFFFFFFFFFFFFFFFFFFFFFFFFFFFFFF AND PUSH20 0xFFFFFFFFFFFFFFFFFFFFFFFFFFFFFFFFFFFFFFFF AND DUP2 MSTORE PUSH1 0x20 ADD SWAP1 DUP2 MSTORE PUSH1 0x20 ADD PUSH1 0x0 KECCAK256 PUSH1 0x0 SWAP1 SLOAD SWAP1 PUSH2 0x100 EXP SWAP1 DIV PUSH1 0xFF AND ISZERO PUSH2 0x681 JUMPI PUSH1 0x40 MLOAD PUSH32 0x8C379A000000000000000000000000000000000000000000000000000000000 DUP2 MSTORE PUSH1 0x4 ADD PUSH2 0x678 SWAP1 PUSH2 0xD28 JUMP JUMPDEST PUSH1 0x40 MLOAD DUP1 SWAP2 SUB SWAP1 REVERT JUMPDEST PUSH1 0x1 PUSH1 0x5 PUSH1 0x0 CALLER PUSH20 0xFFFFFFFFFFFFFFFFFFFFFFFFFFFFFFFFFFFFFFFF AND PUSH20 0xFFFFFFFFFFFFFFFFFFFFFFFFFFFFFFFFFFFFFFFF AND DUP2 MSTORE PUSH1 0x20 ADD SWAP1 DUP2 MSTORE PUSH1 0x20 ADD PUSH1 0x0 KECCAK256 PUSH1 0x0 PUSH2 0x100 EXP DUP2 SLOAD DUP2 PUSH1 0xFF MUL NOT AND SWAP1 DUP4 ISZERO ISZERO MUL OR SWAP1 SSTORE POP PUSH2 0x6EF PUSH1 0x1 PUSH1 0x6 SLOAD PUSH2 0x82F SWAP1 SWAP2 SWAP1 PUSH4 0xFFFFFFFF AND JUMP JUMPDEST PUSH1 0x6 DUP2 SWAP1 SSTORE POP JUMP JUMPDEST PUSH1 0x1 PUSH1 0x0 SWAP1 SLOAD SWAP1 PUSH2 0x100 EXP SWAP1 DIV PUSH20 0xFFFFFFFFFFFFFFFFFFFFFFFFFFFFFFFFFFFFFFFF AND DUP2 JUMP JUMPDEST PUSH1 0x4 DUP2 DUP2 SLOAD DUP2 LT PUSH2 0x72D JUMPI PUSH1 0x0 DUP1 REVERT JUMPDEST SWAP1 PUSH1 0x0 MSTORE PUSH1 0x20 PUSH1 0x0 KECCAK256 ADD PUSH1 0x0 SWAP2 POP SLOAD SWAP1 PUSH2 0x100 EXP SWAP1 DIV PUSH20 0xFFFFFFFFFFFFFFFFFFFFFFFFFFFFFFFFFFFFFFFF AND DUP2 JUMP JUMPDEST PUSH1 0x2 DUP1 SLOAD PUSH2 0x769 SWAP1 PUSH2 0xBF2 JUMP JUMPDEST DUP1 PUSH1 0x1F ADD PUSH1 0x20 DUP1 SWAP2 DIV MUL PUSH1 0x20 ADD PUSH1 0x40 MLOAD SWAP1 DUP2 ADD PUSH1 0x40 MSTORE DUP1 SWAP3 SWAP2 SWAP1 DUP2 DUP2 MSTORE PUSH1 0x20 ADD DUP3 DUP1 SLOAD PUSH2 0x795 SWAP1 PUSH2 0xBF2 JUMP JUMPDEST DUP1 ISZERO PUSH2 0x7E2 JUMPI DUP1 PUSH1 0x1F LT PUSH2 0x7B7 JUMPI PUSH2 0x100 DUP1 DUP4 SLOAD DIV MUL DUP4 MSTORE SWAP2 PUSH1 0x20 ADD SWAP2 PUSH2 0x7E2 JUMP JUMPDEST DUP3 ADD SWAP2 SWAP1 PUSH1 0x0 MSTORE PUSH1 0x20 PUSH1 0x0 KECCAK256 SWAP1 JUMPDEST DUP2 SLOAD DUP2 MSTORE SWAP1 PUSH1 0x1 ADD SWAP1 PUSH1 0x20 ADD DUP1 DUP4 GT PUSH2 0x7C5 JUMPI DUP3 SWAP1 SUB PUSH1 0x1F AND DUP3 ADD SWAP2 JUMPDEST POP POP POP POP POP DUP2 JUMP JUMPDEST PUSH1 0x6 SLOAD DUP2 JUMP JUMPDEST PUSH1 0x3 DUP2 DUP2 SLOAD DUP2 LT PUSH2 0x800 JUMPI PUSH1 0x0 DUP1 REVERT JUMPDEST SWAP1 PUSH1 0x0 MSTORE PUSH1 0x20 PUSH1 0x0 KECCAK256 ADD PUSH1 0x0 SWAP2 POP SLOAD SWAP1 PUSH2 0x100 EXP SWAP1 DIV PUSH20 0xFFFFFFFFFFFFFFFFFFFFFFFFFFFFFFFFFFFFFFFF AND DUP2 JUMP JUMPDEST PUSH1 0x0 DUP1 DUP3 DUP5 PUSH2 0x83E SWAP2 SWAP1 PUSH2 0xD77 JUMP JUMPDEST SWAP1 POP DUP4 DUP2 LT ISZERO PUSH2 0x883 JUMPI PUSH1 0x40 MLOAD PUSH32 0x8C379A000000000000000000000000000000000000000000000000000000000 DUP2 MSTORE PUSH1 0x4 ADD PUSH2 0x87A SWAP1 PUSH2 0xE19 JUMP JUMPDEST PUSH1 0x40 MLOAD DUP1 SWAP2 SUB SWAP1 REVERT JUMPDEST DUP1 SWAP2 POP POP SWAP3 SWAP2 POP POP JUMP JUMPDEST PUSH1 0x0 PUSH20 0xFFFFFFFFFFFFFFFFFFFFFFFFFFFFFFFFFFFFFFFF DUP3 AND SWAP1 POP SWAP2 SWAP1 POP JUMP JUMPDEST PUSH1 0x0 PUSH2 0x8B8 DUP3 PUSH2 0x88D JUMP JUMPDEST SWAP1 POP SWAP2 SWAP1 POP JUMP JUMPDEST PUSH2 0x8C8 DUP2 PUSH2 0x8AD JUMP JUMPDEST DUP3 MSTORE POP POP JUMP JUMPDEST PUSH1 0x0 DUP2 MLOAD SWAP1 POP SWAP2 SWAP1 POP JUMP JUMPDEST PUSH1 0x0 DUP3 DUP3 MSTORE PUSH1 0x20 DUP3 ADD SWAP1 POP SWAP3 SWAP2 POP POP JUMP JUMPDEST PUSH1 0x0 JUMPDEST DUP4 DUP2 LT ISZERO PUSH2 0x908 JUMPI DUP1 DUP3 ADD MLOAD DUP2 DUP5 ADD MSTORE PUSH1 0x20 DUP2 ADD SWAP1 POP PUSH2 0x8ED JUMP JUMPDEST DUP4 DUP2 GT ISZERO PUSH2 0x917 JUMPI PUSH1 0x0 DUP5 DUP5 ADD MSTORE JUMPDEST POP POP POP POP JUMP JUMPDEST PUSH1 0x0 PUSH1 0x1F NOT PUSH1 0x1F DUP4 ADD AND SWAP1 POP SWAP2 SWAP1 POP JUMP JUMPDEST PUSH1 0x0 PUSH2 0x939 DUP3 PUSH2 0x8CE JUMP JUMPDEST PUSH2 0x943 DUP2 DUP6 PUSH2 0x8D9 JUMP JUMPDEST SWAP4 POP PUSH2 0x953 DUP2 DUP6 PUSH1 0x20 DUP7 ADD PUSH2 0x8EA JUMP JUMPDEST PUSH2 0x95C DUP2 PUSH2 0x91D JUMP JUMPDEST DUP5 ADD SWAP2 POP POP SWAP3 SWAP2 POP POP JUMP JUMPDEST PUSH1 0x0 DUP2 MLOAD SWAP1 POP SWAP2 SWAP1 POP JUMP JUMPDEST PUSH1 0x0 DUP3 DUP3 MSTORE PUSH1 0x20 DUP3 ADD SWAP1 POP SWAP3 SWAP2 POP POP JUMP JUMPDEST PUSH1 0x0 DUP2 SWAP1 POP PUSH1 0x20 DUP3 ADD SWAP1 POP SWAP2 SWAP1 POP JUMP JUMPDEST PUSH2 0x99C DUP2 PUSH2 0x8AD JUMP JUMPDEST DUP3 MSTORE POP POP JUMP JUMPDEST PUSH1 0x0 PUSH2 0x9AE DUP4 DUP4 PUSH2 0x993 JUMP JUMPDEST PUSH1 0x20 DUP4 ADD SWAP1 POP SWAP3 SWAP2 POP POP JUMP JUMPDEST PUSH1 0x0 PUSH1 0x20 DUP3 ADD SWAP1 POP SWAP2 SWAP1 POP JUMP JUMPDEST PUSH1 0x0 PUSH2 0x9D2 DUP3 PUSH2 0x967 JUMP JUMPDEST PUSH2 0x9DC DUP2 DUP6 PUSH2 0x972 JUMP JUMPDEST SWAP4 POP PUSH2 0x9E7 DUP4 PUSH2 0x983 JUMP JUMPDEST DUP1 PUSH1 0x0 JUMPDEST DUP4 DUP2 LT ISZERO PUSH2 0xA18 JUMPI DUP2 MLOAD PUSH2 0x9FF DUP9 DUP3 PUSH2 0x9A2 JUMP JUMPDEST SWAP8 POP PUSH2 0xA0A DUP4 PUSH2 0x9BA JUMP JUMPDEST SWAP3 POP POP PUSH1 0x1 DUP2 ADD SWAP1 POP PUSH2 0x9EB JUMP JUMPDEST POP DUP6 SWAP4 POP POP POP POP SWAP3 SWAP2 POP POP JUMP JUMPDEST PUSH1 0x0 DUP2 SWAP1 POP SWAP2 SWAP1 POP JUMP JUMPDEST PUSH2 0xA38 DUP2 PUSH2 0xA25 JUMP JUMPDEST DUP3 MSTORE POP POP JUMP JUMPDEST PUSH1 0x0 PUSH1 0xC0 DUP3 ADD SWAP1 POP PUSH2 0xA53 PUSH1 0x0 DUP4 ADD DUP10 PUSH2 0x8BF JUMP JUMPDEST PUSH2 0xA60 PUSH1 0x20 DUP4 ADD DUP9 PUSH2 0x8BF JUMP JUMPDEST DUP2 DUP2 SUB PUSH1 0x40 DUP4 ADD MSTORE PUSH2 0xA72 DUP2 DUP8 PUSH2 0x92E JUMP JUMPDEST SWAP1 POP DUP2 DUP2 SUB PUSH1 0x60 DUP4 ADD MSTORE PUSH2 0xA86 DUP2 DUP7 PUSH2 0x9C7 JUMP JUMPDEST SWAP1 POP DUP2 DUP2 SUB PUSH1 0x80 DUP4 ADD MSTORE PUSH2 0xA9A DUP2 DUP6 PUSH2 0x9C7 JUMP JUMPDEST SWAP1 POP PUSH2 0xAA9 PUSH1 0xA0 DUP4 ADD DUP5 PUSH2 0xA2F JUMP JUMPDEST SWAP8 SWAP7 POP POP POP POP POP POP POP JUMP JUMPDEST PUSH1 0x0 PUSH1 0x20 DUP3 ADD SWAP1 POP PUSH2 0xAC9 PUSH1 0x0 DUP4 ADD DUP5 PUSH2 0x8BF JUMP JUMPDEST SWAP3 SWAP2 POP POP JUMP JUMPDEST PUSH1 0x0 DUP1 REVERT JUMPDEST PUSH2 0xADD DUP2 PUSH2 0x8AD JUMP JUMPDEST DUP2 EQ PUSH2 0xAE8 JUMPI PUSH1 0x0 DUP1 REVERT JUMPDEST POP JUMP JUMPDEST PUSH1 0x0 DUP2 CALLDATALOAD SWAP1 POP PUSH2 0xAFA DUP2 PUSH2 0xAD4 JUMP JUMPDEST SWAP3 SWAP2 POP POP JUMP JUMPDEST PUSH1 0x0 PUSH1 0x20 DUP3 DUP5 SUB SLT ISZERO PUSH2 0xB16 JUMPI PUSH2 0xB15 PUSH2 0xACF JUMP JUMPDEST JUMPDEST PUSH1 0x0 PUSH2 0xB24 DUP5 DUP3 DUP6 ADD PUSH2 0xAEB JUMP JUMPDEST SWAP2 POP POP SWAP3 SWAP2 POP POP JUMP JUMPDEST PUSH2 0xB36 DUP2 PUSH2 0xA25 JUMP JUMPDEST DUP2 EQ PUSH2 0xB41 JUMPI PUSH1 0x0 DUP1 REVERT JUMPDEST POP JUMP JUMPDEST PUSH1 0x0 DUP2 CALLDATALOAD SWAP1 POP PUSH2 0xB53 DUP2 PUSH2 0xB2D JUMP JUMPDEST SWAP3 SWAP2 POP POP JUMP JUMPDEST PUSH1 0x0 PUSH1 0x20 DUP3 DUP5 SUB SLT ISZERO PUSH2 0xB6F JUMPI PUSH2 0xB6E PUSH2 0xACF JUMP JUMPDEST JUMPDEST PUSH1 0x0 PUSH2 0xB7D DUP5 DUP3 DUP6 ADD PUSH2 0xB44 JUMP JUMPDEST SWAP2 POP POP SWAP3 SWAP2 POP POP JUMP JUMPDEST PUSH1 0x0 PUSH1 0x20 DUP3 ADD SWAP1 POP DUP2 DUP2 SUB PUSH1 0x0 DUP4 ADD MSTORE PUSH2 0xBA0 DUP2 DUP5 PUSH2 0x92E JUMP JUMPDEST SWAP1 POP SWAP3 SWAP2 POP POP JUMP JUMPDEST PUSH1 0x0 PUSH1 0x20 DUP3 ADD SWAP1 POP PUSH2 0xBBD PUSH1 0x0 DUP4 ADD DUP5 PUSH2 0xA2F JUMP JUMPDEST SWAP3 SWAP2 POP POP JUMP JUMPDEST PUSH32 0x4E487B7100000000000000000000000000000000000000000000000000000000 PUSH1 0x0 MSTORE PUSH1 0x22 PUSH1 0x4 MSTORE PUSH1 0x24 PUSH1 0x0 REVERT JUMPDEST PUSH1 0x0 PUSH1 0x2 DUP3 DIV SWAP1 POP PUSH1 0x1 DUP3 AND DUP1 PUSH2 0xC0A JUMPI PUSH1 0x7F DUP3 AND SWAP2 POP JUMPDEST PUSH1 0x20 DUP3 LT DUP2 EQ ISZERO PUSH2 0xC1E JUMPI PUSH2 0xC1D PUSH2 0xBC3 JUMP JUMPDEST JUMPDEST POP SWAP2 SWAP1 POP JUMP JUMPDEST PUSH32 0x546869732066756E6374696F6E2068617320746F2062652063616C6C65642066 PUSH1 0x0 DUP3 ADD MSTORE PUSH32 0x726F6D207468652073746F727920636F6E747261637420627920616E20616363 PUSH1 0x20 DUP3 ADD MSTORE PUSH32 0x657074656420617574686F72206F6E6C79000000000000000000000000000000 PUSH1 0x40 DUP3 ADD MSTORE POP JUMP JUMPDEST PUSH1 0x0 PUSH2 0xCA6 PUSH1 0x51 DUP4 PUSH2 0x8D9 JUMP JUMPDEST SWAP2 POP PUSH2 0xCB1 DUP3 PUSH2 0xC24 JUMP JUMPDEST PUSH1 0x60 DUP3 ADD SWAP1 POP SWAP2 SWAP1 POP JUMP JUMPDEST PUSH1 0x0 PUSH1 0x20 DUP3 ADD SWAP1 POP DUP2 DUP2 SUB PUSH1 0x0 DUP4 ADD MSTORE PUSH2 0xCD5 DUP2 PUSH2 0xC99 JUMP JUMPDEST SWAP1 POP SWAP2 SWAP1 POP JUMP JUMPDEST PUSH32 0x596F75206C696B656420746869732073746F7279206265666F72650000000000 PUSH1 0x0 DUP3 ADD MSTORE POP JUMP JUMPDEST PUSH1 0x0 PUSH2 0xD12 PUSH1 0x1B DUP4 PUSH2 0x8D9 JUMP JUMPDEST SWAP2 POP PUSH2 0xD1D DUP3 PUSH2 0xCDC JUMP JUMPDEST PUSH1 0x20 DUP3 ADD SWAP1 POP SWAP2 SWAP1 POP JUMP JUMPDEST PUSH1 0x0 PUSH1 0x20 DUP3 ADD SWAP1 POP DUP2 DUP2 SUB PUSH1 0x0 DUP4 ADD MSTORE PUSH2 0xD41 DUP2 PUSH2 0xD05 JUMP JUMPDEST SWAP1 POP SWAP2 SWAP1 POP JUMP JUMPDEST PUSH32 0x4E487B7100000000000000000000000000000000000000000000000000000000 PUSH1 0x0 MSTORE PUSH1 0x11 PUSH1 0x4 MSTORE PUSH1 0x24 PUSH1 0x0 REVERT JUMPDEST PUSH1 0x0 PUSH2 0xD82 DUP3 PUSH2 0xA25 JUMP JUMPDEST SWAP2 POP PUSH2 0xD8D DUP4 PUSH2 0xA25 JUMP JUMPDEST SWAP3 POP DUP3 PUSH32 0xFFFFFFFFFFFFFFFFFFFFFFFFFFFFFFFFFFFFFFFFFFFFFFFFFFFFFFFFFFFFFFFF SUB DUP3 GT ISZERO PUSH2 0xDC2 JUMPI PUSH2 0xDC1 PUSH2 0xD48 JUMP JUMPDEST JUMPDEST DUP3 DUP3 ADD SWAP1 POP SWAP3 SWAP2 POP POP JUMP JUMPDEST PUSH32 0x536166654D6174683A206164646974696F6E206F766572666C6F770000000000 PUSH1 0x0 DUP3 ADD MSTORE POP JUMP JUMPDEST PUSH1 0x0 PUSH2 0xE03 PUSH1 0x1B DUP4 PUSH2 0x8D9 JUMP JUMPDEST SWAP2 POP PUSH2 0xE0E DUP3 PUSH2 0xDCD JUMP JUMPDEST PUSH1 0x20 DUP3 ADD SWAP1 POP SWAP2 SWAP1 POP JUMP JUMPDEST PUSH1 0x0 PUSH1 0x20 DUP3 ADD SWAP1 POP DUP2 DUP2 SUB PUSH1 0x0 DUP4 ADD MSTORE PUSH2 0xE32 DUP2 PUSH2 0xDF6 JUMP JUMPDEST SWAP1 POP SWAP2 SWAP1 POP JUMP INVALID LOG2 PUSH5 0x6970667358 0x22 SLT KECCAK256 ADDRESS 0x28 LOG4 0xAE 0xC6 0xC7 GASLIMIT CHAINID 0xE7 0xEB 0x26 0x4D SWAP12 0xF 0xE9 0xB5 DUP3 SWAP15 0xD5 DELEGATECALL 0x4D 0xCB LT SUB 0x2D 0xCF PUSH16 0x78A276AF9664736F6C63430008090033 LOG2 PUSH5 0x6970667358 0x22 SLT KECCAK256 0xC1 SUB 0xEA 0xEF CHAINID 0xB8 SAR SWAP11 0x25 0xD2 CALL 0xB1 0xEB 0xD9 0xE0 MSTORE SSTORE 0x5E DUP3 NUMBER PUSH3 0x5A7915 PUSH9 0x80041879C8E1B66473 PUSH16 0x6C63430008090033A264697066735822 SLT KECCAK256 SIGNEXTEND 0x4D PUSH22 0x914D17E4BA7EAF7F8F58E41F473717FE27B26621922E 0xBD COINBASE 0xD4 RETURN 0xC9 0xBB 0xD6 PUSH5 0x736F6C6343 STOP ADDMOD MULMOD STOP CALLER "},"gasEstimates":{"creation":{"codeDepositCost":"4241400","executionCost":"4887","totalCost":"4246287"},"external":{"createStory(string,string,string)":"infinite","deployedStories(uint256)":"4934","getDeployedStories()":"infinite"}},"methodIdentifiers":{"createStory(string,string,string)":"f4b955f3","deployedStories(uint256)":"18351ea7","getDeployedStories()":"2ff2bdd5"}},"storageLayout":{"storage":[{"astId":51,"contract":"Story.sol:StoryFactory","label":"deployedStories","offset":0,"slot":"0","type":"t_array(t_address)dyn_storage"}],"types":{"t_address":{"encoding":"inplace","label":"address","numberOfBytes":"20"},"t_array(t_address)dyn_storage":{"base":"t_address","encoding":"dynamic_array","label":"address[]","numberOfBytes":"32"}}},"userdoc":{"kind":"user","methods":{},"version":1}}