{"abi":[{"inputs":[{"internalType":"string","name":"_mainIdea","type":"string"}],"name":"createStory","outputs":[],"stateMutability":"nonpayable","type":"function"},{"inputs":[{"internalType":"uint256","name":"","type":"uint256"}],"name":"deployedStories","outputs":[{"internalType":"address","name":"","type":"address"}],"stateMutability":"view","type":"function"},{"inputs":[],"name":"getDeployedStories","outputs":[{"internalType":"address[]","name":"","type":"address[]"}],"stateMutability":"view","type":"function"}],"devdoc":{"kind":"dev","methods":{},"version":1},"evm":{"assembly":"    /* \"Story.sol\":62:430  contract StoryFactory {... */\n  mstore(0x40, 0x80)\n  callvalue\n  dup1\n  iszero\n  tag_1\n  jumpi\n  0x00\n  dup1\n  revert\ntag_1:\n  pop\n  dataSize(sub_0)\n  dup1\n  dataOffset(sub_0)\n  0x00\n  codecopy\n  0x00\n  return\nstop\n\nsub_0: assembly {\n        /* \"Story.sol\":62:430  contract StoryFactory {... */\n      mstore(0x40, 0x80)\n      callvalue\n      dup1\n      iszero\n      tag_1\n      jumpi\n      0x00\n      dup1\n      revert\n    tag_1:\n      pop\n      jumpi(tag_2, lt(calldatasize, 0x04))\n      shr(0xe0, calldataload(0x00))\n      dup1\n      0x18351ea7\n      eq\n      tag_3\n      jumpi\n      dup1\n      0x2ff2bdd5\n      eq\n      tag_4\n      jumpi\n      dup1\n      0x9d9f92d8\n      eq\n      tag_5\n      jumpi\n    tag_2:\n      0x00\n      dup1\n      revert\n        /* \"Story.sol\":91:123  address[] public deployedStories */\n    tag_3:\n      tag_6\n      0x04\n      dup1\n      calldatasize\n      sub\n      dup2\n      add\n      swap1\n      tag_7\n      swap2\n      swap1\n      tag_8\n      jump\t// in\n    tag_7:\n      tag_9\n      jump\t// in\n    tag_6:\n      mload(0x40)\n      tag_10\n      swap2\n      swap1\n      tag_11\n      jump\t// in\n    tag_10:\n      mload(0x40)\n      dup1\n      swap2\n      sub\n      swap1\n      return\n        /* \"Story.sol\":317:427  function getDeployedStories() public view returns (address[] memory) {... */\n    tag_4:\n      tag_12\n      tag_13\n      jump\t// in\n    tag_12:\n      mload(0x40)\n      tag_14\n      swap2\n      swap1\n      tag_15\n      jump\t// in\n    tag_14:\n      mload(0x40)\n      dup1\n      swap2\n      sub\n      swap1\n      return\n        /* \"Story.sol\":136:307  function createStory(string memory _mainIdea) public {... */\n    tag_5:\n      tag_16\n      0x04\n      dup1\n      calldatasize\n      sub\n      dup2\n      add\n      swap1\n      tag_17\n      swap2\n      swap1\n      tag_18\n      jump\t// in\n    tag_17:\n      tag_19\n      jump\t// in\n    tag_16:\n      stop\n        /* \"Story.sol\":91:123  address[] public deployedStories */\n    tag_9:\n      0x00\n      dup2\n      dup2\n      sload\n      dup2\n      lt\n      tag_20\n      jumpi\n      0x00\n      dup1\n      revert\n    tag_20:\n      swap1\n      0x00\n      mstore\n      keccak256(0x00, 0x20)\n      add\n      0x00\n      swap2\n      pop\n      sload\n      swap1\n      0x0100\n      exp\n      swap1\n      div\n      0xffffffffffffffffffffffffffffffffffffffff\n      and\n      dup2\n      jump\t// out\n        /* \"Story.sol\":317:427  function getDeployedStories() public view returns (address[] memory) {... */\n    tag_13:\n        /* \"Story.sol\":368:384  address[] memory */\n      0x60\n        /* \"Story.sol\":404:419  deployedStories */\n      0x00\n        /* \"Story.sol\":397:419  return deployedStories */\n      dup1\n      sload\n      dup1\n      0x20\n      mul\n      0x20\n      add\n      mload(0x40)\n      swap1\n      dup2\n      add\n      0x40\n      mstore\n      dup1\n      swap3\n      swap2\n      swap1\n      dup2\n      dup2\n      mstore\n      0x20\n      add\n      dup3\n      dup1\n      sload\n      dup1\n      iszero\n      tag_23\n      jumpi\n      0x20\n      mul\n      dup3\n      add\n      swap2\n      swap1\n      0x00\n      mstore\n      keccak256(0x00, 0x20)\n      swap1\n    tag_24:\n      dup2\n      0x00\n      swap1\n      sload\n      swap1\n      0x0100\n      exp\n      swap1\n      div\n      0xffffffffffffffffffffffffffffffffffffffff\n      and\n      0xffffffffffffffffffffffffffffffffffffffff\n      and\n      dup2\n      mstore\n      0x20\n      add\n      swap1\n      0x01\n      add\n      swap1\n      dup1\n      dup4\n      gt\n      tag_24\n      jumpi\n    tag_23:\n      pop\n      pop\n      pop\n      pop\n      pop\n      swap1\n      pop\n        /* \"Story.sol\":317:427  function getDeployedStories() public view returns (address[] memory) {... */\n      swap1\n      jump\t// out\n        /* \"Story.sol\":136:307  function createStory(string memory _mainIdea) public {... */\n    tag_19:\n        /* \"Story.sol\":200:214  Story newStory */\n      0x00\n        /* \"Story.sol\":227:236  _mainIdea */\n      dup2\n        /* \"Story.sol\":238:248  msg.sender */\n      caller\n        /* \"Story.sol\":217:249  new Story(_mainIdea, msg.sender) */\n      mload(0x40)\n      tag_26\n      swap1\n      tag_27\n      jump\t// in\n    tag_26:\n      tag_28\n      swap3\n      swap2\n      swap1\n      tag_29\n      jump\t// in\n    tag_28:\n      mload(0x40)\n      dup1\n      swap2\n      sub\n      swap1\n      0x00\n      create\n      dup1\n      iszero\n      dup1\n      iszero\n      tag_30\n      jumpi\n      returndatasize\n      0x00\n      dup1\n      returndatacopy\n      revert(0x00, returndatasize)\n    tag_30:\n      pop\n        /* \"Story.sol\":200:249  Story newStory = new Story(_mainIdea, msg.sender) */\n      swap1\n      pop\n        /* \"Story.sol\":260:275  deployedStories */\n      0x00\n        /* \"Story.sol\":289:297  newStory */\n      dup2\n        /* \"Story.sol\":260:299  deployedStories.push(address(newStory)) */\n      swap1\n      dup1\n      0x01\n      dup2\n      sload\n      add\n      dup1\n      dup3\n      sstore\n      dup1\n      swap2\n      pop\n      pop\n      0x01\n      swap1\n      sub\n      swap1\n      0x00\n      mstore\n      keccak256(0x00, 0x20)\n      add\n      0x00\n      swap1\n      swap2\n      swap1\n      swap2\n      swap1\n      swap2\n      0x0100\n      exp\n      dup2\n      sload\n      dup2\n      0xffffffffffffffffffffffffffffffffffffffff\n      mul\n      not\n      and\n      swap1\n      dup4\n      0xffffffffffffffffffffffffffffffffffffffff\n      and\n      mul\n      or\n      swap1\n      sstore\n      pop\n        /* \"Story.sol\":189:307  {... */\n      pop\n        /* \"Story.sol\":136:307  function createStory(string memory _mainIdea) public {... */\n      pop\n      jump\t// out\n    tag_27:\n      dataSize(sub_0)\n      dup1\n      dataOffset(sub_0)\n      dup4\n      codecopy\n      add\n      swap1\n      jump\t// out\n        /* \"#utility.yul\":7:82   */\n    tag_32:\n        /* \"#utility.yul\":40:46   */\n      0x00\n        /* \"#utility.yul\":73:75   */\n      0x40\n        /* \"#utility.yul\":67:76   */\n      mload\n        /* \"#utility.yul\":57:76   */\n      swap1\n      pop\n        /* \"#utility.yul\":7:82   */\n      swap1\n      jump\t// out\n        /* \"#utility.yul\":88:205   */\n    tag_33:\n        /* \"#utility.yul\":197:198   */\n      0x00\n        /* \"#utility.yul\":194:195   */\n      dup1\n        /* \"#utility.yul\":187:199   */\n      revert\n        /* \"#utility.yul\":211:328   */\n    tag_34:\n        /* \"#utility.yul\":320:321   */\n      0x00\n        /* \"#utility.yul\":317:318   */\n      dup1\n        /* \"#utility.yul\":310:322   */\n      revert\n        /* \"#utility.yul\":334:411   */\n    tag_35:\n        /* \"#utility.yul\":371:378   */\n      0x00\n        /* \"#utility.yul\":400:405   */\n      dup2\n        /* \"#utility.yul\":389:405   */\n      swap1\n      pop\n        /* \"#utility.yul\":334:411   */\n      swap2\n      swap1\n      pop\n      jump\t// out\n        /* \"#utility.yul\":417:539   */\n    tag_36:\n        /* \"#utility.yul\":490:514   */\n      tag_68\n        /* \"#utility.yul\":508:513   */\n      dup2\n        /* \"#utility.yul\":490:514   */\n      tag_35\n      jump\t// in\n    tag_68:\n        /* \"#utility.yul\":483:488   */\n      dup2\n        /* \"#utility.yul\":480:515   */\n      eq\n        /* \"#utility.yul\":470:533   */\n      tag_69\n      jumpi\n        /* \"#utility.yul\":529:530   */\n      0x00\n        /* \"#utility.yul\":526:527   */\n      dup1\n        /* \"#utility.yul\":519:531   */\n      revert\n        /* \"#utility.yul\":470:533   */\n    tag_69:\n        /* \"#utility.yul\":417:539   */\n      pop\n      jump\t// out\n        /* \"#utility.yul\":545:684   */\n    tag_37:\n        /* \"#utility.yul\":591:596   */\n      0x00\n        /* \"#utility.yul\":629:635   */\n      dup2\n        /* \"#utility.yul\":616:636   */\n      calldataload\n        /* \"#utility.yul\":607:636   */\n      swap1\n      pop\n        /* \"#utility.yul\":645:678   */\n      tag_71\n        /* \"#utility.yul\":672:677   */\n      dup2\n        /* \"#utility.yul\":645:678   */\n      tag_36\n      jump\t// in\n    tag_71:\n        /* \"#utility.yul\":545:684   */\n      swap3\n      swap2\n      pop\n      pop\n      jump\t// out\n        /* \"#utility.yul\":690:1019   */\n    tag_8:\n        /* \"#utility.yul\":749:755   */\n      0x00\n        /* \"#utility.yul\":798:800   */\n      0x20\n        /* \"#utility.yul\":786:795   */\n      dup3\n        /* \"#utility.yul\":777:784   */\n      dup5\n        /* \"#utility.yul\":773:796   */\n      sub\n        /* \"#utility.yul\":769:801   */\n      slt\n        /* \"#utility.yul\":766:885   */\n      iszero\n      tag_73\n      jumpi\n        /* \"#utility.yul\":804:883   */\n      tag_74\n      tag_33\n      jump\t// in\n    tag_74:\n        /* \"#utility.yul\":766:885   */\n    tag_73:\n        /* \"#utility.yul\":924:925   */\n      0x00\n        /* \"#utility.yul\":949:1002   */\n      tag_75\n        /* \"#utility.yul\":994:1001   */\n      dup5\n        /* \"#utility.yul\":985:991   */\n      dup3\n        /* \"#utility.yul\":974:983   */\n      dup6\n        /* \"#utility.yul\":970:992   */\n      add\n        /* \"#utility.yul\":949:1002   */\n      tag_37\n      jump\t// in\n    tag_75:\n        /* \"#utility.yul\":939:1002   */\n      swap2\n      pop\n        /* \"#utility.yul\":895:1012   */\n      pop\n        /* \"#utility.yul\":690:1019   */\n      swap3\n      swap2\n      pop\n      pop\n      jump\t// out\n        /* \"#utility.yul\":1025:1151   */\n    tag_38:\n        /* \"#utility.yul\":1062:1069   */\n      0x00\n        /* \"#utility.yul\":1102:1144   */\n      0xffffffffffffffffffffffffffffffffffffffff\n        /* \"#utility.yul\":1095:1100   */\n      dup3\n        /* \"#utility.yul\":1091:1145   */\n      and\n        /* \"#utility.yul\":1080:1145   */\n      swap1\n      pop\n        /* \"#utility.yul\":1025:1151   */\n      swap2\n      swap1\n      pop\n      jump\t// out\n        /* \"#utility.yul\":1157:1253   */\n    tag_39:\n        /* \"#utility.yul\":1194:1201   */\n      0x00\n        /* \"#utility.yul\":1223:1247   */\n      tag_78\n        /* \"#utility.yul\":1241:1246   */\n      dup3\n        /* \"#utility.yul\":1223:1247   */\n      tag_38\n      jump\t// in\n    tag_78:\n        /* \"#utility.yul\":1212:1247   */\n      swap1\n      pop\n        /* \"#utility.yul\":1157:1253   */\n      swap2\n      swap1\n      pop\n      jump\t// out\n        /* \"#utility.yul\":1259:1377   */\n    tag_40:\n        /* \"#utility.yul\":1346:1370   */\n      tag_80\n        /* \"#utility.yul\":1364:1369   */\n      dup2\n        /* \"#utility.yul\":1346:1370   */\n      tag_39\n      jump\t// in\n    tag_80:\n        /* \"#utility.yul\":1341:1344   */\n      dup3\n        /* \"#utility.yul\":1334:1371   */\n      mstore\n        /* \"#utility.yul\":1259:1377   */\n      pop\n      pop\n      jump\t// out\n        /* \"#utility.yul\":1383:1605   */\n    tag_11:\n        /* \"#utility.yul\":1476:1480   */\n      0x00\n        /* \"#utility.yul\":1514:1516   */\n      0x20\n        /* \"#utility.yul\":1503:1512   */\n      dup3\n        /* \"#utility.yul\":1499:1517   */\n      add\n        /* \"#utility.yul\":1491:1517   */\n      swap1\n      pop\n        /* \"#utility.yul\":1527:1598   */\n      tag_82\n        /* \"#utility.yul\":1595:1596   */\n      0x00\n        /* \"#utility.yul\":1584:1593   */\n      dup4\n        /* \"#utility.yul\":1580:1597   */\n      add\n        /* \"#utility.yul\":1571:1577   */\n      dup5\n        /* \"#utility.yul\":1527:1598   */\n      tag_40\n      jump\t// in\n    tag_82:\n        /* \"#utility.yul\":1383:1605   */\n      swap3\n      swap2\n      pop\n      pop\n      jump\t// out\n        /* \"#utility.yul\":1611:1725   */\n    tag_41:\n        /* \"#utility.yul\":1678:1684   */\n      0x00\n        /* \"#utility.yul\":1712:1717   */\n      dup2\n        /* \"#utility.yul\":1706:1718   */\n      mload\n        /* \"#utility.yul\":1696:1718   */\n      swap1\n      pop\n        /* \"#utility.yul\":1611:1725   */\n      swap2\n      swap1\n      pop\n      jump\t// out\n        /* \"#utility.yul\":1731:1915   */\n    tag_42:\n        /* \"#utility.yul\":1830:1841   */\n      0x00\n        /* \"#utility.yul\":1864:1870   */\n      dup3\n        /* \"#utility.yul\":1859:1862   */\n      dup3\n        /* \"#utility.yul\":1852:1871   */\n      mstore\n        /* \"#utility.yul\":1904:1908   */\n      0x20\n        /* \"#utility.yul\":1899:1902   */\n      dup3\n        /* \"#utility.yul\":1895:1909   */\n      add\n        /* \"#utility.yul\":1880:1909   */\n      swap1\n      pop\n        /* \"#utility.yul\":1731:1915   */\n      swap3\n      swap2\n      pop\n      pop\n      jump\t// out\n        /* \"#utility.yul\":1921:2053   */\n    tag_43:\n        /* \"#utility.yul\":1988:1992   */\n      0x00\n        /* \"#utility.yul\":2011:2014   */\n      dup2\n        /* \"#utility.yul\":2003:2014   */\n      swap1\n      pop\n        /* \"#utility.yul\":2041:2045   */\n      0x20\n        /* \"#utility.yul\":2036:2039   */\n      dup3\n        /* \"#utility.yul\":2032:2046   */\n      add\n        /* \"#utility.yul\":2024:2046   */\n      swap1\n      pop\n        /* \"#utility.yul\":1921:2053   */\n      swap2\n      swap1\n      pop\n      jump\t// out\n        /* \"#utility.yul\":2059:2167   */\n    tag_44:\n        /* \"#utility.yul\":2136:2160   */\n      tag_87\n        /* \"#utility.yul\":2154:2159   */\n      dup2\n        /* \"#utility.yul\":2136:2160   */\n      tag_39\n      jump\t// in\n    tag_87:\n        /* \"#utility.yul\":2131:2134   */\n      dup3\n        /* \"#utility.yul\":2124:2161   */\n      mstore\n        /* \"#utility.yul\":2059:2167   */\n      pop\n      pop\n      jump\t// out\n        /* \"#utility.yul\":2173:2352   */\n    tag_45:\n        /* \"#utility.yul\":2242:2252   */\n      0x00\n        /* \"#utility.yul\":2263:2309   */\n      tag_89\n        /* \"#utility.yul\":2305:2308   */\n      dup4\n        /* \"#utility.yul\":2297:2303   */\n      dup4\n        /* \"#utility.yul\":2263:2309   */\n      tag_44\n      jump\t// in\n    tag_89:\n        /* \"#utility.yul\":2341:2345   */\n      0x20\n        /* \"#utility.yul\":2336:2339   */\n      dup4\n        /* \"#utility.yul\":2332:2346   */\n      add\n        /* \"#utility.yul\":2318:2346   */\n      swap1\n      pop\n        /* \"#utility.yul\":2173:2352   */\n      swap3\n      swap2\n      pop\n      pop\n      jump\t// out\n        /* \"#utility.yul\":2358:2471   */\n    tag_46:\n        /* \"#utility.yul\":2428:2432   */\n      0x00\n        /* \"#utility.yul\":2460:2464   */\n      0x20\n        /* \"#utility.yul\":2455:2458   */\n      dup3\n        /* \"#utility.yul\":2451:2465   */\n      add\n        /* \"#utility.yul\":2443:2465   */\n      swap1\n      pop\n        /* \"#utility.yul\":2358:2471   */\n      swap2\n      swap1\n      pop\n      jump\t// out\n        /* \"#utility.yul\":2507:3239   */\n    tag_47:\n        /* \"#utility.yul\":2626:2629   */\n      0x00\n        /* \"#utility.yul\":2655:2709   */\n      tag_92\n        /* \"#utility.yul\":2703:2708   */\n      dup3\n        /* \"#utility.yul\":2655:2709   */\n      tag_41\n      jump\t// in\n    tag_92:\n        /* \"#utility.yul\":2725:2811   */\n      tag_93\n        /* \"#utility.yul\":2804:2810   */\n      dup2\n        /* \"#utility.yul\":2799:2802   */\n      dup6\n        /* \"#utility.yul\":2725:2811   */\n      tag_42\n      jump\t// in\n    tag_93:\n        /* \"#utility.yul\":2718:2811   */\n      swap4\n      pop\n        /* \"#utility.yul\":2835:2891   */\n      tag_94\n        /* \"#utility.yul\":2885:2890   */\n      dup4\n        /* \"#utility.yul\":2835:2891   */\n      tag_43\n      jump\t// in\n    tag_94:\n        /* \"#utility.yul\":2914:2921   */\n      dup1\n        /* \"#utility.yul\":2945:2946   */\n      0x00\n        /* \"#utility.yul\":2930:3214   */\n    tag_95:\n        /* \"#utility.yul\":2955:2961   */\n      dup4\n        /* \"#utility.yul\":2952:2953   */\n      dup2\n        /* \"#utility.yul\":2949:2962   */\n      lt\n        /* \"#utility.yul\":2930:3214   */\n      iszero\n      tag_97\n      jumpi\n        /* \"#utility.yul\":3031:3037   */\n      dup2\n        /* \"#utility.yul\":3025:3038   */\n      mload\n        /* \"#utility.yul\":3058:3121   */\n      tag_98\n        /* \"#utility.yul\":3117:3120   */\n      dup9\n        /* \"#utility.yul\":3102:3115   */\n      dup3\n        /* \"#utility.yul\":3058:3121   */\n      tag_45\n      jump\t// in\n    tag_98:\n        /* \"#utility.yul\":3051:3121   */\n      swap8\n      pop\n        /* \"#utility.yul\":3144:3204   */\n      tag_99\n        /* \"#utility.yul\":3197:3203   */\n      dup4\n        /* \"#utility.yul\":3144:3204   */\n      tag_46\n      jump\t// in\n    tag_99:\n        /* \"#utility.yul\":3134:3204   */\n      swap3\n      pop\n        /* \"#utility.yul\":2990:3214   */\n      pop\n        /* \"#utility.yul\":2977:2978   */\n      0x01\n        /* \"#utility.yul\":2974:2975   */\n      dup2\n        /* \"#utility.yul\":2970:2979   */\n      add\n        /* \"#utility.yul\":2965:2979   */\n      swap1\n      pop\n        /* \"#utility.yul\":2930:3214   */\n      jump(tag_95)\n    tag_97:\n        /* \"#utility.yul\":2934:2948   */\n      pop\n        /* \"#utility.yul\":3230:3233   */\n      dup6\n        /* \"#utility.yul\":3223:3233   */\n      swap4\n      pop\n        /* \"#utility.yul\":2631:3239   */\n      pop\n      pop\n      pop\n        /* \"#utility.yul\":2507:3239   */\n      swap3\n      swap2\n      pop\n      pop\n      jump\t// out\n        /* \"#utility.yul\":3245:3618   */\n    tag_15:\n        /* \"#utility.yul\":3388:3392   */\n      0x00\n        /* \"#utility.yul\":3426:3428   */\n      0x20\n        /* \"#utility.yul\":3415:3424   */\n      dup3\n        /* \"#utility.yul\":3411:3429   */\n      add\n        /* \"#utility.yul\":3403:3429   */\n      swap1\n      pop\n        /* \"#utility.yul\":3475:3484   */\n      dup2\n        /* \"#utility.yul\":3469:3473   */\n      dup2\n        /* \"#utility.yul\":3465:3485   */\n      sub\n        /* \"#utility.yul\":3461:3462   */\n      0x00\n        /* \"#utility.yul\":3450:3459   */\n      dup4\n        /* \"#utility.yul\":3446:3463   */\n      add\n        /* \"#utility.yul\":3439:3486   */\n      mstore\n        /* \"#utility.yul\":3503:3611   */\n      tag_101\n        /* \"#utility.yul\":3606:3610   */\n      dup2\n        /* \"#utility.yul\":3597:3603   */\n      dup5\n        /* \"#utility.yul\":3503:3611   */\n      tag_47\n      jump\t// in\n    tag_101:\n        /* \"#utility.yul\":3495:3611   */\n      swap1\n      pop\n        /* \"#utility.yul\":3245:3618   */\n      swap3\n      swap2\n      pop\n      pop\n      jump\t// out\n        /* \"#utility.yul\":3624:3741   */\n    tag_48:\n        /* \"#utility.yul\":3733:3734   */\n      0x00\n        /* \"#utility.yul\":3730:3731   */\n      dup1\n        /* \"#utility.yul\":3723:3735   */\n      revert\n        /* \"#utility.yul\":3747:3864   */\n    tag_49:\n        /* \"#utility.yul\":3856:3857   */\n      0x00\n        /* \"#utility.yul\":3853:3854   */\n      dup1\n        /* \"#utility.yul\":3846:3858   */\n      revert\n        /* \"#utility.yul\":3870:3972   */\n    tag_50:\n        /* \"#utility.yul\":3911:3917   */\n      0x00\n        /* \"#utility.yul\":3962:3964   */\n      0x1f\n        /* \"#utility.yul\":3958:3965   */\n      not\n        /* \"#utility.yul\":3953:3955   */\n      0x1f\n        /* \"#utility.yul\":3946:3951   */\n      dup4\n        /* \"#utility.yul\":3942:3956   */\n      add\n        /* \"#utility.yul\":3938:3966   */\n      and\n        /* \"#utility.yul\":3928:3966   */\n      swap1\n      pop\n        /* \"#utility.yul\":3870:3972   */\n      swap2\n      swap1\n      pop\n      jump\t// out\n        /* \"#utility.yul\":3978:4158   */\n    tag_51:\n        /* \"#utility.yul\":4026:4103   */\n      0x4e487b7100000000000000000000000000000000000000000000000000000000\n        /* \"#utility.yul\":4023:4024   */\n      0x00\n        /* \"#utility.yul\":4016:4104   */\n      mstore\n        /* \"#utility.yul\":4123:4127   */\n      0x41\n        /* \"#utility.yul\":4120:4121   */\n      0x04\n        /* \"#utility.yul\":4113:4128   */\n      mstore\n        /* \"#utility.yul\":4147:4151   */\n      0x24\n        /* \"#utility.yul\":4144:4145   */\n      0x00\n        /* \"#utility.yul\":4137:4152   */\n      revert\n        /* \"#utility.yul\":4164:4445   */\n    tag_52:\n        /* \"#utility.yul\":4247:4274   */\n      tag_107\n        /* \"#utility.yul\":4269:4273   */\n      dup3\n        /* \"#utility.yul\":4247:4274   */\n      tag_50\n      jump\t// in\n    tag_107:\n        /* \"#utility.yul\":4239:4245   */\n      dup2\n        /* \"#utility.yul\":4235:4275   */\n      add\n        /* \"#utility.yul\":4377:4383   */\n      dup2\n        /* \"#utility.yul\":4365:4375   */\n      dup2\n        /* \"#utility.yul\":4362:4384   */\n      lt\n        /* \"#utility.yul\":4341:4359   */\n      0xffffffffffffffff\n        /* \"#utility.yul\":4329:4339   */\n      dup3\n        /* \"#utility.yul\":4326:4360   */\n      gt\n        /* \"#utility.yul\":4323:4385   */\n      or\n        /* \"#utility.yul\":4320:4408   */\n      iszero\n      tag_108\n      jumpi\n        /* \"#utility.yul\":4388:4406   */\n      tag_109\n      tag_51\n      jump\t// in\n    tag_109:\n        /* \"#utility.yul\":4320:4408   */\n    tag_108:\n        /* \"#utility.yul\":4428:4438   */\n      dup1\n        /* \"#utility.yul\":4424:4426   */\n      0x40\n        /* \"#utility.yul\":4417:4439   */\n      mstore\n        /* \"#utility.yul\":4207:4445   */\n      pop\n        /* \"#utility.yul\":4164:4445   */\n      pop\n      pop\n      jump\t// out\n        /* \"#utility.yul\":4451:4580   */\n    tag_53:\n        /* \"#utility.yul\":4485:4491   */\n      0x00\n        /* \"#utility.yul\":4512:4532   */\n      tag_111\n      tag_32\n      jump\t// in\n    tag_111:\n        /* \"#utility.yul\":4502:4532   */\n      swap1\n      pop\n        /* \"#utility.yul\":4541:4574   */\n      tag_112\n        /* \"#utility.yul\":4569:4573   */\n      dup3\n        /* \"#utility.yul\":4561:4567   */\n      dup3\n        /* \"#utility.yul\":4541:4574   */\n      tag_52\n      jump\t// in\n    tag_112:\n        /* \"#utility.yul\":4451:4580   */\n      swap2\n      swap1\n      pop\n      jump\t// out\n        /* \"#utility.yul\":4586:4894   */\n    tag_54:\n        /* \"#utility.yul\":4648:4652   */\n      0x00\n        /* \"#utility.yul\":4738:4756   */\n      0xffffffffffffffff\n        /* \"#utility.yul\":4730:4736   */\n      dup3\n        /* \"#utility.yul\":4727:4757   */\n      gt\n        /* \"#utility.yul\":4724:4780   */\n      iszero\n      tag_114\n      jumpi\n        /* \"#utility.yul\":4760:4778   */\n      tag_115\n      tag_51\n      jump\t// in\n    tag_115:\n        /* \"#utility.yul\":4724:4780   */\n    tag_114:\n        /* \"#utility.yul\":4798:4827   */\n      tag_116\n        /* \"#utility.yul\":4820:4826   */\n      dup3\n        /* \"#utility.yul\":4798:4827   */\n      tag_50\n      jump\t// in\n    tag_116:\n        /* \"#utility.yul\":4790:4827   */\n      swap1\n      pop\n        /* \"#utility.yul\":4882:4886   */\n      0x20\n        /* \"#utility.yul\":4876:4880   */\n      dup2\n        /* \"#utility.yul\":4872:4887   */\n      add\n        /* \"#utility.yul\":4864:4887   */\n      swap1\n      pop\n        /* \"#utility.yul\":4586:4894   */\n      swap2\n      swap1\n      pop\n      jump\t// out\n        /* \"#utility.yul\":4900:5054   */\n    tag_55:\n        /* \"#utility.yul\":4984:4990   */\n      dup3\n        /* \"#utility.yul\":4979:4982   */\n      dup2\n        /* \"#utility.yul\":4974:4977   */\n      dup4\n        /* \"#utility.yul\":4961:4991   */\n      calldatacopy\n        /* \"#utility.yul\":5046:5047   */\n      0x00\n        /* \"#utility.yul\":5037:5043   */\n      dup4\n        /* \"#utility.yul\":5032:5035   */\n      dup4\n        /* \"#utility.yul\":5028:5044   */\n      add\n        /* \"#utility.yul\":5021:5048   */\n      mstore\n        /* \"#utility.yul\":4900:5054   */\n      pop\n      pop\n      pop\n      jump\t// out\n        /* \"#utility.yul\":5060:5472   */\n    tag_56:\n        /* \"#utility.yul\":5138:5143   */\n      0x00\n        /* \"#utility.yul\":5163:5229   */\n      tag_119\n        /* \"#utility.yul\":5179:5228   */\n      tag_120\n        /* \"#utility.yul\":5221:5227   */\n      dup5\n        /* \"#utility.yul\":5179:5228   */\n      tag_54\n      jump\t// in\n    tag_120:\n        /* \"#utility.yul\":5163:5229   */\n      tag_53\n      jump\t// in\n    tag_119:\n        /* \"#utility.yul\":5154:5229   */\n      swap1\n      pop\n        /* \"#utility.yul\":5252:5258   */\n      dup3\n        /* \"#utility.yul\":5245:5250   */\n      dup2\n        /* \"#utility.yul\":5238:5259   */\n      mstore\n        /* \"#utility.yul\":5290:5294   */\n      0x20\n        /* \"#utility.yul\":5283:5288   */\n      dup2\n        /* \"#utility.yul\":5279:5295   */\n      add\n        /* \"#utility.yul\":5328:5331   */\n      dup5\n        /* \"#utility.yul\":5319:5325   */\n      dup5\n        /* \"#utility.yul\":5314:5317   */\n      dup5\n        /* \"#utility.yul\":5310:5326   */\n      add\n        /* \"#utility.yul\":5307:5332   */\n      gt\n        /* \"#utility.yul\":5304:5416   */\n      iszero\n      tag_121\n      jumpi\n        /* \"#utility.yul\":5335:5414   */\n      tag_122\n      tag_49\n      jump\t// in\n    tag_122:\n        /* \"#utility.yul\":5304:5416   */\n    tag_121:\n        /* \"#utility.yul\":5425:5466   */\n      tag_123\n        /* \"#utility.yul\":5459:5465   */\n      dup5\n        /* \"#utility.yul\":5454:5457   */\n      dup3\n        /* \"#utility.yul\":5449:5452   */\n      dup6\n        /* \"#utility.yul\":5425:5466   */\n      tag_55\n      jump\t// in\n    tag_123:\n        /* \"#utility.yul\":5144:5472   */\n      pop\n        /* \"#utility.yul\":5060:5472   */\n      swap4\n      swap3\n      pop\n      pop\n      pop\n      jump\t// out\n        /* \"#utility.yul\":5492:5832   */\n    tag_57:\n        /* \"#utility.yul\":5548:5553   */\n      0x00\n        /* \"#utility.yul\":5597:5600   */\n      dup3\n        /* \"#utility.yul\":5590:5594   */\n      0x1f\n        /* \"#utility.yul\":5582:5588   */\n      dup4\n        /* \"#utility.yul\":5578:5595   */\n      add\n        /* \"#utility.yul\":5574:5601   */\n      slt\n        /* \"#utility.yul\":5564:5686   */\n      tag_125\n      jumpi\n        /* \"#utility.yul\":5605:5684   */\n      tag_126\n      tag_48\n      jump\t// in\n    tag_126:\n        /* \"#utility.yul\":5564:5686   */\n    tag_125:\n        /* \"#utility.yul\":5722:5728   */\n      dup2\n        /* \"#utility.yul\":5709:5729   */\n      calldataload\n        /* \"#utility.yul\":5747:5826   */\n      tag_127\n        /* \"#utility.yul\":5822:5825   */\n      dup5\n        /* \"#utility.yul\":5814:5820   */\n      dup3\n        /* \"#utility.yul\":5807:5811   */\n      0x20\n        /* \"#utility.yul\":5799:5805   */\n      dup7\n        /* \"#utility.yul\":5795:5812   */\n      add\n        /* \"#utility.yul\":5747:5826   */\n      tag_56\n      jump\t// in\n    tag_127:\n        /* \"#utility.yul\":5738:5826   */\n      swap2\n      pop\n        /* \"#utility.yul\":5554:5832   */\n      pop\n        /* \"#utility.yul\":5492:5832   */\n      swap3\n      swap2\n      pop\n      pop\n      jump\t// out\n        /* \"#utility.yul\":5838:6347   */\n    tag_18:\n        /* \"#utility.yul\":5907:5913   */\n      0x00\n        /* \"#utility.yul\":5956:5958   */\n      0x20\n        /* \"#utility.yul\":5944:5953   */\n      dup3\n        /* \"#utility.yul\":5935:5942   */\n      dup5\n        /* \"#utility.yul\":5931:5954   */\n      sub\n        /* \"#utility.yul\":5927:5959   */\n      slt\n        /* \"#utility.yul\":5924:6043   */\n      iszero\n      tag_129\n      jumpi\n        /* \"#utility.yul\":5962:6041   */\n      tag_130\n      tag_33\n      jump\t// in\n    tag_130:\n        /* \"#utility.yul\":5924:6043   */\n    tag_129:\n        /* \"#utility.yul\":6110:6111   */\n      0x00\n        /* \"#utility.yul\":6099:6108   */\n      dup3\n        /* \"#utility.yul\":6095:6112   */\n      add\n        /* \"#utility.yul\":6082:6113   */\n      calldataload\n        /* \"#utility.yul\":6140:6158   */\n      0xffffffffffffffff\n        /* \"#utility.yul\":6132:6138   */\n      dup2\n        /* \"#utility.yul\":6129:6159   */\n      gt\n        /* \"#utility.yul\":6126:6243   */\n      iszero\n      tag_131\n      jumpi\n        /* \"#utility.yul\":6162:6241   */\n      tag_132\n      tag_34\n      jump\t// in\n    tag_132:\n        /* \"#utility.yul\":6126:6243   */\n    tag_131:\n        /* \"#utility.yul\":6267:6330   */\n      tag_133\n        /* \"#utility.yul\":6322:6329   */\n      dup5\n        /* \"#utility.yul\":6313:6319   */\n      dup3\n        /* \"#utility.yul\":6302:6311   */\n      dup6\n        /* \"#utility.yul\":6298:6320   */\n      add\n        /* \"#utility.yul\":6267:6330   */\n      tag_57\n      jump\t// in\n    tag_133:\n        /* \"#utility.yul\":6257:6330   */\n      swap2\n      pop\n        /* \"#utility.yul\":6053:6340   */\n      pop\n        /* \"#utility.yul\":5838:6347   */\n      swap3\n      swap2\n      pop\n      pop\n      jump\t// out\n        /* \"#utility.yul\":6353:6452   */\n    tag_58:\n        /* \"#utility.yul\":6405:6411   */\n      0x00\n        /* \"#utility.yul\":6439:6444   */\n      dup2\n        /* \"#utility.yul\":6433:6445   */\n      mload\n        /* \"#utility.yul\":6423:6445   */\n      swap1\n      pop\n        /* \"#utility.yul\":6353:6452   */\n      swap2\n      swap1\n      pop\n      jump\t// out\n        /* \"#utility.yul\":6458:6627   */\n    tag_59:\n        /* \"#utility.yul\":6542:6553   */\n      0x00\n        /* \"#utility.yul\":6576:6582   */\n      dup3\n        /* \"#utility.yul\":6571:6574   */\n      dup3\n        /* \"#utility.yul\":6564:6583   */\n      mstore\n        /* \"#utility.yul\":6616:6620   */\n      0x20\n        /* \"#utility.yul\":6611:6614   */\n      dup3\n        /* \"#utility.yul\":6607:6621   */\n      add\n        /* \"#utility.yul\":6592:6621   */\n      swap1\n      pop\n        /* \"#utility.yul\":6458:6627   */\n      swap3\n      swap2\n      pop\n      pop\n      jump\t// out\n        /* \"#utility.yul\":6633:6940   */\n    tag_60:\n        /* \"#utility.yul\":6701:6702   */\n      0x00\n        /* \"#utility.yul\":6711:6824   */\n    tag_137:\n        /* \"#utility.yul\":6725:6731   */\n      dup4\n        /* \"#utility.yul\":6722:6723   */\n      dup2\n        /* \"#utility.yul\":6719:6732   */\n      lt\n        /* \"#utility.yul\":6711:6824   */\n      iszero\n      tag_139\n      jumpi\n        /* \"#utility.yul\":6810:6811   */\n      dup1\n        /* \"#utility.yul\":6805:6808   */\n      dup3\n        /* \"#utility.yul\":6801:6812   */\n      add\n        /* \"#utility.yul\":6795:6813   */\n      mload\n        /* \"#utility.yul\":6791:6792   */\n      dup2\n        /* \"#utility.yul\":6786:6789   */\n      dup5\n        /* \"#utility.yul\":6782:6793   */\n      add\n        /* \"#utility.yul\":6775:6814   */\n      mstore\n        /* \"#utility.yul\":6747:6749   */\n      0x20\n        /* \"#utility.yul\":6744:6745   */\n      dup2\n        /* \"#utility.yul\":6740:6750   */\n      add\n        /* \"#utility.yul\":6735:6750   */\n      swap1\n      pop\n        /* \"#utility.yul\":6711:6824   */\n      jump(tag_137)\n    tag_139:\n        /* \"#utility.yul\":6842:6848   */\n      dup4\n        /* \"#utility.yul\":6839:6840   */\n      dup2\n        /* \"#utility.yul\":6836:6849   */\n      gt\n        /* \"#utility.yul\":6833:6934   */\n      iszero\n      tag_140\n      jumpi\n        /* \"#utility.yul\":6922:6923   */\n      0x00\n        /* \"#utility.yul\":6913:6919   */\n      dup5\n        /* \"#utility.yul\":6908:6911   */\n      dup5\n        /* \"#utility.yul\":6904:6920   */\n      add\n        /* \"#utility.yul\":6897:6924   */\n      mstore\n        /* \"#utility.yul\":6833:6934   */\n    tag_140:\n        /* \"#utility.yul\":6682:6940   */\n      pop\n        /* \"#utility.yul\":6633:6940   */\n      pop\n      pop\n      pop\n      jump\t// out\n        /* \"#utility.yul\":6946:7310   */\n    tag_61:\n        /* \"#utility.yul\":7034:7037   */\n      0x00\n        /* \"#utility.yul\":7062:7101   */\n      tag_142\n        /* \"#utility.yul\":7095:7100   */\n      dup3\n        /* \"#utility.yul\":7062:7101   */\n      tag_58\n      jump\t// in\n    tag_142:\n        /* \"#utility.yul\":7117:7188   */\n      tag_143\n        /* \"#utility.yul\":7181:7187   */\n      dup2\n        /* \"#utility.yul\":7176:7179   */\n      dup6\n        /* \"#utility.yul\":7117:7188   */\n      tag_59\n      jump\t// in\n    tag_143:\n        /* \"#utility.yul\":7110:7188   */\n      swap4\n      pop\n        /* \"#utility.yul\":7197:7249   */\n      tag_144\n        /* \"#utility.yul\":7242:7248   */\n      dup2\n        /* \"#utility.yul\":7237:7240   */\n      dup6\n        /* \"#utility.yul\":7230:7234   */\n      0x20\n        /* \"#utility.yul\":7223:7228   */\n      dup7\n        /* \"#utility.yul\":7219:7235   */\n      add\n        /* \"#utility.yul\":7197:7249   */\n      tag_60\n      jump\t// in\n    tag_144:\n        /* \"#utility.yul\":7274:7303   */\n      tag_145\n        /* \"#utility.yul\":7296:7302   */\n      dup2\n        /* \"#utility.yul\":7274:7303   */\n      tag_50\n      jump\t// in\n    tag_145:\n        /* \"#utility.yul\":7269:7272   */\n      dup5\n        /* \"#utility.yul\":7265:7304   */\n      add\n        /* \"#utility.yul\":7258:7304   */\n      swap2\n      pop\n        /* \"#utility.yul\":7038:7310   */\n      pop\n        /* \"#utility.yul\":6946:7310   */\n      swap3\n      swap2\n      pop\n      pop\n      jump\t// out\n        /* \"#utility.yul\":7316:7739   */\n    tag_29:\n        /* \"#utility.yul\":7457:7461   */\n      0x00\n        /* \"#utility.yul\":7495:7497   */\n      0x40\n        /* \"#utility.yul\":7484:7493   */\n      dup3\n        /* \"#utility.yul\":7480:7498   */\n      add\n        /* \"#utility.yul\":7472:7498   */\n      swap1\n      pop\n        /* \"#utility.yul\":7544:7553   */\n      dup2\n        /* \"#utility.yul\":7538:7542   */\n      dup2\n        /* \"#utility.yul\":7534:7554   */\n      sub\n        /* \"#utility.yul\":7530:7531   */\n      0x00\n        /* \"#utility.yul\":7519:7528   */\n      dup4\n        /* \"#utility.yul\":7515:7532   */\n      add\n        /* \"#utility.yul\":7508:7555   */\n      mstore\n        /* \"#utility.yul\":7572:7650   */\n      tag_147\n        /* \"#utility.yul\":7645:7649   */\n      dup2\n        /* \"#utility.yul\":7636:7642   */\n      dup6\n        /* \"#utility.yul\":7572:7650   */\n      tag_61\n      jump\t// in\n    tag_147:\n        /* \"#utility.yul\":7564:7650   */\n      swap1\n      pop\n        /* \"#utility.yul\":7660:7732   */\n      tag_148\n        /* \"#utility.yul\":7728:7730   */\n      0x20\n        /* \"#utility.yul\":7717:7726   */\n      dup4\n        /* \"#utility.yul\":7713:7731   */\n      add\n        /* \"#utility.yul\":7704:7710   */\n      dup5\n        /* \"#utility.yul\":7660:7732   */\n      tag_40\n      jump\t// in\n    tag_148:\n        /* \"#utility.yul\":7316:7739   */\n      swap4\n      swap3\n      pop\n      pop\n      pop\n      jump\t// out\n    stop\n\n    sub_0: assembly {\n            /* \"Story.sol\":434:2803  contract Story {... */\n          mstore(0x40, 0x80)\n            /* \"Story.sol\":782:972  constructor(string memory _mainIdea, address _mainAuthor) {... */\n          callvalue\n          dup1\n          iszero\n          tag_1\n          jumpi\n          0x00\n          dup1\n          revert\n        tag_1:\n          pop\n          mload(0x40)\n          sub(codesize, bytecodeSize)\n          dup1\n          bytecodeSize\n          dup4\n          codecopy\n          dup2\n          dup2\n          add\n          0x40\n          mstore\n          dup2\n          add\n          swap1\n          tag_2\n          swap2\n          swap1\n          tag_3\n          jump\t// in\n        tag_2:\n            /* \"Story.sol\":862:871  _mainIdea */\n          dup2\n            /* \"Story.sol\":851:859  mainIdea */\n          0x00\n            /* \"Story.sol\":851:871  mainIdea = _mainIdea */\n          swap1\n          dup1\n          mload\n          swap1\n          0x20\n          add\n          swap1\n          tag_6\n          swap3\n          swap2\n          swap1\n          tag_7\n          jump\t// in\n        tag_6:\n          pop\n            /* \"Story.sol\":916:920  true */\n          0x01\n            /* \"Story.sol\":882:900  authorsForSolidity */\n          0x02\n            /* \"Story.sol\":882:913  authorsForSolidity[_mainAuthor] */\n          0x00\n            /* \"Story.sol\":901:912  _mainAuthor */\n          dup4\n            /* \"Story.sol\":882:913  authorsForSolidity[_mainAuthor] */\n          0xffffffffffffffffffffffffffffffffffffffff\n          and\n          0xffffffffffffffffffffffffffffffffffffffff\n          and\n          dup2\n          mstore\n          0x20\n          add\n          swap1\n          dup2\n          mstore\n          0x20\n          add\n          0x00\n          keccak256\n          0x00\n            /* \"Story.sol\":882:920  authorsForSolidity[_mainAuthor] = true */\n          0x0100\n          exp\n          dup2\n          sload\n          dup2\n          0xff\n          mul\n          not\n          and\n          swap1\n          dup4\n          iszero\n          iszero\n          mul\n          or\n          swap1\n          sstore\n          pop\n            /* \"Story.sol\":931:946  authorsForReact */\n          0x03\n            /* \"Story.sol\":952:963  _mainAuthor */\n          dup2\n            /* \"Story.sol\":931:964  authorsForReact.push(_mainAuthor) */\n          swap1\n          dup1\n          0x01\n          dup2\n          sload\n          add\n          dup1\n          dup3\n          sstore\n          dup1\n          swap2\n          pop\n          pop\n          0x01\n          swap1\n          sub\n          swap1\n          0x00\n          mstore\n          keccak256(0x00, 0x20)\n          add\n          0x00\n          swap1\n          swap2\n          swap1\n          swap2\n          swap1\n          swap2\n          0x0100\n          exp\n          dup2\n          sload\n          dup2\n          0xffffffffffffffffffffffffffffffffffffffff\n          mul\n          not\n          and\n          swap1\n          dup4\n          0xffffffffffffffffffffffffffffffffffffffff\n          and\n          mul\n          or\n          swap1\n          sstore\n          pop\n            /* \"Story.sol\":782:972  constructor(string memory _mainIdea, address _mainAuthor) {... */\n          pop\n          pop\n            /* \"Story.sol\":434:2803  contract Story {... */\n          jump(tag_9)\n        tag_7:\n          dup3\n          dup1\n          sload\n          tag_10\n          swap1\n          tag_11\n          jump\t// in\n        tag_10:\n          swap1\n          0x00\n          mstore\n          keccak256(0x00, 0x20)\n          swap1\n          0x1f\n          add\n          0x20\n          swap1\n          div\n          dup2\n          add\n          swap3\n          dup3\n          tag_13\n          jumpi\n          0x00\n          dup6\n          sstore\n          jump(tag_12)\n        tag_13:\n          dup3\n          0x1f\n          lt\n          tag_14\n          jumpi\n          dup1\n          mload\n          not(0xff)\n          and\n          dup4\n          dup1\n          add\n          or\n          dup6\n          sstore\n          jump(tag_12)\n        tag_14:\n          dup3\n          dup1\n          add\n          0x01\n          add\n          dup6\n          sstore\n          dup3\n          iszero\n          tag_12\n          jumpi\n          swap2\n          dup3\n          add\n        tag_15:\n          dup3\n          dup2\n          gt\n          iszero\n          tag_16\n          jumpi\n          dup3\n          mload\n          dup3\n          sstore\n          swap2\n          0x20\n          add\n          swap2\n          swap1\n          0x01\n          add\n          swap1\n          jump(tag_15)\n        tag_16:\n        tag_12:\n          pop\n          swap1\n          pop\n          tag_17\n          swap2\n          swap1\n          tag_18\n          jump\t// in\n        tag_17:\n          pop\n          swap1\n          jump\t// out\n        tag_18:\n        tag_19:\n          dup1\n          dup3\n          gt\n          iszero\n          tag_20\n          jumpi\n          0x00\n          dup2\n          0x00\n          swap1\n          sstore\n          pop\n          0x01\n          add\n          jump(tag_19)\n        tag_20:\n          pop\n          swap1\n          jump\t// out\n            /* \"#utility.yul\":7:82   */\n        tag_21:\n            /* \"#utility.yul\":40:46   */\n          0x00\n            /* \"#utility.yul\":73:75   */\n          0x40\n            /* \"#utility.yul\":67:76   */\n          mload\n            /* \"#utility.yul\":57:76   */\n          swap1\n          pop\n            /* \"#utility.yul\":7:82   */\n          swap1\n          jump\t// out\n            /* \"#utility.yul\":88:205   */\n        tag_22:\n            /* \"#utility.yul\":197:198   */\n          0x00\n            /* \"#utility.yul\":194:195   */\n          dup1\n            /* \"#utility.yul\":187:199   */\n          revert\n            /* \"#utility.yul\":211:328   */\n        tag_23:\n            /* \"#utility.yul\":320:321   */\n          0x00\n            /* \"#utility.yul\":317:318   */\n          dup1\n            /* \"#utility.yul\":310:322   */\n          revert\n            /* \"#utility.yul\":334:451   */\n        tag_24:\n            /* \"#utility.yul\":443:444   */\n          0x00\n            /* \"#utility.yul\":440:441   */\n          dup1\n            /* \"#utility.yul\":433:445   */\n          revert\n            /* \"#utility.yul\":457:574   */\n        tag_25:\n            /* \"#utility.yul\":566:567   */\n          0x00\n            /* \"#utility.yul\":563:564   */\n          dup1\n            /* \"#utility.yul\":556:568   */\n          revert\n            /* \"#utility.yul\":580:682   */\n        tag_26:\n            /* \"#utility.yul\":621:627   */\n          0x00\n            /* \"#utility.yul\":672:674   */\n          0x1f\n            /* \"#utility.yul\":668:675   */\n          not\n            /* \"#utility.yul\":663:665   */\n          0x1f\n            /* \"#utility.yul\":656:661   */\n          dup4\n            /* \"#utility.yul\":652:666   */\n          add\n            /* \"#utility.yul\":648:676   */\n          and\n            /* \"#utility.yul\":638:676   */\n          swap1\n          pop\n            /* \"#utility.yul\":580:682   */\n          swap2\n          swap1\n          pop\n          jump\t// out\n            /* \"#utility.yul\":688:868   */\n        tag_27:\n            /* \"#utility.yul\":736:813   */\n          0x4e487b7100000000000000000000000000000000000000000000000000000000\n            /* \"#utility.yul\":733:734   */\n          0x00\n            /* \"#utility.yul\":726:814   */\n          mstore\n            /* \"#utility.yul\":833:837   */\n          0x41\n            /* \"#utility.yul\":830:831   */\n          0x04\n            /* \"#utility.yul\":823:838   */\n          mstore\n            /* \"#utility.yul\":857:861   */\n          0x24\n            /* \"#utility.yul\":854:855   */\n          0x00\n            /* \"#utility.yul\":847:862   */\n          revert\n            /* \"#utility.yul\":874:1155   */\n        tag_28:\n            /* \"#utility.yul\":957:984   */\n          tag_48\n            /* \"#utility.yul\":979:983   */\n          dup3\n            /* \"#utility.yul\":957:984   */\n          tag_26\n          jump\t// in\n        tag_48:\n            /* \"#utility.yul\":949:955   */\n          dup2\n            /* \"#utility.yul\":945:985   */\n          add\n            /* \"#utility.yul\":1087:1093   */\n          dup2\n            /* \"#utility.yul\":1075:1085   */\n          dup2\n            /* \"#utility.yul\":1072:1094   */\n          lt\n            /* \"#utility.yul\":1051:1069   */\n          0xffffffffffffffff\n            /* \"#utility.yul\":1039:1049   */\n          dup3\n            /* \"#utility.yul\":1036:1070   */\n          gt\n            /* \"#utility.yul\":1033:1095   */\n          or\n            /* \"#utility.yul\":1030:1118   */\n          iszero\n          tag_49\n          jumpi\n            /* \"#utility.yul\":1098:1116   */\n          tag_50\n          tag_27\n          jump\t// in\n        tag_50:\n            /* \"#utility.yul\":1030:1118   */\n        tag_49:\n            /* \"#utility.yul\":1138:1148   */\n          dup1\n            /* \"#utility.yul\":1134:1136   */\n          0x40\n            /* \"#utility.yul\":1127:1149   */\n          mstore\n            /* \"#utility.yul\":917:1155   */\n          pop\n            /* \"#utility.yul\":874:1155   */\n          pop\n          pop\n          jump\t// out\n            /* \"#utility.yul\":1161:1290   */\n        tag_29:\n            /* \"#utility.yul\":1195:1201   */\n          0x00\n            /* \"#utility.yul\":1222:1242   */\n          tag_52\n          tag_21\n          jump\t// in\n        tag_52:\n            /* \"#utility.yul\":1212:1242   */\n          swap1\n          pop\n            /* \"#utility.yul\":1251:1284   */\n          tag_53\n            /* \"#utility.yul\":1279:1283   */\n          dup3\n            /* \"#utility.yul\":1271:1277   */\n          dup3\n            /* \"#utility.yul\":1251:1284   */\n          tag_28\n          jump\t// in\n        tag_53:\n            /* \"#utility.yul\":1161:1290   */\n          swap2\n          swap1\n          pop\n          jump\t// out\n            /* \"#utility.yul\":1296:1604   */\n        tag_30:\n            /* \"#utility.yul\":1358:1362   */\n          0x00\n            /* \"#utility.yul\":1448:1466   */\n          0xffffffffffffffff\n            /* \"#utility.yul\":1440:1446   */\n          dup3\n            /* \"#utility.yul\":1437:1467   */\n          gt\n            /* \"#utility.yul\":1434:1490   */\n          iszero\n          tag_55\n          jumpi\n            /* \"#utility.yul\":1470:1488   */\n          tag_56\n          tag_27\n          jump\t// in\n        tag_56:\n            /* \"#utility.yul\":1434:1490   */\n        tag_55:\n            /* \"#utility.yul\":1508:1537   */\n          tag_57\n            /* \"#utility.yul\":1530:1536   */\n          dup3\n            /* \"#utility.yul\":1508:1537   */\n          tag_26\n          jump\t// in\n        tag_57:\n            /* \"#utility.yul\":1500:1537   */\n          swap1\n          pop\n            /* \"#utility.yul\":1592:1596   */\n          0x20\n            /* \"#utility.yul\":1586:1590   */\n          dup2\n            /* \"#utility.yul\":1582:1597   */\n          add\n            /* \"#utility.yul\":1574:1597   */\n          swap1\n          pop\n            /* \"#utility.yul\":1296:1604   */\n          swap2\n          swap1\n          pop\n          jump\t// out\n            /* \"#utility.yul\":1610:1917   */\n        tag_31:\n            /* \"#utility.yul\":1678:1679   */\n          0x00\n            /* \"#utility.yul\":1688:1801   */\n        tag_59:\n            /* \"#utility.yul\":1702:1708   */\n          dup4\n            /* \"#utility.yul\":1699:1700   */\n          dup2\n            /* \"#utility.yul\":1696:1709   */\n          lt\n            /* \"#utility.yul\":1688:1801   */\n          iszero\n          tag_61\n          jumpi\n            /* \"#utility.yul\":1787:1788   */\n          dup1\n            /* \"#utility.yul\":1782:1785   */\n          dup3\n            /* \"#utility.yul\":1778:1789   */\n          add\n            /* \"#utility.yul\":1772:1790   */\n          mload\n            /* \"#utility.yul\":1768:1769   */\n          dup2\n            /* \"#utility.yul\":1763:1766   */\n          dup5\n            /* \"#utility.yul\":1759:1770   */\n          add\n            /* \"#utility.yul\":1752:1791   */\n          mstore\n            /* \"#utility.yul\":1724:1726   */\n          0x20\n            /* \"#utility.yul\":1721:1722   */\n          dup2\n            /* \"#utility.yul\":1717:1727   */\n          add\n            /* \"#utility.yul\":1712:1727   */\n          swap1\n          pop\n            /* \"#utility.yul\":1688:1801   */\n          jump(tag_59)\n        tag_61:\n            /* \"#utility.yul\":1819:1825   */\n          dup4\n            /* \"#utility.yul\":1816:1817   */\n          dup2\n            /* \"#utility.yul\":1813:1826   */\n          gt\n            /* \"#utility.yul\":1810:1911   */\n          iszero\n          tag_62\n          jumpi\n            /* \"#utility.yul\":1899:1900   */\n          0x00\n            /* \"#utility.yul\":1890:1896   */\n          dup5\n            /* \"#utility.yul\":1885:1888   */\n          dup5\n            /* \"#utility.yul\":1881:1897   */\n          add\n            /* \"#utility.yul\":1874:1901   */\n          mstore\n            /* \"#utility.yul\":1810:1911   */\n        tag_62:\n            /* \"#utility.yul\":1659:1917   */\n          pop\n            /* \"#utility.yul\":1610:1917   */\n          pop\n          pop\n          pop\n          jump\t// out\n            /* \"#utility.yul\":1923:2344   */\n        tag_32:\n            /* \"#utility.yul\":2012:2017   */\n          0x00\n            /* \"#utility.yul\":2037:2103   */\n          tag_64\n            /* \"#utility.yul\":2053:2102   */\n          tag_65\n            /* \"#utility.yul\":2095:2101   */\n          dup5\n            /* \"#utility.yul\":2053:2102   */\n          tag_30\n          jump\t// in\n        tag_65:\n            /* \"#utility.yul\":2037:2103   */\n          tag_29\n          jump\t// in\n        tag_64:\n            /* \"#utility.yul\":2028:2103   */\n          swap1\n          pop\n            /* \"#utility.yul\":2126:2132   */\n          dup3\n            /* \"#utility.yul\":2119:2124   */\n          dup2\n            /* \"#utility.yul\":2112:2133   */\n          mstore\n            /* \"#utility.yul\":2164:2168   */\n          0x20\n            /* \"#utility.yul\":2157:2162   */\n          dup2\n            /* \"#utility.yul\":2153:2169   */\n          add\n            /* \"#utility.yul\":2202:2205   */\n          dup5\n            /* \"#utility.yul\":2193:2199   */\n          dup5\n            /* \"#utility.yul\":2188:2191   */\n          dup5\n            /* \"#utility.yul\":2184:2200   */\n          add\n            /* \"#utility.yul\":2181:2206   */\n          gt\n            /* \"#utility.yul\":2178:2290   */\n          iszero\n          tag_66\n          jumpi\n            /* \"#utility.yul\":2209:2288   */\n          tag_67\n          tag_25\n          jump\t// in\n        tag_67:\n            /* \"#utility.yul\":2178:2290   */\n        tag_66:\n            /* \"#utility.yul\":2299:2338   */\n          tag_68\n            /* \"#utility.yul\":2331:2337   */\n          dup5\n            /* \"#utility.yul\":2326:2329   */\n          dup3\n            /* \"#utility.yul\":2321:2324   */\n          dup6\n            /* \"#utility.yul\":2299:2338   */\n          tag_31\n          jump\t// in\n        tag_68:\n            /* \"#utility.yul\":2018:2344   */\n          pop\n            /* \"#utility.yul\":1923:2344   */\n          swap4\n          swap3\n          pop\n          pop\n          pop\n          jump\t// out\n            /* \"#utility.yul\":2364:2719   */\n        tag_33:\n            /* \"#utility.yul\":2431:2436   */\n          0x00\n            /* \"#utility.yul\":2480:2483   */\n          dup3\n            /* \"#utility.yul\":2473:2477   */\n          0x1f\n            /* \"#utility.yul\":2465:2471   */\n          dup4\n            /* \"#utility.yul\":2461:2478   */\n          add\n            /* \"#utility.yul\":2457:2484   */\n          slt\n            /* \"#utility.yul\":2447:2569   */\n          tag_70\n          jumpi\n            /* \"#utility.yul\":2488:2567   */\n          tag_71\n          tag_24\n          jump\t// in\n        tag_71:\n            /* \"#utility.yul\":2447:2569   */\n        tag_70:\n            /* \"#utility.yul\":2598:2604   */\n          dup2\n            /* \"#utility.yul\":2592:2605   */\n          mload\n            /* \"#utility.yul\":2623:2713   */\n          tag_72\n            /* \"#utility.yul\":2709:2712   */\n          dup5\n            /* \"#utility.yul\":2701:2707   */\n          dup3\n            /* \"#utility.yul\":2694:2698   */\n          0x20\n            /* \"#utility.yul\":2686:2692   */\n          dup7\n            /* \"#utility.yul\":2682:2699   */\n          add\n            /* \"#utility.yul\":2623:2713   */\n          tag_32\n          jump\t// in\n        tag_72:\n            /* \"#utility.yul\":2614:2713   */\n          swap2\n          pop\n            /* \"#utility.yul\":2437:2719   */\n          pop\n            /* \"#utility.yul\":2364:2719   */\n          swap3\n          swap2\n          pop\n          pop\n          jump\t// out\n            /* \"#utility.yul\":2725:2851   */\n        tag_34:\n            /* \"#utility.yul\":2762:2769   */\n          0x00\n            /* \"#utility.yul\":2802:2844   */\n          0xffffffffffffffffffffffffffffffffffffffff\n            /* \"#utility.yul\":2795:2800   */\n          dup3\n            /* \"#utility.yul\":2791:2845   */\n          and\n            /* \"#utility.yul\":2780:2845   */\n          swap1\n          pop\n            /* \"#utility.yul\":2725:2851   */\n          swap2\n          swap1\n          pop\n          jump\t// out\n            /* \"#utility.yul\":2857:2953   */\n        tag_35:\n            /* \"#utility.yul\":2894:2901   */\n          0x00\n            /* \"#utility.yul\":2923:2947   */\n          tag_75\n            /* \"#utility.yul\":2941:2946   */\n          dup3\n            /* \"#utility.yul\":2923:2947   */\n          tag_34\n          jump\t// in\n        tag_75:\n            /* \"#utility.yul\":2912:2947   */\n          swap1\n          pop\n            /* \"#utility.yul\":2857:2953   */\n          swap2\n          swap1\n          pop\n          jump\t// out\n            /* \"#utility.yul\":2959:3081   */\n        tag_36:\n            /* \"#utility.yul\":3032:3056   */\n          tag_77\n            /* \"#utility.yul\":3050:3055   */\n          dup2\n            /* \"#utility.yul\":3032:3056   */\n          tag_35\n          jump\t// in\n        tag_77:\n            /* \"#utility.yul\":3025:3030   */\n          dup2\n            /* \"#utility.yul\":3022:3057   */\n          eq\n            /* \"#utility.yul\":3012:3075   */\n          tag_78\n          jumpi\n            /* \"#utility.yul\":3071:3072   */\n          0x00\n            /* \"#utility.yul\":3068:3069   */\n          dup1\n            /* \"#utility.yul\":3061:3073   */\n          revert\n            /* \"#utility.yul\":3012:3075   */\n        tag_78:\n            /* \"#utility.yul\":2959:3081   */\n          pop\n          jump\t// out\n            /* \"#utility.yul\":3087:3230   */\n        tag_37:\n            /* \"#utility.yul\":3144:3149   */\n          0x00\n            /* \"#utility.yul\":3175:3181   */\n          dup2\n            /* \"#utility.yul\":3169:3182   */\n          mload\n            /* \"#utility.yul\":3160:3182   */\n          swap1\n          pop\n            /* \"#utility.yul\":3191:3224   */\n          tag_80\n            /* \"#utility.yul\":3218:3223   */\n          dup2\n            /* \"#utility.yul\":3191:3224   */\n          tag_36\n          jump\t// in\n        tag_80:\n            /* \"#utility.yul\":3087:3230   */\n          swap3\n          swap2\n          pop\n          pop\n          jump\t// out\n            /* \"#utility.yul\":3236:3916   */\n        tag_3:\n            /* \"#utility.yul\":3325:3331   */\n          0x00\n            /* \"#utility.yul\":3333:3339   */\n          dup1\n            /* \"#utility.yul\":3382:3384   */\n          0x40\n            /* \"#utility.yul\":3370:3379   */\n          dup4\n            /* \"#utility.yul\":3361:3368   */\n          dup6\n            /* \"#utility.yul\":3357:3380   */\n          sub\n            /* \"#utility.yul\":3353:3385   */\n          slt\n            /* \"#utility.yul\":3350:3469   */\n          iszero\n          tag_82\n          jumpi\n            /* \"#utility.yul\":3388:3467   */\n          tag_83\n          tag_22\n          jump\t// in\n        tag_83:\n            /* \"#utility.yul\":3350:3469   */\n        tag_82:\n            /* \"#utility.yul\":3529:3530   */\n          0x00\n            /* \"#utility.yul\":3518:3527   */\n          dup4\n            /* \"#utility.yul\":3514:3531   */\n          add\n            /* \"#utility.yul\":3508:3532   */\n          mload\n            /* \"#utility.yul\":3559:3577   */\n          0xffffffffffffffff\n            /* \"#utility.yul\":3551:3557   */\n          dup2\n            /* \"#utility.yul\":3548:3578   */\n          gt\n            /* \"#utility.yul\":3545:3662   */\n          iszero\n          tag_84\n          jumpi\n            /* \"#utility.yul\":3581:3660   */\n          tag_85\n          tag_23\n          jump\t// in\n        tag_85:\n            /* \"#utility.yul\":3545:3662   */\n        tag_84:\n            /* \"#utility.yul\":3686:3760   */\n          tag_86\n            /* \"#utility.yul\":3752:3759   */\n          dup6\n            /* \"#utility.yul\":3743:3749   */\n          dup3\n            /* \"#utility.yul\":3732:3741   */\n          dup7\n            /* \"#utility.yul\":3728:3750   */\n          add\n            /* \"#utility.yul\":3686:3760   */\n          tag_33\n          jump\t// in\n        tag_86:\n            /* \"#utility.yul\":3676:3760   */\n          swap3\n          pop\n            /* \"#utility.yul\":3479:3770   */\n          pop\n            /* \"#utility.yul\":3809:3811   */\n          0x20\n            /* \"#utility.yul\":3835:3899   */\n          tag_87\n            /* \"#utility.yul\":3891:3898   */\n          dup6\n            /* \"#utility.yul\":3882:3888   */\n          dup3\n            /* \"#utility.yul\":3871:3880   */\n          dup7\n            /* \"#utility.yul\":3867:3889   */\n          add\n            /* \"#utility.yul\":3835:3899   */\n          tag_37\n          jump\t// in\n        tag_87:\n            /* \"#utility.yul\":3825:3899   */\n          swap2\n          pop\n            /* \"#utility.yul\":3780:3909   */\n          pop\n            /* \"#utility.yul\":3236:3916   */\n          swap3\n          pop\n          swap3\n          swap1\n          pop\n          jump\t// out\n            /* \"#utility.yul\":3922:4102   */\n        tag_38:\n            /* \"#utility.yul\":3970:4047   */\n          0x4e487b7100000000000000000000000000000000000000000000000000000000\n            /* \"#utility.yul\":3967:3968   */\n          0x00\n            /* \"#utility.yul\":3960:4048   */\n          mstore\n            /* \"#utility.yul\":4067:4071   */\n          0x22\n            /* \"#utility.yul\":4064:4065   */\n          0x04\n            /* \"#utility.yul\":4057:4072   */\n          mstore\n            /* \"#utility.yul\":4091:4095   */\n          0x24\n            /* \"#utility.yul\":4088:4089   */\n          0x00\n            /* \"#utility.yul\":4081:4096   */\n          revert\n            /* \"#utility.yul\":4108:4428   */\n        tag_11:\n            /* \"#utility.yul\":4152:4158   */\n          0x00\n            /* \"#utility.yul\":4189:4190   */\n          0x02\n            /* \"#utility.yul\":4183:4187   */\n          dup3\n            /* \"#utility.yul\":4179:4191   */\n          div\n            /* \"#utility.yul\":4169:4191   */\n          swap1\n          pop\n            /* \"#utility.yul\":4236:4237   */\n          0x01\n            /* \"#utility.yul\":4230:4234   */\n          dup3\n            /* \"#utility.yul\":4226:4238   */\n          and\n            /* \"#utility.yul\":4257:4275   */\n          dup1\n            /* \"#utility.yul\":4247:4328   */\n          tag_90\n          jumpi\n            /* \"#utility.yul\":4313:4317   */\n          0x7f\n            /* \"#utility.yul\":4305:4311   */\n          dup3\n            /* \"#utility.yul\":4301:4318   */\n          and\n            /* \"#utility.yul\":4291:4318   */\n          swap2\n          pop\n            /* \"#utility.yul\":4247:4328   */\n        tag_90:\n            /* \"#utility.yul\":4375:4377   */\n          0x20\n            /* \"#utility.yul\":4367:4373   */\n          dup3\n            /* \"#utility.yul\":4364:4378   */\n          lt\n            /* \"#utility.yul\":4344:4362   */\n          dup2\n            /* \"#utility.yul\":4341:4379   */\n          eq\n            /* \"#utility.yul\":4338:4422   */\n          iszero\n          tag_91\n          jumpi\n            /* \"#utility.yul\":4394:4412   */\n          tag_92\n          tag_38\n          jump\t// in\n        tag_92:\n            /* \"#utility.yul\":4338:4422   */\n        tag_91:\n            /* \"#utility.yul\":4159:4428   */\n          pop\n            /* \"#utility.yul\":4108:4428   */\n          swap2\n          swap1\n          pop\n          jump\t// out\n            /* \"Story.sol\":434:2803  contract Story {... */\n        tag_9:\n          dataSize(sub_0)\n          dup1\n          dataOffset(sub_0)\n          0x00\n          codecopy\n          0x00\n          return\n        stop\n\n        sub_0: assembly {\n                /* \"Story.sol\":434:2803  contract Story {... */\n              mstore(0x40, 0x80)\n              callvalue\n              dup1\n              iszero\n              tag_1\n              jumpi\n              0x00\n              dup1\n              revert\n            tag_1:\n              pop\n              jumpi(tag_2, lt(calldatasize, 0x04))\n              shr(0xe0, calldataload(0x00))\n              dup1\n              0x9d3ed807\n              gt\n              tag_13\n              jumpi\n              dup1\n              0x9d3ed807\n              eq\n              tag_8\n              jumpi\n              dup1\n              0x9f0241d2\n              eq\n              tag_9\n              jumpi\n              dup1\n              0xdfa14e23\n              eq\n              tag_10\n              jumpi\n              dup1\n              0xe1715d24\n              eq\n              tag_11\n              jumpi\n              dup1\n              0xe8ae38e4\n              eq\n              tag_12\n              jumpi\n              jump(tag_2)\n            tag_13:\n              dup1\n              0x3e5690f4\n              eq\n              tag_3\n              jumpi\n              dup1\n              0x4051ddac\n              eq\n              tag_4\n              jumpi\n              dup1\n              0x5cf298fb\n              eq\n              tag_5\n              jumpi\n              dup1\n              0x6fc6c579\n              eq\n              tag_6\n              jumpi\n              dup1\n              0x98b79628\n              eq\n              tag_7\n              jumpi\n            tag_2:\n              0x00\n              dup1\n              revert\n                /* \"Story.sol\":520:570  mapping(address => bool) public authorsForSolidity */\n            tag_3:\n              tag_14\n              0x04\n              dup1\n              calldatasize\n              sub\n              dup2\n              add\n              swap1\n              tag_15\n              swap2\n              swap1\n              tag_16\n              jump\t// in\n            tag_15:\n              tag_17\n              jump\t// in\n            tag_14:\n              mload(0x40)\n              tag_18\n              swap2\n              swap1\n              tag_19\n              jump\t// in\n            tag_18:\n              mload(0x40)\n              dup1\n              swap2\n              sub\n              swap1\n              return\n                /* \"Story.sol\":2404:2678  function getSummary() public view returns (... */\n            tag_4:\n              tag_20\n              tag_21\n              jump\t// in\n            tag_20:\n              mload(0x40)\n              tag_22\n              swap5\n              swap4\n              swap3\n              swap2\n              swap1\n              tag_23\n              jump\t// in\n            tag_22:\n              mload(0x40)\n              dup1\n              swap2\n              sub\n              swap1\n              return\n                /* \"Story.sol\":2686:2788  function isAuthor() public view returns (bool){... */\n            tag_5:\n              tag_24\n              tag_25\n              jump\t// in\n            tag_24:\n              mload(0x40)\n              tag_26\n              swap2\n              swap1\n              tag_19\n              jump\t// in\n            tag_26:\n              mload(0x40)\n              dup1\n              swap2\n              sub\n              swap1\n              return\n                /* \"Story.sol\":736:773  RequestToJoin[] public requestsToJoin */\n            tag_6:\n              tag_27\n              0x04\n              dup1\n              calldatasize\n              sub\n              dup2\n              add\n              swap1\n              tag_28\n              swap2\n              swap1\n              tag_29\n              jump\t// in\n            tag_28:\n              tag_30\n              jump\t// in\n            tag_27:\n              mload(0x40)\n              tag_31\n              swap4\n              swap3\n              swap2\n              swap1\n              tag_32\n              jump\t// in\n            tag_31:\n              mload(0x40)\n              dup1\n              swap2\n              sub\n              swap1\n              return\n                /* \"Story.sol\":1381:2192  function approveRequestToJoin(uint256 _index) public {... */\n            tag_7:\n              tag_33\n              0x04\n              dup1\n              calldatasize\n              sub\n              dup2\n              add\n              swap1\n              tag_34\n              swap2\n              swap1\n              tag_29\n              jump\t// in\n            tag_34:\n              tag_35\n              jump\t// in\n            tag_33:\n              stop\n                /* \"Story.sol\":577:609  address[] public authorsForReact */\n            tag_8:\n              tag_36\n              0x04\n              dup1\n              calldatasize\n              sub\n              dup2\n              add\n              swap1\n              tag_37\n              swap2\n              swap1\n              tag_29\n              jump\t// in\n            tag_37:\n              tag_38\n              jump\t// in\n            tag_36:\n              mload(0x40)\n              tag_39\n              swap2\n              swap1\n              tag_40\n              jump\t// in\n            tag_39:\n              mload(0x40)\n              dup1\n              swap2\n              sub\n              swap1\n              return\n                /* \"Story.sol\":485:513  string[] public storyStrings */\n            tag_9:\n              tag_41\n              0x04\n              dup1\n              calldatasize\n              sub\n              dup2\n              add\n              swap1\n              tag_42\n              swap2\n              swap1\n              tag_29\n              jump\t// in\n            tag_42:\n              tag_43\n              jump\t// in\n            tag_41:\n              mload(0x40)\n              tag_44\n              swap2\n              swap1\n              tag_45\n              jump\t// in\n            tag_44:\n              mload(0x40)\n              dup1\n              swap2\n              sub\n              swap1\n              return\n                /* \"Story.sol\":980:1373  function createRequestToJoin(string memory _proposal) public {... */\n            tag_10:\n              tag_46\n              0x04\n              dup1\n              calldatasize\n              sub\n              dup2\n              add\n              swap1\n              tag_47\n              swap2\n              swap1\n              tag_48\n              jump\t// in\n            tag_47:\n              tag_49\n              jump\t// in\n            tag_46:\n              stop\n                /* \"Story.sol\":2202:2396  function addChapter(string memory _chapter) public {... */\n            tag_11:\n              tag_50\n              0x04\n              dup1\n              calldatasize\n              sub\n              dup2\n              add\n              swap1\n              tag_51\n              swap2\n              swap1\n              tag_48\n              jump\t// in\n            tag_51:\n              tag_52\n              jump\t// in\n            tag_50:\n              stop\n                /* \"Story.sol\":456:478  string public mainIdea */\n            tag_12:\n              tag_53\n              tag_54\n              jump\t// in\n            tag_53:\n              mload(0x40)\n              tag_55\n              swap2\n              swap1\n              tag_45\n              jump\t// in\n            tag_55:\n              mload(0x40)\n              dup1\n              swap2\n              sub\n              swap1\n              return\n                /* \"Story.sol\":520:570  mapping(address => bool) public authorsForSolidity */\n            tag_17:\n              mstore(0x20, 0x02)\n              dup1\n              0x00\n              mstore\n              keccak256(0x00, 0x40)\n              0x00\n              swap2\n              pop\n              sload\n              swap1\n              0x0100\n              exp\n              swap1\n              div\n              0xff\n              and\n              dup2\n              jump\t// out\n                /* \"Story.sol\":2404:2678  function getSummary() public view returns (... */\n            tag_21:\n                /* \"Story.sol\":2457:2470  string memory */\n              0x60\n                /* \"Story.sol\":2472:2487  string[] memory */\n              dup1\n                /* \"Story.sol\":2489:2505  address[] memory */\n              0x60\n                /* \"Story.sol\":2507:2529  RequestToJoin[] memory */\n              dup1\n                /* \"Story.sol\":2565:2573  mainIdea */\n              0x00\n                /* \"Story.sol\":2588:2600  storyStrings */\n              0x01\n                /* \"Story.sol\":2615:2630  authorsForReact */\n              0x03\n                /* \"Story.sol\":2645:2659  requestsToJoin */\n              0x04\n                /* \"Story.sol\":2542:2670  return ( ... */\n              dup4\n              dup1\n              sload\n              tag_57\n              swap1\n              tag_58\n              jump\t// in\n            tag_57:\n              dup1\n              0x1f\n              add\n              0x20\n              dup1\n              swap2\n              div\n              mul\n              0x20\n              add\n              mload(0x40)\n              swap1\n              dup2\n              add\n              0x40\n              mstore\n              dup1\n              swap3\n              swap2\n              swap1\n              dup2\n              dup2\n              mstore\n              0x20\n              add\n              dup3\n              dup1\n              sload\n              tag_59\n              swap1\n              tag_58\n              jump\t// in\n            tag_59:\n              dup1\n              iszero\n              tag_60\n              jumpi\n              dup1\n              0x1f\n              lt\n              tag_61\n              jumpi\n              0x0100\n              dup1\n              dup4\n              sload\n              div\n              mul\n              dup4\n              mstore\n              swap2\n              0x20\n              add\n              swap2\n              jump(tag_60)\n            tag_61:\n              dup3\n              add\n              swap2\n              swap1\n              0x00\n              mstore\n              keccak256(0x00, 0x20)\n              swap1\n            tag_62:\n              dup2\n              sload\n              dup2\n              mstore\n              swap1\n              0x01\n              add\n              swap1\n              0x20\n              add\n              dup1\n              dup4\n              gt\n              tag_62\n              jumpi\n              dup3\n              swap1\n              sub\n              0x1f\n              and\n              dup3\n              add\n              swap2\n            tag_60:\n              pop\n              pop\n              pop\n              pop\n              pop\n              swap4\n              pop\n              dup3\n              dup1\n              sload\n              dup1\n              0x20\n              mul\n              0x20\n              add\n              mload(0x40)\n              swap1\n              dup2\n              add\n              0x40\n              mstore\n              dup1\n              swap3\n              swap2\n              swap1\n              dup2\n              dup2\n              mstore\n              0x20\n              add\n              0x00\n              swap1\n            tag_63:\n              dup3\n              dup3\n              lt\n              iszero\n              tag_64\n              jumpi\n              dup4\n              dup3\n              swap1\n              0x00\n              mstore\n              keccak256(0x00, 0x20)\n              add\n              dup1\n              sload\n              tag_66\n              swap1\n              tag_58\n              jump\t// in\n            tag_66:\n              dup1\n              0x1f\n              add\n              0x20\n              dup1\n              swap2\n              div\n              mul\n              0x20\n              add\n              mload(0x40)\n              swap1\n              dup2\n              add\n              0x40\n              mstore\n              dup1\n              swap3\n              swap2\n              swap1\n              dup2\n              dup2\n              mstore\n              0x20\n              add\n              dup3\n              dup1\n              sload\n              tag_67\n              swap1\n              tag_58\n              jump\t// in\n            tag_67:\n              dup1\n              iszero\n              tag_68\n              jumpi\n              dup1\n              0x1f\n              lt\n              tag_69\n              jumpi\n              0x0100\n              dup1\n              dup4\n              sload\n              div\n              mul\n              dup4\n              mstore\n              swap2\n              0x20\n              add\n              swap2\n              jump(tag_68)\n            tag_69:\n              dup3\n              add\n              swap2\n              swap1\n              0x00\n              mstore\n              keccak256(0x00, 0x20)\n              swap1\n            tag_70:\n              dup2\n              sload\n              dup2\n              mstore\n              swap1\n              0x01\n              add\n              swap1\n              0x20\n              add\n              dup1\n              dup4\n              gt\n              tag_70\n              jumpi\n              dup3\n              swap1\n              sub\n              0x1f\n              and\n              dup3\n              add\n              swap2\n            tag_68:\n              pop\n              pop\n              pop\n              pop\n              pop\n              dup2\n              mstore\n              0x20\n              add\n              swap1\n              0x01\n              add\n              swap1\n              jump(tag_63)\n            tag_64:\n              pop\n              pop\n              pop\n              pop\n              swap3\n              pop\n              dup2\n              dup1\n              sload\n              dup1\n              0x20\n              mul\n              0x20\n              add\n              mload(0x40)\n              swap1\n              dup2\n              add\n              0x40\n              mstore\n              dup1\n              swap3\n              swap2\n              swap1\n              dup2\n              dup2\n              mstore\n              0x20\n              add\n              dup3\n              dup1\n              sload\n              dup1\n              iszero\n              tag_71\n              jumpi\n              0x20\n              mul\n              dup3\n              add\n              swap2\n              swap1\n              0x00\n              mstore\n              keccak256(0x00, 0x20)\n              swap1\n            tag_72:\n              dup2\n              0x00\n              swap1\n              sload\n              swap1\n              0x0100\n              exp\n              swap1\n              div\n              0xffffffffffffffffffffffffffffffffffffffff\n              and\n              0xffffffffffffffffffffffffffffffffffffffff\n              and\n              dup2\n              mstore\n              0x20\n              add\n              swap1\n              0x01\n              add\n              swap1\n              dup1\n              dup4\n              gt\n              tag_72\n              jumpi\n            tag_71:\n              pop\n              pop\n              pop\n              pop\n              pop\n              swap2\n              pop\n              dup1\n              dup1\n              sload\n              dup1\n              0x20\n              mul\n              0x20\n              add\n              mload(0x40)\n              swap1\n              dup2\n              add\n              0x40\n              mstore\n              dup1\n              swap3\n              swap2\n              swap1\n              dup2\n              dup2\n              mstore\n              0x20\n              add\n              0x00\n              swap1\n            tag_73:\n              dup3\n              dup3\n              lt\n              iszero\n              tag_74\n              jumpi\n              dup4\n              dup3\n              swap1\n              0x00\n              mstore\n              keccak256(0x00, 0x20)\n              swap1\n              0x03\n              mul\n              add\n              mload(0x40)\n              dup1\n              0x60\n              add\n              0x40\n              mstore\n              swap1\n              dup2\n              0x00\n              dup3\n              add\n              dup1\n              sload\n              tag_76\n              swap1\n              tag_58\n              jump\t// in\n            tag_76:\n              dup1\n              0x1f\n              add\n              0x20\n              dup1\n              swap2\n              div\n              mul\n              0x20\n              add\n              mload(0x40)\n              swap1\n              dup2\n              add\n              0x40\n              mstore\n              dup1\n              swap3\n              swap2\n              swap1\n              dup2\n              dup2\n              mstore\n              0x20\n              add\n              dup3\n              dup1\n              sload\n              tag_77\n              swap1\n              tag_58\n              jump\t// in\n            tag_77:\n              dup1\n              iszero\n              tag_78\n              jumpi\n              dup1\n              0x1f\n              lt\n              tag_79\n              jumpi\n              0x0100\n              dup1\n              dup4\n              sload\n              div\n              mul\n              dup4\n              mstore\n              swap2\n              0x20\n              add\n              swap2\n              jump(tag_78)\n            tag_79:\n              dup3\n              add\n              swap2\n              swap1\n              0x00\n              mstore\n              keccak256(0x00, 0x20)\n              swap1\n            tag_80:\n              dup2\n              sload\n              dup2\n              mstore\n              swap1\n              0x01\n              add\n              swap1\n              0x20\n              add\n              dup1\n              dup4\n              gt\n              tag_80\n              jumpi\n              dup3\n              swap1\n              sub\n              0x1f\n              and\n              dup3\n              add\n              swap2\n            tag_78:\n              pop\n              pop\n              pop\n              pop\n              pop\n              dup2\n              mstore\n              0x20\n              add\n              0x01\n              dup3\n              add\n              sload\n              dup2\n              mstore\n              0x20\n              add\n              0x02\n              dup3\n              add\n              0x00\n              swap1\n              sload\n              swap1\n              0x0100\n              exp\n              swap1\n              div\n              0xffffffffffffffffffffffffffffffffffffffff\n              and\n              0xffffffffffffffffffffffffffffffffffffffff\n              and\n              0xffffffffffffffffffffffffffffffffffffffff\n              and\n              dup2\n              mstore\n              pop\n              pop\n              dup2\n              mstore\n              0x20\n              add\n              swap1\n              0x01\n              add\n              swap1\n              jump(tag_73)\n            tag_74:\n              pop\n              pop\n              pop\n              pop\n              swap1\n              pop\n              swap4\n              pop\n              swap4\n              pop\n              swap4\n              pop\n              swap4\n              pop\n                /* \"Story.sol\":2404:2678  function getSummary() public view returns (... */\n              swap1\n              swap2\n              swap3\n              swap4\n              jump\t// out\n                /* \"Story.sol\":2686:2788  function isAuthor() public view returns (bool){... */\n            tag_25:\n                /* \"Story.sol\":2727:2731  bool */\n              0x00\n                /* \"Story.sol\":2750:2768  authorsForSolidity */\n              0x02\n                /* \"Story.sol\":2750:2780  authorsForSolidity[msg.sender] */\n              0x00\n                /* \"Story.sol\":2769:2779  msg.sender */\n              caller\n                /* \"Story.sol\":2750:2780  authorsForSolidity[msg.sender] */\n              0xffffffffffffffffffffffffffffffffffffffff\n              and\n              0xffffffffffffffffffffffffffffffffffffffff\n              and\n              dup2\n              mstore\n              0x20\n              add\n              swap1\n              dup2\n              mstore\n              0x20\n              add\n              0x00\n              keccak256\n              0x00\n              swap1\n              sload\n              swap1\n              0x0100\n              exp\n              swap1\n              div\n              0xff\n              and\n                /* \"Story.sol\":2743:2780  return authorsForSolidity[msg.sender] */\n              swap1\n              pop\n                /* \"Story.sol\":2686:2788  function isAuthor() public view returns (bool){... */\n              swap1\n              jump\t// out\n                /* \"Story.sol\":736:773  RequestToJoin[] public requestsToJoin */\n            tag_30:\n              0x04\n              dup2\n              dup2\n              sload\n              dup2\n              lt\n              tag_82\n              jumpi\n              0x00\n              dup1\n              revert\n            tag_82:\n              swap1\n              0x00\n              mstore\n              keccak256(0x00, 0x20)\n              swap1\n              0x03\n              mul\n              add\n              0x00\n              swap2\n              pop\n              swap1\n              pop\n              dup1\n              0x00\n              add\n              dup1\n              sload\n              tag_84\n              swap1\n              tag_58\n              jump\t// in\n            tag_84:\n              dup1\n              0x1f\n              add\n              0x20\n              dup1\n              swap2\n              div\n              mul\n              0x20\n              add\n              mload(0x40)\n              swap1\n              dup2\n              add\n              0x40\n              mstore\n              dup1\n              swap3\n              swap2\n              swap1\n              dup2\n              dup2\n              mstore\n              0x20\n              add\n              dup3\n              dup1\n              sload\n              tag_85\n              swap1\n              tag_58\n              jump\t// in\n            tag_85:\n              dup1\n              iszero\n              tag_86\n              jumpi\n              dup1\n              0x1f\n              lt\n              tag_87\n              jumpi\n              0x0100\n              dup1\n              dup4\n              sload\n              div\n              mul\n              dup4\n              mstore\n              swap2\n              0x20\n              add\n              swap2\n              jump(tag_86)\n            tag_87:\n              dup3\n              add\n              swap2\n              swap1\n              0x00\n              mstore\n              keccak256(0x00, 0x20)\n              swap1\n            tag_88:\n              dup2\n              sload\n              dup2\n              mstore\n              swap1\n              0x01\n              add\n              swap1\n              0x20\n              add\n              dup1\n              dup4\n              gt\n              tag_88\n              jumpi\n              dup3\n              swap1\n              sub\n              0x1f\n              and\n              dup3\n              add\n              swap2\n            tag_86:\n              pop\n              pop\n              pop\n              pop\n              pop\n              swap1\n              dup1\n              0x01\n              add\n              sload\n              swap1\n              dup1\n              0x02\n              add\n              0x00\n              swap1\n              sload\n              swap1\n              0x0100\n              exp\n              swap1\n              div\n              0xffffffffffffffffffffffffffffffffffffffff\n              and\n              swap1\n              pop\n              dup4\n              jump\t// out\n                /* \"Story.sol\":1381:2192  function approveRequestToJoin(uint256 _index) public {... */\n            tag_35:\n                /* \"Story.sol\":1453:1471  authorsForSolidity */\n              0x02\n                /* \"Story.sol\":1453:1483  authorsForSolidity[msg.sender] */\n              0x00\n                /* \"Story.sol\":1472:1482  msg.sender */\n              caller\n                /* \"Story.sol\":1453:1483  authorsForSolidity[msg.sender] */\n              0xffffffffffffffffffffffffffffffffffffffff\n              and\n              0xffffffffffffffffffffffffffffffffffffffff\n              and\n              dup2\n              mstore\n              0x20\n              add\n              swap1\n              dup2\n              mstore\n              0x20\n              add\n              0x00\n              keccak256\n              0x00\n              swap1\n              sload\n              swap1\n              0x0100\n              exp\n              swap1\n              div\n              0xff\n              and\n                /* \"Story.sol\":1445:1533  require(authorsForSolidity[msg.sender], \"Only an accepted author can approve a request\") */\n              tag_90\n              jumpi\n              mload(0x40)\n              0x08c379a000000000000000000000000000000000000000000000000000000000\n              dup2\n              mstore\n              0x04\n              add\n              tag_91\n              swap1\n              tag_92\n              jump\t// in\n            tag_91:\n              mload(0x40)\n              dup1\n              swap2\n              sub\n              swap1\n              revert\n            tag_90:\n                /* \"Story.sol\":1553:1571  authorsForSolidity */\n              0x02\n                /* \"Story.sol\":1553:1602  authorsForSolidity[requestsToJoin[_index].author] */\n              0x00\n                /* \"Story.sol\":1572:1586  requestsToJoin */\n              0x04\n                /* \"Story.sol\":1587:1593  _index */\n              dup4\n                /* \"Story.sol\":1572:1594  requestsToJoin[_index] */\n              dup2\n              sload\n              dup2\n              lt\n              tag_93\n              jumpi\n              tag_94\n              tag_95\n              jump\t// in\n            tag_94:\n            tag_93:\n              swap1\n              0x00\n              mstore\n              keccak256(0x00, 0x20)\n              swap1\n              0x03\n              mul\n              add\n                /* \"Story.sol\":1572:1601  requestsToJoin[_index].author */\n              0x02\n              add\n              0x00\n              swap1\n              sload\n              swap1\n              0x0100\n              exp\n              swap1\n              div\n              0xffffffffffffffffffffffffffffffffffffffff\n              and\n                /* \"Story.sol\":1553:1602  authorsForSolidity[requestsToJoin[_index].author] */\n              0xffffffffffffffffffffffffffffffffffffffff\n              and\n              0xffffffffffffffffffffffffffffffffffffffff\n              and\n              dup2\n              mstore\n              0x20\n              add\n              swap1\n              dup2\n              mstore\n              0x20\n              add\n              0x00\n              keccak256\n              0x00\n              swap1\n              sload\n              swap1\n              0x0100\n              exp\n              swap1\n              div\n              0xff\n              and\n                /* \"Story.sol\":1552:1602  !authorsForSolidity[requestsToJoin[_index].author] */\n              iszero\n                /* \"Story.sol\":1544:1671  require(!authorsForSolidity[requestsToJoin[_index].author], \"Author of the request is already included in the list of authors\") */\n              tag_97\n              jumpi\n              mload(0x40)\n              0x08c379a000000000000000000000000000000000000000000000000000000000\n              dup2\n              mstore\n              0x04\n              add\n              tag_98\n              swap1\n              tag_99\n              jump\t// in\n            tag_98:\n              mload(0x40)\n              dup1\n              swap2\n              sub\n              swap1\n              revert\n            tag_97:\n                /* \"Story.sol\":1684:1701  uint256 lastIndex */\n              0x00\n                /* \"Story.sol\":1728:1729  1 */\n              0x01\n                /* \"Story.sol\":1704:1718  requestsToJoin */\n              0x04\n                /* \"Story.sol\":1704:1725  requestsToJoin.length */\n              dup1\n              sload\n              swap1\n              pop\n                /* \"Story.sol\":1704:1729  requestsToJoin.length - 1 */\n              tag_100\n              swap2\n              swap1\n              tag_101\n              jump\t// in\n            tag_100:\n                /* \"Story.sol\":1684:1729  uint256 lastIndex = requestsToJoin.length - 1 */\n              swap1\n              pop\n                /* \"Story.sol\":1823:1855  RequestToJoin memory lastRequest */\n              0x00\n                /* \"Story.sol\":1858:1872  requestsToJoin */\n              0x04\n                /* \"Story.sol\":1873:1882  lastIndex */\n              dup3\n                /* \"Story.sol\":1858:1883  requestsToJoin[lastIndex] */\n              dup2\n              sload\n              dup2\n              lt\n              tag_102\n              jumpi\n              tag_103\n              tag_95\n              jump\t// in\n            tag_103:\n            tag_102:\n              swap1\n              0x00\n              mstore\n              keccak256(0x00, 0x20)\n              swap1\n              0x03\n              mul\n              add\n                /* \"Story.sol\":1823:1883  RequestToJoin memory lastRequest = requestsToJoin[lastIndex] */\n              mload(0x40)\n              dup1\n              0x60\n              add\n              0x40\n              mstore\n              swap1\n              dup2\n              0x00\n              dup3\n              add\n              dup1\n              sload\n              tag_105\n              swap1\n              tag_58\n              jump\t// in\n            tag_105:\n              dup1\n              0x1f\n              add\n              0x20\n              dup1\n              swap2\n              div\n              mul\n              0x20\n              add\n              mload(0x40)\n              swap1\n              dup2\n              add\n              0x40\n              mstore\n              dup1\n              swap3\n              swap2\n              swap1\n              dup2\n              dup2\n              mstore\n              0x20\n              add\n              dup3\n              dup1\n              sload\n              tag_106\n              swap1\n              tag_58\n              jump\t// in\n            tag_106:\n              dup1\n              iszero\n              tag_107\n              jumpi\n              dup1\n              0x1f\n              lt\n              tag_108\n              jumpi\n              0x0100\n              dup1\n              dup4\n              sload\n              div\n              mul\n              dup4\n              mstore\n              swap2\n              0x20\n              add\n              swap2\n              jump(tag_107)\n            tag_108:\n              dup3\n              add\n              swap2\n              swap1\n              0x00\n              mstore\n              keccak256(0x00, 0x20)\n              swap1\n            tag_109:\n              dup2\n              sload\n              dup2\n              mstore\n              swap1\n              0x01\n              add\n              swap1\n              0x20\n              add\n              dup1\n              dup4\n              gt\n              tag_109\n              jumpi\n              dup3\n              swap1\n              sub\n              0x1f\n              and\n              dup3\n              add\n              swap2\n            tag_107:\n              pop\n              pop\n              pop\n              pop\n              pop\n              dup2\n              mstore\n              0x20\n              add\n              0x01\n              dup3\n              add\n              sload\n              dup2\n              mstore\n              0x20\n              add\n              0x02\n              dup3\n              add\n              0x00\n              swap1\n              sload\n              swap1\n              0x0100\n              exp\n              swap1\n              div\n              0xffffffffffffffffffffffffffffffffffffffff\n              and\n              0xffffffffffffffffffffffffffffffffffffffff\n              and\n              0xffffffffffffffffffffffffffffffffffffffff\n              and\n              dup2\n              mstore\n              pop\n              pop\n              swap1\n              pop\n                /* \"Story.sol\":1919:1930  lastRequest */\n              dup1\n                /* \"Story.sol\":1894:1908  requestsToJoin */\n              0x04\n                /* \"Story.sol\":1909:1915  _index */\n              dup5\n                /* \"Story.sol\":1894:1916  requestsToJoin[_index] */\n              dup2\n              sload\n              dup2\n              lt\n              tag_110\n              jumpi\n              tag_111\n              tag_95\n              jump\t// in\n            tag_111:\n            tag_110:\n              swap1\n              0x00\n              mstore\n              keccak256(0x00, 0x20)\n              swap1\n              0x03\n              mul\n              add\n                /* \"Story.sol\":1894:1930  requestsToJoin[_index] = lastRequest */\n              0x00\n              dup3\n              add\n              mload\n              dup2\n              0x00\n              add\n              swap1\n              dup1\n              mload\n              swap1\n              0x20\n              add\n              swap1\n              tag_113\n              swap3\n              swap2\n              swap1\n              tag_114\n              jump\t// in\n            tag_113:\n              pop\n              0x20\n              dup3\n              add\n              mload\n              dup2\n              0x01\n              add\n              sstore\n              0x40\n              dup3\n              add\n              mload\n              dup2\n              0x02\n              add\n              exp(0x0100, 0x00)\n              dup2\n              sload\n              dup2\n              0xffffffffffffffffffffffffffffffffffffffff\n              mul\n              not\n              and\n              swap1\n              dup4\n              0xffffffffffffffffffffffffffffffffffffffff\n              and\n              mul\n              or\n              swap1\n              sstore\n              pop\n              swap1\n              pop\n              pop\n                /* \"Story.sol\":2006:2020  requestsToJoin */\n              0x04\n                /* \"Story.sol\":2006:2026  requestsToJoin.pop() */\n              dup1\n              sload\n              dup1\n              tag_115\n              jumpi\n              tag_116\n              tag_117\n              jump\t// in\n            tag_116:\n            tag_115:\n              0x01\n              swap1\n              sub\n              dup2\n              dup2\n              swap1\n              0x00\n              mstore\n              keccak256(0x00, 0x20)\n              swap1\n              0x03\n              mul\n              add\n              0x00\n              dup1\n              dup3\n              add\n              0x00\n              tag_119\n              swap2\n              swap1\n              tag_120\n              jump\t// in\n            tag_119:\n              0x01\n              dup3\n              add\n              0x00\n              swap1\n              sstore\n              0x02\n              dup3\n              add\n              exp(0x0100, 0x00)\n              dup2\n              sload\n              swap1\n              0xffffffffffffffffffffffffffffffffffffffff\n              mul\n              not\n              and\n              swap1\n              sstore\n              pop\n              pop\n              swap1\n              sstore\n                /* \"Story.sol\":2129:2133  true */\n              0x01\n                /* \"Story.sol\":2088:2106  authorsForSolidity */\n              0x02\n                /* \"Story.sol\":2088:2126  authorsForSolidity[lastRequest.author] */\n              0x00\n                /* \"Story.sol\":2107:2118  lastRequest */\n              dup4\n                /* \"Story.sol\":2107:2125  lastRequest.author */\n              0x40\n              add\n              mload\n                /* \"Story.sol\":2088:2126  authorsForSolidity[lastRequest.author] */\n              0xffffffffffffffffffffffffffffffffffffffff\n              and\n              0xffffffffffffffffffffffffffffffffffffffff\n              and\n              dup2\n              mstore\n              0x20\n              add\n              swap1\n              dup2\n              mstore\n              0x20\n              add\n              0x00\n              keccak256\n              0x00\n                /* \"Story.sol\":2088:2133  authorsForSolidity[lastRequest.author] = true */\n              0x0100\n              exp\n              dup2\n              sload\n              dup2\n              0xff\n              mul\n              not\n              and\n              swap1\n              dup4\n              iszero\n              iszero\n              mul\n              or\n              swap1\n              sstore\n              pop\n                /* \"Story.sol\":2144:2159  authorsForReact */\n              0x03\n                /* \"Story.sol\":2165:2176  lastRequest */\n              dup2\n                /* \"Story.sol\":2165:2183  lastRequest.author */\n              0x40\n              add\n              mload\n                /* \"Story.sol\":2144:2184  authorsForReact.push(lastRequest.author) */\n              swap1\n              dup1\n              0x01\n              dup2\n              sload\n              add\n              dup1\n              dup3\n              sstore\n              dup1\n              swap2\n              pop\n              pop\n              0x01\n              swap1\n              sub\n              swap1\n              0x00\n              mstore\n              keccak256(0x00, 0x20)\n              add\n              0x00\n              swap1\n              swap2\n              swap1\n              swap2\n              swap1\n              swap2\n              0x0100\n              exp\n              dup2\n              sload\n              dup2\n              0xffffffffffffffffffffffffffffffffffffffff\n              mul\n              not\n              and\n              swap1\n              dup4\n              0xffffffffffffffffffffffffffffffffffffffff\n              and\n              mul\n              or\n              swap1\n              sstore\n              pop\n                /* \"Story.sol\":1434:2192  {... */\n              pop\n              pop\n                /* \"Story.sol\":1381:2192  function approveRequestToJoin(uint256 _index) public {... */\n              pop\n              jump\t// out\n                /* \"Story.sol\":577:609  address[] public authorsForReact */\n            tag_38:\n              0x03\n              dup2\n              dup2\n              sload\n              dup2\n              lt\n              tag_122\n              jumpi\n              0x00\n              dup1\n              revert\n            tag_122:\n              swap1\n              0x00\n              mstore\n              keccak256(0x00, 0x20)\n              add\n              0x00\n              swap2\n              pop\n              sload\n              swap1\n              0x0100\n              exp\n              swap1\n              div\n              0xffffffffffffffffffffffffffffffffffffffff\n              and\n              dup2\n              jump\t// out\n                /* \"Story.sol\":485:513  string[] public storyStrings */\n            tag_43:\n              0x01\n              dup2\n              dup2\n              sload\n              dup2\n              lt\n              tag_124\n              jumpi\n              0x00\n              dup1\n              revert\n            tag_124:\n              swap1\n              0x00\n              mstore\n              keccak256(0x00, 0x20)\n              add\n              0x00\n              swap2\n              pop\n              swap1\n              pop\n              dup1\n              sload\n              tag_126\n              swap1\n              tag_58\n              jump\t// in\n            tag_126:\n              dup1\n              0x1f\n              add\n              0x20\n              dup1\n              swap2\n              div\n              mul\n              0x20\n              add\n              mload(0x40)\n              swap1\n              dup2\n              add\n              0x40\n              mstore\n              dup1\n              swap3\n              swap2\n              swap1\n              dup2\n              dup2\n              mstore\n              0x20\n              add\n              dup3\n              dup1\n              sload\n              tag_127\n              swap1\n              tag_58\n              jump\t// in\n            tag_127:\n              dup1\n              iszero\n              tag_128\n              jumpi\n              dup1\n              0x1f\n              lt\n              tag_129\n              jumpi\n              0x0100\n              dup1\n              dup4\n              sload\n              div\n              mul\n              dup4\n              mstore\n              swap2\n              0x20\n              add\n              swap2\n              jump(tag_128)\n            tag_129:\n              dup3\n              add\n              swap2\n              swap1\n              0x00\n              mstore\n              keccak256(0x00, 0x20)\n              swap1\n            tag_130:\n              dup2\n              sload\n              dup2\n              mstore\n              swap1\n              0x01\n              add\n              swap1\n              0x20\n              add\n              dup1\n              dup4\n              gt\n              tag_130\n              jumpi\n              dup3\n              swap1\n              sub\n              0x1f\n              and\n              dup3\n              add\n              swap2\n            tag_128:\n              pop\n              pop\n              pop\n              pop\n              pop\n              dup2\n              jump\t// out\n                /* \"Story.sol\":980:1373  function createRequestToJoin(string memory _proposal) public {... */\n            tag_49:\n                /* \"Story.sol\":1061:1079  authorsForSolidity */\n              0x02\n                /* \"Story.sol\":1061:1091  authorsForSolidity[msg.sender] */\n              0x00\n                /* \"Story.sol\":1080:1090  msg.sender */\n              caller\n                /* \"Story.sol\":1061:1091  authorsForSolidity[msg.sender] */\n              0xffffffffffffffffffffffffffffffffffffffff\n              and\n              0xffffffffffffffffffffffffffffffffffffffff\n              and\n              dup2\n              mstore\n              0x20\n              add\n              swap1\n              dup2\n              mstore\n              0x20\n              add\n              0x00\n              keccak256\n              0x00\n              swap1\n              sload\n              swap1\n              0x0100\n              exp\n              swap1\n              div\n              0xff\n              and\n                /* \"Story.sol\":1060:1091  !authorsForSolidity[msg.sender] */\n              iszero\n                /* \"Story.sol\":1052:1140  require(!authorsForSolidity[msg.sender], \"Author already exists in the list of authors\") */\n              tag_132\n              jumpi\n              mload(0x40)\n              0x08c379a000000000000000000000000000000000000000000000000000000000\n              dup2\n              mstore\n              0x04\n              add\n              tag_133\n              swap1\n              tag_134\n              jump\t// in\n            tag_133:\n              mload(0x40)\n              dup1\n              swap2\n              sub\n              swap1\n              revert\n            tag_132:\n                /* \"Story.sol\":1153:1184  RequestToJoin memory newRequest */\n              0x00\n                /* \"Story.sol\":1187:1321  RequestToJoin({... */\n              mload(0x40)\n              dup1\n              0x60\n              add\n              0x40\n              mstore\n              dup1\n                /* \"Story.sol\":1226:1235  _proposal */\n              dup4\n                /* \"Story.sol\":1187:1321  RequestToJoin({... */\n              dup2\n              mstore\n              0x20\n              add\n                /* \"Story.sol\":1261:1276  block.timestamp */\n              timestamp\n                /* \"Story.sol\":1187:1321  RequestToJoin({... */\n              dup2\n              mstore\n              0x20\n              add\n                /* \"Story.sol\":1299:1309  msg.sender */\n              caller\n                /* \"Story.sol\":1187:1321  RequestToJoin({... */\n              0xffffffffffffffffffffffffffffffffffffffff\n              and\n              dup2\n              mstore\n              pop\n                /* \"Story.sol\":1153:1321  RequestToJoin memory newRequest = RequestToJoin({... */\n              swap1\n              pop\n                /* \"Story.sol\":1334:1348  requestsToJoin */\n              0x04\n                /* \"Story.sol\":1354:1364  newRequest */\n              dup2\n                /* \"Story.sol\":1334:1365  requestsToJoin.push(newRequest) */\n              swap1\n              dup1\n              0x01\n              dup2\n              sload\n              add\n              dup1\n              dup3\n              sstore\n              dup1\n              swap2\n              pop\n              pop\n              0x01\n              swap1\n              sub\n              swap1\n              0x00\n              mstore\n              keccak256(0x00, 0x20)\n              swap1\n              0x03\n              mul\n              add\n              0x00\n              swap1\n              swap2\n              swap1\n              swap2\n              swap1\n              swap2\n              pop\n              0x00\n              dup3\n              add\n              mload\n              dup2\n              0x00\n              add\n              swap1\n              dup1\n              mload\n              swap1\n              0x20\n              add\n              swap1\n              tag_136\n              swap3\n              swap2\n              swap1\n              tag_114\n              jump\t// in\n            tag_136:\n              pop\n              0x20\n              dup3\n              add\n              mload\n              dup2\n              0x01\n              add\n              sstore\n              0x40\n              dup3\n              add\n              mload\n              dup2\n              0x02\n              add\n              exp(0x0100, 0x00)\n              dup2\n              sload\n              dup2\n              0xffffffffffffffffffffffffffffffffffffffff\n              mul\n              not\n              and\n              swap1\n              dup4\n              0xffffffffffffffffffffffffffffffffffffffff\n              and\n              mul\n              or\n              swap1\n              sstore\n              pop\n              pop\n              pop\n                /* \"Story.sol\":1041:1373  {... */\n              pop\n                /* \"Story.sol\":980:1373  function createRequestToJoin(string memory _proposal) public {... */\n              pop\n              jump\t// out\n                /* \"Story.sol\":2202:2396  function addChapter(string memory _chapter) public {... */\n            tag_52:\n                /* \"Story.sol\":2272:2290  authorsForSolidity */\n              0x02\n                /* \"Story.sol\":2272:2302  authorsForSolidity[msg.sender] */\n              0x00\n                /* \"Story.sol\":2291:2301  msg.sender */\n              caller\n                /* \"Story.sol\":2272:2302  authorsForSolidity[msg.sender] */\n              0xffffffffffffffffffffffffffffffffffffffff\n              and\n              0xffffffffffffffffffffffffffffffffffffffff\n              and\n              dup2\n              mstore\n              0x20\n              add\n              swap1\n              dup2\n              mstore\n              0x20\n              add\n              0x00\n              keccak256\n              0x00\n              swap1\n              sload\n              swap1\n              0x0100\n              exp\n              swap1\n              div\n              0xff\n              and\n                /* \"Story.sol\":2264:2348  require(authorsForSolidity[msg.sender], \"Only an accepted author can add a chapter\") */\n              tag_138\n              jumpi\n              mload(0x40)\n              0x08c379a000000000000000000000000000000000000000000000000000000000\n              dup2\n              mstore\n              0x04\n              add\n              tag_139\n              swap1\n              tag_140\n              jump\t// in\n            tag_139:\n              mload(0x40)\n              dup1\n              swap2\n              sub\n              swap1\n              revert\n            tag_138:\n                /* \"Story.sol\":2361:2373  storyStrings */\n              0x01\n                /* \"Story.sol\":2379:2387  _chapter */\n              dup2\n                /* \"Story.sol\":2361:2388  storyStrings.push(_chapter) */\n              swap1\n              dup1\n              0x01\n              dup2\n              sload\n              add\n              dup1\n              dup3\n              sstore\n              dup1\n              swap2\n              pop\n              pop\n              0x01\n              swap1\n              sub\n              swap1\n              0x00\n              mstore\n              keccak256(0x00, 0x20)\n              add\n              0x00\n              swap1\n              swap2\n              swap1\n              swap2\n              swap1\n              swap2\n              pop\n              swap1\n              dup1\n              mload\n              swap1\n              0x20\n              add\n              swap1\n              tag_142\n              swap3\n              swap2\n              swap1\n              tag_114\n              jump\t// in\n            tag_142:\n              pop\n                /* \"Story.sol\":2202:2396  function addChapter(string memory _chapter) public {... */\n              pop\n              jump\t// out\n                /* \"Story.sol\":456:478  string public mainIdea */\n            tag_54:\n              0x00\n              dup1\n              sload\n              tag_143\n              swap1\n              tag_58\n              jump\t// in\n            tag_143:\n              dup1\n              0x1f\n              add\n              0x20\n              dup1\n              swap2\n              div\n              mul\n              0x20\n              add\n              mload(0x40)\n              swap1\n              dup2\n              add\n              0x40\n              mstore\n              dup1\n              swap3\n              swap2\n              swap1\n              dup2\n              dup2\n              mstore\n              0x20\n              add\n              dup3\n              dup1\n              sload\n              tag_144\n              swap1\n              tag_58\n              jump\t// in\n            tag_144:\n              dup1\n              iszero\n              tag_145\n              jumpi\n              dup1\n              0x1f\n              lt\n              tag_146\n              jumpi\n              0x0100\n              dup1\n              dup4\n              sload\n              div\n              mul\n              dup4\n              mstore\n              swap2\n              0x20\n              add\n              swap2\n              jump(tag_145)\n            tag_146:\n              dup3\n              add\n              swap2\n              swap1\n              0x00\n              mstore\n              keccak256(0x00, 0x20)\n              swap1\n            tag_147:\n              dup2\n              sload\n              dup2\n              mstore\n              swap1\n              0x01\n              add\n              swap1\n              0x20\n              add\n              dup1\n              dup4\n              gt\n              tag_147\n              jumpi\n              dup3\n              swap1\n              sub\n              0x1f\n              and\n              dup3\n              add\n              swap2\n            tag_145:\n              pop\n              pop\n              pop\n              pop\n              pop\n              dup2\n              jump\t// out\n            tag_114:\n              dup3\n              dup1\n              sload\n              tag_148\n              swap1\n              tag_58\n              jump\t// in\n            tag_148:\n              swap1\n              0x00\n              mstore\n              keccak256(0x00, 0x20)\n              swap1\n              0x1f\n              add\n              0x20\n              swap1\n              div\n              dup2\n              add\n              swap3\n              dup3\n              tag_150\n              jumpi\n              0x00\n              dup6\n              sstore\n              jump(tag_149)\n            tag_150:\n              dup3\n              0x1f\n              lt\n              tag_151\n              jumpi\n              dup1\n              mload\n              not(0xff)\n              and\n              dup4\n              dup1\n              add\n              or\n              dup6\n              sstore\n              jump(tag_149)\n            tag_151:\n              dup3\n              dup1\n              add\n              0x01\n              add\n              dup6\n              sstore\n              dup3\n              iszero\n              tag_149\n              jumpi\n              swap2\n              dup3\n              add\n            tag_152:\n              dup3\n              dup2\n              gt\n              iszero\n              tag_153\n              jumpi\n              dup3\n              mload\n              dup3\n              sstore\n              swap2\n              0x20\n              add\n              swap2\n              swap1\n              0x01\n              add\n              swap1\n              jump(tag_152)\n            tag_153:\n            tag_149:\n              pop\n              swap1\n              pop\n              tag_154\n              swap2\n              swap1\n              tag_155\n              jump\t// in\n            tag_154:\n              pop\n              swap1\n              jump\t// out\n            tag_120:\n              pop\n              dup1\n              sload\n              tag_156\n              swap1\n              tag_58\n              jump\t// in\n            tag_156:\n              0x00\n              dup3\n              sstore\n              dup1\n              0x1f\n              lt\n              tag_158\n              jumpi\n              pop\n              jump(tag_157)\n            tag_158:\n              0x1f\n              add\n              0x20\n              swap1\n              div\n              swap1\n              0x00\n              mstore\n              keccak256(0x00, 0x20)\n              swap1\n              dup2\n              add\n              swap1\n              tag_159\n              swap2\n              swap1\n              tag_155\n              jump\t// in\n            tag_159:\n            tag_157:\n              pop\n              jump\t// out\n            tag_155:\n            tag_160:\n              dup1\n              dup3\n              gt\n              iszero\n              tag_161\n              jumpi\n              0x00\n              dup2\n              0x00\n              swap1\n              sstore\n              pop\n              0x01\n              add\n              jump(tag_160)\n            tag_161:\n              pop\n              swap1\n              jump\t// out\n                /* \"#utility.yul\":7:82   */\n            tag_162:\n                /* \"#utility.yul\":40:46   */\n              0x00\n                /* \"#utility.yul\":73:75   */\n              0x40\n                /* \"#utility.yul\":67:76   */\n              mload\n                /* \"#utility.yul\":57:76   */\n              swap1\n              pop\n                /* \"#utility.yul\":7:82   */\n              swap1\n              jump\t// out\n                /* \"#utility.yul\":88:205   */\n            tag_163:\n                /* \"#utility.yul\":197:198   */\n              0x00\n                /* \"#utility.yul\":194:195   */\n              dup1\n                /* \"#utility.yul\":187:199   */\n              revert\n                /* \"#utility.yul\":211:328   */\n            tag_164:\n                /* \"#utility.yul\":320:321   */\n              0x00\n                /* \"#utility.yul\":317:318   */\n              dup1\n                /* \"#utility.yul\":310:322   */\n              revert\n                /* \"#utility.yul\":334:460   */\n            tag_165:\n                /* \"#utility.yul\":371:378   */\n              0x00\n                /* \"#utility.yul\":411:453   */\n              0xffffffffffffffffffffffffffffffffffffffff\n                /* \"#utility.yul\":404:409   */\n              dup3\n                /* \"#utility.yul\":400:454   */\n              and\n                /* \"#utility.yul\":389:454   */\n              swap1\n              pop\n                /* \"#utility.yul\":334:460   */\n              swap2\n              swap1\n              pop\n              jump\t// out\n                /* \"#utility.yul\":466:562   */\n            tag_166:\n                /* \"#utility.yul\":503:510   */\n              0x00\n                /* \"#utility.yul\":532:556   */\n              tag_229\n                /* \"#utility.yul\":550:555   */\n              dup3\n                /* \"#utility.yul\":532:556   */\n              tag_165\n              jump\t// in\n            tag_229:\n                /* \"#utility.yul\":521:556   */\n              swap1\n              pop\n                /* \"#utility.yul\":466:562   */\n              swap2\n              swap1\n              pop\n              jump\t// out\n                /* \"#utility.yul\":568:690   */\n            tag_167:\n                /* \"#utility.yul\":641:665   */\n              tag_231\n                /* \"#utility.yul\":659:664   */\n              dup2\n                /* \"#utility.yul\":641:665   */\n              tag_166\n              jump\t// in\n            tag_231:\n                /* \"#utility.yul\":634:639   */\n              dup2\n                /* \"#utility.yul\":631:666   */\n              eq\n                /* \"#utility.yul\":621:684   */\n              tag_232\n              jumpi\n                /* \"#utility.yul\":680:681   */\n              0x00\n                /* \"#utility.yul\":677:678   */\n              dup1\n                /* \"#utility.yul\":670:682   */\n              revert\n                /* \"#utility.yul\":621:684   */\n            tag_232:\n                /* \"#utility.yul\":568:690   */\n              pop\n              jump\t// out\n                /* \"#utility.yul\":696:835   */\n            tag_168:\n                /* \"#utility.yul\":742:747   */\n              0x00\n                /* \"#utility.yul\":780:786   */\n              dup2\n                /* \"#utility.yul\":767:787   */\n              calldataload\n                /* \"#utility.yul\":758:787   */\n              swap1\n              pop\n                /* \"#utility.yul\":796:829   */\n              tag_234\n                /* \"#utility.yul\":823:828   */\n              dup2\n                /* \"#utility.yul\":796:829   */\n              tag_167\n              jump\t// in\n            tag_234:\n                /* \"#utility.yul\":696:835   */\n              swap3\n              swap2\n              pop\n              pop\n              jump\t// out\n                /* \"#utility.yul\":841:1170   */\n            tag_16:\n                /* \"#utility.yul\":900:906   */\n              0x00\n                /* \"#utility.yul\":949:951   */\n              0x20\n                /* \"#utility.yul\":937:946   */\n              dup3\n                /* \"#utility.yul\":928:935   */\n              dup5\n                /* \"#utility.yul\":924:947   */\n              sub\n                /* \"#utility.yul\":920:952   */\n              slt\n                /* \"#utility.yul\":917:1036   */\n              iszero\n              tag_236\n              jumpi\n                /* \"#utility.yul\":955:1034   */\n              tag_237\n              tag_163\n              jump\t// in\n            tag_237:\n                /* \"#utility.yul\":917:1036   */\n            tag_236:\n                /* \"#utility.yul\":1075:1076   */\n              0x00\n                /* \"#utility.yul\":1100:1153   */\n              tag_238\n                /* \"#utility.yul\":1145:1152   */\n              dup5\n                /* \"#utility.yul\":1136:1142   */\n              dup3\n                /* \"#utility.yul\":1125:1134   */\n              dup6\n                /* \"#utility.yul\":1121:1143   */\n              add\n                /* \"#utility.yul\":1100:1153   */\n              tag_168\n              jump\t// in\n            tag_238:\n                /* \"#utility.yul\":1090:1153   */\n              swap2\n              pop\n                /* \"#utility.yul\":1046:1163   */\n              pop\n                /* \"#utility.yul\":841:1170   */\n              swap3\n              swap2\n              pop\n              pop\n              jump\t// out\n                /* \"#utility.yul\":1176:1266   */\n            tag_169:\n                /* \"#utility.yul\":1210:1217   */\n              0x00\n                /* \"#utility.yul\":1253:1258   */\n              dup2\n                /* \"#utility.yul\":1246:1259   */\n              iszero\n                /* \"#utility.yul\":1239:1260   */\n              iszero\n                /* \"#utility.yul\":1228:1260   */\n              swap1\n              pop\n                /* \"#utility.yul\":1176:1266   */\n              swap2\n              swap1\n              pop\n              jump\t// out\n                /* \"#utility.yul\":1272:1381   */\n            tag_170:\n                /* \"#utility.yul\":1353:1374   */\n              tag_241\n                /* \"#utility.yul\":1368:1373   */\n              dup2\n                /* \"#utility.yul\":1353:1374   */\n              tag_169\n              jump\t// in\n            tag_241:\n                /* \"#utility.yul\":1348:1351   */\n              dup3\n                /* \"#utility.yul\":1341:1375   */\n              mstore\n                /* \"#utility.yul\":1272:1381   */\n              pop\n              pop\n              jump\t// out\n                /* \"#utility.yul\":1387:1597   */\n            tag_19:\n                /* \"#utility.yul\":1474:1478   */\n              0x00\n                /* \"#utility.yul\":1512:1514   */\n              0x20\n                /* \"#utility.yul\":1501:1510   */\n              dup3\n                /* \"#utility.yul\":1497:1515   */\n              add\n                /* \"#utility.yul\":1489:1515   */\n              swap1\n              pop\n                /* \"#utility.yul\":1525:1590   */\n              tag_243\n                /* \"#utility.yul\":1587:1588   */\n              0x00\n                /* \"#utility.yul\":1576:1585   */\n              dup4\n                /* \"#utility.yul\":1572:1589   */\n              add\n                /* \"#utility.yul\":1563:1569   */\n              dup5\n                /* \"#utility.yul\":1525:1590   */\n              tag_170\n              jump\t// in\n            tag_243:\n                /* \"#utility.yul\":1387:1597   */\n              swap3\n              swap2\n              pop\n              pop\n              jump\t// out\n                /* \"#utility.yul\":1603:1702   */\n            tag_171:\n                /* \"#utility.yul\":1655:1661   */\n              0x00\n                /* \"#utility.yul\":1689:1694   */\n              dup2\n                /* \"#utility.yul\":1683:1695   */\n              mload\n                /* \"#utility.yul\":1673:1695   */\n              swap1\n              pop\n                /* \"#utility.yul\":1603:1702   */\n              swap2\n              swap1\n              pop\n              jump\t// out\n                /* \"#utility.yul\":1708:1877   */\n            tag_172:\n                /* \"#utility.yul\":1792:1803   */\n              0x00\n                /* \"#utility.yul\":1826:1832   */\n              dup3\n                /* \"#utility.yul\":1821:1824   */\n              dup3\n                /* \"#utility.yul\":1814:1833   */\n              mstore\n                /* \"#utility.yul\":1866:1870   */\n              0x20\n                /* \"#utility.yul\":1861:1864   */\n              dup3\n                /* \"#utility.yul\":1857:1871   */\n              add\n                /* \"#utility.yul\":1842:1871   */\n              swap1\n              pop\n                /* \"#utility.yul\":1708:1877   */\n              swap3\n              swap2\n              pop\n              pop\n              jump\t// out\n                /* \"#utility.yul\":1883:2190   */\n            tag_173:\n                /* \"#utility.yul\":1951:1952   */\n              0x00\n                /* \"#utility.yul\":1961:2074   */\n            tag_247:\n                /* \"#utility.yul\":1975:1981   */\n              dup4\n                /* \"#utility.yul\":1972:1973   */\n              dup2\n                /* \"#utility.yul\":1969:1982   */\n              lt\n                /* \"#utility.yul\":1961:2074   */\n              iszero\n              tag_249\n              jumpi\n                /* \"#utility.yul\":2060:2061   */\n              dup1\n                /* \"#utility.yul\":2055:2058   */\n              dup3\n                /* \"#utility.yul\":2051:2062   */\n              add\n                /* \"#utility.yul\":2045:2063   */\n              mload\n                /* \"#utility.yul\":2041:2042   */\n              dup2\n                /* \"#utility.yul\":2036:2039   */\n              dup5\n                /* \"#utility.yul\":2032:2043   */\n              add\n                /* \"#utility.yul\":2025:2064   */\n              mstore\n                /* \"#utility.yul\":1997:1999   */\n              0x20\n                /* \"#utility.yul\":1994:1995   */\n              dup2\n                /* \"#utility.yul\":1990:2000   */\n              add\n                /* \"#utility.yul\":1985:2000   */\n              swap1\n              pop\n                /* \"#utility.yul\":1961:2074   */\n              jump(tag_247)\n            tag_249:\n                /* \"#utility.yul\":2092:2098   */\n              dup4\n                /* \"#utility.yul\":2089:2090   */\n              dup2\n                /* \"#utility.yul\":2086:2099   */\n              gt\n                /* \"#utility.yul\":2083:2184   */\n              iszero\n              tag_250\n              jumpi\n                /* \"#utility.yul\":2172:2173   */\n              0x00\n                /* \"#utility.yul\":2163:2169   */\n              dup5\n                /* \"#utility.yul\":2158:2161   */\n              dup5\n                /* \"#utility.yul\":2154:2170   */\n              add\n                /* \"#utility.yul\":2147:2174   */\n              mstore\n                /* \"#utility.yul\":2083:2184   */\n            tag_250:\n                /* \"#utility.yul\":1932:2190   */\n              pop\n                /* \"#utility.yul\":1883:2190   */\n              pop\n              pop\n              pop\n              jump\t// out\n                /* \"#utility.yul\":2196:2298   */\n            tag_174:\n                /* \"#utility.yul\":2237:2243   */\n              0x00\n                /* \"#utility.yul\":2288:2290   */\n              0x1f\n                /* \"#utility.yul\":2284:2291   */\n              not\n                /* \"#utility.yul\":2279:2281   */\n              0x1f\n                /* \"#utility.yul\":2272:2277   */\n              dup4\n                /* \"#utility.yul\":2268:2282   */\n              add\n                /* \"#utility.yul\":2264:2292   */\n              and\n                /* \"#utility.yul\":2254:2292   */\n              swap1\n              pop\n                /* \"#utility.yul\":2196:2298   */\n              swap2\n              swap1\n              pop\n              jump\t// out\n                /* \"#utility.yul\":2304:2668   */\n            tag_175:\n                /* \"#utility.yul\":2392:2395   */\n              0x00\n                /* \"#utility.yul\":2420:2459   */\n              tag_253\n                /* \"#utility.yul\":2453:2458   */\n              dup3\n                /* \"#utility.yul\":2420:2459   */\n              tag_171\n              jump\t// in\n            tag_253:\n                /* \"#utility.yul\":2475:2546   */\n              tag_254\n                /* \"#utility.yul\":2539:2545   */\n              dup2\n                /* \"#utility.yul\":2534:2537   */\n              dup6\n                /* \"#utility.yul\":2475:2546   */\n              tag_172\n              jump\t// in\n            tag_254:\n                /* \"#utility.yul\":2468:2546   */\n              swap4\n              pop\n                /* \"#utility.yul\":2555:2607   */\n              tag_255\n                /* \"#utility.yul\":2600:2606   */\n              dup2\n                /* \"#utility.yul\":2595:2598   */\n              dup6\n                /* \"#utility.yul\":2588:2592   */\n              0x20\n                /* \"#utility.yul\":2581:2586   */\n              dup7\n                /* \"#utility.yul\":2577:2593   */\n              add\n                /* \"#utility.yul\":2555:2607   */\n              tag_173\n              jump\t// in\n            tag_255:\n                /* \"#utility.yul\":2632:2661   */\n              tag_256\n                /* \"#utility.yul\":2654:2660   */\n              dup2\n                /* \"#utility.yul\":2632:2661   */\n              tag_174\n              jump\t// in\n            tag_256:\n                /* \"#utility.yul\":2627:2630   */\n              dup5\n                /* \"#utility.yul\":2623:2662   */\n              add\n                /* \"#utility.yul\":2616:2662   */\n              swap2\n              pop\n                /* \"#utility.yul\":2396:2668   */\n              pop\n                /* \"#utility.yul\":2304:2668   */\n              swap3\n              swap2\n              pop\n              pop\n              jump\t// out\n                /* \"#utility.yul\":2674:2798   */\n            tag_176:\n                /* \"#utility.yul\":2751:2757   */\n              0x00\n                /* \"#utility.yul\":2785:2790   */\n              dup2\n                /* \"#utility.yul\":2779:2791   */\n              mload\n                /* \"#utility.yul\":2769:2791   */\n              swap1\n              pop\n                /* \"#utility.yul\":2674:2798   */\n              swap2\n              swap1\n              pop\n              jump\t// out\n                /* \"#utility.yul\":2804:2998   */\n            tag_177:\n                /* \"#utility.yul\":2913:2924   */\n              0x00\n                /* \"#utility.yul\":2947:2953   */\n              dup3\n                /* \"#utility.yul\":2942:2945   */\n              dup3\n                /* \"#utility.yul\":2935:2954   */\n              mstore\n                /* \"#utility.yul\":2987:2991   */\n              0x20\n                /* \"#utility.yul\":2982:2985   */\n              dup3\n                /* \"#utility.yul\":2978:2992   */\n              add\n                /* \"#utility.yul\":2963:2992   */\n              swap1\n              pop\n                /* \"#utility.yul\":2804:2998   */\n              swap3\n              swap2\n              pop\n              pop\n              jump\t// out\n                /* \"#utility.yul\":3004:3146   */\n            tag_178:\n                /* \"#utility.yul\":3081:3085   */\n              0x00\n                /* \"#utility.yul\":3104:3107   */\n              dup2\n                /* \"#utility.yul\":3096:3107   */\n              swap1\n              pop\n                /* \"#utility.yul\":3134:3138   */\n              0x20\n                /* \"#utility.yul\":3129:3132   */\n              dup3\n                /* \"#utility.yul\":3125:3139   */\n              add\n                /* \"#utility.yul\":3117:3139   */\n              swap1\n              pop\n                /* \"#utility.yul\":3004:3146   */\n              swap2\n              swap1\n              pop\n              jump\t// out\n                /* \"#utility.yul\":3152:3311   */\n            tag_179:\n                /* \"#utility.yul\":3226:3237   */\n              0x00\n                /* \"#utility.yul\":3260:3266   */\n              dup3\n                /* \"#utility.yul\":3255:3258   */\n              dup3\n                /* \"#utility.yul\":3248:3267   */\n              mstore\n                /* \"#utility.yul\":3300:3304   */\n              0x20\n                /* \"#utility.yul\":3295:3298   */\n              dup3\n                /* \"#utility.yul\":3291:3305   */\n              add\n                /* \"#utility.yul\":3276:3305   */\n              swap1\n              pop\n                /* \"#utility.yul\":3152:3311   */\n              swap3\n              swap2\n              pop\n              pop\n              jump\t// out\n                /* \"#utility.yul\":3317:3661   */\n            tag_180:\n                /* \"#utility.yul\":3395:3398   */\n              0x00\n                /* \"#utility.yul\":3423:3462   */\n              tag_262\n                /* \"#utility.yul\":3456:3461   */\n              dup3\n                /* \"#utility.yul\":3423:3462   */\n              tag_171\n              jump\t// in\n            tag_262:\n                /* \"#utility.yul\":3478:3539   */\n              tag_263\n                /* \"#utility.yul\":3532:3538   */\n              dup2\n                /* \"#utility.yul\":3527:3530   */\n              dup6\n                /* \"#utility.yul\":3478:3539   */\n              tag_179\n              jump\t// in\n            tag_263:\n                /* \"#utility.yul\":3471:3539   */\n              swap4\n              pop\n                /* \"#utility.yul\":3548:3600   */\n              tag_264\n                /* \"#utility.yul\":3593:3599   */\n              dup2\n                /* \"#utility.yul\":3588:3591   */\n              dup6\n                /* \"#utility.yul\":3581:3585   */\n              0x20\n                /* \"#utility.yul\":3574:3579   */\n              dup7\n                /* \"#utility.yul\":3570:3586   */\n              add\n                /* \"#utility.yul\":3548:3600   */\n              tag_173\n              jump\t// in\n            tag_264:\n                /* \"#utility.yul\":3625:3654   */\n              tag_265\n                /* \"#utility.yul\":3647:3653   */\n              dup2\n                /* \"#utility.yul\":3625:3654   */\n              tag_174\n              jump\t// in\n            tag_265:\n                /* \"#utility.yul\":3620:3623   */\n              dup5\n                /* \"#utility.yul\":3616:3655   */\n              add\n                /* \"#utility.yul\":3609:3655   */\n              swap2\n              pop\n                /* \"#utility.yul\":3399:3661   */\n              pop\n                /* \"#utility.yul\":3317:3661   */\n              swap3\n              swap2\n              pop\n              pop\n              jump\t// out\n                /* \"#utility.yul\":3667:3863   */\n            tag_181:\n                /* \"#utility.yul\":3756:3766   */\n              0x00\n                /* \"#utility.yul\":3791:3857   */\n              tag_267\n                /* \"#utility.yul\":3853:3856   */\n              dup4\n                /* \"#utility.yul\":3845:3851   */\n              dup4\n                /* \"#utility.yul\":3791:3857   */\n              tag_180\n              jump\t// in\n            tag_267:\n                /* \"#utility.yul\":3777:3857   */\n              swap1\n              pop\n                /* \"#utility.yul\":3667:3863   */\n              swap3\n              swap2\n              pop\n              pop\n              jump\t// out\n                /* \"#utility.yul\":3869:3992   */\n            tag_182:\n                /* \"#utility.yul\":3949:3953   */\n              0x00\n                /* \"#utility.yul\":3981:3985   */\n              0x20\n                /* \"#utility.yul\":3976:3979   */\n              dup3\n                /* \"#utility.yul\":3972:3986   */\n              add\n                /* \"#utility.yul\":3964:3986   */\n              swap1\n              pop\n                /* \"#utility.yul\":3869:3992   */\n              swap2\n              swap1\n              pop\n              jump\t// out\n                /* \"#utility.yul\":4026:5017   */\n            tag_183:\n                /* \"#utility.yul\":4165:4168   */\n              0x00\n                /* \"#utility.yul\":4194:4258   */\n              tag_270\n                /* \"#utility.yul\":4252:4257   */\n              dup3\n                /* \"#utility.yul\":4194:4258   */\n              tag_176\n              jump\t// in\n            tag_270:\n                /* \"#utility.yul\":4274:4370   */\n              tag_271\n                /* \"#utility.yul\":4363:4369   */\n              dup2\n                /* \"#utility.yul\":4358:4361   */\n              dup6\n                /* \"#utility.yul\":4274:4370   */\n              tag_177\n              jump\t// in\n            tag_271:\n                /* \"#utility.yul\":4267:4370   */\n              swap4\n              pop\n                /* \"#utility.yul\":4396:4399   */\n              dup4\n                /* \"#utility.yul\":4441:4445   */\n              0x20\n                /* \"#utility.yul\":4433:4439   */\n              dup3\n                /* \"#utility.yul\":4429:4446   */\n              mul\n                /* \"#utility.yul\":4424:4427   */\n              dup6\n                /* \"#utility.yul\":4420:4447   */\n              add\n                /* \"#utility.yul\":4471:4537   */\n              tag_272\n                /* \"#utility.yul\":4531:4536   */\n              dup6\n                /* \"#utility.yul\":4471:4537   */\n              tag_178\n              jump\t// in\n            tag_272:\n                /* \"#utility.yul\":4560:4567   */\n              dup1\n                /* \"#utility.yul\":4591:4592   */\n              0x00\n                /* \"#utility.yul\":4576:4972   */\n            tag_273:\n                /* \"#utility.yul\":4601:4607   */\n              dup6\n                /* \"#utility.yul\":4598:4599   */\n              dup2\n                /* \"#utility.yul\":4595:4608   */\n              lt\n                /* \"#utility.yul\":4576:4972   */\n              iszero\n              tag_275\n              jumpi\n                /* \"#utility.yul\":4672:4681   */\n              dup5\n                /* \"#utility.yul\":4666:4670   */\n              dup5\n                /* \"#utility.yul\":4662:4682   */\n              sub\n                /* \"#utility.yul\":4657:4660   */\n              dup10\n                /* \"#utility.yul\":4650:4683   */\n              mstore\n                /* \"#utility.yul\":4723:4729   */\n              dup2\n                /* \"#utility.yul\":4717:4730   */\n              mload\n                /* \"#utility.yul\":4751:4835   */\n              tag_276\n                /* \"#utility.yul\":4830:4834   */\n              dup6\n                /* \"#utility.yul\":4815:4828   */\n              dup3\n                /* \"#utility.yul\":4751:4835   */\n              tag_181\n              jump\t// in\n            tag_276:\n                /* \"#utility.yul\":4743:4835   */\n              swap5\n              pop\n                /* \"#utility.yul\":4858:4928   */\n              tag_277\n                /* \"#utility.yul\":4921:4927   */\n              dup4\n                /* \"#utility.yul\":4858:4928   */\n              tag_182\n              jump\t// in\n            tag_277:\n                /* \"#utility.yul\":4848:4928   */\n              swap3\n              pop\n                /* \"#utility.yul\":4957:4961   */\n              0x20\n                /* \"#utility.yul\":4952:4955   */\n              dup11\n                /* \"#utility.yul\":4948:4962   */\n              add\n                /* \"#utility.yul\":4941:4962   */\n              swap10\n              pop\n                /* \"#utility.yul\":4636:4972   */\n              pop\n                /* \"#utility.yul\":4623:4624   */\n              0x01\n                /* \"#utility.yul\":4620:4621   */\n              dup2\n                /* \"#utility.yul\":4616:4625   */\n              add\n                /* \"#utility.yul\":4611:4625   */\n              swap1\n              pop\n                /* \"#utility.yul\":4576:4972   */\n              jump(tag_273)\n            tag_275:\n                /* \"#utility.yul\":4580:4594   */\n              pop\n                /* \"#utility.yul\":4988:4992   */\n              dup3\n                /* \"#utility.yul\":4981:4992   */\n              swap8\n              pop\n                /* \"#utility.yul\":5008:5011   */\n              dup8\n                /* \"#utility.yul\":5001:5011   */\n              swap6\n              pop\n                /* \"#utility.yul\":4170:5017   */\n              pop\n              pop\n              pop\n              pop\n              pop\n                /* \"#utility.yul\":4026:5017   */\n              swap3\n              swap2\n              pop\n              pop\n              jump\t// out\n                /* \"#utility.yul\":5023:5137   */\n            tag_184:\n                /* \"#utility.yul\":5090:5096   */\n              0x00\n                /* \"#utility.yul\":5124:5129   */\n              dup2\n                /* \"#utility.yul\":5118:5130   */\n              mload\n                /* \"#utility.yul\":5108:5130   */\n              swap1\n              pop\n                /* \"#utility.yul\":5023:5137   */\n              swap2\n              swap1\n              pop\n              jump\t// out\n                /* \"#utility.yul\":5143:5327   */\n            tag_185:\n                /* \"#utility.yul\":5242:5253   */\n              0x00\n                /* \"#utility.yul\":5276:5282   */\n              dup3\n                /* \"#utility.yul\":5271:5274   */\n              dup3\n                /* \"#utility.yul\":5264:5283   */\n              mstore\n                /* \"#utility.yul\":5316:5320   */\n              0x20\n                /* \"#utility.yul\":5311:5314   */\n              dup3\n                /* \"#utility.yul\":5307:5321   */\n              add\n                /* \"#utility.yul\":5292:5321   */\n              swap1\n              pop\n                /* \"#utility.yul\":5143:5327   */\n              swap3\n              swap2\n              pop\n              pop\n              jump\t// out\n                /* \"#utility.yul\":5333:5465   */\n            tag_186:\n                /* \"#utility.yul\":5400:5404   */\n              0x00\n                /* \"#utility.yul\":5423:5426   */\n              dup2\n                /* \"#utility.yul\":5415:5426   */\n              swap1\n              pop\n                /* \"#utility.yul\":5453:5457   */\n              0x20\n                /* \"#utility.yul\":5448:5451   */\n              dup3\n                /* \"#utility.yul\":5444:5458   */\n              add\n                /* \"#utility.yul\":5436:5458   */\n              swap1\n              pop\n                /* \"#utility.yul\":5333:5465   */\n              swap2\n              swap1\n              pop\n              jump\t// out\n                /* \"#utility.yul\":5471:5579   */\n            tag_187:\n                /* \"#utility.yul\":5548:5572   */\n              tag_282\n                /* \"#utility.yul\":5566:5571   */\n              dup2\n                /* \"#utility.yul\":5548:5572   */\n              tag_166\n              jump\t// in\n            tag_282:\n                /* \"#utility.yul\":5543:5546   */\n              dup3\n                /* \"#utility.yul\":5536:5573   */\n              mstore\n                /* \"#utility.yul\":5471:5579   */\n              pop\n              pop\n              jump\t// out\n                /* \"#utility.yul\":5585:5764   */\n            tag_188:\n                /* \"#utility.yul\":5654:5664   */\n              0x00\n                /* \"#utility.yul\":5675:5721   */\n              tag_284\n                /* \"#utility.yul\":5717:5720   */\n              dup4\n                /* \"#utility.yul\":5709:5715   */\n              dup4\n                /* \"#utility.yul\":5675:5721   */\n              tag_187\n              jump\t// in\n            tag_284:\n                /* \"#utility.yul\":5753:5757   */\n              0x20\n                /* \"#utility.yul\":5748:5751   */\n              dup4\n                /* \"#utility.yul\":5744:5758   */\n              add\n                /* \"#utility.yul\":5730:5758   */\n              swap1\n              pop\n                /* \"#utility.yul\":5585:5764   */\n              swap3\n              swap2\n              pop\n              pop\n              jump\t// out\n                /* \"#utility.yul\":5770:5883   */\n            tag_189:\n                /* \"#utility.yul\":5840:5844   */\n              0x00\n                /* \"#utility.yul\":5872:5876   */\n              0x20\n                /* \"#utility.yul\":5867:5870   */\n              dup3\n                /* \"#utility.yul\":5863:5877   */\n              add\n                /* \"#utility.yul\":5855:5877   */\n              swap1\n              pop\n                /* \"#utility.yul\":5770:5883   */\n              swap2\n              swap1\n              pop\n              jump\t// out\n                /* \"#utility.yul\":5919:6651   */\n            tag_190:\n                /* \"#utility.yul\":6038:6041   */\n              0x00\n                /* \"#utility.yul\":6067:6121   */\n              tag_287\n                /* \"#utility.yul\":6115:6120   */\n              dup3\n                /* \"#utility.yul\":6067:6121   */\n              tag_184\n              jump\t// in\n            tag_287:\n                /* \"#utility.yul\":6137:6223   */\n              tag_288\n                /* \"#utility.yul\":6216:6222   */\n              dup2\n                /* \"#utility.yul\":6211:6214   */\n              dup6\n                /* \"#utility.yul\":6137:6223   */\n              tag_185\n              jump\t// in\n            tag_288:\n                /* \"#utility.yul\":6130:6223   */\n              swap4\n              pop\n                /* \"#utility.yul\":6247:6303   */\n              tag_289\n                /* \"#utility.yul\":6297:6302   */\n              dup4\n                /* \"#utility.yul\":6247:6303   */\n              tag_186\n              jump\t// in\n            tag_289:\n                /* \"#utility.yul\":6326:6333   */\n              dup1\n                /* \"#utility.yul\":6357:6358   */\n              0x00\n                /* \"#utility.yul\":6342:6626   */\n            tag_290:\n                /* \"#utility.yul\":6367:6373   */\n              dup4\n                /* \"#utility.yul\":6364:6365   */\n              dup2\n                /* \"#utility.yul\":6361:6374   */\n              lt\n                /* \"#utility.yul\":6342:6626   */\n              iszero\n              tag_292\n              jumpi\n                /* \"#utility.yul\":6443:6449   */\n              dup2\n                /* \"#utility.yul\":6437:6450   */\n              mload\n                /* \"#utility.yul\":6470:6533   */\n              tag_293\n                /* \"#utility.yul\":6529:6532   */\n              dup9\n                /* \"#utility.yul\":6514:6527   */\n              dup3\n                /* \"#utility.yul\":6470:6533   */\n              tag_188\n              jump\t// in\n            tag_293:\n                /* \"#utility.yul\":6463:6533   */\n              swap8\n              pop\n                /* \"#utility.yul\":6556:6616   */\n              tag_294\n                /* \"#utility.yul\":6609:6615   */\n              dup4\n                /* \"#utility.yul\":6556:6616   */\n              tag_189\n              jump\t// in\n            tag_294:\n                /* \"#utility.yul\":6546:6616   */\n              swap3\n              pop\n                /* \"#utility.yul\":6402:6626   */\n              pop\n                /* \"#utility.yul\":6389:6390   */\n              0x01\n                /* \"#utility.yul\":6386:6387   */\n              dup2\n                /* \"#utility.yul\":6382:6391   */\n              add\n                /* \"#utility.yul\":6377:6391   */\n              swap1\n              pop\n                /* \"#utility.yul\":6342:6626   */\n              jump(tag_290)\n            tag_292:\n                /* \"#utility.yul\":6346:6360   */\n              pop\n                /* \"#utility.yul\":6642:6645   */\n              dup6\n                /* \"#utility.yul\":6635:6645   */\n              swap4\n              pop\n                /* \"#utility.yul\":6043:6651   */\n              pop\n              pop\n              pop\n                /* \"#utility.yul\":5919:6651   */\n              swap3\n              swap2\n              pop\n              pop\n              jump\t// out\n                /* \"#utility.yul\":6657:6800   */\n            tag_191:\n                /* \"#utility.yul\":6753:6759   */\n              0x00\n                /* \"#utility.yul\":6787:6792   */\n              dup2\n                /* \"#utility.yul\":6781:6793   */\n              mload\n                /* \"#utility.yul\":6771:6793   */\n              swap1\n              pop\n                /* \"#utility.yul\":6657:6800   */\n              swap2\n              swap1\n              pop\n              jump\t// out\n                /* \"#utility.yul\":6806:7019   */\n            tag_192:\n                /* \"#utility.yul\":6934:6945   */\n              0x00\n                /* \"#utility.yul\":6968:6974   */\n              dup3\n                /* \"#utility.yul\":6963:6966   */\n              dup3\n                /* \"#utility.yul\":6956:6975   */\n              mstore\n                /* \"#utility.yul\":7008:7012   */\n              0x20\n                /* \"#utility.yul\":7003:7006   */\n              dup3\n                /* \"#utility.yul\":6999:7013   */\n              add\n                /* \"#utility.yul\":6984:7013   */\n              swap1\n              pop\n                /* \"#utility.yul\":6806:7019   */\n              swap3\n              swap2\n              pop\n              pop\n              jump\t// out\n                /* \"#utility.yul\":7025:7186   */\n            tag_193:\n                /* \"#utility.yul\":7121:7125   */\n              0x00\n                /* \"#utility.yul\":7144:7147   */\n              dup2\n                /* \"#utility.yul\":7136:7147   */\n              swap1\n              pop\n                /* \"#utility.yul\":7174:7178   */\n              0x20\n                /* \"#utility.yul\":7169:7172   */\n              dup3\n                /* \"#utility.yul\":7165:7179   */\n              add\n                /* \"#utility.yul\":7157:7179   */\n              swap1\n              pop\n                /* \"#utility.yul\":7025:7186   */\n              swap2\n              swap1\n              pop\n              jump\t// out\n                /* \"#utility.yul\":7192:7269   */\n            tag_194:\n                /* \"#utility.yul\":7229:7236   */\n              0x00\n                /* \"#utility.yul\":7258:7263   */\n              dup2\n                /* \"#utility.yul\":7247:7263   */\n              swap1\n              pop\n                /* \"#utility.yul\":7192:7269   */\n              swap2\n              swap1\n              pop\n              jump\t// out\n                /* \"#utility.yul\":7275:7383   */\n            tag_195:\n                /* \"#utility.yul\":7352:7376   */\n              tag_300\n                /* \"#utility.yul\":7370:7375   */\n              dup2\n                /* \"#utility.yul\":7352:7376   */\n              tag_194\n              jump\t// in\n            tag_300:\n                /* \"#utility.yul\":7347:7350   */\n              dup3\n                /* \"#utility.yul\":7340:7377   */\n              mstore\n                /* \"#utility.yul\":7275:7383   */\n              pop\n              pop\n              jump\t// out\n                /* \"#utility.yul\":7453:8242   */\n            tag_196:\n                /* \"#utility.yul\":7570:7573   */\n              0x00\n                /* \"#utility.yul\":7606:7610   */\n              0x60\n                /* \"#utility.yul\":7601:7604   */\n              dup4\n                /* \"#utility.yul\":7597:7611   */\n              add\n                /* \"#utility.yul\":7697:7701   */\n              0x00\n                /* \"#utility.yul\":7690:7695   */\n              dup4\n                /* \"#utility.yul\":7686:7702   */\n              add\n                /* \"#utility.yul\":7680:7703   */\n              mload\n                /* \"#utility.yul\":7750:7753   */\n              dup5\n                /* \"#utility.yul\":7744:7748   */\n              dup3\n                /* \"#utility.yul\":7740:7754   */\n              sub\n                /* \"#utility.yul\":7733:7737   */\n              0x00\n                /* \"#utility.yul\":7728:7731   */\n              dup7\n                /* \"#utility.yul\":7724:7738   */\n              add\n                /* \"#utility.yul\":7717:7755   */\n              mstore\n                /* \"#utility.yul\":7776:7849   */\n              tag_302\n                /* \"#utility.yul\":7844:7848   */\n              dup3\n                /* \"#utility.yul\":7830:7842   */\n              dup3\n                /* \"#utility.yul\":7776:7849   */\n              tag_180\n              jump\t// in\n            tag_302:\n                /* \"#utility.yul\":7768:7849   */\n              swap2\n              pop\n                /* \"#utility.yul\":7621:7860   */\n              pop\n                /* \"#utility.yul\":7947:7951   */\n              0x20\n                /* \"#utility.yul\":7940:7945   */\n              dup4\n                /* \"#utility.yul\":7936:7952   */\n              add\n                /* \"#utility.yul\":7930:7953   */\n              mload\n                /* \"#utility.yul\":7966:8029   */\n              tag_303\n                /* \"#utility.yul\":8023:8027   */\n              0x20\n                /* \"#utility.yul\":8018:8021   */\n              dup7\n                /* \"#utility.yul\":8014:8028   */\n              add\n                /* \"#utility.yul\":8000:8012   */\n              dup3\n                /* \"#utility.yul\":7966:8029   */\n              tag_195\n              jump\t// in\n            tag_303:\n                /* \"#utility.yul\":7870:8039   */\n              pop\n                /* \"#utility.yul\":8123:8127   */\n              0x40\n                /* \"#utility.yul\":8116:8121   */\n              dup4\n                /* \"#utility.yul\":8112:8128   */\n              add\n                /* \"#utility.yul\":8106:8129   */\n              mload\n                /* \"#utility.yul\":8142:8205   */\n              tag_304\n                /* \"#utility.yul\":8199:8203   */\n              0x40\n                /* \"#utility.yul\":8194:8197   */\n              dup7\n                /* \"#utility.yul\":8190:8204   */\n              add\n                /* \"#utility.yul\":8176:8188   */\n              dup3\n                /* \"#utility.yul\":8142:8205   */\n              tag_187\n              jump\t// in\n            tag_304:\n                /* \"#utility.yul\":8049:8215   */\n              pop\n                /* \"#utility.yul\":8232:8236   */\n              dup1\n                /* \"#utility.yul\":8225:8236   */\n              swap2\n              pop\n                /* \"#utility.yul\":7575:8242   */\n              pop\n                /* \"#utility.yul\":7453:8242   */\n              swap3\n              swap2\n              pop\n              pop\n              jump\t// out\n                /* \"#utility.yul\":8248:8520   */\n            tag_197:\n                /* \"#utility.yul\":8375:8385   */\n              0x00\n                /* \"#utility.yul\":8410:8514   */\n              tag_306\n                /* \"#utility.yul\":8510:8513   */\n              dup4\n                /* \"#utility.yul\":8502:8508   */\n              dup4\n                /* \"#utility.yul\":8410:8514   */\n              tag_196\n              jump\t// in\n            tag_306:\n                /* \"#utility.yul\":8396:8514   */\n              swap1\n              pop\n                /* \"#utility.yul\":8248:8520   */\n              swap3\n              swap2\n              pop\n              pop\n              jump\t// out\n                /* \"#utility.yul\":8526:8668   */\n            tag_198:\n                /* \"#utility.yul\":8625:8629   */\n              0x00\n                /* \"#utility.yul\":8657:8661   */\n              0x20\n                /* \"#utility.yul\":8652:8655   */\n              dup3\n                /* \"#utility.yul\":8648:8662   */\n              add\n                /* \"#utility.yul\":8640:8662   */\n              swap1\n              pop\n                /* \"#utility.yul\":8526:8668   */\n              swap2\n              swap1\n              pop\n              jump\t// out\n                /* \"#utility.yul\":8742:9885   */\n            tag_199:\n                /* \"#utility.yul\":8919:8922   */\n              0x00\n                /* \"#utility.yul\":8948:9031   */\n              tag_309\n                /* \"#utility.yul\":9025:9030   */\n              dup3\n                /* \"#utility.yul\":8948:9031   */\n              tag_191\n              jump\t// in\n            tag_309:\n                /* \"#utility.yul\":9047:9162   */\n              tag_310\n                /* \"#utility.yul\":9155:9161   */\n              dup2\n                /* \"#utility.yul\":9150:9153   */\n              dup6\n                /* \"#utility.yul\":9047:9162   */\n              tag_192\n              jump\t// in\n            tag_310:\n                /* \"#utility.yul\":9040:9162   */\n              swap4\n              pop\n                /* \"#utility.yul\":9188:9191   */\n              dup4\n                /* \"#utility.yul\":9233:9237   */\n              0x20\n                /* \"#utility.yul\":9225:9231   */\n              dup3\n                /* \"#utility.yul\":9221:9238   */\n              mul\n                /* \"#utility.yul\":9216:9219   */\n              dup6\n                /* \"#utility.yul\":9212:9239   */\n              add\n                /* \"#utility.yul\":9263:9348   */\n              tag_311\n                /* \"#utility.yul\":9342:9347   */\n              dup6\n                /* \"#utility.yul\":9263:9348   */\n              tag_193\n              jump\t// in\n            tag_311:\n                /* \"#utility.yul\":9371:9378   */\n              dup1\n                /* \"#utility.yul\":9402:9403   */\n              0x00\n                /* \"#utility.yul\":9387:9840   */\n            tag_312:\n                /* \"#utility.yul\":9412:9418   */\n              dup6\n                /* \"#utility.yul\":9409:9410   */\n              dup2\n                /* \"#utility.yul\":9406:9419   */\n              lt\n                /* \"#utility.yul\":9387:9840   */\n              iszero\n              tag_314\n              jumpi\n                /* \"#utility.yul\":9483:9492   */\n              dup5\n                /* \"#utility.yul\":9477:9481   */\n              dup5\n                /* \"#utility.yul\":9473:9493   */\n              sub\n                /* \"#utility.yul\":9468:9471   */\n              dup10\n                /* \"#utility.yul\":9461:9494   */\n              mstore\n                /* \"#utility.yul\":9534:9540   */\n              dup2\n                /* \"#utility.yul\":9528:9541   */\n              mload\n                /* \"#utility.yul\":9562:9684   */\n              tag_315\n                /* \"#utility.yul\":9679:9683   */\n              dup6\n                /* \"#utility.yul\":9664:9677   */\n              dup3\n                /* \"#utility.yul\":9562:9684   */\n              tag_197\n              jump\t// in\n            tag_315:\n                /* \"#utility.yul\":9554:9684   */\n              swap5\n              pop\n                /* \"#utility.yul\":9707:9796   */\n              tag_316\n                /* \"#utility.yul\":9789:9795   */\n              dup4\n                /* \"#utility.yul\":9707:9796   */\n              tag_198\n              jump\t// in\n            tag_316:\n                /* \"#utility.yul\":9697:9796   */\n              swap3\n              pop\n                /* \"#utility.yul\":9825:9829   */\n              0x20\n                /* \"#utility.yul\":9820:9823   */\n              dup11\n                /* \"#utility.yul\":9816:9830   */\n              add\n                /* \"#utility.yul\":9809:9830   */\n              swap10\n              pop\n                /* \"#utility.yul\":9447:9840   */\n              pop\n                /* \"#utility.yul\":9434:9435   */\n              0x01\n                /* \"#utility.yul\":9431:9432   */\n              dup2\n                /* \"#utility.yul\":9427:9436   */\n              add\n                /* \"#utility.yul\":9422:9436   */\n              swap1\n              pop\n                /* \"#utility.yul\":9387:9840   */\n              jump(tag_312)\n            tag_314:\n                /* \"#utility.yul\":9391:9405   */\n              pop\n                /* \"#utility.yul\":9856:9860   */\n              dup3\n                /* \"#utility.yul\":9849:9860   */\n              swap8\n              pop\n                /* \"#utility.yul\":9876:9879   */\n              dup8\n                /* \"#utility.yul\":9869:9879   */\n              swap6\n              pop\n                /* \"#utility.yul\":8924:9885   */\n              pop\n              pop\n              pop\n              pop\n              pop\n                /* \"#utility.yul\":8742:9885   */\n              swap3\n              swap2\n              pop\n              pop\n              jump\t// out\n                /* \"#utility.yul\":9891:11144   */\n            tag_23:\n                /* \"#utility.yul\":10316:10320   */\n              0x00\n                /* \"#utility.yul\":10354:10357   */\n              0x80\n                /* \"#utility.yul\":10343:10352   */\n              dup3\n                /* \"#utility.yul\":10339:10358   */\n              add\n                /* \"#utility.yul\":10331:10358   */\n              swap1\n              pop\n                /* \"#utility.yul\":10404:10413   */\n              dup2\n                /* \"#utility.yul\":10398:10402   */\n              dup2\n                /* \"#utility.yul\":10394:10414   */\n              sub\n                /* \"#utility.yul\":10390:10391   */\n              0x00\n                /* \"#utility.yul\":10379:10388   */\n              dup4\n                /* \"#utility.yul\":10375:10392   */\n              add\n                /* \"#utility.yul\":10368:10415   */\n              mstore\n                /* \"#utility.yul\":10432:10510   */\n              tag_318\n                /* \"#utility.yul\":10505:10509   */\n              dup2\n                /* \"#utility.yul\":10496:10502   */\n              dup8\n                /* \"#utility.yul\":10432:10510   */\n              tag_175\n              jump\t// in\n            tag_318:\n                /* \"#utility.yul\":10424:10510   */\n              swap1\n              pop\n                /* \"#utility.yul\":10557:10566   */\n              dup2\n                /* \"#utility.yul\":10551:10555   */\n              dup2\n                /* \"#utility.yul\":10547:10567   */\n              sub\n                /* \"#utility.yul\":10542:10544   */\n              0x20\n                /* \"#utility.yul\":10531:10540   */\n              dup4\n                /* \"#utility.yul\":10527:10545   */\n              add\n                /* \"#utility.yul\":10520:10568   */\n              mstore\n                /* \"#utility.yul\":10585:10713   */\n              tag_319\n                /* \"#utility.yul\":10708:10712   */\n              dup2\n                /* \"#utility.yul\":10699:10705   */\n              dup7\n                /* \"#utility.yul\":10585:10713   */\n              tag_183\n              jump\t// in\n            tag_319:\n                /* \"#utility.yul\":10577:10713   */\n              swap1\n              pop\n                /* \"#utility.yul\":10760:10769   */\n              dup2\n                /* \"#utility.yul\":10754:10758   */\n              dup2\n                /* \"#utility.yul\":10750:10770   */\n              sub\n                /* \"#utility.yul\":10745:10747   */\n              0x40\n                /* \"#utility.yul\":10734:10743   */\n              dup4\n                /* \"#utility.yul\":10730:10748   */\n              add\n                /* \"#utility.yul\":10723:10771   */\n              mstore\n                /* \"#utility.yul\":10788:10896   */\n              tag_320\n                /* \"#utility.yul\":10891:10895   */\n              dup2\n                /* \"#utility.yul\":10882:10888   */\n              dup6\n                /* \"#utility.yul\":10788:10896   */\n              tag_190\n              jump\t// in\n            tag_320:\n                /* \"#utility.yul\":10780:10896   */\n              swap1\n              pop\n                /* \"#utility.yul\":10943:10952   */\n              dup2\n                /* \"#utility.yul\":10937:10941   */\n              dup2\n                /* \"#utility.yul\":10933:10953   */\n              sub\n                /* \"#utility.yul\":10928:10930   */\n              0x60\n                /* \"#utility.yul\":10917:10926   */\n              dup4\n                /* \"#utility.yul\":10913:10931   */\n              add\n                /* \"#utility.yul\":10906:10954   */\n              mstore\n                /* \"#utility.yul\":10971:11137   */\n              tag_321\n                /* \"#utility.yul\":11132:11136   */\n              dup2\n                /* \"#utility.yul\":11123:11129   */\n              dup5\n                /* \"#utility.yul\":10971:11137   */\n              tag_199\n              jump\t// in\n            tag_321:\n                /* \"#utility.yul\":10963:11137   */\n              swap1\n              pop\n                /* \"#utility.yul\":9891:11144   */\n              swap6\n              swap5\n              pop\n              pop\n              pop\n              pop\n              pop\n              jump\t// out\n                /* \"#utility.yul\":11150:11272   */\n            tag_200:\n                /* \"#utility.yul\":11223:11247   */\n              tag_323\n                /* \"#utility.yul\":11241:11246   */\n              dup2\n                /* \"#utility.yul\":11223:11247   */\n              tag_194\n              jump\t// in\n            tag_323:\n                /* \"#utility.yul\":11216:11221   */\n              dup2\n                /* \"#utility.yul\":11213:11248   */\n              eq\n                /* \"#utility.yul\":11203:11266   */\n              tag_324\n              jumpi\n                /* \"#utility.yul\":11262:11263   */\n              0x00\n                /* \"#utility.yul\":11259:11260   */\n              dup1\n                /* \"#utility.yul\":11252:11264   */\n              revert\n                /* \"#utility.yul\":11203:11266   */\n            tag_324:\n                /* \"#utility.yul\":11150:11272   */\n              pop\n              jump\t// out\n                /* \"#utility.yul\":11278:11417   */\n            tag_201:\n                /* \"#utility.yul\":11324:11329   */\n              0x00\n                /* \"#utility.yul\":11362:11368   */\n              dup2\n                /* \"#utility.yul\":11349:11369   */\n              calldataload\n                /* \"#utility.yul\":11340:11369   */\n              swap1\n              pop\n                /* \"#utility.yul\":11378:11411   */\n              tag_326\n                /* \"#utility.yul\":11405:11410   */\n              dup2\n                /* \"#utility.yul\":11378:11411   */\n              tag_200\n              jump\t// in\n            tag_326:\n                /* \"#utility.yul\":11278:11417   */\n              swap3\n              swap2\n              pop\n              pop\n              jump\t// out\n                /* \"#utility.yul\":11423:11752   */\n            tag_29:\n                /* \"#utility.yul\":11482:11488   */\n              0x00\n                /* \"#utility.yul\":11531:11533   */\n              0x20\n                /* \"#utility.yul\":11519:11528   */\n              dup3\n                /* \"#utility.yul\":11510:11517   */\n              dup5\n                /* \"#utility.yul\":11506:11529   */\n              sub\n                /* \"#utility.yul\":11502:11534   */\n              slt\n                /* \"#utility.yul\":11499:11618   */\n              iszero\n              tag_328\n              jumpi\n                /* \"#utility.yul\":11537:11616   */\n              tag_329\n              tag_163\n              jump\t// in\n            tag_329:\n                /* \"#utility.yul\":11499:11618   */\n            tag_328:\n                /* \"#utility.yul\":11657:11658   */\n              0x00\n                /* \"#utility.yul\":11682:11735   */\n              tag_330\n                /* \"#utility.yul\":11727:11734   */\n              dup5\n                /* \"#utility.yul\":11718:11724   */\n              dup3\n                /* \"#utility.yul\":11707:11716   */\n              dup6\n                /* \"#utility.yul\":11703:11725   */\n              add\n                /* \"#utility.yul\":11682:11735   */\n              tag_201\n              jump\t// in\n            tag_330:\n                /* \"#utility.yul\":11672:11735   */\n              swap2\n              pop\n                /* \"#utility.yul\":11628:11745   */\n              pop\n                /* \"#utility.yul\":11423:11752   */\n              swap3\n              swap2\n              pop\n              pop\n              jump\t// out\n                /* \"#utility.yul\":11758:11876   */\n            tag_202:\n                /* \"#utility.yul\":11845:11869   */\n              tag_332\n                /* \"#utility.yul\":11863:11868   */\n              dup2\n                /* \"#utility.yul\":11845:11869   */\n              tag_194\n              jump\t// in\n            tag_332:\n                /* \"#utility.yul\":11840:11843   */\n              dup3\n                /* \"#utility.yul\":11833:11870   */\n              mstore\n                /* \"#utility.yul\":11758:11876   */\n              pop\n              pop\n              jump\t// out\n                /* \"#utility.yul\":11882:12000   */\n            tag_203:\n                /* \"#utility.yul\":11969:11993   */\n              tag_334\n                /* \"#utility.yul\":11987:11992   */\n              dup2\n                /* \"#utility.yul\":11969:11993   */\n              tag_166\n              jump\t// in\n            tag_334:\n                /* \"#utility.yul\":11964:11967   */\n              dup3\n                /* \"#utility.yul\":11957:11994   */\n              mstore\n                /* \"#utility.yul\":11882:12000   */\n              pop\n              pop\n              jump\t// out\n                /* \"#utility.yul\":12006:12539   */\n            tag_32:\n                /* \"#utility.yul\":12175:12179   */\n              0x00\n                /* \"#utility.yul\":12213:12215   */\n              0x60\n                /* \"#utility.yul\":12202:12211   */\n              dup3\n                /* \"#utility.yul\":12198:12216   */\n              add\n                /* \"#utility.yul\":12190:12216   */\n              swap1\n              pop\n                /* \"#utility.yul\":12262:12271   */\n              dup2\n                /* \"#utility.yul\":12256:12260   */\n              dup2\n                /* \"#utility.yul\":12252:12272   */\n              sub\n                /* \"#utility.yul\":12248:12249   */\n              0x00\n                /* \"#utility.yul\":12237:12246   */\n              dup4\n                /* \"#utility.yul\":12233:12250   */\n              add\n                /* \"#utility.yul\":12226:12273   */\n              mstore\n                /* \"#utility.yul\":12290:12368   */\n              tag_336\n                /* \"#utility.yul\":12363:12367   */\n              dup2\n                /* \"#utility.yul\":12354:12360   */\n              dup7\n                /* \"#utility.yul\":12290:12368   */\n              tag_175\n              jump\t// in\n            tag_336:\n                /* \"#utility.yul\":12282:12368   */\n              swap1\n              pop\n                /* \"#utility.yul\":12378:12450   */\n              tag_337\n                /* \"#utility.yul\":12446:12448   */\n              0x20\n                /* \"#utility.yul\":12435:12444   */\n              dup4\n                /* \"#utility.yul\":12431:12449   */\n              add\n                /* \"#utility.yul\":12422:12428   */\n              dup6\n                /* \"#utility.yul\":12378:12450   */\n              tag_202\n              jump\t// in\n            tag_337:\n                /* \"#utility.yul\":12460:12532   */\n              tag_338\n                /* \"#utility.yul\":12528:12530   */\n              0x40\n                /* \"#utility.yul\":12517:12526   */\n              dup4\n                /* \"#utility.yul\":12513:12531   */\n              add\n                /* \"#utility.yul\":12504:12510   */\n              dup5\n                /* \"#utility.yul\":12460:12532   */\n              tag_203\n              jump\t// in\n            tag_338:\n                /* \"#utility.yul\":12006:12539   */\n              swap5\n              swap4\n              pop\n              pop\n              pop\n              pop\n              jump\t// out\n                /* \"#utility.yul\":12545:12767   */\n            tag_40:\n                /* \"#utility.yul\":12638:12642   */\n              0x00\n                /* \"#utility.yul\":12676:12678   */\n              0x20\n                /* \"#utility.yul\":12665:12674   */\n              dup3\n                /* \"#utility.yul\":12661:12679   */\n              add\n                /* \"#utility.yul\":12653:12679   */\n              swap1\n              pop\n                /* \"#utility.yul\":12689:12760   */\n              tag_340\n                /* \"#utility.yul\":12757:12758   */\n              0x00\n                /* \"#utility.yul\":12746:12755   */\n              dup4\n                /* \"#utility.yul\":12742:12759   */\n              add\n                /* \"#utility.yul\":12733:12739   */\n              dup5\n                /* \"#utility.yul\":12689:12760   */\n              tag_203\n              jump\t// in\n            tag_340:\n                /* \"#utility.yul\":12545:12767   */\n              swap3\n              swap2\n              pop\n              pop\n              jump\t// out\n                /* \"#utility.yul\":12773:13086   */\n            tag_45:\n                /* \"#utility.yul\":12886:12890   */\n              0x00\n                /* \"#utility.yul\":12924:12926   */\n              0x20\n                /* \"#utility.yul\":12913:12922   */\n              dup3\n                /* \"#utility.yul\":12909:12927   */\n              add\n                /* \"#utility.yul\":12901:12927   */\n              swap1\n              pop\n                /* \"#utility.yul\":12973:12982   */\n              dup2\n                /* \"#utility.yul\":12967:12971   */\n              dup2\n                /* \"#utility.yul\":12963:12983   */\n              sub\n                /* \"#utility.yul\":12959:12960   */\n              0x00\n                /* \"#utility.yul\":12948:12957   */\n              dup4\n                /* \"#utility.yul\":12944:12961   */\n              add\n                /* \"#utility.yul\":12937:12984   */\n              mstore\n                /* \"#utility.yul\":13001:13079   */\n              tag_342\n                /* \"#utility.yul\":13074:13078   */\n              dup2\n                /* \"#utility.yul\":13065:13071   */\n              dup5\n                /* \"#utility.yul\":13001:13079   */\n              tag_175\n              jump\t// in\n            tag_342:\n                /* \"#utility.yul\":12993:13079   */\n              swap1\n              pop\n                /* \"#utility.yul\":12773:13086   */\n              swap3\n              swap2\n              pop\n              pop\n              jump\t// out\n                /* \"#utility.yul\":13092:13209   */\n            tag_204:\n                /* \"#utility.yul\":13201:13202   */\n              0x00\n                /* \"#utility.yul\":13198:13199   */\n              dup1\n                /* \"#utility.yul\":13191:13203   */\n              revert\n                /* \"#utility.yul\":13215:13332   */\n            tag_205:\n                /* \"#utility.yul\":13324:13325   */\n              0x00\n                /* \"#utility.yul\":13321:13322   */\n              dup1\n                /* \"#utility.yul\":13314:13326   */\n              revert\n                /* \"#utility.yul\":13338:13518   */\n            tag_206:\n                /* \"#utility.yul\":13386:13463   */\n              0x4e487b7100000000000000000000000000000000000000000000000000000000\n                /* \"#utility.yul\":13383:13384   */\n              0x00\n                /* \"#utility.yul\":13376:13464   */\n              mstore\n                /* \"#utility.yul\":13483:13487   */\n              0x41\n                /* \"#utility.yul\":13480:13481   */\n              0x04\n                /* \"#utility.yul\":13473:13488   */\n              mstore\n                /* \"#utility.yul\":13507:13511   */\n              0x24\n                /* \"#utility.yul\":13504:13505   */\n              0x00\n                /* \"#utility.yul\":13497:13512   */\n              revert\n                /* \"#utility.yul\":13524:13805   */\n            tag_207:\n                /* \"#utility.yul\":13607:13634   */\n              tag_347\n                /* \"#utility.yul\":13629:13633   */\n              dup3\n                /* \"#utility.yul\":13607:13634   */\n              tag_174\n              jump\t// in\n            tag_347:\n                /* \"#utility.yul\":13599:13605   */\n              dup2\n                /* \"#utility.yul\":13595:13635   */\n              add\n                /* \"#utility.yul\":13737:13743   */\n              dup2\n                /* \"#utility.yul\":13725:13735   */\n              dup2\n                /* \"#utility.yul\":13722:13744   */\n              lt\n                /* \"#utility.yul\":13701:13719   */\n              0xffffffffffffffff\n                /* \"#utility.yul\":13689:13699   */\n              dup3\n                /* \"#utility.yul\":13686:13720   */\n              gt\n                /* \"#utility.yul\":13683:13745   */\n              or\n                /* \"#utility.yul\":13680:13768   */\n              iszero\n              tag_348\n              jumpi\n                /* \"#utility.yul\":13748:13766   */\n              tag_349\n              tag_206\n              jump\t// in\n            tag_349:\n                /* \"#utility.yul\":13680:13768   */\n            tag_348:\n                /* \"#utility.yul\":13788:13798   */\n              dup1\n                /* \"#utility.yul\":13784:13786   */\n              0x40\n                /* \"#utility.yul\":13777:13799   */\n              mstore\n                /* \"#utility.yul\":13567:13805   */\n              pop\n                /* \"#utility.yul\":13524:13805   */\n              pop\n              pop\n              jump\t// out\n                /* \"#utility.yul\":13811:13940   */\n            tag_208:\n                /* \"#utility.yul\":13845:13851   */\n              0x00\n                /* \"#utility.yul\":13872:13892   */\n              tag_351\n              tag_162\n              jump\t// in\n            tag_351:\n                /* \"#utility.yul\":13862:13892   */\n              swap1\n              pop\n                /* \"#utility.yul\":13901:13934   */\n              tag_352\n                /* \"#utility.yul\":13929:13933   */\n              dup3\n                /* \"#utility.yul\":13921:13927   */\n              dup3\n                /* \"#utility.yul\":13901:13934   */\n              tag_207\n              jump\t// in\n            tag_352:\n                /* \"#utility.yul\":13811:13940   */\n              swap2\n              swap1\n              pop\n              jump\t// out\n                /* \"#utility.yul\":13946:14254   */\n            tag_209:\n                /* \"#utility.yul\":14008:14012   */\n              0x00\n                /* \"#utility.yul\":14098:14116   */\n              0xffffffffffffffff\n                /* \"#utility.yul\":14090:14096   */\n              dup3\n                /* \"#utility.yul\":14087:14117   */\n              gt\n                /* \"#utility.yul\":14084:14140   */\n              iszero\n              tag_354\n              jumpi\n                /* \"#utility.yul\":14120:14138   */\n              tag_355\n              tag_206\n              jump\t// in\n            tag_355:\n                /* \"#utility.yul\":14084:14140   */\n            tag_354:\n                /* \"#utility.yul\":14158:14187   */\n              tag_356\n                /* \"#utility.yul\":14180:14186   */\n              dup3\n                /* \"#utility.yul\":14158:14187   */\n              tag_174\n              jump\t// in\n            tag_356:\n                /* \"#utility.yul\":14150:14187   */\n              swap1\n              pop\n                /* \"#utility.yul\":14242:14246   */\n              0x20\n                /* \"#utility.yul\":14236:14240   */\n              dup2\n                /* \"#utility.yul\":14232:14247   */\n              add\n                /* \"#utility.yul\":14224:14247   */\n              swap1\n              pop\n                /* \"#utility.yul\":13946:14254   */\n              swap2\n              swap1\n              pop\n              jump\t// out\n                /* \"#utility.yul\":14260:14414   */\n            tag_210:\n                /* \"#utility.yul\":14344:14350   */\n              dup3\n                /* \"#utility.yul\":14339:14342   */\n              dup2\n                /* \"#utility.yul\":14334:14337   */\n              dup4\n                /* \"#utility.yul\":14321:14351   */\n              calldatacopy\n                /* \"#utility.yul\":14406:14407   */\n              0x00\n                /* \"#utility.yul\":14397:14403   */\n              dup4\n                /* \"#utility.yul\":14392:14395   */\n              dup4\n                /* \"#utility.yul\":14388:14404   */\n              add\n                /* \"#utility.yul\":14381:14408   */\n              mstore\n                /* \"#utility.yul\":14260:14414   */\n              pop\n              pop\n              pop\n              jump\t// out\n                /* \"#utility.yul\":14420:14832   */\n            tag_211:\n                /* \"#utility.yul\":14498:14503   */\n              0x00\n                /* \"#utility.yul\":14523:14589   */\n              tag_359\n                /* \"#utility.yul\":14539:14588   */\n              tag_360\n                /* \"#utility.yul\":14581:14587   */\n              dup5\n                /* \"#utility.yul\":14539:14588   */\n              tag_209\n              jump\t// in\n            tag_360:\n                /* \"#utility.yul\":14523:14589   */\n              tag_208\n              jump\t// in\n            tag_359:\n                /* \"#utility.yul\":14514:14589   */\n              swap1\n              pop\n                /* \"#utility.yul\":14612:14618   */\n              dup3\n                /* \"#utility.yul\":14605:14610   */\n              dup2\n                /* \"#utility.yul\":14598:14619   */\n              mstore\n                /* \"#utility.yul\":14650:14654   */\n              0x20\n                /* \"#utility.yul\":14643:14648   */\n              dup2\n                /* \"#utility.yul\":14639:14655   */\n              add\n                /* \"#utility.yul\":14688:14691   */\n              dup5\n                /* \"#utility.yul\":14679:14685   */\n              dup5\n                /* \"#utility.yul\":14674:14677   */\n              dup5\n                /* \"#utility.yul\":14670:14686   */\n              add\n                /* \"#utility.yul\":14667:14692   */\n              gt\n                /* \"#utility.yul\":14664:14776   */\n              iszero\n              tag_361\n              jumpi\n                /* \"#utility.yul\":14695:14774   */\n              tag_362\n              tag_205\n              jump\t// in\n            tag_362:\n                /* \"#utility.yul\":14664:14776   */\n            tag_361:\n                /* \"#utility.yul\":14785:14826   */\n              tag_363\n                /* \"#utility.yul\":14819:14825   */\n              dup5\n                /* \"#utility.yul\":14814:14817   */\n              dup3\n                /* \"#utility.yul\":14809:14812   */\n              dup6\n                /* \"#utility.yul\":14785:14826   */\n              tag_210\n              jump\t// in\n            tag_363:\n                /* \"#utility.yul\":14504:14832   */\n              pop\n                /* \"#utility.yul\":14420:14832   */\n              swap4\n              swap3\n              pop\n              pop\n              pop\n              jump\t// out\n                /* \"#utility.yul\":14852:15192   */\n            tag_212:\n                /* \"#utility.yul\":14908:14913   */\n              0x00\n                /* \"#utility.yul\":14957:14960   */\n              dup3\n                /* \"#utility.yul\":14950:14954   */\n              0x1f\n                /* \"#utility.yul\":14942:14948   */\n              dup4\n                /* \"#utility.yul\":14938:14955   */\n              add\n                /* \"#utility.yul\":14934:14961   */\n              slt\n                /* \"#utility.yul\":14924:15046   */\n              tag_365\n              jumpi\n                /* \"#utility.yul\":14965:15044   */\n              tag_366\n              tag_204\n              jump\t// in\n            tag_366:\n                /* \"#utility.yul\":14924:15046   */\n            tag_365:\n                /* \"#utility.yul\":15082:15088   */\n              dup2\n                /* \"#utility.yul\":15069:15089   */\n              calldataload\n                /* \"#utility.yul\":15107:15186   */\n              tag_367\n                /* \"#utility.yul\":15182:15185   */\n              dup5\n                /* \"#utility.yul\":15174:15180   */\n              dup3\n                /* \"#utility.yul\":15167:15171   */\n              0x20\n                /* \"#utility.yul\":15159:15165   */\n              dup7\n                /* \"#utility.yul\":15155:15172   */\n              add\n                /* \"#utility.yul\":15107:15186   */\n              tag_211\n              jump\t// in\n            tag_367:\n                /* \"#utility.yul\":15098:15186   */\n              swap2\n              pop\n                /* \"#utility.yul\":14914:15192   */\n              pop\n                /* \"#utility.yul\":14852:15192   */\n              swap3\n              swap2\n              pop\n              pop\n              jump\t// out\n                /* \"#utility.yul\":15198:15707   */\n            tag_48:\n                /* \"#utility.yul\":15267:15273   */\n              0x00\n                /* \"#utility.yul\":15316:15318   */\n              0x20\n                /* \"#utility.yul\":15304:15313   */\n              dup3\n                /* \"#utility.yul\":15295:15302   */\n              dup5\n                /* \"#utility.yul\":15291:15314   */\n              sub\n                /* \"#utility.yul\":15287:15319   */\n              slt\n                /* \"#utility.yul\":15284:15403   */\n              iszero\n              tag_369\n              jumpi\n                /* \"#utility.yul\":15322:15401   */\n              tag_370\n              tag_163\n              jump\t// in\n            tag_370:\n                /* \"#utility.yul\":15284:15403   */\n            tag_369:\n                /* \"#utility.yul\":15470:15471   */\n              0x00\n                /* \"#utility.yul\":15459:15468   */\n              dup3\n                /* \"#utility.yul\":15455:15472   */\n              add\n                /* \"#utility.yul\":15442:15473   */\n              calldataload\n                /* \"#utility.yul\":15500:15518   */\n              0xffffffffffffffff\n                /* \"#utility.yul\":15492:15498   */\n              dup2\n                /* \"#utility.yul\":15489:15519   */\n              gt\n                /* \"#utility.yul\":15486:15603   */\n              iszero\n              tag_371\n              jumpi\n                /* \"#utility.yul\":15522:15601   */\n              tag_372\n              tag_164\n              jump\t// in\n            tag_372:\n                /* \"#utility.yul\":15486:15603   */\n            tag_371:\n                /* \"#utility.yul\":15627:15690   */\n              tag_373\n                /* \"#utility.yul\":15682:15689   */\n              dup5\n                /* \"#utility.yul\":15673:15679   */\n              dup3\n                /* \"#utility.yul\":15662:15671   */\n              dup6\n                /* \"#utility.yul\":15658:15680   */\n              add\n                /* \"#utility.yul\":15627:15690   */\n              tag_212\n              jump\t// in\n            tag_373:\n                /* \"#utility.yul\":15617:15690   */\n              swap2\n              pop\n                /* \"#utility.yul\":15413:15700   */\n              pop\n                /* \"#utility.yul\":15198:15707   */\n              swap3\n              swap2\n              pop\n              pop\n              jump\t// out\n                /* \"#utility.yul\":15713:15893   */\n            tag_213:\n                /* \"#utility.yul\":15761:15838   */\n              0x4e487b7100000000000000000000000000000000000000000000000000000000\n                /* \"#utility.yul\":15758:15759   */\n              0x00\n                /* \"#utility.yul\":15751:15839   */\n              mstore\n                /* \"#utility.yul\":15858:15862   */\n              0x22\n                /* \"#utility.yul\":15855:15856   */\n              0x04\n                /* \"#utility.yul\":15848:15863   */\n              mstore\n                /* \"#utility.yul\":15882:15886   */\n              0x24\n                /* \"#utility.yul\":15879:15880   */\n              0x00\n                /* \"#utility.yul\":15872:15887   */\n              revert\n                /* \"#utility.yul\":15899:16219   */\n            tag_58:\n                /* \"#utility.yul\":15943:15949   */\n              0x00\n                /* \"#utility.yul\":15980:15981   */\n              0x02\n                /* \"#utility.yul\":15974:15978   */\n              dup3\n                /* \"#utility.yul\":15970:15982   */\n              div\n                /* \"#utility.yul\":15960:15982   */\n              swap1\n              pop\n                /* \"#utility.yul\":16027:16028   */\n              0x01\n                /* \"#utility.yul\":16021:16025   */\n              dup3\n                /* \"#utility.yul\":16017:16029   */\n              and\n                /* \"#utility.yul\":16048:16066   */\n              dup1\n                /* \"#utility.yul\":16038:16119   */\n              tag_376\n              jumpi\n                /* \"#utility.yul\":16104:16108   */\n              0x7f\n                /* \"#utility.yul\":16096:16102   */\n              dup3\n                /* \"#utility.yul\":16092:16109   */\n              and\n                /* \"#utility.yul\":16082:16109   */\n              swap2\n              pop\n                /* \"#utility.yul\":16038:16119   */\n            tag_376:\n                /* \"#utility.yul\":16166:16168   */\n              0x20\n                /* \"#utility.yul\":16158:16164   */\n              dup3\n                /* \"#utility.yul\":16155:16169   */\n              lt\n                /* \"#utility.yul\":16135:16153   */\n              dup2\n                /* \"#utility.yul\":16132:16170   */\n              eq\n                /* \"#utility.yul\":16129:16213   */\n              iszero\n              tag_377\n              jumpi\n                /* \"#utility.yul\":16185:16203   */\n              tag_378\n              tag_213\n              jump\t// in\n            tag_378:\n                /* \"#utility.yul\":16129:16213   */\n            tag_377:\n                /* \"#utility.yul\":15950:16219   */\n              pop\n                /* \"#utility.yul\":15899:16219   */\n              swap2\n              swap1\n              pop\n              jump\t// out\n                /* \"#utility.yul\":16225:16457   */\n            tag_214:\n                /* \"#utility.yul\":16365:16399   */\n              0x4f6e6c7920616e20616363657074656420617574686f722063616e2061707072\n                /* \"#utility.yul\":16361:16362   */\n              0x00\n                /* \"#utility.yul\":16353:16359   */\n              dup3\n                /* \"#utility.yul\":16349:16363   */\n              add\n                /* \"#utility.yul\":16342:16400   */\n              mstore\n                /* \"#utility.yul\":16434:16449   */\n              0x6f76652061207265717565737400000000000000000000000000000000000000\n                /* \"#utility.yul\":16429:16431   */\n              0x20\n                /* \"#utility.yul\":16421:16427   */\n              dup3\n                /* \"#utility.yul\":16417:16432   */\n              add\n                /* \"#utility.yul\":16410:16450   */\n              mstore\n                /* \"#utility.yul\":16225:16457   */\n              pop\n              jump\t// out\n                /* \"#utility.yul\":16463:16829   */\n            tag_215:\n                /* \"#utility.yul\":16605:16608   */\n              0x00\n                /* \"#utility.yul\":16626:16693   */\n              tag_381\n                /* \"#utility.yul\":16690:16692   */\n              0x2d\n                /* \"#utility.yul\":16685:16688   */\n              dup4\n                /* \"#utility.yul\":16626:16693   */\n              tag_172\n              jump\t// in\n            tag_381:\n                /* \"#utility.yul\":16619:16693   */\n              swap2\n              pop\n                /* \"#utility.yul\":16702:16795   */\n              tag_382\n                /* \"#utility.yul\":16791:16794   */\n              dup3\n                /* \"#utility.yul\":16702:16795   */\n              tag_214\n              jump\t// in\n            tag_382:\n                /* \"#utility.yul\":16820:16822   */\n              0x40\n                /* \"#utility.yul\":16815:16818   */\n              dup3\n                /* \"#utility.yul\":16811:16823   */\n              add\n                /* \"#utility.yul\":16804:16823   */\n              swap1\n              pop\n                /* \"#utility.yul\":16463:16829   */\n              swap2\n              swap1\n              pop\n              jump\t// out\n                /* \"#utility.yul\":16835:17254   */\n            tag_92:\n                /* \"#utility.yul\":17001:17005   */\n              0x00\n                /* \"#utility.yul\":17039:17041   */\n              0x20\n                /* \"#utility.yul\":17028:17037   */\n              dup3\n                /* \"#utility.yul\":17024:17042   */\n              add\n                /* \"#utility.yul\":17016:17042   */\n              swap1\n              pop\n                /* \"#utility.yul\":17088:17097   */\n              dup2\n                /* \"#utility.yul\":17082:17086   */\n              dup2\n                /* \"#utility.yul\":17078:17098   */\n              sub\n                /* \"#utility.yul\":17074:17075   */\n              0x00\n                /* \"#utility.yul\":17063:17072   */\n              dup4\n                /* \"#utility.yul\":17059:17076   */\n              add\n                /* \"#utility.yul\":17052:17099   */\n              mstore\n                /* \"#utility.yul\":17116:17247   */\n              tag_384\n                /* \"#utility.yul\":17242:17246   */\n              dup2\n                /* \"#utility.yul\":17116:17247   */\n              tag_215\n              jump\t// in\n            tag_384:\n                /* \"#utility.yul\":17108:17247   */\n              swap1\n              pop\n                /* \"#utility.yul\":16835:17254   */\n              swap2\n              swap1\n              pop\n              jump\t// out\n                /* \"#utility.yul\":17260:17440   */\n            tag_95:\n                /* \"#utility.yul\":17308:17385   */\n              0x4e487b7100000000000000000000000000000000000000000000000000000000\n                /* \"#utility.yul\":17305:17306   */\n              0x00\n                /* \"#utility.yul\":17298:17386   */\n              mstore\n                /* \"#utility.yul\":17405:17409   */\n              0x32\n                /* \"#utility.yul\":17402:17403   */\n              0x04\n                /* \"#utility.yul\":17395:17410   */\n              mstore\n                /* \"#utility.yul\":17429:17433   */\n              0x24\n                /* \"#utility.yul\":17426:17427   */\n              0x00\n                /* \"#utility.yul\":17419:17434   */\n              revert\n                /* \"#utility.yul\":17446:17697   */\n            tag_216:\n                /* \"#utility.yul\":17586:17620   */\n              0x417574686f72206f6620746865207265717565737420697320616c7265616479\n                /* \"#utility.yul\":17582:17583   */\n              0x00\n                /* \"#utility.yul\":17574:17580   */\n              dup3\n                /* \"#utility.yul\":17570:17584   */\n              add\n                /* \"#utility.yul\":17563:17621   */\n              mstore\n                /* \"#utility.yul\":17655:17689   */\n              0x20696e636c7564656420696e20746865206c697374206f6620617574686f7273\n                /* \"#utility.yul\":17650:17652   */\n              0x20\n                /* \"#utility.yul\":17642:17648   */\n              dup3\n                /* \"#utility.yul\":17638:17653   */\n              add\n                /* \"#utility.yul\":17631:17690   */\n              mstore\n                /* \"#utility.yul\":17446:17697   */\n              pop\n              jump\t// out\n                /* \"#utility.yul\":17703:18069   */\n            tag_217:\n                /* \"#utility.yul\":17845:17848   */\n              0x00\n                /* \"#utility.yul\":17866:17933   */\n              tag_388\n                /* \"#utility.yul\":17930:17932   */\n              0x40\n                /* \"#utility.yul\":17925:17928   */\n              dup4\n                /* \"#utility.yul\":17866:17933   */\n              tag_172\n              jump\t// in\n            tag_388:\n                /* \"#utility.yul\":17859:17933   */\n              swap2\n              pop\n                /* \"#utility.yul\":17942:18035   */\n              tag_389\n                /* \"#utility.yul\":18031:18034   */\n              dup3\n                /* \"#utility.yul\":17942:18035   */\n              tag_216\n              jump\t// in\n            tag_389:\n                /* \"#utility.yul\":18060:18062   */\n              0x40\n                /* \"#utility.yul\":18055:18058   */\n              dup3\n                /* \"#utility.yul\":18051:18063   */\n              add\n                /* \"#utility.yul\":18044:18063   */\n              swap1\n              pop\n                /* \"#utility.yul\":17703:18069   */\n              swap2\n              swap1\n              pop\n              jump\t// out\n                /* \"#utility.yul\":18075:18494   */\n            tag_99:\n                /* \"#utility.yul\":18241:18245   */\n              0x00\n                /* \"#utility.yul\":18279:18281   */\n              0x20\n                /* \"#utility.yul\":18268:18277   */\n              dup3\n                /* \"#utility.yul\":18264:18282   */\n              add\n                /* \"#utility.yul\":18256:18282   */\n              swap1\n              pop\n                /* \"#utility.yul\":18328:18337   */\n              dup2\n                /* \"#utility.yul\":18322:18326   */\n              dup2\n                /* \"#utility.yul\":18318:18338   */\n              sub\n                /* \"#utility.yul\":18314:18315   */\n              0x00\n                /* \"#utility.yul\":18303:18312   */\n              dup4\n                /* \"#utility.yul\":18299:18316   */\n              add\n                /* \"#utility.yul\":18292:18339   */\n              mstore\n                /* \"#utility.yul\":18356:18487   */\n              tag_391\n                /* \"#utility.yul\":18482:18486   */\n              dup2\n                /* \"#utility.yul\":18356:18487   */\n              tag_217\n              jump\t// in\n            tag_391:\n                /* \"#utility.yul\":18348:18487   */\n              swap1\n              pop\n                /* \"#utility.yul\":18075:18494   */\n              swap2\n              swap1\n              pop\n              jump\t// out\n                /* \"#utility.yul\":18500:18680   */\n            tag_218:\n                /* \"#utility.yul\":18548:18625   */\n              0x4e487b7100000000000000000000000000000000000000000000000000000000\n                /* \"#utility.yul\":18545:18546   */\n              0x00\n                /* \"#utility.yul\":18538:18626   */\n              mstore\n                /* \"#utility.yul\":18645:18649   */\n              0x11\n                /* \"#utility.yul\":18642:18643   */\n              0x04\n                /* \"#utility.yul\":18635:18650   */\n              mstore\n                /* \"#utility.yul\":18669:18673   */\n              0x24\n                /* \"#utility.yul\":18666:18667   */\n              0x00\n                /* \"#utility.yul\":18659:18674   */\n              revert\n                /* \"#utility.yul\":18686:18877   */\n            tag_101:\n                /* \"#utility.yul\":18726:18730   */\n              0x00\n                /* \"#utility.yul\":18746:18766   */\n              tag_394\n                /* \"#utility.yul\":18764:18765   */\n              dup3\n                /* \"#utility.yul\":18746:18766   */\n              tag_194\n              jump\t// in\n            tag_394:\n                /* \"#utility.yul\":18741:18766   */\n              swap2\n              pop\n                /* \"#utility.yul\":18780:18800   */\n              tag_395\n                /* \"#utility.yul\":18798:18799   */\n              dup4\n                /* \"#utility.yul\":18780:18800   */\n              tag_194\n              jump\t// in\n            tag_395:\n                /* \"#utility.yul\":18775:18800   */\n              swap3\n              pop\n                /* \"#utility.yul\":18819:18820   */\n              dup3\n                /* \"#utility.yul\":18816:18817   */\n              dup3\n                /* \"#utility.yul\":18813:18821   */\n              lt\n                /* \"#utility.yul\":18810:18844   */\n              iszero\n              tag_396\n              jumpi\n                /* \"#utility.yul\":18824:18842   */\n              tag_397\n              tag_218\n              jump\t// in\n            tag_397:\n                /* \"#utility.yul\":18810:18844   */\n            tag_396:\n                /* \"#utility.yul\":18869:18870   */\n              dup3\n                /* \"#utility.yul\":18866:18867   */\n              dup3\n                /* \"#utility.yul\":18862:18871   */\n              sub\n                /* \"#utility.yul\":18854:18871   */\n              swap1\n              pop\n                /* \"#utility.yul\":18686:18877   */\n              swap3\n              swap2\n              pop\n              pop\n              jump\t// out\n                /* \"#utility.yul\":18883:19063   */\n            tag_117:\n                /* \"#utility.yul\":18931:19008   */\n              0x4e487b7100000000000000000000000000000000000000000000000000000000\n                /* \"#utility.yul\":18928:18929   */\n              0x00\n                /* \"#utility.yul\":18921:19009   */\n              mstore\n                /* \"#utility.yul\":19028:19032   */\n              0x31\n                /* \"#utility.yul\":19025:19026   */\n              0x04\n                /* \"#utility.yul\":19018:19033   */\n              mstore\n                /* \"#utility.yul\":19052:19056   */\n              0x24\n                /* \"#utility.yul\":19049:19050   */\n              0x00\n                /* \"#utility.yul\":19042:19057   */\n              revert\n                /* \"#utility.yul\":19069:19300   */\n            tag_219:\n                /* \"#utility.yul\":19209:19243   */\n              0x417574686f7220616c72656164792065786973747320696e20746865206c6973\n                /* \"#utility.yul\":19205:19206   */\n              0x00\n                /* \"#utility.yul\":19197:19203   */\n              dup3\n                /* \"#utility.yul\":19193:19207   */\n              add\n                /* \"#utility.yul\":19186:19244   */\n              mstore\n                /* \"#utility.yul\":19278:19292   */\n              0x74206f6620617574686f72730000000000000000000000000000000000000000\n                /* \"#utility.yul\":19273:19275   */\n              0x20\n                /* \"#utility.yul\":19265:19271   */\n              dup3\n                /* \"#utility.yul\":19261:19276   */\n              add\n                /* \"#utility.yul\":19254:19293   */\n              mstore\n                /* \"#utility.yul\":19069:19300   */\n              pop\n              jump\t// out\n                /* \"#utility.yul\":19306:19672   */\n            tag_220:\n                /* \"#utility.yul\":19448:19451   */\n              0x00\n                /* \"#utility.yul\":19469:19536   */\n              tag_401\n                /* \"#utility.yul\":19533:19535   */\n              0x2c\n                /* \"#utility.yul\":19528:19531   */\n              dup4\n                /* \"#utility.yul\":19469:19536   */\n              tag_172\n              jump\t// in\n            tag_401:\n                /* \"#utility.yul\":19462:19536   */\n              swap2\n              pop\n                /* \"#utility.yul\":19545:19638   */\n              tag_402\n                /* \"#utility.yul\":19634:19637   */\n              dup3\n                /* \"#utility.yul\":19545:19638   */\n              tag_219\n              jump\t// in\n            tag_402:\n                /* \"#utility.yul\":19663:19665   */\n              0x40\n                /* \"#utility.yul\":19658:19661   */\n              dup3\n                /* \"#utility.yul\":19654:19666   */\n              add\n                /* \"#utility.yul\":19647:19666   */\n              swap1\n              pop\n                /* \"#utility.yul\":19306:19672   */\n              swap2\n              swap1\n              pop\n              jump\t// out\n                /* \"#utility.yul\":19678:20097   */\n            tag_134:\n                /* \"#utility.yul\":19844:19848   */\n              0x00\n                /* \"#utility.yul\":19882:19884   */\n              0x20\n                /* \"#utility.yul\":19871:19880   */\n              dup3\n                /* \"#utility.yul\":19867:19885   */\n              add\n                /* \"#utility.yul\":19859:19885   */\n              swap1\n              pop\n                /* \"#utility.yul\":19931:19940   */\n              dup2\n                /* \"#utility.yul\":19925:19929   */\n              dup2\n                /* \"#utility.yul\":19921:19941   */\n              sub\n                /* \"#utility.yul\":19917:19918   */\n              0x00\n                /* \"#utility.yul\":19906:19915   */\n              dup4\n                /* \"#utility.yul\":19902:19919   */\n              add\n                /* \"#utility.yul\":19895:19942   */\n              mstore\n                /* \"#utility.yul\":19959:20090   */\n              tag_404\n                /* \"#utility.yul\":20085:20089   */\n              dup2\n                /* \"#utility.yul\":19959:20090   */\n              tag_220\n              jump\t// in\n            tag_404:\n                /* \"#utility.yul\":19951:20090   */\n              swap1\n              pop\n                /* \"#utility.yul\":19678:20097   */\n              swap2\n              swap1\n              pop\n              jump\t// out\n                /* \"#utility.yul\":20103:20331   */\n            tag_221:\n                /* \"#utility.yul\":20243:20277   */\n              0x4f6e6c7920616e20616363657074656420617574686f722063616e2061646420\n                /* \"#utility.yul\":20239:20240   */\n              0x00\n                /* \"#utility.yul\":20231:20237   */\n              dup3\n                /* \"#utility.yul\":20227:20241   */\n              add\n                /* \"#utility.yul\":20220:20278   */\n              mstore\n                /* \"#utility.yul\":20312:20323   */\n              0x6120636861707465720000000000000000000000000000000000000000000000\n                /* \"#utility.yul\":20307:20309   */\n              0x20\n                /* \"#utility.yul\":20299:20305   */\n              dup3\n                /* \"#utility.yul\":20295:20310   */\n              add\n                /* \"#utility.yul\":20288:20324   */\n              mstore\n                /* \"#utility.yul\":20103:20331   */\n              pop\n              jump\t// out\n                /* \"#utility.yul\":20337:20703   */\n            tag_222:\n                /* \"#utility.yul\":20479:20482   */\n              0x00\n                /* \"#utility.yul\":20500:20567   */\n              tag_407\n                /* \"#utility.yul\":20564:20566   */\n              0x29\n                /* \"#utility.yul\":20559:20562   */\n              dup4\n                /* \"#utility.yul\":20500:20567   */\n              tag_172\n              jump\t// in\n            tag_407:\n                /* \"#utility.yul\":20493:20567   */\n              swap2\n              pop\n                /* \"#utility.yul\":20576:20669   */\n              tag_408\n                /* \"#utility.yul\":20665:20668   */\n              dup3\n                /* \"#utility.yul\":20576:20669   */\n              tag_221\n              jump\t// in\n            tag_408:\n                /* \"#utility.yul\":20694:20696   */\n              0x40\n                /* \"#utility.yul\":20689:20692   */\n              dup3\n                /* \"#utility.yul\":20685:20697   */\n              add\n                /* \"#utility.yul\":20678:20697   */\n              swap1\n              pop\n                /* \"#utility.yul\":20337:20703   */\n              swap2\n              swap1\n              pop\n              jump\t// out\n                /* \"#utility.yul\":20709:21128   */\n            tag_140:\n                /* \"#utility.yul\":20875:20879   */\n              0x00\n                /* \"#utility.yul\":20913:20915   */\n              0x20\n                /* \"#utility.yul\":20902:20911   */\n              dup3\n                /* \"#utility.yul\":20898:20916   */\n              add\n                /* \"#utility.yul\":20890:20916   */\n              swap1\n              pop\n                /* \"#utility.yul\":20962:20971   */\n              dup2\n                /* \"#utility.yul\":20956:20960   */\n              dup2\n                /* \"#utility.yul\":20952:20972   */\n              sub\n                /* \"#utility.yul\":20948:20949   */\n              0x00\n                /* \"#utility.yul\":20937:20946   */\n              dup4\n                /* \"#utility.yul\":20933:20950   */\n              add\n                /* \"#utility.yul\":20926:20973   */\n              mstore\n                /* \"#utility.yul\":20990:21121   */\n              tag_410\n                /* \"#utility.yul\":21116:21120   */\n              dup2\n                /* \"#utility.yul\":20990:21121   */\n              tag_222\n              jump\t// in\n            tag_410:\n                /* \"#utility.yul\":20982:21121   */\n              swap1\n              pop\n                /* \"#utility.yul\":20709:21128   */\n              swap2\n              swap1\n              pop\n              jump\t// out\n\n            auxdata: 0xa2646970667358221220f4d75e220c71aa05d21406a04225dba3fec6f820fcbdad47f03e7834f50b50de64736f6c63430008090033\n        }\n    }\n\n    auxdata: 0xa264697066735822122086d2ec6ebf182ce1dca6d29521363e906ff819fd9caa27cfd2d0ebabd4e205ec64736f6c63430008090033\n}\n","bytecode":{"linkReferences":{},"object":"608060405234801561001057600080fd5b506125e0806100206000396000f3fe60806040523480156200001157600080fd5b5060043610620000465760003560e01c806318351ea7146200004b5780632ff2bdd514620000815780639d9f92d814620000a3575b600080fd5b62000069600480360381019062000063919062000296565b620000c3565b6040516200007891906200030d565b60405180910390f35b6200008b62000103565b6040516200009a9190620003f8565b60405180910390f35b620000c16004803603810190620000bb91906200057e565b62000193565b005b60008181548110620000d457600080fd5b906000526020600020016000915054906101000a900473ffffffffffffffffffffffffffffffffffffffff1681565b606060008054806020026020016040519081016040528092919081815260200182805480156200018957602002820191906000526020600020905b8160009054906101000a900473ffffffffffffffffffffffffffffffffffffffff1673ffffffffffffffffffffffffffffffffffffffff16815260200190600101908083116200013e575b5050505050905090565b60008133604051620001a59062000239565b620001b292919062000662565b604051809103906000f080158015620001cf573d6000803e3d6000fd5b5090506000819080600181540180825580915050600190039060005260206000200160009091909190916101000a81548173ffffffffffffffffffffffffffffffffffffffff021916908373ffffffffffffffffffffffffffffffffffffffff1602179055505050565b611f14806200069783390190565b6000604051905090565b600080fd5b600080fd5b6000819050919050565b62000270816200025b565b81146200027c57600080fd5b50565b600081359050620002908162000265565b92915050565b600060208284031215620002af57620002ae62000251565b5b6000620002bf848285016200027f565b91505092915050565b600073ffffffffffffffffffffffffffffffffffffffff82169050919050565b6000620002f582620002c8565b9050919050565b6200030781620002e8565b82525050565b6000602082019050620003246000830184620002fc565b92915050565b600081519050919050565b600082825260208201905092915050565b6000819050602082019050919050565b6200036181620002e8565b82525050565b600062000375838362000356565b60208301905092915050565b6000602082019050919050565b60006200039b826200032a565b620003a7818562000335565b9350620003b48362000346565b8060005b83811015620003eb578151620003cf888262000367565b9750620003dc8362000381565b925050600181019050620003b8565b5085935050505092915050565b600060208201905081810360008301526200041481846200038e565b905092915050565b600080fd5b600080fd5b6000601f19601f8301169050919050565b7f4e487b7100000000000000000000000000000000000000000000000000000000600052604160045260246000fd5b620004718262000426565b810181811067ffffffffffffffff8211171562000493576200049262000437565b5b80604052505050565b6000620004a862000247565b9050620004b6828262000466565b919050565b600067ffffffffffffffff821115620004d957620004d862000437565b5b620004e48262000426565b9050602081019050919050565b82818337600083830152505050565b6000620005176200051184620004bb565b6200049c565b90508281526020810184848401111562000536576200053562000421565b5b62000543848285620004f1565b509392505050565b600082601f8301126200056357620005626200041c565b5b81356200057584826020860162000500565b91505092915050565b60006020828403121562000597576200059662000251565b5b600082013567ffffffffffffffff811115620005b857620005b762000256565b5b620005c6848285016200054b565b91505092915050565b600081519050919050565b600082825260208201905092915050565b60005b838110156200060b578082015181840152602081019050620005ee565b838111156200061b576000848401525b50505050565b60006200062e82620005cf565b6200063a8185620005da565b93506200064c818560208601620005eb565b620006578162000426565b840191505092915050565b600060408201905081810360008301526200067e818562000621565b90506200068f6020830184620002fc565b939250505056fe60806040523480156200001157600080fd5b5060405162001f1438038062001f148339818101604052810190620000379190620003c5565b81600090805190602001906200004f92919062000113565b506001600260008373ffffffffffffffffffffffffffffffffffffffff1673ffffffffffffffffffffffffffffffffffffffff16815260200190815260200160002060006101000a81548160ff0219169083151502179055506003819080600181540180825580915050600190039060005260206000200160009091909190916101000a81548173ffffffffffffffffffffffffffffffffffffffff021916908373ffffffffffffffffffffffffffffffffffffffff160217905550505062000490565b82805462000121906200045a565b90600052602060002090601f01602090048101928262000145576000855562000191565b82601f106200016057805160ff191683800117855562000191565b8280016001018555821562000191579182015b828111156200019057825182559160200191906001019062000173565b5b509050620001a09190620001a4565b5090565b5b80821115620001bf576000816000905550600101620001a5565b5090565b6000604051905090565b600080fd5b600080fd5b600080fd5b600080fd5b6000601f19601f8301169050919050565b7f4e487b7100000000000000000000000000000000000000000000000000000000600052604160045260246000fd5b6200022c82620001e1565b810181811067ffffffffffffffff821117156200024e576200024d620001f2565b5b80604052505050565b600062000263620001c3565b905062000271828262000221565b919050565b600067ffffffffffffffff821115620002945762000293620001f2565b5b6200029f82620001e1565b9050602081019050919050565b60005b83811015620002cc578082015181840152602081019050620002af565b83811115620002dc576000848401525b50505050565b6000620002f9620002f38462000276565b62000257565b905082815260208101848484011115620003185762000317620001dc565b5b62000325848285620002ac565b509392505050565b600082601f830112620003455762000344620001d7565b5b815162000357848260208601620002e2565b91505092915050565b600073ffffffffffffffffffffffffffffffffffffffff82169050919050565b60006200038d8262000360565b9050919050565b6200039f8162000380565b8114620003ab57600080fd5b50565b600081519050620003bf8162000394565b92915050565b60008060408385031215620003df57620003de620001cd565b5b600083015167ffffffffffffffff8111156200040057620003ff620001d2565b5b6200040e858286016200032d565b92505060206200042185828601620003ae565b9150509250929050565b7f4e487b7100000000000000000000000000000000000000000000000000000000600052602260045260246000fd5b600060028204905060018216806200047357607f821691505b602082108114156200048a57620004896200042b565b5b50919050565b611a7480620004a06000396000f3fe608060405234801561001057600080fd5b506004361061009e5760003560e01c80639d3ed807116100665780639d3ed807146101605780639f0241d214610190578063dfa14e23146101c0578063e1715d24146101dc578063e8ae38e4146101f85761009e565b80633e5690f4146100a35780634051ddac146100d35780635cf298fb146100f45780636fc6c5791461011257806398b7962814610144575b600080fd5b6100bd60048036038101906100b89190611012565b610216565b6040516100ca919061105a565b60405180910390f35b6100db610236565b6040516100eb9493929190611403565b60405180910390f35b6100fc610584565b604051610109919061105a565b60405180910390f35b61012c60048036038101906101279190611490565b6105d8565b60405161013b939291906114db565b60405180910390f35b61015e60048036038101906101599190611490565b6106ba565b005b61017a60048036038101906101759190611490565b610b17565b6040516101879190611519565b60405180910390f35b6101aa60048036038101906101a59190611490565b610b56565b6040516101b79190611534565b60405180910390f35b6101da60048036038101906101d5919061168b565b610c02565b005b6101f660048036038101906101f1919061168b565b610d64565b005b610200610e2f565b60405161020d9190611534565b60405180910390f35b60026020528060005260406000206000915054906101000a900460ff1681565b606080606080600060016003600483805461025090611703565b80601f016020809104026020016040519081016040528092919081815260200182805461027c90611703565b80156102c95780601f1061029e576101008083540402835291602001916102c9565b820191906000526020600020905b8154815290600101906020018083116102ac57829003601f168201915b5050505050935082805480602002602001604051908101604052809291908181526020016000905b8282101561039d57838290600052602060002001805461031090611703565b80601f016020809104026020016040519081016040528092919081815260200182805461033c90611703565b80156103895780601f1061035e57610100808354040283529160200191610389565b820191906000526020600020905b81548152906001019060200180831161036c57829003601f168201915b5050505050815260200190600101906102f1565b5050505092508180548060200260200160405190810160405280929190818152602001828054801561042457602002820191906000526020600020905b8160009054906101000a900473ffffffffffffffffffffffffffffffffffffffff1673ffffffffffffffffffffffffffffffffffffffff16815260200190600101908083116103da575b5050505050915080805480602002602001604051908101604052809291908181526020016000905b82821015610570578382906000526020600020906003020160405180606001604052908160008201805461047f90611703565b80601f01602080910402602001604051908101604052809291908181526020018280546104ab90611703565b80156104f85780601f106104cd576101008083540402835291602001916104f8565b820191906000526020600020905b8154815290600101906020018083116104db57829003601f168201915b50505050508152602001600182015481526020016002820160009054906101000a900473ffffffffffffffffffffffffffffffffffffffff1673ffffffffffffffffffffffffffffffffffffffff1673ffffffffffffffffffffffffffffffffffffffff16815250508152602001906001019061044c565b505050509050935093509350935090919293565b6000600260003373ffffffffffffffffffffffffffffffffffffffff1673ffffffffffffffffffffffffffffffffffffffff16815260200190815260200160002060009054906101000a900460ff16905090565b600481815481106105e857600080fd5b906000526020600020906003020160009150905080600001805461060b90611703565b80601f016020809104026020016040519081016040528092919081815260200182805461063790611703565b80156106845780601f1061065957610100808354040283529160200191610684565b820191906000526020600020905b81548152906001019060200180831161066757829003601f168201915b5050505050908060010154908060020160009054906101000a900473ffffffffffffffffffffffffffffffffffffffff16905083565b600260003373ffffffffffffffffffffffffffffffffffffffff1673ffffffffffffffffffffffffffffffffffffffff16815260200190815260200160002060009054906101000a900460ff16610746576040517f08c379a000000000000000000000000000000000000000000000000000000000815260040161073d906117a7565b60405180910390fd5b600260006004838154811061075e5761075d6117c7565b5b906000526020600020906003020160020160009054906101000a900473ffffffffffffffffffffffffffffffffffffffff1673ffffffffffffffffffffffffffffffffffffffff1673ffffffffffffffffffffffffffffffffffffffff16815260200190815260200160002060009054906101000a900460ff1615610818576040517f08c379a000000000000000000000000000000000000000000000000000000000815260040161080f90611868565b60405180910390fd5b6000600160048054905061082c91906118b7565b9050600060048281548110610844576108436117c7565b5b906000526020600020906003020160405180606001604052908160008201805461086d90611703565b80601f016020809104026020016040519081016040528092919081815260200182805461089990611703565b80156108e65780601f106108bb576101008083540402835291602001916108e6565b820191906000526020600020905b8154815290600101906020018083116108c957829003601f168201915b50505050508152602001600182015481526020016002820160009054906101000a900473ffffffffffffffffffffffffffffffffffffffff1673ffffffffffffffffffffffffffffffffffffffff1673ffffffffffffffffffffffffffffffffffffffff168152505090508060048481548110610966576109656117c7565b5b90600052602060002090600302016000820151816000019080519060200190610990929190610ebd565b506020820151816001015560408201518160020160006101000a81548173ffffffffffffffffffffffffffffffffffffffff021916908373ffffffffffffffffffffffffffffffffffffffff16021790555090505060048054806109f7576109f66118eb565b5b600190038181906000526020600020906003020160008082016000610a1c9190610f43565b60018201600090556002820160006101000a81549073ffffffffffffffffffffffffffffffffffffffff021916905550509055600160026000836040015173ffffffffffffffffffffffffffffffffffffffff1673ffffffffffffffffffffffffffffffffffffffff16815260200190815260200160002060006101000a81548160ff021916908315150217905550600381604001519080600181540180825580915050600190039060005260206000200160009091909190916101000a81548173ffffffffffffffffffffffffffffffffffffffff021916908373ffffffffffffffffffffffffffffffffffffffff160217905550505050565b60038181548110610b2757600080fd5b906000526020600020016000915054906101000a900473ffffffffffffffffffffffffffffffffffffffff1681565b60018181548110610b6657600080fd5b906000526020600020016000915090508054610b8190611703565b80601f0160208091040260200160405190810160405280929190818152602001828054610bad90611703565b8015610bfa5780601f10610bcf57610100808354040283529160200191610bfa565b820191906000526020600020905b815481529060010190602001808311610bdd57829003601f168201915b505050505081565b600260003373ffffffffffffffffffffffffffffffffffffffff1673ffffffffffffffffffffffffffffffffffffffff16815260200190815260200160002060009054906101000a900460ff1615610c8f576040517f08c379a0000000000000000000000000000000000000000000000000000000008152600401610c869061198c565b60405180910390fd5b600060405180606001604052808381526020014281526020013373ffffffffffffffffffffffffffffffffffffffff16815250905060048190806001815401808255809150506001900390600052602060002090600302016000909190919091506000820151816000019080519060200190610d0c929190610ebd565b506020820151816001015560408201518160020160006101000a81548173ffffffffffffffffffffffffffffffffffffffff021916908373ffffffffffffffffffffffffffffffffffffffff16021790555050505050565b600260003373ffffffffffffffffffffffffffffffffffffffff1673ffffffffffffffffffffffffffffffffffffffff16815260200190815260200160002060009054906101000a900460ff16610df0576040517f08c379a0000000000000000000000000000000000000000000000000000000008152600401610de790611a1e565b60405180910390fd5b600181908060018154018082558091505060019003906000526020600020016000909190919091509080519060200190610e2b929190610ebd565b5050565b60008054610e3c90611703565b80601f0160208091040260200160405190810160405280929190818152602001828054610e6890611703565b8015610eb55780601f10610e8a57610100808354040283529160200191610eb5565b820191906000526020600020905b815481529060010190602001808311610e9857829003601f168201915b505050505081565b828054610ec990611703565b90600052602060002090601f016020900481019282610eeb5760008555610f32565b82601f10610f0457805160ff1916838001178555610f32565b82800160010185558215610f32579182015b82811115610f31578251825591602001919060010190610f16565b5b509050610f3f9190610f83565b5090565b508054610f4f90611703565b6000825580601f10610f615750610f80565b601f016020900490600052602060002090810190610f7f9190610f83565b5b50565b5b80821115610f9c576000816000905550600101610f84565b5090565b6000604051905090565b600080fd5b600080fd5b600073ffffffffffffffffffffffffffffffffffffffff82169050919050565b6000610fdf82610fb4565b9050919050565b610fef81610fd4565b8114610ffa57600080fd5b50565b60008135905061100c81610fe6565b92915050565b60006020828403121561102857611027610faa565b5b600061103684828501610ffd565b91505092915050565b60008115159050919050565b6110548161103f565b82525050565b600060208201905061106f600083018461104b565b92915050565b600081519050919050565b600082825260208201905092915050565b60005b838110156110af578082015181840152602081019050611094565b838111156110be576000848401525b50505050565b6000601f19601f8301169050919050565b60006110e082611075565b6110ea8185611080565b93506110fa818560208601611091565b611103816110c4565b840191505092915050565b600081519050919050565b600082825260208201905092915050565b6000819050602082019050919050565b600082825260208201905092915050565b600061115682611075565b611160818561113a565b9350611170818560208601611091565b611179816110c4565b840191505092915050565b6000611190838361114b565b905092915050565b6000602082019050919050565b60006111b08261110e565b6111ba8185611119565b9350836020820285016111cc8561112a565b8060005b8581101561120857848403895281516111e98582611184565b94506111f483611198565b925060208a019950506001810190506111d0565b50829750879550505050505092915050565b600081519050919050565b600082825260208201905092915050565b6000819050602082019050919050565b61124f81610fd4565b82525050565b60006112618383611246565b60208301905092915050565b6000602082019050919050565b60006112858261121a565b61128f8185611225565b935061129a83611236565b8060005b838110156112cb5781516112b28882611255565b97506112bd8361126d565b92505060018101905061129e565b5085935050505092915050565b600081519050919050565b600082825260208201905092915050565b6000819050602082019050919050565b6000819050919050565b61131781611304565b82525050565b6000606083016000830151848203600086015261133a828261114b565b915050602083015161134f602086018261130e565b5060408301516113626040860182611246565b508091505092915050565b6000611379838361131d565b905092915050565b6000602082019050919050565b6000611399826112d8565b6113a381856112e3565b9350836020820285016113b5856112f4565b8060005b858110156113f157848403895281516113d2858261136d565b94506113dd83611381565b925060208a019950506001810190506113b9565b50829750879550505050505092915050565b6000608082019050818103600083015261141d81876110d5565b9050818103602083015261143181866111a5565b90508181036040830152611445818561127a565b90508181036060830152611459818461138e565b905095945050505050565b61146d81611304565b811461147857600080fd5b50565b60008135905061148a81611464565b92915050565b6000602082840312156114a6576114a5610faa565b5b60006114b48482850161147b565b91505092915050565b6114c681611304565b82525050565b6114d581610fd4565b82525050565b600060608201905081810360008301526114f581866110d5565b905061150460208301856114bd565b61151160408301846114cc565b949350505050565b600060208201905061152e60008301846114cc565b92915050565b6000602082019050818103600083015261154e81846110d5565b905092915050565b600080fd5b600080fd5b7f4e487b7100000000000000000000000000000000000000000000000000000000600052604160045260246000fd5b611598826110c4565b810181811067ffffffffffffffff821117156115b7576115b6611560565b5b80604052505050565b60006115ca610fa0565b90506115d6828261158f565b919050565b600067ffffffffffffffff8211156115f6576115f5611560565b5b6115ff826110c4565b9050602081019050919050565b82818337600083830152505050565b600061162e611629846115db565b6115c0565b90508281526020810184848401111561164a5761164961155b565b5b61165584828561160c565b509392505050565b600082601f83011261167257611671611556565b5b813561168284826020860161161b565b91505092915050565b6000602082840312156116a1576116a0610faa565b5b600082013567ffffffffffffffff8111156116bf576116be610faf565b5b6116cb8482850161165d565b91505092915050565b7f4e487b7100000000000000000000000000000000000000000000000000000000600052602260045260246000fd5b6000600282049050600182168061171b57607f821691505b6020821081141561172f5761172e6116d4565b5b50919050565b7f4f6e6c7920616e20616363657074656420617574686f722063616e206170707260008201527f6f76652061207265717565737400000000000000000000000000000000000000602082015250565b6000611791602d83611080565b915061179c82611735565b604082019050919050565b600060208201905081810360008301526117c081611784565b9050919050565b7f4e487b7100000000000000000000000000000000000000000000000000000000600052603260045260246000fd5b7f417574686f72206f6620746865207265717565737420697320616c726561647960008201527f20696e636c7564656420696e20746865206c697374206f6620617574686f7273602082015250565b6000611852604083611080565b915061185d826117f6565b604082019050919050565b6000602082019050818103600083015261188181611845565b9050919050565b7f4e487b7100000000000000000000000000000000000000000000000000000000600052601160045260246000fd5b60006118c282611304565b91506118cd83611304565b9250828210156118e0576118df611888565b5b828203905092915050565b7f4e487b7100000000000000000000000000000000000000000000000000000000600052603160045260246000fd5b7f417574686f7220616c72656164792065786973747320696e20746865206c697360008201527f74206f6620617574686f72730000000000000000000000000000000000000000602082015250565b6000611976602c83611080565b91506119818261191a565b604082019050919050565b600060208201905081810360008301526119a581611969565b9050919050565b7f4f6e6c7920616e20616363657074656420617574686f722063616e206164642060008201527f6120636861707465720000000000000000000000000000000000000000000000602082015250565b6000611a08602983611080565b9150611a13826119ac565b604082019050919050565b60006020820190508181036000830152611a37816119fb565b905091905056fea2646970667358221220f4d75e220c71aa05d21406a04225dba3fec6f820fcbdad47f03e7834f50b50de64736f6c63430008090033a264697066735822122086d2ec6ebf182ce1dca6d29521363e906ff819fd9caa27cfd2d0ebabd4e205ec64736f6c63430008090033","opcodes":"PUSH1 0x80 PUSH1 0x40 MSTORE CALLVALUE DUP1 ISZERO PUSH2 0x10 JUMPI PUSH1 0x0 DUP1 REVERT JUMPDEST POP PUSH2 0x25E0 DUP1 PUSH2 0x20 PUSH1 0x0 CODECOPY PUSH1 0x0 RETURN INVALID PUSH1 0x80 PUSH1 0x40 MSTORE CALLVALUE DUP1 ISZERO PUSH3 0x11 JUMPI PUSH1 0x0 DUP1 REVERT JUMPDEST POP PUSH1 0x4 CALLDATASIZE LT PUSH3 0x46 JUMPI PUSH1 0x0 CALLDATALOAD PUSH1 0xE0 SHR DUP1 PUSH4 0x18351EA7 EQ PUSH3 0x4B JUMPI DUP1 PUSH4 0x2FF2BDD5 EQ PUSH3 0x81 JUMPI DUP1 PUSH4 0x9D9F92D8 EQ PUSH3 0xA3 JUMPI JUMPDEST PUSH1 0x0 DUP1 REVERT JUMPDEST PUSH3 0x69 PUSH1 0x4 DUP1 CALLDATASIZE SUB DUP2 ADD SWAP1 PUSH3 0x63 SWAP2 SWAP1 PUSH3 0x296 JUMP JUMPDEST PUSH3 0xC3 JUMP JUMPDEST PUSH1 0x40 MLOAD PUSH3 0x78 SWAP2 SWAP1 PUSH3 0x30D JUMP JUMPDEST PUSH1 0x40 MLOAD DUP1 SWAP2 SUB SWAP1 RETURN JUMPDEST PUSH3 0x8B PUSH3 0x103 JUMP JUMPDEST PUSH1 0x40 MLOAD PUSH3 0x9A SWAP2 SWAP1 PUSH3 0x3F8 JUMP JUMPDEST PUSH1 0x40 MLOAD DUP1 SWAP2 SUB SWAP1 RETURN JUMPDEST PUSH3 0xC1 PUSH1 0x4 DUP1 CALLDATASIZE SUB DUP2 ADD SWAP1 PUSH3 0xBB SWAP2 SWAP1 PUSH3 0x57E JUMP JUMPDEST PUSH3 0x193 JUMP JUMPDEST STOP JUMPDEST PUSH1 0x0 DUP2 DUP2 SLOAD DUP2 LT PUSH3 0xD4 JUMPI PUSH1 0x0 DUP1 REVERT JUMPDEST SWAP1 PUSH1 0x0 MSTORE PUSH1 0x20 PUSH1 0x0 KECCAK256 ADD PUSH1 0x0 SWAP2 POP SLOAD SWAP1 PUSH2 0x100 EXP SWAP1 DIV PUSH20 0xFFFFFFFFFFFFFFFFFFFFFFFFFFFFFFFFFFFFFFFF AND DUP2 JUMP JUMPDEST PUSH1 0x60 PUSH1 0x0 DUP1 SLOAD DUP1 PUSH1 0x20 MUL PUSH1 0x20 ADD PUSH1 0x40 MLOAD SWAP1 DUP2 ADD PUSH1 0x40 MSTORE DUP1 SWAP3 SWAP2 SWAP1 DUP2 DUP2 MSTORE PUSH1 0x20 ADD DUP3 DUP1 SLOAD DUP1 ISZERO PUSH3 0x189 JUMPI PUSH1 0x20 MUL DUP3 ADD SWAP2 SWAP1 PUSH1 0x0 MSTORE PUSH1 0x20 PUSH1 0x0 KECCAK256 SWAP1 JUMPDEST DUP2 PUSH1 0x0 SWAP1 SLOAD SWAP1 PUSH2 0x100 EXP SWAP1 DIV PUSH20 0xFFFFFFFFFFFFFFFFFFFFFFFFFFFFFFFFFFFFFFFF AND PUSH20 0xFFFFFFFFFFFFFFFFFFFFFFFFFFFFFFFFFFFFFFFF AND DUP2 MSTORE PUSH1 0x20 ADD SWAP1 PUSH1 0x1 ADD SWAP1 DUP1 DUP4 GT PUSH3 0x13E JUMPI JUMPDEST POP POP POP POP POP SWAP1 POP SWAP1 JUMP JUMPDEST PUSH1 0x0 DUP2 CALLER PUSH1 0x40 MLOAD PUSH3 0x1A5 SWAP1 PUSH3 0x239 JUMP JUMPDEST PUSH3 0x1B2 SWAP3 SWAP2 SWAP1 PUSH3 0x662 JUMP JUMPDEST PUSH1 0x40 MLOAD DUP1 SWAP2 SUB SWAP1 PUSH1 0x0 CREATE DUP1 ISZERO DUP1 ISZERO PUSH3 0x1CF JUMPI RETURNDATASIZE PUSH1 0x0 DUP1 RETURNDATACOPY RETURNDATASIZE PUSH1 0x0 REVERT JUMPDEST POP SWAP1 POP PUSH1 0x0 DUP2 SWAP1 DUP1 PUSH1 0x1 DUP2 SLOAD ADD DUP1 DUP3 SSTORE DUP1 SWAP2 POP POP PUSH1 0x1 SWAP1 SUB SWAP1 PUSH1 0x0 MSTORE PUSH1 0x20 PUSH1 0x0 KECCAK256 ADD PUSH1 0x0 SWAP1 SWAP2 SWAP1 SWAP2 SWAP1 SWAP2 PUSH2 0x100 EXP DUP2 SLOAD DUP2 PUSH20 0xFFFFFFFFFFFFFFFFFFFFFFFFFFFFFFFFFFFFFFFF MUL NOT AND SWAP1 DUP4 PUSH20 0xFFFFFFFFFFFFFFFFFFFFFFFFFFFFFFFFFFFFFFFF AND MUL OR SWAP1 SSTORE POP POP POP JUMP JUMPDEST PUSH2 0x1F14 DUP1 PUSH3 0x697 DUP4 CODECOPY ADD SWAP1 JUMP JUMPDEST PUSH1 0x0 PUSH1 0x40 MLOAD SWAP1 POP SWAP1 JUMP JUMPDEST PUSH1 0x0 DUP1 REVERT JUMPDEST PUSH1 0x0 DUP1 REVERT JUMPDEST PUSH1 0x0 DUP2 SWAP1 POP SWAP2 SWAP1 POP JUMP JUMPDEST PUSH3 0x270 DUP2 PUSH3 0x25B JUMP JUMPDEST DUP2 EQ PUSH3 0x27C JUMPI PUSH1 0x0 DUP1 REVERT JUMPDEST POP JUMP JUMPDEST PUSH1 0x0 DUP2 CALLDATALOAD SWAP1 POP PUSH3 0x290 DUP2 PUSH3 0x265 JUMP JUMPDEST SWAP3 SWAP2 POP POP JUMP JUMPDEST PUSH1 0x0 PUSH1 0x20 DUP3 DUP5 SUB SLT ISZERO PUSH3 0x2AF JUMPI PUSH3 0x2AE PUSH3 0x251 JUMP JUMPDEST JUMPDEST PUSH1 0x0 PUSH3 0x2BF DUP5 DUP3 DUP6 ADD PUSH3 0x27F JUMP JUMPDEST SWAP2 POP POP SWAP3 SWAP2 POP POP JUMP JUMPDEST PUSH1 0x0 PUSH20 0xFFFFFFFFFFFFFFFFFFFFFFFFFFFFFFFFFFFFFFFF DUP3 AND SWAP1 POP SWAP2 SWAP1 POP JUMP JUMPDEST PUSH1 0x0 PUSH3 0x2F5 DUP3 PUSH3 0x2C8 JUMP JUMPDEST SWAP1 POP SWAP2 SWAP1 POP JUMP JUMPDEST PUSH3 0x307 DUP2 PUSH3 0x2E8 JUMP JUMPDEST DUP3 MSTORE POP POP JUMP JUMPDEST PUSH1 0x0 PUSH1 0x20 DUP3 ADD SWAP1 POP PUSH3 0x324 PUSH1 0x0 DUP4 ADD DUP5 PUSH3 0x2FC JUMP JUMPDEST SWAP3 SWAP2 POP POP JUMP JUMPDEST PUSH1 0x0 DUP2 MLOAD SWAP1 POP SWAP2 SWAP1 POP JUMP JUMPDEST PUSH1 0x0 DUP3 DUP3 MSTORE PUSH1 0x20 DUP3 ADD SWAP1 POP SWAP3 SWAP2 POP POP JUMP JUMPDEST PUSH1 0x0 DUP2 SWAP1 POP PUSH1 0x20 DUP3 ADD SWAP1 POP SWAP2 SWAP1 POP JUMP JUMPDEST PUSH3 0x361 DUP2 PUSH3 0x2E8 JUMP JUMPDEST DUP3 MSTORE POP POP JUMP JUMPDEST PUSH1 0x0 PUSH3 0x375 DUP4 DUP4 PUSH3 0x356 JUMP JUMPDEST PUSH1 0x20 DUP4 ADD SWAP1 POP SWAP3 SWAP2 POP POP JUMP JUMPDEST PUSH1 0x0 PUSH1 0x20 DUP3 ADD SWAP1 POP SWAP2 SWAP1 POP JUMP JUMPDEST PUSH1 0x0 PUSH3 0x39B DUP3 PUSH3 0x32A JUMP JUMPDEST PUSH3 0x3A7 DUP2 DUP6 PUSH3 0x335 JUMP JUMPDEST SWAP4 POP PUSH3 0x3B4 DUP4 PUSH3 0x346 JUMP JUMPDEST DUP1 PUSH1 0x0 JUMPDEST DUP4 DUP2 LT ISZERO PUSH3 0x3EB JUMPI DUP2 MLOAD PUSH3 0x3CF DUP9 DUP3 PUSH3 0x367 JUMP JUMPDEST SWAP8 POP PUSH3 0x3DC DUP4 PUSH3 0x381 JUMP JUMPDEST SWAP3 POP POP PUSH1 0x1 DUP2 ADD SWAP1 POP PUSH3 0x3B8 JUMP JUMPDEST POP DUP6 SWAP4 POP POP POP POP SWAP3 SWAP2 POP POP JUMP JUMPDEST PUSH1 0x0 PUSH1 0x20 DUP3 ADD SWAP1 POP DUP2 DUP2 SUB PUSH1 0x0 DUP4 ADD MSTORE PUSH3 0x414 DUP2 DUP5 PUSH3 0x38E JUMP JUMPDEST SWAP1 POP SWAP3 SWAP2 POP POP JUMP JUMPDEST PUSH1 0x0 DUP1 REVERT JUMPDEST PUSH1 0x0 DUP1 REVERT JUMPDEST PUSH1 0x0 PUSH1 0x1F NOT PUSH1 0x1F DUP4 ADD AND SWAP1 POP SWAP2 SWAP1 POP JUMP JUMPDEST PUSH32 0x4E487B7100000000000000000000000000000000000000000000000000000000 PUSH1 0x0 MSTORE PUSH1 0x41 PUSH1 0x4 MSTORE PUSH1 0x24 PUSH1 0x0 REVERT JUMPDEST PUSH3 0x471 DUP3 PUSH3 0x426 JUMP JUMPDEST DUP2 ADD DUP2 DUP2 LT PUSH8 0xFFFFFFFFFFFFFFFF DUP3 GT OR ISZERO PUSH3 0x493 JUMPI PUSH3 0x492 PUSH3 0x437 JUMP JUMPDEST JUMPDEST DUP1 PUSH1 0x40 MSTORE POP POP POP JUMP JUMPDEST PUSH1 0x0 PUSH3 0x4A8 PUSH3 0x247 JUMP JUMPDEST SWAP1 POP PUSH3 0x4B6 DUP3 DUP3 PUSH3 0x466 JUMP JUMPDEST SWAP2 SWAP1 POP JUMP JUMPDEST PUSH1 0x0 PUSH8 0xFFFFFFFFFFFFFFFF DUP3 GT ISZERO PUSH3 0x4D9 JUMPI PUSH3 0x4D8 PUSH3 0x437 JUMP JUMPDEST JUMPDEST PUSH3 0x4E4 DUP3 PUSH3 0x426 JUMP JUMPDEST SWAP1 POP PUSH1 0x20 DUP2 ADD SWAP1 POP SWAP2 SWAP1 POP JUMP JUMPDEST DUP3 DUP2 DUP4 CALLDATACOPY PUSH1 0x0 DUP4 DUP4 ADD MSTORE POP POP POP JUMP JUMPDEST PUSH1 0x0 PUSH3 0x517 PUSH3 0x511 DUP5 PUSH3 0x4BB JUMP JUMPDEST PUSH3 0x49C JUMP JUMPDEST SWAP1 POP DUP3 DUP2 MSTORE PUSH1 0x20 DUP2 ADD DUP5 DUP5 DUP5 ADD GT ISZERO PUSH3 0x536 JUMPI PUSH3 0x535 PUSH3 0x421 JUMP JUMPDEST JUMPDEST PUSH3 0x543 DUP5 DUP3 DUP6 PUSH3 0x4F1 JUMP JUMPDEST POP SWAP4 SWAP3 POP POP POP JUMP JUMPDEST PUSH1 0x0 DUP3 PUSH1 0x1F DUP4 ADD SLT PUSH3 0x563 JUMPI PUSH3 0x562 PUSH3 0x41C JUMP JUMPDEST JUMPDEST DUP2 CALLDATALOAD PUSH3 0x575 DUP5 DUP3 PUSH1 0x20 DUP7 ADD PUSH3 0x500 JUMP JUMPDEST SWAP2 POP POP SWAP3 SWAP2 POP POP JUMP JUMPDEST PUSH1 0x0 PUSH1 0x20 DUP3 DUP5 SUB SLT ISZERO PUSH3 0x597 JUMPI PUSH3 0x596 PUSH3 0x251 JUMP JUMPDEST JUMPDEST PUSH1 0x0 DUP3 ADD CALLDATALOAD PUSH8 0xFFFFFFFFFFFFFFFF DUP2 GT ISZERO PUSH3 0x5B8 JUMPI PUSH3 0x5B7 PUSH3 0x256 JUMP JUMPDEST JUMPDEST PUSH3 0x5C6 DUP5 DUP3 DUP6 ADD PUSH3 0x54B JUMP JUMPDEST SWAP2 POP POP SWAP3 SWAP2 POP POP JUMP JUMPDEST PUSH1 0x0 DUP2 MLOAD SWAP1 POP SWAP2 SWAP1 POP JUMP JUMPDEST PUSH1 0x0 DUP3 DUP3 MSTORE PUSH1 0x20 DUP3 ADD SWAP1 POP SWAP3 SWAP2 POP POP JUMP JUMPDEST PUSH1 0x0 JUMPDEST DUP4 DUP2 LT ISZERO PUSH3 0x60B JUMPI DUP1 DUP3 ADD MLOAD DUP2 DUP5 ADD MSTORE PUSH1 0x20 DUP2 ADD SWAP1 POP PUSH3 0x5EE JUMP JUMPDEST DUP4 DUP2 GT ISZERO PUSH3 0x61B JUMPI PUSH1 0x0 DUP5 DUP5 ADD MSTORE JUMPDEST POP POP POP POP JUMP JUMPDEST PUSH1 0x0 PUSH3 0x62E DUP3 PUSH3 0x5CF JUMP JUMPDEST PUSH3 0x63A DUP2 DUP6 PUSH3 0x5DA JUMP JUMPDEST SWAP4 POP PUSH3 0x64C DUP2 DUP6 PUSH1 0x20 DUP7 ADD PUSH3 0x5EB JUMP JUMPDEST PUSH3 0x657 DUP2 PUSH3 0x426 JUMP JUMPDEST DUP5 ADD SWAP2 POP POP SWAP3 SWAP2 POP POP JUMP JUMPDEST PUSH1 0x0 PUSH1 0x40 DUP3 ADD SWAP1 POP DUP2 DUP2 SUB PUSH1 0x0 DUP4 ADD MSTORE PUSH3 0x67E DUP2 DUP6 PUSH3 0x621 JUMP JUMPDEST SWAP1 POP PUSH3 0x68F PUSH1 0x20 DUP4 ADD DUP5 PUSH3 0x2FC JUMP JUMPDEST SWAP4 SWAP3 POP POP POP JUMP INVALID PUSH1 0x80 PUSH1 0x40 MSTORE CALLVALUE DUP1 ISZERO PUSH3 0x11 JUMPI PUSH1 0x0 DUP1 REVERT JUMPDEST POP PUSH1 0x40 MLOAD PUSH3 0x1F14 CODESIZE SUB DUP1 PUSH3 0x1F14 DUP4 CODECOPY DUP2 DUP2 ADD PUSH1 0x40 MSTORE DUP2 ADD SWAP1 PUSH3 0x37 SWAP2 SWAP1 PUSH3 0x3C5 JUMP JUMPDEST DUP2 PUSH1 0x0 SWAP1 DUP1 MLOAD SWAP1 PUSH1 0x20 ADD SWAP1 PUSH3 0x4F SWAP3 SWAP2 SWAP1 PUSH3 0x113 JUMP JUMPDEST POP PUSH1 0x1 PUSH1 0x2 PUSH1 0x0 DUP4 PUSH20 0xFFFFFFFFFFFFFFFFFFFFFFFFFFFFFFFFFFFFFFFF AND PUSH20 0xFFFFFFFFFFFFFFFFFFFFFFFFFFFFFFFFFFFFFFFF AND DUP2 MSTORE PUSH1 0x20 ADD SWAP1 DUP2 MSTORE PUSH1 0x20 ADD PUSH1 0x0 KECCAK256 PUSH1 0x0 PUSH2 0x100 EXP DUP2 SLOAD DUP2 PUSH1 0xFF MUL NOT AND SWAP1 DUP4 ISZERO ISZERO MUL OR SWAP1 SSTORE POP PUSH1 0x3 DUP2 SWAP1 DUP1 PUSH1 0x1 DUP2 SLOAD ADD DUP1 DUP3 SSTORE DUP1 SWAP2 POP POP PUSH1 0x1 SWAP1 SUB SWAP1 PUSH1 0x0 MSTORE PUSH1 0x20 PUSH1 0x0 KECCAK256 ADD PUSH1 0x0 SWAP1 SWAP2 SWAP1 SWAP2 SWAP1 SWAP2 PUSH2 0x100 EXP DUP2 SLOAD DUP2 PUSH20 0xFFFFFFFFFFFFFFFFFFFFFFFFFFFFFFFFFFFFFFFF MUL NOT AND SWAP1 DUP4 PUSH20 0xFFFFFFFFFFFFFFFFFFFFFFFFFFFFFFFFFFFFFFFF AND MUL OR SWAP1 SSTORE POP POP POP PUSH3 0x490 JUMP JUMPDEST DUP3 DUP1 SLOAD PUSH3 0x121 SWAP1 PUSH3 0x45A JUMP JUMPDEST SWAP1 PUSH1 0x0 MSTORE PUSH1 0x20 PUSH1 0x0 KECCAK256 SWAP1 PUSH1 0x1F ADD PUSH1 0x20 SWAP1 DIV DUP2 ADD SWAP3 DUP3 PUSH3 0x145 JUMPI PUSH1 0x0 DUP6 SSTORE PUSH3 0x191 JUMP JUMPDEST DUP3 PUSH1 0x1F LT PUSH3 0x160 JUMPI DUP1 MLOAD PUSH1 0xFF NOT AND DUP4 DUP1 ADD OR DUP6 SSTORE PUSH3 0x191 JUMP JUMPDEST DUP3 DUP1 ADD PUSH1 0x1 ADD DUP6 SSTORE DUP3 ISZERO PUSH3 0x191 JUMPI SWAP2 DUP3 ADD JUMPDEST DUP3 DUP2 GT ISZERO PUSH3 0x190 JUMPI DUP3 MLOAD DUP3 SSTORE SWAP2 PUSH1 0x20 ADD SWAP2 SWAP1 PUSH1 0x1 ADD SWAP1 PUSH3 0x173 JUMP JUMPDEST JUMPDEST POP SWAP1 POP PUSH3 0x1A0 SWAP2 SWAP1 PUSH3 0x1A4 JUMP JUMPDEST POP SWAP1 JUMP JUMPDEST JUMPDEST DUP1 DUP3 GT ISZERO PUSH3 0x1BF JUMPI PUSH1 0x0 DUP2 PUSH1 0x0 SWAP1 SSTORE POP PUSH1 0x1 ADD PUSH3 0x1A5 JUMP JUMPDEST POP SWAP1 JUMP JUMPDEST PUSH1 0x0 PUSH1 0x40 MLOAD SWAP1 POP SWAP1 JUMP JUMPDEST PUSH1 0x0 DUP1 REVERT JUMPDEST PUSH1 0x0 DUP1 REVERT JUMPDEST PUSH1 0x0 DUP1 REVERT JUMPDEST PUSH1 0x0 DUP1 REVERT JUMPDEST PUSH1 0x0 PUSH1 0x1F NOT PUSH1 0x1F DUP4 ADD AND SWAP1 POP SWAP2 SWAP1 POP JUMP JUMPDEST PUSH32 0x4E487B7100000000000000000000000000000000000000000000000000000000 PUSH1 0x0 MSTORE PUSH1 0x41 PUSH1 0x4 MSTORE PUSH1 0x24 PUSH1 0x0 REVERT JUMPDEST PUSH3 0x22C DUP3 PUSH3 0x1E1 JUMP JUMPDEST DUP2 ADD DUP2 DUP2 LT PUSH8 0xFFFFFFFFFFFFFFFF DUP3 GT OR ISZERO PUSH3 0x24E JUMPI PUSH3 0x24D PUSH3 0x1F2 JUMP JUMPDEST JUMPDEST DUP1 PUSH1 0x40 MSTORE POP POP POP JUMP JUMPDEST PUSH1 0x0 PUSH3 0x263 PUSH3 0x1C3 JUMP JUMPDEST SWAP1 POP PUSH3 0x271 DUP3 DUP3 PUSH3 0x221 JUMP JUMPDEST SWAP2 SWAP1 POP JUMP JUMPDEST PUSH1 0x0 PUSH8 0xFFFFFFFFFFFFFFFF DUP3 GT ISZERO PUSH3 0x294 JUMPI PUSH3 0x293 PUSH3 0x1F2 JUMP JUMPDEST JUMPDEST PUSH3 0x29F DUP3 PUSH3 0x1E1 JUMP JUMPDEST SWAP1 POP PUSH1 0x20 DUP2 ADD SWAP1 POP SWAP2 SWAP1 POP JUMP JUMPDEST PUSH1 0x0 JUMPDEST DUP4 DUP2 LT ISZERO PUSH3 0x2CC JUMPI DUP1 DUP3 ADD MLOAD DUP2 DUP5 ADD MSTORE PUSH1 0x20 DUP2 ADD SWAP1 POP PUSH3 0x2AF JUMP JUMPDEST DUP4 DUP2 GT ISZERO PUSH3 0x2DC JUMPI PUSH1 0x0 DUP5 DUP5 ADD MSTORE JUMPDEST POP POP POP POP JUMP JUMPDEST PUSH1 0x0 PUSH3 0x2F9 PUSH3 0x2F3 DUP5 PUSH3 0x276 JUMP JUMPDEST PUSH3 0x257 JUMP JUMPDEST SWAP1 POP DUP3 DUP2 MSTORE PUSH1 0x20 DUP2 ADD DUP5 DUP5 DUP5 ADD GT ISZERO PUSH3 0x318 JUMPI PUSH3 0x317 PUSH3 0x1DC JUMP JUMPDEST JUMPDEST PUSH3 0x325 DUP5 DUP3 DUP6 PUSH3 0x2AC JUMP JUMPDEST POP SWAP4 SWAP3 POP POP POP JUMP JUMPDEST PUSH1 0x0 DUP3 PUSH1 0x1F DUP4 ADD SLT PUSH3 0x345 JUMPI PUSH3 0x344 PUSH3 0x1D7 JUMP JUMPDEST JUMPDEST DUP2 MLOAD PUSH3 0x357 DUP5 DUP3 PUSH1 0x20 DUP7 ADD PUSH3 0x2E2 JUMP JUMPDEST SWAP2 POP POP SWAP3 SWAP2 POP POP JUMP JUMPDEST PUSH1 0x0 PUSH20 0xFFFFFFFFFFFFFFFFFFFFFFFFFFFFFFFFFFFFFFFF DUP3 AND SWAP1 POP SWAP2 SWAP1 POP JUMP JUMPDEST PUSH1 0x0 PUSH3 0x38D DUP3 PUSH3 0x360 JUMP JUMPDEST SWAP1 POP SWAP2 SWAP1 POP JUMP JUMPDEST PUSH3 0x39F DUP2 PUSH3 0x380 JUMP JUMPDEST DUP2 EQ PUSH3 0x3AB JUMPI PUSH1 0x0 DUP1 REVERT JUMPDEST POP JUMP JUMPDEST PUSH1 0x0 DUP2 MLOAD SWAP1 POP PUSH3 0x3BF DUP2 PUSH3 0x394 JUMP JUMPDEST SWAP3 SWAP2 POP POP JUMP JUMPDEST PUSH1 0x0 DUP1 PUSH1 0x40 DUP4 DUP6 SUB SLT ISZERO PUSH3 0x3DF JUMPI PUSH3 0x3DE PUSH3 0x1CD JUMP JUMPDEST JUMPDEST PUSH1 0x0 DUP4 ADD MLOAD PUSH8 0xFFFFFFFFFFFFFFFF DUP2 GT ISZERO PUSH3 0x400 JUMPI PUSH3 0x3FF PUSH3 0x1D2 JUMP JUMPDEST JUMPDEST PUSH3 0x40E DUP6 DUP3 DUP7 ADD PUSH3 0x32D JUMP JUMPDEST SWAP3 POP POP PUSH1 0x20 PUSH3 0x421 DUP6 DUP3 DUP7 ADD PUSH3 0x3AE JUMP JUMPDEST SWAP2 POP POP SWAP3 POP SWAP3 SWAP1 POP JUMP JUMPDEST PUSH32 0x4E487B7100000000000000000000000000000000000000000000000000000000 PUSH1 0x0 MSTORE PUSH1 0x22 PUSH1 0x4 MSTORE PUSH1 0x24 PUSH1 0x0 REVERT JUMPDEST PUSH1 0x0 PUSH1 0x2 DUP3 DIV SWAP1 POP PUSH1 0x1 DUP3 AND DUP1 PUSH3 0x473 JUMPI PUSH1 0x7F DUP3 AND SWAP2 POP JUMPDEST PUSH1 0x20 DUP3 LT DUP2 EQ ISZERO PUSH3 0x48A JUMPI PUSH3 0x489 PUSH3 0x42B JUMP JUMPDEST JUMPDEST POP SWAP2 SWAP1 POP JUMP JUMPDEST PUSH2 0x1A74 DUP1 PUSH3 0x4A0 PUSH1 0x0 CODECOPY PUSH1 0x0 RETURN INVALID PUSH1 0x80 PUSH1 0x40 MSTORE CALLVALUE DUP1 ISZERO PUSH2 0x10 JUMPI PUSH1 0x0 DUP1 REVERT JUMPDEST POP PUSH1 0x4 CALLDATASIZE LT PUSH2 0x9E JUMPI PUSH1 0x0 CALLDATALOAD PUSH1 0xE0 SHR DUP1 PUSH4 0x9D3ED807 GT PUSH2 0x66 JUMPI DUP1 PUSH4 0x9D3ED807 EQ PUSH2 0x160 JUMPI DUP1 PUSH4 0x9F0241D2 EQ PUSH2 0x190 JUMPI DUP1 PUSH4 0xDFA14E23 EQ PUSH2 0x1C0 JUMPI DUP1 PUSH4 0xE1715D24 EQ PUSH2 0x1DC JUMPI DUP1 PUSH4 0xE8AE38E4 EQ PUSH2 0x1F8 JUMPI PUSH2 0x9E JUMP JUMPDEST DUP1 PUSH4 0x3E5690F4 EQ PUSH2 0xA3 JUMPI DUP1 PUSH4 0x4051DDAC EQ PUSH2 0xD3 JUMPI DUP1 PUSH4 0x5CF298FB EQ PUSH2 0xF4 JUMPI DUP1 PUSH4 0x6FC6C579 EQ PUSH2 0x112 JUMPI DUP1 PUSH4 0x98B79628 EQ PUSH2 0x144 JUMPI JUMPDEST PUSH1 0x0 DUP1 REVERT JUMPDEST PUSH2 0xBD PUSH1 0x4 DUP1 CALLDATASIZE SUB DUP2 ADD SWAP1 PUSH2 0xB8 SWAP2 SWAP1 PUSH2 0x1012 JUMP JUMPDEST PUSH2 0x216 JUMP JUMPDEST PUSH1 0x40 MLOAD PUSH2 0xCA SWAP2 SWAP1 PUSH2 0x105A JUMP JUMPDEST PUSH1 0x40 MLOAD DUP1 SWAP2 SUB SWAP1 RETURN JUMPDEST PUSH2 0xDB PUSH2 0x236 JUMP JUMPDEST PUSH1 0x40 MLOAD PUSH2 0xEB SWAP5 SWAP4 SWAP3 SWAP2 SWAP1 PUSH2 0x1403 JUMP JUMPDEST PUSH1 0x40 MLOAD DUP1 SWAP2 SUB SWAP1 RETURN JUMPDEST PUSH2 0xFC PUSH2 0x584 JUMP JUMPDEST PUSH1 0x40 MLOAD PUSH2 0x109 SWAP2 SWAP1 PUSH2 0x105A JUMP JUMPDEST PUSH1 0x40 MLOAD DUP1 SWAP2 SUB SWAP1 RETURN JUMPDEST PUSH2 0x12C PUSH1 0x4 DUP1 CALLDATASIZE SUB DUP2 ADD SWAP1 PUSH2 0x127 SWAP2 SWAP1 PUSH2 0x1490 JUMP JUMPDEST PUSH2 0x5D8 JUMP JUMPDEST PUSH1 0x40 MLOAD PUSH2 0x13B SWAP4 SWAP3 SWAP2 SWAP1 PUSH2 0x14DB JUMP JUMPDEST PUSH1 0x40 MLOAD DUP1 SWAP2 SUB SWAP1 RETURN JUMPDEST PUSH2 0x15E PUSH1 0x4 DUP1 CALLDATASIZE SUB DUP2 ADD SWAP1 PUSH2 0x159 SWAP2 SWAP1 PUSH2 0x1490 JUMP JUMPDEST PUSH2 0x6BA JUMP JUMPDEST STOP JUMPDEST PUSH2 0x17A PUSH1 0x4 DUP1 CALLDATASIZE SUB DUP2 ADD SWAP1 PUSH2 0x175 SWAP2 SWAP1 PUSH2 0x1490 JUMP JUMPDEST PUSH2 0xB17 JUMP JUMPDEST PUSH1 0x40 MLOAD PUSH2 0x187 SWAP2 SWAP1 PUSH2 0x1519 JUMP JUMPDEST PUSH1 0x40 MLOAD DUP1 SWAP2 SUB SWAP1 RETURN JUMPDEST PUSH2 0x1AA PUSH1 0x4 DUP1 CALLDATASIZE SUB DUP2 ADD SWAP1 PUSH2 0x1A5 SWAP2 SWAP1 PUSH2 0x1490 JUMP JUMPDEST PUSH2 0xB56 JUMP JUMPDEST PUSH1 0x40 MLOAD PUSH2 0x1B7 SWAP2 SWAP1 PUSH2 0x1534 JUMP JUMPDEST PUSH1 0x40 MLOAD DUP1 SWAP2 SUB SWAP1 RETURN JUMPDEST PUSH2 0x1DA PUSH1 0x4 DUP1 CALLDATASIZE SUB DUP2 ADD SWAP1 PUSH2 0x1D5 SWAP2 SWAP1 PUSH2 0x168B JUMP JUMPDEST PUSH2 0xC02 JUMP JUMPDEST STOP JUMPDEST PUSH2 0x1F6 PUSH1 0x4 DUP1 CALLDATASIZE SUB DUP2 ADD SWAP1 PUSH2 0x1F1 SWAP2 SWAP1 PUSH2 0x168B JUMP JUMPDEST PUSH2 0xD64 JUMP JUMPDEST STOP JUMPDEST PUSH2 0x200 PUSH2 0xE2F JUMP JUMPDEST PUSH1 0x40 MLOAD PUSH2 0x20D SWAP2 SWAP1 PUSH2 0x1534 JUMP JUMPDEST PUSH1 0x40 MLOAD DUP1 SWAP2 SUB SWAP1 RETURN JUMPDEST PUSH1 0x2 PUSH1 0x20 MSTORE DUP1 PUSH1 0x0 MSTORE PUSH1 0x40 PUSH1 0x0 KECCAK256 PUSH1 0x0 SWAP2 POP SLOAD SWAP1 PUSH2 0x100 EXP SWAP1 DIV PUSH1 0xFF AND DUP2 JUMP JUMPDEST PUSH1 0x60 DUP1 PUSH1 0x60 DUP1 PUSH1 0x0 PUSH1 0x1 PUSH1 0x3 PUSH1 0x4 DUP4 DUP1 SLOAD PUSH2 0x250 SWAP1 PUSH2 0x1703 JUMP JUMPDEST DUP1 PUSH1 0x1F ADD PUSH1 0x20 DUP1 SWAP2 DIV MUL PUSH1 0x20 ADD PUSH1 0x40 MLOAD SWAP1 DUP2 ADD PUSH1 0x40 MSTORE DUP1 SWAP3 SWAP2 SWAP1 DUP2 DUP2 MSTORE PUSH1 0x20 ADD DUP3 DUP1 SLOAD PUSH2 0x27C SWAP1 PUSH2 0x1703 JUMP JUMPDEST DUP1 ISZERO PUSH2 0x2C9 JUMPI DUP1 PUSH1 0x1F LT PUSH2 0x29E JUMPI PUSH2 0x100 DUP1 DUP4 SLOAD DIV MUL DUP4 MSTORE SWAP2 PUSH1 0x20 ADD SWAP2 PUSH2 0x2C9 JUMP JUMPDEST DUP3 ADD SWAP2 SWAP1 PUSH1 0x0 MSTORE PUSH1 0x20 PUSH1 0x0 KECCAK256 SWAP1 JUMPDEST DUP2 SLOAD DUP2 MSTORE SWAP1 PUSH1 0x1 ADD SWAP1 PUSH1 0x20 ADD DUP1 DUP4 GT PUSH2 0x2AC JUMPI DUP3 SWAP1 SUB PUSH1 0x1F AND DUP3 ADD SWAP2 JUMPDEST POP POP POP POP POP SWAP4 POP DUP3 DUP1 SLOAD DUP1 PUSH1 0x20 MUL PUSH1 0x20 ADD PUSH1 0x40 MLOAD SWAP1 DUP2 ADD PUSH1 0x40 MSTORE DUP1 SWAP3 SWAP2 SWAP1 DUP2 DUP2 MSTORE PUSH1 0x20 ADD PUSH1 0x0 SWAP1 JUMPDEST DUP3 DUP3 LT ISZERO PUSH2 0x39D JUMPI DUP4 DUP3 SWAP1 PUSH1 0x0 MSTORE PUSH1 0x20 PUSH1 0x0 KECCAK256 ADD DUP1 SLOAD PUSH2 0x310 SWAP1 PUSH2 0x1703 JUMP JUMPDEST DUP1 PUSH1 0x1F ADD PUSH1 0x20 DUP1 SWAP2 DIV MUL PUSH1 0x20 ADD PUSH1 0x40 MLOAD SWAP1 DUP2 ADD PUSH1 0x40 MSTORE DUP1 SWAP3 SWAP2 SWAP1 DUP2 DUP2 MSTORE PUSH1 0x20 ADD DUP3 DUP1 SLOAD PUSH2 0x33C SWAP1 PUSH2 0x1703 JUMP JUMPDEST DUP1 ISZERO PUSH2 0x389 JUMPI DUP1 PUSH1 0x1F LT PUSH2 0x35E JUMPI PUSH2 0x100 DUP1 DUP4 SLOAD DIV MUL DUP4 MSTORE SWAP2 PUSH1 0x20 ADD SWAP2 PUSH2 0x389 JUMP JUMPDEST DUP3 ADD SWAP2 SWAP1 PUSH1 0x0 MSTORE PUSH1 0x20 PUSH1 0x0 KECCAK256 SWAP1 JUMPDEST DUP2 SLOAD DUP2 MSTORE SWAP1 PUSH1 0x1 ADD SWAP1 PUSH1 0x20 ADD DUP1 DUP4 GT PUSH2 0x36C JUMPI DUP3 SWAP1 SUB PUSH1 0x1F AND DUP3 ADD SWAP2 JUMPDEST POP POP POP POP POP DUP2 MSTORE PUSH1 0x20 ADD SWAP1 PUSH1 0x1 ADD SWAP1 PUSH2 0x2F1 JUMP JUMPDEST POP POP POP POP SWAP3 POP DUP2 DUP1 SLOAD DUP1 PUSH1 0x20 MUL PUSH1 0x20 ADD PUSH1 0x40 MLOAD SWAP1 DUP2 ADD PUSH1 0x40 MSTORE DUP1 SWAP3 SWAP2 SWAP1 DUP2 DUP2 MSTORE PUSH1 0x20 ADD DUP3 DUP1 SLOAD DUP1 ISZERO PUSH2 0x424 JUMPI PUSH1 0x20 MUL DUP3 ADD SWAP2 SWAP1 PUSH1 0x0 MSTORE PUSH1 0x20 PUSH1 0x0 KECCAK256 SWAP1 JUMPDEST DUP2 PUSH1 0x0 SWAP1 SLOAD SWAP1 PUSH2 0x100 EXP SWAP1 DIV PUSH20 0xFFFFFFFFFFFFFFFFFFFFFFFFFFFFFFFFFFFFFFFF AND PUSH20 0xFFFFFFFFFFFFFFFFFFFFFFFFFFFFFFFFFFFFFFFF AND DUP2 MSTORE PUSH1 0x20 ADD SWAP1 PUSH1 0x1 ADD SWAP1 DUP1 DUP4 GT PUSH2 0x3DA JUMPI JUMPDEST POP POP POP POP POP SWAP2 POP DUP1 DUP1 SLOAD DUP1 PUSH1 0x20 MUL PUSH1 0x20 ADD PUSH1 0x40 MLOAD SWAP1 DUP2 ADD PUSH1 0x40 MSTORE DUP1 SWAP3 SWAP2 SWAP1 DUP2 DUP2 MSTORE PUSH1 0x20 ADD PUSH1 0x0 SWAP1 JUMPDEST DUP3 DUP3 LT ISZERO PUSH2 0x570 JUMPI DUP4 DUP3 SWAP1 PUSH1 0x0 MSTORE PUSH1 0x20 PUSH1 0x0 KECCAK256 SWAP1 PUSH1 0x3 MUL ADD PUSH1 0x40 MLOAD DUP1 PUSH1 0x60 ADD PUSH1 0x40 MSTORE SWAP1 DUP2 PUSH1 0x0 DUP3 ADD DUP1 SLOAD PUSH2 0x47F SWAP1 PUSH2 0x1703 JUMP JUMPDEST DUP1 PUSH1 0x1F ADD PUSH1 0x20 DUP1 SWAP2 DIV MUL PUSH1 0x20 ADD PUSH1 0x40 MLOAD SWAP1 DUP2 ADD PUSH1 0x40 MSTORE DUP1 SWAP3 SWAP2 SWAP1 DUP2 DUP2 MSTORE PUSH1 0x20 ADD DUP3 DUP1 SLOAD PUSH2 0x4AB SWAP1 PUSH2 0x1703 JUMP JUMPDEST DUP1 ISZERO PUSH2 0x4F8 JUMPI DUP1 PUSH1 0x1F LT PUSH2 0x4CD JUMPI PUSH2 0x100 DUP1 DUP4 SLOAD DIV MUL DUP4 MSTORE SWAP2 PUSH1 0x20 ADD SWAP2 PUSH2 0x4F8 JUMP JUMPDEST DUP3 ADD SWAP2 SWAP1 PUSH1 0x0 MSTORE PUSH1 0x20 PUSH1 0x0 KECCAK256 SWAP1 JUMPDEST DUP2 SLOAD DUP2 MSTORE SWAP1 PUSH1 0x1 ADD SWAP1 PUSH1 0x20 ADD DUP1 DUP4 GT PUSH2 0x4DB JUMPI DUP3 SWAP1 SUB PUSH1 0x1F AND DUP3 ADD SWAP2 JUMPDEST POP POP POP POP POP DUP2 MSTORE PUSH1 0x20 ADD PUSH1 0x1 DUP3 ADD SLOAD DUP2 MSTORE PUSH1 0x20 ADD PUSH1 0x2 DUP3 ADD PUSH1 0x0 SWAP1 SLOAD SWAP1 PUSH2 0x100 EXP SWAP1 DIV PUSH20 0xFFFFFFFFFFFFFFFFFFFFFFFFFFFFFFFFFFFFFFFF AND PUSH20 0xFFFFFFFFFFFFFFFFFFFFFFFFFFFFFFFFFFFFFFFF AND PUSH20 0xFFFFFFFFFFFFFFFFFFFFFFFFFFFFFFFFFFFFFFFF AND DUP2 MSTORE POP POP DUP2 MSTORE PUSH1 0x20 ADD SWAP1 PUSH1 0x1 ADD SWAP1 PUSH2 0x44C JUMP JUMPDEST POP POP POP POP SWAP1 POP SWAP4 POP SWAP4 POP SWAP4 POP SWAP4 POP SWAP1 SWAP2 SWAP3 SWAP4 JUMP JUMPDEST PUSH1 0x0 PUSH1 0x2 PUSH1 0x0 CALLER PUSH20 0xFFFFFFFFFFFFFFFFFFFFFFFFFFFFFFFFFFFFFFFF AND PUSH20 0xFFFFFFFFFFFFFFFFFFFFFFFFFFFFFFFFFFFFFFFF AND DUP2 MSTORE PUSH1 0x20 ADD SWAP1 DUP2 MSTORE PUSH1 0x20 ADD PUSH1 0x0 KECCAK256 PUSH1 0x0 SWAP1 SLOAD SWAP1 PUSH2 0x100 EXP SWAP1 DIV PUSH1 0xFF AND SWAP1 POP SWAP1 JUMP JUMPDEST PUSH1 0x4 DUP2 DUP2 SLOAD DUP2 LT PUSH2 0x5E8 JUMPI PUSH1 0x0 DUP1 REVERT JUMPDEST SWAP1 PUSH1 0x0 MSTORE PUSH1 0x20 PUSH1 0x0 KECCAK256 SWAP1 PUSH1 0x3 MUL ADD PUSH1 0x0 SWAP2 POP SWAP1 POP DUP1 PUSH1 0x0 ADD DUP1 SLOAD PUSH2 0x60B SWAP1 PUSH2 0x1703 JUMP JUMPDEST DUP1 PUSH1 0x1F ADD PUSH1 0x20 DUP1 SWAP2 DIV MUL PUSH1 0x20 ADD PUSH1 0x40 MLOAD SWAP1 DUP2 ADD PUSH1 0x40 MSTORE DUP1 SWAP3 SWAP2 SWAP1 DUP2 DUP2 MSTORE PUSH1 0x20 ADD DUP3 DUP1 SLOAD PUSH2 0x637 SWAP1 PUSH2 0x1703 JUMP JUMPDEST DUP1 ISZERO PUSH2 0x684 JUMPI DUP1 PUSH1 0x1F LT PUSH2 0x659 JUMPI PUSH2 0x100 DUP1 DUP4 SLOAD DIV MUL DUP4 MSTORE SWAP2 PUSH1 0x20 ADD SWAP2 PUSH2 0x684 JUMP JUMPDEST DUP3 ADD SWAP2 SWAP1 PUSH1 0x0 MSTORE PUSH1 0x20 PUSH1 0x0 KECCAK256 SWAP1 JUMPDEST DUP2 SLOAD DUP2 MSTORE SWAP1 PUSH1 0x1 ADD SWAP1 PUSH1 0x20 ADD DUP1 DUP4 GT PUSH2 0x667 JUMPI DUP3 SWAP1 SUB PUSH1 0x1F AND DUP3 ADD SWAP2 JUMPDEST POP POP POP POP POP SWAP1 DUP1 PUSH1 0x1 ADD SLOAD SWAP1 DUP1 PUSH1 0x2 ADD PUSH1 0x0 SWAP1 SLOAD SWAP1 PUSH2 0x100 EXP SWAP1 DIV PUSH20 0xFFFFFFFFFFFFFFFFFFFFFFFFFFFFFFFFFFFFFFFF AND SWAP1 POP DUP4 JUMP JUMPDEST PUSH1 0x2 PUSH1 0x0 CALLER PUSH20 0xFFFFFFFFFFFFFFFFFFFFFFFFFFFFFFFFFFFFFFFF AND PUSH20 0xFFFFFFFFFFFFFFFFFFFFFFFFFFFFFFFFFFFFFFFF AND DUP2 MSTORE PUSH1 0x20 ADD SWAP1 DUP2 MSTORE PUSH1 0x20 ADD PUSH1 0x0 KECCAK256 PUSH1 0x0 SWAP1 SLOAD SWAP1 PUSH2 0x100 EXP SWAP1 DIV PUSH1 0xFF AND PUSH2 0x746 JUMPI PUSH1 0x40 MLOAD PUSH32 0x8C379A000000000000000000000000000000000000000000000000000000000 DUP2 MSTORE PUSH1 0x4 ADD PUSH2 0x73D SWAP1 PUSH2 0x17A7 JUMP JUMPDEST PUSH1 0x40 MLOAD DUP1 SWAP2 SUB SWAP1 REVERT JUMPDEST PUSH1 0x2 PUSH1 0x0 PUSH1 0x4 DUP4 DUP2 SLOAD DUP2 LT PUSH2 0x75E JUMPI PUSH2 0x75D PUSH2 0x17C7 JUMP JUMPDEST JUMPDEST SWAP1 PUSH1 0x0 MSTORE PUSH1 0x20 PUSH1 0x0 KECCAK256 SWAP1 PUSH1 0x3 MUL ADD PUSH1 0x2 ADD PUSH1 0x0 SWAP1 SLOAD SWAP1 PUSH2 0x100 EXP SWAP1 DIV PUSH20 0xFFFFFFFFFFFFFFFFFFFFFFFFFFFFFFFFFFFFFFFF AND PUSH20 0xFFFFFFFFFFFFFFFFFFFFFFFFFFFFFFFFFFFFFFFF AND PUSH20 0xFFFFFFFFFFFFFFFFFFFFFFFFFFFFFFFFFFFFFFFF AND DUP2 MSTORE PUSH1 0x20 ADD SWAP1 DUP2 MSTORE PUSH1 0x20 ADD PUSH1 0x0 KECCAK256 PUSH1 0x0 SWAP1 SLOAD SWAP1 PUSH2 0x100 EXP SWAP1 DIV PUSH1 0xFF AND ISZERO PUSH2 0x818 JUMPI PUSH1 0x40 MLOAD PUSH32 0x8C379A000000000000000000000000000000000000000000000000000000000 DUP2 MSTORE PUSH1 0x4 ADD PUSH2 0x80F SWAP1 PUSH2 0x1868 JUMP JUMPDEST PUSH1 0x40 MLOAD DUP1 SWAP2 SUB SWAP1 REVERT JUMPDEST PUSH1 0x0 PUSH1 0x1 PUSH1 0x4 DUP1 SLOAD SWAP1 POP PUSH2 0x82C SWAP2 SWAP1 PUSH2 0x18B7 JUMP JUMPDEST SWAP1 POP PUSH1 0x0 PUSH1 0x4 DUP3 DUP2 SLOAD DUP2 LT PUSH2 0x844 JUMPI PUSH2 0x843 PUSH2 0x17C7 JUMP JUMPDEST JUMPDEST SWAP1 PUSH1 0x0 MSTORE PUSH1 0x20 PUSH1 0x0 KECCAK256 SWAP1 PUSH1 0x3 MUL ADD PUSH1 0x40 MLOAD DUP1 PUSH1 0x60 ADD PUSH1 0x40 MSTORE SWAP1 DUP2 PUSH1 0x0 DUP3 ADD DUP1 SLOAD PUSH2 0x86D SWAP1 PUSH2 0x1703 JUMP JUMPDEST DUP1 PUSH1 0x1F ADD PUSH1 0x20 DUP1 SWAP2 DIV MUL PUSH1 0x20 ADD PUSH1 0x40 MLOAD SWAP1 DUP2 ADD PUSH1 0x40 MSTORE DUP1 SWAP3 SWAP2 SWAP1 DUP2 DUP2 MSTORE PUSH1 0x20 ADD DUP3 DUP1 SLOAD PUSH2 0x899 SWAP1 PUSH2 0x1703 JUMP JUMPDEST DUP1 ISZERO PUSH2 0x8E6 JUMPI DUP1 PUSH1 0x1F LT PUSH2 0x8BB JUMPI PUSH2 0x100 DUP1 DUP4 SLOAD DIV MUL DUP4 MSTORE SWAP2 PUSH1 0x20 ADD SWAP2 PUSH2 0x8E6 JUMP JUMPDEST DUP3 ADD SWAP2 SWAP1 PUSH1 0x0 MSTORE PUSH1 0x20 PUSH1 0x0 KECCAK256 SWAP1 JUMPDEST DUP2 SLOAD DUP2 MSTORE SWAP1 PUSH1 0x1 ADD SWAP1 PUSH1 0x20 ADD DUP1 DUP4 GT PUSH2 0x8C9 JUMPI DUP3 SWAP1 SUB PUSH1 0x1F AND DUP3 ADD SWAP2 JUMPDEST POP POP POP POP POP DUP2 MSTORE PUSH1 0x20 ADD PUSH1 0x1 DUP3 ADD SLOAD DUP2 MSTORE PUSH1 0x20 ADD PUSH1 0x2 DUP3 ADD PUSH1 0x0 SWAP1 SLOAD SWAP1 PUSH2 0x100 EXP SWAP1 DIV PUSH20 0xFFFFFFFFFFFFFFFFFFFFFFFFFFFFFFFFFFFFFFFF AND PUSH20 0xFFFFFFFFFFFFFFFFFFFFFFFFFFFFFFFFFFFFFFFF AND PUSH20 0xFFFFFFFFFFFFFFFFFFFFFFFFFFFFFFFFFFFFFFFF AND DUP2 MSTORE POP POP SWAP1 POP DUP1 PUSH1 0x4 DUP5 DUP2 SLOAD DUP2 LT PUSH2 0x966 JUMPI PUSH2 0x965 PUSH2 0x17C7 JUMP JUMPDEST JUMPDEST SWAP1 PUSH1 0x0 MSTORE PUSH1 0x20 PUSH1 0x0 KECCAK256 SWAP1 PUSH1 0x3 MUL ADD PUSH1 0x0 DUP3 ADD MLOAD DUP2 PUSH1 0x0 ADD SWAP1 DUP1 MLOAD SWAP1 PUSH1 0x20 ADD SWAP1 PUSH2 0x990 SWAP3 SWAP2 SWAP1 PUSH2 0xEBD JUMP JUMPDEST POP PUSH1 0x20 DUP3 ADD MLOAD DUP2 PUSH1 0x1 ADD SSTORE PUSH1 0x40 DUP3 ADD MLOAD DUP2 PUSH1 0x2 ADD PUSH1 0x0 PUSH2 0x100 EXP DUP2 SLOAD DUP2 PUSH20 0xFFFFFFFFFFFFFFFFFFFFFFFFFFFFFFFFFFFFFFFF MUL NOT AND SWAP1 DUP4 PUSH20 0xFFFFFFFFFFFFFFFFFFFFFFFFFFFFFFFFFFFFFFFF AND MUL OR SWAP1 SSTORE POP SWAP1 POP POP PUSH1 0x4 DUP1 SLOAD DUP1 PUSH2 0x9F7 JUMPI PUSH2 0x9F6 PUSH2 0x18EB JUMP JUMPDEST JUMPDEST PUSH1 0x1 SWAP1 SUB DUP2 DUP2 SWAP1 PUSH1 0x0 MSTORE PUSH1 0x20 PUSH1 0x0 KECCAK256 SWAP1 PUSH1 0x3 MUL ADD PUSH1 0x0 DUP1 DUP3 ADD PUSH1 0x0 PUSH2 0xA1C SWAP2 SWAP1 PUSH2 0xF43 JUMP JUMPDEST PUSH1 0x1 DUP3 ADD PUSH1 0x0 SWAP1 SSTORE PUSH1 0x2 DUP3 ADD PUSH1 0x0 PUSH2 0x100 EXP DUP2 SLOAD SWAP1 PUSH20 0xFFFFFFFFFFFFFFFFFFFFFFFFFFFFFFFFFFFFFFFF MUL NOT AND SWAP1 SSTORE POP POP SWAP1 SSTORE PUSH1 0x1 PUSH1 0x2 PUSH1 0x0 DUP4 PUSH1 0x40 ADD MLOAD PUSH20 0xFFFFFFFFFFFFFFFFFFFFFFFFFFFFFFFFFFFFFFFF AND PUSH20 0xFFFFFFFFFFFFFFFFFFFFFFFFFFFFFFFFFFFFFFFF AND DUP2 MSTORE PUSH1 0x20 ADD SWAP1 DUP2 MSTORE PUSH1 0x20 ADD PUSH1 0x0 KECCAK256 PUSH1 0x0 PUSH2 0x100 EXP DUP2 SLOAD DUP2 PUSH1 0xFF MUL NOT AND SWAP1 DUP4 ISZERO ISZERO MUL OR SWAP1 SSTORE POP PUSH1 0x3 DUP2 PUSH1 0x40 ADD MLOAD SWAP1 DUP1 PUSH1 0x1 DUP2 SLOAD ADD DUP1 DUP3 SSTORE DUP1 SWAP2 POP POP PUSH1 0x1 SWAP1 SUB SWAP1 PUSH1 0x0 MSTORE PUSH1 0x20 PUSH1 0x0 KECCAK256 ADD PUSH1 0x0 SWAP1 SWAP2 SWAP1 SWAP2 SWAP1 SWAP2 PUSH2 0x100 EXP DUP2 SLOAD DUP2 PUSH20 0xFFFFFFFFFFFFFFFFFFFFFFFFFFFFFFFFFFFFFFFF MUL NOT AND SWAP1 DUP4 PUSH20 0xFFFFFFFFFFFFFFFFFFFFFFFFFFFFFFFFFFFFFFFF AND MUL OR SWAP1 SSTORE POP POP POP POP JUMP JUMPDEST PUSH1 0x3 DUP2 DUP2 SLOAD DUP2 LT PUSH2 0xB27 JUMPI PUSH1 0x0 DUP1 REVERT JUMPDEST SWAP1 PUSH1 0x0 MSTORE PUSH1 0x20 PUSH1 0x0 KECCAK256 ADD PUSH1 0x0 SWAP2 POP SLOAD SWAP1 PUSH2 0x100 EXP SWAP1 DIV PUSH20 0xFFFFFFFFFFFFFFFFFFFFFFFFFFFFFFFFFFFFFFFF AND DUP2 JUMP JUMPDEST PUSH1 0x1 DUP2 DUP2 SLOAD DUP2 LT PUSH2 0xB66 JUMPI PUSH1 0x0 DUP1 REVERT JUMPDEST SWAP1 PUSH1 0x0 MSTORE PUSH1 0x20 PUSH1 0x0 KECCAK256 ADD PUSH1 0x0 SWAP2 POP SWAP1 POP DUP1 SLOAD PUSH2 0xB81 SWAP1 PUSH2 0x1703 JUMP JUMPDEST DUP1 PUSH1 0x1F ADD PUSH1 0x20 DUP1 SWAP2 DIV MUL PUSH1 0x20 ADD PUSH1 0x40 MLOAD SWAP1 DUP2 ADD PUSH1 0x40 MSTORE DUP1 SWAP3 SWAP2 SWAP1 DUP2 DUP2 MSTORE PUSH1 0x20 ADD DUP3 DUP1 SLOAD PUSH2 0xBAD SWAP1 PUSH2 0x1703 JUMP JUMPDEST DUP1 ISZERO PUSH2 0xBFA JUMPI DUP1 PUSH1 0x1F LT PUSH2 0xBCF JUMPI PUSH2 0x100 DUP1 DUP4 SLOAD DIV MUL DUP4 MSTORE SWAP2 PUSH1 0x20 ADD SWAP2 PUSH2 0xBFA JUMP JUMPDEST DUP3 ADD SWAP2 SWAP1 PUSH1 0x0 MSTORE PUSH1 0x20 PUSH1 0x0 KECCAK256 SWAP1 JUMPDEST DUP2 SLOAD DUP2 MSTORE SWAP1 PUSH1 0x1 ADD SWAP1 PUSH1 0x20 ADD DUP1 DUP4 GT PUSH2 0xBDD JUMPI DUP3 SWAP1 SUB PUSH1 0x1F AND DUP3 ADD SWAP2 JUMPDEST POP POP POP POP POP DUP2 JUMP JUMPDEST PUSH1 0x2 PUSH1 0x0 CALLER PUSH20 0xFFFFFFFFFFFFFFFFFFFFFFFFFFFFFFFFFFFFFFFF AND PUSH20 0xFFFFFFFFFFFFFFFFFFFFFFFFFFFFFFFFFFFFFFFF AND DUP2 MSTORE PUSH1 0x20 ADD SWAP1 DUP2 MSTORE PUSH1 0x20 ADD PUSH1 0x0 KECCAK256 PUSH1 0x0 SWAP1 SLOAD SWAP1 PUSH2 0x100 EXP SWAP1 DIV PUSH1 0xFF AND ISZERO PUSH2 0xC8F JUMPI PUSH1 0x40 MLOAD PUSH32 0x8C379A000000000000000000000000000000000000000000000000000000000 DUP2 MSTORE PUSH1 0x4 ADD PUSH2 0xC86 SWAP1 PUSH2 0x198C JUMP JUMPDEST PUSH1 0x40 MLOAD DUP1 SWAP2 SUB SWAP1 REVERT JUMPDEST PUSH1 0x0 PUSH1 0x40 MLOAD DUP1 PUSH1 0x60 ADD PUSH1 0x40 MSTORE DUP1 DUP4 DUP2 MSTORE PUSH1 0x20 ADD TIMESTAMP DUP2 MSTORE PUSH1 0x20 ADD CALLER PUSH20 0xFFFFFFFFFFFFFFFFFFFFFFFFFFFFFFFFFFFFFFFF AND DUP2 MSTORE POP SWAP1 POP PUSH1 0x4 DUP2 SWAP1 DUP1 PUSH1 0x1 DUP2 SLOAD ADD DUP1 DUP3 SSTORE DUP1 SWAP2 POP POP PUSH1 0x1 SWAP1 SUB SWAP1 PUSH1 0x0 MSTORE PUSH1 0x20 PUSH1 0x0 KECCAK256 SWAP1 PUSH1 0x3 MUL ADD PUSH1 0x0 SWAP1 SWAP2 SWAP1 SWAP2 SWAP1 SWAP2 POP PUSH1 0x0 DUP3 ADD MLOAD DUP2 PUSH1 0x0 ADD SWAP1 DUP1 MLOAD SWAP1 PUSH1 0x20 ADD SWAP1 PUSH2 0xD0C SWAP3 SWAP2 SWAP1 PUSH2 0xEBD JUMP JUMPDEST POP PUSH1 0x20 DUP3 ADD MLOAD DUP2 PUSH1 0x1 ADD SSTORE PUSH1 0x40 DUP3 ADD MLOAD DUP2 PUSH1 0x2 ADD PUSH1 0x0 PUSH2 0x100 EXP DUP2 SLOAD DUP2 PUSH20 0xFFFFFFFFFFFFFFFFFFFFFFFFFFFFFFFFFFFFFFFF MUL NOT AND SWAP1 DUP4 PUSH20 0xFFFFFFFFFFFFFFFFFFFFFFFFFFFFFFFFFFFFFFFF AND MUL OR SWAP1 SSTORE POP POP POP POP POP JUMP JUMPDEST PUSH1 0x2 PUSH1 0x0 CALLER PUSH20 0xFFFFFFFFFFFFFFFFFFFFFFFFFFFFFFFFFFFFFFFF AND PUSH20 0xFFFFFFFFFFFFFFFFFFFFFFFFFFFFFFFFFFFFFFFF AND DUP2 MSTORE PUSH1 0x20 ADD SWAP1 DUP2 MSTORE PUSH1 0x20 ADD PUSH1 0x0 KECCAK256 PUSH1 0x0 SWAP1 SLOAD SWAP1 PUSH2 0x100 EXP SWAP1 DIV PUSH1 0xFF AND PUSH2 0xDF0 JUMPI PUSH1 0x40 MLOAD PUSH32 0x8C379A000000000000000000000000000000000000000000000000000000000 DUP2 MSTORE PUSH1 0x4 ADD PUSH2 0xDE7 SWAP1 PUSH2 0x1A1E JUMP JUMPDEST PUSH1 0x40 MLOAD DUP1 SWAP2 SUB SWAP1 REVERT JUMPDEST PUSH1 0x1 DUP2 SWAP1 DUP1 PUSH1 0x1 DUP2 SLOAD ADD DUP1 DUP3 SSTORE DUP1 SWAP2 POP POP PUSH1 0x1 SWAP1 SUB SWAP1 PUSH1 0x0 MSTORE PUSH1 0x20 PUSH1 0x0 KECCAK256 ADD PUSH1 0x0 SWAP1 SWAP2 SWAP1 SWAP2 SWAP1 SWAP2 POP SWAP1 DUP1 MLOAD SWAP1 PUSH1 0x20 ADD SWAP1 PUSH2 0xE2B SWAP3 SWAP2 SWAP1 PUSH2 0xEBD JUMP JUMPDEST POP POP JUMP JUMPDEST PUSH1 0x0 DUP1 SLOAD PUSH2 0xE3C SWAP1 PUSH2 0x1703 JUMP JUMPDEST DUP1 PUSH1 0x1F ADD PUSH1 0x20 DUP1 SWAP2 DIV MUL PUSH1 0x20 ADD PUSH1 0x40 MLOAD SWAP1 DUP2 ADD PUSH1 0x40 MSTORE DUP1 SWAP3 SWAP2 SWAP1 DUP2 DUP2 MSTORE PUSH1 0x20 ADD DUP3 DUP1 SLOAD PUSH2 0xE68 SWAP1 PUSH2 0x1703 JUMP JUMPDEST DUP1 ISZERO PUSH2 0xEB5 JUMPI DUP1 PUSH1 0x1F LT PUSH2 0xE8A JUMPI PUSH2 0x100 DUP1 DUP4 SLOAD DIV MUL DUP4 MSTORE SWAP2 PUSH1 0x20 ADD SWAP2 PUSH2 0xEB5 JUMP JUMPDEST DUP3 ADD SWAP2 SWAP1 PUSH1 0x0 MSTORE PUSH1 0x20 PUSH1 0x0 KECCAK256 SWAP1 JUMPDEST DUP2 SLOAD DUP2 MSTORE SWAP1 PUSH1 0x1 ADD SWAP1 PUSH1 0x20 ADD DUP1 DUP4 GT PUSH2 0xE98 JUMPI DUP3 SWAP1 SUB PUSH1 0x1F AND DUP3 ADD SWAP2 JUMPDEST POP POP POP POP POP DUP2 JUMP JUMPDEST DUP3 DUP1 SLOAD PUSH2 0xEC9 SWAP1 PUSH2 0x1703 JUMP JUMPDEST SWAP1 PUSH1 0x0 MSTORE PUSH1 0x20 PUSH1 0x0 KECCAK256 SWAP1 PUSH1 0x1F ADD PUSH1 0x20 SWAP1 DIV DUP2 ADD SWAP3 DUP3 PUSH2 0xEEB JUMPI PUSH1 0x0 DUP6 SSTORE PUSH2 0xF32 JUMP JUMPDEST DUP3 PUSH1 0x1F LT PUSH2 0xF04 JUMPI DUP1 MLOAD PUSH1 0xFF NOT AND DUP4 DUP1 ADD OR DUP6 SSTORE PUSH2 0xF32 JUMP JUMPDEST DUP3 DUP1 ADD PUSH1 0x1 ADD DUP6 SSTORE DUP3 ISZERO PUSH2 0xF32 JUMPI SWAP2 DUP3 ADD JUMPDEST DUP3 DUP2 GT ISZERO PUSH2 0xF31 JUMPI DUP3 MLOAD DUP3 SSTORE SWAP2 PUSH1 0x20 ADD SWAP2 SWAP1 PUSH1 0x1 ADD SWAP1 PUSH2 0xF16 JUMP JUMPDEST JUMPDEST POP SWAP1 POP PUSH2 0xF3F SWAP2 SWAP1 PUSH2 0xF83 JUMP JUMPDEST POP SWAP1 JUMP JUMPDEST POP DUP1 SLOAD PUSH2 0xF4F SWAP1 PUSH2 0x1703 JUMP JUMPDEST PUSH1 0x0 DUP3 SSTORE DUP1 PUSH1 0x1F LT PUSH2 0xF61 JUMPI POP PUSH2 0xF80 JUMP JUMPDEST PUSH1 0x1F ADD PUSH1 0x20 SWAP1 DIV SWAP1 PUSH1 0x0 MSTORE PUSH1 0x20 PUSH1 0x0 KECCAK256 SWAP1 DUP2 ADD SWAP1 PUSH2 0xF7F SWAP2 SWAP1 PUSH2 0xF83 JUMP JUMPDEST JUMPDEST POP JUMP JUMPDEST JUMPDEST DUP1 DUP3 GT ISZERO PUSH2 0xF9C JUMPI PUSH1 0x0 DUP2 PUSH1 0x0 SWAP1 SSTORE POP PUSH1 0x1 ADD PUSH2 0xF84 JUMP JUMPDEST POP SWAP1 JUMP JUMPDEST PUSH1 0x0 PUSH1 0x40 MLOAD SWAP1 POP SWAP1 JUMP JUMPDEST PUSH1 0x0 DUP1 REVERT JUMPDEST PUSH1 0x0 DUP1 REVERT JUMPDEST PUSH1 0x0 PUSH20 0xFFFFFFFFFFFFFFFFFFFFFFFFFFFFFFFFFFFFFFFF DUP3 AND SWAP1 POP SWAP2 SWAP1 POP JUMP JUMPDEST PUSH1 0x0 PUSH2 0xFDF DUP3 PUSH2 0xFB4 JUMP JUMPDEST SWAP1 POP SWAP2 SWAP1 POP JUMP JUMPDEST PUSH2 0xFEF DUP2 PUSH2 0xFD4 JUMP JUMPDEST DUP2 EQ PUSH2 0xFFA JUMPI PUSH1 0x0 DUP1 REVERT JUMPDEST POP JUMP JUMPDEST PUSH1 0x0 DUP2 CALLDATALOAD SWAP1 POP PUSH2 0x100C DUP2 PUSH2 0xFE6 JUMP JUMPDEST SWAP3 SWAP2 POP POP JUMP JUMPDEST PUSH1 0x0 PUSH1 0x20 DUP3 DUP5 SUB SLT ISZERO PUSH2 0x1028 JUMPI PUSH2 0x1027 PUSH2 0xFAA JUMP JUMPDEST JUMPDEST PUSH1 0x0 PUSH2 0x1036 DUP5 DUP3 DUP6 ADD PUSH2 0xFFD JUMP JUMPDEST SWAP2 POP POP SWAP3 SWAP2 POP POP JUMP JUMPDEST PUSH1 0x0 DUP2 ISZERO ISZERO SWAP1 POP SWAP2 SWAP1 POP JUMP JUMPDEST PUSH2 0x1054 DUP2 PUSH2 0x103F JUMP JUMPDEST DUP3 MSTORE POP POP JUMP JUMPDEST PUSH1 0x0 PUSH1 0x20 DUP3 ADD SWAP1 POP PUSH2 0x106F PUSH1 0x0 DUP4 ADD DUP5 PUSH2 0x104B JUMP JUMPDEST SWAP3 SWAP2 POP POP JUMP JUMPDEST PUSH1 0x0 DUP2 MLOAD SWAP1 POP SWAP2 SWAP1 POP JUMP JUMPDEST PUSH1 0x0 DUP3 DUP3 MSTORE PUSH1 0x20 DUP3 ADD SWAP1 POP SWAP3 SWAP2 POP POP JUMP JUMPDEST PUSH1 0x0 JUMPDEST DUP4 DUP2 LT ISZERO PUSH2 0x10AF JUMPI DUP1 DUP3 ADD MLOAD DUP2 DUP5 ADD MSTORE PUSH1 0x20 DUP2 ADD SWAP1 POP PUSH2 0x1094 JUMP JUMPDEST DUP4 DUP2 GT ISZERO PUSH2 0x10BE JUMPI PUSH1 0x0 DUP5 DUP5 ADD MSTORE JUMPDEST POP POP POP POP JUMP JUMPDEST PUSH1 0x0 PUSH1 0x1F NOT PUSH1 0x1F DUP4 ADD AND SWAP1 POP SWAP2 SWAP1 POP JUMP JUMPDEST PUSH1 0x0 PUSH2 0x10E0 DUP3 PUSH2 0x1075 JUMP JUMPDEST PUSH2 0x10EA DUP2 DUP6 PUSH2 0x1080 JUMP JUMPDEST SWAP4 POP PUSH2 0x10FA DUP2 DUP6 PUSH1 0x20 DUP7 ADD PUSH2 0x1091 JUMP JUMPDEST PUSH2 0x1103 DUP2 PUSH2 0x10C4 JUMP JUMPDEST DUP5 ADD SWAP2 POP POP SWAP3 SWAP2 POP POP JUMP JUMPDEST PUSH1 0x0 DUP2 MLOAD SWAP1 POP SWAP2 SWAP1 POP JUMP JUMPDEST PUSH1 0x0 DUP3 DUP3 MSTORE PUSH1 0x20 DUP3 ADD SWAP1 POP SWAP3 SWAP2 POP POP JUMP JUMPDEST PUSH1 0x0 DUP2 SWAP1 POP PUSH1 0x20 DUP3 ADD SWAP1 POP SWAP2 SWAP1 POP JUMP JUMPDEST PUSH1 0x0 DUP3 DUP3 MSTORE PUSH1 0x20 DUP3 ADD SWAP1 POP SWAP3 SWAP2 POP POP JUMP JUMPDEST PUSH1 0x0 PUSH2 0x1156 DUP3 PUSH2 0x1075 JUMP JUMPDEST PUSH2 0x1160 DUP2 DUP6 PUSH2 0x113A JUMP JUMPDEST SWAP4 POP PUSH2 0x1170 DUP2 DUP6 PUSH1 0x20 DUP7 ADD PUSH2 0x1091 JUMP JUMPDEST PUSH2 0x1179 DUP2 PUSH2 0x10C4 JUMP JUMPDEST DUP5 ADD SWAP2 POP POP SWAP3 SWAP2 POP POP JUMP JUMPDEST PUSH1 0x0 PUSH2 0x1190 DUP4 DUP4 PUSH2 0x114B JUMP JUMPDEST SWAP1 POP SWAP3 SWAP2 POP POP JUMP JUMPDEST PUSH1 0x0 PUSH1 0x20 DUP3 ADD SWAP1 POP SWAP2 SWAP1 POP JUMP JUMPDEST PUSH1 0x0 PUSH2 0x11B0 DUP3 PUSH2 0x110E JUMP JUMPDEST PUSH2 0x11BA DUP2 DUP6 PUSH2 0x1119 JUMP JUMPDEST SWAP4 POP DUP4 PUSH1 0x20 DUP3 MUL DUP6 ADD PUSH2 0x11CC DUP6 PUSH2 0x112A JUMP JUMPDEST DUP1 PUSH1 0x0 JUMPDEST DUP6 DUP2 LT ISZERO PUSH2 0x1208 JUMPI DUP5 DUP5 SUB DUP10 MSTORE DUP2 MLOAD PUSH2 0x11E9 DUP6 DUP3 PUSH2 0x1184 JUMP JUMPDEST SWAP5 POP PUSH2 0x11F4 DUP4 PUSH2 0x1198 JUMP JUMPDEST SWAP3 POP PUSH1 0x20 DUP11 ADD SWAP10 POP POP PUSH1 0x1 DUP2 ADD SWAP1 POP PUSH2 0x11D0 JUMP JUMPDEST POP DUP3 SWAP8 POP DUP8 SWAP6 POP POP POP POP POP POP SWAP3 SWAP2 POP POP JUMP JUMPDEST PUSH1 0x0 DUP2 MLOAD SWAP1 POP SWAP2 SWAP1 POP JUMP JUMPDEST PUSH1 0x0 DUP3 DUP3 MSTORE PUSH1 0x20 DUP3 ADD SWAP1 POP SWAP3 SWAP2 POP POP JUMP JUMPDEST PUSH1 0x0 DUP2 SWAP1 POP PUSH1 0x20 DUP3 ADD SWAP1 POP SWAP2 SWAP1 POP JUMP JUMPDEST PUSH2 0x124F DUP2 PUSH2 0xFD4 JUMP JUMPDEST DUP3 MSTORE POP POP JUMP JUMPDEST PUSH1 0x0 PUSH2 0x1261 DUP4 DUP4 PUSH2 0x1246 JUMP JUMPDEST PUSH1 0x20 DUP4 ADD SWAP1 POP SWAP3 SWAP2 POP POP JUMP JUMPDEST PUSH1 0x0 PUSH1 0x20 DUP3 ADD SWAP1 POP SWAP2 SWAP1 POP JUMP JUMPDEST PUSH1 0x0 PUSH2 0x1285 DUP3 PUSH2 0x121A JUMP JUMPDEST PUSH2 0x128F DUP2 DUP6 PUSH2 0x1225 JUMP JUMPDEST SWAP4 POP PUSH2 0x129A DUP4 PUSH2 0x1236 JUMP JUMPDEST DUP1 PUSH1 0x0 JUMPDEST DUP4 DUP2 LT ISZERO PUSH2 0x12CB JUMPI DUP2 MLOAD PUSH2 0x12B2 DUP9 DUP3 PUSH2 0x1255 JUMP JUMPDEST SWAP8 POP PUSH2 0x12BD DUP4 PUSH2 0x126D JUMP JUMPDEST SWAP3 POP POP PUSH1 0x1 DUP2 ADD SWAP1 POP PUSH2 0x129E JUMP JUMPDEST POP DUP6 SWAP4 POP POP POP POP SWAP3 SWAP2 POP POP JUMP JUMPDEST PUSH1 0x0 DUP2 MLOAD SWAP1 POP SWAP2 SWAP1 POP JUMP JUMPDEST PUSH1 0x0 DUP3 DUP3 MSTORE PUSH1 0x20 DUP3 ADD SWAP1 POP SWAP3 SWAP2 POP POP JUMP JUMPDEST PUSH1 0x0 DUP2 SWAP1 POP PUSH1 0x20 DUP3 ADD SWAP1 POP SWAP2 SWAP1 POP JUMP JUMPDEST PUSH1 0x0 DUP2 SWAP1 POP SWAP2 SWAP1 POP JUMP JUMPDEST PUSH2 0x1317 DUP2 PUSH2 0x1304 JUMP JUMPDEST DUP3 MSTORE POP POP JUMP JUMPDEST PUSH1 0x0 PUSH1 0x60 DUP4 ADD PUSH1 0x0 DUP4 ADD MLOAD DUP5 DUP3 SUB PUSH1 0x0 DUP7 ADD MSTORE PUSH2 0x133A DUP3 DUP3 PUSH2 0x114B JUMP JUMPDEST SWAP2 POP POP PUSH1 0x20 DUP4 ADD MLOAD PUSH2 0x134F PUSH1 0x20 DUP7 ADD DUP3 PUSH2 0x130E JUMP JUMPDEST POP PUSH1 0x40 DUP4 ADD MLOAD PUSH2 0x1362 PUSH1 0x40 DUP7 ADD DUP3 PUSH2 0x1246 JUMP JUMPDEST POP DUP1 SWAP2 POP POP SWAP3 SWAP2 POP POP JUMP JUMPDEST PUSH1 0x0 PUSH2 0x1379 DUP4 DUP4 PUSH2 0x131D JUMP JUMPDEST SWAP1 POP SWAP3 SWAP2 POP POP JUMP JUMPDEST PUSH1 0x0 PUSH1 0x20 DUP3 ADD SWAP1 POP SWAP2 SWAP1 POP JUMP JUMPDEST PUSH1 0x0 PUSH2 0x1399 DUP3 PUSH2 0x12D8 JUMP JUMPDEST PUSH2 0x13A3 DUP2 DUP6 PUSH2 0x12E3 JUMP JUMPDEST SWAP4 POP DUP4 PUSH1 0x20 DUP3 MUL DUP6 ADD PUSH2 0x13B5 DUP6 PUSH2 0x12F4 JUMP JUMPDEST DUP1 PUSH1 0x0 JUMPDEST DUP6 DUP2 LT ISZERO PUSH2 0x13F1 JUMPI DUP5 DUP5 SUB DUP10 MSTORE DUP2 MLOAD PUSH2 0x13D2 DUP6 DUP3 PUSH2 0x136D JUMP JUMPDEST SWAP5 POP PUSH2 0x13DD DUP4 PUSH2 0x1381 JUMP JUMPDEST SWAP3 POP PUSH1 0x20 DUP11 ADD SWAP10 POP POP PUSH1 0x1 DUP2 ADD SWAP1 POP PUSH2 0x13B9 JUMP JUMPDEST POP DUP3 SWAP8 POP DUP8 SWAP6 POP POP POP POP POP POP SWAP3 SWAP2 POP POP JUMP JUMPDEST PUSH1 0x0 PUSH1 0x80 DUP3 ADD SWAP1 POP DUP2 DUP2 SUB PUSH1 0x0 DUP4 ADD MSTORE PUSH2 0x141D DUP2 DUP8 PUSH2 0x10D5 JUMP JUMPDEST SWAP1 POP DUP2 DUP2 SUB PUSH1 0x20 DUP4 ADD MSTORE PUSH2 0x1431 DUP2 DUP7 PUSH2 0x11A5 JUMP JUMPDEST SWAP1 POP DUP2 DUP2 SUB PUSH1 0x40 DUP4 ADD MSTORE PUSH2 0x1445 DUP2 DUP6 PUSH2 0x127A JUMP JUMPDEST SWAP1 POP DUP2 DUP2 SUB PUSH1 0x60 DUP4 ADD MSTORE PUSH2 0x1459 DUP2 DUP5 PUSH2 0x138E JUMP JUMPDEST SWAP1 POP SWAP6 SWAP5 POP POP POP POP POP JUMP JUMPDEST PUSH2 0x146D DUP2 PUSH2 0x1304 JUMP JUMPDEST DUP2 EQ PUSH2 0x1478 JUMPI PUSH1 0x0 DUP1 REVERT JUMPDEST POP JUMP JUMPDEST PUSH1 0x0 DUP2 CALLDATALOAD SWAP1 POP PUSH2 0x148A DUP2 PUSH2 0x1464 JUMP JUMPDEST SWAP3 SWAP2 POP POP JUMP JUMPDEST PUSH1 0x0 PUSH1 0x20 DUP3 DUP5 SUB SLT ISZERO PUSH2 0x14A6 JUMPI PUSH2 0x14A5 PUSH2 0xFAA JUMP JUMPDEST JUMPDEST PUSH1 0x0 PUSH2 0x14B4 DUP5 DUP3 DUP6 ADD PUSH2 0x147B JUMP JUMPDEST SWAP2 POP POP SWAP3 SWAP2 POP POP JUMP JUMPDEST PUSH2 0x14C6 DUP2 PUSH2 0x1304 JUMP JUMPDEST DUP3 MSTORE POP POP JUMP JUMPDEST PUSH2 0x14D5 DUP2 PUSH2 0xFD4 JUMP JUMPDEST DUP3 MSTORE POP POP JUMP JUMPDEST PUSH1 0x0 PUSH1 0x60 DUP3 ADD SWAP1 POP DUP2 DUP2 SUB PUSH1 0x0 DUP4 ADD MSTORE PUSH2 0x14F5 DUP2 DUP7 PUSH2 0x10D5 JUMP JUMPDEST SWAP1 POP PUSH2 0x1504 PUSH1 0x20 DUP4 ADD DUP6 PUSH2 0x14BD JUMP JUMPDEST PUSH2 0x1511 PUSH1 0x40 DUP4 ADD DUP5 PUSH2 0x14CC JUMP JUMPDEST SWAP5 SWAP4 POP POP POP POP JUMP JUMPDEST PUSH1 0x0 PUSH1 0x20 DUP3 ADD SWAP1 POP PUSH2 0x152E PUSH1 0x0 DUP4 ADD DUP5 PUSH2 0x14CC JUMP JUMPDEST SWAP3 SWAP2 POP POP JUMP JUMPDEST PUSH1 0x0 PUSH1 0x20 DUP3 ADD SWAP1 POP DUP2 DUP2 SUB PUSH1 0x0 DUP4 ADD MSTORE PUSH2 0x154E DUP2 DUP5 PUSH2 0x10D5 JUMP JUMPDEST SWAP1 POP SWAP3 SWAP2 POP POP JUMP JUMPDEST PUSH1 0x0 DUP1 REVERT JUMPDEST PUSH1 0x0 DUP1 REVERT JUMPDEST PUSH32 0x4E487B7100000000000000000000000000000000000000000000000000000000 PUSH1 0x0 MSTORE PUSH1 0x41 PUSH1 0x4 MSTORE PUSH1 0x24 PUSH1 0x0 REVERT JUMPDEST PUSH2 0x1598 DUP3 PUSH2 0x10C4 JUMP JUMPDEST DUP2 ADD DUP2 DUP2 LT PUSH8 0xFFFFFFFFFFFFFFFF DUP3 GT OR ISZERO PUSH2 0x15B7 JUMPI PUSH2 0x15B6 PUSH2 0x1560 JUMP JUMPDEST JUMPDEST DUP1 PUSH1 0x40 MSTORE POP POP POP JUMP JUMPDEST PUSH1 0x0 PUSH2 0x15CA PUSH2 0xFA0 JUMP JUMPDEST SWAP1 POP PUSH2 0x15D6 DUP3 DUP3 PUSH2 0x158F JUMP JUMPDEST SWAP2 SWAP1 POP JUMP JUMPDEST PUSH1 0x0 PUSH8 0xFFFFFFFFFFFFFFFF DUP3 GT ISZERO PUSH2 0x15F6 JUMPI PUSH2 0x15F5 PUSH2 0x1560 JUMP JUMPDEST JUMPDEST PUSH2 0x15FF DUP3 PUSH2 0x10C4 JUMP JUMPDEST SWAP1 POP PUSH1 0x20 DUP2 ADD SWAP1 POP SWAP2 SWAP1 POP JUMP JUMPDEST DUP3 DUP2 DUP4 CALLDATACOPY PUSH1 0x0 DUP4 DUP4 ADD MSTORE POP POP POP JUMP JUMPDEST PUSH1 0x0 PUSH2 0x162E PUSH2 0x1629 DUP5 PUSH2 0x15DB JUMP JUMPDEST PUSH2 0x15C0 JUMP JUMPDEST SWAP1 POP DUP3 DUP2 MSTORE PUSH1 0x20 DUP2 ADD DUP5 DUP5 DUP5 ADD GT ISZERO PUSH2 0x164A JUMPI PUSH2 0x1649 PUSH2 0x155B JUMP JUMPDEST JUMPDEST PUSH2 0x1655 DUP5 DUP3 DUP6 PUSH2 0x160C JUMP JUMPDEST POP SWAP4 SWAP3 POP POP POP JUMP JUMPDEST PUSH1 0x0 DUP3 PUSH1 0x1F DUP4 ADD SLT PUSH2 0x1672 JUMPI PUSH2 0x1671 PUSH2 0x1556 JUMP JUMPDEST JUMPDEST DUP2 CALLDATALOAD PUSH2 0x1682 DUP5 DUP3 PUSH1 0x20 DUP7 ADD PUSH2 0x161B JUMP JUMPDEST SWAP2 POP POP SWAP3 SWAP2 POP POP JUMP JUMPDEST PUSH1 0x0 PUSH1 0x20 DUP3 DUP5 SUB SLT ISZERO PUSH2 0x16A1 JUMPI PUSH2 0x16A0 PUSH2 0xFAA JUMP JUMPDEST JUMPDEST PUSH1 0x0 DUP3 ADD CALLDATALOAD PUSH8 0xFFFFFFFFFFFFFFFF DUP2 GT ISZERO PUSH2 0x16BF JUMPI PUSH2 0x16BE PUSH2 0xFAF JUMP JUMPDEST JUMPDEST PUSH2 0x16CB DUP5 DUP3 DUP6 ADD PUSH2 0x165D JUMP JUMPDEST SWAP2 POP POP SWAP3 SWAP2 POP POP JUMP JUMPDEST PUSH32 0x4E487B7100000000000000000000000000000000000000000000000000000000 PUSH1 0x0 MSTORE PUSH1 0x22 PUSH1 0x4 MSTORE PUSH1 0x24 PUSH1 0x0 REVERT JUMPDEST PUSH1 0x0 PUSH1 0x2 DUP3 DIV SWAP1 POP PUSH1 0x1 DUP3 AND DUP1 PUSH2 0x171B JUMPI PUSH1 0x7F DUP3 AND SWAP2 POP JUMPDEST PUSH1 0x20 DUP3 LT DUP2 EQ ISZERO PUSH2 0x172F JUMPI PUSH2 0x172E PUSH2 0x16D4 JUMP JUMPDEST JUMPDEST POP SWAP2 SWAP1 POP JUMP JUMPDEST PUSH32 0x4F6E6C7920616E20616363657074656420617574686F722063616E2061707072 PUSH1 0x0 DUP3 ADD MSTORE PUSH32 0x6F76652061207265717565737400000000000000000000000000000000000000 PUSH1 0x20 DUP3 ADD MSTORE POP JUMP JUMPDEST PUSH1 0x0 PUSH2 0x1791 PUSH1 0x2D DUP4 PUSH2 0x1080 JUMP JUMPDEST SWAP2 POP PUSH2 0x179C DUP3 PUSH2 0x1735 JUMP JUMPDEST PUSH1 0x40 DUP3 ADD SWAP1 POP SWAP2 SWAP1 POP JUMP JUMPDEST PUSH1 0x0 PUSH1 0x20 DUP3 ADD SWAP1 POP DUP2 DUP2 SUB PUSH1 0x0 DUP4 ADD MSTORE PUSH2 0x17C0 DUP2 PUSH2 0x1784 JUMP JUMPDEST SWAP1 POP SWAP2 SWAP1 POP JUMP JUMPDEST PUSH32 0x4E487B7100000000000000000000000000000000000000000000000000000000 PUSH1 0x0 MSTORE PUSH1 0x32 PUSH1 0x4 MSTORE PUSH1 0x24 PUSH1 0x0 REVERT JUMPDEST PUSH32 0x417574686F72206F6620746865207265717565737420697320616C7265616479 PUSH1 0x0 DUP3 ADD MSTORE PUSH32 0x20696E636C7564656420696E20746865206C697374206F6620617574686F7273 PUSH1 0x20 DUP3 ADD MSTORE POP JUMP JUMPDEST PUSH1 0x0 PUSH2 0x1852 PUSH1 0x40 DUP4 PUSH2 0x1080 JUMP JUMPDEST SWAP2 POP PUSH2 0x185D DUP3 PUSH2 0x17F6 JUMP JUMPDEST PUSH1 0x40 DUP3 ADD SWAP1 POP SWAP2 SWAP1 POP JUMP JUMPDEST PUSH1 0x0 PUSH1 0x20 DUP3 ADD SWAP1 POP DUP2 DUP2 SUB PUSH1 0x0 DUP4 ADD MSTORE PUSH2 0x1881 DUP2 PUSH2 0x1845 JUMP JUMPDEST SWAP1 POP SWAP2 SWAP1 POP JUMP JUMPDEST PUSH32 0x4E487B7100000000000000000000000000000000000000000000000000000000 PUSH1 0x0 MSTORE PUSH1 0x11 PUSH1 0x4 MSTORE PUSH1 0x24 PUSH1 0x0 REVERT JUMPDEST PUSH1 0x0 PUSH2 0x18C2 DUP3 PUSH2 0x1304 JUMP JUMPDEST SWAP2 POP PUSH2 0x18CD DUP4 PUSH2 0x1304 JUMP JUMPDEST SWAP3 POP DUP3 DUP3 LT ISZERO PUSH2 0x18E0 JUMPI PUSH2 0x18DF PUSH2 0x1888 JUMP JUMPDEST JUMPDEST DUP3 DUP3 SUB SWAP1 POP SWAP3 SWAP2 POP POP JUMP JUMPDEST PUSH32 0x4E487B7100000000000000000000000000000000000000000000000000000000 PUSH1 0x0 MSTORE PUSH1 0x31 PUSH1 0x4 MSTORE PUSH1 0x24 PUSH1 0x0 REVERT JUMPDEST PUSH32 0x417574686F7220616C72656164792065786973747320696E20746865206C6973 PUSH1 0x0 DUP3 ADD MSTORE PUSH32 0x74206F6620617574686F72730000000000000000000000000000000000000000 PUSH1 0x20 DUP3 ADD MSTORE POP JUMP JUMPDEST PUSH1 0x0 PUSH2 0x1976 PUSH1 0x2C DUP4 PUSH2 0x1080 JUMP JUMPDEST SWAP2 POP PUSH2 0x1981 DUP3 PUSH2 0x191A JUMP JUMPDEST PUSH1 0x40 DUP3 ADD SWAP1 POP SWAP2 SWAP1 POP JUMP JUMPDEST PUSH1 0x0 PUSH1 0x20 DUP3 ADD SWAP1 POP DUP2 DUP2 SUB PUSH1 0x0 DUP4 ADD MSTORE PUSH2 0x19A5 DUP2 PUSH2 0x1969 JUMP JUMPDEST SWAP1 POP SWAP2 SWAP1 POP JUMP JUMPDEST PUSH32 0x4F6E6C7920616E20616363657074656420617574686F722063616E2061646420 PUSH1 0x0 DUP3 ADD MSTORE PUSH32 0x6120636861707465720000000000000000000000000000000000000000000000 PUSH1 0x20 DUP3 ADD MSTORE POP JUMP JUMPDEST PUSH1 0x0 PUSH2 0x1A08 PUSH1 0x29 DUP4 PUSH2 0x1080 JUMP JUMPDEST SWAP2 POP PUSH2 0x1A13 DUP3 PUSH2 0x19AC JUMP JUMPDEST PUSH1 0x40 DUP3 ADD SWAP1 POP SWAP2 SWAP1 POP JUMP JUMPDEST PUSH1 0x0 PUSH1 0x20 DUP3 ADD SWAP1 POP DUP2 DUP2 SUB PUSH1 0x0 DUP4 ADD MSTORE PUSH2 0x1A37 DUP2 PUSH2 0x19FB JUMP JUMPDEST SWAP1 POP SWAP2 SWAP1 POP JUMP INVALID LOG2 PUSH5 0x6970667358 0x22 SLT KECCAK256 DELEGATECALL 0xD7 0x5E 0x22 0xC PUSH18 0xAA05D21406A04225DBA3FEC6F820FCBDAD47 CREATE RETURNDATACOPY PUSH25 0x34F50B50DE64736F6C63430008090033A26469706673582212 KECCAK256 DUP7 0xD2 0xEC PUSH15 0xBF182CE1DCA6D29521363E906FF819 REVERT SWAP13 0xAA 0x27 0xCF 0xD2 0xD0 0xEB 0xAB 0xD4 0xE2 SDIV 0xEC PUSH5 0x736F6C6343 STOP ADDMOD MULMOD STOP CALLER "},"gasEstimates":{"creation":{"codeDepositCost":"1939200","executionCost":"2048","totalCost":"1941248"},"external":{"createStory(string)":"infinite","deployedStories(uint256)":"4934","getDeployedStories()":"infinite"}},"methodIdentifiers":{"createStory(string)":"9d9f92d8","deployedStories(uint256)":"18351ea7","getDeployedStories()":"2ff2bdd5"}},"storageLayout":{"storage":[{"astId":4,"contract":"Story.sol:StoryFactory","label":"deployedStories","offset":0,"slot":"0","type":"t_array(t_address)dyn_storage"}],"types":{"t_address":{"encoding":"inplace","label":"address","numberOfBytes":"20"},"t_array(t_address)dyn_storage":{"base":"t_address","encoding":"dynamic_array","label":"address[]","numberOfBytes":"32"}}},"userdoc":{"kind":"user","methods":{},"version":1}}