{"abi":[{"inputs":[{"internalType":"address","name":"_mainAuthor","type":"address"},{"internalType":"string","name":"_title","type":"string"},{"internalType":"string","name":"_genre","type":"string"},{"internalType":"string","name":"_mainIdea","type":"string"},{"internalType":"string","name":"_coverPhoto","type":"string"}],"stateMutability":"nonpayable","type":"constructor"},{"inputs":[{"internalType":"uint256","name":"_index","type":"uint256"}],"name":"approveRequestToJoin","outputs":[],"stateMutability":"nonpayable","type":"function"},{"inputs":[{"internalType":"uint256","name":"","type":"uint256"}],"name":"authorsForReact","outputs":[{"internalType":"address","name":"","type":"address"}],"stateMutability":"view","type":"function"},{"inputs":[{"internalType":"address","name":"","type":"address"}],"name":"authorsForSolidity","outputs":[{"internalType":"bool","name":"","type":"bool"}],"stateMutability":"view","type":"function"},{"inputs":[{"internalType":"uint256","name":"","type":"uint256"}],"name":"chaptersForReact","outputs":[{"internalType":"address","name":"","type":"address"}],"stateMutability":"view","type":"function"},{"inputs":[{"internalType":"address","name":"","type":"address"}],"name":"chaptersForSolidity","outputs":[{"internalType":"bool","name":"","type":"bool"}],"stateMutability":"view","type":"function"},{"inputs":[],"name":"contribute","outputs":[],"stateMutability":"payable","type":"function"},{"inputs":[{"internalType":"string","name":"_title","type":"string"},{"internalType":"string","name":"_ipfsHash","type":"string"},{"internalType":"address","name":"_parentChapter","type":"address"},{"internalType":"address","name":"_childChapter","type":"address"}],"name":"createChapter","outputs":[],"stateMutability":"nonpayable","type":"function"},{"inputs":[{"internalType":"string","name":"_proposal","type":"string"}],"name":"createRequestToJoin","outputs":[],"stateMutability":"nonpayable","type":"function"},{"inputs":[],"name":"dispenseRewards","outputs":[],"stateMutability":"nonpayable","type":"function"},{"inputs":[],"name":"getChapters","outputs":[{"internalType":"address[]","name":"","type":"address[]"}],"stateMutability":"view","type":"function"},{"inputs":[],"name":"getSummary","outputs":[{"internalType":"address","name":"","type":"address"},{"internalType":"string","name":"","type":"string"},{"internalType":"string","name":"","type":"string"},{"internalType":"string","name":"","type":"string"},{"internalType":"address[]","name":"","type":"address[]"},{"internalType":"address[]","name":"","type":"address[]"},{"internalType":"uint256","name":"","type":"uint256"},{"internalType":"uint256","name":"","type":"uint256"},{"internalType":"bool","name":"","type":"bool"},{"internalType":"uint256","name":"","type":"uint256"},{"internalType":"string","name":"","type":"string"}],"stateMutability":"view","type":"function"},{"inputs":[],"name":"isAuthor","outputs":[{"internalType":"bool","name":"","type":"bool"}],"stateMutability":"view","type":"function"},{"inputs":[],"name":"report","outputs":[],"stateMutability":"nonpayable","type":"function"},{"inputs":[],"name":"reported","outputs":[{"internalType":"bool","name":"","type":"bool"}],"stateMutability":"view","type":"function"},{"inputs":[{"internalType":"uint256","name":"","type":"uint256"}],"name":"requestsToJoin","outputs":[{"internalType":"string","name":"proposal","type":"string"},{"internalType":"uint256","name":"timestamp","type":"uint256"},{"internalType":"address","name":"author","type":"address"},{"internalType":"uint256","name":"approversCount","type":"uint256"},{"internalType":"bool","name":"status","type":"bool"}],"stateMutability":"view","type":"function"}],"devdoc":{"kind":"dev","methods":{},"version":1},"evm":{"assembly":"    /* \"Story.sol\":1079:7835  contract Story {... */\n  mstore(0x40, 0x80)\n    /* \"Story.sol\":1821:2229  constructor(address _mainAuthor, string memory _title, string memory _genre, string memory _mainIdea, string memory _coverPhoto) {... */\n  callvalue\n  dup1\n  iszero\n  tag_1\n  jumpi\n  0x00\n  dup1\n  revert\ntag_1:\n  pop\n  mload(0x40)\n  sub(codesize, bytecodeSize)\n  dup1\n  bytecodeSize\n  dup4\n  codecopy\n  dup2\n  dup2\n  add\n  0x40\n  mstore\n  dup2\n  add\n  swap1\n  tag_2\n  swap2\n  swap1\n  tag_3\n  jump\t// in\ntag_2:\n    /* \"Story.sol\":1974:1985  _mainAuthor */\n  dup5\n    /* \"Story.sol\":1961:1971  mainAuthor */\n  0x00\n  dup1\n    /* \"Story.sol\":1961:1985  mainAuthor = _mainAuthor */\n  0x0100\n  exp\n  dup2\n  sload\n  dup2\n  0xffffffffffffffffffffffffffffffffffffffff\n  mul\n  not\n  and\n  swap1\n  dup4\n  0xffffffffffffffffffffffffffffffffffffffff\n  and\n  mul\n  or\n  swap1\n  sstore\n  pop\n    /* \"Story.sol\":2030:2034  true */\n  0x01\n    /* \"Story.sol\":1996:2014  authorsForSolidity */\n  0x05\n    /* \"Story.sol\":1996:2027  authorsForSolidity[_mainAuthor] */\n  0x00\n    /* \"Story.sol\":2015:2026  _mainAuthor */\n  dup8\n    /* \"Story.sol\":1996:2027  authorsForSolidity[_mainAuthor] */\n  0xffffffffffffffffffffffffffffffffffffffff\n  and\n  0xffffffffffffffffffffffffffffffffffffffff\n  and\n  dup2\n  mstore\n  0x20\n  add\n  swap1\n  dup2\n  mstore\n  0x20\n  add\n  0x00\n  keccak256\n  0x00\n    /* \"Story.sol\":1996:2034  authorsForSolidity[_mainAuthor] = true */\n  0x0100\n  exp\n  dup2\n  sload\n  dup2\n  0xff\n  mul\n  not\n  and\n  swap1\n  dup4\n  iszero\n  iszero\n  mul\n  or\n  swap1\n  sstore\n  pop\n    /* \"Story.sol\":2045:2060  authorsForReact */\n  0x06\n    /* \"Story.sol\":2066:2077  _mainAuthor */\n  dup6\n    /* \"Story.sol\":2045:2078  authorsForReact.push(_mainAuthor) */\n  swap1\n  dup1\n  0x01\n  dup2\n  sload\n  add\n  dup1\n  dup3\n  sstore\n  dup1\n  swap2\n  pop\n  pop\n  0x01\n  swap1\n  sub\n  swap1\n  0x00\n  mstore\n  keccak256(0x00, 0x20)\n  add\n  0x00\n  swap1\n  swap2\n  swap1\n  swap2\n  swap1\n  swap2\n  0x0100\n  exp\n  dup2\n  sload\n  dup2\n  0xffffffffffffffffffffffffffffffffffffffff\n  mul\n  not\n  and\n  swap1\n  dup4\n  0xffffffffffffffffffffffffffffffffffffffff\n  and\n  mul\n  or\n  swap1\n  sstore\n  pop\n    /* \"Story.sol\":2097:2103  _title */\n  dup4\n    /* \"Story.sol\":2089:2094  title */\n  0x01\n    /* \"Story.sol\":2089:2103  title = _title */\n  swap1\n  dup1\n  mload\n  swap1\n  0x20\n  add\n  swap1\n  tag_7\n  swap3\n  swap2\n  swap1\n  tag_8\n  jump\t// in\ntag_7:\n  pop\n    /* \"Story.sol\":2122:2128  _genre */\n  dup3\n    /* \"Story.sol\":2114:2119  genre */\n  0x02\n    /* \"Story.sol\":2114:2128  genre = _genre */\n  swap1\n  dup1\n  mload\n  swap1\n  0x20\n  add\n  swap1\n  tag_9\n  swap3\n  swap2\n  swap1\n  tag_8\n  jump\t// in\ntag_9:\n  pop\n    /* \"Story.sol\":2150:2159  _mainIdea */\n  dup2\n    /* \"Story.sol\":2139:2147  mainIdea */\n  0x03\n    /* \"Story.sol\":2139:2159  mainIdea = _mainIdea */\n  swap1\n  dup1\n  mload\n  swap1\n  0x20\n  add\n  swap1\n  tag_10\n  swap3\n  swap2\n  swap1\n  tag_8\n  jump\t// in\ntag_10:\n  pop\n    /* \"Story.sol\":2183:2194  _coverPhoto */\n  dup1\n    /* \"Story.sol\":2170:2180  coverPhoto */\n  0x04\n    /* \"Story.sol\":2170:2194  coverPhoto = _coverPhoto */\n  swap1\n  dup1\n  mload\n  swap1\n  0x20\n  add\n  swap1\n  tag_11\n  swap3\n  swap2\n  swap1\n  tag_8\n  jump\t// in\ntag_11:\n  pop\n    /* \"Story.sol\":2216:2221  false */\n  0x00\n    /* \"Story.sol\":2205:2213  reported */\n  0x0c\n  0x00\n    /* \"Story.sol\":2205:2221  reported = false */\n  0x0100\n  exp\n  dup2\n  sload\n  dup2\n  0xff\n  mul\n  not\n  and\n  swap1\n  dup4\n  iszero\n  iszero\n  mul\n  or\n  swap1\n  sstore\n  pop\n    /* \"Story.sol\":1821:2229  constructor(address _mainAuthor, string memory _title, string memory _genre, string memory _mainIdea, string memory _coverPhoto) {... */\n  pop\n  pop\n  pop\n  pop\n  pop\n    /* \"Story.sol\":1079:7835  contract Story {... */\n  jump(tag_12)\ntag_8:\n  dup3\n  dup1\n  sload\n  tag_13\n  swap1\n  tag_14\n  jump\t// in\ntag_13:\n  swap1\n  0x00\n  mstore\n  keccak256(0x00, 0x20)\n  swap1\n  0x1f\n  add\n  0x20\n  swap1\n  div\n  dup2\n  add\n  swap3\n  dup3\n  tag_16\n  jumpi\n  0x00\n  dup6\n  sstore\n  jump(tag_15)\ntag_16:\n  dup3\n  0x1f\n  lt\n  tag_17\n  jumpi\n  dup1\n  mload\n  not(0xff)\n  and\n  dup4\n  dup1\n  add\n  or\n  dup6\n  sstore\n  jump(tag_15)\ntag_17:\n  dup3\n  dup1\n  add\n  0x01\n  add\n  dup6\n  sstore\n  dup3\n  iszero\n  tag_15\n  jumpi\n  swap2\n  dup3\n  add\ntag_18:\n  dup3\n  dup2\n  gt\n  iszero\n  tag_19\n  jumpi\n  dup3\n  mload\n  dup3\n  sstore\n  swap2\n  0x20\n  add\n  swap2\n  swap1\n  0x01\n  add\n  swap1\n  jump(tag_18)\ntag_19:\ntag_15:\n  pop\n  swap1\n  pop\n  tag_20\n  swap2\n  swap1\n  tag_21\n  jump\t// in\ntag_20:\n  pop\n  swap1\n  jump\t// out\ntag_21:\ntag_22:\n  dup1\n  dup3\n  gt\n  iszero\n  tag_23\n  jumpi\n  0x00\n  dup2\n  0x00\n  swap1\n  sstore\n  pop\n  0x01\n  add\n  jump(tag_22)\ntag_23:\n  pop\n  swap1\n  jump\t// out\n    /* \"#utility.yul\":7:82   */\ntag_24:\n    /* \"#utility.yul\":40:46   */\n  0x00\n    /* \"#utility.yul\":73:75   */\n  0x40\n    /* \"#utility.yul\":67:76   */\n  mload\n    /* \"#utility.yul\":57:76   */\n  swap1\n  pop\n    /* \"#utility.yul\":7:82   */\n  swap1\n  jump\t// out\n    /* \"#utility.yul\":88:205   */\ntag_25:\n    /* \"#utility.yul\":197:198   */\n  0x00\n    /* \"#utility.yul\":194:195   */\n  dup1\n    /* \"#utility.yul\":187:199   */\n  revert\n    /* \"#utility.yul\":211:328   */\ntag_26:\n    /* \"#utility.yul\":320:321   */\n  0x00\n    /* \"#utility.yul\":317:318   */\n  dup1\n    /* \"#utility.yul\":310:322   */\n  revert\n    /* \"#utility.yul\":334:460   */\ntag_27:\n    /* \"#utility.yul\":371:378   */\n  0x00\n    /* \"#utility.yul\":411:453   */\n  0xffffffffffffffffffffffffffffffffffffffff\n    /* \"#utility.yul\":404:409   */\n  dup3\n    /* \"#utility.yul\":400:454   */\n  and\n    /* \"#utility.yul\":389:454   */\n  swap1\n  pop\n    /* \"#utility.yul\":334:460   */\n  swap2\n  swap1\n  pop\n  jump\t// out\n    /* \"#utility.yul\":466:562   */\ntag_28:\n    /* \"#utility.yul\":503:510   */\n  0x00\n    /* \"#utility.yul\":532:556   */\n  tag_48\n    /* \"#utility.yul\":550:555   */\n  dup3\n    /* \"#utility.yul\":532:556   */\n  tag_27\n  jump\t// in\ntag_48:\n    /* \"#utility.yul\":521:556   */\n  swap1\n  pop\n    /* \"#utility.yul\":466:562   */\n  swap2\n  swap1\n  pop\n  jump\t// out\n    /* \"#utility.yul\":568:690   */\ntag_29:\n    /* \"#utility.yul\":641:665   */\n  tag_50\n    /* \"#utility.yul\":659:664   */\n  dup2\n    /* \"#utility.yul\":641:665   */\n  tag_28\n  jump\t// in\ntag_50:\n    /* \"#utility.yul\":634:639   */\n  dup2\n    /* \"#utility.yul\":631:666   */\n  eq\n    /* \"#utility.yul\":621:684   */\n  tag_51\n  jumpi\n    /* \"#utility.yul\":680:681   */\n  0x00\n    /* \"#utility.yul\":677:678   */\n  dup1\n    /* \"#utility.yul\":670:682   */\n  revert\n    /* \"#utility.yul\":621:684   */\ntag_51:\n    /* \"#utility.yul\":568:690   */\n  pop\n  jump\t// out\n    /* \"#utility.yul\":696:839   */\ntag_30:\n    /* \"#utility.yul\":753:758   */\n  0x00\n    /* \"#utility.yul\":784:790   */\n  dup2\n    /* \"#utility.yul\":778:791   */\n  mload\n    /* \"#utility.yul\":769:791   */\n  swap1\n  pop\n    /* \"#utility.yul\":800:833   */\n  tag_53\n    /* \"#utility.yul\":827:832   */\n  dup2\n    /* \"#utility.yul\":800:833   */\n  tag_29\n  jump\t// in\ntag_53:\n    /* \"#utility.yul\":696:839   */\n  swap3\n  swap2\n  pop\n  pop\n  jump\t// out\n    /* \"#utility.yul\":845:962   */\ntag_31:\n    /* \"#utility.yul\":954:955   */\n  0x00\n    /* \"#utility.yul\":951:952   */\n  dup1\n    /* \"#utility.yul\":944:956   */\n  revert\n    /* \"#utility.yul\":968:1085   */\ntag_32:\n    /* \"#utility.yul\":1077:1078   */\n  0x00\n    /* \"#utility.yul\":1074:1075   */\n  dup1\n    /* \"#utility.yul\":1067:1079   */\n  revert\n    /* \"#utility.yul\":1091:1193   */\ntag_33:\n    /* \"#utility.yul\":1132:1138   */\n  0x00\n    /* \"#utility.yul\":1183:1185   */\n  0x1f\n    /* \"#utility.yul\":1179:1186   */\n  not\n    /* \"#utility.yul\":1174:1176   */\n  0x1f\n    /* \"#utility.yul\":1167:1172   */\n  dup4\n    /* \"#utility.yul\":1163:1177   */\n  add\n    /* \"#utility.yul\":1159:1187   */\n  and\n    /* \"#utility.yul\":1149:1187   */\n  swap1\n  pop\n    /* \"#utility.yul\":1091:1193   */\n  swap2\n  swap1\n  pop\n  jump\t// out\n    /* \"#utility.yul\":1199:1379   */\ntag_34:\n    /* \"#utility.yul\":1247:1324   */\n  0x4e487b7100000000000000000000000000000000000000000000000000000000\n    /* \"#utility.yul\":1244:1245   */\n  0x00\n    /* \"#utility.yul\":1237:1325   */\n  mstore\n    /* \"#utility.yul\":1344:1348   */\n  0x41\n    /* \"#utility.yul\":1341:1342   */\n  0x04\n    /* \"#utility.yul\":1334:1349   */\n  mstore\n    /* \"#utility.yul\":1368:1372   */\n  0x24\n    /* \"#utility.yul\":1365:1366   */\n  0x00\n    /* \"#utility.yul\":1358:1373   */\n  revert\n    /* \"#utility.yul\":1385:1666   */\ntag_35:\n    /* \"#utility.yul\":1468:1495   */\n  tag_59\n    /* \"#utility.yul\":1490:1494   */\n  dup3\n    /* \"#utility.yul\":1468:1495   */\n  tag_33\n  jump\t// in\ntag_59:\n    /* \"#utility.yul\":1460:1466   */\n  dup2\n    /* \"#utility.yul\":1456:1496   */\n  add\n    /* \"#utility.yul\":1598:1604   */\n  dup2\n    /* \"#utility.yul\":1586:1596   */\n  dup2\n    /* \"#utility.yul\":1583:1605   */\n  lt\n    /* \"#utility.yul\":1562:1580   */\n  0xffffffffffffffff\n    /* \"#utility.yul\":1550:1560   */\n  dup3\n    /* \"#utility.yul\":1547:1581   */\n  gt\n    /* \"#utility.yul\":1544:1606   */\n  or\n    /* \"#utility.yul\":1541:1629   */\n  iszero\n  tag_60\n  jumpi\n    /* \"#utility.yul\":1609:1627   */\n  tag_61\n  tag_34\n  jump\t// in\ntag_61:\n    /* \"#utility.yul\":1541:1629   */\ntag_60:\n    /* \"#utility.yul\":1649:1659   */\n  dup1\n    /* \"#utility.yul\":1645:1647   */\n  0x40\n    /* \"#utility.yul\":1638:1660   */\n  mstore\n    /* \"#utility.yul\":1428:1666   */\n  pop\n    /* \"#utility.yul\":1385:1666   */\n  pop\n  pop\n  jump\t// out\n    /* \"#utility.yul\":1672:1801   */\ntag_36:\n    /* \"#utility.yul\":1706:1712   */\n  0x00\n    /* \"#utility.yul\":1733:1753   */\n  tag_63\n  tag_24\n  jump\t// in\ntag_63:\n    /* \"#utility.yul\":1723:1753   */\n  swap1\n  pop\n    /* \"#utility.yul\":1762:1795   */\n  tag_64\n    /* \"#utility.yul\":1790:1794   */\n  dup3\n    /* \"#utility.yul\":1782:1788   */\n  dup3\n    /* \"#utility.yul\":1762:1795   */\n  tag_35\n  jump\t// in\ntag_64:\n    /* \"#utility.yul\":1672:1801   */\n  swap2\n  swap1\n  pop\n  jump\t// out\n    /* \"#utility.yul\":1807:2115   */\ntag_37:\n    /* \"#utility.yul\":1869:1873   */\n  0x00\n    /* \"#utility.yul\":1959:1977   */\n  0xffffffffffffffff\n    /* \"#utility.yul\":1951:1957   */\n  dup3\n    /* \"#utility.yul\":1948:1978   */\n  gt\n    /* \"#utility.yul\":1945:2001   */\n  iszero\n  tag_66\n  jumpi\n    /* \"#utility.yul\":1981:1999   */\n  tag_67\n  tag_34\n  jump\t// in\ntag_67:\n    /* \"#utility.yul\":1945:2001   */\ntag_66:\n    /* \"#utility.yul\":2019:2048   */\n  tag_68\n    /* \"#utility.yul\":2041:2047   */\n  dup3\n    /* \"#utility.yul\":2019:2048   */\n  tag_33\n  jump\t// in\ntag_68:\n    /* \"#utility.yul\":2011:2048   */\n  swap1\n  pop\n    /* \"#utility.yul\":2103:2107   */\n  0x20\n    /* \"#utility.yul\":2097:2101   */\n  dup2\n    /* \"#utility.yul\":2093:2108   */\n  add\n    /* \"#utility.yul\":2085:2108   */\n  swap1\n  pop\n    /* \"#utility.yul\":1807:2115   */\n  swap2\n  swap1\n  pop\n  jump\t// out\n    /* \"#utility.yul\":2121:2428   */\ntag_38:\n    /* \"#utility.yul\":2189:2190   */\n  0x00\n    /* \"#utility.yul\":2199:2312   */\ntag_70:\n    /* \"#utility.yul\":2213:2219   */\n  dup4\n    /* \"#utility.yul\":2210:2211   */\n  dup2\n    /* \"#utility.yul\":2207:2220   */\n  lt\n    /* \"#utility.yul\":2199:2312   */\n  iszero\n  tag_72\n  jumpi\n    /* \"#utility.yul\":2298:2299   */\n  dup1\n    /* \"#utility.yul\":2293:2296   */\n  dup3\n    /* \"#utility.yul\":2289:2300   */\n  add\n    /* \"#utility.yul\":2283:2301   */\n  mload\n    /* \"#utility.yul\":2279:2280   */\n  dup2\n    /* \"#utility.yul\":2274:2277   */\n  dup5\n    /* \"#utility.yul\":2270:2281   */\n  add\n    /* \"#utility.yul\":2263:2302   */\n  mstore\n    /* \"#utility.yul\":2235:2237   */\n  0x20\n    /* \"#utility.yul\":2232:2233   */\n  dup2\n    /* \"#utility.yul\":2228:2238   */\n  add\n    /* \"#utility.yul\":2223:2238   */\n  swap1\n  pop\n    /* \"#utility.yul\":2199:2312   */\n  jump(tag_70)\ntag_72:\n    /* \"#utility.yul\":2330:2336   */\n  dup4\n    /* \"#utility.yul\":2327:2328   */\n  dup2\n    /* \"#utility.yul\":2324:2337   */\n  gt\n    /* \"#utility.yul\":2321:2422   */\n  iszero\n  tag_73\n  jumpi\n    /* \"#utility.yul\":2410:2411   */\n  0x00\n    /* \"#utility.yul\":2401:2407   */\n  dup5\n    /* \"#utility.yul\":2396:2399   */\n  dup5\n    /* \"#utility.yul\":2392:2408   */\n  add\n    /* \"#utility.yul\":2385:2412   */\n  mstore\n    /* \"#utility.yul\":2321:2422   */\ntag_73:\n    /* \"#utility.yul\":2170:2428   */\n  pop\n    /* \"#utility.yul\":2121:2428   */\n  pop\n  pop\n  pop\n  jump\t// out\n    /* \"#utility.yul\":2434:2855   */\ntag_39:\n    /* \"#utility.yul\":2523:2528   */\n  0x00\n    /* \"#utility.yul\":2548:2614   */\n  tag_75\n    /* \"#utility.yul\":2564:2613   */\n  tag_76\n    /* \"#utility.yul\":2606:2612   */\n  dup5\n    /* \"#utility.yul\":2564:2613   */\n  tag_37\n  jump\t// in\ntag_76:\n    /* \"#utility.yul\":2548:2614   */\n  tag_36\n  jump\t// in\ntag_75:\n    /* \"#utility.yul\":2539:2614   */\n  swap1\n  pop\n    /* \"#utility.yul\":2637:2643   */\n  dup3\n    /* \"#utility.yul\":2630:2635   */\n  dup2\n    /* \"#utility.yul\":2623:2644   */\n  mstore\n    /* \"#utility.yul\":2675:2679   */\n  0x20\n    /* \"#utility.yul\":2668:2673   */\n  dup2\n    /* \"#utility.yul\":2664:2680   */\n  add\n    /* \"#utility.yul\":2713:2716   */\n  dup5\n    /* \"#utility.yul\":2704:2710   */\n  dup5\n    /* \"#utility.yul\":2699:2702   */\n  dup5\n    /* \"#utility.yul\":2695:2711   */\n  add\n    /* \"#utility.yul\":2692:2717   */\n  gt\n    /* \"#utility.yul\":2689:2801   */\n  iszero\n  tag_77\n  jumpi\n    /* \"#utility.yul\":2720:2799   */\n  tag_78\n  tag_32\n  jump\t// in\ntag_78:\n    /* \"#utility.yul\":2689:2801   */\ntag_77:\n    /* \"#utility.yul\":2810:2849   */\n  tag_79\n    /* \"#utility.yul\":2842:2848   */\n  dup5\n    /* \"#utility.yul\":2837:2840   */\n  dup3\n    /* \"#utility.yul\":2832:2835   */\n  dup6\n    /* \"#utility.yul\":2810:2849   */\n  tag_38\n  jump\t// in\ntag_79:\n    /* \"#utility.yul\":2529:2855   */\n  pop\n    /* \"#utility.yul\":2434:2855   */\n  swap4\n  swap3\n  pop\n  pop\n  pop\n  jump\t// out\n    /* \"#utility.yul\":2875:3230   */\ntag_40:\n    /* \"#utility.yul\":2942:2947   */\n  0x00\n    /* \"#utility.yul\":2991:2994   */\n  dup3\n    /* \"#utility.yul\":2984:2988   */\n  0x1f\n    /* \"#utility.yul\":2976:2982   */\n  dup4\n    /* \"#utility.yul\":2972:2989   */\n  add\n    /* \"#utility.yul\":2968:2995   */\n  slt\n    /* \"#utility.yul\":2958:3080   */\n  tag_81\n  jumpi\n    /* \"#utility.yul\":2999:3078   */\n  tag_82\n  tag_31\n  jump\t// in\ntag_82:\n    /* \"#utility.yul\":2958:3080   */\ntag_81:\n    /* \"#utility.yul\":3109:3115   */\n  dup2\n    /* \"#utility.yul\":3103:3116   */\n  mload\n    /* \"#utility.yul\":3134:3224   */\n  tag_83\n    /* \"#utility.yul\":3220:3223   */\n  dup5\n    /* \"#utility.yul\":3212:3218   */\n  dup3\n    /* \"#utility.yul\":3205:3209   */\n  0x20\n    /* \"#utility.yul\":3197:3203   */\n  dup7\n    /* \"#utility.yul\":3193:3210   */\n  add\n    /* \"#utility.yul\":3134:3224   */\n  tag_39\n  jump\t// in\ntag_83:\n    /* \"#utility.yul\":3125:3224   */\n  swap2\n  pop\n    /* \"#utility.yul\":2948:3230   */\n  pop\n    /* \"#utility.yul\":2875:3230   */\n  swap3\n  swap2\n  pop\n  pop\n  jump\t// out\n    /* \"#utility.yul\":3236:4905   */\ntag_3:\n    /* \"#utility.yul\":3382:3388   */\n  0x00\n    /* \"#utility.yul\":3390:3396   */\n  dup1\n    /* \"#utility.yul\":3398:3404   */\n  0x00\n    /* \"#utility.yul\":3406:3412   */\n  dup1\n    /* \"#utility.yul\":3414:3420   */\n  0x00\n    /* \"#utility.yul\":3463:3466   */\n  0xa0\n    /* \"#utility.yul\":3451:3460   */\n  dup7\n    /* \"#utility.yul\":3442:3449   */\n  dup9\n    /* \"#utility.yul\":3438:3461   */\n  sub\n    /* \"#utility.yul\":3434:3467   */\n  slt\n    /* \"#utility.yul\":3431:3551   */\n  iszero\n  tag_85\n  jumpi\n    /* \"#utility.yul\":3470:3549   */\n  tag_86\n  tag_25\n  jump\t// in\ntag_86:\n    /* \"#utility.yul\":3431:3551   */\ntag_85:\n    /* \"#utility.yul\":3590:3591   */\n  0x00\n    /* \"#utility.yul\":3615:3679   */\n  tag_87\n    /* \"#utility.yul\":3671:3678   */\n  dup9\n    /* \"#utility.yul\":3662:3668   */\n  dup3\n    /* \"#utility.yul\":3651:3660   */\n  dup10\n    /* \"#utility.yul\":3647:3669   */\n  add\n    /* \"#utility.yul\":3615:3679   */\n  tag_30\n  jump\t// in\ntag_87:\n    /* \"#utility.yul\":3605:3679   */\n  swap6\n  pop\n    /* \"#utility.yul\":3561:3689   */\n  pop\n    /* \"#utility.yul\":3749:3751   */\n  0x20\n    /* \"#utility.yul\":3738:3747   */\n  dup7\n    /* \"#utility.yul\":3734:3752   */\n  add\n    /* \"#utility.yul\":3728:3753   */\n  mload\n    /* \"#utility.yul\":3780:3798   */\n  0xffffffffffffffff\n    /* \"#utility.yul\":3772:3778   */\n  dup2\n    /* \"#utility.yul\":3769:3799   */\n  gt\n    /* \"#utility.yul\":3766:3883   */\n  iszero\n  tag_88\n  jumpi\n    /* \"#utility.yul\":3802:3881   */\n  tag_89\n  tag_26\n  jump\t// in\ntag_89:\n    /* \"#utility.yul\":3766:3883   */\ntag_88:\n    /* \"#utility.yul\":3907:3981   */\n  tag_90\n    /* \"#utility.yul\":3973:3980   */\n  dup9\n    /* \"#utility.yul\":3964:3970   */\n  dup3\n    /* \"#utility.yul\":3953:3962   */\n  dup10\n    /* \"#utility.yul\":3949:3971   */\n  add\n    /* \"#utility.yul\":3907:3981   */\n  tag_40\n  jump\t// in\ntag_90:\n    /* \"#utility.yul\":3897:3981   */\n  swap5\n  pop\n    /* \"#utility.yul\":3699:3991   */\n  pop\n    /* \"#utility.yul\":4051:4053   */\n  0x40\n    /* \"#utility.yul\":4040:4049   */\n  dup7\n    /* \"#utility.yul\":4036:4054   */\n  add\n    /* \"#utility.yul\":4030:4055   */\n  mload\n    /* \"#utility.yul\":4082:4100   */\n  0xffffffffffffffff\n    /* \"#utility.yul\":4074:4080   */\n  dup2\n    /* \"#utility.yul\":4071:4101   */\n  gt\n    /* \"#utility.yul\":4068:4185   */\n  iszero\n  tag_91\n  jumpi\n    /* \"#utility.yul\":4104:4183   */\n  tag_92\n  tag_26\n  jump\t// in\ntag_92:\n    /* \"#utility.yul\":4068:4185   */\ntag_91:\n    /* \"#utility.yul\":4209:4283   */\n  tag_93\n    /* \"#utility.yul\":4275:4282   */\n  dup9\n    /* \"#utility.yul\":4266:4272   */\n  dup3\n    /* \"#utility.yul\":4255:4264   */\n  dup10\n    /* \"#utility.yul\":4251:4273   */\n  add\n    /* \"#utility.yul\":4209:4283   */\n  tag_40\n  jump\t// in\ntag_93:\n    /* \"#utility.yul\":4199:4283   */\n  swap4\n  pop\n    /* \"#utility.yul\":4001:4293   */\n  pop\n    /* \"#utility.yul\":4353:4355   */\n  0x60\n    /* \"#utility.yul\":4342:4351   */\n  dup7\n    /* \"#utility.yul\":4338:4356   */\n  add\n    /* \"#utility.yul\":4332:4357   */\n  mload\n    /* \"#utility.yul\":4384:4402   */\n  0xffffffffffffffff\n    /* \"#utility.yul\":4376:4382   */\n  dup2\n    /* \"#utility.yul\":4373:4403   */\n  gt\n    /* \"#utility.yul\":4370:4487   */\n  iszero\n  tag_94\n  jumpi\n    /* \"#utility.yul\":4406:4485   */\n  tag_95\n  tag_26\n  jump\t// in\ntag_95:\n    /* \"#utility.yul\":4370:4487   */\ntag_94:\n    /* \"#utility.yul\":4511:4585   */\n  tag_96\n    /* \"#utility.yul\":4577:4584   */\n  dup9\n    /* \"#utility.yul\":4568:4574   */\n  dup3\n    /* \"#utility.yul\":4557:4566   */\n  dup10\n    /* \"#utility.yul\":4553:4575   */\n  add\n    /* \"#utility.yul\":4511:4585   */\n  tag_40\n  jump\t// in\ntag_96:\n    /* \"#utility.yul\":4501:4585   */\n  swap3\n  pop\n    /* \"#utility.yul\":4303:4595   */\n  pop\n    /* \"#utility.yul\":4655:4658   */\n  0x80\n    /* \"#utility.yul\":4644:4653   */\n  dup7\n    /* \"#utility.yul\":4640:4659   */\n  add\n    /* \"#utility.yul\":4634:4660   */\n  mload\n    /* \"#utility.yul\":4687:4705   */\n  0xffffffffffffffff\n    /* \"#utility.yul\":4679:4685   */\n  dup2\n    /* \"#utility.yul\":4676:4706   */\n  gt\n    /* \"#utility.yul\":4673:4790   */\n  iszero\n  tag_97\n  jumpi\n    /* \"#utility.yul\":4709:4788   */\n  tag_98\n  tag_26\n  jump\t// in\ntag_98:\n    /* \"#utility.yul\":4673:4790   */\ntag_97:\n    /* \"#utility.yul\":4814:4888   */\n  tag_99\n    /* \"#utility.yul\":4880:4887   */\n  dup9\n    /* \"#utility.yul\":4871:4877   */\n  dup3\n    /* \"#utility.yul\":4860:4869   */\n  dup10\n    /* \"#utility.yul\":4856:4878   */\n  add\n    /* \"#utility.yul\":4814:4888   */\n  tag_40\n  jump\t// in\ntag_99:\n    /* \"#utility.yul\":4804:4888   */\n  swap2\n  pop\n    /* \"#utility.yul\":4605:4898   */\n  pop\n    /* \"#utility.yul\":3236:4905   */\n  swap3\n  swap6\n  pop\n  swap3\n  swap6\n  swap1\n  swap4\n  pop\n  jump\t// out\n    /* \"#utility.yul\":4911:5091   */\ntag_41:\n    /* \"#utility.yul\":4959:5036   */\n  0x4e487b7100000000000000000000000000000000000000000000000000000000\n    /* \"#utility.yul\":4956:4957   */\n  0x00\n    /* \"#utility.yul\":4949:5037   */\n  mstore\n    /* \"#utility.yul\":5056:5060   */\n  0x22\n    /* \"#utility.yul\":5053:5054   */\n  0x04\n    /* \"#utility.yul\":5046:5061   */\n  mstore\n    /* \"#utility.yul\":5080:5084   */\n  0x24\n    /* \"#utility.yul\":5077:5078   */\n  0x00\n    /* \"#utility.yul\":5070:5085   */\n  revert\n    /* \"#utility.yul\":5097:5417   */\ntag_14:\n    /* \"#utility.yul\":5141:5147   */\n  0x00\n    /* \"#utility.yul\":5178:5179   */\n  0x02\n    /* \"#utility.yul\":5172:5176   */\n  dup3\n    /* \"#utility.yul\":5168:5180   */\n  div\n    /* \"#utility.yul\":5158:5180   */\n  swap1\n  pop\n    /* \"#utility.yul\":5225:5226   */\n  0x01\n    /* \"#utility.yul\":5219:5223   */\n  dup3\n    /* \"#utility.yul\":5215:5227   */\n  and\n    /* \"#utility.yul\":5246:5264   */\n  dup1\n    /* \"#utility.yul\":5236:5317   */\n  tag_102\n  jumpi\n    /* \"#utility.yul\":5302:5306   */\n  0x7f\n    /* \"#utility.yul\":5294:5300   */\n  dup3\n    /* \"#utility.yul\":5290:5307   */\n  and\n    /* \"#utility.yul\":5280:5307   */\n  swap2\n  pop\n    /* \"#utility.yul\":5236:5317   */\ntag_102:\n    /* \"#utility.yul\":5364:5366   */\n  0x20\n    /* \"#utility.yul\":5356:5362   */\n  dup3\n    /* \"#utility.yul\":5353:5367   */\n  lt\n    /* \"#utility.yul\":5333:5351   */\n  dup2\n    /* \"#utility.yul\":5330:5368   */\n  eq\n    /* \"#utility.yul\":5327:5411   */\n  iszero\n  tag_103\n  jumpi\n    /* \"#utility.yul\":5383:5401   */\n  tag_104\n  tag_41\n  jump\t// in\ntag_104:\n    /* \"#utility.yul\":5327:5411   */\ntag_103:\n    /* \"#utility.yul\":5148:5417   */\n  pop\n    /* \"#utility.yul\":5097:5417   */\n  swap2\n  swap1\n  pop\n  jump\t// out\n    /* \"Story.sol\":1079:7835  contract Story {... */\ntag_12:\n  dataSize(sub_0)\n  dup1\n  dataOffset(sub_0)\n  0x00\n  codecopy\n  0x00\n  return\nstop\n\nsub_0: assembly {\n        /* \"Story.sol\":1079:7835  contract Story {... */\n      mstore(0x40, 0x80)\n      jumpi(tag_1, lt(calldatasize, 0x04))\n      shr(0xe0, calldataload(0x00))\n      dup1\n      0x7f51aaf9\n      gt\n      tag_17\n      jumpi\n      dup1\n      0x9d3ed807\n      gt\n      tag_18\n      jumpi\n      dup1\n      0x9d3ed807\n      eq\n      tag_13\n      jumpi\n      dup1\n      0xb5202522\n      eq\n      tag_14\n      jumpi\n      dup1\n      0xd7bb99ba\n      eq\n      tag_15\n      jumpi\n      dup1\n      0xdfa14e23\n      eq\n      tag_16\n      jumpi\n      jump(tag_1)\n    tag_18:\n      dup1\n      0x7f51aaf9\n      eq\n      tag_9\n      jumpi\n      dup1\n      0x98b79628\n      eq\n      tag_10\n      jumpi\n      dup1\n      0x992b11dc\n      eq\n      tag_11\n      jumpi\n      dup1\n      0x9c636a0f\n      eq\n      tag_12\n      jumpi\n      jump(tag_1)\n    tag_17:\n      dup1\n      0x4051ddac\n      gt\n      tag_19\n      jumpi\n      dup1\n      0x4051ddac\n      eq\n      tag_5\n      jumpi\n      dup1\n      0x5cf298fb\n      eq\n      tag_6\n      jumpi\n      dup1\n      0x5d1a870a\n      eq\n      tag_7\n      jumpi\n      dup1\n      0x6fc6c579\n      eq\n      tag_8\n      jumpi\n      jump(tag_1)\n    tag_19:\n      dup1\n      0x2606a10b\n      eq\n      tag_2\n      jumpi\n      dup1\n      0x3b6246c2\n      eq\n      tag_3\n      jumpi\n      dup1\n      0x3e5690f4\n      eq\n      tag_4\n      jumpi\n    tag_1:\n      0x00\n      dup1\n      revert\n        /* \"Story.sol\":5665:6019  function report() public noReentrancy{... */\n    tag_2:\n      callvalue\n      dup1\n      iszero\n      tag_20\n      jumpi\n      0x00\n      dup1\n      revert\n    tag_20:\n      pop\n      tag_21\n      tag_22\n      jump\t// in\n    tag_21:\n      stop\n        /* \"Story.sol\":5170:5655  function dispenseRewards() public noReentrancy{... */\n    tag_3:\n      callvalue\n      dup1\n      iszero\n      tag_23\n      jumpi\n      0x00\n      dup1\n      revert\n    tag_23:\n      pop\n      tag_24\n      tag_25\n      jump\t// in\n    tag_24:\n      stop\n        /* \"Story.sol\":1245:1295  mapping(address => bool) public authorsForSolidity */\n    tag_4:\n      callvalue\n      dup1\n      iszero\n      tag_26\n      jumpi\n      0x00\n      dup1\n      revert\n    tag_26:\n      pop\n      tag_27\n      0x04\n      dup1\n      calldatasize\n      sub\n      dup2\n      add\n      swap1\n      tag_28\n      swap2\n      swap1\n      tag_29\n      jump\t// in\n    tag_28:\n      tag_30\n      jump\t// in\n    tag_27:\n      mload(0x40)\n      tag_31\n      swap2\n      swap1\n      tag_32\n      jump\t// in\n    tag_31:\n      mload(0x40)\n      dup1\n      swap2\n      sub\n      swap1\n      return\n        /* \"Story.sol\":6151:6670  function getSummary() public view returns (... */\n    tag_5:\n      callvalue\n      dup1\n      iszero\n      tag_33\n      jumpi\n      0x00\n      dup1\n      revert\n    tag_33:\n      pop\n      tag_34\n      tag_35\n      jump\t// in\n    tag_34:\n      mload(0x40)\n      tag_36\n      swap12\n      swap11\n      swap10\n      swap9\n      swap8\n      swap7\n      swap6\n      swap5\n      swap4\n      swap3\n      swap2\n      swap1\n      tag_37\n      jump\t// in\n    tag_36:\n      mload(0x40)\n      dup1\n      swap2\n      sub\n      swap1\n      return\n        /* \"Story.sol\":6678:6780  function isAuthor() public view returns (bool){... */\n    tag_6:\n      callvalue\n      dup1\n      iszero\n      tag_38\n      jumpi\n      0x00\n      dup1\n      revert\n    tag_38:\n      pop\n      tag_39\n      tag_40\n      jump\t// in\n    tag_39:\n      mload(0x40)\n      tag_41\n      swap2\n      swap1\n      tag_32\n      jump\t// in\n    tag_41:\n      mload(0x40)\n      dup1\n      swap2\n      sub\n      swap1\n      return\n        /* \"Story.sol\":1533:1553  bool public reported */\n    tag_7:\n      callvalue\n      dup1\n      iszero\n      tag_42\n      jumpi\n      0x00\n      dup1\n      revert\n    tag_42:\n      pop\n      tag_43\n      tag_44\n      jump\t// in\n    tag_43:\n      mload(0x40)\n      tag_45\n      swap2\n      swap1\n      tag_32\n      jump\t// in\n    tag_45:\n      mload(0x40)\n      dup1\n      swap2\n      sub\n      swap1\n      return\n        /* \"Story.sol\":1775:1812  RequestToJoin[] public requestsToJoin */\n    tag_8:\n      callvalue\n      dup1\n      iszero\n      tag_46\n      jumpi\n      0x00\n      dup1\n      revert\n    tag_46:\n      pop\n      tag_47\n      0x04\n      dup1\n      calldatasize\n      sub\n      dup2\n      add\n      swap1\n      tag_48\n      swap2\n      swap1\n      tag_49\n      jump\t// in\n    tag_48:\n      tag_50\n      jump\t// in\n    tag_47:\n      mload(0x40)\n      tag_51\n      swap6\n      swap5\n      swap4\n      swap3\n      swap2\n      swap1\n      tag_52\n      jump\t// in\n    tag_51:\n      mload(0x40)\n      dup1\n      swap2\n      sub\n      swap1\n      return\n        /* \"Story.sol\":1341:1392  mapping(address => bool) public chaptersForSolidity */\n    tag_9:\n      callvalue\n      dup1\n      iszero\n      tag_53\n      jumpi\n      0x00\n      dup1\n      revert\n    tag_53:\n      pop\n      tag_54\n      0x04\n      dup1\n      calldatasize\n      sub\n      dup2\n      add\n      swap1\n      tag_55\n      swap2\n      swap1\n      tag_29\n      jump\t// in\n    tag_55:\n      tag_56\n      jump\t// in\n    tag_54:\n      mload(0x40)\n      tag_57\n      swap2\n      swap1\n      tag_32\n      jump\t// in\n    tag_57:\n      mload(0x40)\n      dup1\n      swap2\n      sub\n      swap1\n      return\n        /* \"Story.sol\":2761:3699  function approveRequestToJoin(uint256 _index) public noReentrancy{... */\n    tag_10:\n      callvalue\n      dup1\n      iszero\n      tag_58\n      jumpi\n      0x00\n      dup1\n      revert\n    tag_58:\n      pop\n      tag_59\n      0x04\n      dup1\n      calldatasize\n      sub\n      dup2\n      add\n      swap1\n      tag_60\n      swap2\n      swap1\n      tag_49\n      jump\t// in\n    tag_60:\n      tag_61\n      jump\t// in\n    tag_59:\n      stop\n        /* \"Story.sol\":3707:4971  function createChapter(string memory _title,  string memory _ipfsHash, address _parentChapter, address _childChapter) public noReentrancy{... */\n    tag_11:\n      callvalue\n      dup1\n      iszero\n      tag_62\n      jumpi\n      0x00\n      dup1\n      revert\n    tag_62:\n      pop\n      tag_63\n      0x04\n      dup1\n      calldatasize\n      sub\n      dup2\n      add\n      swap1\n      tag_64\n      swap2\n      swap1\n      tag_65\n      jump\t// in\n    tag_64:\n      tag_66\n      jump\t// in\n    tag_63:\n      stop\n        /* \"Story.sol\":6033:6137  function getChapters() public view returns (address[] memory) {... */\n    tag_12:\n      callvalue\n      dup1\n      iszero\n      tag_67\n      jumpi\n      0x00\n      dup1\n      revert\n    tag_67:\n      pop\n      tag_68\n      tag_69\n      jump\t// in\n    tag_68:\n      mload(0x40)\n      tag_70\n      swap2\n      swap1\n      tag_71\n      jump\t// in\n    tag_70:\n      mload(0x40)\n      dup1\n      swap2\n      sub\n      swap1\n      return\n        /* \"Story.sol\":1302:1334  address[] public authorsForReact */\n    tag_13:\n      callvalue\n      dup1\n      iszero\n      tag_72\n      jumpi\n      0x00\n      dup1\n      revert\n    tag_72:\n      pop\n      tag_73\n      0x04\n      dup1\n      calldatasize\n      sub\n      dup2\n      add\n      swap1\n      tag_74\n      swap2\n      swap1\n      tag_49\n      jump\t// in\n    tag_74:\n      tag_75\n      jump\t// in\n    tag_73:\n      mload(0x40)\n      tag_76\n      swap2\n      swap1\n      tag_77\n      jump\t// in\n    tag_76:\n      mload(0x40)\n      dup1\n      swap2\n      sub\n      swap1\n      return\n        /* \"Story.sol\":1399:1432  address[] public chaptersForReact */\n    tag_14:\n      callvalue\n      dup1\n      iszero\n      tag_78\n      jumpi\n      0x00\n      dup1\n      revert\n    tag_78:\n      pop\n      tag_79\n      0x04\n      dup1\n      calldatasize\n      sub\n      dup2\n      add\n      swap1\n      tag_80\n      swap2\n      swap1\n      tag_49\n      jump\t// in\n    tag_80:\n      tag_81\n      jump\t// in\n    tag_79:\n      mload(0x40)\n      tag_82\n      swap2\n      swap1\n      tag_77\n      jump\t// in\n    tag_82:\n      mload(0x40)\n      dup1\n      swap2\n      sub\n      swap1\n      return\n        /* \"Story.sol\":4979:5162  function contribute() public payable noReentrancy{... */\n    tag_15:\n      tag_83\n      tag_84\n      jump\t// in\n    tag_83:\n      stop\n        /* \"Story.sol\":2237:2753  function createRequestToJoin(string memory _proposal) public noReentrancy{... */\n    tag_16:\n      callvalue\n      dup1\n      iszero\n      tag_85\n      jumpi\n      0x00\n      dup1\n      revert\n    tag_85:\n      pop\n      tag_86\n      0x04\n      dup1\n      calldatasize\n      sub\n      dup2\n      add\n      swap1\n      tag_87\n      swap2\n      swap1\n      tag_88\n      jump\t// in\n    tag_87:\n      tag_89\n      jump\t// in\n    tag_86:\n      stop\n        /* \"Story.sol\":5665:6019  function report() public noReentrancy{... */\n    tag_22:\n        /* \"Story.sol\":7735:7742  _locked */\n      0x09\n      0x00\n      swap1\n      sload\n      swap1\n      0x0100\n      exp\n      swap1\n      div\n      0xff\n      and\n        /* \"Story.sol\":7734:7742  !_locked */\n      iszero\n        /* \"Story.sol\":7726:7761  require(!_locked, \"Reentrant call\") */\n      tag_91\n      jumpi\n      mload(0x40)\n      0x08c379a000000000000000000000000000000000000000000000000000000000\n      dup2\n      mstore\n      0x04\n      add\n      tag_92\n      swap1\n      tag_93\n      jump\t// in\n    tag_92:\n      mload(0x40)\n      dup1\n      swap2\n      sub\n      swap1\n      revert\n    tag_91:\n        /* \"Story.sol\":7782:7786  true */\n      0x01\n        /* \"Story.sol\":7772:7779  _locked */\n      0x09\n      0x00\n        /* \"Story.sol\":7772:7786  _locked = true */\n      0x0100\n      exp\n      dup2\n      sload\n      dup2\n      0xff\n      mul\n      not\n      and\n      swap1\n      dup4\n      iszero\n      iszero\n      mul\n      or\n      swap1\n      sstore\n      pop\n        /* \"Story.sol\":5722:5730  reported */\n      0x0c\n      0x00\n      swap1\n      sload\n      swap1\n      0x0100\n      exp\n      swap1\n      div\n      0xff\n      and\n        /* \"Story.sol\":5721:5730  !reported */\n      iszero\n        /* \"Story.sol\":5713:5763  require(!reported, \"This story has been reported\") */\n      tag_95\n      jumpi\n      mload(0x40)\n      0x08c379a000000000000000000000000000000000000000000000000000000000\n      dup2\n      mstore\n      0x04\n      add\n      tag_96\n      swap1\n      tag_97\n      jump\t// in\n    tag_96:\n      mload(0x40)\n      dup1\n      swap2\n      sub\n      swap1\n      revert\n    tag_95:\n        /* \"Story.sol\":5783:5792  reporters */\n      0x0a\n        /* \"Story.sol\":5783:5804  reporters[msg.sender] */\n      0x00\n        /* \"Story.sol\":5793:5803  msg.sender */\n      caller\n        /* \"Story.sol\":5783:5804  reporters[msg.sender] */\n      0xffffffffffffffffffffffffffffffffffffffff\n      and\n      0xffffffffffffffffffffffffffffffffffffffff\n      and\n      dup2\n      mstore\n      0x20\n      add\n      swap1\n      dup2\n      mstore\n      0x20\n      add\n      0x00\n      keccak256\n      0x00\n      swap1\n      sload\n      swap1\n      0x0100\n      exp\n      swap1\n      div\n      0xff\n      and\n        /* \"Story.sol\":5782:5804  !reporters[msg.sender] */\n      iszero\n        /* \"Story.sol\":5774:5843  require(!reporters[msg.sender],\"You have reported this story before\") */\n      tag_98\n      jumpi\n      mload(0x40)\n      0x08c379a000000000000000000000000000000000000000000000000000000000\n      dup2\n      mstore\n      0x04\n      add\n      tag_99\n      swap1\n      tag_100\n      jump\t// in\n    tag_99:\n      mload(0x40)\n      dup1\n      swap2\n      sub\n      swap1\n      revert\n    tag_98:\n        /* \"Story.sol\":5854:5875  reportersCount.add(1) */\n      tag_101\n        /* \"Story.sol\":5873:5874  1 */\n      0x01\n        /* \"Story.sol\":5854:5868  reportersCount */\n      sload(0x0b)\n        /* \"Story.sol\":5854:5872  reportersCount.add */\n      tag_102\n      swap1\n        /* \"Story.sol\":5854:5875  reportersCount.add(1) */\n      swap2\n      swap1\n      0xffffffff\n      and\n      jump\t// in\n    tag_101:\n      pop\n        /* \"Story.sol\":5910:5914  true */\n      0x01\n        /* \"Story.sol\":5886:5895  reporters */\n      0x0a\n        /* \"Story.sol\":5886:5907  reporters[msg.sender] */\n      0x00\n        /* \"Story.sol\":5896:5906  msg.sender */\n      caller\n        /* \"Story.sol\":5886:5907  reporters[msg.sender] */\n      0xffffffffffffffffffffffffffffffffffffffff\n      and\n      0xffffffffffffffffffffffffffffffffffffffff\n      and\n      dup2\n      mstore\n      0x20\n      add\n      swap1\n      dup2\n      mstore\n      0x20\n      add\n      0x00\n      keccak256\n      0x00\n        /* \"Story.sol\":5886:5914  reporters[msg.sender] = true */\n      0x0100\n      exp\n      dup2\n      sload\n      dup2\n      0xff\n      mul\n      not\n      and\n      swap1\n      dup4\n      iszero\n      iszero\n      mul\n      or\n      swap1\n      sstore\n      pop\n        /* \"Story.sol\":5947:5950  100 */\n      0x64\n        /* \"Story.sol\":5930:5944  reportersCount */\n      sload(0x0b)\n        /* \"Story.sol\":5930:5950  reportersCount > 100 */\n      gt\n        /* \"Story.sol\":5927:6012  if(reportersCount > 100){ //arbitrary number... */\n      iszero\n      tag_103\n      jumpi\n        /* \"Story.sol\":5996:6000  true */\n      0x01\n        /* \"Story.sol\":5985:5993  reported */\n      0x0c\n      0x00\n        /* \"Story.sol\":5985:6000  reported = true */\n      0x0100\n      exp\n      dup2\n      sload\n      dup2\n      0xff\n      mul\n      not\n      and\n      swap1\n      dup4\n      iszero\n      iszero\n      mul\n      or\n      swap1\n      sstore\n      pop\n        /* \"Story.sol\":5927:6012  if(reportersCount > 100){ //arbitrary number... */\n    tag_103:\n        /* \"Story.sol\":7819:7824  false */\n      0x00\n        /* \"Story.sol\":7809:7816  _locked */\n      0x09\n      0x00\n        /* \"Story.sol\":7809:7824  _locked = false */\n      0x0100\n      exp\n      dup2\n      sload\n      dup2\n      0xff\n      mul\n      not\n      and\n      swap1\n      dup4\n      iszero\n      iszero\n      mul\n      or\n      swap1\n      sstore\n      pop\n        /* \"Story.sol\":5665:6019  function report() public noReentrancy{... */\n      jump\t// out\n        /* \"Story.sol\":5170:5655  function dispenseRewards() public noReentrancy{... */\n    tag_25:\n        /* \"Story.sol\":7735:7742  _locked */\n      0x09\n      0x00\n      swap1\n      sload\n      swap1\n      0x0100\n      exp\n      swap1\n      div\n      0xff\n      and\n        /* \"Story.sol\":7734:7742  !_locked */\n      iszero\n        /* \"Story.sol\":7726:7761  require(!_locked, \"Reentrant call\") */\n      tag_105\n      jumpi\n      mload(0x40)\n      0x08c379a000000000000000000000000000000000000000000000000000000000\n      dup2\n      mstore\n      0x04\n      add\n      tag_106\n      swap1\n      tag_93\n      jump\t// in\n    tag_106:\n      mload(0x40)\n      dup1\n      swap2\n      sub\n      swap1\n      revert\n    tag_105:\n        /* \"Story.sol\":7782:7786  true */\n      0x01\n        /* \"Story.sol\":7772:7779  _locked */\n      0x09\n      0x00\n        /* \"Story.sol\":7772:7786  _locked = true */\n      0x0100\n      exp\n      dup2\n      sload\n      dup2\n      0xff\n      mul\n      not\n      and\n      swap1\n      dup4\n      iszero\n      iszero\n      mul\n      or\n      swap1\n      sstore\n      pop\n        /* \"Story.sol\":5235:5253  authorsForSolidity */\n      0x05\n        /* \"Story.sol\":5235:5265  authorsForSolidity[msg.sender] */\n      0x00\n        /* \"Story.sol\":5254:5264  msg.sender */\n      caller\n        /* \"Story.sol\":5235:5265  authorsForSolidity[msg.sender] */\n      0xffffffffffffffffffffffffffffffffffffffff\n      and\n      0xffffffffffffffffffffffffffffffffffffffff\n      and\n      dup2\n      mstore\n      0x20\n      add\n      swap1\n      dup2\n      mstore\n      0x20\n      add\n      0x00\n      keccak256\n      0x00\n      swap1\n      sload\n      swap1\n      0x0100\n      exp\n      swap1\n      div\n      0xff\n      and\n        /* \"Story.sol\":5227:5316  require(authorsForSolidity[msg.sender], \"Only an authorized author can dispense rewards\") */\n      tag_108\n      jumpi\n      mload(0x40)\n      0x08c379a000000000000000000000000000000000000000000000000000000000\n      dup2\n      mstore\n      0x04\n      add\n      tag_109\n      swap1\n      tag_110\n      jump\t// in\n    tag_109:\n      mload(0x40)\n      dup1\n      swap2\n      sub\n      swap1\n      revert\n    tag_108:\n        /* \"Story.sol\":5329:5349  uint256 totalAuthors */\n      0x00\n        /* \"Story.sol\":5352:5367  authorsForReact */\n      0x06\n        /* \"Story.sol\":5352:5374  authorsForReact.length */\n      dup1\n      sload\n      swap1\n      pop\n        /* \"Story.sol\":5329:5374  uint256 totalAuthors = authorsForReact.length */\n      swap1\n      pop\n        /* \"Story.sol\":5385:5408  uint256 rewardPerAuthor */\n      0x00\n        /* \"Story.sol\":5411:5450  address(this).balance.div(totalAuthors) */\n      tag_111\n        /* \"Story.sol\":5437:5449  totalAuthors */\n      dup3\n        /* \"Story.sol\":5411:5432  address(this).balance */\n      selfbalance\n        /* \"Story.sol\":5411:5436  address(this).balance.div */\n      tag_112\n      swap1\n        /* \"Story.sol\":5411:5450  address(this).balance.div(totalAuthors) */\n      swap2\n      swap1\n      0xffffffff\n      and\n      jump\t// in\n    tag_111:\n        /* \"Story.sol\":5385:5450  uint256 rewardPerAuthor = address(this).balance.div(totalAuthors) */\n      swap1\n      pop\n        /* \"Story.sol\":5487:5488  0 */\n      0x00\n        /* \"Story.sol\":5469:5484  rewardPerAuthor */\n      dup2\n        /* \"Story.sol\":5469:5488  rewardPerAuthor > 0 */\n      gt\n        /* \"Story.sol\":5461:5514  require(rewardPerAuthor > 0, \"No reward to dispense\") */\n      tag_113\n      jumpi\n      mload(0x40)\n      0x08c379a000000000000000000000000000000000000000000000000000000000\n      dup2\n      mstore\n      0x04\n      add\n      tag_114\n      swap1\n      tag_115\n      jump\t// in\n    tag_114:\n      mload(0x40)\n      dup1\n      swap2\n      sub\n      swap1\n      revert\n    tag_113:\n        /* \"Story.sol\":5530:5539  uint256 i */\n      0x00\n        /* \"Story.sol\":5525:5648  for (uint256 i = 0; i < totalAuthors; i++) {... */\n    tag_116:\n        /* \"Story.sol\":5549:5561  totalAuthors */\n      dup3\n        /* \"Story.sol\":5545:5546  i */\n      dup2\n        /* \"Story.sol\":5545:5561  i < totalAuthors */\n      lt\n        /* \"Story.sol\":5525:5648  for (uint256 i = 0; i < totalAuthors; i++) {... */\n      iszero\n      tag_117\n      jumpi\n        /* \"Story.sol\":5591:5606  authorsForReact */\n      0x06\n        /* \"Story.sol\":5607:5608  i */\n      dup2\n        /* \"Story.sol\":5591:5609  authorsForReact[i] */\n      dup2\n      sload\n      dup2\n      lt\n      tag_119\n      jumpi\n      tag_120\n      tag_121\n      jump\t// in\n    tag_120:\n    tag_119:\n      swap1\n      0x00\n      mstore\n      keccak256(0x00, 0x20)\n      add\n      0x00\n      swap1\n      sload\n      swap1\n      0x0100\n      exp\n      swap1\n      div\n      0xffffffffffffffffffffffffffffffffffffffff\n      and\n        /* \"Story.sol\":5583:5619  payable(authorsForReact[i]).transfer */\n      0xffffffffffffffffffffffffffffffffffffffff\n      and\n        /* \"Story.sol\":5583:5636  payable(authorsForReact[i]).transfer(rewardPerAuthor) */\n      0x08fc\n        /* \"Story.sol\":5620:5635  rewardPerAuthor */\n      dup4\n        /* \"Story.sol\":5583:5636  payable(authorsForReact[i]).transfer(rewardPerAuthor) */\n      swap1\n      dup2\n      iszero\n      mul\n      swap1\n      mload(0x40)\n      0x00\n      mload(0x40)\n      dup1\n      dup4\n      sub\n      dup2\n      dup6\n      dup9\n      dup9\n      call\n      swap4\n      pop\n      pop\n      pop\n      pop\n      iszero\n      dup1\n      iszero\n      tag_124\n      jumpi\n      returndatasize\n      0x00\n      dup1\n      returndatacopy\n      revert(0x00, returndatasize)\n    tag_124:\n      pop\n        /* \"Story.sol\":5563:5566  i++ */\n      dup1\n      dup1\n      tag_125\n      swap1\n      tag_126\n      jump\t// in\n    tag_125:\n      swap2\n      pop\n      pop\n        /* \"Story.sol\":5525:5648  for (uint256 i = 0; i < totalAuthors; i++) {... */\n      jump(tag_116)\n    tag_117:\n      pop\n        /* \"Story.sol\":5216:5655  {... */\n      pop\n      pop\n        /* \"Story.sol\":7819:7824  false */\n      0x00\n        /* \"Story.sol\":7809:7816  _locked */\n      0x09\n      0x00\n        /* \"Story.sol\":7809:7824  _locked = false */\n      0x0100\n      exp\n      dup2\n      sload\n      dup2\n      0xff\n      mul\n      not\n      and\n      swap1\n      dup4\n      iszero\n      iszero\n      mul\n      or\n      swap1\n      sstore\n      pop\n        /* \"Story.sol\":5170:5655  function dispenseRewards() public noReentrancy{... */\n      jump\t// out\n        /* \"Story.sol\":1245:1295  mapping(address => bool) public authorsForSolidity */\n    tag_30:\n      mstore(0x20, 0x05)\n      dup1\n      0x00\n      mstore\n      keccak256(0x00, 0x40)\n      0x00\n      swap2\n      pop\n      sload\n      swap1\n      0x0100\n      exp\n      swap1\n      div\n      0xff\n      and\n      dup2\n      jump\t// out\n        /* \"Story.sol\":6151:6670  function getSummary() public view returns (... */\n    tag_35:\n        /* \"Story.sol\":6204:6211  address */\n      0x00\n        /* \"Story.sol\":6213:6226  string memory */\n      0x60\n        /* \"Story.sol\":6228:6241  string memory */\n      dup1\n        /* \"Story.sol\":6243:6256  string memory */\n      0x60\n        /* \"Story.sol\":6258:6274  address[] memory */\n      dup1\n        /* \"Story.sol\":6276:6293  address [] memory */\n      0x60\n        /* \"Story.sol\":6295:6299  uint */\n      0x00\n        /* \"Story.sol\":6301:6305  uint */\n      dup1\n        /* \"Story.sol\":6307:6311  bool */\n      0x00\n        /* \"Story.sol\":6313:6317  uint */\n      dup1\n        /* \"Story.sol\":6319:6332  string memory */\n      0x60\n        /* \"Story.sol\":6368:6378  mainAuthor */\n      0x00\n      dup1\n      sload\n      swap1\n      0x0100\n      exp\n      swap1\n      div\n      0xffffffffffffffffffffffffffffffffffffffff\n      and\n        /* \"Story.sol\":6393:6398  title */\n      0x01\n        /* \"Story.sol\":6413:6418  genre */\n      0x02\n        /* \"Story.sol\":6433:6441  mainIdea */\n      0x03\n        /* \"Story.sol\":6456:6471  authorsForReact */\n      0x06\n        /* \"Story.sol\":6486:6502  chaptersForReact */\n      0x08\n        /* \"Story.sol\":6517:6531  requestsToJoin */\n      0x0d\n        /* \"Story.sol\":6517:6538  requestsToJoin.length */\n      dup1\n      sload\n      swap1\n      pop\n        /* \"Story.sol\":6553:6567  reportersCount */\n      sload(0x0b)\n        /* \"Story.sol\":6582:6590  reported */\n      0x0c\n      0x00\n      swap1\n      sload\n      swap1\n      0x0100\n      exp\n      swap1\n      div\n      0xff\n      and\n        /* \"Story.sol\":6605:6626  address(this).balance */\n      selfbalance\n        /* \"Story.sol\":6641:6651  coverPhoto */\n      0x04\n        /* \"Story.sol\":6345:6662  return ( ... */\n      dup10\n      dup1\n      sload\n      tag_128\n      swap1\n      tag_129\n      jump\t// in\n    tag_128:\n      dup1\n      0x1f\n      add\n      0x20\n      dup1\n      swap2\n      div\n      mul\n      0x20\n      add\n      mload(0x40)\n      swap1\n      dup2\n      add\n      0x40\n      mstore\n      dup1\n      swap3\n      swap2\n      swap1\n      dup2\n      dup2\n      mstore\n      0x20\n      add\n      dup3\n      dup1\n      sload\n      tag_130\n      swap1\n      tag_129\n      jump\t// in\n    tag_130:\n      dup1\n      iszero\n      tag_131\n      jumpi\n      dup1\n      0x1f\n      lt\n      tag_132\n      jumpi\n      0x0100\n      dup1\n      dup4\n      sload\n      div\n      mul\n      dup4\n      mstore\n      swap2\n      0x20\n      add\n      swap2\n      jump(tag_131)\n    tag_132:\n      dup3\n      add\n      swap2\n      swap1\n      0x00\n      mstore\n      keccak256(0x00, 0x20)\n      swap1\n    tag_133:\n      dup2\n      sload\n      dup2\n      mstore\n      swap1\n      0x01\n      add\n      swap1\n      0x20\n      add\n      dup1\n      dup4\n      gt\n      tag_133\n      jumpi\n      dup3\n      swap1\n      sub\n      0x1f\n      and\n      dup3\n      add\n      swap2\n    tag_131:\n      pop\n      pop\n      pop\n      pop\n      pop\n      swap10\n      pop\n      dup9\n      dup1\n      sload\n      tag_134\n      swap1\n      tag_129\n      jump\t// in\n    tag_134:\n      dup1\n      0x1f\n      add\n      0x20\n      dup1\n      swap2\n      div\n      mul\n      0x20\n      add\n      mload(0x40)\n      swap1\n      dup2\n      add\n      0x40\n      mstore\n      dup1\n      swap3\n      swap2\n      swap1\n      dup2\n      dup2\n      mstore\n      0x20\n      add\n      dup3\n      dup1\n      sload\n      tag_135\n      swap1\n      tag_129\n      jump\t// in\n    tag_135:\n      dup1\n      iszero\n      tag_136\n      jumpi\n      dup1\n      0x1f\n      lt\n      tag_137\n      jumpi\n      0x0100\n      dup1\n      dup4\n      sload\n      div\n      mul\n      dup4\n      mstore\n      swap2\n      0x20\n      add\n      swap2\n      jump(tag_136)\n    tag_137:\n      dup3\n      add\n      swap2\n      swap1\n      0x00\n      mstore\n      keccak256(0x00, 0x20)\n      swap1\n    tag_138:\n      dup2\n      sload\n      dup2\n      mstore\n      swap1\n      0x01\n      add\n      swap1\n      0x20\n      add\n      dup1\n      dup4\n      gt\n      tag_138\n      jumpi\n      dup3\n      swap1\n      sub\n      0x1f\n      and\n      dup3\n      add\n      swap2\n    tag_136:\n      pop\n      pop\n      pop\n      pop\n      pop\n      swap9\n      pop\n      dup8\n      dup1\n      sload\n      tag_139\n      swap1\n      tag_129\n      jump\t// in\n    tag_139:\n      dup1\n      0x1f\n      add\n      0x20\n      dup1\n      swap2\n      div\n      mul\n      0x20\n      add\n      mload(0x40)\n      swap1\n      dup2\n      add\n      0x40\n      mstore\n      dup1\n      swap3\n      swap2\n      swap1\n      dup2\n      dup2\n      mstore\n      0x20\n      add\n      dup3\n      dup1\n      sload\n      tag_140\n      swap1\n      tag_129\n      jump\t// in\n    tag_140:\n      dup1\n      iszero\n      tag_141\n      jumpi\n      dup1\n      0x1f\n      lt\n      tag_142\n      jumpi\n      0x0100\n      dup1\n      dup4\n      sload\n      div\n      mul\n      dup4\n      mstore\n      swap2\n      0x20\n      add\n      swap2\n      jump(tag_141)\n    tag_142:\n      dup3\n      add\n      swap2\n      swap1\n      0x00\n      mstore\n      keccak256(0x00, 0x20)\n      swap1\n    tag_143:\n      dup2\n      sload\n      dup2\n      mstore\n      swap1\n      0x01\n      add\n      swap1\n      0x20\n      add\n      dup1\n      dup4\n      gt\n      tag_143\n      jumpi\n      dup3\n      swap1\n      sub\n      0x1f\n      and\n      dup3\n      add\n      swap2\n    tag_141:\n      pop\n      pop\n      pop\n      pop\n      pop\n      swap8\n      pop\n      dup7\n      dup1\n      sload\n      dup1\n      0x20\n      mul\n      0x20\n      add\n      mload(0x40)\n      swap1\n      dup2\n      add\n      0x40\n      mstore\n      dup1\n      swap3\n      swap2\n      swap1\n      dup2\n      dup2\n      mstore\n      0x20\n      add\n      dup3\n      dup1\n      sload\n      dup1\n      iszero\n      tag_144\n      jumpi\n      0x20\n      mul\n      dup3\n      add\n      swap2\n      swap1\n      0x00\n      mstore\n      keccak256(0x00, 0x20)\n      swap1\n    tag_145:\n      dup2\n      0x00\n      swap1\n      sload\n      swap1\n      0x0100\n      exp\n      swap1\n      div\n      0xffffffffffffffffffffffffffffffffffffffff\n      and\n      0xffffffffffffffffffffffffffffffffffffffff\n      and\n      dup2\n      mstore\n      0x20\n      add\n      swap1\n      0x01\n      add\n      swap1\n      dup1\n      dup4\n      gt\n      tag_145\n      jumpi\n    tag_144:\n      pop\n      pop\n      pop\n      pop\n      pop\n      swap7\n      pop\n      dup6\n      dup1\n      sload\n      dup1\n      0x20\n      mul\n      0x20\n      add\n      mload(0x40)\n      swap1\n      dup2\n      add\n      0x40\n      mstore\n      dup1\n      swap3\n      swap2\n      swap1\n      dup2\n      dup2\n      mstore\n      0x20\n      add\n      dup3\n      dup1\n      sload\n      dup1\n      iszero\n      tag_146\n      jumpi\n      0x20\n      mul\n      dup3\n      add\n      swap2\n      swap1\n      0x00\n      mstore\n      keccak256(0x00, 0x20)\n      swap1\n    tag_147:\n      dup2\n      0x00\n      swap1\n      sload\n      swap1\n      0x0100\n      exp\n      swap1\n      div\n      0xffffffffffffffffffffffffffffffffffffffff\n      and\n      0xffffffffffffffffffffffffffffffffffffffff\n      and\n      dup2\n      mstore\n      0x20\n      add\n      swap1\n      0x01\n      add\n      swap1\n      dup1\n      dup4\n      gt\n      tag_147\n      jumpi\n    tag_146:\n      pop\n      pop\n      pop\n      pop\n      pop\n      swap6\n      pop\n      dup1\n      dup1\n      sload\n      tag_148\n      swap1\n      tag_129\n      jump\t// in\n    tag_148:\n      dup1\n      0x1f\n      add\n      0x20\n      dup1\n      swap2\n      div\n      mul\n      0x20\n      add\n      mload(0x40)\n      swap1\n      dup2\n      add\n      0x40\n      mstore\n      dup1\n      swap3\n      swap2\n      swap1\n      dup2\n      dup2\n      mstore\n      0x20\n      add\n      dup3\n      dup1\n      sload\n      tag_149\n      swap1\n      tag_129\n      jump\t// in\n    tag_149:\n      dup1\n      iszero\n      tag_150\n      jumpi\n      dup1\n      0x1f\n      lt\n      tag_151\n      jumpi\n      0x0100\n      dup1\n      dup4\n      sload\n      div\n      mul\n      dup4\n      mstore\n      swap2\n      0x20\n      add\n      swap2\n      jump(tag_150)\n    tag_151:\n      dup3\n      add\n      swap2\n      swap1\n      0x00\n      mstore\n      keccak256(0x00, 0x20)\n      swap1\n    tag_152:\n      dup2\n      sload\n      dup2\n      mstore\n      swap1\n      0x01\n      add\n      swap1\n      0x20\n      add\n      dup1\n      dup4\n      gt\n      tag_152\n      jumpi\n      dup3\n      swap1\n      sub\n      0x1f\n      and\n      dup3\n      add\n      swap2\n    tag_150:\n      pop\n      pop\n      pop\n      pop\n      pop\n      swap1\n      pop\n      swap11\n      pop\n      swap11\n      pop\n      swap11\n      pop\n      swap11\n      pop\n      swap11\n      pop\n      swap11\n      pop\n      swap11\n      pop\n      swap11\n      pop\n      swap11\n      pop\n      swap11\n      pop\n      swap11\n      pop\n        /* \"Story.sol\":6151:6670  function getSummary() public view returns (... */\n      swap1\n      swap2\n      swap3\n      swap4\n      swap5\n      swap6\n      swap7\n      swap8\n      swap9\n      swap10\n      swap11\n      jump\t// out\n        /* \"Story.sol\":6678:6780  function isAuthor() public view returns (bool){... */\n    tag_40:\n        /* \"Story.sol\":6719:6723  bool */\n      0x00\n        /* \"Story.sol\":6742:6760  authorsForSolidity */\n      0x05\n        /* \"Story.sol\":6742:6772  authorsForSolidity[msg.sender] */\n      0x00\n        /* \"Story.sol\":6761:6771  msg.sender */\n      caller\n        /* \"Story.sol\":6742:6772  authorsForSolidity[msg.sender] */\n      0xffffffffffffffffffffffffffffffffffffffff\n      and\n      0xffffffffffffffffffffffffffffffffffffffff\n      and\n      dup2\n      mstore\n      0x20\n      add\n      swap1\n      dup2\n      mstore\n      0x20\n      add\n      0x00\n      keccak256\n      0x00\n      swap1\n      sload\n      swap1\n      0x0100\n      exp\n      swap1\n      div\n      0xff\n      and\n        /* \"Story.sol\":6735:6772  return authorsForSolidity[msg.sender] */\n      swap1\n      pop\n        /* \"Story.sol\":6678:6780  function isAuthor() public view returns (bool){... */\n      swap1\n      jump\t// out\n        /* \"Story.sol\":1533:1553  bool public reported */\n    tag_44:\n      0x0c\n      0x00\n      swap1\n      sload\n      swap1\n      0x0100\n      exp\n      swap1\n      div\n      0xff\n      and\n      dup2\n      jump\t// out\n        /* \"Story.sol\":1775:1812  RequestToJoin[] public requestsToJoin */\n    tag_50:\n      0x0d\n      dup2\n      dup2\n      sload\n      dup2\n      lt\n      tag_154\n      jumpi\n      0x00\n      dup1\n      revert\n    tag_154:\n      swap1\n      0x00\n      mstore\n      keccak256(0x00, 0x20)\n      swap1\n      0x06\n      mul\n      add\n      0x00\n      swap2\n      pop\n      swap1\n      pop\n      dup1\n      0x00\n      add\n      dup1\n      sload\n      tag_156\n      swap1\n      tag_129\n      jump\t// in\n    tag_156:\n      dup1\n      0x1f\n      add\n      0x20\n      dup1\n      swap2\n      div\n      mul\n      0x20\n      add\n      mload(0x40)\n      swap1\n      dup2\n      add\n      0x40\n      mstore\n      dup1\n      swap3\n      swap2\n      swap1\n      dup2\n      dup2\n      mstore\n      0x20\n      add\n      dup3\n      dup1\n      sload\n      tag_157\n      swap1\n      tag_129\n      jump\t// in\n    tag_157:\n      dup1\n      iszero\n      tag_158\n      jumpi\n      dup1\n      0x1f\n      lt\n      tag_159\n      jumpi\n      0x0100\n      dup1\n      dup4\n      sload\n      div\n      mul\n      dup4\n      mstore\n      swap2\n      0x20\n      add\n      swap2\n      jump(tag_158)\n    tag_159:\n      dup3\n      add\n      swap2\n      swap1\n      0x00\n      mstore\n      keccak256(0x00, 0x20)\n      swap1\n    tag_160:\n      dup2\n      sload\n      dup2\n      mstore\n      swap1\n      0x01\n      add\n      swap1\n      0x20\n      add\n      dup1\n      dup4\n      gt\n      tag_160\n      jumpi\n      dup3\n      swap1\n      sub\n      0x1f\n      and\n      dup3\n      add\n      swap2\n    tag_158:\n      pop\n      pop\n      pop\n      pop\n      pop\n      swap1\n      dup1\n      0x01\n      add\n      sload\n      swap1\n      dup1\n      0x02\n      add\n      0x00\n      swap1\n      sload\n      swap1\n      0x0100\n      exp\n      swap1\n      div\n      0xffffffffffffffffffffffffffffffffffffffff\n      and\n      swap1\n      dup1\n      0x04\n      add\n      sload\n      swap1\n      dup1\n      0x05\n      add\n      0x00\n      swap1\n      sload\n      swap1\n      0x0100\n      exp\n      swap1\n      div\n      0xff\n      and\n      swap1\n      pop\n      dup6\n      jump\t// out\n        /* \"Story.sol\":1341:1392  mapping(address => bool) public chaptersForSolidity */\n    tag_56:\n      mstore(0x20, 0x07)\n      dup1\n      0x00\n      mstore\n      keccak256(0x00, 0x40)\n      0x00\n      swap2\n      pop\n      sload\n      swap1\n      0x0100\n      exp\n      swap1\n      div\n      0xff\n      and\n      dup2\n      jump\t// out\n        /* \"Story.sol\":2761:3699  function approveRequestToJoin(uint256 _index) public noReentrancy{... */\n    tag_61:\n        /* \"Story.sol\":7735:7742  _locked */\n      0x09\n      0x00\n      swap1\n      sload\n      swap1\n      0x0100\n      exp\n      swap1\n      div\n      0xff\n      and\n        /* \"Story.sol\":7734:7742  !_locked */\n      iszero\n        /* \"Story.sol\":7726:7761  require(!_locked, \"Reentrant call\") */\n      tag_162\n      jumpi\n      mload(0x40)\n      0x08c379a000000000000000000000000000000000000000000000000000000000\n      dup2\n      mstore\n      0x04\n      add\n      tag_163\n      swap1\n      tag_93\n      jump\t// in\n    tag_163:\n      mload(0x40)\n      dup1\n      swap2\n      sub\n      swap1\n      revert\n    tag_162:\n        /* \"Story.sol\":7782:7786  true */\n      0x01\n        /* \"Story.sol\":7772:7779  _locked */\n      0x09\n      0x00\n        /* \"Story.sol\":7772:7786  _locked = true */\n      0x0100\n      exp\n      dup2\n      sload\n      dup2\n      0xff\n      mul\n      not\n      and\n      swap1\n      dup4\n      iszero\n      iszero\n      mul\n      or\n      swap1\n      sstore\n      pop\n        /* \"Story.sol\":2846:2854  reported */\n      0x0c\n      0x00\n      swap1\n      sload\n      swap1\n      0x0100\n      exp\n      swap1\n      div\n      0xff\n      and\n        /* \"Story.sol\":2845:2854  !reported */\n      iszero\n        /* \"Story.sol\":2837:2887  require(!reported, \"This story has been reported\") */\n      tag_165\n      jumpi\n      mload(0x40)\n      0x08c379a000000000000000000000000000000000000000000000000000000000\n      dup2\n      mstore\n      0x04\n      add\n      tag_166\n      swap1\n      tag_97\n      jump\t// in\n    tag_166:\n      mload(0x40)\n      dup1\n      swap2\n      sub\n      swap1\n      revert\n    tag_165:\n        /* \"Story.sol\":2906:2924  authorsForSolidity */\n      0x05\n        /* \"Story.sol\":2906:2936  authorsForSolidity[msg.sender] */\n      0x00\n        /* \"Story.sol\":2925:2935  msg.sender */\n      caller\n        /* \"Story.sol\":2906:2936  authorsForSolidity[msg.sender] */\n      0xffffffffffffffffffffffffffffffffffffffff\n      and\n      0xffffffffffffffffffffffffffffffffffffffff\n      and\n      dup2\n      mstore\n      0x20\n      add\n      swap1\n      dup2\n      mstore\n      0x20\n      add\n      0x00\n      keccak256\n      0x00\n      swap1\n      sload\n      swap1\n      0x0100\n      exp\n      swap1\n      div\n      0xff\n      and\n        /* \"Story.sol\":2898:2986  require(authorsForSolidity[msg.sender], \"Only an accepted author can approve a request\") */\n      tag_167\n      jumpi\n      mload(0x40)\n      0x08c379a000000000000000000000000000000000000000000000000000000000\n      dup2\n      mstore\n      0x04\n      add\n      tag_168\n      swap1\n      tag_169\n      jump\t// in\n    tag_168:\n      mload(0x40)\n      dup1\n      swap2\n      sub\n      swap1\n      revert\n    tag_167:\n        /* \"Story.sol\":3014:3028  requestsToJoin */\n      0x0d\n        /* \"Story.sol\":3014:3035  requestsToJoin.length */\n      dup1\n      sload\n      swap1\n      pop\n        /* \"Story.sol\":3005:3011  _index */\n      dup2\n        /* \"Story.sol\":3005:3035  _index < requestsToJoin.length */\n      lt\n        /* \"Story.sol\":3005:3048  _index < requestsToJoin.length && _index>=0 */\n      dup1\n      iszero\n      tag_170\n      jumpi\n      pop\n        /* \"Story.sol\":3047:3048  0 */\n      0x00\n        /* \"Story.sol\":3039:3045  _index */\n      dup2\n        /* \"Story.sol\":3039:3048  _index>=0 */\n      lt\n      iszero\n        /* \"Story.sol\":3005:3048  _index < requestsToJoin.length && _index>=0 */\n    tag_170:\n        /* \"Story.sol\":2997:3072  require(_index < requestsToJoin.length && _index>=0, \"Index out of bounds\") */\n      tag_171\n      jumpi\n      mload(0x40)\n      0x08c379a000000000000000000000000000000000000000000000000000000000\n      dup2\n      mstore\n      0x04\n      add\n      tag_172\n      swap1\n      tag_173\n      jump\t// in\n    tag_172:\n      mload(0x40)\n      dup1\n      swap2\n      sub\n      swap1\n      revert\n    tag_171:\n        /* \"Story.sol\":3085:3114  RequestToJoin storage request */\n      0x00\n        /* \"Story.sol\":3117:3131  requestsToJoin */\n      0x0d\n        /* \"Story.sol\":3132:3138  _index */\n      dup3\n        /* \"Story.sol\":3117:3139  requestsToJoin[_index] */\n      dup2\n      sload\n      dup2\n      lt\n      tag_174\n      jumpi\n      tag_175\n      tag_121\n      jump\t// in\n    tag_175:\n    tag_174:\n      swap1\n      0x00\n      mstore\n      keccak256(0x00, 0x20)\n      swap1\n      0x06\n      mul\n      add\n        /* \"Story.sol\":3085:3139  RequestToJoin storage request = requestsToJoin[_index] */\n      swap1\n      pop\n        /* \"Story.sol\":3161:3168  request */\n      dup1\n        /* \"Story.sol\":3161:3178  request.approvers */\n      0x03\n      add\n        /* \"Story.sol\":3161:3190  request.approvers[msg.sender] */\n      0x00\n        /* \"Story.sol\":3179:3189  msg.sender */\n      caller\n        /* \"Story.sol\":3161:3190  request.approvers[msg.sender] */\n      0xffffffffffffffffffffffffffffffffffffffff\n      and\n      0xffffffffffffffffffffffffffffffffffffffff\n      and\n      dup2\n      mstore\n      0x20\n      add\n      swap1\n      dup2\n      mstore\n      0x20\n      add\n      0x00\n      keccak256\n      0x00\n      swap1\n      sload\n      swap1\n      0x0100\n      exp\n      swap1\n      div\n      0xff\n      and\n        /* \"Story.sol\":3160:3190  !request.approvers[msg.sender] */\n      iszero\n        /* \"Story.sol\":3152:3229  require(!request.approvers[msg.sender],\"This author already approved before\") */\n      tag_177\n      jumpi\n      mload(0x40)\n      0x08c379a000000000000000000000000000000000000000000000000000000000\n      dup2\n      mstore\n      0x04\n      add\n      tag_178\n      swap1\n      tag_179\n      jump\t// in\n    tag_178:\n      mload(0x40)\n      dup1\n      swap2\n      sub\n      swap1\n      revert\n    tag_177:\n        /* \"Story.sol\":3274:3278  true */\n      0x01\n        /* \"Story.sol\":3242:3249  request */\n      dup2\n        /* \"Story.sol\":3242:3259  request.approvers */\n      0x03\n      add\n        /* \"Story.sol\":3242:3271  request.approvers[msg.sender] */\n      0x00\n        /* \"Story.sol\":3260:3270  msg.sender */\n      caller\n        /* \"Story.sol\":3242:3271  request.approvers[msg.sender] */\n      0xffffffffffffffffffffffffffffffffffffffff\n      and\n      0xffffffffffffffffffffffffffffffffffffffff\n      and\n      dup2\n      mstore\n      0x20\n      add\n      swap1\n      dup2\n      mstore\n      0x20\n      add\n      0x00\n      keccak256\n      0x00\n        /* \"Story.sol\":3242:3278  request.approvers[msg.sender] = true */\n      0x0100\n      exp\n      dup2\n      sload\n      dup2\n      0xff\n      mul\n      not\n      and\n      swap1\n      dup4\n      iszero\n      iszero\n      mul\n      or\n      swap1\n      sstore\n      pop\n        /* \"Story.sol\":3314:3343  request.approversCount.add(1) */\n      tag_180\n        /* \"Story.sol\":3341:3342  1 */\n      0x01\n        /* \"Story.sol\":3314:3321  request */\n      dup3\n        /* \"Story.sol\":3314:3336  request.approversCount */\n      0x04\n      add\n      sload\n        /* \"Story.sol\":3314:3340  request.approversCount.add */\n      tag_102\n      swap1\n        /* \"Story.sol\":3314:3343  request.approversCount.add(1) */\n      swap2\n      swap1\n      0xffffffff\n      and\n      jump\t// in\n    tag_180:\n        /* \"Story.sol\":3289:3296  request */\n      dup2\n        /* \"Story.sol\":3289:3311  request.approversCount */\n      0x04\n      add\n        /* \"Story.sol\":3289:3343  request.approversCount = request.approversCount.add(1) */\n      dup2\n      swap1\n      sstore\n      pop\n        /* \"Story.sol\":3480:3481  2 */\n      0x02\n        /* \"Story.sol\":3456:3471  authorsForReact */\n      0x06\n        /* \"Story.sol\":3456:3478  authorsForReact.length */\n      dup1\n      sload\n      swap1\n      pop\n        /* \"Story.sol\":3455:3481  (authorsForReact.length)/2 */\n      tag_181\n      swap2\n      swap1\n      tag_182\n      jump\t// in\n    tag_181:\n        /* \"Story.sol\":3429:3436  request */\n      dup2\n        /* \"Story.sol\":3429:3451  request.approversCount */\n      0x04\n      add\n      sload\n        /* \"Story.sol\":3429:3481  request.approversCount >= (authorsForReact.length)/2 */\n      lt\n        /* \"Story.sol\":3426:3692  if(request.approversCount >= (authorsForReact.length)/2){... */\n      tag_183\n      jumpi\n        /* \"Story.sol\":3514:3518  true */\n      0x01\n        /* \"Story.sol\":3497:3504  request */\n      dup2\n        /* \"Story.sol\":3497:3511  request.status */\n      0x05\n      add\n      0x00\n        /* \"Story.sol\":3497:3518  request.status = true */\n      0x0100\n      exp\n      dup2\n      sload\n      dup2\n      0xff\n      mul\n      not\n      and\n      swap1\n      dup4\n      iszero\n      iszero\n      mul\n      or\n      swap1\n      sstore\n      pop\n        /* \"Story.sol\":3625:3629  true */\n      0x01\n        /* \"Story.sol\":3588:3606  authorsForSolidity */\n      0x05\n        /* \"Story.sol\":3588:3622  authorsForSolidity[request.author] */\n      0x00\n        /* \"Story.sol\":3607:3614  request */\n      dup4\n        /* \"Story.sol\":3607:3621  request.author */\n      0x02\n      add\n      0x00\n      swap1\n      sload\n      swap1\n      0x0100\n      exp\n      swap1\n      div\n      0xffffffffffffffffffffffffffffffffffffffff\n      and\n        /* \"Story.sol\":3588:3622  authorsForSolidity[request.author] */\n      0xffffffffffffffffffffffffffffffffffffffff\n      and\n      0xffffffffffffffffffffffffffffffffffffffff\n      and\n      dup2\n      mstore\n      0x20\n      add\n      swap1\n      dup2\n      mstore\n      0x20\n      add\n      0x00\n      keccak256\n      0x00\n        /* \"Story.sol\":3588:3629  authorsForSolidity[request.author] = true */\n      0x0100\n      exp\n      dup2\n      sload\n      dup2\n      0xff\n      mul\n      not\n      and\n      swap1\n      dup4\n      iszero\n      iszero\n      mul\n      or\n      swap1\n      sstore\n      pop\n        /* \"Story.sol\":3644:3659  authorsForReact */\n      0x06\n        /* \"Story.sol\":3665:3672  request */\n      dup2\n        /* \"Story.sol\":3665:3679  request.author */\n      0x02\n      add\n      0x00\n      swap1\n      sload\n      swap1\n      0x0100\n      exp\n      swap1\n      div\n      0xffffffffffffffffffffffffffffffffffffffff\n      and\n        /* \"Story.sol\":3644:3680  authorsForReact.push(request.author) */\n      swap1\n      dup1\n      0x01\n      dup2\n      sload\n      add\n      dup1\n      dup3\n      sstore\n      dup1\n      swap2\n      pop\n      pop\n      0x01\n      swap1\n      sub\n      swap1\n      0x00\n      mstore\n      keccak256(0x00, 0x20)\n      add\n      0x00\n      swap1\n      swap2\n      swap1\n      swap2\n      swap1\n      swap2\n      0x0100\n      exp\n      dup2\n      sload\n      dup2\n      0xffffffffffffffffffffffffffffffffffffffff\n      mul\n      not\n      and\n      swap1\n      dup4\n      0xffffffffffffffffffffffffffffffffffffffff\n      and\n      mul\n      or\n      swap1\n      sstore\n      pop\n        /* \"Story.sol\":3426:3692  if(request.approversCount >= (authorsForReact.length)/2){... */\n    tag_183:\n        /* \"Story.sol\":2826:3699  {... */\n      pop\n        /* \"Story.sol\":7819:7824  false */\n      0x00\n        /* \"Story.sol\":7809:7816  _locked */\n      0x09\n      0x00\n        /* \"Story.sol\":7809:7824  _locked = false */\n      0x0100\n      exp\n      dup2\n      sload\n      dup2\n      0xff\n      mul\n      not\n      and\n      swap1\n      dup4\n      iszero\n      iszero\n      mul\n      or\n      swap1\n      sstore\n      pop\n        /* \"Story.sol\":2761:3699  function approveRequestToJoin(uint256 _index) public noReentrancy{... */\n      pop\n      jump\t// out\n        /* \"Story.sol\":3707:4971  function createChapter(string memory _title,  string memory _ipfsHash, address _parentChapter, address _childChapter) public noReentrancy{... */\n    tag_66:\n        /* \"Story.sol\":7735:7742  _locked */\n      0x09\n      0x00\n      swap1\n      sload\n      swap1\n      0x0100\n      exp\n      swap1\n      div\n      0xff\n      and\n        /* \"Story.sol\":7734:7742  !_locked */\n      iszero\n        /* \"Story.sol\":7726:7761  require(!_locked, \"Reentrant call\") */\n      tag_186\n      jumpi\n      mload(0x40)\n      0x08c379a000000000000000000000000000000000000000000000000000000000\n      dup2\n      mstore\n      0x04\n      add\n      tag_187\n      swap1\n      tag_93\n      jump\t// in\n    tag_187:\n      mload(0x40)\n      dup1\n      swap2\n      sub\n      swap1\n      revert\n    tag_186:\n        /* \"Story.sol\":7782:7786  true */\n      0x01\n        /* \"Story.sol\":7772:7779  _locked */\n      0x09\n      0x00\n        /* \"Story.sol\":7772:7786  _locked = true */\n      0x0100\n      exp\n      dup2\n      sload\n      dup2\n      0xff\n      mul\n      not\n      and\n      swap1\n      dup4\n      iszero\n      iszero\n      mul\n      or\n      swap1\n      sstore\n      pop\n        /* \"Story.sol\":3864:3872  reported */\n      0x0c\n      0x00\n      swap1\n      sload\n      swap1\n      0x0100\n      exp\n      swap1\n      div\n      0xff\n      and\n        /* \"Story.sol\":3863:3872  !reported */\n      iszero\n        /* \"Story.sol\":3855:3905  require(!reported, \"This story has been reported\") */\n      tag_189\n      jumpi\n      mload(0x40)\n      0x08c379a000000000000000000000000000000000000000000000000000000000\n      dup2\n      mstore\n      0x04\n      add\n      tag_190\n      swap1\n      tag_97\n      jump\t// in\n    tag_190:\n      mload(0x40)\n      dup1\n      swap2\n      sub\n      swap1\n      revert\n    tag_189:\n        /* \"Story.sol\":3924:3942  authorsForSolidity */\n      0x05\n        /* \"Story.sol\":3924:3954  authorsForSolidity[msg.sender] */\n      0x00\n        /* \"Story.sol\":3943:3953  msg.sender */\n      caller\n        /* \"Story.sol\":3924:3954  authorsForSolidity[msg.sender] */\n      0xffffffffffffffffffffffffffffffffffffffff\n      and\n      0xffffffffffffffffffffffffffffffffffffffff\n      and\n      dup2\n      mstore\n      0x20\n      add\n      swap1\n      dup2\n      mstore\n      0x20\n      add\n      0x00\n      keccak256\n      0x00\n      swap1\n      sload\n      swap1\n      0x0100\n      exp\n      swap1\n      div\n      0xff\n      and\n        /* \"Story.sol\":3916:4003  require(authorsForSolidity[msg.sender], \"Only an accepted author can create a chapter\") */\n      tag_191\n      jumpi\n      mload(0x40)\n      0x08c379a000000000000000000000000000000000000000000000000000000000\n      dup2\n      mstore\n      0x04\n      add\n      tag_192\n      swap1\n      tag_193\n      jump\t// in\n    tag_192:\n      mload(0x40)\n      dup1\n      swap2\n      sub\n      swap1\n      revert\n    tag_191:\n        /* \"Story.sol\":4022:4048  isContract(_parentChapter) */\n      tag_194\n        /* \"Story.sol\":4033:4047  _parentChapter */\n      dup3\n        /* \"Story.sol\":4022:4032  isContract */\n      tag_195\n        /* \"Story.sol\":4022:4048  isContract(_parentChapter) */\n      jump\t// in\n    tag_194:\n        /* \"Story.sol\":4014:4086  require(isContract(_parentChapter), \"Parent chapter must be a contract\") */\n      tag_196\n      jumpi\n      mload(0x40)\n      0x08c379a000000000000000000000000000000000000000000000000000000000\n      dup2\n      mstore\n      0x04\n      add\n      tag_197\n      swap1\n      tag_198\n      jump\t// in\n    tag_197:\n      mload(0x40)\n      dup1\n      swap2\n      sub\n      swap1\n      revert\n    tag_196:\n        /* \"Story.sol\":4105:4130  isContract(_childChapter) */\n      tag_199\n        /* \"Story.sol\":4116:4129  _childChapter */\n      dup2\n        /* \"Story.sol\":4105:4115  isContract */\n      tag_195\n        /* \"Story.sol\":4105:4130  isContract(_childChapter) */\n      jump\t// in\n    tag_199:\n        /* \"Story.sol\":4097:4167  require(isContract(_childChapter), \"Child chapter must be a contract\") */\n      tag_200\n      jumpi\n      mload(0x40)\n      0x08c379a000000000000000000000000000000000000000000000000000000000\n      dup2\n      mstore\n      0x04\n      add\n      tag_201\n      swap1\n      tag_202\n      jump\t// in\n    tag_201:\n      mload(0x40)\n      dup1\n      swap2\n      sub\n      swap1\n      revert\n    tag_200:\n        /* \"Story.sol\":4186:4220  checkParentChapter(_parentChapter) */\n      tag_203\n        /* \"Story.sol\":4205:4219  _parentChapter */\n      dup3\n        /* \"Story.sol\":4186:4204  checkParentChapter */\n      tag_204\n        /* \"Story.sol\":4186:4220  checkParentChapter(_parentChapter) */\n      jump\t// in\n    tag_203:\n        /* \"Story.sol\":4178:4269  require(checkParentChapter(_parentChapter), \"Parent chapter must belong to the same story\") */\n      tag_205\n      jumpi\n      mload(0x40)\n      0x08c379a000000000000000000000000000000000000000000000000000000000\n      dup2\n      mstore\n      0x04\n      add\n      tag_206\n      swap1\n      tag_207\n      jump\t// in\n    tag_206:\n      mload(0x40)\n      dup1\n      swap2\n      sub\n      swap1\n      revert\n    tag_205:\n        /* \"Story.sol\":4288:4320  checkChildChapter(_childChapter) */\n      tag_208\n        /* \"Story.sol\":4306:4319  _childChapter */\n      dup2\n        /* \"Story.sol\":4288:4305  checkChildChapter */\n      tag_209\n        /* \"Story.sol\":4288:4320  checkChildChapter(_childChapter) */\n      jump\t// in\n    tag_208:\n        /* \"Story.sol\":4280:4368  require(checkChildChapter(_childChapter), \"Child chapter must belong to the same story\") */\n      tag_210\n      jumpi\n      mload(0x40)\n      0x08c379a000000000000000000000000000000000000000000000000000000000\n      dup2\n      mstore\n      0x04\n      add\n      tag_211\n      swap1\n      tag_212\n      jump\t// in\n    tag_211:\n      mload(0x40)\n      dup1\n      swap2\n      sub\n      swap1\n      revert\n    tag_210:\n        /* \"Story.sol\":4381:4399  Chapter newChapter */\n      0x00\n        /* \"Story.sol\":4414:4424  msg.sender */\n      caller\n        /* \"Story.sol\":4434:4438  this */\n      address\n        /* \"Story.sol\":4441:4447  _title */\n      dup7\n        /* \"Story.sol\":4450:4459  _ipfsHash */\n      dup7\n        /* \"Story.sol\":4461:4475  _parentChapter */\n      dup7\n        /* \"Story.sol\":4477:4490  _childChapter */\n      dup7\n        /* \"Story.sol\":4402:4491  new Chapter(msg.sender, address(this), _title,  _ipfsHash, _parentChapter, _childChapter) */\n      mload(0x40)\n      tag_213\n      swap1\n      tag_214\n      jump\t// in\n    tag_213:\n      tag_215\n      swap7\n      swap6\n      swap5\n      swap4\n      swap3\n      swap2\n      swap1\n      tag_216\n      jump\t// in\n    tag_215:\n      mload(0x40)\n      dup1\n      swap2\n      sub\n      swap1\n      0x00\n      create\n      dup1\n      iszero\n      dup1\n      iszero\n      tag_217\n      jumpi\n      returndatasize\n      0x00\n      dup1\n      returndatacopy\n      revert(0x00, returndatasize)\n    tag_217:\n      pop\n        /* \"Story.sol\":4381:4491  Chapter newChapter = new Chapter(msg.sender, address(this), _title,  _ipfsHash, _parentChapter, _childChapter) */\n      swap1\n      pop\n        /* \"Story.sol\":4531:4532  0 */\n      0x00\n        /* \"Story.sol\":4505:4533  _parentChapter != address(0) */\n      0xffffffffffffffffffffffffffffffffffffffff\n      and\n        /* \"Story.sol\":4505:4519  _parentChapter */\n      dup4\n        /* \"Story.sol\":4505:4533  _parentChapter != address(0) */\n      0xffffffffffffffffffffffffffffffffffffffff\n      and\n      eq\n        /* \"Story.sol\":4502:4672  if(_parentChapter != address(0)){... */\n      tag_218\n      jumpi\n        /* \"Story.sol\":4553:4567  Chapter parent */\n      0x00\n        /* \"Story.sol\":4578:4592  _parentChapter */\n      dup4\n        /* \"Story.sol\":4553:4593  Chapter parent = Chapter(_parentChapter) */\n      swap1\n      pop\n        /* \"Story.sol\":4612:4618  parent */\n      dup1\n        /* \"Story.sol\":4612:4635  parent.linkChildChapter */\n      0xffffffffffffffffffffffffffffffffffffffff\n      and\n      0x988e46c8\n        /* \"Story.sol\":4644:4654  newChapter */\n      dup4\n        /* \"Story.sol\":4612:4656  parent.linkChildChapter(address(newChapter)) */\n      mload(0x40)\n      dup3\n      0xffffffff\n      and\n      0xe0\n      shl\n      dup2\n      mstore\n      0x04\n      add\n      tag_219\n      swap2\n      swap1\n      tag_77\n      jump\t// in\n    tag_219:\n      0x00\n      mload(0x40)\n      dup1\n      dup4\n      sub\n      dup2\n      0x00\n      dup8\n      dup1\n      extcodesize\n      iszero\n      dup1\n      iszero\n      tag_220\n      jumpi\n      0x00\n      dup1\n      revert\n    tag_220:\n      pop\n      gas\n      call\n      iszero\n      dup1\n      iszero\n      tag_222\n      jumpi\n      returndatasize\n      0x00\n      dup1\n      returndatacopy\n      revert(0x00, returndatasize)\n    tag_222:\n      pop\n      pop\n      pop\n      pop\n        /* \"Story.sol\":4534:4672  {... */\n      pop\n        /* \"Story.sol\":4502:4672  if(_parentChapter != address(0)){... */\n    tag_218:\n        /* \"Story.sol\":4710:4711  0 */\n      0x00\n        /* \"Story.sol\":4685:4712  _childChapter != address(0) */\n      0xffffffffffffffffffffffffffffffffffffffff\n      and\n        /* \"Story.sol\":4685:4698  _childChapter */\n      dup3\n        /* \"Story.sol\":4685:4712  _childChapter != address(0) */\n      0xffffffffffffffffffffffffffffffffffffffff\n      and\n      eq\n        /* \"Story.sol\":4682:4849  if(_childChapter != address(0)){... */\n      tag_223\n      jumpi\n        /* \"Story.sol\":4732:4745  Chapter child */\n      0x00\n        /* \"Story.sol\":4756:4769  _childChapter */\n      dup3\n        /* \"Story.sol\":4732:4770  Chapter child = Chapter(_childChapter) */\n      swap1\n      pop\n        /* \"Story.sol\":4789:4794  child */\n      dup1\n        /* \"Story.sol\":4789:4812  child.linkParentChapter */\n      0xffffffffffffffffffffffffffffffffffffffff\n      and\n      0x8758ce83\n        /* \"Story.sol\":4821:4831  newChapter */\n      dup4\n        /* \"Story.sol\":4789:4833  child.linkParentChapter(address(newChapter)) */\n      mload(0x40)\n      dup3\n      0xffffffff\n      and\n      0xe0\n      shl\n      dup2\n      mstore\n      0x04\n      add\n      tag_224\n      swap2\n      swap1\n      tag_77\n      jump\t// in\n    tag_224:\n      0x00\n      mload(0x40)\n      dup1\n      dup4\n      sub\n      dup2\n      0x00\n      dup8\n      dup1\n      extcodesize\n      iszero\n      dup1\n      iszero\n      tag_225\n      jumpi\n      0x00\n      dup1\n      revert\n    tag_225:\n      pop\n      gas\n      call\n      iszero\n      dup1\n      iszero\n      tag_227\n      jumpi\n      returndatasize\n      0x00\n      dup1\n      returndatacopy\n      revert(0x00, returndatasize)\n    tag_227:\n      pop\n      pop\n      pop\n      pop\n        /* \"Story.sol\":4713:4849  {... */\n      pop\n        /* \"Story.sol\":4682:4849  if(_childChapter != address(0)){... */\n    tag_223:\n        /* \"Story.sol\":4859:4875  chaptersForReact */\n      0x08\n        /* \"Story.sol\":4889:4899  newChapter */\n      dup2\n        /* \"Story.sol\":4859:4901  chaptersForReact.push(address(newChapter)) */\n      swap1\n      dup1\n      0x01\n      dup2\n      sload\n      add\n      dup1\n      dup3\n      sstore\n      dup1\n      swap2\n      pop\n      pop\n      0x01\n      swap1\n      sub\n      swap1\n      0x00\n      mstore\n      keccak256(0x00, 0x20)\n      add\n      0x00\n      swap1\n      swap2\n      swap1\n      swap2\n      swap1\n      swap2\n      0x0100\n      exp\n      dup2\n      sload\n      dup2\n      0xffffffffffffffffffffffffffffffffffffffff\n      mul\n      not\n      and\n      swap1\n      dup4\n      0xffffffffffffffffffffffffffffffffffffffff\n      and\n      mul\n      or\n      swap1\n      sstore\n      pop\n        /* \"Story.sol\":4955:4959  true */\n      0x01\n        /* \"Story.sol\":4912:4931  chaptersForSolidity */\n      0x07\n        /* \"Story.sol\":4912:4952  chaptersForSolidity[address(newChapter)] */\n      0x00\n        /* \"Story.sol\":4940:4950  newChapter */\n      dup4\n        /* \"Story.sol\":4912:4952  chaptersForSolidity[address(newChapter)] */\n      0xffffffffffffffffffffffffffffffffffffffff\n      and\n      0xffffffffffffffffffffffffffffffffffffffff\n      and\n      dup2\n      mstore\n      0x20\n      add\n      swap1\n      dup2\n      mstore\n      0x20\n      add\n      0x00\n      keccak256\n      0x00\n        /* \"Story.sol\":4912:4959  chaptersForSolidity[address(newChapter)] = true */\n      0x0100\n      exp\n      dup2\n      sload\n      dup2\n      0xff\n      mul\n      not\n      and\n      swap1\n      dup4\n      iszero\n      iszero\n      mul\n      or\n      swap1\n      sstore\n      pop\n        /* \"Story.sol\":3844:4971  {... */\n      pop\n        /* \"Story.sol\":7819:7824  false */\n      0x00\n        /* \"Story.sol\":7809:7816  _locked */\n      0x09\n      0x00\n        /* \"Story.sol\":7809:7824  _locked = false */\n      0x0100\n      exp\n      dup2\n      sload\n      dup2\n      0xff\n      mul\n      not\n      and\n      swap1\n      dup4\n      iszero\n      iszero\n      mul\n      or\n      swap1\n      sstore\n      pop\n        /* \"Story.sol\":3707:4971  function createChapter(string memory _title,  string memory _ipfsHash, address _parentChapter, address _childChapter) public noReentrancy{... */\n      pop\n      pop\n      pop\n      pop\n      jump\t// out\n        /* \"Story.sol\":6033:6137  function getChapters() public view returns (address[] memory) {... */\n    tag_69:\n        /* \"Story.sol\":6077:6093  address[] memory */\n      0x60\n        /* \"Story.sol\":6113:6129  chaptersForReact */\n      0x08\n        /* \"Story.sol\":6106:6129  return chaptersForReact */\n      dup1\n      sload\n      dup1\n      0x20\n      mul\n      0x20\n      add\n      mload(0x40)\n      swap1\n      dup2\n      add\n      0x40\n      mstore\n      dup1\n      swap3\n      swap2\n      swap1\n      dup2\n      dup2\n      mstore\n      0x20\n      add\n      dup3\n      dup1\n      sload\n      dup1\n      iszero\n      tag_230\n      jumpi\n      0x20\n      mul\n      dup3\n      add\n      swap2\n      swap1\n      0x00\n      mstore\n      keccak256(0x00, 0x20)\n      swap1\n    tag_231:\n      dup2\n      0x00\n      swap1\n      sload\n      swap1\n      0x0100\n      exp\n      swap1\n      div\n      0xffffffffffffffffffffffffffffffffffffffff\n      and\n      0xffffffffffffffffffffffffffffffffffffffff\n      and\n      dup2\n      mstore\n      0x20\n      add\n      swap1\n      0x01\n      add\n      swap1\n      dup1\n      dup4\n      gt\n      tag_231\n      jumpi\n    tag_230:\n      pop\n      pop\n      pop\n      pop\n      pop\n      swap1\n      pop\n        /* \"Story.sol\":6033:6137  function getChapters() public view returns (address[] memory) {... */\n      swap1\n      jump\t// out\n        /* \"Story.sol\":1302:1334  address[] public authorsForReact */\n    tag_75:\n      0x06\n      dup2\n      dup2\n      sload\n      dup2\n      lt\n      tag_232\n      jumpi\n      0x00\n      dup1\n      revert\n    tag_232:\n      swap1\n      0x00\n      mstore\n      keccak256(0x00, 0x20)\n      add\n      0x00\n      swap2\n      pop\n      sload\n      swap1\n      0x0100\n      exp\n      swap1\n      div\n      0xffffffffffffffffffffffffffffffffffffffff\n      and\n      dup2\n      jump\t// out\n        /* \"Story.sol\":1399:1432  address[] public chaptersForReact */\n    tag_81:\n      0x08\n      dup2\n      dup2\n      sload\n      dup2\n      lt\n      tag_234\n      jumpi\n      0x00\n      dup1\n      revert\n    tag_234:\n      swap1\n      0x00\n      mstore\n      keccak256(0x00, 0x20)\n      add\n      0x00\n      swap2\n      pop\n      sload\n      swap1\n      0x0100\n      exp\n      swap1\n      div\n      0xffffffffffffffffffffffffffffffffffffffff\n      and\n      dup2\n      jump\t// out\n        /* \"Story.sol\":4979:5162  function contribute() public payable noReentrancy{... */\n    tag_84:\n        /* \"Story.sol\":7735:7742  _locked */\n      0x09\n      0x00\n      swap1\n      sload\n      swap1\n      0x0100\n      exp\n      swap1\n      div\n      0xff\n      and\n        /* \"Story.sol\":7734:7742  !_locked */\n      iszero\n        /* \"Story.sol\":7726:7761  require(!_locked, \"Reentrant call\") */\n      tag_237\n      jumpi\n      mload(0x40)\n      0x08c379a000000000000000000000000000000000000000000000000000000000\n      dup2\n      mstore\n      0x04\n      add\n      tag_238\n      swap1\n      tag_93\n      jump\t// in\n    tag_238:\n      mload(0x40)\n      dup1\n      swap2\n      sub\n      swap1\n      revert\n    tag_237:\n        /* \"Story.sol\":7782:7786  true */\n      0x01\n        /* \"Story.sol\":7772:7779  _locked */\n      0x09\n      0x00\n        /* \"Story.sol\":7772:7786  _locked = true */\n      0x0100\n      exp\n      dup2\n      sload\n      dup2\n      0xff\n      mul\n      not\n      and\n      swap1\n      dup4\n      iszero\n      iszero\n      mul\n      or\n      swap1\n      sstore\n      pop\n        /* \"Story.sol\":5060:5063  100 */\n      0x64\n        /* \"Story.sol\":5047:5056  msg.value */\n      callvalue\n        /* \"Story.sol\":5047:5063  msg.value >= 100 */\n      lt\n      iszero\n        /* \"Story.sol\":5039:5099  require(msg.value >= 100, \"Minimum contribution is 100 Wei\") */\n      tag_240\n      jumpi\n      mload(0x40)\n      0x08c379a000000000000000000000000000000000000000000000000000000000\n      dup2\n      mstore\n      0x04\n      add\n      tag_241\n      swap1\n      tag_242\n      jump\t// in\n    tag_241:\n      mload(0x40)\n      dup1\n      swap2\n      sub\n      swap1\n      revert\n    tag_240:\n        /* \"Story.sol\":7819:7824  false */\n      0x00\n        /* \"Story.sol\":7809:7816  _locked */\n      0x09\n      0x00\n        /* \"Story.sol\":7809:7824  _locked = false */\n      0x0100\n      exp\n      dup2\n      sload\n      dup2\n      0xff\n      mul\n      not\n      and\n      swap1\n      dup4\n      iszero\n      iszero\n      mul\n      or\n      swap1\n      sstore\n      pop\n        /* \"Story.sol\":4979:5162  function contribute() public payable noReentrancy{... */\n      jump\t// out\n        /* \"Story.sol\":2237:2753  function createRequestToJoin(string memory _proposal) public noReentrancy{... */\n    tag_89:\n        /* \"Story.sol\":7735:7742  _locked */\n      0x09\n      0x00\n      swap1\n      sload\n      swap1\n      0x0100\n      exp\n      swap1\n      div\n      0xff\n      and\n        /* \"Story.sol\":7734:7742  !_locked */\n      iszero\n        /* \"Story.sol\":7726:7761  require(!_locked, \"Reentrant call\") */\n      tag_244\n      jumpi\n      mload(0x40)\n      0x08c379a000000000000000000000000000000000000000000000000000000000\n      dup2\n      mstore\n      0x04\n      add\n      tag_245\n      swap1\n      tag_93\n      jump\t// in\n    tag_245:\n      mload(0x40)\n      dup1\n      swap2\n      sub\n      swap1\n      revert\n    tag_244:\n        /* \"Story.sol\":7782:7786  true */\n      0x01\n        /* \"Story.sol\":7772:7779  _locked */\n      0x09\n      0x00\n        /* \"Story.sol\":7772:7786  _locked = true */\n      0x0100\n      exp\n      dup2\n      sload\n      dup2\n      0xff\n      mul\n      not\n      and\n      swap1\n      dup4\n      iszero\n      iszero\n      mul\n      or\n      swap1\n      sstore\n      pop\n        /* \"Story.sol\":2330:2338  reported */\n      0x0c\n      0x00\n      swap1\n      sload\n      swap1\n      0x0100\n      exp\n      swap1\n      div\n      0xff\n      and\n        /* \"Story.sol\":2329:2338  !reported */\n      iszero\n        /* \"Story.sol\":2321:2371  require(!reported, \"This story has been reported\") */\n      tag_247\n      jumpi\n      mload(0x40)\n      0x08c379a000000000000000000000000000000000000000000000000000000000\n      dup2\n      mstore\n      0x04\n      add\n      tag_248\n      swap1\n      tag_97\n      jump\t// in\n    tag_248:\n      mload(0x40)\n      dup1\n      swap2\n      sub\n      swap1\n      revert\n    tag_247:\n        /* \"Story.sol\":2391:2409  authorsForSolidity */\n      0x05\n        /* \"Story.sol\":2391:2421  authorsForSolidity[msg.sender] */\n      0x00\n        /* \"Story.sol\":2410:2420  msg.sender */\n      caller\n        /* \"Story.sol\":2391:2421  authorsForSolidity[msg.sender] */\n      0xffffffffffffffffffffffffffffffffffffffff\n      and\n      0xffffffffffffffffffffffffffffffffffffffff\n      and\n      dup2\n      mstore\n      0x20\n      add\n      swap1\n      dup2\n      mstore\n      0x20\n      add\n      0x00\n      keccak256\n      0x00\n      swap1\n      sload\n      swap1\n      0x0100\n      exp\n      swap1\n      div\n      0xff\n      and\n        /* \"Story.sol\":2390:2421  !authorsForSolidity[msg.sender] */\n      iszero\n        /* \"Story.sol\":2382:2470  require(!authorsForSolidity[msg.sender], \"Author already exists in the list of authors\") */\n      tag_249\n      jumpi\n      mload(0x40)\n      0x08c379a000000000000000000000000000000000000000000000000000000000\n      dup2\n      mstore\n      0x04\n      add\n      tag_250\n      swap1\n      tag_251\n      jump\t// in\n    tag_250:\n      mload(0x40)\n      dup1\n      swap2\n      sub\n      swap1\n      revert\n    tag_249:\n        /* \"Story.sol\":2481:2513  RequestToJoin storage newRequest */\n      0x00\n        /* \"Story.sol\":2516:2530  requestsToJoin */\n      0x0d\n        /* \"Story.sol\":2516:2537  requestsToJoin.push() */\n      0x01\n      dup2\n      0x01\n      dup2\n      sload\n      add\n      dup1\n      dup3\n      sstore\n      dup1\n      swap2\n      pop\n      pop\n      sub\n      swap1\n      0x00\n      mstore\n      keccak256(0x00, 0x20)\n      swap1\n      0x06\n      mul\n      add\n        /* \"Story.sol\":2481:2537  RequestToJoin storage newRequest = requestsToJoin.push() */\n      swap1\n      pop\n        /* \"Story.sol\":2570:2579  _proposal */\n      dup2\n        /* \"Story.sol\":2548:2558  newRequest */\n      dup2\n        /* \"Story.sol\":2548:2567  newRequest.proposal */\n      0x00\n      add\n        /* \"Story.sol\":2548:2579  newRequest.proposal = _proposal */\n      swap1\n      dup1\n      mload\n      swap1\n      0x20\n      add\n      swap1\n      tag_253\n      swap3\n      swap2\n      swap1\n      tag_254\n      jump\t// in\n    tag_253:\n      pop\n        /* \"Story.sol\":2613:2628  block.timestamp */\n      timestamp\n        /* \"Story.sol\":2590:2600  newRequest */\n      dup2\n        /* \"Story.sol\":2590:2610  newRequest.timestamp */\n      0x01\n      add\n        /* \"Story.sol\":2590:2628  newRequest.timestamp = block.timestamp */\n      dup2\n      swap1\n      sstore\n      pop\n        /* \"Story.sol\":2659:2669  msg.sender */\n      caller\n        /* \"Story.sol\":2639:2649  newRequest */\n      dup2\n        /* \"Story.sol\":2639:2656  newRequest.author */\n      0x02\n      add\n      0x00\n        /* \"Story.sol\":2639:2669  newRequest.author = msg.sender */\n      0x0100\n      exp\n      dup2\n      sload\n      dup2\n      0xffffffffffffffffffffffffffffffffffffffff\n      mul\n      not\n      and\n      swap1\n      dup4\n      0xffffffffffffffffffffffffffffffffffffffff\n      and\n      mul\n      or\n      swap1\n      sstore\n      pop\n        /* \"Story.sol\":2708:2709  0 */\n      0x00\n        /* \"Story.sol\":2680:2690  newRequest */\n      dup2\n        /* \"Story.sol\":2680:2705  newRequest.approversCount */\n      0x04\n      add\n        /* \"Story.sol\":2680:2709  newRequest.approversCount = 0 */\n      dup2\n      swap1\n      sstore\n      pop\n        /* \"Story.sol\":2740:2745  false */\n      0x00\n        /* \"Story.sol\":2720:2730  newRequest */\n      dup2\n        /* \"Story.sol\":2720:2737  newRequest.status */\n      0x05\n      add\n      0x00\n        /* \"Story.sol\":2720:2745  newRequest.status = false */\n      0x0100\n      exp\n      dup2\n      sload\n      dup2\n      0xff\n      mul\n      not\n      and\n      swap1\n      dup4\n      iszero\n      iszero\n      mul\n      or\n      swap1\n      sstore\n      pop\n        /* \"Story.sol\":2310:2753  {... */\n      pop\n        /* \"Story.sol\":7819:7824  false */\n      0x00\n        /* \"Story.sol\":7809:7816  _locked */\n      0x09\n      0x00\n        /* \"Story.sol\":7809:7824  _locked = false */\n      0x0100\n      exp\n      dup2\n      sload\n      dup2\n      0xff\n      mul\n      not\n      and\n      swap1\n      dup4\n      iszero\n      iszero\n      mul\n      or\n      swap1\n      sstore\n      pop\n        /* \"Story.sol\":2237:2753  function createRequestToJoin(string memory _proposal) public noReentrancy{... */\n      pop\n      jump\t// out\n        /* \"Story.sol\":84:263  function add(uint256 a, uint256 b) internal pure returns (uint256) {... */\n    tag_102:\n        /* \"Story.sol\":142:149  uint256 */\n      0x00\n        /* \"Story.sol\":162:171  uint256 c */\n      dup1\n        /* \"Story.sol\":178:179  b */\n      dup3\n        /* \"Story.sol\":174:175  a */\n      dup5\n        /* \"Story.sol\":174:179  a + b */\n      tag_256\n      swap2\n      swap1\n      tag_257\n      jump\t// in\n    tag_256:\n        /* \"Story.sol\":162:179  uint256 c = a + b */\n      swap1\n      pop\n        /* \"Story.sol\":203:204  a */\n      dup4\n        /* \"Story.sol\":198:199  c */\n      dup2\n        /* \"Story.sol\":198:204  c >= a */\n      lt\n      iszero\n        /* \"Story.sol\":190:236  require(c >= a, \"SafeMath: addition overflow\") */\n      tag_258\n      jumpi\n      mload(0x40)\n      0x08c379a000000000000000000000000000000000000000000000000000000000\n      dup2\n      mstore\n      0x04\n      add\n      tag_259\n      swap1\n      tag_260\n      jump\t// in\n    tag_259:\n      mload(0x40)\n      dup1\n      swap2\n      sub\n      swap1\n      revert\n    tag_258:\n        /* \"Story.sol\":254:255  c */\n      dup1\n        /* \"Story.sol\":247:255  return c */\n      swap2\n      pop\n      pop\n        /* \"Story.sol\":84:263  function add(uint256 a, uint256 b) internal pure returns (uint256) {... */\n      swap3\n      swap2\n      pop\n      pop\n      jump\t// out\n        /* \"Story.sol\":269:422  function div(uint256 a, uint256 b) internal pure returns (uint256) {... */\n    tag_112:\n        /* \"Story.sol\":327:334  uint256 */\n      0x00\n        /* \"Story.sol\":359:360  0 */\n      dup1\n        /* \"Story.sol\":355:356  b */\n      dup3\n        /* \"Story.sol\":355:360  b > 0 */\n      gt\n        /* \"Story.sol\":347:391  require(b > 0, \"SafeMath: division by zero\") */\n      tag_262\n      jumpi\n      mload(0x40)\n      0x08c379a000000000000000000000000000000000000000000000000000000000\n      dup2\n      mstore\n      0x04\n      add\n      tag_263\n      swap1\n      tag_264\n      jump\t// in\n    tag_263:\n      mload(0x40)\n      dup1\n      swap2\n      sub\n      swap1\n      revert\n    tag_262:\n        /* \"Story.sol\":413:414  b */\n      dup2\n        /* \"Story.sol\":409:410  a */\n      dup4\n        /* \"Story.sol\":409:414  a / b */\n      tag_265\n      swap2\n      swap1\n      tag_182\n      jump\t// in\n    tag_265:\n        /* \"Story.sol\":402:414  return a / b */\n      swap1\n      pop\n        /* \"Story.sol\":269:422  function div(uint256 a, uint256 b) internal pure returns (uint256) {... */\n      swap3\n      swap2\n      pop\n      pop\n      jump\t// out\n        /* \"Story.sol\":7349:7681  function isContract(address account) internal view returns (bool) {... */\n    tag_195:\n        /* \"Story.sol\":7409:7413  bool */\n      0x00\n        /* \"Story.sol\":7510:7511  0 */\n      dup1\n        /* \"Story.sol\":7491:7512  account == address(0) */\n      0xffffffffffffffffffffffffffffffffffffffff\n      and\n        /* \"Story.sol\":7491:7498  account */\n      dup3\n        /* \"Story.sol\":7491:7512  account == address(0) */\n      0xffffffffffffffffffffffffffffffffffffffff\n      and\n      eq\n        /* \"Story.sol\":7487:7552  if (account == address(0)) {... */\n      iszero\n      tag_267\n      jumpi\n        /* \"Story.sol\":7536:7540  true */\n      0x01\n        /* \"Story.sol\":7529:7540  return true */\n      swap1\n      pop\n      jump(tag_266)\n        /* \"Story.sol\":7487:7552  if (account == address(0)) {... */\n    tag_267:\n        /* \"Story.sol\":7562:7574  uint256 size */\n      0x00\n        /* \"Story.sol\":7629:7636  account */\n      dup3\n        /* \"Story.sol\":7617:7637  extcodesize(account) */\n      extcodesize\n        /* \"Story.sol\":7609:7637  size := extcodesize(account) */\n      swap1\n      pop\n        /* \"Story.sol\":7672:7673  0 */\n      0x00\n        /* \"Story.sol\":7665:7669  size */\n      dup2\n        /* \"Story.sol\":7665:7673  size > 0 */\n      gt\n        /* \"Story.sol\":7658:7673  return size > 0 */\n      swap2\n      pop\n      pop\n        /* \"Story.sol\":7349:7681  function isContract(address account) internal view returns (bool) {... */\n    tag_266:\n      swap2\n      swap1\n      pop\n      jump\t// out\n        /* \"Story.sol\":6846:7064  function checkParentChapter(address parentChapter) internal view returns (bool){... */\n    tag_204:\n        /* \"Story.sol\":6920:6924  bool */\n      0x00\n        /* \"Story.sol\":6964:6965  0 */\n      dup1\n        /* \"Story.sol\":6939:6966  parentChapter == address(0) */\n      0xffffffffffffffffffffffffffffffffffffffff\n      and\n        /* \"Story.sol\":6939:6952  parentChapter */\n      dup3\n        /* \"Story.sol\":6939:6966  parentChapter == address(0) */\n      0xffffffffffffffffffffffffffffffffffffffff\n      and\n      eq\n        /* \"Story.sol\":6936:7005  if(parentChapter == address(0)){... */\n      iszero\n      tag_269\n      jumpi\n        /* \"Story.sol\":6989:6993  true */\n      0x01\n        /* \"Story.sol\":6982:6993  return true */\n      swap1\n      pop\n      jump(tag_268)\n        /* \"Story.sol\":6936:7005  if(parentChapter == address(0)){... */\n    tag_269:\n        /* \"Story.sol\":7022:7041  chaptersForSolidity */\n      0x07\n        /* \"Story.sol\":7022:7056  chaptersForSolidity[parentChapter] */\n      0x00\n        /* \"Story.sol\":7042:7055  parentChapter */\n      dup4\n        /* \"Story.sol\":7022:7056  chaptersForSolidity[parentChapter] */\n      0xffffffffffffffffffffffffffffffffffffffff\n      and\n      0xffffffffffffffffffffffffffffffffffffffff\n      and\n      dup2\n      mstore\n      0x20\n      add\n      swap1\n      dup2\n      mstore\n      0x20\n      add\n      0x00\n      keccak256\n      0x00\n      swap1\n      sload\n      swap1\n      0x0100\n      exp\n      swap1\n      div\n      0xff\n      and\n        /* \"Story.sol\":7015:7056  return chaptersForSolidity[parentChapter] */\n      swap1\n      pop\n        /* \"Story.sol\":6846:7064  function checkParentChapter(address parentChapter) internal view returns (bool){... */\n    tag_268:\n      swap2\n      swap1\n      pop\n      jump\t// out\n        /* \"Story.sol\":7127:7341  function checkChildChapter(address childChapter) internal view returns (bool){... */\n    tag_209:\n        /* \"Story.sol\":7199:7203  bool */\n      0x00\n        /* \"Story.sol\":7242:7243  0 */\n      dup1\n        /* \"Story.sol\":7218:7244  childChapter == address(0) */\n      0xffffffffffffffffffffffffffffffffffffffff\n      and\n        /* \"Story.sol\":7218:7230  childChapter */\n      dup3\n        /* \"Story.sol\":7218:7244  childChapter == address(0) */\n      0xffffffffffffffffffffffffffffffffffffffff\n      and\n      eq\n        /* \"Story.sol\":7215:7283  if(childChapter == address(0)){... */\n      iszero\n      tag_271\n      jumpi\n        /* \"Story.sol\":7267:7271  true */\n      0x01\n        /* \"Story.sol\":7260:7271  return true */\n      swap1\n      pop\n      jump(tag_270)\n        /* \"Story.sol\":7215:7283  if(childChapter == address(0)){... */\n    tag_271:\n        /* \"Story.sol\":7300:7319  chaptersForSolidity */\n      0x07\n        /* \"Story.sol\":7300:7333  chaptersForSolidity[childChapter] */\n      0x00\n        /* \"Story.sol\":7320:7332  childChapter */\n      dup4\n        /* \"Story.sol\":7300:7333  chaptersForSolidity[childChapter] */\n      0xffffffffffffffffffffffffffffffffffffffff\n      and\n      0xffffffffffffffffffffffffffffffffffffffff\n      and\n      dup2\n      mstore\n      0x20\n      add\n      swap1\n      dup2\n      mstore\n      0x20\n      add\n      0x00\n      keccak256\n      0x00\n      swap1\n      sload\n      swap1\n      0x0100\n      exp\n      swap1\n      div\n      0xff\n      and\n        /* \"Story.sol\":7293:7333  return chaptersForSolidity[childChapter] */\n      swap1\n      pop\n        /* \"Story.sol\":7127:7341  function checkChildChapter(address childChapter) internal view returns (bool){... */\n    tag_270:\n      swap2\n      swap1\n      pop\n      jump\t// out\n    tag_214:\n      dataSize(sub_0)\n      dup1\n      dataOffset(sub_0)\n      dup4\n      codecopy\n      add\n      swap1\n      jump\t// out\n    tag_254:\n      dup3\n      dup1\n      sload\n      tag_272\n      swap1\n      tag_129\n      jump\t// in\n    tag_272:\n      swap1\n      0x00\n      mstore\n      keccak256(0x00, 0x20)\n      swap1\n      0x1f\n      add\n      0x20\n      swap1\n      div\n      dup2\n      add\n      swap3\n      dup3\n      tag_274\n      jumpi\n      0x00\n      dup6\n      sstore\n      jump(tag_273)\n    tag_274:\n      dup3\n      0x1f\n      lt\n      tag_275\n      jumpi\n      dup1\n      mload\n      not(0xff)\n      and\n      dup4\n      dup1\n      add\n      or\n      dup6\n      sstore\n      jump(tag_273)\n    tag_275:\n      dup3\n      dup1\n      add\n      0x01\n      add\n      dup6\n      sstore\n      dup3\n      iszero\n      tag_273\n      jumpi\n      swap2\n      dup3\n      add\n    tag_276:\n      dup3\n      dup2\n      gt\n      iszero\n      tag_277\n      jumpi\n      dup3\n      mload\n      dup3\n      sstore\n      swap2\n      0x20\n      add\n      swap2\n      swap1\n      0x01\n      add\n      swap1\n      jump(tag_276)\n    tag_277:\n    tag_273:\n      pop\n      swap1\n      pop\n      tag_278\n      swap2\n      swap1\n      tag_279\n      jump\t// in\n    tag_278:\n      pop\n      swap1\n      jump\t// out\n    tag_279:\n    tag_280:\n      dup1\n      dup3\n      gt\n      iszero\n      tag_281\n      jumpi\n      0x00\n      dup2\n      0x00\n      swap1\n      sstore\n      pop\n      0x01\n      add\n      jump(tag_280)\n    tag_281:\n      pop\n      swap1\n      jump\t// out\n        /* \"#utility.yul\":7:82   */\n    tag_282:\n        /* \"#utility.yul\":40:46   */\n      0x00\n        /* \"#utility.yul\":73:75   */\n      0x40\n        /* \"#utility.yul\":67:76   */\n      mload\n        /* \"#utility.yul\":57:76   */\n      swap1\n      pop\n        /* \"#utility.yul\":7:82   */\n      swap1\n      jump\t// out\n        /* \"#utility.yul\":88:205   */\n    tag_283:\n        /* \"#utility.yul\":197:198   */\n      0x00\n        /* \"#utility.yul\":194:195   */\n      dup1\n        /* \"#utility.yul\":187:199   */\n      revert\n        /* \"#utility.yul\":211:328   */\n    tag_284:\n        /* \"#utility.yul\":320:321   */\n      0x00\n        /* \"#utility.yul\":317:318   */\n      dup1\n        /* \"#utility.yul\":310:322   */\n      revert\n        /* \"#utility.yul\":334:460   */\n    tag_285:\n        /* \"#utility.yul\":371:378   */\n      0x00\n        /* \"#utility.yul\":411:453   */\n      0xffffffffffffffffffffffffffffffffffffffff\n        /* \"#utility.yul\":404:409   */\n      dup3\n        /* \"#utility.yul\":400:454   */\n      and\n        /* \"#utility.yul\":389:454   */\n      swap1\n      pop\n        /* \"#utility.yul\":334:460   */\n      swap2\n      swap1\n      pop\n      jump\t// out\n        /* \"#utility.yul\":466:562   */\n    tag_286:\n        /* \"#utility.yul\":503:510   */\n      0x00\n        /* \"#utility.yul\":532:556   */\n      tag_360\n        /* \"#utility.yul\":550:555   */\n      dup3\n        /* \"#utility.yul\":532:556   */\n      tag_285\n      jump\t// in\n    tag_360:\n        /* \"#utility.yul\":521:556   */\n      swap1\n      pop\n        /* \"#utility.yul\":466:562   */\n      swap2\n      swap1\n      pop\n      jump\t// out\n        /* \"#utility.yul\":568:690   */\n    tag_287:\n        /* \"#utility.yul\":641:665   */\n      tag_362\n        /* \"#utility.yul\":659:664   */\n      dup2\n        /* \"#utility.yul\":641:665   */\n      tag_286\n      jump\t// in\n    tag_362:\n        /* \"#utility.yul\":634:639   */\n      dup2\n        /* \"#utility.yul\":631:666   */\n      eq\n        /* \"#utility.yul\":621:684   */\n      tag_363\n      jumpi\n        /* \"#utility.yul\":680:681   */\n      0x00\n        /* \"#utility.yul\":677:678   */\n      dup1\n        /* \"#utility.yul\":670:682   */\n      revert\n        /* \"#utility.yul\":621:684   */\n    tag_363:\n        /* \"#utility.yul\":568:690   */\n      pop\n      jump\t// out\n        /* \"#utility.yul\":696:835   */\n    tag_288:\n        /* \"#utility.yul\":742:747   */\n      0x00\n        /* \"#utility.yul\":780:786   */\n      dup2\n        /* \"#utility.yul\":767:787   */\n      calldataload\n        /* \"#utility.yul\":758:787   */\n      swap1\n      pop\n        /* \"#utility.yul\":796:829   */\n      tag_365\n        /* \"#utility.yul\":823:828   */\n      dup2\n        /* \"#utility.yul\":796:829   */\n      tag_287\n      jump\t// in\n    tag_365:\n        /* \"#utility.yul\":696:835   */\n      swap3\n      swap2\n      pop\n      pop\n      jump\t// out\n        /* \"#utility.yul\":841:1170   */\n    tag_29:\n        /* \"#utility.yul\":900:906   */\n      0x00\n        /* \"#utility.yul\":949:951   */\n      0x20\n        /* \"#utility.yul\":937:946   */\n      dup3\n        /* \"#utility.yul\":928:935   */\n      dup5\n        /* \"#utility.yul\":924:947   */\n      sub\n        /* \"#utility.yul\":920:952   */\n      slt\n        /* \"#utility.yul\":917:1036   */\n      iszero\n      tag_367\n      jumpi\n        /* \"#utility.yul\":955:1034   */\n      tag_368\n      tag_283\n      jump\t// in\n    tag_368:\n        /* \"#utility.yul\":917:1036   */\n    tag_367:\n        /* \"#utility.yul\":1075:1076   */\n      0x00\n        /* \"#utility.yul\":1100:1153   */\n      tag_369\n        /* \"#utility.yul\":1145:1152   */\n      dup5\n        /* \"#utility.yul\":1136:1142   */\n      dup3\n        /* \"#utility.yul\":1125:1134   */\n      dup6\n        /* \"#utility.yul\":1121:1143   */\n      add\n        /* \"#utility.yul\":1100:1153   */\n      tag_288\n      jump\t// in\n    tag_369:\n        /* \"#utility.yul\":1090:1153   */\n      swap2\n      pop\n        /* \"#utility.yul\":1046:1163   */\n      pop\n        /* \"#utility.yul\":841:1170   */\n      swap3\n      swap2\n      pop\n      pop\n      jump\t// out\n        /* \"#utility.yul\":1176:1266   */\n    tag_289:\n        /* \"#utility.yul\":1210:1217   */\n      0x00\n        /* \"#utility.yul\":1253:1258   */\n      dup2\n        /* \"#utility.yul\":1246:1259   */\n      iszero\n        /* \"#utility.yul\":1239:1260   */\n      iszero\n        /* \"#utility.yul\":1228:1260   */\n      swap1\n      pop\n        /* \"#utility.yul\":1176:1266   */\n      swap2\n      swap1\n      pop\n      jump\t// out\n        /* \"#utility.yul\":1272:1381   */\n    tag_290:\n        /* \"#utility.yul\":1353:1374   */\n      tag_372\n        /* \"#utility.yul\":1368:1373   */\n      dup2\n        /* \"#utility.yul\":1353:1374   */\n      tag_289\n      jump\t// in\n    tag_372:\n        /* \"#utility.yul\":1348:1351   */\n      dup3\n        /* \"#utility.yul\":1341:1375   */\n      mstore\n        /* \"#utility.yul\":1272:1381   */\n      pop\n      pop\n      jump\t// out\n        /* \"#utility.yul\":1387:1597   */\n    tag_32:\n        /* \"#utility.yul\":1474:1478   */\n      0x00\n        /* \"#utility.yul\":1512:1514   */\n      0x20\n        /* \"#utility.yul\":1501:1510   */\n      dup3\n        /* \"#utility.yul\":1497:1515   */\n      add\n        /* \"#utility.yul\":1489:1515   */\n      swap1\n      pop\n        /* \"#utility.yul\":1525:1590   */\n      tag_374\n        /* \"#utility.yul\":1587:1588   */\n      0x00\n        /* \"#utility.yul\":1576:1585   */\n      dup4\n        /* \"#utility.yul\":1572:1589   */\n      add\n        /* \"#utility.yul\":1563:1569   */\n      dup5\n        /* \"#utility.yul\":1525:1590   */\n      tag_290\n      jump\t// in\n    tag_374:\n        /* \"#utility.yul\":1387:1597   */\n      swap3\n      swap2\n      pop\n      pop\n      jump\t// out\n        /* \"#utility.yul\":1603:1721   */\n    tag_291:\n        /* \"#utility.yul\":1690:1714   */\n      tag_376\n        /* \"#utility.yul\":1708:1713   */\n      dup2\n        /* \"#utility.yul\":1690:1714   */\n      tag_286\n      jump\t// in\n    tag_376:\n        /* \"#utility.yul\":1685:1688   */\n      dup3\n        /* \"#utility.yul\":1678:1715   */\n      mstore\n        /* \"#utility.yul\":1603:1721   */\n      pop\n      pop\n      jump\t// out\n        /* \"#utility.yul\":1727:1826   */\n    tag_292:\n        /* \"#utility.yul\":1779:1785   */\n      0x00\n        /* \"#utility.yul\":1813:1818   */\n      dup2\n        /* \"#utility.yul\":1807:1819   */\n      mload\n        /* \"#utility.yul\":1797:1819   */\n      swap1\n      pop\n        /* \"#utility.yul\":1727:1826   */\n      swap2\n      swap1\n      pop\n      jump\t// out\n        /* \"#utility.yul\":1832:2001   */\n    tag_293:\n        /* \"#utility.yul\":1916:1927   */\n      0x00\n        /* \"#utility.yul\":1950:1956   */\n      dup3\n        /* \"#utility.yul\":1945:1948   */\n      dup3\n        /* \"#utility.yul\":1938:1957   */\n      mstore\n        /* \"#utility.yul\":1990:1994   */\n      0x20\n        /* \"#utility.yul\":1985:1988   */\n      dup3\n        /* \"#utility.yul\":1981:1995   */\n      add\n        /* \"#utility.yul\":1966:1995   */\n      swap1\n      pop\n        /* \"#utility.yul\":1832:2001   */\n      swap3\n      swap2\n      pop\n      pop\n      jump\t// out\n        /* \"#utility.yul\":2007:2314   */\n    tag_294:\n        /* \"#utility.yul\":2075:2076   */\n      0x00\n        /* \"#utility.yul\":2085:2198   */\n    tag_380:\n        /* \"#utility.yul\":2099:2105   */\n      dup4\n        /* \"#utility.yul\":2096:2097   */\n      dup2\n        /* \"#utility.yul\":2093:2106   */\n      lt\n        /* \"#utility.yul\":2085:2198   */\n      iszero\n      tag_382\n      jumpi\n        /* \"#utility.yul\":2184:2185   */\n      dup1\n        /* \"#utility.yul\":2179:2182   */\n      dup3\n        /* \"#utility.yul\":2175:2186   */\n      add\n        /* \"#utility.yul\":2169:2187   */\n      mload\n        /* \"#utility.yul\":2165:2166   */\n      dup2\n        /* \"#utility.yul\":2160:2163   */\n      dup5\n        /* \"#utility.yul\":2156:2167   */\n      add\n        /* \"#utility.yul\":2149:2188   */\n      mstore\n        /* \"#utility.yul\":2121:2123   */\n      0x20\n        /* \"#utility.yul\":2118:2119   */\n      dup2\n        /* \"#utility.yul\":2114:2124   */\n      add\n        /* \"#utility.yul\":2109:2124   */\n      swap1\n      pop\n        /* \"#utility.yul\":2085:2198   */\n      jump(tag_380)\n    tag_382:\n        /* \"#utility.yul\":2216:2222   */\n      dup4\n        /* \"#utility.yul\":2213:2214   */\n      dup2\n        /* \"#utility.yul\":2210:2223   */\n      gt\n        /* \"#utility.yul\":2207:2308   */\n      iszero\n      tag_383\n      jumpi\n        /* \"#utility.yul\":2296:2297   */\n      0x00\n        /* \"#utility.yul\":2287:2293   */\n      dup5\n        /* \"#utility.yul\":2282:2285   */\n      dup5\n        /* \"#utility.yul\":2278:2294   */\n      add\n        /* \"#utility.yul\":2271:2298   */\n      mstore\n        /* \"#utility.yul\":2207:2308   */\n    tag_383:\n        /* \"#utility.yul\":2056:2314   */\n      pop\n        /* \"#utility.yul\":2007:2314   */\n      pop\n      pop\n      pop\n      jump\t// out\n        /* \"#utility.yul\":2320:2422   */\n    tag_295:\n        /* \"#utility.yul\":2361:2367   */\n      0x00\n        /* \"#utility.yul\":2412:2414   */\n      0x1f\n        /* \"#utility.yul\":2408:2415   */\n      not\n        /* \"#utility.yul\":2403:2405   */\n      0x1f\n        /* \"#utility.yul\":2396:2401   */\n      dup4\n        /* \"#utility.yul\":2392:2406   */\n      add\n        /* \"#utility.yul\":2388:2416   */\n      and\n        /* \"#utility.yul\":2378:2416   */\n      swap1\n      pop\n        /* \"#utility.yul\":2320:2422   */\n      swap2\n      swap1\n      pop\n      jump\t// out\n        /* \"#utility.yul\":2428:2792   */\n    tag_296:\n        /* \"#utility.yul\":2516:2519   */\n      0x00\n        /* \"#utility.yul\":2544:2583   */\n      tag_386\n        /* \"#utility.yul\":2577:2582   */\n      dup3\n        /* \"#utility.yul\":2544:2583   */\n      tag_292\n      jump\t// in\n    tag_386:\n        /* \"#utility.yul\":2599:2670   */\n      tag_387\n        /* \"#utility.yul\":2663:2669   */\n      dup2\n        /* \"#utility.yul\":2658:2661   */\n      dup6\n        /* \"#utility.yul\":2599:2670   */\n      tag_293\n      jump\t// in\n    tag_387:\n        /* \"#utility.yul\":2592:2670   */\n      swap4\n      pop\n        /* \"#utility.yul\":2679:2731   */\n      tag_388\n        /* \"#utility.yul\":2724:2730   */\n      dup2\n        /* \"#utility.yul\":2719:2722   */\n      dup6\n        /* \"#utility.yul\":2712:2716   */\n      0x20\n        /* \"#utility.yul\":2705:2710   */\n      dup7\n        /* \"#utility.yul\":2701:2717   */\n      add\n        /* \"#utility.yul\":2679:2731   */\n      tag_294\n      jump\t// in\n    tag_388:\n        /* \"#utility.yul\":2756:2785   */\n      tag_389\n        /* \"#utility.yul\":2778:2784   */\n      dup2\n        /* \"#utility.yul\":2756:2785   */\n      tag_295\n      jump\t// in\n    tag_389:\n        /* \"#utility.yul\":2751:2754   */\n      dup5\n        /* \"#utility.yul\":2747:2786   */\n      add\n        /* \"#utility.yul\":2740:2786   */\n      swap2\n      pop\n        /* \"#utility.yul\":2520:2792   */\n      pop\n        /* \"#utility.yul\":2428:2792   */\n      swap3\n      swap2\n      pop\n      pop\n      jump\t// out\n        /* \"#utility.yul\":2798:2912   */\n    tag_297:\n        /* \"#utility.yul\":2865:2871   */\n      0x00\n        /* \"#utility.yul\":2899:2904   */\n      dup2\n        /* \"#utility.yul\":2893:2905   */\n      mload\n        /* \"#utility.yul\":2883:2905   */\n      swap1\n      pop\n        /* \"#utility.yul\":2798:2912   */\n      swap2\n      swap1\n      pop\n      jump\t// out\n        /* \"#utility.yul\":2918:3102   */\n    tag_298:\n        /* \"#utility.yul\":3017:3028   */\n      0x00\n        /* \"#utility.yul\":3051:3057   */\n      dup3\n        /* \"#utility.yul\":3046:3049   */\n      dup3\n        /* \"#utility.yul\":3039:3058   */\n      mstore\n        /* \"#utility.yul\":3091:3095   */\n      0x20\n        /* \"#utility.yul\":3086:3089   */\n      dup3\n        /* \"#utility.yul\":3082:3096   */\n      add\n        /* \"#utility.yul\":3067:3096   */\n      swap1\n      pop\n        /* \"#utility.yul\":2918:3102   */\n      swap3\n      swap2\n      pop\n      pop\n      jump\t// out\n        /* \"#utility.yul\":3108:3240   */\n    tag_299:\n        /* \"#utility.yul\":3175:3179   */\n      0x00\n        /* \"#utility.yul\":3198:3201   */\n      dup2\n        /* \"#utility.yul\":3190:3201   */\n      swap1\n      pop\n        /* \"#utility.yul\":3228:3232   */\n      0x20\n        /* \"#utility.yul\":3223:3226   */\n      dup3\n        /* \"#utility.yul\":3219:3233   */\n      add\n        /* \"#utility.yul\":3211:3233   */\n      swap1\n      pop\n        /* \"#utility.yul\":3108:3240   */\n      swap2\n      swap1\n      pop\n      jump\t// out\n        /* \"#utility.yul\":3246:3354   */\n    tag_300:\n        /* \"#utility.yul\":3323:3347   */\n      tag_394\n        /* \"#utility.yul\":3341:3346   */\n      dup2\n        /* \"#utility.yul\":3323:3347   */\n      tag_286\n      jump\t// in\n    tag_394:\n        /* \"#utility.yul\":3318:3321   */\n      dup3\n        /* \"#utility.yul\":3311:3348   */\n      mstore\n        /* \"#utility.yul\":3246:3354   */\n      pop\n      pop\n      jump\t// out\n        /* \"#utility.yul\":3360:3539   */\n    tag_301:\n        /* \"#utility.yul\":3429:3439   */\n      0x00\n        /* \"#utility.yul\":3450:3496   */\n      tag_396\n        /* \"#utility.yul\":3492:3495   */\n      dup4\n        /* \"#utility.yul\":3484:3490   */\n      dup4\n        /* \"#utility.yul\":3450:3496   */\n      tag_300\n      jump\t// in\n    tag_396:\n        /* \"#utility.yul\":3528:3532   */\n      0x20\n        /* \"#utility.yul\":3523:3526   */\n      dup4\n        /* \"#utility.yul\":3519:3533   */\n      add\n        /* \"#utility.yul\":3505:3533   */\n      swap1\n      pop\n        /* \"#utility.yul\":3360:3539   */\n      swap3\n      swap2\n      pop\n      pop\n      jump\t// out\n        /* \"#utility.yul\":3545:3658   */\n    tag_302:\n        /* \"#utility.yul\":3615:3619   */\n      0x00\n        /* \"#utility.yul\":3647:3651   */\n      0x20\n        /* \"#utility.yul\":3642:3645   */\n      dup3\n        /* \"#utility.yul\":3638:3652   */\n      add\n        /* \"#utility.yul\":3630:3652   */\n      swap1\n      pop\n        /* \"#utility.yul\":3545:3658   */\n      swap2\n      swap1\n      pop\n      jump\t// out\n        /* \"#utility.yul\":3694:4426   */\n    tag_303:\n        /* \"#utility.yul\":3813:3816   */\n      0x00\n        /* \"#utility.yul\":3842:3896   */\n      tag_399\n        /* \"#utility.yul\":3890:3895   */\n      dup3\n        /* \"#utility.yul\":3842:3896   */\n      tag_297\n      jump\t// in\n    tag_399:\n        /* \"#utility.yul\":3912:3998   */\n      tag_400\n        /* \"#utility.yul\":3991:3997   */\n      dup2\n        /* \"#utility.yul\":3986:3989   */\n      dup6\n        /* \"#utility.yul\":3912:3998   */\n      tag_298\n      jump\t// in\n    tag_400:\n        /* \"#utility.yul\":3905:3998   */\n      swap4\n      pop\n        /* \"#utility.yul\":4022:4078   */\n      tag_401\n        /* \"#utility.yul\":4072:4077   */\n      dup4\n        /* \"#utility.yul\":4022:4078   */\n      tag_299\n      jump\t// in\n    tag_401:\n        /* \"#utility.yul\":4101:4108   */\n      dup1\n        /* \"#utility.yul\":4132:4133   */\n      0x00\n        /* \"#utility.yul\":4117:4401   */\n    tag_402:\n        /* \"#utility.yul\":4142:4148   */\n      dup4\n        /* \"#utility.yul\":4139:4140   */\n      dup2\n        /* \"#utility.yul\":4136:4149   */\n      lt\n        /* \"#utility.yul\":4117:4401   */\n      iszero\n      tag_404\n      jumpi\n        /* \"#utility.yul\":4218:4224   */\n      dup2\n        /* \"#utility.yul\":4212:4225   */\n      mload\n        /* \"#utility.yul\":4245:4308   */\n      tag_405\n        /* \"#utility.yul\":4304:4307   */\n      dup9\n        /* \"#utility.yul\":4289:4302   */\n      dup3\n        /* \"#utility.yul\":4245:4308   */\n      tag_301\n      jump\t// in\n    tag_405:\n        /* \"#utility.yul\":4238:4308   */\n      swap8\n      pop\n        /* \"#utility.yul\":4331:4391   */\n      tag_406\n        /* \"#utility.yul\":4384:4390   */\n      dup4\n        /* \"#utility.yul\":4331:4391   */\n      tag_302\n      jump\t// in\n    tag_406:\n        /* \"#utility.yul\":4321:4391   */\n      swap3\n      pop\n        /* \"#utility.yul\":4177:4401   */\n      pop\n        /* \"#utility.yul\":4164:4165   */\n      0x01\n        /* \"#utility.yul\":4161:4162   */\n      dup2\n        /* \"#utility.yul\":4157:4166   */\n      add\n        /* \"#utility.yul\":4152:4166   */\n      swap1\n      pop\n        /* \"#utility.yul\":4117:4401   */\n      jump(tag_402)\n    tag_404:\n        /* \"#utility.yul\":4121:4135   */\n      pop\n        /* \"#utility.yul\":4417:4420   */\n      dup6\n        /* \"#utility.yul\":4410:4420   */\n      swap4\n      pop\n        /* \"#utility.yul\":3818:4426   */\n      pop\n      pop\n      pop\n        /* \"#utility.yul\":3694:4426   */\n      swap3\n      swap2\n      pop\n      pop\n      jump\t// out\n        /* \"#utility.yul\":4432:4509   */\n    tag_304:\n        /* \"#utility.yul\":4469:4476   */\n      0x00\n        /* \"#utility.yul\":4498:4503   */\n      dup2\n        /* \"#utility.yul\":4487:4503   */\n      swap1\n      pop\n        /* \"#utility.yul\":4432:4509   */\n      swap2\n      swap1\n      pop\n      jump\t// out\n        /* \"#utility.yul\":4515:4633   */\n    tag_305:\n        /* \"#utility.yul\":4602:4626   */\n      tag_409\n        /* \"#utility.yul\":4620:4625   */\n      dup2\n        /* \"#utility.yul\":4602:4626   */\n      tag_304\n      jump\t// in\n    tag_409:\n        /* \"#utility.yul\":4597:4600   */\n      dup3\n        /* \"#utility.yul\":4590:4627   */\n      mstore\n        /* \"#utility.yul\":4515:4633   */\n      pop\n      pop\n      jump\t// out\n        /* \"#utility.yul\":4639:6625   */\n    tag_37:\n        /* \"#utility.yul\":5187:5191   */\n      0x00\n        /* \"#utility.yul\":5225:5228   */\n      0x0160\n        /* \"#utility.yul\":5214:5223   */\n      dup3\n        /* \"#utility.yul\":5210:5229   */\n      add\n        /* \"#utility.yul\":5202:5229   */\n      swap1\n      pop\n        /* \"#utility.yul\":5239:5310   */\n      tag_411\n        /* \"#utility.yul\":5307:5308   */\n      0x00\n        /* \"#utility.yul\":5296:5305   */\n      dup4\n        /* \"#utility.yul\":5292:5309   */\n      add\n        /* \"#utility.yul\":5283:5289   */\n      dup15\n        /* \"#utility.yul\":5239:5310   */\n      tag_291\n      jump\t// in\n    tag_411:\n        /* \"#utility.yul\":5357:5366   */\n      dup2\n        /* \"#utility.yul\":5351:5355   */\n      dup2\n        /* \"#utility.yul\":5347:5367   */\n      sub\n        /* \"#utility.yul\":5342:5344   */\n      0x20\n        /* \"#utility.yul\":5331:5340   */\n      dup4\n        /* \"#utility.yul\":5327:5345   */\n      add\n        /* \"#utility.yul\":5320:5368   */\n      mstore\n        /* \"#utility.yul\":5385:5463   */\n      tag_412\n        /* \"#utility.yul\":5458:5462   */\n      dup2\n        /* \"#utility.yul\":5449:5455   */\n      dup14\n        /* \"#utility.yul\":5385:5463   */\n      tag_296\n      jump\t// in\n    tag_412:\n        /* \"#utility.yul\":5377:5463   */\n      swap1\n      pop\n        /* \"#utility.yul\":5510:5519   */\n      dup2\n        /* \"#utility.yul\":5504:5508   */\n      dup2\n        /* \"#utility.yul\":5500:5520   */\n      sub\n        /* \"#utility.yul\":5495:5497   */\n      0x40\n        /* \"#utility.yul\":5484:5493   */\n      dup4\n        /* \"#utility.yul\":5480:5498   */\n      add\n        /* \"#utility.yul\":5473:5521   */\n      mstore\n        /* \"#utility.yul\":5538:5616   */\n      tag_413\n        /* \"#utility.yul\":5611:5615   */\n      dup2\n        /* \"#utility.yul\":5602:5608   */\n      dup13\n        /* \"#utility.yul\":5538:5616   */\n      tag_296\n      jump\t// in\n    tag_413:\n        /* \"#utility.yul\":5530:5616   */\n      swap1\n      pop\n        /* \"#utility.yul\":5663:5672   */\n      dup2\n        /* \"#utility.yul\":5657:5661   */\n      dup2\n        /* \"#utility.yul\":5653:5673   */\n      sub\n        /* \"#utility.yul\":5648:5650   */\n      0x60\n        /* \"#utility.yul\":5637:5646   */\n      dup4\n        /* \"#utility.yul\":5633:5651   */\n      add\n        /* \"#utility.yul\":5626:5674   */\n      mstore\n        /* \"#utility.yul\":5691:5769   */\n      tag_414\n        /* \"#utility.yul\":5764:5768   */\n      dup2\n        /* \"#utility.yul\":5755:5761   */\n      dup12\n        /* \"#utility.yul\":5691:5769   */\n      tag_296\n      jump\t// in\n    tag_414:\n        /* \"#utility.yul\":5683:5769   */\n      swap1\n      pop\n        /* \"#utility.yul\":5817:5826   */\n      dup2\n        /* \"#utility.yul\":5811:5815   */\n      dup2\n        /* \"#utility.yul\":5807:5827   */\n      sub\n        /* \"#utility.yul\":5801:5804   */\n      0x80\n        /* \"#utility.yul\":5790:5799   */\n      dup4\n        /* \"#utility.yul\":5786:5805   */\n      add\n        /* \"#utility.yul\":5779:5828   */\n      mstore\n        /* \"#utility.yul\":5845:5953   */\n      tag_415\n        /* \"#utility.yul\":5948:5952   */\n      dup2\n        /* \"#utility.yul\":5939:5945   */\n      dup11\n        /* \"#utility.yul\":5845:5953   */\n      tag_303\n      jump\t// in\n    tag_415:\n        /* \"#utility.yul\":5837:5953   */\n      swap1\n      pop\n        /* \"#utility.yul\":6001:6010   */\n      dup2\n        /* \"#utility.yul\":5995:5999   */\n      dup2\n        /* \"#utility.yul\":5991:6011   */\n      sub\n        /* \"#utility.yul\":5985:5988   */\n      0xa0\n        /* \"#utility.yul\":5974:5983   */\n      dup4\n        /* \"#utility.yul\":5970:5989   */\n      add\n        /* \"#utility.yul\":5963:6012   */\n      mstore\n        /* \"#utility.yul\":6029:6137   */\n      tag_416\n        /* \"#utility.yul\":6132:6136   */\n      dup2\n        /* \"#utility.yul\":6123:6129   */\n      dup10\n        /* \"#utility.yul\":6029:6137   */\n      tag_303\n      jump\t// in\n    tag_416:\n        /* \"#utility.yul\":6021:6137   */\n      swap1\n      pop\n        /* \"#utility.yul\":6147:6220   */\n      tag_417\n        /* \"#utility.yul\":6215:6218   */\n      0xc0\n        /* \"#utility.yul\":6204:6213   */\n      dup4\n        /* \"#utility.yul\":6200:6219   */\n      add\n        /* \"#utility.yul\":6191:6197   */\n      dup9\n        /* \"#utility.yul\":6147:6220   */\n      tag_305\n      jump\t// in\n    tag_417:\n        /* \"#utility.yul\":6230:6303   */\n      tag_418\n        /* \"#utility.yul\":6298:6301   */\n      0xe0\n        /* \"#utility.yul\":6287:6296   */\n      dup4\n        /* \"#utility.yul\":6283:6302   */\n      add\n        /* \"#utility.yul\":6274:6280   */\n      dup8\n        /* \"#utility.yul\":6230:6303   */\n      tag_305\n      jump\t// in\n    tag_418:\n        /* \"#utility.yul\":6313:6380   */\n      tag_419\n        /* \"#utility.yul\":6375:6378   */\n      0x0100\n        /* \"#utility.yul\":6364:6373   */\n      dup4\n        /* \"#utility.yul\":6360:6379   */\n      add\n        /* \"#utility.yul\":6351:6357   */\n      dup7\n        /* \"#utility.yul\":6313:6380   */\n      tag_290\n      jump\t// in\n    tag_419:\n        /* \"#utility.yul\":6390:6463   */\n      tag_420\n        /* \"#utility.yul\":6458:6461   */\n      0x0120\n        /* \"#utility.yul\":6447:6456   */\n      dup4\n        /* \"#utility.yul\":6443:6462   */\n      add\n        /* \"#utility.yul\":6434:6440   */\n      dup6\n        /* \"#utility.yul\":6390:6463   */\n      tag_305\n      jump\t// in\n    tag_420:\n        /* \"#utility.yul\":6511:6520   */\n      dup2\n        /* \"#utility.yul\":6505:6509   */\n      dup2\n        /* \"#utility.yul\":6501:6521   */\n      sub\n        /* \"#utility.yul\":6495:6498   */\n      0x0140\n        /* \"#utility.yul\":6484:6493   */\n      dup4\n        /* \"#utility.yul\":6480:6499   */\n      add\n        /* \"#utility.yul\":6473:6522   */\n      mstore\n        /* \"#utility.yul\":6539:6618   */\n      tag_421\n        /* \"#utility.yul\":6613:6617   */\n      dup2\n        /* \"#utility.yul\":6603:6610   */\n      dup5\n        /* \"#utility.yul\":6539:6618   */\n      tag_296\n      jump\t// in\n    tag_421:\n        /* \"#utility.yul\":6531:6618   */\n      swap1\n      pop\n        /* \"#utility.yul\":4639:6625   */\n      swap13\n      swap12\n      pop\n      pop\n      pop\n      pop\n      pop\n      pop\n      pop\n      pop\n      pop\n      pop\n      pop\n      pop\n      jump\t// out\n        /* \"#utility.yul\":6631:6753   */\n    tag_306:\n        /* \"#utility.yul\":6704:6728   */\n      tag_423\n        /* \"#utility.yul\":6722:6727   */\n      dup2\n        /* \"#utility.yul\":6704:6728   */\n      tag_304\n      jump\t// in\n    tag_423:\n        /* \"#utility.yul\":6697:6702   */\n      dup2\n        /* \"#utility.yul\":6694:6729   */\n      eq\n        /* \"#utility.yul\":6684:6747   */\n      tag_424\n      jumpi\n        /* \"#utility.yul\":6743:6744   */\n      0x00\n        /* \"#utility.yul\":6740:6741   */\n      dup1\n        /* \"#utility.yul\":6733:6745   */\n      revert\n        /* \"#utility.yul\":6684:6747   */\n    tag_424:\n        /* \"#utility.yul\":6631:6753   */\n      pop\n      jump\t// out\n        /* \"#utility.yul\":6759:6898   */\n    tag_307:\n        /* \"#utility.yul\":6805:6810   */\n      0x00\n        /* \"#utility.yul\":6843:6849   */\n      dup2\n        /* \"#utility.yul\":6830:6850   */\n      calldataload\n        /* \"#utility.yul\":6821:6850   */\n      swap1\n      pop\n        /* \"#utility.yul\":6859:6892   */\n      tag_426\n        /* \"#utility.yul\":6886:6891   */\n      dup2\n        /* \"#utility.yul\":6859:6892   */\n      tag_306\n      jump\t// in\n    tag_426:\n        /* \"#utility.yul\":6759:6898   */\n      swap3\n      swap2\n      pop\n      pop\n      jump\t// out\n        /* \"#utility.yul\":6904:7233   */\n    tag_49:\n        /* \"#utility.yul\":6963:6969   */\n      0x00\n        /* \"#utility.yul\":7012:7014   */\n      0x20\n        /* \"#utility.yul\":7000:7009   */\n      dup3\n        /* \"#utility.yul\":6991:6998   */\n      dup5\n        /* \"#utility.yul\":6987:7010   */\n      sub\n        /* \"#utility.yul\":6983:7015   */\n      slt\n        /* \"#utility.yul\":6980:7099   */\n      iszero\n      tag_428\n      jumpi\n        /* \"#utility.yul\":7018:7097   */\n      tag_429\n      tag_283\n      jump\t// in\n    tag_429:\n        /* \"#utility.yul\":6980:7099   */\n    tag_428:\n        /* \"#utility.yul\":7138:7139   */\n      0x00\n        /* \"#utility.yul\":7163:7216   */\n      tag_430\n        /* \"#utility.yul\":7208:7215   */\n      dup5\n        /* \"#utility.yul\":7199:7205   */\n      dup3\n        /* \"#utility.yul\":7188:7197   */\n      dup6\n        /* \"#utility.yul\":7184:7206   */\n      add\n        /* \"#utility.yul\":7163:7216   */\n      tag_307\n      jump\t// in\n    tag_430:\n        /* \"#utility.yul\":7153:7216   */\n      swap2\n      pop\n        /* \"#utility.yul\":7109:7226   */\n      pop\n        /* \"#utility.yul\":6904:7233   */\n      swap3\n      swap2\n      pop\n      pop\n      jump\t// out\n        /* \"#utility.yul\":7239:7982   */\n    tag_52:\n        /* \"#utility.yul\":7458:7462   */\n      0x00\n        /* \"#utility.yul\":7496:7499   */\n      0xa0\n        /* \"#utility.yul\":7485:7494   */\n      dup3\n        /* \"#utility.yul\":7481:7500   */\n      add\n        /* \"#utility.yul\":7473:7500   */\n      swap1\n      pop\n        /* \"#utility.yul\":7546:7555   */\n      dup2\n        /* \"#utility.yul\":7540:7544   */\n      dup2\n        /* \"#utility.yul\":7536:7556   */\n      sub\n        /* \"#utility.yul\":7532:7533   */\n      0x00\n        /* \"#utility.yul\":7521:7530   */\n      dup4\n        /* \"#utility.yul\":7517:7534   */\n      add\n        /* \"#utility.yul\":7510:7557   */\n      mstore\n        /* \"#utility.yul\":7574:7652   */\n      tag_432\n        /* \"#utility.yul\":7647:7651   */\n      dup2\n        /* \"#utility.yul\":7638:7644   */\n      dup9\n        /* \"#utility.yul\":7574:7652   */\n      tag_296\n      jump\t// in\n    tag_432:\n        /* \"#utility.yul\":7566:7652   */\n      swap1\n      pop\n        /* \"#utility.yul\":7662:7734   */\n      tag_433\n        /* \"#utility.yul\":7730:7732   */\n      0x20\n        /* \"#utility.yul\":7719:7728   */\n      dup4\n        /* \"#utility.yul\":7715:7733   */\n      add\n        /* \"#utility.yul\":7706:7712   */\n      dup8\n        /* \"#utility.yul\":7662:7734   */\n      tag_305\n      jump\t// in\n    tag_433:\n        /* \"#utility.yul\":7744:7816   */\n      tag_434\n        /* \"#utility.yul\":7812:7814   */\n      0x40\n        /* \"#utility.yul\":7801:7810   */\n      dup4\n        /* \"#utility.yul\":7797:7815   */\n      add\n        /* \"#utility.yul\":7788:7794   */\n      dup7\n        /* \"#utility.yul\":7744:7816   */\n      tag_291\n      jump\t// in\n    tag_434:\n        /* \"#utility.yul\":7826:7898   */\n      tag_435\n        /* \"#utility.yul\":7894:7896   */\n      0x60\n        /* \"#utility.yul\":7883:7892   */\n      dup4\n        /* \"#utility.yul\":7879:7897   */\n      add\n        /* \"#utility.yul\":7870:7876   */\n      dup6\n        /* \"#utility.yul\":7826:7898   */\n      tag_305\n      jump\t// in\n    tag_435:\n        /* \"#utility.yul\":7908:7975   */\n      tag_436\n        /* \"#utility.yul\":7970:7973   */\n      0x80\n        /* \"#utility.yul\":7959:7968   */\n      dup4\n        /* \"#utility.yul\":7955:7974   */\n      add\n        /* \"#utility.yul\":7946:7952   */\n      dup5\n        /* \"#utility.yul\":7908:7975   */\n      tag_290\n      jump\t// in\n    tag_436:\n        /* \"#utility.yul\":7239:7982   */\n      swap7\n      swap6\n      pop\n      pop\n      pop\n      pop\n      pop\n      pop\n      jump\t// out\n        /* \"#utility.yul\":7988:8105   */\n    tag_308:\n        /* \"#utility.yul\":8097:8098   */\n      0x00\n        /* \"#utility.yul\":8094:8095   */\n      dup1\n        /* \"#utility.yul\":8087:8099   */\n      revert\n        /* \"#utility.yul\":8111:8228   */\n    tag_309:\n        /* \"#utility.yul\":8220:8221   */\n      0x00\n        /* \"#utility.yul\":8217:8218   */\n      dup1\n        /* \"#utility.yul\":8210:8222   */\n      revert\n        /* \"#utility.yul\":8234:8414   */\n    tag_310:\n        /* \"#utility.yul\":8282:8359   */\n      0x4e487b7100000000000000000000000000000000000000000000000000000000\n        /* \"#utility.yul\":8279:8280   */\n      0x00\n        /* \"#utility.yul\":8272:8360   */\n      mstore\n        /* \"#utility.yul\":8379:8383   */\n      0x41\n        /* \"#utility.yul\":8376:8377   */\n      0x04\n        /* \"#utility.yul\":8369:8384   */\n      mstore\n        /* \"#utility.yul\":8403:8407   */\n      0x24\n        /* \"#utility.yul\":8400:8401   */\n      0x00\n        /* \"#utility.yul\":8393:8408   */\n      revert\n        /* \"#utility.yul\":8420:8701   */\n    tag_311:\n        /* \"#utility.yul\":8503:8530   */\n      tag_441\n        /* \"#utility.yul\":8525:8529   */\n      dup3\n        /* \"#utility.yul\":8503:8530   */\n      tag_295\n      jump\t// in\n    tag_441:\n        /* \"#utility.yul\":8495:8501   */\n      dup2\n        /* \"#utility.yul\":8491:8531   */\n      add\n        /* \"#utility.yul\":8633:8639   */\n      dup2\n        /* \"#utility.yul\":8621:8631   */\n      dup2\n        /* \"#utility.yul\":8618:8640   */\n      lt\n        /* \"#utility.yul\":8597:8615   */\n      0xffffffffffffffff\n        /* \"#utility.yul\":8585:8595   */\n      dup3\n        /* \"#utility.yul\":8582:8616   */\n      gt\n        /* \"#utility.yul\":8579:8641   */\n      or\n        /* \"#utility.yul\":8576:8664   */\n      iszero\n      tag_442\n      jumpi\n        /* \"#utility.yul\":8644:8662   */\n      tag_443\n      tag_310\n      jump\t// in\n    tag_443:\n        /* \"#utility.yul\":8576:8664   */\n    tag_442:\n        /* \"#utility.yul\":8684:8694   */\n      dup1\n        /* \"#utility.yul\":8680:8682   */\n      0x40\n        /* \"#utility.yul\":8673:8695   */\n      mstore\n        /* \"#utility.yul\":8463:8701   */\n      pop\n        /* \"#utility.yul\":8420:8701   */\n      pop\n      pop\n      jump\t// out\n        /* \"#utility.yul\":8707:8836   */\n    tag_312:\n        /* \"#utility.yul\":8741:8747   */\n      0x00\n        /* \"#utility.yul\":8768:8788   */\n      tag_445\n      tag_282\n      jump\t// in\n    tag_445:\n        /* \"#utility.yul\":8758:8788   */\n      swap1\n      pop\n        /* \"#utility.yul\":8797:8830   */\n      tag_446\n        /* \"#utility.yul\":8825:8829   */\n      dup3\n        /* \"#utility.yul\":8817:8823   */\n      dup3\n        /* \"#utility.yul\":8797:8830   */\n      tag_311\n      jump\t// in\n    tag_446:\n        /* \"#utility.yul\":8707:8836   */\n      swap2\n      swap1\n      pop\n      jump\t// out\n        /* \"#utility.yul\":8842:9150   */\n    tag_313:\n        /* \"#utility.yul\":8904:8908   */\n      0x00\n        /* \"#utility.yul\":8994:9012   */\n      0xffffffffffffffff\n        /* \"#utility.yul\":8986:8992   */\n      dup3\n        /* \"#utility.yul\":8983:9013   */\n      gt\n        /* \"#utility.yul\":8980:9036   */\n      iszero\n      tag_448\n      jumpi\n        /* \"#utility.yul\":9016:9034   */\n      tag_449\n      tag_310\n      jump\t// in\n    tag_449:\n        /* \"#utility.yul\":8980:9036   */\n    tag_448:\n        /* \"#utility.yul\":9054:9083   */\n      tag_450\n        /* \"#utility.yul\":9076:9082   */\n      dup3\n        /* \"#utility.yul\":9054:9083   */\n      tag_295\n      jump\t// in\n    tag_450:\n        /* \"#utility.yul\":9046:9083   */\n      swap1\n      pop\n        /* \"#utility.yul\":9138:9142   */\n      0x20\n        /* \"#utility.yul\":9132:9136   */\n      dup2\n        /* \"#utility.yul\":9128:9143   */\n      add\n        /* \"#utility.yul\":9120:9143   */\n      swap1\n      pop\n        /* \"#utility.yul\":8842:9150   */\n      swap2\n      swap1\n      pop\n      jump\t// out\n        /* \"#utility.yul\":9156:9310   */\n    tag_314:\n        /* \"#utility.yul\":9240:9246   */\n      dup3\n        /* \"#utility.yul\":9235:9238   */\n      dup2\n        /* \"#utility.yul\":9230:9233   */\n      dup4\n        /* \"#utility.yul\":9217:9247   */\n      calldatacopy\n        /* \"#utility.yul\":9302:9303   */\n      0x00\n        /* \"#utility.yul\":9293:9299   */\n      dup4\n        /* \"#utility.yul\":9288:9291   */\n      dup4\n        /* \"#utility.yul\":9284:9300   */\n      add\n        /* \"#utility.yul\":9277:9304   */\n      mstore\n        /* \"#utility.yul\":9156:9310   */\n      pop\n      pop\n      pop\n      jump\t// out\n        /* \"#utility.yul\":9316:9728   */\n    tag_315:\n        /* \"#utility.yul\":9394:9399   */\n      0x00\n        /* \"#utility.yul\":9419:9485   */\n      tag_453\n        /* \"#utility.yul\":9435:9484   */\n      tag_454\n        /* \"#utility.yul\":9477:9483   */\n      dup5\n        /* \"#utility.yul\":9435:9484   */\n      tag_313\n      jump\t// in\n    tag_454:\n        /* \"#utility.yul\":9419:9485   */\n      tag_312\n      jump\t// in\n    tag_453:\n        /* \"#utility.yul\":9410:9485   */\n      swap1\n      pop\n        /* \"#utility.yul\":9508:9514   */\n      dup3\n        /* \"#utility.yul\":9501:9506   */\n      dup2\n        /* \"#utility.yul\":9494:9515   */\n      mstore\n        /* \"#utility.yul\":9546:9550   */\n      0x20\n        /* \"#utility.yul\":9539:9544   */\n      dup2\n        /* \"#utility.yul\":9535:9551   */\n      add\n        /* \"#utility.yul\":9584:9587   */\n      dup5\n        /* \"#utility.yul\":9575:9581   */\n      dup5\n        /* \"#utility.yul\":9570:9573   */\n      dup5\n        /* \"#utility.yul\":9566:9582   */\n      add\n        /* \"#utility.yul\":9563:9588   */\n      gt\n        /* \"#utility.yul\":9560:9672   */\n      iszero\n      tag_455\n      jumpi\n        /* \"#utility.yul\":9591:9670   */\n      tag_456\n      tag_309\n      jump\t// in\n    tag_456:\n        /* \"#utility.yul\":9560:9672   */\n    tag_455:\n        /* \"#utility.yul\":9681:9722   */\n      tag_457\n        /* \"#utility.yul\":9715:9721   */\n      dup5\n        /* \"#utility.yul\":9710:9713   */\n      dup3\n        /* \"#utility.yul\":9705:9708   */\n      dup6\n        /* \"#utility.yul\":9681:9722   */\n      tag_314\n      jump\t// in\n    tag_457:\n        /* \"#utility.yul\":9400:9728   */\n      pop\n        /* \"#utility.yul\":9316:9728   */\n      swap4\n      swap3\n      pop\n      pop\n      pop\n      jump\t// out\n        /* \"#utility.yul\":9748:10088   */\n    tag_316:\n        /* \"#utility.yul\":9804:9809   */\n      0x00\n        /* \"#utility.yul\":9853:9856   */\n      dup3\n        /* \"#utility.yul\":9846:9850   */\n      0x1f\n        /* \"#utility.yul\":9838:9844   */\n      dup4\n        /* \"#utility.yul\":9834:9851   */\n      add\n        /* \"#utility.yul\":9830:9857   */\n      slt\n        /* \"#utility.yul\":9820:9942   */\n      tag_459\n      jumpi\n        /* \"#utility.yul\":9861:9940   */\n      tag_460\n      tag_308\n      jump\t// in\n    tag_460:\n        /* \"#utility.yul\":9820:9942   */\n    tag_459:\n        /* \"#utility.yul\":9978:9984   */\n      dup2\n        /* \"#utility.yul\":9965:9985   */\n      calldataload\n        /* \"#utility.yul\":10003:10082   */\n      tag_461\n        /* \"#utility.yul\":10078:10081   */\n      dup5\n        /* \"#utility.yul\":10070:10076   */\n      dup3\n        /* \"#utility.yul\":10063:10067   */\n      0x20\n        /* \"#utility.yul\":10055:10061   */\n      dup7\n        /* \"#utility.yul\":10051:10068   */\n      add\n        /* \"#utility.yul\":10003:10082   */\n      tag_315\n      jump\t// in\n    tag_461:\n        /* \"#utility.yul\":9994:10082   */\n      swap2\n      pop\n        /* \"#utility.yul\":9810:10088   */\n      pop\n        /* \"#utility.yul\":9748:10088   */\n      swap3\n      swap2\n      pop\n      pop\n      jump\t// out\n        /* \"#utility.yul\":10094:11219   */\n    tag_65:\n        /* \"#utility.yul\":10200:10206   */\n      0x00\n        /* \"#utility.yul\":10208:10214   */\n      dup1\n        /* \"#utility.yul\":10216:10222   */\n      0x00\n        /* \"#utility.yul\":10224:10230   */\n      dup1\n        /* \"#utility.yul\":10273:10276   */\n      0x80\n        /* \"#utility.yul\":10261:10270   */\n      dup6\n        /* \"#utility.yul\":10252:10259   */\n      dup8\n        /* \"#utility.yul\":10248:10271   */\n      sub\n        /* \"#utility.yul\":10244:10277   */\n      slt\n        /* \"#utility.yul\":10241:10361   */\n      iszero\n      tag_463\n      jumpi\n        /* \"#utility.yul\":10280:10359   */\n      tag_464\n      tag_283\n      jump\t// in\n    tag_464:\n        /* \"#utility.yul\":10241:10361   */\n    tag_463:\n        /* \"#utility.yul\":10428:10429   */\n      0x00\n        /* \"#utility.yul\":10417:10426   */\n      dup6\n        /* \"#utility.yul\":10413:10430   */\n      add\n        /* \"#utility.yul\":10400:10431   */\n      calldataload\n        /* \"#utility.yul\":10458:10476   */\n      0xffffffffffffffff\n        /* \"#utility.yul\":10450:10456   */\n      dup2\n        /* \"#utility.yul\":10447:10477   */\n      gt\n        /* \"#utility.yul\":10444:10561   */\n      iszero\n      tag_465\n      jumpi\n        /* \"#utility.yul\":10480:10559   */\n      tag_466\n      tag_284\n      jump\t// in\n    tag_466:\n        /* \"#utility.yul\":10444:10561   */\n    tag_465:\n        /* \"#utility.yul\":10585:10648   */\n      tag_467\n        /* \"#utility.yul\":10640:10647   */\n      dup8\n        /* \"#utility.yul\":10631:10637   */\n      dup3\n        /* \"#utility.yul\":10620:10629   */\n      dup9\n        /* \"#utility.yul\":10616:10638   */\n      add\n        /* \"#utility.yul\":10585:10648   */\n      tag_316\n      jump\t// in\n    tag_467:\n        /* \"#utility.yul\":10575:10648   */\n      swap5\n      pop\n        /* \"#utility.yul\":10371:10658   */\n      pop\n        /* \"#utility.yul\":10725:10727   */\n      0x20\n        /* \"#utility.yul\":10714:10723   */\n      dup6\n        /* \"#utility.yul\":10710:10728   */\n      add\n        /* \"#utility.yul\":10697:10729   */\n      calldataload\n        /* \"#utility.yul\":10756:10774   */\n      0xffffffffffffffff\n        /* \"#utility.yul\":10748:10754   */\n      dup2\n        /* \"#utility.yul\":10745:10775   */\n      gt\n        /* \"#utility.yul\":10742:10859   */\n      iszero\n      tag_468\n      jumpi\n        /* \"#utility.yul\":10778:10857   */\n      tag_469\n      tag_284\n      jump\t// in\n    tag_469:\n        /* \"#utility.yul\":10742:10859   */\n    tag_468:\n        /* \"#utility.yul\":10883:10946   */\n      tag_470\n        /* \"#utility.yul\":10938:10945   */\n      dup8\n        /* \"#utility.yul\":10929:10935   */\n      dup3\n        /* \"#utility.yul\":10918:10927   */\n      dup9\n        /* \"#utility.yul\":10914:10936   */\n      add\n        /* \"#utility.yul\":10883:10946   */\n      tag_316\n      jump\t// in\n    tag_470:\n        /* \"#utility.yul\":10873:10946   */\n      swap4\n      pop\n        /* \"#utility.yul\":10668:10956   */\n      pop\n        /* \"#utility.yul\":10995:10997   */\n      0x40\n        /* \"#utility.yul\":11021:11074   */\n      tag_471\n        /* \"#utility.yul\":11066:11073   */\n      dup8\n        /* \"#utility.yul\":11057:11063   */\n      dup3\n        /* \"#utility.yul\":11046:11055   */\n      dup9\n        /* \"#utility.yul\":11042:11064   */\n      add\n        /* \"#utility.yul\":11021:11074   */\n      tag_288\n      jump\t// in\n    tag_471:\n        /* \"#utility.yul\":11011:11074   */\n      swap3\n      pop\n        /* \"#utility.yul\":10966:11084   */\n      pop\n        /* \"#utility.yul\":11123:11125   */\n      0x60\n        /* \"#utility.yul\":11149:11202   */\n      tag_472\n        /* \"#utility.yul\":11194:11201   */\n      dup8\n        /* \"#utility.yul\":11185:11191   */\n      dup3\n        /* \"#utility.yul\":11174:11183   */\n      dup9\n        /* \"#utility.yul\":11170:11192   */\n      add\n        /* \"#utility.yul\":11149:11202   */\n      tag_288\n      jump\t// in\n    tag_472:\n        /* \"#utility.yul\":11139:11202   */\n      swap2\n      pop\n        /* \"#utility.yul\":11094:11212   */\n      pop\n        /* \"#utility.yul\":10094:11219   */\n      swap3\n      swap6\n      swap2\n      swap5\n      pop\n      swap3\n      pop\n      jump\t// out\n        /* \"#utility.yul\":11225:11598   */\n    tag_71:\n        /* \"#utility.yul\":11368:11372   */\n      0x00\n        /* \"#utility.yul\":11406:11408   */\n      0x20\n        /* \"#utility.yul\":11395:11404   */\n      dup3\n        /* \"#utility.yul\":11391:11409   */\n      add\n        /* \"#utility.yul\":11383:11409   */\n      swap1\n      pop\n        /* \"#utility.yul\":11455:11464   */\n      dup2\n        /* \"#utility.yul\":11449:11453   */\n      dup2\n        /* \"#utility.yul\":11445:11465   */\n      sub\n        /* \"#utility.yul\":11441:11442   */\n      0x00\n        /* \"#utility.yul\":11430:11439   */\n      dup4\n        /* \"#utility.yul\":11426:11443   */\n      add\n        /* \"#utility.yul\":11419:11466   */\n      mstore\n        /* \"#utility.yul\":11483:11591   */\n      tag_474\n        /* \"#utility.yul\":11586:11590   */\n      dup2\n        /* \"#utility.yul\":11577:11583   */\n      dup5\n        /* \"#utility.yul\":11483:11591   */\n      tag_303\n      jump\t// in\n    tag_474:\n        /* \"#utility.yul\":11475:11591   */\n      swap1\n      pop\n        /* \"#utility.yul\":11225:11598   */\n      swap3\n      swap2\n      pop\n      pop\n      jump\t// out\n        /* \"#utility.yul\":11604:11826   */\n    tag_77:\n        /* \"#utility.yul\":11697:11701   */\n      0x00\n        /* \"#utility.yul\":11735:11737   */\n      0x20\n        /* \"#utility.yul\":11724:11733   */\n      dup3\n        /* \"#utility.yul\":11720:11738   */\n      add\n        /* \"#utility.yul\":11712:11738   */\n      swap1\n      pop\n        /* \"#utility.yul\":11748:11819   */\n      tag_476\n        /* \"#utility.yul\":11816:11817   */\n      0x00\n        /* \"#utility.yul\":11805:11814   */\n      dup4\n        /* \"#utility.yul\":11801:11818   */\n      add\n        /* \"#utility.yul\":11792:11798   */\n      dup5\n        /* \"#utility.yul\":11748:11819   */\n      tag_291\n      jump\t// in\n    tag_476:\n        /* \"#utility.yul\":11604:11826   */\n      swap3\n      swap2\n      pop\n      pop\n      jump\t// out\n        /* \"#utility.yul\":11832:12341   */\n    tag_88:\n        /* \"#utility.yul\":11901:11907   */\n      0x00\n        /* \"#utility.yul\":11950:11952   */\n      0x20\n        /* \"#utility.yul\":11938:11947   */\n      dup3\n        /* \"#utility.yul\":11929:11936   */\n      dup5\n        /* \"#utility.yul\":11925:11948   */\n      sub\n        /* \"#utility.yul\":11921:11953   */\n      slt\n        /* \"#utility.yul\":11918:12037   */\n      iszero\n      tag_478\n      jumpi\n        /* \"#utility.yul\":11956:12035   */\n      tag_479\n      tag_283\n      jump\t// in\n    tag_479:\n        /* \"#utility.yul\":11918:12037   */\n    tag_478:\n        /* \"#utility.yul\":12104:12105   */\n      0x00\n        /* \"#utility.yul\":12093:12102   */\n      dup3\n        /* \"#utility.yul\":12089:12106   */\n      add\n        /* \"#utility.yul\":12076:12107   */\n      calldataload\n        /* \"#utility.yul\":12134:12152   */\n      0xffffffffffffffff\n        /* \"#utility.yul\":12126:12132   */\n      dup2\n        /* \"#utility.yul\":12123:12153   */\n      gt\n        /* \"#utility.yul\":12120:12237   */\n      iszero\n      tag_480\n      jumpi\n        /* \"#utility.yul\":12156:12235   */\n      tag_481\n      tag_284\n      jump\t// in\n    tag_481:\n        /* \"#utility.yul\":12120:12237   */\n    tag_480:\n        /* \"#utility.yul\":12261:12324   */\n      tag_482\n        /* \"#utility.yul\":12316:12323   */\n      dup5\n        /* \"#utility.yul\":12307:12313   */\n      dup3\n        /* \"#utility.yul\":12296:12305   */\n      dup6\n        /* \"#utility.yul\":12292:12314   */\n      add\n        /* \"#utility.yul\":12261:12324   */\n      tag_316\n      jump\t// in\n    tag_482:\n        /* \"#utility.yul\":12251:12324   */\n      swap2\n      pop\n        /* \"#utility.yul\":12047:12334   */\n      pop\n        /* \"#utility.yul\":11832:12341   */\n      swap3\n      swap2\n      pop\n      pop\n      jump\t// out\n        /* \"#utility.yul\":12347:12511   */\n    tag_317:\n        /* \"#utility.yul\":12487:12503   */\n      0x5265656e7472616e742063616c6c000000000000000000000000000000000000\n        /* \"#utility.yul\":12483:12484   */\n      0x00\n        /* \"#utility.yul\":12475:12481   */\n      dup3\n        /* \"#utility.yul\":12471:12485   */\n      add\n        /* \"#utility.yul\":12464:12504   */\n      mstore\n        /* \"#utility.yul\":12347:12511   */\n      pop\n      jump\t// out\n        /* \"#utility.yul\":12517:12883   */\n    tag_318:\n        /* \"#utility.yul\":12659:12662   */\n      0x00\n        /* \"#utility.yul\":12680:12747   */\n      tag_485\n        /* \"#utility.yul\":12744:12746   */\n      0x0e\n        /* \"#utility.yul\":12739:12742   */\n      dup4\n        /* \"#utility.yul\":12680:12747   */\n      tag_293\n      jump\t// in\n    tag_485:\n        /* \"#utility.yul\":12673:12747   */\n      swap2\n      pop\n        /* \"#utility.yul\":12756:12849   */\n      tag_486\n        /* \"#utility.yul\":12845:12848   */\n      dup3\n        /* \"#utility.yul\":12756:12849   */\n      tag_317\n      jump\t// in\n    tag_486:\n        /* \"#utility.yul\":12874:12876   */\n      0x20\n        /* \"#utility.yul\":12869:12872   */\n      dup3\n        /* \"#utility.yul\":12865:12877   */\n      add\n        /* \"#utility.yul\":12858:12877   */\n      swap1\n      pop\n        /* \"#utility.yul\":12517:12883   */\n      swap2\n      swap1\n      pop\n      jump\t// out\n        /* \"#utility.yul\":12889:13308   */\n    tag_93:\n        /* \"#utility.yul\":13055:13059   */\n      0x00\n        /* \"#utility.yul\":13093:13095   */\n      0x20\n        /* \"#utility.yul\":13082:13091   */\n      dup3\n        /* \"#utility.yul\":13078:13096   */\n      add\n        /* \"#utility.yul\":13070:13096   */\n      swap1\n      pop\n        /* \"#utility.yul\":13142:13151   */\n      dup2\n        /* \"#utility.yul\":13136:13140   */\n      dup2\n        /* \"#utility.yul\":13132:13152   */\n      sub\n        /* \"#utility.yul\":13128:13129   */\n      0x00\n        /* \"#utility.yul\":13117:13126   */\n      dup4\n        /* \"#utility.yul\":13113:13130   */\n      add\n        /* \"#utility.yul\":13106:13153   */\n      mstore\n        /* \"#utility.yul\":13170:13301   */\n      tag_488\n        /* \"#utility.yul\":13296:13300   */\n      dup2\n        /* \"#utility.yul\":13170:13301   */\n      tag_318\n      jump\t// in\n    tag_488:\n        /* \"#utility.yul\":13162:13301   */\n      swap1\n      pop\n        /* \"#utility.yul\":12889:13308   */\n      swap2\n      swap1\n      pop\n      jump\t// out\n        /* \"#utility.yul\":13314:13492   */\n    tag_319:\n        /* \"#utility.yul\":13454:13484   */\n      0x546869732073746f727920686173206265656e207265706f7274656400000000\n        /* \"#utility.yul\":13450:13451   */\n      0x00\n        /* \"#utility.yul\":13442:13448   */\n      dup3\n        /* \"#utility.yul\":13438:13452   */\n      add\n        /* \"#utility.yul\":13431:13485   */\n      mstore\n        /* \"#utility.yul\":13314:13492   */\n      pop\n      jump\t// out\n        /* \"#utility.yul\":13498:13864   */\n    tag_320:\n        /* \"#utility.yul\":13640:13643   */\n      0x00\n        /* \"#utility.yul\":13661:13728   */\n      tag_491\n        /* \"#utility.yul\":13725:13727   */\n      0x1c\n        /* \"#utility.yul\":13720:13723   */\n      dup4\n        /* \"#utility.yul\":13661:13728   */\n      tag_293\n      jump\t// in\n    tag_491:\n        /* \"#utility.yul\":13654:13728   */\n      swap2\n      pop\n        /* \"#utility.yul\":13737:13830   */\n      tag_492\n        /* \"#utility.yul\":13826:13829   */\n      dup3\n        /* \"#utility.yul\":13737:13830   */\n      tag_319\n      jump\t// in\n    tag_492:\n        /* \"#utility.yul\":13855:13857   */\n      0x20\n        /* \"#utility.yul\":13850:13853   */\n      dup3\n        /* \"#utility.yul\":13846:13858   */\n      add\n        /* \"#utility.yul\":13839:13858   */\n      swap1\n      pop\n        /* \"#utility.yul\":13498:13864   */\n      swap2\n      swap1\n      pop\n      jump\t// out\n        /* \"#utility.yul\":13870:14289   */\n    tag_97:\n        /* \"#utility.yul\":14036:14040   */\n      0x00\n        /* \"#utility.yul\":14074:14076   */\n      0x20\n        /* \"#utility.yul\":14063:14072   */\n      dup3\n        /* \"#utility.yul\":14059:14077   */\n      add\n        /* \"#utility.yul\":14051:14077   */\n      swap1\n      pop\n        /* \"#utility.yul\":14123:14132   */\n      dup2\n        /* \"#utility.yul\":14117:14121   */\n      dup2\n        /* \"#utility.yul\":14113:14133   */\n      sub\n        /* \"#utility.yul\":14109:14110   */\n      0x00\n        /* \"#utility.yul\":14098:14107   */\n      dup4\n        /* \"#utility.yul\":14094:14111   */\n      add\n        /* \"#utility.yul\":14087:14134   */\n      mstore\n        /* \"#utility.yul\":14151:14282   */\n      tag_494\n        /* \"#utility.yul\":14277:14281   */\n      dup2\n        /* \"#utility.yul\":14151:14282   */\n      tag_320\n      jump\t// in\n    tag_494:\n        /* \"#utility.yul\":14143:14282   */\n      swap1\n      pop\n        /* \"#utility.yul\":13870:14289   */\n      swap2\n      swap1\n      pop\n      jump\t// out\n        /* \"#utility.yul\":14295:14517   */\n    tag_321:\n        /* \"#utility.yul\":14435:14469   */\n      0x596f752068617665207265706f7274656420746869732073746f727920626566\n        /* \"#utility.yul\":14431:14432   */\n      0x00\n        /* \"#utility.yul\":14423:14429   */\n      dup3\n        /* \"#utility.yul\":14419:14433   */\n      add\n        /* \"#utility.yul\":14412:14470   */\n      mstore\n        /* \"#utility.yul\":14504:14509   */\n      0x6f72650000000000000000000000000000000000000000000000000000000000\n        /* \"#utility.yul\":14499:14501   */\n      0x20\n        /* \"#utility.yul\":14491:14497   */\n      dup3\n        /* \"#utility.yul\":14487:14502   */\n      add\n        /* \"#utility.yul\":14480:14510   */\n      mstore\n        /* \"#utility.yul\":14295:14517   */\n      pop\n      jump\t// out\n        /* \"#utility.yul\":14523:14889   */\n    tag_322:\n        /* \"#utility.yul\":14665:14668   */\n      0x00\n        /* \"#utility.yul\":14686:14753   */\n      tag_497\n        /* \"#utility.yul\":14750:14752   */\n      0x23\n        /* \"#utility.yul\":14745:14748   */\n      dup4\n        /* \"#utility.yul\":14686:14753   */\n      tag_293\n      jump\t// in\n    tag_497:\n        /* \"#utility.yul\":14679:14753   */\n      swap2\n      pop\n        /* \"#utility.yul\":14762:14855   */\n      tag_498\n        /* \"#utility.yul\":14851:14854   */\n      dup3\n        /* \"#utility.yul\":14762:14855   */\n      tag_321\n      jump\t// in\n    tag_498:\n        /* \"#utility.yul\":14880:14882   */\n      0x40\n        /* \"#utility.yul\":14875:14878   */\n      dup3\n        /* \"#utility.yul\":14871:14883   */\n      add\n        /* \"#utility.yul\":14864:14883   */\n      swap1\n      pop\n        /* \"#utility.yul\":14523:14889   */\n      swap2\n      swap1\n      pop\n      jump\t// out\n        /* \"#utility.yul\":14895:15314   */\n    tag_100:\n        /* \"#utility.yul\":15061:15065   */\n      0x00\n        /* \"#utility.yul\":15099:15101   */\n      0x20\n        /* \"#utility.yul\":15088:15097   */\n      dup3\n        /* \"#utility.yul\":15084:15102   */\n      add\n        /* \"#utility.yul\":15076:15102   */\n      swap1\n      pop\n        /* \"#utility.yul\":15148:15157   */\n      dup2\n        /* \"#utility.yul\":15142:15146   */\n      dup2\n        /* \"#utility.yul\":15138:15158   */\n      sub\n        /* \"#utility.yul\":15134:15135   */\n      0x00\n        /* \"#utility.yul\":15123:15132   */\n      dup4\n        /* \"#utility.yul\":15119:15136   */\n      add\n        /* \"#utility.yul\":15112:15159   */\n      mstore\n        /* \"#utility.yul\":15176:15307   */\n      tag_500\n        /* \"#utility.yul\":15302:15306   */\n      dup2\n        /* \"#utility.yul\":15176:15307   */\n      tag_322\n      jump\t// in\n    tag_500:\n        /* \"#utility.yul\":15168:15307   */\n      swap1\n      pop\n        /* \"#utility.yul\":14895:15314   */\n      swap2\n      swap1\n      pop\n      jump\t// out\n        /* \"#utility.yul\":15320:15553   */\n    tag_323:\n        /* \"#utility.yul\":15460:15494   */\n      0x4f6e6c7920616e20617574686f72697a656420617574686f722063616e206469\n        /* \"#utility.yul\":15456:15457   */\n      0x00\n        /* \"#utility.yul\":15448:15454   */\n      dup3\n        /* \"#utility.yul\":15444:15458   */\n      add\n        /* \"#utility.yul\":15437:15495   */\n      mstore\n        /* \"#utility.yul\":15529:15545   */\n      0x7370656e73652072657761726473000000000000000000000000000000000000\n        /* \"#utility.yul\":15524:15526   */\n      0x20\n        /* \"#utility.yul\":15516:15522   */\n      dup3\n        /* \"#utility.yul\":15512:15527   */\n      add\n        /* \"#utility.yul\":15505:15546   */\n      mstore\n        /* \"#utility.yul\":15320:15553   */\n      pop\n      jump\t// out\n        /* \"#utility.yul\":15559:15925   */\n    tag_324:\n        /* \"#utility.yul\":15701:15704   */\n      0x00\n        /* \"#utility.yul\":15722:15789   */\n      tag_503\n        /* \"#utility.yul\":15786:15788   */\n      0x2e\n        /* \"#utility.yul\":15781:15784   */\n      dup4\n        /* \"#utility.yul\":15722:15789   */\n      tag_293\n      jump\t// in\n    tag_503:\n        /* \"#utility.yul\":15715:15789   */\n      swap2\n      pop\n        /* \"#utility.yul\":15798:15891   */\n      tag_504\n        /* \"#utility.yul\":15887:15890   */\n      dup3\n        /* \"#utility.yul\":15798:15891   */\n      tag_323\n      jump\t// in\n    tag_504:\n        /* \"#utility.yul\":15916:15918   */\n      0x40\n        /* \"#utility.yul\":15911:15914   */\n      dup3\n        /* \"#utility.yul\":15907:15919   */\n      add\n        /* \"#utility.yul\":15900:15919   */\n      swap1\n      pop\n        /* \"#utility.yul\":15559:15925   */\n      swap2\n      swap1\n      pop\n      jump\t// out\n        /* \"#utility.yul\":15931:16350   */\n    tag_110:\n        /* \"#utility.yul\":16097:16101   */\n      0x00\n        /* \"#utility.yul\":16135:16137   */\n      0x20\n        /* \"#utility.yul\":16124:16133   */\n      dup3\n        /* \"#utility.yul\":16120:16138   */\n      add\n        /* \"#utility.yul\":16112:16138   */\n      swap1\n      pop\n        /* \"#utility.yul\":16184:16193   */\n      dup2\n        /* \"#utility.yul\":16178:16182   */\n      dup2\n        /* \"#utility.yul\":16174:16194   */\n      sub\n        /* \"#utility.yul\":16170:16171   */\n      0x00\n        /* \"#utility.yul\":16159:16168   */\n      dup4\n        /* \"#utility.yul\":16155:16172   */\n      add\n        /* \"#utility.yul\":16148:16195   */\n      mstore\n        /* \"#utility.yul\":16212:16343   */\n      tag_506\n        /* \"#utility.yul\":16338:16342   */\n      dup2\n        /* \"#utility.yul\":16212:16343   */\n      tag_324\n      jump\t// in\n    tag_506:\n        /* \"#utility.yul\":16204:16343   */\n      swap1\n      pop\n        /* \"#utility.yul\":15931:16350   */\n      swap2\n      swap1\n      pop\n      jump\t// out\n        /* \"#utility.yul\":16356:16527   */\n    tag_325:\n        /* \"#utility.yul\":16496:16519   */\n      0x4e6f2072657761726420746f2064697370656e73650000000000000000000000\n        /* \"#utility.yul\":16492:16493   */\n      0x00\n        /* \"#utility.yul\":16484:16490   */\n      dup3\n        /* \"#utility.yul\":16480:16494   */\n      add\n        /* \"#utility.yul\":16473:16520   */\n      mstore\n        /* \"#utility.yul\":16356:16527   */\n      pop\n      jump\t// out\n        /* \"#utility.yul\":16533:16899   */\n    tag_326:\n        /* \"#utility.yul\":16675:16678   */\n      0x00\n        /* \"#utility.yul\":16696:16763   */\n      tag_509\n        /* \"#utility.yul\":16760:16762   */\n      0x15\n        /* \"#utility.yul\":16755:16758   */\n      dup4\n        /* \"#utility.yul\":16696:16763   */\n      tag_293\n      jump\t// in\n    tag_509:\n        /* \"#utility.yul\":16689:16763   */\n      swap2\n      pop\n        /* \"#utility.yul\":16772:16865   */\n      tag_510\n        /* \"#utility.yul\":16861:16864   */\n      dup3\n        /* \"#utility.yul\":16772:16865   */\n      tag_325\n      jump\t// in\n    tag_510:\n        /* \"#utility.yul\":16890:16892   */\n      0x20\n        /* \"#utility.yul\":16885:16888   */\n      dup3\n        /* \"#utility.yul\":16881:16893   */\n      add\n        /* \"#utility.yul\":16874:16893   */\n      swap1\n      pop\n        /* \"#utility.yul\":16533:16899   */\n      swap2\n      swap1\n      pop\n      jump\t// out\n        /* \"#utility.yul\":16905:17324   */\n    tag_115:\n        /* \"#utility.yul\":17071:17075   */\n      0x00\n        /* \"#utility.yul\":17109:17111   */\n      0x20\n        /* \"#utility.yul\":17098:17107   */\n      dup3\n        /* \"#utility.yul\":17094:17112   */\n      add\n        /* \"#utility.yul\":17086:17112   */\n      swap1\n      pop\n        /* \"#utility.yul\":17158:17167   */\n      dup2\n        /* \"#utility.yul\":17152:17156   */\n      dup2\n        /* \"#utility.yul\":17148:17168   */\n      sub\n        /* \"#utility.yul\":17144:17145   */\n      0x00\n        /* \"#utility.yul\":17133:17142   */\n      dup4\n        /* \"#utility.yul\":17129:17146   */\n      add\n        /* \"#utility.yul\":17122:17169   */\n      mstore\n        /* \"#utility.yul\":17186:17317   */\n      tag_512\n        /* \"#utility.yul\":17312:17316   */\n      dup2\n        /* \"#utility.yul\":17186:17317   */\n      tag_326\n      jump\t// in\n    tag_512:\n        /* \"#utility.yul\":17178:17317   */\n      swap1\n      pop\n        /* \"#utility.yul\":16905:17324   */\n      swap2\n      swap1\n      pop\n      jump\t// out\n        /* \"#utility.yul\":17330:17510   */\n    tag_121:\n        /* \"#utility.yul\":17378:17455   */\n      0x4e487b7100000000000000000000000000000000000000000000000000000000\n        /* \"#utility.yul\":17375:17376   */\n      0x00\n        /* \"#utility.yul\":17368:17456   */\n      mstore\n        /* \"#utility.yul\":17475:17479   */\n      0x32\n        /* \"#utility.yul\":17472:17473   */\n      0x04\n        /* \"#utility.yul\":17465:17480   */\n      mstore\n        /* \"#utility.yul\":17499:17503   */\n      0x24\n        /* \"#utility.yul\":17496:17497   */\n      0x00\n        /* \"#utility.yul\":17489:17504   */\n      revert\n        /* \"#utility.yul\":17516:17696   */\n    tag_327:\n        /* \"#utility.yul\":17564:17641   */\n      0x4e487b7100000000000000000000000000000000000000000000000000000000\n        /* \"#utility.yul\":17561:17562   */\n      0x00\n        /* \"#utility.yul\":17554:17642   */\n      mstore\n        /* \"#utility.yul\":17661:17665   */\n      0x11\n        /* \"#utility.yul\":17658:17659   */\n      0x04\n        /* \"#utility.yul\":17651:17666   */\n      mstore\n        /* \"#utility.yul\":17685:17689   */\n      0x24\n        /* \"#utility.yul\":17682:17683   */\n      0x00\n        /* \"#utility.yul\":17675:17690   */\n      revert\n        /* \"#utility.yul\":17702:17935   */\n    tag_126:\n        /* \"#utility.yul\":17741:17744   */\n      0x00\n        /* \"#utility.yul\":17764:17788   */\n      tag_516\n        /* \"#utility.yul\":17782:17787   */\n      dup3\n        /* \"#utility.yul\":17764:17788   */\n      tag_304\n      jump\t// in\n    tag_516:\n        /* \"#utility.yul\":17755:17788   */\n      swap2\n      pop\n        /* \"#utility.yul\":17810:17876   */\n      0xffffffffffffffffffffffffffffffffffffffffffffffffffffffffffffffff\n        /* \"#utility.yul\":17803:17808   */\n      dup3\n        /* \"#utility.yul\":17800:17877   */\n      eq\n        /* \"#utility.yul\":17797:17900   */\n      iszero\n      tag_517\n      jumpi\n        /* \"#utility.yul\":17880:17898   */\n      tag_518\n      tag_327\n      jump\t// in\n    tag_518:\n        /* \"#utility.yul\":17797:17900   */\n    tag_517:\n        /* \"#utility.yul\":17927:17928   */\n      0x01\n        /* \"#utility.yul\":17920:17925   */\n      dup3\n        /* \"#utility.yul\":17916:17929   */\n      add\n        /* \"#utility.yul\":17909:17929   */\n      swap1\n      pop\n        /* \"#utility.yul\":17702:17935   */\n      swap2\n      swap1\n      pop\n      jump\t// out\n        /* \"#utility.yul\":17941:18121   */\n    tag_328:\n        /* \"#utility.yul\":17989:18066   */\n      0x4e487b7100000000000000000000000000000000000000000000000000000000\n        /* \"#utility.yul\":17986:17987   */\n      0x00\n        /* \"#utility.yul\":17979:18067   */\n      mstore\n        /* \"#utility.yul\":18086:18090   */\n      0x22\n        /* \"#utility.yul\":18083:18084   */\n      0x04\n        /* \"#utility.yul\":18076:18091   */\n      mstore\n        /* \"#utility.yul\":18110:18114   */\n      0x24\n        /* \"#utility.yul\":18107:18108   */\n      0x00\n        /* \"#utility.yul\":18100:18115   */\n      revert\n        /* \"#utility.yul\":18127:18447   */\n    tag_129:\n        /* \"#utility.yul\":18171:18177   */\n      0x00\n        /* \"#utility.yul\":18208:18209   */\n      0x02\n        /* \"#utility.yul\":18202:18206   */\n      dup3\n        /* \"#utility.yul\":18198:18210   */\n      div\n        /* \"#utility.yul\":18188:18210   */\n      swap1\n      pop\n        /* \"#utility.yul\":18255:18256   */\n      0x01\n        /* \"#utility.yul\":18249:18253   */\n      dup3\n        /* \"#utility.yul\":18245:18257   */\n      and\n        /* \"#utility.yul\":18276:18294   */\n      dup1\n        /* \"#utility.yul\":18266:18347   */\n      tag_521\n      jumpi\n        /* \"#utility.yul\":18332:18336   */\n      0x7f\n        /* \"#utility.yul\":18324:18330   */\n      dup3\n        /* \"#utility.yul\":18320:18337   */\n      and\n        /* \"#utility.yul\":18310:18337   */\n      swap2\n      pop\n        /* \"#utility.yul\":18266:18347   */\n    tag_521:\n        /* \"#utility.yul\":18394:18396   */\n      0x20\n        /* \"#utility.yul\":18386:18392   */\n      dup3\n        /* \"#utility.yul\":18383:18397   */\n      lt\n        /* \"#utility.yul\":18363:18381   */\n      dup2\n        /* \"#utility.yul\":18360:18398   */\n      eq\n        /* \"#utility.yul\":18357:18441   */\n      iszero\n      tag_522\n      jumpi\n        /* \"#utility.yul\":18413:18431   */\n      tag_523\n      tag_328\n      jump\t// in\n    tag_523:\n        /* \"#utility.yul\":18357:18441   */\n    tag_522:\n        /* \"#utility.yul\":18178:18447   */\n      pop\n        /* \"#utility.yul\":18127:18447   */\n      swap2\n      swap1\n      pop\n      jump\t// out\n        /* \"#utility.yul\":18453:18685   */\n    tag_329:\n        /* \"#utility.yul\":18593:18627   */\n      0x4f6e6c7920616e20616363657074656420617574686f722063616e2061707072\n        /* \"#utility.yul\":18589:18590   */\n      0x00\n        /* \"#utility.yul\":18581:18587   */\n      dup3\n        /* \"#utility.yul\":18577:18591   */\n      add\n        /* \"#utility.yul\":18570:18628   */\n      mstore\n        /* \"#utility.yul\":18662:18677   */\n      0x6f76652061207265717565737400000000000000000000000000000000000000\n        /* \"#utility.yul\":18657:18659   */\n      0x20\n        /* \"#utility.yul\":18649:18655   */\n      dup3\n        /* \"#utility.yul\":18645:18660   */\n      add\n        /* \"#utility.yul\":18638:18678   */\n      mstore\n        /* \"#utility.yul\":18453:18685   */\n      pop\n      jump\t// out\n        /* \"#utility.yul\":18691:19057   */\n    tag_330:\n        /* \"#utility.yul\":18833:18836   */\n      0x00\n        /* \"#utility.yul\":18854:18921   */\n      tag_526\n        /* \"#utility.yul\":18918:18920   */\n      0x2d\n        /* \"#utility.yul\":18913:18916   */\n      dup4\n        /* \"#utility.yul\":18854:18921   */\n      tag_293\n      jump\t// in\n    tag_526:\n        /* \"#utility.yul\":18847:18921   */\n      swap2\n      pop\n        /* \"#utility.yul\":18930:19023   */\n      tag_527\n        /* \"#utility.yul\":19019:19022   */\n      dup3\n        /* \"#utility.yul\":18930:19023   */\n      tag_329\n      jump\t// in\n    tag_527:\n        /* \"#utility.yul\":19048:19050   */\n      0x40\n        /* \"#utility.yul\":19043:19046   */\n      dup3\n        /* \"#utility.yul\":19039:19051   */\n      add\n        /* \"#utility.yul\":19032:19051   */\n      swap1\n      pop\n        /* \"#utility.yul\":18691:19057   */\n      swap2\n      swap1\n      pop\n      jump\t// out\n        /* \"#utility.yul\":19063:19482   */\n    tag_169:\n        /* \"#utility.yul\":19229:19233   */\n      0x00\n        /* \"#utility.yul\":19267:19269   */\n      0x20\n        /* \"#utility.yul\":19256:19265   */\n      dup3\n        /* \"#utility.yul\":19252:19270   */\n      add\n        /* \"#utility.yul\":19244:19270   */\n      swap1\n      pop\n        /* \"#utility.yul\":19316:19325   */\n      dup2\n        /* \"#utility.yul\":19310:19314   */\n      dup2\n        /* \"#utility.yul\":19306:19326   */\n      sub\n        /* \"#utility.yul\":19302:19303   */\n      0x00\n        /* \"#utility.yul\":19291:19300   */\n      dup4\n        /* \"#utility.yul\":19287:19304   */\n      add\n        /* \"#utility.yul\":19280:19327   */\n      mstore\n        /* \"#utility.yul\":19344:19475   */\n      tag_529\n        /* \"#utility.yul\":19470:19474   */\n      dup2\n        /* \"#utility.yul\":19344:19475   */\n      tag_330\n      jump\t// in\n    tag_529:\n        /* \"#utility.yul\":19336:19475   */\n      swap1\n      pop\n        /* \"#utility.yul\":19063:19482   */\n      swap2\n      swap1\n      pop\n      jump\t// out\n        /* \"#utility.yul\":19488:19657   */\n    tag_331:\n        /* \"#utility.yul\":19628:19649   */\n      0x496e646578206f7574206f6620626f756e647300000000000000000000000000\n        /* \"#utility.yul\":19624:19625   */\n      0x00\n        /* \"#utility.yul\":19616:19622   */\n      dup3\n        /* \"#utility.yul\":19612:19626   */\n      add\n        /* \"#utility.yul\":19605:19650   */\n      mstore\n        /* \"#utility.yul\":19488:19657   */\n      pop\n      jump\t// out\n        /* \"#utility.yul\":19663:20029   */\n    tag_332:\n        /* \"#utility.yul\":19805:19808   */\n      0x00\n        /* \"#utility.yul\":19826:19893   */\n      tag_532\n        /* \"#utility.yul\":19890:19892   */\n      0x13\n        /* \"#utility.yul\":19885:19888   */\n      dup4\n        /* \"#utility.yul\":19826:19893   */\n      tag_293\n      jump\t// in\n    tag_532:\n        /* \"#utility.yul\":19819:19893   */\n      swap2\n      pop\n        /* \"#utility.yul\":19902:19995   */\n      tag_533\n        /* \"#utility.yul\":19991:19994   */\n      dup3\n        /* \"#utility.yul\":19902:19995   */\n      tag_331\n      jump\t// in\n    tag_533:\n        /* \"#utility.yul\":20020:20022   */\n      0x20\n        /* \"#utility.yul\":20015:20018   */\n      dup3\n        /* \"#utility.yul\":20011:20023   */\n      add\n        /* \"#utility.yul\":20004:20023   */\n      swap1\n      pop\n        /* \"#utility.yul\":19663:20029   */\n      swap2\n      swap1\n      pop\n      jump\t// out\n        /* \"#utility.yul\":20035:20454   */\n    tag_173:\n        /* \"#utility.yul\":20201:20205   */\n      0x00\n        /* \"#utility.yul\":20239:20241   */\n      0x20\n        /* \"#utility.yul\":20228:20237   */\n      dup3\n        /* \"#utility.yul\":20224:20242   */\n      add\n        /* \"#utility.yul\":20216:20242   */\n      swap1\n      pop\n        /* \"#utility.yul\":20288:20297   */\n      dup2\n        /* \"#utility.yul\":20282:20286   */\n      dup2\n        /* \"#utility.yul\":20278:20298   */\n      sub\n        /* \"#utility.yul\":20274:20275   */\n      0x00\n        /* \"#utility.yul\":20263:20272   */\n      dup4\n        /* \"#utility.yul\":20259:20276   */\n      add\n        /* \"#utility.yul\":20252:20299   */\n      mstore\n        /* \"#utility.yul\":20316:20447   */\n      tag_535\n        /* \"#utility.yul\":20442:20446   */\n      dup2\n        /* \"#utility.yul\":20316:20447   */\n      tag_332\n      jump\t// in\n    tag_535:\n        /* \"#utility.yul\":20308:20447   */\n      swap1\n      pop\n        /* \"#utility.yul\":20035:20454   */\n      swap2\n      swap1\n      pop\n      jump\t// out\n        /* \"#utility.yul\":20460:20682   */\n    tag_333:\n        /* \"#utility.yul\":20600:20634   */\n      0x5468697320617574686f7220616c726561647920617070726f76656420626566\n        /* \"#utility.yul\":20596:20597   */\n      0x00\n        /* \"#utility.yul\":20588:20594   */\n      dup3\n        /* \"#utility.yul\":20584:20598   */\n      add\n        /* \"#utility.yul\":20577:20635   */\n      mstore\n        /* \"#utility.yul\":20669:20674   */\n      0x6f72650000000000000000000000000000000000000000000000000000000000\n        /* \"#utility.yul\":20664:20666   */\n      0x20\n        /* \"#utility.yul\":20656:20662   */\n      dup3\n        /* \"#utility.yul\":20652:20667   */\n      add\n        /* \"#utility.yul\":20645:20675   */\n      mstore\n        /* \"#utility.yul\":20460:20682   */\n      pop\n      jump\t// out\n        /* \"#utility.yul\":20688:21054   */\n    tag_334:\n        /* \"#utility.yul\":20830:20833   */\n      0x00\n        /* \"#utility.yul\":20851:20918   */\n      tag_538\n        /* \"#utility.yul\":20915:20917   */\n      0x23\n        /* \"#utility.yul\":20910:20913   */\n      dup4\n        /* \"#utility.yul\":20851:20918   */\n      tag_293\n      jump\t// in\n    tag_538:\n        /* \"#utility.yul\":20844:20918   */\n      swap2\n      pop\n        /* \"#utility.yul\":20927:21020   */\n      tag_539\n        /* \"#utility.yul\":21016:21019   */\n      dup3\n        /* \"#utility.yul\":20927:21020   */\n      tag_333\n      jump\t// in\n    tag_539:\n        /* \"#utility.yul\":21045:21047   */\n      0x40\n        /* \"#utility.yul\":21040:21043   */\n      dup3\n        /* \"#utility.yul\":21036:21048   */\n      add\n        /* \"#utility.yul\":21029:21048   */\n      swap1\n      pop\n        /* \"#utility.yul\":20688:21054   */\n      swap2\n      swap1\n      pop\n      jump\t// out\n        /* \"#utility.yul\":21060:21479   */\n    tag_179:\n        /* \"#utility.yul\":21226:21230   */\n      0x00\n        /* \"#utility.yul\":21264:21266   */\n      0x20\n        /* \"#utility.yul\":21253:21262   */\n      dup3\n        /* \"#utility.yul\":21249:21267   */\n      add\n        /* \"#utility.yul\":21241:21267   */\n      swap1\n      pop\n        /* \"#utility.yul\":21313:21322   */\n      dup2\n        /* \"#utility.yul\":21307:21311   */\n      dup2\n        /* \"#utility.yul\":21303:21323   */\n      sub\n        /* \"#utility.yul\":21299:21300   */\n      0x00\n        /* \"#utility.yul\":21288:21297   */\n      dup4\n        /* \"#utility.yul\":21284:21301   */\n      add\n        /* \"#utility.yul\":21277:21324   */\n      mstore\n        /* \"#utility.yul\":21341:21472   */\n      tag_541\n        /* \"#utility.yul\":21467:21471   */\n      dup2\n        /* \"#utility.yul\":21341:21472   */\n      tag_334\n      jump\t// in\n    tag_541:\n        /* \"#utility.yul\":21333:21472   */\n      swap1\n      pop\n        /* \"#utility.yul\":21060:21479   */\n      swap2\n      swap1\n      pop\n      jump\t// out\n        /* \"#utility.yul\":21485:21665   */\n    tag_335:\n        /* \"#utility.yul\":21533:21610   */\n      0x4e487b7100000000000000000000000000000000000000000000000000000000\n        /* \"#utility.yul\":21530:21531   */\n      0x00\n        /* \"#utility.yul\":21523:21611   */\n      mstore\n        /* \"#utility.yul\":21630:21634   */\n      0x12\n        /* \"#utility.yul\":21627:21628   */\n      0x04\n        /* \"#utility.yul\":21620:21635   */\n      mstore\n        /* \"#utility.yul\":21654:21658   */\n      0x24\n        /* \"#utility.yul\":21651:21652   */\n      0x00\n        /* \"#utility.yul\":21644:21659   */\n      revert\n        /* \"#utility.yul\":21671:21856   */\n    tag_182:\n        /* \"#utility.yul\":21711:21712   */\n      0x00\n        /* \"#utility.yul\":21728:21748   */\n      tag_544\n        /* \"#utility.yul\":21746:21747   */\n      dup3\n        /* \"#utility.yul\":21728:21748   */\n      tag_304\n      jump\t// in\n    tag_544:\n        /* \"#utility.yul\":21723:21748   */\n      swap2\n      pop\n        /* \"#utility.yul\":21762:21782   */\n      tag_545\n        /* \"#utility.yul\":21780:21781   */\n      dup4\n        /* \"#utility.yul\":21762:21782   */\n      tag_304\n      jump\t// in\n    tag_545:\n        /* \"#utility.yul\":21757:21782   */\n      swap3\n      pop\n        /* \"#utility.yul\":21801:21802   */\n      dup3\n        /* \"#utility.yul\":21791:21826   */\n      tag_546\n      jumpi\n        /* \"#utility.yul\":21806:21824   */\n      tag_547\n      tag_335\n      jump\t// in\n    tag_547:\n        /* \"#utility.yul\":21791:21826   */\n    tag_546:\n        /* \"#utility.yul\":21848:21849   */\n      dup3\n        /* \"#utility.yul\":21845:21846   */\n      dup3\n        /* \"#utility.yul\":21841:21850   */\n      div\n        /* \"#utility.yul\":21836:21850   */\n      swap1\n      pop\n        /* \"#utility.yul\":21671:21856   */\n      swap3\n      swap2\n      pop\n      pop\n      jump\t// out\n        /* \"#utility.yul\":21862:22093   */\n    tag_336:\n        /* \"#utility.yul\":22002:22036   */\n      0x4f6e6c7920616e20616363657074656420617574686f722063616e2063726561\n        /* \"#utility.yul\":21998:21999   */\n      0x00\n        /* \"#utility.yul\":21990:21996   */\n      dup3\n        /* \"#utility.yul\":21986:22000   */\n      add\n        /* \"#utility.yul\":21979:22037   */\n      mstore\n        /* \"#utility.yul\":22071:22085   */\n      0x7465206120636861707465720000000000000000000000000000000000000000\n        /* \"#utility.yul\":22066:22068   */\n      0x20\n        /* \"#utility.yul\":22058:22064   */\n      dup3\n        /* \"#utility.yul\":22054:22069   */\n      add\n        /* \"#utility.yul\":22047:22086   */\n      mstore\n        /* \"#utility.yul\":21862:22093   */\n      pop\n      jump\t// out\n        /* \"#utility.yul\":22099:22465   */\n    tag_337:\n        /* \"#utility.yul\":22241:22244   */\n      0x00\n        /* \"#utility.yul\":22262:22329   */\n      tag_550\n        /* \"#utility.yul\":22326:22328   */\n      0x2c\n        /* \"#utility.yul\":22321:22324   */\n      dup4\n        /* \"#utility.yul\":22262:22329   */\n      tag_293\n      jump\t// in\n    tag_550:\n        /* \"#utility.yul\":22255:22329   */\n      swap2\n      pop\n        /* \"#utility.yul\":22338:22431   */\n      tag_551\n        /* \"#utility.yul\":22427:22430   */\n      dup3\n        /* \"#utility.yul\":22338:22431   */\n      tag_336\n      jump\t// in\n    tag_551:\n        /* \"#utility.yul\":22456:22458   */\n      0x40\n        /* \"#utility.yul\":22451:22454   */\n      dup3\n        /* \"#utility.yul\":22447:22459   */\n      add\n        /* \"#utility.yul\":22440:22459   */\n      swap1\n      pop\n        /* \"#utility.yul\":22099:22465   */\n      swap2\n      swap1\n      pop\n      jump\t// out\n        /* \"#utility.yul\":22471:22890   */\n    tag_193:\n        /* \"#utility.yul\":22637:22641   */\n      0x00\n        /* \"#utility.yul\":22675:22677   */\n      0x20\n        /* \"#utility.yul\":22664:22673   */\n      dup3\n        /* \"#utility.yul\":22660:22678   */\n      add\n        /* \"#utility.yul\":22652:22678   */\n      swap1\n      pop\n        /* \"#utility.yul\":22724:22733   */\n      dup2\n        /* \"#utility.yul\":22718:22722   */\n      dup2\n        /* \"#utility.yul\":22714:22734   */\n      sub\n        /* \"#utility.yul\":22710:22711   */\n      0x00\n        /* \"#utility.yul\":22699:22708   */\n      dup4\n        /* \"#utility.yul\":22695:22712   */\n      add\n        /* \"#utility.yul\":22688:22735   */\n      mstore\n        /* \"#utility.yul\":22752:22883   */\n      tag_553\n        /* \"#utility.yul\":22878:22882   */\n      dup2\n        /* \"#utility.yul\":22752:22883   */\n      tag_337\n      jump\t// in\n    tag_553:\n        /* \"#utility.yul\":22744:22883   */\n      swap1\n      pop\n        /* \"#utility.yul\":22471:22890   */\n      swap2\n      swap1\n      pop\n      jump\t// out\n        /* \"#utility.yul\":22896:23116   */\n    tag_338:\n        /* \"#utility.yul\":23036:23070   */\n      0x506172656e742063686170746572206d757374206265206120636f6e74726163\n        /* \"#utility.yul\":23032:23033   */\n      0x00\n        /* \"#utility.yul\":23024:23030   */\n      dup3\n        /* \"#utility.yul\":23020:23034   */\n      add\n        /* \"#utility.yul\":23013:23071   */\n      mstore\n        /* \"#utility.yul\":23105:23108   */\n      0x7400000000000000000000000000000000000000000000000000000000000000\n        /* \"#utility.yul\":23100:23102   */\n      0x20\n        /* \"#utility.yul\":23092:23098   */\n      dup3\n        /* \"#utility.yul\":23088:23103   */\n      add\n        /* \"#utility.yul\":23081:23109   */\n      mstore\n        /* \"#utility.yul\":22896:23116   */\n      pop\n      jump\t// out\n        /* \"#utility.yul\":23122:23488   */\n    tag_339:\n        /* \"#utility.yul\":23264:23267   */\n      0x00\n        /* \"#utility.yul\":23285:23352   */\n      tag_556\n        /* \"#utility.yul\":23349:23351   */\n      0x21\n        /* \"#utility.yul\":23344:23347   */\n      dup4\n        /* \"#utility.yul\":23285:23352   */\n      tag_293\n      jump\t// in\n    tag_556:\n        /* \"#utility.yul\":23278:23352   */\n      swap2\n      pop\n        /* \"#utility.yul\":23361:23454   */\n      tag_557\n        /* \"#utility.yul\":23450:23453   */\n      dup3\n        /* \"#utility.yul\":23361:23454   */\n      tag_338\n      jump\t// in\n    tag_557:\n        /* \"#utility.yul\":23479:23481   */\n      0x40\n        /* \"#utility.yul\":23474:23477   */\n      dup3\n        /* \"#utility.yul\":23470:23482   */\n      add\n        /* \"#utility.yul\":23463:23482   */\n      swap1\n      pop\n        /* \"#utility.yul\":23122:23488   */\n      swap2\n      swap1\n      pop\n      jump\t// out\n        /* \"#utility.yul\":23494:23913   */\n    tag_198:\n        /* \"#utility.yul\":23660:23664   */\n      0x00\n        /* \"#utility.yul\":23698:23700   */\n      0x20\n        /* \"#utility.yul\":23687:23696   */\n      dup3\n        /* \"#utility.yul\":23683:23701   */\n      add\n        /* \"#utility.yul\":23675:23701   */\n      swap1\n      pop\n        /* \"#utility.yul\":23747:23756   */\n      dup2\n        /* \"#utility.yul\":23741:23745   */\n      dup2\n        /* \"#utility.yul\":23737:23757   */\n      sub\n        /* \"#utility.yul\":23733:23734   */\n      0x00\n        /* \"#utility.yul\":23722:23731   */\n      dup4\n        /* \"#utility.yul\":23718:23735   */\n      add\n        /* \"#utility.yul\":23711:23758   */\n      mstore\n        /* \"#utility.yul\":23775:23906   */\n      tag_559\n        /* \"#utility.yul\":23901:23905   */\n      dup2\n        /* \"#utility.yul\":23775:23906   */\n      tag_339\n      jump\t// in\n    tag_559:\n        /* \"#utility.yul\":23767:23906   */\n      swap1\n      pop\n        /* \"#utility.yul\":23494:23913   */\n      swap2\n      swap1\n      pop\n      jump\t// out\n        /* \"#utility.yul\":23919:24101   */\n    tag_340:\n        /* \"#utility.yul\":24059:24093   */\n      0x4368696c642063686170746572206d757374206265206120636f6e7472616374\n        /* \"#utility.yul\":24055:24056   */\n      0x00\n        /* \"#utility.yul\":24047:24053   */\n      dup3\n        /* \"#utility.yul\":24043:24057   */\n      add\n        /* \"#utility.yul\":24036:24094   */\n      mstore\n        /* \"#utility.yul\":23919:24101   */\n      pop\n      jump\t// out\n        /* \"#utility.yul\":24107:24473   */\n    tag_341:\n        /* \"#utility.yul\":24249:24252   */\n      0x00\n        /* \"#utility.yul\":24270:24337   */\n      tag_562\n        /* \"#utility.yul\":24334:24336   */\n      0x20\n        /* \"#utility.yul\":24329:24332   */\n      dup4\n        /* \"#utility.yul\":24270:24337   */\n      tag_293\n      jump\t// in\n    tag_562:\n        /* \"#utility.yul\":24263:24337   */\n      swap2\n      pop\n        /* \"#utility.yul\":24346:24439   */\n      tag_563\n        /* \"#utility.yul\":24435:24438   */\n      dup3\n        /* \"#utility.yul\":24346:24439   */\n      tag_340\n      jump\t// in\n    tag_563:\n        /* \"#utility.yul\":24464:24466   */\n      0x20\n        /* \"#utility.yul\":24459:24462   */\n      dup3\n        /* \"#utility.yul\":24455:24467   */\n      add\n        /* \"#utility.yul\":24448:24467   */\n      swap1\n      pop\n        /* \"#utility.yul\":24107:24473   */\n      swap2\n      swap1\n      pop\n      jump\t// out\n        /* \"#utility.yul\":24479:24898   */\n    tag_202:\n        /* \"#utility.yul\":24645:24649   */\n      0x00\n        /* \"#utility.yul\":24683:24685   */\n      0x20\n        /* \"#utility.yul\":24672:24681   */\n      dup3\n        /* \"#utility.yul\":24668:24686   */\n      add\n        /* \"#utility.yul\":24660:24686   */\n      swap1\n      pop\n        /* \"#utility.yul\":24732:24741   */\n      dup2\n        /* \"#utility.yul\":24726:24730   */\n      dup2\n        /* \"#utility.yul\":24722:24742   */\n      sub\n        /* \"#utility.yul\":24718:24719   */\n      0x00\n        /* \"#utility.yul\":24707:24716   */\n      dup4\n        /* \"#utility.yul\":24703:24720   */\n      add\n        /* \"#utility.yul\":24696:24743   */\n      mstore\n        /* \"#utility.yul\":24760:24891   */\n      tag_565\n        /* \"#utility.yul\":24886:24890   */\n      dup2\n        /* \"#utility.yul\":24760:24891   */\n      tag_341\n      jump\t// in\n    tag_565:\n        /* \"#utility.yul\":24752:24891   */\n      swap1\n      pop\n        /* \"#utility.yul\":24479:24898   */\n      swap2\n      swap1\n      pop\n      jump\t// out\n        /* \"#utility.yul\":24904:25135   */\n    tag_342:\n        /* \"#utility.yul\":25044:25078   */\n      0x506172656e742063686170746572206d7573742062656c6f6e6720746f207468\n        /* \"#utility.yul\":25040:25041   */\n      0x00\n        /* \"#utility.yul\":25032:25038   */\n      dup3\n        /* \"#utility.yul\":25028:25042   */\n      add\n        /* \"#utility.yul\":25021:25079   */\n      mstore\n        /* \"#utility.yul\":25113:25127   */\n      0x652073616d652073746f72790000000000000000000000000000000000000000\n        /* \"#utility.yul\":25108:25110   */\n      0x20\n        /* \"#utility.yul\":25100:25106   */\n      dup3\n        /* \"#utility.yul\":25096:25111   */\n      add\n        /* \"#utility.yul\":25089:25128   */\n      mstore\n        /* \"#utility.yul\":24904:25135   */\n      pop\n      jump\t// out\n        /* \"#utility.yul\":25141:25507   */\n    tag_343:\n        /* \"#utility.yul\":25283:25286   */\n      0x00\n        /* \"#utility.yul\":25304:25371   */\n      tag_568\n        /* \"#utility.yul\":25368:25370   */\n      0x2c\n        /* \"#utility.yul\":25363:25366   */\n      dup4\n        /* \"#utility.yul\":25304:25371   */\n      tag_293\n      jump\t// in\n    tag_568:\n        /* \"#utility.yul\":25297:25371   */\n      swap2\n      pop\n        /* \"#utility.yul\":25380:25473   */\n      tag_569\n        /* \"#utility.yul\":25469:25472   */\n      dup3\n        /* \"#utility.yul\":25380:25473   */\n      tag_342\n      jump\t// in\n    tag_569:\n        /* \"#utility.yul\":25498:25500   */\n      0x40\n        /* \"#utility.yul\":25493:25496   */\n      dup3\n        /* \"#utility.yul\":25489:25501   */\n      add\n        /* \"#utility.yul\":25482:25501   */\n      swap1\n      pop\n        /* \"#utility.yul\":25141:25507   */\n      swap2\n      swap1\n      pop\n      jump\t// out\n        /* \"#utility.yul\":25513:25932   */\n    tag_207:\n        /* \"#utility.yul\":25679:25683   */\n      0x00\n        /* \"#utility.yul\":25717:25719   */\n      0x20\n        /* \"#utility.yul\":25706:25715   */\n      dup3\n        /* \"#utility.yul\":25702:25720   */\n      add\n        /* \"#utility.yul\":25694:25720   */\n      swap1\n      pop\n        /* \"#utility.yul\":25766:25775   */\n      dup2\n        /* \"#utility.yul\":25760:25764   */\n      dup2\n        /* \"#utility.yul\":25756:25776   */\n      sub\n        /* \"#utility.yul\":25752:25753   */\n      0x00\n        /* \"#utility.yul\":25741:25750   */\n      dup4\n        /* \"#utility.yul\":25737:25754   */\n      add\n        /* \"#utility.yul\":25730:25777   */\n      mstore\n        /* \"#utility.yul\":25794:25925   */\n      tag_571\n        /* \"#utility.yul\":25920:25924   */\n      dup2\n        /* \"#utility.yul\":25794:25925   */\n      tag_343\n      jump\t// in\n    tag_571:\n        /* \"#utility.yul\":25786:25925   */\n      swap1\n      pop\n        /* \"#utility.yul\":25513:25932   */\n      swap2\n      swap1\n      pop\n      jump\t// out\n        /* \"#utility.yul\":25938:26168   */\n    tag_344:\n        /* \"#utility.yul\":26078:26112   */\n      0x4368696c642063686170746572206d7573742062656c6f6e6720746f20746865\n        /* \"#utility.yul\":26074:26075   */\n      0x00\n        /* \"#utility.yul\":26066:26072   */\n      dup3\n        /* \"#utility.yul\":26062:26076   */\n      add\n        /* \"#utility.yul\":26055:26113   */\n      mstore\n        /* \"#utility.yul\":26147:26160   */\n      0x2073616d652073746f7279000000000000000000000000000000000000000000\n        /* \"#utility.yul\":26142:26144   */\n      0x20\n        /* \"#utility.yul\":26134:26140   */\n      dup3\n        /* \"#utility.yul\":26130:26145   */\n      add\n        /* \"#utility.yul\":26123:26161   */\n      mstore\n        /* \"#utility.yul\":25938:26168   */\n      pop\n      jump\t// out\n        /* \"#utility.yul\":26174:26540   */\n    tag_345:\n        /* \"#utility.yul\":26316:26319   */\n      0x00\n        /* \"#utility.yul\":26337:26404   */\n      tag_574\n        /* \"#utility.yul\":26401:26403   */\n      0x2b\n        /* \"#utility.yul\":26396:26399   */\n      dup4\n        /* \"#utility.yul\":26337:26404   */\n      tag_293\n      jump\t// in\n    tag_574:\n        /* \"#utility.yul\":26330:26404   */\n      swap2\n      pop\n        /* \"#utility.yul\":26413:26506   */\n      tag_575\n        /* \"#utility.yul\":26502:26505   */\n      dup3\n        /* \"#utility.yul\":26413:26506   */\n      tag_344\n      jump\t// in\n    tag_575:\n        /* \"#utility.yul\":26531:26533   */\n      0x40\n        /* \"#utility.yul\":26526:26529   */\n      dup3\n        /* \"#utility.yul\":26522:26534   */\n      add\n        /* \"#utility.yul\":26515:26534   */\n      swap1\n      pop\n        /* \"#utility.yul\":26174:26540   */\n      swap2\n      swap1\n      pop\n      jump\t// out\n        /* \"#utility.yul\":26546:26965   */\n    tag_212:\n        /* \"#utility.yul\":26712:26716   */\n      0x00\n        /* \"#utility.yul\":26750:26752   */\n      0x20\n        /* \"#utility.yul\":26739:26748   */\n      dup3\n        /* \"#utility.yul\":26735:26753   */\n      add\n        /* \"#utility.yul\":26727:26753   */\n      swap1\n      pop\n        /* \"#utility.yul\":26799:26808   */\n      dup2\n        /* \"#utility.yul\":26793:26797   */\n      dup2\n        /* \"#utility.yul\":26789:26809   */\n      sub\n        /* \"#utility.yul\":26785:26786   */\n      0x00\n        /* \"#utility.yul\":26774:26783   */\n      dup4\n        /* \"#utility.yul\":26770:26787   */\n      add\n        /* \"#utility.yul\":26763:26810   */\n      mstore\n        /* \"#utility.yul\":26827:26958   */\n      tag_577\n        /* \"#utility.yul\":26953:26957   */\n      dup2\n        /* \"#utility.yul\":26827:26958   */\n      tag_345\n      jump\t// in\n    tag_577:\n        /* \"#utility.yul\":26819:26958   */\n      swap1\n      pop\n        /* \"#utility.yul\":26546:26965   */\n      swap2\n      swap1\n      pop\n      jump\t// out\n        /* \"#utility.yul\":26971:27928   */\n    tag_216:\n        /* \"#utility.yul\":27244:27248   */\n      0x00\n        /* \"#utility.yul\":27282:27285   */\n      0xc0\n        /* \"#utility.yul\":27271:27280   */\n      dup3\n        /* \"#utility.yul\":27267:27286   */\n      add\n        /* \"#utility.yul\":27259:27286   */\n      swap1\n      pop\n        /* \"#utility.yul\":27296:27367   */\n      tag_579\n        /* \"#utility.yul\":27364:27365   */\n      0x00\n        /* \"#utility.yul\":27353:27362   */\n      dup4\n        /* \"#utility.yul\":27349:27366   */\n      add\n        /* \"#utility.yul\":27340:27346   */\n      dup10\n        /* \"#utility.yul\":27296:27367   */\n      tag_291\n      jump\t// in\n    tag_579:\n        /* \"#utility.yul\":27377:27449   */\n      tag_580\n        /* \"#utility.yul\":27445:27447   */\n      0x20\n        /* \"#utility.yul\":27434:27443   */\n      dup4\n        /* \"#utility.yul\":27430:27448   */\n      add\n        /* \"#utility.yul\":27421:27427   */\n      dup9\n        /* \"#utility.yul\":27377:27449   */\n      tag_291\n      jump\t// in\n    tag_580:\n        /* \"#utility.yul\":27496:27505   */\n      dup2\n        /* \"#utility.yul\":27490:27494   */\n      dup2\n        /* \"#utility.yul\":27486:27506   */\n      sub\n        /* \"#utility.yul\":27481:27483   */\n      0x40\n        /* \"#utility.yul\":27470:27479   */\n      dup4\n        /* \"#utility.yul\":27466:27484   */\n      add\n        /* \"#utility.yul\":27459:27507   */\n      mstore\n        /* \"#utility.yul\":27524:27602   */\n      tag_581\n        /* \"#utility.yul\":27597:27601   */\n      dup2\n        /* \"#utility.yul\":27588:27594   */\n      dup8\n        /* \"#utility.yul\":27524:27602   */\n      tag_296\n      jump\t// in\n    tag_581:\n        /* \"#utility.yul\":27516:27602   */\n      swap1\n      pop\n        /* \"#utility.yul\":27649:27658   */\n      dup2\n        /* \"#utility.yul\":27643:27647   */\n      dup2\n        /* \"#utility.yul\":27639:27659   */\n      sub\n        /* \"#utility.yul\":27634:27636   */\n      0x60\n        /* \"#utility.yul\":27623:27632   */\n      dup4\n        /* \"#utility.yul\":27619:27637   */\n      add\n        /* \"#utility.yul\":27612:27660   */\n      mstore\n        /* \"#utility.yul\":27677:27755   */\n      tag_582\n        /* \"#utility.yul\":27750:27754   */\n      dup2\n        /* \"#utility.yul\":27741:27747   */\n      dup7\n        /* \"#utility.yul\":27677:27755   */\n      tag_296\n      jump\t// in\n    tag_582:\n        /* \"#utility.yul\":27669:27755   */\n      swap1\n      pop\n        /* \"#utility.yul\":27765:27838   */\n      tag_583\n        /* \"#utility.yul\":27833:27836   */\n      0x80\n        /* \"#utility.yul\":27822:27831   */\n      dup4\n        /* \"#utility.yul\":27818:27837   */\n      add\n        /* \"#utility.yul\":27809:27815   */\n      dup6\n        /* \"#utility.yul\":27765:27838   */\n      tag_291\n      jump\t// in\n    tag_583:\n        /* \"#utility.yul\":27848:27921   */\n      tag_584\n        /* \"#utility.yul\":27916:27919   */\n      0xa0\n        /* \"#utility.yul\":27905:27914   */\n      dup4\n        /* \"#utility.yul\":27901:27920   */\n      add\n        /* \"#utility.yul\":27892:27898   */\n      dup5\n        /* \"#utility.yul\":27848:27921   */\n      tag_291\n      jump\t// in\n    tag_584:\n        /* \"#utility.yul\":26971:27928   */\n      swap8\n      swap7\n      pop\n      pop\n      pop\n      pop\n      pop\n      pop\n      pop\n      jump\t// out\n        /* \"#utility.yul\":27934:28115   */\n    tag_346:\n        /* \"#utility.yul\":28074:28107   */\n      0x4d696e696d756d20636f6e747269627574696f6e206973203130302057656900\n        /* \"#utility.yul\":28070:28071   */\n      0x00\n        /* \"#utility.yul\":28062:28068   */\n      dup3\n        /* \"#utility.yul\":28058:28072   */\n      add\n        /* \"#utility.yul\":28051:28108   */\n      mstore\n        /* \"#utility.yul\":27934:28115   */\n      pop\n      jump\t// out\n        /* \"#utility.yul\":28121:28487   */\n    tag_347:\n        /* \"#utility.yul\":28263:28266   */\n      0x00\n        /* \"#utility.yul\":28284:28351   */\n      tag_587\n        /* \"#utility.yul\":28348:28350   */\n      0x1f\n        /* \"#utility.yul\":28343:28346   */\n      dup4\n        /* \"#utility.yul\":28284:28351   */\n      tag_293\n      jump\t// in\n    tag_587:\n        /* \"#utility.yul\":28277:28351   */\n      swap2\n      pop\n        /* \"#utility.yul\":28360:28453   */\n      tag_588\n        /* \"#utility.yul\":28449:28452   */\n      dup3\n        /* \"#utility.yul\":28360:28453   */\n      tag_346\n      jump\t// in\n    tag_588:\n        /* \"#utility.yul\":28478:28480   */\n      0x20\n        /* \"#utility.yul\":28473:28476   */\n      dup3\n        /* \"#utility.yul\":28469:28481   */\n      add\n        /* \"#utility.yul\":28462:28481   */\n      swap1\n      pop\n        /* \"#utility.yul\":28121:28487   */\n      swap2\n      swap1\n      pop\n      jump\t// out\n        /* \"#utility.yul\":28493:28912   */\n    tag_242:\n        /* \"#utility.yul\":28659:28663   */\n      0x00\n        /* \"#utility.yul\":28697:28699   */\n      0x20\n        /* \"#utility.yul\":28686:28695   */\n      dup3\n        /* \"#utility.yul\":28682:28700   */\n      add\n        /* \"#utility.yul\":28674:28700   */\n      swap1\n      pop\n        /* \"#utility.yul\":28746:28755   */\n      dup2\n        /* \"#utility.yul\":28740:28744   */\n      dup2\n        /* \"#utility.yul\":28736:28756   */\n      sub\n        /* \"#utility.yul\":28732:28733   */\n      0x00\n        /* \"#utility.yul\":28721:28730   */\n      dup4\n        /* \"#utility.yul\":28717:28734   */\n      add\n        /* \"#utility.yul\":28710:28757   */\n      mstore\n        /* \"#utility.yul\":28774:28905   */\n      tag_590\n        /* \"#utility.yul\":28900:28904   */\n      dup2\n        /* \"#utility.yul\":28774:28905   */\n      tag_347\n      jump\t// in\n    tag_590:\n        /* \"#utility.yul\":28766:28905   */\n      swap1\n      pop\n        /* \"#utility.yul\":28493:28912   */\n      swap2\n      swap1\n      pop\n      jump\t// out\n        /* \"#utility.yul\":28918:29149   */\n    tag_348:\n        /* \"#utility.yul\":29058:29092   */\n      0x417574686f7220616c72656164792065786973747320696e20746865206c6973\n        /* \"#utility.yul\":29054:29055   */\n      0x00\n        /* \"#utility.yul\":29046:29052   */\n      dup3\n        /* \"#utility.yul\":29042:29056   */\n      add\n        /* \"#utility.yul\":29035:29093   */\n      mstore\n        /* \"#utility.yul\":29127:29141   */\n      0x74206f6620617574686f72730000000000000000000000000000000000000000\n        /* \"#utility.yul\":29122:29124   */\n      0x20\n        /* \"#utility.yul\":29114:29120   */\n      dup3\n        /* \"#utility.yul\":29110:29125   */\n      add\n        /* \"#utility.yul\":29103:29142   */\n      mstore\n        /* \"#utility.yul\":28918:29149   */\n      pop\n      jump\t// out\n        /* \"#utility.yul\":29155:29521   */\n    tag_349:\n        /* \"#utility.yul\":29297:29300   */\n      0x00\n        /* \"#utility.yul\":29318:29385   */\n      tag_593\n        /* \"#utility.yul\":29382:29384   */\n      0x2c\n        /* \"#utility.yul\":29377:29380   */\n      dup4\n        /* \"#utility.yul\":29318:29385   */\n      tag_293\n      jump\t// in\n    tag_593:\n        /* \"#utility.yul\":29311:29385   */\n      swap2\n      pop\n        /* \"#utility.yul\":29394:29487   */\n      tag_594\n        /* \"#utility.yul\":29483:29486   */\n      dup3\n        /* \"#utility.yul\":29394:29487   */\n      tag_348\n      jump\t// in\n    tag_594:\n        /* \"#utility.yul\":29512:29514   */\n      0x40\n        /* \"#utility.yul\":29507:29510   */\n      dup3\n        /* \"#utility.yul\":29503:29515   */\n      add\n        /* \"#utility.yul\":29496:29515   */\n      swap1\n      pop\n        /* \"#utility.yul\":29155:29521   */\n      swap2\n      swap1\n      pop\n      jump\t// out\n        /* \"#utility.yul\":29527:29946   */\n    tag_251:\n        /* \"#utility.yul\":29693:29697   */\n      0x00\n        /* \"#utility.yul\":29731:29733   */\n      0x20\n        /* \"#utility.yul\":29720:29729   */\n      dup3\n        /* \"#utility.yul\":29716:29734   */\n      add\n        /* \"#utility.yul\":29708:29734   */\n      swap1\n      pop\n        /* \"#utility.yul\":29780:29789   */\n      dup2\n        /* \"#utility.yul\":29774:29778   */\n      dup2\n        /* \"#utility.yul\":29770:29790   */\n      sub\n        /* \"#utility.yul\":29766:29767   */\n      0x00\n        /* \"#utility.yul\":29755:29764   */\n      dup4\n        /* \"#utility.yul\":29751:29768   */\n      add\n        /* \"#utility.yul\":29744:29791   */\n      mstore\n        /* \"#utility.yul\":29808:29939   */\n      tag_596\n        /* \"#utility.yul\":29934:29938   */\n      dup2\n        /* \"#utility.yul\":29808:29939   */\n      tag_349\n      jump\t// in\n    tag_596:\n        /* \"#utility.yul\":29800:29939   */\n      swap1\n      pop\n        /* \"#utility.yul\":29527:29946   */\n      swap2\n      swap1\n      pop\n      jump\t// out\n        /* \"#utility.yul\":29952:30257   */\n    tag_257:\n        /* \"#utility.yul\":29992:29995   */\n      0x00\n        /* \"#utility.yul\":30011:30031   */\n      tag_598\n        /* \"#utility.yul\":30029:30030   */\n      dup3\n        /* \"#utility.yul\":30011:30031   */\n      tag_304\n      jump\t// in\n    tag_598:\n        /* \"#utility.yul\":30006:30031   */\n      swap2\n      pop\n        /* \"#utility.yul\":30045:30065   */\n      tag_599\n        /* \"#utility.yul\":30063:30064   */\n      dup4\n        /* \"#utility.yul\":30045:30065   */\n      tag_304\n      jump\t// in\n    tag_599:\n        /* \"#utility.yul\":30040:30065   */\n      swap3\n      pop\n        /* \"#utility.yul\":30199:30200   */\n      dup3\n        /* \"#utility.yul\":30131:30197   */\n      0xffffffffffffffffffffffffffffffffffffffffffffffffffffffffffffffff\n        /* \"#utility.yul\":30127:30201   */\n      sub\n        /* \"#utility.yul\":30124:30125   */\n      dup3\n        /* \"#utility.yul\":30121:30202   */\n      gt\n        /* \"#utility.yul\":30118:30225   */\n      iszero\n      tag_600\n      jumpi\n        /* \"#utility.yul\":30205:30223   */\n      tag_601\n      tag_327\n      jump\t// in\n    tag_601:\n        /* \"#utility.yul\":30118:30225   */\n    tag_600:\n        /* \"#utility.yul\":30249:30250   */\n      dup3\n        /* \"#utility.yul\":30246:30247   */\n      dup3\n        /* \"#utility.yul\":30242:30251   */\n      add\n        /* \"#utility.yul\":30235:30251   */\n      swap1\n      pop\n        /* \"#utility.yul\":29952:30257   */\n      swap3\n      swap2\n      pop\n      pop\n      jump\t// out\n        /* \"#utility.yul\":30263:30440   */\n    tag_350:\n        /* \"#utility.yul\":30403:30432   */\n      0x536166654d6174683a206164646974696f6e206f766572666c6f770000000000\n        /* \"#utility.yul\":30399:30400   */\n      0x00\n        /* \"#utility.yul\":30391:30397   */\n      dup3\n        /* \"#utility.yul\":30387:30401   */\n      add\n        /* \"#utility.yul\":30380:30433   */\n      mstore\n        /* \"#utility.yul\":30263:30440   */\n      pop\n      jump\t// out\n        /* \"#utility.yul\":30446:30812   */\n    tag_351:\n        /* \"#utility.yul\":30588:30591   */\n      0x00\n        /* \"#utility.yul\":30609:30676   */\n      tag_604\n        /* \"#utility.yul\":30673:30675   */\n      0x1b\n        /* \"#utility.yul\":30668:30671   */\n      dup4\n        /* \"#utility.yul\":30609:30676   */\n      tag_293\n      jump\t// in\n    tag_604:\n        /* \"#utility.yul\":30602:30676   */\n      swap2\n      pop\n        /* \"#utility.yul\":30685:30778   */\n      tag_605\n        /* \"#utility.yul\":30774:30777   */\n      dup3\n        /* \"#utility.yul\":30685:30778   */\n      tag_350\n      jump\t// in\n    tag_605:\n        /* \"#utility.yul\":30803:30805   */\n      0x20\n        /* \"#utility.yul\":30798:30801   */\n      dup3\n        /* \"#utility.yul\":30794:30806   */\n      add\n        /* \"#utility.yul\":30787:30806   */\n      swap1\n      pop\n        /* \"#utility.yul\":30446:30812   */\n      swap2\n      swap1\n      pop\n      jump\t// out\n        /* \"#utility.yul\":30818:31237   */\n    tag_260:\n        /* \"#utility.yul\":30984:30988   */\n      0x00\n        /* \"#utility.yul\":31022:31024   */\n      0x20\n        /* \"#utility.yul\":31011:31020   */\n      dup3\n        /* \"#utility.yul\":31007:31025   */\n      add\n        /* \"#utility.yul\":30999:31025   */\n      swap1\n      pop\n        /* \"#utility.yul\":31071:31080   */\n      dup2\n        /* \"#utility.yul\":31065:31069   */\n      dup2\n        /* \"#utility.yul\":31061:31081   */\n      sub\n        /* \"#utility.yul\":31057:31058   */\n      0x00\n        /* \"#utility.yul\":31046:31055   */\n      dup4\n        /* \"#utility.yul\":31042:31059   */\n      add\n        /* \"#utility.yul\":31035:31082   */\n      mstore\n        /* \"#utility.yul\":31099:31230   */\n      tag_607\n        /* \"#utility.yul\":31225:31229   */\n      dup2\n        /* \"#utility.yul\":31099:31230   */\n      tag_351\n      jump\t// in\n    tag_607:\n        /* \"#utility.yul\":31091:31230   */\n      swap1\n      pop\n        /* \"#utility.yul\":30818:31237   */\n      swap2\n      swap1\n      pop\n      jump\t// out\n        /* \"#utility.yul\":31243:31419   */\n    tag_352:\n        /* \"#utility.yul\":31383:31411   */\n      0x536166654d6174683a206469766973696f6e206279207a65726f000000000000\n        /* \"#utility.yul\":31379:31380   */\n      0x00\n        /* \"#utility.yul\":31371:31377   */\n      dup3\n        /* \"#utility.yul\":31367:31381   */\n      add\n        /* \"#utility.yul\":31360:31412   */\n      mstore\n        /* \"#utility.yul\":31243:31419   */\n      pop\n      jump\t// out\n        /* \"#utility.yul\":31425:31791   */\n    tag_353:\n        /* \"#utility.yul\":31567:31570   */\n      0x00\n        /* \"#utility.yul\":31588:31655   */\n      tag_610\n        /* \"#utility.yul\":31652:31654   */\n      0x1a\n        /* \"#utility.yul\":31647:31650   */\n      dup4\n        /* \"#utility.yul\":31588:31655   */\n      tag_293\n      jump\t// in\n    tag_610:\n        /* \"#utility.yul\":31581:31655   */\n      swap2\n      pop\n        /* \"#utility.yul\":31664:31757   */\n      tag_611\n        /* \"#utility.yul\":31753:31756   */\n      dup3\n        /* \"#utility.yul\":31664:31757   */\n      tag_352\n      jump\t// in\n    tag_611:\n        /* \"#utility.yul\":31782:31784   */\n      0x20\n        /* \"#utility.yul\":31777:31780   */\n      dup3\n        /* \"#utility.yul\":31773:31785   */\n      add\n        /* \"#utility.yul\":31766:31785   */\n      swap1\n      pop\n        /* \"#utility.yul\":31425:31791   */\n      swap2\n      swap1\n      pop\n      jump\t// out\n        /* \"#utility.yul\":31797:32216   */\n    tag_264:\n        /* \"#utility.yul\":31963:31967   */\n      0x00\n        /* \"#utility.yul\":32001:32003   */\n      0x20\n        /* \"#utility.yul\":31990:31999   */\n      dup3\n        /* \"#utility.yul\":31986:32004   */\n      add\n        /* \"#utility.yul\":31978:32004   */\n      swap1\n      pop\n        /* \"#utility.yul\":32050:32059   */\n      dup2\n        /* \"#utility.yul\":32044:32048   */\n      dup2\n        /* \"#utility.yul\":32040:32060   */\n      sub\n        /* \"#utility.yul\":32036:32037   */\n      0x00\n        /* \"#utility.yul\":32025:32034   */\n      dup4\n        /* \"#utility.yul\":32021:32038   */\n      add\n        /* \"#utility.yul\":32014:32061   */\n      mstore\n        /* \"#utility.yul\":32078:32209   */\n      tag_613\n        /* \"#utility.yul\":32204:32208   */\n      dup2\n        /* \"#utility.yul\":32078:32209   */\n      tag_353\n      jump\t// in\n    tag_613:\n        /* \"#utility.yul\":32070:32209   */\n      swap1\n      pop\n        /* \"#utility.yul\":31797:32216   */\n      swap2\n      swap1\n      pop\n      jump\t// out\n    stop\n\n    sub_0: assembly {\n            /* \"Story.sol\":7839:9692  contract Chapter {... */\n          mstore(0x40, 0x80)\n            /* \"Story.sol\":8167:8634  constructor(address _author, address _story, string memory _title,  string memory _ipfsHash, address parentChapter, address childChapter) {... */\n          callvalue\n          dup1\n          iszero\n          tag_1\n          jumpi\n          0x00\n          dup1\n          revert\n        tag_1:\n          pop\n          mload(0x40)\n          sub(codesize, bytecodeSize)\n          dup1\n          bytecodeSize\n          dup4\n          codecopy\n          dup2\n          dup2\n          add\n          0x40\n          mstore\n          dup2\n          add\n          swap1\n          tag_2\n          swap2\n          swap1\n          tag_3\n          jump\t// in\n        tag_2:\n            /* \"Story.sol\":8325:8332  _author */\n          dup6\n            /* \"Story.sol\":8316:8322  author */\n          0x01\n          0x00\n            /* \"Story.sol\":8316:8332  author = _author */\n          0x0100\n          exp\n          dup2\n          sload\n          dup2\n          0xffffffffffffffffffffffffffffffffffffffff\n          mul\n          not\n          and\n          swap1\n          dup4\n          0xffffffffffffffffffffffffffffffffffffffff\n          and\n          mul\n          or\n          swap1\n          sstore\n          pop\n            /* \"Story.sol\":8351:8357  _story */\n          dup5\n            /* \"Story.sol\":8343:8348  story */\n          0x00\n          dup1\n            /* \"Story.sol\":8343:8357  story = _story */\n          0x0100\n          exp\n          dup2\n          sload\n          dup2\n          0xffffffffffffffffffffffffffffffffffffffff\n          mul\n          not\n          and\n          swap1\n          dup4\n          0xffffffffffffffffffffffffffffffffffffffff\n          and\n          mul\n          or\n          swap1\n          sstore\n          pop\n            /* \"Story.sol\":8379:8388  _ipfsHash */\n          dup3\n            /* \"Story.sol\":8368:8376  ipfsHash */\n          0x03\n            /* \"Story.sol\":8368:8388  ipfsHash = _ipfsHash */\n          swap1\n          dup1\n          mload\n          swap1\n          0x20\n          add\n          swap1\n          tag_6\n          swap3\n          swap2\n          swap1\n          tag_7\n          jump\t// in\n        tag_6:\n          pop\n            /* \"Story.sol\":8407:8413  _title */\n          dup4\n            /* \"Story.sol\":8399:8404  title */\n          0x02\n            /* \"Story.sol\":8399:8413  title = _title */\n          swap1\n          dup1\n          mload\n          swap1\n          0x20\n          add\n          swap1\n          tag_8\n          swap3\n          swap2\n          swap1\n          tag_7\n          jump\t// in\n        tag_8:\n          pop\n            /* \"Story.sol\":8452:8453  0 */\n          0x00\n            /* \"Story.sol\":8427:8454  parentChapter != address(0) */\n          0xffffffffffffffffffffffffffffffffffffffff\n          and\n            /* \"Story.sol\":8427:8440  parentChapter */\n          dup3\n            /* \"Story.sol\":8427:8454  parentChapter != address(0) */\n          0xffffffffffffffffffffffffffffffffffffffff\n          and\n          eq\n            /* \"Story.sol\":8424:8522  if(parentChapter != address(0)){... */\n          tag_9\n          jumpi\n            /* \"Story.sol\":8470:8490  linkedParentChapters */\n          0x04\n            /* \"Story.sol\":8496:8509  parentChapter */\n          dup3\n            /* \"Story.sol\":8470:8510  linkedParentChapters.push(parentChapter) */\n          swap1\n          dup1\n          0x01\n          dup2\n          sload\n          add\n          dup1\n          dup3\n          sstore\n          dup1\n          swap2\n          pop\n          pop\n          0x01\n          swap1\n          sub\n          swap1\n          0x00\n          mstore\n          keccak256(0x00, 0x20)\n          add\n          0x00\n          swap1\n          swap2\n          swap1\n          swap2\n          swap1\n          swap2\n          0x0100\n          exp\n          dup2\n          sload\n          dup2\n          0xffffffffffffffffffffffffffffffffffffffff\n          mul\n          not\n          and\n          swap1\n          dup4\n          0xffffffffffffffffffffffffffffffffffffffff\n          and\n          mul\n          or\n          swap1\n          sstore\n          pop\n            /* \"Story.sol\":8424:8522  if(parentChapter != address(0)){... */\n        tag_9:\n            /* \"Story.sol\":8559:8560  0 */\n          0x00\n            /* \"Story.sol\":8535:8561  childChapter != address(0) */\n          0xffffffffffffffffffffffffffffffffffffffff\n          and\n            /* \"Story.sol\":8535:8547  childChapter */\n          dup2\n            /* \"Story.sol\":8535:8561  childChapter != address(0) */\n          0xffffffffffffffffffffffffffffffffffffffff\n          and\n          eq\n            /* \"Story.sol\":8532:8627  if(childChapter != address(0)){... */\n          tag_11\n          jumpi\n            /* \"Story.sol\":8577:8596  linkedChildChapters */\n          0x05\n            /* \"Story.sol\":8602:8614  childChapter */\n          dup2\n            /* \"Story.sol\":8577:8615  linkedChildChapters.push(childChapter) */\n          swap1\n          dup1\n          0x01\n          dup2\n          sload\n          add\n          dup1\n          dup3\n          sstore\n          dup1\n          swap2\n          pop\n          pop\n          0x01\n          swap1\n          sub\n          swap1\n          0x00\n          mstore\n          keccak256(0x00, 0x20)\n          add\n          0x00\n          swap1\n          swap2\n          swap1\n          swap2\n          swap1\n          swap2\n          0x0100\n          exp\n          dup2\n          sload\n          dup2\n          0xffffffffffffffffffffffffffffffffffffffff\n          mul\n          not\n          and\n          swap1\n          dup4\n          0xffffffffffffffffffffffffffffffffffffffff\n          and\n          mul\n          or\n          swap1\n          sstore\n          pop\n            /* \"Story.sol\":8532:8627  if(childChapter != address(0)){... */\n        tag_11:\n            /* \"Story.sol\":8167:8634  constructor(address _author, address _story, string memory _title,  string memory _ipfsHash, address parentChapter, address childChapter) {... */\n          pop\n          pop\n          pop\n          pop\n          pop\n          pop\n            /* \"Story.sol\":7839:9692  contract Chapter {... */\n          jump(tag_13)\n        tag_7:\n          dup3\n          dup1\n          sload\n          tag_14\n          swap1\n          tag_15\n          jump\t// in\n        tag_14:\n          swap1\n          0x00\n          mstore\n          keccak256(0x00, 0x20)\n          swap1\n          0x1f\n          add\n          0x20\n          swap1\n          div\n          dup2\n          add\n          swap3\n          dup3\n          tag_17\n          jumpi\n          0x00\n          dup6\n          sstore\n          jump(tag_16)\n        tag_17:\n          dup3\n          0x1f\n          lt\n          tag_18\n          jumpi\n          dup1\n          mload\n          not(0xff)\n          and\n          dup4\n          dup1\n          add\n          or\n          dup6\n          sstore\n          jump(tag_16)\n        tag_18:\n          dup3\n          dup1\n          add\n          0x01\n          add\n          dup6\n          sstore\n          dup3\n          iszero\n          tag_16\n          jumpi\n          swap2\n          dup3\n          add\n        tag_19:\n          dup3\n          dup2\n          gt\n          iszero\n          tag_20\n          jumpi\n          dup3\n          mload\n          dup3\n          sstore\n          swap2\n          0x20\n          add\n          swap2\n          swap1\n          0x01\n          add\n          swap1\n          jump(tag_19)\n        tag_20:\n        tag_16:\n          pop\n          swap1\n          pop\n          tag_21\n          swap2\n          swap1\n          tag_22\n          jump\t// in\n        tag_21:\n          pop\n          swap1\n          jump\t// out\n        tag_22:\n        tag_23:\n          dup1\n          dup3\n          gt\n          iszero\n          tag_24\n          jumpi\n          0x00\n          dup2\n          0x00\n          swap1\n          sstore\n          pop\n          0x01\n          add\n          jump(tag_23)\n        tag_24:\n          pop\n          swap1\n          jump\t// out\n            /* \"#utility.yul\":7:82   */\n        tag_25:\n            /* \"#utility.yul\":40:46   */\n          0x00\n            /* \"#utility.yul\":73:75   */\n          0x40\n            /* \"#utility.yul\":67:76   */\n          mload\n            /* \"#utility.yul\":57:76   */\n          swap1\n          pop\n            /* \"#utility.yul\":7:82   */\n          swap1\n          jump\t// out\n            /* \"#utility.yul\":88:205   */\n        tag_26:\n            /* \"#utility.yul\":197:198   */\n          0x00\n            /* \"#utility.yul\":194:195   */\n          dup1\n            /* \"#utility.yul\":187:199   */\n          revert\n            /* \"#utility.yul\":211:328   */\n        tag_27:\n            /* \"#utility.yul\":320:321   */\n          0x00\n            /* \"#utility.yul\":317:318   */\n          dup1\n            /* \"#utility.yul\":310:322   */\n          revert\n            /* \"#utility.yul\":334:460   */\n        tag_28:\n            /* \"#utility.yul\":371:378   */\n          0x00\n            /* \"#utility.yul\":411:453   */\n          0xffffffffffffffffffffffffffffffffffffffff\n            /* \"#utility.yul\":404:409   */\n          dup3\n            /* \"#utility.yul\":400:454   */\n          and\n            /* \"#utility.yul\":389:454   */\n          swap1\n          pop\n            /* \"#utility.yul\":334:460   */\n          swap2\n          swap1\n          pop\n          jump\t// out\n            /* \"#utility.yul\":466:562   */\n        tag_29:\n            /* \"#utility.yul\":503:510   */\n          0x00\n            /* \"#utility.yul\":532:556   */\n          tag_49\n            /* \"#utility.yul\":550:555   */\n          dup3\n            /* \"#utility.yul\":532:556   */\n          tag_28\n          jump\t// in\n        tag_49:\n            /* \"#utility.yul\":521:556   */\n          swap1\n          pop\n            /* \"#utility.yul\":466:562   */\n          swap2\n          swap1\n          pop\n          jump\t// out\n            /* \"#utility.yul\":568:690   */\n        tag_30:\n            /* \"#utility.yul\":641:665   */\n          tag_51\n            /* \"#utility.yul\":659:664   */\n          dup2\n            /* \"#utility.yul\":641:665   */\n          tag_29\n          jump\t// in\n        tag_51:\n            /* \"#utility.yul\":634:639   */\n          dup2\n            /* \"#utility.yul\":631:666   */\n          eq\n            /* \"#utility.yul\":621:684   */\n          tag_52\n          jumpi\n            /* \"#utility.yul\":680:681   */\n          0x00\n            /* \"#utility.yul\":677:678   */\n          dup1\n            /* \"#utility.yul\":670:682   */\n          revert\n            /* \"#utility.yul\":621:684   */\n        tag_52:\n            /* \"#utility.yul\":568:690   */\n          pop\n          jump\t// out\n            /* \"#utility.yul\":696:839   */\n        tag_31:\n            /* \"#utility.yul\":753:758   */\n          0x00\n            /* \"#utility.yul\":784:790   */\n          dup2\n            /* \"#utility.yul\":778:791   */\n          mload\n            /* \"#utility.yul\":769:791   */\n          swap1\n          pop\n            /* \"#utility.yul\":800:833   */\n          tag_54\n            /* \"#utility.yul\":827:832   */\n          dup2\n            /* \"#utility.yul\":800:833   */\n          tag_30\n          jump\t// in\n        tag_54:\n            /* \"#utility.yul\":696:839   */\n          swap3\n          swap2\n          pop\n          pop\n          jump\t// out\n            /* \"#utility.yul\":845:962   */\n        tag_32:\n            /* \"#utility.yul\":954:955   */\n          0x00\n            /* \"#utility.yul\":951:952   */\n          dup1\n            /* \"#utility.yul\":944:956   */\n          revert\n            /* \"#utility.yul\":968:1085   */\n        tag_33:\n            /* \"#utility.yul\":1077:1078   */\n          0x00\n            /* \"#utility.yul\":1074:1075   */\n          dup1\n            /* \"#utility.yul\":1067:1079   */\n          revert\n            /* \"#utility.yul\":1091:1193   */\n        tag_34:\n            /* \"#utility.yul\":1132:1138   */\n          0x00\n            /* \"#utility.yul\":1183:1185   */\n          0x1f\n            /* \"#utility.yul\":1179:1186   */\n          not\n            /* \"#utility.yul\":1174:1176   */\n          0x1f\n            /* \"#utility.yul\":1167:1172   */\n          dup4\n            /* \"#utility.yul\":1163:1177   */\n          add\n            /* \"#utility.yul\":1159:1187   */\n          and\n            /* \"#utility.yul\":1149:1187   */\n          swap1\n          pop\n            /* \"#utility.yul\":1091:1193   */\n          swap2\n          swap1\n          pop\n          jump\t// out\n            /* \"#utility.yul\":1199:1379   */\n        tag_35:\n            /* \"#utility.yul\":1247:1324   */\n          0x4e487b7100000000000000000000000000000000000000000000000000000000\n            /* \"#utility.yul\":1244:1245   */\n          0x00\n            /* \"#utility.yul\":1237:1325   */\n          mstore\n            /* \"#utility.yul\":1344:1348   */\n          0x41\n            /* \"#utility.yul\":1341:1342   */\n          0x04\n            /* \"#utility.yul\":1334:1349   */\n          mstore\n            /* \"#utility.yul\":1368:1372   */\n          0x24\n            /* \"#utility.yul\":1365:1366   */\n          0x00\n            /* \"#utility.yul\":1358:1373   */\n          revert\n            /* \"#utility.yul\":1385:1666   */\n        tag_36:\n            /* \"#utility.yul\":1468:1495   */\n          tag_60\n            /* \"#utility.yul\":1490:1494   */\n          dup3\n            /* \"#utility.yul\":1468:1495   */\n          tag_34\n          jump\t// in\n        tag_60:\n            /* \"#utility.yul\":1460:1466   */\n          dup2\n            /* \"#utility.yul\":1456:1496   */\n          add\n            /* \"#utility.yul\":1598:1604   */\n          dup2\n            /* \"#utility.yul\":1586:1596   */\n          dup2\n            /* \"#utility.yul\":1583:1605   */\n          lt\n            /* \"#utility.yul\":1562:1580   */\n          0xffffffffffffffff\n            /* \"#utility.yul\":1550:1560   */\n          dup3\n            /* \"#utility.yul\":1547:1581   */\n          gt\n            /* \"#utility.yul\":1544:1606   */\n          or\n            /* \"#utility.yul\":1541:1629   */\n          iszero\n          tag_61\n          jumpi\n            /* \"#utility.yul\":1609:1627   */\n          tag_62\n          tag_35\n          jump\t// in\n        tag_62:\n            /* \"#utility.yul\":1541:1629   */\n        tag_61:\n            /* \"#utility.yul\":1649:1659   */\n          dup1\n            /* \"#utility.yul\":1645:1647   */\n          0x40\n            /* \"#utility.yul\":1638:1660   */\n          mstore\n            /* \"#utility.yul\":1428:1666   */\n          pop\n            /* \"#utility.yul\":1385:1666   */\n          pop\n          pop\n          jump\t// out\n            /* \"#utility.yul\":1672:1801   */\n        tag_37:\n            /* \"#utility.yul\":1706:1712   */\n          0x00\n            /* \"#utility.yul\":1733:1753   */\n          tag_64\n          tag_25\n          jump\t// in\n        tag_64:\n            /* \"#utility.yul\":1723:1753   */\n          swap1\n          pop\n            /* \"#utility.yul\":1762:1795   */\n          tag_65\n            /* \"#utility.yul\":1790:1794   */\n          dup3\n            /* \"#utility.yul\":1782:1788   */\n          dup3\n            /* \"#utility.yul\":1762:1795   */\n          tag_36\n          jump\t// in\n        tag_65:\n            /* \"#utility.yul\":1672:1801   */\n          swap2\n          swap1\n          pop\n          jump\t// out\n            /* \"#utility.yul\":1807:2115   */\n        tag_38:\n            /* \"#utility.yul\":1869:1873   */\n          0x00\n            /* \"#utility.yul\":1959:1977   */\n          0xffffffffffffffff\n            /* \"#utility.yul\":1951:1957   */\n          dup3\n            /* \"#utility.yul\":1948:1978   */\n          gt\n            /* \"#utility.yul\":1945:2001   */\n          iszero\n          tag_67\n          jumpi\n            /* \"#utility.yul\":1981:1999   */\n          tag_68\n          tag_35\n          jump\t// in\n        tag_68:\n            /* \"#utility.yul\":1945:2001   */\n        tag_67:\n            /* \"#utility.yul\":2019:2048   */\n          tag_69\n            /* \"#utility.yul\":2041:2047   */\n          dup3\n            /* \"#utility.yul\":2019:2048   */\n          tag_34\n          jump\t// in\n        tag_69:\n            /* \"#utility.yul\":2011:2048   */\n          swap1\n          pop\n            /* \"#utility.yul\":2103:2107   */\n          0x20\n            /* \"#utility.yul\":2097:2101   */\n          dup2\n            /* \"#utility.yul\":2093:2108   */\n          add\n            /* \"#utility.yul\":2085:2108   */\n          swap1\n          pop\n            /* \"#utility.yul\":1807:2115   */\n          swap2\n          swap1\n          pop\n          jump\t// out\n            /* \"#utility.yul\":2121:2428   */\n        tag_39:\n            /* \"#utility.yul\":2189:2190   */\n          0x00\n            /* \"#utility.yul\":2199:2312   */\n        tag_71:\n            /* \"#utility.yul\":2213:2219   */\n          dup4\n            /* \"#utility.yul\":2210:2211   */\n          dup2\n            /* \"#utility.yul\":2207:2220   */\n          lt\n            /* \"#utility.yul\":2199:2312   */\n          iszero\n          tag_73\n          jumpi\n            /* \"#utility.yul\":2298:2299   */\n          dup1\n            /* \"#utility.yul\":2293:2296   */\n          dup3\n            /* \"#utility.yul\":2289:2300   */\n          add\n            /* \"#utility.yul\":2283:2301   */\n          mload\n            /* \"#utility.yul\":2279:2280   */\n          dup2\n            /* \"#utility.yul\":2274:2277   */\n          dup5\n            /* \"#utility.yul\":2270:2281   */\n          add\n            /* \"#utility.yul\":2263:2302   */\n          mstore\n            /* \"#utility.yul\":2235:2237   */\n          0x20\n            /* \"#utility.yul\":2232:2233   */\n          dup2\n            /* \"#utility.yul\":2228:2238   */\n          add\n            /* \"#utility.yul\":2223:2238   */\n          swap1\n          pop\n            /* \"#utility.yul\":2199:2312   */\n          jump(tag_71)\n        tag_73:\n            /* \"#utility.yul\":2330:2336   */\n          dup4\n            /* \"#utility.yul\":2327:2328   */\n          dup2\n            /* \"#utility.yul\":2324:2337   */\n          gt\n            /* \"#utility.yul\":2321:2422   */\n          iszero\n          tag_74\n          jumpi\n            /* \"#utility.yul\":2410:2411   */\n          0x00\n            /* \"#utility.yul\":2401:2407   */\n          dup5\n            /* \"#utility.yul\":2396:2399   */\n          dup5\n            /* \"#utility.yul\":2392:2408   */\n          add\n            /* \"#utility.yul\":2385:2412   */\n          mstore\n            /* \"#utility.yul\":2321:2422   */\n        tag_74:\n            /* \"#utility.yul\":2170:2428   */\n          pop\n            /* \"#utility.yul\":2121:2428   */\n          pop\n          pop\n          pop\n          jump\t// out\n            /* \"#utility.yul\":2434:2855   */\n        tag_40:\n            /* \"#utility.yul\":2523:2528   */\n          0x00\n            /* \"#utility.yul\":2548:2614   */\n          tag_76\n            /* \"#utility.yul\":2564:2613   */\n          tag_77\n            /* \"#utility.yul\":2606:2612   */\n          dup5\n            /* \"#utility.yul\":2564:2613   */\n          tag_38\n          jump\t// in\n        tag_77:\n            /* \"#utility.yul\":2548:2614   */\n          tag_37\n          jump\t// in\n        tag_76:\n            /* \"#utility.yul\":2539:2614   */\n          swap1\n          pop\n            /* \"#utility.yul\":2637:2643   */\n          dup3\n            /* \"#utility.yul\":2630:2635   */\n          dup2\n            /* \"#utility.yul\":2623:2644   */\n          mstore\n            /* \"#utility.yul\":2675:2679   */\n          0x20\n            /* \"#utility.yul\":2668:2673   */\n          dup2\n            /* \"#utility.yul\":2664:2680   */\n          add\n            /* \"#utility.yul\":2713:2716   */\n          dup5\n            /* \"#utility.yul\":2704:2710   */\n          dup5\n            /* \"#utility.yul\":2699:2702   */\n          dup5\n            /* \"#utility.yul\":2695:2711   */\n          add\n            /* \"#utility.yul\":2692:2717   */\n          gt\n            /* \"#utility.yul\":2689:2801   */\n          iszero\n          tag_78\n          jumpi\n            /* \"#utility.yul\":2720:2799   */\n          tag_79\n          tag_33\n          jump\t// in\n        tag_79:\n            /* \"#utility.yul\":2689:2801   */\n        tag_78:\n            /* \"#utility.yul\":2810:2849   */\n          tag_80\n            /* \"#utility.yul\":2842:2848   */\n          dup5\n            /* \"#utility.yul\":2837:2840   */\n          dup3\n            /* \"#utility.yul\":2832:2835   */\n          dup6\n            /* \"#utility.yul\":2810:2849   */\n          tag_39\n          jump\t// in\n        tag_80:\n            /* \"#utility.yul\":2529:2855   */\n          pop\n            /* \"#utility.yul\":2434:2855   */\n          swap4\n          swap3\n          pop\n          pop\n          pop\n          jump\t// out\n            /* \"#utility.yul\":2875:3230   */\n        tag_41:\n            /* \"#utility.yul\":2942:2947   */\n          0x00\n            /* \"#utility.yul\":2991:2994   */\n          dup3\n            /* \"#utility.yul\":2984:2988   */\n          0x1f\n            /* \"#utility.yul\":2976:2982   */\n          dup4\n            /* \"#utility.yul\":2972:2989   */\n          add\n            /* \"#utility.yul\":2968:2995   */\n          slt\n            /* \"#utility.yul\":2958:3080   */\n          tag_82\n          jumpi\n            /* \"#utility.yul\":2999:3078   */\n          tag_83\n          tag_32\n          jump\t// in\n        tag_83:\n            /* \"#utility.yul\":2958:3080   */\n        tag_82:\n            /* \"#utility.yul\":3109:3115   */\n          dup2\n            /* \"#utility.yul\":3103:3116   */\n          mload\n            /* \"#utility.yul\":3134:3224   */\n          tag_84\n            /* \"#utility.yul\":3220:3223   */\n          dup5\n            /* \"#utility.yul\":3212:3218   */\n          dup3\n            /* \"#utility.yul\":3205:3209   */\n          0x20\n            /* \"#utility.yul\":3197:3203   */\n          dup7\n            /* \"#utility.yul\":3193:3210   */\n          add\n            /* \"#utility.yul\":3134:3224   */\n          tag_40\n          jump\t// in\n        tag_84:\n            /* \"#utility.yul\":3125:3224   */\n          swap2\n          pop\n            /* \"#utility.yul\":2948:3230   */\n          pop\n            /* \"#utility.yul\":2875:3230   */\n          swap3\n          swap2\n          pop\n          pop\n          jump\t// out\n            /* \"#utility.yul\":3236:4716   */\n        tag_3:\n            /* \"#utility.yul\":3371:3377   */\n          0x00\n            /* \"#utility.yul\":3379:3385   */\n          dup1\n            /* \"#utility.yul\":3387:3393   */\n          0x00\n            /* \"#utility.yul\":3395:3401   */\n          dup1\n            /* \"#utility.yul\":3403:3409   */\n          0x00\n            /* \"#utility.yul\":3411:3417   */\n          dup1\n            /* \"#utility.yul\":3460:3463   */\n          0xc0\n            /* \"#utility.yul\":3448:3457   */\n          dup8\n            /* \"#utility.yul\":3439:3446   */\n          dup10\n            /* \"#utility.yul\":3435:3458   */\n          sub\n            /* \"#utility.yul\":3431:3464   */\n          slt\n            /* \"#utility.yul\":3428:3548   */\n          iszero\n          tag_86\n          jumpi\n            /* \"#utility.yul\":3467:3546   */\n          tag_87\n          tag_26\n          jump\t// in\n        tag_87:\n            /* \"#utility.yul\":3428:3548   */\n        tag_86:\n            /* \"#utility.yul\":3587:3588   */\n          0x00\n            /* \"#utility.yul\":3612:3676   */\n          tag_88\n            /* \"#utility.yul\":3668:3675   */\n          dup10\n            /* \"#utility.yul\":3659:3665   */\n          dup3\n            /* \"#utility.yul\":3648:3657   */\n          dup11\n            /* \"#utility.yul\":3644:3666   */\n          add\n            /* \"#utility.yul\":3612:3676   */\n          tag_31\n          jump\t// in\n        tag_88:\n            /* \"#utility.yul\":3602:3676   */\n          swap7\n          pop\n            /* \"#utility.yul\":3558:3686   */\n          pop\n            /* \"#utility.yul\":3725:3727   */\n          0x20\n            /* \"#utility.yul\":3751:3815   */\n          tag_89\n            /* \"#utility.yul\":3807:3814   */\n          dup10\n            /* \"#utility.yul\":3798:3804   */\n          dup3\n            /* \"#utility.yul\":3787:3796   */\n          dup11\n            /* \"#utility.yul\":3783:3805   */\n          add\n            /* \"#utility.yul\":3751:3815   */\n          tag_31\n          jump\t// in\n        tag_89:\n            /* \"#utility.yul\":3741:3815   */\n          swap6\n          pop\n            /* \"#utility.yul\":3696:3825   */\n          pop\n            /* \"#utility.yul\":3885:3887   */\n          0x40\n            /* \"#utility.yul\":3874:3883   */\n          dup8\n            /* \"#utility.yul\":3870:3888   */\n          add\n            /* \"#utility.yul\":3864:3889   */\n          mload\n            /* \"#utility.yul\":3916:3934   */\n          0xffffffffffffffff\n            /* \"#utility.yul\":3908:3914   */\n          dup2\n            /* \"#utility.yul\":3905:3935   */\n          gt\n            /* \"#utility.yul\":3902:4019   */\n          iszero\n          tag_90\n          jumpi\n            /* \"#utility.yul\":3938:4017   */\n          tag_91\n          tag_27\n          jump\t// in\n        tag_91:\n            /* \"#utility.yul\":3902:4019   */\n        tag_90:\n            /* \"#utility.yul\":4043:4117   */\n          tag_92\n            /* \"#utility.yul\":4109:4116   */\n          dup10\n            /* \"#utility.yul\":4100:4106   */\n          dup3\n            /* \"#utility.yul\":4089:4098   */\n          dup11\n            /* \"#utility.yul\":4085:4107   */\n          add\n            /* \"#utility.yul\":4043:4117   */\n          tag_41\n          jump\t// in\n        tag_92:\n            /* \"#utility.yul\":4033:4117   */\n          swap5\n          pop\n            /* \"#utility.yul\":3835:4127   */\n          pop\n            /* \"#utility.yul\":4187:4189   */\n          0x60\n            /* \"#utility.yul\":4176:4185   */\n          dup8\n            /* \"#utility.yul\":4172:4190   */\n          add\n            /* \"#utility.yul\":4166:4191   */\n          mload\n            /* \"#utility.yul\":4218:4236   */\n          0xffffffffffffffff\n            /* \"#utility.yul\":4210:4216   */\n          dup2\n            /* \"#utility.yul\":4207:4237   */\n          gt\n            /* \"#utility.yul\":4204:4321   */\n          iszero\n          tag_93\n          jumpi\n            /* \"#utility.yul\":4240:4319   */\n          tag_94\n          tag_27\n          jump\t// in\n        tag_94:\n            /* \"#utility.yul\":4204:4321   */\n        tag_93:\n            /* \"#utility.yul\":4345:4419   */\n          tag_95\n            /* \"#utility.yul\":4411:4418   */\n          dup10\n            /* \"#utility.yul\":4402:4408   */\n          dup3\n            /* \"#utility.yul\":4391:4400   */\n          dup11\n            /* \"#utility.yul\":4387:4409   */\n          add\n            /* \"#utility.yul\":4345:4419   */\n          tag_41\n          jump\t// in\n        tag_95:\n            /* \"#utility.yul\":4335:4419   */\n          swap4\n          pop\n            /* \"#utility.yul\":4137:4429   */\n          pop\n            /* \"#utility.yul\":4468:4471   */\n          0x80\n            /* \"#utility.yul\":4495:4559   */\n          tag_96\n            /* \"#utility.yul\":4551:4558   */\n          dup10\n            /* \"#utility.yul\":4542:4548   */\n          dup3\n            /* \"#utility.yul\":4531:4540   */\n          dup11\n            /* \"#utility.yul\":4527:4549   */\n          add\n            /* \"#utility.yul\":4495:4559   */\n          tag_31\n          jump\t// in\n        tag_96:\n            /* \"#utility.yul\":4485:4559   */\n          swap3\n          pop\n            /* \"#utility.yul\":4439:4569   */\n          pop\n            /* \"#utility.yul\":4608:4611   */\n          0xa0\n            /* \"#utility.yul\":4635:4699   */\n          tag_97\n            /* \"#utility.yul\":4691:4698   */\n          dup10\n            /* \"#utility.yul\":4682:4688   */\n          dup3\n            /* \"#utility.yul\":4671:4680   */\n          dup11\n            /* \"#utility.yul\":4667:4689   */\n          add\n            /* \"#utility.yul\":4635:4699   */\n          tag_31\n          jump\t// in\n        tag_97:\n            /* \"#utility.yul\":4625:4699   */\n          swap2\n          pop\n            /* \"#utility.yul\":4579:4709   */\n          pop\n            /* \"#utility.yul\":3236:4716   */\n          swap3\n          swap6\n          pop\n          swap3\n          swap6\n          pop\n          swap3\n          swap6\n          jump\t// out\n            /* \"#utility.yul\":4722:4902   */\n        tag_42:\n            /* \"#utility.yul\":4770:4847   */\n          0x4e487b7100000000000000000000000000000000000000000000000000000000\n            /* \"#utility.yul\":4767:4768   */\n          0x00\n            /* \"#utility.yul\":4760:4848   */\n          mstore\n            /* \"#utility.yul\":4867:4871   */\n          0x22\n            /* \"#utility.yul\":4864:4865   */\n          0x04\n            /* \"#utility.yul\":4857:4872   */\n          mstore\n            /* \"#utility.yul\":4891:4895   */\n          0x24\n            /* \"#utility.yul\":4888:4889   */\n          0x00\n            /* \"#utility.yul\":4881:4896   */\n          revert\n            /* \"#utility.yul\":4908:5228   */\n        tag_15:\n            /* \"#utility.yul\":4952:4958   */\n          0x00\n            /* \"#utility.yul\":4989:4990   */\n          0x02\n            /* \"#utility.yul\":4983:4987   */\n          dup3\n            /* \"#utility.yul\":4979:4991   */\n          div\n            /* \"#utility.yul\":4969:4991   */\n          swap1\n          pop\n            /* \"#utility.yul\":5036:5037   */\n          0x01\n            /* \"#utility.yul\":5030:5034   */\n          dup3\n            /* \"#utility.yul\":5026:5038   */\n          and\n            /* \"#utility.yul\":5057:5075   */\n          dup1\n            /* \"#utility.yul\":5047:5128   */\n          tag_100\n          jumpi\n            /* \"#utility.yul\":5113:5117   */\n          0x7f\n            /* \"#utility.yul\":5105:5111   */\n          dup3\n            /* \"#utility.yul\":5101:5118   */\n          and\n            /* \"#utility.yul\":5091:5118   */\n          swap2\n          pop\n            /* \"#utility.yul\":5047:5128   */\n        tag_100:\n            /* \"#utility.yul\":5175:5177   */\n          0x20\n            /* \"#utility.yul\":5167:5173   */\n          dup3\n            /* \"#utility.yul\":5164:5178   */\n          lt\n            /* \"#utility.yul\":5144:5162   */\n          dup2\n            /* \"#utility.yul\":5141:5179   */\n          eq\n            /* \"#utility.yul\":5138:5222   */\n          iszero\n          tag_101\n          jumpi\n            /* \"#utility.yul\":5194:5212   */\n          tag_102\n          tag_42\n          jump\t// in\n        tag_102:\n            /* \"#utility.yul\":5138:5222   */\n        tag_101:\n            /* \"#utility.yul\":4959:5228   */\n          pop\n            /* \"#utility.yul\":4908:5228   */\n          swap2\n          swap1\n          pop\n          jump\t// out\n            /* \"Story.sol\":7839:9692  contract Chapter {... */\n        tag_13:\n          dataSize(sub_0)\n          dup1\n          dataOffset(sub_0)\n          0x00\n          codecopy\n          0x00\n          return\n        stop\n\n        sub_0: assembly {\n                /* \"Story.sol\":7839:9692  contract Chapter {... */\n              mstore(0x40, 0x80)\n              callvalue\n              dup1\n              iszero\n              tag_1\n              jumpi\n              0x00\n              dup1\n              revert\n            tag_1:\n              pop\n              jumpi(tag_2, lt(calldatasize, 0x04))\n              shr(0xe0, calldataload(0x00))\n              dup1\n              0xa523b88a\n              gt\n              tag_14\n              jumpi\n              dup1\n              0xa523b88a\n              eq\n              tag_8\n              jumpi\n              dup1\n              0xa6c3e6b9\n              eq\n              tag_9\n              jumpi\n              dup1\n              0xc5fe6ffc\n              eq\n              tag_10\n              jumpi\n              dup1\n              0xc623674f\n              eq\n              tag_11\n              jumpi\n              dup1\n              0xe5a0af3d\n              eq\n              tag_12\n              jumpi\n              dup1\n              0xed777791\n              eq\n              tag_13\n              jumpi\n              jump(tag_2)\n            tag_14:\n              dup1\n              0x4051ddac\n              eq\n              tag_3\n              jumpi\n              dup1\n              0x46c922d1\n              eq\n              tag_4\n              jumpi\n              dup1\n              0x4a79d50c\n              eq\n              tag_5\n              jumpi\n              dup1\n              0x8758ce83\n              eq\n              tag_6\n              jumpi\n              dup1\n              0x988e46c8\n              eq\n              tag_7\n              jumpi\n            tag_2:\n              0x00\n              dup1\n              revert\n                /* \"Story.sol\":9331:9689  function getSummary() public view returns (... */\n            tag_3:\n              tag_15\n              tag_16\n              jump\t// in\n            tag_15:\n              mload(0x40)\n              tag_17\n              swap8\n              swap7\n              swap6\n              swap5\n              swap4\n              swap3\n              swap2\n              swap1\n              tag_18\n              jump\t// in\n            tag_17:\n              mload(0x40)\n              dup1\n              swap2\n              sub\n              swap1\n              return\n                /* \"Story.sol\":7898:7918  address public story */\n            tag_4:\n              tag_19\n              tag_20\n              jump\t// in\n            tag_19:\n              mload(0x40)\n              tag_21\n              swap2\n              swap1\n              tag_22\n              jump\t// in\n            tag_21:\n              mload(0x40)\n              dup1\n              swap2\n              sub\n              swap1\n              return\n                /* \"Story.sol\":7954:7973  string public title */\n            tag_5:\n              tag_23\n              tag_24\n              jump\t// in\n            tag_23:\n              mload(0x40)\n              tag_25\n              swap2\n              swap1\n              tag_26\n              jump\t// in\n            tag_25:\n              mload(0x40)\n              dup1\n              swap2\n              sub\n              swap1\n              return\n                /* \"Story.sol\":8892:9132  function linkParentChapter(address parentChapter) public {... */\n            tag_6:\n              tag_27\n              0x04\n              dup1\n              calldatasize\n              sub\n              dup2\n              add\n              swap1\n              tag_28\n              swap2\n              swap1\n              tag_29\n              jump\t// in\n            tag_28:\n              tag_30\n              jump\t// in\n            tag_27:\n              stop\n                /* \"Story.sol\":8648:8884  function linkChildChapter(address childChapter) public {... */\n            tag_7:\n              tag_31\n              0x04\n              dup1\n              calldatasize\n              sub\n              dup2\n              add\n              swap1\n              tag_32\n              swap2\n              swap1\n              tag_29\n              jump\t// in\n            tag_32:\n              tag_33\n              jump\t// in\n            tag_31:\n              stop\n                /* \"Story.sol\":9148:9323  function like() public {... */\n            tag_8:\n              tag_34\n              tag_35\n              jump\t// in\n            tag_34:\n              stop\n                /* \"Story.sol\":7926:7947  address public author */\n            tag_9:\n              tag_36\n              tag_37\n              jump\t// in\n            tag_36:\n              mload(0x40)\n              tag_38\n              swap2\n              swap1\n              tag_22\n              jump\t// in\n            tag_38:\n              mload(0x40)\n              dup1\n              swap2\n              sub\n              swap1\n              return\n                /* \"Story.sol\":8053:8089  address[] public linkedChildChapters */\n            tag_10:\n              tag_39\n              0x04\n              dup1\n              calldatasize\n              sub\n              dup2\n              add\n              swap1\n              tag_40\n              swap2\n              swap1\n              tag_41\n              jump\t// in\n            tag_40:\n              tag_42\n              jump\t// in\n            tag_39:\n              mload(0x40)\n              tag_43\n              swap2\n              swap1\n              tag_22\n              jump\t// in\n            tag_43:\n              mload(0x40)\n              dup1\n              swap2\n              sub\n              swap1\n              return\n                /* \"Story.sol\":7980:8002  string public ipfsHash */\n            tag_11:\n              tag_44\n              tag_45\n              jump\t// in\n            tag_44:\n              mload(0x40)\n              tag_46\n              swap2\n              swap1\n              tag_26\n              jump\t// in\n            tag_46:\n              mload(0x40)\n              dup1\n              swap2\n              sub\n              swap1\n              return\n                /* \"Story.sol\":8134:8158  uint256 public likeCount */\n            tag_12:\n              tag_47\n              tag_48\n              jump\t// in\n            tag_47:\n              mload(0x40)\n              tag_49\n              swap2\n              swap1\n              tag_50\n              jump\t// in\n            tag_49:\n              mload(0x40)\n              dup1\n              swap2\n              sub\n              swap1\n              return\n                /* \"Story.sol\":8009:8046  address[] public linkedParentChapters */\n            tag_13:\n              tag_51\n              0x04\n              dup1\n              calldatasize\n              sub\n              dup2\n              add\n              swap1\n              tag_52\n              swap2\n              swap1\n              tag_41\n              jump\t// in\n            tag_52:\n              tag_53\n              jump\t// in\n            tag_51:\n              mload(0x40)\n              tag_54\n              swap2\n              swap1\n              tag_22\n              jump\t// in\n            tag_54:\n              mload(0x40)\n              dup1\n              swap2\n              sub\n              swap1\n              return\n                /* \"Story.sol\":9331:9689  function getSummary() public view returns (... */\n            tag_16:\n                /* \"Story.sol\":9384:9391  address */\n              0x00\n                /* \"Story.sol\":9393:9400  address */\n              dup1\n                /* \"Story.sol\":9402:9415  string memory */\n              0x60\n                /* \"Story.sol\":9417:9430  string memory */\n              dup1\n                /* \"Story.sol\":9432:9448  address[] memory */\n              0x60\n                /* \"Story.sol\":9450:9466  address[] memory */\n              dup1\n                /* \"Story.sol\":9468:9472  uint */\n              0x00\n                /* \"Story.sol\":9508:9513  story */\n              dup1\n              0x00\n              swap1\n              sload\n              swap1\n              0x0100\n              exp\n              swap1\n              div\n              0xffffffffffffffffffffffffffffffffffffffff\n              and\n                /* \"Story.sol\":9528:9534  author */\n              0x01\n              0x00\n              swap1\n              sload\n              swap1\n              0x0100\n              exp\n              swap1\n              div\n              0xffffffffffffffffffffffffffffffffffffffff\n              and\n                /* \"Story.sol\":9549:9554  title */\n              0x02\n                /* \"Story.sol\":9569:9577  ipfsHash */\n              0x03\n                /* \"Story.sol\":9592:9612  linkedParentChapters */\n              0x04\n                /* \"Story.sol\":9627:9646  linkedChildChapters */\n              0x05\n                /* \"Story.sol\":9661:9670  likeCount */\n              sload(0x07)\n                /* \"Story.sol\":9485:9681  return ( ... */\n              dup5\n              dup1\n              sload\n              tag_56\n              swap1\n              tag_57\n              jump\t// in\n            tag_56:\n              dup1\n              0x1f\n              add\n              0x20\n              dup1\n              swap2\n              div\n              mul\n              0x20\n              add\n              mload(0x40)\n              swap1\n              dup2\n              add\n              0x40\n              mstore\n              dup1\n              swap3\n              swap2\n              swap1\n              dup2\n              dup2\n              mstore\n              0x20\n              add\n              dup3\n              dup1\n              sload\n              tag_58\n              swap1\n              tag_57\n              jump\t// in\n            tag_58:\n              dup1\n              iszero\n              tag_59\n              jumpi\n              dup1\n              0x1f\n              lt\n              tag_60\n              jumpi\n              0x0100\n              dup1\n              dup4\n              sload\n              div\n              mul\n              dup4\n              mstore\n              swap2\n              0x20\n              add\n              swap2\n              jump(tag_59)\n            tag_60:\n              dup3\n              add\n              swap2\n              swap1\n              0x00\n              mstore\n              keccak256(0x00, 0x20)\n              swap1\n            tag_61:\n              dup2\n              sload\n              dup2\n              mstore\n              swap1\n              0x01\n              add\n              swap1\n              0x20\n              add\n              dup1\n              dup4\n              gt\n              tag_61\n              jumpi\n              dup3\n              swap1\n              sub\n              0x1f\n              and\n              dup3\n              add\n              swap2\n            tag_59:\n              pop\n              pop\n              pop\n              pop\n              pop\n              swap5\n              pop\n              dup4\n              dup1\n              sload\n              tag_62\n              swap1\n              tag_57\n              jump\t// in\n            tag_62:\n              dup1\n              0x1f\n              add\n              0x20\n              dup1\n              swap2\n              div\n              mul\n              0x20\n              add\n              mload(0x40)\n              swap1\n              dup2\n              add\n              0x40\n              mstore\n              dup1\n              swap3\n              swap2\n              swap1\n              dup2\n              dup2\n              mstore\n              0x20\n              add\n              dup3\n              dup1\n              sload\n              tag_63\n              swap1\n              tag_57\n              jump\t// in\n            tag_63:\n              dup1\n              iszero\n              tag_64\n              jumpi\n              dup1\n              0x1f\n              lt\n              tag_65\n              jumpi\n              0x0100\n              dup1\n              dup4\n              sload\n              div\n              mul\n              dup4\n              mstore\n              swap2\n              0x20\n              add\n              swap2\n              jump(tag_64)\n            tag_65:\n              dup3\n              add\n              swap2\n              swap1\n              0x00\n              mstore\n              keccak256(0x00, 0x20)\n              swap1\n            tag_66:\n              dup2\n              sload\n              dup2\n              mstore\n              swap1\n              0x01\n              add\n              swap1\n              0x20\n              add\n              dup1\n              dup4\n              gt\n              tag_66\n              jumpi\n              dup3\n              swap1\n              sub\n              0x1f\n              and\n              dup3\n              add\n              swap2\n            tag_64:\n              pop\n              pop\n              pop\n              pop\n              pop\n              swap4\n              pop\n              dup3\n              dup1\n              sload\n              dup1\n              0x20\n              mul\n              0x20\n              add\n              mload(0x40)\n              swap1\n              dup2\n              add\n              0x40\n              mstore\n              dup1\n              swap3\n              swap2\n              swap1\n              dup2\n              dup2\n              mstore\n              0x20\n              add\n              dup3\n              dup1\n              sload\n              dup1\n              iszero\n              tag_67\n              jumpi\n              0x20\n              mul\n              dup3\n              add\n              swap2\n              swap1\n              0x00\n              mstore\n              keccak256(0x00, 0x20)\n              swap1\n            tag_68:\n              dup2\n              0x00\n              swap1\n              sload\n              swap1\n              0x0100\n              exp\n              swap1\n              div\n              0xffffffffffffffffffffffffffffffffffffffff\n              and\n              0xffffffffffffffffffffffffffffffffffffffff\n              and\n              dup2\n              mstore\n              0x20\n              add\n              swap1\n              0x01\n              add\n              swap1\n              dup1\n              dup4\n              gt\n              tag_68\n              jumpi\n            tag_67:\n              pop\n              pop\n              pop\n              pop\n              pop\n              swap3\n              pop\n              dup2\n              dup1\n              sload\n              dup1\n              0x20\n              mul\n              0x20\n              add\n              mload(0x40)\n              swap1\n              dup2\n              add\n              0x40\n              mstore\n              dup1\n              swap3\n              swap2\n              swap1\n              dup2\n              dup2\n              mstore\n              0x20\n              add\n              dup3\n              dup1\n              sload\n              dup1\n              iszero\n              tag_69\n              jumpi\n              0x20\n              mul\n              dup3\n              add\n              swap2\n              swap1\n              0x00\n              mstore\n              keccak256(0x00, 0x20)\n              swap1\n            tag_70:\n              dup2\n              0x00\n              swap1\n              sload\n              swap1\n              0x0100\n              exp\n              swap1\n              div\n              0xffffffffffffffffffffffffffffffffffffffff\n              and\n              0xffffffffffffffffffffffffffffffffffffffff\n              and\n              dup2\n              mstore\n              0x20\n              add\n              swap1\n              0x01\n              add\n              swap1\n              dup1\n              dup4\n              gt\n              tag_70\n              jumpi\n            tag_69:\n              pop\n              pop\n              pop\n              pop\n              pop\n              swap2\n              pop\n              swap7\n              pop\n              swap7\n              pop\n              swap7\n              pop\n              swap7\n              pop\n              swap7\n              pop\n              swap7\n              pop\n              swap7\n              pop\n                /* \"Story.sol\":9331:9689  function getSummary() public view returns (... */\n              swap1\n              swap2\n              swap3\n              swap4\n              swap5\n              swap6\n              swap7\n              jump\t// out\n                /* \"Story.sol\":7898:7918  address public story */\n            tag_20:\n              0x00\n              dup1\n              sload\n              swap1\n              0x0100\n              exp\n              swap1\n              div\n              0xffffffffffffffffffffffffffffffffffffffff\n              and\n              dup2\n              jump\t// out\n                /* \"Story.sol\":7954:7973  string public title */\n            tag_24:\n              0x02\n              dup1\n              sload\n              tag_71\n              swap1\n              tag_57\n              jump\t// in\n            tag_71:\n              dup1\n              0x1f\n              add\n              0x20\n              dup1\n              swap2\n              div\n              mul\n              0x20\n              add\n              mload(0x40)\n              swap1\n              dup2\n              add\n              0x40\n              mstore\n              dup1\n              swap3\n              swap2\n              swap1\n              dup2\n              dup2\n              mstore\n              0x20\n              add\n              dup3\n              dup1\n              sload\n              tag_72\n              swap1\n              tag_57\n              jump\t// in\n            tag_72:\n              dup1\n              iszero\n              tag_73\n              jumpi\n              dup1\n              0x1f\n              lt\n              tag_74\n              jumpi\n              0x0100\n              dup1\n              dup4\n              sload\n              div\n              mul\n              dup4\n              mstore\n              swap2\n              0x20\n              add\n              swap2\n              jump(tag_73)\n            tag_74:\n              dup3\n              add\n              swap2\n              swap1\n              0x00\n              mstore\n              keccak256(0x00, 0x20)\n              swap1\n            tag_75:\n              dup2\n              sload\n              dup2\n              mstore\n              swap1\n              0x01\n              add\n              swap1\n              0x20\n              add\n              dup1\n              dup4\n              gt\n              tag_75\n              jumpi\n              dup3\n              swap1\n              sub\n              0x1f\n              and\n              dup3\n              add\n              swap2\n            tag_73:\n              pop\n              pop\n              pop\n              pop\n              pop\n              dup2\n              jump\t// out\n                /* \"Story.sol\":8892:9132  function linkParentChapter(address parentChapter) public {... */\n            tag_30:\n                /* \"Story.sol\":8982:8987  story */\n              0x00\n              dup1\n              sload\n              swap1\n              0x0100\n              exp\n              swap1\n              div\n              0xffffffffffffffffffffffffffffffffffffffff\n              and\n                /* \"Story.sol\":8968:8987  msg.sender == story */\n              0xffffffffffffffffffffffffffffffffffffffff\n              and\n                /* \"Story.sol\":8968:8978  msg.sender */\n              caller\n                /* \"Story.sol\":8968:8987  msg.sender == story */\n              0xffffffffffffffffffffffffffffffffffffffff\n              and\n              eq\n                /* \"Story.sol\":8960:9073  require(msg.sender == story, \"This function has to be called from the story contract by an accepted author only\") */\n              tag_77\n              jumpi\n              mload(0x40)\n              0x08c379a000000000000000000000000000000000000000000000000000000000\n              dup2\n              mstore\n              0x04\n              add\n              tag_78\n              swap1\n              tag_79\n              jump\t// in\n            tag_78:\n              mload(0x40)\n              dup1\n              swap2\n              sub\n              swap1\n              revert\n            tag_77:\n                /* \"Story.sol\":9084:9104  linkedParentChapters */\n              0x04\n                /* \"Story.sol\":9110:9123  parentChapter */\n              dup2\n                /* \"Story.sol\":9084:9124  linkedParentChapters.push(parentChapter) */\n              swap1\n              dup1\n              0x01\n              dup2\n              sload\n              add\n              dup1\n              dup3\n              sstore\n              dup1\n              swap2\n              pop\n              pop\n              0x01\n              swap1\n              sub\n              swap1\n              0x00\n              mstore\n              keccak256(0x00, 0x20)\n              add\n              0x00\n              swap1\n              swap2\n              swap1\n              swap2\n              swap1\n              swap2\n              0x0100\n              exp\n              dup2\n              sload\n              dup2\n              0xffffffffffffffffffffffffffffffffffffffff\n              mul\n              not\n              and\n              swap1\n              dup4\n              0xffffffffffffffffffffffffffffffffffffffff\n              and\n              mul\n              or\n              swap1\n              sstore\n              pop\n                /* \"Story.sol\":8892:9132  function linkParentChapter(address parentChapter) public {... */\n              pop\n              jump\t// out\n                /* \"Story.sol\":8648:8884  function linkChildChapter(address childChapter) public {... */\n            tag_33:\n                /* \"Story.sol\":8736:8741  story */\n              0x00\n              dup1\n              sload\n              swap1\n              0x0100\n              exp\n              swap1\n              div\n              0xffffffffffffffffffffffffffffffffffffffff\n              and\n                /* \"Story.sol\":8722:8741  msg.sender == story */\n              0xffffffffffffffffffffffffffffffffffffffff\n              and\n                /* \"Story.sol\":8722:8732  msg.sender */\n              caller\n                /* \"Story.sol\":8722:8741  msg.sender == story */\n              0xffffffffffffffffffffffffffffffffffffffff\n              and\n              eq\n                /* \"Story.sol\":8714:8827  require(msg.sender == story, \"This function has to be called from the story contract by an accepted author only\") */\n              tag_82\n              jumpi\n              mload(0x40)\n              0x08c379a000000000000000000000000000000000000000000000000000000000\n              dup2\n              mstore\n              0x04\n              add\n              tag_83\n              swap1\n              tag_79\n              jump\t// in\n            tag_83:\n              mload(0x40)\n              dup1\n              swap2\n              sub\n              swap1\n              revert\n            tag_82:\n                /* \"Story.sol\":8838:8857  linkedChildChapters */\n              0x05\n                /* \"Story.sol\":8863:8875  childChapter */\n              dup2\n                /* \"Story.sol\":8838:8876  linkedChildChapters.push(childChapter) */\n              swap1\n              dup1\n              0x01\n              dup2\n              sload\n              add\n              dup1\n              dup3\n              sstore\n              dup1\n              swap2\n              pop\n              pop\n              0x01\n              swap1\n              sub\n              swap1\n              0x00\n              mstore\n              keccak256(0x00, 0x20)\n              add\n              0x00\n              swap1\n              swap2\n              swap1\n              swap2\n              swap1\n              swap2\n              0x0100\n              exp\n              dup2\n              sload\n              dup2\n              0xffffffffffffffffffffffffffffffffffffffff\n              mul\n              not\n              and\n              swap1\n              dup4\n              0xffffffffffffffffffffffffffffffffffffffff\n              and\n              mul\n              or\n              swap1\n              sstore\n              pop\n                /* \"Story.sol\":8648:8884  function linkChildChapter(address childChapter) public {... */\n              pop\n              jump\t// out\n                /* \"Story.sol\":9148:9323  function like() public {... */\n            tag_35:\n                /* \"Story.sol\":9191:9197  likers */\n              0x06\n                /* \"Story.sol\":9191:9209  likers[msg.sender] */\n              0x00\n                /* \"Story.sol\":9198:9208  msg.sender */\n              caller\n                /* \"Story.sol\":9191:9209  likers[msg.sender] */\n              0xffffffffffffffffffffffffffffffffffffffff\n              and\n              0xffffffffffffffffffffffffffffffffffffffff\n              and\n              dup2\n              mstore\n              0x20\n              add\n              swap1\n              dup2\n              mstore\n              0x20\n              add\n              0x00\n              keccak256\n              0x00\n              swap1\n              sload\n              swap1\n              0x0100\n              exp\n              swap1\n              div\n              0xff\n              and\n                /* \"Story.sol\":9190:9209  !likers[msg.sender] */\n              iszero\n                /* \"Story.sol\":9182:9240  require(!likers[msg.sender],\"You liked this story before\") */\n              tag_86\n              jumpi\n              mload(0x40)\n              0x08c379a000000000000000000000000000000000000000000000000000000000\n              dup2\n              mstore\n              0x04\n              add\n              tag_87\n              swap1\n              tag_88\n              jump\t// in\n            tag_87:\n              mload(0x40)\n              dup1\n              swap2\n              sub\n              swap1\n              revert\n            tag_86:\n                /* \"Story.sol\":9272:9276  true */\n              0x01\n                /* \"Story.sol\":9251:9257  likers */\n              0x06\n                /* \"Story.sol\":9251:9269  likers[msg.sender] */\n              0x00\n                /* \"Story.sol\":9258:9268  msg.sender */\n              caller\n                /* \"Story.sol\":9251:9269  likers[msg.sender] */\n              0xffffffffffffffffffffffffffffffffffffffff\n              and\n              0xffffffffffffffffffffffffffffffffffffffff\n              and\n              dup2\n              mstore\n              0x20\n              add\n              swap1\n              dup2\n              mstore\n              0x20\n              add\n              0x00\n              keccak256\n              0x00\n                /* \"Story.sol\":9251:9276  likers[msg.sender] = true */\n              0x0100\n              exp\n              dup2\n              sload\n              dup2\n              0xff\n              mul\n              not\n              and\n              swap1\n              dup4\n              iszero\n              iszero\n              mul\n              or\n              swap1\n              sstore\n              pop\n                /* \"Story.sol\":9299:9315  likeCount.add(1) */\n              tag_89\n                /* \"Story.sol\":9313:9314  1 */\n              0x01\n                /* \"Story.sol\":9299:9308  likeCount */\n              sload(0x07)\n                /* \"Story.sol\":9299:9312  likeCount.add */\n              tag_90\n              swap1\n                /* \"Story.sol\":9299:9315  likeCount.add(1) */\n              swap2\n              swap1\n              0xffffffff\n              and\n              jump\t// in\n            tag_89:\n                /* \"Story.sol\":9287:9296  likeCount */\n              0x07\n                /* \"Story.sol\":9287:9315  likeCount = likeCount.add(1) */\n              dup2\n              swap1\n              sstore\n              pop\n                /* \"Story.sol\":9148:9323  function like() public {... */\n              jump\t// out\n                /* \"Story.sol\":7926:7947  address public author */\n            tag_37:\n              0x01\n              0x00\n              swap1\n              sload\n              swap1\n              0x0100\n              exp\n              swap1\n              div\n              0xffffffffffffffffffffffffffffffffffffffff\n              and\n              dup2\n              jump\t// out\n                /* \"Story.sol\":8053:8089  address[] public linkedChildChapters */\n            tag_42:\n              0x05\n              dup2\n              dup2\n              sload\n              dup2\n              lt\n              tag_91\n              jumpi\n              0x00\n              dup1\n              revert\n            tag_91:\n              swap1\n              0x00\n              mstore\n              keccak256(0x00, 0x20)\n              add\n              0x00\n              swap2\n              pop\n              sload\n              swap1\n              0x0100\n              exp\n              swap1\n              div\n              0xffffffffffffffffffffffffffffffffffffffff\n              and\n              dup2\n              jump\t// out\n                /* \"Story.sol\":7980:8002  string public ipfsHash */\n            tag_45:\n              0x03\n              dup1\n              sload\n              tag_93\n              swap1\n              tag_57\n              jump\t// in\n            tag_93:\n              dup1\n              0x1f\n              add\n              0x20\n              dup1\n              swap2\n              div\n              mul\n              0x20\n              add\n              mload(0x40)\n              swap1\n              dup2\n              add\n              0x40\n              mstore\n              dup1\n              swap3\n              swap2\n              swap1\n              dup2\n              dup2\n              mstore\n              0x20\n              add\n              dup3\n              dup1\n              sload\n              tag_94\n              swap1\n              tag_57\n              jump\t// in\n            tag_94:\n              dup1\n              iszero\n              tag_95\n              jumpi\n              dup1\n              0x1f\n              lt\n              tag_96\n              jumpi\n              0x0100\n              dup1\n              dup4\n              sload\n              div\n              mul\n              dup4\n              mstore\n              swap2\n              0x20\n              add\n              swap2\n              jump(tag_95)\n            tag_96:\n              dup3\n              add\n              swap2\n              swap1\n              0x00\n              mstore\n              keccak256(0x00, 0x20)\n              swap1\n            tag_97:\n              dup2\n              sload\n              dup2\n              mstore\n              swap1\n              0x01\n              add\n              swap1\n              0x20\n              add\n              dup1\n              dup4\n              gt\n              tag_97\n              jumpi\n              dup3\n              swap1\n              sub\n              0x1f\n              and\n              dup3\n              add\n              swap2\n            tag_95:\n              pop\n              pop\n              pop\n              pop\n              pop\n              dup2\n              jump\t// out\n                /* \"Story.sol\":8134:8158  uint256 public likeCount */\n            tag_48:\n              sload(0x07)\n              dup2\n              jump\t// out\n                /* \"Story.sol\":8009:8046  address[] public linkedParentChapters */\n            tag_53:\n              0x04\n              dup2\n              dup2\n              sload\n              dup2\n              lt\n              tag_98\n              jumpi\n              0x00\n              dup1\n              revert\n            tag_98:\n              swap1\n              0x00\n              mstore\n              keccak256(0x00, 0x20)\n              add\n              0x00\n              swap2\n              pop\n              sload\n              swap1\n              0x0100\n              exp\n              swap1\n              div\n              0xffffffffffffffffffffffffffffffffffffffff\n              and\n              dup2\n              jump\t// out\n                /* \"Story.sol\":84:263  function add(uint256 a, uint256 b) internal pure returns (uint256) {... */\n            tag_90:\n                /* \"Story.sol\":142:149  uint256 */\n              0x00\n                /* \"Story.sol\":162:171  uint256 c */\n              dup1\n                /* \"Story.sol\":178:179  b */\n              dup3\n                /* \"Story.sol\":174:175  a */\n              dup5\n                /* \"Story.sol\":174:179  a + b */\n              tag_101\n              swap2\n              swap1\n              tag_102\n              jump\t// in\n            tag_101:\n                /* \"Story.sol\":162:179  uint256 c = a + b */\n              swap1\n              pop\n                /* \"Story.sol\":203:204  a */\n              dup4\n                /* \"Story.sol\":198:199  c */\n              dup2\n                /* \"Story.sol\":198:204  c >= a */\n              lt\n              iszero\n                /* \"Story.sol\":190:236  require(c >= a, \"SafeMath: addition overflow\") */\n              tag_103\n              jumpi\n              mload(0x40)\n              0x08c379a000000000000000000000000000000000000000000000000000000000\n              dup2\n              mstore\n              0x04\n              add\n              tag_104\n              swap1\n              tag_105\n              jump\t// in\n            tag_104:\n              mload(0x40)\n              dup1\n              swap2\n              sub\n              swap1\n              revert\n            tag_103:\n                /* \"Story.sol\":254:255  c */\n              dup1\n                /* \"Story.sol\":247:255  return c */\n              swap2\n              pop\n              pop\n                /* \"Story.sol\":84:263  function add(uint256 a, uint256 b) internal pure returns (uint256) {... */\n              swap3\n              swap2\n              pop\n              pop\n              jump\t// out\n                /* \"#utility.yul\":7:133   */\n            tag_106:\n                /* \"#utility.yul\":44:51   */\n              0x00\n                /* \"#utility.yul\":84:126   */\n              0xffffffffffffffffffffffffffffffffffffffff\n                /* \"#utility.yul\":77:82   */\n              dup3\n                /* \"#utility.yul\":73:127   */\n              and\n                /* \"#utility.yul\":62:127   */\n              swap1\n              pop\n                /* \"#utility.yul\":7:133   */\n              swap2\n              swap1\n              pop\n              jump\t// out\n                /* \"#utility.yul\":139:235   */\n            tag_107:\n                /* \"#utility.yul\":176:183   */\n              0x00\n                /* \"#utility.yul\":205:229   */\n              tag_141\n                /* \"#utility.yul\":223:228   */\n              dup3\n                /* \"#utility.yul\":205:229   */\n              tag_106\n              jump\t// in\n            tag_141:\n                /* \"#utility.yul\":194:229   */\n              swap1\n              pop\n                /* \"#utility.yul\":139:235   */\n              swap2\n              swap1\n              pop\n              jump\t// out\n                /* \"#utility.yul\":241:359   */\n            tag_108:\n                /* \"#utility.yul\":328:352   */\n              tag_143\n                /* \"#utility.yul\":346:351   */\n              dup2\n                /* \"#utility.yul\":328:352   */\n              tag_107\n              jump\t// in\n            tag_143:\n                /* \"#utility.yul\":323:326   */\n              dup3\n                /* \"#utility.yul\":316:353   */\n              mstore\n                /* \"#utility.yul\":241:359   */\n              pop\n              pop\n              jump\t// out\n                /* \"#utility.yul\":365:464   */\n            tag_109:\n                /* \"#utility.yul\":417:423   */\n              0x00\n                /* \"#utility.yul\":451:456   */\n              dup2\n                /* \"#utility.yul\":445:457   */\n              mload\n                /* \"#utility.yul\":435:457   */\n              swap1\n              pop\n                /* \"#utility.yul\":365:464   */\n              swap2\n              swap1\n              pop\n              jump\t// out\n                /* \"#utility.yul\":470:639   */\n            tag_110:\n                /* \"#utility.yul\":554:565   */\n              0x00\n                /* \"#utility.yul\":588:594   */\n              dup3\n                /* \"#utility.yul\":583:586   */\n              dup3\n                /* \"#utility.yul\":576:595   */\n              mstore\n                /* \"#utility.yul\":628:632   */\n              0x20\n                /* \"#utility.yul\":623:626   */\n              dup3\n                /* \"#utility.yul\":619:633   */\n              add\n                /* \"#utility.yul\":604:633   */\n              swap1\n              pop\n                /* \"#utility.yul\":470:639   */\n              swap3\n              swap2\n              pop\n              pop\n              jump\t// out\n                /* \"#utility.yul\":645:952   */\n            tag_111:\n                /* \"#utility.yul\":713:714   */\n              0x00\n                /* \"#utility.yul\":723:836   */\n            tag_147:\n                /* \"#utility.yul\":737:743   */\n              dup4\n                /* \"#utility.yul\":734:735   */\n              dup2\n                /* \"#utility.yul\":731:744   */\n              lt\n                /* \"#utility.yul\":723:836   */\n              iszero\n              tag_149\n              jumpi\n                /* \"#utility.yul\":822:823   */\n              dup1\n                /* \"#utility.yul\":817:820   */\n              dup3\n                /* \"#utility.yul\":813:824   */\n              add\n                /* \"#utility.yul\":807:825   */\n              mload\n                /* \"#utility.yul\":803:804   */\n              dup2\n                /* \"#utility.yul\":798:801   */\n              dup5\n                /* \"#utility.yul\":794:805   */\n              add\n                /* \"#utility.yul\":787:826   */\n              mstore\n                /* \"#utility.yul\":759:761   */\n              0x20\n                /* \"#utility.yul\":756:757   */\n              dup2\n                /* \"#utility.yul\":752:762   */\n              add\n                /* \"#utility.yul\":747:762   */\n              swap1\n              pop\n                /* \"#utility.yul\":723:836   */\n              jump(tag_147)\n            tag_149:\n                /* \"#utility.yul\":854:860   */\n              dup4\n                /* \"#utility.yul\":851:852   */\n              dup2\n                /* \"#utility.yul\":848:861   */\n              gt\n                /* \"#utility.yul\":845:946   */\n              iszero\n              tag_150\n              jumpi\n                /* \"#utility.yul\":934:935   */\n              0x00\n                /* \"#utility.yul\":925:931   */\n              dup5\n                /* \"#utility.yul\":920:923   */\n              dup5\n                /* \"#utility.yul\":916:932   */\n              add\n                /* \"#utility.yul\":909:936   */\n              mstore\n                /* \"#utility.yul\":845:946   */\n            tag_150:\n                /* \"#utility.yul\":694:952   */\n              pop\n                /* \"#utility.yul\":645:952   */\n              pop\n              pop\n              pop\n              jump\t// out\n                /* \"#utility.yul\":958:1060   */\n            tag_112:\n                /* \"#utility.yul\":999:1005   */\n              0x00\n                /* \"#utility.yul\":1050:1052   */\n              0x1f\n                /* \"#utility.yul\":1046:1053   */\n              not\n                /* \"#utility.yul\":1041:1043   */\n              0x1f\n                /* \"#utility.yul\":1034:1039   */\n              dup4\n                /* \"#utility.yul\":1030:1044   */\n              add\n                /* \"#utility.yul\":1026:1054   */\n              and\n                /* \"#utility.yul\":1016:1054   */\n              swap1\n              pop\n                /* \"#utility.yul\":958:1060   */\n              swap2\n              swap1\n              pop\n              jump\t// out\n                /* \"#utility.yul\":1066:1430   */\n            tag_113:\n                /* \"#utility.yul\":1154:1157   */\n              0x00\n                /* \"#utility.yul\":1182:1221   */\n              tag_153\n                /* \"#utility.yul\":1215:1220   */\n              dup3\n                /* \"#utility.yul\":1182:1221   */\n              tag_109\n              jump\t// in\n            tag_153:\n                /* \"#utility.yul\":1237:1308   */\n              tag_154\n                /* \"#utility.yul\":1301:1307   */\n              dup2\n                /* \"#utility.yul\":1296:1299   */\n              dup6\n                /* \"#utility.yul\":1237:1308   */\n              tag_110\n              jump\t// in\n            tag_154:\n                /* \"#utility.yul\":1230:1308   */\n              swap4\n              pop\n                /* \"#utility.yul\":1317:1369   */\n              tag_155\n                /* \"#utility.yul\":1362:1368   */\n              dup2\n                /* \"#utility.yul\":1357:1360   */\n              dup6\n                /* \"#utility.yul\":1350:1354   */\n              0x20\n                /* \"#utility.yul\":1343:1348   */\n              dup7\n                /* \"#utility.yul\":1339:1355   */\n              add\n                /* \"#utility.yul\":1317:1369   */\n              tag_111\n              jump\t// in\n            tag_155:\n                /* \"#utility.yul\":1394:1423   */\n              tag_156\n                /* \"#utility.yul\":1416:1422   */\n              dup2\n                /* \"#utility.yul\":1394:1423   */\n              tag_112\n              jump\t// in\n            tag_156:\n                /* \"#utility.yul\":1389:1392   */\n              dup5\n                /* \"#utility.yul\":1385:1424   */\n              add\n                /* \"#utility.yul\":1378:1424   */\n              swap2\n              pop\n                /* \"#utility.yul\":1158:1430   */\n              pop\n                /* \"#utility.yul\":1066:1430   */\n              swap3\n              swap2\n              pop\n              pop\n              jump\t// out\n                /* \"#utility.yul\":1436:1550   */\n            tag_114:\n                /* \"#utility.yul\":1503:1509   */\n              0x00\n                /* \"#utility.yul\":1537:1542   */\n              dup2\n                /* \"#utility.yul\":1531:1543   */\n              mload\n                /* \"#utility.yul\":1521:1543   */\n              swap1\n              pop\n                /* \"#utility.yul\":1436:1550   */\n              swap2\n              swap1\n              pop\n              jump\t// out\n                /* \"#utility.yul\":1556:1740   */\n            tag_115:\n                /* \"#utility.yul\":1655:1666   */\n              0x00\n                /* \"#utility.yul\":1689:1695   */\n              dup3\n                /* \"#utility.yul\":1684:1687   */\n              dup3\n                /* \"#utility.yul\":1677:1696   */\n              mstore\n                /* \"#utility.yul\":1729:1733   */\n              0x20\n                /* \"#utility.yul\":1724:1727   */\n              dup3\n                /* \"#utility.yul\":1720:1734   */\n              add\n                /* \"#utility.yul\":1705:1734   */\n              swap1\n              pop\n                /* \"#utility.yul\":1556:1740   */\n              swap3\n              swap2\n              pop\n              pop\n              jump\t// out\n                /* \"#utility.yul\":1746:1878   */\n            tag_116:\n                /* \"#utility.yul\":1813:1817   */\n              0x00\n                /* \"#utility.yul\":1836:1839   */\n              dup2\n                /* \"#utility.yul\":1828:1839   */\n              swap1\n              pop\n                /* \"#utility.yul\":1866:1870   */\n              0x20\n                /* \"#utility.yul\":1861:1864   */\n              dup3\n                /* \"#utility.yul\":1857:1871   */\n              add\n                /* \"#utility.yul\":1849:1871   */\n              swap1\n              pop\n                /* \"#utility.yul\":1746:1878   */\n              swap2\n              swap1\n              pop\n              jump\t// out\n                /* \"#utility.yul\":1884:1992   */\n            tag_117:\n                /* \"#utility.yul\":1961:1985   */\n              tag_161\n                /* \"#utility.yul\":1979:1984   */\n              dup2\n                /* \"#utility.yul\":1961:1985   */\n              tag_107\n              jump\t// in\n            tag_161:\n                /* \"#utility.yul\":1956:1959   */\n              dup3\n                /* \"#utility.yul\":1949:1986   */\n              mstore\n                /* \"#utility.yul\":1884:1992   */\n              pop\n              pop\n              jump\t// out\n                /* \"#utility.yul\":1998:2177   */\n            tag_118:\n                /* \"#utility.yul\":2067:2077   */\n              0x00\n                /* \"#utility.yul\":2088:2134   */\n              tag_163\n                /* \"#utility.yul\":2130:2133   */\n              dup4\n                /* \"#utility.yul\":2122:2128   */\n              dup4\n                /* \"#utility.yul\":2088:2134   */\n              tag_117\n              jump\t// in\n            tag_163:\n                /* \"#utility.yul\":2166:2170   */\n              0x20\n                /* \"#utility.yul\":2161:2164   */\n              dup4\n                /* \"#utility.yul\":2157:2171   */\n              add\n                /* \"#utility.yul\":2143:2171   */\n              swap1\n              pop\n                /* \"#utility.yul\":1998:2177   */\n              swap3\n              swap2\n              pop\n              pop\n              jump\t// out\n                /* \"#utility.yul\":2183:2296   */\n            tag_119:\n                /* \"#utility.yul\":2253:2257   */\n              0x00\n                /* \"#utility.yul\":2285:2289   */\n              0x20\n                /* \"#utility.yul\":2280:2283   */\n              dup3\n                /* \"#utility.yul\":2276:2290   */\n              add\n                /* \"#utility.yul\":2268:2290   */\n              swap1\n              pop\n                /* \"#utility.yul\":2183:2296   */\n              swap2\n              swap1\n              pop\n              jump\t// out\n                /* \"#utility.yul\":2332:3064   */\n            tag_120:\n                /* \"#utility.yul\":2451:2454   */\n              0x00\n                /* \"#utility.yul\":2480:2534   */\n              tag_166\n                /* \"#utility.yul\":2528:2533   */\n              dup3\n                /* \"#utility.yul\":2480:2534   */\n              tag_114\n              jump\t// in\n            tag_166:\n                /* \"#utility.yul\":2550:2636   */\n              tag_167\n                /* \"#utility.yul\":2629:2635   */\n              dup2\n                /* \"#utility.yul\":2624:2627   */\n              dup6\n                /* \"#utility.yul\":2550:2636   */\n              tag_115\n              jump\t// in\n            tag_167:\n                /* \"#utility.yul\":2543:2636   */\n              swap4\n              pop\n                /* \"#utility.yul\":2660:2716   */\n              tag_168\n                /* \"#utility.yul\":2710:2715   */\n              dup4\n                /* \"#utility.yul\":2660:2716   */\n              tag_116\n              jump\t// in\n            tag_168:\n                /* \"#utility.yul\":2739:2746   */\n              dup1\n                /* \"#utility.yul\":2770:2771   */\n              0x00\n                /* \"#utility.yul\":2755:3039   */\n            tag_169:\n                /* \"#utility.yul\":2780:2786   */\n              dup4\n                /* \"#utility.yul\":2777:2778   */\n              dup2\n                /* \"#utility.yul\":2774:2787   */\n              lt\n                /* \"#utility.yul\":2755:3039   */\n              iszero\n              tag_171\n              jumpi\n                /* \"#utility.yul\":2856:2862   */\n              dup2\n                /* \"#utility.yul\":2850:2863   */\n              mload\n                /* \"#utility.yul\":2883:2946   */\n              tag_172\n                /* \"#utility.yul\":2942:2945   */\n              dup9\n                /* \"#utility.yul\":2927:2940   */\n              dup3\n                /* \"#utility.yul\":2883:2946   */\n              tag_118\n              jump\t// in\n            tag_172:\n                /* \"#utility.yul\":2876:2946   */\n              swap8\n              pop\n                /* \"#utility.yul\":2969:3029   */\n              tag_173\n                /* \"#utility.yul\":3022:3028   */\n              dup4\n                /* \"#utility.yul\":2969:3029   */\n              tag_119\n              jump\t// in\n            tag_173:\n                /* \"#utility.yul\":2959:3029   */\n              swap3\n              pop\n                /* \"#utility.yul\":2815:3039   */\n              pop\n                /* \"#utility.yul\":2802:2803   */\n              0x01\n                /* \"#utility.yul\":2799:2800   */\n              dup2\n                /* \"#utility.yul\":2795:2804   */\n              add\n                /* \"#utility.yul\":2790:2804   */\n              swap1\n              pop\n                /* \"#utility.yul\":2755:3039   */\n              jump(tag_169)\n            tag_171:\n                /* \"#utility.yul\":2759:2773   */\n              pop\n                /* \"#utility.yul\":3055:3058   */\n              dup6\n                /* \"#utility.yul\":3048:3058   */\n              swap4\n              pop\n                /* \"#utility.yul\":2456:3064   */\n              pop\n              pop\n              pop\n                /* \"#utility.yul\":2332:3064   */\n              swap3\n              swap2\n              pop\n              pop\n              jump\t// out\n                /* \"#utility.yul\":3070:3147   */\n            tag_121:\n                /* \"#utility.yul\":3107:3114   */\n              0x00\n                /* \"#utility.yul\":3136:3141   */\n              dup2\n                /* \"#utility.yul\":3125:3141   */\n              swap1\n              pop\n                /* \"#utility.yul\":3070:3147   */\n              swap2\n              swap1\n              pop\n              jump\t// out\n                /* \"#utility.yul\":3153:3271   */\n            tag_122:\n                /* \"#utility.yul\":3240:3264   */\n              tag_176\n                /* \"#utility.yul\":3258:3263   */\n              dup2\n                /* \"#utility.yul\":3240:3264   */\n              tag_121\n              jump\t// in\n            tag_176:\n                /* \"#utility.yul\":3235:3238   */\n              dup3\n                /* \"#utility.yul\":3228:3265   */\n              mstore\n                /* \"#utility.yul\":3153:3271   */\n              pop\n              pop\n              jump\t// out\n                /* \"#utility.yul\":3277:4647   */\n            tag_18:\n                /* \"#utility.yul\":3678:3682   */\n              0x00\n                /* \"#utility.yul\":3716:3719   */\n              0xe0\n                /* \"#utility.yul\":3705:3714   */\n              dup3\n                /* \"#utility.yul\":3701:3720   */\n              add\n                /* \"#utility.yul\":3693:3720   */\n              swap1\n              pop\n                /* \"#utility.yul\":3730:3801   */\n              tag_178\n                /* \"#utility.yul\":3798:3799   */\n              0x00\n                /* \"#utility.yul\":3787:3796   */\n              dup4\n                /* \"#utility.yul\":3783:3800   */\n              add\n                /* \"#utility.yul\":3774:3780   */\n              dup11\n                /* \"#utility.yul\":3730:3801   */\n              tag_108\n              jump\t// in\n            tag_178:\n                /* \"#utility.yul\":3811:3883   */\n              tag_179\n                /* \"#utility.yul\":3879:3881   */\n              0x20\n                /* \"#utility.yul\":3868:3877   */\n              dup4\n                /* \"#utility.yul\":3864:3882   */\n              add\n                /* \"#utility.yul\":3855:3861   */\n              dup10\n                /* \"#utility.yul\":3811:3883   */\n              tag_108\n              jump\t// in\n            tag_179:\n                /* \"#utility.yul\":3930:3939   */\n              dup2\n                /* \"#utility.yul\":3924:3928   */\n              dup2\n                /* \"#utility.yul\":3920:3940   */\n              sub\n                /* \"#utility.yul\":3915:3917   */\n              0x40\n                /* \"#utility.yul\":3904:3913   */\n              dup4\n                /* \"#utility.yul\":3900:3918   */\n              add\n                /* \"#utility.yul\":3893:3941   */\n              mstore\n                /* \"#utility.yul\":3958:4036   */\n              tag_180\n                /* \"#utility.yul\":4031:4035   */\n              dup2\n                /* \"#utility.yul\":4022:4028   */\n              dup9\n                /* \"#utility.yul\":3958:4036   */\n              tag_113\n              jump\t// in\n            tag_180:\n                /* \"#utility.yul\":3950:4036   */\n              swap1\n              pop\n                /* \"#utility.yul\":4083:4092   */\n              dup2\n                /* \"#utility.yul\":4077:4081   */\n              dup2\n                /* \"#utility.yul\":4073:4093   */\n              sub\n                /* \"#utility.yul\":4068:4070   */\n              0x60\n                /* \"#utility.yul\":4057:4066   */\n              dup4\n                /* \"#utility.yul\":4053:4071   */\n              add\n                /* \"#utility.yul\":4046:4094   */\n              mstore\n                /* \"#utility.yul\":4111:4189   */\n              tag_181\n                /* \"#utility.yul\":4184:4188   */\n              dup2\n                /* \"#utility.yul\":4175:4181   */\n              dup8\n                /* \"#utility.yul\":4111:4189   */\n              tag_113\n              jump\t// in\n            tag_181:\n                /* \"#utility.yul\":4103:4189   */\n              swap1\n              pop\n                /* \"#utility.yul\":4237:4246   */\n              dup2\n                /* \"#utility.yul\":4231:4235   */\n              dup2\n                /* \"#utility.yul\":4227:4247   */\n              sub\n                /* \"#utility.yul\":4221:4224   */\n              0x80\n                /* \"#utility.yul\":4210:4219   */\n              dup4\n                /* \"#utility.yul\":4206:4225   */\n              add\n                /* \"#utility.yul\":4199:4248   */\n              mstore\n                /* \"#utility.yul\":4265:4373   */\n              tag_182\n                /* \"#utility.yul\":4368:4372   */\n              dup2\n                /* \"#utility.yul\":4359:4365   */\n              dup7\n                /* \"#utility.yul\":4265:4373   */\n              tag_120\n              jump\t// in\n            tag_182:\n                /* \"#utility.yul\":4257:4373   */\n              swap1\n              pop\n                /* \"#utility.yul\":4421:4430   */\n              dup2\n                /* \"#utility.yul\":4415:4419   */\n              dup2\n                /* \"#utility.yul\":4411:4431   */\n              sub\n                /* \"#utility.yul\":4405:4408   */\n              0xa0\n                /* \"#utility.yul\":4394:4403   */\n              dup4\n                /* \"#utility.yul\":4390:4409   */\n              add\n                /* \"#utility.yul\":4383:4432   */\n              mstore\n                /* \"#utility.yul\":4449:4557   */\n              tag_183\n                /* \"#utility.yul\":4552:4556   */\n              dup2\n                /* \"#utility.yul\":4543:4549   */\n              dup6\n                /* \"#utility.yul\":4449:4557   */\n              tag_120\n              jump\t// in\n            tag_183:\n                /* \"#utility.yul\":4441:4557   */\n              swap1\n              pop\n                /* \"#utility.yul\":4567:4640   */\n              tag_184\n                /* \"#utility.yul\":4635:4638   */\n              0xc0\n                /* \"#utility.yul\":4624:4633   */\n              dup4\n                /* \"#utility.yul\":4620:4639   */\n              add\n                /* \"#utility.yul\":4611:4617   */\n              dup5\n                /* \"#utility.yul\":4567:4640   */\n              tag_122\n              jump\t// in\n            tag_184:\n                /* \"#utility.yul\":3277:4647   */\n              swap9\n              swap8\n              pop\n              pop\n              pop\n              pop\n              pop\n              pop\n              pop\n              pop\n              jump\t// out\n                /* \"#utility.yul\":4653:4875   */\n            tag_22:\n                /* \"#utility.yul\":4746:4750   */\n              0x00\n                /* \"#utility.yul\":4784:4786   */\n              0x20\n                /* \"#utility.yul\":4773:4782   */\n              dup3\n                /* \"#utility.yul\":4769:4787   */\n              add\n                /* \"#utility.yul\":4761:4787   */\n              swap1\n              pop\n                /* \"#utility.yul\":4797:4868   */\n              tag_186\n                /* \"#utility.yul\":4865:4866   */\n              0x00\n                /* \"#utility.yul\":4854:4863   */\n              dup4\n                /* \"#utility.yul\":4850:4867   */\n              add\n                /* \"#utility.yul\":4841:4847   */\n              dup5\n                /* \"#utility.yul\":4797:4868   */\n              tag_108\n              jump\t// in\n            tag_186:\n                /* \"#utility.yul\":4653:4875   */\n              swap3\n              swap2\n              pop\n              pop\n              jump\t// out\n                /* \"#utility.yul\":4881:5194   */\n            tag_26:\n                /* \"#utility.yul\":4994:4998   */\n              0x00\n                /* \"#utility.yul\":5032:5034   */\n              0x20\n                /* \"#utility.yul\":5021:5030   */\n              dup3\n                /* \"#utility.yul\":5017:5035   */\n              add\n                /* \"#utility.yul\":5009:5035   */\n              swap1\n              pop\n                /* \"#utility.yul\":5081:5090   */\n              dup2\n                /* \"#utility.yul\":5075:5079   */\n              dup2\n                /* \"#utility.yul\":5071:5091   */\n              sub\n                /* \"#utility.yul\":5067:5068   */\n              0x00\n                /* \"#utility.yul\":5056:5065   */\n              dup4\n                /* \"#utility.yul\":5052:5069   */\n              add\n                /* \"#utility.yul\":5045:5092   */\n              mstore\n                /* \"#utility.yul\":5109:5187   */\n              tag_188\n                /* \"#utility.yul\":5182:5186   */\n              dup2\n                /* \"#utility.yul\":5173:5179   */\n              dup5\n                /* \"#utility.yul\":5109:5187   */\n              tag_113\n              jump\t// in\n            tag_188:\n                /* \"#utility.yul\":5101:5187   */\n              swap1\n              pop\n                /* \"#utility.yul\":4881:5194   */\n              swap3\n              swap2\n              pop\n              pop\n              jump\t// out\n                /* \"#utility.yul\":5281:5398   */\n            tag_124:\n                /* \"#utility.yul\":5390:5391   */\n              0x00\n                /* \"#utility.yul\":5387:5388   */\n              dup1\n                /* \"#utility.yul\":5380:5392   */\n              revert\n                /* \"#utility.yul\":5527:5649   */\n            tag_126:\n                /* \"#utility.yul\":5600:5624   */\n              tag_193\n                /* \"#utility.yul\":5618:5623   */\n              dup2\n                /* \"#utility.yul\":5600:5624   */\n              tag_107\n              jump\t// in\n            tag_193:\n                /* \"#utility.yul\":5593:5598   */\n              dup2\n                /* \"#utility.yul\":5590:5625   */\n              eq\n                /* \"#utility.yul\":5580:5643   */\n              tag_194\n              jumpi\n                /* \"#utility.yul\":5639:5640   */\n              0x00\n                /* \"#utility.yul\":5636:5637   */\n              dup1\n                /* \"#utility.yul\":5629:5641   */\n              revert\n                /* \"#utility.yul\":5580:5643   */\n            tag_194:\n                /* \"#utility.yul\":5527:5649   */\n              pop\n              jump\t// out\n                /* \"#utility.yul\":5655:5794   */\n            tag_127:\n                /* \"#utility.yul\":5701:5706   */\n              0x00\n                /* \"#utility.yul\":5739:5745   */\n              dup2\n                /* \"#utility.yul\":5726:5746   */\n              calldataload\n                /* \"#utility.yul\":5717:5746   */\n              swap1\n              pop\n                /* \"#utility.yul\":5755:5788   */\n              tag_196\n                /* \"#utility.yul\":5782:5787   */\n              dup2\n                /* \"#utility.yul\":5755:5788   */\n              tag_126\n              jump\t// in\n            tag_196:\n                /* \"#utility.yul\":5655:5794   */\n              swap3\n              swap2\n              pop\n              pop\n              jump\t// out\n                /* \"#utility.yul\":5800:6129   */\n            tag_29:\n                /* \"#utility.yul\":5859:5865   */\n              0x00\n                /* \"#utility.yul\":5908:5910   */\n              0x20\n                /* \"#utility.yul\":5896:5905   */\n              dup3\n                /* \"#utility.yul\":5887:5894   */\n              dup5\n                /* \"#utility.yul\":5883:5906   */\n              sub\n                /* \"#utility.yul\":5879:5911   */\n              slt\n                /* \"#utility.yul\":5876:5995   */\n              iszero\n              tag_198\n              jumpi\n                /* \"#utility.yul\":5914:5993   */\n              tag_199\n              tag_124\n              jump\t// in\n            tag_199:\n                /* \"#utility.yul\":5876:5995   */\n            tag_198:\n                /* \"#utility.yul\":6034:6035   */\n              0x00\n                /* \"#utility.yul\":6059:6112   */\n              tag_200\n                /* \"#utility.yul\":6104:6111   */\n              dup5\n                /* \"#utility.yul\":6095:6101   */\n              dup3\n                /* \"#utility.yul\":6084:6093   */\n              dup6\n                /* \"#utility.yul\":6080:6102   */\n              add\n                /* \"#utility.yul\":6059:6112   */\n              tag_127\n              jump\t// in\n            tag_200:\n                /* \"#utility.yul\":6049:6112   */\n              swap2\n              pop\n                /* \"#utility.yul\":6005:6122   */\n              pop\n                /* \"#utility.yul\":5800:6129   */\n              swap3\n              swap2\n              pop\n              pop\n              jump\t// out\n                /* \"#utility.yul\":6135:6257   */\n            tag_128:\n                /* \"#utility.yul\":6208:6232   */\n              tag_202\n                /* \"#utility.yul\":6226:6231   */\n              dup2\n                /* \"#utility.yul\":6208:6232   */\n              tag_121\n              jump\t// in\n            tag_202:\n                /* \"#utility.yul\":6201:6206   */\n              dup2\n                /* \"#utility.yul\":6198:6233   */\n              eq\n                /* \"#utility.yul\":6188:6251   */\n              tag_203\n              jumpi\n                /* \"#utility.yul\":6247:6248   */\n              0x00\n                /* \"#utility.yul\":6244:6245   */\n              dup1\n                /* \"#utility.yul\":6237:6249   */\n              revert\n                /* \"#utility.yul\":6188:6251   */\n            tag_203:\n                /* \"#utility.yul\":6135:6257   */\n              pop\n              jump\t// out\n                /* \"#utility.yul\":6263:6402   */\n            tag_129:\n                /* \"#utility.yul\":6309:6314   */\n              0x00\n                /* \"#utility.yul\":6347:6353   */\n              dup2\n                /* \"#utility.yul\":6334:6354   */\n              calldataload\n                /* \"#utility.yul\":6325:6354   */\n              swap1\n              pop\n                /* \"#utility.yul\":6363:6396   */\n              tag_205\n                /* \"#utility.yul\":6390:6395   */\n              dup2\n                /* \"#utility.yul\":6363:6396   */\n              tag_128\n              jump\t// in\n            tag_205:\n                /* \"#utility.yul\":6263:6402   */\n              swap3\n              swap2\n              pop\n              pop\n              jump\t// out\n                /* \"#utility.yul\":6408:6737   */\n            tag_41:\n                /* \"#utility.yul\":6467:6473   */\n              0x00\n                /* \"#utility.yul\":6516:6518   */\n              0x20\n                /* \"#utility.yul\":6504:6513   */\n              dup3\n                /* \"#utility.yul\":6495:6502   */\n              dup5\n                /* \"#utility.yul\":6491:6514   */\n              sub\n                /* \"#utility.yul\":6487:6519   */\n              slt\n                /* \"#utility.yul\":6484:6603   */\n              iszero\n              tag_207\n              jumpi\n                /* \"#utility.yul\":6522:6601   */\n              tag_208\n              tag_124\n              jump\t// in\n            tag_208:\n                /* \"#utility.yul\":6484:6603   */\n            tag_207:\n                /* \"#utility.yul\":6642:6643   */\n              0x00\n                /* \"#utility.yul\":6667:6720   */\n              tag_209\n                /* \"#utility.yul\":6712:6719   */\n              dup5\n                /* \"#utility.yul\":6703:6709   */\n              dup3\n                /* \"#utility.yul\":6692:6701   */\n              dup6\n                /* \"#utility.yul\":6688:6710   */\n              add\n                /* \"#utility.yul\":6667:6720   */\n              tag_129\n              jump\t// in\n            tag_209:\n                /* \"#utility.yul\":6657:6720   */\n              swap2\n              pop\n                /* \"#utility.yul\":6613:6730   */\n              pop\n                /* \"#utility.yul\":6408:6737   */\n              swap3\n              swap2\n              pop\n              pop\n              jump\t// out\n                /* \"#utility.yul\":6743:6965   */\n            tag_50:\n                /* \"#utility.yul\":6836:6840   */\n              0x00\n                /* \"#utility.yul\":6874:6876   */\n              0x20\n                /* \"#utility.yul\":6863:6872   */\n              dup3\n                /* \"#utility.yul\":6859:6877   */\n              add\n                /* \"#utility.yul\":6851:6877   */\n              swap1\n              pop\n                /* \"#utility.yul\":6887:6958   */\n              tag_211\n                /* \"#utility.yul\":6955:6956   */\n              0x00\n                /* \"#utility.yul\":6944:6953   */\n              dup4\n                /* \"#utility.yul\":6940:6957   */\n              add\n                /* \"#utility.yul\":6931:6937   */\n              dup5\n                /* \"#utility.yul\":6887:6958   */\n              tag_122\n              jump\t// in\n            tag_211:\n                /* \"#utility.yul\":6743:6965   */\n              swap3\n              swap2\n              pop\n              pop\n              jump\t// out\n                /* \"#utility.yul\":6971:7151   */\n            tag_130:\n                /* \"#utility.yul\":7019:7096   */\n              0x4e487b7100000000000000000000000000000000000000000000000000000000\n                /* \"#utility.yul\":7016:7017   */\n              0x00\n                /* \"#utility.yul\":7009:7097   */\n              mstore\n                /* \"#utility.yul\":7116:7120   */\n              0x22\n                /* \"#utility.yul\":7113:7114   */\n              0x04\n                /* \"#utility.yul\":7106:7121   */\n              mstore\n                /* \"#utility.yul\":7140:7144   */\n              0x24\n                /* \"#utility.yul\":7137:7138   */\n              0x00\n                /* \"#utility.yul\":7130:7145   */\n              revert\n                /* \"#utility.yul\":7157:7477   */\n            tag_57:\n                /* \"#utility.yul\":7201:7207   */\n              0x00\n                /* \"#utility.yul\":7238:7239   */\n              0x02\n                /* \"#utility.yul\":7232:7236   */\n              dup3\n                /* \"#utility.yul\":7228:7240   */\n              div\n                /* \"#utility.yul\":7218:7240   */\n              swap1\n              pop\n                /* \"#utility.yul\":7285:7286   */\n              0x01\n                /* \"#utility.yul\":7279:7283   */\n              dup3\n                /* \"#utility.yul\":7275:7287   */\n              and\n                /* \"#utility.yul\":7306:7324   */\n              dup1\n                /* \"#utility.yul\":7296:7377   */\n              tag_214\n              jumpi\n                /* \"#utility.yul\":7362:7366   */\n              0x7f\n                /* \"#utility.yul\":7354:7360   */\n              dup3\n                /* \"#utility.yul\":7350:7367   */\n              and\n                /* \"#utility.yul\":7340:7367   */\n              swap2\n              pop\n                /* \"#utility.yul\":7296:7377   */\n            tag_214:\n                /* \"#utility.yul\":7424:7426   */\n              0x20\n                /* \"#utility.yul\":7416:7422   */\n              dup3\n                /* \"#utility.yul\":7413:7427   */\n              lt\n                /* \"#utility.yul\":7393:7411   */\n              dup2\n                /* \"#utility.yul\":7390:7428   */\n              eq\n                /* \"#utility.yul\":7387:7471   */\n              iszero\n              tag_215\n              jumpi\n                /* \"#utility.yul\":7443:7461   */\n              tag_216\n              tag_130\n              jump\t// in\n            tag_216:\n                /* \"#utility.yul\":7387:7471   */\n            tag_215:\n                /* \"#utility.yul\":7208:7477   */\n              pop\n                /* \"#utility.yul\":7157:7477   */\n              swap2\n              swap1\n              pop\n              jump\t// out\n                /* \"#utility.yul\":7483:7788   */\n            tag_131:\n                /* \"#utility.yul\":7623:7657   */\n              0x546869732066756e6374696f6e2068617320746f2062652063616c6c65642066\n                /* \"#utility.yul\":7619:7620   */\n              0x00\n                /* \"#utility.yul\":7611:7617   */\n              dup3\n                /* \"#utility.yul\":7607:7621   */\n              add\n                /* \"#utility.yul\":7600:7658   */\n              mstore\n                /* \"#utility.yul\":7692:7726   */\n              0x726f6d207468652073746f727920636f6e747261637420627920616e20616363\n                /* \"#utility.yul\":7687:7689   */\n              0x20\n                /* \"#utility.yul\":7679:7685   */\n              dup3\n                /* \"#utility.yul\":7675:7690   */\n              add\n                /* \"#utility.yul\":7668:7727   */\n              mstore\n                /* \"#utility.yul\":7761:7780   */\n              0x657074656420617574686f72206f6e6c79000000000000000000000000000000\n                /* \"#utility.yul\":7756:7758   */\n              0x40\n                /* \"#utility.yul\":7748:7754   */\n              dup3\n                /* \"#utility.yul\":7744:7759   */\n              add\n                /* \"#utility.yul\":7737:7781   */\n              mstore\n                /* \"#utility.yul\":7483:7788   */\n              pop\n              jump\t// out\n                /* \"#utility.yul\":7794:8160   */\n            tag_132:\n                /* \"#utility.yul\":7936:7939   */\n              0x00\n                /* \"#utility.yul\":7957:8024   */\n              tag_219\n                /* \"#utility.yul\":8021:8023   */\n              0x51\n                /* \"#utility.yul\":8016:8019   */\n              dup4\n                /* \"#utility.yul\":7957:8024   */\n              tag_110\n              jump\t// in\n            tag_219:\n                /* \"#utility.yul\":7950:8024   */\n              swap2\n              pop\n                /* \"#utility.yul\":8033:8126   */\n              tag_220\n                /* \"#utility.yul\":8122:8125   */\n              dup3\n                /* \"#utility.yul\":8033:8126   */\n              tag_131\n              jump\t// in\n            tag_220:\n                /* \"#utility.yul\":8151:8153   */\n              0x60\n                /* \"#utility.yul\":8146:8149   */\n              dup3\n                /* \"#utility.yul\":8142:8154   */\n              add\n                /* \"#utility.yul\":8135:8154   */\n              swap1\n              pop\n                /* \"#utility.yul\":7794:8160   */\n              swap2\n              swap1\n              pop\n              jump\t// out\n                /* \"#utility.yul\":8166:8585   */\n            tag_79:\n                /* \"#utility.yul\":8332:8336   */\n              0x00\n                /* \"#utility.yul\":8370:8372   */\n              0x20\n                /* \"#utility.yul\":8359:8368   */\n              dup3\n                /* \"#utility.yul\":8355:8373   */\n              add\n                /* \"#utility.yul\":8347:8373   */\n              swap1\n              pop\n                /* \"#utility.yul\":8419:8428   */\n              dup2\n                /* \"#utility.yul\":8413:8417   */\n              dup2\n                /* \"#utility.yul\":8409:8429   */\n              sub\n                /* \"#utility.yul\":8405:8406   */\n              0x00\n                /* \"#utility.yul\":8394:8403   */\n              dup4\n                /* \"#utility.yul\":8390:8407   */\n              add\n                /* \"#utility.yul\":8383:8430   */\n              mstore\n                /* \"#utility.yul\":8447:8578   */\n              tag_222\n                /* \"#utility.yul\":8573:8577   */\n              dup2\n                /* \"#utility.yul\":8447:8578   */\n              tag_132\n              jump\t// in\n            tag_222:\n                /* \"#utility.yul\":8439:8578   */\n              swap1\n              pop\n                /* \"#utility.yul\":8166:8585   */\n              swap2\n              swap1\n              pop\n              jump\t// out\n                /* \"#utility.yul\":8591:8768   */\n            tag_133:\n                /* \"#utility.yul\":8731:8760   */\n              0x596f75206c696b656420746869732073746f7279206265666f72650000000000\n                /* \"#utility.yul\":8727:8728   */\n              0x00\n                /* \"#utility.yul\":8719:8725   */\n              dup3\n                /* \"#utility.yul\":8715:8729   */\n              add\n                /* \"#utility.yul\":8708:8761   */\n              mstore\n                /* \"#utility.yul\":8591:8768   */\n              pop\n              jump\t// out\n                /* \"#utility.yul\":8774:9140   */\n            tag_134:\n                /* \"#utility.yul\":8916:8919   */\n              0x00\n                /* \"#utility.yul\":8937:9004   */\n              tag_225\n                /* \"#utility.yul\":9001:9003   */\n              0x1b\n                /* \"#utility.yul\":8996:8999   */\n              dup4\n                /* \"#utility.yul\":8937:9004   */\n              tag_110\n              jump\t// in\n            tag_225:\n                /* \"#utility.yul\":8930:9004   */\n              swap2\n              pop\n                /* \"#utility.yul\":9013:9106   */\n              tag_226\n                /* \"#utility.yul\":9102:9105   */\n              dup3\n                /* \"#utility.yul\":9013:9106   */\n              tag_133\n              jump\t// in\n            tag_226:\n                /* \"#utility.yul\":9131:9133   */\n              0x20\n                /* \"#utility.yul\":9126:9129   */\n              dup3\n                /* \"#utility.yul\":9122:9134   */\n              add\n                /* \"#utility.yul\":9115:9134   */\n              swap1\n              pop\n                /* \"#utility.yul\":8774:9140   */\n              swap2\n              swap1\n              pop\n              jump\t// out\n                /* \"#utility.yul\":9146:9565   */\n            tag_88:\n                /* \"#utility.yul\":9312:9316   */\n              0x00\n                /* \"#utility.yul\":9350:9352   */\n              0x20\n                /* \"#utility.yul\":9339:9348   */\n              dup3\n                /* \"#utility.yul\":9335:9353   */\n              add\n                /* \"#utility.yul\":9327:9353   */\n              swap1\n              pop\n                /* \"#utility.yul\":9399:9408   */\n              dup2\n                /* \"#utility.yul\":9393:9397   */\n              dup2\n                /* \"#utility.yul\":9389:9409   */\n              sub\n                /* \"#utility.yul\":9385:9386   */\n              0x00\n                /* \"#utility.yul\":9374:9383   */\n              dup4\n                /* \"#utility.yul\":9370:9387   */\n              add\n                /* \"#utility.yul\":9363:9410   */\n              mstore\n                /* \"#utility.yul\":9427:9558   */\n              tag_228\n                /* \"#utility.yul\":9553:9557   */\n              dup2\n                /* \"#utility.yul\":9427:9558   */\n              tag_134\n              jump\t// in\n            tag_228:\n                /* \"#utility.yul\":9419:9558   */\n              swap1\n              pop\n                /* \"#utility.yul\":9146:9565   */\n              swap2\n              swap1\n              pop\n              jump\t// out\n                /* \"#utility.yul\":9571:9751   */\n            tag_135:\n                /* \"#utility.yul\":9619:9696   */\n              0x4e487b7100000000000000000000000000000000000000000000000000000000\n                /* \"#utility.yul\":9616:9617   */\n              0x00\n                /* \"#utility.yul\":9609:9697   */\n              mstore\n                /* \"#utility.yul\":9716:9720   */\n              0x11\n                /* \"#utility.yul\":9713:9714   */\n              0x04\n                /* \"#utility.yul\":9706:9721   */\n              mstore\n                /* \"#utility.yul\":9740:9744   */\n              0x24\n                /* \"#utility.yul\":9737:9738   */\n              0x00\n                /* \"#utility.yul\":9730:9745   */\n              revert\n                /* \"#utility.yul\":9757:10062   */\n            tag_102:\n                /* \"#utility.yul\":9797:9800   */\n              0x00\n                /* \"#utility.yul\":9816:9836   */\n              tag_231\n                /* \"#utility.yul\":9834:9835   */\n              dup3\n                /* \"#utility.yul\":9816:9836   */\n              tag_121\n              jump\t// in\n            tag_231:\n                /* \"#utility.yul\":9811:9836   */\n              swap2\n              pop\n                /* \"#utility.yul\":9850:9870   */\n              tag_232\n                /* \"#utility.yul\":9868:9869   */\n              dup4\n                /* \"#utility.yul\":9850:9870   */\n              tag_121\n              jump\t// in\n            tag_232:\n                /* \"#utility.yul\":9845:9870   */\n              swap3\n              pop\n                /* \"#utility.yul\":10004:10005   */\n              dup3\n                /* \"#utility.yul\":9936:10002   */\n              0xffffffffffffffffffffffffffffffffffffffffffffffffffffffffffffffff\n                /* \"#utility.yul\":9932:10006   */\n              sub\n                /* \"#utility.yul\":9929:9930   */\n              dup3\n                /* \"#utility.yul\":9926:10007   */\n              gt\n                /* \"#utility.yul\":9923:10030   */\n              iszero\n              tag_233\n              jumpi\n                /* \"#utility.yul\":10010:10028   */\n              tag_234\n              tag_135\n              jump\t// in\n            tag_234:\n                /* \"#utility.yul\":9923:10030   */\n            tag_233:\n                /* \"#utility.yul\":10054:10055   */\n              dup3\n                /* \"#utility.yul\":10051:10052   */\n              dup3\n                /* \"#utility.yul\":10047:10056   */\n              add\n                /* \"#utility.yul\":10040:10056   */\n              swap1\n              pop\n                /* \"#utility.yul\":9757:10062   */\n              swap3\n              swap2\n              pop\n              pop\n              jump\t// out\n                /* \"#utility.yul\":10068:10245   */\n            tag_136:\n                /* \"#utility.yul\":10208:10237   */\n              0x536166654d6174683a206164646974696f6e206f766572666c6f770000000000\n                /* \"#utility.yul\":10204:10205   */\n              0x00\n                /* \"#utility.yul\":10196:10202   */\n              dup3\n                /* \"#utility.yul\":10192:10206   */\n              add\n                /* \"#utility.yul\":10185:10238   */\n              mstore\n                /* \"#utility.yul\":10068:10245   */\n              pop\n              jump\t// out\n                /* \"#utility.yul\":10251:10617   */\n            tag_137:\n                /* \"#utility.yul\":10393:10396   */\n              0x00\n                /* \"#utility.yul\":10414:10481   */\n              tag_237\n                /* \"#utility.yul\":10478:10480   */\n              0x1b\n                /* \"#utility.yul\":10473:10476   */\n              dup4\n                /* \"#utility.yul\":10414:10481   */\n              tag_110\n              jump\t// in\n            tag_237:\n                /* \"#utility.yul\":10407:10481   */\n              swap2\n              pop\n                /* \"#utility.yul\":10490:10583   */\n              tag_238\n                /* \"#utility.yul\":10579:10582   */\n              dup3\n                /* \"#utility.yul\":10490:10583   */\n              tag_136\n              jump\t// in\n            tag_238:\n                /* \"#utility.yul\":10608:10610   */\n              0x20\n                /* \"#utility.yul\":10603:10606   */\n              dup3\n                /* \"#utility.yul\":10599:10611   */\n              add\n                /* \"#utility.yul\":10592:10611   */\n              swap1\n              pop\n                /* \"#utility.yul\":10251:10617   */\n              swap2\n              swap1\n              pop\n              jump\t// out\n                /* \"#utility.yul\":10623:11042   */\n            tag_105:\n                /* \"#utility.yul\":10789:10793   */\n              0x00\n                /* \"#utility.yul\":10827:10829   */\n              0x20\n                /* \"#utility.yul\":10816:10825   */\n              dup3\n                /* \"#utility.yul\":10812:10830   */\n              add\n                /* \"#utility.yul\":10804:10830   */\n              swap1\n              pop\n                /* \"#utility.yul\":10876:10885   */\n              dup2\n                /* \"#utility.yul\":10870:10874   */\n              dup2\n                /* \"#utility.yul\":10866:10886   */\n              sub\n                /* \"#utility.yul\":10862:10863   */\n              0x00\n                /* \"#utility.yul\":10851:10860   */\n              dup4\n                /* \"#utility.yul\":10847:10864   */\n              add\n                /* \"#utility.yul\":10840:10887   */\n              mstore\n                /* \"#utility.yul\":10904:11035   */\n              tag_240\n                /* \"#utility.yul\":11030:11034   */\n              dup2\n                /* \"#utility.yul\":10904:11035   */\n              tag_137\n              jump\t// in\n            tag_240:\n                /* \"#utility.yul\":10896:11035   */\n              swap1\n              pop\n                /* \"#utility.yul\":10623:11042   */\n              swap2\n              swap1\n              pop\n              jump\t// out\n\n            auxdata: 0xa264697066735822122091231a57b1141b22739c43bede89e78143bd98fb143bf7b0a9c73876d7d8d34764736f6c63430008090033\n        }\n    }\n\n    auxdata: 0xa2646970667358221220ce1089603a2c02670614e6d65e7a4094834f3629d88c7769cd0e0e5e782327a564736f6c63430008090033\n}\n","bytecode":{"linkReferences":{},"object":"60806040523480156200001157600080fd5b5060405162004c0438038062004c0483398181016040528101906200003791906200046e565b846000806101000a81548173ffffffffffffffffffffffffffffffffffffffff021916908373ffffffffffffffffffffffffffffffffffffffff1602179055506001600560008773ffffffffffffffffffffffffffffffffffffffff1673ffffffffffffffffffffffffffffffffffffffff16815260200190815260200160002060006101000a81548160ff0219169083151502179055506006859080600181540180825580915050600190039060005260206000200160009091909190916101000a81548173ffffffffffffffffffffffffffffffffffffffff021916908373ffffffffffffffffffffffffffffffffffffffff16021790555083600190805190602001906200014a929190620001bc565b50826002908051906020019062000163929190620001bc565b5081600390805190602001906200017c929190620001bc565b50806004908051906020019062000195929190620001bc565b506000600c60006101000a81548160ff0219169083151502179055505050505050620005d7565b828054620001ca90620005a1565b90600052602060002090601f016020900481019282620001ee57600085556200023a565b82601f106200020957805160ff19168380011785556200023a565b828001600101855582156200023a579182015b82811115620002395782518255916020019190600101906200021c565b5b5090506200024991906200024d565b5090565b5b80821115620002685760008160009055506001016200024e565b5090565b6000604051905090565b600080fd5b600080fd5b600073ffffffffffffffffffffffffffffffffffffffff82169050919050565b6000620002ad8262000280565b9050919050565b620002bf81620002a0565b8114620002cb57600080fd5b50565b600081519050620002df81620002b4565b92915050565b600080fd5b600080fd5b6000601f19601f8301169050919050565b7f4e487b7100000000000000000000000000000000000000000000000000000000600052604160045260246000fd5b6200033a82620002ef565b810181811067ffffffffffffffff821117156200035c576200035b62000300565b5b80604052505050565b6000620003716200026c565b90506200037f82826200032f565b919050565b600067ffffffffffffffff821115620003a257620003a162000300565b5b620003ad82620002ef565b9050602081019050919050565b60005b83811015620003da578082015181840152602081019050620003bd565b83811115620003ea576000848401525b50505050565b600062000407620004018462000384565b62000365565b905082815260208101848484011115620004265762000425620002ea565b5b62000433848285620003ba565b509392505050565b600082601f830112620004535762000452620002e5565b5b815162000465848260208601620003f0565b91505092915050565b600080600080600060a086880312156200048d576200048c62000276565b5b60006200049d88828901620002ce565b955050602086015167ffffffffffffffff811115620004c157620004c06200027b565b5b620004cf888289016200043b565b945050604086015167ffffffffffffffff811115620004f357620004f26200027b565b5b62000501888289016200043b565b935050606086015167ffffffffffffffff8111156200052557620005246200027b565b5b62000533888289016200043b565b925050608086015167ffffffffffffffff8111156200055757620005566200027b565b5b62000565888289016200043b565b9150509295509295909350565b7f4e487b7100000000000000000000000000000000000000000000000000000000600052602260045260246000fd5b60006002820490506001821680620005ba57607f821691505b60208210811415620005d157620005d062000572565b5b50919050565b61461d80620005e76000396000f3fe608060405260043610620000fe5760003560e01c80637f51aaf911620000975780639d3ed80711620000615780639d3ed807146200032d578063b52025221462000371578063d7bb99ba14620003b5578063dfa14e2314620003c157620000fe565b80637f51aaf9146200025d57806398b7962814620002a1578063992b11dc14620002cf5780639c636a0f14620002fd57620000fe565b80634051ddac11620000d95780634051ddac146200017b5780635cf298fb14620001b55780635d1a870a14620001e55780636fc6c579146200021557620000fe565b80632606a10b14620001035780633b6246c2146200011d5780633e5690f41462000137575b600080fd5b3480156200011057600080fd5b506200011b620003ef565b005b3480156200012a57600080fd5b5062000135620005f6565b005b3480156200014457600080fd5b506200016360048036038101906200015d919062001e69565b62000827565b60405162000172919062001eb8565b60405180910390f35b3480156200018857600080fd5b506200019362000847565b604051620001ac9b9a9998979695949392919062002073565b60405180910390f35b348015620001c257600080fd5b50620001cd62000c27565b604051620001dc919062001eb8565b60405180910390f35b348015620001f257600080fd5b50620001fd62000c7b565b6040516200020c919062001eb8565b60405180910390f35b3480156200022257600080fd5b506200024160048036038101906200023b91906200218f565b62000c8e565b60405162000254959493929190620021c1565b60405180910390f35b3480156200026a57600080fd5b5062000289600480360381019062000283919062001e69565b62000d92565b60405162000298919062001eb8565b60405180910390f35b348015620002ae57600080fd5b50620002cd6004803603810190620002c791906200218f565b62000db2565b005b348015620002dc57600080fd5b50620002fb6004803603810190620002f5919062002376565b620011f0565b005b3480156200030a57600080fd5b5062000315620016ee565b60405162000324919062002426565b60405180910390f35b3480156200033a57600080fd5b506200035960048036038101906200035391906200218f565b6200177e565b6040516200036891906200244a565b60405180910390f35b3480156200037e57600080fd5b506200039d60048036038101906200039791906200218f565b620017be565b604051620003ac91906200244a565b60405180910390f35b620003bf620017fe565b005b348015620003ce57600080fd5b50620003ed6004803603810190620003e7919062002467565b620018d0565b005b600960009054906101000a900460ff161562000442576040517f08c379a0000000000000000000000000000000000000000000000000000000008152600401620004399062002508565b60405180910390fd5b6001600960006101000a81548160ff021916908315150217905550600c60009054906101000a900460ff1615620004b0576040517f08c379a0000000000000000000000000000000000000000000000000000000008152600401620004a7906200257a565b60405180910390fd5b600a60003373ffffffffffffffffffffffffffffffffffffffff1673ffffffffffffffffffffffffffffffffffffffff16815260200190815260200160002060009054906101000a900460ff161562000540576040517f08c379a0000000000000000000000000000000000000000000000000000000008152600401620005379062002612565b60405180910390fd5b620005586001600b5462001af290919063ffffffff16565b506001600a60003373ffffffffffffffffffffffffffffffffffffffff1673ffffffffffffffffffffffffffffffffffffffff16815260200190815260200160002060006101000a81548160ff0219169083151502179055506064600b541115620005d9576001600c60006101000a81548160ff0219169083151502179055505b6000600960006101000a81548160ff021916908315150217905550565b600960009054906101000a900460ff161562000649576040517f08c379a0000000000000000000000000000000000000000000000000000000008152600401620006409062002508565b60405180910390fd5b6001600960006101000a81548160ff021916908315150217905550600560003373ffffffffffffffffffffffffffffffffffffffff1673ffffffffffffffffffffffffffffffffffffffff16815260200190815260200160002060009054906101000a900460ff16620006f3576040517f08c379a0000000000000000000000000000000000000000000000000000000008152600401620006ea90620026aa565b60405180910390fd5b60006006805490509050600062000714824762001b5590919063ffffffff16565b9050600081116200075c576040517f08c379a000000000000000000000000000000000000000000000000000000000815260040162000753906200271c565b60405180910390fd5b60005b828110156200080757600681815481106200077f576200077e6200273e565b5b9060005260206000200160009054906101000a900473ffffffffffffffffffffffffffffffffffffffff1673ffffffffffffffffffffffffffffffffffffffff166108fc839081150290604051600060405180830381858888f19350505050158015620007f0573d6000803e3d6000fd5b508080620007fe906200279c565b9150506200075f565b5050506000600960006101000a81548160ff021916908315150217905550565b60056020528060005260406000206000915054906101000a900460ff1681565b60006060806060806060600080600080606060008054906101000a900473ffffffffffffffffffffffffffffffffffffffff1660016002600360066008600d80549050600b54600c60009054906101000a900460ff16476004898054620008ae9062002819565b80601f0160208091040260200160405190810160405280929190818152602001828054620008dc9062002819565b80156200092d5780601f1062000901576101008083540402835291602001916200092d565b820191906000526020600020905b8154815290600101906020018083116200090f57829003601f168201915b50505050509950888054620009429062002819565b80601f0160208091040260200160405190810160405280929190818152602001828054620009709062002819565b8015620009c15780601f106200099557610100808354040283529160200191620009c1565b820191906000526020600020905b815481529060010190602001808311620009a357829003601f168201915b50505050509850878054620009d69062002819565b80601f016020809104026020016040519081016040528092919081815260200182805462000a049062002819565b801562000a555780601f1062000a295761010080835404028352916020019162000a55565b820191906000526020600020905b81548152906001019060200180831162000a3757829003601f168201915b505050505097508680548060200260200160405190810160405280929190818152602001828054801562000adf57602002820191906000526020600020905b8160009054906101000a900473ffffffffffffffffffffffffffffffffffffffff1673ffffffffffffffffffffffffffffffffffffffff168152602001906001019080831162000a94575b505050505096508580548060200260200160405190810160405280929190818152602001828054801562000b6957602002820191906000526020600020905b8160009054906101000a900473ffffffffffffffffffffffffffffffffffffffff1673ffffffffffffffffffffffffffffffffffffffff168152602001906001019080831162000b1e575b5050505050955080805462000b7e9062002819565b80601f016020809104026020016040519081016040528092919081815260200182805462000bac9062002819565b801562000bfd5780601f1062000bd15761010080835404028352916020019162000bfd565b820191906000526020600020905b81548152906001019060200180831162000bdf57829003601f168201915b505050505090509a509a509a509a509a509a509a509a509a509a509a50909192939495969798999a565b6000600560003373ffffffffffffffffffffffffffffffffffffffff1673ffffffffffffffffffffffffffffffffffffffff16815260200190815260200160002060009054906101000a900460ff16905090565b600c60009054906101000a900460ff1681565b600d818154811062000c9f57600080fd5b906000526020600020906006020160009150905080600001805462000cc49062002819565b80601f016020809104026020016040519081016040528092919081815260200182805462000cf29062002819565b801562000d435780601f1062000d175761010080835404028352916020019162000d43565b820191906000526020600020905b81548152906001019060200180831162000d2557829003601f168201915b5050505050908060010154908060020160009054906101000a900473ffffffffffffffffffffffffffffffffffffffff16908060040154908060050160009054906101000a900460ff16905085565b60076020528060005260406000206000915054906101000a900460ff1681565b600960009054906101000a900460ff161562000e05576040517f08c379a000000000000000000000000000000000000000000000000000000000815260040162000dfc9062002508565b60405180910390fd5b6001600960006101000a81548160ff021916908315150217905550600c60009054906101000a900460ff161562000e73576040517f08c379a000000000000000000000000000000000000000000000000000000000815260040162000e6a906200257a565b60405180910390fd5b600560003373ffffffffffffffffffffffffffffffffffffffff1673ffffffffffffffffffffffffffffffffffffffff16815260200190815260200160002060009054906101000a900460ff1662000f02576040517f08c379a000000000000000000000000000000000000000000000000000000000815260040162000ef990620028c5565b60405180910390fd5b600d805490508110801562000f18575060008110155b62000f5a576040517f08c379a000000000000000000000000000000000000000000000000000000000815260040162000f519062002937565b60405180910390fd5b6000600d828154811062000f735762000f726200273e565b5b906000526020600020906006020190508060030160003373ffffffffffffffffffffffffffffffffffffffff1673ffffffffffffffffffffffffffffffffffffffff16815260200190815260200160002060009054906101000a900460ff161562001015576040517f08c379a00000000000000000000000000000000000000000000000000000000081526004016200100c90620029cf565b60405180910390fd5b60018160030160003373ffffffffffffffffffffffffffffffffffffffff1673ffffffffffffffffffffffffffffffffffffffff16815260200190815260200160002060006101000a81548160ff021916908315150217905550620010896001826004015462001af290919063ffffffff16565b81600401819055506002600680549050620010a5919062002a20565b816004015410620011d15760018160050160006101000a81548160ff0219169083151502179055506001600560008360020160009054906101000a900473ffffffffffffffffffffffffffffffffffffffff1673ffffffffffffffffffffffffffffffffffffffff1673ffffffffffffffffffffffffffffffffffffffff16815260200190815260200160002060006101000a81548160ff02191690831515021790555060068160020160009054906101000a900473ffffffffffffffffffffffffffffffffffffffff169080600181540180825580915050600190039060005260206000200160009091909190916101000a81548173ffffffffffffffffffffffffffffffffffffffff021916908373ffffffffffffffffffffffffffffffffffffffff1602179055505b506000600960006101000a81548160ff02191690831515021790555050565b600960009054906101000a900460ff161562001243576040517f08c379a00000000000000000000000000000000000000000000000000000000081526004016200123a9062002508565b60405180910390fd5b6001600960006101000a81548160ff021916908315150217905550600c60009054906101000a900460ff1615620012b1576040517f08c379a0000000000000000000000000000000000000000000000000000000008152600401620012a8906200257a565b60405180910390fd5b600560003373ffffffffffffffffffffffffffffffffffffffff1673ffffffffffffffffffffffffffffffffffffffff16815260200190815260200160002060009054906101000a900460ff1662001340576040517f08c379a0000000000000000000000000000000000000000000000000000000008152600401620013379062002ace565b60405180910390fd5b6200134b8262001bb2565b6200138d576040517f08c379a0000000000000000000000000000000000000000000000000000000008152600401620013849062002b66565b60405180910390fd5b620013988162001bb2565b620013da576040517f08c379a0000000000000000000000000000000000000000000000000000000008152600401620013d19062002bd8565b60405180910390fd5b620013e58262001c06565b62001427576040517f08c379a00000000000000000000000000000000000000000000000000000000081526004016200141e9062002c70565b60405180910390fd5b620014328162001c9c565b62001474576040517f08c379a00000000000000000000000000000000000000000000000000000000081526004016200146b9062002d08565b60405180910390fd5b60003330868686866040516200148a9062001d32565b6200149b9695949392919062002d2a565b604051809103906000f080158015620014b8573d6000803e3d6000fd5b509050600073ffffffffffffffffffffffffffffffffffffffff168373ffffffffffffffffffffffffffffffffffffffff1614620015665760008390508073ffffffffffffffffffffffffffffffffffffffff1663988e46c8836040518263ffffffff1660e01b81526004016200153091906200244a565b600060405180830381600087803b1580156200154b57600080fd5b505af115801562001560573d6000803e3d6000fd5b50505050505b600073ffffffffffffffffffffffffffffffffffffffff168273ffffffffffffffffffffffffffffffffffffffff1614620016115760008290508073ffffffffffffffffffffffffffffffffffffffff16638758ce83836040518263ffffffff1660e01b8152600401620015db91906200244a565b600060405180830381600087803b158015620015f657600080fd5b505af11580156200160b573d6000803e3d6000fd5b50505050505b6008819080600181540180825580915050600190039060005260206000200160009091909190916101000a81548173ffffffffffffffffffffffffffffffffffffffff021916908373ffffffffffffffffffffffffffffffffffffffff1602179055506001600760008373ffffffffffffffffffffffffffffffffffffffff1673ffffffffffffffffffffffffffffffffffffffff16815260200190815260200160002060006101000a81548160ff021916908315150217905550506000600960006101000a81548160ff02191690831515021790555050505050565b606060088054806020026020016040519081016040528092919081815260200182805480156200177457602002820191906000526020600020905b8160009054906101000a900473ffffffffffffffffffffffffffffffffffffffff1673ffffffffffffffffffffffffffffffffffffffff168152602001906001019080831162001729575b5050505050905090565b600681815481106200178f57600080fd5b906000526020600020016000915054906101000a900473ffffffffffffffffffffffffffffffffffffffff1681565b60088181548110620017cf57600080fd5b906000526020600020016000915054906101000a900473ffffffffffffffffffffffffffffffffffffffff1681565b600960009054906101000a900460ff161562001851576040517f08c379a0000000000000000000000000000000000000000000000000000000008152600401620018489062002508565b60405180910390fd5b6001600960006101000a81548160ff0219169083151502179055506064341015620018b3576040517f08c379a0000000000000000000000000000000000000000000000000000000008152600401620018aa9062002df5565b60405180910390fd5b6000600960006101000a81548160ff021916908315150217905550565b600960009054906101000a900460ff161562001923576040517f08c379a00000000000000000000000000000000000000000000000000000000081526004016200191a9062002508565b60405180910390fd5b6001600960006101000a81548160ff021916908315150217905550600c60009054906101000a900460ff161562001991576040517f08c379a000000000000000000000000000000000000000000000000000000000815260040162001988906200257a565b60405180910390fd5b600560003373ffffffffffffffffffffffffffffffffffffffff1673ffffffffffffffffffffffffffffffffffffffff16815260200190815260200160002060009054906101000a900460ff161562001a21576040517f08c379a000000000000000000000000000000000000000000000000000000000815260040162001a189062002e8d565b60405180910390fd5b6000600d60018160018154018082558091505003906000526020600020906006020190508181600001908051906020019062001a5f92919062001d40565b50428160010181905550338160020160006101000a81548173ffffffffffffffffffffffffffffffffffffffff021916908373ffffffffffffffffffffffffffffffffffffffff1602179055506000816004018190555060008160050160006101000a81548160ff021916908315150217905550506000600960006101000a81548160ff02191690831515021790555050565b600080828462001b03919062002eaf565b90508381101562001b4b576040517f08c379a000000000000000000000000000000000000000000000000000000000815260040162001b429062002f5c565b60405180910390fd5b8091505092915050565b600080821162001b9c576040517f08c379a000000000000000000000000000000000000000000000000000000000815260040162001b939062002fce565b60405180910390fd5b818362001baa919062002a20565b905092915050565b60008073ffffffffffffffffffffffffffffffffffffffff168273ffffffffffffffffffffffffffffffffffffffff16141562001bf3576001905062001c01565b6000823b9050600081119150505b919050565b60008073ffffffffffffffffffffffffffffffffffffffff168273ffffffffffffffffffffffffffffffffffffffff16141562001c47576001905062001c97565b600760008373ffffffffffffffffffffffffffffffffffffffff1673ffffffffffffffffffffffffffffffffffffffff16815260200190815260200160002060009054906101000a900460ff1690505b919050565b60008073ffffffffffffffffffffffffffffffffffffffff168273ffffffffffffffffffffffffffffffffffffffff16141562001cdd576001905062001d2d565b600760008373ffffffffffffffffffffffffffffffffffffffff1673ffffffffffffffffffffffffffffffffffffffff16815260200190815260200160002060009054906101000a900460ff1690505b919050565b6115f78062002ff183390190565b82805462001d4e9062002819565b90600052602060002090601f01602090048101928262001d72576000855562001dbe565b82601f1062001d8d57805160ff191683800117855562001dbe565b8280016001018555821562001dbe579182015b8281111562001dbd57825182559160200191906001019062001da0565b5b50905062001dcd919062001dd1565b5090565b5b8082111562001dec57600081600090555060010162001dd2565b5090565b6000604051905090565b600080fd5b600080fd5b600073ffffffffffffffffffffffffffffffffffffffff82169050919050565b600062001e318262001e04565b9050919050565b62001e438162001e24565b811462001e4f57600080fd5b50565b60008135905062001e638162001e38565b92915050565b60006020828403121562001e825762001e8162001dfa565b5b600062001e928482850162001e52565b91505092915050565b60008115159050919050565b62001eb28162001e9b565b82525050565b600060208201905062001ecf600083018462001ea7565b92915050565b62001ee08162001e24565b82525050565b600081519050919050565b600082825260208201905092915050565b60005b8381101562001f2257808201518184015260208101905062001f05565b8381111562001f32576000848401525b50505050565b6000601f19601f8301169050919050565b600062001f568262001ee6565b62001f62818562001ef1565b935062001f7481856020860162001f02565b62001f7f8162001f38565b840191505092915050565b600081519050919050565b600082825260208201905092915050565b6000819050602082019050919050565b62001fc18162001e24565b82525050565b600062001fd5838362001fb6565b60208301905092915050565b6000602082019050919050565b600062001ffb8262001f8a565b62002007818562001f95565b9350620020148362001fa6565b8060005b838110156200204b5781516200202f888262001fc7565b97506200203c8362001fe1565b92505060018101905062002018565b5085935050505092915050565b6000819050919050565b6200206d8162002058565b82525050565b6000610160820190506200208b600083018e62001ed5565b81810360208301526200209f818d62001f49565b90508181036040830152620020b5818c62001f49565b90508181036060830152620020cb818b62001f49565b90508181036080830152620020e1818a62001fee565b905081810360a0830152620020f7818962001fee565b90506200210860c083018862002062565b6200211760e083018762002062565b6200212761010083018662001ea7565b6200213761012083018562002062565b8181036101408301526200214c818462001f49565b90509c9b505050505050505050505050565b620021698162002058565b81146200217557600080fd5b50565b60008135905062002189816200215e565b92915050565b600060208284031215620021a857620021a762001dfa565b5b6000620021b88482850162002178565b91505092915050565b600060a0820190508181036000830152620021dd818862001f49565b9050620021ee602083018762002062565b620021fd604083018662001ed5565b6200220c606083018562002062565b6200221b608083018462001ea7565b9695505050505050565b600080fd5b600080fd5b7f4e487b7100000000000000000000000000000000000000000000000000000000600052604160045260246000fd5b620022698262001f38565b810181811067ffffffffffffffff821117156200228b576200228a6200222f565b5b80604052505050565b6000620022a062001df0565b9050620022ae82826200225e565b919050565b600067ffffffffffffffff821115620022d157620022d06200222f565b5b620022dc8262001f38565b9050602081019050919050565b82818337600083830152505050565b60006200230f6200230984620022b3565b62002294565b9050828152602081018484840111156200232e576200232d6200222a565b5b6200233b848285620022e9565b509392505050565b600082601f8301126200235b576200235a62002225565b5b81356200236d848260208601620022f8565b91505092915050565b6000806000806080858703121562002393576200239262001dfa565b5b600085013567ffffffffffffffff811115620023b457620023b362001dff565b5b620023c28782880162002343565b945050602085013567ffffffffffffffff811115620023e657620023e562001dff565b5b620023f48782880162002343565b9350506040620024078782880162001e52565b92505060606200241a8782880162001e52565b91505092959194509250565b6000602082019050818103600083015262002442818462001fee565b905092915050565b600060208201905062002461600083018462001ed5565b92915050565b60006020828403121562002480576200247f62001dfa565b5b600082013567ffffffffffffffff811115620024a157620024a062001dff565b5b620024af8482850162002343565b91505092915050565b7f5265656e7472616e742063616c6c000000000000000000000000000000000000600082015250565b6000620024f0600e8362001ef1565b9150620024fd82620024b8565b602082019050919050565b600060208201905081810360008301526200252381620024e1565b9050919050565b7f546869732073746f727920686173206265656e207265706f7274656400000000600082015250565b600062002562601c8362001ef1565b91506200256f826200252a565b602082019050919050565b60006020820190508181036000830152620025958162002553565b9050919050565b7f596f752068617665207265706f7274656420746869732073746f72792062656660008201527f6f72650000000000000000000000000000000000000000000000000000000000602082015250565b6000620025fa60238362001ef1565b915062002607826200259c565b604082019050919050565b600060208201905081810360008301526200262d81620025eb565b9050919050565b7f4f6e6c7920616e20617574686f72697a656420617574686f722063616e20646960008201527f7370656e73652072657761726473000000000000000000000000000000000000602082015250565b600062002692602e8362001ef1565b91506200269f8262002634565b604082019050919050565b60006020820190508181036000830152620026c58162002683565b9050919050565b7f4e6f2072657761726420746f2064697370656e73650000000000000000000000600082015250565b60006200270460158362001ef1565b91506200271182620026cc565b602082019050919050565b600060208201905081810360008301526200273781620026f5565b9050919050565b7f4e487b7100000000000000000000000000000000000000000000000000000000600052603260045260246000fd5b7f4e487b7100000000000000000000000000000000000000000000000000000000600052601160045260246000fd5b6000620027a98262002058565b91507fffffffffffffffffffffffffffffffffffffffffffffffffffffffffffffffff821415620027df57620027de6200276d565b5b600182019050919050565b7f4e487b7100000000000000000000000000000000000000000000000000000000600052602260045260246000fd5b600060028204905060018216806200283257607f821691505b60208210811415620028495762002848620027ea565b5b50919050565b7f4f6e6c7920616e20616363657074656420617574686f722063616e206170707260008201527f6f76652061207265717565737400000000000000000000000000000000000000602082015250565b6000620028ad602d8362001ef1565b9150620028ba826200284f565b604082019050919050565b60006020820190508181036000830152620028e0816200289e565b9050919050565b7f496e646578206f7574206f6620626f756e647300000000000000000000000000600082015250565b60006200291f60138362001ef1565b91506200292c82620028e7565b602082019050919050565b60006020820190508181036000830152620029528162002910565b9050919050565b7f5468697320617574686f7220616c726561647920617070726f7665642062656660008201527f6f72650000000000000000000000000000000000000000000000000000000000602082015250565b6000620029b760238362001ef1565b9150620029c48262002959565b604082019050919050565b60006020820190508181036000830152620029ea81620029a8565b9050919050565b7f4e487b7100000000000000000000000000000000000000000000000000000000600052601260045260246000fd5b600062002a2d8262002058565b915062002a3a8362002058565b92508262002a4d5762002a4c620029f1565b5b828204905092915050565b7f4f6e6c7920616e20616363657074656420617574686f722063616e206372656160008201527f7465206120636861707465720000000000000000000000000000000000000000602082015250565b600062002ab6602c8362001ef1565b915062002ac38262002a58565b604082019050919050565b6000602082019050818103600083015262002ae98162002aa7565b9050919050565b7f506172656e742063686170746572206d757374206265206120636f6e7472616360008201527f7400000000000000000000000000000000000000000000000000000000000000602082015250565b600062002b4e60218362001ef1565b915062002b5b8262002af0565b604082019050919050565b6000602082019050818103600083015262002b818162002b3f565b9050919050565b7f4368696c642063686170746572206d757374206265206120636f6e7472616374600082015250565b600062002bc060208362001ef1565b915062002bcd8262002b88565b602082019050919050565b6000602082019050818103600083015262002bf38162002bb1565b9050919050565b7f506172656e742063686170746572206d7573742062656c6f6e6720746f20746860008201527f652073616d652073746f72790000000000000000000000000000000000000000602082015250565b600062002c58602c8362001ef1565b915062002c658262002bfa565b604082019050919050565b6000602082019050818103600083015262002c8b8162002c49565b9050919050565b7f4368696c642063686170746572206d7573742062656c6f6e6720746f2074686560008201527f2073616d652073746f7279000000000000000000000000000000000000000000602082015250565b600062002cf0602b8362001ef1565b915062002cfd8262002c92565b604082019050919050565b6000602082019050818103600083015262002d238162002ce1565b9050919050565b600060c08201905062002d41600083018962001ed5565b62002d50602083018862001ed5565b818103604083015262002d64818762001f49565b9050818103606083015262002d7a818662001f49565b905062002d8b608083018562001ed5565b62002d9a60a083018462001ed5565b979650505050505050565b7f4d696e696d756d20636f6e747269627574696f6e206973203130302057656900600082015250565b600062002ddd601f8362001ef1565b915062002dea8262002da5565b602082019050919050565b6000602082019050818103600083015262002e108162002dce565b9050919050565b7f417574686f7220616c72656164792065786973747320696e20746865206c697360008201527f74206f6620617574686f72730000000000000000000000000000000000000000602082015250565b600062002e75602c8362001ef1565b915062002e828262002e17565b604082019050919050565b6000602082019050818103600083015262002ea88162002e66565b9050919050565b600062002ebc8262002058565b915062002ec98362002058565b9250827fffffffffffffffffffffffffffffffffffffffffffffffffffffffffffffffff0382111562002f015762002f006200276d565b5b828201905092915050565b7f536166654d6174683a206164646974696f6e206f766572666c6f770000000000600082015250565b600062002f44601b8362001ef1565b915062002f518262002f0c565b602082019050919050565b6000602082019050818103600083015262002f778162002f35565b9050919050565b7f536166654d6174683a206469766973696f6e206279207a65726f000000000000600082015250565b600062002fb6601a8362001ef1565b915062002fc38262002f7e565b602082019050919050565b6000602082019050818103600083015262002fe98162002fa7565b905091905056fe60806040523480156200001157600080fd5b50604051620015f7380380620015f78339818101604052810190620000379190620004da565b85600160006101000a81548173ffffffffffffffffffffffffffffffffffffffff021916908373ffffffffffffffffffffffffffffffffffffffff160217905550846000806101000a81548173ffffffffffffffffffffffffffffffffffffffff021916908373ffffffffffffffffffffffffffffffffffffffff1602179055508260039080519060200190620000d092919062000228565b508360029080519060200190620000e992919062000228565b50600073ffffffffffffffffffffffffffffffffffffffff168273ffffffffffffffffffffffffffffffffffffffff161462000183576004829080600181540180825580915050600190039060005260206000200160009091909190916101000a81548173ffffffffffffffffffffffffffffffffffffffff021916908373ffffffffffffffffffffffffffffffffffffffff1602179055505b600073ffffffffffffffffffffffffffffffffffffffff168173ffffffffffffffffffffffffffffffffffffffff16146200021c576005819080600181540180825580915050600190039060005260206000200160009091909190916101000a81548173ffffffffffffffffffffffffffffffffffffffff021916908373ffffffffffffffffffffffffffffffffffffffff1602179055505b50505050505062000619565b8280546200023690620005e3565b90600052602060002090601f0160209004810192826200025a5760008555620002a6565b82601f106200027557805160ff1916838001178555620002a6565b82800160010185558215620002a6579182015b82811115620002a557825182559160200191906001019062000288565b5b509050620002b59190620002b9565b5090565b5b80821115620002d4576000816000905550600101620002ba565b5090565b6000604051905090565b600080fd5b600080fd5b600073ffffffffffffffffffffffffffffffffffffffff82169050919050565b60006200031982620002ec565b9050919050565b6200032b816200030c565b81146200033757600080fd5b50565b6000815190506200034b8162000320565b92915050565b600080fd5b600080fd5b6000601f19601f8301169050919050565b7f4e487b7100000000000000000000000000000000000000000000000000000000600052604160045260246000fd5b620003a6826200035b565b810181811067ffffffffffffffff82111715620003c857620003c76200036c565b5b80604052505050565b6000620003dd620002d8565b9050620003eb82826200039b565b919050565b600067ffffffffffffffff8211156200040e576200040d6200036c565b5b62000419826200035b565b9050602081019050919050565b60005b838110156200044657808201518184015260208101905062000429565b8381111562000456576000848401525b50505050565b6000620004736200046d84620003f0565b620003d1565b90508281526020810184848401111562000492576200049162000356565b5b6200049f84828562000426565b509392505050565b600082601f830112620004bf57620004be62000351565b5b8151620004d18482602086016200045c565b91505092915050565b60008060008060008060c08789031215620004fa57620004f9620002e2565b5b60006200050a89828a016200033a565b96505060206200051d89828a016200033a565b955050604087015167ffffffffffffffff811115620005415762000540620002e7565b5b6200054f89828a01620004a7565b945050606087015167ffffffffffffffff811115620005735762000572620002e7565b5b6200058189828a01620004a7565b93505060806200059489828a016200033a565b92505060a0620005a789828a016200033a565b9150509295509295509295565b7f4e487b7100000000000000000000000000000000000000000000000000000000600052602260045260246000fd5b60006002820490506001821680620005fc57607f821691505b60208210811415620006135762000612620005b4565b5b50919050565b610fce80620006296000396000f3fe608060405234801561001057600080fd5b50600436106100a95760003560e01c8063a523b88a11610071578063a523b88a14610146578063a6c3e6b914610150578063c5fe6ffc1461016e578063c623674f1461019e578063e5a0af3d146101bc578063ed777791146101da576100a9565b80634051ddac146100ae57806346c922d1146100d25780634a79d50c146100f05780638758ce831461010e578063988e46c81461012a575b600080fd5b6100b661020a565b6040516100c99796959493929190610b88565b60405180910390f35b6100da6104a4565b6040516100e79190610c13565b60405180910390f35b6100f86104c8565b6040516101059190610c2e565b60405180910390f35b61012860048036038101906101239190610c81565b610556565b005b610144600480360381019061013f9190610c81565b61064a565b005b61014e61073e565b005b610158610841565b6040516101659190610c13565b60405180910390f35b61018860048036038101906101839190610cda565b610867565b6040516101959190610c13565b60405180910390f35b6101a66108a6565b6040516101b39190610c2e565b60405180910390f35b6101c4610934565b6040516101d19190610d07565b60405180910390f35b6101f460048036038101906101ef9190610cda565b61093a565b6040516102019190610c13565b60405180910390f35b60008060608060608060008060009054906101000a900473ffffffffffffffffffffffffffffffffffffffff16600160009054906101000a900473ffffffffffffffffffffffffffffffffffffffff16600260036004600560075484805461027190610d51565b80601f016020809104026020016040519081016040528092919081815260200182805461029d90610d51565b80156102ea5780601f106102bf576101008083540402835291602001916102ea565b820191906000526020600020905b8154815290600101906020018083116102cd57829003601f168201915b505050505094508380546102fd90610d51565b80601f016020809104026020016040519081016040528092919081815260200182805461032990610d51565b80156103765780601f1061034b57610100808354040283529160200191610376565b820191906000526020600020905b81548152906001019060200180831161035957829003601f168201915b50505050509350828054806020026020016040519081016040528092919081815260200182805480156103fe57602002820191906000526020600020905b8160009054906101000a900473ffffffffffffffffffffffffffffffffffffffff1673ffffffffffffffffffffffffffffffffffffffff16815260200190600101908083116103b4575b505050505092508180548060200260200160405190810160405280929190818152602001828054801561048657602002820191906000526020600020905b8160009054906101000a900473ffffffffffffffffffffffffffffffffffffffff1673ffffffffffffffffffffffffffffffffffffffff168152602001906001019080831161043c575b50505050509150965096509650965096509650965090919293949596565b60008054906101000a900473ffffffffffffffffffffffffffffffffffffffff1681565b600280546104d590610d51565b80601f016020809104026020016040519081016040528092919081815260200182805461050190610d51565b801561054e5780601f106105235761010080835404028352916020019161054e565b820191906000526020600020905b81548152906001019060200180831161053157829003601f168201915b505050505081565b60008054906101000a900473ffffffffffffffffffffffffffffffffffffffff1673ffffffffffffffffffffffffffffffffffffffff163373ffffffffffffffffffffffffffffffffffffffff16146105e4576040517f08c379a00000000000000000000000000000000000000000000000000000000081526004016105db90610e1b565b60405180910390fd5b6004819080600181540180825580915050600190039060005260206000200160009091909190916101000a81548173ffffffffffffffffffffffffffffffffffffffff021916908373ffffffffffffffffffffffffffffffffffffffff16021790555050565b60008054906101000a900473ffffffffffffffffffffffffffffffffffffffff1673ffffffffffffffffffffffffffffffffffffffff163373ffffffffffffffffffffffffffffffffffffffff16146106d8576040517f08c379a00000000000000000000000000000000000000000000000000000000081526004016106cf90610e1b565b60405180910390fd5b6005819080600181540180825580915050600190039060005260206000200160009091909190916101000a81548173ffffffffffffffffffffffffffffffffffffffff021916908373ffffffffffffffffffffffffffffffffffffffff16021790555050565b600660003373ffffffffffffffffffffffffffffffffffffffff1673ffffffffffffffffffffffffffffffffffffffff16815260200190815260200160002060009054906101000a900460ff16156107cb576040517f08c379a00000000000000000000000000000000000000000000000000000000081526004016107c290610e87565b60405180910390fd5b6001600660003373ffffffffffffffffffffffffffffffffffffffff1673ffffffffffffffffffffffffffffffffffffffff16815260200190815260200160002060006101000a81548160ff021916908315150217905550610839600160075461097990919063ffffffff16565b600781905550565b600160009054906101000a900473ffffffffffffffffffffffffffffffffffffffff1681565b6005818154811061087757600080fd5b906000526020600020016000915054906101000a900473ffffffffffffffffffffffffffffffffffffffff1681565b600380546108b390610d51565b80601f01602080910402602001604051908101604052809291908181526020018280546108df90610d51565b801561092c5780601f106109015761010080835404028352916020019161092c565b820191906000526020600020905b81548152906001019060200180831161090f57829003601f168201915b505050505081565b60075481565b6004818154811061094a57600080fd5b906000526020600020016000915054906101000a900473ffffffffffffffffffffffffffffffffffffffff1681565b60008082846109889190610ed6565b9050838110156109cd576040517f08c379a00000000000000000000000000000000000000000000000000000000081526004016109c490610f78565b60405180910390fd5b8091505092915050565b600073ffffffffffffffffffffffffffffffffffffffff82169050919050565b6000610a02826109d7565b9050919050565b610a12816109f7565b82525050565b600081519050919050565b600082825260208201905092915050565b60005b83811015610a52578082015181840152602081019050610a37565b83811115610a61576000848401525b50505050565b6000601f19601f8301169050919050565b6000610a8382610a18565b610a8d8185610a23565b9350610a9d818560208601610a34565b610aa681610a67565b840191505092915050565b600081519050919050565b600082825260208201905092915050565b6000819050602082019050919050565b610ae6816109f7565b82525050565b6000610af88383610add565b60208301905092915050565b6000602082019050919050565b6000610b1c82610ab1565b610b268185610abc565b9350610b3183610acd565b8060005b83811015610b62578151610b498882610aec565b9750610b5483610b04565b925050600181019050610b35565b5085935050505092915050565b6000819050919050565b610b8281610b6f565b82525050565b600060e082019050610b9d600083018a610a09565b610baa6020830189610a09565b8181036040830152610bbc8188610a78565b90508181036060830152610bd08187610a78565b90508181036080830152610be48186610b11565b905081810360a0830152610bf88185610b11565b9050610c0760c0830184610b79565b98975050505050505050565b6000602082019050610c286000830184610a09565b92915050565b60006020820190508181036000830152610c488184610a78565b905092915050565b600080fd5b610c5e816109f7565b8114610c6957600080fd5b50565b600081359050610c7b81610c55565b92915050565b600060208284031215610c9757610c96610c50565b5b6000610ca584828501610c6c565b91505092915050565b610cb781610b6f565b8114610cc257600080fd5b50565b600081359050610cd481610cae565b92915050565b600060208284031215610cf057610cef610c50565b5b6000610cfe84828501610cc5565b91505092915050565b6000602082019050610d1c6000830184610b79565b92915050565b7f4e487b7100000000000000000000000000000000000000000000000000000000600052602260045260246000fd5b60006002820490506001821680610d6957607f821691505b60208210811415610d7d57610d7c610d22565b5b50919050565b7f546869732066756e6374696f6e2068617320746f2062652063616c6c6564206660008201527f726f6d207468652073746f727920636f6e747261637420627920616e2061636360208201527f657074656420617574686f72206f6e6c79000000000000000000000000000000604082015250565b6000610e05605183610a23565b9150610e1082610d83565b606082019050919050565b60006020820190508181036000830152610e3481610df8565b9050919050565b7f596f75206c696b656420746869732073746f7279206265666f72650000000000600082015250565b6000610e71601b83610a23565b9150610e7c82610e3b565b602082019050919050565b60006020820190508181036000830152610ea081610e64565b9050919050565b7f4e487b7100000000000000000000000000000000000000000000000000000000600052601160045260246000fd5b6000610ee182610b6f565b9150610eec83610b6f565b9250827fffffffffffffffffffffffffffffffffffffffffffffffffffffffffffffffff03821115610f2157610f20610ea7565b5b828201905092915050565b7f536166654d6174683a206164646974696f6e206f766572666c6f770000000000600082015250565b6000610f62601b83610a23565b9150610f6d82610f2c565b602082019050919050565b60006020820190508181036000830152610f9181610f55565b905091905056fea264697066735822122091231a57b1141b22739c43bede89e78143bd98fb143bf7b0a9c73876d7d8d34764736f6c63430008090033a2646970667358221220ce1089603a2c02670614e6d65e7a4094834f3629d88c7769cd0e0e5e782327a564736f6c63430008090033","opcodes":"PUSH1 0x80 PUSH1 0x40 MSTORE CALLVALUE DUP1 ISZERO PUSH3 0x11 JUMPI PUSH1 0x0 DUP1 REVERT JUMPDEST POP PUSH1 0x40 MLOAD PUSH3 0x4C04 CODESIZE SUB DUP1 PUSH3 0x4C04 DUP4 CODECOPY DUP2 DUP2 ADD PUSH1 0x40 MSTORE DUP2 ADD SWAP1 PUSH3 0x37 SWAP2 SWAP1 PUSH3 0x46E JUMP JUMPDEST DUP5 PUSH1 0x0 DUP1 PUSH2 0x100 EXP DUP2 SLOAD DUP2 PUSH20 0xFFFFFFFFFFFFFFFFFFFFFFFFFFFFFFFFFFFFFFFF MUL NOT AND SWAP1 DUP4 PUSH20 0xFFFFFFFFFFFFFFFFFFFFFFFFFFFFFFFFFFFFFFFF AND MUL OR SWAP1 SSTORE POP PUSH1 0x1 PUSH1 0x5 PUSH1 0x0 DUP8 PUSH20 0xFFFFFFFFFFFFFFFFFFFFFFFFFFFFFFFFFFFFFFFF AND PUSH20 0xFFFFFFFFFFFFFFFFFFFFFFFFFFFFFFFFFFFFFFFF AND DUP2 MSTORE PUSH1 0x20 ADD SWAP1 DUP2 MSTORE PUSH1 0x20 ADD PUSH1 0x0 KECCAK256 PUSH1 0x0 PUSH2 0x100 EXP DUP2 SLOAD DUP2 PUSH1 0xFF MUL NOT AND SWAP1 DUP4 ISZERO ISZERO MUL OR SWAP1 SSTORE POP PUSH1 0x6 DUP6 SWAP1 DUP1 PUSH1 0x1 DUP2 SLOAD ADD DUP1 DUP3 SSTORE DUP1 SWAP2 POP POP PUSH1 0x1 SWAP1 SUB SWAP1 PUSH1 0x0 MSTORE PUSH1 0x20 PUSH1 0x0 KECCAK256 ADD PUSH1 0x0 SWAP1 SWAP2 SWAP1 SWAP2 SWAP1 SWAP2 PUSH2 0x100 EXP DUP2 SLOAD DUP2 PUSH20 0xFFFFFFFFFFFFFFFFFFFFFFFFFFFFFFFFFFFFFFFF MUL NOT AND SWAP1 DUP4 PUSH20 0xFFFFFFFFFFFFFFFFFFFFFFFFFFFFFFFFFFFFFFFF AND MUL OR SWAP1 SSTORE POP DUP4 PUSH1 0x1 SWAP1 DUP1 MLOAD SWAP1 PUSH1 0x20 ADD SWAP1 PUSH3 0x14A SWAP3 SWAP2 SWAP1 PUSH3 0x1BC JUMP JUMPDEST POP DUP3 PUSH1 0x2 SWAP1 DUP1 MLOAD SWAP1 PUSH1 0x20 ADD SWAP1 PUSH3 0x163 SWAP3 SWAP2 SWAP1 PUSH3 0x1BC JUMP JUMPDEST POP DUP2 PUSH1 0x3 SWAP1 DUP1 MLOAD SWAP1 PUSH1 0x20 ADD SWAP1 PUSH3 0x17C SWAP3 SWAP2 SWAP1 PUSH3 0x1BC JUMP JUMPDEST POP DUP1 PUSH1 0x4 SWAP1 DUP1 MLOAD SWAP1 PUSH1 0x20 ADD SWAP1 PUSH3 0x195 SWAP3 SWAP2 SWAP1 PUSH3 0x1BC JUMP JUMPDEST POP PUSH1 0x0 PUSH1 0xC PUSH1 0x0 PUSH2 0x100 EXP DUP2 SLOAD DUP2 PUSH1 0xFF MUL NOT AND SWAP1 DUP4 ISZERO ISZERO MUL OR SWAP1 SSTORE POP POP POP POP POP POP PUSH3 0x5D7 JUMP JUMPDEST DUP3 DUP1 SLOAD PUSH3 0x1CA SWAP1 PUSH3 0x5A1 JUMP JUMPDEST SWAP1 PUSH1 0x0 MSTORE PUSH1 0x20 PUSH1 0x0 KECCAK256 SWAP1 PUSH1 0x1F ADD PUSH1 0x20 SWAP1 DIV DUP2 ADD SWAP3 DUP3 PUSH3 0x1EE JUMPI PUSH1 0x0 DUP6 SSTORE PUSH3 0x23A JUMP JUMPDEST DUP3 PUSH1 0x1F LT PUSH3 0x209 JUMPI DUP1 MLOAD PUSH1 0xFF NOT AND DUP4 DUP1 ADD OR DUP6 SSTORE PUSH3 0x23A JUMP JUMPDEST DUP3 DUP1 ADD PUSH1 0x1 ADD DUP6 SSTORE DUP3 ISZERO PUSH3 0x23A JUMPI SWAP2 DUP3 ADD JUMPDEST DUP3 DUP2 GT ISZERO PUSH3 0x239 JUMPI DUP3 MLOAD DUP3 SSTORE SWAP2 PUSH1 0x20 ADD SWAP2 SWAP1 PUSH1 0x1 ADD SWAP1 PUSH3 0x21C JUMP JUMPDEST JUMPDEST POP SWAP1 POP PUSH3 0x249 SWAP2 SWAP1 PUSH3 0x24D JUMP JUMPDEST POP SWAP1 JUMP JUMPDEST JUMPDEST DUP1 DUP3 GT ISZERO PUSH3 0x268 JUMPI PUSH1 0x0 DUP2 PUSH1 0x0 SWAP1 SSTORE POP PUSH1 0x1 ADD PUSH3 0x24E JUMP JUMPDEST POP SWAP1 JUMP JUMPDEST PUSH1 0x0 PUSH1 0x40 MLOAD SWAP1 POP SWAP1 JUMP JUMPDEST PUSH1 0x0 DUP1 REVERT JUMPDEST PUSH1 0x0 DUP1 REVERT JUMPDEST PUSH1 0x0 PUSH20 0xFFFFFFFFFFFFFFFFFFFFFFFFFFFFFFFFFFFFFFFF DUP3 AND SWAP1 POP SWAP2 SWAP1 POP JUMP JUMPDEST PUSH1 0x0 PUSH3 0x2AD DUP3 PUSH3 0x280 JUMP JUMPDEST SWAP1 POP SWAP2 SWAP1 POP JUMP JUMPDEST PUSH3 0x2BF DUP2 PUSH3 0x2A0 JUMP JUMPDEST DUP2 EQ PUSH3 0x2CB JUMPI PUSH1 0x0 DUP1 REVERT JUMPDEST POP JUMP JUMPDEST PUSH1 0x0 DUP2 MLOAD SWAP1 POP PUSH3 0x2DF DUP2 PUSH3 0x2B4 JUMP JUMPDEST SWAP3 SWAP2 POP POP JUMP JUMPDEST PUSH1 0x0 DUP1 REVERT JUMPDEST PUSH1 0x0 DUP1 REVERT JUMPDEST PUSH1 0x0 PUSH1 0x1F NOT PUSH1 0x1F DUP4 ADD AND SWAP1 POP SWAP2 SWAP1 POP JUMP JUMPDEST PUSH32 0x4E487B7100000000000000000000000000000000000000000000000000000000 PUSH1 0x0 MSTORE PUSH1 0x41 PUSH1 0x4 MSTORE PUSH1 0x24 PUSH1 0x0 REVERT JUMPDEST PUSH3 0x33A DUP3 PUSH3 0x2EF JUMP JUMPDEST DUP2 ADD DUP2 DUP2 LT PUSH8 0xFFFFFFFFFFFFFFFF DUP3 GT OR ISZERO PUSH3 0x35C JUMPI PUSH3 0x35B PUSH3 0x300 JUMP JUMPDEST JUMPDEST DUP1 PUSH1 0x40 MSTORE POP POP POP JUMP JUMPDEST PUSH1 0x0 PUSH3 0x371 PUSH3 0x26C JUMP JUMPDEST SWAP1 POP PUSH3 0x37F DUP3 DUP3 PUSH3 0x32F JUMP JUMPDEST SWAP2 SWAP1 POP JUMP JUMPDEST PUSH1 0x0 PUSH8 0xFFFFFFFFFFFFFFFF DUP3 GT ISZERO PUSH3 0x3A2 JUMPI PUSH3 0x3A1 PUSH3 0x300 JUMP JUMPDEST JUMPDEST PUSH3 0x3AD DUP3 PUSH3 0x2EF JUMP JUMPDEST SWAP1 POP PUSH1 0x20 DUP2 ADD SWAP1 POP SWAP2 SWAP1 POP JUMP JUMPDEST PUSH1 0x0 JUMPDEST DUP4 DUP2 LT ISZERO PUSH3 0x3DA JUMPI DUP1 DUP3 ADD MLOAD DUP2 DUP5 ADD MSTORE PUSH1 0x20 DUP2 ADD SWAP1 POP PUSH3 0x3BD JUMP JUMPDEST DUP4 DUP2 GT ISZERO PUSH3 0x3EA JUMPI PUSH1 0x0 DUP5 DUP5 ADD MSTORE JUMPDEST POP POP POP POP JUMP JUMPDEST PUSH1 0x0 PUSH3 0x407 PUSH3 0x401 DUP5 PUSH3 0x384 JUMP JUMPDEST PUSH3 0x365 JUMP JUMPDEST SWAP1 POP DUP3 DUP2 MSTORE PUSH1 0x20 DUP2 ADD DUP5 DUP5 DUP5 ADD GT ISZERO PUSH3 0x426 JUMPI PUSH3 0x425 PUSH3 0x2EA JUMP JUMPDEST JUMPDEST PUSH3 0x433 DUP5 DUP3 DUP6 PUSH3 0x3BA JUMP JUMPDEST POP SWAP4 SWAP3 POP POP POP JUMP JUMPDEST PUSH1 0x0 DUP3 PUSH1 0x1F DUP4 ADD SLT PUSH3 0x453 JUMPI PUSH3 0x452 PUSH3 0x2E5 JUMP JUMPDEST JUMPDEST DUP2 MLOAD PUSH3 0x465 DUP5 DUP3 PUSH1 0x20 DUP7 ADD PUSH3 0x3F0 JUMP JUMPDEST SWAP2 POP POP SWAP3 SWAP2 POP POP JUMP JUMPDEST PUSH1 0x0 DUP1 PUSH1 0x0 DUP1 PUSH1 0x0 PUSH1 0xA0 DUP7 DUP9 SUB SLT ISZERO PUSH3 0x48D JUMPI PUSH3 0x48C PUSH3 0x276 JUMP JUMPDEST JUMPDEST PUSH1 0x0 PUSH3 0x49D DUP9 DUP3 DUP10 ADD PUSH3 0x2CE JUMP JUMPDEST SWAP6 POP POP PUSH1 0x20 DUP7 ADD MLOAD PUSH8 0xFFFFFFFFFFFFFFFF DUP2 GT ISZERO PUSH3 0x4C1 JUMPI PUSH3 0x4C0 PUSH3 0x27B JUMP JUMPDEST JUMPDEST PUSH3 0x4CF DUP9 DUP3 DUP10 ADD PUSH3 0x43B JUMP JUMPDEST SWAP5 POP POP PUSH1 0x40 DUP7 ADD MLOAD PUSH8 0xFFFFFFFFFFFFFFFF DUP2 GT ISZERO PUSH3 0x4F3 JUMPI PUSH3 0x4F2 PUSH3 0x27B JUMP JUMPDEST JUMPDEST PUSH3 0x501 DUP9 DUP3 DUP10 ADD PUSH3 0x43B JUMP JUMPDEST SWAP4 POP POP PUSH1 0x60 DUP7 ADD MLOAD PUSH8 0xFFFFFFFFFFFFFFFF DUP2 GT ISZERO PUSH3 0x525 JUMPI PUSH3 0x524 PUSH3 0x27B JUMP JUMPDEST JUMPDEST PUSH3 0x533 DUP9 DUP3 DUP10 ADD PUSH3 0x43B JUMP JUMPDEST SWAP3 POP POP PUSH1 0x80 DUP7 ADD MLOAD PUSH8 0xFFFFFFFFFFFFFFFF DUP2 GT ISZERO PUSH3 0x557 JUMPI PUSH3 0x556 PUSH3 0x27B JUMP JUMPDEST JUMPDEST PUSH3 0x565 DUP9 DUP3 DUP10 ADD PUSH3 0x43B JUMP JUMPDEST SWAP2 POP POP SWAP3 SWAP6 POP SWAP3 SWAP6 SWAP1 SWAP4 POP JUMP JUMPDEST PUSH32 0x4E487B7100000000000000000000000000000000000000000000000000000000 PUSH1 0x0 MSTORE PUSH1 0x22 PUSH1 0x4 MSTORE PUSH1 0x24 PUSH1 0x0 REVERT JUMPDEST PUSH1 0x0 PUSH1 0x2 DUP3 DIV SWAP1 POP PUSH1 0x1 DUP3 AND DUP1 PUSH3 0x5BA JUMPI PUSH1 0x7F DUP3 AND SWAP2 POP JUMPDEST PUSH1 0x20 DUP3 LT DUP2 EQ ISZERO PUSH3 0x5D1 JUMPI PUSH3 0x5D0 PUSH3 0x572 JUMP JUMPDEST JUMPDEST POP SWAP2 SWAP1 POP JUMP JUMPDEST PUSH2 0x461D DUP1 PUSH3 0x5E7 PUSH1 0x0 CODECOPY PUSH1 0x0 RETURN INVALID PUSH1 0x80 PUSH1 0x40 MSTORE PUSH1 0x4 CALLDATASIZE LT PUSH3 0xFE JUMPI PUSH1 0x0 CALLDATALOAD PUSH1 0xE0 SHR DUP1 PUSH4 0x7F51AAF9 GT PUSH3 0x97 JUMPI DUP1 PUSH4 0x9D3ED807 GT PUSH3 0x61 JUMPI DUP1 PUSH4 0x9D3ED807 EQ PUSH3 0x32D JUMPI DUP1 PUSH4 0xB5202522 EQ PUSH3 0x371 JUMPI DUP1 PUSH4 0xD7BB99BA EQ PUSH3 0x3B5 JUMPI DUP1 PUSH4 0xDFA14E23 EQ PUSH3 0x3C1 JUMPI PUSH3 0xFE JUMP JUMPDEST DUP1 PUSH4 0x7F51AAF9 EQ PUSH3 0x25D JUMPI DUP1 PUSH4 0x98B79628 EQ PUSH3 0x2A1 JUMPI DUP1 PUSH4 0x992B11DC EQ PUSH3 0x2CF JUMPI DUP1 PUSH4 0x9C636A0F EQ PUSH3 0x2FD JUMPI PUSH3 0xFE JUMP JUMPDEST DUP1 PUSH4 0x4051DDAC GT PUSH3 0xD9 JUMPI DUP1 PUSH4 0x4051DDAC EQ PUSH3 0x17B JUMPI DUP1 PUSH4 0x5CF298FB EQ PUSH3 0x1B5 JUMPI DUP1 PUSH4 0x5D1A870A EQ PUSH3 0x1E5 JUMPI DUP1 PUSH4 0x6FC6C579 EQ PUSH3 0x215 JUMPI PUSH3 0xFE JUMP JUMPDEST DUP1 PUSH4 0x2606A10B EQ PUSH3 0x103 JUMPI DUP1 PUSH4 0x3B6246C2 EQ PUSH3 0x11D JUMPI DUP1 PUSH4 0x3E5690F4 EQ PUSH3 0x137 JUMPI JUMPDEST PUSH1 0x0 DUP1 REVERT JUMPDEST CALLVALUE DUP1 ISZERO PUSH3 0x110 JUMPI PUSH1 0x0 DUP1 REVERT JUMPDEST POP PUSH3 0x11B PUSH3 0x3EF JUMP JUMPDEST STOP JUMPDEST CALLVALUE DUP1 ISZERO PUSH3 0x12A JUMPI PUSH1 0x0 DUP1 REVERT JUMPDEST POP PUSH3 0x135 PUSH3 0x5F6 JUMP JUMPDEST STOP JUMPDEST CALLVALUE DUP1 ISZERO PUSH3 0x144 JUMPI PUSH1 0x0 DUP1 REVERT JUMPDEST POP PUSH3 0x163 PUSH1 0x4 DUP1 CALLDATASIZE SUB DUP2 ADD SWAP1 PUSH3 0x15D SWAP2 SWAP1 PUSH3 0x1E69 JUMP JUMPDEST PUSH3 0x827 JUMP JUMPDEST PUSH1 0x40 MLOAD PUSH3 0x172 SWAP2 SWAP1 PUSH3 0x1EB8 JUMP JUMPDEST PUSH1 0x40 MLOAD DUP1 SWAP2 SUB SWAP1 RETURN JUMPDEST CALLVALUE DUP1 ISZERO PUSH3 0x188 JUMPI PUSH1 0x0 DUP1 REVERT JUMPDEST POP PUSH3 0x193 PUSH3 0x847 JUMP JUMPDEST PUSH1 0x40 MLOAD PUSH3 0x1AC SWAP12 SWAP11 SWAP10 SWAP9 SWAP8 SWAP7 SWAP6 SWAP5 SWAP4 SWAP3 SWAP2 SWAP1 PUSH3 0x2073 JUMP JUMPDEST PUSH1 0x40 MLOAD DUP1 SWAP2 SUB SWAP1 RETURN JUMPDEST CALLVALUE DUP1 ISZERO PUSH3 0x1C2 JUMPI PUSH1 0x0 DUP1 REVERT JUMPDEST POP PUSH3 0x1CD PUSH3 0xC27 JUMP JUMPDEST PUSH1 0x40 MLOAD PUSH3 0x1DC SWAP2 SWAP1 PUSH3 0x1EB8 JUMP JUMPDEST PUSH1 0x40 MLOAD DUP1 SWAP2 SUB SWAP1 RETURN JUMPDEST CALLVALUE DUP1 ISZERO PUSH3 0x1F2 JUMPI PUSH1 0x0 DUP1 REVERT JUMPDEST POP PUSH3 0x1FD PUSH3 0xC7B JUMP JUMPDEST PUSH1 0x40 MLOAD PUSH3 0x20C SWAP2 SWAP1 PUSH3 0x1EB8 JUMP JUMPDEST PUSH1 0x40 MLOAD DUP1 SWAP2 SUB SWAP1 RETURN JUMPDEST CALLVALUE DUP1 ISZERO PUSH3 0x222 JUMPI PUSH1 0x0 DUP1 REVERT JUMPDEST POP PUSH3 0x241 PUSH1 0x4 DUP1 CALLDATASIZE SUB DUP2 ADD SWAP1 PUSH3 0x23B SWAP2 SWAP1 PUSH3 0x218F JUMP JUMPDEST PUSH3 0xC8E JUMP JUMPDEST PUSH1 0x40 MLOAD PUSH3 0x254 SWAP6 SWAP5 SWAP4 SWAP3 SWAP2 SWAP1 PUSH3 0x21C1 JUMP JUMPDEST PUSH1 0x40 MLOAD DUP1 SWAP2 SUB SWAP1 RETURN JUMPDEST CALLVALUE DUP1 ISZERO PUSH3 0x26A JUMPI PUSH1 0x0 DUP1 REVERT JUMPDEST POP PUSH3 0x289 PUSH1 0x4 DUP1 CALLDATASIZE SUB DUP2 ADD SWAP1 PUSH3 0x283 SWAP2 SWAP1 PUSH3 0x1E69 JUMP JUMPDEST PUSH3 0xD92 JUMP JUMPDEST PUSH1 0x40 MLOAD PUSH3 0x298 SWAP2 SWAP1 PUSH3 0x1EB8 JUMP JUMPDEST PUSH1 0x40 MLOAD DUP1 SWAP2 SUB SWAP1 RETURN JUMPDEST CALLVALUE DUP1 ISZERO PUSH3 0x2AE JUMPI PUSH1 0x0 DUP1 REVERT JUMPDEST POP PUSH3 0x2CD PUSH1 0x4 DUP1 CALLDATASIZE SUB DUP2 ADD SWAP1 PUSH3 0x2C7 SWAP2 SWAP1 PUSH3 0x218F JUMP JUMPDEST PUSH3 0xDB2 JUMP JUMPDEST STOP JUMPDEST CALLVALUE DUP1 ISZERO PUSH3 0x2DC JUMPI PUSH1 0x0 DUP1 REVERT JUMPDEST POP PUSH3 0x2FB PUSH1 0x4 DUP1 CALLDATASIZE SUB DUP2 ADD SWAP1 PUSH3 0x2F5 SWAP2 SWAP1 PUSH3 0x2376 JUMP JUMPDEST PUSH3 0x11F0 JUMP JUMPDEST STOP JUMPDEST CALLVALUE DUP1 ISZERO PUSH3 0x30A JUMPI PUSH1 0x0 DUP1 REVERT JUMPDEST POP PUSH3 0x315 PUSH3 0x16EE JUMP JUMPDEST PUSH1 0x40 MLOAD PUSH3 0x324 SWAP2 SWAP1 PUSH3 0x2426 JUMP JUMPDEST PUSH1 0x40 MLOAD DUP1 SWAP2 SUB SWAP1 RETURN JUMPDEST CALLVALUE DUP1 ISZERO PUSH3 0x33A JUMPI PUSH1 0x0 DUP1 REVERT JUMPDEST POP PUSH3 0x359 PUSH1 0x4 DUP1 CALLDATASIZE SUB DUP2 ADD SWAP1 PUSH3 0x353 SWAP2 SWAP1 PUSH3 0x218F JUMP JUMPDEST PUSH3 0x177E JUMP JUMPDEST PUSH1 0x40 MLOAD PUSH3 0x368 SWAP2 SWAP1 PUSH3 0x244A JUMP JUMPDEST PUSH1 0x40 MLOAD DUP1 SWAP2 SUB SWAP1 RETURN JUMPDEST CALLVALUE DUP1 ISZERO PUSH3 0x37E JUMPI PUSH1 0x0 DUP1 REVERT JUMPDEST POP PUSH3 0x39D PUSH1 0x4 DUP1 CALLDATASIZE SUB DUP2 ADD SWAP1 PUSH3 0x397 SWAP2 SWAP1 PUSH3 0x218F JUMP JUMPDEST PUSH3 0x17BE JUMP JUMPDEST PUSH1 0x40 MLOAD PUSH3 0x3AC SWAP2 SWAP1 PUSH3 0x244A JUMP JUMPDEST PUSH1 0x40 MLOAD DUP1 SWAP2 SUB SWAP1 RETURN JUMPDEST PUSH3 0x3BF PUSH3 0x17FE JUMP JUMPDEST STOP JUMPDEST CALLVALUE DUP1 ISZERO PUSH3 0x3CE JUMPI PUSH1 0x0 DUP1 REVERT JUMPDEST POP PUSH3 0x3ED PUSH1 0x4 DUP1 CALLDATASIZE SUB DUP2 ADD SWAP1 PUSH3 0x3E7 SWAP2 SWAP1 PUSH3 0x2467 JUMP JUMPDEST PUSH3 0x18D0 JUMP JUMPDEST STOP JUMPDEST PUSH1 0x9 PUSH1 0x0 SWAP1 SLOAD SWAP1 PUSH2 0x100 EXP SWAP1 DIV PUSH1 0xFF AND ISZERO PUSH3 0x442 JUMPI PUSH1 0x40 MLOAD PUSH32 0x8C379A000000000000000000000000000000000000000000000000000000000 DUP2 MSTORE PUSH1 0x4 ADD PUSH3 0x439 SWAP1 PUSH3 0x2508 JUMP JUMPDEST PUSH1 0x40 MLOAD DUP1 SWAP2 SUB SWAP1 REVERT JUMPDEST PUSH1 0x1 PUSH1 0x9 PUSH1 0x0 PUSH2 0x100 EXP DUP2 SLOAD DUP2 PUSH1 0xFF MUL NOT AND SWAP1 DUP4 ISZERO ISZERO MUL OR SWAP1 SSTORE POP PUSH1 0xC PUSH1 0x0 SWAP1 SLOAD SWAP1 PUSH2 0x100 EXP SWAP1 DIV PUSH1 0xFF AND ISZERO PUSH3 0x4B0 JUMPI PUSH1 0x40 MLOAD PUSH32 0x8C379A000000000000000000000000000000000000000000000000000000000 DUP2 MSTORE PUSH1 0x4 ADD PUSH3 0x4A7 SWAP1 PUSH3 0x257A JUMP JUMPDEST PUSH1 0x40 MLOAD DUP1 SWAP2 SUB SWAP1 REVERT JUMPDEST PUSH1 0xA PUSH1 0x0 CALLER PUSH20 0xFFFFFFFFFFFFFFFFFFFFFFFFFFFFFFFFFFFFFFFF AND PUSH20 0xFFFFFFFFFFFFFFFFFFFFFFFFFFFFFFFFFFFFFFFF AND DUP2 MSTORE PUSH1 0x20 ADD SWAP1 DUP2 MSTORE PUSH1 0x20 ADD PUSH1 0x0 KECCAK256 PUSH1 0x0 SWAP1 SLOAD SWAP1 PUSH2 0x100 EXP SWAP1 DIV PUSH1 0xFF AND ISZERO PUSH3 0x540 JUMPI PUSH1 0x40 MLOAD PUSH32 0x8C379A000000000000000000000000000000000000000000000000000000000 DUP2 MSTORE PUSH1 0x4 ADD PUSH3 0x537 SWAP1 PUSH3 0x2612 JUMP JUMPDEST PUSH1 0x40 MLOAD DUP1 SWAP2 SUB SWAP1 REVERT JUMPDEST PUSH3 0x558 PUSH1 0x1 PUSH1 0xB SLOAD PUSH3 0x1AF2 SWAP1 SWAP2 SWAP1 PUSH4 0xFFFFFFFF AND JUMP JUMPDEST POP PUSH1 0x1 PUSH1 0xA PUSH1 0x0 CALLER PUSH20 0xFFFFFFFFFFFFFFFFFFFFFFFFFFFFFFFFFFFFFFFF AND PUSH20 0xFFFFFFFFFFFFFFFFFFFFFFFFFFFFFFFFFFFFFFFF AND DUP2 MSTORE PUSH1 0x20 ADD SWAP1 DUP2 MSTORE PUSH1 0x20 ADD PUSH1 0x0 KECCAK256 PUSH1 0x0 PUSH2 0x100 EXP DUP2 SLOAD DUP2 PUSH1 0xFF MUL NOT AND SWAP1 DUP4 ISZERO ISZERO MUL OR SWAP1 SSTORE POP PUSH1 0x64 PUSH1 0xB SLOAD GT ISZERO PUSH3 0x5D9 JUMPI PUSH1 0x1 PUSH1 0xC PUSH1 0x0 PUSH2 0x100 EXP DUP2 SLOAD DUP2 PUSH1 0xFF MUL NOT AND SWAP1 DUP4 ISZERO ISZERO MUL OR SWAP1 SSTORE POP JUMPDEST PUSH1 0x0 PUSH1 0x9 PUSH1 0x0 PUSH2 0x100 EXP DUP2 SLOAD DUP2 PUSH1 0xFF MUL NOT AND SWAP1 DUP4 ISZERO ISZERO MUL OR SWAP1 SSTORE POP JUMP JUMPDEST PUSH1 0x9 PUSH1 0x0 SWAP1 SLOAD SWAP1 PUSH2 0x100 EXP SWAP1 DIV PUSH1 0xFF AND ISZERO PUSH3 0x649 JUMPI PUSH1 0x40 MLOAD PUSH32 0x8C379A000000000000000000000000000000000000000000000000000000000 DUP2 MSTORE PUSH1 0x4 ADD PUSH3 0x640 SWAP1 PUSH3 0x2508 JUMP JUMPDEST PUSH1 0x40 MLOAD DUP1 SWAP2 SUB SWAP1 REVERT JUMPDEST PUSH1 0x1 PUSH1 0x9 PUSH1 0x0 PUSH2 0x100 EXP DUP2 SLOAD DUP2 PUSH1 0xFF MUL NOT AND SWAP1 DUP4 ISZERO ISZERO MUL OR SWAP1 SSTORE POP PUSH1 0x5 PUSH1 0x0 CALLER PUSH20 0xFFFFFFFFFFFFFFFFFFFFFFFFFFFFFFFFFFFFFFFF AND PUSH20 0xFFFFFFFFFFFFFFFFFFFFFFFFFFFFFFFFFFFFFFFF AND DUP2 MSTORE PUSH1 0x20 ADD SWAP1 DUP2 MSTORE PUSH1 0x20 ADD PUSH1 0x0 KECCAK256 PUSH1 0x0 SWAP1 SLOAD SWAP1 PUSH2 0x100 EXP SWAP1 DIV PUSH1 0xFF AND PUSH3 0x6F3 JUMPI PUSH1 0x40 MLOAD PUSH32 0x8C379A000000000000000000000000000000000000000000000000000000000 DUP2 MSTORE PUSH1 0x4 ADD PUSH3 0x6EA SWAP1 PUSH3 0x26AA JUMP JUMPDEST PUSH1 0x40 MLOAD DUP1 SWAP2 SUB SWAP1 REVERT JUMPDEST PUSH1 0x0 PUSH1 0x6 DUP1 SLOAD SWAP1 POP SWAP1 POP PUSH1 0x0 PUSH3 0x714 DUP3 SELFBALANCE PUSH3 0x1B55 SWAP1 SWAP2 SWAP1 PUSH4 0xFFFFFFFF AND JUMP JUMPDEST SWAP1 POP PUSH1 0x0 DUP2 GT PUSH3 0x75C JUMPI PUSH1 0x40 MLOAD PUSH32 0x8C379A000000000000000000000000000000000000000000000000000000000 DUP2 MSTORE PUSH1 0x4 ADD PUSH3 0x753 SWAP1 PUSH3 0x271C JUMP JUMPDEST PUSH1 0x40 MLOAD DUP1 SWAP2 SUB SWAP1 REVERT JUMPDEST PUSH1 0x0 JUMPDEST DUP3 DUP2 LT ISZERO PUSH3 0x807 JUMPI PUSH1 0x6 DUP2 DUP2 SLOAD DUP2 LT PUSH3 0x77F JUMPI PUSH3 0x77E PUSH3 0x273E JUMP JUMPDEST JUMPDEST SWAP1 PUSH1 0x0 MSTORE PUSH1 0x20 PUSH1 0x0 KECCAK256 ADD PUSH1 0x0 SWAP1 SLOAD SWAP1 PUSH2 0x100 EXP SWAP1 DIV PUSH20 0xFFFFFFFFFFFFFFFFFFFFFFFFFFFFFFFFFFFFFFFF AND PUSH20 0xFFFFFFFFFFFFFFFFFFFFFFFFFFFFFFFFFFFFFFFF AND PUSH2 0x8FC DUP4 SWAP1 DUP2 ISZERO MUL SWAP1 PUSH1 0x40 MLOAD PUSH1 0x0 PUSH1 0x40 MLOAD DUP1 DUP4 SUB DUP2 DUP6 DUP9 DUP9 CALL SWAP4 POP POP POP POP ISZERO DUP1 ISZERO PUSH3 0x7F0 JUMPI RETURNDATASIZE PUSH1 0x0 DUP1 RETURNDATACOPY RETURNDATASIZE PUSH1 0x0 REVERT JUMPDEST POP DUP1 DUP1 PUSH3 0x7FE SWAP1 PUSH3 0x279C JUMP JUMPDEST SWAP2 POP POP PUSH3 0x75F JUMP JUMPDEST POP POP POP PUSH1 0x0 PUSH1 0x9 PUSH1 0x0 PUSH2 0x100 EXP DUP2 SLOAD DUP2 PUSH1 0xFF MUL NOT AND SWAP1 DUP4 ISZERO ISZERO MUL OR SWAP1 SSTORE POP JUMP JUMPDEST PUSH1 0x5 PUSH1 0x20 MSTORE DUP1 PUSH1 0x0 MSTORE PUSH1 0x40 PUSH1 0x0 KECCAK256 PUSH1 0x0 SWAP2 POP SLOAD SWAP1 PUSH2 0x100 EXP SWAP1 DIV PUSH1 0xFF AND DUP2 JUMP JUMPDEST PUSH1 0x0 PUSH1 0x60 DUP1 PUSH1 0x60 DUP1 PUSH1 0x60 PUSH1 0x0 DUP1 PUSH1 0x0 DUP1 PUSH1 0x60 PUSH1 0x0 DUP1 SLOAD SWAP1 PUSH2 0x100 EXP SWAP1 DIV PUSH20 0xFFFFFFFFFFFFFFFFFFFFFFFFFFFFFFFFFFFFFFFF AND PUSH1 0x1 PUSH1 0x2 PUSH1 0x3 PUSH1 0x6 PUSH1 0x8 PUSH1 0xD DUP1 SLOAD SWAP1 POP PUSH1 0xB SLOAD PUSH1 0xC PUSH1 0x0 SWAP1 SLOAD SWAP1 PUSH2 0x100 EXP SWAP1 DIV PUSH1 0xFF AND SELFBALANCE PUSH1 0x4 DUP10 DUP1 SLOAD PUSH3 0x8AE SWAP1 PUSH3 0x2819 JUMP JUMPDEST DUP1 PUSH1 0x1F ADD PUSH1 0x20 DUP1 SWAP2 DIV MUL PUSH1 0x20 ADD PUSH1 0x40 MLOAD SWAP1 DUP2 ADD PUSH1 0x40 MSTORE DUP1 SWAP3 SWAP2 SWAP1 DUP2 DUP2 MSTORE PUSH1 0x20 ADD DUP3 DUP1 SLOAD PUSH3 0x8DC SWAP1 PUSH3 0x2819 JUMP JUMPDEST DUP1 ISZERO PUSH3 0x92D JUMPI DUP1 PUSH1 0x1F LT PUSH3 0x901 JUMPI PUSH2 0x100 DUP1 DUP4 SLOAD DIV MUL DUP4 MSTORE SWAP2 PUSH1 0x20 ADD SWAP2 PUSH3 0x92D JUMP JUMPDEST DUP3 ADD SWAP2 SWAP1 PUSH1 0x0 MSTORE PUSH1 0x20 PUSH1 0x0 KECCAK256 SWAP1 JUMPDEST DUP2 SLOAD DUP2 MSTORE SWAP1 PUSH1 0x1 ADD SWAP1 PUSH1 0x20 ADD DUP1 DUP4 GT PUSH3 0x90F JUMPI DUP3 SWAP1 SUB PUSH1 0x1F AND DUP3 ADD SWAP2 JUMPDEST POP POP POP POP POP SWAP10 POP DUP9 DUP1 SLOAD PUSH3 0x942 SWAP1 PUSH3 0x2819 JUMP JUMPDEST DUP1 PUSH1 0x1F ADD PUSH1 0x20 DUP1 SWAP2 DIV MUL PUSH1 0x20 ADD PUSH1 0x40 MLOAD SWAP1 DUP2 ADD PUSH1 0x40 MSTORE DUP1 SWAP3 SWAP2 SWAP1 DUP2 DUP2 MSTORE PUSH1 0x20 ADD DUP3 DUP1 SLOAD PUSH3 0x970 SWAP1 PUSH3 0x2819 JUMP JUMPDEST DUP1 ISZERO PUSH3 0x9C1 JUMPI DUP1 PUSH1 0x1F LT PUSH3 0x995 JUMPI PUSH2 0x100 DUP1 DUP4 SLOAD DIV MUL DUP4 MSTORE SWAP2 PUSH1 0x20 ADD SWAP2 PUSH3 0x9C1 JUMP JUMPDEST DUP3 ADD SWAP2 SWAP1 PUSH1 0x0 MSTORE PUSH1 0x20 PUSH1 0x0 KECCAK256 SWAP1 JUMPDEST DUP2 SLOAD DUP2 MSTORE SWAP1 PUSH1 0x1 ADD SWAP1 PUSH1 0x20 ADD DUP1 DUP4 GT PUSH3 0x9A3 JUMPI DUP3 SWAP1 SUB PUSH1 0x1F AND DUP3 ADD SWAP2 JUMPDEST POP POP POP POP POP SWAP9 POP DUP8 DUP1 SLOAD PUSH3 0x9D6 SWAP1 PUSH3 0x2819 JUMP JUMPDEST DUP1 PUSH1 0x1F ADD PUSH1 0x20 DUP1 SWAP2 DIV MUL PUSH1 0x20 ADD PUSH1 0x40 MLOAD SWAP1 DUP2 ADD PUSH1 0x40 MSTORE DUP1 SWAP3 SWAP2 SWAP1 DUP2 DUP2 MSTORE PUSH1 0x20 ADD DUP3 DUP1 SLOAD PUSH3 0xA04 SWAP1 PUSH3 0x2819 JUMP JUMPDEST DUP1 ISZERO PUSH3 0xA55 JUMPI DUP1 PUSH1 0x1F LT PUSH3 0xA29 JUMPI PUSH2 0x100 DUP1 DUP4 SLOAD DIV MUL DUP4 MSTORE SWAP2 PUSH1 0x20 ADD SWAP2 PUSH3 0xA55 JUMP JUMPDEST DUP3 ADD SWAP2 SWAP1 PUSH1 0x0 MSTORE PUSH1 0x20 PUSH1 0x0 KECCAK256 SWAP1 JUMPDEST DUP2 SLOAD DUP2 MSTORE SWAP1 PUSH1 0x1 ADD SWAP1 PUSH1 0x20 ADD DUP1 DUP4 GT PUSH3 0xA37 JUMPI DUP3 SWAP1 SUB PUSH1 0x1F AND DUP3 ADD SWAP2 JUMPDEST POP POP POP POP POP SWAP8 POP DUP7 DUP1 SLOAD DUP1 PUSH1 0x20 MUL PUSH1 0x20 ADD PUSH1 0x40 MLOAD SWAP1 DUP2 ADD PUSH1 0x40 MSTORE DUP1 SWAP3 SWAP2 SWAP1 DUP2 DUP2 MSTORE PUSH1 0x20 ADD DUP3 DUP1 SLOAD DUP1 ISZERO PUSH3 0xADF JUMPI PUSH1 0x20 MUL DUP3 ADD SWAP2 SWAP1 PUSH1 0x0 MSTORE PUSH1 0x20 PUSH1 0x0 KECCAK256 SWAP1 JUMPDEST DUP2 PUSH1 0x0 SWAP1 SLOAD SWAP1 PUSH2 0x100 EXP SWAP1 DIV PUSH20 0xFFFFFFFFFFFFFFFFFFFFFFFFFFFFFFFFFFFFFFFF AND PUSH20 0xFFFFFFFFFFFFFFFFFFFFFFFFFFFFFFFFFFFFFFFF AND DUP2 MSTORE PUSH1 0x20 ADD SWAP1 PUSH1 0x1 ADD SWAP1 DUP1 DUP4 GT PUSH3 0xA94 JUMPI JUMPDEST POP POP POP POP POP SWAP7 POP DUP6 DUP1 SLOAD DUP1 PUSH1 0x20 MUL PUSH1 0x20 ADD PUSH1 0x40 MLOAD SWAP1 DUP2 ADD PUSH1 0x40 MSTORE DUP1 SWAP3 SWAP2 SWAP1 DUP2 DUP2 MSTORE PUSH1 0x20 ADD DUP3 DUP1 SLOAD DUP1 ISZERO PUSH3 0xB69 JUMPI PUSH1 0x20 MUL DUP3 ADD SWAP2 SWAP1 PUSH1 0x0 MSTORE PUSH1 0x20 PUSH1 0x0 KECCAK256 SWAP1 JUMPDEST DUP2 PUSH1 0x0 SWAP1 SLOAD SWAP1 PUSH2 0x100 EXP SWAP1 DIV PUSH20 0xFFFFFFFFFFFFFFFFFFFFFFFFFFFFFFFFFFFFFFFF AND PUSH20 0xFFFFFFFFFFFFFFFFFFFFFFFFFFFFFFFFFFFFFFFF AND DUP2 MSTORE PUSH1 0x20 ADD SWAP1 PUSH1 0x1 ADD SWAP1 DUP1 DUP4 GT PUSH3 0xB1E JUMPI JUMPDEST POP POP POP POP POP SWAP6 POP DUP1 DUP1 SLOAD PUSH3 0xB7E SWAP1 PUSH3 0x2819 JUMP JUMPDEST DUP1 PUSH1 0x1F ADD PUSH1 0x20 DUP1 SWAP2 DIV MUL PUSH1 0x20 ADD PUSH1 0x40 MLOAD SWAP1 DUP2 ADD PUSH1 0x40 MSTORE DUP1 SWAP3 SWAP2 SWAP1 DUP2 DUP2 MSTORE PUSH1 0x20 ADD DUP3 DUP1 SLOAD PUSH3 0xBAC SWAP1 PUSH3 0x2819 JUMP JUMPDEST DUP1 ISZERO PUSH3 0xBFD JUMPI DUP1 PUSH1 0x1F LT PUSH3 0xBD1 JUMPI PUSH2 0x100 DUP1 DUP4 SLOAD DIV MUL DUP4 MSTORE SWAP2 PUSH1 0x20 ADD SWAP2 PUSH3 0xBFD JUMP JUMPDEST DUP3 ADD SWAP2 SWAP1 PUSH1 0x0 MSTORE PUSH1 0x20 PUSH1 0x0 KECCAK256 SWAP1 JUMPDEST DUP2 SLOAD DUP2 MSTORE SWAP1 PUSH1 0x1 ADD SWAP1 PUSH1 0x20 ADD DUP1 DUP4 GT PUSH3 0xBDF JUMPI DUP3 SWAP1 SUB PUSH1 0x1F AND DUP3 ADD SWAP2 JUMPDEST POP POP POP POP POP SWAP1 POP SWAP11 POP SWAP11 POP SWAP11 POP SWAP11 POP SWAP11 POP SWAP11 POP SWAP11 POP SWAP11 POP SWAP11 POP SWAP11 POP SWAP11 POP SWAP1 SWAP2 SWAP3 SWAP4 SWAP5 SWAP6 SWAP7 SWAP8 SWAP9 SWAP10 SWAP11 JUMP JUMPDEST PUSH1 0x0 PUSH1 0x5 PUSH1 0x0 CALLER PUSH20 0xFFFFFFFFFFFFFFFFFFFFFFFFFFFFFFFFFFFFFFFF AND PUSH20 0xFFFFFFFFFFFFFFFFFFFFFFFFFFFFFFFFFFFFFFFF AND DUP2 MSTORE PUSH1 0x20 ADD SWAP1 DUP2 MSTORE PUSH1 0x20 ADD PUSH1 0x0 KECCAK256 PUSH1 0x0 SWAP1 SLOAD SWAP1 PUSH2 0x100 EXP SWAP1 DIV PUSH1 0xFF AND SWAP1 POP SWAP1 JUMP JUMPDEST PUSH1 0xC PUSH1 0x0 SWAP1 SLOAD SWAP1 PUSH2 0x100 EXP SWAP1 DIV PUSH1 0xFF AND DUP2 JUMP JUMPDEST PUSH1 0xD DUP2 DUP2 SLOAD DUP2 LT PUSH3 0xC9F JUMPI PUSH1 0x0 DUP1 REVERT JUMPDEST SWAP1 PUSH1 0x0 MSTORE PUSH1 0x20 PUSH1 0x0 KECCAK256 SWAP1 PUSH1 0x6 MUL ADD PUSH1 0x0 SWAP2 POP SWAP1 POP DUP1 PUSH1 0x0 ADD DUP1 SLOAD PUSH3 0xCC4 SWAP1 PUSH3 0x2819 JUMP JUMPDEST DUP1 PUSH1 0x1F ADD PUSH1 0x20 DUP1 SWAP2 DIV MUL PUSH1 0x20 ADD PUSH1 0x40 MLOAD SWAP1 DUP2 ADD PUSH1 0x40 MSTORE DUP1 SWAP3 SWAP2 SWAP1 DUP2 DUP2 MSTORE PUSH1 0x20 ADD DUP3 DUP1 SLOAD PUSH3 0xCF2 SWAP1 PUSH3 0x2819 JUMP JUMPDEST DUP1 ISZERO PUSH3 0xD43 JUMPI DUP1 PUSH1 0x1F LT PUSH3 0xD17 JUMPI PUSH2 0x100 DUP1 DUP4 SLOAD DIV MUL DUP4 MSTORE SWAP2 PUSH1 0x20 ADD SWAP2 PUSH3 0xD43 JUMP JUMPDEST DUP3 ADD SWAP2 SWAP1 PUSH1 0x0 MSTORE PUSH1 0x20 PUSH1 0x0 KECCAK256 SWAP1 JUMPDEST DUP2 SLOAD DUP2 MSTORE SWAP1 PUSH1 0x1 ADD SWAP1 PUSH1 0x20 ADD DUP1 DUP4 GT PUSH3 0xD25 JUMPI DUP3 SWAP1 SUB PUSH1 0x1F AND DUP3 ADD SWAP2 JUMPDEST POP POP POP POP POP SWAP1 DUP1 PUSH1 0x1 ADD SLOAD SWAP1 DUP1 PUSH1 0x2 ADD PUSH1 0x0 SWAP1 SLOAD SWAP1 PUSH2 0x100 EXP SWAP1 DIV PUSH20 0xFFFFFFFFFFFFFFFFFFFFFFFFFFFFFFFFFFFFFFFF AND SWAP1 DUP1 PUSH1 0x4 ADD SLOAD SWAP1 DUP1 PUSH1 0x5 ADD PUSH1 0x0 SWAP1 SLOAD SWAP1 PUSH2 0x100 EXP SWAP1 DIV PUSH1 0xFF AND SWAP1 POP DUP6 JUMP JUMPDEST PUSH1 0x7 PUSH1 0x20 MSTORE DUP1 PUSH1 0x0 MSTORE PUSH1 0x40 PUSH1 0x0 KECCAK256 PUSH1 0x0 SWAP2 POP SLOAD SWAP1 PUSH2 0x100 EXP SWAP1 DIV PUSH1 0xFF AND DUP2 JUMP JUMPDEST PUSH1 0x9 PUSH1 0x0 SWAP1 SLOAD SWAP1 PUSH2 0x100 EXP SWAP1 DIV PUSH1 0xFF AND ISZERO PUSH3 0xE05 JUMPI PUSH1 0x40 MLOAD PUSH32 0x8C379A000000000000000000000000000000000000000000000000000000000 DUP2 MSTORE PUSH1 0x4 ADD PUSH3 0xDFC SWAP1 PUSH3 0x2508 JUMP JUMPDEST PUSH1 0x40 MLOAD DUP1 SWAP2 SUB SWAP1 REVERT JUMPDEST PUSH1 0x1 PUSH1 0x9 PUSH1 0x0 PUSH2 0x100 EXP DUP2 SLOAD DUP2 PUSH1 0xFF MUL NOT AND SWAP1 DUP4 ISZERO ISZERO MUL OR SWAP1 SSTORE POP PUSH1 0xC PUSH1 0x0 SWAP1 SLOAD SWAP1 PUSH2 0x100 EXP SWAP1 DIV PUSH1 0xFF AND ISZERO PUSH3 0xE73 JUMPI PUSH1 0x40 MLOAD PUSH32 0x8C379A000000000000000000000000000000000000000000000000000000000 DUP2 MSTORE PUSH1 0x4 ADD PUSH3 0xE6A SWAP1 PUSH3 0x257A JUMP JUMPDEST PUSH1 0x40 MLOAD DUP1 SWAP2 SUB SWAP1 REVERT JUMPDEST PUSH1 0x5 PUSH1 0x0 CALLER PUSH20 0xFFFFFFFFFFFFFFFFFFFFFFFFFFFFFFFFFFFFFFFF AND PUSH20 0xFFFFFFFFFFFFFFFFFFFFFFFFFFFFFFFFFFFFFFFF AND DUP2 MSTORE PUSH1 0x20 ADD SWAP1 DUP2 MSTORE PUSH1 0x20 ADD PUSH1 0x0 KECCAK256 PUSH1 0x0 SWAP1 SLOAD SWAP1 PUSH2 0x100 EXP SWAP1 DIV PUSH1 0xFF AND PUSH3 0xF02 JUMPI PUSH1 0x40 MLOAD PUSH32 0x8C379A000000000000000000000000000000000000000000000000000000000 DUP2 MSTORE PUSH1 0x4 ADD PUSH3 0xEF9 SWAP1 PUSH3 0x28C5 JUMP JUMPDEST PUSH1 0x40 MLOAD DUP1 SWAP2 SUB SWAP1 REVERT JUMPDEST PUSH1 0xD DUP1 SLOAD SWAP1 POP DUP2 LT DUP1 ISZERO PUSH3 0xF18 JUMPI POP PUSH1 0x0 DUP2 LT ISZERO JUMPDEST PUSH3 0xF5A JUMPI PUSH1 0x40 MLOAD PUSH32 0x8C379A000000000000000000000000000000000000000000000000000000000 DUP2 MSTORE PUSH1 0x4 ADD PUSH3 0xF51 SWAP1 PUSH3 0x2937 JUMP JUMPDEST PUSH1 0x40 MLOAD DUP1 SWAP2 SUB SWAP1 REVERT JUMPDEST PUSH1 0x0 PUSH1 0xD DUP3 DUP2 SLOAD DUP2 LT PUSH3 0xF73 JUMPI PUSH3 0xF72 PUSH3 0x273E JUMP JUMPDEST JUMPDEST SWAP1 PUSH1 0x0 MSTORE PUSH1 0x20 PUSH1 0x0 KECCAK256 SWAP1 PUSH1 0x6 MUL ADD SWAP1 POP DUP1 PUSH1 0x3 ADD PUSH1 0x0 CALLER PUSH20 0xFFFFFFFFFFFFFFFFFFFFFFFFFFFFFFFFFFFFFFFF AND PUSH20 0xFFFFFFFFFFFFFFFFFFFFFFFFFFFFFFFFFFFFFFFF AND DUP2 MSTORE PUSH1 0x20 ADD SWAP1 DUP2 MSTORE PUSH1 0x20 ADD PUSH1 0x0 KECCAK256 PUSH1 0x0 SWAP1 SLOAD SWAP1 PUSH2 0x100 EXP SWAP1 DIV PUSH1 0xFF AND ISZERO PUSH3 0x1015 JUMPI PUSH1 0x40 MLOAD PUSH32 0x8C379A000000000000000000000000000000000000000000000000000000000 DUP2 MSTORE PUSH1 0x4 ADD PUSH3 0x100C SWAP1 PUSH3 0x29CF JUMP JUMPDEST PUSH1 0x40 MLOAD DUP1 SWAP2 SUB SWAP1 REVERT JUMPDEST PUSH1 0x1 DUP2 PUSH1 0x3 ADD PUSH1 0x0 CALLER PUSH20 0xFFFFFFFFFFFFFFFFFFFFFFFFFFFFFFFFFFFFFFFF AND PUSH20 0xFFFFFFFFFFFFFFFFFFFFFFFFFFFFFFFFFFFFFFFF AND DUP2 MSTORE PUSH1 0x20 ADD SWAP1 DUP2 MSTORE PUSH1 0x20 ADD PUSH1 0x0 KECCAK256 PUSH1 0x0 PUSH2 0x100 EXP DUP2 SLOAD DUP2 PUSH1 0xFF MUL NOT AND SWAP1 DUP4 ISZERO ISZERO MUL OR SWAP1 SSTORE POP PUSH3 0x1089 PUSH1 0x1 DUP3 PUSH1 0x4 ADD SLOAD PUSH3 0x1AF2 SWAP1 SWAP2 SWAP1 PUSH4 0xFFFFFFFF AND JUMP JUMPDEST DUP2 PUSH1 0x4 ADD DUP2 SWAP1 SSTORE POP PUSH1 0x2 PUSH1 0x6 DUP1 SLOAD SWAP1 POP PUSH3 0x10A5 SWAP2 SWAP1 PUSH3 0x2A20 JUMP JUMPDEST DUP2 PUSH1 0x4 ADD SLOAD LT PUSH3 0x11D1 JUMPI PUSH1 0x1 DUP2 PUSH1 0x5 ADD PUSH1 0x0 PUSH2 0x100 EXP DUP2 SLOAD DUP2 PUSH1 0xFF MUL NOT AND SWAP1 DUP4 ISZERO ISZERO MUL OR SWAP1 SSTORE POP PUSH1 0x1 PUSH1 0x5 PUSH1 0x0 DUP4 PUSH1 0x2 ADD PUSH1 0x0 SWAP1 SLOAD SWAP1 PUSH2 0x100 EXP SWAP1 DIV PUSH20 0xFFFFFFFFFFFFFFFFFFFFFFFFFFFFFFFFFFFFFFFF AND PUSH20 0xFFFFFFFFFFFFFFFFFFFFFFFFFFFFFFFFFFFFFFFF AND PUSH20 0xFFFFFFFFFFFFFFFFFFFFFFFFFFFFFFFFFFFFFFFF AND DUP2 MSTORE PUSH1 0x20 ADD SWAP1 DUP2 MSTORE PUSH1 0x20 ADD PUSH1 0x0 KECCAK256 PUSH1 0x0 PUSH2 0x100 EXP DUP2 SLOAD DUP2 PUSH1 0xFF MUL NOT AND SWAP1 DUP4 ISZERO ISZERO MUL OR SWAP1 SSTORE POP PUSH1 0x6 DUP2 PUSH1 0x2 ADD PUSH1 0x0 SWAP1 SLOAD SWAP1 PUSH2 0x100 EXP SWAP1 DIV PUSH20 0xFFFFFFFFFFFFFFFFFFFFFFFFFFFFFFFFFFFFFFFF AND SWAP1 DUP1 PUSH1 0x1 DUP2 SLOAD ADD DUP1 DUP3 SSTORE DUP1 SWAP2 POP POP PUSH1 0x1 SWAP1 SUB SWAP1 PUSH1 0x0 MSTORE PUSH1 0x20 PUSH1 0x0 KECCAK256 ADD PUSH1 0x0 SWAP1 SWAP2 SWAP1 SWAP2 SWAP1 SWAP2 PUSH2 0x100 EXP DUP2 SLOAD DUP2 PUSH20 0xFFFFFFFFFFFFFFFFFFFFFFFFFFFFFFFFFFFFFFFF MUL NOT AND SWAP1 DUP4 PUSH20 0xFFFFFFFFFFFFFFFFFFFFFFFFFFFFFFFFFFFFFFFF AND MUL OR SWAP1 SSTORE POP JUMPDEST POP PUSH1 0x0 PUSH1 0x9 PUSH1 0x0 PUSH2 0x100 EXP DUP2 SLOAD DUP2 PUSH1 0xFF MUL NOT AND SWAP1 DUP4 ISZERO ISZERO MUL OR SWAP1 SSTORE POP POP JUMP JUMPDEST PUSH1 0x9 PUSH1 0x0 SWAP1 SLOAD SWAP1 PUSH2 0x100 EXP SWAP1 DIV PUSH1 0xFF AND ISZERO PUSH3 0x1243 JUMPI PUSH1 0x40 MLOAD PUSH32 0x8C379A000000000000000000000000000000000000000000000000000000000 DUP2 MSTORE PUSH1 0x4 ADD PUSH3 0x123A SWAP1 PUSH3 0x2508 JUMP JUMPDEST PUSH1 0x40 MLOAD DUP1 SWAP2 SUB SWAP1 REVERT JUMPDEST PUSH1 0x1 PUSH1 0x9 PUSH1 0x0 PUSH2 0x100 EXP DUP2 SLOAD DUP2 PUSH1 0xFF MUL NOT AND SWAP1 DUP4 ISZERO ISZERO MUL OR SWAP1 SSTORE POP PUSH1 0xC PUSH1 0x0 SWAP1 SLOAD SWAP1 PUSH2 0x100 EXP SWAP1 DIV PUSH1 0xFF AND ISZERO PUSH3 0x12B1 JUMPI PUSH1 0x40 MLOAD PUSH32 0x8C379A000000000000000000000000000000000000000000000000000000000 DUP2 MSTORE PUSH1 0x4 ADD PUSH3 0x12A8 SWAP1 PUSH3 0x257A JUMP JUMPDEST PUSH1 0x40 MLOAD DUP1 SWAP2 SUB SWAP1 REVERT JUMPDEST PUSH1 0x5 PUSH1 0x0 CALLER PUSH20 0xFFFFFFFFFFFFFFFFFFFFFFFFFFFFFFFFFFFFFFFF AND PUSH20 0xFFFFFFFFFFFFFFFFFFFFFFFFFFFFFFFFFFFFFFFF AND DUP2 MSTORE PUSH1 0x20 ADD SWAP1 DUP2 MSTORE PUSH1 0x20 ADD PUSH1 0x0 KECCAK256 PUSH1 0x0 SWAP1 SLOAD SWAP1 PUSH2 0x100 EXP SWAP1 DIV PUSH1 0xFF AND PUSH3 0x1340 JUMPI PUSH1 0x40 MLOAD PUSH32 0x8C379A000000000000000000000000000000000000000000000000000000000 DUP2 MSTORE PUSH1 0x4 ADD PUSH3 0x1337 SWAP1 PUSH3 0x2ACE JUMP JUMPDEST PUSH1 0x40 MLOAD DUP1 SWAP2 SUB SWAP1 REVERT JUMPDEST PUSH3 0x134B DUP3 PUSH3 0x1BB2 JUMP JUMPDEST PUSH3 0x138D JUMPI PUSH1 0x40 MLOAD PUSH32 0x8C379A000000000000000000000000000000000000000000000000000000000 DUP2 MSTORE PUSH1 0x4 ADD PUSH3 0x1384 SWAP1 PUSH3 0x2B66 JUMP JUMPDEST PUSH1 0x40 MLOAD DUP1 SWAP2 SUB SWAP1 REVERT JUMPDEST PUSH3 0x1398 DUP2 PUSH3 0x1BB2 JUMP JUMPDEST PUSH3 0x13DA JUMPI PUSH1 0x40 MLOAD PUSH32 0x8C379A000000000000000000000000000000000000000000000000000000000 DUP2 MSTORE PUSH1 0x4 ADD PUSH3 0x13D1 SWAP1 PUSH3 0x2BD8 JUMP JUMPDEST PUSH1 0x40 MLOAD DUP1 SWAP2 SUB SWAP1 REVERT JUMPDEST PUSH3 0x13E5 DUP3 PUSH3 0x1C06 JUMP JUMPDEST PUSH3 0x1427 JUMPI PUSH1 0x40 MLOAD PUSH32 0x8C379A000000000000000000000000000000000000000000000000000000000 DUP2 MSTORE PUSH1 0x4 ADD PUSH3 0x141E SWAP1 PUSH3 0x2C70 JUMP JUMPDEST PUSH1 0x40 MLOAD DUP1 SWAP2 SUB SWAP1 REVERT JUMPDEST PUSH3 0x1432 DUP2 PUSH3 0x1C9C JUMP JUMPDEST PUSH3 0x1474 JUMPI PUSH1 0x40 MLOAD PUSH32 0x8C379A000000000000000000000000000000000000000000000000000000000 DUP2 MSTORE PUSH1 0x4 ADD PUSH3 0x146B SWAP1 PUSH3 0x2D08 JUMP JUMPDEST PUSH1 0x40 MLOAD DUP1 SWAP2 SUB SWAP1 REVERT JUMPDEST PUSH1 0x0 CALLER ADDRESS DUP7 DUP7 DUP7 DUP7 PUSH1 0x40 MLOAD PUSH3 0x148A SWAP1 PUSH3 0x1D32 JUMP JUMPDEST PUSH3 0x149B SWAP7 SWAP6 SWAP5 SWAP4 SWAP3 SWAP2 SWAP1 PUSH3 0x2D2A JUMP JUMPDEST PUSH1 0x40 MLOAD DUP1 SWAP2 SUB SWAP1 PUSH1 0x0 CREATE DUP1 ISZERO DUP1 ISZERO PUSH3 0x14B8 JUMPI RETURNDATASIZE PUSH1 0x0 DUP1 RETURNDATACOPY RETURNDATASIZE PUSH1 0x0 REVERT JUMPDEST POP SWAP1 POP PUSH1 0x0 PUSH20 0xFFFFFFFFFFFFFFFFFFFFFFFFFFFFFFFFFFFFFFFF AND DUP4 PUSH20 0xFFFFFFFFFFFFFFFFFFFFFFFFFFFFFFFFFFFFFFFF AND EQ PUSH3 0x1566 JUMPI PUSH1 0x0 DUP4 SWAP1 POP DUP1 PUSH20 0xFFFFFFFFFFFFFFFFFFFFFFFFFFFFFFFFFFFFFFFF AND PUSH4 0x988E46C8 DUP4 PUSH1 0x40 MLOAD DUP3 PUSH4 0xFFFFFFFF AND PUSH1 0xE0 SHL DUP2 MSTORE PUSH1 0x4 ADD PUSH3 0x1530 SWAP2 SWAP1 PUSH3 0x244A JUMP JUMPDEST PUSH1 0x0 PUSH1 0x40 MLOAD DUP1 DUP4 SUB DUP2 PUSH1 0x0 DUP8 DUP1 EXTCODESIZE ISZERO DUP1 ISZERO PUSH3 0x154B JUMPI PUSH1 0x0 DUP1 REVERT JUMPDEST POP GAS CALL ISZERO DUP1 ISZERO PUSH3 0x1560 JUMPI RETURNDATASIZE PUSH1 0x0 DUP1 RETURNDATACOPY RETURNDATASIZE PUSH1 0x0 REVERT JUMPDEST POP POP POP POP POP JUMPDEST PUSH1 0x0 PUSH20 0xFFFFFFFFFFFFFFFFFFFFFFFFFFFFFFFFFFFFFFFF AND DUP3 PUSH20 0xFFFFFFFFFFFFFFFFFFFFFFFFFFFFFFFFFFFFFFFF AND EQ PUSH3 0x1611 JUMPI PUSH1 0x0 DUP3 SWAP1 POP DUP1 PUSH20 0xFFFFFFFFFFFFFFFFFFFFFFFFFFFFFFFFFFFFFFFF AND PUSH4 0x8758CE83 DUP4 PUSH1 0x40 MLOAD DUP3 PUSH4 0xFFFFFFFF AND PUSH1 0xE0 SHL DUP2 MSTORE PUSH1 0x4 ADD PUSH3 0x15DB SWAP2 SWAP1 PUSH3 0x244A JUMP JUMPDEST PUSH1 0x0 PUSH1 0x40 MLOAD DUP1 DUP4 SUB DUP2 PUSH1 0x0 DUP8 DUP1 EXTCODESIZE ISZERO DUP1 ISZERO PUSH3 0x15F6 JUMPI PUSH1 0x0 DUP1 REVERT JUMPDEST POP GAS CALL ISZERO DUP1 ISZERO PUSH3 0x160B JUMPI RETURNDATASIZE PUSH1 0x0 DUP1 RETURNDATACOPY RETURNDATASIZE PUSH1 0x0 REVERT JUMPDEST POP POP POP POP POP JUMPDEST PUSH1 0x8 DUP2 SWAP1 DUP1 PUSH1 0x1 DUP2 SLOAD ADD DUP1 DUP3 SSTORE DUP1 SWAP2 POP POP PUSH1 0x1 SWAP1 SUB SWAP1 PUSH1 0x0 MSTORE PUSH1 0x20 PUSH1 0x0 KECCAK256 ADD PUSH1 0x0 SWAP1 SWAP2 SWAP1 SWAP2 SWAP1 SWAP2 PUSH2 0x100 EXP DUP2 SLOAD DUP2 PUSH20 0xFFFFFFFFFFFFFFFFFFFFFFFFFFFFFFFFFFFFFFFF MUL NOT AND SWAP1 DUP4 PUSH20 0xFFFFFFFFFFFFFFFFFFFFFFFFFFFFFFFFFFFFFFFF AND MUL OR SWAP1 SSTORE POP PUSH1 0x1 PUSH1 0x7 PUSH1 0x0 DUP4 PUSH20 0xFFFFFFFFFFFFFFFFFFFFFFFFFFFFFFFFFFFFFFFF AND PUSH20 0xFFFFFFFFFFFFFFFFFFFFFFFFFFFFFFFFFFFFFFFF AND DUP2 MSTORE PUSH1 0x20 ADD SWAP1 DUP2 MSTORE PUSH1 0x20 ADD PUSH1 0x0 KECCAK256 PUSH1 0x0 PUSH2 0x100 EXP DUP2 SLOAD DUP2 PUSH1 0xFF MUL NOT AND SWAP1 DUP4 ISZERO ISZERO MUL OR SWAP1 SSTORE POP POP PUSH1 0x0 PUSH1 0x9 PUSH1 0x0 PUSH2 0x100 EXP DUP2 SLOAD DUP2 PUSH1 0xFF MUL NOT AND SWAP1 DUP4 ISZERO ISZERO MUL OR SWAP1 SSTORE POP POP POP POP POP JUMP JUMPDEST PUSH1 0x60 PUSH1 0x8 DUP1 SLOAD DUP1 PUSH1 0x20 MUL PUSH1 0x20 ADD PUSH1 0x40 MLOAD SWAP1 DUP2 ADD PUSH1 0x40 MSTORE DUP1 SWAP3 SWAP2 SWAP1 DUP2 DUP2 MSTORE PUSH1 0x20 ADD DUP3 DUP1 SLOAD DUP1 ISZERO PUSH3 0x1774 JUMPI PUSH1 0x20 MUL DUP3 ADD SWAP2 SWAP1 PUSH1 0x0 MSTORE PUSH1 0x20 PUSH1 0x0 KECCAK256 SWAP1 JUMPDEST DUP2 PUSH1 0x0 SWAP1 SLOAD SWAP1 PUSH2 0x100 EXP SWAP1 DIV PUSH20 0xFFFFFFFFFFFFFFFFFFFFFFFFFFFFFFFFFFFFFFFF AND PUSH20 0xFFFFFFFFFFFFFFFFFFFFFFFFFFFFFFFFFFFFFFFF AND DUP2 MSTORE PUSH1 0x20 ADD SWAP1 PUSH1 0x1 ADD SWAP1 DUP1 DUP4 GT PUSH3 0x1729 JUMPI JUMPDEST POP POP POP POP POP SWAP1 POP SWAP1 JUMP JUMPDEST PUSH1 0x6 DUP2 DUP2 SLOAD DUP2 LT PUSH3 0x178F JUMPI PUSH1 0x0 DUP1 REVERT JUMPDEST SWAP1 PUSH1 0x0 MSTORE PUSH1 0x20 PUSH1 0x0 KECCAK256 ADD PUSH1 0x0 SWAP2 POP SLOAD SWAP1 PUSH2 0x100 EXP SWAP1 DIV PUSH20 0xFFFFFFFFFFFFFFFFFFFFFFFFFFFFFFFFFFFFFFFF AND DUP2 JUMP JUMPDEST PUSH1 0x8 DUP2 DUP2 SLOAD DUP2 LT PUSH3 0x17CF JUMPI PUSH1 0x0 DUP1 REVERT JUMPDEST SWAP1 PUSH1 0x0 MSTORE PUSH1 0x20 PUSH1 0x0 KECCAK256 ADD PUSH1 0x0 SWAP2 POP SLOAD SWAP1 PUSH2 0x100 EXP SWAP1 DIV PUSH20 0xFFFFFFFFFFFFFFFFFFFFFFFFFFFFFFFFFFFFFFFF AND DUP2 JUMP JUMPDEST PUSH1 0x9 PUSH1 0x0 SWAP1 SLOAD SWAP1 PUSH2 0x100 EXP SWAP1 DIV PUSH1 0xFF AND ISZERO PUSH3 0x1851 JUMPI PUSH1 0x40 MLOAD PUSH32 0x8C379A000000000000000000000000000000000000000000000000000000000 DUP2 MSTORE PUSH1 0x4 ADD PUSH3 0x1848 SWAP1 PUSH3 0x2508 JUMP JUMPDEST PUSH1 0x40 MLOAD DUP1 SWAP2 SUB SWAP1 REVERT JUMPDEST PUSH1 0x1 PUSH1 0x9 PUSH1 0x0 PUSH2 0x100 EXP DUP2 SLOAD DUP2 PUSH1 0xFF MUL NOT AND SWAP1 DUP4 ISZERO ISZERO MUL OR SWAP1 SSTORE POP PUSH1 0x64 CALLVALUE LT ISZERO PUSH3 0x18B3 JUMPI PUSH1 0x40 MLOAD PUSH32 0x8C379A000000000000000000000000000000000000000000000000000000000 DUP2 MSTORE PUSH1 0x4 ADD PUSH3 0x18AA SWAP1 PUSH3 0x2DF5 JUMP JUMPDEST PUSH1 0x40 MLOAD DUP1 SWAP2 SUB SWAP1 REVERT JUMPDEST PUSH1 0x0 PUSH1 0x9 PUSH1 0x0 PUSH2 0x100 EXP DUP2 SLOAD DUP2 PUSH1 0xFF MUL NOT AND SWAP1 DUP4 ISZERO ISZERO MUL OR SWAP1 SSTORE POP JUMP JUMPDEST PUSH1 0x9 PUSH1 0x0 SWAP1 SLOAD SWAP1 PUSH2 0x100 EXP SWAP1 DIV PUSH1 0xFF AND ISZERO PUSH3 0x1923 JUMPI PUSH1 0x40 MLOAD PUSH32 0x8C379A000000000000000000000000000000000000000000000000000000000 DUP2 MSTORE PUSH1 0x4 ADD PUSH3 0x191A SWAP1 PUSH3 0x2508 JUMP JUMPDEST PUSH1 0x40 MLOAD DUP1 SWAP2 SUB SWAP1 REVERT JUMPDEST PUSH1 0x1 PUSH1 0x9 PUSH1 0x0 PUSH2 0x100 EXP DUP2 SLOAD DUP2 PUSH1 0xFF MUL NOT AND SWAP1 DUP4 ISZERO ISZERO MUL OR SWAP1 SSTORE POP PUSH1 0xC PUSH1 0x0 SWAP1 SLOAD SWAP1 PUSH2 0x100 EXP SWAP1 DIV PUSH1 0xFF AND ISZERO PUSH3 0x1991 JUMPI PUSH1 0x40 MLOAD PUSH32 0x8C379A000000000000000000000000000000000000000000000000000000000 DUP2 MSTORE PUSH1 0x4 ADD PUSH3 0x1988 SWAP1 PUSH3 0x257A JUMP JUMPDEST PUSH1 0x40 MLOAD DUP1 SWAP2 SUB SWAP1 REVERT JUMPDEST PUSH1 0x5 PUSH1 0x0 CALLER PUSH20 0xFFFFFFFFFFFFFFFFFFFFFFFFFFFFFFFFFFFFFFFF AND PUSH20 0xFFFFFFFFFFFFFFFFFFFFFFFFFFFFFFFFFFFFFFFF AND DUP2 MSTORE PUSH1 0x20 ADD SWAP1 DUP2 MSTORE PUSH1 0x20 ADD PUSH1 0x0 KECCAK256 PUSH1 0x0 SWAP1 SLOAD SWAP1 PUSH2 0x100 EXP SWAP1 DIV PUSH1 0xFF AND ISZERO PUSH3 0x1A21 JUMPI PUSH1 0x40 MLOAD PUSH32 0x8C379A000000000000000000000000000000000000000000000000000000000 DUP2 MSTORE PUSH1 0x4 ADD PUSH3 0x1A18 SWAP1 PUSH3 0x2E8D JUMP JUMPDEST PUSH1 0x40 MLOAD DUP1 SWAP2 SUB SWAP1 REVERT JUMPDEST PUSH1 0x0 PUSH1 0xD PUSH1 0x1 DUP2 PUSH1 0x1 DUP2 SLOAD ADD DUP1 DUP3 SSTORE DUP1 SWAP2 POP POP SUB SWAP1 PUSH1 0x0 MSTORE PUSH1 0x20 PUSH1 0x0 KECCAK256 SWAP1 PUSH1 0x6 MUL ADD SWAP1 POP DUP2 DUP2 PUSH1 0x0 ADD SWAP1 DUP1 MLOAD SWAP1 PUSH1 0x20 ADD SWAP1 PUSH3 0x1A5F SWAP3 SWAP2 SWAP1 PUSH3 0x1D40 JUMP JUMPDEST POP TIMESTAMP DUP2 PUSH1 0x1 ADD DUP2 SWAP1 SSTORE POP CALLER DUP2 PUSH1 0x2 ADD PUSH1 0x0 PUSH2 0x100 EXP DUP2 SLOAD DUP2 PUSH20 0xFFFFFFFFFFFFFFFFFFFFFFFFFFFFFFFFFFFFFFFF MUL NOT AND SWAP1 DUP4 PUSH20 0xFFFFFFFFFFFFFFFFFFFFFFFFFFFFFFFFFFFFFFFF AND MUL OR SWAP1 SSTORE POP PUSH1 0x0 DUP2 PUSH1 0x4 ADD DUP2 SWAP1 SSTORE POP PUSH1 0x0 DUP2 PUSH1 0x5 ADD PUSH1 0x0 PUSH2 0x100 EXP DUP2 SLOAD DUP2 PUSH1 0xFF MUL NOT AND SWAP1 DUP4 ISZERO ISZERO MUL OR SWAP1 SSTORE POP POP PUSH1 0x0 PUSH1 0x9 PUSH1 0x0 PUSH2 0x100 EXP DUP2 SLOAD DUP2 PUSH1 0xFF MUL NOT AND SWAP1 DUP4 ISZERO ISZERO MUL OR SWAP1 SSTORE POP POP JUMP JUMPDEST PUSH1 0x0 DUP1 DUP3 DUP5 PUSH3 0x1B03 SWAP2 SWAP1 PUSH3 0x2EAF JUMP JUMPDEST SWAP1 POP DUP4 DUP2 LT ISZERO PUSH3 0x1B4B JUMPI PUSH1 0x40 MLOAD PUSH32 0x8C379A000000000000000000000000000000000000000000000000000000000 DUP2 MSTORE PUSH1 0x4 ADD PUSH3 0x1B42 SWAP1 PUSH3 0x2F5C JUMP JUMPDEST PUSH1 0x40 MLOAD DUP1 SWAP2 SUB SWAP1 REVERT JUMPDEST DUP1 SWAP2 POP POP SWAP3 SWAP2 POP POP JUMP JUMPDEST PUSH1 0x0 DUP1 DUP3 GT PUSH3 0x1B9C JUMPI PUSH1 0x40 MLOAD PUSH32 0x8C379A000000000000000000000000000000000000000000000000000000000 DUP2 MSTORE PUSH1 0x4 ADD PUSH3 0x1B93 SWAP1 PUSH3 0x2FCE JUMP JUMPDEST PUSH1 0x40 MLOAD DUP1 SWAP2 SUB SWAP1 REVERT JUMPDEST DUP2 DUP4 PUSH3 0x1BAA SWAP2 SWAP1 PUSH3 0x2A20 JUMP JUMPDEST SWAP1 POP SWAP3 SWAP2 POP POP JUMP JUMPDEST PUSH1 0x0 DUP1 PUSH20 0xFFFFFFFFFFFFFFFFFFFFFFFFFFFFFFFFFFFFFFFF AND DUP3 PUSH20 0xFFFFFFFFFFFFFFFFFFFFFFFFFFFFFFFFFFFFFFFF AND EQ ISZERO PUSH3 0x1BF3 JUMPI PUSH1 0x1 SWAP1 POP PUSH3 0x1C01 JUMP JUMPDEST PUSH1 0x0 DUP3 EXTCODESIZE SWAP1 POP PUSH1 0x0 DUP2 GT SWAP2 POP POP JUMPDEST SWAP2 SWAP1 POP JUMP JUMPDEST PUSH1 0x0 DUP1 PUSH20 0xFFFFFFFFFFFFFFFFFFFFFFFFFFFFFFFFFFFFFFFF AND DUP3 PUSH20 0xFFFFFFFFFFFFFFFFFFFFFFFFFFFFFFFFFFFFFFFF AND EQ ISZERO PUSH3 0x1C47 JUMPI PUSH1 0x1 SWAP1 POP PUSH3 0x1C97 JUMP JUMPDEST PUSH1 0x7 PUSH1 0x0 DUP4 PUSH20 0xFFFFFFFFFFFFFFFFFFFFFFFFFFFFFFFFFFFFFFFF AND PUSH20 0xFFFFFFFFFFFFFFFFFFFFFFFFFFFFFFFFFFFFFFFF AND DUP2 MSTORE PUSH1 0x20 ADD SWAP1 DUP2 MSTORE PUSH1 0x20 ADD PUSH1 0x0 KECCAK256 PUSH1 0x0 SWAP1 SLOAD SWAP1 PUSH2 0x100 EXP SWAP1 DIV PUSH1 0xFF AND SWAP1 POP JUMPDEST SWAP2 SWAP1 POP JUMP JUMPDEST PUSH1 0x0 DUP1 PUSH20 0xFFFFFFFFFFFFFFFFFFFFFFFFFFFFFFFFFFFFFFFF AND DUP3 PUSH20 0xFFFFFFFFFFFFFFFFFFFFFFFFFFFFFFFFFFFFFFFF AND EQ ISZERO PUSH3 0x1CDD JUMPI PUSH1 0x1 SWAP1 POP PUSH3 0x1D2D JUMP JUMPDEST PUSH1 0x7 PUSH1 0x0 DUP4 PUSH20 0xFFFFFFFFFFFFFFFFFFFFFFFFFFFFFFFFFFFFFFFF AND PUSH20 0xFFFFFFFFFFFFFFFFFFFFFFFFFFFFFFFFFFFFFFFF AND DUP2 MSTORE PUSH1 0x20 ADD SWAP1 DUP2 MSTORE PUSH1 0x20 ADD PUSH1 0x0 KECCAK256 PUSH1 0x0 SWAP1 SLOAD SWAP1 PUSH2 0x100 EXP SWAP1 DIV PUSH1 0xFF AND SWAP1 POP JUMPDEST SWAP2 SWAP1 POP JUMP JUMPDEST PUSH2 0x15F7 DUP1 PUSH3 0x2FF1 DUP4 CODECOPY ADD SWAP1 JUMP JUMPDEST DUP3 DUP1 SLOAD PUSH3 0x1D4E SWAP1 PUSH3 0x2819 JUMP JUMPDEST SWAP1 PUSH1 0x0 MSTORE PUSH1 0x20 PUSH1 0x0 KECCAK256 SWAP1 PUSH1 0x1F ADD PUSH1 0x20 SWAP1 DIV DUP2 ADD SWAP3 DUP3 PUSH3 0x1D72 JUMPI PUSH1 0x0 DUP6 SSTORE PUSH3 0x1DBE JUMP JUMPDEST DUP3 PUSH1 0x1F LT PUSH3 0x1D8D JUMPI DUP1 MLOAD PUSH1 0xFF NOT AND DUP4 DUP1 ADD OR DUP6 SSTORE PUSH3 0x1DBE JUMP JUMPDEST DUP3 DUP1 ADD PUSH1 0x1 ADD DUP6 SSTORE DUP3 ISZERO PUSH3 0x1DBE JUMPI SWAP2 DUP3 ADD JUMPDEST DUP3 DUP2 GT ISZERO PUSH3 0x1DBD JUMPI DUP3 MLOAD DUP3 SSTORE SWAP2 PUSH1 0x20 ADD SWAP2 SWAP1 PUSH1 0x1 ADD SWAP1 PUSH3 0x1DA0 JUMP JUMPDEST JUMPDEST POP SWAP1 POP PUSH3 0x1DCD SWAP2 SWAP1 PUSH3 0x1DD1 JUMP JUMPDEST POP SWAP1 JUMP JUMPDEST JUMPDEST DUP1 DUP3 GT ISZERO PUSH3 0x1DEC JUMPI PUSH1 0x0 DUP2 PUSH1 0x0 SWAP1 SSTORE POP PUSH1 0x1 ADD PUSH3 0x1DD2 JUMP JUMPDEST POP SWAP1 JUMP JUMPDEST PUSH1 0x0 PUSH1 0x40 MLOAD SWAP1 POP SWAP1 JUMP JUMPDEST PUSH1 0x0 DUP1 REVERT JUMPDEST PUSH1 0x0 DUP1 REVERT JUMPDEST PUSH1 0x0 PUSH20 0xFFFFFFFFFFFFFFFFFFFFFFFFFFFFFFFFFFFFFFFF DUP3 AND SWAP1 POP SWAP2 SWAP1 POP JUMP JUMPDEST PUSH1 0x0 PUSH3 0x1E31 DUP3 PUSH3 0x1E04 JUMP JUMPDEST SWAP1 POP SWAP2 SWAP1 POP JUMP JUMPDEST PUSH3 0x1E43 DUP2 PUSH3 0x1E24 JUMP JUMPDEST DUP2 EQ PUSH3 0x1E4F JUMPI PUSH1 0x0 DUP1 REVERT JUMPDEST POP JUMP JUMPDEST PUSH1 0x0 DUP2 CALLDATALOAD SWAP1 POP PUSH3 0x1E63 DUP2 PUSH3 0x1E38 JUMP JUMPDEST SWAP3 SWAP2 POP POP JUMP JUMPDEST PUSH1 0x0 PUSH1 0x20 DUP3 DUP5 SUB SLT ISZERO PUSH3 0x1E82 JUMPI PUSH3 0x1E81 PUSH3 0x1DFA JUMP JUMPDEST JUMPDEST PUSH1 0x0 PUSH3 0x1E92 DUP5 DUP3 DUP6 ADD PUSH3 0x1E52 JUMP JUMPDEST SWAP2 POP POP SWAP3 SWAP2 POP POP JUMP JUMPDEST PUSH1 0x0 DUP2 ISZERO ISZERO SWAP1 POP SWAP2 SWAP1 POP JUMP JUMPDEST PUSH3 0x1EB2 DUP2 PUSH3 0x1E9B JUMP JUMPDEST DUP3 MSTORE POP POP JUMP JUMPDEST PUSH1 0x0 PUSH1 0x20 DUP3 ADD SWAP1 POP PUSH3 0x1ECF PUSH1 0x0 DUP4 ADD DUP5 PUSH3 0x1EA7 JUMP JUMPDEST SWAP3 SWAP2 POP POP JUMP JUMPDEST PUSH3 0x1EE0 DUP2 PUSH3 0x1E24 JUMP JUMPDEST DUP3 MSTORE POP POP JUMP JUMPDEST PUSH1 0x0 DUP2 MLOAD SWAP1 POP SWAP2 SWAP1 POP JUMP JUMPDEST PUSH1 0x0 DUP3 DUP3 MSTORE PUSH1 0x20 DUP3 ADD SWAP1 POP SWAP3 SWAP2 POP POP JUMP JUMPDEST PUSH1 0x0 JUMPDEST DUP4 DUP2 LT ISZERO PUSH3 0x1F22 JUMPI DUP1 DUP3 ADD MLOAD DUP2 DUP5 ADD MSTORE PUSH1 0x20 DUP2 ADD SWAP1 POP PUSH3 0x1F05 JUMP JUMPDEST DUP4 DUP2 GT ISZERO PUSH3 0x1F32 JUMPI PUSH1 0x0 DUP5 DUP5 ADD MSTORE JUMPDEST POP POP POP POP JUMP JUMPDEST PUSH1 0x0 PUSH1 0x1F NOT PUSH1 0x1F DUP4 ADD AND SWAP1 POP SWAP2 SWAP1 POP JUMP JUMPDEST PUSH1 0x0 PUSH3 0x1F56 DUP3 PUSH3 0x1EE6 JUMP JUMPDEST PUSH3 0x1F62 DUP2 DUP6 PUSH3 0x1EF1 JUMP JUMPDEST SWAP4 POP PUSH3 0x1F74 DUP2 DUP6 PUSH1 0x20 DUP7 ADD PUSH3 0x1F02 JUMP JUMPDEST PUSH3 0x1F7F DUP2 PUSH3 0x1F38 JUMP JUMPDEST DUP5 ADD SWAP2 POP POP SWAP3 SWAP2 POP POP JUMP JUMPDEST PUSH1 0x0 DUP2 MLOAD SWAP1 POP SWAP2 SWAP1 POP JUMP JUMPDEST PUSH1 0x0 DUP3 DUP3 MSTORE PUSH1 0x20 DUP3 ADD SWAP1 POP SWAP3 SWAP2 POP POP JUMP JUMPDEST PUSH1 0x0 DUP2 SWAP1 POP PUSH1 0x20 DUP3 ADD SWAP1 POP SWAP2 SWAP1 POP JUMP JUMPDEST PUSH3 0x1FC1 DUP2 PUSH3 0x1E24 JUMP JUMPDEST DUP3 MSTORE POP POP JUMP JUMPDEST PUSH1 0x0 PUSH3 0x1FD5 DUP4 DUP4 PUSH3 0x1FB6 JUMP JUMPDEST PUSH1 0x20 DUP4 ADD SWAP1 POP SWAP3 SWAP2 POP POP JUMP JUMPDEST PUSH1 0x0 PUSH1 0x20 DUP3 ADD SWAP1 POP SWAP2 SWAP1 POP JUMP JUMPDEST PUSH1 0x0 PUSH3 0x1FFB DUP3 PUSH3 0x1F8A JUMP JUMPDEST PUSH3 0x2007 DUP2 DUP6 PUSH3 0x1F95 JUMP JUMPDEST SWAP4 POP PUSH3 0x2014 DUP4 PUSH3 0x1FA6 JUMP JUMPDEST DUP1 PUSH1 0x0 JUMPDEST DUP4 DUP2 LT ISZERO PUSH3 0x204B JUMPI DUP2 MLOAD PUSH3 0x202F DUP9 DUP3 PUSH3 0x1FC7 JUMP JUMPDEST SWAP8 POP PUSH3 0x203C DUP4 PUSH3 0x1FE1 JUMP JUMPDEST SWAP3 POP POP PUSH1 0x1 DUP2 ADD SWAP1 POP PUSH3 0x2018 JUMP JUMPDEST POP DUP6 SWAP4 POP POP POP POP SWAP3 SWAP2 POP POP JUMP JUMPDEST PUSH1 0x0 DUP2 SWAP1 POP SWAP2 SWAP1 POP JUMP JUMPDEST PUSH3 0x206D DUP2 PUSH3 0x2058 JUMP JUMPDEST DUP3 MSTORE POP POP JUMP JUMPDEST PUSH1 0x0 PUSH2 0x160 DUP3 ADD SWAP1 POP PUSH3 0x208B PUSH1 0x0 DUP4 ADD DUP15 PUSH3 0x1ED5 JUMP JUMPDEST DUP2 DUP2 SUB PUSH1 0x20 DUP4 ADD MSTORE PUSH3 0x209F DUP2 DUP14 PUSH3 0x1F49 JUMP JUMPDEST SWAP1 POP DUP2 DUP2 SUB PUSH1 0x40 DUP4 ADD MSTORE PUSH3 0x20B5 DUP2 DUP13 PUSH3 0x1F49 JUMP JUMPDEST SWAP1 POP DUP2 DUP2 SUB PUSH1 0x60 DUP4 ADD MSTORE PUSH3 0x20CB DUP2 DUP12 PUSH3 0x1F49 JUMP JUMPDEST SWAP1 POP DUP2 DUP2 SUB PUSH1 0x80 DUP4 ADD MSTORE PUSH3 0x20E1 DUP2 DUP11 PUSH3 0x1FEE JUMP JUMPDEST SWAP1 POP DUP2 DUP2 SUB PUSH1 0xA0 DUP4 ADD MSTORE PUSH3 0x20F7 DUP2 DUP10 PUSH3 0x1FEE JUMP JUMPDEST SWAP1 POP PUSH3 0x2108 PUSH1 0xC0 DUP4 ADD DUP9 PUSH3 0x2062 JUMP JUMPDEST PUSH3 0x2117 PUSH1 0xE0 DUP4 ADD DUP8 PUSH3 0x2062 JUMP JUMPDEST PUSH3 0x2127 PUSH2 0x100 DUP4 ADD DUP7 PUSH3 0x1EA7 JUMP JUMPDEST PUSH3 0x2137 PUSH2 0x120 DUP4 ADD DUP6 PUSH3 0x2062 JUMP JUMPDEST DUP2 DUP2 SUB PUSH2 0x140 DUP4 ADD MSTORE PUSH3 0x214C DUP2 DUP5 PUSH3 0x1F49 JUMP JUMPDEST SWAP1 POP SWAP13 SWAP12 POP POP POP POP POP POP POP POP POP POP POP POP JUMP JUMPDEST PUSH3 0x2169 DUP2 PUSH3 0x2058 JUMP JUMPDEST DUP2 EQ PUSH3 0x2175 JUMPI PUSH1 0x0 DUP1 REVERT JUMPDEST POP JUMP JUMPDEST PUSH1 0x0 DUP2 CALLDATALOAD SWAP1 POP PUSH3 0x2189 DUP2 PUSH3 0x215E JUMP JUMPDEST SWAP3 SWAP2 POP POP JUMP JUMPDEST PUSH1 0x0 PUSH1 0x20 DUP3 DUP5 SUB SLT ISZERO PUSH3 0x21A8 JUMPI PUSH3 0x21A7 PUSH3 0x1DFA JUMP JUMPDEST JUMPDEST PUSH1 0x0 PUSH3 0x21B8 DUP5 DUP3 DUP6 ADD PUSH3 0x2178 JUMP JUMPDEST SWAP2 POP POP SWAP3 SWAP2 POP POP JUMP JUMPDEST PUSH1 0x0 PUSH1 0xA0 DUP3 ADD SWAP1 POP DUP2 DUP2 SUB PUSH1 0x0 DUP4 ADD MSTORE PUSH3 0x21DD DUP2 DUP9 PUSH3 0x1F49 JUMP JUMPDEST SWAP1 POP PUSH3 0x21EE PUSH1 0x20 DUP4 ADD DUP8 PUSH3 0x2062 JUMP JUMPDEST PUSH3 0x21FD PUSH1 0x40 DUP4 ADD DUP7 PUSH3 0x1ED5 JUMP JUMPDEST PUSH3 0x220C PUSH1 0x60 DUP4 ADD DUP6 PUSH3 0x2062 JUMP JUMPDEST PUSH3 0x221B PUSH1 0x80 DUP4 ADD DUP5 PUSH3 0x1EA7 JUMP JUMPDEST SWAP7 SWAP6 POP POP POP POP POP POP JUMP JUMPDEST PUSH1 0x0 DUP1 REVERT JUMPDEST PUSH1 0x0 DUP1 REVERT JUMPDEST PUSH32 0x4E487B7100000000000000000000000000000000000000000000000000000000 PUSH1 0x0 MSTORE PUSH1 0x41 PUSH1 0x4 MSTORE PUSH1 0x24 PUSH1 0x0 REVERT JUMPDEST PUSH3 0x2269 DUP3 PUSH3 0x1F38 JUMP JUMPDEST DUP2 ADD DUP2 DUP2 LT PUSH8 0xFFFFFFFFFFFFFFFF DUP3 GT OR ISZERO PUSH3 0x228B JUMPI PUSH3 0x228A PUSH3 0x222F JUMP JUMPDEST JUMPDEST DUP1 PUSH1 0x40 MSTORE POP POP POP JUMP JUMPDEST PUSH1 0x0 PUSH3 0x22A0 PUSH3 0x1DF0 JUMP JUMPDEST SWAP1 POP PUSH3 0x22AE DUP3 DUP3 PUSH3 0x225E JUMP JUMPDEST SWAP2 SWAP1 POP JUMP JUMPDEST PUSH1 0x0 PUSH8 0xFFFFFFFFFFFFFFFF DUP3 GT ISZERO PUSH3 0x22D1 JUMPI PUSH3 0x22D0 PUSH3 0x222F JUMP JUMPDEST JUMPDEST PUSH3 0x22DC DUP3 PUSH3 0x1F38 JUMP JUMPDEST SWAP1 POP PUSH1 0x20 DUP2 ADD SWAP1 POP SWAP2 SWAP1 POP JUMP JUMPDEST DUP3 DUP2 DUP4 CALLDATACOPY PUSH1 0x0 DUP4 DUP4 ADD MSTORE POP POP POP JUMP JUMPDEST PUSH1 0x0 PUSH3 0x230F PUSH3 0x2309 DUP5 PUSH3 0x22B3 JUMP JUMPDEST PUSH3 0x2294 JUMP JUMPDEST SWAP1 POP DUP3 DUP2 MSTORE PUSH1 0x20 DUP2 ADD DUP5 DUP5 DUP5 ADD GT ISZERO PUSH3 0x232E JUMPI PUSH3 0x232D PUSH3 0x222A JUMP JUMPDEST JUMPDEST PUSH3 0x233B DUP5 DUP3 DUP6 PUSH3 0x22E9 JUMP JUMPDEST POP SWAP4 SWAP3 POP POP POP JUMP JUMPDEST PUSH1 0x0 DUP3 PUSH1 0x1F DUP4 ADD SLT PUSH3 0x235B JUMPI PUSH3 0x235A PUSH3 0x2225 JUMP JUMPDEST JUMPDEST DUP2 CALLDATALOAD PUSH3 0x236D DUP5 DUP3 PUSH1 0x20 DUP7 ADD PUSH3 0x22F8 JUMP JUMPDEST SWAP2 POP POP SWAP3 SWAP2 POP POP JUMP JUMPDEST PUSH1 0x0 DUP1 PUSH1 0x0 DUP1 PUSH1 0x80 DUP6 DUP8 SUB SLT ISZERO PUSH3 0x2393 JUMPI PUSH3 0x2392 PUSH3 0x1DFA JUMP JUMPDEST JUMPDEST PUSH1 0x0 DUP6 ADD CALLDATALOAD PUSH8 0xFFFFFFFFFFFFFFFF DUP2 GT ISZERO PUSH3 0x23B4 JUMPI PUSH3 0x23B3 PUSH3 0x1DFF JUMP JUMPDEST JUMPDEST PUSH3 0x23C2 DUP8 DUP3 DUP9 ADD PUSH3 0x2343 JUMP JUMPDEST SWAP5 POP POP PUSH1 0x20 DUP6 ADD CALLDATALOAD PUSH8 0xFFFFFFFFFFFFFFFF DUP2 GT ISZERO PUSH3 0x23E6 JUMPI PUSH3 0x23E5 PUSH3 0x1DFF JUMP JUMPDEST JUMPDEST PUSH3 0x23F4 DUP8 DUP3 DUP9 ADD PUSH3 0x2343 JUMP JUMPDEST SWAP4 POP POP PUSH1 0x40 PUSH3 0x2407 DUP8 DUP3 DUP9 ADD PUSH3 0x1E52 JUMP JUMPDEST SWAP3 POP POP PUSH1 0x60 PUSH3 0x241A DUP8 DUP3 DUP9 ADD PUSH3 0x1E52 JUMP JUMPDEST SWAP2 POP POP SWAP3 SWAP6 SWAP2 SWAP5 POP SWAP3 POP JUMP JUMPDEST PUSH1 0x0 PUSH1 0x20 DUP3 ADD SWAP1 POP DUP2 DUP2 SUB PUSH1 0x0 DUP4 ADD MSTORE PUSH3 0x2442 DUP2 DUP5 PUSH3 0x1FEE JUMP JUMPDEST SWAP1 POP SWAP3 SWAP2 POP POP JUMP JUMPDEST PUSH1 0x0 PUSH1 0x20 DUP3 ADD SWAP1 POP PUSH3 0x2461 PUSH1 0x0 DUP4 ADD DUP5 PUSH3 0x1ED5 JUMP JUMPDEST SWAP3 SWAP2 POP POP JUMP JUMPDEST PUSH1 0x0 PUSH1 0x20 DUP3 DUP5 SUB SLT ISZERO PUSH3 0x2480 JUMPI PUSH3 0x247F PUSH3 0x1DFA JUMP JUMPDEST JUMPDEST PUSH1 0x0 DUP3 ADD CALLDATALOAD PUSH8 0xFFFFFFFFFFFFFFFF DUP2 GT ISZERO PUSH3 0x24A1 JUMPI PUSH3 0x24A0 PUSH3 0x1DFF JUMP JUMPDEST JUMPDEST PUSH3 0x24AF DUP5 DUP3 DUP6 ADD PUSH3 0x2343 JUMP JUMPDEST SWAP2 POP POP SWAP3 SWAP2 POP POP JUMP JUMPDEST PUSH32 0x5265656E7472616E742063616C6C000000000000000000000000000000000000 PUSH1 0x0 DUP3 ADD MSTORE POP JUMP JUMPDEST PUSH1 0x0 PUSH3 0x24F0 PUSH1 0xE DUP4 PUSH3 0x1EF1 JUMP JUMPDEST SWAP2 POP PUSH3 0x24FD DUP3 PUSH3 0x24B8 JUMP JUMPDEST PUSH1 0x20 DUP3 ADD SWAP1 POP SWAP2 SWAP1 POP JUMP JUMPDEST PUSH1 0x0 PUSH1 0x20 DUP3 ADD SWAP1 POP DUP2 DUP2 SUB PUSH1 0x0 DUP4 ADD MSTORE PUSH3 0x2523 DUP2 PUSH3 0x24E1 JUMP JUMPDEST SWAP1 POP SWAP2 SWAP1 POP JUMP JUMPDEST PUSH32 0x546869732073746F727920686173206265656E207265706F7274656400000000 PUSH1 0x0 DUP3 ADD MSTORE POP JUMP JUMPDEST PUSH1 0x0 PUSH3 0x2562 PUSH1 0x1C DUP4 PUSH3 0x1EF1 JUMP JUMPDEST SWAP2 POP PUSH3 0x256F DUP3 PUSH3 0x252A JUMP JUMPDEST PUSH1 0x20 DUP3 ADD SWAP1 POP SWAP2 SWAP1 POP JUMP JUMPDEST PUSH1 0x0 PUSH1 0x20 DUP3 ADD SWAP1 POP DUP2 DUP2 SUB PUSH1 0x0 DUP4 ADD MSTORE PUSH3 0x2595 DUP2 PUSH3 0x2553 JUMP JUMPDEST SWAP1 POP SWAP2 SWAP1 POP JUMP JUMPDEST PUSH32 0x596F752068617665207265706F7274656420746869732073746F727920626566 PUSH1 0x0 DUP3 ADD MSTORE PUSH32 0x6F72650000000000000000000000000000000000000000000000000000000000 PUSH1 0x20 DUP3 ADD MSTORE POP JUMP JUMPDEST PUSH1 0x0 PUSH3 0x25FA PUSH1 0x23 DUP4 PUSH3 0x1EF1 JUMP JUMPDEST SWAP2 POP PUSH3 0x2607 DUP3 PUSH3 0x259C JUMP JUMPDEST PUSH1 0x40 DUP3 ADD SWAP1 POP SWAP2 SWAP1 POP JUMP JUMPDEST PUSH1 0x0 PUSH1 0x20 DUP3 ADD SWAP1 POP DUP2 DUP2 SUB PUSH1 0x0 DUP4 ADD MSTORE PUSH3 0x262D DUP2 PUSH3 0x25EB JUMP JUMPDEST SWAP1 POP SWAP2 SWAP1 POP JUMP JUMPDEST PUSH32 0x4F6E6C7920616E20617574686F72697A656420617574686F722063616E206469 PUSH1 0x0 DUP3 ADD MSTORE PUSH32 0x7370656E73652072657761726473000000000000000000000000000000000000 PUSH1 0x20 DUP3 ADD MSTORE POP JUMP JUMPDEST PUSH1 0x0 PUSH3 0x2692 PUSH1 0x2E DUP4 PUSH3 0x1EF1 JUMP JUMPDEST SWAP2 POP PUSH3 0x269F DUP3 PUSH3 0x2634 JUMP JUMPDEST PUSH1 0x40 DUP3 ADD SWAP1 POP SWAP2 SWAP1 POP JUMP JUMPDEST PUSH1 0x0 PUSH1 0x20 DUP3 ADD SWAP1 POP DUP2 DUP2 SUB PUSH1 0x0 DUP4 ADD MSTORE PUSH3 0x26C5 DUP2 PUSH3 0x2683 JUMP JUMPDEST SWAP1 POP SWAP2 SWAP1 POP JUMP JUMPDEST PUSH32 0x4E6F2072657761726420746F2064697370656E73650000000000000000000000 PUSH1 0x0 DUP3 ADD MSTORE POP JUMP JUMPDEST PUSH1 0x0 PUSH3 0x2704 PUSH1 0x15 DUP4 PUSH3 0x1EF1 JUMP JUMPDEST SWAP2 POP PUSH3 0x2711 DUP3 PUSH3 0x26CC JUMP JUMPDEST PUSH1 0x20 DUP3 ADD SWAP1 POP SWAP2 SWAP1 POP JUMP JUMPDEST PUSH1 0x0 PUSH1 0x20 DUP3 ADD SWAP1 POP DUP2 DUP2 SUB PUSH1 0x0 DUP4 ADD MSTORE PUSH3 0x2737 DUP2 PUSH3 0x26F5 JUMP JUMPDEST SWAP1 POP SWAP2 SWAP1 POP JUMP JUMPDEST PUSH32 0x4E487B7100000000000000000000000000000000000000000000000000000000 PUSH1 0x0 MSTORE PUSH1 0x32 PUSH1 0x4 MSTORE PUSH1 0x24 PUSH1 0x0 REVERT JUMPDEST PUSH32 0x4E487B7100000000000000000000000000000000000000000000000000000000 PUSH1 0x0 MSTORE PUSH1 0x11 PUSH1 0x4 MSTORE PUSH1 0x24 PUSH1 0x0 REVERT JUMPDEST PUSH1 0x0 PUSH3 0x27A9 DUP3 PUSH3 0x2058 JUMP JUMPDEST SWAP2 POP PUSH32 0xFFFFFFFFFFFFFFFFFFFFFFFFFFFFFFFFFFFFFFFFFFFFFFFFFFFFFFFFFFFFFFFF DUP3 EQ ISZERO PUSH3 0x27DF JUMPI PUSH3 0x27DE PUSH3 0x276D JUMP JUMPDEST JUMPDEST PUSH1 0x1 DUP3 ADD SWAP1 POP SWAP2 SWAP1 POP JUMP JUMPDEST PUSH32 0x4E487B7100000000000000000000000000000000000000000000000000000000 PUSH1 0x0 MSTORE PUSH1 0x22 PUSH1 0x4 MSTORE PUSH1 0x24 PUSH1 0x0 REVERT JUMPDEST PUSH1 0x0 PUSH1 0x2 DUP3 DIV SWAP1 POP PUSH1 0x1 DUP3 AND DUP1 PUSH3 0x2832 JUMPI PUSH1 0x7F DUP3 AND SWAP2 POP JUMPDEST PUSH1 0x20 DUP3 LT DUP2 EQ ISZERO PUSH3 0x2849 JUMPI PUSH3 0x2848 PUSH3 0x27EA JUMP JUMPDEST JUMPDEST POP SWAP2 SWAP1 POP JUMP JUMPDEST PUSH32 0x4F6E6C7920616E20616363657074656420617574686F722063616E2061707072 PUSH1 0x0 DUP3 ADD MSTORE PUSH32 0x6F76652061207265717565737400000000000000000000000000000000000000 PUSH1 0x20 DUP3 ADD MSTORE POP JUMP JUMPDEST PUSH1 0x0 PUSH3 0x28AD PUSH1 0x2D DUP4 PUSH3 0x1EF1 JUMP JUMPDEST SWAP2 POP PUSH3 0x28BA DUP3 PUSH3 0x284F JUMP JUMPDEST PUSH1 0x40 DUP3 ADD SWAP1 POP SWAP2 SWAP1 POP JUMP JUMPDEST PUSH1 0x0 PUSH1 0x20 DUP3 ADD SWAP1 POP DUP2 DUP2 SUB PUSH1 0x0 DUP4 ADD MSTORE PUSH3 0x28E0 DUP2 PUSH3 0x289E JUMP JUMPDEST SWAP1 POP SWAP2 SWAP1 POP JUMP JUMPDEST PUSH32 0x496E646578206F7574206F6620626F756E647300000000000000000000000000 PUSH1 0x0 DUP3 ADD MSTORE POP JUMP JUMPDEST PUSH1 0x0 PUSH3 0x291F PUSH1 0x13 DUP4 PUSH3 0x1EF1 JUMP JUMPDEST SWAP2 POP PUSH3 0x292C DUP3 PUSH3 0x28E7 JUMP JUMPDEST PUSH1 0x20 DUP3 ADD SWAP1 POP SWAP2 SWAP1 POP JUMP JUMPDEST PUSH1 0x0 PUSH1 0x20 DUP3 ADD SWAP1 POP DUP2 DUP2 SUB PUSH1 0x0 DUP4 ADD MSTORE PUSH3 0x2952 DUP2 PUSH3 0x2910 JUMP JUMPDEST SWAP1 POP SWAP2 SWAP1 POP JUMP JUMPDEST PUSH32 0x5468697320617574686F7220616C726561647920617070726F76656420626566 PUSH1 0x0 DUP3 ADD MSTORE PUSH32 0x6F72650000000000000000000000000000000000000000000000000000000000 PUSH1 0x20 DUP3 ADD MSTORE POP JUMP JUMPDEST PUSH1 0x0 PUSH3 0x29B7 PUSH1 0x23 DUP4 PUSH3 0x1EF1 JUMP JUMPDEST SWAP2 POP PUSH3 0x29C4 DUP3 PUSH3 0x2959 JUMP JUMPDEST PUSH1 0x40 DUP3 ADD SWAP1 POP SWAP2 SWAP1 POP JUMP JUMPDEST PUSH1 0x0 PUSH1 0x20 DUP3 ADD SWAP1 POP DUP2 DUP2 SUB PUSH1 0x0 DUP4 ADD MSTORE PUSH3 0x29EA DUP2 PUSH3 0x29A8 JUMP JUMPDEST SWAP1 POP SWAP2 SWAP1 POP JUMP JUMPDEST PUSH32 0x4E487B7100000000000000000000000000000000000000000000000000000000 PUSH1 0x0 MSTORE PUSH1 0x12 PUSH1 0x4 MSTORE PUSH1 0x24 PUSH1 0x0 REVERT JUMPDEST PUSH1 0x0 PUSH3 0x2A2D DUP3 PUSH3 0x2058 JUMP JUMPDEST SWAP2 POP PUSH3 0x2A3A DUP4 PUSH3 0x2058 JUMP JUMPDEST SWAP3 POP DUP3 PUSH3 0x2A4D JUMPI PUSH3 0x2A4C PUSH3 0x29F1 JUMP JUMPDEST JUMPDEST DUP3 DUP3 DIV SWAP1 POP SWAP3 SWAP2 POP POP JUMP JUMPDEST PUSH32 0x4F6E6C7920616E20616363657074656420617574686F722063616E2063726561 PUSH1 0x0 DUP3 ADD MSTORE PUSH32 0x7465206120636861707465720000000000000000000000000000000000000000 PUSH1 0x20 DUP3 ADD MSTORE POP JUMP JUMPDEST PUSH1 0x0 PUSH3 0x2AB6 PUSH1 0x2C DUP4 PUSH3 0x1EF1 JUMP JUMPDEST SWAP2 POP PUSH3 0x2AC3 DUP3 PUSH3 0x2A58 JUMP JUMPDEST PUSH1 0x40 DUP3 ADD SWAP1 POP SWAP2 SWAP1 POP JUMP JUMPDEST PUSH1 0x0 PUSH1 0x20 DUP3 ADD SWAP1 POP DUP2 DUP2 SUB PUSH1 0x0 DUP4 ADD MSTORE PUSH3 0x2AE9 DUP2 PUSH3 0x2AA7 JUMP JUMPDEST SWAP1 POP SWAP2 SWAP1 POP JUMP JUMPDEST PUSH32 0x506172656E742063686170746572206D757374206265206120636F6E74726163 PUSH1 0x0 DUP3 ADD MSTORE PUSH32 0x7400000000000000000000000000000000000000000000000000000000000000 PUSH1 0x20 DUP3 ADD MSTORE POP JUMP JUMPDEST PUSH1 0x0 PUSH3 0x2B4E PUSH1 0x21 DUP4 PUSH3 0x1EF1 JUMP JUMPDEST SWAP2 POP PUSH3 0x2B5B DUP3 PUSH3 0x2AF0 JUMP JUMPDEST PUSH1 0x40 DUP3 ADD SWAP1 POP SWAP2 SWAP1 POP JUMP JUMPDEST PUSH1 0x0 PUSH1 0x20 DUP3 ADD SWAP1 POP DUP2 DUP2 SUB PUSH1 0x0 DUP4 ADD MSTORE PUSH3 0x2B81 DUP2 PUSH3 0x2B3F JUMP JUMPDEST SWAP1 POP SWAP2 SWAP1 POP JUMP JUMPDEST PUSH32 0x4368696C642063686170746572206D757374206265206120636F6E7472616374 PUSH1 0x0 DUP3 ADD MSTORE POP JUMP JUMPDEST PUSH1 0x0 PUSH3 0x2BC0 PUSH1 0x20 DUP4 PUSH3 0x1EF1 JUMP JUMPDEST SWAP2 POP PUSH3 0x2BCD DUP3 PUSH3 0x2B88 JUMP JUMPDEST PUSH1 0x20 DUP3 ADD SWAP1 POP SWAP2 SWAP1 POP JUMP JUMPDEST PUSH1 0x0 PUSH1 0x20 DUP3 ADD SWAP1 POP DUP2 DUP2 SUB PUSH1 0x0 DUP4 ADD MSTORE PUSH3 0x2BF3 DUP2 PUSH3 0x2BB1 JUMP JUMPDEST SWAP1 POP SWAP2 SWAP1 POP JUMP JUMPDEST PUSH32 0x506172656E742063686170746572206D7573742062656C6F6E6720746F207468 PUSH1 0x0 DUP3 ADD MSTORE PUSH32 0x652073616D652073746F72790000000000000000000000000000000000000000 PUSH1 0x20 DUP3 ADD MSTORE POP JUMP JUMPDEST PUSH1 0x0 PUSH3 0x2C58 PUSH1 0x2C DUP4 PUSH3 0x1EF1 JUMP JUMPDEST SWAP2 POP PUSH3 0x2C65 DUP3 PUSH3 0x2BFA JUMP JUMPDEST PUSH1 0x40 DUP3 ADD SWAP1 POP SWAP2 SWAP1 POP JUMP JUMPDEST PUSH1 0x0 PUSH1 0x20 DUP3 ADD SWAP1 POP DUP2 DUP2 SUB PUSH1 0x0 DUP4 ADD MSTORE PUSH3 0x2C8B DUP2 PUSH3 0x2C49 JUMP JUMPDEST SWAP1 POP SWAP2 SWAP1 POP JUMP JUMPDEST PUSH32 0x4368696C642063686170746572206D7573742062656C6F6E6720746F20746865 PUSH1 0x0 DUP3 ADD MSTORE PUSH32 0x2073616D652073746F7279000000000000000000000000000000000000000000 PUSH1 0x20 DUP3 ADD MSTORE POP JUMP JUMPDEST PUSH1 0x0 PUSH3 0x2CF0 PUSH1 0x2B DUP4 PUSH3 0x1EF1 JUMP JUMPDEST SWAP2 POP PUSH3 0x2CFD DUP3 PUSH3 0x2C92 JUMP JUMPDEST PUSH1 0x40 DUP3 ADD SWAP1 POP SWAP2 SWAP1 POP JUMP JUMPDEST PUSH1 0x0 PUSH1 0x20 DUP3 ADD SWAP1 POP DUP2 DUP2 SUB PUSH1 0x0 DUP4 ADD MSTORE PUSH3 0x2D23 DUP2 PUSH3 0x2CE1 JUMP JUMPDEST SWAP1 POP SWAP2 SWAP1 POP JUMP JUMPDEST PUSH1 0x0 PUSH1 0xC0 DUP3 ADD SWAP1 POP PUSH3 0x2D41 PUSH1 0x0 DUP4 ADD DUP10 PUSH3 0x1ED5 JUMP JUMPDEST PUSH3 0x2D50 PUSH1 0x20 DUP4 ADD DUP9 PUSH3 0x1ED5 JUMP JUMPDEST DUP2 DUP2 SUB PUSH1 0x40 DUP4 ADD MSTORE PUSH3 0x2D64 DUP2 DUP8 PUSH3 0x1F49 JUMP JUMPDEST SWAP1 POP DUP2 DUP2 SUB PUSH1 0x60 DUP4 ADD MSTORE PUSH3 0x2D7A DUP2 DUP7 PUSH3 0x1F49 JUMP JUMPDEST SWAP1 POP PUSH3 0x2D8B PUSH1 0x80 DUP4 ADD DUP6 PUSH3 0x1ED5 JUMP JUMPDEST PUSH3 0x2D9A PUSH1 0xA0 DUP4 ADD DUP5 PUSH3 0x1ED5 JUMP JUMPDEST SWAP8 SWAP7 POP POP POP POP POP POP POP JUMP JUMPDEST PUSH32 0x4D696E696D756D20636F6E747269627574696F6E206973203130302057656900 PUSH1 0x0 DUP3 ADD MSTORE POP JUMP JUMPDEST PUSH1 0x0 PUSH3 0x2DDD PUSH1 0x1F DUP4 PUSH3 0x1EF1 JUMP JUMPDEST SWAP2 POP PUSH3 0x2DEA DUP3 PUSH3 0x2DA5 JUMP JUMPDEST PUSH1 0x20 DUP3 ADD SWAP1 POP SWAP2 SWAP1 POP JUMP JUMPDEST PUSH1 0x0 PUSH1 0x20 DUP3 ADD SWAP1 POP DUP2 DUP2 SUB PUSH1 0x0 DUP4 ADD MSTORE PUSH3 0x2E10 DUP2 PUSH3 0x2DCE JUMP JUMPDEST SWAP1 POP SWAP2 SWAP1 POP JUMP JUMPDEST PUSH32 0x417574686F7220616C72656164792065786973747320696E20746865206C6973 PUSH1 0x0 DUP3 ADD MSTORE PUSH32 0x74206F6620617574686F72730000000000000000000000000000000000000000 PUSH1 0x20 DUP3 ADD MSTORE POP JUMP JUMPDEST PUSH1 0x0 PUSH3 0x2E75 PUSH1 0x2C DUP4 PUSH3 0x1EF1 JUMP JUMPDEST SWAP2 POP PUSH3 0x2E82 DUP3 PUSH3 0x2E17 JUMP JUMPDEST PUSH1 0x40 DUP3 ADD SWAP1 POP SWAP2 SWAP1 POP JUMP JUMPDEST PUSH1 0x0 PUSH1 0x20 DUP3 ADD SWAP1 POP DUP2 DUP2 SUB PUSH1 0x0 DUP4 ADD MSTORE PUSH3 0x2EA8 DUP2 PUSH3 0x2E66 JUMP JUMPDEST SWAP1 POP SWAP2 SWAP1 POP JUMP JUMPDEST PUSH1 0x0 PUSH3 0x2EBC DUP3 PUSH3 0x2058 JUMP JUMPDEST SWAP2 POP PUSH3 0x2EC9 DUP4 PUSH3 0x2058 JUMP JUMPDEST SWAP3 POP DUP3 PUSH32 0xFFFFFFFFFFFFFFFFFFFFFFFFFFFFFFFFFFFFFFFFFFFFFFFFFFFFFFFFFFFFFFFF SUB DUP3 GT ISZERO PUSH3 0x2F01 JUMPI PUSH3 0x2F00 PUSH3 0x276D JUMP JUMPDEST JUMPDEST DUP3 DUP3 ADD SWAP1 POP SWAP3 SWAP2 POP POP JUMP JUMPDEST PUSH32 0x536166654D6174683A206164646974696F6E206F766572666C6F770000000000 PUSH1 0x0 DUP3 ADD MSTORE POP JUMP JUMPDEST PUSH1 0x0 PUSH3 0x2F44 PUSH1 0x1B DUP4 PUSH3 0x1EF1 JUMP JUMPDEST SWAP2 POP PUSH3 0x2F51 DUP3 PUSH3 0x2F0C JUMP JUMPDEST PUSH1 0x20 DUP3 ADD SWAP1 POP SWAP2 SWAP1 POP JUMP JUMPDEST PUSH1 0x0 PUSH1 0x20 DUP3 ADD SWAP1 POP DUP2 DUP2 SUB PUSH1 0x0 DUP4 ADD MSTORE PUSH3 0x2F77 DUP2 PUSH3 0x2F35 JUMP JUMPDEST SWAP1 POP SWAP2 SWAP1 POP JUMP JUMPDEST PUSH32 0x536166654D6174683A206469766973696F6E206279207A65726F000000000000 PUSH1 0x0 DUP3 ADD MSTORE POP JUMP JUMPDEST PUSH1 0x0 PUSH3 0x2FB6 PUSH1 0x1A DUP4 PUSH3 0x1EF1 JUMP JUMPDEST SWAP2 POP PUSH3 0x2FC3 DUP3 PUSH3 0x2F7E JUMP JUMPDEST PUSH1 0x20 DUP3 ADD SWAP1 POP SWAP2 SWAP1 POP JUMP JUMPDEST PUSH1 0x0 PUSH1 0x20 DUP3 ADD SWAP1 POP DUP2 DUP2 SUB PUSH1 0x0 DUP4 ADD MSTORE PUSH3 0x2FE9 DUP2 PUSH3 0x2FA7 JUMP JUMPDEST SWAP1 POP SWAP2 SWAP1 POP JUMP INVALID PUSH1 0x80 PUSH1 0x40 MSTORE CALLVALUE DUP1 ISZERO PUSH3 0x11 JUMPI PUSH1 0x0 DUP1 REVERT JUMPDEST POP PUSH1 0x40 MLOAD PUSH3 0x15F7 CODESIZE SUB DUP1 PUSH3 0x15F7 DUP4 CODECOPY DUP2 DUP2 ADD PUSH1 0x40 MSTORE DUP2 ADD SWAP1 PUSH3 0x37 SWAP2 SWAP1 PUSH3 0x4DA JUMP JUMPDEST DUP6 PUSH1 0x1 PUSH1 0x0 PUSH2 0x100 EXP DUP2 SLOAD DUP2 PUSH20 0xFFFFFFFFFFFFFFFFFFFFFFFFFFFFFFFFFFFFFFFF MUL NOT AND SWAP1 DUP4 PUSH20 0xFFFFFFFFFFFFFFFFFFFFFFFFFFFFFFFFFFFFFFFF AND MUL OR SWAP1 SSTORE POP DUP5 PUSH1 0x0 DUP1 PUSH2 0x100 EXP DUP2 SLOAD DUP2 PUSH20 0xFFFFFFFFFFFFFFFFFFFFFFFFFFFFFFFFFFFFFFFF MUL NOT AND SWAP1 DUP4 PUSH20 0xFFFFFFFFFFFFFFFFFFFFFFFFFFFFFFFFFFFFFFFF AND MUL OR SWAP1 SSTORE POP DUP3 PUSH1 0x3 SWAP1 DUP1 MLOAD SWAP1 PUSH1 0x20 ADD SWAP1 PUSH3 0xD0 SWAP3 SWAP2 SWAP1 PUSH3 0x228 JUMP JUMPDEST POP DUP4 PUSH1 0x2 SWAP1 DUP1 MLOAD SWAP1 PUSH1 0x20 ADD SWAP1 PUSH3 0xE9 SWAP3 SWAP2 SWAP1 PUSH3 0x228 JUMP JUMPDEST POP PUSH1 0x0 PUSH20 0xFFFFFFFFFFFFFFFFFFFFFFFFFFFFFFFFFFFFFFFF AND DUP3 PUSH20 0xFFFFFFFFFFFFFFFFFFFFFFFFFFFFFFFFFFFFFFFF AND EQ PUSH3 0x183 JUMPI PUSH1 0x4 DUP3 SWAP1 DUP1 PUSH1 0x1 DUP2 SLOAD ADD DUP1 DUP3 SSTORE DUP1 SWAP2 POP POP PUSH1 0x1 SWAP1 SUB SWAP1 PUSH1 0x0 MSTORE PUSH1 0x20 PUSH1 0x0 KECCAK256 ADD PUSH1 0x0 SWAP1 SWAP2 SWAP1 SWAP2 SWAP1 SWAP2 PUSH2 0x100 EXP DUP2 SLOAD DUP2 PUSH20 0xFFFFFFFFFFFFFFFFFFFFFFFFFFFFFFFFFFFFFFFF MUL NOT AND SWAP1 DUP4 PUSH20 0xFFFFFFFFFFFFFFFFFFFFFFFFFFFFFFFFFFFFFFFF AND MUL OR SWAP1 SSTORE POP JUMPDEST PUSH1 0x0 PUSH20 0xFFFFFFFFFFFFFFFFFFFFFFFFFFFFFFFFFFFFFFFF AND DUP2 PUSH20 0xFFFFFFFFFFFFFFFFFFFFFFFFFFFFFFFFFFFFFFFF AND EQ PUSH3 0x21C JUMPI PUSH1 0x5 DUP2 SWAP1 DUP1 PUSH1 0x1 DUP2 SLOAD ADD DUP1 DUP3 SSTORE DUP1 SWAP2 POP POP PUSH1 0x1 SWAP1 SUB SWAP1 PUSH1 0x0 MSTORE PUSH1 0x20 PUSH1 0x0 KECCAK256 ADD PUSH1 0x0 SWAP1 SWAP2 SWAP1 SWAP2 SWAP1 SWAP2 PUSH2 0x100 EXP DUP2 SLOAD DUP2 PUSH20 0xFFFFFFFFFFFFFFFFFFFFFFFFFFFFFFFFFFFFFFFF MUL NOT AND SWAP1 DUP4 PUSH20 0xFFFFFFFFFFFFFFFFFFFFFFFFFFFFFFFFFFFFFFFF AND MUL OR SWAP1 SSTORE POP JUMPDEST POP POP POP POP POP POP PUSH3 0x619 JUMP JUMPDEST DUP3 DUP1 SLOAD PUSH3 0x236 SWAP1 PUSH3 0x5E3 JUMP JUMPDEST SWAP1 PUSH1 0x0 MSTORE PUSH1 0x20 PUSH1 0x0 KECCAK256 SWAP1 PUSH1 0x1F ADD PUSH1 0x20 SWAP1 DIV DUP2 ADD SWAP3 DUP3 PUSH3 0x25A JUMPI PUSH1 0x0 DUP6 SSTORE PUSH3 0x2A6 JUMP JUMPDEST DUP3 PUSH1 0x1F LT PUSH3 0x275 JUMPI DUP1 MLOAD PUSH1 0xFF NOT AND DUP4 DUP1 ADD OR DUP6 SSTORE PUSH3 0x2A6 JUMP JUMPDEST DUP3 DUP1 ADD PUSH1 0x1 ADD DUP6 SSTORE DUP3 ISZERO PUSH3 0x2A6 JUMPI SWAP2 DUP3 ADD JUMPDEST DUP3 DUP2 GT ISZERO PUSH3 0x2A5 JUMPI DUP3 MLOAD DUP3 SSTORE SWAP2 PUSH1 0x20 ADD SWAP2 SWAP1 PUSH1 0x1 ADD SWAP1 PUSH3 0x288 JUMP JUMPDEST JUMPDEST POP SWAP1 POP PUSH3 0x2B5 SWAP2 SWAP1 PUSH3 0x2B9 JUMP JUMPDEST POP SWAP1 JUMP JUMPDEST JUMPDEST DUP1 DUP3 GT ISZERO PUSH3 0x2D4 JUMPI PUSH1 0x0 DUP2 PUSH1 0x0 SWAP1 SSTORE POP PUSH1 0x1 ADD PUSH3 0x2BA JUMP JUMPDEST POP SWAP1 JUMP JUMPDEST PUSH1 0x0 PUSH1 0x40 MLOAD SWAP1 POP SWAP1 JUMP JUMPDEST PUSH1 0x0 DUP1 REVERT JUMPDEST PUSH1 0x0 DUP1 REVERT JUMPDEST PUSH1 0x0 PUSH20 0xFFFFFFFFFFFFFFFFFFFFFFFFFFFFFFFFFFFFFFFF DUP3 AND SWAP1 POP SWAP2 SWAP1 POP JUMP JUMPDEST PUSH1 0x0 PUSH3 0x319 DUP3 PUSH3 0x2EC JUMP JUMPDEST SWAP1 POP SWAP2 SWAP1 POP JUMP JUMPDEST PUSH3 0x32B DUP2 PUSH3 0x30C JUMP JUMPDEST DUP2 EQ PUSH3 0x337 JUMPI PUSH1 0x0 DUP1 REVERT JUMPDEST POP JUMP JUMPDEST PUSH1 0x0 DUP2 MLOAD SWAP1 POP PUSH3 0x34B DUP2 PUSH3 0x320 JUMP JUMPDEST SWAP3 SWAP2 POP POP JUMP JUMPDEST PUSH1 0x0 DUP1 REVERT JUMPDEST PUSH1 0x0 DUP1 REVERT JUMPDEST PUSH1 0x0 PUSH1 0x1F NOT PUSH1 0x1F DUP4 ADD AND SWAP1 POP SWAP2 SWAP1 POP JUMP JUMPDEST PUSH32 0x4E487B7100000000000000000000000000000000000000000000000000000000 PUSH1 0x0 MSTORE PUSH1 0x41 PUSH1 0x4 MSTORE PUSH1 0x24 PUSH1 0x0 REVERT JUMPDEST PUSH3 0x3A6 DUP3 PUSH3 0x35B JUMP JUMPDEST DUP2 ADD DUP2 DUP2 LT PUSH8 0xFFFFFFFFFFFFFFFF DUP3 GT OR ISZERO PUSH3 0x3C8 JUMPI PUSH3 0x3C7 PUSH3 0x36C JUMP JUMPDEST JUMPDEST DUP1 PUSH1 0x40 MSTORE POP POP POP JUMP JUMPDEST PUSH1 0x0 PUSH3 0x3DD PUSH3 0x2D8 JUMP JUMPDEST SWAP1 POP PUSH3 0x3EB DUP3 DUP3 PUSH3 0x39B JUMP JUMPDEST SWAP2 SWAP1 POP JUMP JUMPDEST PUSH1 0x0 PUSH8 0xFFFFFFFFFFFFFFFF DUP3 GT ISZERO PUSH3 0x40E JUMPI PUSH3 0x40D PUSH3 0x36C JUMP JUMPDEST JUMPDEST PUSH3 0x419 DUP3 PUSH3 0x35B JUMP JUMPDEST SWAP1 POP PUSH1 0x20 DUP2 ADD SWAP1 POP SWAP2 SWAP1 POP JUMP JUMPDEST PUSH1 0x0 JUMPDEST DUP4 DUP2 LT ISZERO PUSH3 0x446 JUMPI DUP1 DUP3 ADD MLOAD DUP2 DUP5 ADD MSTORE PUSH1 0x20 DUP2 ADD SWAP1 POP PUSH3 0x429 JUMP JUMPDEST DUP4 DUP2 GT ISZERO PUSH3 0x456 JUMPI PUSH1 0x0 DUP5 DUP5 ADD MSTORE JUMPDEST POP POP POP POP JUMP JUMPDEST PUSH1 0x0 PUSH3 0x473 PUSH3 0x46D DUP5 PUSH3 0x3F0 JUMP JUMPDEST PUSH3 0x3D1 JUMP JUMPDEST SWAP1 POP DUP3 DUP2 MSTORE PUSH1 0x20 DUP2 ADD DUP5 DUP5 DUP5 ADD GT ISZERO PUSH3 0x492 JUMPI PUSH3 0x491 PUSH3 0x356 JUMP JUMPDEST JUMPDEST PUSH3 0x49F DUP5 DUP3 DUP6 PUSH3 0x426 JUMP JUMPDEST POP SWAP4 SWAP3 POP POP POP JUMP JUMPDEST PUSH1 0x0 DUP3 PUSH1 0x1F DUP4 ADD SLT PUSH3 0x4BF JUMPI PUSH3 0x4BE PUSH3 0x351 JUMP JUMPDEST JUMPDEST DUP2 MLOAD PUSH3 0x4D1 DUP5 DUP3 PUSH1 0x20 DUP7 ADD PUSH3 0x45C JUMP JUMPDEST SWAP2 POP POP SWAP3 SWAP2 POP POP JUMP JUMPDEST PUSH1 0x0 DUP1 PUSH1 0x0 DUP1 PUSH1 0x0 DUP1 PUSH1 0xC0 DUP8 DUP10 SUB SLT ISZERO PUSH3 0x4FA JUMPI PUSH3 0x4F9 PUSH3 0x2E2 JUMP JUMPDEST JUMPDEST PUSH1 0x0 PUSH3 0x50A DUP10 DUP3 DUP11 ADD PUSH3 0x33A JUMP JUMPDEST SWAP7 POP POP PUSH1 0x20 PUSH3 0x51D DUP10 DUP3 DUP11 ADD PUSH3 0x33A JUMP JUMPDEST SWAP6 POP POP PUSH1 0x40 DUP8 ADD MLOAD PUSH8 0xFFFFFFFFFFFFFFFF DUP2 GT ISZERO PUSH3 0x541 JUMPI PUSH3 0x540 PUSH3 0x2E7 JUMP JUMPDEST JUMPDEST PUSH3 0x54F DUP10 DUP3 DUP11 ADD PUSH3 0x4A7 JUMP JUMPDEST SWAP5 POP POP PUSH1 0x60 DUP8 ADD MLOAD PUSH8 0xFFFFFFFFFFFFFFFF DUP2 GT ISZERO PUSH3 0x573 JUMPI PUSH3 0x572 PUSH3 0x2E7 JUMP JUMPDEST JUMPDEST PUSH3 0x581 DUP10 DUP3 DUP11 ADD PUSH3 0x4A7 JUMP JUMPDEST SWAP4 POP POP PUSH1 0x80 PUSH3 0x594 DUP10 DUP3 DUP11 ADD PUSH3 0x33A JUMP JUMPDEST SWAP3 POP POP PUSH1 0xA0 PUSH3 0x5A7 DUP10 DUP3 DUP11 ADD PUSH3 0x33A JUMP JUMPDEST SWAP2 POP POP SWAP3 SWAP6 POP SWAP3 SWAP6 POP SWAP3 SWAP6 JUMP JUMPDEST PUSH32 0x4E487B7100000000000000000000000000000000000000000000000000000000 PUSH1 0x0 MSTORE PUSH1 0x22 PUSH1 0x4 MSTORE PUSH1 0x24 PUSH1 0x0 REVERT JUMPDEST PUSH1 0x0 PUSH1 0x2 DUP3 DIV SWAP1 POP PUSH1 0x1 DUP3 AND DUP1 PUSH3 0x5FC JUMPI PUSH1 0x7F DUP3 AND SWAP2 POP JUMPDEST PUSH1 0x20 DUP3 LT DUP2 EQ ISZERO PUSH3 0x613 JUMPI PUSH3 0x612 PUSH3 0x5B4 JUMP JUMPDEST JUMPDEST POP SWAP2 SWAP1 POP JUMP JUMPDEST PUSH2 0xFCE DUP1 PUSH3 0x629 PUSH1 0x0 CODECOPY PUSH1 0x0 RETURN INVALID PUSH1 0x80 PUSH1 0x40 MSTORE CALLVALUE DUP1 ISZERO PUSH2 0x10 JUMPI PUSH1 0x0 DUP1 REVERT JUMPDEST POP PUSH1 0x4 CALLDATASIZE LT PUSH2 0xA9 JUMPI PUSH1 0x0 CALLDATALOAD PUSH1 0xE0 SHR DUP1 PUSH4 0xA523B88A GT PUSH2 0x71 JUMPI DUP1 PUSH4 0xA523B88A EQ PUSH2 0x146 JUMPI DUP1 PUSH4 0xA6C3E6B9 EQ PUSH2 0x150 JUMPI DUP1 PUSH4 0xC5FE6FFC EQ PUSH2 0x16E JUMPI DUP1 PUSH4 0xC623674F EQ PUSH2 0x19E JUMPI DUP1 PUSH4 0xE5A0AF3D EQ PUSH2 0x1BC JUMPI DUP1 PUSH4 0xED777791 EQ PUSH2 0x1DA JUMPI PUSH2 0xA9 JUMP JUMPDEST DUP1 PUSH4 0x4051DDAC EQ PUSH2 0xAE JUMPI DUP1 PUSH4 0x46C922D1 EQ PUSH2 0xD2 JUMPI DUP1 PUSH4 0x4A79D50C EQ PUSH2 0xF0 JUMPI DUP1 PUSH4 0x8758CE83 EQ PUSH2 0x10E JUMPI DUP1 PUSH4 0x988E46C8 EQ PUSH2 0x12A JUMPI JUMPDEST PUSH1 0x0 DUP1 REVERT JUMPDEST PUSH2 0xB6 PUSH2 0x20A JUMP JUMPDEST PUSH1 0x40 MLOAD PUSH2 0xC9 SWAP8 SWAP7 SWAP6 SWAP5 SWAP4 SWAP3 SWAP2 SWAP1 PUSH2 0xB88 JUMP JUMPDEST PUSH1 0x40 MLOAD DUP1 SWAP2 SUB SWAP1 RETURN JUMPDEST PUSH2 0xDA PUSH2 0x4A4 JUMP JUMPDEST PUSH1 0x40 MLOAD PUSH2 0xE7 SWAP2 SWAP1 PUSH2 0xC13 JUMP JUMPDEST PUSH1 0x40 MLOAD DUP1 SWAP2 SUB SWAP1 RETURN JUMPDEST PUSH2 0xF8 PUSH2 0x4C8 JUMP JUMPDEST PUSH1 0x40 MLOAD PUSH2 0x105 SWAP2 SWAP1 PUSH2 0xC2E JUMP JUMPDEST PUSH1 0x40 MLOAD DUP1 SWAP2 SUB SWAP1 RETURN JUMPDEST PUSH2 0x128 PUSH1 0x4 DUP1 CALLDATASIZE SUB DUP2 ADD SWAP1 PUSH2 0x123 SWAP2 SWAP1 PUSH2 0xC81 JUMP JUMPDEST PUSH2 0x556 JUMP JUMPDEST STOP JUMPDEST PUSH2 0x144 PUSH1 0x4 DUP1 CALLDATASIZE SUB DUP2 ADD SWAP1 PUSH2 0x13F SWAP2 SWAP1 PUSH2 0xC81 JUMP JUMPDEST PUSH2 0x64A JUMP JUMPDEST STOP JUMPDEST PUSH2 0x14E PUSH2 0x73E JUMP JUMPDEST STOP JUMPDEST PUSH2 0x158 PUSH2 0x841 JUMP JUMPDEST PUSH1 0x40 MLOAD PUSH2 0x165 SWAP2 SWAP1 PUSH2 0xC13 JUMP JUMPDEST PUSH1 0x40 MLOAD DUP1 SWAP2 SUB SWAP1 RETURN JUMPDEST PUSH2 0x188 PUSH1 0x4 DUP1 CALLDATASIZE SUB DUP2 ADD SWAP1 PUSH2 0x183 SWAP2 SWAP1 PUSH2 0xCDA JUMP JUMPDEST PUSH2 0x867 JUMP JUMPDEST PUSH1 0x40 MLOAD PUSH2 0x195 SWAP2 SWAP1 PUSH2 0xC13 JUMP JUMPDEST PUSH1 0x40 MLOAD DUP1 SWAP2 SUB SWAP1 RETURN JUMPDEST PUSH2 0x1A6 PUSH2 0x8A6 JUMP JUMPDEST PUSH1 0x40 MLOAD PUSH2 0x1B3 SWAP2 SWAP1 PUSH2 0xC2E JUMP JUMPDEST PUSH1 0x40 MLOAD DUP1 SWAP2 SUB SWAP1 RETURN JUMPDEST PUSH2 0x1C4 PUSH2 0x934 JUMP JUMPDEST PUSH1 0x40 MLOAD PUSH2 0x1D1 SWAP2 SWAP1 PUSH2 0xD07 JUMP JUMPDEST PUSH1 0x40 MLOAD DUP1 SWAP2 SUB SWAP1 RETURN JUMPDEST PUSH2 0x1F4 PUSH1 0x4 DUP1 CALLDATASIZE SUB DUP2 ADD SWAP1 PUSH2 0x1EF SWAP2 SWAP1 PUSH2 0xCDA JUMP JUMPDEST PUSH2 0x93A JUMP JUMPDEST PUSH1 0x40 MLOAD PUSH2 0x201 SWAP2 SWAP1 PUSH2 0xC13 JUMP JUMPDEST PUSH1 0x40 MLOAD DUP1 SWAP2 SUB SWAP1 RETURN JUMPDEST PUSH1 0x0 DUP1 PUSH1 0x60 DUP1 PUSH1 0x60 DUP1 PUSH1 0x0 DUP1 PUSH1 0x0 SWAP1 SLOAD SWAP1 PUSH2 0x100 EXP SWAP1 DIV PUSH20 0xFFFFFFFFFFFFFFFFFFFFFFFFFFFFFFFFFFFFFFFF AND PUSH1 0x1 PUSH1 0x0 SWAP1 SLOAD SWAP1 PUSH2 0x100 EXP SWAP1 DIV PUSH20 0xFFFFFFFFFFFFFFFFFFFFFFFFFFFFFFFFFFFFFFFF AND PUSH1 0x2 PUSH1 0x3 PUSH1 0x4 PUSH1 0x5 PUSH1 0x7 SLOAD DUP5 DUP1 SLOAD PUSH2 0x271 SWAP1 PUSH2 0xD51 JUMP JUMPDEST DUP1 PUSH1 0x1F ADD PUSH1 0x20 DUP1 SWAP2 DIV MUL PUSH1 0x20 ADD PUSH1 0x40 MLOAD SWAP1 DUP2 ADD PUSH1 0x40 MSTORE DUP1 SWAP3 SWAP2 SWAP1 DUP2 DUP2 MSTORE PUSH1 0x20 ADD DUP3 DUP1 SLOAD PUSH2 0x29D SWAP1 PUSH2 0xD51 JUMP JUMPDEST DUP1 ISZERO PUSH2 0x2EA JUMPI DUP1 PUSH1 0x1F LT PUSH2 0x2BF JUMPI PUSH2 0x100 DUP1 DUP4 SLOAD DIV MUL DUP4 MSTORE SWAP2 PUSH1 0x20 ADD SWAP2 PUSH2 0x2EA JUMP JUMPDEST DUP3 ADD SWAP2 SWAP1 PUSH1 0x0 MSTORE PUSH1 0x20 PUSH1 0x0 KECCAK256 SWAP1 JUMPDEST DUP2 SLOAD DUP2 MSTORE SWAP1 PUSH1 0x1 ADD SWAP1 PUSH1 0x20 ADD DUP1 DUP4 GT PUSH2 0x2CD JUMPI DUP3 SWAP1 SUB PUSH1 0x1F AND DUP3 ADD SWAP2 JUMPDEST POP POP POP POP POP SWAP5 POP DUP4 DUP1 SLOAD PUSH2 0x2FD SWAP1 PUSH2 0xD51 JUMP JUMPDEST DUP1 PUSH1 0x1F ADD PUSH1 0x20 DUP1 SWAP2 DIV MUL PUSH1 0x20 ADD PUSH1 0x40 MLOAD SWAP1 DUP2 ADD PUSH1 0x40 MSTORE DUP1 SWAP3 SWAP2 SWAP1 DUP2 DUP2 MSTORE PUSH1 0x20 ADD DUP3 DUP1 SLOAD PUSH2 0x329 SWAP1 PUSH2 0xD51 JUMP JUMPDEST DUP1 ISZERO PUSH2 0x376 JUMPI DUP1 PUSH1 0x1F LT PUSH2 0x34B JUMPI PUSH2 0x100 DUP1 DUP4 SLOAD DIV MUL DUP4 MSTORE SWAP2 PUSH1 0x20 ADD SWAP2 PUSH2 0x376 JUMP JUMPDEST DUP3 ADD SWAP2 SWAP1 PUSH1 0x0 MSTORE PUSH1 0x20 PUSH1 0x0 KECCAK256 SWAP1 JUMPDEST DUP2 SLOAD DUP2 MSTORE SWAP1 PUSH1 0x1 ADD SWAP1 PUSH1 0x20 ADD DUP1 DUP4 GT PUSH2 0x359 JUMPI DUP3 SWAP1 SUB PUSH1 0x1F AND DUP3 ADD SWAP2 JUMPDEST POP POP POP POP POP SWAP4 POP DUP3 DUP1 SLOAD DUP1 PUSH1 0x20 MUL PUSH1 0x20 ADD PUSH1 0x40 MLOAD SWAP1 DUP2 ADD PUSH1 0x40 MSTORE DUP1 SWAP3 SWAP2 SWAP1 DUP2 DUP2 MSTORE PUSH1 0x20 ADD DUP3 DUP1 SLOAD DUP1 ISZERO PUSH2 0x3FE JUMPI PUSH1 0x20 MUL DUP3 ADD SWAP2 SWAP1 PUSH1 0x0 MSTORE PUSH1 0x20 PUSH1 0x0 KECCAK256 SWAP1 JUMPDEST DUP2 PUSH1 0x0 SWAP1 SLOAD SWAP1 PUSH2 0x100 EXP SWAP1 DIV PUSH20 0xFFFFFFFFFFFFFFFFFFFFFFFFFFFFFFFFFFFFFFFF AND PUSH20 0xFFFFFFFFFFFFFFFFFFFFFFFFFFFFFFFFFFFFFFFF AND DUP2 MSTORE PUSH1 0x20 ADD SWAP1 PUSH1 0x1 ADD SWAP1 DUP1 DUP4 GT PUSH2 0x3B4 JUMPI JUMPDEST POP POP POP POP POP SWAP3 POP DUP2 DUP1 SLOAD DUP1 PUSH1 0x20 MUL PUSH1 0x20 ADD PUSH1 0x40 MLOAD SWAP1 DUP2 ADD PUSH1 0x40 MSTORE DUP1 SWAP3 SWAP2 SWAP1 DUP2 DUP2 MSTORE PUSH1 0x20 ADD DUP3 DUP1 SLOAD DUP1 ISZERO PUSH2 0x486 JUMPI PUSH1 0x20 MUL DUP3 ADD SWAP2 SWAP1 PUSH1 0x0 MSTORE PUSH1 0x20 PUSH1 0x0 KECCAK256 SWAP1 JUMPDEST DUP2 PUSH1 0x0 SWAP1 SLOAD SWAP1 PUSH2 0x100 EXP SWAP1 DIV PUSH20 0xFFFFFFFFFFFFFFFFFFFFFFFFFFFFFFFFFFFFFFFF AND PUSH20 0xFFFFFFFFFFFFFFFFFFFFFFFFFFFFFFFFFFFFFFFF AND DUP2 MSTORE PUSH1 0x20 ADD SWAP1 PUSH1 0x1 ADD SWAP1 DUP1 DUP4 GT PUSH2 0x43C JUMPI JUMPDEST POP POP POP POP POP SWAP2 POP SWAP7 POP SWAP7 POP SWAP7 POP SWAP7 POP SWAP7 POP SWAP7 POP SWAP7 POP SWAP1 SWAP2 SWAP3 SWAP4 SWAP5 SWAP6 SWAP7 JUMP JUMPDEST PUSH1 0x0 DUP1 SLOAD SWAP1 PUSH2 0x100 EXP SWAP1 DIV PUSH20 0xFFFFFFFFFFFFFFFFFFFFFFFFFFFFFFFFFFFFFFFF AND DUP2 JUMP JUMPDEST PUSH1 0x2 DUP1 SLOAD PUSH2 0x4D5 SWAP1 PUSH2 0xD51 JUMP JUMPDEST DUP1 PUSH1 0x1F ADD PUSH1 0x20 DUP1 SWAP2 DIV MUL PUSH1 0x20 ADD PUSH1 0x40 MLOAD SWAP1 DUP2 ADD PUSH1 0x40 MSTORE DUP1 SWAP3 SWAP2 SWAP1 DUP2 DUP2 MSTORE PUSH1 0x20 ADD DUP3 DUP1 SLOAD PUSH2 0x501 SWAP1 PUSH2 0xD51 JUMP JUMPDEST DUP1 ISZERO PUSH2 0x54E JUMPI DUP1 PUSH1 0x1F LT PUSH2 0x523 JUMPI PUSH2 0x100 DUP1 DUP4 SLOAD DIV MUL DUP4 MSTORE SWAP2 PUSH1 0x20 ADD SWAP2 PUSH2 0x54E JUMP JUMPDEST DUP3 ADD SWAP2 SWAP1 PUSH1 0x0 MSTORE PUSH1 0x20 PUSH1 0x0 KECCAK256 SWAP1 JUMPDEST DUP2 SLOAD DUP2 MSTORE SWAP1 PUSH1 0x1 ADD SWAP1 PUSH1 0x20 ADD DUP1 DUP4 GT PUSH2 0x531 JUMPI DUP3 SWAP1 SUB PUSH1 0x1F AND DUP3 ADD SWAP2 JUMPDEST POP POP POP POP POP DUP2 JUMP JUMPDEST PUSH1 0x0 DUP1 SLOAD SWAP1 PUSH2 0x100 EXP SWAP1 DIV PUSH20 0xFFFFFFFFFFFFFFFFFFFFFFFFFFFFFFFFFFFFFFFF AND PUSH20 0xFFFFFFFFFFFFFFFFFFFFFFFFFFFFFFFFFFFFFFFF AND CALLER PUSH20 0xFFFFFFFFFFFFFFFFFFFFFFFFFFFFFFFFFFFFFFFF AND EQ PUSH2 0x5E4 JUMPI PUSH1 0x40 MLOAD PUSH32 0x8C379A000000000000000000000000000000000000000000000000000000000 DUP2 MSTORE PUSH1 0x4 ADD PUSH2 0x5DB SWAP1 PUSH2 0xE1B JUMP JUMPDEST PUSH1 0x40 MLOAD DUP1 SWAP2 SUB SWAP1 REVERT JUMPDEST PUSH1 0x4 DUP2 SWAP1 DUP1 PUSH1 0x1 DUP2 SLOAD ADD DUP1 DUP3 SSTORE DUP1 SWAP2 POP POP PUSH1 0x1 SWAP1 SUB SWAP1 PUSH1 0x0 MSTORE PUSH1 0x20 PUSH1 0x0 KECCAK256 ADD PUSH1 0x0 SWAP1 SWAP2 SWAP1 SWAP2 SWAP1 SWAP2 PUSH2 0x100 EXP DUP2 SLOAD DUP2 PUSH20 0xFFFFFFFFFFFFFFFFFFFFFFFFFFFFFFFFFFFFFFFF MUL NOT AND SWAP1 DUP4 PUSH20 0xFFFFFFFFFFFFFFFFFFFFFFFFFFFFFFFFFFFFFFFF AND MUL OR SWAP1 SSTORE POP POP JUMP JUMPDEST PUSH1 0x0 DUP1 SLOAD SWAP1 PUSH2 0x100 EXP SWAP1 DIV PUSH20 0xFFFFFFFFFFFFFFFFFFFFFFFFFFFFFFFFFFFFFFFF AND PUSH20 0xFFFFFFFFFFFFFFFFFFFFFFFFFFFFFFFFFFFFFFFF AND CALLER PUSH20 0xFFFFFFFFFFFFFFFFFFFFFFFFFFFFFFFFFFFFFFFF AND EQ PUSH2 0x6D8 JUMPI PUSH1 0x40 MLOAD PUSH32 0x8C379A000000000000000000000000000000000000000000000000000000000 DUP2 MSTORE PUSH1 0x4 ADD PUSH2 0x6CF SWAP1 PUSH2 0xE1B JUMP JUMPDEST PUSH1 0x40 MLOAD DUP1 SWAP2 SUB SWAP1 REVERT JUMPDEST PUSH1 0x5 DUP2 SWAP1 DUP1 PUSH1 0x1 DUP2 SLOAD ADD DUP1 DUP3 SSTORE DUP1 SWAP2 POP POP PUSH1 0x1 SWAP1 SUB SWAP1 PUSH1 0x0 MSTORE PUSH1 0x20 PUSH1 0x0 KECCAK256 ADD PUSH1 0x0 SWAP1 SWAP2 SWAP1 SWAP2 SWAP1 SWAP2 PUSH2 0x100 EXP DUP2 SLOAD DUP2 PUSH20 0xFFFFFFFFFFFFFFFFFFFFFFFFFFFFFFFFFFFFFFFF MUL NOT AND SWAP1 DUP4 PUSH20 0xFFFFFFFFFFFFFFFFFFFFFFFFFFFFFFFFFFFFFFFF AND MUL OR SWAP1 SSTORE POP POP JUMP JUMPDEST PUSH1 0x6 PUSH1 0x0 CALLER PUSH20 0xFFFFFFFFFFFFFFFFFFFFFFFFFFFFFFFFFFFFFFFF AND PUSH20 0xFFFFFFFFFFFFFFFFFFFFFFFFFFFFFFFFFFFFFFFF AND DUP2 MSTORE PUSH1 0x20 ADD SWAP1 DUP2 MSTORE PUSH1 0x20 ADD PUSH1 0x0 KECCAK256 PUSH1 0x0 SWAP1 SLOAD SWAP1 PUSH2 0x100 EXP SWAP1 DIV PUSH1 0xFF AND ISZERO PUSH2 0x7CB JUMPI PUSH1 0x40 MLOAD PUSH32 0x8C379A000000000000000000000000000000000000000000000000000000000 DUP2 MSTORE PUSH1 0x4 ADD PUSH2 0x7C2 SWAP1 PUSH2 0xE87 JUMP JUMPDEST PUSH1 0x40 MLOAD DUP1 SWAP2 SUB SWAP1 REVERT JUMPDEST PUSH1 0x1 PUSH1 0x6 PUSH1 0x0 CALLER PUSH20 0xFFFFFFFFFFFFFFFFFFFFFFFFFFFFFFFFFFFFFFFF AND PUSH20 0xFFFFFFFFFFFFFFFFFFFFFFFFFFFFFFFFFFFFFFFF AND DUP2 MSTORE PUSH1 0x20 ADD SWAP1 DUP2 MSTORE PUSH1 0x20 ADD PUSH1 0x0 KECCAK256 PUSH1 0x0 PUSH2 0x100 EXP DUP2 SLOAD DUP2 PUSH1 0xFF MUL NOT AND SWAP1 DUP4 ISZERO ISZERO MUL OR SWAP1 SSTORE POP PUSH2 0x839 PUSH1 0x1 PUSH1 0x7 SLOAD PUSH2 0x979 SWAP1 SWAP2 SWAP1 PUSH4 0xFFFFFFFF AND JUMP JUMPDEST PUSH1 0x7 DUP2 SWAP1 SSTORE POP JUMP JUMPDEST PUSH1 0x1 PUSH1 0x0 SWAP1 SLOAD SWAP1 PUSH2 0x100 EXP SWAP1 DIV PUSH20 0xFFFFFFFFFFFFFFFFFFFFFFFFFFFFFFFFFFFFFFFF AND DUP2 JUMP JUMPDEST PUSH1 0x5 DUP2 DUP2 SLOAD DUP2 LT PUSH2 0x877 JUMPI PUSH1 0x0 DUP1 REVERT JUMPDEST SWAP1 PUSH1 0x0 MSTORE PUSH1 0x20 PUSH1 0x0 KECCAK256 ADD PUSH1 0x0 SWAP2 POP SLOAD SWAP1 PUSH2 0x100 EXP SWAP1 DIV PUSH20 0xFFFFFFFFFFFFFFFFFFFFFFFFFFFFFFFFFFFFFFFF AND DUP2 JUMP JUMPDEST PUSH1 0x3 DUP1 SLOAD PUSH2 0x8B3 SWAP1 PUSH2 0xD51 JUMP JUMPDEST DUP1 PUSH1 0x1F ADD PUSH1 0x20 DUP1 SWAP2 DIV MUL PUSH1 0x20 ADD PUSH1 0x40 MLOAD SWAP1 DUP2 ADD PUSH1 0x40 MSTORE DUP1 SWAP3 SWAP2 SWAP1 DUP2 DUP2 MSTORE PUSH1 0x20 ADD DUP3 DUP1 SLOAD PUSH2 0x8DF SWAP1 PUSH2 0xD51 JUMP JUMPDEST DUP1 ISZERO PUSH2 0x92C JUMPI DUP1 PUSH1 0x1F LT PUSH2 0x901 JUMPI PUSH2 0x100 DUP1 DUP4 SLOAD DIV MUL DUP4 MSTORE SWAP2 PUSH1 0x20 ADD SWAP2 PUSH2 0x92C JUMP JUMPDEST DUP3 ADD SWAP2 SWAP1 PUSH1 0x0 MSTORE PUSH1 0x20 PUSH1 0x0 KECCAK256 SWAP1 JUMPDEST DUP2 SLOAD DUP2 MSTORE SWAP1 PUSH1 0x1 ADD SWAP1 PUSH1 0x20 ADD DUP1 DUP4 GT PUSH2 0x90F JUMPI DUP3 SWAP1 SUB PUSH1 0x1F AND DUP3 ADD SWAP2 JUMPDEST POP POP POP POP POP DUP2 JUMP JUMPDEST PUSH1 0x7 SLOAD DUP2 JUMP JUMPDEST PUSH1 0x4 DUP2 DUP2 SLOAD DUP2 LT PUSH2 0x94A JUMPI PUSH1 0x0 DUP1 REVERT JUMPDEST SWAP1 PUSH1 0x0 MSTORE PUSH1 0x20 PUSH1 0x0 KECCAK256 ADD PUSH1 0x0 SWAP2 POP SLOAD SWAP1 PUSH2 0x100 EXP SWAP1 DIV PUSH20 0xFFFFFFFFFFFFFFFFFFFFFFFFFFFFFFFFFFFFFFFF AND DUP2 JUMP JUMPDEST PUSH1 0x0 DUP1 DUP3 DUP5 PUSH2 0x988 SWAP2 SWAP1 PUSH2 0xED6 JUMP JUMPDEST SWAP1 POP DUP4 DUP2 LT ISZERO PUSH2 0x9CD JUMPI PUSH1 0x40 MLOAD PUSH32 0x8C379A000000000000000000000000000000000000000000000000000000000 DUP2 MSTORE PUSH1 0x4 ADD PUSH2 0x9C4 SWAP1 PUSH2 0xF78 JUMP JUMPDEST PUSH1 0x40 MLOAD DUP1 SWAP2 SUB SWAP1 REVERT JUMPDEST DUP1 SWAP2 POP POP SWAP3 SWAP2 POP POP JUMP JUMPDEST PUSH1 0x0 PUSH20 0xFFFFFFFFFFFFFFFFFFFFFFFFFFFFFFFFFFFFFFFF DUP3 AND SWAP1 POP SWAP2 SWAP1 POP JUMP JUMPDEST PUSH1 0x0 PUSH2 0xA02 DUP3 PUSH2 0x9D7 JUMP JUMPDEST SWAP1 POP SWAP2 SWAP1 POP JUMP JUMPDEST PUSH2 0xA12 DUP2 PUSH2 0x9F7 JUMP JUMPDEST DUP3 MSTORE POP POP JUMP JUMPDEST PUSH1 0x0 DUP2 MLOAD SWAP1 POP SWAP2 SWAP1 POP JUMP JUMPDEST PUSH1 0x0 DUP3 DUP3 MSTORE PUSH1 0x20 DUP3 ADD SWAP1 POP SWAP3 SWAP2 POP POP JUMP JUMPDEST PUSH1 0x0 JUMPDEST DUP4 DUP2 LT ISZERO PUSH2 0xA52 JUMPI DUP1 DUP3 ADD MLOAD DUP2 DUP5 ADD MSTORE PUSH1 0x20 DUP2 ADD SWAP1 POP PUSH2 0xA37 JUMP JUMPDEST DUP4 DUP2 GT ISZERO PUSH2 0xA61 JUMPI PUSH1 0x0 DUP5 DUP5 ADD MSTORE JUMPDEST POP POP POP POP JUMP JUMPDEST PUSH1 0x0 PUSH1 0x1F NOT PUSH1 0x1F DUP4 ADD AND SWAP1 POP SWAP2 SWAP1 POP JUMP JUMPDEST PUSH1 0x0 PUSH2 0xA83 DUP3 PUSH2 0xA18 JUMP JUMPDEST PUSH2 0xA8D DUP2 DUP6 PUSH2 0xA23 JUMP JUMPDEST SWAP4 POP PUSH2 0xA9D DUP2 DUP6 PUSH1 0x20 DUP7 ADD PUSH2 0xA34 JUMP JUMPDEST PUSH2 0xAA6 DUP2 PUSH2 0xA67 JUMP JUMPDEST DUP5 ADD SWAP2 POP POP SWAP3 SWAP2 POP POP JUMP JUMPDEST PUSH1 0x0 DUP2 MLOAD SWAP1 POP SWAP2 SWAP1 POP JUMP JUMPDEST PUSH1 0x0 DUP3 DUP3 MSTORE PUSH1 0x20 DUP3 ADD SWAP1 POP SWAP3 SWAP2 POP POP JUMP JUMPDEST PUSH1 0x0 DUP2 SWAP1 POP PUSH1 0x20 DUP3 ADD SWAP1 POP SWAP2 SWAP1 POP JUMP JUMPDEST PUSH2 0xAE6 DUP2 PUSH2 0x9F7 JUMP JUMPDEST DUP3 MSTORE POP POP JUMP JUMPDEST PUSH1 0x0 PUSH2 0xAF8 DUP4 DUP4 PUSH2 0xADD JUMP JUMPDEST PUSH1 0x20 DUP4 ADD SWAP1 POP SWAP3 SWAP2 POP POP JUMP JUMPDEST PUSH1 0x0 PUSH1 0x20 DUP3 ADD SWAP1 POP SWAP2 SWAP1 POP JUMP JUMPDEST PUSH1 0x0 PUSH2 0xB1C DUP3 PUSH2 0xAB1 JUMP JUMPDEST PUSH2 0xB26 DUP2 DUP6 PUSH2 0xABC JUMP JUMPDEST SWAP4 POP PUSH2 0xB31 DUP4 PUSH2 0xACD JUMP JUMPDEST DUP1 PUSH1 0x0 JUMPDEST DUP4 DUP2 LT ISZERO PUSH2 0xB62 JUMPI DUP2 MLOAD PUSH2 0xB49 DUP9 DUP3 PUSH2 0xAEC JUMP JUMPDEST SWAP8 POP PUSH2 0xB54 DUP4 PUSH2 0xB04 JUMP JUMPDEST SWAP3 POP POP PUSH1 0x1 DUP2 ADD SWAP1 POP PUSH2 0xB35 JUMP JUMPDEST POP DUP6 SWAP4 POP POP POP POP SWAP3 SWAP2 POP POP JUMP JUMPDEST PUSH1 0x0 DUP2 SWAP1 POP SWAP2 SWAP1 POP JUMP JUMPDEST PUSH2 0xB82 DUP2 PUSH2 0xB6F JUMP JUMPDEST DUP3 MSTORE POP POP JUMP JUMPDEST PUSH1 0x0 PUSH1 0xE0 DUP3 ADD SWAP1 POP PUSH2 0xB9D PUSH1 0x0 DUP4 ADD DUP11 PUSH2 0xA09 JUMP JUMPDEST PUSH2 0xBAA PUSH1 0x20 DUP4 ADD DUP10 PUSH2 0xA09 JUMP JUMPDEST DUP2 DUP2 SUB PUSH1 0x40 DUP4 ADD MSTORE PUSH2 0xBBC DUP2 DUP9 PUSH2 0xA78 JUMP JUMPDEST SWAP1 POP DUP2 DUP2 SUB PUSH1 0x60 DUP4 ADD MSTORE PUSH2 0xBD0 DUP2 DUP8 PUSH2 0xA78 JUMP JUMPDEST SWAP1 POP DUP2 DUP2 SUB PUSH1 0x80 DUP4 ADD MSTORE PUSH2 0xBE4 DUP2 DUP7 PUSH2 0xB11 JUMP JUMPDEST SWAP1 POP DUP2 DUP2 SUB PUSH1 0xA0 DUP4 ADD MSTORE PUSH2 0xBF8 DUP2 DUP6 PUSH2 0xB11 JUMP JUMPDEST SWAP1 POP PUSH2 0xC07 PUSH1 0xC0 DUP4 ADD DUP5 PUSH2 0xB79 JUMP JUMPDEST SWAP9 SWAP8 POP POP POP POP POP POP POP POP JUMP JUMPDEST PUSH1 0x0 PUSH1 0x20 DUP3 ADD SWAP1 POP PUSH2 0xC28 PUSH1 0x0 DUP4 ADD DUP5 PUSH2 0xA09 JUMP JUMPDEST SWAP3 SWAP2 POP POP JUMP JUMPDEST PUSH1 0x0 PUSH1 0x20 DUP3 ADD SWAP1 POP DUP2 DUP2 SUB PUSH1 0x0 DUP4 ADD MSTORE PUSH2 0xC48 DUP2 DUP5 PUSH2 0xA78 JUMP JUMPDEST SWAP1 POP SWAP3 SWAP2 POP POP JUMP JUMPDEST PUSH1 0x0 DUP1 REVERT JUMPDEST PUSH2 0xC5E DUP2 PUSH2 0x9F7 JUMP JUMPDEST DUP2 EQ PUSH2 0xC69 JUMPI PUSH1 0x0 DUP1 REVERT JUMPDEST POP JUMP JUMPDEST PUSH1 0x0 DUP2 CALLDATALOAD SWAP1 POP PUSH2 0xC7B DUP2 PUSH2 0xC55 JUMP JUMPDEST SWAP3 SWAP2 POP POP JUMP JUMPDEST PUSH1 0x0 PUSH1 0x20 DUP3 DUP5 SUB SLT ISZERO PUSH2 0xC97 JUMPI PUSH2 0xC96 PUSH2 0xC50 JUMP JUMPDEST JUMPDEST PUSH1 0x0 PUSH2 0xCA5 DUP5 DUP3 DUP6 ADD PUSH2 0xC6C JUMP JUMPDEST SWAP2 POP POP SWAP3 SWAP2 POP POP JUMP JUMPDEST PUSH2 0xCB7 DUP2 PUSH2 0xB6F JUMP JUMPDEST DUP2 EQ PUSH2 0xCC2 JUMPI PUSH1 0x0 DUP1 REVERT JUMPDEST POP JUMP JUMPDEST PUSH1 0x0 DUP2 CALLDATALOAD SWAP1 POP PUSH2 0xCD4 DUP2 PUSH2 0xCAE JUMP JUMPDEST SWAP3 SWAP2 POP POP JUMP JUMPDEST PUSH1 0x0 PUSH1 0x20 DUP3 DUP5 SUB SLT ISZERO PUSH2 0xCF0 JUMPI PUSH2 0xCEF PUSH2 0xC50 JUMP JUMPDEST JUMPDEST PUSH1 0x0 PUSH2 0xCFE DUP5 DUP3 DUP6 ADD PUSH2 0xCC5 JUMP JUMPDEST SWAP2 POP POP SWAP3 SWAP2 POP POP JUMP JUMPDEST PUSH1 0x0 PUSH1 0x20 DUP3 ADD SWAP1 POP PUSH2 0xD1C PUSH1 0x0 DUP4 ADD DUP5 PUSH2 0xB79 JUMP JUMPDEST SWAP3 SWAP2 POP POP JUMP JUMPDEST PUSH32 0x4E487B7100000000000000000000000000000000000000000000000000000000 PUSH1 0x0 MSTORE PUSH1 0x22 PUSH1 0x4 MSTORE PUSH1 0x24 PUSH1 0x0 REVERT JUMPDEST PUSH1 0x0 PUSH1 0x2 DUP3 DIV SWAP1 POP PUSH1 0x1 DUP3 AND DUP1 PUSH2 0xD69 JUMPI PUSH1 0x7F DUP3 AND SWAP2 POP JUMPDEST PUSH1 0x20 DUP3 LT DUP2 EQ ISZERO PUSH2 0xD7D JUMPI PUSH2 0xD7C PUSH2 0xD22 JUMP JUMPDEST JUMPDEST POP SWAP2 SWAP1 POP JUMP JUMPDEST PUSH32 0x546869732066756E6374696F6E2068617320746F2062652063616C6C65642066 PUSH1 0x0 DUP3 ADD MSTORE PUSH32 0x726F6D207468652073746F727920636F6E747261637420627920616E20616363 PUSH1 0x20 DUP3 ADD MSTORE PUSH32 0x657074656420617574686F72206F6E6C79000000000000000000000000000000 PUSH1 0x40 DUP3 ADD MSTORE POP JUMP JUMPDEST PUSH1 0x0 PUSH2 0xE05 PUSH1 0x51 DUP4 PUSH2 0xA23 JUMP JUMPDEST SWAP2 POP PUSH2 0xE10 DUP3 PUSH2 0xD83 JUMP JUMPDEST PUSH1 0x60 DUP3 ADD SWAP1 POP SWAP2 SWAP1 POP JUMP JUMPDEST PUSH1 0x0 PUSH1 0x20 DUP3 ADD SWAP1 POP DUP2 DUP2 SUB PUSH1 0x0 DUP4 ADD MSTORE PUSH2 0xE34 DUP2 PUSH2 0xDF8 JUMP JUMPDEST SWAP1 POP SWAP2 SWAP1 POP JUMP JUMPDEST PUSH32 0x596F75206C696B656420746869732073746F7279206265666F72650000000000 PUSH1 0x0 DUP3 ADD MSTORE POP JUMP JUMPDEST PUSH1 0x0 PUSH2 0xE71 PUSH1 0x1B DUP4 PUSH2 0xA23 JUMP JUMPDEST SWAP2 POP PUSH2 0xE7C DUP3 PUSH2 0xE3B JUMP JUMPDEST PUSH1 0x20 DUP3 ADD SWAP1 POP SWAP2 SWAP1 POP JUMP JUMPDEST PUSH1 0x0 PUSH1 0x20 DUP3 ADD SWAP1 POP DUP2 DUP2 SUB PUSH1 0x0 DUP4 ADD MSTORE PUSH2 0xEA0 DUP2 PUSH2 0xE64 JUMP JUMPDEST SWAP1 POP SWAP2 SWAP1 POP JUMP JUMPDEST PUSH32 0x4E487B7100000000000000000000000000000000000000000000000000000000 PUSH1 0x0 MSTORE PUSH1 0x11 PUSH1 0x4 MSTORE PUSH1 0x24 PUSH1 0x0 REVERT JUMPDEST PUSH1 0x0 PUSH2 0xEE1 DUP3 PUSH2 0xB6F JUMP JUMPDEST SWAP2 POP PUSH2 0xEEC DUP4 PUSH2 0xB6F JUMP JUMPDEST SWAP3 POP DUP3 PUSH32 0xFFFFFFFFFFFFFFFFFFFFFFFFFFFFFFFFFFFFFFFFFFFFFFFFFFFFFFFFFFFFFFFF SUB DUP3 GT ISZERO PUSH2 0xF21 JUMPI PUSH2 0xF20 PUSH2 0xEA7 JUMP JUMPDEST JUMPDEST DUP3 DUP3 ADD SWAP1 POP SWAP3 SWAP2 POP POP JUMP JUMPDEST PUSH32 0x536166654D6174683A206164646974696F6E206F766572666C6F770000000000 PUSH1 0x0 DUP3 ADD MSTORE POP JUMP JUMPDEST PUSH1 0x0 PUSH2 0xF62 PUSH1 0x1B DUP4 PUSH2 0xA23 JUMP JUMPDEST SWAP2 POP PUSH2 0xF6D DUP3 PUSH2 0xF2C JUMP JUMPDEST PUSH1 0x20 DUP3 ADD SWAP1 POP SWAP2 SWAP1 POP JUMP JUMPDEST PUSH1 0x0 PUSH1 0x20 DUP3 ADD SWAP1 POP DUP2 DUP2 SUB PUSH1 0x0 DUP4 ADD MSTORE PUSH2 0xF91 DUP2 PUSH2 0xF55 JUMP JUMPDEST SWAP1 POP SWAP2 SWAP1 POP JUMP INVALID LOG2 PUSH5 0x6970667358 0x22 SLT KECCAK256 SWAP2 0x23 BYTE JUMPI 0xB1 EQ SHL 0x22 PUSH20 0x9C43BEDE89E78143BD98FB143BF7B0A9C73876D7 0xD8 0xD3 SELFBALANCE PUSH5 0x736F6C6343 STOP ADDMOD MULMOD STOP CALLER LOG2 PUSH5 0x6970667358 0x22 SLT KECCAK256 0xCE LT DUP10 PUSH1 0x3A 0x2C MUL PUSH8 0x614E6D65E7A4094 DUP4 0x4F CALLDATASIZE 0x29 0xD8 DUP13 PUSH24 0x69CD0E0E5E782327A564736F6C6343000809003300000000 "},"gasEstimates":{"creation":{"codeDepositCost":"3589800","executionCost":"infinite","totalCost":"infinite"},"external":{"approveRequestToJoin(uint256)":"infinite","authorsForReact(uint256)":"4978","authorsForSolidity(address)":"2913","chaptersForReact(uint256)":"5000","chaptersForSolidity(address)":"2868","contribute()":"50901","createChapter(string,string,address,address)":"infinite","createRequestToJoin(string)":"infinite","dispenseRewards()":"infinite","getChapters()":"infinite","getSummary()":"infinite","isAuthor()":"2613","report()":"infinite","reported()":"2538","requestsToJoin(uint256)":"infinite"},"internal":{"checkChildChapter(address)":"2299","checkParentChapter(address)":"2299","isContract(address)":"2686"}},"methodIdentifiers":{"approveRequestToJoin(uint256)":"98b79628","authorsForReact(uint256)":"9d3ed807","authorsForSolidity(address)":"3e5690f4","chaptersForReact(uint256)":"b5202522","chaptersForSolidity(address)":"7f51aaf9","contribute()":"d7bb99ba","createChapter(string,string,address,address)":"992b11dc","createRequestToJoin(string)":"dfa14e23","dispenseRewards()":"3b6246c2","getChapters()":"9c636a0f","getSummary()":"4051ddac","isAuthor()":"5cf298fb","report()":"2606a10b","reported()":"5d1a870a","requestsToJoin(uint256)":"6fc6c579"}},"storageLayout":{"storage":[{"astId":118,"contract":"Story.sol:Story","label":"mainAuthor","offset":0,"slot":"0","type":"t_address"},{"astId":120,"contract":"Story.sol:Story","label":"title","offset":0,"slot":"1","type":"t_string_storage"},{"astId":122,"contract":"Story.sol:Story","label":"genre","offset":0,"slot":"2","type":"t_string_storage"},{"astId":124,"contract":"Story.sol:Story","label":"mainIdea","offset":0,"slot":"3","type":"t_string_storage"},{"astId":126,"contract":"Story.sol:Story","label":"coverPhoto","offset":0,"slot":"4","type":"t_string_storage"},{"astId":130,"contract":"Story.sol:Story","label":"authorsForSolidity","offset":0,"slot":"5","type":"t_mapping(t_address,t_bool)"},{"astId":133,"contract":"Story.sol:Story","label":"authorsForReact","offset":0,"slot":"6","type":"t_array(t_address)dyn_storage"},{"astId":137,"contract":"Story.sol:Story","label":"chaptersForSolidity","offset":0,"slot":"7","type":"t_mapping(t_address,t_bool)"},{"astId":140,"contract":"Story.sol:Story","label":"chaptersForReact","offset":0,"slot":"8","type":"t_array(t_address)dyn_storage"},{"astId":142,"contract":"Story.sol:Story","label":"_locked","offset":0,"slot":"9","type":"t_bool"},{"astId":146,"contract":"Story.sol:Story","label":"reporters","offset":0,"slot":"10","type":"t_mapping(t_address,t_bool)"},{"astId":148,"contract":"Story.sol:Story","label":"reportersCount","offset":0,"slot":"11","type":"t_uint256"},{"astId":150,"contract":"Story.sol:Story","label":"reported","offset":0,"slot":"12","type":"t_bool"},{"astId":169,"contract":"Story.sol:Story","label":"requestsToJoin","offset":0,"slot":"13","type":"t_array(t_struct(RequestToJoin)165_storage)dyn_storage"}],"types":{"t_address":{"encoding":"inplace","label":"address","numberOfBytes":"20"},"t_array(t_address)dyn_storage":{"base":"t_address","encoding":"dynamic_array","label":"address[]","numberOfBytes":"32"},"t_array(t_struct(RequestToJoin)165_storage)dyn_storage":{"base":"t_struct(RequestToJoin)165_storage","encoding":"dynamic_array","label":"struct Story.RequestToJoin[]","numberOfBytes":"32"},"t_bool":{"encoding":"inplace","label":"bool","numberOfBytes":"1"},"t_mapping(t_address,t_bool)":{"encoding":"mapping","key":"t_address","label":"mapping(address => bool)","numberOfBytes":"32","value":"t_bool"},"t_string_storage":{"encoding":"bytes","label":"string","numberOfBytes":"32"},"t_struct(RequestToJoin)165_storage":{"encoding":"inplace","label":"struct Story.RequestToJoin","members":[{"astId":152,"contract":"Story.sol:Story","label":"proposal","offset":0,"slot":"0","type":"t_string_storage"},{"astId":154,"contract":"Story.sol:Story","label":"timestamp","offset":0,"slot":"1","type":"t_uint256"},{"astId":156,"contract":"Story.sol:Story","label":"author","offset":0,"slot":"2","type":"t_address"},{"astId":160,"contract":"Story.sol:Story","label":"approvers","offset":0,"slot":"3","type":"t_mapping(t_address,t_bool)"},{"astId":162,"contract":"Story.sol:Story","label":"approversCount","offset":0,"slot":"4","type":"t_uint256"},{"astId":164,"contract":"Story.sol:Story","label":"status","offset":0,"slot":"5","type":"t_bool"}],"numberOfBytes":"192"},"t_uint256":{"encoding":"inplace","label":"uint256","numberOfBytes":"32"}}},"userdoc":{"kind":"user","methods":{},"version":1}}