{"abi":[{"inputs":[{"internalType":"address","name":"_mainAuthor","type":"address"},{"internalType":"string","name":"_title","type":"string"},{"internalType":"string","name":"_mainIdea","type":"string"},{"internalType":"string","name":"_coverPhoto","type":"string"}],"stateMutability":"payable","type":"constructor"},{"inputs":[{"internalType":"uint256","name":"_index","type":"uint256"}],"name":"approveRequestToBuy","outputs":[],"stateMutability":"payable","type":"function"},{"inputs":[{"internalType":"uint256","name":"_index","type":"uint256"}],"name":"approveRequestToJoin","outputs":[],"stateMutability":"nonpayable","type":"function"},{"inputs":[{"internalType":"uint256","name":"","type":"uint256"}],"name":"authorsForReact","outputs":[{"internalType":"address","name":"","type":"address"}],"stateMutability":"view","type":"function"},{"inputs":[{"internalType":"address","name":"","type":"address"}],"name":"authorsForSolidity","outputs":[{"internalType":"bool","name":"","type":"bool"}],"stateMutability":"view","type":"function"},{"inputs":[],"name":"bought","outputs":[{"internalType":"bool","name":"","type":"bool"}],"stateMutability":"view","type":"function"},{"inputs":[{"internalType":"uint256","name":"","type":"uint256"}],"name":"chaptersForReact","outputs":[{"internalType":"address","name":"","type":"address"}],"stateMutability":"view","type":"function"},{"inputs":[{"internalType":"address","name":"","type":"address"}],"name":"chaptersForSolidity","outputs":[{"internalType":"bool","name":"","type":"bool"}],"stateMutability":"view","type":"function"},{"inputs":[],"name":"coverPhoto","outputs":[{"internalType":"string","name":"","type":"string"}],"stateMutability":"view","type":"function"},{"inputs":[{"internalType":"string","name":"_title","type":"string"},{"internalType":"string","name":"_ipfsHash","type":"string"},{"internalType":"address","name":"_parentChapter","type":"address"},{"internalType":"address","name":"_childChapter","type":"address"}],"name":"createChapter","outputs":[],"stateMutability":"nonpayable","type":"function"},{"inputs":[],"name":"createRequestToBuy","outputs":[],"stateMutability":"payable","type":"function"},{"inputs":[{"internalType":"string","name":"_proposal","type":"string"}],"name":"createRequestToJoin","outputs":[],"stateMutability":"nonpayable","type":"function"},{"inputs":[],"name":"getSummary","outputs":[{"internalType":"string","name":"","type":"string"},{"internalType":"string","name":"","type":"string"},{"internalType":"address[]","name":"","type":"address[]"},{"internalType":"address[]","name":"","type":"address[]"},{"internalType":"uint256","name":"","type":"uint256"},{"internalType":"string","name":"","type":"string"},{"internalType":"uint256","name":"","type":"uint256"},{"internalType":"bool","name":"","type":"bool"},{"internalType":"address","name":"","type":"address"}],"stateMutability":"view","type":"function"},{"inputs":[],"name":"mainIdea","outputs":[{"internalType":"string","name":"","type":"string"}],"stateMutability":"view","type":"function"},{"inputs":[],"name":"owner","outputs":[{"internalType":"address","name":"","type":"address"}],"stateMutability":"view","type":"function"},{"inputs":[{"internalType":"uint256","name":"","type":"uint256"}],"name":"requestsToBuy","outputs":[{"internalType":"uint256","name":"price","type":"uint256"},{"internalType":"address","name":"bidder","type":"address"},{"internalType":"uint256","name":"approversCount","type":"uint256"},{"internalType":"bool","name":"status","type":"bool"}],"stateMutability":"view","type":"function"},{"inputs":[{"internalType":"uint256","name":"","type":"uint256"}],"name":"requestsToJoin","outputs":[{"internalType":"string","name":"proposal","type":"string"},{"internalType":"address","name":"author","type":"address"},{"internalType":"uint256","name":"approversCount","type":"uint256"},{"internalType":"bool","name":"status","type":"bool"}],"stateMutability":"view","type":"function"},{"inputs":[],"name":"title","outputs":[{"internalType":"string","name":"","type":"string"}],"stateMutability":"view","type":"function"}],"devdoc":{"kind":"dev","methods":{},"version":1},"evm":{"assembly":"    /* \"Story.sol\":745:7322  contract Story {... */\n  mstore(0x40, 0x80)\n    /* \"Story.sol\":1869:2199  constructor(address _mainAuthor, string memory _title, string memory _mainIdea, string memory _coverPhoto) payable{... */\n  mload(0x40)\n  sub(codesize, bytecodeSize)\n  dup1\n  bytecodeSize\n  dup4\n  codecopy\n  dup2\n  dup2\n  add\n  0x40\n  mstore\n  dup2\n  add\n  swap1\n  tag_1\n  swap2\n  swap1\n  tag_2\n  jump\t// in\ntag_1:\n    /* \"Story.sol\":2032:2036  true */\n  0x01\n    /* \"Story.sol\":1998:2016  authorsForSolidity */\n  0x04\n    /* \"Story.sol\":1998:2029  authorsForSolidity[_mainAuthor] */\n  0x00\n    /* \"Story.sol\":2017:2028  _mainAuthor */\n  dup7\n    /* \"Story.sol\":1998:2029  authorsForSolidity[_mainAuthor] */\n  0xffffffffffffffffffffffffffffffffffffffff\n  and\n  0xffffffffffffffffffffffffffffffffffffffff\n  and\n  dup2\n  mstore\n  0x20\n  add\n  swap1\n  dup2\n  mstore\n  0x20\n  add\n  0x00\n  keccak256\n  0x00\n    /* \"Story.sol\":1998:2036  authorsForSolidity[_mainAuthor] = true */\n  0x0100\n  exp\n  dup2\n  sload\n  dup2\n  0xff\n  mul\n  not\n  and\n  swap1\n  dup4\n  iszero\n  iszero\n  mul\n  or\n  swap1\n  sstore\n  pop\n    /* \"Story.sol\":2051:2066  authorsForReact */\n  0x05\n    /* \"Story.sol\":2072:2083  _mainAuthor */\n  dup5\n    /* \"Story.sol\":2051:2084  authorsForReact.push(_mainAuthor) */\n  swap1\n  dup1\n  0x01\n  dup2\n  sload\n  add\n  dup1\n  dup3\n  sstore\n  dup1\n  swap2\n  pop\n  pop\n  0x01\n  swap1\n  sub\n  swap1\n  0x00\n  mstore\n  keccak256(0x00, 0x20)\n  add\n  0x00\n  swap1\n  swap2\n  swap1\n  swap2\n  swap1\n  swap2\n  0x0100\n  exp\n  dup2\n  sload\n  dup2\n  0xffffffffffffffffffffffffffffffffffffffff\n  mul\n  not\n  and\n  swap1\n  dup4\n  0xffffffffffffffffffffffffffffffffffffffff\n  and\n  mul\n  or\n  swap1\n  sstore\n  pop\n    /* \"Story.sol\":2107:2113  _title */\n  dup3\n    /* \"Story.sol\":2099:2104  title */\n  0x00\n    /* \"Story.sol\":2099:2113  title = _title */\n  swap1\n  dup1\n  mload\n  swap1\n  0x20\n  add\n  swap1\n  tag_6\n  swap3\n  swap2\n  swap1\n  tag_7\n  jump\t// in\ntag_6:\n  pop\n    /* \"Story.sol\":2139:2148  _mainIdea */\n  dup2\n    /* \"Story.sol\":2128:2136  mainIdea */\n  0x01\n    /* \"Story.sol\":2128:2148  mainIdea = _mainIdea */\n  swap1\n  dup1\n  mload\n  swap1\n  0x20\n  add\n  swap1\n  tag_8\n  swap3\n  swap2\n  swap1\n  tag_7\n  jump\t// in\ntag_8:\n  pop\n    /* \"Story.sol\":2176:2187  _coverPhoto */\n  dup1\n    /* \"Story.sol\":2163:2173  coverPhoto */\n  0x02\n    /* \"Story.sol\":2163:2187  coverPhoto = _coverPhoto */\n  swap1\n  dup1\n  mload\n  swap1\n  0x20\n  add\n  swap1\n  tag_9\n  swap3\n  swap2\n  swap1\n  tag_7\n  jump\t// in\ntag_9:\n  pop\n    /* \"Story.sol\":1869:2199  constructor(address _mainAuthor, string memory _title, string memory _mainIdea, string memory _coverPhoto) payable{... */\n  pop\n  pop\n  pop\n  pop\n    /* \"Story.sol\":745:7322  contract Story {... */\n  jump(tag_10)\ntag_7:\n  dup3\n  dup1\n  sload\n  tag_11\n  swap1\n  tag_12\n  jump\t// in\ntag_11:\n  swap1\n  0x00\n  mstore\n  keccak256(0x00, 0x20)\n  swap1\n  0x1f\n  add\n  0x20\n  swap1\n  div\n  dup2\n  add\n  swap3\n  dup3\n  tag_14\n  jumpi\n  0x00\n  dup6\n  sstore\n  jump(tag_13)\ntag_14:\n  dup3\n  0x1f\n  lt\n  tag_15\n  jumpi\n  dup1\n  mload\n  not(0xff)\n  and\n  dup4\n  dup1\n  add\n  or\n  dup6\n  sstore\n  jump(tag_13)\ntag_15:\n  dup3\n  dup1\n  add\n  0x01\n  add\n  dup6\n  sstore\n  dup3\n  iszero\n  tag_13\n  jumpi\n  swap2\n  dup3\n  add\ntag_16:\n  dup3\n  dup2\n  gt\n  iszero\n  tag_17\n  jumpi\n  dup3\n  mload\n  dup3\n  sstore\n  swap2\n  0x20\n  add\n  swap2\n  swap1\n  0x01\n  add\n  swap1\n  jump(tag_16)\ntag_17:\ntag_13:\n  pop\n  swap1\n  pop\n  tag_18\n  swap2\n  swap1\n  tag_19\n  jump\t// in\ntag_18:\n  pop\n  swap1\n  jump\t// out\ntag_19:\ntag_20:\n  dup1\n  dup3\n  gt\n  iszero\n  tag_21\n  jumpi\n  0x00\n  dup2\n  0x00\n  swap1\n  sstore\n  pop\n  0x01\n  add\n  jump(tag_20)\ntag_21:\n  pop\n  swap1\n  jump\t// out\n    /* \"#utility.yul\":7:82   */\ntag_22:\n    /* \"#utility.yul\":40:46   */\n  0x00\n    /* \"#utility.yul\":73:75   */\n  0x40\n    /* \"#utility.yul\":67:76   */\n  mload\n    /* \"#utility.yul\":57:76   */\n  swap1\n  pop\n    /* \"#utility.yul\":7:82   */\n  swap1\n  jump\t// out\n    /* \"#utility.yul\":88:205   */\ntag_23:\n    /* \"#utility.yul\":197:198   */\n  0x00\n    /* \"#utility.yul\":194:195   */\n  dup1\n    /* \"#utility.yul\":187:199   */\n  revert\n    /* \"#utility.yul\":211:328   */\ntag_24:\n    /* \"#utility.yul\":320:321   */\n  0x00\n    /* \"#utility.yul\":317:318   */\n  dup1\n    /* \"#utility.yul\":310:322   */\n  revert\n    /* \"#utility.yul\":334:460   */\ntag_25:\n    /* \"#utility.yul\":371:378   */\n  0x00\n    /* \"#utility.yul\":411:453   */\n  0xffffffffffffffffffffffffffffffffffffffff\n    /* \"#utility.yul\":404:409   */\n  dup3\n    /* \"#utility.yul\":400:454   */\n  and\n    /* \"#utility.yul\":389:454   */\n  swap1\n  pop\n    /* \"#utility.yul\":334:460   */\n  swap2\n  swap1\n  pop\n  jump\t// out\n    /* \"#utility.yul\":466:562   */\ntag_26:\n    /* \"#utility.yul\":503:510   */\n  0x00\n    /* \"#utility.yul\":532:556   */\n  tag_46\n    /* \"#utility.yul\":550:555   */\n  dup3\n    /* \"#utility.yul\":532:556   */\n  tag_25\n  jump\t// in\ntag_46:\n    /* \"#utility.yul\":521:556   */\n  swap1\n  pop\n    /* \"#utility.yul\":466:562   */\n  swap2\n  swap1\n  pop\n  jump\t// out\n    /* \"#utility.yul\":568:690   */\ntag_27:\n    /* \"#utility.yul\":641:665   */\n  tag_48\n    /* \"#utility.yul\":659:664   */\n  dup2\n    /* \"#utility.yul\":641:665   */\n  tag_26\n  jump\t// in\ntag_48:\n    /* \"#utility.yul\":634:639   */\n  dup2\n    /* \"#utility.yul\":631:666   */\n  eq\n    /* \"#utility.yul\":621:684   */\n  tag_49\n  jumpi\n    /* \"#utility.yul\":680:681   */\n  0x00\n    /* \"#utility.yul\":677:678   */\n  dup1\n    /* \"#utility.yul\":670:682   */\n  revert\n    /* \"#utility.yul\":621:684   */\ntag_49:\n    /* \"#utility.yul\":568:690   */\n  pop\n  jump\t// out\n    /* \"#utility.yul\":696:839   */\ntag_28:\n    /* \"#utility.yul\":753:758   */\n  0x00\n    /* \"#utility.yul\":784:790   */\n  dup2\n    /* \"#utility.yul\":778:791   */\n  mload\n    /* \"#utility.yul\":769:791   */\n  swap1\n  pop\n    /* \"#utility.yul\":800:833   */\n  tag_51\n    /* \"#utility.yul\":827:832   */\n  dup2\n    /* \"#utility.yul\":800:833   */\n  tag_27\n  jump\t// in\ntag_51:\n    /* \"#utility.yul\":696:839   */\n  swap3\n  swap2\n  pop\n  pop\n  jump\t// out\n    /* \"#utility.yul\":845:962   */\ntag_29:\n    /* \"#utility.yul\":954:955   */\n  0x00\n    /* \"#utility.yul\":951:952   */\n  dup1\n    /* \"#utility.yul\":944:956   */\n  revert\n    /* \"#utility.yul\":968:1085   */\ntag_30:\n    /* \"#utility.yul\":1077:1078   */\n  0x00\n    /* \"#utility.yul\":1074:1075   */\n  dup1\n    /* \"#utility.yul\":1067:1079   */\n  revert\n    /* \"#utility.yul\":1091:1193   */\ntag_31:\n    /* \"#utility.yul\":1132:1138   */\n  0x00\n    /* \"#utility.yul\":1183:1185   */\n  0x1f\n    /* \"#utility.yul\":1179:1186   */\n  not\n    /* \"#utility.yul\":1174:1176   */\n  0x1f\n    /* \"#utility.yul\":1167:1172   */\n  dup4\n    /* \"#utility.yul\":1163:1177   */\n  add\n    /* \"#utility.yul\":1159:1187   */\n  and\n    /* \"#utility.yul\":1149:1187   */\n  swap1\n  pop\n    /* \"#utility.yul\":1091:1193   */\n  swap2\n  swap1\n  pop\n  jump\t// out\n    /* \"#utility.yul\":1199:1379   */\ntag_32:\n    /* \"#utility.yul\":1247:1324   */\n  0x4e487b7100000000000000000000000000000000000000000000000000000000\n    /* \"#utility.yul\":1244:1245   */\n  0x00\n    /* \"#utility.yul\":1237:1325   */\n  mstore\n    /* \"#utility.yul\":1344:1348   */\n  0x41\n    /* \"#utility.yul\":1341:1342   */\n  0x04\n    /* \"#utility.yul\":1334:1349   */\n  mstore\n    /* \"#utility.yul\":1368:1372   */\n  0x24\n    /* \"#utility.yul\":1365:1366   */\n  0x00\n    /* \"#utility.yul\":1358:1373   */\n  revert\n    /* \"#utility.yul\":1385:1666   */\ntag_33:\n    /* \"#utility.yul\":1468:1495   */\n  tag_57\n    /* \"#utility.yul\":1490:1494   */\n  dup3\n    /* \"#utility.yul\":1468:1495   */\n  tag_31\n  jump\t// in\ntag_57:\n    /* \"#utility.yul\":1460:1466   */\n  dup2\n    /* \"#utility.yul\":1456:1496   */\n  add\n    /* \"#utility.yul\":1598:1604   */\n  dup2\n    /* \"#utility.yul\":1586:1596   */\n  dup2\n    /* \"#utility.yul\":1583:1605   */\n  lt\n    /* \"#utility.yul\":1562:1580   */\n  0xffffffffffffffff\n    /* \"#utility.yul\":1550:1560   */\n  dup3\n    /* \"#utility.yul\":1547:1581   */\n  gt\n    /* \"#utility.yul\":1544:1606   */\n  or\n    /* \"#utility.yul\":1541:1629   */\n  iszero\n  tag_58\n  jumpi\n    /* \"#utility.yul\":1609:1627   */\n  tag_59\n  tag_32\n  jump\t// in\ntag_59:\n    /* \"#utility.yul\":1541:1629   */\ntag_58:\n    /* \"#utility.yul\":1649:1659   */\n  dup1\n    /* \"#utility.yul\":1645:1647   */\n  0x40\n    /* \"#utility.yul\":1638:1660   */\n  mstore\n    /* \"#utility.yul\":1428:1666   */\n  pop\n    /* \"#utility.yul\":1385:1666   */\n  pop\n  pop\n  jump\t// out\n    /* \"#utility.yul\":1672:1801   */\ntag_34:\n    /* \"#utility.yul\":1706:1712   */\n  0x00\n    /* \"#utility.yul\":1733:1753   */\n  tag_61\n  tag_22\n  jump\t// in\ntag_61:\n    /* \"#utility.yul\":1723:1753   */\n  swap1\n  pop\n    /* \"#utility.yul\":1762:1795   */\n  tag_62\n    /* \"#utility.yul\":1790:1794   */\n  dup3\n    /* \"#utility.yul\":1782:1788   */\n  dup3\n    /* \"#utility.yul\":1762:1795   */\n  tag_33\n  jump\t// in\ntag_62:\n    /* \"#utility.yul\":1672:1801   */\n  swap2\n  swap1\n  pop\n  jump\t// out\n    /* \"#utility.yul\":1807:2115   */\ntag_35:\n    /* \"#utility.yul\":1869:1873   */\n  0x00\n    /* \"#utility.yul\":1959:1977   */\n  0xffffffffffffffff\n    /* \"#utility.yul\":1951:1957   */\n  dup3\n    /* \"#utility.yul\":1948:1978   */\n  gt\n    /* \"#utility.yul\":1945:2001   */\n  iszero\n  tag_64\n  jumpi\n    /* \"#utility.yul\":1981:1999   */\n  tag_65\n  tag_32\n  jump\t// in\ntag_65:\n    /* \"#utility.yul\":1945:2001   */\ntag_64:\n    /* \"#utility.yul\":2019:2048   */\n  tag_66\n    /* \"#utility.yul\":2041:2047   */\n  dup3\n    /* \"#utility.yul\":2019:2048   */\n  tag_31\n  jump\t// in\ntag_66:\n    /* \"#utility.yul\":2011:2048   */\n  swap1\n  pop\n    /* \"#utility.yul\":2103:2107   */\n  0x20\n    /* \"#utility.yul\":2097:2101   */\n  dup2\n    /* \"#utility.yul\":2093:2108   */\n  add\n    /* \"#utility.yul\":2085:2108   */\n  swap1\n  pop\n    /* \"#utility.yul\":1807:2115   */\n  swap2\n  swap1\n  pop\n  jump\t// out\n    /* \"#utility.yul\":2121:2428   */\ntag_36:\n    /* \"#utility.yul\":2189:2190   */\n  0x00\n    /* \"#utility.yul\":2199:2312   */\ntag_68:\n    /* \"#utility.yul\":2213:2219   */\n  dup4\n    /* \"#utility.yul\":2210:2211   */\n  dup2\n    /* \"#utility.yul\":2207:2220   */\n  lt\n    /* \"#utility.yul\":2199:2312   */\n  iszero\n  tag_70\n  jumpi\n    /* \"#utility.yul\":2298:2299   */\n  dup1\n    /* \"#utility.yul\":2293:2296   */\n  dup3\n    /* \"#utility.yul\":2289:2300   */\n  add\n    /* \"#utility.yul\":2283:2301   */\n  mload\n    /* \"#utility.yul\":2279:2280   */\n  dup2\n    /* \"#utility.yul\":2274:2277   */\n  dup5\n    /* \"#utility.yul\":2270:2281   */\n  add\n    /* \"#utility.yul\":2263:2302   */\n  mstore\n    /* \"#utility.yul\":2235:2237   */\n  0x20\n    /* \"#utility.yul\":2232:2233   */\n  dup2\n    /* \"#utility.yul\":2228:2238   */\n  add\n    /* \"#utility.yul\":2223:2238   */\n  swap1\n  pop\n    /* \"#utility.yul\":2199:2312   */\n  jump(tag_68)\ntag_70:\n    /* \"#utility.yul\":2330:2336   */\n  dup4\n    /* \"#utility.yul\":2327:2328   */\n  dup2\n    /* \"#utility.yul\":2324:2337   */\n  gt\n    /* \"#utility.yul\":2321:2422   */\n  iszero\n  tag_71\n  jumpi\n    /* \"#utility.yul\":2410:2411   */\n  0x00\n    /* \"#utility.yul\":2401:2407   */\n  dup5\n    /* \"#utility.yul\":2396:2399   */\n  dup5\n    /* \"#utility.yul\":2392:2408   */\n  add\n    /* \"#utility.yul\":2385:2412   */\n  mstore\n    /* \"#utility.yul\":2321:2422   */\ntag_71:\n    /* \"#utility.yul\":2170:2428   */\n  pop\n    /* \"#utility.yul\":2121:2428   */\n  pop\n  pop\n  pop\n  jump\t// out\n    /* \"#utility.yul\":2434:2855   */\ntag_37:\n    /* \"#utility.yul\":2523:2528   */\n  0x00\n    /* \"#utility.yul\":2548:2614   */\n  tag_73\n    /* \"#utility.yul\":2564:2613   */\n  tag_74\n    /* \"#utility.yul\":2606:2612   */\n  dup5\n    /* \"#utility.yul\":2564:2613   */\n  tag_35\n  jump\t// in\ntag_74:\n    /* \"#utility.yul\":2548:2614   */\n  tag_34\n  jump\t// in\ntag_73:\n    /* \"#utility.yul\":2539:2614   */\n  swap1\n  pop\n    /* \"#utility.yul\":2637:2643   */\n  dup3\n    /* \"#utility.yul\":2630:2635   */\n  dup2\n    /* \"#utility.yul\":2623:2644   */\n  mstore\n    /* \"#utility.yul\":2675:2679   */\n  0x20\n    /* \"#utility.yul\":2668:2673   */\n  dup2\n    /* \"#utility.yul\":2664:2680   */\n  add\n    /* \"#utility.yul\":2713:2716   */\n  dup5\n    /* \"#utility.yul\":2704:2710   */\n  dup5\n    /* \"#utility.yul\":2699:2702   */\n  dup5\n    /* \"#utility.yul\":2695:2711   */\n  add\n    /* \"#utility.yul\":2692:2717   */\n  gt\n    /* \"#utility.yul\":2689:2801   */\n  iszero\n  tag_75\n  jumpi\n    /* \"#utility.yul\":2720:2799   */\n  tag_76\n  tag_30\n  jump\t// in\ntag_76:\n    /* \"#utility.yul\":2689:2801   */\ntag_75:\n    /* \"#utility.yul\":2810:2849   */\n  tag_77\n    /* \"#utility.yul\":2842:2848   */\n  dup5\n    /* \"#utility.yul\":2837:2840   */\n  dup3\n    /* \"#utility.yul\":2832:2835   */\n  dup6\n    /* \"#utility.yul\":2810:2849   */\n  tag_36\n  jump\t// in\ntag_77:\n    /* \"#utility.yul\":2529:2855   */\n  pop\n    /* \"#utility.yul\":2434:2855   */\n  swap4\n  swap3\n  pop\n  pop\n  pop\n  jump\t// out\n    /* \"#utility.yul\":2875:3230   */\ntag_38:\n    /* \"#utility.yul\":2942:2947   */\n  0x00\n    /* \"#utility.yul\":2991:2994   */\n  dup3\n    /* \"#utility.yul\":2984:2988   */\n  0x1f\n    /* \"#utility.yul\":2976:2982   */\n  dup4\n    /* \"#utility.yul\":2972:2989   */\n  add\n    /* \"#utility.yul\":2968:2995   */\n  slt\n    /* \"#utility.yul\":2958:3080   */\n  tag_79\n  jumpi\n    /* \"#utility.yul\":2999:3078   */\n  tag_80\n  tag_29\n  jump\t// in\ntag_80:\n    /* \"#utility.yul\":2958:3080   */\ntag_79:\n    /* \"#utility.yul\":3109:3115   */\n  dup2\n    /* \"#utility.yul\":3103:3116   */\n  mload\n    /* \"#utility.yul\":3134:3224   */\n  tag_81\n    /* \"#utility.yul\":3220:3223   */\n  dup5\n    /* \"#utility.yul\":3212:3218   */\n  dup3\n    /* \"#utility.yul\":3205:3209   */\n  0x20\n    /* \"#utility.yul\":3197:3203   */\n  dup7\n    /* \"#utility.yul\":3193:3210   */\n  add\n    /* \"#utility.yul\":3134:3224   */\n  tag_37\n  jump\t// in\ntag_81:\n    /* \"#utility.yul\":3125:3224   */\n  swap2\n  pop\n    /* \"#utility.yul\":2948:3230   */\n  pop\n    /* \"#utility.yul\":2875:3230   */\n  swap3\n  swap2\n  pop\n  pop\n  jump\t// out\n    /* \"#utility.yul\":3236:4575   */\ntag_2:\n    /* \"#utility.yul\":3363:3369   */\n  0x00\n    /* \"#utility.yul\":3371:3377   */\n  dup1\n    /* \"#utility.yul\":3379:3385   */\n  0x00\n    /* \"#utility.yul\":3387:3393   */\n  dup1\n    /* \"#utility.yul\":3436:3439   */\n  0x80\n    /* \"#utility.yul\":3424:3433   */\n  dup6\n    /* \"#utility.yul\":3415:3422   */\n  dup8\n    /* \"#utility.yul\":3411:3434   */\n  sub\n    /* \"#utility.yul\":3407:3440   */\n  slt\n    /* \"#utility.yul\":3404:3524   */\n  iszero\n  tag_83\n  jumpi\n    /* \"#utility.yul\":3443:3522   */\n  tag_84\n  tag_23\n  jump\t// in\ntag_84:\n    /* \"#utility.yul\":3404:3524   */\ntag_83:\n    /* \"#utility.yul\":3563:3564   */\n  0x00\n    /* \"#utility.yul\":3588:3652   */\n  tag_85\n    /* \"#utility.yul\":3644:3651   */\n  dup8\n    /* \"#utility.yul\":3635:3641   */\n  dup3\n    /* \"#utility.yul\":3624:3633   */\n  dup9\n    /* \"#utility.yul\":3620:3642   */\n  add\n    /* \"#utility.yul\":3588:3652   */\n  tag_28\n  jump\t// in\ntag_85:\n    /* \"#utility.yul\":3578:3652   */\n  swap5\n  pop\n    /* \"#utility.yul\":3534:3662   */\n  pop\n    /* \"#utility.yul\":3722:3724   */\n  0x20\n    /* \"#utility.yul\":3711:3720   */\n  dup6\n    /* \"#utility.yul\":3707:3725   */\n  add\n    /* \"#utility.yul\":3701:3726   */\n  mload\n    /* \"#utility.yul\":3753:3771   */\n  0xffffffffffffffff\n    /* \"#utility.yul\":3745:3751   */\n  dup2\n    /* \"#utility.yul\":3742:3772   */\n  gt\n    /* \"#utility.yul\":3739:3856   */\n  iszero\n  tag_86\n  jumpi\n    /* \"#utility.yul\":3775:3854   */\n  tag_87\n  tag_24\n  jump\t// in\ntag_87:\n    /* \"#utility.yul\":3739:3856   */\ntag_86:\n    /* \"#utility.yul\":3880:3954   */\n  tag_88\n    /* \"#utility.yul\":3946:3953   */\n  dup8\n    /* \"#utility.yul\":3937:3943   */\n  dup3\n    /* \"#utility.yul\":3926:3935   */\n  dup9\n    /* \"#utility.yul\":3922:3944   */\n  add\n    /* \"#utility.yul\":3880:3954   */\n  tag_38\n  jump\t// in\ntag_88:\n    /* \"#utility.yul\":3870:3954   */\n  swap4\n  pop\n    /* \"#utility.yul\":3672:3964   */\n  pop\n    /* \"#utility.yul\":4024:4026   */\n  0x40\n    /* \"#utility.yul\":4013:4022   */\n  dup6\n    /* \"#utility.yul\":4009:4027   */\n  add\n    /* \"#utility.yul\":4003:4028   */\n  mload\n    /* \"#utility.yul\":4055:4073   */\n  0xffffffffffffffff\n    /* \"#utility.yul\":4047:4053   */\n  dup2\n    /* \"#utility.yul\":4044:4074   */\n  gt\n    /* \"#utility.yul\":4041:4158   */\n  iszero\n  tag_89\n  jumpi\n    /* \"#utility.yul\":4077:4156   */\n  tag_90\n  tag_24\n  jump\t// in\ntag_90:\n    /* \"#utility.yul\":4041:4158   */\ntag_89:\n    /* \"#utility.yul\":4182:4256   */\n  tag_91\n    /* \"#utility.yul\":4248:4255   */\n  dup8\n    /* \"#utility.yul\":4239:4245   */\n  dup3\n    /* \"#utility.yul\":4228:4237   */\n  dup9\n    /* \"#utility.yul\":4224:4246   */\n  add\n    /* \"#utility.yul\":4182:4256   */\n  tag_38\n  jump\t// in\ntag_91:\n    /* \"#utility.yul\":4172:4256   */\n  swap3\n  pop\n    /* \"#utility.yul\":3974:4266   */\n  pop\n    /* \"#utility.yul\":4326:4328   */\n  0x60\n    /* \"#utility.yul\":4315:4324   */\n  dup6\n    /* \"#utility.yul\":4311:4329   */\n  add\n    /* \"#utility.yul\":4305:4330   */\n  mload\n    /* \"#utility.yul\":4357:4375   */\n  0xffffffffffffffff\n    /* \"#utility.yul\":4349:4355   */\n  dup2\n    /* \"#utility.yul\":4346:4376   */\n  gt\n    /* \"#utility.yul\":4343:4460   */\n  iszero\n  tag_92\n  jumpi\n    /* \"#utility.yul\":4379:4458   */\n  tag_93\n  tag_24\n  jump\t// in\ntag_93:\n    /* \"#utility.yul\":4343:4460   */\ntag_92:\n    /* \"#utility.yul\":4484:4558   */\n  tag_94\n    /* \"#utility.yul\":4550:4557   */\n  dup8\n    /* \"#utility.yul\":4541:4547   */\n  dup3\n    /* \"#utility.yul\":4530:4539   */\n  dup9\n    /* \"#utility.yul\":4526:4548   */\n  add\n    /* \"#utility.yul\":4484:4558   */\n  tag_38\n  jump\t// in\ntag_94:\n    /* \"#utility.yul\":4474:4558   */\n  swap2\n  pop\n    /* \"#utility.yul\":4276:4568   */\n  pop\n    /* \"#utility.yul\":3236:4575   */\n  swap3\n  swap6\n  swap2\n  swap5\n  pop\n  swap3\n  pop\n  jump\t// out\n    /* \"#utility.yul\":4581:4761   */\ntag_39:\n    /* \"#utility.yul\":4629:4706   */\n  0x4e487b7100000000000000000000000000000000000000000000000000000000\n    /* \"#utility.yul\":4626:4627   */\n  0x00\n    /* \"#utility.yul\":4619:4707   */\n  mstore\n    /* \"#utility.yul\":4726:4730   */\n  0x22\n    /* \"#utility.yul\":4723:4724   */\n  0x04\n    /* \"#utility.yul\":4716:4731   */\n  mstore\n    /* \"#utility.yul\":4750:4754   */\n  0x24\n    /* \"#utility.yul\":4747:4748   */\n  0x00\n    /* \"#utility.yul\":4740:4755   */\n  revert\n    /* \"#utility.yul\":4767:5087   */\ntag_12:\n    /* \"#utility.yul\":4811:4817   */\n  0x00\n    /* \"#utility.yul\":4848:4849   */\n  0x02\n    /* \"#utility.yul\":4842:4846   */\n  dup3\n    /* \"#utility.yul\":4838:4850   */\n  div\n    /* \"#utility.yul\":4828:4850   */\n  swap1\n  pop\n    /* \"#utility.yul\":4895:4896   */\n  0x01\n    /* \"#utility.yul\":4889:4893   */\n  dup3\n    /* \"#utility.yul\":4885:4897   */\n  and\n    /* \"#utility.yul\":4916:4934   */\n  dup1\n    /* \"#utility.yul\":4906:4987   */\n  tag_97\n  jumpi\n    /* \"#utility.yul\":4972:4976   */\n  0x7f\n    /* \"#utility.yul\":4964:4970   */\n  dup3\n    /* \"#utility.yul\":4960:4977   */\n  and\n    /* \"#utility.yul\":4950:4977   */\n  swap2\n  pop\n    /* \"#utility.yul\":4906:4987   */\ntag_97:\n    /* \"#utility.yul\":5034:5036   */\n  0x20\n    /* \"#utility.yul\":5026:5032   */\n  dup3\n    /* \"#utility.yul\":5023:5037   */\n  lt\n    /* \"#utility.yul\":5003:5021   */\n  dup2\n    /* \"#utility.yul\":5000:5038   */\n  eq\n    /* \"#utility.yul\":4997:5081   */\n  iszero\n  tag_98\n  jumpi\n    /* \"#utility.yul\":5053:5071   */\n  tag_99\n  tag_39\n  jump\t// in\ntag_99:\n    /* \"#utility.yul\":4997:5081   */\ntag_98:\n    /* \"#utility.yul\":4818:5087   */\n  pop\n    /* \"#utility.yul\":4767:5087   */\n  swap2\n  swap1\n  pop\n  jump\t// out\n    /* \"Story.sol\":745:7322  contract Story {... */\ntag_10:\n  dataSize(sub_0)\n  dup1\n  dataOffset(sub_0)\n  0x00\n  codecopy\n  0x00\n  return\nstop\n\nsub_0: assembly {\n        /* \"Story.sol\":745:7322  contract Story {... */\n      mstore(0x40, 0x80)\n      jumpi(tag_1, lt(calldatasize, 0x04))\n      shr(0xe0, calldataload(0x00))\n      dup1\n      0x7f51aaf9\n      gt\n      tag_19\n      jumpi\n      dup1\n      0x9d3ed807\n      gt\n      tag_20\n      jumpi\n      dup1\n      0x9d3ed807\n      eq\n      tag_14\n      jumpi\n      dup1\n      0xb5202522\n      eq\n      tag_15\n      jumpi\n      dup1\n      0xd5ac2a87\n      eq\n      tag_16\n      jumpi\n      dup1\n      0xdfa14e23\n      eq\n      tag_17\n      jumpi\n      dup1\n      0xe8ae38e4\n      eq\n      tag_18\n      jumpi\n      jump(tag_1)\n    tag_20:\n      dup1\n      0x7f51aaf9\n      eq\n      tag_10\n      jumpi\n      dup1\n      0x8da5cb5b\n      eq\n      tag_11\n      jumpi\n      dup1\n      0x98b79628\n      eq\n      tag_12\n      jumpi\n      dup1\n      0x992b11dc\n      eq\n      tag_13\n      jumpi\n      jump(tag_1)\n    tag_19:\n      dup1\n      0x497c9419\n      gt\n      tag_21\n      jumpi\n      dup1\n      0x497c9419\n      eq\n      tag_6\n      jumpi\n      dup1\n      0x4a79d50c\n      eq\n      tag_7\n      jumpi\n      dup1\n      0x6c0a6656\n      eq\n      tag_8\n      jumpi\n      dup1\n      0x6fc6c579\n      eq\n      tag_9\n      jumpi\n      jump(tag_1)\n    tag_21:\n      dup1\n      0x14a7585d\n      eq\n      tag_2\n      jumpi\n      dup1\n      0x34976b9b\n      eq\n      tag_3\n      jumpi\n      dup1\n      0x3e5690f4\n      eq\n      tag_4\n      jumpi\n      dup1\n      0x4051ddac\n      eq\n      tag_5\n      jumpi\n    tag_1:\n      0x00\n      dup1\n      revert\n        /* \"Story.sol\":2211:2519  function createRequestToBuy() public payable noReentrancy { //make price in wei... */\n    tag_2:\n      tag_22\n      tag_23\n      jump\t// in\n    tag_22:\n      stop\n        /* \"Story.sol\":1663:1681  bool public bought */\n    tag_3:\n      callvalue\n      dup1\n      iszero\n      tag_24\n      jumpi\n      0x00\n      dup1\n      revert\n    tag_24:\n      pop\n      tag_25\n      tag_26\n      jump\t// in\n    tag_25:\n      mload(0x40)\n      tag_27\n      swap2\n      swap1\n      tag_28\n      jump\t// in\n    tag_27:\n      mload(0x40)\n      dup1\n      swap2\n      sub\n      swap1\n      return\n        /* \"Story.sol\":902:952  mapping(address => bool) public authorsForSolidity */\n    tag_4:\n      callvalue\n      dup1\n      iszero\n      tag_29\n      jumpi\n      0x00\n      dup1\n      revert\n    tag_29:\n      pop\n      tag_30\n      0x04\n      dup1\n      calldatasize\n      sub\n      dup2\n      add\n      swap1\n      tag_31\n      swap2\n      swap1\n      tag_32\n      jump\t// in\n    tag_31:\n      tag_33\n      jump\t// in\n    tag_30:\n      mload(0x40)\n      tag_34\n      swap2\n      swap1\n      tag_28\n      jump\t// in\n    tag_34:\n      mload(0x40)\n      dup1\n      swap2\n      sub\n      swap1\n      return\n        /* \"Story.sol\":6822:7313  function getSummary() public view returns (... */\n    tag_5:\n      callvalue\n      dup1\n      iszero\n      tag_35\n      jumpi\n      0x00\n      dup1\n      revert\n    tag_35:\n      pop\n      tag_36\n      tag_37\n      jump\t// in\n    tag_36:\n      mload(0x40)\n      tag_38\n      swap10\n      swap9\n      swap8\n      swap7\n      swap6\n      swap5\n      swap4\n      swap3\n      swap2\n      swap1\n      tag_39\n      jump\t// in\n    tag_38:\n      mload(0x40)\n      dup1\n      swap2\n      sub\n      swap1\n      return\n        /* \"Story.sol\":2529:4151  function approveRequestToBuy(uint256 _index) public payable noReentrancy {... */\n    tag_6:\n      tag_40\n      0x04\n      dup1\n      calldatasize\n      sub\n      dup2\n      add\n      swap1\n      tag_41\n      swap2\n      swap1\n      tag_42\n      jump\t// in\n    tag_41:\n      tag_43\n      jump\t// in\n    tag_40:\n      stop\n        /* \"Story.sol\":771:790  string public title */\n    tag_7:\n      callvalue\n      dup1\n      iszero\n      tag_44\n      jumpi\n      0x00\n      dup1\n      revert\n    tag_44:\n      pop\n      tag_45\n      tag_46\n      jump\t// in\n    tag_45:\n      mload(0x40)\n      tag_47\n      swap2\n      swap1\n      tag_48\n      jump\t// in\n    tag_47:\n      mload(0x40)\n      dup1\n      swap2\n      sub\n      swap1\n      return\n        /* \"Story.sol\":1584:1619  RequestToBuy[] public requestsToBuy */\n    tag_8:\n      callvalue\n      dup1\n      iszero\n      tag_49\n      jumpi\n      0x00\n      dup1\n      revert\n    tag_49:\n      pop\n      tag_50\n      0x04\n      dup1\n      calldatasize\n      sub\n      dup2\n      add\n      swap1\n      tag_51\n      swap2\n      swap1\n      tag_42\n      jump\t// in\n    tag_51:\n      tag_52\n      jump\t// in\n    tag_50:\n      mload(0x40)\n      tag_53\n      swap5\n      swap4\n      swap3\n      swap2\n      swap1\n      tag_54\n      jump\t// in\n    tag_53:\n      mload(0x40)\n      dup1\n      swap2\n      sub\n      swap1\n      return\n        /* \"Story.sol\":1327:1364  RequestToJoin[] public requestsToJoin */\n    tag_9:\n      callvalue\n      dup1\n      iszero\n      tag_55\n      jumpi\n      0x00\n      dup1\n      revert\n    tag_55:\n      pop\n      tag_56\n      0x04\n      dup1\n      calldatasize\n      sub\n      dup2\n      add\n      swap1\n      tag_57\n      swap2\n      swap1\n      tag_42\n      jump\t// in\n    tag_57:\n      tag_58\n      jump\t// in\n    tag_56:\n      mload(0x40)\n      tag_59\n      swap5\n      swap4\n      swap3\n      swap2\n      swap1\n      tag_60\n      jump\t// in\n    tag_59:\n      mload(0x40)\n      dup1\n      swap2\n      sub\n      swap1\n      return\n        /* \"Story.sol\":1006:1057  mapping(address => bool) public chaptersForSolidity */\n    tag_10:\n      callvalue\n      dup1\n      iszero\n      tag_61\n      jumpi\n      0x00\n      dup1\n      revert\n    tag_61:\n      pop\n      tag_62\n      0x04\n      dup1\n      calldatasize\n      sub\n      dup2\n      add\n      swap1\n      tag_63\n      swap2\n      swap1\n      tag_32\n      jump\t// in\n    tag_63:\n      tag_64\n      jump\t// in\n    tag_62:\n      mload(0x40)\n      tag_65\n      swap2\n      swap1\n      tag_28\n      jump\t// in\n    tag_65:\n      mload(0x40)\n      dup1\n      swap2\n      sub\n      swap1\n      return\n        /* \"Story.sol\":1632:1652  address public owner */\n    tag_11:\n      callvalue\n      dup1\n      iszero\n      tag_66\n      jumpi\n      0x00\n      dup1\n      revert\n    tag_66:\n      pop\n      tag_67\n      tag_68\n      jump\t// in\n    tag_67:\n      mload(0x40)\n      tag_69\n      swap2\n      swap1\n      tag_70\n      jump\t// in\n    tag_69:\n      mload(0x40)\n      dup1\n      swap2\n      sub\n      swap1\n      return\n        /* \"Story.sol\":4598:5593  function approveRequestToJoin(uint256 _index) public noReentrancy {... */\n    tag_12:\n      callvalue\n      dup1\n      iszero\n      tag_71\n      jumpi\n      0x00\n      dup1\n      revert\n    tag_71:\n      pop\n      tag_72\n      0x04\n      dup1\n      calldatasize\n      sub\n      dup2\n      add\n      swap1\n      tag_73\n      swap2\n      swap1\n      tag_42\n      jump\t// in\n    tag_73:\n      tag_74\n      jump\t// in\n    tag_72:\n      stop\n        /* \"Story.sol\":5605:6810  function createChapter(string memory _title, string memory _ipfsHash, address _parentChapter, address _childChapter) public noReentrancy {... */\n    tag_13:\n      callvalue\n      dup1\n      iszero\n      tag_75\n      jumpi\n      0x00\n      dup1\n      revert\n    tag_75:\n      pop\n      tag_76\n      0x04\n      dup1\n      calldatasize\n      sub\n      dup2\n      add\n      swap1\n      tag_77\n      swap2\n      swap1\n      tag_78\n      jump\t// in\n    tag_77:\n      tag_79\n      jump\t// in\n    tag_76:\n      stop\n        /* \"Story.sol\":963:995  address[] public authorsForReact */\n    tag_14:\n      callvalue\n      dup1\n      iszero\n      tag_80\n      jumpi\n      0x00\n      dup1\n      revert\n    tag_80:\n      pop\n      tag_81\n      0x04\n      dup1\n      calldatasize\n      sub\n      dup2\n      add\n      swap1\n      tag_82\n      swap2\n      swap1\n      tag_42\n      jump\t// in\n    tag_82:\n      tag_83\n      jump\t// in\n    tag_81:\n      mload(0x40)\n      tag_84\n      swap2\n      swap1\n      tag_70\n      jump\t// in\n    tag_84:\n      mload(0x40)\n      dup1\n      swap2\n      sub\n      swap1\n      return\n        /* \"Story.sol\":1068:1101  address[] public chaptersForReact */\n    tag_15:\n      callvalue\n      dup1\n      iszero\n      tag_85\n      jumpi\n      0x00\n      dup1\n      revert\n    tag_85:\n      pop\n      tag_86\n      0x04\n      dup1\n      calldatasize\n      sub\n      dup2\n      add\n      swap1\n      tag_87\n      swap2\n      swap1\n      tag_42\n      jump\t// in\n    tag_87:\n      tag_88\n      jump\t// in\n    tag_86:\n      mload(0x40)\n      tag_89\n      swap2\n      swap1\n      tag_70\n      jump\t// in\n    tag_89:\n      mload(0x40)\n      dup1\n      swap2\n      sub\n      swap1\n      return\n        /* \"Story.sol\":834:858  string public coverPhoto */\n    tag_16:\n      callvalue\n      dup1\n      iszero\n      tag_90\n      jumpi\n      0x00\n      dup1\n      revert\n    tag_90:\n      pop\n      tag_91\n      tag_92\n      jump\t// in\n    tag_91:\n      mload(0x40)\n      tag_93\n      swap2\n      swap1\n      tag_48\n      jump\t// in\n    tag_93:\n      mload(0x40)\n      dup1\n      swap2\n      sub\n      swap1\n      return\n        /* \"Story.sol\":4164:4576  function createRequestToJoin(string memory _proposal) public noReentrancy {... */\n    tag_17:\n      callvalue\n      dup1\n      iszero\n      tag_94\n      jumpi\n      0x00\n      dup1\n      revert\n    tag_94:\n      pop\n      tag_95\n      0x04\n      dup1\n      calldatasize\n      sub\n      dup2\n      add\n      swap1\n      tag_96\n      swap2\n      swap1\n      tag_97\n      jump\t// in\n    tag_96:\n      tag_98\n      jump\t// in\n    tag_95:\n      stop\n        /* \"Story.sol\":801:823  string public mainIdea */\n    tag_18:\n      callvalue\n      dup1\n      iszero\n      tag_99\n      jumpi\n      0x00\n      dup1\n      revert\n    tag_99:\n      pop\n      tag_100\n      tag_101\n      jump\t// in\n    tag_100:\n      mload(0x40)\n      tag_102\n      swap2\n      swap1\n      tag_48\n      jump\t// in\n    tag_102:\n      mload(0x40)\n      dup1\n      swap2\n      sub\n      swap1\n      return\n        /* \"Story.sol\":2211:2519  function createRequestToBuy() public payable noReentrancy { //make price in wei... */\n    tag_23:\n        /* \"Story.sol\":1744:1751  _locked */\n      0x03\n      0x00\n      swap1\n      sload\n      swap1\n      0x0100\n      exp\n      swap1\n      div\n      0xff\n      and\n        /* \"Story.sol\":1743:1751  !_locked */\n      iszero\n        /* \"Story.sol\":1735:1770  require(!_locked, \"Reentrant call\") */\n      tag_104\n      jumpi\n      mload(0x40)\n      0x08c379a000000000000000000000000000000000000000000000000000000000\n      dup2\n      mstore\n      0x04\n      add\n      tag_105\n      swap1\n      tag_106\n      jump\t// in\n    tag_105:\n      mload(0x40)\n      dup1\n      swap2\n      sub\n      swap1\n      revert\n    tag_104:\n        /* \"Story.sol\":1795:1799  true */\n      0x01\n        /* \"Story.sol\":1785:1792  _locked */\n      0x03\n      0x00\n        /* \"Story.sol\":1785:1799  _locked = true */\n      0x0100\n      exp\n      dup2\n      sload\n      dup2\n      0xff\n      mul\n      not\n      and\n      swap1\n      dup4\n      iszero\n      iszero\n      mul\n      or\n      swap1\n      sstore\n      pop\n        /* \"Story.sol\":2313:2319  bought */\n      0x0a\n      0x14\n      swap1\n      sload\n      swap1\n      0x0100\n      exp\n      swap1\n      div\n      0xff\n      and\n        /* \"Story.sol\":2312:2319  !bought */\n      iszero\n        /* \"Story.sol\":2304:2350  require(!bought, \"This story has been bought\") */\n      tag_108\n      jumpi\n      mload(0x40)\n      0x08c379a000000000000000000000000000000000000000000000000000000000\n      dup2\n      mstore\n      0x04\n      add\n      tag_109\n      swap1\n      tag_110\n      jump\t// in\n    tag_109:\n      mload(0x40)\n      dup1\n      swap2\n      sub\n      swap1\n      revert\n    tag_108:\n        /* \"Story.sol\":2365:2396  RequestToBuy storage newRequest */\n      0x00\n        /* \"Story.sol\":2399:2412  requestsToBuy */\n      0x09\n        /* \"Story.sol\":2399:2419  requestsToBuy.push() */\n      0x01\n      dup2\n      0x01\n      dup2\n      sload\n      add\n      dup1\n      dup3\n      sstore\n      dup1\n      swap2\n      pop\n      pop\n      sub\n      swap1\n      0x00\n      mstore\n      keccak256(0x00, 0x20)\n      swap1\n      0x05\n      mul\n      add\n        /* \"Story.sol\":2365:2419  RequestToBuy storage newRequest = requestsToBuy.push() */\n      swap1\n      pop\n        /* \"Story.sol\":2453:2462  msg.value */\n      callvalue\n        /* \"Story.sol\":2434:2444  newRequest */\n      dup2\n        /* \"Story.sol\":2434:2450  newRequest.price */\n      0x00\n      add\n        /* \"Story.sol\":2434:2462  newRequest.price = msg.value */\n      dup2\n      swap1\n      sstore\n      pop\n        /* \"Story.sol\":2497:2507  msg.sender */\n      caller\n        /* \"Story.sol\":2477:2487  newRequest */\n      dup2\n        /* \"Story.sol\":2477:2494  newRequest.bidder */\n      0x01\n      add\n      0x00\n        /* \"Story.sol\":2477:2507  newRequest.bidder = msg.sender */\n      0x0100\n      exp\n      dup2\n      sload\n      dup2\n      0xffffffffffffffffffffffffffffffffffffffff\n      mul\n      not\n      and\n      swap1\n      dup4\n      0xffffffffffffffffffffffffffffffffffffffff\n      and\n      mul\n      or\n      swap1\n      sstore\n      pop\n        /* \"Story.sol\":2269:2519  { //make price in wei... */\n      pop\n        /* \"Story.sol\":1840:1845  false */\n      0x00\n        /* \"Story.sol\":1830:1837  _locked */\n      0x03\n      0x00\n        /* \"Story.sol\":1830:1845  _locked = false */\n      0x0100\n      exp\n      dup2\n      sload\n      dup2\n      0xff\n      mul\n      not\n      and\n      swap1\n      dup4\n      iszero\n      iszero\n      mul\n      or\n      swap1\n      sstore\n      pop\n        /* \"Story.sol\":2211:2519  function createRequestToBuy() public payable noReentrancy { //make price in wei... */\n      jump\t// out\n        /* \"Story.sol\":1663:1681  bool public bought */\n    tag_26:\n      0x0a\n      0x14\n      swap1\n      sload\n      swap1\n      0x0100\n      exp\n      swap1\n      div\n      0xff\n      and\n      dup2\n      jump\t// out\n        /* \"Story.sol\":902:952  mapping(address => bool) public authorsForSolidity */\n    tag_33:\n      mstore(0x20, 0x04)\n      dup1\n      0x00\n      mstore\n      keccak256(0x00, 0x40)\n      0x00\n      swap2\n      pop\n      sload\n      swap1\n      0x0100\n      exp\n      swap1\n      div\n      0xff\n      and\n      dup2\n      jump\t// out\n        /* \"Story.sol\":6822:7313  function getSummary() public view returns (... */\n    tag_37:\n        /* \"Story.sol\":6879:6892  string memory */\n      0x60\n        /* \"Story.sol\":6894:6907  string memory */\n      dup1\n        /* \"Story.sol\":6909:6925  address[] memory */\n      0x60\n        /* \"Story.sol\":6927:6943  address[] memory */\n      dup1\n        /* \"Story.sol\":6945:6949  uint */\n      0x00\n        /* \"Story.sol\":6951:6964  string memory */\n      0x60\n        /* \"Story.sol\":6966:6970  uint */\n      0x00\n        /* \"Story.sol\":6972:6976  bool */\n      dup1\n        /* \"Story.sol\":6978:6985  address */\n      0x00\n        /* \"Story.sol\":7028:7033  title */\n      dup1\n        /* \"Story.sol\":7052:7060  mainIdea */\n      0x01\n        /* \"Story.sol\":7079:7094  authorsForReact */\n      0x05\n        /* \"Story.sol\":7113:7129  chaptersForReact */\n      0x07\n        /* \"Story.sol\":7148:7162  requestsToJoin */\n      0x08\n        /* \"Story.sol\":7148:7169  requestsToJoin.length */\n      dup1\n      sload\n      swap1\n      pop\n        /* \"Story.sol\":7188:7198  coverPhoto */\n      0x02\n        /* \"Story.sol\":7217:7230  requestsToBuy */\n      0x09\n        /* \"Story.sol\":7217:7237  requestsToBuy.length */\n      dup1\n      sload\n      swap1\n      pop\n        /* \"Story.sol\":7256:7262  bought */\n      0x0a\n      0x14\n      swap1\n      sload\n      swap1\n      0x0100\n      exp\n      swap1\n      div\n      0xff\n      and\n        /* \"Story.sol\":7281:7286  owner */\n      0x0a\n      0x00\n      swap1\n      sload\n      swap1\n      0x0100\n      exp\n      swap1\n      div\n      0xffffffffffffffffffffffffffffffffffffffff\n      and\n        /* \"Story.sol\":7002:7301  return (... */\n      dup9\n      dup1\n      sload\n      tag_113\n      swap1\n      tag_114\n      jump\t// in\n    tag_113:\n      dup1\n      0x1f\n      add\n      0x20\n      dup1\n      swap2\n      div\n      mul\n      0x20\n      add\n      mload(0x40)\n      swap1\n      dup2\n      add\n      0x40\n      mstore\n      dup1\n      swap3\n      swap2\n      swap1\n      dup2\n      dup2\n      mstore\n      0x20\n      add\n      dup3\n      dup1\n      sload\n      tag_115\n      swap1\n      tag_114\n      jump\t// in\n    tag_115:\n      dup1\n      iszero\n      tag_116\n      jumpi\n      dup1\n      0x1f\n      lt\n      tag_117\n      jumpi\n      0x0100\n      dup1\n      dup4\n      sload\n      div\n      mul\n      dup4\n      mstore\n      swap2\n      0x20\n      add\n      swap2\n      jump(tag_116)\n    tag_117:\n      dup3\n      add\n      swap2\n      swap1\n      0x00\n      mstore\n      keccak256(0x00, 0x20)\n      swap1\n    tag_118:\n      dup2\n      sload\n      dup2\n      mstore\n      swap1\n      0x01\n      add\n      swap1\n      0x20\n      add\n      dup1\n      dup4\n      gt\n      tag_118\n      jumpi\n      dup3\n      swap1\n      sub\n      0x1f\n      and\n      dup3\n      add\n      swap2\n    tag_116:\n      pop\n      pop\n      pop\n      pop\n      pop\n      swap9\n      pop\n      dup8\n      dup1\n      sload\n      tag_119\n      swap1\n      tag_114\n      jump\t// in\n    tag_119:\n      dup1\n      0x1f\n      add\n      0x20\n      dup1\n      swap2\n      div\n      mul\n      0x20\n      add\n      mload(0x40)\n      swap1\n      dup2\n      add\n      0x40\n      mstore\n      dup1\n      swap3\n      swap2\n      swap1\n      dup2\n      dup2\n      mstore\n      0x20\n      add\n      dup3\n      dup1\n      sload\n      tag_120\n      swap1\n      tag_114\n      jump\t// in\n    tag_120:\n      dup1\n      iszero\n      tag_121\n      jumpi\n      dup1\n      0x1f\n      lt\n      tag_122\n      jumpi\n      0x0100\n      dup1\n      dup4\n      sload\n      div\n      mul\n      dup4\n      mstore\n      swap2\n      0x20\n      add\n      swap2\n      jump(tag_121)\n    tag_122:\n      dup3\n      add\n      swap2\n      swap1\n      0x00\n      mstore\n      keccak256(0x00, 0x20)\n      swap1\n    tag_123:\n      dup2\n      sload\n      dup2\n      mstore\n      swap1\n      0x01\n      add\n      swap1\n      0x20\n      add\n      dup1\n      dup4\n      gt\n      tag_123\n      jumpi\n      dup3\n      swap1\n      sub\n      0x1f\n      and\n      dup3\n      add\n      swap2\n    tag_121:\n      pop\n      pop\n      pop\n      pop\n      pop\n      swap8\n      pop\n      dup7\n      dup1\n      sload\n      dup1\n      0x20\n      mul\n      0x20\n      add\n      mload(0x40)\n      swap1\n      dup2\n      add\n      0x40\n      mstore\n      dup1\n      swap3\n      swap2\n      swap1\n      dup2\n      dup2\n      mstore\n      0x20\n      add\n      dup3\n      dup1\n      sload\n      dup1\n      iszero\n      tag_124\n      jumpi\n      0x20\n      mul\n      dup3\n      add\n      swap2\n      swap1\n      0x00\n      mstore\n      keccak256(0x00, 0x20)\n      swap1\n    tag_125:\n      dup2\n      0x00\n      swap1\n      sload\n      swap1\n      0x0100\n      exp\n      swap1\n      div\n      0xffffffffffffffffffffffffffffffffffffffff\n      and\n      0xffffffffffffffffffffffffffffffffffffffff\n      and\n      dup2\n      mstore\n      0x20\n      add\n      swap1\n      0x01\n      add\n      swap1\n      dup1\n      dup4\n      gt\n      tag_125\n      jumpi\n    tag_124:\n      pop\n      pop\n      pop\n      pop\n      pop\n      swap7\n      pop\n      dup6\n      dup1\n      sload\n      dup1\n      0x20\n      mul\n      0x20\n      add\n      mload(0x40)\n      swap1\n      dup2\n      add\n      0x40\n      mstore\n      dup1\n      swap3\n      swap2\n      swap1\n      dup2\n      dup2\n      mstore\n      0x20\n      add\n      dup3\n      dup1\n      sload\n      dup1\n      iszero\n      tag_126\n      jumpi\n      0x20\n      mul\n      dup3\n      add\n      swap2\n      swap1\n      0x00\n      mstore\n      keccak256(0x00, 0x20)\n      swap1\n    tag_127:\n      dup2\n      0x00\n      swap1\n      sload\n      swap1\n      0x0100\n      exp\n      swap1\n      div\n      0xffffffffffffffffffffffffffffffffffffffff\n      and\n      0xffffffffffffffffffffffffffffffffffffffff\n      and\n      dup2\n      mstore\n      0x20\n      add\n      swap1\n      0x01\n      add\n      swap1\n      dup1\n      dup4\n      gt\n      tag_127\n      jumpi\n    tag_126:\n      pop\n      pop\n      pop\n      pop\n      pop\n      swap6\n      pop\n      dup4\n      dup1\n      sload\n      tag_128\n      swap1\n      tag_114\n      jump\t// in\n    tag_128:\n      dup1\n      0x1f\n      add\n      0x20\n      dup1\n      swap2\n      div\n      mul\n      0x20\n      add\n      mload(0x40)\n      swap1\n      dup2\n      add\n      0x40\n      mstore\n      dup1\n      swap3\n      swap2\n      swap1\n      dup2\n      dup2\n      mstore\n      0x20\n      add\n      dup3\n      dup1\n      sload\n      tag_129\n      swap1\n      tag_114\n      jump\t// in\n    tag_129:\n      dup1\n      iszero\n      tag_130\n      jumpi\n      dup1\n      0x1f\n      lt\n      tag_131\n      jumpi\n      0x0100\n      dup1\n      dup4\n      sload\n      div\n      mul\n      dup4\n      mstore\n      swap2\n      0x20\n      add\n      swap2\n      jump(tag_130)\n    tag_131:\n      dup3\n      add\n      swap2\n      swap1\n      0x00\n      mstore\n      keccak256(0x00, 0x20)\n      swap1\n    tag_132:\n      dup2\n      sload\n      dup2\n      mstore\n      swap1\n      0x01\n      add\n      swap1\n      0x20\n      add\n      dup1\n      dup4\n      gt\n      tag_132\n      jumpi\n      dup3\n      swap1\n      sub\n      0x1f\n      and\n      dup3\n      add\n      swap2\n    tag_130:\n      pop\n      pop\n      pop\n      pop\n      pop\n      swap4\n      pop\n      swap9\n      pop\n      swap9\n      pop\n      swap9\n      pop\n      swap9\n      pop\n      swap9\n      pop\n      swap9\n      pop\n      swap9\n      pop\n      swap9\n      pop\n      swap9\n      pop\n        /* \"Story.sol\":6822:7313  function getSummary() public view returns (... */\n      swap1\n      swap2\n      swap3\n      swap4\n      swap5\n      swap6\n      swap7\n      swap8\n      swap9\n      jump\t// out\n        /* \"Story.sol\":2529:4151  function approveRequestToBuy(uint256 _index) public payable noReentrancy {... */\n    tag_43:\n        /* \"Story.sol\":1744:1751  _locked */\n      0x03\n      0x00\n      swap1\n      sload\n      swap1\n      0x0100\n      exp\n      swap1\n      div\n      0xff\n      and\n        /* \"Story.sol\":1743:1751  !_locked */\n      iszero\n        /* \"Story.sol\":1735:1770  require(!_locked, \"Reentrant call\") */\n      tag_134\n      jumpi\n      mload(0x40)\n      0x08c379a000000000000000000000000000000000000000000000000000000000\n      dup2\n      mstore\n      0x04\n      add\n      tag_135\n      swap1\n      tag_106\n      jump\t// in\n    tag_135:\n      mload(0x40)\n      dup1\n      swap2\n      sub\n      swap1\n      revert\n    tag_134:\n        /* \"Story.sol\":1795:1799  true */\n      0x01\n        /* \"Story.sol\":1785:1792  _locked */\n      0x03\n      0x00\n        /* \"Story.sol\":1785:1799  _locked = true */\n      0x0100\n      exp\n      dup2\n      sload\n      dup2\n      0xff\n      mul\n      not\n      and\n      swap1\n      dup4\n      iszero\n      iszero\n      mul\n      or\n      swap1\n      sstore\n      pop\n        /* \"Story.sol\":2626:2632  bought */\n      0x0a\n      0x14\n      swap1\n      sload\n      swap1\n      0x0100\n      exp\n      swap1\n      div\n      0xff\n      and\n        /* \"Story.sol\":2625:2632  !bought */\n      iszero\n        /* \"Story.sol\":2617:2663  require(!bought, \"This story has been bought\") */\n      tag_137\n      jumpi\n      mload(0x40)\n      0x08c379a000000000000000000000000000000000000000000000000000000000\n      dup2\n      mstore\n      0x04\n      add\n      tag_138\n      swap1\n      tag_110\n      jump\t// in\n    tag_138:\n      mload(0x40)\n      dup1\n      swap2\n      sub\n      swap1\n      revert\n    tag_137:\n        /* \"Story.sol\":2686:2704  authorsForSolidity */\n      0x04\n        /* \"Story.sol\":2686:2716  authorsForSolidity[msg.sender] */\n      0x00\n        /* \"Story.sol\":2705:2715  msg.sender */\n      caller\n        /* \"Story.sol\":2686:2716  authorsForSolidity[msg.sender] */\n      0xffffffffffffffffffffffffffffffffffffffff\n      and\n      0xffffffffffffffffffffffffffffffffffffffff\n      and\n      dup2\n      mstore\n      0x20\n      add\n      swap1\n      dup2\n      mstore\n      0x20\n      add\n      0x00\n      keccak256\n      0x00\n      swap1\n      sload\n      swap1\n      0x0100\n      exp\n      swap1\n      div\n      0xff\n      and\n        /* \"Story.sol\":2678:2766  require(authorsForSolidity[msg.sender], \"Only an accepted author can approve a request\") */\n      tag_139\n      jumpi\n      mload(0x40)\n      0x08c379a000000000000000000000000000000000000000000000000000000000\n      dup2\n      mstore\n      0x04\n      add\n      tag_140\n      swap1\n      tag_141\n      jump\t// in\n    tag_140:\n      mload(0x40)\n      dup1\n      swap2\n      sub\n      swap1\n      revert\n    tag_139:\n        /* \"Story.sol\":2783:2811  RequestToBuy storage request */\n      0x00\n        /* \"Story.sol\":2814:2827  requestsToBuy */\n      0x09\n        /* \"Story.sol\":2828:2834  _index */\n      dup3\n        /* \"Story.sol\":2814:2835  requestsToBuy[_index] */\n      dup2\n      sload\n      dup2\n      lt\n      tag_142\n      jumpi\n      tag_143\n      tag_144\n      jump\t// in\n    tag_143:\n    tag_142:\n      swap1\n      0x00\n      mstore\n      keccak256(0x00, 0x20)\n      swap1\n      0x05\n      mul\n      add\n        /* \"Story.sol\":2783:2835  RequestToBuy storage request = requestsToBuy[_index] */\n      swap1\n      pop\n        /* \"Story.sol\":2861:2868  request */\n      dup1\n        /* \"Story.sol\":2861:2878  request.approvers */\n      0x02\n      add\n        /* \"Story.sol\":2861:2890  request.approvers[msg.sender] */\n      0x00\n        /* \"Story.sol\":2879:2889  msg.sender */\n      caller\n        /* \"Story.sol\":2861:2890  request.approvers[msg.sender] */\n      0xffffffffffffffffffffffffffffffffffffffff\n      and\n      0xffffffffffffffffffffffffffffffffffffffff\n      and\n      dup2\n      mstore\n      0x20\n      add\n      swap1\n      dup2\n      mstore\n      0x20\n      add\n      0x00\n      keccak256\n      0x00\n      swap1\n      sload\n      swap1\n      0x0100\n      exp\n      swap1\n      div\n      0xff\n      and\n        /* \"Story.sol\":2860:2890  !request.approvers[msg.sender] */\n      iszero\n        /* \"Story.sol\":2852:2930  require(!request.approvers[msg.sender], \"This author already approved before\") */\n      tag_146\n      jumpi\n      mload(0x40)\n      0x08c379a000000000000000000000000000000000000000000000000000000000\n      dup2\n      mstore\n      0x04\n      add\n      tag_147\n      swap1\n      tag_148\n      jump\t// in\n    tag_147:\n      mload(0x40)\n      dup1\n      swap2\n      sub\n      swap1\n      revert\n    tag_146:\n        /* \"Story.sol\":2954:2961  request */\n      dup1\n        /* \"Story.sol\":2954:2968  request.status */\n      0x04\n      add\n      0x00\n      swap1\n      sload\n      swap1\n      0x0100\n      exp\n      swap1\n      div\n      0xff\n      and\n        /* \"Story.sol\":2953:2968  !request.status */\n      iszero\n        /* \"Story.sol\":2945:3018  require(!request.status, \"This request has already been approved before\") */\n      tag_149\n      jumpi\n      mload(0x40)\n      0x08c379a000000000000000000000000000000000000000000000000000000000\n      dup2\n      mstore\n      0x04\n      add\n      tag_150\n      swap1\n      tag_151\n      jump\t// in\n    tag_150:\n      mload(0x40)\n      dup1\n      swap2\n      sub\n      swap1\n      revert\n    tag_149:\n        /* \"Story.sol\":3067:3071  true */\n      0x01\n        /* \"Story.sol\":3035:3042  request */\n      dup2\n        /* \"Story.sol\":3035:3052  request.approvers */\n      0x02\n      add\n        /* \"Story.sol\":3035:3064  request.approvers[msg.sender] */\n      0x00\n        /* \"Story.sol\":3053:3063  msg.sender */\n      caller\n        /* \"Story.sol\":3035:3064  request.approvers[msg.sender] */\n      0xffffffffffffffffffffffffffffffffffffffff\n      and\n      0xffffffffffffffffffffffffffffffffffffffff\n      and\n      dup2\n      mstore\n      0x20\n      add\n      swap1\n      dup2\n      mstore\n      0x20\n      add\n      0x00\n      keccak256\n      0x00\n        /* \"Story.sol\":3035:3071  request.approvers[msg.sender] = true */\n      0x0100\n      exp\n      dup2\n      sload\n      dup2\n      0xff\n      mul\n      not\n      and\n      swap1\n      dup4\n      iszero\n      iszero\n      mul\n      or\n      swap1\n      sstore\n      pop\n        /* \"Story.sol\":3136:3137  1 */\n      0x01\n        /* \"Story.sol\":3111:3118  request */\n      dup2\n        /* \"Story.sol\":3111:3133  request.approversCount */\n      0x03\n      add\n      sload\n        /* \"Story.sol\":3111:3137  request.approversCount + 1 */\n      tag_152\n      swap2\n      swap1\n      tag_153\n      jump\t// in\n    tag_152:\n        /* \"Story.sol\":3086:3093  request */\n      dup2\n        /* \"Story.sol\":3086:3108  request.approversCount */\n      0x03\n      add\n        /* \"Story.sol\":3086:3137  request.approversCount = request.approversCount + 1 */\n      dup2\n      swap1\n      sstore\n      pop\n        /* \"Story.sol\":3279:3280  2 */\n      0x02\n        /* \"Story.sol\":3254:3269  authorsForReact */\n      0x05\n        /* \"Story.sol\":3254:3276  authorsForReact.length */\n      dup1\n      sload\n      swap1\n      pop\n        /* \"Story.sol\":3254:3280  authorsForReact.length / 2 */\n      tag_154\n      swap2\n      swap1\n      tag_155\n      jump\t// in\n    tag_154:\n        /* \"Story.sol\":3228:3235  request */\n      dup2\n        /* \"Story.sol\":3228:3250  request.approversCount */\n      0x03\n      add\n      sload\n        /* \"Story.sol\":3228:3281  request.approversCount > (authorsForReact.length / 2) */\n      gt\n        /* \"Story.sol\":3224:4126  if (request.approversCount > (authorsForReact.length / 2) ) {... */\n      iszero\n      tag_156\n      jumpi\n        /* \"Story.sol\":3320:3324  true */\n      0x01\n        /* \"Story.sol\":3303:3310  request */\n      dup2\n        /* \"Story.sol\":3303:3317  request.status */\n      0x04\n      add\n      0x00\n        /* \"Story.sol\":3303:3324  request.status = true */\n      0x0100\n      exp\n      dup2\n      sload\n      dup2\n      0xff\n      mul\n      not\n      and\n      swap1\n      dup4\n      iszero\n      iszero\n      mul\n      or\n      swap1\n      sstore\n      pop\n        /* \"Story.sol\":3351:3358  request */\n      dup1\n        /* \"Story.sol\":3351:3365  request.bidder */\n      0x01\n      add\n      0x00\n      swap1\n      sload\n      swap1\n      0x0100\n      exp\n      swap1\n      div\n      0xffffffffffffffffffffffffffffffffffffffff\n      and\n        /* \"Story.sol\":3343:3348  owner */\n      0x0a\n      0x00\n        /* \"Story.sol\":3343:3365  owner = request.bidder */\n      0x0100\n      exp\n      dup2\n      sload\n      dup2\n      0xffffffffffffffffffffffffffffffffffffffff\n      mul\n      not\n      and\n      swap1\n      dup4\n      0xffffffffffffffffffffffffffffffffffffffff\n      and\n      mul\n      or\n      swap1\n      sstore\n      pop\n        /* \"Story.sol\":3393:3397  true */\n      0x01\n        /* \"Story.sol\":3384:3390  bought */\n      0x0a\n      0x14\n        /* \"Story.sol\":3384:3397  bought = true */\n      0x0100\n      exp\n      dup2\n      sload\n      dup2\n      0xff\n      mul\n      not\n      and\n      swap1\n      dup4\n      iszero\n      iszero\n      mul\n      or\n      swap1\n      sstore\n      pop\n        /* \"Story.sol\":3479:3502  uint256 amountPerAuthor */\n      0x00\n        /* \"Story.sol\":3521:3536  authorsForReact */\n      0x05\n        /* \"Story.sol\":3521:3543  authorsForReact.length */\n      dup1\n      sload\n      swap1\n      pop\n        /* \"Story.sol\":3505:3512  request */\n      dup3\n        /* \"Story.sol\":3505:3518  request.price */\n      0x00\n      add\n      sload\n        /* \"Story.sol\":3505:3543  request.price / authorsForReact.length */\n      tag_157\n      swap2\n      swap1\n      tag_155\n      jump\t// in\n    tag_157:\n        /* \"Story.sol\":3479:3543  uint256 amountPerAuthor = request.price / authorsForReact.length */\n      swap1\n      pop\n        /* \"Story.sol\":3562:3571  uint256 i */\n      0x00\n        /* \"Story.sol\":3594:3751  while (i < authorsForReact.length) {... */\n    tag_158:\n        /* \"Story.sol\":3605:3620  authorsForReact */\n      0x05\n        /* \"Story.sol\":3605:3627  authorsForReact.length */\n      dup1\n      sload\n      swap1\n      pop\n        /* \"Story.sol\":3601:3602  i */\n      dup2\n        /* \"Story.sol\":3601:3627  i < authorsForReact.length */\n      lt\n        /* \"Story.sol\":3594:3751  while (i < authorsForReact.length) {... */\n      iszero\n      tag_159\n      jumpi\n        /* \"Story.sol\":3660:3675  authorsForReact */\n      0x05\n        /* \"Story.sol\":3676:3677  i */\n      dup2\n        /* \"Story.sol\":3660:3678  authorsForReact[i] */\n      dup2\n      sload\n      dup2\n      lt\n      tag_160\n      jumpi\n      tag_161\n      tag_144\n      jump\t// in\n    tag_161:\n    tag_160:\n      swap1\n      0x00\n      mstore\n      keccak256(0x00, 0x20)\n      add\n      0x00\n      swap1\n      sload\n      swap1\n      0x0100\n      exp\n      swap1\n      div\n      0xffffffffffffffffffffffffffffffffffffffff\n      and\n        /* \"Story.sol\":3652:3688  payable(authorsForReact[i]).transfer */\n      0xffffffffffffffffffffffffffffffffffffffff\n      and\n        /* \"Story.sol\":3652:3705  payable(authorsForReact[i]).transfer(amountPerAuthor) */\n      0x08fc\n        /* \"Story.sol\":3689:3704  amountPerAuthor */\n      dup4\n        /* \"Story.sol\":3652:3705  payable(authorsForReact[i]).transfer(amountPerAuthor) */\n      swap1\n      dup2\n      iszero\n      mul\n      swap1\n      mload(0x40)\n      0x00\n      mload(0x40)\n      dup1\n      dup4\n      sub\n      dup2\n      dup6\n      dup9\n      dup9\n      call\n      swap4\n      pop\n      pop\n      pop\n      pop\n      iszero\n      dup1\n      iszero\n      tag_164\n      jumpi\n      returndatasize\n      0x00\n      dup1\n      returndatacopy\n      revert(0x00, returndatasize)\n    tag_164:\n      pop\n        /* \"Story.sol\":3728:3731  i++ */\n      dup1\n      dup1\n      tag_165\n      swap1\n      tag_166\n      jump\t// in\n    tag_165:\n      swap2\n      pop\n      pop\n        /* \"Story.sol\":3594:3751  while (i < authorsForReact.length) {... */\n      jump(tag_158)\n    tag_159:\n        /* \"Story.sol\":3818:3819  0 */\n      0x00\n        /* \"Story.sol\":3814:3819  i = 0 */\n      swap1\n      pop\n        /* \"Story.sol\":3838:4091  while (i < requestsToBuy.length){... */\n    tag_167:\n        /* \"Story.sol\":3849:3862  requestsToBuy */\n      0x09\n        /* \"Story.sol\":3849:3869  requestsToBuy.length */\n      dup1\n      sload\n      swap1\n      pop\n        /* \"Story.sol\":3845:3846  i */\n      dup2\n        /* \"Story.sol\":3845:3869  i < requestsToBuy.length */\n      lt\n        /* \"Story.sol\":3838:4091  while (i < requestsToBuy.length){... */\n      iszero\n      tag_168\n      jumpi\n        /* \"Story.sol\":3923:3928  false */\n      0x00\n        /* \"Story.sol\":3896:3928  requestsToBuy[i].status == false */\n      iszero\n      iszero\n        /* \"Story.sol\":3896:3909  requestsToBuy */\n      0x09\n        /* \"Story.sol\":3910:3911  i */\n      dup3\n        /* \"Story.sol\":3896:3912  requestsToBuy[i] */\n      dup2\n      sload\n      dup2\n      lt\n      tag_169\n      jumpi\n      tag_170\n      tag_144\n      jump\t// in\n    tag_170:\n    tag_169:\n      swap1\n      0x00\n      mstore\n      keccak256(0x00, 0x20)\n      swap1\n      0x05\n      mul\n      add\n        /* \"Story.sol\":3896:3919  requestsToBuy[i].status */\n      0x04\n      add\n      0x00\n      swap1\n      sload\n      swap1\n      0x0100\n      exp\n      swap1\n      div\n      0xff\n      and\n        /* \"Story.sol\":3896:3928  requestsToBuy[i].status == false */\n      iszero\n      iszero\n      eq\n        /* \"Story.sol\":3893:4046  if(requestsToBuy[i].status == false){ ... */\n      iszero\n      tag_172\n      jumpi\n        /* \"Story.sol\":3965:3978  requestsToBuy */\n      0x09\n        /* \"Story.sol\":3979:3980  i */\n      dup2\n        /* \"Story.sol\":3965:3981  requestsToBuy[i] */\n      dup2\n      sload\n      dup2\n      lt\n      tag_173\n      jumpi\n      tag_174\n      tag_144\n      jump\t// in\n    tag_174:\n    tag_173:\n      swap1\n      0x00\n      mstore\n      keccak256(0x00, 0x20)\n      swap1\n      0x05\n      mul\n      add\n        /* \"Story.sol\":3965:3988  requestsToBuy[i].bidder */\n      0x01\n      add\n      0x00\n      swap1\n      sload\n      swap1\n      0x0100\n      exp\n      swap1\n      div\n      0xffffffffffffffffffffffffffffffffffffffff\n      and\n        /* \"Story.sol\":3957:3998  payable(requestsToBuy[i].bidder).transfer */\n      0xffffffffffffffffffffffffffffffffffffffff\n      and\n        /* \"Story.sol\":3957:4022  payable(requestsToBuy[i].bidder).transfer(requestsToBuy[i].price) */\n      0x08fc\n        /* \"Story.sol\":3999:4012  requestsToBuy */\n      0x09\n        /* \"Story.sol\":4013:4014  i */\n      dup4\n        /* \"Story.sol\":3999:4015  requestsToBuy[i] */\n      dup2\n      sload\n      dup2\n      lt\n      tag_176\n      jumpi\n      tag_177\n      tag_144\n      jump\t// in\n    tag_177:\n    tag_176:\n      swap1\n      0x00\n      mstore\n      keccak256(0x00, 0x20)\n      swap1\n      0x05\n      mul\n      add\n        /* \"Story.sol\":3999:4021  requestsToBuy[i].price */\n      0x00\n      add\n      sload\n        /* \"Story.sol\":3957:4022  payable(requestsToBuy[i].bidder).transfer(requestsToBuy[i].price) */\n      swap1\n      dup2\n      iszero\n      mul\n      swap1\n      mload(0x40)\n      0x00\n      mload(0x40)\n      dup1\n      dup4\n      sub\n      dup2\n      dup6\n      dup9\n      dup9\n      call\n      swap4\n      pop\n      pop\n      pop\n      pop\n      iszero\n      dup1\n      iszero\n      tag_180\n      jumpi\n      returndatasize\n      0x00\n      dup1\n      returndatacopy\n      revert(0x00, returndatasize)\n    tag_180:\n      pop\n        /* \"Story.sol\":3893:4046  if(requestsToBuy[i].status == false){ ... */\n    tag_172:\n        /* \"Story.sol\":4068:4071  i++ */\n      dup1\n      dup1\n      tag_181\n      swap1\n      tag_166\n      jump\t// in\n    tag_181:\n      swap2\n      pop\n      pop\n        /* \"Story.sol\":3838:4091  while (i < requestsToBuy.length){... */\n      jump(tag_167)\n    tag_168:\n        /* \"Story.sol\":3284:4126  {... */\n      pop\n      pop\n        /* \"Story.sol\":3224:4126  if (request.approversCount > (authorsForReact.length / 2) ) {... */\n    tag_156:\n        /* \"Story.sol\":2602:4151  {... */\n      pop\n        /* \"Story.sol\":1840:1845  false */\n      0x00\n        /* \"Story.sol\":1830:1837  _locked */\n      0x03\n      0x00\n        /* \"Story.sol\":1830:1845  _locked = false */\n      0x0100\n      exp\n      dup2\n      sload\n      dup2\n      0xff\n      mul\n      not\n      and\n      swap1\n      dup4\n      iszero\n      iszero\n      mul\n      or\n      swap1\n      sstore\n      pop\n        /* \"Story.sol\":2529:4151  function approveRequestToBuy(uint256 _index) public payable noReentrancy {... */\n      pop\n      jump\t// out\n        /* \"Story.sol\":771:790  string public title */\n    tag_46:\n      0x00\n      dup1\n      sload\n      tag_182\n      swap1\n      tag_114\n      jump\t// in\n    tag_182:\n      dup1\n      0x1f\n      add\n      0x20\n      dup1\n      swap2\n      div\n      mul\n      0x20\n      add\n      mload(0x40)\n      swap1\n      dup2\n      add\n      0x40\n      mstore\n      dup1\n      swap3\n      swap2\n      swap1\n      dup2\n      dup2\n      mstore\n      0x20\n      add\n      dup3\n      dup1\n      sload\n      tag_183\n      swap1\n      tag_114\n      jump\t// in\n    tag_183:\n      dup1\n      iszero\n      tag_184\n      jumpi\n      dup1\n      0x1f\n      lt\n      tag_185\n      jumpi\n      0x0100\n      dup1\n      dup4\n      sload\n      div\n      mul\n      dup4\n      mstore\n      swap2\n      0x20\n      add\n      swap2\n      jump(tag_184)\n    tag_185:\n      dup3\n      add\n      swap2\n      swap1\n      0x00\n      mstore\n      keccak256(0x00, 0x20)\n      swap1\n    tag_186:\n      dup2\n      sload\n      dup2\n      mstore\n      swap1\n      0x01\n      add\n      swap1\n      0x20\n      add\n      dup1\n      dup4\n      gt\n      tag_186\n      jumpi\n      dup3\n      swap1\n      sub\n      0x1f\n      and\n      dup3\n      add\n      swap2\n    tag_184:\n      pop\n      pop\n      pop\n      pop\n      pop\n      dup2\n      jump\t// out\n        /* \"Story.sol\":1584:1619  RequestToBuy[] public requestsToBuy */\n    tag_52:\n      0x09\n      dup2\n      dup2\n      sload\n      dup2\n      lt\n      tag_187\n      jumpi\n      0x00\n      dup1\n      revert\n    tag_187:\n      swap1\n      0x00\n      mstore\n      keccak256(0x00, 0x20)\n      swap1\n      0x05\n      mul\n      add\n      0x00\n      swap2\n      pop\n      swap1\n      pop\n      dup1\n      0x00\n      add\n      sload\n      swap1\n      dup1\n      0x01\n      add\n      0x00\n      swap1\n      sload\n      swap1\n      0x0100\n      exp\n      swap1\n      div\n      0xffffffffffffffffffffffffffffffffffffffff\n      and\n      swap1\n      dup1\n      0x03\n      add\n      sload\n      swap1\n      dup1\n      0x04\n      add\n      0x00\n      swap1\n      sload\n      swap1\n      0x0100\n      exp\n      swap1\n      div\n      0xff\n      and\n      swap1\n      pop\n      dup5\n      jump\t// out\n        /* \"Story.sol\":1327:1364  RequestToJoin[] public requestsToJoin */\n    tag_58:\n      0x08\n      dup2\n      dup2\n      sload\n      dup2\n      lt\n      tag_189\n      jumpi\n      0x00\n      dup1\n      revert\n    tag_189:\n      swap1\n      0x00\n      mstore\n      keccak256(0x00, 0x20)\n      swap1\n      0x05\n      mul\n      add\n      0x00\n      swap2\n      pop\n      swap1\n      pop\n      dup1\n      0x00\n      add\n      dup1\n      sload\n      tag_191\n      swap1\n      tag_114\n      jump\t// in\n    tag_191:\n      dup1\n      0x1f\n      add\n      0x20\n      dup1\n      swap2\n      div\n      mul\n      0x20\n      add\n      mload(0x40)\n      swap1\n      dup2\n      add\n      0x40\n      mstore\n      dup1\n      swap3\n      swap2\n      swap1\n      dup2\n      dup2\n      mstore\n      0x20\n      add\n      dup3\n      dup1\n      sload\n      tag_192\n      swap1\n      tag_114\n      jump\t// in\n    tag_192:\n      dup1\n      iszero\n      tag_193\n      jumpi\n      dup1\n      0x1f\n      lt\n      tag_194\n      jumpi\n      0x0100\n      dup1\n      dup4\n      sload\n      div\n      mul\n      dup4\n      mstore\n      swap2\n      0x20\n      add\n      swap2\n      jump(tag_193)\n    tag_194:\n      dup3\n      add\n      swap2\n      swap1\n      0x00\n      mstore\n      keccak256(0x00, 0x20)\n      swap1\n    tag_195:\n      dup2\n      sload\n      dup2\n      mstore\n      swap1\n      0x01\n      add\n      swap1\n      0x20\n      add\n      dup1\n      dup4\n      gt\n      tag_195\n      jumpi\n      dup3\n      swap1\n      sub\n      0x1f\n      and\n      dup3\n      add\n      swap2\n    tag_193:\n      pop\n      pop\n      pop\n      pop\n      pop\n      swap1\n      dup1\n      0x01\n      add\n      0x00\n      swap1\n      sload\n      swap1\n      0x0100\n      exp\n      swap1\n      div\n      0xffffffffffffffffffffffffffffffffffffffff\n      and\n      swap1\n      dup1\n      0x03\n      add\n      sload\n      swap1\n      dup1\n      0x04\n      add\n      0x00\n      swap1\n      sload\n      swap1\n      0x0100\n      exp\n      swap1\n      div\n      0xff\n      and\n      swap1\n      pop\n      dup5\n      jump\t// out\n        /* \"Story.sol\":1006:1057  mapping(address => bool) public chaptersForSolidity */\n    tag_64:\n      mstore(0x20, 0x06)\n      dup1\n      0x00\n      mstore\n      keccak256(0x00, 0x40)\n      0x00\n      swap2\n      pop\n      sload\n      swap1\n      0x0100\n      exp\n      swap1\n      div\n      0xff\n      and\n      dup2\n      jump\t// out\n        /* \"Story.sol\":1632:1652  address public owner */\n    tag_68:\n      0x0a\n      0x00\n      swap1\n      sload\n      swap1\n      0x0100\n      exp\n      swap1\n      div\n      0xffffffffffffffffffffffffffffffffffffffff\n      and\n      dup2\n      jump\t// out\n        /* \"Story.sol\":4598:5593  function approveRequestToJoin(uint256 _index) public noReentrancy {... */\n    tag_74:\n        /* \"Story.sol\":1744:1751  _locked */\n      0x03\n      0x00\n      swap1\n      sload\n      swap1\n      0x0100\n      exp\n      swap1\n      div\n      0xff\n      and\n        /* \"Story.sol\":1743:1751  !_locked */\n      iszero\n        /* \"Story.sol\":1735:1770  require(!_locked, \"Reentrant call\") */\n      tag_197\n      jumpi\n      mload(0x40)\n      0x08c379a000000000000000000000000000000000000000000000000000000000\n      dup2\n      mstore\n      0x04\n      add\n      tag_198\n      swap1\n      tag_106\n      jump\t// in\n    tag_198:\n      mload(0x40)\n      dup1\n      swap2\n      sub\n      swap1\n      revert\n    tag_197:\n        /* \"Story.sol\":1795:1799  true */\n      0x01\n        /* \"Story.sol\":1785:1792  _locked */\n      0x03\n      0x00\n        /* \"Story.sol\":1785:1799  _locked = true */\n      0x0100\n      exp\n      dup2\n      sload\n      dup2\n      0xff\n      mul\n      not\n      and\n      swap1\n      dup4\n      iszero\n      iszero\n      mul\n      or\n      swap1\n      sstore\n      pop\n        /* \"Story.sol\":4688:4694  bought */\n      0x0a\n      0x14\n      swap1\n      sload\n      swap1\n      0x0100\n      exp\n      swap1\n      div\n      0xff\n      and\n        /* \"Story.sol\":4687:4694  !bought */\n      iszero\n        /* \"Story.sol\":4679:4725  require(!bought, \"This story has been bought\") */\n      tag_200\n      jumpi\n      mload(0x40)\n      0x08c379a000000000000000000000000000000000000000000000000000000000\n      dup2\n      mstore\n      0x04\n      add\n      tag_201\n      swap1\n      tag_110\n      jump\t// in\n    tag_201:\n      mload(0x40)\n      dup1\n      swap2\n      sub\n      swap1\n      revert\n    tag_200:\n        /* \"Story.sol\":4748:4766  authorsForSolidity */\n      0x04\n        /* \"Story.sol\":4748:4778  authorsForSolidity[msg.sender] */\n      0x00\n        /* \"Story.sol\":4767:4777  msg.sender */\n      caller\n        /* \"Story.sol\":4748:4778  authorsForSolidity[msg.sender] */\n      0xffffffffffffffffffffffffffffffffffffffff\n      and\n      0xffffffffffffffffffffffffffffffffffffffff\n      and\n      dup2\n      mstore\n      0x20\n      add\n      swap1\n      dup2\n      mstore\n      0x20\n      add\n      0x00\n      keccak256\n      0x00\n      swap1\n      sload\n      swap1\n      0x0100\n      exp\n      swap1\n      div\n      0xff\n      and\n        /* \"Story.sol\":4740:4828  require(authorsForSolidity[msg.sender], \"Only an accepted author can approve a request\") */\n      tag_202\n      jumpi\n      mload(0x40)\n      0x08c379a000000000000000000000000000000000000000000000000000000000\n      dup2\n      mstore\n      0x04\n      add\n      tag_203\n      swap1\n      tag_141\n      jump\t// in\n    tag_203:\n      mload(0x40)\n      dup1\n      swap2\n      sub\n      swap1\n      revert\n    tag_202:\n        /* \"Story.sol\":4845:4874  RequestToJoin storage request */\n      0x00\n        /* \"Story.sol\":4877:4891  requestsToJoin */\n      0x08\n        /* \"Story.sol\":4892:4898  _index */\n      dup3\n        /* \"Story.sol\":4877:4899  requestsToJoin[_index] */\n      dup2\n      sload\n      dup2\n      lt\n      tag_204\n      jumpi\n      tag_205\n      tag_144\n      jump\t// in\n    tag_205:\n    tag_204:\n      swap1\n      0x00\n      mstore\n      keccak256(0x00, 0x20)\n      swap1\n      0x05\n      mul\n      add\n        /* \"Story.sol\":4845:4899  RequestToJoin storage request = requestsToJoin[_index] */\n      swap1\n      pop\n        /* \"Story.sol\":4925:4932  request */\n      dup1\n        /* \"Story.sol\":4925:4942  request.approvers */\n      0x02\n      add\n        /* \"Story.sol\":4925:4954  request.approvers[msg.sender] */\n      0x00\n        /* \"Story.sol\":4943:4953  msg.sender */\n      caller\n        /* \"Story.sol\":4925:4954  request.approvers[msg.sender] */\n      0xffffffffffffffffffffffffffffffffffffffff\n      and\n      0xffffffffffffffffffffffffffffffffffffffff\n      and\n      dup2\n      mstore\n      0x20\n      add\n      swap1\n      dup2\n      mstore\n      0x20\n      add\n      0x00\n      keccak256\n      0x00\n      swap1\n      sload\n      swap1\n      0x0100\n      exp\n      swap1\n      div\n      0xff\n      and\n        /* \"Story.sol\":4924:4954  !request.approvers[msg.sender] */\n      iszero\n        /* \"Story.sol\":4916:4994  require(!request.approvers[msg.sender], \"This author already approved before\") */\n      tag_207\n      jumpi\n      mload(0x40)\n      0x08c379a000000000000000000000000000000000000000000000000000000000\n      dup2\n      mstore\n      0x04\n      add\n      tag_208\n      swap1\n      tag_148\n      jump\t// in\n    tag_208:\n      mload(0x40)\n      dup1\n      swap2\n      sub\n      swap1\n      revert\n    tag_207:\n        /* \"Story.sol\":5018:5025  request */\n      dup1\n        /* \"Story.sol\":5018:5032  request.status */\n      0x04\n      add\n      0x00\n      swap1\n      sload\n      swap1\n      0x0100\n      exp\n      swap1\n      div\n      0xff\n      and\n        /* \"Story.sol\":5017:5032  !request.status */\n      iszero\n        /* \"Story.sol\":5009:5082  require(!request.status, \"This request has already been approved before\") */\n      tag_209\n      jumpi\n      mload(0x40)\n      0x08c379a000000000000000000000000000000000000000000000000000000000\n      dup2\n      mstore\n      0x04\n      add\n      tag_210\n      swap1\n      tag_151\n      jump\t// in\n    tag_210:\n      mload(0x40)\n      dup1\n      swap2\n      sub\n      swap1\n      revert\n    tag_209:\n        /* \"Story.sol\":5131:5135  true */\n      0x01\n        /* \"Story.sol\":5099:5106  request */\n      dup2\n        /* \"Story.sol\":5099:5116  request.approvers */\n      0x02\n      add\n        /* \"Story.sol\":5099:5128  request.approvers[msg.sender] */\n      0x00\n        /* \"Story.sol\":5117:5127  msg.sender */\n      caller\n        /* \"Story.sol\":5099:5128  request.approvers[msg.sender] */\n      0xffffffffffffffffffffffffffffffffffffffff\n      and\n      0xffffffffffffffffffffffffffffffffffffffff\n      and\n      dup2\n      mstore\n      0x20\n      add\n      swap1\n      dup2\n      mstore\n      0x20\n      add\n      0x00\n      keccak256\n      0x00\n        /* \"Story.sol\":5099:5135  request.approvers[msg.sender] = true */\n      0x0100\n      exp\n      dup2\n      sload\n      dup2\n      0xff\n      mul\n      not\n      and\n      swap1\n      dup4\n      iszero\n      iszero\n      mul\n      or\n      swap1\n      sstore\n      pop\n        /* \"Story.sol\":5200:5201  1 */\n      0x01\n        /* \"Story.sol\":5175:5182  request */\n      dup2\n        /* \"Story.sol\":5175:5197  request.approversCount */\n      0x03\n      add\n      sload\n        /* \"Story.sol\":5175:5201  request.approversCount + 1 */\n      tag_211\n      swap2\n      swap1\n      tag_153\n      jump\t// in\n    tag_211:\n        /* \"Story.sol\":5150:5157  request */\n      dup2\n        /* \"Story.sol\":5150:5172  request.approversCount */\n      0x03\n      add\n        /* \"Story.sol\":5150:5201  request.approversCount = request.approversCount + 1 */\n      dup2\n      swap1\n      sstore\n      pop\n        /* \"Story.sol\":5347:5348  2 */\n      0x02\n        /* \"Story.sol\":5322:5337  authorsForReact */\n      0x05\n        /* \"Story.sol\":5322:5344  authorsForReact.length */\n      dup1\n      sload\n      swap1\n      pop\n        /* \"Story.sol\":5322:5348  authorsForReact.length / 2 */\n      tag_212\n      swap2\n      swap1\n      tag_155\n      jump\t// in\n    tag_212:\n        /* \"Story.sol\":5296:5303  request */\n      dup2\n        /* \"Story.sol\":5296:5318  request.approversCount */\n      0x03\n      add\n      sload\n        /* \"Story.sol\":5296:5349  request.approversCount > (authorsForReact.length / 2) */\n      gt\n        /* \"Story.sol\":5292:5582  if (request.approversCount > (authorsForReact.length / 2) ) {... */\n      iszero\n      tag_213\n      jumpi\n        /* \"Story.sol\":5467:5471  true */\n      0x01\n        /* \"Story.sol\":5430:5448  authorsForSolidity */\n      0x04\n        /* \"Story.sol\":5430:5464  authorsForSolidity[request.author] */\n      0x00\n        /* \"Story.sol\":5449:5456  request */\n      dup4\n        /* \"Story.sol\":5449:5463  request.author */\n      0x01\n      add\n      0x00\n      swap1\n      sload\n      swap1\n      0x0100\n      exp\n      swap1\n      div\n      0xffffffffffffffffffffffffffffffffffffffff\n      and\n        /* \"Story.sol\":5430:5464  authorsForSolidity[request.author] */\n      0xffffffffffffffffffffffffffffffffffffffff\n      and\n      0xffffffffffffffffffffffffffffffffffffffff\n      and\n      dup2\n      mstore\n      0x20\n      add\n      swap1\n      dup2\n      mstore\n      0x20\n      add\n      0x00\n      keccak256\n      0x00\n        /* \"Story.sol\":5430:5471  authorsForSolidity[request.author] = true */\n      0x0100\n      exp\n      dup2\n      sload\n      dup2\n      0xff\n      mul\n      not\n      and\n      swap1\n      dup4\n      iszero\n      iszero\n      mul\n      or\n      swap1\n      sstore\n      pop\n        /* \"Story.sol\":5490:5505  authorsForReact */\n      0x05\n        /* \"Story.sol\":5511:5518  request */\n      dup2\n        /* \"Story.sol\":5511:5525  request.author */\n      0x01\n      add\n      0x00\n      swap1\n      sload\n      swap1\n      0x0100\n      exp\n      swap1\n      div\n      0xffffffffffffffffffffffffffffffffffffffff\n      and\n        /* \"Story.sol\":5490:5526  authorsForReact.push(request.author) */\n      swap1\n      dup1\n      0x01\n      dup2\n      sload\n      add\n      dup1\n      dup3\n      sstore\n      dup1\n      swap2\n      pop\n      pop\n      0x01\n      swap1\n      sub\n      swap1\n      0x00\n      mstore\n      keccak256(0x00, 0x20)\n      add\n      0x00\n      swap1\n      swap2\n      swap1\n      swap2\n      swap1\n      swap2\n      0x0100\n      exp\n      dup2\n      sload\n      dup2\n      0xffffffffffffffffffffffffffffffffffffffff\n      mul\n      not\n      and\n      swap1\n      dup4\n      0xffffffffffffffffffffffffffffffffffffffff\n      and\n      mul\n      or\n      swap1\n      sstore\n      pop\n        /* \"Story.sol\":5562:5566  true */\n      0x01\n        /* \"Story.sol\":5545:5552  request */\n      dup2\n        /* \"Story.sol\":5545:5559  request.status */\n      0x04\n      add\n      0x00\n        /* \"Story.sol\":5545:5566  request.status = true */\n      0x0100\n      exp\n      dup2\n      sload\n      dup2\n      0xff\n      mul\n      not\n      and\n      swap1\n      dup4\n      iszero\n      iszero\n      mul\n      or\n      swap1\n      sstore\n      pop\n        /* \"Story.sol\":5292:5582  if (request.approversCount > (authorsForReact.length / 2) ) {... */\n    tag_213:\n        /* \"Story.sol\":4664:5593  {... */\n      pop\n        /* \"Story.sol\":1840:1845  false */\n      0x00\n        /* \"Story.sol\":1830:1837  _locked */\n      0x03\n      0x00\n        /* \"Story.sol\":1830:1845  _locked = false */\n      0x0100\n      exp\n      dup2\n      sload\n      dup2\n      0xff\n      mul\n      not\n      and\n      swap1\n      dup4\n      iszero\n      iszero\n      mul\n      or\n      swap1\n      sstore\n      pop\n        /* \"Story.sol\":4598:5593  function approveRequestToJoin(uint256 _index) public noReentrancy {... */\n      pop\n      jump\t// out\n        /* \"Story.sol\":5605:6810  function createChapter(string memory _title, string memory _ipfsHash, address _parentChapter, address _childChapter) public noReentrancy {... */\n    tag_79:\n        /* \"Story.sol\":1744:1751  _locked */\n      0x03\n      0x00\n      swap1\n      sload\n      swap1\n      0x0100\n      exp\n      swap1\n      div\n      0xff\n      and\n        /* \"Story.sol\":1743:1751  !_locked */\n      iszero\n        /* \"Story.sol\":1735:1770  require(!_locked, \"Reentrant call\") */\n      tag_216\n      jumpi\n      mload(0x40)\n      0x08c379a000000000000000000000000000000000000000000000000000000000\n      dup2\n      mstore\n      0x04\n      add\n      tag_217\n      swap1\n      tag_106\n      jump\t// in\n    tag_217:\n      mload(0x40)\n      dup1\n      swap2\n      sub\n      swap1\n      revert\n    tag_216:\n        /* \"Story.sol\":1795:1799  true */\n      0x01\n        /* \"Story.sol\":1785:1792  _locked */\n      0x03\n      0x00\n        /* \"Story.sol\":1785:1799  _locked = true */\n      0x0100\n      exp\n      dup2\n      sload\n      dup2\n      0xff\n      mul\n      not\n      and\n      swap1\n      dup4\n      iszero\n      iszero\n      mul\n      or\n      swap1\n      sstore\n      pop\n        /* \"Story.sol\":5766:5772  bought */\n      0x0a\n      0x14\n      swap1\n      sload\n      swap1\n      0x0100\n      exp\n      swap1\n      div\n      0xff\n      and\n        /* \"Story.sol\":5765:5772  !bought */\n      iszero\n        /* \"Story.sol\":5757:5803  require(!bought, \"This story has been bought\") */\n      tag_219\n      jumpi\n      mload(0x40)\n      0x08c379a000000000000000000000000000000000000000000000000000000000\n      dup2\n      mstore\n      0x04\n      add\n      tag_220\n      swap1\n      tag_110\n      jump\t// in\n    tag_220:\n      mload(0x40)\n      dup1\n      swap2\n      sub\n      swap1\n      revert\n    tag_219:\n        /* \"Story.sol\":5826:5844  authorsForSolidity */\n      0x04\n        /* \"Story.sol\":5826:5856  authorsForSolidity[msg.sender] */\n      0x00\n        /* \"Story.sol\":5845:5855  msg.sender */\n      caller\n        /* \"Story.sol\":5826:5856  authorsForSolidity[msg.sender] */\n      0xffffffffffffffffffffffffffffffffffffffff\n      and\n      0xffffffffffffffffffffffffffffffffffffffff\n      and\n      dup2\n      mstore\n      0x20\n      add\n      swap1\n      dup2\n      mstore\n      0x20\n      add\n      0x00\n      keccak256\n      0x00\n      swap1\n      sload\n      swap1\n      0x0100\n      exp\n      swap1\n      div\n      0xff\n      and\n        /* \"Story.sol\":5818:5905  require(authorsForSolidity[msg.sender], \"Only an accepted author can create a chapter\") */\n      tag_221\n      jumpi\n      mload(0x40)\n      0x08c379a000000000000000000000000000000000000000000000000000000000\n      dup2\n      mstore\n      0x04\n      add\n      tag_222\n      swap1\n      tag_223\n      jump\t// in\n    tag_222:\n      mload(0x40)\n      dup1\n      swap2\n      sub\n      swap1\n      revert\n    tag_221:\n        /* \"Story.sol\":5928:5947  chaptersForSolidity */\n      0x06\n        /* \"Story.sol\":5928:5963  chaptersForSolidity[_parentChapter] */\n      0x00\n        /* \"Story.sol\":5948:5962  _parentChapter */\n      dup4\n        /* \"Story.sol\":5928:5963  chaptersForSolidity[_parentChapter] */\n      0xffffffffffffffffffffffffffffffffffffffff\n      and\n      0xffffffffffffffffffffffffffffffffffffffff\n      and\n      dup2\n      mstore\n      0x20\n      add\n      swap1\n      dup2\n      mstore\n      0x20\n      add\n      0x00\n      keccak256\n      0x00\n      swap1\n      sload\n      swap1\n      0x0100\n      exp\n      swap1\n      div\n      0xff\n      and\n        /* \"Story.sol\":5928:5997  chaptersForSolidity[_parentChapter] || (_parentChapter == address(0)) */\n      dup1\n      tag_224\n      jumpi\n      pop\n        /* \"Story.sol\":5994:5995  0 */\n      0x00\n        /* \"Story.sol\":5968:5996  _parentChapter == address(0) */\n      0xffffffffffffffffffffffffffffffffffffffff\n      and\n        /* \"Story.sol\":5968:5982  _parentChapter */\n      dup3\n        /* \"Story.sol\":5968:5996  _parentChapter == address(0) */\n      0xffffffffffffffffffffffffffffffffffffffff\n      and\n      eq\n        /* \"Story.sol\":5928:5997  chaptersForSolidity[_parentChapter] || (_parentChapter == address(0)) */\n    tag_224:\n        /* \"Story.sol\":5920:6046  require(chaptersForSolidity[_parentChapter] || (_parentChapter == address(0)), \"Parent chapter must belong to the same story\") */\n      tag_225\n      jumpi\n      mload(0x40)\n      0x08c379a000000000000000000000000000000000000000000000000000000000\n      dup2\n      mstore\n      0x04\n      add\n      tag_226\n      swap1\n      tag_227\n      jump\t// in\n    tag_226:\n      mload(0x40)\n      dup1\n      swap2\n      sub\n      swap1\n      revert\n    tag_225:\n        /* \"Story.sol\":6069:6088  chaptersForSolidity */\n      0x06\n        /* \"Story.sol\":6069:6103  chaptersForSolidity[_childChapter] */\n      0x00\n        /* \"Story.sol\":6089:6102  _childChapter */\n      dup3\n        /* \"Story.sol\":6069:6103  chaptersForSolidity[_childChapter] */\n      0xffffffffffffffffffffffffffffffffffffffff\n      and\n      0xffffffffffffffffffffffffffffffffffffffff\n      and\n      dup2\n      mstore\n      0x20\n      add\n      swap1\n      dup2\n      mstore\n      0x20\n      add\n      0x00\n      keccak256\n      0x00\n      swap1\n      sload\n      swap1\n      0x0100\n      exp\n      swap1\n      div\n      0xff\n      and\n        /* \"Story.sol\":6069:6136  chaptersForSolidity[_childChapter] || (_childChapter == address(0)) */\n      dup1\n      tag_228\n      jumpi\n      pop\n        /* \"Story.sol\":6133:6134  0 */\n      0x00\n        /* \"Story.sol\":6108:6135  _childChapter == address(0) */\n      0xffffffffffffffffffffffffffffffffffffffff\n      and\n        /* \"Story.sol\":6108:6121  _childChapter */\n      dup2\n        /* \"Story.sol\":6108:6135  _childChapter == address(0) */\n      0xffffffffffffffffffffffffffffffffffffffff\n      and\n      eq\n        /* \"Story.sol\":6069:6136  chaptersForSolidity[_childChapter] || (_childChapter == address(0)) */\n    tag_228:\n        /* \"Story.sol\":6061:6184  require(chaptersForSolidity[_childChapter] || (_childChapter == address(0)), \"Child chapter must belong to the same story\") */\n      tag_229\n      jumpi\n      mload(0x40)\n      0x08c379a000000000000000000000000000000000000000000000000000000000\n      dup2\n      mstore\n      0x04\n      add\n      tag_230\n      swap1\n      tag_231\n      jump\t// in\n    tag_230:\n      mload(0x40)\n      dup1\n      swap2\n      sub\n      swap1\n      revert\n    tag_229:\n        /* \"Story.sol\":6201:6219  Chapter newChapter */\n      0x00\n        /* \"Story.sol\":6234:6244  msg.sender */\n      caller\n        /* \"Story.sol\":6254:6258  this */\n      address\n        /* \"Story.sol\":6261:6267  _title */\n      dup7\n        /* \"Story.sol\":6269:6278  _ipfsHash */\n      dup7\n        /* \"Story.sol\":6280:6294  _parentChapter */\n      dup7\n        /* \"Story.sol\":6296:6309  _childChapter */\n      dup7\n        /* \"Story.sol\":6222:6310  new Chapter(msg.sender, address(this), _title, _ipfsHash, _parentChapter, _childChapter) */\n      mload(0x40)\n      tag_232\n      swap1\n      tag_233\n      jump\t// in\n    tag_232:\n      tag_234\n      swap7\n      swap6\n      swap5\n      swap4\n      swap3\n      swap2\n      swap1\n      tag_235\n      jump\t// in\n    tag_234:\n      mload(0x40)\n      dup1\n      swap2\n      sub\n      swap1\n      0x00\n      create\n      dup1\n      iszero\n      dup1\n      iszero\n      tag_236\n      jumpi\n      returndatasize\n      0x00\n      dup1\n      returndatacopy\n      revert(0x00, returndatasize)\n    tag_236:\n      pop\n        /* \"Story.sol\":6201:6310  Chapter newChapter = new Chapter(msg.sender, address(this), _title, _ipfsHash, _parentChapter, _childChapter) */\n      swap1\n      pop\n        /* \"Story.sol\":6355:6356  0 */\n      0x00\n        /* \"Story.sol\":6329:6357  _parentChapter != address(0) */\n      0xffffffffffffffffffffffffffffffffffffffff\n      and\n        /* \"Story.sol\":6329:6343  _parentChapter */\n      dup4\n        /* \"Story.sol\":6329:6357  _parentChapter != address(0) */\n      0xffffffffffffffffffffffffffffffffffffffff\n      and\n      eq\n        /* \"Story.sol\":6325:6497  if (_parentChapter != address(0)) {... */\n      tag_237\n      jumpi\n        /* \"Story.sol\":6378:6392  Chapter parent */\n      0x00\n        /* \"Story.sol\":6403:6417  _parentChapter */\n      dup4\n        /* \"Story.sol\":6378:6418  Chapter parent = Chapter(_parentChapter) */\n      swap1\n      pop\n        /* \"Story.sol\":6437:6443  parent */\n      dup1\n        /* \"Story.sol\":6437:6460  parent.linkChildChapter */\n      0xffffffffffffffffffffffffffffffffffffffff\n      and\n      0x988e46c8\n        /* \"Story.sol\":6469:6479  newChapter */\n      dup4\n        /* \"Story.sol\":6437:6481  parent.linkChildChapter(address(newChapter)) */\n      mload(0x40)\n      dup3\n      0xffffffff\n      and\n      0xe0\n      shl\n      dup2\n      mstore\n      0x04\n      add\n      tag_238\n      swap2\n      swap1\n      tag_70\n      jump\t// in\n    tag_238:\n      0x00\n      mload(0x40)\n      dup1\n      dup4\n      sub\n      dup2\n      0x00\n      dup8\n      dup1\n      extcodesize\n      iszero\n      dup1\n      iszero\n      tag_239\n      jumpi\n      0x00\n      dup1\n      revert\n    tag_239:\n      pop\n      gas\n      call\n      iszero\n      dup1\n      iszero\n      tag_241\n      jumpi\n      returndatasize\n      0x00\n      dup1\n      returndatacopy\n      revert(0x00, returndatasize)\n    tag_241:\n      pop\n      pop\n      pop\n      pop\n        /* \"Story.sol\":6359:6497  {... */\n      pop\n        /* \"Story.sol\":6325:6497  if (_parentChapter != address(0)) {... */\n    tag_237:\n        /* \"Story.sol\":6540:6541  0 */\n      0x00\n        /* \"Story.sol\":6515:6542  _childChapter != address(0) */\n      0xffffffffffffffffffffffffffffffffffffffff\n      and\n        /* \"Story.sol\":6515:6528  _childChapter */\n      dup3\n        /* \"Story.sol\":6515:6542  _childChapter != address(0) */\n      0xffffffffffffffffffffffffffffffffffffffff\n      and\n      eq\n        /* \"Story.sol\":6511:6680  if (_childChapter != address(0)) {... */\n      tag_242\n      jumpi\n        /* \"Story.sol\":6563:6576  Chapter child */\n      0x00\n        /* \"Story.sol\":6587:6600  _childChapter */\n      dup3\n        /* \"Story.sol\":6563:6601  Chapter child = Chapter(_childChapter) */\n      swap1\n      pop\n        /* \"Story.sol\":6620:6625  child */\n      dup1\n        /* \"Story.sol\":6620:6643  child.linkParentChapter */\n      0xffffffffffffffffffffffffffffffffffffffff\n      and\n      0x8758ce83\n        /* \"Story.sol\":6652:6662  newChapter */\n      dup4\n        /* \"Story.sol\":6620:6664  child.linkParentChapter(address(newChapter)) */\n      mload(0x40)\n      dup3\n      0xffffffff\n      and\n      0xe0\n      shl\n      dup2\n      mstore\n      0x04\n      add\n      tag_243\n      swap2\n      swap1\n      tag_70\n      jump\t// in\n    tag_243:\n      0x00\n      mload(0x40)\n      dup1\n      dup4\n      sub\n      dup2\n      0x00\n      dup8\n      dup1\n      extcodesize\n      iszero\n      dup1\n      iszero\n      tag_244\n      jumpi\n      0x00\n      dup1\n      revert\n    tag_244:\n      pop\n      gas\n      call\n      iszero\n      dup1\n      iszero\n      tag_246\n      jumpi\n      returndatasize\n      0x00\n      dup1\n      returndatacopy\n      revert(0x00, returndatasize)\n    tag_246:\n      pop\n      pop\n      pop\n      pop\n        /* \"Story.sol\":6544:6680  {... */\n      pop\n        /* \"Story.sol\":6511:6680  if (_childChapter != address(0)) {... */\n    tag_242:\n        /* \"Story.sol\":6694:6710  chaptersForReact */\n      0x07\n        /* \"Story.sol\":6724:6734  newChapter */\n      dup2\n        /* \"Story.sol\":6694:6736  chaptersForReact.push(address(newChapter)) */\n      swap1\n      dup1\n      0x01\n      dup2\n      sload\n      add\n      dup1\n      dup3\n      sstore\n      dup1\n      swap2\n      pop\n      pop\n      0x01\n      swap1\n      sub\n      swap1\n      0x00\n      mstore\n      keccak256(0x00, 0x20)\n      add\n      0x00\n      swap1\n      swap2\n      swap1\n      swap2\n      swap1\n      swap2\n      0x0100\n      exp\n      dup2\n      sload\n      dup2\n      0xffffffffffffffffffffffffffffffffffffffff\n      mul\n      not\n      and\n      swap1\n      dup4\n      0xffffffffffffffffffffffffffffffffffffffff\n      and\n      mul\n      or\n      swap1\n      sstore\n      pop\n        /* \"Story.sol\":6794:6798  true */\n      0x01\n        /* \"Story.sol\":6751:6770  chaptersForSolidity */\n      0x06\n        /* \"Story.sol\":6751:6791  chaptersForSolidity[address(newChapter)] */\n      0x00\n        /* \"Story.sol\":6779:6789  newChapter */\n      dup4\n        /* \"Story.sol\":6751:6791  chaptersForSolidity[address(newChapter)] */\n      0xffffffffffffffffffffffffffffffffffffffff\n      and\n      0xffffffffffffffffffffffffffffffffffffffff\n      and\n      dup2\n      mstore\n      0x20\n      add\n      swap1\n      dup2\n      mstore\n      0x20\n      add\n      0x00\n      keccak256\n      0x00\n        /* \"Story.sol\":6751:6798  chaptersForSolidity[address(newChapter)] = true */\n      0x0100\n      exp\n      dup2\n      sload\n      dup2\n      0xff\n      mul\n      not\n      and\n      swap1\n      dup4\n      iszero\n      iszero\n      mul\n      or\n      swap1\n      sstore\n      pop\n        /* \"Story.sol\":5742:6810  {... */\n      pop\n        /* \"Story.sol\":1840:1845  false */\n      0x00\n        /* \"Story.sol\":1830:1837  _locked */\n      0x03\n      0x00\n        /* \"Story.sol\":1830:1845  _locked = false */\n      0x0100\n      exp\n      dup2\n      sload\n      dup2\n      0xff\n      mul\n      not\n      and\n      swap1\n      dup4\n      iszero\n      iszero\n      mul\n      or\n      swap1\n      sstore\n      pop\n        /* \"Story.sol\":5605:6810  function createChapter(string memory _title, string memory _ipfsHash, address _parentChapter, address _childChapter) public noReentrancy {... */\n      pop\n      pop\n      pop\n      pop\n      jump\t// out\n        /* \"Story.sol\":963:995  address[] public authorsForReact */\n    tag_83:\n      0x05\n      dup2\n      dup2\n      sload\n      dup2\n      lt\n      tag_248\n      jumpi\n      0x00\n      dup1\n      revert\n    tag_248:\n      swap1\n      0x00\n      mstore\n      keccak256(0x00, 0x20)\n      add\n      0x00\n      swap2\n      pop\n      sload\n      swap1\n      0x0100\n      exp\n      swap1\n      div\n      0xffffffffffffffffffffffffffffffffffffffff\n      and\n      dup2\n      jump\t// out\n        /* \"Story.sol\":1068:1101  address[] public chaptersForReact */\n    tag_88:\n      0x07\n      dup2\n      dup2\n      sload\n      dup2\n      lt\n      tag_250\n      jumpi\n      0x00\n      dup1\n      revert\n    tag_250:\n      swap1\n      0x00\n      mstore\n      keccak256(0x00, 0x20)\n      add\n      0x00\n      swap2\n      pop\n      sload\n      swap1\n      0x0100\n      exp\n      swap1\n      div\n      0xffffffffffffffffffffffffffffffffffffffff\n      and\n      dup2\n      jump\t// out\n        /* \"Story.sol\":834:858  string public coverPhoto */\n    tag_92:\n      0x02\n      dup1\n      sload\n      tag_252\n      swap1\n      tag_114\n      jump\t// in\n    tag_252:\n      dup1\n      0x1f\n      add\n      0x20\n      dup1\n      swap2\n      div\n      mul\n      0x20\n      add\n      mload(0x40)\n      swap1\n      dup2\n      add\n      0x40\n      mstore\n      dup1\n      swap3\n      swap2\n      swap1\n      dup2\n      dup2\n      mstore\n      0x20\n      add\n      dup3\n      dup1\n      sload\n      tag_253\n      swap1\n      tag_114\n      jump\t// in\n    tag_253:\n      dup1\n      iszero\n      tag_254\n      jumpi\n      dup1\n      0x1f\n      lt\n      tag_255\n      jumpi\n      0x0100\n      dup1\n      dup4\n      sload\n      div\n      mul\n      dup4\n      mstore\n      swap2\n      0x20\n      add\n      swap2\n      jump(tag_254)\n    tag_255:\n      dup3\n      add\n      swap2\n      swap1\n      0x00\n      mstore\n      keccak256(0x00, 0x20)\n      swap1\n    tag_256:\n      dup2\n      sload\n      dup2\n      mstore\n      swap1\n      0x01\n      add\n      swap1\n      0x20\n      add\n      dup1\n      dup4\n      gt\n      tag_256\n      jumpi\n      dup3\n      swap1\n      sub\n      0x1f\n      and\n      dup3\n      add\n      swap2\n    tag_254:\n      pop\n      pop\n      pop\n      pop\n      pop\n      dup2\n      jump\t// out\n        /* \"Story.sol\":4164:4576  function createRequestToJoin(string memory _proposal) public noReentrancy {... */\n    tag_98:\n        /* \"Story.sol\":1744:1751  _locked */\n      0x03\n      0x00\n      swap1\n      sload\n      swap1\n      0x0100\n      exp\n      swap1\n      div\n      0xff\n      and\n        /* \"Story.sol\":1743:1751  !_locked */\n      iszero\n        /* \"Story.sol\":1735:1770  require(!_locked, \"Reentrant call\") */\n      tag_258\n      jumpi\n      mload(0x40)\n      0x08c379a000000000000000000000000000000000000000000000000000000000\n      dup2\n      mstore\n      0x04\n      add\n      tag_259\n      swap1\n      tag_106\n      jump\t// in\n    tag_259:\n      mload(0x40)\n      dup1\n      swap2\n      sub\n      swap1\n      revert\n    tag_258:\n        /* \"Story.sol\":1795:1799  true */\n      0x01\n        /* \"Story.sol\":1785:1792  _locked */\n      0x03\n      0x00\n        /* \"Story.sol\":1785:1799  _locked = true */\n      0x0100\n      exp\n      dup2\n      sload\n      dup2\n      0xff\n      mul\n      not\n      and\n      swap1\n      dup4\n      iszero\n      iszero\n      mul\n      or\n      swap1\n      sstore\n      pop\n        /* \"Story.sol\":4262:4268  bought */\n      0x0a\n      0x14\n      swap1\n      sload\n      swap1\n      0x0100\n      exp\n      swap1\n      div\n      0xff\n      and\n        /* \"Story.sol\":4261:4268  !bought */\n      iszero\n        /* \"Story.sol\":4253:4299  require(!bought, \"This story has been bought\") */\n      tag_261\n      jumpi\n      mload(0x40)\n      0x08c379a000000000000000000000000000000000000000000000000000000000\n      dup2\n      mstore\n      0x04\n      add\n      tag_262\n      swap1\n      tag_110\n      jump\t// in\n    tag_262:\n      mload(0x40)\n      dup1\n      swap2\n      sub\n      swap1\n      revert\n    tag_261:\n        /* \"Story.sol\":4323:4341  authorsForSolidity */\n      0x04\n        /* \"Story.sol\":4323:4353  authorsForSolidity[msg.sender] */\n      0x00\n        /* \"Story.sol\":4342:4352  msg.sender */\n      caller\n        /* \"Story.sol\":4323:4353  authorsForSolidity[msg.sender] */\n      0xffffffffffffffffffffffffffffffffffffffff\n      and\n      0xffffffffffffffffffffffffffffffffffffffff\n      and\n      dup2\n      mstore\n      0x20\n      add\n      swap1\n      dup2\n      mstore\n      0x20\n      add\n      0x00\n      keccak256\n      0x00\n      swap1\n      sload\n      swap1\n      0x0100\n      exp\n      swap1\n      div\n      0xff\n      and\n        /* \"Story.sol\":4322:4353  !authorsForSolidity[msg.sender] */\n      iszero\n        /* \"Story.sol\":4314:4402  require(!authorsForSolidity[msg.sender], \"Author already exists in the list of authors\") */\n      tag_263\n      jumpi\n      mload(0x40)\n      0x08c379a000000000000000000000000000000000000000000000000000000000\n      dup2\n      mstore\n      0x04\n      add\n      tag_264\n      swap1\n      tag_265\n      jump\t// in\n    tag_264:\n      mload(0x40)\n      dup1\n      swap2\n      sub\n      swap1\n      revert\n    tag_263:\n        /* \"Story.sol\":4417:4449  RequestToJoin storage newRequest */\n      0x00\n        /* \"Story.sol\":4452:4466  requestsToJoin */\n      0x08\n        /* \"Story.sol\":4452:4473  requestsToJoin.push() */\n      0x01\n      dup2\n      0x01\n      dup2\n      sload\n      add\n      dup1\n      dup3\n      sstore\n      dup1\n      swap2\n      pop\n      pop\n      sub\n      swap1\n      0x00\n      mstore\n      keccak256(0x00, 0x20)\n      swap1\n      0x05\n      mul\n      add\n        /* \"Story.sol\":4417:4473  RequestToJoin storage newRequest = requestsToJoin.push() */\n      swap1\n      pop\n        /* \"Story.sol\":4510:4519  _proposal */\n      dup2\n        /* \"Story.sol\":4488:4498  newRequest */\n      dup2\n        /* \"Story.sol\":4488:4507  newRequest.proposal */\n      0x00\n      add\n        /* \"Story.sol\":4488:4519  newRequest.proposal = _proposal */\n      swap1\n      dup1\n      mload\n      swap1\n      0x20\n      add\n      swap1\n      tag_267\n      swap3\n      swap2\n      swap1\n      tag_268\n      jump\t// in\n    tag_267:\n      pop\n        /* \"Story.sol\":4554:4564  msg.sender */\n      caller\n        /* \"Story.sol\":4534:4544  newRequest */\n      dup2\n        /* \"Story.sol\":4534:4551  newRequest.author */\n      0x01\n      add\n      0x00\n        /* \"Story.sol\":4534:4564  newRequest.author = msg.sender */\n      0x0100\n      exp\n      dup2\n      sload\n      dup2\n      0xffffffffffffffffffffffffffffffffffffffff\n      mul\n      not\n      and\n      swap1\n      dup4\n      0xffffffffffffffffffffffffffffffffffffffff\n      and\n      mul\n      or\n      swap1\n      sstore\n      pop\n        /* \"Story.sol\":4238:4576  {... */\n      pop\n        /* \"Story.sol\":1840:1845  false */\n      0x00\n        /* \"Story.sol\":1830:1837  _locked */\n      0x03\n      0x00\n        /* \"Story.sol\":1830:1845  _locked = false */\n      0x0100\n      exp\n      dup2\n      sload\n      dup2\n      0xff\n      mul\n      not\n      and\n      swap1\n      dup4\n      iszero\n      iszero\n      mul\n      or\n      swap1\n      sstore\n      pop\n        /* \"Story.sol\":4164:4576  function createRequestToJoin(string memory _proposal) public noReentrancy {... */\n      pop\n      jump\t// out\n        /* \"Story.sol\":801:823  string public mainIdea */\n    tag_101:\n      0x01\n      dup1\n      sload\n      tag_269\n      swap1\n      tag_114\n      jump\t// in\n    tag_269:\n      dup1\n      0x1f\n      add\n      0x20\n      dup1\n      swap2\n      div\n      mul\n      0x20\n      add\n      mload(0x40)\n      swap1\n      dup2\n      add\n      0x40\n      mstore\n      dup1\n      swap3\n      swap2\n      swap1\n      dup2\n      dup2\n      mstore\n      0x20\n      add\n      dup3\n      dup1\n      sload\n      tag_270\n      swap1\n      tag_114\n      jump\t// in\n    tag_270:\n      dup1\n      iszero\n      tag_271\n      jumpi\n      dup1\n      0x1f\n      lt\n      tag_272\n      jumpi\n      0x0100\n      dup1\n      dup4\n      sload\n      div\n      mul\n      dup4\n      mstore\n      swap2\n      0x20\n      add\n      swap2\n      jump(tag_271)\n    tag_272:\n      dup3\n      add\n      swap2\n      swap1\n      0x00\n      mstore\n      keccak256(0x00, 0x20)\n      swap1\n    tag_273:\n      dup2\n      sload\n      dup2\n      mstore\n      swap1\n      0x01\n      add\n      swap1\n      0x20\n      add\n      dup1\n      dup4\n      gt\n      tag_273\n      jumpi\n      dup3\n      swap1\n      sub\n      0x1f\n      and\n      dup3\n      add\n      swap2\n    tag_271:\n      pop\n      pop\n      pop\n      pop\n      pop\n      dup2\n      jump\t// out\n    tag_233:\n      dataSize(sub_0)\n      dup1\n      dataOffset(sub_0)\n      dup4\n      codecopy\n      add\n      swap1\n      jump\t// out\n    tag_268:\n      dup3\n      dup1\n      sload\n      tag_274\n      swap1\n      tag_114\n      jump\t// in\n    tag_274:\n      swap1\n      0x00\n      mstore\n      keccak256(0x00, 0x20)\n      swap1\n      0x1f\n      add\n      0x20\n      swap1\n      div\n      dup2\n      add\n      swap3\n      dup3\n      tag_276\n      jumpi\n      0x00\n      dup6\n      sstore\n      jump(tag_275)\n    tag_276:\n      dup3\n      0x1f\n      lt\n      tag_277\n      jumpi\n      dup1\n      mload\n      not(0xff)\n      and\n      dup4\n      dup1\n      add\n      or\n      dup6\n      sstore\n      jump(tag_275)\n    tag_277:\n      dup3\n      dup1\n      add\n      0x01\n      add\n      dup6\n      sstore\n      dup3\n      iszero\n      tag_275\n      jumpi\n      swap2\n      dup3\n      add\n    tag_278:\n      dup3\n      dup2\n      gt\n      iszero\n      tag_279\n      jumpi\n      dup3\n      mload\n      dup3\n      sstore\n      swap2\n      0x20\n      add\n      swap2\n      swap1\n      0x01\n      add\n      swap1\n      jump(tag_278)\n    tag_279:\n    tag_275:\n      pop\n      swap1\n      pop\n      tag_280\n      swap2\n      swap1\n      tag_281\n      jump\t// in\n    tag_280:\n      pop\n      swap1\n      jump\t// out\n    tag_281:\n    tag_282:\n      dup1\n      dup3\n      gt\n      iszero\n      tag_283\n      jumpi\n      0x00\n      dup2\n      0x00\n      swap1\n      sstore\n      pop\n      0x01\n      add\n      jump(tag_282)\n    tag_283:\n      pop\n      swap1\n      jump\t// out\n        /* \"#utility.yul\":7:97   */\n    tag_284:\n        /* \"#utility.yul\":41:48   */\n      0x00\n        /* \"#utility.yul\":84:89   */\n      dup2\n        /* \"#utility.yul\":77:90   */\n      iszero\n        /* \"#utility.yul\":70:91   */\n      iszero\n        /* \"#utility.yul\":59:91   */\n      swap1\n      pop\n        /* \"#utility.yul\":7:97   */\n      swap2\n      swap1\n      pop\n      jump\t// out\n        /* \"#utility.yul\":103:212   */\n    tag_285:\n        /* \"#utility.yul\":184:205   */\n      tag_343\n        /* \"#utility.yul\":199:204   */\n      dup2\n        /* \"#utility.yul\":184:205   */\n      tag_284\n      jump\t// in\n    tag_343:\n        /* \"#utility.yul\":179:182   */\n      dup3\n        /* \"#utility.yul\":172:206   */\n      mstore\n        /* \"#utility.yul\":103:212   */\n      pop\n      pop\n      jump\t// out\n        /* \"#utility.yul\":218:428   */\n    tag_28:\n        /* \"#utility.yul\":305:309   */\n      0x00\n        /* \"#utility.yul\":343:345   */\n      0x20\n        /* \"#utility.yul\":332:341   */\n      dup3\n        /* \"#utility.yul\":328:346   */\n      add\n        /* \"#utility.yul\":320:346   */\n      swap1\n      pop\n        /* \"#utility.yul\":356:421   */\n      tag_345\n        /* \"#utility.yul\":418:419   */\n      0x00\n        /* \"#utility.yul\":407:416   */\n      dup4\n        /* \"#utility.yul\":403:420   */\n      add\n        /* \"#utility.yul\":394:400   */\n      dup5\n        /* \"#utility.yul\":356:421   */\n      tag_285\n      jump\t// in\n    tag_345:\n        /* \"#utility.yul\":218:428   */\n      swap3\n      swap2\n      pop\n      pop\n      jump\t// out\n        /* \"#utility.yul\":434:509   */\n    tag_286:\n        /* \"#utility.yul\":467:473   */\n      0x00\n        /* \"#utility.yul\":500:502   */\n      0x40\n        /* \"#utility.yul\":494:503   */\n      mload\n        /* \"#utility.yul\":484:503   */\n      swap1\n      pop\n        /* \"#utility.yul\":434:509   */\n      swap1\n      jump\t// out\n        /* \"#utility.yul\":515:632   */\n    tag_287:\n        /* \"#utility.yul\":624:625   */\n      0x00\n        /* \"#utility.yul\":621:622   */\n      dup1\n        /* \"#utility.yul\":614:626   */\n      revert\n        /* \"#utility.yul\":638:755   */\n    tag_288:\n        /* \"#utility.yul\":747:748   */\n      0x00\n        /* \"#utility.yul\":744:745   */\n      dup1\n        /* \"#utility.yul\":737:749   */\n      revert\n        /* \"#utility.yul\":761:887   */\n    tag_289:\n        /* \"#utility.yul\":798:805   */\n      0x00\n        /* \"#utility.yul\":838:880   */\n      0xffffffffffffffffffffffffffffffffffffffff\n        /* \"#utility.yul\":831:836   */\n      dup3\n        /* \"#utility.yul\":827:881   */\n      and\n        /* \"#utility.yul\":816:881   */\n      swap1\n      pop\n        /* \"#utility.yul\":761:887   */\n      swap2\n      swap1\n      pop\n      jump\t// out\n        /* \"#utility.yul\":893:989   */\n    tag_290:\n        /* \"#utility.yul\":930:937   */\n      0x00\n        /* \"#utility.yul\":959:983   */\n      tag_351\n        /* \"#utility.yul\":977:982   */\n      dup3\n        /* \"#utility.yul\":959:983   */\n      tag_289\n      jump\t// in\n    tag_351:\n        /* \"#utility.yul\":948:983   */\n      swap1\n      pop\n        /* \"#utility.yul\":893:989   */\n      swap2\n      swap1\n      pop\n      jump\t// out\n        /* \"#utility.yul\":995:1117   */\n    tag_291:\n        /* \"#utility.yul\":1068:1092   */\n      tag_353\n        /* \"#utility.yul\":1086:1091   */\n      dup2\n        /* \"#utility.yul\":1068:1092   */\n      tag_290\n      jump\t// in\n    tag_353:\n        /* \"#utility.yul\":1061:1066   */\n      dup2\n        /* \"#utility.yul\":1058:1093   */\n      eq\n        /* \"#utility.yul\":1048:1111   */\n      tag_354\n      jumpi\n        /* \"#utility.yul\":1107:1108   */\n      0x00\n        /* \"#utility.yul\":1104:1105   */\n      dup1\n        /* \"#utility.yul\":1097:1109   */\n      revert\n        /* \"#utility.yul\":1048:1111   */\n    tag_354:\n        /* \"#utility.yul\":995:1117   */\n      pop\n      jump\t// out\n        /* \"#utility.yul\":1123:1262   */\n    tag_292:\n        /* \"#utility.yul\":1169:1174   */\n      0x00\n        /* \"#utility.yul\":1207:1213   */\n      dup2\n        /* \"#utility.yul\":1194:1214   */\n      calldataload\n        /* \"#utility.yul\":1185:1214   */\n      swap1\n      pop\n        /* \"#utility.yul\":1223:1256   */\n      tag_356\n        /* \"#utility.yul\":1250:1255   */\n      dup2\n        /* \"#utility.yul\":1223:1256   */\n      tag_291\n      jump\t// in\n    tag_356:\n        /* \"#utility.yul\":1123:1262   */\n      swap3\n      swap2\n      pop\n      pop\n      jump\t// out\n        /* \"#utility.yul\":1268:1597   */\n    tag_32:\n        /* \"#utility.yul\":1327:1333   */\n      0x00\n        /* \"#utility.yul\":1376:1378   */\n      0x20\n        /* \"#utility.yul\":1364:1373   */\n      dup3\n        /* \"#utility.yul\":1355:1362   */\n      dup5\n        /* \"#utility.yul\":1351:1374   */\n      sub\n        /* \"#utility.yul\":1347:1379   */\n      slt\n        /* \"#utility.yul\":1344:1463   */\n      iszero\n      tag_358\n      jumpi\n        /* \"#utility.yul\":1382:1461   */\n      tag_359\n      tag_287\n      jump\t// in\n    tag_359:\n        /* \"#utility.yul\":1344:1463   */\n    tag_358:\n        /* \"#utility.yul\":1502:1503   */\n      0x00\n        /* \"#utility.yul\":1527:1580   */\n      tag_360\n        /* \"#utility.yul\":1572:1579   */\n      dup5\n        /* \"#utility.yul\":1563:1569   */\n      dup3\n        /* \"#utility.yul\":1552:1561   */\n      dup6\n        /* \"#utility.yul\":1548:1570   */\n      add\n        /* \"#utility.yul\":1527:1580   */\n      tag_292\n      jump\t// in\n    tag_360:\n        /* \"#utility.yul\":1517:1580   */\n      swap2\n      pop\n        /* \"#utility.yul\":1473:1590   */\n      pop\n        /* \"#utility.yul\":1268:1597   */\n      swap3\n      swap2\n      pop\n      pop\n      jump\t// out\n        /* \"#utility.yul\":1603:1702   */\n    tag_293:\n        /* \"#utility.yul\":1655:1661   */\n      0x00\n        /* \"#utility.yul\":1689:1694   */\n      dup2\n        /* \"#utility.yul\":1683:1695   */\n      mload\n        /* \"#utility.yul\":1673:1695   */\n      swap1\n      pop\n        /* \"#utility.yul\":1603:1702   */\n      swap2\n      swap1\n      pop\n      jump\t// out\n        /* \"#utility.yul\":1708:1877   */\n    tag_294:\n        /* \"#utility.yul\":1792:1803   */\n      0x00\n        /* \"#utility.yul\":1826:1832   */\n      dup3\n        /* \"#utility.yul\":1821:1824   */\n      dup3\n        /* \"#utility.yul\":1814:1833   */\n      mstore\n        /* \"#utility.yul\":1866:1870   */\n      0x20\n        /* \"#utility.yul\":1861:1864   */\n      dup3\n        /* \"#utility.yul\":1857:1871   */\n      add\n        /* \"#utility.yul\":1842:1871   */\n      swap1\n      pop\n        /* \"#utility.yul\":1708:1877   */\n      swap3\n      swap2\n      pop\n      pop\n      jump\t// out\n        /* \"#utility.yul\":1883:2190   */\n    tag_295:\n        /* \"#utility.yul\":1951:1952   */\n      0x00\n        /* \"#utility.yul\":1961:2074   */\n    tag_364:\n        /* \"#utility.yul\":1975:1981   */\n      dup4\n        /* \"#utility.yul\":1972:1973   */\n      dup2\n        /* \"#utility.yul\":1969:1982   */\n      lt\n        /* \"#utility.yul\":1961:2074   */\n      iszero\n      tag_366\n      jumpi\n        /* \"#utility.yul\":2060:2061   */\n      dup1\n        /* \"#utility.yul\":2055:2058   */\n      dup3\n        /* \"#utility.yul\":2051:2062   */\n      add\n        /* \"#utility.yul\":2045:2063   */\n      mload\n        /* \"#utility.yul\":2041:2042   */\n      dup2\n        /* \"#utility.yul\":2036:2039   */\n      dup5\n        /* \"#utility.yul\":2032:2043   */\n      add\n        /* \"#utility.yul\":2025:2064   */\n      mstore\n        /* \"#utility.yul\":1997:1999   */\n      0x20\n        /* \"#utility.yul\":1994:1995   */\n      dup2\n        /* \"#utility.yul\":1990:2000   */\n      add\n        /* \"#utility.yul\":1985:2000   */\n      swap1\n      pop\n        /* \"#utility.yul\":1961:2074   */\n      jump(tag_364)\n    tag_366:\n        /* \"#utility.yul\":2092:2098   */\n      dup4\n        /* \"#utility.yul\":2089:2090   */\n      dup2\n        /* \"#utility.yul\":2086:2099   */\n      gt\n        /* \"#utility.yul\":2083:2184   */\n      iszero\n      tag_367\n      jumpi\n        /* \"#utility.yul\":2172:2173   */\n      0x00\n        /* \"#utility.yul\":2163:2169   */\n      dup5\n        /* \"#utility.yul\":2158:2161   */\n      dup5\n        /* \"#utility.yul\":2154:2170   */\n      add\n        /* \"#utility.yul\":2147:2174   */\n      mstore\n        /* \"#utility.yul\":2083:2184   */\n    tag_367:\n        /* \"#utility.yul\":1932:2190   */\n      pop\n        /* \"#utility.yul\":1883:2190   */\n      pop\n      pop\n      pop\n      jump\t// out\n        /* \"#utility.yul\":2196:2298   */\n    tag_296:\n        /* \"#utility.yul\":2237:2243   */\n      0x00\n        /* \"#utility.yul\":2288:2290   */\n      0x1f\n        /* \"#utility.yul\":2284:2291   */\n      not\n        /* \"#utility.yul\":2279:2281   */\n      0x1f\n        /* \"#utility.yul\":2272:2277   */\n      dup4\n        /* \"#utility.yul\":2268:2282   */\n      add\n        /* \"#utility.yul\":2264:2292   */\n      and\n        /* \"#utility.yul\":2254:2292   */\n      swap1\n      pop\n        /* \"#utility.yul\":2196:2298   */\n      swap2\n      swap1\n      pop\n      jump\t// out\n        /* \"#utility.yul\":2304:2668   */\n    tag_297:\n        /* \"#utility.yul\":2392:2395   */\n      0x00\n        /* \"#utility.yul\":2420:2459   */\n      tag_370\n        /* \"#utility.yul\":2453:2458   */\n      dup3\n        /* \"#utility.yul\":2420:2459   */\n      tag_293\n      jump\t// in\n    tag_370:\n        /* \"#utility.yul\":2475:2546   */\n      tag_371\n        /* \"#utility.yul\":2539:2545   */\n      dup2\n        /* \"#utility.yul\":2534:2537   */\n      dup6\n        /* \"#utility.yul\":2475:2546   */\n      tag_294\n      jump\t// in\n    tag_371:\n        /* \"#utility.yul\":2468:2546   */\n      swap4\n      pop\n        /* \"#utility.yul\":2555:2607   */\n      tag_372\n        /* \"#utility.yul\":2600:2606   */\n      dup2\n        /* \"#utility.yul\":2595:2598   */\n      dup6\n        /* \"#utility.yul\":2588:2592   */\n      0x20\n        /* \"#utility.yul\":2581:2586   */\n      dup7\n        /* \"#utility.yul\":2577:2593   */\n      add\n        /* \"#utility.yul\":2555:2607   */\n      tag_295\n      jump\t// in\n    tag_372:\n        /* \"#utility.yul\":2632:2661   */\n      tag_373\n        /* \"#utility.yul\":2654:2660   */\n      dup2\n        /* \"#utility.yul\":2632:2661   */\n      tag_296\n      jump\t// in\n    tag_373:\n        /* \"#utility.yul\":2627:2630   */\n      dup5\n        /* \"#utility.yul\":2623:2662   */\n      add\n        /* \"#utility.yul\":2616:2662   */\n      swap2\n      pop\n        /* \"#utility.yul\":2396:2668   */\n      pop\n        /* \"#utility.yul\":2304:2668   */\n      swap3\n      swap2\n      pop\n      pop\n      jump\t// out\n        /* \"#utility.yul\":2674:2788   */\n    tag_298:\n        /* \"#utility.yul\":2741:2747   */\n      0x00\n        /* \"#utility.yul\":2775:2780   */\n      dup2\n        /* \"#utility.yul\":2769:2781   */\n      mload\n        /* \"#utility.yul\":2759:2781   */\n      swap1\n      pop\n        /* \"#utility.yul\":2674:2788   */\n      swap2\n      swap1\n      pop\n      jump\t// out\n        /* \"#utility.yul\":2794:2978   */\n    tag_299:\n        /* \"#utility.yul\":2893:2904   */\n      0x00\n        /* \"#utility.yul\":2927:2933   */\n      dup3\n        /* \"#utility.yul\":2922:2925   */\n      dup3\n        /* \"#utility.yul\":2915:2934   */\n      mstore\n        /* \"#utility.yul\":2967:2971   */\n      0x20\n        /* \"#utility.yul\":2962:2965   */\n      dup3\n        /* \"#utility.yul\":2958:2972   */\n      add\n        /* \"#utility.yul\":2943:2972   */\n      swap1\n      pop\n        /* \"#utility.yul\":2794:2978   */\n      swap3\n      swap2\n      pop\n      pop\n      jump\t// out\n        /* \"#utility.yul\":2984:3116   */\n    tag_300:\n        /* \"#utility.yul\":3051:3055   */\n      0x00\n        /* \"#utility.yul\":3074:3077   */\n      dup2\n        /* \"#utility.yul\":3066:3077   */\n      swap1\n      pop\n        /* \"#utility.yul\":3104:3108   */\n      0x20\n        /* \"#utility.yul\":3099:3102   */\n      dup3\n        /* \"#utility.yul\":3095:3109   */\n      add\n        /* \"#utility.yul\":3087:3109   */\n      swap1\n      pop\n        /* \"#utility.yul\":2984:3116   */\n      swap2\n      swap1\n      pop\n      jump\t// out\n        /* \"#utility.yul\":3122:3230   */\n    tag_301:\n        /* \"#utility.yul\":3199:3223   */\n      tag_378\n        /* \"#utility.yul\":3217:3222   */\n      dup2\n        /* \"#utility.yul\":3199:3223   */\n      tag_290\n      jump\t// in\n    tag_378:\n        /* \"#utility.yul\":3194:3197   */\n      dup3\n        /* \"#utility.yul\":3187:3224   */\n      mstore\n        /* \"#utility.yul\":3122:3230   */\n      pop\n      pop\n      jump\t// out\n        /* \"#utility.yul\":3236:3415   */\n    tag_302:\n        /* \"#utility.yul\":3305:3315   */\n      0x00\n        /* \"#utility.yul\":3326:3372   */\n      tag_380\n        /* \"#utility.yul\":3368:3371   */\n      dup4\n        /* \"#utility.yul\":3360:3366   */\n      dup4\n        /* \"#utility.yul\":3326:3372   */\n      tag_301\n      jump\t// in\n    tag_380:\n        /* \"#utility.yul\":3404:3408   */\n      0x20\n        /* \"#utility.yul\":3399:3402   */\n      dup4\n        /* \"#utility.yul\":3395:3409   */\n      add\n        /* \"#utility.yul\":3381:3409   */\n      swap1\n      pop\n        /* \"#utility.yul\":3236:3415   */\n      swap3\n      swap2\n      pop\n      pop\n      jump\t// out\n        /* \"#utility.yul\":3421:3534   */\n    tag_303:\n        /* \"#utility.yul\":3491:3495   */\n      0x00\n        /* \"#utility.yul\":3523:3527   */\n      0x20\n        /* \"#utility.yul\":3518:3521   */\n      dup3\n        /* \"#utility.yul\":3514:3528   */\n      add\n        /* \"#utility.yul\":3506:3528   */\n      swap1\n      pop\n        /* \"#utility.yul\":3421:3534   */\n      swap2\n      swap1\n      pop\n      jump\t// out\n        /* \"#utility.yul\":3570:4302   */\n    tag_304:\n        /* \"#utility.yul\":3689:3692   */\n      0x00\n        /* \"#utility.yul\":3718:3772   */\n      tag_383\n        /* \"#utility.yul\":3766:3771   */\n      dup3\n        /* \"#utility.yul\":3718:3772   */\n      tag_298\n      jump\t// in\n    tag_383:\n        /* \"#utility.yul\":3788:3874   */\n      tag_384\n        /* \"#utility.yul\":3867:3873   */\n      dup2\n        /* \"#utility.yul\":3862:3865   */\n      dup6\n        /* \"#utility.yul\":3788:3874   */\n      tag_299\n      jump\t// in\n    tag_384:\n        /* \"#utility.yul\":3781:3874   */\n      swap4\n      pop\n        /* \"#utility.yul\":3898:3954   */\n      tag_385\n        /* \"#utility.yul\":3948:3953   */\n      dup4\n        /* \"#utility.yul\":3898:3954   */\n      tag_300\n      jump\t// in\n    tag_385:\n        /* \"#utility.yul\":3977:3984   */\n      dup1\n        /* \"#utility.yul\":4008:4009   */\n      0x00\n        /* \"#utility.yul\":3993:4277   */\n    tag_386:\n        /* \"#utility.yul\":4018:4024   */\n      dup4\n        /* \"#utility.yul\":4015:4016   */\n      dup2\n        /* \"#utility.yul\":4012:4025   */\n      lt\n        /* \"#utility.yul\":3993:4277   */\n      iszero\n      tag_388\n      jumpi\n        /* \"#utility.yul\":4094:4100   */\n      dup2\n        /* \"#utility.yul\":4088:4101   */\n      mload\n        /* \"#utility.yul\":4121:4184   */\n      tag_389\n        /* \"#utility.yul\":4180:4183   */\n      dup9\n        /* \"#utility.yul\":4165:4178   */\n      dup3\n        /* \"#utility.yul\":4121:4184   */\n      tag_302\n      jump\t// in\n    tag_389:\n        /* \"#utility.yul\":4114:4184   */\n      swap8\n      pop\n        /* \"#utility.yul\":4207:4267   */\n      tag_390\n        /* \"#utility.yul\":4260:4266   */\n      dup4\n        /* \"#utility.yul\":4207:4267   */\n      tag_303\n      jump\t// in\n    tag_390:\n        /* \"#utility.yul\":4197:4267   */\n      swap3\n      pop\n        /* \"#utility.yul\":4053:4277   */\n      pop\n        /* \"#utility.yul\":4040:4041   */\n      0x01\n        /* \"#utility.yul\":4037:4038   */\n      dup2\n        /* \"#utility.yul\":4033:4042   */\n      add\n        /* \"#utility.yul\":4028:4042   */\n      swap1\n      pop\n        /* \"#utility.yul\":3993:4277   */\n      jump(tag_386)\n    tag_388:\n        /* \"#utility.yul\":3997:4011   */\n      pop\n        /* \"#utility.yul\":4293:4296   */\n      dup6\n        /* \"#utility.yul\":4286:4296   */\n      swap4\n      pop\n        /* \"#utility.yul\":3694:4302   */\n      pop\n      pop\n      pop\n        /* \"#utility.yul\":3570:4302   */\n      swap3\n      swap2\n      pop\n      pop\n      jump\t// out\n        /* \"#utility.yul\":4308:4385   */\n    tag_305:\n        /* \"#utility.yul\":4345:4352   */\n      0x00\n        /* \"#utility.yul\":4374:4379   */\n      dup2\n        /* \"#utility.yul\":4363:4379   */\n      swap1\n      pop\n        /* \"#utility.yul\":4308:4385   */\n      swap2\n      swap1\n      pop\n      jump\t// out\n        /* \"#utility.yul\":4391:4509   */\n    tag_306:\n        /* \"#utility.yul\":4478:4502   */\n      tag_393\n        /* \"#utility.yul\":4496:4501   */\n      dup2\n        /* \"#utility.yul\":4478:4502   */\n      tag_305\n      jump\t// in\n    tag_393:\n        /* \"#utility.yul\":4473:4476   */\n      dup3\n        /* \"#utility.yul\":4466:4503   */\n      mstore\n        /* \"#utility.yul\":4391:4509   */\n      pop\n      pop\n      jump\t// out\n        /* \"#utility.yul\":4515:4633   */\n    tag_307:\n        /* \"#utility.yul\":4602:4626   */\n      tag_395\n        /* \"#utility.yul\":4620:4625   */\n      dup2\n        /* \"#utility.yul\":4602:4626   */\n      tag_290\n      jump\t// in\n    tag_395:\n        /* \"#utility.yul\":4597:4600   */\n      dup3\n        /* \"#utility.yul\":4590:4627   */\n      mstore\n        /* \"#utility.yul\":4515:4633   */\n      pop\n      pop\n      jump\t// out\n        /* \"#utility.yul\":4639:6310   */\n    tag_39:\n        /* \"#utility.yul\":5110:5114   */\n      0x00\n        /* \"#utility.yul\":5148:5151   */\n      0x0120\n        /* \"#utility.yul\":5137:5146   */\n      dup3\n        /* \"#utility.yul\":5133:5152   */\n      add\n        /* \"#utility.yul\":5125:5152   */\n      swap1\n      pop\n        /* \"#utility.yul\":5198:5207   */\n      dup2\n        /* \"#utility.yul\":5192:5196   */\n      dup2\n        /* \"#utility.yul\":5188:5208   */\n      sub\n        /* \"#utility.yul\":5184:5185   */\n      0x00\n        /* \"#utility.yul\":5173:5182   */\n      dup4\n        /* \"#utility.yul\":5169:5186   */\n      add\n        /* \"#utility.yul\":5162:5209   */\n      mstore\n        /* \"#utility.yul\":5226:5304   */\n      tag_397\n        /* \"#utility.yul\":5299:5303   */\n      dup2\n        /* \"#utility.yul\":5290:5296   */\n      dup13\n        /* \"#utility.yul\":5226:5304   */\n      tag_297\n      jump\t// in\n    tag_397:\n        /* \"#utility.yul\":5218:5304   */\n      swap1\n      pop\n        /* \"#utility.yul\":5351:5360   */\n      dup2\n        /* \"#utility.yul\":5345:5349   */\n      dup2\n        /* \"#utility.yul\":5341:5361   */\n      sub\n        /* \"#utility.yul\":5336:5338   */\n      0x20\n        /* \"#utility.yul\":5325:5334   */\n      dup4\n        /* \"#utility.yul\":5321:5339   */\n      add\n        /* \"#utility.yul\":5314:5362   */\n      mstore\n        /* \"#utility.yul\":5379:5457   */\n      tag_398\n        /* \"#utility.yul\":5452:5456   */\n      dup2\n        /* \"#utility.yul\":5443:5449   */\n      dup12\n        /* \"#utility.yul\":5379:5457   */\n      tag_297\n      jump\t// in\n    tag_398:\n        /* \"#utility.yul\":5371:5457   */\n      swap1\n      pop\n        /* \"#utility.yul\":5504:5513   */\n      dup2\n        /* \"#utility.yul\":5498:5502   */\n      dup2\n        /* \"#utility.yul\":5494:5514   */\n      sub\n        /* \"#utility.yul\":5489:5491   */\n      0x40\n        /* \"#utility.yul\":5478:5487   */\n      dup4\n        /* \"#utility.yul\":5474:5492   */\n      add\n        /* \"#utility.yul\":5467:5515   */\n      mstore\n        /* \"#utility.yul\":5532:5640   */\n      tag_399\n        /* \"#utility.yul\":5635:5639   */\n      dup2\n        /* \"#utility.yul\":5626:5632   */\n      dup11\n        /* \"#utility.yul\":5532:5640   */\n      tag_304\n      jump\t// in\n    tag_399:\n        /* \"#utility.yul\":5524:5640   */\n      swap1\n      pop\n        /* \"#utility.yul\":5687:5696   */\n      dup2\n        /* \"#utility.yul\":5681:5685   */\n      dup2\n        /* \"#utility.yul\":5677:5697   */\n      sub\n        /* \"#utility.yul\":5672:5674   */\n      0x60\n        /* \"#utility.yul\":5661:5670   */\n      dup4\n        /* \"#utility.yul\":5657:5675   */\n      add\n        /* \"#utility.yul\":5650:5698   */\n      mstore\n        /* \"#utility.yul\":5715:5823   */\n      tag_400\n        /* \"#utility.yul\":5818:5822   */\n      dup2\n        /* \"#utility.yul\":5809:5815   */\n      dup10\n        /* \"#utility.yul\":5715:5823   */\n      tag_304\n      jump\t// in\n    tag_400:\n        /* \"#utility.yul\":5707:5823   */\n      swap1\n      pop\n        /* \"#utility.yul\":5833:5906   */\n      tag_401\n        /* \"#utility.yul\":5901:5904   */\n      0x80\n        /* \"#utility.yul\":5890:5899   */\n      dup4\n        /* \"#utility.yul\":5886:5905   */\n      add\n        /* \"#utility.yul\":5877:5883   */\n      dup9\n        /* \"#utility.yul\":5833:5906   */\n      tag_306\n      jump\t// in\n    tag_401:\n        /* \"#utility.yul\":5954:5963   */\n      dup2\n        /* \"#utility.yul\":5948:5952   */\n      dup2\n        /* \"#utility.yul\":5944:5964   */\n      sub\n        /* \"#utility.yul\":5938:5941   */\n      0xa0\n        /* \"#utility.yul\":5927:5936   */\n      dup4\n        /* \"#utility.yul\":5923:5942   */\n      add\n        /* \"#utility.yul\":5916:5965   */\n      mstore\n        /* \"#utility.yul\":5982:6060   */\n      tag_402\n        /* \"#utility.yul\":6055:6059   */\n      dup2\n        /* \"#utility.yul\":6046:6052   */\n      dup8\n        /* \"#utility.yul\":5982:6060   */\n      tag_297\n      jump\t// in\n    tag_402:\n        /* \"#utility.yul\":5974:6060   */\n      swap1\n      pop\n        /* \"#utility.yul\":6070:6143   */\n      tag_403\n        /* \"#utility.yul\":6138:6141   */\n      0xc0\n        /* \"#utility.yul\":6127:6136   */\n      dup4\n        /* \"#utility.yul\":6123:6142   */\n      add\n        /* \"#utility.yul\":6114:6120   */\n      dup7\n        /* \"#utility.yul\":6070:6143   */\n      tag_306\n      jump\t// in\n    tag_403:\n        /* \"#utility.yul\":6153:6220   */\n      tag_404\n        /* \"#utility.yul\":6215:6218   */\n      0xe0\n        /* \"#utility.yul\":6204:6213   */\n      dup4\n        /* \"#utility.yul\":6200:6219   */\n      add\n        /* \"#utility.yul\":6191:6197   */\n      dup6\n        /* \"#utility.yul\":6153:6220   */\n      tag_285\n      jump\t// in\n    tag_404:\n        /* \"#utility.yul\":6230:6303   */\n      tag_405\n        /* \"#utility.yul\":6298:6301   */\n      0x0100\n        /* \"#utility.yul\":6287:6296   */\n      dup4\n        /* \"#utility.yul\":6283:6302   */\n      add\n        /* \"#utility.yul\":6274:6280   */\n      dup5\n        /* \"#utility.yul\":6230:6303   */\n      tag_307\n      jump\t// in\n    tag_405:\n        /* \"#utility.yul\":4639:6310   */\n      swap11\n      swap10\n      pop\n      pop\n      pop\n      pop\n      pop\n      pop\n      pop\n      pop\n      pop\n      pop\n      jump\t// out\n        /* \"#utility.yul\":6316:6438   */\n    tag_308:\n        /* \"#utility.yul\":6389:6413   */\n      tag_407\n        /* \"#utility.yul\":6407:6412   */\n      dup2\n        /* \"#utility.yul\":6389:6413   */\n      tag_305\n      jump\t// in\n    tag_407:\n        /* \"#utility.yul\":6382:6387   */\n      dup2\n        /* \"#utility.yul\":6379:6414   */\n      eq\n        /* \"#utility.yul\":6369:6432   */\n      tag_408\n      jumpi\n        /* \"#utility.yul\":6428:6429   */\n      0x00\n        /* \"#utility.yul\":6425:6426   */\n      dup1\n        /* \"#utility.yul\":6418:6430   */\n      revert\n        /* \"#utility.yul\":6369:6432   */\n    tag_408:\n        /* \"#utility.yul\":6316:6438   */\n      pop\n      jump\t// out\n        /* \"#utility.yul\":6444:6583   */\n    tag_309:\n        /* \"#utility.yul\":6490:6495   */\n      0x00\n        /* \"#utility.yul\":6528:6534   */\n      dup2\n        /* \"#utility.yul\":6515:6535   */\n      calldataload\n        /* \"#utility.yul\":6506:6535   */\n      swap1\n      pop\n        /* \"#utility.yul\":6544:6577   */\n      tag_410\n        /* \"#utility.yul\":6571:6576   */\n      dup2\n        /* \"#utility.yul\":6544:6577   */\n      tag_308\n      jump\t// in\n    tag_410:\n        /* \"#utility.yul\":6444:6583   */\n      swap3\n      swap2\n      pop\n      pop\n      jump\t// out\n        /* \"#utility.yul\":6589:6918   */\n    tag_42:\n        /* \"#utility.yul\":6648:6654   */\n      0x00\n        /* \"#utility.yul\":6697:6699   */\n      0x20\n        /* \"#utility.yul\":6685:6694   */\n      dup3\n        /* \"#utility.yul\":6676:6683   */\n      dup5\n        /* \"#utility.yul\":6672:6695   */\n      sub\n        /* \"#utility.yul\":6668:6700   */\n      slt\n        /* \"#utility.yul\":6665:6784   */\n      iszero\n      tag_412\n      jumpi\n        /* \"#utility.yul\":6703:6782   */\n      tag_413\n      tag_287\n      jump\t// in\n    tag_413:\n        /* \"#utility.yul\":6665:6784   */\n    tag_412:\n        /* \"#utility.yul\":6823:6824   */\n      0x00\n        /* \"#utility.yul\":6848:6901   */\n      tag_414\n        /* \"#utility.yul\":6893:6900   */\n      dup5\n        /* \"#utility.yul\":6884:6890   */\n      dup3\n        /* \"#utility.yul\":6873:6882   */\n      dup6\n        /* \"#utility.yul\":6869:6891   */\n      add\n        /* \"#utility.yul\":6848:6901   */\n      tag_309\n      jump\t// in\n    tag_414:\n        /* \"#utility.yul\":6838:6901   */\n      swap2\n      pop\n        /* \"#utility.yul\":6794:6911   */\n      pop\n        /* \"#utility.yul\":6589:6918   */\n      swap3\n      swap2\n      pop\n      pop\n      jump\t// out\n        /* \"#utility.yul\":6924:7237   */\n    tag_48:\n        /* \"#utility.yul\":7037:7041   */\n      0x00\n        /* \"#utility.yul\":7075:7077   */\n      0x20\n        /* \"#utility.yul\":7064:7073   */\n      dup3\n        /* \"#utility.yul\":7060:7078   */\n      add\n        /* \"#utility.yul\":7052:7078   */\n      swap1\n      pop\n        /* \"#utility.yul\":7124:7133   */\n      dup2\n        /* \"#utility.yul\":7118:7122   */\n      dup2\n        /* \"#utility.yul\":7114:7134   */\n      sub\n        /* \"#utility.yul\":7110:7111   */\n      0x00\n        /* \"#utility.yul\":7099:7108   */\n      dup4\n        /* \"#utility.yul\":7095:7112   */\n      add\n        /* \"#utility.yul\":7088:7135   */\n      mstore\n        /* \"#utility.yul\":7152:7230   */\n      tag_416\n        /* \"#utility.yul\":7225:7229   */\n      dup2\n        /* \"#utility.yul\":7216:7222   */\n      dup5\n        /* \"#utility.yul\":7152:7230   */\n      tag_297\n      jump\t// in\n    tag_416:\n        /* \"#utility.yul\":7144:7230   */\n      swap1\n      pop\n        /* \"#utility.yul\":6924:7237   */\n      swap3\n      swap2\n      pop\n      pop\n      jump\t// out\n        /* \"#utility.yul\":7243:7784   */\n    tag_54:\n        /* \"#utility.yul\":7414:7418   */\n      0x00\n        /* \"#utility.yul\":7452:7455   */\n      0x80\n        /* \"#utility.yul\":7441:7450   */\n      dup3\n        /* \"#utility.yul\":7437:7456   */\n      add\n        /* \"#utility.yul\":7429:7456   */\n      swap1\n      pop\n        /* \"#utility.yul\":7466:7537   */\n      tag_418\n        /* \"#utility.yul\":7534:7535   */\n      0x00\n        /* \"#utility.yul\":7523:7532   */\n      dup4\n        /* \"#utility.yul\":7519:7536   */\n      add\n        /* \"#utility.yul\":7510:7516   */\n      dup8\n        /* \"#utility.yul\":7466:7537   */\n      tag_306\n      jump\t// in\n    tag_418:\n        /* \"#utility.yul\":7547:7619   */\n      tag_419\n        /* \"#utility.yul\":7615:7617   */\n      0x20\n        /* \"#utility.yul\":7604:7613   */\n      dup4\n        /* \"#utility.yul\":7600:7618   */\n      add\n        /* \"#utility.yul\":7591:7597   */\n      dup7\n        /* \"#utility.yul\":7547:7619   */\n      tag_307\n      jump\t// in\n    tag_419:\n        /* \"#utility.yul\":7629:7701   */\n      tag_420\n        /* \"#utility.yul\":7697:7699   */\n      0x40\n        /* \"#utility.yul\":7686:7695   */\n      dup4\n        /* \"#utility.yul\":7682:7700   */\n      add\n        /* \"#utility.yul\":7673:7679   */\n      dup6\n        /* \"#utility.yul\":7629:7701   */\n      tag_306\n      jump\t// in\n    tag_420:\n        /* \"#utility.yul\":7711:7777   */\n      tag_421\n        /* \"#utility.yul\":7773:7775   */\n      0x60\n        /* \"#utility.yul\":7762:7771   */\n      dup4\n        /* \"#utility.yul\":7758:7776   */\n      add\n        /* \"#utility.yul\":7749:7755   */\n      dup5\n        /* \"#utility.yul\":7711:7777   */\n      tag_285\n      jump\t// in\n    tag_421:\n        /* \"#utility.yul\":7243:7784   */\n      swap6\n      swap5\n      pop\n      pop\n      pop\n      pop\n      pop\n      jump\t// out\n        /* \"#utility.yul\":7790:8422   */\n    tag_60:\n        /* \"#utility.yul\":7981:7985   */\n      0x00\n        /* \"#utility.yul\":8019:8022   */\n      0x80\n        /* \"#utility.yul\":8008:8017   */\n      dup3\n        /* \"#utility.yul\":8004:8023   */\n      add\n        /* \"#utility.yul\":7996:8023   */\n      swap1\n      pop\n        /* \"#utility.yul\":8069:8078   */\n      dup2\n        /* \"#utility.yul\":8063:8067   */\n      dup2\n        /* \"#utility.yul\":8059:8079   */\n      sub\n        /* \"#utility.yul\":8055:8056   */\n      0x00\n        /* \"#utility.yul\":8044:8053   */\n      dup4\n        /* \"#utility.yul\":8040:8057   */\n      add\n        /* \"#utility.yul\":8033:8080   */\n      mstore\n        /* \"#utility.yul\":8097:8175   */\n      tag_423\n        /* \"#utility.yul\":8170:8174   */\n      dup2\n        /* \"#utility.yul\":8161:8167   */\n      dup8\n        /* \"#utility.yul\":8097:8175   */\n      tag_297\n      jump\t// in\n    tag_423:\n        /* \"#utility.yul\":8089:8175   */\n      swap1\n      pop\n        /* \"#utility.yul\":8185:8257   */\n      tag_424\n        /* \"#utility.yul\":8253:8255   */\n      0x20\n        /* \"#utility.yul\":8242:8251   */\n      dup4\n        /* \"#utility.yul\":8238:8256   */\n      add\n        /* \"#utility.yul\":8229:8235   */\n      dup7\n        /* \"#utility.yul\":8185:8257   */\n      tag_307\n      jump\t// in\n    tag_424:\n        /* \"#utility.yul\":8267:8339   */\n      tag_425\n        /* \"#utility.yul\":8335:8337   */\n      0x40\n        /* \"#utility.yul\":8324:8333   */\n      dup4\n        /* \"#utility.yul\":8320:8338   */\n      add\n        /* \"#utility.yul\":8311:8317   */\n      dup6\n        /* \"#utility.yul\":8267:8339   */\n      tag_306\n      jump\t// in\n    tag_425:\n        /* \"#utility.yul\":8349:8415   */\n      tag_426\n        /* \"#utility.yul\":8411:8413   */\n      0x60\n        /* \"#utility.yul\":8400:8409   */\n      dup4\n        /* \"#utility.yul\":8396:8414   */\n      add\n        /* \"#utility.yul\":8387:8393   */\n      dup5\n        /* \"#utility.yul\":8349:8415   */\n      tag_285\n      jump\t// in\n    tag_426:\n        /* \"#utility.yul\":7790:8422   */\n      swap6\n      swap5\n      pop\n      pop\n      pop\n      pop\n      pop\n      jump\t// out\n        /* \"#utility.yul\":8428:8650   */\n    tag_70:\n        /* \"#utility.yul\":8521:8525   */\n      0x00\n        /* \"#utility.yul\":8559:8561   */\n      0x20\n        /* \"#utility.yul\":8548:8557   */\n      dup3\n        /* \"#utility.yul\":8544:8562   */\n      add\n        /* \"#utility.yul\":8536:8562   */\n      swap1\n      pop\n        /* \"#utility.yul\":8572:8643   */\n      tag_428\n        /* \"#utility.yul\":8640:8641   */\n      0x00\n        /* \"#utility.yul\":8629:8638   */\n      dup4\n        /* \"#utility.yul\":8625:8642   */\n      add\n        /* \"#utility.yul\":8616:8622   */\n      dup5\n        /* \"#utility.yul\":8572:8643   */\n      tag_307\n      jump\t// in\n    tag_428:\n        /* \"#utility.yul\":8428:8650   */\n      swap3\n      swap2\n      pop\n      pop\n      jump\t// out\n        /* \"#utility.yul\":8656:8773   */\n    tag_310:\n        /* \"#utility.yul\":8765:8766   */\n      0x00\n        /* \"#utility.yul\":8762:8763   */\n      dup1\n        /* \"#utility.yul\":8755:8767   */\n      revert\n        /* \"#utility.yul\":8779:8896   */\n    tag_311:\n        /* \"#utility.yul\":8888:8889   */\n      0x00\n        /* \"#utility.yul\":8885:8886   */\n      dup1\n        /* \"#utility.yul\":8878:8890   */\n      revert\n        /* \"#utility.yul\":8902:9082   */\n    tag_312:\n        /* \"#utility.yul\":8950:9027   */\n      0x4e487b7100000000000000000000000000000000000000000000000000000000\n        /* \"#utility.yul\":8947:8948   */\n      0x00\n        /* \"#utility.yul\":8940:9028   */\n      mstore\n        /* \"#utility.yul\":9047:9051   */\n      0x41\n        /* \"#utility.yul\":9044:9045   */\n      0x04\n        /* \"#utility.yul\":9037:9052   */\n      mstore\n        /* \"#utility.yul\":9071:9075   */\n      0x24\n        /* \"#utility.yul\":9068:9069   */\n      0x00\n        /* \"#utility.yul\":9061:9076   */\n      revert\n        /* \"#utility.yul\":9088:9369   */\n    tag_313:\n        /* \"#utility.yul\":9171:9198   */\n      tag_433\n        /* \"#utility.yul\":9193:9197   */\n      dup3\n        /* \"#utility.yul\":9171:9198   */\n      tag_296\n      jump\t// in\n    tag_433:\n        /* \"#utility.yul\":9163:9169   */\n      dup2\n        /* \"#utility.yul\":9159:9199   */\n      add\n        /* \"#utility.yul\":9301:9307   */\n      dup2\n        /* \"#utility.yul\":9289:9299   */\n      dup2\n        /* \"#utility.yul\":9286:9308   */\n      lt\n        /* \"#utility.yul\":9265:9283   */\n      0xffffffffffffffff\n        /* \"#utility.yul\":9253:9263   */\n      dup3\n        /* \"#utility.yul\":9250:9284   */\n      gt\n        /* \"#utility.yul\":9247:9309   */\n      or\n        /* \"#utility.yul\":9244:9332   */\n      iszero\n      tag_434\n      jumpi\n        /* \"#utility.yul\":9312:9330   */\n      tag_435\n      tag_312\n      jump\t// in\n    tag_435:\n        /* \"#utility.yul\":9244:9332   */\n    tag_434:\n        /* \"#utility.yul\":9352:9362   */\n      dup1\n        /* \"#utility.yul\":9348:9350   */\n      0x40\n        /* \"#utility.yul\":9341:9363   */\n      mstore\n        /* \"#utility.yul\":9131:9369   */\n      pop\n        /* \"#utility.yul\":9088:9369   */\n      pop\n      pop\n      jump\t// out\n        /* \"#utility.yul\":9375:9504   */\n    tag_314:\n        /* \"#utility.yul\":9409:9415   */\n      0x00\n        /* \"#utility.yul\":9436:9456   */\n      tag_437\n      tag_286\n      jump\t// in\n    tag_437:\n        /* \"#utility.yul\":9426:9456   */\n      swap1\n      pop\n        /* \"#utility.yul\":9465:9498   */\n      tag_438\n        /* \"#utility.yul\":9493:9497   */\n      dup3\n        /* \"#utility.yul\":9485:9491   */\n      dup3\n        /* \"#utility.yul\":9465:9498   */\n      tag_313\n      jump\t// in\n    tag_438:\n        /* \"#utility.yul\":9375:9504   */\n      swap2\n      swap1\n      pop\n      jump\t// out\n        /* \"#utility.yul\":9510:9818   */\n    tag_315:\n        /* \"#utility.yul\":9572:9576   */\n      0x00\n        /* \"#utility.yul\":9662:9680   */\n      0xffffffffffffffff\n        /* \"#utility.yul\":9654:9660   */\n      dup3\n        /* \"#utility.yul\":9651:9681   */\n      gt\n        /* \"#utility.yul\":9648:9704   */\n      iszero\n      tag_440\n      jumpi\n        /* \"#utility.yul\":9684:9702   */\n      tag_441\n      tag_312\n      jump\t// in\n    tag_441:\n        /* \"#utility.yul\":9648:9704   */\n    tag_440:\n        /* \"#utility.yul\":9722:9751   */\n      tag_442\n        /* \"#utility.yul\":9744:9750   */\n      dup3\n        /* \"#utility.yul\":9722:9751   */\n      tag_296\n      jump\t// in\n    tag_442:\n        /* \"#utility.yul\":9714:9751   */\n      swap1\n      pop\n        /* \"#utility.yul\":9806:9810   */\n      0x20\n        /* \"#utility.yul\":9800:9804   */\n      dup2\n        /* \"#utility.yul\":9796:9811   */\n      add\n        /* \"#utility.yul\":9788:9811   */\n      swap1\n      pop\n        /* \"#utility.yul\":9510:9818   */\n      swap2\n      swap1\n      pop\n      jump\t// out\n        /* \"#utility.yul\":9824:9978   */\n    tag_316:\n        /* \"#utility.yul\":9908:9914   */\n      dup3\n        /* \"#utility.yul\":9903:9906   */\n      dup2\n        /* \"#utility.yul\":9898:9901   */\n      dup4\n        /* \"#utility.yul\":9885:9915   */\n      calldatacopy\n        /* \"#utility.yul\":9970:9971   */\n      0x00\n        /* \"#utility.yul\":9961:9967   */\n      dup4\n        /* \"#utility.yul\":9956:9959   */\n      dup4\n        /* \"#utility.yul\":9952:9968   */\n      add\n        /* \"#utility.yul\":9945:9972   */\n      mstore\n        /* \"#utility.yul\":9824:9978   */\n      pop\n      pop\n      pop\n      jump\t// out\n        /* \"#utility.yul\":9984:10396   */\n    tag_317:\n        /* \"#utility.yul\":10062:10067   */\n      0x00\n        /* \"#utility.yul\":10087:10153   */\n      tag_445\n        /* \"#utility.yul\":10103:10152   */\n      tag_446\n        /* \"#utility.yul\":10145:10151   */\n      dup5\n        /* \"#utility.yul\":10103:10152   */\n      tag_315\n      jump\t// in\n    tag_446:\n        /* \"#utility.yul\":10087:10153   */\n      tag_314\n      jump\t// in\n    tag_445:\n        /* \"#utility.yul\":10078:10153   */\n      swap1\n      pop\n        /* \"#utility.yul\":10176:10182   */\n      dup3\n        /* \"#utility.yul\":10169:10174   */\n      dup2\n        /* \"#utility.yul\":10162:10183   */\n      mstore\n        /* \"#utility.yul\":10214:10218   */\n      0x20\n        /* \"#utility.yul\":10207:10212   */\n      dup2\n        /* \"#utility.yul\":10203:10219   */\n      add\n        /* \"#utility.yul\":10252:10255   */\n      dup5\n        /* \"#utility.yul\":10243:10249   */\n      dup5\n        /* \"#utility.yul\":10238:10241   */\n      dup5\n        /* \"#utility.yul\":10234:10250   */\n      add\n        /* \"#utility.yul\":10231:10256   */\n      gt\n        /* \"#utility.yul\":10228:10340   */\n      iszero\n      tag_447\n      jumpi\n        /* \"#utility.yul\":10259:10338   */\n      tag_448\n      tag_311\n      jump\t// in\n    tag_448:\n        /* \"#utility.yul\":10228:10340   */\n    tag_447:\n        /* \"#utility.yul\":10349:10390   */\n      tag_449\n        /* \"#utility.yul\":10383:10389   */\n      dup5\n        /* \"#utility.yul\":10378:10381   */\n      dup3\n        /* \"#utility.yul\":10373:10376   */\n      dup6\n        /* \"#utility.yul\":10349:10390   */\n      tag_316\n      jump\t// in\n    tag_449:\n        /* \"#utility.yul\":10068:10396   */\n      pop\n        /* \"#utility.yul\":9984:10396   */\n      swap4\n      swap3\n      pop\n      pop\n      pop\n      jump\t// out\n        /* \"#utility.yul\":10416:10756   */\n    tag_318:\n        /* \"#utility.yul\":10472:10477   */\n      0x00\n        /* \"#utility.yul\":10521:10524   */\n      dup3\n        /* \"#utility.yul\":10514:10518   */\n      0x1f\n        /* \"#utility.yul\":10506:10512   */\n      dup4\n        /* \"#utility.yul\":10502:10519   */\n      add\n        /* \"#utility.yul\":10498:10525   */\n      slt\n        /* \"#utility.yul\":10488:10610   */\n      tag_451\n      jumpi\n        /* \"#utility.yul\":10529:10608   */\n      tag_452\n      tag_310\n      jump\t// in\n    tag_452:\n        /* \"#utility.yul\":10488:10610   */\n    tag_451:\n        /* \"#utility.yul\":10646:10652   */\n      dup2\n        /* \"#utility.yul\":10633:10653   */\n      calldataload\n        /* \"#utility.yul\":10671:10750   */\n      tag_453\n        /* \"#utility.yul\":10746:10749   */\n      dup5\n        /* \"#utility.yul\":10738:10744   */\n      dup3\n        /* \"#utility.yul\":10731:10735   */\n      0x20\n        /* \"#utility.yul\":10723:10729   */\n      dup7\n        /* \"#utility.yul\":10719:10736   */\n      add\n        /* \"#utility.yul\":10671:10750   */\n      tag_317\n      jump\t// in\n    tag_453:\n        /* \"#utility.yul\":10662:10750   */\n      swap2\n      pop\n        /* \"#utility.yul\":10478:10756   */\n      pop\n        /* \"#utility.yul\":10416:10756   */\n      swap3\n      swap2\n      pop\n      pop\n      jump\t// out\n        /* \"#utility.yul\":10762:11887   */\n    tag_78:\n        /* \"#utility.yul\":10868:10874   */\n      0x00\n        /* \"#utility.yul\":10876:10882   */\n      dup1\n        /* \"#utility.yul\":10884:10890   */\n      0x00\n        /* \"#utility.yul\":10892:10898   */\n      dup1\n        /* \"#utility.yul\":10941:10944   */\n      0x80\n        /* \"#utility.yul\":10929:10938   */\n      dup6\n        /* \"#utility.yul\":10920:10927   */\n      dup8\n        /* \"#utility.yul\":10916:10939   */\n      sub\n        /* \"#utility.yul\":10912:10945   */\n      slt\n        /* \"#utility.yul\":10909:11029   */\n      iszero\n      tag_455\n      jumpi\n        /* \"#utility.yul\":10948:11027   */\n      tag_456\n      tag_287\n      jump\t// in\n    tag_456:\n        /* \"#utility.yul\":10909:11029   */\n    tag_455:\n        /* \"#utility.yul\":11096:11097   */\n      0x00\n        /* \"#utility.yul\":11085:11094   */\n      dup6\n        /* \"#utility.yul\":11081:11098   */\n      add\n        /* \"#utility.yul\":11068:11099   */\n      calldataload\n        /* \"#utility.yul\":11126:11144   */\n      0xffffffffffffffff\n        /* \"#utility.yul\":11118:11124   */\n      dup2\n        /* \"#utility.yul\":11115:11145   */\n      gt\n        /* \"#utility.yul\":11112:11229   */\n      iszero\n      tag_457\n      jumpi\n        /* \"#utility.yul\":11148:11227   */\n      tag_458\n      tag_288\n      jump\t// in\n    tag_458:\n        /* \"#utility.yul\":11112:11229   */\n    tag_457:\n        /* \"#utility.yul\":11253:11316   */\n      tag_459\n        /* \"#utility.yul\":11308:11315   */\n      dup8\n        /* \"#utility.yul\":11299:11305   */\n      dup3\n        /* \"#utility.yul\":11288:11297   */\n      dup9\n        /* \"#utility.yul\":11284:11306   */\n      add\n        /* \"#utility.yul\":11253:11316   */\n      tag_318\n      jump\t// in\n    tag_459:\n        /* \"#utility.yul\":11243:11316   */\n      swap5\n      pop\n        /* \"#utility.yul\":11039:11326   */\n      pop\n        /* \"#utility.yul\":11393:11395   */\n      0x20\n        /* \"#utility.yul\":11382:11391   */\n      dup6\n        /* \"#utility.yul\":11378:11396   */\n      add\n        /* \"#utility.yul\":11365:11397   */\n      calldataload\n        /* \"#utility.yul\":11424:11442   */\n      0xffffffffffffffff\n        /* \"#utility.yul\":11416:11422   */\n      dup2\n        /* \"#utility.yul\":11413:11443   */\n      gt\n        /* \"#utility.yul\":11410:11527   */\n      iszero\n      tag_460\n      jumpi\n        /* \"#utility.yul\":11446:11525   */\n      tag_461\n      tag_288\n      jump\t// in\n    tag_461:\n        /* \"#utility.yul\":11410:11527   */\n    tag_460:\n        /* \"#utility.yul\":11551:11614   */\n      tag_462\n        /* \"#utility.yul\":11606:11613   */\n      dup8\n        /* \"#utility.yul\":11597:11603   */\n      dup3\n        /* \"#utility.yul\":11586:11595   */\n      dup9\n        /* \"#utility.yul\":11582:11604   */\n      add\n        /* \"#utility.yul\":11551:11614   */\n      tag_318\n      jump\t// in\n    tag_462:\n        /* \"#utility.yul\":11541:11614   */\n      swap4\n      pop\n        /* \"#utility.yul\":11336:11624   */\n      pop\n        /* \"#utility.yul\":11663:11665   */\n      0x40\n        /* \"#utility.yul\":11689:11742   */\n      tag_463\n        /* \"#utility.yul\":11734:11741   */\n      dup8\n        /* \"#utility.yul\":11725:11731   */\n      dup3\n        /* \"#utility.yul\":11714:11723   */\n      dup9\n        /* \"#utility.yul\":11710:11732   */\n      add\n        /* \"#utility.yul\":11689:11742   */\n      tag_292\n      jump\t// in\n    tag_463:\n        /* \"#utility.yul\":11679:11742   */\n      swap3\n      pop\n        /* \"#utility.yul\":11634:11752   */\n      pop\n        /* \"#utility.yul\":11791:11793   */\n      0x60\n        /* \"#utility.yul\":11817:11870   */\n      tag_464\n        /* \"#utility.yul\":11862:11869   */\n      dup8\n        /* \"#utility.yul\":11853:11859   */\n      dup3\n        /* \"#utility.yul\":11842:11851   */\n      dup9\n        /* \"#utility.yul\":11838:11860   */\n      add\n        /* \"#utility.yul\":11817:11870   */\n      tag_292\n      jump\t// in\n    tag_464:\n        /* \"#utility.yul\":11807:11870   */\n      swap2\n      pop\n        /* \"#utility.yul\":11762:11880   */\n      pop\n        /* \"#utility.yul\":10762:11887   */\n      swap3\n      swap6\n      swap2\n      swap5\n      pop\n      swap3\n      pop\n      jump\t// out\n        /* \"#utility.yul\":11893:12402   */\n    tag_97:\n        /* \"#utility.yul\":11962:11968   */\n      0x00\n        /* \"#utility.yul\":12011:12013   */\n      0x20\n        /* \"#utility.yul\":11999:12008   */\n      dup3\n        /* \"#utility.yul\":11990:11997   */\n      dup5\n        /* \"#utility.yul\":11986:12009   */\n      sub\n        /* \"#utility.yul\":11982:12014   */\n      slt\n        /* \"#utility.yul\":11979:12098   */\n      iszero\n      tag_466\n      jumpi\n        /* \"#utility.yul\":12017:12096   */\n      tag_467\n      tag_287\n      jump\t// in\n    tag_467:\n        /* \"#utility.yul\":11979:12098   */\n    tag_466:\n        /* \"#utility.yul\":12165:12166   */\n      0x00\n        /* \"#utility.yul\":12154:12163   */\n      dup3\n        /* \"#utility.yul\":12150:12167   */\n      add\n        /* \"#utility.yul\":12137:12168   */\n      calldataload\n        /* \"#utility.yul\":12195:12213   */\n      0xffffffffffffffff\n        /* \"#utility.yul\":12187:12193   */\n      dup2\n        /* \"#utility.yul\":12184:12214   */\n      gt\n        /* \"#utility.yul\":12181:12298   */\n      iszero\n      tag_468\n      jumpi\n        /* \"#utility.yul\":12217:12296   */\n      tag_469\n      tag_288\n      jump\t// in\n    tag_469:\n        /* \"#utility.yul\":12181:12298   */\n    tag_468:\n        /* \"#utility.yul\":12322:12385   */\n      tag_470\n        /* \"#utility.yul\":12377:12384   */\n      dup5\n        /* \"#utility.yul\":12368:12374   */\n      dup3\n        /* \"#utility.yul\":12357:12366   */\n      dup6\n        /* \"#utility.yul\":12353:12375   */\n      add\n        /* \"#utility.yul\":12322:12385   */\n      tag_318\n      jump\t// in\n    tag_470:\n        /* \"#utility.yul\":12312:12385   */\n      swap2\n      pop\n        /* \"#utility.yul\":12108:12395   */\n      pop\n        /* \"#utility.yul\":11893:12402   */\n      swap3\n      swap2\n      pop\n      pop\n      jump\t// out\n        /* \"#utility.yul\":12408:12572   */\n    tag_319:\n        /* \"#utility.yul\":12548:12564   */\n      0x5265656e7472616e742063616c6c000000000000000000000000000000000000\n        /* \"#utility.yul\":12544:12545   */\n      0x00\n        /* \"#utility.yul\":12536:12542   */\n      dup3\n        /* \"#utility.yul\":12532:12546   */\n      add\n        /* \"#utility.yul\":12525:12565   */\n      mstore\n        /* \"#utility.yul\":12408:12572   */\n      pop\n      jump\t// out\n        /* \"#utility.yul\":12578:12944   */\n    tag_320:\n        /* \"#utility.yul\":12720:12723   */\n      0x00\n        /* \"#utility.yul\":12741:12808   */\n      tag_473\n        /* \"#utility.yul\":12805:12807   */\n      0x0e\n        /* \"#utility.yul\":12800:12803   */\n      dup4\n        /* \"#utility.yul\":12741:12808   */\n      tag_294\n      jump\t// in\n    tag_473:\n        /* \"#utility.yul\":12734:12808   */\n      swap2\n      pop\n        /* \"#utility.yul\":12817:12910   */\n      tag_474\n        /* \"#utility.yul\":12906:12909   */\n      dup3\n        /* \"#utility.yul\":12817:12910   */\n      tag_319\n      jump\t// in\n    tag_474:\n        /* \"#utility.yul\":12935:12937   */\n      0x20\n        /* \"#utility.yul\":12930:12933   */\n      dup3\n        /* \"#utility.yul\":12926:12938   */\n      add\n        /* \"#utility.yul\":12919:12938   */\n      swap1\n      pop\n        /* \"#utility.yul\":12578:12944   */\n      swap2\n      swap1\n      pop\n      jump\t// out\n        /* \"#utility.yul\":12950:13369   */\n    tag_106:\n        /* \"#utility.yul\":13116:13120   */\n      0x00\n        /* \"#utility.yul\":13154:13156   */\n      0x20\n        /* \"#utility.yul\":13143:13152   */\n      dup3\n        /* \"#utility.yul\":13139:13157   */\n      add\n        /* \"#utility.yul\":13131:13157   */\n      swap1\n      pop\n        /* \"#utility.yul\":13203:13212   */\n      dup2\n        /* \"#utility.yul\":13197:13201   */\n      dup2\n        /* \"#utility.yul\":13193:13213   */\n      sub\n        /* \"#utility.yul\":13189:13190   */\n      0x00\n        /* \"#utility.yul\":13178:13187   */\n      dup4\n        /* \"#utility.yul\":13174:13191   */\n      add\n        /* \"#utility.yul\":13167:13214   */\n      mstore\n        /* \"#utility.yul\":13231:13362   */\n      tag_476\n        /* \"#utility.yul\":13357:13361   */\n      dup2\n        /* \"#utility.yul\":13231:13362   */\n      tag_320\n      jump\t// in\n    tag_476:\n        /* \"#utility.yul\":13223:13362   */\n      swap1\n      pop\n        /* \"#utility.yul\":12950:13369   */\n      swap2\n      swap1\n      pop\n      jump\t// out\n        /* \"#utility.yul\":13375:13551   */\n    tag_321:\n        /* \"#utility.yul\":13515:13543   */\n      0x546869732073746f727920686173206265656e20626f75676874000000000000\n        /* \"#utility.yul\":13511:13512   */\n      0x00\n        /* \"#utility.yul\":13503:13509   */\n      dup3\n        /* \"#utility.yul\":13499:13513   */\n      add\n        /* \"#utility.yul\":13492:13544   */\n      mstore\n        /* \"#utility.yul\":13375:13551   */\n      pop\n      jump\t// out\n        /* \"#utility.yul\":13557:13923   */\n    tag_322:\n        /* \"#utility.yul\":13699:13702   */\n      0x00\n        /* \"#utility.yul\":13720:13787   */\n      tag_479\n        /* \"#utility.yul\":13784:13786   */\n      0x1a\n        /* \"#utility.yul\":13779:13782   */\n      dup4\n        /* \"#utility.yul\":13720:13787   */\n      tag_294\n      jump\t// in\n    tag_479:\n        /* \"#utility.yul\":13713:13787   */\n      swap2\n      pop\n        /* \"#utility.yul\":13796:13889   */\n      tag_480\n        /* \"#utility.yul\":13885:13888   */\n      dup3\n        /* \"#utility.yul\":13796:13889   */\n      tag_321\n      jump\t// in\n    tag_480:\n        /* \"#utility.yul\":13914:13916   */\n      0x20\n        /* \"#utility.yul\":13909:13912   */\n      dup3\n        /* \"#utility.yul\":13905:13917   */\n      add\n        /* \"#utility.yul\":13898:13917   */\n      swap1\n      pop\n        /* \"#utility.yul\":13557:13923   */\n      swap2\n      swap1\n      pop\n      jump\t// out\n        /* \"#utility.yul\":13929:14348   */\n    tag_110:\n        /* \"#utility.yul\":14095:14099   */\n      0x00\n        /* \"#utility.yul\":14133:14135   */\n      0x20\n        /* \"#utility.yul\":14122:14131   */\n      dup3\n        /* \"#utility.yul\":14118:14136   */\n      add\n        /* \"#utility.yul\":14110:14136   */\n      swap1\n      pop\n        /* \"#utility.yul\":14182:14191   */\n      dup2\n        /* \"#utility.yul\":14176:14180   */\n      dup2\n        /* \"#utility.yul\":14172:14192   */\n      sub\n        /* \"#utility.yul\":14168:14169   */\n      0x00\n        /* \"#utility.yul\":14157:14166   */\n      dup4\n        /* \"#utility.yul\":14153:14170   */\n      add\n        /* \"#utility.yul\":14146:14193   */\n      mstore\n        /* \"#utility.yul\":14210:14341   */\n      tag_482\n        /* \"#utility.yul\":14336:14340   */\n      dup2\n        /* \"#utility.yul\":14210:14341   */\n      tag_322\n      jump\t// in\n    tag_482:\n        /* \"#utility.yul\":14202:14341   */\n      swap1\n      pop\n        /* \"#utility.yul\":13929:14348   */\n      swap2\n      swap1\n      pop\n      jump\t// out\n        /* \"#utility.yul\":14354:14534   */\n    tag_323:\n        /* \"#utility.yul\":14402:14479   */\n      0x4e487b7100000000000000000000000000000000000000000000000000000000\n        /* \"#utility.yul\":14399:14400   */\n      0x00\n        /* \"#utility.yul\":14392:14480   */\n      mstore\n        /* \"#utility.yul\":14499:14503   */\n      0x22\n        /* \"#utility.yul\":14496:14497   */\n      0x04\n        /* \"#utility.yul\":14489:14504   */\n      mstore\n        /* \"#utility.yul\":14523:14527   */\n      0x24\n        /* \"#utility.yul\":14520:14521   */\n      0x00\n        /* \"#utility.yul\":14513:14528   */\n      revert\n        /* \"#utility.yul\":14540:14860   */\n    tag_114:\n        /* \"#utility.yul\":14584:14590   */\n      0x00\n        /* \"#utility.yul\":14621:14622   */\n      0x02\n        /* \"#utility.yul\":14615:14619   */\n      dup3\n        /* \"#utility.yul\":14611:14623   */\n      div\n        /* \"#utility.yul\":14601:14623   */\n      swap1\n      pop\n        /* \"#utility.yul\":14668:14669   */\n      0x01\n        /* \"#utility.yul\":14662:14666   */\n      dup3\n        /* \"#utility.yul\":14658:14670   */\n      and\n        /* \"#utility.yul\":14689:14707   */\n      dup1\n        /* \"#utility.yul\":14679:14760   */\n      tag_485\n      jumpi\n        /* \"#utility.yul\":14745:14749   */\n      0x7f\n        /* \"#utility.yul\":14737:14743   */\n      dup3\n        /* \"#utility.yul\":14733:14750   */\n      and\n        /* \"#utility.yul\":14723:14750   */\n      swap2\n      pop\n        /* \"#utility.yul\":14679:14760   */\n    tag_485:\n        /* \"#utility.yul\":14807:14809   */\n      0x20\n        /* \"#utility.yul\":14799:14805   */\n      dup3\n        /* \"#utility.yul\":14796:14810   */\n      lt\n        /* \"#utility.yul\":14776:14794   */\n      dup2\n        /* \"#utility.yul\":14773:14811   */\n      eq\n        /* \"#utility.yul\":14770:14854   */\n      iszero\n      tag_486\n      jumpi\n        /* \"#utility.yul\":14826:14844   */\n      tag_487\n      tag_323\n      jump\t// in\n    tag_487:\n        /* \"#utility.yul\":14770:14854   */\n    tag_486:\n        /* \"#utility.yul\":14591:14860   */\n      pop\n        /* \"#utility.yul\":14540:14860   */\n      swap2\n      swap1\n      pop\n      jump\t// out\n        /* \"#utility.yul\":14866:15098   */\n    tag_324:\n        /* \"#utility.yul\":15006:15040   */\n      0x4f6e6c7920616e20616363657074656420617574686f722063616e2061707072\n        /* \"#utility.yul\":15002:15003   */\n      0x00\n        /* \"#utility.yul\":14994:15000   */\n      dup3\n        /* \"#utility.yul\":14990:15004   */\n      add\n        /* \"#utility.yul\":14983:15041   */\n      mstore\n        /* \"#utility.yul\":15075:15090   */\n      0x6f76652061207265717565737400000000000000000000000000000000000000\n        /* \"#utility.yul\":15070:15072   */\n      0x20\n        /* \"#utility.yul\":15062:15068   */\n      dup3\n        /* \"#utility.yul\":15058:15073   */\n      add\n        /* \"#utility.yul\":15051:15091   */\n      mstore\n        /* \"#utility.yul\":14866:15098   */\n      pop\n      jump\t// out\n        /* \"#utility.yul\":15104:15470   */\n    tag_325:\n        /* \"#utility.yul\":15246:15249   */\n      0x00\n        /* \"#utility.yul\":15267:15334   */\n      tag_490\n        /* \"#utility.yul\":15331:15333   */\n      0x2d\n        /* \"#utility.yul\":15326:15329   */\n      dup4\n        /* \"#utility.yul\":15267:15334   */\n      tag_294\n      jump\t// in\n    tag_490:\n        /* \"#utility.yul\":15260:15334   */\n      swap2\n      pop\n        /* \"#utility.yul\":15343:15436   */\n      tag_491\n        /* \"#utility.yul\":15432:15435   */\n      dup3\n        /* \"#utility.yul\":15343:15436   */\n      tag_324\n      jump\t// in\n    tag_491:\n        /* \"#utility.yul\":15461:15463   */\n      0x40\n        /* \"#utility.yul\":15456:15459   */\n      dup3\n        /* \"#utility.yul\":15452:15464   */\n      add\n        /* \"#utility.yul\":15445:15464   */\n      swap1\n      pop\n        /* \"#utility.yul\":15104:15470   */\n      swap2\n      swap1\n      pop\n      jump\t// out\n        /* \"#utility.yul\":15476:15895   */\n    tag_141:\n        /* \"#utility.yul\":15642:15646   */\n      0x00\n        /* \"#utility.yul\":15680:15682   */\n      0x20\n        /* \"#utility.yul\":15669:15678   */\n      dup3\n        /* \"#utility.yul\":15665:15683   */\n      add\n        /* \"#utility.yul\":15657:15683   */\n      swap1\n      pop\n        /* \"#utility.yul\":15729:15738   */\n      dup2\n        /* \"#utility.yul\":15723:15727   */\n      dup2\n        /* \"#utility.yul\":15719:15739   */\n      sub\n        /* \"#utility.yul\":15715:15716   */\n      0x00\n        /* \"#utility.yul\":15704:15713   */\n      dup4\n        /* \"#utility.yul\":15700:15717   */\n      add\n        /* \"#utility.yul\":15693:15740   */\n      mstore\n        /* \"#utility.yul\":15757:15888   */\n      tag_493\n        /* \"#utility.yul\":15883:15887   */\n      dup2\n        /* \"#utility.yul\":15757:15888   */\n      tag_325\n      jump\t// in\n    tag_493:\n        /* \"#utility.yul\":15749:15888   */\n      swap1\n      pop\n        /* \"#utility.yul\":15476:15895   */\n      swap2\n      swap1\n      pop\n      jump\t// out\n        /* \"#utility.yul\":15901:16081   */\n    tag_144:\n        /* \"#utility.yul\":15949:16026   */\n      0x4e487b7100000000000000000000000000000000000000000000000000000000\n        /* \"#utility.yul\":15946:15947   */\n      0x00\n        /* \"#utility.yul\":15939:16027   */\n      mstore\n        /* \"#utility.yul\":16046:16050   */\n      0x32\n        /* \"#utility.yul\":16043:16044   */\n      0x04\n        /* \"#utility.yul\":16036:16051   */\n      mstore\n        /* \"#utility.yul\":16070:16074   */\n      0x24\n        /* \"#utility.yul\":16067:16068   */\n      0x00\n        /* \"#utility.yul\":16060:16075   */\n      revert\n        /* \"#utility.yul\":16087:16309   */\n    tag_326:\n        /* \"#utility.yul\":16227:16261   */\n      0x5468697320617574686f7220616c726561647920617070726f76656420626566\n        /* \"#utility.yul\":16223:16224   */\n      0x00\n        /* \"#utility.yul\":16215:16221   */\n      dup3\n        /* \"#utility.yul\":16211:16225   */\n      add\n        /* \"#utility.yul\":16204:16262   */\n      mstore\n        /* \"#utility.yul\":16296:16301   */\n      0x6f72650000000000000000000000000000000000000000000000000000000000\n        /* \"#utility.yul\":16291:16293   */\n      0x20\n        /* \"#utility.yul\":16283:16289   */\n      dup3\n        /* \"#utility.yul\":16279:16294   */\n      add\n        /* \"#utility.yul\":16272:16302   */\n      mstore\n        /* \"#utility.yul\":16087:16309   */\n      pop\n      jump\t// out\n        /* \"#utility.yul\":16315:16681   */\n    tag_327:\n        /* \"#utility.yul\":16457:16460   */\n      0x00\n        /* \"#utility.yul\":16478:16545   */\n      tag_497\n        /* \"#utility.yul\":16542:16544   */\n      0x23\n        /* \"#utility.yul\":16537:16540   */\n      dup4\n        /* \"#utility.yul\":16478:16545   */\n      tag_294\n      jump\t// in\n    tag_497:\n        /* \"#utility.yul\":16471:16545   */\n      swap2\n      pop\n        /* \"#utility.yul\":16554:16647   */\n      tag_498\n        /* \"#utility.yul\":16643:16646   */\n      dup3\n        /* \"#utility.yul\":16554:16647   */\n      tag_326\n      jump\t// in\n    tag_498:\n        /* \"#utility.yul\":16672:16674   */\n      0x40\n        /* \"#utility.yul\":16667:16670   */\n      dup3\n        /* \"#utility.yul\":16663:16675   */\n      add\n        /* \"#utility.yul\":16656:16675   */\n      swap1\n      pop\n        /* \"#utility.yul\":16315:16681   */\n      swap2\n      swap1\n      pop\n      jump\t// out\n        /* \"#utility.yul\":16687:17106   */\n    tag_148:\n        /* \"#utility.yul\":16853:16857   */\n      0x00\n        /* \"#utility.yul\":16891:16893   */\n      0x20\n        /* \"#utility.yul\":16880:16889   */\n      dup3\n        /* \"#utility.yul\":16876:16894   */\n      add\n        /* \"#utility.yul\":16868:16894   */\n      swap1\n      pop\n        /* \"#utility.yul\":16940:16949   */\n      dup2\n        /* \"#utility.yul\":16934:16938   */\n      dup2\n        /* \"#utility.yul\":16930:16950   */\n      sub\n        /* \"#utility.yul\":16926:16927   */\n      0x00\n        /* \"#utility.yul\":16915:16924   */\n      dup4\n        /* \"#utility.yul\":16911:16928   */\n      add\n        /* \"#utility.yul\":16904:16951   */\n      mstore\n        /* \"#utility.yul\":16968:17099   */\n      tag_500\n        /* \"#utility.yul\":17094:17098   */\n      dup2\n        /* \"#utility.yul\":16968:17099   */\n      tag_327\n      jump\t// in\n    tag_500:\n        /* \"#utility.yul\":16960:17099   */\n      swap1\n      pop\n        /* \"#utility.yul\":16687:17106   */\n      swap2\n      swap1\n      pop\n      jump\t// out\n        /* \"#utility.yul\":17112:17344   */\n    tag_328:\n        /* \"#utility.yul\":17252:17286   */\n      0x5468697320726571756573742068617320616c7265616479206265656e206170\n        /* \"#utility.yul\":17248:17249   */\n      0x00\n        /* \"#utility.yul\":17240:17246   */\n      dup3\n        /* \"#utility.yul\":17236:17250   */\n      add\n        /* \"#utility.yul\":17229:17287   */\n      mstore\n        /* \"#utility.yul\":17321:17336   */\n      0x70726f766564206265666f726500000000000000000000000000000000000000\n        /* \"#utility.yul\":17316:17318   */\n      0x20\n        /* \"#utility.yul\":17308:17314   */\n      dup3\n        /* \"#utility.yul\":17304:17319   */\n      add\n        /* \"#utility.yul\":17297:17337   */\n      mstore\n        /* \"#utility.yul\":17112:17344   */\n      pop\n      jump\t// out\n        /* \"#utility.yul\":17350:17716   */\n    tag_329:\n        /* \"#utility.yul\":17492:17495   */\n      0x00\n        /* \"#utility.yul\":17513:17580   */\n      tag_503\n        /* \"#utility.yul\":17577:17579   */\n      0x2d\n        /* \"#utility.yul\":17572:17575   */\n      dup4\n        /* \"#utility.yul\":17513:17580   */\n      tag_294\n      jump\t// in\n    tag_503:\n        /* \"#utility.yul\":17506:17580   */\n      swap2\n      pop\n        /* \"#utility.yul\":17589:17682   */\n      tag_504\n        /* \"#utility.yul\":17678:17681   */\n      dup3\n        /* \"#utility.yul\":17589:17682   */\n      tag_328\n      jump\t// in\n    tag_504:\n        /* \"#utility.yul\":17707:17709   */\n      0x40\n        /* \"#utility.yul\":17702:17705   */\n      dup3\n        /* \"#utility.yul\":17698:17710   */\n      add\n        /* \"#utility.yul\":17691:17710   */\n      swap1\n      pop\n        /* \"#utility.yul\":17350:17716   */\n      swap2\n      swap1\n      pop\n      jump\t// out\n        /* \"#utility.yul\":17722:18141   */\n    tag_151:\n        /* \"#utility.yul\":17888:17892   */\n      0x00\n        /* \"#utility.yul\":17926:17928   */\n      0x20\n        /* \"#utility.yul\":17915:17924   */\n      dup3\n        /* \"#utility.yul\":17911:17929   */\n      add\n        /* \"#utility.yul\":17903:17929   */\n      swap1\n      pop\n        /* \"#utility.yul\":17975:17984   */\n      dup2\n        /* \"#utility.yul\":17969:17973   */\n      dup2\n        /* \"#utility.yul\":17965:17985   */\n      sub\n        /* \"#utility.yul\":17961:17962   */\n      0x00\n        /* \"#utility.yul\":17950:17959   */\n      dup4\n        /* \"#utility.yul\":17946:17963   */\n      add\n        /* \"#utility.yul\":17939:17986   */\n      mstore\n        /* \"#utility.yul\":18003:18134   */\n      tag_506\n        /* \"#utility.yul\":18129:18133   */\n      dup2\n        /* \"#utility.yul\":18003:18134   */\n      tag_329\n      jump\t// in\n    tag_506:\n        /* \"#utility.yul\":17995:18134   */\n      swap1\n      pop\n        /* \"#utility.yul\":17722:18141   */\n      swap2\n      swap1\n      pop\n      jump\t// out\n        /* \"#utility.yul\":18147:18327   */\n    tag_330:\n        /* \"#utility.yul\":18195:18272   */\n      0x4e487b7100000000000000000000000000000000000000000000000000000000\n        /* \"#utility.yul\":18192:18193   */\n      0x00\n        /* \"#utility.yul\":18185:18273   */\n      mstore\n        /* \"#utility.yul\":18292:18296   */\n      0x11\n        /* \"#utility.yul\":18289:18290   */\n      0x04\n        /* \"#utility.yul\":18282:18297   */\n      mstore\n        /* \"#utility.yul\":18316:18320   */\n      0x24\n        /* \"#utility.yul\":18313:18314   */\n      0x00\n        /* \"#utility.yul\":18306:18321   */\n      revert\n        /* \"#utility.yul\":18333:18638   */\n    tag_153:\n        /* \"#utility.yul\":18373:18376   */\n      0x00\n        /* \"#utility.yul\":18392:18412   */\n      tag_509\n        /* \"#utility.yul\":18410:18411   */\n      dup3\n        /* \"#utility.yul\":18392:18412   */\n      tag_305\n      jump\t// in\n    tag_509:\n        /* \"#utility.yul\":18387:18412   */\n      swap2\n      pop\n        /* \"#utility.yul\":18426:18446   */\n      tag_510\n        /* \"#utility.yul\":18444:18445   */\n      dup4\n        /* \"#utility.yul\":18426:18446   */\n      tag_305\n      jump\t// in\n    tag_510:\n        /* \"#utility.yul\":18421:18446   */\n      swap3\n      pop\n        /* \"#utility.yul\":18580:18581   */\n      dup3\n        /* \"#utility.yul\":18512:18578   */\n      0xffffffffffffffffffffffffffffffffffffffffffffffffffffffffffffffff\n        /* \"#utility.yul\":18508:18582   */\n      sub\n        /* \"#utility.yul\":18505:18506   */\n      dup3\n        /* \"#utility.yul\":18502:18583   */\n      gt\n        /* \"#utility.yul\":18499:18606   */\n      iszero\n      tag_511\n      jumpi\n        /* \"#utility.yul\":18586:18604   */\n      tag_512\n      tag_330\n      jump\t// in\n    tag_512:\n        /* \"#utility.yul\":18499:18606   */\n    tag_511:\n        /* \"#utility.yul\":18630:18631   */\n      dup3\n        /* \"#utility.yul\":18627:18628   */\n      dup3\n        /* \"#utility.yul\":18623:18632   */\n      add\n        /* \"#utility.yul\":18616:18632   */\n      swap1\n      pop\n        /* \"#utility.yul\":18333:18638   */\n      swap3\n      swap2\n      pop\n      pop\n      jump\t// out\n        /* \"#utility.yul\":18644:18824   */\n    tag_331:\n        /* \"#utility.yul\":18692:18769   */\n      0x4e487b7100000000000000000000000000000000000000000000000000000000\n        /* \"#utility.yul\":18689:18690   */\n      0x00\n        /* \"#utility.yul\":18682:18770   */\n      mstore\n        /* \"#utility.yul\":18789:18793   */\n      0x12\n        /* \"#utility.yul\":18786:18787   */\n      0x04\n        /* \"#utility.yul\":18779:18794   */\n      mstore\n        /* \"#utility.yul\":18813:18817   */\n      0x24\n        /* \"#utility.yul\":18810:18811   */\n      0x00\n        /* \"#utility.yul\":18803:18818   */\n      revert\n        /* \"#utility.yul\":18830:19015   */\n    tag_155:\n        /* \"#utility.yul\":18870:18871   */\n      0x00\n        /* \"#utility.yul\":18887:18907   */\n      tag_515\n        /* \"#utility.yul\":18905:18906   */\n      dup3\n        /* \"#utility.yul\":18887:18907   */\n      tag_305\n      jump\t// in\n    tag_515:\n        /* \"#utility.yul\":18882:18907   */\n      swap2\n      pop\n        /* \"#utility.yul\":18921:18941   */\n      tag_516\n        /* \"#utility.yul\":18939:18940   */\n      dup4\n        /* \"#utility.yul\":18921:18941   */\n      tag_305\n      jump\t// in\n    tag_516:\n        /* \"#utility.yul\":18916:18941   */\n      swap3\n      pop\n        /* \"#utility.yul\":18960:18961   */\n      dup3\n        /* \"#utility.yul\":18950:18985   */\n      tag_517\n      jumpi\n        /* \"#utility.yul\":18965:18983   */\n      tag_518\n      tag_331\n      jump\t// in\n    tag_518:\n        /* \"#utility.yul\":18950:18985   */\n    tag_517:\n        /* \"#utility.yul\":19007:19008   */\n      dup3\n        /* \"#utility.yul\":19004:19005   */\n      dup3\n        /* \"#utility.yul\":19000:19009   */\n      div\n        /* \"#utility.yul\":18995:19009   */\n      swap1\n      pop\n        /* \"#utility.yul\":18830:19015   */\n      swap3\n      swap2\n      pop\n      pop\n      jump\t// out\n        /* \"#utility.yul\":19021:19254   */\n    tag_166:\n        /* \"#utility.yul\":19060:19063   */\n      0x00\n        /* \"#utility.yul\":19083:19107   */\n      tag_520\n        /* \"#utility.yul\":19101:19106   */\n      dup3\n        /* \"#utility.yul\":19083:19107   */\n      tag_305\n      jump\t// in\n    tag_520:\n        /* \"#utility.yul\":19074:19107   */\n      swap2\n      pop\n        /* \"#utility.yul\":19129:19195   */\n      0xffffffffffffffffffffffffffffffffffffffffffffffffffffffffffffffff\n        /* \"#utility.yul\":19122:19127   */\n      dup3\n        /* \"#utility.yul\":19119:19196   */\n      eq\n        /* \"#utility.yul\":19116:19219   */\n      iszero\n      tag_521\n      jumpi\n        /* \"#utility.yul\":19199:19217   */\n      tag_522\n      tag_330\n      jump\t// in\n    tag_522:\n        /* \"#utility.yul\":19116:19219   */\n    tag_521:\n        /* \"#utility.yul\":19246:19247   */\n      0x01\n        /* \"#utility.yul\":19239:19244   */\n      dup3\n        /* \"#utility.yul\":19235:19248   */\n      add\n        /* \"#utility.yul\":19228:19248   */\n      swap1\n      pop\n        /* \"#utility.yul\":19021:19254   */\n      swap2\n      swap1\n      pop\n      jump\t// out\n        /* \"#utility.yul\":19260:19491   */\n    tag_332:\n        /* \"#utility.yul\":19400:19434   */\n      0x4f6e6c7920616e20616363657074656420617574686f722063616e2063726561\n        /* \"#utility.yul\":19396:19397   */\n      0x00\n        /* \"#utility.yul\":19388:19394   */\n      dup3\n        /* \"#utility.yul\":19384:19398   */\n      add\n        /* \"#utility.yul\":19377:19435   */\n      mstore\n        /* \"#utility.yul\":19469:19483   */\n      0x7465206120636861707465720000000000000000000000000000000000000000\n        /* \"#utility.yul\":19464:19466   */\n      0x20\n        /* \"#utility.yul\":19456:19462   */\n      dup3\n        /* \"#utility.yul\":19452:19467   */\n      add\n        /* \"#utility.yul\":19445:19484   */\n      mstore\n        /* \"#utility.yul\":19260:19491   */\n      pop\n      jump\t// out\n        /* \"#utility.yul\":19497:19863   */\n    tag_333:\n        /* \"#utility.yul\":19639:19642   */\n      0x00\n        /* \"#utility.yul\":19660:19727   */\n      tag_525\n        /* \"#utility.yul\":19724:19726   */\n      0x2c\n        /* \"#utility.yul\":19719:19722   */\n      dup4\n        /* \"#utility.yul\":19660:19727   */\n      tag_294\n      jump\t// in\n    tag_525:\n        /* \"#utility.yul\":19653:19727   */\n      swap2\n      pop\n        /* \"#utility.yul\":19736:19829   */\n      tag_526\n        /* \"#utility.yul\":19825:19828   */\n      dup3\n        /* \"#utility.yul\":19736:19829   */\n      tag_332\n      jump\t// in\n    tag_526:\n        /* \"#utility.yul\":19854:19856   */\n      0x40\n        /* \"#utility.yul\":19849:19852   */\n      dup3\n        /* \"#utility.yul\":19845:19857   */\n      add\n        /* \"#utility.yul\":19838:19857   */\n      swap1\n      pop\n        /* \"#utility.yul\":19497:19863   */\n      swap2\n      swap1\n      pop\n      jump\t// out\n        /* \"#utility.yul\":19869:20288   */\n    tag_223:\n        /* \"#utility.yul\":20035:20039   */\n      0x00\n        /* \"#utility.yul\":20073:20075   */\n      0x20\n        /* \"#utility.yul\":20062:20071   */\n      dup3\n        /* \"#utility.yul\":20058:20076   */\n      add\n        /* \"#utility.yul\":20050:20076   */\n      swap1\n      pop\n        /* \"#utility.yul\":20122:20131   */\n      dup2\n        /* \"#utility.yul\":20116:20120   */\n      dup2\n        /* \"#utility.yul\":20112:20132   */\n      sub\n        /* \"#utility.yul\":20108:20109   */\n      0x00\n        /* \"#utility.yul\":20097:20106   */\n      dup4\n        /* \"#utility.yul\":20093:20110   */\n      add\n        /* \"#utility.yul\":20086:20133   */\n      mstore\n        /* \"#utility.yul\":20150:20281   */\n      tag_528\n        /* \"#utility.yul\":20276:20280   */\n      dup2\n        /* \"#utility.yul\":20150:20281   */\n      tag_333\n      jump\t// in\n    tag_528:\n        /* \"#utility.yul\":20142:20281   */\n      swap1\n      pop\n        /* \"#utility.yul\":19869:20288   */\n      swap2\n      swap1\n      pop\n      jump\t// out\n        /* \"#utility.yul\":20294:20525   */\n    tag_334:\n        /* \"#utility.yul\":20434:20468   */\n      0x506172656e742063686170746572206d7573742062656c6f6e6720746f207468\n        /* \"#utility.yul\":20430:20431   */\n      0x00\n        /* \"#utility.yul\":20422:20428   */\n      dup3\n        /* \"#utility.yul\":20418:20432   */\n      add\n        /* \"#utility.yul\":20411:20469   */\n      mstore\n        /* \"#utility.yul\":20503:20517   */\n      0x652073616d652073746f72790000000000000000000000000000000000000000\n        /* \"#utility.yul\":20498:20500   */\n      0x20\n        /* \"#utility.yul\":20490:20496   */\n      dup3\n        /* \"#utility.yul\":20486:20501   */\n      add\n        /* \"#utility.yul\":20479:20518   */\n      mstore\n        /* \"#utility.yul\":20294:20525   */\n      pop\n      jump\t// out\n        /* \"#utility.yul\":20531:20897   */\n    tag_335:\n        /* \"#utility.yul\":20673:20676   */\n      0x00\n        /* \"#utility.yul\":20694:20761   */\n      tag_531\n        /* \"#utility.yul\":20758:20760   */\n      0x2c\n        /* \"#utility.yul\":20753:20756   */\n      dup4\n        /* \"#utility.yul\":20694:20761   */\n      tag_294\n      jump\t// in\n    tag_531:\n        /* \"#utility.yul\":20687:20761   */\n      swap2\n      pop\n        /* \"#utility.yul\":20770:20863   */\n      tag_532\n        /* \"#utility.yul\":20859:20862   */\n      dup3\n        /* \"#utility.yul\":20770:20863   */\n      tag_334\n      jump\t// in\n    tag_532:\n        /* \"#utility.yul\":20888:20890   */\n      0x40\n        /* \"#utility.yul\":20883:20886   */\n      dup3\n        /* \"#utility.yul\":20879:20891   */\n      add\n        /* \"#utility.yul\":20872:20891   */\n      swap1\n      pop\n        /* \"#utility.yul\":20531:20897   */\n      swap2\n      swap1\n      pop\n      jump\t// out\n        /* \"#utility.yul\":20903:21322   */\n    tag_227:\n        /* \"#utility.yul\":21069:21073   */\n      0x00\n        /* \"#utility.yul\":21107:21109   */\n      0x20\n        /* \"#utility.yul\":21096:21105   */\n      dup3\n        /* \"#utility.yul\":21092:21110   */\n      add\n        /* \"#utility.yul\":21084:21110   */\n      swap1\n      pop\n        /* \"#utility.yul\":21156:21165   */\n      dup2\n        /* \"#utility.yul\":21150:21154   */\n      dup2\n        /* \"#utility.yul\":21146:21166   */\n      sub\n        /* \"#utility.yul\":21142:21143   */\n      0x00\n        /* \"#utility.yul\":21131:21140   */\n      dup4\n        /* \"#utility.yul\":21127:21144   */\n      add\n        /* \"#utility.yul\":21120:21167   */\n      mstore\n        /* \"#utility.yul\":21184:21315   */\n      tag_534\n        /* \"#utility.yul\":21310:21314   */\n      dup2\n        /* \"#utility.yul\":21184:21315   */\n      tag_335\n      jump\t// in\n    tag_534:\n        /* \"#utility.yul\":21176:21315   */\n      swap1\n      pop\n        /* \"#utility.yul\":20903:21322   */\n      swap2\n      swap1\n      pop\n      jump\t// out\n        /* \"#utility.yul\":21328:21558   */\n    tag_336:\n        /* \"#utility.yul\":21468:21502   */\n      0x4368696c642063686170746572206d7573742062656c6f6e6720746f20746865\n        /* \"#utility.yul\":21464:21465   */\n      0x00\n        /* \"#utility.yul\":21456:21462   */\n      dup3\n        /* \"#utility.yul\":21452:21466   */\n      add\n        /* \"#utility.yul\":21445:21503   */\n      mstore\n        /* \"#utility.yul\":21537:21550   */\n      0x2073616d652073746f7279000000000000000000000000000000000000000000\n        /* \"#utility.yul\":21532:21534   */\n      0x20\n        /* \"#utility.yul\":21524:21530   */\n      dup3\n        /* \"#utility.yul\":21520:21535   */\n      add\n        /* \"#utility.yul\":21513:21551   */\n      mstore\n        /* \"#utility.yul\":21328:21558   */\n      pop\n      jump\t// out\n        /* \"#utility.yul\":21564:21930   */\n    tag_337:\n        /* \"#utility.yul\":21706:21709   */\n      0x00\n        /* \"#utility.yul\":21727:21794   */\n      tag_537\n        /* \"#utility.yul\":21791:21793   */\n      0x2b\n        /* \"#utility.yul\":21786:21789   */\n      dup4\n        /* \"#utility.yul\":21727:21794   */\n      tag_294\n      jump\t// in\n    tag_537:\n        /* \"#utility.yul\":21720:21794   */\n      swap2\n      pop\n        /* \"#utility.yul\":21803:21896   */\n      tag_538\n        /* \"#utility.yul\":21892:21895   */\n      dup3\n        /* \"#utility.yul\":21803:21896   */\n      tag_336\n      jump\t// in\n    tag_538:\n        /* \"#utility.yul\":21921:21923   */\n      0x40\n        /* \"#utility.yul\":21916:21919   */\n      dup3\n        /* \"#utility.yul\":21912:21924   */\n      add\n        /* \"#utility.yul\":21905:21924   */\n      swap1\n      pop\n        /* \"#utility.yul\":21564:21930   */\n      swap2\n      swap1\n      pop\n      jump\t// out\n        /* \"#utility.yul\":21936:22355   */\n    tag_231:\n        /* \"#utility.yul\":22102:22106   */\n      0x00\n        /* \"#utility.yul\":22140:22142   */\n      0x20\n        /* \"#utility.yul\":22129:22138   */\n      dup3\n        /* \"#utility.yul\":22125:22143   */\n      add\n        /* \"#utility.yul\":22117:22143   */\n      swap1\n      pop\n        /* \"#utility.yul\":22189:22198   */\n      dup2\n        /* \"#utility.yul\":22183:22187   */\n      dup2\n        /* \"#utility.yul\":22179:22199   */\n      sub\n        /* \"#utility.yul\":22175:22176   */\n      0x00\n        /* \"#utility.yul\":22164:22173   */\n      dup4\n        /* \"#utility.yul\":22160:22177   */\n      add\n        /* \"#utility.yul\":22153:22200   */\n      mstore\n        /* \"#utility.yul\":22217:22348   */\n      tag_540\n        /* \"#utility.yul\":22343:22347   */\n      dup2\n        /* \"#utility.yul\":22217:22348   */\n      tag_337\n      jump\t// in\n    tag_540:\n        /* \"#utility.yul\":22209:22348   */\n      swap1\n      pop\n        /* \"#utility.yul\":21936:22355   */\n      swap2\n      swap1\n      pop\n      jump\t// out\n        /* \"#utility.yul\":22361:23318   */\n    tag_235:\n        /* \"#utility.yul\":22634:22638   */\n      0x00\n        /* \"#utility.yul\":22672:22675   */\n      0xc0\n        /* \"#utility.yul\":22661:22670   */\n      dup3\n        /* \"#utility.yul\":22657:22676   */\n      add\n        /* \"#utility.yul\":22649:22676   */\n      swap1\n      pop\n        /* \"#utility.yul\":22686:22757   */\n      tag_542\n        /* \"#utility.yul\":22754:22755   */\n      0x00\n        /* \"#utility.yul\":22743:22752   */\n      dup4\n        /* \"#utility.yul\":22739:22756   */\n      add\n        /* \"#utility.yul\":22730:22736   */\n      dup10\n        /* \"#utility.yul\":22686:22757   */\n      tag_307\n      jump\t// in\n    tag_542:\n        /* \"#utility.yul\":22767:22839   */\n      tag_543\n        /* \"#utility.yul\":22835:22837   */\n      0x20\n        /* \"#utility.yul\":22824:22833   */\n      dup4\n        /* \"#utility.yul\":22820:22838   */\n      add\n        /* \"#utility.yul\":22811:22817   */\n      dup9\n        /* \"#utility.yul\":22767:22839   */\n      tag_307\n      jump\t// in\n    tag_543:\n        /* \"#utility.yul\":22886:22895   */\n      dup2\n        /* \"#utility.yul\":22880:22884   */\n      dup2\n        /* \"#utility.yul\":22876:22896   */\n      sub\n        /* \"#utility.yul\":22871:22873   */\n      0x40\n        /* \"#utility.yul\":22860:22869   */\n      dup4\n        /* \"#utility.yul\":22856:22874   */\n      add\n        /* \"#utility.yul\":22849:22897   */\n      mstore\n        /* \"#utility.yul\":22914:22992   */\n      tag_544\n        /* \"#utility.yul\":22987:22991   */\n      dup2\n        /* \"#utility.yul\":22978:22984   */\n      dup8\n        /* \"#utility.yul\":22914:22992   */\n      tag_297\n      jump\t// in\n    tag_544:\n        /* \"#utility.yul\":22906:22992   */\n      swap1\n      pop\n        /* \"#utility.yul\":23039:23048   */\n      dup2\n        /* \"#utility.yul\":23033:23037   */\n      dup2\n        /* \"#utility.yul\":23029:23049   */\n      sub\n        /* \"#utility.yul\":23024:23026   */\n      0x60\n        /* \"#utility.yul\":23013:23022   */\n      dup4\n        /* \"#utility.yul\":23009:23027   */\n      add\n        /* \"#utility.yul\":23002:23050   */\n      mstore\n        /* \"#utility.yul\":23067:23145   */\n      tag_545\n        /* \"#utility.yul\":23140:23144   */\n      dup2\n        /* \"#utility.yul\":23131:23137   */\n      dup7\n        /* \"#utility.yul\":23067:23145   */\n      tag_297\n      jump\t// in\n    tag_545:\n        /* \"#utility.yul\":23059:23145   */\n      swap1\n      pop\n        /* \"#utility.yul\":23155:23228   */\n      tag_546\n        /* \"#utility.yul\":23223:23226   */\n      0x80\n        /* \"#utility.yul\":23212:23221   */\n      dup4\n        /* \"#utility.yul\":23208:23227   */\n      add\n        /* \"#utility.yul\":23199:23205   */\n      dup6\n        /* \"#utility.yul\":23155:23228   */\n      tag_307\n      jump\t// in\n    tag_546:\n        /* \"#utility.yul\":23238:23311   */\n      tag_547\n        /* \"#utility.yul\":23306:23309   */\n      0xa0\n        /* \"#utility.yul\":23295:23304   */\n      dup4\n        /* \"#utility.yul\":23291:23310   */\n      add\n        /* \"#utility.yul\":23282:23288   */\n      dup5\n        /* \"#utility.yul\":23238:23311   */\n      tag_307\n      jump\t// in\n    tag_547:\n        /* \"#utility.yul\":22361:23318   */\n      swap8\n      swap7\n      pop\n      pop\n      pop\n      pop\n      pop\n      pop\n      pop\n      jump\t// out\n        /* \"#utility.yul\":23324:23555   */\n    tag_338:\n        /* \"#utility.yul\":23464:23498   */\n      0x417574686f7220616c72656164792065786973747320696e20746865206c6973\n        /* \"#utility.yul\":23460:23461   */\n      0x00\n        /* \"#utility.yul\":23452:23458   */\n      dup3\n        /* \"#utility.yul\":23448:23462   */\n      add\n        /* \"#utility.yul\":23441:23499   */\n      mstore\n        /* \"#utility.yul\":23533:23547   */\n      0x74206f6620617574686f72730000000000000000000000000000000000000000\n        /* \"#utility.yul\":23528:23530   */\n      0x20\n        /* \"#utility.yul\":23520:23526   */\n      dup3\n        /* \"#utility.yul\":23516:23531   */\n      add\n        /* \"#utility.yul\":23509:23548   */\n      mstore\n        /* \"#utility.yul\":23324:23555   */\n      pop\n      jump\t// out\n        /* \"#utility.yul\":23561:23927   */\n    tag_339:\n        /* \"#utility.yul\":23703:23706   */\n      0x00\n        /* \"#utility.yul\":23724:23791   */\n      tag_550\n        /* \"#utility.yul\":23788:23790   */\n      0x2c\n        /* \"#utility.yul\":23783:23786   */\n      dup4\n        /* \"#utility.yul\":23724:23791   */\n      tag_294\n      jump\t// in\n    tag_550:\n        /* \"#utility.yul\":23717:23791   */\n      swap2\n      pop\n        /* \"#utility.yul\":23800:23893   */\n      tag_551\n        /* \"#utility.yul\":23889:23892   */\n      dup3\n        /* \"#utility.yul\":23800:23893   */\n      tag_338\n      jump\t// in\n    tag_551:\n        /* \"#utility.yul\":23918:23920   */\n      0x40\n        /* \"#utility.yul\":23913:23916   */\n      dup3\n        /* \"#utility.yul\":23909:23921   */\n      add\n        /* \"#utility.yul\":23902:23921   */\n      swap1\n      pop\n        /* \"#utility.yul\":23561:23927   */\n      swap2\n      swap1\n      pop\n      jump\t// out\n        /* \"#utility.yul\":23933:24352   */\n    tag_265:\n        /* \"#utility.yul\":24099:24103   */\n      0x00\n        /* \"#utility.yul\":24137:24139   */\n      0x20\n        /* \"#utility.yul\":24126:24135   */\n      dup3\n        /* \"#utility.yul\":24122:24140   */\n      add\n        /* \"#utility.yul\":24114:24140   */\n      swap1\n      pop\n        /* \"#utility.yul\":24186:24195   */\n      dup2\n        /* \"#utility.yul\":24180:24184   */\n      dup2\n        /* \"#utility.yul\":24176:24196   */\n      sub\n        /* \"#utility.yul\":24172:24173   */\n      0x00\n        /* \"#utility.yul\":24161:24170   */\n      dup4\n        /* \"#utility.yul\":24157:24174   */\n      add\n        /* \"#utility.yul\":24150:24197   */\n      mstore\n        /* \"#utility.yul\":24214:24345   */\n      tag_553\n        /* \"#utility.yul\":24340:24344   */\n      dup2\n        /* \"#utility.yul\":24214:24345   */\n      tag_339\n      jump\t// in\n    tag_553:\n        /* \"#utility.yul\":24206:24345   */\n      swap1\n      pop\n        /* \"#utility.yul\":23933:24352   */\n      swap2\n      swap1\n      pop\n      jump\t// out\n    stop\n\n    sub_0: assembly {\n            /* \"Story.sol\":7328:9303  contract Chapter {... */\n          mstore(0x40, 0x80)\n            /* \"Story.sol\":7658:8172  constructor(address _author, address _story, string memory _title, string memory _ipfsHash, address parentChapter, address childChapter) {... */\n          callvalue\n          dup1\n          iszero\n          tag_1\n          jumpi\n          0x00\n          dup1\n          revert\n        tag_1:\n          pop\n          mload(0x40)\n          sub(codesize, bytecodeSize)\n          dup1\n          bytecodeSize\n          dup4\n          codecopy\n          dup2\n          dup2\n          add\n          0x40\n          mstore\n          dup2\n          add\n          swap1\n          tag_2\n          swap2\n          swap1\n          tag_3\n          jump\t// in\n        tag_2:\n            /* \"Story.sol\":7819:7826  _author */\n          dup6\n            /* \"Story.sol\":7810:7816  author */\n          0x01\n          0x00\n            /* \"Story.sol\":7810:7826  author = _author */\n          0x0100\n          exp\n          dup2\n          sload\n          dup2\n          0xffffffffffffffffffffffffffffffffffffffff\n          mul\n          not\n          and\n          swap1\n          dup4\n          0xffffffffffffffffffffffffffffffffffffffff\n          and\n          mul\n          or\n          swap1\n          sstore\n          pop\n            /* \"Story.sol\":7849:7855  _story */\n          dup5\n            /* \"Story.sol\":7841:7846  story */\n          0x00\n          dup1\n            /* \"Story.sol\":7841:7855  story = _story */\n          0x0100\n          exp\n          dup2\n          sload\n          dup2\n          0xffffffffffffffffffffffffffffffffffffffff\n          mul\n          not\n          and\n          swap1\n          dup4\n          0xffffffffffffffffffffffffffffffffffffffff\n          and\n          mul\n          or\n          swap1\n          sstore\n          pop\n            /* \"Story.sol\":7881:7890  _ipfsHash */\n          dup3\n            /* \"Story.sol\":7870:7878  ipfsHash */\n          0x03\n            /* \"Story.sol\":7870:7890  ipfsHash = _ipfsHash */\n          swap1\n          dup1\n          mload\n          swap1\n          0x20\n          add\n          swap1\n          tag_6\n          swap3\n          swap2\n          swap1\n          tag_7\n          jump\t// in\n        tag_6:\n          pop\n            /* \"Story.sol\":7913:7919  _title */\n          dup4\n            /* \"Story.sol\":7905:7910  title */\n          0x02\n            /* \"Story.sol\":7905:7919  title = _title */\n          swap1\n          dup1\n          mload\n          swap1\n          0x20\n          add\n          swap1\n          tag_8\n          swap3\n          swap2\n          swap1\n          tag_7\n          jump\t// in\n        tag_8:\n          pop\n            /* \"Story.sol\":7963:7964  0 */\n          0x00\n            /* \"Story.sol\":7938:7965  parentChapter != address(0) */\n          0xffffffffffffffffffffffffffffffffffffffff\n          and\n            /* \"Story.sol\":7938:7951  parentChapter */\n          dup3\n            /* \"Story.sol\":7938:7965  parentChapter != address(0) */\n          0xffffffffffffffffffffffffffffffffffffffff\n          and\n          eq\n            /* \"Story.sol\":7934:8042  if (parentChapter != address(0)) {... */\n          tag_9\n          jumpi\n            /* \"Story.sol\":7986:8006  linkedParentChapters */\n          0x04\n            /* \"Story.sol\":8012:8025  parentChapter */\n          dup3\n            /* \"Story.sol\":7986:8026  linkedParentChapters.push(parentChapter) */\n          swap1\n          dup1\n          0x01\n          dup2\n          sload\n          add\n          dup1\n          dup3\n          sstore\n          dup1\n          swap2\n          pop\n          pop\n          0x01\n          swap1\n          sub\n          swap1\n          0x00\n          mstore\n          keccak256(0x00, 0x20)\n          add\n          0x00\n          swap1\n          swap2\n          swap1\n          swap2\n          swap1\n          swap2\n          0x0100\n          exp\n          dup2\n          sload\n          dup2\n          0xffffffffffffffffffffffffffffffffffffffff\n          mul\n          not\n          and\n          swap1\n          dup4\n          0xffffffffffffffffffffffffffffffffffffffff\n          and\n          mul\n          or\n          swap1\n          sstore\n          pop\n            /* \"Story.sol\":7934:8042  if (parentChapter != address(0)) {... */\n        tag_9:\n            /* \"Story.sol\":8084:8085  0 */\n          0x00\n            /* \"Story.sol\":8060:8086  childChapter != address(0) */\n          0xffffffffffffffffffffffffffffffffffffffff\n          and\n            /* \"Story.sol\":8060:8072  childChapter */\n          dup2\n            /* \"Story.sol\":8060:8086  childChapter != address(0) */\n          0xffffffffffffffffffffffffffffffffffffffff\n          and\n          eq\n            /* \"Story.sol\":8056:8161  if (childChapter != address(0)) {... */\n          tag_11\n          jumpi\n            /* \"Story.sol\":8107:8126  linkedChildChapters */\n          0x05\n            /* \"Story.sol\":8132:8144  childChapter */\n          dup2\n            /* \"Story.sol\":8107:8145  linkedChildChapters.push(childChapter) */\n          swap1\n          dup1\n          0x01\n          dup2\n          sload\n          add\n          dup1\n          dup3\n          sstore\n          dup1\n          swap2\n          pop\n          pop\n          0x01\n          swap1\n          sub\n          swap1\n          0x00\n          mstore\n          keccak256(0x00, 0x20)\n          add\n          0x00\n          swap1\n          swap2\n          swap1\n          swap2\n          swap1\n          swap2\n          0x0100\n          exp\n          dup2\n          sload\n          dup2\n          0xffffffffffffffffffffffffffffffffffffffff\n          mul\n          not\n          and\n          swap1\n          dup4\n          0xffffffffffffffffffffffffffffffffffffffff\n          and\n          mul\n          or\n          swap1\n          sstore\n          pop\n            /* \"Story.sol\":8056:8161  if (childChapter != address(0)) {... */\n        tag_11:\n            /* \"Story.sol\":7658:8172  constructor(address _author, address _story, string memory _title, string memory _ipfsHash, address parentChapter, address childChapter) {... */\n          pop\n          pop\n          pop\n          pop\n          pop\n          pop\n            /* \"Story.sol\":7328:9303  contract Chapter {... */\n          jump(tag_13)\n        tag_7:\n          dup3\n          dup1\n          sload\n          tag_14\n          swap1\n          tag_15\n          jump\t// in\n        tag_14:\n          swap1\n          0x00\n          mstore\n          keccak256(0x00, 0x20)\n          swap1\n          0x1f\n          add\n          0x20\n          swap1\n          div\n          dup2\n          add\n          swap3\n          dup3\n          tag_17\n          jumpi\n          0x00\n          dup6\n          sstore\n          jump(tag_16)\n        tag_17:\n          dup3\n          0x1f\n          lt\n          tag_18\n          jumpi\n          dup1\n          mload\n          not(0xff)\n          and\n          dup4\n          dup1\n          add\n          or\n          dup6\n          sstore\n          jump(tag_16)\n        tag_18:\n          dup3\n          dup1\n          add\n          0x01\n          add\n          dup6\n          sstore\n          dup3\n          iszero\n          tag_16\n          jumpi\n          swap2\n          dup3\n          add\n        tag_19:\n          dup3\n          dup2\n          gt\n          iszero\n          tag_20\n          jumpi\n          dup3\n          mload\n          dup3\n          sstore\n          swap2\n          0x20\n          add\n          swap2\n          swap1\n          0x01\n          add\n          swap1\n          jump(tag_19)\n        tag_20:\n        tag_16:\n          pop\n          swap1\n          pop\n          tag_21\n          swap2\n          swap1\n          tag_22\n          jump\t// in\n        tag_21:\n          pop\n          swap1\n          jump\t// out\n        tag_22:\n        tag_23:\n          dup1\n          dup3\n          gt\n          iszero\n          tag_24\n          jumpi\n          0x00\n          dup2\n          0x00\n          swap1\n          sstore\n          pop\n          0x01\n          add\n          jump(tag_23)\n        tag_24:\n          pop\n          swap1\n          jump\t// out\n            /* \"#utility.yul\":7:82   */\n        tag_25:\n            /* \"#utility.yul\":40:46   */\n          0x00\n            /* \"#utility.yul\":73:75   */\n          0x40\n            /* \"#utility.yul\":67:76   */\n          mload\n            /* \"#utility.yul\":57:76   */\n          swap1\n          pop\n            /* \"#utility.yul\":7:82   */\n          swap1\n          jump\t// out\n            /* \"#utility.yul\":88:205   */\n        tag_26:\n            /* \"#utility.yul\":197:198   */\n          0x00\n            /* \"#utility.yul\":194:195   */\n          dup1\n            /* \"#utility.yul\":187:199   */\n          revert\n            /* \"#utility.yul\":211:328   */\n        tag_27:\n            /* \"#utility.yul\":320:321   */\n          0x00\n            /* \"#utility.yul\":317:318   */\n          dup1\n            /* \"#utility.yul\":310:322   */\n          revert\n            /* \"#utility.yul\":334:460   */\n        tag_28:\n            /* \"#utility.yul\":371:378   */\n          0x00\n            /* \"#utility.yul\":411:453   */\n          0xffffffffffffffffffffffffffffffffffffffff\n            /* \"#utility.yul\":404:409   */\n          dup3\n            /* \"#utility.yul\":400:454   */\n          and\n            /* \"#utility.yul\":389:454   */\n          swap1\n          pop\n            /* \"#utility.yul\":334:460   */\n          swap2\n          swap1\n          pop\n          jump\t// out\n            /* \"#utility.yul\":466:562   */\n        tag_29:\n            /* \"#utility.yul\":503:510   */\n          0x00\n            /* \"#utility.yul\":532:556   */\n          tag_49\n            /* \"#utility.yul\":550:555   */\n          dup3\n            /* \"#utility.yul\":532:556   */\n          tag_28\n          jump\t// in\n        tag_49:\n            /* \"#utility.yul\":521:556   */\n          swap1\n          pop\n            /* \"#utility.yul\":466:562   */\n          swap2\n          swap1\n          pop\n          jump\t// out\n            /* \"#utility.yul\":568:690   */\n        tag_30:\n            /* \"#utility.yul\":641:665   */\n          tag_51\n            /* \"#utility.yul\":659:664   */\n          dup2\n            /* \"#utility.yul\":641:665   */\n          tag_29\n          jump\t// in\n        tag_51:\n            /* \"#utility.yul\":634:639   */\n          dup2\n            /* \"#utility.yul\":631:666   */\n          eq\n            /* \"#utility.yul\":621:684   */\n          tag_52\n          jumpi\n            /* \"#utility.yul\":680:681   */\n          0x00\n            /* \"#utility.yul\":677:678   */\n          dup1\n            /* \"#utility.yul\":670:682   */\n          revert\n            /* \"#utility.yul\":621:684   */\n        tag_52:\n            /* \"#utility.yul\":568:690   */\n          pop\n          jump\t// out\n            /* \"#utility.yul\":696:839   */\n        tag_31:\n            /* \"#utility.yul\":753:758   */\n          0x00\n            /* \"#utility.yul\":784:790   */\n          dup2\n            /* \"#utility.yul\":778:791   */\n          mload\n            /* \"#utility.yul\":769:791   */\n          swap1\n          pop\n            /* \"#utility.yul\":800:833   */\n          tag_54\n            /* \"#utility.yul\":827:832   */\n          dup2\n            /* \"#utility.yul\":800:833   */\n          tag_30\n          jump\t// in\n        tag_54:\n            /* \"#utility.yul\":696:839   */\n          swap3\n          swap2\n          pop\n          pop\n          jump\t// out\n            /* \"#utility.yul\":845:962   */\n        tag_32:\n            /* \"#utility.yul\":954:955   */\n          0x00\n            /* \"#utility.yul\":951:952   */\n          dup1\n            /* \"#utility.yul\":944:956   */\n          revert\n            /* \"#utility.yul\":968:1085   */\n        tag_33:\n            /* \"#utility.yul\":1077:1078   */\n          0x00\n            /* \"#utility.yul\":1074:1075   */\n          dup1\n            /* \"#utility.yul\":1067:1079   */\n          revert\n            /* \"#utility.yul\":1091:1193   */\n        tag_34:\n            /* \"#utility.yul\":1132:1138   */\n          0x00\n            /* \"#utility.yul\":1183:1185   */\n          0x1f\n            /* \"#utility.yul\":1179:1186   */\n          not\n            /* \"#utility.yul\":1174:1176   */\n          0x1f\n            /* \"#utility.yul\":1167:1172   */\n          dup4\n            /* \"#utility.yul\":1163:1177   */\n          add\n            /* \"#utility.yul\":1159:1187   */\n          and\n            /* \"#utility.yul\":1149:1187   */\n          swap1\n          pop\n            /* \"#utility.yul\":1091:1193   */\n          swap2\n          swap1\n          pop\n          jump\t// out\n            /* \"#utility.yul\":1199:1379   */\n        tag_35:\n            /* \"#utility.yul\":1247:1324   */\n          0x4e487b7100000000000000000000000000000000000000000000000000000000\n            /* \"#utility.yul\":1244:1245   */\n          0x00\n            /* \"#utility.yul\":1237:1325   */\n          mstore\n            /* \"#utility.yul\":1344:1348   */\n          0x41\n            /* \"#utility.yul\":1341:1342   */\n          0x04\n            /* \"#utility.yul\":1334:1349   */\n          mstore\n            /* \"#utility.yul\":1368:1372   */\n          0x24\n            /* \"#utility.yul\":1365:1366   */\n          0x00\n            /* \"#utility.yul\":1358:1373   */\n          revert\n            /* \"#utility.yul\":1385:1666   */\n        tag_36:\n            /* \"#utility.yul\":1468:1495   */\n          tag_60\n            /* \"#utility.yul\":1490:1494   */\n          dup3\n            /* \"#utility.yul\":1468:1495   */\n          tag_34\n          jump\t// in\n        tag_60:\n            /* \"#utility.yul\":1460:1466   */\n          dup2\n            /* \"#utility.yul\":1456:1496   */\n          add\n            /* \"#utility.yul\":1598:1604   */\n          dup2\n            /* \"#utility.yul\":1586:1596   */\n          dup2\n            /* \"#utility.yul\":1583:1605   */\n          lt\n            /* \"#utility.yul\":1562:1580   */\n          0xffffffffffffffff\n            /* \"#utility.yul\":1550:1560   */\n          dup3\n            /* \"#utility.yul\":1547:1581   */\n          gt\n            /* \"#utility.yul\":1544:1606   */\n          or\n            /* \"#utility.yul\":1541:1629   */\n          iszero\n          tag_61\n          jumpi\n            /* \"#utility.yul\":1609:1627   */\n          tag_62\n          tag_35\n          jump\t// in\n        tag_62:\n            /* \"#utility.yul\":1541:1629   */\n        tag_61:\n            /* \"#utility.yul\":1649:1659   */\n          dup1\n            /* \"#utility.yul\":1645:1647   */\n          0x40\n            /* \"#utility.yul\":1638:1660   */\n          mstore\n            /* \"#utility.yul\":1428:1666   */\n          pop\n            /* \"#utility.yul\":1385:1666   */\n          pop\n          pop\n          jump\t// out\n            /* \"#utility.yul\":1672:1801   */\n        tag_37:\n            /* \"#utility.yul\":1706:1712   */\n          0x00\n            /* \"#utility.yul\":1733:1753   */\n          tag_64\n          tag_25\n          jump\t// in\n        tag_64:\n            /* \"#utility.yul\":1723:1753   */\n          swap1\n          pop\n            /* \"#utility.yul\":1762:1795   */\n          tag_65\n            /* \"#utility.yul\":1790:1794   */\n          dup3\n            /* \"#utility.yul\":1782:1788   */\n          dup3\n            /* \"#utility.yul\":1762:1795   */\n          tag_36\n          jump\t// in\n        tag_65:\n            /* \"#utility.yul\":1672:1801   */\n          swap2\n          swap1\n          pop\n          jump\t// out\n            /* \"#utility.yul\":1807:2115   */\n        tag_38:\n            /* \"#utility.yul\":1869:1873   */\n          0x00\n            /* \"#utility.yul\":1959:1977   */\n          0xffffffffffffffff\n            /* \"#utility.yul\":1951:1957   */\n          dup3\n            /* \"#utility.yul\":1948:1978   */\n          gt\n            /* \"#utility.yul\":1945:2001   */\n          iszero\n          tag_67\n          jumpi\n            /* \"#utility.yul\":1981:1999   */\n          tag_68\n          tag_35\n          jump\t// in\n        tag_68:\n            /* \"#utility.yul\":1945:2001   */\n        tag_67:\n            /* \"#utility.yul\":2019:2048   */\n          tag_69\n            /* \"#utility.yul\":2041:2047   */\n          dup3\n            /* \"#utility.yul\":2019:2048   */\n          tag_34\n          jump\t// in\n        tag_69:\n            /* \"#utility.yul\":2011:2048   */\n          swap1\n          pop\n            /* \"#utility.yul\":2103:2107   */\n          0x20\n            /* \"#utility.yul\":2097:2101   */\n          dup2\n            /* \"#utility.yul\":2093:2108   */\n          add\n            /* \"#utility.yul\":2085:2108   */\n          swap1\n          pop\n            /* \"#utility.yul\":1807:2115   */\n          swap2\n          swap1\n          pop\n          jump\t// out\n            /* \"#utility.yul\":2121:2428   */\n        tag_39:\n            /* \"#utility.yul\":2189:2190   */\n          0x00\n            /* \"#utility.yul\":2199:2312   */\n        tag_71:\n            /* \"#utility.yul\":2213:2219   */\n          dup4\n            /* \"#utility.yul\":2210:2211   */\n          dup2\n            /* \"#utility.yul\":2207:2220   */\n          lt\n            /* \"#utility.yul\":2199:2312   */\n          iszero\n          tag_73\n          jumpi\n            /* \"#utility.yul\":2298:2299   */\n          dup1\n            /* \"#utility.yul\":2293:2296   */\n          dup3\n            /* \"#utility.yul\":2289:2300   */\n          add\n            /* \"#utility.yul\":2283:2301   */\n          mload\n            /* \"#utility.yul\":2279:2280   */\n          dup2\n            /* \"#utility.yul\":2274:2277   */\n          dup5\n            /* \"#utility.yul\":2270:2281   */\n          add\n            /* \"#utility.yul\":2263:2302   */\n          mstore\n            /* \"#utility.yul\":2235:2237   */\n          0x20\n            /* \"#utility.yul\":2232:2233   */\n          dup2\n            /* \"#utility.yul\":2228:2238   */\n          add\n            /* \"#utility.yul\":2223:2238   */\n          swap1\n          pop\n            /* \"#utility.yul\":2199:2312   */\n          jump(tag_71)\n        tag_73:\n            /* \"#utility.yul\":2330:2336   */\n          dup4\n            /* \"#utility.yul\":2327:2328   */\n          dup2\n            /* \"#utility.yul\":2324:2337   */\n          gt\n            /* \"#utility.yul\":2321:2422   */\n          iszero\n          tag_74\n          jumpi\n            /* \"#utility.yul\":2410:2411   */\n          0x00\n            /* \"#utility.yul\":2401:2407   */\n          dup5\n            /* \"#utility.yul\":2396:2399   */\n          dup5\n            /* \"#utility.yul\":2392:2408   */\n          add\n            /* \"#utility.yul\":2385:2412   */\n          mstore\n            /* \"#utility.yul\":2321:2422   */\n        tag_74:\n            /* \"#utility.yul\":2170:2428   */\n          pop\n            /* \"#utility.yul\":2121:2428   */\n          pop\n          pop\n          pop\n          jump\t// out\n            /* \"#utility.yul\":2434:2855   */\n        tag_40:\n            /* \"#utility.yul\":2523:2528   */\n          0x00\n            /* \"#utility.yul\":2548:2614   */\n          tag_76\n            /* \"#utility.yul\":2564:2613   */\n          tag_77\n            /* \"#utility.yul\":2606:2612   */\n          dup5\n            /* \"#utility.yul\":2564:2613   */\n          tag_38\n          jump\t// in\n        tag_77:\n            /* \"#utility.yul\":2548:2614   */\n          tag_37\n          jump\t// in\n        tag_76:\n            /* \"#utility.yul\":2539:2614   */\n          swap1\n          pop\n            /* \"#utility.yul\":2637:2643   */\n          dup3\n            /* \"#utility.yul\":2630:2635   */\n          dup2\n            /* \"#utility.yul\":2623:2644   */\n          mstore\n            /* \"#utility.yul\":2675:2679   */\n          0x20\n            /* \"#utility.yul\":2668:2673   */\n          dup2\n            /* \"#utility.yul\":2664:2680   */\n          add\n            /* \"#utility.yul\":2713:2716   */\n          dup5\n            /* \"#utility.yul\":2704:2710   */\n          dup5\n            /* \"#utility.yul\":2699:2702   */\n          dup5\n            /* \"#utility.yul\":2695:2711   */\n          add\n            /* \"#utility.yul\":2692:2717   */\n          gt\n            /* \"#utility.yul\":2689:2801   */\n          iszero\n          tag_78\n          jumpi\n            /* \"#utility.yul\":2720:2799   */\n          tag_79\n          tag_33\n          jump\t// in\n        tag_79:\n            /* \"#utility.yul\":2689:2801   */\n        tag_78:\n            /* \"#utility.yul\":2810:2849   */\n          tag_80\n            /* \"#utility.yul\":2842:2848   */\n          dup5\n            /* \"#utility.yul\":2837:2840   */\n          dup3\n            /* \"#utility.yul\":2832:2835   */\n          dup6\n            /* \"#utility.yul\":2810:2849   */\n          tag_39\n          jump\t// in\n        tag_80:\n            /* \"#utility.yul\":2529:2855   */\n          pop\n            /* \"#utility.yul\":2434:2855   */\n          swap4\n          swap3\n          pop\n          pop\n          pop\n          jump\t// out\n            /* \"#utility.yul\":2875:3230   */\n        tag_41:\n            /* \"#utility.yul\":2942:2947   */\n          0x00\n            /* \"#utility.yul\":2991:2994   */\n          dup3\n            /* \"#utility.yul\":2984:2988   */\n          0x1f\n            /* \"#utility.yul\":2976:2982   */\n          dup4\n            /* \"#utility.yul\":2972:2989   */\n          add\n            /* \"#utility.yul\":2968:2995   */\n          slt\n            /* \"#utility.yul\":2958:3080   */\n          tag_82\n          jumpi\n            /* \"#utility.yul\":2999:3078   */\n          tag_83\n          tag_32\n          jump\t// in\n        tag_83:\n            /* \"#utility.yul\":2958:3080   */\n        tag_82:\n            /* \"#utility.yul\":3109:3115   */\n          dup2\n            /* \"#utility.yul\":3103:3116   */\n          mload\n            /* \"#utility.yul\":3134:3224   */\n          tag_84\n            /* \"#utility.yul\":3220:3223   */\n          dup5\n            /* \"#utility.yul\":3212:3218   */\n          dup3\n            /* \"#utility.yul\":3205:3209   */\n          0x20\n            /* \"#utility.yul\":3197:3203   */\n          dup7\n            /* \"#utility.yul\":3193:3210   */\n          add\n            /* \"#utility.yul\":3134:3224   */\n          tag_40\n          jump\t// in\n        tag_84:\n            /* \"#utility.yul\":3125:3224   */\n          swap2\n          pop\n            /* \"#utility.yul\":2948:3230   */\n          pop\n            /* \"#utility.yul\":2875:3230   */\n          swap3\n          swap2\n          pop\n          pop\n          jump\t// out\n            /* \"#utility.yul\":3236:4716   */\n        tag_3:\n            /* \"#utility.yul\":3371:3377   */\n          0x00\n            /* \"#utility.yul\":3379:3385   */\n          dup1\n            /* \"#utility.yul\":3387:3393   */\n          0x00\n            /* \"#utility.yul\":3395:3401   */\n          dup1\n            /* \"#utility.yul\":3403:3409   */\n          0x00\n            /* \"#utility.yul\":3411:3417   */\n          dup1\n            /* \"#utility.yul\":3460:3463   */\n          0xc0\n            /* \"#utility.yul\":3448:3457   */\n          dup8\n            /* \"#utility.yul\":3439:3446   */\n          dup10\n            /* \"#utility.yul\":3435:3458   */\n          sub\n            /* \"#utility.yul\":3431:3464   */\n          slt\n            /* \"#utility.yul\":3428:3548   */\n          iszero\n          tag_86\n          jumpi\n            /* \"#utility.yul\":3467:3546   */\n          tag_87\n          tag_26\n          jump\t// in\n        tag_87:\n            /* \"#utility.yul\":3428:3548   */\n        tag_86:\n            /* \"#utility.yul\":3587:3588   */\n          0x00\n            /* \"#utility.yul\":3612:3676   */\n          tag_88\n            /* \"#utility.yul\":3668:3675   */\n          dup10\n            /* \"#utility.yul\":3659:3665   */\n          dup3\n            /* \"#utility.yul\":3648:3657   */\n          dup11\n            /* \"#utility.yul\":3644:3666   */\n          add\n            /* \"#utility.yul\":3612:3676   */\n          tag_31\n          jump\t// in\n        tag_88:\n            /* \"#utility.yul\":3602:3676   */\n          swap7\n          pop\n            /* \"#utility.yul\":3558:3686   */\n          pop\n            /* \"#utility.yul\":3725:3727   */\n          0x20\n            /* \"#utility.yul\":3751:3815   */\n          tag_89\n            /* \"#utility.yul\":3807:3814   */\n          dup10\n            /* \"#utility.yul\":3798:3804   */\n          dup3\n            /* \"#utility.yul\":3787:3796   */\n          dup11\n            /* \"#utility.yul\":3783:3805   */\n          add\n            /* \"#utility.yul\":3751:3815   */\n          tag_31\n          jump\t// in\n        tag_89:\n            /* \"#utility.yul\":3741:3815   */\n          swap6\n          pop\n            /* \"#utility.yul\":3696:3825   */\n          pop\n            /* \"#utility.yul\":3885:3887   */\n          0x40\n            /* \"#utility.yul\":3874:3883   */\n          dup8\n            /* \"#utility.yul\":3870:3888   */\n          add\n            /* \"#utility.yul\":3864:3889   */\n          mload\n            /* \"#utility.yul\":3916:3934   */\n          0xffffffffffffffff\n            /* \"#utility.yul\":3908:3914   */\n          dup2\n            /* \"#utility.yul\":3905:3935   */\n          gt\n            /* \"#utility.yul\":3902:4019   */\n          iszero\n          tag_90\n          jumpi\n            /* \"#utility.yul\":3938:4017   */\n          tag_91\n          tag_27\n          jump\t// in\n        tag_91:\n            /* \"#utility.yul\":3902:4019   */\n        tag_90:\n            /* \"#utility.yul\":4043:4117   */\n          tag_92\n            /* \"#utility.yul\":4109:4116   */\n          dup10\n            /* \"#utility.yul\":4100:4106   */\n          dup3\n            /* \"#utility.yul\":4089:4098   */\n          dup11\n            /* \"#utility.yul\":4085:4107   */\n          add\n            /* \"#utility.yul\":4043:4117   */\n          tag_41\n          jump\t// in\n        tag_92:\n            /* \"#utility.yul\":4033:4117   */\n          swap5\n          pop\n            /* \"#utility.yul\":3835:4127   */\n          pop\n            /* \"#utility.yul\":4187:4189   */\n          0x60\n            /* \"#utility.yul\":4176:4185   */\n          dup8\n            /* \"#utility.yul\":4172:4190   */\n          add\n            /* \"#utility.yul\":4166:4191   */\n          mload\n            /* \"#utility.yul\":4218:4236   */\n          0xffffffffffffffff\n            /* \"#utility.yul\":4210:4216   */\n          dup2\n            /* \"#utility.yul\":4207:4237   */\n          gt\n            /* \"#utility.yul\":4204:4321   */\n          iszero\n          tag_93\n          jumpi\n            /* \"#utility.yul\":4240:4319   */\n          tag_94\n          tag_27\n          jump\t// in\n        tag_94:\n            /* \"#utility.yul\":4204:4321   */\n        tag_93:\n            /* \"#utility.yul\":4345:4419   */\n          tag_95\n            /* \"#utility.yul\":4411:4418   */\n          dup10\n            /* \"#utility.yul\":4402:4408   */\n          dup3\n            /* \"#utility.yul\":4391:4400   */\n          dup11\n            /* \"#utility.yul\":4387:4409   */\n          add\n            /* \"#utility.yul\":4345:4419   */\n          tag_41\n          jump\t// in\n        tag_95:\n            /* \"#utility.yul\":4335:4419   */\n          swap4\n          pop\n            /* \"#utility.yul\":4137:4429   */\n          pop\n            /* \"#utility.yul\":4468:4471   */\n          0x80\n            /* \"#utility.yul\":4495:4559   */\n          tag_96\n            /* \"#utility.yul\":4551:4558   */\n          dup10\n            /* \"#utility.yul\":4542:4548   */\n          dup3\n            /* \"#utility.yul\":4531:4540   */\n          dup11\n            /* \"#utility.yul\":4527:4549   */\n          add\n            /* \"#utility.yul\":4495:4559   */\n          tag_31\n          jump\t// in\n        tag_96:\n            /* \"#utility.yul\":4485:4559   */\n          swap3\n          pop\n            /* \"#utility.yul\":4439:4569   */\n          pop\n            /* \"#utility.yul\":4608:4611   */\n          0xa0\n            /* \"#utility.yul\":4635:4699   */\n          tag_97\n            /* \"#utility.yul\":4691:4698   */\n          dup10\n            /* \"#utility.yul\":4682:4688   */\n          dup3\n            /* \"#utility.yul\":4671:4680   */\n          dup11\n            /* \"#utility.yul\":4667:4689   */\n          add\n            /* \"#utility.yul\":4635:4699   */\n          tag_31\n          jump\t// in\n        tag_97:\n            /* \"#utility.yul\":4625:4699   */\n          swap2\n          pop\n            /* \"#utility.yul\":4579:4709   */\n          pop\n            /* \"#utility.yul\":3236:4716   */\n          swap3\n          swap6\n          pop\n          swap3\n          swap6\n          pop\n          swap3\n          swap6\n          jump\t// out\n            /* \"#utility.yul\":4722:4902   */\n        tag_42:\n            /* \"#utility.yul\":4770:4847   */\n          0x4e487b7100000000000000000000000000000000000000000000000000000000\n            /* \"#utility.yul\":4767:4768   */\n          0x00\n            /* \"#utility.yul\":4760:4848   */\n          mstore\n            /* \"#utility.yul\":4867:4871   */\n          0x22\n            /* \"#utility.yul\":4864:4865   */\n          0x04\n            /* \"#utility.yul\":4857:4872   */\n          mstore\n            /* \"#utility.yul\":4891:4895   */\n          0x24\n            /* \"#utility.yul\":4888:4889   */\n          0x00\n            /* \"#utility.yul\":4881:4896   */\n          revert\n            /* \"#utility.yul\":4908:5228   */\n        tag_15:\n            /* \"#utility.yul\":4952:4958   */\n          0x00\n            /* \"#utility.yul\":4989:4990   */\n          0x02\n            /* \"#utility.yul\":4983:4987   */\n          dup3\n            /* \"#utility.yul\":4979:4991   */\n          div\n            /* \"#utility.yul\":4969:4991   */\n          swap1\n          pop\n            /* \"#utility.yul\":5036:5037   */\n          0x01\n            /* \"#utility.yul\":5030:5034   */\n          dup3\n            /* \"#utility.yul\":5026:5038   */\n          and\n            /* \"#utility.yul\":5057:5075   */\n          dup1\n            /* \"#utility.yul\":5047:5128   */\n          tag_100\n          jumpi\n            /* \"#utility.yul\":5113:5117   */\n          0x7f\n            /* \"#utility.yul\":5105:5111   */\n          dup3\n            /* \"#utility.yul\":5101:5118   */\n          and\n            /* \"#utility.yul\":5091:5118   */\n          swap2\n          pop\n            /* \"#utility.yul\":5047:5128   */\n        tag_100:\n            /* \"#utility.yul\":5175:5177   */\n          0x20\n            /* \"#utility.yul\":5167:5173   */\n          dup3\n            /* \"#utility.yul\":5164:5178   */\n          lt\n            /* \"#utility.yul\":5144:5162   */\n          dup2\n            /* \"#utility.yul\":5141:5179   */\n          eq\n            /* \"#utility.yul\":5138:5222   */\n          iszero\n          tag_101\n          jumpi\n            /* \"#utility.yul\":5194:5212   */\n          tag_102\n          tag_42\n          jump\t// in\n        tag_102:\n            /* \"#utility.yul\":5138:5222   */\n        tag_101:\n            /* \"#utility.yul\":4959:5228   */\n          pop\n            /* \"#utility.yul\":4908:5228   */\n          swap2\n          swap1\n          pop\n          jump\t// out\n            /* \"Story.sol\":7328:9303  contract Chapter {... */\n        tag_13:\n          dataSize(sub_0)\n          dup1\n          dataOffset(sub_0)\n          0x00\n          codecopy\n          0x00\n          return\n        stop\n\n        sub_0: assembly {\n                /* \"Story.sol\":7328:9303  contract Chapter {... */\n              mstore(0x40, 0x80)\n              callvalue\n              dup1\n              iszero\n              tag_1\n              jumpi\n              0x00\n              dup1\n              revert\n            tag_1:\n              pop\n              jumpi(tag_2, lt(calldatasize, 0x04))\n              shr(0xe0, calldataload(0x00))\n              dup1\n              0xa523b88a\n              gt\n              tag_14\n              jumpi\n              dup1\n              0xa523b88a\n              eq\n              tag_8\n              jumpi\n              dup1\n              0xa6c3e6b9\n              eq\n              tag_9\n              jumpi\n              dup1\n              0xc5fe6ffc\n              eq\n              tag_10\n              jumpi\n              dup1\n              0xc623674f\n              eq\n              tag_11\n              jumpi\n              dup1\n              0xe5a0af3d\n              eq\n              tag_12\n              jumpi\n              dup1\n              0xed777791\n              eq\n              tag_13\n              jumpi\n              jump(tag_2)\n            tag_14:\n              dup1\n              0x4051ddac\n              eq\n              tag_3\n              jumpi\n              dup1\n              0x46c922d1\n              eq\n              tag_4\n              jumpi\n              dup1\n              0x4a79d50c\n              eq\n              tag_5\n              jumpi\n              dup1\n              0x8758ce83\n              eq\n              tag_6\n              jumpi\n              dup1\n              0x988e46c8\n              eq\n              tag_7\n              jumpi\n            tag_2:\n              0x00\n              dup1\n              revert\n                /* \"Story.sol\":8895:9296  function getSummary() public view returns (... */\n            tag_3:\n              tag_15\n              tag_16\n              jump\t// in\n            tag_15:\n              mload(0x40)\n              tag_17\n              swap8\n              swap7\n              swap6\n              swap5\n              swap4\n              swap3\n              swap2\n              swap1\n              tag_18\n              jump\t// in\n            tag_17:\n              mload(0x40)\n              dup1\n              swap2\n              sub\n              swap1\n              return\n                /* \"Story.sol\":7358:7378  address public story */\n            tag_4:\n              tag_19\n              tag_20\n              jump\t// in\n            tag_19:\n              mload(0x40)\n              tag_21\n              swap2\n              swap1\n              tag_22\n              jump\t// in\n            tag_21:\n              mload(0x40)\n              dup1\n              swap2\n              sub\n              swap1\n              return\n                /* \"Story.sol\":7421:7440  string public title */\n            tag_5:\n              tag_23\n              tag_24\n              jump\t// in\n            tag_23:\n              mload(0x40)\n              tag_25\n              swap2\n              swap1\n              tag_26\n              jump\t// in\n            tag_25:\n              mload(0x40)\n              dup1\n              swap2\n              sub\n              swap1\n              return\n                /* \"Story.sol\":8444:8696  function linkParentChapter(address parentChapter) public {... */\n            tag_6:\n              tag_27\n              0x04\n              dup1\n              calldatasize\n              sub\n              dup2\n              add\n              swap1\n              tag_28\n              swap2\n              swap1\n              tag_29\n              jump\t// in\n            tag_28:\n              tag_30\n              jump\t// in\n            tag_27:\n              stop\n                /* \"Story.sol\":8184:8432  function linkChildChapter(address childChapter) public {... */\n            tag_7:\n              tag_31\n              0x04\n              dup1\n              calldatasize\n              sub\n              dup2\n              add\n              swap1\n              tag_32\n              swap2\n              swap1\n              tag_29\n              jump\t// in\n            tag_32:\n              tag_33\n              jump\t// in\n            tag_31:\n              stop\n                /* \"Story.sol\":8708:8883  function like() public {... */\n            tag_8:\n              tag_34\n              tag_35\n              jump\t// in\n            tag_34:\n              stop\n                /* \"Story.sol\":7389:7410  address public author */\n            tag_9:\n              tag_36\n              tag_37\n              jump\t// in\n            tag_36:\n              mload(0x40)\n              tag_38\n              swap2\n              swap1\n              tag_22\n              jump\t// in\n            tag_38:\n              mload(0x40)\n              dup1\n              swap2\n              sub\n              swap1\n              return\n                /* \"Story.sol\":7532:7568  address[] public linkedChildChapters */\n            tag_10:\n              tag_39\n              0x04\n              dup1\n              calldatasize\n              sub\n              dup2\n              add\n              swap1\n              tag_40\n              swap2\n              swap1\n              tag_41\n              jump\t// in\n            tag_40:\n              tag_42\n              jump\t// in\n            tag_39:\n              mload(0x40)\n              tag_43\n              swap2\n              swap1\n              tag_22\n              jump\t// in\n            tag_43:\n              mload(0x40)\n              dup1\n              swap2\n              sub\n              swap1\n              return\n                /* \"Story.sol\":7451:7473  string public ipfsHash */\n            tag_11:\n              tag_44\n              tag_45\n              jump\t// in\n            tag_44:\n              mload(0x40)\n              tag_46\n              swap2\n              swap1\n              tag_26\n              jump\t// in\n            tag_46:\n              mload(0x40)\n              dup1\n              swap2\n              sub\n              swap1\n              return\n                /* \"Story.sol\":7621:7645  uint256 public likeCount */\n            tag_12:\n              tag_47\n              tag_48\n              jump\t// in\n            tag_47:\n              mload(0x40)\n              tag_49\n              swap2\n              swap1\n              tag_50\n              jump\t// in\n            tag_49:\n              mload(0x40)\n              dup1\n              swap2\n              sub\n              swap1\n              return\n                /* \"Story.sol\":7484:7521  address[] public linkedParentChapters */\n            tag_13:\n              tag_51\n              0x04\n              dup1\n              calldatasize\n              sub\n              dup2\n              add\n              swap1\n              tag_52\n              swap2\n              swap1\n              tag_41\n              jump\t// in\n            tag_52:\n              tag_53\n              jump\t// in\n            tag_51:\n              mload(0x40)\n              tag_54\n              swap2\n              swap1\n              tag_22\n              jump\t// in\n            tag_54:\n              mload(0x40)\n              dup1\n              swap2\n              sub\n              swap1\n              return\n                /* \"Story.sol\":8895:9296  function getSummary() public view returns (... */\n            tag_16:\n                /* \"Story.sol\":8952:8959  address */\n              0x00\n                /* \"Story.sol\":8961:8968  address */\n              dup1\n                /* \"Story.sol\":8970:8983  string memory */\n              0x60\n                /* \"Story.sol\":8985:8998  string memory */\n              dup1\n                /* \"Story.sol\":9000:9016  address[] memory */\n              0x60\n                /* \"Story.sol\":9018:9034  address[] memory */\n              dup1\n                /* \"Story.sol\":9036:9040  uint */\n              0x00\n                /* \"Story.sol\":9083:9088  story */\n              dup1\n              0x00\n              swap1\n              sload\n              swap1\n              0x0100\n              exp\n              swap1\n              div\n              0xffffffffffffffffffffffffffffffffffffffff\n              and\n                /* \"Story.sol\":9107:9113  author */\n              0x01\n              0x00\n              swap1\n              sload\n              swap1\n              0x0100\n              exp\n              swap1\n              div\n              0xffffffffffffffffffffffffffffffffffffffff\n              and\n                /* \"Story.sol\":9132:9137  title */\n              0x02\n                /* \"Story.sol\":9156:9164  ipfsHash */\n              0x03\n                /* \"Story.sol\":9183:9203  linkedParentChapters */\n              0x04\n                /* \"Story.sol\":9222:9241  linkedChildChapters */\n              0x05\n                /* \"Story.sol\":9260:9269  likeCount */\n              sload(0x07)\n                /* \"Story.sol\":9057:9284  return (... */\n              dup5\n              dup1\n              sload\n              tag_56\n              swap1\n              tag_57\n              jump\t// in\n            tag_56:\n              dup1\n              0x1f\n              add\n              0x20\n              dup1\n              swap2\n              div\n              mul\n              0x20\n              add\n              mload(0x40)\n              swap1\n              dup2\n              add\n              0x40\n              mstore\n              dup1\n              swap3\n              swap2\n              swap1\n              dup2\n              dup2\n              mstore\n              0x20\n              add\n              dup3\n              dup1\n              sload\n              tag_58\n              swap1\n              tag_57\n              jump\t// in\n            tag_58:\n              dup1\n              iszero\n              tag_59\n              jumpi\n              dup1\n              0x1f\n              lt\n              tag_60\n              jumpi\n              0x0100\n              dup1\n              dup4\n              sload\n              div\n              mul\n              dup4\n              mstore\n              swap2\n              0x20\n              add\n              swap2\n              jump(tag_59)\n            tag_60:\n              dup3\n              add\n              swap2\n              swap1\n              0x00\n              mstore\n              keccak256(0x00, 0x20)\n              swap1\n            tag_61:\n              dup2\n              sload\n              dup2\n              mstore\n              swap1\n              0x01\n              add\n              swap1\n              0x20\n              add\n              dup1\n              dup4\n              gt\n              tag_61\n              jumpi\n              dup3\n              swap1\n              sub\n              0x1f\n              and\n              dup3\n              add\n              swap2\n            tag_59:\n              pop\n              pop\n              pop\n              pop\n              pop\n              swap5\n              pop\n              dup4\n              dup1\n              sload\n              tag_62\n              swap1\n              tag_57\n              jump\t// in\n            tag_62:\n              dup1\n              0x1f\n              add\n              0x20\n              dup1\n              swap2\n              div\n              mul\n              0x20\n              add\n              mload(0x40)\n              swap1\n              dup2\n              add\n              0x40\n              mstore\n              dup1\n              swap3\n              swap2\n              swap1\n              dup2\n              dup2\n              mstore\n              0x20\n              add\n              dup3\n              dup1\n              sload\n              tag_63\n              swap1\n              tag_57\n              jump\t// in\n            tag_63:\n              dup1\n              iszero\n              tag_64\n              jumpi\n              dup1\n              0x1f\n              lt\n              tag_65\n              jumpi\n              0x0100\n              dup1\n              dup4\n              sload\n              div\n              mul\n              dup4\n              mstore\n              swap2\n              0x20\n              add\n              swap2\n              jump(tag_64)\n            tag_65:\n              dup3\n              add\n              swap2\n              swap1\n              0x00\n              mstore\n              keccak256(0x00, 0x20)\n              swap1\n            tag_66:\n              dup2\n              sload\n              dup2\n              mstore\n              swap1\n              0x01\n              add\n              swap1\n              0x20\n              add\n              dup1\n              dup4\n              gt\n              tag_66\n              jumpi\n              dup3\n              swap1\n              sub\n              0x1f\n              and\n              dup3\n              add\n              swap2\n            tag_64:\n              pop\n              pop\n              pop\n              pop\n              pop\n              swap4\n              pop\n              dup3\n              dup1\n              sload\n              dup1\n              0x20\n              mul\n              0x20\n              add\n              mload(0x40)\n              swap1\n              dup2\n              add\n              0x40\n              mstore\n              dup1\n              swap3\n              swap2\n              swap1\n              dup2\n              dup2\n              mstore\n              0x20\n              add\n              dup3\n              dup1\n              sload\n              dup1\n              iszero\n              tag_67\n              jumpi\n              0x20\n              mul\n              dup3\n              add\n              swap2\n              swap1\n              0x00\n              mstore\n              keccak256(0x00, 0x20)\n              swap1\n            tag_68:\n              dup2\n              0x00\n              swap1\n              sload\n              swap1\n              0x0100\n              exp\n              swap1\n              div\n              0xffffffffffffffffffffffffffffffffffffffff\n              and\n              0xffffffffffffffffffffffffffffffffffffffff\n              and\n              dup2\n              mstore\n              0x20\n              add\n              swap1\n              0x01\n              add\n              swap1\n              dup1\n              dup4\n              gt\n              tag_68\n              jumpi\n            tag_67:\n              pop\n              pop\n              pop\n              pop\n              pop\n              swap3\n              pop\n              dup2\n              dup1\n              sload\n              dup1\n              0x20\n              mul\n              0x20\n              add\n              mload(0x40)\n              swap1\n              dup2\n              add\n              0x40\n              mstore\n              dup1\n              swap3\n              swap2\n              swap1\n              dup2\n              dup2\n              mstore\n              0x20\n              add\n              dup3\n              dup1\n              sload\n              dup1\n              iszero\n              tag_69\n              jumpi\n              0x20\n              mul\n              dup3\n              add\n              swap2\n              swap1\n              0x00\n              mstore\n              keccak256(0x00, 0x20)\n              swap1\n            tag_70:\n              dup2\n              0x00\n              swap1\n              sload\n              swap1\n              0x0100\n              exp\n              swap1\n              div\n              0xffffffffffffffffffffffffffffffffffffffff\n              and\n              0xffffffffffffffffffffffffffffffffffffffff\n              and\n              dup2\n              mstore\n              0x20\n              add\n              swap1\n              0x01\n              add\n              swap1\n              dup1\n              dup4\n              gt\n              tag_70\n              jumpi\n            tag_69:\n              pop\n              pop\n              pop\n              pop\n              pop\n              swap2\n              pop\n              swap7\n              pop\n              swap7\n              pop\n              swap7\n              pop\n              swap7\n              pop\n              swap7\n              pop\n              swap7\n              pop\n              swap7\n              pop\n                /* \"Story.sol\":8895:9296  function getSummary() public view returns (... */\n              swap1\n              swap2\n              swap3\n              swap4\n              swap5\n              swap6\n              swap7\n              jump\t// out\n                /* \"Story.sol\":7358:7378  address public story */\n            tag_20:\n              0x00\n              dup1\n              sload\n              swap1\n              0x0100\n              exp\n              swap1\n              div\n              0xffffffffffffffffffffffffffffffffffffffff\n              and\n              dup2\n              jump\t// out\n                /* \"Story.sol\":7421:7440  string public title */\n            tag_24:\n              0x02\n              dup1\n              sload\n              tag_71\n              swap1\n              tag_57\n              jump\t// in\n            tag_71:\n              dup1\n              0x1f\n              add\n              0x20\n              dup1\n              swap2\n              div\n              mul\n              0x20\n              add\n              mload(0x40)\n              swap1\n              dup2\n              add\n              0x40\n              mstore\n              dup1\n              swap3\n              swap2\n              swap1\n              dup2\n              dup2\n              mstore\n              0x20\n              add\n              dup3\n              dup1\n              sload\n              tag_72\n              swap1\n              tag_57\n              jump\t// in\n            tag_72:\n              dup1\n              iszero\n              tag_73\n              jumpi\n              dup1\n              0x1f\n              lt\n              tag_74\n              jumpi\n              0x0100\n              dup1\n              dup4\n              sload\n              div\n              mul\n              dup4\n              mstore\n              swap2\n              0x20\n              add\n              swap2\n              jump(tag_73)\n            tag_74:\n              dup3\n              add\n              swap2\n              swap1\n              0x00\n              mstore\n              keccak256(0x00, 0x20)\n              swap1\n            tag_75:\n              dup2\n              sload\n              dup2\n              mstore\n              swap1\n              0x01\n              add\n              swap1\n              0x20\n              add\n              dup1\n              dup4\n              gt\n              tag_75\n              jumpi\n              dup3\n              swap1\n              sub\n              0x1f\n              and\n              dup3\n              add\n              swap2\n            tag_73:\n              pop\n              pop\n              pop\n              pop\n              pop\n              dup2\n              jump\t// out\n                /* \"Story.sol\":8444:8696  function linkParentChapter(address parentChapter) public {... */\n            tag_30:\n                /* \"Story.sol\":8538:8543  story */\n              0x00\n              dup1\n              sload\n              swap1\n              0x0100\n              exp\n              swap1\n              div\n              0xffffffffffffffffffffffffffffffffffffffff\n              and\n                /* \"Story.sol\":8524:8543  msg.sender == story */\n              0xffffffffffffffffffffffffffffffffffffffff\n              and\n                /* \"Story.sol\":8524:8534  msg.sender */\n              caller\n                /* \"Story.sol\":8524:8543  msg.sender == story */\n              0xffffffffffffffffffffffffffffffffffffffff\n              and\n              eq\n                /* \"Story.sol\":8516:8629  require(msg.sender == story, \"This function has to be called from the story contract by an accepted author only\") */\n              tag_77\n              jumpi\n              mload(0x40)\n              0x08c379a000000000000000000000000000000000000000000000000000000000\n              dup2\n              mstore\n              0x04\n              add\n              tag_78\n              swap1\n              tag_79\n              jump\t// in\n            tag_78:\n              mload(0x40)\n              dup1\n              swap2\n              sub\n              swap1\n              revert\n            tag_77:\n                /* \"Story.sol\":8644:8664  linkedParentChapters */\n              0x04\n                /* \"Story.sol\":8670:8683  parentChapter */\n              dup2\n                /* \"Story.sol\":8644:8684  linkedParentChapters.push(parentChapter) */\n              swap1\n              dup1\n              0x01\n              dup2\n              sload\n              add\n              dup1\n              dup3\n              sstore\n              dup1\n              swap2\n              pop\n              pop\n              0x01\n              swap1\n              sub\n              swap1\n              0x00\n              mstore\n              keccak256(0x00, 0x20)\n              add\n              0x00\n              swap1\n              swap2\n              swap1\n              swap2\n              swap1\n              swap2\n              0x0100\n              exp\n              dup2\n              sload\n              dup2\n              0xffffffffffffffffffffffffffffffffffffffff\n              mul\n              not\n              and\n              swap1\n              dup4\n              0xffffffffffffffffffffffffffffffffffffffff\n              and\n              mul\n              or\n              swap1\n              sstore\n              pop\n                /* \"Story.sol\":8444:8696  function linkParentChapter(address parentChapter) public {... */\n              pop\n              jump\t// out\n                /* \"Story.sol\":8184:8432  function linkChildChapter(address childChapter) public {... */\n            tag_33:\n                /* \"Story.sol\":8276:8281  story */\n              0x00\n              dup1\n              sload\n              swap1\n              0x0100\n              exp\n              swap1\n              div\n              0xffffffffffffffffffffffffffffffffffffffff\n              and\n                /* \"Story.sol\":8262:8281  msg.sender == story */\n              0xffffffffffffffffffffffffffffffffffffffff\n              and\n                /* \"Story.sol\":8262:8272  msg.sender */\n              caller\n                /* \"Story.sol\":8262:8281  msg.sender == story */\n              0xffffffffffffffffffffffffffffffffffffffff\n              and\n              eq\n                /* \"Story.sol\":8254:8367  require(msg.sender == story, \"This function has to be called from the story contract by an accepted author only\") */\n              tag_82\n              jumpi\n              mload(0x40)\n              0x08c379a000000000000000000000000000000000000000000000000000000000\n              dup2\n              mstore\n              0x04\n              add\n              tag_83\n              swap1\n              tag_79\n              jump\t// in\n            tag_83:\n              mload(0x40)\n              dup1\n              swap2\n              sub\n              swap1\n              revert\n            tag_82:\n                /* \"Story.sol\":8382:8401  linkedChildChapters */\n              0x05\n                /* \"Story.sol\":8407:8419  childChapter */\n              dup2\n                /* \"Story.sol\":8382:8420  linkedChildChapters.push(childChapter) */\n              swap1\n              dup1\n              0x01\n              dup2\n              sload\n              add\n              dup1\n              dup3\n              sstore\n              dup1\n              swap2\n              pop\n              pop\n              0x01\n              swap1\n              sub\n              swap1\n              0x00\n              mstore\n              keccak256(0x00, 0x20)\n              add\n              0x00\n              swap1\n              swap2\n              swap1\n              swap2\n              swap1\n              swap2\n              0x0100\n              exp\n              dup2\n              sload\n              dup2\n              0xffffffffffffffffffffffffffffffffffffffff\n              mul\n              not\n              and\n              swap1\n              dup4\n              0xffffffffffffffffffffffffffffffffffffffff\n              and\n              mul\n              or\n              swap1\n              sstore\n              pop\n                /* \"Story.sol\":8184:8432  function linkChildChapter(address childChapter) public {... */\n              pop\n              jump\t// out\n                /* \"Story.sol\":8708:8883  function like() public {... */\n            tag_35:\n                /* \"Story.sol\":8755:8761  likers */\n              0x06\n                /* \"Story.sol\":8755:8773  likers[msg.sender] */\n              0x00\n                /* \"Story.sol\":8762:8772  msg.sender */\n              caller\n                /* \"Story.sol\":8755:8773  likers[msg.sender] */\n              0xffffffffffffffffffffffffffffffffffffffff\n              and\n              0xffffffffffffffffffffffffffffffffffffffff\n              and\n              dup2\n              mstore\n              0x20\n              add\n              swap1\n              dup2\n              mstore\n              0x20\n              add\n              0x00\n              keccak256\n              0x00\n              swap1\n              sload\n              swap1\n              0x0100\n              exp\n              swap1\n              div\n              0xff\n              and\n                /* \"Story.sol\":8754:8773  !likers[msg.sender] */\n              iszero\n                /* \"Story.sol\":8746:8805  require(!likers[msg.sender], \"You liked this story before\") */\n              tag_86\n              jumpi\n              mload(0x40)\n              0x08c379a000000000000000000000000000000000000000000000000000000000\n              dup2\n              mstore\n              0x04\n              add\n              tag_87\n              swap1\n              tag_88\n              jump\t// in\n            tag_87:\n              mload(0x40)\n              dup1\n              swap2\n              sub\n              swap1\n              revert\n            tag_86:\n                /* \"Story.sol\":8841:8845  true */\n              0x01\n                /* \"Story.sol\":8820:8826  likers */\n              0x06\n                /* \"Story.sol\":8820:8838  likers[msg.sender] */\n              0x00\n                /* \"Story.sol\":8827:8837  msg.sender */\n              caller\n                /* \"Story.sol\":8820:8838  likers[msg.sender] */\n              0xffffffffffffffffffffffffffffffffffffffff\n              and\n              0xffffffffffffffffffffffffffffffffffffffff\n              and\n              dup2\n              mstore\n              0x20\n              add\n              swap1\n              dup2\n              mstore\n              0x20\n              add\n              0x00\n              keccak256\n              0x00\n                /* \"Story.sol\":8820:8845  likers[msg.sender] = true */\n              0x0100\n              exp\n              dup2\n              sload\n              dup2\n              0xff\n              mul\n              not\n              and\n              swap1\n              dup4\n              iszero\n              iszero\n              mul\n              or\n              swap1\n              sstore\n              pop\n                /* \"Story.sol\":8860:8869  likeCount */\n              0x07\n              0x00\n                /* \"Story.sol\":8860:8871  likeCount++ */\n              dup2\n              sload\n              dup1\n              swap3\n              swap2\n              swap1\n              tag_89\n              swap1\n              tag_90\n              jump\t// in\n            tag_89:\n              swap2\n              swap1\n              pop\n              sstore\n              pop\n                /* \"Story.sol\":8708:8883  function like() public {... */\n              jump\t// out\n                /* \"Story.sol\":7389:7410  address public author */\n            tag_37:\n              0x01\n              0x00\n              swap1\n              sload\n              swap1\n              0x0100\n              exp\n              swap1\n              div\n              0xffffffffffffffffffffffffffffffffffffffff\n              and\n              dup2\n              jump\t// out\n                /* \"Story.sol\":7532:7568  address[] public linkedChildChapters */\n            tag_42:\n              0x05\n              dup2\n              dup2\n              sload\n              dup2\n              lt\n              tag_91\n              jumpi\n              0x00\n              dup1\n              revert\n            tag_91:\n              swap1\n              0x00\n              mstore\n              keccak256(0x00, 0x20)\n              add\n              0x00\n              swap2\n              pop\n              sload\n              swap1\n              0x0100\n              exp\n              swap1\n              div\n              0xffffffffffffffffffffffffffffffffffffffff\n              and\n              dup2\n              jump\t// out\n                /* \"Story.sol\":7451:7473  string public ipfsHash */\n            tag_45:\n              0x03\n              dup1\n              sload\n              tag_93\n              swap1\n              tag_57\n              jump\t// in\n            tag_93:\n              dup1\n              0x1f\n              add\n              0x20\n              dup1\n              swap2\n              div\n              mul\n              0x20\n              add\n              mload(0x40)\n              swap1\n              dup2\n              add\n              0x40\n              mstore\n              dup1\n              swap3\n              swap2\n              swap1\n              dup2\n              dup2\n              mstore\n              0x20\n              add\n              dup3\n              dup1\n              sload\n              tag_94\n              swap1\n              tag_57\n              jump\t// in\n            tag_94:\n              dup1\n              iszero\n              tag_95\n              jumpi\n              dup1\n              0x1f\n              lt\n              tag_96\n              jumpi\n              0x0100\n              dup1\n              dup4\n              sload\n              div\n              mul\n              dup4\n              mstore\n              swap2\n              0x20\n              add\n              swap2\n              jump(tag_95)\n            tag_96:\n              dup3\n              add\n              swap2\n              swap1\n              0x00\n              mstore\n              keccak256(0x00, 0x20)\n              swap1\n            tag_97:\n              dup2\n              sload\n              dup2\n              mstore\n              swap1\n              0x01\n              add\n              swap1\n              0x20\n              add\n              dup1\n              dup4\n              gt\n              tag_97\n              jumpi\n              dup3\n              swap1\n              sub\n              0x1f\n              and\n              dup3\n              add\n              swap2\n            tag_95:\n              pop\n              pop\n              pop\n              pop\n              pop\n              dup2\n              jump\t// out\n                /* \"Story.sol\":7621:7645  uint256 public likeCount */\n            tag_48:\n              sload(0x07)\n              dup2\n              jump\t// out\n                /* \"Story.sol\":7484:7521  address[] public linkedParentChapters */\n            tag_53:\n              0x04\n              dup2\n              dup2\n              sload\n              dup2\n              lt\n              tag_98\n              jumpi\n              0x00\n              dup1\n              revert\n            tag_98:\n              swap1\n              0x00\n              mstore\n              keccak256(0x00, 0x20)\n              add\n              0x00\n              swap2\n              pop\n              sload\n              swap1\n              0x0100\n              exp\n              swap1\n              div\n              0xffffffffffffffffffffffffffffffffffffffff\n              and\n              dup2\n              jump\t// out\n                /* \"#utility.yul\":7:133   */\n            tag_100:\n                /* \"#utility.yul\":44:51   */\n              0x00\n                /* \"#utility.yul\":84:126   */\n              0xffffffffffffffffffffffffffffffffffffffff\n                /* \"#utility.yul\":77:82   */\n              dup3\n                /* \"#utility.yul\":73:127   */\n              and\n                /* \"#utility.yul\":62:127   */\n              swap1\n              pop\n                /* \"#utility.yul\":7:133   */\n              swap2\n              swap1\n              pop\n              jump\t// out\n                /* \"#utility.yul\":139:235   */\n            tag_101:\n                /* \"#utility.yul\":176:183   */\n              0x00\n                /* \"#utility.yul\":205:229   */\n              tag_133\n                /* \"#utility.yul\":223:228   */\n              dup3\n                /* \"#utility.yul\":205:229   */\n              tag_100\n              jump\t// in\n            tag_133:\n                /* \"#utility.yul\":194:229   */\n              swap1\n              pop\n                /* \"#utility.yul\":139:235   */\n              swap2\n              swap1\n              pop\n              jump\t// out\n                /* \"#utility.yul\":241:359   */\n            tag_102:\n                /* \"#utility.yul\":328:352   */\n              tag_135\n                /* \"#utility.yul\":346:351   */\n              dup2\n                /* \"#utility.yul\":328:352   */\n              tag_101\n              jump\t// in\n            tag_135:\n                /* \"#utility.yul\":323:326   */\n              dup3\n                /* \"#utility.yul\":316:353   */\n              mstore\n                /* \"#utility.yul\":241:359   */\n              pop\n              pop\n              jump\t// out\n                /* \"#utility.yul\":365:464   */\n            tag_103:\n                /* \"#utility.yul\":417:423   */\n              0x00\n                /* \"#utility.yul\":451:456   */\n              dup2\n                /* \"#utility.yul\":445:457   */\n              mload\n                /* \"#utility.yul\":435:457   */\n              swap1\n              pop\n                /* \"#utility.yul\":365:464   */\n              swap2\n              swap1\n              pop\n              jump\t// out\n                /* \"#utility.yul\":470:639   */\n            tag_104:\n                /* \"#utility.yul\":554:565   */\n              0x00\n                /* \"#utility.yul\":588:594   */\n              dup3\n                /* \"#utility.yul\":583:586   */\n              dup3\n                /* \"#utility.yul\":576:595   */\n              mstore\n                /* \"#utility.yul\":628:632   */\n              0x20\n                /* \"#utility.yul\":623:626   */\n              dup3\n                /* \"#utility.yul\":619:633   */\n              add\n                /* \"#utility.yul\":604:633   */\n              swap1\n              pop\n                /* \"#utility.yul\":470:639   */\n              swap3\n              swap2\n              pop\n              pop\n              jump\t// out\n                /* \"#utility.yul\":645:952   */\n            tag_105:\n                /* \"#utility.yul\":713:714   */\n              0x00\n                /* \"#utility.yul\":723:836   */\n            tag_139:\n                /* \"#utility.yul\":737:743   */\n              dup4\n                /* \"#utility.yul\":734:735   */\n              dup2\n                /* \"#utility.yul\":731:744   */\n              lt\n                /* \"#utility.yul\":723:836   */\n              iszero\n              tag_141\n              jumpi\n                /* \"#utility.yul\":822:823   */\n              dup1\n                /* \"#utility.yul\":817:820   */\n              dup3\n                /* \"#utility.yul\":813:824   */\n              add\n                /* \"#utility.yul\":807:825   */\n              mload\n                /* \"#utility.yul\":803:804   */\n              dup2\n                /* \"#utility.yul\":798:801   */\n              dup5\n                /* \"#utility.yul\":794:805   */\n              add\n                /* \"#utility.yul\":787:826   */\n              mstore\n                /* \"#utility.yul\":759:761   */\n              0x20\n                /* \"#utility.yul\":756:757   */\n              dup2\n                /* \"#utility.yul\":752:762   */\n              add\n                /* \"#utility.yul\":747:762   */\n              swap1\n              pop\n                /* \"#utility.yul\":723:836   */\n              jump(tag_139)\n            tag_141:\n                /* \"#utility.yul\":854:860   */\n              dup4\n                /* \"#utility.yul\":851:852   */\n              dup2\n                /* \"#utility.yul\":848:861   */\n              gt\n                /* \"#utility.yul\":845:946   */\n              iszero\n              tag_142\n              jumpi\n                /* \"#utility.yul\":934:935   */\n              0x00\n                /* \"#utility.yul\":925:931   */\n              dup5\n                /* \"#utility.yul\":920:923   */\n              dup5\n                /* \"#utility.yul\":916:932   */\n              add\n                /* \"#utility.yul\":909:936   */\n              mstore\n                /* \"#utility.yul\":845:946   */\n            tag_142:\n                /* \"#utility.yul\":694:952   */\n              pop\n                /* \"#utility.yul\":645:952   */\n              pop\n              pop\n              pop\n              jump\t// out\n                /* \"#utility.yul\":958:1060   */\n            tag_106:\n                /* \"#utility.yul\":999:1005   */\n              0x00\n                /* \"#utility.yul\":1050:1052   */\n              0x1f\n                /* \"#utility.yul\":1046:1053   */\n              not\n                /* \"#utility.yul\":1041:1043   */\n              0x1f\n                /* \"#utility.yul\":1034:1039   */\n              dup4\n                /* \"#utility.yul\":1030:1044   */\n              add\n                /* \"#utility.yul\":1026:1054   */\n              and\n                /* \"#utility.yul\":1016:1054   */\n              swap1\n              pop\n                /* \"#utility.yul\":958:1060   */\n              swap2\n              swap1\n              pop\n              jump\t// out\n                /* \"#utility.yul\":1066:1430   */\n            tag_107:\n                /* \"#utility.yul\":1154:1157   */\n              0x00\n                /* \"#utility.yul\":1182:1221   */\n              tag_145\n                /* \"#utility.yul\":1215:1220   */\n              dup3\n                /* \"#utility.yul\":1182:1221   */\n              tag_103\n              jump\t// in\n            tag_145:\n                /* \"#utility.yul\":1237:1308   */\n              tag_146\n                /* \"#utility.yul\":1301:1307   */\n              dup2\n                /* \"#utility.yul\":1296:1299   */\n              dup6\n                /* \"#utility.yul\":1237:1308   */\n              tag_104\n              jump\t// in\n            tag_146:\n                /* \"#utility.yul\":1230:1308   */\n              swap4\n              pop\n                /* \"#utility.yul\":1317:1369   */\n              tag_147\n                /* \"#utility.yul\":1362:1368   */\n              dup2\n                /* \"#utility.yul\":1357:1360   */\n              dup6\n                /* \"#utility.yul\":1350:1354   */\n              0x20\n                /* \"#utility.yul\":1343:1348   */\n              dup7\n                /* \"#utility.yul\":1339:1355   */\n              add\n                /* \"#utility.yul\":1317:1369   */\n              tag_105\n              jump\t// in\n            tag_147:\n                /* \"#utility.yul\":1394:1423   */\n              tag_148\n                /* \"#utility.yul\":1416:1422   */\n              dup2\n                /* \"#utility.yul\":1394:1423   */\n              tag_106\n              jump\t// in\n            tag_148:\n                /* \"#utility.yul\":1389:1392   */\n              dup5\n                /* \"#utility.yul\":1385:1424   */\n              add\n                /* \"#utility.yul\":1378:1424   */\n              swap2\n              pop\n                /* \"#utility.yul\":1158:1430   */\n              pop\n                /* \"#utility.yul\":1066:1430   */\n              swap3\n              swap2\n              pop\n              pop\n              jump\t// out\n                /* \"#utility.yul\":1436:1550   */\n            tag_108:\n                /* \"#utility.yul\":1503:1509   */\n              0x00\n                /* \"#utility.yul\":1537:1542   */\n              dup2\n                /* \"#utility.yul\":1531:1543   */\n              mload\n                /* \"#utility.yul\":1521:1543   */\n              swap1\n              pop\n                /* \"#utility.yul\":1436:1550   */\n              swap2\n              swap1\n              pop\n              jump\t// out\n                /* \"#utility.yul\":1556:1740   */\n            tag_109:\n                /* \"#utility.yul\":1655:1666   */\n              0x00\n                /* \"#utility.yul\":1689:1695   */\n              dup3\n                /* \"#utility.yul\":1684:1687   */\n              dup3\n                /* \"#utility.yul\":1677:1696   */\n              mstore\n                /* \"#utility.yul\":1729:1733   */\n              0x20\n                /* \"#utility.yul\":1724:1727   */\n              dup3\n                /* \"#utility.yul\":1720:1734   */\n              add\n                /* \"#utility.yul\":1705:1734   */\n              swap1\n              pop\n                /* \"#utility.yul\":1556:1740   */\n              swap3\n              swap2\n              pop\n              pop\n              jump\t// out\n                /* \"#utility.yul\":1746:1878   */\n            tag_110:\n                /* \"#utility.yul\":1813:1817   */\n              0x00\n                /* \"#utility.yul\":1836:1839   */\n              dup2\n                /* \"#utility.yul\":1828:1839   */\n              swap1\n              pop\n                /* \"#utility.yul\":1866:1870   */\n              0x20\n                /* \"#utility.yul\":1861:1864   */\n              dup3\n                /* \"#utility.yul\":1857:1871   */\n              add\n                /* \"#utility.yul\":1849:1871   */\n              swap1\n              pop\n                /* \"#utility.yul\":1746:1878   */\n              swap2\n              swap1\n              pop\n              jump\t// out\n                /* \"#utility.yul\":1884:1992   */\n            tag_111:\n                /* \"#utility.yul\":1961:1985   */\n              tag_153\n                /* \"#utility.yul\":1979:1984   */\n              dup2\n                /* \"#utility.yul\":1961:1985   */\n              tag_101\n              jump\t// in\n            tag_153:\n                /* \"#utility.yul\":1956:1959   */\n              dup3\n                /* \"#utility.yul\":1949:1986   */\n              mstore\n                /* \"#utility.yul\":1884:1992   */\n              pop\n              pop\n              jump\t// out\n                /* \"#utility.yul\":1998:2177   */\n            tag_112:\n                /* \"#utility.yul\":2067:2077   */\n              0x00\n                /* \"#utility.yul\":2088:2134   */\n              tag_155\n                /* \"#utility.yul\":2130:2133   */\n              dup4\n                /* \"#utility.yul\":2122:2128   */\n              dup4\n                /* \"#utility.yul\":2088:2134   */\n              tag_111\n              jump\t// in\n            tag_155:\n                /* \"#utility.yul\":2166:2170   */\n              0x20\n                /* \"#utility.yul\":2161:2164   */\n              dup4\n                /* \"#utility.yul\":2157:2171   */\n              add\n                /* \"#utility.yul\":2143:2171   */\n              swap1\n              pop\n                /* \"#utility.yul\":1998:2177   */\n              swap3\n              swap2\n              pop\n              pop\n              jump\t// out\n                /* \"#utility.yul\":2183:2296   */\n            tag_113:\n                /* \"#utility.yul\":2253:2257   */\n              0x00\n                /* \"#utility.yul\":2285:2289   */\n              0x20\n                /* \"#utility.yul\":2280:2283   */\n              dup3\n                /* \"#utility.yul\":2276:2290   */\n              add\n                /* \"#utility.yul\":2268:2290   */\n              swap1\n              pop\n                /* \"#utility.yul\":2183:2296   */\n              swap2\n              swap1\n              pop\n              jump\t// out\n                /* \"#utility.yul\":2332:3064   */\n            tag_114:\n                /* \"#utility.yul\":2451:2454   */\n              0x00\n                /* \"#utility.yul\":2480:2534   */\n              tag_158\n                /* \"#utility.yul\":2528:2533   */\n              dup3\n                /* \"#utility.yul\":2480:2534   */\n              tag_108\n              jump\t// in\n            tag_158:\n                /* \"#utility.yul\":2550:2636   */\n              tag_159\n                /* \"#utility.yul\":2629:2635   */\n              dup2\n                /* \"#utility.yul\":2624:2627   */\n              dup6\n                /* \"#utility.yul\":2550:2636   */\n              tag_109\n              jump\t// in\n            tag_159:\n                /* \"#utility.yul\":2543:2636   */\n              swap4\n              pop\n                /* \"#utility.yul\":2660:2716   */\n              tag_160\n                /* \"#utility.yul\":2710:2715   */\n              dup4\n                /* \"#utility.yul\":2660:2716   */\n              tag_110\n              jump\t// in\n            tag_160:\n                /* \"#utility.yul\":2739:2746   */\n              dup1\n                /* \"#utility.yul\":2770:2771   */\n              0x00\n                /* \"#utility.yul\":2755:3039   */\n            tag_161:\n                /* \"#utility.yul\":2780:2786   */\n              dup4\n                /* \"#utility.yul\":2777:2778   */\n              dup2\n                /* \"#utility.yul\":2774:2787   */\n              lt\n                /* \"#utility.yul\":2755:3039   */\n              iszero\n              tag_163\n              jumpi\n                /* \"#utility.yul\":2856:2862   */\n              dup2\n                /* \"#utility.yul\":2850:2863   */\n              mload\n                /* \"#utility.yul\":2883:2946   */\n              tag_164\n                /* \"#utility.yul\":2942:2945   */\n              dup9\n                /* \"#utility.yul\":2927:2940   */\n              dup3\n                /* \"#utility.yul\":2883:2946   */\n              tag_112\n              jump\t// in\n            tag_164:\n                /* \"#utility.yul\":2876:2946   */\n              swap8\n              pop\n                /* \"#utility.yul\":2969:3029   */\n              tag_165\n                /* \"#utility.yul\":3022:3028   */\n              dup4\n                /* \"#utility.yul\":2969:3029   */\n              tag_113\n              jump\t// in\n            tag_165:\n                /* \"#utility.yul\":2959:3029   */\n              swap3\n              pop\n                /* \"#utility.yul\":2815:3039   */\n              pop\n                /* \"#utility.yul\":2802:2803   */\n              0x01\n                /* \"#utility.yul\":2799:2800   */\n              dup2\n                /* \"#utility.yul\":2795:2804   */\n              add\n                /* \"#utility.yul\":2790:2804   */\n              swap1\n              pop\n                /* \"#utility.yul\":2755:3039   */\n              jump(tag_161)\n            tag_163:\n                /* \"#utility.yul\":2759:2773   */\n              pop\n                /* \"#utility.yul\":3055:3058   */\n              dup6\n                /* \"#utility.yul\":3048:3058   */\n              swap4\n              pop\n                /* \"#utility.yul\":2456:3064   */\n              pop\n              pop\n              pop\n                /* \"#utility.yul\":2332:3064   */\n              swap3\n              swap2\n              pop\n              pop\n              jump\t// out\n                /* \"#utility.yul\":3070:3147   */\n            tag_115:\n                /* \"#utility.yul\":3107:3114   */\n              0x00\n                /* \"#utility.yul\":3136:3141   */\n              dup2\n                /* \"#utility.yul\":3125:3141   */\n              swap1\n              pop\n                /* \"#utility.yul\":3070:3147   */\n              swap2\n              swap1\n              pop\n              jump\t// out\n                /* \"#utility.yul\":3153:3271   */\n            tag_116:\n                /* \"#utility.yul\":3240:3264   */\n              tag_168\n                /* \"#utility.yul\":3258:3263   */\n              dup2\n                /* \"#utility.yul\":3240:3264   */\n              tag_115\n              jump\t// in\n            tag_168:\n                /* \"#utility.yul\":3235:3238   */\n              dup3\n                /* \"#utility.yul\":3228:3265   */\n              mstore\n                /* \"#utility.yul\":3153:3271   */\n              pop\n              pop\n              jump\t// out\n                /* \"#utility.yul\":3277:4647   */\n            tag_18:\n                /* \"#utility.yul\":3678:3682   */\n              0x00\n                /* \"#utility.yul\":3716:3719   */\n              0xe0\n                /* \"#utility.yul\":3705:3714   */\n              dup3\n                /* \"#utility.yul\":3701:3720   */\n              add\n                /* \"#utility.yul\":3693:3720   */\n              swap1\n              pop\n                /* \"#utility.yul\":3730:3801   */\n              tag_170\n                /* \"#utility.yul\":3798:3799   */\n              0x00\n                /* \"#utility.yul\":3787:3796   */\n              dup4\n                /* \"#utility.yul\":3783:3800   */\n              add\n                /* \"#utility.yul\":3774:3780   */\n              dup11\n                /* \"#utility.yul\":3730:3801   */\n              tag_102\n              jump\t// in\n            tag_170:\n                /* \"#utility.yul\":3811:3883   */\n              tag_171\n                /* \"#utility.yul\":3879:3881   */\n              0x20\n                /* \"#utility.yul\":3868:3877   */\n              dup4\n                /* \"#utility.yul\":3864:3882   */\n              add\n                /* \"#utility.yul\":3855:3861   */\n              dup10\n                /* \"#utility.yul\":3811:3883   */\n              tag_102\n              jump\t// in\n            tag_171:\n                /* \"#utility.yul\":3930:3939   */\n              dup2\n                /* \"#utility.yul\":3924:3928   */\n              dup2\n                /* \"#utility.yul\":3920:3940   */\n              sub\n                /* \"#utility.yul\":3915:3917   */\n              0x40\n                /* \"#utility.yul\":3904:3913   */\n              dup4\n                /* \"#utility.yul\":3900:3918   */\n              add\n                /* \"#utility.yul\":3893:3941   */\n              mstore\n                /* \"#utility.yul\":3958:4036   */\n              tag_172\n                /* \"#utility.yul\":4031:4035   */\n              dup2\n                /* \"#utility.yul\":4022:4028   */\n              dup9\n                /* \"#utility.yul\":3958:4036   */\n              tag_107\n              jump\t// in\n            tag_172:\n                /* \"#utility.yul\":3950:4036   */\n              swap1\n              pop\n                /* \"#utility.yul\":4083:4092   */\n              dup2\n                /* \"#utility.yul\":4077:4081   */\n              dup2\n                /* \"#utility.yul\":4073:4093   */\n              sub\n                /* \"#utility.yul\":4068:4070   */\n              0x60\n                /* \"#utility.yul\":4057:4066   */\n              dup4\n                /* \"#utility.yul\":4053:4071   */\n              add\n                /* \"#utility.yul\":4046:4094   */\n              mstore\n                /* \"#utility.yul\":4111:4189   */\n              tag_173\n                /* \"#utility.yul\":4184:4188   */\n              dup2\n                /* \"#utility.yul\":4175:4181   */\n              dup8\n                /* \"#utility.yul\":4111:4189   */\n              tag_107\n              jump\t// in\n            tag_173:\n                /* \"#utility.yul\":4103:4189   */\n              swap1\n              pop\n                /* \"#utility.yul\":4237:4246   */\n              dup2\n                /* \"#utility.yul\":4231:4235   */\n              dup2\n                /* \"#utility.yul\":4227:4247   */\n              sub\n                /* \"#utility.yul\":4221:4224   */\n              0x80\n                /* \"#utility.yul\":4210:4219   */\n              dup4\n                /* \"#utility.yul\":4206:4225   */\n              add\n                /* \"#utility.yul\":4199:4248   */\n              mstore\n                /* \"#utility.yul\":4265:4373   */\n              tag_174\n                /* \"#utility.yul\":4368:4372   */\n              dup2\n                /* \"#utility.yul\":4359:4365   */\n              dup7\n                /* \"#utility.yul\":4265:4373   */\n              tag_114\n              jump\t// in\n            tag_174:\n                /* \"#utility.yul\":4257:4373   */\n              swap1\n              pop\n                /* \"#utility.yul\":4421:4430   */\n              dup2\n                /* \"#utility.yul\":4415:4419   */\n              dup2\n                /* \"#utility.yul\":4411:4431   */\n              sub\n                /* \"#utility.yul\":4405:4408   */\n              0xa0\n                /* \"#utility.yul\":4394:4403   */\n              dup4\n                /* \"#utility.yul\":4390:4409   */\n              add\n                /* \"#utility.yul\":4383:4432   */\n              mstore\n                /* \"#utility.yul\":4449:4557   */\n              tag_175\n                /* \"#utility.yul\":4552:4556   */\n              dup2\n                /* \"#utility.yul\":4543:4549   */\n              dup6\n                /* \"#utility.yul\":4449:4557   */\n              tag_114\n              jump\t// in\n            tag_175:\n                /* \"#utility.yul\":4441:4557   */\n              swap1\n              pop\n                /* \"#utility.yul\":4567:4640   */\n              tag_176\n                /* \"#utility.yul\":4635:4638   */\n              0xc0\n                /* \"#utility.yul\":4624:4633   */\n              dup4\n                /* \"#utility.yul\":4620:4639   */\n              add\n                /* \"#utility.yul\":4611:4617   */\n              dup5\n                /* \"#utility.yul\":4567:4640   */\n              tag_116\n              jump\t// in\n            tag_176:\n                /* \"#utility.yul\":3277:4647   */\n              swap9\n              swap8\n              pop\n              pop\n              pop\n              pop\n              pop\n              pop\n              pop\n              pop\n              jump\t// out\n                /* \"#utility.yul\":4653:4875   */\n            tag_22:\n                /* \"#utility.yul\":4746:4750   */\n              0x00\n                /* \"#utility.yul\":4784:4786   */\n              0x20\n                /* \"#utility.yul\":4773:4782   */\n              dup3\n                /* \"#utility.yul\":4769:4787   */\n              add\n                /* \"#utility.yul\":4761:4787   */\n              swap1\n              pop\n                /* \"#utility.yul\":4797:4868   */\n              tag_178\n                /* \"#utility.yul\":4865:4866   */\n              0x00\n                /* \"#utility.yul\":4854:4863   */\n              dup4\n                /* \"#utility.yul\":4850:4867   */\n              add\n                /* \"#utility.yul\":4841:4847   */\n              dup5\n                /* \"#utility.yul\":4797:4868   */\n              tag_102\n              jump\t// in\n            tag_178:\n                /* \"#utility.yul\":4653:4875   */\n              swap3\n              swap2\n              pop\n              pop\n              jump\t// out\n                /* \"#utility.yul\":4881:5194   */\n            tag_26:\n                /* \"#utility.yul\":4994:4998   */\n              0x00\n                /* \"#utility.yul\":5032:5034   */\n              0x20\n                /* \"#utility.yul\":5021:5030   */\n              dup3\n                /* \"#utility.yul\":5017:5035   */\n              add\n                /* \"#utility.yul\":5009:5035   */\n              swap1\n              pop\n                /* \"#utility.yul\":5081:5090   */\n              dup2\n                /* \"#utility.yul\":5075:5079   */\n              dup2\n                /* \"#utility.yul\":5071:5091   */\n              sub\n                /* \"#utility.yul\":5067:5068   */\n              0x00\n                /* \"#utility.yul\":5056:5065   */\n              dup4\n                /* \"#utility.yul\":5052:5069   */\n              add\n                /* \"#utility.yul\":5045:5092   */\n              mstore\n                /* \"#utility.yul\":5109:5187   */\n              tag_180\n                /* \"#utility.yul\":5182:5186   */\n              dup2\n                /* \"#utility.yul\":5173:5179   */\n              dup5\n                /* \"#utility.yul\":5109:5187   */\n              tag_107\n              jump\t// in\n            tag_180:\n                /* \"#utility.yul\":5101:5187   */\n              swap1\n              pop\n                /* \"#utility.yul\":4881:5194   */\n              swap3\n              swap2\n              pop\n              pop\n              jump\t// out\n                /* \"#utility.yul\":5281:5398   */\n            tag_118:\n                /* \"#utility.yul\":5390:5391   */\n              0x00\n                /* \"#utility.yul\":5387:5388   */\n              dup1\n                /* \"#utility.yul\":5380:5392   */\n              revert\n                /* \"#utility.yul\":5527:5649   */\n            tag_120:\n                /* \"#utility.yul\":5600:5624   */\n              tag_185\n                /* \"#utility.yul\":5618:5623   */\n              dup2\n                /* \"#utility.yul\":5600:5624   */\n              tag_101\n              jump\t// in\n            tag_185:\n                /* \"#utility.yul\":5593:5598   */\n              dup2\n                /* \"#utility.yul\":5590:5625   */\n              eq\n                /* \"#utility.yul\":5580:5643   */\n              tag_186\n              jumpi\n                /* \"#utility.yul\":5639:5640   */\n              0x00\n                /* \"#utility.yul\":5636:5637   */\n              dup1\n                /* \"#utility.yul\":5629:5641   */\n              revert\n                /* \"#utility.yul\":5580:5643   */\n            tag_186:\n                /* \"#utility.yul\":5527:5649   */\n              pop\n              jump\t// out\n                /* \"#utility.yul\":5655:5794   */\n            tag_121:\n                /* \"#utility.yul\":5701:5706   */\n              0x00\n                /* \"#utility.yul\":5739:5745   */\n              dup2\n                /* \"#utility.yul\":5726:5746   */\n              calldataload\n                /* \"#utility.yul\":5717:5746   */\n              swap1\n              pop\n                /* \"#utility.yul\":5755:5788   */\n              tag_188\n                /* \"#utility.yul\":5782:5787   */\n              dup2\n                /* \"#utility.yul\":5755:5788   */\n              tag_120\n              jump\t// in\n            tag_188:\n                /* \"#utility.yul\":5655:5794   */\n              swap3\n              swap2\n              pop\n              pop\n              jump\t// out\n                /* \"#utility.yul\":5800:6129   */\n            tag_29:\n                /* \"#utility.yul\":5859:5865   */\n              0x00\n                /* \"#utility.yul\":5908:5910   */\n              0x20\n                /* \"#utility.yul\":5896:5905   */\n              dup3\n                /* \"#utility.yul\":5887:5894   */\n              dup5\n                /* \"#utility.yul\":5883:5906   */\n              sub\n                /* \"#utility.yul\":5879:5911   */\n              slt\n                /* \"#utility.yul\":5876:5995   */\n              iszero\n              tag_190\n              jumpi\n                /* \"#utility.yul\":5914:5993   */\n              tag_191\n              tag_118\n              jump\t// in\n            tag_191:\n                /* \"#utility.yul\":5876:5995   */\n            tag_190:\n                /* \"#utility.yul\":6034:6035   */\n              0x00\n                /* \"#utility.yul\":6059:6112   */\n              tag_192\n                /* \"#utility.yul\":6104:6111   */\n              dup5\n                /* \"#utility.yul\":6095:6101   */\n              dup3\n                /* \"#utility.yul\":6084:6093   */\n              dup6\n                /* \"#utility.yul\":6080:6102   */\n              add\n                /* \"#utility.yul\":6059:6112   */\n              tag_121\n              jump\t// in\n            tag_192:\n                /* \"#utility.yul\":6049:6112   */\n              swap2\n              pop\n                /* \"#utility.yul\":6005:6122   */\n              pop\n                /* \"#utility.yul\":5800:6129   */\n              swap3\n              swap2\n              pop\n              pop\n              jump\t// out\n                /* \"#utility.yul\":6135:6257   */\n            tag_122:\n                /* \"#utility.yul\":6208:6232   */\n              tag_194\n                /* \"#utility.yul\":6226:6231   */\n              dup2\n                /* \"#utility.yul\":6208:6232   */\n              tag_115\n              jump\t// in\n            tag_194:\n                /* \"#utility.yul\":6201:6206   */\n              dup2\n                /* \"#utility.yul\":6198:6233   */\n              eq\n                /* \"#utility.yul\":6188:6251   */\n              tag_195\n              jumpi\n                /* \"#utility.yul\":6247:6248   */\n              0x00\n                /* \"#utility.yul\":6244:6245   */\n              dup1\n                /* \"#utility.yul\":6237:6249   */\n              revert\n                /* \"#utility.yul\":6188:6251   */\n            tag_195:\n                /* \"#utility.yul\":6135:6257   */\n              pop\n              jump\t// out\n                /* \"#utility.yul\":6263:6402   */\n            tag_123:\n                /* \"#utility.yul\":6309:6314   */\n              0x00\n                /* \"#utility.yul\":6347:6353   */\n              dup2\n                /* \"#utility.yul\":6334:6354   */\n              calldataload\n                /* \"#utility.yul\":6325:6354   */\n              swap1\n              pop\n                /* \"#utility.yul\":6363:6396   */\n              tag_197\n                /* \"#utility.yul\":6390:6395   */\n              dup2\n                /* \"#utility.yul\":6363:6396   */\n              tag_122\n              jump\t// in\n            tag_197:\n                /* \"#utility.yul\":6263:6402   */\n              swap3\n              swap2\n              pop\n              pop\n              jump\t// out\n                /* \"#utility.yul\":6408:6737   */\n            tag_41:\n                /* \"#utility.yul\":6467:6473   */\n              0x00\n                /* \"#utility.yul\":6516:6518   */\n              0x20\n                /* \"#utility.yul\":6504:6513   */\n              dup3\n                /* \"#utility.yul\":6495:6502   */\n              dup5\n                /* \"#utility.yul\":6491:6514   */\n              sub\n                /* \"#utility.yul\":6487:6519   */\n              slt\n                /* \"#utility.yul\":6484:6603   */\n              iszero\n              tag_199\n              jumpi\n                /* \"#utility.yul\":6522:6601   */\n              tag_200\n              tag_118\n              jump\t// in\n            tag_200:\n                /* \"#utility.yul\":6484:6603   */\n            tag_199:\n                /* \"#utility.yul\":6642:6643   */\n              0x00\n                /* \"#utility.yul\":6667:6720   */\n              tag_201\n                /* \"#utility.yul\":6712:6719   */\n              dup5\n                /* \"#utility.yul\":6703:6709   */\n              dup3\n                /* \"#utility.yul\":6692:6701   */\n              dup6\n                /* \"#utility.yul\":6688:6710   */\n              add\n                /* \"#utility.yul\":6667:6720   */\n              tag_123\n              jump\t// in\n            tag_201:\n                /* \"#utility.yul\":6657:6720   */\n              swap2\n              pop\n                /* \"#utility.yul\":6613:6730   */\n              pop\n                /* \"#utility.yul\":6408:6737   */\n              swap3\n              swap2\n              pop\n              pop\n              jump\t// out\n                /* \"#utility.yul\":6743:6965   */\n            tag_50:\n                /* \"#utility.yul\":6836:6840   */\n              0x00\n                /* \"#utility.yul\":6874:6876   */\n              0x20\n                /* \"#utility.yul\":6863:6872   */\n              dup3\n                /* \"#utility.yul\":6859:6877   */\n              add\n                /* \"#utility.yul\":6851:6877   */\n              swap1\n              pop\n                /* \"#utility.yul\":6887:6958   */\n              tag_203\n                /* \"#utility.yul\":6955:6956   */\n              0x00\n                /* \"#utility.yul\":6944:6953   */\n              dup4\n                /* \"#utility.yul\":6940:6957   */\n              add\n                /* \"#utility.yul\":6931:6937   */\n              dup5\n                /* \"#utility.yul\":6887:6958   */\n              tag_116\n              jump\t// in\n            tag_203:\n                /* \"#utility.yul\":6743:6965   */\n              swap3\n              swap2\n              pop\n              pop\n              jump\t// out\n                /* \"#utility.yul\":6971:7151   */\n            tag_124:\n                /* \"#utility.yul\":7019:7096   */\n              0x4e487b7100000000000000000000000000000000000000000000000000000000\n                /* \"#utility.yul\":7016:7017   */\n              0x00\n                /* \"#utility.yul\":7009:7097   */\n              mstore\n                /* \"#utility.yul\":7116:7120   */\n              0x22\n                /* \"#utility.yul\":7113:7114   */\n              0x04\n                /* \"#utility.yul\":7106:7121   */\n              mstore\n                /* \"#utility.yul\":7140:7144   */\n              0x24\n                /* \"#utility.yul\":7137:7138   */\n              0x00\n                /* \"#utility.yul\":7130:7145   */\n              revert\n                /* \"#utility.yul\":7157:7477   */\n            tag_57:\n                /* \"#utility.yul\":7201:7207   */\n              0x00\n                /* \"#utility.yul\":7238:7239   */\n              0x02\n                /* \"#utility.yul\":7232:7236   */\n              dup3\n                /* \"#utility.yul\":7228:7240   */\n              div\n                /* \"#utility.yul\":7218:7240   */\n              swap1\n              pop\n                /* \"#utility.yul\":7285:7286   */\n              0x01\n                /* \"#utility.yul\":7279:7283   */\n              dup3\n                /* \"#utility.yul\":7275:7287   */\n              and\n                /* \"#utility.yul\":7306:7324   */\n              dup1\n                /* \"#utility.yul\":7296:7377   */\n              tag_206\n              jumpi\n                /* \"#utility.yul\":7362:7366   */\n              0x7f\n                /* \"#utility.yul\":7354:7360   */\n              dup3\n                /* \"#utility.yul\":7350:7367   */\n              and\n                /* \"#utility.yul\":7340:7367   */\n              swap2\n              pop\n                /* \"#utility.yul\":7296:7377   */\n            tag_206:\n                /* \"#utility.yul\":7424:7426   */\n              0x20\n                /* \"#utility.yul\":7416:7422   */\n              dup3\n                /* \"#utility.yul\":7413:7427   */\n              lt\n                /* \"#utility.yul\":7393:7411   */\n              dup2\n                /* \"#utility.yul\":7390:7428   */\n              eq\n                /* \"#utility.yul\":7387:7471   */\n              iszero\n              tag_207\n              jumpi\n                /* \"#utility.yul\":7443:7461   */\n              tag_208\n              tag_124\n              jump\t// in\n            tag_208:\n                /* \"#utility.yul\":7387:7471   */\n            tag_207:\n                /* \"#utility.yul\":7208:7477   */\n              pop\n                /* \"#utility.yul\":7157:7477   */\n              swap2\n              swap1\n              pop\n              jump\t// out\n                /* \"#utility.yul\":7483:7788   */\n            tag_125:\n                /* \"#utility.yul\":7623:7657   */\n              0x546869732066756e6374696f6e2068617320746f2062652063616c6c65642066\n                /* \"#utility.yul\":7619:7620   */\n              0x00\n                /* \"#utility.yul\":7611:7617   */\n              dup3\n                /* \"#utility.yul\":7607:7621   */\n              add\n                /* \"#utility.yul\":7600:7658   */\n              mstore\n                /* \"#utility.yul\":7692:7726   */\n              0x726f6d207468652073746f727920636f6e747261637420627920616e20616363\n                /* \"#utility.yul\":7687:7689   */\n              0x20\n                /* \"#utility.yul\":7679:7685   */\n              dup3\n                /* \"#utility.yul\":7675:7690   */\n              add\n                /* \"#utility.yul\":7668:7727   */\n              mstore\n                /* \"#utility.yul\":7761:7780   */\n              0x657074656420617574686f72206f6e6c79000000000000000000000000000000\n                /* \"#utility.yul\":7756:7758   */\n              0x40\n                /* \"#utility.yul\":7748:7754   */\n              dup3\n                /* \"#utility.yul\":7744:7759   */\n              add\n                /* \"#utility.yul\":7737:7781   */\n              mstore\n                /* \"#utility.yul\":7483:7788   */\n              pop\n              jump\t// out\n                /* \"#utility.yul\":7794:8160   */\n            tag_126:\n                /* \"#utility.yul\":7936:7939   */\n              0x00\n                /* \"#utility.yul\":7957:8024   */\n              tag_211\n                /* \"#utility.yul\":8021:8023   */\n              0x51\n                /* \"#utility.yul\":8016:8019   */\n              dup4\n                /* \"#utility.yul\":7957:8024   */\n              tag_104\n              jump\t// in\n            tag_211:\n                /* \"#utility.yul\":7950:8024   */\n              swap2\n              pop\n                /* \"#utility.yul\":8033:8126   */\n              tag_212\n                /* \"#utility.yul\":8122:8125   */\n              dup3\n                /* \"#utility.yul\":8033:8126   */\n              tag_125\n              jump\t// in\n            tag_212:\n                /* \"#utility.yul\":8151:8153   */\n              0x60\n                /* \"#utility.yul\":8146:8149   */\n              dup3\n                /* \"#utility.yul\":8142:8154   */\n              add\n                /* \"#utility.yul\":8135:8154   */\n              swap1\n              pop\n                /* \"#utility.yul\":7794:8160   */\n              swap2\n              swap1\n              pop\n              jump\t// out\n                /* \"#utility.yul\":8166:8585   */\n            tag_79:\n                /* \"#utility.yul\":8332:8336   */\n              0x00\n                /* \"#utility.yul\":8370:8372   */\n              0x20\n                /* \"#utility.yul\":8359:8368   */\n              dup3\n                /* \"#utility.yul\":8355:8373   */\n              add\n                /* \"#utility.yul\":8347:8373   */\n              swap1\n              pop\n                /* \"#utility.yul\":8419:8428   */\n              dup2\n                /* \"#utility.yul\":8413:8417   */\n              dup2\n                /* \"#utility.yul\":8409:8429   */\n              sub\n                /* \"#utility.yul\":8405:8406   */\n              0x00\n                /* \"#utility.yul\":8394:8403   */\n              dup4\n                /* \"#utility.yul\":8390:8407   */\n              add\n                /* \"#utility.yul\":8383:8430   */\n              mstore\n                /* \"#utility.yul\":8447:8578   */\n              tag_214\n                /* \"#utility.yul\":8573:8577   */\n              dup2\n                /* \"#utility.yul\":8447:8578   */\n              tag_126\n              jump\t// in\n            tag_214:\n                /* \"#utility.yul\":8439:8578   */\n              swap1\n              pop\n                /* \"#utility.yul\":8166:8585   */\n              swap2\n              swap1\n              pop\n              jump\t// out\n                /* \"#utility.yul\":8591:8768   */\n            tag_127:\n                /* \"#utility.yul\":8731:8760   */\n              0x596f75206c696b656420746869732073746f7279206265666f72650000000000\n                /* \"#utility.yul\":8727:8728   */\n              0x00\n                /* \"#utility.yul\":8719:8725   */\n              dup3\n                /* \"#utility.yul\":8715:8729   */\n              add\n                /* \"#utility.yul\":8708:8761   */\n              mstore\n                /* \"#utility.yul\":8591:8768   */\n              pop\n              jump\t// out\n                /* \"#utility.yul\":8774:9140   */\n            tag_128:\n                /* \"#utility.yul\":8916:8919   */\n              0x00\n                /* \"#utility.yul\":8937:9004   */\n              tag_217\n                /* \"#utility.yul\":9001:9003   */\n              0x1b\n                /* \"#utility.yul\":8996:8999   */\n              dup4\n                /* \"#utility.yul\":8937:9004   */\n              tag_104\n              jump\t// in\n            tag_217:\n                /* \"#utility.yul\":8930:9004   */\n              swap2\n              pop\n                /* \"#utility.yul\":9013:9106   */\n              tag_218\n                /* \"#utility.yul\":9102:9105   */\n              dup3\n                /* \"#utility.yul\":9013:9106   */\n              tag_127\n              jump\t// in\n            tag_218:\n                /* \"#utility.yul\":9131:9133   */\n              0x20\n                /* \"#utility.yul\":9126:9129   */\n              dup3\n                /* \"#utility.yul\":9122:9134   */\n              add\n                /* \"#utility.yul\":9115:9134   */\n              swap1\n              pop\n                /* \"#utility.yul\":8774:9140   */\n              swap2\n              swap1\n              pop\n              jump\t// out\n                /* \"#utility.yul\":9146:9565   */\n            tag_88:\n                /* \"#utility.yul\":9312:9316   */\n              0x00\n                /* \"#utility.yul\":9350:9352   */\n              0x20\n                /* \"#utility.yul\":9339:9348   */\n              dup3\n                /* \"#utility.yul\":9335:9353   */\n              add\n                /* \"#utility.yul\":9327:9353   */\n              swap1\n              pop\n                /* \"#utility.yul\":9399:9408   */\n              dup2\n                /* \"#utility.yul\":9393:9397   */\n              dup2\n                /* \"#utility.yul\":9389:9409   */\n              sub\n                /* \"#utility.yul\":9385:9386   */\n              0x00\n                /* \"#utility.yul\":9374:9383   */\n              dup4\n                /* \"#utility.yul\":9370:9387   */\n              add\n                /* \"#utility.yul\":9363:9410   */\n              mstore\n                /* \"#utility.yul\":9427:9558   */\n              tag_220\n                /* \"#utility.yul\":9553:9557   */\n              dup2\n                /* \"#utility.yul\":9427:9558   */\n              tag_128\n              jump\t// in\n            tag_220:\n                /* \"#utility.yul\":9419:9558   */\n              swap1\n              pop\n                /* \"#utility.yul\":9146:9565   */\n              swap2\n              swap1\n              pop\n              jump\t// out\n                /* \"#utility.yul\":9571:9751   */\n            tag_129:\n                /* \"#utility.yul\":9619:9696   */\n              0x4e487b7100000000000000000000000000000000000000000000000000000000\n                /* \"#utility.yul\":9616:9617   */\n              0x00\n                /* \"#utility.yul\":9609:9697   */\n              mstore\n                /* \"#utility.yul\":9716:9720   */\n              0x11\n                /* \"#utility.yul\":9713:9714   */\n              0x04\n                /* \"#utility.yul\":9706:9721   */\n              mstore\n                /* \"#utility.yul\":9740:9744   */\n              0x24\n                /* \"#utility.yul\":9737:9738   */\n              0x00\n                /* \"#utility.yul\":9730:9745   */\n              revert\n                /* \"#utility.yul\":9757:9990   */\n            tag_90:\n                /* \"#utility.yul\":9796:9799   */\n              0x00\n                /* \"#utility.yul\":9819:9843   */\n              tag_223\n                /* \"#utility.yul\":9837:9842   */\n              dup3\n                /* \"#utility.yul\":9819:9843   */\n              tag_115\n              jump\t// in\n            tag_223:\n                /* \"#utility.yul\":9810:9843   */\n              swap2\n              pop\n                /* \"#utility.yul\":9865:9931   */\n              0xffffffffffffffffffffffffffffffffffffffffffffffffffffffffffffffff\n                /* \"#utility.yul\":9858:9863   */\n              dup3\n                /* \"#utility.yul\":9855:9932   */\n              eq\n                /* \"#utility.yul\":9852:9955   */\n              iszero\n              tag_224\n              jumpi\n                /* \"#utility.yul\":9935:9953   */\n              tag_225\n              tag_129\n              jump\t// in\n            tag_225:\n                /* \"#utility.yul\":9852:9955   */\n            tag_224:\n                /* \"#utility.yul\":9982:9983   */\n              0x01\n                /* \"#utility.yul\":9975:9980   */\n              dup3\n                /* \"#utility.yul\":9971:9984   */\n              add\n                /* \"#utility.yul\":9964:9984   */\n              swap1\n              pop\n                /* \"#utility.yul\":9757:9990   */\n              swap2\n              swap1\n              pop\n              jump\t// out\n\n            auxdata: 0xa26469706673582212200023b694d6146bdd980bf988c157d7e5c27cbe0acdda147fb22f2459003837b064736f6c63430008090033\n        }\n    }\n\n    auxdata: 0xa26469706673582212202e80afb46dbcdf1703bdc9ee35d031f9901da7c16ca3e13b9ceb64ce282992aa64736f6c63430008090033\n}\n","bytecode":{"linkReferences":{},"object":"6080604052604051620047eb380380620047eb8339818101604052810190620000299190620003eb565b6001600460008673ffffffffffffffffffffffffffffffffffffffff1673ffffffffffffffffffffffffffffffffffffffff16815260200190815260200160002060006101000a81548160ff0219169083151502179055506005849080600181540180825580915050600190039060005260206000200160009091909190916101000a81548173ffffffffffffffffffffffffffffffffffffffff021916908373ffffffffffffffffffffffffffffffffffffffff1602179055508260009080519060200190620000fc92919062000139565b5081600190805190602001906200011592919062000139565b5080600290805190602001906200012e92919062000139565b50505050506200051f565b8280546200014790620004e9565b90600052602060002090601f0160209004810192826200016b5760008555620001b7565b82601f106200018657805160ff1916838001178555620001b7565b82800160010185558215620001b7579182015b82811115620001b657825182559160200191906001019062000199565b5b509050620001c69190620001ca565b5090565b5b80821115620001e5576000816000905550600101620001cb565b5090565b6000604051905090565b600080fd5b600080fd5b600073ffffffffffffffffffffffffffffffffffffffff82169050919050565b60006200022a82620001fd565b9050919050565b6200023c816200021d565b81146200024857600080fd5b50565b6000815190506200025c8162000231565b92915050565b600080fd5b600080fd5b6000601f19601f8301169050919050565b7f4e487b7100000000000000000000000000000000000000000000000000000000600052604160045260246000fd5b620002b7826200026c565b810181811067ffffffffffffffff82111715620002d957620002d86200027d565b5b80604052505050565b6000620002ee620001e9565b9050620002fc8282620002ac565b919050565b600067ffffffffffffffff8211156200031f576200031e6200027d565b5b6200032a826200026c565b9050602081019050919050565b60005b83811015620003575780820151818401526020810190506200033a565b8381111562000367576000848401525b50505050565b6000620003846200037e8462000301565b620002e2565b905082815260208101848484011115620003a357620003a262000267565b5b620003b084828562000337565b509392505050565b600082601f830112620003d057620003cf62000262565b5b8151620003e28482602086016200036d565b91505092915050565b60008060008060808587031215620004085762000407620001f3565b5b600062000418878288016200024b565b945050602085015167ffffffffffffffff8111156200043c576200043b620001f8565b5b6200044a87828801620003b8565b935050604085015167ffffffffffffffff8111156200046e576200046d620001f8565b5b6200047c87828801620003b8565b925050606085015167ffffffffffffffff811115620004a0576200049f620001f8565b5b620004ae87828801620003b8565b91505092959194509250565b7f4e487b7100000000000000000000000000000000000000000000000000000000600052602260045260246000fd5b600060028204905060018216806200050257607f821691505b60208210811415620005195762000518620004ba565b5b50919050565b6142bc806200052f6000396000f3fe608060405260043610620001165760003560e01c80637f51aaf911620000a35780639d3ed807116200006d5780639d3ed8071462000381578063b520252214620003c5578063d5ac2a871462000409578063dfa14e231462000439578063e8ae38e414620004675762000116565b80637f51aaf914620002b15780638da5cb5b14620002f557806398b796281462000325578063992b11dc14620003535762000116565b8063497c941911620000e5578063497c941914620001d35780634a79d50c14620001f35780636c0a665614620002235780636fc6c579146200026a5762000116565b806314a7585d146200011b57806334976b9b14620001275780633e5690f414620001575780634051ddac146200019b575b600080fd5b6200012562000497565b005b3480156200013457600080fd5b506200013f620005e6565b6040516200014e919062001f4f565b60405180910390f35b3480156200016457600080fd5b506200018360048036038101906200017d919062001fe5565b620005f9565b60405162000192919062001f4f565b60405180910390f35b348015620001a857600080fd5b50620001b362000619565b604051620001ca99989796959493929190620021b5565b60405180910390f35b620001f16004803603810190620001eb9190620022a8565b6200095d565b005b3480156200020057600080fd5b506200020b62000f01565b6040516200021a9190620022da565b60405180910390f35b3480156200023057600080fd5b506200024f6004803603810190620002499190620022a8565b62000f97565b604051620002619493929190620022fe565b60405180910390f35b3480156200027757600080fd5b50620002966004803603810190620002909190620022a8565b62001005565b604051620002a894939291906200234b565b60405180910390f35b348015620002be57600080fd5b50620002dd6004803603810190620002d7919062001fe5565b62001103565b604051620002ec919062001f4f565b60405180910390f35b3480156200030257600080fd5b506200030d62001123565b6040516200031c91906200239f565b60405180910390f35b3480156200033257600080fd5b506200035160048036038101906200034b9190620022a8565b62001149565b005b3480156200036057600080fd5b506200037f60048036038101906200037991906200250d565b6200157e565b005b3480156200038e57600080fd5b50620003ad6004803603810190620003a79190620022a8565b62001ad6565b604051620003bc91906200239f565b60405180910390f35b348015620003d257600080fd5b50620003f16004803603810190620003eb9190620022a8565b62001b16565b6040516200040091906200239f565b60405180910390f35b3480156200041657600080fd5b506200042162001b56565b604051620004309190620022da565b60405180910390f35b3480156200044657600080fd5b506200046560048036038101906200045f9190620025bd565b62001bec565b005b3480156200047457600080fd5b506200047f62001dde565b6040516200048e9190620022da565b60405180910390f35b600360009054906101000a900460ff1615620004ea576040517f08c379a0000000000000000000000000000000000000000000000000000000008152600401620004e1906200265e565b60405180910390fd5b6001600360006101000a81548160ff021916908315150217905550600a60149054906101000a900460ff161562000558576040517f08c379a00000000000000000000000000000000000000000000000000000000081526004016200054f90620026d0565b60405180910390fd5b600060096001816001815401808255809150500390600052602060002090600502019050348160000181905550338160010160006101000a81548173ffffffffffffffffffffffffffffffffffffffff021916908373ffffffffffffffffffffffffffffffffffffffff160217905550506000600360006101000a81548160ff021916908315150217905550565b600a60149054906101000a900460ff1681565b60046020528060005260406000206000915054906101000a900460ff1681565b606080606080600060606000806000806001600560076008805490506002600980549050600a60149054906101000a900460ff16600a60009054906101000a900473ffffffffffffffffffffffffffffffffffffffff168880546200067e9062002721565b80601f0160208091040260200160405190810160405280929190818152602001828054620006ac9062002721565b8015620006fd5780601f10620006d157610100808354040283529160200191620006fd565b820191906000526020600020905b815481529060010190602001808311620006df57829003601f168201915b50505050509850878054620007129062002721565b80601f0160208091040260200160405190810160405280929190818152602001828054620007409062002721565b8015620007915780601f10620007655761010080835404028352916020019162000791565b820191906000526020600020905b8154815290600101906020018083116200077357829003601f168201915b50505050509750868054806020026020016040519081016040528092919081815260200182805480156200081b57602002820191906000526020600020905b8160009054906101000a900473ffffffffffffffffffffffffffffffffffffffff1673ffffffffffffffffffffffffffffffffffffffff1681526020019060010190808311620007d0575b5050505050965085805480602002602001604051908101604052809291908181526020018280548015620008a557602002820191906000526020600020905b8160009054906101000a900473ffffffffffffffffffffffffffffffffffffffff1673ffffffffffffffffffffffffffffffffffffffff16815260200190600101908083116200085a575b50505050509550838054620008ba9062002721565b80601f0160208091040260200160405190810160405280929190818152602001828054620008e89062002721565b8015620009395780601f106200090d5761010080835404028352916020019162000939565b820191906000526020600020905b8154815290600101906020018083116200091b57829003601f168201915b50505050509350985098509850985098509850985098509850909192939495969798565b600360009054906101000a900460ff1615620009b0576040517f08c379a0000000000000000000000000000000000000000000000000000000008152600401620009a7906200265e565b60405180910390fd5b6001600360006101000a81548160ff021916908315150217905550600a60149054906101000a900460ff161562000a1e576040517f08c379a000000000000000000000000000000000000000000000000000000000815260040162000a1590620026d0565b60405180910390fd5b600460003373ffffffffffffffffffffffffffffffffffffffff1673ffffffffffffffffffffffffffffffffffffffff16815260200190815260200160002060009054906101000a900460ff1662000aad576040517f08c379a000000000000000000000000000000000000000000000000000000000815260040162000aa490620027cd565b60405180910390fd5b60006009828154811062000ac65762000ac5620027ef565b5b906000526020600020906005020190508060020160003373ffffffffffffffffffffffffffffffffffffffff1673ffffffffffffffffffffffffffffffffffffffff16815260200190815260200160002060009054906101000a900460ff161562000b68576040517f08c379a000000000000000000000000000000000000000000000000000000000815260040162000b5f9062002894565b60405180910390fd5b8060040160009054906101000a900460ff161562000bbd576040517f08c379a000000000000000000000000000000000000000000000000000000000815260040162000bb4906200292c565b60405180910390fd5b60018160020160003373ffffffffffffffffffffffffffffffffffffffff1673ffffffffffffffffffffffffffffffffffffffff16815260200190815260200160002060006101000a81548160ff0219169083151502179055506001816003015462000c2a91906200297d565b8160030181905550600260058054905062000c46919062002a09565b8160030154111562000ee25760018160040160006101000a81548160ff0219169083151502179055508060010160009054906101000a900473ffffffffffffffffffffffffffffffffffffffff16600a60006101000a81548173ffffffffffffffffffffffffffffffffffffffff021916908373ffffffffffffffffffffffffffffffffffffffff1602179055506001600a60146101000a81548160ff0219169083151502179055506000600580549050826000015462000d08919062002a09565b905060005b60058054905081101562000dba576005818154811062000d325762000d31620027ef565b5b9060005260206000200160009054906101000a900473ffffffffffffffffffffffffffffffffffffffff1673ffffffffffffffffffffffffffffffffffffffff166108fc839081150290604051600060405180830381858888f1935050505015801562000da3573d6000803e3d6000fd5b50808062000db19062002a41565b91505062000d0d565b600090505b60098054905081101562000edf57600015156009828154811062000de85762000de7620027ef565b5b906000526020600020906005020160040160009054906101000a900460ff161515141562000ec9576009818154811062000e275762000e26620027ef565b5b906000526020600020906005020160010160009054906101000a900473ffffffffffffffffffffffffffffffffffffffff1673ffffffffffffffffffffffffffffffffffffffff166108fc6009838154811062000e895762000e88620027ef565b5b9060005260206000209060050201600001549081150290604051600060405180830381858888f1935050505015801562000ec7573d6000803e3d6000fd5b505b808062000ed69062002a41565b91505062000dbf565b50505b506000600360006101000a81548160ff02191690831515021790555050565b6000805462000f109062002721565b80601f016020809104026020016040519081016040528092919081815260200182805462000f3e9062002721565b801562000f8f5780601f1062000f635761010080835404028352916020019162000f8f565b820191906000526020600020905b81548152906001019060200180831162000f7157829003601f168201915b505050505081565b6009818154811062000fa857600080fd5b90600052602060002090600502016000915090508060000154908060010160009054906101000a900473ffffffffffffffffffffffffffffffffffffffff16908060030154908060040160009054906101000a900460ff16905084565b600881815481106200101657600080fd5b90600052602060002090600502016000915090508060000180546200103b9062002721565b80601f0160208091040260200160405190810160405280929190818152602001828054620010699062002721565b8015620010ba5780601f106200108e57610100808354040283529160200191620010ba565b820191906000526020600020905b8154815290600101906020018083116200109c57829003601f168201915b5050505050908060010160009054906101000a900473ffffffffffffffffffffffffffffffffffffffff16908060030154908060040160009054906101000a900460ff16905084565b60066020528060005260406000206000915054906101000a900460ff1681565b600a60009054906101000a900473ffffffffffffffffffffffffffffffffffffffff1681565b600360009054906101000a900460ff16156200119c576040517f08c379a000000000000000000000000000000000000000000000000000000000815260040162001193906200265e565b60405180910390fd5b6001600360006101000a81548160ff021916908315150217905550600a60149054906101000a900460ff16156200120a576040517f08c379a00000000000000000000000000000000000000000000000000000000081526004016200120190620026d0565b60405180910390fd5b600460003373ffffffffffffffffffffffffffffffffffffffff1673ffffffffffffffffffffffffffffffffffffffff16815260200190815260200160002060009054906101000a900460ff1662001299576040517f08c379a00000000000000000000000000000000000000000000000000000000081526004016200129090620027cd565b60405180910390fd5b600060088281548110620012b257620012b1620027ef565b5b906000526020600020906005020190508060020160003373ffffffffffffffffffffffffffffffffffffffff1673ffffffffffffffffffffffffffffffffffffffff16815260200190815260200160002060009054906101000a900460ff161562001354576040517f08c379a00000000000000000000000000000000000000000000000000000000081526004016200134b9062002894565b60405180910390fd5b8060040160009054906101000a900460ff1615620013a9576040517f08c379a0000000000000000000000000000000000000000000000000000000008152600401620013a0906200292c565b60405180910390fd5b60018160020160003373ffffffffffffffffffffffffffffffffffffffff1673ffffffffffffffffffffffffffffffffffffffff16815260200190815260200160002060006101000a81548160ff021916908315150217905550600181600301546200141691906200297d565b8160030181905550600260058054905062001432919062002a09565b816003015411156200155f576001600460008360010160009054906101000a900473ffffffffffffffffffffffffffffffffffffffff1673ffffffffffffffffffffffffffffffffffffffff1673ffffffffffffffffffffffffffffffffffffffff16815260200190815260200160002060006101000a81548160ff02191690831515021790555060058160010160009054906101000a900473ffffffffffffffffffffffffffffffffffffffff169080600181540180825580915050600190039060005260206000200160009091909190916101000a81548173ffffffffffffffffffffffffffffffffffffffff021916908373ffffffffffffffffffffffffffffffffffffffff16021790555060018160040160006101000a81548160ff0219169083151502179055505b506000600360006101000a81548160ff02191690831515021790555050565b600360009054906101000a900460ff1615620015d1576040517f08c379a0000000000000000000000000000000000000000000000000000000008152600401620015c8906200265e565b60405180910390fd5b6001600360006101000a81548160ff021916908315150217905550600a60149054906101000a900460ff16156200163f576040517f08c379a00000000000000000000000000000000000000000000000000000000081526004016200163690620026d0565b60405180910390fd5b600460003373ffffffffffffffffffffffffffffffffffffffff1673ffffffffffffffffffffffffffffffffffffffff16815260200190815260200160002060009054906101000a900460ff16620016ce576040517f08c379a0000000000000000000000000000000000000000000000000000000008152600401620016c59062002b05565b60405180910390fd5b600660008373ffffffffffffffffffffffffffffffffffffffff1673ffffffffffffffffffffffffffffffffffffffff16815260200190815260200160002060009054906101000a900460ff1680620017535750600073ffffffffffffffffffffffffffffffffffffffff168273ffffffffffffffffffffffffffffffffffffffff16145b62001795576040517f08c379a00000000000000000000000000000000000000000000000000000000081526004016200178c9062002b9d565b60405180910390fd5b600660008273ffffffffffffffffffffffffffffffffffffffff1673ffffffffffffffffffffffffffffffffffffffff16815260200190815260200160002060009054906101000a900460ff16806200181a5750600073ffffffffffffffffffffffffffffffffffffffff168173ffffffffffffffffffffffffffffffffffffffff16145b6200185c576040517f08c379a0000000000000000000000000000000000000000000000000000000008152600401620018539062002c35565b60405180910390fd5b6000333086868686604051620018729062001e74565b620018839695949392919062002c57565b604051809103906000f080158015620018a0573d6000803e3d6000fd5b509050600073ffffffffffffffffffffffffffffffffffffffff168373ffffffffffffffffffffffffffffffffffffffff16146200194e5760008390508073ffffffffffffffffffffffffffffffffffffffff1663988e46c8836040518263ffffffff1660e01b81526004016200191891906200239f565b600060405180830381600087803b1580156200193357600080fd5b505af115801562001948573d6000803e3d6000fd5b50505050505b600073ffffffffffffffffffffffffffffffffffffffff168273ffffffffffffffffffffffffffffffffffffffff1614620019f95760008290508073ffffffffffffffffffffffffffffffffffffffff16638758ce83836040518263ffffffff1660e01b8152600401620019c391906200239f565b600060405180830381600087803b158015620019de57600080fd5b505af1158015620019f3573d6000803e3d6000fd5b50505050505b6007819080600181540180825580915050600190039060005260206000200160009091909190916101000a81548173ffffffffffffffffffffffffffffffffffffffff021916908373ffffffffffffffffffffffffffffffffffffffff1602179055506001600660008373ffffffffffffffffffffffffffffffffffffffff1673ffffffffffffffffffffffffffffffffffffffff16815260200190815260200160002060006101000a81548160ff021916908315150217905550506000600360006101000a81548160ff02191690831515021790555050505050565b6005818154811062001ae757600080fd5b906000526020600020016000915054906101000a900473ffffffffffffffffffffffffffffffffffffffff1681565b6007818154811062001b2757600080fd5b906000526020600020016000915054906101000a900473ffffffffffffffffffffffffffffffffffffffff1681565b6002805462001b659062002721565b80601f016020809104026020016040519081016040528092919081815260200182805462001b939062002721565b801562001be45780601f1062001bb85761010080835404028352916020019162001be4565b820191906000526020600020905b81548152906001019060200180831162001bc657829003601f168201915b505050505081565b600360009054906101000a900460ff161562001c3f576040517f08c379a000000000000000000000000000000000000000000000000000000000815260040162001c36906200265e565b60405180910390fd5b6001600360006101000a81548160ff021916908315150217905550600a60149054906101000a900460ff161562001cad576040517f08c379a000000000000000000000000000000000000000000000000000000000815260040162001ca490620026d0565b60405180910390fd5b600460003373ffffffffffffffffffffffffffffffffffffffff1673ffffffffffffffffffffffffffffffffffffffff16815260200190815260200160002060009054906101000a900460ff161562001d3d576040517f08c379a000000000000000000000000000000000000000000000000000000000815260040162001d349062002d48565b60405180910390fd5b6000600860018160018154018082558091505003906000526020600020906005020190508181600001908051906020019062001d7b92919062001e82565b50338160010160006101000a81548173ffffffffffffffffffffffffffffffffffffffff021916908373ffffffffffffffffffffffffffffffffffffffff160217905550506000600360006101000a81548160ff02191690831515021790555050565b6001805462001ded9062002721565b80601f016020809104026020016040519081016040528092919081815260200182805462001e1b9062002721565b801562001e6c5780601f1062001e405761010080835404028352916020019162001e6c565b820191906000526020600020905b81548152906001019060200180831162001e4e57829003601f168201915b505050505081565b61151c8062002d6b83390190565b82805462001e909062002721565b90600052602060002090601f01602090048101928262001eb4576000855562001f00565b82601f1062001ecf57805160ff191683800117855562001f00565b8280016001018555821562001f00579182015b8281111562001eff57825182559160200191906001019062001ee2565b5b50905062001f0f919062001f13565b5090565b5b8082111562001f2e57600081600090555060010162001f14565b5090565b60008115159050919050565b62001f498162001f32565b82525050565b600060208201905062001f66600083018462001f3e565b92915050565b6000604051905090565b600080fd5b600080fd5b600073ffffffffffffffffffffffffffffffffffffffff82169050919050565b600062001fad8262001f80565b9050919050565b62001fbf8162001fa0565b811462001fcb57600080fd5b50565b60008135905062001fdf8162001fb4565b92915050565b60006020828403121562001ffe5762001ffd62001f76565b5b60006200200e8482850162001fce565b91505092915050565b600081519050919050565b600082825260208201905092915050565b60005b838110156200205357808201518184015260208101905062002036565b8381111562002063576000848401525b50505050565b6000601f19601f8301169050919050565b6000620020878262002017565b62002093818562002022565b9350620020a581856020860162002033565b620020b08162002069565b840191505092915050565b600081519050919050565b600082825260208201905092915050565b6000819050602082019050919050565b620020f28162001fa0565b82525050565b6000620021068383620020e7565b60208301905092915050565b6000602082019050919050565b60006200212c82620020bb565b620021388185620020c6565b93506200214583620020d7565b8060005b838110156200217c578151620021608882620020f8565b97506200216d8362002112565b92505060018101905062002149565b5085935050505092915050565b6000819050919050565b6200219e8162002189565b82525050565b620021af8162001fa0565b82525050565b6000610120820190508181036000830152620021d2818c6200207a565b90508181036020830152620021e8818b6200207a565b90508181036040830152620021fe818a6200211f565b905081810360608301526200221481896200211f565b905062002225608083018862002193565b81810360a08301526200223981876200207a565b90506200224a60c083018662002193565b6200225960e083018562001f3e565b62002269610100830184620021a4565b9a9950505050505050505050565b620022828162002189565b81146200228e57600080fd5b50565b600081359050620022a28162002277565b92915050565b600060208284031215620022c157620022c062001f76565b5b6000620022d18482850162002291565b91505092915050565b60006020820190508181036000830152620022f681846200207a565b905092915050565b600060808201905062002315600083018762002193565b620023246020830186620021a4565b62002333604083018562002193565b62002342606083018462001f3e565b95945050505050565b600060808201905081810360008301526200236781876200207a565b9050620023786020830186620021a4565b62002387604083018562002193565b62002396606083018462001f3e565b95945050505050565b6000602082019050620023b66000830184620021a4565b92915050565b600080fd5b600080fd5b7f4e487b7100000000000000000000000000000000000000000000000000000000600052604160045260246000fd5b620024008262002069565b810181811067ffffffffffffffff82111715620024225762002421620023c6565b5b80604052505050565b60006200243762001f6c565b9050620024458282620023f5565b919050565b600067ffffffffffffffff821115620024685762002467620023c6565b5b620024738262002069565b9050602081019050919050565b82818337600083830152505050565b6000620024a6620024a0846200244a565b6200242b565b905082815260208101848484011115620024c557620024c4620023c1565b5b620024d284828562002480565b509392505050565b600082601f830112620024f257620024f1620023bc565b5b8135620025048482602086016200248f565b91505092915050565b600080600080608085870312156200252a576200252962001f76565b5b600085013567ffffffffffffffff8111156200254b576200254a62001f7b565b5b6200255987828801620024da565b945050602085013567ffffffffffffffff8111156200257d576200257c62001f7b565b5b6200258b87828801620024da565b93505060406200259e8782880162001fce565b9250506060620025b18782880162001fce565b91505092959194509250565b600060208284031215620025d657620025d562001f76565b5b600082013567ffffffffffffffff811115620025f757620025f662001f7b565b5b6200260584828501620024da565b91505092915050565b7f5265656e7472616e742063616c6c000000000000000000000000000000000000600082015250565b600062002646600e8362002022565b915062002653826200260e565b602082019050919050565b60006020820190508181036000830152620026798162002637565b9050919050565b7f546869732073746f727920686173206265656e20626f75676874000000000000600082015250565b6000620026b8601a8362002022565b9150620026c58262002680565b602082019050919050565b60006020820190508181036000830152620026eb81620026a9565b9050919050565b7f4e487b7100000000000000000000000000000000000000000000000000000000600052602260045260246000fd5b600060028204905060018216806200273a57607f821691505b60208210811415620027515762002750620026f2565b5b50919050565b7f4f6e6c7920616e20616363657074656420617574686f722063616e206170707260008201527f6f76652061207265717565737400000000000000000000000000000000000000602082015250565b6000620027b5602d8362002022565b9150620027c28262002757565b604082019050919050565b60006020820190508181036000830152620027e881620027a6565b9050919050565b7f4e487b7100000000000000000000000000000000000000000000000000000000600052603260045260246000fd5b7f5468697320617574686f7220616c726561647920617070726f7665642062656660008201527f6f72650000000000000000000000000000000000000000000000000000000000602082015250565b60006200287c60238362002022565b915062002889826200281e565b604082019050919050565b60006020820190508181036000830152620028af816200286d565b9050919050565b7f5468697320726571756573742068617320616c7265616479206265656e20617060008201527f70726f766564206265666f726500000000000000000000000000000000000000602082015250565b600062002914602d8362002022565b91506200292182620028b6565b604082019050919050565b60006020820190508181036000830152620029478162002905565b9050919050565b7f4e487b7100000000000000000000000000000000000000000000000000000000600052601160045260246000fd5b60006200298a8262002189565b9150620029978362002189565b9250827fffffffffffffffffffffffffffffffffffffffffffffffffffffffffffffffff03821115620029cf57620029ce6200294e565b5b828201905092915050565b7f4e487b7100000000000000000000000000000000000000000000000000000000600052601260045260246000fd5b600062002a168262002189565b915062002a238362002189565b92508262002a365762002a35620029da565b5b828204905092915050565b600062002a4e8262002189565b91507fffffffffffffffffffffffffffffffffffffffffffffffffffffffffffffffff82141562002a845762002a836200294e565b5b600182019050919050565b7f4f6e6c7920616e20616363657074656420617574686f722063616e206372656160008201527f7465206120636861707465720000000000000000000000000000000000000000602082015250565b600062002aed602c8362002022565b915062002afa8262002a8f565b604082019050919050565b6000602082019050818103600083015262002b208162002ade565b9050919050565b7f506172656e742063686170746572206d7573742062656c6f6e6720746f20746860008201527f652073616d652073746f72790000000000000000000000000000000000000000602082015250565b600062002b85602c8362002022565b915062002b928262002b27565b604082019050919050565b6000602082019050818103600083015262002bb88162002b76565b9050919050565b7f4368696c642063686170746572206d7573742062656c6f6e6720746f2074686560008201527f2073616d652073746f7279000000000000000000000000000000000000000000602082015250565b600062002c1d602b8362002022565b915062002c2a8262002bbf565b604082019050919050565b6000602082019050818103600083015262002c508162002c0e565b9050919050565b600060c08201905062002c6e6000830189620021a4565b62002c7d6020830188620021a4565b818103604083015262002c9181876200207a565b9050818103606083015262002ca781866200207a565b905062002cb86080830185620021a4565b62002cc760a0830184620021a4565b979650505050505050565b7f417574686f7220616c72656164792065786973747320696e20746865206c697360008201527f74206f6620617574686f72730000000000000000000000000000000000000000602082015250565b600062002d30602c8362002022565b915062002d3d8262002cd2565b604082019050919050565b6000602082019050818103600083015262002d638162002d21565b905091905056fe60806040523480156200001157600080fd5b506040516200151c3803806200151c8339818101604052810190620000379190620004da565b85600160006101000a81548173ffffffffffffffffffffffffffffffffffffffff021916908373ffffffffffffffffffffffffffffffffffffffff160217905550846000806101000a81548173ffffffffffffffffffffffffffffffffffffffff021916908373ffffffffffffffffffffffffffffffffffffffff1602179055508260039080519060200190620000d092919062000228565b508360029080519060200190620000e992919062000228565b50600073ffffffffffffffffffffffffffffffffffffffff168273ffffffffffffffffffffffffffffffffffffffff161462000183576004829080600181540180825580915050600190039060005260206000200160009091909190916101000a81548173ffffffffffffffffffffffffffffffffffffffff021916908373ffffffffffffffffffffffffffffffffffffffff1602179055505b600073ffffffffffffffffffffffffffffffffffffffff168173ffffffffffffffffffffffffffffffffffffffff16146200021c576005819080600181540180825580915050600190039060005260206000200160009091909190916101000a81548173ffffffffffffffffffffffffffffffffffffffff021916908373ffffffffffffffffffffffffffffffffffffffff1602179055505b50505050505062000619565b8280546200023690620005e3565b90600052602060002090601f0160209004810192826200025a5760008555620002a6565b82601f106200027557805160ff1916838001178555620002a6565b82800160010185558215620002a6579182015b82811115620002a557825182559160200191906001019062000288565b5b509050620002b59190620002b9565b5090565b5b80821115620002d4576000816000905550600101620002ba565b5090565b6000604051905090565b600080fd5b600080fd5b600073ffffffffffffffffffffffffffffffffffffffff82169050919050565b60006200031982620002ec565b9050919050565b6200032b816200030c565b81146200033757600080fd5b50565b6000815190506200034b8162000320565b92915050565b600080fd5b600080fd5b6000601f19601f8301169050919050565b7f4e487b7100000000000000000000000000000000000000000000000000000000600052604160045260246000fd5b620003a6826200035b565b810181811067ffffffffffffffff82111715620003c857620003c76200036c565b5b80604052505050565b6000620003dd620002d8565b9050620003eb82826200039b565b919050565b600067ffffffffffffffff8211156200040e576200040d6200036c565b5b62000419826200035b565b9050602081019050919050565b60005b838110156200044657808201518184015260208101905062000429565b8381111562000456576000848401525b50505050565b6000620004736200046d84620003f0565b620003d1565b90508281526020810184848401111562000492576200049162000356565b5b6200049f84828562000426565b509392505050565b600082601f830112620004bf57620004be62000351565b5b8151620004d18482602086016200045c565b91505092915050565b60008060008060008060c08789031215620004fa57620004f9620002e2565b5b60006200050a89828a016200033a565b96505060206200051d89828a016200033a565b955050604087015167ffffffffffffffff811115620005415762000540620002e7565b5b6200054f89828a01620004a7565b945050606087015167ffffffffffffffff811115620005735762000572620002e7565b5b6200058189828a01620004a7565b93505060806200059489828a016200033a565b92505060a0620005a789828a016200033a565b9150509295509295509295565b7f4e487b7100000000000000000000000000000000000000000000000000000000600052602260045260246000fd5b60006002820490506001821680620005fc57607f821691505b60208210811415620006135762000612620005b4565b5b50919050565b610ef380620006296000396000f3fe608060405234801561001057600080fd5b50600436106100a95760003560e01c8063a523b88a11610071578063a523b88a14610146578063a6c3e6b914610150578063c5fe6ffc1461016e578063c623674f1461019e578063e5a0af3d146101bc578063ed777791146101da576100a9565b80634051ddac146100ae57806346c922d1146100d25780634a79d50c146100f05780638758ce831461010e578063988e46c81461012a575b600080fd5b6100b661020a565b6040516100c99796959493929190610b26565b60405180910390f35b6100da6104a4565b6040516100e79190610bb1565b60405180910390f35b6100f86104c8565b6040516101059190610bcc565b60405180910390f35b61012860048036038101906101239190610c1f565b610556565b005b610144600480360381019061013f9190610c1f565b61064a565b005b61014e61073e565b005b61015861083d565b6040516101659190610bb1565b60405180910390f35b61018860048036038101906101839190610c78565b610863565b6040516101959190610bb1565b60405180910390f35b6101a66108a2565b6040516101b39190610bcc565b60405180910390f35b6101c4610930565b6040516101d19190610ca5565b60405180910390f35b6101f460048036038101906101ef9190610c78565b610936565b6040516102019190610bb1565b60405180910390f35b60008060608060608060008060009054906101000a900473ffffffffffffffffffffffffffffffffffffffff16600160009054906101000a900473ffffffffffffffffffffffffffffffffffffffff16600260036004600560075484805461027190610cef565b80601f016020809104026020016040519081016040528092919081815260200182805461029d90610cef565b80156102ea5780601f106102bf576101008083540402835291602001916102ea565b820191906000526020600020905b8154815290600101906020018083116102cd57829003601f168201915b505050505094508380546102fd90610cef565b80601f016020809104026020016040519081016040528092919081815260200182805461032990610cef565b80156103765780601f1061034b57610100808354040283529160200191610376565b820191906000526020600020905b81548152906001019060200180831161035957829003601f168201915b50505050509350828054806020026020016040519081016040528092919081815260200182805480156103fe57602002820191906000526020600020905b8160009054906101000a900473ffffffffffffffffffffffffffffffffffffffff1673ffffffffffffffffffffffffffffffffffffffff16815260200190600101908083116103b4575b505050505092508180548060200260200160405190810160405280929190818152602001828054801561048657602002820191906000526020600020905b8160009054906101000a900473ffffffffffffffffffffffffffffffffffffffff1673ffffffffffffffffffffffffffffffffffffffff168152602001906001019080831161043c575b50505050509150965096509650965096509650965090919293949596565b60008054906101000a900473ffffffffffffffffffffffffffffffffffffffff1681565b600280546104d590610cef565b80601f016020809104026020016040519081016040528092919081815260200182805461050190610cef565b801561054e5780601f106105235761010080835404028352916020019161054e565b820191906000526020600020905b81548152906001019060200180831161053157829003601f168201915b505050505081565b60008054906101000a900473ffffffffffffffffffffffffffffffffffffffff1673ffffffffffffffffffffffffffffffffffffffff163373ffffffffffffffffffffffffffffffffffffffff16146105e4576040517f08c379a00000000000000000000000000000000000000000000000000000000081526004016105db90610db9565b60405180910390fd5b6004819080600181540180825580915050600190039060005260206000200160009091909190916101000a81548173ffffffffffffffffffffffffffffffffffffffff021916908373ffffffffffffffffffffffffffffffffffffffff16021790555050565b60008054906101000a900473ffffffffffffffffffffffffffffffffffffffff1673ffffffffffffffffffffffffffffffffffffffff163373ffffffffffffffffffffffffffffffffffffffff16146106d8576040517f08c379a00000000000000000000000000000000000000000000000000000000081526004016106cf90610db9565b60405180910390fd5b6005819080600181540180825580915050600190039060005260206000200160009091909190916101000a81548173ffffffffffffffffffffffffffffffffffffffff021916908373ffffffffffffffffffffffffffffffffffffffff16021790555050565b600660003373ffffffffffffffffffffffffffffffffffffffff1673ffffffffffffffffffffffffffffffffffffffff16815260200190815260200160002060009054906101000a900460ff16156107cb576040517f08c379a00000000000000000000000000000000000000000000000000000000081526004016107c290610e25565b60405180910390fd5b6001600660003373ffffffffffffffffffffffffffffffffffffffff1673ffffffffffffffffffffffffffffffffffffffff16815260200190815260200160002060006101000a81548160ff0219169083151502179055506007600081548092919061083690610e74565b9190505550565b600160009054906101000a900473ffffffffffffffffffffffffffffffffffffffff1681565b6005818154811061087357600080fd5b906000526020600020016000915054906101000a900473ffffffffffffffffffffffffffffffffffffffff1681565b600380546108af90610cef565b80601f01602080910402602001604051908101604052809291908181526020018280546108db90610cef565b80156109285780601f106108fd57610100808354040283529160200191610928565b820191906000526020600020905b81548152906001019060200180831161090b57829003601f168201915b505050505081565b60075481565b6004818154811061094657600080fd5b906000526020600020016000915054906101000a900473ffffffffffffffffffffffffffffffffffffffff1681565b600073ffffffffffffffffffffffffffffffffffffffff82169050919050565b60006109a082610975565b9050919050565b6109b081610995565b82525050565b600081519050919050565b600082825260208201905092915050565b60005b838110156109f05780820151818401526020810190506109d5565b838111156109ff576000848401525b50505050565b6000601f19601f8301169050919050565b6000610a21826109b6565b610a2b81856109c1565b9350610a3b8185602086016109d2565b610a4481610a05565b840191505092915050565b600081519050919050565b600082825260208201905092915050565b6000819050602082019050919050565b610a8481610995565b82525050565b6000610a968383610a7b565b60208301905092915050565b6000602082019050919050565b6000610aba82610a4f565b610ac48185610a5a565b9350610acf83610a6b565b8060005b83811015610b00578151610ae78882610a8a565b9750610af283610aa2565b925050600181019050610ad3565b5085935050505092915050565b6000819050919050565b610b2081610b0d565b82525050565b600060e082019050610b3b600083018a6109a7565b610b4860208301896109a7565b8181036040830152610b5a8188610a16565b90508181036060830152610b6e8187610a16565b90508181036080830152610b828186610aaf565b905081810360a0830152610b968185610aaf565b9050610ba560c0830184610b17565b98975050505050505050565b6000602082019050610bc660008301846109a7565b92915050565b60006020820190508181036000830152610be68184610a16565b905092915050565b600080fd5b610bfc81610995565b8114610c0757600080fd5b50565b600081359050610c1981610bf3565b92915050565b600060208284031215610c3557610c34610bee565b5b6000610c4384828501610c0a565b91505092915050565b610c5581610b0d565b8114610c6057600080fd5b50565b600081359050610c7281610c4c565b92915050565b600060208284031215610c8e57610c8d610bee565b5b6000610c9c84828501610c63565b91505092915050565b6000602082019050610cba6000830184610b17565b92915050565b7f4e487b7100000000000000000000000000000000000000000000000000000000600052602260045260246000fd5b60006002820490506001821680610d0757607f821691505b60208210811415610d1b57610d1a610cc0565b5b50919050565b7f546869732066756e6374696f6e2068617320746f2062652063616c6c6564206660008201527f726f6d207468652073746f727920636f6e747261637420627920616e2061636360208201527f657074656420617574686f72206f6e6c79000000000000000000000000000000604082015250565b6000610da36051836109c1565b9150610dae82610d21565b606082019050919050565b60006020820190508181036000830152610dd281610d96565b9050919050565b7f596f75206c696b656420746869732073746f7279206265666f72650000000000600082015250565b6000610e0f601b836109c1565b9150610e1a82610dd9565b602082019050919050565b60006020820190508181036000830152610e3e81610e02565b9050919050565b7f4e487b7100000000000000000000000000000000000000000000000000000000600052601160045260246000fd5b6000610e7f82610b0d565b91507fffffffffffffffffffffffffffffffffffffffffffffffffffffffffffffffff821415610eb257610eb1610e45565b5b60018201905091905056fea26469706673582212200023b694d6146bdd980bf988c157d7e5c27cbe0acdda147fb22f2459003837b064736f6c63430008090033a26469706673582212202e80afb46dbcdf1703bdc9ee35d031f9901da7c16ca3e13b9ceb64ce282992aa64736f6c63430008090033","opcodes":"PUSH1 0x80 PUSH1 0x40 MSTORE PUSH1 0x40 MLOAD PUSH3 0x47EB CODESIZE SUB DUP1 PUSH3 0x47EB DUP4 CODECOPY DUP2 DUP2 ADD PUSH1 0x40 MSTORE DUP2 ADD SWAP1 PUSH3 0x29 SWAP2 SWAP1 PUSH3 0x3EB JUMP JUMPDEST PUSH1 0x1 PUSH1 0x4 PUSH1 0x0 DUP7 PUSH20 0xFFFFFFFFFFFFFFFFFFFFFFFFFFFFFFFFFFFFFFFF AND PUSH20 0xFFFFFFFFFFFFFFFFFFFFFFFFFFFFFFFFFFFFFFFF AND DUP2 MSTORE PUSH1 0x20 ADD SWAP1 DUP2 MSTORE PUSH1 0x20 ADD PUSH1 0x0 KECCAK256 PUSH1 0x0 PUSH2 0x100 EXP DUP2 SLOAD DUP2 PUSH1 0xFF MUL NOT AND SWAP1 DUP4 ISZERO ISZERO MUL OR SWAP1 SSTORE POP PUSH1 0x5 DUP5 SWAP1 DUP1 PUSH1 0x1 DUP2 SLOAD ADD DUP1 DUP3 SSTORE DUP1 SWAP2 POP POP PUSH1 0x1 SWAP1 SUB SWAP1 PUSH1 0x0 MSTORE PUSH1 0x20 PUSH1 0x0 KECCAK256 ADD PUSH1 0x0 SWAP1 SWAP2 SWAP1 SWAP2 SWAP1 SWAP2 PUSH2 0x100 EXP DUP2 SLOAD DUP2 PUSH20 0xFFFFFFFFFFFFFFFFFFFFFFFFFFFFFFFFFFFFFFFF MUL NOT AND SWAP1 DUP4 PUSH20 0xFFFFFFFFFFFFFFFFFFFFFFFFFFFFFFFFFFFFFFFF AND MUL OR SWAP1 SSTORE POP DUP3 PUSH1 0x0 SWAP1 DUP1 MLOAD SWAP1 PUSH1 0x20 ADD SWAP1 PUSH3 0xFC SWAP3 SWAP2 SWAP1 PUSH3 0x139 JUMP JUMPDEST POP DUP2 PUSH1 0x1 SWAP1 DUP1 MLOAD SWAP1 PUSH1 0x20 ADD SWAP1 PUSH3 0x115 SWAP3 SWAP2 SWAP1 PUSH3 0x139 JUMP JUMPDEST POP DUP1 PUSH1 0x2 SWAP1 DUP1 MLOAD SWAP1 PUSH1 0x20 ADD SWAP1 PUSH3 0x12E SWAP3 SWAP2 SWAP1 PUSH3 0x139 JUMP JUMPDEST POP POP POP POP POP PUSH3 0x51F JUMP JUMPDEST DUP3 DUP1 SLOAD PUSH3 0x147 SWAP1 PUSH3 0x4E9 JUMP JUMPDEST SWAP1 PUSH1 0x0 MSTORE PUSH1 0x20 PUSH1 0x0 KECCAK256 SWAP1 PUSH1 0x1F ADD PUSH1 0x20 SWAP1 DIV DUP2 ADD SWAP3 DUP3 PUSH3 0x16B JUMPI PUSH1 0x0 DUP6 SSTORE PUSH3 0x1B7 JUMP JUMPDEST DUP3 PUSH1 0x1F LT PUSH3 0x186 JUMPI DUP1 MLOAD PUSH1 0xFF NOT AND DUP4 DUP1 ADD OR DUP6 SSTORE PUSH3 0x1B7 JUMP JUMPDEST DUP3 DUP1 ADD PUSH1 0x1 ADD DUP6 SSTORE DUP3 ISZERO PUSH3 0x1B7 JUMPI SWAP2 DUP3 ADD JUMPDEST DUP3 DUP2 GT ISZERO PUSH3 0x1B6 JUMPI DUP3 MLOAD DUP3 SSTORE SWAP2 PUSH1 0x20 ADD SWAP2 SWAP1 PUSH1 0x1 ADD SWAP1 PUSH3 0x199 JUMP JUMPDEST JUMPDEST POP SWAP1 POP PUSH3 0x1C6 SWAP2 SWAP1 PUSH3 0x1CA JUMP JUMPDEST POP SWAP1 JUMP JUMPDEST JUMPDEST DUP1 DUP3 GT ISZERO PUSH3 0x1E5 JUMPI PUSH1 0x0 DUP2 PUSH1 0x0 SWAP1 SSTORE POP PUSH1 0x1 ADD PUSH3 0x1CB JUMP JUMPDEST POP SWAP1 JUMP JUMPDEST PUSH1 0x0 PUSH1 0x40 MLOAD SWAP1 POP SWAP1 JUMP JUMPDEST PUSH1 0x0 DUP1 REVERT JUMPDEST PUSH1 0x0 DUP1 REVERT JUMPDEST PUSH1 0x0 PUSH20 0xFFFFFFFFFFFFFFFFFFFFFFFFFFFFFFFFFFFFFFFF DUP3 AND SWAP1 POP SWAP2 SWAP1 POP JUMP JUMPDEST PUSH1 0x0 PUSH3 0x22A DUP3 PUSH3 0x1FD JUMP JUMPDEST SWAP1 POP SWAP2 SWAP1 POP JUMP JUMPDEST PUSH3 0x23C DUP2 PUSH3 0x21D JUMP JUMPDEST DUP2 EQ PUSH3 0x248 JUMPI PUSH1 0x0 DUP1 REVERT JUMPDEST POP JUMP JUMPDEST PUSH1 0x0 DUP2 MLOAD SWAP1 POP PUSH3 0x25C DUP2 PUSH3 0x231 JUMP JUMPDEST SWAP3 SWAP2 POP POP JUMP JUMPDEST PUSH1 0x0 DUP1 REVERT JUMPDEST PUSH1 0x0 DUP1 REVERT JUMPDEST PUSH1 0x0 PUSH1 0x1F NOT PUSH1 0x1F DUP4 ADD AND SWAP1 POP SWAP2 SWAP1 POP JUMP JUMPDEST PUSH32 0x4E487B7100000000000000000000000000000000000000000000000000000000 PUSH1 0x0 MSTORE PUSH1 0x41 PUSH1 0x4 MSTORE PUSH1 0x24 PUSH1 0x0 REVERT JUMPDEST PUSH3 0x2B7 DUP3 PUSH3 0x26C JUMP JUMPDEST DUP2 ADD DUP2 DUP2 LT PUSH8 0xFFFFFFFFFFFFFFFF DUP3 GT OR ISZERO PUSH3 0x2D9 JUMPI PUSH3 0x2D8 PUSH3 0x27D JUMP JUMPDEST JUMPDEST DUP1 PUSH1 0x40 MSTORE POP POP POP JUMP JUMPDEST PUSH1 0x0 PUSH3 0x2EE PUSH3 0x1E9 JUMP JUMPDEST SWAP1 POP PUSH3 0x2FC DUP3 DUP3 PUSH3 0x2AC JUMP JUMPDEST SWAP2 SWAP1 POP JUMP JUMPDEST PUSH1 0x0 PUSH8 0xFFFFFFFFFFFFFFFF DUP3 GT ISZERO PUSH3 0x31F JUMPI PUSH3 0x31E PUSH3 0x27D JUMP JUMPDEST JUMPDEST PUSH3 0x32A DUP3 PUSH3 0x26C JUMP JUMPDEST SWAP1 POP PUSH1 0x20 DUP2 ADD SWAP1 POP SWAP2 SWAP1 POP JUMP JUMPDEST PUSH1 0x0 JUMPDEST DUP4 DUP2 LT ISZERO PUSH3 0x357 JUMPI DUP1 DUP3 ADD MLOAD DUP2 DUP5 ADD MSTORE PUSH1 0x20 DUP2 ADD SWAP1 POP PUSH3 0x33A JUMP JUMPDEST DUP4 DUP2 GT ISZERO PUSH3 0x367 JUMPI PUSH1 0x0 DUP5 DUP5 ADD MSTORE JUMPDEST POP POP POP POP JUMP JUMPDEST PUSH1 0x0 PUSH3 0x384 PUSH3 0x37E DUP5 PUSH3 0x301 JUMP JUMPDEST PUSH3 0x2E2 JUMP JUMPDEST SWAP1 POP DUP3 DUP2 MSTORE PUSH1 0x20 DUP2 ADD DUP5 DUP5 DUP5 ADD GT ISZERO PUSH3 0x3A3 JUMPI PUSH3 0x3A2 PUSH3 0x267 JUMP JUMPDEST JUMPDEST PUSH3 0x3B0 DUP5 DUP3 DUP6 PUSH3 0x337 JUMP JUMPDEST POP SWAP4 SWAP3 POP POP POP JUMP JUMPDEST PUSH1 0x0 DUP3 PUSH1 0x1F DUP4 ADD SLT PUSH3 0x3D0 JUMPI PUSH3 0x3CF PUSH3 0x262 JUMP JUMPDEST JUMPDEST DUP2 MLOAD PUSH3 0x3E2 DUP5 DUP3 PUSH1 0x20 DUP7 ADD PUSH3 0x36D JUMP JUMPDEST SWAP2 POP POP SWAP3 SWAP2 POP POP JUMP JUMPDEST PUSH1 0x0 DUP1 PUSH1 0x0 DUP1 PUSH1 0x80 DUP6 DUP8 SUB SLT ISZERO PUSH3 0x408 JUMPI PUSH3 0x407 PUSH3 0x1F3 JUMP JUMPDEST JUMPDEST PUSH1 0x0 PUSH3 0x418 DUP8 DUP3 DUP9 ADD PUSH3 0x24B JUMP JUMPDEST SWAP5 POP POP PUSH1 0x20 DUP6 ADD MLOAD PUSH8 0xFFFFFFFFFFFFFFFF DUP2 GT ISZERO PUSH3 0x43C JUMPI PUSH3 0x43B PUSH3 0x1F8 JUMP JUMPDEST JUMPDEST PUSH3 0x44A DUP8 DUP3 DUP9 ADD PUSH3 0x3B8 JUMP JUMPDEST SWAP4 POP POP PUSH1 0x40 DUP6 ADD MLOAD PUSH8 0xFFFFFFFFFFFFFFFF DUP2 GT ISZERO PUSH3 0x46E JUMPI PUSH3 0x46D PUSH3 0x1F8 JUMP JUMPDEST JUMPDEST PUSH3 0x47C DUP8 DUP3 DUP9 ADD PUSH3 0x3B8 JUMP JUMPDEST SWAP3 POP POP PUSH1 0x60 DUP6 ADD MLOAD PUSH8 0xFFFFFFFFFFFFFFFF DUP2 GT ISZERO PUSH3 0x4A0 JUMPI PUSH3 0x49F PUSH3 0x1F8 JUMP JUMPDEST JUMPDEST PUSH3 0x4AE DUP8 DUP3 DUP9 ADD PUSH3 0x3B8 JUMP JUMPDEST SWAP2 POP POP SWAP3 SWAP6 SWAP2 SWAP5 POP SWAP3 POP JUMP JUMPDEST PUSH32 0x4E487B7100000000000000000000000000000000000000000000000000000000 PUSH1 0x0 MSTORE PUSH1 0x22 PUSH1 0x4 MSTORE PUSH1 0x24 PUSH1 0x0 REVERT JUMPDEST PUSH1 0x0 PUSH1 0x2 DUP3 DIV SWAP1 POP PUSH1 0x1 DUP3 AND DUP1 PUSH3 0x502 JUMPI PUSH1 0x7F DUP3 AND SWAP2 POP JUMPDEST PUSH1 0x20 DUP3 LT DUP2 EQ ISZERO PUSH3 0x519 JUMPI PUSH3 0x518 PUSH3 0x4BA JUMP JUMPDEST JUMPDEST POP SWAP2 SWAP1 POP JUMP JUMPDEST PUSH2 0x42BC DUP1 PUSH3 0x52F PUSH1 0x0 CODECOPY PUSH1 0x0 RETURN INVALID PUSH1 0x80 PUSH1 0x40 MSTORE PUSH1 0x4 CALLDATASIZE LT PUSH3 0x116 JUMPI PUSH1 0x0 CALLDATALOAD PUSH1 0xE0 SHR DUP1 PUSH4 0x7F51AAF9 GT PUSH3 0xA3 JUMPI DUP1 PUSH4 0x9D3ED807 GT PUSH3 0x6D JUMPI DUP1 PUSH4 0x9D3ED807 EQ PUSH3 0x381 JUMPI DUP1 PUSH4 0xB5202522 EQ PUSH3 0x3C5 JUMPI DUP1 PUSH4 0xD5AC2A87 EQ PUSH3 0x409 JUMPI DUP1 PUSH4 0xDFA14E23 EQ PUSH3 0x439 JUMPI DUP1 PUSH4 0xE8AE38E4 EQ PUSH3 0x467 JUMPI PUSH3 0x116 JUMP JUMPDEST DUP1 PUSH4 0x7F51AAF9 EQ PUSH3 0x2B1 JUMPI DUP1 PUSH4 0x8DA5CB5B EQ PUSH3 0x2F5 JUMPI DUP1 PUSH4 0x98B79628 EQ PUSH3 0x325 JUMPI DUP1 PUSH4 0x992B11DC EQ PUSH3 0x353 JUMPI PUSH3 0x116 JUMP JUMPDEST DUP1 PUSH4 0x497C9419 GT PUSH3 0xE5 JUMPI DUP1 PUSH4 0x497C9419 EQ PUSH3 0x1D3 JUMPI DUP1 PUSH4 0x4A79D50C EQ PUSH3 0x1F3 JUMPI DUP1 PUSH4 0x6C0A6656 EQ PUSH3 0x223 JUMPI DUP1 PUSH4 0x6FC6C579 EQ PUSH3 0x26A JUMPI PUSH3 0x116 JUMP JUMPDEST DUP1 PUSH4 0x14A7585D EQ PUSH3 0x11B JUMPI DUP1 PUSH4 0x34976B9B EQ PUSH3 0x127 JUMPI DUP1 PUSH4 0x3E5690F4 EQ PUSH3 0x157 JUMPI DUP1 PUSH4 0x4051DDAC EQ PUSH3 0x19B JUMPI JUMPDEST PUSH1 0x0 DUP1 REVERT JUMPDEST PUSH3 0x125 PUSH3 0x497 JUMP JUMPDEST STOP JUMPDEST CALLVALUE DUP1 ISZERO PUSH3 0x134 JUMPI PUSH1 0x0 DUP1 REVERT JUMPDEST POP PUSH3 0x13F PUSH3 0x5E6 JUMP JUMPDEST PUSH1 0x40 MLOAD PUSH3 0x14E SWAP2 SWAP1 PUSH3 0x1F4F JUMP JUMPDEST PUSH1 0x40 MLOAD DUP1 SWAP2 SUB SWAP1 RETURN JUMPDEST CALLVALUE DUP1 ISZERO PUSH3 0x164 JUMPI PUSH1 0x0 DUP1 REVERT JUMPDEST POP PUSH3 0x183 PUSH1 0x4 DUP1 CALLDATASIZE SUB DUP2 ADD SWAP1 PUSH3 0x17D SWAP2 SWAP1 PUSH3 0x1FE5 JUMP JUMPDEST PUSH3 0x5F9 JUMP JUMPDEST PUSH1 0x40 MLOAD PUSH3 0x192 SWAP2 SWAP1 PUSH3 0x1F4F JUMP JUMPDEST PUSH1 0x40 MLOAD DUP1 SWAP2 SUB SWAP1 RETURN JUMPDEST CALLVALUE DUP1 ISZERO PUSH3 0x1A8 JUMPI PUSH1 0x0 DUP1 REVERT JUMPDEST POP PUSH3 0x1B3 PUSH3 0x619 JUMP JUMPDEST PUSH1 0x40 MLOAD PUSH3 0x1CA SWAP10 SWAP9 SWAP8 SWAP7 SWAP6 SWAP5 SWAP4 SWAP3 SWAP2 SWAP1 PUSH3 0x21B5 JUMP JUMPDEST PUSH1 0x40 MLOAD DUP1 SWAP2 SUB SWAP1 RETURN JUMPDEST PUSH3 0x1F1 PUSH1 0x4 DUP1 CALLDATASIZE SUB DUP2 ADD SWAP1 PUSH3 0x1EB SWAP2 SWAP1 PUSH3 0x22A8 JUMP JUMPDEST PUSH3 0x95D JUMP JUMPDEST STOP JUMPDEST CALLVALUE DUP1 ISZERO PUSH3 0x200 JUMPI PUSH1 0x0 DUP1 REVERT JUMPDEST POP PUSH3 0x20B PUSH3 0xF01 JUMP JUMPDEST PUSH1 0x40 MLOAD PUSH3 0x21A SWAP2 SWAP1 PUSH3 0x22DA JUMP JUMPDEST PUSH1 0x40 MLOAD DUP1 SWAP2 SUB SWAP1 RETURN JUMPDEST CALLVALUE DUP1 ISZERO PUSH3 0x230 JUMPI PUSH1 0x0 DUP1 REVERT JUMPDEST POP PUSH3 0x24F PUSH1 0x4 DUP1 CALLDATASIZE SUB DUP2 ADD SWAP1 PUSH3 0x249 SWAP2 SWAP1 PUSH3 0x22A8 JUMP JUMPDEST PUSH3 0xF97 JUMP JUMPDEST PUSH1 0x40 MLOAD PUSH3 0x261 SWAP5 SWAP4 SWAP3 SWAP2 SWAP1 PUSH3 0x22FE JUMP JUMPDEST PUSH1 0x40 MLOAD DUP1 SWAP2 SUB SWAP1 RETURN JUMPDEST CALLVALUE DUP1 ISZERO PUSH3 0x277 JUMPI PUSH1 0x0 DUP1 REVERT JUMPDEST POP PUSH3 0x296 PUSH1 0x4 DUP1 CALLDATASIZE SUB DUP2 ADD SWAP1 PUSH3 0x290 SWAP2 SWAP1 PUSH3 0x22A8 JUMP JUMPDEST PUSH3 0x1005 JUMP JUMPDEST PUSH1 0x40 MLOAD PUSH3 0x2A8 SWAP5 SWAP4 SWAP3 SWAP2 SWAP1 PUSH3 0x234B JUMP JUMPDEST PUSH1 0x40 MLOAD DUP1 SWAP2 SUB SWAP1 RETURN JUMPDEST CALLVALUE DUP1 ISZERO PUSH3 0x2BE JUMPI PUSH1 0x0 DUP1 REVERT JUMPDEST POP PUSH3 0x2DD PUSH1 0x4 DUP1 CALLDATASIZE SUB DUP2 ADD SWAP1 PUSH3 0x2D7 SWAP2 SWAP1 PUSH3 0x1FE5 JUMP JUMPDEST PUSH3 0x1103 JUMP JUMPDEST PUSH1 0x40 MLOAD PUSH3 0x2EC SWAP2 SWAP1 PUSH3 0x1F4F JUMP JUMPDEST PUSH1 0x40 MLOAD DUP1 SWAP2 SUB SWAP1 RETURN JUMPDEST CALLVALUE DUP1 ISZERO PUSH3 0x302 JUMPI PUSH1 0x0 DUP1 REVERT JUMPDEST POP PUSH3 0x30D PUSH3 0x1123 JUMP JUMPDEST PUSH1 0x40 MLOAD PUSH3 0x31C SWAP2 SWAP1 PUSH3 0x239F JUMP JUMPDEST PUSH1 0x40 MLOAD DUP1 SWAP2 SUB SWAP1 RETURN JUMPDEST CALLVALUE DUP1 ISZERO PUSH3 0x332 JUMPI PUSH1 0x0 DUP1 REVERT JUMPDEST POP PUSH3 0x351 PUSH1 0x4 DUP1 CALLDATASIZE SUB DUP2 ADD SWAP1 PUSH3 0x34B SWAP2 SWAP1 PUSH3 0x22A8 JUMP JUMPDEST PUSH3 0x1149 JUMP JUMPDEST STOP JUMPDEST CALLVALUE DUP1 ISZERO PUSH3 0x360 JUMPI PUSH1 0x0 DUP1 REVERT JUMPDEST POP PUSH3 0x37F PUSH1 0x4 DUP1 CALLDATASIZE SUB DUP2 ADD SWAP1 PUSH3 0x379 SWAP2 SWAP1 PUSH3 0x250D JUMP JUMPDEST PUSH3 0x157E JUMP JUMPDEST STOP JUMPDEST CALLVALUE DUP1 ISZERO PUSH3 0x38E JUMPI PUSH1 0x0 DUP1 REVERT JUMPDEST POP PUSH3 0x3AD PUSH1 0x4 DUP1 CALLDATASIZE SUB DUP2 ADD SWAP1 PUSH3 0x3A7 SWAP2 SWAP1 PUSH3 0x22A8 JUMP JUMPDEST PUSH3 0x1AD6 JUMP JUMPDEST PUSH1 0x40 MLOAD PUSH3 0x3BC SWAP2 SWAP1 PUSH3 0x239F JUMP JUMPDEST PUSH1 0x40 MLOAD DUP1 SWAP2 SUB SWAP1 RETURN JUMPDEST CALLVALUE DUP1 ISZERO PUSH3 0x3D2 JUMPI PUSH1 0x0 DUP1 REVERT JUMPDEST POP PUSH3 0x3F1 PUSH1 0x4 DUP1 CALLDATASIZE SUB DUP2 ADD SWAP1 PUSH3 0x3EB SWAP2 SWAP1 PUSH3 0x22A8 JUMP JUMPDEST PUSH3 0x1B16 JUMP JUMPDEST PUSH1 0x40 MLOAD PUSH3 0x400 SWAP2 SWAP1 PUSH3 0x239F JUMP JUMPDEST PUSH1 0x40 MLOAD DUP1 SWAP2 SUB SWAP1 RETURN JUMPDEST CALLVALUE DUP1 ISZERO PUSH3 0x416 JUMPI PUSH1 0x0 DUP1 REVERT JUMPDEST POP PUSH3 0x421 PUSH3 0x1B56 JUMP JUMPDEST PUSH1 0x40 MLOAD PUSH3 0x430 SWAP2 SWAP1 PUSH3 0x22DA JUMP JUMPDEST PUSH1 0x40 MLOAD DUP1 SWAP2 SUB SWAP1 RETURN JUMPDEST CALLVALUE DUP1 ISZERO PUSH3 0x446 JUMPI PUSH1 0x0 DUP1 REVERT JUMPDEST POP PUSH3 0x465 PUSH1 0x4 DUP1 CALLDATASIZE SUB DUP2 ADD SWAP1 PUSH3 0x45F SWAP2 SWAP1 PUSH3 0x25BD JUMP JUMPDEST PUSH3 0x1BEC JUMP JUMPDEST STOP JUMPDEST CALLVALUE DUP1 ISZERO PUSH3 0x474 JUMPI PUSH1 0x0 DUP1 REVERT JUMPDEST POP PUSH3 0x47F PUSH3 0x1DDE JUMP JUMPDEST PUSH1 0x40 MLOAD PUSH3 0x48E SWAP2 SWAP1 PUSH3 0x22DA JUMP JUMPDEST PUSH1 0x40 MLOAD DUP1 SWAP2 SUB SWAP1 RETURN JUMPDEST PUSH1 0x3 PUSH1 0x0 SWAP1 SLOAD SWAP1 PUSH2 0x100 EXP SWAP1 DIV PUSH1 0xFF AND ISZERO PUSH3 0x4EA JUMPI PUSH1 0x40 MLOAD PUSH32 0x8C379A000000000000000000000000000000000000000000000000000000000 DUP2 MSTORE PUSH1 0x4 ADD PUSH3 0x4E1 SWAP1 PUSH3 0x265E JUMP JUMPDEST PUSH1 0x40 MLOAD DUP1 SWAP2 SUB SWAP1 REVERT JUMPDEST PUSH1 0x1 PUSH1 0x3 PUSH1 0x0 PUSH2 0x100 EXP DUP2 SLOAD DUP2 PUSH1 0xFF MUL NOT AND SWAP1 DUP4 ISZERO ISZERO MUL OR SWAP1 SSTORE POP PUSH1 0xA PUSH1 0x14 SWAP1 SLOAD SWAP1 PUSH2 0x100 EXP SWAP1 DIV PUSH1 0xFF AND ISZERO PUSH3 0x558 JUMPI PUSH1 0x40 MLOAD PUSH32 0x8C379A000000000000000000000000000000000000000000000000000000000 DUP2 MSTORE PUSH1 0x4 ADD PUSH3 0x54F SWAP1 PUSH3 0x26D0 JUMP JUMPDEST PUSH1 0x40 MLOAD DUP1 SWAP2 SUB SWAP1 REVERT JUMPDEST PUSH1 0x0 PUSH1 0x9 PUSH1 0x1 DUP2 PUSH1 0x1 DUP2 SLOAD ADD DUP1 DUP3 SSTORE DUP1 SWAP2 POP POP SUB SWAP1 PUSH1 0x0 MSTORE PUSH1 0x20 PUSH1 0x0 KECCAK256 SWAP1 PUSH1 0x5 MUL ADD SWAP1 POP CALLVALUE DUP2 PUSH1 0x0 ADD DUP2 SWAP1 SSTORE POP CALLER DUP2 PUSH1 0x1 ADD PUSH1 0x0 PUSH2 0x100 EXP DUP2 SLOAD DUP2 PUSH20 0xFFFFFFFFFFFFFFFFFFFFFFFFFFFFFFFFFFFFFFFF MUL NOT AND SWAP1 DUP4 PUSH20 0xFFFFFFFFFFFFFFFFFFFFFFFFFFFFFFFFFFFFFFFF AND MUL OR SWAP1 SSTORE POP POP PUSH1 0x0 PUSH1 0x3 PUSH1 0x0 PUSH2 0x100 EXP DUP2 SLOAD DUP2 PUSH1 0xFF MUL NOT AND SWAP1 DUP4 ISZERO ISZERO MUL OR SWAP1 SSTORE POP JUMP JUMPDEST PUSH1 0xA PUSH1 0x14 SWAP1 SLOAD SWAP1 PUSH2 0x100 EXP SWAP1 DIV PUSH1 0xFF AND DUP2 JUMP JUMPDEST PUSH1 0x4 PUSH1 0x20 MSTORE DUP1 PUSH1 0x0 MSTORE PUSH1 0x40 PUSH1 0x0 KECCAK256 PUSH1 0x0 SWAP2 POP SLOAD SWAP1 PUSH2 0x100 EXP SWAP1 DIV PUSH1 0xFF AND DUP2 JUMP JUMPDEST PUSH1 0x60 DUP1 PUSH1 0x60 DUP1 PUSH1 0x0 PUSH1 0x60 PUSH1 0x0 DUP1 PUSH1 0x0 DUP1 PUSH1 0x1 PUSH1 0x5 PUSH1 0x7 PUSH1 0x8 DUP1 SLOAD SWAP1 POP PUSH1 0x2 PUSH1 0x9 DUP1 SLOAD SWAP1 POP PUSH1 0xA PUSH1 0x14 SWAP1 SLOAD SWAP1 PUSH2 0x100 EXP SWAP1 DIV PUSH1 0xFF AND PUSH1 0xA PUSH1 0x0 SWAP1 SLOAD SWAP1 PUSH2 0x100 EXP SWAP1 DIV PUSH20 0xFFFFFFFFFFFFFFFFFFFFFFFFFFFFFFFFFFFFFFFF AND DUP9 DUP1 SLOAD PUSH3 0x67E SWAP1 PUSH3 0x2721 JUMP JUMPDEST DUP1 PUSH1 0x1F ADD PUSH1 0x20 DUP1 SWAP2 DIV MUL PUSH1 0x20 ADD PUSH1 0x40 MLOAD SWAP1 DUP2 ADD PUSH1 0x40 MSTORE DUP1 SWAP3 SWAP2 SWAP1 DUP2 DUP2 MSTORE PUSH1 0x20 ADD DUP3 DUP1 SLOAD PUSH3 0x6AC SWAP1 PUSH3 0x2721 JUMP JUMPDEST DUP1 ISZERO PUSH3 0x6FD JUMPI DUP1 PUSH1 0x1F LT PUSH3 0x6D1 JUMPI PUSH2 0x100 DUP1 DUP4 SLOAD DIV MUL DUP4 MSTORE SWAP2 PUSH1 0x20 ADD SWAP2 PUSH3 0x6FD JUMP JUMPDEST DUP3 ADD SWAP2 SWAP1 PUSH1 0x0 MSTORE PUSH1 0x20 PUSH1 0x0 KECCAK256 SWAP1 JUMPDEST DUP2 SLOAD DUP2 MSTORE SWAP1 PUSH1 0x1 ADD SWAP1 PUSH1 0x20 ADD DUP1 DUP4 GT PUSH3 0x6DF JUMPI DUP3 SWAP1 SUB PUSH1 0x1F AND DUP3 ADD SWAP2 JUMPDEST POP POP POP POP POP SWAP9 POP DUP8 DUP1 SLOAD PUSH3 0x712 SWAP1 PUSH3 0x2721 JUMP JUMPDEST DUP1 PUSH1 0x1F ADD PUSH1 0x20 DUP1 SWAP2 DIV MUL PUSH1 0x20 ADD PUSH1 0x40 MLOAD SWAP1 DUP2 ADD PUSH1 0x40 MSTORE DUP1 SWAP3 SWAP2 SWAP1 DUP2 DUP2 MSTORE PUSH1 0x20 ADD DUP3 DUP1 SLOAD PUSH3 0x740 SWAP1 PUSH3 0x2721 JUMP JUMPDEST DUP1 ISZERO PUSH3 0x791 JUMPI DUP1 PUSH1 0x1F LT PUSH3 0x765 JUMPI PUSH2 0x100 DUP1 DUP4 SLOAD DIV MUL DUP4 MSTORE SWAP2 PUSH1 0x20 ADD SWAP2 PUSH3 0x791 JUMP JUMPDEST DUP3 ADD SWAP2 SWAP1 PUSH1 0x0 MSTORE PUSH1 0x20 PUSH1 0x0 KECCAK256 SWAP1 JUMPDEST DUP2 SLOAD DUP2 MSTORE SWAP1 PUSH1 0x1 ADD SWAP1 PUSH1 0x20 ADD DUP1 DUP4 GT PUSH3 0x773 JUMPI DUP3 SWAP1 SUB PUSH1 0x1F AND DUP3 ADD SWAP2 JUMPDEST POP POP POP POP POP SWAP8 POP DUP7 DUP1 SLOAD DUP1 PUSH1 0x20 MUL PUSH1 0x20 ADD PUSH1 0x40 MLOAD SWAP1 DUP2 ADD PUSH1 0x40 MSTORE DUP1 SWAP3 SWAP2 SWAP1 DUP2 DUP2 MSTORE PUSH1 0x20 ADD DUP3 DUP1 SLOAD DUP1 ISZERO PUSH3 0x81B JUMPI PUSH1 0x20 MUL DUP3 ADD SWAP2 SWAP1 PUSH1 0x0 MSTORE PUSH1 0x20 PUSH1 0x0 KECCAK256 SWAP1 JUMPDEST DUP2 PUSH1 0x0 SWAP1 SLOAD SWAP1 PUSH2 0x100 EXP SWAP1 DIV PUSH20 0xFFFFFFFFFFFFFFFFFFFFFFFFFFFFFFFFFFFFFFFF AND PUSH20 0xFFFFFFFFFFFFFFFFFFFFFFFFFFFFFFFFFFFFFFFF AND DUP2 MSTORE PUSH1 0x20 ADD SWAP1 PUSH1 0x1 ADD SWAP1 DUP1 DUP4 GT PUSH3 0x7D0 JUMPI JUMPDEST POP POP POP POP POP SWAP7 POP DUP6 DUP1 SLOAD DUP1 PUSH1 0x20 MUL PUSH1 0x20 ADD PUSH1 0x40 MLOAD SWAP1 DUP2 ADD PUSH1 0x40 MSTORE DUP1 SWAP3 SWAP2 SWAP1 DUP2 DUP2 MSTORE PUSH1 0x20 ADD DUP3 DUP1 SLOAD DUP1 ISZERO PUSH3 0x8A5 JUMPI PUSH1 0x20 MUL DUP3 ADD SWAP2 SWAP1 PUSH1 0x0 MSTORE PUSH1 0x20 PUSH1 0x0 KECCAK256 SWAP1 JUMPDEST DUP2 PUSH1 0x0 SWAP1 SLOAD SWAP1 PUSH2 0x100 EXP SWAP1 DIV PUSH20 0xFFFFFFFFFFFFFFFFFFFFFFFFFFFFFFFFFFFFFFFF AND PUSH20 0xFFFFFFFFFFFFFFFFFFFFFFFFFFFFFFFFFFFFFFFF AND DUP2 MSTORE PUSH1 0x20 ADD SWAP1 PUSH1 0x1 ADD SWAP1 DUP1 DUP4 GT PUSH3 0x85A JUMPI JUMPDEST POP POP POP POP POP SWAP6 POP DUP4 DUP1 SLOAD PUSH3 0x8BA SWAP1 PUSH3 0x2721 JUMP JUMPDEST DUP1 PUSH1 0x1F ADD PUSH1 0x20 DUP1 SWAP2 DIV MUL PUSH1 0x20 ADD PUSH1 0x40 MLOAD SWAP1 DUP2 ADD PUSH1 0x40 MSTORE DUP1 SWAP3 SWAP2 SWAP1 DUP2 DUP2 MSTORE PUSH1 0x20 ADD DUP3 DUP1 SLOAD PUSH3 0x8E8 SWAP1 PUSH3 0x2721 JUMP JUMPDEST DUP1 ISZERO PUSH3 0x939 JUMPI DUP1 PUSH1 0x1F LT PUSH3 0x90D JUMPI PUSH2 0x100 DUP1 DUP4 SLOAD DIV MUL DUP4 MSTORE SWAP2 PUSH1 0x20 ADD SWAP2 PUSH3 0x939 JUMP JUMPDEST DUP3 ADD SWAP2 SWAP1 PUSH1 0x0 MSTORE PUSH1 0x20 PUSH1 0x0 KECCAK256 SWAP1 JUMPDEST DUP2 SLOAD DUP2 MSTORE SWAP1 PUSH1 0x1 ADD SWAP1 PUSH1 0x20 ADD DUP1 DUP4 GT PUSH3 0x91B JUMPI DUP3 SWAP1 SUB PUSH1 0x1F AND DUP3 ADD SWAP2 JUMPDEST POP POP POP POP POP SWAP4 POP SWAP9 POP SWAP9 POP SWAP9 POP SWAP9 POP SWAP9 POP SWAP9 POP SWAP9 POP SWAP9 POP SWAP9 POP SWAP1 SWAP2 SWAP3 SWAP4 SWAP5 SWAP6 SWAP7 SWAP8 SWAP9 JUMP JUMPDEST PUSH1 0x3 PUSH1 0x0 SWAP1 SLOAD SWAP1 PUSH2 0x100 EXP SWAP1 DIV PUSH1 0xFF AND ISZERO PUSH3 0x9B0 JUMPI PUSH1 0x40 MLOAD PUSH32 0x8C379A000000000000000000000000000000000000000000000000000000000 DUP2 MSTORE PUSH1 0x4 ADD PUSH3 0x9A7 SWAP1 PUSH3 0x265E JUMP JUMPDEST PUSH1 0x40 MLOAD DUP1 SWAP2 SUB SWAP1 REVERT JUMPDEST PUSH1 0x1 PUSH1 0x3 PUSH1 0x0 PUSH2 0x100 EXP DUP2 SLOAD DUP2 PUSH1 0xFF MUL NOT AND SWAP1 DUP4 ISZERO ISZERO MUL OR SWAP1 SSTORE POP PUSH1 0xA PUSH1 0x14 SWAP1 SLOAD SWAP1 PUSH2 0x100 EXP SWAP1 DIV PUSH1 0xFF AND ISZERO PUSH3 0xA1E JUMPI PUSH1 0x40 MLOAD PUSH32 0x8C379A000000000000000000000000000000000000000000000000000000000 DUP2 MSTORE PUSH1 0x4 ADD PUSH3 0xA15 SWAP1 PUSH3 0x26D0 JUMP JUMPDEST PUSH1 0x40 MLOAD DUP1 SWAP2 SUB SWAP1 REVERT JUMPDEST PUSH1 0x4 PUSH1 0x0 CALLER PUSH20 0xFFFFFFFFFFFFFFFFFFFFFFFFFFFFFFFFFFFFFFFF AND PUSH20 0xFFFFFFFFFFFFFFFFFFFFFFFFFFFFFFFFFFFFFFFF AND DUP2 MSTORE PUSH1 0x20 ADD SWAP1 DUP2 MSTORE PUSH1 0x20 ADD PUSH1 0x0 KECCAK256 PUSH1 0x0 SWAP1 SLOAD SWAP1 PUSH2 0x100 EXP SWAP1 DIV PUSH1 0xFF AND PUSH3 0xAAD JUMPI PUSH1 0x40 MLOAD PUSH32 0x8C379A000000000000000000000000000000000000000000000000000000000 DUP2 MSTORE PUSH1 0x4 ADD PUSH3 0xAA4 SWAP1 PUSH3 0x27CD JUMP JUMPDEST PUSH1 0x40 MLOAD DUP1 SWAP2 SUB SWAP1 REVERT JUMPDEST PUSH1 0x0 PUSH1 0x9 DUP3 DUP2 SLOAD DUP2 LT PUSH3 0xAC6 JUMPI PUSH3 0xAC5 PUSH3 0x27EF JUMP JUMPDEST JUMPDEST SWAP1 PUSH1 0x0 MSTORE PUSH1 0x20 PUSH1 0x0 KECCAK256 SWAP1 PUSH1 0x5 MUL ADD SWAP1 POP DUP1 PUSH1 0x2 ADD PUSH1 0x0 CALLER PUSH20 0xFFFFFFFFFFFFFFFFFFFFFFFFFFFFFFFFFFFFFFFF AND PUSH20 0xFFFFFFFFFFFFFFFFFFFFFFFFFFFFFFFFFFFFFFFF AND DUP2 MSTORE PUSH1 0x20 ADD SWAP1 DUP2 MSTORE PUSH1 0x20 ADD PUSH1 0x0 KECCAK256 PUSH1 0x0 SWAP1 SLOAD SWAP1 PUSH2 0x100 EXP SWAP1 DIV PUSH1 0xFF AND ISZERO PUSH3 0xB68 JUMPI PUSH1 0x40 MLOAD PUSH32 0x8C379A000000000000000000000000000000000000000000000000000000000 DUP2 MSTORE PUSH1 0x4 ADD PUSH3 0xB5F SWAP1 PUSH3 0x2894 JUMP JUMPDEST PUSH1 0x40 MLOAD DUP1 SWAP2 SUB SWAP1 REVERT JUMPDEST DUP1 PUSH1 0x4 ADD PUSH1 0x0 SWAP1 SLOAD SWAP1 PUSH2 0x100 EXP SWAP1 DIV PUSH1 0xFF AND ISZERO PUSH3 0xBBD JUMPI PUSH1 0x40 MLOAD PUSH32 0x8C379A000000000000000000000000000000000000000000000000000000000 DUP2 MSTORE PUSH1 0x4 ADD PUSH3 0xBB4 SWAP1 PUSH3 0x292C JUMP JUMPDEST PUSH1 0x40 MLOAD DUP1 SWAP2 SUB SWAP1 REVERT JUMPDEST PUSH1 0x1 DUP2 PUSH1 0x2 ADD PUSH1 0x0 CALLER PUSH20 0xFFFFFFFFFFFFFFFFFFFFFFFFFFFFFFFFFFFFFFFF AND PUSH20 0xFFFFFFFFFFFFFFFFFFFFFFFFFFFFFFFFFFFFFFFF AND DUP2 MSTORE PUSH1 0x20 ADD SWAP1 DUP2 MSTORE PUSH1 0x20 ADD PUSH1 0x0 KECCAK256 PUSH1 0x0 PUSH2 0x100 EXP DUP2 SLOAD DUP2 PUSH1 0xFF MUL NOT AND SWAP1 DUP4 ISZERO ISZERO MUL OR SWAP1 SSTORE POP PUSH1 0x1 DUP2 PUSH1 0x3 ADD SLOAD PUSH3 0xC2A SWAP2 SWAP1 PUSH3 0x297D JUMP JUMPDEST DUP2 PUSH1 0x3 ADD DUP2 SWAP1 SSTORE POP PUSH1 0x2 PUSH1 0x5 DUP1 SLOAD SWAP1 POP PUSH3 0xC46 SWAP2 SWAP1 PUSH3 0x2A09 JUMP JUMPDEST DUP2 PUSH1 0x3 ADD SLOAD GT ISZERO PUSH3 0xEE2 JUMPI PUSH1 0x1 DUP2 PUSH1 0x4 ADD PUSH1 0x0 PUSH2 0x100 EXP DUP2 SLOAD DUP2 PUSH1 0xFF MUL NOT AND SWAP1 DUP4 ISZERO ISZERO MUL OR SWAP1 SSTORE POP DUP1 PUSH1 0x1 ADD PUSH1 0x0 SWAP1 SLOAD SWAP1 PUSH2 0x100 EXP SWAP1 DIV PUSH20 0xFFFFFFFFFFFFFFFFFFFFFFFFFFFFFFFFFFFFFFFF AND PUSH1 0xA PUSH1 0x0 PUSH2 0x100 EXP DUP2 SLOAD DUP2 PUSH20 0xFFFFFFFFFFFFFFFFFFFFFFFFFFFFFFFFFFFFFFFF MUL NOT AND SWAP1 DUP4 PUSH20 0xFFFFFFFFFFFFFFFFFFFFFFFFFFFFFFFFFFFFFFFF AND MUL OR SWAP1 SSTORE POP PUSH1 0x1 PUSH1 0xA PUSH1 0x14 PUSH2 0x100 EXP DUP2 SLOAD DUP2 PUSH1 0xFF MUL NOT AND SWAP1 DUP4 ISZERO ISZERO MUL OR SWAP1 SSTORE POP PUSH1 0x0 PUSH1 0x5 DUP1 SLOAD SWAP1 POP DUP3 PUSH1 0x0 ADD SLOAD PUSH3 0xD08 SWAP2 SWAP1 PUSH3 0x2A09 JUMP JUMPDEST SWAP1 POP PUSH1 0x0 JUMPDEST PUSH1 0x5 DUP1 SLOAD SWAP1 POP DUP2 LT ISZERO PUSH3 0xDBA JUMPI PUSH1 0x5 DUP2 DUP2 SLOAD DUP2 LT PUSH3 0xD32 JUMPI PUSH3 0xD31 PUSH3 0x27EF JUMP JUMPDEST JUMPDEST SWAP1 PUSH1 0x0 MSTORE PUSH1 0x20 PUSH1 0x0 KECCAK256 ADD PUSH1 0x0 SWAP1 SLOAD SWAP1 PUSH2 0x100 EXP SWAP1 DIV PUSH20 0xFFFFFFFFFFFFFFFFFFFFFFFFFFFFFFFFFFFFFFFF AND PUSH20 0xFFFFFFFFFFFFFFFFFFFFFFFFFFFFFFFFFFFFFFFF AND PUSH2 0x8FC DUP4 SWAP1 DUP2 ISZERO MUL SWAP1 PUSH1 0x40 MLOAD PUSH1 0x0 PUSH1 0x40 MLOAD DUP1 DUP4 SUB DUP2 DUP6 DUP9 DUP9 CALL SWAP4 POP POP POP POP ISZERO DUP1 ISZERO PUSH3 0xDA3 JUMPI RETURNDATASIZE PUSH1 0x0 DUP1 RETURNDATACOPY RETURNDATASIZE PUSH1 0x0 REVERT JUMPDEST POP DUP1 DUP1 PUSH3 0xDB1 SWAP1 PUSH3 0x2A41 JUMP JUMPDEST SWAP2 POP POP PUSH3 0xD0D JUMP JUMPDEST PUSH1 0x0 SWAP1 POP JUMPDEST PUSH1 0x9 DUP1 SLOAD SWAP1 POP DUP2 LT ISZERO PUSH3 0xEDF JUMPI PUSH1 0x0 ISZERO ISZERO PUSH1 0x9 DUP3 DUP2 SLOAD DUP2 LT PUSH3 0xDE8 JUMPI PUSH3 0xDE7 PUSH3 0x27EF JUMP JUMPDEST JUMPDEST SWAP1 PUSH1 0x0 MSTORE PUSH1 0x20 PUSH1 0x0 KECCAK256 SWAP1 PUSH1 0x5 MUL ADD PUSH1 0x4 ADD PUSH1 0x0 SWAP1 SLOAD SWAP1 PUSH2 0x100 EXP SWAP1 DIV PUSH1 0xFF AND ISZERO ISZERO EQ ISZERO PUSH3 0xEC9 JUMPI PUSH1 0x9 DUP2 DUP2 SLOAD DUP2 LT PUSH3 0xE27 JUMPI PUSH3 0xE26 PUSH3 0x27EF JUMP JUMPDEST JUMPDEST SWAP1 PUSH1 0x0 MSTORE PUSH1 0x20 PUSH1 0x0 KECCAK256 SWAP1 PUSH1 0x5 MUL ADD PUSH1 0x1 ADD PUSH1 0x0 SWAP1 SLOAD SWAP1 PUSH2 0x100 EXP SWAP1 DIV PUSH20 0xFFFFFFFFFFFFFFFFFFFFFFFFFFFFFFFFFFFFFFFF AND PUSH20 0xFFFFFFFFFFFFFFFFFFFFFFFFFFFFFFFFFFFFFFFF AND PUSH2 0x8FC PUSH1 0x9 DUP4 DUP2 SLOAD DUP2 LT PUSH3 0xE89 JUMPI PUSH3 0xE88 PUSH3 0x27EF JUMP JUMPDEST JUMPDEST SWAP1 PUSH1 0x0 MSTORE PUSH1 0x20 PUSH1 0x0 KECCAK256 SWAP1 PUSH1 0x5 MUL ADD PUSH1 0x0 ADD SLOAD SWAP1 DUP2 ISZERO MUL SWAP1 PUSH1 0x40 MLOAD PUSH1 0x0 PUSH1 0x40 MLOAD DUP1 DUP4 SUB DUP2 DUP6 DUP9 DUP9 CALL SWAP4 POP POP POP POP ISZERO DUP1 ISZERO PUSH3 0xEC7 JUMPI RETURNDATASIZE PUSH1 0x0 DUP1 RETURNDATACOPY RETURNDATASIZE PUSH1 0x0 REVERT JUMPDEST POP JUMPDEST DUP1 DUP1 PUSH3 0xED6 SWAP1 PUSH3 0x2A41 JUMP JUMPDEST SWAP2 POP POP PUSH3 0xDBF JUMP JUMPDEST POP POP JUMPDEST POP PUSH1 0x0 PUSH1 0x3 PUSH1 0x0 PUSH2 0x100 EXP DUP2 SLOAD DUP2 PUSH1 0xFF MUL NOT AND SWAP1 DUP4 ISZERO ISZERO MUL OR SWAP1 SSTORE POP POP JUMP JUMPDEST PUSH1 0x0 DUP1 SLOAD PUSH3 0xF10 SWAP1 PUSH3 0x2721 JUMP JUMPDEST DUP1 PUSH1 0x1F ADD PUSH1 0x20 DUP1 SWAP2 DIV MUL PUSH1 0x20 ADD PUSH1 0x40 MLOAD SWAP1 DUP2 ADD PUSH1 0x40 MSTORE DUP1 SWAP3 SWAP2 SWAP1 DUP2 DUP2 MSTORE PUSH1 0x20 ADD DUP3 DUP1 SLOAD PUSH3 0xF3E SWAP1 PUSH3 0x2721 JUMP JUMPDEST DUP1 ISZERO PUSH3 0xF8F JUMPI DUP1 PUSH1 0x1F LT PUSH3 0xF63 JUMPI PUSH2 0x100 DUP1 DUP4 SLOAD DIV MUL DUP4 MSTORE SWAP2 PUSH1 0x20 ADD SWAP2 PUSH3 0xF8F JUMP JUMPDEST DUP3 ADD SWAP2 SWAP1 PUSH1 0x0 MSTORE PUSH1 0x20 PUSH1 0x0 KECCAK256 SWAP1 JUMPDEST DUP2 SLOAD DUP2 MSTORE SWAP1 PUSH1 0x1 ADD SWAP1 PUSH1 0x20 ADD DUP1 DUP4 GT PUSH3 0xF71 JUMPI DUP3 SWAP1 SUB PUSH1 0x1F AND DUP3 ADD SWAP2 JUMPDEST POP POP POP POP POP DUP2 JUMP JUMPDEST PUSH1 0x9 DUP2 DUP2 SLOAD DUP2 LT PUSH3 0xFA8 JUMPI PUSH1 0x0 DUP1 REVERT JUMPDEST SWAP1 PUSH1 0x0 MSTORE PUSH1 0x20 PUSH1 0x0 KECCAK256 SWAP1 PUSH1 0x5 MUL ADD PUSH1 0x0 SWAP2 POP SWAP1 POP DUP1 PUSH1 0x0 ADD SLOAD SWAP1 DUP1 PUSH1 0x1 ADD PUSH1 0x0 SWAP1 SLOAD SWAP1 PUSH2 0x100 EXP SWAP1 DIV PUSH20 0xFFFFFFFFFFFFFFFFFFFFFFFFFFFFFFFFFFFFFFFF AND SWAP1 DUP1 PUSH1 0x3 ADD SLOAD SWAP1 DUP1 PUSH1 0x4 ADD PUSH1 0x0 SWAP1 SLOAD SWAP1 PUSH2 0x100 EXP SWAP1 DIV PUSH1 0xFF AND SWAP1 POP DUP5 JUMP JUMPDEST PUSH1 0x8 DUP2 DUP2 SLOAD DUP2 LT PUSH3 0x1016 JUMPI PUSH1 0x0 DUP1 REVERT JUMPDEST SWAP1 PUSH1 0x0 MSTORE PUSH1 0x20 PUSH1 0x0 KECCAK256 SWAP1 PUSH1 0x5 MUL ADD PUSH1 0x0 SWAP2 POP SWAP1 POP DUP1 PUSH1 0x0 ADD DUP1 SLOAD PUSH3 0x103B SWAP1 PUSH3 0x2721 JUMP JUMPDEST DUP1 PUSH1 0x1F ADD PUSH1 0x20 DUP1 SWAP2 DIV MUL PUSH1 0x20 ADD PUSH1 0x40 MLOAD SWAP1 DUP2 ADD PUSH1 0x40 MSTORE DUP1 SWAP3 SWAP2 SWAP1 DUP2 DUP2 MSTORE PUSH1 0x20 ADD DUP3 DUP1 SLOAD PUSH3 0x1069 SWAP1 PUSH3 0x2721 JUMP JUMPDEST DUP1 ISZERO PUSH3 0x10BA JUMPI DUP1 PUSH1 0x1F LT PUSH3 0x108E JUMPI PUSH2 0x100 DUP1 DUP4 SLOAD DIV MUL DUP4 MSTORE SWAP2 PUSH1 0x20 ADD SWAP2 PUSH3 0x10BA JUMP JUMPDEST DUP3 ADD SWAP2 SWAP1 PUSH1 0x0 MSTORE PUSH1 0x20 PUSH1 0x0 KECCAK256 SWAP1 JUMPDEST DUP2 SLOAD DUP2 MSTORE SWAP1 PUSH1 0x1 ADD SWAP1 PUSH1 0x20 ADD DUP1 DUP4 GT PUSH3 0x109C JUMPI DUP3 SWAP1 SUB PUSH1 0x1F AND DUP3 ADD SWAP2 JUMPDEST POP POP POP POP POP SWAP1 DUP1 PUSH1 0x1 ADD PUSH1 0x0 SWAP1 SLOAD SWAP1 PUSH2 0x100 EXP SWAP1 DIV PUSH20 0xFFFFFFFFFFFFFFFFFFFFFFFFFFFFFFFFFFFFFFFF AND SWAP1 DUP1 PUSH1 0x3 ADD SLOAD SWAP1 DUP1 PUSH1 0x4 ADD PUSH1 0x0 SWAP1 SLOAD SWAP1 PUSH2 0x100 EXP SWAP1 DIV PUSH1 0xFF AND SWAP1 POP DUP5 JUMP JUMPDEST PUSH1 0x6 PUSH1 0x20 MSTORE DUP1 PUSH1 0x0 MSTORE PUSH1 0x40 PUSH1 0x0 KECCAK256 PUSH1 0x0 SWAP2 POP SLOAD SWAP1 PUSH2 0x100 EXP SWAP1 DIV PUSH1 0xFF AND DUP2 JUMP JUMPDEST PUSH1 0xA PUSH1 0x0 SWAP1 SLOAD SWAP1 PUSH2 0x100 EXP SWAP1 DIV PUSH20 0xFFFFFFFFFFFFFFFFFFFFFFFFFFFFFFFFFFFFFFFF AND DUP2 JUMP JUMPDEST PUSH1 0x3 PUSH1 0x0 SWAP1 SLOAD SWAP1 PUSH2 0x100 EXP SWAP1 DIV PUSH1 0xFF AND ISZERO PUSH3 0x119C JUMPI PUSH1 0x40 MLOAD PUSH32 0x8C379A000000000000000000000000000000000000000000000000000000000 DUP2 MSTORE PUSH1 0x4 ADD PUSH3 0x1193 SWAP1 PUSH3 0x265E JUMP JUMPDEST PUSH1 0x40 MLOAD DUP1 SWAP2 SUB SWAP1 REVERT JUMPDEST PUSH1 0x1 PUSH1 0x3 PUSH1 0x0 PUSH2 0x100 EXP DUP2 SLOAD DUP2 PUSH1 0xFF MUL NOT AND SWAP1 DUP4 ISZERO ISZERO MUL OR SWAP1 SSTORE POP PUSH1 0xA PUSH1 0x14 SWAP1 SLOAD SWAP1 PUSH2 0x100 EXP SWAP1 DIV PUSH1 0xFF AND ISZERO PUSH3 0x120A JUMPI PUSH1 0x40 MLOAD PUSH32 0x8C379A000000000000000000000000000000000000000000000000000000000 DUP2 MSTORE PUSH1 0x4 ADD PUSH3 0x1201 SWAP1 PUSH3 0x26D0 JUMP JUMPDEST PUSH1 0x40 MLOAD DUP1 SWAP2 SUB SWAP1 REVERT JUMPDEST PUSH1 0x4 PUSH1 0x0 CALLER PUSH20 0xFFFFFFFFFFFFFFFFFFFFFFFFFFFFFFFFFFFFFFFF AND PUSH20 0xFFFFFFFFFFFFFFFFFFFFFFFFFFFFFFFFFFFFFFFF AND DUP2 MSTORE PUSH1 0x20 ADD SWAP1 DUP2 MSTORE PUSH1 0x20 ADD PUSH1 0x0 KECCAK256 PUSH1 0x0 SWAP1 SLOAD SWAP1 PUSH2 0x100 EXP SWAP1 DIV PUSH1 0xFF AND PUSH3 0x1299 JUMPI PUSH1 0x40 MLOAD PUSH32 0x8C379A000000000000000000000000000000000000000000000000000000000 DUP2 MSTORE PUSH1 0x4 ADD PUSH3 0x1290 SWAP1 PUSH3 0x27CD JUMP JUMPDEST PUSH1 0x40 MLOAD DUP1 SWAP2 SUB SWAP1 REVERT JUMPDEST PUSH1 0x0 PUSH1 0x8 DUP3 DUP2 SLOAD DUP2 LT PUSH3 0x12B2 JUMPI PUSH3 0x12B1 PUSH3 0x27EF JUMP JUMPDEST JUMPDEST SWAP1 PUSH1 0x0 MSTORE PUSH1 0x20 PUSH1 0x0 KECCAK256 SWAP1 PUSH1 0x5 MUL ADD SWAP1 POP DUP1 PUSH1 0x2 ADD PUSH1 0x0 CALLER PUSH20 0xFFFFFFFFFFFFFFFFFFFFFFFFFFFFFFFFFFFFFFFF AND PUSH20 0xFFFFFFFFFFFFFFFFFFFFFFFFFFFFFFFFFFFFFFFF AND DUP2 MSTORE PUSH1 0x20 ADD SWAP1 DUP2 MSTORE PUSH1 0x20 ADD PUSH1 0x0 KECCAK256 PUSH1 0x0 SWAP1 SLOAD SWAP1 PUSH2 0x100 EXP SWAP1 DIV PUSH1 0xFF AND ISZERO PUSH3 0x1354 JUMPI PUSH1 0x40 MLOAD PUSH32 0x8C379A000000000000000000000000000000000000000000000000000000000 DUP2 MSTORE PUSH1 0x4 ADD PUSH3 0x134B SWAP1 PUSH3 0x2894 JUMP JUMPDEST PUSH1 0x40 MLOAD DUP1 SWAP2 SUB SWAP1 REVERT JUMPDEST DUP1 PUSH1 0x4 ADD PUSH1 0x0 SWAP1 SLOAD SWAP1 PUSH2 0x100 EXP SWAP1 DIV PUSH1 0xFF AND ISZERO PUSH3 0x13A9 JUMPI PUSH1 0x40 MLOAD PUSH32 0x8C379A000000000000000000000000000000000000000000000000000000000 DUP2 MSTORE PUSH1 0x4 ADD PUSH3 0x13A0 SWAP1 PUSH3 0x292C JUMP JUMPDEST PUSH1 0x40 MLOAD DUP1 SWAP2 SUB SWAP1 REVERT JUMPDEST PUSH1 0x1 DUP2 PUSH1 0x2 ADD PUSH1 0x0 CALLER PUSH20 0xFFFFFFFFFFFFFFFFFFFFFFFFFFFFFFFFFFFFFFFF AND PUSH20 0xFFFFFFFFFFFFFFFFFFFFFFFFFFFFFFFFFFFFFFFF AND DUP2 MSTORE PUSH1 0x20 ADD SWAP1 DUP2 MSTORE PUSH1 0x20 ADD PUSH1 0x0 KECCAK256 PUSH1 0x0 PUSH2 0x100 EXP DUP2 SLOAD DUP2 PUSH1 0xFF MUL NOT AND SWAP1 DUP4 ISZERO ISZERO MUL OR SWAP1 SSTORE POP PUSH1 0x1 DUP2 PUSH1 0x3 ADD SLOAD PUSH3 0x1416 SWAP2 SWAP1 PUSH3 0x297D JUMP JUMPDEST DUP2 PUSH1 0x3 ADD DUP2 SWAP1 SSTORE POP PUSH1 0x2 PUSH1 0x5 DUP1 SLOAD SWAP1 POP PUSH3 0x1432 SWAP2 SWAP1 PUSH3 0x2A09 JUMP JUMPDEST DUP2 PUSH1 0x3 ADD SLOAD GT ISZERO PUSH3 0x155F JUMPI PUSH1 0x1 PUSH1 0x4 PUSH1 0x0 DUP4 PUSH1 0x1 ADD PUSH1 0x0 SWAP1 SLOAD SWAP1 PUSH2 0x100 EXP SWAP1 DIV PUSH20 0xFFFFFFFFFFFFFFFFFFFFFFFFFFFFFFFFFFFFFFFF AND PUSH20 0xFFFFFFFFFFFFFFFFFFFFFFFFFFFFFFFFFFFFFFFF AND PUSH20 0xFFFFFFFFFFFFFFFFFFFFFFFFFFFFFFFFFFFFFFFF AND DUP2 MSTORE PUSH1 0x20 ADD SWAP1 DUP2 MSTORE PUSH1 0x20 ADD PUSH1 0x0 KECCAK256 PUSH1 0x0 PUSH2 0x100 EXP DUP2 SLOAD DUP2 PUSH1 0xFF MUL NOT AND SWAP1 DUP4 ISZERO ISZERO MUL OR SWAP1 SSTORE POP PUSH1 0x5 DUP2 PUSH1 0x1 ADD PUSH1 0x0 SWAP1 SLOAD SWAP1 PUSH2 0x100 EXP SWAP1 DIV PUSH20 0xFFFFFFFFFFFFFFFFFFFFFFFFFFFFFFFFFFFFFFFF AND SWAP1 DUP1 PUSH1 0x1 DUP2 SLOAD ADD DUP1 DUP3 SSTORE DUP1 SWAP2 POP POP PUSH1 0x1 SWAP1 SUB SWAP1 PUSH1 0x0 MSTORE PUSH1 0x20 PUSH1 0x0 KECCAK256 ADD PUSH1 0x0 SWAP1 SWAP2 SWAP1 SWAP2 SWAP1 SWAP2 PUSH2 0x100 EXP DUP2 SLOAD DUP2 PUSH20 0xFFFFFFFFFFFFFFFFFFFFFFFFFFFFFFFFFFFFFFFF MUL NOT AND SWAP1 DUP4 PUSH20 0xFFFFFFFFFFFFFFFFFFFFFFFFFFFFFFFFFFFFFFFF AND MUL OR SWAP1 SSTORE POP PUSH1 0x1 DUP2 PUSH1 0x4 ADD PUSH1 0x0 PUSH2 0x100 EXP DUP2 SLOAD DUP2 PUSH1 0xFF MUL NOT AND SWAP1 DUP4 ISZERO ISZERO MUL OR SWAP1 SSTORE POP JUMPDEST POP PUSH1 0x0 PUSH1 0x3 PUSH1 0x0 PUSH2 0x100 EXP DUP2 SLOAD DUP2 PUSH1 0xFF MUL NOT AND SWAP1 DUP4 ISZERO ISZERO MUL OR SWAP1 SSTORE POP POP JUMP JUMPDEST PUSH1 0x3 PUSH1 0x0 SWAP1 SLOAD SWAP1 PUSH2 0x100 EXP SWAP1 DIV PUSH1 0xFF AND ISZERO PUSH3 0x15D1 JUMPI PUSH1 0x40 MLOAD PUSH32 0x8C379A000000000000000000000000000000000000000000000000000000000 DUP2 MSTORE PUSH1 0x4 ADD PUSH3 0x15C8 SWAP1 PUSH3 0x265E JUMP JUMPDEST PUSH1 0x40 MLOAD DUP1 SWAP2 SUB SWAP1 REVERT JUMPDEST PUSH1 0x1 PUSH1 0x3 PUSH1 0x0 PUSH2 0x100 EXP DUP2 SLOAD DUP2 PUSH1 0xFF MUL NOT AND SWAP1 DUP4 ISZERO ISZERO MUL OR SWAP1 SSTORE POP PUSH1 0xA PUSH1 0x14 SWAP1 SLOAD SWAP1 PUSH2 0x100 EXP SWAP1 DIV PUSH1 0xFF AND ISZERO PUSH3 0x163F JUMPI PUSH1 0x40 MLOAD PUSH32 0x8C379A000000000000000000000000000000000000000000000000000000000 DUP2 MSTORE PUSH1 0x4 ADD PUSH3 0x1636 SWAP1 PUSH3 0x26D0 JUMP JUMPDEST PUSH1 0x40 MLOAD DUP1 SWAP2 SUB SWAP1 REVERT JUMPDEST PUSH1 0x4 PUSH1 0x0 CALLER PUSH20 0xFFFFFFFFFFFFFFFFFFFFFFFFFFFFFFFFFFFFFFFF AND PUSH20 0xFFFFFFFFFFFFFFFFFFFFFFFFFFFFFFFFFFFFFFFF AND DUP2 MSTORE PUSH1 0x20 ADD SWAP1 DUP2 MSTORE PUSH1 0x20 ADD PUSH1 0x0 KECCAK256 PUSH1 0x0 SWAP1 SLOAD SWAP1 PUSH2 0x100 EXP SWAP1 DIV PUSH1 0xFF AND PUSH3 0x16CE JUMPI PUSH1 0x40 MLOAD PUSH32 0x8C379A000000000000000000000000000000000000000000000000000000000 DUP2 MSTORE PUSH1 0x4 ADD PUSH3 0x16C5 SWAP1 PUSH3 0x2B05 JUMP JUMPDEST PUSH1 0x40 MLOAD DUP1 SWAP2 SUB SWAP1 REVERT JUMPDEST PUSH1 0x6 PUSH1 0x0 DUP4 PUSH20 0xFFFFFFFFFFFFFFFFFFFFFFFFFFFFFFFFFFFFFFFF AND PUSH20 0xFFFFFFFFFFFFFFFFFFFFFFFFFFFFFFFFFFFFFFFF AND DUP2 MSTORE PUSH1 0x20 ADD SWAP1 DUP2 MSTORE PUSH1 0x20 ADD PUSH1 0x0 KECCAK256 PUSH1 0x0 SWAP1 SLOAD SWAP1 PUSH2 0x100 EXP SWAP1 DIV PUSH1 0xFF AND DUP1 PUSH3 0x1753 JUMPI POP PUSH1 0x0 PUSH20 0xFFFFFFFFFFFFFFFFFFFFFFFFFFFFFFFFFFFFFFFF AND DUP3 PUSH20 0xFFFFFFFFFFFFFFFFFFFFFFFFFFFFFFFFFFFFFFFF AND EQ JUMPDEST PUSH3 0x1795 JUMPI PUSH1 0x40 MLOAD PUSH32 0x8C379A000000000000000000000000000000000000000000000000000000000 DUP2 MSTORE PUSH1 0x4 ADD PUSH3 0x178C SWAP1 PUSH3 0x2B9D JUMP JUMPDEST PUSH1 0x40 MLOAD DUP1 SWAP2 SUB SWAP1 REVERT JUMPDEST PUSH1 0x6 PUSH1 0x0 DUP3 PUSH20 0xFFFFFFFFFFFFFFFFFFFFFFFFFFFFFFFFFFFFFFFF AND PUSH20 0xFFFFFFFFFFFFFFFFFFFFFFFFFFFFFFFFFFFFFFFF AND DUP2 MSTORE PUSH1 0x20 ADD SWAP1 DUP2 MSTORE PUSH1 0x20 ADD PUSH1 0x0 KECCAK256 PUSH1 0x0 SWAP1 SLOAD SWAP1 PUSH2 0x100 EXP SWAP1 DIV PUSH1 0xFF AND DUP1 PUSH3 0x181A JUMPI POP PUSH1 0x0 PUSH20 0xFFFFFFFFFFFFFFFFFFFFFFFFFFFFFFFFFFFFFFFF AND DUP2 PUSH20 0xFFFFFFFFFFFFFFFFFFFFFFFFFFFFFFFFFFFFFFFF AND EQ JUMPDEST PUSH3 0x185C JUMPI PUSH1 0x40 MLOAD PUSH32 0x8C379A000000000000000000000000000000000000000000000000000000000 DUP2 MSTORE PUSH1 0x4 ADD PUSH3 0x1853 SWAP1 PUSH3 0x2C35 JUMP JUMPDEST PUSH1 0x40 MLOAD DUP1 SWAP2 SUB SWAP1 REVERT JUMPDEST PUSH1 0x0 CALLER ADDRESS DUP7 DUP7 DUP7 DUP7 PUSH1 0x40 MLOAD PUSH3 0x1872 SWAP1 PUSH3 0x1E74 JUMP JUMPDEST PUSH3 0x1883 SWAP7 SWAP6 SWAP5 SWAP4 SWAP3 SWAP2 SWAP1 PUSH3 0x2C57 JUMP JUMPDEST PUSH1 0x40 MLOAD DUP1 SWAP2 SUB SWAP1 PUSH1 0x0 CREATE DUP1 ISZERO DUP1 ISZERO PUSH3 0x18A0 JUMPI RETURNDATASIZE PUSH1 0x0 DUP1 RETURNDATACOPY RETURNDATASIZE PUSH1 0x0 REVERT JUMPDEST POP SWAP1 POP PUSH1 0x0 PUSH20 0xFFFFFFFFFFFFFFFFFFFFFFFFFFFFFFFFFFFFFFFF AND DUP4 PUSH20 0xFFFFFFFFFFFFFFFFFFFFFFFFFFFFFFFFFFFFFFFF AND EQ PUSH3 0x194E JUMPI PUSH1 0x0 DUP4 SWAP1 POP DUP1 PUSH20 0xFFFFFFFFFFFFFFFFFFFFFFFFFFFFFFFFFFFFFFFF AND PUSH4 0x988E46C8 DUP4 PUSH1 0x40 MLOAD DUP3 PUSH4 0xFFFFFFFF AND PUSH1 0xE0 SHL DUP2 MSTORE PUSH1 0x4 ADD PUSH3 0x1918 SWAP2 SWAP1 PUSH3 0x239F JUMP JUMPDEST PUSH1 0x0 PUSH1 0x40 MLOAD DUP1 DUP4 SUB DUP2 PUSH1 0x0 DUP8 DUP1 EXTCODESIZE ISZERO DUP1 ISZERO PUSH3 0x1933 JUMPI PUSH1 0x0 DUP1 REVERT JUMPDEST POP GAS CALL ISZERO DUP1 ISZERO PUSH3 0x1948 JUMPI RETURNDATASIZE PUSH1 0x0 DUP1 RETURNDATACOPY RETURNDATASIZE PUSH1 0x0 REVERT JUMPDEST POP POP POP POP POP JUMPDEST PUSH1 0x0 PUSH20 0xFFFFFFFFFFFFFFFFFFFFFFFFFFFFFFFFFFFFFFFF AND DUP3 PUSH20 0xFFFFFFFFFFFFFFFFFFFFFFFFFFFFFFFFFFFFFFFF AND EQ PUSH3 0x19F9 JUMPI PUSH1 0x0 DUP3 SWAP1 POP DUP1 PUSH20 0xFFFFFFFFFFFFFFFFFFFFFFFFFFFFFFFFFFFFFFFF AND PUSH4 0x8758CE83 DUP4 PUSH1 0x40 MLOAD DUP3 PUSH4 0xFFFFFFFF AND PUSH1 0xE0 SHL DUP2 MSTORE PUSH1 0x4 ADD PUSH3 0x19C3 SWAP2 SWAP1 PUSH3 0x239F JUMP JUMPDEST PUSH1 0x0 PUSH1 0x40 MLOAD DUP1 DUP4 SUB DUP2 PUSH1 0x0 DUP8 DUP1 EXTCODESIZE ISZERO DUP1 ISZERO PUSH3 0x19DE JUMPI PUSH1 0x0 DUP1 REVERT JUMPDEST POP GAS CALL ISZERO DUP1 ISZERO PUSH3 0x19F3 JUMPI RETURNDATASIZE PUSH1 0x0 DUP1 RETURNDATACOPY RETURNDATASIZE PUSH1 0x0 REVERT JUMPDEST POP POP POP POP POP JUMPDEST PUSH1 0x7 DUP2 SWAP1 DUP1 PUSH1 0x1 DUP2 SLOAD ADD DUP1 DUP3 SSTORE DUP1 SWAP2 POP POP PUSH1 0x1 SWAP1 SUB SWAP1 PUSH1 0x0 MSTORE PUSH1 0x20 PUSH1 0x0 KECCAK256 ADD PUSH1 0x0 SWAP1 SWAP2 SWAP1 SWAP2 SWAP1 SWAP2 PUSH2 0x100 EXP DUP2 SLOAD DUP2 PUSH20 0xFFFFFFFFFFFFFFFFFFFFFFFFFFFFFFFFFFFFFFFF MUL NOT AND SWAP1 DUP4 PUSH20 0xFFFFFFFFFFFFFFFFFFFFFFFFFFFFFFFFFFFFFFFF AND MUL OR SWAP1 SSTORE POP PUSH1 0x1 PUSH1 0x6 PUSH1 0x0 DUP4 PUSH20 0xFFFFFFFFFFFFFFFFFFFFFFFFFFFFFFFFFFFFFFFF AND PUSH20 0xFFFFFFFFFFFFFFFFFFFFFFFFFFFFFFFFFFFFFFFF AND DUP2 MSTORE PUSH1 0x20 ADD SWAP1 DUP2 MSTORE PUSH1 0x20 ADD PUSH1 0x0 KECCAK256 PUSH1 0x0 PUSH2 0x100 EXP DUP2 SLOAD DUP2 PUSH1 0xFF MUL NOT AND SWAP1 DUP4 ISZERO ISZERO MUL OR SWAP1 SSTORE POP POP PUSH1 0x0 PUSH1 0x3 PUSH1 0x0 PUSH2 0x100 EXP DUP2 SLOAD DUP2 PUSH1 0xFF MUL NOT AND SWAP1 DUP4 ISZERO ISZERO MUL OR SWAP1 SSTORE POP POP POP POP POP JUMP JUMPDEST PUSH1 0x5 DUP2 DUP2 SLOAD DUP2 LT PUSH3 0x1AE7 JUMPI PUSH1 0x0 DUP1 REVERT JUMPDEST SWAP1 PUSH1 0x0 MSTORE PUSH1 0x20 PUSH1 0x0 KECCAK256 ADD PUSH1 0x0 SWAP2 POP SLOAD SWAP1 PUSH2 0x100 EXP SWAP1 DIV PUSH20 0xFFFFFFFFFFFFFFFFFFFFFFFFFFFFFFFFFFFFFFFF AND DUP2 JUMP JUMPDEST PUSH1 0x7 DUP2 DUP2 SLOAD DUP2 LT PUSH3 0x1B27 JUMPI PUSH1 0x0 DUP1 REVERT JUMPDEST SWAP1 PUSH1 0x0 MSTORE PUSH1 0x20 PUSH1 0x0 KECCAK256 ADD PUSH1 0x0 SWAP2 POP SLOAD SWAP1 PUSH2 0x100 EXP SWAP1 DIV PUSH20 0xFFFFFFFFFFFFFFFFFFFFFFFFFFFFFFFFFFFFFFFF AND DUP2 JUMP JUMPDEST PUSH1 0x2 DUP1 SLOAD PUSH3 0x1B65 SWAP1 PUSH3 0x2721 JUMP JUMPDEST DUP1 PUSH1 0x1F ADD PUSH1 0x20 DUP1 SWAP2 DIV MUL PUSH1 0x20 ADD PUSH1 0x40 MLOAD SWAP1 DUP2 ADD PUSH1 0x40 MSTORE DUP1 SWAP3 SWAP2 SWAP1 DUP2 DUP2 MSTORE PUSH1 0x20 ADD DUP3 DUP1 SLOAD PUSH3 0x1B93 SWAP1 PUSH3 0x2721 JUMP JUMPDEST DUP1 ISZERO PUSH3 0x1BE4 JUMPI DUP1 PUSH1 0x1F LT PUSH3 0x1BB8 JUMPI PUSH2 0x100 DUP1 DUP4 SLOAD DIV MUL DUP4 MSTORE SWAP2 PUSH1 0x20 ADD SWAP2 PUSH3 0x1BE4 JUMP JUMPDEST DUP3 ADD SWAP2 SWAP1 PUSH1 0x0 MSTORE PUSH1 0x20 PUSH1 0x0 KECCAK256 SWAP1 JUMPDEST DUP2 SLOAD DUP2 MSTORE SWAP1 PUSH1 0x1 ADD SWAP1 PUSH1 0x20 ADD DUP1 DUP4 GT PUSH3 0x1BC6 JUMPI DUP3 SWAP1 SUB PUSH1 0x1F AND DUP3 ADD SWAP2 JUMPDEST POP POP POP POP POP DUP2 JUMP JUMPDEST PUSH1 0x3 PUSH1 0x0 SWAP1 SLOAD SWAP1 PUSH2 0x100 EXP SWAP1 DIV PUSH1 0xFF AND ISZERO PUSH3 0x1C3F JUMPI PUSH1 0x40 MLOAD PUSH32 0x8C379A000000000000000000000000000000000000000000000000000000000 DUP2 MSTORE PUSH1 0x4 ADD PUSH3 0x1C36 SWAP1 PUSH3 0x265E JUMP JUMPDEST PUSH1 0x40 MLOAD DUP1 SWAP2 SUB SWAP1 REVERT JUMPDEST PUSH1 0x1 PUSH1 0x3 PUSH1 0x0 PUSH2 0x100 EXP DUP2 SLOAD DUP2 PUSH1 0xFF MUL NOT AND SWAP1 DUP4 ISZERO ISZERO MUL OR SWAP1 SSTORE POP PUSH1 0xA PUSH1 0x14 SWAP1 SLOAD SWAP1 PUSH2 0x100 EXP SWAP1 DIV PUSH1 0xFF AND ISZERO PUSH3 0x1CAD JUMPI PUSH1 0x40 MLOAD PUSH32 0x8C379A000000000000000000000000000000000000000000000000000000000 DUP2 MSTORE PUSH1 0x4 ADD PUSH3 0x1CA4 SWAP1 PUSH3 0x26D0 JUMP JUMPDEST PUSH1 0x40 MLOAD DUP1 SWAP2 SUB SWAP1 REVERT JUMPDEST PUSH1 0x4 PUSH1 0x0 CALLER PUSH20 0xFFFFFFFFFFFFFFFFFFFFFFFFFFFFFFFFFFFFFFFF AND PUSH20 0xFFFFFFFFFFFFFFFFFFFFFFFFFFFFFFFFFFFFFFFF AND DUP2 MSTORE PUSH1 0x20 ADD SWAP1 DUP2 MSTORE PUSH1 0x20 ADD PUSH1 0x0 KECCAK256 PUSH1 0x0 SWAP1 SLOAD SWAP1 PUSH2 0x100 EXP SWAP1 DIV PUSH1 0xFF AND ISZERO PUSH3 0x1D3D JUMPI PUSH1 0x40 MLOAD PUSH32 0x8C379A000000000000000000000000000000000000000000000000000000000 DUP2 MSTORE PUSH1 0x4 ADD PUSH3 0x1D34 SWAP1 PUSH3 0x2D48 JUMP JUMPDEST PUSH1 0x40 MLOAD DUP1 SWAP2 SUB SWAP1 REVERT JUMPDEST PUSH1 0x0 PUSH1 0x8 PUSH1 0x1 DUP2 PUSH1 0x1 DUP2 SLOAD ADD DUP1 DUP3 SSTORE DUP1 SWAP2 POP POP SUB SWAP1 PUSH1 0x0 MSTORE PUSH1 0x20 PUSH1 0x0 KECCAK256 SWAP1 PUSH1 0x5 MUL ADD SWAP1 POP DUP2 DUP2 PUSH1 0x0 ADD SWAP1 DUP1 MLOAD SWAP1 PUSH1 0x20 ADD SWAP1 PUSH3 0x1D7B SWAP3 SWAP2 SWAP1 PUSH3 0x1E82 JUMP JUMPDEST POP CALLER DUP2 PUSH1 0x1 ADD PUSH1 0x0 PUSH2 0x100 EXP DUP2 SLOAD DUP2 PUSH20 0xFFFFFFFFFFFFFFFFFFFFFFFFFFFFFFFFFFFFFFFF MUL NOT AND SWAP1 DUP4 PUSH20 0xFFFFFFFFFFFFFFFFFFFFFFFFFFFFFFFFFFFFFFFF AND MUL OR SWAP1 SSTORE POP POP PUSH1 0x0 PUSH1 0x3 PUSH1 0x0 PUSH2 0x100 EXP DUP2 SLOAD DUP2 PUSH1 0xFF MUL NOT AND SWAP1 DUP4 ISZERO ISZERO MUL OR SWAP1 SSTORE POP POP JUMP JUMPDEST PUSH1 0x1 DUP1 SLOAD PUSH3 0x1DED SWAP1 PUSH3 0x2721 JUMP JUMPDEST DUP1 PUSH1 0x1F ADD PUSH1 0x20 DUP1 SWAP2 DIV MUL PUSH1 0x20 ADD PUSH1 0x40 MLOAD SWAP1 DUP2 ADD PUSH1 0x40 MSTORE DUP1 SWAP3 SWAP2 SWAP1 DUP2 DUP2 MSTORE PUSH1 0x20 ADD DUP3 DUP1 SLOAD PUSH3 0x1E1B SWAP1 PUSH3 0x2721 JUMP JUMPDEST DUP1 ISZERO PUSH3 0x1E6C JUMPI DUP1 PUSH1 0x1F LT PUSH3 0x1E40 JUMPI PUSH2 0x100 DUP1 DUP4 SLOAD DIV MUL DUP4 MSTORE SWAP2 PUSH1 0x20 ADD SWAP2 PUSH3 0x1E6C JUMP JUMPDEST DUP3 ADD SWAP2 SWAP1 PUSH1 0x0 MSTORE PUSH1 0x20 PUSH1 0x0 KECCAK256 SWAP1 JUMPDEST DUP2 SLOAD DUP2 MSTORE SWAP1 PUSH1 0x1 ADD SWAP1 PUSH1 0x20 ADD DUP1 DUP4 GT PUSH3 0x1E4E JUMPI DUP3 SWAP1 SUB PUSH1 0x1F AND DUP3 ADD SWAP2 JUMPDEST POP POP POP POP POP DUP2 JUMP JUMPDEST PUSH2 0x151C DUP1 PUSH3 0x2D6B DUP4 CODECOPY ADD SWAP1 JUMP JUMPDEST DUP3 DUP1 SLOAD PUSH3 0x1E90 SWAP1 PUSH3 0x2721 JUMP JUMPDEST SWAP1 PUSH1 0x0 MSTORE PUSH1 0x20 PUSH1 0x0 KECCAK256 SWAP1 PUSH1 0x1F ADD PUSH1 0x20 SWAP1 DIV DUP2 ADD SWAP3 DUP3 PUSH3 0x1EB4 JUMPI PUSH1 0x0 DUP6 SSTORE PUSH3 0x1F00 JUMP JUMPDEST DUP3 PUSH1 0x1F LT PUSH3 0x1ECF JUMPI DUP1 MLOAD PUSH1 0xFF NOT AND DUP4 DUP1 ADD OR DUP6 SSTORE PUSH3 0x1F00 JUMP JUMPDEST DUP3 DUP1 ADD PUSH1 0x1 ADD DUP6 SSTORE DUP3 ISZERO PUSH3 0x1F00 JUMPI SWAP2 DUP3 ADD JUMPDEST DUP3 DUP2 GT ISZERO PUSH3 0x1EFF JUMPI DUP3 MLOAD DUP3 SSTORE SWAP2 PUSH1 0x20 ADD SWAP2 SWAP1 PUSH1 0x1 ADD SWAP1 PUSH3 0x1EE2 JUMP JUMPDEST JUMPDEST POP SWAP1 POP PUSH3 0x1F0F SWAP2 SWAP1 PUSH3 0x1F13 JUMP JUMPDEST POP SWAP1 JUMP JUMPDEST JUMPDEST DUP1 DUP3 GT ISZERO PUSH3 0x1F2E JUMPI PUSH1 0x0 DUP2 PUSH1 0x0 SWAP1 SSTORE POP PUSH1 0x1 ADD PUSH3 0x1F14 JUMP JUMPDEST POP SWAP1 JUMP JUMPDEST PUSH1 0x0 DUP2 ISZERO ISZERO SWAP1 POP SWAP2 SWAP1 POP JUMP JUMPDEST PUSH3 0x1F49 DUP2 PUSH3 0x1F32 JUMP JUMPDEST DUP3 MSTORE POP POP JUMP JUMPDEST PUSH1 0x0 PUSH1 0x20 DUP3 ADD SWAP1 POP PUSH3 0x1F66 PUSH1 0x0 DUP4 ADD DUP5 PUSH3 0x1F3E JUMP JUMPDEST SWAP3 SWAP2 POP POP JUMP JUMPDEST PUSH1 0x0 PUSH1 0x40 MLOAD SWAP1 POP SWAP1 JUMP JUMPDEST PUSH1 0x0 DUP1 REVERT JUMPDEST PUSH1 0x0 DUP1 REVERT JUMPDEST PUSH1 0x0 PUSH20 0xFFFFFFFFFFFFFFFFFFFFFFFFFFFFFFFFFFFFFFFF DUP3 AND SWAP1 POP SWAP2 SWAP1 POP JUMP JUMPDEST PUSH1 0x0 PUSH3 0x1FAD DUP3 PUSH3 0x1F80 JUMP JUMPDEST SWAP1 POP SWAP2 SWAP1 POP JUMP JUMPDEST PUSH3 0x1FBF DUP2 PUSH3 0x1FA0 JUMP JUMPDEST DUP2 EQ PUSH3 0x1FCB JUMPI PUSH1 0x0 DUP1 REVERT JUMPDEST POP JUMP JUMPDEST PUSH1 0x0 DUP2 CALLDATALOAD SWAP1 POP PUSH3 0x1FDF DUP2 PUSH3 0x1FB4 JUMP JUMPDEST SWAP3 SWAP2 POP POP JUMP JUMPDEST PUSH1 0x0 PUSH1 0x20 DUP3 DUP5 SUB SLT ISZERO PUSH3 0x1FFE JUMPI PUSH3 0x1FFD PUSH3 0x1F76 JUMP JUMPDEST JUMPDEST PUSH1 0x0 PUSH3 0x200E DUP5 DUP3 DUP6 ADD PUSH3 0x1FCE JUMP JUMPDEST SWAP2 POP POP SWAP3 SWAP2 POP POP JUMP JUMPDEST PUSH1 0x0 DUP2 MLOAD SWAP1 POP SWAP2 SWAP1 POP JUMP JUMPDEST PUSH1 0x0 DUP3 DUP3 MSTORE PUSH1 0x20 DUP3 ADD SWAP1 POP SWAP3 SWAP2 POP POP JUMP JUMPDEST PUSH1 0x0 JUMPDEST DUP4 DUP2 LT ISZERO PUSH3 0x2053 JUMPI DUP1 DUP3 ADD MLOAD DUP2 DUP5 ADD MSTORE PUSH1 0x20 DUP2 ADD SWAP1 POP PUSH3 0x2036 JUMP JUMPDEST DUP4 DUP2 GT ISZERO PUSH3 0x2063 JUMPI PUSH1 0x0 DUP5 DUP5 ADD MSTORE JUMPDEST POP POP POP POP JUMP JUMPDEST PUSH1 0x0 PUSH1 0x1F NOT PUSH1 0x1F DUP4 ADD AND SWAP1 POP SWAP2 SWAP1 POP JUMP JUMPDEST PUSH1 0x0 PUSH3 0x2087 DUP3 PUSH3 0x2017 JUMP JUMPDEST PUSH3 0x2093 DUP2 DUP6 PUSH3 0x2022 JUMP JUMPDEST SWAP4 POP PUSH3 0x20A5 DUP2 DUP6 PUSH1 0x20 DUP7 ADD PUSH3 0x2033 JUMP JUMPDEST PUSH3 0x20B0 DUP2 PUSH3 0x2069 JUMP JUMPDEST DUP5 ADD SWAP2 POP POP SWAP3 SWAP2 POP POP JUMP JUMPDEST PUSH1 0x0 DUP2 MLOAD SWAP1 POP SWAP2 SWAP1 POP JUMP JUMPDEST PUSH1 0x0 DUP3 DUP3 MSTORE PUSH1 0x20 DUP3 ADD SWAP1 POP SWAP3 SWAP2 POP POP JUMP JUMPDEST PUSH1 0x0 DUP2 SWAP1 POP PUSH1 0x20 DUP3 ADD SWAP1 POP SWAP2 SWAP1 POP JUMP JUMPDEST PUSH3 0x20F2 DUP2 PUSH3 0x1FA0 JUMP JUMPDEST DUP3 MSTORE POP POP JUMP JUMPDEST PUSH1 0x0 PUSH3 0x2106 DUP4 DUP4 PUSH3 0x20E7 JUMP JUMPDEST PUSH1 0x20 DUP4 ADD SWAP1 POP SWAP3 SWAP2 POP POP JUMP JUMPDEST PUSH1 0x0 PUSH1 0x20 DUP3 ADD SWAP1 POP SWAP2 SWAP1 POP JUMP JUMPDEST PUSH1 0x0 PUSH3 0x212C DUP3 PUSH3 0x20BB JUMP JUMPDEST PUSH3 0x2138 DUP2 DUP6 PUSH3 0x20C6 JUMP JUMPDEST SWAP4 POP PUSH3 0x2145 DUP4 PUSH3 0x20D7 JUMP JUMPDEST DUP1 PUSH1 0x0 JUMPDEST DUP4 DUP2 LT ISZERO PUSH3 0x217C JUMPI DUP2 MLOAD PUSH3 0x2160 DUP9 DUP3 PUSH3 0x20F8 JUMP JUMPDEST SWAP8 POP PUSH3 0x216D DUP4 PUSH3 0x2112 JUMP JUMPDEST SWAP3 POP POP PUSH1 0x1 DUP2 ADD SWAP1 POP PUSH3 0x2149 JUMP JUMPDEST POP DUP6 SWAP4 POP POP POP POP SWAP3 SWAP2 POP POP JUMP JUMPDEST PUSH1 0x0 DUP2 SWAP1 POP SWAP2 SWAP1 POP JUMP JUMPDEST PUSH3 0x219E DUP2 PUSH3 0x2189 JUMP JUMPDEST DUP3 MSTORE POP POP JUMP JUMPDEST PUSH3 0x21AF DUP2 PUSH3 0x1FA0 JUMP JUMPDEST DUP3 MSTORE POP POP JUMP JUMPDEST PUSH1 0x0 PUSH2 0x120 DUP3 ADD SWAP1 POP DUP2 DUP2 SUB PUSH1 0x0 DUP4 ADD MSTORE PUSH3 0x21D2 DUP2 DUP13 PUSH3 0x207A JUMP JUMPDEST SWAP1 POP DUP2 DUP2 SUB PUSH1 0x20 DUP4 ADD MSTORE PUSH3 0x21E8 DUP2 DUP12 PUSH3 0x207A JUMP JUMPDEST SWAP1 POP DUP2 DUP2 SUB PUSH1 0x40 DUP4 ADD MSTORE PUSH3 0x21FE DUP2 DUP11 PUSH3 0x211F JUMP JUMPDEST SWAP1 POP DUP2 DUP2 SUB PUSH1 0x60 DUP4 ADD MSTORE PUSH3 0x2214 DUP2 DUP10 PUSH3 0x211F JUMP JUMPDEST SWAP1 POP PUSH3 0x2225 PUSH1 0x80 DUP4 ADD DUP9 PUSH3 0x2193 JUMP JUMPDEST DUP2 DUP2 SUB PUSH1 0xA0 DUP4 ADD MSTORE PUSH3 0x2239 DUP2 DUP8 PUSH3 0x207A JUMP JUMPDEST SWAP1 POP PUSH3 0x224A PUSH1 0xC0 DUP4 ADD DUP7 PUSH3 0x2193 JUMP JUMPDEST PUSH3 0x2259 PUSH1 0xE0 DUP4 ADD DUP6 PUSH3 0x1F3E JUMP JUMPDEST PUSH3 0x2269 PUSH2 0x100 DUP4 ADD DUP5 PUSH3 0x21A4 JUMP JUMPDEST SWAP11 SWAP10 POP POP POP POP POP POP POP POP POP POP JUMP JUMPDEST PUSH3 0x2282 DUP2 PUSH3 0x2189 JUMP JUMPDEST DUP2 EQ PUSH3 0x228E JUMPI PUSH1 0x0 DUP1 REVERT JUMPDEST POP JUMP JUMPDEST PUSH1 0x0 DUP2 CALLDATALOAD SWAP1 POP PUSH3 0x22A2 DUP2 PUSH3 0x2277 JUMP JUMPDEST SWAP3 SWAP2 POP POP JUMP JUMPDEST PUSH1 0x0 PUSH1 0x20 DUP3 DUP5 SUB SLT ISZERO PUSH3 0x22C1 JUMPI PUSH3 0x22C0 PUSH3 0x1F76 JUMP JUMPDEST JUMPDEST PUSH1 0x0 PUSH3 0x22D1 DUP5 DUP3 DUP6 ADD PUSH3 0x2291 JUMP JUMPDEST SWAP2 POP POP SWAP3 SWAP2 POP POP JUMP JUMPDEST PUSH1 0x0 PUSH1 0x20 DUP3 ADD SWAP1 POP DUP2 DUP2 SUB PUSH1 0x0 DUP4 ADD MSTORE PUSH3 0x22F6 DUP2 DUP5 PUSH3 0x207A JUMP JUMPDEST SWAP1 POP SWAP3 SWAP2 POP POP JUMP JUMPDEST PUSH1 0x0 PUSH1 0x80 DUP3 ADD SWAP1 POP PUSH3 0x2315 PUSH1 0x0 DUP4 ADD DUP8 PUSH3 0x2193 JUMP JUMPDEST PUSH3 0x2324 PUSH1 0x20 DUP4 ADD DUP7 PUSH3 0x21A4 JUMP JUMPDEST PUSH3 0x2333 PUSH1 0x40 DUP4 ADD DUP6 PUSH3 0x2193 JUMP JUMPDEST PUSH3 0x2342 PUSH1 0x60 DUP4 ADD DUP5 PUSH3 0x1F3E JUMP JUMPDEST SWAP6 SWAP5 POP POP POP POP POP JUMP JUMPDEST PUSH1 0x0 PUSH1 0x80 DUP3 ADD SWAP1 POP DUP2 DUP2 SUB PUSH1 0x0 DUP4 ADD MSTORE PUSH3 0x2367 DUP2 DUP8 PUSH3 0x207A JUMP JUMPDEST SWAP1 POP PUSH3 0x2378 PUSH1 0x20 DUP4 ADD DUP7 PUSH3 0x21A4 JUMP JUMPDEST PUSH3 0x2387 PUSH1 0x40 DUP4 ADD DUP6 PUSH3 0x2193 JUMP JUMPDEST PUSH3 0x2396 PUSH1 0x60 DUP4 ADD DUP5 PUSH3 0x1F3E JUMP JUMPDEST SWAP6 SWAP5 POP POP POP POP POP JUMP JUMPDEST PUSH1 0x0 PUSH1 0x20 DUP3 ADD SWAP1 POP PUSH3 0x23B6 PUSH1 0x0 DUP4 ADD DUP5 PUSH3 0x21A4 JUMP JUMPDEST SWAP3 SWAP2 POP POP JUMP JUMPDEST PUSH1 0x0 DUP1 REVERT JUMPDEST PUSH1 0x0 DUP1 REVERT JUMPDEST PUSH32 0x4E487B7100000000000000000000000000000000000000000000000000000000 PUSH1 0x0 MSTORE PUSH1 0x41 PUSH1 0x4 MSTORE PUSH1 0x24 PUSH1 0x0 REVERT JUMPDEST PUSH3 0x2400 DUP3 PUSH3 0x2069 JUMP JUMPDEST DUP2 ADD DUP2 DUP2 LT PUSH8 0xFFFFFFFFFFFFFFFF DUP3 GT OR ISZERO PUSH3 0x2422 JUMPI PUSH3 0x2421 PUSH3 0x23C6 JUMP JUMPDEST JUMPDEST DUP1 PUSH1 0x40 MSTORE POP POP POP JUMP JUMPDEST PUSH1 0x0 PUSH3 0x2437 PUSH3 0x1F6C JUMP JUMPDEST SWAP1 POP PUSH3 0x2445 DUP3 DUP3 PUSH3 0x23F5 JUMP JUMPDEST SWAP2 SWAP1 POP JUMP JUMPDEST PUSH1 0x0 PUSH8 0xFFFFFFFFFFFFFFFF DUP3 GT ISZERO PUSH3 0x2468 JUMPI PUSH3 0x2467 PUSH3 0x23C6 JUMP JUMPDEST JUMPDEST PUSH3 0x2473 DUP3 PUSH3 0x2069 JUMP JUMPDEST SWAP1 POP PUSH1 0x20 DUP2 ADD SWAP1 POP SWAP2 SWAP1 POP JUMP JUMPDEST DUP3 DUP2 DUP4 CALLDATACOPY PUSH1 0x0 DUP4 DUP4 ADD MSTORE POP POP POP JUMP JUMPDEST PUSH1 0x0 PUSH3 0x24A6 PUSH3 0x24A0 DUP5 PUSH3 0x244A JUMP JUMPDEST PUSH3 0x242B JUMP JUMPDEST SWAP1 POP DUP3 DUP2 MSTORE PUSH1 0x20 DUP2 ADD DUP5 DUP5 DUP5 ADD GT ISZERO PUSH3 0x24C5 JUMPI PUSH3 0x24C4 PUSH3 0x23C1 JUMP JUMPDEST JUMPDEST PUSH3 0x24D2 DUP5 DUP3 DUP6 PUSH3 0x2480 JUMP JUMPDEST POP SWAP4 SWAP3 POP POP POP JUMP JUMPDEST PUSH1 0x0 DUP3 PUSH1 0x1F DUP4 ADD SLT PUSH3 0x24F2 JUMPI PUSH3 0x24F1 PUSH3 0x23BC JUMP JUMPDEST JUMPDEST DUP2 CALLDATALOAD PUSH3 0x2504 DUP5 DUP3 PUSH1 0x20 DUP7 ADD PUSH3 0x248F JUMP JUMPDEST SWAP2 POP POP SWAP3 SWAP2 POP POP JUMP JUMPDEST PUSH1 0x0 DUP1 PUSH1 0x0 DUP1 PUSH1 0x80 DUP6 DUP8 SUB SLT ISZERO PUSH3 0x252A JUMPI PUSH3 0x2529 PUSH3 0x1F76 JUMP JUMPDEST JUMPDEST PUSH1 0x0 DUP6 ADD CALLDATALOAD PUSH8 0xFFFFFFFFFFFFFFFF DUP2 GT ISZERO PUSH3 0x254B JUMPI PUSH3 0x254A PUSH3 0x1F7B JUMP JUMPDEST JUMPDEST PUSH3 0x2559 DUP8 DUP3 DUP9 ADD PUSH3 0x24DA JUMP JUMPDEST SWAP5 POP POP PUSH1 0x20 DUP6 ADD CALLDATALOAD PUSH8 0xFFFFFFFFFFFFFFFF DUP2 GT ISZERO PUSH3 0x257D JUMPI PUSH3 0x257C PUSH3 0x1F7B JUMP JUMPDEST JUMPDEST PUSH3 0x258B DUP8 DUP3 DUP9 ADD PUSH3 0x24DA JUMP JUMPDEST SWAP4 POP POP PUSH1 0x40 PUSH3 0x259E DUP8 DUP3 DUP9 ADD PUSH3 0x1FCE JUMP JUMPDEST SWAP3 POP POP PUSH1 0x60 PUSH3 0x25B1 DUP8 DUP3 DUP9 ADD PUSH3 0x1FCE JUMP JUMPDEST SWAP2 POP POP SWAP3 SWAP6 SWAP2 SWAP5 POP SWAP3 POP JUMP JUMPDEST PUSH1 0x0 PUSH1 0x20 DUP3 DUP5 SUB SLT ISZERO PUSH3 0x25D6 JUMPI PUSH3 0x25D5 PUSH3 0x1F76 JUMP JUMPDEST JUMPDEST PUSH1 0x0 DUP3 ADD CALLDATALOAD PUSH8 0xFFFFFFFFFFFFFFFF DUP2 GT ISZERO PUSH3 0x25F7 JUMPI PUSH3 0x25F6 PUSH3 0x1F7B JUMP JUMPDEST JUMPDEST PUSH3 0x2605 DUP5 DUP3 DUP6 ADD PUSH3 0x24DA JUMP JUMPDEST SWAP2 POP POP SWAP3 SWAP2 POP POP JUMP JUMPDEST PUSH32 0x5265656E7472616E742063616C6C000000000000000000000000000000000000 PUSH1 0x0 DUP3 ADD MSTORE POP JUMP JUMPDEST PUSH1 0x0 PUSH3 0x2646 PUSH1 0xE DUP4 PUSH3 0x2022 JUMP JUMPDEST SWAP2 POP PUSH3 0x2653 DUP3 PUSH3 0x260E JUMP JUMPDEST PUSH1 0x20 DUP3 ADD SWAP1 POP SWAP2 SWAP1 POP JUMP JUMPDEST PUSH1 0x0 PUSH1 0x20 DUP3 ADD SWAP1 POP DUP2 DUP2 SUB PUSH1 0x0 DUP4 ADD MSTORE PUSH3 0x2679 DUP2 PUSH3 0x2637 JUMP JUMPDEST SWAP1 POP SWAP2 SWAP1 POP JUMP JUMPDEST PUSH32 0x546869732073746F727920686173206265656E20626F75676874000000000000 PUSH1 0x0 DUP3 ADD MSTORE POP JUMP JUMPDEST PUSH1 0x0 PUSH3 0x26B8 PUSH1 0x1A DUP4 PUSH3 0x2022 JUMP JUMPDEST SWAP2 POP PUSH3 0x26C5 DUP3 PUSH3 0x2680 JUMP JUMPDEST PUSH1 0x20 DUP3 ADD SWAP1 POP SWAP2 SWAP1 POP JUMP JUMPDEST PUSH1 0x0 PUSH1 0x20 DUP3 ADD SWAP1 POP DUP2 DUP2 SUB PUSH1 0x0 DUP4 ADD MSTORE PUSH3 0x26EB DUP2 PUSH3 0x26A9 JUMP JUMPDEST SWAP1 POP SWAP2 SWAP1 POP JUMP JUMPDEST PUSH32 0x4E487B7100000000000000000000000000000000000000000000000000000000 PUSH1 0x0 MSTORE PUSH1 0x22 PUSH1 0x4 MSTORE PUSH1 0x24 PUSH1 0x0 REVERT JUMPDEST PUSH1 0x0 PUSH1 0x2 DUP3 DIV SWAP1 POP PUSH1 0x1 DUP3 AND DUP1 PUSH3 0x273A JUMPI PUSH1 0x7F DUP3 AND SWAP2 POP JUMPDEST PUSH1 0x20 DUP3 LT DUP2 EQ ISZERO PUSH3 0x2751 JUMPI PUSH3 0x2750 PUSH3 0x26F2 JUMP JUMPDEST JUMPDEST POP SWAP2 SWAP1 POP JUMP JUMPDEST PUSH32 0x4F6E6C7920616E20616363657074656420617574686F722063616E2061707072 PUSH1 0x0 DUP3 ADD MSTORE PUSH32 0x6F76652061207265717565737400000000000000000000000000000000000000 PUSH1 0x20 DUP3 ADD MSTORE POP JUMP JUMPDEST PUSH1 0x0 PUSH3 0x27B5 PUSH1 0x2D DUP4 PUSH3 0x2022 JUMP JUMPDEST SWAP2 POP PUSH3 0x27C2 DUP3 PUSH3 0x2757 JUMP JUMPDEST PUSH1 0x40 DUP3 ADD SWAP1 POP SWAP2 SWAP1 POP JUMP JUMPDEST PUSH1 0x0 PUSH1 0x20 DUP3 ADD SWAP1 POP DUP2 DUP2 SUB PUSH1 0x0 DUP4 ADD MSTORE PUSH3 0x27E8 DUP2 PUSH3 0x27A6 JUMP JUMPDEST SWAP1 POP SWAP2 SWAP1 POP JUMP JUMPDEST PUSH32 0x4E487B7100000000000000000000000000000000000000000000000000000000 PUSH1 0x0 MSTORE PUSH1 0x32 PUSH1 0x4 MSTORE PUSH1 0x24 PUSH1 0x0 REVERT JUMPDEST PUSH32 0x5468697320617574686F7220616C726561647920617070726F76656420626566 PUSH1 0x0 DUP3 ADD MSTORE PUSH32 0x6F72650000000000000000000000000000000000000000000000000000000000 PUSH1 0x20 DUP3 ADD MSTORE POP JUMP JUMPDEST PUSH1 0x0 PUSH3 0x287C PUSH1 0x23 DUP4 PUSH3 0x2022 JUMP JUMPDEST SWAP2 POP PUSH3 0x2889 DUP3 PUSH3 0x281E JUMP JUMPDEST PUSH1 0x40 DUP3 ADD SWAP1 POP SWAP2 SWAP1 POP JUMP JUMPDEST PUSH1 0x0 PUSH1 0x20 DUP3 ADD SWAP1 POP DUP2 DUP2 SUB PUSH1 0x0 DUP4 ADD MSTORE PUSH3 0x28AF DUP2 PUSH3 0x286D JUMP JUMPDEST SWAP1 POP SWAP2 SWAP1 POP JUMP JUMPDEST PUSH32 0x5468697320726571756573742068617320616C7265616479206265656E206170 PUSH1 0x0 DUP3 ADD MSTORE PUSH32 0x70726F766564206265666F726500000000000000000000000000000000000000 PUSH1 0x20 DUP3 ADD MSTORE POP JUMP JUMPDEST PUSH1 0x0 PUSH3 0x2914 PUSH1 0x2D DUP4 PUSH3 0x2022 JUMP JUMPDEST SWAP2 POP PUSH3 0x2921 DUP3 PUSH3 0x28B6 JUMP JUMPDEST PUSH1 0x40 DUP3 ADD SWAP1 POP SWAP2 SWAP1 POP JUMP JUMPDEST PUSH1 0x0 PUSH1 0x20 DUP3 ADD SWAP1 POP DUP2 DUP2 SUB PUSH1 0x0 DUP4 ADD MSTORE PUSH3 0x2947 DUP2 PUSH3 0x2905 JUMP JUMPDEST SWAP1 POP SWAP2 SWAP1 POP JUMP JUMPDEST PUSH32 0x4E487B7100000000000000000000000000000000000000000000000000000000 PUSH1 0x0 MSTORE PUSH1 0x11 PUSH1 0x4 MSTORE PUSH1 0x24 PUSH1 0x0 REVERT JUMPDEST PUSH1 0x0 PUSH3 0x298A DUP3 PUSH3 0x2189 JUMP JUMPDEST SWAP2 POP PUSH3 0x2997 DUP4 PUSH3 0x2189 JUMP JUMPDEST SWAP3 POP DUP3 PUSH32 0xFFFFFFFFFFFFFFFFFFFFFFFFFFFFFFFFFFFFFFFFFFFFFFFFFFFFFFFFFFFFFFFF SUB DUP3 GT ISZERO PUSH3 0x29CF JUMPI PUSH3 0x29CE PUSH3 0x294E JUMP JUMPDEST JUMPDEST DUP3 DUP3 ADD SWAP1 POP SWAP3 SWAP2 POP POP JUMP JUMPDEST PUSH32 0x4E487B7100000000000000000000000000000000000000000000000000000000 PUSH1 0x0 MSTORE PUSH1 0x12 PUSH1 0x4 MSTORE PUSH1 0x24 PUSH1 0x0 REVERT JUMPDEST PUSH1 0x0 PUSH3 0x2A16 DUP3 PUSH3 0x2189 JUMP JUMPDEST SWAP2 POP PUSH3 0x2A23 DUP4 PUSH3 0x2189 JUMP JUMPDEST SWAP3 POP DUP3 PUSH3 0x2A36 JUMPI PUSH3 0x2A35 PUSH3 0x29DA JUMP JUMPDEST JUMPDEST DUP3 DUP3 DIV SWAP1 POP SWAP3 SWAP2 POP POP JUMP JUMPDEST PUSH1 0x0 PUSH3 0x2A4E DUP3 PUSH3 0x2189 JUMP JUMPDEST SWAP2 POP PUSH32 0xFFFFFFFFFFFFFFFFFFFFFFFFFFFFFFFFFFFFFFFFFFFFFFFFFFFFFFFFFFFFFFFF DUP3 EQ ISZERO PUSH3 0x2A84 JUMPI PUSH3 0x2A83 PUSH3 0x294E JUMP JUMPDEST JUMPDEST PUSH1 0x1 DUP3 ADD SWAP1 POP SWAP2 SWAP1 POP JUMP JUMPDEST PUSH32 0x4F6E6C7920616E20616363657074656420617574686F722063616E2063726561 PUSH1 0x0 DUP3 ADD MSTORE PUSH32 0x7465206120636861707465720000000000000000000000000000000000000000 PUSH1 0x20 DUP3 ADD MSTORE POP JUMP JUMPDEST PUSH1 0x0 PUSH3 0x2AED PUSH1 0x2C DUP4 PUSH3 0x2022 JUMP JUMPDEST SWAP2 POP PUSH3 0x2AFA DUP3 PUSH3 0x2A8F JUMP JUMPDEST PUSH1 0x40 DUP3 ADD SWAP1 POP SWAP2 SWAP1 POP JUMP JUMPDEST PUSH1 0x0 PUSH1 0x20 DUP3 ADD SWAP1 POP DUP2 DUP2 SUB PUSH1 0x0 DUP4 ADD MSTORE PUSH3 0x2B20 DUP2 PUSH3 0x2ADE JUMP JUMPDEST SWAP1 POP SWAP2 SWAP1 POP JUMP JUMPDEST PUSH32 0x506172656E742063686170746572206D7573742062656C6F6E6720746F207468 PUSH1 0x0 DUP3 ADD MSTORE PUSH32 0x652073616D652073746F72790000000000000000000000000000000000000000 PUSH1 0x20 DUP3 ADD MSTORE POP JUMP JUMPDEST PUSH1 0x0 PUSH3 0x2B85 PUSH1 0x2C DUP4 PUSH3 0x2022 JUMP JUMPDEST SWAP2 POP PUSH3 0x2B92 DUP3 PUSH3 0x2B27 JUMP JUMPDEST PUSH1 0x40 DUP3 ADD SWAP1 POP SWAP2 SWAP1 POP JUMP JUMPDEST PUSH1 0x0 PUSH1 0x20 DUP3 ADD SWAP1 POP DUP2 DUP2 SUB PUSH1 0x0 DUP4 ADD MSTORE PUSH3 0x2BB8 DUP2 PUSH3 0x2B76 JUMP JUMPDEST SWAP1 POP SWAP2 SWAP1 POP JUMP JUMPDEST PUSH32 0x4368696C642063686170746572206D7573742062656C6F6E6720746F20746865 PUSH1 0x0 DUP3 ADD MSTORE PUSH32 0x2073616D652073746F7279000000000000000000000000000000000000000000 PUSH1 0x20 DUP3 ADD MSTORE POP JUMP JUMPDEST PUSH1 0x0 PUSH3 0x2C1D PUSH1 0x2B DUP4 PUSH3 0x2022 JUMP JUMPDEST SWAP2 POP PUSH3 0x2C2A DUP3 PUSH3 0x2BBF JUMP JUMPDEST PUSH1 0x40 DUP3 ADD SWAP1 POP SWAP2 SWAP1 POP JUMP JUMPDEST PUSH1 0x0 PUSH1 0x20 DUP3 ADD SWAP1 POP DUP2 DUP2 SUB PUSH1 0x0 DUP4 ADD MSTORE PUSH3 0x2C50 DUP2 PUSH3 0x2C0E JUMP JUMPDEST SWAP1 POP SWAP2 SWAP1 POP JUMP JUMPDEST PUSH1 0x0 PUSH1 0xC0 DUP3 ADD SWAP1 POP PUSH3 0x2C6E PUSH1 0x0 DUP4 ADD DUP10 PUSH3 0x21A4 JUMP JUMPDEST PUSH3 0x2C7D PUSH1 0x20 DUP4 ADD DUP9 PUSH3 0x21A4 JUMP JUMPDEST DUP2 DUP2 SUB PUSH1 0x40 DUP4 ADD MSTORE PUSH3 0x2C91 DUP2 DUP8 PUSH3 0x207A JUMP JUMPDEST SWAP1 POP DUP2 DUP2 SUB PUSH1 0x60 DUP4 ADD MSTORE PUSH3 0x2CA7 DUP2 DUP7 PUSH3 0x207A JUMP JUMPDEST SWAP1 POP PUSH3 0x2CB8 PUSH1 0x80 DUP4 ADD DUP6 PUSH3 0x21A4 JUMP JUMPDEST PUSH3 0x2CC7 PUSH1 0xA0 DUP4 ADD DUP5 PUSH3 0x21A4 JUMP JUMPDEST SWAP8 SWAP7 POP POP POP POP POP POP POP JUMP JUMPDEST PUSH32 0x417574686F7220616C72656164792065786973747320696E20746865206C6973 PUSH1 0x0 DUP3 ADD MSTORE PUSH32 0x74206F6620617574686F72730000000000000000000000000000000000000000 PUSH1 0x20 DUP3 ADD MSTORE POP JUMP JUMPDEST PUSH1 0x0 PUSH3 0x2D30 PUSH1 0x2C DUP4 PUSH3 0x2022 JUMP JUMPDEST SWAP2 POP PUSH3 0x2D3D DUP3 PUSH3 0x2CD2 JUMP JUMPDEST PUSH1 0x40 DUP3 ADD SWAP1 POP SWAP2 SWAP1 POP JUMP JUMPDEST PUSH1 0x0 PUSH1 0x20 DUP3 ADD SWAP1 POP DUP2 DUP2 SUB PUSH1 0x0 DUP4 ADD MSTORE PUSH3 0x2D63 DUP2 PUSH3 0x2D21 JUMP JUMPDEST SWAP1 POP SWAP2 SWAP1 POP JUMP INVALID PUSH1 0x80 PUSH1 0x40 MSTORE CALLVALUE DUP1 ISZERO PUSH3 0x11 JUMPI PUSH1 0x0 DUP1 REVERT JUMPDEST POP PUSH1 0x40 MLOAD PUSH3 0x151C CODESIZE SUB DUP1 PUSH3 0x151C DUP4 CODECOPY DUP2 DUP2 ADD PUSH1 0x40 MSTORE DUP2 ADD SWAP1 PUSH3 0x37 SWAP2 SWAP1 PUSH3 0x4DA JUMP JUMPDEST DUP6 PUSH1 0x1 PUSH1 0x0 PUSH2 0x100 EXP DUP2 SLOAD DUP2 PUSH20 0xFFFFFFFFFFFFFFFFFFFFFFFFFFFFFFFFFFFFFFFF MUL NOT AND SWAP1 DUP4 PUSH20 0xFFFFFFFFFFFFFFFFFFFFFFFFFFFFFFFFFFFFFFFF AND MUL OR SWAP1 SSTORE POP DUP5 PUSH1 0x0 DUP1 PUSH2 0x100 EXP DUP2 SLOAD DUP2 PUSH20 0xFFFFFFFFFFFFFFFFFFFFFFFFFFFFFFFFFFFFFFFF MUL NOT AND SWAP1 DUP4 PUSH20 0xFFFFFFFFFFFFFFFFFFFFFFFFFFFFFFFFFFFFFFFF AND MUL OR SWAP1 SSTORE POP DUP3 PUSH1 0x3 SWAP1 DUP1 MLOAD SWAP1 PUSH1 0x20 ADD SWAP1 PUSH3 0xD0 SWAP3 SWAP2 SWAP1 PUSH3 0x228 JUMP JUMPDEST POP DUP4 PUSH1 0x2 SWAP1 DUP1 MLOAD SWAP1 PUSH1 0x20 ADD SWAP1 PUSH3 0xE9 SWAP3 SWAP2 SWAP1 PUSH3 0x228 JUMP JUMPDEST POP PUSH1 0x0 PUSH20 0xFFFFFFFFFFFFFFFFFFFFFFFFFFFFFFFFFFFFFFFF AND DUP3 PUSH20 0xFFFFFFFFFFFFFFFFFFFFFFFFFFFFFFFFFFFFFFFF AND EQ PUSH3 0x183 JUMPI PUSH1 0x4 DUP3 SWAP1 DUP1 PUSH1 0x1 DUP2 SLOAD ADD DUP1 DUP3 SSTORE DUP1 SWAP2 POP POP PUSH1 0x1 SWAP1 SUB SWAP1 PUSH1 0x0 MSTORE PUSH1 0x20 PUSH1 0x0 KECCAK256 ADD PUSH1 0x0 SWAP1 SWAP2 SWAP1 SWAP2 SWAP1 SWAP2 PUSH2 0x100 EXP DUP2 SLOAD DUP2 PUSH20 0xFFFFFFFFFFFFFFFFFFFFFFFFFFFFFFFFFFFFFFFF MUL NOT AND SWAP1 DUP4 PUSH20 0xFFFFFFFFFFFFFFFFFFFFFFFFFFFFFFFFFFFFFFFF AND MUL OR SWAP1 SSTORE POP JUMPDEST PUSH1 0x0 PUSH20 0xFFFFFFFFFFFFFFFFFFFFFFFFFFFFFFFFFFFFFFFF AND DUP2 PUSH20 0xFFFFFFFFFFFFFFFFFFFFFFFFFFFFFFFFFFFFFFFF AND EQ PUSH3 0x21C JUMPI PUSH1 0x5 DUP2 SWAP1 DUP1 PUSH1 0x1 DUP2 SLOAD ADD DUP1 DUP3 SSTORE DUP1 SWAP2 POP POP PUSH1 0x1 SWAP1 SUB SWAP1 PUSH1 0x0 MSTORE PUSH1 0x20 PUSH1 0x0 KECCAK256 ADD PUSH1 0x0 SWAP1 SWAP2 SWAP1 SWAP2 SWAP1 SWAP2 PUSH2 0x100 EXP DUP2 SLOAD DUP2 PUSH20 0xFFFFFFFFFFFFFFFFFFFFFFFFFFFFFFFFFFFFFFFF MUL NOT AND SWAP1 DUP4 PUSH20 0xFFFFFFFFFFFFFFFFFFFFFFFFFFFFFFFFFFFFFFFF AND MUL OR SWAP1 SSTORE POP JUMPDEST POP POP POP POP POP POP PUSH3 0x619 JUMP JUMPDEST DUP3 DUP1 SLOAD PUSH3 0x236 SWAP1 PUSH3 0x5E3 JUMP JUMPDEST SWAP1 PUSH1 0x0 MSTORE PUSH1 0x20 PUSH1 0x0 KECCAK256 SWAP1 PUSH1 0x1F ADD PUSH1 0x20 SWAP1 DIV DUP2 ADD SWAP3 DUP3 PUSH3 0x25A JUMPI PUSH1 0x0 DUP6 SSTORE PUSH3 0x2A6 JUMP JUMPDEST DUP3 PUSH1 0x1F LT PUSH3 0x275 JUMPI DUP1 MLOAD PUSH1 0xFF NOT AND DUP4 DUP1 ADD OR DUP6 SSTORE PUSH3 0x2A6 JUMP JUMPDEST DUP3 DUP1 ADD PUSH1 0x1 ADD DUP6 SSTORE DUP3 ISZERO PUSH3 0x2A6 JUMPI SWAP2 DUP3 ADD JUMPDEST DUP3 DUP2 GT ISZERO PUSH3 0x2A5 JUMPI DUP3 MLOAD DUP3 SSTORE SWAP2 PUSH1 0x20 ADD SWAP2 SWAP1 PUSH1 0x1 ADD SWAP1 PUSH3 0x288 JUMP JUMPDEST JUMPDEST POP SWAP1 POP PUSH3 0x2B5 SWAP2 SWAP1 PUSH3 0x2B9 JUMP JUMPDEST POP SWAP1 JUMP JUMPDEST JUMPDEST DUP1 DUP3 GT ISZERO PUSH3 0x2D4 JUMPI PUSH1 0x0 DUP2 PUSH1 0x0 SWAP1 SSTORE POP PUSH1 0x1 ADD PUSH3 0x2BA JUMP JUMPDEST POP SWAP1 JUMP JUMPDEST PUSH1 0x0 PUSH1 0x40 MLOAD SWAP1 POP SWAP1 JUMP JUMPDEST PUSH1 0x0 DUP1 REVERT JUMPDEST PUSH1 0x0 DUP1 REVERT JUMPDEST PUSH1 0x0 PUSH20 0xFFFFFFFFFFFFFFFFFFFFFFFFFFFFFFFFFFFFFFFF DUP3 AND SWAP1 POP SWAP2 SWAP1 POP JUMP JUMPDEST PUSH1 0x0 PUSH3 0x319 DUP3 PUSH3 0x2EC JUMP JUMPDEST SWAP1 POP SWAP2 SWAP1 POP JUMP JUMPDEST PUSH3 0x32B DUP2 PUSH3 0x30C JUMP JUMPDEST DUP2 EQ PUSH3 0x337 JUMPI PUSH1 0x0 DUP1 REVERT JUMPDEST POP JUMP JUMPDEST PUSH1 0x0 DUP2 MLOAD SWAP1 POP PUSH3 0x34B DUP2 PUSH3 0x320 JUMP JUMPDEST SWAP3 SWAP2 POP POP JUMP JUMPDEST PUSH1 0x0 DUP1 REVERT JUMPDEST PUSH1 0x0 DUP1 REVERT JUMPDEST PUSH1 0x0 PUSH1 0x1F NOT PUSH1 0x1F DUP4 ADD AND SWAP1 POP SWAP2 SWAP1 POP JUMP JUMPDEST PUSH32 0x4E487B7100000000000000000000000000000000000000000000000000000000 PUSH1 0x0 MSTORE PUSH1 0x41 PUSH1 0x4 MSTORE PUSH1 0x24 PUSH1 0x0 REVERT JUMPDEST PUSH3 0x3A6 DUP3 PUSH3 0x35B JUMP JUMPDEST DUP2 ADD DUP2 DUP2 LT PUSH8 0xFFFFFFFFFFFFFFFF DUP3 GT OR ISZERO PUSH3 0x3C8 JUMPI PUSH3 0x3C7 PUSH3 0x36C JUMP JUMPDEST JUMPDEST DUP1 PUSH1 0x40 MSTORE POP POP POP JUMP JUMPDEST PUSH1 0x0 PUSH3 0x3DD PUSH3 0x2D8 JUMP JUMPDEST SWAP1 POP PUSH3 0x3EB DUP3 DUP3 PUSH3 0x39B JUMP JUMPDEST SWAP2 SWAP1 POP JUMP JUMPDEST PUSH1 0x0 PUSH8 0xFFFFFFFFFFFFFFFF DUP3 GT ISZERO PUSH3 0x40E JUMPI PUSH3 0x40D PUSH3 0x36C JUMP JUMPDEST JUMPDEST PUSH3 0x419 DUP3 PUSH3 0x35B JUMP JUMPDEST SWAP1 POP PUSH1 0x20 DUP2 ADD SWAP1 POP SWAP2 SWAP1 POP JUMP JUMPDEST PUSH1 0x0 JUMPDEST DUP4 DUP2 LT ISZERO PUSH3 0x446 JUMPI DUP1 DUP3 ADD MLOAD DUP2 DUP5 ADD MSTORE PUSH1 0x20 DUP2 ADD SWAP1 POP PUSH3 0x429 JUMP JUMPDEST DUP4 DUP2 GT ISZERO PUSH3 0x456 JUMPI PUSH1 0x0 DUP5 DUP5 ADD MSTORE JUMPDEST POP POP POP POP JUMP JUMPDEST PUSH1 0x0 PUSH3 0x473 PUSH3 0x46D DUP5 PUSH3 0x3F0 JUMP JUMPDEST PUSH3 0x3D1 JUMP JUMPDEST SWAP1 POP DUP3 DUP2 MSTORE PUSH1 0x20 DUP2 ADD DUP5 DUP5 DUP5 ADD GT ISZERO PUSH3 0x492 JUMPI PUSH3 0x491 PUSH3 0x356 JUMP JUMPDEST JUMPDEST PUSH3 0x49F DUP5 DUP3 DUP6 PUSH3 0x426 JUMP JUMPDEST POP SWAP4 SWAP3 POP POP POP JUMP JUMPDEST PUSH1 0x0 DUP3 PUSH1 0x1F DUP4 ADD SLT PUSH3 0x4BF JUMPI PUSH3 0x4BE PUSH3 0x351 JUMP JUMPDEST JUMPDEST DUP2 MLOAD PUSH3 0x4D1 DUP5 DUP3 PUSH1 0x20 DUP7 ADD PUSH3 0x45C JUMP JUMPDEST SWAP2 POP POP SWAP3 SWAP2 POP POP JUMP JUMPDEST PUSH1 0x0 DUP1 PUSH1 0x0 DUP1 PUSH1 0x0 DUP1 PUSH1 0xC0 DUP8 DUP10 SUB SLT ISZERO PUSH3 0x4FA JUMPI PUSH3 0x4F9 PUSH3 0x2E2 JUMP JUMPDEST JUMPDEST PUSH1 0x0 PUSH3 0x50A DUP10 DUP3 DUP11 ADD PUSH3 0x33A JUMP JUMPDEST SWAP7 POP POP PUSH1 0x20 PUSH3 0x51D DUP10 DUP3 DUP11 ADD PUSH3 0x33A JUMP JUMPDEST SWAP6 POP POP PUSH1 0x40 DUP8 ADD MLOAD PUSH8 0xFFFFFFFFFFFFFFFF DUP2 GT ISZERO PUSH3 0x541 JUMPI PUSH3 0x540 PUSH3 0x2E7 JUMP JUMPDEST JUMPDEST PUSH3 0x54F DUP10 DUP3 DUP11 ADD PUSH3 0x4A7 JUMP JUMPDEST SWAP5 POP POP PUSH1 0x60 DUP8 ADD MLOAD PUSH8 0xFFFFFFFFFFFFFFFF DUP2 GT ISZERO PUSH3 0x573 JUMPI PUSH3 0x572 PUSH3 0x2E7 JUMP JUMPDEST JUMPDEST PUSH3 0x581 DUP10 DUP3 DUP11 ADD PUSH3 0x4A7 JUMP JUMPDEST SWAP4 POP POP PUSH1 0x80 PUSH3 0x594 DUP10 DUP3 DUP11 ADD PUSH3 0x33A JUMP JUMPDEST SWAP3 POP POP PUSH1 0xA0 PUSH3 0x5A7 DUP10 DUP3 DUP11 ADD PUSH3 0x33A JUMP JUMPDEST SWAP2 POP POP SWAP3 SWAP6 POP SWAP3 SWAP6 POP SWAP3 SWAP6 JUMP JUMPDEST PUSH32 0x4E487B7100000000000000000000000000000000000000000000000000000000 PUSH1 0x0 MSTORE PUSH1 0x22 PUSH1 0x4 MSTORE PUSH1 0x24 PUSH1 0x0 REVERT JUMPDEST PUSH1 0x0 PUSH1 0x2 DUP3 DIV SWAP1 POP PUSH1 0x1 DUP3 AND DUP1 PUSH3 0x5FC JUMPI PUSH1 0x7F DUP3 AND SWAP2 POP JUMPDEST PUSH1 0x20 DUP3 LT DUP2 EQ ISZERO PUSH3 0x613 JUMPI PUSH3 0x612 PUSH3 0x5B4 JUMP JUMPDEST JUMPDEST POP SWAP2 SWAP1 POP JUMP JUMPDEST PUSH2 0xEF3 DUP1 PUSH3 0x629 PUSH1 0x0 CODECOPY PUSH1 0x0 RETURN INVALID PUSH1 0x80 PUSH1 0x40 MSTORE CALLVALUE DUP1 ISZERO PUSH2 0x10 JUMPI PUSH1 0x0 DUP1 REVERT JUMPDEST POP PUSH1 0x4 CALLDATASIZE LT PUSH2 0xA9 JUMPI PUSH1 0x0 CALLDATALOAD PUSH1 0xE0 SHR DUP1 PUSH4 0xA523B88A GT PUSH2 0x71 JUMPI DUP1 PUSH4 0xA523B88A EQ PUSH2 0x146 JUMPI DUP1 PUSH4 0xA6C3E6B9 EQ PUSH2 0x150 JUMPI DUP1 PUSH4 0xC5FE6FFC EQ PUSH2 0x16E JUMPI DUP1 PUSH4 0xC623674F EQ PUSH2 0x19E JUMPI DUP1 PUSH4 0xE5A0AF3D EQ PUSH2 0x1BC JUMPI DUP1 PUSH4 0xED777791 EQ PUSH2 0x1DA JUMPI PUSH2 0xA9 JUMP JUMPDEST DUP1 PUSH4 0x4051DDAC EQ PUSH2 0xAE JUMPI DUP1 PUSH4 0x46C922D1 EQ PUSH2 0xD2 JUMPI DUP1 PUSH4 0x4A79D50C EQ PUSH2 0xF0 JUMPI DUP1 PUSH4 0x8758CE83 EQ PUSH2 0x10E JUMPI DUP1 PUSH4 0x988E46C8 EQ PUSH2 0x12A JUMPI JUMPDEST PUSH1 0x0 DUP1 REVERT JUMPDEST PUSH2 0xB6 PUSH2 0x20A JUMP JUMPDEST PUSH1 0x40 MLOAD PUSH2 0xC9 SWAP8 SWAP7 SWAP6 SWAP5 SWAP4 SWAP3 SWAP2 SWAP1 PUSH2 0xB26 JUMP JUMPDEST PUSH1 0x40 MLOAD DUP1 SWAP2 SUB SWAP1 RETURN JUMPDEST PUSH2 0xDA PUSH2 0x4A4 JUMP JUMPDEST PUSH1 0x40 MLOAD PUSH2 0xE7 SWAP2 SWAP1 PUSH2 0xBB1 JUMP JUMPDEST PUSH1 0x40 MLOAD DUP1 SWAP2 SUB SWAP1 RETURN JUMPDEST PUSH2 0xF8 PUSH2 0x4C8 JUMP JUMPDEST PUSH1 0x40 MLOAD PUSH2 0x105 SWAP2 SWAP1 PUSH2 0xBCC JUMP JUMPDEST PUSH1 0x40 MLOAD DUP1 SWAP2 SUB SWAP1 RETURN JUMPDEST PUSH2 0x128 PUSH1 0x4 DUP1 CALLDATASIZE SUB DUP2 ADD SWAP1 PUSH2 0x123 SWAP2 SWAP1 PUSH2 0xC1F JUMP JUMPDEST PUSH2 0x556 JUMP JUMPDEST STOP JUMPDEST PUSH2 0x144 PUSH1 0x4 DUP1 CALLDATASIZE SUB DUP2 ADD SWAP1 PUSH2 0x13F SWAP2 SWAP1 PUSH2 0xC1F JUMP JUMPDEST PUSH2 0x64A JUMP JUMPDEST STOP JUMPDEST PUSH2 0x14E PUSH2 0x73E JUMP JUMPDEST STOP JUMPDEST PUSH2 0x158 PUSH2 0x83D JUMP JUMPDEST PUSH1 0x40 MLOAD PUSH2 0x165 SWAP2 SWAP1 PUSH2 0xBB1 JUMP JUMPDEST PUSH1 0x40 MLOAD DUP1 SWAP2 SUB SWAP1 RETURN JUMPDEST PUSH2 0x188 PUSH1 0x4 DUP1 CALLDATASIZE SUB DUP2 ADD SWAP1 PUSH2 0x183 SWAP2 SWAP1 PUSH2 0xC78 JUMP JUMPDEST PUSH2 0x863 JUMP JUMPDEST PUSH1 0x40 MLOAD PUSH2 0x195 SWAP2 SWAP1 PUSH2 0xBB1 JUMP JUMPDEST PUSH1 0x40 MLOAD DUP1 SWAP2 SUB SWAP1 RETURN JUMPDEST PUSH2 0x1A6 PUSH2 0x8A2 JUMP JUMPDEST PUSH1 0x40 MLOAD PUSH2 0x1B3 SWAP2 SWAP1 PUSH2 0xBCC JUMP JUMPDEST PUSH1 0x40 MLOAD DUP1 SWAP2 SUB SWAP1 RETURN JUMPDEST PUSH2 0x1C4 PUSH2 0x930 JUMP JUMPDEST PUSH1 0x40 MLOAD PUSH2 0x1D1 SWAP2 SWAP1 PUSH2 0xCA5 JUMP JUMPDEST PUSH1 0x40 MLOAD DUP1 SWAP2 SUB SWAP1 RETURN JUMPDEST PUSH2 0x1F4 PUSH1 0x4 DUP1 CALLDATASIZE SUB DUP2 ADD SWAP1 PUSH2 0x1EF SWAP2 SWAP1 PUSH2 0xC78 JUMP JUMPDEST PUSH2 0x936 JUMP JUMPDEST PUSH1 0x40 MLOAD PUSH2 0x201 SWAP2 SWAP1 PUSH2 0xBB1 JUMP JUMPDEST PUSH1 0x40 MLOAD DUP1 SWAP2 SUB SWAP1 RETURN JUMPDEST PUSH1 0x0 DUP1 PUSH1 0x60 DUP1 PUSH1 0x60 DUP1 PUSH1 0x0 DUP1 PUSH1 0x0 SWAP1 SLOAD SWAP1 PUSH2 0x100 EXP SWAP1 DIV PUSH20 0xFFFFFFFFFFFFFFFFFFFFFFFFFFFFFFFFFFFFFFFF AND PUSH1 0x1 PUSH1 0x0 SWAP1 SLOAD SWAP1 PUSH2 0x100 EXP SWAP1 DIV PUSH20 0xFFFFFFFFFFFFFFFFFFFFFFFFFFFFFFFFFFFFFFFF AND PUSH1 0x2 PUSH1 0x3 PUSH1 0x4 PUSH1 0x5 PUSH1 0x7 SLOAD DUP5 DUP1 SLOAD PUSH2 0x271 SWAP1 PUSH2 0xCEF JUMP JUMPDEST DUP1 PUSH1 0x1F ADD PUSH1 0x20 DUP1 SWAP2 DIV MUL PUSH1 0x20 ADD PUSH1 0x40 MLOAD SWAP1 DUP2 ADD PUSH1 0x40 MSTORE DUP1 SWAP3 SWAP2 SWAP1 DUP2 DUP2 MSTORE PUSH1 0x20 ADD DUP3 DUP1 SLOAD PUSH2 0x29D SWAP1 PUSH2 0xCEF JUMP JUMPDEST DUP1 ISZERO PUSH2 0x2EA JUMPI DUP1 PUSH1 0x1F LT PUSH2 0x2BF JUMPI PUSH2 0x100 DUP1 DUP4 SLOAD DIV MUL DUP4 MSTORE SWAP2 PUSH1 0x20 ADD SWAP2 PUSH2 0x2EA JUMP JUMPDEST DUP3 ADD SWAP2 SWAP1 PUSH1 0x0 MSTORE PUSH1 0x20 PUSH1 0x0 KECCAK256 SWAP1 JUMPDEST DUP2 SLOAD DUP2 MSTORE SWAP1 PUSH1 0x1 ADD SWAP1 PUSH1 0x20 ADD DUP1 DUP4 GT PUSH2 0x2CD JUMPI DUP3 SWAP1 SUB PUSH1 0x1F AND DUP3 ADD SWAP2 JUMPDEST POP POP POP POP POP SWAP5 POP DUP4 DUP1 SLOAD PUSH2 0x2FD SWAP1 PUSH2 0xCEF JUMP JUMPDEST DUP1 PUSH1 0x1F ADD PUSH1 0x20 DUP1 SWAP2 DIV MUL PUSH1 0x20 ADD PUSH1 0x40 MLOAD SWAP1 DUP2 ADD PUSH1 0x40 MSTORE DUP1 SWAP3 SWAP2 SWAP1 DUP2 DUP2 MSTORE PUSH1 0x20 ADD DUP3 DUP1 SLOAD PUSH2 0x329 SWAP1 PUSH2 0xCEF JUMP JUMPDEST DUP1 ISZERO PUSH2 0x376 JUMPI DUP1 PUSH1 0x1F LT PUSH2 0x34B JUMPI PUSH2 0x100 DUP1 DUP4 SLOAD DIV MUL DUP4 MSTORE SWAP2 PUSH1 0x20 ADD SWAP2 PUSH2 0x376 JUMP JUMPDEST DUP3 ADD SWAP2 SWAP1 PUSH1 0x0 MSTORE PUSH1 0x20 PUSH1 0x0 KECCAK256 SWAP1 JUMPDEST DUP2 SLOAD DUP2 MSTORE SWAP1 PUSH1 0x1 ADD SWAP1 PUSH1 0x20 ADD DUP1 DUP4 GT PUSH2 0x359 JUMPI DUP3 SWAP1 SUB PUSH1 0x1F AND DUP3 ADD SWAP2 JUMPDEST POP POP POP POP POP SWAP4 POP DUP3 DUP1 SLOAD DUP1 PUSH1 0x20 MUL PUSH1 0x20 ADD PUSH1 0x40 MLOAD SWAP1 DUP2 ADD PUSH1 0x40 MSTORE DUP1 SWAP3 SWAP2 SWAP1 DUP2 DUP2 MSTORE PUSH1 0x20 ADD DUP3 DUP1 SLOAD DUP1 ISZERO PUSH2 0x3FE JUMPI PUSH1 0x20 MUL DUP3 ADD SWAP2 SWAP1 PUSH1 0x0 MSTORE PUSH1 0x20 PUSH1 0x0 KECCAK256 SWAP1 JUMPDEST DUP2 PUSH1 0x0 SWAP1 SLOAD SWAP1 PUSH2 0x100 EXP SWAP1 DIV PUSH20 0xFFFFFFFFFFFFFFFFFFFFFFFFFFFFFFFFFFFFFFFF AND PUSH20 0xFFFFFFFFFFFFFFFFFFFFFFFFFFFFFFFFFFFFFFFF AND DUP2 MSTORE PUSH1 0x20 ADD SWAP1 PUSH1 0x1 ADD SWAP1 DUP1 DUP4 GT PUSH2 0x3B4 JUMPI JUMPDEST POP POP POP POP POP SWAP3 POP DUP2 DUP1 SLOAD DUP1 PUSH1 0x20 MUL PUSH1 0x20 ADD PUSH1 0x40 MLOAD SWAP1 DUP2 ADD PUSH1 0x40 MSTORE DUP1 SWAP3 SWAP2 SWAP1 DUP2 DUP2 MSTORE PUSH1 0x20 ADD DUP3 DUP1 SLOAD DUP1 ISZERO PUSH2 0x486 JUMPI PUSH1 0x20 MUL DUP3 ADD SWAP2 SWAP1 PUSH1 0x0 MSTORE PUSH1 0x20 PUSH1 0x0 KECCAK256 SWAP1 JUMPDEST DUP2 PUSH1 0x0 SWAP1 SLOAD SWAP1 PUSH2 0x100 EXP SWAP1 DIV PUSH20 0xFFFFFFFFFFFFFFFFFFFFFFFFFFFFFFFFFFFFFFFF AND PUSH20 0xFFFFFFFFFFFFFFFFFFFFFFFFFFFFFFFFFFFFFFFF AND DUP2 MSTORE PUSH1 0x20 ADD SWAP1 PUSH1 0x1 ADD SWAP1 DUP1 DUP4 GT PUSH2 0x43C JUMPI JUMPDEST POP POP POP POP POP SWAP2 POP SWAP7 POP SWAP7 POP SWAP7 POP SWAP7 POP SWAP7 POP SWAP7 POP SWAP7 POP SWAP1 SWAP2 SWAP3 SWAP4 SWAP5 SWAP6 SWAP7 JUMP JUMPDEST PUSH1 0x0 DUP1 SLOAD SWAP1 PUSH2 0x100 EXP SWAP1 DIV PUSH20 0xFFFFFFFFFFFFFFFFFFFFFFFFFFFFFFFFFFFFFFFF AND DUP2 JUMP JUMPDEST PUSH1 0x2 DUP1 SLOAD PUSH2 0x4D5 SWAP1 PUSH2 0xCEF JUMP JUMPDEST DUP1 PUSH1 0x1F ADD PUSH1 0x20 DUP1 SWAP2 DIV MUL PUSH1 0x20 ADD PUSH1 0x40 MLOAD SWAP1 DUP2 ADD PUSH1 0x40 MSTORE DUP1 SWAP3 SWAP2 SWAP1 DUP2 DUP2 MSTORE PUSH1 0x20 ADD DUP3 DUP1 SLOAD PUSH2 0x501 SWAP1 PUSH2 0xCEF JUMP JUMPDEST DUP1 ISZERO PUSH2 0x54E JUMPI DUP1 PUSH1 0x1F LT PUSH2 0x523 JUMPI PUSH2 0x100 DUP1 DUP4 SLOAD DIV MUL DUP4 MSTORE SWAP2 PUSH1 0x20 ADD SWAP2 PUSH2 0x54E JUMP JUMPDEST DUP3 ADD SWAP2 SWAP1 PUSH1 0x0 MSTORE PUSH1 0x20 PUSH1 0x0 KECCAK256 SWAP1 JUMPDEST DUP2 SLOAD DUP2 MSTORE SWAP1 PUSH1 0x1 ADD SWAP1 PUSH1 0x20 ADD DUP1 DUP4 GT PUSH2 0x531 JUMPI DUP3 SWAP1 SUB PUSH1 0x1F AND DUP3 ADD SWAP2 JUMPDEST POP POP POP POP POP DUP2 JUMP JUMPDEST PUSH1 0x0 DUP1 SLOAD SWAP1 PUSH2 0x100 EXP SWAP1 DIV PUSH20 0xFFFFFFFFFFFFFFFFFFFFFFFFFFFFFFFFFFFFFFFF AND PUSH20 0xFFFFFFFFFFFFFFFFFFFFFFFFFFFFFFFFFFFFFFFF AND CALLER PUSH20 0xFFFFFFFFFFFFFFFFFFFFFFFFFFFFFFFFFFFFFFFF AND EQ PUSH2 0x5E4 JUMPI PUSH1 0x40 MLOAD PUSH32 0x8C379A000000000000000000000000000000000000000000000000000000000 DUP2 MSTORE PUSH1 0x4 ADD PUSH2 0x5DB SWAP1 PUSH2 0xDB9 JUMP JUMPDEST PUSH1 0x40 MLOAD DUP1 SWAP2 SUB SWAP1 REVERT JUMPDEST PUSH1 0x4 DUP2 SWAP1 DUP1 PUSH1 0x1 DUP2 SLOAD ADD DUP1 DUP3 SSTORE DUP1 SWAP2 POP POP PUSH1 0x1 SWAP1 SUB SWAP1 PUSH1 0x0 MSTORE PUSH1 0x20 PUSH1 0x0 KECCAK256 ADD PUSH1 0x0 SWAP1 SWAP2 SWAP1 SWAP2 SWAP1 SWAP2 PUSH2 0x100 EXP DUP2 SLOAD DUP2 PUSH20 0xFFFFFFFFFFFFFFFFFFFFFFFFFFFFFFFFFFFFFFFF MUL NOT AND SWAP1 DUP4 PUSH20 0xFFFFFFFFFFFFFFFFFFFFFFFFFFFFFFFFFFFFFFFF AND MUL OR SWAP1 SSTORE POP POP JUMP JUMPDEST PUSH1 0x0 DUP1 SLOAD SWAP1 PUSH2 0x100 EXP SWAP1 DIV PUSH20 0xFFFFFFFFFFFFFFFFFFFFFFFFFFFFFFFFFFFFFFFF AND PUSH20 0xFFFFFFFFFFFFFFFFFFFFFFFFFFFFFFFFFFFFFFFF AND CALLER PUSH20 0xFFFFFFFFFFFFFFFFFFFFFFFFFFFFFFFFFFFFFFFF AND EQ PUSH2 0x6D8 JUMPI PUSH1 0x40 MLOAD PUSH32 0x8C379A000000000000000000000000000000000000000000000000000000000 DUP2 MSTORE PUSH1 0x4 ADD PUSH2 0x6CF SWAP1 PUSH2 0xDB9 JUMP JUMPDEST PUSH1 0x40 MLOAD DUP1 SWAP2 SUB SWAP1 REVERT JUMPDEST PUSH1 0x5 DUP2 SWAP1 DUP1 PUSH1 0x1 DUP2 SLOAD ADD DUP1 DUP3 SSTORE DUP1 SWAP2 POP POP PUSH1 0x1 SWAP1 SUB SWAP1 PUSH1 0x0 MSTORE PUSH1 0x20 PUSH1 0x0 KECCAK256 ADD PUSH1 0x0 SWAP1 SWAP2 SWAP1 SWAP2 SWAP1 SWAP2 PUSH2 0x100 EXP DUP2 SLOAD DUP2 PUSH20 0xFFFFFFFFFFFFFFFFFFFFFFFFFFFFFFFFFFFFFFFF MUL NOT AND SWAP1 DUP4 PUSH20 0xFFFFFFFFFFFFFFFFFFFFFFFFFFFFFFFFFFFFFFFF AND MUL OR SWAP1 SSTORE POP POP JUMP JUMPDEST PUSH1 0x6 PUSH1 0x0 CALLER PUSH20 0xFFFFFFFFFFFFFFFFFFFFFFFFFFFFFFFFFFFFFFFF AND PUSH20 0xFFFFFFFFFFFFFFFFFFFFFFFFFFFFFFFFFFFFFFFF AND DUP2 MSTORE PUSH1 0x20 ADD SWAP1 DUP2 MSTORE PUSH1 0x20 ADD PUSH1 0x0 KECCAK256 PUSH1 0x0 SWAP1 SLOAD SWAP1 PUSH2 0x100 EXP SWAP1 DIV PUSH1 0xFF AND ISZERO PUSH2 0x7CB JUMPI PUSH1 0x40 MLOAD PUSH32 0x8C379A000000000000000000000000000000000000000000000000000000000 DUP2 MSTORE PUSH1 0x4 ADD PUSH2 0x7C2 SWAP1 PUSH2 0xE25 JUMP JUMPDEST PUSH1 0x40 MLOAD DUP1 SWAP2 SUB SWAP1 REVERT JUMPDEST PUSH1 0x1 PUSH1 0x6 PUSH1 0x0 CALLER PUSH20 0xFFFFFFFFFFFFFFFFFFFFFFFFFFFFFFFFFFFFFFFF AND PUSH20 0xFFFFFFFFFFFFFFFFFFFFFFFFFFFFFFFFFFFFFFFF AND DUP2 MSTORE PUSH1 0x20 ADD SWAP1 DUP2 MSTORE PUSH1 0x20 ADD PUSH1 0x0 KECCAK256 PUSH1 0x0 PUSH2 0x100 EXP DUP2 SLOAD DUP2 PUSH1 0xFF MUL NOT AND SWAP1 DUP4 ISZERO ISZERO MUL OR SWAP1 SSTORE POP PUSH1 0x7 PUSH1 0x0 DUP2 SLOAD DUP1 SWAP3 SWAP2 SWAP1 PUSH2 0x836 SWAP1 PUSH2 0xE74 JUMP JUMPDEST SWAP2 SWAP1 POP SSTORE POP JUMP JUMPDEST PUSH1 0x1 PUSH1 0x0 SWAP1 SLOAD SWAP1 PUSH2 0x100 EXP SWAP1 DIV PUSH20 0xFFFFFFFFFFFFFFFFFFFFFFFFFFFFFFFFFFFFFFFF AND DUP2 JUMP JUMPDEST PUSH1 0x5 DUP2 DUP2 SLOAD DUP2 LT PUSH2 0x873 JUMPI PUSH1 0x0 DUP1 REVERT JUMPDEST SWAP1 PUSH1 0x0 MSTORE PUSH1 0x20 PUSH1 0x0 KECCAK256 ADD PUSH1 0x0 SWAP2 POP SLOAD SWAP1 PUSH2 0x100 EXP SWAP1 DIV PUSH20 0xFFFFFFFFFFFFFFFFFFFFFFFFFFFFFFFFFFFFFFFF AND DUP2 JUMP JUMPDEST PUSH1 0x3 DUP1 SLOAD PUSH2 0x8AF SWAP1 PUSH2 0xCEF JUMP JUMPDEST DUP1 PUSH1 0x1F ADD PUSH1 0x20 DUP1 SWAP2 DIV MUL PUSH1 0x20 ADD PUSH1 0x40 MLOAD SWAP1 DUP2 ADD PUSH1 0x40 MSTORE DUP1 SWAP3 SWAP2 SWAP1 DUP2 DUP2 MSTORE PUSH1 0x20 ADD DUP3 DUP1 SLOAD PUSH2 0x8DB SWAP1 PUSH2 0xCEF JUMP JUMPDEST DUP1 ISZERO PUSH2 0x928 JUMPI DUP1 PUSH1 0x1F LT PUSH2 0x8FD JUMPI PUSH2 0x100 DUP1 DUP4 SLOAD DIV MUL DUP4 MSTORE SWAP2 PUSH1 0x20 ADD SWAP2 PUSH2 0x928 JUMP JUMPDEST DUP3 ADD SWAP2 SWAP1 PUSH1 0x0 MSTORE PUSH1 0x20 PUSH1 0x0 KECCAK256 SWAP1 JUMPDEST DUP2 SLOAD DUP2 MSTORE SWAP1 PUSH1 0x1 ADD SWAP1 PUSH1 0x20 ADD DUP1 DUP4 GT PUSH2 0x90B JUMPI DUP3 SWAP1 SUB PUSH1 0x1F AND DUP3 ADD SWAP2 JUMPDEST POP POP POP POP POP DUP2 JUMP JUMPDEST PUSH1 0x7 SLOAD DUP2 JUMP JUMPDEST PUSH1 0x4 DUP2 DUP2 SLOAD DUP2 LT PUSH2 0x946 JUMPI PUSH1 0x0 DUP1 REVERT JUMPDEST SWAP1 PUSH1 0x0 MSTORE PUSH1 0x20 PUSH1 0x0 KECCAK256 ADD PUSH1 0x0 SWAP2 POP SLOAD SWAP1 PUSH2 0x100 EXP SWAP1 DIV PUSH20 0xFFFFFFFFFFFFFFFFFFFFFFFFFFFFFFFFFFFFFFFF AND DUP2 JUMP JUMPDEST PUSH1 0x0 PUSH20 0xFFFFFFFFFFFFFFFFFFFFFFFFFFFFFFFFFFFFFFFF DUP3 AND SWAP1 POP SWAP2 SWAP1 POP JUMP JUMPDEST PUSH1 0x0 PUSH2 0x9A0 DUP3 PUSH2 0x975 JUMP JUMPDEST SWAP1 POP SWAP2 SWAP1 POP JUMP JUMPDEST PUSH2 0x9B0 DUP2 PUSH2 0x995 JUMP JUMPDEST DUP3 MSTORE POP POP JUMP JUMPDEST PUSH1 0x0 DUP2 MLOAD SWAP1 POP SWAP2 SWAP1 POP JUMP JUMPDEST PUSH1 0x0 DUP3 DUP3 MSTORE PUSH1 0x20 DUP3 ADD SWAP1 POP SWAP3 SWAP2 POP POP JUMP JUMPDEST PUSH1 0x0 JUMPDEST DUP4 DUP2 LT ISZERO PUSH2 0x9F0 JUMPI DUP1 DUP3 ADD MLOAD DUP2 DUP5 ADD MSTORE PUSH1 0x20 DUP2 ADD SWAP1 POP PUSH2 0x9D5 JUMP JUMPDEST DUP4 DUP2 GT ISZERO PUSH2 0x9FF JUMPI PUSH1 0x0 DUP5 DUP5 ADD MSTORE JUMPDEST POP POP POP POP JUMP JUMPDEST PUSH1 0x0 PUSH1 0x1F NOT PUSH1 0x1F DUP4 ADD AND SWAP1 POP SWAP2 SWAP1 POP JUMP JUMPDEST PUSH1 0x0 PUSH2 0xA21 DUP3 PUSH2 0x9B6 JUMP JUMPDEST PUSH2 0xA2B DUP2 DUP6 PUSH2 0x9C1 JUMP JUMPDEST SWAP4 POP PUSH2 0xA3B DUP2 DUP6 PUSH1 0x20 DUP7 ADD PUSH2 0x9D2 JUMP JUMPDEST PUSH2 0xA44 DUP2 PUSH2 0xA05 JUMP JUMPDEST DUP5 ADD SWAP2 POP POP SWAP3 SWAP2 POP POP JUMP JUMPDEST PUSH1 0x0 DUP2 MLOAD SWAP1 POP SWAP2 SWAP1 POP JUMP JUMPDEST PUSH1 0x0 DUP3 DUP3 MSTORE PUSH1 0x20 DUP3 ADD SWAP1 POP SWAP3 SWAP2 POP POP JUMP JUMPDEST PUSH1 0x0 DUP2 SWAP1 POP PUSH1 0x20 DUP3 ADD SWAP1 POP SWAP2 SWAP1 POP JUMP JUMPDEST PUSH2 0xA84 DUP2 PUSH2 0x995 JUMP JUMPDEST DUP3 MSTORE POP POP JUMP JUMPDEST PUSH1 0x0 PUSH2 0xA96 DUP4 DUP4 PUSH2 0xA7B JUMP JUMPDEST PUSH1 0x20 DUP4 ADD SWAP1 POP SWAP3 SWAP2 POP POP JUMP JUMPDEST PUSH1 0x0 PUSH1 0x20 DUP3 ADD SWAP1 POP SWAP2 SWAP1 POP JUMP JUMPDEST PUSH1 0x0 PUSH2 0xABA DUP3 PUSH2 0xA4F JUMP JUMPDEST PUSH2 0xAC4 DUP2 DUP6 PUSH2 0xA5A JUMP JUMPDEST SWAP4 POP PUSH2 0xACF DUP4 PUSH2 0xA6B JUMP JUMPDEST DUP1 PUSH1 0x0 JUMPDEST DUP4 DUP2 LT ISZERO PUSH2 0xB00 JUMPI DUP2 MLOAD PUSH2 0xAE7 DUP9 DUP3 PUSH2 0xA8A JUMP JUMPDEST SWAP8 POP PUSH2 0xAF2 DUP4 PUSH2 0xAA2 JUMP JUMPDEST SWAP3 POP POP PUSH1 0x1 DUP2 ADD SWAP1 POP PUSH2 0xAD3 JUMP JUMPDEST POP DUP6 SWAP4 POP POP POP POP SWAP3 SWAP2 POP POP JUMP JUMPDEST PUSH1 0x0 DUP2 SWAP1 POP SWAP2 SWAP1 POP JUMP JUMPDEST PUSH2 0xB20 DUP2 PUSH2 0xB0D JUMP JUMPDEST DUP3 MSTORE POP POP JUMP JUMPDEST PUSH1 0x0 PUSH1 0xE0 DUP3 ADD SWAP1 POP PUSH2 0xB3B PUSH1 0x0 DUP4 ADD DUP11 PUSH2 0x9A7 JUMP JUMPDEST PUSH2 0xB48 PUSH1 0x20 DUP4 ADD DUP10 PUSH2 0x9A7 JUMP JUMPDEST DUP2 DUP2 SUB PUSH1 0x40 DUP4 ADD MSTORE PUSH2 0xB5A DUP2 DUP9 PUSH2 0xA16 JUMP JUMPDEST SWAP1 POP DUP2 DUP2 SUB PUSH1 0x60 DUP4 ADD MSTORE PUSH2 0xB6E DUP2 DUP8 PUSH2 0xA16 JUMP JUMPDEST SWAP1 POP DUP2 DUP2 SUB PUSH1 0x80 DUP4 ADD MSTORE PUSH2 0xB82 DUP2 DUP7 PUSH2 0xAAF JUMP JUMPDEST SWAP1 POP DUP2 DUP2 SUB PUSH1 0xA0 DUP4 ADD MSTORE PUSH2 0xB96 DUP2 DUP6 PUSH2 0xAAF JUMP JUMPDEST SWAP1 POP PUSH2 0xBA5 PUSH1 0xC0 DUP4 ADD DUP5 PUSH2 0xB17 JUMP JUMPDEST SWAP9 SWAP8 POP POP POP POP POP POP POP POP JUMP JUMPDEST PUSH1 0x0 PUSH1 0x20 DUP3 ADD SWAP1 POP PUSH2 0xBC6 PUSH1 0x0 DUP4 ADD DUP5 PUSH2 0x9A7 JUMP JUMPDEST SWAP3 SWAP2 POP POP JUMP JUMPDEST PUSH1 0x0 PUSH1 0x20 DUP3 ADD SWAP1 POP DUP2 DUP2 SUB PUSH1 0x0 DUP4 ADD MSTORE PUSH2 0xBE6 DUP2 DUP5 PUSH2 0xA16 JUMP JUMPDEST SWAP1 POP SWAP3 SWAP2 POP POP JUMP JUMPDEST PUSH1 0x0 DUP1 REVERT JUMPDEST PUSH2 0xBFC DUP2 PUSH2 0x995 JUMP JUMPDEST DUP2 EQ PUSH2 0xC07 JUMPI PUSH1 0x0 DUP1 REVERT JUMPDEST POP JUMP JUMPDEST PUSH1 0x0 DUP2 CALLDATALOAD SWAP1 POP PUSH2 0xC19 DUP2 PUSH2 0xBF3 JUMP JUMPDEST SWAP3 SWAP2 POP POP JUMP JUMPDEST PUSH1 0x0 PUSH1 0x20 DUP3 DUP5 SUB SLT ISZERO PUSH2 0xC35 JUMPI PUSH2 0xC34 PUSH2 0xBEE JUMP JUMPDEST JUMPDEST PUSH1 0x0 PUSH2 0xC43 DUP5 DUP3 DUP6 ADD PUSH2 0xC0A JUMP JUMPDEST SWAP2 POP POP SWAP3 SWAP2 POP POP JUMP JUMPDEST PUSH2 0xC55 DUP2 PUSH2 0xB0D JUMP JUMPDEST DUP2 EQ PUSH2 0xC60 JUMPI PUSH1 0x0 DUP1 REVERT JUMPDEST POP JUMP JUMPDEST PUSH1 0x0 DUP2 CALLDATALOAD SWAP1 POP PUSH2 0xC72 DUP2 PUSH2 0xC4C JUMP JUMPDEST SWAP3 SWAP2 POP POP JUMP JUMPDEST PUSH1 0x0 PUSH1 0x20 DUP3 DUP5 SUB SLT ISZERO PUSH2 0xC8E JUMPI PUSH2 0xC8D PUSH2 0xBEE JUMP JUMPDEST JUMPDEST PUSH1 0x0 PUSH2 0xC9C DUP5 DUP3 DUP6 ADD PUSH2 0xC63 JUMP JUMPDEST SWAP2 POP POP SWAP3 SWAP2 POP POP JUMP JUMPDEST PUSH1 0x0 PUSH1 0x20 DUP3 ADD SWAP1 POP PUSH2 0xCBA PUSH1 0x0 DUP4 ADD DUP5 PUSH2 0xB17 JUMP JUMPDEST SWAP3 SWAP2 POP POP JUMP JUMPDEST PUSH32 0x4E487B7100000000000000000000000000000000000000000000000000000000 PUSH1 0x0 MSTORE PUSH1 0x22 PUSH1 0x4 MSTORE PUSH1 0x24 PUSH1 0x0 REVERT JUMPDEST PUSH1 0x0 PUSH1 0x2 DUP3 DIV SWAP1 POP PUSH1 0x1 DUP3 AND DUP1 PUSH2 0xD07 JUMPI PUSH1 0x7F DUP3 AND SWAP2 POP JUMPDEST PUSH1 0x20 DUP3 LT DUP2 EQ ISZERO PUSH2 0xD1B JUMPI PUSH2 0xD1A PUSH2 0xCC0 JUMP JUMPDEST JUMPDEST POP SWAP2 SWAP1 POP JUMP JUMPDEST PUSH32 0x546869732066756E6374696F6E2068617320746F2062652063616C6C65642066 PUSH1 0x0 DUP3 ADD MSTORE PUSH32 0x726F6D207468652073746F727920636F6E747261637420627920616E20616363 PUSH1 0x20 DUP3 ADD MSTORE PUSH32 0x657074656420617574686F72206F6E6C79000000000000000000000000000000 PUSH1 0x40 DUP3 ADD MSTORE POP JUMP JUMPDEST PUSH1 0x0 PUSH2 0xDA3 PUSH1 0x51 DUP4 PUSH2 0x9C1 JUMP JUMPDEST SWAP2 POP PUSH2 0xDAE DUP3 PUSH2 0xD21 JUMP JUMPDEST PUSH1 0x60 DUP3 ADD SWAP1 POP SWAP2 SWAP1 POP JUMP JUMPDEST PUSH1 0x0 PUSH1 0x20 DUP3 ADD SWAP1 POP DUP2 DUP2 SUB PUSH1 0x0 DUP4 ADD MSTORE PUSH2 0xDD2 DUP2 PUSH2 0xD96 JUMP JUMPDEST SWAP1 POP SWAP2 SWAP1 POP JUMP JUMPDEST PUSH32 0x596F75206C696B656420746869732073746F7279206265666F72650000000000 PUSH1 0x0 DUP3 ADD MSTORE POP JUMP JUMPDEST PUSH1 0x0 PUSH2 0xE0F PUSH1 0x1B DUP4 PUSH2 0x9C1 JUMP JUMPDEST SWAP2 POP PUSH2 0xE1A DUP3 PUSH2 0xDD9 JUMP JUMPDEST PUSH1 0x20 DUP3 ADD SWAP1 POP SWAP2 SWAP1 POP JUMP JUMPDEST PUSH1 0x0 PUSH1 0x20 DUP3 ADD SWAP1 POP DUP2 DUP2 SUB PUSH1 0x0 DUP4 ADD MSTORE PUSH2 0xE3E DUP2 PUSH2 0xE02 JUMP JUMPDEST SWAP1 POP SWAP2 SWAP1 POP JUMP JUMPDEST PUSH32 0x4E487B7100000000000000000000000000000000000000000000000000000000 PUSH1 0x0 MSTORE PUSH1 0x11 PUSH1 0x4 MSTORE PUSH1 0x24 PUSH1 0x0 REVERT JUMPDEST PUSH1 0x0 PUSH2 0xE7F DUP3 PUSH2 0xB0D JUMP JUMPDEST SWAP2 POP PUSH32 0xFFFFFFFFFFFFFFFFFFFFFFFFFFFFFFFFFFFFFFFFFFFFFFFFFFFFFFFFFFFFFFFF DUP3 EQ ISZERO PUSH2 0xEB2 JUMPI PUSH2 0xEB1 PUSH2 0xE45 JUMP JUMPDEST JUMPDEST PUSH1 0x1 DUP3 ADD SWAP1 POP SWAP2 SWAP1 POP JUMP INVALID LOG2 PUSH5 0x6970667358 0x22 SLT KECCAK256 STOP 0x23 0xB6 SWAP5 0xD6 EQ PUSH12 0xDD980BF988C157D7E5C27CBE EXP 0xCD 0xDA EQ PUSH32 0xB22F2459003837B064736F6C63430008090033A26469706673582212202E80AF 0xB4 PUSH14 0xBCDF1703BDC9EE35D031F9901DA7 0xC1 PUSH13 0xA3E13B9CEB64CE282992AA6473 PUSH16 0x6C634300080900330000000000000000 "},"gasEstimates":{"creation":{"codeDepositCost":"3416800","executionCost":"infinite","totalCost":"infinite"},"external":{"approveRequestToBuy(uint256)":"infinite","approveRequestToJoin(uint256)":"infinite","authorsForReact(uint256)":"4978","authorsForSolidity(address)":"2913","bought()":"2567","chaptersForReact(uint256)":"5000","chaptersForSolidity(address)":"2868","coverPhoto()":"infinite","createChapter(string,string,address,address)":"infinite","createRequestToBuy()":"123743","createRequestToJoin(string)":"infinite","getSummary()":"infinite","mainIdea()":"infinite","owner()":"2559","requestsToBuy(uint256)":"infinite","requestsToJoin(uint256)":"infinite","title()":"infinite"}},"methodIdentifiers":{"approveRequestToBuy(uint256)":"497c9419","approveRequestToJoin(uint256)":"98b79628","authorsForReact(uint256)":"9d3ed807","authorsForSolidity(address)":"3e5690f4","bought()":"34976b9b","chaptersForReact(uint256)":"b5202522","chaptersForSolidity(address)":"7f51aaf9","coverPhoto()":"d5ac2a87","createChapter(string,string,address,address)":"992b11dc","createRequestToBuy()":"14a7585d","createRequestToJoin(string)":"dfa14e23","getSummary()":"4051ddac","mainIdea()":"e8ae38e4","owner()":"8da5cb5b","requestsToBuy(uint256)":"6c0a6656","requestsToJoin(uint256)":"6fc6c579","title()":"4a79d50c"}},"storageLayout":{"storage":[{"astId":65,"contract":"Story.sol:Story","label":"title","offset":0,"slot":"0","type":"t_string_storage"},{"astId":67,"contract":"Story.sol:Story","label":"mainIdea","offset":0,"slot":"1","type":"t_string_storage"},{"astId":69,"contract":"Story.sol:Story","label":"coverPhoto","offset":0,"slot":"2","type":"t_string_storage"},{"astId":71,"contract":"Story.sol:Story","label":"_locked","offset":0,"slot":"3","type":"t_bool"},{"astId":75,"contract":"Story.sol:Story","label":"authorsForSolidity","offset":0,"slot":"4","type":"t_mapping(t_address,t_bool)"},{"astId":78,"contract":"Story.sol:Story","label":"authorsForReact","offset":0,"slot":"5","type":"t_array(t_address)dyn_storage"},{"astId":82,"contract":"Story.sol:Story","label":"chaptersForSolidity","offset":0,"slot":"6","type":"t_mapping(t_address,t_bool)"},{"astId":85,"contract":"Story.sol:Story","label":"chaptersForReact","offset":0,"slot":"7","type":"t_array(t_address)dyn_storage"},{"astId":102,"contract":"Story.sol:Story","label":"requestsToJoin","offset":0,"slot":"8","type":"t_array(t_struct(RequestToJoin)98_storage)dyn_storage"},{"astId":119,"contract":"Story.sol:Story","label":"requestsToBuy","offset":0,"slot":"9","type":"t_array(t_struct(RequestToBuy)115_storage)dyn_storage"},{"astId":121,"contract":"Story.sol:Story","label":"owner","offset":0,"slot":"10","type":"t_address"},{"astId":123,"contract":"Story.sol:Story","label":"bought","offset":20,"slot":"10","type":"t_bool"}],"types":{"t_address":{"encoding":"inplace","label":"address","numberOfBytes":"20"},"t_array(t_address)dyn_storage":{"base":"t_address","encoding":"dynamic_array","label":"address[]","numberOfBytes":"32"},"t_array(t_struct(RequestToBuy)115_storage)dyn_storage":{"base":"t_struct(RequestToBuy)115_storage","encoding":"dynamic_array","label":"struct Story.RequestToBuy[]","numberOfBytes":"32"},"t_array(t_struct(RequestToJoin)98_storage)dyn_storage":{"base":"t_struct(RequestToJoin)98_storage","encoding":"dynamic_array","label":"struct Story.RequestToJoin[]","numberOfBytes":"32"},"t_bool":{"encoding":"inplace","label":"bool","numberOfBytes":"1"},"t_mapping(t_address,t_bool)":{"encoding":"mapping","key":"t_address","label":"mapping(address => bool)","numberOfBytes":"32","value":"t_bool"},"t_string_storage":{"encoding":"bytes","label":"string","numberOfBytes":"32"},"t_struct(RequestToBuy)115_storage":{"encoding":"inplace","label":"struct Story.RequestToBuy","members":[{"astId":104,"contract":"Story.sol:Story","label":"price","offset":0,"slot":"0","type":"t_uint256"},{"astId":106,"contract":"Story.sol:Story","label":"bidder","offset":0,"slot":"1","type":"t_address"},{"astId":110,"contract":"Story.sol:Story","label":"approvers","offset":0,"slot":"2","type":"t_mapping(t_address,t_bool)"},{"astId":112,"contract":"Story.sol:Story","label":"approversCount","offset":0,"slot":"3","type":"t_uint256"},{"astId":114,"contract":"Story.sol:Story","label":"status","offset":0,"slot":"4","type":"t_bool"}],"numberOfBytes":"160"},"t_struct(RequestToJoin)98_storage":{"encoding":"inplace","label":"struct Story.RequestToJoin","members":[{"astId":87,"contract":"Story.sol:Story","label":"proposal","offset":0,"slot":"0","type":"t_string_storage"},{"astId":89,"contract":"Story.sol:Story","label":"author","offset":0,"slot":"1","type":"t_address"},{"astId":93,"contract":"Story.sol:Story","label":"approvers","offset":0,"slot":"2","type":"t_mapping(t_address,t_bool)"},{"astId":95,"contract":"Story.sol:Story","label":"approversCount","offset":0,"slot":"3","type":"t_uint256"},{"astId":97,"contract":"Story.sol:Story","label":"status","offset":0,"slot":"4","type":"t_bool"}],"numberOfBytes":"160"},"t_uint256":{"encoding":"inplace","label":"uint256","numberOfBytes":"32"}}},"userdoc":{"kind":"user","methods":{},"version":1}}