{"abi":[{"inputs":[],"name":"createStory","outputs":[{"internalType":"address","name":"","type":"address"}],"stateMutability":"nonpayable","type":"function"},{"inputs":[{"internalType":"uint256","name":"","type":"uint256"}],"name":"deployedStories","outputs":[{"internalType":"address","name":"","type":"address"}],"stateMutability":"view","type":"function"},{"inputs":[],"name":"getDeployedStories","outputs":[{"internalType":"address[]","name":"","type":"address[]"}],"stateMutability":"view","type":"function"}],"devdoc":{"kind":"dev","methods":{},"version":1},"evm":{"assembly":"    /* \"Story.sol\":62:448  contract StoryFactory {... */\n  mstore(0x40, 0x80)\n  callvalue\n  dup1\n  iszero\n  tag_1\n  jumpi\n  0x00\n  dup1\n  revert\ntag_1:\n  pop\n  dataSize(sub_0)\n  dup1\n  dataOffset(sub_0)\n  0x00\n  codecopy\n  0x00\n  return\nstop\n\nsub_0: assembly {\n        /* \"Story.sol\":62:448  contract StoryFactory {... */\n      mstore(0x40, 0x80)\n      callvalue\n      dup1\n      iszero\n      tag_1\n      jumpi\n      0x00\n      dup1\n      revert\n    tag_1:\n      pop\n      jumpi(tag_2, lt(calldatasize, 0x04))\n      shr(0xe0, calldataload(0x00))\n      dup1\n      0x18351ea7\n      eq\n      tag_3\n      jumpi\n      dup1\n      0x2ff2bdd5\n      eq\n      tag_4\n      jumpi\n      dup1\n      0xcac0f8a4\n      eq\n      tag_5\n      jumpi\n    tag_2:\n      0x00\n      dup1\n      revert\n        /* \"Story.sol\":91:123  address[] public deployedStories */\n    tag_3:\n      tag_6\n      0x04\n      dup1\n      calldatasize\n      sub\n      dup2\n      add\n      swap1\n      tag_7\n      swap2\n      swap1\n      tag_8\n      jump\t// in\n    tag_7:\n      tag_9\n      jump\t// in\n    tag_6:\n      mload(0x40)\n      tag_10\n      swap2\n      swap1\n      tag_11\n      jump\t// in\n    tag_10:\n      mload(0x40)\n      dup1\n      swap2\n      sub\n      swap1\n      return\n        /* \"Story.sol\":335:445  function getDeployedStories() public view returns (address[] memory) {... */\n    tag_4:\n      tag_12\n      tag_13\n      jump\t// in\n    tag_12:\n      mload(0x40)\n      tag_14\n      swap2\n      swap1\n      tag_15\n      jump\t// in\n    tag_14:\n      mload(0x40)\n      dup1\n      swap2\n      sub\n      swap1\n      return\n        /* \"Story.sol\":136:325  function createStory() public returns (address){... */\n    tag_5:\n      tag_16\n      tag_17\n      jump\t// in\n    tag_16:\n      mload(0x40)\n      tag_18\n      swap2\n      swap1\n      tag_11\n      jump\t// in\n    tag_18:\n      mload(0x40)\n      dup1\n      swap2\n      sub\n      swap1\n      return\n        /* \"Story.sol\":91:123  address[] public deployedStories */\n    tag_9:\n      0x00\n      dup2\n      dup2\n      sload\n      dup2\n      lt\n      tag_19\n      jumpi\n      0x00\n      dup1\n      revert\n    tag_19:\n      swap1\n      0x00\n      mstore\n      keccak256(0x00, 0x20)\n      add\n      0x00\n      swap2\n      pop\n      sload\n      swap1\n      0x0100\n      exp\n      swap1\n      div\n      0xffffffffffffffffffffffffffffffffffffffff\n      and\n      dup2\n      jump\t// out\n        /* \"Story.sol\":335:445  function getDeployedStories() public view returns (address[] memory) {... */\n    tag_13:\n        /* \"Story.sol\":386:402  address[] memory */\n      0x60\n        /* \"Story.sol\":422:437  deployedStories */\n      0x00\n        /* \"Story.sol\":415:437  return deployedStories */\n      dup1\n      sload\n      dup1\n      0x20\n      mul\n      0x20\n      add\n      mload(0x40)\n      swap1\n      dup2\n      add\n      0x40\n      mstore\n      dup1\n      swap3\n      swap2\n      swap1\n      dup2\n      dup2\n      mstore\n      0x20\n      add\n      dup3\n      dup1\n      sload\n      dup1\n      iszero\n      tag_22\n      jumpi\n      0x20\n      mul\n      dup3\n      add\n      swap2\n      swap1\n      0x00\n      mstore\n      keccak256(0x00, 0x20)\n      swap1\n    tag_23:\n      dup2\n      0x00\n      swap1\n      sload\n      swap1\n      0x0100\n      exp\n      swap1\n      div\n      0xffffffffffffffffffffffffffffffffffffffff\n      and\n      0xffffffffffffffffffffffffffffffffffffffff\n      and\n      dup2\n      mstore\n      0x20\n      add\n      swap1\n      0x01\n      add\n      swap1\n      dup1\n      dup4\n      gt\n      tag_23\n      jumpi\n    tag_22:\n      pop\n      pop\n      pop\n      pop\n      pop\n      swap1\n      pop\n        /* \"Story.sol\":335:445  function getDeployedStories() public view returns (address[] memory) {... */\n      swap1\n      jump\t// out\n        /* \"Story.sol\":136:325  function createStory() public returns (address){... */\n    tag_17:\n        /* \"Story.sol\":175:182  address */\n      0x00\n        /* \"Story.sol\":194:208  Story newStory */\n      dup1\n        /* \"Story.sol\":221:231  msg.sender */\n      caller\n        /* \"Story.sol\":211:232  new Story(msg.sender) */\n      mload(0x40)\n      tag_25\n      swap1\n      tag_26\n      jump\t// in\n    tag_25:\n      tag_27\n      swap2\n      swap1\n      tag_11\n      jump\t// in\n    tag_27:\n      mload(0x40)\n      dup1\n      swap2\n      sub\n      swap1\n      0x00\n      create\n      dup1\n      iszero\n      dup1\n      iszero\n      tag_28\n      jumpi\n      returndatasize\n      0x00\n      dup1\n      returndatacopy\n      revert(0x00, returndatasize)\n    tag_28:\n      pop\n        /* \"Story.sol\":194:232  Story newStory = new Story(msg.sender) */\n      swap1\n      pop\n        /* \"Story.sol\":243:258  deployedStories */\n      0x00\n        /* \"Story.sol\":272:280  newStory */\n      dup2\n        /* \"Story.sol\":243:282  deployedStories.push(address(newStory)) */\n      swap1\n      dup1\n      0x01\n      dup2\n      sload\n      add\n      dup1\n      dup3\n      sstore\n      dup1\n      swap2\n      pop\n      pop\n      0x01\n      swap1\n      sub\n      swap1\n      0x00\n      mstore\n      keccak256(0x00, 0x20)\n      add\n      0x00\n      swap1\n      swap2\n      swap1\n      swap2\n      swap1\n      swap2\n      0x0100\n      exp\n      dup2\n      sload\n      dup2\n      0xffffffffffffffffffffffffffffffffffffffff\n      mul\n      not\n      and\n      swap1\n      dup4\n      0xffffffffffffffffffffffffffffffffffffffff\n      and\n      mul\n      or\n      swap1\n      sstore\n      pop\n        /* \"Story.sol\":308:316  newStory */\n      dup1\n        /* \"Story.sol\":293:317  return address(newStory) */\n      swap2\n      pop\n      pop\n        /* \"Story.sol\":136:325  function createStory() public returns (address){... */\n      swap1\n      jump\t// out\n    tag_26:\n      dataSize(sub_0)\n      dup1\n      dataOffset(sub_0)\n      dup4\n      codecopy\n      add\n      swap1\n      jump\t// out\n        /* \"#utility.yul\":88:205   */\n    tag_31:\n        /* \"#utility.yul\":197:198   */\n      0x00\n        /* \"#utility.yul\":194:195   */\n      dup1\n        /* \"#utility.yul\":187:199   */\n      revert\n        /* \"#utility.yul\":334:411   */\n    tag_33:\n        /* \"#utility.yul\":371:378   */\n      0x00\n        /* \"#utility.yul\":400:405   */\n      dup2\n        /* \"#utility.yul\":389:405   */\n      swap1\n      pop\n        /* \"#utility.yul\":334:411   */\n      swap2\n      swap1\n      pop\n      jump\t// out\n        /* \"#utility.yul\":417:539   */\n    tag_34:\n        /* \"#utility.yul\":490:514   */\n      tag_52\n        /* \"#utility.yul\":508:513   */\n      dup2\n        /* \"#utility.yul\":490:514   */\n      tag_33\n      jump\t// in\n    tag_52:\n        /* \"#utility.yul\":483:488   */\n      dup2\n        /* \"#utility.yul\":480:515   */\n      eq\n        /* \"#utility.yul\":470:533   */\n      tag_53\n      jumpi\n        /* \"#utility.yul\":529:530   */\n      0x00\n        /* \"#utility.yul\":526:527   */\n      dup1\n        /* \"#utility.yul\":519:531   */\n      revert\n        /* \"#utility.yul\":470:533   */\n    tag_53:\n        /* \"#utility.yul\":417:539   */\n      pop\n      jump\t// out\n        /* \"#utility.yul\":545:684   */\n    tag_35:\n        /* \"#utility.yul\":591:596   */\n      0x00\n        /* \"#utility.yul\":629:635   */\n      dup2\n        /* \"#utility.yul\":616:636   */\n      calldataload\n        /* \"#utility.yul\":607:636   */\n      swap1\n      pop\n        /* \"#utility.yul\":645:678   */\n      tag_55\n        /* \"#utility.yul\":672:677   */\n      dup2\n        /* \"#utility.yul\":645:678   */\n      tag_34\n      jump\t// in\n    tag_55:\n        /* \"#utility.yul\":545:684   */\n      swap3\n      swap2\n      pop\n      pop\n      jump\t// out\n        /* \"#utility.yul\":690:1019   */\n    tag_8:\n        /* \"#utility.yul\":749:755   */\n      0x00\n        /* \"#utility.yul\":798:800   */\n      0x20\n        /* \"#utility.yul\":786:795   */\n      dup3\n        /* \"#utility.yul\":777:784   */\n      dup5\n        /* \"#utility.yul\":773:796   */\n      sub\n        /* \"#utility.yul\":769:801   */\n      slt\n        /* \"#utility.yul\":766:885   */\n      iszero\n      tag_57\n      jumpi\n        /* \"#utility.yul\":804:883   */\n      tag_58\n      tag_31\n      jump\t// in\n    tag_58:\n        /* \"#utility.yul\":766:885   */\n    tag_57:\n        /* \"#utility.yul\":924:925   */\n      0x00\n        /* \"#utility.yul\":949:1002   */\n      tag_59\n        /* \"#utility.yul\":994:1001   */\n      dup5\n        /* \"#utility.yul\":985:991   */\n      dup3\n        /* \"#utility.yul\":974:983   */\n      dup6\n        /* \"#utility.yul\":970:992   */\n      add\n        /* \"#utility.yul\":949:1002   */\n      tag_35\n      jump\t// in\n    tag_59:\n        /* \"#utility.yul\":939:1002   */\n      swap2\n      pop\n        /* \"#utility.yul\":895:1012   */\n      pop\n        /* \"#utility.yul\":690:1019   */\n      swap3\n      swap2\n      pop\n      pop\n      jump\t// out\n        /* \"#utility.yul\":1025:1151   */\n    tag_36:\n        /* \"#utility.yul\":1062:1069   */\n      0x00\n        /* \"#utility.yul\":1102:1144   */\n      0xffffffffffffffffffffffffffffffffffffffff\n        /* \"#utility.yul\":1095:1100   */\n      dup3\n        /* \"#utility.yul\":1091:1145   */\n      and\n        /* \"#utility.yul\":1080:1145   */\n      swap1\n      pop\n        /* \"#utility.yul\":1025:1151   */\n      swap2\n      swap1\n      pop\n      jump\t// out\n        /* \"#utility.yul\":1157:1253   */\n    tag_37:\n        /* \"#utility.yul\":1194:1201   */\n      0x00\n        /* \"#utility.yul\":1223:1247   */\n      tag_62\n        /* \"#utility.yul\":1241:1246   */\n      dup3\n        /* \"#utility.yul\":1223:1247   */\n      tag_36\n      jump\t// in\n    tag_62:\n        /* \"#utility.yul\":1212:1247   */\n      swap1\n      pop\n        /* \"#utility.yul\":1157:1253   */\n      swap2\n      swap1\n      pop\n      jump\t// out\n        /* \"#utility.yul\":1259:1377   */\n    tag_38:\n        /* \"#utility.yul\":1346:1370   */\n      tag_64\n        /* \"#utility.yul\":1364:1369   */\n      dup2\n        /* \"#utility.yul\":1346:1370   */\n      tag_37\n      jump\t// in\n    tag_64:\n        /* \"#utility.yul\":1341:1344   */\n      dup3\n        /* \"#utility.yul\":1334:1371   */\n      mstore\n        /* \"#utility.yul\":1259:1377   */\n      pop\n      pop\n      jump\t// out\n        /* \"#utility.yul\":1383:1605   */\n    tag_11:\n        /* \"#utility.yul\":1476:1480   */\n      0x00\n        /* \"#utility.yul\":1514:1516   */\n      0x20\n        /* \"#utility.yul\":1503:1512   */\n      dup3\n        /* \"#utility.yul\":1499:1517   */\n      add\n        /* \"#utility.yul\":1491:1517   */\n      swap1\n      pop\n        /* \"#utility.yul\":1527:1598   */\n      tag_66\n        /* \"#utility.yul\":1595:1596   */\n      0x00\n        /* \"#utility.yul\":1584:1593   */\n      dup4\n        /* \"#utility.yul\":1580:1597   */\n      add\n        /* \"#utility.yul\":1571:1577   */\n      dup5\n        /* \"#utility.yul\":1527:1598   */\n      tag_38\n      jump\t// in\n    tag_66:\n        /* \"#utility.yul\":1383:1605   */\n      swap3\n      swap2\n      pop\n      pop\n      jump\t// out\n        /* \"#utility.yul\":1611:1725   */\n    tag_39:\n        /* \"#utility.yul\":1678:1684   */\n      0x00\n        /* \"#utility.yul\":1712:1717   */\n      dup2\n        /* \"#utility.yul\":1706:1718   */\n      mload\n        /* \"#utility.yul\":1696:1718   */\n      swap1\n      pop\n        /* \"#utility.yul\":1611:1725   */\n      swap2\n      swap1\n      pop\n      jump\t// out\n        /* \"#utility.yul\":1731:1915   */\n    tag_40:\n        /* \"#utility.yul\":1830:1841   */\n      0x00\n        /* \"#utility.yul\":1864:1870   */\n      dup3\n        /* \"#utility.yul\":1859:1862   */\n      dup3\n        /* \"#utility.yul\":1852:1871   */\n      mstore\n        /* \"#utility.yul\":1904:1908   */\n      0x20\n        /* \"#utility.yul\":1899:1902   */\n      dup3\n        /* \"#utility.yul\":1895:1909   */\n      add\n        /* \"#utility.yul\":1880:1909   */\n      swap1\n      pop\n        /* \"#utility.yul\":1731:1915   */\n      swap3\n      swap2\n      pop\n      pop\n      jump\t// out\n        /* \"#utility.yul\":1921:2053   */\n    tag_41:\n        /* \"#utility.yul\":1988:1992   */\n      0x00\n        /* \"#utility.yul\":2011:2014   */\n      dup2\n        /* \"#utility.yul\":2003:2014   */\n      swap1\n      pop\n        /* \"#utility.yul\":2041:2045   */\n      0x20\n        /* \"#utility.yul\":2036:2039   */\n      dup3\n        /* \"#utility.yul\":2032:2046   */\n      add\n        /* \"#utility.yul\":2024:2046   */\n      swap1\n      pop\n        /* \"#utility.yul\":1921:2053   */\n      swap2\n      swap1\n      pop\n      jump\t// out\n        /* \"#utility.yul\":2059:2167   */\n    tag_42:\n        /* \"#utility.yul\":2136:2160   */\n      tag_71\n        /* \"#utility.yul\":2154:2159   */\n      dup2\n        /* \"#utility.yul\":2136:2160   */\n      tag_37\n      jump\t// in\n    tag_71:\n        /* \"#utility.yul\":2131:2134   */\n      dup3\n        /* \"#utility.yul\":2124:2161   */\n      mstore\n        /* \"#utility.yul\":2059:2167   */\n      pop\n      pop\n      jump\t// out\n        /* \"#utility.yul\":2173:2352   */\n    tag_43:\n        /* \"#utility.yul\":2242:2252   */\n      0x00\n        /* \"#utility.yul\":2263:2309   */\n      tag_73\n        /* \"#utility.yul\":2305:2308   */\n      dup4\n        /* \"#utility.yul\":2297:2303   */\n      dup4\n        /* \"#utility.yul\":2263:2309   */\n      tag_42\n      jump\t// in\n    tag_73:\n        /* \"#utility.yul\":2341:2345   */\n      0x20\n        /* \"#utility.yul\":2336:2339   */\n      dup4\n        /* \"#utility.yul\":2332:2346   */\n      add\n        /* \"#utility.yul\":2318:2346   */\n      swap1\n      pop\n        /* \"#utility.yul\":2173:2352   */\n      swap3\n      swap2\n      pop\n      pop\n      jump\t// out\n        /* \"#utility.yul\":2358:2471   */\n    tag_44:\n        /* \"#utility.yul\":2428:2432   */\n      0x00\n        /* \"#utility.yul\":2460:2464   */\n      0x20\n        /* \"#utility.yul\":2455:2458   */\n      dup3\n        /* \"#utility.yul\":2451:2465   */\n      add\n        /* \"#utility.yul\":2443:2465   */\n      swap1\n      pop\n        /* \"#utility.yul\":2358:2471   */\n      swap2\n      swap1\n      pop\n      jump\t// out\n        /* \"#utility.yul\":2507:3239   */\n    tag_45:\n        /* \"#utility.yul\":2626:2629   */\n      0x00\n        /* \"#utility.yul\":2655:2709   */\n      tag_76\n        /* \"#utility.yul\":2703:2708   */\n      dup3\n        /* \"#utility.yul\":2655:2709   */\n      tag_39\n      jump\t// in\n    tag_76:\n        /* \"#utility.yul\":2725:2811   */\n      tag_77\n        /* \"#utility.yul\":2804:2810   */\n      dup2\n        /* \"#utility.yul\":2799:2802   */\n      dup6\n        /* \"#utility.yul\":2725:2811   */\n      tag_40\n      jump\t// in\n    tag_77:\n        /* \"#utility.yul\":2718:2811   */\n      swap4\n      pop\n        /* \"#utility.yul\":2835:2891   */\n      tag_78\n        /* \"#utility.yul\":2885:2890   */\n      dup4\n        /* \"#utility.yul\":2835:2891   */\n      tag_41\n      jump\t// in\n    tag_78:\n        /* \"#utility.yul\":2914:2921   */\n      dup1\n        /* \"#utility.yul\":2945:2946   */\n      0x00\n        /* \"#utility.yul\":2930:3214   */\n    tag_79:\n        /* \"#utility.yul\":2955:2961   */\n      dup4\n        /* \"#utility.yul\":2952:2953   */\n      dup2\n        /* \"#utility.yul\":2949:2962   */\n      lt\n        /* \"#utility.yul\":2930:3214   */\n      iszero\n      tag_81\n      jumpi\n        /* \"#utility.yul\":3031:3037   */\n      dup2\n        /* \"#utility.yul\":3025:3038   */\n      mload\n        /* \"#utility.yul\":3058:3121   */\n      tag_82\n        /* \"#utility.yul\":3117:3120   */\n      dup9\n        /* \"#utility.yul\":3102:3115   */\n      dup3\n        /* \"#utility.yul\":3058:3121   */\n      tag_43\n      jump\t// in\n    tag_82:\n        /* \"#utility.yul\":3051:3121   */\n      swap8\n      pop\n        /* \"#utility.yul\":3144:3204   */\n      tag_83\n        /* \"#utility.yul\":3197:3203   */\n      dup4\n        /* \"#utility.yul\":3144:3204   */\n      tag_44\n      jump\t// in\n    tag_83:\n        /* \"#utility.yul\":3134:3204   */\n      swap3\n      pop\n        /* \"#utility.yul\":2990:3214   */\n      pop\n        /* \"#utility.yul\":2977:2978   */\n      0x01\n        /* \"#utility.yul\":2974:2975   */\n      dup2\n        /* \"#utility.yul\":2970:2979   */\n      add\n        /* \"#utility.yul\":2965:2979   */\n      swap1\n      pop\n        /* \"#utility.yul\":2930:3214   */\n      jump(tag_79)\n    tag_81:\n        /* \"#utility.yul\":2934:2948   */\n      pop\n        /* \"#utility.yul\":3230:3233   */\n      dup6\n        /* \"#utility.yul\":3223:3233   */\n      swap4\n      pop\n        /* \"#utility.yul\":2631:3239   */\n      pop\n      pop\n      pop\n        /* \"#utility.yul\":2507:3239   */\n      swap3\n      swap2\n      pop\n      pop\n      jump\t// out\n        /* \"#utility.yul\":3245:3618   */\n    tag_15:\n        /* \"#utility.yul\":3388:3392   */\n      0x00\n        /* \"#utility.yul\":3426:3428   */\n      0x20\n        /* \"#utility.yul\":3415:3424   */\n      dup3\n        /* \"#utility.yul\":3411:3429   */\n      add\n        /* \"#utility.yul\":3403:3429   */\n      swap1\n      pop\n        /* \"#utility.yul\":3475:3484   */\n      dup2\n        /* \"#utility.yul\":3469:3473   */\n      dup2\n        /* \"#utility.yul\":3465:3485   */\n      sub\n        /* \"#utility.yul\":3461:3462   */\n      0x00\n        /* \"#utility.yul\":3450:3459   */\n      dup4\n        /* \"#utility.yul\":3446:3463   */\n      add\n        /* \"#utility.yul\":3439:3486   */\n      mstore\n        /* \"#utility.yul\":3503:3611   */\n      tag_85\n        /* \"#utility.yul\":3606:3610   */\n      dup2\n        /* \"#utility.yul\":3597:3603   */\n      dup5\n        /* \"#utility.yul\":3503:3611   */\n      tag_45\n      jump\t// in\n    tag_85:\n        /* \"#utility.yul\":3495:3611   */\n      swap1\n      pop\n        /* \"#utility.yul\":3245:3618   */\n      swap3\n      swap2\n      pop\n      pop\n      jump\t// out\n    stop\n\n    sub_0: assembly {\n            /* \"Story.sol\":452:2415  contract Story {... */\n          mstore(0x40, 0x80)\n            /* \"Story.sol\":736:870  constructor(address _mainAuthor) {... */\n          callvalue\n          dup1\n          iszero\n          tag_1\n          jumpi\n          0x00\n          dup1\n          revert\n        tag_1:\n          pop\n          mload(0x40)\n          sub(codesize, bytecodeSize)\n          dup1\n          bytecodeSize\n          dup4\n          codecopy\n          dup2\n          dup2\n          add\n          0x40\n          mstore\n          dup2\n          add\n          swap1\n          tag_2\n          swap2\n          swap1\n          tag_3\n          jump\t// in\n        tag_2:\n            /* \"Story.sol\":814:818  true */\n          0x01\n            /* \"Story.sol\":780:798  authorsForSolidity */\n          0x00\n            /* \"Story.sol\":780:811  authorsForSolidity[_mainAuthor] */\n          dup1\n            /* \"Story.sol\":799:810  _mainAuthor */\n          dup4\n            /* \"Story.sol\":780:811  authorsForSolidity[_mainAuthor] */\n          0xffffffffffffffffffffffffffffffffffffffff\n          and\n          0xffffffffffffffffffffffffffffffffffffffff\n          and\n          dup2\n          mstore\n          0x20\n          add\n          swap1\n          dup2\n          mstore\n          0x20\n          add\n          0x00\n          keccak256\n          0x00\n            /* \"Story.sol\":780:818  authorsForSolidity[_mainAuthor] = true */\n          0x0100\n          exp\n          dup2\n          sload\n          dup2\n          0xff\n          mul\n          not\n          and\n          swap1\n          dup4\n          iszero\n          iszero\n          mul\n          or\n          swap1\n          sstore\n          pop\n            /* \"Story.sol\":829:844  authorsForReact */\n          0x01\n            /* \"Story.sol\":850:861  _mainAuthor */\n          dup2\n            /* \"Story.sol\":829:862  authorsForReact.push(_mainAuthor) */\n          swap1\n          dup1\n          0x01\n          dup2\n          sload\n          add\n          dup1\n          dup3\n          sstore\n          dup1\n          swap2\n          pop\n          pop\n          0x01\n          swap1\n          sub\n          swap1\n          0x00\n          mstore\n          keccak256(0x00, 0x20)\n          add\n          0x00\n          swap1\n          swap2\n          swap1\n          swap2\n          swap1\n          swap2\n          0x0100\n          exp\n          dup2\n          sload\n          dup2\n          0xffffffffffffffffffffffffffffffffffffffff\n          mul\n          not\n          and\n          swap1\n          dup4\n          0xffffffffffffffffffffffffffffffffffffffff\n          and\n          mul\n          or\n          swap1\n          sstore\n          pop\n            /* \"Story.sol\":736:870  constructor(address _mainAuthor) {... */\n          pop\n            /* \"Story.sol\":452:2415  contract Story {... */\n          jump(tag_7)\n            /* \"#utility.yul\":88:205   */\n        tag_9:\n            /* \"#utility.yul\":197:198   */\n          0x00\n            /* \"#utility.yul\":194:195   */\n          dup1\n            /* \"#utility.yul\":187:199   */\n          revert\n            /* \"#utility.yul\":334:460   */\n        tag_11:\n            /* \"#utility.yul\":371:378   */\n          0x00\n            /* \"#utility.yul\":411:453   */\n          0xffffffffffffffffffffffffffffffffffffffff\n            /* \"#utility.yul\":404:409   */\n          dup3\n            /* \"#utility.yul\":400:454   */\n          and\n            /* \"#utility.yul\":389:454   */\n          swap1\n          pop\n            /* \"#utility.yul\":334:460   */\n          swap2\n          swap1\n          pop\n          jump\t// out\n            /* \"#utility.yul\":466:562   */\n        tag_12:\n            /* \"#utility.yul\":503:510   */\n          0x00\n            /* \"#utility.yul\":532:556   */\n          tag_21\n            /* \"#utility.yul\":550:555   */\n          dup3\n            /* \"#utility.yul\":532:556   */\n          tag_11\n          jump\t// in\n        tag_21:\n            /* \"#utility.yul\":521:556   */\n          swap1\n          pop\n            /* \"#utility.yul\":466:562   */\n          swap2\n          swap1\n          pop\n          jump\t// out\n            /* \"#utility.yul\":568:690   */\n        tag_13:\n            /* \"#utility.yul\":641:665   */\n          tag_23\n            /* \"#utility.yul\":659:664   */\n          dup2\n            /* \"#utility.yul\":641:665   */\n          tag_12\n          jump\t// in\n        tag_23:\n            /* \"#utility.yul\":634:639   */\n          dup2\n            /* \"#utility.yul\":631:666   */\n          eq\n            /* \"#utility.yul\":621:684   */\n          tag_24\n          jumpi\n            /* \"#utility.yul\":680:681   */\n          0x00\n            /* \"#utility.yul\":677:678   */\n          dup1\n            /* \"#utility.yul\":670:682   */\n          revert\n            /* \"#utility.yul\":621:684   */\n        tag_24:\n            /* \"#utility.yul\":568:690   */\n          pop\n          jump\t// out\n            /* \"#utility.yul\":696:839   */\n        tag_14:\n            /* \"#utility.yul\":753:758   */\n          0x00\n            /* \"#utility.yul\":784:790   */\n          dup2\n            /* \"#utility.yul\":778:791   */\n          mload\n            /* \"#utility.yul\":769:791   */\n          swap1\n          pop\n            /* \"#utility.yul\":800:833   */\n          tag_26\n            /* \"#utility.yul\":827:832   */\n          dup2\n            /* \"#utility.yul\":800:833   */\n          tag_13\n          jump\t// in\n        tag_26:\n            /* \"#utility.yul\":696:839   */\n          swap3\n          swap2\n          pop\n          pop\n          jump\t// out\n            /* \"#utility.yul\":845:1196   */\n        tag_3:\n            /* \"#utility.yul\":915:921   */\n          0x00\n            /* \"#utility.yul\":964:966   */\n          0x20\n            /* \"#utility.yul\":952:961   */\n          dup3\n            /* \"#utility.yul\":943:950   */\n          dup5\n            /* \"#utility.yul\":939:962   */\n          sub\n            /* \"#utility.yul\":935:967   */\n          slt\n            /* \"#utility.yul\":932:1051   */\n          iszero\n          tag_28\n          jumpi\n            /* \"#utility.yul\":970:1049   */\n          tag_29\n          tag_9\n          jump\t// in\n        tag_29:\n            /* \"#utility.yul\":932:1051   */\n        tag_28:\n            /* \"#utility.yul\":1090:1091   */\n          0x00\n            /* \"#utility.yul\":1115:1179   */\n          tag_30\n            /* \"#utility.yul\":1171:1178   */\n          dup5\n            /* \"#utility.yul\":1162:1168   */\n          dup3\n            /* \"#utility.yul\":1151:1160   */\n          dup6\n            /* \"#utility.yul\":1147:1169   */\n          add\n            /* \"#utility.yul\":1115:1179   */\n          tag_14\n          jump\t// in\n        tag_30:\n            /* \"#utility.yul\":1105:1179   */\n          swap2\n          pop\n            /* \"#utility.yul\":1061:1189   */\n          pop\n            /* \"#utility.yul\":845:1196   */\n          swap3\n          swap2\n          pop\n          pop\n          jump\t// out\n            /* \"Story.sol\":452:2415  contract Story {... */\n        tag_7:\n          dataSize(sub_0)\n          dup1\n          dataOffset(sub_0)\n          0x00\n          codecopy\n          0x00\n          return\n        stop\n\n        sub_0: assembly {\n                /* \"Story.sol\":452:2415  contract Story {... */\n              mstore(0x40, 0x80)\n              callvalue\n              dup1\n              iszero\n              tag_1\n              jumpi\n              0x00\n              dup1\n              revert\n            tag_1:\n              pop\n              jumpi(tag_2, lt(calldatasize, 0x04))\n              shr(0xe0, calldataload(0x00))\n              dup1\n              0x6fc6c579\n              gt\n              tag_10\n              jumpi\n              dup1\n              0x6fc6c579\n              eq\n              tag_6\n              jumpi\n              dup1\n              0x98b79628\n              eq\n              tag_7\n              jumpi\n              dup1\n              0x9d3ed807\n              eq\n              tag_8\n              jumpi\n              dup1\n              0xdfa14e23\n              eq\n              tag_9\n              jumpi\n              jump(tag_2)\n            tag_10:\n              dup1\n              0x3e5690f4\n              eq\n              tag_3\n              jumpi\n              dup1\n              0x4051ddac\n              eq\n              tag_4\n              jumpi\n              dup1\n              0x5cf298fb\n              eq\n              tag_5\n              jumpi\n            tag_2:\n              0x00\n              dup1\n              revert\n                /* \"Story.sol\":474:524  mapping(address => bool) public authorsForSolidity */\n            tag_3:\n              tag_11\n              0x04\n              dup1\n              calldatasize\n              sub\n              dup2\n              add\n              swap1\n              tag_12\n              swap2\n              swap1\n              tag_13\n              jump\t// in\n            tag_12:\n              tag_14\n              jump\t// in\n            tag_11:\n              mload(0x40)\n              tag_15\n              swap2\n              swap1\n              tag_16\n              jump\t// in\n            tag_15:\n              mload(0x40)\n              dup1\n              swap2\n              sub\n              swap1\n              return\n                /* \"Story.sol\":2098:2290  function getSummary() public view returns (... */\n            tag_4:\n              tag_17\n              tag_18\n              jump\t// in\n            tag_17:\n              mload(0x40)\n              tag_19\n              swap3\n              swap2\n              swap1\n              tag_20\n              jump\t// in\n            tag_19:\n              mload(0x40)\n              dup1\n              swap2\n              sub\n              swap1\n              return\n                /* \"Story.sol\":2298:2400  function isAuthor() public view returns (bool){... */\n            tag_5:\n              tag_21\n              tag_22\n              jump\t// in\n            tag_21:\n              mload(0x40)\n              tag_23\n              swap2\n              swap1\n              tag_16\n              jump\t// in\n            tag_23:\n              mload(0x40)\n              dup1\n              swap2\n              sub\n              swap1\n              return\n                /* \"Story.sol\":690:727  RequestToJoin[] public requestsToJoin */\n            tag_6:\n              tag_24\n              0x04\n              dup1\n              calldatasize\n              sub\n              dup2\n              add\n              swap1\n              tag_25\n              swap2\n              swap1\n              tag_26\n              jump\t// in\n            tag_25:\n              tag_27\n              jump\t// in\n            tag_24:\n              mload(0x40)\n              tag_28\n              swap4\n              swap3\n              swap2\n              swap1\n              tag_29\n              jump\t// in\n            tag_28:\n              mload(0x40)\n              dup1\n              swap2\n              sub\n              swap1\n              return\n                /* \"Story.sol\":1279:2090  function approveRequestToJoin(uint256 _index) public {... */\n            tag_7:\n              tag_30\n              0x04\n              dup1\n              calldatasize\n              sub\n              dup2\n              add\n              swap1\n              tag_31\n              swap2\n              swap1\n              tag_26\n              jump\t// in\n            tag_31:\n              tag_32\n              jump\t// in\n            tag_30:\n              stop\n                /* \"Story.sol\":531:563  address[] public authorsForReact */\n            tag_8:\n              tag_33\n              0x04\n              dup1\n              calldatasize\n              sub\n              dup2\n              add\n              swap1\n              tag_34\n              swap2\n              swap1\n              tag_26\n              jump\t// in\n            tag_34:\n              tag_35\n              jump\t// in\n            tag_33:\n              mload(0x40)\n              tag_36\n              swap2\n              swap1\n              tag_37\n              jump\t// in\n            tag_36:\n              mload(0x40)\n              dup1\n              swap2\n              sub\n              swap1\n              return\n                /* \"Story.sol\":878:1271  function createRequestToJoin(string memory _proposal) public {... */\n            tag_9:\n              tag_38\n              0x04\n              dup1\n              calldatasize\n              sub\n              dup2\n              add\n              swap1\n              tag_39\n              swap2\n              swap1\n              tag_40\n              jump\t// in\n            tag_39:\n              tag_41\n              jump\t// in\n            tag_38:\n              stop\n                /* \"Story.sol\":474:524  mapping(address => bool) public authorsForSolidity */\n            tag_14:\n              mstore(0x20, 0x00)\n              dup1\n              0x00\n              mstore\n              keccak256(0x00, 0x40)\n              0x00\n              swap2\n              pop\n              sload\n              swap1\n              0x0100\n              exp\n              swap1\n              div\n              0xff\n              and\n              dup2\n              jump\t// out\n                /* \"Story.sol\":2098:2290  function getSummary() public view returns (... */\n            tag_18:\n                /* \"Story.sol\":2151:2167  address[] memory */\n              0x60\n                /* \"Story.sol\":2169:2191  RequestToJoin[] memory */\n              dup1\n                /* \"Story.sol\":2227:2242  authorsForReact */\n              0x01\n                /* \"Story.sol\":2257:2271  requestsToJoin */\n              0x02\n                /* \"Story.sol\":2204:2282  return ( ... */\n              dup2\n              dup1\n              sload\n              dup1\n              0x20\n              mul\n              0x20\n              add\n              mload(0x40)\n              swap1\n              dup2\n              add\n              0x40\n              mstore\n              dup1\n              swap3\n              swap2\n              swap1\n              dup2\n              dup2\n              mstore\n              0x20\n              add\n              dup3\n              dup1\n              sload\n              dup1\n              iszero\n              tag_43\n              jumpi\n              0x20\n              mul\n              dup3\n              add\n              swap2\n              swap1\n              0x00\n              mstore\n              keccak256(0x00, 0x20)\n              swap1\n            tag_44:\n              dup2\n              0x00\n              swap1\n              sload\n              swap1\n              0x0100\n              exp\n              swap1\n              div\n              0xffffffffffffffffffffffffffffffffffffffff\n              and\n              0xffffffffffffffffffffffffffffffffffffffff\n              and\n              dup2\n              mstore\n              0x20\n              add\n              swap1\n              0x01\n              add\n              swap1\n              dup1\n              dup4\n              gt\n              tag_44\n              jumpi\n            tag_43:\n              pop\n              pop\n              pop\n              pop\n              pop\n              swap2\n              pop\n              dup1\n              dup1\n              sload\n              dup1\n              0x20\n              mul\n              0x20\n              add\n              mload(0x40)\n              swap1\n              dup2\n              add\n              0x40\n              mstore\n              dup1\n              swap3\n              swap2\n              swap1\n              dup2\n              dup2\n              mstore\n              0x20\n              add\n              0x00\n              swap1\n            tag_45:\n              dup3\n              dup3\n              lt\n              iszero\n              tag_46\n              jumpi\n              dup4\n              dup3\n              swap1\n              0x00\n              mstore\n              keccak256(0x00, 0x20)\n              swap1\n              0x03\n              mul\n              add\n              mload(0x40)\n              dup1\n              0x60\n              add\n              0x40\n              mstore\n              swap1\n              dup2\n              0x00\n              dup3\n              add\n              dup1\n              sload\n              tag_48\n              swap1\n              tag_49\n              jump\t// in\n            tag_48:\n              dup1\n              0x1f\n              add\n              0x20\n              dup1\n              swap2\n              div\n              mul\n              0x20\n              add\n              mload(0x40)\n              swap1\n              dup2\n              add\n              0x40\n              mstore\n              dup1\n              swap3\n              swap2\n              swap1\n              dup2\n              dup2\n              mstore\n              0x20\n              add\n              dup3\n              dup1\n              sload\n              tag_50\n              swap1\n              tag_49\n              jump\t// in\n            tag_50:\n              dup1\n              iszero\n              tag_51\n              jumpi\n              dup1\n              0x1f\n              lt\n              tag_52\n              jumpi\n              0x0100\n              dup1\n              dup4\n              sload\n              div\n              mul\n              dup4\n              mstore\n              swap2\n              0x20\n              add\n              swap2\n              jump(tag_51)\n            tag_52:\n              dup3\n              add\n              swap2\n              swap1\n              0x00\n              mstore\n              keccak256(0x00, 0x20)\n              swap1\n            tag_53:\n              dup2\n              sload\n              dup2\n              mstore\n              swap1\n              0x01\n              add\n              swap1\n              0x20\n              add\n              dup1\n              dup4\n              gt\n              tag_53\n              jumpi\n              dup3\n              swap1\n              sub\n              0x1f\n              and\n              dup3\n              add\n              swap2\n            tag_51:\n              pop\n              pop\n              pop\n              pop\n              pop\n              dup2\n              mstore\n              0x20\n              add\n              0x01\n              dup3\n              add\n              sload\n              dup2\n              mstore\n              0x20\n              add\n              0x02\n              dup3\n              add\n              0x00\n              swap1\n              sload\n              swap1\n              0x0100\n              exp\n              swap1\n              div\n              0xffffffffffffffffffffffffffffffffffffffff\n              and\n              0xffffffffffffffffffffffffffffffffffffffff\n              and\n              0xffffffffffffffffffffffffffffffffffffffff\n              and\n              dup2\n              mstore\n              pop\n              pop\n              dup2\n              mstore\n              0x20\n              add\n              swap1\n              0x01\n              add\n              swap1\n              jump(tag_45)\n            tag_46:\n              pop\n              pop\n              pop\n              pop\n              swap1\n              pop\n              swap2\n              pop\n              swap2\n              pop\n                /* \"Story.sol\":2098:2290  function getSummary() public view returns (... */\n              swap1\n              swap2\n              jump\t// out\n                /* \"Story.sol\":2298:2400  function isAuthor() public view returns (bool){... */\n            tag_22:\n                /* \"Story.sol\":2339:2343  bool */\n              0x00\n                /* \"Story.sol\":2362:2380  authorsForSolidity */\n              dup1\n                /* \"Story.sol\":2362:2392  authorsForSolidity[msg.sender] */\n              0x00\n                /* \"Story.sol\":2381:2391  msg.sender */\n              caller\n                /* \"Story.sol\":2362:2392  authorsForSolidity[msg.sender] */\n              0xffffffffffffffffffffffffffffffffffffffff\n              and\n              0xffffffffffffffffffffffffffffffffffffffff\n              and\n              dup2\n              mstore\n              0x20\n              add\n              swap1\n              dup2\n              mstore\n              0x20\n              add\n              0x00\n              keccak256\n              0x00\n              swap1\n              sload\n              swap1\n              0x0100\n              exp\n              swap1\n              div\n              0xff\n              and\n                /* \"Story.sol\":2355:2392  return authorsForSolidity[msg.sender] */\n              swap1\n              pop\n                /* \"Story.sol\":2298:2400  function isAuthor() public view returns (bool){... */\n              swap1\n              jump\t// out\n                /* \"Story.sol\":690:727  RequestToJoin[] public requestsToJoin */\n            tag_27:\n              0x02\n              dup2\n              dup2\n              sload\n              dup2\n              lt\n              tag_55\n              jumpi\n              0x00\n              dup1\n              revert\n            tag_55:\n              swap1\n              0x00\n              mstore\n              keccak256(0x00, 0x20)\n              swap1\n              0x03\n              mul\n              add\n              0x00\n              swap2\n              pop\n              swap1\n              pop\n              dup1\n              0x00\n              add\n              dup1\n              sload\n              tag_57\n              swap1\n              tag_49\n              jump\t// in\n            tag_57:\n              dup1\n              0x1f\n              add\n              0x20\n              dup1\n              swap2\n              div\n              mul\n              0x20\n              add\n              mload(0x40)\n              swap1\n              dup2\n              add\n              0x40\n              mstore\n              dup1\n              swap3\n              swap2\n              swap1\n              dup2\n              dup2\n              mstore\n              0x20\n              add\n              dup3\n              dup1\n              sload\n              tag_58\n              swap1\n              tag_49\n              jump\t// in\n            tag_58:\n              dup1\n              iszero\n              tag_59\n              jumpi\n              dup1\n              0x1f\n              lt\n              tag_60\n              jumpi\n              0x0100\n              dup1\n              dup4\n              sload\n              div\n              mul\n              dup4\n              mstore\n              swap2\n              0x20\n              add\n              swap2\n              jump(tag_59)\n            tag_60:\n              dup3\n              add\n              swap2\n              swap1\n              0x00\n              mstore\n              keccak256(0x00, 0x20)\n              swap1\n            tag_61:\n              dup2\n              sload\n              dup2\n              mstore\n              swap1\n              0x01\n              add\n              swap1\n              0x20\n              add\n              dup1\n              dup4\n              gt\n              tag_61\n              jumpi\n              dup3\n              swap1\n              sub\n              0x1f\n              and\n              dup3\n              add\n              swap2\n            tag_59:\n              pop\n              pop\n              pop\n              pop\n              pop\n              swap1\n              dup1\n              0x01\n              add\n              sload\n              swap1\n              dup1\n              0x02\n              add\n              0x00\n              swap1\n              sload\n              swap1\n              0x0100\n              exp\n              swap1\n              div\n              0xffffffffffffffffffffffffffffffffffffffff\n              and\n              swap1\n              pop\n              dup4\n              jump\t// out\n                /* \"Story.sol\":1279:2090  function approveRequestToJoin(uint256 _index) public {... */\n            tag_32:\n                /* \"Story.sol\":1351:1369  authorsForSolidity */\n              0x00\n                /* \"Story.sol\":1351:1381  authorsForSolidity[msg.sender] */\n              dup1\n                /* \"Story.sol\":1370:1380  msg.sender */\n              caller\n                /* \"Story.sol\":1351:1381  authorsForSolidity[msg.sender] */\n              0xffffffffffffffffffffffffffffffffffffffff\n              and\n              0xffffffffffffffffffffffffffffffffffffffff\n              and\n              dup2\n              mstore\n              0x20\n              add\n              swap1\n              dup2\n              mstore\n              0x20\n              add\n              0x00\n              keccak256\n              0x00\n              swap1\n              sload\n              swap1\n              0x0100\n              exp\n              swap1\n              div\n              0xff\n              and\n                /* \"Story.sol\":1343:1431  require(authorsForSolidity[msg.sender], \"Only an accepted author can approve a request\") */\n              tag_63\n              jumpi\n              mload(0x40)\n              0x08c379a000000000000000000000000000000000000000000000000000000000\n              dup2\n              mstore\n              0x04\n              add\n              tag_64\n              swap1\n              tag_65\n              jump\t// in\n            tag_64:\n              mload(0x40)\n              dup1\n              swap2\n              sub\n              swap1\n              revert\n            tag_63:\n                /* \"Story.sol\":1451:1469  authorsForSolidity */\n              0x00\n                /* \"Story.sol\":1451:1500  authorsForSolidity[requestsToJoin[_index].author] */\n              dup1\n                /* \"Story.sol\":1470:1484  requestsToJoin */\n              0x02\n                /* \"Story.sol\":1485:1491  _index */\n              dup4\n                /* \"Story.sol\":1470:1492  requestsToJoin[_index] */\n              dup2\n              sload\n              dup2\n              lt\n              tag_66\n              jumpi\n              tag_67\n              tag_68\n              jump\t// in\n            tag_67:\n            tag_66:\n              swap1\n              0x00\n              mstore\n              keccak256(0x00, 0x20)\n              swap1\n              0x03\n              mul\n              add\n                /* \"Story.sol\":1470:1499  requestsToJoin[_index].author */\n              0x02\n              add\n              0x00\n              swap1\n              sload\n              swap1\n              0x0100\n              exp\n              swap1\n              div\n              0xffffffffffffffffffffffffffffffffffffffff\n              and\n                /* \"Story.sol\":1451:1500  authorsForSolidity[requestsToJoin[_index].author] */\n              0xffffffffffffffffffffffffffffffffffffffff\n              and\n              0xffffffffffffffffffffffffffffffffffffffff\n              and\n              dup2\n              mstore\n              0x20\n              add\n              swap1\n              dup2\n              mstore\n              0x20\n              add\n              0x00\n              keccak256\n              0x00\n              swap1\n              sload\n              swap1\n              0x0100\n              exp\n              swap1\n              div\n              0xff\n              and\n                /* \"Story.sol\":1450:1500  !authorsForSolidity[requestsToJoin[_index].author] */\n              iszero\n                /* \"Story.sol\":1442:1569  require(!authorsForSolidity[requestsToJoin[_index].author], \"Author of the request is already included in the list of authors\") */\n              tag_70\n              jumpi\n              mload(0x40)\n              0x08c379a000000000000000000000000000000000000000000000000000000000\n              dup2\n              mstore\n              0x04\n              add\n              tag_71\n              swap1\n              tag_72\n              jump\t// in\n            tag_71:\n              mload(0x40)\n              dup1\n              swap2\n              sub\n              swap1\n              revert\n            tag_70:\n                /* \"Story.sol\":1582:1599  uint256 lastIndex */\n              0x00\n                /* \"Story.sol\":1626:1627  1 */\n              0x01\n                /* \"Story.sol\":1602:1616  requestsToJoin */\n              0x02\n                /* \"Story.sol\":1602:1623  requestsToJoin.length */\n              dup1\n              sload\n              swap1\n              pop\n                /* \"Story.sol\":1602:1627  requestsToJoin.length - 1 */\n              tag_73\n              swap2\n              swap1\n              tag_74\n              jump\t// in\n            tag_73:\n                /* \"Story.sol\":1582:1627  uint256 lastIndex = requestsToJoin.length - 1 */\n              swap1\n              pop\n                /* \"Story.sol\":1721:1753  RequestToJoin memory lastRequest */\n              0x00\n                /* \"Story.sol\":1756:1770  requestsToJoin */\n              0x02\n                /* \"Story.sol\":1771:1780  lastIndex */\n              dup3\n                /* \"Story.sol\":1756:1781  requestsToJoin[lastIndex] */\n              dup2\n              sload\n              dup2\n              lt\n              tag_75\n              jumpi\n              tag_76\n              tag_68\n              jump\t// in\n            tag_76:\n            tag_75:\n              swap1\n              0x00\n              mstore\n              keccak256(0x00, 0x20)\n              swap1\n              0x03\n              mul\n              add\n                /* \"Story.sol\":1721:1781  RequestToJoin memory lastRequest = requestsToJoin[lastIndex] */\n              mload(0x40)\n              dup1\n              0x60\n              add\n              0x40\n              mstore\n              swap1\n              dup2\n              0x00\n              dup3\n              add\n              dup1\n              sload\n              tag_78\n              swap1\n              tag_49\n              jump\t// in\n            tag_78:\n              dup1\n              0x1f\n              add\n              0x20\n              dup1\n              swap2\n              div\n              mul\n              0x20\n              add\n              mload(0x40)\n              swap1\n              dup2\n              add\n              0x40\n              mstore\n              dup1\n              swap3\n              swap2\n              swap1\n              dup2\n              dup2\n              mstore\n              0x20\n              add\n              dup3\n              dup1\n              sload\n              tag_79\n              swap1\n              tag_49\n              jump\t// in\n            tag_79:\n              dup1\n              iszero\n              tag_80\n              jumpi\n              dup1\n              0x1f\n              lt\n              tag_81\n              jumpi\n              0x0100\n              dup1\n              dup4\n              sload\n              div\n              mul\n              dup4\n              mstore\n              swap2\n              0x20\n              add\n              swap2\n              jump(tag_80)\n            tag_81:\n              dup3\n              add\n              swap2\n              swap1\n              0x00\n              mstore\n              keccak256(0x00, 0x20)\n              swap1\n            tag_82:\n              dup2\n              sload\n              dup2\n              mstore\n              swap1\n              0x01\n              add\n              swap1\n              0x20\n              add\n              dup1\n              dup4\n              gt\n              tag_82\n              jumpi\n              dup3\n              swap1\n              sub\n              0x1f\n              and\n              dup3\n              add\n              swap2\n            tag_80:\n              pop\n              pop\n              pop\n              pop\n              pop\n              dup2\n              mstore\n              0x20\n              add\n              0x01\n              dup3\n              add\n              sload\n              dup2\n              mstore\n              0x20\n              add\n              0x02\n              dup3\n              add\n              0x00\n              swap1\n              sload\n              swap1\n              0x0100\n              exp\n              swap1\n              div\n              0xffffffffffffffffffffffffffffffffffffffff\n              and\n              0xffffffffffffffffffffffffffffffffffffffff\n              and\n              0xffffffffffffffffffffffffffffffffffffffff\n              and\n              dup2\n              mstore\n              pop\n              pop\n              swap1\n              pop\n                /* \"Story.sol\":1817:1828  lastRequest */\n              dup1\n                /* \"Story.sol\":1792:1806  requestsToJoin */\n              0x02\n                /* \"Story.sol\":1807:1813  _index */\n              dup5\n                /* \"Story.sol\":1792:1814  requestsToJoin[_index] */\n              dup2\n              sload\n              dup2\n              lt\n              tag_83\n              jumpi\n              tag_84\n              tag_68\n              jump\t// in\n            tag_84:\n            tag_83:\n              swap1\n              0x00\n              mstore\n              keccak256(0x00, 0x20)\n              swap1\n              0x03\n              mul\n              add\n                /* \"Story.sol\":1792:1828  requestsToJoin[_index] = lastRequest */\n              0x00\n              dup3\n              add\n              mload\n              dup2\n              0x00\n              add\n              swap1\n              dup1\n              mload\n              swap1\n              0x20\n              add\n              swap1\n              tag_86\n              swap3\n              swap2\n              swap1\n              tag_87\n              jump\t// in\n            tag_86:\n              pop\n              0x20\n              dup3\n              add\n              mload\n              dup2\n              0x01\n              add\n              sstore\n              0x40\n              dup3\n              add\n              mload\n              dup2\n              0x02\n              add\n              exp(0x0100, 0x00)\n              dup2\n              sload\n              dup2\n              0xffffffffffffffffffffffffffffffffffffffff\n              mul\n              not\n              and\n              swap1\n              dup4\n              0xffffffffffffffffffffffffffffffffffffffff\n              and\n              mul\n              or\n              swap1\n              sstore\n              pop\n              swap1\n              pop\n              pop\n                /* \"Story.sol\":1904:1918  requestsToJoin */\n              0x02\n                /* \"Story.sol\":1904:1924  requestsToJoin.pop() */\n              dup1\n              sload\n              dup1\n              tag_88\n              jumpi\n              tag_89\n              tag_90\n              jump\t// in\n            tag_89:\n            tag_88:\n              0x01\n              swap1\n              sub\n              dup2\n              dup2\n              swap1\n              0x00\n              mstore\n              keccak256(0x00, 0x20)\n              swap1\n              0x03\n              mul\n              add\n              0x00\n              dup1\n              dup3\n              add\n              0x00\n              tag_92\n              swap2\n              swap1\n              tag_93\n              jump\t// in\n            tag_92:\n              0x01\n              dup3\n              add\n              0x00\n              swap1\n              sstore\n              0x02\n              dup3\n              add\n              exp(0x0100, 0x00)\n              dup2\n              sload\n              swap1\n              0xffffffffffffffffffffffffffffffffffffffff\n              mul\n              not\n              and\n              swap1\n              sstore\n              pop\n              pop\n              swap1\n              sstore\n                /* \"Story.sol\":2027:2031  true */\n              0x01\n                /* \"Story.sol\":1986:2004  authorsForSolidity */\n              0x00\n                /* \"Story.sol\":1986:2024  authorsForSolidity[lastRequest.author] */\n              dup1\n                /* \"Story.sol\":2005:2016  lastRequest */\n              dup4\n                /* \"Story.sol\":2005:2023  lastRequest.author */\n              0x40\n              add\n              mload\n                /* \"Story.sol\":1986:2024  authorsForSolidity[lastRequest.author] */\n              0xffffffffffffffffffffffffffffffffffffffff\n              and\n              0xffffffffffffffffffffffffffffffffffffffff\n              and\n              dup2\n              mstore\n              0x20\n              add\n              swap1\n              dup2\n              mstore\n              0x20\n              add\n              0x00\n              keccak256\n              0x00\n                /* \"Story.sol\":1986:2031  authorsForSolidity[lastRequest.author] = true */\n              0x0100\n              exp\n              dup2\n              sload\n              dup2\n              0xff\n              mul\n              not\n              and\n              swap1\n              dup4\n              iszero\n              iszero\n              mul\n              or\n              swap1\n              sstore\n              pop\n                /* \"Story.sol\":2042:2057  authorsForReact */\n              0x01\n                /* \"Story.sol\":2063:2074  lastRequest */\n              dup2\n                /* \"Story.sol\":2063:2081  lastRequest.author */\n              0x40\n              add\n              mload\n                /* \"Story.sol\":2042:2082  authorsForReact.push(lastRequest.author) */\n              swap1\n              dup1\n              0x01\n              dup2\n              sload\n              add\n              dup1\n              dup3\n              sstore\n              dup1\n              swap2\n              pop\n              pop\n              0x01\n              swap1\n              sub\n              swap1\n              0x00\n              mstore\n              keccak256(0x00, 0x20)\n              add\n              0x00\n              swap1\n              swap2\n              swap1\n              swap2\n              swap1\n              swap2\n              0x0100\n              exp\n              dup2\n              sload\n              dup2\n              0xffffffffffffffffffffffffffffffffffffffff\n              mul\n              not\n              and\n              swap1\n              dup4\n              0xffffffffffffffffffffffffffffffffffffffff\n              and\n              mul\n              or\n              swap1\n              sstore\n              pop\n                /* \"Story.sol\":1332:2090  {... */\n              pop\n              pop\n                /* \"Story.sol\":1279:2090  function approveRequestToJoin(uint256 _index) public {... */\n              pop\n              jump\t// out\n                /* \"Story.sol\":531:563  address[] public authorsForReact */\n            tag_35:\n              0x01\n              dup2\n              dup2\n              sload\n              dup2\n              lt\n              tag_95\n              jumpi\n              0x00\n              dup1\n              revert\n            tag_95:\n              swap1\n              0x00\n              mstore\n              keccak256(0x00, 0x20)\n              add\n              0x00\n              swap2\n              pop\n              sload\n              swap1\n              0x0100\n              exp\n              swap1\n              div\n              0xffffffffffffffffffffffffffffffffffffffff\n              and\n              dup2\n              jump\t// out\n                /* \"Story.sol\":878:1271  function createRequestToJoin(string memory _proposal) public {... */\n            tag_41:\n                /* \"Story.sol\":959:977  authorsForSolidity */\n              0x00\n                /* \"Story.sol\":959:989  authorsForSolidity[msg.sender] */\n              dup1\n                /* \"Story.sol\":978:988  msg.sender */\n              caller\n                /* \"Story.sol\":959:989  authorsForSolidity[msg.sender] */\n              0xffffffffffffffffffffffffffffffffffffffff\n              and\n              0xffffffffffffffffffffffffffffffffffffffff\n              and\n              dup2\n              mstore\n              0x20\n              add\n              swap1\n              dup2\n              mstore\n              0x20\n              add\n              0x00\n              keccak256\n              0x00\n              swap1\n              sload\n              swap1\n              0x0100\n              exp\n              swap1\n              div\n              0xff\n              and\n                /* \"Story.sol\":958:989  !authorsForSolidity[msg.sender] */\n              iszero\n                /* \"Story.sol\":950:1038  require(!authorsForSolidity[msg.sender], \"Author already exists in the list of authors\") */\n              tag_98\n              jumpi\n              mload(0x40)\n              0x08c379a000000000000000000000000000000000000000000000000000000000\n              dup2\n              mstore\n              0x04\n              add\n              tag_99\n              swap1\n              tag_100\n              jump\t// in\n            tag_99:\n              mload(0x40)\n              dup1\n              swap2\n              sub\n              swap1\n              revert\n            tag_98:\n                /* \"Story.sol\":1051:1082  RequestToJoin memory newRequest */\n              0x00\n                /* \"Story.sol\":1085:1219  RequestToJoin({... */\n              mload(0x40)\n              dup1\n              0x60\n              add\n              0x40\n              mstore\n              dup1\n                /* \"Story.sol\":1124:1133  _proposal */\n              dup4\n                /* \"Story.sol\":1085:1219  RequestToJoin({... */\n              dup2\n              mstore\n              0x20\n              add\n                /* \"Story.sol\":1159:1174  block.timestamp */\n              timestamp\n                /* \"Story.sol\":1085:1219  RequestToJoin({... */\n              dup2\n              mstore\n              0x20\n              add\n                /* \"Story.sol\":1197:1207  msg.sender */\n              caller\n                /* \"Story.sol\":1085:1219  RequestToJoin({... */\n              0xffffffffffffffffffffffffffffffffffffffff\n              and\n              dup2\n              mstore\n              pop\n                /* \"Story.sol\":1051:1219  RequestToJoin memory newRequest = RequestToJoin({... */\n              swap1\n              pop\n                /* \"Story.sol\":1232:1246  requestsToJoin */\n              0x02\n                /* \"Story.sol\":1252:1262  newRequest */\n              dup2\n                /* \"Story.sol\":1232:1263  requestsToJoin.push(newRequest) */\n              swap1\n              dup1\n              0x01\n              dup2\n              sload\n              add\n              dup1\n              dup3\n              sstore\n              dup1\n              swap2\n              pop\n              pop\n              0x01\n              swap1\n              sub\n              swap1\n              0x00\n              mstore\n              keccak256(0x00, 0x20)\n              swap1\n              0x03\n              mul\n              add\n              0x00\n              swap1\n              swap2\n              swap1\n              swap2\n              swap1\n              swap2\n              pop\n              0x00\n              dup3\n              add\n              mload\n              dup2\n              0x00\n              add\n              swap1\n              dup1\n              mload\n              swap1\n              0x20\n              add\n              swap1\n              tag_102\n              swap3\n              swap2\n              swap1\n              tag_87\n              jump\t// in\n            tag_102:\n              pop\n              0x20\n              dup3\n              add\n              mload\n              dup2\n              0x01\n              add\n              sstore\n              0x40\n              dup3\n              add\n              mload\n              dup2\n              0x02\n              add\n              exp(0x0100, 0x00)\n              dup2\n              sload\n              dup2\n              0xffffffffffffffffffffffffffffffffffffffff\n              mul\n              not\n              and\n              swap1\n              dup4\n              0xffffffffffffffffffffffffffffffffffffffff\n              and\n              mul\n              or\n              swap1\n              sstore\n              pop\n              pop\n              pop\n                /* \"Story.sol\":939:1271  {... */\n              pop\n                /* \"Story.sol\":878:1271  function createRequestToJoin(string memory _proposal) public {... */\n              pop\n              jump\t// out\n            tag_87:\n              dup3\n              dup1\n              sload\n              tag_103\n              swap1\n              tag_49\n              jump\t// in\n            tag_103:\n              swap1\n              0x00\n              mstore\n              keccak256(0x00, 0x20)\n              swap1\n              0x1f\n              add\n              0x20\n              swap1\n              div\n              dup2\n              add\n              swap3\n              dup3\n              tag_105\n              jumpi\n              0x00\n              dup6\n              sstore\n              jump(tag_104)\n            tag_105:\n              dup3\n              0x1f\n              lt\n              tag_106\n              jumpi\n              dup1\n              mload\n              not(0xff)\n              and\n              dup4\n              dup1\n              add\n              or\n              dup6\n              sstore\n              jump(tag_104)\n            tag_106:\n              dup3\n              dup1\n              add\n              0x01\n              add\n              dup6\n              sstore\n              dup3\n              iszero\n              tag_104\n              jumpi\n              swap2\n              dup3\n              add\n            tag_107:\n              dup3\n              dup2\n              gt\n              iszero\n              tag_108\n              jumpi\n              dup3\n              mload\n              dup3\n              sstore\n              swap2\n              0x20\n              add\n              swap2\n              swap1\n              0x01\n              add\n              swap1\n              jump(tag_107)\n            tag_108:\n            tag_104:\n              pop\n              swap1\n              pop\n              tag_109\n              swap2\n              swap1\n              tag_110\n              jump\t// in\n            tag_109:\n              pop\n              swap1\n              jump\t// out\n            tag_93:\n              pop\n              dup1\n              sload\n              tag_111\n              swap1\n              tag_49\n              jump\t// in\n            tag_111:\n              0x00\n              dup3\n              sstore\n              dup1\n              0x1f\n              lt\n              tag_113\n              jumpi\n              pop\n              jump(tag_112)\n            tag_113:\n              0x1f\n              add\n              0x20\n              swap1\n              div\n              swap1\n              0x00\n              mstore\n              keccak256(0x00, 0x20)\n              swap1\n              dup2\n              add\n              swap1\n              tag_114\n              swap2\n              swap1\n              tag_110\n              jump\t// in\n            tag_114:\n            tag_112:\n              pop\n              jump\t// out\n            tag_110:\n            tag_115:\n              dup1\n              dup3\n              gt\n              iszero\n              tag_116\n              jumpi\n              0x00\n              dup2\n              0x00\n              swap1\n              sstore\n              pop\n              0x01\n              add\n              jump(tag_115)\n            tag_116:\n              pop\n              swap1\n              jump\t// out\n                /* \"#utility.yul\":7:82   */\n            tag_117:\n                /* \"#utility.yul\":40:46   */\n              0x00\n                /* \"#utility.yul\":73:75   */\n              0x40\n                /* \"#utility.yul\":67:76   */\n              mload\n                /* \"#utility.yul\":57:76   */\n              swap1\n              pop\n                /* \"#utility.yul\":7:82   */\n              swap1\n              jump\t// out\n                /* \"#utility.yul\":88:205   */\n            tag_118:\n                /* \"#utility.yul\":197:198   */\n              0x00\n                /* \"#utility.yul\":194:195   */\n              dup1\n                /* \"#utility.yul\":187:199   */\n              revert\n                /* \"#utility.yul\":211:328   */\n            tag_119:\n                /* \"#utility.yul\":320:321   */\n              0x00\n                /* \"#utility.yul\":317:318   */\n              dup1\n                /* \"#utility.yul\":310:322   */\n              revert\n                /* \"#utility.yul\":334:460   */\n            tag_120:\n                /* \"#utility.yul\":371:378   */\n              0x00\n                /* \"#utility.yul\":411:453   */\n              0xffffffffffffffffffffffffffffffffffffffff\n                /* \"#utility.yul\":404:409   */\n              dup3\n                /* \"#utility.yul\":400:454   */\n              and\n                /* \"#utility.yul\":389:454   */\n              swap1\n              pop\n                /* \"#utility.yul\":334:460   */\n              swap2\n              swap1\n              pop\n              jump\t// out\n                /* \"#utility.yul\":466:562   */\n            tag_121:\n                /* \"#utility.yul\":503:510   */\n              0x00\n                /* \"#utility.yul\":532:556   */\n              tag_176\n                /* \"#utility.yul\":550:555   */\n              dup3\n                /* \"#utility.yul\":532:556   */\n              tag_120\n              jump\t// in\n            tag_176:\n                /* \"#utility.yul\":521:556   */\n              swap1\n              pop\n                /* \"#utility.yul\":466:562   */\n              swap2\n              swap1\n              pop\n              jump\t// out\n                /* \"#utility.yul\":568:690   */\n            tag_122:\n                /* \"#utility.yul\":641:665   */\n              tag_178\n                /* \"#utility.yul\":659:664   */\n              dup2\n                /* \"#utility.yul\":641:665   */\n              tag_121\n              jump\t// in\n            tag_178:\n                /* \"#utility.yul\":634:639   */\n              dup2\n                /* \"#utility.yul\":631:666   */\n              eq\n                /* \"#utility.yul\":621:684   */\n              tag_179\n              jumpi\n                /* \"#utility.yul\":680:681   */\n              0x00\n                /* \"#utility.yul\":677:678   */\n              dup1\n                /* \"#utility.yul\":670:682   */\n              revert\n                /* \"#utility.yul\":621:684   */\n            tag_179:\n                /* \"#utility.yul\":568:690   */\n              pop\n              jump\t// out\n                /* \"#utility.yul\":696:835   */\n            tag_123:\n                /* \"#utility.yul\":742:747   */\n              0x00\n                /* \"#utility.yul\":780:786   */\n              dup2\n                /* \"#utility.yul\":767:787   */\n              calldataload\n                /* \"#utility.yul\":758:787   */\n              swap1\n              pop\n                /* \"#utility.yul\":796:829   */\n              tag_181\n                /* \"#utility.yul\":823:828   */\n              dup2\n                /* \"#utility.yul\":796:829   */\n              tag_122\n              jump\t// in\n            tag_181:\n                /* \"#utility.yul\":696:835   */\n              swap3\n              swap2\n              pop\n              pop\n              jump\t// out\n                /* \"#utility.yul\":841:1170   */\n            tag_13:\n                /* \"#utility.yul\":900:906   */\n              0x00\n                /* \"#utility.yul\":949:951   */\n              0x20\n                /* \"#utility.yul\":937:946   */\n              dup3\n                /* \"#utility.yul\":928:935   */\n              dup5\n                /* \"#utility.yul\":924:947   */\n              sub\n                /* \"#utility.yul\":920:952   */\n              slt\n                /* \"#utility.yul\":917:1036   */\n              iszero\n              tag_183\n              jumpi\n                /* \"#utility.yul\":955:1034   */\n              tag_184\n              tag_118\n              jump\t// in\n            tag_184:\n                /* \"#utility.yul\":917:1036   */\n            tag_183:\n                /* \"#utility.yul\":1075:1076   */\n              0x00\n                /* \"#utility.yul\":1100:1153   */\n              tag_185\n                /* \"#utility.yul\":1145:1152   */\n              dup5\n                /* \"#utility.yul\":1136:1142   */\n              dup3\n                /* \"#utility.yul\":1125:1134   */\n              dup6\n                /* \"#utility.yul\":1121:1143   */\n              add\n                /* \"#utility.yul\":1100:1153   */\n              tag_123\n              jump\t// in\n            tag_185:\n                /* \"#utility.yul\":1090:1153   */\n              swap2\n              pop\n                /* \"#utility.yul\":1046:1163   */\n              pop\n                /* \"#utility.yul\":841:1170   */\n              swap3\n              swap2\n              pop\n              pop\n              jump\t// out\n                /* \"#utility.yul\":1176:1266   */\n            tag_124:\n                /* \"#utility.yul\":1210:1217   */\n              0x00\n                /* \"#utility.yul\":1253:1258   */\n              dup2\n                /* \"#utility.yul\":1246:1259   */\n              iszero\n                /* \"#utility.yul\":1239:1260   */\n              iszero\n                /* \"#utility.yul\":1228:1260   */\n              swap1\n              pop\n                /* \"#utility.yul\":1176:1266   */\n              swap2\n              swap1\n              pop\n              jump\t// out\n                /* \"#utility.yul\":1272:1381   */\n            tag_125:\n                /* \"#utility.yul\":1353:1374   */\n              tag_188\n                /* \"#utility.yul\":1368:1373   */\n              dup2\n                /* \"#utility.yul\":1353:1374   */\n              tag_124\n              jump\t// in\n            tag_188:\n                /* \"#utility.yul\":1348:1351   */\n              dup3\n                /* \"#utility.yul\":1341:1375   */\n              mstore\n                /* \"#utility.yul\":1272:1381   */\n              pop\n              pop\n              jump\t// out\n                /* \"#utility.yul\":1387:1597   */\n            tag_16:\n                /* \"#utility.yul\":1474:1478   */\n              0x00\n                /* \"#utility.yul\":1512:1514   */\n              0x20\n                /* \"#utility.yul\":1501:1510   */\n              dup3\n                /* \"#utility.yul\":1497:1515   */\n              add\n                /* \"#utility.yul\":1489:1515   */\n              swap1\n              pop\n                /* \"#utility.yul\":1525:1590   */\n              tag_190\n                /* \"#utility.yul\":1587:1588   */\n              0x00\n                /* \"#utility.yul\":1576:1585   */\n              dup4\n                /* \"#utility.yul\":1572:1589   */\n              add\n                /* \"#utility.yul\":1563:1569   */\n              dup5\n                /* \"#utility.yul\":1525:1590   */\n              tag_125\n              jump\t// in\n            tag_190:\n                /* \"#utility.yul\":1387:1597   */\n              swap3\n              swap2\n              pop\n              pop\n              jump\t// out\n                /* \"#utility.yul\":1603:1717   */\n            tag_126:\n                /* \"#utility.yul\":1670:1676   */\n              0x00\n                /* \"#utility.yul\":1704:1709   */\n              dup2\n                /* \"#utility.yul\":1698:1710   */\n              mload\n                /* \"#utility.yul\":1688:1710   */\n              swap1\n              pop\n                /* \"#utility.yul\":1603:1717   */\n              swap2\n              swap1\n              pop\n              jump\t// out\n                /* \"#utility.yul\":1723:1907   */\n            tag_127:\n                /* \"#utility.yul\":1822:1833   */\n              0x00\n                /* \"#utility.yul\":1856:1862   */\n              dup3\n                /* \"#utility.yul\":1851:1854   */\n              dup3\n                /* \"#utility.yul\":1844:1863   */\n              mstore\n                /* \"#utility.yul\":1896:1900   */\n              0x20\n                /* \"#utility.yul\":1891:1894   */\n              dup3\n                /* \"#utility.yul\":1887:1901   */\n              add\n                /* \"#utility.yul\":1872:1901   */\n              swap1\n              pop\n                /* \"#utility.yul\":1723:1907   */\n              swap3\n              swap2\n              pop\n              pop\n              jump\t// out\n                /* \"#utility.yul\":1913:2045   */\n            tag_128:\n                /* \"#utility.yul\":1980:1984   */\n              0x00\n                /* \"#utility.yul\":2003:2006   */\n              dup2\n                /* \"#utility.yul\":1995:2006   */\n              swap1\n              pop\n                /* \"#utility.yul\":2033:2037   */\n              0x20\n                /* \"#utility.yul\":2028:2031   */\n              dup3\n                /* \"#utility.yul\":2024:2038   */\n              add\n                /* \"#utility.yul\":2016:2038   */\n              swap1\n              pop\n                /* \"#utility.yul\":1913:2045   */\n              swap2\n              swap1\n              pop\n              jump\t// out\n                /* \"#utility.yul\":2051:2159   */\n            tag_129:\n                /* \"#utility.yul\":2128:2152   */\n              tag_195\n                /* \"#utility.yul\":2146:2151   */\n              dup2\n                /* \"#utility.yul\":2128:2152   */\n              tag_121\n              jump\t// in\n            tag_195:\n                /* \"#utility.yul\":2123:2126   */\n              dup3\n                /* \"#utility.yul\":2116:2153   */\n              mstore\n                /* \"#utility.yul\":2051:2159   */\n              pop\n              pop\n              jump\t// out\n                /* \"#utility.yul\":2165:2344   */\n            tag_130:\n                /* \"#utility.yul\":2234:2244   */\n              0x00\n                /* \"#utility.yul\":2255:2301   */\n              tag_197\n                /* \"#utility.yul\":2297:2300   */\n              dup4\n                /* \"#utility.yul\":2289:2295   */\n              dup4\n                /* \"#utility.yul\":2255:2301   */\n              tag_129\n              jump\t// in\n            tag_197:\n                /* \"#utility.yul\":2333:2337   */\n              0x20\n                /* \"#utility.yul\":2328:2331   */\n              dup4\n                /* \"#utility.yul\":2324:2338   */\n              add\n                /* \"#utility.yul\":2310:2338   */\n              swap1\n              pop\n                /* \"#utility.yul\":2165:2344   */\n              swap3\n              swap2\n              pop\n              pop\n              jump\t// out\n                /* \"#utility.yul\":2350:2463   */\n            tag_131:\n                /* \"#utility.yul\":2420:2424   */\n              0x00\n                /* \"#utility.yul\":2452:2456   */\n              0x20\n                /* \"#utility.yul\":2447:2450   */\n              dup3\n                /* \"#utility.yul\":2443:2457   */\n              add\n                /* \"#utility.yul\":2435:2457   */\n              swap1\n              pop\n                /* \"#utility.yul\":2350:2463   */\n              swap2\n              swap1\n              pop\n              jump\t// out\n                /* \"#utility.yul\":2499:3231   */\n            tag_132:\n                /* \"#utility.yul\":2618:2621   */\n              0x00\n                /* \"#utility.yul\":2647:2701   */\n              tag_200\n                /* \"#utility.yul\":2695:2700   */\n              dup3\n                /* \"#utility.yul\":2647:2701   */\n              tag_126\n              jump\t// in\n            tag_200:\n                /* \"#utility.yul\":2717:2803   */\n              tag_201\n                /* \"#utility.yul\":2796:2802   */\n              dup2\n                /* \"#utility.yul\":2791:2794   */\n              dup6\n                /* \"#utility.yul\":2717:2803   */\n              tag_127\n              jump\t// in\n            tag_201:\n                /* \"#utility.yul\":2710:2803   */\n              swap4\n              pop\n                /* \"#utility.yul\":2827:2883   */\n              tag_202\n                /* \"#utility.yul\":2877:2882   */\n              dup4\n                /* \"#utility.yul\":2827:2883   */\n              tag_128\n              jump\t// in\n            tag_202:\n                /* \"#utility.yul\":2906:2913   */\n              dup1\n                /* \"#utility.yul\":2937:2938   */\n              0x00\n                /* \"#utility.yul\":2922:3206   */\n            tag_203:\n                /* \"#utility.yul\":2947:2953   */\n              dup4\n                /* \"#utility.yul\":2944:2945   */\n              dup2\n                /* \"#utility.yul\":2941:2954   */\n              lt\n                /* \"#utility.yul\":2922:3206   */\n              iszero\n              tag_205\n              jumpi\n                /* \"#utility.yul\":3023:3029   */\n              dup2\n                /* \"#utility.yul\":3017:3030   */\n              mload\n                /* \"#utility.yul\":3050:3113   */\n              tag_206\n                /* \"#utility.yul\":3109:3112   */\n              dup9\n                /* \"#utility.yul\":3094:3107   */\n              dup3\n                /* \"#utility.yul\":3050:3113   */\n              tag_130\n              jump\t// in\n            tag_206:\n                /* \"#utility.yul\":3043:3113   */\n              swap8\n              pop\n                /* \"#utility.yul\":3136:3196   */\n              tag_207\n                /* \"#utility.yul\":3189:3195   */\n              dup4\n                /* \"#utility.yul\":3136:3196   */\n              tag_131\n              jump\t// in\n            tag_207:\n                /* \"#utility.yul\":3126:3196   */\n              swap3\n              pop\n                /* \"#utility.yul\":2982:3206   */\n              pop\n                /* \"#utility.yul\":2969:2970   */\n              0x01\n                /* \"#utility.yul\":2966:2967   */\n              dup2\n                /* \"#utility.yul\":2962:2971   */\n              add\n                /* \"#utility.yul\":2957:2971   */\n              swap1\n              pop\n                /* \"#utility.yul\":2922:3206   */\n              jump(tag_203)\n            tag_205:\n                /* \"#utility.yul\":2926:2940   */\n              pop\n                /* \"#utility.yul\":3222:3225   */\n              dup6\n                /* \"#utility.yul\":3215:3225   */\n              swap4\n              pop\n                /* \"#utility.yul\":2623:3231   */\n              pop\n              pop\n              pop\n                /* \"#utility.yul\":2499:3231   */\n              swap3\n              swap2\n              pop\n              pop\n              jump\t// out\n                /* \"#utility.yul\":3237:3380   */\n            tag_133:\n                /* \"#utility.yul\":3333:3339   */\n              0x00\n                /* \"#utility.yul\":3367:3372   */\n              dup2\n                /* \"#utility.yul\":3361:3373   */\n              mload\n                /* \"#utility.yul\":3351:3373   */\n              swap1\n              pop\n                /* \"#utility.yul\":3237:3380   */\n              swap2\n              swap1\n              pop\n              jump\t// out\n                /* \"#utility.yul\":3386:3599   */\n            tag_134:\n                /* \"#utility.yul\":3514:3525   */\n              0x00\n                /* \"#utility.yul\":3548:3554   */\n              dup3\n                /* \"#utility.yul\":3543:3546   */\n              dup3\n                /* \"#utility.yul\":3536:3555   */\n              mstore\n                /* \"#utility.yul\":3588:3592   */\n              0x20\n                /* \"#utility.yul\":3583:3586   */\n              dup3\n                /* \"#utility.yul\":3579:3593   */\n              add\n                /* \"#utility.yul\":3564:3593   */\n              swap1\n              pop\n                /* \"#utility.yul\":3386:3599   */\n              swap3\n              swap2\n              pop\n              pop\n              jump\t// out\n                /* \"#utility.yul\":3605:3766   */\n            tag_135:\n                /* \"#utility.yul\":3701:3705   */\n              0x00\n                /* \"#utility.yul\":3724:3727   */\n              dup2\n                /* \"#utility.yul\":3716:3727   */\n              swap1\n              pop\n                /* \"#utility.yul\":3754:3758   */\n              0x20\n                /* \"#utility.yul\":3749:3752   */\n              dup3\n                /* \"#utility.yul\":3745:3759   */\n              add\n                /* \"#utility.yul\":3737:3759   */\n              swap1\n              pop\n                /* \"#utility.yul\":3605:3766   */\n              swap2\n              swap1\n              pop\n              jump\t// out\n                /* \"#utility.yul\":3772:3871   */\n            tag_136:\n                /* \"#utility.yul\":3824:3830   */\n              0x00\n                /* \"#utility.yul\":3858:3863   */\n              dup2\n                /* \"#utility.yul\":3852:3864   */\n              mload\n                /* \"#utility.yul\":3842:3864   */\n              swap1\n              pop\n                /* \"#utility.yul\":3772:3871   */\n              swap2\n              swap1\n              pop\n              jump\t// out\n                /* \"#utility.yul\":3877:4036   */\n            tag_137:\n                /* \"#utility.yul\":3951:3962   */\n              0x00\n                /* \"#utility.yul\":3985:3991   */\n              dup3\n                /* \"#utility.yul\":3980:3983   */\n              dup3\n                /* \"#utility.yul\":3973:3992   */\n              mstore\n                /* \"#utility.yul\":4025:4029   */\n              0x20\n                /* \"#utility.yul\":4020:4023   */\n              dup3\n                /* \"#utility.yul\":4016:4030   */\n              add\n                /* \"#utility.yul\":4001:4030   */\n              swap1\n              pop\n                /* \"#utility.yul\":3877:4036   */\n              swap3\n              swap2\n              pop\n              pop\n              jump\t// out\n                /* \"#utility.yul\":4042:4349   */\n            tag_138:\n                /* \"#utility.yul\":4110:4111   */\n              0x00\n                /* \"#utility.yul\":4120:4233   */\n            tag_214:\n                /* \"#utility.yul\":4134:4140   */\n              dup4\n                /* \"#utility.yul\":4131:4132   */\n              dup2\n                /* \"#utility.yul\":4128:4141   */\n              lt\n                /* \"#utility.yul\":4120:4233   */\n              iszero\n              tag_216\n              jumpi\n                /* \"#utility.yul\":4219:4220   */\n              dup1\n                /* \"#utility.yul\":4214:4217   */\n              dup3\n                /* \"#utility.yul\":4210:4221   */\n              add\n                /* \"#utility.yul\":4204:4222   */\n              mload\n                /* \"#utility.yul\":4200:4201   */\n              dup2\n                /* \"#utility.yul\":4195:4198   */\n              dup5\n                /* \"#utility.yul\":4191:4202   */\n              add\n                /* \"#utility.yul\":4184:4223   */\n              mstore\n                /* \"#utility.yul\":4156:4158   */\n              0x20\n                /* \"#utility.yul\":4153:4154   */\n              dup2\n                /* \"#utility.yul\":4149:4159   */\n              add\n                /* \"#utility.yul\":4144:4159   */\n              swap1\n              pop\n                /* \"#utility.yul\":4120:4233   */\n              jump(tag_214)\n            tag_216:\n                /* \"#utility.yul\":4251:4257   */\n              dup4\n                /* \"#utility.yul\":4248:4249   */\n              dup2\n                /* \"#utility.yul\":4245:4258   */\n              gt\n                /* \"#utility.yul\":4242:4343   */\n              iszero\n              tag_217\n              jumpi\n                /* \"#utility.yul\":4331:4332   */\n              0x00\n                /* \"#utility.yul\":4322:4328   */\n              dup5\n                /* \"#utility.yul\":4317:4320   */\n              dup5\n                /* \"#utility.yul\":4313:4329   */\n              add\n                /* \"#utility.yul\":4306:4333   */\n              mstore\n                /* \"#utility.yul\":4242:4343   */\n            tag_217:\n                /* \"#utility.yul\":4091:4349   */\n              pop\n                /* \"#utility.yul\":4042:4349   */\n              pop\n              pop\n              pop\n              jump\t// out\n                /* \"#utility.yul\":4355:4457   */\n            tag_139:\n                /* \"#utility.yul\":4396:4402   */\n              0x00\n                /* \"#utility.yul\":4447:4449   */\n              0x1f\n                /* \"#utility.yul\":4443:4450   */\n              not\n                /* \"#utility.yul\":4438:4440   */\n              0x1f\n                /* \"#utility.yul\":4431:4436   */\n              dup4\n                /* \"#utility.yul\":4427:4441   */\n              add\n                /* \"#utility.yul\":4423:4451   */\n              and\n                /* \"#utility.yul\":4413:4451   */\n              swap1\n              pop\n                /* \"#utility.yul\":4355:4457   */\n              swap2\n              swap1\n              pop\n              jump\t// out\n                /* \"#utility.yul\":4463:4807   */\n            tag_140:\n                /* \"#utility.yul\":4541:4544   */\n              0x00\n                /* \"#utility.yul\":4569:4608   */\n              tag_220\n                /* \"#utility.yul\":4602:4607   */\n              dup3\n                /* \"#utility.yul\":4569:4608   */\n              tag_136\n              jump\t// in\n            tag_220:\n                /* \"#utility.yul\":4624:4685   */\n              tag_221\n                /* \"#utility.yul\":4678:4684   */\n              dup2\n                /* \"#utility.yul\":4673:4676   */\n              dup6\n                /* \"#utility.yul\":4624:4685   */\n              tag_137\n              jump\t// in\n            tag_221:\n                /* \"#utility.yul\":4617:4685   */\n              swap4\n              pop\n                /* \"#utility.yul\":4694:4746   */\n              tag_222\n                /* \"#utility.yul\":4739:4745   */\n              dup2\n                /* \"#utility.yul\":4734:4737   */\n              dup6\n                /* \"#utility.yul\":4727:4731   */\n              0x20\n                /* \"#utility.yul\":4720:4725   */\n              dup7\n                /* \"#utility.yul\":4716:4732   */\n              add\n                /* \"#utility.yul\":4694:4746   */\n              tag_138\n              jump\t// in\n            tag_222:\n                /* \"#utility.yul\":4771:4800   */\n              tag_223\n                /* \"#utility.yul\":4793:4799   */\n              dup2\n                /* \"#utility.yul\":4771:4800   */\n              tag_139\n              jump\t// in\n            tag_223:\n                /* \"#utility.yul\":4766:4769   */\n              dup5\n                /* \"#utility.yul\":4762:4801   */\n              add\n                /* \"#utility.yul\":4755:4801   */\n              swap2\n              pop\n                /* \"#utility.yul\":4545:4807   */\n              pop\n                /* \"#utility.yul\":4463:4807   */\n              swap3\n              swap2\n              pop\n              pop\n              jump\t// out\n                /* \"#utility.yul\":4813:4890   */\n            tag_141:\n                /* \"#utility.yul\":4850:4857   */\n              0x00\n                /* \"#utility.yul\":4879:4884   */\n              dup2\n                /* \"#utility.yul\":4868:4884   */\n              swap1\n              pop\n                /* \"#utility.yul\":4813:4890   */\n              swap2\n              swap1\n              pop\n              jump\t// out\n                /* \"#utility.yul\":4896:5004   */\n            tag_142:\n                /* \"#utility.yul\":4973:4997   */\n              tag_226\n                /* \"#utility.yul\":4991:4996   */\n              dup2\n                /* \"#utility.yul\":4973:4997   */\n              tag_141\n              jump\t// in\n            tag_226:\n                /* \"#utility.yul\":4968:4971   */\n              dup3\n                /* \"#utility.yul\":4961:4998   */\n              mstore\n                /* \"#utility.yul\":4896:5004   */\n              pop\n              pop\n              jump\t// out\n                /* \"#utility.yul\":5074:5863   */\n            tag_143:\n                /* \"#utility.yul\":5191:5194   */\n              0x00\n                /* \"#utility.yul\":5227:5231   */\n              0x60\n                /* \"#utility.yul\":5222:5225   */\n              dup4\n                /* \"#utility.yul\":5218:5232   */\n              add\n                /* \"#utility.yul\":5318:5322   */\n              0x00\n                /* \"#utility.yul\":5311:5316   */\n              dup4\n                /* \"#utility.yul\":5307:5323   */\n              add\n                /* \"#utility.yul\":5301:5324   */\n              mload\n                /* \"#utility.yul\":5371:5374   */\n              dup5\n                /* \"#utility.yul\":5365:5369   */\n              dup3\n                /* \"#utility.yul\":5361:5375   */\n              sub\n                /* \"#utility.yul\":5354:5358   */\n              0x00\n                /* \"#utility.yul\":5349:5352   */\n              dup7\n                /* \"#utility.yul\":5345:5359   */\n              add\n                /* \"#utility.yul\":5338:5376   */\n              mstore\n                /* \"#utility.yul\":5397:5470   */\n              tag_228\n                /* \"#utility.yul\":5465:5469   */\n              dup3\n                /* \"#utility.yul\":5451:5463   */\n              dup3\n                /* \"#utility.yul\":5397:5470   */\n              tag_140\n              jump\t// in\n            tag_228:\n                /* \"#utility.yul\":5389:5470   */\n              swap2\n              pop\n                /* \"#utility.yul\":5242:5481   */\n              pop\n                /* \"#utility.yul\":5568:5572   */\n              0x20\n                /* \"#utility.yul\":5561:5566   */\n              dup4\n                /* \"#utility.yul\":5557:5573   */\n              add\n                /* \"#utility.yul\":5551:5574   */\n              mload\n                /* \"#utility.yul\":5587:5650   */\n              tag_229\n                /* \"#utility.yul\":5644:5648   */\n              0x20\n                /* \"#utility.yul\":5639:5642   */\n              dup7\n                /* \"#utility.yul\":5635:5649   */\n              add\n                /* \"#utility.yul\":5621:5633   */\n              dup3\n                /* \"#utility.yul\":5587:5650   */\n              tag_142\n              jump\t// in\n            tag_229:\n                /* \"#utility.yul\":5491:5660   */\n              pop\n                /* \"#utility.yul\":5744:5748   */\n              0x40\n                /* \"#utility.yul\":5737:5742   */\n              dup4\n                /* \"#utility.yul\":5733:5749   */\n              add\n                /* \"#utility.yul\":5727:5750   */\n              mload\n                /* \"#utility.yul\":5763:5826   */\n              tag_230\n                /* \"#utility.yul\":5820:5824   */\n              0x40\n                /* \"#utility.yul\":5815:5818   */\n              dup7\n                /* \"#utility.yul\":5811:5825   */\n              add\n                /* \"#utility.yul\":5797:5809   */\n              dup3\n                /* \"#utility.yul\":5763:5826   */\n              tag_129\n              jump\t// in\n            tag_230:\n                /* \"#utility.yul\":5670:5836   */\n              pop\n                /* \"#utility.yul\":5853:5857   */\n              dup1\n                /* \"#utility.yul\":5846:5857   */\n              swap2\n              pop\n                /* \"#utility.yul\":5196:5863   */\n              pop\n                /* \"#utility.yul\":5074:5863   */\n              swap3\n              swap2\n              pop\n              pop\n              jump\t// out\n                /* \"#utility.yul\":5869:6141   */\n            tag_144:\n                /* \"#utility.yul\":5996:6006   */\n              0x00\n                /* \"#utility.yul\":6031:6135   */\n              tag_232\n                /* \"#utility.yul\":6131:6134   */\n              dup4\n                /* \"#utility.yul\":6123:6129   */\n              dup4\n                /* \"#utility.yul\":6031:6135   */\n              tag_143\n              jump\t// in\n            tag_232:\n                /* \"#utility.yul\":6017:6135   */\n              swap1\n              pop\n                /* \"#utility.yul\":5869:6141   */\n              swap3\n              swap2\n              pop\n              pop\n              jump\t// out\n                /* \"#utility.yul\":6147:6289   */\n            tag_145:\n                /* \"#utility.yul\":6246:6250   */\n              0x00\n                /* \"#utility.yul\":6278:6282   */\n              0x20\n                /* \"#utility.yul\":6273:6276   */\n              dup3\n                /* \"#utility.yul\":6269:6283   */\n              add\n                /* \"#utility.yul\":6261:6283   */\n              swap1\n              pop\n                /* \"#utility.yul\":6147:6289   */\n              swap2\n              swap1\n              pop\n              jump\t// out\n                /* \"#utility.yul\":6363:7506   */\n            tag_146:\n                /* \"#utility.yul\":6540:6543   */\n              0x00\n                /* \"#utility.yul\":6569:6652   */\n              tag_235\n                /* \"#utility.yul\":6646:6651   */\n              dup3\n                /* \"#utility.yul\":6569:6652   */\n              tag_133\n              jump\t// in\n            tag_235:\n                /* \"#utility.yul\":6668:6783   */\n              tag_236\n                /* \"#utility.yul\":6776:6782   */\n              dup2\n                /* \"#utility.yul\":6771:6774   */\n              dup6\n                /* \"#utility.yul\":6668:6783   */\n              tag_134\n              jump\t// in\n            tag_236:\n                /* \"#utility.yul\":6661:6783   */\n              swap4\n              pop\n                /* \"#utility.yul\":6809:6812   */\n              dup4\n                /* \"#utility.yul\":6854:6858   */\n              0x20\n                /* \"#utility.yul\":6846:6852   */\n              dup3\n                /* \"#utility.yul\":6842:6859   */\n              mul\n                /* \"#utility.yul\":6837:6840   */\n              dup6\n                /* \"#utility.yul\":6833:6860   */\n              add\n                /* \"#utility.yul\":6884:6969   */\n              tag_237\n                /* \"#utility.yul\":6963:6968   */\n              dup6\n                /* \"#utility.yul\":6884:6969   */\n              tag_135\n              jump\t// in\n            tag_237:\n                /* \"#utility.yul\":6992:6999   */\n              dup1\n                /* \"#utility.yul\":7023:7024   */\n              0x00\n                /* \"#utility.yul\":7008:7461   */\n            tag_238:\n                /* \"#utility.yul\":7033:7039   */\n              dup6\n                /* \"#utility.yul\":7030:7031   */\n              dup2\n                /* \"#utility.yul\":7027:7040   */\n              lt\n                /* \"#utility.yul\":7008:7461   */\n              iszero\n              tag_240\n              jumpi\n                /* \"#utility.yul\":7104:7113   */\n              dup5\n                /* \"#utility.yul\":7098:7102   */\n              dup5\n                /* \"#utility.yul\":7094:7114   */\n              sub\n                /* \"#utility.yul\":7089:7092   */\n              dup10\n                /* \"#utility.yul\":7082:7115   */\n              mstore\n                /* \"#utility.yul\":7155:7161   */\n              dup2\n                /* \"#utility.yul\":7149:7162   */\n              mload\n                /* \"#utility.yul\":7183:7305   */\n              tag_241\n                /* \"#utility.yul\":7300:7304   */\n              dup6\n                /* \"#utility.yul\":7285:7298   */\n              dup3\n                /* \"#utility.yul\":7183:7305   */\n              tag_144\n              jump\t// in\n            tag_241:\n                /* \"#utility.yul\":7175:7305   */\n              swap5\n              pop\n                /* \"#utility.yul\":7328:7417   */\n              tag_242\n                /* \"#utility.yul\":7410:7416   */\n              dup4\n                /* \"#utility.yul\":7328:7417   */\n              tag_145\n              jump\t// in\n            tag_242:\n                /* \"#utility.yul\":7318:7417   */\n              swap3\n              pop\n                /* \"#utility.yul\":7446:7450   */\n              0x20\n                /* \"#utility.yul\":7441:7444   */\n              dup11\n                /* \"#utility.yul\":7437:7451   */\n              add\n                /* \"#utility.yul\":7430:7451   */\n              swap10\n              pop\n                /* \"#utility.yul\":7068:7461   */\n              pop\n                /* \"#utility.yul\":7055:7056   */\n              0x01\n                /* \"#utility.yul\":7052:7053   */\n              dup2\n                /* \"#utility.yul\":7048:7057   */\n              add\n                /* \"#utility.yul\":7043:7057   */\n              swap1\n              pop\n                /* \"#utility.yul\":7008:7461   */\n              jump(tag_238)\n            tag_240:\n                /* \"#utility.yul\":7012:7026   */\n              pop\n                /* \"#utility.yul\":7477:7481   */\n              dup3\n                /* \"#utility.yul\":7470:7481   */\n              swap8\n              pop\n                /* \"#utility.yul\":7497:7500   */\n              dup8\n                /* \"#utility.yul\":7490:7500   */\n              swap6\n              pop\n                /* \"#utility.yul\":6545:7506   */\n              pop\n              pop\n              pop\n              pop\n              pop\n                /* \"#utility.yul\":6363:7506   */\n              swap3\n              swap2\n              pop\n              pop\n              jump\t// out\n                /* \"#utility.yul\":7512:8262   */\n            tag_20:\n                /* \"#utility.yul\":7791:7795   */\n              0x00\n                /* \"#utility.yul\":7829:7831   */\n              0x40\n                /* \"#utility.yul\":7818:7827   */\n              dup3\n                /* \"#utility.yul\":7814:7832   */\n              add\n                /* \"#utility.yul\":7806:7832   */\n              swap1\n              pop\n                /* \"#utility.yul\":7878:7887   */\n              dup2\n                /* \"#utility.yul\":7872:7876   */\n              dup2\n                /* \"#utility.yul\":7868:7888   */\n              sub\n                /* \"#utility.yul\":7864:7865   */\n              0x00\n                /* \"#utility.yul\":7853:7862   */\n              dup4\n                /* \"#utility.yul\":7849:7866   */\n              add\n                /* \"#utility.yul\":7842:7889   */\n              mstore\n                /* \"#utility.yul\":7906:8014   */\n              tag_244\n                /* \"#utility.yul\":8009:8013   */\n              dup2\n                /* \"#utility.yul\":8000:8006   */\n              dup6\n                /* \"#utility.yul\":7906:8014   */\n              tag_132\n              jump\t// in\n            tag_244:\n                /* \"#utility.yul\":7898:8014   */\n              swap1\n              pop\n                /* \"#utility.yul\":8061:8070   */\n              dup2\n                /* \"#utility.yul\":8055:8059   */\n              dup2\n                /* \"#utility.yul\":8051:8071   */\n              sub\n                /* \"#utility.yul\":8046:8048   */\n              0x20\n                /* \"#utility.yul\":8035:8044   */\n              dup4\n                /* \"#utility.yul\":8031:8049   */\n              add\n                /* \"#utility.yul\":8024:8072   */\n              mstore\n                /* \"#utility.yul\":8089:8255   */\n              tag_245\n                /* \"#utility.yul\":8250:8254   */\n              dup2\n                /* \"#utility.yul\":8241:8247   */\n              dup5\n                /* \"#utility.yul\":8089:8255   */\n              tag_146\n              jump\t// in\n            tag_245:\n                /* \"#utility.yul\":8081:8255   */\n              swap1\n              pop\n                /* \"#utility.yul\":7512:8262   */\n              swap4\n              swap3\n              pop\n              pop\n              pop\n              jump\t// out\n                /* \"#utility.yul\":8268:8390   */\n            tag_147:\n                /* \"#utility.yul\":8341:8365   */\n              tag_247\n                /* \"#utility.yul\":8359:8364   */\n              dup2\n                /* \"#utility.yul\":8341:8365   */\n              tag_141\n              jump\t// in\n            tag_247:\n                /* \"#utility.yul\":8334:8339   */\n              dup2\n                /* \"#utility.yul\":8331:8366   */\n              eq\n                /* \"#utility.yul\":8321:8384   */\n              tag_248\n              jumpi\n                /* \"#utility.yul\":8380:8381   */\n              0x00\n                /* \"#utility.yul\":8377:8378   */\n              dup1\n                /* \"#utility.yul\":8370:8382   */\n              revert\n                /* \"#utility.yul\":8321:8384   */\n            tag_248:\n                /* \"#utility.yul\":8268:8390   */\n              pop\n              jump\t// out\n                /* \"#utility.yul\":8396:8535   */\n            tag_148:\n                /* \"#utility.yul\":8442:8447   */\n              0x00\n                /* \"#utility.yul\":8480:8486   */\n              dup2\n                /* \"#utility.yul\":8467:8487   */\n              calldataload\n                /* \"#utility.yul\":8458:8487   */\n              swap1\n              pop\n                /* \"#utility.yul\":8496:8529   */\n              tag_250\n                /* \"#utility.yul\":8523:8528   */\n              dup2\n                /* \"#utility.yul\":8496:8529   */\n              tag_147\n              jump\t// in\n            tag_250:\n                /* \"#utility.yul\":8396:8535   */\n              swap3\n              swap2\n              pop\n              pop\n              jump\t// out\n                /* \"#utility.yul\":8541:8870   */\n            tag_26:\n                /* \"#utility.yul\":8600:8606   */\n              0x00\n                /* \"#utility.yul\":8649:8651   */\n              0x20\n                /* \"#utility.yul\":8637:8646   */\n              dup3\n                /* \"#utility.yul\":8628:8635   */\n              dup5\n                /* \"#utility.yul\":8624:8647   */\n              sub\n                /* \"#utility.yul\":8620:8652   */\n              slt\n                /* \"#utility.yul\":8617:8736   */\n              iszero\n              tag_252\n              jumpi\n                /* \"#utility.yul\":8655:8734   */\n              tag_253\n              tag_118\n              jump\t// in\n            tag_253:\n                /* \"#utility.yul\":8617:8736   */\n            tag_252:\n                /* \"#utility.yul\":8775:8776   */\n              0x00\n                /* \"#utility.yul\":8800:8853   */\n              tag_254\n                /* \"#utility.yul\":8845:8852   */\n              dup5\n                /* \"#utility.yul\":8836:8842   */\n              dup3\n                /* \"#utility.yul\":8825:8834   */\n              dup6\n                /* \"#utility.yul\":8821:8843   */\n              add\n                /* \"#utility.yul\":8800:8853   */\n              tag_148\n              jump\t// in\n            tag_254:\n                /* \"#utility.yul\":8790:8853   */\n              swap2\n              pop\n                /* \"#utility.yul\":8746:8863   */\n              pop\n                /* \"#utility.yul\":8541:8870   */\n              swap3\n              swap2\n              pop\n              pop\n              jump\t// out\n                /* \"#utility.yul\":8876:9045   */\n            tag_149:\n                /* \"#utility.yul\":8960:8971   */\n              0x00\n                /* \"#utility.yul\":8994:9000   */\n              dup3\n                /* \"#utility.yul\":8989:8992   */\n              dup3\n                /* \"#utility.yul\":8982:9001   */\n              mstore\n                /* \"#utility.yul\":9034:9038   */\n              0x20\n                /* \"#utility.yul\":9029:9032   */\n              dup3\n                /* \"#utility.yul\":9025:9039   */\n              add\n                /* \"#utility.yul\":9010:9039   */\n              swap1\n              pop\n                /* \"#utility.yul\":8876:9045   */\n              swap3\n              swap2\n              pop\n              pop\n              jump\t// out\n                /* \"#utility.yul\":9051:9415   */\n            tag_150:\n                /* \"#utility.yul\":9139:9142   */\n              0x00\n                /* \"#utility.yul\":9167:9206   */\n              tag_257\n                /* \"#utility.yul\":9200:9205   */\n              dup3\n                /* \"#utility.yul\":9167:9206   */\n              tag_136\n              jump\t// in\n            tag_257:\n                /* \"#utility.yul\":9222:9293   */\n              tag_258\n                /* \"#utility.yul\":9286:9292   */\n              dup2\n                /* \"#utility.yul\":9281:9284   */\n              dup6\n                /* \"#utility.yul\":9222:9293   */\n              tag_149\n              jump\t// in\n            tag_258:\n                /* \"#utility.yul\":9215:9293   */\n              swap4\n              pop\n                /* \"#utility.yul\":9302:9354   */\n              tag_259\n                /* \"#utility.yul\":9347:9353   */\n              dup2\n                /* \"#utility.yul\":9342:9345   */\n              dup6\n                /* \"#utility.yul\":9335:9339   */\n              0x20\n                /* \"#utility.yul\":9328:9333   */\n              dup7\n                /* \"#utility.yul\":9324:9340   */\n              add\n                /* \"#utility.yul\":9302:9354   */\n              tag_138\n              jump\t// in\n            tag_259:\n                /* \"#utility.yul\":9379:9408   */\n              tag_260\n                /* \"#utility.yul\":9401:9407   */\n              dup2\n                /* \"#utility.yul\":9379:9408   */\n              tag_139\n              jump\t// in\n            tag_260:\n                /* \"#utility.yul\":9374:9377   */\n              dup5\n                /* \"#utility.yul\":9370:9409   */\n              add\n                /* \"#utility.yul\":9363:9409   */\n              swap2\n              pop\n                /* \"#utility.yul\":9143:9415   */\n              pop\n                /* \"#utility.yul\":9051:9415   */\n              swap3\n              swap2\n              pop\n              pop\n              jump\t// out\n                /* \"#utility.yul\":9421:9539   */\n            tag_151:\n                /* \"#utility.yul\":9508:9532   */\n              tag_262\n                /* \"#utility.yul\":9526:9531   */\n              dup2\n                /* \"#utility.yul\":9508:9532   */\n              tag_141\n              jump\t// in\n            tag_262:\n                /* \"#utility.yul\":9503:9506   */\n              dup3\n                /* \"#utility.yul\":9496:9533   */\n              mstore\n                /* \"#utility.yul\":9421:9539   */\n              pop\n              pop\n              jump\t// out\n                /* \"#utility.yul\":9545:9663   */\n            tag_152:\n                /* \"#utility.yul\":9632:9656   */\n              tag_264\n                /* \"#utility.yul\":9650:9655   */\n              dup2\n                /* \"#utility.yul\":9632:9656   */\n              tag_121\n              jump\t// in\n            tag_264:\n                /* \"#utility.yul\":9627:9630   */\n              dup3\n                /* \"#utility.yul\":9620:9657   */\n              mstore\n                /* \"#utility.yul\":9545:9663   */\n              pop\n              pop\n              jump\t// out\n                /* \"#utility.yul\":9669:10202   */\n            tag_29:\n                /* \"#utility.yul\":9838:9842   */\n              0x00\n                /* \"#utility.yul\":9876:9878   */\n              0x60\n                /* \"#utility.yul\":9865:9874   */\n              dup3\n                /* \"#utility.yul\":9861:9879   */\n              add\n                /* \"#utility.yul\":9853:9879   */\n              swap1\n              pop\n                /* \"#utility.yul\":9925:9934   */\n              dup2\n                /* \"#utility.yul\":9919:9923   */\n              dup2\n                /* \"#utility.yul\":9915:9935   */\n              sub\n                /* \"#utility.yul\":9911:9912   */\n              0x00\n                /* \"#utility.yul\":9900:9909   */\n              dup4\n                /* \"#utility.yul\":9896:9913   */\n              add\n                /* \"#utility.yul\":9889:9936   */\n              mstore\n                /* \"#utility.yul\":9953:10031   */\n              tag_266\n                /* \"#utility.yul\":10026:10030   */\n              dup2\n                /* \"#utility.yul\":10017:10023   */\n              dup7\n                /* \"#utility.yul\":9953:10031   */\n              tag_150\n              jump\t// in\n            tag_266:\n                /* \"#utility.yul\":9945:10031   */\n              swap1\n              pop\n                /* \"#utility.yul\":10041:10113   */\n              tag_267\n                /* \"#utility.yul\":10109:10111   */\n              0x20\n                /* \"#utility.yul\":10098:10107   */\n              dup4\n                /* \"#utility.yul\":10094:10112   */\n              add\n                /* \"#utility.yul\":10085:10091   */\n              dup6\n                /* \"#utility.yul\":10041:10113   */\n              tag_151\n              jump\t// in\n            tag_267:\n                /* \"#utility.yul\":10123:10195   */\n              tag_268\n                /* \"#utility.yul\":10191:10193   */\n              0x40\n                /* \"#utility.yul\":10180:10189   */\n              dup4\n                /* \"#utility.yul\":10176:10194   */\n              add\n                /* \"#utility.yul\":10167:10173   */\n              dup5\n                /* \"#utility.yul\":10123:10195   */\n              tag_152\n              jump\t// in\n            tag_268:\n                /* \"#utility.yul\":9669:10202   */\n              swap5\n              swap4\n              pop\n              pop\n              pop\n              pop\n              jump\t// out\n                /* \"#utility.yul\":10208:10430   */\n            tag_37:\n                /* \"#utility.yul\":10301:10305   */\n              0x00\n                /* \"#utility.yul\":10339:10341   */\n              0x20\n                /* \"#utility.yul\":10328:10337   */\n              dup3\n                /* \"#utility.yul\":10324:10342   */\n              add\n                /* \"#utility.yul\":10316:10342   */\n              swap1\n              pop\n                /* \"#utility.yul\":10352:10423   */\n              tag_270\n                /* \"#utility.yul\":10420:10421   */\n              0x00\n                /* \"#utility.yul\":10409:10418   */\n              dup4\n                /* \"#utility.yul\":10405:10422   */\n              add\n                /* \"#utility.yul\":10396:10402   */\n              dup5\n                /* \"#utility.yul\":10352:10423   */\n              tag_152\n              jump\t// in\n            tag_270:\n                /* \"#utility.yul\":10208:10430   */\n              swap3\n              swap2\n              pop\n              pop\n              jump\t// out\n                /* \"#utility.yul\":10436:10553   */\n            tag_153:\n                /* \"#utility.yul\":10545:10546   */\n              0x00\n                /* \"#utility.yul\":10542:10543   */\n              dup1\n                /* \"#utility.yul\":10535:10547   */\n              revert\n                /* \"#utility.yul\":10559:10676   */\n            tag_154:\n                /* \"#utility.yul\":10668:10669   */\n              0x00\n                /* \"#utility.yul\":10665:10666   */\n              dup1\n                /* \"#utility.yul\":10658:10670   */\n              revert\n                /* \"#utility.yul\":10682:10862   */\n            tag_155:\n                /* \"#utility.yul\":10730:10807   */\n              0x4e487b7100000000000000000000000000000000000000000000000000000000\n                /* \"#utility.yul\":10727:10728   */\n              0x00\n                /* \"#utility.yul\":10720:10808   */\n              mstore\n                /* \"#utility.yul\":10827:10831   */\n              0x41\n                /* \"#utility.yul\":10824:10825   */\n              0x04\n                /* \"#utility.yul\":10817:10832   */\n              mstore\n                /* \"#utility.yul\":10851:10855   */\n              0x24\n                /* \"#utility.yul\":10848:10849   */\n              0x00\n                /* \"#utility.yul\":10841:10856   */\n              revert\n                /* \"#utility.yul\":10868:11149   */\n            tag_156:\n                /* \"#utility.yul\":10951:10978   */\n              tag_275\n                /* \"#utility.yul\":10973:10977   */\n              dup3\n                /* \"#utility.yul\":10951:10978   */\n              tag_139\n              jump\t// in\n            tag_275:\n                /* \"#utility.yul\":10943:10949   */\n              dup2\n                /* \"#utility.yul\":10939:10979   */\n              add\n                /* \"#utility.yul\":11081:11087   */\n              dup2\n                /* \"#utility.yul\":11069:11079   */\n              dup2\n                /* \"#utility.yul\":11066:11088   */\n              lt\n                /* \"#utility.yul\":11045:11063   */\n              0xffffffffffffffff\n                /* \"#utility.yul\":11033:11043   */\n              dup3\n                /* \"#utility.yul\":11030:11064   */\n              gt\n                /* \"#utility.yul\":11027:11089   */\n              or\n                /* \"#utility.yul\":11024:11112   */\n              iszero\n              tag_276\n              jumpi\n                /* \"#utility.yul\":11092:11110   */\n              tag_277\n              tag_155\n              jump\t// in\n            tag_277:\n                /* \"#utility.yul\":11024:11112   */\n            tag_276:\n                /* \"#utility.yul\":11132:11142   */\n              dup1\n                /* \"#utility.yul\":11128:11130   */\n              0x40\n                /* \"#utility.yul\":11121:11143   */\n              mstore\n                /* \"#utility.yul\":10911:11149   */\n              pop\n                /* \"#utility.yul\":10868:11149   */\n              pop\n              pop\n              jump\t// out\n                /* \"#utility.yul\":11155:11284   */\n            tag_157:\n                /* \"#utility.yul\":11189:11195   */\n              0x00\n                /* \"#utility.yul\":11216:11236   */\n              tag_279\n              tag_117\n              jump\t// in\n            tag_279:\n                /* \"#utility.yul\":11206:11236   */\n              swap1\n              pop\n                /* \"#utility.yul\":11245:11278   */\n              tag_280\n                /* \"#utility.yul\":11273:11277   */\n              dup3\n                /* \"#utility.yul\":11265:11271   */\n              dup3\n                /* \"#utility.yul\":11245:11278   */\n              tag_156\n              jump\t// in\n            tag_280:\n                /* \"#utility.yul\":11155:11284   */\n              swap2\n              swap1\n              pop\n              jump\t// out\n                /* \"#utility.yul\":11290:11598   */\n            tag_158:\n                /* \"#utility.yul\":11352:11356   */\n              0x00\n                /* \"#utility.yul\":11442:11460   */\n              0xffffffffffffffff\n                /* \"#utility.yul\":11434:11440   */\n              dup3\n                /* \"#utility.yul\":11431:11461   */\n              gt\n                /* \"#utility.yul\":11428:11484   */\n              iszero\n              tag_282\n              jumpi\n                /* \"#utility.yul\":11464:11482   */\n              tag_283\n              tag_155\n              jump\t// in\n            tag_283:\n                /* \"#utility.yul\":11428:11484   */\n            tag_282:\n                /* \"#utility.yul\":11502:11531   */\n              tag_284\n                /* \"#utility.yul\":11524:11530   */\n              dup3\n                /* \"#utility.yul\":11502:11531   */\n              tag_139\n              jump\t// in\n            tag_284:\n                /* \"#utility.yul\":11494:11531   */\n              swap1\n              pop\n                /* \"#utility.yul\":11586:11590   */\n              0x20\n                /* \"#utility.yul\":11580:11584   */\n              dup2\n                /* \"#utility.yul\":11576:11591   */\n              add\n                /* \"#utility.yul\":11568:11591   */\n              swap1\n              pop\n                /* \"#utility.yul\":11290:11598   */\n              swap2\n              swap1\n              pop\n              jump\t// out\n                /* \"#utility.yul\":11604:11758   */\n            tag_159:\n                /* \"#utility.yul\":11688:11694   */\n              dup3\n                /* \"#utility.yul\":11683:11686   */\n              dup2\n                /* \"#utility.yul\":11678:11681   */\n              dup4\n                /* \"#utility.yul\":11665:11695   */\n              calldatacopy\n                /* \"#utility.yul\":11750:11751   */\n              0x00\n                /* \"#utility.yul\":11741:11747   */\n              dup4\n                /* \"#utility.yul\":11736:11739   */\n              dup4\n                /* \"#utility.yul\":11732:11748   */\n              add\n                /* \"#utility.yul\":11725:11752   */\n              mstore\n                /* \"#utility.yul\":11604:11758   */\n              pop\n              pop\n              pop\n              jump\t// out\n                /* \"#utility.yul\":11764:12176   */\n            tag_160:\n                /* \"#utility.yul\":11842:11847   */\n              0x00\n                /* \"#utility.yul\":11867:11933   */\n              tag_287\n                /* \"#utility.yul\":11883:11932   */\n              tag_288\n                /* \"#utility.yul\":11925:11931   */\n              dup5\n                /* \"#utility.yul\":11883:11932   */\n              tag_158\n              jump\t// in\n            tag_288:\n                /* \"#utility.yul\":11867:11933   */\n              tag_157\n              jump\t// in\n            tag_287:\n                /* \"#utility.yul\":11858:11933   */\n              swap1\n              pop\n                /* \"#utility.yul\":11956:11962   */\n              dup3\n                /* \"#utility.yul\":11949:11954   */\n              dup2\n                /* \"#utility.yul\":11942:11963   */\n              mstore\n                /* \"#utility.yul\":11994:11998   */\n              0x20\n                /* \"#utility.yul\":11987:11992   */\n              dup2\n                /* \"#utility.yul\":11983:11999   */\n              add\n                /* \"#utility.yul\":12032:12035   */\n              dup5\n                /* \"#utility.yul\":12023:12029   */\n              dup5\n                /* \"#utility.yul\":12018:12021   */\n              dup5\n                /* \"#utility.yul\":12014:12030   */\n              add\n                /* \"#utility.yul\":12011:12036   */\n              gt\n                /* \"#utility.yul\":12008:12120   */\n              iszero\n              tag_289\n              jumpi\n                /* \"#utility.yul\":12039:12118   */\n              tag_290\n              tag_154\n              jump\t// in\n            tag_290:\n                /* \"#utility.yul\":12008:12120   */\n            tag_289:\n                /* \"#utility.yul\":12129:12170   */\n              tag_291\n                /* \"#utility.yul\":12163:12169   */\n              dup5\n                /* \"#utility.yul\":12158:12161   */\n              dup3\n                /* \"#utility.yul\":12153:12156   */\n              dup6\n                /* \"#utility.yul\":12129:12170   */\n              tag_159\n              jump\t// in\n            tag_291:\n                /* \"#utility.yul\":11848:12176   */\n              pop\n                /* \"#utility.yul\":11764:12176   */\n              swap4\n              swap3\n              pop\n              pop\n              pop\n              jump\t// out\n                /* \"#utility.yul\":12196:12536   */\n            tag_161:\n                /* \"#utility.yul\":12252:12257   */\n              0x00\n                /* \"#utility.yul\":12301:12304   */\n              dup3\n                /* \"#utility.yul\":12294:12298   */\n              0x1f\n                /* \"#utility.yul\":12286:12292   */\n              dup4\n                /* \"#utility.yul\":12282:12299   */\n              add\n                /* \"#utility.yul\":12278:12305   */\n              slt\n                /* \"#utility.yul\":12268:12390   */\n              tag_293\n              jumpi\n                /* \"#utility.yul\":12309:12388   */\n              tag_294\n              tag_153\n              jump\t// in\n            tag_294:\n                /* \"#utility.yul\":12268:12390   */\n            tag_293:\n                /* \"#utility.yul\":12426:12432   */\n              dup2\n                /* \"#utility.yul\":12413:12433   */\n              calldataload\n                /* \"#utility.yul\":12451:12530   */\n              tag_295\n                /* \"#utility.yul\":12526:12529   */\n              dup5\n                /* \"#utility.yul\":12518:12524   */\n              dup3\n                /* \"#utility.yul\":12511:12515   */\n              0x20\n                /* \"#utility.yul\":12503:12509   */\n              dup7\n                /* \"#utility.yul\":12499:12516   */\n              add\n                /* \"#utility.yul\":12451:12530   */\n              tag_160\n              jump\t// in\n            tag_295:\n                /* \"#utility.yul\":12442:12530   */\n              swap2\n              pop\n                /* \"#utility.yul\":12258:12536   */\n              pop\n                /* \"#utility.yul\":12196:12536   */\n              swap3\n              swap2\n              pop\n              pop\n              jump\t// out\n                /* \"#utility.yul\":12542:13051   */\n            tag_40:\n                /* \"#utility.yul\":12611:12617   */\n              0x00\n                /* \"#utility.yul\":12660:12662   */\n              0x20\n                /* \"#utility.yul\":12648:12657   */\n              dup3\n                /* \"#utility.yul\":12639:12646   */\n              dup5\n                /* \"#utility.yul\":12635:12658   */\n              sub\n                /* \"#utility.yul\":12631:12663   */\n              slt\n                /* \"#utility.yul\":12628:12747   */\n              iszero\n              tag_297\n              jumpi\n                /* \"#utility.yul\":12666:12745   */\n              tag_298\n              tag_118\n              jump\t// in\n            tag_298:\n                /* \"#utility.yul\":12628:12747   */\n            tag_297:\n                /* \"#utility.yul\":12814:12815   */\n              0x00\n                /* \"#utility.yul\":12803:12812   */\n              dup3\n                /* \"#utility.yul\":12799:12816   */\n              add\n                /* \"#utility.yul\":12786:12817   */\n              calldataload\n                /* \"#utility.yul\":12844:12862   */\n              0xffffffffffffffff\n                /* \"#utility.yul\":12836:12842   */\n              dup2\n                /* \"#utility.yul\":12833:12863   */\n              gt\n                /* \"#utility.yul\":12830:12947   */\n              iszero\n              tag_299\n              jumpi\n                /* \"#utility.yul\":12866:12945   */\n              tag_300\n              tag_119\n              jump\t// in\n            tag_300:\n                /* \"#utility.yul\":12830:12947   */\n            tag_299:\n                /* \"#utility.yul\":12971:13034   */\n              tag_301\n                /* \"#utility.yul\":13026:13033   */\n              dup5\n                /* \"#utility.yul\":13017:13023   */\n              dup3\n                /* \"#utility.yul\":13006:13015   */\n              dup6\n                /* \"#utility.yul\":13002:13024   */\n              add\n                /* \"#utility.yul\":12971:13034   */\n              tag_161\n              jump\t// in\n            tag_301:\n                /* \"#utility.yul\":12961:13034   */\n              swap2\n              pop\n                /* \"#utility.yul\":12757:13044   */\n              pop\n                /* \"#utility.yul\":12542:13051   */\n              swap3\n              swap2\n              pop\n              pop\n              jump\t// out\n                /* \"#utility.yul\":13057:13237   */\n            tag_162:\n                /* \"#utility.yul\":13105:13182   */\n              0x4e487b7100000000000000000000000000000000000000000000000000000000\n                /* \"#utility.yul\":13102:13103   */\n              0x00\n                /* \"#utility.yul\":13095:13183   */\n              mstore\n                /* \"#utility.yul\":13202:13206   */\n              0x22\n                /* \"#utility.yul\":13199:13200   */\n              0x04\n                /* \"#utility.yul\":13192:13207   */\n              mstore\n                /* \"#utility.yul\":13226:13230   */\n              0x24\n                /* \"#utility.yul\":13223:13224   */\n              0x00\n                /* \"#utility.yul\":13216:13231   */\n              revert\n                /* \"#utility.yul\":13243:13563   */\n            tag_49:\n                /* \"#utility.yul\":13287:13293   */\n              0x00\n                /* \"#utility.yul\":13324:13325   */\n              0x02\n                /* \"#utility.yul\":13318:13322   */\n              dup3\n                /* \"#utility.yul\":13314:13326   */\n              div\n                /* \"#utility.yul\":13304:13326   */\n              swap1\n              pop\n                /* \"#utility.yul\":13371:13372   */\n              0x01\n                /* \"#utility.yul\":13365:13369   */\n              dup3\n                /* \"#utility.yul\":13361:13373   */\n              and\n                /* \"#utility.yul\":13392:13410   */\n              dup1\n                /* \"#utility.yul\":13382:13463   */\n              tag_304\n              jumpi\n                /* \"#utility.yul\":13448:13452   */\n              0x7f\n                /* \"#utility.yul\":13440:13446   */\n              dup3\n                /* \"#utility.yul\":13436:13453   */\n              and\n                /* \"#utility.yul\":13426:13453   */\n              swap2\n              pop\n                /* \"#utility.yul\":13382:13463   */\n            tag_304:\n                /* \"#utility.yul\":13510:13512   */\n              0x20\n                /* \"#utility.yul\":13502:13508   */\n              dup3\n                /* \"#utility.yul\":13499:13513   */\n              lt\n                /* \"#utility.yul\":13479:13497   */\n              dup2\n                /* \"#utility.yul\":13476:13514   */\n              eq\n                /* \"#utility.yul\":13473:13557   */\n              iszero\n              tag_305\n              jumpi\n                /* \"#utility.yul\":13529:13547   */\n              tag_306\n              tag_162\n              jump\t// in\n            tag_306:\n                /* \"#utility.yul\":13473:13557   */\n            tag_305:\n                /* \"#utility.yul\":13294:13563   */\n              pop\n                /* \"#utility.yul\":13243:13563   */\n              swap2\n              swap1\n              pop\n              jump\t// out\n                /* \"#utility.yul\":13569:13801   */\n            tag_163:\n                /* \"#utility.yul\":13709:13743   */\n              0x4f6e6c7920616e20616363657074656420617574686f722063616e2061707072\n                /* \"#utility.yul\":13705:13706   */\n              0x00\n                /* \"#utility.yul\":13697:13703   */\n              dup3\n                /* \"#utility.yul\":13693:13707   */\n              add\n                /* \"#utility.yul\":13686:13744   */\n              mstore\n                /* \"#utility.yul\":13778:13793   */\n              0x6f76652061207265717565737400000000000000000000000000000000000000\n                /* \"#utility.yul\":13773:13775   */\n              0x20\n                /* \"#utility.yul\":13765:13771   */\n              dup3\n                /* \"#utility.yul\":13761:13776   */\n              add\n                /* \"#utility.yul\":13754:13794   */\n              mstore\n                /* \"#utility.yul\":13569:13801   */\n              pop\n              jump\t// out\n                /* \"#utility.yul\":13807:14173   */\n            tag_164:\n                /* \"#utility.yul\":13949:13952   */\n              0x00\n                /* \"#utility.yul\":13970:14037   */\n              tag_309\n                /* \"#utility.yul\":14034:14036   */\n              0x2d\n                /* \"#utility.yul\":14029:14032   */\n              dup4\n                /* \"#utility.yul\":13970:14037   */\n              tag_149\n              jump\t// in\n            tag_309:\n                /* \"#utility.yul\":13963:14037   */\n              swap2\n              pop\n                /* \"#utility.yul\":14046:14139   */\n              tag_310\n                /* \"#utility.yul\":14135:14138   */\n              dup3\n                /* \"#utility.yul\":14046:14139   */\n              tag_163\n              jump\t// in\n            tag_310:\n                /* \"#utility.yul\":14164:14166   */\n              0x40\n                /* \"#utility.yul\":14159:14162   */\n              dup3\n                /* \"#utility.yul\":14155:14167   */\n              add\n                /* \"#utility.yul\":14148:14167   */\n              swap1\n              pop\n                /* \"#utility.yul\":13807:14173   */\n              swap2\n              swap1\n              pop\n              jump\t// out\n                /* \"#utility.yul\":14179:14598   */\n            tag_65:\n                /* \"#utility.yul\":14345:14349   */\n              0x00\n                /* \"#utility.yul\":14383:14385   */\n              0x20\n                /* \"#utility.yul\":14372:14381   */\n              dup3\n                /* \"#utility.yul\":14368:14386   */\n              add\n                /* \"#utility.yul\":14360:14386   */\n              swap1\n              pop\n                /* \"#utility.yul\":14432:14441   */\n              dup2\n                /* \"#utility.yul\":14426:14430   */\n              dup2\n                /* \"#utility.yul\":14422:14442   */\n              sub\n                /* \"#utility.yul\":14418:14419   */\n              0x00\n                /* \"#utility.yul\":14407:14416   */\n              dup4\n                /* \"#utility.yul\":14403:14420   */\n              add\n                /* \"#utility.yul\":14396:14443   */\n              mstore\n                /* \"#utility.yul\":14460:14591   */\n              tag_312\n                /* \"#utility.yul\":14586:14590   */\n              dup2\n                /* \"#utility.yul\":14460:14591   */\n              tag_164\n              jump\t// in\n            tag_312:\n                /* \"#utility.yul\":14452:14591   */\n              swap1\n              pop\n                /* \"#utility.yul\":14179:14598   */\n              swap2\n              swap1\n              pop\n              jump\t// out\n                /* \"#utility.yul\":14604:14784   */\n            tag_68:\n                /* \"#utility.yul\":14652:14729   */\n              0x4e487b7100000000000000000000000000000000000000000000000000000000\n                /* \"#utility.yul\":14649:14650   */\n              0x00\n                /* \"#utility.yul\":14642:14730   */\n              mstore\n                /* \"#utility.yul\":14749:14753   */\n              0x32\n                /* \"#utility.yul\":14746:14747   */\n              0x04\n                /* \"#utility.yul\":14739:14754   */\n              mstore\n                /* \"#utility.yul\":14773:14777   */\n              0x24\n                /* \"#utility.yul\":14770:14771   */\n              0x00\n                /* \"#utility.yul\":14763:14778   */\n              revert\n                /* \"#utility.yul\":14790:15041   */\n            tag_165:\n                /* \"#utility.yul\":14930:14964   */\n              0x417574686f72206f6620746865207265717565737420697320616c7265616479\n                /* \"#utility.yul\":14926:14927   */\n              0x00\n                /* \"#utility.yul\":14918:14924   */\n              dup3\n                /* \"#utility.yul\":14914:14928   */\n              add\n                /* \"#utility.yul\":14907:14965   */\n              mstore\n                /* \"#utility.yul\":14999:15033   */\n              0x20696e636c7564656420696e20746865206c697374206f6620617574686f7273\n                /* \"#utility.yul\":14994:14996   */\n              0x20\n                /* \"#utility.yul\":14986:14992   */\n              dup3\n                /* \"#utility.yul\":14982:14997   */\n              add\n                /* \"#utility.yul\":14975:15034   */\n              mstore\n                /* \"#utility.yul\":14790:15041   */\n              pop\n              jump\t// out\n                /* \"#utility.yul\":15047:15413   */\n            tag_166:\n                /* \"#utility.yul\":15189:15192   */\n              0x00\n                /* \"#utility.yul\":15210:15277   */\n              tag_316\n                /* \"#utility.yul\":15274:15276   */\n              0x40\n                /* \"#utility.yul\":15269:15272   */\n              dup4\n                /* \"#utility.yul\":15210:15277   */\n              tag_149\n              jump\t// in\n            tag_316:\n                /* \"#utility.yul\":15203:15277   */\n              swap2\n              pop\n                /* \"#utility.yul\":15286:15379   */\n              tag_317\n                /* \"#utility.yul\":15375:15378   */\n              dup3\n                /* \"#utility.yul\":15286:15379   */\n              tag_165\n              jump\t// in\n            tag_317:\n                /* \"#utility.yul\":15404:15406   */\n              0x40\n                /* \"#utility.yul\":15399:15402   */\n              dup3\n                /* \"#utility.yul\":15395:15407   */\n              add\n                /* \"#utility.yul\":15388:15407   */\n              swap1\n              pop\n                /* \"#utility.yul\":15047:15413   */\n              swap2\n              swap1\n              pop\n              jump\t// out\n                /* \"#utility.yul\":15419:15838   */\n            tag_72:\n                /* \"#utility.yul\":15585:15589   */\n              0x00\n                /* \"#utility.yul\":15623:15625   */\n              0x20\n                /* \"#utility.yul\":15612:15621   */\n              dup3\n                /* \"#utility.yul\":15608:15626   */\n              add\n                /* \"#utility.yul\":15600:15626   */\n              swap1\n              pop\n                /* \"#utility.yul\":15672:15681   */\n              dup2\n                /* \"#utility.yul\":15666:15670   */\n              dup2\n                /* \"#utility.yul\":15662:15682   */\n              sub\n                /* \"#utility.yul\":15658:15659   */\n              0x00\n                /* \"#utility.yul\":15647:15656   */\n              dup4\n                /* \"#utility.yul\":15643:15660   */\n              add\n                /* \"#utility.yul\":15636:15683   */\n              mstore\n                /* \"#utility.yul\":15700:15831   */\n              tag_319\n                /* \"#utility.yul\":15826:15830   */\n              dup2\n                /* \"#utility.yul\":15700:15831   */\n              tag_166\n              jump\t// in\n            tag_319:\n                /* \"#utility.yul\":15692:15831   */\n              swap1\n              pop\n                /* \"#utility.yul\":15419:15838   */\n              swap2\n              swap1\n              pop\n              jump\t// out\n                /* \"#utility.yul\":15844:16024   */\n            tag_167:\n                /* \"#utility.yul\":15892:15969   */\n              0x4e487b7100000000000000000000000000000000000000000000000000000000\n                /* \"#utility.yul\":15889:15890   */\n              0x00\n                /* \"#utility.yul\":15882:15970   */\n              mstore\n                /* \"#utility.yul\":15989:15993   */\n              0x11\n                /* \"#utility.yul\":15986:15987   */\n              0x04\n                /* \"#utility.yul\":15979:15994   */\n              mstore\n                /* \"#utility.yul\":16013:16017   */\n              0x24\n                /* \"#utility.yul\":16010:16011   */\n              0x00\n                /* \"#utility.yul\":16003:16018   */\n              revert\n                /* \"#utility.yul\":16030:16221   */\n            tag_74:\n                /* \"#utility.yul\":16070:16074   */\n              0x00\n                /* \"#utility.yul\":16090:16110   */\n              tag_322\n                /* \"#utility.yul\":16108:16109   */\n              dup3\n                /* \"#utility.yul\":16090:16110   */\n              tag_141\n              jump\t// in\n            tag_322:\n                /* \"#utility.yul\":16085:16110   */\n              swap2\n              pop\n                /* \"#utility.yul\":16124:16144   */\n              tag_323\n                /* \"#utility.yul\":16142:16143   */\n              dup4\n                /* \"#utility.yul\":16124:16144   */\n              tag_141\n              jump\t// in\n            tag_323:\n                /* \"#utility.yul\":16119:16144   */\n              swap3\n              pop\n                /* \"#utility.yul\":16163:16164   */\n              dup3\n                /* \"#utility.yul\":16160:16161   */\n              dup3\n                /* \"#utility.yul\":16157:16165   */\n              lt\n                /* \"#utility.yul\":16154:16188   */\n              iszero\n              tag_324\n              jumpi\n                /* \"#utility.yul\":16168:16186   */\n              tag_325\n              tag_167\n              jump\t// in\n            tag_325:\n                /* \"#utility.yul\":16154:16188   */\n            tag_324:\n                /* \"#utility.yul\":16213:16214   */\n              dup3\n                /* \"#utility.yul\":16210:16211   */\n              dup3\n                /* \"#utility.yul\":16206:16215   */\n              sub\n                /* \"#utility.yul\":16198:16215   */\n              swap1\n              pop\n                /* \"#utility.yul\":16030:16221   */\n              swap3\n              swap2\n              pop\n              pop\n              jump\t// out\n                /* \"#utility.yul\":16227:16407   */\n            tag_90:\n                /* \"#utility.yul\":16275:16352   */\n              0x4e487b7100000000000000000000000000000000000000000000000000000000\n                /* \"#utility.yul\":16272:16273   */\n              0x00\n                /* \"#utility.yul\":16265:16353   */\n              mstore\n                /* \"#utility.yul\":16372:16376   */\n              0x31\n                /* \"#utility.yul\":16369:16370   */\n              0x04\n                /* \"#utility.yul\":16362:16377   */\n              mstore\n                /* \"#utility.yul\":16396:16400   */\n              0x24\n                /* \"#utility.yul\":16393:16394   */\n              0x00\n                /* \"#utility.yul\":16386:16401   */\n              revert\n                /* \"#utility.yul\":16413:16644   */\n            tag_168:\n                /* \"#utility.yul\":16553:16587   */\n              0x417574686f7220616c72656164792065786973747320696e20746865206c6973\n                /* \"#utility.yul\":16549:16550   */\n              0x00\n                /* \"#utility.yul\":16541:16547   */\n              dup3\n                /* \"#utility.yul\":16537:16551   */\n              add\n                /* \"#utility.yul\":16530:16588   */\n              mstore\n                /* \"#utility.yul\":16622:16636   */\n              0x74206f6620617574686f72730000000000000000000000000000000000000000\n                /* \"#utility.yul\":16617:16619   */\n              0x20\n                /* \"#utility.yul\":16609:16615   */\n              dup3\n                /* \"#utility.yul\":16605:16620   */\n              add\n                /* \"#utility.yul\":16598:16637   */\n              mstore\n                /* \"#utility.yul\":16413:16644   */\n              pop\n              jump\t// out\n                /* \"#utility.yul\":16650:17016   */\n            tag_169:\n                /* \"#utility.yul\":16792:16795   */\n              0x00\n                /* \"#utility.yul\":16813:16880   */\n              tag_329\n                /* \"#utility.yul\":16877:16879   */\n              0x2c\n                /* \"#utility.yul\":16872:16875   */\n              dup4\n                /* \"#utility.yul\":16813:16880   */\n              tag_149\n              jump\t// in\n            tag_329:\n                /* \"#utility.yul\":16806:16880   */\n              swap2\n              pop\n                /* \"#utility.yul\":16889:16982   */\n              tag_330\n                /* \"#utility.yul\":16978:16981   */\n              dup3\n                /* \"#utility.yul\":16889:16982   */\n              tag_168\n              jump\t// in\n            tag_330:\n                /* \"#utility.yul\":17007:17009   */\n              0x40\n                /* \"#utility.yul\":17002:17005   */\n              dup3\n                /* \"#utility.yul\":16998:17010   */\n              add\n                /* \"#utility.yul\":16991:17010   */\n              swap1\n              pop\n                /* \"#utility.yul\":16650:17016   */\n              swap2\n              swap1\n              pop\n              jump\t// out\n                /* \"#utility.yul\":17022:17441   */\n            tag_100:\n                /* \"#utility.yul\":17188:17192   */\n              0x00\n                /* \"#utility.yul\":17226:17228   */\n              0x20\n                /* \"#utility.yul\":17215:17224   */\n              dup3\n                /* \"#utility.yul\":17211:17229   */\n              add\n                /* \"#utility.yul\":17203:17229   */\n              swap1\n              pop\n                /* \"#utility.yul\":17275:17284   */\n              dup2\n                /* \"#utility.yul\":17269:17273   */\n              dup2\n                /* \"#utility.yul\":17265:17285   */\n              sub\n                /* \"#utility.yul\":17261:17262   */\n              0x00\n                /* \"#utility.yul\":17250:17259   */\n              dup4\n                /* \"#utility.yul\":17246:17263   */\n              add\n                /* \"#utility.yul\":17239:17286   */\n              mstore\n                /* \"#utility.yul\":17303:17434   */\n              tag_332\n                /* \"#utility.yul\":17429:17433   */\n              dup2\n                /* \"#utility.yul\":17303:17434   */\n              tag_169\n              jump\t// in\n            tag_332:\n                /* \"#utility.yul\":17295:17434   */\n              swap1\n              pop\n                /* \"#utility.yul\":17022:17441   */\n              swap2\n              swap1\n              pop\n              jump\t// out\n\n            auxdata: 0xa2646970667358221220ba5e0e2ce1f7ce71fde91b2d74101009144b9701327b75f3fb6925e87a50d4b864736f6c63430008090033\n        }\n    }\n\n    auxdata: 0xa2646970667358221220bef2a6e5511d8f8878660cae03a823e4f8bd53bd1f603e0574b2c3c604f29f8764736f6c63430008090033\n}\n","bytecode":{"linkReferences":{},"object":"608060405234801561001057600080fd5b50611a7e806100206000396000f3fe608060405234801561001057600080fd5b50600436106100415760003560e01c806318351ea7146100465780632ff2bdd514610076578063cac0f8a414610094575b600080fd5b610060600480360381019061005b919061026a565b6100b2565b60405161006d91906102d8565b60405180910390f35b61007e6100f1565b60405161008b91906103b1565b60405180910390f35b61009c61017f565b6040516100a991906102d8565b60405180910390f35b600081815481106100c257600080fd5b906000526020600020016000915054906101000a900473ffffffffffffffffffffffffffffffffffffffff1681565b6060600080548060200260200160405190810160405280929190818152602001828054801561017557602002820191906000526020600020905b8160009054906101000a900473ffffffffffffffffffffffffffffffffffffffff1673ffffffffffffffffffffffffffffffffffffffff168152602001906001019080831161012b575b5050505050905090565b6000803360405161018f90610222565b61019991906102d8565b604051809103906000f0801580156101b5573d6000803e3d6000fd5b5090506000819080600181540180825580915050600190039060005260206000200160009091909190916101000a81548173ffffffffffffffffffffffffffffffffffffffff021916908373ffffffffffffffffffffffffffffffffffffffff1602179055508091505090565b611675806103d483390190565b600080fd5b6000819050919050565b61024781610234565b811461025257600080fd5b50565b6000813590506102648161023e565b92915050565b6000602082840312156102805761027f61022f565b5b600061028e84828501610255565b91505092915050565b600073ffffffffffffffffffffffffffffffffffffffff82169050919050565b60006102c282610297565b9050919050565b6102d2816102b7565b82525050565b60006020820190506102ed60008301846102c9565b92915050565b600081519050919050565b600082825260208201905092915050565b6000819050602082019050919050565b610328816102b7565b82525050565b600061033a838361031f565b60208301905092915050565b6000602082019050919050565b600061035e826102f3565b61036881856102fe565b93506103738361030f565b8060005b838110156103a457815161038b888261032e565b975061039683610346565b925050600181019050610377565b5085935050505092915050565b600060208201905081810360008301526103cb8184610353565b90509291505056fe60806040523480156200001157600080fd5b506040516200167538038062001675833981810160405281019062000037919062000162565b60016000808373ffffffffffffffffffffffffffffffffffffffff1673ffffffffffffffffffffffffffffffffffffffff16815260200190815260200160002060006101000a81548160ff0219169083151502179055506001819080600181540180825580915050600190039060005260206000200160009091909190916101000a81548173ffffffffffffffffffffffffffffffffffffffff021916908373ffffffffffffffffffffffffffffffffffffffff1602179055505062000194565b600080fd5b600073ffffffffffffffffffffffffffffffffffffffff82169050919050565b60006200012a82620000fd565b9050919050565b6200013c816200011d565b81146200014857600080fd5b50565b6000815190506200015c8162000131565b92915050565b6000602082840312156200017b576200017a620000f8565b5b60006200018b848285016200014b565b91505092915050565b6114d180620001a46000396000f3fe608060405234801561001057600080fd5b506004361061007d5760003560e01c80636fc6c5791161005b5780636fc6c579146100ef57806398b79628146101215780639d3ed8071461013d578063dfa14e231461016d5761007d565b80633e5690f4146100825780634051ddac146100b25780635cf298fb146100d1575b600080fd5b61009c60048036038101906100979190610c0f565b610189565b6040516100a99190610c57565b60405180910390f35b6100ba6101a9565b6040516100c8929190610ef4565b60405180910390f35b6100d961038b565b6040516100e69190610c57565b60405180910390f35b61010960048036038101906101049190610f57565b6103de565b60405161011893929190610fec565b60405180910390f35b61013b60048036038101906101369190610f57565b6104c0565b005b61015760048036038101906101529190610f57565b61091a565b604051610164919061102a565b60405180910390f35b6101876004803603810190610182919061117a565b610959565b005b60006020528060005260406000206000915054906101000a900460ff1681565b606080600160028180548060200260200160405190810160405280929190818152602001828054801561023157602002820191906000526020600020905b8160009054906101000a900473ffffffffffffffffffffffffffffffffffffffff1673ffffffffffffffffffffffffffffffffffffffff16815260200190600101908083116101e7575b5050505050915080805480602002602001604051908101604052809291908181526020016000905b8282101561037d578382906000526020600020906003020160405180606001604052908160008201805461028c906111f2565b80601f01602080910402602001604051908101604052809291908181526020018280546102b8906111f2565b80156103055780601f106102da57610100808354040283529160200191610305565b820191906000526020600020905b8154815290600101906020018083116102e857829003601f168201915b50505050508152602001600182015481526020016002820160009054906101000a900473ffffffffffffffffffffffffffffffffffffffff1673ffffffffffffffffffffffffffffffffffffffff1673ffffffffffffffffffffffffffffffffffffffff168152505081526020019060010190610259565b505050509050915091509091565b60008060003373ffffffffffffffffffffffffffffffffffffffff1673ffffffffffffffffffffffffffffffffffffffff16815260200190815260200160002060009054906101000a900460ff16905090565b600281815481106103ee57600080fd5b9060005260206000209060030201600091509050806000018054610411906111f2565b80601f016020809104026020016040519081016040528092919081815260200182805461043d906111f2565b801561048a5780601f1061045f5761010080835404028352916020019161048a565b820191906000526020600020905b81548152906001019060200180831161046d57829003601f168201915b5050505050908060010154908060020160009054906101000a900473ffffffffffffffffffffffffffffffffffffffff16905083565b6000803373ffffffffffffffffffffffffffffffffffffffff1673ffffffffffffffffffffffffffffffffffffffff16815260200190815260200160002060009054906101000a900460ff1661054b576040517f08c379a000000000000000000000000000000000000000000000000000000000815260040161054290611296565b60405180910390fd5b60008060028381548110610562576105616112b6565b5b906000526020600020906003020160020160009054906101000a900473ffffffffffffffffffffffffffffffffffffffff1673ffffffffffffffffffffffffffffffffffffffff1673ffffffffffffffffffffffffffffffffffffffff16815260200190815260200160002060009054906101000a900460ff161561061c576040517f08c379a000000000000000000000000000000000000000000000000000000000815260040161061390611357565b60405180910390fd5b6000600160028054905061063091906113a6565b9050600060028281548110610648576106476112b6565b5b9060005260206000209060030201604051806060016040529081600082018054610671906111f2565b80601f016020809104026020016040519081016040528092919081815260200182805461069d906111f2565b80156106ea5780601f106106bf576101008083540402835291602001916106ea565b820191906000526020600020905b8154815290600101906020018083116106cd57829003601f168201915b50505050508152602001600182015481526020016002820160009054906101000a900473ffffffffffffffffffffffffffffffffffffffff1673ffffffffffffffffffffffffffffffffffffffff1673ffffffffffffffffffffffffffffffffffffffff16815250509050806002848154811061076a576107696112b6565b5b90600052602060002090600302016000820151816000019080519060200190610794929190610aba565b506020820151816001015560408201518160020160006101000a81548173ffffffffffffffffffffffffffffffffffffffff021916908373ffffffffffffffffffffffffffffffffffffffff16021790555090505060028054806107fb576107fa6113da565b5b6001900381819060005260206000209060030201600080820160006108209190610b40565b60018201600090556002820160006101000a81549073ffffffffffffffffffffffffffffffffffffffff0219169055505090556001600080836040015173ffffffffffffffffffffffffffffffffffffffff1673ffffffffffffffffffffffffffffffffffffffff16815260200190815260200160002060006101000a81548160ff021916908315150217905550600181604001519080600181540180825580915050600190039060005260206000200160009091909190916101000a81548173ffffffffffffffffffffffffffffffffffffffff021916908373ffffffffffffffffffffffffffffffffffffffff160217905550505050565b6001818154811061092a57600080fd5b906000526020600020016000915054906101000a900473ffffffffffffffffffffffffffffffffffffffff1681565b6000803373ffffffffffffffffffffffffffffffffffffffff1673ffffffffffffffffffffffffffffffffffffffff16815260200190815260200160002060009054906101000a900460ff16156109e5576040517f08c379a00000000000000000000000000000000000000000000000000000000081526004016109dc9061147b565b60405180910390fd5b600060405180606001604052808381526020014281526020013373ffffffffffffffffffffffffffffffffffffffff16815250905060028190806001815401808255809150506001900390600052602060002090600302016000909190919091506000820151816000019080519060200190610a62929190610aba565b506020820151816001015560408201518160020160006101000a81548173ffffffffffffffffffffffffffffffffffffffff021916908373ffffffffffffffffffffffffffffffffffffffff16021790555050505050565b828054610ac6906111f2565b90600052602060002090601f016020900481019282610ae85760008555610b2f565b82601f10610b0157805160ff1916838001178555610b2f565b82800160010185558215610b2f579182015b82811115610b2e578251825591602001919060010190610b13565b5b509050610b3c9190610b80565b5090565b508054610b4c906111f2565b6000825580601f10610b5e5750610b7d565b601f016020900490600052602060002090810190610b7c9190610b80565b5b50565b5b80821115610b99576000816000905550600101610b81565b5090565b6000604051905090565b600080fd5b600080fd5b600073ffffffffffffffffffffffffffffffffffffffff82169050919050565b6000610bdc82610bb1565b9050919050565b610bec81610bd1565b8114610bf757600080fd5b50565b600081359050610c0981610be3565b92915050565b600060208284031215610c2557610c24610ba7565b5b6000610c3384828501610bfa565b91505092915050565b60008115159050919050565b610c5181610c3c565b82525050565b6000602082019050610c6c6000830184610c48565b92915050565b600081519050919050565b600082825260208201905092915050565b6000819050602082019050919050565b610ca781610bd1565b82525050565b6000610cb98383610c9e565b60208301905092915050565b6000602082019050919050565b6000610cdd82610c72565b610ce78185610c7d565b9350610cf283610c8e565b8060005b83811015610d23578151610d0a8882610cad565b9750610d1583610cc5565b925050600181019050610cf6565b5085935050505092915050565b600081519050919050565b600082825260208201905092915050565b6000819050602082019050919050565b600081519050919050565b600082825260208201905092915050565b60005b83811015610d96578082015181840152602081019050610d7b565b83811115610da5576000848401525b50505050565b6000601f19601f8301169050919050565b6000610dc782610d5c565b610dd18185610d67565b9350610de1818560208601610d78565b610dea81610dab565b840191505092915050565b6000819050919050565b610e0881610df5565b82525050565b60006060830160008301518482036000860152610e2b8282610dbc565b9150506020830151610e406020860182610dff565b506040830151610e536040860182610c9e565b508091505092915050565b6000610e6a8383610e0e565b905092915050565b6000602082019050919050565b6000610e8a82610d30565b610e948185610d3b565b935083602082028501610ea685610d4c565b8060005b85811015610ee25784840389528151610ec38582610e5e565b9450610ece83610e72565b925060208a01995050600181019050610eaa565b50829750879550505050505092915050565b60006040820190508181036000830152610f0e8185610cd2565b90508181036020830152610f228184610e7f565b90509392505050565b610f3481610df5565b8114610f3f57600080fd5b50565b600081359050610f5181610f2b565b92915050565b600060208284031215610f6d57610f6c610ba7565b5b6000610f7b84828501610f42565b91505092915050565b600082825260208201905092915050565b6000610fa082610d5c565b610faa8185610f84565b9350610fba818560208601610d78565b610fc381610dab565b840191505092915050565b610fd781610df5565b82525050565b610fe681610bd1565b82525050565b600060608201905081810360008301526110068186610f95565b90506110156020830185610fce565b6110226040830184610fdd565b949350505050565b600060208201905061103f6000830184610fdd565b92915050565b600080fd5b600080fd5b7f4e487b7100000000000000000000000000000000000000000000000000000000600052604160045260246000fd5b61108782610dab565b810181811067ffffffffffffffff821117156110a6576110a561104f565b5b80604052505050565b60006110b9610b9d565b90506110c5828261107e565b919050565b600067ffffffffffffffff8211156110e5576110e461104f565b5b6110ee82610dab565b9050602081019050919050565b82818337600083830152505050565b600061111d611118846110ca565b6110af565b9050828152602081018484840111156111395761113861104a565b5b6111448482856110fb565b509392505050565b600082601f83011261116157611160611045565b5b813561117184826020860161110a565b91505092915050565b6000602082840312156111905761118f610ba7565b5b600082013567ffffffffffffffff8111156111ae576111ad610bac565b5b6111ba8482850161114c565b91505092915050565b7f4e487b7100000000000000000000000000000000000000000000000000000000600052602260045260246000fd5b6000600282049050600182168061120a57607f821691505b6020821081141561121e5761121d6111c3565b5b50919050565b7f4f6e6c7920616e20616363657074656420617574686f722063616e206170707260008201527f6f76652061207265717565737400000000000000000000000000000000000000602082015250565b6000611280602d83610f84565b915061128b82611224565b604082019050919050565b600060208201905081810360008301526112af81611273565b9050919050565b7f4e487b7100000000000000000000000000000000000000000000000000000000600052603260045260246000fd5b7f417574686f72206f6620746865207265717565737420697320616c726561647960008201527f20696e636c7564656420696e20746865206c697374206f6620617574686f7273602082015250565b6000611341604083610f84565b915061134c826112e5565b604082019050919050565b6000602082019050818103600083015261137081611334565b9050919050565b7f4e487b7100000000000000000000000000000000000000000000000000000000600052601160045260246000fd5b60006113b182610df5565b91506113bc83610df5565b9250828210156113cf576113ce611377565b5b828203905092915050565b7f4e487b7100000000000000000000000000000000000000000000000000000000600052603160045260246000fd5b7f417574686f7220616c72656164792065786973747320696e20746865206c697360008201527f74206f6620617574686f72730000000000000000000000000000000000000000602082015250565b6000611465602c83610f84565b915061147082611409565b604082019050919050565b6000602082019050818103600083015261149481611458565b905091905056fea2646970667358221220ba5e0e2ce1f7ce71fde91b2d74101009144b9701327b75f3fb6925e87a50d4b864736f6c63430008090033a2646970667358221220bef2a6e5511d8f8878660cae03a823e4f8bd53bd1f603e0574b2c3c604f29f8764736f6c63430008090033","opcodes":"PUSH1 0x80 PUSH1 0x40 MSTORE CALLVALUE DUP1 ISZERO PUSH2 0x10 JUMPI PUSH1 0x0 DUP1 REVERT JUMPDEST POP PUSH2 0x1A7E DUP1 PUSH2 0x20 PUSH1 0x0 CODECOPY PUSH1 0x0 RETURN INVALID PUSH1 0x80 PUSH1 0x40 MSTORE CALLVALUE DUP1 ISZERO PUSH2 0x10 JUMPI PUSH1 0x0 DUP1 REVERT JUMPDEST POP PUSH1 0x4 CALLDATASIZE LT PUSH2 0x41 JUMPI PUSH1 0x0 CALLDATALOAD PUSH1 0xE0 SHR DUP1 PUSH4 0x18351EA7 EQ PUSH2 0x46 JUMPI DUP1 PUSH4 0x2FF2BDD5 EQ PUSH2 0x76 JUMPI DUP1 PUSH4 0xCAC0F8A4 EQ PUSH2 0x94 JUMPI JUMPDEST PUSH1 0x0 DUP1 REVERT JUMPDEST PUSH2 0x60 PUSH1 0x4 DUP1 CALLDATASIZE SUB DUP2 ADD SWAP1 PUSH2 0x5B SWAP2 SWAP1 PUSH2 0x26A JUMP JUMPDEST PUSH2 0xB2 JUMP JUMPDEST PUSH1 0x40 MLOAD PUSH2 0x6D SWAP2 SWAP1 PUSH2 0x2D8 JUMP JUMPDEST PUSH1 0x40 MLOAD DUP1 SWAP2 SUB SWAP1 RETURN JUMPDEST PUSH2 0x7E PUSH2 0xF1 JUMP JUMPDEST PUSH1 0x40 MLOAD PUSH2 0x8B SWAP2 SWAP1 PUSH2 0x3B1 JUMP JUMPDEST PUSH1 0x40 MLOAD DUP1 SWAP2 SUB SWAP1 RETURN JUMPDEST PUSH2 0x9C PUSH2 0x17F JUMP JUMPDEST PUSH1 0x40 MLOAD PUSH2 0xA9 SWAP2 SWAP1 PUSH2 0x2D8 JUMP JUMPDEST PUSH1 0x40 MLOAD DUP1 SWAP2 SUB SWAP1 RETURN JUMPDEST PUSH1 0x0 DUP2 DUP2 SLOAD DUP2 LT PUSH2 0xC2 JUMPI PUSH1 0x0 DUP1 REVERT JUMPDEST SWAP1 PUSH1 0x0 MSTORE PUSH1 0x20 PUSH1 0x0 KECCAK256 ADD PUSH1 0x0 SWAP2 POP SLOAD SWAP1 PUSH2 0x100 EXP SWAP1 DIV PUSH20 0xFFFFFFFFFFFFFFFFFFFFFFFFFFFFFFFFFFFFFFFF AND DUP2 JUMP JUMPDEST PUSH1 0x60 PUSH1 0x0 DUP1 SLOAD DUP1 PUSH1 0x20 MUL PUSH1 0x20 ADD PUSH1 0x40 MLOAD SWAP1 DUP2 ADD PUSH1 0x40 MSTORE DUP1 SWAP3 SWAP2 SWAP1 DUP2 DUP2 MSTORE PUSH1 0x20 ADD DUP3 DUP1 SLOAD DUP1 ISZERO PUSH2 0x175 JUMPI PUSH1 0x20 MUL DUP3 ADD SWAP2 SWAP1 PUSH1 0x0 MSTORE PUSH1 0x20 PUSH1 0x0 KECCAK256 SWAP1 JUMPDEST DUP2 PUSH1 0x0 SWAP1 SLOAD SWAP1 PUSH2 0x100 EXP SWAP1 DIV PUSH20 0xFFFFFFFFFFFFFFFFFFFFFFFFFFFFFFFFFFFFFFFF AND PUSH20 0xFFFFFFFFFFFFFFFFFFFFFFFFFFFFFFFFFFFFFFFF AND DUP2 MSTORE PUSH1 0x20 ADD SWAP1 PUSH1 0x1 ADD SWAP1 DUP1 DUP4 GT PUSH2 0x12B JUMPI JUMPDEST POP POP POP POP POP SWAP1 POP SWAP1 JUMP JUMPDEST PUSH1 0x0 DUP1 CALLER PUSH1 0x40 MLOAD PUSH2 0x18F SWAP1 PUSH2 0x222 JUMP JUMPDEST PUSH2 0x199 SWAP2 SWAP1 PUSH2 0x2D8 JUMP JUMPDEST PUSH1 0x40 MLOAD DUP1 SWAP2 SUB SWAP1 PUSH1 0x0 CREATE DUP1 ISZERO DUP1 ISZERO PUSH2 0x1B5 JUMPI RETURNDATASIZE PUSH1 0x0 DUP1 RETURNDATACOPY RETURNDATASIZE PUSH1 0x0 REVERT JUMPDEST POP SWAP1 POP PUSH1 0x0 DUP2 SWAP1 DUP1 PUSH1 0x1 DUP2 SLOAD ADD DUP1 DUP3 SSTORE DUP1 SWAP2 POP POP PUSH1 0x1 SWAP1 SUB SWAP1 PUSH1 0x0 MSTORE PUSH1 0x20 PUSH1 0x0 KECCAK256 ADD PUSH1 0x0 SWAP1 SWAP2 SWAP1 SWAP2 SWAP1 SWAP2 PUSH2 0x100 EXP DUP2 SLOAD DUP2 PUSH20 0xFFFFFFFFFFFFFFFFFFFFFFFFFFFFFFFFFFFFFFFF MUL NOT AND SWAP1 DUP4 PUSH20 0xFFFFFFFFFFFFFFFFFFFFFFFFFFFFFFFFFFFFFFFF AND MUL OR SWAP1 SSTORE POP DUP1 SWAP2 POP POP SWAP1 JUMP JUMPDEST PUSH2 0x1675 DUP1 PUSH2 0x3D4 DUP4 CODECOPY ADD SWAP1 JUMP JUMPDEST PUSH1 0x0 DUP1 REVERT JUMPDEST PUSH1 0x0 DUP2 SWAP1 POP SWAP2 SWAP1 POP JUMP JUMPDEST PUSH2 0x247 DUP2 PUSH2 0x234 JUMP JUMPDEST DUP2 EQ PUSH2 0x252 JUMPI PUSH1 0x0 DUP1 REVERT JUMPDEST POP JUMP JUMPDEST PUSH1 0x0 DUP2 CALLDATALOAD SWAP1 POP PUSH2 0x264 DUP2 PUSH2 0x23E JUMP JUMPDEST SWAP3 SWAP2 POP POP JUMP JUMPDEST PUSH1 0x0 PUSH1 0x20 DUP3 DUP5 SUB SLT ISZERO PUSH2 0x280 JUMPI PUSH2 0x27F PUSH2 0x22F JUMP JUMPDEST JUMPDEST PUSH1 0x0 PUSH2 0x28E DUP5 DUP3 DUP6 ADD PUSH2 0x255 JUMP JUMPDEST SWAP2 POP POP SWAP3 SWAP2 POP POP JUMP JUMPDEST PUSH1 0x0 PUSH20 0xFFFFFFFFFFFFFFFFFFFFFFFFFFFFFFFFFFFFFFFF DUP3 AND SWAP1 POP SWAP2 SWAP1 POP JUMP JUMPDEST PUSH1 0x0 PUSH2 0x2C2 DUP3 PUSH2 0x297 JUMP JUMPDEST SWAP1 POP SWAP2 SWAP1 POP JUMP JUMPDEST PUSH2 0x2D2 DUP2 PUSH2 0x2B7 JUMP JUMPDEST DUP3 MSTORE POP POP JUMP JUMPDEST PUSH1 0x0 PUSH1 0x20 DUP3 ADD SWAP1 POP PUSH2 0x2ED PUSH1 0x0 DUP4 ADD DUP5 PUSH2 0x2C9 JUMP JUMPDEST SWAP3 SWAP2 POP POP JUMP JUMPDEST PUSH1 0x0 DUP2 MLOAD SWAP1 POP SWAP2 SWAP1 POP JUMP JUMPDEST PUSH1 0x0 DUP3 DUP3 MSTORE PUSH1 0x20 DUP3 ADD SWAP1 POP SWAP3 SWAP2 POP POP JUMP JUMPDEST PUSH1 0x0 DUP2 SWAP1 POP PUSH1 0x20 DUP3 ADD SWAP1 POP SWAP2 SWAP1 POP JUMP JUMPDEST PUSH2 0x328 DUP2 PUSH2 0x2B7 JUMP JUMPDEST DUP3 MSTORE POP POP JUMP JUMPDEST PUSH1 0x0 PUSH2 0x33A DUP4 DUP4 PUSH2 0x31F JUMP JUMPDEST PUSH1 0x20 DUP4 ADD SWAP1 POP SWAP3 SWAP2 POP POP JUMP JUMPDEST PUSH1 0x0 PUSH1 0x20 DUP3 ADD SWAP1 POP SWAP2 SWAP1 POP JUMP JUMPDEST PUSH1 0x0 PUSH2 0x35E DUP3 PUSH2 0x2F3 JUMP JUMPDEST PUSH2 0x368 DUP2 DUP6 PUSH2 0x2FE JUMP JUMPDEST SWAP4 POP PUSH2 0x373 DUP4 PUSH2 0x30F JUMP JUMPDEST DUP1 PUSH1 0x0 JUMPDEST DUP4 DUP2 LT ISZERO PUSH2 0x3A4 JUMPI DUP2 MLOAD PUSH2 0x38B DUP9 DUP3 PUSH2 0x32E JUMP JUMPDEST SWAP8 POP PUSH2 0x396 DUP4 PUSH2 0x346 JUMP JUMPDEST SWAP3 POP POP PUSH1 0x1 DUP2 ADD SWAP1 POP PUSH2 0x377 JUMP JUMPDEST POP DUP6 SWAP4 POP POP POP POP SWAP3 SWAP2 POP POP JUMP JUMPDEST PUSH1 0x0 PUSH1 0x20 DUP3 ADD SWAP1 POP DUP2 DUP2 SUB PUSH1 0x0 DUP4 ADD MSTORE PUSH2 0x3CB DUP2 DUP5 PUSH2 0x353 JUMP JUMPDEST SWAP1 POP SWAP3 SWAP2 POP POP JUMP INVALID PUSH1 0x80 PUSH1 0x40 MSTORE CALLVALUE DUP1 ISZERO PUSH3 0x11 JUMPI PUSH1 0x0 DUP1 REVERT JUMPDEST POP PUSH1 0x40 MLOAD PUSH3 0x1675 CODESIZE SUB DUP1 PUSH3 0x1675 DUP4 CODECOPY DUP2 DUP2 ADD PUSH1 0x40 MSTORE DUP2 ADD SWAP1 PUSH3 0x37 SWAP2 SWAP1 PUSH3 0x162 JUMP JUMPDEST PUSH1 0x1 PUSH1 0x0 DUP1 DUP4 PUSH20 0xFFFFFFFFFFFFFFFFFFFFFFFFFFFFFFFFFFFFFFFF AND PUSH20 0xFFFFFFFFFFFFFFFFFFFFFFFFFFFFFFFFFFFFFFFF AND DUP2 MSTORE PUSH1 0x20 ADD SWAP1 DUP2 MSTORE PUSH1 0x20 ADD PUSH1 0x0 KECCAK256 PUSH1 0x0 PUSH2 0x100 EXP DUP2 SLOAD DUP2 PUSH1 0xFF MUL NOT AND SWAP1 DUP4 ISZERO ISZERO MUL OR SWAP1 SSTORE POP PUSH1 0x1 DUP2 SWAP1 DUP1 PUSH1 0x1 DUP2 SLOAD ADD DUP1 DUP3 SSTORE DUP1 SWAP2 POP POP PUSH1 0x1 SWAP1 SUB SWAP1 PUSH1 0x0 MSTORE PUSH1 0x20 PUSH1 0x0 KECCAK256 ADD PUSH1 0x0 SWAP1 SWAP2 SWAP1 SWAP2 SWAP1 SWAP2 PUSH2 0x100 EXP DUP2 SLOAD DUP2 PUSH20 0xFFFFFFFFFFFFFFFFFFFFFFFFFFFFFFFFFFFFFFFF MUL NOT AND SWAP1 DUP4 PUSH20 0xFFFFFFFFFFFFFFFFFFFFFFFFFFFFFFFFFFFFFFFF AND MUL OR SWAP1 SSTORE POP POP PUSH3 0x194 JUMP JUMPDEST PUSH1 0x0 DUP1 REVERT JUMPDEST PUSH1 0x0 PUSH20 0xFFFFFFFFFFFFFFFFFFFFFFFFFFFFFFFFFFFFFFFF DUP3 AND SWAP1 POP SWAP2 SWAP1 POP JUMP JUMPDEST PUSH1 0x0 PUSH3 0x12A DUP3 PUSH3 0xFD JUMP JUMPDEST SWAP1 POP SWAP2 SWAP1 POP JUMP JUMPDEST PUSH3 0x13C DUP2 PUSH3 0x11D JUMP JUMPDEST DUP2 EQ PUSH3 0x148 JUMPI PUSH1 0x0 DUP1 REVERT JUMPDEST POP JUMP JUMPDEST PUSH1 0x0 DUP2 MLOAD SWAP1 POP PUSH3 0x15C DUP2 PUSH3 0x131 JUMP JUMPDEST SWAP3 SWAP2 POP POP JUMP JUMPDEST PUSH1 0x0 PUSH1 0x20 DUP3 DUP5 SUB SLT ISZERO PUSH3 0x17B JUMPI PUSH3 0x17A PUSH3 0xF8 JUMP JUMPDEST JUMPDEST PUSH1 0x0 PUSH3 0x18B DUP5 DUP3 DUP6 ADD PUSH3 0x14B JUMP JUMPDEST SWAP2 POP POP SWAP3 SWAP2 POP POP JUMP JUMPDEST PUSH2 0x14D1 DUP1 PUSH3 0x1A4 PUSH1 0x0 CODECOPY PUSH1 0x0 RETURN INVALID PUSH1 0x80 PUSH1 0x40 MSTORE CALLVALUE DUP1 ISZERO PUSH2 0x10 JUMPI PUSH1 0x0 DUP1 REVERT JUMPDEST POP PUSH1 0x4 CALLDATASIZE LT PUSH2 0x7D JUMPI PUSH1 0x0 CALLDATALOAD PUSH1 0xE0 SHR DUP1 PUSH4 0x6FC6C579 GT PUSH2 0x5B JUMPI DUP1 PUSH4 0x6FC6C579 EQ PUSH2 0xEF JUMPI DUP1 PUSH4 0x98B79628 EQ PUSH2 0x121 JUMPI DUP1 PUSH4 0x9D3ED807 EQ PUSH2 0x13D JUMPI DUP1 PUSH4 0xDFA14E23 EQ PUSH2 0x16D JUMPI PUSH2 0x7D JUMP JUMPDEST DUP1 PUSH4 0x3E5690F4 EQ PUSH2 0x82 JUMPI DUP1 PUSH4 0x4051DDAC EQ PUSH2 0xB2 JUMPI DUP1 PUSH4 0x5CF298FB EQ PUSH2 0xD1 JUMPI JUMPDEST PUSH1 0x0 DUP1 REVERT JUMPDEST PUSH2 0x9C PUSH1 0x4 DUP1 CALLDATASIZE SUB DUP2 ADD SWAP1 PUSH2 0x97 SWAP2 SWAP1 PUSH2 0xC0F JUMP JUMPDEST PUSH2 0x189 JUMP JUMPDEST PUSH1 0x40 MLOAD PUSH2 0xA9 SWAP2 SWAP1 PUSH2 0xC57 JUMP JUMPDEST PUSH1 0x40 MLOAD DUP1 SWAP2 SUB SWAP1 RETURN JUMPDEST PUSH2 0xBA PUSH2 0x1A9 JUMP JUMPDEST PUSH1 0x40 MLOAD PUSH2 0xC8 SWAP3 SWAP2 SWAP1 PUSH2 0xEF4 JUMP JUMPDEST PUSH1 0x40 MLOAD DUP1 SWAP2 SUB SWAP1 RETURN JUMPDEST PUSH2 0xD9 PUSH2 0x38B JUMP JUMPDEST PUSH1 0x40 MLOAD PUSH2 0xE6 SWAP2 SWAP1 PUSH2 0xC57 JUMP JUMPDEST PUSH1 0x40 MLOAD DUP1 SWAP2 SUB SWAP1 RETURN JUMPDEST PUSH2 0x109 PUSH1 0x4 DUP1 CALLDATASIZE SUB DUP2 ADD SWAP1 PUSH2 0x104 SWAP2 SWAP1 PUSH2 0xF57 JUMP JUMPDEST PUSH2 0x3DE JUMP JUMPDEST PUSH1 0x40 MLOAD PUSH2 0x118 SWAP4 SWAP3 SWAP2 SWAP1 PUSH2 0xFEC JUMP JUMPDEST PUSH1 0x40 MLOAD DUP1 SWAP2 SUB SWAP1 RETURN JUMPDEST PUSH2 0x13B PUSH1 0x4 DUP1 CALLDATASIZE SUB DUP2 ADD SWAP1 PUSH2 0x136 SWAP2 SWAP1 PUSH2 0xF57 JUMP JUMPDEST PUSH2 0x4C0 JUMP JUMPDEST STOP JUMPDEST PUSH2 0x157 PUSH1 0x4 DUP1 CALLDATASIZE SUB DUP2 ADD SWAP1 PUSH2 0x152 SWAP2 SWAP1 PUSH2 0xF57 JUMP JUMPDEST PUSH2 0x91A JUMP JUMPDEST PUSH1 0x40 MLOAD PUSH2 0x164 SWAP2 SWAP1 PUSH2 0x102A JUMP JUMPDEST PUSH1 0x40 MLOAD DUP1 SWAP2 SUB SWAP1 RETURN JUMPDEST PUSH2 0x187 PUSH1 0x4 DUP1 CALLDATASIZE SUB DUP2 ADD SWAP1 PUSH2 0x182 SWAP2 SWAP1 PUSH2 0x117A JUMP JUMPDEST PUSH2 0x959 JUMP JUMPDEST STOP JUMPDEST PUSH1 0x0 PUSH1 0x20 MSTORE DUP1 PUSH1 0x0 MSTORE PUSH1 0x40 PUSH1 0x0 KECCAK256 PUSH1 0x0 SWAP2 POP SLOAD SWAP1 PUSH2 0x100 EXP SWAP1 DIV PUSH1 0xFF AND DUP2 JUMP JUMPDEST PUSH1 0x60 DUP1 PUSH1 0x1 PUSH1 0x2 DUP2 DUP1 SLOAD DUP1 PUSH1 0x20 MUL PUSH1 0x20 ADD PUSH1 0x40 MLOAD SWAP1 DUP2 ADD PUSH1 0x40 MSTORE DUP1 SWAP3 SWAP2 SWAP1 DUP2 DUP2 MSTORE PUSH1 0x20 ADD DUP3 DUP1 SLOAD DUP1 ISZERO PUSH2 0x231 JUMPI PUSH1 0x20 MUL DUP3 ADD SWAP2 SWAP1 PUSH1 0x0 MSTORE PUSH1 0x20 PUSH1 0x0 KECCAK256 SWAP1 JUMPDEST DUP2 PUSH1 0x0 SWAP1 SLOAD SWAP1 PUSH2 0x100 EXP SWAP1 DIV PUSH20 0xFFFFFFFFFFFFFFFFFFFFFFFFFFFFFFFFFFFFFFFF AND PUSH20 0xFFFFFFFFFFFFFFFFFFFFFFFFFFFFFFFFFFFFFFFF AND DUP2 MSTORE PUSH1 0x20 ADD SWAP1 PUSH1 0x1 ADD SWAP1 DUP1 DUP4 GT PUSH2 0x1E7 JUMPI JUMPDEST POP POP POP POP POP SWAP2 POP DUP1 DUP1 SLOAD DUP1 PUSH1 0x20 MUL PUSH1 0x20 ADD PUSH1 0x40 MLOAD SWAP1 DUP2 ADD PUSH1 0x40 MSTORE DUP1 SWAP3 SWAP2 SWAP1 DUP2 DUP2 MSTORE PUSH1 0x20 ADD PUSH1 0x0 SWAP1 JUMPDEST DUP3 DUP3 LT ISZERO PUSH2 0x37D JUMPI DUP4 DUP3 SWAP1 PUSH1 0x0 MSTORE PUSH1 0x20 PUSH1 0x0 KECCAK256 SWAP1 PUSH1 0x3 MUL ADD PUSH1 0x40 MLOAD DUP1 PUSH1 0x60 ADD PUSH1 0x40 MSTORE SWAP1 DUP2 PUSH1 0x0 DUP3 ADD DUP1 SLOAD PUSH2 0x28C SWAP1 PUSH2 0x11F2 JUMP JUMPDEST DUP1 PUSH1 0x1F ADD PUSH1 0x20 DUP1 SWAP2 DIV MUL PUSH1 0x20 ADD PUSH1 0x40 MLOAD SWAP1 DUP2 ADD PUSH1 0x40 MSTORE DUP1 SWAP3 SWAP2 SWAP1 DUP2 DUP2 MSTORE PUSH1 0x20 ADD DUP3 DUP1 SLOAD PUSH2 0x2B8 SWAP1 PUSH2 0x11F2 JUMP JUMPDEST DUP1 ISZERO PUSH2 0x305 JUMPI DUP1 PUSH1 0x1F LT PUSH2 0x2DA JUMPI PUSH2 0x100 DUP1 DUP4 SLOAD DIV MUL DUP4 MSTORE SWAP2 PUSH1 0x20 ADD SWAP2 PUSH2 0x305 JUMP JUMPDEST DUP3 ADD SWAP2 SWAP1 PUSH1 0x0 MSTORE PUSH1 0x20 PUSH1 0x0 KECCAK256 SWAP1 JUMPDEST DUP2 SLOAD DUP2 MSTORE SWAP1 PUSH1 0x1 ADD SWAP1 PUSH1 0x20 ADD DUP1 DUP4 GT PUSH2 0x2E8 JUMPI DUP3 SWAP1 SUB PUSH1 0x1F AND DUP3 ADD SWAP2 JUMPDEST POP POP POP POP POP DUP2 MSTORE PUSH1 0x20 ADD PUSH1 0x1 DUP3 ADD SLOAD DUP2 MSTORE PUSH1 0x20 ADD PUSH1 0x2 DUP3 ADD PUSH1 0x0 SWAP1 SLOAD SWAP1 PUSH2 0x100 EXP SWAP1 DIV PUSH20 0xFFFFFFFFFFFFFFFFFFFFFFFFFFFFFFFFFFFFFFFF AND PUSH20 0xFFFFFFFFFFFFFFFFFFFFFFFFFFFFFFFFFFFFFFFF AND PUSH20 0xFFFFFFFFFFFFFFFFFFFFFFFFFFFFFFFFFFFFFFFF AND DUP2 MSTORE POP POP DUP2 MSTORE PUSH1 0x20 ADD SWAP1 PUSH1 0x1 ADD SWAP1 PUSH2 0x259 JUMP JUMPDEST POP POP POP POP SWAP1 POP SWAP2 POP SWAP2 POP SWAP1 SWAP2 JUMP JUMPDEST PUSH1 0x0 DUP1 PUSH1 0x0 CALLER PUSH20 0xFFFFFFFFFFFFFFFFFFFFFFFFFFFFFFFFFFFFFFFF AND PUSH20 0xFFFFFFFFFFFFFFFFFFFFFFFFFFFFFFFFFFFFFFFF AND DUP2 MSTORE PUSH1 0x20 ADD SWAP1 DUP2 MSTORE PUSH1 0x20 ADD PUSH1 0x0 KECCAK256 PUSH1 0x0 SWAP1 SLOAD SWAP1 PUSH2 0x100 EXP SWAP1 DIV PUSH1 0xFF AND SWAP1 POP SWAP1 JUMP JUMPDEST PUSH1 0x2 DUP2 DUP2 SLOAD DUP2 LT PUSH2 0x3EE JUMPI PUSH1 0x0 DUP1 REVERT JUMPDEST SWAP1 PUSH1 0x0 MSTORE PUSH1 0x20 PUSH1 0x0 KECCAK256 SWAP1 PUSH1 0x3 MUL ADD PUSH1 0x0 SWAP2 POP SWAP1 POP DUP1 PUSH1 0x0 ADD DUP1 SLOAD PUSH2 0x411 SWAP1 PUSH2 0x11F2 JUMP JUMPDEST DUP1 PUSH1 0x1F ADD PUSH1 0x20 DUP1 SWAP2 DIV MUL PUSH1 0x20 ADD PUSH1 0x40 MLOAD SWAP1 DUP2 ADD PUSH1 0x40 MSTORE DUP1 SWAP3 SWAP2 SWAP1 DUP2 DUP2 MSTORE PUSH1 0x20 ADD DUP3 DUP1 SLOAD PUSH2 0x43D SWAP1 PUSH2 0x11F2 JUMP JUMPDEST DUP1 ISZERO PUSH2 0x48A JUMPI DUP1 PUSH1 0x1F LT PUSH2 0x45F JUMPI PUSH2 0x100 DUP1 DUP4 SLOAD DIV MUL DUP4 MSTORE SWAP2 PUSH1 0x20 ADD SWAP2 PUSH2 0x48A JUMP JUMPDEST DUP3 ADD SWAP2 SWAP1 PUSH1 0x0 MSTORE PUSH1 0x20 PUSH1 0x0 KECCAK256 SWAP1 JUMPDEST DUP2 SLOAD DUP2 MSTORE SWAP1 PUSH1 0x1 ADD SWAP1 PUSH1 0x20 ADD DUP1 DUP4 GT PUSH2 0x46D JUMPI DUP3 SWAP1 SUB PUSH1 0x1F AND DUP3 ADD SWAP2 JUMPDEST POP POP POP POP POP SWAP1 DUP1 PUSH1 0x1 ADD SLOAD SWAP1 DUP1 PUSH1 0x2 ADD PUSH1 0x0 SWAP1 SLOAD SWAP1 PUSH2 0x100 EXP SWAP1 DIV PUSH20 0xFFFFFFFFFFFFFFFFFFFFFFFFFFFFFFFFFFFFFFFF AND SWAP1 POP DUP4 JUMP JUMPDEST PUSH1 0x0 DUP1 CALLER PUSH20 0xFFFFFFFFFFFFFFFFFFFFFFFFFFFFFFFFFFFFFFFF AND PUSH20 0xFFFFFFFFFFFFFFFFFFFFFFFFFFFFFFFFFFFFFFFF AND DUP2 MSTORE PUSH1 0x20 ADD SWAP1 DUP2 MSTORE PUSH1 0x20 ADD PUSH1 0x0 KECCAK256 PUSH1 0x0 SWAP1 SLOAD SWAP1 PUSH2 0x100 EXP SWAP1 DIV PUSH1 0xFF AND PUSH2 0x54B JUMPI PUSH1 0x40 MLOAD PUSH32 0x8C379A000000000000000000000000000000000000000000000000000000000 DUP2 MSTORE PUSH1 0x4 ADD PUSH2 0x542 SWAP1 PUSH2 0x1296 JUMP JUMPDEST PUSH1 0x40 MLOAD DUP1 SWAP2 SUB SWAP1 REVERT JUMPDEST PUSH1 0x0 DUP1 PUSH1 0x2 DUP4 DUP2 SLOAD DUP2 LT PUSH2 0x562 JUMPI PUSH2 0x561 PUSH2 0x12B6 JUMP JUMPDEST JUMPDEST SWAP1 PUSH1 0x0 MSTORE PUSH1 0x20 PUSH1 0x0 KECCAK256 SWAP1 PUSH1 0x3 MUL ADD PUSH1 0x2 ADD PUSH1 0x0 SWAP1 SLOAD SWAP1 PUSH2 0x100 EXP SWAP1 DIV PUSH20 0xFFFFFFFFFFFFFFFFFFFFFFFFFFFFFFFFFFFFFFFF AND PUSH20 0xFFFFFFFFFFFFFFFFFFFFFFFFFFFFFFFFFFFFFFFF AND PUSH20 0xFFFFFFFFFFFFFFFFFFFFFFFFFFFFFFFFFFFFFFFF AND DUP2 MSTORE PUSH1 0x20 ADD SWAP1 DUP2 MSTORE PUSH1 0x20 ADD PUSH1 0x0 KECCAK256 PUSH1 0x0 SWAP1 SLOAD SWAP1 PUSH2 0x100 EXP SWAP1 DIV PUSH1 0xFF AND ISZERO PUSH2 0x61C JUMPI PUSH1 0x40 MLOAD PUSH32 0x8C379A000000000000000000000000000000000000000000000000000000000 DUP2 MSTORE PUSH1 0x4 ADD PUSH2 0x613 SWAP1 PUSH2 0x1357 JUMP JUMPDEST PUSH1 0x40 MLOAD DUP1 SWAP2 SUB SWAP1 REVERT JUMPDEST PUSH1 0x0 PUSH1 0x1 PUSH1 0x2 DUP1 SLOAD SWAP1 POP PUSH2 0x630 SWAP2 SWAP1 PUSH2 0x13A6 JUMP JUMPDEST SWAP1 POP PUSH1 0x0 PUSH1 0x2 DUP3 DUP2 SLOAD DUP2 LT PUSH2 0x648 JUMPI PUSH2 0x647 PUSH2 0x12B6 JUMP JUMPDEST JUMPDEST SWAP1 PUSH1 0x0 MSTORE PUSH1 0x20 PUSH1 0x0 KECCAK256 SWAP1 PUSH1 0x3 MUL ADD PUSH1 0x40 MLOAD DUP1 PUSH1 0x60 ADD PUSH1 0x40 MSTORE SWAP1 DUP2 PUSH1 0x0 DUP3 ADD DUP1 SLOAD PUSH2 0x671 SWAP1 PUSH2 0x11F2 JUMP JUMPDEST DUP1 PUSH1 0x1F ADD PUSH1 0x20 DUP1 SWAP2 DIV MUL PUSH1 0x20 ADD PUSH1 0x40 MLOAD SWAP1 DUP2 ADD PUSH1 0x40 MSTORE DUP1 SWAP3 SWAP2 SWAP1 DUP2 DUP2 MSTORE PUSH1 0x20 ADD DUP3 DUP1 SLOAD PUSH2 0x69D SWAP1 PUSH2 0x11F2 JUMP JUMPDEST DUP1 ISZERO PUSH2 0x6EA JUMPI DUP1 PUSH1 0x1F LT PUSH2 0x6BF JUMPI PUSH2 0x100 DUP1 DUP4 SLOAD DIV MUL DUP4 MSTORE SWAP2 PUSH1 0x20 ADD SWAP2 PUSH2 0x6EA JUMP JUMPDEST DUP3 ADD SWAP2 SWAP1 PUSH1 0x0 MSTORE PUSH1 0x20 PUSH1 0x0 KECCAK256 SWAP1 JUMPDEST DUP2 SLOAD DUP2 MSTORE SWAP1 PUSH1 0x1 ADD SWAP1 PUSH1 0x20 ADD DUP1 DUP4 GT PUSH2 0x6CD JUMPI DUP3 SWAP1 SUB PUSH1 0x1F AND DUP3 ADD SWAP2 JUMPDEST POP POP POP POP POP DUP2 MSTORE PUSH1 0x20 ADD PUSH1 0x1 DUP3 ADD SLOAD DUP2 MSTORE PUSH1 0x20 ADD PUSH1 0x2 DUP3 ADD PUSH1 0x0 SWAP1 SLOAD SWAP1 PUSH2 0x100 EXP SWAP1 DIV PUSH20 0xFFFFFFFFFFFFFFFFFFFFFFFFFFFFFFFFFFFFFFFF AND PUSH20 0xFFFFFFFFFFFFFFFFFFFFFFFFFFFFFFFFFFFFFFFF AND PUSH20 0xFFFFFFFFFFFFFFFFFFFFFFFFFFFFFFFFFFFFFFFF AND DUP2 MSTORE POP POP SWAP1 POP DUP1 PUSH1 0x2 DUP5 DUP2 SLOAD DUP2 LT PUSH2 0x76A JUMPI PUSH2 0x769 PUSH2 0x12B6 JUMP JUMPDEST JUMPDEST SWAP1 PUSH1 0x0 MSTORE PUSH1 0x20 PUSH1 0x0 KECCAK256 SWAP1 PUSH1 0x3 MUL ADD PUSH1 0x0 DUP3 ADD MLOAD DUP2 PUSH1 0x0 ADD SWAP1 DUP1 MLOAD SWAP1 PUSH1 0x20 ADD SWAP1 PUSH2 0x794 SWAP3 SWAP2 SWAP1 PUSH2 0xABA JUMP JUMPDEST POP PUSH1 0x20 DUP3 ADD MLOAD DUP2 PUSH1 0x1 ADD SSTORE PUSH1 0x40 DUP3 ADD MLOAD DUP2 PUSH1 0x2 ADD PUSH1 0x0 PUSH2 0x100 EXP DUP2 SLOAD DUP2 PUSH20 0xFFFFFFFFFFFFFFFFFFFFFFFFFFFFFFFFFFFFFFFF MUL NOT AND SWAP1 DUP4 PUSH20 0xFFFFFFFFFFFFFFFFFFFFFFFFFFFFFFFFFFFFFFFF AND MUL OR SWAP1 SSTORE POP SWAP1 POP POP PUSH1 0x2 DUP1 SLOAD DUP1 PUSH2 0x7FB JUMPI PUSH2 0x7FA PUSH2 0x13DA JUMP JUMPDEST JUMPDEST PUSH1 0x1 SWAP1 SUB DUP2 DUP2 SWAP1 PUSH1 0x0 MSTORE PUSH1 0x20 PUSH1 0x0 KECCAK256 SWAP1 PUSH1 0x3 MUL ADD PUSH1 0x0 DUP1 DUP3 ADD PUSH1 0x0 PUSH2 0x820 SWAP2 SWAP1 PUSH2 0xB40 JUMP JUMPDEST PUSH1 0x1 DUP3 ADD PUSH1 0x0 SWAP1 SSTORE PUSH1 0x2 DUP3 ADD PUSH1 0x0 PUSH2 0x100 EXP DUP2 SLOAD SWAP1 PUSH20 0xFFFFFFFFFFFFFFFFFFFFFFFFFFFFFFFFFFFFFFFF MUL NOT AND SWAP1 SSTORE POP POP SWAP1 SSTORE PUSH1 0x1 PUSH1 0x0 DUP1 DUP4 PUSH1 0x40 ADD MLOAD PUSH20 0xFFFFFFFFFFFFFFFFFFFFFFFFFFFFFFFFFFFFFFFF AND PUSH20 0xFFFFFFFFFFFFFFFFFFFFFFFFFFFFFFFFFFFFFFFF AND DUP2 MSTORE PUSH1 0x20 ADD SWAP1 DUP2 MSTORE PUSH1 0x20 ADD PUSH1 0x0 KECCAK256 PUSH1 0x0 PUSH2 0x100 EXP DUP2 SLOAD DUP2 PUSH1 0xFF MUL NOT AND SWAP1 DUP4 ISZERO ISZERO MUL OR SWAP1 SSTORE POP PUSH1 0x1 DUP2 PUSH1 0x40 ADD MLOAD SWAP1 DUP1 PUSH1 0x1 DUP2 SLOAD ADD DUP1 DUP3 SSTORE DUP1 SWAP2 POP POP PUSH1 0x1 SWAP1 SUB SWAP1 PUSH1 0x0 MSTORE PUSH1 0x20 PUSH1 0x0 KECCAK256 ADD PUSH1 0x0 SWAP1 SWAP2 SWAP1 SWAP2 SWAP1 SWAP2 PUSH2 0x100 EXP DUP2 SLOAD DUP2 PUSH20 0xFFFFFFFFFFFFFFFFFFFFFFFFFFFFFFFFFFFFFFFF MUL NOT AND SWAP1 DUP4 PUSH20 0xFFFFFFFFFFFFFFFFFFFFFFFFFFFFFFFFFFFFFFFF AND MUL OR SWAP1 SSTORE POP POP POP POP JUMP JUMPDEST PUSH1 0x1 DUP2 DUP2 SLOAD DUP2 LT PUSH2 0x92A JUMPI PUSH1 0x0 DUP1 REVERT JUMPDEST SWAP1 PUSH1 0x0 MSTORE PUSH1 0x20 PUSH1 0x0 KECCAK256 ADD PUSH1 0x0 SWAP2 POP SLOAD SWAP1 PUSH2 0x100 EXP SWAP1 DIV PUSH20 0xFFFFFFFFFFFFFFFFFFFFFFFFFFFFFFFFFFFFFFFF AND DUP2 JUMP JUMPDEST PUSH1 0x0 DUP1 CALLER PUSH20 0xFFFFFFFFFFFFFFFFFFFFFFFFFFFFFFFFFFFFFFFF AND PUSH20 0xFFFFFFFFFFFFFFFFFFFFFFFFFFFFFFFFFFFFFFFF AND DUP2 MSTORE PUSH1 0x20 ADD SWAP1 DUP2 MSTORE PUSH1 0x20 ADD PUSH1 0x0 KECCAK256 PUSH1 0x0 SWAP1 SLOAD SWAP1 PUSH2 0x100 EXP SWAP1 DIV PUSH1 0xFF AND ISZERO PUSH2 0x9E5 JUMPI PUSH1 0x40 MLOAD PUSH32 0x8C379A000000000000000000000000000000000000000000000000000000000 DUP2 MSTORE PUSH1 0x4 ADD PUSH2 0x9DC SWAP1 PUSH2 0x147B JUMP JUMPDEST PUSH1 0x40 MLOAD DUP1 SWAP2 SUB SWAP1 REVERT JUMPDEST PUSH1 0x0 PUSH1 0x40 MLOAD DUP1 PUSH1 0x60 ADD PUSH1 0x40 MSTORE DUP1 DUP4 DUP2 MSTORE PUSH1 0x20 ADD TIMESTAMP DUP2 MSTORE PUSH1 0x20 ADD CALLER PUSH20 0xFFFFFFFFFFFFFFFFFFFFFFFFFFFFFFFFFFFFFFFF AND DUP2 MSTORE POP SWAP1 POP PUSH1 0x2 DUP2 SWAP1 DUP1 PUSH1 0x1 DUP2 SLOAD ADD DUP1 DUP3 SSTORE DUP1 SWAP2 POP POP PUSH1 0x1 SWAP1 SUB SWAP1 PUSH1 0x0 MSTORE PUSH1 0x20 PUSH1 0x0 KECCAK256 SWAP1 PUSH1 0x3 MUL ADD PUSH1 0x0 SWAP1 SWAP2 SWAP1 SWAP2 SWAP1 SWAP2 POP PUSH1 0x0 DUP3 ADD MLOAD DUP2 PUSH1 0x0 ADD SWAP1 DUP1 MLOAD SWAP1 PUSH1 0x20 ADD SWAP1 PUSH2 0xA62 SWAP3 SWAP2 SWAP1 PUSH2 0xABA JUMP JUMPDEST POP PUSH1 0x20 DUP3 ADD MLOAD DUP2 PUSH1 0x1 ADD SSTORE PUSH1 0x40 DUP3 ADD MLOAD DUP2 PUSH1 0x2 ADD PUSH1 0x0 PUSH2 0x100 EXP DUP2 SLOAD DUP2 PUSH20 0xFFFFFFFFFFFFFFFFFFFFFFFFFFFFFFFFFFFFFFFF MUL NOT AND SWAP1 DUP4 PUSH20 0xFFFFFFFFFFFFFFFFFFFFFFFFFFFFFFFFFFFFFFFF AND MUL OR SWAP1 SSTORE POP POP POP POP POP JUMP JUMPDEST DUP3 DUP1 SLOAD PUSH2 0xAC6 SWAP1 PUSH2 0x11F2 JUMP JUMPDEST SWAP1 PUSH1 0x0 MSTORE PUSH1 0x20 PUSH1 0x0 KECCAK256 SWAP1 PUSH1 0x1F ADD PUSH1 0x20 SWAP1 DIV DUP2 ADD SWAP3 DUP3 PUSH2 0xAE8 JUMPI PUSH1 0x0 DUP6 SSTORE PUSH2 0xB2F JUMP JUMPDEST DUP3 PUSH1 0x1F LT PUSH2 0xB01 JUMPI DUP1 MLOAD PUSH1 0xFF NOT AND DUP4 DUP1 ADD OR DUP6 SSTORE PUSH2 0xB2F JUMP JUMPDEST DUP3 DUP1 ADD PUSH1 0x1 ADD DUP6 SSTORE DUP3 ISZERO PUSH2 0xB2F JUMPI SWAP2 DUP3 ADD JUMPDEST DUP3 DUP2 GT ISZERO PUSH2 0xB2E JUMPI DUP3 MLOAD DUP3 SSTORE SWAP2 PUSH1 0x20 ADD SWAP2 SWAP1 PUSH1 0x1 ADD SWAP1 PUSH2 0xB13 JUMP JUMPDEST JUMPDEST POP SWAP1 POP PUSH2 0xB3C SWAP2 SWAP1 PUSH2 0xB80 JUMP JUMPDEST POP SWAP1 JUMP JUMPDEST POP DUP1 SLOAD PUSH2 0xB4C SWAP1 PUSH2 0x11F2 JUMP JUMPDEST PUSH1 0x0 DUP3 SSTORE DUP1 PUSH1 0x1F LT PUSH2 0xB5E JUMPI POP PUSH2 0xB7D JUMP JUMPDEST PUSH1 0x1F ADD PUSH1 0x20 SWAP1 DIV SWAP1 PUSH1 0x0 MSTORE PUSH1 0x20 PUSH1 0x0 KECCAK256 SWAP1 DUP2 ADD SWAP1 PUSH2 0xB7C SWAP2 SWAP1 PUSH2 0xB80 JUMP JUMPDEST JUMPDEST POP JUMP JUMPDEST JUMPDEST DUP1 DUP3 GT ISZERO PUSH2 0xB99 JUMPI PUSH1 0x0 DUP2 PUSH1 0x0 SWAP1 SSTORE POP PUSH1 0x1 ADD PUSH2 0xB81 JUMP JUMPDEST POP SWAP1 JUMP JUMPDEST PUSH1 0x0 PUSH1 0x40 MLOAD SWAP1 POP SWAP1 JUMP JUMPDEST PUSH1 0x0 DUP1 REVERT JUMPDEST PUSH1 0x0 DUP1 REVERT JUMPDEST PUSH1 0x0 PUSH20 0xFFFFFFFFFFFFFFFFFFFFFFFFFFFFFFFFFFFFFFFF DUP3 AND SWAP1 POP SWAP2 SWAP1 POP JUMP JUMPDEST PUSH1 0x0 PUSH2 0xBDC DUP3 PUSH2 0xBB1 JUMP JUMPDEST SWAP1 POP SWAP2 SWAP1 POP JUMP JUMPDEST PUSH2 0xBEC DUP2 PUSH2 0xBD1 JUMP JUMPDEST DUP2 EQ PUSH2 0xBF7 JUMPI PUSH1 0x0 DUP1 REVERT JUMPDEST POP JUMP JUMPDEST PUSH1 0x0 DUP2 CALLDATALOAD SWAP1 POP PUSH2 0xC09 DUP2 PUSH2 0xBE3 JUMP JUMPDEST SWAP3 SWAP2 POP POP JUMP JUMPDEST PUSH1 0x0 PUSH1 0x20 DUP3 DUP5 SUB SLT ISZERO PUSH2 0xC25 JUMPI PUSH2 0xC24 PUSH2 0xBA7 JUMP JUMPDEST JUMPDEST PUSH1 0x0 PUSH2 0xC33 DUP5 DUP3 DUP6 ADD PUSH2 0xBFA JUMP JUMPDEST SWAP2 POP POP SWAP3 SWAP2 POP POP JUMP JUMPDEST PUSH1 0x0 DUP2 ISZERO ISZERO SWAP1 POP SWAP2 SWAP1 POP JUMP JUMPDEST PUSH2 0xC51 DUP2 PUSH2 0xC3C JUMP JUMPDEST DUP3 MSTORE POP POP JUMP JUMPDEST PUSH1 0x0 PUSH1 0x20 DUP3 ADD SWAP1 POP PUSH2 0xC6C PUSH1 0x0 DUP4 ADD DUP5 PUSH2 0xC48 JUMP JUMPDEST SWAP3 SWAP2 POP POP JUMP JUMPDEST PUSH1 0x0 DUP2 MLOAD SWAP1 POP SWAP2 SWAP1 POP JUMP JUMPDEST PUSH1 0x0 DUP3 DUP3 MSTORE PUSH1 0x20 DUP3 ADD SWAP1 POP SWAP3 SWAP2 POP POP JUMP JUMPDEST PUSH1 0x0 DUP2 SWAP1 POP PUSH1 0x20 DUP3 ADD SWAP1 POP SWAP2 SWAP1 POP JUMP JUMPDEST PUSH2 0xCA7 DUP2 PUSH2 0xBD1 JUMP JUMPDEST DUP3 MSTORE POP POP JUMP JUMPDEST PUSH1 0x0 PUSH2 0xCB9 DUP4 DUP4 PUSH2 0xC9E JUMP JUMPDEST PUSH1 0x20 DUP4 ADD SWAP1 POP SWAP3 SWAP2 POP POP JUMP JUMPDEST PUSH1 0x0 PUSH1 0x20 DUP3 ADD SWAP1 POP SWAP2 SWAP1 POP JUMP JUMPDEST PUSH1 0x0 PUSH2 0xCDD DUP3 PUSH2 0xC72 JUMP JUMPDEST PUSH2 0xCE7 DUP2 DUP6 PUSH2 0xC7D JUMP JUMPDEST SWAP4 POP PUSH2 0xCF2 DUP4 PUSH2 0xC8E JUMP JUMPDEST DUP1 PUSH1 0x0 JUMPDEST DUP4 DUP2 LT ISZERO PUSH2 0xD23 JUMPI DUP2 MLOAD PUSH2 0xD0A DUP9 DUP3 PUSH2 0xCAD JUMP JUMPDEST SWAP8 POP PUSH2 0xD15 DUP4 PUSH2 0xCC5 JUMP JUMPDEST SWAP3 POP POP PUSH1 0x1 DUP2 ADD SWAP1 POP PUSH2 0xCF6 JUMP JUMPDEST POP DUP6 SWAP4 POP POP POP POP SWAP3 SWAP2 POP POP JUMP JUMPDEST PUSH1 0x0 DUP2 MLOAD SWAP1 POP SWAP2 SWAP1 POP JUMP JUMPDEST PUSH1 0x0 DUP3 DUP3 MSTORE PUSH1 0x20 DUP3 ADD SWAP1 POP SWAP3 SWAP2 POP POP JUMP JUMPDEST PUSH1 0x0 DUP2 SWAP1 POP PUSH1 0x20 DUP3 ADD SWAP1 POP SWAP2 SWAP1 POP JUMP JUMPDEST PUSH1 0x0 DUP2 MLOAD SWAP1 POP SWAP2 SWAP1 POP JUMP JUMPDEST PUSH1 0x0 DUP3 DUP3 MSTORE PUSH1 0x20 DUP3 ADD SWAP1 POP SWAP3 SWAP2 POP POP JUMP JUMPDEST PUSH1 0x0 JUMPDEST DUP4 DUP2 LT ISZERO PUSH2 0xD96 JUMPI DUP1 DUP3 ADD MLOAD DUP2 DUP5 ADD MSTORE PUSH1 0x20 DUP2 ADD SWAP1 POP PUSH2 0xD7B JUMP JUMPDEST DUP4 DUP2 GT ISZERO PUSH2 0xDA5 JUMPI PUSH1 0x0 DUP5 DUP5 ADD MSTORE JUMPDEST POP POP POP POP JUMP JUMPDEST PUSH1 0x0 PUSH1 0x1F NOT PUSH1 0x1F DUP4 ADD AND SWAP1 POP SWAP2 SWAP1 POP JUMP JUMPDEST PUSH1 0x0 PUSH2 0xDC7 DUP3 PUSH2 0xD5C JUMP JUMPDEST PUSH2 0xDD1 DUP2 DUP6 PUSH2 0xD67 JUMP JUMPDEST SWAP4 POP PUSH2 0xDE1 DUP2 DUP6 PUSH1 0x20 DUP7 ADD PUSH2 0xD78 JUMP JUMPDEST PUSH2 0xDEA DUP2 PUSH2 0xDAB JUMP JUMPDEST DUP5 ADD SWAP2 POP POP SWAP3 SWAP2 POP POP JUMP JUMPDEST PUSH1 0x0 DUP2 SWAP1 POP SWAP2 SWAP1 POP JUMP JUMPDEST PUSH2 0xE08 DUP2 PUSH2 0xDF5 JUMP JUMPDEST DUP3 MSTORE POP POP JUMP JUMPDEST PUSH1 0x0 PUSH1 0x60 DUP4 ADD PUSH1 0x0 DUP4 ADD MLOAD DUP5 DUP3 SUB PUSH1 0x0 DUP7 ADD MSTORE PUSH2 0xE2B DUP3 DUP3 PUSH2 0xDBC JUMP JUMPDEST SWAP2 POP POP PUSH1 0x20 DUP4 ADD MLOAD PUSH2 0xE40 PUSH1 0x20 DUP7 ADD DUP3 PUSH2 0xDFF JUMP JUMPDEST POP PUSH1 0x40 DUP4 ADD MLOAD PUSH2 0xE53 PUSH1 0x40 DUP7 ADD DUP3 PUSH2 0xC9E JUMP JUMPDEST POP DUP1 SWAP2 POP POP SWAP3 SWAP2 POP POP JUMP JUMPDEST PUSH1 0x0 PUSH2 0xE6A DUP4 DUP4 PUSH2 0xE0E JUMP JUMPDEST SWAP1 POP SWAP3 SWAP2 POP POP JUMP JUMPDEST PUSH1 0x0 PUSH1 0x20 DUP3 ADD SWAP1 POP SWAP2 SWAP1 POP JUMP JUMPDEST PUSH1 0x0 PUSH2 0xE8A DUP3 PUSH2 0xD30 JUMP JUMPDEST PUSH2 0xE94 DUP2 DUP6 PUSH2 0xD3B JUMP JUMPDEST SWAP4 POP DUP4 PUSH1 0x20 DUP3 MUL DUP6 ADD PUSH2 0xEA6 DUP6 PUSH2 0xD4C JUMP JUMPDEST DUP1 PUSH1 0x0 JUMPDEST DUP6 DUP2 LT ISZERO PUSH2 0xEE2 JUMPI DUP5 DUP5 SUB DUP10 MSTORE DUP2 MLOAD PUSH2 0xEC3 DUP6 DUP3 PUSH2 0xE5E JUMP JUMPDEST SWAP5 POP PUSH2 0xECE DUP4 PUSH2 0xE72 JUMP JUMPDEST SWAP3 POP PUSH1 0x20 DUP11 ADD SWAP10 POP POP PUSH1 0x1 DUP2 ADD SWAP1 POP PUSH2 0xEAA JUMP JUMPDEST POP DUP3 SWAP8 POP DUP8 SWAP6 POP POP POP POP POP POP SWAP3 SWAP2 POP POP JUMP JUMPDEST PUSH1 0x0 PUSH1 0x40 DUP3 ADD SWAP1 POP DUP2 DUP2 SUB PUSH1 0x0 DUP4 ADD MSTORE PUSH2 0xF0E DUP2 DUP6 PUSH2 0xCD2 JUMP JUMPDEST SWAP1 POP DUP2 DUP2 SUB PUSH1 0x20 DUP4 ADD MSTORE PUSH2 0xF22 DUP2 DUP5 PUSH2 0xE7F JUMP JUMPDEST SWAP1 POP SWAP4 SWAP3 POP POP POP JUMP JUMPDEST PUSH2 0xF34 DUP2 PUSH2 0xDF5 JUMP JUMPDEST DUP2 EQ PUSH2 0xF3F JUMPI PUSH1 0x0 DUP1 REVERT JUMPDEST POP JUMP JUMPDEST PUSH1 0x0 DUP2 CALLDATALOAD SWAP1 POP PUSH2 0xF51 DUP2 PUSH2 0xF2B JUMP JUMPDEST SWAP3 SWAP2 POP POP JUMP JUMPDEST PUSH1 0x0 PUSH1 0x20 DUP3 DUP5 SUB SLT ISZERO PUSH2 0xF6D JUMPI PUSH2 0xF6C PUSH2 0xBA7 JUMP JUMPDEST JUMPDEST PUSH1 0x0 PUSH2 0xF7B DUP5 DUP3 DUP6 ADD PUSH2 0xF42 JUMP JUMPDEST SWAP2 POP POP SWAP3 SWAP2 POP POP JUMP JUMPDEST PUSH1 0x0 DUP3 DUP3 MSTORE PUSH1 0x20 DUP3 ADD SWAP1 POP SWAP3 SWAP2 POP POP JUMP JUMPDEST PUSH1 0x0 PUSH2 0xFA0 DUP3 PUSH2 0xD5C JUMP JUMPDEST PUSH2 0xFAA DUP2 DUP6 PUSH2 0xF84 JUMP JUMPDEST SWAP4 POP PUSH2 0xFBA DUP2 DUP6 PUSH1 0x20 DUP7 ADD PUSH2 0xD78 JUMP JUMPDEST PUSH2 0xFC3 DUP2 PUSH2 0xDAB JUMP JUMPDEST DUP5 ADD SWAP2 POP POP SWAP3 SWAP2 POP POP JUMP JUMPDEST PUSH2 0xFD7 DUP2 PUSH2 0xDF5 JUMP JUMPDEST DUP3 MSTORE POP POP JUMP JUMPDEST PUSH2 0xFE6 DUP2 PUSH2 0xBD1 JUMP JUMPDEST DUP3 MSTORE POP POP JUMP JUMPDEST PUSH1 0x0 PUSH1 0x60 DUP3 ADD SWAP1 POP DUP2 DUP2 SUB PUSH1 0x0 DUP4 ADD MSTORE PUSH2 0x1006 DUP2 DUP7 PUSH2 0xF95 JUMP JUMPDEST SWAP1 POP PUSH2 0x1015 PUSH1 0x20 DUP4 ADD DUP6 PUSH2 0xFCE JUMP JUMPDEST PUSH2 0x1022 PUSH1 0x40 DUP4 ADD DUP5 PUSH2 0xFDD JUMP JUMPDEST SWAP5 SWAP4 POP POP POP POP JUMP JUMPDEST PUSH1 0x0 PUSH1 0x20 DUP3 ADD SWAP1 POP PUSH2 0x103F PUSH1 0x0 DUP4 ADD DUP5 PUSH2 0xFDD JUMP JUMPDEST SWAP3 SWAP2 POP POP JUMP JUMPDEST PUSH1 0x0 DUP1 REVERT JUMPDEST PUSH1 0x0 DUP1 REVERT JUMPDEST PUSH32 0x4E487B7100000000000000000000000000000000000000000000000000000000 PUSH1 0x0 MSTORE PUSH1 0x41 PUSH1 0x4 MSTORE PUSH1 0x24 PUSH1 0x0 REVERT JUMPDEST PUSH2 0x1087 DUP3 PUSH2 0xDAB JUMP JUMPDEST DUP2 ADD DUP2 DUP2 LT PUSH8 0xFFFFFFFFFFFFFFFF DUP3 GT OR ISZERO PUSH2 0x10A6 JUMPI PUSH2 0x10A5 PUSH2 0x104F JUMP JUMPDEST JUMPDEST DUP1 PUSH1 0x40 MSTORE POP POP POP JUMP JUMPDEST PUSH1 0x0 PUSH2 0x10B9 PUSH2 0xB9D JUMP JUMPDEST SWAP1 POP PUSH2 0x10C5 DUP3 DUP3 PUSH2 0x107E JUMP JUMPDEST SWAP2 SWAP1 POP JUMP JUMPDEST PUSH1 0x0 PUSH8 0xFFFFFFFFFFFFFFFF DUP3 GT ISZERO PUSH2 0x10E5 JUMPI PUSH2 0x10E4 PUSH2 0x104F JUMP JUMPDEST JUMPDEST PUSH2 0x10EE DUP3 PUSH2 0xDAB JUMP JUMPDEST SWAP1 POP PUSH1 0x20 DUP2 ADD SWAP1 POP SWAP2 SWAP1 POP JUMP JUMPDEST DUP3 DUP2 DUP4 CALLDATACOPY PUSH1 0x0 DUP4 DUP4 ADD MSTORE POP POP POP JUMP JUMPDEST PUSH1 0x0 PUSH2 0x111D PUSH2 0x1118 DUP5 PUSH2 0x10CA JUMP JUMPDEST PUSH2 0x10AF JUMP JUMPDEST SWAP1 POP DUP3 DUP2 MSTORE PUSH1 0x20 DUP2 ADD DUP5 DUP5 DUP5 ADD GT ISZERO PUSH2 0x1139 JUMPI PUSH2 0x1138 PUSH2 0x104A JUMP JUMPDEST JUMPDEST PUSH2 0x1144 DUP5 DUP3 DUP6 PUSH2 0x10FB JUMP JUMPDEST POP SWAP4 SWAP3 POP POP POP JUMP JUMPDEST PUSH1 0x0 DUP3 PUSH1 0x1F DUP4 ADD SLT PUSH2 0x1161 JUMPI PUSH2 0x1160 PUSH2 0x1045 JUMP JUMPDEST JUMPDEST DUP2 CALLDATALOAD PUSH2 0x1171 DUP5 DUP3 PUSH1 0x20 DUP7 ADD PUSH2 0x110A JUMP JUMPDEST SWAP2 POP POP SWAP3 SWAP2 POP POP JUMP JUMPDEST PUSH1 0x0 PUSH1 0x20 DUP3 DUP5 SUB SLT ISZERO PUSH2 0x1190 JUMPI PUSH2 0x118F PUSH2 0xBA7 JUMP JUMPDEST JUMPDEST PUSH1 0x0 DUP3 ADD CALLDATALOAD PUSH8 0xFFFFFFFFFFFFFFFF DUP2 GT ISZERO PUSH2 0x11AE JUMPI PUSH2 0x11AD PUSH2 0xBAC JUMP JUMPDEST JUMPDEST PUSH2 0x11BA DUP5 DUP3 DUP6 ADD PUSH2 0x114C JUMP JUMPDEST SWAP2 POP POP SWAP3 SWAP2 POP POP JUMP JUMPDEST PUSH32 0x4E487B7100000000000000000000000000000000000000000000000000000000 PUSH1 0x0 MSTORE PUSH1 0x22 PUSH1 0x4 MSTORE PUSH1 0x24 PUSH1 0x0 REVERT JUMPDEST PUSH1 0x0 PUSH1 0x2 DUP3 DIV SWAP1 POP PUSH1 0x1 DUP3 AND DUP1 PUSH2 0x120A JUMPI PUSH1 0x7F DUP3 AND SWAP2 POP JUMPDEST PUSH1 0x20 DUP3 LT DUP2 EQ ISZERO PUSH2 0x121E JUMPI PUSH2 0x121D PUSH2 0x11C3 JUMP JUMPDEST JUMPDEST POP SWAP2 SWAP1 POP JUMP JUMPDEST PUSH32 0x4F6E6C7920616E20616363657074656420617574686F722063616E2061707072 PUSH1 0x0 DUP3 ADD MSTORE PUSH32 0x6F76652061207265717565737400000000000000000000000000000000000000 PUSH1 0x20 DUP3 ADD MSTORE POP JUMP JUMPDEST PUSH1 0x0 PUSH2 0x1280 PUSH1 0x2D DUP4 PUSH2 0xF84 JUMP JUMPDEST SWAP2 POP PUSH2 0x128B DUP3 PUSH2 0x1224 JUMP JUMPDEST PUSH1 0x40 DUP3 ADD SWAP1 POP SWAP2 SWAP1 POP JUMP JUMPDEST PUSH1 0x0 PUSH1 0x20 DUP3 ADD SWAP1 POP DUP2 DUP2 SUB PUSH1 0x0 DUP4 ADD MSTORE PUSH2 0x12AF DUP2 PUSH2 0x1273 JUMP JUMPDEST SWAP1 POP SWAP2 SWAP1 POP JUMP JUMPDEST PUSH32 0x4E487B7100000000000000000000000000000000000000000000000000000000 PUSH1 0x0 MSTORE PUSH1 0x32 PUSH1 0x4 MSTORE PUSH1 0x24 PUSH1 0x0 REVERT JUMPDEST PUSH32 0x417574686F72206F6620746865207265717565737420697320616C7265616479 PUSH1 0x0 DUP3 ADD MSTORE PUSH32 0x20696E636C7564656420696E20746865206C697374206F6620617574686F7273 PUSH1 0x20 DUP3 ADD MSTORE POP JUMP JUMPDEST PUSH1 0x0 PUSH2 0x1341 PUSH1 0x40 DUP4 PUSH2 0xF84 JUMP JUMPDEST SWAP2 POP PUSH2 0x134C DUP3 PUSH2 0x12E5 JUMP JUMPDEST PUSH1 0x40 DUP3 ADD SWAP1 POP SWAP2 SWAP1 POP JUMP JUMPDEST PUSH1 0x0 PUSH1 0x20 DUP3 ADD SWAP1 POP DUP2 DUP2 SUB PUSH1 0x0 DUP4 ADD MSTORE PUSH2 0x1370 DUP2 PUSH2 0x1334 JUMP JUMPDEST SWAP1 POP SWAP2 SWAP1 POP JUMP JUMPDEST PUSH32 0x4E487B7100000000000000000000000000000000000000000000000000000000 PUSH1 0x0 MSTORE PUSH1 0x11 PUSH1 0x4 MSTORE PUSH1 0x24 PUSH1 0x0 REVERT JUMPDEST PUSH1 0x0 PUSH2 0x13B1 DUP3 PUSH2 0xDF5 JUMP JUMPDEST SWAP2 POP PUSH2 0x13BC DUP4 PUSH2 0xDF5 JUMP JUMPDEST SWAP3 POP DUP3 DUP3 LT ISZERO PUSH2 0x13CF JUMPI PUSH2 0x13CE PUSH2 0x1377 JUMP JUMPDEST JUMPDEST DUP3 DUP3 SUB SWAP1 POP SWAP3 SWAP2 POP POP JUMP JUMPDEST PUSH32 0x4E487B7100000000000000000000000000000000000000000000000000000000 PUSH1 0x0 MSTORE PUSH1 0x31 PUSH1 0x4 MSTORE PUSH1 0x24 PUSH1 0x0 REVERT JUMPDEST PUSH32 0x417574686F7220616C72656164792065786973747320696E20746865206C6973 PUSH1 0x0 DUP3 ADD MSTORE PUSH32 0x74206F6620617574686F72730000000000000000000000000000000000000000 PUSH1 0x20 DUP3 ADD MSTORE POP JUMP JUMPDEST PUSH1 0x0 PUSH2 0x1465 PUSH1 0x2C DUP4 PUSH2 0xF84 JUMP JUMPDEST SWAP2 POP PUSH2 0x1470 DUP3 PUSH2 0x1409 JUMP JUMPDEST PUSH1 0x40 DUP3 ADD SWAP1 POP SWAP2 SWAP1 POP JUMP JUMPDEST PUSH1 0x0 PUSH1 0x20 DUP3 ADD SWAP1 POP DUP2 DUP2 SUB PUSH1 0x0 DUP4 ADD MSTORE PUSH2 0x1494 DUP2 PUSH2 0x1458 JUMP JUMPDEST SWAP1 POP SWAP2 SWAP1 POP JUMP INVALID LOG2 PUSH5 0x6970667358 0x22 SLT KECCAK256 0xBA 0x5E 0xE 0x2C 0xE1 0xF7 0xCE PUSH18 0xFDE91B2D74101009144B9701327B75F3FB69 0x25 0xE8 PUSH27 0x50D4B864736F6C63430008090033A2646970667358221220BEF2A6 0xE5 MLOAD SAR DUP16 DUP9 PUSH25 0x660CAE03A823E4F8BD53BD1F603E0574B2C3C604F29F876473 PUSH16 0x6C634300080900330000000000000000 "},"gasEstimates":{"creation":{"codeDepositCost":"1356400","executionCost":"1410","totalCost":"1357810"},"external":{"createStory()":"infinite","deployedStories(uint256)":"4934","getDeployedStories()":"infinite"}},"methodIdentifiers":{"createStory()":"cac0f8a4","deployedStories(uint256)":"18351ea7","getDeployedStories()":"2ff2bdd5"}},"storageLayout":{"storage":[{"astId":4,"contract":"Story.sol:StoryFactory","label":"deployedStories","offset":0,"slot":"0","type":"t_array(t_address)dyn_storage"}],"types":{"t_address":{"encoding":"inplace","label":"address","numberOfBytes":"20"},"t_array(t_address)dyn_storage":{"base":"t_address","encoding":"dynamic_array","label":"address[]","numberOfBytes":"32"}}},"userdoc":{"kind":"user","methods":{},"version":1}}