{"abi":[{"anonymous":false,"inputs":[{"indexed":true,"internalType":"address","name":"storyAddress","type":"address"}],"name":"StoryCreated","type":"event"},{"inputs":[{"internalType":"string","name":"usernameAndPassword","type":"string"},{"internalType":"string","name":"pem","type":"string"}],"name":"createStory","outputs":[{"internalType":"address","name":"","type":"address"}],"stateMutability":"nonpayable","type":"function"},{"inputs":[{"internalType":"uint256","name":"","type":"uint256"}],"name":"deployedStories","outputs":[{"internalType":"address","name":"","type":"address"}],"stateMutability":"view","type":"function"},{"inputs":[],"name":"getDeployedStories","outputs":[{"internalType":"address[]","name":"","type":"address[]"}],"stateMutability":"view","type":"function"}],"devdoc":{"kind":"dev","methods":{},"version":1},"evm":{"assembly":"    /* \"Story.sol\":62:631  contract StoryFactory {... */\n  mstore(0x40, 0x80)\n  callvalue\n  dup1\n  iszero\n  tag_1\n  jumpi\n  0x00\n  dup1\n  revert\ntag_1:\n  pop\n  dataSize(sub_0)\n  dup1\n  dataOffset(sub_0)\n  0x00\n  codecopy\n  0x00\n  return\nstop\n\nsub_0: assembly {\n        /* \"Story.sol\":62:631  contract StoryFactory {... */\n      mstore(0x40, 0x80)\n      callvalue\n      dup1\n      iszero\n      tag_1\n      jumpi\n      0x00\n      dup1\n      revert\n    tag_1:\n      pop\n      jumpi(tag_2, lt(calldatasize, 0x04))\n      shr(0xe0, calldataload(0x00))\n      dup1\n      0x18351ea7\n      eq\n      tag_3\n      jumpi\n      dup1\n      0x2ff2bdd5\n      eq\n      tag_4\n      jumpi\n      dup1\n      0x9151d403\n      eq\n      tag_5\n      jumpi\n    tag_2:\n      0x00\n      dup1\n      revert\n        /* \"Story.sol\":91:123  address[] public deployedStories */\n    tag_3:\n      tag_6\n      0x04\n      dup1\n      calldatasize\n      sub\n      dup2\n      add\n      swap1\n      tag_7\n      swap2\n      swap1\n      tag_8\n      jump\t// in\n    tag_7:\n      tag_9\n      jump\t// in\n    tag_6:\n      mload(0x40)\n      tag_10\n      swap2\n      swap1\n      tag_11\n      jump\t// in\n    tag_10:\n      mload(0x40)\n      dup1\n      swap2\n      sub\n      swap1\n      return\n        /* \"Story.sol\":518:628  function getDeployedStories() public view returns (address[] memory) {... */\n    tag_4:\n      tag_12\n      tag_13\n      jump\t// in\n    tag_12:\n      mload(0x40)\n      tag_14\n      swap2\n      swap1\n      tag_15\n      jump\t// in\n    tag_14:\n      mload(0x40)\n      dup1\n      swap2\n      sub\n      swap1\n      return\n        /* \"Story.sol\":195:510  function createStory(string memory usernameAndPassword, string memory pem) public returns (address) {... */\n    tag_5:\n      tag_16\n      0x04\n      dup1\n      calldatasize\n      sub\n      dup2\n      add\n      swap1\n      tag_17\n      swap2\n      swap1\n      tag_18\n      jump\t// in\n    tag_17:\n      tag_19\n      jump\t// in\n    tag_16:\n      mload(0x40)\n      tag_20\n      swap2\n      swap1\n      tag_11\n      jump\t// in\n    tag_20:\n      mload(0x40)\n      dup1\n      swap2\n      sub\n      swap1\n      return\n        /* \"Story.sol\":91:123  address[] public deployedStories */\n    tag_9:\n      0x00\n      dup2\n      dup2\n      sload\n      dup2\n      lt\n      tag_21\n      jumpi\n      0x00\n      dup1\n      revert\n    tag_21:\n      swap1\n      0x00\n      mstore\n      keccak256(0x00, 0x20)\n      add\n      0x00\n      swap2\n      pop\n      sload\n      swap1\n      0x0100\n      exp\n      swap1\n      div\n      0xffffffffffffffffffffffffffffffffffffffff\n      and\n      dup2\n      jump\t// out\n        /* \"Story.sol\":518:628  function getDeployedStories() public view returns (address[] memory) {... */\n    tag_13:\n        /* \"Story.sol\":569:585  address[] memory */\n      0x60\n        /* \"Story.sol\":605:620  deployedStories */\n      0x00\n        /* \"Story.sol\":598:620  return deployedStories */\n      dup1\n      sload\n      dup1\n      0x20\n      mul\n      0x20\n      add\n      mload(0x40)\n      swap1\n      dup2\n      add\n      0x40\n      mstore\n      dup1\n      swap3\n      swap2\n      swap1\n      dup2\n      dup2\n      mstore\n      0x20\n      add\n      dup3\n      dup1\n      sload\n      dup1\n      iszero\n      tag_24\n      jumpi\n      0x20\n      mul\n      dup3\n      add\n      swap2\n      swap1\n      0x00\n      mstore\n      keccak256(0x00, 0x20)\n      swap1\n    tag_25:\n      dup2\n      0x00\n      swap1\n      sload\n      swap1\n      0x0100\n      exp\n      swap1\n      div\n      0xffffffffffffffffffffffffffffffffffffffff\n      and\n      0xffffffffffffffffffffffffffffffffffffffff\n      and\n      dup2\n      mstore\n      0x20\n      add\n      swap1\n      0x01\n      add\n      swap1\n      dup1\n      dup4\n      gt\n      tag_25\n      jumpi\n    tag_24:\n      pop\n      pop\n      pop\n      pop\n      pop\n      swap1\n      pop\n        /* \"Story.sol\":518:628  function getDeployedStories() public view returns (address[] memory) {... */\n      swap1\n      jump\t// out\n        /* \"Story.sol\":195:510  function createStory(string memory usernameAndPassword, string memory pem) public returns (address) {... */\n    tag_19:\n        /* \"Story.sol\":286:293  address */\n      0x00\n        /* \"Story.sol\":306:320  Story newStory */\n      dup1\n        /* \"Story.sol\":333:343  msg.sender */\n      caller\n        /* \"Story.sol\":345:364  usernameAndPassword */\n      dup5\n        /* \"Story.sol\":366:369  pem */\n      dup5\n        /* \"Story.sol\":323:370  new Story(msg.sender, usernameAndPassword, pem) */\n      mload(0x40)\n      tag_27\n      swap1\n      tag_28\n      jump\t// in\n    tag_27:\n      tag_29\n      swap4\n      swap3\n      swap2\n      swap1\n      tag_30\n      jump\t// in\n    tag_29:\n      mload(0x40)\n      dup1\n      swap2\n      sub\n      swap1\n      0x00\n      create\n      dup1\n      iszero\n      dup1\n      iszero\n      tag_31\n      jumpi\n      returndatasize\n      0x00\n      dup1\n      returndatacopy\n      revert(0x00, returndatasize)\n    tag_31:\n      pop\n        /* \"Story.sol\":306:370  Story newStory = new Story(msg.sender, usernameAndPassword, pem) */\n      swap1\n      pop\n        /* \"Story.sol\":381:396  deployedStories */\n      0x00\n        /* \"Story.sol\":410:418  newStory */\n      dup2\n        /* \"Story.sol\":381:420  deployedStories.push(address(newStory)) */\n      swap1\n      dup1\n      0x01\n      dup2\n      sload\n      add\n      dup1\n      dup3\n      sstore\n      dup1\n      swap2\n      pop\n      pop\n      0x01\n      swap1\n      sub\n      swap1\n      0x00\n      mstore\n      keccak256(0x00, 0x20)\n      add\n      0x00\n      swap1\n      swap2\n      swap1\n      swap2\n      swap1\n      swap2\n      0x0100\n      exp\n      dup2\n      sload\n      dup2\n      0xffffffffffffffffffffffffffffffffffffffff\n      mul\n      not\n      and\n      swap1\n      dup4\n      0xffffffffffffffffffffffffffffffffffffffff\n      and\n      mul\n      or\n      swap1\n      sstore\n      pop\n        /* \"Story.sol\":457:465  newStory */\n      dup1\n        /* \"Story.sol\":436:467  StoryCreated(address(newStory)) */\n      0xffffffffffffffffffffffffffffffffffffffff\n      and\n      0x994b548cd2649cd87c03e8af83cab9893684eba91bf07215ad26df0654dc0734\n      mload(0x40)\n      mload(0x40)\n      dup1\n      swap2\n      sub\n      swap1\n      log2\n        /* \"Story.sol\":493:501  newStory */\n      dup1\n        /* \"Story.sol\":478:502  return address(newStory) */\n      swap2\n      pop\n      pop\n        /* \"Story.sol\":195:510  function createStory(string memory usernameAndPassword, string memory pem) public returns (address) {... */\n      swap3\n      swap2\n      pop\n      pop\n      jump\t// out\n    tag_28:\n      dataSize(sub_0)\n      dup1\n      dataOffset(sub_0)\n      dup4\n      codecopy\n      add\n      swap1\n      jump\t// out\n        /* \"#utility.yul\":7:82   */\n    tag_33:\n        /* \"#utility.yul\":40:46   */\n      0x00\n        /* \"#utility.yul\":73:75   */\n      0x40\n        /* \"#utility.yul\":67:76   */\n      mload\n        /* \"#utility.yul\":57:76   */\n      swap1\n      pop\n        /* \"#utility.yul\":7:82   */\n      swap1\n      jump\t// out\n        /* \"#utility.yul\":88:205   */\n    tag_34:\n        /* \"#utility.yul\":197:198   */\n      0x00\n        /* \"#utility.yul\":194:195   */\n      dup1\n        /* \"#utility.yul\":187:199   */\n      revert\n        /* \"#utility.yul\":211:328   */\n    tag_35:\n        /* \"#utility.yul\":320:321   */\n      0x00\n        /* \"#utility.yul\":317:318   */\n      dup1\n        /* \"#utility.yul\":310:322   */\n      revert\n        /* \"#utility.yul\":334:411   */\n    tag_36:\n        /* \"#utility.yul\":371:378   */\n      0x00\n        /* \"#utility.yul\":400:405   */\n      dup2\n        /* \"#utility.yul\":389:405   */\n      swap1\n      pop\n        /* \"#utility.yul\":334:411   */\n      swap2\n      swap1\n      pop\n      jump\t// out\n        /* \"#utility.yul\":417:539   */\n    tag_37:\n        /* \"#utility.yul\":490:514   */\n      tag_69\n        /* \"#utility.yul\":508:513   */\n      dup2\n        /* \"#utility.yul\":490:514   */\n      tag_36\n      jump\t// in\n    tag_69:\n        /* \"#utility.yul\":483:488   */\n      dup2\n        /* \"#utility.yul\":480:515   */\n      eq\n        /* \"#utility.yul\":470:533   */\n      tag_70\n      jumpi\n        /* \"#utility.yul\":529:530   */\n      0x00\n        /* \"#utility.yul\":526:527   */\n      dup1\n        /* \"#utility.yul\":519:531   */\n      revert\n        /* \"#utility.yul\":470:533   */\n    tag_70:\n        /* \"#utility.yul\":417:539   */\n      pop\n      jump\t// out\n        /* \"#utility.yul\":545:684   */\n    tag_38:\n        /* \"#utility.yul\":591:596   */\n      0x00\n        /* \"#utility.yul\":629:635   */\n      dup2\n        /* \"#utility.yul\":616:636   */\n      calldataload\n        /* \"#utility.yul\":607:636   */\n      swap1\n      pop\n        /* \"#utility.yul\":645:678   */\n      tag_72\n        /* \"#utility.yul\":672:677   */\n      dup2\n        /* \"#utility.yul\":645:678   */\n      tag_37\n      jump\t// in\n    tag_72:\n        /* \"#utility.yul\":545:684   */\n      swap3\n      swap2\n      pop\n      pop\n      jump\t// out\n        /* \"#utility.yul\":690:1019   */\n    tag_8:\n        /* \"#utility.yul\":749:755   */\n      0x00\n        /* \"#utility.yul\":798:800   */\n      0x20\n        /* \"#utility.yul\":786:795   */\n      dup3\n        /* \"#utility.yul\":777:784   */\n      dup5\n        /* \"#utility.yul\":773:796   */\n      sub\n        /* \"#utility.yul\":769:801   */\n      slt\n        /* \"#utility.yul\":766:885   */\n      iszero\n      tag_74\n      jumpi\n        /* \"#utility.yul\":804:883   */\n      tag_75\n      tag_34\n      jump\t// in\n    tag_75:\n        /* \"#utility.yul\":766:885   */\n    tag_74:\n        /* \"#utility.yul\":924:925   */\n      0x00\n        /* \"#utility.yul\":949:1002   */\n      tag_76\n        /* \"#utility.yul\":994:1001   */\n      dup5\n        /* \"#utility.yul\":985:991   */\n      dup3\n        /* \"#utility.yul\":974:983   */\n      dup6\n        /* \"#utility.yul\":970:992   */\n      add\n        /* \"#utility.yul\":949:1002   */\n      tag_38\n      jump\t// in\n    tag_76:\n        /* \"#utility.yul\":939:1002   */\n      swap2\n      pop\n        /* \"#utility.yul\":895:1012   */\n      pop\n        /* \"#utility.yul\":690:1019   */\n      swap3\n      swap2\n      pop\n      pop\n      jump\t// out\n        /* \"#utility.yul\":1025:1151   */\n    tag_39:\n        /* \"#utility.yul\":1062:1069   */\n      0x00\n        /* \"#utility.yul\":1102:1144   */\n      0xffffffffffffffffffffffffffffffffffffffff\n        /* \"#utility.yul\":1095:1100   */\n      dup3\n        /* \"#utility.yul\":1091:1145   */\n      and\n        /* \"#utility.yul\":1080:1145   */\n      swap1\n      pop\n        /* \"#utility.yul\":1025:1151   */\n      swap2\n      swap1\n      pop\n      jump\t// out\n        /* \"#utility.yul\":1157:1253   */\n    tag_40:\n        /* \"#utility.yul\":1194:1201   */\n      0x00\n        /* \"#utility.yul\":1223:1247   */\n      tag_79\n        /* \"#utility.yul\":1241:1246   */\n      dup3\n        /* \"#utility.yul\":1223:1247   */\n      tag_39\n      jump\t// in\n    tag_79:\n        /* \"#utility.yul\":1212:1247   */\n      swap1\n      pop\n        /* \"#utility.yul\":1157:1253   */\n      swap2\n      swap1\n      pop\n      jump\t// out\n        /* \"#utility.yul\":1259:1377   */\n    tag_41:\n        /* \"#utility.yul\":1346:1370   */\n      tag_81\n        /* \"#utility.yul\":1364:1369   */\n      dup2\n        /* \"#utility.yul\":1346:1370   */\n      tag_40\n      jump\t// in\n    tag_81:\n        /* \"#utility.yul\":1341:1344   */\n      dup3\n        /* \"#utility.yul\":1334:1371   */\n      mstore\n        /* \"#utility.yul\":1259:1377   */\n      pop\n      pop\n      jump\t// out\n        /* \"#utility.yul\":1383:1605   */\n    tag_11:\n        /* \"#utility.yul\":1476:1480   */\n      0x00\n        /* \"#utility.yul\":1514:1516   */\n      0x20\n        /* \"#utility.yul\":1503:1512   */\n      dup3\n        /* \"#utility.yul\":1499:1517   */\n      add\n        /* \"#utility.yul\":1491:1517   */\n      swap1\n      pop\n        /* \"#utility.yul\":1527:1598   */\n      tag_83\n        /* \"#utility.yul\":1595:1596   */\n      0x00\n        /* \"#utility.yul\":1584:1593   */\n      dup4\n        /* \"#utility.yul\":1580:1597   */\n      add\n        /* \"#utility.yul\":1571:1577   */\n      dup5\n        /* \"#utility.yul\":1527:1598   */\n      tag_41\n      jump\t// in\n    tag_83:\n        /* \"#utility.yul\":1383:1605   */\n      swap3\n      swap2\n      pop\n      pop\n      jump\t// out\n        /* \"#utility.yul\":1611:1725   */\n    tag_42:\n        /* \"#utility.yul\":1678:1684   */\n      0x00\n        /* \"#utility.yul\":1712:1717   */\n      dup2\n        /* \"#utility.yul\":1706:1718   */\n      mload\n        /* \"#utility.yul\":1696:1718   */\n      swap1\n      pop\n        /* \"#utility.yul\":1611:1725   */\n      swap2\n      swap1\n      pop\n      jump\t// out\n        /* \"#utility.yul\":1731:1915   */\n    tag_43:\n        /* \"#utility.yul\":1830:1841   */\n      0x00\n        /* \"#utility.yul\":1864:1870   */\n      dup3\n        /* \"#utility.yul\":1859:1862   */\n      dup3\n        /* \"#utility.yul\":1852:1871   */\n      mstore\n        /* \"#utility.yul\":1904:1908   */\n      0x20\n        /* \"#utility.yul\":1899:1902   */\n      dup3\n        /* \"#utility.yul\":1895:1909   */\n      add\n        /* \"#utility.yul\":1880:1909   */\n      swap1\n      pop\n        /* \"#utility.yul\":1731:1915   */\n      swap3\n      swap2\n      pop\n      pop\n      jump\t// out\n        /* \"#utility.yul\":1921:2053   */\n    tag_44:\n        /* \"#utility.yul\":1988:1992   */\n      0x00\n        /* \"#utility.yul\":2011:2014   */\n      dup2\n        /* \"#utility.yul\":2003:2014   */\n      swap1\n      pop\n        /* \"#utility.yul\":2041:2045   */\n      0x20\n        /* \"#utility.yul\":2036:2039   */\n      dup3\n        /* \"#utility.yul\":2032:2046   */\n      add\n        /* \"#utility.yul\":2024:2046   */\n      swap1\n      pop\n        /* \"#utility.yul\":1921:2053   */\n      swap2\n      swap1\n      pop\n      jump\t// out\n        /* \"#utility.yul\":2059:2167   */\n    tag_45:\n        /* \"#utility.yul\":2136:2160   */\n      tag_88\n        /* \"#utility.yul\":2154:2159   */\n      dup2\n        /* \"#utility.yul\":2136:2160   */\n      tag_40\n      jump\t// in\n    tag_88:\n        /* \"#utility.yul\":2131:2134   */\n      dup3\n        /* \"#utility.yul\":2124:2161   */\n      mstore\n        /* \"#utility.yul\":2059:2167   */\n      pop\n      pop\n      jump\t// out\n        /* \"#utility.yul\":2173:2352   */\n    tag_46:\n        /* \"#utility.yul\":2242:2252   */\n      0x00\n        /* \"#utility.yul\":2263:2309   */\n      tag_90\n        /* \"#utility.yul\":2305:2308   */\n      dup4\n        /* \"#utility.yul\":2297:2303   */\n      dup4\n        /* \"#utility.yul\":2263:2309   */\n      tag_45\n      jump\t// in\n    tag_90:\n        /* \"#utility.yul\":2341:2345   */\n      0x20\n        /* \"#utility.yul\":2336:2339   */\n      dup4\n        /* \"#utility.yul\":2332:2346   */\n      add\n        /* \"#utility.yul\":2318:2346   */\n      swap1\n      pop\n        /* \"#utility.yul\":2173:2352   */\n      swap3\n      swap2\n      pop\n      pop\n      jump\t// out\n        /* \"#utility.yul\":2358:2471   */\n    tag_47:\n        /* \"#utility.yul\":2428:2432   */\n      0x00\n        /* \"#utility.yul\":2460:2464   */\n      0x20\n        /* \"#utility.yul\":2455:2458   */\n      dup3\n        /* \"#utility.yul\":2451:2465   */\n      add\n        /* \"#utility.yul\":2443:2465   */\n      swap1\n      pop\n        /* \"#utility.yul\":2358:2471   */\n      swap2\n      swap1\n      pop\n      jump\t// out\n        /* \"#utility.yul\":2507:3239   */\n    tag_48:\n        /* \"#utility.yul\":2626:2629   */\n      0x00\n        /* \"#utility.yul\":2655:2709   */\n      tag_93\n        /* \"#utility.yul\":2703:2708   */\n      dup3\n        /* \"#utility.yul\":2655:2709   */\n      tag_42\n      jump\t// in\n    tag_93:\n        /* \"#utility.yul\":2725:2811   */\n      tag_94\n        /* \"#utility.yul\":2804:2810   */\n      dup2\n        /* \"#utility.yul\":2799:2802   */\n      dup6\n        /* \"#utility.yul\":2725:2811   */\n      tag_43\n      jump\t// in\n    tag_94:\n        /* \"#utility.yul\":2718:2811   */\n      swap4\n      pop\n        /* \"#utility.yul\":2835:2891   */\n      tag_95\n        /* \"#utility.yul\":2885:2890   */\n      dup4\n        /* \"#utility.yul\":2835:2891   */\n      tag_44\n      jump\t// in\n    tag_95:\n        /* \"#utility.yul\":2914:2921   */\n      dup1\n        /* \"#utility.yul\":2945:2946   */\n      0x00\n        /* \"#utility.yul\":2930:3214   */\n    tag_96:\n        /* \"#utility.yul\":2955:2961   */\n      dup4\n        /* \"#utility.yul\":2952:2953   */\n      dup2\n        /* \"#utility.yul\":2949:2962   */\n      lt\n        /* \"#utility.yul\":2930:3214   */\n      iszero\n      tag_98\n      jumpi\n        /* \"#utility.yul\":3031:3037   */\n      dup2\n        /* \"#utility.yul\":3025:3038   */\n      mload\n        /* \"#utility.yul\":3058:3121   */\n      tag_99\n        /* \"#utility.yul\":3117:3120   */\n      dup9\n        /* \"#utility.yul\":3102:3115   */\n      dup3\n        /* \"#utility.yul\":3058:3121   */\n      tag_46\n      jump\t// in\n    tag_99:\n        /* \"#utility.yul\":3051:3121   */\n      swap8\n      pop\n        /* \"#utility.yul\":3144:3204   */\n      tag_100\n        /* \"#utility.yul\":3197:3203   */\n      dup4\n        /* \"#utility.yul\":3144:3204   */\n      tag_47\n      jump\t// in\n    tag_100:\n        /* \"#utility.yul\":3134:3204   */\n      swap3\n      pop\n        /* \"#utility.yul\":2990:3214   */\n      pop\n        /* \"#utility.yul\":2977:2978   */\n      0x01\n        /* \"#utility.yul\":2974:2975   */\n      dup2\n        /* \"#utility.yul\":2970:2979   */\n      add\n        /* \"#utility.yul\":2965:2979   */\n      swap1\n      pop\n        /* \"#utility.yul\":2930:3214   */\n      jump(tag_96)\n    tag_98:\n        /* \"#utility.yul\":2934:2948   */\n      pop\n        /* \"#utility.yul\":3230:3233   */\n      dup6\n        /* \"#utility.yul\":3223:3233   */\n      swap4\n      pop\n        /* \"#utility.yul\":2631:3239   */\n      pop\n      pop\n      pop\n        /* \"#utility.yul\":2507:3239   */\n      swap3\n      swap2\n      pop\n      pop\n      jump\t// out\n        /* \"#utility.yul\":3245:3618   */\n    tag_15:\n        /* \"#utility.yul\":3388:3392   */\n      0x00\n        /* \"#utility.yul\":3426:3428   */\n      0x20\n        /* \"#utility.yul\":3415:3424   */\n      dup3\n        /* \"#utility.yul\":3411:3429   */\n      add\n        /* \"#utility.yul\":3403:3429   */\n      swap1\n      pop\n        /* \"#utility.yul\":3475:3484   */\n      dup2\n        /* \"#utility.yul\":3469:3473   */\n      dup2\n        /* \"#utility.yul\":3465:3485   */\n      sub\n        /* \"#utility.yul\":3461:3462   */\n      0x00\n        /* \"#utility.yul\":3450:3459   */\n      dup4\n        /* \"#utility.yul\":3446:3463   */\n      add\n        /* \"#utility.yul\":3439:3486   */\n      mstore\n        /* \"#utility.yul\":3503:3611   */\n      tag_102\n        /* \"#utility.yul\":3606:3610   */\n      dup2\n        /* \"#utility.yul\":3597:3603   */\n      dup5\n        /* \"#utility.yul\":3503:3611   */\n      tag_48\n      jump\t// in\n    tag_102:\n        /* \"#utility.yul\":3495:3611   */\n      swap1\n      pop\n        /* \"#utility.yul\":3245:3618   */\n      swap3\n      swap2\n      pop\n      pop\n      jump\t// out\n        /* \"#utility.yul\":3624:3741   */\n    tag_49:\n        /* \"#utility.yul\":3733:3734   */\n      0x00\n        /* \"#utility.yul\":3730:3731   */\n      dup1\n        /* \"#utility.yul\":3723:3735   */\n      revert\n        /* \"#utility.yul\":3747:3864   */\n    tag_50:\n        /* \"#utility.yul\":3856:3857   */\n      0x00\n        /* \"#utility.yul\":3853:3854   */\n      dup1\n        /* \"#utility.yul\":3846:3858   */\n      revert\n        /* \"#utility.yul\":3870:3972   */\n    tag_51:\n        /* \"#utility.yul\":3911:3917   */\n      0x00\n        /* \"#utility.yul\":3962:3964   */\n      0x1f\n        /* \"#utility.yul\":3958:3965   */\n      not\n        /* \"#utility.yul\":3953:3955   */\n      0x1f\n        /* \"#utility.yul\":3946:3951   */\n      dup4\n        /* \"#utility.yul\":3942:3956   */\n      add\n        /* \"#utility.yul\":3938:3966   */\n      and\n        /* \"#utility.yul\":3928:3966   */\n      swap1\n      pop\n        /* \"#utility.yul\":3870:3972   */\n      swap2\n      swap1\n      pop\n      jump\t// out\n        /* \"#utility.yul\":3978:4158   */\n    tag_52:\n        /* \"#utility.yul\":4026:4103   */\n      0x4e487b7100000000000000000000000000000000000000000000000000000000\n        /* \"#utility.yul\":4023:4024   */\n      0x00\n        /* \"#utility.yul\":4016:4104   */\n      mstore\n        /* \"#utility.yul\":4123:4127   */\n      0x41\n        /* \"#utility.yul\":4120:4121   */\n      0x04\n        /* \"#utility.yul\":4113:4128   */\n      mstore\n        /* \"#utility.yul\":4147:4151   */\n      0x24\n        /* \"#utility.yul\":4144:4145   */\n      0x00\n        /* \"#utility.yul\":4137:4152   */\n      revert\n        /* \"#utility.yul\":4164:4445   */\n    tag_53:\n        /* \"#utility.yul\":4247:4274   */\n      tag_108\n        /* \"#utility.yul\":4269:4273   */\n      dup3\n        /* \"#utility.yul\":4247:4274   */\n      tag_51\n      jump\t// in\n    tag_108:\n        /* \"#utility.yul\":4239:4245   */\n      dup2\n        /* \"#utility.yul\":4235:4275   */\n      add\n        /* \"#utility.yul\":4377:4383   */\n      dup2\n        /* \"#utility.yul\":4365:4375   */\n      dup2\n        /* \"#utility.yul\":4362:4384   */\n      lt\n        /* \"#utility.yul\":4341:4359   */\n      0xffffffffffffffff\n        /* \"#utility.yul\":4329:4339   */\n      dup3\n        /* \"#utility.yul\":4326:4360   */\n      gt\n        /* \"#utility.yul\":4323:4385   */\n      or\n        /* \"#utility.yul\":4320:4408   */\n      iszero\n      tag_109\n      jumpi\n        /* \"#utility.yul\":4388:4406   */\n      tag_110\n      tag_52\n      jump\t// in\n    tag_110:\n        /* \"#utility.yul\":4320:4408   */\n    tag_109:\n        /* \"#utility.yul\":4428:4438   */\n      dup1\n        /* \"#utility.yul\":4424:4426   */\n      0x40\n        /* \"#utility.yul\":4417:4439   */\n      mstore\n        /* \"#utility.yul\":4207:4445   */\n      pop\n        /* \"#utility.yul\":4164:4445   */\n      pop\n      pop\n      jump\t// out\n        /* \"#utility.yul\":4451:4580   */\n    tag_54:\n        /* \"#utility.yul\":4485:4491   */\n      0x00\n        /* \"#utility.yul\":4512:4532   */\n      tag_112\n      tag_33\n      jump\t// in\n    tag_112:\n        /* \"#utility.yul\":4502:4532   */\n      swap1\n      pop\n        /* \"#utility.yul\":4541:4574   */\n      tag_113\n        /* \"#utility.yul\":4569:4573   */\n      dup3\n        /* \"#utility.yul\":4561:4567   */\n      dup3\n        /* \"#utility.yul\":4541:4574   */\n      tag_53\n      jump\t// in\n    tag_113:\n        /* \"#utility.yul\":4451:4580   */\n      swap2\n      swap1\n      pop\n      jump\t// out\n        /* \"#utility.yul\":4586:4894   */\n    tag_55:\n        /* \"#utility.yul\":4648:4652   */\n      0x00\n        /* \"#utility.yul\":4738:4756   */\n      0xffffffffffffffff\n        /* \"#utility.yul\":4730:4736   */\n      dup3\n        /* \"#utility.yul\":4727:4757   */\n      gt\n        /* \"#utility.yul\":4724:4780   */\n      iszero\n      tag_115\n      jumpi\n        /* \"#utility.yul\":4760:4778   */\n      tag_116\n      tag_52\n      jump\t// in\n    tag_116:\n        /* \"#utility.yul\":4724:4780   */\n    tag_115:\n        /* \"#utility.yul\":4798:4827   */\n      tag_117\n        /* \"#utility.yul\":4820:4826   */\n      dup3\n        /* \"#utility.yul\":4798:4827   */\n      tag_51\n      jump\t// in\n    tag_117:\n        /* \"#utility.yul\":4790:4827   */\n      swap1\n      pop\n        /* \"#utility.yul\":4882:4886   */\n      0x20\n        /* \"#utility.yul\":4876:4880   */\n      dup2\n        /* \"#utility.yul\":4872:4887   */\n      add\n        /* \"#utility.yul\":4864:4887   */\n      swap1\n      pop\n        /* \"#utility.yul\":4586:4894   */\n      swap2\n      swap1\n      pop\n      jump\t// out\n        /* \"#utility.yul\":4900:5054   */\n    tag_56:\n        /* \"#utility.yul\":4984:4990   */\n      dup3\n        /* \"#utility.yul\":4979:4982   */\n      dup2\n        /* \"#utility.yul\":4974:4977   */\n      dup4\n        /* \"#utility.yul\":4961:4991   */\n      calldatacopy\n        /* \"#utility.yul\":5046:5047   */\n      0x00\n        /* \"#utility.yul\":5037:5043   */\n      dup4\n        /* \"#utility.yul\":5032:5035   */\n      dup4\n        /* \"#utility.yul\":5028:5044   */\n      add\n        /* \"#utility.yul\":5021:5048   */\n      mstore\n        /* \"#utility.yul\":4900:5054   */\n      pop\n      pop\n      pop\n      jump\t// out\n        /* \"#utility.yul\":5060:5472   */\n    tag_57:\n        /* \"#utility.yul\":5138:5143   */\n      0x00\n        /* \"#utility.yul\":5163:5229   */\n      tag_120\n        /* \"#utility.yul\":5179:5228   */\n      tag_121\n        /* \"#utility.yul\":5221:5227   */\n      dup5\n        /* \"#utility.yul\":5179:5228   */\n      tag_55\n      jump\t// in\n    tag_121:\n        /* \"#utility.yul\":5163:5229   */\n      tag_54\n      jump\t// in\n    tag_120:\n        /* \"#utility.yul\":5154:5229   */\n      swap1\n      pop\n        /* \"#utility.yul\":5252:5258   */\n      dup3\n        /* \"#utility.yul\":5245:5250   */\n      dup2\n        /* \"#utility.yul\":5238:5259   */\n      mstore\n        /* \"#utility.yul\":5290:5294   */\n      0x20\n        /* \"#utility.yul\":5283:5288   */\n      dup2\n        /* \"#utility.yul\":5279:5295   */\n      add\n        /* \"#utility.yul\":5328:5331   */\n      dup5\n        /* \"#utility.yul\":5319:5325   */\n      dup5\n        /* \"#utility.yul\":5314:5317   */\n      dup5\n        /* \"#utility.yul\":5310:5326   */\n      add\n        /* \"#utility.yul\":5307:5332   */\n      gt\n        /* \"#utility.yul\":5304:5416   */\n      iszero\n      tag_122\n      jumpi\n        /* \"#utility.yul\":5335:5414   */\n      tag_123\n      tag_50\n      jump\t// in\n    tag_123:\n        /* \"#utility.yul\":5304:5416   */\n    tag_122:\n        /* \"#utility.yul\":5425:5466   */\n      tag_124\n        /* \"#utility.yul\":5459:5465   */\n      dup5\n        /* \"#utility.yul\":5454:5457   */\n      dup3\n        /* \"#utility.yul\":5449:5452   */\n      dup6\n        /* \"#utility.yul\":5425:5466   */\n      tag_56\n      jump\t// in\n    tag_124:\n        /* \"#utility.yul\":5144:5472   */\n      pop\n        /* \"#utility.yul\":5060:5472   */\n      swap4\n      swap3\n      pop\n      pop\n      pop\n      jump\t// out\n        /* \"#utility.yul\":5492:5832   */\n    tag_58:\n        /* \"#utility.yul\":5548:5553   */\n      0x00\n        /* \"#utility.yul\":5597:5600   */\n      dup3\n        /* \"#utility.yul\":5590:5594   */\n      0x1f\n        /* \"#utility.yul\":5582:5588   */\n      dup4\n        /* \"#utility.yul\":5578:5595   */\n      add\n        /* \"#utility.yul\":5574:5601   */\n      slt\n        /* \"#utility.yul\":5564:5686   */\n      tag_126\n      jumpi\n        /* \"#utility.yul\":5605:5684   */\n      tag_127\n      tag_49\n      jump\t// in\n    tag_127:\n        /* \"#utility.yul\":5564:5686   */\n    tag_126:\n        /* \"#utility.yul\":5722:5728   */\n      dup2\n        /* \"#utility.yul\":5709:5729   */\n      calldataload\n        /* \"#utility.yul\":5747:5826   */\n      tag_128\n        /* \"#utility.yul\":5822:5825   */\n      dup5\n        /* \"#utility.yul\":5814:5820   */\n      dup3\n        /* \"#utility.yul\":5807:5811   */\n      0x20\n        /* \"#utility.yul\":5799:5805   */\n      dup7\n        /* \"#utility.yul\":5795:5812   */\n      add\n        /* \"#utility.yul\":5747:5826   */\n      tag_57\n      jump\t// in\n    tag_128:\n        /* \"#utility.yul\":5738:5826   */\n      swap2\n      pop\n        /* \"#utility.yul\":5554:5832   */\n      pop\n        /* \"#utility.yul\":5492:5832   */\n      swap3\n      swap2\n      pop\n      pop\n      jump\t// out\n        /* \"#utility.yul\":5838:6672   */\n    tag_18:\n        /* \"#utility.yul\":5926:5932   */\n      0x00\n        /* \"#utility.yul\":5934:5940   */\n      dup1\n        /* \"#utility.yul\":5983:5985   */\n      0x40\n        /* \"#utility.yul\":5971:5980   */\n      dup4\n        /* \"#utility.yul\":5962:5969   */\n      dup6\n        /* \"#utility.yul\":5958:5981   */\n      sub\n        /* \"#utility.yul\":5954:5986   */\n      slt\n        /* \"#utility.yul\":5951:6070   */\n      iszero\n      tag_130\n      jumpi\n        /* \"#utility.yul\":5989:6068   */\n      tag_131\n      tag_34\n      jump\t// in\n    tag_131:\n        /* \"#utility.yul\":5951:6070   */\n    tag_130:\n        /* \"#utility.yul\":6137:6138   */\n      0x00\n        /* \"#utility.yul\":6126:6135   */\n      dup4\n        /* \"#utility.yul\":6122:6139   */\n      add\n        /* \"#utility.yul\":6109:6140   */\n      calldataload\n        /* \"#utility.yul\":6167:6185   */\n      0xffffffffffffffff\n        /* \"#utility.yul\":6159:6165   */\n      dup2\n        /* \"#utility.yul\":6156:6186   */\n      gt\n        /* \"#utility.yul\":6153:6270   */\n      iszero\n      tag_132\n      jumpi\n        /* \"#utility.yul\":6189:6268   */\n      tag_133\n      tag_35\n      jump\t// in\n    tag_133:\n        /* \"#utility.yul\":6153:6270   */\n    tag_132:\n        /* \"#utility.yul\":6294:6357   */\n      tag_134\n        /* \"#utility.yul\":6349:6356   */\n      dup6\n        /* \"#utility.yul\":6340:6346   */\n      dup3\n        /* \"#utility.yul\":6329:6338   */\n      dup7\n        /* \"#utility.yul\":6325:6347   */\n      add\n        /* \"#utility.yul\":6294:6357   */\n      tag_58\n      jump\t// in\n    tag_134:\n        /* \"#utility.yul\":6284:6357   */\n      swap3\n      pop\n        /* \"#utility.yul\":6080:6367   */\n      pop\n        /* \"#utility.yul\":6434:6436   */\n      0x20\n        /* \"#utility.yul\":6423:6432   */\n      dup4\n        /* \"#utility.yul\":6419:6437   */\n      add\n        /* \"#utility.yul\":6406:6438   */\n      calldataload\n        /* \"#utility.yul\":6465:6483   */\n      0xffffffffffffffff\n        /* \"#utility.yul\":6457:6463   */\n      dup2\n        /* \"#utility.yul\":6454:6484   */\n      gt\n        /* \"#utility.yul\":6451:6568   */\n      iszero\n      tag_135\n      jumpi\n        /* \"#utility.yul\":6487:6566   */\n      tag_136\n      tag_35\n      jump\t// in\n    tag_136:\n        /* \"#utility.yul\":6451:6568   */\n    tag_135:\n        /* \"#utility.yul\":6592:6655   */\n      tag_137\n        /* \"#utility.yul\":6647:6654   */\n      dup6\n        /* \"#utility.yul\":6638:6644   */\n      dup3\n        /* \"#utility.yul\":6627:6636   */\n      dup7\n        /* \"#utility.yul\":6623:6645   */\n      add\n        /* \"#utility.yul\":6592:6655   */\n      tag_58\n      jump\t// in\n    tag_137:\n        /* \"#utility.yul\":6582:6655   */\n      swap2\n      pop\n        /* \"#utility.yul\":6377:6665   */\n      pop\n        /* \"#utility.yul\":5838:6672   */\n      swap3\n      pop\n      swap3\n      swap1\n      pop\n      jump\t// out\n        /* \"#utility.yul\":6678:6777   */\n    tag_59:\n        /* \"#utility.yul\":6730:6736   */\n      0x00\n        /* \"#utility.yul\":6764:6769   */\n      dup2\n        /* \"#utility.yul\":6758:6770   */\n      mload\n        /* \"#utility.yul\":6748:6770   */\n      swap1\n      pop\n        /* \"#utility.yul\":6678:6777   */\n      swap2\n      swap1\n      pop\n      jump\t// out\n        /* \"#utility.yul\":6783:6952   */\n    tag_60:\n        /* \"#utility.yul\":6867:6878   */\n      0x00\n        /* \"#utility.yul\":6901:6907   */\n      dup3\n        /* \"#utility.yul\":6896:6899   */\n      dup3\n        /* \"#utility.yul\":6889:6908   */\n      mstore\n        /* \"#utility.yul\":6941:6945   */\n      0x20\n        /* \"#utility.yul\":6936:6939   */\n      dup3\n        /* \"#utility.yul\":6932:6946   */\n      add\n        /* \"#utility.yul\":6917:6946   */\n      swap1\n      pop\n        /* \"#utility.yul\":6783:6952   */\n      swap3\n      swap2\n      pop\n      pop\n      jump\t// out\n        /* \"#utility.yul\":6958:7265   */\n    tag_61:\n        /* \"#utility.yul\":7026:7027   */\n      0x00\n        /* \"#utility.yul\":7036:7149   */\n    tag_141:\n        /* \"#utility.yul\":7050:7056   */\n      dup4\n        /* \"#utility.yul\":7047:7048   */\n      dup2\n        /* \"#utility.yul\":7044:7057   */\n      lt\n        /* \"#utility.yul\":7036:7149   */\n      iszero\n      tag_143\n      jumpi\n        /* \"#utility.yul\":7135:7136   */\n      dup1\n        /* \"#utility.yul\":7130:7133   */\n      dup3\n        /* \"#utility.yul\":7126:7137   */\n      add\n        /* \"#utility.yul\":7120:7138   */\n      mload\n        /* \"#utility.yul\":7116:7117   */\n      dup2\n        /* \"#utility.yul\":7111:7114   */\n      dup5\n        /* \"#utility.yul\":7107:7118   */\n      add\n        /* \"#utility.yul\":7100:7139   */\n      mstore\n        /* \"#utility.yul\":7072:7074   */\n      0x20\n        /* \"#utility.yul\":7069:7070   */\n      dup2\n        /* \"#utility.yul\":7065:7075   */\n      add\n        /* \"#utility.yul\":7060:7075   */\n      swap1\n      pop\n        /* \"#utility.yul\":7036:7149   */\n      jump(tag_141)\n    tag_143:\n        /* \"#utility.yul\":7167:7173   */\n      dup4\n        /* \"#utility.yul\":7164:7165   */\n      dup2\n        /* \"#utility.yul\":7161:7174   */\n      gt\n        /* \"#utility.yul\":7158:7259   */\n      iszero\n      tag_144\n      jumpi\n        /* \"#utility.yul\":7247:7248   */\n      0x00\n        /* \"#utility.yul\":7238:7244   */\n      dup5\n        /* \"#utility.yul\":7233:7236   */\n      dup5\n        /* \"#utility.yul\":7229:7245   */\n      add\n        /* \"#utility.yul\":7222:7249   */\n      mstore\n        /* \"#utility.yul\":7158:7259   */\n    tag_144:\n        /* \"#utility.yul\":7007:7265   */\n      pop\n        /* \"#utility.yul\":6958:7265   */\n      pop\n      pop\n      pop\n      jump\t// out\n        /* \"#utility.yul\":7271:7635   */\n    tag_62:\n        /* \"#utility.yul\":7359:7362   */\n      0x00\n        /* \"#utility.yul\":7387:7426   */\n      tag_146\n        /* \"#utility.yul\":7420:7425   */\n      dup3\n        /* \"#utility.yul\":7387:7426   */\n      tag_59\n      jump\t// in\n    tag_146:\n        /* \"#utility.yul\":7442:7513   */\n      tag_147\n        /* \"#utility.yul\":7506:7512   */\n      dup2\n        /* \"#utility.yul\":7501:7504   */\n      dup6\n        /* \"#utility.yul\":7442:7513   */\n      tag_60\n      jump\t// in\n    tag_147:\n        /* \"#utility.yul\":7435:7513   */\n      swap4\n      pop\n        /* \"#utility.yul\":7522:7574   */\n      tag_148\n        /* \"#utility.yul\":7567:7573   */\n      dup2\n        /* \"#utility.yul\":7562:7565   */\n      dup6\n        /* \"#utility.yul\":7555:7559   */\n      0x20\n        /* \"#utility.yul\":7548:7553   */\n      dup7\n        /* \"#utility.yul\":7544:7560   */\n      add\n        /* \"#utility.yul\":7522:7574   */\n      tag_61\n      jump\t// in\n    tag_148:\n        /* \"#utility.yul\":7599:7628   */\n      tag_149\n        /* \"#utility.yul\":7621:7627   */\n      dup2\n        /* \"#utility.yul\":7599:7628   */\n      tag_51\n      jump\t// in\n    tag_149:\n        /* \"#utility.yul\":7594:7597   */\n      dup5\n        /* \"#utility.yul\":7590:7629   */\n      add\n        /* \"#utility.yul\":7583:7629   */\n      swap2\n      pop\n        /* \"#utility.yul\":7363:7635   */\n      pop\n        /* \"#utility.yul\":7271:7635   */\n      swap3\n      swap2\n      pop\n      pop\n      jump\t// out\n        /* \"#utility.yul\":7641:8265   */\n    tag_30:\n        /* \"#utility.yul\":7830:7834   */\n      0x00\n        /* \"#utility.yul\":7868:7870   */\n      0x60\n        /* \"#utility.yul\":7857:7866   */\n      dup3\n        /* \"#utility.yul\":7853:7871   */\n      add\n        /* \"#utility.yul\":7845:7871   */\n      swap1\n      pop\n        /* \"#utility.yul\":7881:7952   */\n      tag_151\n        /* \"#utility.yul\":7949:7950   */\n      0x00\n        /* \"#utility.yul\":7938:7947   */\n      dup4\n        /* \"#utility.yul\":7934:7951   */\n      add\n        /* \"#utility.yul\":7925:7931   */\n      dup7\n        /* \"#utility.yul\":7881:7952   */\n      tag_41\n      jump\t// in\n    tag_151:\n        /* \"#utility.yul\":7999:8008   */\n      dup2\n        /* \"#utility.yul\":7993:7997   */\n      dup2\n        /* \"#utility.yul\":7989:8009   */\n      sub\n        /* \"#utility.yul\":7984:7986   */\n      0x20\n        /* \"#utility.yul\":7973:7982   */\n      dup4\n        /* \"#utility.yul\":7969:7987   */\n      add\n        /* \"#utility.yul\":7962:8010   */\n      mstore\n        /* \"#utility.yul\":8027:8105   */\n      tag_152\n        /* \"#utility.yul\":8100:8104   */\n      dup2\n        /* \"#utility.yul\":8091:8097   */\n      dup6\n        /* \"#utility.yul\":8027:8105   */\n      tag_62\n      jump\t// in\n    tag_152:\n        /* \"#utility.yul\":8019:8105   */\n      swap1\n      pop\n        /* \"#utility.yul\":8152:8161   */\n      dup2\n        /* \"#utility.yul\":8146:8150   */\n      dup2\n        /* \"#utility.yul\":8142:8162   */\n      sub\n        /* \"#utility.yul\":8137:8139   */\n      0x40\n        /* \"#utility.yul\":8126:8135   */\n      dup4\n        /* \"#utility.yul\":8122:8140   */\n      add\n        /* \"#utility.yul\":8115:8163   */\n      mstore\n        /* \"#utility.yul\":8180:8258   */\n      tag_153\n        /* \"#utility.yul\":8253:8257   */\n      dup2\n        /* \"#utility.yul\":8244:8250   */\n      dup5\n        /* \"#utility.yul\":8180:8258   */\n      tag_62\n      jump\t// in\n    tag_153:\n        /* \"#utility.yul\":8172:8258   */\n      swap1\n      pop\n        /* \"#utility.yul\":7641:8265   */\n      swap5\n      swap4\n      pop\n      pop\n      pop\n      pop\n      jump\t// out\n    stop\n\n    sub_0: assembly {\n            /* \"Story.sol\":635:2872  contract Story {... */\n          mstore(0x40, 0x80)\n            /* \"Story.sol\":981:1245  constructor(address _mainAuthor, string memory _usernameAndPassword, string memory _pem) {... */\n          callvalue\n          dup1\n          iszero\n          tag_1\n          jumpi\n          0x00\n          dup1\n          revert\n        tag_1:\n          pop\n          mload(0x40)\n          sub(codesize, bytecodeSize)\n          dup1\n          bytecodeSize\n          dup4\n          codecopy\n          dup2\n          dup2\n          add\n          0x40\n          mstore\n          dup2\n          add\n          swap1\n          tag_2\n          swap2\n          swap1\n          tag_3\n          jump\t// in\n        tag_2:\n            /* \"Story.sol\":1115:1119  true */\n          0x01\n            /* \"Story.sol\":1081:1099  authorsForSolidity */\n          0x00\n            /* \"Story.sol\":1081:1112  authorsForSolidity[_mainAuthor] */\n          dup1\n            /* \"Story.sol\":1100:1111  _mainAuthor */\n          dup6\n            /* \"Story.sol\":1081:1112  authorsForSolidity[_mainAuthor] */\n          0xffffffffffffffffffffffffffffffffffffffff\n          and\n          0xffffffffffffffffffffffffffffffffffffffff\n          and\n          dup2\n          mstore\n          0x20\n          add\n          swap1\n          dup2\n          mstore\n          0x20\n          add\n          0x00\n          keccak256\n          0x00\n            /* \"Story.sol\":1081:1119  authorsForSolidity[_mainAuthor] = true */\n          0x0100\n          exp\n          dup2\n          sload\n          dup2\n          0xff\n          mul\n          not\n          and\n          swap1\n          dup4\n          iszero\n          iszero\n          mul\n          or\n          swap1\n          sstore\n          pop\n            /* \"Story.sol\":1130:1145  authorsForReact */\n          0x01\n            /* \"Story.sol\":1151:1162  _mainAuthor */\n          dup4\n            /* \"Story.sol\":1130:1163  authorsForReact.push(_mainAuthor) */\n          swap1\n          dup1\n          0x01\n          dup2\n          sload\n          add\n          dup1\n          dup3\n          sstore\n          dup1\n          swap2\n          pop\n          pop\n          0x01\n          swap1\n          sub\n          swap1\n          0x00\n          mstore\n          keccak256(0x00, 0x20)\n          add\n          0x00\n          swap1\n          swap2\n          swap1\n          swap2\n          swap1\n          swap2\n          0x0100\n          exp\n          dup2\n          sload\n          dup2\n          0xffffffffffffffffffffffffffffffffffffffff\n          mul\n          not\n          and\n          swap1\n          dup4\n          0xffffffffffffffffffffffffffffffffffffffff\n          and\n          mul\n          or\n          swap1\n          sstore\n          pop\n            /* \"Story.sol\":1196:1216  _usernameAndPassword */\n          dup2\n            /* \"Story.sol\":1174:1193  usernameAndPassword */\n          0x02\n            /* \"Story.sol\":1174:1216  usernameAndPassword = _usernameAndPassword */\n          swap1\n          dup1\n          mload\n          swap1\n          0x20\n          add\n          swap1\n          tag_7\n          swap3\n          swap2\n          swap1\n          tag_8\n          jump\t// in\n        tag_7:\n          pop\n            /* \"Story.sol\":1233:1237  _pem */\n          dup1\n            /* \"Story.sol\":1227:1230  pem */\n          0x03\n            /* \"Story.sol\":1227:1237  pem = _pem */\n          swap1\n          dup1\n          mload\n          swap1\n          0x20\n          add\n          swap1\n          tag_9\n          swap3\n          swap2\n          swap1\n          tag_8\n          jump\t// in\n        tag_9:\n          pop\n            /* \"Story.sol\":981:1245  constructor(address _mainAuthor, string memory _usernameAndPassword, string memory _pem) {... */\n          pop\n          pop\n          pop\n            /* \"Story.sol\":635:2872  contract Story {... */\n          jump(tag_10)\n        tag_8:\n          dup3\n          dup1\n          sload\n          tag_11\n          swap1\n          tag_12\n          jump\t// in\n        tag_11:\n          swap1\n          0x00\n          mstore\n          keccak256(0x00, 0x20)\n          swap1\n          0x1f\n          add\n          0x20\n          swap1\n          div\n          dup2\n          add\n          swap3\n          dup3\n          tag_14\n          jumpi\n          0x00\n          dup6\n          sstore\n          jump(tag_13)\n        tag_14:\n          dup3\n          0x1f\n          lt\n          tag_15\n          jumpi\n          dup1\n          mload\n          not(0xff)\n          and\n          dup4\n          dup1\n          add\n          or\n          dup6\n          sstore\n          jump(tag_13)\n        tag_15:\n          dup3\n          dup1\n          add\n          0x01\n          add\n          dup6\n          sstore\n          dup3\n          iszero\n          tag_13\n          jumpi\n          swap2\n          dup3\n          add\n        tag_16:\n          dup3\n          dup2\n          gt\n          iszero\n          tag_17\n          jumpi\n          dup3\n          mload\n          dup3\n          sstore\n          swap2\n          0x20\n          add\n          swap2\n          swap1\n          0x01\n          add\n          swap1\n          jump(tag_16)\n        tag_17:\n        tag_13:\n          pop\n          swap1\n          pop\n          tag_18\n          swap2\n          swap1\n          tag_19\n          jump\t// in\n        tag_18:\n          pop\n          swap1\n          jump\t// out\n        tag_19:\n        tag_20:\n          dup1\n          dup3\n          gt\n          iszero\n          tag_21\n          jumpi\n          0x00\n          dup2\n          0x00\n          swap1\n          sstore\n          pop\n          0x01\n          add\n          jump(tag_20)\n        tag_21:\n          pop\n          swap1\n          jump\t// out\n            /* \"#utility.yul\":7:82   */\n        tag_22:\n            /* \"#utility.yul\":40:46   */\n          0x00\n            /* \"#utility.yul\":73:75   */\n          0x40\n            /* \"#utility.yul\":67:76   */\n          mload\n            /* \"#utility.yul\":57:76   */\n          swap1\n          pop\n            /* \"#utility.yul\":7:82   */\n          swap1\n          jump\t// out\n            /* \"#utility.yul\":88:205   */\n        tag_23:\n            /* \"#utility.yul\":197:198   */\n          0x00\n            /* \"#utility.yul\":194:195   */\n          dup1\n            /* \"#utility.yul\":187:199   */\n          revert\n            /* \"#utility.yul\":211:328   */\n        tag_24:\n            /* \"#utility.yul\":320:321   */\n          0x00\n            /* \"#utility.yul\":317:318   */\n          dup1\n            /* \"#utility.yul\":310:322   */\n          revert\n            /* \"#utility.yul\":334:460   */\n        tag_25:\n            /* \"#utility.yul\":371:378   */\n          0x00\n            /* \"#utility.yul\":411:453   */\n          0xffffffffffffffffffffffffffffffffffffffff\n            /* \"#utility.yul\":404:409   */\n          dup3\n            /* \"#utility.yul\":400:454   */\n          and\n            /* \"#utility.yul\":389:454   */\n          swap1\n          pop\n            /* \"#utility.yul\":334:460   */\n          swap2\n          swap1\n          pop\n          jump\t// out\n            /* \"#utility.yul\":466:562   */\n        tag_26:\n            /* \"#utility.yul\":503:510   */\n          0x00\n            /* \"#utility.yul\":532:556   */\n          tag_46\n            /* \"#utility.yul\":550:555   */\n          dup3\n            /* \"#utility.yul\":532:556   */\n          tag_25\n          jump\t// in\n        tag_46:\n            /* \"#utility.yul\":521:556   */\n          swap1\n          pop\n            /* \"#utility.yul\":466:562   */\n          swap2\n          swap1\n          pop\n          jump\t// out\n            /* \"#utility.yul\":568:690   */\n        tag_27:\n            /* \"#utility.yul\":641:665   */\n          tag_48\n            /* \"#utility.yul\":659:664   */\n          dup2\n            /* \"#utility.yul\":641:665   */\n          tag_26\n          jump\t// in\n        tag_48:\n            /* \"#utility.yul\":634:639   */\n          dup2\n            /* \"#utility.yul\":631:666   */\n          eq\n            /* \"#utility.yul\":621:684   */\n          tag_49\n          jumpi\n            /* \"#utility.yul\":680:681   */\n          0x00\n            /* \"#utility.yul\":677:678   */\n          dup1\n            /* \"#utility.yul\":670:682   */\n          revert\n            /* \"#utility.yul\":621:684   */\n        tag_49:\n            /* \"#utility.yul\":568:690   */\n          pop\n          jump\t// out\n            /* \"#utility.yul\":696:839   */\n        tag_28:\n            /* \"#utility.yul\":753:758   */\n          0x00\n            /* \"#utility.yul\":784:790   */\n          dup2\n            /* \"#utility.yul\":778:791   */\n          mload\n            /* \"#utility.yul\":769:791   */\n          swap1\n          pop\n            /* \"#utility.yul\":800:833   */\n          tag_51\n            /* \"#utility.yul\":827:832   */\n          dup2\n            /* \"#utility.yul\":800:833   */\n          tag_27\n          jump\t// in\n        tag_51:\n            /* \"#utility.yul\":696:839   */\n          swap3\n          swap2\n          pop\n          pop\n          jump\t// out\n            /* \"#utility.yul\":845:962   */\n        tag_29:\n            /* \"#utility.yul\":954:955   */\n          0x00\n            /* \"#utility.yul\":951:952   */\n          dup1\n            /* \"#utility.yul\":944:956   */\n          revert\n            /* \"#utility.yul\":968:1085   */\n        tag_30:\n            /* \"#utility.yul\":1077:1078   */\n          0x00\n            /* \"#utility.yul\":1074:1075   */\n          dup1\n            /* \"#utility.yul\":1067:1079   */\n          revert\n            /* \"#utility.yul\":1091:1193   */\n        tag_31:\n            /* \"#utility.yul\":1132:1138   */\n          0x00\n            /* \"#utility.yul\":1183:1185   */\n          0x1f\n            /* \"#utility.yul\":1179:1186   */\n          not\n            /* \"#utility.yul\":1174:1176   */\n          0x1f\n            /* \"#utility.yul\":1167:1172   */\n          dup4\n            /* \"#utility.yul\":1163:1177   */\n          add\n            /* \"#utility.yul\":1159:1187   */\n          and\n            /* \"#utility.yul\":1149:1187   */\n          swap1\n          pop\n            /* \"#utility.yul\":1091:1193   */\n          swap2\n          swap1\n          pop\n          jump\t// out\n            /* \"#utility.yul\":1199:1379   */\n        tag_32:\n            /* \"#utility.yul\":1247:1324   */\n          0x4e487b7100000000000000000000000000000000000000000000000000000000\n            /* \"#utility.yul\":1244:1245   */\n          0x00\n            /* \"#utility.yul\":1237:1325   */\n          mstore\n            /* \"#utility.yul\":1344:1348   */\n          0x41\n            /* \"#utility.yul\":1341:1342   */\n          0x04\n            /* \"#utility.yul\":1334:1349   */\n          mstore\n            /* \"#utility.yul\":1368:1372   */\n          0x24\n            /* \"#utility.yul\":1365:1366   */\n          0x00\n            /* \"#utility.yul\":1358:1373   */\n          revert\n            /* \"#utility.yul\":1385:1666   */\n        tag_33:\n            /* \"#utility.yul\":1468:1495   */\n          tag_57\n            /* \"#utility.yul\":1490:1494   */\n          dup3\n            /* \"#utility.yul\":1468:1495   */\n          tag_31\n          jump\t// in\n        tag_57:\n            /* \"#utility.yul\":1460:1466   */\n          dup2\n            /* \"#utility.yul\":1456:1496   */\n          add\n            /* \"#utility.yul\":1598:1604   */\n          dup2\n            /* \"#utility.yul\":1586:1596   */\n          dup2\n            /* \"#utility.yul\":1583:1605   */\n          lt\n            /* \"#utility.yul\":1562:1580   */\n          0xffffffffffffffff\n            /* \"#utility.yul\":1550:1560   */\n          dup3\n            /* \"#utility.yul\":1547:1581   */\n          gt\n            /* \"#utility.yul\":1544:1606   */\n          or\n            /* \"#utility.yul\":1541:1629   */\n          iszero\n          tag_58\n          jumpi\n            /* \"#utility.yul\":1609:1627   */\n          tag_59\n          tag_32\n          jump\t// in\n        tag_59:\n            /* \"#utility.yul\":1541:1629   */\n        tag_58:\n            /* \"#utility.yul\":1649:1659   */\n          dup1\n            /* \"#utility.yul\":1645:1647   */\n          0x40\n            /* \"#utility.yul\":1638:1660   */\n          mstore\n            /* \"#utility.yul\":1428:1666   */\n          pop\n            /* \"#utility.yul\":1385:1666   */\n          pop\n          pop\n          jump\t// out\n            /* \"#utility.yul\":1672:1801   */\n        tag_34:\n            /* \"#utility.yul\":1706:1712   */\n          0x00\n            /* \"#utility.yul\":1733:1753   */\n          tag_61\n          tag_22\n          jump\t// in\n        tag_61:\n            /* \"#utility.yul\":1723:1753   */\n          swap1\n          pop\n            /* \"#utility.yul\":1762:1795   */\n          tag_62\n            /* \"#utility.yul\":1790:1794   */\n          dup3\n            /* \"#utility.yul\":1782:1788   */\n          dup3\n            /* \"#utility.yul\":1762:1795   */\n          tag_33\n          jump\t// in\n        tag_62:\n            /* \"#utility.yul\":1672:1801   */\n          swap2\n          swap1\n          pop\n          jump\t// out\n            /* \"#utility.yul\":1807:2115   */\n        tag_35:\n            /* \"#utility.yul\":1869:1873   */\n          0x00\n            /* \"#utility.yul\":1959:1977   */\n          0xffffffffffffffff\n            /* \"#utility.yul\":1951:1957   */\n          dup3\n            /* \"#utility.yul\":1948:1978   */\n          gt\n            /* \"#utility.yul\":1945:2001   */\n          iszero\n          tag_64\n          jumpi\n            /* \"#utility.yul\":1981:1999   */\n          tag_65\n          tag_32\n          jump\t// in\n        tag_65:\n            /* \"#utility.yul\":1945:2001   */\n        tag_64:\n            /* \"#utility.yul\":2019:2048   */\n          tag_66\n            /* \"#utility.yul\":2041:2047   */\n          dup3\n            /* \"#utility.yul\":2019:2048   */\n          tag_31\n          jump\t// in\n        tag_66:\n            /* \"#utility.yul\":2011:2048   */\n          swap1\n          pop\n            /* \"#utility.yul\":2103:2107   */\n          0x20\n            /* \"#utility.yul\":2097:2101   */\n          dup2\n            /* \"#utility.yul\":2093:2108   */\n          add\n            /* \"#utility.yul\":2085:2108   */\n          swap1\n          pop\n            /* \"#utility.yul\":1807:2115   */\n          swap2\n          swap1\n          pop\n          jump\t// out\n            /* \"#utility.yul\":2121:2428   */\n        tag_36:\n            /* \"#utility.yul\":2189:2190   */\n          0x00\n            /* \"#utility.yul\":2199:2312   */\n        tag_68:\n            /* \"#utility.yul\":2213:2219   */\n          dup4\n            /* \"#utility.yul\":2210:2211   */\n          dup2\n            /* \"#utility.yul\":2207:2220   */\n          lt\n            /* \"#utility.yul\":2199:2312   */\n          iszero\n          tag_70\n          jumpi\n            /* \"#utility.yul\":2298:2299   */\n          dup1\n            /* \"#utility.yul\":2293:2296   */\n          dup3\n            /* \"#utility.yul\":2289:2300   */\n          add\n            /* \"#utility.yul\":2283:2301   */\n          mload\n            /* \"#utility.yul\":2279:2280   */\n          dup2\n            /* \"#utility.yul\":2274:2277   */\n          dup5\n            /* \"#utility.yul\":2270:2281   */\n          add\n            /* \"#utility.yul\":2263:2302   */\n          mstore\n            /* \"#utility.yul\":2235:2237   */\n          0x20\n            /* \"#utility.yul\":2232:2233   */\n          dup2\n            /* \"#utility.yul\":2228:2238   */\n          add\n            /* \"#utility.yul\":2223:2238   */\n          swap1\n          pop\n            /* \"#utility.yul\":2199:2312   */\n          jump(tag_68)\n        tag_70:\n            /* \"#utility.yul\":2330:2336   */\n          dup4\n            /* \"#utility.yul\":2327:2328   */\n          dup2\n            /* \"#utility.yul\":2324:2337   */\n          gt\n            /* \"#utility.yul\":2321:2422   */\n          iszero\n          tag_71\n          jumpi\n            /* \"#utility.yul\":2410:2411   */\n          0x00\n            /* \"#utility.yul\":2401:2407   */\n          dup5\n            /* \"#utility.yul\":2396:2399   */\n          dup5\n            /* \"#utility.yul\":2392:2408   */\n          add\n            /* \"#utility.yul\":2385:2412   */\n          mstore\n            /* \"#utility.yul\":2321:2422   */\n        tag_71:\n            /* \"#utility.yul\":2170:2428   */\n          pop\n            /* \"#utility.yul\":2121:2428   */\n          pop\n          pop\n          pop\n          jump\t// out\n            /* \"#utility.yul\":2434:2855   */\n        tag_37:\n            /* \"#utility.yul\":2523:2528   */\n          0x00\n            /* \"#utility.yul\":2548:2614   */\n          tag_73\n            /* \"#utility.yul\":2564:2613   */\n          tag_74\n            /* \"#utility.yul\":2606:2612   */\n          dup5\n            /* \"#utility.yul\":2564:2613   */\n          tag_35\n          jump\t// in\n        tag_74:\n            /* \"#utility.yul\":2548:2614   */\n          tag_34\n          jump\t// in\n        tag_73:\n            /* \"#utility.yul\":2539:2614   */\n          swap1\n          pop\n            /* \"#utility.yul\":2637:2643   */\n          dup3\n            /* \"#utility.yul\":2630:2635   */\n          dup2\n            /* \"#utility.yul\":2623:2644   */\n          mstore\n            /* \"#utility.yul\":2675:2679   */\n          0x20\n            /* \"#utility.yul\":2668:2673   */\n          dup2\n            /* \"#utility.yul\":2664:2680   */\n          add\n            /* \"#utility.yul\":2713:2716   */\n          dup5\n            /* \"#utility.yul\":2704:2710   */\n          dup5\n            /* \"#utility.yul\":2699:2702   */\n          dup5\n            /* \"#utility.yul\":2695:2711   */\n          add\n            /* \"#utility.yul\":2692:2717   */\n          gt\n            /* \"#utility.yul\":2689:2801   */\n          iszero\n          tag_75\n          jumpi\n            /* \"#utility.yul\":2720:2799   */\n          tag_76\n          tag_30\n          jump\t// in\n        tag_76:\n            /* \"#utility.yul\":2689:2801   */\n        tag_75:\n            /* \"#utility.yul\":2810:2849   */\n          tag_77\n            /* \"#utility.yul\":2842:2848   */\n          dup5\n            /* \"#utility.yul\":2837:2840   */\n          dup3\n            /* \"#utility.yul\":2832:2835   */\n          dup6\n            /* \"#utility.yul\":2810:2849   */\n          tag_36\n          jump\t// in\n        tag_77:\n            /* \"#utility.yul\":2529:2855   */\n          pop\n            /* \"#utility.yul\":2434:2855   */\n          swap4\n          swap3\n          pop\n          pop\n          pop\n          jump\t// out\n            /* \"#utility.yul\":2875:3230   */\n        tag_38:\n            /* \"#utility.yul\":2942:2947   */\n          0x00\n            /* \"#utility.yul\":2991:2994   */\n          dup3\n            /* \"#utility.yul\":2984:2988   */\n          0x1f\n            /* \"#utility.yul\":2976:2982   */\n          dup4\n            /* \"#utility.yul\":2972:2989   */\n          add\n            /* \"#utility.yul\":2968:2995   */\n          slt\n            /* \"#utility.yul\":2958:3080   */\n          tag_79\n          jumpi\n            /* \"#utility.yul\":2999:3078   */\n          tag_80\n          tag_29\n          jump\t// in\n        tag_80:\n            /* \"#utility.yul\":2958:3080   */\n        tag_79:\n            /* \"#utility.yul\":3109:3115   */\n          dup2\n            /* \"#utility.yul\":3103:3116   */\n          mload\n            /* \"#utility.yul\":3134:3224   */\n          tag_81\n            /* \"#utility.yul\":3220:3223   */\n          dup5\n            /* \"#utility.yul\":3212:3218   */\n          dup3\n            /* \"#utility.yul\":3205:3209   */\n          0x20\n            /* \"#utility.yul\":3197:3203   */\n          dup7\n            /* \"#utility.yul\":3193:3210   */\n          add\n            /* \"#utility.yul\":3134:3224   */\n          tag_37\n          jump\t// in\n        tag_81:\n            /* \"#utility.yul\":3125:3224   */\n          swap2\n          pop\n            /* \"#utility.yul\":2948:3230   */\n          pop\n            /* \"#utility.yul\":2875:3230   */\n          swap3\n          swap2\n          pop\n          pop\n          jump\t// out\n            /* \"#utility.yul\":3236:4245   */\n        tag_3:\n            /* \"#utility.yul\":3344:3350   */\n          0x00\n            /* \"#utility.yul\":3352:3358   */\n          dup1\n            /* \"#utility.yul\":3360:3366   */\n          0x00\n            /* \"#utility.yul\":3409:3411   */\n          0x60\n            /* \"#utility.yul\":3397:3406   */\n          dup5\n            /* \"#utility.yul\":3388:3395   */\n          dup7\n            /* \"#utility.yul\":3384:3407   */\n          sub\n            /* \"#utility.yul\":3380:3412   */\n          slt\n            /* \"#utility.yul\":3377:3496   */\n          iszero\n          tag_83\n          jumpi\n            /* \"#utility.yul\":3415:3494   */\n          tag_84\n          tag_23\n          jump\t// in\n        tag_84:\n            /* \"#utility.yul\":3377:3496   */\n        tag_83:\n            /* \"#utility.yul\":3535:3536   */\n          0x00\n            /* \"#utility.yul\":3560:3624   */\n          tag_85\n            /* \"#utility.yul\":3616:3623   */\n          dup7\n            /* \"#utility.yul\":3607:3613   */\n          dup3\n            /* \"#utility.yul\":3596:3605   */\n          dup8\n            /* \"#utility.yul\":3592:3614   */\n          add\n            /* \"#utility.yul\":3560:3624   */\n          tag_28\n          jump\t// in\n        tag_85:\n            /* \"#utility.yul\":3550:3624   */\n          swap4\n          pop\n            /* \"#utility.yul\":3506:3634   */\n          pop\n            /* \"#utility.yul\":3694:3696   */\n          0x20\n            /* \"#utility.yul\":3683:3692   */\n          dup5\n            /* \"#utility.yul\":3679:3697   */\n          add\n            /* \"#utility.yul\":3673:3698   */\n          mload\n            /* \"#utility.yul\":3725:3743   */\n          0xffffffffffffffff\n            /* \"#utility.yul\":3717:3723   */\n          dup2\n            /* \"#utility.yul\":3714:3744   */\n          gt\n            /* \"#utility.yul\":3711:3828   */\n          iszero\n          tag_86\n          jumpi\n            /* \"#utility.yul\":3747:3826   */\n          tag_87\n          tag_24\n          jump\t// in\n        tag_87:\n            /* \"#utility.yul\":3711:3828   */\n        tag_86:\n            /* \"#utility.yul\":3852:3926   */\n          tag_88\n            /* \"#utility.yul\":3918:3925   */\n          dup7\n            /* \"#utility.yul\":3909:3915   */\n          dup3\n            /* \"#utility.yul\":3898:3907   */\n          dup8\n            /* \"#utility.yul\":3894:3916   */\n          add\n            /* \"#utility.yul\":3852:3926   */\n          tag_38\n          jump\t// in\n        tag_88:\n            /* \"#utility.yul\":3842:3926   */\n          swap3\n          pop\n            /* \"#utility.yul\":3644:3936   */\n          pop\n            /* \"#utility.yul\":3996:3998   */\n          0x40\n            /* \"#utility.yul\":3985:3994   */\n          dup5\n            /* \"#utility.yul\":3981:3999   */\n          add\n            /* \"#utility.yul\":3975:4000   */\n          mload\n            /* \"#utility.yul\":4027:4045   */\n          0xffffffffffffffff\n            /* \"#utility.yul\":4019:4025   */\n          dup2\n            /* \"#utility.yul\":4016:4046   */\n          gt\n            /* \"#utility.yul\":4013:4130   */\n          iszero\n          tag_89\n          jumpi\n            /* \"#utility.yul\":4049:4128   */\n          tag_90\n          tag_24\n          jump\t// in\n        tag_90:\n            /* \"#utility.yul\":4013:4130   */\n        tag_89:\n            /* \"#utility.yul\":4154:4228   */\n          tag_91\n            /* \"#utility.yul\":4220:4227   */\n          dup7\n            /* \"#utility.yul\":4211:4217   */\n          dup3\n            /* \"#utility.yul\":4200:4209   */\n          dup8\n            /* \"#utility.yul\":4196:4218   */\n          add\n            /* \"#utility.yul\":4154:4228   */\n          tag_38\n          jump\t// in\n        tag_91:\n            /* \"#utility.yul\":4144:4228   */\n          swap2\n          pop\n            /* \"#utility.yul\":3946:4238   */\n          pop\n            /* \"#utility.yul\":3236:4245   */\n          swap3\n          pop\n          swap3\n          pop\n          swap3\n          jump\t// out\n            /* \"#utility.yul\":4251:4431   */\n        tag_39:\n            /* \"#utility.yul\":4299:4376   */\n          0x4e487b7100000000000000000000000000000000000000000000000000000000\n            /* \"#utility.yul\":4296:4297   */\n          0x00\n            /* \"#utility.yul\":4289:4377   */\n          mstore\n            /* \"#utility.yul\":4396:4400   */\n          0x22\n            /* \"#utility.yul\":4393:4394   */\n          0x04\n            /* \"#utility.yul\":4386:4401   */\n          mstore\n            /* \"#utility.yul\":4420:4424   */\n          0x24\n            /* \"#utility.yul\":4417:4418   */\n          0x00\n            /* \"#utility.yul\":4410:4425   */\n          revert\n            /* \"#utility.yul\":4437:4757   */\n        tag_12:\n            /* \"#utility.yul\":4481:4487   */\n          0x00\n            /* \"#utility.yul\":4518:4519   */\n          0x02\n            /* \"#utility.yul\":4512:4516   */\n          dup3\n            /* \"#utility.yul\":4508:4520   */\n          div\n            /* \"#utility.yul\":4498:4520   */\n          swap1\n          pop\n            /* \"#utility.yul\":4565:4566   */\n          0x01\n            /* \"#utility.yul\":4559:4563   */\n          dup3\n            /* \"#utility.yul\":4555:4567   */\n          and\n            /* \"#utility.yul\":4586:4604   */\n          dup1\n            /* \"#utility.yul\":4576:4657   */\n          tag_94\n          jumpi\n            /* \"#utility.yul\":4642:4646   */\n          0x7f\n            /* \"#utility.yul\":4634:4640   */\n          dup3\n            /* \"#utility.yul\":4630:4647   */\n          and\n            /* \"#utility.yul\":4620:4647   */\n          swap2\n          pop\n            /* \"#utility.yul\":4576:4657   */\n        tag_94:\n            /* \"#utility.yul\":4704:4706   */\n          0x20\n            /* \"#utility.yul\":4696:4702   */\n          dup3\n            /* \"#utility.yul\":4693:4707   */\n          lt\n            /* \"#utility.yul\":4673:4691   */\n          dup2\n            /* \"#utility.yul\":4670:4708   */\n          eq\n            /* \"#utility.yul\":4667:4751   */\n          iszero\n          tag_95\n          jumpi\n            /* \"#utility.yul\":4723:4741   */\n          tag_96\n          tag_39\n          jump\t// in\n        tag_96:\n            /* \"#utility.yul\":4667:4751   */\n        tag_95:\n            /* \"#utility.yul\":4488:4757   */\n          pop\n            /* \"#utility.yul\":4437:4757   */\n          swap2\n          swap1\n          pop\n          jump\t// out\n            /* \"Story.sol\":635:2872  contract Story {... */\n        tag_10:\n          dataSize(sub_0)\n          dup1\n          dataOffset(sub_0)\n          0x00\n          codecopy\n          0x00\n          return\n        stop\n\n        sub_0: assembly {\n                /* \"Story.sol\":635:2872  contract Story {... */\n              mstore(0x40, 0x80)\n              callvalue\n              dup1\n              iszero\n              tag_1\n              jumpi\n              0x00\n              dup1\n              revert\n            tag_1:\n              pop\n              jumpi(tag_2, lt(calldatasize, 0x04))\n              shr(0xe0, calldataload(0x00))\n              dup1\n              0x5cf298fb\n              gt\n              tag_12\n              jumpi\n              dup1\n              0x5cf298fb\n              eq\n              tag_7\n              jumpi\n              dup1\n              0x6fc6c579\n              eq\n              tag_8\n              jumpi\n              dup1\n              0x98b79628\n              eq\n              tag_9\n              jumpi\n              dup1\n              0x9d3ed807\n              eq\n              tag_10\n              jumpi\n              dup1\n              0xdfa14e23\n              eq\n              tag_11\n              jumpi\n              jump(tag_2)\n            tag_12:\n              dup1\n              0x1008016d\n              eq\n              tag_3\n              jumpi\n              dup1\n              0x3e5690f4\n              eq\n              tag_4\n              jumpi\n              dup1\n              0x4051ddac\n              eq\n              tag_5\n              jumpi\n              dup1\n              0x4bb3fdad\n              eq\n              tag_6\n              jumpi\n            tag_2:\n              0x00\n              dup1\n              revert\n                /* \"Story.sol\":753:786  string public usernameAndPassword */\n            tag_3:\n              tag_13\n              tag_14\n              jump\t// in\n            tag_13:\n              mload(0x40)\n              tag_15\n              swap2\n              swap1\n              tag_16\n              jump\t// in\n            tag_15:\n              mload(0x40)\n              dup1\n              swap2\n              sub\n              swap1\n              return\n                /* \"Story.sol\":657:707  mapping(address => bool) public authorsForSolidity */\n            tag_4:\n              tag_17\n              0x04\n              dup1\n              calldatasize\n              sub\n              dup2\n              add\n              swap1\n              tag_18\n              swap2\n              swap1\n              tag_19\n              jump\t// in\n            tag_18:\n              tag_20\n              jump\t// in\n            tag_17:\n              mload(0x40)\n              tag_21\n              swap2\n              swap1\n              tag_22\n              jump\t// in\n            tag_21:\n              mload(0x40)\n              dup1\n              swap2\n              sub\n              swap1\n              return\n                /* \"Story.sol\":2473:2747  function getSummary() public view returns (... */\n            tag_5:\n              tag_23\n              tag_24\n              jump\t// in\n            tag_23:\n              mload(0x40)\n              tag_25\n              swap5\n              swap4\n              swap3\n              swap2\n              swap1\n              tag_26\n              jump\t// in\n            tag_25:\n              mload(0x40)\n              dup1\n              swap2\n              sub\n              swap1\n              return\n                /* \"Story.sol\":793:810  string public pem */\n            tag_6:\n              tag_27\n              tag_28\n              jump\t// in\n            tag_27:\n              mload(0x40)\n              tag_29\n              swap2\n              swap1\n              tag_16\n              jump\t// in\n            tag_29:\n              mload(0x40)\n              dup1\n              swap2\n              sub\n              swap1\n              return\n                /* \"Story.sol\":2755:2857  function isAuthor() public view returns (bool){... */\n            tag_7:\n              tag_30\n              tag_31\n              jump\t// in\n            tag_30:\n              mload(0x40)\n              tag_32\n              swap2\n              swap1\n              tag_22\n              jump\t// in\n            tag_32:\n              mload(0x40)\n              dup1\n              swap2\n              sub\n              swap1\n              return\n                /* \"Story.sol\":935:972  RequestToJoin[] public requestsToJoin */\n            tag_8:\n              tag_33\n              0x04\n              dup1\n              calldatasize\n              sub\n              dup2\n              add\n              swap1\n              tag_34\n              swap2\n              swap1\n              tag_35\n              jump\t// in\n            tag_34:\n              tag_36\n              jump\t// in\n            tag_33:\n              mload(0x40)\n              tag_37\n              swap4\n              swap3\n              swap2\n              swap1\n              tag_38\n              jump\t// in\n            tag_37:\n              mload(0x40)\n              dup1\n              swap2\n              sub\n              swap1\n              return\n                /* \"Story.sol\":1654:2465  function approveRequestToJoin(uint256 _index) public {... */\n            tag_9:\n              tag_39\n              0x04\n              dup1\n              calldatasize\n              sub\n              dup2\n              add\n              swap1\n              tag_40\n              swap2\n              swap1\n              tag_35\n              jump\t// in\n            tag_40:\n              tag_41\n              jump\t// in\n            tag_39:\n              stop\n                /* \"Story.sol\":714:746  address[] public authorsForReact */\n            tag_10:\n              tag_42\n              0x04\n              dup1\n              calldatasize\n              sub\n              dup2\n              add\n              swap1\n              tag_43\n              swap2\n              swap1\n              tag_35\n              jump\t// in\n            tag_43:\n              tag_44\n              jump\t// in\n            tag_42:\n              mload(0x40)\n              tag_45\n              swap2\n              swap1\n              tag_46\n              jump\t// in\n            tag_45:\n              mload(0x40)\n              dup1\n              swap2\n              sub\n              swap1\n              return\n                /* \"Story.sol\":1253:1646  function createRequestToJoin(string memory _proposal) public {... */\n            tag_11:\n              tag_47\n              0x04\n              dup1\n              calldatasize\n              sub\n              dup2\n              add\n              swap1\n              tag_48\n              swap2\n              swap1\n              tag_49\n              jump\t// in\n            tag_48:\n              tag_50\n              jump\t// in\n            tag_47:\n              stop\n                /* \"Story.sol\":753:786  string public usernameAndPassword */\n            tag_14:\n              0x02\n              dup1\n              sload\n              tag_51\n              swap1\n              tag_52\n              jump\t// in\n            tag_51:\n              dup1\n              0x1f\n              add\n              0x20\n              dup1\n              swap2\n              div\n              mul\n              0x20\n              add\n              mload(0x40)\n              swap1\n              dup2\n              add\n              0x40\n              mstore\n              dup1\n              swap3\n              swap2\n              swap1\n              dup2\n              dup2\n              mstore\n              0x20\n              add\n              dup3\n              dup1\n              sload\n              tag_53\n              swap1\n              tag_52\n              jump\t// in\n            tag_53:\n              dup1\n              iszero\n              tag_54\n              jumpi\n              dup1\n              0x1f\n              lt\n              tag_55\n              jumpi\n              0x0100\n              dup1\n              dup4\n              sload\n              div\n              mul\n              dup4\n              mstore\n              swap2\n              0x20\n              add\n              swap2\n              jump(tag_54)\n            tag_55:\n              dup3\n              add\n              swap2\n              swap1\n              0x00\n              mstore\n              keccak256(0x00, 0x20)\n              swap1\n            tag_56:\n              dup2\n              sload\n              dup2\n              mstore\n              swap1\n              0x01\n              add\n              swap1\n              0x20\n              add\n              dup1\n              dup4\n              gt\n              tag_56\n              jumpi\n              dup3\n              swap1\n              sub\n              0x1f\n              and\n              dup3\n              add\n              swap2\n            tag_54:\n              pop\n              pop\n              pop\n              pop\n              pop\n              dup2\n              jump\t// out\n                /* \"Story.sol\":657:707  mapping(address => bool) public authorsForSolidity */\n            tag_20:\n              mstore(0x20, 0x00)\n              dup1\n              0x00\n              mstore\n              keccak256(0x00, 0x40)\n              0x00\n              swap2\n              pop\n              sload\n              swap1\n              0x0100\n              exp\n              swap1\n              div\n              0xff\n              and\n              dup2\n              jump\t// out\n                /* \"Story.sol\":2473:2747  function getSummary() public view returns (... */\n            tag_24:\n                /* \"Story.sol\":2526:2542  address[] memory */\n              0x60\n                /* \"Story.sol\":2544:2566  RequestToJoin[] memory */\n              dup1\n                /* \"Story.sol\":2568:2581  string memory */\n              0x60\n                /* \"Story.sol\":2583:2596  string memory */\n              dup1\n                /* \"Story.sol\":2632:2647  authorsForReact */\n              0x01\n                /* \"Story.sol\":2662:2676  requestsToJoin */\n              0x04\n                /* \"Story.sol\":2691:2710  usernameAndPassword */\n              0x02\n                /* \"Story.sol\":2725:2728  pem */\n              0x03\n                /* \"Story.sol\":2609:2739  return ( ... */\n              dup4\n              dup1\n              sload\n              dup1\n              0x20\n              mul\n              0x20\n              add\n              mload(0x40)\n              swap1\n              dup2\n              add\n              0x40\n              mstore\n              dup1\n              swap3\n              swap2\n              swap1\n              dup2\n              dup2\n              mstore\n              0x20\n              add\n              dup3\n              dup1\n              sload\n              dup1\n              iszero\n              tag_58\n              jumpi\n              0x20\n              mul\n              dup3\n              add\n              swap2\n              swap1\n              0x00\n              mstore\n              keccak256(0x00, 0x20)\n              swap1\n            tag_59:\n              dup2\n              0x00\n              swap1\n              sload\n              swap1\n              0x0100\n              exp\n              swap1\n              div\n              0xffffffffffffffffffffffffffffffffffffffff\n              and\n              0xffffffffffffffffffffffffffffffffffffffff\n              and\n              dup2\n              mstore\n              0x20\n              add\n              swap1\n              0x01\n              add\n              swap1\n              dup1\n              dup4\n              gt\n              tag_59\n              jumpi\n            tag_58:\n              pop\n              pop\n              pop\n              pop\n              pop\n              swap4\n              pop\n              dup3\n              dup1\n              sload\n              dup1\n              0x20\n              mul\n              0x20\n              add\n              mload(0x40)\n              swap1\n              dup2\n              add\n              0x40\n              mstore\n              dup1\n              swap3\n              swap2\n              swap1\n              dup2\n              dup2\n              mstore\n              0x20\n              add\n              0x00\n              swap1\n            tag_60:\n              dup3\n              dup3\n              lt\n              iszero\n              tag_61\n              jumpi\n              dup4\n              dup3\n              swap1\n              0x00\n              mstore\n              keccak256(0x00, 0x20)\n              swap1\n              0x03\n              mul\n              add\n              mload(0x40)\n              dup1\n              0x60\n              add\n              0x40\n              mstore\n              swap1\n              dup2\n              0x00\n              dup3\n              add\n              dup1\n              sload\n              tag_63\n              swap1\n              tag_52\n              jump\t// in\n            tag_63:\n              dup1\n              0x1f\n              add\n              0x20\n              dup1\n              swap2\n              div\n              mul\n              0x20\n              add\n              mload(0x40)\n              swap1\n              dup2\n              add\n              0x40\n              mstore\n              dup1\n              swap3\n              swap2\n              swap1\n              dup2\n              dup2\n              mstore\n              0x20\n              add\n              dup3\n              dup1\n              sload\n              tag_64\n              swap1\n              tag_52\n              jump\t// in\n            tag_64:\n              dup1\n              iszero\n              tag_65\n              jumpi\n              dup1\n              0x1f\n              lt\n              tag_66\n              jumpi\n              0x0100\n              dup1\n              dup4\n              sload\n              div\n              mul\n              dup4\n              mstore\n              swap2\n              0x20\n              add\n              swap2\n              jump(tag_65)\n            tag_66:\n              dup3\n              add\n              swap2\n              swap1\n              0x00\n              mstore\n              keccak256(0x00, 0x20)\n              swap1\n            tag_67:\n              dup2\n              sload\n              dup2\n              mstore\n              swap1\n              0x01\n              add\n              swap1\n              0x20\n              add\n              dup1\n              dup4\n              gt\n              tag_67\n              jumpi\n              dup3\n              swap1\n              sub\n              0x1f\n              and\n              dup3\n              add\n              swap2\n            tag_65:\n              pop\n              pop\n              pop\n              pop\n              pop\n              dup2\n              mstore\n              0x20\n              add\n              0x01\n              dup3\n              add\n              sload\n              dup2\n              mstore\n              0x20\n              add\n              0x02\n              dup3\n              add\n              0x00\n              swap1\n              sload\n              swap1\n              0x0100\n              exp\n              swap1\n              div\n              0xffffffffffffffffffffffffffffffffffffffff\n              and\n              0xffffffffffffffffffffffffffffffffffffffff\n              and\n              0xffffffffffffffffffffffffffffffffffffffff\n              and\n              dup2\n              mstore\n              pop\n              pop\n              dup2\n              mstore\n              0x20\n              add\n              swap1\n              0x01\n              add\n              swap1\n              jump(tag_60)\n            tag_61:\n              pop\n              pop\n              pop\n              pop\n              swap3\n              pop\n              dup2\n              dup1\n              sload\n              tag_68\n              swap1\n              tag_52\n              jump\t// in\n            tag_68:\n              dup1\n              0x1f\n              add\n              0x20\n              dup1\n              swap2\n              div\n              mul\n              0x20\n              add\n              mload(0x40)\n              swap1\n              dup2\n              add\n              0x40\n              mstore\n              dup1\n              swap3\n              swap2\n              swap1\n              dup2\n              dup2\n              mstore\n              0x20\n              add\n              dup3\n              dup1\n              sload\n              tag_69\n              swap1\n              tag_52\n              jump\t// in\n            tag_69:\n              dup1\n              iszero\n              tag_70\n              jumpi\n              dup1\n              0x1f\n              lt\n              tag_71\n              jumpi\n              0x0100\n              dup1\n              dup4\n              sload\n              div\n              mul\n              dup4\n              mstore\n              swap2\n              0x20\n              add\n              swap2\n              jump(tag_70)\n            tag_71:\n              dup3\n              add\n              swap2\n              swap1\n              0x00\n              mstore\n              keccak256(0x00, 0x20)\n              swap1\n            tag_72:\n              dup2\n              sload\n              dup2\n              mstore\n              swap1\n              0x01\n              add\n              swap1\n              0x20\n              add\n              dup1\n              dup4\n              gt\n              tag_72\n              jumpi\n              dup3\n              swap1\n              sub\n              0x1f\n              and\n              dup3\n              add\n              swap2\n            tag_70:\n              pop\n              pop\n              pop\n              pop\n              pop\n              swap2\n              pop\n              dup1\n              dup1\n              sload\n              tag_73\n              swap1\n              tag_52\n              jump\t// in\n            tag_73:\n              dup1\n              0x1f\n              add\n              0x20\n              dup1\n              swap2\n              div\n              mul\n              0x20\n              add\n              mload(0x40)\n              swap1\n              dup2\n              add\n              0x40\n              mstore\n              dup1\n              swap3\n              swap2\n              swap1\n              dup2\n              dup2\n              mstore\n              0x20\n              add\n              dup3\n              dup1\n              sload\n              tag_74\n              swap1\n              tag_52\n              jump\t// in\n            tag_74:\n              dup1\n              iszero\n              tag_75\n              jumpi\n              dup1\n              0x1f\n              lt\n              tag_76\n              jumpi\n              0x0100\n              dup1\n              dup4\n              sload\n              div\n              mul\n              dup4\n              mstore\n              swap2\n              0x20\n              add\n              swap2\n              jump(tag_75)\n            tag_76:\n              dup3\n              add\n              swap2\n              swap1\n              0x00\n              mstore\n              keccak256(0x00, 0x20)\n              swap1\n            tag_77:\n              dup2\n              sload\n              dup2\n              mstore\n              swap1\n              0x01\n              add\n              swap1\n              0x20\n              add\n              dup1\n              dup4\n              gt\n              tag_77\n              jumpi\n              dup3\n              swap1\n              sub\n              0x1f\n              and\n              dup3\n              add\n              swap2\n            tag_75:\n              pop\n              pop\n              pop\n              pop\n              pop\n              swap1\n              pop\n              swap4\n              pop\n              swap4\n              pop\n              swap4\n              pop\n              swap4\n              pop\n                /* \"Story.sol\":2473:2747  function getSummary() public view returns (... */\n              swap1\n              swap2\n              swap3\n              swap4\n              jump\t// out\n                /* \"Story.sol\":793:810  string public pem */\n            tag_28:\n              0x03\n              dup1\n              sload\n              tag_78\n              swap1\n              tag_52\n              jump\t// in\n            tag_78:\n              dup1\n              0x1f\n              add\n              0x20\n              dup1\n              swap2\n              div\n              mul\n              0x20\n              add\n              mload(0x40)\n              swap1\n              dup2\n              add\n              0x40\n              mstore\n              dup1\n              swap3\n              swap2\n              swap1\n              dup2\n              dup2\n              mstore\n              0x20\n              add\n              dup3\n              dup1\n              sload\n              tag_79\n              swap1\n              tag_52\n              jump\t// in\n            tag_79:\n              dup1\n              iszero\n              tag_80\n              jumpi\n              dup1\n              0x1f\n              lt\n              tag_81\n              jumpi\n              0x0100\n              dup1\n              dup4\n              sload\n              div\n              mul\n              dup4\n              mstore\n              swap2\n              0x20\n              add\n              swap2\n              jump(tag_80)\n            tag_81:\n              dup3\n              add\n              swap2\n              swap1\n              0x00\n              mstore\n              keccak256(0x00, 0x20)\n              swap1\n            tag_82:\n              dup2\n              sload\n              dup2\n              mstore\n              swap1\n              0x01\n              add\n              swap1\n              0x20\n              add\n              dup1\n              dup4\n              gt\n              tag_82\n              jumpi\n              dup3\n              swap1\n              sub\n              0x1f\n              and\n              dup3\n              add\n              swap2\n            tag_80:\n              pop\n              pop\n              pop\n              pop\n              pop\n              dup2\n              jump\t// out\n                /* \"Story.sol\":2755:2857  function isAuthor() public view returns (bool){... */\n            tag_31:\n                /* \"Story.sol\":2796:2800  bool */\n              0x00\n                /* \"Story.sol\":2819:2837  authorsForSolidity */\n              dup1\n                /* \"Story.sol\":2819:2849  authorsForSolidity[msg.sender] */\n              0x00\n                /* \"Story.sol\":2838:2848  msg.sender */\n              caller\n                /* \"Story.sol\":2819:2849  authorsForSolidity[msg.sender] */\n              0xffffffffffffffffffffffffffffffffffffffff\n              and\n              0xffffffffffffffffffffffffffffffffffffffff\n              and\n              dup2\n              mstore\n              0x20\n              add\n              swap1\n              dup2\n              mstore\n              0x20\n              add\n              0x00\n              keccak256\n              0x00\n              swap1\n              sload\n              swap1\n              0x0100\n              exp\n              swap1\n              div\n              0xff\n              and\n                /* \"Story.sol\":2812:2849  return authorsForSolidity[msg.sender] */\n              swap1\n              pop\n                /* \"Story.sol\":2755:2857  function isAuthor() public view returns (bool){... */\n              swap1\n              jump\t// out\n                /* \"Story.sol\":935:972  RequestToJoin[] public requestsToJoin */\n            tag_36:\n              0x04\n              dup2\n              dup2\n              sload\n              dup2\n              lt\n              tag_84\n              jumpi\n              0x00\n              dup1\n              revert\n            tag_84:\n              swap1\n              0x00\n              mstore\n              keccak256(0x00, 0x20)\n              swap1\n              0x03\n              mul\n              add\n              0x00\n              swap2\n              pop\n              swap1\n              pop\n              dup1\n              0x00\n              add\n              dup1\n              sload\n              tag_86\n              swap1\n              tag_52\n              jump\t// in\n            tag_86:\n              dup1\n              0x1f\n              add\n              0x20\n              dup1\n              swap2\n              div\n              mul\n              0x20\n              add\n              mload(0x40)\n              swap1\n              dup2\n              add\n              0x40\n              mstore\n              dup1\n              swap3\n              swap2\n              swap1\n              dup2\n              dup2\n              mstore\n              0x20\n              add\n              dup3\n              dup1\n              sload\n              tag_87\n              swap1\n              tag_52\n              jump\t// in\n            tag_87:\n              dup1\n              iszero\n              tag_88\n              jumpi\n              dup1\n              0x1f\n              lt\n              tag_89\n              jumpi\n              0x0100\n              dup1\n              dup4\n              sload\n              div\n              mul\n              dup4\n              mstore\n              swap2\n              0x20\n              add\n              swap2\n              jump(tag_88)\n            tag_89:\n              dup3\n              add\n              swap2\n              swap1\n              0x00\n              mstore\n              keccak256(0x00, 0x20)\n              swap1\n            tag_90:\n              dup2\n              sload\n              dup2\n              mstore\n              swap1\n              0x01\n              add\n              swap1\n              0x20\n              add\n              dup1\n              dup4\n              gt\n              tag_90\n              jumpi\n              dup3\n              swap1\n              sub\n              0x1f\n              and\n              dup3\n              add\n              swap2\n            tag_88:\n              pop\n              pop\n              pop\n              pop\n              pop\n              swap1\n              dup1\n              0x01\n              add\n              sload\n              swap1\n              dup1\n              0x02\n              add\n              0x00\n              swap1\n              sload\n              swap1\n              0x0100\n              exp\n              swap1\n              div\n              0xffffffffffffffffffffffffffffffffffffffff\n              and\n              swap1\n              pop\n              dup4\n              jump\t// out\n                /* \"Story.sol\":1654:2465  function approveRequestToJoin(uint256 _index) public {... */\n            tag_41:\n                /* \"Story.sol\":1726:1744  authorsForSolidity */\n              0x00\n                /* \"Story.sol\":1726:1756  authorsForSolidity[msg.sender] */\n              dup1\n                /* \"Story.sol\":1745:1755  msg.sender */\n              caller\n                /* \"Story.sol\":1726:1756  authorsForSolidity[msg.sender] */\n              0xffffffffffffffffffffffffffffffffffffffff\n              and\n              0xffffffffffffffffffffffffffffffffffffffff\n              and\n              dup2\n              mstore\n              0x20\n              add\n              swap1\n              dup2\n              mstore\n              0x20\n              add\n              0x00\n              keccak256\n              0x00\n              swap1\n              sload\n              swap1\n              0x0100\n              exp\n              swap1\n              div\n              0xff\n              and\n                /* \"Story.sol\":1718:1806  require(authorsForSolidity[msg.sender], \"Only an accepted author can approve a request\") */\n              tag_92\n              jumpi\n              mload(0x40)\n              0x08c379a000000000000000000000000000000000000000000000000000000000\n              dup2\n              mstore\n              0x04\n              add\n              tag_93\n              swap1\n              tag_94\n              jump\t// in\n            tag_93:\n              mload(0x40)\n              dup1\n              swap2\n              sub\n              swap1\n              revert\n            tag_92:\n                /* \"Story.sol\":1826:1844  authorsForSolidity */\n              0x00\n                /* \"Story.sol\":1826:1875  authorsForSolidity[requestsToJoin[_index].author] */\n              dup1\n                /* \"Story.sol\":1845:1859  requestsToJoin */\n              0x04\n                /* \"Story.sol\":1860:1866  _index */\n              dup4\n                /* \"Story.sol\":1845:1867  requestsToJoin[_index] */\n              dup2\n              sload\n              dup2\n              lt\n              tag_95\n              jumpi\n              tag_96\n              tag_97\n              jump\t// in\n            tag_96:\n            tag_95:\n              swap1\n              0x00\n              mstore\n              keccak256(0x00, 0x20)\n              swap1\n              0x03\n              mul\n              add\n                /* \"Story.sol\":1845:1874  requestsToJoin[_index].author */\n              0x02\n              add\n              0x00\n              swap1\n              sload\n              swap1\n              0x0100\n              exp\n              swap1\n              div\n              0xffffffffffffffffffffffffffffffffffffffff\n              and\n                /* \"Story.sol\":1826:1875  authorsForSolidity[requestsToJoin[_index].author] */\n              0xffffffffffffffffffffffffffffffffffffffff\n              and\n              0xffffffffffffffffffffffffffffffffffffffff\n              and\n              dup2\n              mstore\n              0x20\n              add\n              swap1\n              dup2\n              mstore\n              0x20\n              add\n              0x00\n              keccak256\n              0x00\n              swap1\n              sload\n              swap1\n              0x0100\n              exp\n              swap1\n              div\n              0xff\n              and\n                /* \"Story.sol\":1825:1875  !authorsForSolidity[requestsToJoin[_index].author] */\n              iszero\n                /* \"Story.sol\":1817:1944  require(!authorsForSolidity[requestsToJoin[_index].author], \"Author of the request is already included in the list of authors\") */\n              tag_99\n              jumpi\n              mload(0x40)\n              0x08c379a000000000000000000000000000000000000000000000000000000000\n              dup2\n              mstore\n              0x04\n              add\n              tag_100\n              swap1\n              tag_101\n              jump\t// in\n            tag_100:\n              mload(0x40)\n              dup1\n              swap2\n              sub\n              swap1\n              revert\n            tag_99:\n                /* \"Story.sol\":1957:1974  uint256 lastIndex */\n              0x00\n                /* \"Story.sol\":2001:2002  1 */\n              0x01\n                /* \"Story.sol\":1977:1991  requestsToJoin */\n              0x04\n                /* \"Story.sol\":1977:1998  requestsToJoin.length */\n              dup1\n              sload\n              swap1\n              pop\n                /* \"Story.sol\":1977:2002  requestsToJoin.length - 1 */\n              tag_102\n              swap2\n              swap1\n              tag_103\n              jump\t// in\n            tag_102:\n                /* \"Story.sol\":1957:2002  uint256 lastIndex = requestsToJoin.length - 1 */\n              swap1\n              pop\n                /* \"Story.sol\":2096:2128  RequestToJoin memory lastRequest */\n              0x00\n                /* \"Story.sol\":2131:2145  requestsToJoin */\n              0x04\n                /* \"Story.sol\":2146:2155  lastIndex */\n              dup3\n                /* \"Story.sol\":2131:2156  requestsToJoin[lastIndex] */\n              dup2\n              sload\n              dup2\n              lt\n              tag_104\n              jumpi\n              tag_105\n              tag_97\n              jump\t// in\n            tag_105:\n            tag_104:\n              swap1\n              0x00\n              mstore\n              keccak256(0x00, 0x20)\n              swap1\n              0x03\n              mul\n              add\n                /* \"Story.sol\":2096:2156  RequestToJoin memory lastRequest = requestsToJoin[lastIndex] */\n              mload(0x40)\n              dup1\n              0x60\n              add\n              0x40\n              mstore\n              swap1\n              dup2\n              0x00\n              dup3\n              add\n              dup1\n              sload\n              tag_107\n              swap1\n              tag_52\n              jump\t// in\n            tag_107:\n              dup1\n              0x1f\n              add\n              0x20\n              dup1\n              swap2\n              div\n              mul\n              0x20\n              add\n              mload(0x40)\n              swap1\n              dup2\n              add\n              0x40\n              mstore\n              dup1\n              swap3\n              swap2\n              swap1\n              dup2\n              dup2\n              mstore\n              0x20\n              add\n              dup3\n              dup1\n              sload\n              tag_108\n              swap1\n              tag_52\n              jump\t// in\n            tag_108:\n              dup1\n              iszero\n              tag_109\n              jumpi\n              dup1\n              0x1f\n              lt\n              tag_110\n              jumpi\n              0x0100\n              dup1\n              dup4\n              sload\n              div\n              mul\n              dup4\n              mstore\n              swap2\n              0x20\n              add\n              swap2\n              jump(tag_109)\n            tag_110:\n              dup3\n              add\n              swap2\n              swap1\n              0x00\n              mstore\n              keccak256(0x00, 0x20)\n              swap1\n            tag_111:\n              dup2\n              sload\n              dup2\n              mstore\n              swap1\n              0x01\n              add\n              swap1\n              0x20\n              add\n              dup1\n              dup4\n              gt\n              tag_111\n              jumpi\n              dup3\n              swap1\n              sub\n              0x1f\n              and\n              dup3\n              add\n              swap2\n            tag_109:\n              pop\n              pop\n              pop\n              pop\n              pop\n              dup2\n              mstore\n              0x20\n              add\n              0x01\n              dup3\n              add\n              sload\n              dup2\n              mstore\n              0x20\n              add\n              0x02\n              dup3\n              add\n              0x00\n              swap1\n              sload\n              swap1\n              0x0100\n              exp\n              swap1\n              div\n              0xffffffffffffffffffffffffffffffffffffffff\n              and\n              0xffffffffffffffffffffffffffffffffffffffff\n              and\n              0xffffffffffffffffffffffffffffffffffffffff\n              and\n              dup2\n              mstore\n              pop\n              pop\n              swap1\n              pop\n                /* \"Story.sol\":2192:2203  lastRequest */\n              dup1\n                /* \"Story.sol\":2167:2181  requestsToJoin */\n              0x04\n                /* \"Story.sol\":2182:2188  _index */\n              dup5\n                /* \"Story.sol\":2167:2189  requestsToJoin[_index] */\n              dup2\n              sload\n              dup2\n              lt\n              tag_112\n              jumpi\n              tag_113\n              tag_97\n              jump\t// in\n            tag_113:\n            tag_112:\n              swap1\n              0x00\n              mstore\n              keccak256(0x00, 0x20)\n              swap1\n              0x03\n              mul\n              add\n                /* \"Story.sol\":2167:2203  requestsToJoin[_index] = lastRequest */\n              0x00\n              dup3\n              add\n              mload\n              dup2\n              0x00\n              add\n              swap1\n              dup1\n              mload\n              swap1\n              0x20\n              add\n              swap1\n              tag_115\n              swap3\n              swap2\n              swap1\n              tag_116\n              jump\t// in\n            tag_115:\n              pop\n              0x20\n              dup3\n              add\n              mload\n              dup2\n              0x01\n              add\n              sstore\n              0x40\n              dup3\n              add\n              mload\n              dup2\n              0x02\n              add\n              exp(0x0100, 0x00)\n              dup2\n              sload\n              dup2\n              0xffffffffffffffffffffffffffffffffffffffff\n              mul\n              not\n              and\n              swap1\n              dup4\n              0xffffffffffffffffffffffffffffffffffffffff\n              and\n              mul\n              or\n              swap1\n              sstore\n              pop\n              swap1\n              pop\n              pop\n                /* \"Story.sol\":2279:2293  requestsToJoin */\n              0x04\n                /* \"Story.sol\":2279:2299  requestsToJoin.pop() */\n              dup1\n              sload\n              dup1\n              tag_117\n              jumpi\n              tag_118\n              tag_119\n              jump\t// in\n            tag_118:\n            tag_117:\n              0x01\n              swap1\n              sub\n              dup2\n              dup2\n              swap1\n              0x00\n              mstore\n              keccak256(0x00, 0x20)\n              swap1\n              0x03\n              mul\n              add\n              0x00\n              dup1\n              dup3\n              add\n              0x00\n              tag_121\n              swap2\n              swap1\n              tag_122\n              jump\t// in\n            tag_121:\n              0x01\n              dup3\n              add\n              0x00\n              swap1\n              sstore\n              0x02\n              dup3\n              add\n              exp(0x0100, 0x00)\n              dup2\n              sload\n              swap1\n              0xffffffffffffffffffffffffffffffffffffffff\n              mul\n              not\n              and\n              swap1\n              sstore\n              pop\n              pop\n              swap1\n              sstore\n                /* \"Story.sol\":2402:2406  true */\n              0x01\n                /* \"Story.sol\":2361:2379  authorsForSolidity */\n              0x00\n                /* \"Story.sol\":2361:2399  authorsForSolidity[lastRequest.author] */\n              dup1\n                /* \"Story.sol\":2380:2391  lastRequest */\n              dup4\n                /* \"Story.sol\":2380:2398  lastRequest.author */\n              0x40\n              add\n              mload\n                /* \"Story.sol\":2361:2399  authorsForSolidity[lastRequest.author] */\n              0xffffffffffffffffffffffffffffffffffffffff\n              and\n              0xffffffffffffffffffffffffffffffffffffffff\n              and\n              dup2\n              mstore\n              0x20\n              add\n              swap1\n              dup2\n              mstore\n              0x20\n              add\n              0x00\n              keccak256\n              0x00\n                /* \"Story.sol\":2361:2406  authorsForSolidity[lastRequest.author] = true */\n              0x0100\n              exp\n              dup2\n              sload\n              dup2\n              0xff\n              mul\n              not\n              and\n              swap1\n              dup4\n              iszero\n              iszero\n              mul\n              or\n              swap1\n              sstore\n              pop\n                /* \"Story.sol\":2417:2432  authorsForReact */\n              0x01\n                /* \"Story.sol\":2438:2449  lastRequest */\n              dup2\n                /* \"Story.sol\":2438:2456  lastRequest.author */\n              0x40\n              add\n              mload\n                /* \"Story.sol\":2417:2457  authorsForReact.push(lastRequest.author) */\n              swap1\n              dup1\n              0x01\n              dup2\n              sload\n              add\n              dup1\n              dup3\n              sstore\n              dup1\n              swap2\n              pop\n              pop\n              0x01\n              swap1\n              sub\n              swap1\n              0x00\n              mstore\n              keccak256(0x00, 0x20)\n              add\n              0x00\n              swap1\n              swap2\n              swap1\n              swap2\n              swap1\n              swap2\n              0x0100\n              exp\n              dup2\n              sload\n              dup2\n              0xffffffffffffffffffffffffffffffffffffffff\n              mul\n              not\n              and\n              swap1\n              dup4\n              0xffffffffffffffffffffffffffffffffffffffff\n              and\n              mul\n              or\n              swap1\n              sstore\n              pop\n                /* \"Story.sol\":1707:2465  {... */\n              pop\n              pop\n                /* \"Story.sol\":1654:2465  function approveRequestToJoin(uint256 _index) public {... */\n              pop\n              jump\t// out\n                /* \"Story.sol\":714:746  address[] public authorsForReact */\n            tag_44:\n              0x01\n              dup2\n              dup2\n              sload\n              dup2\n              lt\n              tag_124\n              jumpi\n              0x00\n              dup1\n              revert\n            tag_124:\n              swap1\n              0x00\n              mstore\n              keccak256(0x00, 0x20)\n              add\n              0x00\n              swap2\n              pop\n              sload\n              swap1\n              0x0100\n              exp\n              swap1\n              div\n              0xffffffffffffffffffffffffffffffffffffffff\n              and\n              dup2\n              jump\t// out\n                /* \"Story.sol\":1253:1646  function createRequestToJoin(string memory _proposal) public {... */\n            tag_50:\n                /* \"Story.sol\":1334:1352  authorsForSolidity */\n              0x00\n                /* \"Story.sol\":1334:1364  authorsForSolidity[msg.sender] */\n              dup1\n                /* \"Story.sol\":1353:1363  msg.sender */\n              caller\n                /* \"Story.sol\":1334:1364  authorsForSolidity[msg.sender] */\n              0xffffffffffffffffffffffffffffffffffffffff\n              and\n              0xffffffffffffffffffffffffffffffffffffffff\n              and\n              dup2\n              mstore\n              0x20\n              add\n              swap1\n              dup2\n              mstore\n              0x20\n              add\n              0x00\n              keccak256\n              0x00\n              swap1\n              sload\n              swap1\n              0x0100\n              exp\n              swap1\n              div\n              0xff\n              and\n                /* \"Story.sol\":1333:1364  !authorsForSolidity[msg.sender] */\n              iszero\n                /* \"Story.sol\":1325:1413  require(!authorsForSolidity[msg.sender], \"Author already exists in the list of authors\") */\n              tag_127\n              jumpi\n              mload(0x40)\n              0x08c379a000000000000000000000000000000000000000000000000000000000\n              dup2\n              mstore\n              0x04\n              add\n              tag_128\n              swap1\n              tag_129\n              jump\t// in\n            tag_128:\n              mload(0x40)\n              dup1\n              swap2\n              sub\n              swap1\n              revert\n            tag_127:\n                /* \"Story.sol\":1426:1457  RequestToJoin memory newRequest */\n              0x00\n                /* \"Story.sol\":1460:1594  RequestToJoin({... */\n              mload(0x40)\n              dup1\n              0x60\n              add\n              0x40\n              mstore\n              dup1\n                /* \"Story.sol\":1499:1508  _proposal */\n              dup4\n                /* \"Story.sol\":1460:1594  RequestToJoin({... */\n              dup2\n              mstore\n              0x20\n              add\n                /* \"Story.sol\":1534:1549  block.timestamp */\n              timestamp\n                /* \"Story.sol\":1460:1594  RequestToJoin({... */\n              dup2\n              mstore\n              0x20\n              add\n                /* \"Story.sol\":1572:1582  msg.sender */\n              caller\n                /* \"Story.sol\":1460:1594  RequestToJoin({... */\n              0xffffffffffffffffffffffffffffffffffffffff\n              and\n              dup2\n              mstore\n              pop\n                /* \"Story.sol\":1426:1594  RequestToJoin memory newRequest = RequestToJoin({... */\n              swap1\n              pop\n                /* \"Story.sol\":1607:1621  requestsToJoin */\n              0x04\n                /* \"Story.sol\":1627:1637  newRequest */\n              dup2\n                /* \"Story.sol\":1607:1638  requestsToJoin.push(newRequest) */\n              swap1\n              dup1\n              0x01\n              dup2\n              sload\n              add\n              dup1\n              dup3\n              sstore\n              dup1\n              swap2\n              pop\n              pop\n              0x01\n              swap1\n              sub\n              swap1\n              0x00\n              mstore\n              keccak256(0x00, 0x20)\n              swap1\n              0x03\n              mul\n              add\n              0x00\n              swap1\n              swap2\n              swap1\n              swap2\n              swap1\n              swap2\n              pop\n              0x00\n              dup3\n              add\n              mload\n              dup2\n              0x00\n              add\n              swap1\n              dup1\n              mload\n              swap1\n              0x20\n              add\n              swap1\n              tag_131\n              swap3\n              swap2\n              swap1\n              tag_116\n              jump\t// in\n            tag_131:\n              pop\n              0x20\n              dup3\n              add\n              mload\n              dup2\n              0x01\n              add\n              sstore\n              0x40\n              dup3\n              add\n              mload\n              dup2\n              0x02\n              add\n              exp(0x0100, 0x00)\n              dup2\n              sload\n              dup2\n              0xffffffffffffffffffffffffffffffffffffffff\n              mul\n              not\n              and\n              swap1\n              dup4\n              0xffffffffffffffffffffffffffffffffffffffff\n              and\n              mul\n              or\n              swap1\n              sstore\n              pop\n              pop\n              pop\n                /* \"Story.sol\":1314:1646  {... */\n              pop\n                /* \"Story.sol\":1253:1646  function createRequestToJoin(string memory _proposal) public {... */\n              pop\n              jump\t// out\n            tag_116:\n              dup3\n              dup1\n              sload\n              tag_132\n              swap1\n              tag_52\n              jump\t// in\n            tag_132:\n              swap1\n              0x00\n              mstore\n              keccak256(0x00, 0x20)\n              swap1\n              0x1f\n              add\n              0x20\n              swap1\n              div\n              dup2\n              add\n              swap3\n              dup3\n              tag_134\n              jumpi\n              0x00\n              dup6\n              sstore\n              jump(tag_133)\n            tag_134:\n              dup3\n              0x1f\n              lt\n              tag_135\n              jumpi\n              dup1\n              mload\n              not(0xff)\n              and\n              dup4\n              dup1\n              add\n              or\n              dup6\n              sstore\n              jump(tag_133)\n            tag_135:\n              dup3\n              dup1\n              add\n              0x01\n              add\n              dup6\n              sstore\n              dup3\n              iszero\n              tag_133\n              jumpi\n              swap2\n              dup3\n              add\n            tag_136:\n              dup3\n              dup2\n              gt\n              iszero\n              tag_137\n              jumpi\n              dup3\n              mload\n              dup3\n              sstore\n              swap2\n              0x20\n              add\n              swap2\n              swap1\n              0x01\n              add\n              swap1\n              jump(tag_136)\n            tag_137:\n            tag_133:\n              pop\n              swap1\n              pop\n              tag_138\n              swap2\n              swap1\n              tag_139\n              jump\t// in\n            tag_138:\n              pop\n              swap1\n              jump\t// out\n            tag_122:\n              pop\n              dup1\n              sload\n              tag_140\n              swap1\n              tag_52\n              jump\t// in\n            tag_140:\n              0x00\n              dup3\n              sstore\n              dup1\n              0x1f\n              lt\n              tag_142\n              jumpi\n              pop\n              jump(tag_141)\n            tag_142:\n              0x1f\n              add\n              0x20\n              swap1\n              div\n              swap1\n              0x00\n              mstore\n              keccak256(0x00, 0x20)\n              swap1\n              dup2\n              add\n              swap1\n              tag_143\n              swap2\n              swap1\n              tag_139\n              jump\t// in\n            tag_143:\n            tag_141:\n              pop\n              jump\t// out\n            tag_139:\n            tag_144:\n              dup1\n              dup3\n              gt\n              iszero\n              tag_145\n              jumpi\n              0x00\n              dup2\n              0x00\n              swap1\n              sstore\n              pop\n              0x01\n              add\n              jump(tag_144)\n            tag_145:\n              pop\n              swap1\n              jump\t// out\n                /* \"#utility.yul\":7:106   */\n            tag_146:\n                /* \"#utility.yul\":59:65   */\n              0x00\n                /* \"#utility.yul\":93:98   */\n              dup2\n                /* \"#utility.yul\":87:99   */\n              mload\n                /* \"#utility.yul\":77:99   */\n              swap1\n              pop\n                /* \"#utility.yul\":7:106   */\n              swap2\n              swap1\n              pop\n              jump\t// out\n                /* \"#utility.yul\":112:281   */\n            tag_147:\n                /* \"#utility.yul\":196:207   */\n              0x00\n                /* \"#utility.yul\":230:236   */\n              dup3\n                /* \"#utility.yul\":225:228   */\n              dup3\n                /* \"#utility.yul\":218:237   */\n              mstore\n                /* \"#utility.yul\":270:274   */\n              0x20\n                /* \"#utility.yul\":265:268   */\n              dup3\n                /* \"#utility.yul\":261:275   */\n              add\n                /* \"#utility.yul\":246:275   */\n              swap1\n              pop\n                /* \"#utility.yul\":112:281   */\n              swap3\n              swap2\n              pop\n              pop\n              jump\t// out\n                /* \"#utility.yul\":287:594   */\n            tag_148:\n                /* \"#utility.yul\":355:356   */\n              0x00\n                /* \"#utility.yul\":365:478   */\n            tag_203:\n                /* \"#utility.yul\":379:385   */\n              dup4\n                /* \"#utility.yul\":376:377   */\n              dup2\n                /* \"#utility.yul\":373:386   */\n              lt\n                /* \"#utility.yul\":365:478   */\n              iszero\n              tag_205\n              jumpi\n                /* \"#utility.yul\":464:465   */\n              dup1\n                /* \"#utility.yul\":459:462   */\n              dup3\n                /* \"#utility.yul\":455:466   */\n              add\n                /* \"#utility.yul\":449:467   */\n              mload\n                /* \"#utility.yul\":445:446   */\n              dup2\n                /* \"#utility.yul\":440:443   */\n              dup5\n                /* \"#utility.yul\":436:447   */\n              add\n                /* \"#utility.yul\":429:468   */\n              mstore\n                /* \"#utility.yul\":401:403   */\n              0x20\n                /* \"#utility.yul\":398:399   */\n              dup2\n                /* \"#utility.yul\":394:404   */\n              add\n                /* \"#utility.yul\":389:404   */\n              swap1\n              pop\n                /* \"#utility.yul\":365:478   */\n              jump(tag_203)\n            tag_205:\n                /* \"#utility.yul\":496:502   */\n              dup4\n                /* \"#utility.yul\":493:494   */\n              dup2\n                /* \"#utility.yul\":490:503   */\n              gt\n                /* \"#utility.yul\":487:588   */\n              iszero\n              tag_206\n              jumpi\n                /* \"#utility.yul\":576:577   */\n              0x00\n                /* \"#utility.yul\":567:573   */\n              dup5\n                /* \"#utility.yul\":562:565   */\n              dup5\n                /* \"#utility.yul\":558:574   */\n              add\n                /* \"#utility.yul\":551:578   */\n              mstore\n                /* \"#utility.yul\":487:588   */\n            tag_206:\n                /* \"#utility.yul\":336:594   */\n              pop\n                /* \"#utility.yul\":287:594   */\n              pop\n              pop\n              pop\n              jump\t// out\n                /* \"#utility.yul\":600:702   */\n            tag_149:\n                /* \"#utility.yul\":641:647   */\n              0x00\n                /* \"#utility.yul\":692:694   */\n              0x1f\n                /* \"#utility.yul\":688:695   */\n              not\n                /* \"#utility.yul\":683:685   */\n              0x1f\n                /* \"#utility.yul\":676:681   */\n              dup4\n                /* \"#utility.yul\":672:686   */\n              add\n                /* \"#utility.yul\":668:696   */\n              and\n                /* \"#utility.yul\":658:696   */\n              swap1\n              pop\n                /* \"#utility.yul\":600:702   */\n              swap2\n              swap1\n              pop\n              jump\t// out\n                /* \"#utility.yul\":708:1072   */\n            tag_150:\n                /* \"#utility.yul\":796:799   */\n              0x00\n                /* \"#utility.yul\":824:863   */\n              tag_209\n                /* \"#utility.yul\":857:862   */\n              dup3\n                /* \"#utility.yul\":824:863   */\n              tag_146\n              jump\t// in\n            tag_209:\n                /* \"#utility.yul\":879:950   */\n              tag_210\n                /* \"#utility.yul\":943:949   */\n              dup2\n                /* \"#utility.yul\":938:941   */\n              dup6\n                /* \"#utility.yul\":879:950   */\n              tag_147\n              jump\t// in\n            tag_210:\n                /* \"#utility.yul\":872:950   */\n              swap4\n              pop\n                /* \"#utility.yul\":959:1011   */\n              tag_211\n                /* \"#utility.yul\":1004:1010   */\n              dup2\n                /* \"#utility.yul\":999:1002   */\n              dup6\n                /* \"#utility.yul\":992:996   */\n              0x20\n                /* \"#utility.yul\":985:990   */\n              dup7\n                /* \"#utility.yul\":981:997   */\n              add\n                /* \"#utility.yul\":959:1011   */\n              tag_148\n              jump\t// in\n            tag_211:\n                /* \"#utility.yul\":1036:1065   */\n              tag_212\n                /* \"#utility.yul\":1058:1064   */\n              dup2\n                /* \"#utility.yul\":1036:1065   */\n              tag_149\n              jump\t// in\n            tag_212:\n                /* \"#utility.yul\":1031:1034   */\n              dup5\n                /* \"#utility.yul\":1027:1066   */\n              add\n                /* \"#utility.yul\":1020:1066   */\n              swap2\n              pop\n                /* \"#utility.yul\":800:1072   */\n              pop\n                /* \"#utility.yul\":708:1072   */\n              swap3\n              swap2\n              pop\n              pop\n              jump\t// out\n                /* \"#utility.yul\":1078:1391   */\n            tag_16:\n                /* \"#utility.yul\":1191:1195   */\n              0x00\n                /* \"#utility.yul\":1229:1231   */\n              0x20\n                /* \"#utility.yul\":1218:1227   */\n              dup3\n                /* \"#utility.yul\":1214:1232   */\n              add\n                /* \"#utility.yul\":1206:1232   */\n              swap1\n              pop\n                /* \"#utility.yul\":1278:1287   */\n              dup2\n                /* \"#utility.yul\":1272:1276   */\n              dup2\n                /* \"#utility.yul\":1268:1288   */\n              sub\n                /* \"#utility.yul\":1264:1265   */\n              0x00\n                /* \"#utility.yul\":1253:1262   */\n              dup4\n                /* \"#utility.yul\":1249:1266   */\n              add\n                /* \"#utility.yul\":1242:1289   */\n              mstore\n                /* \"#utility.yul\":1306:1384   */\n              tag_214\n                /* \"#utility.yul\":1379:1383   */\n              dup2\n                /* \"#utility.yul\":1370:1376   */\n              dup5\n                /* \"#utility.yul\":1306:1384   */\n              tag_150\n              jump\t// in\n            tag_214:\n                /* \"#utility.yul\":1298:1384   */\n              swap1\n              pop\n                /* \"#utility.yul\":1078:1391   */\n              swap3\n              swap2\n              pop\n              pop\n              jump\t// out\n                /* \"#utility.yul\":1397:1472   */\n            tag_151:\n                /* \"#utility.yul\":1430:1436   */\n              0x00\n                /* \"#utility.yul\":1463:1465   */\n              0x40\n                /* \"#utility.yul\":1457:1466   */\n              mload\n                /* \"#utility.yul\":1447:1466   */\n              swap1\n              pop\n                /* \"#utility.yul\":1397:1472   */\n              swap1\n              jump\t// out\n                /* \"#utility.yul\":1478:1595   */\n            tag_152:\n                /* \"#utility.yul\":1587:1588   */\n              0x00\n                /* \"#utility.yul\":1584:1585   */\n              dup1\n                /* \"#utility.yul\":1577:1589   */\n              revert\n                /* \"#utility.yul\":1601:1718   */\n            tag_153:\n                /* \"#utility.yul\":1710:1711   */\n              0x00\n                /* \"#utility.yul\":1707:1708   */\n              dup1\n                /* \"#utility.yul\":1700:1712   */\n              revert\n                /* \"#utility.yul\":1724:1850   */\n            tag_154:\n                /* \"#utility.yul\":1761:1768   */\n              0x00\n                /* \"#utility.yul\":1801:1843   */\n              0xffffffffffffffffffffffffffffffffffffffff\n                /* \"#utility.yul\":1794:1799   */\n              dup3\n                /* \"#utility.yul\":1790:1844   */\n              and\n                /* \"#utility.yul\":1779:1844   */\n              swap1\n              pop\n                /* \"#utility.yul\":1724:1850   */\n              swap2\n              swap1\n              pop\n              jump\t// out\n                /* \"#utility.yul\":1856:1952   */\n            tag_155:\n                /* \"#utility.yul\":1893:1900   */\n              0x00\n                /* \"#utility.yul\":1922:1946   */\n              tag_220\n                /* \"#utility.yul\":1940:1945   */\n              dup3\n                /* \"#utility.yul\":1922:1946   */\n              tag_154\n              jump\t// in\n            tag_220:\n                /* \"#utility.yul\":1911:1946   */\n              swap1\n              pop\n                /* \"#utility.yul\":1856:1952   */\n              swap2\n              swap1\n              pop\n              jump\t// out\n                /* \"#utility.yul\":1958:2080   */\n            tag_156:\n                /* \"#utility.yul\":2031:2055   */\n              tag_222\n                /* \"#utility.yul\":2049:2054   */\n              dup2\n                /* \"#utility.yul\":2031:2055   */\n              tag_155\n              jump\t// in\n            tag_222:\n                /* \"#utility.yul\":2024:2029   */\n              dup2\n                /* \"#utility.yul\":2021:2056   */\n              eq\n                /* \"#utility.yul\":2011:2074   */\n              tag_223\n              jumpi\n                /* \"#utility.yul\":2070:2071   */\n              0x00\n                /* \"#utility.yul\":2067:2068   */\n              dup1\n                /* \"#utility.yul\":2060:2072   */\n              revert\n                /* \"#utility.yul\":2011:2074   */\n            tag_223:\n                /* \"#utility.yul\":1958:2080   */\n              pop\n              jump\t// out\n                /* \"#utility.yul\":2086:2225   */\n            tag_157:\n                /* \"#utility.yul\":2132:2137   */\n              0x00\n                /* \"#utility.yul\":2170:2176   */\n              dup2\n                /* \"#utility.yul\":2157:2177   */\n              calldataload\n                /* \"#utility.yul\":2148:2177   */\n              swap1\n              pop\n                /* \"#utility.yul\":2186:2219   */\n              tag_225\n                /* \"#utility.yul\":2213:2218   */\n              dup2\n                /* \"#utility.yul\":2186:2219   */\n              tag_156\n              jump\t// in\n            tag_225:\n                /* \"#utility.yul\":2086:2225   */\n              swap3\n              swap2\n              pop\n              pop\n              jump\t// out\n                /* \"#utility.yul\":2231:2560   */\n            tag_19:\n                /* \"#utility.yul\":2290:2296   */\n              0x00\n                /* \"#utility.yul\":2339:2341   */\n              0x20\n                /* \"#utility.yul\":2327:2336   */\n              dup3\n                /* \"#utility.yul\":2318:2325   */\n              dup5\n                /* \"#utility.yul\":2314:2337   */\n              sub\n                /* \"#utility.yul\":2310:2342   */\n              slt\n                /* \"#utility.yul\":2307:2426   */\n              iszero\n              tag_227\n              jumpi\n                /* \"#utility.yul\":2345:2424   */\n              tag_228\n              tag_152\n              jump\t// in\n            tag_228:\n                /* \"#utility.yul\":2307:2426   */\n            tag_227:\n                /* \"#utility.yul\":2465:2466   */\n              0x00\n                /* \"#utility.yul\":2490:2543   */\n              tag_229\n                /* \"#utility.yul\":2535:2542   */\n              dup5\n                /* \"#utility.yul\":2526:2532   */\n              dup3\n                /* \"#utility.yul\":2515:2524   */\n              dup6\n                /* \"#utility.yul\":2511:2533   */\n              add\n                /* \"#utility.yul\":2490:2543   */\n              tag_157\n              jump\t// in\n            tag_229:\n                /* \"#utility.yul\":2480:2543   */\n              swap2\n              pop\n                /* \"#utility.yul\":2436:2553   */\n              pop\n                /* \"#utility.yul\":2231:2560   */\n              swap3\n              swap2\n              pop\n              pop\n              jump\t// out\n                /* \"#utility.yul\":2566:2656   */\n            tag_158:\n                /* \"#utility.yul\":2600:2607   */\n              0x00\n                /* \"#utility.yul\":2643:2648   */\n              dup2\n                /* \"#utility.yul\":2636:2649   */\n              iszero\n                /* \"#utility.yul\":2629:2650   */\n              iszero\n                /* \"#utility.yul\":2618:2650   */\n              swap1\n              pop\n                /* \"#utility.yul\":2566:2656   */\n              swap2\n              swap1\n              pop\n              jump\t// out\n                /* \"#utility.yul\":2662:2771   */\n            tag_159:\n                /* \"#utility.yul\":2743:2764   */\n              tag_232\n                /* \"#utility.yul\":2758:2763   */\n              dup2\n                /* \"#utility.yul\":2743:2764   */\n              tag_158\n              jump\t// in\n            tag_232:\n                /* \"#utility.yul\":2738:2741   */\n              dup3\n                /* \"#utility.yul\":2731:2765   */\n              mstore\n                /* \"#utility.yul\":2662:2771   */\n              pop\n              pop\n              jump\t// out\n                /* \"#utility.yul\":2777:2987   */\n            tag_22:\n                /* \"#utility.yul\":2864:2868   */\n              0x00\n                /* \"#utility.yul\":2902:2904   */\n              0x20\n                /* \"#utility.yul\":2891:2900   */\n              dup3\n                /* \"#utility.yul\":2887:2905   */\n              add\n                /* \"#utility.yul\":2879:2905   */\n              swap1\n              pop\n                /* \"#utility.yul\":2915:2980   */\n              tag_234\n                /* \"#utility.yul\":2977:2978   */\n              0x00\n                /* \"#utility.yul\":2966:2975   */\n              dup4\n                /* \"#utility.yul\":2962:2979   */\n              add\n                /* \"#utility.yul\":2953:2959   */\n              dup5\n                /* \"#utility.yul\":2915:2980   */\n              tag_159\n              jump\t// in\n            tag_234:\n                /* \"#utility.yul\":2777:2987   */\n              swap3\n              swap2\n              pop\n              pop\n              jump\t// out\n                /* \"#utility.yul\":2993:3107   */\n            tag_160:\n                /* \"#utility.yul\":3060:3066   */\n              0x00\n                /* \"#utility.yul\":3094:3099   */\n              dup2\n                /* \"#utility.yul\":3088:3100   */\n              mload\n                /* \"#utility.yul\":3078:3100   */\n              swap1\n              pop\n                /* \"#utility.yul\":2993:3107   */\n              swap2\n              swap1\n              pop\n              jump\t// out\n                /* \"#utility.yul\":3113:3297   */\n            tag_161:\n                /* \"#utility.yul\":3212:3223   */\n              0x00\n                /* \"#utility.yul\":3246:3252   */\n              dup3\n                /* \"#utility.yul\":3241:3244   */\n              dup3\n                /* \"#utility.yul\":3234:3253   */\n              mstore\n                /* \"#utility.yul\":3286:3290   */\n              0x20\n                /* \"#utility.yul\":3281:3284   */\n              dup3\n                /* \"#utility.yul\":3277:3291   */\n              add\n                /* \"#utility.yul\":3262:3291   */\n              swap1\n              pop\n                /* \"#utility.yul\":3113:3297   */\n              swap3\n              swap2\n              pop\n              pop\n              jump\t// out\n                /* \"#utility.yul\":3303:3435   */\n            tag_162:\n                /* \"#utility.yul\":3370:3374   */\n              0x00\n                /* \"#utility.yul\":3393:3396   */\n              dup2\n                /* \"#utility.yul\":3385:3396   */\n              swap1\n              pop\n                /* \"#utility.yul\":3423:3427   */\n              0x20\n                /* \"#utility.yul\":3418:3421   */\n              dup3\n                /* \"#utility.yul\":3414:3428   */\n              add\n                /* \"#utility.yul\":3406:3428   */\n              swap1\n              pop\n                /* \"#utility.yul\":3303:3435   */\n              swap2\n              swap1\n              pop\n              jump\t// out\n                /* \"#utility.yul\":3441:3549   */\n            tag_163:\n                /* \"#utility.yul\":3518:3542   */\n              tag_239\n                /* \"#utility.yul\":3536:3541   */\n              dup2\n                /* \"#utility.yul\":3518:3542   */\n              tag_155\n              jump\t// in\n            tag_239:\n                /* \"#utility.yul\":3513:3516   */\n              dup3\n                /* \"#utility.yul\":3506:3543   */\n              mstore\n                /* \"#utility.yul\":3441:3549   */\n              pop\n              pop\n              jump\t// out\n                /* \"#utility.yul\":3555:3734   */\n            tag_164:\n                /* \"#utility.yul\":3624:3634   */\n              0x00\n                /* \"#utility.yul\":3645:3691   */\n              tag_241\n                /* \"#utility.yul\":3687:3690   */\n              dup4\n                /* \"#utility.yul\":3679:3685   */\n              dup4\n                /* \"#utility.yul\":3645:3691   */\n              tag_163\n              jump\t// in\n            tag_241:\n                /* \"#utility.yul\":3723:3727   */\n              0x20\n                /* \"#utility.yul\":3718:3721   */\n              dup4\n                /* \"#utility.yul\":3714:3728   */\n              add\n                /* \"#utility.yul\":3700:3728   */\n              swap1\n              pop\n                /* \"#utility.yul\":3555:3734   */\n              swap3\n              swap2\n              pop\n              pop\n              jump\t// out\n                /* \"#utility.yul\":3740:3853   */\n            tag_165:\n                /* \"#utility.yul\":3810:3814   */\n              0x00\n                /* \"#utility.yul\":3842:3846   */\n              0x20\n                /* \"#utility.yul\":3837:3840   */\n              dup3\n                /* \"#utility.yul\":3833:3847   */\n              add\n                /* \"#utility.yul\":3825:3847   */\n              swap1\n              pop\n                /* \"#utility.yul\":3740:3853   */\n              swap2\n              swap1\n              pop\n              jump\t// out\n                /* \"#utility.yul\":3889:4621   */\n            tag_166:\n                /* \"#utility.yul\":4008:4011   */\n              0x00\n                /* \"#utility.yul\":4037:4091   */\n              tag_244\n                /* \"#utility.yul\":4085:4090   */\n              dup3\n                /* \"#utility.yul\":4037:4091   */\n              tag_160\n              jump\t// in\n            tag_244:\n                /* \"#utility.yul\":4107:4193   */\n              tag_245\n                /* \"#utility.yul\":4186:4192   */\n              dup2\n                /* \"#utility.yul\":4181:4184   */\n              dup6\n                /* \"#utility.yul\":4107:4193   */\n              tag_161\n              jump\t// in\n            tag_245:\n                /* \"#utility.yul\":4100:4193   */\n              swap4\n              pop\n                /* \"#utility.yul\":4217:4273   */\n              tag_246\n                /* \"#utility.yul\":4267:4272   */\n              dup4\n                /* \"#utility.yul\":4217:4273   */\n              tag_162\n              jump\t// in\n            tag_246:\n                /* \"#utility.yul\":4296:4303   */\n              dup1\n                /* \"#utility.yul\":4327:4328   */\n              0x00\n                /* \"#utility.yul\":4312:4596   */\n            tag_247:\n                /* \"#utility.yul\":4337:4343   */\n              dup4\n                /* \"#utility.yul\":4334:4335   */\n              dup2\n                /* \"#utility.yul\":4331:4344   */\n              lt\n                /* \"#utility.yul\":4312:4596   */\n              iszero\n              tag_249\n              jumpi\n                /* \"#utility.yul\":4413:4419   */\n              dup2\n                /* \"#utility.yul\":4407:4420   */\n              mload\n                /* \"#utility.yul\":4440:4503   */\n              tag_250\n                /* \"#utility.yul\":4499:4502   */\n              dup9\n                /* \"#utility.yul\":4484:4497   */\n              dup3\n                /* \"#utility.yul\":4440:4503   */\n              tag_164\n              jump\t// in\n            tag_250:\n                /* \"#utility.yul\":4433:4503   */\n              swap8\n              pop\n                /* \"#utility.yul\":4526:4586   */\n              tag_251\n                /* \"#utility.yul\":4579:4585   */\n              dup4\n                /* \"#utility.yul\":4526:4586   */\n              tag_165\n              jump\t// in\n            tag_251:\n                /* \"#utility.yul\":4516:4586   */\n              swap3\n              pop\n                /* \"#utility.yul\":4372:4596   */\n              pop\n                /* \"#utility.yul\":4359:4360   */\n              0x01\n                /* \"#utility.yul\":4356:4357   */\n              dup2\n                /* \"#utility.yul\":4352:4361   */\n              add\n                /* \"#utility.yul\":4347:4361   */\n              swap1\n              pop\n                /* \"#utility.yul\":4312:4596   */\n              jump(tag_247)\n            tag_249:\n                /* \"#utility.yul\":4316:4330   */\n              pop\n                /* \"#utility.yul\":4612:4615   */\n              dup6\n                /* \"#utility.yul\":4605:4615   */\n              swap4\n              pop\n                /* \"#utility.yul\":4013:4621   */\n              pop\n              pop\n              pop\n                /* \"#utility.yul\":3889:4621   */\n              swap3\n              swap2\n              pop\n              pop\n              jump\t// out\n                /* \"#utility.yul\":4627:4770   */\n            tag_167:\n                /* \"#utility.yul\":4723:4729   */\n              0x00\n                /* \"#utility.yul\":4757:4762   */\n              dup2\n                /* \"#utility.yul\":4751:4763   */\n              mload\n                /* \"#utility.yul\":4741:4763   */\n              swap1\n              pop\n                /* \"#utility.yul\":4627:4770   */\n              swap2\n              swap1\n              pop\n              jump\t// out\n                /* \"#utility.yul\":4776:4989   */\n            tag_168:\n                /* \"#utility.yul\":4904:4915   */\n              0x00\n                /* \"#utility.yul\":4938:4944   */\n              dup3\n                /* \"#utility.yul\":4933:4936   */\n              dup3\n                /* \"#utility.yul\":4926:4945   */\n              mstore\n                /* \"#utility.yul\":4978:4982   */\n              0x20\n                /* \"#utility.yul\":4973:4976   */\n              dup3\n                /* \"#utility.yul\":4969:4983   */\n              add\n                /* \"#utility.yul\":4954:4983   */\n              swap1\n              pop\n                /* \"#utility.yul\":4776:4989   */\n              swap3\n              swap2\n              pop\n              pop\n              jump\t// out\n                /* \"#utility.yul\":4995:5156   */\n            tag_169:\n                /* \"#utility.yul\":5091:5095   */\n              0x00\n                /* \"#utility.yul\":5114:5117   */\n              dup2\n                /* \"#utility.yul\":5106:5117   */\n              swap1\n              pop\n                /* \"#utility.yul\":5144:5148   */\n              0x20\n                /* \"#utility.yul\":5139:5142   */\n              dup3\n                /* \"#utility.yul\":5135:5149   */\n              add\n                /* \"#utility.yul\":5127:5149   */\n              swap1\n              pop\n                /* \"#utility.yul\":4995:5156   */\n              swap2\n              swap1\n              pop\n              jump\t// out\n                /* \"#utility.yul\":5162:5321   */\n            tag_170:\n                /* \"#utility.yul\":5236:5247   */\n              0x00\n                /* \"#utility.yul\":5270:5276   */\n              dup3\n                /* \"#utility.yul\":5265:5268   */\n              dup3\n                /* \"#utility.yul\":5258:5277   */\n              mstore\n                /* \"#utility.yul\":5310:5314   */\n              0x20\n                /* \"#utility.yul\":5305:5308   */\n              dup3\n                /* \"#utility.yul\":5301:5315   */\n              add\n                /* \"#utility.yul\":5286:5315   */\n              swap1\n              pop\n                /* \"#utility.yul\":5162:5321   */\n              swap3\n              swap2\n              pop\n              pop\n              jump\t// out\n                /* \"#utility.yul\":5327:5671   */\n            tag_171:\n                /* \"#utility.yul\":5405:5408   */\n              0x00\n                /* \"#utility.yul\":5433:5472   */\n              tag_257\n                /* \"#utility.yul\":5466:5471   */\n              dup3\n                /* \"#utility.yul\":5433:5472   */\n              tag_146\n              jump\t// in\n            tag_257:\n                /* \"#utility.yul\":5488:5549   */\n              tag_258\n                /* \"#utility.yul\":5542:5548   */\n              dup2\n                /* \"#utility.yul\":5537:5540   */\n              dup6\n                /* \"#utility.yul\":5488:5549   */\n              tag_170\n              jump\t// in\n            tag_258:\n                /* \"#utility.yul\":5481:5549   */\n              swap4\n              pop\n                /* \"#utility.yul\":5558:5610   */\n              tag_259\n                /* \"#utility.yul\":5603:5609   */\n              dup2\n                /* \"#utility.yul\":5598:5601   */\n              dup6\n                /* \"#utility.yul\":5591:5595   */\n              0x20\n                /* \"#utility.yul\":5584:5589   */\n              dup7\n                /* \"#utility.yul\":5580:5596   */\n              add\n                /* \"#utility.yul\":5558:5610   */\n              tag_148\n              jump\t// in\n            tag_259:\n                /* \"#utility.yul\":5635:5664   */\n              tag_260\n                /* \"#utility.yul\":5657:5663   */\n              dup2\n                /* \"#utility.yul\":5635:5664   */\n              tag_149\n              jump\t// in\n            tag_260:\n                /* \"#utility.yul\":5630:5633   */\n              dup5\n                /* \"#utility.yul\":5626:5665   */\n              add\n                /* \"#utility.yul\":5619:5665   */\n              swap2\n              pop\n                /* \"#utility.yul\":5409:5671   */\n              pop\n                /* \"#utility.yul\":5327:5671   */\n              swap3\n              swap2\n              pop\n              pop\n              jump\t// out\n                /* \"#utility.yul\":5677:5754   */\n            tag_172:\n                /* \"#utility.yul\":5714:5721   */\n              0x00\n                /* \"#utility.yul\":5743:5748   */\n              dup2\n                /* \"#utility.yul\":5732:5748   */\n              swap1\n              pop\n                /* \"#utility.yul\":5677:5754   */\n              swap2\n              swap1\n              pop\n              jump\t// out\n                /* \"#utility.yul\":5760:5868   */\n            tag_173:\n                /* \"#utility.yul\":5837:5861   */\n              tag_263\n                /* \"#utility.yul\":5855:5860   */\n              dup2\n                /* \"#utility.yul\":5837:5861   */\n              tag_172\n              jump\t// in\n            tag_263:\n                /* \"#utility.yul\":5832:5835   */\n              dup3\n                /* \"#utility.yul\":5825:5862   */\n              mstore\n                /* \"#utility.yul\":5760:5868   */\n              pop\n              pop\n              jump\t// out\n                /* \"#utility.yul\":5938:6727   */\n            tag_174:\n                /* \"#utility.yul\":6055:6058   */\n              0x00\n                /* \"#utility.yul\":6091:6095   */\n              0x60\n                /* \"#utility.yul\":6086:6089   */\n              dup4\n                /* \"#utility.yul\":6082:6096   */\n              add\n                /* \"#utility.yul\":6182:6186   */\n              0x00\n                /* \"#utility.yul\":6175:6180   */\n              dup4\n                /* \"#utility.yul\":6171:6187   */\n              add\n                /* \"#utility.yul\":6165:6188   */\n              mload\n                /* \"#utility.yul\":6235:6238   */\n              dup5\n                /* \"#utility.yul\":6229:6233   */\n              dup3\n                /* \"#utility.yul\":6225:6239   */\n              sub\n                /* \"#utility.yul\":6218:6222   */\n              0x00\n                /* \"#utility.yul\":6213:6216   */\n              dup7\n                /* \"#utility.yul\":6209:6223   */\n              add\n                /* \"#utility.yul\":6202:6240   */\n              mstore\n                /* \"#utility.yul\":6261:6334   */\n              tag_265\n                /* \"#utility.yul\":6329:6333   */\n              dup3\n                /* \"#utility.yul\":6315:6327   */\n              dup3\n                /* \"#utility.yul\":6261:6334   */\n              tag_171\n              jump\t// in\n            tag_265:\n                /* \"#utility.yul\":6253:6334   */\n              swap2\n              pop\n                /* \"#utility.yul\":6106:6345   */\n              pop\n                /* \"#utility.yul\":6432:6436   */\n              0x20\n                /* \"#utility.yul\":6425:6430   */\n              dup4\n                /* \"#utility.yul\":6421:6437   */\n              add\n                /* \"#utility.yul\":6415:6438   */\n              mload\n                /* \"#utility.yul\":6451:6514   */\n              tag_266\n                /* \"#utility.yul\":6508:6512   */\n              0x20\n                /* \"#utility.yul\":6503:6506   */\n              dup7\n                /* \"#utility.yul\":6499:6513   */\n              add\n                /* \"#utility.yul\":6485:6497   */\n              dup3\n                /* \"#utility.yul\":6451:6514   */\n              tag_173\n              jump\t// in\n            tag_266:\n                /* \"#utility.yul\":6355:6524   */\n              pop\n                /* \"#utility.yul\":6608:6612   */\n              0x40\n                /* \"#utility.yul\":6601:6606   */\n              dup4\n                /* \"#utility.yul\":6597:6613   */\n              add\n                /* \"#utility.yul\":6591:6614   */\n              mload\n                /* \"#utility.yul\":6627:6690   */\n              tag_267\n                /* \"#utility.yul\":6684:6688   */\n              0x40\n                /* \"#utility.yul\":6679:6682   */\n              dup7\n                /* \"#utility.yul\":6675:6689   */\n              add\n                /* \"#utility.yul\":6661:6673   */\n              dup3\n                /* \"#utility.yul\":6627:6690   */\n              tag_163\n              jump\t// in\n            tag_267:\n                /* \"#utility.yul\":6534:6700   */\n              pop\n                /* \"#utility.yul\":6717:6721   */\n              dup1\n                /* \"#utility.yul\":6710:6721   */\n              swap2\n              pop\n                /* \"#utility.yul\":6060:6727   */\n              pop\n                /* \"#utility.yul\":5938:6727   */\n              swap3\n              swap2\n              pop\n              pop\n              jump\t// out\n                /* \"#utility.yul\":6733:7005   */\n            tag_175:\n                /* \"#utility.yul\":6860:6870   */\n              0x00\n                /* \"#utility.yul\":6895:6999   */\n              tag_269\n                /* \"#utility.yul\":6995:6998   */\n              dup4\n                /* \"#utility.yul\":6987:6993   */\n              dup4\n                /* \"#utility.yul\":6895:6999   */\n              tag_174\n              jump\t// in\n            tag_269:\n                /* \"#utility.yul\":6881:6999   */\n              swap1\n              pop\n                /* \"#utility.yul\":6733:7005   */\n              swap3\n              swap2\n              pop\n              pop\n              jump\t// out\n                /* \"#utility.yul\":7011:7153   */\n            tag_176:\n                /* \"#utility.yul\":7110:7114   */\n              0x00\n                /* \"#utility.yul\":7142:7146   */\n              0x20\n                /* \"#utility.yul\":7137:7140   */\n              dup3\n                /* \"#utility.yul\":7133:7147   */\n              add\n                /* \"#utility.yul\":7125:7147   */\n              swap1\n              pop\n                /* \"#utility.yul\":7011:7153   */\n              swap2\n              swap1\n              pop\n              jump\t// out\n                /* \"#utility.yul\":7227:8370   */\n            tag_177:\n                /* \"#utility.yul\":7404:7407   */\n              0x00\n                /* \"#utility.yul\":7433:7516   */\n              tag_272\n                /* \"#utility.yul\":7510:7515   */\n              dup3\n                /* \"#utility.yul\":7433:7516   */\n              tag_167\n              jump\t// in\n            tag_272:\n                /* \"#utility.yul\":7532:7647   */\n              tag_273\n                /* \"#utility.yul\":7640:7646   */\n              dup2\n                /* \"#utility.yul\":7635:7638   */\n              dup6\n                /* \"#utility.yul\":7532:7647   */\n              tag_168\n              jump\t// in\n            tag_273:\n                /* \"#utility.yul\":7525:7647   */\n              swap4\n              pop\n                /* \"#utility.yul\":7673:7676   */\n              dup4\n                /* \"#utility.yul\":7718:7722   */\n              0x20\n                /* \"#utility.yul\":7710:7716   */\n              dup3\n                /* \"#utility.yul\":7706:7723   */\n              mul\n                /* \"#utility.yul\":7701:7704   */\n              dup6\n                /* \"#utility.yul\":7697:7724   */\n              add\n                /* \"#utility.yul\":7748:7833   */\n              tag_274\n                /* \"#utility.yul\":7827:7832   */\n              dup6\n                /* \"#utility.yul\":7748:7833   */\n              tag_169\n              jump\t// in\n            tag_274:\n                /* \"#utility.yul\":7856:7863   */\n              dup1\n                /* \"#utility.yul\":7887:7888   */\n              0x00\n                /* \"#utility.yul\":7872:8325   */\n            tag_275:\n                /* \"#utility.yul\":7897:7903   */\n              dup6\n                /* \"#utility.yul\":7894:7895   */\n              dup2\n                /* \"#utility.yul\":7891:7904   */\n              lt\n                /* \"#utility.yul\":7872:8325   */\n              iszero\n              tag_277\n              jumpi\n                /* \"#utility.yul\":7968:7977   */\n              dup5\n                /* \"#utility.yul\":7962:7966   */\n              dup5\n                /* \"#utility.yul\":7958:7978   */\n              sub\n                /* \"#utility.yul\":7953:7956   */\n              dup10\n                /* \"#utility.yul\":7946:7979   */\n              mstore\n                /* \"#utility.yul\":8019:8025   */\n              dup2\n                /* \"#utility.yul\":8013:8026   */\n              mload\n                /* \"#utility.yul\":8047:8169   */\n              tag_278\n                /* \"#utility.yul\":8164:8168   */\n              dup6\n                /* \"#utility.yul\":8149:8162   */\n              dup3\n                /* \"#utility.yul\":8047:8169   */\n              tag_175\n              jump\t// in\n            tag_278:\n                /* \"#utility.yul\":8039:8169   */\n              swap5\n              pop\n                /* \"#utility.yul\":8192:8281   */\n              tag_279\n                /* \"#utility.yul\":8274:8280   */\n              dup4\n                /* \"#utility.yul\":8192:8281   */\n              tag_176\n              jump\t// in\n            tag_279:\n                /* \"#utility.yul\":8182:8281   */\n              swap3\n              pop\n                /* \"#utility.yul\":8310:8314   */\n              0x20\n                /* \"#utility.yul\":8305:8308   */\n              dup11\n                /* \"#utility.yul\":8301:8315   */\n              add\n                /* \"#utility.yul\":8294:8315   */\n              swap10\n              pop\n                /* \"#utility.yul\":7932:8325   */\n              pop\n                /* \"#utility.yul\":7919:7920   */\n              0x01\n                /* \"#utility.yul\":7916:7917   */\n              dup2\n                /* \"#utility.yul\":7912:7921   */\n              add\n                /* \"#utility.yul\":7907:7921   */\n              swap1\n              pop\n                /* \"#utility.yul\":7872:8325   */\n              jump(tag_275)\n            tag_277:\n                /* \"#utility.yul\":7876:7890   */\n              pop\n                /* \"#utility.yul\":8341:8345   */\n              dup3\n                /* \"#utility.yul\":8334:8345   */\n              swap8\n              pop\n                /* \"#utility.yul\":8361:8364   */\n              dup8\n                /* \"#utility.yul\":8354:8364   */\n              swap6\n              pop\n                /* \"#utility.yul\":7409:8370   */\n              pop\n              pop\n              pop\n              pop\n              pop\n                /* \"#utility.yul\":7227:8370   */\n              swap3\n              swap2\n              pop\n              pop\n              jump\t// out\n                /* \"#utility.yul\":8376:9529   */\n            tag_26:\n                /* \"#utility.yul\":8751:8755   */\n              0x00\n                /* \"#utility.yul\":8789:8792   */\n              0x80\n                /* \"#utility.yul\":8778:8787   */\n              dup3\n                /* \"#utility.yul\":8774:8793   */\n              add\n                /* \"#utility.yul\":8766:8793   */\n              swap1\n              pop\n                /* \"#utility.yul\":8839:8848   */\n              dup2\n                /* \"#utility.yul\":8833:8837   */\n              dup2\n                /* \"#utility.yul\":8829:8849   */\n              sub\n                /* \"#utility.yul\":8825:8826   */\n              0x00\n                /* \"#utility.yul\":8814:8823   */\n              dup4\n                /* \"#utility.yul\":8810:8827   */\n              add\n                /* \"#utility.yul\":8803:8850   */\n              mstore\n                /* \"#utility.yul\":8867:8975   */\n              tag_281\n                /* \"#utility.yul\":8970:8974   */\n              dup2\n                /* \"#utility.yul\":8961:8967   */\n              dup8\n                /* \"#utility.yul\":8867:8975   */\n              tag_166\n              jump\t// in\n            tag_281:\n                /* \"#utility.yul\":8859:8975   */\n              swap1\n              pop\n                /* \"#utility.yul\":9022:9031   */\n              dup2\n                /* \"#utility.yul\":9016:9020   */\n              dup2\n                /* \"#utility.yul\":9012:9032   */\n              sub\n                /* \"#utility.yul\":9007:9009   */\n              0x20\n                /* \"#utility.yul\":8996:9005   */\n              dup4\n                /* \"#utility.yul\":8992:9010   */\n              add\n                /* \"#utility.yul\":8985:9033   */\n              mstore\n                /* \"#utility.yul\":9050:9216   */\n              tag_282\n                /* \"#utility.yul\":9211:9215   */\n              dup2\n                /* \"#utility.yul\":9202:9208   */\n              dup7\n                /* \"#utility.yul\":9050:9216   */\n              tag_177\n              jump\t// in\n            tag_282:\n                /* \"#utility.yul\":9042:9216   */\n              swap1\n              pop\n                /* \"#utility.yul\":9263:9272   */\n              dup2\n                /* \"#utility.yul\":9257:9261   */\n              dup2\n                /* \"#utility.yul\":9253:9273   */\n              sub\n                /* \"#utility.yul\":9248:9250   */\n              0x40\n                /* \"#utility.yul\":9237:9246   */\n              dup4\n                /* \"#utility.yul\":9233:9251   */\n              add\n                /* \"#utility.yul\":9226:9274   */\n              mstore\n                /* \"#utility.yul\":9291:9369   */\n              tag_283\n                /* \"#utility.yul\":9364:9368   */\n              dup2\n                /* \"#utility.yul\":9355:9361   */\n              dup6\n                /* \"#utility.yul\":9291:9369   */\n              tag_150\n              jump\t// in\n            tag_283:\n                /* \"#utility.yul\":9283:9369   */\n              swap1\n              pop\n                /* \"#utility.yul\":9416:9425   */\n              dup2\n                /* \"#utility.yul\":9410:9414   */\n              dup2\n                /* \"#utility.yul\":9406:9426   */\n              sub\n                /* \"#utility.yul\":9401:9403   */\n              0x60\n                /* \"#utility.yul\":9390:9399   */\n              dup4\n                /* \"#utility.yul\":9386:9404   */\n              add\n                /* \"#utility.yul\":9379:9427   */\n              mstore\n                /* \"#utility.yul\":9444:9522   */\n              tag_284\n                /* \"#utility.yul\":9517:9521   */\n              dup2\n                /* \"#utility.yul\":9508:9514   */\n              dup5\n                /* \"#utility.yul\":9444:9522   */\n              tag_150\n              jump\t// in\n            tag_284:\n                /* \"#utility.yul\":9436:9522   */\n              swap1\n              pop\n                /* \"#utility.yul\":8376:9529   */\n              swap6\n              swap5\n              pop\n              pop\n              pop\n              pop\n              pop\n              jump\t// out\n                /* \"#utility.yul\":9535:9657   */\n            tag_178:\n                /* \"#utility.yul\":9608:9632   */\n              tag_286\n                /* \"#utility.yul\":9626:9631   */\n              dup2\n                /* \"#utility.yul\":9608:9632   */\n              tag_172\n              jump\t// in\n            tag_286:\n                /* \"#utility.yul\":9601:9606   */\n              dup2\n                /* \"#utility.yul\":9598:9633   */\n              eq\n                /* \"#utility.yul\":9588:9651   */\n              tag_287\n              jumpi\n                /* \"#utility.yul\":9647:9648   */\n              0x00\n                /* \"#utility.yul\":9644:9645   */\n              dup1\n                /* \"#utility.yul\":9637:9649   */\n              revert\n                /* \"#utility.yul\":9588:9651   */\n            tag_287:\n                /* \"#utility.yul\":9535:9657   */\n              pop\n              jump\t// out\n                /* \"#utility.yul\":9663:9802   */\n            tag_179:\n                /* \"#utility.yul\":9709:9714   */\n              0x00\n                /* \"#utility.yul\":9747:9753   */\n              dup2\n                /* \"#utility.yul\":9734:9754   */\n              calldataload\n                /* \"#utility.yul\":9725:9754   */\n              swap1\n              pop\n                /* \"#utility.yul\":9763:9796   */\n              tag_289\n                /* \"#utility.yul\":9790:9795   */\n              dup2\n                /* \"#utility.yul\":9763:9796   */\n              tag_178\n              jump\t// in\n            tag_289:\n                /* \"#utility.yul\":9663:9802   */\n              swap3\n              swap2\n              pop\n              pop\n              jump\t// out\n                /* \"#utility.yul\":9808:10137   */\n            tag_35:\n                /* \"#utility.yul\":9867:9873   */\n              0x00\n                /* \"#utility.yul\":9916:9918   */\n              0x20\n                /* \"#utility.yul\":9904:9913   */\n              dup3\n                /* \"#utility.yul\":9895:9902   */\n              dup5\n                /* \"#utility.yul\":9891:9914   */\n              sub\n                /* \"#utility.yul\":9887:9919   */\n              slt\n                /* \"#utility.yul\":9884:10003   */\n              iszero\n              tag_291\n              jumpi\n                /* \"#utility.yul\":9922:10001   */\n              tag_292\n              tag_152\n              jump\t// in\n            tag_292:\n                /* \"#utility.yul\":9884:10003   */\n            tag_291:\n                /* \"#utility.yul\":10042:10043   */\n              0x00\n                /* \"#utility.yul\":10067:10120   */\n              tag_293\n                /* \"#utility.yul\":10112:10119   */\n              dup5\n                /* \"#utility.yul\":10103:10109   */\n              dup3\n                /* \"#utility.yul\":10092:10101   */\n              dup6\n                /* \"#utility.yul\":10088:10110   */\n              add\n                /* \"#utility.yul\":10067:10120   */\n              tag_179\n              jump\t// in\n            tag_293:\n                /* \"#utility.yul\":10057:10120   */\n              swap2\n              pop\n                /* \"#utility.yul\":10013:10130   */\n              pop\n                /* \"#utility.yul\":9808:10137   */\n              swap3\n              swap2\n              pop\n              pop\n              jump\t// out\n                /* \"#utility.yul\":10143:10261   */\n            tag_180:\n                /* \"#utility.yul\":10230:10254   */\n              tag_295\n                /* \"#utility.yul\":10248:10253   */\n              dup2\n                /* \"#utility.yul\":10230:10254   */\n              tag_172\n              jump\t// in\n            tag_295:\n                /* \"#utility.yul\":10225:10228   */\n              dup3\n                /* \"#utility.yul\":10218:10255   */\n              mstore\n                /* \"#utility.yul\":10143:10261   */\n              pop\n              pop\n              jump\t// out\n                /* \"#utility.yul\":10267:10385   */\n            tag_181:\n                /* \"#utility.yul\":10354:10378   */\n              tag_297\n                /* \"#utility.yul\":10372:10377   */\n              dup2\n                /* \"#utility.yul\":10354:10378   */\n              tag_155\n              jump\t// in\n            tag_297:\n                /* \"#utility.yul\":10349:10352   */\n              dup3\n                /* \"#utility.yul\":10342:10379   */\n              mstore\n                /* \"#utility.yul\":10267:10385   */\n              pop\n              pop\n              jump\t// out\n                /* \"#utility.yul\":10391:10924   */\n            tag_38:\n                /* \"#utility.yul\":10560:10564   */\n              0x00\n                /* \"#utility.yul\":10598:10600   */\n              0x60\n                /* \"#utility.yul\":10587:10596   */\n              dup3\n                /* \"#utility.yul\":10583:10601   */\n              add\n                /* \"#utility.yul\":10575:10601   */\n              swap1\n              pop\n                /* \"#utility.yul\":10647:10656   */\n              dup2\n                /* \"#utility.yul\":10641:10645   */\n              dup2\n                /* \"#utility.yul\":10637:10657   */\n              sub\n                /* \"#utility.yul\":10633:10634   */\n              0x00\n                /* \"#utility.yul\":10622:10631   */\n              dup4\n                /* \"#utility.yul\":10618:10635   */\n              add\n                /* \"#utility.yul\":10611:10658   */\n              mstore\n                /* \"#utility.yul\":10675:10753   */\n              tag_299\n                /* \"#utility.yul\":10748:10752   */\n              dup2\n                /* \"#utility.yul\":10739:10745   */\n              dup7\n                /* \"#utility.yul\":10675:10753   */\n              tag_150\n              jump\t// in\n            tag_299:\n                /* \"#utility.yul\":10667:10753   */\n              swap1\n              pop\n                /* \"#utility.yul\":10763:10835   */\n              tag_300\n                /* \"#utility.yul\":10831:10833   */\n              0x20\n                /* \"#utility.yul\":10820:10829   */\n              dup4\n                /* \"#utility.yul\":10816:10834   */\n              add\n                /* \"#utility.yul\":10807:10813   */\n              dup6\n                /* \"#utility.yul\":10763:10835   */\n              tag_180\n              jump\t// in\n            tag_300:\n                /* \"#utility.yul\":10845:10917   */\n              tag_301\n                /* \"#utility.yul\":10913:10915   */\n              0x40\n                /* \"#utility.yul\":10902:10911   */\n              dup4\n                /* \"#utility.yul\":10898:10916   */\n              add\n                /* \"#utility.yul\":10889:10895   */\n              dup5\n                /* \"#utility.yul\":10845:10917   */\n              tag_181\n              jump\t// in\n            tag_301:\n                /* \"#utility.yul\":10391:10924   */\n              swap5\n              swap4\n              pop\n              pop\n              pop\n              pop\n              jump\t// out\n                /* \"#utility.yul\":10930:11152   */\n            tag_46:\n                /* \"#utility.yul\":11023:11027   */\n              0x00\n                /* \"#utility.yul\":11061:11063   */\n              0x20\n                /* \"#utility.yul\":11050:11059   */\n              dup3\n                /* \"#utility.yul\":11046:11064   */\n              add\n                /* \"#utility.yul\":11038:11064   */\n              swap1\n              pop\n                /* \"#utility.yul\":11074:11145   */\n              tag_303\n                /* \"#utility.yul\":11142:11143   */\n              0x00\n                /* \"#utility.yul\":11131:11140   */\n              dup4\n                /* \"#utility.yul\":11127:11144   */\n              add\n                /* \"#utility.yul\":11118:11124   */\n              dup5\n                /* \"#utility.yul\":11074:11145   */\n              tag_181\n              jump\t// in\n            tag_303:\n                /* \"#utility.yul\":10930:11152   */\n              swap3\n              swap2\n              pop\n              pop\n              jump\t// out\n                /* \"#utility.yul\":11158:11275   */\n            tag_182:\n                /* \"#utility.yul\":11267:11268   */\n              0x00\n                /* \"#utility.yul\":11264:11265   */\n              dup1\n                /* \"#utility.yul\":11257:11269   */\n              revert\n                /* \"#utility.yul\":11281:11398   */\n            tag_183:\n                /* \"#utility.yul\":11390:11391   */\n              0x00\n                /* \"#utility.yul\":11387:11388   */\n              dup1\n                /* \"#utility.yul\":11380:11392   */\n              revert\n                /* \"#utility.yul\":11404:11584   */\n            tag_184:\n                /* \"#utility.yul\":11452:11529   */\n              0x4e487b7100000000000000000000000000000000000000000000000000000000\n                /* \"#utility.yul\":11449:11450   */\n              0x00\n                /* \"#utility.yul\":11442:11530   */\n              mstore\n                /* \"#utility.yul\":11549:11553   */\n              0x41\n                /* \"#utility.yul\":11546:11547   */\n              0x04\n                /* \"#utility.yul\":11539:11554   */\n              mstore\n                /* \"#utility.yul\":11573:11577   */\n              0x24\n                /* \"#utility.yul\":11570:11571   */\n              0x00\n                /* \"#utility.yul\":11563:11578   */\n              revert\n                /* \"#utility.yul\":11590:11871   */\n            tag_185:\n                /* \"#utility.yul\":11673:11700   */\n              tag_308\n                /* \"#utility.yul\":11695:11699   */\n              dup3\n                /* \"#utility.yul\":11673:11700   */\n              tag_149\n              jump\t// in\n            tag_308:\n                /* \"#utility.yul\":11665:11671   */\n              dup2\n                /* \"#utility.yul\":11661:11701   */\n              add\n                /* \"#utility.yul\":11803:11809   */\n              dup2\n                /* \"#utility.yul\":11791:11801   */\n              dup2\n                /* \"#utility.yul\":11788:11810   */\n              lt\n                /* \"#utility.yul\":11767:11785   */\n              0xffffffffffffffff\n                /* \"#utility.yul\":11755:11765   */\n              dup3\n                /* \"#utility.yul\":11752:11786   */\n              gt\n                /* \"#utility.yul\":11749:11811   */\n              or\n                /* \"#utility.yul\":11746:11834   */\n              iszero\n              tag_309\n              jumpi\n                /* \"#utility.yul\":11814:11832   */\n              tag_310\n              tag_184\n              jump\t// in\n            tag_310:\n                /* \"#utility.yul\":11746:11834   */\n            tag_309:\n                /* \"#utility.yul\":11854:11864   */\n              dup1\n                /* \"#utility.yul\":11850:11852   */\n              0x40\n                /* \"#utility.yul\":11843:11865   */\n              mstore\n                /* \"#utility.yul\":11633:11871   */\n              pop\n                /* \"#utility.yul\":11590:11871   */\n              pop\n              pop\n              jump\t// out\n                /* \"#utility.yul\":11877:12006   */\n            tag_186:\n                /* \"#utility.yul\":11911:11917   */\n              0x00\n                /* \"#utility.yul\":11938:11958   */\n              tag_312\n              tag_151\n              jump\t// in\n            tag_312:\n                /* \"#utility.yul\":11928:11958   */\n              swap1\n              pop\n                /* \"#utility.yul\":11967:12000   */\n              tag_313\n                /* \"#utility.yul\":11995:11999   */\n              dup3\n                /* \"#utility.yul\":11987:11993   */\n              dup3\n                /* \"#utility.yul\":11967:12000   */\n              tag_185\n              jump\t// in\n            tag_313:\n                /* \"#utility.yul\":11877:12006   */\n              swap2\n              swap1\n              pop\n              jump\t// out\n                /* \"#utility.yul\":12012:12320   */\n            tag_187:\n                /* \"#utility.yul\":12074:12078   */\n              0x00\n                /* \"#utility.yul\":12164:12182   */\n              0xffffffffffffffff\n                /* \"#utility.yul\":12156:12162   */\n              dup3\n                /* \"#utility.yul\":12153:12183   */\n              gt\n                /* \"#utility.yul\":12150:12206   */\n              iszero\n              tag_315\n              jumpi\n                /* \"#utility.yul\":12186:12204   */\n              tag_316\n              tag_184\n              jump\t// in\n            tag_316:\n                /* \"#utility.yul\":12150:12206   */\n            tag_315:\n                /* \"#utility.yul\":12224:12253   */\n              tag_317\n                /* \"#utility.yul\":12246:12252   */\n              dup3\n                /* \"#utility.yul\":12224:12253   */\n              tag_149\n              jump\t// in\n            tag_317:\n                /* \"#utility.yul\":12216:12253   */\n              swap1\n              pop\n                /* \"#utility.yul\":12308:12312   */\n              0x20\n                /* \"#utility.yul\":12302:12306   */\n              dup2\n                /* \"#utility.yul\":12298:12313   */\n              add\n                /* \"#utility.yul\":12290:12313   */\n              swap1\n              pop\n                /* \"#utility.yul\":12012:12320   */\n              swap2\n              swap1\n              pop\n              jump\t// out\n                /* \"#utility.yul\":12326:12480   */\n            tag_188:\n                /* \"#utility.yul\":12410:12416   */\n              dup3\n                /* \"#utility.yul\":12405:12408   */\n              dup2\n                /* \"#utility.yul\":12400:12403   */\n              dup4\n                /* \"#utility.yul\":12387:12417   */\n              calldatacopy\n                /* \"#utility.yul\":12472:12473   */\n              0x00\n                /* \"#utility.yul\":12463:12469   */\n              dup4\n                /* \"#utility.yul\":12458:12461   */\n              dup4\n                /* \"#utility.yul\":12454:12470   */\n              add\n                /* \"#utility.yul\":12447:12474   */\n              mstore\n                /* \"#utility.yul\":12326:12480   */\n              pop\n              pop\n              pop\n              jump\t// out\n                /* \"#utility.yul\":12486:12898   */\n            tag_189:\n                /* \"#utility.yul\":12564:12569   */\n              0x00\n                /* \"#utility.yul\":12589:12655   */\n              tag_320\n                /* \"#utility.yul\":12605:12654   */\n              tag_321\n                /* \"#utility.yul\":12647:12653   */\n              dup5\n                /* \"#utility.yul\":12605:12654   */\n              tag_187\n              jump\t// in\n            tag_321:\n                /* \"#utility.yul\":12589:12655   */\n              tag_186\n              jump\t// in\n            tag_320:\n                /* \"#utility.yul\":12580:12655   */\n              swap1\n              pop\n                /* \"#utility.yul\":12678:12684   */\n              dup3\n                /* \"#utility.yul\":12671:12676   */\n              dup2\n                /* \"#utility.yul\":12664:12685   */\n              mstore\n                /* \"#utility.yul\":12716:12720   */\n              0x20\n                /* \"#utility.yul\":12709:12714   */\n              dup2\n                /* \"#utility.yul\":12705:12721   */\n              add\n                /* \"#utility.yul\":12754:12757   */\n              dup5\n                /* \"#utility.yul\":12745:12751   */\n              dup5\n                /* \"#utility.yul\":12740:12743   */\n              dup5\n                /* \"#utility.yul\":12736:12752   */\n              add\n                /* \"#utility.yul\":12733:12758   */\n              gt\n                /* \"#utility.yul\":12730:12842   */\n              iszero\n              tag_322\n              jumpi\n                /* \"#utility.yul\":12761:12840   */\n              tag_323\n              tag_183\n              jump\t// in\n            tag_323:\n                /* \"#utility.yul\":12730:12842   */\n            tag_322:\n                /* \"#utility.yul\":12851:12892   */\n              tag_324\n                /* \"#utility.yul\":12885:12891   */\n              dup5\n                /* \"#utility.yul\":12880:12883   */\n              dup3\n                /* \"#utility.yul\":12875:12878   */\n              dup6\n                /* \"#utility.yul\":12851:12892   */\n              tag_188\n              jump\t// in\n            tag_324:\n                /* \"#utility.yul\":12570:12898   */\n              pop\n                /* \"#utility.yul\":12486:12898   */\n              swap4\n              swap3\n              pop\n              pop\n              pop\n              jump\t// out\n                /* \"#utility.yul\":12918:13258   */\n            tag_190:\n                /* \"#utility.yul\":12974:12979   */\n              0x00\n                /* \"#utility.yul\":13023:13026   */\n              dup3\n                /* \"#utility.yul\":13016:13020   */\n              0x1f\n                /* \"#utility.yul\":13008:13014   */\n              dup4\n                /* \"#utility.yul\":13004:13021   */\n              add\n                /* \"#utility.yul\":13000:13027   */\n              slt\n                /* \"#utility.yul\":12990:13112   */\n              tag_326\n              jumpi\n                /* \"#utility.yul\":13031:13110   */\n              tag_327\n              tag_182\n              jump\t// in\n            tag_327:\n                /* \"#utility.yul\":12990:13112   */\n            tag_326:\n                /* \"#utility.yul\":13148:13154   */\n              dup2\n                /* \"#utility.yul\":13135:13155   */\n              calldataload\n                /* \"#utility.yul\":13173:13252   */\n              tag_328\n                /* \"#utility.yul\":13248:13251   */\n              dup5\n                /* \"#utility.yul\":13240:13246   */\n              dup3\n                /* \"#utility.yul\":13233:13237   */\n              0x20\n                /* \"#utility.yul\":13225:13231   */\n              dup7\n                /* \"#utility.yul\":13221:13238   */\n              add\n                /* \"#utility.yul\":13173:13252   */\n              tag_189\n              jump\t// in\n            tag_328:\n                /* \"#utility.yul\":13164:13252   */\n              swap2\n              pop\n                /* \"#utility.yul\":12980:13258   */\n              pop\n                /* \"#utility.yul\":12918:13258   */\n              swap3\n              swap2\n              pop\n              pop\n              jump\t// out\n                /* \"#utility.yul\":13264:13773   */\n            tag_49:\n                /* \"#utility.yul\":13333:13339   */\n              0x00\n                /* \"#utility.yul\":13382:13384   */\n              0x20\n                /* \"#utility.yul\":13370:13379   */\n              dup3\n                /* \"#utility.yul\":13361:13368   */\n              dup5\n                /* \"#utility.yul\":13357:13380   */\n              sub\n                /* \"#utility.yul\":13353:13385   */\n              slt\n                /* \"#utility.yul\":13350:13469   */\n              iszero\n              tag_330\n              jumpi\n                /* \"#utility.yul\":13388:13467   */\n              tag_331\n              tag_152\n              jump\t// in\n            tag_331:\n                /* \"#utility.yul\":13350:13469   */\n            tag_330:\n                /* \"#utility.yul\":13536:13537   */\n              0x00\n                /* \"#utility.yul\":13525:13534   */\n              dup3\n                /* \"#utility.yul\":13521:13538   */\n              add\n                /* \"#utility.yul\":13508:13539   */\n              calldataload\n                /* \"#utility.yul\":13566:13584   */\n              0xffffffffffffffff\n                /* \"#utility.yul\":13558:13564   */\n              dup2\n                /* \"#utility.yul\":13555:13585   */\n              gt\n                /* \"#utility.yul\":13552:13669   */\n              iszero\n              tag_332\n              jumpi\n                /* \"#utility.yul\":13588:13667   */\n              tag_333\n              tag_153\n              jump\t// in\n            tag_333:\n                /* \"#utility.yul\":13552:13669   */\n            tag_332:\n                /* \"#utility.yul\":13693:13756   */\n              tag_334\n                /* \"#utility.yul\":13748:13755   */\n              dup5\n                /* \"#utility.yul\":13739:13745   */\n              dup3\n                /* \"#utility.yul\":13728:13737   */\n              dup6\n                /* \"#utility.yul\":13724:13746   */\n              add\n                /* \"#utility.yul\":13693:13756   */\n              tag_190\n              jump\t// in\n            tag_334:\n                /* \"#utility.yul\":13683:13756   */\n              swap2\n              pop\n                /* \"#utility.yul\":13479:13766   */\n              pop\n                /* \"#utility.yul\":13264:13773   */\n              swap3\n              swap2\n              pop\n              pop\n              jump\t// out\n                /* \"#utility.yul\":13779:13959   */\n            tag_191:\n                /* \"#utility.yul\":13827:13904   */\n              0x4e487b7100000000000000000000000000000000000000000000000000000000\n                /* \"#utility.yul\":13824:13825   */\n              0x00\n                /* \"#utility.yul\":13817:13905   */\n              mstore\n                /* \"#utility.yul\":13924:13928   */\n              0x22\n                /* \"#utility.yul\":13921:13922   */\n              0x04\n                /* \"#utility.yul\":13914:13929   */\n              mstore\n                /* \"#utility.yul\":13948:13952   */\n              0x24\n                /* \"#utility.yul\":13945:13946   */\n              0x00\n                /* \"#utility.yul\":13938:13953   */\n              revert\n                /* \"#utility.yul\":13965:14285   */\n            tag_52:\n                /* \"#utility.yul\":14009:14015   */\n              0x00\n                /* \"#utility.yul\":14046:14047   */\n              0x02\n                /* \"#utility.yul\":14040:14044   */\n              dup3\n                /* \"#utility.yul\":14036:14048   */\n              div\n                /* \"#utility.yul\":14026:14048   */\n              swap1\n              pop\n                /* \"#utility.yul\":14093:14094   */\n              0x01\n                /* \"#utility.yul\":14087:14091   */\n              dup3\n                /* \"#utility.yul\":14083:14095   */\n              and\n                /* \"#utility.yul\":14114:14132   */\n              dup1\n                /* \"#utility.yul\":14104:14185   */\n              tag_337\n              jumpi\n                /* \"#utility.yul\":14170:14174   */\n              0x7f\n                /* \"#utility.yul\":14162:14168   */\n              dup3\n                /* \"#utility.yul\":14158:14175   */\n              and\n                /* \"#utility.yul\":14148:14175   */\n              swap2\n              pop\n                /* \"#utility.yul\":14104:14185   */\n            tag_337:\n                /* \"#utility.yul\":14232:14234   */\n              0x20\n                /* \"#utility.yul\":14224:14230   */\n              dup3\n                /* \"#utility.yul\":14221:14235   */\n              lt\n                /* \"#utility.yul\":14201:14219   */\n              dup2\n                /* \"#utility.yul\":14198:14236   */\n              eq\n                /* \"#utility.yul\":14195:14279   */\n              iszero\n              tag_338\n              jumpi\n                /* \"#utility.yul\":14251:14269   */\n              tag_339\n              tag_191\n              jump\t// in\n            tag_339:\n                /* \"#utility.yul\":14195:14279   */\n            tag_338:\n                /* \"#utility.yul\":14016:14285   */\n              pop\n                /* \"#utility.yul\":13965:14285   */\n              swap2\n              swap1\n              pop\n              jump\t// out\n                /* \"#utility.yul\":14291:14523   */\n            tag_192:\n                /* \"#utility.yul\":14431:14465   */\n              0x4f6e6c7920616e20616363657074656420617574686f722063616e2061707072\n                /* \"#utility.yul\":14427:14428   */\n              0x00\n                /* \"#utility.yul\":14419:14425   */\n              dup3\n                /* \"#utility.yul\":14415:14429   */\n              add\n                /* \"#utility.yul\":14408:14466   */\n              mstore\n                /* \"#utility.yul\":14500:14515   */\n              0x6f76652061207265717565737400000000000000000000000000000000000000\n                /* \"#utility.yul\":14495:14497   */\n              0x20\n                /* \"#utility.yul\":14487:14493   */\n              dup3\n                /* \"#utility.yul\":14483:14498   */\n              add\n                /* \"#utility.yul\":14476:14516   */\n              mstore\n                /* \"#utility.yul\":14291:14523   */\n              pop\n              jump\t// out\n                /* \"#utility.yul\":14529:14895   */\n            tag_193:\n                /* \"#utility.yul\":14671:14674   */\n              0x00\n                /* \"#utility.yul\":14692:14759   */\n              tag_342\n                /* \"#utility.yul\":14756:14758   */\n              0x2d\n                /* \"#utility.yul\":14751:14754   */\n              dup4\n                /* \"#utility.yul\":14692:14759   */\n              tag_147\n              jump\t// in\n            tag_342:\n                /* \"#utility.yul\":14685:14759   */\n              swap2\n              pop\n                /* \"#utility.yul\":14768:14861   */\n              tag_343\n                /* \"#utility.yul\":14857:14860   */\n              dup3\n                /* \"#utility.yul\":14768:14861   */\n              tag_192\n              jump\t// in\n            tag_343:\n                /* \"#utility.yul\":14886:14888   */\n              0x40\n                /* \"#utility.yul\":14881:14884   */\n              dup3\n                /* \"#utility.yul\":14877:14889   */\n              add\n                /* \"#utility.yul\":14870:14889   */\n              swap1\n              pop\n                /* \"#utility.yul\":14529:14895   */\n              swap2\n              swap1\n              pop\n              jump\t// out\n                /* \"#utility.yul\":14901:15320   */\n            tag_94:\n                /* \"#utility.yul\":15067:15071   */\n              0x00\n                /* \"#utility.yul\":15105:15107   */\n              0x20\n                /* \"#utility.yul\":15094:15103   */\n              dup3\n                /* \"#utility.yul\":15090:15108   */\n              add\n                /* \"#utility.yul\":15082:15108   */\n              swap1\n              pop\n                /* \"#utility.yul\":15154:15163   */\n              dup2\n                /* \"#utility.yul\":15148:15152   */\n              dup2\n                /* \"#utility.yul\":15144:15164   */\n              sub\n                /* \"#utility.yul\":15140:15141   */\n              0x00\n                /* \"#utility.yul\":15129:15138   */\n              dup4\n                /* \"#utility.yul\":15125:15142   */\n              add\n                /* \"#utility.yul\":15118:15165   */\n              mstore\n                /* \"#utility.yul\":15182:15313   */\n              tag_345\n                /* \"#utility.yul\":15308:15312   */\n              dup2\n                /* \"#utility.yul\":15182:15313   */\n              tag_193\n              jump\t// in\n            tag_345:\n                /* \"#utility.yul\":15174:15313   */\n              swap1\n              pop\n                /* \"#utility.yul\":14901:15320   */\n              swap2\n              swap1\n              pop\n              jump\t// out\n                /* \"#utility.yul\":15326:15506   */\n            tag_97:\n                /* \"#utility.yul\":15374:15451   */\n              0x4e487b7100000000000000000000000000000000000000000000000000000000\n                /* \"#utility.yul\":15371:15372   */\n              0x00\n                /* \"#utility.yul\":15364:15452   */\n              mstore\n                /* \"#utility.yul\":15471:15475   */\n              0x32\n                /* \"#utility.yul\":15468:15469   */\n              0x04\n                /* \"#utility.yul\":15461:15476   */\n              mstore\n                /* \"#utility.yul\":15495:15499   */\n              0x24\n                /* \"#utility.yul\":15492:15493   */\n              0x00\n                /* \"#utility.yul\":15485:15500   */\n              revert\n                /* \"#utility.yul\":15512:15763   */\n            tag_194:\n                /* \"#utility.yul\":15652:15686   */\n              0x417574686f72206f6620746865207265717565737420697320616c7265616479\n                /* \"#utility.yul\":15648:15649   */\n              0x00\n                /* \"#utility.yul\":15640:15646   */\n              dup3\n                /* \"#utility.yul\":15636:15650   */\n              add\n                /* \"#utility.yul\":15629:15687   */\n              mstore\n                /* \"#utility.yul\":15721:15755   */\n              0x20696e636c7564656420696e20746865206c697374206f6620617574686f7273\n                /* \"#utility.yul\":15716:15718   */\n              0x20\n                /* \"#utility.yul\":15708:15714   */\n              dup3\n                /* \"#utility.yul\":15704:15719   */\n              add\n                /* \"#utility.yul\":15697:15756   */\n              mstore\n                /* \"#utility.yul\":15512:15763   */\n              pop\n              jump\t// out\n                /* \"#utility.yul\":15769:16135   */\n            tag_195:\n                /* \"#utility.yul\":15911:15914   */\n              0x00\n                /* \"#utility.yul\":15932:15999   */\n              tag_349\n                /* \"#utility.yul\":15996:15998   */\n              0x40\n                /* \"#utility.yul\":15991:15994   */\n              dup4\n                /* \"#utility.yul\":15932:15999   */\n              tag_147\n              jump\t// in\n            tag_349:\n                /* \"#utility.yul\":15925:15999   */\n              swap2\n              pop\n                /* \"#utility.yul\":16008:16101   */\n              tag_350\n                /* \"#utility.yul\":16097:16100   */\n              dup3\n                /* \"#utility.yul\":16008:16101   */\n              tag_194\n              jump\t// in\n            tag_350:\n                /* \"#utility.yul\":16126:16128   */\n              0x40\n                /* \"#utility.yul\":16121:16124   */\n              dup3\n                /* \"#utility.yul\":16117:16129   */\n              add\n                /* \"#utility.yul\":16110:16129   */\n              swap1\n              pop\n                /* \"#utility.yul\":15769:16135   */\n              swap2\n              swap1\n              pop\n              jump\t// out\n                /* \"#utility.yul\":16141:16560   */\n            tag_101:\n                /* \"#utility.yul\":16307:16311   */\n              0x00\n                /* \"#utility.yul\":16345:16347   */\n              0x20\n                /* \"#utility.yul\":16334:16343   */\n              dup3\n                /* \"#utility.yul\":16330:16348   */\n              add\n                /* \"#utility.yul\":16322:16348   */\n              swap1\n              pop\n                /* \"#utility.yul\":16394:16403   */\n              dup2\n                /* \"#utility.yul\":16388:16392   */\n              dup2\n                /* \"#utility.yul\":16384:16404   */\n              sub\n                /* \"#utility.yul\":16380:16381   */\n              0x00\n                /* \"#utility.yul\":16369:16378   */\n              dup4\n                /* \"#utility.yul\":16365:16382   */\n              add\n                /* \"#utility.yul\":16358:16405   */\n              mstore\n                /* \"#utility.yul\":16422:16553   */\n              tag_352\n                /* \"#utility.yul\":16548:16552   */\n              dup2\n                /* \"#utility.yul\":16422:16553   */\n              tag_195\n              jump\t// in\n            tag_352:\n                /* \"#utility.yul\":16414:16553   */\n              swap1\n              pop\n                /* \"#utility.yul\":16141:16560   */\n              swap2\n              swap1\n              pop\n              jump\t// out\n                /* \"#utility.yul\":16566:16746   */\n            tag_196:\n                /* \"#utility.yul\":16614:16691   */\n              0x4e487b7100000000000000000000000000000000000000000000000000000000\n                /* \"#utility.yul\":16611:16612   */\n              0x00\n                /* \"#utility.yul\":16604:16692   */\n              mstore\n                /* \"#utility.yul\":16711:16715   */\n              0x11\n                /* \"#utility.yul\":16708:16709   */\n              0x04\n                /* \"#utility.yul\":16701:16716   */\n              mstore\n                /* \"#utility.yul\":16735:16739   */\n              0x24\n                /* \"#utility.yul\":16732:16733   */\n              0x00\n                /* \"#utility.yul\":16725:16740   */\n              revert\n                /* \"#utility.yul\":16752:16943   */\n            tag_103:\n                /* \"#utility.yul\":16792:16796   */\n              0x00\n                /* \"#utility.yul\":16812:16832   */\n              tag_355\n                /* \"#utility.yul\":16830:16831   */\n              dup3\n                /* \"#utility.yul\":16812:16832   */\n              tag_172\n              jump\t// in\n            tag_355:\n                /* \"#utility.yul\":16807:16832   */\n              swap2\n              pop\n                /* \"#utility.yul\":16846:16866   */\n              tag_356\n                /* \"#utility.yul\":16864:16865   */\n              dup4\n                /* \"#utility.yul\":16846:16866   */\n              tag_172\n              jump\t// in\n            tag_356:\n                /* \"#utility.yul\":16841:16866   */\n              swap3\n              pop\n                /* \"#utility.yul\":16885:16886   */\n              dup3\n                /* \"#utility.yul\":16882:16883   */\n              dup3\n                /* \"#utility.yul\":16879:16887   */\n              lt\n                /* \"#utility.yul\":16876:16910   */\n              iszero\n              tag_357\n              jumpi\n                /* \"#utility.yul\":16890:16908   */\n              tag_358\n              tag_196\n              jump\t// in\n            tag_358:\n                /* \"#utility.yul\":16876:16910   */\n            tag_357:\n                /* \"#utility.yul\":16935:16936   */\n              dup3\n                /* \"#utility.yul\":16932:16933   */\n              dup3\n                /* \"#utility.yul\":16928:16937   */\n              sub\n                /* \"#utility.yul\":16920:16937   */\n              swap1\n              pop\n                /* \"#utility.yul\":16752:16943   */\n              swap3\n              swap2\n              pop\n              pop\n              jump\t// out\n                /* \"#utility.yul\":16949:17129   */\n            tag_119:\n                /* \"#utility.yul\":16997:17074   */\n              0x4e487b7100000000000000000000000000000000000000000000000000000000\n                /* \"#utility.yul\":16994:16995   */\n              0x00\n                /* \"#utility.yul\":16987:17075   */\n              mstore\n                /* \"#utility.yul\":17094:17098   */\n              0x31\n                /* \"#utility.yul\":17091:17092   */\n              0x04\n                /* \"#utility.yul\":17084:17099   */\n              mstore\n                /* \"#utility.yul\":17118:17122   */\n              0x24\n                /* \"#utility.yul\":17115:17116   */\n              0x00\n                /* \"#utility.yul\":17108:17123   */\n              revert\n                /* \"#utility.yul\":17135:17366   */\n            tag_197:\n                /* \"#utility.yul\":17275:17309   */\n              0x417574686f7220616c72656164792065786973747320696e20746865206c6973\n                /* \"#utility.yul\":17271:17272   */\n              0x00\n                /* \"#utility.yul\":17263:17269   */\n              dup3\n                /* \"#utility.yul\":17259:17273   */\n              add\n                /* \"#utility.yul\":17252:17310   */\n              mstore\n                /* \"#utility.yul\":17344:17358   */\n              0x74206f6620617574686f72730000000000000000000000000000000000000000\n                /* \"#utility.yul\":17339:17341   */\n              0x20\n                /* \"#utility.yul\":17331:17337   */\n              dup3\n                /* \"#utility.yul\":17327:17342   */\n              add\n                /* \"#utility.yul\":17320:17359   */\n              mstore\n                /* \"#utility.yul\":17135:17366   */\n              pop\n              jump\t// out\n                /* \"#utility.yul\":17372:17738   */\n            tag_198:\n                /* \"#utility.yul\":17514:17517   */\n              0x00\n                /* \"#utility.yul\":17535:17602   */\n              tag_362\n                /* \"#utility.yul\":17599:17601   */\n              0x2c\n                /* \"#utility.yul\":17594:17597   */\n              dup4\n                /* \"#utility.yul\":17535:17602   */\n              tag_147\n              jump\t// in\n            tag_362:\n                /* \"#utility.yul\":17528:17602   */\n              swap2\n              pop\n                /* \"#utility.yul\":17611:17704   */\n              tag_363\n                /* \"#utility.yul\":17700:17703   */\n              dup3\n                /* \"#utility.yul\":17611:17704   */\n              tag_197\n              jump\t// in\n            tag_363:\n                /* \"#utility.yul\":17729:17731   */\n              0x40\n                /* \"#utility.yul\":17724:17727   */\n              dup3\n                /* \"#utility.yul\":17720:17732   */\n              add\n                /* \"#utility.yul\":17713:17732   */\n              swap1\n              pop\n                /* \"#utility.yul\":17372:17738   */\n              swap2\n              swap1\n              pop\n              jump\t// out\n                /* \"#utility.yul\":17744:18163   */\n            tag_129:\n                /* \"#utility.yul\":17910:17914   */\n              0x00\n                /* \"#utility.yul\":17948:17950   */\n              0x20\n                /* \"#utility.yul\":17937:17946   */\n              dup3\n                /* \"#utility.yul\":17933:17951   */\n              add\n                /* \"#utility.yul\":17925:17951   */\n              swap1\n              pop\n                /* \"#utility.yul\":17997:18006   */\n              dup2\n                /* \"#utility.yul\":17991:17995   */\n              dup2\n                /* \"#utility.yul\":17987:18007   */\n              sub\n                /* \"#utility.yul\":17983:17984   */\n              0x00\n                /* \"#utility.yul\":17972:17981   */\n              dup4\n                /* \"#utility.yul\":17968:17985   */\n              add\n                /* \"#utility.yul\":17961:18008   */\n              mstore\n                /* \"#utility.yul\":18025:18156   */\n              tag_365\n                /* \"#utility.yul\":18151:18155   */\n              dup2\n                /* \"#utility.yul\":18025:18156   */\n              tag_198\n              jump\t// in\n            tag_365:\n                /* \"#utility.yul\":18017:18156   */\n              swap1\n              pop\n                /* \"#utility.yul\":17744:18163   */\n              swap2\n              swap1\n              pop\n              jump\t// out\n\n            auxdata: 0xa264697066735822122071c78b9cbbc1e63089cb9ab6d6491e3f125c108b3aad0c3364b06f83e30272f064736f6c63430008090033\n        }\n    }\n\n    auxdata: 0xa2646970667358221220800634f6bdc32b13558bcad1a95cf824651fe2624e3b1e0909023c3f3def006364736f6c63430008090033\n}\n","bytecode":{"linkReferences":{},"object":"608060405234801561001057600080fd5b50612418806100206000396000f3fe60806040523480156200001157600080fd5b5060043610620000465760003560e01c806318351ea7146200004b5780632ff2bdd514620000815780639151d40314620000a3575b600080fd5b620000696004803603810190620000639190620002f8565b620000d9565b6040516200007891906200036f565b60405180910390f35b6200008b62000119565b6040516200009a91906200045a565b60405180910390f35b620000c16004803603810190620000bb9190620005e0565b620001a9565b604051620000d091906200036f565b60405180910390f35b60008181548110620000ea57600080fd5b906000526020600020016000915054906101000a900473ffffffffffffffffffffffffffffffffffffffff1681565b606060008054806020026020016040519081016040528092919081815260200182805480156200019f57602002820191906000526020600020905b8160009054906101000a900473ffffffffffffffffffffffffffffffffffffffff1673ffffffffffffffffffffffffffffffffffffffff168152602001906001019080831162000154575b5050505050905090565b600080338484604051620001bd906200029b565b620001cb93929190620006f8565b604051809103906000f080158015620001e8573d6000803e3d6000fd5b5090506000819080600181540180825580915050600190039060005260206000200160009091909190916101000a81548173ffffffffffffffffffffffffffffffffffffffff021916908373ffffffffffffffffffffffffffffffffffffffff1602179055508073ffffffffffffffffffffffffffffffffffffffff167f994b548cd2649cd87c03e8af83cab9893684eba91bf07215ad26df0654dc073460405160405180910390a28091505092915050565b611c9f806200074483390190565b6000604051905090565b600080fd5b600080fd5b6000819050919050565b620002d281620002bd565b8114620002de57600080fd5b50565b600081359050620002f281620002c7565b92915050565b600060208284031215620003115762000310620002b3565b5b60006200032184828501620002e1565b91505092915050565b600073ffffffffffffffffffffffffffffffffffffffff82169050919050565b600062000357826200032a565b9050919050565b62000369816200034a565b82525050565b60006020820190506200038660008301846200035e565b92915050565b600081519050919050565b600082825260208201905092915050565b6000819050602082019050919050565b620003c3816200034a565b82525050565b6000620003d78383620003b8565b60208301905092915050565b6000602082019050919050565b6000620003fd826200038c565b62000409818562000397565b93506200041683620003a8565b8060005b838110156200044d578151620004318882620003c9565b97506200043e83620003e3565b9250506001810190506200041a565b5085935050505092915050565b60006020820190508181036000830152620004768184620003f0565b905092915050565b600080fd5b600080fd5b6000601f19601f8301169050919050565b7f4e487b7100000000000000000000000000000000000000000000000000000000600052604160045260246000fd5b620004d38262000488565b810181811067ffffffffffffffff82111715620004f557620004f462000499565b5b80604052505050565b60006200050a620002a9565b9050620005188282620004c8565b919050565b600067ffffffffffffffff8211156200053b576200053a62000499565b5b620005468262000488565b9050602081019050919050565b82818337600083830152505050565b60006200057962000573846200051d565b620004fe565b90508281526020810184848401111562000598576200059762000483565b5b620005a584828562000553565b509392505050565b600082601f830112620005c557620005c46200047e565b5b8135620005d784826020860162000562565b91505092915050565b60008060408385031215620005fa57620005f9620002b3565b5b600083013567ffffffffffffffff8111156200061b576200061a620002b8565b5b6200062985828601620005ad565b925050602083013567ffffffffffffffff8111156200064d576200064c620002b8565b5b6200065b85828601620005ad565b9150509250929050565b600081519050919050565b600082825260208201905092915050565b60005b83811015620006a157808201518184015260208101905062000684565b83811115620006b1576000848401525b50505050565b6000620006c48262000665565b620006d0818562000670565b9350620006e281856020860162000681565b620006ed8162000488565b840191505092915050565b60006060820190506200070f60008301866200035e565b8181036020830152620007238185620006b7565b90508181036040830152620007398184620006b7565b905094935050505056fe60806040523480156200001157600080fd5b5060405162001c9f38038062001c9f8339818101604052810190620000379190620003de565b60016000808573ffffffffffffffffffffffffffffffffffffffff1673ffffffffffffffffffffffffffffffffffffffff16815260200190815260200160002060006101000a81548160ff0219169083151502179055506001839080600181540180825580915050600190039060005260206000200160009091909190916101000a81548173ffffffffffffffffffffffffffffffffffffffff021916908373ffffffffffffffffffffffffffffffffffffffff1602179055508160029080519060200190620001099291906200012c565b508060039080519060200190620001229291906200012c565b50505050620004dd565b8280546200013a90620004a7565b90600052602060002090601f0160209004810192826200015e5760008555620001aa565b82601f106200017957805160ff1916838001178555620001aa565b82800160010185558215620001aa579182015b82811115620001a95782518255916020019190600101906200018c565b5b509050620001b99190620001bd565b5090565b5b80821115620001d8576000816000905550600101620001be565b5090565b6000604051905090565b600080fd5b600080fd5b600073ffffffffffffffffffffffffffffffffffffffff82169050919050565b60006200021d82620001f0565b9050919050565b6200022f8162000210565b81146200023b57600080fd5b50565b6000815190506200024f8162000224565b92915050565b600080fd5b600080fd5b6000601f19601f8301169050919050565b7f4e487b7100000000000000000000000000000000000000000000000000000000600052604160045260246000fd5b620002aa826200025f565b810181811067ffffffffffffffff82111715620002cc57620002cb62000270565b5b80604052505050565b6000620002e1620001dc565b9050620002ef82826200029f565b919050565b600067ffffffffffffffff82111562000312576200031162000270565b5b6200031d826200025f565b9050602081019050919050565b60005b838110156200034a5780820151818401526020810190506200032d565b838111156200035a576000848401525b50505050565b6000620003776200037184620002f4565b620002d5565b9050828152602081018484840111156200039657620003956200025a565b5b620003a38482856200032a565b509392505050565b600082601f830112620003c357620003c262000255565b5b8151620003d584826020860162000360565b91505092915050565b600080600060608486031215620003fa57620003f9620001e6565b5b60006200040a868287016200023e565b935050602084015167ffffffffffffffff8111156200042e576200042d620001eb565b5b6200043c86828701620003ab565b925050604084015167ffffffffffffffff81111562000460576200045f620001eb565b5b6200046e86828701620003ab565b9150509250925092565b7f4e487b7100000000000000000000000000000000000000000000000000000000600052602260045260246000fd5b60006002820490506001821680620004c057607f821691505b60208210811415620004d757620004d662000478565b5b50919050565b6117b280620004ed6000396000f3fe608060405234801561001057600080fd5b50600436106100935760003560e01c80635cf298fb116100665780635cf298fb146101255780636fc6c5791461014357806398b79628146101755780639d3ed80714610191578063dfa14e23146101c157610093565b80631008016d146100985780633e5690f4146100b65780634051ddac146100e65780634bb3fdad14610107575b600080fd5b6100a06101dd565b6040516100ad9190610ecb565b60405180910390f35b6100d060048036038101906100cb9190610f5f565b61026b565b6040516100dd9190610fa7565b60405180910390f35b6100ee61028b565b6040516100fe94939291906111f5565b60405180910390f35b61010f610592565b60405161011c9190610ecb565b60405180910390f35b61012d610620565b60405161013a9190610fa7565b60405180910390f35b61015d60048036038101906101589190611282565b610673565b60405161016c939291906112cd565b60405180910390f35b61018f600480360381019061018a9190611282565b610755565b005b6101ab60048036038101906101a69190611282565b610baf565b6040516101b8919061130b565b60405180910390f35b6101db60048036038101906101d6919061145b565b610bee565b005b600280546101ea906114d3565b80601f0160208091040260200160405190810160405280929190818152602001828054610216906114d3565b80156102635780601f1061023857610100808354040283529160200191610263565b820191906000526020600020905b81548152906001019060200180831161024657829003601f168201915b505050505081565b60006020528060005260406000206000915054906101000a900460ff1681565b60608060608060016004600260038380548060200260200160405190810160405280929190818152602001828054801561031a57602002820191906000526020600020905b8160009054906101000a900473ffffffffffffffffffffffffffffffffffffffff1673ffffffffffffffffffffffffffffffffffffffff16815260200190600101908083116102d0575b5050505050935082805480602002602001604051908101604052809291908181526020016000905b828210156104665783829060005260206000209060030201604051806060016040529081600082018054610375906114d3565b80601f01602080910402602001604051908101604052809291908181526020018280546103a1906114d3565b80156103ee5780601f106103c3576101008083540402835291602001916103ee565b820191906000526020600020905b8154815290600101906020018083116103d157829003601f168201915b50505050508152602001600182015481526020016002820160009054906101000a900473ffffffffffffffffffffffffffffffffffffffff1673ffffffffffffffffffffffffffffffffffffffff1673ffffffffffffffffffffffffffffffffffffffff168152505081526020019060010190610342565b505050509250818054610478906114d3565b80601f01602080910402602001604051908101604052809291908181526020018280546104a4906114d3565b80156104f15780601f106104c6576101008083540402835291602001916104f1565b820191906000526020600020905b8154815290600101906020018083116104d457829003601f168201915b50505050509150808054610504906114d3565b80601f0160208091040260200160405190810160405280929190818152602001828054610530906114d3565b801561057d5780601f106105525761010080835404028352916020019161057d565b820191906000526020600020905b81548152906001019060200180831161056057829003601f168201915b50505050509050935093509350935090919293565b6003805461059f906114d3565b80601f01602080910402602001604051908101604052809291908181526020018280546105cb906114d3565b80156106185780601f106105ed57610100808354040283529160200191610618565b820191906000526020600020905b8154815290600101906020018083116105fb57829003601f168201915b505050505081565b60008060003373ffffffffffffffffffffffffffffffffffffffff1673ffffffffffffffffffffffffffffffffffffffff16815260200190815260200160002060009054906101000a900460ff16905090565b6004818154811061068357600080fd5b90600052602060002090600302016000915090508060000180546106a6906114d3565b80601f01602080910402602001604051908101604052809291908181526020018280546106d2906114d3565b801561071f5780601f106106f45761010080835404028352916020019161071f565b820191906000526020600020905b81548152906001019060200180831161070257829003601f168201915b5050505050908060010154908060020160009054906101000a900473ffffffffffffffffffffffffffffffffffffffff16905083565b6000803373ffffffffffffffffffffffffffffffffffffffff1673ffffffffffffffffffffffffffffffffffffffff16815260200190815260200160002060009054906101000a900460ff166107e0576040517f08c379a00000000000000000000000000000000000000000000000000000000081526004016107d790611577565b60405180910390fd5b600080600483815481106107f7576107f6611597565b5b906000526020600020906003020160020160009054906101000a900473ffffffffffffffffffffffffffffffffffffffff1673ffffffffffffffffffffffffffffffffffffffff1673ffffffffffffffffffffffffffffffffffffffff16815260200190815260200160002060009054906101000a900460ff16156108b1576040517f08c379a00000000000000000000000000000000000000000000000000000000081526004016108a890611638565b60405180910390fd5b600060016004805490506108c59190611687565b90506000600482815481106108dd576108dc611597565b5b9060005260206000209060030201604051806060016040529081600082018054610906906114d3565b80601f0160208091040260200160405190810160405280929190818152602001828054610932906114d3565b801561097f5780601f106109545761010080835404028352916020019161097f565b820191906000526020600020905b81548152906001019060200180831161096257829003601f168201915b50505050508152602001600182015481526020016002820160009054906101000a900473ffffffffffffffffffffffffffffffffffffffff1673ffffffffffffffffffffffffffffffffffffffff1673ffffffffffffffffffffffffffffffffffffffff1681525050905080600484815481106109ff576109fe611597565b5b90600052602060002090600302016000820151816000019080519060200190610a29929190610d4f565b506020820151816001015560408201518160020160006101000a81548173ffffffffffffffffffffffffffffffffffffffff021916908373ffffffffffffffffffffffffffffffffffffffff1602179055509050506004805480610a9057610a8f6116bb565b5b600190038181906000526020600020906003020160008082016000610ab59190610dd5565b60018201600090556002820160006101000a81549073ffffffffffffffffffffffffffffffffffffffff0219169055505090556001600080836040015173ffffffffffffffffffffffffffffffffffffffff1673ffffffffffffffffffffffffffffffffffffffff16815260200190815260200160002060006101000a81548160ff021916908315150217905550600181604001519080600181540180825580915050600190039060005260206000200160009091909190916101000a81548173ffffffffffffffffffffffffffffffffffffffff021916908373ffffffffffffffffffffffffffffffffffffffff160217905550505050565b60018181548110610bbf57600080fd5b906000526020600020016000915054906101000a900473ffffffffffffffffffffffffffffffffffffffff1681565b6000803373ffffffffffffffffffffffffffffffffffffffff1673ffffffffffffffffffffffffffffffffffffffff16815260200190815260200160002060009054906101000a900460ff1615610c7a576040517f08c379a0000000000000000000000000000000000000000000000000000000008152600401610c719061175c565b60405180910390fd5b600060405180606001604052808381526020014281526020013373ffffffffffffffffffffffffffffffffffffffff16815250905060048190806001815401808255809150506001900390600052602060002090600302016000909190919091506000820151816000019080519060200190610cf7929190610d4f565b506020820151816001015560408201518160020160006101000a81548173ffffffffffffffffffffffffffffffffffffffff021916908373ffffffffffffffffffffffffffffffffffffffff16021790555050505050565b828054610d5b906114d3565b90600052602060002090601f016020900481019282610d7d5760008555610dc4565b82601f10610d9657805160ff1916838001178555610dc4565b82800160010185558215610dc4579182015b82811115610dc3578251825591602001919060010190610da8565b5b509050610dd19190610e15565b5090565b508054610de1906114d3565b6000825580601f10610df35750610e12565b601f016020900490600052602060002090810190610e119190610e15565b5b50565b5b80821115610e2e576000816000905550600101610e16565b5090565b600081519050919050565b600082825260208201905092915050565b60005b83811015610e6c578082015181840152602081019050610e51565b83811115610e7b576000848401525b50505050565b6000601f19601f8301169050919050565b6000610e9d82610e32565b610ea78185610e3d565b9350610eb7818560208601610e4e565b610ec081610e81565b840191505092915050565b60006020820190508181036000830152610ee58184610e92565b905092915050565b6000604051905090565b600080fd5b600080fd5b600073ffffffffffffffffffffffffffffffffffffffff82169050919050565b6000610f2c82610f01565b9050919050565b610f3c81610f21565b8114610f4757600080fd5b50565b600081359050610f5981610f33565b92915050565b600060208284031215610f7557610f74610ef7565b5b6000610f8384828501610f4a565b91505092915050565b60008115159050919050565b610fa181610f8c565b82525050565b6000602082019050610fbc6000830184610f98565b92915050565b600081519050919050565b600082825260208201905092915050565b6000819050602082019050919050565b610ff781610f21565b82525050565b60006110098383610fee565b60208301905092915050565b6000602082019050919050565b600061102d82610fc2565b6110378185610fcd565b935061104283610fde565b8060005b8381101561107357815161105a8882610ffd565b975061106583611015565b925050600181019050611046565b5085935050505092915050565b600081519050919050565b600082825260208201905092915050565b6000819050602082019050919050565b600082825260208201905092915050565b60006110c882610e32565b6110d281856110ac565b93506110e2818560208601610e4e565b6110eb81610e81565b840191505092915050565b6000819050919050565b611109816110f6565b82525050565b6000606083016000830151848203600086015261112c82826110bd565b91505060208301516111416020860182611100565b5060408301516111546040860182610fee565b508091505092915050565b600061116b838361110f565b905092915050565b6000602082019050919050565b600061118b82611080565b611195818561108b565b9350836020820285016111a78561109c565b8060005b858110156111e357848403895281516111c4858261115f565b94506111cf83611173565b925060208a019950506001810190506111ab565b50829750879550505050505092915050565b6000608082019050818103600083015261120f8187611022565b905081810360208301526112238186611180565b905081810360408301526112378185610e92565b9050818103606083015261124b8184610e92565b905095945050505050565b61125f816110f6565b811461126a57600080fd5b50565b60008135905061127c81611256565b92915050565b60006020828403121561129857611297610ef7565b5b60006112a68482850161126d565b91505092915050565b6112b8816110f6565b82525050565b6112c781610f21565b82525050565b600060608201905081810360008301526112e78186610e92565b90506112f660208301856112af565b61130360408301846112be565b949350505050565b600060208201905061132060008301846112be565b92915050565b600080fd5b600080fd5b7f4e487b7100000000000000000000000000000000000000000000000000000000600052604160045260246000fd5b61136882610e81565b810181811067ffffffffffffffff8211171561138757611386611330565b5b80604052505050565b600061139a610eed565b90506113a6828261135f565b919050565b600067ffffffffffffffff8211156113c6576113c5611330565b5b6113cf82610e81565b9050602081019050919050565b82818337600083830152505050565b60006113fe6113f9846113ab565b611390565b90508281526020810184848401111561141a5761141961132b565b5b6114258482856113dc565b509392505050565b600082601f83011261144257611441611326565b5b81356114528482602086016113eb565b91505092915050565b60006020828403121561147157611470610ef7565b5b600082013567ffffffffffffffff81111561148f5761148e610efc565b5b61149b8482850161142d565b91505092915050565b7f4e487b7100000000000000000000000000000000000000000000000000000000600052602260045260246000fd5b600060028204905060018216806114eb57607f821691505b602082108114156114ff576114fe6114a4565b5b50919050565b7f4f6e6c7920616e20616363657074656420617574686f722063616e206170707260008201527f6f76652061207265717565737400000000000000000000000000000000000000602082015250565b6000611561602d83610e3d565b915061156c82611505565b604082019050919050565b6000602082019050818103600083015261159081611554565b9050919050565b7f4e487b7100000000000000000000000000000000000000000000000000000000600052603260045260246000fd5b7f417574686f72206f6620746865207265717565737420697320616c726561647960008201527f20696e636c7564656420696e20746865206c697374206f6620617574686f7273602082015250565b6000611622604083610e3d565b915061162d826115c6565b604082019050919050565b6000602082019050818103600083015261165181611615565b9050919050565b7f4e487b7100000000000000000000000000000000000000000000000000000000600052601160045260246000fd5b6000611692826110f6565b915061169d836110f6565b9250828210156116b0576116af611658565b5b828203905092915050565b7f4e487b7100000000000000000000000000000000000000000000000000000000600052603160045260246000fd5b7f417574686f7220616c72656164792065786973747320696e20746865206c697360008201527f74206f6620617574686f72730000000000000000000000000000000000000000602082015250565b6000611746602c83610e3d565b9150611751826116ea565b604082019050919050565b6000602082019050818103600083015261177581611739565b905091905056fea264697066735822122071c78b9cbbc1e63089cb9ab6d6491e3f125c108b3aad0c3364b06f83e30272f064736f6c63430008090033a2646970667358221220800634f6bdc32b13558bcad1a95cf824651fe2624e3b1e0909023c3f3def006364736f6c63430008090033","opcodes":"PUSH1 0x80 PUSH1 0x40 MSTORE CALLVALUE DUP1 ISZERO PUSH2 0x10 JUMPI PUSH1 0x0 DUP1 REVERT JUMPDEST POP PUSH2 0x2418 DUP1 PUSH2 0x20 PUSH1 0x0 CODECOPY PUSH1 0x0 RETURN INVALID PUSH1 0x80 PUSH1 0x40 MSTORE CALLVALUE DUP1 ISZERO PUSH3 0x11 JUMPI PUSH1 0x0 DUP1 REVERT JUMPDEST POP PUSH1 0x4 CALLDATASIZE LT PUSH3 0x46 JUMPI PUSH1 0x0 CALLDATALOAD PUSH1 0xE0 SHR DUP1 PUSH4 0x18351EA7 EQ PUSH3 0x4B JUMPI DUP1 PUSH4 0x2FF2BDD5 EQ PUSH3 0x81 JUMPI DUP1 PUSH4 0x9151D403 EQ PUSH3 0xA3 JUMPI JUMPDEST PUSH1 0x0 DUP1 REVERT JUMPDEST PUSH3 0x69 PUSH1 0x4 DUP1 CALLDATASIZE SUB DUP2 ADD SWAP1 PUSH3 0x63 SWAP2 SWAP1 PUSH3 0x2F8 JUMP JUMPDEST PUSH3 0xD9 JUMP JUMPDEST PUSH1 0x40 MLOAD PUSH3 0x78 SWAP2 SWAP1 PUSH3 0x36F JUMP JUMPDEST PUSH1 0x40 MLOAD DUP1 SWAP2 SUB SWAP1 RETURN JUMPDEST PUSH3 0x8B PUSH3 0x119 JUMP JUMPDEST PUSH1 0x40 MLOAD PUSH3 0x9A SWAP2 SWAP1 PUSH3 0x45A JUMP JUMPDEST PUSH1 0x40 MLOAD DUP1 SWAP2 SUB SWAP1 RETURN JUMPDEST PUSH3 0xC1 PUSH1 0x4 DUP1 CALLDATASIZE SUB DUP2 ADD SWAP1 PUSH3 0xBB SWAP2 SWAP1 PUSH3 0x5E0 JUMP JUMPDEST PUSH3 0x1A9 JUMP JUMPDEST PUSH1 0x40 MLOAD PUSH3 0xD0 SWAP2 SWAP1 PUSH3 0x36F JUMP JUMPDEST PUSH1 0x40 MLOAD DUP1 SWAP2 SUB SWAP1 RETURN JUMPDEST PUSH1 0x0 DUP2 DUP2 SLOAD DUP2 LT PUSH3 0xEA JUMPI PUSH1 0x0 DUP1 REVERT JUMPDEST SWAP1 PUSH1 0x0 MSTORE PUSH1 0x20 PUSH1 0x0 KECCAK256 ADD PUSH1 0x0 SWAP2 POP SLOAD SWAP1 PUSH2 0x100 EXP SWAP1 DIV PUSH20 0xFFFFFFFFFFFFFFFFFFFFFFFFFFFFFFFFFFFFFFFF AND DUP2 JUMP JUMPDEST PUSH1 0x60 PUSH1 0x0 DUP1 SLOAD DUP1 PUSH1 0x20 MUL PUSH1 0x20 ADD PUSH1 0x40 MLOAD SWAP1 DUP2 ADD PUSH1 0x40 MSTORE DUP1 SWAP3 SWAP2 SWAP1 DUP2 DUP2 MSTORE PUSH1 0x20 ADD DUP3 DUP1 SLOAD DUP1 ISZERO PUSH3 0x19F JUMPI PUSH1 0x20 MUL DUP3 ADD SWAP2 SWAP1 PUSH1 0x0 MSTORE PUSH1 0x20 PUSH1 0x0 KECCAK256 SWAP1 JUMPDEST DUP2 PUSH1 0x0 SWAP1 SLOAD SWAP1 PUSH2 0x100 EXP SWAP1 DIV PUSH20 0xFFFFFFFFFFFFFFFFFFFFFFFFFFFFFFFFFFFFFFFF AND PUSH20 0xFFFFFFFFFFFFFFFFFFFFFFFFFFFFFFFFFFFFFFFF AND DUP2 MSTORE PUSH1 0x20 ADD SWAP1 PUSH1 0x1 ADD SWAP1 DUP1 DUP4 GT PUSH3 0x154 JUMPI JUMPDEST POP POP POP POP POP SWAP1 POP SWAP1 JUMP JUMPDEST PUSH1 0x0 DUP1 CALLER DUP5 DUP5 PUSH1 0x40 MLOAD PUSH3 0x1BD SWAP1 PUSH3 0x29B JUMP JUMPDEST PUSH3 0x1CB SWAP4 SWAP3 SWAP2 SWAP1 PUSH3 0x6F8 JUMP JUMPDEST PUSH1 0x40 MLOAD DUP1 SWAP2 SUB SWAP1 PUSH1 0x0 CREATE DUP1 ISZERO DUP1 ISZERO PUSH3 0x1E8 JUMPI RETURNDATASIZE PUSH1 0x0 DUP1 RETURNDATACOPY RETURNDATASIZE PUSH1 0x0 REVERT JUMPDEST POP SWAP1 POP PUSH1 0x0 DUP2 SWAP1 DUP1 PUSH1 0x1 DUP2 SLOAD ADD DUP1 DUP3 SSTORE DUP1 SWAP2 POP POP PUSH1 0x1 SWAP1 SUB SWAP1 PUSH1 0x0 MSTORE PUSH1 0x20 PUSH1 0x0 KECCAK256 ADD PUSH1 0x0 SWAP1 SWAP2 SWAP1 SWAP2 SWAP1 SWAP2 PUSH2 0x100 EXP DUP2 SLOAD DUP2 PUSH20 0xFFFFFFFFFFFFFFFFFFFFFFFFFFFFFFFFFFFFFFFF MUL NOT AND SWAP1 DUP4 PUSH20 0xFFFFFFFFFFFFFFFFFFFFFFFFFFFFFFFFFFFFFFFF AND MUL OR SWAP1 SSTORE POP DUP1 PUSH20 0xFFFFFFFFFFFFFFFFFFFFFFFFFFFFFFFFFFFFFFFF AND PUSH32 0x994B548CD2649CD87C03E8AF83CAB9893684EBA91BF07215AD26DF0654DC0734 PUSH1 0x40 MLOAD PUSH1 0x40 MLOAD DUP1 SWAP2 SUB SWAP1 LOG2 DUP1 SWAP2 POP POP SWAP3 SWAP2 POP POP JUMP JUMPDEST PUSH2 0x1C9F DUP1 PUSH3 0x744 DUP4 CODECOPY ADD SWAP1 JUMP JUMPDEST PUSH1 0x0 PUSH1 0x40 MLOAD SWAP1 POP SWAP1 JUMP JUMPDEST PUSH1 0x0 DUP1 REVERT JUMPDEST PUSH1 0x0 DUP1 REVERT JUMPDEST PUSH1 0x0 DUP2 SWAP1 POP SWAP2 SWAP1 POP JUMP JUMPDEST PUSH3 0x2D2 DUP2 PUSH3 0x2BD JUMP JUMPDEST DUP2 EQ PUSH3 0x2DE JUMPI PUSH1 0x0 DUP1 REVERT JUMPDEST POP JUMP JUMPDEST PUSH1 0x0 DUP2 CALLDATALOAD SWAP1 POP PUSH3 0x2F2 DUP2 PUSH3 0x2C7 JUMP JUMPDEST SWAP3 SWAP2 POP POP JUMP JUMPDEST PUSH1 0x0 PUSH1 0x20 DUP3 DUP5 SUB SLT ISZERO PUSH3 0x311 JUMPI PUSH3 0x310 PUSH3 0x2B3 JUMP JUMPDEST JUMPDEST PUSH1 0x0 PUSH3 0x321 DUP5 DUP3 DUP6 ADD PUSH3 0x2E1 JUMP JUMPDEST SWAP2 POP POP SWAP3 SWAP2 POP POP JUMP JUMPDEST PUSH1 0x0 PUSH20 0xFFFFFFFFFFFFFFFFFFFFFFFFFFFFFFFFFFFFFFFF DUP3 AND SWAP1 POP SWAP2 SWAP1 POP JUMP JUMPDEST PUSH1 0x0 PUSH3 0x357 DUP3 PUSH3 0x32A JUMP JUMPDEST SWAP1 POP SWAP2 SWAP1 POP JUMP JUMPDEST PUSH3 0x369 DUP2 PUSH3 0x34A JUMP JUMPDEST DUP3 MSTORE POP POP JUMP JUMPDEST PUSH1 0x0 PUSH1 0x20 DUP3 ADD SWAP1 POP PUSH3 0x386 PUSH1 0x0 DUP4 ADD DUP5 PUSH3 0x35E JUMP JUMPDEST SWAP3 SWAP2 POP POP JUMP JUMPDEST PUSH1 0x0 DUP2 MLOAD SWAP1 POP SWAP2 SWAP1 POP JUMP JUMPDEST PUSH1 0x0 DUP3 DUP3 MSTORE PUSH1 0x20 DUP3 ADD SWAP1 POP SWAP3 SWAP2 POP POP JUMP JUMPDEST PUSH1 0x0 DUP2 SWAP1 POP PUSH1 0x20 DUP3 ADD SWAP1 POP SWAP2 SWAP1 POP JUMP JUMPDEST PUSH3 0x3C3 DUP2 PUSH3 0x34A JUMP JUMPDEST DUP3 MSTORE POP POP JUMP JUMPDEST PUSH1 0x0 PUSH3 0x3D7 DUP4 DUP4 PUSH3 0x3B8 JUMP JUMPDEST PUSH1 0x20 DUP4 ADD SWAP1 POP SWAP3 SWAP2 POP POP JUMP JUMPDEST PUSH1 0x0 PUSH1 0x20 DUP3 ADD SWAP1 POP SWAP2 SWAP1 POP JUMP JUMPDEST PUSH1 0x0 PUSH3 0x3FD DUP3 PUSH3 0x38C JUMP JUMPDEST PUSH3 0x409 DUP2 DUP6 PUSH3 0x397 JUMP JUMPDEST SWAP4 POP PUSH3 0x416 DUP4 PUSH3 0x3A8 JUMP JUMPDEST DUP1 PUSH1 0x0 JUMPDEST DUP4 DUP2 LT ISZERO PUSH3 0x44D JUMPI DUP2 MLOAD PUSH3 0x431 DUP9 DUP3 PUSH3 0x3C9 JUMP JUMPDEST SWAP8 POP PUSH3 0x43E DUP4 PUSH3 0x3E3 JUMP JUMPDEST SWAP3 POP POP PUSH1 0x1 DUP2 ADD SWAP1 POP PUSH3 0x41A JUMP JUMPDEST POP DUP6 SWAP4 POP POP POP POP SWAP3 SWAP2 POP POP JUMP JUMPDEST PUSH1 0x0 PUSH1 0x20 DUP3 ADD SWAP1 POP DUP2 DUP2 SUB PUSH1 0x0 DUP4 ADD MSTORE PUSH3 0x476 DUP2 DUP5 PUSH3 0x3F0 JUMP JUMPDEST SWAP1 POP SWAP3 SWAP2 POP POP JUMP JUMPDEST PUSH1 0x0 DUP1 REVERT JUMPDEST PUSH1 0x0 DUP1 REVERT JUMPDEST PUSH1 0x0 PUSH1 0x1F NOT PUSH1 0x1F DUP4 ADD AND SWAP1 POP SWAP2 SWAP1 POP JUMP JUMPDEST PUSH32 0x4E487B7100000000000000000000000000000000000000000000000000000000 PUSH1 0x0 MSTORE PUSH1 0x41 PUSH1 0x4 MSTORE PUSH1 0x24 PUSH1 0x0 REVERT JUMPDEST PUSH3 0x4D3 DUP3 PUSH3 0x488 JUMP JUMPDEST DUP2 ADD DUP2 DUP2 LT PUSH8 0xFFFFFFFFFFFFFFFF DUP3 GT OR ISZERO PUSH3 0x4F5 JUMPI PUSH3 0x4F4 PUSH3 0x499 JUMP JUMPDEST JUMPDEST DUP1 PUSH1 0x40 MSTORE POP POP POP JUMP JUMPDEST PUSH1 0x0 PUSH3 0x50A PUSH3 0x2A9 JUMP JUMPDEST SWAP1 POP PUSH3 0x518 DUP3 DUP3 PUSH3 0x4C8 JUMP JUMPDEST SWAP2 SWAP1 POP JUMP JUMPDEST PUSH1 0x0 PUSH8 0xFFFFFFFFFFFFFFFF DUP3 GT ISZERO PUSH3 0x53B JUMPI PUSH3 0x53A PUSH3 0x499 JUMP JUMPDEST JUMPDEST PUSH3 0x546 DUP3 PUSH3 0x488 JUMP JUMPDEST SWAP1 POP PUSH1 0x20 DUP2 ADD SWAP1 POP SWAP2 SWAP1 POP JUMP JUMPDEST DUP3 DUP2 DUP4 CALLDATACOPY PUSH1 0x0 DUP4 DUP4 ADD MSTORE POP POP POP JUMP JUMPDEST PUSH1 0x0 PUSH3 0x579 PUSH3 0x573 DUP5 PUSH3 0x51D JUMP JUMPDEST PUSH3 0x4FE JUMP JUMPDEST SWAP1 POP DUP3 DUP2 MSTORE PUSH1 0x20 DUP2 ADD DUP5 DUP5 DUP5 ADD GT ISZERO PUSH3 0x598 JUMPI PUSH3 0x597 PUSH3 0x483 JUMP JUMPDEST JUMPDEST PUSH3 0x5A5 DUP5 DUP3 DUP6 PUSH3 0x553 JUMP JUMPDEST POP SWAP4 SWAP3 POP POP POP JUMP JUMPDEST PUSH1 0x0 DUP3 PUSH1 0x1F DUP4 ADD SLT PUSH3 0x5C5 JUMPI PUSH3 0x5C4 PUSH3 0x47E JUMP JUMPDEST JUMPDEST DUP2 CALLDATALOAD PUSH3 0x5D7 DUP5 DUP3 PUSH1 0x20 DUP7 ADD PUSH3 0x562 JUMP JUMPDEST SWAP2 POP POP SWAP3 SWAP2 POP POP JUMP JUMPDEST PUSH1 0x0 DUP1 PUSH1 0x40 DUP4 DUP6 SUB SLT ISZERO PUSH3 0x5FA JUMPI PUSH3 0x5F9 PUSH3 0x2B3 JUMP JUMPDEST JUMPDEST PUSH1 0x0 DUP4 ADD CALLDATALOAD PUSH8 0xFFFFFFFFFFFFFFFF DUP2 GT ISZERO PUSH3 0x61B JUMPI PUSH3 0x61A PUSH3 0x2B8 JUMP JUMPDEST JUMPDEST PUSH3 0x629 DUP6 DUP3 DUP7 ADD PUSH3 0x5AD JUMP JUMPDEST SWAP3 POP POP PUSH1 0x20 DUP4 ADD CALLDATALOAD PUSH8 0xFFFFFFFFFFFFFFFF DUP2 GT ISZERO PUSH3 0x64D JUMPI PUSH3 0x64C PUSH3 0x2B8 JUMP JUMPDEST JUMPDEST PUSH3 0x65B DUP6 DUP3 DUP7 ADD PUSH3 0x5AD JUMP JUMPDEST SWAP2 POP POP SWAP3 POP SWAP3 SWAP1 POP JUMP JUMPDEST PUSH1 0x0 DUP2 MLOAD SWAP1 POP SWAP2 SWAP1 POP JUMP JUMPDEST PUSH1 0x0 DUP3 DUP3 MSTORE PUSH1 0x20 DUP3 ADD SWAP1 POP SWAP3 SWAP2 POP POP JUMP JUMPDEST PUSH1 0x0 JUMPDEST DUP4 DUP2 LT ISZERO PUSH3 0x6A1 JUMPI DUP1 DUP3 ADD MLOAD DUP2 DUP5 ADD MSTORE PUSH1 0x20 DUP2 ADD SWAP1 POP PUSH3 0x684 JUMP JUMPDEST DUP4 DUP2 GT ISZERO PUSH3 0x6B1 JUMPI PUSH1 0x0 DUP5 DUP5 ADD MSTORE JUMPDEST POP POP POP POP JUMP JUMPDEST PUSH1 0x0 PUSH3 0x6C4 DUP3 PUSH3 0x665 JUMP JUMPDEST PUSH3 0x6D0 DUP2 DUP6 PUSH3 0x670 JUMP JUMPDEST SWAP4 POP PUSH3 0x6E2 DUP2 DUP6 PUSH1 0x20 DUP7 ADD PUSH3 0x681 JUMP JUMPDEST PUSH3 0x6ED DUP2 PUSH3 0x488 JUMP JUMPDEST DUP5 ADD SWAP2 POP POP SWAP3 SWAP2 POP POP JUMP JUMPDEST PUSH1 0x0 PUSH1 0x60 DUP3 ADD SWAP1 POP PUSH3 0x70F PUSH1 0x0 DUP4 ADD DUP7 PUSH3 0x35E JUMP JUMPDEST DUP2 DUP2 SUB PUSH1 0x20 DUP4 ADD MSTORE PUSH3 0x723 DUP2 DUP6 PUSH3 0x6B7 JUMP JUMPDEST SWAP1 POP DUP2 DUP2 SUB PUSH1 0x40 DUP4 ADD MSTORE PUSH3 0x739 DUP2 DUP5 PUSH3 0x6B7 JUMP JUMPDEST SWAP1 POP SWAP5 SWAP4 POP POP POP POP JUMP INVALID PUSH1 0x80 PUSH1 0x40 MSTORE CALLVALUE DUP1 ISZERO PUSH3 0x11 JUMPI PUSH1 0x0 DUP1 REVERT JUMPDEST POP PUSH1 0x40 MLOAD PUSH3 0x1C9F CODESIZE SUB DUP1 PUSH3 0x1C9F DUP4 CODECOPY DUP2 DUP2 ADD PUSH1 0x40 MSTORE DUP2 ADD SWAP1 PUSH3 0x37 SWAP2 SWAP1 PUSH3 0x3DE JUMP JUMPDEST PUSH1 0x1 PUSH1 0x0 DUP1 DUP6 PUSH20 0xFFFFFFFFFFFFFFFFFFFFFFFFFFFFFFFFFFFFFFFF AND PUSH20 0xFFFFFFFFFFFFFFFFFFFFFFFFFFFFFFFFFFFFFFFF AND DUP2 MSTORE PUSH1 0x20 ADD SWAP1 DUP2 MSTORE PUSH1 0x20 ADD PUSH1 0x0 KECCAK256 PUSH1 0x0 PUSH2 0x100 EXP DUP2 SLOAD DUP2 PUSH1 0xFF MUL NOT AND SWAP1 DUP4 ISZERO ISZERO MUL OR SWAP1 SSTORE POP PUSH1 0x1 DUP4 SWAP1 DUP1 PUSH1 0x1 DUP2 SLOAD ADD DUP1 DUP3 SSTORE DUP1 SWAP2 POP POP PUSH1 0x1 SWAP1 SUB SWAP1 PUSH1 0x0 MSTORE PUSH1 0x20 PUSH1 0x0 KECCAK256 ADD PUSH1 0x0 SWAP1 SWAP2 SWAP1 SWAP2 SWAP1 SWAP2 PUSH2 0x100 EXP DUP2 SLOAD DUP2 PUSH20 0xFFFFFFFFFFFFFFFFFFFFFFFFFFFFFFFFFFFFFFFF MUL NOT AND SWAP1 DUP4 PUSH20 0xFFFFFFFFFFFFFFFFFFFFFFFFFFFFFFFFFFFFFFFF AND MUL OR SWAP1 SSTORE POP DUP2 PUSH1 0x2 SWAP1 DUP1 MLOAD SWAP1 PUSH1 0x20 ADD SWAP1 PUSH3 0x109 SWAP3 SWAP2 SWAP1 PUSH3 0x12C JUMP JUMPDEST POP DUP1 PUSH1 0x3 SWAP1 DUP1 MLOAD SWAP1 PUSH1 0x20 ADD SWAP1 PUSH3 0x122 SWAP3 SWAP2 SWAP1 PUSH3 0x12C JUMP JUMPDEST POP POP POP POP PUSH3 0x4DD JUMP JUMPDEST DUP3 DUP1 SLOAD PUSH3 0x13A SWAP1 PUSH3 0x4A7 JUMP JUMPDEST SWAP1 PUSH1 0x0 MSTORE PUSH1 0x20 PUSH1 0x0 KECCAK256 SWAP1 PUSH1 0x1F ADD PUSH1 0x20 SWAP1 DIV DUP2 ADD SWAP3 DUP3 PUSH3 0x15E JUMPI PUSH1 0x0 DUP6 SSTORE PUSH3 0x1AA JUMP JUMPDEST DUP3 PUSH1 0x1F LT PUSH3 0x179 JUMPI DUP1 MLOAD PUSH1 0xFF NOT AND DUP4 DUP1 ADD OR DUP6 SSTORE PUSH3 0x1AA JUMP JUMPDEST DUP3 DUP1 ADD PUSH1 0x1 ADD DUP6 SSTORE DUP3 ISZERO PUSH3 0x1AA JUMPI SWAP2 DUP3 ADD JUMPDEST DUP3 DUP2 GT ISZERO PUSH3 0x1A9 JUMPI DUP3 MLOAD DUP3 SSTORE SWAP2 PUSH1 0x20 ADD SWAP2 SWAP1 PUSH1 0x1 ADD SWAP1 PUSH3 0x18C JUMP JUMPDEST JUMPDEST POP SWAP1 POP PUSH3 0x1B9 SWAP2 SWAP1 PUSH3 0x1BD JUMP JUMPDEST POP SWAP1 JUMP JUMPDEST JUMPDEST DUP1 DUP3 GT ISZERO PUSH3 0x1D8 JUMPI PUSH1 0x0 DUP2 PUSH1 0x0 SWAP1 SSTORE POP PUSH1 0x1 ADD PUSH3 0x1BE JUMP JUMPDEST POP SWAP1 JUMP JUMPDEST PUSH1 0x0 PUSH1 0x40 MLOAD SWAP1 POP SWAP1 JUMP JUMPDEST PUSH1 0x0 DUP1 REVERT JUMPDEST PUSH1 0x0 DUP1 REVERT JUMPDEST PUSH1 0x0 PUSH20 0xFFFFFFFFFFFFFFFFFFFFFFFFFFFFFFFFFFFFFFFF DUP3 AND SWAP1 POP SWAP2 SWAP1 POP JUMP JUMPDEST PUSH1 0x0 PUSH3 0x21D DUP3 PUSH3 0x1F0 JUMP JUMPDEST SWAP1 POP SWAP2 SWAP1 POP JUMP JUMPDEST PUSH3 0x22F DUP2 PUSH3 0x210 JUMP JUMPDEST DUP2 EQ PUSH3 0x23B JUMPI PUSH1 0x0 DUP1 REVERT JUMPDEST POP JUMP JUMPDEST PUSH1 0x0 DUP2 MLOAD SWAP1 POP PUSH3 0x24F DUP2 PUSH3 0x224 JUMP JUMPDEST SWAP3 SWAP2 POP POP JUMP JUMPDEST PUSH1 0x0 DUP1 REVERT JUMPDEST PUSH1 0x0 DUP1 REVERT JUMPDEST PUSH1 0x0 PUSH1 0x1F NOT PUSH1 0x1F DUP4 ADD AND SWAP1 POP SWAP2 SWAP1 POP JUMP JUMPDEST PUSH32 0x4E487B7100000000000000000000000000000000000000000000000000000000 PUSH1 0x0 MSTORE PUSH1 0x41 PUSH1 0x4 MSTORE PUSH1 0x24 PUSH1 0x0 REVERT JUMPDEST PUSH3 0x2AA DUP3 PUSH3 0x25F JUMP JUMPDEST DUP2 ADD DUP2 DUP2 LT PUSH8 0xFFFFFFFFFFFFFFFF DUP3 GT OR ISZERO PUSH3 0x2CC JUMPI PUSH3 0x2CB PUSH3 0x270 JUMP JUMPDEST JUMPDEST DUP1 PUSH1 0x40 MSTORE POP POP POP JUMP JUMPDEST PUSH1 0x0 PUSH3 0x2E1 PUSH3 0x1DC JUMP JUMPDEST SWAP1 POP PUSH3 0x2EF DUP3 DUP3 PUSH3 0x29F JUMP JUMPDEST SWAP2 SWAP1 POP JUMP JUMPDEST PUSH1 0x0 PUSH8 0xFFFFFFFFFFFFFFFF DUP3 GT ISZERO PUSH3 0x312 JUMPI PUSH3 0x311 PUSH3 0x270 JUMP JUMPDEST JUMPDEST PUSH3 0x31D DUP3 PUSH3 0x25F JUMP JUMPDEST SWAP1 POP PUSH1 0x20 DUP2 ADD SWAP1 POP SWAP2 SWAP1 POP JUMP JUMPDEST PUSH1 0x0 JUMPDEST DUP4 DUP2 LT ISZERO PUSH3 0x34A JUMPI DUP1 DUP3 ADD MLOAD DUP2 DUP5 ADD MSTORE PUSH1 0x20 DUP2 ADD SWAP1 POP PUSH3 0x32D JUMP JUMPDEST DUP4 DUP2 GT ISZERO PUSH3 0x35A JUMPI PUSH1 0x0 DUP5 DUP5 ADD MSTORE JUMPDEST POP POP POP POP JUMP JUMPDEST PUSH1 0x0 PUSH3 0x377 PUSH3 0x371 DUP5 PUSH3 0x2F4 JUMP JUMPDEST PUSH3 0x2D5 JUMP JUMPDEST SWAP1 POP DUP3 DUP2 MSTORE PUSH1 0x20 DUP2 ADD DUP5 DUP5 DUP5 ADD GT ISZERO PUSH3 0x396 JUMPI PUSH3 0x395 PUSH3 0x25A JUMP JUMPDEST JUMPDEST PUSH3 0x3A3 DUP5 DUP3 DUP6 PUSH3 0x32A JUMP JUMPDEST POP SWAP4 SWAP3 POP POP POP JUMP JUMPDEST PUSH1 0x0 DUP3 PUSH1 0x1F DUP4 ADD SLT PUSH3 0x3C3 JUMPI PUSH3 0x3C2 PUSH3 0x255 JUMP JUMPDEST JUMPDEST DUP2 MLOAD PUSH3 0x3D5 DUP5 DUP3 PUSH1 0x20 DUP7 ADD PUSH3 0x360 JUMP JUMPDEST SWAP2 POP POP SWAP3 SWAP2 POP POP JUMP JUMPDEST PUSH1 0x0 DUP1 PUSH1 0x0 PUSH1 0x60 DUP5 DUP7 SUB SLT ISZERO PUSH3 0x3FA JUMPI PUSH3 0x3F9 PUSH3 0x1E6 JUMP JUMPDEST JUMPDEST PUSH1 0x0 PUSH3 0x40A DUP7 DUP3 DUP8 ADD PUSH3 0x23E JUMP JUMPDEST SWAP4 POP POP PUSH1 0x20 DUP5 ADD MLOAD PUSH8 0xFFFFFFFFFFFFFFFF DUP2 GT ISZERO PUSH3 0x42E JUMPI PUSH3 0x42D PUSH3 0x1EB JUMP JUMPDEST JUMPDEST PUSH3 0x43C DUP7 DUP3 DUP8 ADD PUSH3 0x3AB JUMP JUMPDEST SWAP3 POP POP PUSH1 0x40 DUP5 ADD MLOAD PUSH8 0xFFFFFFFFFFFFFFFF DUP2 GT ISZERO PUSH3 0x460 JUMPI PUSH3 0x45F PUSH3 0x1EB JUMP JUMPDEST JUMPDEST PUSH3 0x46E DUP7 DUP3 DUP8 ADD PUSH3 0x3AB JUMP JUMPDEST SWAP2 POP POP SWAP3 POP SWAP3 POP SWAP3 JUMP JUMPDEST PUSH32 0x4E487B7100000000000000000000000000000000000000000000000000000000 PUSH1 0x0 MSTORE PUSH1 0x22 PUSH1 0x4 MSTORE PUSH1 0x24 PUSH1 0x0 REVERT JUMPDEST PUSH1 0x0 PUSH1 0x2 DUP3 DIV SWAP1 POP PUSH1 0x1 DUP3 AND DUP1 PUSH3 0x4C0 JUMPI PUSH1 0x7F DUP3 AND SWAP2 POP JUMPDEST PUSH1 0x20 DUP3 LT DUP2 EQ ISZERO PUSH3 0x4D7 JUMPI PUSH3 0x4D6 PUSH3 0x478 JUMP JUMPDEST JUMPDEST POP SWAP2 SWAP1 POP JUMP JUMPDEST PUSH2 0x17B2 DUP1 PUSH3 0x4ED PUSH1 0x0 CODECOPY PUSH1 0x0 RETURN INVALID PUSH1 0x80 PUSH1 0x40 MSTORE CALLVALUE DUP1 ISZERO PUSH2 0x10 JUMPI PUSH1 0x0 DUP1 REVERT JUMPDEST POP PUSH1 0x4 CALLDATASIZE LT PUSH2 0x93 JUMPI PUSH1 0x0 CALLDATALOAD PUSH1 0xE0 SHR DUP1 PUSH4 0x5CF298FB GT PUSH2 0x66 JUMPI DUP1 PUSH4 0x5CF298FB EQ PUSH2 0x125 JUMPI DUP1 PUSH4 0x6FC6C579 EQ PUSH2 0x143 JUMPI DUP1 PUSH4 0x98B79628 EQ PUSH2 0x175 JUMPI DUP1 PUSH4 0x9D3ED807 EQ PUSH2 0x191 JUMPI DUP1 PUSH4 0xDFA14E23 EQ PUSH2 0x1C1 JUMPI PUSH2 0x93 JUMP JUMPDEST DUP1 PUSH4 0x1008016D EQ PUSH2 0x98 JUMPI DUP1 PUSH4 0x3E5690F4 EQ PUSH2 0xB6 JUMPI DUP1 PUSH4 0x4051DDAC EQ PUSH2 0xE6 JUMPI DUP1 PUSH4 0x4BB3FDAD EQ PUSH2 0x107 JUMPI JUMPDEST PUSH1 0x0 DUP1 REVERT JUMPDEST PUSH2 0xA0 PUSH2 0x1DD JUMP JUMPDEST PUSH1 0x40 MLOAD PUSH2 0xAD SWAP2 SWAP1 PUSH2 0xECB JUMP JUMPDEST PUSH1 0x40 MLOAD DUP1 SWAP2 SUB SWAP1 RETURN JUMPDEST PUSH2 0xD0 PUSH1 0x4 DUP1 CALLDATASIZE SUB DUP2 ADD SWAP1 PUSH2 0xCB SWAP2 SWAP1 PUSH2 0xF5F JUMP JUMPDEST PUSH2 0x26B JUMP JUMPDEST PUSH1 0x40 MLOAD PUSH2 0xDD SWAP2 SWAP1 PUSH2 0xFA7 JUMP JUMPDEST PUSH1 0x40 MLOAD DUP1 SWAP2 SUB SWAP1 RETURN JUMPDEST PUSH2 0xEE PUSH2 0x28B JUMP JUMPDEST PUSH1 0x40 MLOAD PUSH2 0xFE SWAP5 SWAP4 SWAP3 SWAP2 SWAP1 PUSH2 0x11F5 JUMP JUMPDEST PUSH1 0x40 MLOAD DUP1 SWAP2 SUB SWAP1 RETURN JUMPDEST PUSH2 0x10F PUSH2 0x592 JUMP JUMPDEST PUSH1 0x40 MLOAD PUSH2 0x11C SWAP2 SWAP1 PUSH2 0xECB JUMP JUMPDEST PUSH1 0x40 MLOAD DUP1 SWAP2 SUB SWAP1 RETURN JUMPDEST PUSH2 0x12D PUSH2 0x620 JUMP JUMPDEST PUSH1 0x40 MLOAD PUSH2 0x13A SWAP2 SWAP1 PUSH2 0xFA7 JUMP JUMPDEST PUSH1 0x40 MLOAD DUP1 SWAP2 SUB SWAP1 RETURN JUMPDEST PUSH2 0x15D PUSH1 0x4 DUP1 CALLDATASIZE SUB DUP2 ADD SWAP1 PUSH2 0x158 SWAP2 SWAP1 PUSH2 0x1282 JUMP JUMPDEST PUSH2 0x673 JUMP JUMPDEST PUSH1 0x40 MLOAD PUSH2 0x16C SWAP4 SWAP3 SWAP2 SWAP1 PUSH2 0x12CD JUMP JUMPDEST PUSH1 0x40 MLOAD DUP1 SWAP2 SUB SWAP1 RETURN JUMPDEST PUSH2 0x18F PUSH1 0x4 DUP1 CALLDATASIZE SUB DUP2 ADD SWAP1 PUSH2 0x18A SWAP2 SWAP1 PUSH2 0x1282 JUMP JUMPDEST PUSH2 0x755 JUMP JUMPDEST STOP JUMPDEST PUSH2 0x1AB PUSH1 0x4 DUP1 CALLDATASIZE SUB DUP2 ADD SWAP1 PUSH2 0x1A6 SWAP2 SWAP1 PUSH2 0x1282 JUMP JUMPDEST PUSH2 0xBAF JUMP JUMPDEST PUSH1 0x40 MLOAD PUSH2 0x1B8 SWAP2 SWAP1 PUSH2 0x130B JUMP JUMPDEST PUSH1 0x40 MLOAD DUP1 SWAP2 SUB SWAP1 RETURN JUMPDEST PUSH2 0x1DB PUSH1 0x4 DUP1 CALLDATASIZE SUB DUP2 ADD SWAP1 PUSH2 0x1D6 SWAP2 SWAP1 PUSH2 0x145B JUMP JUMPDEST PUSH2 0xBEE JUMP JUMPDEST STOP JUMPDEST PUSH1 0x2 DUP1 SLOAD PUSH2 0x1EA SWAP1 PUSH2 0x14D3 JUMP JUMPDEST DUP1 PUSH1 0x1F ADD PUSH1 0x20 DUP1 SWAP2 DIV MUL PUSH1 0x20 ADD PUSH1 0x40 MLOAD SWAP1 DUP2 ADD PUSH1 0x40 MSTORE DUP1 SWAP3 SWAP2 SWAP1 DUP2 DUP2 MSTORE PUSH1 0x20 ADD DUP3 DUP1 SLOAD PUSH2 0x216 SWAP1 PUSH2 0x14D3 JUMP JUMPDEST DUP1 ISZERO PUSH2 0x263 JUMPI DUP1 PUSH1 0x1F LT PUSH2 0x238 JUMPI PUSH2 0x100 DUP1 DUP4 SLOAD DIV MUL DUP4 MSTORE SWAP2 PUSH1 0x20 ADD SWAP2 PUSH2 0x263 JUMP JUMPDEST DUP3 ADD SWAP2 SWAP1 PUSH1 0x0 MSTORE PUSH1 0x20 PUSH1 0x0 KECCAK256 SWAP1 JUMPDEST DUP2 SLOAD DUP2 MSTORE SWAP1 PUSH1 0x1 ADD SWAP1 PUSH1 0x20 ADD DUP1 DUP4 GT PUSH2 0x246 JUMPI DUP3 SWAP1 SUB PUSH1 0x1F AND DUP3 ADD SWAP2 JUMPDEST POP POP POP POP POP DUP2 JUMP JUMPDEST PUSH1 0x0 PUSH1 0x20 MSTORE DUP1 PUSH1 0x0 MSTORE PUSH1 0x40 PUSH1 0x0 KECCAK256 PUSH1 0x0 SWAP2 POP SLOAD SWAP1 PUSH2 0x100 EXP SWAP1 DIV PUSH1 0xFF AND DUP2 JUMP JUMPDEST PUSH1 0x60 DUP1 PUSH1 0x60 DUP1 PUSH1 0x1 PUSH1 0x4 PUSH1 0x2 PUSH1 0x3 DUP4 DUP1 SLOAD DUP1 PUSH1 0x20 MUL PUSH1 0x20 ADD PUSH1 0x40 MLOAD SWAP1 DUP2 ADD PUSH1 0x40 MSTORE DUP1 SWAP3 SWAP2 SWAP1 DUP2 DUP2 MSTORE PUSH1 0x20 ADD DUP3 DUP1 SLOAD DUP1 ISZERO PUSH2 0x31A JUMPI PUSH1 0x20 MUL DUP3 ADD SWAP2 SWAP1 PUSH1 0x0 MSTORE PUSH1 0x20 PUSH1 0x0 KECCAK256 SWAP1 JUMPDEST DUP2 PUSH1 0x0 SWAP1 SLOAD SWAP1 PUSH2 0x100 EXP SWAP1 DIV PUSH20 0xFFFFFFFFFFFFFFFFFFFFFFFFFFFFFFFFFFFFFFFF AND PUSH20 0xFFFFFFFFFFFFFFFFFFFFFFFFFFFFFFFFFFFFFFFF AND DUP2 MSTORE PUSH1 0x20 ADD SWAP1 PUSH1 0x1 ADD SWAP1 DUP1 DUP4 GT PUSH2 0x2D0 JUMPI JUMPDEST POP POP POP POP POP SWAP4 POP DUP3 DUP1 SLOAD DUP1 PUSH1 0x20 MUL PUSH1 0x20 ADD PUSH1 0x40 MLOAD SWAP1 DUP2 ADD PUSH1 0x40 MSTORE DUP1 SWAP3 SWAP2 SWAP1 DUP2 DUP2 MSTORE PUSH1 0x20 ADD PUSH1 0x0 SWAP1 JUMPDEST DUP3 DUP3 LT ISZERO PUSH2 0x466 JUMPI DUP4 DUP3 SWAP1 PUSH1 0x0 MSTORE PUSH1 0x20 PUSH1 0x0 KECCAK256 SWAP1 PUSH1 0x3 MUL ADD PUSH1 0x40 MLOAD DUP1 PUSH1 0x60 ADD PUSH1 0x40 MSTORE SWAP1 DUP2 PUSH1 0x0 DUP3 ADD DUP1 SLOAD PUSH2 0x375 SWAP1 PUSH2 0x14D3 JUMP JUMPDEST DUP1 PUSH1 0x1F ADD PUSH1 0x20 DUP1 SWAP2 DIV MUL PUSH1 0x20 ADD PUSH1 0x40 MLOAD SWAP1 DUP2 ADD PUSH1 0x40 MSTORE DUP1 SWAP3 SWAP2 SWAP1 DUP2 DUP2 MSTORE PUSH1 0x20 ADD DUP3 DUP1 SLOAD PUSH2 0x3A1 SWAP1 PUSH2 0x14D3 JUMP JUMPDEST DUP1 ISZERO PUSH2 0x3EE JUMPI DUP1 PUSH1 0x1F LT PUSH2 0x3C3 JUMPI PUSH2 0x100 DUP1 DUP4 SLOAD DIV MUL DUP4 MSTORE SWAP2 PUSH1 0x20 ADD SWAP2 PUSH2 0x3EE JUMP JUMPDEST DUP3 ADD SWAP2 SWAP1 PUSH1 0x0 MSTORE PUSH1 0x20 PUSH1 0x0 KECCAK256 SWAP1 JUMPDEST DUP2 SLOAD DUP2 MSTORE SWAP1 PUSH1 0x1 ADD SWAP1 PUSH1 0x20 ADD DUP1 DUP4 GT PUSH2 0x3D1 JUMPI DUP3 SWAP1 SUB PUSH1 0x1F AND DUP3 ADD SWAP2 JUMPDEST POP POP POP POP POP DUP2 MSTORE PUSH1 0x20 ADD PUSH1 0x1 DUP3 ADD SLOAD DUP2 MSTORE PUSH1 0x20 ADD PUSH1 0x2 DUP3 ADD PUSH1 0x0 SWAP1 SLOAD SWAP1 PUSH2 0x100 EXP SWAP1 DIV PUSH20 0xFFFFFFFFFFFFFFFFFFFFFFFFFFFFFFFFFFFFFFFF AND PUSH20 0xFFFFFFFFFFFFFFFFFFFFFFFFFFFFFFFFFFFFFFFF AND PUSH20 0xFFFFFFFFFFFFFFFFFFFFFFFFFFFFFFFFFFFFFFFF AND DUP2 MSTORE POP POP DUP2 MSTORE PUSH1 0x20 ADD SWAP1 PUSH1 0x1 ADD SWAP1 PUSH2 0x342 JUMP JUMPDEST POP POP POP POP SWAP3 POP DUP2 DUP1 SLOAD PUSH2 0x478 SWAP1 PUSH2 0x14D3 JUMP JUMPDEST DUP1 PUSH1 0x1F ADD PUSH1 0x20 DUP1 SWAP2 DIV MUL PUSH1 0x20 ADD PUSH1 0x40 MLOAD SWAP1 DUP2 ADD PUSH1 0x40 MSTORE DUP1 SWAP3 SWAP2 SWAP1 DUP2 DUP2 MSTORE PUSH1 0x20 ADD DUP3 DUP1 SLOAD PUSH2 0x4A4 SWAP1 PUSH2 0x14D3 JUMP JUMPDEST DUP1 ISZERO PUSH2 0x4F1 JUMPI DUP1 PUSH1 0x1F LT PUSH2 0x4C6 JUMPI PUSH2 0x100 DUP1 DUP4 SLOAD DIV MUL DUP4 MSTORE SWAP2 PUSH1 0x20 ADD SWAP2 PUSH2 0x4F1 JUMP JUMPDEST DUP3 ADD SWAP2 SWAP1 PUSH1 0x0 MSTORE PUSH1 0x20 PUSH1 0x0 KECCAK256 SWAP1 JUMPDEST DUP2 SLOAD DUP2 MSTORE SWAP1 PUSH1 0x1 ADD SWAP1 PUSH1 0x20 ADD DUP1 DUP4 GT PUSH2 0x4D4 JUMPI DUP3 SWAP1 SUB PUSH1 0x1F AND DUP3 ADD SWAP2 JUMPDEST POP POP POP POP POP SWAP2 POP DUP1 DUP1 SLOAD PUSH2 0x504 SWAP1 PUSH2 0x14D3 JUMP JUMPDEST DUP1 PUSH1 0x1F ADD PUSH1 0x20 DUP1 SWAP2 DIV MUL PUSH1 0x20 ADD PUSH1 0x40 MLOAD SWAP1 DUP2 ADD PUSH1 0x40 MSTORE DUP1 SWAP3 SWAP2 SWAP1 DUP2 DUP2 MSTORE PUSH1 0x20 ADD DUP3 DUP1 SLOAD PUSH2 0x530 SWAP1 PUSH2 0x14D3 JUMP JUMPDEST DUP1 ISZERO PUSH2 0x57D JUMPI DUP1 PUSH1 0x1F LT PUSH2 0x552 JUMPI PUSH2 0x100 DUP1 DUP4 SLOAD DIV MUL DUP4 MSTORE SWAP2 PUSH1 0x20 ADD SWAP2 PUSH2 0x57D JUMP JUMPDEST DUP3 ADD SWAP2 SWAP1 PUSH1 0x0 MSTORE PUSH1 0x20 PUSH1 0x0 KECCAK256 SWAP1 JUMPDEST DUP2 SLOAD DUP2 MSTORE SWAP1 PUSH1 0x1 ADD SWAP1 PUSH1 0x20 ADD DUP1 DUP4 GT PUSH2 0x560 JUMPI DUP3 SWAP1 SUB PUSH1 0x1F AND DUP3 ADD SWAP2 JUMPDEST POP POP POP POP POP SWAP1 POP SWAP4 POP SWAP4 POP SWAP4 POP SWAP4 POP SWAP1 SWAP2 SWAP3 SWAP4 JUMP JUMPDEST PUSH1 0x3 DUP1 SLOAD PUSH2 0x59F SWAP1 PUSH2 0x14D3 JUMP JUMPDEST DUP1 PUSH1 0x1F ADD PUSH1 0x20 DUP1 SWAP2 DIV MUL PUSH1 0x20 ADD PUSH1 0x40 MLOAD SWAP1 DUP2 ADD PUSH1 0x40 MSTORE DUP1 SWAP3 SWAP2 SWAP1 DUP2 DUP2 MSTORE PUSH1 0x20 ADD DUP3 DUP1 SLOAD PUSH2 0x5CB SWAP1 PUSH2 0x14D3 JUMP JUMPDEST DUP1 ISZERO PUSH2 0x618 JUMPI DUP1 PUSH1 0x1F LT PUSH2 0x5ED JUMPI PUSH2 0x100 DUP1 DUP4 SLOAD DIV MUL DUP4 MSTORE SWAP2 PUSH1 0x20 ADD SWAP2 PUSH2 0x618 JUMP JUMPDEST DUP3 ADD SWAP2 SWAP1 PUSH1 0x0 MSTORE PUSH1 0x20 PUSH1 0x0 KECCAK256 SWAP1 JUMPDEST DUP2 SLOAD DUP2 MSTORE SWAP1 PUSH1 0x1 ADD SWAP1 PUSH1 0x20 ADD DUP1 DUP4 GT PUSH2 0x5FB JUMPI DUP3 SWAP1 SUB PUSH1 0x1F AND DUP3 ADD SWAP2 JUMPDEST POP POP POP POP POP DUP2 JUMP JUMPDEST PUSH1 0x0 DUP1 PUSH1 0x0 CALLER PUSH20 0xFFFFFFFFFFFFFFFFFFFFFFFFFFFFFFFFFFFFFFFF AND PUSH20 0xFFFFFFFFFFFFFFFFFFFFFFFFFFFFFFFFFFFFFFFF AND DUP2 MSTORE PUSH1 0x20 ADD SWAP1 DUP2 MSTORE PUSH1 0x20 ADD PUSH1 0x0 KECCAK256 PUSH1 0x0 SWAP1 SLOAD SWAP1 PUSH2 0x100 EXP SWAP1 DIV PUSH1 0xFF AND SWAP1 POP SWAP1 JUMP JUMPDEST PUSH1 0x4 DUP2 DUP2 SLOAD DUP2 LT PUSH2 0x683 JUMPI PUSH1 0x0 DUP1 REVERT JUMPDEST SWAP1 PUSH1 0x0 MSTORE PUSH1 0x20 PUSH1 0x0 KECCAK256 SWAP1 PUSH1 0x3 MUL ADD PUSH1 0x0 SWAP2 POP SWAP1 POP DUP1 PUSH1 0x0 ADD DUP1 SLOAD PUSH2 0x6A6 SWAP1 PUSH2 0x14D3 JUMP JUMPDEST DUP1 PUSH1 0x1F ADD PUSH1 0x20 DUP1 SWAP2 DIV MUL PUSH1 0x20 ADD PUSH1 0x40 MLOAD SWAP1 DUP2 ADD PUSH1 0x40 MSTORE DUP1 SWAP3 SWAP2 SWAP1 DUP2 DUP2 MSTORE PUSH1 0x20 ADD DUP3 DUP1 SLOAD PUSH2 0x6D2 SWAP1 PUSH2 0x14D3 JUMP JUMPDEST DUP1 ISZERO PUSH2 0x71F JUMPI DUP1 PUSH1 0x1F LT PUSH2 0x6F4 JUMPI PUSH2 0x100 DUP1 DUP4 SLOAD DIV MUL DUP4 MSTORE SWAP2 PUSH1 0x20 ADD SWAP2 PUSH2 0x71F JUMP JUMPDEST DUP3 ADD SWAP2 SWAP1 PUSH1 0x0 MSTORE PUSH1 0x20 PUSH1 0x0 KECCAK256 SWAP1 JUMPDEST DUP2 SLOAD DUP2 MSTORE SWAP1 PUSH1 0x1 ADD SWAP1 PUSH1 0x20 ADD DUP1 DUP4 GT PUSH2 0x702 JUMPI DUP3 SWAP1 SUB PUSH1 0x1F AND DUP3 ADD SWAP2 JUMPDEST POP POP POP POP POP SWAP1 DUP1 PUSH1 0x1 ADD SLOAD SWAP1 DUP1 PUSH1 0x2 ADD PUSH1 0x0 SWAP1 SLOAD SWAP1 PUSH2 0x100 EXP SWAP1 DIV PUSH20 0xFFFFFFFFFFFFFFFFFFFFFFFFFFFFFFFFFFFFFFFF AND SWAP1 POP DUP4 JUMP JUMPDEST PUSH1 0x0 DUP1 CALLER PUSH20 0xFFFFFFFFFFFFFFFFFFFFFFFFFFFFFFFFFFFFFFFF AND PUSH20 0xFFFFFFFFFFFFFFFFFFFFFFFFFFFFFFFFFFFFFFFF AND DUP2 MSTORE PUSH1 0x20 ADD SWAP1 DUP2 MSTORE PUSH1 0x20 ADD PUSH1 0x0 KECCAK256 PUSH1 0x0 SWAP1 SLOAD SWAP1 PUSH2 0x100 EXP SWAP1 DIV PUSH1 0xFF AND PUSH2 0x7E0 JUMPI PUSH1 0x40 MLOAD PUSH32 0x8C379A000000000000000000000000000000000000000000000000000000000 DUP2 MSTORE PUSH1 0x4 ADD PUSH2 0x7D7 SWAP1 PUSH2 0x1577 JUMP JUMPDEST PUSH1 0x40 MLOAD DUP1 SWAP2 SUB SWAP1 REVERT JUMPDEST PUSH1 0x0 DUP1 PUSH1 0x4 DUP4 DUP2 SLOAD DUP2 LT PUSH2 0x7F7 JUMPI PUSH2 0x7F6 PUSH2 0x1597 JUMP JUMPDEST JUMPDEST SWAP1 PUSH1 0x0 MSTORE PUSH1 0x20 PUSH1 0x0 KECCAK256 SWAP1 PUSH1 0x3 MUL ADD PUSH1 0x2 ADD PUSH1 0x0 SWAP1 SLOAD SWAP1 PUSH2 0x100 EXP SWAP1 DIV PUSH20 0xFFFFFFFFFFFFFFFFFFFFFFFFFFFFFFFFFFFFFFFF AND PUSH20 0xFFFFFFFFFFFFFFFFFFFFFFFFFFFFFFFFFFFFFFFF AND PUSH20 0xFFFFFFFFFFFFFFFFFFFFFFFFFFFFFFFFFFFFFFFF AND DUP2 MSTORE PUSH1 0x20 ADD SWAP1 DUP2 MSTORE PUSH1 0x20 ADD PUSH1 0x0 KECCAK256 PUSH1 0x0 SWAP1 SLOAD SWAP1 PUSH2 0x100 EXP SWAP1 DIV PUSH1 0xFF AND ISZERO PUSH2 0x8B1 JUMPI PUSH1 0x40 MLOAD PUSH32 0x8C379A000000000000000000000000000000000000000000000000000000000 DUP2 MSTORE PUSH1 0x4 ADD PUSH2 0x8A8 SWAP1 PUSH2 0x1638 JUMP JUMPDEST PUSH1 0x40 MLOAD DUP1 SWAP2 SUB SWAP1 REVERT JUMPDEST PUSH1 0x0 PUSH1 0x1 PUSH1 0x4 DUP1 SLOAD SWAP1 POP PUSH2 0x8C5 SWAP2 SWAP1 PUSH2 0x1687 JUMP JUMPDEST SWAP1 POP PUSH1 0x0 PUSH1 0x4 DUP3 DUP2 SLOAD DUP2 LT PUSH2 0x8DD JUMPI PUSH2 0x8DC PUSH2 0x1597 JUMP JUMPDEST JUMPDEST SWAP1 PUSH1 0x0 MSTORE PUSH1 0x20 PUSH1 0x0 KECCAK256 SWAP1 PUSH1 0x3 MUL ADD PUSH1 0x40 MLOAD DUP1 PUSH1 0x60 ADD PUSH1 0x40 MSTORE SWAP1 DUP2 PUSH1 0x0 DUP3 ADD DUP1 SLOAD PUSH2 0x906 SWAP1 PUSH2 0x14D3 JUMP JUMPDEST DUP1 PUSH1 0x1F ADD PUSH1 0x20 DUP1 SWAP2 DIV MUL PUSH1 0x20 ADD PUSH1 0x40 MLOAD SWAP1 DUP2 ADD PUSH1 0x40 MSTORE DUP1 SWAP3 SWAP2 SWAP1 DUP2 DUP2 MSTORE PUSH1 0x20 ADD DUP3 DUP1 SLOAD PUSH2 0x932 SWAP1 PUSH2 0x14D3 JUMP JUMPDEST DUP1 ISZERO PUSH2 0x97F JUMPI DUP1 PUSH1 0x1F LT PUSH2 0x954 JUMPI PUSH2 0x100 DUP1 DUP4 SLOAD DIV MUL DUP4 MSTORE SWAP2 PUSH1 0x20 ADD SWAP2 PUSH2 0x97F JUMP JUMPDEST DUP3 ADD SWAP2 SWAP1 PUSH1 0x0 MSTORE PUSH1 0x20 PUSH1 0x0 KECCAK256 SWAP1 JUMPDEST DUP2 SLOAD DUP2 MSTORE SWAP1 PUSH1 0x1 ADD SWAP1 PUSH1 0x20 ADD DUP1 DUP4 GT PUSH2 0x962 JUMPI DUP3 SWAP1 SUB PUSH1 0x1F AND DUP3 ADD SWAP2 JUMPDEST POP POP POP POP POP DUP2 MSTORE PUSH1 0x20 ADD PUSH1 0x1 DUP3 ADD SLOAD DUP2 MSTORE PUSH1 0x20 ADD PUSH1 0x2 DUP3 ADD PUSH1 0x0 SWAP1 SLOAD SWAP1 PUSH2 0x100 EXP SWAP1 DIV PUSH20 0xFFFFFFFFFFFFFFFFFFFFFFFFFFFFFFFFFFFFFFFF AND PUSH20 0xFFFFFFFFFFFFFFFFFFFFFFFFFFFFFFFFFFFFFFFF AND PUSH20 0xFFFFFFFFFFFFFFFFFFFFFFFFFFFFFFFFFFFFFFFF AND DUP2 MSTORE POP POP SWAP1 POP DUP1 PUSH1 0x4 DUP5 DUP2 SLOAD DUP2 LT PUSH2 0x9FF JUMPI PUSH2 0x9FE PUSH2 0x1597 JUMP JUMPDEST JUMPDEST SWAP1 PUSH1 0x0 MSTORE PUSH1 0x20 PUSH1 0x0 KECCAK256 SWAP1 PUSH1 0x3 MUL ADD PUSH1 0x0 DUP3 ADD MLOAD DUP2 PUSH1 0x0 ADD SWAP1 DUP1 MLOAD SWAP1 PUSH1 0x20 ADD SWAP1 PUSH2 0xA29 SWAP3 SWAP2 SWAP1 PUSH2 0xD4F JUMP JUMPDEST POP PUSH1 0x20 DUP3 ADD MLOAD DUP2 PUSH1 0x1 ADD SSTORE PUSH1 0x40 DUP3 ADD MLOAD DUP2 PUSH1 0x2 ADD PUSH1 0x0 PUSH2 0x100 EXP DUP2 SLOAD DUP2 PUSH20 0xFFFFFFFFFFFFFFFFFFFFFFFFFFFFFFFFFFFFFFFF MUL NOT AND SWAP1 DUP4 PUSH20 0xFFFFFFFFFFFFFFFFFFFFFFFFFFFFFFFFFFFFFFFF AND MUL OR SWAP1 SSTORE POP SWAP1 POP POP PUSH1 0x4 DUP1 SLOAD DUP1 PUSH2 0xA90 JUMPI PUSH2 0xA8F PUSH2 0x16BB JUMP JUMPDEST JUMPDEST PUSH1 0x1 SWAP1 SUB DUP2 DUP2 SWAP1 PUSH1 0x0 MSTORE PUSH1 0x20 PUSH1 0x0 KECCAK256 SWAP1 PUSH1 0x3 MUL ADD PUSH1 0x0 DUP1 DUP3 ADD PUSH1 0x0 PUSH2 0xAB5 SWAP2 SWAP1 PUSH2 0xDD5 JUMP JUMPDEST PUSH1 0x1 DUP3 ADD PUSH1 0x0 SWAP1 SSTORE PUSH1 0x2 DUP3 ADD PUSH1 0x0 PUSH2 0x100 EXP DUP2 SLOAD SWAP1 PUSH20 0xFFFFFFFFFFFFFFFFFFFFFFFFFFFFFFFFFFFFFFFF MUL NOT AND SWAP1 SSTORE POP POP SWAP1 SSTORE PUSH1 0x1 PUSH1 0x0 DUP1 DUP4 PUSH1 0x40 ADD MLOAD PUSH20 0xFFFFFFFFFFFFFFFFFFFFFFFFFFFFFFFFFFFFFFFF AND PUSH20 0xFFFFFFFFFFFFFFFFFFFFFFFFFFFFFFFFFFFFFFFF AND DUP2 MSTORE PUSH1 0x20 ADD SWAP1 DUP2 MSTORE PUSH1 0x20 ADD PUSH1 0x0 KECCAK256 PUSH1 0x0 PUSH2 0x100 EXP DUP2 SLOAD DUP2 PUSH1 0xFF MUL NOT AND SWAP1 DUP4 ISZERO ISZERO MUL OR SWAP1 SSTORE POP PUSH1 0x1 DUP2 PUSH1 0x40 ADD MLOAD SWAP1 DUP1 PUSH1 0x1 DUP2 SLOAD ADD DUP1 DUP3 SSTORE DUP1 SWAP2 POP POP PUSH1 0x1 SWAP1 SUB SWAP1 PUSH1 0x0 MSTORE PUSH1 0x20 PUSH1 0x0 KECCAK256 ADD PUSH1 0x0 SWAP1 SWAP2 SWAP1 SWAP2 SWAP1 SWAP2 PUSH2 0x100 EXP DUP2 SLOAD DUP2 PUSH20 0xFFFFFFFFFFFFFFFFFFFFFFFFFFFFFFFFFFFFFFFF MUL NOT AND SWAP1 DUP4 PUSH20 0xFFFFFFFFFFFFFFFFFFFFFFFFFFFFFFFFFFFFFFFF AND MUL OR SWAP1 SSTORE POP POP POP POP JUMP JUMPDEST PUSH1 0x1 DUP2 DUP2 SLOAD DUP2 LT PUSH2 0xBBF JUMPI PUSH1 0x0 DUP1 REVERT JUMPDEST SWAP1 PUSH1 0x0 MSTORE PUSH1 0x20 PUSH1 0x0 KECCAK256 ADD PUSH1 0x0 SWAP2 POP SLOAD SWAP1 PUSH2 0x100 EXP SWAP1 DIV PUSH20 0xFFFFFFFFFFFFFFFFFFFFFFFFFFFFFFFFFFFFFFFF AND DUP2 JUMP JUMPDEST PUSH1 0x0 DUP1 CALLER PUSH20 0xFFFFFFFFFFFFFFFFFFFFFFFFFFFFFFFFFFFFFFFF AND PUSH20 0xFFFFFFFFFFFFFFFFFFFFFFFFFFFFFFFFFFFFFFFF AND DUP2 MSTORE PUSH1 0x20 ADD SWAP1 DUP2 MSTORE PUSH1 0x20 ADD PUSH1 0x0 KECCAK256 PUSH1 0x0 SWAP1 SLOAD SWAP1 PUSH2 0x100 EXP SWAP1 DIV PUSH1 0xFF AND ISZERO PUSH2 0xC7A JUMPI PUSH1 0x40 MLOAD PUSH32 0x8C379A000000000000000000000000000000000000000000000000000000000 DUP2 MSTORE PUSH1 0x4 ADD PUSH2 0xC71 SWAP1 PUSH2 0x175C JUMP JUMPDEST PUSH1 0x40 MLOAD DUP1 SWAP2 SUB SWAP1 REVERT JUMPDEST PUSH1 0x0 PUSH1 0x40 MLOAD DUP1 PUSH1 0x60 ADD PUSH1 0x40 MSTORE DUP1 DUP4 DUP2 MSTORE PUSH1 0x20 ADD TIMESTAMP DUP2 MSTORE PUSH1 0x20 ADD CALLER PUSH20 0xFFFFFFFFFFFFFFFFFFFFFFFFFFFFFFFFFFFFFFFF AND DUP2 MSTORE POP SWAP1 POP PUSH1 0x4 DUP2 SWAP1 DUP1 PUSH1 0x1 DUP2 SLOAD ADD DUP1 DUP3 SSTORE DUP1 SWAP2 POP POP PUSH1 0x1 SWAP1 SUB SWAP1 PUSH1 0x0 MSTORE PUSH1 0x20 PUSH1 0x0 KECCAK256 SWAP1 PUSH1 0x3 MUL ADD PUSH1 0x0 SWAP1 SWAP2 SWAP1 SWAP2 SWAP1 SWAP2 POP PUSH1 0x0 DUP3 ADD MLOAD DUP2 PUSH1 0x0 ADD SWAP1 DUP1 MLOAD SWAP1 PUSH1 0x20 ADD SWAP1 PUSH2 0xCF7 SWAP3 SWAP2 SWAP1 PUSH2 0xD4F JUMP JUMPDEST POP PUSH1 0x20 DUP3 ADD MLOAD DUP2 PUSH1 0x1 ADD SSTORE PUSH1 0x40 DUP3 ADD MLOAD DUP2 PUSH1 0x2 ADD PUSH1 0x0 PUSH2 0x100 EXP DUP2 SLOAD DUP2 PUSH20 0xFFFFFFFFFFFFFFFFFFFFFFFFFFFFFFFFFFFFFFFF MUL NOT AND SWAP1 DUP4 PUSH20 0xFFFFFFFFFFFFFFFFFFFFFFFFFFFFFFFFFFFFFFFF AND MUL OR SWAP1 SSTORE POP POP POP POP POP JUMP JUMPDEST DUP3 DUP1 SLOAD PUSH2 0xD5B SWAP1 PUSH2 0x14D3 JUMP JUMPDEST SWAP1 PUSH1 0x0 MSTORE PUSH1 0x20 PUSH1 0x0 KECCAK256 SWAP1 PUSH1 0x1F ADD PUSH1 0x20 SWAP1 DIV DUP2 ADD SWAP3 DUP3 PUSH2 0xD7D JUMPI PUSH1 0x0 DUP6 SSTORE PUSH2 0xDC4 JUMP JUMPDEST DUP3 PUSH1 0x1F LT PUSH2 0xD96 JUMPI DUP1 MLOAD PUSH1 0xFF NOT AND DUP4 DUP1 ADD OR DUP6 SSTORE PUSH2 0xDC4 JUMP JUMPDEST DUP3 DUP1 ADD PUSH1 0x1 ADD DUP6 SSTORE DUP3 ISZERO PUSH2 0xDC4 JUMPI SWAP2 DUP3 ADD JUMPDEST DUP3 DUP2 GT ISZERO PUSH2 0xDC3 JUMPI DUP3 MLOAD DUP3 SSTORE SWAP2 PUSH1 0x20 ADD SWAP2 SWAP1 PUSH1 0x1 ADD SWAP1 PUSH2 0xDA8 JUMP JUMPDEST JUMPDEST POP SWAP1 POP PUSH2 0xDD1 SWAP2 SWAP1 PUSH2 0xE15 JUMP JUMPDEST POP SWAP1 JUMP JUMPDEST POP DUP1 SLOAD PUSH2 0xDE1 SWAP1 PUSH2 0x14D3 JUMP JUMPDEST PUSH1 0x0 DUP3 SSTORE DUP1 PUSH1 0x1F LT PUSH2 0xDF3 JUMPI POP PUSH2 0xE12 JUMP JUMPDEST PUSH1 0x1F ADD PUSH1 0x20 SWAP1 DIV SWAP1 PUSH1 0x0 MSTORE PUSH1 0x20 PUSH1 0x0 KECCAK256 SWAP1 DUP2 ADD SWAP1 PUSH2 0xE11 SWAP2 SWAP1 PUSH2 0xE15 JUMP JUMPDEST JUMPDEST POP JUMP JUMPDEST JUMPDEST DUP1 DUP3 GT ISZERO PUSH2 0xE2E JUMPI PUSH1 0x0 DUP2 PUSH1 0x0 SWAP1 SSTORE POP PUSH1 0x1 ADD PUSH2 0xE16 JUMP JUMPDEST POP SWAP1 JUMP JUMPDEST PUSH1 0x0 DUP2 MLOAD SWAP1 POP SWAP2 SWAP1 POP JUMP JUMPDEST PUSH1 0x0 DUP3 DUP3 MSTORE PUSH1 0x20 DUP3 ADD SWAP1 POP SWAP3 SWAP2 POP POP JUMP JUMPDEST PUSH1 0x0 JUMPDEST DUP4 DUP2 LT ISZERO PUSH2 0xE6C JUMPI DUP1 DUP3 ADD MLOAD DUP2 DUP5 ADD MSTORE PUSH1 0x20 DUP2 ADD SWAP1 POP PUSH2 0xE51 JUMP JUMPDEST DUP4 DUP2 GT ISZERO PUSH2 0xE7B JUMPI PUSH1 0x0 DUP5 DUP5 ADD MSTORE JUMPDEST POP POP POP POP JUMP JUMPDEST PUSH1 0x0 PUSH1 0x1F NOT PUSH1 0x1F DUP4 ADD AND SWAP1 POP SWAP2 SWAP1 POP JUMP JUMPDEST PUSH1 0x0 PUSH2 0xE9D DUP3 PUSH2 0xE32 JUMP JUMPDEST PUSH2 0xEA7 DUP2 DUP6 PUSH2 0xE3D JUMP JUMPDEST SWAP4 POP PUSH2 0xEB7 DUP2 DUP6 PUSH1 0x20 DUP7 ADD PUSH2 0xE4E JUMP JUMPDEST PUSH2 0xEC0 DUP2 PUSH2 0xE81 JUMP JUMPDEST DUP5 ADD SWAP2 POP POP SWAP3 SWAP2 POP POP JUMP JUMPDEST PUSH1 0x0 PUSH1 0x20 DUP3 ADD SWAP1 POP DUP2 DUP2 SUB PUSH1 0x0 DUP4 ADD MSTORE PUSH2 0xEE5 DUP2 DUP5 PUSH2 0xE92 JUMP JUMPDEST SWAP1 POP SWAP3 SWAP2 POP POP JUMP JUMPDEST PUSH1 0x0 PUSH1 0x40 MLOAD SWAP1 POP SWAP1 JUMP JUMPDEST PUSH1 0x0 DUP1 REVERT JUMPDEST PUSH1 0x0 DUP1 REVERT JUMPDEST PUSH1 0x0 PUSH20 0xFFFFFFFFFFFFFFFFFFFFFFFFFFFFFFFFFFFFFFFF DUP3 AND SWAP1 POP SWAP2 SWAP1 POP JUMP JUMPDEST PUSH1 0x0 PUSH2 0xF2C DUP3 PUSH2 0xF01 JUMP JUMPDEST SWAP1 POP SWAP2 SWAP1 POP JUMP JUMPDEST PUSH2 0xF3C DUP2 PUSH2 0xF21 JUMP JUMPDEST DUP2 EQ PUSH2 0xF47 JUMPI PUSH1 0x0 DUP1 REVERT JUMPDEST POP JUMP JUMPDEST PUSH1 0x0 DUP2 CALLDATALOAD SWAP1 POP PUSH2 0xF59 DUP2 PUSH2 0xF33 JUMP JUMPDEST SWAP3 SWAP2 POP POP JUMP JUMPDEST PUSH1 0x0 PUSH1 0x20 DUP3 DUP5 SUB SLT ISZERO PUSH2 0xF75 JUMPI PUSH2 0xF74 PUSH2 0xEF7 JUMP JUMPDEST JUMPDEST PUSH1 0x0 PUSH2 0xF83 DUP5 DUP3 DUP6 ADD PUSH2 0xF4A JUMP JUMPDEST SWAP2 POP POP SWAP3 SWAP2 POP POP JUMP JUMPDEST PUSH1 0x0 DUP2 ISZERO ISZERO SWAP1 POP SWAP2 SWAP1 POP JUMP JUMPDEST PUSH2 0xFA1 DUP2 PUSH2 0xF8C JUMP JUMPDEST DUP3 MSTORE POP POP JUMP JUMPDEST PUSH1 0x0 PUSH1 0x20 DUP3 ADD SWAP1 POP PUSH2 0xFBC PUSH1 0x0 DUP4 ADD DUP5 PUSH2 0xF98 JUMP JUMPDEST SWAP3 SWAP2 POP POP JUMP JUMPDEST PUSH1 0x0 DUP2 MLOAD SWAP1 POP SWAP2 SWAP1 POP JUMP JUMPDEST PUSH1 0x0 DUP3 DUP3 MSTORE PUSH1 0x20 DUP3 ADD SWAP1 POP SWAP3 SWAP2 POP POP JUMP JUMPDEST PUSH1 0x0 DUP2 SWAP1 POP PUSH1 0x20 DUP3 ADD SWAP1 POP SWAP2 SWAP1 POP JUMP JUMPDEST PUSH2 0xFF7 DUP2 PUSH2 0xF21 JUMP JUMPDEST DUP3 MSTORE POP POP JUMP JUMPDEST PUSH1 0x0 PUSH2 0x1009 DUP4 DUP4 PUSH2 0xFEE JUMP JUMPDEST PUSH1 0x20 DUP4 ADD SWAP1 POP SWAP3 SWAP2 POP POP JUMP JUMPDEST PUSH1 0x0 PUSH1 0x20 DUP3 ADD SWAP1 POP SWAP2 SWAP1 POP JUMP JUMPDEST PUSH1 0x0 PUSH2 0x102D DUP3 PUSH2 0xFC2 JUMP JUMPDEST PUSH2 0x1037 DUP2 DUP6 PUSH2 0xFCD JUMP JUMPDEST SWAP4 POP PUSH2 0x1042 DUP4 PUSH2 0xFDE JUMP JUMPDEST DUP1 PUSH1 0x0 JUMPDEST DUP4 DUP2 LT ISZERO PUSH2 0x1073 JUMPI DUP2 MLOAD PUSH2 0x105A DUP9 DUP3 PUSH2 0xFFD JUMP JUMPDEST SWAP8 POP PUSH2 0x1065 DUP4 PUSH2 0x1015 JUMP JUMPDEST SWAP3 POP POP PUSH1 0x1 DUP2 ADD SWAP1 POP PUSH2 0x1046 JUMP JUMPDEST POP DUP6 SWAP4 POP POP POP POP SWAP3 SWAP2 POP POP JUMP JUMPDEST PUSH1 0x0 DUP2 MLOAD SWAP1 POP SWAP2 SWAP1 POP JUMP JUMPDEST PUSH1 0x0 DUP3 DUP3 MSTORE PUSH1 0x20 DUP3 ADD SWAP1 POP SWAP3 SWAP2 POP POP JUMP JUMPDEST PUSH1 0x0 DUP2 SWAP1 POP PUSH1 0x20 DUP3 ADD SWAP1 POP SWAP2 SWAP1 POP JUMP JUMPDEST PUSH1 0x0 DUP3 DUP3 MSTORE PUSH1 0x20 DUP3 ADD SWAP1 POP SWAP3 SWAP2 POP POP JUMP JUMPDEST PUSH1 0x0 PUSH2 0x10C8 DUP3 PUSH2 0xE32 JUMP JUMPDEST PUSH2 0x10D2 DUP2 DUP6 PUSH2 0x10AC JUMP JUMPDEST SWAP4 POP PUSH2 0x10E2 DUP2 DUP6 PUSH1 0x20 DUP7 ADD PUSH2 0xE4E JUMP JUMPDEST PUSH2 0x10EB DUP2 PUSH2 0xE81 JUMP JUMPDEST DUP5 ADD SWAP2 POP POP SWAP3 SWAP2 POP POP JUMP JUMPDEST PUSH1 0x0 DUP2 SWAP1 POP SWAP2 SWAP1 POP JUMP JUMPDEST PUSH2 0x1109 DUP2 PUSH2 0x10F6 JUMP JUMPDEST DUP3 MSTORE POP POP JUMP JUMPDEST PUSH1 0x0 PUSH1 0x60 DUP4 ADD PUSH1 0x0 DUP4 ADD MLOAD DUP5 DUP3 SUB PUSH1 0x0 DUP7 ADD MSTORE PUSH2 0x112C DUP3 DUP3 PUSH2 0x10BD JUMP JUMPDEST SWAP2 POP POP PUSH1 0x20 DUP4 ADD MLOAD PUSH2 0x1141 PUSH1 0x20 DUP7 ADD DUP3 PUSH2 0x1100 JUMP JUMPDEST POP PUSH1 0x40 DUP4 ADD MLOAD PUSH2 0x1154 PUSH1 0x40 DUP7 ADD DUP3 PUSH2 0xFEE JUMP JUMPDEST POP DUP1 SWAP2 POP POP SWAP3 SWAP2 POP POP JUMP JUMPDEST PUSH1 0x0 PUSH2 0x116B DUP4 DUP4 PUSH2 0x110F JUMP JUMPDEST SWAP1 POP SWAP3 SWAP2 POP POP JUMP JUMPDEST PUSH1 0x0 PUSH1 0x20 DUP3 ADD SWAP1 POP SWAP2 SWAP1 POP JUMP JUMPDEST PUSH1 0x0 PUSH2 0x118B DUP3 PUSH2 0x1080 JUMP JUMPDEST PUSH2 0x1195 DUP2 DUP6 PUSH2 0x108B JUMP JUMPDEST SWAP4 POP DUP4 PUSH1 0x20 DUP3 MUL DUP6 ADD PUSH2 0x11A7 DUP6 PUSH2 0x109C JUMP JUMPDEST DUP1 PUSH1 0x0 JUMPDEST DUP6 DUP2 LT ISZERO PUSH2 0x11E3 JUMPI DUP5 DUP5 SUB DUP10 MSTORE DUP2 MLOAD PUSH2 0x11C4 DUP6 DUP3 PUSH2 0x115F JUMP JUMPDEST SWAP5 POP PUSH2 0x11CF DUP4 PUSH2 0x1173 JUMP JUMPDEST SWAP3 POP PUSH1 0x20 DUP11 ADD SWAP10 POP POP PUSH1 0x1 DUP2 ADD SWAP1 POP PUSH2 0x11AB JUMP JUMPDEST POP DUP3 SWAP8 POP DUP8 SWAP6 POP POP POP POP POP POP SWAP3 SWAP2 POP POP JUMP JUMPDEST PUSH1 0x0 PUSH1 0x80 DUP3 ADD SWAP1 POP DUP2 DUP2 SUB PUSH1 0x0 DUP4 ADD MSTORE PUSH2 0x120F DUP2 DUP8 PUSH2 0x1022 JUMP JUMPDEST SWAP1 POP DUP2 DUP2 SUB PUSH1 0x20 DUP4 ADD MSTORE PUSH2 0x1223 DUP2 DUP7 PUSH2 0x1180 JUMP JUMPDEST SWAP1 POP DUP2 DUP2 SUB PUSH1 0x40 DUP4 ADD MSTORE PUSH2 0x1237 DUP2 DUP6 PUSH2 0xE92 JUMP JUMPDEST SWAP1 POP DUP2 DUP2 SUB PUSH1 0x60 DUP4 ADD MSTORE PUSH2 0x124B DUP2 DUP5 PUSH2 0xE92 JUMP JUMPDEST SWAP1 POP SWAP6 SWAP5 POP POP POP POP POP JUMP JUMPDEST PUSH2 0x125F DUP2 PUSH2 0x10F6 JUMP JUMPDEST DUP2 EQ PUSH2 0x126A JUMPI PUSH1 0x0 DUP1 REVERT JUMPDEST POP JUMP JUMPDEST PUSH1 0x0 DUP2 CALLDATALOAD SWAP1 POP PUSH2 0x127C DUP2 PUSH2 0x1256 JUMP JUMPDEST SWAP3 SWAP2 POP POP JUMP JUMPDEST PUSH1 0x0 PUSH1 0x20 DUP3 DUP5 SUB SLT ISZERO PUSH2 0x1298 JUMPI PUSH2 0x1297 PUSH2 0xEF7 JUMP JUMPDEST JUMPDEST PUSH1 0x0 PUSH2 0x12A6 DUP5 DUP3 DUP6 ADD PUSH2 0x126D JUMP JUMPDEST SWAP2 POP POP SWAP3 SWAP2 POP POP JUMP JUMPDEST PUSH2 0x12B8 DUP2 PUSH2 0x10F6 JUMP JUMPDEST DUP3 MSTORE POP POP JUMP JUMPDEST PUSH2 0x12C7 DUP2 PUSH2 0xF21 JUMP JUMPDEST DUP3 MSTORE POP POP JUMP JUMPDEST PUSH1 0x0 PUSH1 0x60 DUP3 ADD SWAP1 POP DUP2 DUP2 SUB PUSH1 0x0 DUP4 ADD MSTORE PUSH2 0x12E7 DUP2 DUP7 PUSH2 0xE92 JUMP JUMPDEST SWAP1 POP PUSH2 0x12F6 PUSH1 0x20 DUP4 ADD DUP6 PUSH2 0x12AF JUMP JUMPDEST PUSH2 0x1303 PUSH1 0x40 DUP4 ADD DUP5 PUSH2 0x12BE JUMP JUMPDEST SWAP5 SWAP4 POP POP POP POP JUMP JUMPDEST PUSH1 0x0 PUSH1 0x20 DUP3 ADD SWAP1 POP PUSH2 0x1320 PUSH1 0x0 DUP4 ADD DUP5 PUSH2 0x12BE JUMP JUMPDEST SWAP3 SWAP2 POP POP JUMP JUMPDEST PUSH1 0x0 DUP1 REVERT JUMPDEST PUSH1 0x0 DUP1 REVERT JUMPDEST PUSH32 0x4E487B7100000000000000000000000000000000000000000000000000000000 PUSH1 0x0 MSTORE PUSH1 0x41 PUSH1 0x4 MSTORE PUSH1 0x24 PUSH1 0x0 REVERT JUMPDEST PUSH2 0x1368 DUP3 PUSH2 0xE81 JUMP JUMPDEST DUP2 ADD DUP2 DUP2 LT PUSH8 0xFFFFFFFFFFFFFFFF DUP3 GT OR ISZERO PUSH2 0x1387 JUMPI PUSH2 0x1386 PUSH2 0x1330 JUMP JUMPDEST JUMPDEST DUP1 PUSH1 0x40 MSTORE POP POP POP JUMP JUMPDEST PUSH1 0x0 PUSH2 0x139A PUSH2 0xEED JUMP JUMPDEST SWAP1 POP PUSH2 0x13A6 DUP3 DUP3 PUSH2 0x135F JUMP JUMPDEST SWAP2 SWAP1 POP JUMP JUMPDEST PUSH1 0x0 PUSH8 0xFFFFFFFFFFFFFFFF DUP3 GT ISZERO PUSH2 0x13C6 JUMPI PUSH2 0x13C5 PUSH2 0x1330 JUMP JUMPDEST JUMPDEST PUSH2 0x13CF DUP3 PUSH2 0xE81 JUMP JUMPDEST SWAP1 POP PUSH1 0x20 DUP2 ADD SWAP1 POP SWAP2 SWAP1 POP JUMP JUMPDEST DUP3 DUP2 DUP4 CALLDATACOPY PUSH1 0x0 DUP4 DUP4 ADD MSTORE POP POP POP JUMP JUMPDEST PUSH1 0x0 PUSH2 0x13FE PUSH2 0x13F9 DUP5 PUSH2 0x13AB JUMP JUMPDEST PUSH2 0x1390 JUMP JUMPDEST SWAP1 POP DUP3 DUP2 MSTORE PUSH1 0x20 DUP2 ADD DUP5 DUP5 DUP5 ADD GT ISZERO PUSH2 0x141A JUMPI PUSH2 0x1419 PUSH2 0x132B JUMP JUMPDEST JUMPDEST PUSH2 0x1425 DUP5 DUP3 DUP6 PUSH2 0x13DC JUMP JUMPDEST POP SWAP4 SWAP3 POP POP POP JUMP JUMPDEST PUSH1 0x0 DUP3 PUSH1 0x1F DUP4 ADD SLT PUSH2 0x1442 JUMPI PUSH2 0x1441 PUSH2 0x1326 JUMP JUMPDEST JUMPDEST DUP2 CALLDATALOAD PUSH2 0x1452 DUP5 DUP3 PUSH1 0x20 DUP7 ADD PUSH2 0x13EB JUMP JUMPDEST SWAP2 POP POP SWAP3 SWAP2 POP POP JUMP JUMPDEST PUSH1 0x0 PUSH1 0x20 DUP3 DUP5 SUB SLT ISZERO PUSH2 0x1471 JUMPI PUSH2 0x1470 PUSH2 0xEF7 JUMP JUMPDEST JUMPDEST PUSH1 0x0 DUP3 ADD CALLDATALOAD PUSH8 0xFFFFFFFFFFFFFFFF DUP2 GT ISZERO PUSH2 0x148F JUMPI PUSH2 0x148E PUSH2 0xEFC JUMP JUMPDEST JUMPDEST PUSH2 0x149B DUP5 DUP3 DUP6 ADD PUSH2 0x142D JUMP JUMPDEST SWAP2 POP POP SWAP3 SWAP2 POP POP JUMP JUMPDEST PUSH32 0x4E487B7100000000000000000000000000000000000000000000000000000000 PUSH1 0x0 MSTORE PUSH1 0x22 PUSH1 0x4 MSTORE PUSH1 0x24 PUSH1 0x0 REVERT JUMPDEST PUSH1 0x0 PUSH1 0x2 DUP3 DIV SWAP1 POP PUSH1 0x1 DUP3 AND DUP1 PUSH2 0x14EB JUMPI PUSH1 0x7F DUP3 AND SWAP2 POP JUMPDEST PUSH1 0x20 DUP3 LT DUP2 EQ ISZERO PUSH2 0x14FF JUMPI PUSH2 0x14FE PUSH2 0x14A4 JUMP JUMPDEST JUMPDEST POP SWAP2 SWAP1 POP JUMP JUMPDEST PUSH32 0x4F6E6C7920616E20616363657074656420617574686F722063616E2061707072 PUSH1 0x0 DUP3 ADD MSTORE PUSH32 0x6F76652061207265717565737400000000000000000000000000000000000000 PUSH1 0x20 DUP3 ADD MSTORE POP JUMP JUMPDEST PUSH1 0x0 PUSH2 0x1561 PUSH1 0x2D DUP4 PUSH2 0xE3D JUMP JUMPDEST SWAP2 POP PUSH2 0x156C DUP3 PUSH2 0x1505 JUMP JUMPDEST PUSH1 0x40 DUP3 ADD SWAP1 POP SWAP2 SWAP1 POP JUMP JUMPDEST PUSH1 0x0 PUSH1 0x20 DUP3 ADD SWAP1 POP DUP2 DUP2 SUB PUSH1 0x0 DUP4 ADD MSTORE PUSH2 0x1590 DUP2 PUSH2 0x1554 JUMP JUMPDEST SWAP1 POP SWAP2 SWAP1 POP JUMP JUMPDEST PUSH32 0x4E487B7100000000000000000000000000000000000000000000000000000000 PUSH1 0x0 MSTORE PUSH1 0x32 PUSH1 0x4 MSTORE PUSH1 0x24 PUSH1 0x0 REVERT JUMPDEST PUSH32 0x417574686F72206F6620746865207265717565737420697320616C7265616479 PUSH1 0x0 DUP3 ADD MSTORE PUSH32 0x20696E636C7564656420696E20746865206C697374206F6620617574686F7273 PUSH1 0x20 DUP3 ADD MSTORE POP JUMP JUMPDEST PUSH1 0x0 PUSH2 0x1622 PUSH1 0x40 DUP4 PUSH2 0xE3D JUMP JUMPDEST SWAP2 POP PUSH2 0x162D DUP3 PUSH2 0x15C6 JUMP JUMPDEST PUSH1 0x40 DUP3 ADD SWAP1 POP SWAP2 SWAP1 POP JUMP JUMPDEST PUSH1 0x0 PUSH1 0x20 DUP3 ADD SWAP1 POP DUP2 DUP2 SUB PUSH1 0x0 DUP4 ADD MSTORE PUSH2 0x1651 DUP2 PUSH2 0x1615 JUMP JUMPDEST SWAP1 POP SWAP2 SWAP1 POP JUMP JUMPDEST PUSH32 0x4E487B7100000000000000000000000000000000000000000000000000000000 PUSH1 0x0 MSTORE PUSH1 0x11 PUSH1 0x4 MSTORE PUSH1 0x24 PUSH1 0x0 REVERT JUMPDEST PUSH1 0x0 PUSH2 0x1692 DUP3 PUSH2 0x10F6 JUMP JUMPDEST SWAP2 POP PUSH2 0x169D DUP4 PUSH2 0x10F6 JUMP JUMPDEST SWAP3 POP DUP3 DUP3 LT ISZERO PUSH2 0x16B0 JUMPI PUSH2 0x16AF PUSH2 0x1658 JUMP JUMPDEST JUMPDEST DUP3 DUP3 SUB SWAP1 POP SWAP3 SWAP2 POP POP JUMP JUMPDEST PUSH32 0x4E487B7100000000000000000000000000000000000000000000000000000000 PUSH1 0x0 MSTORE PUSH1 0x31 PUSH1 0x4 MSTORE PUSH1 0x24 PUSH1 0x0 REVERT JUMPDEST PUSH32 0x417574686F7220616C72656164792065786973747320696E20746865206C6973 PUSH1 0x0 DUP3 ADD MSTORE PUSH32 0x74206F6620617574686F72730000000000000000000000000000000000000000 PUSH1 0x20 DUP3 ADD MSTORE POP JUMP JUMPDEST PUSH1 0x0 PUSH2 0x1746 PUSH1 0x2C DUP4 PUSH2 0xE3D JUMP JUMPDEST SWAP2 POP PUSH2 0x1751 DUP3 PUSH2 0x16EA JUMP JUMPDEST PUSH1 0x40 DUP3 ADD SWAP1 POP SWAP2 SWAP1 POP JUMP JUMPDEST PUSH1 0x0 PUSH1 0x20 DUP3 ADD SWAP1 POP DUP2 DUP2 SUB PUSH1 0x0 DUP4 ADD MSTORE PUSH2 0x1775 DUP2 PUSH2 0x1739 JUMP JUMPDEST SWAP1 POP SWAP2 SWAP1 POP JUMP INVALID LOG2 PUSH5 0x6970667358 0x22 SLT KECCAK256 PUSH18 0xC78B9CBBC1E63089CB9AB6D6491E3F125C10 DUP12 GASPRICE 0xAD 0xC CALLER PUSH5 0xB06F83E302 PUSH19 0xF064736F6C63430008090033A2646970667358 0x22 SLT KECCAK256 DUP1 MOD CALLVALUE 0xF6 0xBD 0xC3 0x2B SGT SSTORE DUP12 0xCA 0xD1 0xA9 0x5C 0xF8 0x24 PUSH6 0x1FE2624E3B1E MULMOD MULMOD MUL EXTCODECOPY EXTCODEHASH RETURNDATASIZE 0xEF STOP PUSH4 0x64736F6C PUSH4 0x43000809 STOP CALLER "},"gasEstimates":{"creation":{"codeDepositCost":"1848000","executionCost":"1948","totalCost":"1849948"},"external":{"createStory(string,string)":"infinite","deployedStories(uint256)":"4934","getDeployedStories()":"infinite"}},"methodIdentifiers":{"createStory(string,string)":"9151d403","deployedStories(uint256)":"18351ea7","getDeployedStories()":"2ff2bdd5"}},"storageLayout":{"storage":[{"astId":4,"contract":"Story.sol:StoryFactory","label":"deployedStories","offset":0,"slot":"0","type":"t_array(t_address)dyn_storage"}],"types":{"t_address":{"encoding":"inplace","label":"address","numberOfBytes":"20"},"t_array(t_address)dyn_storage":{"base":"t_address","encoding":"dynamic_array","label":"address[]","numberOfBytes":"32"}}},"userdoc":{"kind":"user","methods":{},"version":1}}