{"abi":[{"inputs":[{"internalType":"string","name":"_title","type":"string"},{"internalType":"string","name":"_genre","type":"string"},{"internalType":"string","name":"_mainIdea","type":"string"}],"name":"createStory","outputs":[],"stateMutability":"nonpayable","type":"function"},{"inputs":[{"internalType":"uint256","name":"","type":"uint256"}],"name":"deployedStories","outputs":[{"internalType":"address","name":"","type":"address"}],"stateMutability":"view","type":"function"},{"inputs":[],"name":"getDeployedStories","outputs":[{"internalType":"address[]","name":"","type":"address[]"}],"stateMutability":"view","type":"function"}],"devdoc":{"kind":"dev","methods":{},"version":1},"evm":{"assembly":"    /* \"Story.sol\":431:853  contract StoryFactory {... */\n  mstore(0x40, 0x80)\n  callvalue\n  dup1\n  iszero\n  tag_1\n  jumpi\n  0x00\n  dup1\n  revert\ntag_1:\n  pop\n  dataSize(sub_0)\n  dup1\n  dataOffset(sub_0)\n  0x00\n  codecopy\n  0x00\n  return\nstop\n\nsub_0: assembly {\n        /* \"Story.sol\":431:853  contract StoryFactory {... */\n      mstore(0x40, 0x80)\n      callvalue\n      dup1\n      iszero\n      tag_1\n      jumpi\n      0x00\n      dup1\n      revert\n    tag_1:\n      pop\n      jumpi(tag_2, lt(calldatasize, 0x04))\n      shr(0xe0, calldataload(0x00))\n      dup1\n      0x18351ea7\n      eq\n      tag_3\n      jumpi\n      dup1\n      0x2ff2bdd5\n      eq\n      tag_4\n      jumpi\n      dup1\n      0xf4b955f3\n      eq\n      tag_5\n      jumpi\n    tag_2:\n      0x00\n      dup1\n      revert\n        /* \"Story.sol\":460:492  address[] public deployedStories */\n    tag_3:\n      tag_6\n      0x04\n      dup1\n      calldatasize\n      sub\n      dup2\n      add\n      swap1\n      tag_7\n      swap2\n      swap1\n      tag_8\n      jump\t// in\n    tag_7:\n      tag_9\n      jump\t// in\n    tag_6:\n      mload(0x40)\n      tag_10\n      swap2\n      swap1\n      tag_11\n      jump\t// in\n    tag_10:\n      mload(0x40)\n      dup1\n      swap2\n      sub\n      swap1\n      return\n        /* \"Story.sol\":740:850  function getDeployedStories() public view returns (address[] memory) {... */\n    tag_4:\n      tag_12\n      tag_13\n      jump\t// in\n    tag_12:\n      mload(0x40)\n      tag_14\n      swap2\n      swap1\n      tag_15\n      jump\t// in\n    tag_14:\n      mload(0x40)\n      dup1\n      swap2\n      sub\n      swap1\n      return\n        /* \"Story.sol\":501:732  function createStory(string memory _title, string memory _genre, string memory _mainIdea) public {... */\n    tag_5:\n      tag_16\n      0x04\n      dup1\n      calldatasize\n      sub\n      dup2\n      add\n      swap1\n      tag_17\n      swap2\n      swap1\n      tag_18\n      jump\t// in\n    tag_17:\n      tag_19\n      jump\t// in\n    tag_16:\n      stop\n        /* \"Story.sol\":460:492  address[] public deployedStories */\n    tag_9:\n      0x00\n      dup2\n      dup2\n      sload\n      dup2\n      lt\n      tag_20\n      jumpi\n      0x00\n      dup1\n      revert\n    tag_20:\n      swap1\n      0x00\n      mstore\n      keccak256(0x00, 0x20)\n      add\n      0x00\n      swap2\n      pop\n      sload\n      swap1\n      0x0100\n      exp\n      swap1\n      div\n      0xffffffffffffffffffffffffffffffffffffffff\n      and\n      dup2\n      jump\t// out\n        /* \"Story.sol\":740:850  function getDeployedStories() public view returns (address[] memory) {... */\n    tag_13:\n        /* \"Story.sol\":791:807  address[] memory */\n      0x60\n        /* \"Story.sol\":827:842  deployedStories */\n      0x00\n        /* \"Story.sol\":820:842  return deployedStories */\n      dup1\n      sload\n      dup1\n      0x20\n      mul\n      0x20\n      add\n      mload(0x40)\n      swap1\n      dup2\n      add\n      0x40\n      mstore\n      dup1\n      swap3\n      swap2\n      swap1\n      dup2\n      dup2\n      mstore\n      0x20\n      add\n      dup3\n      dup1\n      sload\n      dup1\n      iszero\n      tag_23\n      jumpi\n      0x20\n      mul\n      dup3\n      add\n      swap2\n      swap1\n      0x00\n      mstore\n      keccak256(0x00, 0x20)\n      swap1\n    tag_24:\n      dup2\n      0x00\n      swap1\n      sload\n      swap1\n      0x0100\n      exp\n      swap1\n      div\n      0xffffffffffffffffffffffffffffffffffffffff\n      and\n      0xffffffffffffffffffffffffffffffffffffffff\n      and\n      dup2\n      mstore\n      0x20\n      add\n      swap1\n      0x01\n      add\n      swap1\n      dup1\n      dup4\n      gt\n      tag_24\n      jumpi\n    tag_23:\n      pop\n      pop\n      pop\n      pop\n      pop\n      swap1\n      pop\n        /* \"Story.sol\":740:850  function getDeployedStories() public view returns (address[] memory) {... */\n      swap1\n      jump\t// out\n        /* \"Story.sol\":501:732  function createStory(string memory _title, string memory _genre, string memory _mainIdea) public {... */\n    tag_19:\n        /* \"Story.sol\":609:623  Story newStory */\n      0x00\n        /* \"Story.sol\":636:646  msg.sender */\n      caller\n        /* \"Story.sol\":648:654  _title */\n      dup5\n        /* \"Story.sol\":656:662  _genre */\n      dup5\n        /* \"Story.sol\":664:673  _mainIdea */\n      dup5\n        /* \"Story.sol\":626:674  new Story(msg.sender, _title, _genre, _mainIdea) */\n      mload(0x40)\n      tag_26\n      swap1\n      tag_27\n      jump\t// in\n    tag_26:\n      tag_28\n      swap5\n      swap4\n      swap3\n      swap2\n      swap1\n      tag_29\n      jump\t// in\n    tag_28:\n      mload(0x40)\n      dup1\n      swap2\n      sub\n      swap1\n      0x00\n      create\n      dup1\n      iszero\n      dup1\n      iszero\n      tag_30\n      jumpi\n      returndatasize\n      0x00\n      dup1\n      returndatacopy\n      revert(0x00, returndatasize)\n    tag_30:\n      pop\n        /* \"Story.sol\":609:674  Story newStory = new Story(msg.sender, _title, _genre, _mainIdea) */\n      swap1\n      pop\n        /* \"Story.sol\":685:700  deployedStories */\n      0x00\n        /* \"Story.sol\":714:722  newStory */\n      dup2\n        /* \"Story.sol\":685:724  deployedStories.push(address(newStory)) */\n      swap1\n      dup1\n      0x01\n      dup2\n      sload\n      add\n      dup1\n      dup3\n      sstore\n      dup1\n      swap2\n      pop\n      pop\n      0x01\n      swap1\n      sub\n      swap1\n      0x00\n      mstore\n      keccak256(0x00, 0x20)\n      add\n      0x00\n      swap1\n      swap2\n      swap1\n      swap2\n      swap1\n      swap2\n      0x0100\n      exp\n      dup2\n      sload\n      dup2\n      0xffffffffffffffffffffffffffffffffffffffff\n      mul\n      not\n      and\n      swap1\n      dup4\n      0xffffffffffffffffffffffffffffffffffffffff\n      and\n      mul\n      or\n      swap1\n      sstore\n      pop\n        /* \"Story.sol\":598:732  {... */\n      pop\n        /* \"Story.sol\":501:732  function createStory(string memory _title, string memory _genre, string memory _mainIdea) public {... */\n      pop\n      pop\n      pop\n      jump\t// out\n    tag_27:\n      dataSize(sub_0)\n      dup1\n      dataOffset(sub_0)\n      dup4\n      codecopy\n      add\n      swap1\n      jump\t// out\n        /* \"#utility.yul\":7:82   */\n    tag_32:\n        /* \"#utility.yul\":40:46   */\n      0x00\n        /* \"#utility.yul\":73:75   */\n      0x40\n        /* \"#utility.yul\":67:76   */\n      mload\n        /* \"#utility.yul\":57:76   */\n      swap1\n      pop\n        /* \"#utility.yul\":7:82   */\n      swap1\n      jump\t// out\n        /* \"#utility.yul\":88:205   */\n    tag_33:\n        /* \"#utility.yul\":197:198   */\n      0x00\n        /* \"#utility.yul\":194:195   */\n      dup1\n        /* \"#utility.yul\":187:199   */\n      revert\n        /* \"#utility.yul\":211:328   */\n    tag_34:\n        /* \"#utility.yul\":320:321   */\n      0x00\n        /* \"#utility.yul\":317:318   */\n      dup1\n        /* \"#utility.yul\":310:322   */\n      revert\n        /* \"#utility.yul\":334:411   */\n    tag_35:\n        /* \"#utility.yul\":371:378   */\n      0x00\n        /* \"#utility.yul\":400:405   */\n      dup2\n        /* \"#utility.yul\":389:405   */\n      swap1\n      pop\n        /* \"#utility.yul\":334:411   */\n      swap2\n      swap1\n      pop\n      jump\t// out\n        /* \"#utility.yul\":417:539   */\n    tag_36:\n        /* \"#utility.yul\":490:514   */\n      tag_68\n        /* \"#utility.yul\":508:513   */\n      dup2\n        /* \"#utility.yul\":490:514   */\n      tag_35\n      jump\t// in\n    tag_68:\n        /* \"#utility.yul\":483:488   */\n      dup2\n        /* \"#utility.yul\":480:515   */\n      eq\n        /* \"#utility.yul\":470:533   */\n      tag_69\n      jumpi\n        /* \"#utility.yul\":529:530   */\n      0x00\n        /* \"#utility.yul\":526:527   */\n      dup1\n        /* \"#utility.yul\":519:531   */\n      revert\n        /* \"#utility.yul\":470:533   */\n    tag_69:\n        /* \"#utility.yul\":417:539   */\n      pop\n      jump\t// out\n        /* \"#utility.yul\":545:684   */\n    tag_37:\n        /* \"#utility.yul\":591:596   */\n      0x00\n        /* \"#utility.yul\":629:635   */\n      dup2\n        /* \"#utility.yul\":616:636   */\n      calldataload\n        /* \"#utility.yul\":607:636   */\n      swap1\n      pop\n        /* \"#utility.yul\":645:678   */\n      tag_71\n        /* \"#utility.yul\":672:677   */\n      dup2\n        /* \"#utility.yul\":645:678   */\n      tag_36\n      jump\t// in\n    tag_71:\n        /* \"#utility.yul\":545:684   */\n      swap3\n      swap2\n      pop\n      pop\n      jump\t// out\n        /* \"#utility.yul\":690:1019   */\n    tag_8:\n        /* \"#utility.yul\":749:755   */\n      0x00\n        /* \"#utility.yul\":798:800   */\n      0x20\n        /* \"#utility.yul\":786:795   */\n      dup3\n        /* \"#utility.yul\":777:784   */\n      dup5\n        /* \"#utility.yul\":773:796   */\n      sub\n        /* \"#utility.yul\":769:801   */\n      slt\n        /* \"#utility.yul\":766:885   */\n      iszero\n      tag_73\n      jumpi\n        /* \"#utility.yul\":804:883   */\n      tag_74\n      tag_33\n      jump\t// in\n    tag_74:\n        /* \"#utility.yul\":766:885   */\n    tag_73:\n        /* \"#utility.yul\":924:925   */\n      0x00\n        /* \"#utility.yul\":949:1002   */\n      tag_75\n        /* \"#utility.yul\":994:1001   */\n      dup5\n        /* \"#utility.yul\":985:991   */\n      dup3\n        /* \"#utility.yul\":974:983   */\n      dup6\n        /* \"#utility.yul\":970:992   */\n      add\n        /* \"#utility.yul\":949:1002   */\n      tag_37\n      jump\t// in\n    tag_75:\n        /* \"#utility.yul\":939:1002   */\n      swap2\n      pop\n        /* \"#utility.yul\":895:1012   */\n      pop\n        /* \"#utility.yul\":690:1019   */\n      swap3\n      swap2\n      pop\n      pop\n      jump\t// out\n        /* \"#utility.yul\":1025:1151   */\n    tag_38:\n        /* \"#utility.yul\":1062:1069   */\n      0x00\n        /* \"#utility.yul\":1102:1144   */\n      0xffffffffffffffffffffffffffffffffffffffff\n        /* \"#utility.yul\":1095:1100   */\n      dup3\n        /* \"#utility.yul\":1091:1145   */\n      and\n        /* \"#utility.yul\":1080:1145   */\n      swap1\n      pop\n        /* \"#utility.yul\":1025:1151   */\n      swap2\n      swap1\n      pop\n      jump\t// out\n        /* \"#utility.yul\":1157:1253   */\n    tag_39:\n        /* \"#utility.yul\":1194:1201   */\n      0x00\n        /* \"#utility.yul\":1223:1247   */\n      tag_78\n        /* \"#utility.yul\":1241:1246   */\n      dup3\n        /* \"#utility.yul\":1223:1247   */\n      tag_38\n      jump\t// in\n    tag_78:\n        /* \"#utility.yul\":1212:1247   */\n      swap1\n      pop\n        /* \"#utility.yul\":1157:1253   */\n      swap2\n      swap1\n      pop\n      jump\t// out\n        /* \"#utility.yul\":1259:1377   */\n    tag_40:\n        /* \"#utility.yul\":1346:1370   */\n      tag_80\n        /* \"#utility.yul\":1364:1369   */\n      dup2\n        /* \"#utility.yul\":1346:1370   */\n      tag_39\n      jump\t// in\n    tag_80:\n        /* \"#utility.yul\":1341:1344   */\n      dup3\n        /* \"#utility.yul\":1334:1371   */\n      mstore\n        /* \"#utility.yul\":1259:1377   */\n      pop\n      pop\n      jump\t// out\n        /* \"#utility.yul\":1383:1605   */\n    tag_11:\n        /* \"#utility.yul\":1476:1480   */\n      0x00\n        /* \"#utility.yul\":1514:1516   */\n      0x20\n        /* \"#utility.yul\":1503:1512   */\n      dup3\n        /* \"#utility.yul\":1499:1517   */\n      add\n        /* \"#utility.yul\":1491:1517   */\n      swap1\n      pop\n        /* \"#utility.yul\":1527:1598   */\n      tag_82\n        /* \"#utility.yul\":1595:1596   */\n      0x00\n        /* \"#utility.yul\":1584:1593   */\n      dup4\n        /* \"#utility.yul\":1580:1597   */\n      add\n        /* \"#utility.yul\":1571:1577   */\n      dup5\n        /* \"#utility.yul\":1527:1598   */\n      tag_40\n      jump\t// in\n    tag_82:\n        /* \"#utility.yul\":1383:1605   */\n      swap3\n      swap2\n      pop\n      pop\n      jump\t// out\n        /* \"#utility.yul\":1611:1725   */\n    tag_41:\n        /* \"#utility.yul\":1678:1684   */\n      0x00\n        /* \"#utility.yul\":1712:1717   */\n      dup2\n        /* \"#utility.yul\":1706:1718   */\n      mload\n        /* \"#utility.yul\":1696:1718   */\n      swap1\n      pop\n        /* \"#utility.yul\":1611:1725   */\n      swap2\n      swap1\n      pop\n      jump\t// out\n        /* \"#utility.yul\":1731:1915   */\n    tag_42:\n        /* \"#utility.yul\":1830:1841   */\n      0x00\n        /* \"#utility.yul\":1864:1870   */\n      dup3\n        /* \"#utility.yul\":1859:1862   */\n      dup3\n        /* \"#utility.yul\":1852:1871   */\n      mstore\n        /* \"#utility.yul\":1904:1908   */\n      0x20\n        /* \"#utility.yul\":1899:1902   */\n      dup3\n        /* \"#utility.yul\":1895:1909   */\n      add\n        /* \"#utility.yul\":1880:1909   */\n      swap1\n      pop\n        /* \"#utility.yul\":1731:1915   */\n      swap3\n      swap2\n      pop\n      pop\n      jump\t// out\n        /* \"#utility.yul\":1921:2053   */\n    tag_43:\n        /* \"#utility.yul\":1988:1992   */\n      0x00\n        /* \"#utility.yul\":2011:2014   */\n      dup2\n        /* \"#utility.yul\":2003:2014   */\n      swap1\n      pop\n        /* \"#utility.yul\":2041:2045   */\n      0x20\n        /* \"#utility.yul\":2036:2039   */\n      dup3\n        /* \"#utility.yul\":2032:2046   */\n      add\n        /* \"#utility.yul\":2024:2046   */\n      swap1\n      pop\n        /* \"#utility.yul\":1921:2053   */\n      swap2\n      swap1\n      pop\n      jump\t// out\n        /* \"#utility.yul\":2059:2167   */\n    tag_44:\n        /* \"#utility.yul\":2136:2160   */\n      tag_87\n        /* \"#utility.yul\":2154:2159   */\n      dup2\n        /* \"#utility.yul\":2136:2160   */\n      tag_39\n      jump\t// in\n    tag_87:\n        /* \"#utility.yul\":2131:2134   */\n      dup3\n        /* \"#utility.yul\":2124:2161   */\n      mstore\n        /* \"#utility.yul\":2059:2167   */\n      pop\n      pop\n      jump\t// out\n        /* \"#utility.yul\":2173:2352   */\n    tag_45:\n        /* \"#utility.yul\":2242:2252   */\n      0x00\n        /* \"#utility.yul\":2263:2309   */\n      tag_89\n        /* \"#utility.yul\":2305:2308   */\n      dup4\n        /* \"#utility.yul\":2297:2303   */\n      dup4\n        /* \"#utility.yul\":2263:2309   */\n      tag_44\n      jump\t// in\n    tag_89:\n        /* \"#utility.yul\":2341:2345   */\n      0x20\n        /* \"#utility.yul\":2336:2339   */\n      dup4\n        /* \"#utility.yul\":2332:2346   */\n      add\n        /* \"#utility.yul\":2318:2346   */\n      swap1\n      pop\n        /* \"#utility.yul\":2173:2352   */\n      swap3\n      swap2\n      pop\n      pop\n      jump\t// out\n        /* \"#utility.yul\":2358:2471   */\n    tag_46:\n        /* \"#utility.yul\":2428:2432   */\n      0x00\n        /* \"#utility.yul\":2460:2464   */\n      0x20\n        /* \"#utility.yul\":2455:2458   */\n      dup3\n        /* \"#utility.yul\":2451:2465   */\n      add\n        /* \"#utility.yul\":2443:2465   */\n      swap1\n      pop\n        /* \"#utility.yul\":2358:2471   */\n      swap2\n      swap1\n      pop\n      jump\t// out\n        /* \"#utility.yul\":2507:3239   */\n    tag_47:\n        /* \"#utility.yul\":2626:2629   */\n      0x00\n        /* \"#utility.yul\":2655:2709   */\n      tag_92\n        /* \"#utility.yul\":2703:2708   */\n      dup3\n        /* \"#utility.yul\":2655:2709   */\n      tag_41\n      jump\t// in\n    tag_92:\n        /* \"#utility.yul\":2725:2811   */\n      tag_93\n        /* \"#utility.yul\":2804:2810   */\n      dup2\n        /* \"#utility.yul\":2799:2802   */\n      dup6\n        /* \"#utility.yul\":2725:2811   */\n      tag_42\n      jump\t// in\n    tag_93:\n        /* \"#utility.yul\":2718:2811   */\n      swap4\n      pop\n        /* \"#utility.yul\":2835:2891   */\n      tag_94\n        /* \"#utility.yul\":2885:2890   */\n      dup4\n        /* \"#utility.yul\":2835:2891   */\n      tag_43\n      jump\t// in\n    tag_94:\n        /* \"#utility.yul\":2914:2921   */\n      dup1\n        /* \"#utility.yul\":2945:2946   */\n      0x00\n        /* \"#utility.yul\":2930:3214   */\n    tag_95:\n        /* \"#utility.yul\":2955:2961   */\n      dup4\n        /* \"#utility.yul\":2952:2953   */\n      dup2\n        /* \"#utility.yul\":2949:2962   */\n      lt\n        /* \"#utility.yul\":2930:3214   */\n      iszero\n      tag_97\n      jumpi\n        /* \"#utility.yul\":3031:3037   */\n      dup2\n        /* \"#utility.yul\":3025:3038   */\n      mload\n        /* \"#utility.yul\":3058:3121   */\n      tag_98\n        /* \"#utility.yul\":3117:3120   */\n      dup9\n        /* \"#utility.yul\":3102:3115   */\n      dup3\n        /* \"#utility.yul\":3058:3121   */\n      tag_45\n      jump\t// in\n    tag_98:\n        /* \"#utility.yul\":3051:3121   */\n      swap8\n      pop\n        /* \"#utility.yul\":3144:3204   */\n      tag_99\n        /* \"#utility.yul\":3197:3203   */\n      dup4\n        /* \"#utility.yul\":3144:3204   */\n      tag_46\n      jump\t// in\n    tag_99:\n        /* \"#utility.yul\":3134:3204   */\n      swap3\n      pop\n        /* \"#utility.yul\":2990:3214   */\n      pop\n        /* \"#utility.yul\":2977:2978   */\n      0x01\n        /* \"#utility.yul\":2974:2975   */\n      dup2\n        /* \"#utility.yul\":2970:2979   */\n      add\n        /* \"#utility.yul\":2965:2979   */\n      swap1\n      pop\n        /* \"#utility.yul\":2930:3214   */\n      jump(tag_95)\n    tag_97:\n        /* \"#utility.yul\":2934:2948   */\n      pop\n        /* \"#utility.yul\":3230:3233   */\n      dup6\n        /* \"#utility.yul\":3223:3233   */\n      swap4\n      pop\n        /* \"#utility.yul\":2631:3239   */\n      pop\n      pop\n      pop\n        /* \"#utility.yul\":2507:3239   */\n      swap3\n      swap2\n      pop\n      pop\n      jump\t// out\n        /* \"#utility.yul\":3245:3618   */\n    tag_15:\n        /* \"#utility.yul\":3388:3392   */\n      0x00\n        /* \"#utility.yul\":3426:3428   */\n      0x20\n        /* \"#utility.yul\":3415:3424   */\n      dup3\n        /* \"#utility.yul\":3411:3429   */\n      add\n        /* \"#utility.yul\":3403:3429   */\n      swap1\n      pop\n        /* \"#utility.yul\":3475:3484   */\n      dup2\n        /* \"#utility.yul\":3469:3473   */\n      dup2\n        /* \"#utility.yul\":3465:3485   */\n      sub\n        /* \"#utility.yul\":3461:3462   */\n      0x00\n        /* \"#utility.yul\":3450:3459   */\n      dup4\n        /* \"#utility.yul\":3446:3463   */\n      add\n        /* \"#utility.yul\":3439:3486   */\n      mstore\n        /* \"#utility.yul\":3503:3611   */\n      tag_101\n        /* \"#utility.yul\":3606:3610   */\n      dup2\n        /* \"#utility.yul\":3597:3603   */\n      dup5\n        /* \"#utility.yul\":3503:3611   */\n      tag_47\n      jump\t// in\n    tag_101:\n        /* \"#utility.yul\":3495:3611   */\n      swap1\n      pop\n        /* \"#utility.yul\":3245:3618   */\n      swap3\n      swap2\n      pop\n      pop\n      jump\t// out\n        /* \"#utility.yul\":3624:3741   */\n    tag_48:\n        /* \"#utility.yul\":3733:3734   */\n      0x00\n        /* \"#utility.yul\":3730:3731   */\n      dup1\n        /* \"#utility.yul\":3723:3735   */\n      revert\n        /* \"#utility.yul\":3747:3864   */\n    tag_49:\n        /* \"#utility.yul\":3856:3857   */\n      0x00\n        /* \"#utility.yul\":3853:3854   */\n      dup1\n        /* \"#utility.yul\":3846:3858   */\n      revert\n        /* \"#utility.yul\":3870:3972   */\n    tag_50:\n        /* \"#utility.yul\":3911:3917   */\n      0x00\n        /* \"#utility.yul\":3962:3964   */\n      0x1f\n        /* \"#utility.yul\":3958:3965   */\n      not\n        /* \"#utility.yul\":3953:3955   */\n      0x1f\n        /* \"#utility.yul\":3946:3951   */\n      dup4\n        /* \"#utility.yul\":3942:3956   */\n      add\n        /* \"#utility.yul\":3938:3966   */\n      and\n        /* \"#utility.yul\":3928:3966   */\n      swap1\n      pop\n        /* \"#utility.yul\":3870:3972   */\n      swap2\n      swap1\n      pop\n      jump\t// out\n        /* \"#utility.yul\":3978:4158   */\n    tag_51:\n        /* \"#utility.yul\":4026:4103   */\n      0x4e487b7100000000000000000000000000000000000000000000000000000000\n        /* \"#utility.yul\":4023:4024   */\n      0x00\n        /* \"#utility.yul\":4016:4104   */\n      mstore\n        /* \"#utility.yul\":4123:4127   */\n      0x41\n        /* \"#utility.yul\":4120:4121   */\n      0x04\n        /* \"#utility.yul\":4113:4128   */\n      mstore\n        /* \"#utility.yul\":4147:4151   */\n      0x24\n        /* \"#utility.yul\":4144:4145   */\n      0x00\n        /* \"#utility.yul\":4137:4152   */\n      revert\n        /* \"#utility.yul\":4164:4445   */\n    tag_52:\n        /* \"#utility.yul\":4247:4274   */\n      tag_107\n        /* \"#utility.yul\":4269:4273   */\n      dup3\n        /* \"#utility.yul\":4247:4274   */\n      tag_50\n      jump\t// in\n    tag_107:\n        /* \"#utility.yul\":4239:4245   */\n      dup2\n        /* \"#utility.yul\":4235:4275   */\n      add\n        /* \"#utility.yul\":4377:4383   */\n      dup2\n        /* \"#utility.yul\":4365:4375   */\n      dup2\n        /* \"#utility.yul\":4362:4384   */\n      lt\n        /* \"#utility.yul\":4341:4359   */\n      0xffffffffffffffff\n        /* \"#utility.yul\":4329:4339   */\n      dup3\n        /* \"#utility.yul\":4326:4360   */\n      gt\n        /* \"#utility.yul\":4323:4385   */\n      or\n        /* \"#utility.yul\":4320:4408   */\n      iszero\n      tag_108\n      jumpi\n        /* \"#utility.yul\":4388:4406   */\n      tag_109\n      tag_51\n      jump\t// in\n    tag_109:\n        /* \"#utility.yul\":4320:4408   */\n    tag_108:\n        /* \"#utility.yul\":4428:4438   */\n      dup1\n        /* \"#utility.yul\":4424:4426   */\n      0x40\n        /* \"#utility.yul\":4417:4439   */\n      mstore\n        /* \"#utility.yul\":4207:4445   */\n      pop\n        /* \"#utility.yul\":4164:4445   */\n      pop\n      pop\n      jump\t// out\n        /* \"#utility.yul\":4451:4580   */\n    tag_53:\n        /* \"#utility.yul\":4485:4491   */\n      0x00\n        /* \"#utility.yul\":4512:4532   */\n      tag_111\n      tag_32\n      jump\t// in\n    tag_111:\n        /* \"#utility.yul\":4502:4532   */\n      swap1\n      pop\n        /* \"#utility.yul\":4541:4574   */\n      tag_112\n        /* \"#utility.yul\":4569:4573   */\n      dup3\n        /* \"#utility.yul\":4561:4567   */\n      dup3\n        /* \"#utility.yul\":4541:4574   */\n      tag_52\n      jump\t// in\n    tag_112:\n        /* \"#utility.yul\":4451:4580   */\n      swap2\n      swap1\n      pop\n      jump\t// out\n        /* \"#utility.yul\":4586:4894   */\n    tag_54:\n        /* \"#utility.yul\":4648:4652   */\n      0x00\n        /* \"#utility.yul\":4738:4756   */\n      0xffffffffffffffff\n        /* \"#utility.yul\":4730:4736   */\n      dup3\n        /* \"#utility.yul\":4727:4757   */\n      gt\n        /* \"#utility.yul\":4724:4780   */\n      iszero\n      tag_114\n      jumpi\n        /* \"#utility.yul\":4760:4778   */\n      tag_115\n      tag_51\n      jump\t// in\n    tag_115:\n        /* \"#utility.yul\":4724:4780   */\n    tag_114:\n        /* \"#utility.yul\":4798:4827   */\n      tag_116\n        /* \"#utility.yul\":4820:4826   */\n      dup3\n        /* \"#utility.yul\":4798:4827   */\n      tag_50\n      jump\t// in\n    tag_116:\n        /* \"#utility.yul\":4790:4827   */\n      swap1\n      pop\n        /* \"#utility.yul\":4882:4886   */\n      0x20\n        /* \"#utility.yul\":4876:4880   */\n      dup2\n        /* \"#utility.yul\":4872:4887   */\n      add\n        /* \"#utility.yul\":4864:4887   */\n      swap1\n      pop\n        /* \"#utility.yul\":4586:4894   */\n      swap2\n      swap1\n      pop\n      jump\t// out\n        /* \"#utility.yul\":4900:5054   */\n    tag_55:\n        /* \"#utility.yul\":4984:4990   */\n      dup3\n        /* \"#utility.yul\":4979:4982   */\n      dup2\n        /* \"#utility.yul\":4974:4977   */\n      dup4\n        /* \"#utility.yul\":4961:4991   */\n      calldatacopy\n        /* \"#utility.yul\":5046:5047   */\n      0x00\n        /* \"#utility.yul\":5037:5043   */\n      dup4\n        /* \"#utility.yul\":5032:5035   */\n      dup4\n        /* \"#utility.yul\":5028:5044   */\n      add\n        /* \"#utility.yul\":5021:5048   */\n      mstore\n        /* \"#utility.yul\":4900:5054   */\n      pop\n      pop\n      pop\n      jump\t// out\n        /* \"#utility.yul\":5060:5472   */\n    tag_56:\n        /* \"#utility.yul\":5138:5143   */\n      0x00\n        /* \"#utility.yul\":5163:5229   */\n      tag_119\n        /* \"#utility.yul\":5179:5228   */\n      tag_120\n        /* \"#utility.yul\":5221:5227   */\n      dup5\n        /* \"#utility.yul\":5179:5228   */\n      tag_54\n      jump\t// in\n    tag_120:\n        /* \"#utility.yul\":5163:5229   */\n      tag_53\n      jump\t// in\n    tag_119:\n        /* \"#utility.yul\":5154:5229   */\n      swap1\n      pop\n        /* \"#utility.yul\":5252:5258   */\n      dup3\n        /* \"#utility.yul\":5245:5250   */\n      dup2\n        /* \"#utility.yul\":5238:5259   */\n      mstore\n        /* \"#utility.yul\":5290:5294   */\n      0x20\n        /* \"#utility.yul\":5283:5288   */\n      dup2\n        /* \"#utility.yul\":5279:5295   */\n      add\n        /* \"#utility.yul\":5328:5331   */\n      dup5\n        /* \"#utility.yul\":5319:5325   */\n      dup5\n        /* \"#utility.yul\":5314:5317   */\n      dup5\n        /* \"#utility.yul\":5310:5326   */\n      add\n        /* \"#utility.yul\":5307:5332   */\n      gt\n        /* \"#utility.yul\":5304:5416   */\n      iszero\n      tag_121\n      jumpi\n        /* \"#utility.yul\":5335:5414   */\n      tag_122\n      tag_49\n      jump\t// in\n    tag_122:\n        /* \"#utility.yul\":5304:5416   */\n    tag_121:\n        /* \"#utility.yul\":5425:5466   */\n      tag_123\n        /* \"#utility.yul\":5459:5465   */\n      dup5\n        /* \"#utility.yul\":5454:5457   */\n      dup3\n        /* \"#utility.yul\":5449:5452   */\n      dup6\n        /* \"#utility.yul\":5425:5466   */\n      tag_55\n      jump\t// in\n    tag_123:\n        /* \"#utility.yul\":5144:5472   */\n      pop\n        /* \"#utility.yul\":5060:5472   */\n      swap4\n      swap3\n      pop\n      pop\n      pop\n      jump\t// out\n        /* \"#utility.yul\":5492:5832   */\n    tag_57:\n        /* \"#utility.yul\":5548:5553   */\n      0x00\n        /* \"#utility.yul\":5597:5600   */\n      dup3\n        /* \"#utility.yul\":5590:5594   */\n      0x1f\n        /* \"#utility.yul\":5582:5588   */\n      dup4\n        /* \"#utility.yul\":5578:5595   */\n      add\n        /* \"#utility.yul\":5574:5601   */\n      slt\n        /* \"#utility.yul\":5564:5686   */\n      tag_125\n      jumpi\n        /* \"#utility.yul\":5605:5684   */\n      tag_126\n      tag_48\n      jump\t// in\n    tag_126:\n        /* \"#utility.yul\":5564:5686   */\n    tag_125:\n        /* \"#utility.yul\":5722:5728   */\n      dup2\n        /* \"#utility.yul\":5709:5729   */\n      calldataload\n        /* \"#utility.yul\":5747:5826   */\n      tag_127\n        /* \"#utility.yul\":5822:5825   */\n      dup5\n        /* \"#utility.yul\":5814:5820   */\n      dup3\n        /* \"#utility.yul\":5807:5811   */\n      0x20\n        /* \"#utility.yul\":5799:5805   */\n      dup7\n        /* \"#utility.yul\":5795:5812   */\n      add\n        /* \"#utility.yul\":5747:5826   */\n      tag_56\n      jump\t// in\n    tag_127:\n        /* \"#utility.yul\":5738:5826   */\n      swap2\n      pop\n        /* \"#utility.yul\":5554:5832   */\n      pop\n        /* \"#utility.yul\":5492:5832   */\n      swap3\n      swap2\n      pop\n      pop\n      jump\t// out\n        /* \"#utility.yul\":5838:6997   */\n    tag_18:\n        /* \"#utility.yul\":5945:5951   */\n      0x00\n        /* \"#utility.yul\":5953:5959   */\n      dup1\n        /* \"#utility.yul\":5961:5967   */\n      0x00\n        /* \"#utility.yul\":6010:6012   */\n      0x60\n        /* \"#utility.yul\":5998:6007   */\n      dup5\n        /* \"#utility.yul\":5989:5996   */\n      dup7\n        /* \"#utility.yul\":5985:6008   */\n      sub\n        /* \"#utility.yul\":5981:6013   */\n      slt\n        /* \"#utility.yul\":5978:6097   */\n      iszero\n      tag_129\n      jumpi\n        /* \"#utility.yul\":6016:6095   */\n      tag_130\n      tag_33\n      jump\t// in\n    tag_130:\n        /* \"#utility.yul\":5978:6097   */\n    tag_129:\n        /* \"#utility.yul\":6164:6165   */\n      0x00\n        /* \"#utility.yul\":6153:6162   */\n      dup5\n        /* \"#utility.yul\":6149:6166   */\n      add\n        /* \"#utility.yul\":6136:6167   */\n      calldataload\n        /* \"#utility.yul\":6194:6212   */\n      0xffffffffffffffff\n        /* \"#utility.yul\":6186:6192   */\n      dup2\n        /* \"#utility.yul\":6183:6213   */\n      gt\n        /* \"#utility.yul\":6180:6297   */\n      iszero\n      tag_131\n      jumpi\n        /* \"#utility.yul\":6216:6295   */\n      tag_132\n      tag_34\n      jump\t// in\n    tag_132:\n        /* \"#utility.yul\":6180:6297   */\n    tag_131:\n        /* \"#utility.yul\":6321:6384   */\n      tag_133\n        /* \"#utility.yul\":6376:6383   */\n      dup7\n        /* \"#utility.yul\":6367:6373   */\n      dup3\n        /* \"#utility.yul\":6356:6365   */\n      dup8\n        /* \"#utility.yul\":6352:6374   */\n      add\n        /* \"#utility.yul\":6321:6384   */\n      tag_57\n      jump\t// in\n    tag_133:\n        /* \"#utility.yul\":6311:6384   */\n      swap4\n      pop\n        /* \"#utility.yul\":6107:6394   */\n      pop\n        /* \"#utility.yul\":6461:6463   */\n      0x20\n        /* \"#utility.yul\":6450:6459   */\n      dup5\n        /* \"#utility.yul\":6446:6464   */\n      add\n        /* \"#utility.yul\":6433:6465   */\n      calldataload\n        /* \"#utility.yul\":6492:6510   */\n      0xffffffffffffffff\n        /* \"#utility.yul\":6484:6490   */\n      dup2\n        /* \"#utility.yul\":6481:6511   */\n      gt\n        /* \"#utility.yul\":6478:6595   */\n      iszero\n      tag_134\n      jumpi\n        /* \"#utility.yul\":6514:6593   */\n      tag_135\n      tag_34\n      jump\t// in\n    tag_135:\n        /* \"#utility.yul\":6478:6595   */\n    tag_134:\n        /* \"#utility.yul\":6619:6682   */\n      tag_136\n        /* \"#utility.yul\":6674:6681   */\n      dup7\n        /* \"#utility.yul\":6665:6671   */\n      dup3\n        /* \"#utility.yul\":6654:6663   */\n      dup8\n        /* \"#utility.yul\":6650:6672   */\n      add\n        /* \"#utility.yul\":6619:6682   */\n      tag_57\n      jump\t// in\n    tag_136:\n        /* \"#utility.yul\":6609:6682   */\n      swap3\n      pop\n        /* \"#utility.yul\":6404:6692   */\n      pop\n        /* \"#utility.yul\":6759:6761   */\n      0x40\n        /* \"#utility.yul\":6748:6757   */\n      dup5\n        /* \"#utility.yul\":6744:6762   */\n      add\n        /* \"#utility.yul\":6731:6763   */\n      calldataload\n        /* \"#utility.yul\":6790:6808   */\n      0xffffffffffffffff\n        /* \"#utility.yul\":6782:6788   */\n      dup2\n        /* \"#utility.yul\":6779:6809   */\n      gt\n        /* \"#utility.yul\":6776:6893   */\n      iszero\n      tag_137\n      jumpi\n        /* \"#utility.yul\":6812:6891   */\n      tag_138\n      tag_34\n      jump\t// in\n    tag_138:\n        /* \"#utility.yul\":6776:6893   */\n    tag_137:\n        /* \"#utility.yul\":6917:6980   */\n      tag_139\n        /* \"#utility.yul\":6972:6979   */\n      dup7\n        /* \"#utility.yul\":6963:6969   */\n      dup3\n        /* \"#utility.yul\":6952:6961   */\n      dup8\n        /* \"#utility.yul\":6948:6970   */\n      add\n        /* \"#utility.yul\":6917:6980   */\n      tag_57\n      jump\t// in\n    tag_139:\n        /* \"#utility.yul\":6907:6980   */\n      swap2\n      pop\n        /* \"#utility.yul\":6702:6990   */\n      pop\n        /* \"#utility.yul\":5838:6997   */\n      swap3\n      pop\n      swap3\n      pop\n      swap3\n      jump\t// out\n        /* \"#utility.yul\":7003:7102   */\n    tag_58:\n        /* \"#utility.yul\":7055:7061   */\n      0x00\n        /* \"#utility.yul\":7089:7094   */\n      dup2\n        /* \"#utility.yul\":7083:7095   */\n      mload\n        /* \"#utility.yul\":7073:7095   */\n      swap1\n      pop\n        /* \"#utility.yul\":7003:7102   */\n      swap2\n      swap1\n      pop\n      jump\t// out\n        /* \"#utility.yul\":7108:7277   */\n    tag_59:\n        /* \"#utility.yul\":7192:7203   */\n      0x00\n        /* \"#utility.yul\":7226:7232   */\n      dup3\n        /* \"#utility.yul\":7221:7224   */\n      dup3\n        /* \"#utility.yul\":7214:7233   */\n      mstore\n        /* \"#utility.yul\":7266:7270   */\n      0x20\n        /* \"#utility.yul\":7261:7264   */\n      dup3\n        /* \"#utility.yul\":7257:7271   */\n      add\n        /* \"#utility.yul\":7242:7271   */\n      swap1\n      pop\n        /* \"#utility.yul\":7108:7277   */\n      swap3\n      swap2\n      pop\n      pop\n      jump\t// out\n        /* \"#utility.yul\":7283:7590   */\n    tag_60:\n        /* \"#utility.yul\":7351:7352   */\n      0x00\n        /* \"#utility.yul\":7361:7474   */\n    tag_143:\n        /* \"#utility.yul\":7375:7381   */\n      dup4\n        /* \"#utility.yul\":7372:7373   */\n      dup2\n        /* \"#utility.yul\":7369:7382   */\n      lt\n        /* \"#utility.yul\":7361:7474   */\n      iszero\n      tag_145\n      jumpi\n        /* \"#utility.yul\":7460:7461   */\n      dup1\n        /* \"#utility.yul\":7455:7458   */\n      dup3\n        /* \"#utility.yul\":7451:7462   */\n      add\n        /* \"#utility.yul\":7445:7463   */\n      mload\n        /* \"#utility.yul\":7441:7442   */\n      dup2\n        /* \"#utility.yul\":7436:7439   */\n      dup5\n        /* \"#utility.yul\":7432:7443   */\n      add\n        /* \"#utility.yul\":7425:7464   */\n      mstore\n        /* \"#utility.yul\":7397:7399   */\n      0x20\n        /* \"#utility.yul\":7394:7395   */\n      dup2\n        /* \"#utility.yul\":7390:7400   */\n      add\n        /* \"#utility.yul\":7385:7400   */\n      swap1\n      pop\n        /* \"#utility.yul\":7361:7474   */\n      jump(tag_143)\n    tag_145:\n        /* \"#utility.yul\":7492:7498   */\n      dup4\n        /* \"#utility.yul\":7489:7490   */\n      dup2\n        /* \"#utility.yul\":7486:7499   */\n      gt\n        /* \"#utility.yul\":7483:7584   */\n      iszero\n      tag_146\n      jumpi\n        /* \"#utility.yul\":7572:7573   */\n      0x00\n        /* \"#utility.yul\":7563:7569   */\n      dup5\n        /* \"#utility.yul\":7558:7561   */\n      dup5\n        /* \"#utility.yul\":7554:7570   */\n      add\n        /* \"#utility.yul\":7547:7574   */\n      mstore\n        /* \"#utility.yul\":7483:7584   */\n    tag_146:\n        /* \"#utility.yul\":7332:7590   */\n      pop\n        /* \"#utility.yul\":7283:7590   */\n      pop\n      pop\n      pop\n      jump\t// out\n        /* \"#utility.yul\":7596:7960   */\n    tag_61:\n        /* \"#utility.yul\":7684:7687   */\n      0x00\n        /* \"#utility.yul\":7712:7751   */\n      tag_148\n        /* \"#utility.yul\":7745:7750   */\n      dup3\n        /* \"#utility.yul\":7712:7751   */\n      tag_58\n      jump\t// in\n    tag_148:\n        /* \"#utility.yul\":7767:7838   */\n      tag_149\n        /* \"#utility.yul\":7831:7837   */\n      dup2\n        /* \"#utility.yul\":7826:7829   */\n      dup6\n        /* \"#utility.yul\":7767:7838   */\n      tag_59\n      jump\t// in\n    tag_149:\n        /* \"#utility.yul\":7760:7838   */\n      swap4\n      pop\n        /* \"#utility.yul\":7847:7899   */\n      tag_150\n        /* \"#utility.yul\":7892:7898   */\n      dup2\n        /* \"#utility.yul\":7887:7890   */\n      dup6\n        /* \"#utility.yul\":7880:7884   */\n      0x20\n        /* \"#utility.yul\":7873:7878   */\n      dup7\n        /* \"#utility.yul\":7869:7885   */\n      add\n        /* \"#utility.yul\":7847:7899   */\n      tag_60\n      jump\t// in\n    tag_150:\n        /* \"#utility.yul\":7924:7953   */\n      tag_151\n        /* \"#utility.yul\":7946:7952   */\n      dup2\n        /* \"#utility.yul\":7924:7953   */\n      tag_50\n      jump\t// in\n    tag_151:\n        /* \"#utility.yul\":7919:7922   */\n      dup5\n        /* \"#utility.yul\":7915:7954   */\n      add\n        /* \"#utility.yul\":7908:7954   */\n      swap2\n      pop\n        /* \"#utility.yul\":7688:7960   */\n      pop\n        /* \"#utility.yul\":7596:7960   */\n      swap3\n      swap2\n      pop\n      pop\n      jump\t// out\n        /* \"#utility.yul\":7966:8792   */\n    tag_29:\n        /* \"#utility.yul\":8203:8207   */\n      0x00\n        /* \"#utility.yul\":8241:8244   */\n      0x80\n        /* \"#utility.yul\":8230:8239   */\n      dup3\n        /* \"#utility.yul\":8226:8245   */\n      add\n        /* \"#utility.yul\":8218:8245   */\n      swap1\n      pop\n        /* \"#utility.yul\":8255:8326   */\n      tag_153\n        /* \"#utility.yul\":8323:8324   */\n      0x00\n        /* \"#utility.yul\":8312:8321   */\n      dup4\n        /* \"#utility.yul\":8308:8325   */\n      add\n        /* \"#utility.yul\":8299:8305   */\n      dup8\n        /* \"#utility.yul\":8255:8326   */\n      tag_40\n      jump\t// in\n    tag_153:\n        /* \"#utility.yul\":8373:8382   */\n      dup2\n        /* \"#utility.yul\":8367:8371   */\n      dup2\n        /* \"#utility.yul\":8363:8383   */\n      sub\n        /* \"#utility.yul\":8358:8360   */\n      0x20\n        /* \"#utility.yul\":8347:8356   */\n      dup4\n        /* \"#utility.yul\":8343:8361   */\n      add\n        /* \"#utility.yul\":8336:8384   */\n      mstore\n        /* \"#utility.yul\":8401:8479   */\n      tag_154\n        /* \"#utility.yul\":8474:8478   */\n      dup2\n        /* \"#utility.yul\":8465:8471   */\n      dup7\n        /* \"#utility.yul\":8401:8479   */\n      tag_61\n      jump\t// in\n    tag_154:\n        /* \"#utility.yul\":8393:8479   */\n      swap1\n      pop\n        /* \"#utility.yul\":8526:8535   */\n      dup2\n        /* \"#utility.yul\":8520:8524   */\n      dup2\n        /* \"#utility.yul\":8516:8536   */\n      sub\n        /* \"#utility.yul\":8511:8513   */\n      0x40\n        /* \"#utility.yul\":8500:8509   */\n      dup4\n        /* \"#utility.yul\":8496:8514   */\n      add\n        /* \"#utility.yul\":8489:8537   */\n      mstore\n        /* \"#utility.yul\":8554:8632   */\n      tag_155\n        /* \"#utility.yul\":8627:8631   */\n      dup2\n        /* \"#utility.yul\":8618:8624   */\n      dup6\n        /* \"#utility.yul\":8554:8632   */\n      tag_61\n      jump\t// in\n    tag_155:\n        /* \"#utility.yul\":8546:8632   */\n      swap1\n      pop\n        /* \"#utility.yul\":8679:8688   */\n      dup2\n        /* \"#utility.yul\":8673:8677   */\n      dup2\n        /* \"#utility.yul\":8669:8689   */\n      sub\n        /* \"#utility.yul\":8664:8666   */\n      0x60\n        /* \"#utility.yul\":8653:8662   */\n      dup4\n        /* \"#utility.yul\":8649:8667   */\n      add\n        /* \"#utility.yul\":8642:8690   */\n      mstore\n        /* \"#utility.yul\":8707:8785   */\n      tag_156\n        /* \"#utility.yul\":8780:8784   */\n      dup2\n        /* \"#utility.yul\":8771:8777   */\n      dup5\n        /* \"#utility.yul\":8707:8785   */\n      tag_61\n      jump\t// in\n    tag_156:\n        /* \"#utility.yul\":8699:8785   */\n      swap1\n      pop\n        /* \"#utility.yul\":7966:8792   */\n      swap6\n      swap5\n      pop\n      pop\n      pop\n      pop\n      pop\n      jump\t// out\n    stop\n\n    sub_0: assembly {\n            /* \"Story.sol\":857:8926  contract Story {... */\n          mstore(0x40, 0x80)\n            /* \"Story.sol\":1900:2246  constructor(address _mainAuthor, string memory _title, string memory _genre, string memory _mainIdea) {... */\n          callvalue\n          dup1\n          iszero\n          tag_1\n          jumpi\n          0x00\n          dup1\n          revert\n        tag_1:\n          pop\n          mload(0x40)\n          sub(codesize, bytecodeSize)\n          dup1\n          bytecodeSize\n          dup4\n          codecopy\n          dup2\n          dup2\n          add\n          0x40\n          mstore\n          dup2\n          add\n          swap1\n          tag_2\n          swap2\n          swap1\n          tag_3\n          jump\t// in\n        tag_2:\n            /* \"Story.sol\":2026:2037  _mainAuthor */\n          dup4\n            /* \"Story.sol\":2013:2023  mainAuthor */\n          0x00\n          dup1\n            /* \"Story.sol\":2013:2037  mainAuthor = _mainAuthor */\n          0x0100\n          exp\n          dup2\n          sload\n          dup2\n          0xffffffffffffffffffffffffffffffffffffffff\n          mul\n          not\n          and\n          swap1\n          dup4\n          0xffffffffffffffffffffffffffffffffffffffff\n          and\n          mul\n          or\n          swap1\n          sstore\n          pop\n            /* \"Story.sol\":2082:2086  true */\n          0x01\n            /* \"Story.sol\":2048:2066  authorsForSolidity */\n          0x04\n            /* \"Story.sol\":2048:2079  authorsForSolidity[_mainAuthor] */\n          0x00\n            /* \"Story.sol\":2067:2078  _mainAuthor */\n          dup7\n            /* \"Story.sol\":2048:2079  authorsForSolidity[_mainAuthor] */\n          0xffffffffffffffffffffffffffffffffffffffff\n          and\n          0xffffffffffffffffffffffffffffffffffffffff\n          and\n          dup2\n          mstore\n          0x20\n          add\n          swap1\n          dup2\n          mstore\n          0x20\n          add\n          0x00\n          keccak256\n          0x00\n            /* \"Story.sol\":2048:2086  authorsForSolidity[_mainAuthor] = true */\n          0x0100\n          exp\n          dup2\n          sload\n          dup2\n          0xff\n          mul\n          not\n          and\n          swap1\n          dup4\n          iszero\n          iszero\n          mul\n          or\n          swap1\n          sstore\n          pop\n            /* \"Story.sol\":2097:2112  authorsForReact */\n          0x05\n            /* \"Story.sol\":2118:2129  _mainAuthor */\n          dup5\n            /* \"Story.sol\":2097:2130  authorsForReact.push(_mainAuthor) */\n          swap1\n          dup1\n          0x01\n          dup2\n          sload\n          add\n          dup1\n          dup3\n          sstore\n          dup1\n          swap2\n          pop\n          pop\n          0x01\n          swap1\n          sub\n          swap1\n          0x00\n          mstore\n          keccak256(0x00, 0x20)\n          add\n          0x00\n          swap1\n          swap2\n          swap1\n          swap2\n          swap1\n          swap2\n          0x0100\n          exp\n          dup2\n          sload\n          dup2\n          0xffffffffffffffffffffffffffffffffffffffff\n          mul\n          not\n          and\n          swap1\n          dup4\n          0xffffffffffffffffffffffffffffffffffffffff\n          and\n          mul\n          or\n          swap1\n          sstore\n          pop\n            /* \"Story.sol\":2149:2155  _title */\n          dup3\n            /* \"Story.sol\":2141:2146  title */\n          0x01\n            /* \"Story.sol\":2141:2155  title = _title */\n          swap1\n          dup1\n          mload\n          swap1\n          0x20\n          add\n          swap1\n          tag_7\n          swap3\n          swap2\n          swap1\n          tag_8\n          jump\t// in\n        tag_7:\n          pop\n            /* \"Story.sol\":2174:2180  _genre */\n          dup2\n            /* \"Story.sol\":2166:2171  genre */\n          0x02\n            /* \"Story.sol\":2166:2180  genre = _genre */\n          swap1\n          dup1\n          mload\n          swap1\n          0x20\n          add\n          swap1\n          tag_9\n          swap3\n          swap2\n          swap1\n          tag_8\n          jump\t// in\n        tag_9:\n          pop\n            /* \"Story.sol\":2202:2211  _mainIdea */\n          dup1\n            /* \"Story.sol\":2191:2199  mainIdea */\n          0x03\n            /* \"Story.sol\":2191:2211  mainIdea = _mainIdea */\n          swap1\n          dup1\n          mload\n          swap1\n          0x20\n          add\n          swap1\n          tag_10\n          swap3\n          swap2\n          swap1\n          tag_8\n          jump\t// in\n        tag_10:\n          pop\n            /* \"Story.sol\":2233:2238  false */\n          0x00\n            /* \"Story.sol\":2222:2230  reported */\n          0x0b\n          0x00\n            /* \"Story.sol\":2222:2238  reported = false */\n          0x0100\n          exp\n          dup2\n          sload\n          dup2\n          0xff\n          mul\n          not\n          and\n          swap1\n          dup4\n          iszero\n          iszero\n          mul\n          or\n          swap1\n          sstore\n          pop\n            /* \"Story.sol\":1900:2246  constructor(address _mainAuthor, string memory _title, string memory _genre, string memory _mainIdea) {... */\n          pop\n          pop\n          pop\n          pop\n            /* \"Story.sol\":857:8926  contract Story {... */\n          jump(tag_11)\n        tag_8:\n          dup3\n          dup1\n          sload\n          tag_12\n          swap1\n          tag_13\n          jump\t// in\n        tag_12:\n          swap1\n          0x00\n          mstore\n          keccak256(0x00, 0x20)\n          swap1\n          0x1f\n          add\n          0x20\n          swap1\n          div\n          dup2\n          add\n          swap3\n          dup3\n          tag_15\n          jumpi\n          0x00\n          dup6\n          sstore\n          jump(tag_14)\n        tag_15:\n          dup3\n          0x1f\n          lt\n          tag_16\n          jumpi\n          dup1\n          mload\n          not(0xff)\n          and\n          dup4\n          dup1\n          add\n          or\n          dup6\n          sstore\n          jump(tag_14)\n        tag_16:\n          dup3\n          dup1\n          add\n          0x01\n          add\n          dup6\n          sstore\n          dup3\n          iszero\n          tag_14\n          jumpi\n          swap2\n          dup3\n          add\n        tag_17:\n          dup3\n          dup2\n          gt\n          iszero\n          tag_18\n          jumpi\n          dup3\n          mload\n          dup3\n          sstore\n          swap2\n          0x20\n          add\n          swap2\n          swap1\n          0x01\n          add\n          swap1\n          jump(tag_17)\n        tag_18:\n        tag_14:\n          pop\n          swap1\n          pop\n          tag_19\n          swap2\n          swap1\n          tag_20\n          jump\t// in\n        tag_19:\n          pop\n          swap1\n          jump\t// out\n        tag_20:\n        tag_21:\n          dup1\n          dup3\n          gt\n          iszero\n          tag_22\n          jumpi\n          0x00\n          dup2\n          0x00\n          swap1\n          sstore\n          pop\n          0x01\n          add\n          jump(tag_21)\n        tag_22:\n          pop\n          swap1\n          jump\t// out\n            /* \"#utility.yul\":7:82   */\n        tag_23:\n            /* \"#utility.yul\":40:46   */\n          0x00\n            /* \"#utility.yul\":73:75   */\n          0x40\n            /* \"#utility.yul\":67:76   */\n          mload\n            /* \"#utility.yul\":57:76   */\n          swap1\n          pop\n            /* \"#utility.yul\":7:82   */\n          swap1\n          jump\t// out\n            /* \"#utility.yul\":88:205   */\n        tag_24:\n            /* \"#utility.yul\":197:198   */\n          0x00\n            /* \"#utility.yul\":194:195   */\n          dup1\n            /* \"#utility.yul\":187:199   */\n          revert\n            /* \"#utility.yul\":211:328   */\n        tag_25:\n            /* \"#utility.yul\":320:321   */\n          0x00\n            /* \"#utility.yul\":317:318   */\n          dup1\n            /* \"#utility.yul\":310:322   */\n          revert\n            /* \"#utility.yul\":334:460   */\n        tag_26:\n            /* \"#utility.yul\":371:378   */\n          0x00\n            /* \"#utility.yul\":411:453   */\n          0xffffffffffffffffffffffffffffffffffffffff\n            /* \"#utility.yul\":404:409   */\n          dup3\n            /* \"#utility.yul\":400:454   */\n          and\n            /* \"#utility.yul\":389:454   */\n          swap1\n          pop\n            /* \"#utility.yul\":334:460   */\n          swap2\n          swap1\n          pop\n          jump\t// out\n            /* \"#utility.yul\":466:562   */\n        tag_27:\n            /* \"#utility.yul\":503:510   */\n          0x00\n            /* \"#utility.yul\":532:556   */\n          tag_47\n            /* \"#utility.yul\":550:555   */\n          dup3\n            /* \"#utility.yul\":532:556   */\n          tag_26\n          jump\t// in\n        tag_47:\n            /* \"#utility.yul\":521:556   */\n          swap1\n          pop\n            /* \"#utility.yul\":466:562   */\n          swap2\n          swap1\n          pop\n          jump\t// out\n            /* \"#utility.yul\":568:690   */\n        tag_28:\n            /* \"#utility.yul\":641:665   */\n          tag_49\n            /* \"#utility.yul\":659:664   */\n          dup2\n            /* \"#utility.yul\":641:665   */\n          tag_27\n          jump\t// in\n        tag_49:\n            /* \"#utility.yul\":634:639   */\n          dup2\n            /* \"#utility.yul\":631:666   */\n          eq\n            /* \"#utility.yul\":621:684   */\n          tag_50\n          jumpi\n            /* \"#utility.yul\":680:681   */\n          0x00\n            /* \"#utility.yul\":677:678   */\n          dup1\n            /* \"#utility.yul\":670:682   */\n          revert\n            /* \"#utility.yul\":621:684   */\n        tag_50:\n            /* \"#utility.yul\":568:690   */\n          pop\n          jump\t// out\n            /* \"#utility.yul\":696:839   */\n        tag_29:\n            /* \"#utility.yul\":753:758   */\n          0x00\n            /* \"#utility.yul\":784:790   */\n          dup2\n            /* \"#utility.yul\":778:791   */\n          mload\n            /* \"#utility.yul\":769:791   */\n          swap1\n          pop\n            /* \"#utility.yul\":800:833   */\n          tag_52\n            /* \"#utility.yul\":827:832   */\n          dup2\n            /* \"#utility.yul\":800:833   */\n          tag_28\n          jump\t// in\n        tag_52:\n            /* \"#utility.yul\":696:839   */\n          swap3\n          swap2\n          pop\n          pop\n          jump\t// out\n            /* \"#utility.yul\":845:962   */\n        tag_30:\n            /* \"#utility.yul\":954:955   */\n          0x00\n            /* \"#utility.yul\":951:952   */\n          dup1\n            /* \"#utility.yul\":944:956   */\n          revert\n            /* \"#utility.yul\":968:1085   */\n        tag_31:\n            /* \"#utility.yul\":1077:1078   */\n          0x00\n            /* \"#utility.yul\":1074:1075   */\n          dup1\n            /* \"#utility.yul\":1067:1079   */\n          revert\n            /* \"#utility.yul\":1091:1193   */\n        tag_32:\n            /* \"#utility.yul\":1132:1138   */\n          0x00\n            /* \"#utility.yul\":1183:1185   */\n          0x1f\n            /* \"#utility.yul\":1179:1186   */\n          not\n            /* \"#utility.yul\":1174:1176   */\n          0x1f\n            /* \"#utility.yul\":1167:1172   */\n          dup4\n            /* \"#utility.yul\":1163:1177   */\n          add\n            /* \"#utility.yul\":1159:1187   */\n          and\n            /* \"#utility.yul\":1149:1187   */\n          swap1\n          pop\n            /* \"#utility.yul\":1091:1193   */\n          swap2\n          swap1\n          pop\n          jump\t// out\n            /* \"#utility.yul\":1199:1379   */\n        tag_33:\n            /* \"#utility.yul\":1247:1324   */\n          0x4e487b7100000000000000000000000000000000000000000000000000000000\n            /* \"#utility.yul\":1244:1245   */\n          0x00\n            /* \"#utility.yul\":1237:1325   */\n          mstore\n            /* \"#utility.yul\":1344:1348   */\n          0x41\n            /* \"#utility.yul\":1341:1342   */\n          0x04\n            /* \"#utility.yul\":1334:1349   */\n          mstore\n            /* \"#utility.yul\":1368:1372   */\n          0x24\n            /* \"#utility.yul\":1365:1366   */\n          0x00\n            /* \"#utility.yul\":1358:1373   */\n          revert\n            /* \"#utility.yul\":1385:1666   */\n        tag_34:\n            /* \"#utility.yul\":1468:1495   */\n          tag_58\n            /* \"#utility.yul\":1490:1494   */\n          dup3\n            /* \"#utility.yul\":1468:1495   */\n          tag_32\n          jump\t// in\n        tag_58:\n            /* \"#utility.yul\":1460:1466   */\n          dup2\n            /* \"#utility.yul\":1456:1496   */\n          add\n            /* \"#utility.yul\":1598:1604   */\n          dup2\n            /* \"#utility.yul\":1586:1596   */\n          dup2\n            /* \"#utility.yul\":1583:1605   */\n          lt\n            /* \"#utility.yul\":1562:1580   */\n          0xffffffffffffffff\n            /* \"#utility.yul\":1550:1560   */\n          dup3\n            /* \"#utility.yul\":1547:1581   */\n          gt\n            /* \"#utility.yul\":1544:1606   */\n          or\n            /* \"#utility.yul\":1541:1629   */\n          iszero\n          tag_59\n          jumpi\n            /* \"#utility.yul\":1609:1627   */\n          tag_60\n          tag_33\n          jump\t// in\n        tag_60:\n            /* \"#utility.yul\":1541:1629   */\n        tag_59:\n            /* \"#utility.yul\":1649:1659   */\n          dup1\n            /* \"#utility.yul\":1645:1647   */\n          0x40\n            /* \"#utility.yul\":1638:1660   */\n          mstore\n            /* \"#utility.yul\":1428:1666   */\n          pop\n            /* \"#utility.yul\":1385:1666   */\n          pop\n          pop\n          jump\t// out\n            /* \"#utility.yul\":1672:1801   */\n        tag_35:\n            /* \"#utility.yul\":1706:1712   */\n          0x00\n            /* \"#utility.yul\":1733:1753   */\n          tag_62\n          tag_23\n          jump\t// in\n        tag_62:\n            /* \"#utility.yul\":1723:1753   */\n          swap1\n          pop\n            /* \"#utility.yul\":1762:1795   */\n          tag_63\n            /* \"#utility.yul\":1790:1794   */\n          dup3\n            /* \"#utility.yul\":1782:1788   */\n          dup3\n            /* \"#utility.yul\":1762:1795   */\n          tag_34\n          jump\t// in\n        tag_63:\n            /* \"#utility.yul\":1672:1801   */\n          swap2\n          swap1\n          pop\n          jump\t// out\n            /* \"#utility.yul\":1807:2115   */\n        tag_36:\n            /* \"#utility.yul\":1869:1873   */\n          0x00\n            /* \"#utility.yul\":1959:1977   */\n          0xffffffffffffffff\n            /* \"#utility.yul\":1951:1957   */\n          dup3\n            /* \"#utility.yul\":1948:1978   */\n          gt\n            /* \"#utility.yul\":1945:2001   */\n          iszero\n          tag_65\n          jumpi\n            /* \"#utility.yul\":1981:1999   */\n          tag_66\n          tag_33\n          jump\t// in\n        tag_66:\n            /* \"#utility.yul\":1945:2001   */\n        tag_65:\n            /* \"#utility.yul\":2019:2048   */\n          tag_67\n            /* \"#utility.yul\":2041:2047   */\n          dup3\n            /* \"#utility.yul\":2019:2048   */\n          tag_32\n          jump\t// in\n        tag_67:\n            /* \"#utility.yul\":2011:2048   */\n          swap1\n          pop\n            /* \"#utility.yul\":2103:2107   */\n          0x20\n            /* \"#utility.yul\":2097:2101   */\n          dup2\n            /* \"#utility.yul\":2093:2108   */\n          add\n            /* \"#utility.yul\":2085:2108   */\n          swap1\n          pop\n            /* \"#utility.yul\":1807:2115   */\n          swap2\n          swap1\n          pop\n          jump\t// out\n            /* \"#utility.yul\":2121:2428   */\n        tag_37:\n            /* \"#utility.yul\":2189:2190   */\n          0x00\n            /* \"#utility.yul\":2199:2312   */\n        tag_69:\n            /* \"#utility.yul\":2213:2219   */\n          dup4\n            /* \"#utility.yul\":2210:2211   */\n          dup2\n            /* \"#utility.yul\":2207:2220   */\n          lt\n            /* \"#utility.yul\":2199:2312   */\n          iszero\n          tag_71\n          jumpi\n            /* \"#utility.yul\":2298:2299   */\n          dup1\n            /* \"#utility.yul\":2293:2296   */\n          dup3\n            /* \"#utility.yul\":2289:2300   */\n          add\n            /* \"#utility.yul\":2283:2301   */\n          mload\n            /* \"#utility.yul\":2279:2280   */\n          dup2\n            /* \"#utility.yul\":2274:2277   */\n          dup5\n            /* \"#utility.yul\":2270:2281   */\n          add\n            /* \"#utility.yul\":2263:2302   */\n          mstore\n            /* \"#utility.yul\":2235:2237   */\n          0x20\n            /* \"#utility.yul\":2232:2233   */\n          dup2\n            /* \"#utility.yul\":2228:2238   */\n          add\n            /* \"#utility.yul\":2223:2238   */\n          swap1\n          pop\n            /* \"#utility.yul\":2199:2312   */\n          jump(tag_69)\n        tag_71:\n            /* \"#utility.yul\":2330:2336   */\n          dup4\n            /* \"#utility.yul\":2327:2328   */\n          dup2\n            /* \"#utility.yul\":2324:2337   */\n          gt\n            /* \"#utility.yul\":2321:2422   */\n          iszero\n          tag_72\n          jumpi\n            /* \"#utility.yul\":2410:2411   */\n          0x00\n            /* \"#utility.yul\":2401:2407   */\n          dup5\n            /* \"#utility.yul\":2396:2399   */\n          dup5\n            /* \"#utility.yul\":2392:2408   */\n          add\n            /* \"#utility.yul\":2385:2412   */\n          mstore\n            /* \"#utility.yul\":2321:2422   */\n        tag_72:\n            /* \"#utility.yul\":2170:2428   */\n          pop\n            /* \"#utility.yul\":2121:2428   */\n          pop\n          pop\n          pop\n          jump\t// out\n            /* \"#utility.yul\":2434:2855   */\n        tag_38:\n            /* \"#utility.yul\":2523:2528   */\n          0x00\n            /* \"#utility.yul\":2548:2614   */\n          tag_74\n            /* \"#utility.yul\":2564:2613   */\n          tag_75\n            /* \"#utility.yul\":2606:2612   */\n          dup5\n            /* \"#utility.yul\":2564:2613   */\n          tag_36\n          jump\t// in\n        tag_75:\n            /* \"#utility.yul\":2548:2614   */\n          tag_35\n          jump\t// in\n        tag_74:\n            /* \"#utility.yul\":2539:2614   */\n          swap1\n          pop\n            /* \"#utility.yul\":2637:2643   */\n          dup3\n            /* \"#utility.yul\":2630:2635   */\n          dup2\n            /* \"#utility.yul\":2623:2644   */\n          mstore\n            /* \"#utility.yul\":2675:2679   */\n          0x20\n            /* \"#utility.yul\":2668:2673   */\n          dup2\n            /* \"#utility.yul\":2664:2680   */\n          add\n            /* \"#utility.yul\":2713:2716   */\n          dup5\n            /* \"#utility.yul\":2704:2710   */\n          dup5\n            /* \"#utility.yul\":2699:2702   */\n          dup5\n            /* \"#utility.yul\":2695:2711   */\n          add\n            /* \"#utility.yul\":2692:2717   */\n          gt\n            /* \"#utility.yul\":2689:2801   */\n          iszero\n          tag_76\n          jumpi\n            /* \"#utility.yul\":2720:2799   */\n          tag_77\n          tag_31\n          jump\t// in\n        tag_77:\n            /* \"#utility.yul\":2689:2801   */\n        tag_76:\n            /* \"#utility.yul\":2810:2849   */\n          tag_78\n            /* \"#utility.yul\":2842:2848   */\n          dup5\n            /* \"#utility.yul\":2837:2840   */\n          dup3\n            /* \"#utility.yul\":2832:2835   */\n          dup6\n            /* \"#utility.yul\":2810:2849   */\n          tag_37\n          jump\t// in\n        tag_78:\n            /* \"#utility.yul\":2529:2855   */\n          pop\n            /* \"#utility.yul\":2434:2855   */\n          swap4\n          swap3\n          pop\n          pop\n          pop\n          jump\t// out\n            /* \"#utility.yul\":2875:3230   */\n        tag_39:\n            /* \"#utility.yul\":2942:2947   */\n          0x00\n            /* \"#utility.yul\":2991:2994   */\n          dup3\n            /* \"#utility.yul\":2984:2988   */\n          0x1f\n            /* \"#utility.yul\":2976:2982   */\n          dup4\n            /* \"#utility.yul\":2972:2989   */\n          add\n            /* \"#utility.yul\":2968:2995   */\n          slt\n            /* \"#utility.yul\":2958:3080   */\n          tag_80\n          jumpi\n            /* \"#utility.yul\":2999:3078   */\n          tag_81\n          tag_30\n          jump\t// in\n        tag_81:\n            /* \"#utility.yul\":2958:3080   */\n        tag_80:\n            /* \"#utility.yul\":3109:3115   */\n          dup2\n            /* \"#utility.yul\":3103:3116   */\n          mload\n            /* \"#utility.yul\":3134:3224   */\n          tag_82\n            /* \"#utility.yul\":3220:3223   */\n          dup5\n            /* \"#utility.yul\":3212:3218   */\n          dup3\n            /* \"#utility.yul\":3205:3209   */\n          0x20\n            /* \"#utility.yul\":3197:3203   */\n          dup7\n            /* \"#utility.yul\":3193:3210   */\n          add\n            /* \"#utility.yul\":3134:3224   */\n          tag_38\n          jump\t// in\n        tag_82:\n            /* \"#utility.yul\":3125:3224   */\n          swap2\n          pop\n            /* \"#utility.yul\":2948:3230   */\n          pop\n            /* \"#utility.yul\":2875:3230   */\n          swap3\n          swap2\n          pop\n          pop\n          jump\t// out\n            /* \"#utility.yul\":3236:4575   */\n        tag_3:\n            /* \"#utility.yul\":3363:3369   */\n          0x00\n            /* \"#utility.yul\":3371:3377   */\n          dup1\n            /* \"#utility.yul\":3379:3385   */\n          0x00\n            /* \"#utility.yul\":3387:3393   */\n          dup1\n            /* \"#utility.yul\":3436:3439   */\n          0x80\n            /* \"#utility.yul\":3424:3433   */\n          dup6\n            /* \"#utility.yul\":3415:3422   */\n          dup8\n            /* \"#utility.yul\":3411:3434   */\n          sub\n            /* \"#utility.yul\":3407:3440   */\n          slt\n            /* \"#utility.yul\":3404:3524   */\n          iszero\n          tag_84\n          jumpi\n            /* \"#utility.yul\":3443:3522   */\n          tag_85\n          tag_24\n          jump\t// in\n        tag_85:\n            /* \"#utility.yul\":3404:3524   */\n        tag_84:\n            /* \"#utility.yul\":3563:3564   */\n          0x00\n            /* \"#utility.yul\":3588:3652   */\n          tag_86\n            /* \"#utility.yul\":3644:3651   */\n          dup8\n            /* \"#utility.yul\":3635:3641   */\n          dup3\n            /* \"#utility.yul\":3624:3633   */\n          dup9\n            /* \"#utility.yul\":3620:3642   */\n          add\n            /* \"#utility.yul\":3588:3652   */\n          tag_29\n          jump\t// in\n        tag_86:\n            /* \"#utility.yul\":3578:3652   */\n          swap5\n          pop\n            /* \"#utility.yul\":3534:3662   */\n          pop\n            /* \"#utility.yul\":3722:3724   */\n          0x20\n            /* \"#utility.yul\":3711:3720   */\n          dup6\n            /* \"#utility.yul\":3707:3725   */\n          add\n            /* \"#utility.yul\":3701:3726   */\n          mload\n            /* \"#utility.yul\":3753:3771   */\n          0xffffffffffffffff\n            /* \"#utility.yul\":3745:3751   */\n          dup2\n            /* \"#utility.yul\":3742:3772   */\n          gt\n            /* \"#utility.yul\":3739:3856   */\n          iszero\n          tag_87\n          jumpi\n            /* \"#utility.yul\":3775:3854   */\n          tag_88\n          tag_25\n          jump\t// in\n        tag_88:\n            /* \"#utility.yul\":3739:3856   */\n        tag_87:\n            /* \"#utility.yul\":3880:3954   */\n          tag_89\n            /* \"#utility.yul\":3946:3953   */\n          dup8\n            /* \"#utility.yul\":3937:3943   */\n          dup3\n            /* \"#utility.yul\":3926:3935   */\n          dup9\n            /* \"#utility.yul\":3922:3944   */\n          add\n            /* \"#utility.yul\":3880:3954   */\n          tag_39\n          jump\t// in\n        tag_89:\n            /* \"#utility.yul\":3870:3954   */\n          swap4\n          pop\n            /* \"#utility.yul\":3672:3964   */\n          pop\n            /* \"#utility.yul\":4024:4026   */\n          0x40\n            /* \"#utility.yul\":4013:4022   */\n          dup6\n            /* \"#utility.yul\":4009:4027   */\n          add\n            /* \"#utility.yul\":4003:4028   */\n          mload\n            /* \"#utility.yul\":4055:4073   */\n          0xffffffffffffffff\n            /* \"#utility.yul\":4047:4053   */\n          dup2\n            /* \"#utility.yul\":4044:4074   */\n          gt\n            /* \"#utility.yul\":4041:4158   */\n          iszero\n          tag_90\n          jumpi\n            /* \"#utility.yul\":4077:4156   */\n          tag_91\n          tag_25\n          jump\t// in\n        tag_91:\n            /* \"#utility.yul\":4041:4158   */\n        tag_90:\n            /* \"#utility.yul\":4182:4256   */\n          tag_92\n            /* \"#utility.yul\":4248:4255   */\n          dup8\n            /* \"#utility.yul\":4239:4245   */\n          dup3\n            /* \"#utility.yul\":4228:4237   */\n          dup9\n            /* \"#utility.yul\":4224:4246   */\n          add\n            /* \"#utility.yul\":4182:4256   */\n          tag_39\n          jump\t// in\n        tag_92:\n            /* \"#utility.yul\":4172:4256   */\n          swap3\n          pop\n            /* \"#utility.yul\":3974:4266   */\n          pop\n            /* \"#utility.yul\":4326:4328   */\n          0x60\n            /* \"#utility.yul\":4315:4324   */\n          dup6\n            /* \"#utility.yul\":4311:4329   */\n          add\n            /* \"#utility.yul\":4305:4330   */\n          mload\n            /* \"#utility.yul\":4357:4375   */\n          0xffffffffffffffff\n            /* \"#utility.yul\":4349:4355   */\n          dup2\n            /* \"#utility.yul\":4346:4376   */\n          gt\n            /* \"#utility.yul\":4343:4460   */\n          iszero\n          tag_93\n          jumpi\n            /* \"#utility.yul\":4379:4458   */\n          tag_94\n          tag_25\n          jump\t// in\n        tag_94:\n            /* \"#utility.yul\":4343:4460   */\n        tag_93:\n            /* \"#utility.yul\":4484:4558   */\n          tag_95\n            /* \"#utility.yul\":4550:4557   */\n          dup8\n            /* \"#utility.yul\":4541:4547   */\n          dup3\n            /* \"#utility.yul\":4530:4539   */\n          dup9\n            /* \"#utility.yul\":4526:4548   */\n          add\n            /* \"#utility.yul\":4484:4558   */\n          tag_39\n          jump\t// in\n        tag_95:\n            /* \"#utility.yul\":4474:4558   */\n          swap2\n          pop\n            /* \"#utility.yul\":4276:4568   */\n          pop\n            /* \"#utility.yul\":3236:4575   */\n          swap3\n          swap6\n          swap2\n          swap5\n          pop\n          swap3\n          pop\n          jump\t// out\n            /* \"#utility.yul\":4581:4761   */\n        tag_40:\n            /* \"#utility.yul\":4629:4706   */\n          0x4e487b7100000000000000000000000000000000000000000000000000000000\n            /* \"#utility.yul\":4626:4627   */\n          0x00\n            /* \"#utility.yul\":4619:4707   */\n          mstore\n            /* \"#utility.yul\":4726:4730   */\n          0x22\n            /* \"#utility.yul\":4723:4724   */\n          0x04\n            /* \"#utility.yul\":4716:4731   */\n          mstore\n            /* \"#utility.yul\":4750:4754   */\n          0x24\n            /* \"#utility.yul\":4747:4748   */\n          0x00\n            /* \"#utility.yul\":4740:4755   */\n          revert\n            /* \"#utility.yul\":4767:5087   */\n        tag_13:\n            /* \"#utility.yul\":4811:4817   */\n          0x00\n            /* \"#utility.yul\":4848:4849   */\n          0x02\n            /* \"#utility.yul\":4842:4846   */\n          dup3\n            /* \"#utility.yul\":4838:4850   */\n          div\n            /* \"#utility.yul\":4828:4850   */\n          swap1\n          pop\n            /* \"#utility.yul\":4895:4896   */\n          0x01\n            /* \"#utility.yul\":4889:4893   */\n          dup3\n            /* \"#utility.yul\":4885:4897   */\n          and\n            /* \"#utility.yul\":4916:4934   */\n          dup1\n            /* \"#utility.yul\":4906:4987   */\n          tag_98\n          jumpi\n            /* \"#utility.yul\":4972:4976   */\n          0x7f\n            /* \"#utility.yul\":4964:4970   */\n          dup3\n            /* \"#utility.yul\":4960:4977   */\n          and\n            /* \"#utility.yul\":4950:4977   */\n          swap2\n          pop\n            /* \"#utility.yul\":4906:4987   */\n        tag_98:\n            /* \"#utility.yul\":5034:5036   */\n          0x20\n            /* \"#utility.yul\":5026:5032   */\n          dup3\n            /* \"#utility.yul\":5023:5037   */\n          lt\n            /* \"#utility.yul\":5003:5021   */\n          dup2\n            /* \"#utility.yul\":5000:5038   */\n          eq\n            /* \"#utility.yul\":4997:5081   */\n          iszero\n          tag_99\n          jumpi\n            /* \"#utility.yul\":5053:5071   */\n          tag_100\n          tag_40\n          jump\t// in\n        tag_100:\n            /* \"#utility.yul\":4997:5081   */\n        tag_99:\n            /* \"#utility.yul\":4818:5087   */\n          pop\n            /* \"#utility.yul\":4767:5087   */\n          swap2\n          swap1\n          pop\n          jump\t// out\n            /* \"Story.sol\":857:8926  contract Story {... */\n        tag_11:\n          dataSize(sub_0)\n          dup1\n          dataOffset(sub_0)\n          0x00\n          codecopy\n          0x00\n          return\n        stop\n\n        sub_0: assembly {\n                /* \"Story.sol\":857:8926  contract Story {... */\n              mstore(0x40, 0x80)\n              jumpi(tag_1, lt(calldatasize, 0x04))\n              shr(0xe0, calldataload(0x00))\n              dup1\n              0x7f51aaf9\n              gt\n              tag_19\n              jumpi\n              dup1\n              0xb5202522\n              gt\n              tag_20\n              jumpi\n              dup1\n              0xb5202522\n              eq\n              tag_14\n              jumpi\n              dup1\n              0xcfb65804\n              eq\n              tag_15\n              jumpi\n              dup1\n              0xd7bb99ba\n              eq\n              tag_16\n              jumpi\n              dup1\n              0xdfa14e23\n              eq\n              tag_17\n              jumpi\n              dup1\n              0xed5447f5\n              eq\n              tag_18\n              jumpi\n              jump(tag_1)\n            tag_20:\n              dup1\n              0x7f51aaf9\n              eq\n              tag_10\n              jumpi\n              dup1\n              0x98b79628\n              eq\n              tag_11\n              jumpi\n              dup1\n              0x9c636a0f\n              eq\n              tag_12\n              jumpi\n              dup1\n              0x9d3ed807\n              eq\n              tag_13\n              jumpi\n              jump(tag_1)\n            tag_19:\n              dup1\n              0x4051ddac\n              gt\n              tag_21\n              jumpi\n              dup1\n              0x4051ddac\n              eq\n              tag_6\n              jumpi\n              dup1\n              0x5cf298fb\n              eq\n              tag_7\n              jumpi\n              dup1\n              0x5d1a870a\n              eq\n              tag_8\n              jumpi\n              dup1\n              0x6fc6c579\n              eq\n              tag_9\n              jumpi\n              jump(tag_1)\n            tag_21:\n              dup1\n              0x2606a10b\n              eq\n              tag_2\n              jumpi\n              dup1\n              0x29224406\n              eq\n              tag_3\n              jumpi\n              dup1\n              0x3b6246c2\n              eq\n              tag_4\n              jumpi\n              dup1\n              0x3e5690f4\n              eq\n              tag_5\n              jumpi\n            tag_1:\n              0x00\n              dup1\n              revert\n                /* \"Story.sol\":6753:7107  function report() public noReentrancy{... */\n            tag_2:\n              callvalue\n              dup1\n              iszero\n              tag_22\n              jumpi\n              0x00\n              dup1\n              revert\n            tag_22:\n              pop\n              tag_23\n              tag_24\n              jump\t// in\n            tag_23:\n              stop\n                /* \"Story.sol\":4736:6071  function approveChapterRequest(uint _index) public noReentrancy{... */\n            tag_3:\n              callvalue\n              dup1\n              iszero\n              tag_25\n              jumpi\n              0x00\n              dup1\n              revert\n            tag_25:\n              pop\n              tag_26\n              0x04\n              dup1\n              calldatasize\n              sub\n              dup2\n              add\n              swap1\n              tag_27\n              swap2\n              swap1\n              tag_28\n              jump\t// in\n            tag_27:\n              tag_29\n              jump\t// in\n            tag_26:\n              stop\n                /* \"Story.sol\":6270:6743  function dispenseRewards() public {... */\n            tag_4:\n              callvalue\n              dup1\n              iszero\n              tag_30\n              jumpi\n              0x00\n              dup1\n              revert\n            tag_30:\n              pop\n              tag_31\n              tag_32\n              jump\t// in\n            tag_31:\n              stop\n                /* \"Story.sol\":999:1049  mapping(address => bool) public authorsForSolidity */\n            tag_5:\n              callvalue\n              dup1\n              iszero\n              tag_33\n              jumpi\n              0x00\n              dup1\n              revert\n            tag_33:\n              pop\n              tag_34\n              0x04\n              dup1\n              calldatasize\n              sub\n              dup2\n              add\n              swap1\n              tag_35\n              swap2\n              swap1\n              tag_36\n              jump\t// in\n            tag_35:\n              tag_37\n              jump\t// in\n            tag_34:\n              mload(0x40)\n              tag_38\n              swap2\n              swap1\n              tag_39\n              jump\t// in\n            tag_38:\n              mload(0x40)\n              dup1\n              swap2\n              sub\n              swap1\n              return\n                /* \"Story.sol\":7239:7761  function getSummary() public view returns (... */\n            tag_6:\n              callvalue\n              dup1\n              iszero\n              tag_40\n              jumpi\n              0x00\n              dup1\n              revert\n            tag_40:\n              pop\n              tag_41\n              tag_42\n              jump\t// in\n            tag_41:\n              mload(0x40)\n              tag_43\n              swap12\n              swap11\n              swap10\n              swap9\n              swap8\n              swap7\n              swap6\n              swap5\n              swap4\n              swap3\n              swap2\n              swap1\n              tag_44\n              jump\t// in\n            tag_43:\n              mload(0x40)\n              dup1\n              swap2\n              sub\n              swap1\n              return\n                /* \"Story.sol\":7769:7871  function isAuthor() public view returns (bool){... */\n            tag_7:\n              callvalue\n              dup1\n              iszero\n              tag_45\n              jumpi\n              0x00\n              dup1\n              revert\n            tag_45:\n              pop\n              tag_46\n              tag_47\n              jump\t// in\n            tag_46:\n              mload(0x40)\n              tag_48\n              swap2\n              swap1\n              tag_39\n              jump\t// in\n            tag_48:\n              mload(0x40)\n              dup1\n              swap2\n              sub\n              swap1\n              return\n                /* \"Story.sol\":1287:1307  bool public reported */\n            tag_8:\n              callvalue\n              dup1\n              iszero\n              tag_49\n              jumpi\n              0x00\n              dup1\n              revert\n            tag_49:\n              pop\n              tag_50\n              tag_51\n              jump\t// in\n            tag_50:\n              mload(0x40)\n              tag_52\n              swap2\n              swap1\n              tag_39\n              jump\t// in\n            tag_52:\n              mload(0x40)\n              dup1\n              swap2\n              sub\n              swap1\n              return\n                /* \"Story.sol\":1529:1566  RequestToJoin[] public requestsToJoin */\n            tag_9:\n              callvalue\n              dup1\n              iszero\n              tag_53\n              jumpi\n              0x00\n              dup1\n              revert\n            tag_53:\n              pop\n              tag_54\n              0x04\n              dup1\n              calldatasize\n              sub\n              dup2\n              add\n              swap1\n              tag_55\n              swap2\n              swap1\n              tag_28\n              jump\t// in\n            tag_55:\n              tag_56\n              jump\t// in\n            tag_54:\n              mload(0x40)\n              tag_57\n              swap6\n              swap5\n              swap4\n              swap3\n              swap2\n              swap1\n              tag_58\n              jump\t// in\n            tag_57:\n              mload(0x40)\n              dup1\n              swap2\n              sub\n              swap1\n              return\n                /* \"Story.sol\":1095:1146  mapping(address => bool) public chaptersForSolidity */\n            tag_10:\n              callvalue\n              dup1\n              iszero\n              tag_59\n              jumpi\n              0x00\n              dup1\n              revert\n            tag_59:\n              pop\n              tag_60\n              0x04\n              dup1\n              calldatasize\n              sub\n              dup2\n              add\n              swap1\n              tag_61\n              swap2\n              swap1\n              tag_36\n              jump\t// in\n            tag_61:\n              tag_62\n              jump\t// in\n            tag_60:\n              mload(0x40)\n              tag_63\n              swap2\n              swap1\n              tag_39\n              jump\t// in\n            tag_63:\n              mload(0x40)\n              dup1\n              swap2\n              sub\n              swap1\n              return\n                /* \"Story.sol\":2766:3683  function approveRequestToJoin(uint256 _index) public {... */\n            tag_11:\n              callvalue\n              dup1\n              iszero\n              tag_64\n              jumpi\n              0x00\n              dup1\n              revert\n            tag_64:\n              pop\n              tag_65\n              0x04\n              dup1\n              calldatasize\n              sub\n              dup2\n              add\n              swap1\n              tag_66\n              swap2\n              swap1\n              tag_28\n              jump\t// in\n            tag_66:\n              tag_67\n              jump\t// in\n            tag_65:\n              stop\n                /* \"Story.sol\":7121:7225  function getChapters() public view returns (address[] memory) {... */\n            tag_12:\n              callvalue\n              dup1\n              iszero\n              tag_68\n              jumpi\n              0x00\n              dup1\n              revert\n            tag_68:\n              pop\n              tag_69\n              tag_70\n              jump\t// in\n            tag_69:\n              mload(0x40)\n              tag_71\n              swap2\n              swap1\n              tag_72\n              jump\t// in\n            tag_71:\n              mload(0x40)\n              dup1\n              swap2\n              sub\n              swap1\n              return\n                /* \"Story.sol\":1056:1088  address[] public authorsForReact */\n            tag_13:\n              callvalue\n              dup1\n              iszero\n              tag_73\n              jumpi\n              0x00\n              dup1\n              revert\n            tag_73:\n              pop\n              tag_74\n              0x04\n              dup1\n              calldatasize\n              sub\n              dup2\n              add\n              swap1\n              tag_75\n              swap2\n              swap1\n              tag_28\n              jump\t// in\n            tag_75:\n              tag_76\n              jump\t// in\n            tag_74:\n              mload(0x40)\n              tag_77\n              swap2\n              swap1\n              tag_78\n              jump\t// in\n            tag_77:\n              mload(0x40)\n              dup1\n              swap2\n              sub\n              swap1\n              return\n                /* \"Story.sol\":1153:1186  address[] public chaptersForReact */\n            tag_14:\n              callvalue\n              dup1\n              iszero\n              tag_79\n              jumpi\n              0x00\n              dup1\n              revert\n            tag_79:\n              pop\n              tag_80\n              0x04\n              dup1\n              calldatasize\n              sub\n              dup2\n              add\n              swap1\n              tag_81\n              swap2\n              swap1\n              tag_28\n              jump\t// in\n            tag_81:\n              tag_82\n              jump\t// in\n            tag_80:\n              mload(0x40)\n              tag_83\n              swap2\n              swap1\n              tag_78\n              jump\t// in\n            tag_83:\n              mload(0x40)\n              dup1\n              swap2\n              sub\n              swap1\n              return\n                /* \"Story.sol\":3691:4728  function createChapterRequest(string memory _ipfsHash, address _parentChapter, address _childChapter) public noReentrancy{... */\n            tag_15:\n              callvalue\n              dup1\n              iszero\n              tag_84\n              jumpi\n              0x00\n              dup1\n              revert\n            tag_84:\n              pop\n              tag_85\n              0x04\n              dup1\n              calldatasize\n              sub\n              dup2\n              add\n              swap1\n              tag_86\n              swap2\n              swap1\n              tag_87\n              jump\t// in\n            tag_86:\n              tag_88\n              jump\t// in\n            tag_85:\n              stop\n                /* \"Story.sol\":6079:6262  function contribute() public payable noReentrancy{... */\n            tag_16:\n              tag_89\n              tag_90\n              jump\t// in\n            tag_89:\n              stop\n                /* \"Story.sol\":2254:2758  function createRequestToJoin(string memory _proposal) public {... */\n            tag_17:\n              callvalue\n              dup1\n              iszero\n              tag_91\n              jumpi\n              0x00\n              dup1\n              revert\n            tag_91:\n              pop\n              tag_92\n              0x04\n              dup1\n              calldatasize\n              sub\n              dup2\n              add\n              swap1\n              tag_93\n              swap2\n              swap1\n              tag_94\n              jump\t// in\n            tag_93:\n              tag_95\n              jump\t// in\n            tag_92:\n              stop\n                /* \"Story.sol\":1852:1891  ChapterRequest[] public chapterRequests */\n            tag_18:\n              callvalue\n              dup1\n              iszero\n              tag_96\n              jumpi\n              0x00\n              dup1\n              revert\n            tag_96:\n              pop\n              tag_97\n              0x04\n              dup1\n              calldatasize\n              sub\n              dup2\n              add\n              swap1\n              tag_98\n              swap2\n              swap1\n              tag_28\n              jump\t// in\n            tag_98:\n              tag_99\n              jump\t// in\n            tag_97:\n              mload(0x40)\n              tag_100\n              swap8\n              swap7\n              swap6\n              swap5\n              swap4\n              swap3\n              swap2\n              swap1\n              tag_101\n              jump\t// in\n            tag_100:\n              mload(0x40)\n              dup1\n              swap2\n              sub\n              swap1\n              return\n                /* \"Story.sol\":6753:7107  function report() public noReentrancy{... */\n            tag_24:\n                /* \"Story.sol\":8826:8833  _locked */\n              0x08\n              0x00\n              swap1\n              sload\n              swap1\n              0x0100\n              exp\n              swap1\n              div\n              0xff\n              and\n                /* \"Story.sol\":8825:8833  !_locked */\n              iszero\n                /* \"Story.sol\":8817:8852  require(!_locked, \"Reentrant call\") */\n              tag_103\n              jumpi\n              mload(0x40)\n              0x08c379a000000000000000000000000000000000000000000000000000000000\n              dup2\n              mstore\n              0x04\n              add\n              tag_104\n              swap1\n              tag_105\n              jump\t// in\n            tag_104:\n              mload(0x40)\n              dup1\n              swap2\n              sub\n              swap1\n              revert\n            tag_103:\n                /* \"Story.sol\":8873:8877  true */\n              0x01\n                /* \"Story.sol\":8863:8870  _locked */\n              0x08\n              0x00\n                /* \"Story.sol\":8863:8877  _locked = true */\n              0x0100\n              exp\n              dup2\n              sload\n              dup2\n              0xff\n              mul\n              not\n              and\n              swap1\n              dup4\n              iszero\n              iszero\n              mul\n              or\n              swap1\n              sstore\n              pop\n                /* \"Story.sol\":6810:6818  reported */\n              0x0b\n              0x00\n              swap1\n              sload\n              swap1\n              0x0100\n              exp\n              swap1\n              div\n              0xff\n              and\n                /* \"Story.sol\":6809:6818  !reported */\n              iszero\n                /* \"Story.sol\":6801:6851  require(!reported, \"This story has been reported\") */\n              tag_107\n              jumpi\n              mload(0x40)\n              0x08c379a000000000000000000000000000000000000000000000000000000000\n              dup2\n              mstore\n              0x04\n              add\n              tag_108\n              swap1\n              tag_109\n              jump\t// in\n            tag_108:\n              mload(0x40)\n              dup1\n              swap2\n              sub\n              swap1\n              revert\n            tag_107:\n                /* \"Story.sol\":6871:6880  reporters */\n              0x09\n                /* \"Story.sol\":6871:6892  reporters[msg.sender] */\n              0x00\n                /* \"Story.sol\":6881:6891  msg.sender */\n              caller\n                /* \"Story.sol\":6871:6892  reporters[msg.sender] */\n              0xffffffffffffffffffffffffffffffffffffffff\n              and\n              0xffffffffffffffffffffffffffffffffffffffff\n              and\n              dup2\n              mstore\n              0x20\n              add\n              swap1\n              dup2\n              mstore\n              0x20\n              add\n              0x00\n              keccak256\n              0x00\n              swap1\n              sload\n              swap1\n              0x0100\n              exp\n              swap1\n              div\n              0xff\n              and\n                /* \"Story.sol\":6870:6892  !reporters[msg.sender] */\n              iszero\n                /* \"Story.sol\":6862:6931  require(!reporters[msg.sender],\"You have reported this story before\") */\n              tag_110\n              jumpi\n              mload(0x40)\n              0x08c379a000000000000000000000000000000000000000000000000000000000\n              dup2\n              mstore\n              0x04\n              add\n              tag_111\n              swap1\n              tag_112\n              jump\t// in\n            tag_111:\n              mload(0x40)\n              dup1\n              swap2\n              sub\n              swap1\n              revert\n            tag_110:\n                /* \"Story.sol\":6942:6963  reportersCount.add(1) */\n              tag_113\n                /* \"Story.sol\":6961:6962  1 */\n              0x01\n                /* \"Story.sol\":6942:6956  reportersCount */\n              sload(0x0a)\n                /* \"Story.sol\":6942:6960  reportersCount.add */\n              tag_114\n              swap1\n                /* \"Story.sol\":6942:6963  reportersCount.add(1) */\n              swap2\n              swap1\n              0xffffffff\n              and\n              jump\t// in\n            tag_113:\n              pop\n                /* \"Story.sol\":6998:7002  true */\n              0x01\n                /* \"Story.sol\":6974:6983  reporters */\n              0x09\n                /* \"Story.sol\":6974:6995  reporters[msg.sender] */\n              0x00\n                /* \"Story.sol\":6984:6994  msg.sender */\n              caller\n                /* \"Story.sol\":6974:6995  reporters[msg.sender] */\n              0xffffffffffffffffffffffffffffffffffffffff\n              and\n              0xffffffffffffffffffffffffffffffffffffffff\n              and\n              dup2\n              mstore\n              0x20\n              add\n              swap1\n              dup2\n              mstore\n              0x20\n              add\n              0x00\n              keccak256\n              0x00\n                /* \"Story.sol\":6974:7002  reporters[msg.sender] = true */\n              0x0100\n              exp\n              dup2\n              sload\n              dup2\n              0xff\n              mul\n              not\n              and\n              swap1\n              dup4\n              iszero\n              iszero\n              mul\n              or\n              swap1\n              sstore\n              pop\n                /* \"Story.sol\":7035:7038  100 */\n              0x64\n                /* \"Story.sol\":7018:7032  reportersCount */\n              sload(0x0a)\n                /* \"Story.sol\":7018:7038  reportersCount > 100 */\n              gt\n                /* \"Story.sol\":7015:7100  if(reportersCount > 100){ //arbitrary number... */\n              iszero\n              tag_115\n              jumpi\n                /* \"Story.sol\":7084:7088  true */\n              0x01\n                /* \"Story.sol\":7073:7081  reported */\n              0x0b\n              0x00\n                /* \"Story.sol\":7073:7088  reported = true */\n              0x0100\n              exp\n              dup2\n              sload\n              dup2\n              0xff\n              mul\n              not\n              and\n              swap1\n              dup4\n              iszero\n              iszero\n              mul\n              or\n              swap1\n              sstore\n              pop\n                /* \"Story.sol\":7015:7100  if(reportersCount > 100){ //arbitrary number... */\n            tag_115:\n                /* \"Story.sol\":8910:8915  false */\n              0x00\n                /* \"Story.sol\":8900:8907  _locked */\n              0x08\n              0x00\n                /* \"Story.sol\":8900:8915  _locked = false */\n              0x0100\n              exp\n              dup2\n              sload\n              dup2\n              0xff\n              mul\n              not\n              and\n              swap1\n              dup4\n              iszero\n              iszero\n              mul\n              or\n              swap1\n              sstore\n              pop\n                /* \"Story.sol\":6753:7107  function report() public noReentrancy{... */\n              jump\t// out\n                /* \"Story.sol\":4736:6071  function approveChapterRequest(uint _index) public noReentrancy{... */\n            tag_29:\n                /* \"Story.sol\":8826:8833  _locked */\n              0x08\n              0x00\n              swap1\n              sload\n              swap1\n              0x0100\n              exp\n              swap1\n              div\n              0xff\n              and\n                /* \"Story.sol\":8825:8833  !_locked */\n              iszero\n                /* \"Story.sol\":8817:8852  require(!_locked, \"Reentrant call\") */\n              tag_117\n              jumpi\n              mload(0x40)\n              0x08c379a000000000000000000000000000000000000000000000000000000000\n              dup2\n              mstore\n              0x04\n              add\n              tag_118\n              swap1\n              tag_105\n              jump\t// in\n            tag_118:\n              mload(0x40)\n              dup1\n              swap2\n              sub\n              swap1\n              revert\n            tag_117:\n                /* \"Story.sol\":8873:8877  true */\n              0x01\n                /* \"Story.sol\":8863:8870  _locked */\n              0x08\n              0x00\n                /* \"Story.sol\":8863:8877  _locked = true */\n              0x0100\n              exp\n              dup2\n              sload\n              dup2\n              0xff\n              mul\n              not\n              and\n              swap1\n              dup4\n              iszero\n              iszero\n              mul\n              or\n              swap1\n              sstore\n              pop\n                /* \"Story.sol\":4819:4827  reported */\n              0x0b\n              0x00\n              swap1\n              sload\n              swap1\n              0x0100\n              exp\n              swap1\n              div\n              0xff\n              and\n                /* \"Story.sol\":4818:4827  !reported */\n              iszero\n                /* \"Story.sol\":4810:4860  require(!reported, \"This story has been reported\") */\n              tag_120\n              jumpi\n              mload(0x40)\n              0x08c379a000000000000000000000000000000000000000000000000000000000\n              dup2\n              mstore\n              0x04\n              add\n              tag_121\n              swap1\n              tag_109\n              jump\t// in\n            tag_121:\n              mload(0x40)\n              dup1\n              swap2\n              sub\n              swap1\n              revert\n            tag_120:\n                /* \"Story.sol\":4879:4897  authorsForSolidity */\n              0x04\n                /* \"Story.sol\":4879:4909  authorsForSolidity[msg.sender] */\n              0x00\n                /* \"Story.sol\":4898:4908  msg.sender */\n              caller\n                /* \"Story.sol\":4879:4909  authorsForSolidity[msg.sender] */\n              0xffffffffffffffffffffffffffffffffffffffff\n              and\n              0xffffffffffffffffffffffffffffffffffffffff\n              and\n              dup2\n              mstore\n              0x20\n              add\n              swap1\n              dup2\n              mstore\n              0x20\n              add\n              0x00\n              keccak256\n              0x00\n              swap1\n              sload\n              swap1\n              0x0100\n              exp\n              swap1\n              div\n              0xff\n              and\n                /* \"Story.sol\":4871:4959  require(authorsForSolidity[msg.sender], \"Only an accepted author can approve a request\") */\n              tag_122\n              jumpi\n              mload(0x40)\n              0x08c379a000000000000000000000000000000000000000000000000000000000\n              dup2\n              mstore\n              0x04\n              add\n              tag_123\n              swap1\n              tag_124\n              jump\t// in\n            tag_123:\n              mload(0x40)\n              dup1\n              swap2\n              sub\n              swap1\n              revert\n            tag_122:\n                /* \"Story.sol\":4987:5002  chapterRequests */\n              0x0d\n                /* \"Story.sol\":4987:5009  chapterRequests.length */\n              dup1\n              sload\n              swap1\n              pop\n                /* \"Story.sol\":4978:4984  _index */\n              dup2\n                /* \"Story.sol\":4978:5009  _index < chapterRequests.length */\n              lt\n                /* \"Story.sol\":4978:5022  _index < chapterRequests.length && _index>=0 */\n              dup1\n              iszero\n              tag_125\n              jumpi\n              pop\n                /* \"Story.sol\":5021:5022  0 */\n              0x00\n                /* \"Story.sol\":5013:5019  _index */\n              dup2\n                /* \"Story.sol\":5013:5022  _index>=0 */\n              lt\n              iszero\n                /* \"Story.sol\":4978:5022  _index < chapterRequests.length && _index>=0 */\n            tag_125:\n                /* \"Story.sol\":4970:5046  require(_index < chapterRequests.length && _index>=0, \"Index out of bounds\") */\n              tag_126\n              jumpi\n              mload(0x40)\n              0x08c379a000000000000000000000000000000000000000000000000000000000\n              dup2\n              mstore\n              0x04\n              add\n              tag_127\n              swap1\n              tag_128\n              jump\t// in\n            tag_127:\n              mload(0x40)\n              dup1\n              swap2\n              sub\n              swap1\n              revert\n            tag_126:\n                /* \"Story.sol\":5059:5089  ChapterRequest storage request */\n              0x00\n                /* \"Story.sol\":5092:5107  chapterRequests */\n              0x0d\n                /* \"Story.sol\":5108:5114  _index */\n              dup3\n                /* \"Story.sol\":5092:5115  chapterRequests[_index] */\n              dup2\n              sload\n              dup2\n              lt\n              tag_129\n              jumpi\n              tag_130\n              tag_131\n              jump\t// in\n            tag_130:\n            tag_129:\n              swap1\n              0x00\n              mstore\n              keccak256(0x00, 0x20)\n              swap1\n              0x08\n              mul\n              add\n                /* \"Story.sol\":5059:5115  ChapterRequest storage request = chapterRequests[_index] */\n              swap1\n              pop\n                /* \"Story.sol\":5158:5162  true */\n              0x01\n                /* \"Story.sol\":5126:5133  request */\n              dup2\n                /* \"Story.sol\":5126:5143  request.approvers */\n              0x05\n              add\n                /* \"Story.sol\":5126:5155  request.approvers[msg.sender] */\n              0x00\n                /* \"Story.sol\":5144:5154  msg.sender */\n              caller\n                /* \"Story.sol\":5126:5155  request.approvers[msg.sender] */\n              0xffffffffffffffffffffffffffffffffffffffff\n              and\n              0xffffffffffffffffffffffffffffffffffffffff\n              and\n              dup2\n              mstore\n              0x20\n              add\n              swap1\n              dup2\n              mstore\n              0x20\n              add\n              0x00\n              keccak256\n              0x00\n                /* \"Story.sol\":5126:5162  request.approvers[msg.sender] = true */\n              0x0100\n              exp\n              dup2\n              sload\n              dup2\n              0xff\n              mul\n              not\n              and\n              swap1\n              dup4\n              iszero\n              iszero\n              mul\n              or\n              swap1\n              sstore\n              pop\n                /* \"Story.sol\":5198:5227  request.approversCount.add(1) */\n              tag_133\n                /* \"Story.sol\":5225:5226  1 */\n              0x01\n                /* \"Story.sol\":5198:5205  request */\n              dup3\n                /* \"Story.sol\":5198:5220  request.approversCount */\n              0x06\n              add\n              sload\n                /* \"Story.sol\":5198:5224  request.approversCount.add */\n              tag_114\n              swap1\n                /* \"Story.sol\":5198:5227  request.approversCount.add(1) */\n              swap2\n              swap1\n              0xffffffff\n              and\n              jump\t// in\n            tag_133:\n                /* \"Story.sol\":5173:5180  request */\n              dup2\n                /* \"Story.sol\":5173:5195  request.approversCount */\n              0x06\n              add\n                /* \"Story.sol\":5173:5227  request.approversCount = request.approversCount.add(1) */\n              dup2\n              swap1\n              sstore\n              pop\n                /* \"Story.sol\":5336:5351  authorsForReact */\n              0x05\n                /* \"Story.sol\":5336:5358  authorsForReact.length */\n              dup1\n              sload\n              swap1\n              pop\n                /* \"Story.sol\":5310:5317  request */\n              dup2\n                /* \"Story.sol\":5310:5332  request.approversCount */\n              0x06\n              add\n              sload\n                /* \"Story.sol\":5310:5358  request.approversCount == authorsForReact.length */\n              eq\n                /* \"Story.sol\":5307:6062  if(request.approversCount == authorsForReact.length){... */\n              iszero\n              tag_134\n              jumpi\n                /* \"Story.sol\":5391:5395  true */\n              0x01\n                /* \"Story.sol\":5374:5381  request */\n              dup2\n                /* \"Story.sol\":5374:5388  request.status */\n              0x07\n              add\n              0x00\n                /* \"Story.sol\":5374:5395  request.status = true */\n              0x0100\n              exp\n              dup2\n              sload\n              dup2\n              0xff\n              mul\n              not\n              and\n              swap1\n              dup4\n              iszero\n              iszero\n              mul\n              or\n              swap1\n              sstore\n              pop\n                /* \"Story.sol\":5410:5428  Chapter newChapter */\n              0x00\n                /* \"Story.sol\":5443:5450  request */\n              dup2\n                /* \"Story.sol\":5443:5457  request.author */\n              0x02\n              add\n              0x00\n              swap1\n              sload\n              swap1\n              0x0100\n              exp\n              swap1\n              div\n              0xffffffffffffffffffffffffffffffffffffffff\n              and\n                /* \"Story.sol\":5467:5471  this */\n              address\n                /* \"Story.sol\":5474:5481  request */\n              dup4\n                /* \"Story.sol\":5474:5490  request.ipfsHash */\n              0x00\n              add\n                /* \"Story.sol\":5492:5499  request */\n              dup5\n                /* \"Story.sol\":5492:5513  request.parentChapter */\n              0x03\n              add\n              0x00\n              swap1\n              sload\n              swap1\n              0x0100\n              exp\n              swap1\n              div\n              0xffffffffffffffffffffffffffffffffffffffff\n              and\n                /* \"Story.sol\":5515:5522  request */\n              dup6\n                /* \"Story.sol\":5515:5535  request.childChapter */\n              0x04\n              add\n              0x00\n              swap1\n              sload\n              swap1\n              0x0100\n              exp\n              swap1\n              div\n              0xffffffffffffffffffffffffffffffffffffffff\n              and\n                /* \"Story.sol\":5431:5536  new Chapter(request.author, address(this), request.ipfsHash, request.parentChapter, request.childChapter) */\n              mload(0x40)\n              tag_135\n              swap1\n              tag_136\n              jump\t// in\n            tag_135:\n              tag_137\n              swap6\n              swap5\n              swap4\n              swap3\n              swap2\n              swap1\n              tag_138\n              jump\t// in\n            tag_137:\n              mload(0x40)\n              dup1\n              swap2\n              sub\n              swap1\n              0x00\n              create\n              dup1\n              iszero\n              dup1\n              iszero\n              tag_139\n              jumpi\n              returndatasize\n              0x00\n              dup1\n              returndatacopy\n              revert(0x00, returndatasize)\n            tag_139:\n              pop\n                /* \"Story.sol\":5410:5536  Chapter newChapter = new Chapter(request.author, address(this), request.ipfsHash, request.parentChapter, request.childChapter) */\n              swap1\n              pop\n                /* \"Story.sol\":5589:5590  0 */\n              0x00\n                /* \"Story.sol\":5556:5591  request.parentChapter != address(0) */\n              0xffffffffffffffffffffffffffffffffffffffff\n              and\n                /* \"Story.sol\":5556:5563  request */\n              dup3\n                /* \"Story.sol\":5556:5577  request.parentChapter */\n              0x03\n              add\n              0x00\n              swap1\n              sload\n              swap1\n              0x0100\n              exp\n              swap1\n              div\n              0xffffffffffffffffffffffffffffffffffffffff\n              and\n                /* \"Story.sol\":5556:5591  request.parentChapter != address(0) */\n              0xffffffffffffffffffffffffffffffffffffffff\n              and\n              eq\n                /* \"Story.sol\":5553:5737  if(request.parentChapter != address(0)){... */\n              tag_140\n              jumpi\n                /* \"Story.sol\":5611:5625  Chapter parent */\n              0x00\n                /* \"Story.sol\":5636:5643  request */\n              dup3\n                /* \"Story.sol\":5636:5657  request.parentChapter */\n              0x03\n              add\n              0x00\n              swap1\n              sload\n              swap1\n              0x0100\n              exp\n              swap1\n              div\n              0xffffffffffffffffffffffffffffffffffffffff\n              and\n                /* \"Story.sol\":5611:5658  Chapter parent = Chapter(request.parentChapter) */\n              swap1\n              pop\n                /* \"Story.sol\":5677:5683  parent */\n              dup1\n                /* \"Story.sol\":5677:5700  parent.linkChildChapter */\n              0xffffffffffffffffffffffffffffffffffffffff\n              and\n              0x988e46c8\n                /* \"Story.sol\":5709:5719  newChapter */\n              dup4\n                /* \"Story.sol\":5677:5721  parent.linkChildChapter(address(newChapter)) */\n              mload(0x40)\n              dup3\n              0xffffffff\n              and\n              0xe0\n              shl\n              dup2\n              mstore\n              0x04\n              add\n              tag_141\n              swap2\n              swap1\n              tag_78\n              jump\t// in\n            tag_141:\n              0x00\n              mload(0x40)\n              dup1\n              dup4\n              sub\n              dup2\n              0x00\n              dup8\n              dup1\n              extcodesize\n              iszero\n              dup1\n              iszero\n              tag_142\n              jumpi\n              0x00\n              dup1\n              revert\n            tag_142:\n              pop\n              gas\n              call\n              iszero\n              dup1\n              iszero\n              tag_144\n              jumpi\n              returndatasize\n              0x00\n              dup1\n              returndatacopy\n              revert(0x00, returndatasize)\n            tag_144:\n              pop\n              pop\n              pop\n              pop\n                /* \"Story.sol\":5592:5737  {... */\n              pop\n                /* \"Story.sol\":5553:5737  if(request.parentChapter != address(0)){... */\n            tag_140:\n                /* \"Story.sol\":5786:5787  0 */\n              0x00\n                /* \"Story.sol\":5754:5788  request.childChapter != address(0) */\n              0xffffffffffffffffffffffffffffffffffffffff\n              and\n                /* \"Story.sol\":5754:5761  request */\n              dup3\n                /* \"Story.sol\":5754:5774  request.childChapter */\n              0x04\n              add\n              0x00\n              swap1\n              sload\n              swap1\n              0x0100\n              exp\n              swap1\n              div\n              0xffffffffffffffffffffffffffffffffffffffff\n              and\n                /* \"Story.sol\":5754:5788  request.childChapter != address(0) */\n              0xffffffffffffffffffffffffffffffffffffffff\n              and\n              eq\n                /* \"Story.sol\":5751:5932  if(request.childChapter != address(0)){... */\n              tag_145\n              jumpi\n                /* \"Story.sol\":5808:5821  Chapter child */\n              0x00\n                /* \"Story.sol\":5832:5839  request */\n              dup3\n                /* \"Story.sol\":5832:5852  request.childChapter */\n              0x04\n              add\n              0x00\n              swap1\n              sload\n              swap1\n              0x0100\n              exp\n              swap1\n              div\n              0xffffffffffffffffffffffffffffffffffffffff\n              and\n                /* \"Story.sol\":5808:5853  Chapter child = Chapter(request.childChapter) */\n              swap1\n              pop\n                /* \"Story.sol\":5872:5877  child */\n              dup1\n                /* \"Story.sol\":5872:5895  child.linkParentChapter */\n              0xffffffffffffffffffffffffffffffffffffffff\n              and\n              0x8758ce83\n                /* \"Story.sol\":5904:5914  newChapter */\n              dup4\n                /* \"Story.sol\":5872:5916  child.linkParentChapter(address(newChapter)) */\n              mload(0x40)\n              dup3\n              0xffffffff\n              and\n              0xe0\n              shl\n              dup2\n              mstore\n              0x04\n              add\n              tag_146\n              swap2\n              swap1\n              tag_78\n              jump\t// in\n            tag_146:\n              0x00\n              mload(0x40)\n              dup1\n              dup4\n              sub\n              dup2\n              0x00\n              dup8\n              dup1\n              extcodesize\n              iszero\n              dup1\n              iszero\n              tag_147\n              jumpi\n              0x00\n              dup1\n              revert\n            tag_147:\n              pop\n              gas\n              call\n              iszero\n              dup1\n              iszero\n              tag_149\n              jumpi\n              returndatasize\n              0x00\n              dup1\n              returndatacopy\n              revert(0x00, returndatasize)\n            tag_149:\n              pop\n              pop\n              pop\n              pop\n                /* \"Story.sol\":5789:5932  {... */\n              pop\n                /* \"Story.sol\":5751:5932  if(request.childChapter != address(0)){... */\n            tag_145:\n                /* \"Story.sol\":5946:5962  chaptersForReact */\n              0x07\n                /* \"Story.sol\":5976:5986  newChapter */\n              dup2\n                /* \"Story.sol\":5946:5988  chaptersForReact.push(address(newChapter)) */\n              swap1\n              dup1\n              0x01\n              dup2\n              sload\n              add\n              dup1\n              dup3\n              sstore\n              dup1\n              swap2\n              pop\n              pop\n              0x01\n              swap1\n              sub\n              swap1\n              0x00\n              mstore\n              keccak256(0x00, 0x20)\n              add\n              0x00\n              swap1\n              swap2\n              swap1\n              swap2\n              swap1\n              swap2\n              0x0100\n              exp\n              dup2\n              sload\n              dup2\n              0xffffffffffffffffffffffffffffffffffffffff\n              mul\n              not\n              and\n              swap1\n              dup4\n              0xffffffffffffffffffffffffffffffffffffffff\n              and\n              mul\n              or\n              swap1\n              sstore\n              pop\n                /* \"Story.sol\":6046:6050  true */\n              0x01\n                /* \"Story.sol\":6003:6022  chaptersForSolidity */\n              0x06\n                /* \"Story.sol\":6003:6043  chaptersForSolidity[address(newChapter)] */\n              0x00\n                /* \"Story.sol\":6031:6041  newChapter */\n              dup4\n                /* \"Story.sol\":6003:6043  chaptersForSolidity[address(newChapter)] */\n              0xffffffffffffffffffffffffffffffffffffffff\n              and\n              0xffffffffffffffffffffffffffffffffffffffff\n              and\n              dup2\n              mstore\n              0x20\n              add\n              swap1\n              dup2\n              mstore\n              0x20\n              add\n              0x00\n              keccak256\n              0x00\n                /* \"Story.sol\":6003:6050  chaptersForSolidity[address(newChapter)] = true */\n              0x0100\n              exp\n              dup2\n              sload\n              dup2\n              0xff\n              mul\n              not\n              and\n              swap1\n              dup4\n              iszero\n              iszero\n              mul\n              or\n              swap1\n              sstore\n              pop\n                /* \"Story.sol\":5359:6062  {... */\n              pop\n                /* \"Story.sol\":5307:6062  if(request.approversCount == authorsForReact.length){... */\n            tag_134:\n                /* \"Story.sol\":4799:6071  {... */\n              pop\n                /* \"Story.sol\":8910:8915  false */\n              0x00\n                /* \"Story.sol\":8900:8907  _locked */\n              0x08\n              0x00\n                /* \"Story.sol\":8900:8915  _locked = false */\n              0x0100\n              exp\n              dup2\n              sload\n              dup2\n              0xff\n              mul\n              not\n              and\n              swap1\n              dup4\n              iszero\n              iszero\n              mul\n              or\n              swap1\n              sstore\n              pop\n                /* \"Story.sol\":4736:6071  function approveChapterRequest(uint _index) public noReentrancy{... */\n              pop\n              jump\t// out\n                /* \"Story.sol\":6270:6743  function dispenseRewards() public {... */\n            tag_32:\n                /* \"Story.sol\":6323:6341  authorsForSolidity */\n              0x04\n                /* \"Story.sol\":6323:6353  authorsForSolidity[msg.sender] */\n              0x00\n                /* \"Story.sol\":6342:6352  msg.sender */\n              caller\n                /* \"Story.sol\":6323:6353  authorsForSolidity[msg.sender] */\n              0xffffffffffffffffffffffffffffffffffffffff\n              and\n              0xffffffffffffffffffffffffffffffffffffffff\n              and\n              dup2\n              mstore\n              0x20\n              add\n              swap1\n              dup2\n              mstore\n              0x20\n              add\n              0x00\n              keccak256\n              0x00\n              swap1\n              sload\n              swap1\n              0x0100\n              exp\n              swap1\n              div\n              0xff\n              and\n                /* \"Story.sol\":6315:6404  require(authorsForSolidity[msg.sender], \"Only an authorized author can dispense rewards\") */\n              tag_152\n              jumpi\n              mload(0x40)\n              0x08c379a000000000000000000000000000000000000000000000000000000000\n              dup2\n              mstore\n              0x04\n              add\n              tag_153\n              swap1\n              tag_154\n              jump\t// in\n            tag_153:\n              mload(0x40)\n              dup1\n              swap2\n              sub\n              swap1\n              revert\n            tag_152:\n                /* \"Story.sol\":6417:6437  uint256 totalAuthors */\n              0x00\n                /* \"Story.sol\":6440:6455  authorsForReact */\n              0x05\n                /* \"Story.sol\":6440:6462  authorsForReact.length */\n              dup1\n              sload\n              swap1\n              pop\n                /* \"Story.sol\":6417:6462  uint256 totalAuthors = authorsForReact.length */\n              swap1\n              pop\n                /* \"Story.sol\":6473:6496  uint256 rewardPerAuthor */\n              0x00\n                /* \"Story.sol\":6499:6538  address(this).balance.div(totalAuthors) */\n              tag_155\n                /* \"Story.sol\":6525:6537  totalAuthors */\n              dup3\n                /* \"Story.sol\":6499:6520  address(this).balance */\n              selfbalance\n                /* \"Story.sol\":6499:6524  address(this).balance.div */\n              tag_156\n              swap1\n                /* \"Story.sol\":6499:6538  address(this).balance.div(totalAuthors) */\n              swap2\n              swap1\n              0xffffffff\n              and\n              jump\t// in\n            tag_155:\n                /* \"Story.sol\":6473:6538  uint256 rewardPerAuthor = address(this).balance.div(totalAuthors) */\n              swap1\n              pop\n                /* \"Story.sol\":6575:6576  0 */\n              0x00\n                /* \"Story.sol\":6557:6572  rewardPerAuthor */\n              dup2\n                /* \"Story.sol\":6557:6576  rewardPerAuthor > 0 */\n              gt\n                /* \"Story.sol\":6549:6602  require(rewardPerAuthor > 0, \"No reward to dispense\") */\n              tag_157\n              jumpi\n              mload(0x40)\n              0x08c379a000000000000000000000000000000000000000000000000000000000\n              dup2\n              mstore\n              0x04\n              add\n              tag_158\n              swap1\n              tag_159\n              jump\t// in\n            tag_158:\n              mload(0x40)\n              dup1\n              swap2\n              sub\n              swap1\n              revert\n            tag_157:\n                /* \"Story.sol\":6618:6627  uint256 i */\n              0x00\n                /* \"Story.sol\":6613:6736  for (uint256 i = 0; i < totalAuthors; i++) {... */\n            tag_160:\n                /* \"Story.sol\":6637:6649  totalAuthors */\n              dup3\n                /* \"Story.sol\":6633:6634  i */\n              dup2\n                /* \"Story.sol\":6633:6649  i < totalAuthors */\n              lt\n                /* \"Story.sol\":6613:6736  for (uint256 i = 0; i < totalAuthors; i++) {... */\n              iszero\n              tag_161\n              jumpi\n                /* \"Story.sol\":6679:6694  authorsForReact */\n              0x05\n                /* \"Story.sol\":6695:6696  i */\n              dup2\n                /* \"Story.sol\":6679:6697  authorsForReact[i] */\n              dup2\n              sload\n              dup2\n              lt\n              tag_163\n              jumpi\n              tag_164\n              tag_131\n              jump\t// in\n            tag_164:\n            tag_163:\n              swap1\n              0x00\n              mstore\n              keccak256(0x00, 0x20)\n              add\n              0x00\n              swap1\n              sload\n              swap1\n              0x0100\n              exp\n              swap1\n              div\n              0xffffffffffffffffffffffffffffffffffffffff\n              and\n                /* \"Story.sol\":6671:6707  payable(authorsForReact[i]).transfer */\n              0xffffffffffffffffffffffffffffffffffffffff\n              and\n                /* \"Story.sol\":6671:6724  payable(authorsForReact[i]).transfer(rewardPerAuthor) */\n              0x08fc\n                /* \"Story.sol\":6708:6723  rewardPerAuthor */\n              dup4\n                /* \"Story.sol\":6671:6724  payable(authorsForReact[i]).transfer(rewardPerAuthor) */\n              swap1\n              dup2\n              iszero\n              mul\n              swap1\n              mload(0x40)\n              0x00\n              mload(0x40)\n              dup1\n              dup4\n              sub\n              dup2\n              dup6\n              dup9\n              dup9\n              call\n              swap4\n              pop\n              pop\n              pop\n              pop\n              iszero\n              dup1\n              iszero\n              tag_167\n              jumpi\n              returndatasize\n              0x00\n              dup1\n              returndatacopy\n              revert(0x00, returndatasize)\n            tag_167:\n              pop\n                /* \"Story.sol\":6651:6654  i++ */\n              dup1\n              dup1\n              tag_168\n              swap1\n              tag_169\n              jump\t// in\n            tag_168:\n              swap2\n              pop\n              pop\n                /* \"Story.sol\":6613:6736  for (uint256 i = 0; i < totalAuthors; i++) {... */\n              jump(tag_160)\n            tag_161:\n              pop\n                /* \"Story.sol\":6304:6743  {... */\n              pop\n              pop\n                /* \"Story.sol\":6270:6743  function dispenseRewards() public {... */\n              jump\t// out\n                /* \"Story.sol\":999:1049  mapping(address => bool) public authorsForSolidity */\n            tag_37:\n              mstore(0x20, 0x04)\n              dup1\n              0x00\n              mstore\n              keccak256(0x00, 0x40)\n              0x00\n              swap2\n              pop\n              sload\n              swap1\n              0x0100\n              exp\n              swap1\n              div\n              0xff\n              and\n              dup2\n              jump\t// out\n                /* \"Story.sol\":7239:7761  function getSummary() public view returns (... */\n            tag_42:\n                /* \"Story.sol\":7292:7299  address */\n              0x00\n                /* \"Story.sol\":7301:7314  string memory */\n              0x60\n                /* \"Story.sol\":7316:7329  string memory */\n              dup1\n                /* \"Story.sol\":7331:7344  string memory */\n              0x60\n                /* \"Story.sol\":7346:7362  address[] memory */\n              dup1\n                /* \"Story.sol\":7364:7381  address [] memory */\n              0x60\n                /* \"Story.sol\":7383:7387  uint */\n              0x00\n                /* \"Story.sol\":7389:7393  uint */\n              dup1\n                /* \"Story.sol\":7395:7399  uint */\n              0x00\n                /* \"Story.sol\":7401:7405  bool */\n              dup1\n                /* \"Story.sol\":7407:7411  uint */\n              0x00\n                /* \"Story.sol\":7447:7457  mainAuthor */\n              dup1\n              0x00\n              swap1\n              sload\n              swap1\n              0x0100\n              exp\n              swap1\n              div\n              0xffffffffffffffffffffffffffffffffffffffff\n              and\n                /* \"Story.sol\":7472:7477  title */\n              0x01\n                /* \"Story.sol\":7492:7497  genre */\n              0x02\n                /* \"Story.sol\":7512:7520  mainIdea */\n              0x03\n                /* \"Story.sol\":7535:7550  authorsForReact */\n              0x05\n                /* \"Story.sol\":7565:7581  chaptersForReact */\n              0x07\n                /* \"Story.sol\":7596:7610  requestsToJoin */\n              0x0c\n                /* \"Story.sol\":7596:7617  requestsToJoin.length */\n              dup1\n              sload\n              swap1\n              pop\n                /* \"Story.sol\":7632:7647  chapterRequests */\n              0x0d\n                /* \"Story.sol\":7632:7654  chapterRequests.length */\n              dup1\n              sload\n              swap1\n              pop\n                /* \"Story.sol\":7669:7683  reportersCount */\n              sload(0x0a)\n                /* \"Story.sol\":7698:7706  reported */\n              0x0b\n              0x00\n              swap1\n              sload\n              swap1\n              0x0100\n              exp\n              swap1\n              div\n              0xff\n              and\n                /* \"Story.sol\":7721:7742  address(this).balance */\n              selfbalance\n                /* \"Story.sol\":7424:7753  return ( ... */\n              dup10\n              dup1\n              sload\n              tag_171\n              swap1\n              tag_172\n              jump\t// in\n            tag_171:\n              dup1\n              0x1f\n              add\n              0x20\n              dup1\n              swap2\n              div\n              mul\n              0x20\n              add\n              mload(0x40)\n              swap1\n              dup2\n              add\n              0x40\n              mstore\n              dup1\n              swap3\n              swap2\n              swap1\n              dup2\n              dup2\n              mstore\n              0x20\n              add\n              dup3\n              dup1\n              sload\n              tag_173\n              swap1\n              tag_172\n              jump\t// in\n            tag_173:\n              dup1\n              iszero\n              tag_174\n              jumpi\n              dup1\n              0x1f\n              lt\n              tag_175\n              jumpi\n              0x0100\n              dup1\n              dup4\n              sload\n              div\n              mul\n              dup4\n              mstore\n              swap2\n              0x20\n              add\n              swap2\n              jump(tag_174)\n            tag_175:\n              dup3\n              add\n              swap2\n              swap1\n              0x00\n              mstore\n              keccak256(0x00, 0x20)\n              swap1\n            tag_176:\n              dup2\n              sload\n              dup2\n              mstore\n              swap1\n              0x01\n              add\n              swap1\n              0x20\n              add\n              dup1\n              dup4\n              gt\n              tag_176\n              jumpi\n              dup3\n              swap1\n              sub\n              0x1f\n              and\n              dup3\n              add\n              swap2\n            tag_174:\n              pop\n              pop\n              pop\n              pop\n              pop\n              swap10\n              pop\n              dup9\n              dup1\n              sload\n              tag_177\n              swap1\n              tag_172\n              jump\t// in\n            tag_177:\n              dup1\n              0x1f\n              add\n              0x20\n              dup1\n              swap2\n              div\n              mul\n              0x20\n              add\n              mload(0x40)\n              swap1\n              dup2\n              add\n              0x40\n              mstore\n              dup1\n              swap3\n              swap2\n              swap1\n              dup2\n              dup2\n              mstore\n              0x20\n              add\n              dup3\n              dup1\n              sload\n              tag_178\n              swap1\n              tag_172\n              jump\t// in\n            tag_178:\n              dup1\n              iszero\n              tag_179\n              jumpi\n              dup1\n              0x1f\n              lt\n              tag_180\n              jumpi\n              0x0100\n              dup1\n              dup4\n              sload\n              div\n              mul\n              dup4\n              mstore\n              swap2\n              0x20\n              add\n              swap2\n              jump(tag_179)\n            tag_180:\n              dup3\n              add\n              swap2\n              swap1\n              0x00\n              mstore\n              keccak256(0x00, 0x20)\n              swap1\n            tag_181:\n              dup2\n              sload\n              dup2\n              mstore\n              swap1\n              0x01\n              add\n              swap1\n              0x20\n              add\n              dup1\n              dup4\n              gt\n              tag_181\n              jumpi\n              dup3\n              swap1\n              sub\n              0x1f\n              and\n              dup3\n              add\n              swap2\n            tag_179:\n              pop\n              pop\n              pop\n              pop\n              pop\n              swap9\n              pop\n              dup8\n              dup1\n              sload\n              tag_182\n              swap1\n              tag_172\n              jump\t// in\n            tag_182:\n              dup1\n              0x1f\n              add\n              0x20\n              dup1\n              swap2\n              div\n              mul\n              0x20\n              add\n              mload(0x40)\n              swap1\n              dup2\n              add\n              0x40\n              mstore\n              dup1\n              swap3\n              swap2\n              swap1\n              dup2\n              dup2\n              mstore\n              0x20\n              add\n              dup3\n              dup1\n              sload\n              tag_183\n              swap1\n              tag_172\n              jump\t// in\n            tag_183:\n              dup1\n              iszero\n              tag_184\n              jumpi\n              dup1\n              0x1f\n              lt\n              tag_185\n              jumpi\n              0x0100\n              dup1\n              dup4\n              sload\n              div\n              mul\n              dup4\n              mstore\n              swap2\n              0x20\n              add\n              swap2\n              jump(tag_184)\n            tag_185:\n              dup3\n              add\n              swap2\n              swap1\n              0x00\n              mstore\n              keccak256(0x00, 0x20)\n              swap1\n            tag_186:\n              dup2\n              sload\n              dup2\n              mstore\n              swap1\n              0x01\n              add\n              swap1\n              0x20\n              add\n              dup1\n              dup4\n              gt\n              tag_186\n              jumpi\n              dup3\n              swap1\n              sub\n              0x1f\n              and\n              dup3\n              add\n              swap2\n            tag_184:\n              pop\n              pop\n              pop\n              pop\n              pop\n              swap8\n              pop\n              dup7\n              dup1\n              sload\n              dup1\n              0x20\n              mul\n              0x20\n              add\n              mload(0x40)\n              swap1\n              dup2\n              add\n              0x40\n              mstore\n              dup1\n              swap3\n              swap2\n              swap1\n              dup2\n              dup2\n              mstore\n              0x20\n              add\n              dup3\n              dup1\n              sload\n              dup1\n              iszero\n              tag_187\n              jumpi\n              0x20\n              mul\n              dup3\n              add\n              swap2\n              swap1\n              0x00\n              mstore\n              keccak256(0x00, 0x20)\n              swap1\n            tag_188:\n              dup2\n              0x00\n              swap1\n              sload\n              swap1\n              0x0100\n              exp\n              swap1\n              div\n              0xffffffffffffffffffffffffffffffffffffffff\n              and\n              0xffffffffffffffffffffffffffffffffffffffff\n              and\n              dup2\n              mstore\n              0x20\n              add\n              swap1\n              0x01\n              add\n              swap1\n              dup1\n              dup4\n              gt\n              tag_188\n              jumpi\n            tag_187:\n              pop\n              pop\n              pop\n              pop\n              pop\n              swap7\n              pop\n              dup6\n              dup1\n              sload\n              dup1\n              0x20\n              mul\n              0x20\n              add\n              mload(0x40)\n              swap1\n              dup2\n              add\n              0x40\n              mstore\n              dup1\n              swap3\n              swap2\n              swap1\n              dup2\n              dup2\n              mstore\n              0x20\n              add\n              dup3\n              dup1\n              sload\n              dup1\n              iszero\n              tag_189\n              jumpi\n              0x20\n              mul\n              dup3\n              add\n              swap2\n              swap1\n              0x00\n              mstore\n              keccak256(0x00, 0x20)\n              swap1\n            tag_190:\n              dup2\n              0x00\n              swap1\n              sload\n              swap1\n              0x0100\n              exp\n              swap1\n              div\n              0xffffffffffffffffffffffffffffffffffffffff\n              and\n              0xffffffffffffffffffffffffffffffffffffffff\n              and\n              dup2\n              mstore\n              0x20\n              add\n              swap1\n              0x01\n              add\n              swap1\n              dup1\n              dup4\n              gt\n              tag_190\n              jumpi\n            tag_189:\n              pop\n              pop\n              pop\n              pop\n              pop\n              swap6\n              pop\n              swap11\n              pop\n              swap11\n              pop\n              swap11\n              pop\n              swap11\n              pop\n              swap11\n              pop\n              swap11\n              pop\n              swap11\n              pop\n              swap11\n              pop\n              swap11\n              pop\n              swap11\n              pop\n              swap11\n              pop\n                /* \"Story.sol\":7239:7761  function getSummary() public view returns (... */\n              swap1\n              swap2\n              swap3\n              swap4\n              swap5\n              swap6\n              swap7\n              swap8\n              swap9\n              swap10\n              swap11\n              jump\t// out\n                /* \"Story.sol\":7769:7871  function isAuthor() public view returns (bool){... */\n            tag_47:\n                /* \"Story.sol\":7810:7814  bool */\n              0x00\n                /* \"Story.sol\":7833:7851  authorsForSolidity */\n              0x04\n                /* \"Story.sol\":7833:7863  authorsForSolidity[msg.sender] */\n              0x00\n                /* \"Story.sol\":7852:7862  msg.sender */\n              caller\n                /* \"Story.sol\":7833:7863  authorsForSolidity[msg.sender] */\n              0xffffffffffffffffffffffffffffffffffffffff\n              and\n              0xffffffffffffffffffffffffffffffffffffffff\n              and\n              dup2\n              mstore\n              0x20\n              add\n              swap1\n              dup2\n              mstore\n              0x20\n              add\n              0x00\n              keccak256\n              0x00\n              swap1\n              sload\n              swap1\n              0x0100\n              exp\n              swap1\n              div\n              0xff\n              and\n                /* \"Story.sol\":7826:7863  return authorsForSolidity[msg.sender] */\n              swap1\n              pop\n                /* \"Story.sol\":7769:7871  function isAuthor() public view returns (bool){... */\n              swap1\n              jump\t// out\n                /* \"Story.sol\":1287:1307  bool public reported */\n            tag_51:\n              0x0b\n              0x00\n              swap1\n              sload\n              swap1\n              0x0100\n              exp\n              swap1\n              div\n              0xff\n              and\n              dup2\n              jump\t// out\n                /* \"Story.sol\":1529:1566  RequestToJoin[] public requestsToJoin */\n            tag_56:\n              0x0c\n              dup2\n              dup2\n              sload\n              dup2\n              lt\n              tag_192\n              jumpi\n              0x00\n              dup1\n              revert\n            tag_192:\n              swap1\n              0x00\n              mstore\n              keccak256(0x00, 0x20)\n              swap1\n              0x06\n              mul\n              add\n              0x00\n              swap2\n              pop\n              swap1\n              pop\n              dup1\n              0x00\n              add\n              dup1\n              sload\n              tag_194\n              swap1\n              tag_172\n              jump\t// in\n            tag_194:\n              dup1\n              0x1f\n              add\n              0x20\n              dup1\n              swap2\n              div\n              mul\n              0x20\n              add\n              mload(0x40)\n              swap1\n              dup2\n              add\n              0x40\n              mstore\n              dup1\n              swap3\n              swap2\n              swap1\n              dup2\n              dup2\n              mstore\n              0x20\n              add\n              dup3\n              dup1\n              sload\n              tag_195\n              swap1\n              tag_172\n              jump\t// in\n            tag_195:\n              dup1\n              iszero\n              tag_196\n              jumpi\n              dup1\n              0x1f\n              lt\n              tag_197\n              jumpi\n              0x0100\n              dup1\n              dup4\n              sload\n              div\n              mul\n              dup4\n              mstore\n              swap2\n              0x20\n              add\n              swap2\n              jump(tag_196)\n            tag_197:\n              dup3\n              add\n              swap2\n              swap1\n              0x00\n              mstore\n              keccak256(0x00, 0x20)\n              swap1\n            tag_198:\n              dup2\n              sload\n              dup2\n              mstore\n              swap1\n              0x01\n              add\n              swap1\n              0x20\n              add\n              dup1\n              dup4\n              gt\n              tag_198\n              jumpi\n              dup3\n              swap1\n              sub\n              0x1f\n              and\n              dup3\n              add\n              swap2\n            tag_196:\n              pop\n              pop\n              pop\n              pop\n              pop\n              swap1\n              dup1\n              0x01\n              add\n              sload\n              swap1\n              dup1\n              0x02\n              add\n              0x00\n              swap1\n              sload\n              swap1\n              0x0100\n              exp\n              swap1\n              div\n              0xffffffffffffffffffffffffffffffffffffffff\n              and\n              swap1\n              dup1\n              0x04\n              add\n              sload\n              swap1\n              dup1\n              0x05\n              add\n              0x00\n              swap1\n              sload\n              swap1\n              0x0100\n              exp\n              swap1\n              div\n              0xff\n              and\n              swap1\n              pop\n              dup6\n              jump\t// out\n                /* \"Story.sol\":1095:1146  mapping(address => bool) public chaptersForSolidity */\n            tag_62:\n              mstore(0x20, 0x06)\n              dup1\n              0x00\n              mstore\n              keccak256(0x00, 0x40)\n              0x00\n              swap2\n              pop\n              sload\n              swap1\n              0x0100\n              exp\n              swap1\n              div\n              0xff\n              and\n              dup2\n              jump\t// out\n                /* \"Story.sol\":2766:3683  function approveRequestToJoin(uint256 _index) public {... */\n            tag_67:\n                /* \"Story.sol\":2839:2847  reported */\n              0x0b\n              0x00\n              swap1\n              sload\n              swap1\n              0x0100\n              exp\n              swap1\n              div\n              0xff\n              and\n                /* \"Story.sol\":2838:2847  !reported */\n              iszero\n                /* \"Story.sol\":2830:2880  require(!reported, \"This story has been reported\") */\n              tag_200\n              jumpi\n              mload(0x40)\n              0x08c379a000000000000000000000000000000000000000000000000000000000\n              dup2\n              mstore\n              0x04\n              add\n              tag_201\n              swap1\n              tag_109\n              jump\t// in\n            tag_201:\n              mload(0x40)\n              dup1\n              swap2\n              sub\n              swap1\n              revert\n            tag_200:\n                /* \"Story.sol\":2899:2917  authorsForSolidity */\n              0x04\n                /* \"Story.sol\":2899:2929  authorsForSolidity[msg.sender] */\n              0x00\n                /* \"Story.sol\":2918:2928  msg.sender */\n              caller\n                /* \"Story.sol\":2899:2929  authorsForSolidity[msg.sender] */\n              0xffffffffffffffffffffffffffffffffffffffff\n              and\n              0xffffffffffffffffffffffffffffffffffffffff\n              and\n              dup2\n              mstore\n              0x20\n              add\n              swap1\n              dup2\n              mstore\n              0x20\n              add\n              0x00\n              keccak256\n              0x00\n              swap1\n              sload\n              swap1\n              0x0100\n              exp\n              swap1\n              div\n              0xff\n              and\n                /* \"Story.sol\":2891:2979  require(authorsForSolidity[msg.sender], \"Only an accepted author can approve a request\") */\n              tag_202\n              jumpi\n              mload(0x40)\n              0x08c379a000000000000000000000000000000000000000000000000000000000\n              dup2\n              mstore\n              0x04\n              add\n              tag_203\n              swap1\n              tag_124\n              jump\t// in\n            tag_203:\n              mload(0x40)\n              dup1\n              swap2\n              sub\n              swap1\n              revert\n            tag_202:\n                /* \"Story.sol\":3007:3021  requestsToJoin */\n              0x0c\n                /* \"Story.sol\":3007:3028  requestsToJoin.length */\n              dup1\n              sload\n              swap1\n              pop\n                /* \"Story.sol\":2998:3004  _index */\n              dup2\n                /* \"Story.sol\":2998:3028  _index < requestsToJoin.length */\n              lt\n                /* \"Story.sol\":2998:3041  _index < requestsToJoin.length && _index>=0 */\n              dup1\n              iszero\n              tag_204\n              jumpi\n              pop\n                /* \"Story.sol\":3040:3041  0 */\n              0x00\n                /* \"Story.sol\":3032:3038  _index */\n              dup2\n                /* \"Story.sol\":3032:3041  _index>=0 */\n              lt\n              iszero\n                /* \"Story.sol\":2998:3041  _index < requestsToJoin.length && _index>=0 */\n            tag_204:\n                /* \"Story.sol\":2990:3065  require(_index < requestsToJoin.length && _index>=0, \"Index out of bounds\") */\n              tag_205\n              jumpi\n              mload(0x40)\n              0x08c379a000000000000000000000000000000000000000000000000000000000\n              dup2\n              mstore\n              0x04\n              add\n              tag_206\n              swap1\n              tag_128\n              jump\t// in\n            tag_206:\n              mload(0x40)\n              dup1\n              swap2\n              sub\n              swap1\n              revert\n            tag_205:\n                /* \"Story.sol\":3078:3107  RequestToJoin storage request */\n              0x00\n                /* \"Story.sol\":3110:3124  requestsToJoin */\n              0x0c\n                /* \"Story.sol\":3125:3131  _index */\n              dup3\n                /* \"Story.sol\":3110:3132  requestsToJoin[_index] */\n              dup2\n              sload\n              dup2\n              lt\n              tag_207\n              jumpi\n              tag_208\n              tag_131\n              jump\t// in\n            tag_208:\n            tag_207:\n              swap1\n              0x00\n              mstore\n              keccak256(0x00, 0x20)\n              swap1\n              0x06\n              mul\n              add\n                /* \"Story.sol\":3078:3132  RequestToJoin storage request = requestsToJoin[_index] */\n              swap1\n              pop\n                /* \"Story.sol\":3154:3161  request */\n              dup1\n                /* \"Story.sol\":3154:3171  request.approvers */\n              0x03\n              add\n                /* \"Story.sol\":3154:3183  request.approvers[msg.sender] */\n              0x00\n                /* \"Story.sol\":3172:3182  msg.sender */\n              caller\n                /* \"Story.sol\":3154:3183  request.approvers[msg.sender] */\n              0xffffffffffffffffffffffffffffffffffffffff\n              and\n              0xffffffffffffffffffffffffffffffffffffffff\n              and\n              dup2\n              mstore\n              0x20\n              add\n              swap1\n              dup2\n              mstore\n              0x20\n              add\n              0x00\n              keccak256\n              0x00\n              swap1\n              sload\n              swap1\n              0x0100\n              exp\n              swap1\n              div\n              0xff\n              and\n                /* \"Story.sol\":3153:3183  !request.approvers[msg.sender] */\n              iszero\n                /* \"Story.sol\":3145:3222  require(!request.approvers[msg.sender],\"This author already approved before\") */\n              tag_210\n              jumpi\n              mload(0x40)\n              0x08c379a000000000000000000000000000000000000000000000000000000000\n              dup2\n              mstore\n              0x04\n              add\n              tag_211\n              swap1\n              tag_212\n              jump\t// in\n            tag_211:\n              mload(0x40)\n              dup1\n              swap2\n              sub\n              swap1\n              revert\n            tag_210:\n                /* \"Story.sol\":3267:3271  true */\n              0x01\n                /* \"Story.sol\":3235:3242  request */\n              dup2\n                /* \"Story.sol\":3235:3252  request.approvers */\n              0x03\n              add\n                /* \"Story.sol\":3235:3264  request.approvers[msg.sender] */\n              0x00\n                /* \"Story.sol\":3253:3263  msg.sender */\n              caller\n                /* \"Story.sol\":3235:3264  request.approvers[msg.sender] */\n              0xffffffffffffffffffffffffffffffffffffffff\n              and\n              0xffffffffffffffffffffffffffffffffffffffff\n              and\n              dup2\n              mstore\n              0x20\n              add\n              swap1\n              dup2\n              mstore\n              0x20\n              add\n              0x00\n              keccak256\n              0x00\n                /* \"Story.sol\":3235:3271  request.approvers[msg.sender] = true */\n              0x0100\n              exp\n              dup2\n              sload\n              dup2\n              0xff\n              mul\n              not\n              and\n              swap1\n              dup4\n              iszero\n              iszero\n              mul\n              or\n              swap1\n              sstore\n              pop\n                /* \"Story.sol\":3307:3336  request.approversCount.add(1) */\n              tag_213\n                /* \"Story.sol\":3334:3335  1 */\n              0x01\n                /* \"Story.sol\":3307:3314  request */\n              dup3\n                /* \"Story.sol\":3307:3329  request.approversCount */\n              0x04\n              add\n              sload\n                /* \"Story.sol\":3307:3333  request.approversCount.add */\n              tag_114\n              swap1\n                /* \"Story.sol\":3307:3336  request.approversCount.add(1) */\n              swap2\n              swap1\n              0xffffffff\n              and\n              jump\t// in\n            tag_213:\n                /* \"Story.sol\":3282:3289  request */\n              dup2\n                /* \"Story.sol\":3282:3304  request.approversCount */\n              0x04\n              add\n                /* \"Story.sol\":3282:3336  request.approversCount = request.approversCount.add(1) */\n              dup2\n              swap1\n              sstore\n              pop\n                /* \"Story.sol\":3443:3458  authorsForReact */\n              0x05\n                /* \"Story.sol\":3443:3465  authorsForReact.length */\n              dup1\n              sload\n              swap1\n              pop\n                /* \"Story.sol\":3417:3424  request */\n              dup2\n                /* \"Story.sol\":3417:3439  request.approversCount */\n              0x04\n              add\n              sload\n                /* \"Story.sol\":3417:3465  request.approversCount == authorsForReact.length */\n              eq\n                /* \"Story.sol\":3414:3676  if(request.approversCount == authorsForReact.length){... */\n              iszero\n              tag_214\n              jumpi\n                /* \"Story.sol\":3498:3502  true */\n              0x01\n                /* \"Story.sol\":3481:3488  request */\n              dup2\n                /* \"Story.sol\":3481:3495  request.status */\n              0x05\n              add\n              0x00\n                /* \"Story.sol\":3481:3502  request.status = true */\n              0x0100\n              exp\n              dup2\n              sload\n              dup2\n              0xff\n              mul\n              not\n              and\n              swap1\n              dup4\n              iszero\n              iszero\n              mul\n              or\n              swap1\n              sstore\n              pop\n                /* \"Story.sol\":3609:3613  true */\n              0x01\n                /* \"Story.sol\":3572:3590  authorsForSolidity */\n              0x04\n                /* \"Story.sol\":3572:3606  authorsForSolidity[request.author] */\n              0x00\n                /* \"Story.sol\":3591:3598  request */\n              dup4\n                /* \"Story.sol\":3591:3605  request.author */\n              0x02\n              add\n              0x00\n              swap1\n              sload\n              swap1\n              0x0100\n              exp\n              swap1\n              div\n              0xffffffffffffffffffffffffffffffffffffffff\n              and\n                /* \"Story.sol\":3572:3606  authorsForSolidity[request.author] */\n              0xffffffffffffffffffffffffffffffffffffffff\n              and\n              0xffffffffffffffffffffffffffffffffffffffff\n              and\n              dup2\n              mstore\n              0x20\n              add\n              swap1\n              dup2\n              mstore\n              0x20\n              add\n              0x00\n              keccak256\n              0x00\n                /* \"Story.sol\":3572:3613  authorsForSolidity[request.author] = true */\n              0x0100\n              exp\n              dup2\n              sload\n              dup2\n              0xff\n              mul\n              not\n              and\n              swap1\n              dup4\n              iszero\n              iszero\n              mul\n              or\n              swap1\n              sstore\n              pop\n                /* \"Story.sol\":3628:3643  authorsForReact */\n              0x05\n                /* \"Story.sol\":3649:3656  request */\n              dup2\n                /* \"Story.sol\":3649:3663  request.author */\n              0x02\n              add\n              0x00\n              swap1\n              sload\n              swap1\n              0x0100\n              exp\n              swap1\n              div\n              0xffffffffffffffffffffffffffffffffffffffff\n              and\n                /* \"Story.sol\":3628:3664  authorsForReact.push(request.author) */\n              swap1\n              dup1\n              0x01\n              dup2\n              sload\n              add\n              dup1\n              dup3\n              sstore\n              dup1\n              swap2\n              pop\n              pop\n              0x01\n              swap1\n              sub\n              swap1\n              0x00\n              mstore\n              keccak256(0x00, 0x20)\n              add\n              0x00\n              swap1\n              swap2\n              swap1\n              swap2\n              swap1\n              swap2\n              0x0100\n              exp\n              dup2\n              sload\n              dup2\n              0xffffffffffffffffffffffffffffffffffffffff\n              mul\n              not\n              and\n              swap1\n              dup4\n              0xffffffffffffffffffffffffffffffffffffffff\n              and\n              mul\n              or\n              swap1\n              sstore\n              pop\n                /* \"Story.sol\":3414:3676  if(request.approversCount == authorsForReact.length){... */\n            tag_214:\n                /* \"Story.sol\":2819:3683  {... */\n              pop\n                /* \"Story.sol\":2766:3683  function approveRequestToJoin(uint256 _index) public {... */\n              pop\n              jump\t// out\n                /* \"Story.sol\":7121:7225  function getChapters() public view returns (address[] memory) {... */\n            tag_70:\n                /* \"Story.sol\":7165:7181  address[] memory */\n              0x60\n                /* \"Story.sol\":7201:7217  chaptersForReact */\n              0x07\n                /* \"Story.sol\":7194:7217  return chaptersForReact */\n              dup1\n              sload\n              dup1\n              0x20\n              mul\n              0x20\n              add\n              mload(0x40)\n              swap1\n              dup2\n              add\n              0x40\n              mstore\n              dup1\n              swap3\n              swap2\n              swap1\n              dup2\n              dup2\n              mstore\n              0x20\n              add\n              dup3\n              dup1\n              sload\n              dup1\n              iszero\n              tag_217\n              jumpi\n              0x20\n              mul\n              dup3\n              add\n              swap2\n              swap1\n              0x00\n              mstore\n              keccak256(0x00, 0x20)\n              swap1\n            tag_218:\n              dup2\n              0x00\n              swap1\n              sload\n              swap1\n              0x0100\n              exp\n              swap1\n              div\n              0xffffffffffffffffffffffffffffffffffffffff\n              and\n              0xffffffffffffffffffffffffffffffffffffffff\n              and\n              dup2\n              mstore\n              0x20\n              add\n              swap1\n              0x01\n              add\n              swap1\n              dup1\n              dup4\n              gt\n              tag_218\n              jumpi\n            tag_217:\n              pop\n              pop\n              pop\n              pop\n              pop\n              swap1\n              pop\n                /* \"Story.sol\":7121:7225  function getChapters() public view returns (address[] memory) {... */\n              swap1\n              jump\t// out\n                /* \"Story.sol\":1056:1088  address[] public authorsForReact */\n            tag_76:\n              0x05\n              dup2\n              dup2\n              sload\n              dup2\n              lt\n              tag_219\n              jumpi\n              0x00\n              dup1\n              revert\n            tag_219:\n              swap1\n              0x00\n              mstore\n              keccak256(0x00, 0x20)\n              add\n              0x00\n              swap2\n              pop\n              sload\n              swap1\n              0x0100\n              exp\n              swap1\n              div\n              0xffffffffffffffffffffffffffffffffffffffff\n              and\n              dup2\n              jump\t// out\n                /* \"Story.sol\":1153:1186  address[] public chaptersForReact */\n            tag_82:\n              0x07\n              dup2\n              dup2\n              sload\n              dup2\n              lt\n              tag_221\n              jumpi\n              0x00\n              dup1\n              revert\n            tag_221:\n              swap1\n              0x00\n              mstore\n              keccak256(0x00, 0x20)\n              add\n              0x00\n              swap2\n              pop\n              sload\n              swap1\n              0x0100\n              exp\n              swap1\n              div\n              0xffffffffffffffffffffffffffffffffffffffff\n              and\n              dup2\n              jump\t// out\n                /* \"Story.sol\":3691:4728  function createChapterRequest(string memory _ipfsHash, address _parentChapter, address _childChapter) public noReentrancy{... */\n            tag_88:\n                /* \"Story.sol\":8826:8833  _locked */\n              0x08\n              0x00\n              swap1\n              sload\n              swap1\n              0x0100\n              exp\n              swap1\n              div\n              0xff\n              and\n                /* \"Story.sol\":8825:8833  !_locked */\n              iszero\n                /* \"Story.sol\":8817:8852  require(!_locked, \"Reentrant call\") */\n              tag_224\n              jumpi\n              mload(0x40)\n              0x08c379a000000000000000000000000000000000000000000000000000000000\n              dup2\n              mstore\n              0x04\n              add\n              tag_225\n              swap1\n              tag_105\n              jump\t// in\n            tag_225:\n              mload(0x40)\n              dup1\n              swap2\n              sub\n              swap1\n              revert\n            tag_224:\n                /* \"Story.sol\":8873:8877  true */\n              0x01\n                /* \"Story.sol\":8863:8870  _locked */\n              0x08\n              0x00\n                /* \"Story.sol\":8863:8877  _locked = true */\n              0x0100\n              exp\n              dup2\n              sload\n              dup2\n              0xff\n              mul\n              not\n              and\n              swap1\n              dup4\n              iszero\n              iszero\n              mul\n              or\n              swap1\n              sstore\n              pop\n                /* \"Story.sol\":3832:3840  reported */\n              0x0b\n              0x00\n              swap1\n              sload\n              swap1\n              0x0100\n              exp\n              swap1\n              div\n              0xff\n              and\n                /* \"Story.sol\":3831:3840  !reported */\n              iszero\n                /* \"Story.sol\":3823:3873  require(!reported, \"This story has been reported\") */\n              tag_227\n              jumpi\n              mload(0x40)\n              0x08c379a000000000000000000000000000000000000000000000000000000000\n              dup2\n              mstore\n              0x04\n              add\n              tag_228\n              swap1\n              tag_109\n              jump\t// in\n            tag_228:\n              mload(0x40)\n              dup1\n              swap2\n              sub\n              swap1\n              revert\n            tag_227:\n                /* \"Story.sol\":3892:3910  authorsForSolidity */\n              0x04\n                /* \"Story.sol\":3892:3922  authorsForSolidity[msg.sender] */\n              0x00\n                /* \"Story.sol\":3911:3921  msg.sender */\n              caller\n                /* \"Story.sol\":3892:3922  authorsForSolidity[msg.sender] */\n              0xffffffffffffffffffffffffffffffffffffffff\n              and\n              0xffffffffffffffffffffffffffffffffffffffff\n              and\n              dup2\n              mstore\n              0x20\n              add\n              swap1\n              dup2\n              mstore\n              0x20\n              add\n              0x00\n              keccak256\n              0x00\n              swap1\n              sload\n              swap1\n              0x0100\n              exp\n              swap1\n              div\n              0xff\n              and\n                /* \"Story.sol\":3884:3976  require(authorsForSolidity[msg.sender],\"Only an accepted author can attempt to add chapter\") */\n              tag_229\n              jumpi\n              mload(0x40)\n              0x08c379a000000000000000000000000000000000000000000000000000000000\n              dup2\n              mstore\n              0x04\n              add\n              tag_230\n              swap1\n              tag_231\n              jump\t// in\n            tag_230:\n              mload(0x40)\n              dup1\n              swap2\n              sub\n              swap1\n              revert\n            tag_229:\n                /* \"Story.sol\":3995:4021  isContract(_parentChapter) */\n              tag_232\n                /* \"Story.sol\":4006:4020  _parentChapter */\n              dup3\n                /* \"Story.sol\":3995:4005  isContract */\n              tag_233\n                /* \"Story.sol\":3995:4021  isContract(_parentChapter) */\n              jump\t// in\n            tag_232:\n                /* \"Story.sol\":3987:4059  require(isContract(_parentChapter), \"Parent chapter must be a contract\") */\n              tag_234\n              jumpi\n              mload(0x40)\n              0x08c379a000000000000000000000000000000000000000000000000000000000\n              dup2\n              mstore\n              0x04\n              add\n              tag_235\n              swap1\n              tag_236\n              jump\t// in\n            tag_235:\n              mload(0x40)\n              dup1\n              swap2\n              sub\n              swap1\n              revert\n            tag_234:\n                /* \"Story.sol\":4078:4103  isContract(_childChapter) */\n              tag_237\n                /* \"Story.sol\":4089:4102  _childChapter */\n              dup2\n                /* \"Story.sol\":4078:4088  isContract */\n              tag_233\n                /* \"Story.sol\":4078:4103  isContract(_childChapter) */\n              jump\t// in\n            tag_237:\n                /* \"Story.sol\":4070:4140  require(isContract(_childChapter), \"Child chapter must be a contract\") */\n              tag_238\n              jumpi\n              mload(0x40)\n              0x08c379a000000000000000000000000000000000000000000000000000000000\n              dup2\n              mstore\n              0x04\n              add\n              tag_239\n              swap1\n              tag_240\n              jump\t// in\n            tag_239:\n              mload(0x40)\n              dup1\n              swap2\n              sub\n              swap1\n              revert\n            tag_238:\n                /* \"Story.sol\":4159:4193  checkParentChapter(_parentChapter) */\n              tag_241\n                /* \"Story.sol\":4178:4192  _parentChapter */\n              dup3\n                /* \"Story.sol\":4159:4177  checkParentChapter */\n              tag_242\n                /* \"Story.sol\":4159:4193  checkParentChapter(_parentChapter) */\n              jump\t// in\n            tag_241:\n                /* \"Story.sol\":4151:4242  require(checkParentChapter(_parentChapter), \"Parent chapter must belong to the same story\") */\n              tag_243\n              jumpi\n              mload(0x40)\n              0x08c379a000000000000000000000000000000000000000000000000000000000\n              dup2\n              mstore\n              0x04\n              add\n              tag_244\n              swap1\n              tag_245\n              jump\t// in\n            tag_244:\n              mload(0x40)\n              dup1\n              swap2\n              sub\n              swap1\n              revert\n            tag_243:\n                /* \"Story.sol\":4261:4293  checkChildChapter(_childChapter) */\n              tag_246\n                /* \"Story.sol\":4279:4292  _childChapter */\n              dup2\n                /* \"Story.sol\":4261:4278  checkChildChapter */\n              tag_247\n                /* \"Story.sol\":4261:4293  checkChildChapter(_childChapter) */\n              jump\t// in\n            tag_246:\n                /* \"Story.sol\":4253:4341  require(checkChildChapter(_childChapter), \"Child chapter must belong to the same story\") */\n              tag_248\n              jumpi\n              mload(0x40)\n              0x08c379a000000000000000000000000000000000000000000000000000000000\n              dup2\n              mstore\n              0x04\n              add\n              tag_249\n              swap1\n              tag_250\n              jump\t// in\n            tag_249:\n              mload(0x40)\n              dup1\n              swap2\n              sub\n              swap1\n              revert\n            tag_248:\n                /* \"Story.sol\":4352:4385  ChapterRequest storage newRequest */\n              0x00\n                /* \"Story.sol\":4388:4403  chapterRequests */\n              0x0d\n                /* \"Story.sol\":4388:4410  chapterRequests.push() */\n              0x01\n              dup2\n              0x01\n              dup2\n              sload\n              add\n              dup1\n              dup3\n              sstore\n              dup1\n              swap2\n              pop\n              pop\n              sub\n              swap1\n              0x00\n              mstore\n              keccak256(0x00, 0x20)\n              swap1\n              0x08\n              mul\n              add\n                /* \"Story.sol\":4352:4410  ChapterRequest storage newRequest = chapterRequests.push() */\n              swap1\n              pop\n                /* \"Story.sol\":4443:4452  _ipfsHash */\n              dup4\n                /* \"Story.sol\":4421:4431  newRequest */\n              dup2\n                /* \"Story.sol\":4421:4440  newRequest.ipfsHash */\n              0x00\n              add\n                /* \"Story.sol\":4421:4452  newRequest.ipfsHash = _ipfsHash */\n              swap1\n              dup1\n              mload\n              swap1\n              0x20\n              add\n              swap1\n              tag_252\n              swap3\n              swap2\n              swap1\n              tag_253\n              jump\t// in\n            tag_252:\n              pop\n                /* \"Story.sol\":4486:4501  block.timestamp */\n              timestamp\n                /* \"Story.sol\":4463:4473  newRequest */\n              dup2\n                /* \"Story.sol\":4463:4483  newRequest.timestamp */\n              0x01\n              add\n                /* \"Story.sol\":4463:4501  newRequest.timestamp = block.timestamp */\n              dup2\n              swap1\n              sstore\n              pop\n                /* \"Story.sol\":4532:4542  msg.sender */\n              caller\n                /* \"Story.sol\":4512:4522  newRequest */\n              dup2\n                /* \"Story.sol\":4512:4529  newRequest.author */\n              0x02\n              add\n              0x00\n                /* \"Story.sol\":4512:4542  newRequest.author = msg.sender */\n              0x0100\n              exp\n              dup2\n              sload\n              dup2\n              0xffffffffffffffffffffffffffffffffffffffff\n              mul\n              not\n              and\n              swap1\n              dup4\n              0xffffffffffffffffffffffffffffffffffffffff\n              and\n              mul\n              or\n              swap1\n              sstore\n              pop\n                /* \"Story.sol\":4580:4594  _parentChapter */\n              dup3\n                /* \"Story.sol\":4553:4563  newRequest */\n              dup2\n                /* \"Story.sol\":4553:4577  newRequest.parentChapter */\n              0x03\n              add\n              0x00\n                /* \"Story.sol\":4553:4594  newRequest.parentChapter = _parentChapter */\n              0x0100\n              exp\n              dup2\n              sload\n              dup2\n              0xffffffffffffffffffffffffffffffffffffffff\n              mul\n              not\n              and\n              swap1\n              dup4\n              0xffffffffffffffffffffffffffffffffffffffff\n              and\n              mul\n              or\n              swap1\n              sstore\n              pop\n                /* \"Story.sol\":4631:4644  _childChapter */\n              dup2\n                /* \"Story.sol\":4605:4615  newRequest */\n              dup2\n                /* \"Story.sol\":4605:4628  newRequest.childChapter */\n              0x04\n              add\n              0x00\n                /* \"Story.sol\":4605:4644  newRequest.childChapter = _childChapter */\n              0x0100\n              exp\n              dup2\n              sload\n              dup2\n              0xffffffffffffffffffffffffffffffffffffffff\n              mul\n              not\n              and\n              swap1\n              dup4\n              0xffffffffffffffffffffffffffffffffffffffff\n              and\n              mul\n              or\n              swap1\n              sstore\n              pop\n                /* \"Story.sol\":4683:4684  0 */\n              0x00\n                /* \"Story.sol\":4655:4665  newRequest */\n              dup2\n                /* \"Story.sol\":4655:4680  newRequest.approversCount */\n              0x06\n              add\n                /* \"Story.sol\":4655:4684  newRequest.approversCount = 0 */\n              dup2\n              swap1\n              sstore\n              pop\n                /* \"Story.sol\":4715:4720  false */\n              0x00\n                /* \"Story.sol\":4695:4705  newRequest */\n              dup2\n                /* \"Story.sol\":4695:4712  newRequest.status */\n              0x07\n              add\n              0x00\n                /* \"Story.sol\":4695:4720  newRequest.status = false */\n              0x0100\n              exp\n              dup2\n              sload\n              dup2\n              0xff\n              mul\n              not\n              and\n              swap1\n              dup4\n              iszero\n              iszero\n              mul\n              or\n              swap1\n              sstore\n              pop\n                /* \"Story.sol\":3812:4728  {... */\n              pop\n                /* \"Story.sol\":8910:8915  false */\n              0x00\n                /* \"Story.sol\":8900:8907  _locked */\n              0x08\n              0x00\n                /* \"Story.sol\":8900:8915  _locked = false */\n              0x0100\n              exp\n              dup2\n              sload\n              dup2\n              0xff\n              mul\n              not\n              and\n              swap1\n              dup4\n              iszero\n              iszero\n              mul\n              or\n              swap1\n              sstore\n              pop\n                /* \"Story.sol\":3691:4728  function createChapterRequest(string memory _ipfsHash, address _parentChapter, address _childChapter) public noReentrancy{... */\n              pop\n              pop\n              pop\n              jump\t// out\n                /* \"Story.sol\":6079:6262  function contribute() public payable noReentrancy{... */\n            tag_90:\n                /* \"Story.sol\":8826:8833  _locked */\n              0x08\n              0x00\n              swap1\n              sload\n              swap1\n              0x0100\n              exp\n              swap1\n              div\n              0xff\n              and\n                /* \"Story.sol\":8825:8833  !_locked */\n              iszero\n                /* \"Story.sol\":8817:8852  require(!_locked, \"Reentrant call\") */\n              tag_255\n              jumpi\n              mload(0x40)\n              0x08c379a000000000000000000000000000000000000000000000000000000000\n              dup2\n              mstore\n              0x04\n              add\n              tag_256\n              swap1\n              tag_105\n              jump\t// in\n            tag_256:\n              mload(0x40)\n              dup1\n              swap2\n              sub\n              swap1\n              revert\n            tag_255:\n                /* \"Story.sol\":8873:8877  true */\n              0x01\n                /* \"Story.sol\":8863:8870  _locked */\n              0x08\n              0x00\n                /* \"Story.sol\":8863:8877  _locked = true */\n              0x0100\n              exp\n              dup2\n              sload\n              dup2\n              0xff\n              mul\n              not\n              and\n              swap1\n              dup4\n              iszero\n              iszero\n              mul\n              or\n              swap1\n              sstore\n              pop\n                /* \"Story.sol\":6160:6163  100 */\n              0x64\n                /* \"Story.sol\":6147:6156  msg.value */\n              callvalue\n                /* \"Story.sol\":6147:6163  msg.value >= 100 */\n              lt\n              iszero\n                /* \"Story.sol\":6139:6199  require(msg.value >= 100, \"Minimum contribution is 100 Wei\") */\n              tag_258\n              jumpi\n              mload(0x40)\n              0x08c379a000000000000000000000000000000000000000000000000000000000\n              dup2\n              mstore\n              0x04\n              add\n              tag_259\n              swap1\n              tag_260\n              jump\t// in\n            tag_259:\n              mload(0x40)\n              dup1\n              swap2\n              sub\n              swap1\n              revert\n            tag_258:\n                /* \"Story.sol\":8910:8915  false */\n              0x00\n                /* \"Story.sol\":8900:8907  _locked */\n              0x08\n              0x00\n                /* \"Story.sol\":8900:8915  _locked = false */\n              0x0100\n              exp\n              dup2\n              sload\n              dup2\n              0xff\n              mul\n              not\n              and\n              swap1\n              dup4\n              iszero\n              iszero\n              mul\n              or\n              swap1\n              sstore\n              pop\n                /* \"Story.sol\":6079:6262  function contribute() public payable noReentrancy{... */\n              jump\t// out\n                /* \"Story.sol\":2254:2758  function createRequestToJoin(string memory _proposal) public {... */\n            tag_95:\n                /* \"Story.sol\":2335:2343  reported */\n              0x0b\n              0x00\n              swap1\n              sload\n              swap1\n              0x0100\n              exp\n              swap1\n              div\n              0xff\n              and\n                /* \"Story.sol\":2334:2343  !reported */\n              iszero\n                /* \"Story.sol\":2326:2376  require(!reported, \"This story has been reported\") */\n              tag_262\n              jumpi\n              mload(0x40)\n              0x08c379a000000000000000000000000000000000000000000000000000000000\n              dup2\n              mstore\n              0x04\n              add\n              tag_263\n              swap1\n              tag_109\n              jump\t// in\n            tag_263:\n              mload(0x40)\n              dup1\n              swap2\n              sub\n              swap1\n              revert\n            tag_262:\n                /* \"Story.sol\":2396:2414  authorsForSolidity */\n              0x04\n                /* \"Story.sol\":2396:2426  authorsForSolidity[msg.sender] */\n              0x00\n                /* \"Story.sol\":2415:2425  msg.sender */\n              caller\n                /* \"Story.sol\":2396:2426  authorsForSolidity[msg.sender] */\n              0xffffffffffffffffffffffffffffffffffffffff\n              and\n              0xffffffffffffffffffffffffffffffffffffffff\n              and\n              dup2\n              mstore\n              0x20\n              add\n              swap1\n              dup2\n              mstore\n              0x20\n              add\n              0x00\n              keccak256\n              0x00\n              swap1\n              sload\n              swap1\n              0x0100\n              exp\n              swap1\n              div\n              0xff\n              and\n                /* \"Story.sol\":2395:2426  !authorsForSolidity[msg.sender] */\n              iszero\n                /* \"Story.sol\":2387:2475  require(!authorsForSolidity[msg.sender], \"Author already exists in the list of authors\") */\n              tag_264\n              jumpi\n              mload(0x40)\n              0x08c379a000000000000000000000000000000000000000000000000000000000\n              dup2\n              mstore\n              0x04\n              add\n              tag_265\n              swap1\n              tag_266\n              jump\t// in\n            tag_265:\n              mload(0x40)\n              dup1\n              swap2\n              sub\n              swap1\n              revert\n            tag_264:\n                /* \"Story.sol\":2486:2518  RequestToJoin storage newRequest */\n              0x00\n                /* \"Story.sol\":2521:2535  requestsToJoin */\n              0x0c\n                /* \"Story.sol\":2521:2542  requestsToJoin.push() */\n              0x01\n              dup2\n              0x01\n              dup2\n              sload\n              add\n              dup1\n              dup3\n              sstore\n              dup1\n              swap2\n              pop\n              pop\n              sub\n              swap1\n              0x00\n              mstore\n              keccak256(0x00, 0x20)\n              swap1\n              0x06\n              mul\n              add\n                /* \"Story.sol\":2486:2542  RequestToJoin storage newRequest = requestsToJoin.push() */\n              swap1\n              pop\n                /* \"Story.sol\":2575:2584  _proposal */\n              dup2\n                /* \"Story.sol\":2553:2563  newRequest */\n              dup2\n                /* \"Story.sol\":2553:2572  newRequest.proposal */\n              0x00\n              add\n                /* \"Story.sol\":2553:2584  newRequest.proposal = _proposal */\n              swap1\n              dup1\n              mload\n              swap1\n              0x20\n              add\n              swap1\n              tag_268\n              swap3\n              swap2\n              swap1\n              tag_253\n              jump\t// in\n            tag_268:\n              pop\n                /* \"Story.sol\":2618:2633  block.timestamp */\n              timestamp\n                /* \"Story.sol\":2595:2605  newRequest */\n              dup2\n                /* \"Story.sol\":2595:2615  newRequest.timestamp */\n              0x01\n              add\n                /* \"Story.sol\":2595:2633  newRequest.timestamp = block.timestamp */\n              dup2\n              swap1\n              sstore\n              pop\n                /* \"Story.sol\":2664:2674  msg.sender */\n              caller\n                /* \"Story.sol\":2644:2654  newRequest */\n              dup2\n                /* \"Story.sol\":2644:2661  newRequest.author */\n              0x02\n              add\n              0x00\n                /* \"Story.sol\":2644:2674  newRequest.author = msg.sender */\n              0x0100\n              exp\n              dup2\n              sload\n              dup2\n              0xffffffffffffffffffffffffffffffffffffffff\n              mul\n              not\n              and\n              swap1\n              dup4\n              0xffffffffffffffffffffffffffffffffffffffff\n              and\n              mul\n              or\n              swap1\n              sstore\n              pop\n                /* \"Story.sol\":2713:2714  0 */\n              0x00\n                /* \"Story.sol\":2685:2695  newRequest */\n              dup2\n                /* \"Story.sol\":2685:2710  newRequest.approversCount */\n              0x04\n              add\n                /* \"Story.sol\":2685:2714  newRequest.approversCount = 0 */\n              dup2\n              swap1\n              sstore\n              pop\n                /* \"Story.sol\":2745:2750  false */\n              0x00\n                /* \"Story.sol\":2725:2735  newRequest */\n              dup2\n                /* \"Story.sol\":2725:2742  newRequest.status */\n              0x05\n              add\n              0x00\n                /* \"Story.sol\":2725:2750  newRequest.status = false */\n              0x0100\n              exp\n              dup2\n              sload\n              dup2\n              0xff\n              mul\n              not\n              and\n              swap1\n              dup4\n              iszero\n              iszero\n              mul\n              or\n              swap1\n              sstore\n              pop\n                /* \"Story.sol\":2315:2758  {... */\n              pop\n                /* \"Story.sol\":2254:2758  function createRequestToJoin(string memory _proposal) public {... */\n              pop\n              jump\t// out\n                /* \"Story.sol\":1852:1891  ChapterRequest[] public chapterRequests */\n            tag_99:\n              0x0d\n              dup2\n              dup2\n              sload\n              dup2\n              lt\n              tag_269\n              jumpi\n              0x00\n              dup1\n              revert\n            tag_269:\n              swap1\n              0x00\n              mstore\n              keccak256(0x00, 0x20)\n              swap1\n              0x08\n              mul\n              add\n              0x00\n              swap2\n              pop\n              swap1\n              pop\n              dup1\n              0x00\n              add\n              dup1\n              sload\n              tag_271\n              swap1\n              tag_172\n              jump\t// in\n            tag_271:\n              dup1\n              0x1f\n              add\n              0x20\n              dup1\n              swap2\n              div\n              mul\n              0x20\n              add\n              mload(0x40)\n              swap1\n              dup2\n              add\n              0x40\n              mstore\n              dup1\n              swap3\n              swap2\n              swap1\n              dup2\n              dup2\n              mstore\n              0x20\n              add\n              dup3\n              dup1\n              sload\n              tag_272\n              swap1\n              tag_172\n              jump\t// in\n            tag_272:\n              dup1\n              iszero\n              tag_273\n              jumpi\n              dup1\n              0x1f\n              lt\n              tag_274\n              jumpi\n              0x0100\n              dup1\n              dup4\n              sload\n              div\n              mul\n              dup4\n              mstore\n              swap2\n              0x20\n              add\n              swap2\n              jump(tag_273)\n            tag_274:\n              dup3\n              add\n              swap2\n              swap1\n              0x00\n              mstore\n              keccak256(0x00, 0x20)\n              swap1\n            tag_275:\n              dup2\n              sload\n              dup2\n              mstore\n              swap1\n              0x01\n              add\n              swap1\n              0x20\n              add\n              dup1\n              dup4\n              gt\n              tag_275\n              jumpi\n              dup3\n              swap1\n              sub\n              0x1f\n              and\n              dup3\n              add\n              swap2\n            tag_273:\n              pop\n              pop\n              pop\n              pop\n              pop\n              swap1\n              dup1\n              0x01\n              add\n              sload\n              swap1\n              dup1\n              0x02\n              add\n              0x00\n              swap1\n              sload\n              swap1\n              0x0100\n              exp\n              swap1\n              div\n              0xffffffffffffffffffffffffffffffffffffffff\n              and\n              swap1\n              dup1\n              0x03\n              add\n              0x00\n              swap1\n              sload\n              swap1\n              0x0100\n              exp\n              swap1\n              div\n              0xffffffffffffffffffffffffffffffffffffffff\n              and\n              swap1\n              dup1\n              0x04\n              add\n              0x00\n              swap1\n              sload\n              swap1\n              0x0100\n              exp\n              swap1\n              div\n              0xffffffffffffffffffffffffffffffffffffffff\n              and\n              swap1\n              dup1\n              0x06\n              add\n              sload\n              swap1\n              dup1\n              0x07\n              add\n              0x00\n              swap1\n              sload\n              swap1\n              0x0100\n              exp\n              swap1\n              div\n              0xff\n              and\n              swap1\n              pop\n              dup8\n              jump\t// out\n                /* \"Story.sol\":84:263  function add(uint256 a, uint256 b) internal pure returns (uint256) {... */\n            tag_114:\n                /* \"Story.sol\":142:149  uint256 */\n              0x00\n                /* \"Story.sol\":162:171  uint256 c */\n              dup1\n                /* \"Story.sol\":178:179  b */\n              dup3\n                /* \"Story.sol\":174:175  a */\n              dup5\n                /* \"Story.sol\":174:179  a + b */\n              tag_277\n              swap2\n              swap1\n              tag_278\n              jump\t// in\n            tag_277:\n                /* \"Story.sol\":162:179  uint256 c = a + b */\n              swap1\n              pop\n                /* \"Story.sol\":203:204  a */\n              dup4\n                /* \"Story.sol\":198:199  c */\n              dup2\n                /* \"Story.sol\":198:204  c >= a */\n              lt\n              iszero\n                /* \"Story.sol\":190:236  require(c >= a, \"SafeMath: addition overflow\") */\n              tag_279\n              jumpi\n              mload(0x40)\n              0x08c379a000000000000000000000000000000000000000000000000000000000\n              dup2\n              mstore\n              0x04\n              add\n              tag_280\n              swap1\n              tag_281\n              jump\t// in\n            tag_280:\n              mload(0x40)\n              dup1\n              swap2\n              sub\n              swap1\n              revert\n            tag_279:\n                /* \"Story.sol\":254:255  c */\n              dup1\n                /* \"Story.sol\":247:255  return c */\n              swap2\n              pop\n              pop\n                /* \"Story.sol\":84:263  function add(uint256 a, uint256 b) internal pure returns (uint256) {... */\n              swap3\n              swap2\n              pop\n              pop\n              jump\t// out\n                /* \"Story.sol\":269:422  function div(uint256 a, uint256 b) internal pure returns (uint256) {... */\n            tag_156:\n                /* \"Story.sol\":327:334  uint256 */\n              0x00\n                /* \"Story.sol\":359:360  0 */\n              dup1\n                /* \"Story.sol\":355:356  b */\n              dup3\n                /* \"Story.sol\":355:360  b > 0 */\n              gt\n                /* \"Story.sol\":347:391  require(b > 0, \"SafeMath: division by zero\") */\n              tag_283\n              jumpi\n              mload(0x40)\n              0x08c379a000000000000000000000000000000000000000000000000000000000\n              dup2\n              mstore\n              0x04\n              add\n              tag_284\n              swap1\n              tag_285\n              jump\t// in\n            tag_284:\n              mload(0x40)\n              dup1\n              swap2\n              sub\n              swap1\n              revert\n            tag_283:\n                /* \"Story.sol\":413:414  b */\n              dup2\n                /* \"Story.sol\":409:410  a */\n              dup4\n                /* \"Story.sol\":409:414  a / b */\n              tag_286\n              swap2\n              swap1\n              tag_287\n              jump\t// in\n            tag_286:\n                /* \"Story.sol\":402:414  return a / b */\n              swap1\n              pop\n                /* \"Story.sol\":269:422  function div(uint256 a, uint256 b) internal pure returns (uint256) {... */\n              swap3\n              swap2\n              pop\n              pop\n              jump\t// out\n                /* \"Story.sol\":8440:8772  function isContract(address account) internal view returns (bool) {... */\n            tag_233:\n                /* \"Story.sol\":8500:8504  bool */\n              0x00\n                /* \"Story.sol\":8601:8602  0 */\n              dup1\n                /* \"Story.sol\":8582:8603  account == address(0) */\n              0xffffffffffffffffffffffffffffffffffffffff\n              and\n                /* \"Story.sol\":8582:8589  account */\n              dup3\n                /* \"Story.sol\":8582:8603  account == address(0) */\n              0xffffffffffffffffffffffffffffffffffffffff\n              and\n              eq\n                /* \"Story.sol\":8578:8643  if (account == address(0)) {... */\n              iszero\n              tag_289\n              jumpi\n                /* \"Story.sol\":8627:8631  true */\n              0x01\n                /* \"Story.sol\":8620:8631  return true */\n              swap1\n              pop\n              jump(tag_288)\n                /* \"Story.sol\":8578:8643  if (account == address(0)) {... */\n            tag_289:\n                /* \"Story.sol\":8653:8665  uint256 size */\n              0x00\n                /* \"Story.sol\":8720:8727  account */\n              dup3\n                /* \"Story.sol\":8708:8728  extcodesize(account) */\n              extcodesize\n                /* \"Story.sol\":8700:8728  size := extcodesize(account) */\n              swap1\n              pop\n                /* \"Story.sol\":8763:8764  0 */\n              0x00\n                /* \"Story.sol\":8756:8760  size */\n              dup2\n                /* \"Story.sol\":8756:8764  size > 0 */\n              gt\n                /* \"Story.sol\":8749:8764  return size > 0 */\n              swap2\n              pop\n              pop\n                /* \"Story.sol\":8440:8772  function isContract(address account) internal view returns (bool) {... */\n            tag_288:\n              swap2\n              swap1\n              pop\n              jump\t// out\n                /* \"Story.sol\":7937:8155  function checkParentChapter(address parentChapter) internal view returns (bool){... */\n            tag_242:\n                /* \"Story.sol\":8011:8015  bool */\n              0x00\n                /* \"Story.sol\":8055:8056  0 */\n              dup1\n                /* \"Story.sol\":8030:8057  parentChapter == address(0) */\n              0xffffffffffffffffffffffffffffffffffffffff\n              and\n                /* \"Story.sol\":8030:8043  parentChapter */\n              dup3\n                /* \"Story.sol\":8030:8057  parentChapter == address(0) */\n              0xffffffffffffffffffffffffffffffffffffffff\n              and\n              eq\n                /* \"Story.sol\":8027:8096  if(parentChapter == address(0)){... */\n              iszero\n              tag_291\n              jumpi\n                /* \"Story.sol\":8080:8084  true */\n              0x01\n                /* \"Story.sol\":8073:8084  return true */\n              swap1\n              pop\n              jump(tag_290)\n                /* \"Story.sol\":8027:8096  if(parentChapter == address(0)){... */\n            tag_291:\n                /* \"Story.sol\":8113:8132  chaptersForSolidity */\n              0x06\n                /* \"Story.sol\":8113:8147  chaptersForSolidity[parentChapter] */\n              0x00\n                /* \"Story.sol\":8133:8146  parentChapter */\n              dup4\n                /* \"Story.sol\":8113:8147  chaptersForSolidity[parentChapter] */\n              0xffffffffffffffffffffffffffffffffffffffff\n              and\n              0xffffffffffffffffffffffffffffffffffffffff\n              and\n              dup2\n              mstore\n              0x20\n              add\n              swap1\n              dup2\n              mstore\n              0x20\n              add\n              0x00\n              keccak256\n              0x00\n              swap1\n              sload\n              swap1\n              0x0100\n              exp\n              swap1\n              div\n              0xff\n              and\n                /* \"Story.sol\":8106:8147  return chaptersForSolidity[parentChapter] */\n              swap1\n              pop\n                /* \"Story.sol\":7937:8155  function checkParentChapter(address parentChapter) internal view returns (bool){... */\n            tag_290:\n              swap2\n              swap1\n              pop\n              jump\t// out\n                /* \"Story.sol\":8218:8432  function checkChildChapter(address childChapter) internal view returns (bool){... */\n            tag_247:\n                /* \"Story.sol\":8290:8294  bool */\n              0x00\n                /* \"Story.sol\":8333:8334  0 */\n              dup1\n                /* \"Story.sol\":8309:8335  childChapter == address(0) */\n              0xffffffffffffffffffffffffffffffffffffffff\n              and\n                /* \"Story.sol\":8309:8321  childChapter */\n              dup3\n                /* \"Story.sol\":8309:8335  childChapter == address(0) */\n              0xffffffffffffffffffffffffffffffffffffffff\n              and\n              eq\n                /* \"Story.sol\":8306:8374  if(childChapter == address(0)){... */\n              iszero\n              tag_293\n              jumpi\n                /* \"Story.sol\":8358:8362  true */\n              0x01\n                /* \"Story.sol\":8351:8362  return true */\n              swap1\n              pop\n              jump(tag_292)\n                /* \"Story.sol\":8306:8374  if(childChapter == address(0)){... */\n            tag_293:\n                /* \"Story.sol\":8391:8410  chaptersForSolidity */\n              0x06\n                /* \"Story.sol\":8391:8424  chaptersForSolidity[childChapter] */\n              0x00\n                /* \"Story.sol\":8411:8423  childChapter */\n              dup4\n                /* \"Story.sol\":8391:8424  chaptersForSolidity[childChapter] */\n              0xffffffffffffffffffffffffffffffffffffffff\n              and\n              0xffffffffffffffffffffffffffffffffffffffff\n              and\n              dup2\n              mstore\n              0x20\n              add\n              swap1\n              dup2\n              mstore\n              0x20\n              add\n              0x00\n              keccak256\n              0x00\n              swap1\n              sload\n              swap1\n              0x0100\n              exp\n              swap1\n              div\n              0xff\n              and\n                /* \"Story.sol\":8384:8424  return chaptersForSolidity[childChapter] */\n              swap1\n              pop\n                /* \"Story.sol\":8218:8432  function checkChildChapter(address childChapter) internal view returns (bool){... */\n            tag_292:\n              swap2\n              swap1\n              pop\n              jump\t// out\n            tag_136:\n              dataSize(sub_0)\n              dup1\n              dataOffset(sub_0)\n              dup4\n              codecopy\n              add\n              swap1\n              jump\t// out\n            tag_253:\n              dup3\n              dup1\n              sload\n              tag_294\n              swap1\n              tag_172\n              jump\t// in\n            tag_294:\n              swap1\n              0x00\n              mstore\n              keccak256(0x00, 0x20)\n              swap1\n              0x1f\n              add\n              0x20\n              swap1\n              div\n              dup2\n              add\n              swap3\n              dup3\n              tag_296\n              jumpi\n              0x00\n              dup6\n              sstore\n              jump(tag_295)\n            tag_296:\n              dup3\n              0x1f\n              lt\n              tag_297\n              jumpi\n              dup1\n              mload\n              not(0xff)\n              and\n              dup4\n              dup1\n              add\n              or\n              dup6\n              sstore\n              jump(tag_295)\n            tag_297:\n              dup3\n              dup1\n              add\n              0x01\n              add\n              dup6\n              sstore\n              dup3\n              iszero\n              tag_295\n              jumpi\n              swap2\n              dup3\n              add\n            tag_298:\n              dup3\n              dup2\n              gt\n              iszero\n              tag_299\n              jumpi\n              dup3\n              mload\n              dup3\n              sstore\n              swap2\n              0x20\n              add\n              swap2\n              swap1\n              0x01\n              add\n              swap1\n              jump(tag_298)\n            tag_299:\n            tag_295:\n              pop\n              swap1\n              pop\n              tag_300\n              swap2\n              swap1\n              tag_301\n              jump\t// in\n            tag_300:\n              pop\n              swap1\n              jump\t// out\n            tag_301:\n            tag_302:\n              dup1\n              dup3\n              gt\n              iszero\n              tag_303\n              jumpi\n              0x00\n              dup2\n              0x00\n              swap1\n              sstore\n              pop\n              0x01\n              add\n              jump(tag_302)\n            tag_303:\n              pop\n              swap1\n              jump\t// out\n                /* \"#utility.yul\":7:82   */\n            tag_304:\n                /* \"#utility.yul\":40:46   */\n              0x00\n                /* \"#utility.yul\":73:75   */\n              0x40\n                /* \"#utility.yul\":67:76   */\n              mload\n                /* \"#utility.yul\":57:76   */\n              swap1\n              pop\n                /* \"#utility.yul\":7:82   */\n              swap1\n              jump\t// out\n                /* \"#utility.yul\":88:205   */\n            tag_305:\n                /* \"#utility.yul\":197:198   */\n              0x00\n                /* \"#utility.yul\":194:195   */\n              dup1\n                /* \"#utility.yul\":187:199   */\n              revert\n                /* \"#utility.yul\":211:328   */\n            tag_306:\n                /* \"#utility.yul\":320:321   */\n              0x00\n                /* \"#utility.yul\":317:318   */\n              dup1\n                /* \"#utility.yul\":310:322   */\n              revert\n                /* \"#utility.yul\":334:411   */\n            tag_307:\n                /* \"#utility.yul\":371:378   */\n              0x00\n                /* \"#utility.yul\":400:405   */\n              dup2\n                /* \"#utility.yul\":389:405   */\n              swap1\n              pop\n                /* \"#utility.yul\":334:411   */\n              swap2\n              swap1\n              pop\n              jump\t// out\n                /* \"#utility.yul\":417:539   */\n            tag_308:\n                /* \"#utility.yul\":490:514   */\n              tag_384\n                /* \"#utility.yul\":508:513   */\n              dup2\n                /* \"#utility.yul\":490:514   */\n              tag_307\n              jump\t// in\n            tag_384:\n                /* \"#utility.yul\":483:488   */\n              dup2\n                /* \"#utility.yul\":480:515   */\n              eq\n                /* \"#utility.yul\":470:533   */\n              tag_385\n              jumpi\n                /* \"#utility.yul\":529:530   */\n              0x00\n                /* \"#utility.yul\":526:527   */\n              dup1\n                /* \"#utility.yul\":519:531   */\n              revert\n                /* \"#utility.yul\":470:533   */\n            tag_385:\n                /* \"#utility.yul\":417:539   */\n              pop\n              jump\t// out\n                /* \"#utility.yul\":545:684   */\n            tag_309:\n                /* \"#utility.yul\":591:596   */\n              0x00\n                /* \"#utility.yul\":629:635   */\n              dup2\n                /* \"#utility.yul\":616:636   */\n              calldataload\n                /* \"#utility.yul\":607:636   */\n              swap1\n              pop\n                /* \"#utility.yul\":645:678   */\n              tag_387\n                /* \"#utility.yul\":672:677   */\n              dup2\n                /* \"#utility.yul\":645:678   */\n              tag_308\n              jump\t// in\n            tag_387:\n                /* \"#utility.yul\":545:684   */\n              swap3\n              swap2\n              pop\n              pop\n              jump\t// out\n                /* \"#utility.yul\":690:1019   */\n            tag_28:\n                /* \"#utility.yul\":749:755   */\n              0x00\n                /* \"#utility.yul\":798:800   */\n              0x20\n                /* \"#utility.yul\":786:795   */\n              dup3\n                /* \"#utility.yul\":777:784   */\n              dup5\n                /* \"#utility.yul\":773:796   */\n              sub\n                /* \"#utility.yul\":769:801   */\n              slt\n                /* \"#utility.yul\":766:885   */\n              iszero\n              tag_389\n              jumpi\n                /* \"#utility.yul\":804:883   */\n              tag_390\n              tag_305\n              jump\t// in\n            tag_390:\n                /* \"#utility.yul\":766:885   */\n            tag_389:\n                /* \"#utility.yul\":924:925   */\n              0x00\n                /* \"#utility.yul\":949:1002   */\n              tag_391\n                /* \"#utility.yul\":994:1001   */\n              dup5\n                /* \"#utility.yul\":985:991   */\n              dup3\n                /* \"#utility.yul\":974:983   */\n              dup6\n                /* \"#utility.yul\":970:992   */\n              add\n                /* \"#utility.yul\":949:1002   */\n              tag_309\n              jump\t// in\n            tag_391:\n                /* \"#utility.yul\":939:1002   */\n              swap2\n              pop\n                /* \"#utility.yul\":895:1012   */\n              pop\n                /* \"#utility.yul\":690:1019   */\n              swap3\n              swap2\n              pop\n              pop\n              jump\t// out\n                /* \"#utility.yul\":1025:1151   */\n            tag_310:\n                /* \"#utility.yul\":1062:1069   */\n              0x00\n                /* \"#utility.yul\":1102:1144   */\n              0xffffffffffffffffffffffffffffffffffffffff\n                /* \"#utility.yul\":1095:1100   */\n              dup3\n                /* \"#utility.yul\":1091:1145   */\n              and\n                /* \"#utility.yul\":1080:1145   */\n              swap1\n              pop\n                /* \"#utility.yul\":1025:1151   */\n              swap2\n              swap1\n              pop\n              jump\t// out\n                /* \"#utility.yul\":1157:1253   */\n            tag_311:\n                /* \"#utility.yul\":1194:1201   */\n              0x00\n                /* \"#utility.yul\":1223:1247   */\n              tag_394\n                /* \"#utility.yul\":1241:1246   */\n              dup3\n                /* \"#utility.yul\":1223:1247   */\n              tag_310\n              jump\t// in\n            tag_394:\n                /* \"#utility.yul\":1212:1247   */\n              swap1\n              pop\n                /* \"#utility.yul\":1157:1253   */\n              swap2\n              swap1\n              pop\n              jump\t// out\n                /* \"#utility.yul\":1259:1381   */\n            tag_312:\n                /* \"#utility.yul\":1332:1356   */\n              tag_396\n                /* \"#utility.yul\":1350:1355   */\n              dup2\n                /* \"#utility.yul\":1332:1356   */\n              tag_311\n              jump\t// in\n            tag_396:\n                /* \"#utility.yul\":1325:1330   */\n              dup2\n                /* \"#utility.yul\":1322:1357   */\n              eq\n                /* \"#utility.yul\":1312:1375   */\n              tag_397\n              jumpi\n                /* \"#utility.yul\":1371:1372   */\n              0x00\n                /* \"#utility.yul\":1368:1369   */\n              dup1\n                /* \"#utility.yul\":1361:1373   */\n              revert\n                /* \"#utility.yul\":1312:1375   */\n            tag_397:\n                /* \"#utility.yul\":1259:1381   */\n              pop\n              jump\t// out\n                /* \"#utility.yul\":1387:1526   */\n            tag_313:\n                /* \"#utility.yul\":1433:1438   */\n              0x00\n                /* \"#utility.yul\":1471:1477   */\n              dup2\n                /* \"#utility.yul\":1458:1478   */\n              calldataload\n                /* \"#utility.yul\":1449:1478   */\n              swap1\n              pop\n                /* \"#utility.yul\":1487:1520   */\n              tag_399\n                /* \"#utility.yul\":1514:1519   */\n              dup2\n                /* \"#utility.yul\":1487:1520   */\n              tag_312\n              jump\t// in\n            tag_399:\n                /* \"#utility.yul\":1387:1526   */\n              swap3\n              swap2\n              pop\n              pop\n              jump\t// out\n                /* \"#utility.yul\":1532:1861   */\n            tag_36:\n                /* \"#utility.yul\":1591:1597   */\n              0x00\n                /* \"#utility.yul\":1640:1642   */\n              0x20\n                /* \"#utility.yul\":1628:1637   */\n              dup3\n                /* \"#utility.yul\":1619:1626   */\n              dup5\n                /* \"#utility.yul\":1615:1638   */\n              sub\n                /* \"#utility.yul\":1611:1643   */\n              slt\n                /* \"#utility.yul\":1608:1727   */\n              iszero\n              tag_401\n              jumpi\n                /* \"#utility.yul\":1646:1725   */\n              tag_402\n              tag_305\n              jump\t// in\n            tag_402:\n                /* \"#utility.yul\":1608:1727   */\n            tag_401:\n                /* \"#utility.yul\":1766:1767   */\n              0x00\n                /* \"#utility.yul\":1791:1844   */\n              tag_403\n                /* \"#utility.yul\":1836:1843   */\n              dup5\n                /* \"#utility.yul\":1827:1833   */\n              dup3\n                /* \"#utility.yul\":1816:1825   */\n              dup6\n                /* \"#utility.yul\":1812:1834   */\n              add\n                /* \"#utility.yul\":1791:1844   */\n              tag_313\n              jump\t// in\n            tag_403:\n                /* \"#utility.yul\":1781:1844   */\n              swap2\n              pop\n                /* \"#utility.yul\":1737:1854   */\n              pop\n                /* \"#utility.yul\":1532:1861   */\n              swap3\n              swap2\n              pop\n              pop\n              jump\t// out\n                /* \"#utility.yul\":1867:1957   */\n            tag_314:\n                /* \"#utility.yul\":1901:1908   */\n              0x00\n                /* \"#utility.yul\":1944:1949   */\n              dup2\n                /* \"#utility.yul\":1937:1950   */\n              iszero\n                /* \"#utility.yul\":1930:1951   */\n              iszero\n                /* \"#utility.yul\":1919:1951   */\n              swap1\n              pop\n                /* \"#utility.yul\":1867:1957   */\n              swap2\n              swap1\n              pop\n              jump\t// out\n                /* \"#utility.yul\":1963:2072   */\n            tag_315:\n                /* \"#utility.yul\":2044:2065   */\n              tag_406\n                /* \"#utility.yul\":2059:2064   */\n              dup2\n                /* \"#utility.yul\":2044:2065   */\n              tag_314\n              jump\t// in\n            tag_406:\n                /* \"#utility.yul\":2039:2042   */\n              dup3\n                /* \"#utility.yul\":2032:2066   */\n              mstore\n                /* \"#utility.yul\":1963:2072   */\n              pop\n              pop\n              jump\t// out\n                /* \"#utility.yul\":2078:2288   */\n            tag_39:\n                /* \"#utility.yul\":2165:2169   */\n              0x00\n                /* \"#utility.yul\":2203:2205   */\n              0x20\n                /* \"#utility.yul\":2192:2201   */\n              dup3\n                /* \"#utility.yul\":2188:2206   */\n              add\n                /* \"#utility.yul\":2180:2206   */\n              swap1\n              pop\n                /* \"#utility.yul\":2216:2281   */\n              tag_408\n                /* \"#utility.yul\":2278:2279   */\n              0x00\n                /* \"#utility.yul\":2267:2276   */\n              dup4\n                /* \"#utility.yul\":2263:2280   */\n              add\n                /* \"#utility.yul\":2254:2260   */\n              dup5\n                /* \"#utility.yul\":2216:2281   */\n              tag_315\n              jump\t// in\n            tag_408:\n                /* \"#utility.yul\":2078:2288   */\n              swap3\n              swap2\n              pop\n              pop\n              jump\t// out\n                /* \"#utility.yul\":2294:2412   */\n            tag_316:\n                /* \"#utility.yul\":2381:2405   */\n              tag_410\n                /* \"#utility.yul\":2399:2404   */\n              dup2\n                /* \"#utility.yul\":2381:2405   */\n              tag_311\n              jump\t// in\n            tag_410:\n                /* \"#utility.yul\":2376:2379   */\n              dup3\n                /* \"#utility.yul\":2369:2406   */\n              mstore\n                /* \"#utility.yul\":2294:2412   */\n              pop\n              pop\n              jump\t// out\n                /* \"#utility.yul\":2418:2517   */\n            tag_317:\n                /* \"#utility.yul\":2470:2476   */\n              0x00\n                /* \"#utility.yul\":2504:2509   */\n              dup2\n                /* \"#utility.yul\":2498:2510   */\n              mload\n                /* \"#utility.yul\":2488:2510   */\n              swap1\n              pop\n                /* \"#utility.yul\":2418:2517   */\n              swap2\n              swap1\n              pop\n              jump\t// out\n                /* \"#utility.yul\":2523:2692   */\n            tag_318:\n                /* \"#utility.yul\":2607:2618   */\n              0x00\n                /* \"#utility.yul\":2641:2647   */\n              dup3\n                /* \"#utility.yul\":2636:2639   */\n              dup3\n                /* \"#utility.yul\":2629:2648   */\n              mstore\n                /* \"#utility.yul\":2681:2685   */\n              0x20\n                /* \"#utility.yul\":2676:2679   */\n              dup3\n                /* \"#utility.yul\":2672:2686   */\n              add\n                /* \"#utility.yul\":2657:2686   */\n              swap1\n              pop\n                /* \"#utility.yul\":2523:2692   */\n              swap3\n              swap2\n              pop\n              pop\n              jump\t// out\n                /* \"#utility.yul\":2698:3005   */\n            tag_319:\n                /* \"#utility.yul\":2766:2767   */\n              0x00\n                /* \"#utility.yul\":2776:2889   */\n            tag_414:\n                /* \"#utility.yul\":2790:2796   */\n              dup4\n                /* \"#utility.yul\":2787:2788   */\n              dup2\n                /* \"#utility.yul\":2784:2797   */\n              lt\n                /* \"#utility.yul\":2776:2889   */\n              iszero\n              tag_416\n              jumpi\n                /* \"#utility.yul\":2875:2876   */\n              dup1\n                /* \"#utility.yul\":2870:2873   */\n              dup3\n                /* \"#utility.yul\":2866:2877   */\n              add\n                /* \"#utility.yul\":2860:2878   */\n              mload\n                /* \"#utility.yul\":2856:2857   */\n              dup2\n                /* \"#utility.yul\":2851:2854   */\n              dup5\n                /* \"#utility.yul\":2847:2858   */\n              add\n                /* \"#utility.yul\":2840:2879   */\n              mstore\n                /* \"#utility.yul\":2812:2814   */\n              0x20\n                /* \"#utility.yul\":2809:2810   */\n              dup2\n                /* \"#utility.yul\":2805:2815   */\n              add\n                /* \"#utility.yul\":2800:2815   */\n              swap1\n              pop\n                /* \"#utility.yul\":2776:2889   */\n              jump(tag_414)\n            tag_416:\n                /* \"#utility.yul\":2907:2913   */\n              dup4\n                /* \"#utility.yul\":2904:2905   */\n              dup2\n                /* \"#utility.yul\":2901:2914   */\n              gt\n                /* \"#utility.yul\":2898:2999   */\n              iszero\n              tag_417\n              jumpi\n                /* \"#utility.yul\":2987:2988   */\n              0x00\n                /* \"#utility.yul\":2978:2984   */\n              dup5\n                /* \"#utility.yul\":2973:2976   */\n              dup5\n                /* \"#utility.yul\":2969:2985   */\n              add\n                /* \"#utility.yul\":2962:2989   */\n              mstore\n                /* \"#utility.yul\":2898:2999   */\n            tag_417:\n                /* \"#utility.yul\":2747:3005   */\n              pop\n                /* \"#utility.yul\":2698:3005   */\n              pop\n              pop\n              pop\n              jump\t// out\n                /* \"#utility.yul\":3011:3113   */\n            tag_320:\n                /* \"#utility.yul\":3052:3058   */\n              0x00\n                /* \"#utility.yul\":3103:3105   */\n              0x1f\n                /* \"#utility.yul\":3099:3106   */\n              not\n                /* \"#utility.yul\":3094:3096   */\n              0x1f\n                /* \"#utility.yul\":3087:3092   */\n              dup4\n                /* \"#utility.yul\":3083:3097   */\n              add\n                /* \"#utility.yul\":3079:3107   */\n              and\n                /* \"#utility.yul\":3069:3107   */\n              swap1\n              pop\n                /* \"#utility.yul\":3011:3113   */\n              swap2\n              swap1\n              pop\n              jump\t// out\n                /* \"#utility.yul\":3119:3483   */\n            tag_321:\n                /* \"#utility.yul\":3207:3210   */\n              0x00\n                /* \"#utility.yul\":3235:3274   */\n              tag_420\n                /* \"#utility.yul\":3268:3273   */\n              dup3\n                /* \"#utility.yul\":3235:3274   */\n              tag_317\n              jump\t// in\n            tag_420:\n                /* \"#utility.yul\":3290:3361   */\n              tag_421\n                /* \"#utility.yul\":3354:3360   */\n              dup2\n                /* \"#utility.yul\":3349:3352   */\n              dup6\n                /* \"#utility.yul\":3290:3361   */\n              tag_318\n              jump\t// in\n            tag_421:\n                /* \"#utility.yul\":3283:3361   */\n              swap4\n              pop\n                /* \"#utility.yul\":3370:3422   */\n              tag_422\n                /* \"#utility.yul\":3415:3421   */\n              dup2\n                /* \"#utility.yul\":3410:3413   */\n              dup6\n                /* \"#utility.yul\":3403:3407   */\n              0x20\n                /* \"#utility.yul\":3396:3401   */\n              dup7\n                /* \"#utility.yul\":3392:3408   */\n              add\n                /* \"#utility.yul\":3370:3422   */\n              tag_319\n              jump\t// in\n            tag_422:\n                /* \"#utility.yul\":3447:3476   */\n              tag_423\n                /* \"#utility.yul\":3469:3475   */\n              dup2\n                /* \"#utility.yul\":3447:3476   */\n              tag_320\n              jump\t// in\n            tag_423:\n                /* \"#utility.yul\":3442:3445   */\n              dup5\n                /* \"#utility.yul\":3438:3477   */\n              add\n                /* \"#utility.yul\":3431:3477   */\n              swap2\n              pop\n                /* \"#utility.yul\":3211:3483   */\n              pop\n                /* \"#utility.yul\":3119:3483   */\n              swap3\n              swap2\n              pop\n              pop\n              jump\t// out\n                /* \"#utility.yul\":3489:3603   */\n            tag_322:\n                /* \"#utility.yul\":3556:3562   */\n              0x00\n                /* \"#utility.yul\":3590:3595   */\n              dup2\n                /* \"#utility.yul\":3584:3596   */\n              mload\n                /* \"#utility.yul\":3574:3596   */\n              swap1\n              pop\n                /* \"#utility.yul\":3489:3603   */\n              swap2\n              swap1\n              pop\n              jump\t// out\n                /* \"#utility.yul\":3609:3793   */\n            tag_323:\n                /* \"#utility.yul\":3708:3719   */\n              0x00\n                /* \"#utility.yul\":3742:3748   */\n              dup3\n                /* \"#utility.yul\":3737:3740   */\n              dup3\n                /* \"#utility.yul\":3730:3749   */\n              mstore\n                /* \"#utility.yul\":3782:3786   */\n              0x20\n                /* \"#utility.yul\":3777:3780   */\n              dup3\n                /* \"#utility.yul\":3773:3787   */\n              add\n                /* \"#utility.yul\":3758:3787   */\n              swap1\n              pop\n                /* \"#utility.yul\":3609:3793   */\n              swap3\n              swap2\n              pop\n              pop\n              jump\t// out\n                /* \"#utility.yul\":3799:3931   */\n            tag_324:\n                /* \"#utility.yul\":3866:3870   */\n              0x00\n                /* \"#utility.yul\":3889:3892   */\n              dup2\n                /* \"#utility.yul\":3881:3892   */\n              swap1\n              pop\n                /* \"#utility.yul\":3919:3923   */\n              0x20\n                /* \"#utility.yul\":3914:3917   */\n              dup3\n                /* \"#utility.yul\":3910:3924   */\n              add\n                /* \"#utility.yul\":3902:3924   */\n              swap1\n              pop\n                /* \"#utility.yul\":3799:3931   */\n              swap2\n              swap1\n              pop\n              jump\t// out\n                /* \"#utility.yul\":3937:4045   */\n            tag_325:\n                /* \"#utility.yul\":4014:4038   */\n              tag_428\n                /* \"#utility.yul\":4032:4037   */\n              dup2\n                /* \"#utility.yul\":4014:4038   */\n              tag_311\n              jump\t// in\n            tag_428:\n                /* \"#utility.yul\":4009:4012   */\n              dup3\n                /* \"#utility.yul\":4002:4039   */\n              mstore\n                /* \"#utility.yul\":3937:4045   */\n              pop\n              pop\n              jump\t// out\n                /* \"#utility.yul\":4051:4230   */\n            tag_326:\n                /* \"#utility.yul\":4120:4130   */\n              0x00\n                /* \"#utility.yul\":4141:4187   */\n              tag_430\n                /* \"#utility.yul\":4183:4186   */\n              dup4\n                /* \"#utility.yul\":4175:4181   */\n              dup4\n                /* \"#utility.yul\":4141:4187   */\n              tag_325\n              jump\t// in\n            tag_430:\n                /* \"#utility.yul\":4219:4223   */\n              0x20\n                /* \"#utility.yul\":4214:4217   */\n              dup4\n                /* \"#utility.yul\":4210:4224   */\n              add\n                /* \"#utility.yul\":4196:4224   */\n              swap1\n              pop\n                /* \"#utility.yul\":4051:4230   */\n              swap3\n              swap2\n              pop\n              pop\n              jump\t// out\n                /* \"#utility.yul\":4236:4349   */\n            tag_327:\n                /* \"#utility.yul\":4306:4310   */\n              0x00\n                /* \"#utility.yul\":4338:4342   */\n              0x20\n                /* \"#utility.yul\":4333:4336   */\n              dup3\n                /* \"#utility.yul\":4329:4343   */\n              add\n                /* \"#utility.yul\":4321:4343   */\n              swap1\n              pop\n                /* \"#utility.yul\":4236:4349   */\n              swap2\n              swap1\n              pop\n              jump\t// out\n                /* \"#utility.yul\":4385:5117   */\n            tag_328:\n                /* \"#utility.yul\":4504:4507   */\n              0x00\n                /* \"#utility.yul\":4533:4587   */\n              tag_433\n                /* \"#utility.yul\":4581:4586   */\n              dup3\n                /* \"#utility.yul\":4533:4587   */\n              tag_322\n              jump\t// in\n            tag_433:\n                /* \"#utility.yul\":4603:4689   */\n              tag_434\n                /* \"#utility.yul\":4682:4688   */\n              dup2\n                /* \"#utility.yul\":4677:4680   */\n              dup6\n                /* \"#utility.yul\":4603:4689   */\n              tag_323\n              jump\t// in\n            tag_434:\n                /* \"#utility.yul\":4596:4689   */\n              swap4\n              pop\n                /* \"#utility.yul\":4713:4769   */\n              tag_435\n                /* \"#utility.yul\":4763:4768   */\n              dup4\n                /* \"#utility.yul\":4713:4769   */\n              tag_324\n              jump\t// in\n            tag_435:\n                /* \"#utility.yul\":4792:4799   */\n              dup1\n                /* \"#utility.yul\":4823:4824   */\n              0x00\n                /* \"#utility.yul\":4808:5092   */\n            tag_436:\n                /* \"#utility.yul\":4833:4839   */\n              dup4\n                /* \"#utility.yul\":4830:4831   */\n              dup2\n                /* \"#utility.yul\":4827:4840   */\n              lt\n                /* \"#utility.yul\":4808:5092   */\n              iszero\n              tag_438\n              jumpi\n                /* \"#utility.yul\":4909:4915   */\n              dup2\n                /* \"#utility.yul\":4903:4916   */\n              mload\n                /* \"#utility.yul\":4936:4999   */\n              tag_439\n                /* \"#utility.yul\":4995:4998   */\n              dup9\n                /* \"#utility.yul\":4980:4993   */\n              dup3\n                /* \"#utility.yul\":4936:4999   */\n              tag_326\n              jump\t// in\n            tag_439:\n                /* \"#utility.yul\":4929:4999   */\n              swap8\n              pop\n                /* \"#utility.yul\":5022:5082   */\n              tag_440\n                /* \"#utility.yul\":5075:5081   */\n              dup4\n                /* \"#utility.yul\":5022:5082   */\n              tag_327\n              jump\t// in\n            tag_440:\n                /* \"#utility.yul\":5012:5082   */\n              swap3\n              pop\n                /* \"#utility.yul\":4868:5092   */\n              pop\n                /* \"#utility.yul\":4855:4856   */\n              0x01\n                /* \"#utility.yul\":4852:4853   */\n              dup2\n                /* \"#utility.yul\":4848:4857   */\n              add\n                /* \"#utility.yul\":4843:4857   */\n              swap1\n              pop\n                /* \"#utility.yul\":4808:5092   */\n              jump(tag_436)\n            tag_438:\n                /* \"#utility.yul\":4812:4826   */\n              pop\n                /* \"#utility.yul\":5108:5111   */\n              dup6\n                /* \"#utility.yul\":5101:5111   */\n              swap4\n              pop\n                /* \"#utility.yul\":4509:5117   */\n              pop\n              pop\n              pop\n                /* \"#utility.yul\":4385:5117   */\n              swap3\n              swap2\n              pop\n              pop\n              jump\t// out\n                /* \"#utility.yul\":5123:5241   */\n            tag_329:\n                /* \"#utility.yul\":5210:5234   */\n              tag_442\n                /* \"#utility.yul\":5228:5233   */\n              dup2\n                /* \"#utility.yul\":5210:5234   */\n              tag_307\n              jump\t// in\n            tag_442:\n                /* \"#utility.yul\":5205:5208   */\n              dup3\n                /* \"#utility.yul\":5198:5235   */\n              mstore\n                /* \"#utility.yul\":5123:5241   */\n              pop\n              pop\n              jump\t// out\n                /* \"#utility.yul\":5247:7142   */\n            tag_44:\n                /* \"#utility.yul\":5775:5779   */\n              0x00\n                /* \"#utility.yul\":5813:5816   */\n              0x0160\n                /* \"#utility.yul\":5802:5811   */\n              dup3\n                /* \"#utility.yul\":5798:5817   */\n              add\n                /* \"#utility.yul\":5790:5817   */\n              swap1\n              pop\n                /* \"#utility.yul\":5827:5898   */\n              tag_444\n                /* \"#utility.yul\":5895:5896   */\n              0x00\n                /* \"#utility.yul\":5884:5893   */\n              dup4\n                /* \"#utility.yul\":5880:5897   */\n              add\n                /* \"#utility.yul\":5871:5877   */\n              dup15\n                /* \"#utility.yul\":5827:5898   */\n              tag_316\n              jump\t// in\n            tag_444:\n                /* \"#utility.yul\":5945:5954   */\n              dup2\n                /* \"#utility.yul\":5939:5943   */\n              dup2\n                /* \"#utility.yul\":5935:5955   */\n              sub\n                /* \"#utility.yul\":5930:5932   */\n              0x20\n                /* \"#utility.yul\":5919:5928   */\n              dup4\n                /* \"#utility.yul\":5915:5933   */\n              add\n                /* \"#utility.yul\":5908:5956   */\n              mstore\n                /* \"#utility.yul\":5973:6051   */\n              tag_445\n                /* \"#utility.yul\":6046:6050   */\n              dup2\n                /* \"#utility.yul\":6037:6043   */\n              dup14\n                /* \"#utility.yul\":5973:6051   */\n              tag_321\n              jump\t// in\n            tag_445:\n                /* \"#utility.yul\":5965:6051   */\n              swap1\n              pop\n                /* \"#utility.yul\":6098:6107   */\n              dup2\n                /* \"#utility.yul\":6092:6096   */\n              dup2\n                /* \"#utility.yul\":6088:6108   */\n              sub\n                /* \"#utility.yul\":6083:6085   */\n              0x40\n                /* \"#utility.yul\":6072:6081   */\n              dup4\n                /* \"#utility.yul\":6068:6086   */\n              add\n                /* \"#utility.yul\":6061:6109   */\n              mstore\n                /* \"#utility.yul\":6126:6204   */\n              tag_446\n                /* \"#utility.yul\":6199:6203   */\n              dup2\n                /* \"#utility.yul\":6190:6196   */\n              dup13\n                /* \"#utility.yul\":6126:6204   */\n              tag_321\n              jump\t// in\n            tag_446:\n                /* \"#utility.yul\":6118:6204   */\n              swap1\n              pop\n                /* \"#utility.yul\":6251:6260   */\n              dup2\n                /* \"#utility.yul\":6245:6249   */\n              dup2\n                /* \"#utility.yul\":6241:6261   */\n              sub\n                /* \"#utility.yul\":6236:6238   */\n              0x60\n                /* \"#utility.yul\":6225:6234   */\n              dup4\n                /* \"#utility.yul\":6221:6239   */\n              add\n                /* \"#utility.yul\":6214:6262   */\n              mstore\n                /* \"#utility.yul\":6279:6357   */\n              tag_447\n                /* \"#utility.yul\":6352:6356   */\n              dup2\n                /* \"#utility.yul\":6343:6349   */\n              dup12\n                /* \"#utility.yul\":6279:6357   */\n              tag_321\n              jump\t// in\n            tag_447:\n                /* \"#utility.yul\":6271:6357   */\n              swap1\n              pop\n                /* \"#utility.yul\":6405:6414   */\n              dup2\n                /* \"#utility.yul\":6399:6403   */\n              dup2\n                /* \"#utility.yul\":6395:6415   */\n              sub\n                /* \"#utility.yul\":6389:6392   */\n              0x80\n                /* \"#utility.yul\":6378:6387   */\n              dup4\n                /* \"#utility.yul\":6374:6393   */\n              add\n                /* \"#utility.yul\":6367:6416   */\n              mstore\n                /* \"#utility.yul\":6433:6541   */\n              tag_448\n                /* \"#utility.yul\":6536:6540   */\n              dup2\n                /* \"#utility.yul\":6527:6533   */\n              dup11\n                /* \"#utility.yul\":6433:6541   */\n              tag_328\n              jump\t// in\n            tag_448:\n                /* \"#utility.yul\":6425:6541   */\n              swap1\n              pop\n                /* \"#utility.yul\":6589:6598   */\n              dup2\n                /* \"#utility.yul\":6583:6587   */\n              dup2\n                /* \"#utility.yul\":6579:6599   */\n              sub\n                /* \"#utility.yul\":6573:6576   */\n              0xa0\n                /* \"#utility.yul\":6562:6571   */\n              dup4\n                /* \"#utility.yul\":6558:6577   */\n              add\n                /* \"#utility.yul\":6551:6600   */\n              mstore\n                /* \"#utility.yul\":6617:6725   */\n              tag_449\n                /* \"#utility.yul\":6720:6724   */\n              dup2\n                /* \"#utility.yul\":6711:6717   */\n              dup10\n                /* \"#utility.yul\":6617:6725   */\n              tag_328\n              jump\t// in\n            tag_449:\n                /* \"#utility.yul\":6609:6725   */\n              swap1\n              pop\n                /* \"#utility.yul\":6735:6808   */\n              tag_450\n                /* \"#utility.yul\":6803:6806   */\n              0xc0\n                /* \"#utility.yul\":6792:6801   */\n              dup4\n                /* \"#utility.yul\":6788:6807   */\n              add\n                /* \"#utility.yul\":6779:6785   */\n              dup9\n                /* \"#utility.yul\":6735:6808   */\n              tag_329\n              jump\t// in\n            tag_450:\n                /* \"#utility.yul\":6818:6891   */\n              tag_451\n                /* \"#utility.yul\":6886:6889   */\n              0xe0\n                /* \"#utility.yul\":6875:6884   */\n              dup4\n                /* \"#utility.yul\":6871:6890   */\n              add\n                /* \"#utility.yul\":6862:6868   */\n              dup8\n                /* \"#utility.yul\":6818:6891   */\n              tag_329\n              jump\t// in\n            tag_451:\n                /* \"#utility.yul\":6901:6974   */\n              tag_452\n                /* \"#utility.yul\":6969:6972   */\n              0x0100\n                /* \"#utility.yul\":6958:6967   */\n              dup4\n                /* \"#utility.yul\":6954:6973   */\n              add\n                /* \"#utility.yul\":6945:6951   */\n              dup7\n                /* \"#utility.yul\":6901:6974   */\n              tag_329\n              jump\t// in\n            tag_452:\n                /* \"#utility.yul\":6984:7051   */\n              tag_453\n                /* \"#utility.yul\":7046:7049   */\n              0x0120\n                /* \"#utility.yul\":7035:7044   */\n              dup4\n                /* \"#utility.yul\":7031:7050   */\n              add\n                /* \"#utility.yul\":7022:7028   */\n              dup6\n                /* \"#utility.yul\":6984:7051   */\n              tag_315\n              jump\t// in\n            tag_453:\n                /* \"#utility.yul\":7061:7135   */\n              tag_454\n                /* \"#utility.yul\":7130:7133   */\n              0x0140\n                /* \"#utility.yul\":7119:7128   */\n              dup4\n                /* \"#utility.yul\":7115:7134   */\n              add\n                /* \"#utility.yul\":7105:7112   */\n              dup5\n                /* \"#utility.yul\":7061:7135   */\n              tag_329\n              jump\t// in\n            tag_454:\n                /* \"#utility.yul\":5247:7142   */\n              swap13\n              swap12\n              pop\n              pop\n              pop\n              pop\n              pop\n              pop\n              pop\n              pop\n              pop\n              pop\n              pop\n              pop\n              jump\t// out\n                /* \"#utility.yul\":7148:7891   */\n            tag_58:\n                /* \"#utility.yul\":7367:7371   */\n              0x00\n                /* \"#utility.yul\":7405:7408   */\n              0xa0\n                /* \"#utility.yul\":7394:7403   */\n              dup3\n                /* \"#utility.yul\":7390:7409   */\n              add\n                /* \"#utility.yul\":7382:7409   */\n              swap1\n              pop\n                /* \"#utility.yul\":7455:7464   */\n              dup2\n                /* \"#utility.yul\":7449:7453   */\n              dup2\n                /* \"#utility.yul\":7445:7465   */\n              sub\n                /* \"#utility.yul\":7441:7442   */\n              0x00\n                /* \"#utility.yul\":7430:7439   */\n              dup4\n                /* \"#utility.yul\":7426:7443   */\n              add\n                /* \"#utility.yul\":7419:7466   */\n              mstore\n                /* \"#utility.yul\":7483:7561   */\n              tag_456\n                /* \"#utility.yul\":7556:7560   */\n              dup2\n                /* \"#utility.yul\":7547:7553   */\n              dup9\n                /* \"#utility.yul\":7483:7561   */\n              tag_321\n              jump\t// in\n            tag_456:\n                /* \"#utility.yul\":7475:7561   */\n              swap1\n              pop\n                /* \"#utility.yul\":7571:7643   */\n              tag_457\n                /* \"#utility.yul\":7639:7641   */\n              0x20\n                /* \"#utility.yul\":7628:7637   */\n              dup4\n                /* \"#utility.yul\":7624:7642   */\n              add\n                /* \"#utility.yul\":7615:7621   */\n              dup8\n                /* \"#utility.yul\":7571:7643   */\n              tag_329\n              jump\t// in\n            tag_457:\n                /* \"#utility.yul\":7653:7725   */\n              tag_458\n                /* \"#utility.yul\":7721:7723   */\n              0x40\n                /* \"#utility.yul\":7710:7719   */\n              dup4\n                /* \"#utility.yul\":7706:7724   */\n              add\n                /* \"#utility.yul\":7697:7703   */\n              dup7\n                /* \"#utility.yul\":7653:7725   */\n              tag_316\n              jump\t// in\n            tag_458:\n                /* \"#utility.yul\":7735:7807   */\n              tag_459\n                /* \"#utility.yul\":7803:7805   */\n              0x60\n                /* \"#utility.yul\":7792:7801   */\n              dup4\n                /* \"#utility.yul\":7788:7806   */\n              add\n                /* \"#utility.yul\":7779:7785   */\n              dup6\n                /* \"#utility.yul\":7735:7807   */\n              tag_329\n              jump\t// in\n            tag_459:\n                /* \"#utility.yul\":7817:7884   */\n              tag_460\n                /* \"#utility.yul\":7879:7882   */\n              0x80\n                /* \"#utility.yul\":7868:7877   */\n              dup4\n                /* \"#utility.yul\":7864:7883   */\n              add\n                /* \"#utility.yul\":7855:7861   */\n              dup5\n                /* \"#utility.yul\":7817:7884   */\n              tag_315\n              jump\t// in\n            tag_460:\n                /* \"#utility.yul\":7148:7891   */\n              swap7\n              swap6\n              pop\n              pop\n              pop\n              pop\n              pop\n              pop\n              jump\t// out\n                /* \"#utility.yul\":7897:8270   */\n            tag_72:\n                /* \"#utility.yul\":8040:8044   */\n              0x00\n                /* \"#utility.yul\":8078:8080   */\n              0x20\n                /* \"#utility.yul\":8067:8076   */\n              dup3\n                /* \"#utility.yul\":8063:8081   */\n              add\n                /* \"#utility.yul\":8055:8081   */\n              swap1\n              pop\n                /* \"#utility.yul\":8127:8136   */\n              dup2\n                /* \"#utility.yul\":8121:8125   */\n              dup2\n                /* \"#utility.yul\":8117:8137   */\n              sub\n                /* \"#utility.yul\":8113:8114   */\n              0x00\n                /* \"#utility.yul\":8102:8111   */\n              dup4\n                /* \"#utility.yul\":8098:8115   */\n              add\n                /* \"#utility.yul\":8091:8138   */\n              mstore\n                /* \"#utility.yul\":8155:8263   */\n              tag_462\n                /* \"#utility.yul\":8258:8262   */\n              dup2\n                /* \"#utility.yul\":8249:8255   */\n              dup5\n                /* \"#utility.yul\":8155:8263   */\n              tag_328\n              jump\t// in\n            tag_462:\n                /* \"#utility.yul\":8147:8263   */\n              swap1\n              pop\n                /* \"#utility.yul\":7897:8270   */\n              swap3\n              swap2\n              pop\n              pop\n              jump\t// out\n                /* \"#utility.yul\":8276:8498   */\n            tag_78:\n                /* \"#utility.yul\":8369:8373   */\n              0x00\n                /* \"#utility.yul\":8407:8409   */\n              0x20\n                /* \"#utility.yul\":8396:8405   */\n              dup3\n                /* \"#utility.yul\":8392:8410   */\n              add\n                /* \"#utility.yul\":8384:8410   */\n              swap1\n              pop\n                /* \"#utility.yul\":8420:8491   */\n              tag_464\n                /* \"#utility.yul\":8488:8489   */\n              0x00\n                /* \"#utility.yul\":8477:8486   */\n              dup4\n                /* \"#utility.yul\":8473:8490   */\n              add\n                /* \"#utility.yul\":8464:8470   */\n              dup5\n                /* \"#utility.yul\":8420:8491   */\n              tag_316\n              jump\t// in\n            tag_464:\n                /* \"#utility.yul\":8276:8498   */\n              swap3\n              swap2\n              pop\n              pop\n              jump\t// out\n                /* \"#utility.yul\":8504:8621   */\n            tag_330:\n                /* \"#utility.yul\":8613:8614   */\n              0x00\n                /* \"#utility.yul\":8610:8611   */\n              dup1\n                /* \"#utility.yul\":8603:8615   */\n              revert\n                /* \"#utility.yul\":8627:8744   */\n            tag_331:\n                /* \"#utility.yul\":8736:8737   */\n              0x00\n                /* \"#utility.yul\":8733:8734   */\n              dup1\n                /* \"#utility.yul\":8726:8738   */\n              revert\n                /* \"#utility.yul\":8750:8930   */\n            tag_332:\n                /* \"#utility.yul\":8798:8875   */\n              0x4e487b7100000000000000000000000000000000000000000000000000000000\n                /* \"#utility.yul\":8795:8796   */\n              0x00\n                /* \"#utility.yul\":8788:8876   */\n              mstore\n                /* \"#utility.yul\":8895:8899   */\n              0x41\n                /* \"#utility.yul\":8892:8893   */\n              0x04\n                /* \"#utility.yul\":8885:8900   */\n              mstore\n                /* \"#utility.yul\":8919:8923   */\n              0x24\n                /* \"#utility.yul\":8916:8917   */\n              0x00\n                /* \"#utility.yul\":8909:8924   */\n              revert\n                /* \"#utility.yul\":8936:9217   */\n            tag_333:\n                /* \"#utility.yul\":9019:9046   */\n              tag_469\n                /* \"#utility.yul\":9041:9045   */\n              dup3\n                /* \"#utility.yul\":9019:9046   */\n              tag_320\n              jump\t// in\n            tag_469:\n                /* \"#utility.yul\":9011:9017   */\n              dup2\n                /* \"#utility.yul\":9007:9047   */\n              add\n                /* \"#utility.yul\":9149:9155   */\n              dup2\n                /* \"#utility.yul\":9137:9147   */\n              dup2\n                /* \"#utility.yul\":9134:9156   */\n              lt\n                /* \"#utility.yul\":9113:9131   */\n              0xffffffffffffffff\n                /* \"#utility.yul\":9101:9111   */\n              dup3\n                /* \"#utility.yul\":9098:9132   */\n              gt\n                /* \"#utility.yul\":9095:9157   */\n              or\n                /* \"#utility.yul\":9092:9180   */\n              iszero\n              tag_470\n              jumpi\n                /* \"#utility.yul\":9160:9178   */\n              tag_471\n              tag_332\n              jump\t// in\n            tag_471:\n                /* \"#utility.yul\":9092:9180   */\n            tag_470:\n                /* \"#utility.yul\":9200:9210   */\n              dup1\n                /* \"#utility.yul\":9196:9198   */\n              0x40\n                /* \"#utility.yul\":9189:9211   */\n              mstore\n                /* \"#utility.yul\":8979:9217   */\n              pop\n                /* \"#utility.yul\":8936:9217   */\n              pop\n              pop\n              jump\t// out\n                /* \"#utility.yul\":9223:9352   */\n            tag_334:\n                /* \"#utility.yul\":9257:9263   */\n              0x00\n                /* \"#utility.yul\":9284:9304   */\n              tag_473\n              tag_304\n              jump\t// in\n            tag_473:\n                /* \"#utility.yul\":9274:9304   */\n              swap1\n              pop\n                /* \"#utility.yul\":9313:9346   */\n              tag_474\n                /* \"#utility.yul\":9341:9345   */\n              dup3\n                /* \"#utility.yul\":9333:9339   */\n              dup3\n                /* \"#utility.yul\":9313:9346   */\n              tag_333\n              jump\t// in\n            tag_474:\n                /* \"#utility.yul\":9223:9352   */\n              swap2\n              swap1\n              pop\n              jump\t// out\n                /* \"#utility.yul\":9358:9666   */\n            tag_335:\n                /* \"#utility.yul\":9420:9424   */\n              0x00\n                /* \"#utility.yul\":9510:9528   */\n              0xffffffffffffffff\n                /* \"#utility.yul\":9502:9508   */\n              dup3\n                /* \"#utility.yul\":9499:9529   */\n              gt\n                /* \"#utility.yul\":9496:9552   */\n              iszero\n              tag_476\n              jumpi\n                /* \"#utility.yul\":9532:9550   */\n              tag_477\n              tag_332\n              jump\t// in\n            tag_477:\n                /* \"#utility.yul\":9496:9552   */\n            tag_476:\n                /* \"#utility.yul\":9570:9599   */\n              tag_478\n                /* \"#utility.yul\":9592:9598   */\n              dup3\n                /* \"#utility.yul\":9570:9599   */\n              tag_320\n              jump\t// in\n            tag_478:\n                /* \"#utility.yul\":9562:9599   */\n              swap1\n              pop\n                /* \"#utility.yul\":9654:9658   */\n              0x20\n                /* \"#utility.yul\":9648:9652   */\n              dup2\n                /* \"#utility.yul\":9644:9659   */\n              add\n                /* \"#utility.yul\":9636:9659   */\n              swap1\n              pop\n                /* \"#utility.yul\":9358:9666   */\n              swap2\n              swap1\n              pop\n              jump\t// out\n                /* \"#utility.yul\":9672:9826   */\n            tag_336:\n                /* \"#utility.yul\":9756:9762   */\n              dup3\n                /* \"#utility.yul\":9751:9754   */\n              dup2\n                /* \"#utility.yul\":9746:9749   */\n              dup4\n                /* \"#utility.yul\":9733:9763   */\n              calldatacopy\n                /* \"#utility.yul\":9818:9819   */\n              0x00\n                /* \"#utility.yul\":9809:9815   */\n              dup4\n                /* \"#utility.yul\":9804:9807   */\n              dup4\n                /* \"#utility.yul\":9800:9816   */\n              add\n                /* \"#utility.yul\":9793:9820   */\n              mstore\n                /* \"#utility.yul\":9672:9826   */\n              pop\n              pop\n              pop\n              jump\t// out\n                /* \"#utility.yul\":9832:10244   */\n            tag_337:\n                /* \"#utility.yul\":9910:9915   */\n              0x00\n                /* \"#utility.yul\":9935:10001   */\n              tag_481\n                /* \"#utility.yul\":9951:10000   */\n              tag_482\n                /* \"#utility.yul\":9993:9999   */\n              dup5\n                /* \"#utility.yul\":9951:10000   */\n              tag_335\n              jump\t// in\n            tag_482:\n                /* \"#utility.yul\":9935:10001   */\n              tag_334\n              jump\t// in\n            tag_481:\n                /* \"#utility.yul\":9926:10001   */\n              swap1\n              pop\n                /* \"#utility.yul\":10024:10030   */\n              dup3\n                /* \"#utility.yul\":10017:10022   */\n              dup2\n                /* \"#utility.yul\":10010:10031   */\n              mstore\n                /* \"#utility.yul\":10062:10066   */\n              0x20\n                /* \"#utility.yul\":10055:10060   */\n              dup2\n                /* \"#utility.yul\":10051:10067   */\n              add\n                /* \"#utility.yul\":10100:10103   */\n              dup5\n                /* \"#utility.yul\":10091:10097   */\n              dup5\n                /* \"#utility.yul\":10086:10089   */\n              dup5\n                /* \"#utility.yul\":10082:10098   */\n              add\n                /* \"#utility.yul\":10079:10104   */\n              gt\n                /* \"#utility.yul\":10076:10188   */\n              iszero\n              tag_483\n              jumpi\n                /* \"#utility.yul\":10107:10186   */\n              tag_484\n              tag_331\n              jump\t// in\n            tag_484:\n                /* \"#utility.yul\":10076:10188   */\n            tag_483:\n                /* \"#utility.yul\":10197:10238   */\n              tag_485\n                /* \"#utility.yul\":10231:10237   */\n              dup5\n                /* \"#utility.yul\":10226:10229   */\n              dup3\n                /* \"#utility.yul\":10221:10224   */\n              dup6\n                /* \"#utility.yul\":10197:10238   */\n              tag_336\n              jump\t// in\n            tag_485:\n                /* \"#utility.yul\":9916:10244   */\n              pop\n                /* \"#utility.yul\":9832:10244   */\n              swap4\n              swap3\n              pop\n              pop\n              pop\n              jump\t// out\n                /* \"#utility.yul\":10264:10604   */\n            tag_338:\n                /* \"#utility.yul\":10320:10325   */\n              0x00\n                /* \"#utility.yul\":10369:10372   */\n              dup3\n                /* \"#utility.yul\":10362:10366   */\n              0x1f\n                /* \"#utility.yul\":10354:10360   */\n              dup4\n                /* \"#utility.yul\":10350:10367   */\n              add\n                /* \"#utility.yul\":10346:10373   */\n              slt\n                /* \"#utility.yul\":10336:10458   */\n              tag_487\n              jumpi\n                /* \"#utility.yul\":10377:10456   */\n              tag_488\n              tag_330\n              jump\t// in\n            tag_488:\n                /* \"#utility.yul\":10336:10458   */\n            tag_487:\n                /* \"#utility.yul\":10494:10500   */\n              dup2\n                /* \"#utility.yul\":10481:10501   */\n              calldataload\n                /* \"#utility.yul\":10519:10598   */\n              tag_489\n                /* \"#utility.yul\":10594:10597   */\n              dup5\n                /* \"#utility.yul\":10586:10592   */\n              dup3\n                /* \"#utility.yul\":10579:10583   */\n              0x20\n                /* \"#utility.yul\":10571:10577   */\n              dup7\n                /* \"#utility.yul\":10567:10584   */\n              add\n                /* \"#utility.yul\":10519:10598   */\n              tag_337\n              jump\t// in\n            tag_489:\n                /* \"#utility.yul\":10510:10598   */\n              swap2\n              pop\n                /* \"#utility.yul\":10326:10604   */\n              pop\n                /* \"#utility.yul\":10264:10604   */\n              swap3\n              swap2\n              pop\n              pop\n              jump\t// out\n                /* \"#utility.yul\":10610:11409   */\n            tag_87:\n                /* \"#utility.yul\":10697:10703   */\n              0x00\n                /* \"#utility.yul\":10705:10711   */\n              dup1\n                /* \"#utility.yul\":10713:10719   */\n              0x00\n                /* \"#utility.yul\":10762:10764   */\n              0x60\n                /* \"#utility.yul\":10750:10759   */\n              dup5\n                /* \"#utility.yul\":10741:10748   */\n              dup7\n                /* \"#utility.yul\":10737:10760   */\n              sub\n                /* \"#utility.yul\":10733:10765   */\n              slt\n                /* \"#utility.yul\":10730:10849   */\n              iszero\n              tag_491\n              jumpi\n                /* \"#utility.yul\":10768:10847   */\n              tag_492\n              tag_305\n              jump\t// in\n            tag_492:\n                /* \"#utility.yul\":10730:10849   */\n            tag_491:\n                /* \"#utility.yul\":10916:10917   */\n              0x00\n                /* \"#utility.yul\":10905:10914   */\n              dup5\n                /* \"#utility.yul\":10901:10918   */\n              add\n                /* \"#utility.yul\":10888:10919   */\n              calldataload\n                /* \"#utility.yul\":10946:10964   */\n              0xffffffffffffffff\n                /* \"#utility.yul\":10938:10944   */\n              dup2\n                /* \"#utility.yul\":10935:10965   */\n              gt\n                /* \"#utility.yul\":10932:11049   */\n              iszero\n              tag_493\n              jumpi\n                /* \"#utility.yul\":10968:11047   */\n              tag_494\n              tag_306\n              jump\t// in\n            tag_494:\n                /* \"#utility.yul\":10932:11049   */\n            tag_493:\n                /* \"#utility.yul\":11073:11136   */\n              tag_495\n                /* \"#utility.yul\":11128:11135   */\n              dup7\n                /* \"#utility.yul\":11119:11125   */\n              dup3\n                /* \"#utility.yul\":11108:11117   */\n              dup8\n                /* \"#utility.yul\":11104:11126   */\n              add\n                /* \"#utility.yul\":11073:11136   */\n              tag_338\n              jump\t// in\n            tag_495:\n                /* \"#utility.yul\":11063:11136   */\n              swap4\n              pop\n                /* \"#utility.yul\":10859:11146   */\n              pop\n                /* \"#utility.yul\":11185:11187   */\n              0x20\n                /* \"#utility.yul\":11211:11264   */\n              tag_496\n                /* \"#utility.yul\":11256:11263   */\n              dup7\n                /* \"#utility.yul\":11247:11253   */\n              dup3\n                /* \"#utility.yul\":11236:11245   */\n              dup8\n                /* \"#utility.yul\":11232:11254   */\n              add\n                /* \"#utility.yul\":11211:11264   */\n              tag_313\n              jump\t// in\n            tag_496:\n                /* \"#utility.yul\":11201:11264   */\n              swap3\n              pop\n                /* \"#utility.yul\":11156:11274   */\n              pop\n                /* \"#utility.yul\":11313:11315   */\n              0x40\n                /* \"#utility.yul\":11339:11392   */\n              tag_497\n                /* \"#utility.yul\":11384:11391   */\n              dup7\n                /* \"#utility.yul\":11375:11381   */\n              dup3\n                /* \"#utility.yul\":11364:11373   */\n              dup8\n                /* \"#utility.yul\":11360:11382   */\n              add\n                /* \"#utility.yul\":11339:11392   */\n              tag_313\n              jump\t// in\n            tag_497:\n                /* \"#utility.yul\":11329:11392   */\n              swap2\n              pop\n                /* \"#utility.yul\":11284:11402   */\n              pop\n                /* \"#utility.yul\":10610:11409   */\n              swap3\n              pop\n              swap3\n              pop\n              swap3\n              jump\t// out\n                /* \"#utility.yul\":11415:11924   */\n            tag_94:\n                /* \"#utility.yul\":11484:11490   */\n              0x00\n                /* \"#utility.yul\":11533:11535   */\n              0x20\n                /* \"#utility.yul\":11521:11530   */\n              dup3\n                /* \"#utility.yul\":11512:11519   */\n              dup5\n                /* \"#utility.yul\":11508:11531   */\n              sub\n                /* \"#utility.yul\":11504:11536   */\n              slt\n                /* \"#utility.yul\":11501:11620   */\n              iszero\n              tag_499\n              jumpi\n                /* \"#utility.yul\":11539:11618   */\n              tag_500\n              tag_305\n              jump\t// in\n            tag_500:\n                /* \"#utility.yul\":11501:11620   */\n            tag_499:\n                /* \"#utility.yul\":11687:11688   */\n              0x00\n                /* \"#utility.yul\":11676:11685   */\n              dup3\n                /* \"#utility.yul\":11672:11689   */\n              add\n                /* \"#utility.yul\":11659:11690   */\n              calldataload\n                /* \"#utility.yul\":11717:11735   */\n              0xffffffffffffffff\n                /* \"#utility.yul\":11709:11715   */\n              dup2\n                /* \"#utility.yul\":11706:11736   */\n              gt\n                /* \"#utility.yul\":11703:11820   */\n              iszero\n              tag_501\n              jumpi\n                /* \"#utility.yul\":11739:11818   */\n              tag_502\n              tag_306\n              jump\t// in\n            tag_502:\n                /* \"#utility.yul\":11703:11820   */\n            tag_501:\n                /* \"#utility.yul\":11844:11907   */\n              tag_503\n                /* \"#utility.yul\":11899:11906   */\n              dup5\n                /* \"#utility.yul\":11890:11896   */\n              dup3\n                /* \"#utility.yul\":11879:11888   */\n              dup6\n                /* \"#utility.yul\":11875:11897   */\n              add\n                /* \"#utility.yul\":11844:11907   */\n              tag_338\n              jump\t// in\n            tag_503:\n                /* \"#utility.yul\":11834:11907   */\n              swap2\n              pop\n                /* \"#utility.yul\":11630:11917   */\n              pop\n                /* \"#utility.yul\":11415:11924   */\n              swap3\n              swap2\n              pop\n              pop\n              jump\t// out\n                /* \"#utility.yul\":11930:12895   */\n            tag_101:\n                /* \"#utility.yul\":12205:12209   */\n              0x00\n                /* \"#utility.yul\":12243:12246   */\n              0xe0\n                /* \"#utility.yul\":12232:12241   */\n              dup3\n                /* \"#utility.yul\":12228:12247   */\n              add\n                /* \"#utility.yul\":12220:12247   */\n              swap1\n              pop\n                /* \"#utility.yul\":12293:12302   */\n              dup2\n                /* \"#utility.yul\":12287:12291   */\n              dup2\n                /* \"#utility.yul\":12283:12303   */\n              sub\n                /* \"#utility.yul\":12279:12280   */\n              0x00\n                /* \"#utility.yul\":12268:12277   */\n              dup4\n                /* \"#utility.yul\":12264:12281   */\n              add\n                /* \"#utility.yul\":12257:12304   */\n              mstore\n                /* \"#utility.yul\":12321:12399   */\n              tag_505\n                /* \"#utility.yul\":12394:12398   */\n              dup2\n                /* \"#utility.yul\":12385:12391   */\n              dup11\n                /* \"#utility.yul\":12321:12399   */\n              tag_321\n              jump\t// in\n            tag_505:\n                /* \"#utility.yul\":12313:12399   */\n              swap1\n              pop\n                /* \"#utility.yul\":12409:12481   */\n              tag_506\n                /* \"#utility.yul\":12477:12479   */\n              0x20\n                /* \"#utility.yul\":12466:12475   */\n              dup4\n                /* \"#utility.yul\":12462:12480   */\n              add\n                /* \"#utility.yul\":12453:12459   */\n              dup10\n                /* \"#utility.yul\":12409:12481   */\n              tag_329\n              jump\t// in\n            tag_506:\n                /* \"#utility.yul\":12491:12563   */\n              tag_507\n                /* \"#utility.yul\":12559:12561   */\n              0x40\n                /* \"#utility.yul\":12548:12557   */\n              dup4\n                /* \"#utility.yul\":12544:12562   */\n              add\n                /* \"#utility.yul\":12535:12541   */\n              dup9\n                /* \"#utility.yul\":12491:12563   */\n              tag_316\n              jump\t// in\n            tag_507:\n                /* \"#utility.yul\":12573:12645   */\n              tag_508\n                /* \"#utility.yul\":12641:12643   */\n              0x60\n                /* \"#utility.yul\":12630:12639   */\n              dup4\n                /* \"#utility.yul\":12626:12644   */\n              add\n                /* \"#utility.yul\":12617:12623   */\n              dup8\n                /* \"#utility.yul\":12573:12645   */\n              tag_316\n              jump\t// in\n            tag_508:\n                /* \"#utility.yul\":12655:12728   */\n              tag_509\n                /* \"#utility.yul\":12723:12726   */\n              0x80\n                /* \"#utility.yul\":12712:12721   */\n              dup4\n                /* \"#utility.yul\":12708:12727   */\n              add\n                /* \"#utility.yul\":12699:12705   */\n              dup7\n                /* \"#utility.yul\":12655:12728   */\n              tag_316\n              jump\t// in\n            tag_509:\n                /* \"#utility.yul\":12738:12811   */\n              tag_510\n                /* \"#utility.yul\":12806:12809   */\n              0xa0\n                /* \"#utility.yul\":12795:12804   */\n              dup4\n                /* \"#utility.yul\":12791:12810   */\n              add\n                /* \"#utility.yul\":12782:12788   */\n              dup6\n                /* \"#utility.yul\":12738:12811   */\n              tag_329\n              jump\t// in\n            tag_510:\n                /* \"#utility.yul\":12821:12888   */\n              tag_511\n                /* \"#utility.yul\":12883:12886   */\n              0xc0\n                /* \"#utility.yul\":12872:12881   */\n              dup4\n                /* \"#utility.yul\":12868:12887   */\n              add\n                /* \"#utility.yul\":12859:12865   */\n              dup5\n                /* \"#utility.yul\":12821:12888   */\n              tag_315\n              jump\t// in\n            tag_511:\n                /* \"#utility.yul\":11930:12895   */\n              swap9\n              swap8\n              pop\n              pop\n              pop\n              pop\n              pop\n              pop\n              pop\n              pop\n              jump\t// out\n                /* \"#utility.yul\":12901:13065   */\n            tag_339:\n                /* \"#utility.yul\":13041:13057   */\n              0x5265656e7472616e742063616c6c000000000000000000000000000000000000\n                /* \"#utility.yul\":13037:13038   */\n              0x00\n                /* \"#utility.yul\":13029:13035   */\n              dup3\n                /* \"#utility.yul\":13025:13039   */\n              add\n                /* \"#utility.yul\":13018:13058   */\n              mstore\n                /* \"#utility.yul\":12901:13065   */\n              pop\n              jump\t// out\n                /* \"#utility.yul\":13071:13437   */\n            tag_340:\n                /* \"#utility.yul\":13213:13216   */\n              0x00\n                /* \"#utility.yul\":13234:13301   */\n              tag_514\n                /* \"#utility.yul\":13298:13300   */\n              0x0e\n                /* \"#utility.yul\":13293:13296   */\n              dup4\n                /* \"#utility.yul\":13234:13301   */\n              tag_318\n              jump\t// in\n            tag_514:\n                /* \"#utility.yul\":13227:13301   */\n              swap2\n              pop\n                /* \"#utility.yul\":13310:13403   */\n              tag_515\n                /* \"#utility.yul\":13399:13402   */\n              dup3\n                /* \"#utility.yul\":13310:13403   */\n              tag_339\n              jump\t// in\n            tag_515:\n                /* \"#utility.yul\":13428:13430   */\n              0x20\n                /* \"#utility.yul\":13423:13426   */\n              dup3\n                /* \"#utility.yul\":13419:13431   */\n              add\n                /* \"#utility.yul\":13412:13431   */\n              swap1\n              pop\n                /* \"#utility.yul\":13071:13437   */\n              swap2\n              swap1\n              pop\n              jump\t// out\n                /* \"#utility.yul\":13443:13862   */\n            tag_105:\n                /* \"#utility.yul\":13609:13613   */\n              0x00\n                /* \"#utility.yul\":13647:13649   */\n              0x20\n                /* \"#utility.yul\":13636:13645   */\n              dup3\n                /* \"#utility.yul\":13632:13650   */\n              add\n                /* \"#utility.yul\":13624:13650   */\n              swap1\n              pop\n                /* \"#utility.yul\":13696:13705   */\n              dup2\n                /* \"#utility.yul\":13690:13694   */\n              dup2\n                /* \"#utility.yul\":13686:13706   */\n              sub\n                /* \"#utility.yul\":13682:13683   */\n              0x00\n                /* \"#utility.yul\":13671:13680   */\n              dup4\n                /* \"#utility.yul\":13667:13684   */\n              add\n                /* \"#utility.yul\":13660:13707   */\n              mstore\n                /* \"#utility.yul\":13724:13855   */\n              tag_517\n                /* \"#utility.yul\":13850:13854   */\n              dup2\n                /* \"#utility.yul\":13724:13855   */\n              tag_340\n              jump\t// in\n            tag_517:\n                /* \"#utility.yul\":13716:13855   */\n              swap1\n              pop\n                /* \"#utility.yul\":13443:13862   */\n              swap2\n              swap1\n              pop\n              jump\t// out\n                /* \"#utility.yul\":13868:14046   */\n            tag_341:\n                /* \"#utility.yul\":14008:14038   */\n              0x546869732073746f727920686173206265656e207265706f7274656400000000\n                /* \"#utility.yul\":14004:14005   */\n              0x00\n                /* \"#utility.yul\":13996:14002   */\n              dup3\n                /* \"#utility.yul\":13992:14006   */\n              add\n                /* \"#utility.yul\":13985:14039   */\n              mstore\n                /* \"#utility.yul\":13868:14046   */\n              pop\n              jump\t// out\n                /* \"#utility.yul\":14052:14418   */\n            tag_342:\n                /* \"#utility.yul\":14194:14197   */\n              0x00\n                /* \"#utility.yul\":14215:14282   */\n              tag_520\n                /* \"#utility.yul\":14279:14281   */\n              0x1c\n                /* \"#utility.yul\":14274:14277   */\n              dup4\n                /* \"#utility.yul\":14215:14282   */\n              tag_318\n              jump\t// in\n            tag_520:\n                /* \"#utility.yul\":14208:14282   */\n              swap2\n              pop\n                /* \"#utility.yul\":14291:14384   */\n              tag_521\n                /* \"#utility.yul\":14380:14383   */\n              dup3\n                /* \"#utility.yul\":14291:14384   */\n              tag_341\n              jump\t// in\n            tag_521:\n                /* \"#utility.yul\":14409:14411   */\n              0x20\n                /* \"#utility.yul\":14404:14407   */\n              dup3\n                /* \"#utility.yul\":14400:14412   */\n              add\n                /* \"#utility.yul\":14393:14412   */\n              swap1\n              pop\n                /* \"#utility.yul\":14052:14418   */\n              swap2\n              swap1\n              pop\n              jump\t// out\n                /* \"#utility.yul\":14424:14843   */\n            tag_109:\n                /* \"#utility.yul\":14590:14594   */\n              0x00\n                /* \"#utility.yul\":14628:14630   */\n              0x20\n                /* \"#utility.yul\":14617:14626   */\n              dup3\n                /* \"#utility.yul\":14613:14631   */\n              add\n                /* \"#utility.yul\":14605:14631   */\n              swap1\n              pop\n                /* \"#utility.yul\":14677:14686   */\n              dup2\n                /* \"#utility.yul\":14671:14675   */\n              dup2\n                /* \"#utility.yul\":14667:14687   */\n              sub\n                /* \"#utility.yul\":14663:14664   */\n              0x00\n                /* \"#utility.yul\":14652:14661   */\n              dup4\n                /* \"#utility.yul\":14648:14665   */\n              add\n                /* \"#utility.yul\":14641:14688   */\n              mstore\n                /* \"#utility.yul\":14705:14836   */\n              tag_523\n                /* \"#utility.yul\":14831:14835   */\n              dup2\n                /* \"#utility.yul\":14705:14836   */\n              tag_342\n              jump\t// in\n            tag_523:\n                /* \"#utility.yul\":14697:14836   */\n              swap1\n              pop\n                /* \"#utility.yul\":14424:14843   */\n              swap2\n              swap1\n              pop\n              jump\t// out\n                /* \"#utility.yul\":14849:15071   */\n            tag_343:\n                /* \"#utility.yul\":14989:15023   */\n              0x596f752068617665207265706f7274656420746869732073746f727920626566\n                /* \"#utility.yul\":14985:14986   */\n              0x00\n                /* \"#utility.yul\":14977:14983   */\n              dup3\n                /* \"#utility.yul\":14973:14987   */\n              add\n                /* \"#utility.yul\":14966:15024   */\n              mstore\n                /* \"#utility.yul\":15058:15063   */\n              0x6f72650000000000000000000000000000000000000000000000000000000000\n                /* \"#utility.yul\":15053:15055   */\n              0x20\n                /* \"#utility.yul\":15045:15051   */\n              dup3\n                /* \"#utility.yul\":15041:15056   */\n              add\n                /* \"#utility.yul\":15034:15064   */\n              mstore\n                /* \"#utility.yul\":14849:15071   */\n              pop\n              jump\t// out\n                /* \"#utility.yul\":15077:15443   */\n            tag_344:\n                /* \"#utility.yul\":15219:15222   */\n              0x00\n                /* \"#utility.yul\":15240:15307   */\n              tag_526\n                /* \"#utility.yul\":15304:15306   */\n              0x23\n                /* \"#utility.yul\":15299:15302   */\n              dup4\n                /* \"#utility.yul\":15240:15307   */\n              tag_318\n              jump\t// in\n            tag_526:\n                /* \"#utility.yul\":15233:15307   */\n              swap2\n              pop\n                /* \"#utility.yul\":15316:15409   */\n              tag_527\n                /* \"#utility.yul\":15405:15408   */\n              dup3\n                /* \"#utility.yul\":15316:15409   */\n              tag_343\n              jump\t// in\n            tag_527:\n                /* \"#utility.yul\":15434:15436   */\n              0x40\n                /* \"#utility.yul\":15429:15432   */\n              dup3\n                /* \"#utility.yul\":15425:15437   */\n              add\n                /* \"#utility.yul\":15418:15437   */\n              swap1\n              pop\n                /* \"#utility.yul\":15077:15443   */\n              swap2\n              swap1\n              pop\n              jump\t// out\n                /* \"#utility.yul\":15449:15868   */\n            tag_112:\n                /* \"#utility.yul\":15615:15619   */\n              0x00\n                /* \"#utility.yul\":15653:15655   */\n              0x20\n                /* \"#utility.yul\":15642:15651   */\n              dup3\n                /* \"#utility.yul\":15638:15656   */\n              add\n                /* \"#utility.yul\":15630:15656   */\n              swap1\n              pop\n                /* \"#utility.yul\":15702:15711   */\n              dup2\n                /* \"#utility.yul\":15696:15700   */\n              dup2\n                /* \"#utility.yul\":15692:15712   */\n              sub\n                /* \"#utility.yul\":15688:15689   */\n              0x00\n                /* \"#utility.yul\":15677:15686   */\n              dup4\n                /* \"#utility.yul\":15673:15690   */\n              add\n                /* \"#utility.yul\":15666:15713   */\n              mstore\n                /* \"#utility.yul\":15730:15861   */\n              tag_529\n                /* \"#utility.yul\":15856:15860   */\n              dup2\n                /* \"#utility.yul\":15730:15861   */\n              tag_344\n              jump\t// in\n            tag_529:\n                /* \"#utility.yul\":15722:15861   */\n              swap1\n              pop\n                /* \"#utility.yul\":15449:15868   */\n              swap2\n              swap1\n              pop\n              jump\t// out\n                /* \"#utility.yul\":15874:16106   */\n            tag_345:\n                /* \"#utility.yul\":16014:16048   */\n              0x4f6e6c7920616e20616363657074656420617574686f722063616e2061707072\n                /* \"#utility.yul\":16010:16011   */\n              0x00\n                /* \"#utility.yul\":16002:16008   */\n              dup3\n                /* \"#utility.yul\":15998:16012   */\n              add\n                /* \"#utility.yul\":15991:16049   */\n              mstore\n                /* \"#utility.yul\":16083:16098   */\n              0x6f76652061207265717565737400000000000000000000000000000000000000\n                /* \"#utility.yul\":16078:16080   */\n              0x20\n                /* \"#utility.yul\":16070:16076   */\n              dup3\n                /* \"#utility.yul\":16066:16081   */\n              add\n                /* \"#utility.yul\":16059:16099   */\n              mstore\n                /* \"#utility.yul\":15874:16106   */\n              pop\n              jump\t// out\n                /* \"#utility.yul\":16112:16478   */\n            tag_346:\n                /* \"#utility.yul\":16254:16257   */\n              0x00\n                /* \"#utility.yul\":16275:16342   */\n              tag_532\n                /* \"#utility.yul\":16339:16341   */\n              0x2d\n                /* \"#utility.yul\":16334:16337   */\n              dup4\n                /* \"#utility.yul\":16275:16342   */\n              tag_318\n              jump\t// in\n            tag_532:\n                /* \"#utility.yul\":16268:16342   */\n              swap2\n              pop\n                /* \"#utility.yul\":16351:16444   */\n              tag_533\n                /* \"#utility.yul\":16440:16443   */\n              dup3\n                /* \"#utility.yul\":16351:16444   */\n              tag_345\n              jump\t// in\n            tag_533:\n                /* \"#utility.yul\":16469:16471   */\n              0x40\n                /* \"#utility.yul\":16464:16467   */\n              dup3\n                /* \"#utility.yul\":16460:16472   */\n              add\n                /* \"#utility.yul\":16453:16472   */\n              swap1\n              pop\n                /* \"#utility.yul\":16112:16478   */\n              swap2\n              swap1\n              pop\n              jump\t// out\n                /* \"#utility.yul\":16484:16903   */\n            tag_124:\n                /* \"#utility.yul\":16650:16654   */\n              0x00\n                /* \"#utility.yul\":16688:16690   */\n              0x20\n                /* \"#utility.yul\":16677:16686   */\n              dup3\n                /* \"#utility.yul\":16673:16691   */\n              add\n                /* \"#utility.yul\":16665:16691   */\n              swap1\n              pop\n                /* \"#utility.yul\":16737:16746   */\n              dup2\n                /* \"#utility.yul\":16731:16735   */\n              dup2\n                /* \"#utility.yul\":16727:16747   */\n              sub\n                /* \"#utility.yul\":16723:16724   */\n              0x00\n                /* \"#utility.yul\":16712:16721   */\n              dup4\n                /* \"#utility.yul\":16708:16725   */\n              add\n                /* \"#utility.yul\":16701:16748   */\n              mstore\n                /* \"#utility.yul\":16765:16896   */\n              tag_535\n                /* \"#utility.yul\":16891:16895   */\n              dup2\n                /* \"#utility.yul\":16765:16896   */\n              tag_346\n              jump\t// in\n            tag_535:\n                /* \"#utility.yul\":16757:16896   */\n              swap1\n              pop\n                /* \"#utility.yul\":16484:16903   */\n              swap2\n              swap1\n              pop\n              jump\t// out\n                /* \"#utility.yul\":16909:17078   */\n            tag_347:\n                /* \"#utility.yul\":17049:17070   */\n              0x496e646578206f7574206f6620626f756e647300000000000000000000000000\n                /* \"#utility.yul\":17045:17046   */\n              0x00\n                /* \"#utility.yul\":17037:17043   */\n              dup3\n                /* \"#utility.yul\":17033:17047   */\n              add\n                /* \"#utility.yul\":17026:17071   */\n              mstore\n                /* \"#utility.yul\":16909:17078   */\n              pop\n              jump\t// out\n                /* \"#utility.yul\":17084:17450   */\n            tag_348:\n                /* \"#utility.yul\":17226:17229   */\n              0x00\n                /* \"#utility.yul\":17247:17314   */\n              tag_538\n                /* \"#utility.yul\":17311:17313   */\n              0x13\n                /* \"#utility.yul\":17306:17309   */\n              dup4\n                /* \"#utility.yul\":17247:17314   */\n              tag_318\n              jump\t// in\n            tag_538:\n                /* \"#utility.yul\":17240:17314   */\n              swap2\n              pop\n                /* \"#utility.yul\":17323:17416   */\n              tag_539\n                /* \"#utility.yul\":17412:17415   */\n              dup3\n                /* \"#utility.yul\":17323:17416   */\n              tag_347\n              jump\t// in\n            tag_539:\n                /* \"#utility.yul\":17441:17443   */\n              0x20\n                /* \"#utility.yul\":17436:17439   */\n              dup3\n                /* \"#utility.yul\":17432:17444   */\n              add\n                /* \"#utility.yul\":17425:17444   */\n              swap1\n              pop\n                /* \"#utility.yul\":17084:17450   */\n              swap2\n              swap1\n              pop\n              jump\t// out\n                /* \"#utility.yul\":17456:17875   */\n            tag_128:\n                /* \"#utility.yul\":17622:17626   */\n              0x00\n                /* \"#utility.yul\":17660:17662   */\n              0x20\n                /* \"#utility.yul\":17649:17658   */\n              dup3\n                /* \"#utility.yul\":17645:17663   */\n              add\n                /* \"#utility.yul\":17637:17663   */\n              swap1\n              pop\n                /* \"#utility.yul\":17709:17718   */\n              dup2\n                /* \"#utility.yul\":17703:17707   */\n              dup2\n                /* \"#utility.yul\":17699:17719   */\n              sub\n                /* \"#utility.yul\":17695:17696   */\n              0x00\n                /* \"#utility.yul\":17684:17693   */\n              dup4\n                /* \"#utility.yul\":17680:17697   */\n              add\n                /* \"#utility.yul\":17673:17720   */\n              mstore\n                /* \"#utility.yul\":17737:17868   */\n              tag_541\n                /* \"#utility.yul\":17863:17867   */\n              dup2\n                /* \"#utility.yul\":17737:17868   */\n              tag_348\n              jump\t// in\n            tag_541:\n                /* \"#utility.yul\":17729:17868   */\n              swap1\n              pop\n                /* \"#utility.yul\":17456:17875   */\n              swap2\n              swap1\n              pop\n              jump\t// out\n                /* \"#utility.yul\":17881:18061   */\n            tag_131:\n                /* \"#utility.yul\":17929:18006   */\n              0x4e487b7100000000000000000000000000000000000000000000000000000000\n                /* \"#utility.yul\":17926:17927   */\n              0x00\n                /* \"#utility.yul\":17919:18007   */\n              mstore\n                /* \"#utility.yul\":18026:18030   */\n              0x32\n                /* \"#utility.yul\":18023:18024   */\n              0x04\n                /* \"#utility.yul\":18016:18031   */\n              mstore\n                /* \"#utility.yul\":18050:18054   */\n              0x24\n                /* \"#utility.yul\":18047:18048   */\n              0x00\n                /* \"#utility.yul\":18040:18055   */\n              revert\n                /* \"#utility.yul\":18067:18247   */\n            tag_349:\n                /* \"#utility.yul\":18115:18192   */\n              0x4e487b7100000000000000000000000000000000000000000000000000000000\n                /* \"#utility.yul\":18112:18113   */\n              0x00\n                /* \"#utility.yul\":18105:18193   */\n              mstore\n                /* \"#utility.yul\":18212:18216   */\n              0x22\n                /* \"#utility.yul\":18209:18210   */\n              0x04\n                /* \"#utility.yul\":18202:18217   */\n              mstore\n                /* \"#utility.yul\":18236:18240   */\n              0x24\n                /* \"#utility.yul\":18233:18234   */\n              0x00\n                /* \"#utility.yul\":18226:18241   */\n              revert\n                /* \"#utility.yul\":18253:18573   */\n            tag_172:\n                /* \"#utility.yul\":18297:18303   */\n              0x00\n                /* \"#utility.yul\":18334:18335   */\n              0x02\n                /* \"#utility.yul\":18328:18332   */\n              dup3\n                /* \"#utility.yul\":18324:18336   */\n              div\n                /* \"#utility.yul\":18314:18336   */\n              swap1\n              pop\n                /* \"#utility.yul\":18381:18382   */\n              0x01\n                /* \"#utility.yul\":18375:18379   */\n              dup3\n                /* \"#utility.yul\":18371:18383   */\n              and\n                /* \"#utility.yul\":18402:18420   */\n              dup1\n                /* \"#utility.yul\":18392:18473   */\n              tag_545\n              jumpi\n                /* \"#utility.yul\":18458:18462   */\n              0x7f\n                /* \"#utility.yul\":18450:18456   */\n              dup3\n                /* \"#utility.yul\":18446:18463   */\n              and\n                /* \"#utility.yul\":18436:18463   */\n              swap2\n              pop\n                /* \"#utility.yul\":18392:18473   */\n            tag_545:\n                /* \"#utility.yul\":18520:18522   */\n              0x20\n                /* \"#utility.yul\":18512:18518   */\n              dup3\n                /* \"#utility.yul\":18509:18523   */\n              lt\n                /* \"#utility.yul\":18489:18507   */\n              dup2\n                /* \"#utility.yul\":18486:18524   */\n              eq\n                /* \"#utility.yul\":18483:18567   */\n              iszero\n              tag_546\n              jumpi\n                /* \"#utility.yul\":18539:18557   */\n              tag_547\n              tag_349\n              jump\t// in\n            tag_547:\n                /* \"#utility.yul\":18483:18567   */\n            tag_546:\n                /* \"#utility.yul\":18304:18573   */\n              pop\n                /* \"#utility.yul\":18253:18573   */\n              swap2\n              swap1\n              pop\n              jump\t// out\n                /* \"#utility.yul\":18579:18720   */\n            tag_350:\n                /* \"#utility.yul\":18628:18632   */\n              0x00\n                /* \"#utility.yul\":18651:18654   */\n              dup2\n                /* \"#utility.yul\":18643:18654   */\n              swap1\n              pop\n                /* \"#utility.yul\":18674:18677   */\n              dup2\n                /* \"#utility.yul\":18671:18672   */\n              0x00\n                /* \"#utility.yul\":18664:18678   */\n              mstore\n                /* \"#utility.yul\":18708:18712   */\n              0x20\n                /* \"#utility.yul\":18705:18706   */\n              0x00\n                /* \"#utility.yul\":18695:18713   */\n              keccak256\n                /* \"#utility.yul\":18687:18713   */\n              swap1\n              pop\n                /* \"#utility.yul\":18579:18720   */\n              swap2\n              swap1\n              pop\n              jump\t// out\n                /* \"#utility.yul\":18750:19552   */\n            tag_351:\n                /* \"#utility.yul\":18835:18838   */\n              0x00\n                /* \"#utility.yul\":18872:18877   */\n              dup2\n                /* \"#utility.yul\":18866:18878   */\n              sload\n                /* \"#utility.yul\":18901:18937   */\n              tag_550\n                /* \"#utility.yul\":18927:18936   */\n              dup2\n                /* \"#utility.yul\":18901:18937   */\n              tag_172\n              jump\t// in\n            tag_550:\n                /* \"#utility.yul\":18953:19024   */\n              tag_551\n                /* \"#utility.yul\":19017:19023   */\n              dup2\n                /* \"#utility.yul\":19012:19015   */\n              dup7\n                /* \"#utility.yul\":18953:19024   */\n              tag_318\n              jump\t// in\n            tag_551:\n                /* \"#utility.yul\":18946:19024   */\n              swap5\n              pop\n                /* \"#utility.yul\":19055:19056   */\n              0x01\n                /* \"#utility.yul\":19044:19053   */\n              dup3\n                /* \"#utility.yul\":19040:19057   */\n              and\n                /* \"#utility.yul\":19071:19072   */\n              0x00\n                /* \"#utility.yul\":19066:19201   */\n              dup2\n              eq\n              tag_553\n              jumpi\n                /* \"#utility.yul\":19215:19216   */\n              0x01\n                /* \"#utility.yul\":19210:19546   */\n              dup2\n              eq\n              tag_554\n              jumpi\n                /* \"#utility.yul\":19033:19546   */\n              jump(tag_552)\n                /* \"#utility.yul\":19066:19201   */\n            tag_553:\n                /* \"#utility.yul\":19150:19154   */\n              0xff\n                /* \"#utility.yul\":19146:19155   */\n              not\n                /* \"#utility.yul\":19135:19144   */\n              dup4\n                /* \"#utility.yul\":19131:19156   */\n              and\n                /* \"#utility.yul\":19126:19129   */\n              dup7\n                /* \"#utility.yul\":19119:19157   */\n              mstore\n                /* \"#utility.yul\":19186:19190   */\n              0x20\n                /* \"#utility.yul\":19181:19184   */\n              dup7\n                /* \"#utility.yul\":19177:19191   */\n              add\n                /* \"#utility.yul\":19170:19191   */\n              swap4\n              pop\n                /* \"#utility.yul\":19066:19201   */\n              jump(tag_552)\n                /* \"#utility.yul\":19210:19546   */\n            tag_554:\n                /* \"#utility.yul\":19277:19315   */\n              tag_555\n                /* \"#utility.yul\":19309:19314   */\n              dup6\n                /* \"#utility.yul\":19277:19315   */\n              tag_350\n              jump\t// in\n            tag_555:\n                /* \"#utility.yul\":19337:19338   */\n              0x00\n                /* \"#utility.yul\":19351:19505   */\n            tag_556:\n                /* \"#utility.yul\":19365:19371   */\n              dup4\n                /* \"#utility.yul\":19362:19363   */\n              dup2\n                /* \"#utility.yul\":19359:19372   */\n              lt\n                /* \"#utility.yul\":19351:19505   */\n              iszero\n              tag_558\n              jumpi\n                /* \"#utility.yul\":19439:19446   */\n              dup2\n                /* \"#utility.yul\":19433:19447   */\n              sload\n                /* \"#utility.yul\":19429:19430   */\n              dup2\n                /* \"#utility.yul\":19424:19427   */\n              dup10\n                /* \"#utility.yul\":19420:19431   */\n              add\n                /* \"#utility.yul\":19413:19448   */\n              mstore\n                /* \"#utility.yul\":19489:19490   */\n              0x01\n                /* \"#utility.yul\":19480:19487   */\n              dup3\n                /* \"#utility.yul\":19476:19491   */\n              add\n                /* \"#utility.yul\":19465:19491   */\n              swap2\n              pop\n                /* \"#utility.yul\":19387:19391   */\n              0x20\n                /* \"#utility.yul\":19384:19385   */\n              dup2\n                /* \"#utility.yul\":19380:19392   */\n              add\n                /* \"#utility.yul\":19375:19392   */\n              swap1\n              pop\n                /* \"#utility.yul\":19351:19505   */\n              jump(tag_556)\n            tag_558:\n                /* \"#utility.yul\":19534:19535   */\n              dup1\n                /* \"#utility.yul\":19529:19532   */\n              dup9\n                /* \"#utility.yul\":19525:19536   */\n              add\n                /* \"#utility.yul\":19518:19536   */\n              swap6\n              pop\n                /* \"#utility.yul\":19217:19546   */\n              pop\n              pop\n                /* \"#utility.yul\":19033:19546   */\n            tag_552:\n              pop\n                /* \"#utility.yul\":18839:19552   */\n              pop\n              pop\n                /* \"#utility.yul\":18750:19552   */\n              swap3\n              swap2\n              pop\n              pop\n              jump\t// out\n                /* \"#utility.yul\":19558:20307   */\n            tag_138:\n                /* \"#utility.yul\":19780:19784   */\n              0x00\n                /* \"#utility.yul\":19818:19821   */\n              0xa0\n                /* \"#utility.yul\":19807:19816   */\n              dup3\n                /* \"#utility.yul\":19803:19822   */\n              add\n                /* \"#utility.yul\":19795:19822   */\n              swap1\n              pop\n                /* \"#utility.yul\":19832:19903   */\n              tag_560\n                /* \"#utility.yul\":19900:19901   */\n              0x00\n                /* \"#utility.yul\":19889:19898   */\n              dup4\n                /* \"#utility.yul\":19885:19902   */\n              add\n                /* \"#utility.yul\":19876:19882   */\n              dup9\n                /* \"#utility.yul\":19832:19903   */\n              tag_316\n              jump\t// in\n            tag_560:\n                /* \"#utility.yul\":19913:19985   */\n              tag_561\n                /* \"#utility.yul\":19981:19983   */\n              0x20\n                /* \"#utility.yul\":19970:19979   */\n              dup4\n                /* \"#utility.yul\":19966:19984   */\n              add\n                /* \"#utility.yul\":19957:19963   */\n              dup8\n                /* \"#utility.yul\":19913:19985   */\n              tag_316\n              jump\t// in\n            tag_561:\n                /* \"#utility.yul\":20032:20041   */\n              dup2\n                /* \"#utility.yul\":20026:20030   */\n              dup2\n                /* \"#utility.yul\":20022:20042   */\n              sub\n                /* \"#utility.yul\":20017:20019   */\n              0x40\n                /* \"#utility.yul\":20006:20015   */\n              dup4\n                /* \"#utility.yul\":20002:20020   */\n              add\n                /* \"#utility.yul\":19995:20043   */\n              mstore\n                /* \"#utility.yul\":20060:20135   */\n              tag_562\n                /* \"#utility.yul\":20130:20134   */\n              dup2\n                /* \"#utility.yul\":20121:20127   */\n              dup7\n                /* \"#utility.yul\":20060:20135   */\n              tag_351\n              jump\t// in\n            tag_562:\n                /* \"#utility.yul\":20052:20135   */\n              swap1\n              pop\n                /* \"#utility.yul\":20145:20217   */\n              tag_563\n                /* \"#utility.yul\":20213:20215   */\n              0x60\n                /* \"#utility.yul\":20202:20211   */\n              dup4\n                /* \"#utility.yul\":20198:20216   */\n              add\n                /* \"#utility.yul\":20189:20195   */\n              dup6\n                /* \"#utility.yul\":20145:20217   */\n              tag_316\n              jump\t// in\n            tag_563:\n                /* \"#utility.yul\":20227:20300   */\n              tag_564\n                /* \"#utility.yul\":20295:20298   */\n              0x80\n                /* \"#utility.yul\":20284:20293   */\n              dup4\n                /* \"#utility.yul\":20280:20299   */\n              add\n                /* \"#utility.yul\":20271:20277   */\n              dup5\n                /* \"#utility.yul\":20227:20300   */\n              tag_316\n              jump\t// in\n            tag_564:\n                /* \"#utility.yul\":19558:20307   */\n              swap7\n              swap6\n              pop\n              pop\n              pop\n              pop\n              pop\n              pop\n              jump\t// out\n                /* \"#utility.yul\":20313:20546   */\n            tag_352:\n                /* \"#utility.yul\":20453:20487   */\n              0x4f6e6c7920616e20617574686f72697a656420617574686f722063616e206469\n                /* \"#utility.yul\":20449:20450   */\n              0x00\n                /* \"#utility.yul\":20441:20447   */\n              dup3\n                /* \"#utility.yul\":20437:20451   */\n              add\n                /* \"#utility.yul\":20430:20488   */\n              mstore\n                /* \"#utility.yul\":20522:20538   */\n              0x7370656e73652072657761726473000000000000000000000000000000000000\n                /* \"#utility.yul\":20517:20519   */\n              0x20\n                /* \"#utility.yul\":20509:20515   */\n              dup3\n                /* \"#utility.yul\":20505:20520   */\n              add\n                /* \"#utility.yul\":20498:20539   */\n              mstore\n                /* \"#utility.yul\":20313:20546   */\n              pop\n              jump\t// out\n                /* \"#utility.yul\":20552:20918   */\n            tag_353:\n                /* \"#utility.yul\":20694:20697   */\n              0x00\n                /* \"#utility.yul\":20715:20782   */\n              tag_567\n                /* \"#utility.yul\":20779:20781   */\n              0x2e\n                /* \"#utility.yul\":20774:20777   */\n              dup4\n                /* \"#utility.yul\":20715:20782   */\n              tag_318\n              jump\t// in\n            tag_567:\n                /* \"#utility.yul\":20708:20782   */\n              swap2\n              pop\n                /* \"#utility.yul\":20791:20884   */\n              tag_568\n                /* \"#utility.yul\":20880:20883   */\n              dup3\n                /* \"#utility.yul\":20791:20884   */\n              tag_352\n              jump\t// in\n            tag_568:\n                /* \"#utility.yul\":20909:20911   */\n              0x40\n                /* \"#utility.yul\":20904:20907   */\n              dup3\n                /* \"#utility.yul\":20900:20912   */\n              add\n                /* \"#utility.yul\":20893:20912   */\n              swap1\n              pop\n                /* \"#utility.yul\":20552:20918   */\n              swap2\n              swap1\n              pop\n              jump\t// out\n                /* \"#utility.yul\":20924:21343   */\n            tag_154:\n                /* \"#utility.yul\":21090:21094   */\n              0x00\n                /* \"#utility.yul\":21128:21130   */\n              0x20\n                /* \"#utility.yul\":21117:21126   */\n              dup3\n                /* \"#utility.yul\":21113:21131   */\n              add\n                /* \"#utility.yul\":21105:21131   */\n              swap1\n              pop\n                /* \"#utility.yul\":21177:21186   */\n              dup2\n                /* \"#utility.yul\":21171:21175   */\n              dup2\n                /* \"#utility.yul\":21167:21187   */\n              sub\n                /* \"#utility.yul\":21163:21164   */\n              0x00\n                /* \"#utility.yul\":21152:21161   */\n              dup4\n                /* \"#utility.yul\":21148:21165   */\n              add\n                /* \"#utility.yul\":21141:21188   */\n              mstore\n                /* \"#utility.yul\":21205:21336   */\n              tag_570\n                /* \"#utility.yul\":21331:21335   */\n              dup2\n                /* \"#utility.yul\":21205:21336   */\n              tag_353\n              jump\t// in\n            tag_570:\n                /* \"#utility.yul\":21197:21336   */\n              swap1\n              pop\n                /* \"#utility.yul\":20924:21343   */\n              swap2\n              swap1\n              pop\n              jump\t// out\n                /* \"#utility.yul\":21349:21520   */\n            tag_354:\n                /* \"#utility.yul\":21489:21512   */\n              0x4e6f2072657761726420746f2064697370656e73650000000000000000000000\n                /* \"#utility.yul\":21485:21486   */\n              0x00\n                /* \"#utility.yul\":21477:21483   */\n              dup3\n                /* \"#utility.yul\":21473:21487   */\n              add\n                /* \"#utility.yul\":21466:21513   */\n              mstore\n                /* \"#utility.yul\":21349:21520   */\n              pop\n              jump\t// out\n                /* \"#utility.yul\":21526:21892   */\n            tag_355:\n                /* \"#utility.yul\":21668:21671   */\n              0x00\n                /* \"#utility.yul\":21689:21756   */\n              tag_573\n                /* \"#utility.yul\":21753:21755   */\n              0x15\n                /* \"#utility.yul\":21748:21751   */\n              dup4\n                /* \"#utility.yul\":21689:21756   */\n              tag_318\n              jump\t// in\n            tag_573:\n                /* \"#utility.yul\":21682:21756   */\n              swap2\n              pop\n                /* \"#utility.yul\":21765:21858   */\n              tag_574\n                /* \"#utility.yul\":21854:21857   */\n              dup3\n                /* \"#utility.yul\":21765:21858   */\n              tag_354\n              jump\t// in\n            tag_574:\n                /* \"#utility.yul\":21883:21885   */\n              0x20\n                /* \"#utility.yul\":21878:21881   */\n              dup3\n                /* \"#utility.yul\":21874:21886   */\n              add\n                /* \"#utility.yul\":21867:21886   */\n              swap1\n              pop\n                /* \"#utility.yul\":21526:21892   */\n              swap2\n              swap1\n              pop\n              jump\t// out\n                /* \"#utility.yul\":21898:22317   */\n            tag_159:\n                /* \"#utility.yul\":22064:22068   */\n              0x00\n                /* \"#utility.yul\":22102:22104   */\n              0x20\n                /* \"#utility.yul\":22091:22100   */\n              dup3\n                /* \"#utility.yul\":22087:22105   */\n              add\n                /* \"#utility.yul\":22079:22105   */\n              swap1\n              pop\n                /* \"#utility.yul\":22151:22160   */\n              dup2\n                /* \"#utility.yul\":22145:22149   */\n              dup2\n                /* \"#utility.yul\":22141:22161   */\n              sub\n                /* \"#utility.yul\":22137:22138   */\n              0x00\n                /* \"#utility.yul\":22126:22135   */\n              dup4\n                /* \"#utility.yul\":22122:22139   */\n              add\n                /* \"#utility.yul\":22115:22162   */\n              mstore\n                /* \"#utility.yul\":22179:22310   */\n              tag_576\n                /* \"#utility.yul\":22305:22309   */\n              dup2\n                /* \"#utility.yul\":22179:22310   */\n              tag_355\n              jump\t// in\n            tag_576:\n                /* \"#utility.yul\":22171:22310   */\n              swap1\n              pop\n                /* \"#utility.yul\":21898:22317   */\n              swap2\n              swap1\n              pop\n              jump\t// out\n                /* \"#utility.yul\":22323:22503   */\n            tag_356:\n                /* \"#utility.yul\":22371:22448   */\n              0x4e487b7100000000000000000000000000000000000000000000000000000000\n                /* \"#utility.yul\":22368:22369   */\n              0x00\n                /* \"#utility.yul\":22361:22449   */\n              mstore\n                /* \"#utility.yul\":22468:22472   */\n              0x11\n                /* \"#utility.yul\":22465:22466   */\n              0x04\n                /* \"#utility.yul\":22458:22473   */\n              mstore\n                /* \"#utility.yul\":22492:22496   */\n              0x24\n                /* \"#utility.yul\":22489:22490   */\n              0x00\n                /* \"#utility.yul\":22482:22497   */\n              revert\n                /* \"#utility.yul\":22509:22742   */\n            tag_169:\n                /* \"#utility.yul\":22548:22551   */\n              0x00\n                /* \"#utility.yul\":22571:22595   */\n              tag_579\n                /* \"#utility.yul\":22589:22594   */\n              dup3\n                /* \"#utility.yul\":22571:22595   */\n              tag_307\n              jump\t// in\n            tag_579:\n                /* \"#utility.yul\":22562:22595   */\n              swap2\n              pop\n                /* \"#utility.yul\":22617:22683   */\n              0xffffffffffffffffffffffffffffffffffffffffffffffffffffffffffffffff\n                /* \"#utility.yul\":22610:22615   */\n              dup3\n                /* \"#utility.yul\":22607:22684   */\n              eq\n                /* \"#utility.yul\":22604:22707   */\n              iszero\n              tag_580\n              jumpi\n                /* \"#utility.yul\":22687:22705   */\n              tag_581\n              tag_356\n              jump\t// in\n            tag_581:\n                /* \"#utility.yul\":22604:22707   */\n            tag_580:\n                /* \"#utility.yul\":22734:22735   */\n              0x01\n                /* \"#utility.yul\":22727:22732   */\n              dup3\n                /* \"#utility.yul\":22723:22736   */\n              add\n                /* \"#utility.yul\":22716:22736   */\n              swap1\n              pop\n                /* \"#utility.yul\":22509:22742   */\n              swap2\n              swap1\n              pop\n              jump\t// out\n                /* \"#utility.yul\":22748:22970   */\n            tag_357:\n                /* \"#utility.yul\":22888:22922   */\n              0x5468697320617574686f7220616c726561647920617070726f76656420626566\n                /* \"#utility.yul\":22884:22885   */\n              0x00\n                /* \"#utility.yul\":22876:22882   */\n              dup3\n                /* \"#utility.yul\":22872:22886   */\n              add\n                /* \"#utility.yul\":22865:22923   */\n              mstore\n                /* \"#utility.yul\":22957:22962   */\n              0x6f72650000000000000000000000000000000000000000000000000000000000\n                /* \"#utility.yul\":22952:22954   */\n              0x20\n                /* \"#utility.yul\":22944:22950   */\n              dup3\n                /* \"#utility.yul\":22940:22955   */\n              add\n                /* \"#utility.yul\":22933:22963   */\n              mstore\n                /* \"#utility.yul\":22748:22970   */\n              pop\n              jump\t// out\n                /* \"#utility.yul\":22976:23342   */\n            tag_358:\n                /* \"#utility.yul\":23118:23121   */\n              0x00\n                /* \"#utility.yul\":23139:23206   */\n              tag_584\n                /* \"#utility.yul\":23203:23205   */\n              0x23\n                /* \"#utility.yul\":23198:23201   */\n              dup4\n                /* \"#utility.yul\":23139:23206   */\n              tag_318\n              jump\t// in\n            tag_584:\n                /* \"#utility.yul\":23132:23206   */\n              swap2\n              pop\n                /* \"#utility.yul\":23215:23308   */\n              tag_585\n                /* \"#utility.yul\":23304:23307   */\n              dup3\n                /* \"#utility.yul\":23215:23308   */\n              tag_357\n              jump\t// in\n            tag_585:\n                /* \"#utility.yul\":23333:23335   */\n              0x40\n                /* \"#utility.yul\":23328:23331   */\n              dup3\n                /* \"#utility.yul\":23324:23336   */\n              add\n                /* \"#utility.yul\":23317:23336   */\n              swap1\n              pop\n                /* \"#utility.yul\":22976:23342   */\n              swap2\n              swap1\n              pop\n              jump\t// out\n                /* \"#utility.yul\":23348:23767   */\n            tag_212:\n                /* \"#utility.yul\":23514:23518   */\n              0x00\n                /* \"#utility.yul\":23552:23554   */\n              0x20\n                /* \"#utility.yul\":23541:23550   */\n              dup3\n                /* \"#utility.yul\":23537:23555   */\n              add\n                /* \"#utility.yul\":23529:23555   */\n              swap1\n              pop\n                /* \"#utility.yul\":23601:23610   */\n              dup2\n                /* \"#utility.yul\":23595:23599   */\n              dup2\n                /* \"#utility.yul\":23591:23611   */\n              sub\n                /* \"#utility.yul\":23587:23588   */\n              0x00\n                /* \"#utility.yul\":23576:23585   */\n              dup4\n                /* \"#utility.yul\":23572:23589   */\n              add\n                /* \"#utility.yul\":23565:23612   */\n              mstore\n                /* \"#utility.yul\":23629:23760   */\n              tag_587\n                /* \"#utility.yul\":23755:23759   */\n              dup2\n                /* \"#utility.yul\":23629:23760   */\n              tag_358\n              jump\t// in\n            tag_587:\n                /* \"#utility.yul\":23621:23760   */\n              swap1\n              pop\n                /* \"#utility.yul\":23348:23767   */\n              swap2\n              swap1\n              pop\n              jump\t// out\n                /* \"#utility.yul\":23773:24010   */\n            tag_359:\n                /* \"#utility.yul\":23913:23947   */\n              0x4f6e6c7920616e20616363657074656420617574686f722063616e2061747465\n                /* \"#utility.yul\":23909:23910   */\n              0x00\n                /* \"#utility.yul\":23901:23907   */\n              dup3\n                /* \"#utility.yul\":23897:23911   */\n              add\n                /* \"#utility.yul\":23890:23948   */\n              mstore\n                /* \"#utility.yul\":23982:24002   */\n              0x6d707420746f2061646420636861707465720000000000000000000000000000\n                /* \"#utility.yul\":23977:23979   */\n              0x20\n                /* \"#utility.yul\":23969:23975   */\n              dup3\n                /* \"#utility.yul\":23965:23980   */\n              add\n                /* \"#utility.yul\":23958:24003   */\n              mstore\n                /* \"#utility.yul\":23773:24010   */\n              pop\n              jump\t// out\n                /* \"#utility.yul\":24016:24382   */\n            tag_360:\n                /* \"#utility.yul\":24158:24161   */\n              0x00\n                /* \"#utility.yul\":24179:24246   */\n              tag_590\n                /* \"#utility.yul\":24243:24245   */\n              0x32\n                /* \"#utility.yul\":24238:24241   */\n              dup4\n                /* \"#utility.yul\":24179:24246   */\n              tag_318\n              jump\t// in\n            tag_590:\n                /* \"#utility.yul\":24172:24246   */\n              swap2\n              pop\n                /* \"#utility.yul\":24255:24348   */\n              tag_591\n                /* \"#utility.yul\":24344:24347   */\n              dup3\n                /* \"#utility.yul\":24255:24348   */\n              tag_359\n              jump\t// in\n            tag_591:\n                /* \"#utility.yul\":24373:24375   */\n              0x40\n                /* \"#utility.yul\":24368:24371   */\n              dup3\n                /* \"#utility.yul\":24364:24376   */\n              add\n                /* \"#utility.yul\":24357:24376   */\n              swap1\n              pop\n                /* \"#utility.yul\":24016:24382   */\n              swap2\n              swap1\n              pop\n              jump\t// out\n                /* \"#utility.yul\":24388:24807   */\n            tag_231:\n                /* \"#utility.yul\":24554:24558   */\n              0x00\n                /* \"#utility.yul\":24592:24594   */\n              0x20\n                /* \"#utility.yul\":24581:24590   */\n              dup3\n                /* \"#utility.yul\":24577:24595   */\n              add\n                /* \"#utility.yul\":24569:24595   */\n              swap1\n              pop\n                /* \"#utility.yul\":24641:24650   */\n              dup2\n                /* \"#utility.yul\":24635:24639   */\n              dup2\n                /* \"#utility.yul\":24631:24651   */\n              sub\n                /* \"#utility.yul\":24627:24628   */\n              0x00\n                /* \"#utility.yul\":24616:24625   */\n              dup4\n                /* \"#utility.yul\":24612:24629   */\n              add\n                /* \"#utility.yul\":24605:24652   */\n              mstore\n                /* \"#utility.yul\":24669:24800   */\n              tag_593\n                /* \"#utility.yul\":24795:24799   */\n              dup2\n                /* \"#utility.yul\":24669:24800   */\n              tag_360\n              jump\t// in\n            tag_593:\n                /* \"#utility.yul\":24661:24800   */\n              swap1\n              pop\n                /* \"#utility.yul\":24388:24807   */\n              swap2\n              swap1\n              pop\n              jump\t// out\n                /* \"#utility.yul\":24813:25033   */\n            tag_361:\n                /* \"#utility.yul\":24953:24987   */\n              0x506172656e742063686170746572206d757374206265206120636f6e74726163\n                /* \"#utility.yul\":24949:24950   */\n              0x00\n                /* \"#utility.yul\":24941:24947   */\n              dup3\n                /* \"#utility.yul\":24937:24951   */\n              add\n                /* \"#utility.yul\":24930:24988   */\n              mstore\n                /* \"#utility.yul\":25022:25025   */\n              0x7400000000000000000000000000000000000000000000000000000000000000\n                /* \"#utility.yul\":25017:25019   */\n              0x20\n                /* \"#utility.yul\":25009:25015   */\n              dup3\n                /* \"#utility.yul\":25005:25020   */\n              add\n                /* \"#utility.yul\":24998:25026   */\n              mstore\n                /* \"#utility.yul\":24813:25033   */\n              pop\n              jump\t// out\n                /* \"#utility.yul\":25039:25405   */\n            tag_362:\n                /* \"#utility.yul\":25181:25184   */\n              0x00\n                /* \"#utility.yul\":25202:25269   */\n              tag_596\n                /* \"#utility.yul\":25266:25268   */\n              0x21\n                /* \"#utility.yul\":25261:25264   */\n              dup4\n                /* \"#utility.yul\":25202:25269   */\n              tag_318\n              jump\t// in\n            tag_596:\n                /* \"#utility.yul\":25195:25269   */\n              swap2\n              pop\n                /* \"#utility.yul\":25278:25371   */\n              tag_597\n                /* \"#utility.yul\":25367:25370   */\n              dup3\n                /* \"#utility.yul\":25278:25371   */\n              tag_361\n              jump\t// in\n            tag_597:\n                /* \"#utility.yul\":25396:25398   */\n              0x40\n                /* \"#utility.yul\":25391:25394   */\n              dup3\n                /* \"#utility.yul\":25387:25399   */\n              add\n                /* \"#utility.yul\":25380:25399   */\n              swap1\n              pop\n                /* \"#utility.yul\":25039:25405   */\n              swap2\n              swap1\n              pop\n              jump\t// out\n                /* \"#utility.yul\":25411:25830   */\n            tag_236:\n                /* \"#utility.yul\":25577:25581   */\n              0x00\n                /* \"#utility.yul\":25615:25617   */\n              0x20\n                /* \"#utility.yul\":25604:25613   */\n              dup3\n                /* \"#utility.yul\":25600:25618   */\n              add\n                /* \"#utility.yul\":25592:25618   */\n              swap1\n              pop\n                /* \"#utility.yul\":25664:25673   */\n              dup2\n                /* \"#utility.yul\":25658:25662   */\n              dup2\n                /* \"#utility.yul\":25654:25674   */\n              sub\n                /* \"#utility.yul\":25650:25651   */\n              0x00\n                /* \"#utility.yul\":25639:25648   */\n              dup4\n                /* \"#utility.yul\":25635:25652   */\n              add\n                /* \"#utility.yul\":25628:25675   */\n              mstore\n                /* \"#utility.yul\":25692:25823   */\n              tag_599\n                /* \"#utility.yul\":25818:25822   */\n              dup2\n                /* \"#utility.yul\":25692:25823   */\n              tag_362\n              jump\t// in\n            tag_599:\n                /* \"#utility.yul\":25684:25823   */\n              swap1\n              pop\n                /* \"#utility.yul\":25411:25830   */\n              swap2\n              swap1\n              pop\n              jump\t// out\n                /* \"#utility.yul\":25836:26018   */\n            tag_363:\n                /* \"#utility.yul\":25976:26010   */\n              0x4368696c642063686170746572206d757374206265206120636f6e7472616374\n                /* \"#utility.yul\":25972:25973   */\n              0x00\n                /* \"#utility.yul\":25964:25970   */\n              dup3\n                /* \"#utility.yul\":25960:25974   */\n              add\n                /* \"#utility.yul\":25953:26011   */\n              mstore\n                /* \"#utility.yul\":25836:26018   */\n              pop\n              jump\t// out\n                /* \"#utility.yul\":26024:26390   */\n            tag_364:\n                /* \"#utility.yul\":26166:26169   */\n              0x00\n                /* \"#utility.yul\":26187:26254   */\n              tag_602\n                /* \"#utility.yul\":26251:26253   */\n              0x20\n                /* \"#utility.yul\":26246:26249   */\n              dup4\n                /* \"#utility.yul\":26187:26254   */\n              tag_318\n              jump\t// in\n            tag_602:\n                /* \"#utility.yul\":26180:26254   */\n              swap2\n              pop\n                /* \"#utility.yul\":26263:26356   */\n              tag_603\n                /* \"#utility.yul\":26352:26355   */\n              dup3\n                /* \"#utility.yul\":26263:26356   */\n              tag_363\n              jump\t// in\n            tag_603:\n                /* \"#utility.yul\":26381:26383   */\n              0x20\n                /* \"#utility.yul\":26376:26379   */\n              dup3\n                /* \"#utility.yul\":26372:26384   */\n              add\n                /* \"#utility.yul\":26365:26384   */\n              swap1\n              pop\n                /* \"#utility.yul\":26024:26390   */\n              swap2\n              swap1\n              pop\n              jump\t// out\n                /* \"#utility.yul\":26396:26815   */\n            tag_240:\n                /* \"#utility.yul\":26562:26566   */\n              0x00\n                /* \"#utility.yul\":26600:26602   */\n              0x20\n                /* \"#utility.yul\":26589:26598   */\n              dup3\n                /* \"#utility.yul\":26585:26603   */\n              add\n                /* \"#utility.yul\":26577:26603   */\n              swap1\n              pop\n                /* \"#utility.yul\":26649:26658   */\n              dup2\n                /* \"#utility.yul\":26643:26647   */\n              dup2\n                /* \"#utility.yul\":26639:26659   */\n              sub\n                /* \"#utility.yul\":26635:26636   */\n              0x00\n                /* \"#utility.yul\":26624:26633   */\n              dup4\n                /* \"#utility.yul\":26620:26637   */\n              add\n                /* \"#utility.yul\":26613:26660   */\n              mstore\n                /* \"#utility.yul\":26677:26808   */\n              tag_605\n                /* \"#utility.yul\":26803:26807   */\n              dup2\n                /* \"#utility.yul\":26677:26808   */\n              tag_364\n              jump\t// in\n            tag_605:\n                /* \"#utility.yul\":26669:26808   */\n              swap1\n              pop\n                /* \"#utility.yul\":26396:26815   */\n              swap2\n              swap1\n              pop\n              jump\t// out\n                /* \"#utility.yul\":26821:27052   */\n            tag_365:\n                /* \"#utility.yul\":26961:26995   */\n              0x506172656e742063686170746572206d7573742062656c6f6e6720746f207468\n                /* \"#utility.yul\":26957:26958   */\n              0x00\n                /* \"#utility.yul\":26949:26955   */\n              dup3\n                /* \"#utility.yul\":26945:26959   */\n              add\n                /* \"#utility.yul\":26938:26996   */\n              mstore\n                /* \"#utility.yul\":27030:27044   */\n              0x652073616d652073746f72790000000000000000000000000000000000000000\n                /* \"#utility.yul\":27025:27027   */\n              0x20\n                /* \"#utility.yul\":27017:27023   */\n              dup3\n                /* \"#utility.yul\":27013:27028   */\n              add\n                /* \"#utility.yul\":27006:27045   */\n              mstore\n                /* \"#utility.yul\":26821:27052   */\n              pop\n              jump\t// out\n                /* \"#utility.yul\":27058:27424   */\n            tag_366:\n                /* \"#utility.yul\":27200:27203   */\n              0x00\n                /* \"#utility.yul\":27221:27288   */\n              tag_608\n                /* \"#utility.yul\":27285:27287   */\n              0x2c\n                /* \"#utility.yul\":27280:27283   */\n              dup4\n                /* \"#utility.yul\":27221:27288   */\n              tag_318\n              jump\t// in\n            tag_608:\n                /* \"#utility.yul\":27214:27288   */\n              swap2\n              pop\n                /* \"#utility.yul\":27297:27390   */\n              tag_609\n                /* \"#utility.yul\":27386:27389   */\n              dup3\n                /* \"#utility.yul\":27297:27390   */\n              tag_365\n              jump\t// in\n            tag_609:\n                /* \"#utility.yul\":27415:27417   */\n              0x40\n                /* \"#utility.yul\":27410:27413   */\n              dup3\n                /* \"#utility.yul\":27406:27418   */\n              add\n                /* \"#utility.yul\":27399:27418   */\n              swap1\n              pop\n                /* \"#utility.yul\":27058:27424   */\n              swap2\n              swap1\n              pop\n              jump\t// out\n                /* \"#utility.yul\":27430:27849   */\n            tag_245:\n                /* \"#utility.yul\":27596:27600   */\n              0x00\n                /* \"#utility.yul\":27634:27636   */\n              0x20\n                /* \"#utility.yul\":27623:27632   */\n              dup3\n                /* \"#utility.yul\":27619:27637   */\n              add\n                /* \"#utility.yul\":27611:27637   */\n              swap1\n              pop\n                /* \"#utility.yul\":27683:27692   */\n              dup2\n                /* \"#utility.yul\":27677:27681   */\n              dup2\n                /* \"#utility.yul\":27673:27693   */\n              sub\n                /* \"#utility.yul\":27669:27670   */\n              0x00\n                /* \"#utility.yul\":27658:27667   */\n              dup4\n                /* \"#utility.yul\":27654:27671   */\n              add\n                /* \"#utility.yul\":27647:27694   */\n              mstore\n                /* \"#utility.yul\":27711:27842   */\n              tag_611\n                /* \"#utility.yul\":27837:27841   */\n              dup2\n                /* \"#utility.yul\":27711:27842   */\n              tag_366\n              jump\t// in\n            tag_611:\n                /* \"#utility.yul\":27703:27842   */\n              swap1\n              pop\n                /* \"#utility.yul\":27430:27849   */\n              swap2\n              swap1\n              pop\n              jump\t// out\n                /* \"#utility.yul\":27855:28085   */\n            tag_367:\n                /* \"#utility.yul\":27995:28029   */\n              0x4368696c642063686170746572206d7573742062656c6f6e6720746f20746865\n                /* \"#utility.yul\":27991:27992   */\n              0x00\n                /* \"#utility.yul\":27983:27989   */\n              dup3\n                /* \"#utility.yul\":27979:27993   */\n              add\n                /* \"#utility.yul\":27972:28030   */\n              mstore\n                /* \"#utility.yul\":28064:28077   */\n              0x2073616d652073746f7279000000000000000000000000000000000000000000\n                /* \"#utility.yul\":28059:28061   */\n              0x20\n                /* \"#utility.yul\":28051:28057   */\n              dup3\n                /* \"#utility.yul\":28047:28062   */\n              add\n                /* \"#utility.yul\":28040:28078   */\n              mstore\n                /* \"#utility.yul\":27855:28085   */\n              pop\n              jump\t// out\n                /* \"#utility.yul\":28091:28457   */\n            tag_368:\n                /* \"#utility.yul\":28233:28236   */\n              0x00\n                /* \"#utility.yul\":28254:28321   */\n              tag_614\n                /* \"#utility.yul\":28318:28320   */\n              0x2b\n                /* \"#utility.yul\":28313:28316   */\n              dup4\n                /* \"#utility.yul\":28254:28321   */\n              tag_318\n              jump\t// in\n            tag_614:\n                /* \"#utility.yul\":28247:28321   */\n              swap2\n              pop\n                /* \"#utility.yul\":28330:28423   */\n              tag_615\n                /* \"#utility.yul\":28419:28422   */\n              dup3\n                /* \"#utility.yul\":28330:28423   */\n              tag_367\n              jump\t// in\n            tag_615:\n                /* \"#utility.yul\":28448:28450   */\n              0x40\n                /* \"#utility.yul\":28443:28446   */\n              dup3\n                /* \"#utility.yul\":28439:28451   */\n              add\n                /* \"#utility.yul\":28432:28451   */\n              swap1\n              pop\n                /* \"#utility.yul\":28091:28457   */\n              swap2\n              swap1\n              pop\n              jump\t// out\n                /* \"#utility.yul\":28463:28882   */\n            tag_250:\n                /* \"#utility.yul\":28629:28633   */\n              0x00\n                /* \"#utility.yul\":28667:28669   */\n              0x20\n                /* \"#utility.yul\":28656:28665   */\n              dup3\n                /* \"#utility.yul\":28652:28670   */\n              add\n                /* \"#utility.yul\":28644:28670   */\n              swap1\n              pop\n                /* \"#utility.yul\":28716:28725   */\n              dup2\n                /* \"#utility.yul\":28710:28714   */\n              dup2\n                /* \"#utility.yul\":28706:28726   */\n              sub\n                /* \"#utility.yul\":28702:28703   */\n              0x00\n                /* \"#utility.yul\":28691:28700   */\n              dup4\n                /* \"#utility.yul\":28687:28704   */\n              add\n                /* \"#utility.yul\":28680:28727   */\n              mstore\n                /* \"#utility.yul\":28744:28875   */\n              tag_617\n                /* \"#utility.yul\":28870:28874   */\n              dup2\n                /* \"#utility.yul\":28744:28875   */\n              tag_368\n              jump\t// in\n            tag_617:\n                /* \"#utility.yul\":28736:28875   */\n              swap1\n              pop\n                /* \"#utility.yul\":28463:28882   */\n              swap2\n              swap1\n              pop\n              jump\t// out\n                /* \"#utility.yul\":28888:29069   */\n            tag_369:\n                /* \"#utility.yul\":29028:29061   */\n              0x4d696e696d756d20636f6e747269627574696f6e206973203130302057656900\n                /* \"#utility.yul\":29024:29025   */\n              0x00\n                /* \"#utility.yul\":29016:29022   */\n              dup3\n                /* \"#utility.yul\":29012:29026   */\n              add\n                /* \"#utility.yul\":29005:29062   */\n              mstore\n                /* \"#utility.yul\":28888:29069   */\n              pop\n              jump\t// out\n                /* \"#utility.yul\":29075:29441   */\n            tag_370:\n                /* \"#utility.yul\":29217:29220   */\n              0x00\n                /* \"#utility.yul\":29238:29305   */\n              tag_620\n                /* \"#utility.yul\":29302:29304   */\n              0x1f\n                /* \"#utility.yul\":29297:29300   */\n              dup4\n                /* \"#utility.yul\":29238:29305   */\n              tag_318\n              jump\t// in\n            tag_620:\n                /* \"#utility.yul\":29231:29305   */\n              swap2\n              pop\n                /* \"#utility.yul\":29314:29407   */\n              tag_621\n                /* \"#utility.yul\":29403:29406   */\n              dup3\n                /* \"#utility.yul\":29314:29407   */\n              tag_369\n              jump\t// in\n            tag_621:\n                /* \"#utility.yul\":29432:29434   */\n              0x20\n                /* \"#utility.yul\":29427:29430   */\n              dup3\n                /* \"#utility.yul\":29423:29435   */\n              add\n                /* \"#utility.yul\":29416:29435   */\n              swap1\n              pop\n                /* \"#utility.yul\":29075:29441   */\n              swap2\n              swap1\n              pop\n              jump\t// out\n                /* \"#utility.yul\":29447:29866   */\n            tag_260:\n                /* \"#utility.yul\":29613:29617   */\n              0x00\n                /* \"#utility.yul\":29651:29653   */\n              0x20\n                /* \"#utility.yul\":29640:29649   */\n              dup3\n                /* \"#utility.yul\":29636:29654   */\n              add\n                /* \"#utility.yul\":29628:29654   */\n              swap1\n              pop\n                /* \"#utility.yul\":29700:29709   */\n              dup2\n                /* \"#utility.yul\":29694:29698   */\n              dup2\n                /* \"#utility.yul\":29690:29710   */\n              sub\n                /* \"#utility.yul\":29686:29687   */\n              0x00\n                /* \"#utility.yul\":29675:29684   */\n              dup4\n                /* \"#utility.yul\":29671:29688   */\n              add\n                /* \"#utility.yul\":29664:29711   */\n              mstore\n                /* \"#utility.yul\":29728:29859   */\n              tag_623\n                /* \"#utility.yul\":29854:29858   */\n              dup2\n                /* \"#utility.yul\":29728:29859   */\n              tag_370\n              jump\t// in\n            tag_623:\n                /* \"#utility.yul\":29720:29859   */\n              swap1\n              pop\n                /* \"#utility.yul\":29447:29866   */\n              swap2\n              swap1\n              pop\n              jump\t// out\n                /* \"#utility.yul\":29872:30103   */\n            tag_371:\n                /* \"#utility.yul\":30012:30046   */\n              0x417574686f7220616c72656164792065786973747320696e20746865206c6973\n                /* \"#utility.yul\":30008:30009   */\n              0x00\n                /* \"#utility.yul\":30000:30006   */\n              dup3\n                /* \"#utility.yul\":29996:30010   */\n              add\n                /* \"#utility.yul\":29989:30047   */\n              mstore\n                /* \"#utility.yul\":30081:30095   */\n              0x74206f6620617574686f72730000000000000000000000000000000000000000\n                /* \"#utility.yul\":30076:30078   */\n              0x20\n                /* \"#utility.yul\":30068:30074   */\n              dup3\n                /* \"#utility.yul\":30064:30079   */\n              add\n                /* \"#utility.yul\":30057:30096   */\n              mstore\n                /* \"#utility.yul\":29872:30103   */\n              pop\n              jump\t// out\n                /* \"#utility.yul\":30109:30475   */\n            tag_372:\n                /* \"#utility.yul\":30251:30254   */\n              0x00\n                /* \"#utility.yul\":30272:30339   */\n              tag_626\n                /* \"#utility.yul\":30336:30338   */\n              0x2c\n                /* \"#utility.yul\":30331:30334   */\n              dup4\n                /* \"#utility.yul\":30272:30339   */\n              tag_318\n              jump\t// in\n            tag_626:\n                /* \"#utility.yul\":30265:30339   */\n              swap2\n              pop\n                /* \"#utility.yul\":30348:30441   */\n              tag_627\n                /* \"#utility.yul\":30437:30440   */\n              dup3\n                /* \"#utility.yul\":30348:30441   */\n              tag_371\n              jump\t// in\n            tag_627:\n                /* \"#utility.yul\":30466:30468   */\n              0x40\n                /* \"#utility.yul\":30461:30464   */\n              dup3\n                /* \"#utility.yul\":30457:30469   */\n              add\n                /* \"#utility.yul\":30450:30469   */\n              swap1\n              pop\n                /* \"#utility.yul\":30109:30475   */\n              swap2\n              swap1\n              pop\n              jump\t// out\n                /* \"#utility.yul\":30481:30900   */\n            tag_266:\n                /* \"#utility.yul\":30647:30651   */\n              0x00\n                /* \"#utility.yul\":30685:30687   */\n              0x20\n                /* \"#utility.yul\":30674:30683   */\n              dup3\n                /* \"#utility.yul\":30670:30688   */\n              add\n                /* \"#utility.yul\":30662:30688   */\n              swap1\n              pop\n                /* \"#utility.yul\":30734:30743   */\n              dup2\n                /* \"#utility.yul\":30728:30732   */\n              dup2\n                /* \"#utility.yul\":30724:30744   */\n              sub\n                /* \"#utility.yul\":30720:30721   */\n              0x00\n                /* \"#utility.yul\":30709:30718   */\n              dup4\n                /* \"#utility.yul\":30705:30722   */\n              add\n                /* \"#utility.yul\":30698:30745   */\n              mstore\n                /* \"#utility.yul\":30762:30893   */\n              tag_629\n                /* \"#utility.yul\":30888:30892   */\n              dup2\n                /* \"#utility.yul\":30762:30893   */\n              tag_372\n              jump\t// in\n            tag_629:\n                /* \"#utility.yul\":30754:30893   */\n              swap1\n              pop\n                /* \"#utility.yul\":30481:30900   */\n              swap2\n              swap1\n              pop\n              jump\t// out\n                /* \"#utility.yul\":30906:31211   */\n            tag_278:\n                /* \"#utility.yul\":30946:30949   */\n              0x00\n                /* \"#utility.yul\":30965:30985   */\n              tag_631\n                /* \"#utility.yul\":30983:30984   */\n              dup3\n                /* \"#utility.yul\":30965:30985   */\n              tag_307\n              jump\t// in\n            tag_631:\n                /* \"#utility.yul\":30960:30985   */\n              swap2\n              pop\n                /* \"#utility.yul\":30999:31019   */\n              tag_632\n                /* \"#utility.yul\":31017:31018   */\n              dup4\n                /* \"#utility.yul\":30999:31019   */\n              tag_307\n              jump\t// in\n            tag_632:\n                /* \"#utility.yul\":30994:31019   */\n              swap3\n              pop\n                /* \"#utility.yul\":31153:31154   */\n              dup3\n                /* \"#utility.yul\":31085:31151   */\n              0xffffffffffffffffffffffffffffffffffffffffffffffffffffffffffffffff\n                /* \"#utility.yul\":31081:31155   */\n              sub\n                /* \"#utility.yul\":31078:31079   */\n              dup3\n                /* \"#utility.yul\":31075:31156   */\n              gt\n                /* \"#utility.yul\":31072:31179   */\n              iszero\n              tag_633\n              jumpi\n                /* \"#utility.yul\":31159:31177   */\n              tag_634\n              tag_356\n              jump\t// in\n            tag_634:\n                /* \"#utility.yul\":31072:31179   */\n            tag_633:\n                /* \"#utility.yul\":31203:31204   */\n              dup3\n                /* \"#utility.yul\":31200:31201   */\n              dup3\n                /* \"#utility.yul\":31196:31205   */\n              add\n                /* \"#utility.yul\":31189:31205   */\n              swap1\n              pop\n                /* \"#utility.yul\":30906:31211   */\n              swap3\n              swap2\n              pop\n              pop\n              jump\t// out\n                /* \"#utility.yul\":31217:31394   */\n            tag_373:\n                /* \"#utility.yul\":31357:31386   */\n              0x536166654d6174683a206164646974696f6e206f766572666c6f770000000000\n                /* \"#utility.yul\":31353:31354   */\n              0x00\n                /* \"#utility.yul\":31345:31351   */\n              dup3\n                /* \"#utility.yul\":31341:31355   */\n              add\n                /* \"#utility.yul\":31334:31387   */\n              mstore\n                /* \"#utility.yul\":31217:31394   */\n              pop\n              jump\t// out\n                /* \"#utility.yul\":31400:31766   */\n            tag_374:\n                /* \"#utility.yul\":31542:31545   */\n              0x00\n                /* \"#utility.yul\":31563:31630   */\n              tag_637\n                /* \"#utility.yul\":31627:31629   */\n              0x1b\n                /* \"#utility.yul\":31622:31625   */\n              dup4\n                /* \"#utility.yul\":31563:31630   */\n              tag_318\n              jump\t// in\n            tag_637:\n                /* \"#utility.yul\":31556:31630   */\n              swap2\n              pop\n                /* \"#utility.yul\":31639:31732   */\n              tag_638\n                /* \"#utility.yul\":31728:31731   */\n              dup3\n                /* \"#utility.yul\":31639:31732   */\n              tag_373\n              jump\t// in\n            tag_638:\n                /* \"#utility.yul\":31757:31759   */\n              0x20\n                /* \"#utility.yul\":31752:31755   */\n              dup3\n                /* \"#utility.yul\":31748:31760   */\n              add\n                /* \"#utility.yul\":31741:31760   */\n              swap1\n              pop\n                /* \"#utility.yul\":31400:31766   */\n              swap2\n              swap1\n              pop\n              jump\t// out\n                /* \"#utility.yul\":31772:32191   */\n            tag_281:\n                /* \"#utility.yul\":31938:31942   */\n              0x00\n                /* \"#utility.yul\":31976:31978   */\n              0x20\n                /* \"#utility.yul\":31965:31974   */\n              dup3\n                /* \"#utility.yul\":31961:31979   */\n              add\n                /* \"#utility.yul\":31953:31979   */\n              swap1\n              pop\n                /* \"#utility.yul\":32025:32034   */\n              dup2\n                /* \"#utility.yul\":32019:32023   */\n              dup2\n                /* \"#utility.yul\":32015:32035   */\n              sub\n                /* \"#utility.yul\":32011:32012   */\n              0x00\n                /* \"#utility.yul\":32000:32009   */\n              dup4\n                /* \"#utility.yul\":31996:32013   */\n              add\n                /* \"#utility.yul\":31989:32036   */\n              mstore\n                /* \"#utility.yul\":32053:32184   */\n              tag_640\n                /* \"#utility.yul\":32179:32183   */\n              dup2\n                /* \"#utility.yul\":32053:32184   */\n              tag_374\n              jump\t// in\n            tag_640:\n                /* \"#utility.yul\":32045:32184   */\n              swap1\n              pop\n                /* \"#utility.yul\":31772:32191   */\n              swap2\n              swap1\n              pop\n              jump\t// out\n                /* \"#utility.yul\":32197:32373   */\n            tag_375:\n                /* \"#utility.yul\":32337:32365   */\n              0x536166654d6174683a206469766973696f6e206279207a65726f000000000000\n                /* \"#utility.yul\":32333:32334   */\n              0x00\n                /* \"#utility.yul\":32325:32331   */\n              dup3\n                /* \"#utility.yul\":32321:32335   */\n              add\n                /* \"#utility.yul\":32314:32366   */\n              mstore\n                /* \"#utility.yul\":32197:32373   */\n              pop\n              jump\t// out\n                /* \"#utility.yul\":32379:32745   */\n            tag_376:\n                /* \"#utility.yul\":32521:32524   */\n              0x00\n                /* \"#utility.yul\":32542:32609   */\n              tag_643\n                /* \"#utility.yul\":32606:32608   */\n              0x1a\n                /* \"#utility.yul\":32601:32604   */\n              dup4\n                /* \"#utility.yul\":32542:32609   */\n              tag_318\n              jump\t// in\n            tag_643:\n                /* \"#utility.yul\":32535:32609   */\n              swap2\n              pop\n                /* \"#utility.yul\":32618:32711   */\n              tag_644\n                /* \"#utility.yul\":32707:32710   */\n              dup3\n                /* \"#utility.yul\":32618:32711   */\n              tag_375\n              jump\t// in\n            tag_644:\n                /* \"#utility.yul\":32736:32738   */\n              0x20\n                /* \"#utility.yul\":32731:32734   */\n              dup3\n                /* \"#utility.yul\":32727:32739   */\n              add\n                /* \"#utility.yul\":32720:32739   */\n              swap1\n              pop\n                /* \"#utility.yul\":32379:32745   */\n              swap2\n              swap1\n              pop\n              jump\t// out\n                /* \"#utility.yul\":32751:33170   */\n            tag_285:\n                /* \"#utility.yul\":32917:32921   */\n              0x00\n                /* \"#utility.yul\":32955:32957   */\n              0x20\n                /* \"#utility.yul\":32944:32953   */\n              dup3\n                /* \"#utility.yul\":32940:32958   */\n              add\n                /* \"#utility.yul\":32932:32958   */\n              swap1\n              pop\n                /* \"#utility.yul\":33004:33013   */\n              dup2\n                /* \"#utility.yul\":32998:33002   */\n              dup2\n                /* \"#utility.yul\":32994:33014   */\n              sub\n                /* \"#utility.yul\":32990:32991   */\n              0x00\n                /* \"#utility.yul\":32979:32988   */\n              dup4\n                /* \"#utility.yul\":32975:32992   */\n              add\n                /* \"#utility.yul\":32968:33015   */\n              mstore\n                /* \"#utility.yul\":33032:33163   */\n              tag_646\n                /* \"#utility.yul\":33158:33162   */\n              dup2\n                /* \"#utility.yul\":33032:33163   */\n              tag_376\n              jump\t// in\n            tag_646:\n                /* \"#utility.yul\":33024:33163   */\n              swap1\n              pop\n                /* \"#utility.yul\":32751:33170   */\n              swap2\n              swap1\n              pop\n              jump\t// out\n                /* \"#utility.yul\":33176:33356   */\n            tag_377:\n                /* \"#utility.yul\":33224:33301   */\n              0x4e487b7100000000000000000000000000000000000000000000000000000000\n                /* \"#utility.yul\":33221:33222   */\n              0x00\n                /* \"#utility.yul\":33214:33302   */\n              mstore\n                /* \"#utility.yul\":33321:33325   */\n              0x12\n                /* \"#utility.yul\":33318:33319   */\n              0x04\n                /* \"#utility.yul\":33311:33326   */\n              mstore\n                /* \"#utility.yul\":33345:33349   */\n              0x24\n                /* \"#utility.yul\":33342:33343   */\n              0x00\n                /* \"#utility.yul\":33335:33350   */\n              revert\n                /* \"#utility.yul\":33362:33547   */\n            tag_287:\n                /* \"#utility.yul\":33402:33403   */\n              0x00\n                /* \"#utility.yul\":33419:33439   */\n              tag_649\n                /* \"#utility.yul\":33437:33438   */\n              dup3\n                /* \"#utility.yul\":33419:33439   */\n              tag_307\n              jump\t// in\n            tag_649:\n                /* \"#utility.yul\":33414:33439   */\n              swap2\n              pop\n                /* \"#utility.yul\":33453:33473   */\n              tag_650\n                /* \"#utility.yul\":33471:33472   */\n              dup4\n                /* \"#utility.yul\":33453:33473   */\n              tag_307\n              jump\t// in\n            tag_650:\n                /* \"#utility.yul\":33448:33473   */\n              swap3\n              pop\n                /* \"#utility.yul\":33492:33493   */\n              dup3\n                /* \"#utility.yul\":33482:33517   */\n              tag_651\n              jumpi\n                /* \"#utility.yul\":33497:33515   */\n              tag_652\n              tag_377\n              jump\t// in\n            tag_652:\n                /* \"#utility.yul\":33482:33517   */\n            tag_651:\n                /* \"#utility.yul\":33539:33540   */\n              dup3\n                /* \"#utility.yul\":33536:33537   */\n              dup3\n                /* \"#utility.yul\":33532:33541   */\n              div\n                /* \"#utility.yul\":33527:33541   */\n              swap1\n              pop\n                /* \"#utility.yul\":33362:33547   */\n              swap3\n              swap2\n              pop\n              pop\n              jump\t// out\n            stop\n\n            sub_0: assembly {\n                    /* \"Story.sol\":8930:10674  contract Chapter {... */\n                  mstore(0x40, 0x80)\n                    /* \"Story.sol\":9232:9651  constructor(address _author, address _story, string memory _ipfsHash, address parentChapter, address childChapter) {... */\n                  callvalue\n                  dup1\n                  iszero\n                  tag_1\n                  jumpi\n                  0x00\n                  dup1\n                  revert\n                tag_1:\n                  pop\n                  mload(0x40)\n                  sub(codesize, bytecodeSize)\n                  dup1\n                  bytecodeSize\n                  dup4\n                  codecopy\n                  dup2\n                  dup2\n                  add\n                  0x40\n                  mstore\n                  dup2\n                  add\n                  swap1\n                  tag_2\n                  swap2\n                  swap1\n                  tag_3\n                  jump\t// in\n                tag_2:\n                    /* \"Story.sol\":9367:9374  _author */\n                  dup5\n                    /* \"Story.sol\":9358:9364  author */\n                  0x01\n                  0x00\n                    /* \"Story.sol\":9358:9374  author = _author */\n                  0x0100\n                  exp\n                  dup2\n                  sload\n                  dup2\n                  0xffffffffffffffffffffffffffffffffffffffff\n                  mul\n                  not\n                  and\n                  swap1\n                  dup4\n                  0xffffffffffffffffffffffffffffffffffffffff\n                  and\n                  mul\n                  or\n                  swap1\n                  sstore\n                  pop\n                    /* \"Story.sol\":9393:9399  _story */\n                  dup4\n                    /* \"Story.sol\":9385:9390  story */\n                  0x00\n                  dup1\n                    /* \"Story.sol\":9385:9399  story = _story */\n                  0x0100\n                  exp\n                  dup2\n                  sload\n                  dup2\n                  0xffffffffffffffffffffffffffffffffffffffff\n                  mul\n                  not\n                  and\n                  swap1\n                  dup4\n                  0xffffffffffffffffffffffffffffffffffffffff\n                  and\n                  mul\n                  or\n                  swap1\n                  sstore\n                  pop\n                    /* \"Story.sol\":9421:9430  _ipfsHash */\n                  dup3\n                    /* \"Story.sol\":9410:9418  ipfsHash */\n                  0x02\n                    /* \"Story.sol\":9410:9430  ipfsHash = _ipfsHash */\n                  swap1\n                  dup1\n                  mload\n                  swap1\n                  0x20\n                  add\n                  swap1\n                  tag_6\n                  swap3\n                  swap2\n                  swap1\n                  tag_7\n                  jump\t// in\n                tag_6:\n                  pop\n                    /* \"Story.sol\":9469:9470  0 */\n                  0x00\n                    /* \"Story.sol\":9444:9471  parentChapter != address(0) */\n                  0xffffffffffffffffffffffffffffffffffffffff\n                  and\n                    /* \"Story.sol\":9444:9457  parentChapter */\n                  dup3\n                    /* \"Story.sol\":9444:9471  parentChapter != address(0) */\n                  0xffffffffffffffffffffffffffffffffffffffff\n                  and\n                  eq\n                    /* \"Story.sol\":9441:9539  if(parentChapter != address(0)){... */\n                  tag_8\n                  jumpi\n                    /* \"Story.sol\":9487:9507  linkedParentChapters */\n                  0x03\n                    /* \"Story.sol\":9513:9526  parentChapter */\n                  dup3\n                    /* \"Story.sol\":9487:9527  linkedParentChapters.push(parentChapter) */\n                  swap1\n                  dup1\n                  0x01\n                  dup2\n                  sload\n                  add\n                  dup1\n                  dup3\n                  sstore\n                  dup1\n                  swap2\n                  pop\n                  pop\n                  0x01\n                  swap1\n                  sub\n                  swap1\n                  0x00\n                  mstore\n                  keccak256(0x00, 0x20)\n                  add\n                  0x00\n                  swap1\n                  swap2\n                  swap1\n                  swap2\n                  swap1\n                  swap2\n                  0x0100\n                  exp\n                  dup2\n                  sload\n                  dup2\n                  0xffffffffffffffffffffffffffffffffffffffff\n                  mul\n                  not\n                  and\n                  swap1\n                  dup4\n                  0xffffffffffffffffffffffffffffffffffffffff\n                  and\n                  mul\n                  or\n                  swap1\n                  sstore\n                  pop\n                    /* \"Story.sol\":9441:9539  if(parentChapter != address(0)){... */\n                tag_8:\n                    /* \"Story.sol\":9576:9577  0 */\n                  0x00\n                    /* \"Story.sol\":9552:9578  childChapter != address(0) */\n                  0xffffffffffffffffffffffffffffffffffffffff\n                  and\n                    /* \"Story.sol\":9552:9564  childChapter */\n                  dup2\n                    /* \"Story.sol\":9552:9578  childChapter != address(0) */\n                  0xffffffffffffffffffffffffffffffffffffffff\n                  and\n                  eq\n                    /* \"Story.sol\":9549:9644  if(childChapter != address(0)){... */\n                  tag_10\n                  jumpi\n                    /* \"Story.sol\":9594:9613  linkedChildChapters */\n                  0x04\n                    /* \"Story.sol\":9619:9631  childChapter */\n                  dup2\n                    /* \"Story.sol\":9594:9632  linkedChildChapters.push(childChapter) */\n                  swap1\n                  dup1\n                  0x01\n                  dup2\n                  sload\n                  add\n                  dup1\n                  dup3\n                  sstore\n                  dup1\n                  swap2\n                  pop\n                  pop\n                  0x01\n                  swap1\n                  sub\n                  swap1\n                  0x00\n                  mstore\n                  keccak256(0x00, 0x20)\n                  add\n                  0x00\n                  swap1\n                  swap2\n                  swap1\n                  swap2\n                  swap1\n                  swap2\n                  0x0100\n                  exp\n                  dup2\n                  sload\n                  dup2\n                  0xffffffffffffffffffffffffffffffffffffffff\n                  mul\n                  not\n                  and\n                  swap1\n                  dup4\n                  0xffffffffffffffffffffffffffffffffffffffff\n                  and\n                  mul\n                  or\n                  swap1\n                  sstore\n                  pop\n                    /* \"Story.sol\":9549:9644  if(childChapter != address(0)){... */\n                tag_10:\n                    /* \"Story.sol\":9232:9651  constructor(address _author, address _story, string memory _ipfsHash, address parentChapter, address childChapter) {... */\n                  pop\n                  pop\n                  pop\n                  pop\n                  pop\n                    /* \"Story.sol\":8930:10674  contract Chapter {... */\n                  jump(tag_12)\n                tag_7:\n                  dup3\n                  dup1\n                  sload\n                  tag_13\n                  swap1\n                  tag_14\n                  jump\t// in\n                tag_13:\n                  swap1\n                  0x00\n                  mstore\n                  keccak256(0x00, 0x20)\n                  swap1\n                  0x1f\n                  add\n                  0x20\n                  swap1\n                  div\n                  dup2\n                  add\n                  swap3\n                  dup3\n                  tag_16\n                  jumpi\n                  0x00\n                  dup6\n                  sstore\n                  jump(tag_15)\n                tag_16:\n                  dup3\n                  0x1f\n                  lt\n                  tag_17\n                  jumpi\n                  dup1\n                  mload\n                  not(0xff)\n                  and\n                  dup4\n                  dup1\n                  add\n                  or\n                  dup6\n                  sstore\n                  jump(tag_15)\n                tag_17:\n                  dup3\n                  dup1\n                  add\n                  0x01\n                  add\n                  dup6\n                  sstore\n                  dup3\n                  iszero\n                  tag_15\n                  jumpi\n                  swap2\n                  dup3\n                  add\n                tag_18:\n                  dup3\n                  dup2\n                  gt\n                  iszero\n                  tag_19\n                  jumpi\n                  dup3\n                  mload\n                  dup3\n                  sstore\n                  swap2\n                  0x20\n                  add\n                  swap2\n                  swap1\n                  0x01\n                  add\n                  swap1\n                  jump(tag_18)\n                tag_19:\n                tag_15:\n                  pop\n                  swap1\n                  pop\n                  tag_20\n                  swap2\n                  swap1\n                  tag_21\n                  jump\t// in\n                tag_20:\n                  pop\n                  swap1\n                  jump\t// out\n                tag_21:\n                tag_22:\n                  dup1\n                  dup3\n                  gt\n                  iszero\n                  tag_23\n                  jumpi\n                  0x00\n                  dup2\n                  0x00\n                  swap1\n                  sstore\n                  pop\n                  0x01\n                  add\n                  jump(tag_22)\n                tag_23:\n                  pop\n                  swap1\n                  jump\t// out\n                    /* \"#utility.yul\":7:82   */\n                tag_24:\n                    /* \"#utility.yul\":40:46   */\n                  0x00\n                    /* \"#utility.yul\":73:75   */\n                  0x40\n                    /* \"#utility.yul\":67:76   */\n                  mload\n                    /* \"#utility.yul\":57:76   */\n                  swap1\n                  pop\n                    /* \"#utility.yul\":7:82   */\n                  swap1\n                  jump\t// out\n                    /* \"#utility.yul\":88:205   */\n                tag_25:\n                    /* \"#utility.yul\":197:198   */\n                  0x00\n                    /* \"#utility.yul\":194:195   */\n                  dup1\n                    /* \"#utility.yul\":187:199   */\n                  revert\n                    /* \"#utility.yul\":211:328   */\n                tag_26:\n                    /* \"#utility.yul\":320:321   */\n                  0x00\n                    /* \"#utility.yul\":317:318   */\n                  dup1\n                    /* \"#utility.yul\":310:322   */\n                  revert\n                    /* \"#utility.yul\":334:460   */\n                tag_27:\n                    /* \"#utility.yul\":371:378   */\n                  0x00\n                    /* \"#utility.yul\":411:453   */\n                  0xffffffffffffffffffffffffffffffffffffffff\n                    /* \"#utility.yul\":404:409   */\n                  dup3\n                    /* \"#utility.yul\":400:454   */\n                  and\n                    /* \"#utility.yul\":389:454   */\n                  swap1\n                  pop\n                    /* \"#utility.yul\":334:460   */\n                  swap2\n                  swap1\n                  pop\n                  jump\t// out\n                    /* \"#utility.yul\":466:562   */\n                tag_28:\n                    /* \"#utility.yul\":503:510   */\n                  0x00\n                    /* \"#utility.yul\":532:556   */\n                  tag_48\n                    /* \"#utility.yul\":550:555   */\n                  dup3\n                    /* \"#utility.yul\":532:556   */\n                  tag_27\n                  jump\t// in\n                tag_48:\n                    /* \"#utility.yul\":521:556   */\n                  swap1\n                  pop\n                    /* \"#utility.yul\":466:562   */\n                  swap2\n                  swap1\n                  pop\n                  jump\t// out\n                    /* \"#utility.yul\":568:690   */\n                tag_29:\n                    /* \"#utility.yul\":641:665   */\n                  tag_50\n                    /* \"#utility.yul\":659:664   */\n                  dup2\n                    /* \"#utility.yul\":641:665   */\n                  tag_28\n                  jump\t// in\n                tag_50:\n                    /* \"#utility.yul\":634:639   */\n                  dup2\n                    /* \"#utility.yul\":631:666   */\n                  eq\n                    /* \"#utility.yul\":621:684   */\n                  tag_51\n                  jumpi\n                    /* \"#utility.yul\":680:681   */\n                  0x00\n                    /* \"#utility.yul\":677:678   */\n                  dup1\n                    /* \"#utility.yul\":670:682   */\n                  revert\n                    /* \"#utility.yul\":621:684   */\n                tag_51:\n                    /* \"#utility.yul\":568:690   */\n                  pop\n                  jump\t// out\n                    /* \"#utility.yul\":696:839   */\n                tag_30:\n                    /* \"#utility.yul\":753:758   */\n                  0x00\n                    /* \"#utility.yul\":784:790   */\n                  dup2\n                    /* \"#utility.yul\":778:791   */\n                  mload\n                    /* \"#utility.yul\":769:791   */\n                  swap1\n                  pop\n                    /* \"#utility.yul\":800:833   */\n                  tag_53\n                    /* \"#utility.yul\":827:832   */\n                  dup2\n                    /* \"#utility.yul\":800:833   */\n                  tag_29\n                  jump\t// in\n                tag_53:\n                    /* \"#utility.yul\":696:839   */\n                  swap3\n                  swap2\n                  pop\n                  pop\n                  jump\t// out\n                    /* \"#utility.yul\":845:962   */\n                tag_31:\n                    /* \"#utility.yul\":954:955   */\n                  0x00\n                    /* \"#utility.yul\":951:952   */\n                  dup1\n                    /* \"#utility.yul\":944:956   */\n                  revert\n                    /* \"#utility.yul\":968:1085   */\n                tag_32:\n                    /* \"#utility.yul\":1077:1078   */\n                  0x00\n                    /* \"#utility.yul\":1074:1075   */\n                  dup1\n                    /* \"#utility.yul\":1067:1079   */\n                  revert\n                    /* \"#utility.yul\":1091:1193   */\n                tag_33:\n                    /* \"#utility.yul\":1132:1138   */\n                  0x00\n                    /* \"#utility.yul\":1183:1185   */\n                  0x1f\n                    /* \"#utility.yul\":1179:1186   */\n                  not\n                    /* \"#utility.yul\":1174:1176   */\n                  0x1f\n                    /* \"#utility.yul\":1167:1172   */\n                  dup4\n                    /* \"#utility.yul\":1163:1177   */\n                  add\n                    /* \"#utility.yul\":1159:1187   */\n                  and\n                    /* \"#utility.yul\":1149:1187   */\n                  swap1\n                  pop\n                    /* \"#utility.yul\":1091:1193   */\n                  swap2\n                  swap1\n                  pop\n                  jump\t// out\n                    /* \"#utility.yul\":1199:1379   */\n                tag_34:\n                    /* \"#utility.yul\":1247:1324   */\n                  0x4e487b7100000000000000000000000000000000000000000000000000000000\n                    /* \"#utility.yul\":1244:1245   */\n                  0x00\n                    /* \"#utility.yul\":1237:1325   */\n                  mstore\n                    /* \"#utility.yul\":1344:1348   */\n                  0x41\n                    /* \"#utility.yul\":1341:1342   */\n                  0x04\n                    /* \"#utility.yul\":1334:1349   */\n                  mstore\n                    /* \"#utility.yul\":1368:1372   */\n                  0x24\n                    /* \"#utility.yul\":1365:1366   */\n                  0x00\n                    /* \"#utility.yul\":1358:1373   */\n                  revert\n                    /* \"#utility.yul\":1385:1666   */\n                tag_35:\n                    /* \"#utility.yul\":1468:1495   */\n                  tag_59\n                    /* \"#utility.yul\":1490:1494   */\n                  dup3\n                    /* \"#utility.yul\":1468:1495   */\n                  tag_33\n                  jump\t// in\n                tag_59:\n                    /* \"#utility.yul\":1460:1466   */\n                  dup2\n                    /* \"#utility.yul\":1456:1496   */\n                  add\n                    /* \"#utility.yul\":1598:1604   */\n                  dup2\n                    /* \"#utility.yul\":1586:1596   */\n                  dup2\n                    /* \"#utility.yul\":1583:1605   */\n                  lt\n                    /* \"#utility.yul\":1562:1580   */\n                  0xffffffffffffffff\n                    /* \"#utility.yul\":1550:1560   */\n                  dup3\n                    /* \"#utility.yul\":1547:1581   */\n                  gt\n                    /* \"#utility.yul\":1544:1606   */\n                  or\n                    /* \"#utility.yul\":1541:1629   */\n                  iszero\n                  tag_60\n                  jumpi\n                    /* \"#utility.yul\":1609:1627   */\n                  tag_61\n                  tag_34\n                  jump\t// in\n                tag_61:\n                    /* \"#utility.yul\":1541:1629   */\n                tag_60:\n                    /* \"#utility.yul\":1649:1659   */\n                  dup1\n                    /* \"#utility.yul\":1645:1647   */\n                  0x40\n                    /* \"#utility.yul\":1638:1660   */\n                  mstore\n                    /* \"#utility.yul\":1428:1666   */\n                  pop\n                    /* \"#utility.yul\":1385:1666   */\n                  pop\n                  pop\n                  jump\t// out\n                    /* \"#utility.yul\":1672:1801   */\n                tag_36:\n                    /* \"#utility.yul\":1706:1712   */\n                  0x00\n                    /* \"#utility.yul\":1733:1753   */\n                  tag_63\n                  tag_24\n                  jump\t// in\n                tag_63:\n                    /* \"#utility.yul\":1723:1753   */\n                  swap1\n                  pop\n                    /* \"#utility.yul\":1762:1795   */\n                  tag_64\n                    /* \"#utility.yul\":1790:1794   */\n                  dup3\n                    /* \"#utility.yul\":1782:1788   */\n                  dup3\n                    /* \"#utility.yul\":1762:1795   */\n                  tag_35\n                  jump\t// in\n                tag_64:\n                    /* \"#utility.yul\":1672:1801   */\n                  swap2\n                  swap1\n                  pop\n                  jump\t// out\n                    /* \"#utility.yul\":1807:2115   */\n                tag_37:\n                    /* \"#utility.yul\":1869:1873   */\n                  0x00\n                    /* \"#utility.yul\":1959:1977   */\n                  0xffffffffffffffff\n                    /* \"#utility.yul\":1951:1957   */\n                  dup3\n                    /* \"#utility.yul\":1948:1978   */\n                  gt\n                    /* \"#utility.yul\":1945:2001   */\n                  iszero\n                  tag_66\n                  jumpi\n                    /* \"#utility.yul\":1981:1999   */\n                  tag_67\n                  tag_34\n                  jump\t// in\n                tag_67:\n                    /* \"#utility.yul\":1945:2001   */\n                tag_66:\n                    /* \"#utility.yul\":2019:2048   */\n                  tag_68\n                    /* \"#utility.yul\":2041:2047   */\n                  dup3\n                    /* \"#utility.yul\":2019:2048   */\n                  tag_33\n                  jump\t// in\n                tag_68:\n                    /* \"#utility.yul\":2011:2048   */\n                  swap1\n                  pop\n                    /* \"#utility.yul\":2103:2107   */\n                  0x20\n                    /* \"#utility.yul\":2097:2101   */\n                  dup2\n                    /* \"#utility.yul\":2093:2108   */\n                  add\n                    /* \"#utility.yul\":2085:2108   */\n                  swap1\n                  pop\n                    /* \"#utility.yul\":1807:2115   */\n                  swap2\n                  swap1\n                  pop\n                  jump\t// out\n                    /* \"#utility.yul\":2121:2428   */\n                tag_38:\n                    /* \"#utility.yul\":2189:2190   */\n                  0x00\n                    /* \"#utility.yul\":2199:2312   */\n                tag_70:\n                    /* \"#utility.yul\":2213:2219   */\n                  dup4\n                    /* \"#utility.yul\":2210:2211   */\n                  dup2\n                    /* \"#utility.yul\":2207:2220   */\n                  lt\n                    /* \"#utility.yul\":2199:2312   */\n                  iszero\n                  tag_72\n                  jumpi\n                    /* \"#utility.yul\":2298:2299   */\n                  dup1\n                    /* \"#utility.yul\":2293:2296   */\n                  dup3\n                    /* \"#utility.yul\":2289:2300   */\n                  add\n                    /* \"#utility.yul\":2283:2301   */\n                  mload\n                    /* \"#utility.yul\":2279:2280   */\n                  dup2\n                    /* \"#utility.yul\":2274:2277   */\n                  dup5\n                    /* \"#utility.yul\":2270:2281   */\n                  add\n                    /* \"#utility.yul\":2263:2302   */\n                  mstore\n                    /* \"#utility.yul\":2235:2237   */\n                  0x20\n                    /* \"#utility.yul\":2232:2233   */\n                  dup2\n                    /* \"#utility.yul\":2228:2238   */\n                  add\n                    /* \"#utility.yul\":2223:2238   */\n                  swap1\n                  pop\n                    /* \"#utility.yul\":2199:2312   */\n                  jump(tag_70)\n                tag_72:\n                    /* \"#utility.yul\":2330:2336   */\n                  dup4\n                    /* \"#utility.yul\":2327:2328   */\n                  dup2\n                    /* \"#utility.yul\":2324:2337   */\n                  gt\n                    /* \"#utility.yul\":2321:2422   */\n                  iszero\n                  tag_73\n                  jumpi\n                    /* \"#utility.yul\":2410:2411   */\n                  0x00\n                    /* \"#utility.yul\":2401:2407   */\n                  dup5\n                    /* \"#utility.yul\":2396:2399   */\n                  dup5\n                    /* \"#utility.yul\":2392:2408   */\n                  add\n                    /* \"#utility.yul\":2385:2412   */\n                  mstore\n                    /* \"#utility.yul\":2321:2422   */\n                tag_73:\n                    /* \"#utility.yul\":2170:2428   */\n                  pop\n                    /* \"#utility.yul\":2121:2428   */\n                  pop\n                  pop\n                  pop\n                  jump\t// out\n                    /* \"#utility.yul\":2434:2855   */\n                tag_39:\n                    /* \"#utility.yul\":2523:2528   */\n                  0x00\n                    /* \"#utility.yul\":2548:2614   */\n                  tag_75\n                    /* \"#utility.yul\":2564:2613   */\n                  tag_76\n                    /* \"#utility.yul\":2606:2612   */\n                  dup5\n                    /* \"#utility.yul\":2564:2613   */\n                  tag_37\n                  jump\t// in\n                tag_76:\n                    /* \"#utility.yul\":2548:2614   */\n                  tag_36\n                  jump\t// in\n                tag_75:\n                    /* \"#utility.yul\":2539:2614   */\n                  swap1\n                  pop\n                    /* \"#utility.yul\":2637:2643   */\n                  dup3\n                    /* \"#utility.yul\":2630:2635   */\n                  dup2\n                    /* \"#utility.yul\":2623:2644   */\n                  mstore\n                    /* \"#utility.yul\":2675:2679   */\n                  0x20\n                    /* \"#utility.yul\":2668:2673   */\n                  dup2\n                    /* \"#utility.yul\":2664:2680   */\n                  add\n                    /* \"#utility.yul\":2713:2716   */\n                  dup5\n                    /* \"#utility.yul\":2704:2710   */\n                  dup5\n                    /* \"#utility.yul\":2699:2702   */\n                  dup5\n                    /* \"#utility.yul\":2695:2711   */\n                  add\n                    /* \"#utility.yul\":2692:2717   */\n                  gt\n                    /* \"#utility.yul\":2689:2801   */\n                  iszero\n                  tag_77\n                  jumpi\n                    /* \"#utility.yul\":2720:2799   */\n                  tag_78\n                  tag_32\n                  jump\t// in\n                tag_78:\n                    /* \"#utility.yul\":2689:2801   */\n                tag_77:\n                    /* \"#utility.yul\":2810:2849   */\n                  tag_79\n                    /* \"#utility.yul\":2842:2848   */\n                  dup5\n                    /* \"#utility.yul\":2837:2840   */\n                  dup3\n                    /* \"#utility.yul\":2832:2835   */\n                  dup6\n                    /* \"#utility.yul\":2810:2849   */\n                  tag_38\n                  jump\t// in\n                tag_79:\n                    /* \"#utility.yul\":2529:2855   */\n                  pop\n                    /* \"#utility.yul\":2434:2855   */\n                  swap4\n                  swap3\n                  pop\n                  pop\n                  pop\n                  jump\t// out\n                    /* \"#utility.yul\":2875:3230   */\n                tag_40:\n                    /* \"#utility.yul\":2942:2947   */\n                  0x00\n                    /* \"#utility.yul\":2991:2994   */\n                  dup3\n                    /* \"#utility.yul\":2984:2988   */\n                  0x1f\n                    /* \"#utility.yul\":2976:2982   */\n                  dup4\n                    /* \"#utility.yul\":2972:2989   */\n                  add\n                    /* \"#utility.yul\":2968:2995   */\n                  slt\n                    /* \"#utility.yul\":2958:3080   */\n                  tag_81\n                  jumpi\n                    /* \"#utility.yul\":2999:3078   */\n                  tag_82\n                  tag_31\n                  jump\t// in\n                tag_82:\n                    /* \"#utility.yul\":2958:3080   */\n                tag_81:\n                    /* \"#utility.yul\":3109:3115   */\n                  dup2\n                    /* \"#utility.yul\":3103:3116   */\n                  mload\n                    /* \"#utility.yul\":3134:3224   */\n                  tag_83\n                    /* \"#utility.yul\":3220:3223   */\n                  dup5\n                    /* \"#utility.yul\":3212:3218   */\n                  dup3\n                    /* \"#utility.yul\":3205:3209   */\n                  0x20\n                    /* \"#utility.yul\":3197:3203   */\n                  dup7\n                    /* \"#utility.yul\":3193:3210   */\n                  add\n                    /* \"#utility.yul\":3134:3224   */\n                  tag_39\n                  jump\t// in\n                tag_83:\n                    /* \"#utility.yul\":3125:3224   */\n                  swap2\n                  pop\n                    /* \"#utility.yul\":2948:3230   */\n                  pop\n                    /* \"#utility.yul\":2875:3230   */\n                  swap3\n                  swap2\n                  pop\n                  pop\n                  jump\t// out\n                    /* \"#utility.yul\":3236:4386   */\n                tag_3:\n                    /* \"#utility.yul\":3352:3358   */\n                  0x00\n                    /* \"#utility.yul\":3360:3366   */\n                  dup1\n                    /* \"#utility.yul\":3368:3374   */\n                  0x00\n                    /* \"#utility.yul\":3376:3382   */\n                  dup1\n                    /* \"#utility.yul\":3384:3390   */\n                  0x00\n                    /* \"#utility.yul\":3433:3436   */\n                  0xa0\n                    /* \"#utility.yul\":3421:3430   */\n                  dup7\n                    /* \"#utility.yul\":3412:3419   */\n                  dup9\n                    /* \"#utility.yul\":3408:3431   */\n                  sub\n                    /* \"#utility.yul\":3404:3437   */\n                  slt\n                    /* \"#utility.yul\":3401:3521   */\n                  iszero\n                  tag_85\n                  jumpi\n                    /* \"#utility.yul\":3440:3519   */\n                  tag_86\n                  tag_25\n                  jump\t// in\n                tag_86:\n                    /* \"#utility.yul\":3401:3521   */\n                tag_85:\n                    /* \"#utility.yul\":3560:3561   */\n                  0x00\n                    /* \"#utility.yul\":3585:3649   */\n                  tag_87\n                    /* \"#utility.yul\":3641:3648   */\n                  dup9\n                    /* \"#utility.yul\":3632:3638   */\n                  dup3\n                    /* \"#utility.yul\":3621:3630   */\n                  dup10\n                    /* \"#utility.yul\":3617:3639   */\n                  add\n                    /* \"#utility.yul\":3585:3649   */\n                  tag_30\n                  jump\t// in\n                tag_87:\n                    /* \"#utility.yul\":3575:3649   */\n                  swap6\n                  pop\n                    /* \"#utility.yul\":3531:3659   */\n                  pop\n                    /* \"#utility.yul\":3698:3700   */\n                  0x20\n                    /* \"#utility.yul\":3724:3788   */\n                  tag_88\n                    /* \"#utility.yul\":3780:3787   */\n                  dup9\n                    /* \"#utility.yul\":3771:3777   */\n                  dup3\n                    /* \"#utility.yul\":3760:3769   */\n                  dup10\n                    /* \"#utility.yul\":3756:3778   */\n                  add\n                    /* \"#utility.yul\":3724:3788   */\n                  tag_30\n                  jump\t// in\n                tag_88:\n                    /* \"#utility.yul\":3714:3788   */\n                  swap5\n                  pop\n                    /* \"#utility.yul\":3669:3798   */\n                  pop\n                    /* \"#utility.yul\":3858:3860   */\n                  0x40\n                    /* \"#utility.yul\":3847:3856   */\n                  dup7\n                    /* \"#utility.yul\":3843:3861   */\n                  add\n                    /* \"#utility.yul\":3837:3862   */\n                  mload\n                    /* \"#utility.yul\":3889:3907   */\n                  0xffffffffffffffff\n                    /* \"#utility.yul\":3881:3887   */\n                  dup2\n                    /* \"#utility.yul\":3878:3908   */\n                  gt\n                    /* \"#utility.yul\":3875:3992   */\n                  iszero\n                  tag_89\n                  jumpi\n                    /* \"#utility.yul\":3911:3990   */\n                  tag_90\n                  tag_26\n                  jump\t// in\n                tag_90:\n                    /* \"#utility.yul\":3875:3992   */\n                tag_89:\n                    /* \"#utility.yul\":4016:4090   */\n                  tag_91\n                    /* \"#utility.yul\":4082:4089   */\n                  dup9\n                    /* \"#utility.yul\":4073:4079   */\n                  dup3\n                    /* \"#utility.yul\":4062:4071   */\n                  dup10\n                    /* \"#utility.yul\":4058:4080   */\n                  add\n                    /* \"#utility.yul\":4016:4090   */\n                  tag_40\n                  jump\t// in\n                tag_91:\n                    /* \"#utility.yul\":4006:4090   */\n                  swap4\n                  pop\n                    /* \"#utility.yul\":3808:4100   */\n                  pop\n                    /* \"#utility.yul\":4139:4141   */\n                  0x60\n                    /* \"#utility.yul\":4165:4229   */\n                  tag_92\n                    /* \"#utility.yul\":4221:4228   */\n                  dup9\n                    /* \"#utility.yul\":4212:4218   */\n                  dup3\n                    /* \"#utility.yul\":4201:4210   */\n                  dup10\n                    /* \"#utility.yul\":4197:4219   */\n                  add\n                    /* \"#utility.yul\":4165:4229   */\n                  tag_30\n                  jump\t// in\n                tag_92:\n                    /* \"#utility.yul\":4155:4229   */\n                  swap3\n                  pop\n                    /* \"#utility.yul\":4110:4239   */\n                  pop\n                    /* \"#utility.yul\":4278:4281   */\n                  0x80\n                    /* \"#utility.yul\":4305:4369   */\n                  tag_93\n                    /* \"#utility.yul\":4361:4368   */\n                  dup9\n                    /* \"#utility.yul\":4352:4358   */\n                  dup3\n                    /* \"#utility.yul\":4341:4350   */\n                  dup10\n                    /* \"#utility.yul\":4337:4359   */\n                  add\n                    /* \"#utility.yul\":4305:4369   */\n                  tag_30\n                  jump\t// in\n                tag_93:\n                    /* \"#utility.yul\":4295:4369   */\n                  swap2\n                  pop\n                    /* \"#utility.yul\":4249:4379   */\n                  pop\n                    /* \"#utility.yul\":3236:4386   */\n                  swap3\n                  swap6\n                  pop\n                  swap3\n                  swap6\n                  swap1\n                  swap4\n                  pop\n                  jump\t// out\n                    /* \"#utility.yul\":4392:4572   */\n                tag_41:\n                    /* \"#utility.yul\":4440:4517   */\n                  0x4e487b7100000000000000000000000000000000000000000000000000000000\n                    /* \"#utility.yul\":4437:4438   */\n                  0x00\n                    /* \"#utility.yul\":4430:4518   */\n                  mstore\n                    /* \"#utility.yul\":4537:4541   */\n                  0x22\n                    /* \"#utility.yul\":4534:4535   */\n                  0x04\n                    /* \"#utility.yul\":4527:4542   */\n                  mstore\n                    /* \"#utility.yul\":4561:4565   */\n                  0x24\n                    /* \"#utility.yul\":4558:4559   */\n                  0x00\n                    /* \"#utility.yul\":4551:4566   */\n                  revert\n                    /* \"#utility.yul\":4578:4898   */\n                tag_14:\n                    /* \"#utility.yul\":4622:4628   */\n                  0x00\n                    /* \"#utility.yul\":4659:4660   */\n                  0x02\n                    /* \"#utility.yul\":4653:4657   */\n                  dup3\n                    /* \"#utility.yul\":4649:4661   */\n                  div\n                    /* \"#utility.yul\":4639:4661   */\n                  swap1\n                  pop\n                    /* \"#utility.yul\":4706:4707   */\n                  0x01\n                    /* \"#utility.yul\":4700:4704   */\n                  dup3\n                    /* \"#utility.yul\":4696:4708   */\n                  and\n                    /* \"#utility.yul\":4727:4745   */\n                  dup1\n                    /* \"#utility.yul\":4717:4798   */\n                  tag_96\n                  jumpi\n                    /* \"#utility.yul\":4783:4787   */\n                  0x7f\n                    /* \"#utility.yul\":4775:4781   */\n                  dup3\n                    /* \"#utility.yul\":4771:4788   */\n                  and\n                    /* \"#utility.yul\":4761:4788   */\n                  swap2\n                  pop\n                    /* \"#utility.yul\":4717:4798   */\n                tag_96:\n                    /* \"#utility.yul\":4845:4847   */\n                  0x20\n                    /* \"#utility.yul\":4837:4843   */\n                  dup3\n                    /* \"#utility.yul\":4834:4848   */\n                  lt\n                    /* \"#utility.yul\":4814:4832   */\n                  dup2\n                    /* \"#utility.yul\":4811:4849   */\n                  eq\n                    /* \"#utility.yul\":4808:4892   */\n                  iszero\n                  tag_97\n                  jumpi\n                    /* \"#utility.yul\":4864:4882   */\n                  tag_98\n                  tag_41\n                  jump\t// in\n                tag_98:\n                    /* \"#utility.yul\":4808:4892   */\n                tag_97:\n                    /* \"#utility.yul\":4629:4898   */\n                  pop\n                    /* \"#utility.yul\":4578:4898   */\n                  swap2\n                  swap1\n                  pop\n                  jump\t// out\n                    /* \"Story.sol\":8930:10674  contract Chapter {... */\n                tag_12:\n                  dataSize(sub_0)\n                  dup1\n                  dataOffset(sub_0)\n                  0x00\n                  codecopy\n                  0x00\n                  return\n                stop\n\n                sub_0: assembly {\n                        /* \"Story.sol\":8930:10674  contract Chapter {... */\n                      mstore(0x40, 0x80)\n                      callvalue\n                      dup1\n                      iszero\n                      tag_1\n                      jumpi\n                      0x00\n                      dup1\n                      revert\n                    tag_1:\n                      pop\n                      jumpi(tag_2, lt(calldatasize, 0x04))\n                      shr(0xe0, calldataload(0x00))\n                      dup1\n                      0xa6c3e6b9\n                      gt\n                      tag_13\n                      jumpi\n                      dup1\n                      0xa6c3e6b9\n                      eq\n                      tag_8\n                      jumpi\n                      dup1\n                      0xc5fe6ffc\n                      eq\n                      tag_9\n                      jumpi\n                      dup1\n                      0xc623674f\n                      eq\n                      tag_10\n                      jumpi\n                      dup1\n                      0xe5a0af3d\n                      eq\n                      tag_11\n                      jumpi\n                      dup1\n                      0xed777791\n                      eq\n                      tag_12\n                      jumpi\n                      jump(tag_2)\n                    tag_13:\n                      dup1\n                      0x4051ddac\n                      eq\n                      tag_3\n                      jumpi\n                      dup1\n                      0x46c922d1\n                      eq\n                      tag_4\n                      jumpi\n                      dup1\n                      0x8758ce83\n                      eq\n                      tag_5\n                      jumpi\n                      dup1\n                      0x988e46c8\n                      eq\n                      tag_6\n                      jumpi\n                      dup1\n                      0xa523b88a\n                      eq\n                      tag_7\n                      jumpi\n                    tag_2:\n                      0x00\n                      dup1\n                      revert\n                        /* \"Story.sol\":10348:10671  function getSummary() public view returns (... */\n                    tag_3:\n                      tag_14\n                      tag_15\n                      jump\t// in\n                    tag_14:\n                      mload(0x40)\n                      tag_16\n                      swap7\n                      swap6\n                      swap5\n                      swap4\n                      swap3\n                      swap2\n                      swap1\n                      tag_17\n                      jump\t// in\n                    tag_16:\n                      mload(0x40)\n                      dup1\n                      swap2\n                      sub\n                      swap1\n                      return\n                        /* \"Story.sol\":8989:9009  address public story */\n                    tag_4:\n                      tag_18\n                      tag_19\n                      jump\t// in\n                    tag_18:\n                      mload(0x40)\n                      tag_20\n                      swap2\n                      swap1\n                      tag_21\n                      jump\t// in\n                    tag_20:\n                      mload(0x40)\n                      dup1\n                      swap2\n                      sub\n                      swap1\n                      return\n                        /* \"Story.sol\":9909:10149  function linkParentChapter(address parentChapter) public {... */\n                    tag_5:\n                      tag_22\n                      0x04\n                      dup1\n                      calldatasize\n                      sub\n                      dup2\n                      add\n                      swap1\n                      tag_23\n                      swap2\n                      swap1\n                      tag_24\n                      jump\t// in\n                    tag_23:\n                      tag_25\n                      jump\t// in\n                    tag_22:\n                      stop\n                        /* \"Story.sol\":9665:9901  function linkChildChapter(address childChapter) public {... */\n                    tag_6:\n                      tag_26\n                      0x04\n                      dup1\n                      calldatasize\n                      sub\n                      dup2\n                      add\n                      swap1\n                      tag_27\n                      swap2\n                      swap1\n                      tag_24\n                      jump\t// in\n                    tag_27:\n                      tag_28\n                      jump\t// in\n                    tag_26:\n                      stop\n                        /* \"Story.sol\":10165:10340  function like() public {... */\n                    tag_7:\n                      tag_29\n                      tag_30\n                      jump\t// in\n                    tag_29:\n                      stop\n                        /* \"Story.sol\":9017:9038  address public author */\n                    tag_8:\n                      tag_31\n                      tag_32\n                      jump\t// in\n                    tag_31:\n                      mload(0x40)\n                      tag_33\n                      swap2\n                      swap1\n                      tag_21\n                      jump\t// in\n                    tag_33:\n                      mload(0x40)\n                      dup1\n                      swap2\n                      sub\n                      swap1\n                      return\n                        /* \"Story.sol\":9118:9154  address[] public linkedChildChapters */\n                    tag_9:\n                      tag_34\n                      0x04\n                      dup1\n                      calldatasize\n                      sub\n                      dup2\n                      add\n                      swap1\n                      tag_35\n                      swap2\n                      swap1\n                      tag_36\n                      jump\t// in\n                    tag_35:\n                      tag_37\n                      jump\t// in\n                    tag_34:\n                      mload(0x40)\n                      tag_38\n                      swap2\n                      swap1\n                      tag_21\n                      jump\t// in\n                    tag_38:\n                      mload(0x40)\n                      dup1\n                      swap2\n                      sub\n                      swap1\n                      return\n                        /* \"Story.sol\":9045:9067  string public ipfsHash */\n                    tag_10:\n                      tag_39\n                      tag_40\n                      jump\t// in\n                    tag_39:\n                      mload(0x40)\n                      tag_41\n                      swap2\n                      swap1\n                      tag_42\n                      jump\t// in\n                    tag_41:\n                      mload(0x40)\n                      dup1\n                      swap2\n                      sub\n                      swap1\n                      return\n                        /* \"Story.sol\":9199:9223  uint256 public likeCount */\n                    tag_11:\n                      tag_43\n                      tag_44\n                      jump\t// in\n                    tag_43:\n                      mload(0x40)\n                      tag_45\n                      swap2\n                      swap1\n                      tag_46\n                      jump\t// in\n                    tag_45:\n                      mload(0x40)\n                      dup1\n                      swap2\n                      sub\n                      swap1\n                      return\n                        /* \"Story.sol\":9074:9111  address[] public linkedParentChapters */\n                    tag_12:\n                      tag_47\n                      0x04\n                      dup1\n                      calldatasize\n                      sub\n                      dup2\n                      add\n                      swap1\n                      tag_48\n                      swap2\n                      swap1\n                      tag_36\n                      jump\t// in\n                    tag_48:\n                      tag_49\n                      jump\t// in\n                    tag_47:\n                      mload(0x40)\n                      tag_50\n                      swap2\n                      swap1\n                      tag_21\n                      jump\t// in\n                    tag_50:\n                      mload(0x40)\n                      dup1\n                      swap2\n                      sub\n                      swap1\n                      return\n                        /* \"Story.sol\":10348:10671  function getSummary() public view returns (... */\n                    tag_15:\n                        /* \"Story.sol\":10401:10408  address */\n                      0x00\n                        /* \"Story.sol\":10410:10417  address */\n                      dup1\n                        /* \"Story.sol\":10419:10432  string memory */\n                      0x60\n                        /* \"Story.sol\":10434:10450  address[] memory */\n                      dup1\n                        /* \"Story.sol\":10452:10468  address[] memory */\n                      0x60\n                        /* \"Story.sol\":10470:10474  uint */\n                      0x00\n                        /* \"Story.sol\":10510:10515  story */\n                      dup1\n                      0x00\n                      swap1\n                      sload\n                      swap1\n                      0x0100\n                      exp\n                      swap1\n                      div\n                      0xffffffffffffffffffffffffffffffffffffffff\n                      and\n                        /* \"Story.sol\":10530:10536  author */\n                      0x01\n                      0x00\n                      swap1\n                      sload\n                      swap1\n                      0x0100\n                      exp\n                      swap1\n                      div\n                      0xffffffffffffffffffffffffffffffffffffffff\n                      and\n                        /* \"Story.sol\":10551:10559  ipfsHash */\n                      0x02\n                        /* \"Story.sol\":10574:10594  linkedParentChapters */\n                      0x03\n                        /* \"Story.sol\":10609:10628  linkedChildChapters */\n                      0x04\n                        /* \"Story.sol\":10643:10652  likeCount */\n                      sload(0x06)\n                        /* \"Story.sol\":10487:10663  return ( ... */\n                      dup4\n                      dup1\n                      sload\n                      tag_52\n                      swap1\n                      tag_53\n                      jump\t// in\n                    tag_52:\n                      dup1\n                      0x1f\n                      add\n                      0x20\n                      dup1\n                      swap2\n                      div\n                      mul\n                      0x20\n                      add\n                      mload(0x40)\n                      swap1\n                      dup2\n                      add\n                      0x40\n                      mstore\n                      dup1\n                      swap3\n                      swap2\n                      swap1\n                      dup2\n                      dup2\n                      mstore\n                      0x20\n                      add\n                      dup3\n                      dup1\n                      sload\n                      tag_54\n                      swap1\n                      tag_53\n                      jump\t// in\n                    tag_54:\n                      dup1\n                      iszero\n                      tag_55\n                      jumpi\n                      dup1\n                      0x1f\n                      lt\n                      tag_56\n                      jumpi\n                      0x0100\n                      dup1\n                      dup4\n                      sload\n                      div\n                      mul\n                      dup4\n                      mstore\n                      swap2\n                      0x20\n                      add\n                      swap2\n                      jump(tag_55)\n                    tag_56:\n                      dup3\n                      add\n                      swap2\n                      swap1\n                      0x00\n                      mstore\n                      keccak256(0x00, 0x20)\n                      swap1\n                    tag_57:\n                      dup2\n                      sload\n                      dup2\n                      mstore\n                      swap1\n                      0x01\n                      add\n                      swap1\n                      0x20\n                      add\n                      dup1\n                      dup4\n                      gt\n                      tag_57\n                      jumpi\n                      dup3\n                      swap1\n                      sub\n                      0x1f\n                      and\n                      dup3\n                      add\n                      swap2\n                    tag_55:\n                      pop\n                      pop\n                      pop\n                      pop\n                      pop\n                      swap4\n                      pop\n                      dup3\n                      dup1\n                      sload\n                      dup1\n                      0x20\n                      mul\n                      0x20\n                      add\n                      mload(0x40)\n                      swap1\n                      dup2\n                      add\n                      0x40\n                      mstore\n                      dup1\n                      swap3\n                      swap2\n                      swap1\n                      dup2\n                      dup2\n                      mstore\n                      0x20\n                      add\n                      dup3\n                      dup1\n                      sload\n                      dup1\n                      iszero\n                      tag_58\n                      jumpi\n                      0x20\n                      mul\n                      dup3\n                      add\n                      swap2\n                      swap1\n                      0x00\n                      mstore\n                      keccak256(0x00, 0x20)\n                      swap1\n                    tag_59:\n                      dup2\n                      0x00\n                      swap1\n                      sload\n                      swap1\n                      0x0100\n                      exp\n                      swap1\n                      div\n                      0xffffffffffffffffffffffffffffffffffffffff\n                      and\n                      0xffffffffffffffffffffffffffffffffffffffff\n                      and\n                      dup2\n                      mstore\n                      0x20\n                      add\n                      swap1\n                      0x01\n                      add\n                      swap1\n                      dup1\n                      dup4\n                      gt\n                      tag_59\n                      jumpi\n                    tag_58:\n                      pop\n                      pop\n                      pop\n                      pop\n                      pop\n                      swap3\n                      pop\n                      dup2\n                      dup1\n                      sload\n                      dup1\n                      0x20\n                      mul\n                      0x20\n                      add\n                      mload(0x40)\n                      swap1\n                      dup2\n                      add\n                      0x40\n                      mstore\n                      dup1\n                      swap3\n                      swap2\n                      swap1\n                      dup2\n                      dup2\n                      mstore\n                      0x20\n                      add\n                      dup3\n                      dup1\n                      sload\n                      dup1\n                      iszero\n                      tag_60\n                      jumpi\n                      0x20\n                      mul\n                      dup3\n                      add\n                      swap2\n                      swap1\n                      0x00\n                      mstore\n                      keccak256(0x00, 0x20)\n                      swap1\n                    tag_61:\n                      dup2\n                      0x00\n                      swap1\n                      sload\n                      swap1\n                      0x0100\n                      exp\n                      swap1\n                      div\n                      0xffffffffffffffffffffffffffffffffffffffff\n                      and\n                      0xffffffffffffffffffffffffffffffffffffffff\n                      and\n                      dup2\n                      mstore\n                      0x20\n                      add\n                      swap1\n                      0x01\n                      add\n                      swap1\n                      dup1\n                      dup4\n                      gt\n                      tag_61\n                      jumpi\n                    tag_60:\n                      pop\n                      pop\n                      pop\n                      pop\n                      pop\n                      swap2\n                      pop\n                      swap6\n                      pop\n                      swap6\n                      pop\n                      swap6\n                      pop\n                      swap6\n                      pop\n                      swap6\n                      pop\n                      swap6\n                      pop\n                        /* \"Story.sol\":10348:10671  function getSummary() public view returns (... */\n                      swap1\n                      swap2\n                      swap3\n                      swap4\n                      swap5\n                      swap6\n                      jump\t// out\n                        /* \"Story.sol\":8989:9009  address public story */\n                    tag_19:\n                      0x00\n                      dup1\n                      sload\n                      swap1\n                      0x0100\n                      exp\n                      swap1\n                      div\n                      0xffffffffffffffffffffffffffffffffffffffff\n                      and\n                      dup2\n                      jump\t// out\n                        /* \"Story.sol\":9909:10149  function linkParentChapter(address parentChapter) public {... */\n                    tag_25:\n                        /* \"Story.sol\":9999:10004  story */\n                      0x00\n                      dup1\n                      sload\n                      swap1\n                      0x0100\n                      exp\n                      swap1\n                      div\n                      0xffffffffffffffffffffffffffffffffffffffff\n                      and\n                        /* \"Story.sol\":9985:10004  msg.sender == story */\n                      0xffffffffffffffffffffffffffffffffffffffff\n                      and\n                        /* \"Story.sol\":9985:9995  msg.sender */\n                      caller\n                        /* \"Story.sol\":9985:10004  msg.sender == story */\n                      0xffffffffffffffffffffffffffffffffffffffff\n                      and\n                      eq\n                        /* \"Story.sol\":9977:10090  require(msg.sender == story, \"This function has to be called from the story contract by an accepted author only\") */\n                      tag_63\n                      jumpi\n                      mload(0x40)\n                      0x08c379a000000000000000000000000000000000000000000000000000000000\n                      dup2\n                      mstore\n                      0x04\n                      add\n                      tag_64\n                      swap1\n                      tag_65\n                      jump\t// in\n                    tag_64:\n                      mload(0x40)\n                      dup1\n                      swap2\n                      sub\n                      swap1\n                      revert\n                    tag_63:\n                        /* \"Story.sol\":10101:10121  linkedParentChapters */\n                      0x03\n                        /* \"Story.sol\":10127:10140  parentChapter */\n                      dup2\n                        /* \"Story.sol\":10101:10141  linkedParentChapters.push(parentChapter) */\n                      swap1\n                      dup1\n                      0x01\n                      dup2\n                      sload\n                      add\n                      dup1\n                      dup3\n                      sstore\n                      dup1\n                      swap2\n                      pop\n                      pop\n                      0x01\n                      swap1\n                      sub\n                      swap1\n                      0x00\n                      mstore\n                      keccak256(0x00, 0x20)\n                      add\n                      0x00\n                      swap1\n                      swap2\n                      swap1\n                      swap2\n                      swap1\n                      swap2\n                      0x0100\n                      exp\n                      dup2\n                      sload\n                      dup2\n                      0xffffffffffffffffffffffffffffffffffffffff\n                      mul\n                      not\n                      and\n                      swap1\n                      dup4\n                      0xffffffffffffffffffffffffffffffffffffffff\n                      and\n                      mul\n                      or\n                      swap1\n                      sstore\n                      pop\n                        /* \"Story.sol\":9909:10149  function linkParentChapter(address parentChapter) public {... */\n                      pop\n                      jump\t// out\n                        /* \"Story.sol\":9665:9901  function linkChildChapter(address childChapter) public {... */\n                    tag_28:\n                        /* \"Story.sol\":9753:9758  story */\n                      0x00\n                      dup1\n                      sload\n                      swap1\n                      0x0100\n                      exp\n                      swap1\n                      div\n                      0xffffffffffffffffffffffffffffffffffffffff\n                      and\n                        /* \"Story.sol\":9739:9758  msg.sender == story */\n                      0xffffffffffffffffffffffffffffffffffffffff\n                      and\n                        /* \"Story.sol\":9739:9749  msg.sender */\n                      caller\n                        /* \"Story.sol\":9739:9758  msg.sender == story */\n                      0xffffffffffffffffffffffffffffffffffffffff\n                      and\n                      eq\n                        /* \"Story.sol\":9731:9844  require(msg.sender == story, \"This function has to be called from the story contract by an accepted author only\") */\n                      tag_68\n                      jumpi\n                      mload(0x40)\n                      0x08c379a000000000000000000000000000000000000000000000000000000000\n                      dup2\n                      mstore\n                      0x04\n                      add\n                      tag_69\n                      swap1\n                      tag_65\n                      jump\t// in\n                    tag_69:\n                      mload(0x40)\n                      dup1\n                      swap2\n                      sub\n                      swap1\n                      revert\n                    tag_68:\n                        /* \"Story.sol\":9855:9874  linkedChildChapters */\n                      0x04\n                        /* \"Story.sol\":9880:9892  childChapter */\n                      dup2\n                        /* \"Story.sol\":9855:9893  linkedChildChapters.push(childChapter) */\n                      swap1\n                      dup1\n                      0x01\n                      dup2\n                      sload\n                      add\n                      dup1\n                      dup3\n                      sstore\n                      dup1\n                      swap2\n                      pop\n                      pop\n                      0x01\n                      swap1\n                      sub\n                      swap1\n                      0x00\n                      mstore\n                      keccak256(0x00, 0x20)\n                      add\n                      0x00\n                      swap1\n                      swap2\n                      swap1\n                      swap2\n                      swap1\n                      swap2\n                      0x0100\n                      exp\n                      dup2\n                      sload\n                      dup2\n                      0xffffffffffffffffffffffffffffffffffffffff\n                      mul\n                      not\n                      and\n                      swap1\n                      dup4\n                      0xffffffffffffffffffffffffffffffffffffffff\n                      and\n                      mul\n                      or\n                      swap1\n                      sstore\n                      pop\n                        /* \"Story.sol\":9665:9901  function linkChildChapter(address childChapter) public {... */\n                      pop\n                      jump\t// out\n                        /* \"Story.sol\":10165:10340  function like() public {... */\n                    tag_30:\n                        /* \"Story.sol\":10208:10214  likers */\n                      0x05\n                        /* \"Story.sol\":10208:10226  likers[msg.sender] */\n                      0x00\n                        /* \"Story.sol\":10215:10225  msg.sender */\n                      caller\n                        /* \"Story.sol\":10208:10226  likers[msg.sender] */\n                      0xffffffffffffffffffffffffffffffffffffffff\n                      and\n                      0xffffffffffffffffffffffffffffffffffffffff\n                      and\n                      dup2\n                      mstore\n                      0x20\n                      add\n                      swap1\n                      dup2\n                      mstore\n                      0x20\n                      add\n                      0x00\n                      keccak256\n                      0x00\n                      swap1\n                      sload\n                      swap1\n                      0x0100\n                      exp\n                      swap1\n                      div\n                      0xff\n                      and\n                        /* \"Story.sol\":10207:10226  !likers[msg.sender] */\n                      iszero\n                        /* \"Story.sol\":10199:10257  require(!likers[msg.sender],\"You liked this story before\") */\n                      tag_72\n                      jumpi\n                      mload(0x40)\n                      0x08c379a000000000000000000000000000000000000000000000000000000000\n                      dup2\n                      mstore\n                      0x04\n                      add\n                      tag_73\n                      swap1\n                      tag_74\n                      jump\t// in\n                    tag_73:\n                      mload(0x40)\n                      dup1\n                      swap2\n                      sub\n                      swap1\n                      revert\n                    tag_72:\n                        /* \"Story.sol\":10289:10293  true */\n                      0x01\n                        /* \"Story.sol\":10268:10274  likers */\n                      0x05\n                        /* \"Story.sol\":10268:10286  likers[msg.sender] */\n                      0x00\n                        /* \"Story.sol\":10275:10285  msg.sender */\n                      caller\n                        /* \"Story.sol\":10268:10286  likers[msg.sender] */\n                      0xffffffffffffffffffffffffffffffffffffffff\n                      and\n                      0xffffffffffffffffffffffffffffffffffffffff\n                      and\n                      dup2\n                      mstore\n                      0x20\n                      add\n                      swap1\n                      dup2\n                      mstore\n                      0x20\n                      add\n                      0x00\n                      keccak256\n                      0x00\n                        /* \"Story.sol\":10268:10293  likers[msg.sender] = true */\n                      0x0100\n                      exp\n                      dup2\n                      sload\n                      dup2\n                      0xff\n                      mul\n                      not\n                      and\n                      swap1\n                      dup4\n                      iszero\n                      iszero\n                      mul\n                      or\n                      swap1\n                      sstore\n                      pop\n                        /* \"Story.sol\":10316:10332  likeCount.add(1) */\n                      tag_75\n                        /* \"Story.sol\":10330:10331  1 */\n                      0x01\n                        /* \"Story.sol\":10316:10325  likeCount */\n                      sload(0x06)\n                        /* \"Story.sol\":10316:10329  likeCount.add */\n                      tag_76\n                      swap1\n                        /* \"Story.sol\":10316:10332  likeCount.add(1) */\n                      swap2\n                      swap1\n                      0xffffffff\n                      and\n                      jump\t// in\n                    tag_75:\n                        /* \"Story.sol\":10304:10313  likeCount */\n                      0x06\n                        /* \"Story.sol\":10304:10332  likeCount = likeCount.add(1) */\n                      dup2\n                      swap1\n                      sstore\n                      pop\n                        /* \"Story.sol\":10165:10340  function like() public {... */\n                      jump\t// out\n                        /* \"Story.sol\":9017:9038  address public author */\n                    tag_32:\n                      0x01\n                      0x00\n                      swap1\n                      sload\n                      swap1\n                      0x0100\n                      exp\n                      swap1\n                      div\n                      0xffffffffffffffffffffffffffffffffffffffff\n                      and\n                      dup2\n                      jump\t// out\n                        /* \"Story.sol\":9118:9154  address[] public linkedChildChapters */\n                    tag_37:\n                      0x04\n                      dup2\n                      dup2\n                      sload\n                      dup2\n                      lt\n                      tag_77\n                      jumpi\n                      0x00\n                      dup1\n                      revert\n                    tag_77:\n                      swap1\n                      0x00\n                      mstore\n                      keccak256(0x00, 0x20)\n                      add\n                      0x00\n                      swap2\n                      pop\n                      sload\n                      swap1\n                      0x0100\n                      exp\n                      swap1\n                      div\n                      0xffffffffffffffffffffffffffffffffffffffff\n                      and\n                      dup2\n                      jump\t// out\n                        /* \"Story.sol\":9045:9067  string public ipfsHash */\n                    tag_40:\n                      0x02\n                      dup1\n                      sload\n                      tag_79\n                      swap1\n                      tag_53\n                      jump\t// in\n                    tag_79:\n                      dup1\n                      0x1f\n                      add\n                      0x20\n                      dup1\n                      swap2\n                      div\n                      mul\n                      0x20\n                      add\n                      mload(0x40)\n                      swap1\n                      dup2\n                      add\n                      0x40\n                      mstore\n                      dup1\n                      swap3\n                      swap2\n                      swap1\n                      dup2\n                      dup2\n                      mstore\n                      0x20\n                      add\n                      dup3\n                      dup1\n                      sload\n                      tag_80\n                      swap1\n                      tag_53\n                      jump\t// in\n                    tag_80:\n                      dup1\n                      iszero\n                      tag_81\n                      jumpi\n                      dup1\n                      0x1f\n                      lt\n                      tag_82\n                      jumpi\n                      0x0100\n                      dup1\n                      dup4\n                      sload\n                      div\n                      mul\n                      dup4\n                      mstore\n                      swap2\n                      0x20\n                      add\n                      swap2\n                      jump(tag_81)\n                    tag_82:\n                      dup3\n                      add\n                      swap2\n                      swap1\n                      0x00\n                      mstore\n                      keccak256(0x00, 0x20)\n                      swap1\n                    tag_83:\n                      dup2\n                      sload\n                      dup2\n                      mstore\n                      swap1\n                      0x01\n                      add\n                      swap1\n                      0x20\n                      add\n                      dup1\n                      dup4\n                      gt\n                      tag_83\n                      jumpi\n                      dup3\n                      swap1\n                      sub\n                      0x1f\n                      and\n                      dup3\n                      add\n                      swap2\n                    tag_81:\n                      pop\n                      pop\n                      pop\n                      pop\n                      pop\n                      dup2\n                      jump\t// out\n                        /* \"Story.sol\":9199:9223  uint256 public likeCount */\n                    tag_44:\n                      sload(0x06)\n                      dup2\n                      jump\t// out\n                        /* \"Story.sol\":9074:9111  address[] public linkedParentChapters */\n                    tag_49:\n                      0x03\n                      dup2\n                      dup2\n                      sload\n                      dup2\n                      lt\n                      tag_84\n                      jumpi\n                      0x00\n                      dup1\n                      revert\n                    tag_84:\n                      swap1\n                      0x00\n                      mstore\n                      keccak256(0x00, 0x20)\n                      add\n                      0x00\n                      swap2\n                      pop\n                      sload\n                      swap1\n                      0x0100\n                      exp\n                      swap1\n                      div\n                      0xffffffffffffffffffffffffffffffffffffffff\n                      and\n                      dup2\n                      jump\t// out\n                        /* \"Story.sol\":84:263  function add(uint256 a, uint256 b) internal pure returns (uint256) {... */\n                    tag_76:\n                        /* \"Story.sol\":142:149  uint256 */\n                      0x00\n                        /* \"Story.sol\":162:171  uint256 c */\n                      dup1\n                        /* \"Story.sol\":178:179  b */\n                      dup3\n                        /* \"Story.sol\":174:175  a */\n                      dup5\n                        /* \"Story.sol\":174:179  a + b */\n                      tag_87\n                      swap2\n                      swap1\n                      tag_88\n                      jump\t// in\n                    tag_87:\n                        /* \"Story.sol\":162:179  uint256 c = a + b */\n                      swap1\n                      pop\n                        /* \"Story.sol\":203:204  a */\n                      dup4\n                        /* \"Story.sol\":198:199  c */\n                      dup2\n                        /* \"Story.sol\":198:204  c >= a */\n                      lt\n                      iszero\n                        /* \"Story.sol\":190:236  require(c >= a, \"SafeMath: addition overflow\") */\n                      tag_89\n                      jumpi\n                      mload(0x40)\n                      0x08c379a000000000000000000000000000000000000000000000000000000000\n                      dup2\n                      mstore\n                      0x04\n                      add\n                      tag_90\n                      swap1\n                      tag_91\n                      jump\t// in\n                    tag_90:\n                      mload(0x40)\n                      dup1\n                      swap2\n                      sub\n                      swap1\n                      revert\n                    tag_89:\n                        /* \"Story.sol\":254:255  c */\n                      dup1\n                        /* \"Story.sol\":247:255  return c */\n                      swap2\n                      pop\n                      pop\n                        /* \"Story.sol\":84:263  function add(uint256 a, uint256 b) internal pure returns (uint256) {... */\n                      swap3\n                      swap2\n                      pop\n                      pop\n                      jump\t// out\n                        /* \"#utility.yul\":7:133   */\n                    tag_92:\n                        /* \"#utility.yul\":44:51   */\n                      0x00\n                        /* \"#utility.yul\":84:126   */\n                      0xffffffffffffffffffffffffffffffffffffffff\n                        /* \"#utility.yul\":77:82   */\n                      dup3\n                        /* \"#utility.yul\":73:127   */\n                      and\n                        /* \"#utility.yul\":62:127   */\n                      swap1\n                      pop\n                        /* \"#utility.yul\":7:133   */\n                      swap2\n                      swap1\n                      pop\n                      jump\t// out\n                        /* \"#utility.yul\":139:235   */\n                    tag_93:\n                        /* \"#utility.yul\":176:183   */\n                      0x00\n                        /* \"#utility.yul\":205:229   */\n                      tag_127\n                        /* \"#utility.yul\":223:228   */\n                      dup3\n                        /* \"#utility.yul\":205:229   */\n                      tag_92\n                      jump\t// in\n                    tag_127:\n                        /* \"#utility.yul\":194:229   */\n                      swap1\n                      pop\n                        /* \"#utility.yul\":139:235   */\n                      swap2\n                      swap1\n                      pop\n                      jump\t// out\n                        /* \"#utility.yul\":241:359   */\n                    tag_94:\n                        /* \"#utility.yul\":328:352   */\n                      tag_129\n                        /* \"#utility.yul\":346:351   */\n                      dup2\n                        /* \"#utility.yul\":328:352   */\n                      tag_93\n                      jump\t// in\n                    tag_129:\n                        /* \"#utility.yul\":323:326   */\n                      dup3\n                        /* \"#utility.yul\":316:353   */\n                      mstore\n                        /* \"#utility.yul\":241:359   */\n                      pop\n                      pop\n                      jump\t// out\n                        /* \"#utility.yul\":365:464   */\n                    tag_95:\n                        /* \"#utility.yul\":417:423   */\n                      0x00\n                        /* \"#utility.yul\":451:456   */\n                      dup2\n                        /* \"#utility.yul\":445:457   */\n                      mload\n                        /* \"#utility.yul\":435:457   */\n                      swap1\n                      pop\n                        /* \"#utility.yul\":365:464   */\n                      swap2\n                      swap1\n                      pop\n                      jump\t// out\n                        /* \"#utility.yul\":470:639   */\n                    tag_96:\n                        /* \"#utility.yul\":554:565   */\n                      0x00\n                        /* \"#utility.yul\":588:594   */\n                      dup3\n                        /* \"#utility.yul\":583:586   */\n                      dup3\n                        /* \"#utility.yul\":576:595   */\n                      mstore\n                        /* \"#utility.yul\":628:632   */\n                      0x20\n                        /* \"#utility.yul\":623:626   */\n                      dup3\n                        /* \"#utility.yul\":619:633   */\n                      add\n                        /* \"#utility.yul\":604:633   */\n                      swap1\n                      pop\n                        /* \"#utility.yul\":470:639   */\n                      swap3\n                      swap2\n                      pop\n                      pop\n                      jump\t// out\n                        /* \"#utility.yul\":645:952   */\n                    tag_97:\n                        /* \"#utility.yul\":713:714   */\n                      0x00\n                        /* \"#utility.yul\":723:836   */\n                    tag_133:\n                        /* \"#utility.yul\":737:743   */\n                      dup4\n                        /* \"#utility.yul\":734:735   */\n                      dup2\n                        /* \"#utility.yul\":731:744   */\n                      lt\n                        /* \"#utility.yul\":723:836   */\n                      iszero\n                      tag_135\n                      jumpi\n                        /* \"#utility.yul\":822:823   */\n                      dup1\n                        /* \"#utility.yul\":817:820   */\n                      dup3\n                        /* \"#utility.yul\":813:824   */\n                      add\n                        /* \"#utility.yul\":807:825   */\n                      mload\n                        /* \"#utility.yul\":803:804   */\n                      dup2\n                        /* \"#utility.yul\":798:801   */\n                      dup5\n                        /* \"#utility.yul\":794:805   */\n                      add\n                        /* \"#utility.yul\":787:826   */\n                      mstore\n                        /* \"#utility.yul\":759:761   */\n                      0x20\n                        /* \"#utility.yul\":756:757   */\n                      dup2\n                        /* \"#utility.yul\":752:762   */\n                      add\n                        /* \"#utility.yul\":747:762   */\n                      swap1\n                      pop\n                        /* \"#utility.yul\":723:836   */\n                      jump(tag_133)\n                    tag_135:\n                        /* \"#utility.yul\":854:860   */\n                      dup4\n                        /* \"#utility.yul\":851:852   */\n                      dup2\n                        /* \"#utility.yul\":848:861   */\n                      gt\n                        /* \"#utility.yul\":845:946   */\n                      iszero\n                      tag_136\n                      jumpi\n                        /* \"#utility.yul\":934:935   */\n                      0x00\n                        /* \"#utility.yul\":925:931   */\n                      dup5\n                        /* \"#utility.yul\":920:923   */\n                      dup5\n                        /* \"#utility.yul\":916:932   */\n                      add\n                        /* \"#utility.yul\":909:936   */\n                      mstore\n                        /* \"#utility.yul\":845:946   */\n                    tag_136:\n                        /* \"#utility.yul\":694:952   */\n                      pop\n                        /* \"#utility.yul\":645:952   */\n                      pop\n                      pop\n                      pop\n                      jump\t// out\n                        /* \"#utility.yul\":958:1060   */\n                    tag_98:\n                        /* \"#utility.yul\":999:1005   */\n                      0x00\n                        /* \"#utility.yul\":1050:1052   */\n                      0x1f\n                        /* \"#utility.yul\":1046:1053   */\n                      not\n                        /* \"#utility.yul\":1041:1043   */\n                      0x1f\n                        /* \"#utility.yul\":1034:1039   */\n                      dup4\n                        /* \"#utility.yul\":1030:1044   */\n                      add\n                        /* \"#utility.yul\":1026:1054   */\n                      and\n                        /* \"#utility.yul\":1016:1054   */\n                      swap1\n                      pop\n                        /* \"#utility.yul\":958:1060   */\n                      swap2\n                      swap1\n                      pop\n                      jump\t// out\n                        /* \"#utility.yul\":1066:1430   */\n                    tag_99:\n                        /* \"#utility.yul\":1154:1157   */\n                      0x00\n                        /* \"#utility.yul\":1182:1221   */\n                      tag_139\n                        /* \"#utility.yul\":1215:1220   */\n                      dup3\n                        /* \"#utility.yul\":1182:1221   */\n                      tag_95\n                      jump\t// in\n                    tag_139:\n                        /* \"#utility.yul\":1237:1308   */\n                      tag_140\n                        /* \"#utility.yul\":1301:1307   */\n                      dup2\n                        /* \"#utility.yul\":1296:1299   */\n                      dup6\n                        /* \"#utility.yul\":1237:1308   */\n                      tag_96\n                      jump\t// in\n                    tag_140:\n                        /* \"#utility.yul\":1230:1308   */\n                      swap4\n                      pop\n                        /* \"#utility.yul\":1317:1369   */\n                      tag_141\n                        /* \"#utility.yul\":1362:1368   */\n                      dup2\n                        /* \"#utility.yul\":1357:1360   */\n                      dup6\n                        /* \"#utility.yul\":1350:1354   */\n                      0x20\n                        /* \"#utility.yul\":1343:1348   */\n                      dup7\n                        /* \"#utility.yul\":1339:1355   */\n                      add\n                        /* \"#utility.yul\":1317:1369   */\n                      tag_97\n                      jump\t// in\n                    tag_141:\n                        /* \"#utility.yul\":1394:1423   */\n                      tag_142\n                        /* \"#utility.yul\":1416:1422   */\n                      dup2\n                        /* \"#utility.yul\":1394:1423   */\n                      tag_98\n                      jump\t// in\n                    tag_142:\n                        /* \"#utility.yul\":1389:1392   */\n                      dup5\n                        /* \"#utility.yul\":1385:1424   */\n                      add\n                        /* \"#utility.yul\":1378:1424   */\n                      swap2\n                      pop\n                        /* \"#utility.yul\":1158:1430   */\n                      pop\n                        /* \"#utility.yul\":1066:1430   */\n                      swap3\n                      swap2\n                      pop\n                      pop\n                      jump\t// out\n                        /* \"#utility.yul\":1436:1550   */\n                    tag_100:\n                        /* \"#utility.yul\":1503:1509   */\n                      0x00\n                        /* \"#utility.yul\":1537:1542   */\n                      dup2\n                        /* \"#utility.yul\":1531:1543   */\n                      mload\n                        /* \"#utility.yul\":1521:1543   */\n                      swap1\n                      pop\n                        /* \"#utility.yul\":1436:1550   */\n                      swap2\n                      swap1\n                      pop\n                      jump\t// out\n                        /* \"#utility.yul\":1556:1740   */\n                    tag_101:\n                        /* \"#utility.yul\":1655:1666   */\n                      0x00\n                        /* \"#utility.yul\":1689:1695   */\n                      dup3\n                        /* \"#utility.yul\":1684:1687   */\n                      dup3\n                        /* \"#utility.yul\":1677:1696   */\n                      mstore\n                        /* \"#utility.yul\":1729:1733   */\n                      0x20\n                        /* \"#utility.yul\":1724:1727   */\n                      dup3\n                        /* \"#utility.yul\":1720:1734   */\n                      add\n                        /* \"#utility.yul\":1705:1734   */\n                      swap1\n                      pop\n                        /* \"#utility.yul\":1556:1740   */\n                      swap3\n                      swap2\n                      pop\n                      pop\n                      jump\t// out\n                        /* \"#utility.yul\":1746:1878   */\n                    tag_102:\n                        /* \"#utility.yul\":1813:1817   */\n                      0x00\n                        /* \"#utility.yul\":1836:1839   */\n                      dup2\n                        /* \"#utility.yul\":1828:1839   */\n                      swap1\n                      pop\n                        /* \"#utility.yul\":1866:1870   */\n                      0x20\n                        /* \"#utility.yul\":1861:1864   */\n                      dup3\n                        /* \"#utility.yul\":1857:1871   */\n                      add\n                        /* \"#utility.yul\":1849:1871   */\n                      swap1\n                      pop\n                        /* \"#utility.yul\":1746:1878   */\n                      swap2\n                      swap1\n                      pop\n                      jump\t// out\n                        /* \"#utility.yul\":1884:1992   */\n                    tag_103:\n                        /* \"#utility.yul\":1961:1985   */\n                      tag_147\n                        /* \"#utility.yul\":1979:1984   */\n                      dup2\n                        /* \"#utility.yul\":1961:1985   */\n                      tag_93\n                      jump\t// in\n                    tag_147:\n                        /* \"#utility.yul\":1956:1959   */\n                      dup3\n                        /* \"#utility.yul\":1949:1986   */\n                      mstore\n                        /* \"#utility.yul\":1884:1992   */\n                      pop\n                      pop\n                      jump\t// out\n                        /* \"#utility.yul\":1998:2177   */\n                    tag_104:\n                        /* \"#utility.yul\":2067:2077   */\n                      0x00\n                        /* \"#utility.yul\":2088:2134   */\n                      tag_149\n                        /* \"#utility.yul\":2130:2133   */\n                      dup4\n                        /* \"#utility.yul\":2122:2128   */\n                      dup4\n                        /* \"#utility.yul\":2088:2134   */\n                      tag_103\n                      jump\t// in\n                    tag_149:\n                        /* \"#utility.yul\":2166:2170   */\n                      0x20\n                        /* \"#utility.yul\":2161:2164   */\n                      dup4\n                        /* \"#utility.yul\":2157:2171   */\n                      add\n                        /* \"#utility.yul\":2143:2171   */\n                      swap1\n                      pop\n                        /* \"#utility.yul\":1998:2177   */\n                      swap3\n                      swap2\n                      pop\n                      pop\n                      jump\t// out\n                        /* \"#utility.yul\":2183:2296   */\n                    tag_105:\n                        /* \"#utility.yul\":2253:2257   */\n                      0x00\n                        /* \"#utility.yul\":2285:2289   */\n                      0x20\n                        /* \"#utility.yul\":2280:2283   */\n                      dup3\n                        /* \"#utility.yul\":2276:2290   */\n                      add\n                        /* \"#utility.yul\":2268:2290   */\n                      swap1\n                      pop\n                        /* \"#utility.yul\":2183:2296   */\n                      swap2\n                      swap1\n                      pop\n                      jump\t// out\n                        /* \"#utility.yul\":2332:3064   */\n                    tag_106:\n                        /* \"#utility.yul\":2451:2454   */\n                      0x00\n                        /* \"#utility.yul\":2480:2534   */\n                      tag_152\n                        /* \"#utility.yul\":2528:2533   */\n                      dup3\n                        /* \"#utility.yul\":2480:2534   */\n                      tag_100\n                      jump\t// in\n                    tag_152:\n                        /* \"#utility.yul\":2550:2636   */\n                      tag_153\n                        /* \"#utility.yul\":2629:2635   */\n                      dup2\n                        /* \"#utility.yul\":2624:2627   */\n                      dup6\n                        /* \"#utility.yul\":2550:2636   */\n                      tag_101\n                      jump\t// in\n                    tag_153:\n                        /* \"#utility.yul\":2543:2636   */\n                      swap4\n                      pop\n                        /* \"#utility.yul\":2660:2716   */\n                      tag_154\n                        /* \"#utility.yul\":2710:2715   */\n                      dup4\n                        /* \"#utility.yul\":2660:2716   */\n                      tag_102\n                      jump\t// in\n                    tag_154:\n                        /* \"#utility.yul\":2739:2746   */\n                      dup1\n                        /* \"#utility.yul\":2770:2771   */\n                      0x00\n                        /* \"#utility.yul\":2755:3039   */\n                    tag_155:\n                        /* \"#utility.yul\":2780:2786   */\n                      dup4\n                        /* \"#utility.yul\":2777:2778   */\n                      dup2\n                        /* \"#utility.yul\":2774:2787   */\n                      lt\n                        /* \"#utility.yul\":2755:3039   */\n                      iszero\n                      tag_157\n                      jumpi\n                        /* \"#utility.yul\":2856:2862   */\n                      dup2\n                        /* \"#utility.yul\":2850:2863   */\n                      mload\n                        /* \"#utility.yul\":2883:2946   */\n                      tag_158\n                        /* \"#utility.yul\":2942:2945   */\n                      dup9\n                        /* \"#utility.yul\":2927:2940   */\n                      dup3\n                        /* \"#utility.yul\":2883:2946   */\n                      tag_104\n                      jump\t// in\n                    tag_158:\n                        /* \"#utility.yul\":2876:2946   */\n                      swap8\n                      pop\n                        /* \"#utility.yul\":2969:3029   */\n                      tag_159\n                        /* \"#utility.yul\":3022:3028   */\n                      dup4\n                        /* \"#utility.yul\":2969:3029   */\n                      tag_105\n                      jump\t// in\n                    tag_159:\n                        /* \"#utility.yul\":2959:3029   */\n                      swap3\n                      pop\n                        /* \"#utility.yul\":2815:3039   */\n                      pop\n                        /* \"#utility.yul\":2802:2803   */\n                      0x01\n                        /* \"#utility.yul\":2799:2800   */\n                      dup2\n                        /* \"#utility.yul\":2795:2804   */\n                      add\n                        /* \"#utility.yul\":2790:2804   */\n                      swap1\n                      pop\n                        /* \"#utility.yul\":2755:3039   */\n                      jump(tag_155)\n                    tag_157:\n                        /* \"#utility.yul\":2759:2773   */\n                      pop\n                        /* \"#utility.yul\":3055:3058   */\n                      dup6\n                        /* \"#utility.yul\":3048:3058   */\n                      swap4\n                      pop\n                        /* \"#utility.yul\":2456:3064   */\n                      pop\n                      pop\n                      pop\n                        /* \"#utility.yul\":2332:3064   */\n                      swap3\n                      swap2\n                      pop\n                      pop\n                      jump\t// out\n                        /* \"#utility.yul\":3070:3147   */\n                    tag_107:\n                        /* \"#utility.yul\":3107:3114   */\n                      0x00\n                        /* \"#utility.yul\":3136:3141   */\n                      dup2\n                        /* \"#utility.yul\":3125:3141   */\n                      swap1\n                      pop\n                        /* \"#utility.yul\":3070:3147   */\n                      swap2\n                      swap1\n                      pop\n                      jump\t// out\n                        /* \"#utility.yul\":3153:3271   */\n                    tag_108:\n                        /* \"#utility.yul\":3240:3264   */\n                      tag_162\n                        /* \"#utility.yul\":3258:3263   */\n                      dup2\n                        /* \"#utility.yul\":3240:3264   */\n                      tag_107\n                      jump\t// in\n                    tag_162:\n                        /* \"#utility.yul\":3235:3238   */\n                      dup3\n                        /* \"#utility.yul\":3228:3265   */\n                      mstore\n                        /* \"#utility.yul\":3153:3271   */\n                      pop\n                      pop\n                      jump\t// out\n                        /* \"#utility.yul\":3277:4445   */\n                    tag_17:\n                        /* \"#utility.yul\":3630:3634   */\n                      0x00\n                        /* \"#utility.yul\":3668:3671   */\n                      0xc0\n                        /* \"#utility.yul\":3657:3666   */\n                      dup3\n                        /* \"#utility.yul\":3653:3672   */\n                      add\n                        /* \"#utility.yul\":3645:3672   */\n                      swap1\n                      pop\n                        /* \"#utility.yul\":3682:3753   */\n                      tag_164\n                        /* \"#utility.yul\":3750:3751   */\n                      0x00\n                        /* \"#utility.yul\":3739:3748   */\n                      dup4\n                        /* \"#utility.yul\":3735:3752   */\n                      add\n                        /* \"#utility.yul\":3726:3732   */\n                      dup10\n                        /* \"#utility.yul\":3682:3753   */\n                      tag_94\n                      jump\t// in\n                    tag_164:\n                        /* \"#utility.yul\":3763:3835   */\n                      tag_165\n                        /* \"#utility.yul\":3831:3833   */\n                      0x20\n                        /* \"#utility.yul\":3820:3829   */\n                      dup4\n                        /* \"#utility.yul\":3816:3834   */\n                      add\n                        /* \"#utility.yul\":3807:3813   */\n                      dup9\n                        /* \"#utility.yul\":3763:3835   */\n                      tag_94\n                      jump\t// in\n                    tag_165:\n                        /* \"#utility.yul\":3882:3891   */\n                      dup2\n                        /* \"#utility.yul\":3876:3880   */\n                      dup2\n                        /* \"#utility.yul\":3872:3892   */\n                      sub\n                        /* \"#utility.yul\":3867:3869   */\n                      0x40\n                        /* \"#utility.yul\":3856:3865   */\n                      dup4\n                        /* \"#utility.yul\":3852:3870   */\n                      add\n                        /* \"#utility.yul\":3845:3893   */\n                      mstore\n                        /* \"#utility.yul\":3910:3988   */\n                      tag_166\n                        /* \"#utility.yul\":3983:3987   */\n                      dup2\n                        /* \"#utility.yul\":3974:3980   */\n                      dup8\n                        /* \"#utility.yul\":3910:3988   */\n                      tag_99\n                      jump\t// in\n                    tag_166:\n                        /* \"#utility.yul\":3902:3988   */\n                      swap1\n                      pop\n                        /* \"#utility.yul\":4035:4044   */\n                      dup2\n                        /* \"#utility.yul\":4029:4033   */\n                      dup2\n                        /* \"#utility.yul\":4025:4045   */\n                      sub\n                        /* \"#utility.yul\":4020:4022   */\n                      0x60\n                        /* \"#utility.yul\":4009:4018   */\n                      dup4\n                        /* \"#utility.yul\":4005:4023   */\n                      add\n                        /* \"#utility.yul\":3998:4046   */\n                      mstore\n                        /* \"#utility.yul\":4063:4171   */\n                      tag_167\n                        /* \"#utility.yul\":4166:4170   */\n                      dup2\n                        /* \"#utility.yul\":4157:4163   */\n                      dup7\n                        /* \"#utility.yul\":4063:4171   */\n                      tag_106\n                      jump\t// in\n                    tag_167:\n                        /* \"#utility.yul\":4055:4171   */\n                      swap1\n                      pop\n                        /* \"#utility.yul\":4219:4228   */\n                      dup2\n                        /* \"#utility.yul\":4213:4217   */\n                      dup2\n                        /* \"#utility.yul\":4209:4229   */\n                      sub\n                        /* \"#utility.yul\":4203:4206   */\n                      0x80\n                        /* \"#utility.yul\":4192:4201   */\n                      dup4\n                        /* \"#utility.yul\":4188:4207   */\n                      add\n                        /* \"#utility.yul\":4181:4230   */\n                      mstore\n                        /* \"#utility.yul\":4247:4355   */\n                      tag_168\n                        /* \"#utility.yul\":4350:4354   */\n                      dup2\n                        /* \"#utility.yul\":4341:4347   */\n                      dup6\n                        /* \"#utility.yul\":4247:4355   */\n                      tag_106\n                      jump\t// in\n                    tag_168:\n                        /* \"#utility.yul\":4239:4355   */\n                      swap1\n                      pop\n                        /* \"#utility.yul\":4365:4438   */\n                      tag_169\n                        /* \"#utility.yul\":4433:4436   */\n                      0xa0\n                        /* \"#utility.yul\":4422:4431   */\n                      dup4\n                        /* \"#utility.yul\":4418:4437   */\n                      add\n                        /* \"#utility.yul\":4409:4415   */\n                      dup5\n                        /* \"#utility.yul\":4365:4438   */\n                      tag_108\n                      jump\t// in\n                    tag_169:\n                        /* \"#utility.yul\":3277:4445   */\n                      swap8\n                      swap7\n                      pop\n                      pop\n                      pop\n                      pop\n                      pop\n                      pop\n                      pop\n                      jump\t// out\n                        /* \"#utility.yul\":4451:4673   */\n                    tag_21:\n                        /* \"#utility.yul\":4544:4548   */\n                      0x00\n                        /* \"#utility.yul\":4582:4584   */\n                      0x20\n                        /* \"#utility.yul\":4571:4580   */\n                      dup3\n                        /* \"#utility.yul\":4567:4585   */\n                      add\n                        /* \"#utility.yul\":4559:4585   */\n                      swap1\n                      pop\n                        /* \"#utility.yul\":4595:4666   */\n                      tag_171\n                        /* \"#utility.yul\":4663:4664   */\n                      0x00\n                        /* \"#utility.yul\":4652:4661   */\n                      dup4\n                        /* \"#utility.yul\":4648:4665   */\n                      add\n                        /* \"#utility.yul\":4639:4645   */\n                      dup5\n                        /* \"#utility.yul\":4595:4666   */\n                      tag_94\n                      jump\t// in\n                    tag_171:\n                        /* \"#utility.yul\":4451:4673   */\n                      swap3\n                      swap2\n                      pop\n                      pop\n                      jump\t// out\n                        /* \"#utility.yul\":4760:4877   */\n                    tag_110:\n                        /* \"#utility.yul\":4869:4870   */\n                      0x00\n                        /* \"#utility.yul\":4866:4867   */\n                      dup1\n                        /* \"#utility.yul\":4859:4871   */\n                      revert\n                        /* \"#utility.yul\":5006:5128   */\n                    tag_112:\n                        /* \"#utility.yul\":5079:5103   */\n                      tag_176\n                        /* \"#utility.yul\":5097:5102   */\n                      dup2\n                        /* \"#utility.yul\":5079:5103   */\n                      tag_93\n                      jump\t// in\n                    tag_176:\n                        /* \"#utility.yul\":5072:5077   */\n                      dup2\n                        /* \"#utility.yul\":5069:5104   */\n                      eq\n                        /* \"#utility.yul\":5059:5122   */\n                      tag_177\n                      jumpi\n                        /* \"#utility.yul\":5118:5119   */\n                      0x00\n                        /* \"#utility.yul\":5115:5116   */\n                      dup1\n                        /* \"#utility.yul\":5108:5120   */\n                      revert\n                        /* \"#utility.yul\":5059:5122   */\n                    tag_177:\n                        /* \"#utility.yul\":5006:5128   */\n                      pop\n                      jump\t// out\n                        /* \"#utility.yul\":5134:5273   */\n                    tag_113:\n                        /* \"#utility.yul\":5180:5185   */\n                      0x00\n                        /* \"#utility.yul\":5218:5224   */\n                      dup2\n                        /* \"#utility.yul\":5205:5225   */\n                      calldataload\n                        /* \"#utility.yul\":5196:5225   */\n                      swap1\n                      pop\n                        /* \"#utility.yul\":5234:5267   */\n                      tag_179\n                        /* \"#utility.yul\":5261:5266   */\n                      dup2\n                        /* \"#utility.yul\":5234:5267   */\n                      tag_112\n                      jump\t// in\n                    tag_179:\n                        /* \"#utility.yul\":5134:5273   */\n                      swap3\n                      swap2\n                      pop\n                      pop\n                      jump\t// out\n                        /* \"#utility.yul\":5279:5608   */\n                    tag_24:\n                        /* \"#utility.yul\":5338:5344   */\n                      0x00\n                        /* \"#utility.yul\":5387:5389   */\n                      0x20\n                        /* \"#utility.yul\":5375:5384   */\n                      dup3\n                        /* \"#utility.yul\":5366:5373   */\n                      dup5\n                        /* \"#utility.yul\":5362:5385   */\n                      sub\n                        /* \"#utility.yul\":5358:5390   */\n                      slt\n                        /* \"#utility.yul\":5355:5474   */\n                      iszero\n                      tag_181\n                      jumpi\n                        /* \"#utility.yul\":5393:5472   */\n                      tag_182\n                      tag_110\n                      jump\t// in\n                    tag_182:\n                        /* \"#utility.yul\":5355:5474   */\n                    tag_181:\n                        /* \"#utility.yul\":5513:5514   */\n                      0x00\n                        /* \"#utility.yul\":5538:5591   */\n                      tag_183\n                        /* \"#utility.yul\":5583:5590   */\n                      dup5\n                        /* \"#utility.yul\":5574:5580   */\n                      dup3\n                        /* \"#utility.yul\":5563:5572   */\n                      dup6\n                        /* \"#utility.yul\":5559:5581   */\n                      add\n                        /* \"#utility.yul\":5538:5591   */\n                      tag_113\n                      jump\t// in\n                    tag_183:\n                        /* \"#utility.yul\":5528:5591   */\n                      swap2\n                      pop\n                        /* \"#utility.yul\":5484:5601   */\n                      pop\n                        /* \"#utility.yul\":5279:5608   */\n                      swap3\n                      swap2\n                      pop\n                      pop\n                      jump\t// out\n                        /* \"#utility.yul\":5614:5736   */\n                    tag_114:\n                        /* \"#utility.yul\":5687:5711   */\n                      tag_185\n                        /* \"#utility.yul\":5705:5710   */\n                      dup2\n                        /* \"#utility.yul\":5687:5711   */\n                      tag_107\n                      jump\t// in\n                    tag_185:\n                        /* \"#utility.yul\":5680:5685   */\n                      dup2\n                        /* \"#utility.yul\":5677:5712   */\n                      eq\n                        /* \"#utility.yul\":5667:5730   */\n                      tag_186\n                      jumpi\n                        /* \"#utility.yul\":5726:5727   */\n                      0x00\n                        /* \"#utility.yul\":5723:5724   */\n                      dup1\n                        /* \"#utility.yul\":5716:5728   */\n                      revert\n                        /* \"#utility.yul\":5667:5730   */\n                    tag_186:\n                        /* \"#utility.yul\":5614:5736   */\n                      pop\n                      jump\t// out\n                        /* \"#utility.yul\":5742:5881   */\n                    tag_115:\n                        /* \"#utility.yul\":5788:5793   */\n                      0x00\n                        /* \"#utility.yul\":5826:5832   */\n                      dup2\n                        /* \"#utility.yul\":5813:5833   */\n                      calldataload\n                        /* \"#utility.yul\":5804:5833   */\n                      swap1\n                      pop\n                        /* \"#utility.yul\":5842:5875   */\n                      tag_188\n                        /* \"#utility.yul\":5869:5874   */\n                      dup2\n                        /* \"#utility.yul\":5842:5875   */\n                      tag_114\n                      jump\t// in\n                    tag_188:\n                        /* \"#utility.yul\":5742:5881   */\n                      swap3\n                      swap2\n                      pop\n                      pop\n                      jump\t// out\n                        /* \"#utility.yul\":5887:6216   */\n                    tag_36:\n                        /* \"#utility.yul\":5946:5952   */\n                      0x00\n                        /* \"#utility.yul\":5995:5997   */\n                      0x20\n                        /* \"#utility.yul\":5983:5992   */\n                      dup3\n                        /* \"#utility.yul\":5974:5981   */\n                      dup5\n                        /* \"#utility.yul\":5970:5993   */\n                      sub\n                        /* \"#utility.yul\":5966:5998   */\n                      slt\n                        /* \"#utility.yul\":5963:6082   */\n                      iszero\n                      tag_190\n                      jumpi\n                        /* \"#utility.yul\":6001:6080   */\n                      tag_191\n                      tag_110\n                      jump\t// in\n                    tag_191:\n                        /* \"#utility.yul\":5963:6082   */\n                    tag_190:\n                        /* \"#utility.yul\":6121:6122   */\n                      0x00\n                        /* \"#utility.yul\":6146:6199   */\n                      tag_192\n                        /* \"#utility.yul\":6191:6198   */\n                      dup5\n                        /* \"#utility.yul\":6182:6188   */\n                      dup3\n                        /* \"#utility.yul\":6171:6180   */\n                      dup6\n                        /* \"#utility.yul\":6167:6189   */\n                      add\n                        /* \"#utility.yul\":6146:6199   */\n                      tag_115\n                      jump\t// in\n                    tag_192:\n                        /* \"#utility.yul\":6136:6199   */\n                      swap2\n                      pop\n                        /* \"#utility.yul\":6092:6209   */\n                      pop\n                        /* \"#utility.yul\":5887:6216   */\n                      swap3\n                      swap2\n                      pop\n                      pop\n                      jump\t// out\n                        /* \"#utility.yul\":6222:6535   */\n                    tag_42:\n                        /* \"#utility.yul\":6335:6339   */\n                      0x00\n                        /* \"#utility.yul\":6373:6375   */\n                      0x20\n                        /* \"#utility.yul\":6362:6371   */\n                      dup3\n                        /* \"#utility.yul\":6358:6376   */\n                      add\n                        /* \"#utility.yul\":6350:6376   */\n                      swap1\n                      pop\n                        /* \"#utility.yul\":6422:6431   */\n                      dup2\n                        /* \"#utility.yul\":6416:6420   */\n                      dup2\n                        /* \"#utility.yul\":6412:6432   */\n                      sub\n                        /* \"#utility.yul\":6408:6409   */\n                      0x00\n                        /* \"#utility.yul\":6397:6406   */\n                      dup4\n                        /* \"#utility.yul\":6393:6410   */\n                      add\n                        /* \"#utility.yul\":6386:6433   */\n                      mstore\n                        /* \"#utility.yul\":6450:6528   */\n                      tag_194\n                        /* \"#utility.yul\":6523:6527   */\n                      dup2\n                        /* \"#utility.yul\":6514:6520   */\n                      dup5\n                        /* \"#utility.yul\":6450:6528   */\n                      tag_99\n                      jump\t// in\n                    tag_194:\n                        /* \"#utility.yul\":6442:6528   */\n                      swap1\n                      pop\n                        /* \"#utility.yul\":6222:6535   */\n                      swap3\n                      swap2\n                      pop\n                      pop\n                      jump\t// out\n                        /* \"#utility.yul\":6541:6763   */\n                    tag_46:\n                        /* \"#utility.yul\":6634:6638   */\n                      0x00\n                        /* \"#utility.yul\":6672:6674   */\n                      0x20\n                        /* \"#utility.yul\":6661:6670   */\n                      dup3\n                        /* \"#utility.yul\":6657:6675   */\n                      add\n                        /* \"#utility.yul\":6649:6675   */\n                      swap1\n                      pop\n                        /* \"#utility.yul\":6685:6756   */\n                      tag_196\n                        /* \"#utility.yul\":6753:6754   */\n                      0x00\n                        /* \"#utility.yul\":6742:6751   */\n                      dup4\n                        /* \"#utility.yul\":6738:6755   */\n                      add\n                        /* \"#utility.yul\":6729:6735   */\n                      dup5\n                        /* \"#utility.yul\":6685:6756   */\n                      tag_108\n                      jump\t// in\n                    tag_196:\n                        /* \"#utility.yul\":6541:6763   */\n                      swap3\n                      swap2\n                      pop\n                      pop\n                      jump\t// out\n                        /* \"#utility.yul\":6769:6949   */\n                    tag_116:\n                        /* \"#utility.yul\":6817:6894   */\n                      0x4e487b7100000000000000000000000000000000000000000000000000000000\n                        /* \"#utility.yul\":6814:6815   */\n                      0x00\n                        /* \"#utility.yul\":6807:6895   */\n                      mstore\n                        /* \"#utility.yul\":6914:6918   */\n                      0x22\n                        /* \"#utility.yul\":6911:6912   */\n                      0x04\n                        /* \"#utility.yul\":6904:6919   */\n                      mstore\n                        /* \"#utility.yul\":6938:6942   */\n                      0x24\n                        /* \"#utility.yul\":6935:6936   */\n                      0x00\n                        /* \"#utility.yul\":6928:6943   */\n                      revert\n                        /* \"#utility.yul\":6955:7275   */\n                    tag_53:\n                        /* \"#utility.yul\":6999:7005   */\n                      0x00\n                        /* \"#utility.yul\":7036:7037   */\n                      0x02\n                        /* \"#utility.yul\":7030:7034   */\n                      dup3\n                        /* \"#utility.yul\":7026:7038   */\n                      div\n                        /* \"#utility.yul\":7016:7038   */\n                      swap1\n                      pop\n                        /* \"#utility.yul\":7083:7084   */\n                      0x01\n                        /* \"#utility.yul\":7077:7081   */\n                      dup3\n                        /* \"#utility.yul\":7073:7085   */\n                      and\n                        /* \"#utility.yul\":7104:7122   */\n                      dup1\n                        /* \"#utility.yul\":7094:7175   */\n                      tag_199\n                      jumpi\n                        /* \"#utility.yul\":7160:7164   */\n                      0x7f\n                        /* \"#utility.yul\":7152:7158   */\n                      dup3\n                        /* \"#utility.yul\":7148:7165   */\n                      and\n                        /* \"#utility.yul\":7138:7165   */\n                      swap2\n                      pop\n                        /* \"#utility.yul\":7094:7175   */\n                    tag_199:\n                        /* \"#utility.yul\":7222:7224   */\n                      0x20\n                        /* \"#utility.yul\":7214:7220   */\n                      dup3\n                        /* \"#utility.yul\":7211:7225   */\n                      lt\n                        /* \"#utility.yul\":7191:7209   */\n                      dup2\n                        /* \"#utility.yul\":7188:7226   */\n                      eq\n                        /* \"#utility.yul\":7185:7269   */\n                      iszero\n                      tag_200\n                      jumpi\n                        /* \"#utility.yul\":7241:7259   */\n                      tag_201\n                      tag_116\n                      jump\t// in\n                    tag_201:\n                        /* \"#utility.yul\":7185:7269   */\n                    tag_200:\n                        /* \"#utility.yul\":7006:7275   */\n                      pop\n                        /* \"#utility.yul\":6955:7275   */\n                      swap2\n                      swap1\n                      pop\n                      jump\t// out\n                        /* \"#utility.yul\":7281:7586   */\n                    tag_117:\n                        /* \"#utility.yul\":7421:7455   */\n                      0x546869732066756e6374696f6e2068617320746f2062652063616c6c65642066\n                        /* \"#utility.yul\":7417:7418   */\n                      0x00\n                        /* \"#utility.yul\":7409:7415   */\n                      dup3\n                        /* \"#utility.yul\":7405:7419   */\n                      add\n                        /* \"#utility.yul\":7398:7456   */\n                      mstore\n                        /* \"#utility.yul\":7490:7524   */\n                      0x726f6d207468652073746f727920636f6e747261637420627920616e20616363\n                        /* \"#utility.yul\":7485:7487   */\n                      0x20\n                        /* \"#utility.yul\":7477:7483   */\n                      dup3\n                        /* \"#utility.yul\":7473:7488   */\n                      add\n                        /* \"#utility.yul\":7466:7525   */\n                      mstore\n                        /* \"#utility.yul\":7559:7578   */\n                      0x657074656420617574686f72206f6e6c79000000000000000000000000000000\n                        /* \"#utility.yul\":7554:7556   */\n                      0x40\n                        /* \"#utility.yul\":7546:7552   */\n                      dup3\n                        /* \"#utility.yul\":7542:7557   */\n                      add\n                        /* \"#utility.yul\":7535:7579   */\n                      mstore\n                        /* \"#utility.yul\":7281:7586   */\n                      pop\n                      jump\t// out\n                        /* \"#utility.yul\":7592:7958   */\n                    tag_118:\n                        /* \"#utility.yul\":7734:7737   */\n                      0x00\n                        /* \"#utility.yul\":7755:7822   */\n                      tag_204\n                        /* \"#utility.yul\":7819:7821   */\n                      0x51\n                        /* \"#utility.yul\":7814:7817   */\n                      dup4\n                        /* \"#utility.yul\":7755:7822   */\n                      tag_96\n                      jump\t// in\n                    tag_204:\n                        /* \"#utility.yul\":7748:7822   */\n                      swap2\n                      pop\n                        /* \"#utility.yul\":7831:7924   */\n                      tag_205\n                        /* \"#utility.yul\":7920:7923   */\n                      dup3\n                        /* \"#utility.yul\":7831:7924   */\n                      tag_117\n                      jump\t// in\n                    tag_205:\n                        /* \"#utility.yul\":7949:7951   */\n                      0x60\n                        /* \"#utility.yul\":7944:7947   */\n                      dup3\n                        /* \"#utility.yul\":7940:7952   */\n                      add\n                        /* \"#utility.yul\":7933:7952   */\n                      swap1\n                      pop\n                        /* \"#utility.yul\":7592:7958   */\n                      swap2\n                      swap1\n                      pop\n                      jump\t// out\n                        /* \"#utility.yul\":7964:8383   */\n                    tag_65:\n                        /* \"#utility.yul\":8130:8134   */\n                      0x00\n                        /* \"#utility.yul\":8168:8170   */\n                      0x20\n                        /* \"#utility.yul\":8157:8166   */\n                      dup3\n                        /* \"#utility.yul\":8153:8171   */\n                      add\n                        /* \"#utility.yul\":8145:8171   */\n                      swap1\n                      pop\n                        /* \"#utility.yul\":8217:8226   */\n                      dup2\n                        /* \"#utility.yul\":8211:8215   */\n                      dup2\n                        /* \"#utility.yul\":8207:8227   */\n                      sub\n                        /* \"#utility.yul\":8203:8204   */\n                      0x00\n                        /* \"#utility.yul\":8192:8201   */\n                      dup4\n                        /* \"#utility.yul\":8188:8205   */\n                      add\n                        /* \"#utility.yul\":8181:8228   */\n                      mstore\n                        /* \"#utility.yul\":8245:8376   */\n                      tag_207\n                        /* \"#utility.yul\":8371:8375   */\n                      dup2\n                        /* \"#utility.yul\":8245:8376   */\n                      tag_118\n                      jump\t// in\n                    tag_207:\n                        /* \"#utility.yul\":8237:8376   */\n                      swap1\n                      pop\n                        /* \"#utility.yul\":7964:8383   */\n                      swap2\n                      swap1\n                      pop\n                      jump\t// out\n                        /* \"#utility.yul\":8389:8566   */\n                    tag_119:\n                        /* \"#utility.yul\":8529:8558   */\n                      0x596f75206c696b656420746869732073746f7279206265666f72650000000000\n                        /* \"#utility.yul\":8525:8526   */\n                      0x00\n                        /* \"#utility.yul\":8517:8523   */\n                      dup3\n                        /* \"#utility.yul\":8513:8527   */\n                      add\n                        /* \"#utility.yul\":8506:8559   */\n                      mstore\n                        /* \"#utility.yul\":8389:8566   */\n                      pop\n                      jump\t// out\n                        /* \"#utility.yul\":8572:8938   */\n                    tag_120:\n                        /* \"#utility.yul\":8714:8717   */\n                      0x00\n                        /* \"#utility.yul\":8735:8802   */\n                      tag_210\n                        /* \"#utility.yul\":8799:8801   */\n                      0x1b\n                        /* \"#utility.yul\":8794:8797   */\n                      dup4\n                        /* \"#utility.yul\":8735:8802   */\n                      tag_96\n                      jump\t// in\n                    tag_210:\n                        /* \"#utility.yul\":8728:8802   */\n                      swap2\n                      pop\n                        /* \"#utility.yul\":8811:8904   */\n                      tag_211\n                        /* \"#utility.yul\":8900:8903   */\n                      dup3\n                        /* \"#utility.yul\":8811:8904   */\n                      tag_119\n                      jump\t// in\n                    tag_211:\n                        /* \"#utility.yul\":8929:8931   */\n                      0x20\n                        /* \"#utility.yul\":8924:8927   */\n                      dup3\n                        /* \"#utility.yul\":8920:8932   */\n                      add\n                        /* \"#utility.yul\":8913:8932   */\n                      swap1\n                      pop\n                        /* \"#utility.yul\":8572:8938   */\n                      swap2\n                      swap1\n                      pop\n                      jump\t// out\n                        /* \"#utility.yul\":8944:9363   */\n                    tag_74:\n                        /* \"#utility.yul\":9110:9114   */\n                      0x00\n                        /* \"#utility.yul\":9148:9150   */\n                      0x20\n                        /* \"#utility.yul\":9137:9146   */\n                      dup3\n                        /* \"#utility.yul\":9133:9151   */\n                      add\n                        /* \"#utility.yul\":9125:9151   */\n                      swap1\n                      pop\n                        /* \"#utility.yul\":9197:9206   */\n                      dup2\n                        /* \"#utility.yul\":9191:9195   */\n                      dup2\n                        /* \"#utility.yul\":9187:9207   */\n                      sub\n                        /* \"#utility.yul\":9183:9184   */\n                      0x00\n                        /* \"#utility.yul\":9172:9181   */\n                      dup4\n                        /* \"#utility.yul\":9168:9185   */\n                      add\n                        /* \"#utility.yul\":9161:9208   */\n                      mstore\n                        /* \"#utility.yul\":9225:9356   */\n                      tag_213\n                        /* \"#utility.yul\":9351:9355   */\n                      dup2\n                        /* \"#utility.yul\":9225:9356   */\n                      tag_120\n                      jump\t// in\n                    tag_213:\n                        /* \"#utility.yul\":9217:9356   */\n                      swap1\n                      pop\n                        /* \"#utility.yul\":8944:9363   */\n                      swap2\n                      swap1\n                      pop\n                      jump\t// out\n                        /* \"#utility.yul\":9369:9549   */\n                    tag_121:\n                        /* \"#utility.yul\":9417:9494   */\n                      0x4e487b7100000000000000000000000000000000000000000000000000000000\n                        /* \"#utility.yul\":9414:9415   */\n                      0x00\n                        /* \"#utility.yul\":9407:9495   */\n                      mstore\n                        /* \"#utility.yul\":9514:9518   */\n                      0x11\n                        /* \"#utility.yul\":9511:9512   */\n                      0x04\n                        /* \"#utility.yul\":9504:9519   */\n                      mstore\n                        /* \"#utility.yul\":9538:9542   */\n                      0x24\n                        /* \"#utility.yul\":9535:9536   */\n                      0x00\n                        /* \"#utility.yul\":9528:9543   */\n                      revert\n                        /* \"#utility.yul\":9555:9860   */\n                    tag_88:\n                        /* \"#utility.yul\":9595:9598   */\n                      0x00\n                        /* \"#utility.yul\":9614:9634   */\n                      tag_216\n                        /* \"#utility.yul\":9632:9633   */\n                      dup3\n                        /* \"#utility.yul\":9614:9634   */\n                      tag_107\n                      jump\t// in\n                    tag_216:\n                        /* \"#utility.yul\":9609:9634   */\n                      swap2\n                      pop\n                        /* \"#utility.yul\":9648:9668   */\n                      tag_217\n                        /* \"#utility.yul\":9666:9667   */\n                      dup4\n                        /* \"#utility.yul\":9648:9668   */\n                      tag_107\n                      jump\t// in\n                    tag_217:\n                        /* \"#utility.yul\":9643:9668   */\n                      swap3\n                      pop\n                        /* \"#utility.yul\":9802:9803   */\n                      dup3\n                        /* \"#utility.yul\":9734:9800   */\n                      0xffffffffffffffffffffffffffffffffffffffffffffffffffffffffffffffff\n                        /* \"#utility.yul\":9730:9804   */\n                      sub\n                        /* \"#utility.yul\":9727:9728   */\n                      dup3\n                        /* \"#utility.yul\":9724:9805   */\n                      gt\n                        /* \"#utility.yul\":9721:9828   */\n                      iszero\n                      tag_218\n                      jumpi\n                        /* \"#utility.yul\":9808:9826   */\n                      tag_219\n                      tag_121\n                      jump\t// in\n                    tag_219:\n                        /* \"#utility.yul\":9721:9828   */\n                    tag_218:\n                        /* \"#utility.yul\":9852:9853   */\n                      dup3\n                        /* \"#utility.yul\":9849:9850   */\n                      dup3\n                        /* \"#utility.yul\":9845:9854   */\n                      add\n                        /* \"#utility.yul\":9838:9854   */\n                      swap1\n                      pop\n                        /* \"#utility.yul\":9555:9860   */\n                      swap3\n                      swap2\n                      pop\n                      pop\n                      jump\t// out\n                        /* \"#utility.yul\":9866:10043   */\n                    tag_122:\n                        /* \"#utility.yul\":10006:10035   */\n                      0x536166654d6174683a206164646974696f6e206f766572666c6f770000000000\n                        /* \"#utility.yul\":10002:10003   */\n                      0x00\n                        /* \"#utility.yul\":9994:10000   */\n                      dup3\n                        /* \"#utility.yul\":9990:10004   */\n                      add\n                        /* \"#utility.yul\":9983:10036   */\n                      mstore\n                        /* \"#utility.yul\":9866:10043   */\n                      pop\n                      jump\t// out\n                        /* \"#utility.yul\":10049:10415   */\n                    tag_123:\n                        /* \"#utility.yul\":10191:10194   */\n                      0x00\n                        /* \"#utility.yul\":10212:10279   */\n                      tag_222\n                        /* \"#utility.yul\":10276:10278   */\n                      0x1b\n                        /* \"#utility.yul\":10271:10274   */\n                      dup4\n                        /* \"#utility.yul\":10212:10279   */\n                      tag_96\n                      jump\t// in\n                    tag_222:\n                        /* \"#utility.yul\":10205:10279   */\n                      swap2\n                      pop\n                        /* \"#utility.yul\":10288:10381   */\n                      tag_223\n                        /* \"#utility.yul\":10377:10380   */\n                      dup3\n                        /* \"#utility.yul\":10288:10381   */\n                      tag_122\n                      jump\t// in\n                    tag_223:\n                        /* \"#utility.yul\":10406:10408   */\n                      0x20\n                        /* \"#utility.yul\":10401:10404   */\n                      dup3\n                        /* \"#utility.yul\":10397:10409   */\n                      add\n                        /* \"#utility.yul\":10390:10409   */\n                      swap1\n                      pop\n                        /* \"#utility.yul\":10049:10415   */\n                      swap2\n                      swap1\n                      pop\n                      jump\t// out\n                        /* \"#utility.yul\":10421:10840   */\n                    tag_91:\n                        /* \"#utility.yul\":10587:10591   */\n                      0x00\n                        /* \"#utility.yul\":10625:10627   */\n                      0x20\n                        /* \"#utility.yul\":10614:10623   */\n                      dup3\n                        /* \"#utility.yul\":10610:10628   */\n                      add\n                        /* \"#utility.yul\":10602:10628   */\n                      swap1\n                      pop\n                        /* \"#utility.yul\":10674:10683   */\n                      dup2\n                        /* \"#utility.yul\":10668:10672   */\n                      dup2\n                        /* \"#utility.yul\":10664:10684   */\n                      sub\n                        /* \"#utility.yul\":10660:10661   */\n                      0x00\n                        /* \"#utility.yul\":10649:10658   */\n                      dup4\n                        /* \"#utility.yul\":10645:10662   */\n                      add\n                        /* \"#utility.yul\":10638:10685   */\n                      mstore\n                        /* \"#utility.yul\":10702:10833   */\n                      tag_225\n                        /* \"#utility.yul\":10828:10832   */\n                      dup2\n                        /* \"#utility.yul\":10702:10833   */\n                      tag_123\n                      jump\t// in\n                    tag_225:\n                        /* \"#utility.yul\":10694:10833   */\n                      swap1\n                      pop\n                        /* \"#utility.yul\":10421:10840   */\n                      swap2\n                      swap1\n                      pop\n                      jump\t// out\n\n                    auxdata: 0xa26469706673582212209268bed497f02932b928b84f01bea898d35144500be97452109a81d46ab8415564736f6c63430008090033\n                }\n            }\n\n            auxdata: 0xa264697066735822122060c036dc6d0747eda3374571cd643b7871891d86e7a2e61a8037c8c96de1ae2364736f6c63430008090033\n        }\n    }\n\n    auxdata: 0xa2646970667358221220427b0de5e100cf2c3565e739ee2f2cf333d81e44663e014cdb95f5375fe5c51f64736f6c63430008090033\n}\n","bytecode":{"linkReferences":{},"object":"608060405234801561001057600080fd5b506156bd806100206000396000f3fe60806040523480156200001157600080fd5b5060043610620000465760003560e01c806318351ea7146200004b5780632ff2bdd51462000081578063f4b955f314620000a3575b600080fd5b6200006960048036038101906200006391906200029c565b620000c3565b60405162000078919062000313565b60405180910390f35b6200008b62000103565b6040516200009a9190620003fe565b60405180910390f35b620000c16004803603810190620000bb919062000584565b62000193565b005b60008181548110620000d457600080fd5b906000526020600020016000915054906101000a900473ffffffffffffffffffffffffffffffffffffffff1681565b606060008054806020026020016040519081016040528092919081815260200182805480156200018957602002820191906000526020600020905b8160009054906101000a900473ffffffffffffffffffffffffffffffffffffffff1673ffffffffffffffffffffffffffffffffffffffff16815260200190600101908083116200013e575b5050505050905090565b600033848484604051620001a7906200023f565b620001b69493929190620006d0565b604051809103906000f080158015620001d3573d6000803e3d6000fd5b5090506000819080600181540180825580915050600190039060005260206000200160009091909190916101000a81548173ffffffffffffffffffffffffffffffffffffffff021916908373ffffffffffffffffffffffffffffffffffffffff16021790555050505050565b614f55806200073383390190565b6000604051905090565b600080fd5b600080fd5b6000819050919050565b620002768162000261565b81146200028257600080fd5b50565b60008135905062000296816200026b565b92915050565b600060208284031215620002b557620002b462000257565b5b6000620002c58482850162000285565b91505092915050565b600073ffffffffffffffffffffffffffffffffffffffff82169050919050565b6000620002fb82620002ce565b9050919050565b6200030d81620002ee565b82525050565b60006020820190506200032a600083018462000302565b92915050565b600081519050919050565b600082825260208201905092915050565b6000819050602082019050919050565b6200036781620002ee565b82525050565b60006200037b83836200035c565b60208301905092915050565b6000602082019050919050565b6000620003a18262000330565b620003ad81856200033b565b9350620003ba836200034c565b8060005b83811015620003f1578151620003d588826200036d565b9750620003e28362000387565b925050600181019050620003be565b5085935050505092915050565b600060208201905081810360008301526200041a818462000394565b905092915050565b600080fd5b600080fd5b6000601f19601f8301169050919050565b7f4e487b7100000000000000000000000000000000000000000000000000000000600052604160045260246000fd5b62000477826200042c565b810181811067ffffffffffffffff821117156200049957620004986200043d565b5b80604052505050565b6000620004ae6200024d565b9050620004bc82826200046c565b919050565b600067ffffffffffffffff821115620004df57620004de6200043d565b5b620004ea826200042c565b9050602081019050919050565b82818337600083830152505050565b60006200051d6200051784620004c1565b620004a2565b9050828152602081018484840111156200053c576200053b62000427565b5b62000549848285620004f7565b509392505050565b600082601f83011262000569576200056862000422565b5b81356200057b84826020860162000506565b91505092915050565b600080600060608486031215620005a0576200059f62000257565b5b600084013567ffffffffffffffff811115620005c157620005c06200025c565b5b620005cf8682870162000551565b935050602084013567ffffffffffffffff811115620005f357620005f26200025c565b5b620006018682870162000551565b925050604084013567ffffffffffffffff8111156200062557620006246200025c565b5b620006338682870162000551565b9150509250925092565b600081519050919050565b600082825260208201905092915050565b60005b83811015620006795780820151818401526020810190506200065c565b8381111562000689576000848401525b50505050565b60006200069c826200063d565b620006a8818562000648565b9350620006ba81856020860162000659565b620006c5816200042c565b840191505092915050565b6000608082019050620006e7600083018762000302565b8181036020830152620006fb81866200068f565b905081810360408301526200071181856200068f565b905081810360608301526200072781846200068f565b90509594505050505056fe60806040523480156200001157600080fd5b5060405162004f5538038062004f55833981810160405281019062000037919062000454565b836000806101000a81548173ffffffffffffffffffffffffffffffffffffffff021916908373ffffffffffffffffffffffffffffffffffffffff1602179055506001600460008673ffffffffffffffffffffffffffffffffffffffff1673ffffffffffffffffffffffffffffffffffffffff16815260200190815260200160002060006101000a81548160ff0219169083151502179055506005849080600181540180825580915050600190039060005260206000200160009091909190916101000a81548173ffffffffffffffffffffffffffffffffffffffff021916908373ffffffffffffffffffffffffffffffffffffffff16021790555082600190805190602001906200014a929190620001a2565b50816002908051906020019062000163929190620001a2565b5080600390805190602001906200017c929190620001a2565b506000600b60006101000a81548160ff0219169083151502179055505050505062000588565b828054620001b09062000552565b90600052602060002090601f016020900481019282620001d4576000855562000220565b82601f10620001ef57805160ff191683800117855562000220565b8280016001018555821562000220579182015b828111156200021f57825182559160200191906001019062000202565b5b5090506200022f919062000233565b5090565b5b808211156200024e57600081600090555060010162000234565b5090565b6000604051905090565b600080fd5b600080fd5b600073ffffffffffffffffffffffffffffffffffffffff82169050919050565b6000620002938262000266565b9050919050565b620002a58162000286565b8114620002b157600080fd5b50565b600081519050620002c5816200029a565b92915050565b600080fd5b600080fd5b6000601f19601f8301169050919050565b7f4e487b7100000000000000000000000000000000000000000000000000000000600052604160045260246000fd5b6200032082620002d5565b810181811067ffffffffffffffff82111715620003425762000341620002e6565b5b80604052505050565b60006200035762000252565b905062000365828262000315565b919050565b600067ffffffffffffffff821115620003885762000387620002e6565b5b6200039382620002d5565b9050602081019050919050565b60005b83811015620003c0578082015181840152602081019050620003a3565b83811115620003d0576000848401525b50505050565b6000620003ed620003e7846200036a565b6200034b565b9050828152602081018484840111156200040c576200040b620002d0565b5b62000419848285620003a0565b509392505050565b600082601f830112620004395762000438620002cb565b5b81516200044b848260208601620003d6565b91505092915050565b600080600080608085870312156200047157620004706200025c565b5b60006200048187828801620002b4565b945050602085015167ffffffffffffffff811115620004a557620004a462000261565b5b620004b38782880162000421565b935050604085015167ffffffffffffffff811115620004d757620004d662000261565b5b620004e58782880162000421565b925050606085015167ffffffffffffffff81111562000509576200050862000261565b5b620005178782880162000421565b91505092959194509250565b7f4e487b7100000000000000000000000000000000000000000000000000000000600052602260045260246000fd5b600060028204905060018216806200056b57607f821691505b6020821081141562000582576200058162000523565b5b50919050565b6149bd80620005986000396000f3fe608060405260043610620001165760003560e01c80637f51aaf911620000a3578063b5202522116200006d578063b52025221462000389578063cfb6580414620003cd578063d7bb99ba14620003fb578063dfa14e231462000407578063ed5447f514620004355762000116565b80637f51aaf914620002a357806398b7962814620002e75780639c636a0f14620003155780639d3ed80714620003455762000116565b80634051ddac11620000e55780634051ddac14620001c15780635cf298fb14620001fb5780635d1a870a146200022b5780636fc6c579146200025b5762000116565b80632606a10b146200011b5780632922440614620001355780633b6246c214620001635780633e5690f4146200017d575b600080fd5b3480156200012857600080fd5b50620001336200047f565b005b3480156200014257600080fd5b506200016160048036038101906200015b9190620022b9565b62000686565b005b3480156200017057600080fd5b506200017b62000c78565b005b3480156200018a57600080fd5b50620001a96004803603810190620001a3919062002350565b62000e20565b604051620001b891906200239f565b60405180910390f35b348015620001ce57600080fd5b50620001d962000e40565b604051620001f29b9a9998979695949392919062002550565b60405180910390f35b3480156200020857600080fd5b506200021362001191565b6040516200022291906200239f565b60405180910390f35b3480156200023857600080fd5b5062000243620011e5565b6040516200025291906200239f565b60405180910390f35b3480156200026857600080fd5b50620002876004803603810190620002819190620022b9565b620011f8565b6040516200029a95949392919062002634565b60405180910390f35b348015620002b057600080fd5b50620002cf6004803603810190620002c9919062002350565b620012fc565b604051620002de91906200239f565b60405180910390f35b348015620002f457600080fd5b506200031360048036038101906200030d9190620022b9565b6200131c565b005b3480156200032257600080fd5b506200032d620016c4565b6040516200033c919062002698565b60405180910390f35b3480156200035257600080fd5b506200037160048036038101906200036b9190620022b9565b62001754565b604051620003809190620026bc565b60405180910390f35b3480156200039657600080fd5b50620003b56004803603810190620003af9190620022b9565b62001794565b604051620003c49190620026bc565b60405180910390f35b348015620003da57600080fd5b50620003f96004803603810190620003f391906200282a565b620017d4565b005b6200040562001bb1565b005b3480156200041457600080fd5b506200043360048036038101906200042d9190620028a5565b62001c83565b005b3480156200044257600080fd5b506200046160048036038101906200045b9190620022b9565b62001e1c565b604051620004769796959493929190620028f6565b60405180910390f35b600860009054906101000a900460ff1615620004d2576040517f08c379a0000000000000000000000000000000000000000000000000000000008152600401620004c990620029ca565b60405180910390fd5b6001600860006101000a81548160ff021916908315150217905550600b60009054906101000a900460ff161562000540576040517f08c379a0000000000000000000000000000000000000000000000000000000008152600401620005379062002a3c565b60405180910390fd5b600960003373ffffffffffffffffffffffffffffffffffffffff1673ffffffffffffffffffffffffffffffffffffffff16815260200190815260200160002060009054906101000a900460ff1615620005d0576040517f08c379a0000000000000000000000000000000000000000000000000000000008152600401620005c79062002ad4565b60405180910390fd5b620005e86001600a5462001f6c90919063ffffffff16565b506001600960003373ffffffffffffffffffffffffffffffffffffffff1673ffffffffffffffffffffffffffffffffffffffff16815260200190815260200160002060006101000a81548160ff0219169083151502179055506064600a54111562000669576001600b60006101000a81548160ff0219169083151502179055505b6000600860006101000a81548160ff021916908315150217905550565b600860009054906101000a900460ff1615620006d9576040517f08c379a0000000000000000000000000000000000000000000000000000000008152600401620006d090620029ca565b60405180910390fd5b6001600860006101000a81548160ff021916908315150217905550600b60009054906101000a900460ff161562000747576040517f08c379a00000000000000000000000000000000000000000000000000000000081526004016200073e9062002a3c565b60405180910390fd5b600460003373ffffffffffffffffffffffffffffffffffffffff1673ffffffffffffffffffffffffffffffffffffffff16815260200190815260200160002060009054906101000a900460ff16620007d6576040517f08c379a0000000000000000000000000000000000000000000000000000000008152600401620007cd9062002b6c565b60405180910390fd5b600d8054905081108015620007ec575060008110155b6200082e576040517f08c379a0000000000000000000000000000000000000000000000000000000008152600401620008259062002bde565b60405180910390fd5b6000600d828154811062000847576200084662002c00565b5b9060005260206000209060080201905060018160050160003373ffffffffffffffffffffffffffffffffffffffff1673ffffffffffffffffffffffffffffffffffffffff16815260200190815260200160002060006101000a81548160ff021916908315150217905550620008cb6001826006015462001f6c90919063ffffffff16565b81600601819055506005805490508160060154141562000c595760018160070160006101000a81548160ff02191690831515021790555060008160020160009054906101000a900473ffffffffffffffffffffffffffffffffffffffff1630836000018460030160009054906101000a900473ffffffffffffffffffffffffffffffffffffffff168560040160009054906101000a900473ffffffffffffffffffffffffffffffffffffffff166040516200098690620021ac565b6200099695949392919062002d35565b604051809103906000f080158015620009b3573d6000803e3d6000fd5b509050600073ffffffffffffffffffffffffffffffffffffffff168260030160009054906101000a900473ffffffffffffffffffffffffffffffffffffffff1673ffffffffffffffffffffffffffffffffffffffff161462000aa95760008260030160009054906101000a900473ffffffffffffffffffffffffffffffffffffffff1690508073ffffffffffffffffffffffffffffffffffffffff1663988e46c8836040518263ffffffff1660e01b815260040162000a739190620026bc565b600060405180830381600087803b15801562000a8e57600080fd5b505af115801562000aa3573d6000803e3d6000fd5b50505050505b600073ffffffffffffffffffffffffffffffffffffffff168260040160009054906101000a900473ffffffffffffffffffffffffffffffffffffffff1673ffffffffffffffffffffffffffffffffffffffff161462000b9c5760008260040160009054906101000a900473ffffffffffffffffffffffffffffffffffffffff1690508073ffffffffffffffffffffffffffffffffffffffff16638758ce83836040518263ffffffff1660e01b815260040162000b669190620026bc565b600060405180830381600087803b15801562000b8157600080fd5b505af115801562000b96573d6000803e3d6000fd5b50505050505b6007819080600181540180825580915050600190039060005260206000200160009091909190916101000a81548173ffffffffffffffffffffffffffffffffffffffff021916908373ffffffffffffffffffffffffffffffffffffffff1602179055506001600660008373ffffffffffffffffffffffffffffffffffffffff1673ffffffffffffffffffffffffffffffffffffffff16815260200190815260200160002060006101000a81548160ff021916908315150217905550505b506000600860006101000a81548160ff02191690831515021790555050565b600460003373ffffffffffffffffffffffffffffffffffffffff1673ffffffffffffffffffffffffffffffffffffffff16815260200190815260200160002060009054906101000a900460ff1662000d07576040517f08c379a000000000000000000000000000000000000000000000000000000000815260040162000cfe9062002e0f565b60405180910390fd5b60006005805490509050600062000d28824762001fcf90919063ffffffff16565b90506000811162000d70576040517f08c379a000000000000000000000000000000000000000000000000000000000815260040162000d679062002e81565b60405180910390fd5b60005b8281101562000e1b576005818154811062000d935762000d9262002c00565b5b9060005260206000200160009054906101000a900473ffffffffffffffffffffffffffffffffffffffff1673ffffffffffffffffffffffffffffffffffffffff166108fc839081150290604051600060405180830381858888f1935050505015801562000e04573d6000803e3d6000fd5b50808062000e129062002ed2565b91505062000d73565b505050565b60046020528060005260406000206000915054906101000a900460ff1681565b6000606080606080606060008060008060008060009054906101000a900473ffffffffffffffffffffffffffffffffffffffff1660016002600360056007600c80549050600d80549050600a54600b60009054906101000a900460ff164789805462000eac9062002c5e565b80601f016020809104026020016040519081016040528092919081815260200182805462000eda9062002c5e565b801562000f2b5780601f1062000eff5761010080835404028352916020019162000f2b565b820191906000526020600020905b81548152906001019060200180831162000f0d57829003601f168201915b5050505050995088805462000f409062002c5e565b80601f016020809104026020016040519081016040528092919081815260200182805462000f6e9062002c5e565b801562000fbf5780601f1062000f935761010080835404028352916020019162000fbf565b820191906000526020600020905b81548152906001019060200180831162000fa157829003601f168201915b5050505050985087805462000fd49062002c5e565b80601f0160208091040260200160405190810160405280929190818152602001828054620010029062002c5e565b8015620010535780601f10620010275761010080835404028352916020019162001053565b820191906000526020600020905b8154815290600101906020018083116200103557829003601f168201915b5050505050975086805480602002602001604051908101604052809291908181526020018280548015620010dd57602002820191906000526020600020905b8160009054906101000a900473ffffffffffffffffffffffffffffffffffffffff1673ffffffffffffffffffffffffffffffffffffffff168152602001906001019080831162001092575b50505050509650858054806020026020016040519081016040528092919081815260200182805480156200116757602002820191906000526020600020905b8160009054906101000a900473ffffffffffffffffffffffffffffffffffffffff1673ffffffffffffffffffffffffffffffffffffffff16815260200190600101908083116200111c575b505050505095509a509a509a509a509a509a509a509a509a509a509a50909192939495969798999a565b6000600460003373ffffffffffffffffffffffffffffffffffffffff1673ffffffffffffffffffffffffffffffffffffffff16815260200190815260200160002060009054906101000a900460ff16905090565b600b60009054906101000a900460ff1681565b600c81815481106200120957600080fd5b90600052602060002090600602016000915090508060000180546200122e9062002c5e565b80601f01602080910402602001604051908101604052809291908181526020018280546200125c9062002c5e565b8015620012ad5780601f106200128157610100808354040283529160200191620012ad565b820191906000526020600020905b8154815290600101906020018083116200128f57829003601f168201915b5050505050908060010154908060020160009054906101000a900473ffffffffffffffffffffffffffffffffffffffff16908060040154908060050160009054906101000a900460ff16905085565b60066020528060005260406000206000915054906101000a900460ff1681565b600b60009054906101000a900460ff16156200136f576040517f08c379a0000000000000000000000000000000000000000000000000000000008152600401620013669062002a3c565b60405180910390fd5b600460003373ffffffffffffffffffffffffffffffffffffffff1673ffffffffffffffffffffffffffffffffffffffff16815260200190815260200160002060009054906101000a900460ff16620013fe576040517f08c379a0000000000000000000000000000000000000000000000000000000008152600401620013f59062002b6c565b60405180910390fd5b600c805490508110801562001414575060008110155b62001456576040517f08c379a00000000000000000000000000000000000000000000000000000000081526004016200144d9062002bde565b60405180910390fd5b6000600c82815481106200146f576200146e62002c00565b5b906000526020600020906006020190508060030160003373ffffffffffffffffffffffffffffffffffffffff1673ffffffffffffffffffffffffffffffffffffffff16815260200190815260200160002060009054906101000a900460ff161562001511576040517f08c379a0000000000000000000000000000000000000000000000000000000008152600401620015089062002f96565b60405180910390fd5b60018160030160003373ffffffffffffffffffffffffffffffffffffffff1673ffffffffffffffffffffffffffffffffffffffff16815260200190815260200160002060006101000a81548160ff021916908315150217905550620015856001826004015462001f6c90919063ffffffff16565b816004018190555060058054905081600401541415620016c05760018160050160006101000a81548160ff0219169083151502179055506001600460008360020160009054906101000a900473ffffffffffffffffffffffffffffffffffffffff1673ffffffffffffffffffffffffffffffffffffffff1673ffffffffffffffffffffffffffffffffffffffff16815260200190815260200160002060006101000a81548160ff02191690831515021790555060058160020160009054906101000a900473ffffffffffffffffffffffffffffffffffffffff169080600181540180825580915050600190039060005260206000200160009091909190916101000a81548173ffffffffffffffffffffffffffffffffffffffff021916908373ffffffffffffffffffffffffffffffffffffffff1602179055505b5050565b606060078054806020026020016040519081016040528092919081815260200182805480156200174a57602002820191906000526020600020905b8160009054906101000a900473ffffffffffffffffffffffffffffffffffffffff1673ffffffffffffffffffffffffffffffffffffffff1681526020019060010190808311620016ff575b5050505050905090565b600581815481106200176557600080fd5b906000526020600020016000915054906101000a900473ffffffffffffffffffffffffffffffffffffffff1681565b60078181548110620017a557600080fd5b906000526020600020016000915054906101000a900473ffffffffffffffffffffffffffffffffffffffff1681565b600860009054906101000a900460ff161562001827576040517f08c379a00000000000000000000000000000000000000000000000000000000081526004016200181e90620029ca565b60405180910390fd5b6001600860006101000a81548160ff021916908315150217905550600b60009054906101000a900460ff161562001895576040517f08c379a00000000000000000000000000000000000000000000000000000000081526004016200188c9062002a3c565b60405180910390fd5b600460003373ffffffffffffffffffffffffffffffffffffffff1673ffffffffffffffffffffffffffffffffffffffff16815260200190815260200160002060009054906101000a900460ff1662001924576040517f08c379a00000000000000000000000000000000000000000000000000000000081526004016200191b906200302e565b60405180910390fd5b6200192f826200202c565b62001971576040517f08c379a00000000000000000000000000000000000000000000000000000000081526004016200196890620030c6565b60405180910390fd5b6200197c816200202c565b620019be576040517f08c379a0000000000000000000000000000000000000000000000000000000008152600401620019b59062003138565b60405180910390fd5b620019c98262002080565b62001a0b576040517f08c379a000000000000000000000000000000000000000000000000000000000815260040162001a0290620031d0565b60405180910390fd5b62001a168162002116565b62001a58576040517f08c379a000000000000000000000000000000000000000000000000000000000815260040162001a4f9062003268565b60405180910390fd5b6000600d60018160018154018082558091505003906000526020600020906008020190508381600001908051906020019062001a96929190620021ba565b50428160010181905550338160020160006101000a81548173ffffffffffffffffffffffffffffffffffffffff021916908373ffffffffffffffffffffffffffffffffffffffff160217905550828160030160006101000a81548173ffffffffffffffffffffffffffffffffffffffff021916908373ffffffffffffffffffffffffffffffffffffffff160217905550818160040160006101000a81548173ffffffffffffffffffffffffffffffffffffffff021916908373ffffffffffffffffffffffffffffffffffffffff1602179055506000816006018190555060008160070160006101000a81548160ff021916908315150217905550506000600860006101000a81548160ff021916908315150217905550505050565b600860009054906101000a900460ff161562001c04576040517f08c379a000000000000000000000000000000000000000000000000000000000815260040162001bfb90620029ca565b60405180910390fd5b6001600860006101000a81548160ff021916908315150217905550606434101562001c66576040517f08c379a000000000000000000000000000000000000000000000000000000000815260040162001c5d90620032da565b60405180910390fd5b6000600860006101000a81548160ff021916908315150217905550565b600b60009054906101000a900460ff161562001cd6576040517f08c379a000000000000000000000000000000000000000000000000000000000815260040162001ccd9062002a3c565b60405180910390fd5b600460003373ffffffffffffffffffffffffffffffffffffffff1673ffffffffffffffffffffffffffffffffffffffff16815260200190815260200160002060009054906101000a900460ff161562001d66576040517f08c379a000000000000000000000000000000000000000000000000000000000815260040162001d5d9062003372565b60405180910390fd5b6000600c60018160018154018082558091505003906000526020600020906006020190508181600001908051906020019062001da4929190620021ba565b50428160010181905550338160020160006101000a81548173ffffffffffffffffffffffffffffffffffffffff021916908373ffffffffffffffffffffffffffffffffffffffff1602179055506000816004018190555060008160050160006101000a81548160ff0219169083151502179055505050565b600d818154811062001e2d57600080fd5b906000526020600020906008020160009150905080600001805462001e529062002c5e565b80601f016020809104026020016040519081016040528092919081815260200182805462001e809062002c5e565b801562001ed15780601f1062001ea55761010080835404028352916020019162001ed1565b820191906000526020600020905b81548152906001019060200180831162001eb357829003601f168201915b5050505050908060010154908060020160009054906101000a900473ffffffffffffffffffffffffffffffffffffffff16908060030160009054906101000a900473ffffffffffffffffffffffffffffffffffffffff16908060040160009054906101000a900473ffffffffffffffffffffffffffffffffffffffff16908060060154908060070160009054906101000a900460ff16905087565b600080828462001f7d919062003394565b90508381101562001fc5576040517f08c379a000000000000000000000000000000000000000000000000000000000815260040162001fbc9062003441565b60405180910390fd5b8091505092915050565b600080821162002016576040517f08c379a00000000000000000000000000000000000000000000000000000000081526004016200200d90620034b3565b60405180910390fd5b818362002024919062003504565b905092915050565b60008073ffffffffffffffffffffffffffffffffffffffff168273ffffffffffffffffffffffffffffffffffffffff1614156200206d57600190506200207b565b6000823b9050600081119150505b919050565b60008073ffffffffffffffffffffffffffffffffffffffff168273ffffffffffffffffffffffffffffffffffffffff161415620020c1576001905062002111565b600660008373ffffffffffffffffffffffffffffffffffffffff1673ffffffffffffffffffffffffffffffffffffffff16815260200190815260200160002060009054906101000a900460ff1690505b919050565b60008073ffffffffffffffffffffffffffffffffffffffff168273ffffffffffffffffffffffffffffffffffffffff161415620021575760019050620021a7565b600660008373ffffffffffffffffffffffffffffffffffffffff1673ffffffffffffffffffffffffffffffffffffffff16815260200190815260200160002060009054906101000a900460ff1690505b919050565b61144b806200353d83390190565b828054620021c89062002c5e565b90600052602060002090601f016020900481019282620021ec576000855562002238565b82601f106200220757805160ff191683800117855562002238565b8280016001018555821562002238579182015b82811115620022375782518255916020019190600101906200221a565b5b5090506200224791906200224b565b5090565b5b80821115620022665760008160009055506001016200224c565b5090565b6000604051905090565b600080fd5b600080fd5b6000819050919050565b62002293816200227e565b81146200229f57600080fd5b50565b600081359050620022b38162002288565b92915050565b600060208284031215620022d257620022d162002274565b5b6000620022e284828501620022a2565b91505092915050565b600073ffffffffffffffffffffffffffffffffffffffff82169050919050565b60006200231882620022eb565b9050919050565b6200232a816200230b565b81146200233657600080fd5b50565b6000813590506200234a816200231f565b92915050565b60006020828403121562002369576200236862002274565b5b6000620023798482850162002339565b91505092915050565b60008115159050919050565b620023998162002382565b82525050565b6000602082019050620023b660008301846200238e565b92915050565b620023c7816200230b565b82525050565b600081519050919050565b600082825260208201905092915050565b60005b8381101562002409578082015181840152602081019050620023ec565b8381111562002419576000848401525b50505050565b6000601f19601f8301169050919050565b60006200243d82620023cd565b620024498185620023d8565b93506200245b818560208601620023e9565b62002466816200241f565b840191505092915050565b600081519050919050565b600082825260208201905092915050565b6000819050602082019050919050565b620024a8816200230b565b82525050565b6000620024bc83836200249d565b60208301905092915050565b6000602082019050919050565b6000620024e28262002471565b620024ee81856200247c565b9350620024fb836200248d565b8060005b8381101562002532578151620025168882620024ae565b97506200252383620024c8565b925050600181019050620024ff565b5085935050505092915050565b6200254a816200227e565b82525050565b60006101608201905062002568600083018e620023bc565b81810360208301526200257c818d62002430565b9050818103604083015262002592818c62002430565b90508181036060830152620025a8818b62002430565b90508181036080830152620025be818a620024d5565b905081810360a0830152620025d48189620024d5565b9050620025e560c08301886200253f565b620025f460e08301876200253f565b620026046101008301866200253f565b620026146101208301856200238e565b620026246101408301846200253f565b9c9b505050505050505050505050565b600060a082019050818103600083015262002650818862002430565b90506200266160208301876200253f565b620026706040830186620023bc565b6200267f60608301856200253f565b6200268e60808301846200238e565b9695505050505050565b60006020820190508181036000830152620026b48184620024d5565b905092915050565b6000602082019050620026d36000830184620023bc565b92915050565b600080fd5b600080fd5b7f4e487b7100000000000000000000000000000000000000000000000000000000600052604160045260246000fd5b6200271d826200241f565b810181811067ffffffffffffffff821117156200273f576200273e620026e3565b5b80604052505050565b6000620027546200226a565b905062002762828262002712565b919050565b600067ffffffffffffffff821115620027855762002784620026e3565b5b62002790826200241f565b9050602081019050919050565b82818337600083830152505050565b6000620027c3620027bd8462002767565b62002748565b905082815260208101848484011115620027e257620027e1620026de565b5b620027ef8482856200279d565b509392505050565b600082601f8301126200280f576200280e620026d9565b5b813562002821848260208601620027ac565b91505092915050565b60008060006060848603121562002846576200284562002274565b5b600084013567ffffffffffffffff81111562002867576200286662002279565b5b6200287586828701620027f7565b9350506020620028888682870162002339565b92505060406200289b8682870162002339565b9150509250925092565b600060208284031215620028be57620028bd62002274565b5b600082013567ffffffffffffffff811115620028df57620028de62002279565b5b620028ed84828501620027f7565b91505092915050565b600060e082019050818103600083015262002912818a62002430565b90506200292360208301896200253f565b620029326040830188620023bc565b620029416060830187620023bc565b620029506080830186620023bc565b6200295f60a08301856200253f565b6200296e60c08301846200238e565b98975050505050505050565b7f5265656e7472616e742063616c6c000000000000000000000000000000000000600082015250565b6000620029b2600e83620023d8565b9150620029bf826200297a565b602082019050919050565b60006020820190508181036000830152620029e581620029a3565b9050919050565b7f546869732073746f727920686173206265656e207265706f7274656400000000600082015250565b600062002a24601c83620023d8565b915062002a3182620029ec565b602082019050919050565b6000602082019050818103600083015262002a578162002a15565b9050919050565b7f596f752068617665207265706f7274656420746869732073746f72792062656660008201527f6f72650000000000000000000000000000000000000000000000000000000000602082015250565b600062002abc602383620023d8565b915062002ac98262002a5e565b604082019050919050565b6000602082019050818103600083015262002aef8162002aad565b9050919050565b7f4f6e6c7920616e20616363657074656420617574686f722063616e206170707260008201527f6f76652061207265717565737400000000000000000000000000000000000000602082015250565b600062002b54602d83620023d8565b915062002b618262002af6565b604082019050919050565b6000602082019050818103600083015262002b878162002b45565b9050919050565b7f496e646578206f7574206f6620626f756e647300000000000000000000000000600082015250565b600062002bc6601383620023d8565b915062002bd38262002b8e565b602082019050919050565b6000602082019050818103600083015262002bf98162002bb7565b9050919050565b7f4e487b7100000000000000000000000000000000000000000000000000000000600052603260045260246000fd5b7f4e487b7100000000000000000000000000000000000000000000000000000000600052602260045260246000fd5b6000600282049050600182168062002c7757607f821691505b6020821081141562002c8e5762002c8d62002c2f565b5b50919050565b60008190508160005260206000209050919050565b6000815462002cb88162002c5e565b62002cc48186620023d8565b9450600182166000811462002ce2576001811462002cf55762002d2c565b60ff198316865260208601935062002d2c565b62002d008562002c94565b60005b8381101562002d245781548189015260018201915060208101905062002d03565b808801955050505b50505092915050565b600060a08201905062002d4c6000830188620023bc565b62002d5b6020830187620023bc565b818103604083015262002d6f818662002ca9565b905062002d806060830185620023bc565b62002d8f6080830184620023bc565b9695505050505050565b7f4f6e6c7920616e20617574686f72697a656420617574686f722063616e20646960008201527f7370656e73652072657761726473000000000000000000000000000000000000602082015250565b600062002df7602e83620023d8565b915062002e048262002d99565b604082019050919050565b6000602082019050818103600083015262002e2a8162002de8565b9050919050565b7f4e6f2072657761726420746f2064697370656e73650000000000000000000000600082015250565b600062002e69601583620023d8565b915062002e768262002e31565b602082019050919050565b6000602082019050818103600083015262002e9c8162002e5a565b9050919050565b7f4e487b7100000000000000000000000000000000000000000000000000000000600052601160045260246000fd5b600062002edf826200227e565b91507fffffffffffffffffffffffffffffffffffffffffffffffffffffffffffffffff82141562002f155762002f1462002ea3565b5b600182019050919050565b7f5468697320617574686f7220616c726561647920617070726f7665642062656660008201527f6f72650000000000000000000000000000000000000000000000000000000000602082015250565b600062002f7e602383620023d8565b915062002f8b8262002f20565b604082019050919050565b6000602082019050818103600083015262002fb18162002f6f565b9050919050565b7f4f6e6c7920616e20616363657074656420617574686f722063616e206174746560008201527f6d707420746f2061646420636861707465720000000000000000000000000000602082015250565b600062003016603283620023d8565b9150620030238262002fb8565b604082019050919050565b60006020820190508181036000830152620030498162003007565b9050919050565b7f506172656e742063686170746572206d757374206265206120636f6e7472616360008201527f7400000000000000000000000000000000000000000000000000000000000000602082015250565b6000620030ae602183620023d8565b9150620030bb8262003050565b604082019050919050565b60006020820190508181036000830152620030e1816200309f565b9050919050565b7f4368696c642063686170746572206d757374206265206120636f6e7472616374600082015250565b600062003120602083620023d8565b91506200312d82620030e8565b602082019050919050565b60006020820190508181036000830152620031538162003111565b9050919050565b7f506172656e742063686170746572206d7573742062656c6f6e6720746f20746860008201527f652073616d652073746f72790000000000000000000000000000000000000000602082015250565b6000620031b8602c83620023d8565b9150620031c5826200315a565b604082019050919050565b60006020820190508181036000830152620031eb81620031a9565b9050919050565b7f4368696c642063686170746572206d7573742062656c6f6e6720746f2074686560008201527f2073616d652073746f7279000000000000000000000000000000000000000000602082015250565b600062003250602b83620023d8565b91506200325d82620031f2565b604082019050919050565b60006020820190508181036000830152620032838162003241565b9050919050565b7f4d696e696d756d20636f6e747269627574696f6e206973203130302057656900600082015250565b6000620032c2601f83620023d8565b9150620032cf826200328a565b602082019050919050565b60006020820190508181036000830152620032f581620032b3565b9050919050565b7f417574686f7220616c72656164792065786973747320696e20746865206c697360008201527f74206f6620617574686f72730000000000000000000000000000000000000000602082015250565b60006200335a602c83620023d8565b91506200336782620032fc565b604082019050919050565b600060208201905081810360008301526200338d816200334b565b9050919050565b6000620033a1826200227e565b9150620033ae836200227e565b9250827fffffffffffffffffffffffffffffffffffffffffffffffffffffffffffffffff03821115620033e657620033e562002ea3565b5b828201905092915050565b7f536166654d6174683a206164646974696f6e206f766572666c6f770000000000600082015250565b600062003429601b83620023d8565b91506200343682620033f1565b602082019050919050565b600060208201905081810360008301526200345c816200341a565b9050919050565b7f536166654d6174683a206469766973696f6e206279207a65726f000000000000600082015250565b60006200349b601a83620023d8565b9150620034a88262003463565b602082019050919050565b60006020820190508181036000830152620034ce816200348c565b9050919050565b7f4e487b7100000000000000000000000000000000000000000000000000000000600052601260045260246000fd5b600062003511826200227e565b91506200351e836200227e565b925082620035315762003530620034d5565b5b82820490509291505056fe60806040523480156200001157600080fd5b506040516200144b3803806200144b8339818101604052810190620000379190620004c0565b84600160006101000a81548173ffffffffffffffffffffffffffffffffffffffff021916908373ffffffffffffffffffffffffffffffffffffffff160217905550836000806101000a81548173ffffffffffffffffffffffffffffffffffffffff021916908373ffffffffffffffffffffffffffffffffffffffff1602179055508260029080519060200190620000d09291906200020e565b50600073ffffffffffffffffffffffffffffffffffffffff168273ffffffffffffffffffffffffffffffffffffffff16146200016a576003829080600181540180825580915050600190039060005260206000200160009091909190916101000a81548173ffffffffffffffffffffffffffffffffffffffff021916908373ffffffffffffffffffffffffffffffffffffffff1602179055505b600073ffffffffffffffffffffffffffffffffffffffff168173ffffffffffffffffffffffffffffffffffffffff161462000203576004819080600181540180825580915050600190039060005260206000200160009091909190916101000a81548173ffffffffffffffffffffffffffffffffffffffff021916908373ffffffffffffffffffffffffffffffffffffffff1602179055505b5050505050620005cc565b8280546200021c9062000596565b90600052602060002090601f0160209004810192826200024057600085556200028c565b82601f106200025b57805160ff19168380011785556200028c565b828001600101855582156200028c579182015b828111156200028b5782518255916020019190600101906200026e565b5b5090506200029b91906200029f565b5090565b5b80821115620002ba576000816000905550600101620002a0565b5090565b6000604051905090565b600080fd5b600080fd5b600073ffffffffffffffffffffffffffffffffffffffff82169050919050565b6000620002ff82620002d2565b9050919050565b6200031181620002f2565b81146200031d57600080fd5b50565b600081519050620003318162000306565b92915050565b600080fd5b600080fd5b6000601f19601f8301169050919050565b7f4e487b7100000000000000000000000000000000000000000000000000000000600052604160045260246000fd5b6200038c8262000341565b810181811067ffffffffffffffff82111715620003ae57620003ad62000352565b5b80604052505050565b6000620003c3620002be565b9050620003d1828262000381565b919050565b600067ffffffffffffffff821115620003f457620003f362000352565b5b620003ff8262000341565b9050602081019050919050565b60005b838110156200042c5780820151818401526020810190506200040f565b838111156200043c576000848401525b50505050565b6000620004596200045384620003d6565b620003b7565b9050828152602081018484840111156200047857620004776200033c565b5b620004858482856200040c565b509392505050565b600082601f830112620004a557620004a462000337565b5b8151620004b784826020860162000442565b91505092915050565b600080600080600060a08688031215620004df57620004de620002c8565b5b6000620004ef8882890162000320565b9550506020620005028882890162000320565b945050604086015167ffffffffffffffff811115620005265762000525620002cd565b5b62000534888289016200048d565b9350506060620005478882890162000320565b92505060806200055a8882890162000320565b9150509295509295909350565b7f4e487b7100000000000000000000000000000000000000000000000000000000600052602260045260246000fd5b60006002820490506001821680620005af57607f821691505b60208210811415620005c657620005c562000567565b5b50919050565b610e6f80620005dc6000396000f3fe608060405234801561001057600080fd5b506004361061009e5760003560e01c8063a6c3e6b911610066578063a6c3e6b914610126578063c5fe6ffc14610144578063c623674f14610174578063e5a0af3d14610192578063ed777791146101b05761009e565b80634051ddac146100a357806346c922d1146100c65780638758ce83146100e4578063988e46c814610100578063a523b88a1461011c575b600080fd5b6100ab6101e0565b6040516100bd96959493929190610a3e565b60405180910390f35b6100ce6103e8565b6040516100db9190610ab4565b60405180910390f35b6100fe60048036038101906100f99190610b00565b61040c565b005b61011a60048036038101906101159190610b00565b610500565b005b6101246105f4565b005b61012e6106f7565b60405161013b9190610ab4565b60405180910390f35b61015e60048036038101906101599190610b59565b61071d565b60405161016b9190610ab4565b60405180910390f35b61017c61075c565b6040516101899190610b86565b60405180910390f35b61019a6107ea565b6040516101a79190610ba8565b60405180910390f35b6101ca60048036038101906101c59190610b59565b6107f0565b6040516101d79190610ab4565b60405180910390f35b600080606080606060008060009054906101000a900473ffffffffffffffffffffffffffffffffffffffff16600160009054906101000a900473ffffffffffffffffffffffffffffffffffffffff1660026003600460065483805461024490610bf2565b80601f016020809104026020016040519081016040528092919081815260200182805461027090610bf2565b80156102bd5780601f10610292576101008083540402835291602001916102bd565b820191906000526020600020905b8154815290600101906020018083116102a057829003601f168201915b505050505093508280548060200260200160405190810160405280929190818152602001828054801561034557602002820191906000526020600020905b8160009054906101000a900473ffffffffffffffffffffffffffffffffffffffff1673ffffffffffffffffffffffffffffffffffffffff16815260200190600101908083116102fb575b50505050509250818054806020026020016040519081016040528092919081815260200182805480156103cd57602002820191906000526020600020905b8160009054906101000a900473ffffffffffffffffffffffffffffffffffffffff1673ffffffffffffffffffffffffffffffffffffffff1681526020019060010190808311610383575b50505050509150955095509550955095509550909192939495565b60008054906101000a900473ffffffffffffffffffffffffffffffffffffffff1681565b60008054906101000a900473ffffffffffffffffffffffffffffffffffffffff1673ffffffffffffffffffffffffffffffffffffffff163373ffffffffffffffffffffffffffffffffffffffff161461049a576040517f08c379a000000000000000000000000000000000000000000000000000000000815260040161049190610cbc565b60405180910390fd5b6003819080600181540180825580915050600190039060005260206000200160009091909190916101000a81548173ffffffffffffffffffffffffffffffffffffffff021916908373ffffffffffffffffffffffffffffffffffffffff16021790555050565b60008054906101000a900473ffffffffffffffffffffffffffffffffffffffff1673ffffffffffffffffffffffffffffffffffffffff163373ffffffffffffffffffffffffffffffffffffffff161461058e576040517f08c379a000000000000000000000000000000000000000000000000000000000815260040161058590610cbc565b60405180910390fd5b6004819080600181540180825580915050600190039060005260206000200160009091909190916101000a81548173ffffffffffffffffffffffffffffffffffffffff021916908373ffffffffffffffffffffffffffffffffffffffff16021790555050565b600560003373ffffffffffffffffffffffffffffffffffffffff1673ffffffffffffffffffffffffffffffffffffffff16815260200190815260200160002060009054906101000a900460ff1615610681576040517f08c379a000000000000000000000000000000000000000000000000000000000815260040161067890610d28565b60405180910390fd5b6001600560003373ffffffffffffffffffffffffffffffffffffffff1673ffffffffffffffffffffffffffffffffffffffff16815260200190815260200160002060006101000a81548160ff0219169083151502179055506106ef600160065461082f90919063ffffffff16565b600681905550565b600160009054906101000a900473ffffffffffffffffffffffffffffffffffffffff1681565b6004818154811061072d57600080fd5b906000526020600020016000915054906101000a900473ffffffffffffffffffffffffffffffffffffffff1681565b6002805461076990610bf2565b80601f016020809104026020016040519081016040528092919081815260200182805461079590610bf2565b80156107e25780601f106107b7576101008083540402835291602001916107e2565b820191906000526020600020905b8154815290600101906020018083116107c557829003601f168201915b505050505081565b60065481565b6003818154811061080057600080fd5b906000526020600020016000915054906101000a900473ffffffffffffffffffffffffffffffffffffffff1681565b600080828461083e9190610d77565b905083811015610883576040517f08c379a000000000000000000000000000000000000000000000000000000000815260040161087a90610e19565b60405180910390fd5b8091505092915050565b600073ffffffffffffffffffffffffffffffffffffffff82169050919050565b60006108b88261088d565b9050919050565b6108c8816108ad565b82525050565b600081519050919050565b600082825260208201905092915050565b60005b838110156109085780820151818401526020810190506108ed565b83811115610917576000848401525b50505050565b6000601f19601f8301169050919050565b6000610939826108ce565b61094381856108d9565b93506109538185602086016108ea565b61095c8161091d565b840191505092915050565b600081519050919050565b600082825260208201905092915050565b6000819050602082019050919050565b61099c816108ad565b82525050565b60006109ae8383610993565b60208301905092915050565b6000602082019050919050565b60006109d282610967565b6109dc8185610972565b93506109e783610983565b8060005b83811015610a185781516109ff88826109a2565b9750610a0a836109ba565b9250506001810190506109eb565b5085935050505092915050565b6000819050919050565b610a3881610a25565b82525050565b600060c082019050610a5360008301896108bf565b610a6060208301886108bf565b8181036040830152610a72818761092e565b90508181036060830152610a8681866109c7565b90508181036080830152610a9a81856109c7565b9050610aa960a0830184610a2f565b979650505050505050565b6000602082019050610ac960008301846108bf565b92915050565b600080fd5b610add816108ad565b8114610ae857600080fd5b50565b600081359050610afa81610ad4565b92915050565b600060208284031215610b1657610b15610acf565b5b6000610b2484828501610aeb565b91505092915050565b610b3681610a25565b8114610b4157600080fd5b50565b600081359050610b5381610b2d565b92915050565b600060208284031215610b6f57610b6e610acf565b5b6000610b7d84828501610b44565b91505092915050565b60006020820190508181036000830152610ba0818461092e565b905092915050565b6000602082019050610bbd6000830184610a2f565b92915050565b7f4e487b7100000000000000000000000000000000000000000000000000000000600052602260045260246000fd5b60006002820490506001821680610c0a57607f821691505b60208210811415610c1e57610c1d610bc3565b5b50919050565b7f546869732066756e6374696f6e2068617320746f2062652063616c6c6564206660008201527f726f6d207468652073746f727920636f6e747261637420627920616e2061636360208201527f657074656420617574686f72206f6e6c79000000000000000000000000000000604082015250565b6000610ca66051836108d9565b9150610cb182610c24565b606082019050919050565b60006020820190508181036000830152610cd581610c99565b9050919050565b7f596f75206c696b656420746869732073746f7279206265666f72650000000000600082015250565b6000610d12601b836108d9565b9150610d1d82610cdc565b602082019050919050565b60006020820190508181036000830152610d4181610d05565b9050919050565b7f4e487b7100000000000000000000000000000000000000000000000000000000600052601160045260246000fd5b6000610d8282610a25565b9150610d8d83610a25565b9250827fffffffffffffffffffffffffffffffffffffffffffffffffffffffffffffffff03821115610dc257610dc1610d48565b5b828201905092915050565b7f536166654d6174683a206164646974696f6e206f766572666c6f770000000000600082015250565b6000610e03601b836108d9565b9150610e0e82610dcd565b602082019050919050565b60006020820190508181036000830152610e3281610df6565b905091905056fea26469706673582212209268bed497f02932b928b84f01bea898d35144500be97452109a81d46ab8415564736f6c63430008090033a264697066735822122060c036dc6d0747eda3374571cd643b7871891d86e7a2e61a8037c8c96de1ae2364736f6c63430008090033a2646970667358221220427b0de5e100cf2c3565e739ee2f2cf333d81e44663e014cdb95f5375fe5c51f64736f6c63430008090033","opcodes":"PUSH1 0x80 PUSH1 0x40 MSTORE CALLVALUE DUP1 ISZERO PUSH2 0x10 JUMPI PUSH1 0x0 DUP1 REVERT JUMPDEST POP PUSH2 0x56BD DUP1 PUSH2 0x20 PUSH1 0x0 CODECOPY PUSH1 0x0 RETURN INVALID PUSH1 0x80 PUSH1 0x40 MSTORE CALLVALUE DUP1 ISZERO PUSH3 0x11 JUMPI PUSH1 0x0 DUP1 REVERT JUMPDEST POP PUSH1 0x4 CALLDATASIZE LT PUSH3 0x46 JUMPI PUSH1 0x0 CALLDATALOAD PUSH1 0xE0 SHR DUP1 PUSH4 0x18351EA7 EQ PUSH3 0x4B JUMPI DUP1 PUSH4 0x2FF2BDD5 EQ PUSH3 0x81 JUMPI DUP1 PUSH4 0xF4B955F3 EQ PUSH3 0xA3 JUMPI JUMPDEST PUSH1 0x0 DUP1 REVERT JUMPDEST PUSH3 0x69 PUSH1 0x4 DUP1 CALLDATASIZE SUB DUP2 ADD SWAP1 PUSH3 0x63 SWAP2 SWAP1 PUSH3 0x29C JUMP JUMPDEST PUSH3 0xC3 JUMP JUMPDEST PUSH1 0x40 MLOAD PUSH3 0x78 SWAP2 SWAP1 PUSH3 0x313 JUMP JUMPDEST PUSH1 0x40 MLOAD DUP1 SWAP2 SUB SWAP1 RETURN JUMPDEST PUSH3 0x8B PUSH3 0x103 JUMP JUMPDEST PUSH1 0x40 MLOAD PUSH3 0x9A SWAP2 SWAP1 PUSH3 0x3FE JUMP JUMPDEST PUSH1 0x40 MLOAD DUP1 SWAP2 SUB SWAP1 RETURN JUMPDEST PUSH3 0xC1 PUSH1 0x4 DUP1 CALLDATASIZE SUB DUP2 ADD SWAP1 PUSH3 0xBB SWAP2 SWAP1 PUSH3 0x584 JUMP JUMPDEST PUSH3 0x193 JUMP JUMPDEST STOP JUMPDEST PUSH1 0x0 DUP2 DUP2 SLOAD DUP2 LT PUSH3 0xD4 JUMPI PUSH1 0x0 DUP1 REVERT JUMPDEST SWAP1 PUSH1 0x0 MSTORE PUSH1 0x20 PUSH1 0x0 KECCAK256 ADD PUSH1 0x0 SWAP2 POP SLOAD SWAP1 PUSH2 0x100 EXP SWAP1 DIV PUSH20 0xFFFFFFFFFFFFFFFFFFFFFFFFFFFFFFFFFFFFFFFF AND DUP2 JUMP JUMPDEST PUSH1 0x60 PUSH1 0x0 DUP1 SLOAD DUP1 PUSH1 0x20 MUL PUSH1 0x20 ADD PUSH1 0x40 MLOAD SWAP1 DUP2 ADD PUSH1 0x40 MSTORE DUP1 SWAP3 SWAP2 SWAP1 DUP2 DUP2 MSTORE PUSH1 0x20 ADD DUP3 DUP1 SLOAD DUP1 ISZERO PUSH3 0x189 JUMPI PUSH1 0x20 MUL DUP3 ADD SWAP2 SWAP1 PUSH1 0x0 MSTORE PUSH1 0x20 PUSH1 0x0 KECCAK256 SWAP1 JUMPDEST DUP2 PUSH1 0x0 SWAP1 SLOAD SWAP1 PUSH2 0x100 EXP SWAP1 DIV PUSH20 0xFFFFFFFFFFFFFFFFFFFFFFFFFFFFFFFFFFFFFFFF AND PUSH20 0xFFFFFFFFFFFFFFFFFFFFFFFFFFFFFFFFFFFFFFFF AND DUP2 MSTORE PUSH1 0x20 ADD SWAP1 PUSH1 0x1 ADD SWAP1 DUP1 DUP4 GT PUSH3 0x13E JUMPI JUMPDEST POP POP POP POP POP SWAP1 POP SWAP1 JUMP JUMPDEST PUSH1 0x0 CALLER DUP5 DUP5 DUP5 PUSH1 0x40 MLOAD PUSH3 0x1A7 SWAP1 PUSH3 0x23F JUMP JUMPDEST PUSH3 0x1B6 SWAP5 SWAP4 SWAP3 SWAP2 SWAP1 PUSH3 0x6D0 JUMP JUMPDEST PUSH1 0x40 MLOAD DUP1 SWAP2 SUB SWAP1 PUSH1 0x0 CREATE DUP1 ISZERO DUP1 ISZERO PUSH3 0x1D3 JUMPI RETURNDATASIZE PUSH1 0x0 DUP1 RETURNDATACOPY RETURNDATASIZE PUSH1 0x0 REVERT JUMPDEST POP SWAP1 POP PUSH1 0x0 DUP2 SWAP1 DUP1 PUSH1 0x1 DUP2 SLOAD ADD DUP1 DUP3 SSTORE DUP1 SWAP2 POP POP PUSH1 0x1 SWAP1 SUB SWAP1 PUSH1 0x0 MSTORE PUSH1 0x20 PUSH1 0x0 KECCAK256 ADD PUSH1 0x0 SWAP1 SWAP2 SWAP1 SWAP2 SWAP1 SWAP2 PUSH2 0x100 EXP DUP2 SLOAD DUP2 PUSH20 0xFFFFFFFFFFFFFFFFFFFFFFFFFFFFFFFFFFFFFFFF MUL NOT AND SWAP1 DUP4 PUSH20 0xFFFFFFFFFFFFFFFFFFFFFFFFFFFFFFFFFFFFFFFF AND MUL OR SWAP1 SSTORE POP POP POP POP POP JUMP JUMPDEST PUSH2 0x4F55 DUP1 PUSH3 0x733 DUP4 CODECOPY ADD SWAP1 JUMP JUMPDEST PUSH1 0x0 PUSH1 0x40 MLOAD SWAP1 POP SWAP1 JUMP JUMPDEST PUSH1 0x0 DUP1 REVERT JUMPDEST PUSH1 0x0 DUP1 REVERT JUMPDEST PUSH1 0x0 DUP2 SWAP1 POP SWAP2 SWAP1 POP JUMP JUMPDEST PUSH3 0x276 DUP2 PUSH3 0x261 JUMP JUMPDEST DUP2 EQ PUSH3 0x282 JUMPI PUSH1 0x0 DUP1 REVERT JUMPDEST POP JUMP JUMPDEST PUSH1 0x0 DUP2 CALLDATALOAD SWAP1 POP PUSH3 0x296 DUP2 PUSH3 0x26B JUMP JUMPDEST SWAP3 SWAP2 POP POP JUMP JUMPDEST PUSH1 0x0 PUSH1 0x20 DUP3 DUP5 SUB SLT ISZERO PUSH3 0x2B5 JUMPI PUSH3 0x2B4 PUSH3 0x257 JUMP JUMPDEST JUMPDEST PUSH1 0x0 PUSH3 0x2C5 DUP5 DUP3 DUP6 ADD PUSH3 0x285 JUMP JUMPDEST SWAP2 POP POP SWAP3 SWAP2 POP POP JUMP JUMPDEST PUSH1 0x0 PUSH20 0xFFFFFFFFFFFFFFFFFFFFFFFFFFFFFFFFFFFFFFFF DUP3 AND SWAP1 POP SWAP2 SWAP1 POP JUMP JUMPDEST PUSH1 0x0 PUSH3 0x2FB DUP3 PUSH3 0x2CE JUMP JUMPDEST SWAP1 POP SWAP2 SWAP1 POP JUMP JUMPDEST PUSH3 0x30D DUP2 PUSH3 0x2EE JUMP JUMPDEST DUP3 MSTORE POP POP JUMP JUMPDEST PUSH1 0x0 PUSH1 0x20 DUP3 ADD SWAP1 POP PUSH3 0x32A PUSH1 0x0 DUP4 ADD DUP5 PUSH3 0x302 JUMP JUMPDEST SWAP3 SWAP2 POP POP JUMP JUMPDEST PUSH1 0x0 DUP2 MLOAD SWAP1 POP SWAP2 SWAP1 POP JUMP JUMPDEST PUSH1 0x0 DUP3 DUP3 MSTORE PUSH1 0x20 DUP3 ADD SWAP1 POP SWAP3 SWAP2 POP POP JUMP JUMPDEST PUSH1 0x0 DUP2 SWAP1 POP PUSH1 0x20 DUP3 ADD SWAP1 POP SWAP2 SWAP1 POP JUMP JUMPDEST PUSH3 0x367 DUP2 PUSH3 0x2EE JUMP JUMPDEST DUP3 MSTORE POP POP JUMP JUMPDEST PUSH1 0x0 PUSH3 0x37B DUP4 DUP4 PUSH3 0x35C JUMP JUMPDEST PUSH1 0x20 DUP4 ADD SWAP1 POP SWAP3 SWAP2 POP POP JUMP JUMPDEST PUSH1 0x0 PUSH1 0x20 DUP3 ADD SWAP1 POP SWAP2 SWAP1 POP JUMP JUMPDEST PUSH1 0x0 PUSH3 0x3A1 DUP3 PUSH3 0x330 JUMP JUMPDEST PUSH3 0x3AD DUP2 DUP6 PUSH3 0x33B JUMP JUMPDEST SWAP4 POP PUSH3 0x3BA DUP4 PUSH3 0x34C JUMP JUMPDEST DUP1 PUSH1 0x0 JUMPDEST DUP4 DUP2 LT ISZERO PUSH3 0x3F1 JUMPI DUP2 MLOAD PUSH3 0x3D5 DUP9 DUP3 PUSH3 0x36D JUMP JUMPDEST SWAP8 POP PUSH3 0x3E2 DUP4 PUSH3 0x387 JUMP JUMPDEST SWAP3 POP POP PUSH1 0x1 DUP2 ADD SWAP1 POP PUSH3 0x3BE JUMP JUMPDEST POP DUP6 SWAP4 POP POP POP POP SWAP3 SWAP2 POP POP JUMP JUMPDEST PUSH1 0x0 PUSH1 0x20 DUP3 ADD SWAP1 POP DUP2 DUP2 SUB PUSH1 0x0 DUP4 ADD MSTORE PUSH3 0x41A DUP2 DUP5 PUSH3 0x394 JUMP JUMPDEST SWAP1 POP SWAP3 SWAP2 POP POP JUMP JUMPDEST PUSH1 0x0 DUP1 REVERT JUMPDEST PUSH1 0x0 DUP1 REVERT JUMPDEST PUSH1 0x0 PUSH1 0x1F NOT PUSH1 0x1F DUP4 ADD AND SWAP1 POP SWAP2 SWAP1 POP JUMP JUMPDEST PUSH32 0x4E487B7100000000000000000000000000000000000000000000000000000000 PUSH1 0x0 MSTORE PUSH1 0x41 PUSH1 0x4 MSTORE PUSH1 0x24 PUSH1 0x0 REVERT JUMPDEST PUSH3 0x477 DUP3 PUSH3 0x42C JUMP JUMPDEST DUP2 ADD DUP2 DUP2 LT PUSH8 0xFFFFFFFFFFFFFFFF DUP3 GT OR ISZERO PUSH3 0x499 JUMPI PUSH3 0x498 PUSH3 0x43D JUMP JUMPDEST JUMPDEST DUP1 PUSH1 0x40 MSTORE POP POP POP JUMP JUMPDEST PUSH1 0x0 PUSH3 0x4AE PUSH3 0x24D JUMP JUMPDEST SWAP1 POP PUSH3 0x4BC DUP3 DUP3 PUSH3 0x46C JUMP JUMPDEST SWAP2 SWAP1 POP JUMP JUMPDEST PUSH1 0x0 PUSH8 0xFFFFFFFFFFFFFFFF DUP3 GT ISZERO PUSH3 0x4DF JUMPI PUSH3 0x4DE PUSH3 0x43D JUMP JUMPDEST JUMPDEST PUSH3 0x4EA DUP3 PUSH3 0x42C JUMP JUMPDEST SWAP1 POP PUSH1 0x20 DUP2 ADD SWAP1 POP SWAP2 SWAP1 POP JUMP JUMPDEST DUP3 DUP2 DUP4 CALLDATACOPY PUSH1 0x0 DUP4 DUP4 ADD MSTORE POP POP POP JUMP JUMPDEST PUSH1 0x0 PUSH3 0x51D PUSH3 0x517 DUP5 PUSH3 0x4C1 JUMP JUMPDEST PUSH3 0x4A2 JUMP JUMPDEST SWAP1 POP DUP3 DUP2 MSTORE PUSH1 0x20 DUP2 ADD DUP5 DUP5 DUP5 ADD GT ISZERO PUSH3 0x53C JUMPI PUSH3 0x53B PUSH3 0x427 JUMP JUMPDEST JUMPDEST PUSH3 0x549 DUP5 DUP3 DUP6 PUSH3 0x4F7 JUMP JUMPDEST POP SWAP4 SWAP3 POP POP POP JUMP JUMPDEST PUSH1 0x0 DUP3 PUSH1 0x1F DUP4 ADD SLT PUSH3 0x569 JUMPI PUSH3 0x568 PUSH3 0x422 JUMP JUMPDEST JUMPDEST DUP2 CALLDATALOAD PUSH3 0x57B DUP5 DUP3 PUSH1 0x20 DUP7 ADD PUSH3 0x506 JUMP JUMPDEST SWAP2 POP POP SWAP3 SWAP2 POP POP JUMP JUMPDEST PUSH1 0x0 DUP1 PUSH1 0x0 PUSH1 0x60 DUP5 DUP7 SUB SLT ISZERO PUSH3 0x5A0 JUMPI PUSH3 0x59F PUSH3 0x257 JUMP JUMPDEST JUMPDEST PUSH1 0x0 DUP5 ADD CALLDATALOAD PUSH8 0xFFFFFFFFFFFFFFFF DUP2 GT ISZERO PUSH3 0x5C1 JUMPI PUSH3 0x5C0 PUSH3 0x25C JUMP JUMPDEST JUMPDEST PUSH3 0x5CF DUP7 DUP3 DUP8 ADD PUSH3 0x551 JUMP JUMPDEST SWAP4 POP POP PUSH1 0x20 DUP5 ADD CALLDATALOAD PUSH8 0xFFFFFFFFFFFFFFFF DUP2 GT ISZERO PUSH3 0x5F3 JUMPI PUSH3 0x5F2 PUSH3 0x25C JUMP JUMPDEST JUMPDEST PUSH3 0x601 DUP7 DUP3 DUP8 ADD PUSH3 0x551 JUMP JUMPDEST SWAP3 POP POP PUSH1 0x40 DUP5 ADD CALLDATALOAD PUSH8 0xFFFFFFFFFFFFFFFF DUP2 GT ISZERO PUSH3 0x625 JUMPI PUSH3 0x624 PUSH3 0x25C JUMP JUMPDEST JUMPDEST PUSH3 0x633 DUP7 DUP3 DUP8 ADD PUSH3 0x551 JUMP JUMPDEST SWAP2 POP POP SWAP3 POP SWAP3 POP SWAP3 JUMP JUMPDEST PUSH1 0x0 DUP2 MLOAD SWAP1 POP SWAP2 SWAP1 POP JUMP JUMPDEST PUSH1 0x0 DUP3 DUP3 MSTORE PUSH1 0x20 DUP3 ADD SWAP1 POP SWAP3 SWAP2 POP POP JUMP JUMPDEST PUSH1 0x0 JUMPDEST DUP4 DUP2 LT ISZERO PUSH3 0x679 JUMPI DUP1 DUP3 ADD MLOAD DUP2 DUP5 ADD MSTORE PUSH1 0x20 DUP2 ADD SWAP1 POP PUSH3 0x65C JUMP JUMPDEST DUP4 DUP2 GT ISZERO PUSH3 0x689 JUMPI PUSH1 0x0 DUP5 DUP5 ADD MSTORE JUMPDEST POP POP POP POP JUMP JUMPDEST PUSH1 0x0 PUSH3 0x69C DUP3 PUSH3 0x63D JUMP JUMPDEST PUSH3 0x6A8 DUP2 DUP6 PUSH3 0x648 JUMP JUMPDEST SWAP4 POP PUSH3 0x6BA DUP2 DUP6 PUSH1 0x20 DUP7 ADD PUSH3 0x659 JUMP JUMPDEST PUSH3 0x6C5 DUP2 PUSH3 0x42C JUMP JUMPDEST DUP5 ADD SWAP2 POP POP SWAP3 SWAP2 POP POP JUMP JUMPDEST PUSH1 0x0 PUSH1 0x80 DUP3 ADD SWAP1 POP PUSH3 0x6E7 PUSH1 0x0 DUP4 ADD DUP8 PUSH3 0x302 JUMP JUMPDEST DUP2 DUP2 SUB PUSH1 0x20 DUP4 ADD MSTORE PUSH3 0x6FB DUP2 DUP7 PUSH3 0x68F JUMP JUMPDEST SWAP1 POP DUP2 DUP2 SUB PUSH1 0x40 DUP4 ADD MSTORE PUSH3 0x711 DUP2 DUP6 PUSH3 0x68F JUMP JUMPDEST SWAP1 POP DUP2 DUP2 SUB PUSH1 0x60 DUP4 ADD MSTORE PUSH3 0x727 DUP2 DUP5 PUSH3 0x68F JUMP JUMPDEST SWAP1 POP SWAP6 SWAP5 POP POP POP POP POP JUMP INVALID PUSH1 0x80 PUSH1 0x40 MSTORE CALLVALUE DUP1 ISZERO PUSH3 0x11 JUMPI PUSH1 0x0 DUP1 REVERT JUMPDEST POP PUSH1 0x40 MLOAD PUSH3 0x4F55 CODESIZE SUB DUP1 PUSH3 0x4F55 DUP4 CODECOPY DUP2 DUP2 ADD PUSH1 0x40 MSTORE DUP2 ADD SWAP1 PUSH3 0x37 SWAP2 SWAP1 PUSH3 0x454 JUMP JUMPDEST DUP4 PUSH1 0x0 DUP1 PUSH2 0x100 EXP DUP2 SLOAD DUP2 PUSH20 0xFFFFFFFFFFFFFFFFFFFFFFFFFFFFFFFFFFFFFFFF MUL NOT AND SWAP1 DUP4 PUSH20 0xFFFFFFFFFFFFFFFFFFFFFFFFFFFFFFFFFFFFFFFF AND MUL OR SWAP1 SSTORE POP PUSH1 0x1 PUSH1 0x4 PUSH1 0x0 DUP7 PUSH20 0xFFFFFFFFFFFFFFFFFFFFFFFFFFFFFFFFFFFFFFFF AND PUSH20 0xFFFFFFFFFFFFFFFFFFFFFFFFFFFFFFFFFFFFFFFF AND DUP2 MSTORE PUSH1 0x20 ADD SWAP1 DUP2 MSTORE PUSH1 0x20 ADD PUSH1 0x0 KECCAK256 PUSH1 0x0 PUSH2 0x100 EXP DUP2 SLOAD DUP2 PUSH1 0xFF MUL NOT AND SWAP1 DUP4 ISZERO ISZERO MUL OR SWAP1 SSTORE POP PUSH1 0x5 DUP5 SWAP1 DUP1 PUSH1 0x1 DUP2 SLOAD ADD DUP1 DUP3 SSTORE DUP1 SWAP2 POP POP PUSH1 0x1 SWAP1 SUB SWAP1 PUSH1 0x0 MSTORE PUSH1 0x20 PUSH1 0x0 KECCAK256 ADD PUSH1 0x0 SWAP1 SWAP2 SWAP1 SWAP2 SWAP1 SWAP2 PUSH2 0x100 EXP DUP2 SLOAD DUP2 PUSH20 0xFFFFFFFFFFFFFFFFFFFFFFFFFFFFFFFFFFFFFFFF MUL NOT AND SWAP1 DUP4 PUSH20 0xFFFFFFFFFFFFFFFFFFFFFFFFFFFFFFFFFFFFFFFF AND MUL OR SWAP1 SSTORE POP DUP3 PUSH1 0x1 SWAP1 DUP1 MLOAD SWAP1 PUSH1 0x20 ADD SWAP1 PUSH3 0x14A SWAP3 SWAP2 SWAP1 PUSH3 0x1A2 JUMP JUMPDEST POP DUP2 PUSH1 0x2 SWAP1 DUP1 MLOAD SWAP1 PUSH1 0x20 ADD SWAP1 PUSH3 0x163 SWAP3 SWAP2 SWAP1 PUSH3 0x1A2 JUMP JUMPDEST POP DUP1 PUSH1 0x3 SWAP1 DUP1 MLOAD SWAP1 PUSH1 0x20 ADD SWAP1 PUSH3 0x17C SWAP3 SWAP2 SWAP1 PUSH3 0x1A2 JUMP JUMPDEST POP PUSH1 0x0 PUSH1 0xB PUSH1 0x0 PUSH2 0x100 EXP DUP2 SLOAD DUP2 PUSH1 0xFF MUL NOT AND SWAP1 DUP4 ISZERO ISZERO MUL OR SWAP1 SSTORE POP POP POP POP POP PUSH3 0x588 JUMP JUMPDEST DUP3 DUP1 SLOAD PUSH3 0x1B0 SWAP1 PUSH3 0x552 JUMP JUMPDEST SWAP1 PUSH1 0x0 MSTORE PUSH1 0x20 PUSH1 0x0 KECCAK256 SWAP1 PUSH1 0x1F ADD PUSH1 0x20 SWAP1 DIV DUP2 ADD SWAP3 DUP3 PUSH3 0x1D4 JUMPI PUSH1 0x0 DUP6 SSTORE PUSH3 0x220 JUMP JUMPDEST DUP3 PUSH1 0x1F LT PUSH3 0x1EF JUMPI DUP1 MLOAD PUSH1 0xFF NOT AND DUP4 DUP1 ADD OR DUP6 SSTORE PUSH3 0x220 JUMP JUMPDEST DUP3 DUP1 ADD PUSH1 0x1 ADD DUP6 SSTORE DUP3 ISZERO PUSH3 0x220 JUMPI SWAP2 DUP3 ADD JUMPDEST DUP3 DUP2 GT ISZERO PUSH3 0x21F JUMPI DUP3 MLOAD DUP3 SSTORE SWAP2 PUSH1 0x20 ADD SWAP2 SWAP1 PUSH1 0x1 ADD SWAP1 PUSH3 0x202 JUMP JUMPDEST JUMPDEST POP SWAP1 POP PUSH3 0x22F SWAP2 SWAP1 PUSH3 0x233 JUMP JUMPDEST POP SWAP1 JUMP JUMPDEST JUMPDEST DUP1 DUP3 GT ISZERO PUSH3 0x24E JUMPI PUSH1 0x0 DUP2 PUSH1 0x0 SWAP1 SSTORE POP PUSH1 0x1 ADD PUSH3 0x234 JUMP JUMPDEST POP SWAP1 JUMP JUMPDEST PUSH1 0x0 PUSH1 0x40 MLOAD SWAP1 POP SWAP1 JUMP JUMPDEST PUSH1 0x0 DUP1 REVERT JUMPDEST PUSH1 0x0 DUP1 REVERT JUMPDEST PUSH1 0x0 PUSH20 0xFFFFFFFFFFFFFFFFFFFFFFFFFFFFFFFFFFFFFFFF DUP3 AND SWAP1 POP SWAP2 SWAP1 POP JUMP JUMPDEST PUSH1 0x0 PUSH3 0x293 DUP3 PUSH3 0x266 JUMP JUMPDEST SWAP1 POP SWAP2 SWAP1 POP JUMP JUMPDEST PUSH3 0x2A5 DUP2 PUSH3 0x286 JUMP JUMPDEST DUP2 EQ PUSH3 0x2B1 JUMPI PUSH1 0x0 DUP1 REVERT JUMPDEST POP JUMP JUMPDEST PUSH1 0x0 DUP2 MLOAD SWAP1 POP PUSH3 0x2C5 DUP2 PUSH3 0x29A JUMP JUMPDEST SWAP3 SWAP2 POP POP JUMP JUMPDEST PUSH1 0x0 DUP1 REVERT JUMPDEST PUSH1 0x0 DUP1 REVERT JUMPDEST PUSH1 0x0 PUSH1 0x1F NOT PUSH1 0x1F DUP4 ADD AND SWAP1 POP SWAP2 SWAP1 POP JUMP JUMPDEST PUSH32 0x4E487B7100000000000000000000000000000000000000000000000000000000 PUSH1 0x0 MSTORE PUSH1 0x41 PUSH1 0x4 MSTORE PUSH1 0x24 PUSH1 0x0 REVERT JUMPDEST PUSH3 0x320 DUP3 PUSH3 0x2D5 JUMP JUMPDEST DUP2 ADD DUP2 DUP2 LT PUSH8 0xFFFFFFFFFFFFFFFF DUP3 GT OR ISZERO PUSH3 0x342 JUMPI PUSH3 0x341 PUSH3 0x2E6 JUMP JUMPDEST JUMPDEST DUP1 PUSH1 0x40 MSTORE POP POP POP JUMP JUMPDEST PUSH1 0x0 PUSH3 0x357 PUSH3 0x252 JUMP JUMPDEST SWAP1 POP PUSH3 0x365 DUP3 DUP3 PUSH3 0x315 JUMP JUMPDEST SWAP2 SWAP1 POP JUMP JUMPDEST PUSH1 0x0 PUSH8 0xFFFFFFFFFFFFFFFF DUP3 GT ISZERO PUSH3 0x388 JUMPI PUSH3 0x387 PUSH3 0x2E6 JUMP JUMPDEST JUMPDEST PUSH3 0x393 DUP3 PUSH3 0x2D5 JUMP JUMPDEST SWAP1 POP PUSH1 0x20 DUP2 ADD SWAP1 POP SWAP2 SWAP1 POP JUMP JUMPDEST PUSH1 0x0 JUMPDEST DUP4 DUP2 LT ISZERO PUSH3 0x3C0 JUMPI DUP1 DUP3 ADD MLOAD DUP2 DUP5 ADD MSTORE PUSH1 0x20 DUP2 ADD SWAP1 POP PUSH3 0x3A3 JUMP JUMPDEST DUP4 DUP2 GT ISZERO PUSH3 0x3D0 JUMPI PUSH1 0x0 DUP5 DUP5 ADD MSTORE JUMPDEST POP POP POP POP JUMP JUMPDEST PUSH1 0x0 PUSH3 0x3ED PUSH3 0x3E7 DUP5 PUSH3 0x36A JUMP JUMPDEST PUSH3 0x34B JUMP JUMPDEST SWAP1 POP DUP3 DUP2 MSTORE PUSH1 0x20 DUP2 ADD DUP5 DUP5 DUP5 ADD GT ISZERO PUSH3 0x40C JUMPI PUSH3 0x40B PUSH3 0x2D0 JUMP JUMPDEST JUMPDEST PUSH3 0x419 DUP5 DUP3 DUP6 PUSH3 0x3A0 JUMP JUMPDEST POP SWAP4 SWAP3 POP POP POP JUMP JUMPDEST PUSH1 0x0 DUP3 PUSH1 0x1F DUP4 ADD SLT PUSH3 0x439 JUMPI PUSH3 0x438 PUSH3 0x2CB JUMP JUMPDEST JUMPDEST DUP2 MLOAD PUSH3 0x44B DUP5 DUP3 PUSH1 0x20 DUP7 ADD PUSH3 0x3D6 JUMP JUMPDEST SWAP2 POP POP SWAP3 SWAP2 POP POP JUMP JUMPDEST PUSH1 0x0 DUP1 PUSH1 0x0 DUP1 PUSH1 0x80 DUP6 DUP8 SUB SLT ISZERO PUSH3 0x471 JUMPI PUSH3 0x470 PUSH3 0x25C JUMP JUMPDEST JUMPDEST PUSH1 0x0 PUSH3 0x481 DUP8 DUP3 DUP9 ADD PUSH3 0x2B4 JUMP JUMPDEST SWAP5 POP POP PUSH1 0x20 DUP6 ADD MLOAD PUSH8 0xFFFFFFFFFFFFFFFF DUP2 GT ISZERO PUSH3 0x4A5 JUMPI PUSH3 0x4A4 PUSH3 0x261 JUMP JUMPDEST JUMPDEST PUSH3 0x4B3 DUP8 DUP3 DUP9 ADD PUSH3 0x421 JUMP JUMPDEST SWAP4 POP POP PUSH1 0x40 DUP6 ADD MLOAD PUSH8 0xFFFFFFFFFFFFFFFF DUP2 GT ISZERO PUSH3 0x4D7 JUMPI PUSH3 0x4D6 PUSH3 0x261 JUMP JUMPDEST JUMPDEST PUSH3 0x4E5 DUP8 DUP3 DUP9 ADD PUSH3 0x421 JUMP JUMPDEST SWAP3 POP POP PUSH1 0x60 DUP6 ADD MLOAD PUSH8 0xFFFFFFFFFFFFFFFF DUP2 GT ISZERO PUSH3 0x509 JUMPI PUSH3 0x508 PUSH3 0x261 JUMP JUMPDEST JUMPDEST PUSH3 0x517 DUP8 DUP3 DUP9 ADD PUSH3 0x421 JUMP JUMPDEST SWAP2 POP POP SWAP3 SWAP6 SWAP2 SWAP5 POP SWAP3 POP JUMP JUMPDEST PUSH32 0x4E487B7100000000000000000000000000000000000000000000000000000000 PUSH1 0x0 MSTORE PUSH1 0x22 PUSH1 0x4 MSTORE PUSH1 0x24 PUSH1 0x0 REVERT JUMPDEST PUSH1 0x0 PUSH1 0x2 DUP3 DIV SWAP1 POP PUSH1 0x1 DUP3 AND DUP1 PUSH3 0x56B JUMPI PUSH1 0x7F DUP3 AND SWAP2 POP JUMPDEST PUSH1 0x20 DUP3 LT DUP2 EQ ISZERO PUSH3 0x582 JUMPI PUSH3 0x581 PUSH3 0x523 JUMP JUMPDEST JUMPDEST POP SWAP2 SWAP1 POP JUMP JUMPDEST PUSH2 0x49BD DUP1 PUSH3 0x598 PUSH1 0x0 CODECOPY PUSH1 0x0 RETURN INVALID PUSH1 0x80 PUSH1 0x40 MSTORE PUSH1 0x4 CALLDATASIZE LT PUSH3 0x116 JUMPI PUSH1 0x0 CALLDATALOAD PUSH1 0xE0 SHR DUP1 PUSH4 0x7F51AAF9 GT PUSH3 0xA3 JUMPI DUP1 PUSH4 0xB5202522 GT PUSH3 0x6D JUMPI DUP1 PUSH4 0xB5202522 EQ PUSH3 0x389 JUMPI DUP1 PUSH4 0xCFB65804 EQ PUSH3 0x3CD JUMPI DUP1 PUSH4 0xD7BB99BA EQ PUSH3 0x3FB JUMPI DUP1 PUSH4 0xDFA14E23 EQ PUSH3 0x407 JUMPI DUP1 PUSH4 0xED5447F5 EQ PUSH3 0x435 JUMPI PUSH3 0x116 JUMP JUMPDEST DUP1 PUSH4 0x7F51AAF9 EQ PUSH3 0x2A3 JUMPI DUP1 PUSH4 0x98B79628 EQ PUSH3 0x2E7 JUMPI DUP1 PUSH4 0x9C636A0F EQ PUSH3 0x315 JUMPI DUP1 PUSH4 0x9D3ED807 EQ PUSH3 0x345 JUMPI PUSH3 0x116 JUMP JUMPDEST DUP1 PUSH4 0x4051DDAC GT PUSH3 0xE5 JUMPI DUP1 PUSH4 0x4051DDAC EQ PUSH3 0x1C1 JUMPI DUP1 PUSH4 0x5CF298FB EQ PUSH3 0x1FB JUMPI DUP1 PUSH4 0x5D1A870A EQ PUSH3 0x22B JUMPI DUP1 PUSH4 0x6FC6C579 EQ PUSH3 0x25B JUMPI PUSH3 0x116 JUMP JUMPDEST DUP1 PUSH4 0x2606A10B EQ PUSH3 0x11B JUMPI DUP1 PUSH4 0x29224406 EQ PUSH3 0x135 JUMPI DUP1 PUSH4 0x3B6246C2 EQ PUSH3 0x163 JUMPI DUP1 PUSH4 0x3E5690F4 EQ PUSH3 0x17D JUMPI JUMPDEST PUSH1 0x0 DUP1 REVERT JUMPDEST CALLVALUE DUP1 ISZERO PUSH3 0x128 JUMPI PUSH1 0x0 DUP1 REVERT JUMPDEST POP PUSH3 0x133 PUSH3 0x47F JUMP JUMPDEST STOP JUMPDEST CALLVALUE DUP1 ISZERO PUSH3 0x142 JUMPI PUSH1 0x0 DUP1 REVERT JUMPDEST POP PUSH3 0x161 PUSH1 0x4 DUP1 CALLDATASIZE SUB DUP2 ADD SWAP1 PUSH3 0x15B SWAP2 SWAP1 PUSH3 0x22B9 JUMP JUMPDEST PUSH3 0x686 JUMP JUMPDEST STOP JUMPDEST CALLVALUE DUP1 ISZERO PUSH3 0x170 JUMPI PUSH1 0x0 DUP1 REVERT JUMPDEST POP PUSH3 0x17B PUSH3 0xC78 JUMP JUMPDEST STOP JUMPDEST CALLVALUE DUP1 ISZERO PUSH3 0x18A JUMPI PUSH1 0x0 DUP1 REVERT JUMPDEST POP PUSH3 0x1A9 PUSH1 0x4 DUP1 CALLDATASIZE SUB DUP2 ADD SWAP1 PUSH3 0x1A3 SWAP2 SWAP1 PUSH3 0x2350 JUMP JUMPDEST PUSH3 0xE20 JUMP JUMPDEST PUSH1 0x40 MLOAD PUSH3 0x1B8 SWAP2 SWAP1 PUSH3 0x239F JUMP JUMPDEST PUSH1 0x40 MLOAD DUP1 SWAP2 SUB SWAP1 RETURN JUMPDEST CALLVALUE DUP1 ISZERO PUSH3 0x1CE JUMPI PUSH1 0x0 DUP1 REVERT JUMPDEST POP PUSH3 0x1D9 PUSH3 0xE40 JUMP JUMPDEST PUSH1 0x40 MLOAD PUSH3 0x1F2 SWAP12 SWAP11 SWAP10 SWAP9 SWAP8 SWAP7 SWAP6 SWAP5 SWAP4 SWAP3 SWAP2 SWAP1 PUSH3 0x2550 JUMP JUMPDEST PUSH1 0x40 MLOAD DUP1 SWAP2 SUB SWAP1 RETURN JUMPDEST CALLVALUE DUP1 ISZERO PUSH3 0x208 JUMPI PUSH1 0x0 DUP1 REVERT JUMPDEST POP PUSH3 0x213 PUSH3 0x1191 JUMP JUMPDEST PUSH1 0x40 MLOAD PUSH3 0x222 SWAP2 SWAP1 PUSH3 0x239F JUMP JUMPDEST PUSH1 0x40 MLOAD DUP1 SWAP2 SUB SWAP1 RETURN JUMPDEST CALLVALUE DUP1 ISZERO PUSH3 0x238 JUMPI PUSH1 0x0 DUP1 REVERT JUMPDEST POP PUSH3 0x243 PUSH3 0x11E5 JUMP JUMPDEST PUSH1 0x40 MLOAD PUSH3 0x252 SWAP2 SWAP1 PUSH3 0x239F JUMP JUMPDEST PUSH1 0x40 MLOAD DUP1 SWAP2 SUB SWAP1 RETURN JUMPDEST CALLVALUE DUP1 ISZERO PUSH3 0x268 JUMPI PUSH1 0x0 DUP1 REVERT JUMPDEST POP PUSH3 0x287 PUSH1 0x4 DUP1 CALLDATASIZE SUB DUP2 ADD SWAP1 PUSH3 0x281 SWAP2 SWAP1 PUSH3 0x22B9 JUMP JUMPDEST PUSH3 0x11F8 JUMP JUMPDEST PUSH1 0x40 MLOAD PUSH3 0x29A SWAP6 SWAP5 SWAP4 SWAP3 SWAP2 SWAP1 PUSH3 0x2634 JUMP JUMPDEST PUSH1 0x40 MLOAD DUP1 SWAP2 SUB SWAP1 RETURN JUMPDEST CALLVALUE DUP1 ISZERO PUSH3 0x2B0 JUMPI PUSH1 0x0 DUP1 REVERT JUMPDEST POP PUSH3 0x2CF PUSH1 0x4 DUP1 CALLDATASIZE SUB DUP2 ADD SWAP1 PUSH3 0x2C9 SWAP2 SWAP1 PUSH3 0x2350 JUMP JUMPDEST PUSH3 0x12FC JUMP JUMPDEST PUSH1 0x40 MLOAD PUSH3 0x2DE SWAP2 SWAP1 PUSH3 0x239F JUMP JUMPDEST PUSH1 0x40 MLOAD DUP1 SWAP2 SUB SWAP1 RETURN JUMPDEST CALLVALUE DUP1 ISZERO PUSH3 0x2F4 JUMPI PUSH1 0x0 DUP1 REVERT JUMPDEST POP PUSH3 0x313 PUSH1 0x4 DUP1 CALLDATASIZE SUB DUP2 ADD SWAP1 PUSH3 0x30D SWAP2 SWAP1 PUSH3 0x22B9 JUMP JUMPDEST PUSH3 0x131C JUMP JUMPDEST STOP JUMPDEST CALLVALUE DUP1 ISZERO PUSH3 0x322 JUMPI PUSH1 0x0 DUP1 REVERT JUMPDEST POP PUSH3 0x32D PUSH3 0x16C4 JUMP JUMPDEST PUSH1 0x40 MLOAD PUSH3 0x33C SWAP2 SWAP1 PUSH3 0x2698 JUMP JUMPDEST PUSH1 0x40 MLOAD DUP1 SWAP2 SUB SWAP1 RETURN JUMPDEST CALLVALUE DUP1 ISZERO PUSH3 0x352 JUMPI PUSH1 0x0 DUP1 REVERT JUMPDEST POP PUSH3 0x371 PUSH1 0x4 DUP1 CALLDATASIZE SUB DUP2 ADD SWAP1 PUSH3 0x36B SWAP2 SWAP1 PUSH3 0x22B9 JUMP JUMPDEST PUSH3 0x1754 JUMP JUMPDEST PUSH1 0x40 MLOAD PUSH3 0x380 SWAP2 SWAP1 PUSH3 0x26BC JUMP JUMPDEST PUSH1 0x40 MLOAD DUP1 SWAP2 SUB SWAP1 RETURN JUMPDEST CALLVALUE DUP1 ISZERO PUSH3 0x396 JUMPI PUSH1 0x0 DUP1 REVERT JUMPDEST POP PUSH3 0x3B5 PUSH1 0x4 DUP1 CALLDATASIZE SUB DUP2 ADD SWAP1 PUSH3 0x3AF SWAP2 SWAP1 PUSH3 0x22B9 JUMP JUMPDEST PUSH3 0x1794 JUMP JUMPDEST PUSH1 0x40 MLOAD PUSH3 0x3C4 SWAP2 SWAP1 PUSH3 0x26BC JUMP JUMPDEST PUSH1 0x40 MLOAD DUP1 SWAP2 SUB SWAP1 RETURN JUMPDEST CALLVALUE DUP1 ISZERO PUSH3 0x3DA JUMPI PUSH1 0x0 DUP1 REVERT JUMPDEST POP PUSH3 0x3F9 PUSH1 0x4 DUP1 CALLDATASIZE SUB DUP2 ADD SWAP1 PUSH3 0x3F3 SWAP2 SWAP1 PUSH3 0x282A JUMP JUMPDEST PUSH3 0x17D4 JUMP JUMPDEST STOP JUMPDEST PUSH3 0x405 PUSH3 0x1BB1 JUMP JUMPDEST STOP JUMPDEST CALLVALUE DUP1 ISZERO PUSH3 0x414 JUMPI PUSH1 0x0 DUP1 REVERT JUMPDEST POP PUSH3 0x433 PUSH1 0x4 DUP1 CALLDATASIZE SUB DUP2 ADD SWAP1 PUSH3 0x42D SWAP2 SWAP1 PUSH3 0x28A5 JUMP JUMPDEST PUSH3 0x1C83 JUMP JUMPDEST STOP JUMPDEST CALLVALUE DUP1 ISZERO PUSH3 0x442 JUMPI PUSH1 0x0 DUP1 REVERT JUMPDEST POP PUSH3 0x461 PUSH1 0x4 DUP1 CALLDATASIZE SUB DUP2 ADD SWAP1 PUSH3 0x45B SWAP2 SWAP1 PUSH3 0x22B9 JUMP JUMPDEST PUSH3 0x1E1C JUMP JUMPDEST PUSH1 0x40 MLOAD PUSH3 0x476 SWAP8 SWAP7 SWAP6 SWAP5 SWAP4 SWAP3 SWAP2 SWAP1 PUSH3 0x28F6 JUMP JUMPDEST PUSH1 0x40 MLOAD DUP1 SWAP2 SUB SWAP1 RETURN JUMPDEST PUSH1 0x8 PUSH1 0x0 SWAP1 SLOAD SWAP1 PUSH2 0x100 EXP SWAP1 DIV PUSH1 0xFF AND ISZERO PUSH3 0x4D2 JUMPI PUSH1 0x40 MLOAD PUSH32 0x8C379A000000000000000000000000000000000000000000000000000000000 DUP2 MSTORE PUSH1 0x4 ADD PUSH3 0x4C9 SWAP1 PUSH3 0x29CA JUMP JUMPDEST PUSH1 0x40 MLOAD DUP1 SWAP2 SUB SWAP1 REVERT JUMPDEST PUSH1 0x1 PUSH1 0x8 PUSH1 0x0 PUSH2 0x100 EXP DUP2 SLOAD DUP2 PUSH1 0xFF MUL NOT AND SWAP1 DUP4 ISZERO ISZERO MUL OR SWAP1 SSTORE POP PUSH1 0xB PUSH1 0x0 SWAP1 SLOAD SWAP1 PUSH2 0x100 EXP SWAP1 DIV PUSH1 0xFF AND ISZERO PUSH3 0x540 JUMPI PUSH1 0x40 MLOAD PUSH32 0x8C379A000000000000000000000000000000000000000000000000000000000 DUP2 MSTORE PUSH1 0x4 ADD PUSH3 0x537 SWAP1 PUSH3 0x2A3C JUMP JUMPDEST PUSH1 0x40 MLOAD DUP1 SWAP2 SUB SWAP1 REVERT JUMPDEST PUSH1 0x9 PUSH1 0x0 CALLER PUSH20 0xFFFFFFFFFFFFFFFFFFFFFFFFFFFFFFFFFFFFFFFF AND PUSH20 0xFFFFFFFFFFFFFFFFFFFFFFFFFFFFFFFFFFFFFFFF AND DUP2 MSTORE PUSH1 0x20 ADD SWAP1 DUP2 MSTORE PUSH1 0x20 ADD PUSH1 0x0 KECCAK256 PUSH1 0x0 SWAP1 SLOAD SWAP1 PUSH2 0x100 EXP SWAP1 DIV PUSH1 0xFF AND ISZERO PUSH3 0x5D0 JUMPI PUSH1 0x40 MLOAD PUSH32 0x8C379A000000000000000000000000000000000000000000000000000000000 DUP2 MSTORE PUSH1 0x4 ADD PUSH3 0x5C7 SWAP1 PUSH3 0x2AD4 JUMP JUMPDEST PUSH1 0x40 MLOAD DUP1 SWAP2 SUB SWAP1 REVERT JUMPDEST PUSH3 0x5E8 PUSH1 0x1 PUSH1 0xA SLOAD PUSH3 0x1F6C SWAP1 SWAP2 SWAP1 PUSH4 0xFFFFFFFF AND JUMP JUMPDEST POP PUSH1 0x1 PUSH1 0x9 PUSH1 0x0 CALLER PUSH20 0xFFFFFFFFFFFFFFFFFFFFFFFFFFFFFFFFFFFFFFFF AND PUSH20 0xFFFFFFFFFFFFFFFFFFFFFFFFFFFFFFFFFFFFFFFF AND DUP2 MSTORE PUSH1 0x20 ADD SWAP1 DUP2 MSTORE PUSH1 0x20 ADD PUSH1 0x0 KECCAK256 PUSH1 0x0 PUSH2 0x100 EXP DUP2 SLOAD DUP2 PUSH1 0xFF MUL NOT AND SWAP1 DUP4 ISZERO ISZERO MUL OR SWAP1 SSTORE POP PUSH1 0x64 PUSH1 0xA SLOAD GT ISZERO PUSH3 0x669 JUMPI PUSH1 0x1 PUSH1 0xB PUSH1 0x0 PUSH2 0x100 EXP DUP2 SLOAD DUP2 PUSH1 0xFF MUL NOT AND SWAP1 DUP4 ISZERO ISZERO MUL OR SWAP1 SSTORE POP JUMPDEST PUSH1 0x0 PUSH1 0x8 PUSH1 0x0 PUSH2 0x100 EXP DUP2 SLOAD DUP2 PUSH1 0xFF MUL NOT AND SWAP1 DUP4 ISZERO ISZERO MUL OR SWAP1 SSTORE POP JUMP JUMPDEST PUSH1 0x8 PUSH1 0x0 SWAP1 SLOAD SWAP1 PUSH2 0x100 EXP SWAP1 DIV PUSH1 0xFF AND ISZERO PUSH3 0x6D9 JUMPI PUSH1 0x40 MLOAD PUSH32 0x8C379A000000000000000000000000000000000000000000000000000000000 DUP2 MSTORE PUSH1 0x4 ADD PUSH3 0x6D0 SWAP1 PUSH3 0x29CA JUMP JUMPDEST PUSH1 0x40 MLOAD DUP1 SWAP2 SUB SWAP1 REVERT JUMPDEST PUSH1 0x1 PUSH1 0x8 PUSH1 0x0 PUSH2 0x100 EXP DUP2 SLOAD DUP2 PUSH1 0xFF MUL NOT AND SWAP1 DUP4 ISZERO ISZERO MUL OR SWAP1 SSTORE POP PUSH1 0xB PUSH1 0x0 SWAP1 SLOAD SWAP1 PUSH2 0x100 EXP SWAP1 DIV PUSH1 0xFF AND ISZERO PUSH3 0x747 JUMPI PUSH1 0x40 MLOAD PUSH32 0x8C379A000000000000000000000000000000000000000000000000000000000 DUP2 MSTORE PUSH1 0x4 ADD PUSH3 0x73E SWAP1 PUSH3 0x2A3C JUMP JUMPDEST PUSH1 0x40 MLOAD DUP1 SWAP2 SUB SWAP1 REVERT JUMPDEST PUSH1 0x4 PUSH1 0x0 CALLER PUSH20 0xFFFFFFFFFFFFFFFFFFFFFFFFFFFFFFFFFFFFFFFF AND PUSH20 0xFFFFFFFFFFFFFFFFFFFFFFFFFFFFFFFFFFFFFFFF AND DUP2 MSTORE PUSH1 0x20 ADD SWAP1 DUP2 MSTORE PUSH1 0x20 ADD PUSH1 0x0 KECCAK256 PUSH1 0x0 SWAP1 SLOAD SWAP1 PUSH2 0x100 EXP SWAP1 DIV PUSH1 0xFF AND PUSH3 0x7D6 JUMPI PUSH1 0x40 MLOAD PUSH32 0x8C379A000000000000000000000000000000000000000000000000000000000 DUP2 MSTORE PUSH1 0x4 ADD PUSH3 0x7CD SWAP1 PUSH3 0x2B6C JUMP JUMPDEST PUSH1 0x40 MLOAD DUP1 SWAP2 SUB SWAP1 REVERT JUMPDEST PUSH1 0xD DUP1 SLOAD SWAP1 POP DUP2 LT DUP1 ISZERO PUSH3 0x7EC JUMPI POP PUSH1 0x0 DUP2 LT ISZERO JUMPDEST PUSH3 0x82E JUMPI PUSH1 0x40 MLOAD PUSH32 0x8C379A000000000000000000000000000000000000000000000000000000000 DUP2 MSTORE PUSH1 0x4 ADD PUSH3 0x825 SWAP1 PUSH3 0x2BDE JUMP JUMPDEST PUSH1 0x40 MLOAD DUP1 SWAP2 SUB SWAP1 REVERT JUMPDEST PUSH1 0x0 PUSH1 0xD DUP3 DUP2 SLOAD DUP2 LT PUSH3 0x847 JUMPI PUSH3 0x846 PUSH3 0x2C00 JUMP JUMPDEST JUMPDEST SWAP1 PUSH1 0x0 MSTORE PUSH1 0x20 PUSH1 0x0 KECCAK256 SWAP1 PUSH1 0x8 MUL ADD SWAP1 POP PUSH1 0x1 DUP2 PUSH1 0x5 ADD PUSH1 0x0 CALLER PUSH20 0xFFFFFFFFFFFFFFFFFFFFFFFFFFFFFFFFFFFFFFFF AND PUSH20 0xFFFFFFFFFFFFFFFFFFFFFFFFFFFFFFFFFFFFFFFF AND DUP2 MSTORE PUSH1 0x20 ADD SWAP1 DUP2 MSTORE PUSH1 0x20 ADD PUSH1 0x0 KECCAK256 PUSH1 0x0 PUSH2 0x100 EXP DUP2 SLOAD DUP2 PUSH1 0xFF MUL NOT AND SWAP1 DUP4 ISZERO ISZERO MUL OR SWAP1 SSTORE POP PUSH3 0x8CB PUSH1 0x1 DUP3 PUSH1 0x6 ADD SLOAD PUSH3 0x1F6C SWAP1 SWAP2 SWAP1 PUSH4 0xFFFFFFFF AND JUMP JUMPDEST DUP2 PUSH1 0x6 ADD DUP2 SWAP1 SSTORE POP PUSH1 0x5 DUP1 SLOAD SWAP1 POP DUP2 PUSH1 0x6 ADD SLOAD EQ ISZERO PUSH3 0xC59 JUMPI PUSH1 0x1 DUP2 PUSH1 0x7 ADD PUSH1 0x0 PUSH2 0x100 EXP DUP2 SLOAD DUP2 PUSH1 0xFF MUL NOT AND SWAP1 DUP4 ISZERO ISZERO MUL OR SWAP1 SSTORE POP PUSH1 0x0 DUP2 PUSH1 0x2 ADD PUSH1 0x0 SWAP1 SLOAD SWAP1 PUSH2 0x100 EXP SWAP1 DIV PUSH20 0xFFFFFFFFFFFFFFFFFFFFFFFFFFFFFFFFFFFFFFFF AND ADDRESS DUP4 PUSH1 0x0 ADD DUP5 PUSH1 0x3 ADD PUSH1 0x0 SWAP1 SLOAD SWAP1 PUSH2 0x100 EXP SWAP1 DIV PUSH20 0xFFFFFFFFFFFFFFFFFFFFFFFFFFFFFFFFFFFFFFFF AND DUP6 PUSH1 0x4 ADD PUSH1 0x0 SWAP1 SLOAD SWAP1 PUSH2 0x100 EXP SWAP1 DIV PUSH20 0xFFFFFFFFFFFFFFFFFFFFFFFFFFFFFFFFFFFFFFFF AND PUSH1 0x40 MLOAD PUSH3 0x986 SWAP1 PUSH3 0x21AC JUMP JUMPDEST PUSH3 0x996 SWAP6 SWAP5 SWAP4 SWAP3 SWAP2 SWAP1 PUSH3 0x2D35 JUMP JUMPDEST PUSH1 0x40 MLOAD DUP1 SWAP2 SUB SWAP1 PUSH1 0x0 CREATE DUP1 ISZERO DUP1 ISZERO PUSH3 0x9B3 JUMPI RETURNDATASIZE PUSH1 0x0 DUP1 RETURNDATACOPY RETURNDATASIZE PUSH1 0x0 REVERT JUMPDEST POP SWAP1 POP PUSH1 0x0 PUSH20 0xFFFFFFFFFFFFFFFFFFFFFFFFFFFFFFFFFFFFFFFF AND DUP3 PUSH1 0x3 ADD PUSH1 0x0 SWAP1 SLOAD SWAP1 PUSH2 0x100 EXP SWAP1 DIV PUSH20 0xFFFFFFFFFFFFFFFFFFFFFFFFFFFFFFFFFFFFFFFF AND PUSH20 0xFFFFFFFFFFFFFFFFFFFFFFFFFFFFFFFFFFFFFFFF AND EQ PUSH3 0xAA9 JUMPI PUSH1 0x0 DUP3 PUSH1 0x3 ADD PUSH1 0x0 SWAP1 SLOAD SWAP1 PUSH2 0x100 EXP SWAP1 DIV PUSH20 0xFFFFFFFFFFFFFFFFFFFFFFFFFFFFFFFFFFFFFFFF AND SWAP1 POP DUP1 PUSH20 0xFFFFFFFFFFFFFFFFFFFFFFFFFFFFFFFFFFFFFFFF AND PUSH4 0x988E46C8 DUP4 PUSH1 0x40 MLOAD DUP3 PUSH4 0xFFFFFFFF AND PUSH1 0xE0 SHL DUP2 MSTORE PUSH1 0x4 ADD PUSH3 0xA73 SWAP2 SWAP1 PUSH3 0x26BC JUMP JUMPDEST PUSH1 0x0 PUSH1 0x40 MLOAD DUP1 DUP4 SUB DUP2 PUSH1 0x0 DUP8 DUP1 EXTCODESIZE ISZERO DUP1 ISZERO PUSH3 0xA8E JUMPI PUSH1 0x0 DUP1 REVERT JUMPDEST POP GAS CALL ISZERO DUP1 ISZERO PUSH3 0xAA3 JUMPI RETURNDATASIZE PUSH1 0x0 DUP1 RETURNDATACOPY RETURNDATASIZE PUSH1 0x0 REVERT JUMPDEST POP POP POP POP POP JUMPDEST PUSH1 0x0 PUSH20 0xFFFFFFFFFFFFFFFFFFFFFFFFFFFFFFFFFFFFFFFF AND DUP3 PUSH1 0x4 ADD PUSH1 0x0 SWAP1 SLOAD SWAP1 PUSH2 0x100 EXP SWAP1 DIV PUSH20 0xFFFFFFFFFFFFFFFFFFFFFFFFFFFFFFFFFFFFFFFF AND PUSH20 0xFFFFFFFFFFFFFFFFFFFFFFFFFFFFFFFFFFFFFFFF AND EQ PUSH3 0xB9C JUMPI PUSH1 0x0 DUP3 PUSH1 0x4 ADD PUSH1 0x0 SWAP1 SLOAD SWAP1 PUSH2 0x100 EXP SWAP1 DIV PUSH20 0xFFFFFFFFFFFFFFFFFFFFFFFFFFFFFFFFFFFFFFFF AND SWAP1 POP DUP1 PUSH20 0xFFFFFFFFFFFFFFFFFFFFFFFFFFFFFFFFFFFFFFFF AND PUSH4 0x8758CE83 DUP4 PUSH1 0x40 MLOAD DUP3 PUSH4 0xFFFFFFFF AND PUSH1 0xE0 SHL DUP2 MSTORE PUSH1 0x4 ADD PUSH3 0xB66 SWAP2 SWAP1 PUSH3 0x26BC JUMP JUMPDEST PUSH1 0x0 PUSH1 0x40 MLOAD DUP1 DUP4 SUB DUP2 PUSH1 0x0 DUP8 DUP1 EXTCODESIZE ISZERO DUP1 ISZERO PUSH3 0xB81 JUMPI PUSH1 0x0 DUP1 REVERT JUMPDEST POP GAS CALL ISZERO DUP1 ISZERO PUSH3 0xB96 JUMPI RETURNDATASIZE PUSH1 0x0 DUP1 RETURNDATACOPY RETURNDATASIZE PUSH1 0x0 REVERT JUMPDEST POP POP POP POP POP JUMPDEST PUSH1 0x7 DUP2 SWAP1 DUP1 PUSH1 0x1 DUP2 SLOAD ADD DUP1 DUP3 SSTORE DUP1 SWAP2 POP POP PUSH1 0x1 SWAP1 SUB SWAP1 PUSH1 0x0 MSTORE PUSH1 0x20 PUSH1 0x0 KECCAK256 ADD PUSH1 0x0 SWAP1 SWAP2 SWAP1 SWAP2 SWAP1 SWAP2 PUSH2 0x100 EXP DUP2 SLOAD DUP2 PUSH20 0xFFFFFFFFFFFFFFFFFFFFFFFFFFFFFFFFFFFFFFFF MUL NOT AND SWAP1 DUP4 PUSH20 0xFFFFFFFFFFFFFFFFFFFFFFFFFFFFFFFFFFFFFFFF AND MUL OR SWAP1 SSTORE POP PUSH1 0x1 PUSH1 0x6 PUSH1 0x0 DUP4 PUSH20 0xFFFFFFFFFFFFFFFFFFFFFFFFFFFFFFFFFFFFFFFF AND PUSH20 0xFFFFFFFFFFFFFFFFFFFFFFFFFFFFFFFFFFFFFFFF AND DUP2 MSTORE PUSH1 0x20 ADD SWAP1 DUP2 MSTORE PUSH1 0x20 ADD PUSH1 0x0 KECCAK256 PUSH1 0x0 PUSH2 0x100 EXP DUP2 SLOAD DUP2 PUSH1 0xFF MUL NOT AND SWAP1 DUP4 ISZERO ISZERO MUL OR SWAP1 SSTORE POP POP JUMPDEST POP PUSH1 0x0 PUSH1 0x8 PUSH1 0x0 PUSH2 0x100 EXP DUP2 SLOAD DUP2 PUSH1 0xFF MUL NOT AND SWAP1 DUP4 ISZERO ISZERO MUL OR SWAP1 SSTORE POP POP JUMP JUMPDEST PUSH1 0x4 PUSH1 0x0 CALLER PUSH20 0xFFFFFFFFFFFFFFFFFFFFFFFFFFFFFFFFFFFFFFFF AND PUSH20 0xFFFFFFFFFFFFFFFFFFFFFFFFFFFFFFFFFFFFFFFF AND DUP2 MSTORE PUSH1 0x20 ADD SWAP1 DUP2 MSTORE PUSH1 0x20 ADD PUSH1 0x0 KECCAK256 PUSH1 0x0 SWAP1 SLOAD SWAP1 PUSH2 0x100 EXP SWAP1 DIV PUSH1 0xFF AND PUSH3 0xD07 JUMPI PUSH1 0x40 MLOAD PUSH32 0x8C379A000000000000000000000000000000000000000000000000000000000 DUP2 MSTORE PUSH1 0x4 ADD PUSH3 0xCFE SWAP1 PUSH3 0x2E0F JUMP JUMPDEST PUSH1 0x40 MLOAD DUP1 SWAP2 SUB SWAP1 REVERT JUMPDEST PUSH1 0x0 PUSH1 0x5 DUP1 SLOAD SWAP1 POP SWAP1 POP PUSH1 0x0 PUSH3 0xD28 DUP3 SELFBALANCE PUSH3 0x1FCF SWAP1 SWAP2 SWAP1 PUSH4 0xFFFFFFFF AND JUMP JUMPDEST SWAP1 POP PUSH1 0x0 DUP2 GT PUSH3 0xD70 JUMPI PUSH1 0x40 MLOAD PUSH32 0x8C379A000000000000000000000000000000000000000000000000000000000 DUP2 MSTORE PUSH1 0x4 ADD PUSH3 0xD67 SWAP1 PUSH3 0x2E81 JUMP JUMPDEST PUSH1 0x40 MLOAD DUP1 SWAP2 SUB SWAP1 REVERT JUMPDEST PUSH1 0x0 JUMPDEST DUP3 DUP2 LT ISZERO PUSH3 0xE1B JUMPI PUSH1 0x5 DUP2 DUP2 SLOAD DUP2 LT PUSH3 0xD93 JUMPI PUSH3 0xD92 PUSH3 0x2C00 JUMP JUMPDEST JUMPDEST SWAP1 PUSH1 0x0 MSTORE PUSH1 0x20 PUSH1 0x0 KECCAK256 ADD PUSH1 0x0 SWAP1 SLOAD SWAP1 PUSH2 0x100 EXP SWAP1 DIV PUSH20 0xFFFFFFFFFFFFFFFFFFFFFFFFFFFFFFFFFFFFFFFF AND PUSH20 0xFFFFFFFFFFFFFFFFFFFFFFFFFFFFFFFFFFFFFFFF AND PUSH2 0x8FC DUP4 SWAP1 DUP2 ISZERO MUL SWAP1 PUSH1 0x40 MLOAD PUSH1 0x0 PUSH1 0x40 MLOAD DUP1 DUP4 SUB DUP2 DUP6 DUP9 DUP9 CALL SWAP4 POP POP POP POP ISZERO DUP1 ISZERO PUSH3 0xE04 JUMPI RETURNDATASIZE PUSH1 0x0 DUP1 RETURNDATACOPY RETURNDATASIZE PUSH1 0x0 REVERT JUMPDEST POP DUP1 DUP1 PUSH3 0xE12 SWAP1 PUSH3 0x2ED2 JUMP JUMPDEST SWAP2 POP POP PUSH3 0xD73 JUMP JUMPDEST POP POP POP JUMP JUMPDEST PUSH1 0x4 PUSH1 0x20 MSTORE DUP1 PUSH1 0x0 MSTORE PUSH1 0x40 PUSH1 0x0 KECCAK256 PUSH1 0x0 SWAP2 POP SLOAD SWAP1 PUSH2 0x100 EXP SWAP1 DIV PUSH1 0xFF AND DUP2 JUMP JUMPDEST PUSH1 0x0 PUSH1 0x60 DUP1 PUSH1 0x60 DUP1 PUSH1 0x60 PUSH1 0x0 DUP1 PUSH1 0x0 DUP1 PUSH1 0x0 DUP1 PUSH1 0x0 SWAP1 SLOAD SWAP1 PUSH2 0x100 EXP SWAP1 DIV PUSH20 0xFFFFFFFFFFFFFFFFFFFFFFFFFFFFFFFFFFFFFFFF AND PUSH1 0x1 PUSH1 0x2 PUSH1 0x3 PUSH1 0x5 PUSH1 0x7 PUSH1 0xC DUP1 SLOAD SWAP1 POP PUSH1 0xD DUP1 SLOAD SWAP1 POP PUSH1 0xA SLOAD PUSH1 0xB PUSH1 0x0 SWAP1 SLOAD SWAP1 PUSH2 0x100 EXP SWAP1 DIV PUSH1 0xFF AND SELFBALANCE DUP10 DUP1 SLOAD PUSH3 0xEAC SWAP1 PUSH3 0x2C5E JUMP JUMPDEST DUP1 PUSH1 0x1F ADD PUSH1 0x20 DUP1 SWAP2 DIV MUL PUSH1 0x20 ADD PUSH1 0x40 MLOAD SWAP1 DUP2 ADD PUSH1 0x40 MSTORE DUP1 SWAP3 SWAP2 SWAP1 DUP2 DUP2 MSTORE PUSH1 0x20 ADD DUP3 DUP1 SLOAD PUSH3 0xEDA SWAP1 PUSH3 0x2C5E JUMP JUMPDEST DUP1 ISZERO PUSH3 0xF2B JUMPI DUP1 PUSH1 0x1F LT PUSH3 0xEFF JUMPI PUSH2 0x100 DUP1 DUP4 SLOAD DIV MUL DUP4 MSTORE SWAP2 PUSH1 0x20 ADD SWAP2 PUSH3 0xF2B JUMP JUMPDEST DUP3 ADD SWAP2 SWAP1 PUSH1 0x0 MSTORE PUSH1 0x20 PUSH1 0x0 KECCAK256 SWAP1 JUMPDEST DUP2 SLOAD DUP2 MSTORE SWAP1 PUSH1 0x1 ADD SWAP1 PUSH1 0x20 ADD DUP1 DUP4 GT PUSH3 0xF0D JUMPI DUP3 SWAP1 SUB PUSH1 0x1F AND DUP3 ADD SWAP2 JUMPDEST POP POP POP POP POP SWAP10 POP DUP9 DUP1 SLOAD PUSH3 0xF40 SWAP1 PUSH3 0x2C5E JUMP JUMPDEST DUP1 PUSH1 0x1F ADD PUSH1 0x20 DUP1 SWAP2 DIV MUL PUSH1 0x20 ADD PUSH1 0x40 MLOAD SWAP1 DUP2 ADD PUSH1 0x40 MSTORE DUP1 SWAP3 SWAP2 SWAP1 DUP2 DUP2 MSTORE PUSH1 0x20 ADD DUP3 DUP1 SLOAD PUSH3 0xF6E SWAP1 PUSH3 0x2C5E JUMP JUMPDEST DUP1 ISZERO PUSH3 0xFBF JUMPI DUP1 PUSH1 0x1F LT PUSH3 0xF93 JUMPI PUSH2 0x100 DUP1 DUP4 SLOAD DIV MUL DUP4 MSTORE SWAP2 PUSH1 0x20 ADD SWAP2 PUSH3 0xFBF JUMP JUMPDEST DUP3 ADD SWAP2 SWAP1 PUSH1 0x0 MSTORE PUSH1 0x20 PUSH1 0x0 KECCAK256 SWAP1 JUMPDEST DUP2 SLOAD DUP2 MSTORE SWAP1 PUSH1 0x1 ADD SWAP1 PUSH1 0x20 ADD DUP1 DUP4 GT PUSH3 0xFA1 JUMPI DUP3 SWAP1 SUB PUSH1 0x1F AND DUP3 ADD SWAP2 JUMPDEST POP POP POP POP POP SWAP9 POP DUP8 DUP1 SLOAD PUSH3 0xFD4 SWAP1 PUSH3 0x2C5E JUMP JUMPDEST DUP1 PUSH1 0x1F ADD PUSH1 0x20 DUP1 SWAP2 DIV MUL PUSH1 0x20 ADD PUSH1 0x40 MLOAD SWAP1 DUP2 ADD PUSH1 0x40 MSTORE DUP1 SWAP3 SWAP2 SWAP1 DUP2 DUP2 MSTORE PUSH1 0x20 ADD DUP3 DUP1 SLOAD PUSH3 0x1002 SWAP1 PUSH3 0x2C5E JUMP JUMPDEST DUP1 ISZERO PUSH3 0x1053 JUMPI DUP1 PUSH1 0x1F LT PUSH3 0x1027 JUMPI PUSH2 0x100 DUP1 DUP4 SLOAD DIV MUL DUP4 MSTORE SWAP2 PUSH1 0x20 ADD SWAP2 PUSH3 0x1053 JUMP JUMPDEST DUP3 ADD SWAP2 SWAP1 PUSH1 0x0 MSTORE PUSH1 0x20 PUSH1 0x0 KECCAK256 SWAP1 JUMPDEST DUP2 SLOAD DUP2 MSTORE SWAP1 PUSH1 0x1 ADD SWAP1 PUSH1 0x20 ADD DUP1 DUP4 GT PUSH3 0x1035 JUMPI DUP3 SWAP1 SUB PUSH1 0x1F AND DUP3 ADD SWAP2 JUMPDEST POP POP POP POP POP SWAP8 POP DUP7 DUP1 SLOAD DUP1 PUSH1 0x20 MUL PUSH1 0x20 ADD PUSH1 0x40 MLOAD SWAP1 DUP2 ADD PUSH1 0x40 MSTORE DUP1 SWAP3 SWAP2 SWAP1 DUP2 DUP2 MSTORE PUSH1 0x20 ADD DUP3 DUP1 SLOAD DUP1 ISZERO PUSH3 0x10DD JUMPI PUSH1 0x20 MUL DUP3 ADD SWAP2 SWAP1 PUSH1 0x0 MSTORE PUSH1 0x20 PUSH1 0x0 KECCAK256 SWAP1 JUMPDEST DUP2 PUSH1 0x0 SWAP1 SLOAD SWAP1 PUSH2 0x100 EXP SWAP1 DIV PUSH20 0xFFFFFFFFFFFFFFFFFFFFFFFFFFFFFFFFFFFFFFFF AND PUSH20 0xFFFFFFFFFFFFFFFFFFFFFFFFFFFFFFFFFFFFFFFF AND DUP2 MSTORE PUSH1 0x20 ADD SWAP1 PUSH1 0x1 ADD SWAP1 DUP1 DUP4 GT PUSH3 0x1092 JUMPI JUMPDEST POP POP POP POP POP SWAP7 POP DUP6 DUP1 SLOAD DUP1 PUSH1 0x20 MUL PUSH1 0x20 ADD PUSH1 0x40 MLOAD SWAP1 DUP2 ADD PUSH1 0x40 MSTORE DUP1 SWAP3 SWAP2 SWAP1 DUP2 DUP2 MSTORE PUSH1 0x20 ADD DUP3 DUP1 SLOAD DUP1 ISZERO PUSH3 0x1167 JUMPI PUSH1 0x20 MUL DUP3 ADD SWAP2 SWAP1 PUSH1 0x0 MSTORE PUSH1 0x20 PUSH1 0x0 KECCAK256 SWAP1 JUMPDEST DUP2 PUSH1 0x0 SWAP1 SLOAD SWAP1 PUSH2 0x100 EXP SWAP1 DIV PUSH20 0xFFFFFFFFFFFFFFFFFFFFFFFFFFFFFFFFFFFFFFFF AND PUSH20 0xFFFFFFFFFFFFFFFFFFFFFFFFFFFFFFFFFFFFFFFF AND DUP2 MSTORE PUSH1 0x20 ADD SWAP1 PUSH1 0x1 ADD SWAP1 DUP1 DUP4 GT PUSH3 0x111C JUMPI JUMPDEST POP POP POP POP POP SWAP6 POP SWAP11 POP SWAP11 POP SWAP11 POP SWAP11 POP SWAP11 POP SWAP11 POP SWAP11 POP SWAP11 POP SWAP11 POP SWAP11 POP SWAP11 POP SWAP1 SWAP2 SWAP3 SWAP4 SWAP5 SWAP6 SWAP7 SWAP8 SWAP9 SWAP10 SWAP11 JUMP JUMPDEST PUSH1 0x0 PUSH1 0x4 PUSH1 0x0 CALLER PUSH20 0xFFFFFFFFFFFFFFFFFFFFFFFFFFFFFFFFFFFFFFFF AND PUSH20 0xFFFFFFFFFFFFFFFFFFFFFFFFFFFFFFFFFFFFFFFF AND DUP2 MSTORE PUSH1 0x20 ADD SWAP1 DUP2 MSTORE PUSH1 0x20 ADD PUSH1 0x0 KECCAK256 PUSH1 0x0 SWAP1 SLOAD SWAP1 PUSH2 0x100 EXP SWAP1 DIV PUSH1 0xFF AND SWAP1 POP SWAP1 JUMP JUMPDEST PUSH1 0xB PUSH1 0x0 SWAP1 SLOAD SWAP1 PUSH2 0x100 EXP SWAP1 DIV PUSH1 0xFF AND DUP2 JUMP JUMPDEST PUSH1 0xC DUP2 DUP2 SLOAD DUP2 LT PUSH3 0x1209 JUMPI PUSH1 0x0 DUP1 REVERT JUMPDEST SWAP1 PUSH1 0x0 MSTORE PUSH1 0x20 PUSH1 0x0 KECCAK256 SWAP1 PUSH1 0x6 MUL ADD PUSH1 0x0 SWAP2 POP SWAP1 POP DUP1 PUSH1 0x0 ADD DUP1 SLOAD PUSH3 0x122E SWAP1 PUSH3 0x2C5E JUMP JUMPDEST DUP1 PUSH1 0x1F ADD PUSH1 0x20 DUP1 SWAP2 DIV MUL PUSH1 0x20 ADD PUSH1 0x40 MLOAD SWAP1 DUP2 ADD PUSH1 0x40 MSTORE DUP1 SWAP3 SWAP2 SWAP1 DUP2 DUP2 MSTORE PUSH1 0x20 ADD DUP3 DUP1 SLOAD PUSH3 0x125C SWAP1 PUSH3 0x2C5E JUMP JUMPDEST DUP1 ISZERO PUSH3 0x12AD JUMPI DUP1 PUSH1 0x1F LT PUSH3 0x1281 JUMPI PUSH2 0x100 DUP1 DUP4 SLOAD DIV MUL DUP4 MSTORE SWAP2 PUSH1 0x20 ADD SWAP2 PUSH3 0x12AD JUMP JUMPDEST DUP3 ADD SWAP2 SWAP1 PUSH1 0x0 MSTORE PUSH1 0x20 PUSH1 0x0 KECCAK256 SWAP1 JUMPDEST DUP2 SLOAD DUP2 MSTORE SWAP1 PUSH1 0x1 ADD SWAP1 PUSH1 0x20 ADD DUP1 DUP4 GT PUSH3 0x128F JUMPI DUP3 SWAP1 SUB PUSH1 0x1F AND DUP3 ADD SWAP2 JUMPDEST POP POP POP POP POP SWAP1 DUP1 PUSH1 0x1 ADD SLOAD SWAP1 DUP1 PUSH1 0x2 ADD PUSH1 0x0 SWAP1 SLOAD SWAP1 PUSH2 0x100 EXP SWAP1 DIV PUSH20 0xFFFFFFFFFFFFFFFFFFFFFFFFFFFFFFFFFFFFFFFF AND SWAP1 DUP1 PUSH1 0x4 ADD SLOAD SWAP1 DUP1 PUSH1 0x5 ADD PUSH1 0x0 SWAP1 SLOAD SWAP1 PUSH2 0x100 EXP SWAP1 DIV PUSH1 0xFF AND SWAP1 POP DUP6 JUMP JUMPDEST PUSH1 0x6 PUSH1 0x20 MSTORE DUP1 PUSH1 0x0 MSTORE PUSH1 0x40 PUSH1 0x0 KECCAK256 PUSH1 0x0 SWAP2 POP SLOAD SWAP1 PUSH2 0x100 EXP SWAP1 DIV PUSH1 0xFF AND DUP2 JUMP JUMPDEST PUSH1 0xB PUSH1 0x0 SWAP1 SLOAD SWAP1 PUSH2 0x100 EXP SWAP1 DIV PUSH1 0xFF AND ISZERO PUSH3 0x136F JUMPI PUSH1 0x40 MLOAD PUSH32 0x8C379A000000000000000000000000000000000000000000000000000000000 DUP2 MSTORE PUSH1 0x4 ADD PUSH3 0x1366 SWAP1 PUSH3 0x2A3C JUMP JUMPDEST PUSH1 0x40 MLOAD DUP1 SWAP2 SUB SWAP1 REVERT JUMPDEST PUSH1 0x4 PUSH1 0x0 CALLER PUSH20 0xFFFFFFFFFFFFFFFFFFFFFFFFFFFFFFFFFFFFFFFF AND PUSH20 0xFFFFFFFFFFFFFFFFFFFFFFFFFFFFFFFFFFFFFFFF AND DUP2 MSTORE PUSH1 0x20 ADD SWAP1 DUP2 MSTORE PUSH1 0x20 ADD PUSH1 0x0 KECCAK256 PUSH1 0x0 SWAP1 SLOAD SWAP1 PUSH2 0x100 EXP SWAP1 DIV PUSH1 0xFF AND PUSH3 0x13FE JUMPI PUSH1 0x40 MLOAD PUSH32 0x8C379A000000000000000000000000000000000000000000000000000000000 DUP2 MSTORE PUSH1 0x4 ADD PUSH3 0x13F5 SWAP1 PUSH3 0x2B6C JUMP JUMPDEST PUSH1 0x40 MLOAD DUP1 SWAP2 SUB SWAP1 REVERT JUMPDEST PUSH1 0xC DUP1 SLOAD SWAP1 POP DUP2 LT DUP1 ISZERO PUSH3 0x1414 JUMPI POP PUSH1 0x0 DUP2 LT ISZERO JUMPDEST PUSH3 0x1456 JUMPI PUSH1 0x40 MLOAD PUSH32 0x8C379A000000000000000000000000000000000000000000000000000000000 DUP2 MSTORE PUSH1 0x4 ADD PUSH3 0x144D SWAP1 PUSH3 0x2BDE JUMP JUMPDEST PUSH1 0x40 MLOAD DUP1 SWAP2 SUB SWAP1 REVERT JUMPDEST PUSH1 0x0 PUSH1 0xC DUP3 DUP2 SLOAD DUP2 LT PUSH3 0x146F JUMPI PUSH3 0x146E PUSH3 0x2C00 JUMP JUMPDEST JUMPDEST SWAP1 PUSH1 0x0 MSTORE PUSH1 0x20 PUSH1 0x0 KECCAK256 SWAP1 PUSH1 0x6 MUL ADD SWAP1 POP DUP1 PUSH1 0x3 ADD PUSH1 0x0 CALLER PUSH20 0xFFFFFFFFFFFFFFFFFFFFFFFFFFFFFFFFFFFFFFFF AND PUSH20 0xFFFFFFFFFFFFFFFFFFFFFFFFFFFFFFFFFFFFFFFF AND DUP2 MSTORE PUSH1 0x20 ADD SWAP1 DUP2 MSTORE PUSH1 0x20 ADD PUSH1 0x0 KECCAK256 PUSH1 0x0 SWAP1 SLOAD SWAP1 PUSH2 0x100 EXP SWAP1 DIV PUSH1 0xFF AND ISZERO PUSH3 0x1511 JUMPI PUSH1 0x40 MLOAD PUSH32 0x8C379A000000000000000000000000000000000000000000000000000000000 DUP2 MSTORE PUSH1 0x4 ADD PUSH3 0x1508 SWAP1 PUSH3 0x2F96 JUMP JUMPDEST PUSH1 0x40 MLOAD DUP1 SWAP2 SUB SWAP1 REVERT JUMPDEST PUSH1 0x1 DUP2 PUSH1 0x3 ADD PUSH1 0x0 CALLER PUSH20 0xFFFFFFFFFFFFFFFFFFFFFFFFFFFFFFFFFFFFFFFF AND PUSH20 0xFFFFFFFFFFFFFFFFFFFFFFFFFFFFFFFFFFFFFFFF AND DUP2 MSTORE PUSH1 0x20 ADD SWAP1 DUP2 MSTORE PUSH1 0x20 ADD PUSH1 0x0 KECCAK256 PUSH1 0x0 PUSH2 0x100 EXP DUP2 SLOAD DUP2 PUSH1 0xFF MUL NOT AND SWAP1 DUP4 ISZERO ISZERO MUL OR SWAP1 SSTORE POP PUSH3 0x1585 PUSH1 0x1 DUP3 PUSH1 0x4 ADD SLOAD PUSH3 0x1F6C SWAP1 SWAP2 SWAP1 PUSH4 0xFFFFFFFF AND JUMP JUMPDEST DUP2 PUSH1 0x4 ADD DUP2 SWAP1 SSTORE POP PUSH1 0x5 DUP1 SLOAD SWAP1 POP DUP2 PUSH1 0x4 ADD SLOAD EQ ISZERO PUSH3 0x16C0 JUMPI PUSH1 0x1 DUP2 PUSH1 0x5 ADD PUSH1 0x0 PUSH2 0x100 EXP DUP2 SLOAD DUP2 PUSH1 0xFF MUL NOT AND SWAP1 DUP4 ISZERO ISZERO MUL OR SWAP1 SSTORE POP PUSH1 0x1 PUSH1 0x4 PUSH1 0x0 DUP4 PUSH1 0x2 ADD PUSH1 0x0 SWAP1 SLOAD SWAP1 PUSH2 0x100 EXP SWAP1 DIV PUSH20 0xFFFFFFFFFFFFFFFFFFFFFFFFFFFFFFFFFFFFFFFF AND PUSH20 0xFFFFFFFFFFFFFFFFFFFFFFFFFFFFFFFFFFFFFFFF AND PUSH20 0xFFFFFFFFFFFFFFFFFFFFFFFFFFFFFFFFFFFFFFFF AND DUP2 MSTORE PUSH1 0x20 ADD SWAP1 DUP2 MSTORE PUSH1 0x20 ADD PUSH1 0x0 KECCAK256 PUSH1 0x0 PUSH2 0x100 EXP DUP2 SLOAD DUP2 PUSH1 0xFF MUL NOT AND SWAP1 DUP4 ISZERO ISZERO MUL OR SWAP1 SSTORE POP PUSH1 0x5 DUP2 PUSH1 0x2 ADD PUSH1 0x0 SWAP1 SLOAD SWAP1 PUSH2 0x100 EXP SWAP1 DIV PUSH20 0xFFFFFFFFFFFFFFFFFFFFFFFFFFFFFFFFFFFFFFFF AND SWAP1 DUP1 PUSH1 0x1 DUP2 SLOAD ADD DUP1 DUP3 SSTORE DUP1 SWAP2 POP POP PUSH1 0x1 SWAP1 SUB SWAP1 PUSH1 0x0 MSTORE PUSH1 0x20 PUSH1 0x0 KECCAK256 ADD PUSH1 0x0 SWAP1 SWAP2 SWAP1 SWAP2 SWAP1 SWAP2 PUSH2 0x100 EXP DUP2 SLOAD DUP2 PUSH20 0xFFFFFFFFFFFFFFFFFFFFFFFFFFFFFFFFFFFFFFFF MUL NOT AND SWAP1 DUP4 PUSH20 0xFFFFFFFFFFFFFFFFFFFFFFFFFFFFFFFFFFFFFFFF AND MUL OR SWAP1 SSTORE POP JUMPDEST POP POP JUMP JUMPDEST PUSH1 0x60 PUSH1 0x7 DUP1 SLOAD DUP1 PUSH1 0x20 MUL PUSH1 0x20 ADD PUSH1 0x40 MLOAD SWAP1 DUP2 ADD PUSH1 0x40 MSTORE DUP1 SWAP3 SWAP2 SWAP1 DUP2 DUP2 MSTORE PUSH1 0x20 ADD DUP3 DUP1 SLOAD DUP1 ISZERO PUSH3 0x174A JUMPI PUSH1 0x20 MUL DUP3 ADD SWAP2 SWAP1 PUSH1 0x0 MSTORE PUSH1 0x20 PUSH1 0x0 KECCAK256 SWAP1 JUMPDEST DUP2 PUSH1 0x0 SWAP1 SLOAD SWAP1 PUSH2 0x100 EXP SWAP1 DIV PUSH20 0xFFFFFFFFFFFFFFFFFFFFFFFFFFFFFFFFFFFFFFFF AND PUSH20 0xFFFFFFFFFFFFFFFFFFFFFFFFFFFFFFFFFFFFFFFF AND DUP2 MSTORE PUSH1 0x20 ADD SWAP1 PUSH1 0x1 ADD SWAP1 DUP1 DUP4 GT PUSH3 0x16FF JUMPI JUMPDEST POP POP POP POP POP SWAP1 POP SWAP1 JUMP JUMPDEST PUSH1 0x5 DUP2 DUP2 SLOAD DUP2 LT PUSH3 0x1765 JUMPI PUSH1 0x0 DUP1 REVERT JUMPDEST SWAP1 PUSH1 0x0 MSTORE PUSH1 0x20 PUSH1 0x0 KECCAK256 ADD PUSH1 0x0 SWAP2 POP SLOAD SWAP1 PUSH2 0x100 EXP SWAP1 DIV PUSH20 0xFFFFFFFFFFFFFFFFFFFFFFFFFFFFFFFFFFFFFFFF AND DUP2 JUMP JUMPDEST PUSH1 0x7 DUP2 DUP2 SLOAD DUP2 LT PUSH3 0x17A5 JUMPI PUSH1 0x0 DUP1 REVERT JUMPDEST SWAP1 PUSH1 0x0 MSTORE PUSH1 0x20 PUSH1 0x0 KECCAK256 ADD PUSH1 0x0 SWAP2 POP SLOAD SWAP1 PUSH2 0x100 EXP SWAP1 DIV PUSH20 0xFFFFFFFFFFFFFFFFFFFFFFFFFFFFFFFFFFFFFFFF AND DUP2 JUMP JUMPDEST PUSH1 0x8 PUSH1 0x0 SWAP1 SLOAD SWAP1 PUSH2 0x100 EXP SWAP1 DIV PUSH1 0xFF AND ISZERO PUSH3 0x1827 JUMPI PUSH1 0x40 MLOAD PUSH32 0x8C379A000000000000000000000000000000000000000000000000000000000 DUP2 MSTORE PUSH1 0x4 ADD PUSH3 0x181E SWAP1 PUSH3 0x29CA JUMP JUMPDEST PUSH1 0x40 MLOAD DUP1 SWAP2 SUB SWAP1 REVERT JUMPDEST PUSH1 0x1 PUSH1 0x8 PUSH1 0x0 PUSH2 0x100 EXP DUP2 SLOAD DUP2 PUSH1 0xFF MUL NOT AND SWAP1 DUP4 ISZERO ISZERO MUL OR SWAP1 SSTORE POP PUSH1 0xB PUSH1 0x0 SWAP1 SLOAD SWAP1 PUSH2 0x100 EXP SWAP1 DIV PUSH1 0xFF AND ISZERO PUSH3 0x1895 JUMPI PUSH1 0x40 MLOAD PUSH32 0x8C379A000000000000000000000000000000000000000000000000000000000 DUP2 MSTORE PUSH1 0x4 ADD PUSH3 0x188C SWAP1 PUSH3 0x2A3C JUMP JUMPDEST PUSH1 0x40 MLOAD DUP1 SWAP2 SUB SWAP1 REVERT JUMPDEST PUSH1 0x4 PUSH1 0x0 CALLER PUSH20 0xFFFFFFFFFFFFFFFFFFFFFFFFFFFFFFFFFFFFFFFF AND PUSH20 0xFFFFFFFFFFFFFFFFFFFFFFFFFFFFFFFFFFFFFFFF AND DUP2 MSTORE PUSH1 0x20 ADD SWAP1 DUP2 MSTORE PUSH1 0x20 ADD PUSH1 0x0 KECCAK256 PUSH1 0x0 SWAP1 SLOAD SWAP1 PUSH2 0x100 EXP SWAP1 DIV PUSH1 0xFF AND PUSH3 0x1924 JUMPI PUSH1 0x40 MLOAD PUSH32 0x8C379A000000000000000000000000000000000000000000000000000000000 DUP2 MSTORE PUSH1 0x4 ADD PUSH3 0x191B SWAP1 PUSH3 0x302E JUMP JUMPDEST PUSH1 0x40 MLOAD DUP1 SWAP2 SUB SWAP1 REVERT JUMPDEST PUSH3 0x192F DUP3 PUSH3 0x202C JUMP JUMPDEST PUSH3 0x1971 JUMPI PUSH1 0x40 MLOAD PUSH32 0x8C379A000000000000000000000000000000000000000000000000000000000 DUP2 MSTORE PUSH1 0x4 ADD PUSH3 0x1968 SWAP1 PUSH3 0x30C6 JUMP JUMPDEST PUSH1 0x40 MLOAD DUP1 SWAP2 SUB SWAP1 REVERT JUMPDEST PUSH3 0x197C DUP2 PUSH3 0x202C JUMP JUMPDEST PUSH3 0x19BE JUMPI PUSH1 0x40 MLOAD PUSH32 0x8C379A000000000000000000000000000000000000000000000000000000000 DUP2 MSTORE PUSH1 0x4 ADD PUSH3 0x19B5 SWAP1 PUSH3 0x3138 JUMP JUMPDEST PUSH1 0x40 MLOAD DUP1 SWAP2 SUB SWAP1 REVERT JUMPDEST PUSH3 0x19C9 DUP3 PUSH3 0x2080 JUMP JUMPDEST PUSH3 0x1A0B JUMPI PUSH1 0x40 MLOAD PUSH32 0x8C379A000000000000000000000000000000000000000000000000000000000 DUP2 MSTORE PUSH1 0x4 ADD PUSH3 0x1A02 SWAP1 PUSH3 0x31D0 JUMP JUMPDEST PUSH1 0x40 MLOAD DUP1 SWAP2 SUB SWAP1 REVERT JUMPDEST PUSH3 0x1A16 DUP2 PUSH3 0x2116 JUMP JUMPDEST PUSH3 0x1A58 JUMPI PUSH1 0x40 MLOAD PUSH32 0x8C379A000000000000000000000000000000000000000000000000000000000 DUP2 MSTORE PUSH1 0x4 ADD PUSH3 0x1A4F SWAP1 PUSH3 0x3268 JUMP JUMPDEST PUSH1 0x40 MLOAD DUP1 SWAP2 SUB SWAP1 REVERT JUMPDEST PUSH1 0x0 PUSH1 0xD PUSH1 0x1 DUP2 PUSH1 0x1 DUP2 SLOAD ADD DUP1 DUP3 SSTORE DUP1 SWAP2 POP POP SUB SWAP1 PUSH1 0x0 MSTORE PUSH1 0x20 PUSH1 0x0 KECCAK256 SWAP1 PUSH1 0x8 MUL ADD SWAP1 POP DUP4 DUP2 PUSH1 0x0 ADD SWAP1 DUP1 MLOAD SWAP1 PUSH1 0x20 ADD SWAP1 PUSH3 0x1A96 SWAP3 SWAP2 SWAP1 PUSH3 0x21BA JUMP JUMPDEST POP TIMESTAMP DUP2 PUSH1 0x1 ADD DUP2 SWAP1 SSTORE POP CALLER DUP2 PUSH1 0x2 ADD PUSH1 0x0 PUSH2 0x100 EXP DUP2 SLOAD DUP2 PUSH20 0xFFFFFFFFFFFFFFFFFFFFFFFFFFFFFFFFFFFFFFFF MUL NOT AND SWAP1 DUP4 PUSH20 0xFFFFFFFFFFFFFFFFFFFFFFFFFFFFFFFFFFFFFFFF AND MUL OR SWAP1 SSTORE POP DUP3 DUP2 PUSH1 0x3 ADD PUSH1 0x0 PUSH2 0x100 EXP DUP2 SLOAD DUP2 PUSH20 0xFFFFFFFFFFFFFFFFFFFFFFFFFFFFFFFFFFFFFFFF MUL NOT AND SWAP1 DUP4 PUSH20 0xFFFFFFFFFFFFFFFFFFFFFFFFFFFFFFFFFFFFFFFF AND MUL OR SWAP1 SSTORE POP DUP2 DUP2 PUSH1 0x4 ADD PUSH1 0x0 PUSH2 0x100 EXP DUP2 SLOAD DUP2 PUSH20 0xFFFFFFFFFFFFFFFFFFFFFFFFFFFFFFFFFFFFFFFF MUL NOT AND SWAP1 DUP4 PUSH20 0xFFFFFFFFFFFFFFFFFFFFFFFFFFFFFFFFFFFFFFFF AND MUL OR SWAP1 SSTORE POP PUSH1 0x0 DUP2 PUSH1 0x6 ADD DUP2 SWAP1 SSTORE POP PUSH1 0x0 DUP2 PUSH1 0x7 ADD PUSH1 0x0 PUSH2 0x100 EXP DUP2 SLOAD DUP2 PUSH1 0xFF MUL NOT AND SWAP1 DUP4 ISZERO ISZERO MUL OR SWAP1 SSTORE POP POP PUSH1 0x0 PUSH1 0x8 PUSH1 0x0 PUSH2 0x100 EXP DUP2 SLOAD DUP2 PUSH1 0xFF MUL NOT AND SWAP1 DUP4 ISZERO ISZERO MUL OR SWAP1 SSTORE POP POP POP POP JUMP JUMPDEST PUSH1 0x8 PUSH1 0x0 SWAP1 SLOAD SWAP1 PUSH2 0x100 EXP SWAP1 DIV PUSH1 0xFF AND ISZERO PUSH3 0x1C04 JUMPI PUSH1 0x40 MLOAD PUSH32 0x8C379A000000000000000000000000000000000000000000000000000000000 DUP2 MSTORE PUSH1 0x4 ADD PUSH3 0x1BFB SWAP1 PUSH3 0x29CA JUMP JUMPDEST PUSH1 0x40 MLOAD DUP1 SWAP2 SUB SWAP1 REVERT JUMPDEST PUSH1 0x1 PUSH1 0x8 PUSH1 0x0 PUSH2 0x100 EXP DUP2 SLOAD DUP2 PUSH1 0xFF MUL NOT AND SWAP1 DUP4 ISZERO ISZERO MUL OR SWAP1 SSTORE POP PUSH1 0x64 CALLVALUE LT ISZERO PUSH3 0x1C66 JUMPI PUSH1 0x40 MLOAD PUSH32 0x8C379A000000000000000000000000000000000000000000000000000000000 DUP2 MSTORE PUSH1 0x4 ADD PUSH3 0x1C5D SWAP1 PUSH3 0x32DA JUMP JUMPDEST PUSH1 0x40 MLOAD DUP1 SWAP2 SUB SWAP1 REVERT JUMPDEST PUSH1 0x0 PUSH1 0x8 PUSH1 0x0 PUSH2 0x100 EXP DUP2 SLOAD DUP2 PUSH1 0xFF MUL NOT AND SWAP1 DUP4 ISZERO ISZERO MUL OR SWAP1 SSTORE POP JUMP JUMPDEST PUSH1 0xB PUSH1 0x0 SWAP1 SLOAD SWAP1 PUSH2 0x100 EXP SWAP1 DIV PUSH1 0xFF AND ISZERO PUSH3 0x1CD6 JUMPI PUSH1 0x40 MLOAD PUSH32 0x8C379A000000000000000000000000000000000000000000000000000000000 DUP2 MSTORE PUSH1 0x4 ADD PUSH3 0x1CCD SWAP1 PUSH3 0x2A3C JUMP JUMPDEST PUSH1 0x40 MLOAD DUP1 SWAP2 SUB SWAP1 REVERT JUMPDEST PUSH1 0x4 PUSH1 0x0 CALLER PUSH20 0xFFFFFFFFFFFFFFFFFFFFFFFFFFFFFFFFFFFFFFFF AND PUSH20 0xFFFFFFFFFFFFFFFFFFFFFFFFFFFFFFFFFFFFFFFF AND DUP2 MSTORE PUSH1 0x20 ADD SWAP1 DUP2 MSTORE PUSH1 0x20 ADD PUSH1 0x0 KECCAK256 PUSH1 0x0 SWAP1 SLOAD SWAP1 PUSH2 0x100 EXP SWAP1 DIV PUSH1 0xFF AND ISZERO PUSH3 0x1D66 JUMPI PUSH1 0x40 MLOAD PUSH32 0x8C379A000000000000000000000000000000000000000000000000000000000 DUP2 MSTORE PUSH1 0x4 ADD PUSH3 0x1D5D SWAP1 PUSH3 0x3372 JUMP JUMPDEST PUSH1 0x40 MLOAD DUP1 SWAP2 SUB SWAP1 REVERT JUMPDEST PUSH1 0x0 PUSH1 0xC PUSH1 0x1 DUP2 PUSH1 0x1 DUP2 SLOAD ADD DUP1 DUP3 SSTORE DUP1 SWAP2 POP POP SUB SWAP1 PUSH1 0x0 MSTORE PUSH1 0x20 PUSH1 0x0 KECCAK256 SWAP1 PUSH1 0x6 MUL ADD SWAP1 POP DUP2 DUP2 PUSH1 0x0 ADD SWAP1 DUP1 MLOAD SWAP1 PUSH1 0x20 ADD SWAP1 PUSH3 0x1DA4 SWAP3 SWAP2 SWAP1 PUSH3 0x21BA JUMP JUMPDEST POP TIMESTAMP DUP2 PUSH1 0x1 ADD DUP2 SWAP1 SSTORE POP CALLER DUP2 PUSH1 0x2 ADD PUSH1 0x0 PUSH2 0x100 EXP DUP2 SLOAD DUP2 PUSH20 0xFFFFFFFFFFFFFFFFFFFFFFFFFFFFFFFFFFFFFFFF MUL NOT AND SWAP1 DUP4 PUSH20 0xFFFFFFFFFFFFFFFFFFFFFFFFFFFFFFFFFFFFFFFF AND MUL OR SWAP1 SSTORE POP PUSH1 0x0 DUP2 PUSH1 0x4 ADD DUP2 SWAP1 SSTORE POP PUSH1 0x0 DUP2 PUSH1 0x5 ADD PUSH1 0x0 PUSH2 0x100 EXP DUP2 SLOAD DUP2 PUSH1 0xFF MUL NOT AND SWAP1 DUP4 ISZERO ISZERO MUL OR SWAP1 SSTORE POP POP POP JUMP JUMPDEST PUSH1 0xD DUP2 DUP2 SLOAD DUP2 LT PUSH3 0x1E2D JUMPI PUSH1 0x0 DUP1 REVERT JUMPDEST SWAP1 PUSH1 0x0 MSTORE PUSH1 0x20 PUSH1 0x0 KECCAK256 SWAP1 PUSH1 0x8 MUL ADD PUSH1 0x0 SWAP2 POP SWAP1 POP DUP1 PUSH1 0x0 ADD DUP1 SLOAD PUSH3 0x1E52 SWAP1 PUSH3 0x2C5E JUMP JUMPDEST DUP1 PUSH1 0x1F ADD PUSH1 0x20 DUP1 SWAP2 DIV MUL PUSH1 0x20 ADD PUSH1 0x40 MLOAD SWAP1 DUP2 ADD PUSH1 0x40 MSTORE DUP1 SWAP3 SWAP2 SWAP1 DUP2 DUP2 MSTORE PUSH1 0x20 ADD DUP3 DUP1 SLOAD PUSH3 0x1E80 SWAP1 PUSH3 0x2C5E JUMP JUMPDEST DUP1 ISZERO PUSH3 0x1ED1 JUMPI DUP1 PUSH1 0x1F LT PUSH3 0x1EA5 JUMPI PUSH2 0x100 DUP1 DUP4 SLOAD DIV MUL DUP4 MSTORE SWAP2 PUSH1 0x20 ADD SWAP2 PUSH3 0x1ED1 JUMP JUMPDEST DUP3 ADD SWAP2 SWAP1 PUSH1 0x0 MSTORE PUSH1 0x20 PUSH1 0x0 KECCAK256 SWAP1 JUMPDEST DUP2 SLOAD DUP2 MSTORE SWAP1 PUSH1 0x1 ADD SWAP1 PUSH1 0x20 ADD DUP1 DUP4 GT PUSH3 0x1EB3 JUMPI DUP3 SWAP1 SUB PUSH1 0x1F AND DUP3 ADD SWAP2 JUMPDEST POP POP POP POP POP SWAP1 DUP1 PUSH1 0x1 ADD SLOAD SWAP1 DUP1 PUSH1 0x2 ADD PUSH1 0x0 SWAP1 SLOAD SWAP1 PUSH2 0x100 EXP SWAP1 DIV PUSH20 0xFFFFFFFFFFFFFFFFFFFFFFFFFFFFFFFFFFFFFFFF AND SWAP1 DUP1 PUSH1 0x3 ADD PUSH1 0x0 SWAP1 SLOAD SWAP1 PUSH2 0x100 EXP SWAP1 DIV PUSH20 0xFFFFFFFFFFFFFFFFFFFFFFFFFFFFFFFFFFFFFFFF AND SWAP1 DUP1 PUSH1 0x4 ADD PUSH1 0x0 SWAP1 SLOAD SWAP1 PUSH2 0x100 EXP SWAP1 DIV PUSH20 0xFFFFFFFFFFFFFFFFFFFFFFFFFFFFFFFFFFFFFFFF AND SWAP1 DUP1 PUSH1 0x6 ADD SLOAD SWAP1 DUP1 PUSH1 0x7 ADD PUSH1 0x0 SWAP1 SLOAD SWAP1 PUSH2 0x100 EXP SWAP1 DIV PUSH1 0xFF AND SWAP1 POP DUP8 JUMP JUMPDEST PUSH1 0x0 DUP1 DUP3 DUP5 PUSH3 0x1F7D SWAP2 SWAP1 PUSH3 0x3394 JUMP JUMPDEST SWAP1 POP DUP4 DUP2 LT ISZERO PUSH3 0x1FC5 JUMPI PUSH1 0x40 MLOAD PUSH32 0x8C379A000000000000000000000000000000000000000000000000000000000 DUP2 MSTORE PUSH1 0x4 ADD PUSH3 0x1FBC SWAP1 PUSH3 0x3441 JUMP JUMPDEST PUSH1 0x40 MLOAD DUP1 SWAP2 SUB SWAP1 REVERT JUMPDEST DUP1 SWAP2 POP POP SWAP3 SWAP2 POP POP JUMP JUMPDEST PUSH1 0x0 DUP1 DUP3 GT PUSH3 0x2016 JUMPI PUSH1 0x40 MLOAD PUSH32 0x8C379A000000000000000000000000000000000000000000000000000000000 DUP2 MSTORE PUSH1 0x4 ADD PUSH3 0x200D SWAP1 PUSH3 0x34B3 JUMP JUMPDEST PUSH1 0x40 MLOAD DUP1 SWAP2 SUB SWAP1 REVERT JUMPDEST DUP2 DUP4 PUSH3 0x2024 SWAP2 SWAP1 PUSH3 0x3504 JUMP JUMPDEST SWAP1 POP SWAP3 SWAP2 POP POP JUMP JUMPDEST PUSH1 0x0 DUP1 PUSH20 0xFFFFFFFFFFFFFFFFFFFFFFFFFFFFFFFFFFFFFFFF AND DUP3 PUSH20 0xFFFFFFFFFFFFFFFFFFFFFFFFFFFFFFFFFFFFFFFF AND EQ ISZERO PUSH3 0x206D JUMPI PUSH1 0x1 SWAP1 POP PUSH3 0x207B JUMP JUMPDEST PUSH1 0x0 DUP3 EXTCODESIZE SWAP1 POP PUSH1 0x0 DUP2 GT SWAP2 POP POP JUMPDEST SWAP2 SWAP1 POP JUMP JUMPDEST PUSH1 0x0 DUP1 PUSH20 0xFFFFFFFFFFFFFFFFFFFFFFFFFFFFFFFFFFFFFFFF AND DUP3 PUSH20 0xFFFFFFFFFFFFFFFFFFFFFFFFFFFFFFFFFFFFFFFF AND EQ ISZERO PUSH3 0x20C1 JUMPI PUSH1 0x1 SWAP1 POP PUSH3 0x2111 JUMP JUMPDEST PUSH1 0x6 PUSH1 0x0 DUP4 PUSH20 0xFFFFFFFFFFFFFFFFFFFFFFFFFFFFFFFFFFFFFFFF AND PUSH20 0xFFFFFFFFFFFFFFFFFFFFFFFFFFFFFFFFFFFFFFFF AND DUP2 MSTORE PUSH1 0x20 ADD SWAP1 DUP2 MSTORE PUSH1 0x20 ADD PUSH1 0x0 KECCAK256 PUSH1 0x0 SWAP1 SLOAD SWAP1 PUSH2 0x100 EXP SWAP1 DIV PUSH1 0xFF AND SWAP1 POP JUMPDEST SWAP2 SWAP1 POP JUMP JUMPDEST PUSH1 0x0 DUP1 PUSH20 0xFFFFFFFFFFFFFFFFFFFFFFFFFFFFFFFFFFFFFFFF AND DUP3 PUSH20 0xFFFFFFFFFFFFFFFFFFFFFFFFFFFFFFFFFFFFFFFF AND EQ ISZERO PUSH3 0x2157 JUMPI PUSH1 0x1 SWAP1 POP PUSH3 0x21A7 JUMP JUMPDEST PUSH1 0x6 PUSH1 0x0 DUP4 PUSH20 0xFFFFFFFFFFFFFFFFFFFFFFFFFFFFFFFFFFFFFFFF AND PUSH20 0xFFFFFFFFFFFFFFFFFFFFFFFFFFFFFFFFFFFFFFFF AND DUP2 MSTORE PUSH1 0x20 ADD SWAP1 DUP2 MSTORE PUSH1 0x20 ADD PUSH1 0x0 KECCAK256 PUSH1 0x0 SWAP1 SLOAD SWAP1 PUSH2 0x100 EXP SWAP1 DIV PUSH1 0xFF AND SWAP1 POP JUMPDEST SWAP2 SWAP1 POP JUMP JUMPDEST PUSH2 0x144B DUP1 PUSH3 0x353D DUP4 CODECOPY ADD SWAP1 JUMP JUMPDEST DUP3 DUP1 SLOAD PUSH3 0x21C8 SWAP1 PUSH3 0x2C5E JUMP JUMPDEST SWAP1 PUSH1 0x0 MSTORE PUSH1 0x20 PUSH1 0x0 KECCAK256 SWAP1 PUSH1 0x1F ADD PUSH1 0x20 SWAP1 DIV DUP2 ADD SWAP3 DUP3 PUSH3 0x21EC JUMPI PUSH1 0x0 DUP6 SSTORE PUSH3 0x2238 JUMP JUMPDEST DUP3 PUSH1 0x1F LT PUSH3 0x2207 JUMPI DUP1 MLOAD PUSH1 0xFF NOT AND DUP4 DUP1 ADD OR DUP6 SSTORE PUSH3 0x2238 JUMP JUMPDEST DUP3 DUP1 ADD PUSH1 0x1 ADD DUP6 SSTORE DUP3 ISZERO PUSH3 0x2238 JUMPI SWAP2 DUP3 ADD JUMPDEST DUP3 DUP2 GT ISZERO PUSH3 0x2237 JUMPI DUP3 MLOAD DUP3 SSTORE SWAP2 PUSH1 0x20 ADD SWAP2 SWAP1 PUSH1 0x1 ADD SWAP1 PUSH3 0x221A JUMP JUMPDEST JUMPDEST POP SWAP1 POP PUSH3 0x2247 SWAP2 SWAP1 PUSH3 0x224B JUMP JUMPDEST POP SWAP1 JUMP JUMPDEST JUMPDEST DUP1 DUP3 GT ISZERO PUSH3 0x2266 JUMPI PUSH1 0x0 DUP2 PUSH1 0x0 SWAP1 SSTORE POP PUSH1 0x1 ADD PUSH3 0x224C JUMP JUMPDEST POP SWAP1 JUMP JUMPDEST PUSH1 0x0 PUSH1 0x40 MLOAD SWAP1 POP SWAP1 JUMP JUMPDEST PUSH1 0x0 DUP1 REVERT JUMPDEST PUSH1 0x0 DUP1 REVERT JUMPDEST PUSH1 0x0 DUP2 SWAP1 POP SWAP2 SWAP1 POP JUMP JUMPDEST PUSH3 0x2293 DUP2 PUSH3 0x227E JUMP JUMPDEST DUP2 EQ PUSH3 0x229F JUMPI PUSH1 0x0 DUP1 REVERT JUMPDEST POP JUMP JUMPDEST PUSH1 0x0 DUP2 CALLDATALOAD SWAP1 POP PUSH3 0x22B3 DUP2 PUSH3 0x2288 JUMP JUMPDEST SWAP3 SWAP2 POP POP JUMP JUMPDEST PUSH1 0x0 PUSH1 0x20 DUP3 DUP5 SUB SLT ISZERO PUSH3 0x22D2 JUMPI PUSH3 0x22D1 PUSH3 0x2274 JUMP JUMPDEST JUMPDEST PUSH1 0x0 PUSH3 0x22E2 DUP5 DUP3 DUP6 ADD PUSH3 0x22A2 JUMP JUMPDEST SWAP2 POP POP SWAP3 SWAP2 POP POP JUMP JUMPDEST PUSH1 0x0 PUSH20 0xFFFFFFFFFFFFFFFFFFFFFFFFFFFFFFFFFFFFFFFF DUP3 AND SWAP1 POP SWAP2 SWAP1 POP JUMP JUMPDEST PUSH1 0x0 PUSH3 0x2318 DUP3 PUSH3 0x22EB JUMP JUMPDEST SWAP1 POP SWAP2 SWAP1 POP JUMP JUMPDEST PUSH3 0x232A DUP2 PUSH3 0x230B JUMP JUMPDEST DUP2 EQ PUSH3 0x2336 JUMPI PUSH1 0x0 DUP1 REVERT JUMPDEST POP JUMP JUMPDEST PUSH1 0x0 DUP2 CALLDATALOAD SWAP1 POP PUSH3 0x234A DUP2 PUSH3 0x231F JUMP JUMPDEST SWAP3 SWAP2 POP POP JUMP JUMPDEST PUSH1 0x0 PUSH1 0x20 DUP3 DUP5 SUB SLT ISZERO PUSH3 0x2369 JUMPI PUSH3 0x2368 PUSH3 0x2274 JUMP JUMPDEST JUMPDEST PUSH1 0x0 PUSH3 0x2379 DUP5 DUP3 DUP6 ADD PUSH3 0x2339 JUMP JUMPDEST SWAP2 POP POP SWAP3 SWAP2 POP POP JUMP JUMPDEST PUSH1 0x0 DUP2 ISZERO ISZERO SWAP1 POP SWAP2 SWAP1 POP JUMP JUMPDEST PUSH3 0x2399 DUP2 PUSH3 0x2382 JUMP JUMPDEST DUP3 MSTORE POP POP JUMP JUMPDEST PUSH1 0x0 PUSH1 0x20 DUP3 ADD SWAP1 POP PUSH3 0x23B6 PUSH1 0x0 DUP4 ADD DUP5 PUSH3 0x238E JUMP JUMPDEST SWAP3 SWAP2 POP POP JUMP JUMPDEST PUSH3 0x23C7 DUP2 PUSH3 0x230B JUMP JUMPDEST DUP3 MSTORE POP POP JUMP JUMPDEST PUSH1 0x0 DUP2 MLOAD SWAP1 POP SWAP2 SWAP1 POP JUMP JUMPDEST PUSH1 0x0 DUP3 DUP3 MSTORE PUSH1 0x20 DUP3 ADD SWAP1 POP SWAP3 SWAP2 POP POP JUMP JUMPDEST PUSH1 0x0 JUMPDEST DUP4 DUP2 LT ISZERO PUSH3 0x2409 JUMPI DUP1 DUP3 ADD MLOAD DUP2 DUP5 ADD MSTORE PUSH1 0x20 DUP2 ADD SWAP1 POP PUSH3 0x23EC JUMP JUMPDEST DUP4 DUP2 GT ISZERO PUSH3 0x2419 JUMPI PUSH1 0x0 DUP5 DUP5 ADD MSTORE JUMPDEST POP POP POP POP JUMP JUMPDEST PUSH1 0x0 PUSH1 0x1F NOT PUSH1 0x1F DUP4 ADD AND SWAP1 POP SWAP2 SWAP1 POP JUMP JUMPDEST PUSH1 0x0 PUSH3 0x243D DUP3 PUSH3 0x23CD JUMP JUMPDEST PUSH3 0x2449 DUP2 DUP6 PUSH3 0x23D8 JUMP JUMPDEST SWAP4 POP PUSH3 0x245B DUP2 DUP6 PUSH1 0x20 DUP7 ADD PUSH3 0x23E9 JUMP JUMPDEST PUSH3 0x2466 DUP2 PUSH3 0x241F JUMP JUMPDEST DUP5 ADD SWAP2 POP POP SWAP3 SWAP2 POP POP JUMP JUMPDEST PUSH1 0x0 DUP2 MLOAD SWAP1 POP SWAP2 SWAP1 POP JUMP JUMPDEST PUSH1 0x0 DUP3 DUP3 MSTORE PUSH1 0x20 DUP3 ADD SWAP1 POP SWAP3 SWAP2 POP POP JUMP JUMPDEST PUSH1 0x0 DUP2 SWAP1 POP PUSH1 0x20 DUP3 ADD SWAP1 POP SWAP2 SWAP1 POP JUMP JUMPDEST PUSH3 0x24A8 DUP2 PUSH3 0x230B JUMP JUMPDEST DUP3 MSTORE POP POP JUMP JUMPDEST PUSH1 0x0 PUSH3 0x24BC DUP4 DUP4 PUSH3 0x249D JUMP JUMPDEST PUSH1 0x20 DUP4 ADD SWAP1 POP SWAP3 SWAP2 POP POP JUMP JUMPDEST PUSH1 0x0 PUSH1 0x20 DUP3 ADD SWAP1 POP SWAP2 SWAP1 POP JUMP JUMPDEST PUSH1 0x0 PUSH3 0x24E2 DUP3 PUSH3 0x2471 JUMP JUMPDEST PUSH3 0x24EE DUP2 DUP6 PUSH3 0x247C JUMP JUMPDEST SWAP4 POP PUSH3 0x24FB DUP4 PUSH3 0x248D JUMP JUMPDEST DUP1 PUSH1 0x0 JUMPDEST DUP4 DUP2 LT ISZERO PUSH3 0x2532 JUMPI DUP2 MLOAD PUSH3 0x2516 DUP9 DUP3 PUSH3 0x24AE JUMP JUMPDEST SWAP8 POP PUSH3 0x2523 DUP4 PUSH3 0x24C8 JUMP JUMPDEST SWAP3 POP POP PUSH1 0x1 DUP2 ADD SWAP1 POP PUSH3 0x24FF JUMP JUMPDEST POP DUP6 SWAP4 POP POP POP POP SWAP3 SWAP2 POP POP JUMP JUMPDEST PUSH3 0x254A DUP2 PUSH3 0x227E JUMP JUMPDEST DUP3 MSTORE POP POP JUMP JUMPDEST PUSH1 0x0 PUSH2 0x160 DUP3 ADD SWAP1 POP PUSH3 0x2568 PUSH1 0x0 DUP4 ADD DUP15 PUSH3 0x23BC JUMP JUMPDEST DUP2 DUP2 SUB PUSH1 0x20 DUP4 ADD MSTORE PUSH3 0x257C DUP2 DUP14 PUSH3 0x2430 JUMP JUMPDEST SWAP1 POP DUP2 DUP2 SUB PUSH1 0x40 DUP4 ADD MSTORE PUSH3 0x2592 DUP2 DUP13 PUSH3 0x2430 JUMP JUMPDEST SWAP1 POP DUP2 DUP2 SUB PUSH1 0x60 DUP4 ADD MSTORE PUSH3 0x25A8 DUP2 DUP12 PUSH3 0x2430 JUMP JUMPDEST SWAP1 POP DUP2 DUP2 SUB PUSH1 0x80 DUP4 ADD MSTORE PUSH3 0x25BE DUP2 DUP11 PUSH3 0x24D5 JUMP JUMPDEST SWAP1 POP DUP2 DUP2 SUB PUSH1 0xA0 DUP4 ADD MSTORE PUSH3 0x25D4 DUP2 DUP10 PUSH3 0x24D5 JUMP JUMPDEST SWAP1 POP PUSH3 0x25E5 PUSH1 0xC0 DUP4 ADD DUP9 PUSH3 0x253F JUMP JUMPDEST PUSH3 0x25F4 PUSH1 0xE0 DUP4 ADD DUP8 PUSH3 0x253F JUMP JUMPDEST PUSH3 0x2604 PUSH2 0x100 DUP4 ADD DUP7 PUSH3 0x253F JUMP JUMPDEST PUSH3 0x2614 PUSH2 0x120 DUP4 ADD DUP6 PUSH3 0x238E JUMP JUMPDEST PUSH3 0x2624 PUSH2 0x140 DUP4 ADD DUP5 PUSH3 0x253F JUMP JUMPDEST SWAP13 SWAP12 POP POP POP POP POP POP POP POP POP POP POP POP JUMP JUMPDEST PUSH1 0x0 PUSH1 0xA0 DUP3 ADD SWAP1 POP DUP2 DUP2 SUB PUSH1 0x0 DUP4 ADD MSTORE PUSH3 0x2650 DUP2 DUP9 PUSH3 0x2430 JUMP JUMPDEST SWAP1 POP PUSH3 0x2661 PUSH1 0x20 DUP4 ADD DUP8 PUSH3 0x253F JUMP JUMPDEST PUSH3 0x2670 PUSH1 0x40 DUP4 ADD DUP7 PUSH3 0x23BC JUMP JUMPDEST PUSH3 0x267F PUSH1 0x60 DUP4 ADD DUP6 PUSH3 0x253F JUMP JUMPDEST PUSH3 0x268E PUSH1 0x80 DUP4 ADD DUP5 PUSH3 0x238E JUMP JUMPDEST SWAP7 SWAP6 POP POP POP POP POP POP JUMP JUMPDEST PUSH1 0x0 PUSH1 0x20 DUP3 ADD SWAP1 POP DUP2 DUP2 SUB PUSH1 0x0 DUP4 ADD MSTORE PUSH3 0x26B4 DUP2 DUP5 PUSH3 0x24D5 JUMP JUMPDEST SWAP1 POP SWAP3 SWAP2 POP POP JUMP JUMPDEST PUSH1 0x0 PUSH1 0x20 DUP3 ADD SWAP1 POP PUSH3 0x26D3 PUSH1 0x0 DUP4 ADD DUP5 PUSH3 0x23BC JUMP JUMPDEST SWAP3 SWAP2 POP POP JUMP JUMPDEST PUSH1 0x0 DUP1 REVERT JUMPDEST PUSH1 0x0 DUP1 REVERT JUMPDEST PUSH32 0x4E487B7100000000000000000000000000000000000000000000000000000000 PUSH1 0x0 MSTORE PUSH1 0x41 PUSH1 0x4 MSTORE PUSH1 0x24 PUSH1 0x0 REVERT JUMPDEST PUSH3 0x271D DUP3 PUSH3 0x241F JUMP JUMPDEST DUP2 ADD DUP2 DUP2 LT PUSH8 0xFFFFFFFFFFFFFFFF DUP3 GT OR ISZERO PUSH3 0x273F JUMPI PUSH3 0x273E PUSH3 0x26E3 JUMP JUMPDEST JUMPDEST DUP1 PUSH1 0x40 MSTORE POP POP POP JUMP JUMPDEST PUSH1 0x0 PUSH3 0x2754 PUSH3 0x226A JUMP JUMPDEST SWAP1 POP PUSH3 0x2762 DUP3 DUP3 PUSH3 0x2712 JUMP JUMPDEST SWAP2 SWAP1 POP JUMP JUMPDEST PUSH1 0x0 PUSH8 0xFFFFFFFFFFFFFFFF DUP3 GT ISZERO PUSH3 0x2785 JUMPI PUSH3 0x2784 PUSH3 0x26E3 JUMP JUMPDEST JUMPDEST PUSH3 0x2790 DUP3 PUSH3 0x241F JUMP JUMPDEST SWAP1 POP PUSH1 0x20 DUP2 ADD SWAP1 POP SWAP2 SWAP1 POP JUMP JUMPDEST DUP3 DUP2 DUP4 CALLDATACOPY PUSH1 0x0 DUP4 DUP4 ADD MSTORE POP POP POP JUMP JUMPDEST PUSH1 0x0 PUSH3 0x27C3 PUSH3 0x27BD DUP5 PUSH3 0x2767 JUMP JUMPDEST PUSH3 0x2748 JUMP JUMPDEST SWAP1 POP DUP3 DUP2 MSTORE PUSH1 0x20 DUP2 ADD DUP5 DUP5 DUP5 ADD GT ISZERO PUSH3 0x27E2 JUMPI PUSH3 0x27E1 PUSH3 0x26DE JUMP JUMPDEST JUMPDEST PUSH3 0x27EF DUP5 DUP3 DUP6 PUSH3 0x279D JUMP JUMPDEST POP SWAP4 SWAP3 POP POP POP JUMP JUMPDEST PUSH1 0x0 DUP3 PUSH1 0x1F DUP4 ADD SLT PUSH3 0x280F JUMPI PUSH3 0x280E PUSH3 0x26D9 JUMP JUMPDEST JUMPDEST DUP2 CALLDATALOAD PUSH3 0x2821 DUP5 DUP3 PUSH1 0x20 DUP7 ADD PUSH3 0x27AC JUMP JUMPDEST SWAP2 POP POP SWAP3 SWAP2 POP POP JUMP JUMPDEST PUSH1 0x0 DUP1 PUSH1 0x0 PUSH1 0x60 DUP5 DUP7 SUB SLT ISZERO PUSH3 0x2846 JUMPI PUSH3 0x2845 PUSH3 0x2274 JUMP JUMPDEST JUMPDEST PUSH1 0x0 DUP5 ADD CALLDATALOAD PUSH8 0xFFFFFFFFFFFFFFFF DUP2 GT ISZERO PUSH3 0x2867 JUMPI PUSH3 0x2866 PUSH3 0x2279 JUMP JUMPDEST JUMPDEST PUSH3 0x2875 DUP7 DUP3 DUP8 ADD PUSH3 0x27F7 JUMP JUMPDEST SWAP4 POP POP PUSH1 0x20 PUSH3 0x2888 DUP7 DUP3 DUP8 ADD PUSH3 0x2339 JUMP JUMPDEST SWAP3 POP POP PUSH1 0x40 PUSH3 0x289B DUP7 DUP3 DUP8 ADD PUSH3 0x2339 JUMP JUMPDEST SWAP2 POP POP SWAP3 POP SWAP3 POP SWAP3 JUMP JUMPDEST PUSH1 0x0 PUSH1 0x20 DUP3 DUP5 SUB SLT ISZERO PUSH3 0x28BE JUMPI PUSH3 0x28BD PUSH3 0x2274 JUMP JUMPDEST JUMPDEST PUSH1 0x0 DUP3 ADD CALLDATALOAD PUSH8 0xFFFFFFFFFFFFFFFF DUP2 GT ISZERO PUSH3 0x28DF JUMPI PUSH3 0x28DE PUSH3 0x2279 JUMP JUMPDEST JUMPDEST PUSH3 0x28ED DUP5 DUP3 DUP6 ADD PUSH3 0x27F7 JUMP JUMPDEST SWAP2 POP POP SWAP3 SWAP2 POP POP JUMP JUMPDEST PUSH1 0x0 PUSH1 0xE0 DUP3 ADD SWAP1 POP DUP2 DUP2 SUB PUSH1 0x0 DUP4 ADD MSTORE PUSH3 0x2912 DUP2 DUP11 PUSH3 0x2430 JUMP JUMPDEST SWAP1 POP PUSH3 0x2923 PUSH1 0x20 DUP4 ADD DUP10 PUSH3 0x253F JUMP JUMPDEST PUSH3 0x2932 PUSH1 0x40 DUP4 ADD DUP9 PUSH3 0x23BC JUMP JUMPDEST PUSH3 0x2941 PUSH1 0x60 DUP4 ADD DUP8 PUSH3 0x23BC JUMP JUMPDEST PUSH3 0x2950 PUSH1 0x80 DUP4 ADD DUP7 PUSH3 0x23BC JUMP JUMPDEST PUSH3 0x295F PUSH1 0xA0 DUP4 ADD DUP6 PUSH3 0x253F JUMP JUMPDEST PUSH3 0x296E PUSH1 0xC0 DUP4 ADD DUP5 PUSH3 0x238E JUMP JUMPDEST SWAP9 SWAP8 POP POP POP POP POP POP POP POP JUMP JUMPDEST PUSH32 0x5265656E7472616E742063616C6C000000000000000000000000000000000000 PUSH1 0x0 DUP3 ADD MSTORE POP JUMP JUMPDEST PUSH1 0x0 PUSH3 0x29B2 PUSH1 0xE DUP4 PUSH3 0x23D8 JUMP JUMPDEST SWAP2 POP PUSH3 0x29BF DUP3 PUSH3 0x297A JUMP JUMPDEST PUSH1 0x20 DUP3 ADD SWAP1 POP SWAP2 SWAP1 POP JUMP JUMPDEST PUSH1 0x0 PUSH1 0x20 DUP3 ADD SWAP1 POP DUP2 DUP2 SUB PUSH1 0x0 DUP4 ADD MSTORE PUSH3 0x29E5 DUP2 PUSH3 0x29A3 JUMP JUMPDEST SWAP1 POP SWAP2 SWAP1 POP JUMP JUMPDEST PUSH32 0x546869732073746F727920686173206265656E207265706F7274656400000000 PUSH1 0x0 DUP3 ADD MSTORE POP JUMP JUMPDEST PUSH1 0x0 PUSH3 0x2A24 PUSH1 0x1C DUP4 PUSH3 0x23D8 JUMP JUMPDEST SWAP2 POP PUSH3 0x2A31 DUP3 PUSH3 0x29EC JUMP JUMPDEST PUSH1 0x20 DUP3 ADD SWAP1 POP SWAP2 SWAP1 POP JUMP JUMPDEST PUSH1 0x0 PUSH1 0x20 DUP3 ADD SWAP1 POP DUP2 DUP2 SUB PUSH1 0x0 DUP4 ADD MSTORE PUSH3 0x2A57 DUP2 PUSH3 0x2A15 JUMP JUMPDEST SWAP1 POP SWAP2 SWAP1 POP JUMP JUMPDEST PUSH32 0x596F752068617665207265706F7274656420746869732073746F727920626566 PUSH1 0x0 DUP3 ADD MSTORE PUSH32 0x6F72650000000000000000000000000000000000000000000000000000000000 PUSH1 0x20 DUP3 ADD MSTORE POP JUMP JUMPDEST PUSH1 0x0 PUSH3 0x2ABC PUSH1 0x23 DUP4 PUSH3 0x23D8 JUMP JUMPDEST SWAP2 POP PUSH3 0x2AC9 DUP3 PUSH3 0x2A5E JUMP JUMPDEST PUSH1 0x40 DUP3 ADD SWAP1 POP SWAP2 SWAP1 POP JUMP JUMPDEST PUSH1 0x0 PUSH1 0x20 DUP3 ADD SWAP1 POP DUP2 DUP2 SUB PUSH1 0x0 DUP4 ADD MSTORE PUSH3 0x2AEF DUP2 PUSH3 0x2AAD JUMP JUMPDEST SWAP1 POP SWAP2 SWAP1 POP JUMP JUMPDEST PUSH32 0x4F6E6C7920616E20616363657074656420617574686F722063616E2061707072 PUSH1 0x0 DUP3 ADD MSTORE PUSH32 0x6F76652061207265717565737400000000000000000000000000000000000000 PUSH1 0x20 DUP3 ADD MSTORE POP JUMP JUMPDEST PUSH1 0x0 PUSH3 0x2B54 PUSH1 0x2D DUP4 PUSH3 0x23D8 JUMP JUMPDEST SWAP2 POP PUSH3 0x2B61 DUP3 PUSH3 0x2AF6 JUMP JUMPDEST PUSH1 0x40 DUP3 ADD SWAP1 POP SWAP2 SWAP1 POP JUMP JUMPDEST PUSH1 0x0 PUSH1 0x20 DUP3 ADD SWAP1 POP DUP2 DUP2 SUB PUSH1 0x0 DUP4 ADD MSTORE PUSH3 0x2B87 DUP2 PUSH3 0x2B45 JUMP JUMPDEST SWAP1 POP SWAP2 SWAP1 POP JUMP JUMPDEST PUSH32 0x496E646578206F7574206F6620626F756E647300000000000000000000000000 PUSH1 0x0 DUP3 ADD MSTORE POP JUMP JUMPDEST PUSH1 0x0 PUSH3 0x2BC6 PUSH1 0x13 DUP4 PUSH3 0x23D8 JUMP JUMPDEST SWAP2 POP PUSH3 0x2BD3 DUP3 PUSH3 0x2B8E JUMP JUMPDEST PUSH1 0x20 DUP3 ADD SWAP1 POP SWAP2 SWAP1 POP JUMP JUMPDEST PUSH1 0x0 PUSH1 0x20 DUP3 ADD SWAP1 POP DUP2 DUP2 SUB PUSH1 0x0 DUP4 ADD MSTORE PUSH3 0x2BF9 DUP2 PUSH3 0x2BB7 JUMP JUMPDEST SWAP1 POP SWAP2 SWAP1 POP JUMP JUMPDEST PUSH32 0x4E487B7100000000000000000000000000000000000000000000000000000000 PUSH1 0x0 MSTORE PUSH1 0x32 PUSH1 0x4 MSTORE PUSH1 0x24 PUSH1 0x0 REVERT JUMPDEST PUSH32 0x4E487B7100000000000000000000000000000000000000000000000000000000 PUSH1 0x0 MSTORE PUSH1 0x22 PUSH1 0x4 MSTORE PUSH1 0x24 PUSH1 0x0 REVERT JUMPDEST PUSH1 0x0 PUSH1 0x2 DUP3 DIV SWAP1 POP PUSH1 0x1 DUP3 AND DUP1 PUSH3 0x2C77 JUMPI PUSH1 0x7F DUP3 AND SWAP2 POP JUMPDEST PUSH1 0x20 DUP3 LT DUP2 EQ ISZERO PUSH3 0x2C8E JUMPI PUSH3 0x2C8D PUSH3 0x2C2F JUMP JUMPDEST JUMPDEST POP SWAP2 SWAP1 POP JUMP JUMPDEST PUSH1 0x0 DUP2 SWAP1 POP DUP2 PUSH1 0x0 MSTORE PUSH1 0x20 PUSH1 0x0 KECCAK256 SWAP1 POP SWAP2 SWAP1 POP JUMP JUMPDEST PUSH1 0x0 DUP2 SLOAD PUSH3 0x2CB8 DUP2 PUSH3 0x2C5E JUMP JUMPDEST PUSH3 0x2CC4 DUP2 DUP7 PUSH3 0x23D8 JUMP JUMPDEST SWAP5 POP PUSH1 0x1 DUP3 AND PUSH1 0x0 DUP2 EQ PUSH3 0x2CE2 JUMPI PUSH1 0x1 DUP2 EQ PUSH3 0x2CF5 JUMPI PUSH3 0x2D2C JUMP JUMPDEST PUSH1 0xFF NOT DUP4 AND DUP7 MSTORE PUSH1 0x20 DUP7 ADD SWAP4 POP PUSH3 0x2D2C JUMP JUMPDEST PUSH3 0x2D00 DUP6 PUSH3 0x2C94 JUMP JUMPDEST PUSH1 0x0 JUMPDEST DUP4 DUP2 LT ISZERO PUSH3 0x2D24 JUMPI DUP2 SLOAD DUP2 DUP10 ADD MSTORE PUSH1 0x1 DUP3 ADD SWAP2 POP PUSH1 0x20 DUP2 ADD SWAP1 POP PUSH3 0x2D03 JUMP JUMPDEST DUP1 DUP9 ADD SWAP6 POP POP POP JUMPDEST POP POP POP SWAP3 SWAP2 POP POP JUMP JUMPDEST PUSH1 0x0 PUSH1 0xA0 DUP3 ADD SWAP1 POP PUSH3 0x2D4C PUSH1 0x0 DUP4 ADD DUP9 PUSH3 0x23BC JUMP JUMPDEST PUSH3 0x2D5B PUSH1 0x20 DUP4 ADD DUP8 PUSH3 0x23BC JUMP JUMPDEST DUP2 DUP2 SUB PUSH1 0x40 DUP4 ADD MSTORE PUSH3 0x2D6F DUP2 DUP7 PUSH3 0x2CA9 JUMP JUMPDEST SWAP1 POP PUSH3 0x2D80 PUSH1 0x60 DUP4 ADD DUP6 PUSH3 0x23BC JUMP JUMPDEST PUSH3 0x2D8F PUSH1 0x80 DUP4 ADD DUP5 PUSH3 0x23BC JUMP JUMPDEST SWAP7 SWAP6 POP POP POP POP POP POP JUMP JUMPDEST PUSH32 0x4F6E6C7920616E20617574686F72697A656420617574686F722063616E206469 PUSH1 0x0 DUP3 ADD MSTORE PUSH32 0x7370656E73652072657761726473000000000000000000000000000000000000 PUSH1 0x20 DUP3 ADD MSTORE POP JUMP JUMPDEST PUSH1 0x0 PUSH3 0x2DF7 PUSH1 0x2E DUP4 PUSH3 0x23D8 JUMP JUMPDEST SWAP2 POP PUSH3 0x2E04 DUP3 PUSH3 0x2D99 JUMP JUMPDEST PUSH1 0x40 DUP3 ADD SWAP1 POP SWAP2 SWAP1 POP JUMP JUMPDEST PUSH1 0x0 PUSH1 0x20 DUP3 ADD SWAP1 POP DUP2 DUP2 SUB PUSH1 0x0 DUP4 ADD MSTORE PUSH3 0x2E2A DUP2 PUSH3 0x2DE8 JUMP JUMPDEST SWAP1 POP SWAP2 SWAP1 POP JUMP JUMPDEST PUSH32 0x4E6F2072657761726420746F2064697370656E73650000000000000000000000 PUSH1 0x0 DUP3 ADD MSTORE POP JUMP JUMPDEST PUSH1 0x0 PUSH3 0x2E69 PUSH1 0x15 DUP4 PUSH3 0x23D8 JUMP JUMPDEST SWAP2 POP PUSH3 0x2E76 DUP3 PUSH3 0x2E31 JUMP JUMPDEST PUSH1 0x20 DUP3 ADD SWAP1 POP SWAP2 SWAP1 POP JUMP JUMPDEST PUSH1 0x0 PUSH1 0x20 DUP3 ADD SWAP1 POP DUP2 DUP2 SUB PUSH1 0x0 DUP4 ADD MSTORE PUSH3 0x2E9C DUP2 PUSH3 0x2E5A JUMP JUMPDEST SWAP1 POP SWAP2 SWAP1 POP JUMP JUMPDEST PUSH32 0x4E487B7100000000000000000000000000000000000000000000000000000000 PUSH1 0x0 MSTORE PUSH1 0x11 PUSH1 0x4 MSTORE PUSH1 0x24 PUSH1 0x0 REVERT JUMPDEST PUSH1 0x0 PUSH3 0x2EDF DUP3 PUSH3 0x227E JUMP JUMPDEST SWAP2 POP PUSH32 0xFFFFFFFFFFFFFFFFFFFFFFFFFFFFFFFFFFFFFFFFFFFFFFFFFFFFFFFFFFFFFFFF DUP3 EQ ISZERO PUSH3 0x2F15 JUMPI PUSH3 0x2F14 PUSH3 0x2EA3 JUMP JUMPDEST JUMPDEST PUSH1 0x1 DUP3 ADD SWAP1 POP SWAP2 SWAP1 POP JUMP JUMPDEST PUSH32 0x5468697320617574686F7220616C726561647920617070726F76656420626566 PUSH1 0x0 DUP3 ADD MSTORE PUSH32 0x6F72650000000000000000000000000000000000000000000000000000000000 PUSH1 0x20 DUP3 ADD MSTORE POP JUMP JUMPDEST PUSH1 0x0 PUSH3 0x2F7E PUSH1 0x23 DUP4 PUSH3 0x23D8 JUMP JUMPDEST SWAP2 POP PUSH3 0x2F8B DUP3 PUSH3 0x2F20 JUMP JUMPDEST PUSH1 0x40 DUP3 ADD SWAP1 POP SWAP2 SWAP1 POP JUMP JUMPDEST PUSH1 0x0 PUSH1 0x20 DUP3 ADD SWAP1 POP DUP2 DUP2 SUB PUSH1 0x0 DUP4 ADD MSTORE PUSH3 0x2FB1 DUP2 PUSH3 0x2F6F JUMP JUMPDEST SWAP1 POP SWAP2 SWAP1 POP JUMP JUMPDEST PUSH32 0x4F6E6C7920616E20616363657074656420617574686F722063616E2061747465 PUSH1 0x0 DUP3 ADD MSTORE PUSH32 0x6D707420746F2061646420636861707465720000000000000000000000000000 PUSH1 0x20 DUP3 ADD MSTORE POP JUMP JUMPDEST PUSH1 0x0 PUSH3 0x3016 PUSH1 0x32 DUP4 PUSH3 0x23D8 JUMP JUMPDEST SWAP2 POP PUSH3 0x3023 DUP3 PUSH3 0x2FB8 JUMP JUMPDEST PUSH1 0x40 DUP3 ADD SWAP1 POP SWAP2 SWAP1 POP JUMP JUMPDEST PUSH1 0x0 PUSH1 0x20 DUP3 ADD SWAP1 POP DUP2 DUP2 SUB PUSH1 0x0 DUP4 ADD MSTORE PUSH3 0x3049 DUP2 PUSH3 0x3007 JUMP JUMPDEST SWAP1 POP SWAP2 SWAP1 POP JUMP JUMPDEST PUSH32 0x506172656E742063686170746572206D757374206265206120636F6E74726163 PUSH1 0x0 DUP3 ADD MSTORE PUSH32 0x7400000000000000000000000000000000000000000000000000000000000000 PUSH1 0x20 DUP3 ADD MSTORE POP JUMP JUMPDEST PUSH1 0x0 PUSH3 0x30AE PUSH1 0x21 DUP4 PUSH3 0x23D8 JUMP JUMPDEST SWAP2 POP PUSH3 0x30BB DUP3 PUSH3 0x3050 JUMP JUMPDEST PUSH1 0x40 DUP3 ADD SWAP1 POP SWAP2 SWAP1 POP JUMP JUMPDEST PUSH1 0x0 PUSH1 0x20 DUP3 ADD SWAP1 POP DUP2 DUP2 SUB PUSH1 0x0 DUP4 ADD MSTORE PUSH3 0x30E1 DUP2 PUSH3 0x309F JUMP JUMPDEST SWAP1 POP SWAP2 SWAP1 POP JUMP JUMPDEST PUSH32 0x4368696C642063686170746572206D757374206265206120636F6E7472616374 PUSH1 0x0 DUP3 ADD MSTORE POP JUMP JUMPDEST PUSH1 0x0 PUSH3 0x3120 PUSH1 0x20 DUP4 PUSH3 0x23D8 JUMP JUMPDEST SWAP2 POP PUSH3 0x312D DUP3 PUSH3 0x30E8 JUMP JUMPDEST PUSH1 0x20 DUP3 ADD SWAP1 POP SWAP2 SWAP1 POP JUMP JUMPDEST PUSH1 0x0 PUSH1 0x20 DUP3 ADD SWAP1 POP DUP2 DUP2 SUB PUSH1 0x0 DUP4 ADD MSTORE PUSH3 0x3153 DUP2 PUSH3 0x3111 JUMP JUMPDEST SWAP1 POP SWAP2 SWAP1 POP JUMP JUMPDEST PUSH32 0x506172656E742063686170746572206D7573742062656C6F6E6720746F207468 PUSH1 0x0 DUP3 ADD MSTORE PUSH32 0x652073616D652073746F72790000000000000000000000000000000000000000 PUSH1 0x20 DUP3 ADD MSTORE POP JUMP JUMPDEST PUSH1 0x0 PUSH3 0x31B8 PUSH1 0x2C DUP4 PUSH3 0x23D8 JUMP JUMPDEST SWAP2 POP PUSH3 0x31C5 DUP3 PUSH3 0x315A JUMP JUMPDEST PUSH1 0x40 DUP3 ADD SWAP1 POP SWAP2 SWAP1 POP JUMP JUMPDEST PUSH1 0x0 PUSH1 0x20 DUP3 ADD SWAP1 POP DUP2 DUP2 SUB PUSH1 0x0 DUP4 ADD MSTORE PUSH3 0x31EB DUP2 PUSH3 0x31A9 JUMP JUMPDEST SWAP1 POP SWAP2 SWAP1 POP JUMP JUMPDEST PUSH32 0x4368696C642063686170746572206D7573742062656C6F6E6720746F20746865 PUSH1 0x0 DUP3 ADD MSTORE PUSH32 0x2073616D652073746F7279000000000000000000000000000000000000000000 PUSH1 0x20 DUP3 ADD MSTORE POP JUMP JUMPDEST PUSH1 0x0 PUSH3 0x3250 PUSH1 0x2B DUP4 PUSH3 0x23D8 JUMP JUMPDEST SWAP2 POP PUSH3 0x325D DUP3 PUSH3 0x31F2 JUMP JUMPDEST PUSH1 0x40 DUP3 ADD SWAP1 POP SWAP2 SWAP1 POP JUMP JUMPDEST PUSH1 0x0 PUSH1 0x20 DUP3 ADD SWAP1 POP DUP2 DUP2 SUB PUSH1 0x0 DUP4 ADD MSTORE PUSH3 0x3283 DUP2 PUSH3 0x3241 JUMP JUMPDEST SWAP1 POP SWAP2 SWAP1 POP JUMP JUMPDEST PUSH32 0x4D696E696D756D20636F6E747269627574696F6E206973203130302057656900 PUSH1 0x0 DUP3 ADD MSTORE POP JUMP JUMPDEST PUSH1 0x0 PUSH3 0x32C2 PUSH1 0x1F DUP4 PUSH3 0x23D8 JUMP JUMPDEST SWAP2 POP PUSH3 0x32CF DUP3 PUSH3 0x328A JUMP JUMPDEST PUSH1 0x20 DUP3 ADD SWAP1 POP SWAP2 SWAP1 POP JUMP JUMPDEST PUSH1 0x0 PUSH1 0x20 DUP3 ADD SWAP1 POP DUP2 DUP2 SUB PUSH1 0x0 DUP4 ADD MSTORE PUSH3 0x32F5 DUP2 PUSH3 0x32B3 JUMP JUMPDEST SWAP1 POP SWAP2 SWAP1 POP JUMP JUMPDEST PUSH32 0x417574686F7220616C72656164792065786973747320696E20746865206C6973 PUSH1 0x0 DUP3 ADD MSTORE PUSH32 0x74206F6620617574686F72730000000000000000000000000000000000000000 PUSH1 0x20 DUP3 ADD MSTORE POP JUMP JUMPDEST PUSH1 0x0 PUSH3 0x335A PUSH1 0x2C DUP4 PUSH3 0x23D8 JUMP JUMPDEST SWAP2 POP PUSH3 0x3367 DUP3 PUSH3 0x32FC JUMP JUMPDEST PUSH1 0x40 DUP3 ADD SWAP1 POP SWAP2 SWAP1 POP JUMP JUMPDEST PUSH1 0x0 PUSH1 0x20 DUP3 ADD SWAP1 POP DUP2 DUP2 SUB PUSH1 0x0 DUP4 ADD MSTORE PUSH3 0x338D DUP2 PUSH3 0x334B JUMP JUMPDEST SWAP1 POP SWAP2 SWAP1 POP JUMP JUMPDEST PUSH1 0x0 PUSH3 0x33A1 DUP3 PUSH3 0x227E JUMP JUMPDEST SWAP2 POP PUSH3 0x33AE DUP4 PUSH3 0x227E JUMP JUMPDEST SWAP3 POP DUP3 PUSH32 0xFFFFFFFFFFFFFFFFFFFFFFFFFFFFFFFFFFFFFFFFFFFFFFFFFFFFFFFFFFFFFFFF SUB DUP3 GT ISZERO PUSH3 0x33E6 JUMPI PUSH3 0x33E5 PUSH3 0x2EA3 JUMP JUMPDEST JUMPDEST DUP3 DUP3 ADD SWAP1 POP SWAP3 SWAP2 POP POP JUMP JUMPDEST PUSH32 0x536166654D6174683A206164646974696F6E206F766572666C6F770000000000 PUSH1 0x0 DUP3 ADD MSTORE POP JUMP JUMPDEST PUSH1 0x0 PUSH3 0x3429 PUSH1 0x1B DUP4 PUSH3 0x23D8 JUMP JUMPDEST SWAP2 POP PUSH3 0x3436 DUP3 PUSH3 0x33F1 JUMP JUMPDEST PUSH1 0x20 DUP3 ADD SWAP1 POP SWAP2 SWAP1 POP JUMP JUMPDEST PUSH1 0x0 PUSH1 0x20 DUP3 ADD SWAP1 POP DUP2 DUP2 SUB PUSH1 0x0 DUP4 ADD MSTORE PUSH3 0x345C DUP2 PUSH3 0x341A JUMP JUMPDEST SWAP1 POP SWAP2 SWAP1 POP JUMP JUMPDEST PUSH32 0x536166654D6174683A206469766973696F6E206279207A65726F000000000000 PUSH1 0x0 DUP3 ADD MSTORE POP JUMP JUMPDEST PUSH1 0x0 PUSH3 0x349B PUSH1 0x1A DUP4 PUSH3 0x23D8 JUMP JUMPDEST SWAP2 POP PUSH3 0x34A8 DUP3 PUSH3 0x3463 JUMP JUMPDEST PUSH1 0x20 DUP3 ADD SWAP1 POP SWAP2 SWAP1 POP JUMP JUMPDEST PUSH1 0x0 PUSH1 0x20 DUP3 ADD SWAP1 POP DUP2 DUP2 SUB PUSH1 0x0 DUP4 ADD MSTORE PUSH3 0x34CE DUP2 PUSH3 0x348C JUMP JUMPDEST SWAP1 POP SWAP2 SWAP1 POP JUMP JUMPDEST PUSH32 0x4E487B7100000000000000000000000000000000000000000000000000000000 PUSH1 0x0 MSTORE PUSH1 0x12 PUSH1 0x4 MSTORE PUSH1 0x24 PUSH1 0x0 REVERT JUMPDEST PUSH1 0x0 PUSH3 0x3511 DUP3 PUSH3 0x227E JUMP JUMPDEST SWAP2 POP PUSH3 0x351E DUP4 PUSH3 0x227E JUMP JUMPDEST SWAP3 POP DUP3 PUSH3 0x3531 JUMPI PUSH3 0x3530 PUSH3 0x34D5 JUMP JUMPDEST JUMPDEST DUP3 DUP3 DIV SWAP1 POP SWAP3 SWAP2 POP POP JUMP INVALID PUSH1 0x80 PUSH1 0x40 MSTORE CALLVALUE DUP1 ISZERO PUSH3 0x11 JUMPI PUSH1 0x0 DUP1 REVERT JUMPDEST POP PUSH1 0x40 MLOAD PUSH3 0x144B CODESIZE SUB DUP1 PUSH3 0x144B DUP4 CODECOPY DUP2 DUP2 ADD PUSH1 0x40 MSTORE DUP2 ADD SWAP1 PUSH3 0x37 SWAP2 SWAP1 PUSH3 0x4C0 JUMP JUMPDEST DUP5 PUSH1 0x1 PUSH1 0x0 PUSH2 0x100 EXP DUP2 SLOAD DUP2 PUSH20 0xFFFFFFFFFFFFFFFFFFFFFFFFFFFFFFFFFFFFFFFF MUL NOT AND SWAP1 DUP4 PUSH20 0xFFFFFFFFFFFFFFFFFFFFFFFFFFFFFFFFFFFFFFFF AND MUL OR SWAP1 SSTORE POP DUP4 PUSH1 0x0 DUP1 PUSH2 0x100 EXP DUP2 SLOAD DUP2 PUSH20 0xFFFFFFFFFFFFFFFFFFFFFFFFFFFFFFFFFFFFFFFF MUL NOT AND SWAP1 DUP4 PUSH20 0xFFFFFFFFFFFFFFFFFFFFFFFFFFFFFFFFFFFFFFFF AND MUL OR SWAP1 SSTORE POP DUP3 PUSH1 0x2 SWAP1 DUP1 MLOAD SWAP1 PUSH1 0x20 ADD SWAP1 PUSH3 0xD0 SWAP3 SWAP2 SWAP1 PUSH3 0x20E JUMP JUMPDEST POP PUSH1 0x0 PUSH20 0xFFFFFFFFFFFFFFFFFFFFFFFFFFFFFFFFFFFFFFFF AND DUP3 PUSH20 0xFFFFFFFFFFFFFFFFFFFFFFFFFFFFFFFFFFFFFFFF AND EQ PUSH3 0x16A JUMPI PUSH1 0x3 DUP3 SWAP1 DUP1 PUSH1 0x1 DUP2 SLOAD ADD DUP1 DUP3 SSTORE DUP1 SWAP2 POP POP PUSH1 0x1 SWAP1 SUB SWAP1 PUSH1 0x0 MSTORE PUSH1 0x20 PUSH1 0x0 KECCAK256 ADD PUSH1 0x0 SWAP1 SWAP2 SWAP1 SWAP2 SWAP1 SWAP2 PUSH2 0x100 EXP DUP2 SLOAD DUP2 PUSH20 0xFFFFFFFFFFFFFFFFFFFFFFFFFFFFFFFFFFFFFFFF MUL NOT AND SWAP1 DUP4 PUSH20 0xFFFFFFFFFFFFFFFFFFFFFFFFFFFFFFFFFFFFFFFF AND MUL OR SWAP1 SSTORE POP JUMPDEST PUSH1 0x0 PUSH20 0xFFFFFFFFFFFFFFFFFFFFFFFFFFFFFFFFFFFFFFFF AND DUP2 PUSH20 0xFFFFFFFFFFFFFFFFFFFFFFFFFFFFFFFFFFFFFFFF AND EQ PUSH3 0x203 JUMPI PUSH1 0x4 DUP2 SWAP1 DUP1 PUSH1 0x1 DUP2 SLOAD ADD DUP1 DUP3 SSTORE DUP1 SWAP2 POP POP PUSH1 0x1 SWAP1 SUB SWAP1 PUSH1 0x0 MSTORE PUSH1 0x20 PUSH1 0x0 KECCAK256 ADD PUSH1 0x0 SWAP1 SWAP2 SWAP1 SWAP2 SWAP1 SWAP2 PUSH2 0x100 EXP DUP2 SLOAD DUP2 PUSH20 0xFFFFFFFFFFFFFFFFFFFFFFFFFFFFFFFFFFFFFFFF MUL NOT AND SWAP1 DUP4 PUSH20 0xFFFFFFFFFFFFFFFFFFFFFFFFFFFFFFFFFFFFFFFF AND MUL OR SWAP1 SSTORE POP JUMPDEST POP POP POP POP POP PUSH3 0x5CC JUMP JUMPDEST DUP3 DUP1 SLOAD PUSH3 0x21C SWAP1 PUSH3 0x596 JUMP JUMPDEST SWAP1 PUSH1 0x0 MSTORE PUSH1 0x20 PUSH1 0x0 KECCAK256 SWAP1 PUSH1 0x1F ADD PUSH1 0x20 SWAP1 DIV DUP2 ADD SWAP3 DUP3 PUSH3 0x240 JUMPI PUSH1 0x0 DUP6 SSTORE PUSH3 0x28C JUMP JUMPDEST DUP3 PUSH1 0x1F LT PUSH3 0x25B JUMPI DUP1 MLOAD PUSH1 0xFF NOT AND DUP4 DUP1 ADD OR DUP6 SSTORE PUSH3 0x28C JUMP JUMPDEST DUP3 DUP1 ADD PUSH1 0x1 ADD DUP6 SSTORE DUP3 ISZERO PUSH3 0x28C JUMPI SWAP2 DUP3 ADD JUMPDEST DUP3 DUP2 GT ISZERO PUSH3 0x28B JUMPI DUP3 MLOAD DUP3 SSTORE SWAP2 PUSH1 0x20 ADD SWAP2 SWAP1 PUSH1 0x1 ADD SWAP1 PUSH3 0x26E JUMP JUMPDEST JUMPDEST POP SWAP1 POP PUSH3 0x29B SWAP2 SWAP1 PUSH3 0x29F JUMP JUMPDEST POP SWAP1 JUMP JUMPDEST JUMPDEST DUP1 DUP3 GT ISZERO PUSH3 0x2BA JUMPI PUSH1 0x0 DUP2 PUSH1 0x0 SWAP1 SSTORE POP PUSH1 0x1 ADD PUSH3 0x2A0 JUMP JUMPDEST POP SWAP1 JUMP JUMPDEST PUSH1 0x0 PUSH1 0x40 MLOAD SWAP1 POP SWAP1 JUMP JUMPDEST PUSH1 0x0 DUP1 REVERT JUMPDEST PUSH1 0x0 DUP1 REVERT JUMPDEST PUSH1 0x0 PUSH20 0xFFFFFFFFFFFFFFFFFFFFFFFFFFFFFFFFFFFFFFFF DUP3 AND SWAP1 POP SWAP2 SWAP1 POP JUMP JUMPDEST PUSH1 0x0 PUSH3 0x2FF DUP3 PUSH3 0x2D2 JUMP JUMPDEST SWAP1 POP SWAP2 SWAP1 POP JUMP JUMPDEST PUSH3 0x311 DUP2 PUSH3 0x2F2 JUMP JUMPDEST DUP2 EQ PUSH3 0x31D JUMPI PUSH1 0x0 DUP1 REVERT JUMPDEST POP JUMP JUMPDEST PUSH1 0x0 DUP2 MLOAD SWAP1 POP PUSH3 0x331 DUP2 PUSH3 0x306 JUMP JUMPDEST SWAP3 SWAP2 POP POP JUMP JUMPDEST PUSH1 0x0 DUP1 REVERT JUMPDEST PUSH1 0x0 DUP1 REVERT JUMPDEST PUSH1 0x0 PUSH1 0x1F NOT PUSH1 0x1F DUP4 ADD AND SWAP1 POP SWAP2 SWAP1 POP JUMP JUMPDEST PUSH32 0x4E487B7100000000000000000000000000000000000000000000000000000000 PUSH1 0x0 MSTORE PUSH1 0x41 PUSH1 0x4 MSTORE PUSH1 0x24 PUSH1 0x0 REVERT JUMPDEST PUSH3 0x38C DUP3 PUSH3 0x341 JUMP JUMPDEST DUP2 ADD DUP2 DUP2 LT PUSH8 0xFFFFFFFFFFFFFFFF DUP3 GT OR ISZERO PUSH3 0x3AE JUMPI PUSH3 0x3AD PUSH3 0x352 JUMP JUMPDEST JUMPDEST DUP1 PUSH1 0x40 MSTORE POP POP POP JUMP JUMPDEST PUSH1 0x0 PUSH3 0x3C3 PUSH3 0x2BE JUMP JUMPDEST SWAP1 POP PUSH3 0x3D1 DUP3 DUP3 PUSH3 0x381 JUMP JUMPDEST SWAP2 SWAP1 POP JUMP JUMPDEST PUSH1 0x0 PUSH8 0xFFFFFFFFFFFFFFFF DUP3 GT ISZERO PUSH3 0x3F4 JUMPI PUSH3 0x3F3 PUSH3 0x352 JUMP JUMPDEST JUMPDEST PUSH3 0x3FF DUP3 PUSH3 0x341 JUMP JUMPDEST SWAP1 POP PUSH1 0x20 DUP2 ADD SWAP1 POP SWAP2 SWAP1 POP JUMP JUMPDEST PUSH1 0x0 JUMPDEST DUP4 DUP2 LT ISZERO PUSH3 0x42C JUMPI DUP1 DUP3 ADD MLOAD DUP2 DUP5 ADD MSTORE PUSH1 0x20 DUP2 ADD SWAP1 POP PUSH3 0x40F JUMP JUMPDEST DUP4 DUP2 GT ISZERO PUSH3 0x43C JUMPI PUSH1 0x0 DUP5 DUP5 ADD MSTORE JUMPDEST POP POP POP POP JUMP JUMPDEST PUSH1 0x0 PUSH3 0x459 PUSH3 0x453 DUP5 PUSH3 0x3D6 JUMP JUMPDEST PUSH3 0x3B7 JUMP JUMPDEST SWAP1 POP DUP3 DUP2 MSTORE PUSH1 0x20 DUP2 ADD DUP5 DUP5 DUP5 ADD GT ISZERO PUSH3 0x478 JUMPI PUSH3 0x477 PUSH3 0x33C JUMP JUMPDEST JUMPDEST PUSH3 0x485 DUP5 DUP3 DUP6 PUSH3 0x40C JUMP JUMPDEST POP SWAP4 SWAP3 POP POP POP JUMP JUMPDEST PUSH1 0x0 DUP3 PUSH1 0x1F DUP4 ADD SLT PUSH3 0x4A5 JUMPI PUSH3 0x4A4 PUSH3 0x337 JUMP JUMPDEST JUMPDEST DUP2 MLOAD PUSH3 0x4B7 DUP5 DUP3 PUSH1 0x20 DUP7 ADD PUSH3 0x442 JUMP JUMPDEST SWAP2 POP POP SWAP3 SWAP2 POP POP JUMP JUMPDEST PUSH1 0x0 DUP1 PUSH1 0x0 DUP1 PUSH1 0x0 PUSH1 0xA0 DUP7 DUP9 SUB SLT ISZERO PUSH3 0x4DF JUMPI PUSH3 0x4DE PUSH3 0x2C8 JUMP JUMPDEST JUMPDEST PUSH1 0x0 PUSH3 0x4EF DUP9 DUP3 DUP10 ADD PUSH3 0x320 JUMP JUMPDEST SWAP6 POP POP PUSH1 0x20 PUSH3 0x502 DUP9 DUP3 DUP10 ADD PUSH3 0x320 JUMP JUMPDEST SWAP5 POP POP PUSH1 0x40 DUP7 ADD MLOAD PUSH8 0xFFFFFFFFFFFFFFFF DUP2 GT ISZERO PUSH3 0x526 JUMPI PUSH3 0x525 PUSH3 0x2CD JUMP JUMPDEST JUMPDEST PUSH3 0x534 DUP9 DUP3 DUP10 ADD PUSH3 0x48D JUMP JUMPDEST SWAP4 POP POP PUSH1 0x60 PUSH3 0x547 DUP9 DUP3 DUP10 ADD PUSH3 0x320 JUMP JUMPDEST SWAP3 POP POP PUSH1 0x80 PUSH3 0x55A DUP9 DUP3 DUP10 ADD PUSH3 0x320 JUMP JUMPDEST SWAP2 POP POP SWAP3 SWAP6 POP SWAP3 SWAP6 SWAP1 SWAP4 POP JUMP JUMPDEST PUSH32 0x4E487B7100000000000000000000000000000000000000000000000000000000 PUSH1 0x0 MSTORE PUSH1 0x22 PUSH1 0x4 MSTORE PUSH1 0x24 PUSH1 0x0 REVERT JUMPDEST PUSH1 0x0 PUSH1 0x2 DUP3 DIV SWAP1 POP PUSH1 0x1 DUP3 AND DUP1 PUSH3 0x5AF JUMPI PUSH1 0x7F DUP3 AND SWAP2 POP JUMPDEST PUSH1 0x20 DUP3 LT DUP2 EQ ISZERO PUSH3 0x5C6 JUMPI PUSH3 0x5C5 PUSH3 0x567 JUMP JUMPDEST JUMPDEST POP SWAP2 SWAP1 POP JUMP JUMPDEST PUSH2 0xE6F DUP1 PUSH3 0x5DC PUSH1 0x0 CODECOPY PUSH1 0x0 RETURN INVALID PUSH1 0x80 PUSH1 0x40 MSTORE CALLVALUE DUP1 ISZERO PUSH2 0x10 JUMPI PUSH1 0x0 DUP1 REVERT JUMPDEST POP PUSH1 0x4 CALLDATASIZE LT PUSH2 0x9E JUMPI PUSH1 0x0 CALLDATALOAD PUSH1 0xE0 SHR DUP1 PUSH4 0xA6C3E6B9 GT PUSH2 0x66 JUMPI DUP1 PUSH4 0xA6C3E6B9 EQ PUSH2 0x126 JUMPI DUP1 PUSH4 0xC5FE6FFC EQ PUSH2 0x144 JUMPI DUP1 PUSH4 0xC623674F EQ PUSH2 0x174 JUMPI DUP1 PUSH4 0xE5A0AF3D EQ PUSH2 0x192 JUMPI DUP1 PUSH4 0xED777791 EQ PUSH2 0x1B0 JUMPI PUSH2 0x9E JUMP JUMPDEST DUP1 PUSH4 0x4051DDAC EQ PUSH2 0xA3 JUMPI DUP1 PUSH4 0x46C922D1 EQ PUSH2 0xC6 JUMPI DUP1 PUSH4 0x8758CE83 EQ PUSH2 0xE4 JUMPI DUP1 PUSH4 0x988E46C8 EQ PUSH2 0x100 JUMPI DUP1 PUSH4 0xA523B88A EQ PUSH2 0x11C JUMPI JUMPDEST PUSH1 0x0 DUP1 REVERT JUMPDEST PUSH2 0xAB PUSH2 0x1E0 JUMP JUMPDEST PUSH1 0x40 MLOAD PUSH2 0xBD SWAP7 SWAP6 SWAP5 SWAP4 SWAP3 SWAP2 SWAP1 PUSH2 0xA3E JUMP JUMPDEST PUSH1 0x40 MLOAD DUP1 SWAP2 SUB SWAP1 RETURN JUMPDEST PUSH2 0xCE PUSH2 0x3E8 JUMP JUMPDEST PUSH1 0x40 MLOAD PUSH2 0xDB SWAP2 SWAP1 PUSH2 0xAB4 JUMP JUMPDEST PUSH1 0x40 MLOAD DUP1 SWAP2 SUB SWAP1 RETURN JUMPDEST PUSH2 0xFE PUSH1 0x4 DUP1 CALLDATASIZE SUB DUP2 ADD SWAP1 PUSH2 0xF9 SWAP2 SWAP1 PUSH2 0xB00 JUMP JUMPDEST PUSH2 0x40C JUMP JUMPDEST STOP JUMPDEST PUSH2 0x11A PUSH1 0x4 DUP1 CALLDATASIZE SUB DUP2 ADD SWAP1 PUSH2 0x115 SWAP2 SWAP1 PUSH2 0xB00 JUMP JUMPDEST PUSH2 0x500 JUMP JUMPDEST STOP JUMPDEST PUSH2 0x124 PUSH2 0x5F4 JUMP JUMPDEST STOP JUMPDEST PUSH2 0x12E PUSH2 0x6F7 JUMP JUMPDEST PUSH1 0x40 MLOAD PUSH2 0x13B SWAP2 SWAP1 PUSH2 0xAB4 JUMP JUMPDEST PUSH1 0x40 MLOAD DUP1 SWAP2 SUB SWAP1 RETURN JUMPDEST PUSH2 0x15E PUSH1 0x4 DUP1 CALLDATASIZE SUB DUP2 ADD SWAP1 PUSH2 0x159 SWAP2 SWAP1 PUSH2 0xB59 JUMP JUMPDEST PUSH2 0x71D JUMP JUMPDEST PUSH1 0x40 MLOAD PUSH2 0x16B SWAP2 SWAP1 PUSH2 0xAB4 JUMP JUMPDEST PUSH1 0x40 MLOAD DUP1 SWAP2 SUB SWAP1 RETURN JUMPDEST PUSH2 0x17C PUSH2 0x75C JUMP JUMPDEST PUSH1 0x40 MLOAD PUSH2 0x189 SWAP2 SWAP1 PUSH2 0xB86 JUMP JUMPDEST PUSH1 0x40 MLOAD DUP1 SWAP2 SUB SWAP1 RETURN JUMPDEST PUSH2 0x19A PUSH2 0x7EA JUMP JUMPDEST PUSH1 0x40 MLOAD PUSH2 0x1A7 SWAP2 SWAP1 PUSH2 0xBA8 JUMP JUMPDEST PUSH1 0x40 MLOAD DUP1 SWAP2 SUB SWAP1 RETURN JUMPDEST PUSH2 0x1CA PUSH1 0x4 DUP1 CALLDATASIZE SUB DUP2 ADD SWAP1 PUSH2 0x1C5 SWAP2 SWAP1 PUSH2 0xB59 JUMP JUMPDEST PUSH2 0x7F0 JUMP JUMPDEST PUSH1 0x40 MLOAD PUSH2 0x1D7 SWAP2 SWAP1 PUSH2 0xAB4 JUMP JUMPDEST PUSH1 0x40 MLOAD DUP1 SWAP2 SUB SWAP1 RETURN JUMPDEST PUSH1 0x0 DUP1 PUSH1 0x60 DUP1 PUSH1 0x60 PUSH1 0x0 DUP1 PUSH1 0x0 SWAP1 SLOAD SWAP1 PUSH2 0x100 EXP SWAP1 DIV PUSH20 0xFFFFFFFFFFFFFFFFFFFFFFFFFFFFFFFFFFFFFFFF AND PUSH1 0x1 PUSH1 0x0 SWAP1 SLOAD SWAP1 PUSH2 0x100 EXP SWAP1 DIV PUSH20 0xFFFFFFFFFFFFFFFFFFFFFFFFFFFFFFFFFFFFFFFF AND PUSH1 0x2 PUSH1 0x3 PUSH1 0x4 PUSH1 0x6 SLOAD DUP4 DUP1 SLOAD PUSH2 0x244 SWAP1 PUSH2 0xBF2 JUMP JUMPDEST DUP1 PUSH1 0x1F ADD PUSH1 0x20 DUP1 SWAP2 DIV MUL PUSH1 0x20 ADD PUSH1 0x40 MLOAD SWAP1 DUP2 ADD PUSH1 0x40 MSTORE DUP1 SWAP3 SWAP2 SWAP1 DUP2 DUP2 MSTORE PUSH1 0x20 ADD DUP3 DUP1 SLOAD PUSH2 0x270 SWAP1 PUSH2 0xBF2 JUMP JUMPDEST DUP1 ISZERO PUSH2 0x2BD JUMPI DUP1 PUSH1 0x1F LT PUSH2 0x292 JUMPI PUSH2 0x100 DUP1 DUP4 SLOAD DIV MUL DUP4 MSTORE SWAP2 PUSH1 0x20 ADD SWAP2 PUSH2 0x2BD JUMP JUMPDEST DUP3 ADD SWAP2 SWAP1 PUSH1 0x0 MSTORE PUSH1 0x20 PUSH1 0x0 KECCAK256 SWAP1 JUMPDEST DUP2 SLOAD DUP2 MSTORE SWAP1 PUSH1 0x1 ADD SWAP1 PUSH1 0x20 ADD DUP1 DUP4 GT PUSH2 0x2A0 JUMPI DUP3 SWAP1 SUB PUSH1 0x1F AND DUP3 ADD SWAP2 JUMPDEST POP POP POP POP POP SWAP4 POP DUP3 DUP1 SLOAD DUP1 PUSH1 0x20 MUL PUSH1 0x20 ADD PUSH1 0x40 MLOAD SWAP1 DUP2 ADD PUSH1 0x40 MSTORE DUP1 SWAP3 SWAP2 SWAP1 DUP2 DUP2 MSTORE PUSH1 0x20 ADD DUP3 DUP1 SLOAD DUP1 ISZERO PUSH2 0x345 JUMPI PUSH1 0x20 MUL DUP3 ADD SWAP2 SWAP1 PUSH1 0x0 MSTORE PUSH1 0x20 PUSH1 0x0 KECCAK256 SWAP1 JUMPDEST DUP2 PUSH1 0x0 SWAP1 SLOAD SWAP1 PUSH2 0x100 EXP SWAP1 DIV PUSH20 0xFFFFFFFFFFFFFFFFFFFFFFFFFFFFFFFFFFFFFFFF AND PUSH20 0xFFFFFFFFFFFFFFFFFFFFFFFFFFFFFFFFFFFFFFFF AND DUP2 MSTORE PUSH1 0x20 ADD SWAP1 PUSH1 0x1 ADD SWAP1 DUP1 DUP4 GT PUSH2 0x2FB JUMPI JUMPDEST POP POP POP POP POP SWAP3 POP DUP2 DUP1 SLOAD DUP1 PUSH1 0x20 MUL PUSH1 0x20 ADD PUSH1 0x40 MLOAD SWAP1 DUP2 ADD PUSH1 0x40 MSTORE DUP1 SWAP3 SWAP2 SWAP1 DUP2 DUP2 MSTORE PUSH1 0x20 ADD DUP3 DUP1 SLOAD DUP1 ISZERO PUSH2 0x3CD JUMPI PUSH1 0x20 MUL DUP3 ADD SWAP2 SWAP1 PUSH1 0x0 MSTORE PUSH1 0x20 PUSH1 0x0 KECCAK256 SWAP1 JUMPDEST DUP2 PUSH1 0x0 SWAP1 SLOAD SWAP1 PUSH2 0x100 EXP SWAP1 DIV PUSH20 0xFFFFFFFFFFFFFFFFFFFFFFFFFFFFFFFFFFFFFFFF AND PUSH20 0xFFFFFFFFFFFFFFFFFFFFFFFFFFFFFFFFFFFFFFFF AND DUP2 MSTORE PUSH1 0x20 ADD SWAP1 PUSH1 0x1 ADD SWAP1 DUP1 DUP4 GT PUSH2 0x383 JUMPI JUMPDEST POP POP POP POP POP SWAP2 POP SWAP6 POP SWAP6 POP SWAP6 POP SWAP6 POP SWAP6 POP SWAP6 POP SWAP1 SWAP2 SWAP3 SWAP4 SWAP5 SWAP6 JUMP JUMPDEST PUSH1 0x0 DUP1 SLOAD SWAP1 PUSH2 0x100 EXP SWAP1 DIV PUSH20 0xFFFFFFFFFFFFFFFFFFFFFFFFFFFFFFFFFFFFFFFF AND DUP2 JUMP JUMPDEST PUSH1 0x0 DUP1 SLOAD SWAP1 PUSH2 0x100 EXP SWAP1 DIV PUSH20 0xFFFFFFFFFFFFFFFFFFFFFFFFFFFFFFFFFFFFFFFF AND PUSH20 0xFFFFFFFFFFFFFFFFFFFFFFFFFFFFFFFFFFFFFFFF AND CALLER PUSH20 0xFFFFFFFFFFFFFFFFFFFFFFFFFFFFFFFFFFFFFFFF AND EQ PUSH2 0x49A JUMPI PUSH1 0x40 MLOAD PUSH32 0x8C379A000000000000000000000000000000000000000000000000000000000 DUP2 MSTORE PUSH1 0x4 ADD PUSH2 0x491 SWAP1 PUSH2 0xCBC JUMP JUMPDEST PUSH1 0x40 MLOAD DUP1 SWAP2 SUB SWAP1 REVERT JUMPDEST PUSH1 0x3 DUP2 SWAP1 DUP1 PUSH1 0x1 DUP2 SLOAD ADD DUP1 DUP3 SSTORE DUP1 SWAP2 POP POP PUSH1 0x1 SWAP1 SUB SWAP1 PUSH1 0x0 MSTORE PUSH1 0x20 PUSH1 0x0 KECCAK256 ADD PUSH1 0x0 SWAP1 SWAP2 SWAP1 SWAP2 SWAP1 SWAP2 PUSH2 0x100 EXP DUP2 SLOAD DUP2 PUSH20 0xFFFFFFFFFFFFFFFFFFFFFFFFFFFFFFFFFFFFFFFF MUL NOT AND SWAP1 DUP4 PUSH20 0xFFFFFFFFFFFFFFFFFFFFFFFFFFFFFFFFFFFFFFFF AND MUL OR SWAP1 SSTORE POP POP JUMP JUMPDEST PUSH1 0x0 DUP1 SLOAD SWAP1 PUSH2 0x100 EXP SWAP1 DIV PUSH20 0xFFFFFFFFFFFFFFFFFFFFFFFFFFFFFFFFFFFFFFFF AND PUSH20 0xFFFFFFFFFFFFFFFFFFFFFFFFFFFFFFFFFFFFFFFF AND CALLER PUSH20 0xFFFFFFFFFFFFFFFFFFFFFFFFFFFFFFFFFFFFFFFF AND EQ PUSH2 0x58E JUMPI PUSH1 0x40 MLOAD PUSH32 0x8C379A000000000000000000000000000000000000000000000000000000000 DUP2 MSTORE PUSH1 0x4 ADD PUSH2 0x585 SWAP1 PUSH2 0xCBC JUMP JUMPDEST PUSH1 0x40 MLOAD DUP1 SWAP2 SUB SWAP1 REVERT JUMPDEST PUSH1 0x4 DUP2 SWAP1 DUP1 PUSH1 0x1 DUP2 SLOAD ADD DUP1 DUP3 SSTORE DUP1 SWAP2 POP POP PUSH1 0x1 SWAP1 SUB SWAP1 PUSH1 0x0 MSTORE PUSH1 0x20 PUSH1 0x0 KECCAK256 ADD PUSH1 0x0 SWAP1 SWAP2 SWAP1 SWAP2 SWAP1 SWAP2 PUSH2 0x100 EXP DUP2 SLOAD DUP2 PUSH20 0xFFFFFFFFFFFFFFFFFFFFFFFFFFFFFFFFFFFFFFFF MUL NOT AND SWAP1 DUP4 PUSH20 0xFFFFFFFFFFFFFFFFFFFFFFFFFFFFFFFFFFFFFFFF AND MUL OR SWAP1 SSTORE POP POP JUMP JUMPDEST PUSH1 0x5 PUSH1 0x0 CALLER PUSH20 0xFFFFFFFFFFFFFFFFFFFFFFFFFFFFFFFFFFFFFFFF AND PUSH20 0xFFFFFFFFFFFFFFFFFFFFFFFFFFFFFFFFFFFFFFFF AND DUP2 MSTORE PUSH1 0x20 ADD SWAP1 DUP2 MSTORE PUSH1 0x20 ADD PUSH1 0x0 KECCAK256 PUSH1 0x0 SWAP1 SLOAD SWAP1 PUSH2 0x100 EXP SWAP1 DIV PUSH1 0xFF AND ISZERO PUSH2 0x681 JUMPI PUSH1 0x40 MLOAD PUSH32 0x8C379A000000000000000000000000000000000000000000000000000000000 DUP2 MSTORE PUSH1 0x4 ADD PUSH2 0x678 SWAP1 PUSH2 0xD28 JUMP JUMPDEST PUSH1 0x40 MLOAD DUP1 SWAP2 SUB SWAP1 REVERT JUMPDEST PUSH1 0x1 PUSH1 0x5 PUSH1 0x0 CALLER PUSH20 0xFFFFFFFFFFFFFFFFFFFFFFFFFFFFFFFFFFFFFFFF AND PUSH20 0xFFFFFFFFFFFFFFFFFFFFFFFFFFFFFFFFFFFFFFFF AND DUP2 MSTORE PUSH1 0x20 ADD SWAP1 DUP2 MSTORE PUSH1 0x20 ADD PUSH1 0x0 KECCAK256 PUSH1 0x0 PUSH2 0x100 EXP DUP2 SLOAD DUP2 PUSH1 0xFF MUL NOT AND SWAP1 DUP4 ISZERO ISZERO MUL OR SWAP1 SSTORE POP PUSH2 0x6EF PUSH1 0x1 PUSH1 0x6 SLOAD PUSH2 0x82F SWAP1 SWAP2 SWAP1 PUSH4 0xFFFFFFFF AND JUMP JUMPDEST PUSH1 0x6 DUP2 SWAP1 SSTORE POP JUMP JUMPDEST PUSH1 0x1 PUSH1 0x0 SWAP1 SLOAD SWAP1 PUSH2 0x100 EXP SWAP1 DIV PUSH20 0xFFFFFFFFFFFFFFFFFFFFFFFFFFFFFFFFFFFFFFFF AND DUP2 JUMP JUMPDEST PUSH1 0x4 DUP2 DUP2 SLOAD DUP2 LT PUSH2 0x72D JUMPI PUSH1 0x0 DUP1 REVERT JUMPDEST SWAP1 PUSH1 0x0 MSTORE PUSH1 0x20 PUSH1 0x0 KECCAK256 ADD PUSH1 0x0 SWAP2 POP SLOAD SWAP1 PUSH2 0x100 EXP SWAP1 DIV PUSH20 0xFFFFFFFFFFFFFFFFFFFFFFFFFFFFFFFFFFFFFFFF AND DUP2 JUMP JUMPDEST PUSH1 0x2 DUP1 SLOAD PUSH2 0x769 SWAP1 PUSH2 0xBF2 JUMP JUMPDEST DUP1 PUSH1 0x1F ADD PUSH1 0x20 DUP1 SWAP2 DIV MUL PUSH1 0x20 ADD PUSH1 0x40 MLOAD SWAP1 DUP2 ADD PUSH1 0x40 MSTORE DUP1 SWAP3 SWAP2 SWAP1 DUP2 DUP2 MSTORE PUSH1 0x20 ADD DUP3 DUP1 SLOAD PUSH2 0x795 SWAP1 PUSH2 0xBF2 JUMP JUMPDEST DUP1 ISZERO PUSH2 0x7E2 JUMPI DUP1 PUSH1 0x1F LT PUSH2 0x7B7 JUMPI PUSH2 0x100 DUP1 DUP4 SLOAD DIV MUL DUP4 MSTORE SWAP2 PUSH1 0x20 ADD SWAP2 PUSH2 0x7E2 JUMP JUMPDEST DUP3 ADD SWAP2 SWAP1 PUSH1 0x0 MSTORE PUSH1 0x20 PUSH1 0x0 KECCAK256 SWAP1 JUMPDEST DUP2 SLOAD DUP2 MSTORE SWAP1 PUSH1 0x1 ADD SWAP1 PUSH1 0x20 ADD DUP1 DUP4 GT PUSH2 0x7C5 JUMPI DUP3 SWAP1 SUB PUSH1 0x1F AND DUP3 ADD SWAP2 JUMPDEST POP POP POP POP POP DUP2 JUMP JUMPDEST PUSH1 0x6 SLOAD DUP2 JUMP JUMPDEST PUSH1 0x3 DUP2 DUP2 SLOAD DUP2 LT PUSH2 0x800 JUMPI PUSH1 0x0 DUP1 REVERT JUMPDEST SWAP1 PUSH1 0x0 MSTORE PUSH1 0x20 PUSH1 0x0 KECCAK256 ADD PUSH1 0x0 SWAP2 POP SLOAD SWAP1 PUSH2 0x100 EXP SWAP1 DIV PUSH20 0xFFFFFFFFFFFFFFFFFFFFFFFFFFFFFFFFFFFFFFFF AND DUP2 JUMP JUMPDEST PUSH1 0x0 DUP1 DUP3 DUP5 PUSH2 0x83E SWAP2 SWAP1 PUSH2 0xD77 JUMP JUMPDEST SWAP1 POP DUP4 DUP2 LT ISZERO PUSH2 0x883 JUMPI PUSH1 0x40 MLOAD PUSH32 0x8C379A000000000000000000000000000000000000000000000000000000000 DUP2 MSTORE PUSH1 0x4 ADD PUSH2 0x87A SWAP1 PUSH2 0xE19 JUMP JUMPDEST PUSH1 0x40 MLOAD DUP1 SWAP2 SUB SWAP1 REVERT JUMPDEST DUP1 SWAP2 POP POP SWAP3 SWAP2 POP POP JUMP JUMPDEST PUSH1 0x0 PUSH20 0xFFFFFFFFFFFFFFFFFFFFFFFFFFFFFFFFFFFFFFFF DUP3 AND SWAP1 POP SWAP2 SWAP1 POP JUMP JUMPDEST PUSH1 0x0 PUSH2 0x8B8 DUP3 PUSH2 0x88D JUMP JUMPDEST SWAP1 POP SWAP2 SWAP1 POP JUMP JUMPDEST PUSH2 0x8C8 DUP2 PUSH2 0x8AD JUMP JUMPDEST DUP3 MSTORE POP POP JUMP JUMPDEST PUSH1 0x0 DUP2 MLOAD SWAP1 POP SWAP2 SWAP1 POP JUMP JUMPDEST PUSH1 0x0 DUP3 DUP3 MSTORE PUSH1 0x20 DUP3 ADD SWAP1 POP SWAP3 SWAP2 POP POP JUMP JUMPDEST PUSH1 0x0 JUMPDEST DUP4 DUP2 LT ISZERO PUSH2 0x908 JUMPI DUP1 DUP3 ADD MLOAD DUP2 DUP5 ADD MSTORE PUSH1 0x20 DUP2 ADD SWAP1 POP PUSH2 0x8ED JUMP JUMPDEST DUP4 DUP2 GT ISZERO PUSH2 0x917 JUMPI PUSH1 0x0 DUP5 DUP5 ADD MSTORE JUMPDEST POP POP POP POP JUMP JUMPDEST PUSH1 0x0 PUSH1 0x1F NOT PUSH1 0x1F DUP4 ADD AND SWAP1 POP SWAP2 SWAP1 POP JUMP JUMPDEST PUSH1 0x0 PUSH2 0x939 DUP3 PUSH2 0x8CE JUMP JUMPDEST PUSH2 0x943 DUP2 DUP6 PUSH2 0x8D9 JUMP JUMPDEST SWAP4 POP PUSH2 0x953 DUP2 DUP6 PUSH1 0x20 DUP7 ADD PUSH2 0x8EA JUMP JUMPDEST PUSH2 0x95C DUP2 PUSH2 0x91D JUMP JUMPDEST DUP5 ADD SWAP2 POP POP SWAP3 SWAP2 POP POP JUMP JUMPDEST PUSH1 0x0 DUP2 MLOAD SWAP1 POP SWAP2 SWAP1 POP JUMP JUMPDEST PUSH1 0x0 DUP3 DUP3 MSTORE PUSH1 0x20 DUP3 ADD SWAP1 POP SWAP3 SWAP2 POP POP JUMP JUMPDEST PUSH1 0x0 DUP2 SWAP1 POP PUSH1 0x20 DUP3 ADD SWAP1 POP SWAP2 SWAP1 POP JUMP JUMPDEST PUSH2 0x99C DUP2 PUSH2 0x8AD JUMP JUMPDEST DUP3 MSTORE POP POP JUMP JUMPDEST PUSH1 0x0 PUSH2 0x9AE DUP4 DUP4 PUSH2 0x993 JUMP JUMPDEST PUSH1 0x20 DUP4 ADD SWAP1 POP SWAP3 SWAP2 POP POP JUMP JUMPDEST PUSH1 0x0 PUSH1 0x20 DUP3 ADD SWAP1 POP SWAP2 SWAP1 POP JUMP JUMPDEST PUSH1 0x0 PUSH2 0x9D2 DUP3 PUSH2 0x967 JUMP JUMPDEST PUSH2 0x9DC DUP2 DUP6 PUSH2 0x972 JUMP JUMPDEST SWAP4 POP PUSH2 0x9E7 DUP4 PUSH2 0x983 JUMP JUMPDEST DUP1 PUSH1 0x0 JUMPDEST DUP4 DUP2 LT ISZERO PUSH2 0xA18 JUMPI DUP2 MLOAD PUSH2 0x9FF DUP9 DUP3 PUSH2 0x9A2 JUMP JUMPDEST SWAP8 POP PUSH2 0xA0A DUP4 PUSH2 0x9BA JUMP JUMPDEST SWAP3 POP POP PUSH1 0x1 DUP2 ADD SWAP1 POP PUSH2 0x9EB JUMP JUMPDEST POP DUP6 SWAP4 POP POP POP POP SWAP3 SWAP2 POP POP JUMP JUMPDEST PUSH1 0x0 DUP2 SWAP1 POP SWAP2 SWAP1 POP JUMP JUMPDEST PUSH2 0xA38 DUP2 PUSH2 0xA25 JUMP JUMPDEST DUP3 MSTORE POP POP JUMP JUMPDEST PUSH1 0x0 PUSH1 0xC0 DUP3 ADD SWAP1 POP PUSH2 0xA53 PUSH1 0x0 DUP4 ADD DUP10 PUSH2 0x8BF JUMP JUMPDEST PUSH2 0xA60 PUSH1 0x20 DUP4 ADD DUP9 PUSH2 0x8BF JUMP JUMPDEST DUP2 DUP2 SUB PUSH1 0x40 DUP4 ADD MSTORE PUSH2 0xA72 DUP2 DUP8 PUSH2 0x92E JUMP JUMPDEST SWAP1 POP DUP2 DUP2 SUB PUSH1 0x60 DUP4 ADD MSTORE PUSH2 0xA86 DUP2 DUP7 PUSH2 0x9C7 JUMP JUMPDEST SWAP1 POP DUP2 DUP2 SUB PUSH1 0x80 DUP4 ADD MSTORE PUSH2 0xA9A DUP2 DUP6 PUSH2 0x9C7 JUMP JUMPDEST SWAP1 POP PUSH2 0xAA9 PUSH1 0xA0 DUP4 ADD DUP5 PUSH2 0xA2F JUMP JUMPDEST SWAP8 SWAP7 POP POP POP POP POP POP POP JUMP JUMPDEST PUSH1 0x0 PUSH1 0x20 DUP3 ADD SWAP1 POP PUSH2 0xAC9 PUSH1 0x0 DUP4 ADD DUP5 PUSH2 0x8BF JUMP JUMPDEST SWAP3 SWAP2 POP POP JUMP JUMPDEST PUSH1 0x0 DUP1 REVERT JUMPDEST PUSH2 0xADD DUP2 PUSH2 0x8AD JUMP JUMPDEST DUP2 EQ PUSH2 0xAE8 JUMPI PUSH1 0x0 DUP1 REVERT JUMPDEST POP JUMP JUMPDEST PUSH1 0x0 DUP2 CALLDATALOAD SWAP1 POP PUSH2 0xAFA DUP2 PUSH2 0xAD4 JUMP JUMPDEST SWAP3 SWAP2 POP POP JUMP JUMPDEST PUSH1 0x0 PUSH1 0x20 DUP3 DUP5 SUB SLT ISZERO PUSH2 0xB16 JUMPI PUSH2 0xB15 PUSH2 0xACF JUMP JUMPDEST JUMPDEST PUSH1 0x0 PUSH2 0xB24 DUP5 DUP3 DUP6 ADD PUSH2 0xAEB JUMP JUMPDEST SWAP2 POP POP SWAP3 SWAP2 POP POP JUMP JUMPDEST PUSH2 0xB36 DUP2 PUSH2 0xA25 JUMP JUMPDEST DUP2 EQ PUSH2 0xB41 JUMPI PUSH1 0x0 DUP1 REVERT JUMPDEST POP JUMP JUMPDEST PUSH1 0x0 DUP2 CALLDATALOAD SWAP1 POP PUSH2 0xB53 DUP2 PUSH2 0xB2D JUMP JUMPDEST SWAP3 SWAP2 POP POP JUMP JUMPDEST PUSH1 0x0 PUSH1 0x20 DUP3 DUP5 SUB SLT ISZERO PUSH2 0xB6F JUMPI PUSH2 0xB6E PUSH2 0xACF JUMP JUMPDEST JUMPDEST PUSH1 0x0 PUSH2 0xB7D DUP5 DUP3 DUP6 ADD PUSH2 0xB44 JUMP JUMPDEST SWAP2 POP POP SWAP3 SWAP2 POP POP JUMP JUMPDEST PUSH1 0x0 PUSH1 0x20 DUP3 ADD SWAP1 POP DUP2 DUP2 SUB PUSH1 0x0 DUP4 ADD MSTORE PUSH2 0xBA0 DUP2 DUP5 PUSH2 0x92E JUMP JUMPDEST SWAP1 POP SWAP3 SWAP2 POP POP JUMP JUMPDEST PUSH1 0x0 PUSH1 0x20 DUP3 ADD SWAP1 POP PUSH2 0xBBD PUSH1 0x0 DUP4 ADD DUP5 PUSH2 0xA2F JUMP JUMPDEST SWAP3 SWAP2 POP POP JUMP JUMPDEST PUSH32 0x4E487B7100000000000000000000000000000000000000000000000000000000 PUSH1 0x0 MSTORE PUSH1 0x22 PUSH1 0x4 MSTORE PUSH1 0x24 PUSH1 0x0 REVERT JUMPDEST PUSH1 0x0 PUSH1 0x2 DUP3 DIV SWAP1 POP PUSH1 0x1 DUP3 AND DUP1 PUSH2 0xC0A JUMPI PUSH1 0x7F DUP3 AND SWAP2 POP JUMPDEST PUSH1 0x20 DUP3 LT DUP2 EQ ISZERO PUSH2 0xC1E JUMPI PUSH2 0xC1D PUSH2 0xBC3 JUMP JUMPDEST JUMPDEST POP SWAP2 SWAP1 POP JUMP JUMPDEST PUSH32 0x546869732066756E6374696F6E2068617320746F2062652063616C6C65642066 PUSH1 0x0 DUP3 ADD MSTORE PUSH32 0x726F6D207468652073746F727920636F6E747261637420627920616E20616363 PUSH1 0x20 DUP3 ADD MSTORE PUSH32 0x657074656420617574686F72206F6E6C79000000000000000000000000000000 PUSH1 0x40 DUP3 ADD MSTORE POP JUMP JUMPDEST PUSH1 0x0 PUSH2 0xCA6 PUSH1 0x51 DUP4 PUSH2 0x8D9 JUMP JUMPDEST SWAP2 POP PUSH2 0xCB1 DUP3 PUSH2 0xC24 JUMP JUMPDEST PUSH1 0x60 DUP3 ADD SWAP1 POP SWAP2 SWAP1 POP JUMP JUMPDEST PUSH1 0x0 PUSH1 0x20 DUP3 ADD SWAP1 POP DUP2 DUP2 SUB PUSH1 0x0 DUP4 ADD MSTORE PUSH2 0xCD5 DUP2 PUSH2 0xC99 JUMP JUMPDEST SWAP1 POP SWAP2 SWAP1 POP JUMP JUMPDEST PUSH32 0x596F75206C696B656420746869732073746F7279206265666F72650000000000 PUSH1 0x0 DUP3 ADD MSTORE POP JUMP JUMPDEST PUSH1 0x0 PUSH2 0xD12 PUSH1 0x1B DUP4 PUSH2 0x8D9 JUMP JUMPDEST SWAP2 POP PUSH2 0xD1D DUP3 PUSH2 0xCDC JUMP JUMPDEST PUSH1 0x20 DUP3 ADD SWAP1 POP SWAP2 SWAP1 POP JUMP JUMPDEST PUSH1 0x0 PUSH1 0x20 DUP3 ADD SWAP1 POP DUP2 DUP2 SUB PUSH1 0x0 DUP4 ADD MSTORE PUSH2 0xD41 DUP2 PUSH2 0xD05 JUMP JUMPDEST SWAP1 POP SWAP2 SWAP1 POP JUMP JUMPDEST PUSH32 0x4E487B7100000000000000000000000000000000000000000000000000000000 PUSH1 0x0 MSTORE PUSH1 0x11 PUSH1 0x4 MSTORE PUSH1 0x24 PUSH1 0x0 REVERT JUMPDEST PUSH1 0x0 PUSH2 0xD82 DUP3 PUSH2 0xA25 JUMP JUMPDEST SWAP2 POP PUSH2 0xD8D DUP4 PUSH2 0xA25 JUMP JUMPDEST SWAP3 POP DUP3 PUSH32 0xFFFFFFFFFFFFFFFFFFFFFFFFFFFFFFFFFFFFFFFFFFFFFFFFFFFFFFFFFFFFFFFF SUB DUP3 GT ISZERO PUSH2 0xDC2 JUMPI PUSH2 0xDC1 PUSH2 0xD48 JUMP JUMPDEST JUMPDEST DUP3 DUP3 ADD SWAP1 POP SWAP3 SWAP2 POP POP JUMP JUMPDEST PUSH32 0x536166654D6174683A206164646974696F6E206F766572666C6F770000000000 PUSH1 0x0 DUP3 ADD MSTORE POP JUMP JUMPDEST PUSH1 0x0 PUSH2 0xE03 PUSH1 0x1B DUP4 PUSH2 0x8D9 JUMP JUMPDEST SWAP2 POP PUSH2 0xE0E DUP3 PUSH2 0xDCD JUMP JUMPDEST PUSH1 0x20 DUP3 ADD SWAP1 POP SWAP2 SWAP1 POP JUMP JUMPDEST PUSH1 0x0 PUSH1 0x20 DUP3 ADD SWAP1 POP DUP2 DUP2 SUB PUSH1 0x0 DUP4 ADD MSTORE PUSH2 0xE32 DUP2 PUSH2 0xDF6 JUMP JUMPDEST SWAP1 POP SWAP2 SWAP1 POP JUMP INVALID LOG2 PUSH5 0x6970667358 0x22 SLT KECCAK256 SWAP3 PUSH9 0xBED497F02932B928B8 0x4F ADD 0xBE 0xA8 SWAP9 0xD3 MLOAD DIFFICULTY POP SIGNEXTEND 0xE9 PUSH21 0x52109A81D46AB8415564736F6C63430008090033A2 PUSH5 0x6970667358 0x22 SLT KECCAK256 PUSH1 0xC0 CALLDATASIZE 0xDC PUSH14 0x747EDA3374571CD643B7871891D DUP7 0xE7 LOG2 0xE6 BYTE DUP1 CALLDATACOPY 0xC8 0xC9 PUSH14 0xE1AE2364736F6C63430008090033 LOG2 PUSH5 0x6970667358 0x22 SLT KECCAK256 TIMESTAMP PUSH28 0xDE5E100CF2C3565E739EE2F2CF333D81E44663E014CDB95F5375FE5 0xC5 0x1F PUSH5 0x736F6C6343 STOP ADDMOD MULMOD STOP CALLER "},"gasEstimates":{"creation":{"codeDepositCost":"4441000","executionCost":"5155","totalCost":"4446155"},"external":{"createStory(string,string,string)":"infinite","deployedStories(uint256)":"4934","getDeployedStories()":"infinite"}},"methodIdentifiers":{"createStory(string,string,string)":"f4b955f3","deployedStories(uint256)":"18351ea7","getDeployedStories()":"2ff2bdd5"}},"storageLayout":{"storage":[{"astId":51,"contract":"Story.sol:StoryFactory","label":"deployedStories","offset":0,"slot":"0","type":"t_array(t_address)dyn_storage"}],"types":{"t_address":{"encoding":"inplace","label":"address","numberOfBytes":"20"},"t_array(t_address)dyn_storage":{"base":"t_address","encoding":"dynamic_array","label":"address[]","numberOfBytes":"32"}}},"userdoc":{"kind":"user","methods":{},"version":1}}